{"abi":[{"type":"constructor","inputs":[{"name":"tokenAddress","type":"address","internalType":"address"}],"stateMutability":"nonpayable"},{"type":"function","name":"echidna_total_supply_bounds","inputs":[],"outputs":[{"name":"","type":"bool","internalType":"bool"}],"stateMutability":"view"},{"type":"function","name":"echidna_vault_only_transfer_guard","inputs":[],"outputs":[{"name":"","type":"bool","internalType":"bool"}],"stateMutability":"nonpayable"},{"type":"function","name":"initialSupply","inputs":[],"outputs":[{"name":"","type":"uint256","internalType":"uint256"}],"stateMutability":"view"},{"type":"function","name":"lastActor","inputs":[],"outputs":[{"name":"","type":"address","internalType":"address"}],"stateMutability":"view"},{"type":"function","name":"recordActor","inputs":[],"outputs":[],"stateMutability":"nonpayable"},{"type":"function","name":"token","inputs":[],"outputs":[{"name":"","type":"address","internalType":"contract IVFIDEToken_H"}],"stateMutability":"view"}],"bytecode":{"object":"0x608080604052346100b2576020816104b7803803809161001f82856100c9565b8339810103126100b257516001600160a01b038116908190036100b2575f80546001600160a01b031916821790556040516318160ddd60e01b815290602090829060049082905afa9081156100be575f91610088575b506002556040516103b690816101018239f35b90506020813d6020116100b6575b816100a3602093836100c9565b810103126100b257515f610075565b5f80fd5b3d9150610096565b6040513d5f823e3d90fd5b601f909101601f19168101906001600160401b038211908210176100ec57604052565b634e487b7160e01b5f52604160045260245ffdfe6080806040526004361015610012575f80fd5b5f3560e01c908163378dc3dc146101bf57508063398c672c1461019b57806376787e961461017757806395d012af146100b1578063f93ef425146100895763fc0c546a1461005e575f80fd5b34610085575f366003190112610085575f546040516001600160a01b039091168152602090f35b5f80fd5b34610085575f366003190112610085576001546040516001600160a01b039091168152602090f35b34610085575f366003190112610085575f546040516318160ddd60e01b815290602090829060049082906001600160a01b03165afa90811561016c575f9161013a575b50600254906001820180921161012657602091811115908161011c575b506040519015158152f35b9050151582610111565b634e487b7160e01b5f52601160045260245ffd5b90506020813d602011610164575b81610155602093836101d9565b810103126100855751816100f4565b3d9150610148565b6040513d5f823e3d90fd5b34610085575f366003190112610085576020610191610227565b6040519015158152f35b34610085575f36600319011261008557600180546001600160a01b03191633179055005b34610085575f366003190112610085576020906002548152f35b90601f8019910116810190811067ffffffffffffffff8211176101fb57604052565b634e487b7160e01b5f52604160045260245ffd5b90816020910312610085575180151581036100855790565b604051602081014281523360601b6040830152603482526102496054836101d9565b905190205f546040516352edf61560e01b81526001600160a01b03928316600482018190529290911691602082602481865afa92831561016c575f936020938591610363575b5084146103075750825460405163a9059cbb60e01b81526004810192909252600160248301529092839160449183916001600160a01b03165af1801561016c576102da575b50600190565b6102fb9060203d602011610300575b6102f381836101d9565b81019061020f565b6102d4565b503d6102e9565b90604490604051948593849263a9059cbb60e01b84526004840152600160248401525af15f9181610342575b5061033e5750600190565b1590565b61035c91925060203d602011610300576102f381836101d9565b905f610333565b61037a9150843d8611610300576102f381836101d9565b5f61028f56fea26469706673582212208e45296e0ed5a0cbc52f4f1d3bb815ee6137000f85097fe8617e25fc19bbb37364736f6c634300081e0033","linkReferences":{}},"methodIdentifiers":{"echidna_total_supply_bounds()":"95d012af","echidna_vault_only_transfer_guard()":"76787e96","initialSupply()":"378dc3dc","lastActor()":"f93ef425","recordActor()":"398c672c","token()":"fc0c546a"},"id":39}