{
  "_format": "hh-sol-artifact-1",
  "contractName": "VFIDEPresale",
  "sourceName": "contracts/VFIDEPresale.sol",
  "abi": [
    {
      "inputs": [
        {
          "internalType": "address",
          "name": "token_",
          "type": "address"
        },
        {
          "internalType": "address",
          "name": "signer_",
          "type": "address"
        },
        {
          "internalType": "address",
          "name": "factory_",
          "type": "address"
        }
      ],
      "stateMutability": "nonpayable",
      "type": "constructor"
    },
    {
      "inputs": [],
      "name": "CapExceeded",
      "type": "error"
    },
    {
      "inputs": [],
      "name": "InvalidSigner",
      "type": "error"
    },
    {
      "inputs": [],
      "name": "InvalidTier",
      "type": "error"
    },
    {
      "inputs": [],
      "name": "NotUnlocked",
      "type": "error"
    },
    {
      "inputs": [],
      "name": "NothingToClaim",
      "type": "error"
    },
    {
      "inputs": [],
      "name": "ReferralInvalid",
      "type": "error"
    },
    {
      "inputs": [],
      "name": "VoucherExpired",
      "type": "error"
    },
    {
      "inputs": [],
      "name": "VoucherUsed",
      "type": "error"
    },
    {
      "inputs": [],
      "name": "WhaleLimitExceeded",
      "type": "error"
    },
    {
      "inputs": [],
      "name": "ZeroAmount",
      "type": "error"
    },
    {
      "anonymous": false,
      "inputs": [
        {
          "indexed": true,
          "internalType": "address",
          "name": "buyer",
          "type": "address"
        },
        {
          "indexed": false,
          "internalType": "uint256",
          "name": "vfideAmount",
          "type": "uint256"
        },
        {
          "indexed": true,
          "internalType": "address",
          "name": "referrer",
          "type": "address"
        }
      ],
      "name": "Bought",
      "type": "event"
    },
    {
      "anonymous": false,
      "inputs": [
        {
          "indexed": true,
          "internalType": "address",
          "name": "user",
          "type": "address"
        },
        {
          "indexed": false,
          "internalType": "uint256",
          "name": "amount",
          "type": "uint256"
        }
      ],
      "name": "Claimed",
      "type": "event"
    },
    {
      "anonymous": false,
      "inputs": [
        {
          "indexed": false,
          "internalType": "address",
          "name": "factory",
          "type": "address"
        }
      ],
      "name": "FactorySet",
      "type": "event"
    },
    {
      "anonymous": false,
      "inputs": [
        {
          "indexed": true,
          "internalType": "address",
          "name": "user",
          "type": "address"
        },
        {
          "indexed": false,
          "internalType": "uint256",
          "name": "amount",
          "type": "uint256"
        },
        {
          "indexed": false,
          "internalType": "uint64",
          "name": "unlockTime",
          "type": "uint64"
        },
        {
          "indexed": false,
          "internalType": "uint8",
          "name": "tier",
          "type": "uint8"
        }
      ],
      "name": "Locked",
      "type": "event"
    },
    {
      "anonymous": false,
      "inputs": [
        {
          "indexed": false,
          "internalType": "uint256",
          "name": "maxPerAddress",
          "type": "uint256"
        }
      ],
      "name": "MaxPerAddressSet",
      "type": "event"
    },
    {
      "anonymous": false,
      "inputs": [
        {
          "indexed": false,
          "internalType": "uint256",
          "name": "maxPerTx",
          "type": "uint256"
        }
      ],
      "name": "MaxPerTxSet",
      "type": "event"
    },
    {
      "anonymous": false,
      "inputs": [
        {
          "indexed": true,
          "internalType": "address",
          "name": "previousOwner",
          "type": "address"
        },
        {
          "indexed": true,
          "internalType": "address",
          "name": "newOwner",
          "type": "address"
        }
      ],
      "name": "OwnershipTransferStarted",
      "type": "event"
    },
    {
      "anonymous": false,
      "inputs": [
        {
          "indexed": true,
          "internalType": "address",
          "name": "previousOwner",
          "type": "address"
        },
        {
          "indexed": true,
          "internalType": "address",
          "name": "newOwner",
          "type": "address"
        }
      ],
      "name": "OwnershipTransferred",
      "type": "event"
    },
    {
      "anonymous": false,
      "inputs": [
        {
          "indexed": false,
          "internalType": "address",
          "name": "proof",
          "type": "address"
        }
      ],
      "name": "ProofLedgerSet",
      "type": "event"
    },
    {
      "anonymous": false,
      "inputs": [
        {
          "indexed": false,
          "internalType": "address",
          "name": "signer",
          "type": "address"
        }
      ],
      "name": "SignerSet",
      "type": "event"
    },
    {
      "anonymous": false,
      "inputs": [
        {
          "indexed": false,
          "internalType": "address",
          "name": "to",
          "type": "address"
        },
        {
          "indexed": false,
          "internalType": "uint256",
          "name": "amount",
          "type": "uint256"
        }
      ],
      "name": "Withdrawn",
      "type": "event"
    },
    {
      "inputs": [],
      "name": "CAP",
      "outputs": [
        {
          "internalType": "uint256",
          "name": "",
          "type": "uint256"
        }
      ],
      "stateMutability": "view",
      "type": "function"
    },
    {
      "inputs": [],
      "name": "MAX_BPS",
      "outputs": [
        {
          "internalType": "uint256",
          "name": "",
          "type": "uint256"
        }
      ],
      "stateMutability": "view",
      "type": "function"
    },
    {
      "inputs": [],
      "name": "REFEREE_BPS",
      "outputs": [
        {
          "internalType": "uint256",
          "name": "",
          "type": "uint256"
        }
      ],
      "stateMutability": "view",
      "type": "function"
    },
    {
      "inputs": [],
      "name": "REFERRER_BPS",
      "outputs": [
        {
          "internalType": "uint256",
          "name": "",
          "type": "uint256"
        }
      ],
      "stateMutability": "view",
      "type": "function"
    },
    {
      "inputs": [],
      "name": "TIER_0D",
      "outputs": [
        {
          "internalType": "uint8",
          "name": "",
          "type": "uint8"
        }
      ],
      "stateMutability": "view",
      "type": "function"
    },
    {
      "inputs": [],
      "name": "TIER_180D",
      "outputs": [
        {
          "internalType": "uint8",
          "name": "",
          "type": "uint8"
        }
      ],
      "stateMutability": "view",
      "type": "function"
    },
    {
      "inputs": [],
      "name": "TIER_90D",
      "outputs": [
        {
          "internalType": "uint8",
          "name": "",
          "type": "uint8"
        }
      ],
      "stateMutability": "view",
      "type": "function"
    },
    {
      "inputs": [],
      "name": "acceptOwnership",
      "outputs": [],
      "stateMutability": "nonpayable",
      "type": "function"
    },
    {
      "inputs": [
        {
          "components": [
            {
              "internalType": "address",
              "name": "buyer",
              "type": "address"
            },
            {
              "internalType": "uint256",
              "name": "amount",
              "type": "uint256"
            },
            {
              "internalType": "uint8",
              "name": "tier",
              "type": "uint8"
            },
            {
              "internalType": "uint64",
              "name": "expiry",
              "type": "uint64"
            },
            {
              "internalType": "bytes32",
              "name": "nonce",
              "type": "bytes32"
            }
          ],
          "internalType": "struct VFIDEPresale.Voucher",
          "name": "v",
          "type": "tuple"
        },
        {
          "internalType": "bytes",
          "name": "signature",
          "type": "bytes"
        },
        {
          "internalType": "address",
          "name": "ref",
          "type": "address"
        }
      ],
      "name": "buy",
      "outputs": [],
      "stateMutability": "nonpayable",
      "type": "function"
    },
    {
      "inputs": [],
      "name": "claim",
      "outputs": [],
      "stateMutability": "nonpayable",
      "type": "function"
    },
    {
      "inputs": [],
      "name": "factory",
      "outputs": [
        {
          "internalType": "contract IVaultFactoryPS",
          "name": "",
          "type": "address"
        }
      ],
      "stateMutability": "view",
      "type": "function"
    },
    {
      "inputs": [
        {
          "internalType": "address",
          "name": "",
          "type": "address"
        }
      ],
      "name": "locks",
      "outputs": [
        {
          "internalType": "uint256",
          "name": "amount",
          "type": "uint256"
        },
        {
          "internalType": "uint64",
          "name": "unlockTime",
          "type": "uint64"
        }
      ],
      "stateMutability": "view",
      "type": "function"
    },
    {
      "inputs": [],
      "name": "maxPerAddress",
      "outputs": [
        {
          "internalType": "uint256",
          "name": "",
          "type": "uint256"
        }
      ],
      "stateMutability": "view",
      "type": "function"
    },
    {
      "inputs": [],
      "name": "maxPerTx",
      "outputs": [
        {
          "internalType": "uint256",
          "name": "",
          "type": "uint256"
        }
      ],
      "stateMutability": "view",
      "type": "function"
    },
    {
      "inputs": [],
      "name": "owner",
      "outputs": [
        {
          "internalType": "address",
          "name": "",
          "type": "address"
        }
      ],
      "stateMutability": "view",
      "type": "function"
    },
    {
      "inputs": [],
      "name": "pendingOwner",
      "outputs": [
        {
          "internalType": "address",
          "name": "",
          "type": "address"
        }
      ],
      "stateMutability": "view",
      "type": "function"
    },
    {
      "inputs": [],
      "name": "poolBalance",
      "outputs": [
        {
          "internalType": "uint256",
          "name": "",
          "type": "uint256"
        }
      ],
      "stateMutability": "view",
      "type": "function"
    },
    {
      "inputs": [],
      "name": "proof",
      "outputs": [
        {
          "internalType": "contract IProofLedgerPS",
          "name": "",
          "type": "address"
        }
      ],
      "stateMutability": "view",
      "type": "function"
    },
    {
      "inputs": [
        {
          "internalType": "address",
          "name": "",
          "type": "address"
        }
      ],
      "name": "referralClaimed",
      "outputs": [
        {
          "internalType": "bool",
          "name": "",
          "type": "bool"
        }
      ],
      "stateMutability": "view",
      "type": "function"
    },
    {
      "inputs": [
        {
          "internalType": "address",
          "name": "",
          "type": "address"
        }
      ],
      "name": "referrerOf",
      "outputs": [
        {
          "internalType": "address",
          "name": "",
          "type": "address"
        }
      ],
      "stateMutability": "view",
      "type": "function"
    },
    {
      "inputs": [],
      "name": "remaining",
      "outputs": [
        {
          "internalType": "uint256",
          "name": "",
          "type": "uint256"
        }
      ],
      "stateMutability": "view",
      "type": "function"
    },
    {
      "inputs": [],
      "name": "renounceOwnership",
      "outputs": [],
      "stateMutability": "nonpayable",
      "type": "function"
    },
    {
      "inputs": [
        {
          "internalType": "address",
          "name": "factory_",
          "type": "address"
        }
      ],
      "name": "setFactory",
      "outputs": [],
      "stateMutability": "nonpayable",
      "type": "function"
    },
    {
      "inputs": [
        {
          "internalType": "uint256",
          "name": "max_",
          "type": "uint256"
        }
      ],
      "name": "setMaxPerAddress",
      "outputs": [],
      "stateMutability": "nonpayable",
      "type": "function"
    },
    {
      "inputs": [
        {
          "internalType": "uint256",
          "name": "max_",
          "type": "uint256"
        }
      ],
      "name": "setMaxPerTx",
      "outputs": [],
      "stateMutability": "nonpayable",
      "type": "function"
    },
    {
      "inputs": [
        {
          "internalType": "address",
          "name": "proof_",
          "type": "address"
        }
      ],
      "name": "setProofLedger",
      "outputs": [],
      "stateMutability": "nonpayable",
      "type": "function"
    },
    {
      "inputs": [
        {
          "internalType": "address",
          "name": "signer_",
          "type": "address"
        }
      ],
      "name": "setSigner",
      "outputs": [],
      "stateMutability": "nonpayable",
      "type": "function"
    },
    {
      "inputs": [],
      "name": "signer",
      "outputs": [
        {
          "internalType": "address",
          "name": "",
          "type": "address"
        }
      ],
      "stateMutability": "view",
      "type": "function"
    },
    {
      "inputs": [],
      "name": "sold",
      "outputs": [
        {
          "internalType": "uint256",
          "name": "",
          "type": "uint256"
        }
      ],
      "stateMutability": "view",
      "type": "function"
    },
    {
      "inputs": [],
      "name": "token",
      "outputs": [
        {
          "internalType": "contract IERC20",
          "name": "",
          "type": "address"
        }
      ],
      "stateMutability": "view",
      "type": "function"
    },
    {
      "inputs": [],
      "name": "totalLocked",
      "outputs": [
        {
          "internalType": "uint256",
          "name": "",
          "type": "uint256"
        }
      ],
      "stateMutability": "view",
      "type": "function"
    },
    {
      "inputs": [
        {
          "internalType": "address",
          "name": "",
          "type": "address"
        }
      ],
      "name": "totalReceived",
      "outputs": [
        {
          "internalType": "uint256",
          "name": "",
          "type": "uint256"
        }
      ],
      "stateMutability": "view",
      "type": "function"
    },
    {
      "inputs": [
        {
          "internalType": "address",
          "name": "newOwner",
          "type": "address"
        }
      ],
      "name": "transferOwnership",
      "outputs": [],
      "stateMutability": "nonpayable",
      "type": "function"
    },
    {
      "inputs": [
        {
          "internalType": "bytes32",
          "name": "",
          "type": "bytes32"
        }
      ],
      "name": "usedVoucher",
      "outputs": [
        {
          "internalType": "bool",
          "name": "",
          "type": "bool"
        }
      ],
      "stateMutability": "view",
      "type": "function"
    },
    {
      "inputs": [
        {
          "internalType": "address",
          "name": "to",
          "type": "address"
        },
        {
          "internalType": "uint256",
          "name": "amount",
          "type": "uint256"
        }
      ],
      "name": "withdrawUnsold",
      "outputs": [],
      "stateMutability": "nonpayable",
      "type": "function"
    }
  ],
  "bytecode": "0x60a0346101fc57601f611e9238819003918201601f19168301916001600160401b03831184841017610201578084926060946040528339810103126101fc5761004781610217565b90610060604061005960208401610217565b9201610217565b600180546001600160a01b0319908116909155600080543392811683178255604051939592916001600160a01b03909116907f8be0079c531659141344cd1fd0a4f28419497f9722a3daafe3b4186f6b6457e09080a360016002556969e10de76676d0800000600d556934f086f3b33b68400000600e556001600160a01b031690811515806101ea575b806101d8575b156101af576080829052600380546001600160a01b03199081166001600160a01b03808716918217909355600580549092169287169283179091556040519081527f1edf3afd4ac789736e00d216cd88be164ddcef26a6eedcc30cdb0cb62f3741b1916020917f9eaa897564d022fb8c5efaf0acdb5d9d27b440b2aad44400b6e1c702e65b9ed3908390a1604051908152a1604051611c66908161022c82396080518181816101d701528181610d24015281816114c301526119940152f35b60649062461bcd60e51b81526020600482015260046024820152637a65726f60e01b6044820152fd5b506001600160a01b03841615156100f0565b506001600160a01b03831615156100ea565b600080fd5b634e487b7160e01b600052604160045260246000fd5b51906001600160a01b03821682036101fc5756fe608080604052600436101561001357600080fd5b600090813560e01c90816302c7e7af1461172e575080630f6bab39146116c05780631923cc1f14611472578063238ac933146114495780632e1f91161461142d57806337ded38f146114115780634df9cfb3146113d85780634e71d92d146111dd57806355234ec01461118a578063568914121461116c5780635bb47808146110c85780635de9a1371461107c578063639814e01461105e5780636c19e78314610fbb578063715018a614610f5657806379ba509714610e8d5780637bddd65b14610e3f578063834bb22d14610e105780638da5cb5b14610de95780638f8656cb14610daa57806396365d4414610cf75780639c11847814610416578063b3463fce146103fa578063b50272f0146103dd578063c45a0155146103b4578063c6f6f21614610366578063d21cacdf14610325578063d9b894db14610309578063e30c3978146102e0578063ec81b483146102ba578063f2fde38b1461024d578063f968adbe1461022f578063faf924cf14610206578063fc0c546a146101c15763fd967f47146101a257600080fd5b346101be57806003193601126101be5760206040516127108152f35b80fd5b50346101be57806003193601126101be576040517f00000000000000000000000000000000000000000000000000000000000000006001600160a01b03168152602090f35b50346101be57806003193601126101be576004546040516001600160a01b039091168152602090f35b50346101be57806003193601126101be576020600e54604051908152f35b50346101be5760203660031901126101be5761026761174a565b61026f611871565b600180546001600160a01b0319166001600160a01b0392831690811790915582549091167f38d16b8cac22d99fc7c124b9cd0de2d3fa1faef420bfe791d8c362d765e227008380a380f35b50346101be57806003193601126101be5760206040516a3e09de2596099e2b0000008152f35b50346101be57806003193601126101be576001546040516001600160a01b039091168152602090f35b50346101be57806003193601126101be57602090604051908152f35b50346101be5760203660031901126101be576020906001600160a01b0361034a61174a565b168152600a8252604060018060a01b0391205416604051908152f35b50346101be5760203660031901126101be577f4d98629979575ca912f325e0faf32349d4cedcbb70e2adbddfd33df7123d30f360206004356103a6611871565b80600e55604051908152a180f35b50346101be57806003193601126101be576005546040516001600160a01b039091168152602090f35b50346101be57806003193601126101be57602060405161012c8152f35b50346101be57806003193601126101be57602060405160028152f35b50346101be57366003190160e08112610cf35760a0136101be5760a4356001600160401b038111610cf35736602382011215610cf35780600401356001600160401b0381116109785736602482840101116109785760c4356001600160a01b0381169290839003610cef576104896118c9565b610491611828565b336001600160a01b0390911603610ce057602435918215610cd1576104b461183e565b6001600160401b0342911610610cc25760ff6104ce611854565b168015908115610cb7575b8115610cac575b5015610c9d576104ee611828565b6104f6611854565b6001600160401b0361050661183e565b60ff60405193602085019530875246604087015260018060a01b031660608601528860808601521660a08401521660c082015260843560e082015260e0815261055161010082611760565b51902060405160208101917f19457468657265756d205369676e6564204d6573736167653a0a3332000000008352603c820152603c8152610593605c82611760565b51902090818652600860205260ff604087205416610c8e576105e46105ec91876020604051926105cc82601f19601f8401160185611760565b80845280602460009901838601378301015283611a58565b919091611a90565b6001600160a01b03168015908115610c78575b50610c69578452600860205260408420805460ff191660011790558215158480828080610c5f575b80610c46575b15610c3257505050838552600a60205260408520546001600160a01b03163314610c2357338552600a60205260408520846001600160601b0360a01b825416179055338552600960205260408520600160ff1982541617905561012c830283810461012c03610c0f57612710900460c8840284810460c803610bfb576127109004905b6106c3826106be8388611864565b611864565b600e548015159081610bf1575b50610be257338852600c6020526106ef836106be8860408c2054611864565b90600d5480151590818092610bd9575b610bca5784151594939291908b858c88610b86575b50505050506006546a3e09de2596099e2b0000006107328383611864565b11610b775791610748859493928c979693611864565b600655338652600c6020526040862055610b59575b60055460405163e01fd21560e01b81523360048201529460209186916024918391906001600160a01b03165af1938415610b4e578994610b2d575b508115610b265760055460405163e01fd21560e01b8152600481018a905290602090829060249082908e906001600160a01b03165af1908115610b1b578a91610aec575b50915b600260ff6107eb611854565b16036109d2576107fb888661191d565b6109c2575b5050806109b2575b50505b6004546001600160a01b0316610852575b50506040519081527fac8585ea57a62e66eb66db440f1bc73390227cc1d992faacefaab91fdca6059960203392a3600160025580f35b61085a611854565b60405160ff60208201923384528660408401521660608201528560808201526080815261088860a082611760565b5190206004549091906001600160a01b0316803b156109ae57604051631250d57560e31b81523360048201528781606481838096600160248401528960448401525af1610999575b50501561081c576004546001600160a01b0316803b1561097c57604051631250d57560e31b8152600481018690528681606481838096600260248401528860448401525af1610980575b50506004546001600160a01b031690813b1561097c57604051631250d57560e31b8152336004820152925082606481888195819795600360248498015260448401525af11561081c578161096d91611760565b61097857823861081c565b8280fd5b8580fd5b8161098a91611760565b61099557843861091a565b8480fd5b816109a391611760565b61097c5785386108d0565b8680fd5b6109bb9161191d565b3880610808565b6109cb9161191d565b3880610800565b93929190600160ff6109e2611854565b1603610ad4576001600160401b03610a0362ffffff6276a7005b1642611864565b1694338b52600b60205260408b20600181018781546001600160401b0381168211610abe575b505050610a378a8254611864565b9055610a4589600754611864565b600755610aae575b505080610a9e575b505060ff610a61611854565b6040519286845260208401521660408201527ff28b5fb55045aef421a6376d602db09abb576570321db83e783051d81a844fc660603392a261080b565b610aa79161191d565b3880610a55565b610ab79161191d565b3880610a4d565b67ffffffffffffffff1916179055388781610a29565b6001600160401b03610a0362ffffff62ed4e006109fc565b610b0e915060203d602011610b14575b610b068183611760565b810190611809565b386107dc565b503d610afc565b6040513d8c823e3d90fd5b88916107df565b610b4791945060203d602011610b1457610b068183611760565b9238610798565b6040513d8b823e3d90fd5b878452600c60205260408420610b70828254611864565b905561075d565b63a4875a4960e01b8b5260048bfd5b82604091610b9b9452600c6020522054611864565b82610bc0575b5050610bb15738808b858c610714565b63d1d0a70d60e01b8a5260048afd5b1190503880610ba1565b63d1d0a70d60e01b8b5260048bfd5b508084116106ff565b63d1d0a70d60e01b8852600488fd5b90508111386106d0565b634e487b7160e01b87526011600452602487fd5b634e487b7160e01b86526011600452602486fd5b6329477fc560e01b8552600485fd5b156106b0576329477fc560e01b8752600487fd5b505033875260096020528260ff6040892054161561062d565b5033871415610627565b632057875960e21b8552600485fd5b6003546001600160a01b031614159050386105ff565b6337fc013d60e11b8652600486fd5b63e142361760e01b8552600485fd5b6002915014386104e0565b6001811491506104d9565b630abfec3f60e11b8552600485fd5b631f2a200560e01b8552600485fd5b632057875960e21b8452600484fd5b8380fd5b5080fd5b50346101be57806003193601126101be576040516370a0823160e01b8152306004820152906020826024817f00000000000000000000000000000000000000000000000000000000000000006001600160a01b03165afa908115610d9e5790610d66575b602090604051908152f35b506020813d602011610d96575b81610d8060209383611760565b81010312610d915760209051610d5b565b600080fd5b3d9150610d73565b604051903d90823e3d90fd5b50346101be5760203660031901126101be5760209060ff906040906001600160a01b03610dd561174a565b168152600984522054166040519015158152f35b50346101be57806003193601126101be57546040516001600160a01b039091168152602090f35b50346101be5760203660031901126101be5760ff60406020926004358152600884522054166040519015158152f35b50346101be5760203660031901126101be577f0d279a5753fad2b01bf40c6d21bc82b9050db4f4fc517a1624e9193c430d82c66020600435610e7f611871565b80600d55604051908152a180f35b50346101be57806003193601126101be57600154336001600160a01b0390911603610eff57600180546001600160a01b0319908116909155815433918116821783556001600160a01b03167f8be0079c531659141344cd1fd0a4f28419497f9722a3daafe3b4186f6b6457e08380a380f35b60405162461bcd60e51b815260206004820152602960248201527f4f776e61626c6532537465703a2063616c6c6572206973206e6f7420746865206044820152683732bb9037bbb732b960b91b6064820152608490fd5b50346101be57806003193601126101be57610f6f611871565b600180546001600160a01b03199081169091558154908116825581906001600160a01b03167f8be0079c531659141344cd1fd0a4f28419497f9722a3daafe3b4186f6b6457e08280a380f35b50346101be5760203660031901126101be57610fd561174a565b610fdd611871565b6001600160a01b0316801561102e576020817f9eaa897564d022fb8c5efaf0acdb5d9d27b440b2aad44400b6e1c702e65b9ed3926001600160601b0360a01b6003541617600355604051908152a180f35b60405162461bcd60e51b815260206004820152600860248201526707369676e65723d360c41b6044820152606490fd5b50346101be57806003193601126101be576020600d54604051908152f35b50346101be5760203660031901126101be5760409081906001600160a01b036110a361174a565b168152600b602052206001600160401b03600182549201541682519182526020820152f35b50346101be5760203660031901126101be576110e261174a565b6110ea611871565b6001600160a01b0316801561113b576020817f1edf3afd4ac789736e00d216cd88be164ddcef26a6eedcc30cdb0cb62f3741b1926001600160601b0360a01b6005541617600555604051908152a180f35b60405162461bcd60e51b81526020600482015260096024820152680666163746f72793d360bc1b6044820152606490fd5b50346101be57806003193601126101be576020600754604051908152f35b50346101be57806003193601126101be576006546a3e09de2596099e2b00000003906a3e09de2596099e2b00000082116111c957602082604051908152f35b634e487b7160e01b81526011600452602490fd5b50346101be57806003193601126101be576111f66118c9565b338152600b6020526040812060405190604082018281106001600160401b038211176113c4576040526001600160401b0360018254928385520154169060208301918252156113b557516001600160401b031642106113a65761125c8151600754611797565b600755338252600b60205281600160408220828155015581602060018060a01b036005541660246040518094819363e01fd21560e01b83523360048401525af1801561139b576112b691849161137c575b5082519061191d565b80516040519081527fd8138f8a3f377c5259ca548e70e4c2de94f129f5a11036a15b69513cba2b426a60203392a26004546001600160a01b03166112fe575b50600160025580f35b5160408051336020820190815281830193909352908152611320606082611760565b5190206004546001600160a01b0316803b1561097857604051631250d57560e31b8152336004820152918260648186809581956004602485015260448401525af161136c575b506112f5565b61137591611760565b3881611366565b611395915060203d602011610b1457610b068183611760565b386112ad565b6040513d85823e3d90fd5b63fa68006560e01b8252600482fd5b6312d37ee560e31b8352600483fd5b634e487b7160e01b84526041600452602484fd5b50346101be5760203660031901126101be576020906040906001600160a01b0361140061174a565b168152600c83522054604051908152f35b50346101be57806003193601126101be57602060405160c88152f35b50346101be57806003193601126101be57602060405160018152f35b50346101be57806003193601126101be576003546040516001600160a01b039091168152602090f35b50346101be5760403660031901126101be5761148c61174a565b602435611497611871565b61149f6118c9565b6001600160a01b03821615611695576040516370a0823160e01b81523060048201527f00000000000000000000000000000000000000000000000000000000000000006001600160a01b03169290602081602481875afa90811561168a578591611658575b50828110611624578261151691611797565b600754116115e75760405163a9059cbb60e01b81526001600160a01b038216600482015260248101839052926020908490604490829088905af19283156115dc577f7084f5476618d8e60b11ef0d7d3f06914655adb8793e28ff7f018d4c76d505d59361158a9186916115ad575b506117d2565b604080516001600160a01b039290921682526020820192909252a1600160025580f35b6115cf915060203d6020116115d5575b6115c78183611760565b8101906117ba565b38611584565b503d6115bd565b6040513d86823e3d90fd5b60405162461bcd60e51b8152602060048201526015602482015274696e73756666696369656e7420726573657276657360581b6044820152606490fd5b60405162461bcd60e51b815260206004820152600c60248201526b1a5b9cdd59999a58da595b9d60a21b6044820152606490fd5b90506020813d602011611682575b8161167360209383611760565b81010312610995575138611504565b3d9150611666565b6040513d87823e3d90fd5b606460405162461bcd60e51b81526020600482015260046024820152630746f3d360e41b6044820152fd5b50346101be5760203660031901126101be577fc67aeca4ae51ec8f0dcec79f620f0fe366273b66a268d3f3702da704e875ea6b60206116fd61174a565b611705611871565b600480546001600160a01b0319166001600160a01b03929092169182179055604051908152a180f35b905034610cf35781600319360112610cf3576020906006548152f35b600435906001600160a01b0382168203610d9157565b90601f801991011681019081106001600160401b0382111761178157604052565b634e487b7160e01b600052604160045260246000fd5b919082039182116117a457565b634e487b7160e01b600052601160045260246000fd5b90816020910312610d9157518015158103610d915790565b156117d957565b60405162461bcd60e51b81526020600482015260086024820152673a3930b739b332b960c11b6044820152606490fd5b90816020910312610d9157516001600160a01b0381168103610d915790565b6004356001600160a01b0381168103610d915790565b6064356001600160401b0381168103610d915790565b60443560ff81168103610d915790565b919082018092116117a457565b6000546001600160a01b0316330361188557565b606460405162461bcd60e51b815260206004820152602060248201527f4f776e61626c653a2063616c6c6572206973206e6f7420746865206f776e65726044820152fd5b60028054146118d85760028055565b60405162461bcd60e51b815260206004820152601f60248201527f5265656e7472616e637947756172643a207265656e7472616e742063616c6c006044820152606490fd5b60055460405163652b9b4160e01b81526001600160a01b038381166004830152909160209183916024918391165afa9081156119d757600091611a19575b50156119e35760405163a9059cbb60e01b81526001600160a01b03909116600482015260248101919091526020818060448101038160007f00000000000000000000000000000000000000000000000000000000000000006001600160a01b03165af180156119d7576119d5916000916115ad57506117d2565b565b6040513d6000823e3d90fd5b60405162461bcd60e51b815260206004820152600e60248201526d19195cdd081b9bdd081d985d5b1d60921b6044820152606490fd5b611a32915060203d6020116115d5576115c78183611760565b3861195b565b60051115611a4257565b634e487b7160e01b600052602160045260246000fd5b906041815114600014611a8657611a82916020820151906060604084015193015160001a90611bb0565b9091565b5050600090600290565b611a9981611a38565b80611aa15750565b611aaa81611a38565b60018103611af75760405162461bcd60e51b815260206004820152601860248201527f45434453413a20696e76616c6964207369676e617475726500000000000000006044820152606490fd5b611b0081611a38565b60028103611b4d5760405162461bcd60e51b815260206004820152601f60248201527f45434453413a20696e76616c6964207369676e6174757265206c656e677468006044820152606490fd5b600390611b5981611a38565b14611b6057565b60405162461bcd60e51b815260206004820152602260248201527f45434453413a20696e76616c6964207369676e6174757265202773272076616c604482015261756560f01b6064820152608490fd5b7f7fffffffffffffffffffffffffffffff5d576e7357a4501ddfe92f46681b20a08411611c245760209360009360ff60809460405194855216868401526040830152606082015282805260015afa156119d7576000516001600160a01b03811615611c1b5790600090565b50600090600190565b5050505060009060039056fea26469706673582212203dc3ae236fc7148a13d5e11437fbe0f6118d84e4618904b152a94727bb7d5e2764736f6c634300081e0033",
  "linkReferences": {},
  "deployedLinkReferences": {}
}