{"abi":[{"type":"constructor","inputs":[{"name":"_seer","type":"address","internalType":"address"},{"name":"_dao","type":"address","internalType":"address"}],"stateMutability":"nonpayable"},{"type":"function","name":"APPEAL_WINDOW","inputs":[],"outputs":[{"name":"","type":"uint256","internalType":"uint256"}],"stateMutability":"view"},{"type":"function","name":"CRITICAL_RISK_DURATION","inputs":[],"outputs":[{"name":"","type":"uint256","internalType":"uint256"}],"stateMutability":"view"},{"type":"function","name":"HIGH_RISK_DURATION","inputs":[],"outputs":[{"name":"","type":"uint256","internalType":"uint256"}],"stateMutability":"view"},{"type":"function","name":"LOW_RISK_DURATION","inputs":[],"outputs":[{"name":"","type":"uint256","internalType":"uint256"}],"stateMutability":"view"},{"type":"function","name":"MEDIUM_RISK_DURATION","inputs":[],"outputs":[{"name":"","type":"uint256","internalType":"uint256"}],"stateMutability":"view"},{"type":"function","name":"MIN_CONFIDENCE","inputs":[],"outputs":[{"name":"","type":"uint256","internalType":"uint256"}],"stateMutability":"view"},{"type":"function","name":"SCORE_PENALTY_CRITICAL","inputs":[],"outputs":[{"name":"","type":"uint256","internalType":"uint256"}],"stateMutability":"view"},{"type":"function","name":"SCORE_PENALTY_HIGH","inputs":[],"outputs":[{"name":"","type":"uint256","internalType":"uint256"}],"stateMutability":"view"},{"type":"function","name":"SCORE_PENALTY_LOW","inputs":[],"outputs":[{"name":"","type":"uint256","internalType":"uint256"}],"stateMutability":"view"},{"type":"function","name":"SCORE_PENALTY_MEDIUM","inputs":[],"outputs":[{"name":"","type":"uint256","internalType":"uint256"}],"stateMutability":"view"},{"type":"function","name":"authorizeOracle","inputs":[{"name":"oracle","type":"address","internalType":"address"}],"outputs":[],"stateMutability":"nonpayable"},{"type":"function","name":"authorizedOracles","inputs":[{"name":"","type":"address","internalType":"address"}],"outputs":[{"name":"","type":"bool","internalType":"bool"}],"stateMutability":"view"},{"type":"function","name":"dao","inputs":[],"outputs":[{"name":"","type":"address","internalType":"address"}],"stateMutability":"view"},{"type":"function","name":"emitDisputePattern","inputs":[{"name":"initiator","type":"address","internalType":"address"},{"name":"counterparty","type":"address","internalType":"address"},{"name":"amount","type":"uint256","internalType":"uint256"},{"name":"initiatorDisputes","type":"uint256","internalType":"uint256"},{"name":"counterpartyDisputes","type":"uint256","internalType":"uint256"},{"name":"disputeType","type":"bytes32","internalType":"bytes32"}],"outputs":[],"stateMutability":"nonpayable"},{"type":"function","name":"emitEndorsementPattern","inputs":[{"name":"endorser","type":"address","internalType":"address"},{"name":"endorsed","type":"address","internalType":"address"},{"name":"timeSinceLastEndorsement","type":"uint256","internalType":"uint256"},{"name":"totalEndorsements","type":"uint256","internalType":"uint256"}],"outputs":[],"stateMutability":"nonpayable"},{"type":"function","name":"emitTransactionPattern","inputs":[{"name":"user","type":"address","internalType":"address"},{"name":"counterparty","type":"address","internalType":"address"},{"name":"amount","type":"uint256","internalType":"uint256"},{"name":"transactionType","type":"bytes32","internalType":"bytes32"}],"outputs":[],"stateMutability":"nonpayable"},{"type":"function","name":"fileAppeal","inputs":[],"outputs":[],"stateMutability":"nonpayable"},{"type":"function","name":"getLimitMultiplier","inputs":[{"name":"user","type":"address","internalType":"address"}],"outputs":[{"name":"","type":"uint256","internalType":"uint256"}],"stateMutability":"view"},{"type":"function","name":"getRiskLevel","inputs":[{"name":"user","type":"address","internalType":"address"}],"outputs":[{"name":"","type":"uint8","internalType":"enum AIFraudDetection.RiskLevel"}],"stateMutability":"view"},{"type":"function","name":"getUserFraudState","inputs":[{"name":"user","type":"address","internalType":"address"}],"outputs":[{"name":"currentRisk","type":"uint8","internalType":"enum AIFraudDetection.RiskLevel"},{"name":"frozen","type":"bool","internalType":"bool"},{"name":"appealActive","type":"bool","internalType":"bool"},{"name":"flagCount","type":"uint256","internalType":"uint256"},{"name":"expiresAt","type":"uint256","internalType":"uint256"},{"name":"signalCount","type":"uint256","internalType":"uint256"}],"stateMutability":"view"},{"type":"function","name":"getVelocity","inputs":[{"name":"user","type":"address","internalType":"address"}],"outputs":[{"name":"txCount24h","type":"uint256","internalType":"uint256"},{"name":"volume24h","type":"uint256","internalType":"uint256"},{"name":"lastTx","type":"uint256","internalType":"uint256"}],"stateMutability":"view"},{"type":"function","name":"isFrozen","inputs":[{"name":"user","type":"address","internalType":"address"}],"outputs":[{"name":"","type":"bool","internalType":"bool"}],"stateMutability":"view"},{"type":"function","name":"lastTransactionTime","inputs":[{"name":"","type":"address","internalType":"address"}],"outputs":[{"name":"","type":"uint256","internalType":"uint256"}],"stateMutability":"view"},{"type":"function","name":"manualUnfreeze","inputs":[{"name":"user","type":"address","internalType":"address"}],"outputs":[],"stateMutability":"nonpayable"},{"type":"function","name":"resolveAppeal","inputs":[{"name":"user","type":"address","internalType":"address"},{"name":"success","type":"bool","internalType":"bool"}],"outputs":[],"stateMutability":"nonpayable"},{"type":"function","name":"revokeOracle","inputs":[{"name":"oracle","type":"address","internalType":"address"}],"outputs":[],"stateMutability":"nonpayable"},{"type":"function","name":"seer","inputs":[],"outputs":[{"name":"","type":"address","internalType":"contract ISeerPenalty"}],"stateMutability":"view"},{"type":"function","name":"setSeer","inputs":[{"name":"_seer","type":"address","internalType":"address"}],"outputs":[],"stateMutability":"nonpayable"},{"type":"function","name":"submitFraudSignal","inputs":[{"name":"user","type":"address","internalType":"address"},{"name":"fraudType","type":"uint8","internalType":"enum AIFraudDetection.FraudType"},{"name":"riskLevel","type":"uint8","internalType":"enum AIFraudDetection.RiskLevel"},{"name":"confidence","type":"uint256","internalType":"uint256"},{"name":"evidence","type":"string","internalType":"string"}],"outputs":[],"stateMutability":"nonpayable"},{"type":"function","name":"totalAppealsSucceeded","inputs":[],"outputs":[{"name":"","type":"uint256","internalType":"uint256"}],"stateMutability":"view"},{"type":"function","name":"totalFlagsIssued","inputs":[],"outputs":[{"name":"","type":"uint256","internalType":"uint256"}],"stateMutability":"view"},{"type":"function","name":"transactionCount24h","inputs":[{"name":"","type":"address","internalType":"address"}],"outputs":[{"name":"","type":"uint256","internalType":"uint256"}],"stateMutability":"view"},{"type":"function","name":"userStates","inputs":[{"name":"","type":"address","internalType":"address"}],"outputs":[{"name":"currentRisk","type":"uint8","internalType":"enum AIFraudDetection.RiskLevel"},{"name":"flaggedAt","type":"uint256","internalType":"uint256"},{"name":"expiresAt","type":"uint256","internalType":"uint256"},{"name":"frozen","type":"bool","internalType":"bool"},{"name":"appealActive","type":"bool","internalType":"bool"},{"name":"appealDeadline","type":"uint256","internalType":"uint256"},{"name":"flagCount","type":"uint256","internalType":"uint256"}],"stateMutability":"view"},{"type":"function","name":"volumeLast24h","inputs":[{"name":"","type":"address","internalType":"address"}],"outputs":[{"name":"","type":"uint256","internalType":"uint256"}],"stateMutability":"view"},{"type":"event","name":"AppealFiled","inputs":[{"name":"user","type":"address","indexed":true,"internalType":"address"},{"name":"deadline","type":"uint256","indexed":false,"internalType":"uint256"}],"anonymous":false},{"type":"event","name":"AppealResolved","inputs":[{"name":"user","type":"address","indexed":true,"internalType":"address"},{"name":"success","type":"bool","indexed":false,"internalType":"bool"}],"anonymous":false},{"type":"event","name":"DisputePattern","inputs":[{"name":"initiator","type":"address","indexed":true,"internalType":"address"},{"name":"counterparty","type":"address","indexed":true,"internalType":"address"},{"name":"amount","type":"uint256","indexed":false,"internalType":"uint256"},{"name":"initiatorDisputes","type":"uint256","indexed":false,"internalType":"uint256"},{"name":"counterpartyDisputes","type":"uint256","indexed":false,"internalType":"uint256"},{"name":"disputeType","type":"bytes32","indexed":false,"internalType":"bytes32"}],"anonymous":false},{"type":"event","name":"EndorsementPattern","inputs":[{"name":"endorser","type":"address","indexed":true,"internalType":"address"},{"name":"endorsed","type":"address","indexed":true,"internalType":"address"},{"name":"endorserScore","type":"uint256","indexed":false,"internalType":"uint256"},{"name":"endorsedScore","type":"uint256","indexed":false,"internalType":"uint256"},{"name":"timeSinceLastEndorsement","type":"uint256","indexed":false,"internalType":"uint256"},{"name":"totalEndorsements","type":"uint256","indexed":false,"internalType":"uint256"}],"anonymous":false},{"type":"event","name":"FraudFlagged","inputs":[{"name":"user","type":"address","indexed":true,"internalType":"address"},{"name":"fraudType","type":"uint8","indexed":true,"internalType":"enum AIFraudDetection.FraudType"},{"name":"riskLevel","type":"uint8","indexed":false,"internalType":"enum AIFraudDetection.RiskLevel"},{"name":"confidence","type":"uint256","indexed":false,"internalType":"uint256"},{"name":"oracle","type":"address","indexed":true,"internalType":"address"}],"anonymous":false},{"type":"event","name":"OracleAuthorized","inputs":[{"name":"oracle","type":"address","indexed":true,"internalType":"address"}],"anonymous":false},{"type":"event","name":"OracleRevoked","inputs":[{"name":"oracle","type":"address","indexed":true,"internalType":"address"}],"anonymous":false},{"type":"event","name":"RiskLevelUpdated","inputs":[{"name":"user","type":"address","indexed":true,"internalType":"address"},{"name":"oldLevel","type":"uint8","indexed":false,"internalType":"enum AIFraudDetection.RiskLevel"},{"name":"newLevel","type":"uint8","indexed":false,"internalType":"enum AIFraudDetection.RiskLevel"}],"anonymous":false},{"type":"event","name":"TransactionPattern","inputs":[{"name":"user","type":"address","indexed":true,"internalType":"address"},{"name":"counterparty","type":"address","indexed":true,"internalType":"address"},{"name":"amount","type":"uint256","indexed":false,"internalType":"uint256"},{"name":"timestamp","type":"uint256","indexed":false,"internalType":"uint256"},{"name":"userScore","type":"uint256","indexed":false,"internalType":"uint256"},{"name":"counterpartyScore","type":"uint256","indexed":false,"internalType":"uint256"},{"name":"transactionType","type":"bytes32","indexed":false,"internalType":"bytes32"}],"anonymous":false},{"type":"event","name":"UserFrozen","inputs":[{"name":"user","type":"address","indexed":true,"internalType":"address"},{"name":"reason","type":"string","indexed":false,"internalType":"string"}],"anonymous":false},{"type":"event","name":"UserUnfrozen","inputs":[{"name":"user","type":"address","indexed":true,"internalType":"address"}],"anonymous":false},{"type":"error","name":"AFD_AppealActive","inputs":[]},{"type":"error","name":"AFD_InvalidRiskLevel","inputs":[]},{"type":"error","name":"AFD_NoActiveFlag","inputs":[]},{"type":"error","name":"AFD_NotDAO","inputs":[]},{"type":"error","name":"AFD_NotOracle","inputs":[]}],"bytecode":{"object":"0x608034609657601f61194e38819003918201601f19168301916001600160401b0383118484101760ab578084926040948552833981010312609657604b602060458360bf565b920160bf565b906001600160a01b031680151580609a575b1560965760018060a01b03195f5416175f5560018060a01b031660018060a01b0319600154161760015560405161187b90816100d38239f35b5f80fd5b506001600160a01b0382161515605d565b634e487b7160e01b5f52604160045260245ffd5b51906001600160a01b038216820360965756fe6080806040526004361015610012575f80fd5b5f905f3560e01c9081630ecc535f14611541575080630f13b763146114cf57806313e1fc4f146114b45780631615f2d4146114825780632d55ea391461145b5780634162169f1461143357806341f9375714611417578063430dba0c1461139d57806345c8817a146113675780634a2ebce4146111325780635983e6b0146110b45780635e374a93146110975780635fe592b71461105f57806361c992a31461102257806377a59b7f146110055780637a6223a814610fcd57806381680f1414610e6857806395603d6e14610e4c57806397f64819146106f05780639878b008146106d257806398afc086146106b6578063b9643653146105e0578063c8a55ba0146103f0578063cbb70d69146103c4578063d3e741cf14610351578063df83100014610334578063e071c1c0146102d4578063e583983614610292578063e60b31b114610274578063e6a90f5c14610256578063e75b20731461021d578063f269a21e14610218578063f8df2899146102185763ff62adf914610194575f80fd5b346102155760203660031901126102155760c0906040906001600160a01b036101bb6115c8565b16815260036020522060ff81541690600381015490600581015460ff60066002840154930154936101ef60405180976115f4565b8181161515602087015260081c16151560408501526060840152608083015260a0820152f35b80fd5b611601565b5034610215576020366003190112610215576020906040906001600160a01b036102456115c8565b168152600483522054604051908152f35b50346102155780600319360112610215576020600754604051908152f35b50346102155780600319360112610215576020600854604051908152f35b50346102155760203660031901126102155760209060ff906003906040906001600160a01b036102c06115c8565b168152828552200154166040519015158152f35b5034610215576020366003190112610215576102ee6115c8565b6001546001600160a01b03163303610325576001600160a01b031680156103215781546001600160a01b03191617815580f35b5080fd5b635c91df9760e01b8252600482fd5b503461021557806003193601126102155760206040516101f48152f35b50346102155760203660031901126102155761036b6115c8565b6001546001600160a01b03163303610325576001600160a01b0316808252600360208190526040832001805460ff191690557f21c062e46acda712f149685461c37d9bac6391feb355b249d615b8d27a4dd6ba8280a280f35b50346102155760203660031901126102155760206103e86103e36115c8565b611749565b604051908152f35b50346102155760403660031901126102155761040a6115c8565b60243590811515908183036105dc576001546001600160a01b031633036105cd5760018060a01b031691828452600360205260408420906003820190815460ff8160081c16156105be5761ff0019168255610490575b505060207fd330b2eda12d288b104b199117abc61e61dfb7dac764c018999a583687b6eb3091604051908152a280f35b815460ff19908116835581541690556002810184905560060180548482559081610514575b505060207fd330b2eda12d288b104b199117abc61e61dfb7dac764c018999a583687b6eb30916104e66008546116cb565b600855837f21c062e46acda712f149685461c37d9bac6391feb355b249d615b8d27a4dd6ba8680a291610460565b816005029160058304036105aa57845260208420908101905b818110156104b557808560059255856001820155856002820155856003820161055681546116fb565b80610569575b505060048201550161052d565b601f811160011461057f5750555b855f8061055c565b8183526020832061059a91601f01861c810190600101611733565b8082528160208120915555610577565b634e487b7160e01b85526011600452602485fd5b6330ca006960e01b8752600487fd5b635c91df9760e01b8452600484fd5b8380fd5b503461021557806003193601126102155733815260036020526040812060ff81541660058110156106a257156106935760038101805460ff8160081c16610684576101009061ff00191617905562093a80420190814211610670576004829101556040519081527fa32050f37e2e6e25921f6cf98bcf874592724a5af605cb78ed10163af02adc7160203392a280f35b634e487b7160e01b83526011600452602483fd5b633f64bb4960e21b8452600484fd5b6330ca006960e01b8252600482fd5b634e487b7160e01b83526021600452602483fd5b5034610215578060031936011261021557602060405160328152f35b503461021557806003193601126102155760206040516203f4808152f35b5034610d005760a0366003190112610d005761070a6115c8565b602435906008821015610d005760443560058110918215610d0057606435916084359467ffffffffffffffff8611610d005736602387011215610d005785600401359267ffffffffffffffff8411610d00573660248589010111610d0057335f52600260205260ff60405f20541615610e3d578215610e2e576117708510610e2e5760018060a01b031695865f52600360205260405f209360ff600386015460081c16610e1f5760068501916040519160c0830183811067ffffffffffffffff821117610df7576040528483526020830186815260408401908982525f602060608701944286528060246040519861080b85601f19601f860116018b6116d9565b828a520183890137860101526080850193845260a085019533875280549068010000000000000000821015610df75760018201808255821015610e0b575f52600560205f209102019451906008821015610d3657855490516005811015610d365761ff0060ff9160081b1692169061ffff19161717845551600184015551600283015560038201905180519067ffffffffffffffff8211610df7576108b083546116fb565b601f8111610dbc575b50602090601f8311600114610d55576004949392915f9183610d4a575b50508160011b915f199060031b1c19161790555b019060018060a01b039051166bffffffffffffffffffffffff60a01b82541617905560ff835416946005861015610d365760ff831690868211610d04575b50506005830161093881546116cb565b90556109456007546116cb565b600755855f52600360205260405f20600183145f14610aa95750865487906001600160a01b0316803b156103215781809160a46040518094819363c274326d60e01b83528d60048401526032602484015260606044840152601d60648401527f41493a204c6f77207269736b20616e6f6d616c7920646574656374656400000060848401525af18015610a9e57610a85575b505060ff935b6109ea60405180946115f4565b6020830152857efb02b9de77cd17b5b29b004e07658c1c09977fdd777bdfec030d3f014e70a060403394a454166005811015610a7157808203610a2b578380f35b7fc934f665859729483f417826d0dbb2dd5c1c2ff574f2566ac21695e657556e1391610a69604092610a5f845180946115f4565b60208301906115f4565ba25f80808380f35b634e487b7160e01b84526021600452602484fd5b81610a8f916116d9565b610a9a57865f6109d7565b8680fd5b6040513d84823e3d90fd5b60028303610b495750865487906001600160a01b0316803b156103215781809160a46040518094819363c274326d60e01b83528d600484015260c8602484015260606044840152602060648401527f41493a204d656469756d207269736b207061747465726e20646574656374656460848401525af18015610a9e57610b34575b505060ff936109dd565b81610b3e916116d9565b610a9a57865f610b2a565b60038303610bd45750865487906001600160a01b0316803b156103215781809160a46040518094819363c274326d60e01b83528d60048401526101f4602484015260606044840152601f60648401527f41493a2048696768207269736b206265686176696f722064657465637465640060848401525af18015610a9e57610b3457505060ff936109dd565b939695949360048314610bee575b5060ff939495966109dd565b600301805460ff191660011790555f546001600160a01b0316803b15610d00575f809160a46040518094819363c274326d60e01b83528b60048401526103e8602484015260606044840152602060648401527f41493a20437269746963616c206672617564207269736b202d2066726f7a656e60848401525af18015610cf557610cdc575b5084959660ff94957f141ac4b66b0c2ea8075880fdac35a2b960c23ca29e7f955a29e6744c5aa6cf7b606060405160208152601c60208201527f437269746963616c206672617564207269736b206465746563746564000000006040820152a296959493610be2565b60ff949596505f610cec916116d9565b5f959493610c73565b6040513d5f823e3d90fd5b5f80fd5b15610d3657835460ff1916178355426001840155610d2a610d24836117fa565b4261165e565b60028401555f80610928565b634e487b7160e01b5f52602160045260245ffd5b015190505f806108d6565b90601f19831691845f52815f20925f5b818110610da4575091600193918560049897969410610d8c575b505050811b0190556108ea565b01515f1960f88460031b161c191690555f8080610d7f565b92936020600181928786015181550195019301610d65565b610de790845f5260205f20601f850160051c81019160208610610ded575b601f0160051c0190611733565b5f6108b9565b9091508190610dda565b634e487b7160e01b5f52604160045260245ffd5b634e487b7160e01b5f52603260045260245ffd5b633f64bb4960e21b5f5260045ffd5b630aa6a2f160e41b5f5260045ffd5b632cdf1a1160e01b5f5260045ffd5b34610d00575f366003190112610d005760206040516103e88152f35b34610d00576080366003190112610d0057610e816115c8565b610e896115de565b5f54604051630d47875d60e41b81526001600160a01b0393841660048201819052939091169291602082602481875afa918215610cf5575f92610f98575b50604051630d47875d60e41b81526001600160a01b039091166004820181905293602090829060249082905afa908115610cf5575f91610f46575b507f677e68fd73c9afbb4a025251407b20dde3a5f02bda7422f9bba8f63cc7856a7b91608091604051918252602082015260443560408201526064356060820152a3005b90506020813d602011610f90575b81610f61602093836116d9565b81010312610d0057517f677e68fd73c9afbb4a025251407b20dde3a5f02bda7422f9bba8f63cc7856a7b610f02565b3d9150610f54565b9091506020813d602011610fc5575b81610fb4602093836116d9565b81010312610d005751906020610ec7565b3d9150610fa7565b34610d00576020366003190112610d00576001600160a01b03610fee6115c8565b165f526005602052602060405f2054604051908152f35b34610d00575f366003190112610d00576020604051620151808152f35b34610d00576020366003190112610d00576001600160a01b036110436115c8565b165f526002602052602060ff60405f2054166040519015158152f35b34610d00576020366003190112610d00576001600160a01b036110806115c8565b165f526006602052602060405f2054604051908152f35b34610d00575f366003190112610d0057602060405162278d008152f35b34610d00576020366003190112610d00576110cd6115c8565b6001546001600160a01b03163303611123576001600160a01b03165f818152600260205260408120805460ff191690557f3c9c4af7c4c66de2ffc68abfa4e0d275fbce92f248473bca0d6787dc8caf8e319080a2005b635c91df9760e01b5f5260045ffd5b34610d00576080366003190112610d005761114b6115c8565b6111536115de565b6044359160018060a01b031690815f52600460205260405f2054620151808101809111611353574211611332575b815f52600560205260405f2061119781546116cb565b9055815f52600660205260405f206111b084825461165e565b9055815f5260046020524260405f205560018060a01b035f54169260405191630d47875d60e41b8352836004840152602083602481885afa928315610cf5575f936112fe575b506001600160a01b03169384156112d157602060249160405192838092630d47875d60e41b82528960048301525afa908115610cf5575f9161127d575b50907f51517cc4d05190d060f0b02b491d96709d6b742c24081d9a4c25dc01b05efcff9260a092905b604051928352426020840152604083015260608201526064356080820152a3005b9190506020823d6020116112c9575b81611299602093836116d9565b81010312610d005790517f51517cc4d05190d060f0b02b491d96709d6b742c24081d9a4c25dc01b05efcff611233565b3d915061128c565b5060a0907f51517cc4d05190d060f0b02b491d96709d6b742c24081d9a4c25dc01b05efcff925f9061125c565b9092506020813d60201161132a575b8161131a602093836116d9565b81010312610d00575191856111f6565b3d915061130d565b815f5260056020525f6040812055815f5260066020525f6040812055611181565b634e487b7160e01b5f52601160045260245ffd5b34610d00576020366003190112610d0057606061138a6113856115c8565b61166b565b9060405192835260208301526040820152f35b34610d005760c0366003190112610d00576113b66115c8565b6113be6115de565b7f7c0060b16a15a4ec400a32479372a87dd5d84f5a3a9078783c4c61fe164453d560806040519260443584526064356020850152608435604085015260a435606085015260018060a01b03169360018060a01b031692a3005b34610d00575f366003190112610d005760206040516117708152f35b34610d00575f366003190112610d00576001546040516001600160a01b039091168152602090f35b34610d00575f366003190112610d00575f546040516001600160a01b039091168152602090f35b34610d00576020366003190112610d005760206114a56114a06115c8565b61161e565b6114b260405180926115f4565bf35b34610d00575f366003190112610d0057602060405160c88152f35b34610d00576020366003190112610d00576114e86115c8565b6001546001600160a01b03163303611123576001600160a01b03165f818152600260205260408120805460ff191660011790557f5a7a3f71a35f5e2589980d29d1c6d8c75e39657751190874081e55208bae24b79080a2005b34610d00576020366003190112610d005760e0906001600160a01b036115656115c8565b165f52600360205260405f2060ff8154169060ff6001820154600283015460038401549161159d8760056004880154970154976115f4565b602087015260408601528181161515606086015260081c161515608084015260a083015260c0820152f35b600435906001600160a01b0382168203610d0057565b602435906001600160a01b0382168203610d0057565b906005821015610d365752565b34610d00575f366003190112610d0057602060405162093a808152f35b6001600160a01b03165f90815260036020526040902060028101548015159081611654575b5061164f575460ff1690565b505f90565b905042115f611643565b9190820180921161135357565b60018060a01b031690815f52600460205260405f20546201518081018091116113535742116116b9575f91825260056020908152604080842054600683528185205460049093529320549091565b5f918252600460205260408220548291565b5f1981146113535760010190565b90601f8019910116810190811067ffffffffffffffff821117610df757604052565b90600182811c92168015611729575b602083101461171557565b634e487b7160e01b5f52602260045260245ffd5b91607f169161170a565b81811061173e575050565b5f8155600101611733565b6040516305857cb560e21b81526001600160a01b039091166004820152602081602481305afa908115610cf5575f916117bf575b506005811015610d365780156117b957600181146117b357600281146117ad576003146117a8575f90565b601490565b50603290565b50605090565b50606490565b90506020813d6020116117f2575b816117da602093836116d9565b81010312610d0057516005811015610d00575f61177d565b3d91506117cd565b6005811015610d36576001811461183d5760028114611835576003811461182d57600414611826575f90565b62278d0090565b5062093a8090565b506203f48090565b50620151809056fea26469706673582212201091a14263302f21b72e714e3b41d06ffa0b24092cf9e5189eb223129af4db3464736f6c634300081e0033","linkReferences":{}},"methodIdentifiers":{"APPEAL_WINDOW()":"f269a21e","CRITICAL_RISK_DURATION()":"5e374a93","HIGH_RISK_DURATION()":"f8df2899","LOW_RISK_DURATION()":"77a59b7f","MEDIUM_RISK_DURATION()":"9878b008","MIN_CONFIDENCE()":"41f93757","SCORE_PENALTY_CRITICAL()":"95603d6e","SCORE_PENALTY_HIGH()":"df831000","SCORE_PENALTY_LOW()":"98afc086","SCORE_PENALTY_MEDIUM()":"13e1fc4f","authorizeOracle(address)":"0f13b763","authorizedOracles(address)":"61c992a3","dao()":"4162169f","emitDisputePattern(address,address,uint256,uint256,uint256,bytes32)":"430dba0c","emitEndorsementPattern(address,address,uint256,uint256)":"81680f14","emitTransactionPattern(address,address,uint256,bytes32)":"4a2ebce4","fileAppeal()":"b9643653","getLimitMultiplier(address)":"cbb70d69","getRiskLevel(address)":"1615f2d4","getUserFraudState(address)":"ff62adf9","getVelocity(address)":"45c8817a","isFrozen(address)":"e5839836","lastTransactionTime(address)":"e75b2073","manualUnfreeze(address)":"d3e741cf","resolveAppeal(address,bool)":"c8a55ba0","revokeOracle(address)":"5983e6b0","seer()":"2d55ea39","setSeer(address)":"e071c1c0","submitFraudSignal(address,uint8,uint8,uint256,string)":"97f64819","totalAppealsSucceeded()":"e60b31b1","totalFlagsIssued()":"e6a90f5c","transactionCount24h(address)":"7a6223a8","userStates(address)":"0ecc535f","volumeLast24h(address)":"5fe592b7"},"id":0}