{
  "_format": "hh3-artifact-1",
  "contractName": "EcosystemVault",
  "sourceName": "contracts/EcosystemVault.sol",
  "abi": [
    {
      "inputs": [
        {
          "internalType": "address",
          "name": "_vfide",
          "type": "address"
        },
        {
          "internalType": "address",
          "name": "_seer",
          "type": "address"
        },
        {
          "internalType": "address",
          "name": "_operationsWallet",
          "type": "address"
        }
      ],
      "stateMutability": "nonpayable",
      "type": "constructor"
    },
    {
      "inputs": [],
      "name": "ECO_AlreadyCancelled",
      "type": "error"
    },
    {
      "inputs": [],
      "name": "ECO_AlreadyExecuted",
      "type": "error"
    },
    {
      "inputs": [],
      "name": "ECO_ArrayCapReached",
      "type": "error"
    },
    {
      "inputs": [],
      "name": "ECO_ChangeNotReady",
      "type": "error"
    },
    {
      "inputs": [],
      "name": "ECO_CouncilBelowMinimum",
      "type": "error"
    },
    {
      "inputs": [],
      "name": "ECO_ExceedsMax",
      "type": "error"
    },
    {
      "inputs": [],
      "name": "ECO_ExpenseCapExceeded",
      "type": "error"
    },
    {
      "inputs": [],
      "name": "ECO_HeadhunterBelowMinimum",
      "type": "error"
    },
    {
      "inputs": [],
      "name": "ECO_InsufficientFunds",
      "type": "error"
    },
    {
      "inputs": [],
      "name": "ECO_InvalidConfig",
      "type": "error"
    },
    {
      "inputs": [],
      "name": "ECO_MerchantBelowMinimum",
      "type": "error"
    },
    {
      "inputs": [],
      "name": "ECO_NoPendingChange",
      "type": "error"
    },
    {
      "inputs": [],
      "name": "ECO_NotAuthorized",
      "type": "error"
    },
    {
      "inputs": [],
      "name": "ECO_NotKeeper",
      "type": "error"
    },
    {
      "inputs": [],
      "name": "ECO_RewardsNotAvailable",
      "type": "error"
    },
    {
      "inputs": [],
      "name": "ECO_TimelockNotPassed",
      "type": "error"
    },
    {
      "inputs": [],
      "name": "ECO_TooEarly",
      "type": "error"
    },
    {
      "inputs": [],
      "name": "ECO_Zero",
      "type": "error"
    },
    {
      "anonymous": false,
      "inputs": [
        {
          "indexed": false,
          "internalType": "uint16",
          "name": "councilBps",
          "type": "uint16"
        },
        {
          "indexed": false,
          "internalType": "uint16",
          "name": "merchantBps",
          "type": "uint16"
        },
        {
          "indexed": false,
          "internalType": "uint16",
          "name": "headhunterBps",
          "type": "uint16"
        },
        {
          "indexed": false,
          "internalType": "uint16",
          "name": "operationsBps",
          "type": "uint16"
        }
      ],
      "name": "AllocationChangeCancelled",
      "type": "event"
    },
    {
      "anonymous": false,
      "inputs": [
        {
          "indexed": false,
          "internalType": "uint16",
          "name": "councilBps",
          "type": "uint16"
        },
        {
          "indexed": false,
          "internalType": "uint16",
          "name": "merchantBps",
          "type": "uint16"
        },
        {
          "indexed": false,
          "internalType": "uint16",
          "name": "headhunterBps",
          "type": "uint16"
        },
        {
          "indexed": false,
          "internalType": "uint16",
          "name": "operationsBps",
          "type": "uint16"
        },
        {
          "indexed": false,
          "internalType": "uint256",
          "name": "executeAfter",
          "type": "uint256"
        }
      ],
      "name": "AllocationChangeQueued",
      "type": "event"
    },
    {
      "anonymous": false,
      "inputs": [
        {
          "indexed": false,
          "internalType": "uint16",
          "name": "councilBps",
          "type": "uint16"
        },
        {
          "indexed": false,
          "internalType": "uint16",
          "name": "merchantBps",
          "type": "uint16"
        },
        {
          "indexed": false,
          "internalType": "uint16",
          "name": "headhunterBps",
          "type": "uint16"
        },
        {
          "indexed": false,
          "internalType": "uint16",
          "name": "operationsBps",
          "type": "uint16"
        }
      ],
      "name": "AllocationUpdated",
      "type": "event"
    },
    {
      "anonymous": false,
      "inputs": [
        {
          "indexed": false,
          "internalType": "uint16",
          "name": "merchantReserveBps",
          "type": "uint16"
        },
        {
          "indexed": false,
          "internalType": "uint16",
          "name": "headhunterReserveBps",
          "type": "uint16"
        },
        {
          "indexed": false,
          "internalType": "uint16",
          "name": "maxAutoPayoutBps",
          "type": "uint16"
        }
      ],
      "name": "AutoPayoutSustainabilityConfigured",
      "type": "event"
    },
    {
      "anonymous": false,
      "inputs": [
        {
          "indexed": false,
          "internalType": "address",
          "name": "router",
          "type": "address"
        },
        {
          "indexed": false,
          "internalType": "address",
          "name": "stablecoin",
          "type": "address"
        },
        {
          "indexed": false,
          "internalType": "bool",
          "name": "enabled",
          "type": "bool"
        },
        {
          "indexed": false,
          "internalType": "uint16",
          "name": "maxSlippageBps",
          "type": "uint16"
        }
      ],
      "name": "AutoSwapConfigured",
      "type": "event"
    },
    {
      "anonymous": false,
      "inputs": [
        {
          "indexed": false,
          "internalType": "bool",
          "name": "enabled",
          "type": "bool"
        },
        {
          "indexed": false,
          "internalType": "uint256",
          "name": "merchantTxReward",
          "type": "uint256"
        },
        {
          "indexed": false,
          "internalType": "uint256",
          "name": "merchantReferralReward",
          "type": "uint256"
        },
        {
          "indexed": false,
          "internalType": "uint256",
          "name": "userReferralReward",
          "type": "uint256"
        }
      ],
      "name": "AutoWorkPayoutConfigured",
      "type": "event"
    },
    {
      "anonymous": false,
      "inputs": [
        {
          "indexed": false,
          "internalType": "uint256",
          "name": "totalAmount",
          "type": "uint256"
        },
        {
          "indexed": false,
          "internalType": "uint8",
          "name": "memberCount",
          "type": "uint8"
        },
        {
          "indexed": false,
          "internalType": "uint256",
          "name": "perMember",
          "type": "uint256"
        }
      ],
      "name": "CouncilDistributed",
      "type": "event"
    },
    {
      "anonymous": false,
      "inputs": [
        {
          "indexed": true,
          "internalType": "address",
          "name": "councilManager",
          "type": "address"
        }
      ],
      "name": "CouncilManagerChangeCancelled",
      "type": "event"
    },
    {
      "anonymous": false,
      "inputs": [
        {
          "indexed": true,
          "internalType": "address",
          "name": "councilManager",
          "type": "address"
        },
        {
          "indexed": false,
          "internalType": "uint256",
          "name": "executeAfter",
          "type": "uint256"
        }
      ],
      "name": "CouncilManagerChangeQueued",
      "type": "event"
    },
    {
      "anonymous": false,
      "inputs": [
        {
          "indexed": true,
          "internalType": "address",
          "name": "oldCouncilManager",
          "type": "address"
        },
        {
          "indexed": true,
          "internalType": "address",
          "name": "newCouncilManager",
          "type": "address"
        }
      ],
      "name": "CouncilManagerUpdated",
      "type": "event"
    },
    {
      "anonymous": false,
      "inputs": [],
      "name": "EmergencyControllerCancelled",
      "type": "event"
    },
    {
      "anonymous": false,
      "inputs": [
        {
          "indexed": true,
          "internalType": "address",
          "name": "controller",
          "type": "address"
        },
        {
          "indexed": false,
          "internalType": "uint64",
          "name": "effectiveAt",
          "type": "uint64"
        }
      ],
      "name": "EmergencyControllerProposed",
      "type": "event"
    },
    {
      "anonymous": false,
      "inputs": [
        {
          "indexed": true,
          "internalType": "address",
          "name": "previousController",
          "type": "address"
        },
        {
          "indexed": true,
          "internalType": "address",
          "name": "newController",
          "type": "address"
        }
      ],
      "name": "EmergencyControllerSet",
      "type": "event"
    },
    {
      "anonymous": false,
      "inputs": [
        {
          "indexed": false,
          "internalType": "uint256",
          "name": "startedAt",
          "type": "uint256"
        },
        {
          "indexed": false,
          "internalType": "uint256",
          "name": "baseOperationsPool",
          "type": "uint256"
        },
        {
          "indexed": false,
          "internalType": "uint256",
          "name": "capAmount",
          "type": "uint256"
        }
      ],
      "name": "ExpenseEpochRolled",
      "type": "event"
    },
    {
      "anonymous": false,
      "inputs": [
        {
          "indexed": false,
          "internalType": "uint256",
          "name": "amount",
          "type": "uint256"
        }
      ],
      "name": "FundsBurned",
      "type": "event"
    },
    {
      "anonymous": false,
      "inputs": [
        {
          "indexed": false,
          "internalType": "uint256",
          "name": "year",
          "type": "uint256"
        },
        {
          "indexed": false,
          "internalType": "uint256",
          "name": "quarter",
          "type": "uint256"
        },
        {
          "indexed": false,
          "internalType": "uint256",
          "name": "totalPool",
          "type": "uint256"
        }
      ],
      "name": "HeadhunterQuarterEnded",
      "type": "event"
    },
    {
      "anonymous": false,
      "inputs": [
        {
          "indexed": true,
          "internalType": "address",
          "name": "newKeeper",
          "type": "address"
        }
      ],
      "name": "KeeperAddressSet",
      "type": "event"
    },
    {
      "anonymous": false,
      "inputs": [
        {
          "indexed": true,
          "internalType": "address",
          "name": "manager",
          "type": "address"
        },
        {
          "indexed": false,
          "internalType": "bool",
          "name": "active",
          "type": "bool"
        }
      ],
      "name": "ManagerChangeCancelled",
      "type": "event"
    },
    {
      "anonymous": false,
      "inputs": [
        {
          "indexed": true,
          "internalType": "address",
          "name": "manager",
          "type": "address"
        },
        {
          "indexed": false,
          "internalType": "bool",
          "name": "active",
          "type": "bool"
        },
        {
          "indexed": false,
          "internalType": "uint256",
          "name": "executeAfter",
          "type": "uint256"
        }
      ],
      "name": "ManagerChangeQueued",
      "type": "event"
    },
    {
      "anonymous": false,
      "inputs": [
        {
          "indexed": false,
          "internalType": "address",
          "name": "manager",
          "type": "address"
        },
        {
          "indexed": false,
          "internalType": "bool",
          "name": "active",
          "type": "bool"
        }
      ],
      "name": "ManagerSet",
      "type": "event"
    },
    {
      "anonymous": false,
      "inputs": [
        {
          "indexed": false,
          "internalType": "uint256",
          "name": "period",
          "type": "uint256"
        },
        {
          "indexed": false,
          "internalType": "uint256",
          "name": "poolSnapshot",
          "type": "uint256"
        }
      ],
      "name": "MerchantPeriodEnded",
      "type": "event"
    },
    {
      "anonymous": false,
      "inputs": [
        {
          "indexed": false,
          "internalType": "uint256",
          "name": "minOutput",
          "type": "uint256"
        }
      ],
      "name": "MinOutputPerVfideSet",
      "type": "event"
    },
    {
      "anonymous": false,
      "inputs": [
        {
          "indexed": false,
          "internalType": "uint256",
          "name": "oldCooldown",
          "type": "uint256"
        },
        {
          "indexed": false,
          "internalType": "uint256",
          "name": "newCooldown",
          "type": "uint256"
        }
      ],
      "name": "OperationsCooldownUpdated",
      "type": "event"
    },
    {
      "anonymous": false,
      "inputs": [
        {
          "indexed": true,
          "internalType": "address",
          "name": "wallet",
          "type": "address"
        }
      ],
      "name": "OperationsWalletChangeCancelled",
      "type": "event"
    },
    {
      "anonymous": false,
      "inputs": [
        {
          "indexed": true,
          "internalType": "address",
          "name": "wallet",
          "type": "address"
        },
        {
          "indexed": false,
          "internalType": "uint256",
          "name": "executeAfter",
          "type": "uint256"
        }
      ],
      "name": "OperationsWalletChangeQueued",
      "type": "event"
    },
    {
      "anonymous": false,
      "inputs": [
        {
          "indexed": true,
          "internalType": "address",
          "name": "oldWallet",
          "type": "address"
        },
        {
          "indexed": true,
          "internalType": "address",
          "name": "newWallet",
          "type": "address"
        }
      ],
      "name": "OperationsWalletUpdated",
      "type": "event"
    },
    {
      "anonymous": false,
      "inputs": [
        {
          "indexed": true,
          "internalType": "address",
          "name": "wallet",
          "type": "address"
        },
        {
          "indexed": false,
          "internalType": "uint256",
          "name": "amount",
          "type": "uint256"
        }
      ],
      "name": "OperationsWithdrawal",
      "type": "event"
    },
    {
      "anonymous": false,
      "inputs": [
        {
          "indexed": true,
          "internalType": "address",
          "name": "previousOwner",
          "type": "address"
        },
        {
          "indexed": true,
          "internalType": "address",
          "name": "newOwner",
          "type": "address"
        }
      ],
      "name": "OwnershipTransferStarted",
      "type": "event"
    },
    {
      "anonymous": false,
      "inputs": [
        {
          "indexed": true,
          "internalType": "address",
          "name": "previousOwner",
          "type": "address"
        },
        {
          "indexed": true,
          "internalType": "address",
          "name": "newOwner",
          "type": "address"
        }
      ],
      "name": "OwnershipTransferred",
      "type": "event"
    },
    {
      "anonymous": false,
      "inputs": [
        {
          "indexed": true,
          "internalType": "address",
          "name": "recipient",
          "type": "address"
        },
        {
          "indexed": false,
          "internalType": "uint256",
          "name": "amount",
          "type": "uint256"
        },
        {
          "indexed": false,
          "internalType": "string",
          "name": "reason",
          "type": "string"
        }
      ],
      "name": "PaymentMade",
      "type": "event"
    },
    {
      "anonymous": false,
      "inputs": [
        {
          "indexed": true,
          "internalType": "address",
          "name": "referred",
          "type": "address"
        },
        {
          "indexed": true,
          "internalType": "address",
          "name": "referrer",
          "type": "address"
        },
        {
          "indexed": false,
          "internalType": "bool",
          "name": "isMerchant",
          "type": "bool"
        }
      ],
      "name": "PendingReferralRegistered",
      "type": "event"
    },
    {
      "anonymous": false,
      "inputs": [
        {
          "indexed": true,
          "internalType": "address",
          "name": "referrer",
          "type": "address"
        },
        {
          "indexed": true,
          "internalType": "address",
          "name": "referred",
          "type": "address"
        },
        {
          "indexed": false,
          "internalType": "bool",
          "name": "isMerchant",
          "type": "bool"
        },
        {
          "indexed": false,
          "internalType": "uint16",
          "name": "points",
          "type": "uint16"
        }
      ],
      "name": "ReferralRecorded",
      "type": "event"
    },
    {
      "anonymous": false,
      "inputs": [
        {
          "indexed": false,
          "internalType": "uint16",
          "name": "level1Points",
          "type": "uint16"
        },
        {
          "indexed": false,
          "internalType": "uint16",
          "name": "level2Points",
          "type": "uint16"
        },
        {
          "indexed": false,
          "internalType": "uint16",
          "name": "level3Points",
          "type": "uint16"
        },
        {
          "indexed": false,
          "internalType": "uint16",
          "name": "level4Points",
          "type": "uint16"
        },
        {
          "indexed": false,
          "internalType": "uint256",
          "name": "level1Reward",
          "type": "uint256"
        },
        {
          "indexed": false,
          "internalType": "uint256",
          "name": "level2Reward",
          "type": "uint256"
        },
        {
          "indexed": false,
          "internalType": "uint256",
          "name": "level3Reward",
          "type": "uint256"
        },
        {
          "indexed": false,
          "internalType": "uint256",
          "name": "level4Reward",
          "type": "uint256"
        }
      ],
      "name": "ReferralWorkLevelsConfigured",
      "type": "event"
    },
    {
      "anonymous": false,
      "inputs": [
        {
          "indexed": true,
          "internalType": "address",
          "name": "oldToken",
          "type": "address"
        },
        {
          "indexed": true,
          "internalType": "address",
          "name": "newToken",
          "type": "address"
        }
      ],
      "name": "RewardTokenUpdated",
      "type": "event"
    },
    {
      "anonymous": false,
      "inputs": [
        {
          "indexed": false,
          "internalType": "uint8",
          "name": "tasksBitmask",
          "type": "uint8"
        }
      ],
      "name": "ScheduledTasksRan",
      "type": "event"
    },
    {
      "anonymous": false,
      "inputs": [
        {
          "indexed": true,
          "internalType": "address",
          "name": "oldSeer",
          "type": "address"
        },
        {
          "indexed": true,
          "internalType": "address",
          "name": "newSeer",
          "type": "address"
        }
      ],
      "name": "SeerUpdated",
      "type": "event"
    },
    {
      "anonymous": false,
      "inputs": [
        {
          "indexed": true,
          "internalType": "address",
          "name": "token",
          "type": "address"
        },
        {
          "indexed": true,
          "internalType": "address",
          "name": "from",
          "type": "address"
        },
        {
          "indexed": false,
          "internalType": "uint256",
          "name": "amount",
          "type": "uint256"
        }
      ],
      "name": "StablecoinDeposited",
      "type": "event"
    },
    {
      "anonymous": false,
      "inputs": [
        {
          "indexed": false,
          "internalType": "bool",
          "name": "enabled",
          "type": "bool"
        }
      ],
      "name": "StablecoinOnlyModeSet",
      "type": "event"
    },
    {
      "anonymous": false,
      "inputs": [
        {
          "indexed": true,
          "internalType": "address",
          "name": "token",
          "type": "address"
        },
        {
          "indexed": false,
          "internalType": "uint256",
          "name": "amount",
          "type": "uint256"
        },
        {
          "indexed": true,
          "internalType": "address",
          "name": "recipient",
          "type": "address"
        }
      ],
      "name": "StablecoinReserveWithdrawn",
      "type": "event"
    },
    {
      "anonymous": false,
      "inputs": [
        {
          "indexed": true,
          "internalType": "uint256",
          "name": "id",
          "type": "uint256"
        }
      ],
      "name": "WithdrawCancelled",
      "type": "event"
    },
    {
      "anonymous": false,
      "inputs": [
        {
          "indexed": true,
          "internalType": "uint256",
          "name": "id",
          "type": "uint256"
        },
        {
          "indexed": false,
          "internalType": "address",
          "name": "to",
          "type": "address"
        },
        {
          "indexed": false,
          "internalType": "uint256",
          "name": "amount",
          "type": "uint256"
        }
      ],
      "name": "WithdrawExecuted",
      "type": "event"
    },
    {
      "anonymous": false,
      "inputs": [
        {
          "indexed": true,
          "internalType": "uint256",
          "name": "id",
          "type": "uint256"
        },
        {
          "indexed": false,
          "internalType": "address",
          "name": "to",
          "type": "address"
        },
        {
          "indexed": false,
          "internalType": "uint256",
          "name": "amount",
          "type": "uint256"
        }
      ],
      "name": "WithdrawRequested",
      "type": "event"
    },
    {
      "anonymous": false,
      "inputs": [
        {
          "indexed": true,
          "internalType": "address",
          "name": "worker",
          "type": "address"
        },
        {
          "indexed": false,
          "internalType": "uint256",
          "name": "amount",
          "type": "uint256"
        },
        {
          "indexed": false,
          "internalType": "string",
          "name": "program",
          "type": "string"
        },
        {
          "indexed": false,
          "internalType": "string",
          "name": "reason",
          "type": "string"
        }
      ],
      "name": "WorkRewardPaid",
      "type": "event"
    },
    {
      "inputs": [],
      "name": "EMERGENCY_CONTROLLER_DELAY",
      "outputs": [
        {
          "internalType": "uint64",
          "name": "",
          "type": "uint64"
        }
      ],
      "stateMutability": "view",
      "type": "function"
    },
    {
      "inputs": [],
      "name": "EXPENSE_EPOCH_CAP_BPS",
      "outputs": [
        {
          "internalType": "uint16",
          "name": "",
          "type": "uint16"
        }
      ],
      "stateMutability": "view",
      "type": "function"
    },
    {
      "inputs": [],
      "name": "EXPENSE_EPOCH_DURATION",
      "outputs": [
        {
          "internalType": "uint256",
          "name": "",
          "type": "uint256"
        }
      ],
      "stateMutability": "view",
      "type": "function"
    },
    {
      "inputs": [],
      "name": "HEADHUNTER_MIN_SCORE",
      "outputs": [
        {
          "internalType": "uint16",
          "name": "",
          "type": "uint16"
        }
      ],
      "stateMutability": "view",
      "type": "function"
    },
    {
      "inputs": [],
      "name": "HEADHUNTER_RANKS",
      "outputs": [
        {
          "internalType": "uint8",
          "name": "",
          "type": "uint8"
        }
      ],
      "stateMutability": "view",
      "type": "function"
    },
    {
      "inputs": [],
      "name": "MAX_BPS",
      "outputs": [
        {
          "internalType": "uint16",
          "name": "",
          "type": "uint16"
        }
      ],
      "stateMutability": "view",
      "type": "function"
    },
    {
      "inputs": [],
      "name": "MAX_COUNCIL_DISTRIBUTION_BATCH",
      "outputs": [
        {
          "internalType": "uint256",
          "name": "",
          "type": "uint256"
        }
      ],
      "stateMutability": "view",
      "type": "function"
    },
    {
      "inputs": [],
      "name": "MAX_COUNCIL_MEMBERS",
      "outputs": [
        {
          "internalType": "uint8",
          "name": "",
          "type": "uint8"
        }
      ],
      "stateMutability": "view",
      "type": "function"
    },
    {
      "inputs": [],
      "name": "MAX_MERCHANTS_PER_PERIOD",
      "outputs": [
        {
          "internalType": "uint256",
          "name": "",
          "type": "uint256"
        }
      ],
      "stateMutability": "view",
      "type": "function"
    },
    {
      "inputs": [],
      "name": "MAX_RANK_ITERATIONS",
      "outputs": [
        {
          "internalType": "uint256",
          "name": "",
          "type": "uint256"
        }
      ],
      "stateMutability": "view",
      "type": "function"
    },
    {
      "inputs": [],
      "name": "MAX_REFERRERS_PER_YEAR",
      "outputs": [
        {
          "internalType": "uint256",
          "name": "",
          "type": "uint256"
        }
      ],
      "stateMutability": "view",
      "type": "function"
    },
    {
      "inputs": [],
      "name": "MERCHANT_RANKS",
      "outputs": [
        {
          "internalType": "uint8",
          "name": "",
          "type": "uint8"
        }
      ],
      "stateMutability": "view",
      "type": "function"
    },
    {
      "inputs": [],
      "name": "MIN_ALLOCATION_BPS",
      "outputs": [
        {
          "internalType": "uint16",
          "name": "",
          "type": "uint16"
        }
      ],
      "stateMutability": "view",
      "type": "function"
    },
    {
      "inputs": [],
      "name": "MIN_MERCHANT_TX",
      "outputs": [
        {
          "internalType": "uint8",
          "name": "",
          "type": "uint8"
        }
      ],
      "stateMutability": "view",
      "type": "function"
    },
    {
      "inputs": [],
      "name": "MIN_USER_VAULT_USD",
      "outputs": [
        {
          "internalType": "uint256",
          "name": "",
          "type": "uint256"
        }
      ],
      "stateMutability": "view",
      "type": "function"
    },
    {
      "inputs": [],
      "name": "MONTH",
      "outputs": [
        {
          "internalType": "uint256",
          "name": "",
          "type": "uint256"
        }
      ],
      "stateMutability": "view",
      "type": "function"
    },
    {
      "inputs": [],
      "name": "POINTS_MERCHANT_REFERRAL",
      "outputs": [
        {
          "internalType": "uint16",
          "name": "",
          "type": "uint16"
        }
      ],
      "stateMutability": "view",
      "type": "function"
    },
    {
      "inputs": [],
      "name": "POINTS_USER_REFERRAL",
      "outputs": [
        {
          "internalType": "uint16",
          "name": "",
          "type": "uint16"
        }
      ],
      "stateMutability": "view",
      "type": "function"
    },
    {
      "inputs": [],
      "name": "QUARTER",
      "outputs": [
        {
          "internalType": "uint256",
          "name": "",
          "type": "uint256"
        }
      ],
      "stateMutability": "view",
      "type": "function"
    },
    {
      "inputs": [],
      "name": "SENSITIVE_CHANGE_DELAY",
      "outputs": [
        {
          "internalType": "uint256",
          "name": "",
          "type": "uint256"
        }
      ],
      "stateMutability": "view",
      "type": "function"
    },
    {
      "inputs": [],
      "name": "TIER1_MULTIPLIER",
      "outputs": [
        {
          "internalType": "uint16",
          "name": "",
          "type": "uint16"
        }
      ],
      "stateMutability": "view",
      "type": "function"
    },
    {
      "inputs": [],
      "name": "TIER1_THRESHOLD",
      "outputs": [
        {
          "internalType": "uint16",
          "name": "",
          "type": "uint16"
        }
      ],
      "stateMutability": "view",
      "type": "function"
    },
    {
      "inputs": [],
      "name": "TIER2_MULTIPLIER",
      "outputs": [
        {
          "internalType": "uint16",
          "name": "",
          "type": "uint16"
        }
      ],
      "stateMutability": "view",
      "type": "function"
    },
    {
      "inputs": [],
      "name": "TIER2_THRESHOLD",
      "outputs": [
        {
          "internalType": "uint16",
          "name": "",
          "type": "uint16"
        }
      ],
      "stateMutability": "view",
      "type": "function"
    },
    {
      "inputs": [],
      "name": "TIER3_MULTIPLIER",
      "outputs": [
        {
          "internalType": "uint16",
          "name": "",
          "type": "uint16"
        }
      ],
      "stateMutability": "view",
      "type": "function"
    },
    {
      "inputs": [],
      "name": "TIER3_THRESHOLD",
      "outputs": [
        {
          "internalType": "uint16",
          "name": "",
          "type": "uint16"
        }
      ],
      "stateMutability": "view",
      "type": "function"
    },
    {
      "inputs": [],
      "name": "TIER4_MULTIPLIER",
      "outputs": [
        {
          "internalType": "uint16",
          "name": "",
          "type": "uint16"
        }
      ],
      "stateMutability": "view",
      "type": "function"
    },
    {
      "inputs": [],
      "name": "TIER4_THRESHOLD",
      "outputs": [
        {
          "internalType": "uint16",
          "name": "",
          "type": "uint16"
        }
      ],
      "stateMutability": "view",
      "type": "function"
    },
    {
      "inputs": [],
      "name": "WITHDRAW_TIMELOCK",
      "outputs": [
        {
          "internalType": "uint256",
          "name": "",
          "type": "uint256"
        }
      ],
      "stateMutability": "view",
      "type": "function"
    },
    {
      "inputs": [],
      "name": "acceptOwnership",
      "outputs": [],
      "stateMutability": "nonpayable",
      "type": "function"
    },
    {
      "inputs": [],
      "name": "allocateIncoming",
      "outputs": [],
      "stateMutability": "nonpayable",
      "type": "function"
    },
    {
      "inputs": [],
      "name": "applyEmergencyController",
      "outputs": [],
      "stateMutability": "nonpayable",
      "type": "function"
    },
    {
      "inputs": [],
      "name": "applyOperationsWalletChange",
      "outputs": [],
      "stateMutability": "nonpayable",
      "type": "function"
    },
    {
      "inputs": [],
      "name": "autoMerchantReferralReward",
      "outputs": [
        {
          "internalType": "uint256",
          "name": "",
          "type": "uint256"
        }
      ],
      "stateMutability": "view",
      "type": "function"
    },
    {
      "inputs": [],
      "name": "autoMerchantTxReward",
      "outputs": [
        {
          "internalType": "uint256",
          "name": "",
          "type": "uint256"
        }
      ],
      "stateMutability": "view",
      "type": "function"
    },
    {
      "inputs": [],
      "name": "autoSwapEnabled",
      "outputs": [
        {
          "internalType": "bool",
          "name": "",
          "type": "bool"
        }
      ],
      "stateMutability": "view",
      "type": "function"
    },
    {
      "inputs": [],
      "name": "autoUserReferralReward",
      "outputs": [
        {
          "internalType": "uint256",
          "name": "",
          "type": "uint256"
        }
      ],
      "stateMutability": "view",
      "type": "function"
    },
    {
      "inputs": [],
      "name": "autoWorkPayoutEnabled",
      "outputs": [
        {
          "internalType": "bool",
          "name": "",
          "type": "bool"
        }
      ],
      "stateMutability": "view",
      "type": "function"
    },
    {
      "inputs": [
        {
          "internalType": "uint256",
          "name": "amount",
          "type": "uint256"
        }
      ],
      "name": "burnFunds",
      "outputs": [],
      "stateMutability": "nonpayable",
      "type": "function"
    },
    {
      "inputs": [],
      "name": "cancelAllocationChange",
      "outputs": [],
      "stateMutability": "nonpayable",
      "type": "function"
    },
    {
      "inputs": [],
      "name": "cancelCouncilManagerChange",
      "outputs": [],
      "stateMutability": "nonpayable",
      "type": "function"
    },
    {
      "inputs": [],
      "name": "cancelEmergencyController",
      "outputs": [],
      "stateMutability": "nonpayable",
      "type": "function"
    },
    {
      "inputs": [],
      "name": "cancelManagerChange",
      "outputs": [],
      "stateMutability": "nonpayable",
      "type": "function"
    },
    {
      "inputs": [],
      "name": "cancelOperationsWalletChange",
      "outputs": [],
      "stateMutability": "nonpayable",
      "type": "function"
    },
    {
      "inputs": [],
      "name": "cancelOwnershipTransfer",
      "outputs": [],
      "stateMutability": "nonpayable",
      "type": "function"
    },
    {
      "inputs": [
        {
          "internalType": "uint256",
          "name": "id",
          "type": "uint256"
        }
      ],
      "name": "cancelWithdraw",
      "outputs": [],
      "stateMutability": "nonpayable",
      "type": "function"
    },
    {
      "inputs": [
        {
          "internalType": "address",
          "name": "",
          "type": "address"
        }
      ],
      "name": "checkHeadhunterReward",
      "outputs": [],
      "stateMutability": "pure",
      "type": "function"
    },
    {
      "inputs": [
        {
          "internalType": "bytes",
          "name": "",
          "type": "bytes"
        }
      ],
      "name": "checkUpkeep",
      "outputs": [
        {
          "internalType": "bool",
          "name": "upkeepNeeded",
          "type": "bool"
        },
        {
          "internalType": "bytes",
          "name": "performData",
          "type": "bytes"
        }
      ],
      "stateMutability": "view",
      "type": "function"
    },
    {
      "inputs": [
        {
          "internalType": "uint256",
          "name": "",
          "type": "uint256"
        },
        {
          "internalType": "string",
          "name": "",
          "type": "string"
        }
      ],
      "name": "claimReferralLevelRewards",
      "outputs": [
        {
          "internalType": "uint8",
          "name": "",
          "type": "uint8"
        },
        {
          "internalType": "uint256",
          "name": "",
          "type": "uint256"
        }
      ],
      "stateMutability": "pure",
      "type": "function"
    },
    {
      "inputs": [
        {
          "internalType": "uint16",
          "name": "merchantReserve",
          "type": "uint16"
        },
        {
          "internalType": "uint16",
          "name": "headhunterReserve",
          "type": "uint16"
        },
        {
          "internalType": "uint16",
          "name": "maxAutoPayout",
          "type": "uint16"
        }
      ],
      "name": "configureAutoPayoutSustainability",
      "outputs": [],
      "stateMutability": "nonpayable",
      "type": "function"
    },
    {
      "inputs": [
        {
          "internalType": "address",
          "name": "_router",
          "type": "address"
        },
        {
          "internalType": "address",
          "name": "_stablecoin",
          "type": "address"
        },
        {
          "internalType": "bool",
          "name": "_enabled",
          "type": "bool"
        },
        {
          "internalType": "uint16",
          "name": "_maxSlippageBps",
          "type": "uint16"
        }
      ],
      "name": "configureAutoSwap",
      "outputs": [],
      "stateMutability": "nonpayable",
      "type": "function"
    },
    {
      "inputs": [
        {
          "internalType": "bool",
          "name": "enabled",
          "type": "bool"
        },
        {
          "internalType": "uint256",
          "name": "merchantTxReward",
          "type": "uint256"
        },
        {
          "internalType": "uint256",
          "name": "merchantReferralReward",
          "type": "uint256"
        },
        {
          "internalType": "uint256",
          "name": "userReferralReward",
          "type": "uint256"
        }
      ],
      "name": "configureAutoWorkPayout",
      "outputs": [],
      "stateMutability": "nonpayable",
      "type": "function"
    },
    {
      "inputs": [
        {
          "internalType": "uint16",
          "name": "level1Points",
          "type": "uint16"
        },
        {
          "internalType": "uint16",
          "name": "level2Points",
          "type": "uint16"
        },
        {
          "internalType": "uint16",
          "name": "level3Points",
          "type": "uint16"
        },
        {
          "internalType": "uint16",
          "name": "level4Points",
          "type": "uint16"
        },
        {
          "internalType": "uint256",
          "name": "level1Reward",
          "type": "uint256"
        },
        {
          "internalType": "uint256",
          "name": "level2Reward",
          "type": "uint256"
        },
        {
          "internalType": "uint256",
          "name": "level3Reward",
          "type": "uint256"
        },
        {
          "internalType": "uint256",
          "name": "level4Reward",
          "type": "uint256"
        }
      ],
      "name": "configureReferralWorkLevels",
      "outputs": [],
      "stateMutability": "nonpayable",
      "type": "function"
    },
    {
      "inputs": [],
      "name": "councilBps",
      "outputs": [
        {
          "internalType": "uint16",
          "name": "",
          "type": "uint16"
        }
      ],
      "stateMutability": "view",
      "type": "function"
    },
    {
      "inputs": [],
      "name": "councilManager",
      "outputs": [
        {
          "internalType": "contract ICouncilManager",
          "name": "",
          "type": "address"
        }
      ],
      "stateMutability": "view",
      "type": "function"
    },
    {
      "inputs": [],
      "name": "councilPool",
      "outputs": [
        {
          "internalType": "uint256",
          "name": "",
          "type": "uint256"
        }
      ],
      "stateMutability": "view",
      "type": "function"
    },
    {
      "inputs": [
        {
          "internalType": "address",
          "name": "merchant",
          "type": "address"
        }
      ],
      "name": "creditMerchantReferral",
      "outputs": [],
      "stateMutability": "nonpayable",
      "type": "function"
    },
    {
      "inputs": [
        {
          "internalType": "address",
          "name": "user",
          "type": "address"
        }
      ],
      "name": "creditUserReferral",
      "outputs": [],
      "stateMutability": "nonpayable",
      "type": "function"
    },
    {
      "inputs": [],
      "name": "currentMerchantPeriod",
      "outputs": [
        {
          "internalType": "uint256",
          "name": "",
          "type": "uint256"
        }
      ],
      "stateMutability": "view",
      "type": "function"
    },
    {
      "inputs": [],
      "name": "currentQuarter",
      "outputs": [
        {
          "internalType": "uint256",
          "name": "",
          "type": "uint256"
        }
      ],
      "stateMutability": "view",
      "type": "function"
    },
    {
      "inputs": [],
      "name": "currentYear",
      "outputs": [
        {
          "internalType": "uint256",
          "name": "",
          "type": "uint256"
        }
      ],
      "stateMutability": "view",
      "type": "function"
    },
    {
      "inputs": [
        {
          "internalType": "address",
          "name": "stablecoin",
          "type": "address"
        },
        {
          "internalType": "uint256",
          "name": "amount",
          "type": "uint256"
        }
      ],
      "name": "depositStablecoinReserve",
      "outputs": [],
      "stateMutability": "nonpayable",
      "type": "function"
    },
    {
      "inputs": [],
      "name": "distributeCouncilRewards",
      "outputs": [],
      "stateMutability": "nonpayable",
      "type": "function"
    },
    {
      "inputs": [],
      "name": "emergencyController",
      "outputs": [
        {
          "internalType": "address",
          "name": "",
          "type": "address"
        }
      ],
      "stateMutability": "view",
      "type": "function"
    },
    {
      "inputs": [
        {
          "internalType": "address",
          "name": "newOwner",
          "type": "address"
        }
      ],
      "name": "emergencyTransferOwnership",
      "outputs": [],
      "stateMutability": "nonpayable",
      "type": "function"
    },
    {
      "inputs": [],
      "name": "endHeadhunterQuarter",
      "outputs": [],
      "stateMutability": "nonpayable",
      "type": "function"
    },
    {
      "inputs": [],
      "name": "endMerchantPeriod",
      "outputs": [],
      "stateMutability": "nonpayable",
      "type": "function"
    },
    {
      "inputs": [],
      "name": "executeAllocationChange",
      "outputs": [],
      "stateMutability": "nonpayable",
      "type": "function"
    },
    {
      "inputs": [],
      "name": "executeCouncilManagerChange",
      "outputs": [],
      "stateMutability": "nonpayable",
      "type": "function"
    },
    {
      "inputs": [],
      "name": "executeManagerChange",
      "outputs": [],
      "stateMutability": "nonpayable",
      "type": "function"
    },
    {
      "inputs": [
        {
          "internalType": "uint256",
          "name": "id",
          "type": "uint256"
        }
      ],
      "name": "executeWithdraw",
      "outputs": [],
      "stateMutability": "nonpayable",
      "type": "function"
    },
    {
      "inputs": [],
      "name": "getPoolBalances",
      "outputs": [
        {
          "internalType": "uint256",
          "name": "council",
          "type": "uint256"
        },
        {
          "internalType": "uint256",
          "name": "merchant",
          "type": "uint256"
        },
        {
          "internalType": "uint256",
          "name": "headhunter",
          "type": "uint256"
        },
        {
          "internalType": "uint256",
          "name": "total",
          "type": "uint256"
        }
      ],
      "stateMutability": "view",
      "type": "function"
    },
    {
      "inputs": [],
      "name": "headhunterBps",
      "outputs": [
        {
          "internalType": "uint16",
          "name": "",
          "type": "uint16"
        }
      ],
      "stateMutability": "view",
      "type": "function"
    },
    {
      "inputs": [],
      "name": "headhunterPool",
      "outputs": [
        {
          "internalType": "uint256",
          "name": "",
          "type": "uint256"
        }
      ],
      "stateMutability": "view",
      "type": "function"
    },
    {
      "inputs": [],
      "name": "headhunterPoolReserveBps",
      "outputs": [
        {
          "internalType": "uint16",
          "name": "",
          "type": "uint16"
        }
      ],
      "stateMutability": "view",
      "type": "function"
    },
    {
      "inputs": [
        {
          "internalType": "address",
          "name": "",
          "type": "address"
        }
      ],
      "name": "isManager",
      "outputs": [
        {
          "internalType": "bool",
          "name": "",
          "type": "bool"
        }
      ],
      "stateMutability": "view",
      "type": "function"
    },
    {
      "inputs": [],
      "name": "keeperAddress",
      "outputs": [
        {
          "internalType": "address",
          "name": "",
          "type": "address"
        }
      ],
      "stateMutability": "view",
      "type": "function"
    },
    {
      "inputs": [],
      "name": "lastCouncilDistribution",
      "outputs": [
        {
          "internalType": "uint256",
          "name": "",
          "type": "uint256"
        }
      ],
      "stateMutability": "view",
      "type": "function"
    },
    {
      "inputs": [],
      "name": "lastMerchantDistribution",
      "outputs": [
        {
          "internalType": "uint256",
          "name": "",
          "type": "uint256"
        }
      ],
      "stateMutability": "view",
      "type": "function"
    },
    {
      "inputs": [],
      "name": "lastOperationsWithdrawal",
      "outputs": [
        {
          "internalType": "uint256",
          "name": "",
          "type": "uint256"
        }
      ],
      "stateMutability": "view",
      "type": "function"
    },
    {
      "inputs": [],
      "name": "lastQuarterPayout",
      "outputs": [
        {
          "internalType": "uint256",
          "name": "",
          "type": "uint256"
        }
      ],
      "stateMutability": "view",
      "type": "function"
    },
    {
      "inputs": [],
      "name": "maxAutoPayoutBps",
      "outputs": [
        {
          "internalType": "uint16",
          "name": "",
          "type": "uint16"
        }
      ],
      "stateMutability": "view",
      "type": "function"
    },
    {
      "inputs": [],
      "name": "maxSlippageBps",
      "outputs": [
        {
          "internalType": "uint16",
          "name": "",
          "type": "uint16"
        }
      ],
      "stateMutability": "view",
      "type": "function"
    },
    {
      "inputs": [],
      "name": "maxWithdrawBps",
      "outputs": [
        {
          "internalType": "uint256",
          "name": "",
          "type": "uint256"
        }
      ],
      "stateMutability": "view",
      "type": "function"
    },
    {
      "inputs": [],
      "name": "merchantBps",
      "outputs": [
        {
          "internalType": "uint16",
          "name": "",
          "type": "uint16"
        }
      ],
      "stateMutability": "view",
      "type": "function"
    },
    {
      "inputs": [
        {
          "internalType": "uint256",
          "name": "",
          "type": "uint256"
        },
        {
          "internalType": "address",
          "name": "",
          "type": "address"
        }
      ],
      "name": "merchantPeriodClaimed",
      "outputs": [
        {
          "internalType": "bool",
          "name": "",
          "type": "bool"
        }
      ],
      "stateMutability": "view",
      "type": "function"
    },
    {
      "inputs": [
        {
          "internalType": "uint256",
          "name": "",
          "type": "uint256"
        }
      ],
      "name": "merchantPeriodEnded",
      "outputs": [
        {
          "internalType": "bool",
          "name": "",
          "type": "bool"
        }
      ],
      "stateMutability": "view",
      "type": "function"
    },
    {
      "inputs": [
        {
          "internalType": "uint256",
          "name": "",
          "type": "uint256"
        }
      ],
      "name": "merchantPeriodPoolSnapshot",
      "outputs": [
        {
          "internalType": "uint256",
          "name": "",
          "type": "uint256"
        }
      ],
      "stateMutability": "view",
      "type": "function"
    },
    {
      "inputs": [],
      "name": "merchantPool",
      "outputs": [
        {
          "internalType": "uint256",
          "name": "",
          "type": "uint256"
        }
      ],
      "stateMutability": "view",
      "type": "function"
    },
    {
      "inputs": [],
      "name": "merchantPoolReserveBps",
      "outputs": [
        {
          "internalType": "uint16",
          "name": "",
          "type": "uint16"
        }
      ],
      "stateMutability": "view",
      "type": "function"
    },
    {
      "inputs": [
        {
          "internalType": "address",
          "name": "token",
          "type": "address"
        },
        {
          "internalType": "address",
          "name": "oldTokenSink",
          "type": "address"
        }
      ],
      "name": "migrateRewardToken",
      "outputs": [],
      "stateMutability": "nonpayable",
      "type": "function"
    },
    {
      "inputs": [],
      "name": "minOutputPerVfide",
      "outputs": [
        {
          "internalType": "uint256",
          "name": "",
          "type": "uint256"
        }
      ],
      "stateMutability": "view",
      "type": "function"
    },
    {
      "inputs": [],
      "name": "operationsBps",
      "outputs": [
        {
          "internalType": "uint16",
          "name": "",
          "type": "uint16"
        }
      ],
      "stateMutability": "view",
      "type": "function"
    },
    {
      "inputs": [],
      "name": "operationsExpenseEpochBase",
      "outputs": [
        {
          "internalType": "uint256",
          "name": "",
          "type": "uint256"
        }
      ],
      "stateMutability": "view",
      "type": "function"
    },
    {
      "inputs": [],
      "name": "operationsExpenseEpochStartedAt",
      "outputs": [
        {
          "internalType": "uint256",
          "name": "",
          "type": "uint256"
        }
      ],
      "stateMutability": "view",
      "type": "function"
    },
    {
      "inputs": [],
      "name": "operationsPool",
      "outputs": [
        {
          "internalType": "uint256",
          "name": "",
          "type": "uint256"
        }
      ],
      "stateMutability": "view",
      "type": "function"
    },
    {
      "inputs": [],
      "name": "operationsSpentInEpoch",
      "outputs": [
        {
          "internalType": "uint256",
          "name": "",
          "type": "uint256"
        }
      ],
      "stateMutability": "view",
      "type": "function"
    },
    {
      "inputs": [],
      "name": "operationsWallet",
      "outputs": [
        {
          "internalType": "address",
          "name": "",
          "type": "address"
        }
      ],
      "stateMutability": "view",
      "type": "function"
    },
    {
      "inputs": [],
      "name": "operationsWithdrawalCooldown",
      "outputs": [
        {
          "internalType": "uint256",
          "name": "",
          "type": "uint256"
        }
      ],
      "stateMutability": "view",
      "type": "function"
    },
    {
      "inputs": [],
      "name": "owner",
      "outputs": [
        {
          "internalType": "address",
          "name": "",
          "type": "address"
        }
      ],
      "stateMutability": "view",
      "type": "function"
    },
    {
      "inputs": [],
      "name": "ownershipTransferDeadline",
      "outputs": [
        {
          "internalType": "uint64",
          "name": "",
          "type": "uint64"
        }
      ],
      "stateMutability": "view",
      "type": "function"
    },
    {
      "inputs": [
        {
          "internalType": "address",
          "name": "recipient",
          "type": "address"
        },
        {
          "internalType": "uint256",
          "name": "amount",
          "type": "uint256"
        },
        {
          "internalType": "string",
          "name": "reason",
          "type": "string"
        }
      ],
      "name": "payExpense",
      "outputs": [],
      "stateMutability": "nonpayable",
      "type": "function"
    },
    {
      "inputs": [
        {
          "internalType": "address",
          "name": "worker",
          "type": "address"
        },
        {
          "internalType": "uint256",
          "name": "amount",
          "type": "uint256"
        },
        {
          "internalType": "string",
          "name": "reason",
          "type": "string"
        }
      ],
      "name": "payMerchantWorkReward",
      "outputs": [],
      "stateMutability": "nonpayable",
      "type": "function"
    },
    {
      "inputs": [
        {
          "internalType": "address",
          "name": "",
          "type": "address"
        },
        {
          "internalType": "uint256",
          "name": "",
          "type": "uint256"
        },
        {
          "internalType": "string",
          "name": "",
          "type": "string"
        }
      ],
      "name": "payReferralLevelReward",
      "outputs": [],
      "stateMutability": "pure",
      "type": "function"
    },
    {
      "inputs": [
        {
          "internalType": "address",
          "name": "worker",
          "type": "address"
        },
        {
          "internalType": "uint256",
          "name": "amount",
          "type": "uint256"
        },
        {
          "internalType": "string",
          "name": "reason",
          "type": "string"
        }
      ],
      "name": "payReferralWorkReward",
      "outputs": [],
      "stateMutability": "nonpayable",
      "type": "function"
    },
    {
      "inputs": [],
      "name": "pendingAllocationChange",
      "outputs": [
        {
          "internalType": "uint16",
          "name": "councilBps",
          "type": "uint16"
        },
        {
          "internalType": "uint16",
          "name": "merchantBps",
          "type": "uint16"
        },
        {
          "internalType": "uint16",
          "name": "headhunterBps",
          "type": "uint16"
        },
        {
          "internalType": "uint256",
          "name": "executeAfter",
          "type": "uint256"
        }
      ],
      "stateMutability": "view",
      "type": "function"
    },
    {
      "inputs": [],
      "name": "pendingCouncilManagerChange",
      "outputs": [
        {
          "internalType": "address",
          "name": "councilManager",
          "type": "address"
        },
        {
          "internalType": "uint256",
          "name": "executeAfter",
          "type": "uint256"
        }
      ],
      "stateMutability": "view",
      "type": "function"
    },
    {
      "inputs": [],
      "name": "pendingEmergencyController",
      "outputs": [
        {
          "internalType": "address",
          "name": "",
          "type": "address"
        }
      ],
      "stateMutability": "view",
      "type": "function"
    },
    {
      "inputs": [],
      "name": "pendingEmergencyControllerAt",
      "outputs": [
        {
          "internalType": "uint64",
          "name": "",
          "type": "uint64"
        }
      ],
      "stateMutability": "view",
      "type": "function"
    },
    {
      "inputs": [],
      "name": "pendingManagerChange",
      "outputs": [
        {
          "internalType": "address",
          "name": "manager",
          "type": "address"
        },
        {
          "internalType": "bool",
          "name": "active",
          "type": "bool"
        },
        {
          "internalType": "uint256",
          "name": "executeAfter",
          "type": "uint256"
        }
      ],
      "stateMutability": "view",
      "type": "function"
    },
    {
      "inputs": [
        {
          "internalType": "address",
          "name": "",
          "type": "address"
        }
      ],
      "name": "pendingMerchantReferrer",
      "outputs": [
        {
          "internalType": "address",
          "name": "",
          "type": "address"
        }
      ],
      "stateMutability": "view",
      "type": "function"
    },
    {
      "inputs": [],
      "name": "pendingOperationsWalletChange",
      "outputs": [
        {
          "internalType": "address",
          "name": "wallet",
          "type": "address"
        },
        {
          "internalType": "uint256",
          "name": "executeAfter",
          "type": "uint256"
        }
      ],
      "stateMutability": "view",
      "type": "function"
    },
    {
      "inputs": [],
      "name": "pendingOwner",
      "outputs": [
        {
          "internalType": "address",
          "name": "",
          "type": "address"
        }
      ],
      "stateMutability": "view",
      "type": "function"
    },
    {
      "inputs": [
        {
          "internalType": "address",
          "name": "",
          "type": "address"
        }
      ],
      "name": "pendingUserReferrer",
      "outputs": [
        {
          "internalType": "address",
          "name": "",
          "type": "address"
        }
      ],
      "stateMutability": "view",
      "type": "function"
    },
    {
      "inputs": [],
      "name": "pendingWithdrawTotal",
      "outputs": [
        {
          "internalType": "uint256",
          "name": "",
          "type": "uint256"
        }
      ],
      "stateMutability": "view",
      "type": "function"
    },
    {
      "inputs": [
        {
          "internalType": "bytes",
          "name": "performData",
          "type": "bytes"
        }
      ],
      "name": "performUpkeep",
      "outputs": [],
      "stateMutability": "nonpayable",
      "type": "function"
    },
    {
      "inputs": [
        {
          "internalType": "uint256",
          "name": "",
          "type": "uint256"
        },
        {
          "internalType": "address",
          "name": "",
          "type": "address"
        }
      ],
      "name": "periodMerchantTier",
      "outputs": [
        {
          "internalType": "uint16",
          "name": "",
          "type": "uint16"
        }
      ],
      "stateMutability": "view",
      "type": "function"
    },
    {
      "inputs": [
        {
          "internalType": "uint256",
          "name": "",
          "type": "uint256"
        },
        {
          "internalType": "address",
          "name": "",
          "type": "address"
        }
      ],
      "name": "periodMerchantTxCount",
      "outputs": [
        {
          "internalType": "uint256",
          "name": "",
          "type": "uint256"
        }
      ],
      "stateMutability": "view",
      "type": "function"
    },
    {
      "inputs": [
        {
          "internalType": "uint256",
          "name": "",
          "type": "uint256"
        },
        {
          "internalType": "uint256",
          "name": "",
          "type": "uint256"
        }
      ],
      "name": "periodMerchants",
      "outputs": [
        {
          "internalType": "address",
          "name": "",
          "type": "address"
        }
      ],
      "stateMutability": "view",
      "type": "function"
    },
    {
      "inputs": [],
      "name": "preferredStablecoin",
      "outputs": [
        {
          "internalType": "address",
          "name": "",
          "type": "address"
        }
      ],
      "stateMutability": "view",
      "type": "function"
    },
    {
      "inputs": [
        {
          "internalType": "address",
          "name": "",
          "type": "address"
        },
        {
          "internalType": "uint256",
          "name": "",
          "type": "uint256"
        },
        {
          "internalType": "string",
          "name": "",
          "type": "string"
        }
      ],
      "name": "processReferralLevelRewards",
      "outputs": [
        {
          "internalType": "uint8",
          "name": "",
          "type": "uint8"
        },
        {
          "internalType": "uint256",
          "name": "",
          "type": "uint256"
        }
      ],
      "stateMutability": "pure",
      "type": "function"
    },
    {
      "inputs": [
        {
          "internalType": "uint256",
          "name": "",
          "type": "uint256"
        },
        {
          "internalType": "uint256",
          "name": "",
          "type": "uint256"
        },
        {
          "internalType": "address",
          "name": "",
          "type": "address"
        }
      ],
      "name": "quarterClaimed",
      "outputs": [
        {
          "internalType": "bool",
          "name": "",
          "type": "bool"
        }
      ],
      "stateMutability": "view",
      "type": "function"
    },
    {
      "inputs": [
        {
          "internalType": "uint256",
          "name": "",
          "type": "uint256"
        },
        {
          "internalType": "uint256",
          "name": "",
          "type": "uint256"
        }
      ],
      "name": "quarterEnded",
      "outputs": [
        {
          "internalType": "bool",
          "name": "",
          "type": "bool"
        }
      ],
      "stateMutability": "view",
      "type": "function"
    },
    {
      "inputs": [
        {
          "internalType": "uint256",
          "name": "",
          "type": "uint256"
        },
        {
          "internalType": "uint256",
          "name": "",
          "type": "uint256"
        }
      ],
      "name": "quarterPoolSnapshot",
      "outputs": [
        {
          "internalType": "uint256",
          "name": "",
          "type": "uint256"
        }
      ],
      "stateMutability": "view",
      "type": "function"
    },
    {
      "inputs": [
        {
          "internalType": "address",
          "name": "merchant",
          "type": "address"
        }
      ],
      "name": "recordMerchantTransaction",
      "outputs": [],
      "stateMutability": "nonpayable",
      "type": "function"
    },
    {
      "inputs": [
        {
          "internalType": "address",
          "name": "",
          "type": "address"
        }
      ],
      "name": "referralCredited",
      "outputs": [
        {
          "internalType": "bool",
          "name": "",
          "type": "bool"
        }
      ],
      "stateMutability": "view",
      "type": "function"
    },
    {
      "inputs": [],
      "name": "referralLevel1Points",
      "outputs": [
        {
          "internalType": "uint16",
          "name": "",
          "type": "uint16"
        }
      ],
      "stateMutability": "view",
      "type": "function"
    },
    {
      "inputs": [],
      "name": "referralLevel1Reward",
      "outputs": [
        {
          "internalType": "uint256",
          "name": "",
          "type": "uint256"
        }
      ],
      "stateMutability": "view",
      "type": "function"
    },
    {
      "inputs": [],
      "name": "referralLevel2Points",
      "outputs": [
        {
          "internalType": "uint16",
          "name": "",
          "type": "uint16"
        }
      ],
      "stateMutability": "view",
      "type": "function"
    },
    {
      "inputs": [],
      "name": "referralLevel2Reward",
      "outputs": [
        {
          "internalType": "uint256",
          "name": "",
          "type": "uint256"
        }
      ],
      "stateMutability": "view",
      "type": "function"
    },
    {
      "inputs": [],
      "name": "referralLevel3Points",
      "outputs": [
        {
          "internalType": "uint16",
          "name": "",
          "type": "uint16"
        }
      ],
      "stateMutability": "view",
      "type": "function"
    },
    {
      "inputs": [],
      "name": "referralLevel3Reward",
      "outputs": [
        {
          "internalType": "uint256",
          "name": "",
          "type": "uint256"
        }
      ],
      "stateMutability": "view",
      "type": "function"
    },
    {
      "inputs": [],
      "name": "referralLevel4Points",
      "outputs": [
        {
          "internalType": "uint16",
          "name": "",
          "type": "uint16"
        }
      ],
      "stateMutability": "view",
      "type": "function"
    },
    {
      "inputs": [],
      "name": "referralLevel4Reward",
      "outputs": [
        {
          "internalType": "uint256",
          "name": "",
          "type": "uint256"
        }
      ],
      "stateMutability": "view",
      "type": "function"
    },
    {
      "inputs": [
        {
          "internalType": "uint256",
          "name": "",
          "type": "uint256"
        },
        {
          "internalType": "address",
          "name": "",
          "type": "address"
        }
      ],
      "name": "referralLevelPaid",
      "outputs": [
        {
          "internalType": "uint8",
          "name": "",
          "type": "uint8"
        }
      ],
      "stateMutability": "view",
      "type": "function"
    },
    {
      "inputs": [
        {
          "internalType": "address",
          "name": "merchant",
          "type": "address"
        },
        {
          "internalType": "address",
          "name": "referrer",
          "type": "address"
        }
      ],
      "name": "registerMerchantReferral",
      "outputs": [],
      "stateMutability": "nonpayable",
      "type": "function"
    },
    {
      "inputs": [
        {
          "internalType": "address",
          "name": "referrer",
          "type": "address"
        },
        {
          "internalType": "address",
          "name": "user",
          "type": "address"
        }
      ],
      "name": "registerUserReferral",
      "outputs": [],
      "stateMutability": "nonpayable",
      "type": "function"
    },
    {
      "inputs": [
        {
          "internalType": "address",
          "name": "to",
          "type": "address"
        },
        {
          "internalType": "uint256",
          "name": "amount",
          "type": "uint256"
        }
      ],
      "name": "requestWithdraw",
      "outputs": [
        {
          "internalType": "uint256",
          "name": "id",
          "type": "uint256"
        }
      ],
      "stateMutability": "nonpayable",
      "type": "function"
    },
    {
      "inputs": [],
      "name": "rewardToken",
      "outputs": [
        {
          "internalType": "contract IERC20",
          "name": "",
          "type": "address"
        }
      ],
      "stateMutability": "view",
      "type": "function"
    },
    {
      "inputs": [],
      "name": "runScheduledTasks",
      "outputs": [
        {
          "internalType": "uint8",
          "name": "ran",
          "type": "uint8"
        }
      ],
      "stateMutability": "nonpayable",
      "type": "function"
    },
    {
      "inputs": [],
      "name": "seer",
      "outputs": [
        {
          "internalType": "contract ISeer",
          "name": "",
          "type": "address"
        }
      ],
      "stateMutability": "view",
      "type": "function"
    },
    {
      "inputs": [
        {
          "internalType": "uint16",
          "name": "_councilBps",
          "type": "uint16"
        },
        {
          "internalType": "uint16",
          "name": "_merchantBps",
          "type": "uint16"
        },
        {
          "internalType": "uint16",
          "name": "_headhunterBps",
          "type": "uint16"
        }
      ],
      "name": "setAllocations",
      "outputs": [],
      "stateMutability": "nonpayable",
      "type": "function"
    },
    {
      "inputs": [
        {
          "internalType": "address",
          "name": "_councilManager",
          "type": "address"
        }
      ],
      "name": "setCouncilManager",
      "outputs": [],
      "stateMutability": "nonpayable",
      "type": "function"
    },
    {
      "inputs": [
        {
          "internalType": "address",
          "name": "controller",
          "type": "address"
        }
      ],
      "name": "setEmergencyController",
      "outputs": [],
      "stateMutability": "nonpayable",
      "type": "function"
    },
    {
      "inputs": [
        {
          "internalType": "address",
          "name": "_keeper",
          "type": "address"
        }
      ],
      "name": "setKeeperAddress",
      "outputs": [],
      "stateMutability": "nonpayable",
      "type": "function"
    },
    {
      "inputs": [
        {
          "internalType": "address",
          "name": "manager",
          "type": "address"
        },
        {
          "internalType": "bool",
          "name": "active",
          "type": "bool"
        }
      ],
      "name": "setManager",
      "outputs": [],
      "stateMutability": "nonpayable",
      "type": "function"
    },
    {
      "inputs": [
        {
          "internalType": "uint256",
          "name": "_bps",
          "type": "uint256"
        }
      ],
      "name": "setMaxWithdrawBps",
      "outputs": [],
      "stateMutability": "nonpayable",
      "type": "function"
    },
    {
      "inputs": [
        {
          "internalType": "uint256",
          "name": "_minOutput",
          "type": "uint256"
        }
      ],
      "name": "setMinOutputPerVfide",
      "outputs": [],
      "stateMutability": "nonpayable",
      "type": "function"
    },
    {
      "inputs": [
        {
          "internalType": "uint16",
          "name": "_operationsBps",
          "type": "uint16"
        }
      ],
      "name": "setOperationsAllocation",
      "outputs": [],
      "stateMutability": "nonpayable",
      "type": "function"
    },
    {
      "inputs": [
        {
          "internalType": "uint256",
          "name": "_cooldown",
          "type": "uint256"
        }
      ],
      "name": "setOperationsCooldown",
      "outputs": [],
      "stateMutability": "nonpayable",
      "type": "function"
    },
    {
      "inputs": [
        {
          "internalType": "address",
          "name": "_wallet",
          "type": "address"
        }
      ],
      "name": "setOperationsWallet",
      "outputs": [],
      "stateMutability": "nonpayable",
      "type": "function"
    },
    {
      "inputs": [
        {
          "internalType": "address",
          "name": "token",
          "type": "address"
        }
      ],
      "name": "setRewardToken",
      "outputs": [],
      "stateMutability": "nonpayable",
      "type": "function"
    },
    {
      "inputs": [
        {
          "internalType": "address",
          "name": "_seer",
          "type": "address"
        }
      ],
      "name": "setSeer",
      "outputs": [],
      "stateMutability": "nonpayable",
      "type": "function"
    },
    {
      "inputs": [
        {
          "internalType": "bool",
          "name": "_enabled",
          "type": "bool"
        }
      ],
      "name": "setStablecoinOnlyMode",
      "outputs": [],
      "stateMutability": "nonpayable",
      "type": "function"
    },
    {
      "inputs": [],
      "name": "stablecoinOnlyMode",
      "outputs": [
        {
          "internalType": "bool",
          "name": "",
          "type": "bool"
        }
      ],
      "stateMutability": "view",
      "type": "function"
    },
    {
      "inputs": [
        {
          "internalType": "address",
          "name": "",
          "type": "address"
        }
      ],
      "name": "stablecoinReserves",
      "outputs": [
        {
          "internalType": "uint256",
          "name": "",
          "type": "uint256"
        }
      ],
      "stateMutability": "view",
      "type": "function"
    },
    {
      "inputs": [],
      "name": "swapRouter",
      "outputs": [
        {
          "internalType": "address",
          "name": "",
          "type": "address"
        }
      ],
      "stateMutability": "view",
      "type": "function"
    },
    {
      "inputs": [],
      "name": "totalBurned",
      "outputs": [
        {
          "internalType": "uint256",
          "name": "",
          "type": "uint256"
        }
      ],
      "stateMutability": "view",
      "type": "function"
    },
    {
      "inputs": [],
      "name": "totalCouncilPaid",
      "outputs": [
        {
          "internalType": "uint256",
          "name": "",
          "type": "uint256"
        }
      ],
      "stateMutability": "view",
      "type": "function"
    },
    {
      "inputs": [],
      "name": "totalExpensesPaid",
      "outputs": [
        {
          "internalType": "uint256",
          "name": "",
          "type": "uint256"
        }
      ],
      "stateMutability": "view",
      "type": "function"
    },
    {
      "inputs": [],
      "name": "totalHeadhunterPaid",
      "outputs": [
        {
          "internalType": "uint256",
          "name": "",
          "type": "uint256"
        }
      ],
      "stateMutability": "view",
      "type": "function"
    },
    {
      "inputs": [],
      "name": "totalMerchantBonusPaid",
      "outputs": [
        {
          "internalType": "uint256",
          "name": "",
          "type": "uint256"
        }
      ],
      "stateMutability": "view",
      "type": "function"
    },
    {
      "inputs": [
        {
          "internalType": "address",
          "name": "",
          "type": "address"
        }
      ],
      "name": "totalMerchantBonusesPaid",
      "outputs": [
        {
          "internalType": "uint256",
          "name": "",
          "type": "uint256"
        }
      ],
      "stateMutability": "view",
      "type": "function"
    },
    {
      "inputs": [],
      "name": "totalReceived",
      "outputs": [
        {
          "internalType": "uint256",
          "name": "",
          "type": "uint256"
        }
      ],
      "stateMutability": "view",
      "type": "function"
    },
    {
      "inputs": [
        {
          "internalType": "address",
          "name": "newOwner",
          "type": "address"
        }
      ],
      "name": "transferOwnership",
      "outputs": [],
      "stateMutability": "nonpayable",
      "type": "function"
    },
    {
      "inputs": [],
      "name": "vfide",
      "outputs": [
        {
          "internalType": "contract IERC20",
          "name": "",
          "type": "address"
        }
      ],
      "stateMutability": "view",
      "type": "function"
    },
    {
      "inputs": [],
      "name": "withdrawOperations",
      "outputs": [],
      "stateMutability": "nonpayable",
      "type": "function"
    },
    {
      "inputs": [],
      "name": "withdrawRequestCount",
      "outputs": [
        {
          "internalType": "uint256",
          "name": "",
          "type": "uint256"
        }
      ],
      "stateMutability": "view",
      "type": "function"
    },
    {
      "inputs": [
        {
          "internalType": "uint256",
          "name": "",
          "type": "uint256"
        }
      ],
      "name": "withdrawRequests",
      "outputs": [
        {
          "internalType": "address",
          "name": "to",
          "type": "address"
        },
        {
          "internalType": "uint256",
          "name": "amount",
          "type": "uint256"
        },
        {
          "internalType": "uint256",
          "name": "requestedAt",
          "type": "uint256"
        },
        {
          "internalType": "bool",
          "name": "executed",
          "type": "bool"
        },
        {
          "internalType": "bool",
          "name": "cancelled",
          "type": "bool"
        }
      ],
      "stateMutability": "view",
      "type": "function"
    },
    {
      "inputs": [
        {
          "internalType": "address",
          "name": "stablecoin",
          "type": "address"
        },
        {
          "internalType": "uint256",
          "name": "amount",
          "type": "uint256"
        },
        {
          "internalType": "address",
          "name": "recipient",
          "type": "address"
        }
      ],
      "name": "withdrawStablecoinReserve",
      "outputs": [],
      "stateMutability": "nonpayable",
      "type": "function"
    },
    {
      "inputs": [
        {
          "internalType": "uint256",
          "name": "",
          "type": "uint256"
        },
        {
          "internalType": "address",
          "name": "",
          "type": "address"
        }
      ],
      "name": "yearPoints",
      "outputs": [
        {
          "internalType": "uint16",
          "name": "",
          "type": "uint16"
        }
      ],
      "stateMutability": "view",
      "type": "function"
    },
    {
      "inputs": [
        {
          "internalType": "uint256",
          "name": "",
          "type": "uint256"
        },
        {
          "internalType": "uint256",
          "name": "",
          "type": "uint256"
        }
      ],
      "name": "yearReferrers",
      "outputs": [
        {
          "internalType": "address",
          "name": "",
          "type": "address"
        }
      ],
      "stateMutability": "view",
      "type": "function"
    },
    {
      "inputs": [],
      "name": "yearStartTime",
      "outputs": [
        {
          "internalType": "uint256",
          "name": "",
          "type": "uint256"
        }
      ],
      "stateMutability": "view",
      "type": "function"
    }
  ],
  "bytecode": "0x60803461019657601f615f5f38819003918201601f19168301916001600160401b0383118484101761019a5780849260609460405283398101031261019657610047816101ae565b61005f6040610058602085016101ae565b93016101ae565b5f80546001600160a01b03191633908117825560405194917f8be0079c531659141344cd1fd0a4f28419497f9722a3daafe3b4186f6b6457e08180a3600160045560125462278d0060145560328054601960aa1b61ffff60a81b19909116179055603980546001600160701b0319166c6400320019000a03e807d007d01790556103e86049556001600160401b0319166709c409c409c409c417926001600160a01b0316801561018757600580546001600160a01b03199081168317909155600680548216909217909155600780549091166001600160a01b0392909216919091179055600160401b600160e01b031990911660409190911b600160401b600160e01b03161760125542602755600160258190556026819055601d55615d9c90816101c38239f35b63ef85f47d60e01b5f5260045ffd5b5f80fd5b634e487b7160e01b5f52604160045260245ffd5b51906001600160a01b03821682036101965756fe6080806040526004361015610012575f80fd5b5f3560e01c9081630146431114613c1e5750806302c8a51714613bd7578063034c32a21461331a578063038c0f7714613bba5780630567375b14613b76578063071a5c3c14613b37578063086d2c8714613b1b578063093b1ef514613aec578063096fa74414613acf5780630971203d14613ab25780630b5a006b14613a955780630dab6a1d14613a715780630e4d116914613a565780630ec8f90514613977578063101909c01461395a578063117b63a11461393d57806312e35df2146138f457806313140977146138d7578063149dc319146138b657806315112f111461388a578063177f8d60146138715780631918fb891461384d578063194b20c2146137b55780631995333b1461364b5780631b44a0481461362e5780631b499842146136115780631cba56821461355a5780631e9f791b146135395780631f0e54cf146134e05780631f4d956b146134b15780631ff19db71461348557806320bf4fc414610f435780632104ebf11461338e57806323452b9c146133515780632b0f0cfd146133365780632b4691651461331a5780632c2d441f146132f65780632d55ea39146132ce5780632e55ffe0146132b157806331d46b191461325a578063363836f814613212578063397a1b281461302b57806339d55f7f14612feb578063412847d414612fb7578063412afc8014612eea57806341d4a5dd14612ec257806342dfac7214612ea657806342edee2214612de4578063439db2e214612d315780634585e33b14612c75578063488b51ce14612b5557806348d44c0814612b3857806349ed4aea14612b095780634dc1ecc614612aec5780634deac2fc14612a975780634f3f0ade14612a745780634f488a8214611e355780635150468514612a5757806352062f66146129fe57806352375bb11461295f578063530ece1014612942578063545ace99146129255780635636963b146128eb5780635c59c2fe146128945780635f0ea50614612853578063626a5fe61461282a578063633a109f146126de578063641021dc146126b6578063642ce3551461269a578063652bb3661461267057806365c2a59a1461264d5780636963f603146126145780636ca7dc89146124d95780636e04ff0d146123a25780636fe2d5b014610de95780637029f87a1461237e5780637189bdd11461236157806372c8ae3b1461233957806374109cf614612315578063743f5f97146122f857806375447d1f146122db57806376699dfa146122be57806376a95d6e1461218d57806379ba5097146120945780637a936beb1461206c5780637b7e526714611f9c578063800f829314611f545780638036b09614611e3a5780638040210a14611e35578063807f097114611e1857806383585ba314611db6578063840190e114611d7e578063850a1c5014611d25578063858dff9b14611b645780638aee812714611ac55780638cbc4cfd14611a775780638d7088cd14611a5a5780638da5cb5b14611a33578063936014ca14611a1657806398adda0d146119d6578063992a7dfb1461197157806399656ff1146119545780639c97dbf2146118865780639de8f838146118485780639f01f7ba146117a35780639f6000381461177b5780639f9eeeda146116d7578063a3c2c462146116ba578063a5dd468614611654578063a5e90eee1461161e578063a65edb0614611601578063a70009e3146115ba578063a9cf52f81461159d578063aa8e00d914611580578063ac54db3914611563578063ad2f3cba14611546578063aff78448146114ff578063b015f51d146114ac578063b05e513e14611487578063b611ff7014611440578063b67a85bd14611418578063bab2c8e3146113db578063bb0a09fc14611263578063bdca187214610de9578063be80b05b1461123e578063c082f3ed14610c43578063c0995f6e14611223578063c0acc41a146111ac578063c2838fe91461118f578063c31c9c0714611167578063c3b868841461110e578063c4aa7395146110ea578063c616e25a146110cf578063c6a2974a146110b2578063c86c8bb21461108e578063c934170414611035578063c95e918d14611006578063cc90bfd314610fd3578063cc9d95b814610f48578063cd3f24f514610f43578063d195d7e514610f0b578063d460e62c14610eee578063d5999a5c14610ed1578063d89135cd14610eb4578063d954a53c14610e99578063dcf9115614610e7e578063dd292b5e14610e61578063e071c1c014610dee578063e1e09bc214610de9578063e30c397814610dc1578063e41f1f6114610d21578063e4c02d0c14610d06578063e715b10014610ca4578063e743c03414610c80578063e82db48914610c64578063ecde33c314610c43578063ee5ecc8914610b8f578063eea1dbf414610b23578063eef573be14610ab4578063ef36f7dc14610a99578063ef93be2d14610a7d578063f040050514610a60578063f2fde38b1461099b578063f30afd8e1461097f578063f3ae241514610942578063f7c618c11461091a578063f837becd146108fd578063f8a2bf7614610895578063fb1c74a714610818578063fb6e4bb4146107fd578063fd6e38d5146107d5578063fd72e22a146107ab5763fd967f471461078b575f80fd5b346107a7575f3660031901126107a75760206040516127108152f35b5f80fd5b346107a7575f3660031901126107a7576012546040805191901c6001600160a01b03168152602090f35b346107a7575f3660031901126107a7576008546040516001600160a01b039091168152602090f35b346107a7575f3660031901126107a7576020604051600c8152f35b346107a7575f3660031901126107a757610830614c5f565b6108386148d9565b604081015115610886575f600a555f600b557f4b359cdf89d5cca4ff2dc520e447820361168626a9b6f34b699c8c3d7b4b1c1660208060018060a01b038451169301511515604051908152a2005b6366f7214b60e01b5f5260045ffd5b346107a7575f3660031901126107a7576108ad614c5f565b6003546108c79060a01c6001600160401b031615156146b6565b600380546001600160e01b03191690557fb205cbeedf25e8cb84969b0360670dbfab45d5996607417b83db531a77fa23165f80a1005b346107a7575f3660031901126107a7576020601854604051908152f35b346107a7575f3660031901126107a7576006546040516001600160a01b039091168152602090f35b346107a75760203660031901126107a7576001600160a01b03610963613c53565b165f526009602052602060ff60405f2054166040519015158152f35b346107a7575f3660031901126107a7576020604051611f408152f35b346107a75760203660031901126107a7576109b4613c53565b6109bc614c5f565b6001600160a01b03166109d081151561445c565b600180546001600160a01b031916821790554262093a808101908110610a4c5760028054600160a01b600160e01b03191660a09290921b600160a01b600160e01b03169190911790555f80546001600160a01b0316907f38d16b8cac22d99fc7c124b9cd0de2d3fa1faef420bfe791d8c362d765e227009080a3005b634e487b7160e01b5f52601160045260245ffd5b346107a7575f3660031901126107a7576020601c54604051908152f35b346107a7575f3660031901126107a75760206040516109c48152f35b346107a7575f3660031901126107a757602060405160058152f35b346107a75760203660031901126107a757610acd613c53565b335f52600960205260ff60405f2054161580610b0f575b610b0057610af990610af4614ca8565b61494d565b6001600455005b635b9938e160e11b5f5260045ffd5b505f546001600160a01b0316331415610ae4565b346107a7575f3660031901126107a757610b3b614c5f565b610b436146ff565b6060810180511561088657514210610b8057610b7e905f600c555f600d5561ffff8151169061ffff6040816020840151169201511691615468565b005b6359fbf6f160e01b5f5260045ffd5b346107a75760203660031901126107a757610ba8613c53565b610bb0614c5f565b6001600160a01b03168015610c34576202a3004201804211610a4c5760207fecb20c3afe01dfd06ea97c213eceb13e178eb582eccf8dc00aad75b20fd3bc6091604051610bfc81613df8565b84815282810182905251601080546001600160a01b0319166001600160a01b03929092169190911790556011819055604051908152a2005b63ef85f47d60e01b5f5260045ffd5b346107a757610c5136613ceb565b50505050633cbcb2d960e21b5f5260045ffd5b346107a7575f3660031901126107a75760206040516117708152f35b346107a7575f3660031901126107a757602061ffff60395460501c16604051908152f35b346107a7575f3660031901126107a757610cbc614c5f565b610cc46144de565b602081015115610886575f600e555f600f5560018060a01b039051167fc5df504e58c080e41c2e94e86cdb7581d7e06436d7010a4ec0f4e6eb2eac66ce5f80a2005b346107a7575f3660031901126107a757602060405160198152f35b346107a7575f3660031901126107a757610d39614c5f565b610d416144b9565b6020810180511561088657514210610b8057601280549151600160401b600160e01b03198316604082811b600160401b600160e01b0316919091179092555f601081905560118190556001600160a01b039182169390921c16907f086aa05ff00214e2d0c7c02b8a46b2614ad955732e6b43aa8afca69ed1ad76f89080a3005b346107a7575f3660031901126107a7576001546040516001600160a01b039091168152602090f35b613dc3565b346107a75760203660031901126107a757610e07613c53565b610e0f614c5f565b6001600160a01b03168015610c3457600780546001600160a01b0319811683179091556001600160a01b03167fa0a9d6ecb76ebc110016cc8177e79af5c57330922a027f736c9c357fecbfaf7e5f80a3005b346107a7575f3660031901126107a7576020601d54604051908152f35b346107a7575f3660031901126107a757602060405160648152f35b346107a7575f3660031901126107a757602060405160038152f35b346107a7575f3660031901126107a7576020604254604051908152f35b346107a7575f3660031901126107a757602060405162278d008152f35b346107a7575f3660031901126107a7576020603754604051908152f35b346107a75760203660031901126107a7576001600160a01b03610f2c613c53565b165f526034602052602060405f2054604051908152f35b612361565b346107a75760803660031901126107a7577fbfdeb4ffa57e90852e92d02f519213dd5c13d6ea9521f7ec1669aca4704685736080610f84613d75565b6024359060443560643591610f97614c5f565b15159260355461ff008560081b169061ff00191617603555806036558160375582603855604051938452602084015260408301526060820152a1005b346107a7575f3660031901126107a757600e54600f54604051918291611002916001600160a01b031683613d84565b0390f35b346107a75760203660031901126107a7576004355f526022602052602060ff60405f2054166040519015158152f35b346107a7575f3660031901126107a75761104d614c5f565b6110556148d9565b6040810180511561088657514210610b80575f600a819055600b558051602090910151610b7e91901515906001600160a01b0316615a75565b346107a7575f3660031901126107a757602061ffff60125460301c16604051908152f35b346107a7575f3660031901126107a7576020604654604051908152f35b346107a7575f3660031901126107a757602060405160048152f35b346107a7575f3660031901126107a757602061ffff60325460a81c16604051908152f35b346107a75760403660031901126107a757611127613c53565b61112f613c3d565b335f52600960205260ff60405f2054161580611153575b610b0057610b7e916147dd565b505f546001600160a01b0316331415611146565b346107a7575f3660031901126107a7576031546040516001600160a01b039091168152602090f35b346107a7575f3660031901126107a7576020602854604051908152f35b346107a75760203660031901126107a7576004356111c8614c5f565b610e108110611214576276a70081116112145760407feecf7e9bd15a86c4e7262dd8a8d84187bfdcdcf7738ca1005de99400a35b2b1c91601454908060145582519182526020820152a1005b633b49546d60e21b5f5260045ffd5b346107a7575f3660031901126107a757602060405160018152f35b346107a7575f3660031901126107a757602060ff60325460a01c166040519015158152f35b346107a75760403660031901126107a75761127c613c53565b60243590335f52600960205260ff60405f20541615806113c7575b610b00576112a3614ca8565b6001600160a01b03168015610c34578115610c34575f8060405160208101906323b872dd60e01b8252336024820152306044820152856064820152606481526112ed608482613e49565b519082855af16112fb614ceb565b81611398575b501561135357805f52603460205260405f2061131e838254613deb565b90556040519182527f3ff94fc63d95f618e2115657467772a3ec6b680b6b87664b095cb8f5638d0cff60203393a36001600455005b60405162461bcd60e51b815260206004820152601e60248201527f5361666545524332303a207472616e7366657246726f6d206661696c656400006044820152606490fd5b80518015925082156113ad575b505083611301565b6113c09250602080918301019101614d1a565b83806113a5565b505f546001600160a01b0316331415611297565b346107a75760203660031901126107a7576001600160a01b036113fc613c53565b165f526030602052602060ff60405f2054166040519015158152f35b346107a7575f3660031901126107a7576015546040516001600160a01b039091168152602090f35b346107a75760403660031901126107a757611459613c3d565b6004355f52603e60205260405f209060018060a01b03165f52602052602060ff60405f205416604051908152f35b346107a7575f3660031901126107a757602060ff60355460081c166040519015158152f35b346107a75760203660031901126107a7576004356114c8614c5f565b8015610c34576020817fe09f5f758559fedc6b0e8cbb80646fa8a2da9416bc155a8cb28e05102a88fd0492603355604051908152a1005b346107a75761150d36613c7f565b905f526020805260405f2080548210156107a75760209161152d91613c95565b905460405160039290921b1c6001600160a01b03168152f35b346107a7575f3660031901126107a757602060405162093a808152f35b346107a7575f3660031901126107a7576020601654604051908152f35b346107a7575f3660031901126107a7576020603c54604051908152f35b346107a7575f3660031901126107a7576020604a54604051908152f35b346107a7575f3660031901126107a757335f52600960205260ff60405f20541615806115ed575b610b0057610b7e615ad0565b505f546001600160a01b03163314156115e1565b346107a7575f3660031901126107a7576020603f54604051908152f35b346107a75760403660031901126107a757611637613c53565b60243580151581036107a757610b7e9161164f614c5f565b614736565b346107a75760203660031901126107a75761166d613c53565b611675614c5f565b601580546001600160a01b0319166001600160a01b039290921691821790557fbcf16be83faf227d7f599572b70f8b4f3084babc961a9d3baa138fcee7bc3b755f80a2005b346107a7575f3660031901126107a7576020601a54604051908152f35b346107a7575f3660031901126107a7576116ef614c5f565b6116f76146ff565b606081015115610886577f228cf8e981e37c41ba8569e71f204ff5ff0cedf4232a4c7364272325f7437423905f600c555f600d5561ffff815116611776604061ffff602085015116930161176961176461ffff8351169261ffff61175b8888614255565b91511690614255565b61426b565b9060405194859485614494565b0390a1005b346107a7575f3660031901126107a7576003546040516001600160a01b039091168152602090f35b346107a75760203660031901126107a7576004356117bf614c5f565b805f52604860205260405f20600381019081549060ff82166118395760ff8260081c1661182b576118029261010060019361ff0019161790550154604a54613dde565b604a557fc25927a40d50ab2ae053ddebccbcbd7f606855406d91ed39ffcc28c07abbd0cc5f80a2005b62ecd9c160e71b5f5260045ffd5b630b0931db60e01b5f5260045ffd5b346107a7575f3660031901126107a757600a54600b54604080516001600160a01b038416815260a09390931c60ff1615156020840152820152606090f35b346107a7575f3660031901126107a75761189e614c5f565b60035460a081901c6001600160401b03166118ba8115156146b6565b421061191857600280546001600160a01b039283166001600160a01b031982168117909255600380546001600160e01b03191690559091167f2e8141caf5e7501960d8d6012fe36a5ab7838a62d75e6792901cee89ab8001965f80a3005b60405162461bcd60e51b81526020600482015260146024820152734f574e3a2074696d656c6f636b2061637469766560601b6044820152606490fd5b346107a7575f3660031901126107a7576020604054604051908152f35b346107a75760203660031901126107a7576004355f52604860205260a060405f2060ff600180841b03825416916001810154906003600282015491015491604051948552602085015260408401528181161515606084015260081c1615156080820152f35b346107a75760203660031901126107a7576001600160a01b036119f7613c53565b165f52602e602052602060018060a01b0360405f205416604051908152f35b346107a7575f3660031901126107a7576020601354604051908152f35b346107a7575f3660031901126107a7575f546040516001600160a01b039091168152602090f35b346107a7575f3660031901126107a7576020603354604051908152f35b346107a7575f3660031901126107a757611a8f614c5f565b611a976144de565b6020810180511561088657514210610b80575f600e819055600f5551610b7e906001600160a01b031661599d565b346107a75760203660031901126107a757611ade613c53565b611ae6614c5f565b6001600160a01b03168015610c345760165415801590611b59575b8015611b4e575b8015611b43575b61121457600680546001600160a01b0319811683179091556001600160a01b03165f516020615d505f395f51905f525f80a3005b506019541515611b0f565b506018541515611b08565b506017541515611b01565b346107a75760403660031901126107a757611b7d613c53565b611b85613c3d565b90611b8e614c5f565b611b96614ca8565b6001600160a01b0316908115610c34576006546001600160a01b03169082821461121457611bc2614e7e565b611be9611be0611bd760165460175490613deb565b60185490613deb565b60195490613deb565b6040516370a0823160e01b8152306004820152602081602481885afa908115611cd4575f91611cf3575b5010611ce4576001600160a01b038116611cdf57505f546001600160a01b03165b6040516370a0823160e01b8152306004820152602081602481865afa908115611cd4575f91611ca2575b5080611c91575b5050600680546001600160a01b031916831790555f516020615d505f395f51905f525f80a36001600455005b611c9b9183614d32565b8280611c65565b90506020813d602011611ccc575b81611cbd60209383613e49565b810103126107a7575184611c5e565b3d9150611cb0565b6040513d5f823e3d90fd5b611c34565b63584d195b60e01b5f5260045ffd5b90506020813d602011611d1d575b81611d0e60209383613e49565b810103126107a7575185611c13565b3d9150611d01565b346107a75760203660031901126107a757611d3e613c53565b335f52600960205260ff60405f2054161580611d6a575b610b0057610af990611d65614ca8565b614503565b505f546001600160a01b0316331415611d55565b346107a75760203660031901126107a7576001600160a01b03611d9f613c53565b165f526024602052602060405f2054604051908152f35b346107a7575f3660031901126107a757611dce614c5f565b611dd66144b9565b602081015115610886575f6010555f60115560018060a01b039051167fd66888f6cd7f31f9296fea0df35f08a68b3d5cd1555447a8e94f2b9a42f1d6b25f80a2005b346107a7575f3660031901126107a7576020604754604051908152f35b610e99565b346107a75760203660031901126107a757611e53613d31565b611e5b614c5f565b61ffff81166101f481106112145761213410611f4557611e7a8161426b565b906012549161ffff8316906101f48210611f365761ffff8460101c166101f48110611f275761ffff8560201c166101f48110611f1857611ec861ffff9291611ec3849387614255565b614255565b9216911603611214576117765f516020615cd05f395f51905f529361ffff60301b8460301b169061ffff60301b191617928360125560405193849361ffff808360201c169260101c169085614494565b6332876ed560e21b5f5260045ffd5b639fa2cd4760e01b5f5260045ffd5b6303e31cbd60e41b5f5260045ffd5b6333d62e4160e11b5f5260045ffd5b346107a75760403660031901126107a757611f6d613c3d565b6004355f52601f60205260405f209060018060a01b03165f52602052602061ffff60405f205416604051908152f35b346107a75760203660031901126107a757611fb5613c53565b600254906001600160a01b0382163303612027576001600160a01b0316611fdd81151561445c565b5f548160018060a01b0382165f516020615d305f395f51905f525f80a36001600160a01b0319908116919091175f55600180549091169055600160a01b600160e01b031916600255005b60405162461bcd60e51b815260206004820152601d60248201527f4f574e3a206e6f7420656d657267656e637920636f6e74726f6c6c65720000006044820152606490fd5b346107a7575f3660031901126107a7576002546040516001600160a01b039091168152602090f35b346107a7575f3660031901126107a7576001546001600160a01b038116330361214f576002549060a082901c6001600160401b03164211612112575f543360018060a01b0382165f516020615d305f395f51905f525f80a36001600160a01b031990811633175f5516600155600160a01b600160e01b031916600255005b60405162461bcd60e51b815260206004820152601560248201527413d5d38e881d1c985b9cd9995c88195e1c1a5c9959605a1b6044820152606490fd5b60405162461bcd60e51b815260206004820152601660248201527527aba71d103737ba103832b73234b7339037bbb732b960511b6044820152606490fd5b346107a7576101003660031901126107a7576121a7613d31565b6121af613d42565b906121b8613d53565b6121c0613d64565b9060843560a43560c4359160e435936121d7614c5f565b61ffff87169586156112145761ffff8916808810156112145761ffff831691828210156112145761ffff81169384841015611214577fefcf72d1c840867b1502ffe261075af70210e7f94b18b3abb607f7f995affe7b9b6101009b6039549361ffff60601b9060601b169361ffff60601b199161ffff60301b9060301b169065ffffffffffff60301b191617169061ffff60401b9060401b16179061ffff60501b9060501b16171760395583603a5584603b5585603c5586603d55604051978852602088015260408701526060860152608085015260a084015260c083015260e0820152a1005b346107a7575f3660031901126107a7576020601754604051908152f35b346107a7575f3660031901126107a7576020603a54604051908152f35b346107a7575f3660031901126107a7576020603d54604051908152f35b346107a7575f3660031901126107a757602061ffff60125460101c16604051908152f35b346107a7575f3660031901126107a7576005546040516001600160a01b039091168152602090f35b346107a7575f3660031901126107a75760206040516202a3008152f35b346107a7575f3660031901126107a757602061ffff60395460301c16604051908152f35b346107a75760203660031901126107a7576004356001600160401b0381116107a7576123d2903690600401613cbe565b50505f601b5462278d008101809111610a4c57421015806124c5575b6124bd575b601c5462278d008101809111610a4c574210156124b5575b6027549060265491826276a70002926276a700840403610a4c5760ff9261243191613deb565b4210156124ad575b60125460401c6001600160a01b0316151580612495575b61248d575b16604051908060208301526020825261246f604083613e49565b61100260405192839215158352604060208401526040830190613d9f565b600817612455565b506124a560135460145490613deb565b421015612450565b600417612439565b60021761240b565b5060016123f3565b506008546001600160a01b031615156123ee565b346107a75760203660031901126107a7576124f2613c53565b6124fa614c5f565b6001600160a01b031680156125d85760035460a081901c6001600160401b031661259357426001600160401b039081166202a30001908111610a4c576001600160e01b0319909116821760a091821b600160a01b600160e01b0316176003819055604051911c6001600160401b031681527f139c5347770995c23b1e768308632d39bb6806801a98cf7d64e68feb4092c06390602090a2005b60405162461bcd60e51b815260206004820152601e60248201527f4f574e3a2070656e64696e6720636f6e74726f6c6c65722065786973747300006044820152606490fd5b60405162461bcd60e51b815260206004820152601460248201527327aba71d103d32b9379031b7b73a3937b63632b960611b6044820152606490fd5b346107a75760203660031901126107a757600435612630614c5f565b80158015612642575b61121457604955005b506113888111612639565b346107a7575f3660031901126107a757602061ffff603954821c16604051908152f35b346107a75760203660031901126107a7576004355f526021602052602060405f2054604051908152f35b346107a7575f3660031901126107a757602060405161251c8152f35b346107a7575f3660031901126107a7576032546040516001600160a01b039091168152602090f35b346107a7576126ec36613ceb565b929192335f52600960205260ff60405f2054161580612816575b610b0057612712614ca8565b6001600160a01b038316938415801561280e575b610c3457612732614e7e565b8060195410611ce4576127436159fb565b6127106127516045546140d6565b0491604654926127618385613deb565b116127ff576127ca827f5ce0614a46459714585c219d6fb0dd3a4b01b81fc18567ebe68bf418067c91d49661279882606097613deb565b6046556127a782601954613dde565b6019556127b682604354613deb565b6043556006546001600160a01b0316614d32565b80604051948593845260406020850152816040850152848401375f828201840152601f01601f19168101030190a26001600455005b63035396b760e21b5f5260045ffd5b508015612726565b505f546001600160a01b0316331415612706565b346107a75760203660031901126107a757610b7e612846613c53565b61284e614c5f565b6143cc565b346107a75760403660031901126107a7576024356001600160401b0381116107a757612883903690600401613cbe565b5050633cbcb2d960e21b5f5260045ffd5b346107a7575f3660031901126107a757335f52600960205260ff60405f20541615806128d7575b610b00576128c7614ca8565b6128cf6154f4565b506001600455005b505f546001600160a01b03163314156128bb565b346107a75760603660031901126107a757610b7e612907613d31565b61290f613d42565b612917613d53565b91612920614c5f565b61427f565b346107a7575f3660031901126107a7576020604454604051908152f35b346107a7575f3660031901126107a7576020603b54604051908152f35b346107a7575f3660031901126107a7576024601654601754601854602060018060a01b0360065416604051958680926370a0823160e01b82523060048301525afa918215611cd4575f926129c9575b60809450604051938452602084015260408301526060820152f35b91506020843d6020116129f6575b816129e460209383613e49565b810103126107a75760809351916129ae565b3d91506129d7565b346107a75760403660031901126107a757612a17613c53565b612a1f613c3d565b335f52600960205260ff60405f2054161580612a43575b610b0057610b7e91614158565b505f546001600160a01b0316331415612a36565b346107a7575f3660031901126107a7576020604554604051908152f35b346107a7575f3660031901126107a757602061ffff601254821c16604051908152f35b346107a75760603660031901126107a757612ab0613c69565b6004355f52602c60205260405f206024355f5260205260405f209060018060a01b03165f52602052602060ff60405f2054166040519015158152f35b346107a7575f3660031901126107a7576020601454604051908152f35b346107a7575f3660031901126107a757601054601154604051918291611002916001600160a01b031683613d84565b346107a7575f3660031901126107a7576020603854604051908152f35b346107a75760803660031901126107a757612b6e613c53565b612b76613c3d565b6044358015158082036107a757612b8b613d64565b93612b94614c5f565b61ffff8516926101f4841161121457612c44575b603180546001600160a01b0319166001600160a01b039283169081179091556032805460a085901b60ff60a01b166001600160b81b0319909116939096169283179590951760a89690961b61ffff60a81b16959095179093556040805194855260208501939093529183019190915260608201527f95b784d98b7cf9e7b3512e888709fdfefe1022d33761dfcb612cb691a9e6abf890608090a1005b9291906001600160a01b03841615610c34576001600160a01b03831615610c34576033541561121457909192612ba8565b346107a75760203660031901126107a7576004356001600160401b0381116107a757612ca5903690600401613cbe565b612cad614ca8565b6015546001600160a01b03168015159081612d26575b5080612d12575b612d0357600f9080612ce0575b6128cf82614dbc565b602091508290810103126107a7573560ff811681036107a7576128cf9082612cd7565b63081537fb60e11b5f5260045ffd5b505f546001600160a01b0316331415612cca565b905033141583612cc3565b346107a75760203660031901126107a757612d4a613d75565b80612d53614c5f565b612d96575b60207f8aaec9c6f83c2d2024db1f9c26af2a14965949f60bd3d09a6216b9d89f35963491151560ff196035541660ff821617603555604051908152a1005b6032546001600160a01b03168015611214575f52603460205260405f20541560018060a01b03603154161581612ddc575b5015612d5857633b49546d60e21b5f5260045ffd5b905082612dc7565b346107a757612df236613ceb565b909291335f52600960205260ff60405f2054161580612e92575b610b0057612e18614ca8565b6001600160a01b038316158015612e8a575b610c3457612e36614e7e565b612e4960175461ffff6039541690615035565b8111611ce457612e84610af994612e6283601754613dde565b601755612e7183604054613deb565b604055612e7c61412d565b933691613eb2565b926150b0565b508015612e2a565b505f546001600160a01b0316331415612e0c565b346107a7575f3660031901126107a75760206040516121348152f35b346107a7575f3660031901126107a757612eda614c5f565b612ee2614ca8565b6128cf6152a3565b346107a75760603660031901126107a757612f03613d31565b612f0b613d42565b61ffff612f16613d53565b92612f1f614c5f565b166123288111611f455761ffff82166123288111611f455761ffff84169081158015612fac575b611214577f26bfc46e4e1ed97eb6c8f39ca1168d1c0391ebdaf7ee98a6d0791c857c2e8f6e9460609463ffff0000856039549361ffff60201b9060201b169365ffffffffffff1916179160101b16171760395560405192835260208301526040820152a1005b506113888211612f46565b346107a757612fc536613c7f565b905f52602d60205260405f20905f52602052602060ff60405f2054166040519015158152f35b346107a75760203660031901126107a7576001600160a01b0361300c613c53565b165f52602f602052602060018060a01b0360405f205416604051908152f35b346107a75760403660031901126107a757613044613c53565b60243590613050614c5f565b6001600160a01b0381168015610c34578215610c34576006546040516370a0823160e01b815230600482015290602090829060249082906001600160a01b03165afa908115611cd4575f916131e0575b506127106130bd6130b3604a5487613deb565b92604954906140ee565b0410611f45576130ce60475461411f565b604781905560405193909260a0850191906001600160401b038311868410176131cc5760409283529285526020808601828152428785019081525f6060890181815260808a018281528983526048865296909120985189546001600160a01b039091166001600160a01b031990911617895591516001890155516002880155516003909601805460ff191696151560ff169690961786559484937f4270d36c10eeecefc724efcd994c9d273660fcf9beb749ca205d6dcc6fe5e2be9390919051151561ff0082549160081b169061ff0019161790556131af82604a54613deb565b604a556131c160405192839283613d84565b0390a2604051908152f35b634e487b7160e01b5f52604160045260245ffd5b90506020813d60201161320a575b816131fb60209383613e49565b810103126107a75751846130a0565b3d91506131ee565b346107a75760403660031901126107a75761322b613c3d565b6004355f52602960205260405f209060018060a01b03165f52602052602061ffff60405f205416604051908152f35b346107a7575f3660031901126107a757335f52600960205260ff60405f205416158061329d575b80613293575b610b0057610b7e614e7e565b5030331415613287565b505f546001600160a01b0316331415613281565b346107a7575f3660031901126107a7576020601b54604051908152f35b346107a7575f3660031901126107a7576007546040516001600160a01b039091168152602090f35b346107a7575f3660031901126107a757602061ffff60395460401c16604051908152f35b346107a7575f3660031901126107a75760206040516101f48152f35b346107a7575f3660031901126107a757602060405160028152f35b346107a7575f3660031901126107a757613369614c5f565b600180546001600160a01b031916905560028054600160a01b600160e01b0319169055005b346107a75760203660031901126107a7576004356133aa614c5f565b6133b2614ca8565b805f52604860205260405f20600381019081549160ff83166118395760ff8360081c1661182b5760028201546202a3008101809111610a4c5742106134765760017f83ddacb169e140af5f24cc0352129d755797bfced4f17086308bdf6ab6f2da2e9360ff1916179055600181019061342e8254604a54613dde565b604a55600654815483546134509290916001600160a01b039081169116614d32565b54905460405191829161346c916001600160a01b031683613d84565b0390a26001600455005b6377177e4d60e01b5f5260045ffd5b346107a7575f3660031901126107a75760035460405160a09190911c6001600160401b03168152602090f35b346107a7576134bf36613c7f565b905f52602b60205260405f20905f52602052602060405f2054604051908152f35b346107a75760203660031901126107a7576134f9613c53565b335f52600960205260ff60405f2054161580613525575b610b0057610af990613520614ca8565b613f02565b505f546001600160a01b0316331415613510565b346107a7575f3660031901126107a757602061ffff60125416604051908152f35b346107a75761356836613ceb565b909291335f52600960205260ff60405f20541615806135fd575b610b005761358e614ca8565b6001600160a01b0383161580156135f5575b610c34576135ac614e7e565b6135c260185461ffff60395460101c1690615035565b8111611ce457612e84610af9946135db83601854613dde565b6018556135ea83604154613deb565b604155612e7c613e87565b5080156135a0565b505f546001600160a01b0316331415613582565b346107a7575f3660031901126107a7576020604954604051908152f35b346107a7575f3660031901126107a7576020604154604051908152f35b346107a75760203660031901126107a757600435335f52600960205260ff60405f20541615806137a1575b610b00578015610c3457613688614e7e565b601954818110611ce4578161369c91613dde565b6019556136ab81604254613deb565b6042555f8060018060a01b036006541660405182602082019163a9059cbb60e01b835261dead6024820152866044820152604481526136eb606482613e49565b51925af16136f7614ceb565b81613772575b50156137305760207fe2a0d56d128408deff6c63b30ce69c78024280bc67a251ee2bb096dc08ff1c1e91604051908152a1005b60405162461bcd60e51b815260206004820152601a60248201527914d85999515490cc8c0e881d1c985b9cd9995c8819985a5b195960321b6044820152606490fd5b8051801592508215613787575b5050826136fd565b61379a9250602080918301019101614d1a565b828061377f565b505f546001600160a01b0316331415613676565b346107a7575f3660031901126107a7576137cd614ca8565b5f6137d6615717565b613845575b6020906137e6614bd4565b61383d575b6137f3615bc0565b613835575b613800615388565b61382d575b5f516020615c705f395f51905f528260ff604051931692838152a16001600455604051908152f35b600817613805565b6004176137f8565b6002176137eb565b5060016137db565b346107a7575f3660031901126107a757602061ffff60395460101c16604051908152f35b346107a75760203660031901126107a757610b7e613c53565b346107a7575f3660031901126107a75760025460405160a09190911c6001600160401b03168152602090f35b346107a7575f3660031901126107a757602061ffff60395416604051908152f35b346107a7575f3660031901126107a7576020602654604051908152f35b346107a75760403660031901126107a75761390d613c3d565b6004355f52602360205260405f209060018060a01b03165f52602052602060ff60405f2054166040519015158152f35b346107a7575f3660031901126107a7576020604354604051908152f35b346107a7575f3660031901126107a7576020603654604051908152f35b346107a75760603660031901126107a757613990613c53565b6024359061399c613c69565b906139a5614c5f565b6139ad614ca8565b6001600160a01b03169081158015613a45575b610c345782158015613a30575b611ce45760207f475000a3d2b4f7dfd1049a8c0420b23fe737ba95a644c5adcd09d3189079c3bb91835f526034825260405f20613a0b868254613dde565b9055613a18858286614d32565b6040519485526001600160a01b031693a36001600455005b50815f52603460205260405f205483116139cd565b506001600160a01b038116156139c0565b346107a7575f3660031901126107a757602060405160148152f35b346107a7575f3660031901126107a757602061ffff60395460601c16604051908152f35b346107a7575f3660031901126107a7576020602554604051908152f35b346107a7575f3660031901126107a7576020602754604051908152f35b346107a7575f3660031901126107a7576020601954604051908152f35b346107a757613afa36613c7f565b905f52602a60205260405f2080548210156107a75760209161152d91613c95565b346107a7575f3660031901126107a75760206040516123288152f35b346107a7575f3660031901126107a7576080600c54600d5461ffff604051928181168452818160101c16602085015260201c1660408301526060820152f35b346107a75760403660031901126107a757613b8f613c3d565b6004355f52601e60205260405f209060018060a01b03165f52602052602060405f2054604051908152f35b346107a7575f3660031901126107a75760206040516276a7008152f35b346107a7575f3660031901126107a757335f52600960205260ff60405f2054161580613c0a575b610b0057610b7e614b39565b505f546001600160a01b0316331415613bfe565b346107a7575f3660031901126107a75760209060ff6035541615158152f35b602435906001600160a01b03821682036107a757565b600435906001600160a01b03821682036107a757565b604435906001600160a01b03821682036107a757565b60409060031901126107a7576004359060243590565b8054821015613caa575f5260205f2001905f90565b634e487b7160e01b5f52603260045260245ffd5b9181601f840112156107a7578235916001600160401b0383116107a757602083818601950101116107a757565b60606003198201126107a7576004356001600160a01b03811681036107a7579160243591604435906001600160401b0382116107a757613d2d91600401613cbe565b9091565b6004359061ffff821682036107a757565b6024359061ffff821682036107a757565b6044359061ffff821682036107a757565b6064359061ffff821682036107a757565b6004359081151582036107a757565b6001600160a01b039091168152602081019190915260400190565b805180835260209291819084018484015e5f828201840152601f01601f1916010190565b346107a7575f3660031901126107a757602060405160c88152f35b91908203918211610a4c57565b91908201809211610a4c57565b604081019081106001600160401b038211176131cc57604052565b608081019081106001600160401b038211176131cc57604052565b606081019081106001600160401b038211176131cc57604052565b601f909101601f19168101906001600160401b038211908210176131cc57604052565b6001600160401b0381116131cc57601f01601f191660200190565b60405190613e96604083613e49565b600d82526c726566657272616c5f776f726b60981b6020830152565b929192613ebe82613e6c565b91613ecc6040519384613e49565b8294818452818301116107a7578281602093845f960137010152565b908160209103126107a7575161ffff811681036107a75790565b6001600160a01b039081165f818152602f602052604090205490911680156140a357815f52603060205260ff60405f2054166140a357600754604051630d47875d60e41b81526004810183905290602090829060249082906001600160a01b03165afa908115611cd4576117709161ffff915f916140a7575b5016106140a357815f52603060205260405f20600160ff1982541617905560255491825f52602960205260405f2060018060a01b0383165f5260205261ffff60405f20541615614062575b61405f92506025545f52602960205260405f2060018060a01b0383165f5260205260405f2061ffff613ffc600182845416614255565b1661ffff19825416179055815f516020615cf05f395f51905f52604080515f815260016020820152a360385460405191614037604084613e49565b60168352751d995c9a599a595917dd5cd95c97dc9959995c9c985b60521b6020840152615126565b50565b825f52602a60205260c860405f205410156140945761405f925f52602a60205261408f8260405f2061490c565b613fc6565b63387f421f60e11b5f5260045ffd5b5050565b6140c9915060203d6020116140cf575b6140c18183613e49565b810190613ee8565b5f613f7b565b503d6140b7565b906109c48202918083046109c41490151715610a4c57565b81810292918115918404141715610a4c57565b811561410b570490565b634e487b7160e01b5f52601260045260245ffd5b5f198114610a4c5760010190565b6040519061413c604083613e49565b600d82526c6d65726368616e745f776f726b60981b6020830152565b6001600160a01b039091169081158015614243575b6140a3576001600160a01b039081165f818152602e60205260409020549091166140a357805f52603060205260ff60405f2054166140a357600754604051630d47875d60e41b81526004810184905290602090829060249082906001600160a01b03165afa908115611cd4576117709161ffff915f91614224575b5016106140a357805f52602e60205260405f208260018060a01b03198254161790555f516020615d705f395f51905f52602060405160018152a3565b61423d915060203d6020116140cf576140c18183613e49565b5f6141e8565b506001600160a01b038116821461416d565b9061ffff8091169116019061ffff8211610a4c57565b61ffff16612710039061ffff8211610a4c57565b919061428f82611ec38386614255565b61271061ffff8216116112145761ffff8416916101f48310611f365761ffff8116946101f48610611f275761ffff8516926101f48410611f185761ffff6142d86101f49261426b565b1610611214575f546001600160a01b03163b6143bc5761176485611ec3846142ff94614255565b6202a300420192834211610a4c577f500d1f4d0fbf9bbc2229edcd21402a05c7dc56c94d710bdd0289ae1b7b161ae09660a09661ffff9486606060405161434581613e13565b8a81528560208201528660408201520152878619600c541617600c5563ffff000080600c549260101b16169063ffff0000191617600c55600c54908560201b908660201b9060201b1616908560201b191617600c5584600d55604051958652602086015260408501521660608301526080820152a1565b915091506143ca9350615468565b565b5f546001600160a01b03163b614453576202a3004201804211610a4c5760207f439b001463c0a2aafeaf58758ee2d3d00d758453cb4745350300cc11cc72871c916040519361441a85613df8565b6001600160a01b039081168086528386018390529451600e80546001600160a01b03191691909216179055600f819055604051908152a2565b6143ca9061599d565b1561446357565b60405162461bcd60e51b81526020600482015260096024820152684f574e3a207a65726f60b81b6044820152606490fd5b61ffff9182168152918116602083015291821660408201529116606082015260800190565b604051906144c682613df8565b6010546001600160a01b031682526011546020830152565b604051906144eb82613df8565b600e546001600160a01b03168252600f546020830152565b6001600160a01b039081165f818152602e602052604090205490911680156140a357815f52603060205260ff60405f2054166140a357600754604051630d47875d60e41b81526004810183905290602090829060249082906001600160a01b03165afa908115611cd4576117709161ffff915f91614697575b5016106140a357815f52603060205260405f20600160ff1982541617905560255491825f52602960205260405f2060018060a01b0383165f5260205261ffff60405f20541615614665575b61405f92506025545f52602960205260405f2060018060a01b0383165f5260205260405f2061ffff6145fd600382845416614255565b1661ffff19825416179055815f516020615cf05f395f51905f52604080516001815260036020820152a360375460405191614639604084613e49565b601a8352791d995c9a599a595917db595c98da185b9d17dc9959995c9c985b60321b6020840152615126565b825f52602a60205260c860405f205410156140945761405f925f52602a6020526146928260405f2061490c565b6145c7565b6146b0915060203d6020116140cf576140c18183613e49565b5f61457c565b156146bd57565b60405162461bcd60e51b815260206004820152601a60248201527927aba71d103737903832b73234b7339031b7b73a3937b63632b960311b6044820152606490fd5b6040519061470c82613e13565b8161ffff600c548181168352818160101c16602084015260201c1660408201526060600d54910152565b5f546001600160a01b03163b6147d3576202a3004201804211610a4c577f2ec01c9a60bea6edda317e12bfdc6ba0b291256f7d2cd47f4bd192b350507d2a91816040928380519361478685613e2e565b6001600160a01b031680855296151560208086018290529190940191909152600a80546001600160a81b031916871760a085901b60ff60a01b16179055600b8290558351928352820152a2565b906143ca91615a75565b6001600160a01b031690811580156148c7575b6140a3576001600160a01b039081165f818152602f60205260409020549091166140a357805f52603060205260ff60405f2054166140a357600754604051630d47875d60e41b81526004810184905290602090829060249082906001600160a01b03165afa908115611cd4576117709161ffff915f916148a8575b5016106140a3575f818152602f6020908152604080832080546001600160a01b03191686179055519182525f516020615d705f395f51905f5291a3565b6148c1915060203d6020116140cf576140c18183613e49565b5f61486b565b506001600160a01b03811682146147f0565b604051906148e682613e2e565b600a546001600160a01b038116835260a01c60ff1615156020830152600b546040830152565b8054600160401b8110156131cc5761492991600182018155613c95565b81546001600160a01b0393841660039290921b91821b9390911b1916919091179055565b600754604051630d47875d60e41b81526001600160a01b038381166004830152909160209183916024918391165afa908115611cd4575f91614b1a575b5061ffff6040519163f5746c6f60e01b835216600482015260208160248173__$528c230e67c3aef7ac360ce784e0a08869$__5af48015611cd45761ffff915f91614afb575b50169081156140a357601d5491825f52601e60205260405f2060018060a01b0383165f5260205260405f205415614aca575b61405f9250601d545f52601e60205260405f2060018060a01b0383165f5260205260405f20614a31815461411f565b9055601d54805f52601f60205260405f2060018060a01b0384165f5260205261ffff60405f2054168211614a9b575b505060365460405191614a74604084613e49565b60158352740e2eac2d8d2ccd2cac8bedacae4c6d0c2dce8bee8f605b1b60208401526151f3565b5f52601f60205260405f2060018060a01b0383165f5260205260405f209061ffff198254161790555f80614a60565b825f52602080526101f460405f205410156140945761405f925f5260208052614af68260405f2061490c565b614a02565b614b14915060203d6020116140cf576140c18183613e49565b5f6149d0565b614b33915060203d6020116140cf576140c18183613e49565b5f61498a565b601c5462278d008101809111610a4c574210614bc557614b57614e7e565b601754601d545f52602160205260405f2055601d545f52602260205260405f20600160ff198254161790555f601755614bbd601d54805f5260216020525f516020615d105f395f51905f526040805f20548151908482526020820152a142601c5561411f565b601d55600190565b634eb526c760e01b5f5260045ffd5b5f601c5462278d008101809111610a4c574210614c5a57614bbd90614bf7614e7e565b601754601d54825260216020526040822055601d548152602260205260408120600160ff19825416179055806017555f516020615d105f395f51905f52604080601d5493848152602160205220548151908482526020820152a142601c5561411f565b505f90565b5f546001600160a01b03163303614c7257565b60405162461bcd60e51b815260206004820152600e60248201526d27aba71d103737ba1037bbb732b960911b6044820152606490fd5b600160045403614cb9576002600455565b60405162461bcd60e51b815260206004820152600a6024820152697265656e7472616e637960b01b6044820152606490fd5b3d15614d15573d90614cfc82613e6c565b91614d0a6040519384613e49565b82523d5f602084013e565b606090565b908160209103126107a7575180151581036107a75790565b5f929183614d5c614d6a8295604051928391602083019663a9059cbb60e01b885260248401613d84565b03601f198101835282613e49565b51926001600160a01b03165af1614d7f614ceb565b81614d8d575b501561373057565b8051801592508215614da2575b50505f614d85565b614db59250602080918301019101614d1a565b5f80614d9a565b905f9160018116151580614e70575b614e67575b60028116151580614e59575b614e4f575b60048116151580614e41575b614e36575b600816151580614e28575b614e1e575b5f516020615c705f395f51905f52602060405160ff85168152a1565b9060081790614e02565b50614e31615388565b614dfd565b600490921791614df2565b50614e4a615bc0565b614ded565b9160021791614de1565b50614e62614bd4565b614ddc565b60019250614dd0565b50614e79615717565b614dcb565b6006546040516370a0823160e01b815230600482015290602090829060249082906001600160a01b03165afa908115611cd4575f91615003575b5060165460175490614eca8282613deb565b90614ed86018548093613deb565b93614ee66019548096613deb565b80821115614ffa57614ef791613dde565b925b83614f06575b5050505050565b614fbe94614fb39360125490612710614f2361ffff8416896140ee565b0493612710614f3961ffff8560101c168a6140ee565b0490612710614f6161ffff82614f558d838a60201c16906140ee565b049660301c168b6140ee565b049586614f7b81614f7688614f768887613deb565b613deb565b8b808210614fcb575b50505090614f9b614fa39392614fab979899613deb565b601655613deb565b601755613deb565b601855613deb565b601955601a54613deb565b601a555f80808080614eff565b614fab989950614f9b92614fe8614fa397969593614fee93613dde565b90613deb565b9897509192938b614f84565b50505f92614ef9565b90506020813d60201161502d575b8161501e60209383613e49565b810103126107a757515f614eb8565b3d9150615011565b9061ffff90604051926322c3b63d60e01b8452600484015216602482015260208160448173__$528c230e67c3aef7ac360ce784e0a08869$__5af4908115611cd4575f91615081575090565b90506020813d6020116150a8575b8161509c60209383613e49565b810103126107a7575190565b3d915061508f565b906151217f2dc8be275a75874749ff24518580767465f01150c261043640edfc6e3024a8ea93926150ec838260018060a01b0360065416614d32565b6151086040519485948552606060208601526060850190613d9f565b83810360408501526001600160a01b0390911695613d9f565b0390a2565b91909160ff60355460081c161580156151e2575b80156151da575b6151d35761514d614e7e565b61516360185461ffff60395460101c1690615035565b926018549361271061517e61ffff60395460201c16876140ee565b049082119081156151c9575b506151c15761519c816151bc95613dde565b6018556151ab81604154613deb565b6041556151b6613e87565b916150b0565b600190565b505050505f90565b905081115f61518a565b5050505f90565b508215615141565b506001600160a01b0381161561513a565b91909160ff60355460081c16158015615292575b801561528a575b6151d35761521a614e7e565b61522d60175461ffff6039541690615035565b926017549361271061524861ffff60395460201c16876140ee565b04908211908115615280575b506151c157615266816151bc95613dde565b60175561527581604054613deb565b6040556151b661412d565b905081115f615254565b50821561520e565b506001600160a01b03811615615207565b60125460401c6001600160a01b031615610c34576152c660135460145490613deb565b4210615383576152d4614e7e565b601954801561537d576152e56159fb565b6127106152f36045546140d6565b04604654906153028383613deb565b116127ff578161531191613deb565b6046555f6019554260135560065460125461533d91839160401c6001600160a01b039081169116614d32565b601254604080519283521c6001600160a01b0316907f58e68cd0cca2fd08275f12ec27861c91b8c9bde83f8831205368bf2f932d2c8290602090a2600190565b50611ce4565b614bc5565b6012545f9060401c6001600160a01b031615614c5a57806153ae60135460145490613deb565b421061545057506153bd614e7e565b601954908115615435576153cf6159fb565b6127106153dd6045546140d6565b04604654906153ec8483613deb565b1161542657826153fb91613deb565b6046556019554260135560065460125461533d91839160401c6001600160a01b039081169116614d32565b63035396b760e21b8252600482fd5b80915061544157505f90565b63584d195b60e01b8152600490fd5b61545957505f90565b634eb526c760e01b8152600490fd5b6154db5f516020615cd05f395f51905f529361176961548b82611ec38787614255565b60125461ffff60301b61549d8361426b565b60301b169061ffff60301b199061ffff88169065ffffffffffff1916171663ffff00008860101b161761ffff60201b8560201b16171760125561426b565b0390a1565b8051821015613caa5760209160051b010190565b6001601b5462278d008101809111610a4c574210614bc5576008546001600160a01b03161561570f57615525614e7e565b6016548181106157025760085460405163121dabaf60e21b815291905f90839060049082906001600160a01b03165afa918215611cd4575f92615657575b50815180159182801561564d575b6156415760c88211615635576155878282614101565b9261410b57808261559d92069081601655613dde565b926155aa84603f54613deb565b603f5542601b55845f5b8381106155e8575050509160609160ff5f516020615cb05f395f51905f52946040519384521660208301526040820152a190565b6001600160a01b036155fa82856154e0565b5116615609575b0185906155b4565b6006546156309086906001600160a01b039081169061562885886154e0565b511690614d32565b615601565b50505050614094575f90565b50505050610c34575f90565b5060ff8211615571565b9091503d805f833e6156698183613e49565b8101906020818303126107a7578051906001600160401b0382116107a7570181601f820112156107a7578051916001600160401b0383116131cc578260051b91604051936156ba6020850186613e49565b84526020808501938201019182116107a757602001915b8183106156e257505050905f615563565b82516001600160a01b03811681036107a7578152602092830192016156d1565b50611ce45742601b555f90565b610c34575f90565b5f601b5462278d008101809111610a4c574210614c5a5760085481906001600160a01b031615615994575061574a614e7e565b60165481600182106159845760085460405163121dabaf60e21b81529190829060049082906001600160a01b03165afa9081156159795783916158ac575b50805190811592848480156158a2575b6158855760c8841161586857506157af8382614101565b936158545780836157c592069081601655613dde565b936157d285603f54613deb565b603f5542601b555b82811061580f5750509160609160ff5f516020615cb05f395f51905f52946040519384521660208301526040820152a1600190565b6001906001600160a01b0361582482856154e0565b5116615831575b016157da565b61584f85838060a01b0360065416848060a01b0361562885886154e0565b61582b565b634e487b7160e01b85526012600452602485fd5b935050505061587657505f90565b63387f421f60e11b8152600490fd5b935050505061589357505f90565b63ef85f47d60e01b8152600490fd5b5060ff8411615798565b90503d8084833e6158bd8183613e49565b810190602081830312615971578051906001600160401b038211615975570181601f82011215615971578051916001600160401b03831161595d578260051b916040519361590e6020850186613e49565b845260208085019382010191821161595957602001915b818310615935575050505f615788565b82516001600160a01b038116810361595557815260209283019201615925565b8680fd5b8580fd5b634e487b7160e01b85526041600452602485fd5b8380fd5b8480fd5b6040513d85823e3d90fd5b9050615441575042601b55600190565b61589357505f90565b600880546001600160a01b039283166001600160a01b0319821681179092559091167f840f53110a6273e375b5677146c6b73fb8f03320ccf7282876cc595fd0b1da755f80a3565b6040919493926060820195825260208201520152565b6044548015908115615a5d575b50615a0f57565b426044557ffe16897b713d3781e7f12cd582a6bf984f436ddc90bb19fb3dd794c88d1e53e8601954806045555f604655612710615a4b826140d6565b04906154db60405192839242846159e5565b905062093a808101809111610a4c574210155f615a08565b6001600160a01b03165f8181526009602052604090819020805460ff191660ff851515161790557fff83ce179bad4fbdb0e98074011487cde624295a52d8189d92d5d8b06c914eda92909190825191825215156020820152a1565b602754602654806276a70002906276a700820403610a4c57615af191613deb565b4210614bc557615aff614e7e565b6018546025545f52602b60205260405f206026545f5260205260405f20556025545f52602d60205260405f206026545f5260205260405f20600160ff198254161790555f6018556025545f516020615c905f395f51905f526026548281935f52602b60205260405f20825f52602052615b8260405f2054604051938493846159e5565b0390a160048103615baf57506001602655615b9e60255461411f565b602555426027555b42602855600190565b615bb89061411f565b602655615ba6565b5f602754602654806276a70002906276a700820403610a4c57615be291613deb565b4210614c5a575f516020615c905f395f51905f52604091615c01614e7e565b6018546025548252602b6020528382206026548352602052838220556025548152602d6020528281206026548252602052828120600160ff1982541617905580601855602554615b82602654948383879552602b6020528181208582526020522054604051938493846159e556fe1baad744c7192d4b3c2ae1d23a3425d04984629618e3521f7b55e3632c2917d87ac1837a9e0bba83b018c5bfa58e6626fb69d2c225045ad59cd68af8feb04198d17b72b5549c72d13491e1f39ee964fc864bb81afae4cec2363f018417d014ef7b76495cce45f2894f646af0a4ec8fbc83e273a02c079cbea98dea568dfd819aed4e7058ceee79d559da4497e0dc1c8bef05f5a58696203c7c5bebc63b99edd909345695c9668e739d09bd56c0d9a9fe8c3ff04b179f4ba344b848cf45c268d48be0079c531659141344cd1fd0a4f28419497f9722a3daafe3b4186f6b6457e0906ff2422a6ffa134f2d7ccaffd446bc0c583a5cb6615749b4b2836942a5fea8a81bd0dacd20bf8e738dd9d07f2bb5be010e8b9061de505b453a5df5f09288bba164736f6c634300081e000a",
  "linkReferences": {
    "project/contracts/EcosystemVaultLib.sol": {
      "EcosystemVaultLib": [
        {
          "length": 20,
          "start": 19309
        },
        {
          "length": 20,
          "start": 21022
        }
      ]
    }
  },
  "deployedLinkReferences": {
    "project/contracts/EcosystemVaultLib.sol": {
      "EcosystemVaultLib": [
        {
          "length": 20,
          "start": 18858
        },
        {
          "length": 20,
          "start": 20571
        }
      ]
    }
  },
  "immutableReferences": {},
  "inputSourceName": "project/contracts/EcosystemVault.sol",
  "buildInfoId": "solc-0_8_30-7b7a7f6d96b03863511aec5dcedb52829a602a08"
}