{
  "_format": "hh3-artifact-1",
  "contractName": "EcosystemVault",
  "sourceName": "contracts/EcosystemVault.sol",
  "abi": [
    {
      "inputs": [
        {
          "internalType": "address",
          "name": "_vfide",
          "type": "address"
        },
        {
          "internalType": "address",
          "name": "_seer",
          "type": "address"
        },
        {
          "internalType": "address",
          "name": "_operationsWallet",
          "type": "address"
        }
      ],
      "stateMutability": "nonpayable",
      "type": "constructor"
    },
    {
      "inputs": [],
      "name": "ECO_AlreadyCancelled",
      "type": "error"
    },
    {
      "inputs": [],
      "name": "ECO_AlreadyExecuted",
      "type": "error"
    },
    {
      "inputs": [],
      "name": "ECO_ArrayCapReached",
      "type": "error"
    },
    {
      "inputs": [],
      "name": "ECO_ChangeNotReady",
      "type": "error"
    },
    {
      "inputs": [],
      "name": "ECO_CouncilBelowMinimum",
      "type": "error"
    },
    {
      "inputs": [],
      "name": "ECO_ExceedsMax",
      "type": "error"
    },
    {
      "inputs": [],
      "name": "ECO_ExpenseCapExceeded",
      "type": "error"
    },
    {
      "inputs": [],
      "name": "ECO_HeadhunterBelowMinimum",
      "type": "error"
    },
    {
      "inputs": [],
      "name": "ECO_InsufficientFunds",
      "type": "error"
    },
    {
      "inputs": [],
      "name": "ECO_InvalidConfig",
      "type": "error"
    },
    {
      "inputs": [],
      "name": "ECO_MerchantBelowMinimum",
      "type": "error"
    },
    {
      "inputs": [],
      "name": "ECO_NoPendingChange",
      "type": "error"
    },
    {
      "inputs": [],
      "name": "ECO_NotAuthorized",
      "type": "error"
    },
    {
      "inputs": [],
      "name": "ECO_RewardsNotAvailable",
      "type": "error"
    },
    {
      "inputs": [],
      "name": "ECO_TimelockNotPassed",
      "type": "error"
    },
    {
      "inputs": [],
      "name": "ECO_TooEarly",
      "type": "error"
    },
    {
      "inputs": [],
      "name": "ECO_Zero",
      "type": "error"
    },
    {
      "anonymous": false,
      "inputs": [
        {
          "indexed": false,
          "internalType": "uint16",
          "name": "councilBps",
          "type": "uint16"
        },
        {
          "indexed": false,
          "internalType": "uint16",
          "name": "merchantBps",
          "type": "uint16"
        },
        {
          "indexed": false,
          "internalType": "uint16",
          "name": "headhunterBps",
          "type": "uint16"
        },
        {
          "indexed": false,
          "internalType": "uint16",
          "name": "operationsBps",
          "type": "uint16"
        }
      ],
      "name": "AllocationChangeCancelled",
      "type": "event"
    },
    {
      "anonymous": false,
      "inputs": [
        {
          "indexed": false,
          "internalType": "uint16",
          "name": "councilBps",
          "type": "uint16"
        },
        {
          "indexed": false,
          "internalType": "uint16",
          "name": "merchantBps",
          "type": "uint16"
        },
        {
          "indexed": false,
          "internalType": "uint16",
          "name": "headhunterBps",
          "type": "uint16"
        },
        {
          "indexed": false,
          "internalType": "uint16",
          "name": "operationsBps",
          "type": "uint16"
        },
        {
          "indexed": false,
          "internalType": "uint256",
          "name": "executeAfter",
          "type": "uint256"
        }
      ],
      "name": "AllocationChangeQueued",
      "type": "event"
    },
    {
      "anonymous": false,
      "inputs": [
        {
          "indexed": false,
          "internalType": "uint16",
          "name": "councilBps",
          "type": "uint16"
        },
        {
          "indexed": false,
          "internalType": "uint16",
          "name": "merchantBps",
          "type": "uint16"
        },
        {
          "indexed": false,
          "internalType": "uint16",
          "name": "headhunterBps",
          "type": "uint16"
        },
        {
          "indexed": false,
          "internalType": "uint16",
          "name": "operationsBps",
          "type": "uint16"
        }
      ],
      "name": "AllocationUpdated",
      "type": "event"
    },
    {
      "anonymous": false,
      "inputs": [
        {
          "indexed": false,
          "internalType": "uint16",
          "name": "merchantReserveBps",
          "type": "uint16"
        },
        {
          "indexed": false,
          "internalType": "uint16",
          "name": "headhunterReserveBps",
          "type": "uint16"
        },
        {
          "indexed": false,
          "internalType": "uint16",
          "name": "maxAutoPayoutBps",
          "type": "uint16"
        }
      ],
      "name": "AutoPayoutSustainabilityConfigured",
      "type": "event"
    },
    {
      "anonymous": false,
      "inputs": [
        {
          "indexed": false,
          "internalType": "address",
          "name": "router",
          "type": "address"
        },
        {
          "indexed": false,
          "internalType": "address",
          "name": "stablecoin",
          "type": "address"
        },
        {
          "indexed": false,
          "internalType": "bool",
          "name": "enabled",
          "type": "bool"
        },
        {
          "indexed": false,
          "internalType": "uint16",
          "name": "maxSlippageBps",
          "type": "uint16"
        }
      ],
      "name": "AutoSwapConfigured",
      "type": "event"
    },
    {
      "anonymous": false,
      "inputs": [
        {
          "indexed": false,
          "internalType": "bool",
          "name": "enabled",
          "type": "bool"
        },
        {
          "indexed": false,
          "internalType": "uint256",
          "name": "merchantTxReward",
          "type": "uint256"
        },
        {
          "indexed": false,
          "internalType": "uint256",
          "name": "merchantReferralReward",
          "type": "uint256"
        },
        {
          "indexed": false,
          "internalType": "uint256",
          "name": "userReferralReward",
          "type": "uint256"
        }
      ],
      "name": "AutoWorkPayoutConfigured",
      "type": "event"
    },
    {
      "anonymous": false,
      "inputs": [
        {
          "indexed": false,
          "internalType": "uint256",
          "name": "totalAmount",
          "type": "uint256"
        },
        {
          "indexed": false,
          "internalType": "uint8",
          "name": "memberCount",
          "type": "uint8"
        },
        {
          "indexed": false,
          "internalType": "uint256",
          "name": "perMember",
          "type": "uint256"
        }
      ],
      "name": "CouncilDistributed",
      "type": "event"
    },
    {
      "anonymous": false,
      "inputs": [
        {
          "indexed": true,
          "internalType": "address",
          "name": "councilManager",
          "type": "address"
        }
      ],
      "name": "CouncilManagerChangeCancelled",
      "type": "event"
    },
    {
      "anonymous": false,
      "inputs": [
        {
          "indexed": true,
          "internalType": "address",
          "name": "councilManager",
          "type": "address"
        },
        {
          "indexed": false,
          "internalType": "uint256",
          "name": "executeAfter",
          "type": "uint256"
        }
      ],
      "name": "CouncilManagerChangeQueued",
      "type": "event"
    },
    {
      "anonymous": false,
      "inputs": [
        {
          "indexed": true,
          "internalType": "address",
          "name": "oldCouncilManager",
          "type": "address"
        },
        {
          "indexed": true,
          "internalType": "address",
          "name": "newCouncilManager",
          "type": "address"
        }
      ],
      "name": "CouncilManagerUpdated",
      "type": "event"
    },
    {
      "anonymous": false,
      "inputs": [],
      "name": "EmergencyControllerCancelled",
      "type": "event"
    },
    {
      "anonymous": false,
      "inputs": [
        {
          "indexed": true,
          "internalType": "address",
          "name": "controller",
          "type": "address"
        },
        {
          "indexed": false,
          "internalType": "uint64",
          "name": "effectiveAt",
          "type": "uint64"
        }
      ],
      "name": "EmergencyControllerProposed",
      "type": "event"
    },
    {
      "anonymous": false,
      "inputs": [
        {
          "indexed": true,
          "internalType": "address",
          "name": "previousController",
          "type": "address"
        },
        {
          "indexed": true,
          "internalType": "address",
          "name": "newController",
          "type": "address"
        }
      ],
      "name": "EmergencyControllerSet",
      "type": "event"
    },
    {
      "anonymous": false,
      "inputs": [
        {
          "indexed": false,
          "internalType": "uint256",
          "name": "startedAt",
          "type": "uint256"
        },
        {
          "indexed": false,
          "internalType": "uint256",
          "name": "baseOperationsPool",
          "type": "uint256"
        },
        {
          "indexed": false,
          "internalType": "uint256",
          "name": "capAmount",
          "type": "uint256"
        }
      ],
      "name": "ExpenseEpochRolled",
      "type": "event"
    },
    {
      "anonymous": false,
      "inputs": [
        {
          "indexed": false,
          "internalType": "uint256",
          "name": "amount",
          "type": "uint256"
        }
      ],
      "name": "FundsBurned",
      "type": "event"
    },
    {
      "anonymous": false,
      "inputs": [
        {
          "indexed": false,
          "internalType": "uint256",
          "name": "year",
          "type": "uint256"
        },
        {
          "indexed": false,
          "internalType": "uint256",
          "name": "quarter",
          "type": "uint256"
        },
        {
          "indexed": false,
          "internalType": "uint256",
          "name": "totalPool",
          "type": "uint256"
        }
      ],
      "name": "HeadhunterQuarterEnded",
      "type": "event"
    },
    {
      "anonymous": false,
      "inputs": [
        {
          "indexed": true,
          "internalType": "address",
          "name": "manager",
          "type": "address"
        },
        {
          "indexed": false,
          "internalType": "bool",
          "name": "active",
          "type": "bool"
        }
      ],
      "name": "ManagerChangeCancelled",
      "type": "event"
    },
    {
      "anonymous": false,
      "inputs": [
        {
          "indexed": true,
          "internalType": "address",
          "name": "manager",
          "type": "address"
        },
        {
          "indexed": false,
          "internalType": "bool",
          "name": "active",
          "type": "bool"
        },
        {
          "indexed": false,
          "internalType": "uint256",
          "name": "executeAfter",
          "type": "uint256"
        }
      ],
      "name": "ManagerChangeQueued",
      "type": "event"
    },
    {
      "anonymous": false,
      "inputs": [
        {
          "indexed": false,
          "internalType": "address",
          "name": "manager",
          "type": "address"
        },
        {
          "indexed": false,
          "internalType": "bool",
          "name": "active",
          "type": "bool"
        }
      ],
      "name": "ManagerSet",
      "type": "event"
    },
    {
      "anonymous": false,
      "inputs": [
        {
          "indexed": false,
          "internalType": "uint256",
          "name": "period",
          "type": "uint256"
        },
        {
          "indexed": false,
          "internalType": "uint256",
          "name": "poolSnapshot",
          "type": "uint256"
        }
      ],
      "name": "MerchantPeriodEnded",
      "type": "event"
    },
    {
      "anonymous": false,
      "inputs": [
        {
          "indexed": false,
          "internalType": "uint256",
          "name": "minOutput",
          "type": "uint256"
        }
      ],
      "name": "MinOutputPerVfideSet",
      "type": "event"
    },
    {
      "anonymous": false,
      "inputs": [
        {
          "indexed": false,
          "internalType": "uint256",
          "name": "oldCooldown",
          "type": "uint256"
        },
        {
          "indexed": false,
          "internalType": "uint256",
          "name": "newCooldown",
          "type": "uint256"
        }
      ],
      "name": "OperationsCooldownUpdated",
      "type": "event"
    },
    {
      "anonymous": false,
      "inputs": [
        {
          "indexed": true,
          "internalType": "address",
          "name": "wallet",
          "type": "address"
        }
      ],
      "name": "OperationsWalletChangeCancelled",
      "type": "event"
    },
    {
      "anonymous": false,
      "inputs": [
        {
          "indexed": true,
          "internalType": "address",
          "name": "wallet",
          "type": "address"
        },
        {
          "indexed": false,
          "internalType": "uint256",
          "name": "executeAfter",
          "type": "uint256"
        }
      ],
      "name": "OperationsWalletChangeQueued",
      "type": "event"
    },
    {
      "anonymous": false,
      "inputs": [
        {
          "indexed": true,
          "internalType": "address",
          "name": "oldWallet",
          "type": "address"
        },
        {
          "indexed": true,
          "internalType": "address",
          "name": "newWallet",
          "type": "address"
        }
      ],
      "name": "OperationsWalletUpdated",
      "type": "event"
    },
    {
      "anonymous": false,
      "inputs": [
        {
          "indexed": true,
          "internalType": "address",
          "name": "wallet",
          "type": "address"
        },
        {
          "indexed": false,
          "internalType": "uint256",
          "name": "amount",
          "type": "uint256"
        }
      ],
      "name": "OperationsWithdrawal",
      "type": "event"
    },
    {
      "anonymous": false,
      "inputs": [
        {
          "indexed": true,
          "internalType": "address",
          "name": "previousOwner",
          "type": "address"
        },
        {
          "indexed": true,
          "internalType": "address",
          "name": "newOwner",
          "type": "address"
        }
      ],
      "name": "OwnershipTransferStarted",
      "type": "event"
    },
    {
      "anonymous": false,
      "inputs": [
        {
          "indexed": true,
          "internalType": "address",
          "name": "previousOwner",
          "type": "address"
        },
        {
          "indexed": true,
          "internalType": "address",
          "name": "newOwner",
          "type": "address"
        }
      ],
      "name": "OwnershipTransferred",
      "type": "event"
    },
    {
      "anonymous": false,
      "inputs": [
        {
          "indexed": true,
          "internalType": "address",
          "name": "recipient",
          "type": "address"
        },
        {
          "indexed": false,
          "internalType": "uint256",
          "name": "amount",
          "type": "uint256"
        },
        {
          "indexed": false,
          "internalType": "string",
          "name": "reason",
          "type": "string"
        }
      ],
      "name": "PaymentMade",
      "type": "event"
    },
    {
      "anonymous": false,
      "inputs": [
        {
          "indexed": true,
          "internalType": "address",
          "name": "referred",
          "type": "address"
        },
        {
          "indexed": true,
          "internalType": "address",
          "name": "referrer",
          "type": "address"
        },
        {
          "indexed": false,
          "internalType": "bool",
          "name": "isMerchant",
          "type": "bool"
        }
      ],
      "name": "PendingReferralRegistered",
      "type": "event"
    },
    {
      "anonymous": false,
      "inputs": [
        {
          "indexed": true,
          "internalType": "address",
          "name": "referrer",
          "type": "address"
        },
        {
          "indexed": true,
          "internalType": "address",
          "name": "referred",
          "type": "address"
        },
        {
          "indexed": false,
          "internalType": "bool",
          "name": "isMerchant",
          "type": "bool"
        },
        {
          "indexed": false,
          "internalType": "uint16",
          "name": "points",
          "type": "uint16"
        }
      ],
      "name": "ReferralRecorded",
      "type": "event"
    },
    {
      "anonymous": false,
      "inputs": [
        {
          "indexed": false,
          "internalType": "uint16",
          "name": "level1Points",
          "type": "uint16"
        },
        {
          "indexed": false,
          "internalType": "uint16",
          "name": "level2Points",
          "type": "uint16"
        },
        {
          "indexed": false,
          "internalType": "uint16",
          "name": "level3Points",
          "type": "uint16"
        },
        {
          "indexed": false,
          "internalType": "uint16",
          "name": "level4Points",
          "type": "uint16"
        },
        {
          "indexed": false,
          "internalType": "uint256",
          "name": "level1Reward",
          "type": "uint256"
        },
        {
          "indexed": false,
          "internalType": "uint256",
          "name": "level2Reward",
          "type": "uint256"
        },
        {
          "indexed": false,
          "internalType": "uint256",
          "name": "level3Reward",
          "type": "uint256"
        },
        {
          "indexed": false,
          "internalType": "uint256",
          "name": "level4Reward",
          "type": "uint256"
        }
      ],
      "name": "ReferralWorkLevelsConfigured",
      "type": "event"
    },
    {
      "anonymous": false,
      "inputs": [
        {
          "indexed": true,
          "internalType": "address",
          "name": "oldToken",
          "type": "address"
        },
        {
          "indexed": true,
          "internalType": "address",
          "name": "newToken",
          "type": "address"
        }
      ],
      "name": "RewardTokenUpdated",
      "type": "event"
    },
    {
      "anonymous": false,
      "inputs": [
        {
          "indexed": true,
          "internalType": "address",
          "name": "oldSeer",
          "type": "address"
        },
        {
          "indexed": true,
          "internalType": "address",
          "name": "newSeer",
          "type": "address"
        }
      ],
      "name": "SeerUpdated",
      "type": "event"
    },
    {
      "anonymous": false,
      "inputs": [
        {
          "indexed": true,
          "internalType": "address",
          "name": "token",
          "type": "address"
        },
        {
          "indexed": true,
          "internalType": "address",
          "name": "from",
          "type": "address"
        },
        {
          "indexed": false,
          "internalType": "uint256",
          "name": "amount",
          "type": "uint256"
        }
      ],
      "name": "StablecoinDeposited",
      "type": "event"
    },
    {
      "anonymous": false,
      "inputs": [
        {
          "indexed": false,
          "internalType": "bool",
          "name": "enabled",
          "type": "bool"
        }
      ],
      "name": "StablecoinOnlyModeSet",
      "type": "event"
    },
    {
      "anonymous": false,
      "inputs": [
        {
          "indexed": true,
          "internalType": "address",
          "name": "token",
          "type": "address"
        },
        {
          "indexed": false,
          "internalType": "uint256",
          "name": "amount",
          "type": "uint256"
        },
        {
          "indexed": true,
          "internalType": "address",
          "name": "recipient",
          "type": "address"
        }
      ],
      "name": "StablecoinReserveWithdrawn",
      "type": "event"
    },
    {
      "anonymous": false,
      "inputs": [
        {
          "indexed": true,
          "internalType": "uint256",
          "name": "id",
          "type": "uint256"
        }
      ],
      "name": "WithdrawCancelled",
      "type": "event"
    },
    {
      "anonymous": false,
      "inputs": [
        {
          "indexed": true,
          "internalType": "uint256",
          "name": "id",
          "type": "uint256"
        },
        {
          "indexed": false,
          "internalType": "address",
          "name": "to",
          "type": "address"
        },
        {
          "indexed": false,
          "internalType": "uint256",
          "name": "amount",
          "type": "uint256"
        }
      ],
      "name": "WithdrawExecuted",
      "type": "event"
    },
    {
      "anonymous": false,
      "inputs": [
        {
          "indexed": true,
          "internalType": "uint256",
          "name": "id",
          "type": "uint256"
        },
        {
          "indexed": false,
          "internalType": "address",
          "name": "to",
          "type": "address"
        },
        {
          "indexed": false,
          "internalType": "uint256",
          "name": "amount",
          "type": "uint256"
        }
      ],
      "name": "WithdrawRequested",
      "type": "event"
    },
    {
      "anonymous": false,
      "inputs": [
        {
          "indexed": true,
          "internalType": "address",
          "name": "worker",
          "type": "address"
        },
        {
          "indexed": false,
          "internalType": "uint256",
          "name": "amount",
          "type": "uint256"
        },
        {
          "indexed": false,
          "internalType": "string",
          "name": "program",
          "type": "string"
        },
        {
          "indexed": false,
          "internalType": "string",
          "name": "reason",
          "type": "string"
        }
      ],
      "name": "WorkRewardPaid",
      "type": "event"
    },
    {
      "inputs": [],
      "name": "EMERGENCY_CONTROLLER_DELAY",
      "outputs": [
        {
          "internalType": "uint64",
          "name": "",
          "type": "uint64"
        }
      ],
      "stateMutability": "view",
      "type": "function"
    },
    {
      "inputs": [],
      "name": "EXPENSE_EPOCH_CAP_BPS",
      "outputs": [
        {
          "internalType": "uint16",
          "name": "",
          "type": "uint16"
        }
      ],
      "stateMutability": "view",
      "type": "function"
    },
    {
      "inputs": [],
      "name": "EXPENSE_EPOCH_DURATION",
      "outputs": [
        {
          "internalType": "uint256",
          "name": "",
          "type": "uint256"
        }
      ],
      "stateMutability": "view",
      "type": "function"
    },
    {
      "inputs": [],
      "name": "HEADHUNTER_MIN_SCORE",
      "outputs": [
        {
          "internalType": "uint16",
          "name": "",
          "type": "uint16"
        }
      ],
      "stateMutability": "view",
      "type": "function"
    },
    {
      "inputs": [],
      "name": "HEADHUNTER_RANKS",
      "outputs": [
        {
          "internalType": "uint8",
          "name": "",
          "type": "uint8"
        }
      ],
      "stateMutability": "view",
      "type": "function"
    },
    {
      "inputs": [],
      "name": "MAX_BPS",
      "outputs": [
        {
          "internalType": "uint16",
          "name": "",
          "type": "uint16"
        }
      ],
      "stateMutability": "view",
      "type": "function"
    },
    {
      "inputs": [],
      "name": "MAX_COUNCIL_DISTRIBUTION_BATCH",
      "outputs": [
        {
          "internalType": "uint256",
          "name": "",
          "type": "uint256"
        }
      ],
      "stateMutability": "view",
      "type": "function"
    },
    {
      "inputs": [],
      "name": "MAX_COUNCIL_MEMBERS",
      "outputs": [
        {
          "internalType": "uint8",
          "name": "",
          "type": "uint8"
        }
      ],
      "stateMutability": "view",
      "type": "function"
    },
    {
      "inputs": [],
      "name": "MAX_MERCHANTS_PER_PERIOD",
      "outputs": [
        {
          "internalType": "uint256",
          "name": "",
          "type": "uint256"
        }
      ],
      "stateMutability": "view",
      "type": "function"
    },
    {
      "inputs": [],
      "name": "MAX_RANK_ITERATIONS",
      "outputs": [
        {
          "internalType": "uint256",
          "name": "",
          "type": "uint256"
        }
      ],
      "stateMutability": "view",
      "type": "function"
    },
    {
      "inputs": [],
      "name": "MAX_REFERRERS_PER_YEAR",
      "outputs": [
        {
          "internalType": "uint256",
          "name": "",
          "type": "uint256"
        }
      ],
      "stateMutability": "view",
      "type": "function"
    },
    {
      "inputs": [],
      "name": "MERCHANT_RANKS",
      "outputs": [
        {
          "internalType": "uint8",
          "name": "",
          "type": "uint8"
        }
      ],
      "stateMutability": "view",
      "type": "function"
    },
    {
      "inputs": [],
      "name": "MIN_ALLOCATION_BPS",
      "outputs": [
        {
          "internalType": "uint16",
          "name": "",
          "type": "uint16"
        }
      ],
      "stateMutability": "view",
      "type": "function"
    },
    {
      "inputs": [],
      "name": "MIN_MERCHANT_TX",
      "outputs": [
        {
          "internalType": "uint8",
          "name": "",
          "type": "uint8"
        }
      ],
      "stateMutability": "view",
      "type": "function"
    },
    {
      "inputs": [],
      "name": "MIN_USER_VAULT_USD",
      "outputs": [
        {
          "internalType": "uint256",
          "name": "",
          "type": "uint256"
        }
      ],
      "stateMutability": "view",
      "type": "function"
    },
    {
      "inputs": [],
      "name": "MONTH",
      "outputs": [
        {
          "internalType": "uint256",
          "name": "",
          "type": "uint256"
        }
      ],
      "stateMutability": "view",
      "type": "function"
    },
    {
      "inputs": [],
      "name": "POINTS_MERCHANT_REFERRAL",
      "outputs": [
        {
          "internalType": "uint16",
          "name": "",
          "type": "uint16"
        }
      ],
      "stateMutability": "view",
      "type": "function"
    },
    {
      "inputs": [],
      "name": "POINTS_USER_REFERRAL",
      "outputs": [
        {
          "internalType": "uint16",
          "name": "",
          "type": "uint16"
        }
      ],
      "stateMutability": "view",
      "type": "function"
    },
    {
      "inputs": [],
      "name": "QUARTER",
      "outputs": [
        {
          "internalType": "uint256",
          "name": "",
          "type": "uint256"
        }
      ],
      "stateMutability": "view",
      "type": "function"
    },
    {
      "inputs": [],
      "name": "SENSITIVE_CHANGE_DELAY",
      "outputs": [
        {
          "internalType": "uint256",
          "name": "",
          "type": "uint256"
        }
      ],
      "stateMutability": "view",
      "type": "function"
    },
    {
      "inputs": [],
      "name": "TIER1_MULTIPLIER",
      "outputs": [
        {
          "internalType": "uint16",
          "name": "",
          "type": "uint16"
        }
      ],
      "stateMutability": "view",
      "type": "function"
    },
    {
      "inputs": [],
      "name": "TIER1_THRESHOLD",
      "outputs": [
        {
          "internalType": "uint16",
          "name": "",
          "type": "uint16"
        }
      ],
      "stateMutability": "view",
      "type": "function"
    },
    {
      "inputs": [],
      "name": "TIER2_MULTIPLIER",
      "outputs": [
        {
          "internalType": "uint16",
          "name": "",
          "type": "uint16"
        }
      ],
      "stateMutability": "view",
      "type": "function"
    },
    {
      "inputs": [],
      "name": "TIER2_THRESHOLD",
      "outputs": [
        {
          "internalType": "uint16",
          "name": "",
          "type": "uint16"
        }
      ],
      "stateMutability": "view",
      "type": "function"
    },
    {
      "inputs": [],
      "name": "TIER3_MULTIPLIER",
      "outputs": [
        {
          "internalType": "uint16",
          "name": "",
          "type": "uint16"
        }
      ],
      "stateMutability": "view",
      "type": "function"
    },
    {
      "inputs": [],
      "name": "TIER3_THRESHOLD",
      "outputs": [
        {
          "internalType": "uint16",
          "name": "",
          "type": "uint16"
        }
      ],
      "stateMutability": "view",
      "type": "function"
    },
    {
      "inputs": [],
      "name": "TIER4_MULTIPLIER",
      "outputs": [
        {
          "internalType": "uint16",
          "name": "",
          "type": "uint16"
        }
      ],
      "stateMutability": "view",
      "type": "function"
    },
    {
      "inputs": [],
      "name": "TIER4_THRESHOLD",
      "outputs": [
        {
          "internalType": "uint16",
          "name": "",
          "type": "uint16"
        }
      ],
      "stateMutability": "view",
      "type": "function"
    },
    {
      "inputs": [],
      "name": "WITHDRAW_TIMELOCK",
      "outputs": [
        {
          "internalType": "uint256",
          "name": "",
          "type": "uint256"
        }
      ],
      "stateMutability": "view",
      "type": "function"
    },
    {
      "inputs": [],
      "name": "acceptOwnership",
      "outputs": [],
      "stateMutability": "nonpayable",
      "type": "function"
    },
    {
      "inputs": [],
      "name": "allocateIncoming",
      "outputs": [],
      "stateMutability": "nonpayable",
      "type": "function"
    },
    {
      "inputs": [],
      "name": "applyEmergencyController",
      "outputs": [],
      "stateMutability": "nonpayable",
      "type": "function"
    },
    {
      "inputs": [],
      "name": "applyOperationsWalletChange",
      "outputs": [],
      "stateMutability": "nonpayable",
      "type": "function"
    },
    {
      "inputs": [],
      "name": "autoMerchantReferralReward",
      "outputs": [
        {
          "internalType": "uint256",
          "name": "",
          "type": "uint256"
        }
      ],
      "stateMutability": "view",
      "type": "function"
    },
    {
      "inputs": [],
      "name": "autoMerchantTxReward",
      "outputs": [
        {
          "internalType": "uint256",
          "name": "",
          "type": "uint256"
        }
      ],
      "stateMutability": "view",
      "type": "function"
    },
    {
      "inputs": [],
      "name": "autoSwapEnabled",
      "outputs": [
        {
          "internalType": "bool",
          "name": "",
          "type": "bool"
        }
      ],
      "stateMutability": "view",
      "type": "function"
    },
    {
      "inputs": [],
      "name": "autoUserReferralReward",
      "outputs": [
        {
          "internalType": "uint256",
          "name": "",
          "type": "uint256"
        }
      ],
      "stateMutability": "view",
      "type": "function"
    },
    {
      "inputs": [],
      "name": "autoWorkPayoutEnabled",
      "outputs": [
        {
          "internalType": "bool",
          "name": "",
          "type": "bool"
        }
      ],
      "stateMutability": "view",
      "type": "function"
    },
    {
      "inputs": [
        {
          "internalType": "uint256",
          "name": "amount",
          "type": "uint256"
        }
      ],
      "name": "burnFunds",
      "outputs": [],
      "stateMutability": "nonpayable",
      "type": "function"
    },
    {
      "inputs": [],
      "name": "cancelAllocationChange",
      "outputs": [],
      "stateMutability": "nonpayable",
      "type": "function"
    },
    {
      "inputs": [],
      "name": "cancelCouncilManagerChange",
      "outputs": [],
      "stateMutability": "nonpayable",
      "type": "function"
    },
    {
      "inputs": [],
      "name": "cancelEmergencyController",
      "outputs": [],
      "stateMutability": "nonpayable",
      "type": "function"
    },
    {
      "inputs": [],
      "name": "cancelManagerChange",
      "outputs": [],
      "stateMutability": "nonpayable",
      "type": "function"
    },
    {
      "inputs": [],
      "name": "cancelOperationsWalletChange",
      "outputs": [],
      "stateMutability": "nonpayable",
      "type": "function"
    },
    {
      "inputs": [],
      "name": "cancelOwnershipTransfer",
      "outputs": [],
      "stateMutability": "nonpayable",
      "type": "function"
    },
    {
      "inputs": [
        {
          "internalType": "uint256",
          "name": "id",
          "type": "uint256"
        }
      ],
      "name": "cancelWithdraw",
      "outputs": [],
      "stateMutability": "nonpayable",
      "type": "function"
    },
    {
      "inputs": [
        {
          "internalType": "bytes",
          "name": "",
          "type": "bytes"
        }
      ],
      "name": "checkUpkeep",
      "outputs": [
        {
          "internalType": "bool",
          "name": "upkeepNeeded",
          "type": "bool"
        },
        {
          "internalType": "bytes",
          "name": "performData",
          "type": "bytes"
        }
      ],
      "stateMutability": "view",
      "type": "function"
    },
    {
      "inputs": [
        {
          "internalType": "uint256",
          "name": "",
          "type": "uint256"
        },
        {
          "internalType": "string",
          "name": "",
          "type": "string"
        }
      ],
      "name": "claimReferralLevelRewards",
      "outputs": [
        {
          "internalType": "uint8",
          "name": "",
          "type": "uint8"
        },
        {
          "internalType": "uint256",
          "name": "",
          "type": "uint256"
        }
      ],
      "stateMutability": "pure",
      "type": "function"
    },
    {
      "inputs": [
        {
          "internalType": "uint16",
          "name": "merchantReserve",
          "type": "uint16"
        },
        {
          "internalType": "uint16",
          "name": "headhunterReserve",
          "type": "uint16"
        },
        {
          "internalType": "uint16",
          "name": "maxAutoPayout",
          "type": "uint16"
        }
      ],
      "name": "configureAutoPayoutSustainability",
      "outputs": [],
      "stateMutability": "nonpayable",
      "type": "function"
    },
    {
      "inputs": [
        {
          "internalType": "address",
          "name": "_router",
          "type": "address"
        },
        {
          "internalType": "address",
          "name": "_stablecoin",
          "type": "address"
        },
        {
          "internalType": "bool",
          "name": "_enabled",
          "type": "bool"
        },
        {
          "internalType": "uint16",
          "name": "_maxSlippageBps",
          "type": "uint16"
        }
      ],
      "name": "configureAutoSwap",
      "outputs": [],
      "stateMutability": "nonpayable",
      "type": "function"
    },
    {
      "inputs": [
        {
          "internalType": "bool",
          "name": "enabled",
          "type": "bool"
        },
        {
          "internalType": "uint256",
          "name": "merchantTxReward",
          "type": "uint256"
        },
        {
          "internalType": "uint256",
          "name": "merchantReferralReward",
          "type": "uint256"
        },
        {
          "internalType": "uint256",
          "name": "userReferralReward",
          "type": "uint256"
        }
      ],
      "name": "configureAutoWorkPayout",
      "outputs": [],
      "stateMutability": "nonpayable",
      "type": "function"
    },
    {
      "inputs": [
        {
          "internalType": "uint16",
          "name": "level1Points",
          "type": "uint16"
        },
        {
          "internalType": "uint16",
          "name": "level2Points",
          "type": "uint16"
        },
        {
          "internalType": "uint16",
          "name": "level3Points",
          "type": "uint16"
        },
        {
          "internalType": "uint16",
          "name": "level4Points",
          "type": "uint16"
        },
        {
          "internalType": "uint256",
          "name": "level1Reward",
          "type": "uint256"
        },
        {
          "internalType": "uint256",
          "name": "level2Reward",
          "type": "uint256"
        },
        {
          "internalType": "uint256",
          "name": "level3Reward",
          "type": "uint256"
        },
        {
          "internalType": "uint256",
          "name": "level4Reward",
          "type": "uint256"
        }
      ],
      "name": "configureReferralWorkLevels",
      "outputs": [],
      "stateMutability": "nonpayable",
      "type": "function"
    },
    {
      "inputs": [],
      "name": "councilBps",
      "outputs": [
        {
          "internalType": "uint16",
          "name": "",
          "type": "uint16"
        }
      ],
      "stateMutability": "view",
      "type": "function"
    },
    {
      "inputs": [],
      "name": "councilManager",
      "outputs": [
        {
          "internalType": "contract ICouncilManager",
          "name": "",
          "type": "address"
        }
      ],
      "stateMutability": "view",
      "type": "function"
    },
    {
      "inputs": [],
      "name": "councilPool",
      "outputs": [
        {
          "internalType": "uint256",
          "name": "",
          "type": "uint256"
        }
      ],
      "stateMutability": "view",
      "type": "function"
    },
    {
      "inputs": [
        {
          "internalType": "address",
          "name": "merchant",
          "type": "address"
        }
      ],
      "name": "creditMerchantReferral",
      "outputs": [],
      "stateMutability": "nonpayable",
      "type": "function"
    },
    {
      "inputs": [
        {
          "internalType": "address",
          "name": "user",
          "type": "address"
        }
      ],
      "name": "creditUserReferral",
      "outputs": [],
      "stateMutability": "nonpayable",
      "type": "function"
    },
    {
      "inputs": [],
      "name": "currentMerchantPeriod",
      "outputs": [
        {
          "internalType": "uint256",
          "name": "",
          "type": "uint256"
        }
      ],
      "stateMutability": "view",
      "type": "function"
    },
    {
      "inputs": [],
      "name": "currentQuarter",
      "outputs": [
        {
          "internalType": "uint256",
          "name": "",
          "type": "uint256"
        }
      ],
      "stateMutability": "view",
      "type": "function"
    },
    {
      "inputs": [],
      "name": "currentYear",
      "outputs": [
        {
          "internalType": "uint256",
          "name": "",
          "type": "uint256"
        }
      ],
      "stateMutability": "view",
      "type": "function"
    },
    {
      "inputs": [
        {
          "internalType": "address",
          "name": "stablecoin",
          "type": "address"
        },
        {
          "internalType": "uint256",
          "name": "amount",
          "type": "uint256"
        }
      ],
      "name": "depositStablecoinReserve",
      "outputs": [],
      "stateMutability": "nonpayable",
      "type": "function"
    },
    {
      "inputs": [],
      "name": "distributeCouncilRewards",
      "outputs": [],
      "stateMutability": "nonpayable",
      "type": "function"
    },
    {
      "inputs": [],
      "name": "emergencyController",
      "outputs": [
        {
          "internalType": "address",
          "name": "",
          "type": "address"
        }
      ],
      "stateMutability": "view",
      "type": "function"
    },
    {
      "inputs": [
        {
          "internalType": "address",
          "name": "newOwner",
          "type": "address"
        }
      ],
      "name": "emergencyTransferOwnership",
      "outputs": [],
      "stateMutability": "nonpayable",
      "type": "function"
    },
    {
      "inputs": [],
      "name": "endHeadhunterQuarter",
      "outputs": [],
      "stateMutability": "nonpayable",
      "type": "function"
    },
    {
      "inputs": [],
      "name": "endMerchantPeriod",
      "outputs": [],
      "stateMutability": "nonpayable",
      "type": "function"
    },
    {
      "inputs": [],
      "name": "executeAllocationChange",
      "outputs": [],
      "stateMutability": "nonpayable",
      "type": "function"
    },
    {
      "inputs": [],
      "name": "executeCouncilManagerChange",
      "outputs": [],
      "stateMutability": "nonpayable",
      "type": "function"
    },
    {
      "inputs": [],
      "name": "executeManagerChange",
      "outputs": [],
      "stateMutability": "nonpayable",
      "type": "function"
    },
    {
      "inputs": [
        {
          "internalType": "uint256",
          "name": "id",
          "type": "uint256"
        }
      ],
      "name": "executeWithdraw",
      "outputs": [],
      "stateMutability": "nonpayable",
      "type": "function"
    },
    {
      "inputs": [],
      "name": "headhunterBps",
      "outputs": [
        {
          "internalType": "uint16",
          "name": "",
          "type": "uint16"
        }
      ],
      "stateMutability": "view",
      "type": "function"
    },
    {
      "inputs": [],
      "name": "headhunterPool",
      "outputs": [
        {
          "internalType": "uint256",
          "name": "",
          "type": "uint256"
        }
      ],
      "stateMutability": "view",
      "type": "function"
    },
    {
      "inputs": [],
      "name": "headhunterPoolReserveBps",
      "outputs": [
        {
          "internalType": "uint16",
          "name": "",
          "type": "uint16"
        }
      ],
      "stateMutability": "view",
      "type": "function"
    },
    {
      "inputs": [
        {
          "internalType": "address",
          "name": "",
          "type": "address"
        }
      ],
      "name": "isManager",
      "outputs": [
        {
          "internalType": "bool",
          "name": "",
          "type": "bool"
        }
      ],
      "stateMutability": "view",
      "type": "function"
    },
    {
      "inputs": [],
      "name": "lastCouncilDistribution",
      "outputs": [
        {
          "internalType": "uint256",
          "name": "",
          "type": "uint256"
        }
      ],
      "stateMutability": "view",
      "type": "function"
    },
    {
      "inputs": [],
      "name": "lastMerchantDistribution",
      "outputs": [
        {
          "internalType": "uint256",
          "name": "",
          "type": "uint256"
        }
      ],
      "stateMutability": "view",
      "type": "function"
    },
    {
      "inputs": [],
      "name": "lastOperationsWithdrawal",
      "outputs": [
        {
          "internalType": "uint256",
          "name": "",
          "type": "uint256"
        }
      ],
      "stateMutability": "view",
      "type": "function"
    },
    {
      "inputs": [],
      "name": "lastQuarterPayout",
      "outputs": [
        {
          "internalType": "uint256",
          "name": "",
          "type": "uint256"
        }
      ],
      "stateMutability": "view",
      "type": "function"
    },
    {
      "inputs": [],
      "name": "maxAutoPayoutBps",
      "outputs": [
        {
          "internalType": "uint16",
          "name": "",
          "type": "uint16"
        }
      ],
      "stateMutability": "view",
      "type": "function"
    },
    {
      "inputs": [],
      "name": "maxSlippageBps",
      "outputs": [
        {
          "internalType": "uint16",
          "name": "",
          "type": "uint16"
        }
      ],
      "stateMutability": "view",
      "type": "function"
    },
    {
      "inputs": [],
      "name": "maxWithdrawBps",
      "outputs": [
        {
          "internalType": "uint256",
          "name": "",
          "type": "uint256"
        }
      ],
      "stateMutability": "view",
      "type": "function"
    },
    {
      "inputs": [],
      "name": "merchantBps",
      "outputs": [
        {
          "internalType": "uint16",
          "name": "",
          "type": "uint16"
        }
      ],
      "stateMutability": "view",
      "type": "function"
    },
    {
      "inputs": [
        {
          "internalType": "uint256",
          "name": "",
          "type": "uint256"
        },
        {
          "internalType": "address",
          "name": "",
          "type": "address"
        }
      ],
      "name": "merchantPeriodClaimed",
      "outputs": [
        {
          "internalType": "bool",
          "name": "",
          "type": "bool"
        }
      ],
      "stateMutability": "view",
      "type": "function"
    },
    {
      "inputs": [
        {
          "internalType": "uint256",
          "name": "",
          "type": "uint256"
        }
      ],
      "name": "merchantPeriodEnded",
      "outputs": [
        {
          "internalType": "bool",
          "name": "",
          "type": "bool"
        }
      ],
      "stateMutability": "view",
      "type": "function"
    },
    {
      "inputs": [
        {
          "internalType": "uint256",
          "name": "",
          "type": "uint256"
        }
      ],
      "name": "merchantPeriodPoolSnapshot",
      "outputs": [
        {
          "internalType": "uint256",
          "name": "",
          "type": "uint256"
        }
      ],
      "stateMutability": "view",
      "type": "function"
    },
    {
      "inputs": [],
      "name": "merchantPool",
      "outputs": [
        {
          "internalType": "uint256",
          "name": "",
          "type": "uint256"
        }
      ],
      "stateMutability": "view",
      "type": "function"
    },
    {
      "inputs": [],
      "name": "merchantPoolReserveBps",
      "outputs": [
        {
          "internalType": "uint16",
          "name": "",
          "type": "uint16"
        }
      ],
      "stateMutability": "view",
      "type": "function"
    },
    {
      "inputs": [
        {
          "internalType": "address",
          "name": "token",
          "type": "address"
        },
        {
          "internalType": "address",
          "name": "oldTokenSink",
          "type": "address"
        }
      ],
      "name": "migrateRewardToken",
      "outputs": [],
      "stateMutability": "nonpayable",
      "type": "function"
    },
    {
      "inputs": [],
      "name": "minOutputPerVfide",
      "outputs": [
        {
          "internalType": "uint256",
          "name": "",
          "type": "uint256"
        }
      ],
      "stateMutability": "view",
      "type": "function"
    },
    {
      "inputs": [],
      "name": "operationsBps",
      "outputs": [
        {
          "internalType": "uint16",
          "name": "",
          "type": "uint16"
        }
      ],
      "stateMutability": "view",
      "type": "function"
    },
    {
      "inputs": [],
      "name": "operationsExpenseEpochBase",
      "outputs": [
        {
          "internalType": "uint256",
          "name": "",
          "type": "uint256"
        }
      ],
      "stateMutability": "view",
      "type": "function"
    },
    {
      "inputs": [],
      "name": "operationsExpenseEpochStartedAt",
      "outputs": [
        {
          "internalType": "uint256",
          "name": "",
          "type": "uint256"
        }
      ],
      "stateMutability": "view",
      "type": "function"
    },
    {
      "inputs": [],
      "name": "operationsPool",
      "outputs": [
        {
          "internalType": "uint256",
          "name": "",
          "type": "uint256"
        }
      ],
      "stateMutability": "view",
      "type": "function"
    },
    {
      "inputs": [],
      "name": "operationsSpentInEpoch",
      "outputs": [
        {
          "internalType": "uint256",
          "name": "",
          "type": "uint256"
        }
      ],
      "stateMutability": "view",
      "type": "function"
    },
    {
      "inputs": [],
      "name": "operationsWallet",
      "outputs": [
        {
          "internalType": "address",
          "name": "",
          "type": "address"
        }
      ],
      "stateMutability": "view",
      "type": "function"
    },
    {
      "inputs": [],
      "name": "operationsWithdrawalCooldown",
      "outputs": [
        {
          "internalType": "uint256",
          "name": "",
          "type": "uint256"
        }
      ],
      "stateMutability": "view",
      "type": "function"
    },
    {
      "inputs": [],
      "name": "owner",
      "outputs": [
        {
          "internalType": "address",
          "name": "",
          "type": "address"
        }
      ],
      "stateMutability": "view",
      "type": "function"
    },
    {
      "inputs": [],
      "name": "ownershipTransferDeadline",
      "outputs": [
        {
          "internalType": "uint64",
          "name": "",
          "type": "uint64"
        }
      ],
      "stateMutability": "view",
      "type": "function"
    },
    {
      "inputs": [
        {
          "internalType": "address",
          "name": "recipient",
          "type": "address"
        },
        {
          "internalType": "uint256",
          "name": "amount",
          "type": "uint256"
        },
        {
          "internalType": "string",
          "name": "reason",
          "type": "string"
        }
      ],
      "name": "payExpense",
      "outputs": [],
      "stateMutability": "nonpayable",
      "type": "function"
    },
    {
      "inputs": [
        {
          "internalType": "address",
          "name": "worker",
          "type": "address"
        },
        {
          "internalType": "uint256",
          "name": "amount",
          "type": "uint256"
        },
        {
          "internalType": "string",
          "name": "reason",
          "type": "string"
        }
      ],
      "name": "payMerchantWorkReward",
      "outputs": [],
      "stateMutability": "nonpayable",
      "type": "function"
    },
    {
      "inputs": [
        {
          "internalType": "address",
          "name": "",
          "type": "address"
        },
        {
          "internalType": "uint256",
          "name": "",
          "type": "uint256"
        },
        {
          "internalType": "string",
          "name": "",
          "type": "string"
        }
      ],
      "name": "payReferralLevelReward",
      "outputs": [],
      "stateMutability": "pure",
      "type": "function"
    },
    {
      "inputs": [
        {
          "internalType": "address",
          "name": "worker",
          "type": "address"
        },
        {
          "internalType": "uint256",
          "name": "amount",
          "type": "uint256"
        },
        {
          "internalType": "string",
          "name": "reason",
          "type": "string"
        }
      ],
      "name": "payReferralWorkReward",
      "outputs": [],
      "stateMutability": "nonpayable",
      "type": "function"
    },
    {
      "inputs": [],
      "name": "pendingAllocationChange",
      "outputs": [
        {
          "internalType": "uint16",
          "name": "councilBps",
          "type": "uint16"
        },
        {
          "internalType": "uint16",
          "name": "merchantBps",
          "type": "uint16"
        },
        {
          "internalType": "uint16",
          "name": "headhunterBps",
          "type": "uint16"
        },
        {
          "internalType": "uint256",
          "name": "executeAfter",
          "type": "uint256"
        }
      ],
      "stateMutability": "view",
      "type": "function"
    },
    {
      "inputs": [],
      "name": "pendingCouncilManagerChange",
      "outputs": [
        {
          "internalType": "address",
          "name": "councilManager",
          "type": "address"
        },
        {
          "internalType": "uint256",
          "name": "executeAfter",
          "type": "uint256"
        }
      ],
      "stateMutability": "view",
      "type": "function"
    },
    {
      "inputs": [],
      "name": "pendingEmergencyController",
      "outputs": [
        {
          "internalType": "address",
          "name": "",
          "type": "address"
        }
      ],
      "stateMutability": "view",
      "type": "function"
    },
    {
      "inputs": [],
      "name": "pendingEmergencyControllerAt",
      "outputs": [
        {
          "internalType": "uint64",
          "name": "",
          "type": "uint64"
        }
      ],
      "stateMutability": "view",
      "type": "function"
    },
    {
      "inputs": [],
      "name": "pendingManagerChange",
      "outputs": [
        {
          "internalType": "address",
          "name": "manager",
          "type": "address"
        },
        {
          "internalType": "bool",
          "name": "active",
          "type": "bool"
        },
        {
          "internalType": "uint256",
          "name": "executeAfter",
          "type": "uint256"
        }
      ],
      "stateMutability": "view",
      "type": "function"
    },
    {
      "inputs": [
        {
          "internalType": "address",
          "name": "",
          "type": "address"
        }
      ],
      "name": "pendingMerchantReferrer",
      "outputs": [
        {
          "internalType": "address",
          "name": "",
          "type": "address"
        }
      ],
      "stateMutability": "view",
      "type": "function"
    },
    {
      "inputs": [],
      "name": "pendingOperationsWalletChange",
      "outputs": [
        {
          "internalType": "address",
          "name": "wallet",
          "type": "address"
        },
        {
          "internalType": "uint256",
          "name": "executeAfter",
          "type": "uint256"
        }
      ],
      "stateMutability": "view",
      "type": "function"
    },
    {
      "inputs": [],
      "name": "pendingOwner",
      "outputs": [
        {
          "internalType": "address",
          "name": "",
          "type": "address"
        }
      ],
      "stateMutability": "view",
      "type": "function"
    },
    {
      "inputs": [
        {
          "internalType": "address",
          "name": "",
          "type": "address"
        }
      ],
      "name": "pendingUserReferrer",
      "outputs": [
        {
          "internalType": "address",
          "name": "",
          "type": "address"
        }
      ],
      "stateMutability": "view",
      "type": "function"
    },
    {
      "inputs": [],
      "name": "pendingWithdrawTotal",
      "outputs": [
        {
          "internalType": "uint256",
          "name": "",
          "type": "uint256"
        }
      ],
      "stateMutability": "view",
      "type": "function"
    },
    {
      "inputs": [
        {
          "internalType": "bytes",
          "name": "performData",
          "type": "bytes"
        }
      ],
      "name": "performUpkeep",
      "outputs": [],
      "stateMutability": "nonpayable",
      "type": "function"
    },
    {
      "inputs": [
        {
          "internalType": "uint256",
          "name": "",
          "type": "uint256"
        },
        {
          "internalType": "address",
          "name": "",
          "type": "address"
        }
      ],
      "name": "periodMerchantTier",
      "outputs": [
        {
          "internalType": "uint16",
          "name": "",
          "type": "uint16"
        }
      ],
      "stateMutability": "view",
      "type": "function"
    },
    {
      "inputs": [
        {
          "internalType": "uint256",
          "name": "",
          "type": "uint256"
        },
        {
          "internalType": "address",
          "name": "",
          "type": "address"
        }
      ],
      "name": "periodMerchantTxCount",
      "outputs": [
        {
          "internalType": "uint256",
          "name": "",
          "type": "uint256"
        }
      ],
      "stateMutability": "view",
      "type": "function"
    },
    {
      "inputs": [
        {
          "internalType": "uint256",
          "name": "",
          "type": "uint256"
        },
        {
          "internalType": "uint256",
          "name": "",
          "type": "uint256"
        }
      ],
      "name": "periodMerchants",
      "outputs": [
        {
          "internalType": "address",
          "name": "",
          "type": "address"
        }
      ],
      "stateMutability": "view",
      "type": "function"
    },
    {
      "inputs": [],
      "name": "preferredStablecoin",
      "outputs": [
        {
          "internalType": "address",
          "name": "",
          "type": "address"
        }
      ],
      "stateMutability": "view",
      "type": "function"
    },
    {
      "inputs": [
        {
          "internalType": "address",
          "name": "",
          "type": "address"
        },
        {
          "internalType": "uint256",
          "name": "",
          "type": "uint256"
        },
        {
          "internalType": "string",
          "name": "",
          "type": "string"
        }
      ],
      "name": "processReferralLevelRewards",
      "outputs": [
        {
          "internalType": "uint8",
          "name": "",
          "type": "uint8"
        },
        {
          "internalType": "uint256",
          "name": "",
          "type": "uint256"
        }
      ],
      "stateMutability": "pure",
      "type": "function"
    },
    {
      "inputs": [
        {
          "internalType": "uint256",
          "name": "",
          "type": "uint256"
        },
        {
          "internalType": "uint256",
          "name": "",
          "type": "uint256"
        },
        {
          "internalType": "address",
          "name": "",
          "type": "address"
        }
      ],
      "name": "quarterClaimed",
      "outputs": [
        {
          "internalType": "bool",
          "name": "",
          "type": "bool"
        }
      ],
      "stateMutability": "view",
      "type": "function"
    },
    {
      "inputs": [
        {
          "internalType": "uint256",
          "name": "",
          "type": "uint256"
        },
        {
          "internalType": "uint256",
          "name": "",
          "type": "uint256"
        }
      ],
      "name": "quarterEnded",
      "outputs": [
        {
          "internalType": "bool",
          "name": "",
          "type": "bool"
        }
      ],
      "stateMutability": "view",
      "type": "function"
    },
    {
      "inputs": [
        {
          "internalType": "uint256",
          "name": "",
          "type": "uint256"
        },
        {
          "internalType": "uint256",
          "name": "",
          "type": "uint256"
        }
      ],
      "name": "quarterPoolSnapshot",
      "outputs": [
        {
          "internalType": "uint256",
          "name": "",
          "type": "uint256"
        }
      ],
      "stateMutability": "view",
      "type": "function"
    },
    {
      "inputs": [
        {
          "internalType": "address",
          "name": "merchant",
          "type": "address"
        }
      ],
      "name": "recordMerchantTransaction",
      "outputs": [],
      "stateMutability": "nonpayable",
      "type": "function"
    },
    {
      "inputs": [
        {
          "internalType": "address",
          "name": "",
          "type": "address"
        }
      ],
      "name": "referralCredited",
      "outputs": [
        {
          "internalType": "bool",
          "name": "",
          "type": "bool"
        }
      ],
      "stateMutability": "view",
      "type": "function"
    },
    {
      "inputs": [],
      "name": "referralLevel1Points",
      "outputs": [
        {
          "internalType": "uint16",
          "name": "",
          "type": "uint16"
        }
      ],
      "stateMutability": "view",
      "type": "function"
    },
    {
      "inputs": [],
      "name": "referralLevel1Reward",
      "outputs": [
        {
          "internalType": "uint256",
          "name": "",
          "type": "uint256"
        }
      ],
      "stateMutability": "view",
      "type": "function"
    },
    {
      "inputs": [],
      "name": "referralLevel2Points",
      "outputs": [
        {
          "internalType": "uint16",
          "name": "",
          "type": "uint16"
        }
      ],
      "stateMutability": "view",
      "type": "function"
    },
    {
      "inputs": [],
      "name": "referralLevel2Reward",
      "outputs": [
        {
          "internalType": "uint256",
          "name": "",
          "type": "uint256"
        }
      ],
      "stateMutability": "view",
      "type": "function"
    },
    {
      "inputs": [],
      "name": "referralLevel3Points",
      "outputs": [
        {
          "internalType": "uint16",
          "name": "",
          "type": "uint16"
        }
      ],
      "stateMutability": "view",
      "type": "function"
    },
    {
      "inputs": [],
      "name": "referralLevel3Reward",
      "outputs": [
        {
          "internalType": "uint256",
          "name": "",
          "type": "uint256"
        }
      ],
      "stateMutability": "view",
      "type": "function"
    },
    {
      "inputs": [],
      "name": "referralLevel4Points",
      "outputs": [
        {
          "internalType": "uint16",
          "name": "",
          "type": "uint16"
        }
      ],
      "stateMutability": "view",
      "type": "function"
    },
    {
      "inputs": [],
      "name": "referralLevel4Reward",
      "outputs": [
        {
          "internalType": "uint256",
          "name": "",
          "type": "uint256"
        }
      ],
      "stateMutability": "view",
      "type": "function"
    },
    {
      "inputs": [
        {
          "internalType": "uint256",
          "name": "",
          "type": "uint256"
        },
        {
          "internalType": "address",
          "name": "",
          "type": "address"
        }
      ],
      "name": "referralLevelPaid",
      "outputs": [
        {
          "internalType": "uint8",
          "name": "",
          "type": "uint8"
        }
      ],
      "stateMutability": "view",
      "type": "function"
    },
    {
      "inputs": [
        {
          "internalType": "address",
          "name": "merchant",
          "type": "address"
        },
        {
          "internalType": "address",
          "name": "referrer",
          "type": "address"
        }
      ],
      "name": "registerMerchantReferral",
      "outputs": [],
      "stateMutability": "nonpayable",
      "type": "function"
    },
    {
      "inputs": [
        {
          "internalType": "address",
          "name": "referrer",
          "type": "address"
        },
        {
          "internalType": "address",
          "name": "user",
          "type": "address"
        }
      ],
      "name": "registerUserReferral",
      "outputs": [],
      "stateMutability": "nonpayable",
      "type": "function"
    },
    {
      "inputs": [],
      "name": "renounceOwnership",
      "outputs": [],
      "stateMutability": "view",
      "type": "function"
    },
    {
      "inputs": [
        {
          "internalType": "address",
          "name": "to",
          "type": "address"
        },
        {
          "internalType": "uint256",
          "name": "amount",
          "type": "uint256"
        }
      ],
      "name": "requestWithdraw",
      "outputs": [
        {
          "internalType": "uint256",
          "name": "id",
          "type": "uint256"
        }
      ],
      "stateMutability": "nonpayable",
      "type": "function"
    },
    {
      "inputs": [],
      "name": "rewardToken",
      "outputs": [
        {
          "internalType": "contract IERC20",
          "name": "",
          "type": "address"
        }
      ],
      "stateMutability": "view",
      "type": "function"
    },
    {
      "inputs": [],
      "name": "seer",
      "outputs": [
        {
          "internalType": "contract ISeer",
          "name": "",
          "type": "address"
        }
      ],
      "stateMutability": "view",
      "type": "function"
    },
    {
      "inputs": [
        {
          "internalType": "uint16",
          "name": "_councilBps",
          "type": "uint16"
        },
        {
          "internalType": "uint16",
          "name": "_merchantBps",
          "type": "uint16"
        },
        {
          "internalType": "uint16",
          "name": "_headhunterBps",
          "type": "uint16"
        }
      ],
      "name": "setAllocations",
      "outputs": [],
      "stateMutability": "nonpayable",
      "type": "function"
    },
    {
      "inputs": [
        {
          "internalType": "address",
          "name": "_councilManager",
          "type": "address"
        }
      ],
      "name": "setCouncilManager",
      "outputs": [],
      "stateMutability": "nonpayable",
      "type": "function"
    },
    {
      "inputs": [
        {
          "internalType": "address",
          "name": "controller",
          "type": "address"
        }
      ],
      "name": "setEmergencyController",
      "outputs": [],
      "stateMutability": "nonpayable",
      "type": "function"
    },
    {
      "inputs": [
        {
          "internalType": "address",
          "name": "manager",
          "type": "address"
        },
        {
          "internalType": "bool",
          "name": "active",
          "type": "bool"
        }
      ],
      "name": "setManager",
      "outputs": [],
      "stateMutability": "nonpayable",
      "type": "function"
    },
    {
      "inputs": [
        {
          "internalType": "uint256",
          "name": "_bps",
          "type": "uint256"
        }
      ],
      "name": "setMaxWithdrawBps",
      "outputs": [],
      "stateMutability": "nonpayable",
      "type": "function"
    },
    {
      "inputs": [
        {
          "internalType": "uint256",
          "name": "_minOutput",
          "type": "uint256"
        }
      ],
      "name": "setMinOutputPerVfide",
      "outputs": [],
      "stateMutability": "nonpayable",
      "type": "function"
    },
    {
      "inputs": [
        {
          "internalType": "uint16",
          "name": "_operationsBps",
          "type": "uint16"
        }
      ],
      "name": "setOperationsAllocation",
      "outputs": [],
      "stateMutability": "nonpayable",
      "type": "function"
    },
    {
      "inputs": [
        {
          "internalType": "uint256",
          "name": "_cooldown",
          "type": "uint256"
        }
      ],
      "name": "setOperationsCooldown",
      "outputs": [],
      "stateMutability": "nonpayable",
      "type": "function"
    },
    {
      "inputs": [
        {
          "internalType": "address",
          "name": "_wallet",
          "type": "address"
        }
      ],
      "name": "setOperationsWallet",
      "outputs": [],
      "stateMutability": "nonpayable",
      "type": "function"
    },
    {
      "inputs": [
        {
          "internalType": "address",
          "name": "token",
          "type": "address"
        }
      ],
      "name": "setRewardToken",
      "outputs": [],
      "stateMutability": "nonpayable",
      "type": "function"
    },
    {
      "inputs": [
        {
          "internalType": "address",
          "name": "_seer",
          "type": "address"
        }
      ],
      "name": "setSeer",
      "outputs": [],
      "stateMutability": "nonpayable",
      "type": "function"
    },
    {
      "inputs": [
        {
          "internalType": "bool",
          "name": "_enabled",
          "type": "bool"
        }
      ],
      "name": "setStablecoinOnlyMode",
      "outputs": [],
      "stateMutability": "nonpayable",
      "type": "function"
    },
    {
      "inputs": [],
      "name": "stablecoinOnlyMode",
      "outputs": [
        {
          "internalType": "bool",
          "name": "",
          "type": "bool"
        }
      ],
      "stateMutability": "view",
      "type": "function"
    },
    {
      "inputs": [
        {
          "internalType": "address",
          "name": "",
          "type": "address"
        }
      ],
      "name": "stablecoinReserves",
      "outputs": [
        {
          "internalType": "uint256",
          "name": "",
          "type": "uint256"
        }
      ],
      "stateMutability": "view",
      "type": "function"
    },
    {
      "inputs": [],
      "name": "swapRouter",
      "outputs": [
        {
          "internalType": "address",
          "name": "",
          "type": "address"
        }
      ],
      "stateMutability": "view",
      "type": "function"
    },
    {
      "inputs": [],
      "name": "totalBurned",
      "outputs": [
        {
          "internalType": "uint256",
          "name": "",
          "type": "uint256"
        }
      ],
      "stateMutability": "view",
      "type": "function"
    },
    {
      "inputs": [],
      "name": "totalCouncilPaid",
      "outputs": [
        {
          "internalType": "uint256",
          "name": "",
          "type": "uint256"
        }
      ],
      "stateMutability": "view",
      "type": "function"
    },
    {
      "inputs": [],
      "name": "totalExpensesPaid",
      "outputs": [
        {
          "internalType": "uint256",
          "name": "",
          "type": "uint256"
        }
      ],
      "stateMutability": "view",
      "type": "function"
    },
    {
      "inputs": [],
      "name": "totalHeadhunterPaid",
      "outputs": [
        {
          "internalType": "uint256",
          "name": "",
          "type": "uint256"
        }
      ],
      "stateMutability": "view",
      "type": "function"
    },
    {
      "inputs": [],
      "name": "totalMerchantBonusPaid",
      "outputs": [
        {
          "internalType": "uint256",
          "name": "",
          "type": "uint256"
        }
      ],
      "stateMutability": "view",
      "type": "function"
    },
    {
      "inputs": [
        {
          "internalType": "address",
          "name": "",
          "type": "address"
        }
      ],
      "name": "totalMerchantBonusesPaid",
      "outputs": [
        {
          "internalType": "uint256",
          "name": "",
          "type": "uint256"
        }
      ],
      "stateMutability": "view",
      "type": "function"
    },
    {
      "inputs": [],
      "name": "totalReceived",
      "outputs": [
        {
          "internalType": "uint256",
          "name": "",
          "type": "uint256"
        }
      ],
      "stateMutability": "view",
      "type": "function"
    },
    {
      "inputs": [
        {
          "internalType": "address",
          "name": "newOwner",
          "type": "address"
        }
      ],
      "name": "transferOwnership",
      "outputs": [],
      "stateMutability": "nonpayable",
      "type": "function"
    },
    {
      "inputs": [],
      "name": "vfide",
      "outputs": [
        {
          "internalType": "contract IERC20",
          "name": "",
          "type": "address"
        }
      ],
      "stateMutability": "view",
      "type": "function"
    },
    {
      "inputs": [],
      "name": "withdrawOperations",
      "outputs": [],
      "stateMutability": "nonpayable",
      "type": "function"
    },
    {
      "inputs": [],
      "name": "withdrawRequestCount",
      "outputs": [
        {
          "internalType": "uint256",
          "name": "",
          "type": "uint256"
        }
      ],
      "stateMutability": "view",
      "type": "function"
    },
    {
      "inputs": [
        {
          "internalType": "uint256",
          "name": "",
          "type": "uint256"
        }
      ],
      "name": "withdrawRequests",
      "outputs": [
        {
          "internalType": "address",
          "name": "to",
          "type": "address"
        },
        {
          "internalType": "uint256",
          "name": "amount",
          "type": "uint256"
        },
        {
          "internalType": "uint256",
          "name": "requestedAt",
          "type": "uint256"
        },
        {
          "internalType": "bool",
          "name": "executed",
          "type": "bool"
        },
        {
          "internalType": "bool",
          "name": "cancelled",
          "type": "bool"
        }
      ],
      "stateMutability": "view",
      "type": "function"
    },
    {
      "inputs": [
        {
          "internalType": "address",
          "name": "stablecoin",
          "type": "address"
        },
        {
          "internalType": "uint256",
          "name": "amount",
          "type": "uint256"
        },
        {
          "internalType": "address",
          "name": "recipient",
          "type": "address"
        }
      ],
      "name": "withdrawStablecoinReserve",
      "outputs": [],
      "stateMutability": "nonpayable",
      "type": "function"
    },
    {
      "inputs": [
        {
          "internalType": "uint256",
          "name": "",
          "type": "uint256"
        },
        {
          "internalType": "address",
          "name": "",
          "type": "address"
        }
      ],
      "name": "yearPoints",
      "outputs": [
        {
          "internalType": "uint16",
          "name": "",
          "type": "uint16"
        }
      ],
      "stateMutability": "view",
      "type": "function"
    },
    {
      "inputs": [
        {
          "internalType": "uint256",
          "name": "",
          "type": "uint256"
        },
        {
          "internalType": "uint256",
          "name": "",
          "type": "uint256"
        }
      ],
      "name": "yearReferrers",
      "outputs": [
        {
          "internalType": "address",
          "name": "",
          "type": "address"
        }
      ],
      "stateMutability": "view",
      "type": "function"
    },
    {
      "inputs": [],
      "name": "yearStartTime",
      "outputs": [
        {
          "internalType": "uint256",
          "name": "",
          "type": "uint256"
        }
      ],
      "stateMutability": "view",
      "type": "function"
    }
  ],
  "bytecode": "0x60803461019657601f615f7438819003918201601f19168301916001600160401b0383118484101761019a5780849260609460405283398101031261019657610047816101ae565b61005f6040610058602085016101ae565b93016101ae565b5f80546001600160a01b03191633908117825560405194917f8be0079c531659141344cd1fd0a4f28419497f9722a3daafe3b4186f6b6457e08180a3600160045560125462278d0060145560318054601960aa1b61ffff60a81b19909116179055603880546001600160701b0319166c6400320019000a03e807d007d01790556103e86048556001600160401b0319166709c409c409c409c417926001600160a01b0316801561018757600580546001600160a01b03199081168317909155600680548216909217909155600780549091166001600160a01b0392909216919091179055600160401b600160e01b031990911660409190911b600160401b600160e01b03161760125542602655600160248190556025819055601c55615db190816101c38239f35b63ef85f47d60e01b5f5260045ffd5b5f80fd5b634e487b7160e01b5f52604160045260245ffd5b51906001600160a01b03821682036101965756fe6080806040526004361015610012575f80fd5b5f3560e01c90816301464311146139025750806302c8a517146138bb578063034c32a2146130af578063038c0f771461389e5780630567375b1461385a578063071a5c3c1461381b578063086d2c87146137ff578063093b1ef5146137d0578063096fa744146137b35780630971203d146137965780630b5a006b146137795780630dab6a1d146137555780630e4d11691461373a5780630ec8f9051461365b578063101909c01461363e578063117b63a11461362157806312e35df2146135d857806313140977146135bb578063149dc3191461359a57806315112f111461356e5780631918fb891461354a5780631995333b146133e05780631b44a048146133c35780631b499842146133a65780631cba5682146132ef5780631e9f791b146132ce5780631f0e54cf146132755780631f4d956b146132465780631ff19db71461321a57806320bf4fc414610eaf5780632104ebf11461312357806323452b9c146130e65780632b0f0cfd146130cb5780632b469165146130af5780632c2d441f1461308b5780632d55ea39146130635780632e55ffe01461304657806331d46b1914612fef578063363836f814612fa7578063397a1b2814612dc057806339d55f7f14612d80578063412847d414612d4c578063412afc8014612c7f57806341d4a5dd14612c5757806342dfac7214612c3b57806342edee2214612b74578063439db2e214612ab35780634585e33b146129ec578063488b51ce146128cc57806348d44c08146128af57806349ed4aea146128805780634dc1ecc6146128635780634deac2fc1461280e5780634f3f0ade146127eb5780634f488a8214611c4257806351504685146127ce57806352062f6614612775578063530ece1014612758578063545ace991461273b5780635636963b146127015780635c59c2fe146126aa5780635f0ea50614612669578063626a5fe614612640578063633a109f1461255d578063641021dc14612535578063642ce35514612519578063652bb366146124f057806365c2a59a146124cd5780636963f603146124945780636ca7dc89146123595780636e04ff0d1461220a5780636fe2d5b014610d555780637029f87a146121e6578063715018a6146121905780637189bdd11461217357806372c8ae3b1461214b57806374109cf614612127578063743f5f971461210a57806375447d1f146120ed57806376699dfa146120d057806376a95d6e14611f9f57806379ba509714611ea65780637a936beb14611e7e5780637b7e526714611dae578063800f829314611d665780638036b09614611c475780638040210a14611c42578063807f097114611c2557806383585ba314611bf1578063840190e114611bb9578063850a1c5014611b60578063858dff9b1461199f5780638aee8127146119005780638cbc4cfd146118b25780638d7088cd146118955780638da5cb5b1461186e578063936014ca1461185157806398adda0d14611811578063992a7dfb146117ac57806399656ff11461178f5780639c97dbf2146116c15780639de8f838146116835780639f01f7ba146115de5780639f600038146115b65780639f9eeeda14611582578063a3c2c46214611565578063a5e90eee1461152f578063a65edb0614611512578063a70009e3146114cb578063a9cf52f8146114ae578063aa8e00d914611491578063ac54db3914611474578063ad2f3cba14611457578063aff784481461140f578063b015f51d146113bc578063b05e513e14611397578063b611ff7014611350578063bab2c8e314611313578063bb0a09fc1461119b578063bdca187214610d55578063be80b05b14611176578063c082f3ed14610bdd578063c0995f6e1461115b578063c0acc41a14611118578063c2838fe9146110fb578063c31c9c07146110d3578063c3b868841461107a578063c4aa739514611056578063c616e25a1461103b578063c6a2974a1461101e578063c86c8bb214610ffa578063c934170414610fa1578063c95e918d14610f72578063cc90bfd314610f3f578063cc9d95b814610eb4578063cd3f24f514610eaf578063d195d7e514610e77578063d460e62c14610e5a578063d5999a5c14610e3d578063d89135cd14610e20578063d954a53c14610e05578063dcf9115614610dea578063dd292b5e14610dcd578063e071c1c014610d5a578063e1e09bc214610d55578063e30c397814610d2d578063e41f1f6114610c8d578063e4c02d0c14610c72578063e715b10014610c3e578063e743c03414610c1a578063e82db48914610bfe578063ecde33c314610bdd578063ee5ecc8914610b29578063eea1dbf414610abd578063eef573be14610a4e578063ef36f7dc14610a33578063ef93be2d14610a17578063f0400505146109fa578063f2fde38b14610935578063f30afd8e14610919578063f3ae2415146108dc578063f7c618c1146108b4578063f837becd14610897578063f8a2bf761461082f578063fb1c74a7146107ec578063fb6e4bb4146107d1578063fd6e38d5146107a9578063fd72e22a1461077f5763fd967f471461075f575f80fd5b3461077b575f36600319011261077b5760206040516127108152f35b5f80fd5b3461077b575f36600319011261077b576012546040805191901c6001600160a01b03168152602090f35b3461077b575f36600319011261077b576008546040516001600160a01b039091168152602090f35b3461077b575f36600319011261077b576020604051600c8152f35b3461077b575f36600319011261077b576108046148cc565b604061080e614548565b015115610820575f600a819055600b55005b6366f7214b60e01b5f5260045ffd5b3461077b575f36600319011261077b576108476148cc565b6003546108619060a01c6001600160401b03161515614325565b600380546001600160e01b03191690557fb205cbeedf25e8cb84969b0360670dbfab45d5996607417b83db531a77fa23165f80a1005b3461077b575f36600319011261077b576020601754604051908152f35b3461077b575f36600319011261077b576006546040516001600160a01b039091168152602090f35b3461077b57602036600319011261077b576001600160a01b036108fd613937565b165f526009602052602060ff60405f2054166040519015158152f35b3461077b575f36600319011261077b576020604051611f408152f35b3461077b57602036600319011261077b5761094e613937565b6109566148cc565b6001600160a01b031661096a8115156140cb565b600180546001600160a01b031916821790554262093a8081019081106109e65760028054600160a01b600160e01b03191660a09290921b600160a01b600160e01b03169190911790555f80546001600160a01b0316907f38d16b8cac22d99fc7c124b9cd0de2d3fa1faef420bfe791d8c362d765e227009080a3005b634e487b7160e01b5f52601160045260245ffd5b3461077b575f36600319011261077b576020601b54604051908152f35b3461077b575f36600319011261077b5760206040516109c48152f35b3461077b575f36600319011261077b57602060405160058152f35b3461077b57602036600319011261077b57610a67613937565b335f52600960205260ff60405f2054161580610aa9575b610a9a57610a9390610a8e614915565b6145bc565b6001600455005b635b9938e160e11b5f5260045ffd5b505f546001600160a01b0316331415610a7e565b3461077b575f36600319011261077b57610ad56148cc565b610add61436e565b6060810180511561082057514210610b1a57610b18905f600c555f600d5561ffff8151169061ffff6040816020840151169201511691614fa7565b005b6359fbf6f160e01b5f5260045ffd5b3461077b57602036600319011261077b57610b42613937565b610b4a6148cc565b6001600160a01b03168015610bce576202a30042018042116109e65760207fecb20c3afe01dfd06ea97c213eceb13e178eb582eccf8dc00aad75b20fd3bc6091604051610b9681613ab8565b84815282810182905251601080546001600160a01b0319166001600160a01b03929092169190911790556011819055604051908152a2005b63ef85f47d60e01b5f5260045ffd5b3461077b57610beb366139cf565b50505050633cbcb2d960e21b5f5260045ffd5b3461077b575f36600319011261077b5760206040516117708152f35b3461077b575f36600319011261077b57602061ffff60385460501c16604051908152f35b3461077b575f36600319011261077b57610c566148cc565b6020610c6061414d565b015115610820575f600e819055600f55005b3461077b575f36600319011261077b57602060405160198152f35b3461077b575f36600319011261077b57610ca56148cc565b610cad614128565b6020810180511561082057514210610b1a57601280549151600160401b600160e01b03198316604082811b600160401b600160e01b0316919091179092555f601081905560118190556001600160a01b039182169390921c16907f086aa05ff00214e2d0c7c02b8a46b2614ad955732e6b43aa8afca69ed1ad76f89080a3005b3461077b575f36600319011261077b576001546040516001600160a01b039091168152602090f35b613a83565b3461077b57602036600319011261077b57610d73613937565b610d7b6148cc565b6001600160a01b03168015610bce57600780546001600160a01b0319811683179091556001600160a01b03167fa0a9d6ecb76ebc110016cc8177e79af5c57330922a027f736c9c357fecbfaf7e5f80a3005b3461077b575f36600319011261077b576020601c54604051908152f35b3461077b575f36600319011261077b57602060405160648152f35b3461077b575f36600319011261077b57602060405160038152f35b3461077b575f36600319011261077b576020604154604051908152f35b3461077b575f36600319011261077b57602060405162278d008152f35b3461077b575f36600319011261077b576020603654604051908152f35b3461077b57602036600319011261077b576001600160a01b03610e98613937565b165f526033602052602060405f2054604051908152f35b612173565b3461077b57608036600319011261077b577fbfdeb4ffa57e90852e92d02f519213dd5c13d6ea9521f7ec1669aca4704685736080610ef0613a59565b6024359060443560643591610f036148cc565b15159260345461ff008560081b169061ff00191617603455806035558160365582603755604051938452602084015260408301526060820152a1005b3461077b575f36600319011261077b57600e54600f54604051918291610f6e916001600160a01b031683613a68565b0390f35b3461077b57602036600319011261077b576004355f526021602052602060ff60405f2054166040519015158152f35b3461077b575f36600319011261077b57610fb96148cc565b610fc1614548565b6040810180511561082057514210610b1a575f600a819055600b558051602090910151610b1891901515906001600160a01b03166155f8565b3461077b575f36600319011261077b57602061ffff60125460301c16604051908152f35b3461077b575f36600319011261077b576020604554604051908152f35b3461077b575f36600319011261077b57602060405160048152f35b3461077b575f36600319011261077b57602061ffff60315460a81c16604051908152f35b3461077b57604036600319011261077b57611093613937565b61109b613921565b335f52600960205260ff60405f20541615806110bf575b610a9a57610b189161444c565b505f546001600160a01b03163314156110b2565b3461077b575f36600319011261077b576030546040516001600160a01b039091168152602090f35b3461077b575f36600319011261077b576020602754604051908152f35b3461077b57602036600319011261077b576004356111346148cc565b610e10811061114c576276a700811161114c57601455005b633b49546d60e21b5f5260045ffd5b3461077b575f36600319011261077b57602060405160018152f35b3461077b575f36600319011261077b57602060ff60315460a01c166040519015158152f35b3461077b57604036600319011261077b576111b4613937565b60243590335f52600960205260ff60405f20541615806112ff575b610a9a576111db614915565b6001600160a01b03168015610bce578115610bce575f8060405160208101906323b872dd60e01b825233602482015230604482015285606482015260648152611225608482613b09565b519082855af1611233614958565b816112d0575b501561128b57805f52603360205260405f20611256838254613aab565b90556040519182527f3ff94fc63d95f618e2115657467772a3ec6b680b6b87664b095cb8f5638d0cff60203393a36001600455005b60405162461bcd60e51b815260206004820152601e60248201527f5361666545524332303a207472616e7366657246726f6d206661696c656400006044820152606490fd5b80518015925082156112e5575b505083611239565b6112f89250602080918301019101614987565b83806112dd565b505f546001600160a01b03163314156111cf565b3461077b57602036600319011261077b576001600160a01b03611334613937565b165f52602f602052602060ff60405f2054166040519015158152f35b3461077b57604036600319011261077b57611369613921565b6004355f52603d60205260405f209060018060a01b03165f52602052602060ff60405f205416604051908152f35b3461077b575f36600319011261077b57602060ff60345460081c166040519015158152f35b3461077b57602036600319011261077b576004356113d86148cc565b8015610bce576020817fe09f5f758559fedc6b0e8cbb80646fa8a2da9416bc155a8cb28e05102a88fd0492603255604051908152a1005b3461077b5761141d36613963565b905f52601f60205260405f20805482101561077b5760209161143e91613979565b905460405160039290921b1c6001600160a01b03168152f35b3461077b575f36600319011261077b57602060405162093a808152f35b3461077b575f36600319011261077b576020601554604051908152f35b3461077b575f36600319011261077b576020603b54604051908152f35b3461077b575f36600319011261077b576020604954604051908152f35b3461077b575f36600319011261077b57335f52600960205260ff60405f20541615806114fe575b610a9a57610b18615740565b505f546001600160a01b03163314156114f2565b3461077b575f36600319011261077b576020603e54604051908152f35b3461077b57604036600319011261077b57611548613937565b602435801515810361077b57610b18916115606148cc565b6143a5565b3461077b575f36600319011261077b576020601954604051908152f35b3461077b575f36600319011261077b5761159a6148cc565b60606115a461436e565b015115610820575f600c819055600d55005b3461077b575f36600319011261077b576003546040516001600160a01b039091168152602090f35b3461077b57602036600319011261077b576004356115fa6148cc565b805f52604760205260405f20600381019081549060ff82166116745760ff8260081c166116665761163d9261010060019361ff0019161790550154604954613a9e565b6049557fc25927a40d50ab2ae053ddebccbcbd7f606855406d91ed39ffcc28c07abbd0cc5f80a2005b62ecd9c160e71b5f5260045ffd5b630b0931db60e01b5f5260045ffd5b3461077b575f36600319011261077b57600a54600b54604080516001600160a01b038416815260a09390931c60ff1615156020840152820152606090f35b3461077b575f36600319011261077b576116d96148cc565b60035460a081901c6001600160401b03166116f5811515614325565b421061175357600280546001600160a01b039283166001600160a01b031982168117909255600380546001600160e01b03191690559091167f2e8141caf5e7501960d8d6012fe36a5ab7838a62d75e6792901cee89ab8001965f80a3005b60405162461bcd60e51b81526020600482015260146024820152734f574e3a2074696d656c6f636b2061637469766560601b6044820152606490fd5b3461077b575f36600319011261077b576020603f54604051908152f35b3461077b57602036600319011261077b576004355f52604760205260a060405f2060ff600180841b03825416916001810154906003600282015491015491604051948552602085015260408401528181161515606084015260081c1615156080820152f35b3461077b57602036600319011261077b576001600160a01b03611832613937565b165f52602d602052602060018060a01b0360405f205416604051908152f35b3461077b575f36600319011261077b576020601354604051908152f35b3461077b575f36600319011261077b575f546040516001600160a01b039091168152602090f35b3461077b575f36600319011261077b576020603254604051908152f35b3461077b575f36600319011261077b576118ca6148cc565b6118d261414d565b6020810180511561082057514210610b1a575f600e819055600f5551610b18906001600160a01b03166154e7565b3461077b57602036600319011261077b57611919613937565b6119216148cc565b6001600160a01b03168015610bce5760155415801590611994575b8015611989575b801561197e575b61114c57600680546001600160a01b0319811683179091556001600160a01b03165f516020615d655f395f51905f525f80a3005b50601854151561194a565b506017541515611943565b50601654151561193c565b3461077b57604036600319011261077b576119b8613937565b6119c0613921565b906119c96148cc565b6119d1614915565b6001600160a01b0316908115610bce576006546001600160a01b03169082821461114c576119fd614a29565b611a24611a1b611a1260155460165490613aab565b60175490613aab565b60185490613aab565b6040516370a0823160e01b8152306004820152602081602481885afa908115611b0f575f91611b2e575b5010611b1f576001600160a01b038116611b1a57505f546001600160a01b03165b6040516370a0823160e01b8152306004820152602081602481865afa908115611b0f575f91611add575b5080611acc575b5050600680546001600160a01b031916831790555f516020615d655f395f51905f525f80a36001600455005b611ad6918361499f565b8280611aa0565b90506020813d602011611b07575b81611af860209383613b09565b8101031261077b575184611a99565b3d9150611aeb565b6040513d5f823e3d90fd5b611a6f565b63584d195b60e01b5f5260045ffd5b90506020813d602011611b58575b81611b4960209383613b09565b8101031261077b575185611a4e565b3d9150611b3c565b3461077b57602036600319011261077b57611b79613937565b335f52600960205260ff60405f2054161580611ba5575b610a9a57610a9390611ba0614915565b614172565b505f546001600160a01b0316331415611b90565b3461077b57602036600319011261077b576001600160a01b03611bda613937565b165f526023602052602060405f2054604051908152f35b3461077b575f36600319011261077b57611c096148cc565b6020611c13614128565b015115610820575f6010819055601155005b3461077b575f36600319011261077b576020604654604051908152f35b610e05565b3461077b57602036600319011261077b57611c60613a15565b611c686148cc565b61ffff81166101f4811061114c5761213410611d5757611c8781613ed5565b906012549161ffff8316906101f48210611d485761ffff8460101c166101f48110611d395761ffff8560201c166101f48110611d2a57611cd561ffff9291611cd0849387613ebf565b613ebf565b921691160361114c57611d255f516020615ce55f395f51905f529361ffff60301b8460301b169061ffff60301b191617928360125560405193849361ffff808360201c169260101c169085614103565b0390a1005b6332876ed560e21b5f5260045ffd5b639fa2cd4760e01b5f5260045ffd5b6303e31cbd60e41b5f5260045ffd5b6333d62e4160e11b5f5260045ffd5b3461077b57604036600319011261077b57611d7f613921565b6004355f52601e60205260405f209060018060a01b03165f52602052602061ffff60405f205416604051908152f35b3461077b57602036600319011261077b57611dc7613937565b600254906001600160a01b0382163303611e39576001600160a01b0316611def8115156140cb565b5f548160018060a01b0382165f516020615d455f395f51905f525f80a36001600160a01b0319908116919091175f55600180549091169055600160a01b600160e01b031916600255005b60405162461bcd60e51b815260206004820152601d60248201527f4f574e3a206e6f7420656d657267656e637920636f6e74726f6c6c65720000006044820152606490fd5b3461077b575f36600319011261077b576002546040516001600160a01b039091168152602090f35b3461077b575f36600319011261077b576001546001600160a01b0381163303611f61576002549060a082901c6001600160401b03164211611f24575f543360018060a01b0382165f516020615d455f395f51905f525f80a36001600160a01b031990811633175f5516600155600160a01b600160e01b031916600255005b60405162461bcd60e51b815260206004820152601560248201527413d5d38e881d1c985b9cd9995c88195e1c1a5c9959605a1b6044820152606490fd5b60405162461bcd60e51b815260206004820152601660248201527527aba71d103737ba103832b73234b7339037bbb732b960511b6044820152606490fd5b3461077b5761010036600319011261077b57611fb9613a15565b611fc1613a26565b90611fca613a37565b611fd2613a48565b9060843560a43560c4359160e43593611fe96148cc565b61ffff871695861561114c5761ffff89168088101561114c5761ffff8316918282101561114c5761ffff8116938484101561114c577fefcf72d1c840867b1502ffe261075af70210e7f94b18b3abb607f7f995affe7b9b6101009b6038549361ffff60601b9060601b169361ffff60601b199161ffff60301b9060301b169065ffffffffffff60301b191617169061ffff60401b9060401b16179061ffff60501b9060501b1617176038558360395584603a5585603b5586603c55604051978852602088015260408701526060860152608085015260a084015260c083015260e0820152a1005b3461077b575f36600319011261077b576020601654604051908152f35b3461077b575f36600319011261077b576020603954604051908152f35b3461077b575f36600319011261077b576020603c54604051908152f35b3461077b575f36600319011261077b57602061ffff60125460101c16604051908152f35b3461077b575f36600319011261077b576005546040516001600160a01b039091168152602090f35b3461077b575f36600319011261077b5760206040516202a3008152f35b3461077b575f36600319011261077b576121a86148cc565b60405162461bcd60e51b815260206004820152601660248201527513d5d38e881c995b9bdd5b98d948191a5cd8589b195960521b6044820152606490fd5b3461077b575f36600319011261077b57602061ffff60385460301c16604051908152f35b3461077b57602036600319011261077b576004356001600160401b03811161077b5761223a9036906004016139a2565b50505f601a5462278d0081018091116109e65742101580612345575b61233d575b601b5462278d0081018091116109e657421015612335575b6026549060255491826276a70002926276a7008404036109e65760ff9261229991613aab565b42101561232d575b60125460401c6001600160a01b0316151580612315575b61230d575b1660606040519160208301818152602084526122da604085613b09565b60405193849215158352604060208401525180918160408501528484015e5f828201840152601f01601f19168101030190f35b6008176122bd565b5061232560135460145490613aab565b4210156122b8565b6004176122a1565b600217612273565b50600161225b565b506008546001600160a01b03161515612256565b3461077b57602036600319011261077b57612372613937565b61237a6148cc565b6001600160a01b031680156124585760035460a081901c6001600160401b031661241357426001600160401b039081166202a300019081116109e6576001600160e01b0319909116821760a091821b600160a01b600160e01b0316176003819055604051911c6001600160401b031681527f139c5347770995c23b1e768308632d39bb6806801a98cf7d64e68feb4092c06390602090a2005b60405162461bcd60e51b815260206004820152601e60248201527f4f574e3a2070656e64696e6720636f6e74726f6c6c65722065786973747300006044820152606490fd5b60405162461bcd60e51b815260206004820152601460248201527327aba71d103d32b9379031b7b73a3937b63632b960611b6044820152606490fd5b3461077b57602036600319011261077b576004356124b06148cc565b801580156124c2575b61114c57604855005b5061138881116124b9565b3461077b575f36600319011261077b57602061ffff603854821c16604051908152f35b3461077b57602036600319011261077b576004355f5260208052602060405f2054604051908152f35b3461077b575f36600319011261077b57602060405161251c8152f35b3461077b575f36600319011261077b576031546040516001600160a01b039091168152602090f35b3461077b5761256b366139cf565b5050335f52600960205260ff60405f205416158061262c575b610a9a57612590614915565b6001600160a01b038216158015612624575b610bce576125ae614a29565b8060185410611b1f576125bf615545565b6127106125cd604454613d6b565b0491604554926125dd8385613aab565b11612615576125ef82610a9394613aab565b6045556125fe82601854613a9e565b60185561260d82604254613aab565b6042556155bf565b63035396b760e21b5f5260045ffd5b5080156125a2565b505f546001600160a01b0316331415612584565b3461077b57602036600319011261077b57610b1861265c613937565b6126646148cc565b61403b565b3461077b57604036600319011261077b576024356001600160401b03811161077b576126999036906004016139a2565b5050633cbcb2d960e21b5f5260045ffd5b3461077b575f36600319011261077b57335f52600960205260ff60405f20541615806126ed575b610a9a576126dd614915565b6126e56152c9565b506001600455005b505f546001600160a01b03163314156126d1565b3461077b57606036600319011261077b57610b1861271d613a15565b612725613a26565b61272d613a37565b916127366148cc565b613ee9565b3461077b575f36600319011261077b576020604354604051908152f35b3461077b575f36600319011261077b576020603a54604051908152f35b3461077b57604036600319011261077b5761278e613937565b612796613921565b335f52600960205260ff60405f20541615806127ba575b610a9a57610b1891613dc2565b505f546001600160a01b03163314156127ad565b3461077b575f36600319011261077b576020604454604051908152f35b3461077b575f36600319011261077b57602061ffff601254821c16604051908152f35b3461077b57606036600319011261077b5761282761394d565b6004355f52602b60205260405f206024355f5260205260405f209060018060a01b03165f52602052602060ff60405f2054166040519015158152f35b3461077b575f36600319011261077b576020601454604051908152f35b3461077b575f36600319011261077b57601054601154604051918291610f6e916001600160a01b031683613a68565b3461077b575f36600319011261077b576020603754604051908152f35b3461077b57608036600319011261077b576128e5613937565b6128ed613921565b60443580151580820361077b57612902613a48565b9361290b6148cc565b61ffff8516926101f4841161114c576129bb575b603080546001600160a01b0319166001600160a01b039283169081179091556031805460a085901b60ff60a01b166001600160b81b0319909116939096169283179590951760a89690961b61ffff60a81b16959095179093556040805194855260208501939093529183019190915260608201527f95b784d98b7cf9e7b3512e888709fdfefe1022d33761dfcb612cb691a9e6abf890608090a1005b9291906001600160a01b03841615610bce576001600160a01b03831615610bce576032541561114c5790919261291f565b3461077b57602036600319011261077b576004356001600160401b03811161077b57612a1c9036906004016139a2565b612a24614915565b600f9080612a91575b506008915060018116612a83575b60028116612a75575b60048116612a67575b16612a59576001600455005b612a61614ec7565b50610a93565b612a6f615653565b50612a4d565b612a7d614843565b50612a44565b612a8b615057565b50612a3b565b6020915082908101031261077b573560ff8116810361077b5760089082612a2d565b3461077b57602036600319011261077b57612acc613a59565b80612ad56148cc565b612b18575b60207f8aaec9c6f83c2d2024db1f9c26af2a14965949f60bd3d09a6216b9d89f35963491151560ff196034541660ff821617603455604051908152a1005b6031546001600160a01b038116801591908215612b46575b505015612ada57633b49546d60e21b5f5260045ffd5b9091505f52603360205260405f2054159081612b65575b508280612b30565b60ff915060a01c161582612b5d565b3461077b57612b82366139cf565b929092335f52600960205260ff60405f2054161580612c27575b610a9a57612ba8614915565b6001600160a01b038216158015612c1f575b610bce57612bc6614a29565b612bd960165461ffff6038541690614be0565b8311611b1f57610a9393612c0c91612bf385601654613a9e565b601655612c0285603f54613aab565b603f553691613b47565b506031546001600160a01b0316906157f2565b508215612bba565b505f546001600160a01b0316331415612b9c565b3461077b575f36600319011261077b5760206040516121348152f35b3461077b575f36600319011261077b57612c6f6148cc565b612c77614915565b6126e5614de2565b3461077b57606036600319011261077b57612c98613a15565b612ca0613a26565b61ffff612cab613a37565b92612cb46148cc565b166123288111611d575761ffff82166123288111611d575761ffff84169081158015612d41575b61114c577f26bfc46e4e1ed97eb6c8f39ca1168d1c0391ebdaf7ee98a6d0791c857c2e8f6e9460609463ffff0000856038549361ffff60201b9060201b169365ffffffffffff1916179160101b16171760385560405192835260208301526040820152a1005b506113888211612cdb565b3461077b57612d5a36613963565b905f52602c60205260405f20905f52602052602060ff60405f2054166040519015158152f35b3461077b57602036600319011261077b576001600160a01b03612da1613937565b165f52602e602052602060018060a01b0360405f205416604051908152f35b3461077b57604036600319011261077b57612dd9613937565b60243590612de56148cc565b6001600160a01b0381168015610bce578215610bce576006546040516370a0823160e01b815230600482015290602090829060249082906001600160a01b03165afa908115611b0f575f91612f75575b50612710612e52612e4860495487613aab565b9260485490613d83565b0410611d5757612e63604654613db4565b604681905560405193909260a0850191906001600160401b03831186841017612f615760409283529285526020808601828152428785019081525f6060890181815260808a018281528983526047865296909120985189546001600160a01b039091166001600160a01b031990911617895591516001890155516002880155516003909601805460ff191696151560ff169690961786559484937f4270d36c10eeecefc724efcd994c9d273660fcf9beb749ca205d6dcc6fe5e2be9390919051151561ff0082549160081b169061ff001916179055612f4482604954613aab565b604955612f5660405192839283613a68565b0390a2604051908152f35b634e487b7160e01b5f52604160045260245ffd5b90506020813d602011612f9f575b81612f9060209383613b09565b8101031261077b575184612e35565b3d9150612f83565b3461077b57604036600319011261077b57612fc0613921565b6004355f52602860205260405f209060018060a01b03165f52602052602061ffff60405f205416604051908152f35b3461077b575f36600319011261077b57335f52600960205260ff60405f2054161580613032575b80613028575b610a9a57610b18614a29565b503033141561301c565b505f546001600160a01b0316331415613016565b3461077b575f36600319011261077b576020601a54604051908152f35b3461077b575f36600319011261077b576007546040516001600160a01b039091168152602090f35b3461077b575f36600319011261077b57602061ffff60385460401c16604051908152f35b3461077b575f36600319011261077b5760206040516101f48152f35b3461077b575f36600319011261077b57602060405160028152f35b3461077b575f36600319011261077b576130fe6148cc565b600180546001600160a01b031916905560028054600160a01b600160e01b0319169055005b3461077b57602036600319011261077b5760043561313f6148cc565b613147614915565b805f52604760205260405f20600381019081549160ff83166116745760ff8360081c166116665760028201546202a30081018091116109e657421061320b5760017f83ddacb169e140af5f24cc0352129d755797bfced4f17086308bdf6ab6f2da2e9360ff191617905560018101906131c38254604954613a9e565b604955600654815483546131e59290916001600160a01b03908116911661499f565b549054604051918291613201916001600160a01b031683613a68565b0390a26001600455005b6377177e4d60e01b5f5260045ffd5b3461077b575f36600319011261077b5760035460405160a09190911c6001600160401b03168152602090f35b3461077b5761325436613963565b905f52602a60205260405f20905f52602052602060405f2054604051908152f35b3461077b57602036600319011261077b5761328e613937565b335f52600960205260ff60405f20541615806132ba575b610a9a57610a93906132b5614915565b613b97565b505f546001600160a01b03163314156132a5565b3461077b575f36600319011261077b57602061ffff60125416604051908152f35b3461077b576132fd366139cf565b929092335f52600960205260ff60405f2054161580613392575b610a9a57613323614915565b6001600160a01b03821615801561338a575b610bce57613341614a29565b61335760175461ffff60385460101c1690614be0565b8311611b1f57610a9393612c0c9161337185601754613a9e565b60175561338085604054613aab565b6040553691613b47565b508215613335565b505f546001600160a01b0316331415613317565b3461077b575f36600319011261077b576020604854604051908152f35b3461077b575f36600319011261077b576020604054604051908152f35b3461077b57602036600319011261077b57600435335f52600960205260ff60405f2054161580613536575b610a9a578015610bce5761341d614a29565b601854818110611b1f578161343191613a9e565b60185561344081604154613aab565b6041555f8060018060a01b036006541660405182602082019163a9059cbb60e01b835261dead602482015286604482015260448152613480606482613b09565b51925af161348c614958565b81613507575b50156134c55760207fe2a0d56d128408deff6c63b30ce69c78024280bc67a251ee2bb096dc08ff1c1e91604051908152a1005b60405162461bcd60e51b815260206004820152601a60248201527914d85999515490cc8c0e881d1c985b9cd9995c8819985a5b195960321b6044820152606490fd5b805180159250821561351c575b505082613492565b61352f9250602080918301019101614987565b8280613514565b505f546001600160a01b031633141561340b565b3461077b575f36600319011261077b57602061ffff60385460101c16604051908152f35b3461077b575f36600319011261077b5760025460405160a09190911c6001600160401b03168152602090f35b3461077b575f36600319011261077b57602061ffff60385416604051908152f35b3461077b575f36600319011261077b576020602554604051908152f35b3461077b57604036600319011261077b576135f1613921565b6004355f52602260205260405f209060018060a01b03165f52602052602060ff60405f2054166040519015158152f35b3461077b575f36600319011261077b576020604254604051908152f35b3461077b575f36600319011261077b576020603554604051908152f35b3461077b57606036600319011261077b57613674613937565b6024359061368061394d565b906136896148cc565b613691614915565b6001600160a01b03169081158015613729575b610bce5782158015613714575b611b1f5760207f475000a3d2b4f7dfd1049a8c0420b23fe737ba95a644c5adcd09d3189079c3bb91835f526033825260405f206136ef868254613a9e565b90556136fc85828661499f565b6040519485526001600160a01b031693a36001600455005b50815f52603360205260405f205483116136b1565b506001600160a01b038116156136a4565b3461077b575f36600319011261077b57602060405160148152f35b3461077b575f36600319011261077b57602061ffff60385460601c16604051908152f35b3461077b575f36600319011261077b576020602454604051908152f35b3461077b575f36600319011261077b576020602654604051908152f35b3461077b575f36600319011261077b576020601854604051908152f35b3461077b576137de36613963565b905f52602960205260405f20805482101561077b5760209161143e91613979565b3461077b575f36600319011261077b5760206040516123288152f35b3461077b575f36600319011261077b576080600c54600d5461ffff604051928181168452818160101c16602085015260201c1660408301526060820152f35b3461077b57604036600319011261077b57613873613921565b6004355f52601d60205260405f209060018060a01b03165f52602052602060405f2054604051908152f35b3461077b575f36600319011261077b5760206040516276a7008152f35b3461077b575f36600319011261077b57335f52600960205260ff60405f20541615806138ee575b610a9a57610b186147aa565b505f546001600160a01b03163314156138e2565b3461077b575f36600319011261077b5760209060ff6034541615158152f35b602435906001600160a01b038216820361077b57565b600435906001600160a01b038216820361077b57565b604435906001600160a01b038216820361077b57565b604090600319011261077b576004359060243590565b805482101561398e575f5260205f2001905f90565b634e487b7160e01b5f52603260045260245ffd5b9181601f8401121561077b578235916001600160401b03831161077b576020838186019501011161077b57565b606060031982011261077b576004356001600160a01b038116810361077b579160243591604435906001600160401b03821161077b57613a11916004016139a2565b9091565b6004359061ffff8216820361077b57565b6024359061ffff8216820361077b57565b6044359061ffff8216820361077b57565b6064359061ffff8216820361077b57565b60043590811515820361077b57565b6001600160a01b039091168152602081019190915260400190565b3461077b575f36600319011261077b57602060405160c88152f35b919082039182116109e657565b919082018092116109e657565b604081019081106001600160401b03821117612f6157604052565b608081019081106001600160401b03821117612f6157604052565b606081019081106001600160401b03821117612f6157604052565b601f909101601f19168101906001600160401b03821190821017612f6157604052565b6001600160401b038111612f6157601f01601f191660200190565b929192613b5382613b2c565b91613b616040519384613b09565b82948184528183011161077b578281602093845f960137010152565b9081602091031261077b575161ffff8116810361077b5790565b6001600160a01b039081165f818152602e60205260409020549091168015613d3857815f52602f60205260ff60405f205416613d3857600754604051630d47875d60e41b81526004810183905290602090829060249082906001600160a01b03165afa908115611b0f576117709161ffff915f91613d3c575b501610613d3857815f52602f60205260405f20600160ff1982541617905560245491825f52602860205260405f2060018060a01b0383165f5260205261ffff60405f20541615613cf7575b613cf492506024545f52602860205260405f2060018060a01b0383165f5260205260405f2061ffff613c91600182845416613ebf565b1661ffff19825416179055815f516020615d055f395f51905f52604080515f815260016020820152a360375460405191613ccc604084613b09565b60168352751d995c9a599a595917dd5cd95c97dc9959995c9c985b60521b6020840152614c5b565b50565b825f52602960205260c860405f20541015613d2957613cf4925f526029602052613d248260405f2061457b565b613c5b565b63387f421f60e11b5f5260045ffd5b5050565b613d5e915060203d602011613d64575b613d568183613b09565b810190613b7d565b5f613c10565b503d613d4c565b906109c48202918083046109c414901517156109e657565b818102929181159184041417156109e657565b8115613da0570490565b634e487b7160e01b5f52601260045260245ffd5b5f1981146109e65760010190565b6001600160a01b039091169081158015613ead575b613d38576001600160a01b039081165f818152602d6020526040902054909116613d3857805f52602f60205260ff60405f205416613d3857600754604051630d47875d60e41b81526004810184905290602090829060249082906001600160a01b03165afa908115611b0f576117709161ffff915f91613e8e575b501610613d3857805f52602d60205260405f208260018060a01b03198254161790555f516020615d855f395f51905f52602060405160018152a3565b613ea7915060203d602011613d6457613d568183613b09565b5f613e52565b506001600160a01b0381168214613dd7565b9061ffff8091169116019061ffff82116109e657565b61ffff16612710039061ffff82116109e657565b9190613ef982611cd08386613ebf565b61271061ffff82161161114c5761ffff8416916101f48310611d485761ffff8116946101f48610611d395761ffff8516926101f48410611d2a5761ffff613f426101f492613ed5565b161061114c575f546001600160a01b03163b61402b57613f6985611cd084613f6e94613ebf565b613ed5565b6202a3004201928342116109e6577f500d1f4d0fbf9bbc2229edcd21402a05c7dc56c94d710bdd0289ae1b7b161ae09660a09661ffff94866060604051613fb481613ad3565b8a81528560208201528660408201520152878619600c541617600c5563ffff000080600c549260101b16169063ffff0000191617600c55600c54908560201b908660201b9060201b1616908560201b191617600c5584600d55604051958652602086015260408501521660608301526080820152a1565b915091506140399350614fa7565b565b5f546001600160a01b03163b6140c2576202a30042018042116109e65760207f439b001463c0a2aafeaf58758ee2d3d00d758453cb4745350300cc11cc72871c916040519361408985613ab8565b6001600160a01b039081168086528386018390529451600e80546001600160a01b03191691909216179055600f819055604051908152a2565b614039906154e7565b156140d257565b60405162461bcd60e51b81526020600482015260096024820152684f574e3a207a65726f60b81b6044820152606490fd5b61ffff9182168152918116602083015291821660408201529116606082015260800190565b6040519061413582613ab8565b6010546001600160a01b031682526011546020830152565b6040519061415a82613ab8565b600e546001600160a01b03168252600f546020830152565b6001600160a01b039081165f818152602d60205260409020549091168015613d3857815f52602f60205260ff60405f205416613d3857600754604051630d47875d60e41b81526004810183905290602090829060249082906001600160a01b03165afa908115611b0f576117709161ffff915f91614306575b501610613d3857815f52602f60205260405f20600160ff1982541617905560245491825f52602860205260405f2060018060a01b0383165f5260205261ffff60405f205416156142d4575b613cf492506024545f52602860205260405f2060018060a01b0383165f5260205260405f2061ffff61426c600382845416613ebf565b1661ffff19825416179055815f516020615d055f395f51905f52604080516001815260036020820152a3603654604051916142a8604084613b09565b601a8352791d995c9a599a595917db595c98da185b9d17dc9959995c9c985b60321b6020840152614c5b565b825f52602960205260c860405f20541015613d2957613cf4925f5260296020526143018260405f2061457b565b614236565b61431f915060203d602011613d6457613d568183613b09565b5f6141eb565b1561432c57565b60405162461bcd60e51b815260206004820152601a60248201527927aba71d103737903832b73234b7339031b7b73a3937b63632b960311b6044820152606490fd5b6040519061437b82613ad3565b8161ffff600c548181168352818160101c16602084015260201c1660408201526060600d54910152565b5f546001600160a01b03163b614442576202a30042018042116109e6577f2ec01c9a60bea6edda317e12bfdc6ba0b291256f7d2cd47f4bd192b350507d2a9181604092838051936143f585613aee565b6001600160a01b031680855296151560208086018290529190940191909152600a80546001600160a81b031916871760a085901b60ff60a01b16179055600b8290558351928352820152a2565b90614039916155f8565b6001600160a01b03169081158015614536575b613d38576001600160a01b039081165f818152602e6020526040902054909116613d3857805f52602f60205260ff60405f205416613d3857600754604051630d47875d60e41b81526004810184905290602090829060249082906001600160a01b03165afa908115611b0f576117709161ffff915f91614517575b501610613d38575f818152602e6020908152604080832080546001600160a01b03191686179055519182525f516020615d855f395f51905f5291a3565b614530915060203d602011613d6457613d568183613b09565b5f6144da565b506001600160a01b038116821461445f565b6040519061455582613aee565b600a546001600160a01b038116835260a01c60ff1615156020830152600b546040830152565b8054600160401b811015612f615761459891600182018155613979565b81546001600160a01b0393841660039290921b91821b9390911b1916919091179055565b600754604051630d47875d60e41b81526001600160a01b038381166004830152909160209183916024918391165afa908115611b0f575f9161478b575b5061ffff6040519163f5746c6f60e01b835216600482015260208160248173__$528c230e67c3aef7ac360ce784e0a08869$__5af48015611b0f5761ffff915f9161476c575b5016908115613d3857601c5491825f52601d60205260405f2060018060a01b0383165f5260205260405f205415614739575b613cf49250601c545f52601d60205260405f2060018060a01b0383165f5260205260405f206146a08154613db4565b9055601c54805f52601e60205260405f2060018060a01b0384165f5260205261ffff60405f205416821161470a575b5050603554604051916146e3604084613b09565b60158352740e2eac2d8d2ccd2cac8bedacae4c6d0c2dce8bee8f605b1b6020840152614d29565b5f52601e60205260405f2060018060a01b0383165f5260205260405f209061ffff198254161790555f806146cf565b825f52601f6020526101f460405f20541015613d2957613cf4925f52601f6020526147678260405f2061457b565b614671565b614785915060203d602011613d6457613d568183613b09565b5f61463f565b6147a4915060203d602011613d6457613d568183613b09565b5f6145f9565b601b5462278d0081018091116109e6574210614834576147c8614a29565b601654601c545f526020805260405f2055601c545f52602160205260405f20600160ff198254161790555f60165561482c601c54805f52602080525f516020615d255f395f51905f526040805f20548151908482526020820152a142601b55613db4565b601c55600190565b634eb526c760e01b5f5260045ffd5b5f601b5462278d0081018091116109e65742106148c75761482c90614866614a29565b601654601c548252602080526040822055601c548152602160205260408120600160ff19825416179055806016555f516020615d255f395f51905f52604080601c54938481526020805220548151908482526020820152a142601b55613db4565b505f90565b5f546001600160a01b031633036148df57565b60405162461bcd60e51b815260206004820152600e60248201526d27aba71d103737ba1037bbb732b960911b6044820152606490fd5b600160045403614926576002600455565b60405162461bcd60e51b815260206004820152600a6024820152697265656e7472616e637960b01b6044820152606490fd5b3d15614982573d9061496982613b2c565b916149776040519384613b09565b82523d5f602084013e565b606090565b9081602091031261077b5751801515810361077b5790565b5f9291836149c96149d78295604051928391602083019663a9059cbb60e01b885260248401613a68565b03601f198101835282613b09565b51926001600160a01b03165af16149ec614958565b816149fa575b50156134c557565b8051801592508215614a0f575b50505f6149f2565b614a229250602080918301019101614987565b5f80614a07565b6006546040516370a0823160e01b815230600482015290602090829060249082906001600160a01b03165afa908115611b0f575f91614bae575b5060155460165490614a758282613aab565b90614a836017548093613aab565b93614a916018548096613aab565b80821115614ba557614aa291613a9e565b925b83614ab1575b5050505050565b614b6994614b5e9360125490612710614ace61ffff841689613d83565b0493612710614ae461ffff8560101c168a613d83565b0490612710614b0c61ffff82614b008d838a60201c1690613d83565b049660301c168b613d83565b049586614b2681614b2188614b218887613aab565b613aab565b8b808210614b76575b50505090614b46614b4e9392614b56979899613aab565b601555613aab565b601655613aab565b601755613aab565b601855601954613aab565b6019555f80808080614aaa565b614b56989950614b4692614b93614b4e97969593614b9993613a9e565b90613aab565b9897509192938b614b2f565b50505f92614aa4565b90506020813d602011614bd8575b81614bc960209383613b09565b8101031261077b57515f614a63565b3d9150614bbc565b9061ffff90604051926322c3b63d60e01b8452600484015216602482015260208160448173__$528c230e67c3aef7ac360ce784e0a08869$__5af4908115611b0f575f91614c2c575090565b90506020813d602011614c53575b81614c4760209383613b09565b8101031261077b575190565b3d9150614c3a565b915060ff60345460081c16158015614d18575b8015614d10575b614d0a57614c81614a29565b614c9760175461ffff60385460101c1690614be0565b9160175492612710614cb261ffff60385460201c1686613d83565b04908311908115614d00575b50614cf957614cd082614cf494613a9e565b601755614cdf82604054613aab565b6040556031546001600160a01b0316906157f2565b600190565b5050505f90565b905082115f614cbe565b50505f90565b508015614c75565b506001600160a01b03821615614c6e565b915060ff60345460081c16158015614dd1575b8015614dc9575b614d0a57614d4f614a29565b614d6260165461ffff6038541690614be0565b9160165492612710614d7d61ffff60385460201c1686613d83565b04908311908115614dbf575b50614cf957614d9b82614cf494613a9e565b601655614daa82603f54613aab565b603f556031546001600160a01b0316906157f2565b905082115f614d89565b508015614d43565b506001600160a01b03821615614d3c565b60125460401c6001600160a01b031615610bce57614e0560135460145490613aab565b4210614ec257614e13614a29565b6018548015614ebc57614e24615545565b612710614e32604454613d6b565b0460455490614e418383613aab565b116126155781614e5091613aab565b6045555f60185542601355600654601254614e7c91839160401c6001600160a01b03908116911661499f565b601254604080519283521c6001600160a01b0316907f58e68cd0cca2fd08275f12ec27861c91b8c9bde83f8831205368bf2f932d2c8290602090a2600190565b50611b1f565b614834565b6012545f9060401c6001600160a01b0316156148c75780614eed60135460145490613aab565b4210614f8f5750614efc614a29565b601854908115614f7457614f0e615545565b612710614f1c604454613d6b565b0460455490614f2b8483613aab565b11614f655782614f3a91613aab565b60455560185542601355600654601254614e7c91839160401c6001600160a01b03908116911661499f565b63035396b760e21b8252600482fd5b809150614f8057505f90565b63584d195b60e01b8152600490fd5b614f9857505f90565b634eb526c760e01b8152600490fd5b6150275f516020615ce55f395f51905f529361501a614fca82611cd08787613ebf565b60125461ffff60301b614fdc83613ed5565b60301b169061ffff60301b199061ffff88169065ffffffffffff1916171663ffff00008860101b161761ffff60201b8560201b161717601255613ed5565b9060405194859485614103565b0390a1565b6001600160401b038111612f615760051b60200190565b805182101561398e5760209160051b010190565b5f601a5462278d0081018091116109e65742106148c75760085481906001600160a01b0316156152c0575061508a614a29565b60155481600182106152b05760085460405163121dabaf60e21b81529190829060049082906001600160a01b03165afa9081156152a55783916151f4575b50805190811592848480156151ea575b6151cd5760c884116151b057506150ef8382613d96565b9361519c57808361510592069081601555613a9e565b9361511285603e54613aab565b603e5542601a555b82811061514f5750509160609160ff5f516020615cc55f395f51905f52946040519384521660208301526040820152a1600190565b6001906001600160a01b036151648285615043565b5116615171575b0161511a565b61519785838060a01b036151858487615043565b5116848060a01b0360315416906157f2565b61516b565b634e487b7160e01b85526012600452602485fd5b93505050506151be57505f90565b63387f421f60e11b8152600490fd5b93505050506151db57505f90565b63ef85f47d60e01b8152600490fd5b5060ff84116150d8565b90503d8084833e6152058183613b09565b81019060208183031261529d578051906001600160401b0382116152a157019080601f8301121561529d5781519061523c8261502c565b9261524a6040519485613b09565b82845260208085019360051b82010191821161529957602001915b818310615275575050505f6150c8565b82516001600160a01b038116810361529557815260209283019201615265565b8680fd5b8580fd5b8380fd5b8480fd5b6040513d85823e3d90fd5b9050614f80575042601a55600190565b6151db57505f90565b6001601a5462278d0081018091116109e6574210614834576008546001600160a01b0316156154df576152fa614a29565b6015548181106154d25760085460405163121dabaf60e21b815291905f90839060049082906001600160a01b03165afa918215611b0f575f9261542f575b508151801591828015615425575b6154195760c8821161540d5761535c8282613d96565b92613da057808261537292069081601555613a9e565b9261537f84603e54613aab565b603e5542601a55845f5b8381106153bd575050509160609160ff5f516020615cc55f395f51905f52946040519384521660208301526040820152a190565b6001600160a01b036153cf8285615043565b51166153de575b018590615389565b615408856001600160a01b036153f48487615043565b516031546001600160a01b031691166157f2565b6153d6565b50505050613d29575f90565b50505050610bce575f90565b5060ff8211615346565b9091503d805f833e6154418183613b09565b81019060208183031261077b578051906001600160401b03821161077b57019080601f8301121561077b578151906154788261502c565b926154866040519485613b09565b82845260208085019360051b82010191821161077b57602001915b8183106154b257505050905f615338565b82516001600160a01b038116810361077b578152602092830192016154a1565b50611b1f5742601a555f90565b610bce575f90565b600880546001600160a01b039283166001600160a01b0319821681179092559091167f840f53110a6273e375b5677146c6b73fb8f03320ccf7282876cc595fd0b1da755f80a3565b6040919493926060820195825260208201520152565b60435480159081156155a7575b5061555957565b426043557ffe16897b713d3781e7f12cd582a6bf984f436ddc90bb19fb3dd794c88d1e53e8601854806044555f60455561271061559582613d6b565b0490615027604051928392428461552f565b905062093a8081018091116109e6574210155f615552565b9060ff603454166155e05760065461403992906001600160a01b031661499f565b603154614039926001600160a01b03909116906157f2565b6001600160a01b03165f8181526009602052604090819020805460ff191660ff851515161790557fff83ce179bad4fbdb0e98074011487cde624295a52d8189d92d5d8b06c914eda92909190825191825215156020820152a1565b5f602654602554806276a70002906276a7008204036109e65761567591613aab565b42106148c7575f516020615ca55f395f51905f52604091615694614a29565b6017546024548252602a6020528382206025548352602052838220556024548152602c6020528281206025548252602052828120600160ff1982541617905580601755602454615702602554948383879552602a60205281812085825260205220546040519384938461552f565b0390a16004810361572f5750600160255561571e602454613db4565b602455426026555b42602755600190565b61573890613db4565b602555615726565b602654602554806276a70002906276a7008204036109e65761576191613aab565b42106148345761576f614a29565b6017546024545f52602a60205260405f206025545f5260205260405f20556024545f52602c60205260405f206025545f5260205260405f20600160ff198254161790555f6017556024545f516020615ca55f395f51905f526025548281935f52602a60205260405f20825f5260205261570260405f20546040519384938461552f565b6001600160a01b0390911691821561114c57825f52603360205260405f205481811015615a4e5780615a26575b5060ff60315460a01c1615611b1f5760018060a01b03603054169160405191615849606084613b09565b600283526020830192604036853760018060a01b03600654169581511561398e5786855281516001101561398e57604082015261588860325483613d83565b670de0b6b3a76400008101908181116109e657670de0b6b3a763ffff019081116109e657670de0b6b3a7640000900495861561114c5782866158cf92989596949398615ba8565b6040519586936338ed173960e01b855260a48501926004860152602485015260a060448501525180915260c4830191905f5b818110615a04575050506001600160a01b0390921660648201524260848201525f918190038183855af1918215611b0f575f9261596e575b5060065461595091906001600160a01b0316615a71565b80515f1981019081116109e65761596691615043565b5115611b1f57565b9091503d805f833e6159808183613b09565b81019060208183031261077b578051906001600160401b03821161077b57019080601f8301121561077b5781516159b68161502c565b926159c46040519485613b09565b81845260208085019260051b82010192831161077b57602001905b8282106159f457505050615950909190615939565b81518152602091820191016159df565b82516001600160a01b0316845287945060209384019390920191600101615901565b615a4891845f5260336020525f6040812055615a4382858761499f565b613a9e565b5f61581f565b92615a5f8261403995949394613a9e565b815f52603360205260405f205561499f565b90615ab06040519163095ea7b360e01b602084015260018060a01b0316918260248201525f604482015260448152615aaa606482613b09565b83615c53565b613d3857615ae260405163095ea7b360e01b60208201528260248201525f604482015260448152615aaa606482613b09565b15615b6357615b1b916040519163095ea7b360e01b602084015260248301525f604483015260448252615b16606483613b09565b615c53565b15615b2257565b60405162461bcd60e51b815260206004820152601960248201527814d85999515490cc8c0e88185c1c1c9bdd994819985a5b1959603a1b6044820152606490fd5b60405162461bcd60e51b815260206004820152601f60248201527f5361666545524332303a20617070726f7665207265736574206661696c6564006044820152606490fd5b60405163095ea7b360e01b6020820152919291615bd790615bd1816149c9868860248401613a68565b82615c53565b615c4e5760405163095ea7b360e01b60208201526001600160a01b03841660248201525f6044808301919091528152615c1590615bd1606482613b09565b15615b6357615b16615b1b93615c4060405194859263095ea7b360e01b602085015260248401613a68565b03601f198101845283613b09565b505050565b81515f92839260209091019083906001600160a01b03165af1615c74614958565b81615c7d575090565b8051801592508215615c8e57505090565b615ca19250602080918301019101614987565b9056fe7ac1837a9e0bba83b018c5bfa58e6626fb69d2c225045ad59cd68af8feb04198d17b72b5549c72d13491e1f39ee964fc864bb81afae4cec2363f018417d014ef7b76495cce45f2894f646af0a4ec8fbc83e273a02c079cbea98dea568dfd819aed4e7058ceee79d559da4497e0dc1c8bef05f5a58696203c7c5bebc63b99edd909345695c9668e739d09bd56c0d9a9fe8c3ff04b179f4ba344b848cf45c268d48be0079c531659141344cd1fd0a4f28419497f9722a3daafe3b4186f6b6457e0906ff2422a6ffa134f2d7ccaffd446bc0c583a5cb6615749b4b2836942a5fea8a81bd0dacd20bf8e738dd9d07f2bb5be010e8b9061de505b453a5df5f09288bba164736f6c634300081e000a",
  "linkReferences": {
    "project/contracts/EcosystemVaultLib.sol": {
      "EcosystemVaultLib": [
        {
          "length": 20,
          "start": 18396
        },
        {
          "length": 20,
          "start": 19913
        }
      ]
    }
  },
  "deployedLinkReferences": {
    "project/contracts/EcosystemVaultLib.sol": {
      "EcosystemVaultLib": [
        {
          "length": 20,
          "start": 17945
        },
        {
          "length": 20,
          "start": 19462
        }
      ]
    }
  },
  "immutableReferences": {},
  "inputSourceName": "project/contracts/EcosystemVault.sol",
  "buildInfoId": "solc-0_8_30-805d2aaf328fea1d96658097ae8d698afb8f77b3"
}