{
  "_format": "hh3-artifact-1",
  "contractName": "EscrowManager",
  "sourceName": "contracts/EscrowManager.sol",
  "abi": [
    {
      "inputs": [
        {
          "internalType": "address",
          "name": "_arbiter",
          "type": "address"
        },
        {
          "internalType": "address",
          "name": "_seer",
          "type": "address"
        }
      ],
      "stateMutability": "nonpayable",
      "type": "constructor"
    },
    {
      "inputs": [
        {
          "internalType": "uint8",
          "name": "result",
          "type": "uint8"
        }
      ],
      "name": "ESC_ActionBlocked",
      "type": "error"
    },
    {
      "inputs": [],
      "name": "ESC_Deprecated",
      "type": "error"
    },
    {
      "anonymous": false,
      "inputs": [
        {
          "indexed": true,
          "internalType": "address",
          "name": "oldArbiter",
          "type": "address"
        },
        {
          "indexed": true,
          "internalType": "address",
          "name": "newArbiter",
          "type": "address"
        }
      ],
      "name": "ArbiterChanged",
      "type": "event"
    },
    {
      "anonymous": false,
      "inputs": [
        {
          "indexed": true,
          "internalType": "uint256",
          "name": "escrowId",
          "type": "uint256"
        },
        {
          "indexed": true,
          "internalType": "address",
          "name": "buyer",
          "type": "address"
        }
      ],
      "name": "BuyerClaimedTimeout",
      "type": "event"
    },
    {
      "anonymous": false,
      "inputs": [],
      "name": "DAOChangeCancelled",
      "type": "event"
    },
    {
      "anonymous": false,
      "inputs": [
        {
          "indexed": true,
          "internalType": "address",
          "name": "newDAO",
          "type": "address"
        },
        {
          "indexed": false,
          "internalType": "uint256",
          "name": "effectiveAt",
          "type": "uint256"
        }
      ],
      "name": "DAOChangeProposed",
      "type": "event"
    },
    {
      "anonymous": false,
      "inputs": [
        {
          "indexed": true,
          "internalType": "address",
          "name": "oldDAO",
          "type": "address"
        },
        {
          "indexed": true,
          "internalType": "address",
          "name": "newDAO",
          "type": "address"
        }
      ],
      "name": "DAOChanged",
      "type": "event"
    },
    {
      "anonymous": false,
      "inputs": [
        {
          "indexed": true,
          "internalType": "uint256",
          "name": "escrowId",
          "type": "uint256"
        },
        {
          "indexed": true,
          "internalType": "address",
          "name": "by",
          "type": "address"
        }
      ],
      "name": "DisputeRaised",
      "type": "event"
    },
    {
      "anonymous": false,
      "inputs": [
        {
          "indexed": true,
          "internalType": "uint256",
          "name": "escrowId",
          "type": "uint256"
        },
        {
          "indexed": true,
          "internalType": "address",
          "name": "winner",
          "type": "address"
        }
      ],
      "name": "DisputeResolved",
      "type": "event"
    },
    {
      "anonymous": false,
      "inputs": [
        {
          "indexed": true,
          "internalType": "uint256",
          "name": "id",
          "type": "uint256"
        },
        {
          "indexed": false,
          "internalType": "uint256",
          "name": "buyerAmount",
          "type": "uint256"
        },
        {
          "indexed": false,
          "internalType": "uint256",
          "name": "merchantAmount",
          "type": "uint256"
        }
      ],
      "name": "DisputeResolvedPartial",
      "type": "event"
    },
    {
      "anonymous": false,
      "inputs": [
        {
          "indexed": true,
          "internalType": "uint256",
          "name": "escrowId",
          "type": "uint256"
        },
        {
          "indexed": true,
          "internalType": "address",
          "name": "buyer",
          "type": "address"
        },
        {
          "indexed": true,
          "internalType": "address",
          "name": "merchant",
          "type": "address"
        },
        {
          "indexed": false,
          "internalType": "uint256",
          "name": "amount",
          "type": "uint256"
        },
        {
          "indexed": false,
          "internalType": "uint256",
          "name": "releaseTime",
          "type": "uint256"
        },
        {
          "indexed": false,
          "internalType": "uint256",
          "name": "lockPeriod",
          "type": "uint256"
        },
        {
          "indexed": false,
          "internalType": "uint256",
          "name": "timestamp",
          "type": "uint256"
        }
      ],
      "name": "EscrowCreated",
      "type": "event"
    },
    {
      "anonymous": false,
      "inputs": [
        {
          "indexed": true,
          "internalType": "uint256",
          "name": "escrowId",
          "type": "uint256"
        },
        {
          "indexed": false,
          "internalType": "uint256",
          "name": "timeRemaining",
          "type": "uint256"
        }
      ],
      "name": "EscrowNearTimeout",
      "type": "event"
    },
    {
      "anonymous": false,
      "inputs": [
        {
          "indexed": true,
          "internalType": "uint256",
          "name": "escrowId",
          "type": "uint256"
        }
      ],
      "name": "EscrowRefunded",
      "type": "event"
    },
    {
      "anonymous": false,
      "inputs": [
        {
          "indexed": true,
          "internalType": "uint256",
          "name": "escrowId",
          "type": "uint256"
        },
        {
          "indexed": true,
          "internalType": "address",
          "name": "to",
          "type": "address"
        }
      ],
      "name": "EscrowReleased",
      "type": "event"
    },
    {
      "anonymous": false,
      "inputs": [
        {
          "indexed": true,
          "internalType": "address",
          "name": "seerAutonomous",
          "type": "address"
        }
      ],
      "name": "SeerAutonomousSet",
      "type": "event"
    },
    {
      "anonymous": false,
      "inputs": [
        {
          "indexed": true,
          "internalType": "address",
          "name": "token",
          "type": "address"
        }
      ],
      "name": "TokenWhitelistChangeCancelled",
      "type": "event"
    },
    {
      "anonymous": false,
      "inputs": [
        {
          "indexed": true,
          "internalType": "address",
          "name": "token",
          "type": "address"
        },
        {
          "indexed": false,
          "internalType": "bool",
          "name": "status",
          "type": "bool"
        },
        {
          "indexed": false,
          "internalType": "uint64",
          "name": "effectiveAt",
          "type": "uint64"
        }
      ],
      "name": "TokenWhitelistChangeProposed",
      "type": "event"
    },
    {
      "anonymous": false,
      "inputs": [
        {
          "indexed": true,
          "internalType": "address",
          "name": "token",
          "type": "address"
        },
        {
          "indexed": false,
          "internalType": "bool",
          "name": "status",
          "type": "bool"
        }
      ],
      "name": "TokenWhitelistSet",
      "type": "event"
    },
    {
      "inputs": [],
      "name": "ARBITER_TIMELOCK",
      "outputs": [
        {
          "internalType": "uint256",
          "name": "",
          "type": "uint256"
        }
      ],
      "stateMutability": "view",
      "type": "function"
    },
    {
      "inputs": [],
      "name": "DAO_TIMELOCK",
      "outputs": [
        {
          "internalType": "uint256",
          "name": "",
          "type": "uint256"
        }
      ],
      "stateMutability": "view",
      "type": "function"
    },
    {
      "inputs": [],
      "name": "DISPUTE_TIMEOUT",
      "outputs": [
        {
          "internalType": "uint256",
          "name": "",
          "type": "uint256"
        }
      ],
      "stateMutability": "view",
      "type": "function"
    },
    {
      "inputs": [],
      "name": "HIGH_VALUE_THRESHOLD",
      "outputs": [
        {
          "internalType": "uint256",
          "name": "",
          "type": "uint256"
        }
      ],
      "stateMutability": "view",
      "type": "function"
    },
    {
      "inputs": [],
      "name": "TOKEN_WHITELIST_DELAY",
      "outputs": [
        {
          "internalType": "uint64",
          "name": "",
          "type": "uint64"
        }
      ],
      "stateMutability": "view",
      "type": "function"
    },
    {
      "inputs": [],
      "name": "applyDAO",
      "outputs": [],
      "stateMutability": "nonpayable",
      "type": "function"
    },
    {
      "inputs": [
        {
          "internalType": "address",
          "name": "token",
          "type": "address"
        }
      ],
      "name": "applyTokenWhitelist",
      "outputs": [],
      "stateMutability": "nonpayable",
      "type": "function"
    },
    {
      "inputs": [],
      "name": "arbiter",
      "outputs": [
        {
          "internalType": "address",
          "name": "",
          "type": "address"
        }
      ],
      "stateMutability": "view",
      "type": "function"
    },
    {
      "inputs": [],
      "name": "arbiterChangeTime",
      "outputs": [
        {
          "internalType": "uint256",
          "name": "",
          "type": "uint256"
        }
      ],
      "stateMutability": "view",
      "type": "function"
    },
    {
      "inputs": [
        {
          "internalType": "uint256",
          "name": "id",
          "type": "uint256"
        }
      ],
      "name": "buyerClaimTimeout",
      "outputs": [],
      "stateMutability": "nonpayable",
      "type": "function"
    },
    {
      "inputs": [],
      "name": "cancelArbiterChange",
      "outputs": [],
      "stateMutability": "nonpayable",
      "type": "function"
    },
    {
      "inputs": [],
      "name": "cancelDAO",
      "outputs": [],
      "stateMutability": "nonpayable",
      "type": "function"
    },
    {
      "inputs": [
        {
          "internalType": "address",
          "name": "token",
          "type": "address"
        }
      ],
      "name": "cancelTokenWhitelist",
      "outputs": [],
      "stateMutability": "nonpayable",
      "type": "function"
    },
    {
      "inputs": [
        {
          "internalType": "uint256",
          "name": "id",
          "type": "uint256"
        }
      ],
      "name": "checkTimeout",
      "outputs": [
        {
          "internalType": "bool",
          "name": "isNearTimeout",
          "type": "bool"
        },
        {
          "internalType": "uint256",
          "name": "timeRemaining",
          "type": "uint256"
        }
      ],
      "stateMutability": "view",
      "type": "function"
    },
    {
      "inputs": [
        {
          "internalType": "uint256",
          "name": "id",
          "type": "uint256"
        }
      ],
      "name": "claimTimeout",
      "outputs": [],
      "stateMutability": "nonpayable",
      "type": "function"
    },
    {
      "inputs": [
        {
          "internalType": "address",
          "name": "merchant",
          "type": "address"
        },
        {
          "internalType": "address",
          "name": "token",
          "type": "address"
        },
        {
          "internalType": "uint256",
          "name": "amount",
          "type": "uint256"
        },
        {
          "internalType": "string",
          "name": "orderId",
          "type": "string"
        }
      ],
      "name": "createEscrow",
      "outputs": [
        {
          "internalType": "uint256",
          "name": "",
          "type": "uint256"
        }
      ],
      "stateMutability": "pure",
      "type": "function"
    },
    {
      "inputs": [],
      "name": "dao",
      "outputs": [
        {
          "internalType": "address",
          "name": "",
          "type": "address"
        }
      ],
      "stateMutability": "view",
      "type": "function"
    },
    {
      "inputs": [],
      "name": "escrowCount",
      "outputs": [
        {
          "internalType": "uint256",
          "name": "",
          "type": "uint256"
        }
      ],
      "stateMutability": "view",
      "type": "function"
    },
    {
      "inputs": [
        {
          "internalType": "uint256",
          "name": "",
          "type": "uint256"
        }
      ],
      "name": "escrows",
      "outputs": [
        {
          "internalType": "address",
          "name": "buyer",
          "type": "address"
        },
        {
          "internalType": "address",
          "name": "merchant",
          "type": "address"
        },
        {
          "internalType": "address",
          "name": "token",
          "type": "address"
        },
        {
          "internalType": "uint256",
          "name": "amount",
          "type": "uint256"
        },
        {
          "internalType": "uint256",
          "name": "createdAt",
          "type": "uint256"
        },
        {
          "internalType": "uint256",
          "name": "releaseTime",
          "type": "uint256"
        },
        {
          "internalType": "enum EscrowManager.State",
          "name": "state",
          "type": "uint8"
        },
        {
          "internalType": "string",
          "name": "orderId",
          "type": "string"
        }
      ],
      "stateMutability": "view",
      "type": "function"
    },
    {
      "inputs": [],
      "name": "executeArbiterChange",
      "outputs": [],
      "stateMutability": "nonpayable",
      "type": "function"
    },
    {
      "inputs": [
        {
          "internalType": "uint256",
          "name": "id",
          "type": "uint256"
        }
      ],
      "name": "notifyTimeout",
      "outputs": [],
      "stateMutability": "nonpayable",
      "type": "function"
    },
    {
      "inputs": [],
      "name": "pendingArbiter",
      "outputs": [
        {
          "internalType": "address",
          "name": "",
          "type": "address"
        }
      ],
      "stateMutability": "view",
      "type": "function"
    },
    {
      "inputs": [],
      "name": "pendingDAO",
      "outputs": [
        {
          "internalType": "address",
          "name": "",
          "type": "address"
        }
      ],
      "stateMutability": "view",
      "type": "function"
    },
    {
      "inputs": [],
      "name": "pendingDAOAt",
      "outputs": [
        {
          "internalType": "uint256",
          "name": "",
          "type": "uint256"
        }
      ],
      "stateMutability": "view",
      "type": "function"
    },
    {
      "inputs": [
        {
          "internalType": "address",
          "name": "",
          "type": "address"
        }
      ],
      "name": "pendingWhitelistChanges",
      "outputs": [
        {
          "internalType": "bool",
          "name": "status",
          "type": "bool"
        },
        {
          "internalType": "uint64",
          "name": "effectiveAt",
          "type": "uint64"
        },
        {
          "internalType": "bool",
          "name": "pending",
          "type": "bool"
        }
      ],
      "stateMutability": "view",
      "type": "function"
    },
    {
      "inputs": [
        {
          "internalType": "address",
          "name": "newArbiter",
          "type": "address"
        }
      ],
      "name": "proposeArbiterChange",
      "outputs": [],
      "stateMutability": "nonpayable",
      "type": "function"
    },
    {
      "inputs": [
        {
          "internalType": "uint256",
          "name": "id",
          "type": "uint256"
        }
      ],
      "name": "raiseDispute",
      "outputs": [],
      "stateMutability": "nonpayable",
      "type": "function"
    },
    {
      "inputs": [
        {
          "internalType": "uint256",
          "name": "id",
          "type": "uint256"
        }
      ],
      "name": "refund",
      "outputs": [],
      "stateMutability": "nonpayable",
      "type": "function"
    },
    {
      "inputs": [
        {
          "internalType": "uint256",
          "name": "id",
          "type": "uint256"
        }
      ],
      "name": "release",
      "outputs": [],
      "stateMutability": "nonpayable",
      "type": "function"
    },
    {
      "inputs": [
        {
          "internalType": "uint256",
          "name": "id",
          "type": "uint256"
        },
        {
          "internalType": "bool",
          "name": "refundBuyer",
          "type": "bool"
        }
      ],
      "name": "resolveDispute",
      "outputs": [],
      "stateMutability": "nonpayable",
      "type": "function"
    },
    {
      "inputs": [
        {
          "internalType": "uint256",
          "name": "id",
          "type": "uint256"
        },
        {
          "internalType": "uint256",
          "name": "buyerShareBps",
          "type": "uint256"
        }
      ],
      "name": "resolveDisputePartial",
      "outputs": [],
      "stateMutability": "nonpayable",
      "type": "function"
    },
    {
      "inputs": [],
      "name": "seer",
      "outputs": [
        {
          "internalType": "contract ISeer",
          "name": "",
          "type": "address"
        }
      ],
      "stateMutability": "view",
      "type": "function"
    },
    {
      "inputs": [],
      "name": "seerAutonomous",
      "outputs": [
        {
          "internalType": "contract ISeerAutonomous_ESC",
          "name": "",
          "type": "address"
        }
      ],
      "stateMutability": "view",
      "type": "function"
    },
    {
      "inputs": [
        {
          "internalType": "address",
          "name": "newDAO",
          "type": "address"
        }
      ],
      "name": "setDAO",
      "outputs": [],
      "stateMutability": "nonpayable",
      "type": "function"
    },
    {
      "inputs": [
        {
          "internalType": "address",
          "name": "_seerAutonomous",
          "type": "address"
        }
      ],
      "name": "setSeerAutonomous",
      "outputs": [],
      "stateMutability": "nonpayable",
      "type": "function"
    },
    {
      "inputs": [
        {
          "internalType": "address",
          "name": "token",
          "type": "address"
        },
        {
          "internalType": "bool",
          "name": "status",
          "type": "bool"
        }
      ],
      "name": "setTokenWhitelist",
      "outputs": [],
      "stateMutability": "nonpayable",
      "type": "function"
    },
    {
      "inputs": [
        {
          "internalType": "uint256",
          "name": "id",
          "type": "uint256"
        }
      ],
      "name": "timeoutResolve",
      "outputs": [],
      "stateMutability": "nonpayable",
      "type": "function"
    },
    {
      "inputs": [
        {
          "internalType": "address",
          "name": "",
          "type": "address"
        }
      ],
      "name": "whitelistedTokens",
      "outputs": [
        {
          "internalType": "bool",
          "name": "",
          "type": "bool"
        }
      ],
      "stateMutability": "view",
      "type": "function"
    }
  ],
  "bytecode": "0x60803461010257601f6123fa38819003918201601f19168301916001600160401b0383118484101761010657808492604094855283398101031261010257610052602061004b8361011a565b920161011a565b60015f55906001600160a01b0316801515806100f0575b156100bc57600580546001600160a01b03199081169290921790556006805482166001600160a01b03939093169290921790915560088054909116331790555f19600c556040516122cb908161012f8239f35b60405162461bcd60e51b815260206004820152600c60248201526b7a65726f206164647265737360a01b6044820152606490fd5b506001600160a01b0382161515610069565b5f80fd5b634e487b7160e01b5f52604160045260245ffd5b51906001600160a01b03821682036101025756fe6080806040526004361015610012575f80fd5b5f905f3560e01c908163012f52ee14611a865750806310bd1f4614611a5e5780631db01caf14611942578063278ecde1146118725780632d55ea391461184a57806334b25ee21461156257806337bdc99b1461134357806339fdf00e146112075780634162169f146111de57806345f5cc1f14611169578063486265c61461114b5780634dd3b23a146111225780635329c681146110f557806354a997eb146110d7578063675ac67a146110b9578063686a3d4d1461105a578063704f0e1414610fbe5780637981c8fa14610f6c5780637be87b9e14610efd578063812b824e1461071f5780638437f7cc14610ed4578063865e80f014610eb657806386e773f114610d9d578063983c13f114610c00578063a5c1674e14610b31578063a83d2b6614610843578063ae90d1fe146107c6578063b2b894f61461073d578063b626eae91461071f578063c0fbe802146106a9578063c7256568146105ca578063c9bcc97e1461045a578063ca7b64bb14610435578063daf9c210146103f6578063dfad4529146102b3578063e73a914c14610209578063efa23290146101eb5763fe25e00a146101c0575f80fd5b346101e857806003193601126101e8576005546040516001600160a01b039091168152602090f35b80fd5b50346101e857806003193601126101e857602060405162093a808152f35b50346101e85760203660031901126101e857610223611c6c565b61023860018060a01b03600854163314611e9c565b6001600160a01b031661024c81151561202a565b806001600160601b0360a01b60095416176009556202a300420180421161029f576020817f696a69e482254add09454b33ac939809b4a11ef008c87f1435c497f265d480d792600a55604051908152a280f35b634e487b7160e01b83526011600452602483fd5b50346101e85760203660031901126101e85760043580825260046020526040822060ff60068201541660048110156103e2576103a957600501548042101561037057610300904290611ed3565b6201518081116103385760207f41e80128d1173374dae904ff7cbe2fb9f01804d54d69351c3a2c13dab35d34c691604051908152a280f35b60405162461bcd60e51b815260206004820152601060248201526f1b9bdd081b99585c881d1a5b595bdd5d60821b6044820152606490fd5b60405162461bcd60e51b8152602060048201526011602482015270185b1c9958591e481d1a5b5959081bdd5d607a1b6044820152606490fd5b60405162461bcd60e51b8152602060048201526011602482015270657363726f77206e6f742061637469766560781b6044820152606490fd5b634e487b7160e01b84526021600452602484fd5b50346101e85760203660031901126101e85760209060ff906040906001600160a01b03610421611c6c565b168152600184522054166040519015158152f35b50346101e857806003193601126101e857602060405169021e19e0c9bab24000008152f35b50346101e85760403660031901126101e857610474611c6c565b61047c611c5d565b9061049260018060a01b03600854163314611e1c565b6001600160a01b0316908115610591576202a30067ffffffffffffffff42160167ffffffffffffffff811161057d577f8c7eb669b0ecd3592e54c8241c3b1c242f23bb819e1a224b58d38a6a34960d30916040918251916104f283611c0b565b15159182815267ffffffffffffffff6020820192169182815284820190600182528789526002602052610537868a2093511515849060ff801983541691151516179055565b519068ffffffffffffffff0069ff00000000000000000084549251151560481b169260081b169069ffffffffffffffffff0019161717905582519182526020820152a280f35b634e487b7160e01b84526011600452602484fd5b60405162461bcd60e51b81526020600482015260116024820152704553433a207a65726f206164647265737360781b6044820152606490fd5b50346101e857806003193601126101e8576105f060018060a01b03600854163314611e9c565b600c546105ff81421015611f6d565b600b546001600160a01b03811691610618831515611fab565b5f191461066e57600580546001600160a01b031980821685179092559116600b555f19600c556001600160a01b03167f8baeb8e9be10c233f000f8215f52a1038a77bc736883d06f9022545ef1ab1a748380a380f35b60405162461bcd60e51b81526020600482015260136024820152721b9bc81c195b991a5b99c81c1c9bdc1bdcd85b606a1b6044820152606490fd5b50346101e857806003193601126101e8576106cf60018060a01b03600854163314611e9c565b6009546106e66001600160a01b0382161515611f30565b6001600160a01b031916600955600a8190557f0bfaa4d485b0e96ca21ced76a9314cabe93e1087db8c957489ea436db13d51a18180a180f35b50346101e857806003193601126101e85760206040516202a3008152f35b50346101e85760203660031901126101e857610757611c6c565b61076c60018060a01b03600854163314611e1c565b6001600160a01b0316808252600260205260408220546107919060481c60ff16611e57565b80825260026020528160408120557f99b30541f2a3e7cdc78eb06c9c702ee3a3bc870d5a1bbc7f33e68772687905f78280a280f35b50346101e85760203660031901126101e8576107e0611c6c565b6107f560018060a01b03600854163314611e9c565b6001600160a01b031661080981151561202a565b6001600160601b0360a01b600b541617600b5562093a80420180421161082f57600c5580f35b634e487b7160e01b82526011600452602482fd5b50346101e85760403660031901126101e857600435602435610863612065565b6127108111610afa578183526004602052604083206006810160ff8154166004811015610ae65760036108969114611c98565b81546001600160a01b031633141580610acf575b6108b390611d46565b600382019069021e19e0c9bab24000008254115f14610aa2576108ea60018060a01b03600854168033149081610a98575b50611dd0565b600160ff198254161790555491808302908382041483151715610a84576109176127108692048094611ed3565b9183610a60575b82610a39575b6006546001600160a01b031680610970575b5050507f2417ce4a28030011dbe05bd1b3d079cfb40c3f5c0d3e1067e7c5ace3ba00f3579160409182519182526020820152a26001815580f35b81546001600160a01b0316813b15610a1857836109a68193829360405194858094819363031879a760e21b835260048301611feb565b03925af1610a20575b5050600654600191909101546001600160a01b039081169116803b15610a1c5760405163031879a760e21b815291839183918290849082906109f49060048301611feb565b03925af1610a03575b80610936565b81610a0d91611c3b565b610a1857835f6109fd565b8380fd5b8280fd5b81610a2a91611c3b565b610a3557815f6109af565b5080fd5b60028101546001820154610a5b9185916001600160a01b0390811691166120a6565b610924565b60028101548154610a7f9186916001600160a01b0390811691166120a6565b61091e565b634e487b7160e01b85526011600452602485fd5b905015155f6108e4565b610ac060018060a01b03600554168033149081610ac5575b50611d92565b6108ea565b905015155f610aba565b5060018201546001600160a01b03163314156108aa565b634e487b7160e01b86526021600452602486fd5b60405162461bcd60e51b815260206004820152600f60248201526e45533a20696e76616c69642062707360881b6044820152606490fd5b50346101e85760203660031901126101e85760043580825260046020526040822060018060a01b0381541633148015610bea575b15610bb95760060160ff81541660048110156103e257610b859015611d0e565b805460ff1916600317905533907f84a477df8a28a4276ca6dee4458a06c3015f30c477d9c949ede4e13ff8a552b48380a380f35b60405162461bcd60e51b81526020600482015260096024820152686e6f7420706172747960b81b6044820152606490fd5b5060018101546001600160a01b03163314610b65565b50346101e85760203660031901126101e857600435610c1d612065565b80825260046020526040822080546001600160a01b03163303610d67576006810160ff8154166004811015610d5357610d1d57600582015462278d008101809111610a84574210610cce57805460ff1916600290811790915581015481546003830154610c989290916001600160a01b0390811691166120a6565b546001600160a01b0316907f9958863108ce0431905d10c65a89a81230ef83e8ee9bdc00b65e52ee8f417b778380a36001815580f35b60405162461bcd60e51b815260206004820152602160248201527f4553433a206d65726368616e7420677261636520706572696f642061637469766044820152606560f81b6064820152608490fd5b60405162461bcd60e51b815260206004820152600e60248201526d4553433a2062616420737461746560901b6044820152606490fd5b634e487b7160e01b85526021600452602485fd5b60405162461bcd60e51b815260206004820152600e60248201526d22a9a19d103737ba10313abcb2b960911b6044820152606490fd5b50346101e85760203660031901126101e857600435610dba612065565b8082526004602052604082206001810190610ddf60018060a01b038354163314611cd3565b600681019060ff8254166004811015610ae657610dfc9015611d0e565b60058101544210610e8557815460ff19166001179091556003810180548254610e4f9391610e34916001600160a01b031690336121b7565b6002015483549154916001600160a01b0390811691166120a6565b546001600160a01b0316907fefc7f1f15becfaec7a3c17eec78be3fa7adb45698f26fcfd25efe1754c2423318380a36001815580f35b60405162461bcd60e51b8152602060048201526009602482015268746f6f206561726c7960b81b6044820152606490fd5b50346101e857806003193601126101e8576020600a54604051908152f35b50346101e857806003193601126101e8576007546040516001600160a01b039091168152602090f35b50346101e85760803660031901126101e857610f17611c6c565b50610f20611c82565b5060643567ffffffffffffffff8111610a355736602382011215610a3557806004013567ffffffffffffffff8111610a1c57369101602401116101e8576322da11ff60e21b8152600490fd5b50346101e857806003193601126101e857610f9260018060a01b03600854163314611e9c565b600b54610fa96001600160a01b0382161515611fab565b6001600160a01b031916600b555f19600c5580f35b50346101e857806003193601126101e8576008546001600160a01b038116610fe7338214611e9c565b6009546001600160a01b038116928390611002821515611f30565b611010600a54421015611f6d565b6001600160601b0360a01b16176008556001600160601b0360a01b1660095582600a557f0429168a83556e356cd18563753346b9c9567cbf0fbea148d40aeb84a76cc5b98380a380f35b50346101e85760203660031901126101e8576060906040906001600160a01b03611082611c6c565b1681526002602052205460ff604051918181161515835267ffffffffffffffff8160081c16602084015260481c1615156040820152f35b50346101e857806003193601126101e8576020600354604051908152f35b50346101e857806003193601126101e8576020600c54604051908152f35b50346101e85760203660031901126101e8576040611114600435611ee0565b825191151582526020820152f35b50346101e857806003193601126101e857600b546040516001600160a01b039091168152602090f35b50346101e857806003193601126101e85760206040516276a7008152f35b50346101e85760203660031901126101e857611183611c6c565b61119860018060a01b03600854163314611e9c565b600780546001600160a01b0319166001600160a01b039290921691821790557fe4684f339ba56463e5cadcd26648b097a048a5f17251bfea9591d8c6a60813188280a280f35b50346101e857806003193601126101e8576008546040516001600160a01b039091168152602090f35b50346101e85760203660031901126101e857611221611c6c565b61123660018060a01b03600854163314611e1c565b6001600160a01b03168082526002602052604080832090519067ffffffffffffffff9061126283611c0b565b5460ff81161515835261128e60ff6020850192848160081c16845260481c161515806040860152611e57565b51164210611307576112ba905115158284526001602052604084209060ff801983541691151516179055565b808252600260205281604081205580825260016020527f30255ae2f73fa78b0dfb2b0ed70fc61dc7848aee81839921317adf96d7f49b59602060ff6040852054166040519015158152a280f35b60405162461bcd60e51b81526020600482015260146024820152734553433a2074696d656c6f636b2061637469766560601b6044820152606490fd5b50346101e85760203660031901126101e857600435611360612065565b80825260046020526040822080546001600160a01b03163303611531576006810160ff8154166004811015610d53576113999015611d0e565b600160ff198254161790558260038201916113e58354936113c9600184019560018060a01b0387541690336121b7565b600283015485549154916001600160a01b0390811691166120a6565b6006546001600160a01b03169081611433575b505090546001600160a01b03169190507fefc7f1f15becfaec7a3c17eec78be3fa7adb45698f26fcfd25efe1754c2423318380a36001815580f35b546001600160a01b0316813b15610a1c57829160a483926040519485938492630eccbd3560e11b845260048401526002602484015260606044840152600e60648401526d31b7b6b6b2b931b2afb13abcb2b960911b60848401525af161151c575b5060065482546001600160a01b039182169116813b15610a1c57829160a483926040519485938492630eccbd3560e11b845260048401526005602484015260606044840152601160648401527018dbdb5b595c98d957db595c98da185b9d607a1b60848401525af1611507575b806113f8565b8161151191611c3b565b610a1c57825f611501565b8161152691611c3b565b610a1c57825f611494565b60405162461bcd60e51b81526020600482015260096024820152683737ba10313abcb2b960b91b6044820152606490fd5b50346117f95760403660031901126117f95760043561157f611c5d565b611587612065565b815f52600460205260405f206006810160ff81541660048110156118365760036115b19114611c98565b81546001600160a01b03163314158061181f575b6115ce90611d46565b600382019269021e19e0c9bab24000008454115f146117fd5761160460018060a01b03600854168033149081610a985750611dd0565b1561170057805460ff1916600290811790915581015481549254919261163792916001600160a01b0391821691166120a6565b60065483906001600160a01b031680611684575b5050546001600160a01b0316907ff77ceb5e091d2da041bc760667f9d5fe7a756949eaf29250ad0e60ca6f4c27d98380a35b6001815580f35b60018301546001600160a01b0316813b15610a1c5760405163031879a760e21b815260048101919091526032602482015260606044820152600c60648201526b191a5cdc1d5d1957db1bdcdd60a21b6084820152908290829060a490829084905af11561164b57816116f591611c3b565b610a1c57825f61164b565b805460ff191660019081179091556002820154908201805493549093611732926001600160a01b0391821691166120a6565b6006546001600160a01b0316908161177b575b5050546001600160a01b0316907ff77ceb5e091d2da041bc760667f9d5fe7a756949eaf29250ad0e60ca6f4c27d98380a361167d565b546001600160a01b0316813b156117f95760405163031879a760e21b815260048101919091526014602482015260606044820152600c60648201526b191a5cdc1d5d1957db1bdcdd60a21b6084820152905f90829060a490829084905af16117e4575b80611745565b6117f19193505f90611c3b565b5f915f6117de565b5f80fd5b61181a60018060a01b03600554168033149081610ac55750611d92565b611604565b5060018201546001600160a01b03163314156115c5565b634e487b7160e01b5f52602160045260245ffd5b346117f9575f3660031901126117f9576006546040516001600160a01b039091168152602090f35b346117f95760203660031901126117f95760043561188e612065565b805f52600460205260405f206118b160018060a01b036001830154163314611cd3565b600681019060ff825416916004831015611836576118d26119189315611d0e565b805460ff1916600217905560038101805482546118fc916001600160a01b039190911690336121b7565b600282015491549054916001600160a01b0391821691166120a6565b7f2babb5cd458b6d41108d6d793a75e29ca524e7caa20e2da6c994462010920a725f80a260015f55005b346117f95760203660031901126117f95760043561195e612065565b805f52600460205260405f206006810160ff81541660048110156118365760036119889114611c98565b60048201546276a7008101809111611a4a574210611a0557805460ff19166002908117909155810154815460038301546119d09290916001600160a01b0390811691166120a6565b546001600160a01b0316907ff77ceb5e091d2da041bc760667f9d5fe7a756949eaf29250ad0e60ca6f4c27d95f80a360015f55005b60405162461bcd60e51b815260206004820152601860248201527f4553433a2074696d656f7574206e6f74207265616368656400000000000000006044820152606490fd5b634e487b7160e01b5f52601160045260245ffd5b346117f9575f3660031901126117f9576009546040516001600160a01b039091168152602090f35b346117f95760203660031901126117f9576004355f52600460205260405f209060018060a01b038254169160018060a01b0360018201541660018060a01b036002830154166003830154600484015490600585015492600760ff6006880154169601945f86548060011c9160018216988915611c01575b602084108a14611bed57838c5260208c01998c938115611bce5750600114611b8b575b50611b2d92500389611c3b565b604051988952602089015260408801526060870152608086015260a085015260048210156118365761012092849260c084015261010060e0840152518091816101008501528484015e5f828201840152601f01601f19168101030190f35b90505f9291925260205f20905f915b818310611bb3575050906020611b2d928201018c611b20565b80602092948385600194549201015201910190918a92611b9a565b60ff19168b5250611b2d93151560051b830160200191508d9050611b20565b634e487b7160e01b5f52602260045260245ffd5b92607f1692611afd565b6060810190811067ffffffffffffffff821117611c2757604052565b634e487b7160e01b5f52604160045260245ffd5b90601f8019910116810190811067ffffffffffffffff821117611c2757604052565b6024359081151582036117f957565b600435906001600160a01b03821682036117f957565b602435906001600160a01b03821682036117f957565b15611c9f57565b60405162461bcd60e51b815260206004820152600c60248201526b1b9bdd08191a5cdc1d5d195960a21b6044820152606490fd5b15611cda57565b60405162461bcd60e51b815260206004820152600c60248201526b1b9bdd081b595c98da185b9d60a21b6044820152606490fd5b15611d1557565b60405162461bcd60e51b815260206004820152600960248201526862616420737461746560b81b6044820152606490fd5b15611d4d57565b60405162461bcd60e51b815260206004820152601860248201527f45533a20636f6e666c696374206f6620696e74657265737400000000000000006044820152606490fd5b15611d9957565b60405162461bcd60e51b815260206004820152600f60248201526e22a99d103737ba1030b93134ba32b960891b6044820152606490fd5b15611dd757565b60405162461bcd60e51b815260206004820152601b60248201527f45533a20686967682076616c75652072657175697265732044414f00000000006044820152606490fd5b15611e2357565b60405162461bcd60e51b815260206004820152600c60248201526b4553433a206e6f742044414f60a01b6044820152606490fd5b15611e5e57565b60405162461bcd60e51b81526020600482015260166024820152754553433a206e6f2070656e64696e67206368616e676560501b6044820152606490fd5b15611ea357565b60405162461bcd60e51b81526020600482015260086024820152676f6e6c792044414f60c01b6044820152606490fd5b91908203918211611a4a57565b5f52600460205260405f2060ff600682015416600481101561183657611f29576005015480421015611f2157611f17904290611ed3565b6201518081111591565b506001905f90565b505f905f90565b15611f3757565b60405162461bcd60e51b815260206004820152600e60248201526d6e6f2070656e64696e672044414f60901b6044820152606490fd5b15611f7457565b60405162461bcd60e51b815260206004820152600f60248201526e74696d656c6f636b2061637469766560881b6044820152606490fd5b15611fb257565b60405162461bcd60e51b81526020600482015260116024820152706e6f2070656e64696e67206368616e676560781b6044820152606490fd5b6001600160a01b03909116815260056020820152606060408201819052600d908201526c191a5cdc1d5d1957dcdc1b1a5d609a1b608082015260a00190565b1561203157565b60405162461bcd60e51b815260206004820152600c60248201526b7a65726f206164647265737360a01b6044820152606490fd5b60015f54036120745760025f55565b60405162461bcd60e51b815260206004820152600a6024820152697265656e7472616e637960b01b6044820152606490fd5b5f929183809360405190602082019363a9059cbb60e01b855260018060a01b031660248301526044820152604481526120e0606482611c3b565b51926001600160a01b03165af13d156121b0573d67ffffffffffffffff8111611c27576040519061211b601f8201601f191660200183611c3b565b81523d5f602083013e5b81612178575b501561213357565b60405162461bcd60e51b815260206004820152601a60248201527f5361666545524332303a207472616e73666572206661696c65640000000000006044820152606490fd5b805180159250821561218d575b50505f61212b565b81925090602091810103126117f9576020015180151581036117f9575f80612185565b6060612125565b6007549091906001600160a01b0316801561228f57604051630456d10560e41b81526001600160a01b039384166004820152600760248201526044810192909252919092166064830152602090829060849082905f905af15f9181612251575b50612230576338a0ca2760e11b5f5260ff60045260245ffd5b60ff16600281101561223f5750565b6338a0ca2760e11b5f5260045260245ffd5b9091506020813d602011612287575b8161226d60209383611c3b565b810103126117f9575160ff811681036117f957905f612217565b3d9150612260565b5050505056fea2646970667358221220a37ea109d4a37d27ae01813749b270bf6149a5837f0f23c365c1bf02bbcbd8fa64736f6c634300081e0033",
  "linkReferences": {},
  "deployedLinkReferences": {},
  "immutableReferences": {},
  "inputSourceName": "project/contracts/EscrowManager.sol",
  "buildInfoId": "solc-0_8_30-7ef9f1c54c2c760f1540eb0ac11e4299c6c639c0"
}