{
  "_format": "hh3-artifact-1",
  "contractName": "VaultHub",
  "sourceName": "contracts/VaultHub.sol",
  "abi": [
    {
      "inputs": [
        {
          "internalType": "address",
          "name": "_vfideToken",
          "type": "address"
        },
        {
          "internalType": "address",
          "name": "_ledger",
          "type": "address"
        },
        {
          "internalType": "address",
          "name": "_dao",
          "type": "address"
        }
      ],
      "stateMutability": "nonpayable",
      "type": "constructor"
    },
    {
      "inputs": [],
      "name": "VH_Create2Failed",
      "type": "error"
    },
    {
      "inputs": [],
      "name": "VH_ImmutableTimelock",
      "type": "error"
    },
    {
      "inputs": [],
      "name": "VH_NeedGuardians",
      "type": "error"
    },
    {
      "inputs": [],
      "name": "VH_NeedIndependentGuardian",
      "type": "error"
    },
    {
      "inputs": [],
      "name": "VH_NotDAO",
      "type": "error"
    },
    {
      "inputs": [],
      "name": "VH_NotRecoveryContract",
      "type": "error"
    },
    {
      "inputs": [],
      "name": "VH_NotVaultOwner",
      "type": "error"
    },
    {
      "inputs": [],
      "name": "VH_RecoveryDisabled",
      "type": "error"
    },
    {
      "inputs": [],
      "name": "VH_ThresholdTooLow",
      "type": "error"
    },
    {
      "inputs": [],
      "name": "VH_Timelock",
      "type": "error"
    },
    {
      "inputs": [],
      "name": "VH_UnknownVault",
      "type": "error"
    },
    {
      "inputs": [],
      "name": "VH_UseIndividualSetters",
      "type": "error"
    },
    {
      "inputs": [],
      "name": "VH_Zero",
      "type": "error"
    },
    {
      "anonymous": false,
      "inputs": [
        {
          "indexed": false,
          "internalType": "address",
          "name": "council",
          "type": "address"
        }
      ],
      "name": "CouncilSet",
      "type": "event"
    },
    {
      "anonymous": false,
      "inputs": [
        {
          "indexed": true,
          "internalType": "address",
          "name": "dao",
          "type": "address"
        },
        {
          "indexed": false,
          "internalType": "uint64",
          "name": "effectiveAt",
          "type": "uint64"
        }
      ],
      "name": "DAOScheduled_VH",
      "type": "event"
    },
    {
      "anonymous": false,
      "inputs": [
        {
          "indexed": false,
          "internalType": "address",
          "name": "dao",
          "type": "address"
        }
      ],
      "name": "DAOSet",
      "type": "event"
    },
    {
      "anonymous": false,
      "inputs": [],
      "name": "EmergencyControllerCancelled",
      "type": "event"
    },
    {
      "anonymous": false,
      "inputs": [
        {
          "indexed": true,
          "internalType": "address",
          "name": "controller",
          "type": "address"
        },
        {
          "indexed": false,
          "internalType": "uint64",
          "name": "effectiveAt",
          "type": "uint64"
        }
      ],
      "name": "EmergencyControllerProposed",
      "type": "event"
    },
    {
      "anonymous": false,
      "inputs": [
        {
          "indexed": true,
          "internalType": "address",
          "name": "previousController",
          "type": "address"
        },
        {
          "indexed": true,
          "internalType": "address",
          "name": "newController",
          "type": "address"
        }
      ],
      "name": "EmergencyControllerSet",
      "type": "event"
    },
    {
      "anonymous": false,
      "inputs": [
        {
          "indexed": true,
          "internalType": "address",
          "name": "owner",
          "type": "address"
        },
        {
          "indexed": true,
          "internalType": "address",
          "name": "vault",
          "type": "address"
        }
      ],
      "name": "GuardianSetupCompleted",
      "type": "event"
    },
    {
      "anonymous": false,
      "inputs": [
        {
          "indexed": true,
          "internalType": "address",
          "name": "source",
          "type": "address"
        },
        {
          "indexed": false,
          "internalType": "string",
          "name": "action",
          "type": "string"
        }
      ],
      "name": "LedgerLogFailed",
      "type": "event"
    },
    {
      "anonymous": false,
      "inputs": [
        {
          "indexed": true,
          "internalType": "address",
          "name": "previousOwner",
          "type": "address"
        },
        {
          "indexed": true,
          "internalType": "address",
          "name": "newOwner",
          "type": "address"
        }
      ],
      "name": "OwnershipTransferStarted",
      "type": "event"
    },
    {
      "anonymous": false,
      "inputs": [
        {
          "indexed": true,
          "internalType": "address",
          "name": "previousOwner",
          "type": "address"
        },
        {
          "indexed": true,
          "internalType": "address",
          "name": "newOwner",
          "type": "address"
        }
      ],
      "name": "OwnershipTransferred",
      "type": "event"
    },
    {
      "anonymous": false,
      "inputs": [
        {
          "indexed": true,
          "internalType": "address",
          "name": "account",
          "type": "address"
        }
      ],
      "name": "Paused",
      "type": "event"
    },
    {
      "anonymous": false,
      "inputs": [
        {
          "indexed": true,
          "internalType": "address",
          "name": "ledger",
          "type": "address"
        },
        {
          "indexed": false,
          "internalType": "uint64",
          "name": "effectiveAt",
          "type": "uint64"
        }
      ],
      "name": "ProofLedgerScheduled_VH",
      "type": "event"
    },
    {
      "anonymous": false,
      "inputs": [
        {
          "indexed": true,
          "internalType": "address",
          "name": "vault",
          "type": "address"
        },
        {
          "indexed": true,
          "internalType": "address",
          "name": "newWallet",
          "type": "address"
        },
        {
          "indexed": true,
          "internalType": "address",
          "name": "recoveryContract",
          "type": "address"
        }
      ],
      "name": "RecoveryRotationRequested",
      "type": "event"
    },
    {
      "anonymous": false,
      "inputs": [
        {
          "indexed": true,
          "internalType": "address",
          "name": "account",
          "type": "address"
        }
      ],
      "name": "Unpaused",
      "type": "event"
    },
    {
      "anonymous": false,
      "inputs": [
        {
          "indexed": true,
          "internalType": "address",
          "name": "vfide",
          "type": "address"
        },
        {
          "indexed": false,
          "internalType": "uint64",
          "name": "effectiveAt",
          "type": "uint64"
        }
      ],
      "name": "VFIDEScheduled_VH",
      "type": "event"
    },
    {
      "anonymous": false,
      "inputs": [
        {
          "indexed": false,
          "internalType": "address",
          "name": "vfide",
          "type": "address"
        }
      ],
      "name": "VFIDESet",
      "type": "event"
    },
    {
      "anonymous": false,
      "inputs": [
        {
          "indexed": true,
          "internalType": "address",
          "name": "owner",
          "type": "address"
        },
        {
          "indexed": true,
          "internalType": "address",
          "name": "vault",
          "type": "address"
        }
      ],
      "name": "VaultCreated",
      "type": "event"
    },
    {
      "inputs": [],
      "name": "CARD_DAILY_TRANSFER_LIMIT",
      "outputs": [
        {
          "internalType": "uint256",
          "name": "",
          "type": "uint256"
        }
      ],
      "stateMutability": "view",
      "type": "function"
    },
    {
      "inputs": [],
      "name": "CARD_GUARDIAN_THRESHOLD",
      "outputs": [
        {
          "internalType": "uint8",
          "name": "",
          "type": "uint8"
        }
      ],
      "stateMutability": "view",
      "type": "function"
    },
    {
      "inputs": [],
      "name": "CARD_MAX_PER_TRANSFER",
      "outputs": [
        {
          "internalType": "uint256",
          "name": "",
          "type": "uint256"
        }
      ],
      "stateMutability": "view",
      "type": "function"
    },
    {
      "inputs": [],
      "name": "DAO_RECOVERY_DELAY",
      "outputs": [
        {
          "internalType": "uint64",
          "name": "",
          "type": "uint64"
        }
      ],
      "stateMutability": "view",
      "type": "function"
    },
    {
      "inputs": [],
      "name": "EMERGENCY_CONTROLLER_DELAY",
      "outputs": [
        {
          "internalType": "uint64",
          "name": "",
          "type": "uint64"
        }
      ],
      "stateMutability": "view",
      "type": "function"
    },
    {
      "inputs": [],
      "name": "MODULE_CHANGE_DELAY",
      "outputs": [
        {
          "internalType": "uint64",
          "name": "",
          "type": "uint64"
        }
      ],
      "stateMutability": "view",
      "type": "function"
    },
    {
      "inputs": [],
      "name": "RECOVERY_APPROVALS_REQUIRED",
      "outputs": [
        {
          "internalType": "uint8",
          "name": "",
          "type": "uint8"
        }
      ],
      "stateMutability": "view",
      "type": "function"
    },
    {
      "inputs": [],
      "name": "RECOVERY_DELAY",
      "outputs": [
        {
          "internalType": "uint64",
          "name": "",
          "type": "uint64"
        }
      ],
      "stateMutability": "view",
      "type": "function"
    },
    {
      "inputs": [],
      "name": "acceptOwnership",
      "outputs": [],
      "stateMutability": "nonpayable",
      "type": "function"
    },
    {
      "inputs": [],
      "name": "applyDAO",
      "outputs": [],
      "stateMutability": "nonpayable",
      "type": "function"
    },
    {
      "inputs": [],
      "name": "applyEmergencyController",
      "outputs": [],
      "stateMutability": "nonpayable",
      "type": "function"
    },
    {
      "inputs": [],
      "name": "applyProofLedger",
      "outputs": [],
      "stateMutability": "nonpayable",
      "type": "function"
    },
    {
      "inputs": [],
      "name": "applyVFIDEToken",
      "outputs": [],
      "stateMutability": "nonpayable",
      "type": "function"
    },
    {
      "inputs": [
        {
          "internalType": "address",
          "name": "vault",
          "type": "address"
        },
        {
          "internalType": "address",
          "name": "newOwner",
          "type": "address"
        }
      ],
      "name": "approveForceRecovery",
      "outputs": [],
      "stateMutability": "pure",
      "type": "function"
    },
    {
      "inputs": [
        {
          "internalType": "address",
          "name": "vault",
          "type": "address"
        }
      ],
      "name": "cancelDAORecovery",
      "outputs": [],
      "stateMutability": "pure",
      "type": "function"
    },
    {
      "inputs": [],
      "name": "cancelEmergencyController",
      "outputs": [],
      "stateMutability": "nonpayable",
      "type": "function"
    },
    {
      "inputs": [],
      "name": "cancelOwnershipTransfer",
      "outputs": [],
      "stateMutability": "nonpayable",
      "type": "function"
    },
    {
      "inputs": [
        {
          "internalType": "address",
          "name": "vault",
          "type": "address"
        }
      ],
      "name": "completeGuardianSetup",
      "outputs": [],
      "stateMutability": "nonpayable",
      "type": "function"
    },
    {
      "inputs": [],
      "name": "council",
      "outputs": [
        {
          "internalType": "address",
          "name": "",
          "type": "address"
        }
      ],
      "stateMutability": "view",
      "type": "function"
    },
    {
      "inputs": [],
      "name": "createVault",
      "outputs": [
        {
          "internalType": "address",
          "name": "",
          "type": "address"
        }
      ],
      "stateMutability": "nonpayable",
      "type": "function"
    },
    {
      "inputs": [],
      "name": "dao",
      "outputs": [
        {
          "internalType": "address",
          "name": "",
          "type": "address"
        }
      ],
      "stateMutability": "view",
      "type": "function"
    },
    {
      "inputs": [],
      "name": "emergencyController",
      "outputs": [
        {
          "internalType": "address",
          "name": "",
          "type": "address"
        }
      ],
      "stateMutability": "view",
      "type": "function"
    },
    {
      "inputs": [
        {
          "internalType": "address",
          "name": "newOwner",
          "type": "address"
        }
      ],
      "name": "emergencyTransferOwnership",
      "outputs": [],
      "stateMutability": "nonpayable",
      "type": "function"
    },
    {
      "inputs": [
        {
          "internalType": "address",
          "name": "owner_",
          "type": "address"
        }
      ],
      "name": "ensureVault",
      "outputs": [
        {
          "internalType": "address",
          "name": "vault",
          "type": "address"
        }
      ],
      "stateMutability": "nonpayable",
      "type": "function"
    },
    {
      "inputs": [
        {
          "internalType": "address",
          "name": "vault",
          "type": "address"
        },
        {
          "internalType": "address",
          "name": "newWallet",
          "type": "address"
        }
      ],
      "name": "executeRecoveryRotation",
      "outputs": [],
      "stateMutability": "nonpayable",
      "type": "function"
    },
    {
      "inputs": [
        {
          "internalType": "address",
          "name": "vault",
          "type": "address"
        }
      ],
      "name": "finalizeDAORecovery",
      "outputs": [],
      "stateMutability": "pure",
      "type": "function"
    },
    {
      "inputs": [
        {
          "internalType": "address",
          "name": "vault",
          "type": "address"
        }
      ],
      "name": "finalizeForceRecovery",
      "outputs": [],
      "stateMutability": "pure",
      "type": "function"
    },
    {
      "inputs": [
        {
          "internalType": "address",
          "name": "owner_",
          "type": "address"
        }
      ],
      "name": "getVault",
      "outputs": [
        {
          "internalType": "address",
          "name": "",
          "type": "address"
        }
      ],
      "stateMutability": "view",
      "type": "function"
    },
    {
      "inputs": [
        {
          "internalType": "address",
          "name": "",
          "type": "address"
        }
      ],
      "name": "guardianSetupComplete",
      "outputs": [
        {
          "internalType": "bool",
          "name": "",
          "type": "bool"
        }
      ],
      "stateMutability": "view",
      "type": "function"
    },
    {
      "inputs": [
        {
          "internalType": "address",
          "name": "vault",
          "type": "address"
        },
        {
          "internalType": "address",
          "name": "newOwner",
          "type": "address"
        }
      ],
      "name": "initiateForceRecovery",
      "outputs": [],
      "stateMutability": "pure",
      "type": "function"
    },
    {
      "inputs": [
        {
          "internalType": "address",
          "name": "",
          "type": "address"
        }
      ],
      "name": "isRecoveryApprover",
      "outputs": [
        {
          "internalType": "bool",
          "name": "",
          "type": "bool"
        }
      ],
      "stateMutability": "view",
      "type": "function"
    },
    {
      "inputs": [
        {
          "internalType": "address",
          "name": "a",
          "type": "address"
        }
      ],
      "name": "isVault",
      "outputs": [
        {
          "internalType": "bool",
          "name": "",
          "type": "bool"
        }
      ],
      "stateMutability": "view",
      "type": "function"
    },
    {
      "inputs": [],
      "name": "ledger",
      "outputs": [
        {
          "internalType": "contract IProofLedger",
          "name": "",
          "type": "address"
        }
      ],
      "stateMutability": "view",
      "type": "function"
    },
    {
      "inputs": [],
      "name": "owner",
      "outputs": [
        {
          "internalType": "address",
          "name": "",
          "type": "address"
        }
      ],
      "stateMutability": "view",
      "type": "function"
    },
    {
      "inputs": [
        {
          "internalType": "address",
          "name": "",
          "type": "address"
        }
      ],
      "name": "ownerOfVault",
      "outputs": [
        {
          "internalType": "address",
          "name": "",
          "type": "address"
        }
      ],
      "stateMutability": "view",
      "type": "function"
    },
    {
      "inputs": [],
      "name": "ownershipTransferDeadline",
      "outputs": [
        {
          "internalType": "uint64",
          "name": "",
          "type": "uint64"
        }
      ],
      "stateMutability": "view",
      "type": "function"
    },
    {
      "inputs": [],
      "name": "pause",
      "outputs": [],
      "stateMutability": "nonpayable",
      "type": "function"
    },
    {
      "inputs": [],
      "name": "paused",
      "outputs": [
        {
          "internalType": "bool",
          "name": "",
          "type": "bool"
        }
      ],
      "stateMutability": "view",
      "type": "function"
    },
    {
      "inputs": [],
      "name": "pendingDAOAt_VH",
      "outputs": [
        {
          "internalType": "uint64",
          "name": "",
          "type": "uint64"
        }
      ],
      "stateMutability": "view",
      "type": "function"
    },
    {
      "inputs": [],
      "name": "pendingDAO_VH",
      "outputs": [
        {
          "internalType": "address",
          "name": "",
          "type": "address"
        }
      ],
      "stateMutability": "view",
      "type": "function"
    },
    {
      "inputs": [],
      "name": "pendingEmergencyController",
      "outputs": [
        {
          "internalType": "address",
          "name": "",
          "type": "address"
        }
      ],
      "stateMutability": "view",
      "type": "function"
    },
    {
      "inputs": [],
      "name": "pendingEmergencyControllerAt",
      "outputs": [
        {
          "internalType": "uint64",
          "name": "",
          "type": "uint64"
        }
      ],
      "stateMutability": "view",
      "type": "function"
    },
    {
      "inputs": [],
      "name": "pendingOwner",
      "outputs": [
        {
          "internalType": "address",
          "name": "",
          "type": "address"
        }
      ],
      "stateMutability": "view",
      "type": "function"
    },
    {
      "inputs": [],
      "name": "pendingProofLedgerAt_VH",
      "outputs": [
        {
          "internalType": "uint64",
          "name": "",
          "type": "uint64"
        }
      ],
      "stateMutability": "view",
      "type": "function"
    },
    {
      "inputs": [],
      "name": "pendingProofLedger_VH",
      "outputs": [
        {
          "internalType": "address",
          "name": "",
          "type": "address"
        }
      ],
      "stateMutability": "view",
      "type": "function"
    },
    {
      "inputs": [],
      "name": "pendingVFIDEAt_VH",
      "outputs": [
        {
          "internalType": "uint64",
          "name": "",
          "type": "uint64"
        }
      ],
      "stateMutability": "view",
      "type": "function"
    },
    {
      "inputs": [],
      "name": "pendingVFIDE_VH",
      "outputs": [
        {
          "internalType": "address",
          "name": "",
          "type": "address"
        }
      ],
      "stateMutability": "view",
      "type": "function"
    },
    {
      "inputs": [
        {
          "internalType": "address",
          "name": "owner_",
          "type": "address"
        }
      ],
      "name": "predictVault",
      "outputs": [
        {
          "internalType": "address",
          "name": "predicted",
          "type": "address"
        }
      ],
      "stateMutability": "view",
      "type": "function"
    },
    {
      "inputs": [
        {
          "internalType": "address",
          "name": "",
          "type": "address"
        }
      ],
      "name": "recoveryApprovalCount",
      "outputs": [
        {
          "internalType": "uint8",
          "name": "",
          "type": "uint8"
        }
      ],
      "stateMutability": "view",
      "type": "function"
    },
    {
      "inputs": [
        {
          "internalType": "address",
          "name": "",
          "type": "address"
        },
        {
          "internalType": "address",
          "name": "",
          "type": "address"
        },
        {
          "internalType": "uint256",
          "name": "",
          "type": "uint256"
        }
      ],
      "name": "recoveryApprovals",
      "outputs": [
        {
          "internalType": "bool",
          "name": "",
          "type": "bool"
        }
      ],
      "stateMutability": "view",
      "type": "function"
    },
    {
      "inputs": [
        {
          "internalType": "address",
          "name": "",
          "type": "address"
        },
        {
          "internalType": "uint256",
          "name": "",
          "type": "uint256"
        }
      ],
      "name": "recoveryCandidateForNonce",
      "outputs": [
        {
          "internalType": "address",
          "name": "",
          "type": "address"
        }
      ],
      "stateMutability": "view",
      "type": "function"
    },
    {
      "inputs": [
        {
          "internalType": "address",
          "name": "",
          "type": "address"
        }
      ],
      "name": "recoveryNonce",
      "outputs": [
        {
          "internalType": "uint256",
          "name": "",
          "type": "uint256"
        }
      ],
      "stateMutability": "view",
      "type": "function"
    },
    {
      "inputs": [
        {
          "internalType": "address",
          "name": "",
          "type": "address"
        }
      ],
      "name": "recoveryProposedOwner",
      "outputs": [
        {
          "internalType": "address",
          "name": "",
          "type": "address"
        }
      ],
      "stateMutability": "view",
      "type": "function"
    },
    {
      "inputs": [
        {
          "internalType": "address",
          "name": "",
          "type": "address"
        }
      ],
      "name": "recoveryUnlockTime",
      "outputs": [
        {
          "internalType": "uint64",
          "name": "",
          "type": "uint64"
        }
      ],
      "stateMutability": "view",
      "type": "function"
    },
    {
      "inputs": [
        {
          "internalType": "address",
          "name": "vault",
          "type": "address"
        },
        {
          "internalType": "address",
          "name": "newOwner",
          "type": "address"
        }
      ],
      "name": "requestDAORecovery",
      "outputs": [],
      "stateMutability": "pure",
      "type": "function"
    },
    {
      "inputs": [
        {
          "internalType": "address",
          "name": "_council",
          "type": "address"
        }
      ],
      "name": "setCouncil",
      "outputs": [],
      "stateMutability": "nonpayable",
      "type": "function"
    },
    {
      "inputs": [
        {
          "internalType": "address",
          "name": "_dao",
          "type": "address"
        }
      ],
      "name": "setDAO",
      "outputs": [],
      "stateMutability": "nonpayable",
      "type": "function"
    },
    {
      "inputs": [
        {
          "internalType": "address",
          "name": "multisig",
          "type": "address"
        }
      ],
      "name": "setDAORecoveryMultisig",
      "outputs": [],
      "stateMutability": "nonpayable",
      "type": "function"
    },
    {
      "inputs": [
        {
          "internalType": "address",
          "name": "controller",
          "type": "address"
        }
      ],
      "name": "setEmergencyController",
      "outputs": [],
      "stateMutability": "nonpayable",
      "type": "function"
    },
    {
      "inputs": [
        {
          "internalType": "address",
          "name": "_vfideToken",
          "type": "address"
        },
        {
          "internalType": "address",
          "name": "_ledger",
          "type": "address"
        },
        {
          "internalType": "address",
          "name": "_dao",
          "type": "address"
        }
      ],
      "name": "setModules",
      "outputs": [],
      "stateMutability": "view",
      "type": "function"
    },
    {
      "inputs": [
        {
          "internalType": "address",
          "name": "proofLedger",
          "type": "address"
        }
      ],
      "name": "setProofLedger",
      "outputs": [],
      "stateMutability": "nonpayable",
      "type": "function"
    },
    {
      "inputs": [
        {
          "internalType": "address",
          "name": "approver",
          "type": "address"
        },
        {
          "internalType": "bool",
          "name": "status",
          "type": "bool"
        }
      ],
      "name": "setRecoveryApprover",
      "outputs": [],
      "stateMutability": "nonpayable",
      "type": "function"
    },
    {
      "inputs": [
        {
          "internalType": "uint256",
          "name": "timelock",
          "type": "uint256"
        }
      ],
      "name": "setRecoveryTimelock",
      "outputs": [],
      "stateMutability": "pure",
      "type": "function"
    },
    {
      "inputs": [
        {
          "internalType": "address",
          "name": "_vfide",
          "type": "address"
        }
      ],
      "name": "setVFIDE",
      "outputs": [],
      "stateMutability": "nonpayable",
      "type": "function"
    },
    {
      "inputs": [
        {
          "internalType": "address",
          "name": "token",
          "type": "address"
        }
      ],
      "name": "setVFIDEToken",
      "outputs": [],
      "stateMutability": "nonpayable",
      "type": "function"
    },
    {
      "inputs": [],
      "name": "totalVaults",
      "outputs": [
        {
          "internalType": "uint256",
          "name": "",
          "type": "uint256"
        }
      ],
      "stateMutability": "view",
      "type": "function"
    },
    {
      "inputs": [],
      "name": "totalVaultsCreated",
      "outputs": [
        {
          "internalType": "uint256",
          "name": "",
          "type": "uint256"
        }
      ],
      "stateMutability": "view",
      "type": "function"
    },
    {
      "inputs": [
        {
          "internalType": "address",
          "name": "newOwner",
          "type": "address"
        }
      ],
      "name": "transferOwnership",
      "outputs": [],
      "stateMutability": "nonpayable",
      "type": "function"
    },
    {
      "inputs": [],
      "name": "unpause",
      "outputs": [],
      "stateMutability": "nonpayable",
      "type": "function"
    },
    {
      "inputs": [
        {
          "internalType": "address",
          "name": "",
          "type": "address"
        }
      ],
      "name": "vaultCreatedAt",
      "outputs": [
        {
          "internalType": "uint256",
          "name": "",
          "type": "uint256"
        }
      ],
      "stateMutability": "view",
      "type": "function"
    },
    {
      "inputs": [
        {
          "internalType": "address",
          "name": "",
          "type": "address"
        }
      ],
      "name": "vaultOf",
      "outputs": [
        {
          "internalType": "address",
          "name": "",
          "type": "address"
        }
      ],
      "stateMutability": "view",
      "type": "function"
    },
    {
      "inputs": [],
      "name": "vfideToken",
      "outputs": [
        {
          "internalType": "address",
          "name": "",
          "type": "address"
        }
      ],
      "stateMutability": "view",
      "type": "function"
    }
  ],
  "bytecode": "0x60803461012157601f615d8838819003918201601f19168301916001600160401b03831184841017610125578084926060946040528339810103126101215761004781610139565b90610060604061005960208401610139565b9201610139565b5f80546001600160a01b03191633908117825560405194929392917f8be0079c531659141344cd1fd0a4f28419497f9722a3daafe3b4186f6b6457e08180a360016004556001600160a01b031680158015610110575b61010157600580546001600160a01b03199081169290921790556006805482166001600160a01b039384161790556007805490911692909116919091179055615c3a908161014e8239f35b6306f32b4160e51b5f5260045ffd5b506001600160a01b038316156100b6565b5f80fd5b634e487b7160e01b5f52604160045260245ffd5b51906001600160a01b03821682036101215756fe60806040526004361015610011575f80fd5b5f3560e01c80630709df4514610462578063074a0608146103d1578063077c4e001461046c5780630d6c4df3146104675780630eb9af38146104625780630f6bab391461045d578063118ead141461045857806312b818241461045357806315112f111461044e57806317fd7bf6146104175780631a656881146103d15780631ff19db71461044957806323452b9c14610444578063243d0e141461043f5780632724fe091461043a57806327a4e1ab146104355780632d41ab16146104305780632f40b3301461037757806331f400f11461042b5780633297992e14610426578063360ca958146104215780633f4ba83a1461041c57806340a60084146104175780634162169f14610412578063419d7a831461040d578063435c529b1461040857806347b456521461040357806349bcad0a146103fe5780634a1d1e5e146103f95780634b9ae050146103f45780635066a7f2146103ef57806356397c35146103ea5780635c975abb146103e55780635d12928b146103e05780635d691dc7146103db578063652b9b41146103d65780636a240a9c146103d15780636b112afa146103a95780636ca7dc89146103cc578063704f0e14146103c75780637189bdd11461038157806379ba5097146103c25780637a936beb146103bd5780637b7e5267146103b85780638456cb59146103b357806389ead86f146103ae5780638d654023146103a95780638da5cb5b146103a45780639c97dbf21461039f5780639ce492f11461039a5780639f600038146103955780639f9a650814610390578063a2a78a7f14610377578063a6d80a271461038b578063a8336a0614610386578063a9e3ec2214610381578063b8a71eec1461037c578063c5c8220314610377578063c749c5bf14610372578063df93ad341461036d578063e01fd21514610368578063e03222fe14610363578063e0a33d541461035e578063e2c6d41c14610359578063e30c397814610354578063e66748431461034f578063e73a914c1461034a578063f168d96b14610345578063f20ca7ed14610340578063f2fde38b1461033b578063f8a2bf76146103365763fa3fd3bc14610331575f80fd5b611c6d565b611c07565b611b51565b611b11565b611ae5565b611a12565b611955565b61192d565b611905565b6118dd565b6118c0565b611883565b611846565b6116b6565b61098e565b61168e565b611036565b61164b565b6115ab565b61156b565b611543565b611523565b61141e565b6113f7565b610e23565b61123d565b6111db565b611127565b6110ff565b611053565b610f6d565b610e40565b610561565b610d8e565b610d73565b610d27565b610d02565b610cda565b610c90565b610c68565b610c3c565b610c04565b610be7565b610baa565b610b6f565b610b47565b6107cc565b610ab3565b6109ef565b6109ca565b6109a7565b6108fe565b6108c9565b610889565b610861565b610821565b6107f5565b6107a0565b610713565b6106f0565b61062a565b610521565b6105c9565b61059d565b6001600160a01b031690565b600435906001600160a01b038216820361049357565b5f80fd5b602435906001600160a01b038216820361049357565b604435906001600160a01b038216820361049357565b6001600160a01b03165f90815260096020526040902090565b6001600160a01b03165f90815260086020526040902090565b6001600160a01b03165f908152600a6020526040902090565b6001600160a01b03909116815260200190565b34610493576020366003190112610493576001600160a01b0361054261047d565b165f526008602052602060018060a01b0360405f205416604051908152f35b346104935760403660031901126104935761057a61047d565b50610583610497565b50633c48d1d160e21b5f5260045ffd5b5f91031261049357565b34610493575f3660031901126104935760165460405160a09190911c6001600160401b03168152602090f35b34610493576060366003190112610493576105e261047d565b6105ea610497565b6001600160a01b039182165f908152600d602090815260408083209390941682529182528281206044358252825282902054915160ff9092161515825290f35b346104935760203660031901126104935761064361047d565b61064b612285565b7f12ff1400e1b959ec4c0dd78c9306139c68bbad4332d96c1cec613be65a89351a6020610680426001600160401b0316611cc6565b601680546001600160e01b0319166001600160a01b0390951694851760a083901b600160a01b600160e01b03161790556040516001600160401b039091168152a26106ee6106cc611d4d565b731a1d5897db195919d95c97dcd8da19591d5b195960621b602082015261233c565b005b34610493575f366003190112610493576020604051681043561a88293000008152f35b346104935760203660031901126104935761072c61047d565b610734612285565b6001600160a01b03168015610791575f52601160205260405f20600160ff198254161790556106ee60405161076a604082611d15565b60158152741c9958dbdd995c9e57db5d5b1d1a5cda59d7dcd95d605a1b602082015261233c565b6306f32b4160e51b5f5260045ffd5b34610493575f3660031901126104935760025460405160a09190911c6001600160401b03168152602090f35b34610493576020366003190112610493576106ee6107e861047d565b6107f0612285565b611ddf565b34610493575f3660031901126104935760035460405160a09190911c6001600160401b03168152602090f35b34610493575f36600319011261049357610839612285565b600180546001600160a01b03191690556106ee60028054600160a01b600160e01b0319169055565b34610493575f366003190112610493576016546040516001600160a01b039091168152602090f35b34610493576020366003190112610493576001600160a01b036108aa61047d565b165f526009602052602060018060a01b0360405f205416604051908152f35b346104935760203660031901126104935760206108ec6108e761047d565b611e93565b6040516001600160a01b039091168152f35b34610493575f36600319011261049357610916612285565b60165460a081901c6001600160401b03168015908115610984575b5061097657600680546001600160a01b0319166001600160a01b0392909216919091179055601680546001600160e01b03191690556106ee610971611f01565b61233c565b622e5cd760e61b5f5260045ffd5b905042105f610931565b346104935760203660031901126104935761058361047d565b34610493575f36600319011261049357602060405168056bc75e2d631000008152f35b34610493575f36600319011261049357602060405160038152f35b8015150361049357565b3461049357604036600319011261049357610a0861047d565b60243590610a15826109e5565b610a1d612285565b6001600160a01b03168015610791575f526011602052610a4c8160405f209060ff801983541691151516179055565b15610a81576106ee610a5c611d77565b761c9958dbdd995c9e57d85c1c1c9bdd995c97d859191959604a1b602082015261233c565b6106ee610a8c611d62565b781c9958dbdd995c9e57d85c1c1c9bdd995c97dc995b5bdd9959603a1b602082015261233c565b34610493575f36600319011261049357610acb612285565b60035460ff8160e01c1615610b0b5760ff60e01b1916600355337f5db9ee0a495bf2e6ff9c91a7834c1ba4fdd244a5e8aa4e537bd38aeae4b073aa5f80a2005b60405162461bcd60e51b815260206004820152601460248201527314185d5cd8589b194e881b9bdd081c185d5cd95960621b6044820152606490fd5b34610493575f366003190112610493576007546040516001600160a01b039091168152602090f35b34610493576020366003190112610493576001600160a01b03610b9061047d565b165f52600f602052602060ff60405f205416604051908152f35b34610493576020366003190112610493576001600160a01b03610bcb61047d565b165f526011602052602060ff60405f2054166040519015158152f35b34610493575f36600319011261049357602060405162093a808152f35b34610493576020366003190112610493576001600160a01b03610c2561047d565b165f526010602052602060405f2054604051908152f35b34610493575f3660031901126104935760175460405160a09190911c6001600160401b03168152602090f35b34610493575f366003190112610493576017546040516001600160a01b039091168152602090f35b3461049357604036600319011261049357610ca961047d565b6001600160a01b039081165f908152600e602090815260408083206024358452825291829020549151919092168152f35b34610493575f366003190112610493576006546040516001600160a01b039091168152602090f35b34610493575f36600319011261049357602060ff60035460e01c166040519015158152f35b34610493575f36600319011261049357610d4960ff60035460e01c16156120db565b610d51612591565b6020610d5c33612149565b60016004556040516001600160a01b039091168152f35b34610493575f36600319011261049357602060405160018152f35b3461049357602036600319011261049357610de66001600160a01b03610db261047d565b165f818152600960205260409020546001600160a01b031615159081610dea575b5060405190151581529081906020820190565b0390f35b8091505f52600960205260018060a01b0360405f2054165f52600860205260018060a01b03610e1b60405f20611ca5565b16145f610dd3565b34610493575f366003190112610493576020601254604051908152f35b3461049357602036600319011261049357610e5961047d565b610e61612285565b6001600160a01b038116908115610f3157600354610eb29190610e909060a01c6001600160401b031615611f2d565b600380546001600160a01b0319166001600160a01b0392909216919091179055565b610ef2610ec7426001600160401b0316611cc6565b60038054600160a01b600160e01b03191660a09290921b600160a01b600160e01b0316919091179055565b60035460405160a09190911c6001600160401b031681527f139c5347770995c23b1e768308632d39bb6806801a98cf7d64e68feb4092c06390602090a2005b60405162461bcd60e51b815260206004820152601460248201527327aba71d103d32b9379031b7b73a3937b63632b960611b6044820152606490fd5b34610493575f36600319011261049357610f85612285565b60175460a081901c6001600160401b0316801590811561102c575b5061097657610fb1610fd391610471565b600780546001600160a01b0319166001600160a01b0392909216919091179055565b7f8aad84fcad50e723fa3bcf0fb32c5bea4c71078b77b9aedfa638f146f3a3f7b961100e611002601754610471565b6040519182918261050e565b0390a1601780546001600160e01b03191690556106ee610971611f79565b905042105f610fa0565b34610493575f3660031901126104935760206040516202a3008152f35b34610493575f366003190112610493576001546001600160a01b031633036110c1576002546110909060a01c6001600160401b0316421115611fa2565b5f5433906001600160a01b03906110a690610471565b165f516020615c0e5f395f51905f525f80a361083933611ce0565b60405162461bcd60e51b815260206004820152601660248201527527aba71d103737ba103832b73234b7339037bbb732b960511b6044820152606490fd5b34610493575f366003190112610493576002546040516001600160a01b039091168152602090f35b346104935760203660031901126104935761114061047d565b6002546001600160a01b0316330361119657610839906001600160a01b03811661116b811515611fe6565b5f546001600160a01b039061117f90610471565b165f516020615c0e5f395f51905f525f80a3611ce0565b60405162461bcd60e51b815260206004820152601d60248201527f4f574e3a206e6f7420656d657267656e637920636f6e74726f6c6c65720000006044820152606490fd5b34610493575f366003190112610493576111f3612285565b60035461120660ff8260e01c16156120db565b60ff60e01b1916600160e01b17600355337f62e78cea01bee320cd4e420270b5ea74000d11b0c9f74754ebdbfc544b05a2585f80a2005b346104935760403660031901126104935761125661047d565b61125e610497565b90611267612591565b335f9081526011602052604090205460ff1615611283565b1590565b6113e8576001600160a01b03811691821580156113d7575b610791576112b86112b36112ae846104c3565b611ca5565b610471565b156113c857823b15610493576040516307f9edf960e31b8152925f84806112e2856004830161050e565b038183855af19384156113c35761139f946113a9575b5061132061131061130b6112ae866104c3565b6104dc565b80546001600160a01b0319169055565b61134c8261132d856104c3565b80546001600160a01b0319166001600160a01b03909216919091179055565b6113598361132d846104dc565b33916001600160a01b0316907f52cee09e6df362796dbf90cf41ad28907e2807c968c7cdacd8c87445cdb190515f80a4611391612029565b611399611d8c565b9161260e565b6106ee6001600455565b806113b75f6113bd93611d15565b80610593565b5f6112f8565b61201e565b632cf4447760e11b5f5260045ffd5b506001600160a01b0381161561129b565b63eb238a9b60e01b5f5260045ffd5b34610493575f366003190112610493575f546040516001600160a01b039091168152602090f35b34610493575f36600319011261049357611436612285565b60035460a081901c6001600160401b031661145281151561204e565b42106114e75761149161146f611469600254610471565b92610471565b600280546001600160a01b0319166001600160a01b0392909216919091179055565b600380546001600160e01b03191690556002546001600160a01b03906114b690610471565b16906001600160a01b03167f2e8141caf5e7501960d8d6012fe36a5ab7838a62d75e6792901cee89ab8001965f80a3005b60405162461bcd60e51b81526020600482015260146024820152734f574e3a2074696d656c6f636b2061637469766560601b6044820152606490fd5b346104935760203660031901126104935763017cb40360e71b5f5260045ffd5b34610493575f366003190112610493576003546040516001600160a01b039091168152602090f35b34610493576020366003190112610493576001600160a01b0361158c61047d565b165f52600c602052602060018060a01b0360405f205416604051908152f35b34610493576020366003190112610493576115c461047d565b6115cc612285565b6001600160a01b0316801561079157601480546001600160a01b031916821790556040519081527f284c94f67d0686e02b2a725b783482c162a97a7628662252372a15b54301518690602090a16106ee60405161162a604082611d15565b600f81526e1a1d5897d8dbdd5b98da5b17dcd95d608a1b602082015261233c565b346104935760603660031901126104935761166461047d565b5061166d610497565b506116766104ad565b5061167f612285565b63479325e360e11b5f5260045ffd5b34610493575f366003190112610493576005546040516001600160a01b039091168152602090f35b34610493576020366003190112610493576116cf61047d565b6116db6112ae826104c3565b6001600160a01b038116919082156113c857823303611837576040516354387ad760e01b81526001600160a01b0383169190602081600481865afa9081156113c35760029160ff915f91611818575b501610611809576040516306ad7a7160e51b8152602081600481865afa9081156113c35760029160ff915f916117da575b5016106117cb5761127f61176f91836126d1565b6117bc576106ee92611790611783846104f5565b805460ff19166001179055565b7f0217db72fc6e46d60d28a0549ebc23e64f51bf0adb27b832a7376b4e247ae9f35f80a36113916120b0565b631530870560e01b5f5260045ffd5b633efc886b60e01b5f5260045ffd5b6117fc915060203d602011611802575b6117f48183611d15565b810190612097565b5f61175b565b503d6117ea565b631bed1a0960e31b5f5260045ffd5b611831915060203d602011611802576117f48183611d15565b5f61172a565b6301349de760e11b5f5260045ffd5b34610493576020366003190112610493576001600160a01b0361186761047d565b165f52600a602052602060ff60405f2054166040519015158152f35b34610493576020366003190112610493576020610d5c6118a161047d565b6118b360ff60035460e01c16156120db565b6118bb612591565b612149565b34610493575f366003190112610493576020604051621275008152f35b34610493575f366003190112610493576015546040516001600160a01b039091168152602090f35b34610493575f366003190112610493576014546040516001600160a01b039091168152602090f35b34610493575f366003190112610493576001546040516001600160a01b039091168152602090f35b34610493575f3660031901126104935761196d612285565b60155460a081901c6001600160401b03168015908115611a08575b50610976576119996119bb91610471565b600580546001600160a01b0319166001600160a01b0392909216919091179055565b7f77035913569424ed432f15a527aa4e0317cbefd28ce0fe9cdfe61acd77345c176119ea611002601554610471565b0390a1601580546001600160e01b03191690556106ee610971612264565b905042105f611988565b3461049357602036600319011261049357611a2b61047d565b611a33612285565b6001600160a01b03168015610791577fc180721bcf345bcc03ffea83911c5dbd747010d54ede1172f5470c89ba4e4b4c6020611a77426001600160401b0316611cc6565b60178054600160a01b600160e01b031986166001600160e01b03199091161760a083901b600160a01b600160e01b03161790556040516001600160401b039091168152a26106ee611ac6611da0565b701a1d5897d9185bd7dcd8da19591d5b1959607a1b602082015261233c565b34610493575f3660031901126104935760155460405160a09190911c6001600160401b03168152602090f35b34610493576020366003190112610493576001600160a01b03611b3261047d565b165f52600b602052602060018060401b0360405f205416604051908152f35b3461049357602036600319011261049357611b6a61047d565b611b72612285565b6001600160a01b0316611b86811515611fe6565b600180546001600160a01b031916821790554262093a808101908110611c025760028054600160a01b600160e01b03191660a09290921b600160a01b600160e01b03169190911790555f80546001600160a01b0316907f38d16b8cac22d99fc7c124b9cd0de2d3fa1faef420bfe791d8c362d765e227009080a3005b611cb2565b34610493575f36600319011261049357611c1f612285565b600354611c3a60a082901c6001600160401b0316151561204e565b6001600160e01b0319166003557fb205cbeedf25e8cb84969b0360670dbfab45d5996607417b83db531a77fa23165f80a1005b34610493576020366003190112610493576001600160a01b03611c8e61047d565b165f526013602052602060405f2054604051908152f35b546001600160a01b031690565b634e487b7160e01b5f52601160045260245ffd5b6001600160401b039081166202a3000191908211611c0257565b5f80546001600160a01b0319166001600160a01b0392909216919091179055565b634e487b7160e01b5f52604160045260245ffd5b601f909101601f19168101906001600160401b03821190821017611d3857604052565b611d01565b90611d4b6040519283611d15565b565b60405190611d5c604083611d15565b60148252565b60405190611d71604083611d15565b60198252565b60405190611d86604083611d15565b60178252565b60405190611d9b602083611d15565b5f8252565b60405190611daf604083611d15565b60118252565b60405190611dc4604083611d15565b60138252565b60405190611dd9604083611d15565b600d8252565b6001600160a01b03168015610791577ffb23f35122b2fa1fb6208f934f7aa9a56cbc2f07d7c64153dae37d964a4794f26020611e23426001600160401b0316611cc6565b60158054600160a01b600160e01b031986166001600160e01b03199091161760a083901b600160a01b600160e01b03161790556040516001600160401b039091168152a2611d4b611e72611db5565b721a1d5897dd999a591957dcd8da19591d5b1959606a1b602082015261233c565b6001600160a01b03811615611efc57611eb4611eae826123c3565b916124d8565b6020815191012060405190602082019260ff60f81b84523060601b60218401526035830152605582015260558152611eed607582611d15565b5190206001600160a01b031690565b505f90565b60405190611f10604083611d15565b600e82526d1a1d5897db195919d95c97dcd95d60921b6020830152565b15611f3457565b60405162461bcd60e51b815260206004820152601e60248201527f4f574e3a2070656e64696e6720636f6e74726f6c6c65722065786973747300006044820152606490fd5b60405190611f88604083611d15565b600b82526a1a1d5897d9185bd7dcd95d60aa1b6020830152565b15611fa957565b60405162461bcd60e51b815260206004820152601560248201527413d5d38e881d1c985b9cd9995c88195e1c1a5c9959605a1b6044820152606490fd5b15611fed57565b60405162461bcd60e51b81526020600482015260096024820152684f574e3a207a65726f60b81b6044820152606490fd5b6040513d5f823e3d90fd5b612031611da0565b90703932b1b7bb32b93cafb937ba30ba34b7b760791b6020830152565b1561205557565b60405162461bcd60e51b815260206004820152601a60248201527927aba71d103737903832b73234b7339031b7b73a3937b63632b960311b6044820152606490fd5b90816020910312610493575160ff811681036104935790565b6120b8611d77565b9076677561726469616e5f73657475705f636f6d706c65746560481b6020830152565b156120e257565b60405162461bcd60e51b815260206004820152601060248201526f14185d5cd8589b194e881c185d5cd95960821b6044820152606490fd5b5f198114611c025760010190565b612130611dca565b906c1d985d5b1d17d8dc99585d1959609a1b6020830152565b6001600160a01b03811691908215610791576121696112b3600554610471565b156107915761217a6112ae826104dc565b6001600160a01b03811661225f5750612192816123c3565b61219b826124d8565b6020815191015ff5926001600160a01b03841691821561225057806121c68661132d6121cf946104dc565b61132d866104c3565b6121e56121db856104f5565b805460ff19169055565b6121f86121f360125461211a565b601255565b6001600160a01b0384165f9081526013602052604090204290557f5d9c31ffa0fecffd7cf379989a3c7af252f0335e0d2a1320b55245912c781f535f80a3611d4b612241612128565b612249611d8c565b908461260e565b6335d9b76360e11b5f5260045ffd5b925050565b61226c611dca565b906c1a1d5897dd999a591957dcd95d609a1b6020830152565b5f546001600160a01b0316330361229857565b60405162461bcd60e51b815260206004820152600e60248201526d27aba71d103737ba1037bbb732b960911b6044820152606490fd5b805180835260209291819084018484015e5f828201840152601f01601f1916010190565b916123189060409295949560018060a01b031684526060602085015260608401906122ce565b6001600160a01b03909416910152565b9060206123399281815201906122ce565b90565b6006546001600160a01b031680612351575050565b803b15610493575f6040518092633ddd61ab60e21b825281838161237a338930600485016122f2565b03925af190816123af575b506123ac575f516020615bee5f395f51905f52604051806123a7309482612328565b0390a2565b50565b806113b75f6123bd93611d15565b5f612385565b60405160609190911b6001600160601b0319166020820190815260148252906123ed603482611d15565b51902090565b8051156124005760200190565b634e487b7160e01b5f52603260045260245ffd5b6001600160a01b03918216815291811660208084019190915292811660408301529092166060830152610120608083018190528351908301819052919493926101408601929101905f5b8181106124a7575050600160a08601525092611d4b91906101009068056bc75e2d6310000060c0820152681043561a882930000060e08201526001600160a01b03909216910152565b82516001600160a01b031684526020938401939092019160010161245e565b805191908290602001825e015f815290565b604080519091906124e98382611d15565b6001815261258b926123399261256d91601f190136602085013761251f81612510856123f3565b6001600160a01b039091169052565b61257b6133e59361253260208601611d3d565b94808652612809602087013961256d61254c600554610471565b9161255b6112b3600654610471565b90856040519687953060208801612414565b03601f198101835282611d15565b60405194859360208501906124c6565b906124c6565b6001600454036125a2576002600455565b60405162461bcd60e51b815260206004820152600a6024820152697265656e7472616e637960b01b6044820152606490fd5b6001600160a01b03909116815260806020820181905261233994926125fb918301906122ce565b92604082015260608184039101526122ce565b600654919290916001600160a01b03168061262a575b50505050565b803b1561049357604051630303c28760e61b8152915f91839182908490829061265990838b8b600486016125d4565b03925af190816126a8575b506126a1576040516001600160a01b03909116915f516020615bee5f395f51905f52919081906126949082612328565b0390a25b5f808080612624565b5050612698565b806113b75f6126b693611d15565b5f612664565b908160209103126104935751612339816109e5565b6040516354387ad760e01b81526001600160a01b039190911690602081600481855afa9081156113c35760029160ff915f916127e9575b501614918261278b575b508161271d57501590565b61274c9150602090612730600754610471565b906040518080958194630c68ba2160e01b83526004830161050e565b03915afa9081156113c3575f9161276257501590565b61127f915060203d602011612784575b61277c8183611d15565b8101906126bc565b503d612772565b604051630c68ba2160e01b8152919250602090829081906127af906004830161050e565b0381855afa9081156113c3575f916127ca575b50905f612712565b6127e3915060203d6020116127845761277c8183611d15565b5f6127c2565b612802915060203d602011611802576117f48183611d15565b5f61270856fe60e0604052346103ea576133e5803803806100198161041a565b9283398101610120828203126103ea576100328261043f565b9161003f6020820161043f565b9061004c6040820161043f565b6100586060830161043f565b60808301519095906001600160401b0381116103ea5783019480601f870112156103ea578551956001600160401b038711610406578660051b906020806100a081850161041a565b809a815201928201019283116103ea57602001905b8282106103ee5750505060a08301519560ff8716928388036103ea5760c0850151956100e961010060e0880151970161043f565b60015f55936001600160a01b0381161580156103d9575b80156103c8575b80156103b7575b61026f57885180159081156103ac575b5061039357851580156103a2575b610393578715801561038b575b8015610382575b6103735760805260a052600180546001600160a01b0319166001600160a01b03928316179055600380546001600160e01b03191692821692909217600160a01b179091551660c05260088390556009829055600b80546001600160401b031916426001600160401b03161790555f5b845181101561027e57600581901b8501602001516001600160a01b031690811561026f57815f52600660205260ff60405f205416156101f3575b60019150016101af565b815f52600660205260405f20600160ff198254161790556007549160ff83169260ff841461025b5760ff6001809501169060ff1916176007557fc4459d655e1efe034a75446f1f4db087f75d23bdfabccffafa6384cdb23a15446020604051858152a26101e9565b634e487b7160e01b5f52601160045260245ffd5b630e4388a960e41b5f5260045ffd5b7f18d34f810bd407758d93e46e358a840a59ea1fceea4a130b219f39208241fb19604085857f6f9257d5f266b01ecb7d3ff872838aaad56a316fc8f5a54f18de8245545fda976020878c61ff006007549160081b169061ff001916176007558551908152a182519182526020820152a1604051612f91908161045482396080518181816103ea0152818161063e01528181611279015281816115a20152818161185a015281816119e501528181611a7e01526124f3015260a05181818161084a015281816109e101528181610ac5015281816114bb0152818161192a01526127b9015260c0518181816111b20152612de90152f35b635146dd2360e11b5f5260045ffd5b50868811610140565b508615610139565b63459fc52b60e11b5f5260045ffd5b508851861161012c565b60149150115f61011e565b506001600160a01b0384161561010e565b506001600160a01b03831615610107565b506001600160a01b03821615610100565b5f80fd5b602080916103fb8461043f565b8152019101906100b5565b634e487b7160e01b5f52604160045260245ffd5b6040519190601f01601f191682016001600160401b0381118382101761040657604052565b51906001600160a01b03821682036103ea5756fe608080604052600436101561001c575b50361561001a575f80fd5b005b5f3560e01c9081630289480314611e29575080630c0c60ed146115825780630c68ba2114611dec5780630e18b68114611d905780630ebb172a146111805780631291f79d14611cee578063174e709d14611c9e5780631b0aed2c14611bc35780632678224714611b9b5780632a80bdfe14611a3e5780632b8a1c5a146119aa57806331d559f8146118b157806335804ddf14611889578063365a86fc14611845578063397c1dc9146117fc5780633a8606b1146117e25780633c384d33146117985780633f4ba83a146117515780633fcf6fc814611587578063422c1d371461158257806343e819b7146113d357806343ee3f381461121d5780635425b3a11461120157806354387ad7146111e157806356397c351461119d5780635c16bb4d146111805780635c975abb1461115e5780635d0897e1146110c3578063610bf6ac14610f745780636b6fe5e914610f1c57806375829def14610ea65780637a1a759514610e7d5780637a3962b314610d785780637ac7460614610d4c5780638456cb5914610ce35780639460307114610cc65780639638845d14610c9e5780639a39deb214610c2b578063a3f4df7e14610c10578063a8e5e4aa14610a89578063ab91c7b014610a6c578063b2118a8d14610997578063b3ba806114610896578063b5354ce514610879578063b8a71eec14610835578063c822adda146107a4578063c92a1aba14610716578063d1129bf3146106f9578063d113831a146105f1578063d5af4e20146105ce578063d69c3d30146105b1578063ddaf3e4d146103bf578063f059cf2b146103a2578063f698da2514610380578063f714af6f14610363578063f851a4401461033b578063fb49fe27146102d55763ffa1ad74146102a6575f61000f565b346102d1575f3660031901126102d1576102cd6102c1612084565b60405191829182611ff0565b0390f35b5f80fd5b346102d1575f3660031901126102d1576001546001600160a01b0316330361032c5760018060a01b03601354165f6013557f5ae227c61b99acf187c3d22024c93e59de6781577dae8a3ba642a5cc1b9d7c405f80a2005b631c4e2e8f60e31b5f5260045ffd5b346102d1575f3660031901126102d1576001546040516001600160a01b039091168152602090f35b346102d1575f3660031901126102d1576020600954604051908152f35b346102d1575f3660031901126102d157602061039a612ace565b604051908152f35b346102d1575f3660031901126102d1576020600a54604051908152f35b346102d1575f3660031901126102d1576040516337e4eb4d60e21b81523060048201526020816024817f00000000000000000000000000000000000000000000000000000000000000006001600160a01b03165afa9081156105a6575f91610577575b5015610568576001546001600160a01b031633141580610551575b6105425761044961211f565b80516001600160a01b0316156105335760208101516001600160401b031642106105245760ff60408201511660ff60075460081c16116105155760035490516001600160a01b0316600160a01b600160e01b036104bd6001600160a01b03198416831760a01c6001600160401b0316612227565b6001600160e01b0319841690921760a092831b919091161760038190555f600f81905560108190559181901c6001600160401b0316926001600160a01b03918216929116905f516020612f255f395f51905f529080a4005b63c5708c9360e01b5f5260045ffd5b63a063056d60e01b5f5260045ffd5b63254aa7b560e21b5f5260045ffd5b632c1a12db60e21b5f5260045ffd5b50335f52600660205260ff60405f2054161561043d565b6312600b9960e31b5f5260045ffd5b610599915060203d60201161059f575b6105918183611fa1565b810190612107565b81610422565b503d610587565b6040513d5f823e3d90fd5b346102d1575f3660031901126102d1576020600454604051908152f35b346102d1575f3660031901126102d157602060ff60075460081c16604051908152f35b346102d15760203660031901126102d15760043560ff8116908181036102d1576001546001600160a01b0316330361032c576040516337e4eb4d60e21b81523060048201526020816024817f00000000000000000000000000000000000000000000000000000000000000006001600160a01b03165afa80156105a657610680915f916106da575b5015612175565b811580156106cc575b6106bd575f516020612f655f395f51905f529160209161ff006007549160081b169061ff00191617600755604051908152a1005b63459fc52b60e11b5f5260045ffd5b5060ff600754168211610689565b6106f3915060203d60201161059f576105918183611fa1565b84610679565b346102d1575f3660031901126102d1576020600854604051908152f35b346102d15761072436611f41565b6001546001600160a01b0316330361032c578115801561079c575b8015610793575b61078457816040917f18d34f810bd407758d93e46e358a840a59ea1fceea4a130b219f39208241fb19936008558060095582519182526020820152a1005b635146dd2360e11b5f5260045ffd5b50808211610746565b50801561073f565b346102d15760203660031901126102d157600435600c548110156102d1576107cd60e091612054565b5060018060a01b038154169060ff6001820154916003600282015491015492604051948552602085015260018060401b038116604085015260018060401b038160401c166060850152818160801c161515608085015260881c16151560a083015260c0820152f35b346102d1575f3660031901126102d1576040517f00000000000000000000000000000000000000000000000000000000000000006001600160a01b03168152602090f35b346102d1575f3660031901126102d1576020600e54604051908152f35b346102d1576108a436611e77565b6001549091906001600160a01b0316330361032c576001600160a01b0316908115610988577fc771bc666275b68eb6b99c96a6727e9353ce587a19edfb26c56a608c90fdf86b90604090610974426001600160401b03166109048161223f565b84519361091085611f86565b8785521515602085018190525f196001871b0182169486019490945260138054600160a01b600160e81b031989166001600160e81b03199091161760a086901b60ff60a01b161760a89290921b600160a81b600160e81b031691909117905561223f565b8251918252600180841b03166020820152a2005b630e4388a960e41b5f5260045ffd5b346102d1576109a53661201a565b600154919290916001600160a01b0316330361032c576109c3612b43565b6001600160a01b03831615610988576001600160a01b0390811692907f0000000000000000000000000000000000000000000000000000000000000000168314610a1657610a1092612cfa565b60015f55005b60405162461bcd60e51b815260206004820152602860248201527f4342563a2063616e6e6f74207265736375652056464944452076696120726573604482015267063756545524332360c41b6064820152608490fd5b346102d1575f3660031901126102d1576020600c54604051908152f35b346102d157610a973661201a565b6001549092906001600160a01b0316330361032c5760ff60055416610c01576001600160a01b0390811691907f0000000000000000000000000000000000000000000000000000000000000000168214610bbc576001600160a01b03811692610b018415156121cc565b8215610b8557602081610b2993604051948592839263095ea7b360e01b84526004840161220c565b03815f875af19081156105a6577fce1bda4e2f1dd20031592d5a83736e721e3040b498d71a91c98940282a15ba7492602092610b6a575b50604051908152a3005b610b8090833d851161059f576105918183611fa1565b610b60565b60405162461bcd60e51b815260206004820152600f60248201526e21a12b1d103d32b937903a37b5b2b760891b6044820152606490fd5b60405162461bcd60e51b815260206004820152601f60248201527f4342563a2075736520617070726f7665564649444520666f72205646494445006044820152606490fd5b63042fa77160e41b5f5260045ffd5b346102d1575f3660031901126102d1576102cd6102c1611fc4565b346102d157366003190161010081126102d15760e0136102d15760e4356001600160401b0381116102d157366023820112156102d15760048101356001600160401b0381116102d15736602482840101116102d157610c88612b43565b60ff60055416610c01576024610a1092016124db565b346102d1575f3660031901126102d157600b546040516001600160401b039091168152602090f35b346102d1575f3660031901126102d1576020601154604051908152f35b346102d1575f3660031901126102d1576001546001600160a01b031633141580610d35575b61054257600160ff196005541617600555604051600181525f516020612ee55f395f51905f5260203392a2005b50335f52600660205260ff60405f20541615610d08565b346102d1575f3660031901126102d15760035460405160a09190911c6001600160401b03168152602090f35b346102d15760e03660031901126102d1576004356001600160a01b038116908181036102d157506024356001600160a01b03811691908281036102d157506084356001600160401b03811692908381036102d1575060a435926001600160401b038416908185036102d1576020945060405192858401945f516020612f455f395f51905f52865260408501526060840152604435608084015260643560a084015260c083015260e082015260c4356101008201526101008152610e3d61012082611fa1565b519020610e48612ace565b90604051908382019261190160f01b84526022830152604282015260428152610e72606282611fa1565b519020604051908152f35b346102d1576102cd610e97610e9136611f41565b90612317565b60409391935193849384611ed9565b346102d15760203660031901126102d157610ebf611e61565b6001546001600160a01b0316903382900361032c576001600160a01b031690811561098857600280546001600160a01b031916831790557fe5cd1c804f1c9cc6d7009e4c0fb532f0e2d8863524c3323a6b3790c3f80bf25c5f80a3005b346102d15760203660031901126102d157600154600435906001600160a01b0316330361032c576020817f688d44c3d360a86e88021973d52ad2554ac873195130ffd858eb848be877388192600e55604051908152a1005b346102d1575f3660031901126102d1575f5f600c54905b81811061106c5750610f9c826122d1565b90610faf610fa9846122d1565b936122d1565b905f5f5b828110610fcd575050506102cd9060405193849384611ed9565b60ff6002610fda83612054565b50015460801c161580611051575b610ff5575b600101610fb3565b90611049818361100760019489612303565b528261101285612054565b50015461101f828a612303565b5261102984612054565b506002848060401b0391015460401c166110438288612303565b526122ac565b919050610fed565b5060ff600261105f83612054565b50015460881c1615610fe8565b60ff600261107983612054565b50015460801c1615806110a8575b611094575b600101610f8b565b916110a06001916122ac565b92905061108c565b5060ff60026110b683612054565b50015460881c1615611087565b346102d1575f3660031901126102d1576001546001600160a01b0316330361032c576040516110f181611f86565b6013546001600160a01b038116825260a081901c60ff1615156020830190815260a89190911c6001600160401b0316604083018190528015908115611154575b506106bd575f6013559051905161001a91901515906001600160a01b0316612b84565b9050421083611131565b346102d1575f3660031901126102d157602060ff600554166040519015158152f35b346102d1575f3660031901126102d157602060405162093a808152f35b346102d1575f3660031901126102d1576040517f00000000000000000000000000000000000000000000000000000000000000006001600160a01b03168152602090f35b346102d1575f3660031901126102d157602060ff60075416604051908152f35b346102d1575f3660031901126102d15760206040516102588152f35b346102d15760403660031901126102d157611236611e61565b6024356001600160401b03811691908290036102d1576001546001600160a01b0316330361032c576040516337e4eb4d60e21b81523060048201526020816024817f00000000000000000000000000000000000000000000000000000000000000006001600160a01b03165afa9081156105a6575f916113b4575b5015610568576001600160a01b031690811561098857610258811080156113a8575b610524576112f06112e56011546122ac565b91826011554261229f565b8160606040516112ff81611f57565b8581526001600160401b038481166020808401919091525f6040808501919091529390920193909352600f8054600160a01b600160e01b0360a096871b166001600160e81b0319909116600160a01b600160e81b0319891617179081905560109590955560035460115492519590941c909216845293926001600160a01b03909216917fa28b6ab99d71ecaf84d16661952fc906e09c6096615a6fbe29204c21efc970609190a4005b5062093a8081116112d3565b6113cd915060203d60201161059f576105918183611fa1565b836112b1565b346102d15760203660031901126102d1576004356113ef612b43565b60ff60055416610c0157600c548110156115735761140c81612054565b50906002820191825460ff8160801c168015611566575b6115575760401c6001600160401b03164210611548576001546001600160a01b0316330361032c57611453612cbb565b600a5490611467600182019283549061229f565b6009541061153957835460ff60801b1916600160801b17909355600d54610a10939060ff81168061151d575b50506114a28254600a5461229f565b600a55805482546114e0916001600160a01b03908116907f000000000000000000000000000000000000000000000000000000000000000016612cfa565b60018060a01b03905416809154927fd6cddb3d69146e96ebc2c87b1b3dd0b20ee2d3b0eadf134e011afb434a3e56e66020604051868152a3612de7565b61152860ff916120e1565b169060ff191617600d558480611493565b63279d2f9160e01b5f5260045ffd5b636d974cf560e01b5f5260045ffd5b63da5d2e4560e01b5f5260045ffd5b5060ff8160881c16611423565b63eef6df7960e01b5f5260045ffd5b611e46565b346102d15760203660031901126102d1576115a0611e61565b7f00000000000000000000000000000000000000000000000000000000000000006001600160a01b0316330361171c576001600160a01b031680156116e4576003546001546001600160a01b03808316939290821691839182600160a01b600160e01b036116256001600160a01b03198416831760a01c6001600160401b0316612227565b60a01b169163ffffffff60e01b16171760035560018060a01b0319161760015560018060a01b031960025416600255600160ff1960055416176005555f600f555f6010558082847fa5dc30e9ff31b04409df2318a9fd27546333fb83da4d007bdbee39c494846d3d6020604051848152a460018060401b0360035460a01c1682604051945f516020612f255f395f51905f525f80a45f516020612f055f395f51905f525f80a3600181525f516020612ee55f395f51905f5260203392a2005b60405162461bcd60e51b815260206004820152601060248201526f10d0958e881e995c9bc81dd85b1b195d60821b6044820152606490fd5b60405162461bcd60e51b815260206004820152600d60248201526c21a12b1d1037b7363c90343ab160991b6044820152606490fd5b346102d1575f3660031901126102d1576001546001600160a01b0316330361032c5760ff19600554166005556040515f81525f516020612ee55f395f51905f5260203392a2005b346102d1575f3660031901126102d157601354604080516001600160a01b038316815260a083901c60ff161515602082015260a89290921c6001600160401b031690820152606090f35b346102d1575f3660031901126102d157602061039a612259565b346102d15760403660031901126102d1576001600160a01b0361181d611e61565b165f52601260205260405f206024355f52602052602060ff60405f2054166040519015158152f35b346102d1575f3660031901126102d1576040517f00000000000000000000000000000000000000000000000000000000000000006001600160a01b03168152602090f35b346102d1575f3660031901126102d1576003546040516001600160a01b039091168152602090f35b346102d15760403660031901126102d1576118ca611e61565b600154602435906001600160a01b0316330361032c5760ff60055416610c01576001600160a01b038216916119259190602090829061190a8615156121cc565b60405163095ea7b360e01b815294859283926004840161220c565b03815f7f00000000000000000000000000000000000000000000000000000000000000006001600160a01b03165af19081156105a6577fdbb7105d7dc41668df230e5be9d018b32b76fa24d02376890ee40fef045332499260209261198f575b50604051908152a2005b6119a590833d851161059f576105918183611fa1565b611985565b346102d1576119b836611e77565b6001546001600160a01b0316330361032c576040516337e4eb4d60e21b81523060048201526020816024817f00000000000000000000000000000000000000000000000000000000000000006001600160a01b03165afa80156105a657611a26915f916106da575015612175565b6001600160a01b038216156109885761001a91612b84565b346102d1575f3660031901126102d157335f52600660205260ff60405f20541615610542576040516337e4eb4d60e21b81523060048201526020816024817f00000000000000000000000000000000000000000000000000000000000000006001600160a01b03165afa9081156105a6575f91611b7c575b501561056857611ac461211f565b80516001600160a01b03161561053357335f52601260205260405f2090606081019182515f5260205260ff60405f2054166105155760ff6040611b2892335f526012602052815f2085515f52602052815f2060018419825416179055015116612163565b600f805460ff60e01b191660e092831b60ff60e01b16179081905591516040519290911c60ff1682529033907ff593a6860c0cb8a0ea6937e767031431094e6045983212c023a929216f91b17b90602090a3005b611b95915060203d60201161059f576105918183611fa1565b81611ab6565b346102d1575f3660031901126102d1576002546040516001600160a01b039091168152602090f35b346102d15760203660031901126102d15760043560018060a01b036001541633141580611c87575b61054257600c54811015611573576002611c0482612054565b5001805460ff8160801c168015611c7a575b6115575760ff60881b1916600160881b179055600d5460ff811680611c5e575b33837f13c630dd37c22cad8d02f5d249d447222f855d1ca8986dd17b248ca4b9d8c29a5f80a3005b611c6960ff916120e1565b169060ff191617600d558180611c36565b5060ff8160881c16611c16565b50335f52600660205260ff60405f20541615611beb565b346102d1575f3660031901126102d157600f54601054604080516001600160a01b038416815260a084901c6001600160401b0316602082015260e09390931c60ff16908301526060820152608090f35b346102d15760403660031901126102d1576004356001600160a01b038116908190036102d157600154602435906001600160a01b0316330361032c57611d32612b43565b8115610988575f8080808486612710f1611d4a6120a3565b5015611d815760207f7160dcf36e1d44cf315b41b1908a0570261d6f7e4c5078b392d54598a9c2b59d91604051908152a260015f55005b6324a081dd60e01b5f5260045ffd5b346102d1575f3660031901126102d1576002546001600160a01b038116903382900361032c57600180546001600160a01b0319808216851790925591166002556001600160a01b03165f516020612f055f395f51905f525f80a3005b346102d15760203660031901126102d1576001600160a01b03611e0d611e61565b165f526006602052602060ff60405f2054166040519015158152f35b346102d1575f3660031901126102d15760209060ff600d54168152f35b346102d1575f3660031901126102d157602060405160148152f35b600435906001600160a01b03821682036102d157565b60409060031901126102d1576004356001600160a01b03811681036102d1579060243580151581036102d15790565b90602080835192838152019201905f5b818110611ec35750505090565b8251845260209384019390920191600101611eb6565b91611eef611efd92606085526060850190611ea6565b908382036020850152611ea6565b906040818303910152602080835192838152019201905f5b818110611f225750505090565b82516001600160401b0316845260209384019390920191600101611f15565b60409060031901126102d1576004359060243590565b608081019081106001600160401b03821117611f7257604052565b634e487b7160e01b5f52604160045260245ffd5b606081019081106001600160401b03821117611f7257604052565b601f909101601f19168101906001600160401b03821190821017611f7257604052565b60405190611fd3604083611fa1565b600e82526d10d85c99109bdd5b9915985d5b1d60921b6020830152565b602060409281835280519182918282860152018484015e5f828201840152601f01601f1916010190565b60609060031901126102d1576004356001600160a01b03811681036102d157906024356001600160a01b03811681036102d1579060443590565b600c5481101561207057600c5f5260205f209060021b01905f90565b634e487b7160e01b5f52603260045260245ffd5b60405190612093604083611fa1565b60018252603160f81b6020830152565b3d156120dc573d906001600160401b038211611f7257604051916120d1601f8201601f191660200184611fa1565b82523d5f602084013e565b606090565b60ff5f199116019060ff82116120f357565b634e487b7160e01b5f52601160045260245ffd5b908160209103126102d1575180151581036102d15790565b6040519061212c82611f57565b600f546001600160a01b038116835260a081901c6001600160401b0316602084015260e01c60ff1660408301526010546060830152565b60ff60019116019060ff82116120f357565b1561217c57565b60405162461bcd60e51b815260206004820152602260248201527f4342563a207573652070726f706f73652f6170706c7920616674657220736574604482015261075760f41b6064820152608490fd5b156121d357565b60405162461bcd60e51b815260206004820152601160248201527021a12b1d103d32b9379039b832b73232b960791b6044820152606490fd5b6001600160a01b039091168152602081019190915260400190565b6001600160401b03908116600101919082116120f357565b6001600160401b039081166201518001919082116120f357565b600b546001600160401b039061227090821661223f565b1642101561229957600a5460095490818110156122935781039081116120f35790565b50505f90565b60095490565b919082018092116120f357565b5f1981146120f35760010190565b6001600160401b038111611f725760051b60200190565b906122db826122ba565b6122e86040519182611fa1565b82815280926122f9601f19916122ba565b0190602036910137565b80518210156120705760209160051b010190565b600c5492918382108015906124ba575b61246f57612335908261229f565b92808411612467575b505f91815b8481106124105750612354836122d1565b93612367612361856122d1565b946122d1565b925f905b82811061237757505050565b60ff600261238483612054565b50015460801c1615806123f5575b61239f575b60010161236b565b906123ed81836123b16001948b612303565b52826123bc85612054565b5001546123c9828a612303565b526123d384612054565b506002848060401b0391015460401c166110438289612303565b919050612397565b5060ff600261240383612054565b50015460881c1615612392565b60ff600261241d83612054565b50015460801c16158061244c575b612438575b600101612343565b926124446001916122ac565b939050612430565b5060ff600261245a83612054565b50015460881c161561242b565b92505f61233e565b505090506020604051916124838284611fa1565b5f83525f368137604051926124988385611fa1565b5f84525f368137604051926124ad8185611fa1565b5f8452505f368137929190565b508015612327565b9081526001600160401b03909116602082015260400190565b6040516337e4eb4d60e21b81523060048201529091907f00000000000000000000000000000000000000000000000000000000000000006001600160a01b031690602081602481855afa9081156105a6575f91612aaf575b5015610568576004356001600160a01b038116938482036102d157308503612a0457602435926001600160a01b038416918285141591826102d15783158015612aa3575b8015612a93575b612a6557826102d15760206024916040519283809263652b9b4160e01b82528860048301525afa9081156105a6575f91612a74575b5015612a655760c43590468203612a5657608435976001600160401b038916808a141593846102d15760035460a01c6001600160401b03168203612a475760a4356001600160401b038116908181036102d157428210612a3857606435996004548b03612a29576044359c8d158015612a1e575b6107845761263f8e612637612cbb565b600a5461229f565b6009541061153957604103612a04578581036102d15750888b036102d157866102d1578181036102d157506040519260208401945f516020612f455f395f51905f52865260408501528860608501528b60808501528960a085015260c084015260e083015261010082015261010081526126bb61012082611fa1565b5190206126c6612ace565b9060405190602082019261190160f01b845260228301526042820152604281526126f1606282611fa1565b5190209060208101359160408201355f1a90601b82141580612a13575b612a04576fa2a8918ca85bafe22016d0b997e4df60600160ff1b038411612a04576020935f9360809360405193845286840152356040830152606082015282805260015afa156105a6575f516001600160a01b0316918215612a04576003546001600160a01b031683036129f557600454600181018091116120f357600455600e5480151590816129ea575b50612818576127ab87600a5461229f565b600a556102d1576127e686867f00000000000000000000000000000000000000000000000000000000000000006001600160a01b0316612cfa565b6102d1575f516020612ec55f395f51905f5261280e87612816985060405191829189836124c2565b0390a4612de7565b565b5050601460ff600d541610156129db576001600160401b0342811662093a8081019182116120f35760405160e081016001600160401b03811182821017611f7257604052848152602081019188835260408201908152606082019060018060401b0385168252608083015f815260a08401905f825260c08501938a8552600c54600160401b811015611f72578060016128b49201600c55612054565b9790976129c857955187546001600160a01b0319166001600160a01b03919091161787559451600187015591516002860180549551935192516001600160901b03199096166001600160401b03929092169190911760409390931b600160401b600160801b03169290921790151560801b60ff60801b161792151560881b60ff60881b16929092179091555160039190910155600d5460ff612957828216612163565b169060ff191617600d55600c545f1981019081116120f357612816978461280e927f6f172dddbb75f760ff0cd9b3e748ba9bc8c867bb7c4d45a2146b8a7372bdf3d65f516020612ec55f395f51905f52958b6129b8604051928392836124c2565b0390a360405191829189836124c2565b634e487b7160e01b5f525f60045260245ffd5b635957529d60e01b5f5260045ffd5b90508710155f61279a565b63321063ad60e21b5f5260045ffd5b63110995a560e21b5f5260045ffd5b50601c82141561270e565b508d60085410612627565b637e1e7fbb60e11b5f5260045ffd5b633d61cf3b60e01b5f5260045ffd5b63aa4e549360e01b5f5260045ffd5b631741ae3f60e11b5f5260045ffd5b634c3c0ae560e01b5f5260045ffd5b612a8d915060203d60201161059f576105918183611fa1565b5f6125b3565b50826102d15761dead841461257e565b505f9250308414612577565b612ac8915060203d60201161059f576105918183611fa1565b5f612533565b612ad6611fc4565b60208151910120612ae5612084565b602081519101206040519060208201927f8b73c3c69bb8fe3d512ecc4cf759cc79239f7b179b0ffacaa9a75d522b39400f8452604083015260608201524660808201523060a082015260a08152612b3d60c082611fa1565b51902090565b60015f5403612b525760025f55565b60405162461bcd60e51b815260206004820152600a6024820152697265656e7472616e637960b01b6044820152606490fd5b6001600160a01b03165f8181526006602052604090205490918015159160ff1615158214612cb657825f52600660205260405f2060ff1981541660ff84161790555f14612c455760075460ff811660148110156106bd5760ff81146120f357600160ff9101169060ff1916176007555b60075460ff811615908115612c36575b506106bd5760207fc4459d655e1efe034a75446f1f4db087f75d23bdfabccffafa6384cdb23a154491604051908152a2565b60ff915060081c16155f612c04565b60075460ff811680156120f35760ff905f190116908160ff1982161790816007558260ff8360081c1611612c7c575b505050612bf4565b5f516020612f655f395f51905f529261ff0060209360081b169161ffff191617178060075560ff6040519160081c168152a15f8080612c74565b505050565b600b546001600160401b03612cd181831661223f565b16421015612cdc5750565b6001600160401b031916426001600160401b031617600b555f600a55565b5f929183612d24612d328295604051928391602083019663a9059cbb60e01b88526024840161220c565b03601f198101835282611fa1565b51926001600160a01b03165af1612d476120a3565b81612d97575b5015612d5557565b60405162461bcd60e51b815260206004820152601a60248201527914d85999515490cc8c0e881d1c985b9cd9995c8819985a5b195960321b6044820152606490fd5b8051801592508215612dac575b50505f612d4d565b612dbf9250602080918301019101612107565b5f80612da4565b600e81526d1d985d5b1d17dd1bd7dd985d5b1d60921b602082015260400190565b7f00000000000000000000000000000000000000000000000000000000000000006001600160a01b03169081612e1c57505050565b813b156102d15760405163276106f560e01b81523060048201526001600160a01b0390911660248201526044810192909252608060648301525f908290818381612e6860848201612dc6565b03925af19081612eb4575b5061281657604051602081527fb7abea003d08339a2c4d36bd01b90b5b76431bac7c6c595dc24199b7118039bc309180612eaf60208201612dc6565b0390a2565b5f612ebe91611fa1565b5f612e7356fe6e559806aa859f04654bb6b593f4b0dda251ee511c32bea027efd200f0f3f016876ac871b274fde6485cb9379131064ad0f9e474e05524731ea2203d313d6920f8ccb027dfcd135e000e9d45e6cc2d662578a8825d4c45b5e32e0adf67e79ec675847a8665af8ab6b47f5a8c6fa06ddad27c7c6a0b7818db178d7fb3134bbd407c3807263d8c0ce25f1e7d199b6f9667f4fe4d8ceda5b6a29ea7816a0f95bcb86f9257d5f266b01ecb7d3ff872838aaad56a316fc8f5a54f18de8245545fda97a164736f6c634300081e000ab7abea003d08339a2c4d36bd01b90b5b76431bac7c6c595dc24199b7118039bc8be0079c531659141344cd1fd0a4f28419497f9722a3daafe3b4186f6b6457e0a164736f6c634300081e000a",
  "linkReferences": {},
  "deployedLinkReferences": {},
  "immutableReferences": {},
  "inputSourceName": "project/contracts/VaultHub.sol",
  "buildInfoId": "solc-0_8_30-eb3c3eb3f489c22ef4cbefc3c943e8dfd03cb654"
}