{
  "_format": "hh3-artifact-1",
  "contractName": "VFIDEBridge",
  "sourceName": "contracts/VFIDEBridge.sol",
  "abi": [
    {
      "inputs": [
        {
          "internalType": "address",
          "name": "_vfideToken",
          "type": "address"
        },
        {
          "internalType": "address",
          "name": "_endpoint",
          "type": "address"
        },
        {
          "internalType": "address",
          "name": "_owner",
          "type": "address"
        }
      ],
      "stateMutability": "nonpayable",
      "type": "constructor"
    },
    {
      "inputs": [],
      "name": "ConfirmationSendFailed",
      "type": "error"
    },
    {
      "inputs": [],
      "name": "DuplicateMessage",
      "type": "error"
    },
    {
      "inputs": [],
      "name": "EnforcedPause",
      "type": "error"
    },
    {
      "inputs": [],
      "name": "ExpectedPause",
      "type": "error"
    },
    {
      "inputs": [],
      "name": "InvalidAmount",
      "type": "error"
    },
    {
      "inputs": [],
      "name": "InvalidDelegate",
      "type": "error"
    },
    {
      "inputs": [],
      "name": "InvalidDestination",
      "type": "error"
    },
    {
      "inputs": [],
      "name": "InvalidEndpointCall",
      "type": "error"
    },
    {
      "inputs": [],
      "name": "InvalidFee",
      "type": "error"
    },
    {
      "inputs": [
        {
          "internalType": "bytes",
          "name": "options",
          "type": "bytes"
        }
      ],
      "name": "InvalidOptions",
      "type": "error"
    },
    {
      "inputs": [],
      "name": "InvalidRemote",
      "type": "error"
    },
    {
      "inputs": [],
      "name": "LzTokenUnavailable",
      "type": "error"
    },
    {
      "inputs": [
        {
          "internalType": "uint32",
          "name": "eid",
          "type": "uint32"
        }
      ],
      "name": "NoPeer",
      "type": "error"
    },
    {
      "inputs": [
        {
          "internalType": "uint256",
          "name": "msgValue",
          "type": "uint256"
        }
      ],
      "name": "NotEnoughNative",
      "type": "error"
    },
    {
      "inputs": [
        {
          "internalType": "address",
          "name": "addr",
          "type": "address"
        }
      ],
      "name": "OnlyEndpoint",
      "type": "error"
    },
    {
      "inputs": [
        {
          "internalType": "uint32",
          "name": "eid",
          "type": "uint32"
        },
        {
          "internalType": "bytes32",
          "name": "sender",
          "type": "bytes32"
        }
      ],
      "name": "OnlyPeer",
      "type": "error"
    },
    {
      "inputs": [
        {
          "internalType": "address",
          "name": "owner",
          "type": "address"
        }
      ],
      "name": "OwnableInvalidOwner",
      "type": "error"
    },
    {
      "inputs": [
        {
          "internalType": "address",
          "name": "account",
          "type": "address"
        }
      ],
      "name": "OwnableUnauthorizedAccount",
      "type": "error"
    },
    {
      "inputs": [],
      "name": "RateLimitExceeded",
      "type": "error"
    },
    {
      "inputs": [],
      "name": "ReentrancyGuardReentrantCall",
      "type": "error"
    },
    {
      "inputs": [
        {
          "internalType": "address",
          "name": "token",
          "type": "address"
        }
      ],
      "name": "SafeERC20FailedOperation",
      "type": "error"
    },
    {
      "inputs": [],
      "name": "TransferFailed",
      "type": "error"
    },
    {
      "anonymous": false,
      "inputs": [
        {
          "indexed": true,
          "internalType": "bytes32",
          "name": "txId",
          "type": "bytes32"
        }
      ],
      "name": "BridgeDeliveryConfirmed",
      "type": "event"
    },
    {
      "anonymous": false,
      "inputs": [],
      "name": "BridgeFeeCancelled",
      "type": "event"
    },
    {
      "anonymous": false,
      "inputs": [
        {
          "indexed": false,
          "internalType": "uint256",
          "name": "pendingFee",
          "type": "uint256"
        },
        {
          "indexed": false,
          "internalType": "uint64",
          "name": "effectiveAt",
          "type": "uint64"
        }
      ],
      "name": "BridgeFeeScheduled",
      "type": "event"
    },
    {
      "anonymous": false,
      "inputs": [
        {
          "indexed": false,
          "internalType": "uint256",
          "name": "oldFee",
          "type": "uint256"
        },
        {
          "indexed": false,
          "internalType": "uint256",
          "name": "newFee",
          "type": "uint256"
        }
      ],
      "name": "BridgeFeeUpdated",
      "type": "event"
    },
    {
      "anonymous": false,
      "inputs": [
        {
          "indexed": true,
          "internalType": "address",
          "name": "receiver",
          "type": "address"
        },
        {
          "indexed": true,
          "internalType": "uint32",
          "name": "srcChainId",
          "type": "uint32"
        },
        {
          "indexed": false,
          "internalType": "uint256",
          "name": "amount",
          "type": "uint256"
        },
        {
          "indexed": false,
          "internalType": "bytes32",
          "name": "txId",
          "type": "bytes32"
        }
      ],
      "name": "BridgeReceived",
      "type": "event"
    },
    {
      "anonymous": false,
      "inputs": [
        {
          "indexed": true,
          "internalType": "address",
          "name": "sender",
          "type": "address"
        },
        {
          "indexed": true,
          "internalType": "bytes32",
          "name": "txId",
          "type": "bytes32"
        },
        {
          "indexed": false,
          "internalType": "uint256",
          "name": "amount",
          "type": "uint256"
        }
      ],
      "name": "BridgeRefunded",
      "type": "event"
    },
    {
      "anonymous": false,
      "inputs": [
        {
          "indexed": true,
          "internalType": "address",
          "name": "sender",
          "type": "address"
        },
        {
          "indexed": true,
          "internalType": "uint32",
          "name": "dstChainId",
          "type": "uint32"
        },
        {
          "indexed": true,
          "internalType": "address",
          "name": "receiver",
          "type": "address"
        },
        {
          "indexed": false,
          "internalType": "uint256",
          "name": "amount",
          "type": "uint256"
        },
        {
          "indexed": false,
          "internalType": "uint256",
          "name": "fee",
          "type": "uint256"
        },
        {
          "indexed": false,
          "internalType": "bytes32",
          "name": "txId",
          "type": "bytes32"
        }
      ],
      "name": "BridgeSent",
      "type": "event"
    },
    {
      "anonymous": false,
      "inputs": [],
      "name": "DailyBridgeLimitCancelled",
      "type": "event"
    },
    {
      "anonymous": false,
      "inputs": [
        {
          "indexed": false,
          "internalType": "uint256",
          "name": "pendingLimit",
          "type": "uint256"
        },
        {
          "indexed": false,
          "internalType": "uint64",
          "name": "effectiveAt",
          "type": "uint64"
        }
      ],
      "name": "DailyBridgeLimitScheduled",
      "type": "event"
    },
    {
      "anonymous": false,
      "inputs": [
        {
          "indexed": false,
          "internalType": "uint256",
          "name": "oldLimit",
          "type": "uint256"
        },
        {
          "indexed": false,
          "internalType": "uint256",
          "name": "newLimit",
          "type": "uint256"
        }
      ],
      "name": "DailyBridgeLimitUpdated",
      "type": "event"
    },
    {
      "anonymous": false,
      "inputs": [
        {
          "indexed": false,
          "internalType": "uint64",
          "name": "startedAt",
          "type": "uint64"
        }
      ],
      "name": "DailyBridgeWindowReset",
      "type": "event"
    },
    {
      "anonymous": false,
      "inputs": [
        {
          "indexed": true,
          "internalType": "uint32",
          "name": "dstChainId",
          "type": "uint32"
        },
        {
          "indexed": true,
          "internalType": "bytes32",
          "name": "txId",
          "type": "bytes32"
        },
        {
          "indexed": false,
          "internalType": "string",
          "name": "reason",
          "type": "string"
        }
      ],
      "name": "DeliveryConfirmationSkipped",
      "type": "event"
    },
    {
      "anonymous": false,
      "inputs": [],
      "name": "EmergencyWithdrawCancelled",
      "type": "event"
    },
    {
      "anonymous": false,
      "inputs": [
        {
          "indexed": true,
          "internalType": "address",
          "name": "token",
          "type": "address"
        },
        {
          "indexed": false,
          "internalType": "uint256",
          "name": "amount",
          "type": "uint256"
        }
      ],
      "name": "EmergencyWithdrawExecuted",
      "type": "event"
    },
    {
      "anonymous": false,
      "inputs": [
        {
          "indexed": true,
          "internalType": "address",
          "name": "token",
          "type": "address"
        },
        {
          "indexed": false,
          "internalType": "uint256",
          "name": "amount",
          "type": "uint256"
        },
        {
          "indexed": false,
          "internalType": "uint64",
          "name": "effectiveAt",
          "type": "uint64"
        }
      ],
      "name": "EmergencyWithdrawScheduled",
      "type": "event"
    },
    {
      "anonymous": false,
      "inputs": [
        {
          "components": [
            {
              "internalType": "uint32",
              "name": "eid",
              "type": "uint32"
            },
            {
              "internalType": "uint16",
              "name": "msgType",
              "type": "uint16"
            },
            {
              "internalType": "bytes",
              "name": "options",
              "type": "bytes"
            }
          ],
          "indexed": false,
          "internalType": "struct EnforcedOptionParam[]",
          "name": "_enforcedOptions",
          "type": "tuple[]"
        }
      ],
      "name": "EnforcedOptionSet",
      "type": "event"
    },
    {
      "anonymous": false,
      "inputs": [
        {
          "indexed": false,
          "internalType": "bool",
          "name": "active",
          "type": "bool"
        },
        {
          "indexed": false,
          "internalType": "uint256",
          "name": "expiry",
          "type": "uint256"
        }
      ],
      "name": "ExemptCheckBypassSet",
      "type": "event"
    },
    {
      "anonymous": false,
      "inputs": [],
      "name": "FeeCollectorCancelled",
      "type": "event"
    },
    {
      "anonymous": false,
      "inputs": [
        {
          "indexed": true,
          "internalType": "address",
          "name": "pendingCollector",
          "type": "address"
        },
        {
          "indexed": false,
          "internalType": "uint64",
          "name": "effectiveAt",
          "type": "uint64"
        }
      ],
      "name": "FeeCollectorScheduled",
      "type": "event"
    },
    {
      "anonymous": false,
      "inputs": [
        {
          "indexed": true,
          "internalType": "address",
          "name": "oldCollector",
          "type": "address"
        },
        {
          "indexed": true,
          "internalType": "address",
          "name": "newCollector",
          "type": "address"
        }
      ],
      "name": "FeeCollectorUpdated",
      "type": "event"
    },
    {
      "anonymous": false,
      "inputs": [],
      "name": "MaxBridgeAmountCancelled",
      "type": "event"
    },
    {
      "anonymous": false,
      "inputs": [
        {
          "indexed": false,
          "internalType": "uint256",
          "name": "pendingAmount",
          "type": "uint256"
        },
        {
          "indexed": false,
          "internalType": "uint64",
          "name": "effectiveAt",
          "type": "uint64"
        }
      ],
      "name": "MaxBridgeAmountScheduled",
      "type": "event"
    },
    {
      "anonymous": false,
      "inputs": [
        {
          "indexed": false,
          "internalType": "uint256",
          "name": "oldAmount",
          "type": "uint256"
        },
        {
          "indexed": false,
          "internalType": "uint256",
          "name": "newAmount",
          "type": "uint256"
        }
      ],
      "name": "MaxBridgeAmountUpdated",
      "type": "event"
    },
    {
      "anonymous": false,
      "inputs": [
        {
          "indexed": true,
          "internalType": "address",
          "name": "previousOwner",
          "type": "address"
        },
        {
          "indexed": true,
          "internalType": "address",
          "name": "newOwner",
          "type": "address"
        }
      ],
      "name": "OwnershipTransferStarted",
      "type": "event"
    },
    {
      "anonymous": false,
      "inputs": [
        {
          "indexed": true,
          "internalType": "address",
          "name": "previousOwner",
          "type": "address"
        },
        {
          "indexed": true,
          "internalType": "address",
          "name": "newOwner",
          "type": "address"
        }
      ],
      "name": "OwnershipTransferred",
      "type": "event"
    },
    {
      "anonymous": false,
      "inputs": [
        {
          "indexed": false,
          "internalType": "address",
          "name": "account",
          "type": "address"
        }
      ],
      "name": "Paused",
      "type": "event"
    },
    {
      "anonymous": false,
      "inputs": [
        {
          "indexed": false,
          "internalType": "uint32",
          "name": "eid",
          "type": "uint32"
        },
        {
          "indexed": false,
          "internalType": "bytes32",
          "name": "peer",
          "type": "bytes32"
        }
      ],
      "name": "PeerSet",
      "type": "event"
    },
    {
      "anonymous": false,
      "inputs": [],
      "name": "SecurityModuleCancelled",
      "type": "event"
    },
    {
      "anonymous": false,
      "inputs": [
        {
          "indexed": true,
          "internalType": "address",
          "name": "pendingModule",
          "type": "address"
        },
        {
          "indexed": false,
          "internalType": "uint64",
          "name": "effectiveAt",
          "type": "uint64"
        }
      ],
      "name": "SecurityModuleScheduled",
      "type": "event"
    },
    {
      "anonymous": false,
      "inputs": [
        {
          "indexed": true,
          "internalType": "address",
          "name": "oldModule",
          "type": "address"
        },
        {
          "indexed": true,
          "internalType": "address",
          "name": "newModule",
          "type": "address"
        }
      ],
      "name": "SecurityModuleUpdated",
      "type": "event"
    },
    {
      "anonymous": false,
      "inputs": [
        {
          "indexed": true,
          "internalType": "uint32",
          "name": "chainId",
          "type": "uint32"
        }
      ],
      "name": "TrustedRemoteCancelled",
      "type": "event"
    },
    {
      "anonymous": false,
      "inputs": [
        {
          "indexed": true,
          "internalType": "uint32",
          "name": "chainId",
          "type": "uint32"
        },
        {
          "indexed": false,
          "internalType": "bytes32",
          "name": "remote",
          "type": "bytes32"
        },
        {
          "indexed": false,
          "internalType": "uint64",
          "name": "effectiveAt",
          "type": "uint64"
        }
      ],
      "name": "TrustedRemoteScheduled",
      "type": "event"
    },
    {
      "anonymous": false,
      "inputs": [
        {
          "indexed": true,
          "internalType": "uint32",
          "name": "chainId",
          "type": "uint32"
        },
        {
          "indexed": false,
          "internalType": "bytes32",
          "name": "remote",
          "type": "bytes32"
        }
      ],
      "name": "TrustedRemoteSet",
      "type": "event"
    },
    {
      "anonymous": false,
      "inputs": [
        {
          "indexed": false,
          "internalType": "address",
          "name": "account",
          "type": "address"
        }
      ],
      "name": "Unpaused",
      "type": "event"
    },
    {
      "inputs": [],
      "name": "BRIDGE_REFUND_DELAY",
      "outputs": [
        {
          "internalType": "uint256",
          "name": "",
          "type": "uint256"
        }
      ],
      "stateMutability": "view",
      "type": "function"
    },
    {
      "inputs": [],
      "name": "CONFIG_TIMELOCK_DELAY",
      "outputs": [
        {
          "internalType": "uint64",
          "name": "",
          "type": "uint64"
        }
      ],
      "stateMutability": "view",
      "type": "function"
    },
    {
      "inputs": [],
      "name": "MAX_EXEMPT_CHECK_BYPASS_DURATION",
      "outputs": [
        {
          "internalType": "uint256",
          "name": "",
          "type": "uint256"
        }
      ],
      "stateMutability": "view",
      "type": "function"
    },
    {
      "inputs": [],
      "name": "MIN_BRIDGE_AMOUNT",
      "outputs": [
        {
          "internalType": "uint256",
          "name": "",
          "type": "uint256"
        }
      ],
      "stateMutability": "view",
      "type": "function"
    },
    {
      "inputs": [],
      "name": "OWNERSHIP_TRANSFER_EXPIRY",
      "outputs": [
        {
          "internalType": "uint64",
          "name": "",
          "type": "uint64"
        }
      ],
      "stateMutability": "view",
      "type": "function"
    },
    {
      "inputs": [
        {
          "internalType": "uint32",
          "name": "_dstChainId",
          "type": "uint32"
        },
        {
          "internalType": "bytes",
          "name": "payload",
          "type": "bytes"
        },
        {
          "internalType": "bytes",
          "name": "options",
          "type": "bytes"
        },
        {
          "internalType": "uint256",
          "name": "nativeFee",
          "type": "uint256"
        }
      ],
      "name": "__sendDeliveryConfirmation",
      "outputs": [],
      "stateMutability": "nonpayable",
      "type": "function"
    },
    {
      "inputs": [],
      "name": "acceptOwnership",
      "outputs": [],
      "stateMutability": "nonpayable",
      "type": "function"
    },
    {
      "inputs": [
        {
          "internalType": "bytes32",
          "name": "txId",
          "type": "bytes32"
        }
      ],
      "name": "adminMarkBridgeExecuted",
      "outputs": [],
      "stateMutability": "nonpayable",
      "type": "function"
    },
    {
      "inputs": [
        {
          "components": [
            {
              "internalType": "uint32",
              "name": "srcEid",
              "type": "uint32"
            },
            {
              "internalType": "bytes32",
              "name": "sender",
              "type": "bytes32"
            },
            {
              "internalType": "uint64",
              "name": "nonce",
              "type": "uint64"
            }
          ],
          "internalType": "struct Origin",
          "name": "origin",
          "type": "tuple"
        }
      ],
      "name": "allowInitializePath",
      "outputs": [
        {
          "internalType": "bool",
          "name": "",
          "type": "bool"
        }
      ],
      "stateMutability": "view",
      "type": "function"
    },
    {
      "inputs": [],
      "name": "applyBridgeFee",
      "outputs": [],
      "stateMutability": "nonpayable",
      "type": "function"
    },
    {
      "inputs": [],
      "name": "applyDailyBridgeLimit",
      "outputs": [],
      "stateMutability": "nonpayable",
      "type": "function"
    },
    {
      "inputs": [],
      "name": "applyEmergencyWithdraw",
      "outputs": [],
      "stateMutability": "nonpayable",
      "type": "function"
    },
    {
      "inputs": [],
      "name": "applyFeeCollector",
      "outputs": [],
      "stateMutability": "nonpayable",
      "type": "function"
    },
    {
      "inputs": [],
      "name": "applyMaxBridgeAmount",
      "outputs": [],
      "stateMutability": "nonpayable",
      "type": "function"
    },
    {
      "inputs": [],
      "name": "applySecurityModule",
      "outputs": [],
      "stateMutability": "nonpayable",
      "type": "function"
    },
    {
      "inputs": [
        {
          "internalType": "uint32",
          "name": "_chainId",
          "type": "uint32"
        }
      ],
      "name": "applyTrustedRemote",
      "outputs": [],
      "stateMutability": "nonpayable",
      "type": "function"
    },
    {
      "inputs": [],
      "name": "availableLiquidity",
      "outputs": [
        {
          "internalType": "uint256",
          "name": "",
          "type": "uint256"
        }
      ],
      "stateMutability": "view",
      "type": "function"
    },
    {
      "inputs": [
        {
          "internalType": "uint32",
          "name": "_dstChainId",
          "type": "uint32"
        },
        {
          "internalType": "address",
          "name": "_to",
          "type": "address"
        },
        {
          "internalType": "uint256",
          "name": "_amount",
          "type": "uint256"
        },
        {
          "internalType": "bytes",
          "name": "_options",
          "type": "bytes"
        }
      ],
      "name": "bridge",
      "outputs": [
        {
          "internalType": "bytes32",
          "name": "",
          "type": "bytes32"
        }
      ],
      "stateMutability": "payable",
      "type": "function"
    },
    {
      "inputs": [],
      "name": "bridgeFee",
      "outputs": [
        {
          "internalType": "uint256",
          "name": "",
          "type": "uint256"
        }
      ],
      "stateMutability": "view",
      "type": "function"
    },
    {
      "inputs": [
        {
          "internalType": "bytes32",
          "name": "",
          "type": "bytes32"
        }
      ],
      "name": "bridgeRefundableAfter",
      "outputs": [
        {
          "internalType": "uint256",
          "name": "",
          "type": "uint256"
        }
      ],
      "stateMutability": "view",
      "type": "function"
    },
    {
      "inputs": [
        {
          "internalType": "bytes32",
          "name": "",
          "type": "bytes32"
        }
      ],
      "name": "bridgeTransactions",
      "outputs": [
        {
          "internalType": "address",
          "name": "sender",
          "type": "address"
        },
        {
          "internalType": "address",
          "name": "receiver",
          "type": "address"
        },
        {
          "internalType": "uint256",
          "name": "amount",
          "type": "uint256"
        },
        {
          "internalType": "uint32",
          "name": "dstChainId",
          "type": "uint32"
        },
        {
          "internalType": "uint256",
          "name": "timestamp",
          "type": "uint256"
        },
        {
          "internalType": "bool",
          "name": "executed",
          "type": "bool"
        }
      ],
      "stateMutability": "view",
      "type": "function"
    },
    {
      "inputs": [],
      "name": "bridgeTxNonce",
      "outputs": [
        {
          "internalType": "uint256",
          "name": "",
          "type": "uint256"
        }
      ],
      "stateMutability": "view",
      "type": "function"
    },
    {
      "inputs": [],
      "name": "cancelBridgeFee",
      "outputs": [],
      "stateMutability": "nonpayable",
      "type": "function"
    },
    {
      "inputs": [],
      "name": "cancelDailyBridgeLimit",
      "outputs": [],
      "stateMutability": "nonpayable",
      "type": "function"
    },
    {
      "inputs": [],
      "name": "cancelEmergencyWithdraw",
      "outputs": [],
      "stateMutability": "nonpayable",
      "type": "function"
    },
    {
      "inputs": [],
      "name": "cancelFeeCollector",
      "outputs": [],
      "stateMutability": "nonpayable",
      "type": "function"
    },
    {
      "inputs": [],
      "name": "cancelMaxBridgeAmount",
      "outputs": [],
      "stateMutability": "nonpayable",
      "type": "function"
    },
    {
      "inputs": [],
      "name": "cancelOwnershipTransfer",
      "outputs": [],
      "stateMutability": "nonpayable",
      "type": "function"
    },
    {
      "inputs": [],
      "name": "cancelSecurityModule",
      "outputs": [],
      "stateMutability": "nonpayable",
      "type": "function"
    },
    {
      "inputs": [
        {
          "internalType": "uint32",
          "name": "_chainId",
          "type": "uint32"
        }
      ],
      "name": "cancelTrustedRemote",
      "outputs": [],
      "stateMutability": "nonpayable",
      "type": "function"
    },
    {
      "inputs": [
        {
          "internalType": "bytes32",
          "name": "txId",
          "type": "bytes32"
        }
      ],
      "name": "claimBridgeRefund",
      "outputs": [],
      "stateMutability": "nonpayable",
      "type": "function"
    },
    {
      "inputs": [
        {
          "internalType": "uint32",
          "name": "_eid",
          "type": "uint32"
        },
        {
          "internalType": "uint16",
          "name": "_msgType",
          "type": "uint16"
        },
        {
          "internalType": "bytes",
          "name": "_extraOptions",
          "type": "bytes"
        }
      ],
      "name": "combineOptions",
      "outputs": [
        {
          "internalType": "bytes",
          "name": "",
          "type": "bytes"
        }
      ],
      "stateMutability": "view",
      "type": "function"
    },
    {
      "inputs": [],
      "name": "dailyBridgeLimit",
      "outputs": [
        {
          "internalType": "uint256",
          "name": "",
          "type": "uint256"
        }
      ],
      "stateMutability": "view",
      "type": "function"
    },
    {
      "inputs": [],
      "name": "dailyBridgeResetTime",
      "outputs": [
        {
          "internalType": "uint64",
          "name": "",
          "type": "uint64"
        }
      ],
      "stateMutability": "view",
      "type": "function"
    },
    {
      "inputs": [],
      "name": "dailyBridgeVolume",
      "outputs": [
        {
          "internalType": "uint256",
          "name": "",
          "type": "uint256"
        }
      ],
      "stateMutability": "view",
      "type": "function"
    },
    {
      "inputs": [
        {
          "internalType": "address",
          "name": "_token",
          "type": "address"
        },
        {
          "internalType": "uint256",
          "name": "_amount",
          "type": "uint256"
        }
      ],
      "name": "emergencyWithdraw",
      "outputs": [],
      "stateMutability": "nonpayable",
      "type": "function"
    },
    {
      "inputs": [],
      "name": "endpoint",
      "outputs": [
        {
          "internalType": "contract ILayerZeroEndpointV2",
          "name": "",
          "type": "address"
        }
      ],
      "stateMutability": "view",
      "type": "function"
    },
    {
      "inputs": [
        {
          "internalType": "uint32",
          "name": "eid",
          "type": "uint32"
        },
        {
          "internalType": "uint16",
          "name": "msgType",
          "type": "uint16"
        }
      ],
      "name": "enforcedOptions",
      "outputs": [
        {
          "internalType": "bytes",
          "name": "enforcedOption",
          "type": "bytes"
        }
      ],
      "stateMutability": "view",
      "type": "function"
    },
    {
      "inputs": [],
      "name": "exemptCheckBypass",
      "outputs": [
        {
          "internalType": "bool",
          "name": "",
          "type": "bool"
        }
      ],
      "stateMutability": "view",
      "type": "function"
    },
    {
      "inputs": [],
      "name": "exemptCheckBypassExpiry",
      "outputs": [
        {
          "internalType": "uint256",
          "name": "",
          "type": "uint256"
        }
      ],
      "stateMutability": "view",
      "type": "function"
    },
    {
      "inputs": [],
      "name": "feeCollector",
      "outputs": [
        {
          "internalType": "address",
          "name": "",
          "type": "address"
        }
      ],
      "stateMutability": "view",
      "type": "function"
    },
    {
      "inputs": [],
      "name": "getPendingOutboundAmount",
      "outputs": [
        {
          "internalType": "uint256",
          "name": "",
          "type": "uint256"
        }
      ],
      "stateMutability": "view",
      "type": "function"
    },
    {
      "inputs": [],
      "name": "getPoolHealth",
      "outputs": [
        {
          "internalType": "uint256",
          "name": "lockedBalance",
          "type": "uint256"
        },
        {
          "internalType": "uint256",
          "name": "totalOut",
          "type": "uint256"
        },
        {
          "internalType": "uint256",
          "name": "totalIn",
          "type": "uint256"
        },
        {
          "internalType": "int256",
          "name": "netFlow",
          "type": "int256"
        },
        {
          "internalType": "bool",
          "name": "isHealthy",
          "type": "bool"
        }
      ],
      "stateMutability": "view",
      "type": "function"
    },
    {
      "inputs": [
        {
          "internalType": "address",
          "name": "_user",
          "type": "address"
        }
      ],
      "name": "getUserStats",
      "outputs": [
        {
          "components": [
            {
              "internalType": "uint256",
              "name": "totalSent",
              "type": "uint256"
            },
            {
              "internalType": "uint256",
              "name": "totalReceived",
              "type": "uint256"
            },
            {
              "internalType": "uint256",
              "name": "lastBridgeTime",
              "type": "uint256"
            },
            {
              "internalType": "uint256",
              "name": "bridgeCount",
              "type": "uint256"
            }
          ],
          "internalType": "struct VFIDEBridge.BridgeStats",
          "name": "",
          "type": "tuple"
        }
      ],
      "stateMutability": "view",
      "type": "function"
    },
    {
      "inputs": [
        {
          "components": [
            {
              "internalType": "uint32",
              "name": "srcEid",
              "type": "uint32"
            },
            {
              "internalType": "bytes32",
              "name": "sender",
              "type": "bytes32"
            },
            {
              "internalType": "uint64",
              "name": "nonce",
              "type": "uint64"
            }
          ],
          "internalType": "struct Origin",
          "name": "",
          "type": "tuple"
        },
        {
          "internalType": "bytes",
          "name": "",
          "type": "bytes"
        },
        {
          "internalType": "address",
          "name": "_sender",
          "type": "address"
        }
      ],
      "name": "isComposeMsgSender",
      "outputs": [
        {
          "internalType": "bool",
          "name": "",
          "type": "bool"
        }
      ],
      "stateMutability": "view",
      "type": "function"
    },
    {
      "inputs": [],
      "name": "isExemptCheckBypassActive",
      "outputs": [
        {
          "internalType": "bool",
          "name": "",
          "type": "bool"
        }
      ],
      "stateMutability": "view",
      "type": "function"
    },
    {
      "inputs": [
        {
          "components": [
            {
              "internalType": "uint32",
              "name": "srcEid",
              "type": "uint32"
            },
            {
              "internalType": "bytes32",
              "name": "sender",
              "type": "bytes32"
            },
            {
              "internalType": "uint64",
              "name": "nonce",
              "type": "uint64"
            }
          ],
          "internalType": "struct Origin",
          "name": "_origin",
          "type": "tuple"
        },
        {
          "internalType": "bytes32",
          "name": "_guid",
          "type": "bytes32"
        },
        {
          "internalType": "bytes",
          "name": "_message",
          "type": "bytes"
        },
        {
          "internalType": "address",
          "name": "_executor",
          "type": "address"
        },
        {
          "internalType": "bytes",
          "name": "_extraData",
          "type": "bytes"
        }
      ],
      "name": "lzReceive",
      "outputs": [],
      "stateMutability": "payable",
      "type": "function"
    },
    {
      "inputs": [],
      "name": "maxBridgeAmount",
      "outputs": [
        {
          "internalType": "uint256",
          "name": "",
          "type": "uint256"
        }
      ],
      "stateMutability": "view",
      "type": "function"
    },
    {
      "inputs": [
        {
          "internalType": "uint32",
          "name": "",
          "type": "uint32"
        },
        {
          "internalType": "bytes32",
          "name": "",
          "type": "bytes32"
        }
      ],
      "name": "nextNonce",
      "outputs": [
        {
          "internalType": "uint64",
          "name": "nonce",
          "type": "uint64"
        }
      ],
      "stateMutability": "view",
      "type": "function"
    },
    {
      "inputs": [],
      "name": "oAppVersion",
      "outputs": [
        {
          "internalType": "uint64",
          "name": "senderVersion",
          "type": "uint64"
        },
        {
          "internalType": "uint64",
          "name": "receiverVersion",
          "type": "uint64"
        }
      ],
      "stateMutability": "pure",
      "type": "function"
    },
    {
      "inputs": [],
      "name": "owner",
      "outputs": [
        {
          "internalType": "address",
          "name": "",
          "type": "address"
        }
      ],
      "stateMutability": "view",
      "type": "function"
    },
    {
      "inputs": [],
      "name": "pause",
      "outputs": [],
      "stateMutability": "nonpayable",
      "type": "function"
    },
    {
      "inputs": [],
      "name": "paused",
      "outputs": [
        {
          "internalType": "bool",
          "name": "",
          "type": "bool"
        }
      ],
      "stateMutability": "view",
      "type": "function"
    },
    {
      "inputs": [
        {
          "internalType": "uint32",
          "name": "eid",
          "type": "uint32"
        }
      ],
      "name": "peers",
      "outputs": [
        {
          "internalType": "bytes32",
          "name": "peer",
          "type": "bytes32"
        }
      ],
      "stateMutability": "view",
      "type": "function"
    },
    {
      "inputs": [],
      "name": "pendingBridgeFee",
      "outputs": [
        {
          "internalType": "uint256",
          "name": "",
          "type": "uint256"
        }
      ],
      "stateMutability": "view",
      "type": "function"
    },
    {
      "inputs": [],
      "name": "pendingBridgeFeeAt",
      "outputs": [
        {
          "internalType": "uint64",
          "name": "",
          "type": "uint64"
        }
      ],
      "stateMutability": "view",
      "type": "function"
    },
    {
      "inputs": [],
      "name": "pendingDailyBridgeLimit",
      "outputs": [
        {
          "internalType": "uint256",
          "name": "",
          "type": "uint256"
        }
      ],
      "stateMutability": "view",
      "type": "function"
    },
    {
      "inputs": [],
      "name": "pendingDailyBridgeLimitAt",
      "outputs": [
        {
          "internalType": "uint64",
          "name": "",
          "type": "uint64"
        }
      ],
      "stateMutability": "view",
      "type": "function"
    },
    {
      "inputs": [],
      "name": "pendingEmergencyWithdraw",
      "outputs": [
        {
          "internalType": "address",
          "name": "token",
          "type": "address"
        },
        {
          "internalType": "uint256",
          "name": "amount",
          "type": "uint256"
        },
        {
          "internalType": "uint64",
          "name": "effectiveAt",
          "type": "uint64"
        }
      ],
      "stateMutability": "view",
      "type": "function"
    },
    {
      "inputs": [],
      "name": "pendingFeeCollector",
      "outputs": [
        {
          "internalType": "address",
          "name": "",
          "type": "address"
        }
      ],
      "stateMutability": "view",
      "type": "function"
    },
    {
      "inputs": [],
      "name": "pendingFeeCollectorAt",
      "outputs": [
        {
          "internalType": "uint64",
          "name": "",
          "type": "uint64"
        }
      ],
      "stateMutability": "view",
      "type": "function"
    },
    {
      "inputs": [],
      "name": "pendingMaxBridgeAmount",
      "outputs": [
        {
          "internalType": "uint256",
          "name": "",
          "type": "uint256"
        }
      ],
      "stateMutability": "view",
      "type": "function"
    },
    {
      "inputs": [],
      "name": "pendingMaxBridgeAmountAt",
      "outputs": [
        {
          "internalType": "uint64",
          "name": "",
          "type": "uint64"
        }
      ],
      "stateMutability": "view",
      "type": "function"
    },
    {
      "inputs": [],
      "name": "pendingOutboundAmount",
      "outputs": [
        {
          "internalType": "uint256",
          "name": "",
          "type": "uint256"
        }
      ],
      "stateMutability": "view",
      "type": "function"
    },
    {
      "inputs": [],
      "name": "pendingOwner",
      "outputs": [
        {
          "internalType": "address",
          "name": "",
          "type": "address"
        }
      ],
      "stateMutability": "view",
      "type": "function"
    },
    {
      "inputs": [],
      "name": "pendingSecurityModule",
      "outputs": [
        {
          "internalType": "address",
          "name": "",
          "type": "address"
        }
      ],
      "stateMutability": "view",
      "type": "function"
    },
    {
      "inputs": [],
      "name": "pendingSecurityModuleAt",
      "outputs": [
        {
          "internalType": "uint64",
          "name": "",
          "type": "uint64"
        }
      ],
      "stateMutability": "view",
      "type": "function"
    },
    {
      "inputs": [
        {
          "internalType": "uint32",
          "name": "",
          "type": "uint32"
        }
      ],
      "name": "pendingTrustedRemotes",
      "outputs": [
        {
          "internalType": "bytes32",
          "name": "remote",
          "type": "bytes32"
        },
        {
          "internalType": "uint64",
          "name": "effectiveAt",
          "type": "uint64"
        }
      ],
      "stateMutability": "view",
      "type": "function"
    },
    {
      "inputs": [
        {
          "internalType": "bytes32",
          "name": "",
          "type": "bytes32"
        }
      ],
      "name": "processedInboundGuids",
      "outputs": [
        {
          "internalType": "bool",
          "name": "",
          "type": "bool"
        }
      ],
      "stateMutability": "view",
      "type": "function"
    },
    {
      "inputs": [
        {
          "internalType": "uint32",
          "name": "_dstChainId",
          "type": "uint32"
        },
        {
          "internalType": "uint256",
          "name": "_amount",
          "type": "uint256"
        },
        {
          "internalType": "bytes",
          "name": "_options",
          "type": "bytes"
        }
      ],
      "name": "quoteBridge",
      "outputs": [
        {
          "internalType": "uint256",
          "name": "nativeFee",
          "type": "uint256"
        }
      ],
      "stateMutability": "view",
      "type": "function"
    },
    {
      "inputs": [
        {
          "internalType": "uint32",
          "name": "_dstChainId",
          "type": "uint32"
        }
      ],
      "name": "quoteDeliveryConfirmation",
      "outputs": [
        {
          "internalType": "uint256",
          "name": "nativeFee",
          "type": "uint256"
        }
      ],
      "stateMutability": "view",
      "type": "function"
    },
    {
      "inputs": [],
      "name": "renounceOwnership",
      "outputs": [],
      "stateMutability": "nonpayable",
      "type": "function"
    },
    {
      "inputs": [],
      "name": "securityModule",
      "outputs": [
        {
          "internalType": "address",
          "name": "",
          "type": "address"
        }
      ],
      "stateMutability": "view",
      "type": "function"
    },
    {
      "inputs": [
        {
          "internalType": "uint256",
          "name": "_fee",
          "type": "uint256"
        }
      ],
      "name": "setBridgeFee",
      "outputs": [],
      "stateMutability": "nonpayable",
      "type": "function"
    },
    {
      "inputs": [
        {
          "internalType": "uint256",
          "name": "_limit",
          "type": "uint256"
        }
      ],
      "name": "setDailyBridgeLimit",
      "outputs": [],
      "stateMutability": "nonpayable",
      "type": "function"
    },
    {
      "inputs": [
        {
          "internalType": "address",
          "name": "_delegate",
          "type": "address"
        }
      ],
      "name": "setDelegate",
      "outputs": [],
      "stateMutability": "nonpayable",
      "type": "function"
    },
    {
      "inputs": [
        {
          "components": [
            {
              "internalType": "uint32",
              "name": "eid",
              "type": "uint32"
            },
            {
              "internalType": "uint16",
              "name": "msgType",
              "type": "uint16"
            },
            {
              "internalType": "bytes",
              "name": "options",
              "type": "bytes"
            }
          ],
          "internalType": "struct EnforcedOptionParam[]",
          "name": "_enforcedOptions",
          "type": "tuple[]"
        }
      ],
      "name": "setEnforcedOptions",
      "outputs": [],
      "stateMutability": "nonpayable",
      "type": "function"
    },
    {
      "inputs": [
        {
          "internalType": "bool",
          "name": "active",
          "type": "bool"
        },
        {
          "internalType": "uint256",
          "name": "duration",
          "type": "uint256"
        }
      ],
      "name": "setExemptCheckBypass",
      "outputs": [],
      "stateMutability": "nonpayable",
      "type": "function"
    },
    {
      "inputs": [
        {
          "internalType": "address",
          "name": "_feeCollector",
          "type": "address"
        }
      ],
      "name": "setFeeCollector",
      "outputs": [],
      "stateMutability": "nonpayable",
      "type": "function"
    },
    {
      "inputs": [
        {
          "internalType": "uint256",
          "name": "_maxAmount",
          "type": "uint256"
        }
      ],
      "name": "setMaxBridgeAmount",
      "outputs": [],
      "stateMutability": "nonpayable",
      "type": "function"
    },
    {
      "inputs": [
        {
          "internalType": "uint32",
          "name": "_eid",
          "type": "uint32"
        },
        {
          "internalType": "bytes32",
          "name": "_peer",
          "type": "bytes32"
        }
      ],
      "name": "setPeer",
      "outputs": [],
      "stateMutability": "nonpayable",
      "type": "function"
    },
    {
      "inputs": [
        {
          "internalType": "address",
          "name": "_securityModule",
          "type": "address"
        }
      ],
      "name": "setSecurityModule",
      "outputs": [],
      "stateMutability": "nonpayable",
      "type": "function"
    },
    {
      "inputs": [
        {
          "internalType": "uint32",
          "name": "_chainId",
          "type": "uint32"
        },
        {
          "internalType": "bytes32",
          "name": "_remote",
          "type": "bytes32"
        }
      ],
      "name": "setTrustedRemote",
      "outputs": [],
      "stateMutability": "nonpayable",
      "type": "function"
    },
    {
      "inputs": [],
      "name": "totalBridgedIn",
      "outputs": [
        {
          "internalType": "uint256",
          "name": "",
          "type": "uint256"
        }
      ],
      "stateMutability": "view",
      "type": "function"
    },
    {
      "inputs": [],
      "name": "totalBridgedOut",
      "outputs": [
        {
          "internalType": "uint256",
          "name": "",
          "type": "uint256"
        }
      ],
      "stateMutability": "view",
      "type": "function"
    },
    {
      "inputs": [
        {
          "internalType": "address",
          "name": "newOwner",
          "type": "address"
        }
      ],
      "name": "transferOwnership",
      "outputs": [],
      "stateMutability": "nonpayable",
      "type": "function"
    },
    {
      "inputs": [
        {
          "internalType": "uint32",
          "name": "",
          "type": "uint32"
        }
      ],
      "name": "trustedRemotes",
      "outputs": [
        {
          "internalType": "bytes32",
          "name": "",
          "type": "bytes32"
        }
      ],
      "stateMutability": "view",
      "type": "function"
    },
    {
      "inputs": [],
      "name": "unpause",
      "outputs": [],
      "stateMutability": "nonpayable",
      "type": "function"
    },
    {
      "inputs": [
        {
          "internalType": "address",
          "name": "",
          "type": "address"
        }
      ],
      "name": "userStats",
      "outputs": [
        {
          "internalType": "uint256",
          "name": "totalSent",
          "type": "uint256"
        },
        {
          "internalType": "uint256",
          "name": "totalReceived",
          "type": "uint256"
        },
        {
          "internalType": "uint256",
          "name": "lastBridgeTime",
          "type": "uint256"
        },
        {
          "internalType": "uint256",
          "name": "bridgeCount",
          "type": "uint256"
        }
      ],
      "stateMutability": "view",
      "type": "function"
    },
    {
      "inputs": [],
      "name": "vfideToken",
      "outputs": [
        {
          "internalType": "contract IERC20",
          "name": "",
          "type": "address"
        }
      ],
      "stateMutability": "view",
      "type": "function"
    },
    {
      "stateMutability": "payable",
      "type": "receive"
    }
  ],
  "bytecode": "0x60c08060405234610271575f90606081614a2d80380380916100218285610288565b83398101031261027157610034816102bf565b91610041602083016102bf565b916001600160a01b0390610057906040016102bf565b16928315610275575f80546001600160a01b0319811686178255604051949186916001600160a01b0316907f8be0079c531659141344cd1fd0a4f28419497f9722a3daafe3b4186f6b6457e09080a36001600160a01b0316608081905292833b156102715763ca5eb5e160e01b8152600481018590525f8160248183885af1801561026657610251575b5060017f9b779b17422d0df92223018b32b4d1fa46e071723d6817e2486d003becc55f005569152d02c7e14af68000006005556969e10de76676d0800000600655600a6009556001600160a01b031691821561021c57156101e4575060a052600a80546001600160a01b031916919091179055600880546001600160401b031916426001600160401b031617905560405161475990816102d4823960805181818161089d0152818161153c015281816128ad01528181613c2b01528181613e1a015261465c015260a05181818161072701528181611bcc0152818161223d0152818161259401528181612be40152818161310d015281816139d60152613f470152f35b60405162461bcd60e51b815260206004820152601060248201526f125b9d985b1a5908195b991c1bda5b9d60821b6044820152606490fd5b60405162461bcd60e51b815260206004820152600d60248201526c24b73b30b634b2103a37b5b2b760991b6044820152606490fd5b61025e9192505f90610288565b5f905f6100e1565b6040513d5f823e3d90fd5b5f80fd5b631e4fbdf760e01b5f525f60045260245ffd5b601f909101601f19168101906001600160401b038211908210176102ab57604052565b634e487b7160e01b5f52604160045260245ffd5b51906001600160a01b03821682036102715756fe6080604052600436101561001a575b3615610018575f80fd5b005b5f3560e01c80627317e6146105a957806301751715146105a457806311d523fb1461059f5780631252217f1461059a57806313137d651461059557806315a889e81461059057806315ea7a251461058b578063171ad89b1461058657806317442b70146105815780631d187c501461057c5780631d673071146105775780631db1231b1461057257806323452b9c1461056d57806327296852146105685780632bb42183146105635780632bda3e0b1461055e5780632ee2a1de1461055957806333b9995e146105545780633400288b1461054f5780633615caf61461054a578063380ef3fe146105455780633a51ad22146105405780633b3decb01461053b5780633b424c40146105365780633f4ba83a146105315780634074d7fb1461052c57806346f45387146105275780634bf1331a146105225780634e43603a1461051d578063515cc19f14610518578063531dc26e146105135780635535d4611461050e578063576f5879146105095780635c05213e146104695780635c975abb146105045780635c9b131e146104ff5780635e280f11146104fa57806360132c9c146104f55780636439d9f4146104f0578063668b4e55146104eb578063683131c9146104e65780636b2e45e1146104e15780636c63f971146104dc578063715018a6146104d757806371835bcf146104d257806374375359146104cd5780637450ac8a146104c857806379ba5097146104c35780637d25a05e146104be57806382413eac146104b957806382b12dd7146104b45780638456cb59146104af578063886688c1146104aa5780638a65d874146104a55780638da5cb5b146104a0578063921efaa41461049b57806394bbe7a81461049657806395ccea6714610491578063998cdf831461048c5780639a68b050146104875780639c1ea52b146104825780639da377e91461047d578063a34fa25814610478578063a42dce8014610473578063a6a1d95414610469578063ab04cc511461046e578063aba3de5e14610469578063b0ffb11b14610464578063b8a71eec1461045f578063b93e65e31461045a578063b98bd07014610455578063bb0b6a5314610450578063bb250e321461044b578063bc70b35414610446578063c415b95c14610441578063ca5eb5e11461043c578063cd2e986614610437578063cddca33014610432578063d52295af1461042d578063d5623f6914610428578063d712535414610423578063dd454da814610423578063e1d82ae61461041e578063e30c397814610419578063e59ace9214610414578063e610813b1461040f578063ef2ec4db1461040a578063f2fde38b14610405578063f4c5d9e1146104005763ff7bd03d0361000e57612e9b565b612e13565b612d3b565b612cfc565b612c60565b612aed565b612ac5565b6129bc565b61299f565b612982565b612965565b61293f565b612922565b612885565b61285d565b612809565b6126f7565b6126be565b612663565b6125c3565b61257f565b6120ea565b61143d565b612074565b611f60565b611f43565b611edd565b611e02565b611d64565b611cc1565b611b6c565b611b43565b611b1f565b611af8565b611a9b565b611a78565b611a1f565b611a02565b6119a4565b61197e565b6118e3565b6118c6565b6118a4565b61187c565b61181f565b61179a565b611774565b61170f565b611614565b611588565b61156b565b611527565b61147c565b61145a565b611420565b6113bb565b6111ee565b611188565b6110d6565b611071565b61100b565b610f64565b610efe565b610ed8565b610ebb565b610e2f565b610e03565b610de6565b610db5565b610d8f565b610d6d565b610c93565b610c76565b610b4f565b610b1b565b610af1565b610a7b565b610a42565b610a21565b61097c565b61095f565b610930565b610831565b6106f4565b61068c565b610655565b6105bc565b5f9103126105b857565b5f80fd5b346105b8575f3660031901126105b8576105d4613733565b7f2df440988492dc1b8cfe7e4334281e88c8a21979ac124b085e2de26ce425e1336015546106186001600160401b038216610610811515612ee0565b421015612f2c565b60055460145491826005555f6014556001600160401b0319166015556106506040519283928360209093929193604081019481520152565b0390a1005b346105b8575f3660031901126105b85760206001600160401b0360135460a01c16604051908152f35b63ffffffff8116036105b857565b346105b85760203660031901126105b85763ffffffff6004356106ae8161067e565b165f52601260205260405f206001600160401b036001825492015416906106f0604051928392839092916001600160401b036020916040840195845216910152565b0390f35b346105b8575f3660031901126105b8576040516370a0823160e01b81523060048201526020816024816001600160a01b037f0000000000000000000000000000000000000000000000000000000000000000165afa9081156107dd575f916107ae575b50600b54906106f0600c5461076c8185612fb0565b5f81136107a4576001915b6040519586958693909594919260809360a086019786526020860152604085015260608401521515910152565b8084101591610777565b6107d0915060203d6020116107d6575b6107c881836112d6565b810190612f82565b5f610757565b503d6107be565b612f91565b60609060031901126105b857600490565b9181601f840112156105b8578235916001600160401b0383116105b857602083818601950101116105b857565b6001600160a01b038116036105b857565b60e03660031901126105b857610846366107e2565b6064356084356001600160401b0381116105b8576108689036906004016107f3565b60a4929192359061087882610820565b60c4356001600160401b0381116105b8576108979036906004016107f3565b949093337f00000000000000000000000000000000000000000000000000000000000000006001600160a01b03160361091d578635966108d68861067e565b6108df88613759565b9760208201358099036108f757506100189750613789565b63ffffffff816109078b9361067e565b63309afaf360e21b5f521660045260245260445ffd5b6391ac5e4f60e01b5f523360045260245ffd5b346105b85760203660031901126105b8576004355f526011602052602060ff60405f2054166040519015158152f35b346105b8575f3660031901126105b8576020601654604051908152f35b346105b85760603660031901126105b8576004356109998161067e565b602435604435916001600160401b0383116105b8576109f6610a0a610a04610a10946109cc6106f09736906004016107f3565b60408051600160208201523391810191909152606081019390935291949192909185906080820190565b03601f1981018652856112d6565b8461357d565b91613bc8565b516040519081529081906020820190565b346105b8575f3660031901126105b857604080516001815260026020820152f35b346105b85760203660031901126105b85763ffffffff600435610a648161067e565b165f526004602052602060405f2054604051908152f35b346105b85760203660031901126105b857610ae5600435610a9b8161067e565b604051600260208201525f604082015260408152610aba6060826112d6565b63ffffffff82165f526002602052610a0a610ae060405f2060025f5260205260405f2090565b6112f7565b51604051908152602090f35b346105b8575f3660031901126105b8576019546040805191901c6001600160a01b03168152602090f35b346105b8575f3660031901126105b857610b33613733565b602180546001600160e01b0319169055005b801515036105b857565b346105b85760403660031901126105b857600435610b6c81610b45565b60243590610b78613733565b8015610c405781151580610c33575b15610bee57610bd1610bcc7fe4446d160ae8710db6b3d4b181b26a9a5ed5b6e565eea2786e7a5ce69bd25bb393610bc6600160ff19601e541617601e55565b42612fea565b601f55565b601f54604080519215158352602083019190915281908101610650565b60405162461bcd60e51b815260206004820152601d60248201527f56464944454272696467653a20696e76616c6964206475726174696f6e0000006044820152606490fd5b5062093a80821115610b87565b7fe4446d160ae8710db6b3d4b181b26a9a5ed5b6e565eea2786e7a5ce69bd25bb3915060ff19601e5416601e555f601f55610bd1565b346105b8575f3660031901126105b8576020600c54604051908152f35b346105b85760403660031901126105b857600435610cb08161067e565b7f9662e4466366e1d566145c0722e7e8ee9afaa70de534567598262c2204fd18f8602435610cdc613733565b610cee6001600160401b034216612ff7565b90610d4b604051610cfe81611280565b82815260016001600160401b0363ffffffff60208401988288168a521697885f52601260205260405f209351845551169101906001600160401b03166001600160401b0319825416179055565b604080519182526001600160401b03909216602082015290819081015b0390a2005b346105b8575f3660031901126105b857602060ff601e54166040519015158152f35b346105b8575f3660031901126105b85760206001600160401b0360085416604051908152f35b346105b85760403660031901126105b857610018600435610dd58161067e565b60243590610de1613733565b613c8f565b346105b8575f3660031901126105b8576020600754604051908152f35b346105b8575f3660031901126105b85760035460405160089190911c6001600160a01b03168152602090f35b346105b8575f3660031901126105b857610e47613733565b7f3e7af433b010df0902f945628a14ef63c63e1e5e8306127bde522445a470588f601954610e836001600160401b038216610610811515612ee0565b60095460185491826009555f6018556001600160401b0319166019556106506040519283928360209093929193604081019481520152565b346105b8575f3660031901126105b8576020600e54604051908152f35b346105b8575f3660031901126105b85760206001600160401b03601a5416604051908152f35b346105b8575f3660031901126105b857610f16613733565b60035460ff811615610f555760ff19166003557f5db9ee0a495bf2e6ff9c91a7834c1ba4fdd244a5e8aa4e537bd38aeae4b073aa6020604051338152a1005b638dfc202b60e01b5f5260045ffd5b346105b8575f3660031901126105b857610f7c613733565b610f966001600160401b03601a5416610610811515612ee0565b600a8054601980546001600160a01b03604082901c81166001600160a01b031985168117909555600160401b600160e01b031990911690915516610fe56001600160401b0319601a5416601a55565b7f5d16ad41baeb009cd23eb8f6c7cde5c2e0cd5acf4a33926ab488875c37c37f385f80a3005b346105b8575f3660031901126105b857611023613733565b60175461103a6001600160401b0382161515612ee0565b5f6016556001600160401b0319166017557f330a9666835740edfbec52334d076855b3443860cb973f8504ca6dd2f5a93f2a5f80a1005b346105b8575f3660031901126105b857611089613733565b6013546110a36001600160401b038260a01c161515612ee0565b6001600160e01b0319166013557fba04776cd7c6e7d9a8ac1c59d1e8e35d0278aaa1fdd1007c613da99ddc18b0b05f80a1005b346105b85760203660031901126105b8576004356110f381610820565b5f6060604051611102816112a0565b828152826020820152826040820152015260018060a01b03165f52600f6020526106f060405f20600360405191611138836112a0565b805483526001810154602084015260028101546040840152015460608201526040519182918291909160608060808301948051845260208101516020850152604081015160408501520151910152565b346105b8575f3660031901126105b8576111a0613733565b6019546111b76001600160401b0382161515612ee0565b5f6018556001600160401b0319166019557fd331eb5189eec40b8bf68d55a90ea0eba7267794ce2782574e62b16949b10a1d5f80a1005b346105b8575f3660031901126105b85760206001600160401b0360155416604051908152f35b6024359061ffff821682036105b857565b359061ffff821682036105b857565b90600182811c92168015611262575b602083101461124e57565b634e487b7160e01b5f52602260045260245ffd5b91607f1691611243565b634e487b7160e01b5f52604160045260245ffd5b604081019081106001600160401b0382111761129b57604052565b61126c565b608081019081106001600160401b0382111761129b57604052565b606081019081106001600160401b0382111761129b57604052565b90601f801991011681019081106001600160401b0382111761129b57604052565b9060405191825f82549261130a84611234565b80845293600181169081156113755750600114611331575b5061132f925003836112d6565b565b90505f9291925260205f20905f915b81831061135957505090602061132f928201015f611322565b6020919350806001915483858901015201910190918492611340565b90506020925061132f94915060ff191682840152151560051b8201015f611322565b805180835260209291819084018484015e5f828201840152601f01601f1916010190565b346105b85760403660031901126105b8576106f061140c610ae06004356113e18161067e565b63ffffffff6113ee611214565b91165f52600260205260405f209061ffff165f5260205260405f2090565b604051918291602083526020830190611397565b346105b8575f3660031901126105b85760206040516202a3008152f35b346105b8575f3660031901126105b857602060405162093a808152f35b346105b8575f3660031901126105b857602060ff600354166040519015158152f35b346105b85760203660031901126105b857600435611498613733565b68056bc75e2d631000008110611518577f8d0e71bb1684fedda0a9bca2979f4aaa8224b0788d19699eb52d9c0105456683906114dc6001600160401b034216612ff7565b60168290556017805467ffffffffffffffff19166001600160401b03909216918217905560408051928352602083019190915281908101610650565b63162908e360e11b5f5260045ffd5b346105b8575f3660031901126105b8576040517f00000000000000000000000000000000000000000000000000000000000000006001600160a01b03168152602090f35b346105b8575f3660031901126105b8576020600554604051908152f35b346105b8575f3660031901126105b8576115a0613733565b7fc69edc00bbe5364d8a955a6ee01c531424b29e2d3cd41296b4c5310637b924466017546115dc6001600160401b038216610610811515612ee0565b60065460165491826006555f6016556001600160401b0319166017556106506040519283928360209093929193604081019481520152565b346105b85760203660031901126105b8576004356116318161067e565b611639613733565b7f64c32ce0e117784f1d5e814bf80b31fe78b790c426c4226225197eb2bd30ccaf610d6863ffffffff831692835f526012602052610a1061170461167f60405f20613073565b926116ca6106106116be602087016116b16001600160401b036116a983516001600160401b031690565b161515612ee0565b516001600160401b031690565b6001600160401b031690565b83516116e48263ffffffff165f52600460205260405f2090565b556116f0845182613c8f565b63ffffffff165f52601260205260405f2090565b60015f918281550155565b346105b8575f3660031901126105b857611727613733565b61173d6001600160401b03601d5416151561309a565b61174e5f601b555f601c555f601d55565b7f685cb00d0fbd43f182608964bd25c5f94375834a1d827327c90935edf4a14e5d5f80a1005b346105b8575f3660031901126105b85760206001600160401b0360195416604051908152f35b346105b85760203660031901126105b8576004355f908152601060209081526040918290208054600182015460028301546003840154600485015460059095015487516001600160a01b03958616815294909316958401959095529482019490945263ffffffff9092166060830152608082015260ff909116151560a082015260c090f35b346105b8575f3660031901126105b857611837613733565b60405162461bcd60e51b815260206004820152601e60248201527f56464944454272696467653a2072656e6f756e63652064697361626c656400006044820152606490fd5b346105b8575f3660031901126105b8576013546040516001600160a01b039091168152602090f35b346105b8575f3660031901126105b85760206118be6130f2565b604051908152f35b346105b8575f3660031901126105b8576020600654604051908152f35b346105b8575f3660031901126105b8576021546001600160a01b0381163303611939576119286116be611923611930936001600160401b039060a01c1690565b613017565b421115613182565b610b3333613cdc565b60405162461bcd60e51b815260206004820152601e60248201527f56464944454272696467653a206e6f742070656e64696e67206f776e657200006044820152606490fd5b346105b85760403660031901126105b85761199a60043561067e565b60206040515f8152f35b346105b85760a03660031901126105b8576119be366107e2565b506064356001600160401b0381116105b8576119de9036906004016107f3565b505060206084356119ee81610820565b6040516001600160a01b0390911630148152f35b346105b8575f3660031901126105b8576020600954604051908152f35b346105b8575f3660031901126105b857611a37613733565b611a3f613ec5565b600160ff1960035416176003557f62e78cea01bee320cd4e420270b5ea74000d11b0c9f74754ebdbfc544b05a2586020604051338152a1005b346105b8575f3660031901126105b857602060405168056bc75e2d631000008152f35b346105b85760203660031901126105b857600435611ab881610820565b60018060a01b03165f52600f602052608060405f208054906001810154906003600282015491015491604051938452602084015260408301526060820152f35b346105b8575f3660031901126105b8575f546040516001600160a01b039091168152602090f35b346105b8575f3660031901126105b8576020611b396131de565b6040519015158152f35b346105b85760203660031901126105b8576004355f5260208052602060405f2054604051908152f35b346105b85760403660031901126105b857600435611b8981610820565b602435611b94613733565b6001600160a01b038216918215611c8c577f1c7b862e2dc0e6087183d15724c44f4f178af017a1130816a75b4a326a210b8991611bfc7f00000000000000000000000000000000000000000000000000000000000000006001600160a01b031685141561320f565b611c07811515613266565b610d4b611c1c6001600160401b034216612ff7565b92611c37611c28613037565b6001600160a01b039092168252565b602081018390526001600160401b038416604082018190529051601b80546001600160a01b0319166001600160a01b0392909216919091179055601c839055601d805467ffffffffffffffff19169091179055565b60405162461bcd60e51b815260206004820152600d60248201526c24b73b30b634b2103a37b5b2b760991b6044820152606490fd5b346105b85760203660031901126105b857600435611cdd613733565b60648111611d55577f6b24fe2f72a927b2141ad7dc85532beea5edf06986c80acc7c8177656c31ec4390611d196001600160401b034216612ff7565b60188290556019805467ffffffffffffffff19166001600160401b03909216918217905560408051928352602083019190915281908101610650565b6358d620b360e01b5f5260045ffd5b346105b85760203660031901126105b857600435611d8181610820565b611d89613733565b7f747f2aaab486a7a0ead86a9cd205bdb1660aa6a636caca3bfab93b19cd7efbc26020611dbe6001600160401b034216612ff7565b601380546001600160e01b0319166001600160a01b0390951694851760a083901b67ffffffffffffffff60a01b161790556040516001600160401b039091168152a2005b346105b85760803660031901126105b857600435611e1f8161067e565b6024356001600160401b0381116105b857611e3e9036906004016107f3565b91906044356001600160401b0381116105b857611e5f9036906004016107f3565b929060643592303303611e9f57611e8f611e999161001897611e7f613046565b9687525f602088015236916132be565b91309536916132be565b91613d91565b60405162461bcd60e51b815260206004820152601660248201527556464944454272696467653a2073656c66206f6e6c7960501b6044820152606490fd5b346105b8575f3660031901126105b857611ef5613733565b601554611f0c6001600160401b0382161515612ee0565b5f6014556001600160401b0319166015557ffc7a0d6ff7eed9736e430a2bba27775c418be89eac5ef3977e788ee2320029ec5f80a1005b346105b8575f3660031901126105b8576020601f54604051908152f35b346105b85760203660031901126105b857600435611f7d81610820565b611f85613733565b6001600160a01b03811690811561203b57610d687f993a089a5cbc28bd04bad831026372d68df679a1c3e92294f411bc9bb9490cc991612001611fd06001600160401b034216612ff7565b60198054600160401b600160e01b03191660409490941b68010000000000000000600160e01b031693909317909255565b612021816001600160401b03166001600160401b0319601a541617601a55565b6040516001600160401b0390911681529081906020820190565b60405162461bcd60e51b815260206004820152601160248201527024b73b30b634b21031b7b63632b1ba37b960791b6044820152606490fd5b346105b8575f3660031901126105b85761208c613733565b601a546120a36001600160401b0382161515612ee0565b60198054600160401b600160e01b031916905567ffffffffffffffff1916601a557f881ece33d0e7e655590db1fb1eda449d700f636402b311e0903c7984835826eb5f80a1005b60803660031901126105b8576004356121028161067e565b60243561210e81610820565b604435916064356001600160401b0381116105b8576121319036906004016107f3565b9061213a613e8d565b612142613ec5565b68056bc75e2d6310000085108015612574575b611518576001600160a01b038416928315612565576121828163ffffffff165f52600460205260405f2090565b541561255657612198612193613f0f565b6132f4565b6121a0613fba565b6121ac86600754612fea565b6006548111612547576007556003546121d89060081c6001600160a01b03165b6001600160a01b031690565b80612491575b5063ffffffff7fae0046180e807cde14b63b8341e82dcee1356197cefac401988fa77976fa508a916123a36122bf6106f0996122a561222a612222600954846133b4565b612710900490565b986122358a846130e5565b9889936122657f00000000000000000000000000000000000000000000000000000000000000009130338461403e565b8b80612473575b505060408051600160208201526001600160a01b038f1691810191909152606081019490945261229f84608081016109f6565b8661357d565b6122ad613046565b903482525f6020830152339286613d91565b51976122d46122cf600e546133c7565b600e55565b6122f36122df613055565b338152916001600160a01b03166020830152565b6040810186905263ffffffff831660608201524260808201525f60a0820152612324895f52601060205260405f2090565b815181546001600160a01b03199081166001600160a01b0392831617835560208401516001840180549190931691161790559060059060a090604081015160028501556003840163ffffffff60608301511663ffffffff19825416179055608081015160048501550151151591019060ff801983541691151516179055565b335f908152600f602052604090206123bc858254612fea565b9055335f908152600f6020526040902042600282015560030180546123e0906133c7565b90556123f66123f185600b54612fea565b600b55565b61240a61240585600d54612fea565b600d55565b61242f8760405193849316963396846040919493926060820195825260208201520152565b0390a461243b42612fda565b61244c825f526020805260405f2090565b5561246360015f5160206147045f395f51905f5255565b6040519081529081906020820190565b600a5461248a92906001600160a01b0316906140cc565b5f8b61226c565b6040516329f9b26760e01b8152336004820152602481018890529690602090889060449082905f906001600160a01b03165af19182156107dd576123a36122bf63ffffffff9361250d7fae0046180e807cde14b63b8341e82dcee1356197cefac401988fa77976fa508a966106f09c5f91612518575b50613372565b9950505091506121de565b61253a915060203d602011612540575b61253281836112d6565b81019061335d565b5f612507565b503d612528565b63a74c1c5f60e01b5f5260045ffd5b638f2da29160e01b5f5260045ffd5b63ac6b05f560e01b5f5260045ffd5b506005548511612155565b346105b8575f3660031901126105b8576040517f00000000000000000000000000000000000000000000000000000000000000006001600160a01b03168152602090f35b346105b8575f3660031901126105b8576125db613733565b6013546125f96001600160401b038260a01c16610610811515612ee0565b60038054610100600160a81b03198116600893841b610100600160a81b03161791829055601380546001600160e01b03191690556001600160a01b0391831c8216921c167f9261756417ba2a99d4ba8e96f1e45b7b17e5ebeee305c9d44945ce6f46d737345f80a3005b346105b85760203660031901126105b8576004356001600160401b0381116105b857366023820112156105b85780600401356001600160401b0381116105b8573660248260051b840101116105b857602461001892016133d5565b346105b85760203660031901126105b85763ffffffff6004356126e08161067e565b165f526001602052602060405f2054604051908152f35b346105b85760203660031901126105b857600435612713613733565b805f526020805260405f2054156127c457612736815f52601060205260405f2090565b6127646005820161275761275261274e835460ff1690565b1590565b6134b6565b805460ff19166001179055565b6002600d5491015490818110156127b0575b825f612789825f526020805260405f2090565b557f8402378cab886c78077f0fa0d6f4b4d6a38104ec088925f06512d963528bc1b75f80a2005b6127bd91612405916130e5565b5f80612776565b60405162461bcd60e51b815260206004820152601d60248201527f56464944454272696467653a206e6f20726566756e642077696e646f770000006044820152606490fd5b346105b85760603660031901126105b8576004356128268161067e565b61282e611214565b604435906001600160401b0382116105b8576106f09261285561140c9336906004016107f3565b929091613621565b346105b8575f3660031901126105b857600a546040516001600160a01b039091168152602090f35b346105b8575f60203660031901126105b8576004356128a381610820565b6128ab613733565b7f00000000000000000000000000000000000000000000000000000000000000006001600160a01b031690813b156105b85760405163ca5eb5e160e01b81526001600160a01b039091166004820152905f908290602490829084905af180156107dd57612916575080f35b61001891505f906112d6565b346105b8575f3660031901126105b8576020600b54604051908152f35b346105b8575f3660031901126105b85760206001600160401b0360175416604051908152f35b346105b8575f3660031901126105b8576020601454604051908152f35b346105b8575f3660031901126105b8576020601854604051908152f35b346105b8575f3660031901126105b8576020600d54604051908152f35b346105b8575f3660031901126105b8576129d4613733565b6040516129e0816112bb565b60018060a01b03601b541681527f88093b33e04b73b206661f1eccae231d9dd839b164c5d4dd9a16160987bd802f610d68612aa7601c549360208101948552612a5e6106106116be6001600160401b03601d54166116b16001600160401b03612a5660408801938085526001600160401b031690565b16151561309a565b612a6f5f601b555f601c555f601d55565b8051612a9a90612a87906001600160a01b03166121cc565b5f546001600160a01b03168751916140cc565b516001600160a01b031690565b92516040519081526001600160a01b03909316929081906020820190565b346105b8575f3660031901126105b8576021546040516001600160a01b039091168152602090f35b346105b85760203660031901126105b857600435612b09613e8d565b612b11613ec5565b6002612b25825f52601060205260405f2090565b8054612b44906001600160a01b03166001600160a01b0316331461364f565b612b9560058201612b5c61275261274e835460ff1690565b612b78612b70865f526020805260405f2090565b54151561369b565b612757612b8c865f526020805260405f2090565b544210156136e7565b0154612ba66123f182600b546130e5565b80600d5481811015612c4c575b5050335f908152600f60205260409020612bce8282546130e5565b90555f828152602080526040812055612c0881337f00000000000000000000000000000000000000000000000000000000000000006140cc565b60405190815233907fa836275a988ca2548159f6c2d6334b209ca3393f7202608814eb438c9e4f69be90602090a361001860015f5160206147045f395f51905f5255565b612c5991612405916130e5565b805f612bb3565b346105b85760203660031901126105b857600435612c7c613733565b68056bc75e2d631000008110611518577ffdaadecb333abe795fbc432e2b834bfb1b5a38ce2f6a54af1f7b6d30273e5a2a90612cc06001600160401b034216612ff7565b60148290556015805467ffffffffffffffff19166001600160401b03909216918217905560408051928352602083019190915281908101610650565b346105b8575f3660031901126105b857606060018060a01b03601b5416601c546001600160401b03601d54169060405192835260208301526040820152f35b346105b85760203660031901126105b857600435612d5881610820565b612d60613733565b6001600160a01b038116908115612dce576021805467ffffffffffffffff60a01b4260a01b166001600160e01b03199091166001600160a01b03938416171790555f8054909116907f38d16b8cac22d99fc7c124b9cd0de2d3fa1faef420bfe791d8c362d765e227009080a3005b60405162461bcd60e51b815260206004820152601960248201527f56464944454272696467653a207a65726f2061646472657373000000000000006044820152606490fd5b346105b85760203660031901126105b85763ffffffff600435612e358161067e565b612e3d613733565b16805f526012602052612e616001600160401b03600160405f200154161515612ee0565b805f5260126020525f60016040822082815501557f5366c5878f7e49225747dda936227106730a9e44c73f4cf4cb8eceb411d9d0d55f80a2005b346105b85760603660031901126105b8576020612eb7366107e2565b63ffffffff8135612ec78161067e565b165f52600182528160405f205491013560405191148152f35b15612ee757565b60405162461bcd60e51b815260206004820152601e60248201527f56464944454272696467653a206e6f2070656e64696e672075706461746500006044820152606490fd5b15612f3357565b60405162461bcd60e51b815260206004820152602160248201527f56464944454272696467653a2074696d656c6f636b206e6f7420656c617073656044820152601960fa1b6064820152608490fd5b908160209103126105b8575190565b6040513d5f823e3d90fd5b634e487b7160e01b5f52601160045260245ffd5b81810392915f138015828513169184121617612fc857565b612f9c565b35612fd78161067e565b90565b9062093a808201809211612fc857565b91908201809211612fc857565b6001600160401b036202a300911601906001600160401b038211612fc857565b6001600160401b0362093a80911601906001600160401b038211612fc857565b6040519061132f6060836112d6565b6040519061132f6040836112d6565b6040519061132f60c0836112d6565b6040519061132f60a0836112d6565b9060405161308081611280565b60206001600160401b036001839580548552015416910152565b156130a157565b606460405162461bcd60e51b815260206004820152602060248201527f56464944454272696467653a206e6f2070656e64696e672077697468647261776044820152fd5b91908203918211612fc857565b6040516370a0823160e01b81523060048201526020816024817f00000000000000000000000000000000000000000000000000000000000000006001600160a01b03165afa9081156107dd575f91613163575b50600d548082111561315d578103908111612fc85790565b50505f90565b61317c915060203d6020116107d6576107c881836112d6565b5f613145565b1561318957565b60405162461bcd60e51b815260206004820152602760248201527f56464944454272696467653a206f776e657273686970207472616e7366657220604482015266195e1c1a5c995960ca1b6064820152608490fd5b60ff601e54161561320057601f548015159081613204575b5061320057600190565b5f90565b90504210155f6131f6565b1561321657565b60405162461bcd60e51b815260206004820152602260248201527f56464944454272696467653a2063616e6e6f7420776974686472617720564649604482015261444560f01b6064820152608490fd5b1561326d57565b60405162461bcd60e51b815260206004820152600e60248201526d125b9d985b1a5908185b5bdd5b9d60921b6044820152606490fd5b6001600160401b03811161129b57601f01601f191660200190565b9291926132ca826132a3565b916132d860405193846112d6565b8294818452818301116105b8578281602093845f960137010152565b156132fb57565b60405162461bcd60e51b815260206004820152603460248201527f56464944454272696467653a20636f6e66696775726520746f6b656e2073797360448201527374656d4578656d707420666f722062726964676560601b6064820152608490fd5b908160209103126105b85751612fd781610b45565b1561337957565b60405162461bcd60e51b815260206004820152601360248201527214985d19481b1a5b5a5d08195e18d959591959606a1b6044820152606490fd5b81810292918115918404141715612fc857565b5f198114612fc85760010190565b6133dd613733565b6001600160401b03821161129b578160051b906040519261340160208401856112d6565b835260208301918101903682116105b85780925b828410613429575050505061132f906142e8565b83356001600160401b0381116105b8578201906060823603126105b85760405191613453836112bb565b803561345e8161067e565b835261346c60208201611225565b60208401526040810135906001600160401b0382116105b857019036601f830112156105b8576020926134a68493369085813591016132be565b6040820152815201930192613415565b156134bd57565b60405162461bcd60e51b815260206004820152601d60248201527f56464944454272696467653a20616c72656164792065786563757465640000006044820152606490fd5b90929192836002116105b85783116105b857600201916001190190565b602080949361132f93816040519785899651918291018688015e8501918483015f81523701015f815203601f1981018452836112d6565b90918060409360208452816020850152848401375f828201840152601f01601f1916010190565b63ffffffff9093919293165f5260026020526135ac610ae0600160405f209061ffff165f5260205260405f2090565b80511561361357831561360d5760028410156135e45750506135e0604051928392639a6d49cd60e01b845260048401613556565b0390fd5b90928061360791612fd7946136026135fd3684846132be565b6143aa565b613502565b9161351f565b92509050565b509190612fd79136916132be565b6135ac9163ffffffff610ae09296949596165f52600260205260405f209061ffff165f5260205260405f2090565b1561365657565b60405162461bcd60e51b815260206004820152601760248201527f56464944454272696467653a206e6f742073656e6465720000000000000000006044820152606490fd5b156136a257565b60405162461bcd60e51b815260206004820152601b60248201527f56464944454272696467653a206e6f7420726566756e6461626c6500000000006044820152606490fd5b156136ee57565b60405162461bcd60e51b815260206004820152601d60248201527f56464944454272696467653a20726566756e6420746f6f206561726c790000006044820152606490fd5b5f546001600160a01b0316330361374657565b63118cdaa760e01b5f523360045260245ffd5b63ffffffff16805f52600160205260405f2054908115613777575090565b63f6ff4fb760e01b5f5260045260245ffd5b91935091935061132f945061379c613ec5565b6138d3565b156137a857565b60405162461bcd60e51b815260206004820152600e60248201526d496e76616c69642072656d6f746560901b6044820152606490fd5b91908260409103126105b85760206137f583611225565b92013590565b908160609103126105b85761380f81611225565b91604060208301356137f581610820565b1561382757565b60405162461bcd60e51b815260206004820152602660248201527f56464944454272696467653a2065786365656473206d61782062726964676520604482015265185b5bdd5b9d60d21b6064820152608490fd5b1561388257565b60405162461bcd60e51b815260206004820152602360248201527f56464944454272696467653a20696e73756666696369656e74206c697175696460448201526269747960e81b6064820152608490fd5b92909161390a6138f96138e586612fcd565b63ffffffff165f52600460205260405f2090565b548015159081613af8575b506137a1565b61392661391f845f52601160205260405f2090565b5460ff1690565b613ae95761393f612757845f52601160205260405f2090565b803561ffff1660028114613ace5760010361255657613960918101906137fb565b93915060018060a01b031691821561256557831561151857613986600554851115613820565b6001600160a01b0383165f908152600f602052604090206001016139ab858254612fea565b90556139c16139bc85600c54612fea565b600c55565b6040516370a0823160e01b81523060048201527f000000000000000000000000000000000000000000000000000000000000000092906020816024816001600160a01b0388165afa9182156107dd57613a7087877fa31fa66e38e655a623d270601b5114d4070cf113c9abc82c3b83cce5797467489763ffffffff96613a87965f91613aaf575b5083600d54918281115f14613aa357613a6b92613a64916130e5565b101561387b565b6140cc565b613a8284613a7d83612fcd565b6144b9565b612fcd565b604080519687526020870193909352169390819081015b0390a3565b50613a6b91505f613a64565b613ac8915060203d6020116107d6576107c881836112d6565b5f613a48565b509061132f9350613ae292508101906137de565b90506143e2565b63156a571760e11b5f5260045ffd5b90506020860135145f613904565b60405190613b1382611280565b5f6020838281520152565b91908260409103126105b857604051613b3681611280565b6020808294805184520151910152565b906040828203126105b857612fd791613b1e565b906020909392936040835263ffffffff81511660408401528181015160608401526080613bae613b98604084015160a08488015260e0870190611397565b6060840151868203603f190160a0880152611397565b910151151560c08401526001600160a01b03909416910152565b613c2792604092613bd7613b06565b50613be183613759565b613bf8613bec613064565b63ffffffff9095168552565b60208401528383015260608201525f6080820152815180938192631bb8518b60e31b8352309060048401613b5a565b03817f00000000000000000000000000000000000000000000000000000000000000006001600160a01b03165afa9081156107dd575f91613c66575090565b612fd7915060403d604011613c88575b613c8081836112d6565b810190613b46565b503d613c76565b9063ffffffff7f238399d427b947898edb290f5ff0f9109849b1c3ba196a42e35f00c50a54b98b921690815f5260016020528060405f2055604051918252602082015260408180030190a1565b5f80546001600160a01b039283166001600160a01b03198216811783559216907f8be0079c531659141344cd1fd0a4f28419497f9722a3daafe3b4186f6b6457e09080a3565b60405190613d2f826112bb565b815f81525f60208201526040613d43613b06565b910152565b6080818303126105b85760405191613d5f836112bb565b8151835260208201516001600160401b03811681036105b8576020840152613d8991604001613b1e565b604082015290565b613dfa60809492613e169694613da5613d22565b506020613db28651614630565b950191825180613e7e575b50613dc785613759565b9251151592613de3613dd7613064565b63ffffffff9097168752565b602086015260408501526060840152151585830152565b6040518095819482936302637a4560e41b845260048401613b5a565b03917f00000000000000000000000000000000000000000000000000000000000000006001600160a01b03165af19081156107dd575f91613e55575090565b612fd7915060803d608011613e77575b613e6f81836112d6565b810190613d48565b503d613e65565b613e879061464d565b5f613dbd565b60025f5160206147045f395f51905f525414613eb65760025f5160206147045f395f51905f5255565b633ee5aeb560e01b5f5260045ffd5b60ff60035416613ed157565b63d93c066560e01b5f5260045ffd5b3d15613f0a573d90613ef1826132a3565b91613eff60405193846112d6565b82523d5f602084013e565b606090565b60405163d6b5473560e01b602082019081523060248301525f91829190613f4381604481015b03601f1981018352826112d6565b51907f00000000000000000000000000000000000000000000000000000000000000006001600160a01b03165afa613f79613ee0565b90158015613faf575b613f995780602080612fd79351830101910161335d565b50613fa26131de565b613faa575f90565b600190565b506020815110613f82565b6008546001600160401b0381168015908115614026575b50613fd95750565b5f60075567ffffffffffffffff1916426001600160401b03169081176008556040519081527fb551de9086b2acecfadc70ecf81b5a9693d02c01d39da779b0529e4868210f2590602090a1565b9050620151808101809111612fc8574210155f613fd1565b6040516323b872dd60e01b5f9081526001600160a01b039384166004529290931660245260449390935260209060648180865af160015f51148116156140ad575b6040919091525f606052155b6140925750565b635274afe760e01b5f526001600160a01b031660045260245ffd5b60018115166140c3573d15833b1515161661407f565b503d5f823e3d90fd5b916040519163a9059cbb60e01b5f5260018060a01b031660045260245260205f60448180865af160015f511481161561410c575b6040919091521561408b565b60018115166140c3573d15833b15151616614100565b80518210156141365760209160051b010190565b634e487b7160e01b5f52603260045260245ffd5b601f821161415757505050565b5f5260205f20906020601f840160051c8301931061418f575b601f0160051c01905b818110614184575050565b5f8155600101614179565b9091508190614170565b91909182516001600160401b03811161129b576141c0816141ba8454611234565b8461414a565b6020601f82116001146141ff5781906141f09394955f926141f4575b50508160011b915f199060031b1c19161790565b9055565b015190505f806141dc565b601f19821690614212845f5260205f2090565b915f5b81811061424c57509583600195969710614234575b505050811b019055565b01515f1960f88460031b161c191690555f808061422a565b9192602060018192868b015181550194019201614215565b602081016020825282518091526040820191602060408360051b8301019401925f915b83831061429657505050505090565b90919293946020806142d9600193603f19868203018752606060408b5163ffffffff815116845261ffff8682015116868501520151918160408201520190611397565b97019301930191939290614287565b5f5b8151811015614373578061430d604061430560019486614122565b5101516143aa565b61436d604061431c8386614122565b51015163ffffffff61432e8487614122565b5151165f52600260205261436860405f20614358602061434e878a614122565b51015161ffff1690565b61ffff165f5260205260405f2090565b614199565b016142ea565b506143a57fbe4864a8e820971c0247f5992e2da559595f7bf076a21cb5928d443d2a13b6749160405191829182614264565b0390a1565b600361ffff600283015116036143bd5750565b604051639a6d49cd60e01b8152602060048201529081906135e0906024830190611397565b5f81815260106020526040902080546001600160a01b0316158015614472575b61446e5760058101805460ff191660011790556002600d549101548082101561445b575b50505f8181526020805260408120557f8402378cab886c78077f0fa0d6f4b4d6a38104ec088925f06512d963528bc1b75f80a2565b8103908111612fc857600d555f80614426565b5050565b5060ff600582015416614402565b9493926144a660609363ffffffff6144b494168852608060208901526080880190611397565b908682036040880152611397565b930152565b60408051600260208201529081018390526144d78160608101613f35565b614503610ae06144f58463ffffffff165f52600260205260405f2090565b60025f5260205260405f2090565b9061450f828285613bc8565b478151116145c4575191303b156105b8575f916145416040519485938493639c1ea52b60e01b85528860048601614480565b038183305af190816145aa575b5061446e577fa795c7356a23f72175ac1a84fcfda7405aab84390537bd5e87da6e9be15896bd63ffffffff60405192169180613a9e8160609060208152600b60208201526a1cd95b990819985a5b195960aa1b60408201520190565b806145b85f6145be936112d6565b806105ae565b5f61454e565b5050507fa795c7356a23f72175ac1a84fcfda7405aab84390537bd5e87da6e9be15896bd63ffffffff60405192169180613a9e8160609060208152601760208201527f696e73756666696369656e74206e61746976652066656500000000000000000060408201520190565b80340361463a5790565b6304fb820960e51b5f523460045260245ffd5b60405163393f876560e21b81527f00000000000000000000000000000000000000000000000000000000000000006001600160a01b03169190602081600481865afa9081156107dd575f916146c8575b506001600160a01b03169182156146b95761132f92339061403e565b6329b99a9560e11b5f5260045ffd5b90506020813d6020116146fb575b816146e3602093836112d6565b810103126105b857516146f581610820565b5f61469d565b3d91506146d656fe9b779b17422d0df92223018b32b4d1fa46e071723d6817e2486d003becc55f00a26469706673582212201daefc6321a54bd53e55780b59eeb7c58d209608033c8847a35efe96a22de14164736f6c634300081e0033",
  "linkReferences": {},
  "deployedLinkReferences": {},
  "immutableReferences": {
    "60": [
      {
        "length": 32,
        "start": 2205
      },
      {
        "length": 32,
        "start": 5436
      },
      {
        "length": 32,
        "start": 10413
      },
      {
        "length": 32,
        "start": 15403
      },
      {
        "length": 32,
        "start": 15898
      },
      {
        "length": 32,
        "start": 18012
      }
    ],
    "22270": [
      {
        "length": 32,
        "start": 1831
      },
      {
        "length": 32,
        "start": 7116
      },
      {
        "length": 32,
        "start": 8765
      },
      {
        "length": 32,
        "start": 9620
      },
      {
        "length": 32,
        "start": 11236
      },
      {
        "length": 32,
        "start": 12557
      },
      {
        "length": 32,
        "start": 14806
      },
      {
        "length": 32,
        "start": 16199
      }
    ]
  },
  "inputSourceName": "project/contracts/VFIDEBridge.sol",
  "buildInfoId": "solc-0_8_30-65601af77b1d2a1c91d0bbe8b8be687fc94ce898"
}