{
  "_format": "hh3-artifact-1",
  "contractName": "VFIDEToken",
  "sourceName": "contracts/VFIDEToken.sol",
  "abi": [
    {
      "inputs": [
        {
          "internalType": "address",
          "name": "devReserveVestingVault",
          "type": "address"
        },
        {
          "internalType": "address",
          "name": "treasury",
          "type": "address"
        },
        {
          "internalType": "address",
          "name": "_vaultHub",
          "type": "address"
        },
        {
          "internalType": "address",
          "name": "_ledger",
          "type": "address"
        },
        {
          "internalType": "address",
          "name": "_treasurySink",
          "type": "address"
        }
      ],
      "stateMutability": "nonpayable",
      "type": "constructor"
    },
    {
      "inputs": [],
      "name": "Token_NotVault",
      "type": "error"
    },
    {
      "inputs": [],
      "name": "VF_CAP",
      "type": "error"
    },
    {
      "inputs": [],
      "name": "VF_DailyLimitExceeded",
      "type": "error"
    },
    {
      "inputs": [],
      "name": "VF_FeesExceedAmount",
      "type": "error"
    },
    {
      "inputs": [],
      "name": "VF_InsufficientAllowance",
      "type": "error"
    },
    {
      "inputs": [],
      "name": "VF_InsufficientBalance",
      "type": "error"
    },
    {
      "inputs": [],
      "name": "VF_InvalidAntiWhaleConfig",
      "type": "error"
    },
    {
      "inputs": [],
      "name": "VF_InvalidDuration",
      "type": "error"
    },
    {
      "inputs": [],
      "name": "VF_InvalidFeeSink",
      "type": "error"
    },
    {
      "inputs": [],
      "name": "VF_InvalidPermit",
      "type": "error"
    },
    {
      "inputs": [],
      "name": "VF_LOCKED",
      "type": "error"
    },
    {
      "inputs": [],
      "name": "VF_MaxTransferExceeded",
      "type": "error"
    },
    {
      "inputs": [],
      "name": "VF_MaxWalletExceeded",
      "type": "error"
    },
    {
      "inputs": [],
      "name": "VF_NoPending",
      "type": "error"
    },
    {
      "inputs": [],
      "name": "VF_NotContract",
      "type": "error"
    },
    {
      "inputs": [],
      "name": "VF_POLICY_LOCKED",
      "type": "error"
    },
    {
      "inputs": [],
      "name": "VF_PendingExists",
      "type": "error"
    },
    {
      "inputs": [],
      "name": "VF_PermitExpired",
      "type": "error"
    },
    {
      "inputs": [],
      "name": "VF_RouterRequired",
      "type": "error"
    },
    {
      "inputs": [],
      "name": "VF_TimelockActive",
      "type": "error"
    },
    {
      "inputs": [],
      "name": "VF_TransferCooldown",
      "type": "error"
    },
    {
      "inputs": [],
      "name": "VF_ZERO",
      "type": "error"
    },
    {
      "inputs": [],
      "name": "VF_ZeroAddress",
      "type": "error"
    },
    {
      "anonymous": false,
      "inputs": [
        {
          "indexed": false,
          "internalType": "uint256",
          "name": "maxTransfer",
          "type": "uint256"
        },
        {
          "indexed": false,
          "internalType": "uint256",
          "name": "maxWallet",
          "type": "uint256"
        },
        {
          "indexed": false,
          "internalType": "uint256",
          "name": "dailyLimit",
          "type": "uint256"
        },
        {
          "indexed": false,
          "internalType": "uint256",
          "name": "cooldown",
          "type": "uint256"
        },
        {
          "indexed": false,
          "internalType": "uint64",
          "name": "effectiveAt",
          "type": "uint64"
        }
      ],
      "name": "AntiWhaleProposed",
      "type": "event"
    },
    {
      "anonymous": false,
      "inputs": [
        {
          "indexed": false,
          "internalType": "uint256",
          "name": "maxTransfer",
          "type": "uint256"
        },
        {
          "indexed": false,
          "internalType": "uint256",
          "name": "maxWallet",
          "type": "uint256"
        },
        {
          "indexed": false,
          "internalType": "uint256",
          "name": "dailyLimit",
          "type": "uint256"
        },
        {
          "indexed": false,
          "internalType": "uint256",
          "name": "cooldown",
          "type": "uint256"
        }
      ],
      "name": "AntiWhaleSet",
      "type": "event"
    },
    {
      "anonymous": false,
      "inputs": [
        {
          "indexed": true,
          "internalType": "address",
          "name": "owner",
          "type": "address"
        },
        {
          "indexed": true,
          "internalType": "address",
          "name": "spender",
          "type": "address"
        },
        {
          "indexed": false,
          "internalType": "uint256",
          "name": "value",
          "type": "uint256"
        }
      ],
      "name": "Approval",
      "type": "event"
    },
    {
      "anonymous": false,
      "inputs": [
        {
          "indexed": true,
          "internalType": "address",
          "name": "router",
          "type": "address"
        },
        {
          "indexed": false,
          "internalType": "uint64",
          "name": "effectiveAt",
          "type": "uint64"
        }
      ],
      "name": "BurnRouterScheduled",
      "type": "event"
    },
    {
      "anonymous": false,
      "inputs": [
        {
          "indexed": true,
          "internalType": "address",
          "name": "router",
          "type": "address"
        }
      ],
      "name": "BurnRouterSet",
      "type": "event"
    },
    {
      "anonymous": false,
      "inputs": [
        {
          "indexed": false,
          "internalType": "bool",
          "name": "active",
          "type": "bool"
        },
        {
          "indexed": false,
          "internalType": "uint256",
          "name": "duration",
          "type": "uint256"
        },
        {
          "indexed": false,
          "internalType": "uint64",
          "name": "effectiveAt",
          "type": "uint64"
        }
      ],
      "name": "CircuitBreakerProposed",
      "type": "event"
    },
    {
      "anonymous": false,
      "inputs": [
        {
          "indexed": false,
          "internalType": "bool",
          "name": "active",
          "type": "bool"
        },
        {
          "indexed": false,
          "internalType": "uint256",
          "name": "expiry",
          "type": "uint256"
        }
      ],
      "name": "CircuitBreakerSet",
      "type": "event"
    },
    {
      "anonymous": false,
      "inputs": [],
      "name": "EmergencyControllerCancelled",
      "type": "event"
    },
    {
      "anonymous": false,
      "inputs": [
        {
          "indexed": true,
          "internalType": "address",
          "name": "controller",
          "type": "address"
        },
        {
          "indexed": false,
          "internalType": "uint64",
          "name": "effectiveAt",
          "type": "uint64"
        }
      ],
      "name": "EmergencyControllerProposed",
      "type": "event"
    },
    {
      "anonymous": false,
      "inputs": [
        {
          "indexed": true,
          "internalType": "address",
          "name": "previousController",
          "type": "address"
        },
        {
          "indexed": true,
          "internalType": "address",
          "name": "newController",
          "type": "address"
        }
      ],
      "name": "EmergencyControllerSet",
      "type": "event"
    },
    {
      "anonymous": false,
      "inputs": [
        {
          "indexed": true,
          "internalType": "address",
          "name": "target",
          "type": "address"
        },
        {
          "indexed": false,
          "internalType": "bool",
          "name": "exempt",
          "type": "bool"
        }
      ],
      "name": "ExemptSet",
      "type": "event"
    },
    {
      "anonymous": false,
      "inputs": [
        {
          "indexed": true,
          "internalType": "string",
          "name": "context",
          "type": "string"
        },
        {
          "indexed": false,
          "internalType": "bytes",
          "name": "reason",
          "type": "bytes"
        }
      ],
      "name": "ExternalCallFailed",
      "type": "event"
    },
    {
      "anonymous": false,
      "inputs": [
        {
          "indexed": true,
          "internalType": "address",
          "name": "from",
          "type": "address"
        },
        {
          "indexed": true,
          "internalType": "address",
          "name": "to",
          "type": "address"
        },
        {
          "indexed": false,
          "internalType": "uint256",
          "name": "burnAmount",
          "type": "uint256"
        },
        {
          "indexed": false,
          "internalType": "uint256",
          "name": "sanctumAmount",
          "type": "uint256"
        },
        {
          "indexed": false,
          "internalType": "uint256",
          "name": "ecosystemAmount",
          "type": "uint256"
        },
        {
          "indexed": true,
          "internalType": "address",
          "name": "sanctumSink",
          "type": "address"
        },
        {
          "indexed": false,
          "internalType": "address",
          "name": "ecosystemSink",
          "type": "address"
        }
      ],
      "name": "FeeApplied",
      "type": "event"
    },
    {
      "anonymous": false,
      "inputs": [
        {
          "indexed": false,
          "internalType": "bool",
          "name": "active",
          "type": "bool"
        },
        {
          "indexed": false,
          "internalType": "uint256",
          "name": "expiry",
          "type": "uint256"
        }
      ],
      "name": "FeeBypassSet",
      "type": "event"
    },
    {
      "anonymous": false,
      "inputs": [
        {
          "indexed": true,
          "internalType": "address",
          "name": "registry",
          "type": "address"
        },
        {
          "indexed": false,
          "internalType": "uint64",
          "name": "effectiveAt",
          "type": "uint64"
        }
      ],
      "name": "FraudRegistryScheduled",
      "type": "event"
    },
    {
      "anonymous": false,
      "inputs": [
        {
          "indexed": true,
          "internalType": "address",
          "name": "registry",
          "type": "address"
        }
      ],
      "name": "FraudRegistrySet",
      "type": "event"
    },
    {
      "anonymous": false,
      "inputs": [
        {
          "indexed": true,
          "internalType": "address",
          "name": "source",
          "type": "address"
        },
        {
          "indexed": false,
          "internalType": "string",
          "name": "action",
          "type": "string"
        }
      ],
      "name": "LedgerLogFailed",
      "type": "event"
    },
    {
      "anonymous": false,
      "inputs": [
        {
          "indexed": true,
          "internalType": "address",
          "name": "ledger",
          "type": "address"
        },
        {
          "indexed": false,
          "internalType": "uint64",
          "name": "effectiveAt",
          "type": "uint64"
        }
      ],
      "name": "LedgerScheduled",
      "type": "event"
    },
    {
      "anonymous": false,
      "inputs": [
        {
          "indexed": true,
          "internalType": "address",
          "name": "ledger",
          "type": "address"
        }
      ],
      "name": "LedgerSet",
      "type": "event"
    },
    {
      "anonymous": false,
      "inputs": [
        {
          "indexed": true,
          "internalType": "address",
          "name": "previousOwner",
          "type": "address"
        },
        {
          "indexed": true,
          "internalType": "address",
          "name": "newOwner",
          "type": "address"
        }
      ],
      "name": "OwnershipTransferStarted",
      "type": "event"
    },
    {
      "anonymous": false,
      "inputs": [
        {
          "indexed": true,
          "internalType": "address",
          "name": "previousOwner",
          "type": "address"
        },
        {
          "indexed": true,
          "internalType": "address",
          "name": "newOwner",
          "type": "address"
        }
      ],
      "name": "OwnershipTransferred",
      "type": "event"
    },
    {
      "anonymous": false,
      "inputs": [],
      "name": "PolicyLocked",
      "type": "event"
    },
    {
      "anonymous": false,
      "inputs": [
        {
          "indexed": true,
          "internalType": "address",
          "name": "sink",
          "type": "address"
        },
        {
          "indexed": false,
          "internalType": "uint64",
          "name": "effectiveAt",
          "type": "uint64"
        }
      ],
      "name": "SanctumSinkScheduled",
      "type": "event"
    },
    {
      "anonymous": false,
      "inputs": [
        {
          "indexed": true,
          "internalType": "address",
          "name": "sink",
          "type": "address"
        }
      ],
      "name": "SanctumSinkSet",
      "type": "event"
    },
    {
      "anonymous": false,
      "inputs": [
        {
          "indexed": true,
          "internalType": "address",
          "name": "who",
          "type": "address"
        },
        {
          "indexed": false,
          "internalType": "bool",
          "name": "isExempt",
          "type": "bool"
        },
        {
          "indexed": false,
          "internalType": "uint64",
          "name": "effectiveAt",
          "type": "uint64"
        }
      ],
      "name": "SystemExemptProposed",
      "type": "event"
    },
    {
      "anonymous": false,
      "inputs": [
        {
          "indexed": true,
          "internalType": "address",
          "name": "who",
          "type": "address"
        },
        {
          "indexed": false,
          "internalType": "bool",
          "name": "isExempt",
          "type": "bool"
        }
      ],
      "name": "SystemExemptSet",
      "type": "event"
    },
    {
      "anonymous": false,
      "inputs": [
        {
          "indexed": true,
          "internalType": "address",
          "name": "from",
          "type": "address"
        },
        {
          "indexed": true,
          "internalType": "address",
          "name": "to",
          "type": "address"
        },
        {
          "indexed": false,
          "internalType": "uint256",
          "name": "value",
          "type": "uint256"
        }
      ],
      "name": "Transfer",
      "type": "event"
    },
    {
      "anonymous": false,
      "inputs": [
        {
          "indexed": true,
          "internalType": "address",
          "name": "sink",
          "type": "address"
        },
        {
          "indexed": false,
          "internalType": "uint64",
          "name": "effectiveAt",
          "type": "uint64"
        }
      ],
      "name": "TreasurySinkScheduled",
      "type": "event"
    },
    {
      "anonymous": false,
      "inputs": [
        {
          "indexed": true,
          "internalType": "address",
          "name": "sink",
          "type": "address"
        }
      ],
      "name": "TreasurySinkSet",
      "type": "event"
    },
    {
      "anonymous": false,
      "inputs": [
        {
          "indexed": true,
          "internalType": "address",
          "name": "hub",
          "type": "address"
        },
        {
          "indexed": false,
          "internalType": "uint64",
          "name": "effectiveAt",
          "type": "uint64"
        }
      ],
      "name": "VaultHubScheduled",
      "type": "event"
    },
    {
      "anonymous": false,
      "inputs": [
        {
          "indexed": true,
          "internalType": "address",
          "name": "hub",
          "type": "address"
        }
      ],
      "name": "VaultHubSet",
      "type": "event"
    },
    {
      "anonymous": false,
      "inputs": [
        {
          "indexed": false,
          "internalType": "bool",
          "name": "enabled",
          "type": "bool"
        }
      ],
      "name": "VaultOnlySet",
      "type": "event"
    },
    {
      "anonymous": false,
      "inputs": [
        {
          "indexed": true,
          "internalType": "address",
          "name": "addr",
          "type": "address"
        },
        {
          "indexed": false,
          "internalType": "bool",
          "name": "exempt",
          "type": "bool"
        }
      ],
      "name": "WhaleLimitExemptSet",
      "type": "event"
    },
    {
      "anonymous": false,
      "inputs": [
        {
          "indexed": true,
          "internalType": "address",
          "name": "addr",
          "type": "address"
        },
        {
          "indexed": false,
          "internalType": "bool",
          "name": "status",
          "type": "bool"
        },
        {
          "indexed": false,
          "internalType": "uint64",
          "name": "effectiveAt",
          "type": "uint64"
        }
      ],
      "name": "WhitelistProposed",
      "type": "event"
    },
    {
      "anonymous": false,
      "inputs": [
        {
          "indexed": true,
          "internalType": "address",
          "name": "addr",
          "type": "address"
        },
        {
          "indexed": false,
          "internalType": "bool",
          "name": "status",
          "type": "bool"
        }
      ],
      "name": "Whitelisted",
      "type": "event"
    },
    {
      "inputs": [],
      "name": "DEV_RESERVE_SUPPLY",
      "outputs": [
        {
          "internalType": "uint256",
          "name": "",
          "type": "uint256"
        }
      ],
      "stateMutability": "view",
      "type": "function"
    },
    {
      "inputs": [],
      "name": "DOMAIN_SEPARATOR",
      "outputs": [
        {
          "internalType": "bytes32",
          "name": "",
          "type": "bytes32"
        }
      ],
      "stateMutability": "view",
      "type": "function"
    },
    {
      "inputs": [],
      "name": "EMERGENCY_CONTROLLER_DELAY",
      "outputs": [
        {
          "internalType": "uint64",
          "name": "",
          "type": "uint64"
        }
      ],
      "stateMutability": "view",
      "type": "function"
    },
    {
      "inputs": [],
      "name": "MAX_CIRCUIT_BREAKER_DURATION",
      "outputs": [
        {
          "internalType": "uint256",
          "name": "",
          "type": "uint256"
        }
      ],
      "stateMutability": "view",
      "type": "function"
    },
    {
      "inputs": [],
      "name": "MAX_SUPPLY",
      "outputs": [
        {
          "internalType": "uint256",
          "name": "",
          "type": "uint256"
        }
      ],
      "stateMutability": "view",
      "type": "function"
    },
    {
      "inputs": [],
      "name": "PERMIT_TYPEHASH",
      "outputs": [
        {
          "internalType": "bytes32",
          "name": "",
          "type": "bytes32"
        }
      ],
      "stateMutability": "view",
      "type": "function"
    },
    {
      "inputs": [],
      "name": "SINK_CHANGE_DELAY",
      "outputs": [
        {
          "internalType": "uint64",
          "name": "",
          "type": "uint64"
        }
      ],
      "stateMutability": "view",
      "type": "function"
    },
    {
      "inputs": [],
      "name": "acceptOwnership",
      "outputs": [],
      "stateMutability": "nonpayable",
      "type": "function"
    },
    {
      "inputs": [
        {
          "internalType": "address",
          "name": "owner_",
          "type": "address"
        },
        {
          "internalType": "address",
          "name": "spender",
          "type": "address"
        }
      ],
      "name": "allowance",
      "outputs": [
        {
          "internalType": "uint256",
          "name": "",
          "type": "uint256"
        }
      ],
      "stateMutability": "view",
      "type": "function"
    },
    {
      "inputs": [],
      "name": "applyAntiWhale",
      "outputs": [],
      "stateMutability": "nonpayable",
      "type": "function"
    },
    {
      "inputs": [],
      "name": "applyBurnRouter",
      "outputs": [],
      "stateMutability": "nonpayable",
      "type": "function"
    },
    {
      "inputs": [],
      "name": "applyEmergencyController",
      "outputs": [],
      "stateMutability": "nonpayable",
      "type": "function"
    },
    {
      "inputs": [],
      "name": "applyFraudRegistry",
      "outputs": [],
      "stateMutability": "nonpayable",
      "type": "function"
    },
    {
      "inputs": [],
      "name": "applyLedger",
      "outputs": [],
      "stateMutability": "nonpayable",
      "type": "function"
    },
    {
      "inputs": [],
      "name": "applySanctumSink",
      "outputs": [],
      "stateMutability": "nonpayable",
      "type": "function"
    },
    {
      "inputs": [],
      "name": "applyTreasurySink",
      "outputs": [],
      "stateMutability": "nonpayable",
      "type": "function"
    },
    {
      "inputs": [],
      "name": "applyVaultHub",
      "outputs": [],
      "stateMutability": "nonpayable",
      "type": "function"
    },
    {
      "inputs": [
        {
          "internalType": "address",
          "name": "spender",
          "type": "address"
        },
        {
          "internalType": "uint256",
          "name": "amount",
          "type": "uint256"
        }
      ],
      "name": "approve",
      "outputs": [
        {
          "internalType": "bool",
          "name": "",
          "type": "bool"
        }
      ],
      "stateMutability": "nonpayable",
      "type": "function"
    },
    {
      "inputs": [
        {
          "internalType": "address",
          "name": "account",
          "type": "address"
        }
      ],
      "name": "balanceOf",
      "outputs": [
        {
          "internalType": "uint256",
          "name": "",
          "type": "uint256"
        }
      ],
      "stateMutability": "view",
      "type": "function"
    },
    {
      "inputs": [
        {
          "internalType": "uint256",
          "name": "amount",
          "type": "uint256"
        }
      ],
      "name": "burn",
      "outputs": [],
      "stateMutability": "nonpayable",
      "type": "function"
    },
    {
      "inputs": [],
      "name": "burnRouter",
      "outputs": [
        {
          "internalType": "contract IProofScoreBurnRouterToken",
          "name": "",
          "type": "address"
        }
      ],
      "stateMutability": "view",
      "type": "function"
    },
    {
      "inputs": [
        {
          "internalType": "address",
          "name": "from",
          "type": "address"
        },
        {
          "internalType": "address",
          "name": "to",
          "type": "address"
        },
        {
          "internalType": "uint256",
          "name": "amount",
          "type": "uint256"
        }
      ],
      "name": "canTransfer",
      "outputs": [
        {
          "internalType": "bool",
          "name": "canDo",
          "type": "bool"
        },
        {
          "internalType": "string",
          "name": "reason",
          "type": "string"
        }
      ],
      "stateMutability": "view",
      "type": "function"
    },
    {
      "inputs": [],
      "name": "cancelAntiWhale",
      "outputs": [],
      "stateMutability": "nonpayable",
      "type": "function"
    },
    {
      "inputs": [],
      "name": "cancelBurnRouter",
      "outputs": [],
      "stateMutability": "nonpayable",
      "type": "function"
    },
    {
      "inputs": [],
      "name": "cancelEmergencyController",
      "outputs": [],
      "stateMutability": "nonpayable",
      "type": "function"
    },
    {
      "inputs": [],
      "name": "cancelFraudRegistry",
      "outputs": [],
      "stateMutability": "nonpayable",
      "type": "function"
    },
    {
      "inputs": [],
      "name": "cancelLedger",
      "outputs": [],
      "stateMutability": "nonpayable",
      "type": "function"
    },
    {
      "inputs": [],
      "name": "cancelOwnershipTransfer",
      "outputs": [],
      "stateMutability": "nonpayable",
      "type": "function"
    },
    {
      "inputs": [],
      "name": "cancelPendingExempt",
      "outputs": [],
      "stateMutability": "nonpayable",
      "type": "function"
    },
    {
      "inputs": [],
      "name": "cancelPendingWhitelist",
      "outputs": [],
      "stateMutability": "nonpayable",
      "type": "function"
    },
    {
      "inputs": [],
      "name": "cancelSanctumSink",
      "outputs": [],
      "stateMutability": "nonpayable",
      "type": "function"
    },
    {
      "inputs": [],
      "name": "cancelTreasurySink",
      "outputs": [],
      "stateMutability": "nonpayable",
      "type": "function"
    },
    {
      "inputs": [],
      "name": "cancelVaultHub",
      "outputs": [],
      "stateMutability": "nonpayable",
      "type": "function"
    },
    {
      "inputs": [],
      "name": "circuitBreaker",
      "outputs": [
        {
          "internalType": "bool",
          "name": "",
          "type": "bool"
        }
      ],
      "stateMutability": "view",
      "type": "function"
    },
    {
      "inputs": [],
      "name": "circuitBreakerExpiry",
      "outputs": [
        {
          "internalType": "uint256",
          "name": "",
          "type": "uint256"
        }
      ],
      "stateMutability": "view",
      "type": "function"
    },
    {
      "inputs": [],
      "name": "confirmCircuitBreaker",
      "outputs": [],
      "stateMutability": "nonpayable",
      "type": "function"
    },
    {
      "inputs": [],
      "name": "confirmSystemExempt",
      "outputs": [],
      "stateMutability": "nonpayable",
      "type": "function"
    },
    {
      "inputs": [],
      "name": "confirmWhitelist",
      "outputs": [],
      "stateMutability": "nonpayable",
      "type": "function"
    },
    {
      "inputs": [
        {
          "internalType": "address",
          "name": "account",
          "type": "address"
        }
      ],
      "name": "cooldownRemaining",
      "outputs": [
        {
          "internalType": "uint256",
          "name": "",
          "type": "uint256"
        }
      ],
      "stateMutability": "view",
      "type": "function"
    },
    {
      "inputs": [
        {
          "internalType": "address",
          "name": "",
          "type": "address"
        }
      ],
      "name": "dailyResetTime",
      "outputs": [
        {
          "internalType": "uint256",
          "name": "",
          "type": "uint256"
        }
      ],
      "stateMutability": "view",
      "type": "function"
    },
    {
      "inputs": [],
      "name": "dailyTransferLimit",
      "outputs": [
        {
          "internalType": "uint256",
          "name": "",
          "type": "uint256"
        }
      ],
      "stateMutability": "view",
      "type": "function"
    },
    {
      "inputs": [
        {
          "internalType": "address",
          "name": "",
          "type": "address"
        }
      ],
      "name": "dailyTransferred",
      "outputs": [
        {
          "internalType": "uint256",
          "name": "",
          "type": "uint256"
        }
      ],
      "stateMutability": "view",
      "type": "function"
    },
    {
      "inputs": [],
      "name": "decimals",
      "outputs": [
        {
          "internalType": "uint8",
          "name": "",
          "type": "uint8"
        }
      ],
      "stateMutability": "view",
      "type": "function"
    },
    {
      "inputs": [
        {
          "internalType": "address",
          "name": "spender",
          "type": "address"
        },
        {
          "internalType": "uint256",
          "name": "subtracted",
          "type": "uint256"
        }
      ],
      "name": "decreaseAllowance",
      "outputs": [
        {
          "internalType": "bool",
          "name": "",
          "type": "bool"
        }
      ],
      "stateMutability": "nonpayable",
      "type": "function"
    },
    {
      "inputs": [],
      "name": "emergencyController",
      "outputs": [
        {
          "internalType": "address",
          "name": "",
          "type": "address"
        }
      ],
      "stateMutability": "view",
      "type": "function"
    },
    {
      "inputs": [
        {
          "internalType": "address",
          "name": "newOwner",
          "type": "address"
        }
      ],
      "name": "emergencyTransferOwnership",
      "outputs": [],
      "stateMutability": "nonpayable",
      "type": "function"
    },
    {
      "inputs": [],
      "name": "feeBypass",
      "outputs": [
        {
          "internalType": "bool",
          "name": "",
          "type": "bool"
        }
      ],
      "stateMutability": "view",
      "type": "function"
    },
    {
      "inputs": [],
      "name": "feeBypassActivatedAt",
      "outputs": [
        {
          "internalType": "uint64",
          "name": "",
          "type": "uint64"
        }
      ],
      "stateMutability": "view",
      "type": "function"
    },
    {
      "inputs": [],
      "name": "feeBypassExpiry",
      "outputs": [
        {
          "internalType": "uint256",
          "name": "",
          "type": "uint256"
        }
      ],
      "stateMutability": "view",
      "type": "function"
    },
    {
      "inputs": [],
      "name": "fraudRegistry",
      "outputs": [
        {
          "internalType": "contract IFraudRegistry",
          "name": "",
          "type": "address"
        }
      ],
      "stateMutability": "view",
      "type": "function"
    },
    {
      "inputs": [
        {
          "internalType": "address",
          "name": "user",
          "type": "address"
        }
      ],
      "name": "getDailyTransferStats",
      "outputs": [
        {
          "internalType": "uint256",
          "name": "transferred",
          "type": "uint256"
        },
        {
          "internalType": "uint256",
          "name": "limit",
          "type": "uint256"
        },
        {
          "internalType": "uint256",
          "name": "remaining",
          "type": "uint256"
        },
        {
          "internalType": "uint256",
          "name": "resetTime",
          "type": "uint256"
        },
        {
          "internalType": "uint256",
          "name": "nextResetTime",
          "type": "uint256"
        }
      ],
      "stateMutability": "view",
      "type": "function"
    },
    {
      "inputs": [
        {
          "internalType": "address",
          "name": "from",
          "type": "address"
        },
        {
          "internalType": "address",
          "name": "to",
          "type": "address"
        },
        {
          "internalType": "uint256",
          "name": "amount",
          "type": "uint256"
        }
      ],
      "name": "getExpectedNetAmount",
      "outputs": [
        {
          "internalType": "uint256",
          "name": "",
          "type": "uint256"
        }
      ],
      "stateMutability": "view",
      "type": "function"
    },
    {
      "inputs": [
        {
          "internalType": "address",
          "name": "account",
          "type": "address"
        }
      ],
      "name": "getTransferLimitsFor",
      "outputs": [
        {
          "internalType": "uint256",
          "name": "maxPerTransfer",
          "type": "uint256"
        },
        {
          "internalType": "uint256",
          "name": "maxWallet",
          "type": "uint256"
        },
        {
          "internalType": "uint256",
          "name": "dailyLimit",
          "type": "uint256"
        },
        {
          "internalType": "uint256",
          "name": "dailyRemaining",
          "type": "uint256"
        },
        {
          "internalType": "uint256",
          "name": "cooldownSecs",
          "type": "uint256"
        },
        {
          "internalType": "uint256",
          "name": "cooldownRemain",
          "type": "uint256"
        },
        {
          "internalType": "bool",
          "name": "isExempt",
          "type": "bool"
        }
      ],
      "stateMutability": "view",
      "type": "function"
    },
    {
      "inputs": [
        {
          "internalType": "address",
          "name": "spender",
          "type": "address"
        },
        {
          "internalType": "uint256",
          "name": "added",
          "type": "uint256"
        }
      ],
      "name": "increaseAllowance",
      "outputs": [
        {
          "internalType": "bool",
          "name": "",
          "type": "bool"
        }
      ],
      "stateMutability": "nonpayable",
      "type": "function"
    },
    {
      "inputs": [],
      "name": "isCircuitBreakerActive",
      "outputs": [
        {
          "internalType": "bool",
          "name": "",
          "type": "bool"
        }
      ],
      "stateMutability": "view",
      "type": "function"
    },
    {
      "inputs": [],
      "name": "isFeeBypassed",
      "outputs": [
        {
          "internalType": "bool",
          "name": "",
          "type": "bool"
        }
      ],
      "stateMutability": "view",
      "type": "function"
    },
    {
      "inputs": [
        {
          "internalType": "address",
          "name": "",
          "type": "address"
        }
      ],
      "name": "lastTransferTime",
      "outputs": [
        {
          "internalType": "uint256",
          "name": "",
          "type": "uint256"
        }
      ],
      "stateMutability": "view",
      "type": "function"
    },
    {
      "inputs": [],
      "name": "ledger",
      "outputs": [
        {
          "internalType": "contract IProofLedger",
          "name": "",
          "type": "address"
        }
      ],
      "stateMutability": "view",
      "type": "function"
    },
    {
      "inputs": [],
      "name": "lockPolicy",
      "outputs": [],
      "stateMutability": "nonpayable",
      "type": "function"
    },
    {
      "inputs": [],
      "name": "maxTransferAmount",
      "outputs": [
        {
          "internalType": "uint256",
          "name": "",
          "type": "uint256"
        }
      ],
      "stateMutability": "view",
      "type": "function"
    },
    {
      "inputs": [],
      "name": "maxWalletBalance",
      "outputs": [
        {
          "internalType": "uint256",
          "name": "",
          "type": "uint256"
        }
      ],
      "stateMutability": "view",
      "type": "function"
    },
    {
      "inputs": [],
      "name": "name",
      "outputs": [
        {
          "internalType": "string",
          "name": "",
          "type": "string"
        }
      ],
      "stateMutability": "view",
      "type": "function"
    },
    {
      "inputs": [
        {
          "internalType": "address",
          "name": "",
          "type": "address"
        }
      ],
      "name": "nonces",
      "outputs": [
        {
          "internalType": "uint256",
          "name": "",
          "type": "uint256"
        }
      ],
      "stateMutability": "view",
      "type": "function"
    },
    {
      "inputs": [],
      "name": "owner",
      "outputs": [
        {
          "internalType": "address",
          "name": "",
          "type": "address"
        }
      ],
      "stateMutability": "view",
      "type": "function"
    },
    {
      "inputs": [],
      "name": "ownershipTransferDeadline",
      "outputs": [
        {
          "internalType": "uint64",
          "name": "",
          "type": "uint64"
        }
      ],
      "stateMutability": "view",
      "type": "function"
    },
    {
      "inputs": [],
      "name": "pendingAntiWhaleAt",
      "outputs": [
        {
          "internalType": "uint64",
          "name": "",
          "type": "uint64"
        }
      ],
      "stateMutability": "view",
      "type": "function"
    },
    {
      "inputs": [],
      "name": "pendingBurnRouter",
      "outputs": [
        {
          "internalType": "address",
          "name": "",
          "type": "address"
        }
      ],
      "stateMutability": "view",
      "type": "function"
    },
    {
      "inputs": [],
      "name": "pendingBurnRouterAt",
      "outputs": [
        {
          "internalType": "uint64",
          "name": "",
          "type": "uint64"
        }
      ],
      "stateMutability": "view",
      "type": "function"
    },
    {
      "inputs": [],
      "name": "pendingCircuitBreakerActive",
      "outputs": [
        {
          "internalType": "bool",
          "name": "",
          "type": "bool"
        }
      ],
      "stateMutability": "view",
      "type": "function"
    },
    {
      "inputs": [],
      "name": "pendingCircuitBreakerAt",
      "outputs": [
        {
          "internalType": "uint64",
          "name": "",
          "type": "uint64"
        }
      ],
      "stateMutability": "view",
      "type": "function"
    },
    {
      "inputs": [],
      "name": "pendingCircuitBreakerDuration",
      "outputs": [
        {
          "internalType": "uint256",
          "name": "",
          "type": "uint256"
        }
      ],
      "stateMutability": "view",
      "type": "function"
    },
    {
      "inputs": [],
      "name": "pendingCooldown",
      "outputs": [
        {
          "internalType": "uint256",
          "name": "",
          "type": "uint256"
        }
      ],
      "stateMutability": "view",
      "type": "function"
    },
    {
      "inputs": [],
      "name": "pendingDailyLimit",
      "outputs": [
        {
          "internalType": "uint256",
          "name": "",
          "type": "uint256"
        }
      ],
      "stateMutability": "view",
      "type": "function"
    },
    {
      "inputs": [],
      "name": "pendingEmergencyController",
      "outputs": [
        {
          "internalType": "address",
          "name": "",
          "type": "address"
        }
      ],
      "stateMutability": "view",
      "type": "function"
    },
    {
      "inputs": [],
      "name": "pendingEmergencyControllerAt",
      "outputs": [
        {
          "internalType": "uint64",
          "name": "",
          "type": "uint64"
        }
      ],
      "stateMutability": "view",
      "type": "function"
    },
    {
      "inputs": [],
      "name": "pendingExemptAddr",
      "outputs": [
        {
          "internalType": "address",
          "name": "",
          "type": "address"
        }
      ],
      "stateMutability": "view",
      "type": "function"
    },
    {
      "inputs": [],
      "name": "pendingExemptAt",
      "outputs": [
        {
          "internalType": "uint64",
          "name": "",
          "type": "uint64"
        }
      ],
      "stateMutability": "view",
      "type": "function"
    },
    {
      "inputs": [],
      "name": "pendingExemptStatus",
      "outputs": [
        {
          "internalType": "bool",
          "name": "",
          "type": "bool"
        }
      ],
      "stateMutability": "view",
      "type": "function"
    },
    {
      "inputs": [],
      "name": "pendingFraudRegistry",
      "outputs": [
        {
          "internalType": "address",
          "name": "",
          "type": "address"
        }
      ],
      "stateMutability": "view",
      "type": "function"
    },
    {
      "inputs": [],
      "name": "pendingFraudRegistryAt",
      "outputs": [
        {
          "internalType": "uint64",
          "name": "",
          "type": "uint64"
        }
      ],
      "stateMutability": "view",
      "type": "function"
    },
    {
      "inputs": [],
      "name": "pendingLedger",
      "outputs": [
        {
          "internalType": "address",
          "name": "",
          "type": "address"
        }
      ],
      "stateMutability": "view",
      "type": "function"
    },
    {
      "inputs": [],
      "name": "pendingLedgerAt",
      "outputs": [
        {
          "internalType": "uint64",
          "name": "",
          "type": "uint64"
        }
      ],
      "stateMutability": "view",
      "type": "function"
    },
    {
      "inputs": [],
      "name": "pendingMaxTransfer",
      "outputs": [
        {
          "internalType": "uint256",
          "name": "",
          "type": "uint256"
        }
      ],
      "stateMutability": "view",
      "type": "function"
    },
    {
      "inputs": [],
      "name": "pendingMaxWallet",
      "outputs": [
        {
          "internalType": "uint256",
          "name": "",
          "type": "uint256"
        }
      ],
      "stateMutability": "view",
      "type": "function"
    },
    {
      "inputs": [],
      "name": "pendingOwner",
      "outputs": [
        {
          "internalType": "address",
          "name": "",
          "type": "address"
        }
      ],
      "stateMutability": "view",
      "type": "function"
    },
    {
      "inputs": [],
      "name": "pendingSanctumSink",
      "outputs": [
        {
          "internalType": "address",
          "name": "",
          "type": "address"
        }
      ],
      "stateMutability": "view",
      "type": "function"
    },
    {
      "inputs": [],
      "name": "pendingSanctumSinkAt",
      "outputs": [
        {
          "internalType": "uint64",
          "name": "",
          "type": "uint64"
        }
      ],
      "stateMutability": "view",
      "type": "function"
    },
    {
      "inputs": [],
      "name": "pendingTreasurySink",
      "outputs": [
        {
          "internalType": "address",
          "name": "",
          "type": "address"
        }
      ],
      "stateMutability": "view",
      "type": "function"
    },
    {
      "inputs": [],
      "name": "pendingTreasurySinkAt",
      "outputs": [
        {
          "internalType": "uint64",
          "name": "",
          "type": "uint64"
        }
      ],
      "stateMutability": "view",
      "type": "function"
    },
    {
      "inputs": [],
      "name": "pendingVaultHub",
      "outputs": [
        {
          "internalType": "address",
          "name": "",
          "type": "address"
        }
      ],
      "stateMutability": "view",
      "type": "function"
    },
    {
      "inputs": [],
      "name": "pendingVaultHubAt",
      "outputs": [
        {
          "internalType": "uint64",
          "name": "",
          "type": "uint64"
        }
      ],
      "stateMutability": "view",
      "type": "function"
    },
    {
      "inputs": [],
      "name": "pendingWhitelistAddr",
      "outputs": [
        {
          "internalType": "address",
          "name": "",
          "type": "address"
        }
      ],
      "stateMutability": "view",
      "type": "function"
    },
    {
      "inputs": [],
      "name": "pendingWhitelistAt",
      "outputs": [
        {
          "internalType": "uint64",
          "name": "",
          "type": "uint64"
        }
      ],
      "stateMutability": "view",
      "type": "function"
    },
    {
      "inputs": [],
      "name": "pendingWhitelistStatus",
      "outputs": [
        {
          "internalType": "bool",
          "name": "",
          "type": "bool"
        }
      ],
      "stateMutability": "view",
      "type": "function"
    },
    {
      "inputs": [
        {
          "internalType": "address",
          "name": "owner",
          "type": "address"
        },
        {
          "internalType": "address",
          "name": "spender",
          "type": "address"
        },
        {
          "internalType": "uint256",
          "name": "value",
          "type": "uint256"
        },
        {
          "internalType": "uint256",
          "name": "deadline",
          "type": "uint256"
        },
        {
          "internalType": "uint8",
          "name": "v",
          "type": "uint8"
        },
        {
          "internalType": "bytes32",
          "name": "r",
          "type": "bytes32"
        },
        {
          "internalType": "bytes32",
          "name": "s",
          "type": "bytes32"
        }
      ],
      "name": "permit",
      "outputs": [],
      "stateMutability": "nonpayable",
      "type": "function"
    },
    {
      "inputs": [],
      "name": "policyLocked",
      "outputs": [
        {
          "internalType": "bool",
          "name": "",
          "type": "bool"
        }
      ],
      "stateMutability": "view",
      "type": "function"
    },
    {
      "inputs": [
        {
          "internalType": "address",
          "name": "from",
          "type": "address"
        },
        {
          "internalType": "address",
          "name": "to",
          "type": "address"
        },
        {
          "internalType": "uint256",
          "name": "amount",
          "type": "uint256"
        }
      ],
      "name": "previewTransferFees",
      "outputs": [
        {
          "internalType": "uint256",
          "name": "burnAmount",
          "type": "uint256"
        },
        {
          "internalType": "uint256",
          "name": "sanctumAmount",
          "type": "uint256"
        },
        {
          "internalType": "uint256",
          "name": "ecosystemAmount",
          "type": "uint256"
        },
        {
          "internalType": "uint256",
          "name": "netReceived",
          "type": "uint256"
        }
      ],
      "stateMutability": "view",
      "type": "function"
    },
    {
      "inputs": [
        {
          "internalType": "address",
          "name": "who",
          "type": "address"
        },
        {
          "internalType": "bool",
          "name": "isExempt",
          "type": "bool"
        }
      ],
      "name": "proposeSystemExempt",
      "outputs": [],
      "stateMutability": "nonpayable",
      "type": "function"
    },
    {
      "inputs": [
        {
          "internalType": "address",
          "name": "addr",
          "type": "address"
        },
        {
          "internalType": "bool",
          "name": "status",
          "type": "bool"
        }
      ],
      "name": "proposeWhitelist",
      "outputs": [],
      "stateMutability": "nonpayable",
      "type": "function"
    },
    {
      "inputs": [
        {
          "internalType": "address",
          "name": "account",
          "type": "address"
        }
      ],
      "name": "remainingDailyLimit",
      "outputs": [
        {
          "internalType": "uint256",
          "name": "",
          "type": "uint256"
        }
      ],
      "stateMutability": "view",
      "type": "function"
    },
    {
      "inputs": [],
      "name": "renounceOwnership",
      "outputs": [],
      "stateMutability": "nonpayable",
      "type": "function"
    },
    {
      "inputs": [],
      "name": "sanctumSink",
      "outputs": [
        {
          "internalType": "address",
          "name": "",
          "type": "address"
        }
      ],
      "stateMutability": "view",
      "type": "function"
    },
    {
      "inputs": [
        {
          "internalType": "uint256",
          "name": "_maxTransfer",
          "type": "uint256"
        },
        {
          "internalType": "uint256",
          "name": "_maxWallet",
          "type": "uint256"
        },
        {
          "internalType": "uint256",
          "name": "_dailyLimit",
          "type": "uint256"
        },
        {
          "internalType": "uint256",
          "name": "_cooldown",
          "type": "uint256"
        }
      ],
      "name": "setAntiWhale",
      "outputs": [],
      "stateMutability": "nonpayable",
      "type": "function"
    },
    {
      "inputs": [
        {
          "internalType": "address",
          "name": "router",
          "type": "address"
        }
      ],
      "name": "setBurnRouter",
      "outputs": [],
      "stateMutability": "nonpayable",
      "type": "function"
    },
    {
      "inputs": [
        {
          "internalType": "bool",
          "name": "_active",
          "type": "bool"
        },
        {
          "internalType": "uint256",
          "name": "_duration",
          "type": "uint256"
        }
      ],
      "name": "setCircuitBreaker",
      "outputs": [],
      "stateMutability": "nonpayable",
      "type": "function"
    },
    {
      "inputs": [
        {
          "internalType": "address",
          "name": "controller",
          "type": "address"
        }
      ],
      "name": "setEmergencyController",
      "outputs": [],
      "stateMutability": "nonpayable",
      "type": "function"
    },
    {
      "inputs": [
        {
          "internalType": "bool",
          "name": "_active",
          "type": "bool"
        },
        {
          "internalType": "uint256",
          "name": "_duration",
          "type": "uint256"
        }
      ],
      "name": "setFeeBypass",
      "outputs": [],
      "stateMutability": "nonpayable",
      "type": "function"
    },
    {
      "inputs": [
        {
          "internalType": "address",
          "name": "_registry",
          "type": "address"
        }
      ],
      "name": "setFraudRegistry",
      "outputs": [],
      "stateMutability": "nonpayable",
      "type": "function"
    },
    {
      "inputs": [
        {
          "internalType": "address",
          "name": "_ledger",
          "type": "address"
        }
      ],
      "name": "setLedger",
      "outputs": [],
      "stateMutability": "nonpayable",
      "type": "function"
    },
    {
      "inputs": [
        {
          "internalType": "address",
          "name": "_sanctum",
          "type": "address"
        }
      ],
      "name": "setSanctumSink",
      "outputs": [],
      "stateMutability": "nonpayable",
      "type": "function"
    },
    {
      "inputs": [
        {
          "internalType": "address",
          "name": "sink",
          "type": "address"
        }
      ],
      "name": "setTreasurySink",
      "outputs": [],
      "stateMutability": "nonpayable",
      "type": "function"
    },
    {
      "inputs": [
        {
          "internalType": "address",
          "name": "hub",
          "type": "address"
        }
      ],
      "name": "setVaultHub",
      "outputs": [],
      "stateMutability": "nonpayable",
      "type": "function"
    },
    {
      "inputs": [
        {
          "internalType": "bool",
          "name": "enabled",
          "type": "bool"
        }
      ],
      "name": "setVaultOnly",
      "outputs": [],
      "stateMutability": "nonpayable",
      "type": "function"
    },
    {
      "inputs": [
        {
          "internalType": "address",
          "name": "addr",
          "type": "address"
        },
        {
          "internalType": "bool",
          "name": "exempt",
          "type": "bool"
        }
      ],
      "name": "setWhaleLimitExempt",
      "outputs": [],
      "stateMutability": "nonpayable",
      "type": "function"
    },
    {
      "inputs": [],
      "name": "symbol",
      "outputs": [
        {
          "internalType": "string",
          "name": "",
          "type": "string"
        }
      ],
      "stateMutability": "view",
      "type": "function"
    },
    {
      "inputs": [],
      "name": "syncEmergencyFlags",
      "outputs": [],
      "stateMutability": "nonpayable",
      "type": "function"
    },
    {
      "inputs": [
        {
          "internalType": "address",
          "name": "",
          "type": "address"
        }
      ],
      "name": "systemExempt",
      "outputs": [
        {
          "internalType": "bool",
          "name": "",
          "type": "bool"
        }
      ],
      "stateMutability": "view",
      "type": "function"
    },
    {
      "inputs": [],
      "name": "totalBurnedToDate",
      "outputs": [
        {
          "internalType": "uint256",
          "name": "",
          "type": "uint256"
        }
      ],
      "stateMutability": "view",
      "type": "function"
    },
    {
      "inputs": [],
      "name": "totalSupply",
      "outputs": [
        {
          "internalType": "uint256",
          "name": "",
          "type": "uint256"
        }
      ],
      "stateMutability": "view",
      "type": "function"
    },
    {
      "inputs": [],
      "name": "transactionFeesProcessed",
      "outputs": [
        {
          "internalType": "uint256",
          "name": "",
          "type": "uint256"
        }
      ],
      "stateMutability": "view",
      "type": "function"
    },
    {
      "inputs": [
        {
          "internalType": "address",
          "name": "to",
          "type": "address"
        },
        {
          "internalType": "uint256",
          "name": "amount",
          "type": "uint256"
        }
      ],
      "name": "transfer",
      "outputs": [
        {
          "internalType": "bool",
          "name": "",
          "type": "bool"
        }
      ],
      "stateMutability": "nonpayable",
      "type": "function"
    },
    {
      "inputs": [],
      "name": "transferCooldown",
      "outputs": [
        {
          "internalType": "uint256",
          "name": "",
          "type": "uint256"
        }
      ],
      "stateMutability": "view",
      "type": "function"
    },
    {
      "inputs": [
        {
          "internalType": "address",
          "name": "from",
          "type": "address"
        },
        {
          "internalType": "address",
          "name": "to",
          "type": "address"
        },
        {
          "internalType": "uint256",
          "name": "amount",
          "type": "uint256"
        }
      ],
      "name": "transferFrom",
      "outputs": [
        {
          "internalType": "bool",
          "name": "",
          "type": "bool"
        }
      ],
      "stateMutability": "nonpayable",
      "type": "function"
    },
    {
      "inputs": [
        {
          "internalType": "address",
          "name": "newOwner",
          "type": "address"
        }
      ],
      "name": "transferOwnership",
      "outputs": [],
      "stateMutability": "nonpayable",
      "type": "function"
    },
    {
      "inputs": [],
      "name": "treasurySink",
      "outputs": [
        {
          "internalType": "address",
          "name": "",
          "type": "address"
        }
      ],
      "stateMutability": "view",
      "type": "function"
    },
    {
      "inputs": [],
      "name": "vaultHub",
      "outputs": [
        {
          "internalType": "contract IVaultHub",
          "name": "",
          "type": "address"
        }
      ],
      "stateMutability": "view",
      "type": "function"
    },
    {
      "inputs": [],
      "name": "vaultOnly",
      "outputs": [
        {
          "internalType": "bool",
          "name": "",
          "type": "bool"
        }
      ],
      "stateMutability": "view",
      "type": "function"
    },
    {
      "inputs": [
        {
          "internalType": "address",
          "name": "",
          "type": "address"
        }
      ],
      "name": "whaleLimitExempt",
      "outputs": [
        {
          "internalType": "bool",
          "name": "",
          "type": "bool"
        }
      ],
      "stateMutability": "view",
      "type": "function"
    },
    {
      "inputs": [
        {
          "internalType": "address",
          "name": "",
          "type": "address"
        }
      ],
      "name": "whitelisted",
      "outputs": [
        {
          "internalType": "bool",
          "name": "",
          "type": "bool"
        }
      ],
      "stateMutability": "view",
      "type": "function"
    }
  ],
  "bytecode": "0x60808060405234610560575f60a0826162d580380380916100208285610636565b833981010312610560576100338261066d565b916100406020820161066d565b9061004d6040820161066d565b90610066608061005f6060840161066d565b920161066d565b5f80546001600160a01b031916339081178255919391907f8be0079c531659141344cd1fd0a4f28419497f9722a3daafe3b4186f6b6457e08180a360016004556a01a784379d99db420000006005556a034f086f3b33b6840000006006556a0422ca8b0a00a4250000006007555f60088190556019805462ffffff60e01b1916600160e01b179055601a819055601b805460ff19169055601c55601d80546001600160401b03191690556001600160a01b038616938415610627576001600160a01b0316958615610627573b15610618576001600160a01b0316806105dc575b506001600160a01b0316806105a0575b506001600160a01b031680610564575b50805f52600c60205260405f20600160ff19825416179055825f52600c60205260405f20600160ff1982541617905546602c556040516101a7604082610636565b600b81526a2b2324a222902a37b5b2b760a91b602090910152604080517f4ce082c216934f45765aa52f1d82612cdb513a49760946798ca41165309f978c916101f09082610636565b600181526020810190603160f81b82525190206040519060208201927f8b73c3c69bb8fe3d512ecc4cf759cc79239f7b179b0ffacaa9a75d522b39400f8452604083015260608201524660808201523060a082015260a0815261025460c082610636565b519020602b556aa56fa5b99019a5c8000000601255805f5260136020526a295be96e6406697200000060405f2055805f5f5160206162b55f395f51905f5260206040516a295be96e640669720000008152a36040516102b4604082610636565b601381527f7072656d696e745f6465765f726573657276650000000000000000000000000060208201526040516102ec604082610636565b600a8152690d4c13481b1bd8dad95960b21b60208201526016546001600160a01b0316806104a2575b5050505081815260136020526a7c13bc4b2c133c56000000604082205581815f5160206162b55f395f51905f5260206040516a7c13bc4b2c133c560000008152a360405190610365604083610636565b601082526f7072656d696e745f747265617375727960801b6020830152604051610390604082610636565b601381527f3135304d20666f72206f7065726174696f6e730000000000000000000000000060208201526016546001600160a01b031690816103dc575b604051615bef90816106a68239f35b813b1561049e5761043a83928392604051958680948193630303c28760e61b83528b600484015260806024840152610417608484018c610681565b6a7c13bc4b2c133c56000000604485015283810360031901606485015290610681565b03925af19182610486575b505061047f576104715f5160206162955f395f51905f5291604051918291602083526020830190610681565b0390a25b5f808080806103cd565b5050610475565b610491828092610636565b61049b5780610445565b80fd5b8280fd5b803b15610560576105015f92918392604051948580948193630303c28760e61b83528a6004840152608060248401526104de608484018b610681565b6a295be96e64066972000000604485015283810360031901606485015290610681565b03925af1908161054b575b50610544576105375f5160206162955f395f51905f5291604051918291602083526020830190610681565b0390a25b5f808080610315565b505061053b565b6105589194505f90610636565b5f925f61050c565b5f80fd5b602080546001600160a01b031916821790557f3f2254a28ba18b54180672b4e5f33b7cbe996e44be5c1ebe9057f49e894cde315f80a25f610166565b601680546001600160a01b031916821790557fbc62e69a31739e36d57d56991ac20e4e507a7edfff9070e6a11df5a37b8b4e6f5f80a25f610156565b601580546001600160a01b031916821790557fbb3d89b3025a50f5b3f9fc1bfe23194ad7fb05af4e31ab293af4a947960954d55f80a25f610146565b637094f5e760e11b5f5260045ffd5b63ebeb59ad60e01b5f5260045ffd5b601f909101601f19168101906001600160401b0382119082101761065957604052565b634e487b7160e01b5f52604160045260245ffd5b51906001600160a01b038216820361056057565b805180835260209291819084018484015e5f828201840152601f01601f191601019056fe6080806040526004361015610012575f80fd5b5f3560e01c90816301ca9041146136ef5750806306e0c52c146136ca57806306fdde031461369b5780630741206e146135b5578063091a76ca1461358d578063095ea7b3146135675780630984d6661461352a5780630cb9678714610b1d5780630d19d5c5146135025780630d2d8a31146134ca57806313d1ad081461345557806314ff370d146134305780631506d46f1461340857806315112f11146133dc57806316560e461461332957806316efd9411461330457806318160ddd146132e7578063198803b1146131355780631dc4b09c1461302a5780631eb1db4114612f745780631f0e399014612f375780631ff19db714612f0b57806322a7caf514612eee57806323452b9c14612eb157806323b872dd14612e53578063241a5ae714612ddf5780632751c77f14612dba578063278aedb514612d985780632cf3435214612ce157806330adf81f14612cba57806330e7668414612c82578063313ce56714612c675780633246887d14612b6157806332941ecb14612b4757806332cb6b0c14612b225780633391fe4a14612af65780633644e51514612adc5780633950935114612a955780633adfdfff146129885780633bf26974146128225780633c2f9fe4146126b757806342966c68146125e757806344327cd5146125bf57806347064644146125a257806347583c23146125255780634d02d02e146124fd57806350140c06146124d357806353a0f3ff146124a757806356397c351461247f57806358d85204146124535780635a43e176146123e35780636663fd311461237157806368b89686146122fe57806368f16293146122e15780636909b93d146122b55780636c32b2ec1461228d5780636ca7dc891461215b5780636dd6e80b1461213357806370a08231146120fb578063715018a61461209e5780637189bdd114612074578063748ada52146120795780637738d69d14612074578063778519f01461205757806379036e901461201f578063793bb51914611faa5780637997a31714611f3d57806379ba509714611e445780637a936beb14611e1c5780637adc723d14611ddf5780637b7e526714611d0f5780637e00cac714611c5f5780637ecebe0014611c2757806381d2f3d514611c0f5780638b2ecc8514611b0b5780638bea4f2d14611ae55780638da5cb5b14611abe57806393de982414611a9657806395d89b4114611a4f57806398ab696114611a2757806398d874e31461196f57806399e793a01461194a5780639a03f224146118cb5780639c97dbf2146117ff5780639d82190f146117dc5780639dac0641146117995780639dde9ad7146116db5780639f600038146116b3578063a1479a2f146115e0578063a34857cd146114d3578063a457c2d714611462578063a4db97fc14611445578063a5097b8314611419578063a8558771146113fc578063a9059cbb146113be578063a9e75723146113a1578063ae28341d14611375578063ae577e4a1461128b578063b13b5d3514611267578063b1a334141461123f578063b55e3f3a14611133578063b5dc14fa14611107578063b6927497146110ea578063bbde77c1146110cd578063beeeb4ce146110a5578063c4b740f514610fab578063c90d54aa14610f92578063d505accf14610df2578063d6b5473514610db5578063d7b54c8c14610d8d578063d8b7694e14610d70578063d936547e14610d33578063dbdf6e9514610d0e578063dcfb84bb14610ce2578063dd62ed3e14610c92578063de83219e14610b84578063e30c397814610b5c578063e46638e614610b22578063e8bed02014610b1d578063e985c6f614610af5578063edbdaa7314610acd578063f2af43cd14610aa5578063f2fde38b146109e0578063f497e873146109b5578063f714af6f14610998578063f7bb619e146108c6578063f81ae06d14610795578063f8a2bf761461072f5763fa037766146105a7575f80fd5b3461072b57604036600319011261072b576105c0613805565b602435906105cc6144ed565b6105d4615735565b61065357506019805460ff60f01b191690555f601a819055602a80546001600160401b03191690556040805182815260208101929092525f516020615b435f395f51905f5291a161065160405161062c604082613709565b601381527231b4b931bab4ba2fb13932b0b5b2b92fb7b33360691b6020820152614536565b005b8015801561071f575b610710576028805460ff60e81b1916600160e81b17905560298190557f047a11cf21cb7e5d47e4e739a5f28d9413e07b8b3df36e3fe0c7cab2a1a2a3d0906060906001600160401b036106b0428216613887565b168060018060401b0319602a541617602a55604051916001835260208301526040820152a16106516040516106e6604082613709565b601881527718da5c98dd5a5d17d89c99585ad95c97dc1c9bdc1bdcd95960421b6020820152614536565b630cd491ad60e21b5f5260045ffd5b5062093a80811161065c565b5f80fd5b3461072b575f36600319011261072b576107476144ed565b60035461076260a082901c6001600160401b03161515613b7b565b6001600160e01b0319166003557fb205cbeedf25e8cb84969b0360670dbfab45d5996607417b83db531a77fa23165f80a1005b3461072b57604036600319011261072b576107ae61378d565b6107b66137f6565b906107bf6144ed565b6001600160a01b03811680156108b75760275460a881901c6001600160401b03166108a857610651937f7677b48366cf49e4c155d1623a737ff903f1c270733c8df1303e3fe47641fa359183600160a81b600160e81b03610828426001600160401b0316613887565b60a81b169162ffffff60e81b161760ff60a01b83151560a01b1617178060275561086460405192839260018060401b039060a81c169083613dbf565b0390a2604051610875604082613709565b600f81526e195e195b5c1d17dc1c9bdc1bdcd959608a1b6020820152604051916108a0602084613709565b5f835261558e565b639e913baf60e01b5f5260045ffd5b6330d0de7360e11b5f5260045ffd5b3461072b575f36600319011261072b576108de6144ed565b60225460a081901c6001600160401b0316801561098957421061097b57601780546001600160a01b0319166001600160a01b0383169081179091557faf9b9a8ca16be293d721c9b992abdb79c8c7a18ed68c393cc10deeaf4b2f99775f80a263ffffffff60e01b1660225561065160405161095a604082613709565b600f81526e189d5c9b97dc9bdd5d195c97dcd95d608a1b6020820152614536565b62a80d4560e41b5f5260045ffd5b631611060960e01b5f5260045ffd5b3461072b575f36600319011261072b576020600754604051908152f35b3461072b57602036600319011261072b5760206109d86109d361378d565b61446c565b604051908152f35b3461072b57602036600319011261072b576109f961378d565b610a016144ed565b6001600160a01b0316610a15811515613b43565b600180546001600160a01b031916821790554262093a808101908110610a915760028054600160a01b600160e01b03191660a09290921b600160a01b600160e01b03169190911790555f80546001600160a01b0316907f38d16b8cac22d99fc7c124b9cd0de2d3fa1faef420bfe791d8c362d765e227009080a3005b634e487b7160e01b5f52601160045260245ffd5b3461072b575f36600319011261072b576018546040516001600160a01b039091168152602090f35b3461072b575f36600319011261072b576011546040516001600160401b039091168152602090f35b3461072b575f36600319011261072b57602a546040516001600160401b039091168152602090f35b6137b9565b3461072b57610b39610b3336613814565b91613dda565b90610b5860405192839215158352604060208401526040830190613769565b0390f35b3461072b575f36600319011261072b576001546040516001600160a01b039091168152602090f35b3461072b57604036600319011261072b57610b9d61378d565b610ba56137f6565b90610bae6144ed565b6001600160a01b03811680156108b75760285460a881901c6001600160401b03166108a857610651937f41c953326ddf3c5a431cc35c2d61177b0a9696d1157385532bfc6a9a1d3746ec9183600160a81b600160e81b03610c17426001600160401b0316613887565b60a81b169162ffffff60e81b161760ff60a01b83151560a01b16171780602855610c5360405192839260018060401b039060a81c169083613dbf565b0390a2604051610c64604082613709565b60128152711dda1a5d195b1a5cdd17dc1c9bdc1bdcd95960721b6020820152604051916108a0602084613709565b3461072b57604036600319011261072b57610cab61378d565b610cb36137a3565b6001600160a01b039182165f908152601460209081526040808320949093168252928352819020549051908152f35b3461072b575f36600319011261072b5760195460405160a09190911c6001600160401b03168152602090f35b3461072b575f36600319011261072b57602060ff60275460a01c166040519015158152f35b3461072b57602036600319011261072b576001600160a01b03610d5461378d565b165f52601f602052602060ff60405f2054166040519015158152f35b3461072b575f36600319011261072b576020602954604051908152f35b3461072b575f36600319011261072b576028546040516001600160a01b039091168152602090f35b3461072b57602036600319011261072b576001600160a01b03610dd661378d565b165f52601e602052602060ff60405f2054166040519015158152f35b3461072b5760e036600319011261072b57610e0b61378d565b610e136137a3565b6044359060843560ff811680910361072b5760c4356064354211610f83576fa2a8918ca85bafe22016d0b997e4df60600160ff1b038111610f5357601b82141580610f78575b610f53576001600160a01b0385165f818152602d60205260409020805491935f198314610a91576020938360809360015f96019055604051868101915f516020615bc35f395f51905f52835288604083015260018060a01b038a1660608301528a8683015260a082015260a08152610ed260c082613709565b519020610edd613900565b90604051908782019261190160f01b84526022830152604282015260428152610f07606282613709565b519020916040519283528583015260a4356040830152606082015282805260015afa15610f6d575f516001600160a01b0316801591908215610f62575b5050610f5357610651926145d3565b6348ff37e560e01b5f5260045ffd5b141590508480610f44565b6040513d5f823e3d90fd5b50601c821415610e59565b63c69216a760e01b5f5260045ffd5b3461072b5760206109d8610fa536613814565b91613d0f565b3461072b57602036600319011261072b57610fc4613805565b610fcc6144ed565b60195460ff8160e81c168061109d575b61108e5760ff60e01b191681151560e081901b60ff60e01b16919091176019556040519081527fc700a08714659bf8ab2121ea3f1f64e22835cf102ad9ba5d0816e55a23f6ea2c90602090a11561105d5761065160405161103e604082613709565b600d81526c3b30bab63a2fb7b7363cafb7b760991b6020820152614536565b61065160405161106e604082613709565b600e81526d3b30bab63a2fb7b7363cafb7b33360911b6020820152614536565b63015c1ff360e51b5f5260045ffd5b508115610fdc565b3461072b575f36600319011261072b576021546040516001600160a01b039091168152602090f35b3461072b575f36600319011261072b576020600654604051908152f35b3461072b575f36600319011261072b57602060405162093a808152f35b3461072b575f36600319011261072b5760265460405160a09190911c6001600160401b03168152602090f35b3461072b57602036600319011261072b5761114c61378d565b6111546144ed565b60ff60195460e81c168061122e575b61108e576024549060a082901c6001600160401b03166108a8577f6d0fc93562b3b1523f9712a9a2616974e3b7f26c727e2e01d1bc5730a88ddc87906020906111b4426001600160401b0316613887565b6001600160e01b03199094166001600160a01b0390911690811760a085901b600160a01b600160e01b0316176024556040516001600160401b03909416845292a2610651604051611206604082613709565b60168152751cd85b98dd1d5b57dcda5b9ad7dcd8da19591d5b195960521b6020820152614536565b506001600160a01b03811615611163565b3461072b575f36600319011261072b576022546040516001600160a01b039091168152602090f35b3461072b575f36600319011261072b576020611281613cee565b6040519015158152f35b3461072b57602036600319011261072b576112a461378d565b6112ac6144ed565b6019549060a082901c6001600160401b03166108a8577ff17f7cf5f6546823bf7f688ac11ff076d6fe4bccb5696d0e90d09b9d1bea984b906020906112f9426001600160401b0316613887565b6001600160e01b03199094166001600160a01b0390911690811760a085901b600160a01b600160e01b0316176019556040516001600160401b03909416845292a261065160405161134b604082613709565b6018815277199c985d5917dc9959da5cdd1c9e57dcd8da19591d5b195960421b6020820152614536565b3461072b575f36600319011261072b5760255460405160a09190911c6001600160401b03168152602090f35b3461072b575f36600319011261072b576020600554604051908152f35b3461072b57604036600319011261072b576113ec6113da61378d565b6113e261464f565b60243590336146e8565b6001600455602060405160018152f35b3461072b575f36600319011261072b576020601054604051908152f35b3461072b575f36600319011261072b5760275460405160a89190911c6001600160401b03168152602090f35b3461072b575f36600319011261072b576020600e54604051908152f35b3461072b57604036600319011261072b5761147b61378d565b60243590335f52601460205260405f2060018060a01b0382165f5260205260405f20548281106114c4576114b9926114b2916138bf565b90336145d3565b602060405160018152f35b63811f720f60e01b5f5260045ffd5b3461072b57602036600319011261072b576114ec61378d565b6114f46144ed565b60ff60195460e81c16806115cf575b61108e576023549060a082901c6001600160401b03166108a8577fd48cc60147513f098d4a0df95c9e3b5df20030fd8b7517370924d9aab51f69d490602090611554426001600160401b0316613887565b6001600160e01b03199094166001600160a01b0390911690811760a085901b600160a01b600160e01b0316176023556040516001600160401b03909416845292a26106516040516115a6604082613709565b60178152761d1c99585cdd5c9e57dcda5b9ad7dcd8da19591d5b1959604a1b6020820152614536565b506001600160a01b03811615611503565b3461072b575f36600319011261072b576115f86144ed565b6011546001600160401b038116801561098957421061097b577fdd527915e4785ab4e44c56581b4895b2cf4ce1414470508ea4a3d00623fba914600d5480600555600e54908160065561165f600f548060075560105490816008556040519485948561384e565b0390a15f600d555f600e555f600f555f60105560018060401b03191660115561065160405161168f604082613709565b6012815271185b9d1a57ddda185b1957d85c1c1b1a595960721b6020820152614536565b3461072b575f36600319011261072b576003546040516001600160a01b039091168152602090f35b3461072b575f36600319011261072b576116f36144ed565b602a546001600160401b0316801561098957421061097b57611713615735565b6019805460ff60f01b1916600160f01b1790556029545f516020615b435f395f51905f529060409061174590426138b2565b80601a55600180831b0319602a5416602a55815190600182526020820152a1610651604051611775604082613709565b601281527131b4b931bab4ba2fb13932b0b5b2b92fb7b760711b6020820152614536565b3461072b57602036600319011261072b5760a06117bc6117b761378d565b613c1e565b926040929192519485526020850152604084015260608301526080820152f35b3461072b57602036600319011261072b5760206109d86117fa61378d565b613bc4565b3461072b575f36600319011261072b576118176144ed565b60035460a081901c6001600160401b0316611833811515613b7b565b421061188f57600280546001600160a01b031981166001600160a01b038481169182179093556001600160e01b0319909316600355167f2e8141caf5e7501960d8d6012fe36a5ab7838a62d75e6792901cee89ab8001965f80a3005b60405162461bcd60e51b81526020600482015260146024820152734f574e3a2074696d656c6f636b2061637469766560601b6044820152606490fd5b3461072b575f36600319011261072b576118e36144ed565b6019805460ff60e81b1916600160e81b1790557f3ce392d8aa0912d44ce27fbdd025b988ec76fd2b53f0ab8b479ed539069d2b345f80a161065160405161192b604082613709565b600d81526c1c1bdb1a58de57db1bd8dad959609a1b6020820152614536565b3461072b575f36600319011261072b5760206040516a295be96e640669720000008152f35b3461072b575f36600319011261072b576119876144ed565b60195460a081901c6001600160401b0316801561098957421061097b57601880546001600160a01b0319166001600160a01b0383169081179091557f70f29927f1c8c3d3f6ba973623584b334491a8b2164dd5ef6c09cd00e426c9855f80a263ffffffff60e01b16601955610651604051611a03604082613709565b6012815271199c985d5917dc9959da5cdd1c9e57dcd95d60721b6020820152614536565b3461072b575f36600319011261072b576019546040516001600160a01b039091168152602090f35b3461072b575f36600319011261072b57610b58604051611a70604082613709565b6005815264564649444560d81b6020820152604051918291602083526020830190613769565b3461072b575f36600319011261072b57601d546040516001600160401b039091168152602090f35b3461072b575f36600319011261072b575f546040516001600160a01b039091168152602090f35b3461072b575f36600319011261072b57602080546040516001600160a01b039091168152f35b3461072b575f36600319011261072b57611b236144ed565b60275460a881901c6001600160401b0316801561098957421061097b576001600160a01b0381165f818152601e60205260409020611bd39260a01c60ff1690611b6d9082906138a1565b817f44f2eda14b8ba74d08291fccb7fe6e96b0188538fb528966e0d02a84713f290d60206040518415158152a215611be557604051611bad604082613709565b600981526832bc32b6b83a2fb7b760b91b60208201525b604051916108a0602084613709565b602780546001600160e81b0319169055005b604051611bf3604082613709565b600a81526932bc32b6b83a2fb7b33360b11b6020820152611bc4565b3461072b575f36600319011261072b57610651615735565b3461072b57602036600319011261072b576001600160a01b03611c4861378d565b165f52602d602052602060405f2054604051908152f35b3461072b575f36600319011261072b57611c776144ed565b60265460a081901c6001600160401b0316801561098957421061097b57601680546001600160a01b0319166001600160a01b0383169081179091557fbc62e69a31739e36d57d56991ac20e4e507a7edfff9070e6a11df5a37b8b4e6f5f80a263ffffffff60e01b16602655610651604051611cf3604082613709565b600a8152691b195919d95c97dcd95d60b21b6020820152614536565b3461072b57602036600319011261072b57611d2861378d565b600254906001600160a01b0382163303611d9a576001600160a01b0316611d50811515613b43565b5f548160018060a01b0382165f516020615b835f395f51905f525f80a36001600160a01b0319908116919091175f55600180549091169055600160a01b600160e01b031916600255005b60405162461bcd60e51b815260206004820152601d60248201527f4f574e3a206e6f7420656d657267656e637920636f6e74726f6c6c65720000006044820152606490fd5b3461072b57602036600319011261072b576001600160a01b03611e0061378d565b165f52600c602052602060ff60405f2054166040519015158152f35b3461072b575f36600319011261072b576002546040516001600160a01b039091168152602090f35b3461072b575f36600319011261072b576001546001600160a01b0381163303611eff576002549060a082901c6001600160401b03164211611ec2575f543360018060a01b0382165f516020615b835f395f51905f525f80a36001600160a01b031990811633175f5516600155600160a01b600160e01b031916600255005b60405162461bcd60e51b815260206004820152601560248201527413d5d38e881d1c985b9cd9995c88195e1c1a5c9959605a1b6044820152606490fd5b60405162461bcd60e51b815260206004820152601660248201527527aba71d103737ba103832b73234b7339037bbb732b960511b6044820152606490fd5b3461072b575f36600319011261072b57611f556144ed565b60265460a081901c6001600160401b0316156109895763ffffffff60e01b16602655610651604051611f88604082613709565b601081526f1b195919d95c97d8d85b98d95b1b195960821b6020820152614536565b3461072b575f36600319011261072b57611fc26144ed565b60195460a081901c6001600160401b0316156109895763ffffffff60e01b16601955610651604051611ff5604082613709565b6018815277199c985d5917dc9959da5cdd1c9e57d8d85b98d95b1b195960421b6020820152614536565b3461072b57602036600319011261072b576001600160a01b0361204061378d565b165f526009602052602060405f2054604051908152f35b3461072b575f36600319011261072b576020600d54604051908152f35b61386a565b3461072b575f36600319011261072b57602060ff60195460e81c166040519015158152f35b3461072b575f36600319011261072b576120b66144ed565b60405162461bcd60e51b815260206004820152601d60248201527f5646494445546f6b656e3a2072656e6f756e63652064697361626c65640000006044820152606490fd5b3461072b57602036600319011261072b576001600160a01b0361211c61378d565b165f526013602052602060405f2054604051908152f35b3461072b575f36600319011261072b576015546040516001600160a01b039091168152602090f35b3461072b57602036600319011261072b5761217461378d565b61217c6144ed565b6001600160a01b031680156122515760035460a081901c6001600160401b031661220c577f139c5347770995c23b1e768308632d39bb6806801a98cf7d64e68feb4092c0639060209083600160a01b600160e01b036121e3426001600160401b0316613887565b60a01b169163ffffffff60e01b161717806003556040519060018060401b039060a01c168152a2005b60405162461bcd60e51b815260206004820152601e60248201527f4f574e3a2070656e64696e6720636f6e74726f6c6c65722065786973747300006044820152606490fd5b60405162461bcd60e51b815260206004820152601460248201527327aba71d103d32b9379031b7b73a3937b63632b960611b6044820152606490fd5b3461072b575f36600319011261072b576017546040516001600160a01b039091168152602090f35b3461072b575f36600319011261072b5760225460405160a09190911c6001600160401b03168152602090f35b3461072b575f36600319011261072b576020600854604051908152f35b3461072b575f36600319011261072b576123166144ed565b60245460a081901c6001600160401b0316156109895763ffffffff60e01b16602455610651604051612349604082613709565b60168152751cd85b98dd1d5b57dcda5b9ad7d8d85b98d95b1b195960521b6020820152614536565b3461072b575f36600319011261072b576123896144ed565b60225460a081901c6001600160401b0316156109895763ffffffff60e01b166022556106516040516123bc604082613709565b6015815274189d5c9b97dc9bdd5d195c97d8d85b98d95b1b1959605a1b6020820152614536565b3461072b575f36600319011261072b576123fb6144ed565b60255460a081901c6001600160401b0316156109895763ffffffff60e01b1660255561065160405161242e604082613709565b60138152721d985d5b1d17da1d5897d8d85b98d95b1b1959606a1b6020820152614536565b3461072b575f36600319011261072b5760245460405160a09190911c6001600160401b03168152602090f35b3461072b575f36600319011261072b576016546040516001600160a01b039091168152602090f35b3461072b575f36600319011261072b5760285460405160a89190911c6001600160401b03168152602090f35b3461072b57610b586124ed6124e736613814565b91613a0c565b906040949294519485948561384e565b3461072b575f36600319011261072b576024546040516001600160a01b039091168152602090f35b3461072b575f36600319011261072b5761253d6144ed565b6011546001600160401b03811615610989575f600d555f600e555f600f555f60105560018060401b03191660115561065160405161257c604082613709565b6014815273185b9d1a57ddda185b1957d8d85b98d95b1b195960621b6020820152614536565b3461072b575f36600319011261072b576020600f54604051908152f35b3461072b575f36600319011261072b576023546040516001600160a01b039091168152602090f35b3461072b57602036600319011261072b5760043561260361464f565b80156126a857335f52601360205260405f205490808210612699578061269292335f5260136020520360405f205561263d816012546138bf565b6012555f6040518281525f516020615ba35f395f51905f5260203392a360405190612669604083613709565b6004825263313ab93760e11b602083015260405191612689602084613709565b5f835233615661565b6001600455005b630e14322960e21b5f5260045ffd5b63ebeb59ad60e01b5f5260045ffd5b3461072b57608036600319011261072b576044356024356004356064356126dc6144ed565b8115158061280f575b6127cf57821515806127fc575b6127cf57831515806127e9575b6127cf57801515806127de575b6127cf57601154906001600160401b0382166108a857600d839055600e849055600f85905560108190557f3711b8436e89239006e98b345d7afba692d2cea9e3701555abc40004c829a2dc9460a0946001600160401b0361276e428216613887565b16809460018060401b031916176011556040519485526020850152604084015260608301526080820152a16106516040516127aa604082613709565b6013815272185b9d1a57ddda185b1957dc1c9bdc1bdcd959606a1b6020820152614536565b63a6ee042360e01b5f5260045ffd5b50610e10811161270c565b506969e10de76676d080000084106126ff565b50692a5a058fc295ed00000083106126f2565b5069152d02c7e14af680000082106126e5565b3461072b57604036600319011261072b5761283b613805565b6024356128466144ed565b61284e615735565b81156129745780158015612968575b61071057601d54906001600160401b0382168015159081612951575b5061097b576001600160401b0319909116426001600160401b03811691909117601d55601b805460ff191660011790556128b391906138b2565b601c555b7ff7541078bf6bcb57ff7c5267ecaee154e0b32b0aeddf83261612dd858ef0891b6040601c5481519084151582526020820152a11561292057610651604051612901604082613709565b600d81526c3332b2afb13cb830b9b9afb7b760991b6020820152614536565b610651604051612931604082613709565b600e81526d3332b2afb13cb830b9b9afb7b33360911b6020820152614536565b9050620151808101809111610a9157421084612879565b5062093a80811161285d565b5060ff19601b5416601b555f601c556128b7565b3461072b575f36600319011261072b576129a06144ed565b60285460a881901c6001600160401b0316801561098957421061097b576001600160a01b0381165f818152601f60205260409020612a539260a01c60ff16906129ea9082906138a1565b817fa54714518c5d275fdcd3d2a461e4858e4e8cb04fb93cd0bca9d6d34115f2644060206040518415158152a215612a6557604051612a2a604082613709565b600d81526c1dda1a5d195b1a5cdd17d85919609a1b6020820152604051916108a0602084613709565b602880546001600160e81b0319169055005b604051612a73604082613709565b601081526f77686974656c6973745f72656d6f766560801b6020820152611bc4565b3461072b57604036600319011261072b576114b9612ab161378d565b335f52601460205260405f2060018060a01b0382165f526020526114b260405f2060243590546138b2565b3461072b575f36600319011261072b5760206109d8613900565b3461072b575f36600319011261072b5760235460405160a09190911c6001600160401b03168152602090f35b3461072b575f36600319011261072b5760206040516aa56fa5b99019a5c80000008152f35b3461072b575f36600319011261072b5760206112816138cc565b3461072b57602036600319011261072b57612b7a61378d565b612b826144ed565b60ff60195460e81c1680612c56575b61108e576026549060a082901c6001600160401b03166108a8577f012057830288ee788dad3b1923039fa4f5c7f41324965aae00787af1ef4340ca90602090612be2426001600160401b0316613887565b6001600160e01b03199094166001600160a01b0390911690811760a085901b600160a01b600160e01b0316176026556040516001600160401b03909416845292a2610651604051612c34604082613709565b601081526f1b195919d95c97dcd8da19591d5b195960821b6020820152614536565b506001600160a01b03811615612b91565b3461072b575f36600319011261072b57602060405160128152f35b3461072b57602036600319011261072b576001600160a01b03612ca361378d565b165f52600a602052602060405f2054604051908152f35b3461072b575f36600319011261072b5760206040515f516020615bc35f395f51905f528152f35b3461072b575f36600319011261072b57612cf96144ed565b60235460a081901c6001600160401b0316801561098957421061097b57602080546001600160a01b0319166001600160a01b0383169081179091557f3f2254a28ba18b54180672b4e5f33b7cbe996e44be5c1ebe9057f49e894cde315f80a263ffffffff60e01b16602355610651604051612d75604082613709565b60118152701d1c99585cdd5c9e57dcda5b9ad7dcd95d607a1b6020820152614536565b3461072b575f36600319011261072b57602060ff601b54166040519015158152f35b3461072b575f36600319011261072b57602060ff60285460e81c166040519015158152f35b3461072b575f36600319011261072b57612df76144ed565b60235460a081901c6001600160401b0316156109895763ffffffff60e01b16602355610651604051612e2a604082613709565b60178152761d1c99585cdd5c9e57dcda5b9ad7d8d85b98d95b1b1959604a1b6020820152614536565b3461072b57612e6136613814565b90612e6a61464f565b6001600160a01b0383165f908152601460209081526040808320338452909152902054928284106114c457612eac612ea5846113ec966138bf565b33836145d3565b6146e8565b3461072b575f36600319011261072b57612ec96144ed565b600180546001600160a01b031916905560028054600160a01b600160e01b0319169055005b3461072b575f36600319011261072b576020601a54604051908152f35b3461072b575f36600319011261072b5760035460405160a09190911c6001600160401b03168152602090f35b3461072b575f36600319011261072b57612f4f6144ed565b60275460a881901c6001600160401b031615610989576001600160e81b031916602755005b3461072b575f36600319011261072b57612f8c6144ed565b60245460a081901c6001600160401b0316801561098957421061097b57602180546001600160a01b0319166001600160a01b0383169081179091557fe99cdf96738a4659f820a0890f65abe82cce94da951e032d7abe61e5687ba2525f80a263ffffffff60e01b16602455610651604051613008604082613709565b601081526f1cd85b98dd1d5b57dcda5b9ad7dcd95d60821b6020820152614536565b3461072b57602036600319011261072b5761304361378d565b61304b6144ed565b60ff60195460e81c1680613124575b61108e576022549060a082901c6001600160401b03166108a8577fa530274d6e7efa7afabfa54f9e808bf793ff77db0b6a2e391c24434aa689a33f906020906130ab426001600160401b0316613887565b6001600160e01b03199094166001600160a01b0390911690811760a085901b600160a01b600160e01b0316176022556040516001600160401b03909416845292a26106516040516130fd604082613709565b6015815274189d5c9b97dc9bdd5d195c97dcd8da19591d5b1959605a1b6020820152614536565b506001600160a01b0381161561305a565b3461072b57602036600319011261072b5761314e61378d565b6001600160a01b03165f818152600c602052604090205460ff1680156132d1575b80156131aa5760e091505f19905f808380805b604051968752602087015260408601526060850152608084015260a0830152151560c0820152f35b60055480156132c9575b60065490919080156132c1575b6007549384158015906132ba57855b90156132ae57815f52600a60205260405f20549586158015613295575b60e097501561325c57905b6008549283151580613247575b1561323f575f52600b60205261321f8360405f20546138b2565b42811161322f57505f5b93613182565b61323a9042906138bf565b613229565b505f93613182565b50805f52600b60205260405f20541515613205565b5f83815260096020526040902054811161327857505f906131f8565b61328f90835f52600960205260405f2054906138bf565b906131f8565b50620151808701809711610a915760e0964210156131ed565b60e095505f19906131f8565b5f196131d0565b505f196131c1565b505f196131b4565b50805f52601e60205260ff60405f20541661316f565b3461072b575f36600319011261072b576020601254604051908152f35b3461072b575f36600319011261072b57602060ff60195460f01c166040519015158152f35b3461072b575f36600319011261072b576133416144ed565b60255460a081901c6001600160401b0316801561098957421061097b57601580546001600160a01b0319166001600160a01b0383169081179091557fbb3d89b3025a50f5b3f9fc1bfe23194ad7fb05af4e31ab293af4a947960954d55f80a263ffffffff60e01b166025556106516040516133bd604082613709565b600d81526c1d985d5b1d17da1d5897dcd95d609a1b6020820152614536565b3461072b575f36600319011261072b5760025460405160a09190911c6001600160401b03168152602090f35b3461072b575f36600319011261072b576027546040516001600160a01b039091168152602090f35b3461072b575f36600319011261072b57602060ff60285460a01c166040519015158152f35b3461072b57604036600319011261072b5761346e61378d565b7fe355751d29baf3bbcbfb4f9db660bfdf038ac8076722a3cb9ed1807250c1f7b060206134996137f6565b926134a26144ed565b60018060a01b031692835f52600c82526134bf8160405f206138a1565b6040519015158152a2005b3461072b57602036600319011261072b576001600160a01b036134eb61378d565b165f52600b602052602060405f2054604051908152f35b3461072b575f36600319011261072b576025546040516001600160a01b039091168152602090f35b3461072b575f36600319011261072b576135426144ed565b60285460a881901c6001600160401b031615610989576001600160e81b031916602855005b3461072b57604036600319011261072b576114b961358361378d565b60243590336145d3565b3461072b575f36600319011261072b576026546040516001600160a01b039091168152602090f35b3461072b57602036600319011261072b576135ce61378d565b6135d66144ed565b6001600160a01b031680156108b75760255460a081901c6001600160401b03166108a8577feb93d216955e49dbd96febef3cef3d3201fa203f343001b11685d728df481d1890602090613631426001600160401b0316613887565b6001600160e01b0319909116841760a082901b600160a01b600160e01b0316176025556040516001600160401b039091168152a2610651604051613676604082613709565b60138152721d985d5b1d17da1d5897dcd8da19591d5b1959606a1b6020820152614536565b3461072b575f36600319011261072b57610b586136b6613740565b604051918291602083526020830190613769565b3461072b575f36600319011261072b57602060ff60195460e01c166040519015158152f35b3461072b575f36600319011261072b57602090601c548152f35b601f909101601f19168101906001600160401b0382119082101761372c57604052565b634e487b7160e01b5f52604160045260245ffd5b6040519061374f604083613709565b600b82526a2b2324a222902a37b5b2b760a91b6020830152565b805180835260209291819084018484015e5f828201840152601f01601f1916010190565b600435906001600160a01b038216820361072b57565b602435906001600160a01b038216820361072b57565b3461072b575f36600319011261072b576012546aa56fa5b99019a5c8000000036aa56fa5b99019a5c80000008111610a9157604051908152602090f35b60243590811515820361072b57565b60043590811515820361072b57565b606090600319011261072b576004356001600160a01b038116810361072b57906024356001600160a01b038116810361072b579060443590565b9094939260609260808301968352602083015260408201520152565b3461072b575f36600319011261072b5760206040516202a3008152f35b6001600160401b039081166202a3000191908211610a9157565b9060ff801983541691151516179055565b91908201809211610a9157565b91908203918211610a9157565b60ff60195460f01c16156138f157601a5480151590816138f5575b506138f157600190565b5f90565b90504210155f6138e7565b602c54461461398d57613911613740565b602081519101206001602060405161392a604082613709565b82815201603160f81b8152206040519060208201927f8b73c3c69bb8fe3d512ecc4cf759cc79239f7b179b0ffacaa9a75d522b39400f8452604083015260608201524660808201523060a082015260a0815261398760c082613709565b51902090565b602b5490565b51906001600160a01b038216820361072b57565b91908260c091031261072b578151916020810151916040820151916139ce60608201613993565b916139e760a06139e060808501613993565b9301613993565b90565b6001600160a01b03918216815291166020820152604081019190915260600190565b6001600160a01b0381165f908152601e6020526040902054929392849060ff168015613b1f575b8015613b0c575b8015613afe575b613af257613a8292613a5460c0936157bb565b60175460405163252f15f560e01b81529586946001600160a01b0390921693859384939190600485016139ea565b03915afa918215610f6d575f925f925f91613ab3575b5080613aae6139e79294613aae819780996138bf565b6138bf565b90506139e79350613add91925060c03d60c011613aeb575b613ad58183613709565b8101906139a7565b505050929193909290613a98565b503d613acb565b5050505f915f915f9190565b50613b07613cee565b613a41565b506017546001600160a01b031615613a3a565b50506001600160a01b0382165f908152601e6020526040902054849060ff16613a33565b15613b4a57565b60405162461bcd60e51b81526020600482015260096024820152684f574e3a207a65726f60b81b6044820152606490fd5b15613b8257565b60405162461bcd60e51b815260206004820152601a60248201527927aba71d103737903832b73234b7339031b7b73a3937b63632b960311b6044820152606490fd5b600854908115613c185760018060a01b031690815f52600b602052600160405f205410613c1857613c00915f52600b60205260405f20546138b2565b80421015613c13576139e79042906138bf565b505f90565b50505f90565b6001600160a01b03165f818152600c602052604090205460ff168015613cd8575b613cca5760075490805f52600a60205260405f20549081158015613cb4575b15613c7b5750505f9181904290620151804201804211610a915790565b5f908152600960205260409020549290828410613ca5575f5b91620151808201808311610a915790565b613caf84846138bf565b613c94565b50620151808201808311610a9157421015613c5e565b505f905f1990819083908190565b50805f52601e60205260ff60405f205416613c3f565b60ff601b5416156138f157601c5480151590816138f557506138f157600190565b601754909183916001600160a01b0316158015613db1575b8015613d90575b8015613d6f575b613d6957613d4292615878565b919015613d4d575090565b61251c80820292508115918304141715610a9157612710900490565b50505090565b506001600160a01b0381165f908152601e602052604090205460ff16613d35565b506001600160a01b0383165f908152601e602052604090205460ff16613d2e565b50613dba613cee565b613d27565b90151581526001600160401b03909116602082015260400190565b6001600160a01b0381165f8181526013602052604090205492939092811161443457825f52600c60205260ff60405f2054161580614412575b806143fb575b806143d9575b806143d0575b806143be575b61401c575b5060ff60195460e01c1680614008575b613e5f575b505050600190604051613e59602082613709565b5f815290565b8115918215613ff0575b8215613fd8575b508115613fc7575b8115613fb7575b506001600160a01b038216801592908315613fa2575b8315613f8d575b8315613f75575b8315613f5d575b508215613f4c575b8215613f3a575b5015613f045715613ecc575f8080613e45565b5f90604051613edc604082613709565b6018815277149958da5c1a595b9d081b5d5cdd081d5cd9481d985d5b1d60421b602082015290565b505f90604051613f15604082613709565b601581527414d95b99195c881b5d5cdd081d5cd9481d985d5b1d605a1b602082015290565b613f459192506159c4565b905f613eb9565b9150613f5782615954565b91613eb2565b5f908152601f602052604081205460ff169350613eaa565b8093505f52601e60205260ff60405f20541692613ea3565b6021546001600160a01b031681149350613e9c565b6020546001600160a01b031681149350613e95565b613fc191506159c4565b5f613e7f565b9050613fd281615954565b90613e78565b5f908152601f602052604081205460ff169250613e70565b8092505f52601e60205260ff60405f20541691613e69565b506015546001600160a01b03161515613e40565b60055480151590816143b4575b506143755760065480614216575b5060075490816140c7575b5050600854801515806140b2575b15613e305761406b90835f52600b60205260405f20546138b2565b4210614077575f613e30565b5050505f9060405161408a604082613709565b60188152775472616e7366657220636f6f6c646f776e2061637469766560401b602082015290565b50825f52600b60205260405f20541515614050565b835f52600960205260405f2054845f52600a60205260405f205480151590816141ff575b506140f7575b50614042565b6017548291906001600160a01b03161515806141f0575b806141d9575b806141b7575b614175575b61412992506138b2565b11614136575f80806140f1565b5050505f90604051614149604082613709565b601c81527b115e18d959591cc819185a5b1e481d1c985b9cd9995c881b1a5b5a5d60221b602082015290565b9050614182828786615878565b90156141935761412992509061411f565b5061251c82029180830461251c1490151715610a915761271061412992049061411f565b506001600160a01b0387165f908152601e602052604090205460ff161561411a565b50855f52601e60205260ff60405f20541615614114565b506141f9613cee565b1561410e565b9050620151808101809111610a915742105f6140eb565b60175482906001600160a01b0316151580614366575b8061434f575b8061432d575b80614316575b806142f4575b6142b4575b6001600160a01b0386165f9081526013602052604090205461426b91906138b2565b11614276575f614037565b505050505f9060405161428a604082613709565b601a81527945786365656473206d61782077616c6c65742062616c616e636560301b602082015290565b506142c0828685615878565b90156142d25761426b905b9050614249565b5061251c820282810461251c1483151715610a915761271061426b91046142cb565b506001600160a01b0386165f908152601e602052604090205460ff1615614244565b50845f52601e60205260ff60405f2054161561423e565b506001600160a01b0386165f908152600c602052604090205460ff1615614238565b50845f52600c60205260ff60405f20541615614232565b5061436f613cee565b1561422c565b505050505f90604051614389604082613709565b601b81527a115e18d959591cc81b585e081d1c985b9cd9995c88185b5bdd5b9d602a1b602082015290565b905081115f614029565b506001600160a01b0384161515613e2b565b50821515613e25565b506001600160a01b0384165f908152601e602052604090205460ff1615613e1f565b50825f52601e60205260ff60405f20541615613e19565b506001600160a01b0384165f908152600c602052604090205460ff1615613e13565b505050505f90604051614448604082613709565b6014815273496e73756666696369656e742062616c616e636560601b602082015290565b6007549081156144e6576001600160a01b03165f818152600a602052604090205490919080159081156144ce575b506144c957815f5260096020528060405f20541015613c18576139e7915f52600960205260405f2054906138bf565b905090565b9050620151808101809111610a91574210155f61449a565b50505f1990565b5f546001600160a01b0316330361450057565b60405162461bcd60e51b815260206004820152600e60248201526d27aba71d103737ba1037bbb732b960911b6044820152606490fd5b6016546001600160a01b03168061454b575050565b803b1561072b575f6040518092633ddd61ab60e21b82523060048301526060602483015281838161457f6064820189613769565b33604483015203925af190816145c3575b506145c0575f516020615b635f395f51905f5260405160208152806145ba30946020830190613769565b0390a25b565b50565b5f6145cd91613709565b5f614590565b6001600160a01b0316908115801561463e575b6108b75760207f8c5be1e5ebec7d5bd14f71427d1e84f3dd0314c0f7b2291e5b200ac8c7c3b92591835f526014825260405f2060018060a01b0382165f5282528460405f205560405194855260018060a01b031693a3565b506001600160a01b038116156145e6565b600160045403614660576002600455565b60405162461bcd60e51b815260206004820152600a6024820152697265656e7472616e637960b01b6044820152606490fd5b3d156146cb573d906001600160401b03821161372c57604051916146c0601f8201601f191660200184613709565b82523d5f602084013e565b606090565b9081602091031261072b5751801515810361072b5790565b9190916146f3615735565b5f926001600160a01b038216801591908215838161557d575b6126a85785156126a857829360ff60195460e01c1680615569575b615404575b825f52600c60205260ff60405f20541615806153e2575b806153cb575b806153a9575b6151a0575b60ff60195460e01c168061518c575b615052575b5050805f52601360205260405f2054858110612699578590825f5260136020520360405f20558480928160018060a01b03601754168015801580615043575b80615004575b15614fba57506147e29160c091845f6147c58c6157bb565b6040516384aeed4d60e01b815296879586948593600485016139ea565b03925af15f915f905f905f845f925f96614f8f575b50614b915750505050505061480a614692565b5f516020615b235f395f51905f52614851601560405174636f6d7075746546656573416e645265736572766560581b81522092604051918291602083526020830190613769565b0390a25b828852600c60205260ff6040892054161580614b71575b80614b5a575b80614b3a575b614aac575b6018546001600160a01b03168015159182614a94575b82614a73575b5081614a00575b50156149c1575081602091614913939460018060a01b0360185416895260138452604089206148d08482546138b2565b905560018060a01b036018541680925f516020615ba35f395f51905f5286604051878152a388604051809681958294637b2d6db360e01b84528b600485016139ea565b03925af180156149b65790849291614983575b505b1161496f579082916145be935060405190614944604083613709565b60088252673a3930b739b332b960c11b602083015260405193614968602086613709565b8452615661565b634e487b7160e01b83526001600452602483fd5b6020809293503d83116149af575b61499b8183613709565b810103126149ab5782905f614926565b8380fd5b503d614991565b6040513d87823e3d90fd5b9260018060a01b0316908187526013602052604087206149e28482546138b2565b90555f516020615ba35f395f51905f526020604051858152a3614928565b60249250602091506040519283809263e6c5c06560e01b82528660048301525afa908115614a68579086918891614a39575b505f6148a0565b614a5b915060203d602011614a61575b614a538183613709565b8101906146d0565b5f614a32565b503d614a49565b6040513d89823e3d90fd5b6001600160a01b03168952601e602052604089205460ff161591505f614899565b848a52601e60205260408a205460ff16159250614893565b828852600a60205260408820548015908115614b08575b50614ae7575b828852600960205260408820614ae08582546138b2565b905561487d565b8288526009602052876040812055828852600a602052426040892055614ac9565b8092935062015180915001809111614b26579086914210155f614ac3565b634e487b7160e01b88526011600452602488fd5b506001600160a01b0381168852601e602052604088205460ff1615614878565b50828852601e60205260ff60408920541615614872565b506001600160a01b0385168852600c602052604088205460ff161561486c565b90919293949596614bab84614ba6878a6138b2565b6138b2565b11614f80576001600160a01b0381168015908115614f49575b506001600160a01b038316801596908715614f12575b506001600160a01b0381168015908f908215614ed9575b5089159283159283614e46575b50505086151580614df9575b8615159182614d7f575b92614d77575b508115614d6f575b50614cdd575b50506017546001600160a01b031694505050823b15915061072b9050575f80916024604051809481936329a7724f60e21b83528c60048401525af19081614cc5575b50869190614cc057614c7a614692565b5f516020615b235f395f51905f52614cb8600c6040516b7265636f7264566f6c756d6560a01b81522092604051918291602083526020830190613769565b0390a2614855565b614855565b87929198505f614cd491613709565b5f979091614c6a565b15614d6957506020546001600160a01b0316935b15614d6357506020546001600160a01b0316915b6040805195865260208601919091528401526001600160a01b039081166060840152908116919083169084907f83f1070d5154c1ec6e9f656f98b1b6761035814eeba41c9ace66fd53f501e35c90608090a45f808080808080614c28565b91614d05565b93614cf1565b90505f614c22565b91505f614c1a565b9c8915614df3576020546001600160a01b03165b6001600160a01b03168015614de457614dde91818f8b935f52601360205260405f20614dc08582546138b2565b90555f516020615ba35f395f51905f526020604051868152a36138bf565b9c614c14565b63cd30796960e01b5f5260045ffd5b86614d93565b9b8315614e40576020546001600160a01b03165b6001600160a01b03168015614de457614e3a91818e8b935f52601360205260405f20614dc08582546138b2565b9b614c0a565b84614e0d565b614e95939e50908b92915f14614ed457505f5b6001600160a01b031680614e9e5750614e74826012546138bf565b6012555f8d5f516020615ba35f395f51905f526020604051868152a36138bf565b9a8e5f80614bfe565b805f52601360205260405f20614eb58482546138b2565b90558d5f516020615ba35f395f51905f526020604051868152a36138bf565b614e59565b6020546001600160a01b0316811415915081614efc575b50614de4578e5f614bf1565b6021546001600160a01b0316141590505f614ef0565b6020546001600160a01b03168114159081614f33575b50614de4575f614bda565b6021546001600160a01b0316141590505f614f28565b6021546001600160a01b03168114159081614f6a575b50614de4575f614bc4565b6020546001600160a01b0316141590505f614f5f565b635c9cfb6b60e11b5f5260045ffd5b94509550505050614faf915060c03d60c011613aeb57613ad58183613709565b94959091905f6147f7565b91505060ff60195460e81c1680614ff5575b614fd7575b50614855565b909150614fe65785905f614fd1565b63d30e92c760e01b5f5260045ffd5b50614ffe613cee565b15614fcc565b50855f52601e60205260ff60405f2054168015615022575b156147ad565b506001600160a01b0384165f908152601e602052604090205460ff1661501c565b5061504c613cee565b156147a7565b90615176575b8015615160575b8015615151575b8015615142575b6001600160a01b03831680159190821561512d575b8215615118575b8215615100575b82156150e8575b5081156150d7575b81156150c6575b156150b757156150b7575f80614768565b63cd0d8b2160e01b5f5260045ffd5b90506150d1836159c4565b906150a6565b90506150e284615954565b9061509f565b5f908152601f602052604081205460ff169250615097565b8092505f52601e60205260ff60405f20541691615090565b6021546001600160a01b031681149250615089565b6020546001600160a01b031681149250615082565b5061514c846159c4565b61506d565b5061515b84615954565b615066565b50805f52601f60205260ff60405f20541661505f565b50805f52601e60205260ff60405f205416615058565b506015546001600160a01b03161515614763565b60175487906001600160a01b031615158061539a575b8061535b575b61532d575b6005548015159081615323575b5061531457600654806152dc575b50835f52600a60205260405f205480159081156152c4575b506152a3575b6007549081615272575b505060085480615215575b50614754565b835f52600b60205260405f205415159081615253575b5061524457825f52600b6020524260405f20555f61520f565b6301249b7160e01b5f5260045ffd5b61526a9150845f52600b60205260405f20546138b2565b42105f61522b565b61528890855f52600960205260405f20546138b2565b11615294575f80615204565b639ad5c1c760e01b5f5260045ffd5b835f5260096020525f6040812055835f52600a6020524260405f20556151fa565b9050620151808101809111610a91574210155f6151f4565b60018060a01b0387165f5260136020526152fa8260405f20546138b2565b11615305575f6151dc565b63f5cec06760e01b5f5260045ffd5b631ae2df0760e01b5f5260045ffd5b905088115f6151ce565b50615339878688615878565b905f036151c1575061251c870287810461251c03610a915761271090046151c1565b50835f52601e60205260ff60405f2054168015615379575b156151bc565b506001600160a01b0386165f908152601e602052604090205460ff16615373565b506153a3613cee565b156151b6565b506001600160a01b0384165f908152601e602052604090205460ff161561474f565b50825f52601e60205260ff60405f20541615614749565b506001600160a01b0385165f908152600c602052604090205460ff1615614743565b61540d84615a5d565b1580615547575b80615525575b1561472c57935061542a836159c4565b15615457575b61543983615a9f565b936001600160a01b03851661472c5763cd0d8b2160e01b5f5260045ffd5b60155460405163e01fd21560e01b81526001600160a01b0385811660048301529091602091839160249183915f91165af15f91816154e9575b506154a45763cd0d8b2160e01b5f5260045ffd5b6154e4906040516154b6604082613709565b60128152711d985d5b1d17d85d5d1bd7d8dc99585d195960721b6020820152604051916108a0602084613709565b615430565b9091506020813d60201161551d575b8161550560209383613709565b8101031261072b5761551690613993565b905f615490565b3d91506154f8565b506001600160a01b0384165f908152601f602052604090205460ff161561541a565b506001600160a01b0384165f908152601e602052604090205460ff1615615414565b506015546001600160a01b03161515614727565b506001600160a01b0383161561470c565b6016546001600160a01b0316806155a6575b50505050565b803b1561072b57604051630303c28760e61b81526001600160a01b039092166004830181905260806024840152935f918391829084908290615607906155ef608484018b613769565b90846044850152600319848303016064850152613769565b03925af19081615651575b5061564a5761563d5f516020615b635f395f51905f5291604051918291602083526020830190613769565b0390a25b5f8080806155a0565b5050615641565b5f61565b91613709565b5f615612565b60165491926001600160a01b03909216918261567f575b5050505050565b823b1561072b576156da925f9283604051809681958294630303c28760e61b845260018060a01b03169a8b6004850152608060248501526156c3608485018c613769565b916044850152600319848303016064850152613769565b03925af19081615725575b5061571e576157105f516020615b635f395f51905f5291604051918291602083526020830190613769565b0390a25b5f80808080615678565b5050615714565b5f61572f91613709565b5f6156e5565b60195460ff8160f01c16806157b0575b806157a4575b61578f575b50601b5460ff811680615784575b80615778575b61576b5750565b60ff1916601b555f601c55565b50601c54421015615764565b50601c54151561575e565b60ff60f01b19166019555f601a819055615750565b50601a5442101561574b565b50601a541515615745565b6015549091906001600160a01b03168281158015615868575b61586357604051632724fe0960e01b81526001600160a01b03909116600482015290602090829060249082905afa5f9181615827575b506158125750565b6001600160a01b0381166158235750565b9150565b9091506020813d60201161585b575b8161584360209383613709565b8101031261072b5761585490613993565b905f61580a565b3d9150615836565b925050565b5061587281615954565b156157d4565b5f9161588483926157bb565b846158c360018060a01b0360175416936158b5604051938492602084019663252f15f560e01b8852602485016139ea565b03601f198101835282613709565b51915afa6158cf614692565b90158015615949575b6159415760c08180518101031261072b5780614ba6602061592c93015160408301519061592660c060608601519561591260808201613993565b5061591f60a08201613993565b5001613993565b506138b2565b8181116159415761593c916138bf565b600191565b50505f905f90565b5060c08151106158d8565b6015546001600160a01b0316908115613c185760405163652b9b4160e01b81526001600160a01b03909116600482015290602090829060249082905afa5f91816159a3575b506139e757505f90565b6159bd91925060203d602011614a6157614a538183613709565b905f615999565b6015546001600160a01b0316908115613c1857604051630709df4560e01b81526001600160a01b03909116600482015290602090829060249082905afa5f9181615a21575b50615a1357505f90565b6001600160a01b0316151590565b9091506020813d602011615a55575b81615a3d60209383613709565b8101031261072b57615a4e90613993565b905f615a09565b3d9150615a30565b803b615a99573f8015159081615a71575090565b7fc5d2460186f7233c927e7db2dcc703c0e500b653ca82273b7bfad8045d85a4709150141590565b50600190565b6015546001600160a01b0316908115613c1857604051630709df4560e01b81526001600160a01b03909116600482015290602090829060249082905afa5f9181615aed57506139e757505f90565b9091506020813d602011615b1a575b81615b0960209383613709565b8101031261072b576159bd90613993565b3d9150615afc56feb1655f58509a3ae61df89430ce89fa569f83ba6963815ecce4d4c0b61b84368304593f08e7dc4a4b3442a0009dff46944620bf6c71bde4a1fa3724b7d6bfe09eb7abea003d08339a2c4d36bd01b90b5b76431bac7c6c595dc24199b7118039bc8be0079c531659141344cd1fd0a4f28419497f9722a3daafe3b4186f6b6457e0ddf252ad1be2c89b69c2b068fc378daa952ba7f163c4a11628f55a4df523b3ef6e71edae12b1b97f4d1f60370fef10105fa2faae0126114a169c64845d6126c9a164736f6c634300081e000ab7abea003d08339a2c4d36bd01b90b5b76431bac7c6c595dc24199b7118039bcddf252ad1be2c89b69c2b068fc378daa952ba7f163c4a11628f55a4df523b3ef",
  "linkReferences": {},
  "deployedLinkReferences": {},
  "immutableReferences": {},
  "inputSourceName": "project/contracts/VFIDEToken.sol",
  "buildInfoId": "solc-0_8_30-88be6c5998d8b061be21ec0410bb5c8ccbcc357a"
}