{
  "_format": "hh3-artifact-1",
  "contractName": "VFIDEToken",
  "sourceName": "contracts/VFIDEToken.sol",
  "abi": [
    {
      "inputs": [
        {
          "internalType": "address",
          "name": "devReserveVestingVault",
          "type": "address"
        },
        {
          "internalType": "address",
          "name": "treasury",
          "type": "address"
        },
        {
          "internalType": "address",
          "name": "_vaultHub",
          "type": "address"
        },
        {
          "internalType": "address",
          "name": "_ledger",
          "type": "address"
        },
        {
          "internalType": "address",
          "name": "_treasurySink",
          "type": "address"
        }
      ],
      "stateMutability": "nonpayable",
      "type": "constructor"
    },
    {
      "inputs": [],
      "name": "Token_NotVault",
      "type": "error"
    },
    {
      "inputs": [],
      "name": "VF_CAP",
      "type": "error"
    },
    {
      "inputs": [],
      "name": "VF_DailyLimitExceeded",
      "type": "error"
    },
    {
      "inputs": [],
      "name": "VF_FeesExceedAmount",
      "type": "error"
    },
    {
      "inputs": [],
      "name": "VF_InsufficientAllowance",
      "type": "error"
    },
    {
      "inputs": [],
      "name": "VF_InsufficientBalance",
      "type": "error"
    },
    {
      "inputs": [],
      "name": "VF_InvalidAntiWhaleConfig",
      "type": "error"
    },
    {
      "inputs": [],
      "name": "VF_InvalidDuration",
      "type": "error"
    },
    {
      "inputs": [],
      "name": "VF_InvalidFeeSink",
      "type": "error"
    },
    {
      "inputs": [],
      "name": "VF_InvalidPermit",
      "type": "error"
    },
    {
      "inputs": [],
      "name": "VF_LOCKED",
      "type": "error"
    },
    {
      "inputs": [],
      "name": "VF_MaxTransferExceeded",
      "type": "error"
    },
    {
      "inputs": [],
      "name": "VF_MaxWalletExceeded",
      "type": "error"
    },
    {
      "inputs": [],
      "name": "VF_NoPending",
      "type": "error"
    },
    {
      "inputs": [],
      "name": "VF_NotContract",
      "type": "error"
    },
    {
      "inputs": [],
      "name": "VF_POLICY_LOCKED",
      "type": "error"
    },
    {
      "inputs": [],
      "name": "VF_PendingExists",
      "type": "error"
    },
    {
      "inputs": [],
      "name": "VF_PermitExpired",
      "type": "error"
    },
    {
      "inputs": [],
      "name": "VF_RouterRequired",
      "type": "error"
    },
    {
      "inputs": [],
      "name": "VF_TimelockActive",
      "type": "error"
    },
    {
      "inputs": [],
      "name": "VF_TransferCooldown",
      "type": "error"
    },
    {
      "inputs": [],
      "name": "VF_ZERO",
      "type": "error"
    },
    {
      "inputs": [],
      "name": "VF_ZeroAddress",
      "type": "error"
    },
    {
      "anonymous": false,
      "inputs": [
        {
          "indexed": false,
          "internalType": "uint256",
          "name": "maxTransfer",
          "type": "uint256"
        },
        {
          "indexed": false,
          "internalType": "uint256",
          "name": "maxWallet",
          "type": "uint256"
        },
        {
          "indexed": false,
          "internalType": "uint256",
          "name": "dailyLimit",
          "type": "uint256"
        },
        {
          "indexed": false,
          "internalType": "uint256",
          "name": "cooldown",
          "type": "uint256"
        },
        {
          "indexed": false,
          "internalType": "uint64",
          "name": "effectiveAt",
          "type": "uint64"
        }
      ],
      "name": "AntiWhaleProposed",
      "type": "event"
    },
    {
      "anonymous": false,
      "inputs": [
        {
          "indexed": false,
          "internalType": "uint256",
          "name": "maxTransfer",
          "type": "uint256"
        },
        {
          "indexed": false,
          "internalType": "uint256",
          "name": "maxWallet",
          "type": "uint256"
        },
        {
          "indexed": false,
          "internalType": "uint256",
          "name": "dailyLimit",
          "type": "uint256"
        },
        {
          "indexed": false,
          "internalType": "uint256",
          "name": "cooldown",
          "type": "uint256"
        }
      ],
      "name": "AntiWhaleSet",
      "type": "event"
    },
    {
      "anonymous": false,
      "inputs": [
        {
          "indexed": true,
          "internalType": "address",
          "name": "owner",
          "type": "address"
        },
        {
          "indexed": true,
          "internalType": "address",
          "name": "spender",
          "type": "address"
        },
        {
          "indexed": false,
          "internalType": "uint256",
          "name": "value",
          "type": "uint256"
        }
      ],
      "name": "Approval",
      "type": "event"
    },
    {
      "anonymous": false,
      "inputs": [
        {
          "indexed": true,
          "internalType": "address",
          "name": "router",
          "type": "address"
        },
        {
          "indexed": false,
          "internalType": "uint64",
          "name": "effectiveAt",
          "type": "uint64"
        }
      ],
      "name": "BurnRouterScheduled",
      "type": "event"
    },
    {
      "anonymous": false,
      "inputs": [
        {
          "indexed": true,
          "internalType": "address",
          "name": "router",
          "type": "address"
        }
      ],
      "name": "BurnRouterSet",
      "type": "event"
    },
    {
      "anonymous": false,
      "inputs": [
        {
          "indexed": false,
          "internalType": "bool",
          "name": "active",
          "type": "bool"
        },
        {
          "indexed": false,
          "internalType": "uint256",
          "name": "duration",
          "type": "uint256"
        },
        {
          "indexed": false,
          "internalType": "uint64",
          "name": "effectiveAt",
          "type": "uint64"
        }
      ],
      "name": "CircuitBreakerProposed",
      "type": "event"
    },
    {
      "anonymous": false,
      "inputs": [
        {
          "indexed": false,
          "internalType": "bool",
          "name": "active",
          "type": "bool"
        },
        {
          "indexed": false,
          "internalType": "uint256",
          "name": "expiry",
          "type": "uint256"
        }
      ],
      "name": "CircuitBreakerSet",
      "type": "event"
    },
    {
      "anonymous": false,
      "inputs": [
        {
          "indexed": true,
          "internalType": "address",
          "name": "distributor",
          "type": "address"
        },
        {
          "indexed": false,
          "internalType": "uint64",
          "name": "effectiveAt",
          "type": "uint64"
        }
      ],
      "name": "EcosystemDistributorScheduled",
      "type": "event"
    },
    {
      "anonymous": false,
      "inputs": [
        {
          "indexed": true,
          "internalType": "address",
          "name": "distributor",
          "type": "address"
        }
      ],
      "name": "EcosystemDistributorSet",
      "type": "event"
    },
    {
      "anonymous": false,
      "inputs": [],
      "name": "EmergencyControllerCancelled",
      "type": "event"
    },
    {
      "anonymous": false,
      "inputs": [
        {
          "indexed": true,
          "internalType": "address",
          "name": "controller",
          "type": "address"
        },
        {
          "indexed": false,
          "internalType": "uint64",
          "name": "effectiveAt",
          "type": "uint64"
        }
      ],
      "name": "EmergencyControllerProposed",
      "type": "event"
    },
    {
      "anonymous": false,
      "inputs": [
        {
          "indexed": true,
          "internalType": "address",
          "name": "previousController",
          "type": "address"
        },
        {
          "indexed": true,
          "internalType": "address",
          "name": "newController",
          "type": "address"
        }
      ],
      "name": "EmergencyControllerSet",
      "type": "event"
    },
    {
      "anonymous": false,
      "inputs": [
        {
          "indexed": true,
          "internalType": "address",
          "name": "target",
          "type": "address"
        },
        {
          "indexed": false,
          "internalType": "bool",
          "name": "exempt",
          "type": "bool"
        }
      ],
      "name": "ExemptSet",
      "type": "event"
    },
    {
      "anonymous": false,
      "inputs": [
        {
          "indexed": true,
          "internalType": "string",
          "name": "context",
          "type": "string"
        },
        {
          "indexed": false,
          "internalType": "bytes",
          "name": "reason",
          "type": "bytes"
        }
      ],
      "name": "ExternalCallFailed",
      "type": "event"
    },
    {
      "anonymous": false,
      "inputs": [
        {
          "indexed": true,
          "internalType": "address",
          "name": "from",
          "type": "address"
        },
        {
          "indexed": true,
          "internalType": "address",
          "name": "to",
          "type": "address"
        },
        {
          "indexed": false,
          "internalType": "uint256",
          "name": "burnAmount",
          "type": "uint256"
        },
        {
          "indexed": false,
          "internalType": "uint256",
          "name": "sanctumAmount",
          "type": "uint256"
        },
        {
          "indexed": false,
          "internalType": "uint256",
          "name": "ecosystemAmount",
          "type": "uint256"
        },
        {
          "indexed": true,
          "internalType": "address",
          "name": "sanctumSink",
          "type": "address"
        },
        {
          "indexed": false,
          "internalType": "address",
          "name": "ecosystemSink",
          "type": "address"
        }
      ],
      "name": "FeeApplied",
      "type": "event"
    },
    {
      "anonymous": false,
      "inputs": [
        {
          "indexed": false,
          "internalType": "bool",
          "name": "active",
          "type": "bool"
        },
        {
          "indexed": false,
          "internalType": "uint256",
          "name": "duration",
          "type": "uint256"
        },
        {
          "indexed": false,
          "internalType": "uint64",
          "name": "effectiveAt",
          "type": "uint64"
        }
      ],
      "name": "FeeBypassProposed",
      "type": "event"
    },
    {
      "anonymous": false,
      "inputs": [
        {
          "indexed": false,
          "internalType": "bool",
          "name": "active",
          "type": "bool"
        },
        {
          "indexed": false,
          "internalType": "uint256",
          "name": "expiry",
          "type": "uint256"
        }
      ],
      "name": "FeeBypassSet",
      "type": "event"
    },
    {
      "anonymous": false,
      "inputs": [
        {
          "indexed": true,
          "internalType": "address",
          "name": "registry",
          "type": "address"
        },
        {
          "indexed": false,
          "internalType": "uint64",
          "name": "effectiveAt",
          "type": "uint64"
        }
      ],
      "name": "FraudRegistryScheduled",
      "type": "event"
    },
    {
      "anonymous": false,
      "inputs": [
        {
          "indexed": true,
          "internalType": "address",
          "name": "registry",
          "type": "address"
        }
      ],
      "name": "FraudRegistrySet",
      "type": "event"
    },
    {
      "anonymous": false,
      "inputs": [
        {
          "indexed": true,
          "internalType": "address",
          "name": "source",
          "type": "address"
        },
        {
          "indexed": false,
          "internalType": "string",
          "name": "action",
          "type": "string"
        }
      ],
      "name": "LedgerLogFailed",
      "type": "event"
    },
    {
      "anonymous": false,
      "inputs": [
        {
          "indexed": true,
          "internalType": "address",
          "name": "ledger",
          "type": "address"
        },
        {
          "indexed": false,
          "internalType": "uint64",
          "name": "effectiveAt",
          "type": "uint64"
        }
      ],
      "name": "LedgerScheduled",
      "type": "event"
    },
    {
      "anonymous": false,
      "inputs": [
        {
          "indexed": true,
          "internalType": "address",
          "name": "ledger",
          "type": "address"
        }
      ],
      "name": "LedgerSet",
      "type": "event"
    },
    {
      "anonymous": false,
      "inputs": [
        {
          "indexed": true,
          "internalType": "address",
          "name": "previousOwner",
          "type": "address"
        },
        {
          "indexed": true,
          "internalType": "address",
          "name": "newOwner",
          "type": "address"
        }
      ],
      "name": "OwnershipTransferStarted",
      "type": "event"
    },
    {
      "anonymous": false,
      "inputs": [
        {
          "indexed": true,
          "internalType": "address",
          "name": "previousOwner",
          "type": "address"
        },
        {
          "indexed": true,
          "internalType": "address",
          "name": "newOwner",
          "type": "address"
        }
      ],
      "name": "OwnershipTransferred",
      "type": "event"
    },
    {
      "anonymous": false,
      "inputs": [],
      "name": "PolicyLocked",
      "type": "event"
    },
    {
      "anonymous": false,
      "inputs": [
        {
          "indexed": true,
          "internalType": "address",
          "name": "sink",
          "type": "address"
        },
        {
          "indexed": false,
          "internalType": "uint64",
          "name": "effectiveAt",
          "type": "uint64"
        }
      ],
      "name": "SanctumSinkScheduled",
      "type": "event"
    },
    {
      "anonymous": false,
      "inputs": [
        {
          "indexed": true,
          "internalType": "address",
          "name": "sink",
          "type": "address"
        }
      ],
      "name": "SanctumSinkSet",
      "type": "event"
    },
    {
      "anonymous": false,
      "inputs": [
        {
          "indexed": true,
          "internalType": "address",
          "name": "who",
          "type": "address"
        },
        {
          "indexed": false,
          "internalType": "bool",
          "name": "isExempt",
          "type": "bool"
        },
        {
          "indexed": false,
          "internalType": "uint64",
          "name": "effectiveAt",
          "type": "uint64"
        }
      ],
      "name": "SystemExemptProposed",
      "type": "event"
    },
    {
      "anonymous": false,
      "inputs": [
        {
          "indexed": true,
          "internalType": "address",
          "name": "who",
          "type": "address"
        },
        {
          "indexed": false,
          "internalType": "bool",
          "name": "isExempt",
          "type": "bool"
        }
      ],
      "name": "SystemExemptSet",
      "type": "event"
    },
    {
      "anonymous": false,
      "inputs": [
        {
          "indexed": true,
          "internalType": "address",
          "name": "from",
          "type": "address"
        },
        {
          "indexed": true,
          "internalType": "address",
          "name": "to",
          "type": "address"
        },
        {
          "indexed": false,
          "internalType": "uint256",
          "name": "value",
          "type": "uint256"
        }
      ],
      "name": "Transfer",
      "type": "event"
    },
    {
      "anonymous": false,
      "inputs": [
        {
          "indexed": true,
          "internalType": "address",
          "name": "sink",
          "type": "address"
        },
        {
          "indexed": false,
          "internalType": "uint64",
          "name": "effectiveAt",
          "type": "uint64"
        }
      ],
      "name": "TreasurySinkScheduled",
      "type": "event"
    },
    {
      "anonymous": false,
      "inputs": [
        {
          "indexed": true,
          "internalType": "address",
          "name": "sink",
          "type": "address"
        }
      ],
      "name": "TreasurySinkSet",
      "type": "event"
    },
    {
      "anonymous": false,
      "inputs": [
        {
          "indexed": true,
          "internalType": "address",
          "name": "hub",
          "type": "address"
        },
        {
          "indexed": false,
          "internalType": "uint64",
          "name": "effectiveAt",
          "type": "uint64"
        }
      ],
      "name": "VaultHubScheduled",
      "type": "event"
    },
    {
      "anonymous": false,
      "inputs": [
        {
          "indexed": true,
          "internalType": "address",
          "name": "hub",
          "type": "address"
        }
      ],
      "name": "VaultHubSet",
      "type": "event"
    },
    {
      "anonymous": false,
      "inputs": [
        {
          "indexed": false,
          "internalType": "bool",
          "name": "enabled",
          "type": "bool"
        }
      ],
      "name": "VaultOnlySet",
      "type": "event"
    },
    {
      "anonymous": false,
      "inputs": [
        {
          "indexed": true,
          "internalType": "address",
          "name": "addr",
          "type": "address"
        },
        {
          "indexed": false,
          "internalType": "bool",
          "name": "exempt",
          "type": "bool"
        },
        {
          "indexed": false,
          "internalType": "uint64",
          "name": "effectiveAt",
          "type": "uint64"
        }
      ],
      "name": "WhaleLimitExemptProposed",
      "type": "event"
    },
    {
      "anonymous": false,
      "inputs": [
        {
          "indexed": true,
          "internalType": "address",
          "name": "addr",
          "type": "address"
        },
        {
          "indexed": false,
          "internalType": "bool",
          "name": "exempt",
          "type": "bool"
        }
      ],
      "name": "WhaleLimitExemptSet",
      "type": "event"
    },
    {
      "anonymous": false,
      "inputs": [
        {
          "indexed": true,
          "internalType": "address",
          "name": "addr",
          "type": "address"
        },
        {
          "indexed": false,
          "internalType": "bool",
          "name": "status",
          "type": "bool"
        },
        {
          "indexed": false,
          "internalType": "uint64",
          "name": "effectiveAt",
          "type": "uint64"
        }
      ],
      "name": "WhitelistProposed",
      "type": "event"
    },
    {
      "anonymous": false,
      "inputs": [
        {
          "indexed": true,
          "internalType": "address",
          "name": "addr",
          "type": "address"
        },
        {
          "indexed": false,
          "internalType": "bool",
          "name": "status",
          "type": "bool"
        }
      ],
      "name": "Whitelisted",
      "type": "event"
    },
    {
      "inputs": [],
      "name": "DEV_RESERVE_SUPPLY",
      "outputs": [
        {
          "internalType": "uint256",
          "name": "",
          "type": "uint256"
        }
      ],
      "stateMutability": "view",
      "type": "function"
    },
    {
      "inputs": [],
      "name": "DOMAIN_SEPARATOR",
      "outputs": [
        {
          "internalType": "bytes32",
          "name": "",
          "type": "bytes32"
        }
      ],
      "stateMutability": "view",
      "type": "function"
    },
    {
      "inputs": [],
      "name": "EMERGENCY_CONTROLLER_DELAY",
      "outputs": [
        {
          "internalType": "uint64",
          "name": "",
          "type": "uint64"
        }
      ],
      "stateMutability": "view",
      "type": "function"
    },
    {
      "inputs": [],
      "name": "MAX_CIRCUIT_BREAKER_DURATION",
      "outputs": [
        {
          "internalType": "uint256",
          "name": "",
          "type": "uint256"
        }
      ],
      "stateMutability": "view",
      "type": "function"
    },
    {
      "inputs": [],
      "name": "MAX_SUPPLY",
      "outputs": [
        {
          "internalType": "uint256",
          "name": "",
          "type": "uint256"
        }
      ],
      "stateMutability": "view",
      "type": "function"
    },
    {
      "inputs": [],
      "name": "PERMIT_TYPEHASH",
      "outputs": [
        {
          "internalType": "bytes32",
          "name": "",
          "type": "bytes32"
        }
      ],
      "stateMutability": "view",
      "type": "function"
    },
    {
      "inputs": [],
      "name": "SINK_CHANGE_DELAY",
      "outputs": [
        {
          "internalType": "uint64",
          "name": "",
          "type": "uint64"
        }
      ],
      "stateMutability": "view",
      "type": "function"
    },
    {
      "inputs": [],
      "name": "acceptOwnership",
      "outputs": [],
      "stateMutability": "nonpayable",
      "type": "function"
    },
    {
      "inputs": [
        {
          "internalType": "address",
          "name": "owner_",
          "type": "address"
        },
        {
          "internalType": "address",
          "name": "spender",
          "type": "address"
        }
      ],
      "name": "allowance",
      "outputs": [
        {
          "internalType": "uint256",
          "name": "",
          "type": "uint256"
        }
      ],
      "stateMutability": "view",
      "type": "function"
    },
    {
      "inputs": [],
      "name": "applyAntiWhale",
      "outputs": [],
      "stateMutability": "nonpayable",
      "type": "function"
    },
    {
      "inputs": [],
      "name": "applyBurnRouter",
      "outputs": [],
      "stateMutability": "nonpayable",
      "type": "function"
    },
    {
      "inputs": [],
      "name": "applyEcosystemDistributor",
      "outputs": [],
      "stateMutability": "nonpayable",
      "type": "function"
    },
    {
      "inputs": [],
      "name": "applyEmergencyController",
      "outputs": [],
      "stateMutability": "nonpayable",
      "type": "function"
    },
    {
      "inputs": [],
      "name": "applyFraudRegistry",
      "outputs": [],
      "stateMutability": "nonpayable",
      "type": "function"
    },
    {
      "inputs": [],
      "name": "applyLedger",
      "outputs": [],
      "stateMutability": "nonpayable",
      "type": "function"
    },
    {
      "inputs": [],
      "name": "applySanctumSink",
      "outputs": [],
      "stateMutability": "nonpayable",
      "type": "function"
    },
    {
      "inputs": [],
      "name": "applyTreasurySink",
      "outputs": [],
      "stateMutability": "nonpayable",
      "type": "function"
    },
    {
      "inputs": [],
      "name": "applyVaultHub",
      "outputs": [],
      "stateMutability": "nonpayable",
      "type": "function"
    },
    {
      "inputs": [
        {
          "internalType": "address",
          "name": "addr",
          "type": "address"
        }
      ],
      "name": "applyWhaleLimitExempt",
      "outputs": [],
      "stateMutability": "nonpayable",
      "type": "function"
    },
    {
      "inputs": [
        {
          "internalType": "address",
          "name": "spender",
          "type": "address"
        },
        {
          "internalType": "uint256",
          "name": "amount",
          "type": "uint256"
        }
      ],
      "name": "approve",
      "outputs": [
        {
          "internalType": "bool",
          "name": "",
          "type": "bool"
        }
      ],
      "stateMutability": "nonpayable",
      "type": "function"
    },
    {
      "inputs": [
        {
          "internalType": "address",
          "name": "account",
          "type": "address"
        }
      ],
      "name": "balanceOf",
      "outputs": [
        {
          "internalType": "uint256",
          "name": "",
          "type": "uint256"
        }
      ],
      "stateMutability": "view",
      "type": "function"
    },
    {
      "inputs": [
        {
          "internalType": "uint256",
          "name": "amount",
          "type": "uint256"
        }
      ],
      "name": "burn",
      "outputs": [],
      "stateMutability": "nonpayable",
      "type": "function"
    },
    {
      "inputs": [],
      "name": "burnRouter",
      "outputs": [
        {
          "internalType": "contract IProofScoreBurnRouterToken",
          "name": "",
          "type": "address"
        }
      ],
      "stateMutability": "view",
      "type": "function"
    },
    {
      "inputs": [
        {
          "internalType": "address",
          "name": "from",
          "type": "address"
        },
        {
          "internalType": "address",
          "name": "to",
          "type": "address"
        },
        {
          "internalType": "uint256",
          "name": "amount",
          "type": "uint256"
        }
      ],
      "name": "canTransfer",
      "outputs": [
        {
          "internalType": "bool",
          "name": "canDo",
          "type": "bool"
        },
        {
          "internalType": "string",
          "name": "reason",
          "type": "string"
        }
      ],
      "stateMutability": "view",
      "type": "function"
    },
    {
      "inputs": [],
      "name": "cancelAntiWhale",
      "outputs": [],
      "stateMutability": "nonpayable",
      "type": "function"
    },
    {
      "inputs": [],
      "name": "cancelBurnRouter",
      "outputs": [],
      "stateMutability": "nonpayable",
      "type": "function"
    },
    {
      "inputs": [],
      "name": "cancelEcosystemDistributor",
      "outputs": [],
      "stateMutability": "nonpayable",
      "type": "function"
    },
    {
      "inputs": [],
      "name": "cancelEmergencyController",
      "outputs": [],
      "stateMutability": "nonpayable",
      "type": "function"
    },
    {
      "inputs": [],
      "name": "cancelFraudRegistry",
      "outputs": [],
      "stateMutability": "nonpayable",
      "type": "function"
    },
    {
      "inputs": [],
      "name": "cancelLedger",
      "outputs": [],
      "stateMutability": "nonpayable",
      "type": "function"
    },
    {
      "inputs": [],
      "name": "cancelOwnershipTransfer",
      "outputs": [],
      "stateMutability": "nonpayable",
      "type": "function"
    },
    {
      "inputs": [],
      "name": "cancelPendingExempt",
      "outputs": [],
      "stateMutability": "nonpayable",
      "type": "function"
    },
    {
      "inputs": [],
      "name": "cancelPendingWhitelist",
      "outputs": [],
      "stateMutability": "nonpayable",
      "type": "function"
    },
    {
      "inputs": [],
      "name": "cancelSanctumSink",
      "outputs": [],
      "stateMutability": "nonpayable",
      "type": "function"
    },
    {
      "inputs": [],
      "name": "cancelTreasurySink",
      "outputs": [],
      "stateMutability": "nonpayable",
      "type": "function"
    },
    {
      "inputs": [],
      "name": "cancelVaultHub",
      "outputs": [],
      "stateMutability": "nonpayable",
      "type": "function"
    },
    {
      "inputs": [
        {
          "internalType": "address",
          "name": "addr",
          "type": "address"
        }
      ],
      "name": "cancelWhaleLimitExempt",
      "outputs": [],
      "stateMutability": "nonpayable",
      "type": "function"
    },
    {
      "inputs": [],
      "name": "circuitBreaker",
      "outputs": [
        {
          "internalType": "bool",
          "name": "",
          "type": "bool"
        }
      ],
      "stateMutability": "view",
      "type": "function"
    },
    {
      "inputs": [],
      "name": "circuitBreakerExpiry",
      "outputs": [
        {
          "internalType": "uint256",
          "name": "",
          "type": "uint256"
        }
      ],
      "stateMutability": "view",
      "type": "function"
    },
    {
      "inputs": [],
      "name": "confirmCircuitBreaker",
      "outputs": [],
      "stateMutability": "nonpayable",
      "type": "function"
    },
    {
      "inputs": [],
      "name": "confirmFeeBypass",
      "outputs": [],
      "stateMutability": "nonpayable",
      "type": "function"
    },
    {
      "inputs": [],
      "name": "confirmSystemExempt",
      "outputs": [],
      "stateMutability": "nonpayable",
      "type": "function"
    },
    {
      "inputs": [],
      "name": "confirmWhitelist",
      "outputs": [],
      "stateMutability": "nonpayable",
      "type": "function"
    },
    {
      "inputs": [
        {
          "internalType": "address",
          "name": "account",
          "type": "address"
        }
      ],
      "name": "cooldownRemaining",
      "outputs": [
        {
          "internalType": "uint256",
          "name": "",
          "type": "uint256"
        }
      ],
      "stateMutability": "view",
      "type": "function"
    },
    {
      "inputs": [
        {
          "internalType": "address",
          "name": "",
          "type": "address"
        }
      ],
      "name": "dailyResetTime",
      "outputs": [
        {
          "internalType": "uint256",
          "name": "",
          "type": "uint256"
        }
      ],
      "stateMutability": "view",
      "type": "function"
    },
    {
      "inputs": [],
      "name": "dailyTransferLimit",
      "outputs": [
        {
          "internalType": "uint256",
          "name": "",
          "type": "uint256"
        }
      ],
      "stateMutability": "view",
      "type": "function"
    },
    {
      "inputs": [
        {
          "internalType": "address",
          "name": "",
          "type": "address"
        }
      ],
      "name": "dailyTransferred",
      "outputs": [
        {
          "internalType": "uint256",
          "name": "",
          "type": "uint256"
        }
      ],
      "stateMutability": "view",
      "type": "function"
    },
    {
      "inputs": [],
      "name": "decimals",
      "outputs": [
        {
          "internalType": "uint8",
          "name": "",
          "type": "uint8"
        }
      ],
      "stateMutability": "view",
      "type": "function"
    },
    {
      "inputs": [
        {
          "internalType": "address",
          "name": "spender",
          "type": "address"
        },
        {
          "internalType": "uint256",
          "name": "subtracted",
          "type": "uint256"
        }
      ],
      "name": "decreaseAllowance",
      "outputs": [
        {
          "internalType": "bool",
          "name": "",
          "type": "bool"
        }
      ],
      "stateMutability": "nonpayable",
      "type": "function"
    },
    {
      "inputs": [],
      "name": "ecosystemDistributor",
      "outputs": [
        {
          "internalType": "address",
          "name": "",
          "type": "address"
        }
      ],
      "stateMutability": "view",
      "type": "function"
    },
    {
      "inputs": [],
      "name": "emergencyController",
      "outputs": [
        {
          "internalType": "address",
          "name": "",
          "type": "address"
        }
      ],
      "stateMutability": "view",
      "type": "function"
    },
    {
      "inputs": [
        {
          "internalType": "address",
          "name": "newOwner",
          "type": "address"
        }
      ],
      "name": "emergencyTransferOwnership",
      "outputs": [],
      "stateMutability": "nonpayable",
      "type": "function"
    },
    {
      "inputs": [],
      "name": "feeBypass",
      "outputs": [
        {
          "internalType": "bool",
          "name": "",
          "type": "bool"
        }
      ],
      "stateMutability": "view",
      "type": "function"
    },
    {
      "inputs": [],
      "name": "feeBypassActivatedAt",
      "outputs": [
        {
          "internalType": "uint64",
          "name": "",
          "type": "uint64"
        }
      ],
      "stateMutability": "view",
      "type": "function"
    },
    {
      "inputs": [],
      "name": "feeBypassExpiry",
      "outputs": [
        {
          "internalType": "uint256",
          "name": "",
          "type": "uint256"
        }
      ],
      "stateMutability": "view",
      "type": "function"
    },
    {
      "inputs": [],
      "name": "fraudRegistry",
      "outputs": [
        {
          "internalType": "contract IFraudRegistry",
          "name": "",
          "type": "address"
        }
      ],
      "stateMutability": "view",
      "type": "function"
    },
    {
      "inputs": [
        {
          "internalType": "address",
          "name": "from",
          "type": "address"
        },
        {
          "internalType": "address",
          "name": "to",
          "type": "address"
        },
        {
          "internalType": "uint256",
          "name": "amount",
          "type": "uint256"
        }
      ],
      "name": "getExpectedNetAmount",
      "outputs": [
        {
          "internalType": "uint256",
          "name": "",
          "type": "uint256"
        }
      ],
      "stateMutability": "view",
      "type": "function"
    },
    {
      "inputs": [
        {
          "internalType": "address",
          "name": "spender",
          "type": "address"
        },
        {
          "internalType": "uint256",
          "name": "added",
          "type": "uint256"
        }
      ],
      "name": "increaseAllowance",
      "outputs": [
        {
          "internalType": "bool",
          "name": "",
          "type": "bool"
        }
      ],
      "stateMutability": "nonpayable",
      "type": "function"
    },
    {
      "inputs": [],
      "name": "isCircuitBreakerActive",
      "outputs": [
        {
          "internalType": "bool",
          "name": "",
          "type": "bool"
        }
      ],
      "stateMutability": "view",
      "type": "function"
    },
    {
      "inputs": [],
      "name": "isFeeBypassed",
      "outputs": [
        {
          "internalType": "bool",
          "name": "",
          "type": "bool"
        }
      ],
      "stateMutability": "view",
      "type": "function"
    },
    {
      "inputs": [
        {
          "internalType": "address",
          "name": "",
          "type": "address"
        }
      ],
      "name": "lastTransferTime",
      "outputs": [
        {
          "internalType": "uint256",
          "name": "",
          "type": "uint256"
        }
      ],
      "stateMutability": "view",
      "type": "function"
    },
    {
      "inputs": [],
      "name": "ledger",
      "outputs": [
        {
          "internalType": "contract IProofLedger",
          "name": "",
          "type": "address"
        }
      ],
      "stateMutability": "view",
      "type": "function"
    },
    {
      "inputs": [],
      "name": "lockPolicy",
      "outputs": [],
      "stateMutability": "nonpayable",
      "type": "function"
    },
    {
      "inputs": [],
      "name": "maxTransferAmount",
      "outputs": [
        {
          "internalType": "uint256",
          "name": "",
          "type": "uint256"
        }
      ],
      "stateMutability": "view",
      "type": "function"
    },
    {
      "inputs": [],
      "name": "maxWalletBalance",
      "outputs": [
        {
          "internalType": "uint256",
          "name": "",
          "type": "uint256"
        }
      ],
      "stateMutability": "view",
      "type": "function"
    },
    {
      "inputs": [],
      "name": "name",
      "outputs": [
        {
          "internalType": "string",
          "name": "",
          "type": "string"
        }
      ],
      "stateMutability": "view",
      "type": "function"
    },
    {
      "inputs": [
        {
          "internalType": "address",
          "name": "",
          "type": "address"
        }
      ],
      "name": "nonces",
      "outputs": [
        {
          "internalType": "uint256",
          "name": "",
          "type": "uint256"
        }
      ],
      "stateMutability": "view",
      "type": "function"
    },
    {
      "inputs": [],
      "name": "owner",
      "outputs": [
        {
          "internalType": "address",
          "name": "",
          "type": "address"
        }
      ],
      "stateMutability": "view",
      "type": "function"
    },
    {
      "inputs": [],
      "name": "ownershipTransferDeadline",
      "outputs": [
        {
          "internalType": "uint64",
          "name": "",
          "type": "uint64"
        }
      ],
      "stateMutability": "view",
      "type": "function"
    },
    {
      "inputs": [],
      "name": "pendingAntiWhaleAt",
      "outputs": [
        {
          "internalType": "uint64",
          "name": "",
          "type": "uint64"
        }
      ],
      "stateMutability": "view",
      "type": "function"
    },
    {
      "inputs": [],
      "name": "pendingBurnRouter",
      "outputs": [
        {
          "internalType": "address",
          "name": "",
          "type": "address"
        }
      ],
      "stateMutability": "view",
      "type": "function"
    },
    {
      "inputs": [],
      "name": "pendingBurnRouterAt",
      "outputs": [
        {
          "internalType": "uint64",
          "name": "",
          "type": "uint64"
        }
      ],
      "stateMutability": "view",
      "type": "function"
    },
    {
      "inputs": [],
      "name": "pendingCircuitBreakerActive",
      "outputs": [
        {
          "internalType": "bool",
          "name": "",
          "type": "bool"
        }
      ],
      "stateMutability": "view",
      "type": "function"
    },
    {
      "inputs": [],
      "name": "pendingCircuitBreakerAt",
      "outputs": [
        {
          "internalType": "uint64",
          "name": "",
          "type": "uint64"
        }
      ],
      "stateMutability": "view",
      "type": "function"
    },
    {
      "inputs": [],
      "name": "pendingCircuitBreakerDuration",
      "outputs": [
        {
          "internalType": "uint256",
          "name": "",
          "type": "uint256"
        }
      ],
      "stateMutability": "view",
      "type": "function"
    },
    {
      "inputs": [],
      "name": "pendingCooldown",
      "outputs": [
        {
          "internalType": "uint256",
          "name": "",
          "type": "uint256"
        }
      ],
      "stateMutability": "view",
      "type": "function"
    },
    {
      "inputs": [],
      "name": "pendingDailyLimit",
      "outputs": [
        {
          "internalType": "uint256",
          "name": "",
          "type": "uint256"
        }
      ],
      "stateMutability": "view",
      "type": "function"
    },
    {
      "inputs": [],
      "name": "pendingEcosystemDistributor",
      "outputs": [
        {
          "internalType": "address",
          "name": "",
          "type": "address"
        }
      ],
      "stateMutability": "view",
      "type": "function"
    },
    {
      "inputs": [],
      "name": "pendingEcosystemDistributorAt",
      "outputs": [
        {
          "internalType": "uint64",
          "name": "",
          "type": "uint64"
        }
      ],
      "stateMutability": "view",
      "type": "function"
    },
    {
      "inputs": [],
      "name": "pendingEmergencyController",
      "outputs": [
        {
          "internalType": "address",
          "name": "",
          "type": "address"
        }
      ],
      "stateMutability": "view",
      "type": "function"
    },
    {
      "inputs": [],
      "name": "pendingEmergencyControllerAt",
      "outputs": [
        {
          "internalType": "uint64",
          "name": "",
          "type": "uint64"
        }
      ],
      "stateMutability": "view",
      "type": "function"
    },
    {
      "inputs": [],
      "name": "pendingExemptAddr",
      "outputs": [
        {
          "internalType": "address",
          "name": "",
          "type": "address"
        }
      ],
      "stateMutability": "view",
      "type": "function"
    },
    {
      "inputs": [],
      "name": "pendingExemptAt",
      "outputs": [
        {
          "internalType": "uint64",
          "name": "",
          "type": "uint64"
        }
      ],
      "stateMutability": "view",
      "type": "function"
    },
    {
      "inputs": [],
      "name": "pendingExemptStatus",
      "outputs": [
        {
          "internalType": "bool",
          "name": "",
          "type": "bool"
        }
      ],
      "stateMutability": "view",
      "type": "function"
    },
    {
      "inputs": [],
      "name": "pendingFeeBypassActive",
      "outputs": [
        {
          "internalType": "bool",
          "name": "",
          "type": "bool"
        }
      ],
      "stateMutability": "view",
      "type": "function"
    },
    {
      "inputs": [],
      "name": "pendingFeeBypassAt",
      "outputs": [
        {
          "internalType": "uint64",
          "name": "",
          "type": "uint64"
        }
      ],
      "stateMutability": "view",
      "type": "function"
    },
    {
      "inputs": [],
      "name": "pendingFeeBypassDuration",
      "outputs": [
        {
          "internalType": "uint256",
          "name": "",
          "type": "uint256"
        }
      ],
      "stateMutability": "view",
      "type": "function"
    },
    {
      "inputs": [],
      "name": "pendingFraudRegistry",
      "outputs": [
        {
          "internalType": "address",
          "name": "",
          "type": "address"
        }
      ],
      "stateMutability": "view",
      "type": "function"
    },
    {
      "inputs": [],
      "name": "pendingFraudRegistryAt",
      "outputs": [
        {
          "internalType": "uint64",
          "name": "",
          "type": "uint64"
        }
      ],
      "stateMutability": "view",
      "type": "function"
    },
    {
      "inputs": [],
      "name": "pendingLedger",
      "outputs": [
        {
          "internalType": "address",
          "name": "",
          "type": "address"
        }
      ],
      "stateMutability": "view",
      "type": "function"
    },
    {
      "inputs": [],
      "name": "pendingLedgerAt",
      "outputs": [
        {
          "internalType": "uint64",
          "name": "",
          "type": "uint64"
        }
      ],
      "stateMutability": "view",
      "type": "function"
    },
    {
      "inputs": [],
      "name": "pendingMaxTransfer",
      "outputs": [
        {
          "internalType": "uint256",
          "name": "",
          "type": "uint256"
        }
      ],
      "stateMutability": "view",
      "type": "function"
    },
    {
      "inputs": [],
      "name": "pendingMaxWallet",
      "outputs": [
        {
          "internalType": "uint256",
          "name": "",
          "type": "uint256"
        }
      ],
      "stateMutability": "view",
      "type": "function"
    },
    {
      "inputs": [],
      "name": "pendingOwner",
      "outputs": [
        {
          "internalType": "address",
          "name": "",
          "type": "address"
        }
      ],
      "stateMutability": "view",
      "type": "function"
    },
    {
      "inputs": [],
      "name": "pendingSanctumSink",
      "outputs": [
        {
          "internalType": "address",
          "name": "",
          "type": "address"
        }
      ],
      "stateMutability": "view",
      "type": "function"
    },
    {
      "inputs": [],
      "name": "pendingSanctumSinkAt",
      "outputs": [
        {
          "internalType": "uint64",
          "name": "",
          "type": "uint64"
        }
      ],
      "stateMutability": "view",
      "type": "function"
    },
    {
      "inputs": [],
      "name": "pendingTreasurySink",
      "outputs": [
        {
          "internalType": "address",
          "name": "",
          "type": "address"
        }
      ],
      "stateMutability": "view",
      "type": "function"
    },
    {
      "inputs": [],
      "name": "pendingTreasurySinkAt",
      "outputs": [
        {
          "internalType": "uint64",
          "name": "",
          "type": "uint64"
        }
      ],
      "stateMutability": "view",
      "type": "function"
    },
    {
      "inputs": [],
      "name": "pendingVaultHub",
      "outputs": [
        {
          "internalType": "address",
          "name": "",
          "type": "address"
        }
      ],
      "stateMutability": "view",
      "type": "function"
    },
    {
      "inputs": [],
      "name": "pendingVaultHubAt",
      "outputs": [
        {
          "internalType": "uint64",
          "name": "",
          "type": "uint64"
        }
      ],
      "stateMutability": "view",
      "type": "function"
    },
    {
      "inputs": [
        {
          "internalType": "address",
          "name": "",
          "type": "address"
        }
      ],
      "name": "pendingWhaleExemptAt",
      "outputs": [
        {
          "internalType": "uint64",
          "name": "",
          "type": "uint64"
        }
      ],
      "stateMutability": "view",
      "type": "function"
    },
    {
      "inputs": [
        {
          "internalType": "address",
          "name": "",
          "type": "address"
        }
      ],
      "name": "pendingWhaleExemptStatus",
      "outputs": [
        {
          "internalType": "bool",
          "name": "",
          "type": "bool"
        }
      ],
      "stateMutability": "view",
      "type": "function"
    },
    {
      "inputs": [],
      "name": "pendingWhitelistAddr",
      "outputs": [
        {
          "internalType": "address",
          "name": "",
          "type": "address"
        }
      ],
      "stateMutability": "view",
      "type": "function"
    },
    {
      "inputs": [],
      "name": "pendingWhitelistAt",
      "outputs": [
        {
          "internalType": "uint64",
          "name": "",
          "type": "uint64"
        }
      ],
      "stateMutability": "view",
      "type": "function"
    },
    {
      "inputs": [],
      "name": "pendingWhitelistStatus",
      "outputs": [
        {
          "internalType": "bool",
          "name": "",
          "type": "bool"
        }
      ],
      "stateMutability": "view",
      "type": "function"
    },
    {
      "inputs": [
        {
          "internalType": "address",
          "name": "owner",
          "type": "address"
        },
        {
          "internalType": "address",
          "name": "spender",
          "type": "address"
        },
        {
          "internalType": "uint256",
          "name": "value",
          "type": "uint256"
        },
        {
          "internalType": "uint256",
          "name": "deadline",
          "type": "uint256"
        },
        {
          "internalType": "uint8",
          "name": "v",
          "type": "uint8"
        },
        {
          "internalType": "bytes32",
          "name": "r",
          "type": "bytes32"
        },
        {
          "internalType": "bytes32",
          "name": "s",
          "type": "bytes32"
        }
      ],
      "name": "permit",
      "outputs": [],
      "stateMutability": "nonpayable",
      "type": "function"
    },
    {
      "inputs": [],
      "name": "policyLocked",
      "outputs": [
        {
          "internalType": "bool",
          "name": "",
          "type": "bool"
        }
      ],
      "stateMutability": "view",
      "type": "function"
    },
    {
      "inputs": [
        {
          "internalType": "address",
          "name": "from",
          "type": "address"
        },
        {
          "internalType": "address",
          "name": "to",
          "type": "address"
        },
        {
          "internalType": "uint256",
          "name": "amount",
          "type": "uint256"
        }
      ],
      "name": "previewTransferFees",
      "outputs": [
        {
          "internalType": "uint256",
          "name": "burnAmount",
          "type": "uint256"
        },
        {
          "internalType": "uint256",
          "name": "sanctumAmount",
          "type": "uint256"
        },
        {
          "internalType": "uint256",
          "name": "ecosystemAmount",
          "type": "uint256"
        },
        {
          "internalType": "uint256",
          "name": "netReceived",
          "type": "uint256"
        }
      ],
      "stateMutability": "view",
      "type": "function"
    },
    {
      "inputs": [
        {
          "internalType": "address",
          "name": "who",
          "type": "address"
        },
        {
          "internalType": "bool",
          "name": "isExempt",
          "type": "bool"
        }
      ],
      "name": "proposeSystemExempt",
      "outputs": [],
      "stateMutability": "nonpayable",
      "type": "function"
    },
    {
      "inputs": [
        {
          "internalType": "address",
          "name": "addr",
          "type": "address"
        },
        {
          "internalType": "bool",
          "name": "status",
          "type": "bool"
        }
      ],
      "name": "proposeWhitelist",
      "outputs": [],
      "stateMutability": "nonpayable",
      "type": "function"
    },
    {
      "inputs": [
        {
          "internalType": "address",
          "name": "account",
          "type": "address"
        }
      ],
      "name": "remainingDailyLimit",
      "outputs": [
        {
          "internalType": "uint256",
          "name": "",
          "type": "uint256"
        }
      ],
      "stateMutability": "view",
      "type": "function"
    },
    {
      "inputs": [],
      "name": "renounceOwnership",
      "outputs": [],
      "stateMutability": "nonpayable",
      "type": "function"
    },
    {
      "inputs": [],
      "name": "sanctumSink",
      "outputs": [
        {
          "internalType": "address",
          "name": "",
          "type": "address"
        }
      ],
      "stateMutability": "view",
      "type": "function"
    },
    {
      "inputs": [
        {
          "internalType": "uint256",
          "name": "_maxTransfer",
          "type": "uint256"
        },
        {
          "internalType": "uint256",
          "name": "_maxWallet",
          "type": "uint256"
        },
        {
          "internalType": "uint256",
          "name": "_dailyLimit",
          "type": "uint256"
        },
        {
          "internalType": "uint256",
          "name": "_cooldown",
          "type": "uint256"
        }
      ],
      "name": "setAntiWhale",
      "outputs": [],
      "stateMutability": "nonpayable",
      "type": "function"
    },
    {
      "inputs": [
        {
          "internalType": "address",
          "name": "router",
          "type": "address"
        }
      ],
      "name": "setBurnRouter",
      "outputs": [],
      "stateMutability": "nonpayable",
      "type": "function"
    },
    {
      "inputs": [
        {
          "internalType": "bool",
          "name": "_active",
          "type": "bool"
        },
        {
          "internalType": "uint256",
          "name": "_duration",
          "type": "uint256"
        }
      ],
      "name": "setCircuitBreaker",
      "outputs": [],
      "stateMutability": "nonpayable",
      "type": "function"
    },
    {
      "inputs": [
        {
          "internalType": "address",
          "name": "distributor",
          "type": "address"
        }
      ],
      "name": "setEcosystemDistributor",
      "outputs": [],
      "stateMutability": "nonpayable",
      "type": "function"
    },
    {
      "inputs": [
        {
          "internalType": "address",
          "name": "controller",
          "type": "address"
        }
      ],
      "name": "setEmergencyController",
      "outputs": [],
      "stateMutability": "nonpayable",
      "type": "function"
    },
    {
      "inputs": [
        {
          "internalType": "bool",
          "name": "_active",
          "type": "bool"
        },
        {
          "internalType": "uint256",
          "name": "_duration",
          "type": "uint256"
        }
      ],
      "name": "setFeeBypass",
      "outputs": [],
      "stateMutability": "nonpayable",
      "type": "function"
    },
    {
      "inputs": [
        {
          "internalType": "address",
          "name": "_registry",
          "type": "address"
        }
      ],
      "name": "setFraudRegistry",
      "outputs": [],
      "stateMutability": "nonpayable",
      "type": "function"
    },
    {
      "inputs": [
        {
          "internalType": "address",
          "name": "_ledger",
          "type": "address"
        }
      ],
      "name": "setLedger",
      "outputs": [],
      "stateMutability": "nonpayable",
      "type": "function"
    },
    {
      "inputs": [
        {
          "internalType": "address",
          "name": "_sanctum",
          "type": "address"
        }
      ],
      "name": "setSanctumSink",
      "outputs": [],
      "stateMutability": "nonpayable",
      "type": "function"
    },
    {
      "inputs": [
        {
          "internalType": "address",
          "name": "sink",
          "type": "address"
        }
      ],
      "name": "setTreasurySink",
      "outputs": [],
      "stateMutability": "nonpayable",
      "type": "function"
    },
    {
      "inputs": [
        {
          "internalType": "address",
          "name": "hub",
          "type": "address"
        }
      ],
      "name": "setVaultHub",
      "outputs": [],
      "stateMutability": "nonpayable",
      "type": "function"
    },
    {
      "inputs": [
        {
          "internalType": "bool",
          "name": "enabled",
          "type": "bool"
        }
      ],
      "name": "setVaultOnly",
      "outputs": [],
      "stateMutability": "nonpayable",
      "type": "function"
    },
    {
      "inputs": [
        {
          "internalType": "address",
          "name": "addr",
          "type": "address"
        },
        {
          "internalType": "bool",
          "name": "exempt",
          "type": "bool"
        }
      ],
      "name": "setWhaleLimitExempt",
      "outputs": [],
      "stateMutability": "nonpayable",
      "type": "function"
    },
    {
      "inputs": [],
      "name": "symbol",
      "outputs": [
        {
          "internalType": "string",
          "name": "",
          "type": "string"
        }
      ],
      "stateMutability": "view",
      "type": "function"
    },
    {
      "inputs": [],
      "name": "syncEmergencyFlags",
      "outputs": [],
      "stateMutability": "nonpayable",
      "type": "function"
    },
    {
      "inputs": [
        {
          "internalType": "address",
          "name": "",
          "type": "address"
        }
      ],
      "name": "systemExempt",
      "outputs": [
        {
          "internalType": "bool",
          "name": "",
          "type": "bool"
        }
      ],
      "stateMutability": "view",
      "type": "function"
    },
    {
      "inputs": [],
      "name": "totalBurnedToDate",
      "outputs": [
        {
          "internalType": "uint256",
          "name": "",
          "type": "uint256"
        }
      ],
      "stateMutability": "view",
      "type": "function"
    },
    {
      "inputs": [],
      "name": "totalSupply",
      "outputs": [
        {
          "internalType": "uint256",
          "name": "",
          "type": "uint256"
        }
      ],
      "stateMutability": "view",
      "type": "function"
    },
    {
      "inputs": [],
      "name": "transactionFeesProcessed",
      "outputs": [
        {
          "internalType": "uint256",
          "name": "",
          "type": "uint256"
        }
      ],
      "stateMutability": "view",
      "type": "function"
    },
    {
      "inputs": [
        {
          "internalType": "address",
          "name": "to",
          "type": "address"
        },
        {
          "internalType": "uint256",
          "name": "amount",
          "type": "uint256"
        }
      ],
      "name": "transfer",
      "outputs": [
        {
          "internalType": "bool",
          "name": "",
          "type": "bool"
        }
      ],
      "stateMutability": "nonpayable",
      "type": "function"
    },
    {
      "inputs": [],
      "name": "transferCooldown",
      "outputs": [
        {
          "internalType": "uint256",
          "name": "",
          "type": "uint256"
        }
      ],
      "stateMutability": "view",
      "type": "function"
    },
    {
      "inputs": [
        {
          "internalType": "address",
          "name": "from",
          "type": "address"
        },
        {
          "internalType": "address",
          "name": "to",
          "type": "address"
        },
        {
          "internalType": "uint256",
          "name": "amount",
          "type": "uint256"
        }
      ],
      "name": "transferFrom",
      "outputs": [
        {
          "internalType": "bool",
          "name": "",
          "type": "bool"
        }
      ],
      "stateMutability": "nonpayable",
      "type": "function"
    },
    {
      "inputs": [
        {
          "internalType": "address",
          "name": "newOwner",
          "type": "address"
        }
      ],
      "name": "transferOwnership",
      "outputs": [],
      "stateMutability": "nonpayable",
      "type": "function"
    },
    {
      "inputs": [],
      "name": "treasurySink",
      "outputs": [
        {
          "internalType": "address",
          "name": "",
          "type": "address"
        }
      ],
      "stateMutability": "view",
      "type": "function"
    },
    {
      "inputs": [],
      "name": "vaultHub",
      "outputs": [
        {
          "internalType": "contract IVaultHub",
          "name": "",
          "type": "address"
        }
      ],
      "stateMutability": "view",
      "type": "function"
    },
    {
      "inputs": [],
      "name": "vaultOnly",
      "outputs": [
        {
          "internalType": "bool",
          "name": "",
          "type": "bool"
        }
      ],
      "stateMutability": "view",
      "type": "function"
    },
    {
      "inputs": [
        {
          "internalType": "address",
          "name": "",
          "type": "address"
        }
      ],
      "name": "whaleLimitExempt",
      "outputs": [
        {
          "internalType": "bool",
          "name": "",
          "type": "bool"
        }
      ],
      "stateMutability": "view",
      "type": "function"
    },
    {
      "inputs": [
        {
          "internalType": "address",
          "name": "",
          "type": "address"
        }
      ],
      "name": "whitelisted",
      "outputs": [
        {
          "internalType": "bool",
          "name": "",
          "type": "bool"
        }
      ],
      "stateMutability": "view",
      "type": "function"
    }
  ],
  "bytecode": "0x60808060405234610560575f60a08261631780380380916100208285610636565b833981010312610560576100338261066d565b916100406020820161066d565b9061004d6040820161066d565b90610066608061005f6060840161066d565b920161066d565b5f80546001600160a01b031916339081178255919391907f8be0079c531659141344cd1fd0a4f28419497f9722a3daafe3b4186f6b6457e08180a360016004556a01a784379d99db420000006005556a034f086f3b33b6840000006006556a0422ca8b0a00a4250000006007555f60088190556019805462ffffff60e01b1916600160e01b179055601a819055601b805460ff19169055601c55601d80546001600160401b03191690556001600160a01b038616938415610627576001600160a01b0316958615610627573b15610618576001600160a01b0316806105dc575b506001600160a01b0316806105a0575b506001600160a01b031680610564575b50805f52600c60205260405f20600160ff19825416179055825f52600c60205260405f20600160ff19825416179055466033556040516101a7604082610636565b600b81526a2b2324a222902a37b5b2b760a91b602090910152604080517f4ce082c216934f45765aa52f1d82612cdb513a49760946798ca41165309f978c916101f09082610636565b600181526020810190603160f81b82525190206040519060208201927f8b73c3c69bb8fe3d512ecc4cf759cc79239f7b179b0ffacaa9a75d522b39400f8452604083015260608201524660808201523060a082015260a0815261025460c082610636565b5190206032556aa56fa5b99019a5c8000000601255805f5260136020526a295be96e6406697200000060405f2055805f5f5160206162f75f395f51905f5260206040516a295be96e640669720000008152a36040516102b4604082610636565b601381527f7072656d696e745f6465765f726573657276650000000000000000000000000060208201526040516102ec604082610636565b600a8152690d4c13481b1bd8dad95960b21b60208201526016546001600160a01b0316806104a2575b5050505081815260136020526a7c13bc4b2c133c56000000604082205581815f5160206162f75f395f51905f5260206040516a7c13bc4b2c133c560000008152a360405190610365604083610636565b601082526f7072656d696e745f747265617375727960801b6020830152604051610390604082610636565b601381527f3135304d20666f72206f7065726174696f6e730000000000000000000000000060208201526016546001600160a01b031690816103dc575b604051615c3190816106a68239f35b813b1561049e5761043a83928392604051958680948193630303c28760e61b83528b600484015260806024840152610417608484018c610681565b6a7c13bc4b2c133c56000000604485015283810360031901606485015290610681565b03925af19182610486575b505061047f576104715f5160206162d75f395f51905f5291604051918291602083526020830190610681565b0390a25b5f808080806103cd565b5050610475565b610491828092610636565b61049b5780610445565b80fd5b8280fd5b803b15610560576105015f92918392604051948580948193630303c28760e61b83528a6004840152608060248401526104de608484018b610681565b6a295be96e64066972000000604485015283810360031901606485015290610681565b03925af1908161054b575b50610544576105375f5160206162d75f395f51905f5291604051918291602083526020830190610681565b0390a25b5f808080610315565b505061053b565b6105589194505f90610636565b5f925f61050c565b5f80fd5b602080546001600160a01b031916821790557f3f2254a28ba18b54180672b4e5f33b7cbe996e44be5c1ebe9057f49e894cde315f80a25f610166565b601680546001600160a01b031916821790557fbc62e69a31739e36d57d56991ac20e4e507a7edfff9070e6a11df5a37b8b4e6f5f80a25f610156565b601580546001600160a01b031916821790557fbb3d89b3025a50f5b3f9fc1bfe23194ad7fb05af4e31ab293af4a947960954d55f80a25f610146565b637094f5e760e11b5f5260045ffd5b63ebeb59ad60e01b5f5260045ffd5b601f909101601f19168101906001600160401b0382119082101761065957604052565b634e487b7160e01b5f52604160045260245ffd5b51906001600160a01b038216820361056057565b805180835260209291819084018484015e5f828201840152601f01601f191601019056fe6080806040526004361015610012575f80fd5b5f3560e01c90816301ca904114613b7a5750806306e0c52c14613b5557806306fdde0314613b265780630741206e14613a40578063091a76ca14613a18578063095ea7b3146139f25780630984d666146139b55780630cb9678714610bc95780630d19d5c51461398d5780630d2d8a311461395557806313d1ad081461389557806314ff370d146138705780631506d46f1461384857806315112f111461381c57806316560e461461376957806316efd9411461374457806318160ddd146137275780631dc4b09c1461361c5780631eb1db41146135665780631f0e3990146135295780631ff19db7146134fd57806320f0bccf1461348357806322a7caf51461346657806323452b9c1461342957806323b872dd146133cb578063241a5ae7146133575780632751c77f14613332578063278aedb5146133105780632cf34352146132595780632e6f46b81461323157806330adf81f1461320a57806330e76684146131d2578063313ce567146131b75780633246887d146130b157806332941ecb1461309757806332cb6b0c146130725780633391fe4a146130465780633559e42e146130095780633644e51514612fef5780633950935114612fa85780633adfdfff14612e9b5780633bf2697414612d405780633c2f9fe414612bd557806342966c6814612b0557806344327cd514612add57806344f8518b14612abb5780634706464414612a9e57806347583c2314612a215780634d02d02e146129f957806350140c06146129cf578063521d664e1461295a57806353a0f3ff1461292e57806356397c351461290657806358d85204146128da5780635a43e1761461286a5780635c6c270b1461282a5780636663fd31146127b857806368b896861461274557806368f16293146127285780636909b93d146126fc5780636c32b2ec146126d45780636ca7dc89146125a25780636dd6e80b1461257a57806370a0823114612542578063715018a6146124e55780637189bdd1146124bb578063748ada52146124c05780637738d69d146124bb578063778519f01461249e57806379036e9014612466578063793bb519146123f15780637997a3171461238457806379ba50971461228b5780637a936beb146122635780637adc723d146122265780637b7e5267146121565780637e00cac7146120a65780637ecebe001461206e5780637fefe21314611f8157806381d2f3d514611f695780638b2ecc8514611e655780638bea4f2d14611e3f5780638da5cb5b14611e1857806393de982414611df057806395d89b4114611da957806398ab696114611d8157806398d874e314611cc957806399e793a014611ca45780639a03f22414611c255780639c97dbf214611b595780639d82190f14611b365780639dde9ad714611a785780639f60003814611a50578063a1479a2f1461197d578063a34857cd14611870578063a457c2d7146117ff578063a4ca272e146117d3578063a4db97fc146117b6578063a5097b831461178a578063a57217c2146116b8578063a85587711461169b578063a890779114611673578063a9059cbb14611635578063a9e7572314611618578063ac1f2f58146115fb578063ae28341d146115cf578063ae577e4a146114e5578063b13b5d35146114c1578063b1a3341414611499578063b3e00c31146113da578063b55e3f3a146112ce578063b5dc14fa146112a2578063b692749714611285578063bbde77c114611268578063beeeb4ce14611240578063c4b740f514611146578063c90d54aa1461112d578063cfa373701461103e578063d505accf14610e9e578063d6b5473514610e61578063d7b54c8c14610e39578063d8b7694e14610e1c578063d936547e14610ddf578063dbdf6e9514610dba578063dcfb84bb14610d8e578063dd62ed3e14610d3e578063de83219e14610c30578063e30c397814610c08578063e46638e614610bce578063e8bed02014610bc9578063e985c6f614610ba1578063ed7d3cb214610b79578063edbdaa7314610b51578063f2af43cd14610b29578063f2fde38b14610a64578063f497e87314610a39578063f714af6f14610a1c578063f7bb619e1461094a578063f81ae06d14610819578063f8a2bf76146107b35763fa0377661461062b575f80fd5b346107af5760403660031901126107af57610644613c90565b6024359061065061426e565b610658615757565b6106d757506019805460ff60f01b191690555f601a819055602c80546001600160401b03191690556040805182815260208101929092525f516020615b655f395f51905f5291a16106d56040516106b0604082613b94565b601381527231b4b931bab4ba2fb13932b0b5b2b92fb7b33360691b60208201526142b7565b005b801580156107a3575b61079457602a805460ff60e81b1916600160e81b179055602b8190557f047a11cf21cb7e5d47e4e739a5f28d9413e07b8b3df36e3fe0c7cab2a1a2a3d0906060906001600160401b03610734428216613d12565b168060018060401b0319602c541617602c55604051916001835260208301526040820152a16106d560405161076a604082613b94565b601881527718da5c98dd5a5d17d89c99585ad95c97dc1c9bdc1bdcd95960421b60208201526142b7565b630cd491ad60e21b5f5260045ffd5b5062093a8081116106e0565b5f80fd5b346107af575f3660031901126107af576107cb61426e565b6003546107e660a082901c6001600160401b03161515613f15565b6001600160e01b0319166003557fb205cbeedf25e8cb84969b0360670dbfab45d5996607417b83db531a77fa23165f80a1005b346107af5760403660031901126107af57610832613c18565b61083a613c81565b9061084361426e565b6001600160a01b038116801561093b5760295460a881901c6001600160401b031661092c576106d5937f7677b48366cf49e4c155d1623a737ff903f1c270733c8df1303e3fe47641fa359183600160a81b600160e81b036108ac426001600160401b0316613d12565b60a81b169162ffffff60e81b161760ff60a01b83151560a01b161717806029556108e860405192839260018060401b039060a81c169083613d3d565b0390a26040516108f9604082613b94565b600f81526e195e195b5c1d17dc1c9bdc1bdcd959608a1b602082015260405191610924602084613b94565b5f83526155b0565b639e913baf60e01b5f5260045ffd5b6330d0de7360e11b5f5260045ffd5b346107af575f3660031901126107af5761096261426e565b60235460a081901c6001600160401b03168015610a0d5742106109ff57601780546001600160a01b0319166001600160a01b0383169081179091557faf9b9a8ca16be293d721c9b992abdb79c8c7a18ed68c393cc10deeaf4b2f99775f80a263ffffffff60e01b166023556106d56040516109de604082613b94565b600f81526e189d5c9b97dc9bdd5d195c97dcd95d608a1b60208201526142b7565b62a80d4560e41b5f5260045ffd5b631611060960e01b5f5260045ffd5b346107af575f3660031901126107af576020600754604051908152f35b346107af5760203660031901126107af576020610a5c610a57613c18565b6141ed565b604051908152f35b346107af5760203660031901126107af57610a7d613c18565b610a8561426e565b6001600160a01b0316610a99811515613edd565b600180546001600160a01b031916821790554262093a808101908110610b155760028054600160a01b600160e01b03191660a09290921b600160a01b600160e01b03169190911790555f80546001600160a01b0316907f38d16b8cac22d99fc7c124b9cd0de2d3fa1faef420bfe791d8c362d765e227009080a3005b634e487b7160e01b5f52601160045260245ffd5b346107af575f3660031901126107af576018546040516001600160a01b039091168152602090f35b346107af575f3660031901126107af576011546040516001600160401b039091168152602090f35b346107af575f3660031901126107af576031546040516001600160401b039091168152602090f35b346107af575f3660031901126107af57602c546040516001600160401b039091168152602090f35b613c44565b346107af57610be5610bdf36613c9f565b9161408c565b90610c0460405192839215158352604060208401526040830190613bf4565b0390f35b346107af575f3660031901126107af576001546040516001600160a01b039091168152602090f35b346107af5760403660031901126107af57610c49613c18565b610c51613c81565b90610c5a61426e565b6001600160a01b038116801561093b57602a5460a881901c6001600160401b031661092c576106d5937f41c953326ddf3c5a431cc35c2d61177b0a9696d1157385532bfc6a9a1d3746ec9183600160a81b600160e81b03610cc3426001600160401b0316613d12565b60a81b169162ffffff60e81b161760ff60a01b83151560a01b16171780602a55610cff60405192839260018060401b039060a81c169083613d3d565b0390a2604051610d10604082613b94565b60128152711dda1a5d195b1a5cdd17dc1c9bdc1bdcd95960721b602082015260405191610924602084613b94565b346107af5760403660031901126107af57610d57613c18565b610d5f613c2e565b6001600160a01b039182165f908152601460209081526040808320949093168252928352819020549051908152f35b346107af575f3660031901126107af5760195460405160a09190911c6001600160401b03168152602090f35b346107af575f3660031901126107af57602060ff60295460a01c166040519015158152f35b346107af5760203660031901126107af576001600160a01b03610e00613c18565b165f52601f602052602060ff60405f2054166040519015158152f35b346107af575f3660031901126107af576020602b54604051908152f35b346107af575f3660031901126107af57602a546040516001600160a01b039091168152602090f35b346107af5760203660031901126107af576001600160a01b03610e82613c18565b165f52601e602052602060ff60405f2054166040519015158152f35b346107af5760e03660031901126107af57610eb7613c18565b610ebf613c2e565b6044359060843560ff81168091036107af5760c435606435421161102f576fa2a8918ca85bafe22016d0b997e4df60600160ff1b038111610fff57601b82141580611024575b610fff576001600160a01b0385165f818152603460205260409020805491935f198314610b15576020938360809360015f96019055604051868101915f516020615c055f395f51905f52835288604083015260018060a01b038a1660608301528a8683015260a082015260a08152610f7e60c082613b94565b519020610f89613d99565b90604051908782019261190160f01b84526022830152604282015260428152610fb3606282613b94565b519020916040519283528583015260a4356040830152606082015282805260015afa15611019575f516001600160a01b031680159190821561100e575b5050610fff576106d592614354565b6348ff37e560e01b5f5260045ffd5b141590508480610ff0565b6040513d5f823e3d90fd5b50601c821415610f05565b63c69216a760e01b5f5260045ffd5b346107af5760203660031901126107af57611057613c18565b61105f61426e565b6026549060a082901c6001600160401b031661092c577fa99b83c5c4528572a33b26e7487b0f2765a38ac4f9de3fd428136d46a9f0f570906020906110ac426001600160401b0316613d12565b6001600160e01b03199094166001600160a01b0390911690811760a085901b600160a01b600160e01b0316176026556040516001600160401b03909416845292a26106d56040516110fe604082613b94565b601f81527f65636f73797374656d5f6469737472696275746f725f7363686564756c65640060208201526142b7565b346107af576020610a5c61114036613c9f565b91613fdc565b346107af5760203660031901126107af5761115f613c90565b61116761426e565b60195460ff8160e81c1680611238575b6112295760ff60e01b191681151560e081901b60ff60e01b16919091176019556040519081527fc700a08714659bf8ab2121ea3f1f64e22835cf102ad9ba5d0816e55a23f6ea2c90602090a1156111f8576106d56040516111d9604082613b94565b600d81526c3b30bab63a2fb7b7363cafb7b760991b60208201526142b7565b6106d5604051611209604082613b94565b600e81526d3b30bab63a2fb7b7363cafb7b33360911b60208201526142b7565b63015c1ff360e51b5f5260045ffd5b508115611177565b346107af575f3660031901126107af576021546040516001600160a01b039091168152602090f35b346107af575f3660031901126107af576020600654604051908152f35b346107af575f3660031901126107af57602060405162093a808152f35b346107af575f3660031901126107af5760285460405160a09190911c6001600160401b03168152602090f35b346107af5760203660031901126107af576112e7613c18565b6112ef61426e565b60ff60195460e81c16806113c9575b611229576025549060a082901c6001600160401b031661092c577f6d0fc93562b3b1523f9712a9a2616974e3b7f26c727e2e01d1bc5730a88ddc879060209061134f426001600160401b0316613d12565b6001600160e01b03199094166001600160a01b0390911690811760a085901b600160a01b600160e01b0316176025556040516001600160401b03909416845292a26106d56040516113a1604082613b94565b60168152751cd85b98dd1d5b57dcda5b9ad7dcd8da19591d5b195960521b60208201526142b7565b506001600160a01b038116156112fe565b346107af575f3660031901126107af576113f261426e565b60265460a081901c6001600160401b03168015610a0d5742106109ff57602280546001600160a01b0319166001600160a01b0383169081179091557f21cf0c11c3cf0618c6bce3076452e27abfd46e20618a56df91fddf9a129914c75f80a263ffffffff60e01b166026556106d560405161146e604082613b94565b60198152781958dbdcde5cdd195b57d91a5cdd1c9a589d5d1bdc97dcd95d603a1b60208201526142b7565b346107af575f3660031901126107af576023546040516001600160a01b039091168152602090f35b346107af575f3660031901126107af5760206114db613fbb565b6040519015158152f35b346107af5760203660031901126107af576114fe613c18565b61150661426e565b6019549060a082901c6001600160401b031661092c577ff17f7cf5f6546823bf7f688ac11ff076d6fe4bccb5696d0e90d09b9d1bea984b90602090611553426001600160401b0316613d12565b6001600160e01b03199094166001600160a01b0390911690811760a085901b600160a01b600160e01b0316176019556040516001600160401b03909416845292a26106d56040516115a5604082613b94565b6018815277199c985d5917dc9959da5cdd1c9e57dcd8da19591d5b195960421b60208201526142b7565b346107af575f3660031901126107af5760275460405160a09190911c6001600160401b03168152602090f35b346107af575f3660031901126107af576020603054604051908152f35b346107af575f3660031901126107af576020600554604051908152f35b346107af5760403660031901126107af57611663611651613c18565b6116596143d0565b602435903361449f565b6001600455602060405160018152f35b346107af575f3660031901126107af576022546040516001600160a01b039091168152602090f35b346107af575f3660031901126107af576020601054604051908152f35b346107af575f3660031901126107af576116d061426e565b6031546001600160401b03168015610a0d5742106109ff576116f0615757565b601d80546001600160401b031916426001600160401b03811691909117909155601b805460ff191660011790556030545f516020615b855f395f51905f529160409161173b91613e2c565b80601c55600180831b031960315416603155815190600182526020820152a16106d560405161176b604082613b94565b600d81526c3332b2afb13cb830b9b9afb7b760991b60208201526142b7565b346107af575f3660031901126107af5760295460405160a89190911c6001600160401b03168152602090f35b346107af575f3660031901126107af576020600e54604051908152f35b346107af575f3660031901126107af5760265460405160a09190911c6001600160401b03168152602090f35b346107af5760403660031901126107af57611818613c18565b60243590335f52601460205260405f2060018060a01b0382165f5260205260405f2054828110611861576118569261184f91613d58565b9033614354565b602060405160018152f35b63811f720f60e01b5f5260045ffd5b346107af5760203660031901126107af57611889613c18565b61189161426e565b60ff60195460e81c168061196c575b611229576024549060a082901c6001600160401b031661092c577fd48cc60147513f098d4a0df95c9e3b5df20030fd8b7517370924d9aab51f69d4906020906118f1426001600160401b0316613d12565b6001600160e01b03199094166001600160a01b0390911690811760a085901b600160a01b600160e01b0316176024556040516001600160401b03909416845292a26106d5604051611943604082613b94565b60178152761d1c99585cdd5c9e57dcda5b9ad7dcd8da19591d5b1959604a1b60208201526142b7565b506001600160a01b038116156118a0565b346107af575f3660031901126107af5761199561426e565b6011546001600160401b0381168015610a0d5742106109ff577fdd527915e4785ab4e44c56581b4895b2cf4ce1414470508ea4a3d00623fba914600d5480600555600e5490816006556119fc600f5480600755601054908160085560405194859485613cd9565b0390a15f600d555f600e555f600f555f60105560018060401b0319166011556106d5604051611a2c604082613b94565b6012815271185b9d1a57ddda185b1957d85c1c1b1a595960721b60208201526142b7565b346107af575f3660031901126107af576003546040516001600160a01b039091168152602090f35b346107af575f3660031901126107af57611a9061426e565b602c546001600160401b03168015610a0d5742106109ff57611ab0615757565b6019805460ff60f01b1916600160f01b179055602b545f516020615b655f395f51905f5290604090611ae29042613e2c565b80601a55600180831b0319602c5416602c55815190600182526020820152a16106d5604051611b12604082613b94565b601281527131b4b931bab4ba2fb13932b0b5b2b92fb7b760711b60208201526142b7565b346107af5760203660031901126107af576020610a5c611b54613c18565b613f5e565b346107af575f3660031901126107af57611b7161426e565b60035460a081901c6001600160401b0316611b8d811515613f15565b4210611be957600280546001600160a01b031981166001600160a01b038481169182179093556001600160e01b0319909316600355167f2e8141caf5e7501960d8d6012fe36a5ab7838a62d75e6792901cee89ab8001965f80a3005b60405162461bcd60e51b81526020600482015260146024820152734f574e3a2074696d656c6f636b2061637469766560601b6044820152606490fd5b346107af575f3660031901126107af57611c3d61426e565b6019805460ff60e81b1916600160e81b1790557f3ce392d8aa0912d44ce27fbdd025b988ec76fd2b53f0ab8b479ed539069d2b345f80a16106d5604051611c85604082613b94565b600d81526c1c1bdb1a58de57db1bd8dad959609a1b60208201526142b7565b346107af575f3660031901126107af5760206040516a295be96e640669720000008152f35b346107af575f3660031901126107af57611ce161426e565b60195460a081901c6001600160401b03168015610a0d5742106109ff57601880546001600160a01b0319166001600160a01b0383169081179091557f70f29927f1c8c3d3f6ba973623584b334491a8b2164dd5ef6c09cd00e426c9855f80a263ffffffff60e01b166019556106d5604051611d5d604082613b94565b6012815271199c985d5917dc9959da5cdd1c9e57dcd95d60721b60208201526142b7565b346107af575f3660031901126107af576019546040516001600160a01b039091168152602090f35b346107af575f3660031901126107af57610c04604051611dca604082613b94565b6005815264564649444560d81b6020820152604051918291602083526020830190613bf4565b346107af575f3660031901126107af57601d546040516001600160401b039091168152602090f35b346107af575f3660031901126107af575f546040516001600160a01b039091168152602090f35b346107af575f3660031901126107af57602080546040516001600160a01b039091168152f35b346107af575f3660031901126107af57611e7d61426e565b60295460a881901c6001600160401b03168015610a0d5742106109ff576001600160a01b0381165f818152601e60205260409020611f2d9260a01c60ff1690611ec7908290613d2c565b817f44f2eda14b8ba74d08291fccb7fe6e96b0188538fb528966e0d02a84713f290d60206040518415158152a215611f3f57604051611f07604082613b94565b600981526832bc32b6b83a2fb7b760b91b60208201525b60405191610924602084613b94565b602980546001600160e81b0319169055005b604051611f4d604082613b94565b600a81526932bc32b6b83a2fb7b33360b11b6020820152611f1e565b346107af575f3660031901126107af576106d5615757565b346107af5760203660031901126107af57611f9a613c18565b611fa261426e565b6001600160a01b03165f818152602e60205260409020546001600160401b031615610a0d575f818152602e60205260409020546001600160401b031642106109ff57805f52602d60205261200860ff60405f205416825f52600c60205260405f20613d2c565b5f818152602e6020908152604080832080546001600160401b0319169055602d8252808320805460ff19169055600c82529182902054915160ff909216151582527fe355751d29baf3bbcbfb4f9db660bfdf038ac8076722a3cb9ed1807250c1f7b091a2005b346107af5760203660031901126107af576001600160a01b0361208f613c18565b165f526034602052602060405f2054604051908152f35b346107af575f3660031901126107af576120be61426e565b60285460a081901c6001600160401b03168015610a0d5742106109ff57601680546001600160a01b0319166001600160a01b0383169081179091557fbc62e69a31739e36d57d56991ac20e4e507a7edfff9070e6a11df5a37b8b4e6f5f80a263ffffffff60e01b166028556106d560405161213a604082613b94565b600a8152691b195919d95c97dcd95d60b21b60208201526142b7565b346107af5760203660031901126107af5761216f613c18565b600254906001600160a01b03821633036121e1576001600160a01b0316612197811515613edd565b5f548160018060a01b0382165f516020615bc55f395f51905f525f80a36001600160a01b0319908116919091175f55600180549091169055600160a01b600160e01b031916600255005b60405162461bcd60e51b815260206004820152601d60248201527f4f574e3a206e6f7420656d657267656e637920636f6e74726f6c6c65720000006044820152606490fd5b346107af5760203660031901126107af576001600160a01b03612247613c18565b165f52600c602052602060ff60405f2054166040519015158152f35b346107af575f3660031901126107af576002546040516001600160a01b039091168152602090f35b346107af575f3660031901126107af576001546001600160a01b0381163303612346576002549060a082901c6001600160401b03164211612309575f543360018060a01b0382165f516020615bc55f395f51905f525f80a36001600160a01b031990811633175f5516600155600160a01b600160e01b031916600255005b60405162461bcd60e51b815260206004820152601560248201527413d5d38e881d1c985b9cd9995c88195e1c1a5c9959605a1b6044820152606490fd5b60405162461bcd60e51b815260206004820152601660248201527527aba71d103737ba103832b73234b7339037bbb732b960511b6044820152606490fd5b346107af575f3660031901126107af5761239c61426e565b60285460a081901c6001600160401b031615610a0d5763ffffffff60e01b166028556106d56040516123cf604082613b94565b601081526f1b195919d95c97d8d85b98d95b1b195960821b60208201526142b7565b346107af575f3660031901126107af5761240961426e565b60195460a081901c6001600160401b031615610a0d5763ffffffff60e01b166019556106d560405161243c604082613b94565b6018815277199c985d5917dc9959da5cdd1c9e57d8d85b98d95b1b195960421b60208201526142b7565b346107af5760203660031901126107af576001600160a01b03612487613c18565b165f526009602052602060405f2054604051908152f35b346107af575f3660031901126107af576020600d54604051908152f35b613cf5565b346107af575f3660031901126107af57602060ff60195460e81c166040519015158152f35b346107af575f3660031901126107af576124fd61426e565b60405162461bcd60e51b815260206004820152601d60248201527f5646494445546f6b656e3a2072656e6f756e63652064697361626c65640000006044820152606490fd5b346107af5760203660031901126107af576001600160a01b03612563613c18565b165f526013602052602060405f2054604051908152f35b346107af575f3660031901126107af576015546040516001600160a01b039091168152602090f35b346107af5760203660031901126107af576125bb613c18565b6125c361426e565b6001600160a01b031680156126985760035460a081901c6001600160401b0316612653577f139c5347770995c23b1e768308632d39bb6806801a98cf7d64e68feb4092c0639060209083600160a01b600160e01b0361262a426001600160401b0316613d12565b60a01b169163ffffffff60e01b161717806003556040519060018060401b039060a01c168152a2005b60405162461bcd60e51b815260206004820152601e60248201527f4f574e3a2070656e64696e6720636f6e74726f6c6c65722065786973747300006044820152606490fd5b60405162461bcd60e51b815260206004820152601460248201527327aba71d103d32b9379031b7b73a3937b63632b960611b6044820152606490fd5b346107af575f3660031901126107af576017546040516001600160a01b039091168152602090f35b346107af575f3660031901126107af5760235460405160a09190911c6001600160401b03168152602090f35b346107af575f3660031901126107af576020600854604051908152f35b346107af575f3660031901126107af5761275d61426e565b60255460a081901c6001600160401b031615610a0d5763ffffffff60e01b166025556106d5604051612790604082613b94565b60168152751cd85b98dd1d5b57dcda5b9ad7d8d85b98d95b1b195960521b60208201526142b7565b346107af575f3660031901126107af576127d061426e565b60235460a081901c6001600160401b031615610a0d5763ffffffff60e01b166023556106d5604051612803604082613b94565b6015815274189d5c9b97dc9bdd5d195c97d8d85b98d95b1b1959605a1b60208201526142b7565b346107af5760203660031901126107af576001600160a01b0361284b613c18565b165f52602e602052602060018060401b0360405f205416604051908152f35b346107af575f3660031901126107af5761288261426e565b60275460a081901c6001600160401b031615610a0d5763ffffffff60e01b166027556106d56040516128b5604082613b94565b60138152721d985d5b1d17da1d5897d8d85b98d95b1b1959606a1b60208201526142b7565b346107af575f3660031901126107af5760255460405160a09190911c6001600160401b03168152602090f35b346107af575f3660031901126107af576016546040516001600160a01b039091168152602090f35b346107af575f3660031901126107af57602a5460405160a89190911c6001600160401b03168152602090f35b346107af5760203660031901126107af57612973613c18565b61297b61426e565b6001600160a01b03165f818152602e60205260409020546001600160401b031615610a0d575f908152602e6020908152604080832080546001600160401b0319169055602d9091529020805460ff19169055005b346107af57610c046129e96129e336613c9f565b91613e39565b9060409492945194859485613cd9565b346107af575f3660031901126107af576025546040516001600160a01b039091168152602090f35b346107af575f3660031901126107af57612a3961426e565b6011546001600160401b03811615610a0d575f600d555f600e555f600f555f60105560018060401b0319166011556106d5604051612a78604082613b94565b6014815273185b9d1a57ddda185b1957d8d85b98d95b1b195960621b60208201526142b7565b346107af575f3660031901126107af576020600f54604051908152f35b346107af575f3660031901126107af57602060ff602f54166040519015158152f35b346107af575f3660031901126107af576024546040516001600160a01b039091168152602090f35b346107af5760203660031901126107af57600435612b216143d0565b8015612bc657335f52601360205260405f205490808210612bb75780612bb092335f5260136020520360405f2055612b5b81601254613d58565b6012555f6040518281525f516020615be55f395f51905f5260203392a360405190612b87604083613b94565b6004825263313ab93760e11b602083015260405191612ba7602084613b94565b5f835233615683565b6001600455005b630e14322960e21b5f5260045ffd5b63ebeb59ad60e01b5f5260045ffd5b346107af5760803660031901126107af57604435602435600435606435612bfa61426e565b81151580612d2d575b612ced5782151580612d1a575b612ced5783151580612d07575b612ced5780151580612cfc575b612ced57601154906001600160401b03821661092c57600d839055600e849055600f85905560108190557f3711b8436e89239006e98b345d7afba692d2cea9e3701555abc40004c829a2dc9460a0946001600160401b03612c8c428216613d12565b16809460018060401b031916176011556040519485526020850152604084015260608301526080820152a16106d5604051612cc8604082613b94565b6013815272185b9d1a57ddda185b1957dc1c9bdc1bdcd959606a1b60208201526142b7565b63a6ee042360e01b5f5260045ffd5b50610e108111612c2a565b506969e10de76676d08000008410612c1d565b50692a5a058fc295ed0000008310612c10565b5069152d02c7e14af68000008210612c03565b346107af5760403660031901126107af57612d59613c90565b60243590612d6561426e565b612d6d615757565b15612e305780158015612e24575b61079457602f805460ff1916600117905560308190557f33d230067fd492898a736fef6d2e2df7379be7281c7ade7fbe37fd0d95fe9bf4906060906001600160401b03612dc9428216613d12565b168060018060401b03196031541617603155604051916001835260208301526040820152a16106d5604051612dff604082613b94565b601381527219995957d89e5c185cdcd7dc1c9bdc1bdcd959606a1b60208201526142b7565b5062093a808111612d7b565b5060ff19601b5416601b555f601c5560018060401b0319603154166031555f516020615b855f395f51905f52604080515f81525f6020820152a16106d5604051612e7b604082613b94565b600e81526d3332b2afb13cb830b9b9afb7b33360911b60208201526142b7565b346107af575f3660031901126107af57612eb361426e565b602a5460a881901c6001600160401b03168015610a0d5742106109ff576001600160a01b0381165f818152601f60205260409020612f669260a01c60ff1690612efd908290613d2c565b817fa54714518c5d275fdcd3d2a461e4858e4e8cb04fb93cd0bca9d6d34115f2644060206040518415158152a215612f7857604051612f3d604082613b94565b600d81526c1dda1a5d195b1a5cdd17d85919609a1b602082015260405191610924602084613b94565b602a80546001600160e81b0319169055005b604051612f86604082613b94565b601081526f77686974656c6973745f72656d6f766560801b6020820152611f1e565b346107af5760403660031901126107af57611856612fc4613c18565b335f52601460205260405f2060018060a01b0382165f5260205261184f60405f206024359054613e2c565b346107af575f3660031901126107af576020610a5c613d99565b346107af5760203660031901126107af576001600160a01b0361302a613c18565b165f52602d602052602060ff60405f2054166040519015158152f35b346107af575f3660031901126107af5760245460405160a09190911c6001600160401b03168152602090f35b346107af575f3660031901126107af5760206040516aa56fa5b99019a5c80000008152f35b346107af575f3660031901126107af5760206114db613d65565b346107af5760203660031901126107af576130ca613c18565b6130d261426e565b60ff60195460e81c16806131a6575b611229576028549060a082901c6001600160401b031661092c577f012057830288ee788dad3b1923039fa4f5c7f41324965aae00787af1ef4340ca90602090613132426001600160401b0316613d12565b6001600160e01b03199094166001600160a01b0390911690811760a085901b600160a01b600160e01b0316176028556040516001600160401b03909416845292a26106d5604051613184604082613b94565b601081526f1b195919d95c97dcd8da19591d5b195960821b60208201526142b7565b506001600160a01b038116156130e1565b346107af575f3660031901126107af57602060405160128152f35b346107af5760203660031901126107af576001600160a01b036131f3613c18565b165f52600a602052602060405f2054604051908152f35b346107af575f3660031901126107af5760206040515f516020615c055f395f51905f528152f35b346107af575f3660031901126107af576026546040516001600160a01b039091168152602090f35b346107af575f3660031901126107af5761327161426e565b60245460a081901c6001600160401b03168015610a0d5742106109ff57602080546001600160a01b0319166001600160a01b0383169081179091557f3f2254a28ba18b54180672b4e5f33b7cbe996e44be5c1ebe9057f49e894cde315f80a263ffffffff60e01b166024556106d56040516132ed604082613b94565b60118152701d1c99585cdd5c9e57dcda5b9ad7dcd95d607a1b60208201526142b7565b346107af575f3660031901126107af57602060ff601b54166040519015158152f35b346107af575f3660031901126107af57602060ff602a5460e81c166040519015158152f35b346107af575f3660031901126107af5761336f61426e565b60245460a081901c6001600160401b031615610a0d5763ffffffff60e01b166024556106d56040516133a2604082613b94565b60178152761d1c99585cdd5c9e57dcda5b9ad7d8d85b98d95b1b1959604a1b60208201526142b7565b346107af576133d936613c9f565b906133e26143d0565b6001600160a01b0383165f908152601460209081526040808320338452909152902054928284106118615761342461341d8461166396613d58565b3383614354565b61449f565b346107af575f3660031901126107af5761344161426e565b600180546001600160a01b031916905560028054600160a01b600160e01b0319169055005b346107af575f3660031901126107af576020601a54604051908152f35b346107af575f3660031901126107af5761349b61426e565b60265460a081901c6001600160401b031615610a0d5763ffffffff60e01b166026556106d56040516134ce604082613b94565b601f81527f65636f73797374656d5f6469737472696275746f725f63616e63656c6c65640060208201526142b7565b346107af575f3660031901126107af5760035460405160a09190911c6001600160401b03168152602090f35b346107af575f3660031901126107af5761354161426e565b60295460a881901c6001600160401b031615610a0d576001600160e81b031916602955005b346107af575f3660031901126107af5761357e61426e565b60255460a081901c6001600160401b03168015610a0d5742106109ff57602180546001600160a01b0319166001600160a01b0383169081179091557fe99cdf96738a4659f820a0890f65abe82cce94da951e032d7abe61e5687ba2525f80a263ffffffff60e01b166025556106d56040516135fa604082613b94565b601081526f1cd85b98dd1d5b57dcda5b9ad7dcd95d60821b60208201526142b7565b346107af5760203660031901126107af57613635613c18565b61363d61426e565b60ff60195460e81c1680613716575b611229576023549060a082901c6001600160401b031661092c577fa530274d6e7efa7afabfa54f9e808bf793ff77db0b6a2e391c24434aa689a33f9060209061369d426001600160401b0316613d12565b6001600160e01b03199094166001600160a01b0390911690811760a085901b600160a01b600160e01b0316176023556040516001600160401b03909416845292a26106d56040516136ef604082613b94565b6015815274189d5c9b97dc9bdd5d195c97dcd8da19591d5b1959605a1b60208201526142b7565b506001600160a01b0381161561364c565b346107af575f3660031901126107af576020601254604051908152f35b346107af575f3660031901126107af57602060ff60195460f01c166040519015158152f35b346107af575f3660031901126107af5761378161426e565b60275460a081901c6001600160401b03168015610a0d5742106109ff57601580546001600160a01b0319166001600160a01b0383169081179091557fbb3d89b3025a50f5b3f9fc1bfe23194ad7fb05af4e31ab293af4a947960954d55f80a263ffffffff60e01b166027556106d56040516137fd604082613b94565b600d81526c1d985d5b1d17da1d5897dcd95d609a1b60208201526142b7565b346107af575f3660031901126107af5760025460405160a09190911c6001600160401b03168152602090f35b346107af575f3660031901126107af576029546040516001600160a01b039091168152602090f35b346107af575f3660031901126107af57602060ff602a5460a01c166040519015158152f35b346107af5760403660031901126107af576138ae613c18565b6138b6613c81565b906138bf61426e565b6001600160a01b031690811561093b577ff2be5730925ae9b3594db194d4e6859309ff7f1eb92e46a2c324ea9f6a3a2ec590613903426001600160401b0316613d12565b90835f52602d6020526139198160405f20613d2c565b5f848152602e60205260409081902080546001600160401b0319166001600160401b03851617905551918291613950919083613d3d565b0390a2005b346107af5760203660031901126107af576001600160a01b03613976613c18565b165f52600b602052602060405f2054604051908152f35b346107af575f3660031901126107af576027546040516001600160a01b039091168152602090f35b346107af575f3660031901126107af576139cd61426e565b602a5460a881901c6001600160401b031615610a0d576001600160e81b031916602a55005b346107af5760403660031901126107af57611856613a0e613c18565b6024359033614354565b346107af575f3660031901126107af576028546040516001600160a01b039091168152602090f35b346107af5760203660031901126107af57613a59613c18565b613a6161426e565b6001600160a01b0316801561093b5760275460a081901c6001600160401b031661092c577feb93d216955e49dbd96febef3cef3d3201fa203f343001b11685d728df481d1890602090613abc426001600160401b0316613d12565b6001600160e01b0319909116841760a082901b600160a01b600160e01b0316176027556040516001600160401b039091168152a26106d5604051613b01604082613b94565b60138152721d985d5b1d17da1d5897dcd8da19591d5b1959606a1b60208201526142b7565b346107af575f3660031901126107af57610c04613b41613bcb565b604051918291602083526020830190613bf4565b346107af575f3660031901126107af57602060ff60195460e01c166040519015158152f35b346107af575f3660031901126107af57602090601c548152f35b601f909101601f19168101906001600160401b03821190821017613bb757604052565b634e487b7160e01b5f52604160045260245ffd5b60405190613bda604083613b94565b600b82526a2b2324a222902a37b5b2b760a91b6020830152565b805180835260209291819084018484015e5f828201840152601f01601f1916010190565b600435906001600160a01b03821682036107af57565b602435906001600160a01b03821682036107af57565b346107af575f3660031901126107af576012546aa56fa5b99019a5c8000000036aa56fa5b99019a5c80000008111610b1557604051908152602090f35b6024359081151582036107af57565b6004359081151582036107af57565b60609060031901126107af576004356001600160a01b03811681036107af57906024356001600160a01b03811681036107af579060443590565b9094939260609260808301968352602083015260408201520152565b346107af575f3660031901126107af5760206040516202a3008152f35b6001600160401b039081166202a3000191908211610b1557565b9060ff801983541691151516179055565b90151581526001600160401b03909116602082015260400190565b91908203918211610b1557565b60ff60195460f01c1615613d8a57601a548015159081613d8e575b50613d8a57600190565b5f90565b90504210155f613d80565b6033544614613e2657613daa613bcb565b6020815191012060016020604051613dc3604082613b94565b82815201603160f81b8152206040519060208201927f8b73c3c69bb8fe3d512ecc4cf759cc79239f7b179b0ffacaa9a75d522b39400f8452604083015260608201524660808201523060a082015260a08152613e2060c082613b94565b51902090565b60325490565b91908201809211610b1557565b6001600160a01b0381165f908152601e6020526040902054929392849060ff168015613eb9575b8015613ea6575b8015613e98575b613e8c57613e8692613e7f92613fdc565b8093613d58565b5f925f92565b5050505f915f915f9190565b50613ea1613fbb565b613e6e565b506017546001600160a01b031615613e67565b50506001600160a01b0382165f908152601e6020526040902054849060ff16613e60565b15613ee457565b60405162461bcd60e51b81526020600482015260096024820152684f574e3a207a65726f60b81b6044820152606490fd5b15613f1c57565b60405162461bcd60e51b815260206004820152601a60248201527927aba71d103737903832b73234b7339031b7b73a3937b63632b960311b6044820152606490fd5b600854908115613fb55760018060a01b031690815f52600b602052600160405f205410613fb557613f9a915f52600b60205260405f2054613e2c565b80421015613fb057613fad904290613d58565b90565b505f90565b50505f90565b60ff601b541615613d8a57601c548015159081613d8e5750613d8a57600190565b601754909183916001600160a01b031615801561407e575b801561405d575b801561403c575b6140365761400f926157dd565b91901561401a575090565b61251c80820292508115918304141715610b1557612710900490565b50505090565b506001600160a01b0381165f908152601e602052604090205460ff16614002565b506001600160a01b0383165f908152601e602052604090205460ff16613ffb565b50614087613fbb565b613ff4565b60018060a01b031690815f5260136020528260405f2054106141c357815f52600c60205260ff60405f2054169182156141a1575b8215614189575b8215614167575b821561415e575b50811561414c575b50159081614140575b81614134575b5061410857600190604051614102602082613b94565b5f815290565b5f90604051614118604082613b94565b600c81526b26a0ac2faa2920a729a322a960a11b602082015290565b9050600554105f6140ec565b600554151591506140e6565b6001600160a01b03161590505f6140dd565b1591505f6140d5565b6001600160a01b0382165f908152601e602052604090205460ff1692506140ce565b8092505f52601e60205260ff60405f205416916140c7565b6001600160a01b0382165f908152600c602052604090205460ff1692506140c0565b5050505f906040516141d6604082613b94565b600781526642414c414e434560c81b602082015290565b600754908115614267576001600160a01b03165f818152600a6020526040902054909190801590811561424f575b5061424a57815f5260096020528060405f20541015613fb557613fad915f52600960205260405f205490613d58565b905090565b9050620151808101809111610b15574210155f61421b565b50505f1990565b5f546001600160a01b0316330361428157565b60405162461bcd60e51b815260206004820152600e60248201526d27aba71d103737ba1037bbb732b960911b6044820152606490fd5b6016546001600160a01b0316806142cc575050565b803b156107af575f6040518092633ddd61ab60e21b8252306004830152606060248301528183816143006064820189613bf4565b33604483015203925af19081614344575b50614341575f516020615ba55f395f51905f52604051602081528061433b30946020830190613bf4565b0390a25b565b50565b5f61434e91613b94565b5f614311565b6001600160a01b031690811580156143bf575b61093b5760207f8c5be1e5ebec7d5bd14f71427d1e84f3dd0314c0f7b2291e5b200ac8c7c3b92591835f526014825260405f2060018060a01b0382165f5282528460405f205560405194855260018060a01b031693a3565b506001600160a01b03811615614367565b6001600454036143e1576002600455565b60405162461bcd60e51b815260206004820152600a6024820152697265656e7472616e637960b01b6044820152606490fd5b51906001600160a01b03821682036107af57565b6001600160a01b03918216815291166020820152604081019190915260600190565b3d15614482573d906001600160401b038211613bb75760405191614477601f8201601f191660200184613b94565b82523d5f602084013e565b606090565b908160209103126107af575180151581036107af5790565b9190916144aa615757565b5f926001600160a01b038216158015818161559f575b612bc6578415612bc657829160ff60195460e01c168061558b575b615426575b6001600160a01b0385165f908152600c602052604090205460ff161580615404575b806153e2575b806153c0575b61518e575b60ff60195460e01c168061517a575b61502a575b50506001600160a01b0383165f90815260136020526040902054848110612bb757849060018060a01b0385165f5260136020520360405f205583809260018060a01b0360175416801580158061501b575b80614fd1575b15614f885750819260c0916145b4935f6145978a615a87565b6040516384aeed4d60e01b81529687958694859360048501614427565b03925af15f915f905f905f845f925f96614f17575b506149f1575050505050506145dc614449565b5f516020615b455f395f51905f52614623601560405174636f6d7075746546656573416e645265736572766560581b81522092604051918291602083526020830190613bf4565b0390a260ff60195460e81c16806149e2575b6149d35784905b6001600160a01b0385168752600c602052604087205460ff1615806149b3575b80614993575b80614973575b6148c5575b6018546001600160a01b031680151591826148a4575b82614883575b5081614806575b50156147ba575060208261470c9260018060a01b0360185416885260138352604088206146be838254613e2c565b90556018546040518381526001600160a01b0391821692918391908916905f516020615be55f395f51905f52908790a388604051809681958294637b2d6db360e01b84528b60048501614427565b03925af180156147af579084929161477c575b505b116147685790829161433f93506040519061473d604083613b94565b60088252673a3930b739b332b960c11b602083015260405193614761602086613b94565b8452615683565b634e487b7160e01b83526001600452602483fd5b6020809293503d83116147a8575b6147948183613b94565b810103126147a45782905f61471f565b8380fd5b503d61478a565b6040513d87823e3d90fd5b919060018060a01b03168086526013602052604086206147db838254613e2c565b90556040518281526001600160a01b038516905f516020615be55f395f51905f5290602090a3614721565b60405163e6c5c06560e01b81526001600160a01b0387166004820152925060209150829060249082905afa908115614878579085918791614849575b505f614690565b61486b915060203d602011614871575b6148638183613b94565b810190614487565b5f614842565b503d614859565b6040513d88823e3d90fd5b6001600160a01b03168852601e602052604088205460ff161591505f614689565b6001600160a01b0387168952601e602052604089205460ff16159250614683565b6001600160a01b0385168752600a60205260408720548015908115614941575b50614914575b6001600160a01b0385168752600960205260408720805461490d908690613e2c565b905561466d565b6001600160a01b038516808852600960209081526040808a208a9055918952600a905287204290556148eb565b809293506201518091500180911161495f579085914210155f6148e5565b634e487b7160e01b87526011600452602487fd5b506001600160a01b0381168752601e602052604087205460ff1615614668565b506001600160a01b0385168752601e602052604087205460ff1615614662565b506001600160a01b0383168752600c602052604087205460ff161561465c565b63d30e92c760e01b8652600486fd5b506149eb613fbb565b15614635565b8a614a0584614a00878a613e2c565b613e2c565b11614f08576001600160a01b03811680614eca575b6001600160a01b0383169586614e71575b6001600160a01b0381168015908115614e3a575b5088614d90575b505084614d1a575b83614bcc575b8615158715614bc3575b8015614bba575b614b29575b50506017546001600160a01b031694505050823b159150614b259050579086808088946024604051809581936329a7724f60e21b83528960048401525af19182614b08575b5050614b0357614abd614449565b5f516020615b455f395f51905f52614afb600c6040516b7265636f7264566f6c756d6560a01b81522092604051918291602083526020830190613bf4565b0390a261463c565b61463c565b819293945090614b1791613b94565b614b2557908591875f614aaf565b8680fd5b614bb457506020546001600160a01b0316935b614bae57506020546001600160a01b0316915b6040805195865260208601919091528401526001600160a01b03908116606084015290811691838216918716907f83f1070d5154c1ec6e9f656f98b1b6761035814eeba41c9ace66fd53f501e35c90608090a45f808080808080614a6a565b91614b4f565b93614b3c565b50831515614a65565b50841515614a5e565b85614d14576022546001600160a01b03168015614d02575b6001600160a01b0316998a15614cf35784614c3e918c8e815f52601360205260405f20614c12858254613e2c565b90556040518481526001600160a01b03909116905f516020615be55f395f51905f5290602090a3613d58565b602254909a906001600160a01b03168114614c5a575b50614a54565b803b156107af575f8091602460405180948193630969acb360e01b83528a60048401525af19081614cde575b50614cd957614c93614449565b5f516020615b455f395f51905f52614ccf600a604051697265636569766546656560b01b81522092604051918291602083526020830190613bf4565b0390a25b5f614c54565b614cd3565b614ceb919e505f90613b94565b5f9c5f614c86565b63cd30796960e01b5f5260045ffd5b506020546001600160a01b0316614be4565b82614be4565b9889614d8a576020546001600160a01b03165b6001600160a01b03168015614cf357614d84918187925f52601360205260405f20614d59848254613e2c565b90556040518381526001600160a01b038f16905f516020615be55f395f51905f5290602090a3613d58565b98614a4e565b81614d2d565b919a509015614e3557505f5b6001600160a01b031680614df35750614db786601254613d58565b6012556040518681525f906001600160a01b038c16905f516020615be55f395f51905f5290602090a35b614deb868c613d58565b985f80614a46565b805f52601360205260405f20614e0a888254613e2c565b90556040518781526001600160a01b038c16905f516020615be55f395f51905f5290602090a3614de1565b614d9c565b6020546001600160a01b03168114159081614e5b575b50614cf3575f614a3f565b6021546001600160a01b0316141590505f614e50565b6020546001600160a01b031687141580614eb5575b80614ea0575b15614a2b5763cd30796960e01b5f5260045ffd5b506022546001600160a01b0316871415614e8c565b506021546001600160a01b0316871415614e86565b6021546001600160a01b031681141580614ef3575b15614a1a5763cd30796960e01b5f5260045ffd5b506020546001600160a01b0316811415614edf565b635c9cfb6b60e11b5f5260045ffd5b965094505050505060c0823d60c011614f80575b81614f3860c09383613b94565b810103126107af578151602083015192604081015191614f5a60608301614413565b91614f7360a0614f6c60808401614413565b9201614413565b919593929091945f6145c9565b3d9150614f2b565b905060ff60195460e81c1680614fc2575b614fa4575b5061463c565b909150614fb35784905f614f9e565b63d30e92c760e01b5f5260045ffd5b50614fcb613fbb565b15614f99565b506001600160a01b0387165f908152601e602052604090205460ff168015614ffa575b1561457e565b506001600160a01b0383165f908152601e602052604090205460ff16614ff4565b50615024613fbb565b15614578565b90615159575b8015615138575b8015615129575b801561511a575b6001600160a01b038316801591908215615105575b82156150f0575b82156150d8575b82156150c0575b5081156150af575b811561509e575b1561508f571561508f575f80614527565b63cd0d8b2160e01b5f5260045ffd5b90506150a9836158fb565b9061507e565b90506150ba82615a1f565b90615077565b5f908152601f602052604081205460ff16925061506f565b8092505f52601e60205260ff60405f20541691615068565b6021546001600160a01b031681149250615061565b6020546001600160a01b03168114925061505a565b50615124836158fb565b615045565b5061513383615a1f565b61503e565b506001600160a01b0383165f908152601f602052604090205460ff16615037565b506001600160a01b0383165f908152601e602052604090205460ff16615030565b506015546001600160a01b03161515614522565b60175486906001600160a01b03161515806153b1575b80615367575b615339575b600554801515908161532f575b5061532057600654806152e8575b506001600160a01b0386165f908152600a602052604090205480159081156152d0575b506007549182615288575b5050506008548061520a575b50614513565b6001600160a01b0386165f908152600b60205260409020541515908161525e575b5061524f576001600160a01b0385165f908152600b60205260408120429055615204565b6301249b7160e01b5f5260045ffd5b6001600160a01b0387165f908152600b60205260409020546152809250613e2c565b42105f61522b565b61529791156152b3575f613e2c565b116152a4575f80806151f8565b639ad5c1c760e01b5f5260045ffd5b6001600160a01b0388165f90815260096020526040902054613e2c565b9050620151808101809111610b15574210155f6151ed565b60018060a01b0385165f5260136020526153068260405f2054613e2c565b11615311575f6151ca565b63f5cec06760e01b5f5260045ffd5b631ae2df0760e01b5f5260045ffd5b905087115f6151bc565b506153458684876157dd565b905f036151af575061251c860286810461251c03610b155761271090046151af565b506001600160a01b0386165f908152601e602052604090205460ff168015615390575b156151aa565b506001600160a01b0384165f908152601e602052604090205460ff1661538a565b506153ba613fbb565b156151a4565b506001600160a01b0384165f908152601e602052604090205460ff161561450e565b506001600160a01b0385165f908152601e602052604090205460ff1615614508565b506001600160a01b0383165f908152600c602052604090205460ff1615614502565b61542f846158b9565b1580615569575b80615547575b156144e057915061544c836158fb565b15615479575b61545b83615994565b916001600160a01b0383166144e05763cd0d8b2160e01b5f5260045ffd5b60155460405163e01fd21560e01b81526001600160a01b0385811660048301529091602091839160249183915f91165af15f918161550b575b506154c65763cd0d8b2160e01b5f5260045ffd5b615506906040516154d8604082613b94565b60128152711d985d5b1d17d85d5d1bd7d8dc99585d195960721b602082015260405191610924602084613b94565b615452565b9091506020813d60201161553f575b8161552760209383613b94565b810103126107af5761553890614413565b905f6154b2565b3d915061551a565b506001600160a01b0384165f908152601f602052604090205460ff161561543c565b506001600160a01b0384165f908152601e602052604090205460ff1615615436565b506015546001600160a01b031615156144db565b506001600160a01b038316156144c0565b6016546001600160a01b0316806155c8575b50505050565b803b156107af57604051630303c28760e61b81526001600160a01b039092166004830181905260806024840152935f91839182908490829061562990615611608484018b613bf4565b90846044850152600319848303016064850152613bf4565b03925af19081615673575b5061566c5761565f5f516020615ba55f395f51905f5291604051918291602083526020830190613bf4565b0390a25b5f8080806155c2565b5050615663565b5f61567d91613b94565b5f615634565b60165491926001600160a01b0390921691826156a1575b5050505050565b823b156107af576156fc925f9283604051809681958294630303c28760e61b845260018060a01b03169a8b6004850152608060248501526156e5608485018c613bf4565b916044850152600319848303016064850152613bf4565b03925af19081615747575b50615740576157325f516020615ba55f395f51905f5291604051918291602083526020830190613bf4565b0390a25b5f8080808061569a565b5050615736565b5f61575191613b94565b5f615707565b60195460ff8160f01c16806157d2575b806157c6575b6157b1575b50601b5460ff8116806157a6575b8061579a575b61578d5750565b60ff1916601b555f601c55565b50601c54421015615786565b50601c541515615780565b60ff60f01b19166019555f601a819055615772565b50601a5442101561576d565b50601a541515615767565b5f916157e98392615a87565b8461582860018060a01b03601754169361581a604051938492602084019663252f15f560e01b885260248501614427565b03601f198101835282613b94565b51915afa615834614449565b901580156158ae575b6158a65760c0818051810103126107af5780614a00602061589193015160408301519061588b60c060608601519561587760808201614413565b5061588460a08201614413565b5001614413565b50613e2c565b8181116158a6576158a191613d58565b600191565b50505f905f90565b5060c081511061583d565b803b6158f5573f80151590816158cd575090565b7fc5d2460186f7233c927e7db2dcc703c0e500b653ca82273b7bfad8045d85a4709150141590565b50600190565b6015546001600160a01b0316908115613fb557604051630709df4560e01b81526001600160a01b03909116600482015290602090829060249082905afa5f9181615958575b5061594a57505f90565b6001600160a01b0316151590565b9091506020813d60201161598c575b8161597460209383613b94565b810103126107af5761598590614413565b905f615940565b3d9150615967565b6015546001600160a01b0316908115613fb557604051630709df4560e01b81526001600160a01b03909116600482015290602090829060249082905afa5f91816159e3575b50613fad57505f90565b9091506020813d602011615a17575b816159ff60209383613b94565b810103126107af57615a1090614413565b905f6159d9565b3d91506159f2565b6015546001600160a01b0316908115613fb55760405163652b9b4160e01b81526001600160a01b03909116600482015290602090829060249082905afa5f9181615a6d5750613fad57505f90565b615a1091925060203d602011614871576148638183613b94565b6015549091906001600160a01b03168281158015615b34575b615b2f57604051632724fe0960e01b81526001600160a01b03909116600482015290602090829060249082905afa5f9181615af3575b50615ade5750565b6001600160a01b038116615aef5750565b9150565b9091506020813d602011615b27575b81615b0f60209383613b94565b810103126107af57615b2090614413565b905f615ad6565b3d9150615b02565b925050565b50615b3e81615a1f565b15615aa056feb1655f58509a3ae61df89430ce89fa569f83ba6963815ecce4d4c0b61b84368304593f08e7dc4a4b3442a0009dff46944620bf6c71bde4a1fa3724b7d6bfe09ef7541078bf6bcb57ff7c5267ecaee154e0b32b0aeddf83261612dd858ef0891bb7abea003d08339a2c4d36bd01b90b5b76431bac7c6c595dc24199b7118039bc8be0079c531659141344cd1fd0a4f28419497f9722a3daafe3b4186f6b6457e0ddf252ad1be2c89b69c2b068fc378daa952ba7f163c4a11628f55a4df523b3ef6e71edae12b1b97f4d1f60370fef10105fa2faae0126114a169c64845d6126c9a164736f6c634300081e000ab7abea003d08339a2c4d36bd01b90b5b76431bac7c6c595dc24199b7118039bcddf252ad1be2c89b69c2b068fc378daa952ba7f163c4a11628f55a4df523b3ef",
  "linkReferences": {},
  "deployedLinkReferences": {},
  "immutableReferences": {},
  "inputSourceName": "project/contracts/VFIDEToken.sol",
  "buildInfoId": "solc-0_8_30-29c96e42903a678637af5dc4d0af6c2431cf4da3"
}