{"abi":[{"type":"constructor","inputs":[{"name":"_revert","type":"bool","internalType":"bool"}],"stateMutability":"nonpayable"},{"type":"function","name":"logEvent","inputs":[{"name":"who","type":"address","internalType":"address"},{"name":"action","type":"string","internalType":"string"},{"name":"amount","type":"uint256","internalType":"uint256"},{"name":"note","type":"string","internalType":"string"}],"outputs":[],"stateMutability":"nonpayable"},{"type":"function","name":"logSystemEvent","inputs":[{"name":"who","type":"address","internalType":"address"},{"name":"action","type":"string","internalType":"string"},{"name":"by","type":"address","internalType":"address"}],"outputs":[],"stateMutability":"nonpayable"},{"type":"function","name":"setRevert","inputs":[{"name":"v","type":"bool","internalType":"bool"}],"outputs":[],"stateMutability":"nonpayable"},{"type":"function","name":"willRevert","inputs":[],"outputs":[{"name":"","type":"bool","internalType":"bool"}],"stateMutability":"view"},{"type":"event","name":"Logged","inputs":[{"name":"who","type":"address","indexed":false,"internalType":"address"},{"name":"action","type":"string","indexed":false,"internalType":"string"},{"name":"amount","type":"uint256","indexed":false,"internalType":"uint256"},{"name":"note","type":"string","indexed":false,"internalType":"string"}],"anonymous":false},{"type":"event","name":"LoggedSystem","inputs":[{"name":"who","type":"address","indexed":false,"internalType":"address"},{"name":"action","type":"string","indexed":false,"internalType":"string"},{"name":"by","type":"address","indexed":false,"internalType":"address"}],"anonymous":false}],"bytecode":{"object":"0x608034606057601f61035538819003918201601f19168301916001600160401b038311848410176064578084926020946040528339810103126060575180151580910360605760ff80195f54169116175f556040516102dc90816100798239f35b5f80fd5b634e487b7160e01b5f52604160045260245ffdfe6080806040526004361015610012575f80fd5b5f3560e01c90816373ee93b314610224575080638fb5f171146101f6578063c0f0a1c01461012b5763f77586ac14610048575f80fd5b3461012757606036600319011261012757610061610242565b60243567ffffffffffffffff811161012757610081903690600401610258565b90916044356001600160a01b038116908190036101275760ff5f54166100f2576100e77faf31fee314bdfe3c5aff0fc8c9dcc6ef992809a54c0329ad97c1d9ff78a652129460405194859460018060a01b03168552606060208601526060850191610286565b9060408301520390a1005b60405162461bcd60e51b815260206004820152600d60248201526c1b195919d95c881c995d995c9d609a1b6044820152606490fd5b5f80fd5b3461012757608036600319011261012757610144610242565b60243567ffffffffffffffff811161012757610164903690600401610258565b909160643567ffffffffffffffff811161012757610186903690600401610258565b939060ff5f54166100f2577f5fe34677c587614384b8d09d87daff4621857247c39f517fb8a5e40c142bb731946101db6101f19360405196879660018060a01b03168752608060208801526080870191610286565b9160443560408601528483036060860152610286565b0390a1005b34610127576020366003190112610127576004358015158091036101275760ff80195f54169116175f555f80f35b34610127575f3660031901126101275760209060ff5f541615158152f35b600435906001600160a01b038216820361012757565b9181601f840112156101275782359167ffffffffffffffff8311610127576020838186019501011161012757565b908060209392818452848401375f828201840152601f01601f191601019056fea26469706673582212203f6139d89bd6c904db81bfa66bd9d915d241d6afeba761f574340a1aee02cd0264736f6c634300081e0033","linkReferences":{}},"methodIdentifiers":{"logEvent(address,string,uint256,string)":"c0f0a1c0","logSystemEvent(address,string,address)":"f77586ac","setRevert(bool)":"8fb5f171","willRevert()":"73ee93b3"},"id":75}