{"abi":[{"type":"constructor","inputs":[{"name":"_vaultRegistry","type":"address","internalType":"address"},{"name":"_vaultHub","type":"address","internalType":"address"},{"name":"_vfideToken","type":"address","internalType":"address"}],"stateMutability":"nonpayable"},{"type":"function","name":"FAILED_ATTEMPT_LIMIT","inputs":[],"outputs":[{"name":"","type":"uint256","internalType":"uint256"}],"stateMutability":"view"},{"type":"function","name":"GUARDIAN_ALERT_WINDOW","inputs":[],"outputs":[{"name":"","type":"uint256","internalType":"uint256"}],"stateMutability":"view"},{"type":"function","name":"LOCKOUT_DURATION","inputs":[],"outputs":[{"name":"","type":"uint256","internalType":"uint256"}],"stateMutability":"view"},{"type":"function","name":"MAX_SEARCHES_PER_DAY","inputs":[],"outputs":[{"name":"","type":"uint256","internalType":"uint256"}],"stateMutability":"view"},{"type":"function","name":"MAX_SEARCHES_PER_HOUR","inputs":[],"outputs":[{"name":"","type":"uint256","internalType":"uint256"}],"stateMutability":"view"},{"type":"function","name":"MIN_STAKE_AMOUNT","inputs":[],"outputs":[{"name":"","type":"uint256","internalType":"uint256"}],"stateMutability":"view"},{"type":"function","name":"SEARCH_COOLDOWN","inputs":[],"outputs":[{"name":"","type":"uint256","internalType":"uint256"}],"stateMutability":"view"},{"type":"function","name":"VERIFICATION_EXPIRY","inputs":[],"outputs":[{"name":"","type":"uint256","internalType":"uint256"}],"stateMutability":"view"},{"type":"function","name":"acknowledgeAlert","inputs":[{"name":"vault","type":"address","internalType":"address"},{"name":"alertIndex","type":"uint256","internalType":"uint256"}],"outputs":[],"stateMutability":"nonpayable"},{"type":"function","name":"activeSessionForSearcher","inputs":[{"name":"","type":"address","internalType":"address"}],"outputs":[{"name":"","type":"bytes32","internalType":"bytes32"}],"stateMutability":"view"},{"type":"function","name":"canSearch","inputs":[{"name":"searcher","type":"address","internalType":"address"}],"outputs":[{"name":"allowed","type":"bool","internalType":"bool"},{"name":"reason","type":"string","internalType":"string"}],"stateMutability":"view"},{"type":"function","name":"claimStakes","inputs":[{"name":"","type":"bytes32","internalType":"bytes32"}],"outputs":[{"name":"staker","type":"address","internalType":"address"},{"name":"vault","type":"address","internalType":"address"},{"name":"amount","type":"uint256","internalType":"uint256"},{"name":"stakedAt","type":"uint64","internalType":"uint64"},{"name":"slashed","type":"bool","internalType":"bool"},{"name":"refunded","type":"bool","internalType":"bool"}],"stateMutability":"view"},{"type":"function","name":"clearLockout","inputs":[{"name":"user","type":"address","internalType":"address"}],"outputs":[],"stateMutability":"nonpayable"},{"type":"function","name":"completeVerification","inputs":[{"name":"sessionId","type":"bytes32","internalType":"bytes32"},{"name":"recoveryIdProof","type":"bytes32","internalType":"bytes32"}],"outputs":[{"name":"success","type":"bool","internalType":"bool"},{"name":"vault","type":"address","internalType":"address"}],"stateMutability":"nonpayable"},{"type":"function","name":"depositClaimStake","inputs":[{"name":"vault","type":"address","internalType":"address"},{"name":"amount","type":"uint256","internalType":"uint256"}],"outputs":[{"name":"stakeId","type":"bytes32","internalType":"bytes32"}],"stateMutability":"nonpayable"},{"type":"function","name":"elevateVerification","inputs":[{"name":"sessionId","type":"bytes32","internalType":"bytes32"},{"name":"newLevel","type":"uint8","internalType":"uint8"},{"name":"","type":"bytes","internalType":"bytes"}],"outputs":[],"stateMutability":"nonpayable"},{"type":"function","name":"getMaskedVaultInfo","inputs":[{"name":"vault","type":"address","internalType":"address"},{"name":"sessionId","type":"bytes32","internalType":"bytes32"}],"outputs":[{"name":"exists","type":"bool","internalType":"bool"},{"name":"proofScoreRange","type":"uint256","internalType":"uint256"},{"name":"badgeCountRange","type":"uint256","internalType":"uint256"},{"name":"hasGuardians","type":"bool","internalType":"bool"},{"name":"lastActiveRange","type":"uint256","internalType":"uint256"}],"stateMutability":"view"},{"type":"function","name":"getVaultAlerts","inputs":[{"name":"vault","type":"address","internalType":"address"}],"outputs":[{"name":"","type":"tuple[]","internalType":"struct VaultRecoverySecurity.GuardianAlert[]","components":[{"name":"vault","type":"address","internalType":"address"},{"name":"searcher","type":"address","internalType":"address"},{"name":"alertedAt","type":"uint64","internalType":"uint64"},{"name":"acknowledged","type":"bool","internalType":"bool"}]}],"stateMutability":"view"},{"type":"function","name":"guardianAlerts","inputs":[{"name":"","type":"address","internalType":"address"},{"name":"","type":"uint256","internalType":"uint256"}],"outputs":[{"name":"vault","type":"address","internalType":"address"},{"name":"searcher","type":"address","internalType":"address"},{"name":"alertedAt","type":"uint64","internalType":"uint64"},{"name":"acknowledged","type":"bool","internalType":"bool"}],"stateMutability":"view"},{"type":"function","name":"hasVerifiedAccess","inputs":[{"name":"searcher","type":"address","internalType":"address"},{"name":"vault","type":"address","internalType":"address"}],"outputs":[{"name":"","type":"bool","internalType":"bool"}],"stateMutability":"view"},{"type":"function","name":"initiateSecureSearch","inputs":[{"name":"recoveryId","type":"string","internalType":"string"}],"outputs":[{"name":"sessionId","type":"bytes32","internalType":"bytes32"},{"name":"vaultFound","type":"bool","internalType":"bool"}],"stateMutability":"nonpayable"},{"type":"function","name":"owner","inputs":[],"outputs":[{"name":"","type":"address","internalType":"address"}],"stateMutability":"view"},{"type":"function","name":"pendingAlertsCount","inputs":[{"name":"","type":"address","internalType":"address"}],"outputs":[{"name":"","type":"uint256","internalType":"uint256"}],"stateMutability":"view"},{"type":"function","name":"refundStake","inputs":[{"name":"stakeId","type":"bytes32","internalType":"bytes32"}],"outputs":[],"stateMutability":"nonpayable"},{"type":"function","name":"renounceOwnership","inputs":[],"outputs":[],"stateMutability":"nonpayable"},{"type":"function","name":"searchAccessExpiry","inputs":[{"name":"","type":"address","internalType":"address"},{"name":"","type":"address","internalType":"address"}],"outputs":[{"name":"","type":"uint64","internalType":"uint64"}],"stateMutability":"view"},{"type":"function","name":"searchStats","inputs":[{"name":"","type":"address","internalType":"address"}],"outputs":[{"name":"lastSearchTime","type":"uint64","internalType":"uint64"},{"name":"searchesThisHour","type":"uint16","internalType":"uint16"},{"name":"searchesToday","type":"uint16","internalType":"uint16"},{"name":"hourResetTime","type":"uint64","internalType":"uint64"},{"name":"dayResetTime","type":"uint64","internalType":"uint64"},{"name":"failedAttempts","type":"uint8","internalType":"uint8"},{"name":"lockoutUntil","type":"uint64","internalType":"uint64"}],"stateMutability":"view"},{"type":"function","name":"sessions","inputs":[{"name":"","type":"bytes32","internalType":"bytes32"}],"outputs":[{"name":"searcher","type":"address","internalType":"address"},{"name":"targetVault","type":"address","internalType":"address"},{"name":"challengeHash","type":"bytes32","internalType":"bytes32"},{"name":"createdAt","type":"uint64","internalType":"uint64"},{"name":"expiresAt","type":"uint64","internalType":"uint64"},{"name":"verified","type":"bool","internalType":"bool"},{"name":"verificationLevel","type":"uint8","internalType":"uint8"}],"stateMutability":"view"},{"type":"function","name":"setTrustedVerifier","inputs":[{"name":"verifier","type":"address","internalType":"address"},{"name":"trusted","type":"bool","internalType":"bool"}],"outputs":[],"stateMutability":"nonpayable"},{"type":"function","name":"setVaultHub","inputs":[{"name":"_vaultHub","type":"address","internalType":"address"}],"outputs":[],"stateMutability":"nonpayable"},{"type":"function","name":"setVaultRegistry","inputs":[{"name":"_vaultRegistry","type":"address","internalType":"address"}],"outputs":[],"stateMutability":"nonpayable"},{"type":"function","name":"slashStake","inputs":[{"name":"stakeId","type":"bytes32","internalType":"bytes32"},{"name":"reason","type":"string","internalType":"string"}],"outputs":[],"stateMutability":"nonpayable"},{"type":"function","name":"totalSlashedStakes","inputs":[],"outputs":[{"name":"","type":"uint256","internalType":"uint256"}],"stateMutability":"view"},{"type":"function","name":"transferOwnership","inputs":[{"name":"newOwner","type":"address","internalType":"address"}],"outputs":[],"stateMutability":"nonpayable"},{"type":"function","name":"trustedVerifier","inputs":[{"name":"","type":"address","internalType":"address"}],"outputs":[{"name":"","type":"bool","internalType":"bool"}],"stateMutability":"view"},{"type":"function","name":"vaultHub","inputs":[],"outputs":[{"name":"","type":"address","internalType":"contract IVaultInfrastructure"}],"stateMutability":"view"},{"type":"function","name":"vaultRegistry","inputs":[],"outputs":[{"name":"","type":"address","internalType":"contract IVaultRegistry"}],"stateMutability":"view"},{"type":"function","name":"vfideToken","inputs":[],"outputs":[{"name":"","type":"address","internalType":"contract IERC20"}],"stateMutability":"view"},{"type":"function","name":"withdrawSlashedStakes","inputs":[{"name":"to","type":"address","internalType":"address"}],"outputs":[],"stateMutability":"nonpayable"},{"type":"event","name":"AccountLocked","inputs":[{"name":"searcher","type":"address","indexed":true,"internalType":"address"},{"name":"until","type":"uint64","indexed":false,"internalType":"uint64"},{"name":"reason","type":"string","indexed":false,"internalType":"string"}],"anonymous":false},{"type":"event","name":"GuardianAcknowledged","inputs":[{"name":"guardian","type":"address","indexed":true,"internalType":"address"},{"name":"vault","type":"address","indexed":true,"internalType":"address"},{"name":"alertIndex","type":"uint256","indexed":false,"internalType":"uint256"}],"anonymous":false},{"type":"event","name":"GuardianAlerted","inputs":[{"name":"guardian","type":"address","indexed":true,"internalType":"address"},{"name":"vault","type":"address","indexed":true,"internalType":"address"},{"name":"searcher","type":"address","indexed":true,"internalType":"address"}],"anonymous":false},{"type":"event","name":"OwnershipTransferred","inputs":[{"name":"previousOwner","type":"address","indexed":true,"internalType":"address"},{"name":"newOwner","type":"address","indexed":true,"internalType":"address"}],"anonymous":false},{"type":"event","name":"SearchAccessGranted","inputs":[{"name":"searcher","type":"address","indexed":true,"internalType":"address"},{"name":"vault","type":"address","indexed":true,"internalType":"address"},{"name":"expiresAt","type":"uint64","indexed":false,"internalType":"uint64"}],"anonymous":false},{"type":"event","name":"SearchAttempt","inputs":[{"name":"searcher","type":"address","indexed":true,"internalType":"address"},{"name":"searchHash","type":"bytes32","indexed":true,"internalType":"bytes32"},{"name":"success","type":"bool","indexed":false,"internalType":"bool"},{"name":"timestamp","type":"uint64","indexed":false,"internalType":"uint64"}],"anonymous":false},{"type":"event","name":"SearchLimitExceeded","inputs":[{"name":"searcher","type":"address","indexed":true,"internalType":"address"},{"name":"reason","type":"string","indexed":false,"internalType":"string"}],"anonymous":false},{"type":"event","name":"StakeDeposited","inputs":[{"name":"staker","type":"address","indexed":true,"internalType":"address"},{"name":"vault","type":"address","indexed":true,"internalType":"address"},{"name":"amount","type":"uint256","indexed":false,"internalType":"uint256"}],"anonymous":false},{"type":"event","name":"StakeRefunded","inputs":[{"name":"staker","type":"address","indexed":true,"internalType":"address"},{"name":"vault","type":"address","indexed":true,"internalType":"address"},{"name":"amount","type":"uint256","indexed":false,"internalType":"uint256"}],"anonymous":false},{"type":"event","name":"StakeSlashed","inputs":[{"name":"staker","type":"address","indexed":true,"internalType":"address"},{"name":"vault","type":"address","indexed":true,"internalType":"address"},{"name":"amount","type":"uint256","indexed":false,"internalType":"uint256"},{"name":"reason","type":"string","indexed":false,"internalType":"string"}],"anonymous":false},{"type":"event","name":"VerificationCompleted","inputs":[{"name":"sessionId","type":"bytes32","indexed":true,"internalType":"bytes32"},{"name":"searcher","type":"address","indexed":true,"internalType":"address"},{"name":"level","type":"uint8","indexed":false,"internalType":"uint8"}],"anonymous":false},{"type":"event","name":"VerificationFailed","inputs":[{"name":"sessionId","type":"bytes32","indexed":true,"internalType":"bytes32"},{"name":"searcher","type":"address","indexed":true,"internalType":"address"},{"name":"reason","type":"string","indexed":false,"internalType":"string"}],"anonymous":false},{"type":"event","name":"VerificationSessionCreated","inputs":[{"name":"sessionId","type":"bytes32","indexed":true,"internalType":"bytes32"},{"name":"searcher","type":"address","indexed":true,"internalType":"address"},{"name":"vault","type":"address","indexed":true,"internalType":"address"}],"anonymous":false},{"type":"error","name":"AccountIsLocked","inputs":[]},{"type":"error","name":"CooldownActive","inputs":[]},{"type":"error","name":"InsufficientStake","inputs":[]},{"type":"error","name":"InvalidVault","inputs":[]},{"type":"error","name":"NotTrustedVerifier","inputs":[]},{"type":"error","name":"NotVerified","inputs":[]},{"type":"error","name":"OwnableInvalidOwner","inputs":[{"name":"owner","type":"address","internalType":"address"}]},{"type":"error","name":"OwnableUnauthorizedAccount","inputs":[{"name":"account","type":"address","internalType":"address"}]},{"type":"error","name":"RateLimitExceeded","inputs":[]},{"type":"error","name":"ReentrancyGuardReentrantCall","inputs":[]},{"type":"error","name":"SafeERC20FailedOperation","inputs":[{"name":"token","type":"address","internalType":"address"}]},{"type":"error","name":"SessionExpired","inputs":[]},{"type":"error","name":"SessionNotFound","inputs":[]},{"type":"error","name":"StakeAlreadyExists","inputs":[]},{"type":"error","name":"Unauthorized","inputs":[]},{"type":"error","name":"ZeroAddress","inputs":[]}],"bytecode":{"object":"0x60803461014357601f61262738819003918201601f19168301916001600160401b0383118484101761014757808492606094604052833981010312610143576100478161015b565b9061006060406100596020840161015b565b920161015b565b903315610130575f8054336001600160a01b0319821681178355604051959290916001600160a01b0316907f8be0079c531659141344cd1fd0a4f28419497f9722a3daafe3b4186f6b6457e09080a3600180556001600160a01b03168015801561011f575b61011057600280546001600160a01b03199081169290921790556003805482166001600160a01b0393841617905560048054909116929091169190911790556124b790816101708239f35b63d92e233d60e01b5f5260045ffd5b506001600160a01b038216156100c5565b631e4fbdf760e01b5f525f60045260245ffd5b5f80fd5b634e487b7160e01b5f52604160045260245ffd5b51906001600160a01b03821682036101435756fe60806040526004361015610011575f80fd5b5f3560e01c80630452a7fd14611b1a5780630741206e14611ad35780630fa6bf8214611ab85780631062291b14611a3857806324113b1b14611a1b5780632779a3ab1461140a57806327ed7188146113e75780632f9809f114611203578063334749a114611165578063370c0aa71461114a57806344b55135146111065780634d94b96f146110c9578063536599ba1461103c57806354f93e2e14610fe957806365be0aae14610fcc57806368eff5ef14610f945780636dd6e80b14610f6c578063715018a614610f15578063748926f314610dff57806378df0d0114610de25780637dbd283214610d52578063815778a914610d0e5780638da5cb5b14610ce757806399ee97c314610c645780639e0b078914610b0c578063a2f9ef3a14610ab5578063a45538c814610a99578063b8a71eec14610a71578063bb8cd72e14610a56578063c28f00ef14610805578063cb91dd7b146107af578063cccc687114610754578063cdd7b38a1461072c578063dc10d9f71461045b578063ea45ad6c146103fd578063f06a14f3146102a3578063f0d7b3e014610287578063f2fde38b146102025763f68591f5146101c6575f80fd5b346101fe5760203660031901126101fe576001600160a01b036101e7611c7e565b165f526007602052602060405f2054604051908152f35b5f80fd5b346101fe5760203660031901126101fe5761021b611c7e565b6102236121dc565b6001600160a01b03168015610274575f80546001600160a01b03198116831782556001600160a01b0316907f8be0079c531659141344cd1fd0a4f28419497f9722a3daafe3b4186f6b6457e09080a3005b631e4fbdf760e01b5f525f60045260245ffd5b346101fe575f3660031901126101fe576020604051610e108152f35b346101fe5760203660031901126101fe576001600160a01b036102c4611c7e565b165f52600a60205260405f208054906001600160401b0382116103e957604051916102f560208260051b0184611def565b8083526020830180925f5260205f205f915b83831061038e578486604051918291602083019060208452518091526040830191905f5b818110610339575050500390f35b825180516001600160a01b039081168652602082810151909116818701526040808301516001600160401b0316908701526060918201511515918601919091528695506080909401939092019160010161032b565b600260206001926040516103a181611dd4565b848060a01b03865416815260ff85870154868060a01b038116858401526001600160401b038160a01c16604084015260e01c1615156060820152815201920192019190610307565b634e487b7160e01b5f52604160045260245ffd5b346101fe5760403660031901126101fe57610416611c7e565b61041e611c94565b9060018060a01b03165f52600d60205260405f209060018060a01b03165f5260205260206001600160401b0360405f205416604051904211158152f35b346101fe5760403660031901126101fe57610474611c7e565b60243590610480612202565b60035460405163652b9b4160e01b81526001600160a01b0383811660048301819052939260209183916024918391165afa908115610721575f916106e7575b50156106d85768056bc75e2d6310000083106106c957335f52600d60205260405f20825f526020526001600160401b0360405f20541642116106ba5760405160208101913360601b83526001600160601b03199060601b16603482015242604882015260488152610531606882611def565b5190205f818152600860205260409020549091906001600160a01b03166106ab576004546040516323b872dd60e01b602082015233602482015230604482015260648082018690528152610598916001600160a01b0316610593608483611def565b612429565b6040519260c08401938085106001600160401b038611176103e9576040948552338082526020828101858152838801858152426001600160401b03908116606087019081525f6080880181815260a089018281528c835260088852918d9020985189546001600160a01b03199081166001600160a01b03928316178b55965160018b018054909816911617909555925160028801555160039690960180549351925169ffffffffffffffffffff199094169690911695909517901515891b60ff60401b161790151560481b69ff0000000000000000001617909255945191825293907f1e03c26d94af639bd12f809b6de778a4b3a706c18be7781dd34ede967c658e21908590a360018055604051908152f35b6336c9ceb960e01b5f5260045ffd5b63a95362b560e01b5f5260045ffd5b6378de4a6960e11b5f5260045ffd5b630681d31960e51b5f5260045ffd5b90506020813d602011610719575b8161070260209383611def565b810103126101fe5761071390611e24565b846104bf565b3d91506106f5565b6040513d5f823e3d90fd5b346101fe575f3660031901126101fe576002546040516001600160a01b039091168152602090f35b346101fe5760403660031901126101fe5761076d611c7e565b610775611c94565b9060018060a01b03165f52600d60205260405f209060018060a01b03165f5260205260206001600160401b0360405f205416604051908152f35b346101fe5760203660031901126101fe576107c8611c7e565b6107d06121dc565b6001600160a01b031680156107f6576001600160601b0360a01b60025416176002555f80f35b63d92e233d60e01b5f5260045ffd5b346101fe5760403660031901126101fe5761081e611c7e565b6024355f52600660205260405f2060ff600382015460801c169081610a3c575b50156109f7576002546040516390229af760e01b81526001600160a01b039283166004820152916101209183916024918391165afa908115610721575f5f5f925f9461096f575b50606481101561094357505f915b8061091b57505f905b4203924284116109075760a09362093a808110156108d857505f915b604051936001855260208501526040840152151560608301526080820152f35b62278d008110156108ec57506001916108b8565b6301e1338011156108ff576002916108b8565b6003916108b8565b634e487b7160e01b5f52601160045260245ffd5b6005811161092c575060019061089c565b600a1061093b5760029061089c565b60039061089c565b6101f48110156109565750600191610893565b6103e8111561096757600291610893565b600391610893565b9350505050610120813d82116109ef575b8161098e6101209383611def565b810103126101fe5761099f81611e10565b506109ac60208201611e10565b50606081015190608081015160a0820151926109e46101006109d060c08601611e24565b946109dd60e08201611e24565b5001611e24565b509092919284610885565b3d9150610980565b60405162461bcd60e51b815260206004820152601b60248201527f4e6f7420766572696669656420666f722074686973207661756c7400000000006044820152606490fd5b600101546001600160a01b0383811691161490508261083e565b346101fe575f3660031901126101fe576020604051600a8152f35b346101fe575f3660031901126101fe576004546040516001600160a01b039091168152602090f35b346101fe575f3660031901126101fe57602060405161012c8152f35b346101fe5760203660031901126101fe57610ace611c7e565b610ad66121dc565b6001600160a01b03165f90815260056020526040902060018101805467ffffffffffffffff19169055805460ff60e01b19169055005b346101fe5760603660031901126101fe576004356024359060ff8216918281036101fe576044356001600160401b0381116101fe57610b4f903690600401611c51565b5050335f52600c60205260ff60405f20541615610c55575f82815260066020526040902080549091906001600160a01b031615610c4657600382019160ff835460881c16851180610c3b575b15610c0657825460ff60881b191660889290921b60ff60881b169190911782557ff9ba81969322c7affc981be37ed995c113e7789433723f22b08fed26527993909160209190805460ff60801b1916600160801b179055546040519485526001600160a01b031693a3005b60405162461bcd60e51b815260206004820152600d60248201526c125b9d985b1a59081b195d995b609a1b6044820152606490fd5b506003851115610b9b565b6396c95f8160e01b5f5260045ffd5b630ee24e3760e11b5f5260045ffd5b346101fe5760203660031901126101fe57610c7d611c7e565b610c856121dc565b6009548015610caa575f600955600454610ca892906001600160a01b03166123ec565b005b60405162461bcd60e51b81526020600482015260156024820152744e6f207374616b657320746f20776974686472617760581b6044820152606490fd5b346101fe575f3660031901126101fe575f546040516001600160a01b039091168152602090f35b346101fe5760403660031901126101fe57610d27612202565b6040610d3760243560043561200a565b60018055825191151582526001600160a01b03166020820152f35b346101fe5760203660031901126101fe576004355f52600660205260e060405f2060ff60018060a01b038254169160018060a01b03600182015416906003600282015491015491604051948552602085015260408401526001600160401b03811660608401526001600160401b038160401c166080840152818160801c16151560a084015260881c1660c0820152f35b346101fe575f3660031901126101fe576020604051620151808152f35b346101fe5760203660031901126101fe576004355f90815260086020526040902080546001600160a01b031690610e37821515611cfb565b600381016901000000000000000000815460ff8160401c161580610f06575b610e5f90611d39565b5f546001600160a01b031633148015610eee575b610e7c90611d79565b69ff00000000000000000019161790556004546002820180549093610ea9926001600160a01b03166123ec565b7f3de5408abfad7275ad17503ba8157aa1374d416cb3aa3ae47782c7ae5606b65b602060018060a01b03835416926001808060a01b03910154169354604051908152a3005b50335f908152600c602052604090205460ff16610e73565b50604881901c60ff1615610e56565b346101fe575f3660031901126101fe57610f2d6121dc565b5f80546001600160a01b0319811682556001600160a01b03167f8be0079c531659141344cd1fd0a4f28419497f9722a3daafe3b4186f6b6457e08280a3005b346101fe575f3660031901126101fe576003546040516001600160a01b039091168152602090f35b346101fe5760203660031901126101fe576001600160a01b03610fb5611c7e565b165f52600b602052602060405f2054604051908152f35b346101fe575f3660031901126101fe576020600954604051908152f35b346101fe5760403660031901126101fe57611002611c7e565b602435908115158092036101fe576110186121dc565b60018060a01b03165f52600c60205260405f209060ff801983541691161790555f80f35b346101fe5760403660031901126101fe57611055611c7e565b6001600160a01b03165f908152600a60205260409020805460243591908210156101fe5760809161108591611cce565b50805460019190910154604080516001600160a01b039384168152928216602084015260a082901c6001600160401b03169083015260e01c60ff1615156060820152f35b346101fe5760203660031901126101fe576001600160a01b036110ea611c7e565b165f52600c602052602060ff60405f2054166040519015158152f35b346101fe5760203660031901126101fe57611127611122611c7e565b611e31565b9061114660405192839215158352604060208401526040830190611caa565b0390f35b346101fe575f3660031901126101fe57602060405160058152f35b346101fe5760203660031901126101fe576001600160a01b03611186611c7e565b165f52600560205260e060405f206001600160401b03600182549201541660ff604051926001600160401b038116845261ffff8160401c16602085015261ffff8160501c1660408501526001600160401b038160601c1660608501526001600160401b038160a01c166080850152841c1660a083015260c0820152f35b346101fe5760403660031901126101fe5761121c611c7e565b604051630c68ba2160e01b81523360048201526001600160a01b0390911690602480359190602090829081865afa908115610721575f916113ad575b501561137757815f52600a60205260405f205481101561134257815f52600a60205260016112898260405f20611cce565b5001805460ff8160e01c166113065760ff60e01b1916600160e01b1790555f828152600b60205260409020546112e8575b6040519081527f07d7c58f79b3e25ab4434ecafe4fef47233b9fddeac041f2c0b858213586e0a360203392a3005b815f52600b60205260405f2080548015610907575f190190556112ba565b60405162461bcd60e51b8152602060048201526014602482015273105b1c9958591e481858dadb9bdddb195919d95960621b6044820152606490fd5b60405162461bcd60e51b815260206004820152600d60248201526c092dcecc2d8d2c840d2dcc8caf609b1b6044820152606490fd5b60405162461bcd60e51b815260206004820152600e60248201526d2737ba10309033bab0b93234b0b760911b6044820152606490fd5b90506020813d6020116113df575b816113c860209383611def565b810103126101fe576113d990611e24565b83611258565b3d91506113bb565b346101fe575f3660031901126101fe57602060405168056bc75e2d631000008152f35b346101fe5760203660031901126101fe576004356001600160401b0381116101fe5761143a903690600401611c51565b90611443612202565b5f61144d33611e31565b90156119d157506002546040516328cc671160e01b815260206004820181905290949185906001600160a01b0316818061148b60248201878a611db4565b03915afa938415610721575f94611995575b5060018060a01b03841692831591821593335f52600560205260405f206001600160401b03815460601c16421015611952575b6001600160401b03815460a01c1642101561190d575b6001600160401b034216946001600160401b0386166001600160401b031983541617825561151b61ffff835460401c16612222565b61ffff60401b83549160401b169061ffff60401b191617825561154561ffff835460501c16612222565b825461ffff60501b191660509190911b61ffff60501b16178255156118fd5760ff815460e01c1660ff811461090757815460ff60e01b1916600190910160e090811b60ff60e01b16919091178083556005911c60ff16101561186f575b505b841561180a57505f1943014381116109075760405160208101913360601b83526001600160601b03198960601b166034830152426048830152406068820152606881526115f2608882611def565b5190209460405160208101908385833761161d602080838781018c8382015203018084520182611def565b51902096610e104201918242116109075760405160e08101928184106001600160401b038511176103e9576117698860ff8c60409e8f996001600160401b0380600361177c9a60209d6117c49f523381528d8101958d87526040820190815260608201998a5283608083019616865260a08201965f885260c08301985f8a525f528f6006905260405f209260018060a01b039060018060a01b03905116166001600160601b0360a01b84541617835560018060a01b03905116600183019060018060a01b03166001600160601b0360a01b82541617905551600282015501965116166001600160401b03198654161785555167ffffffffffffffff60401b85549160401b169067ffffffffffffffff60401b19161784555115158354908360801b9060801b16908360801b1916178355511681549060ff60881b9060881b169060ff60881b1916179055565b335f5260078452898b5f20553390612235565b8851938491338a7f6bd258b3d5b65dec753e99dd0236394c401dff0a74574193872c40e584f8764d5f80a48083830196873781015f838201520301601f198101835282611def565b519020908451906001825260208201527ffbdd9f298803b8dbdd1a417f87424cacc821600fe7ab7ec92b2178defc1bb4c0853392a35b6001805582519182526020820152f35b9450604095506118366020875183819483830196873781015f838201520301601f198101835282611def565b519020908451905f825260208201527ffbdd9f298803b8dbdd1a417f87424cacc821600fe7ab7ec92b2178defc1bb4c0853392a36117fa565b620151804201804211610907576001600160401b038060018194019216168219825416178155541660405190815260406020820152601f60408201527f546f6f206d616e79206661696c65642073656172636820617474656d7074730060608201527fcc9139d84ec1abf1eb4cec9f6aa9b39b76317505fd5123f2eac5fafa6a9b194660803392a2876115a2565b805460ff60e01b191690556115a4565b805461ffff60501b191681554262015180810190811061090757815467ffffffffffffffff60a01b191660a09190911b67ffffffffffffffff60a01b161781556114e6565b61ffff60401b198154168155610e10420180421161090757815467ffffffffffffffff60601b191660609190911b67ffffffffffffffff60601b161781556114d0565b9093506020813d6020116119c9575b816119b160209383611def565b810103126101fe576119c290611e10565b928461149d565b3d91506119a4565b7f93a6624330011370fe967b6416001df52c4adf89e4f2e02d32318158a31745fa6040516020815280611a0933946020830190611caa565b0390a263a74c1c5f60e01b5f5260045ffd5b346101fe575f3660031901126101fe5760206040516202a3008152f35b346101fe5760203660031901126101fe576004355f52600860205260c060405f2060ff60018060a01b038254169160018060a01b03600182015416906003600282015491015491604051948552602085015260408401526001600160401b0381166060840152818160401c161515608084015260481c16151560a0820152f35b346101fe575f3660031901126101fe57602060405160038152f35b346101fe5760203660031901126101fe57611aec611c7e565b611af46121dc565b6001600160a01b031680156107f6576001600160601b0360a01b60035416176003555f80f35b346101fe5760403660031901126101fe576024356001600160401b0381116101fe57611b4a903690600401611c51565b906004355f52600860205260405f2090611b6e60018060a01b038354161515611cfb565b60038201600160401b815460ff8160401c161580611c42575b611b9090611d39565b335f52600c60205260ff60405f2054168015611c2f575b611bb090611d79565b60ff60401b19161790556002820192835491600954928301809311610907577f4555cfa47e83a87366e424edcc5d11592258a32a97fbd2e740a60a921d9a69af92600955611c2a60018060a01b03855416946001808060a01b03910154169554916040519384938452604060208501526040840191611db4565b0390a3005b505f546001600160a01b03163314611ba7565b50604881901c60ff1615611b87565b9181601f840112156101fe578235916001600160401b0383116101fe57602083818601950101116101fe57565b600435906001600160a01b03821682036101fe57565b602435906001600160a01b03821682036101fe57565b805180835260209291819084018484015e5f828201840152601f01601f1916010190565b8054821015611ce7575f5260205f209060011b01905f90565b634e487b7160e01b5f52603260045260245ffd5b15611d0257565b60405162461bcd60e51b815260206004820152600f60248201526e14dd185ad9481b9bdd08199bdd5b99608a1b6044820152606490fd5b15611d4057565b60405162461bcd60e51b8152602060048201526011602482015270105b1c9958591e481c1c9bd8d95cdcd959607a1b6044820152606490fd5b15611d8057565b60405162461bcd60e51b815260206004820152600c60248201526b155b985d5d1a1bdc9a5e995960a21b6044820152606490fd5b908060209392818452848401375f828201840152601f01601f1916010190565b608081019081106001600160401b038211176103e957604052565b90601f801991011681019081106001600160401b038211176103e957604052565b51906001600160a01b03821682036101fe57565b519081151582036101fe57565b6001600160a01b03165f90815260056020526040902060018101546060906001600160401b03164210611fb15750546001600160401b03811661012c8101809111610907574210611f68576001600160401b038160601c16421080611f56575b611f18576001600160401b038160a01c1642109081611f04575b50611ec757600190604051611ec1602082611def565b5f815290565b5f90604051611ed7604082611def565b601a81527f4461696c7920736561726368206c696d69742072656163686564000000000000602082015290565b600a915061ffff9060501c1610155f611eab565b505f90604051611f29604082611def565b601b81527f486f75726c7920736561726368206c696d697420726561636865640000000000602082015290565b50600361ffff8260401c161015611e91565b505f90604051611f79606082611def565b602281527f506c656173652077616974206265666f726520736561726368696e672061676160208201526134b760f11b604082015290565b9190505f91611fc36040519182611def565b603181527f4163636f756e742074656d706f726172696c79206c6f636b65642064756520746020820152706f206661696c656420617474656d70747360781b604082015290565b5f818152600660205260409020805491939290916001600160a01b03168015610c465733036121ce5760038201908154906001600160401b038260401c1642116121bf57604051602081019182528660408201526040815261206d606082611def565b51902060028401540361216a5761ffff60801b191661010160801b179055600101546001600160a01b0316916202a3004290810190811061090757335f52600d60205260405f2060018060a01b0385165f526020526001600160401b038060405f209216166001600160401b031982541617905560405190600182527ff9ba81969322c7affc981be37ed995c113e7789433723f22b08fed265279939060203393a3335f52600d60205260405f2060018060a01b0383165f52602052816001600160401b0360405f2054166040519081527f77ba147667bb28577c2bf8fd30c409ce2f05681b84bf79d9a6146974b980234760203392a360019190565b505050906040519060208252600d60208301526c24b73b30b634b210383937b7b360991b60408301527f4501be829b1c48ed881df27b32711a6311db512e37e32e9d9808a8656a4d65cb60603393a35f905f90565b630fe82d2560e11b5f5260045ffd5b6282b42960e81b5f5260045ffd5b5f546001600160a01b031633036121ef57565b63118cdaa760e01b5f523360045260245ffd5b600260015414612213576002600155565b633ee5aeb560e01b5f5260045ffd5b61ffff1661ffff81146109075760010190565b600354604051632724fe0960e01b81526001600160a01b039283166004820181905292909160209183916024918391165afa908115610721575f916123b2575b506001600160a01b0316156123ae576040519161229183611dd4565b8183526001600160a01b03166020808401828152426001600160401b031660408087019182525f60608801818152878252600a90955220805494969294600160401b8110156103e9576122e991600182018155611cce565b91909161239b57915181546001600160a01b0319166001600160a01b039182161782559351600191909101805492516001600160e01b0319909316919094161760a09190911b67ffffffffffffffff60a01b1617825551815460ff60e01b191690151560e01b60ff60e01b161790555f818152600b6020526040902080545f198114610907576001019055807f9acb2895fd42d71d57ab8a8512682f7564e28112a17187c21e788dc1433e724d5f80a4565b634e487b7160e01b5f525f60045260245ffd5b5050565b90506020813d6020116123e4575b816123cd60209383611def565b810103126101fe576123de90611e10565b5f612275565b3d91506123c0565b60405163a9059cbb60e01b60208201526001600160a01b03909216602483015260448083019390935291815261242791610593606483611def565b565b905f602091828151910182855af115610721575f513d61247857506001600160a01b0381163b155b6124585750565b635274afe760e01b5f9081526001600160a01b0391909116600452602490fd5b6001141561245156fea26469706673582212207191489b798857aee6c936d3babf922b0132f4bb7eb4fdcd8ac851d365a1318b64736f6c634300081e0033","linkReferences":{}},"methodIdentifiers":{"FAILED_ATTEMPT_LIMIT()":"370c0aa7","GUARDIAN_ALERT_WINDOW()":"24113b1b","LOCKOUT_DURATION()":"78df0d01","MAX_SEARCHES_PER_DAY()":"bb8cd72e","MAX_SEARCHES_PER_HOUR()":"0fa6bf82","MIN_STAKE_AMOUNT()":"27ed7188","SEARCH_COOLDOWN()":"a45538c8","VERIFICATION_EXPIRY()":"f0d7b3e0","acknowledgeAlert(address,uint256)":"2f9809f1","activeSessionForSearcher(address)":"f68591f5","canSearch(address)":"44b55135","claimStakes(bytes32)":"1062291b","clearLockout(address)":"a2f9ef3a","completeVerification(bytes32,bytes32)":"815778a9","depositClaimStake(address,uint256)":"dc10d9f7","elevateVerification(bytes32,uint8,bytes)":"9e0b0789","getMaskedVaultInfo(address,bytes32)":"c28f00ef","getVaultAlerts(address)":"f06a14f3","guardianAlerts(address,uint256)":"536599ba","hasVerifiedAccess(address,address)":"ea45ad6c","initiateSecureSearch(string)":"2779a3ab","owner()":"8da5cb5b","pendingAlertsCount(address)":"68eff5ef","refundStake(bytes32)":"748926f3","renounceOwnership()":"715018a6","searchAccessExpiry(address,address)":"cccc6871","searchStats(address)":"334749a1","sessions(bytes32)":"7dbd2832","setTrustedVerifier(address,bool)":"54f93e2e","setVaultHub(address)":"0741206e","setVaultRegistry(address)":"cb91dd7b","slashStake(bytes32,string)":"0452a7fd","totalSlashedStakes()":"65be0aae","transferOwnership(address)":"f2fde38b","trustedVerifier(address)":"4d94b96f","vaultHub()":"6dd6e80b","vaultRegistry()":"cdd7b38a","vfideToken()":"b8a71eec","withdrawSlashedStakes(address)":"99ee97c3"},"id":23}