{
  "_format": "hh-sol-artifact-1",
  "contractName": "EscrowManager",
  "sourceName": "contracts/EscrowManager.sol",
  "abi": [
    {
      "inputs": [
        {
          "internalType": "address",
          "name": "_arbiter",
          "type": "address"
        },
        {
          "internalType": "address",
          "name": "_seer",
          "type": "address"
        }
      ],
      "stateMutability": "nonpayable",
      "type": "constructor"
    },
    {
      "anonymous": false,
      "inputs": [
        {
          "indexed": true,
          "internalType": "address",
          "name": "oldArbiter",
          "type": "address"
        },
        {
          "indexed": true,
          "internalType": "address",
          "name": "newArbiter",
          "type": "address"
        }
      ],
      "name": "ArbiterChanged",
      "type": "event"
    },
    {
      "anonymous": false,
      "inputs": [
        {
          "indexed": true,
          "internalType": "uint256",
          "name": "escrowId",
          "type": "uint256"
        },
        {
          "indexed": true,
          "internalType": "address",
          "name": "by",
          "type": "address"
        }
      ],
      "name": "DisputeRaised",
      "type": "event"
    },
    {
      "anonymous": false,
      "inputs": [
        {
          "indexed": true,
          "internalType": "uint256",
          "name": "escrowId",
          "type": "uint256"
        },
        {
          "indexed": true,
          "internalType": "address",
          "name": "winner",
          "type": "address"
        }
      ],
      "name": "DisputeResolved",
      "type": "event"
    },
    {
      "anonymous": false,
      "inputs": [
        {
          "indexed": true,
          "internalType": "uint256",
          "name": "id",
          "type": "uint256"
        },
        {
          "indexed": false,
          "internalType": "uint256",
          "name": "buyerAmount",
          "type": "uint256"
        },
        {
          "indexed": false,
          "internalType": "uint256",
          "name": "merchantAmount",
          "type": "uint256"
        }
      ],
      "name": "DisputeResolvedPartial",
      "type": "event"
    },
    {
      "anonymous": false,
      "inputs": [
        {
          "indexed": true,
          "internalType": "uint256",
          "name": "escrowId",
          "type": "uint256"
        },
        {
          "indexed": true,
          "internalType": "address",
          "name": "buyer",
          "type": "address"
        },
        {
          "indexed": true,
          "internalType": "address",
          "name": "merchant",
          "type": "address"
        },
        {
          "indexed": false,
          "internalType": "uint256",
          "name": "amount",
          "type": "uint256"
        },
        {
          "indexed": false,
          "internalType": "uint256",
          "name": "releaseTime",
          "type": "uint256"
        },
        {
          "indexed": false,
          "internalType": "uint256",
          "name": "lockPeriod",
          "type": "uint256"
        },
        {
          "indexed": false,
          "internalType": "uint256",
          "name": "timestamp",
          "type": "uint256"
        }
      ],
      "name": "EscrowCreated",
      "type": "event"
    },
    {
      "anonymous": false,
      "inputs": [
        {
          "indexed": true,
          "internalType": "uint256",
          "name": "escrowId",
          "type": "uint256"
        },
        {
          "indexed": false,
          "internalType": "uint256",
          "name": "timeRemaining",
          "type": "uint256"
        }
      ],
      "name": "EscrowNearTimeout",
      "type": "event"
    },
    {
      "anonymous": false,
      "inputs": [
        {
          "indexed": true,
          "internalType": "uint256",
          "name": "escrowId",
          "type": "uint256"
        }
      ],
      "name": "EscrowRefunded",
      "type": "event"
    },
    {
      "anonymous": false,
      "inputs": [
        {
          "indexed": true,
          "internalType": "uint256",
          "name": "escrowId",
          "type": "uint256"
        },
        {
          "indexed": true,
          "internalType": "address",
          "name": "to",
          "type": "address"
        }
      ],
      "name": "EscrowReleased",
      "type": "event"
    },
    {
      "inputs": [],
      "name": "ARBITER_TIMELOCK",
      "outputs": [
        {
          "internalType": "uint256",
          "name": "",
          "type": "uint256"
        }
      ],
      "stateMutability": "view",
      "type": "function"
    },
    {
      "inputs": [],
      "name": "HIGH_VALUE_THRESHOLD",
      "outputs": [
        {
          "internalType": "uint256",
          "name": "",
          "type": "uint256"
        }
      ],
      "stateMutability": "view",
      "type": "function"
    },
    {
      "inputs": [],
      "name": "arbiter",
      "outputs": [
        {
          "internalType": "address",
          "name": "",
          "type": "address"
        }
      ],
      "stateMutability": "view",
      "type": "function"
    },
    {
      "inputs": [],
      "name": "arbiterChangeTime",
      "outputs": [
        {
          "internalType": "uint256",
          "name": "",
          "type": "uint256"
        }
      ],
      "stateMutability": "view",
      "type": "function"
    },
    {
      "inputs": [],
      "name": "cancelArbiterChange",
      "outputs": [],
      "stateMutability": "nonpayable",
      "type": "function"
    },
    {
      "inputs": [
        {
          "internalType": "uint256",
          "name": "id",
          "type": "uint256"
        }
      ],
      "name": "checkTimeout",
      "outputs": [
        {
          "internalType": "bool",
          "name": "isNearTimeout",
          "type": "bool"
        },
        {
          "internalType": "uint256",
          "name": "timeRemaining",
          "type": "uint256"
        }
      ],
      "stateMutability": "view",
      "type": "function"
    },
    {
      "inputs": [
        {
          "internalType": "uint256",
          "name": "id",
          "type": "uint256"
        }
      ],
      "name": "claimTimeout",
      "outputs": [],
      "stateMutability": "nonpayable",
      "type": "function"
    },
    {
      "inputs": [
        {
          "internalType": "address",
          "name": "merchant",
          "type": "address"
        },
        {
          "internalType": "address",
          "name": "token",
          "type": "address"
        },
        {
          "internalType": "uint256",
          "name": "amount",
          "type": "uint256"
        },
        {
          "internalType": "string",
          "name": "orderId",
          "type": "string"
        }
      ],
      "name": "createEscrow",
      "outputs": [
        {
          "internalType": "uint256",
          "name": "",
          "type": "uint256"
        }
      ],
      "stateMutability": "nonpayable",
      "type": "function"
    },
    {
      "inputs": [],
      "name": "dao",
      "outputs": [
        {
          "internalType": "address",
          "name": "",
          "type": "address"
        }
      ],
      "stateMutability": "view",
      "type": "function"
    },
    {
      "inputs": [],
      "name": "escrowCount",
      "outputs": [
        {
          "internalType": "uint256",
          "name": "",
          "type": "uint256"
        }
      ],
      "stateMutability": "view",
      "type": "function"
    },
    {
      "inputs": [
        {
          "internalType": "uint256",
          "name": "",
          "type": "uint256"
        }
      ],
      "name": "escrows",
      "outputs": [
        {
          "internalType": "address",
          "name": "buyer",
          "type": "address"
        },
        {
          "internalType": "address",
          "name": "merchant",
          "type": "address"
        },
        {
          "internalType": "address",
          "name": "token",
          "type": "address"
        },
        {
          "internalType": "uint256",
          "name": "amount",
          "type": "uint256"
        },
        {
          "internalType": "uint256",
          "name": "createdAt",
          "type": "uint256"
        },
        {
          "internalType": "uint256",
          "name": "releaseTime",
          "type": "uint256"
        },
        {
          "internalType": "enum EscrowManager.State",
          "name": "state",
          "type": "uint8"
        },
        {
          "internalType": "string",
          "name": "orderId",
          "type": "string"
        }
      ],
      "stateMutability": "view",
      "type": "function"
    },
    {
      "inputs": [],
      "name": "executeArbiterChange",
      "outputs": [],
      "stateMutability": "nonpayable",
      "type": "function"
    },
    {
      "inputs": [
        {
          "internalType": "uint256",
          "name": "id",
          "type": "uint256"
        }
      ],
      "name": "notifyTimeout",
      "outputs": [],
      "stateMutability": "nonpayable",
      "type": "function"
    },
    {
      "inputs": [],
      "name": "pendingArbiter",
      "outputs": [
        {
          "internalType": "address",
          "name": "",
          "type": "address"
        }
      ],
      "stateMutability": "view",
      "type": "function"
    },
    {
      "inputs": [
        {
          "internalType": "address",
          "name": "newArbiter",
          "type": "address"
        }
      ],
      "name": "proposeArbiterChange",
      "outputs": [],
      "stateMutability": "nonpayable",
      "type": "function"
    },
    {
      "inputs": [
        {
          "internalType": "uint256",
          "name": "id",
          "type": "uint256"
        }
      ],
      "name": "raiseDispute",
      "outputs": [],
      "stateMutability": "nonpayable",
      "type": "function"
    },
    {
      "inputs": [
        {
          "internalType": "uint256",
          "name": "id",
          "type": "uint256"
        }
      ],
      "name": "refund",
      "outputs": [],
      "stateMutability": "nonpayable",
      "type": "function"
    },
    {
      "inputs": [
        {
          "internalType": "uint256",
          "name": "id",
          "type": "uint256"
        }
      ],
      "name": "release",
      "outputs": [],
      "stateMutability": "nonpayable",
      "type": "function"
    },
    {
      "inputs": [
        {
          "internalType": "uint256",
          "name": "id",
          "type": "uint256"
        },
        {
          "internalType": "bool",
          "name": "refundBuyer",
          "type": "bool"
        }
      ],
      "name": "resolveDispute",
      "outputs": [],
      "stateMutability": "nonpayable",
      "type": "function"
    },
    {
      "inputs": [
        {
          "internalType": "uint256",
          "name": "id",
          "type": "uint256"
        },
        {
          "internalType": "uint256",
          "name": "buyerShareBps",
          "type": "uint256"
        }
      ],
      "name": "resolveDisputePartial",
      "outputs": [],
      "stateMutability": "nonpayable",
      "type": "function"
    },
    {
      "inputs": [],
      "name": "seer",
      "outputs": [
        {
          "internalType": "contract ISeer",
          "name": "",
          "type": "address"
        }
      ],
      "stateMutability": "view",
      "type": "function"
    },
    {
      "inputs": [
        {
          "internalType": "address",
          "name": "newDAO",
          "type": "address"
        }
      ],
      "name": "setDAO",
      "outputs": [],
      "stateMutability": "nonpayable",
      "type": "function"
    }
  ],
  "bytecode": "0x60803461010657601f611da338819003918201601f19168301916001600160401b0383118484101761010b57808492604094855283398101031261010657610052602061004b83610121565b9201610121565b60016000556001600160a01b0390911690811515806100f4575b156100c057600380546001600160a01b031990811684179091556004805482166001600160a01b039390931692909217909155600580549091169091179055600019600755604051611c6d90816101368239f35b60405162461bcd60e51b815260206004820152600c60248201526b7a65726f206164647265737360a01b6044820152606490fd5b506001600160a01b038116151561006c565b600080fd5b634e487b7160e01b600052604160045260246000fd5b51906001600160a01b03821682036101065756fe608080604052600436101561001357600080fd5b600090813560e01c908163012f52ee146115d657508063278ecde11461151e5780632d55ea39146114f557806334b25ee21461120b57806337bdc99b146110015780634162169f14610fd85780634dd3b23a14610faf5780635329c68114610f8257806354a997eb14610f64578063675ac67a14610f465780637981c8fa14610ef35780637be87b9e1461093657806386e773f114610834578063a5c1674e14610764578063a83d2b66146104a9578063ae90d1fe1461042f578063c72565681461031c578063ca7b64bb146102f7578063dfad4529146101b4578063e73a914c1461015c578063efa232901461013e5763fe25e00a1461011357600080fd5b3461013b578060031936011261013b576003546040516001600160a01b039091168152602090f35b80fd5b503461013b578060031936011261013b57602060405162093a808152f35b503461013b57602036600319011261013b576101766117d3565b6005549061018e336001600160a01b038416146119d1565b6001600160a01b0316906101a3821515611a48565b6001600160a01b0319161760055580f35b503461013b57602036600319011261013b5760043580825260026020526040822060ff60068201541660048110156102e3576102aa57600501548042101561027157610201904290611943565b6201518081116102395760207f41e80128d1173374dae904ff7cbe2fb9f01804d54d69351c3a2c13dab35d34c691604051908152a280f35b60405162461bcd60e51b815260206004820152601060248201526f1b9bdd081b99585c881d1a5b595bdd5d60821b6044820152606490fd5b60405162461bcd60e51b8152602060048201526011602482015270185b1c9958591e481d1a5b5959081bdd5d607a1b6044820152606490fd5b60405162461bcd60e51b8152602060048201526011602482015270657363726f77206e6f742061637469766560781b6044820152606490fd5b634e487b7160e01b84526021600452602484fd5b503461013b578060031936011261013b57602060405169021e19e0c9bab24000008152f35b503461013b578060031936011261013b5761034260018060a01b036005541633146119d1565b6007548042106103f8576006546001600160a01b03811691610365831515611a08565b600019146103bd57600380546001600160a01b0319808216851790925591166006556000196007556001600160a01b03167f8baeb8e9be10c233f000f8215f52a1038a77bc736883d06f9022545ef1ab1a748380a380f35b60405162461bcd60e51b81526020600482015260136024820152721b9bc81c195b991a5b99c81c1c9bdc1bdcd85b606a1b6044820152606490fd5b60405162461bcd60e51b815260206004820152600f60248201526e74696d656c6f636b2061637469766560881b6044820152606490fd5b503461013b57602036600319011261013b576104496117d3565b61045e60018060a01b036005541633146119d1565b6001600160a01b0316610472811515611a48565b60018060a01b0319600654161760065562093a8042018042116104955760075580f35b634e487b7160e01b82526011600452602482fd5b503461013b57604036600319011261013b576004356024356104c9611add565b612710811161072d578183526002602052604083206006810160ff81541660048110156107195760036104fc9114611861565b600382019069021e19e0c9bab24000008254116000146106ec5761053460018060a01b036005541680331490816106e2575b506118da565b600160ff1982541617905554918083029083820414831517156106ce576105616127108692048094611943565b91836106aa575b82610683575b6004546001600160a01b0316806105ba575b5050507f2417ce4a28030011dbe05bd1b3d079cfb40c3f5c0d3e1067e7c5ace3ba00f3579160409182519182526020820152a26001815580f35b81546001600160a01b0316813b1561066257836105f08193829360405194858094819363031879a760e21b835260048301611a9e565b03925af161066a575b5050600454600191909101546001600160a01b039081169116803b156106665760405163031879a760e21b8152918391839182908490829061063e9060048301611a9e565b03925af161064d575b80610580565b816106579161179c565b610662578338610647565b8380fd5b8280fd5b816106749161179c565b61067f5781386105f9565b5080fd5b600281015460018201546106a59185916001600160a01b039081169116611b68565b61056e565b600281015481546106c99186916001600160a01b039081169116611b68565b610568565b634e487b7160e01b85526011600452602485fd5b905015153861052e565b61070a60018060a01b0360035416803314908161070f575b5061189c565b610534565b9050151538610704565b634e487b7160e01b86526021600452602486fd5b60405162461bcd60e51b815260206004820152600f60248201526e45533a20696e76616c69642062707360881b6044820152606490fd5b503461013b57602036600319011261013b5760043580825260026020526040822080546001600160a01b03163314801561081e575b156107ed5760060160ff81541660048110156102e3576107b99015611829565b805460ff1916600317905533907f84a477df8a28a4276ca6dee4458a06c3015f30c477d9c949ede4e13ff8a552b48380a380f35b60405162461bcd60e51b81526020600482015260096024820152686e6f7420706172747960b81b6044820152606490fd5b5060018101546001600160a01b03163314610799565b503461013b57602036600319011261013b57600435610851611add565b808252600260205260408220600181019061087660018060a01b0383541633146117ee565b600681019060ff8254166004811015610719576108939015611829565b6005810154421061090557815460ff1916600117909155600281015482546003909201546108cf9290916001600160a01b039182169116611b68565b546001600160a01b0316907fefc7f1f15becfaec7a3c17eec78be3fa7adb45698f26fcfd25efe1754c2423318380a36001815580f35b60405162461bcd60e51b8152602060048201526009602482015268746f6f206561726c7960b81b6044820152606490fd5b503461013b57608036600319011261013b576109506117d3565b6024356001600160a01b038116929083900361013b576001600160401b036064351161013b5736602360643501121561013b576001600160401b03606435600401351161013b573660246064356004013560643501011161013b576109b3611add565b6001600160a01b038216151580610eea575b6109ce90611a48565b3315610eb05760443515610e7d57808060405160208101906323b872dd60e01b8252336024820152306044820152604435606482015260648152610a1360848261179c565b519082875af1610a21611b20565b81610e4e575b5015610e09576004546212750091906001600160a01b031680610d59575b506001549160001983146104955760018301600155804201804211610d45576040519561010087018781106001600160401b03821117610d315760409081523388526001600160a01b0387166020890152870152604435606087015242608087015260a086015260c08501829052610ac260046064350135611a83565b94610ad0604051968761179c565b606435600481013580885290602401602088013760046064358101358701602090810185905260e083019788526001868101865260028083526040808820865181546001600160a01b03199081166001600160a01b0392831617835595880151948201805487169582169590951790945590860151918101805490941691909216179091556060830151600382015560808301518183015560a0830151600582015560c0909201516006830191811015610d1d57906007929160ff80198354169116179055019451938451956001600160401b038711610d0957610bb48154611762565b601f8111610cc4575b5060209687601f8211600114610c61578190600197988792610c56575b5050600019600383901b1c191690861b1790555b838501835260028652600560408420015491604051926044358452878401526040830152426060830152838060a01b03169033907f2f6495bfe6d502e4955f6e73f157eed0b29d25177d63de7a3246ce38106221b9608086880192a455600160405191018152f35b015190503880610bda565b82865280862097601f198316875b818110610cad5750916001989991848a959410610c94575b505050811b019055610bee565b015160001960f88460031b161c19169055388080610c87565b92998b600181928d8601518155019b019301610c6f565b81855260208520601f890160051c81019160208a10610cff575b601f0160051c01905b818110610cf45750610bbd565b858155600101610ce7565b9091508190610cde565b634e487b7160e01b84526041600452602484fd5b634e487b7160e01b85526021600452602485fd5b634e487b7160e01b85526041600452602485fd5b634e487b7160e01b83526011600452602483fd5b604051630d47875d60e41b81526001600160a01b038516600482015290602090829060249082905afa8015610dfe578290610dbf575b61ffff169050611f408110610dac57506203f48091505b38610a45565b61177011610da65762093a809150610da6565b506020813d602011610df6575b81610dd96020938361179c565b8101031261067f575161ffff8116810361067f5761ffff90610d8f565b3d9150610dcc565b6040513d84823e3d90fd5b60405162461bcd60e51b815260206004820152601e60248201527f5361666545524332303a207472616e7366657246726f6d206661696c656400006044820152606490fd5b8051801592508215610e63575b505038610a27565b610e769250602080918301019101611b50565b3880610e5b565b60405162461bcd60e51b815260206004820152600b60248201526a1e995c9bc8185b5bdd5b9d60aa1b6044820152606490fd5b60405162461bcd60e51b81526020600482015260126024820152716275796572207a65726f206164647265737360701b6044820152606490fd5b508215156109c5565b503461013b578060031936011261013b57610f1960018060a01b036005541633146119d1565b600654610f306001600160a01b0382161515611a08565b6001600160a01b03191660065560001960075580f35b503461013b578060031936011261013b576020600154604051908152f35b503461013b578060031936011261013b576020600754604051908152f35b503461013b57602036600319011261013b576040610fa1600435611966565b825191151582526020820152f35b503461013b578060031936011261013b576006546040516001600160a01b039091168152602090f35b503461013b578060031936011261013b576005546040516001600160a01b039091168152602090f35b503461013b57602036600319011261013b5760043561101e611add565b80825260026020526040822080546001600160a01b031633036111da576006810160ff8154166004811015610d1d576110579015611829565b600160ff198254161790558260018060a01b036002830154169161108e600182019360018060a01b03855416600384015491611b68565b6004546001600160a01b031690816110dc575b505090546001600160a01b03169190507fefc7f1f15becfaec7a3c17eec78be3fa7adb45698f26fcfd25efe1754c2423318380a36001815580f35b546001600160a01b0316813b1561066657829160a483926040519485938492630eccbd3560e11b845260048401526002602484015260606044840152600e60648401526d31b7b6b6b2b931b2afb13abcb2b960911b60848401525af16111c5575b5060045482546001600160a01b039182169116813b1561066657829160a483926040519485938492630eccbd3560e11b845260048401526005602484015260606044840152601160648401527018dbdb5b595c98d957db595c98da185b9d607a1b60848401525af16111b0575b806110a1565b816111ba9161179c565b6106665782386111aa565b816111cf9161179c565b61066657823861113d565b60405162461bcd60e51b81526020600482015260096024820152683737ba10313abcb2b960b91b6044820152606490fd5b503461013b57604036600319011261013b57600435602435801515810361066657611234611add565b8183526002602052604083206006810160ff815416600481101561071957600361125e9114611861565b81546001600160a01b0316331415806114de575b1561149e57600382019269021e19e0c9bab240000084541160001461147c576112ae60018060a01b036005541680331490816106e257506118da565b1561139557805460ff191660029081179091558101548154925491926112e192916001600160a01b039182169116611b68565b60045483906001600160a01b03168061132e575b5050546001600160a01b0316907ff77ceb5e091d2da041bc760667f9d5fe7a756949eaf29250ad0e60ca6f4c27d98380a35b6001815580f35b60018301546001600160a01b0316813b1561066657829060405192839163031879a760e21b83526004830152603260248301526060604483015281838161137760648201611924565b03925af1156112f5578161138a9161179c565b6106665782386112f5565b805460ff1916600190811790915560028201549082018054935490936113c7926001600160a01b039182169116611b68565b6004546001600160a01b031690849082611415575b505090546001600160a01b03169190507ff77ceb5e091d2da041bc760667f9d5fe7a756949eaf29250ad0e60ca6f4c27d98380a3611327565b546001600160a01b0316823b1561067f5760405192839163031879a760e21b83526004830152601460248301526060604483015281838161145860648201611924565b03925af1611468575b83816113dc565b836114759194929461179c565b9138611461565b61149960018060a01b0360035416803314908161070f575061189c565b6112ae565b60405162461bcd60e51b81526020600482015260186024820152771154ce8818dbdb999b1a58dd081bd9881a5b9d195c995cdd60421b6044820152606490fd5b5060018201546001600160a01b0316331415611272565b503461013b578060031936011261013b576004546040516001600160a01b039091168152602090f35b503461013b57602036600319011261013b5760043561153b611add565b80825260026020526040822061155e60018060a01b0360018301541633146117ee565b6006810160ff8154166004811015610d1d579061157f6115ab939215611829565b805460ff191660029081179091558101548154600390920154916001600160a01b039081169116611b68565b7f2babb5cd458b6d41108d6d793a75e29ca524e7caa20e2da6c994462010920a728280a26001815580f35b90503461067f57602036600319011261067f5760043582526002602052604082209160018060a01b038354169260018060a01b0360018201541660018060a01b036002830154166003830154600484015491600585015493600760ff6006880154169601888882549261164884611762565b80845293600181169081156117405750600114611700575b5061166d9250038961179c565b604051988952602089015260408801526060870152608086015260a085015260048110156116ec5790839160c083015261010060e083015282519283610100840152815b8481106116d35750509161012092838284010152601f80199101168101030190f35b60208282018101516101208884010152869450016116b1565b634e487b7160e01b82526021600452602482fd5b8a525060208920909189915b81831061172557505090602061166d9282010138611660565b80602092948385600194549201015201910190918a9261170c565b90506020925061166d94915060ff191682840152151560051b82010138611660565b90600182811c92168015611792575b602083101461177c57565b634e487b7160e01b600052602260045260246000fd5b91607f1691611771565b90601f801991011681019081106001600160401b038211176117bd57604052565b634e487b7160e01b600052604160045260246000fd5b600435906001600160a01b03821682036117e957565b600080fd5b156117f557565b60405162461bcd60e51b815260206004820152600c60248201526b1b9bdd081b595c98da185b9d60a21b6044820152606490fd5b1561183057565b60405162461bcd60e51b815260206004820152600960248201526862616420737461746560b81b6044820152606490fd5b1561186857565b60405162461bcd60e51b815260206004820152600c60248201526b1b9bdd08191a5cdc1d5d195960a21b6044820152606490fd5b156118a357565b60405162461bcd60e51b815260206004820152600f60248201526e22a99d103737ba1030b93134ba32b960891b6044820152606490fd5b156118e157565b60405162461bcd60e51b815260206004820152601b60248201527a45533a20686967682076616c75652072657175697265732044414f60281b6044820152606490fd5b600c81526b191a5cdc1d5d1957db1bdcdd60a21b602082015260400190565b9190820391821161195057565b634e487b7160e01b600052601160045260246000fd5b6000526002602052604060002060ff60068201541660048110156119bb576119b25760050154804210156119a95761199f904290611943565b6201518081111591565b50600190600090565b50600090600090565b634e487b7160e01b600052602160045260246000fd5b156119d857565b60405162461bcd60e51b81526020600482015260086024820152676f6e6c792044414f60c01b6044820152606490fd5b15611a0f57565b60405162461bcd60e51b81526020600482015260116024820152706e6f2070656e64696e67206368616e676560781b6044820152606490fd5b15611a4f57565b60405162461bcd60e51b815260206004820152600c60248201526b7a65726f206164647265737360a01b6044820152606490fd5b6001600160401b0381116117bd57601f01601f191660200190565b6001600160a01b03909116815260056020820152606060408201819052600d908201526c191a5cdc1d5d1957dcdc1b1a5d609a1b608082015260a00190565b600160005403611aee576002600055565b60405162461bcd60e51b815260206004820152600a6024820152697265656e7472616e637960b01b6044820152606490fd5b3d15611b4b573d90611b3182611a83565b91611b3f604051938461179c565b82523d6000602084013e565b606090565b908160209103126117e9575180151581036117e95790565b6000929183809360405190602082019363a9059cbb60e01b855260018060a01b03166024830152604482015260448152611ba360648261179c565b51926001600160a01b03165af1611bb8611b20565b81611c08575b5015611bc657565b60405162461bcd60e51b815260206004820152601a60248201527914d85999515490cc8c0e881d1c985b9cd9995c8819985a5b195960321b6044820152606490fd5b8051801592508215611c1d575b505038611bbe565b611c309250602080918301019101611b50565b3880611c1556fea26469706673582212206c601b28c3c665a98dbb1dfaec792de5aac902b937ea7767fc0591c96036ea7464736f6c634300081e0033",
  "linkReferences": {},
  "deployedLinkReferences": {}
}