{"abi":[{"type":"constructor","inputs":[{"name":"_dao","type":"address","internalType":"address"},{"name":"_token","type":"address","internalType":"address"},{"name":"_treasury","type":"address","internalType":"address"},{"name":"_stablecoinRegistry","type":"address","internalType":"address"},{"name":"_startTime","type":"uint256","internalType":"uint256"}],"stateMutability":"nonpayable"},{"type":"function","name":"BASE_SUPPLY","inputs":[],"outputs":[{"name":"","type":"uint256","internalType":"uint256"}],"stateMutability":"view"},{"type":"function","name":"BONUS_180_DAYS","inputs":[],"outputs":[{"name":"","type":"uint256","internalType":"uint256"}],"stateMutability":"view"},{"type":"function","name":"BONUS_90_DAYS","inputs":[],"outputs":[{"name":"","type":"uint256","internalType":"uint256"}],"stateMutability":"view"},{"type":"function","name":"BONUS_NO_LOCK","inputs":[],"outputs":[{"name":"","type":"uint256","internalType":"uint256"}],"stateMutability":"view"},{"type":"function","name":"BONUS_POOL","inputs":[],"outputs":[{"name":"","type":"uint256","internalType":"uint256"}],"stateMutability":"view"},{"type":"function","name":"DAO","inputs":[],"outputs":[{"name":"","type":"address","internalType":"address"}],"stateMutability":"view"},{"type":"function","name":"ETH_PRICE_STALENESS","inputs":[],"outputs":[{"name":"","type":"uint256","internalType":"uint256"}],"stateMutability":"view"},{"type":"function","name":"IMMEDIATE_180_DAYS","inputs":[],"outputs":[{"name":"","type":"uint256","internalType":"uint256"}],"stateMutability":"view"},{"type":"function","name":"IMMEDIATE_90_DAYS","inputs":[],"outputs":[{"name":"","type":"uint256","internalType":"uint256"}],"stateMutability":"view"},{"type":"function","name":"IMMEDIATE_NO_LOCK","inputs":[],"outputs":[{"name":"","type":"uint256","internalType":"uint256"}],"stateMutability":"view"},{"type":"function","name":"LOCK_180_DAYS","inputs":[],"outputs":[{"name":"","type":"uint256","internalType":"uint256"}],"stateMutability":"view"},{"type":"function","name":"LOCK_90_DAYS","inputs":[],"outputs":[{"name":"","type":"uint256","internalType":"uint256"}],"stateMutability":"view"},{"type":"function","name":"LOCK_NONE","inputs":[],"outputs":[{"name":"","type":"uint256","internalType":"uint256"}],"stateMutability":"view"},{"type":"function","name":"MAX_EXTENSION","inputs":[],"outputs":[{"name":"","type":"uint256","internalType":"uint256"}],"stateMutability":"view"},{"type":"function","name":"MAX_PER_WALLET","inputs":[],"outputs":[{"name":"","type":"uint256","internalType":"uint256"}],"stateMutability":"view"},{"type":"function","name":"MAX_PURCHASES_PER_WALLET","inputs":[],"outputs":[{"name":"","type":"uint256","internalType":"uint256"}],"stateMutability":"view"},{"type":"function","name":"MAX_REFERRAL_CHAIN_DEPTH","inputs":[],"outputs":[{"name":"","type":"uint8","internalType":"uint8"}],"stateMutability":"view"},{"type":"function","name":"MINIMUM_GOAL","inputs":[],"outputs":[{"name":"","type":"uint256","internalType":"uint256"}],"stateMutability":"view"},{"type":"function","name":"MINIMUM_GOAL_USD","inputs":[],"outputs":[{"name":"","type":"uint256","internalType":"uint256"}],"stateMutability":"view"},{"type":"function","name":"MIN_PURCHASE_ETH","inputs":[],"outputs":[{"name":"","type":"uint256","internalType":"uint256"}],"stateMutability":"view"},{"type":"function","name":"MIN_PURCHASE_USD","inputs":[],"outputs":[{"name":"","type":"uint256","internalType":"uint256"}],"stateMutability":"view"},{"type":"function","name":"REFEREE_BONUS","inputs":[],"outputs":[{"name":"","type":"uint256","internalType":"uint256"}],"stateMutability":"view"},{"type":"function","name":"REFERRER_BONUS","inputs":[],"outputs":[{"name":"","type":"uint256","internalType":"uint256"}],"stateMutability":"view"},{"type":"function","name":"SALE_DURATION","inputs":[],"outputs":[{"name":"","type":"uint256","internalType":"uint256"}],"stateMutability":"view"},{"type":"function","name":"TIER_0_CAP","inputs":[],"outputs":[{"name":"","type":"uint256","internalType":"uint256"}],"stateMutability":"view"},{"type":"function","name":"TIER_0_PRICE","inputs":[],"outputs":[{"name":"","type":"uint256","internalType":"uint256"}],"stateMutability":"view"},{"type":"function","name":"TIER_1_CAP","inputs":[],"outputs":[{"name":"","type":"uint256","internalType":"uint256"}],"stateMutability":"view"},{"type":"function","name":"TIER_1_PRICE","inputs":[],"outputs":[{"name":"","type":"uint256","internalType":"uint256"}],"stateMutability":"view"},{"type":"function","name":"TIER_2_CAP","inputs":[],"outputs":[{"name":"","type":"uint256","internalType":"uint256"}],"stateMutability":"view"},{"type":"function","name":"TIER_2_PRICE","inputs":[],"outputs":[{"name":"","type":"uint256","internalType":"uint256"}],"stateMutability":"view"},{"type":"function","name":"TOTAL_SUPPLY","inputs":[],"outputs":[{"name":"","type":"uint256","internalType":"uint256"}],"stateMutability":"view"},{"type":"function","name":"TREASURY","inputs":[],"outputs":[{"name":"","type":"address","internalType":"address"}],"stateMutability":"view"},{"type":"function","name":"buyTokens","inputs":[{"name":"lockPeriod","type":"uint256","internalType":"uint256"}],"outputs":[],"stateMutability":"payable"},{"type":"function","name":"buyTokensWithReferral","inputs":[{"name":"lockPeriod","type":"uint256","internalType":"uint256"},{"name":"referrer","type":"address","internalType":"address"}],"outputs":[],"stateMutability":"payable"},{"type":"function","name":"buyWithStable","inputs":[{"name":"stablecoin","type":"address","internalType":"address"},{"name":"amount","type":"uint256","internalType":"uint256"},{"name":"tier","type":"uint8","internalType":"uint8"},{"name":"lockPeriod","type":"uint256","internalType":"uint256"}],"outputs":[],"stateMutability":"nonpayable"},{"type":"function","name":"buyWithStableReferral","inputs":[{"name":"stablecoin","type":"address","internalType":"address"},{"name":"amount","type":"uint256","internalType":"uint256"},{"name":"tier","type":"uint8","internalType":"uint8"},{"name":"lockPeriod","type":"uint256","internalType":"uint256"},{"name":"referrer","type":"address","internalType":"address"}],"outputs":[],"stateMutability":"nonpayable"},{"type":"function","name":"calculateListingPrice","inputs":[],"outputs":[{"name":"priceUsd","type":"uint256","internalType":"uint256"},{"name":"lpVfide","type":"uint256","internalType":"uint256"}],"stateMutability":"view"},{"type":"function","name":"calculateTokens","inputs":[{"name":"ethAmount","type":"uint256","internalType":"uint256"}],"outputs":[{"name":"base180","type":"uint256","internalType":"uint256"},{"name":"bonus180","type":"uint256","internalType":"uint256"},{"name":"total180","type":"uint256","internalType":"uint256"},{"name":"base90","type":"uint256","internalType":"uint256"},{"name":"bonus90","type":"uint256","internalType":"uint256"},{"name":"total90","type":"uint256","internalType":"uint256"},{"name":"baseNoLock","type":"uint256","internalType":"uint256"},{"name":"bonusNoLock","type":"uint256","internalType":"uint256"},{"name":"totalNoLock","type":"uint256","internalType":"uint256"}],"stateMutability":"view"},{"type":"function","name":"calculateTokensFromEth","inputs":[{"name":"ethAmount","type":"uint256","internalType":"uint256"}],"outputs":[{"name":"baseTokens","type":"uint256","internalType":"uint256"}],"stateMutability":"view"},{"type":"function","name":"calculateTokensFromEthTier","inputs":[{"name":"ethAmount","type":"uint256","internalType":"uint256"},{"name":"tier","type":"uint8","internalType":"uint8"}],"outputs":[{"name":"baseTokens","type":"uint256","internalType":"uint256"}],"stateMutability":"view"},{"type":"function","name":"calculateTokensFromUsd","inputs":[{"name":"usdAmount","type":"uint256","internalType":"uint256"}],"outputs":[{"name":"baseTokens","type":"uint256","internalType":"uint256"}],"stateMutability":"pure"},{"type":"function","name":"calculateTokensFromUsdPreview","inputs":[{"name":"usdAmount","type":"uint256","internalType":"uint256"},{"name":"tier","type":"uint8","internalType":"uint8"}],"outputs":[{"name":"base180","type":"uint256","internalType":"uint256"},{"name":"bonus180","type":"uint256","internalType":"uint256"},{"name":"total180","type":"uint256","internalType":"uint256"},{"name":"base90","type":"uint256","internalType":"uint256"},{"name":"bonus90","type":"uint256","internalType":"uint256"},{"name":"total90","type":"uint256","internalType":"uint256"},{"name":"baseNoLock","type":"uint256","internalType":"uint256"},{"name":"bonusNoLock","type":"uint256","internalType":"uint256"},{"name":"totalNoLock","type":"uint256","internalType":"uint256"}],"stateMutability":"pure"},{"type":"function","name":"calculateTokensFromUsdTier","inputs":[{"name":"usdAmount","type":"uint256","internalType":"uint256"},{"name":"tier","type":"uint8","internalType":"uint8"}],"outputs":[{"name":"baseTokens","type":"uint256","internalType":"uint256"}],"stateMutability":"pure"},{"type":"function","name":"canClaimRefund","inputs":[{"name":"user","type":"address","internalType":"address"}],"outputs":[{"name":"canClaim","type":"bool","internalType":"bool"},{"name":"amount","type":"uint256","internalType":"uint256"}],"stateMutability":"view"},{"type":"function","name":"canClaimStableRefund","inputs":[{"name":"user","type":"address","internalType":"address"},{"name":"stablecoin","type":"address","internalType":"address"}],"outputs":[{"name":"canClaim","type":"bool","internalType":"bool"},{"name":"amount","type":"uint256","internalType":"uint256"}],"stateMutability":"view"},{"type":"function","name":"cancelPurchase","inputs":[{"name":"index","type":"uint256","internalType":"uint256"}],"outputs":[],"stateMutability":"nonpayable"},{"type":"function","name":"claimAll","inputs":[],"outputs":[],"stateMutability":"nonpayable"},{"type":"function","name":"claimImmediate","inputs":[{"name":"indices","type":"uint256[]","internalType":"uint256[]"}],"outputs":[],"stateMutability":"nonpayable"},{"type":"function","name":"claimLocked","inputs":[{"name":"indices","type":"uint256[]","internalType":"uint256[]"}],"outputs":[],"stateMutability":"nonpayable"},{"type":"function","name":"claimReferralBonus","inputs":[],"outputs":[],"stateMutability":"nonpayable"},{"type":"function","name":"claimRefund","inputs":[],"outputs":[],"stateMutability":"nonpayable"},{"type":"function","name":"claimStableRefund","inputs":[{"name":"stablecoin","type":"address","internalType":"address"}],"outputs":[],"stateMutability":"nonpayable"},{"type":"function","name":"depositTokens","inputs":[],"outputs":[],"stateMutability":"nonpayable"},{"type":"function","name":"emergencyWithdraw","inputs":[],"outputs":[],"stateMutability":"nonpayable"},{"type":"function","name":"enableRefunds","inputs":[],"outputs":[],"stateMutability":"nonpayable"},{"type":"function","name":"ethAccepted","inputs":[],"outputs":[{"name":"","type":"bool","internalType":"bool"}],"stateMutability":"view"},{"type":"function","name":"ethContributed","inputs":[{"name":"","type":"address","internalType":"address"}],"outputs":[{"name":"","type":"uint256","internalType":"uint256"}],"stateMutability":"view"},{"type":"function","name":"ethPriceLastUpdated","inputs":[],"outputs":[{"name":"","type":"uint256","internalType":"uint256"}],"stateMutability":"view"},{"type":"function","name":"ethPriceUsd","inputs":[],"outputs":[{"name":"","type":"uint256","internalType":"uint256"}],"stateMutability":"view"},{"type":"function","name":"extendSale","inputs":[{"name":"additionalDays","type":"uint256","internalType":"uint256"}],"outputs":[],"stateMutability":"nonpayable"},{"type":"function","name":"finalizePresale","inputs":[],"outputs":[],"stateMutability":"nonpayable"},{"type":"function","name":"finalized","inputs":[],"outputs":[{"name":"","type":"bool","internalType":"bool"}],"stateMutability":"view"},{"type":"function","name":"fundRefunds","inputs":[],"outputs":[],"stateMutability":"payable"},{"type":"function","name":"fundStableRefunds","inputs":[{"name":"stablecoin","type":"address","internalType":"address"},{"name":"amount","type":"uint256","internalType":"uint256"}],"outputs":[],"stateMutability":"nonpayable"},{"type":"function","name":"getAllPurchases","inputs":[{"name":"user","type":"address","internalType":"address"}],"outputs":[{"name":"records","type":"tuple[]","internalType":"struct VFIDEPresale.PurchaseRecord[]","components":[{"name":"baseAmount","type":"uint256","internalType":"uint256"},{"name":"bonusAmount","type":"uint256","internalType":"uint256"},{"name":"immediateAmount","type":"uint256","internalType":"uint256"},{"name":"lockedAmount","type":"uint256","internalType":"uint256"},{"name":"lockPeriod","type":"uint256","internalType":"uint256"},{"name":"unlockTime","type":"uint256","internalType":"uint256"},{"name":"tier","type":"uint8","internalType":"uint8"},{"name":"immediateClaimed","type":"bool","internalType":"bool"},{"name":"lockedClaimed","type":"bool","internalType":"bool"}]}],"stateMutability":"view"},{"type":"function","name":"getFinalizationDetails","inputs":[],"outputs":[{"name":"isFinalized","type":"bool","internalType":"bool"},{"name":"totalRaisedUsd","type":"uint256","internalType":"uint256"},{"name":"lpTokens","type":"uint256","internalType":"uint256"},{"name":"priceUsd","type":"uint256","internalType":"uint256"}],"stateMutability":"view"},{"type":"function","name":"getPresaleStats","inputs":[],"outputs":[{"name":"sold","type":"uint256","internalType":"uint256"},{"name":"remaining","type":"uint256","internalType":"uint256"},{"name":"raisedUsd","type":"uint256","internalType":"uint256"}],"stateMutability":"view"},{"type":"function","name":"getPurchaseDetails","inputs":[{"name":"user","type":"address","internalType":"address"},{"name":"index","type":"uint256","internalType":"uint256"}],"outputs":[{"name":"baseAmount","type":"uint256","internalType":"uint256"},{"name":"bonusAmount","type":"uint256","internalType":"uint256"},{"name":"immediateAmount","type":"uint256","internalType":"uint256"},{"name":"lockedAmount","type":"uint256","internalType":"uint256"},{"name":"lockPeriod","type":"uint256","internalType":"uint256"},{"name":"unlockTime","type":"uint256","internalType":"uint256"},{"name":"immediateClaimed","type":"bool","internalType":"bool"},{"name":"lockedClaimed","type":"bool","internalType":"bool"}],"stateMutability":"view"},{"type":"function","name":"getRaiseStats","inputs":[],"outputs":[{"name":"usdRaised","type":"uint256","internalType":"uint256"},{"name":"ethRaised","type":"uint256","internalType":"uint256"},{"name":"tokensSold","type":"uint256","internalType":"uint256"},{"name":"tokensRemaining","type":"uint256","internalType":"uint256"},{"name":"goalMet","type":"bool","internalType":"bool"}],"stateMutability":"view"},{"type":"function","name":"getRefundStatus","inputs":[{"name":"user","type":"address","internalType":"address"}],"outputs":[{"name":"ethRefund","type":"uint256","internalType":"uint256"},{"name":"deadline","type":"uint64","internalType":"uint64"},{"name":"expired","type":"bool","internalType":"bool"}],"stateMutability":"view"},{"type":"function","name":"getTierPrice","inputs":[{"name":"tier","type":"uint8","internalType":"uint8"}],"outputs":[{"name":"price","type":"uint256","internalType":"uint256"}],"stateMutability":"pure"},{"type":"function","name":"getTierRemaining","inputs":[{"name":"tier","type":"uint8","internalType":"uint8"}],"outputs":[{"name":"remaining","type":"uint256","internalType":"uint256"}],"stateMutability":"view"},{"type":"function","name":"getTierRequiredLock","inputs":[{"name":"tier","type":"uint8","internalType":"uint8"}],"outputs":[{"name":"requiredLock","type":"uint256","internalType":"uint256"}],"stateMutability":"pure"},{"type":"function","name":"getUserDashboard","inputs":[{"name":"user","type":"address","internalType":"address"}],"outputs":[{"name":"purchaseCount","type":"uint256","internalType":"uint256"},{"name":"totalAllocatedTokens","type":"uint256","internalType":"uint256"},{"name":"ethContributedAmt","type":"uint256","internalType":"uint256"},{"name":"usdContributedAmt","type":"uint256","internalType":"uint256"},{"name":"referralBonusEarnedAmt","type":"uint256","internalType":"uint256"},{"name":"referralBonusClaimedAmt","type":"uint256","internalType":"uint256"},{"name":"referralCountNum","type":"uint256","internalType":"uint256"},{"name":"referredBy","type":"address","internalType":"address"}],"stateMutability":"view"},{"type":"function","name":"getUserInfo","inputs":[{"name":"user","type":"address","internalType":"address"}],"outputs":[{"name":"purchaseCount","type":"uint256","internalType":"uint256"},{"name":"totalAmount","type":"uint256","internalType":"uint256"},{"name":"totalBase","type":"uint256","internalType":"uint256"},{"name":"totalBonus","type":"uint256","internalType":"uint256"},{"name":"claimableImmediate","type":"uint256","internalType":"uint256"},{"name":"claimableLocked","type":"uint256","internalType":"uint256"},{"name":"stillLocked","type":"uint256","internalType":"uint256"}],"stateMutability":"view"},{"type":"function","name":"getUserStableContributions","inputs":[{"name":"user","type":"address","internalType":"address"},{"name":"stablecoins","type":"address[]","internalType":"address[]"}],"outputs":[{"name":"amounts","type":"uint256[]","internalType":"uint256[]"}],"stateMutability":"view"},{"type":"function","name":"isEthPriceStale","inputs":[],"outputs":[{"name":"","type":"bool","internalType":"bool"}],"stateMutability":"view"},{"type":"function","name":"isTierAvailable","inputs":[{"name":"tier","type":"uint8","internalType":"uint8"}],"outputs":[{"name":"available","type":"bool","internalType":"bool"}],"stateMutability":"view"},{"type":"function","name":"lastPurchaseTime","inputs":[{"name":"","type":"address","internalType":"address"}],"outputs":[{"name":"","type":"uint256","internalType":"uint256"}],"stateMutability":"view"},{"type":"function","name":"listingPrice","inputs":[],"outputs":[{"name":"","type":"uint256","internalType":"uint256"}],"stateMutability":"view"},{"type":"function","name":"lpVfideAmount","inputs":[],"outputs":[{"name":"","type":"uint256","internalType":"uint256"}],"stateMutability":"view"},{"type":"function","name":"maxGasPrice","inputs":[],"outputs":[{"name":"","type":"uint256","internalType":"uint256"}],"stateMutability":"view"},{"type":"function","name":"paused","inputs":[],"outputs":[{"name":"","type":"bool","internalType":"bool"}],"stateMutability":"view"},{"type":"function","name":"purchases","inputs":[{"name":"","type":"address","internalType":"address"},{"name":"","type":"uint256","internalType":"uint256"}],"outputs":[{"name":"baseAmount","type":"uint256","internalType":"uint256"},{"name":"bonusAmount","type":"uint256","internalType":"uint256"},{"name":"immediateAmount","type":"uint256","internalType":"uint256"},{"name":"lockedAmount","type":"uint256","internalType":"uint256"},{"name":"lockPeriod","type":"uint256","internalType":"uint256"},{"name":"unlockTime","type":"uint256","internalType":"uint256"},{"name":"tier","type":"uint8","internalType":"uint8"},{"name":"immediateClaimed","type":"bool","internalType":"bool"},{"name":"lockedClaimed","type":"bool","internalType":"bool"}],"stateMutability":"view"},{"type":"function","name":"recoverUnclaimedRefunds","inputs":[],"outputs":[],"stateMutability":"nonpayable"},{"type":"function","name":"referralBonusClaimed","inputs":[{"name":"","type":"address","internalType":"address"}],"outputs":[{"name":"","type":"uint256","internalType":"uint256"}],"stateMutability":"view"},{"type":"function","name":"referralBonusEarned","inputs":[{"name":"","type":"address","internalType":"address"}],"outputs":[{"name":"","type":"uint256","internalType":"uint256"}],"stateMutability":"view"},{"type":"function","name":"referralCount","inputs":[{"name":"","type":"address","internalType":"address"}],"outputs":[{"name":"","type":"uint256","internalType":"uint256"}],"stateMutability":"view"},{"type":"function","name":"referrerOf","inputs":[{"name":"","type":"address","internalType":"address"}],"outputs":[{"name":"","type":"address","internalType":"address"}],"stateMutability":"view"},{"type":"function","name":"refundDeadline","inputs":[],"outputs":[{"name":"","type":"uint64","internalType":"uint64"}],"stateMutability":"view"},{"type":"function","name":"refundsEnabled","inputs":[],"outputs":[{"name":"","type":"bool","internalType":"bool"}],"stateMutability":"view"},{"type":"function","name":"saleEndTime","inputs":[],"outputs":[{"name":"","type":"uint256","internalType":"uint256"}],"stateMutability":"view"},{"type":"function","name":"saleExtended","inputs":[],"outputs":[{"name":"","type":"bool","internalType":"bool"}],"stateMutability":"view"},{"type":"function","name":"saleStartTime","inputs":[],"outputs":[{"name":"","type":"uint256","internalType":"uint256"}],"stateMutability":"view"},{"type":"function","name":"setEthAccepted","inputs":[{"name":"accepted","type":"bool","internalType":"bool"}],"outputs":[],"stateMutability":"nonpayable"},{"type":"function","name":"setEthPrice","inputs":[{"name":"newPrice","type":"uint256","internalType":"uint256"}],"outputs":[],"stateMutability":"nonpayable"},{"type":"function","name":"setMaxGasPrice","inputs":[{"name":"newMaxGasPrice","type":"uint256","internalType":"uint256"}],"outputs":[],"stateMutability":"nonpayable"},{"type":"function","name":"setPaused","inputs":[{"name":"_paused","type":"bool","internalType":"bool"}],"outputs":[],"stateMutability":"nonpayable"},{"type":"function","name":"setStablecoinRegistry","inputs":[{"name":"_registry","type":"address","internalType":"address"}],"outputs":[],"stateMutability":"nonpayable"},{"type":"function","name":"setTierEnabled","inputs":[{"name":"tier","type":"uint8","internalType":"uint8"},{"name":"enabled","type":"bool","internalType":"bool"}],"outputs":[],"stateMutability":"nonpayable"},{"type":"function","name":"shouldEnableRefunds","inputs":[],"outputs":[{"name":"shouldEnable","type":"bool","internalType":"bool"}],"stateMutability":"view"},{"type":"function","name":"stableContributed","inputs":[{"name":"","type":"address","internalType":"address"},{"name":"","type":"address","internalType":"address"}],"outputs":[{"name":"","type":"uint256","internalType":"uint256"}],"stateMutability":"view"},{"type":"function","name":"stablecoinRegistry","inputs":[],"outputs":[{"name":"","type":"address","internalType":"contract IStablecoinRegistry"}],"stateMutability":"view"},{"type":"function","name":"tier0Enabled","inputs":[],"outputs":[{"name":"","type":"bool","internalType":"bool"}],"stateMutability":"view"},{"type":"function","name":"tier0Sold","inputs":[],"outputs":[{"name":"","type":"uint256","internalType":"uint256"}],"stateMutability":"view"},{"type":"function","name":"tier1Enabled","inputs":[],"outputs":[{"name":"","type":"bool","internalType":"bool"}],"stateMutability":"view"},{"type":"function","name":"tier1Sold","inputs":[],"outputs":[{"name":"","type":"uint256","internalType":"uint256"}],"stateMutability":"view"},{"type":"function","name":"tier2Enabled","inputs":[],"outputs":[{"name":"","type":"bool","internalType":"bool"}],"stateMutability":"view"},{"type":"function","name":"tier2Sold","inputs":[],"outputs":[{"name":"","type":"uint256","internalType":"uint256"}],"stateMutability":"view"},{"type":"function","name":"tokensDeposited","inputs":[],"outputs":[{"name":"","type":"bool","internalType":"bool"}],"stateMutability":"view"},{"type":"function","name":"totalAllocated","inputs":[{"name":"","type":"address","internalType":"address"}],"outputs":[{"name":"","type":"uint256","internalType":"uint256"}],"stateMutability":"view"},{"type":"function","name":"totalBaseSold","inputs":[],"outputs":[{"name":"","type":"uint256","internalType":"uint256"}],"stateMutability":"view"},{"type":"function","name":"totalBonusGiven","inputs":[],"outputs":[{"name":"","type":"uint256","internalType":"uint256"}],"stateMutability":"view"},{"type":"function","name":"totalClaimed","inputs":[],"outputs":[{"name":"","type":"uint256","internalType":"uint256"}],"stateMutability":"view"},{"type":"function","name":"totalEthRaised","inputs":[],"outputs":[{"name":"","type":"uint256","internalType":"uint256"}],"stateMutability":"view"},{"type":"function","name":"totalReferralBonusGiven","inputs":[],"outputs":[{"name":"","type":"uint256","internalType":"uint256"}],"stateMutability":"view"},{"type":"function","name":"totalReferrerBonusOnly","inputs":[],"outputs":[{"name":"","type":"uint256","internalType":"uint256"}],"stateMutability":"view"},{"type":"function","name":"totalSold","inputs":[],"outputs":[{"name":"","type":"uint256","internalType":"uint256"}],"stateMutability":"view"},{"type":"function","name":"totalUsdRaised","inputs":[],"outputs":[{"name":"","type":"uint256","internalType":"uint256"}],"stateMutability":"view"},{"type":"function","name":"usdContributed","inputs":[{"name":"","type":"address","internalType":"address"}],"outputs":[{"name":"","type":"uint256","internalType":"uint256"}],"stateMutability":"view"},{"type":"function","name":"vfideToken","inputs":[],"outputs":[{"name":"","type":"address","internalType":"contract IERC20"}],"stateMutability":"view"},{"type":"function","name":"withdrawUnsold","inputs":[{"name":"recipient","type":"address","internalType":"address"}],"outputs":[],"stateMutability":"nonpayable"},{"type":"event","name":"ClaimImmediate","inputs":[{"name":"user","type":"address","indexed":true,"internalType":"address"},{"name":"amount","type":"uint256","indexed":false,"internalType":"uint256"}],"anonymous":false},{"type":"event","name":"ClaimLocked","inputs":[{"name":"user","type":"address","indexed":true,"internalType":"address"},{"name":"amount","type":"uint256","indexed":false,"internalType":"uint256"}],"anonymous":false},{"type":"event","name":"ETHPriceUpdated","inputs":[{"name":"oldPrice","type":"uint256","indexed":false,"internalType":"uint256"},{"name":"newPrice","type":"uint256","indexed":false,"internalType":"uint256"}],"anonymous":false},{"type":"event","name":"EmergencyPause","inputs":[{"name":"paused","type":"bool","indexed":false,"internalType":"bool"}],"anonymous":false},{"type":"event","name":"MaxGasPriceUpdated","inputs":[{"name":"oldPrice","type":"uint256","indexed":false,"internalType":"uint256"},{"name":"newPrice","type":"uint256","indexed":false,"internalType":"uint256"}],"anonymous":false},{"type":"event","name":"PresaleFinalized","inputs":[{"name":"ethRaised","type":"uint256","indexed":false,"internalType":"uint256"},{"name":"lpVfide","type":"uint256","indexed":false,"internalType":"uint256"},{"name":"listingPrice","type":"uint256","indexed":false,"internalType":"uint256"}],"anonymous":false},{"type":"event","name":"Purchase","inputs":[{"name":"buyer","type":"address","indexed":true,"internalType":"address"},{"name":"lockPeriod","type":"uint256","indexed":true,"internalType":"uint256"},{"name":"ethSpent","type":"uint256","indexed":false,"internalType":"uint256"},{"name":"baseTokens","type":"uint256","indexed":false,"internalType":"uint256"},{"name":"bonusTokens","type":"uint256","indexed":false,"internalType":"uint256"},{"name":"purchaseIndex","type":"uint256","indexed":false,"internalType":"uint256"}],"anonymous":false},{"type":"event","name":"PurchaseCancelled","inputs":[{"name":"buyer","type":"address","indexed":true,"internalType":"address"},{"name":"index","type":"uint256","indexed":true,"internalType":"uint256"},{"name":"tokensReturned","type":"uint256","indexed":false,"internalType":"uint256"}],"anonymous":false},{"type":"event","name":"ReferralPurchase","inputs":[{"name":"buyer","type":"address","indexed":true,"internalType":"address"},{"name":"referrer","type":"address","indexed":true,"internalType":"address"},{"name":"referrerBonus","type":"uint256","indexed":false,"internalType":"uint256"},{"name":"refereeBonus","type":"uint256","indexed":false,"internalType":"uint256"}],"anonymous":false},{"type":"event","name":"RefundClaimed","inputs":[{"name":"user","type":"address","indexed":true,"internalType":"address"},{"name":"amount","type":"uint256","indexed":false,"internalType":"uint256"}],"anonymous":false},{"type":"event","name":"RefundsEnabled","inputs":[{"name":"timestamp","type":"uint256","indexed":false,"internalType":"uint256"}],"anonymous":false},{"type":"event","name":"SaleExtended","inputs":[{"name":"newEndTime","type":"uint256","indexed":false,"internalType":"uint256"},{"name":"additionalDays","type":"uint256","indexed":false,"internalType":"uint256"}],"anonymous":false},{"type":"event","name":"StablePurchase","inputs":[{"name":"buyer","type":"address","indexed":true,"internalType":"address"},{"name":"stablecoin","type":"address","indexed":true,"internalType":"address"},{"name":"lockPeriod","type":"uint256","indexed":true,"internalType":"uint256"},{"name":"stableAmount","type":"uint256","indexed":false,"internalType":"uint256"},{"name":"baseTokens","type":"uint256","indexed":false,"internalType":"uint256"},{"name":"bonusTokens","type":"uint256","indexed":false,"internalType":"uint256"},{"name":"purchaseIndex","type":"uint256","indexed":false,"internalType":"uint256"}],"anonymous":false},{"type":"event","name":"StablecoinRegistryUpdated","inputs":[{"name":"oldRegistry","type":"address","indexed":false,"internalType":"address"},{"name":"newRegistry","type":"address","indexed":false,"internalType":"address"}],"anonymous":false},{"type":"event","name":"SubscriptionCancelled","inputs":[{"name":"index","type":"uint256","indexed":true,"internalType":"uint256"}],"anonymous":false},{"type":"event","name":"TierEnabled","inputs":[{"name":"tier","type":"uint8","indexed":false,"internalType":"uint8"},{"name":"enabled","type":"bool","indexed":false,"internalType":"bool"}],"anonymous":false},{"type":"event","name":"TieredPurchase","inputs":[{"name":"buyer","type":"address","indexed":true,"internalType":"address"},{"name":"tier","type":"uint8","indexed":false,"internalType":"uint8"},{"name":"baseTokens","type":"uint256","indexed":false,"internalType":"uint256"},{"name":"usdPaid","type":"uint256","indexed":false,"internalType":"uint256"}],"anonymous":false},{"type":"error","name":"PS_AlreadyExtended","inputs":[]},{"type":"error","name":"PS_AlreadyFinalized","inputs":[]},{"type":"error","name":"PS_CannotExtend","inputs":[]},{"type":"error","name":"PS_ETHNotAccepted","inputs":[]},{"type":"error","name":"PS_GasPriceTooHigh","inputs":[]},{"type":"error","name":"PS_GoalAlreadyMet","inputs":[]},{"type":"error","name":"PS_InvalidLockPeriod","inputs":[]},{"type":"error","name":"PS_InvalidStablecoin","inputs":[]},{"type":"error","name":"PS_InvalidTier","inputs":[]},{"type":"error","name":"PS_LockNotExpired","inputs":[]},{"type":"error","name":"PS_MinimumGoalNotMet","inputs":[]},{"type":"error","name":"PS_NoRefundAvailable","inputs":[]},{"type":"error","name":"PS_NoTokens","inputs":[]},{"type":"error","name":"PS_NotDAO","inputs":[]},{"type":"error","name":"PS_Paused","inputs":[]},{"type":"error","name":"PS_RefundsNotEnabled","inputs":[]},{"type":"error","name":"PS_TierDisabled","inputs":[]},{"type":"error","name":"PS_TierLockRequired","inputs":[]},{"type":"error","name":"PS_TierSoldOut","inputs":[]},{"type":"error","name":"PS_TooManyPurchases","inputs":[]},{"type":"error","name":"PS_Zero","inputs":[]}],"bytecode":{"object":"0x60e03461021457601f615ac438819003918201601f19168301916001600160401b038311848410176102185780849260a094604052833981010312610214576100478161022c565b906100546020820161022c565b6100606040830161022c565b90608061006f6060850161022c565b93015160015f556004805463ffffffff19166301010101179055610dac60055564746a528800601855936001600160a01b038116158015610203575b80156101f2575b6101e3574285106101aa576080526001600160a01b0390811660c05260a0919091521680610190575b508060085562278d00810180911161017c576009556040516158839081610241823960805181818161090a01528181610c4b01528181611df401526153bb015260a051818181611c93015281816126b901528181613451015281816139e001528181613d9d0152614481015260c051818181610f97015281816115e2015281816116dc0152818161197601528181611be90152818161215f01526140d20152f35b634e487b7160e01b5f52601160045260245ffd5b600780546001600160a01b0319169190911790555f6100db565b60405162461bcd60e51b81526020600482015260116024820152701414ce881cdd185c9d081a5b881c185cdd607a1b6044820152606490fd5b6327e3e2d960e21b5f5260045ffd5b506001600160a01b038316156100b2565b506001600160a01b038216156100ab565b5f80fd5b634e487b7160e01b5f52604160045260245ffd5b51906001600160a01b03821682036102145756fe60806040526004361015610011575f80fd5b5f5f3560e01c80629f926214614900578063013db332146148db57806308c0a8d6146148c15780630f2cdd6c1461489d5780630f4173f7146143855780631107bc981461426657806316061dbf1461424957806316c38b3c146141eb578063179fc164146141ce5780631aae8491146141b15780631cbaee2d146141945780631e375ab9146140545780631f1886e414613f50578063227a14c114613f1857806322ae828014613ef657806322ae8cff14613e8f578063255f243114613e5757806325915ff214613e0757806327787a9c14613de957806329edb7a114611e635780632cea944214613dcc5780632d2c556514613d885780632fc8f2f414613d6a578063301dd027146130415780633610724e146139125780633bbc810e146138ee5780633bfbe2391461333a5780633c24c5c0146133145780633de39c11146132f657806342cd128b146132bd5780634608eb77146132a05780634680d229146131625780634737ec70146131445780634c9e04d7146130465780634d2a44a814613041578063507cc47e14612fff57806352c6fd1b14612fe157806352d3f84914612f2f578063532f117914612f0c5780635385b1ed14612eee5780635586402d14612eca578063599377ab146125735780635c975abb146125505780635ff7cd9f14611e6d57806360e5f65b146125175780636386c1c7146123df57806365c2944e146123755780636d79207c14611e6857806371aa60fd1461234c5780637304eb8d14612330578063778841041461231457806377c0c5e2146122d45780637bfb15eb146122b85780637c4b414d1461211657806382865218146120f8578063830ced521461144257806389bdc5fd146120db5780638b24374c146120745780638c52dc4114611f2f5780638cca8f6414611ed8578063902d55a514611eb25780639106d7ba14611e945780639173395614611e725780639380921214611e6d57806393a101f614611e6857806394f90cca14611e6357806396b1c00e14611e415780639769033214611e2357806398fabd3a14611dde578063999d350d14611dc05780639c79922914611da45780639eeb3e1114611d88578063a0a6e94014611b64578063a56b94f314611aff578063aa138ade14611ae1578063aa52ac1d146118fb578063ac7a68b7146118cd578063b2ebbda714611814578063b3f05b97146117ee578063b5545a3c1461170b578063b8a71eec146116c6578063b96b2223146116a0578063baf13a0a1461167a578063bb03a1aa14611564578063bf87024a14611481578063bf91d36614611463578063c1a21f3714611447578063c2c1befe14611442578063c322937e1461138b578063c3634ddc146111a1578063c50db2f814611168578063c78f19f91461114a578063c9e904be1461112c578063ca56985714611105578063cf4b850d146110e7578063d1058e5914610f43578063d21cacdf14610f02578063d2fa635e14610e4e578063d54ad2a114610e30578063d75466eb14610cfb578063db2e21bc14610c09578063db74559b14610bd0578063de763f4014610bad578063e06937dd14610b90578063e1aa1bcc14610b63578063e1b8fdcc14610a80578063e37c3a5514610a62578063e511e4b714610a44578063e518a47114610a1e578063e8dc71ef146109fa578063eb8a9cfe14610987578063ebadef63146108b2578063ec2d293814610896578063ed338ff114610878578063ed361b351461083f578063ee52bec114610806578063f35038c1146107e6578063f36cf3e4146106a6578063f4b16b9414610683578063f96f5b351461064a578063faaf8076146105825763fb85687a14610557575f80fd5b3461057f578060031936011261057f576007546040516001600160a01b039091168152602090f35b80fd5b503461057f57602036600319011261057f57610100906001600160a01b036105a86149b5565b16908181526019602052604081205491808252601a6020526040822054918181526015602052604081205482825260146020526040822054838352601c602052604083205491848452601d602052604084205493858152601e60205260408120549581526021602052604060018060a01b039120541695604051978852602088015260408701526060860152608085015260a084015260c083015260e0820152f35b503461057f57602036600319011261057f576020906040906001600160a01b036106726149b5565b168152601583522054604051908152f35b503461057f578060031936011261057f57602060ff601754166040519015158152f35b503461057f57602036600319011261057f576106c06149b5565b6106c86153fa565b60ff60135416156107d75733825260166020526040822060018060a01b0382165f5260205260405f20549081156107c8573383526016602090815260408085206001600160a01b03939093165f81815293835292819020859055516370a0823160e01b81523060048201529081602481855afa80156107bd5783918591610782575b509161075b826107629410156151f8565b339061560f565b6040519081525f5160206157ee5f395f51905f5260203392a26001815580f35b9150506020813d6020116107b5575b8161079e60209383614c02565b810103126107b15751829061075b61074a565b5f80fd5b3d9150610791565b6040513d86823e3d90fd5b635ae852db60e01b8352600483fd5b632549a0f560e21b8252600482fd5b503461057f578060031936011261057f576020604051648e9bd84d008152f35b503461057f57602036600319011261057f57602061083764e8d4a51000610831600554600435614c56565b04614d85565b604051908152f35b503461057f57602036600319011261057f576020906040906001600160a01b036108676149b5565b168152601a83522054604051908152f35b503461057f578060031936011261057f576020600954604051908152f35b503461057f578060031936011261057f57602060405160038152f35b503461057f578060031936011261057f576108cb6153b9565b6108d960ff601354166150f0565b60225460081c6001600160401b0316801515908161097d575b501561093c57476109005780f35b61093981808080477f00000000000000000000000000000000000000000000000000000000000000005af1610933614e72565b50614eb0565b80f35b60405162461bcd60e51b81526020600482015260196024820152781499599d5b99081c195c9a5bd9081b9bdd08195e1c1a5c9959603a1b6044820152606490fd5b905042115f6108f2565b503461057f57602036600319011261057f577fff8d8c00233e47494f2e83bb5617519a20292abac49bf4ae29247a4d9d413a7960406109c46149b5565b6109cc6153b9565b600780546001600160a01b039283166001600160a01b0319821681179092558351921682526020820152a180f35b503461057f57602036600319011261057f576020610837610a19614a01565b615321565b503461057f578060031936011261057f5760206040516a073ce27351811f40c000008152f35b503461057f578060031936011261057f576020600a54604051908152f35b503461057f578060031936011261057f5760206040516276a7008152f35b503461057f57604036600319011261057f57610a9a614a01565b602435908115158092036107b15760ff90610ab36153b9565b169081610aea575f51602061582e5f395f51905f529160409160ff196004541660ff8216176004555b82519182526020820152a180f35b60018203610b1e575f51602061582e5f395f51905f529160409160045461ff008260081b169061ff00191617600455610adc565b60028203610b54575f51602061582e5f395f51905f529160409160045462ff00008260101b169062ff0000191617600455610adc565b632496383d60e11b8352600483fd5b503461057f578060031936011261057f5760225460405160089190911c6001600160401b03168152602090f35b503461057f578060031936011261057f5760206040516175308152f35b503461057f578060031936011261057f57602060ff600454166040519015158152f35b503461057f57602036600319011261057f576020906040906001600160a01b03610bf86149b5565b168152601e83522054604051908152f35b503461057f578060031936011261057f57610c226153b9565b60085442108015610cde575b15610ca757478015610c7557818080806109399460018060a01b037f0000000000000000000000000000000000000000000000000000000000000000165af1610933614e72565b60405162461bcd60e51b815260206004820152600a6024820152694e6f2062616c616e636560b01b6044820152606490fd5b60405162461bcd60e51b815260206004820152600f60248201526e43616e6e6f7420776974686472617760881b6044820152606490fd5b5060ff600e5460081c168015610c2e575060ff6013541615610c2e565b503461057f57604036600319011261057f57610d156149b5565b6024356001600160401b038111610e2c57610d34903690600401614a60565b91610d3e83614d00565b91610d4c6040519384614c02565b838352610d5884614d00565b602084019490601f19013686376001600160a01b0390921691855b818110610dbe57868587604051928392602084019060208552518091526040840192915b818110610da5575050500390f35b8251845285945060209384019390920191600101610d97565b838752601660205260408720610dd582848661504e565b356001600160a01b0381168103610e285760018060a01b03165f5260205260405f20548551821015610e1457600582901b860160200152600101610d73565b634e487b7160e01b88526032600452602488fd5b8880fd5b8280fd5b503461057f578060031936011261057f576020600d54604051908152f35b503461057f57602036600319011261057f57600435610e6b6153b9565b64174876e80081101580610ef2575b15610eb95760407fb1daf6a9ad2299bf65e68bf739b901d006349eb874677e4b9ce28e208bd41c2791601854908060185582519182526020820152a180f35b60405162461bcd60e51b8152602060048201526011602482015270496e76616c69642067617320707269636560781b6044820152606490fd5b506501d1a94a2000811115610e7a565b503461057f57602036600319011261057f576020906001600160a01b03610f276149b5565b16815260218252604060018060a01b0391205416604051908152f35b503461057f578060031936011261057f57610f5c6153fa565b803382526019602052604082205480156110b357825b818110610fea5750508015610fdb57610f8d81600d54614b2f565b600d55610fbb81337f000000000000000000000000000000000000000000000000000000000000000061560f565b6040519081525f51602061578e5f395f51905f5260203392a26001815580f35b6335f23dad60e01b8252600482fd5b3384526019602052610fff8160408620614a90565b5060068101805460ff8160081c1615806110a6575b611083575b50805460ff8160101c161580611076575b80611068575b611040575b505050600101610f72565b62ff000019166201000017905560030154909260019161105f91614b2f565b92905f80611035565b506005830154421015611030565b506003830154151561102a565b61ff0019166101001781556002820154909461109f9190614b2f565b935f611019565b5060028301541515611014565b60405162461bcd60e51b815260206004820152600c60248201526b4e6f2070757263686173657360a01b6044820152606490fd5b503461057f578060031936011261057f576020601054604051908152f35b503461057f578060031936011261057f576040611120615264565b82519182526020820152f35b503461057f578060031936011261057f576020601254604051908152f35b503461057f578060031936011261057f576020600f54604051908152f35b503461057f57604036600319011261057f5760206108376111876149f1565b64e8d4a5100061119b600554600435614c56565b04614dbc565b503461057f57602036600319011261057f576004356111be6153fa565b33825260196020526111d56040832054821061505e565b33825260196020526111ea8160408420614a90565b5060068101805460ff8160081c1615908161137c575b501561134557815491821561130c5760038186600181940161122f611226825489614b2f565b97600a54614cda565b600a5561123f8154600b54614cda565b600b5561124e87600c54614cda565b600c55338252601a60205260408220611268888254614cda565b9055855460ff16806112d457506112828354600154614cda565b6001555b8183555582600282015501556201010062ffff00198254161790556040519081527f5a3ef4ffe684ba69c8082693713e60c04710f506943e370c859329fdab69c52760203392a36001815580f35b600181036112f257506112ea8354600254614cda565b600255611286565b6002036112865761130583548554614cda565b8455611286565b60405162461bcd60e51b8152602060048201526011602482015270105b1c9958591e4818d85b98d95b1b1959607a1b6044820152606490fd5b60405162461bcd60e51b815260206004820152600f60248201526e105b1c9958591e4818db185a5b5959608a1b6044820152606490fd5b60ff915060101c16155f611200565b503461057f57604036600319011261057f576113ea6113e46101009260406113b16149b5565b6001600160a01b03168083526019602052818320546024359391906113d790851061505e565b8152601960205220614a90565b50614d17565b8051906020810151906040810151606082015160808301519060a0840151928760e08601511515950151151595604051978852602088015260408701526060860152608085015260a084015260c083015260e0820152f35b614af4565b503461057f578060031936011261057f57602060405160058152f35b503461057f578060031936011261057f576020601f54604051908152f35b503461057f57604036600319011261057f576114a661149e6149f1565b600435614dbc565b601e810290801591818104601e148317156115505760649004916114ca8383614b2f565b93600f830291838304600f14171561153c57509080606461153893046114f08183614b2f565b90826040519788978289949192610100969399989794919961012087019a8752602087015260408601526060850152608084015260a083015260c08201525f60e08201520152565b0390f35b634e487b7160e01b81526011600452602490fd5b634e487b7160e01b84526011600452602484fd5b503461057f57602036600319011261057f5761157e6149b5565b6115866153b9565b60ff600e5460081c1615611645576001600160a01b0381161561160c57600c54806a295be96e6406697200000003906a295be96e640669720000008211611550576a295be96e64066972000000036115dc578280f35b611606917f000000000000000000000000000000000000000000000000000000000000000061560f565b5f808280f35b60405162461bcd60e51b8152602060048201526011602482015270125b9d985b1a59081c9958da5c1a595b9d607a1b6044820152606490fd5b60405162461bcd60e51b815260206004820152600d60248201526c139bdd08199a5b985b1a5e9959609a1b6044820152606490fd5b503461057f578060031936011261057f5760206040516a1cf389cd46047d030000008152f35b503461057f578060031936011261057f57602060ff60045460101c166040519015158152f35b503461057f578060031936011261057f576040517f00000000000000000000000000000000000000000000000000000000000000006001600160a01b03168152602090f35b503461057f578060031936011261057f576117246153fa565b60ff60135416156117df573381526015602052604081205480156117d057338252601560205281604081205561175c814710156151f8565b8180808084335af161176c614e72565b5015611792576040519081525f5160206157ee5f395f51905f5260203392a26001815580f35b60405162461bcd60e51b81526020600482015260166024820152751499599d5b99081d1c985b9cd9995c8819985a5b195960521b6044820152606490fd5b635ae852db60e01b8252600482fd5b632549a0f560e21b8152600490fd5b503461057f578060031936011261057f57602060ff600e5460081c166040519015158152f35b503461057f578060031936011261057f57601154601254600c54806a295be96e64066972000000115f146118c457806a295be96e64066972000000036a295be96e6406697200000081116118b05760a09450905b648e9bd84d00841092831593611897575b60405194855260208501526040840152606083015215156080820152f35b92506a073ce27351811f40c00000600a54101592611879565b634e487b7160e01b85526011600452602485fd5b60a09390611868565b503461057f57602036600319011261057f5760206118f16118ec614a01565b615193565b6040519015158152f35b503461057f57602036600319011261057f576004356001600160401b038111611add5761192c903690600401614a60565b6119346153fa565b61193f811515614fd3565b61194c603282111561500f565b8291835b8281106119cd575050508015610fdb5761196c81600d54614b2f565b600d5561199a81337f000000000000000000000000000000000000000000000000000000000000000061560f565b6040519081527fe309c1fa133ebf52111d7e9ead67247ee4ce7856212925c49dfeea0b841ed45760203392a26001815580f35b6119d881848461504e565b3533865260196020526119f06040872054821061505e565b60018201808311611ac9575b848110611a8f5750611a1990338752601960205260408720614a90565b5060068101805460ff8160101c161580611a82575b611a3e575b505050600101611950565b60058397949701544210611a735762ff000019166201000017905560030154600191611a6a9190614b2f565b93905f80611a33565b6352727e0b60e01b8852600488fd5b5060038301541515611a2e565b600190611abb611aa785888896989b99979a9b61504e565b35611ab383878761504e565b35141561509a565b0195949193959290926119fc565b634e487b7160e01b87526011600452602487fd5b5080fd5b503461057f578060031936011261057f576020600254604051908152f35b503461057f578060031936011261057f57600c5490816a295be96e64066972000000115f14611b5e57816a295be96e6406697200000003906a295be96e64066972000000821161153c5750905b61153860115460405193849384614b19565b90611b4c565b503461057f578060031936011261057f57611b7d6153b9565b600e5460ff8160081c16611d795760095442118015611d62575b15611d2e57648e9bd84d006011541080611d18575b611d0957610100611bbb615264565b600f829055601081905561ff0019909316909117600e556040516370a0823160e01b815230600482015291907f00000000000000000000000000000000000000000000000000000000000000006020846024816001600160a01b0385165afa938415611cfe578594611cc8575b50611c6c7fd4294f2e03dfa3f368c60ae6950d6e90c37101953b6aa279269459a9517f106e94600c54600d548082115f14611cbf57611c6691614cda565b90614cda565b80611c8d575b5050611c876011549160405193849384614b19565b0390a180f35b611cb8917f00000000000000000000000000000000000000000000000000000000000000009061560f565b5f80611c72565b50508690614cda565b93506020843d602011611cf6575b81611ce360209383614c02565b810103126107b157925192611c6c611c28565b3d9150611cd6565b6040513d87823e3d90fd5b630c2df51b60e11b8252600482fd5b506a073ce27351811f40c00000600a5410611bac565b60405162461bcd60e51b815260206004820152600c60248201526b53616c65206f6e676f696e6760a01b6044820152606490fd5b506a1cf389cd46047d03000000600a541015611b97565b6398c8c30f60e01b8252600482fd5b503461057f578060031936011261057f57602060405160148152f35b503461057f578060031936011261057f576020604051600a8152f35b503461057f578060031936011261057f576020600b54604051908152f35b503461057f578060031936011261057f576040517f00000000000000000000000000000000000000000000000000000000000000006001600160a01b03168152602090f35b503461057f578060031936011261057f576020600354604051908152f35b508060031936011261057f57611e556153b9565b61093960ff601354166150f0565b614a20565b614ad7565b614abd565b503461057f578060031936011261057f576020604051662386f26fc100008152f35b503461057f578060031936011261057f576020600c54604051908152f35b503461057f578060031936011261057f5760206040516a295be96e640669720000008152f35b503461057f57602036600319011261057f576040906001600160a01b03611efd6149b5565b1681526015602052205460ff6013541680611f26575b6040805191151582526020820192909252f35b50801515611f13565b503461057f578060031936011261057f57611f486153b9565b60095442111561203e5760ff600e5460081c16612005576a073ce27351811f40c00000600a541015611ff657600160ff1960135416176013556276a7004201804211611fe25760228054610100600160481b03191660089290921b610100600160481b03169190911790556040514281527f01fd9d9d9f159bbb346cbe96d08df5b61108b672fa79a2d53fb9c67b9717d27390602090a180f35b634e487b7160e01b82526011600452602482fd5b63756cf3e360e11b8152600490fd5b60405162461bcd60e51b8152602060048201526011602482015270105b1c9958591e48199a5b985b1a5e9959607a1b6044820152606490fd5b60405162461bcd60e51b815260206004820152600e60248201526d14d85b19481b9bdd08195b99195960921b6044820152606490fd5b503461057f57604036600319011261057f5760406120906149b5565b916120996149cb565b9260018060a01b031681526016602052209060018060a01b03165f5260205260405f205460ff6013541680611f26576040805191151582526020820192909252f35b503461057f578060031936011261057f5760208054604051908152f35b503461057f578060031936011261057f57602060405162ed4e008152f35b503461057f578060031936011261057f5761212f6153b9565b60225460ff811661227f57600854421015612243576040516370a0823160e01b81523060048201526020816024817f00000000000000000000000000000000000000000000000000000000000000006001600160a01b03165afa80156122385783906121fb575b6a295be96e640669720000009150106121b65760ff191660011760225580f35b60405162461bcd60e51b815260206004820152601f60248201527f496e73756666696369656e74207072652d6d696e7465642062616c616e6365006044820152606490fd5b506020813d602011612230575b8161221560209383614c02565b810103126107b1576a295be96e640669720000009051612196565b3d9150612208565b6040513d85823e3d90fd5b60405162461bcd60e51b815260206004820152601460248201527314d85b1948185b1c9958591e481cdd185c9d195960621b6044820152606490fd5b60405162461bcd60e51b8152602060048201526011602482015270105b1c9958591e4819195c1bdcda5d1959607a1b6044820152606490fd5b503461057f578060031936011261057f57602060405160028152f35b503461057f57602036600319011261057f576122ee614a11565b6122f66153b9565b63ff00000060045491151560181b169063ff00000019161760045580f35b503461057f578060031936011261057f576020604051601e8152f35b503461057f578060031936011261057f576020604051600f8152f35b503461057f57602036600319011261057f576114a664e8d4a51000610831600554600435614c56565b503461057f57602036600319011261057f576060906040906001600160a01b0361239d6149b5565b1681526015602052205460225460081c6001600160401b031680151590816123d4575b604051928352602083015215156040820152f35b8091504211906123c0565b503461057f57602036600319011261057f576123f96149b5565b6001600160a01b031680825260196020526040822054908290819081908190819081805b888110612451575050509560e096604051968752602087015260408601526060850152608084015260a083015260c0820152f35b828252601960205261249d61246c6113e48360408620614a90565b9561249561248c88519761248660208b01998a5190614b2f565b90614b2f565b9c885190614b2f565b955190614b2f565b9460e081015115612501575b610100810151156124c1575b5060010198929861241d565b60a081015191979142106124e85760019160606124e092015190614b2f565b965b906124b5565b600191979860606124fb92015190614b2f565b976124e2565b9561251190604088015190614b2f565b956124a9565b503461057f57602036600319011261057f576020906040906001600160a01b0361253f6149b5565b168152601483522054604051908152f35b503461057f578060031936011261057f57602060ff600e54166040519015158152f35b503461057f5760a036600319011261057f5761258d6149b5565b602435906125996149e1565b6084356001600160a01b038116939190606435908581036107b1576125bc6153fa565b6125c461543b565b6125d260ff60225416614b5d565b6007546001600160a01b0316906125ea821515614ba8565b604051633af32abf60e01b81526001600160a01b039096166004870181905295602081602481865afa908115612ebf578991612e90575b5015612e815761263084615193565b15612e725760249161266b60209289151580612e68575b61265090614f2d565b898b526019845261266660408c20541515614f70565b6156dd565b604051928380926323b95ceb60e21b82528960048301525afa908115612e5d578791612e2e575b5060ff811660068103612dd457505082905b6126b362989680831015614c98565b6126df847f00000000000000000000000000000000000000000000000000000000000000003388615456565b338752601660205260408720855f5260205260405f20612700858254614b2f565b9055338752601460205260408720612719838254614b2f565b905561272782601154614b2f565b6011556127348383614dbc565b9061273f8285615573565b6003820295821596838104600314881715612dc05760649004968360011b908482046002141715612dc0576064900495888a52601c60205260408a20612786898254614b2f565b9055888a52601e60205260408a2080549060018201809211612dac57556127b86127b0888a614b2f565b601f54614b2f565b601f556127c788602054614b2f565b6020908155338b526021905260408a20546001600160a01b031615612d8b575b60ff6022541615612d4f576008544210612d1c576009544211612cef57600a546a1cf389cd46047d03000000811015612cbf57338b526019602052606460408c20541015612cb05761283887614ef2565b8410612ca15760ff87161590818015612c94575b15612c33578b9115612c225761287189606461286b600a955b8a614c56565b04614b2f565b9161287c8388614b2f565b92690a968163f0a57b4000008411612be657606461289b8f9386614c56565b04906969e10de76676d08000006128c88660406128b88683614cda565b96338152601a6020522054614b2f565b11612bac576a1cf389cd46047d030000006128e38a86614b2f565b11612b7057600b54946a0c685fa11e01ec6f00000061290e6129058489614b2f565b60205490614b2f565b11612b35578f94828d976129258d61292d94614b2f565b600a55614b2f565b600b5561293c81600c54614b2f565b600c55338552601a60205261295660408620918254614b2f565b9055338452601b60205242604085205587155f14612b255742905b338552601960205260408520936040519361298b85614be6565b8b855260208501928352604085019081526060850191825260808501928b845260a0860194855260ff60c087019916895260e08601968888526101008701988952805490600160401b821015612b0b57906129eb91600182018155614a90565b969096612af35793600693612a3d9793612a569b9a99979360ff975186555160018601555160028501555160038401555160048301555160058201550194511660ff19855416178455511515836150d8565b51815462ff0000191690151560101b62ff000016179055565b338a52601960205260408a20545f198101908111612adf57905f5160206157ae5f395f51905f52612aa35f5160206157ce5f395f51905f5297969594936040519182918c89339785614fb7565b0390a4612ab7604051928392339684614ce7565b0390a260405191825260208201525f51602061576e5f395f51905f5260403392a36001815580f35b634e487b7160e01b8b52601160045260248bfd5b505050505060248f634e487b7160e01b815280600452fd5b50505050505060248f634e487b7160e01b81526041600452fd5b612b2f8842614b2f565b90612971565b60405162461bcd60e51b8152602060048201526013602482015272109bdb9d5cc81c1bdbdb08195e18d959591959606a1b6044820152606490fd5b60405162461bcd60e51b815260206004820152601460248201527310985cd9481cdd5c1c1b1e48195e18d95959195960621b6044820152606490fd5b60405162461bcd60e51b81526020600482015260126024820152710457863656564732077616c6c6574206361760741b6044820152606490fd5b60405162461bcd60e51b8152602060048201526014602482015273115e18d959591cc81c195c8b5d1e081b1a5b5a5d60621b6044820152606490fd5b61287189606461286b601495612865565b905062ed4e008403612c5257600a9061287189606461286b601e612865565b6276a7008403612c6f5760149061287189606461286b600f612865565b83612c8557606490612871898361286b8f612865565b631786a8e360e31b8b5260048bfd5b50600160ff89161461284c565b636b8868b760e11b8b5260048bfd5b630309b6bb60e41b8b5260048bfd5b60405162461bcd60e51b815260206004820152600860248201526714dbdb19081bdd5d60c21b6044820152606490fd5b60405162461bcd60e51b8152602060048201526005602482015264115b99195960da1b6044820152606490fd5b60405162461bcd60e51b815260206004820152600b60248201526a139bdd081cdd185c9d195960aa1b6044820152606490fd5b60405162461bcd60e51b8152602060048201526014602482015273151bdad95b9cc81b9bdd0819195c1bdcda5d195960621b6044820152606490fd5b338a52602160205260408a2080546001600160a01b0319168a1790556127e7565b634e487b7160e01b8c52601160045260248cfd5b634e487b7160e01b8a52601160045260248afd5b601203612dea575064e8d4a510008304906126a4565b620f4240840290848204620f42401485151715612e1a5790612e0e612e1492614c69565b90614c7a565b906126a4565b634e487b7160e01b88526011600452602488fd5b612e50915060203d602011612e56575b612e488183614c02565b810190614c3d565b5f612692565b503d612e3e565b6040513d89823e3d90fd5b50338a1415612647565b63923de0f760e01b8852600488fd5b6319eaf3dd60e31b8852600488fd5b612eb2915060203d602011612eb8575b612eaa8183614c02565b810190614c25565b5f612621565b503d612ea0565b6040513d8b823e3d90fd5b503461057f57602036600319011261057f576020610837612ee9614a01565b615132565b503461057f578060031936011261057f576020600154604051908152f35b503461057f578060031936011261057f57602060ff601354166040519015158152f35b503461057f57604036600319011261057f57612f496149b5565b6001600160a01b031681526019602052604081208054602435929083101561057f57610120612f788484614a90565b5060ff815491600181015490600281015460038201546004830154916006600585015494015494604051978852602088015260408701526060860152608085015260a084015281811660c0840152818160081c16151560e084015260101c161515610100820152f35b503461057f578060031936011261057f576020604051620151808152f35b503461057f578060031936011261057f57608060ff600e5460081c16601154613026615264565b90916040519315158452602084015260408301526060820152f35b614a3b565b503461057f57604036600319011261057f576130606149b5565b6130686153b9565b61307660ff601354166150f0565b6007546001600160a01b031680151590816130e6575b50156130ac576109399060243590309033906001600160a01b0316615456565b60405162461bcd60e51b815260206004820152601260248201527124b73b30b634b21039ba30b13632b1b7b4b760711b6044820152606490fd5b604051633af32abf60e01b81526001600160a01b03841660048201529150602090829060249082905afa908115612238578391613125575b505f61308c565b61313e915060203d602011612eb857612eaa8183614c02565b5f61311e565b503461057f578060031936011261057f576020600654604051908152f35b503461057f57602036600319011261057f576004356001600160401b038111611add57613193903690600401614a60565b9061319c6153fa565b6131a7821515614fd3565b6131b4603283111561500f565b8291835b8181106131d4575050508015610fdb57610f8d81600d54614b2f565b6131df81838561504e565b3533865260196020526131f76040872054821061505e565b60018201808311611ac9575b838110613278575061322090338752601960205260408720614a90565b5060068101805460ff8160081c16158061326b575b613245575b5050506001016131b8565b61ff00191661010017905560020154909360019161326291614b2f565b93905f8061323a565b5060028301541515613235565b936001839695613291611aa7839a96888699979961504e565b01909495929650929092613203565b503461057f578060031936011261057f57602060405161c3508152f35b503461057f57602036600319011261057f576020906040906001600160a01b036132e56149b5565b168152601d83522054604051908152f35b503461057f578060031936011261057f576020601854604051908152f35b503461057f578060031936011261057f57602060ff60045460181c166040519015158152f35b50604036600319011261057f576004356133526149cb565b9061335b6153fa565b61336361543b565b60ff60045460181c16156138df5761337961516e565b156138d057613391662386f26fc10000341015614dc6565b6133a261339c614b3c565b15614e02565b6001600160a01b038216916133da90831515806138c6575b6133c390614f2d565b838552601960205261266660408620541515614f70565b6018543a116138b75764e8d4a510006133f560055434614c56565b049061340334601254614b2f565b60125561341282601154614b2f565b60115533845260146020526040842061342c838254614b2f565b9055338452601560205260408420613445348254614b2f565b905561347a84808080347f00000000000000000000000000000000000000000000000000000000000000005af1610933614e72565b613491600264e8d4a5100061119b60055434614c56565b61349a81615537565b6003810292811593828104600314851715611ac95760649004938260011b908382046002141715611ac9576064900492858752601c602052604087206134e1868254614b2f565b9055858752601e60205260408720805490600182018092116138a3575561350b6127b08587614b2f565b601f5561351a85602054614b2f565b60209081553388526021905260408720546001600160a01b031615613882575b60ff6022541615612d4f576008544210612d1c576009544211612cef57600a546a1cf389cd46047d03000000811015612cbf5733885260196020526064604089205410156138735787156138145760149061359c86606461286b8c5b89614c56565b916135a78387614b2f565b90690a968163f0a57b4000008211612be65760646135c68c9284614c56565b04916969e10de76676d08000006135f38260406135e38783614cda565b95338152601a6020522054614b2f565b11612bac576a1cf389cd46047d0300000061360e8986614b2f565b11612b7057600b546a0c685fa11e01ec6f00000061362f6129058884614b2f565b11612b355785613645916129258f978c90614b2f565b600b5561365481600c54614b2f565b600c55338452601a60205261366e60408520918254614b2f565b9055338352601b60205242604084205584155f1461380557425b33845260196020526040842092604051926136a284614be6565b898452602084019687526040840191825260608401908152608084019188835260a0850193845260c08501976002895260e08601968888526101008701988952805490600160401b8210156137ee579061370191600182018155614a90565b9690966137d85793600693612a3d97936137539b9a99979360ff975186555160018601555160028501555160038401555160048301555160058201550194511660ff19855416178455511515836150d8565b338752601960205260408720545f198101908111612e1a575f51602061580e5f395f51905f526040518061378b339489893485614fb7565b0390a36040519160028352602083015260408201525f5160206157ce5f395f51905f5260603392a260405191825260208201525f51602061576e5f395f51905f5260403392a36001815580f35b5050634e487b7160e01b8f5260048f905260248ffd5b50505060248f634e487b7160e01b81526041600452fd5b61380f8542614b2f565b613688565b62ed4e00820361383157600a9061359c86606461286b601e613596565b6276a700820361384e5760149061359c86606461286b600f613596565b816138645760649061359c868361286b5f613596565b631786a8e360e31b5f5260045ffd5b630309b6bb60e41b8852600488fd5b33875260216020526040872080546001600160a01b0319168717905561353a565b634e487b7160e01b89526011600452602489fd5b6304687a5760e21b8352600483fd5b50338414156133ba565b63923de0f760e01b8352600483fd5b633aa29fe360e11b8352600483fd5b503461057f57602036600319011261057f57602061083761390d614a01565b614ef2565b60203660031901126107b1576004356139296153fa565b61393161543b565b60ff60045460181c1615613d5b5761394761516e565b15613d4c5761395f662386f26fc10000341015614dc6565b61396a61339c614b3c565b6018543a11613d3d5764e8d4a5100061398560055434614c56565b0461399234601254614b2f565b6012556139a181601154614b2f565b601155335f52601460205260405f206139bb828254614b2f565b9055335f52601560205260405f206139d4348254614b2f565b9055613a095f808080347f00000000000000000000000000000000000000000000000000000000000000005af1610933614e72565b613a20600264e8d4a5100061119b60055434614c56565b91613a2a83615537565b60ff6022541615612d4f576008544210612d1c576009544211612cef57600a546a1cf389cd46047d03000000811015612cbf57335f526019602052606460405f20541015613d2e5762ed4e008203613cf657600a6064613a8c601e5b87614c56565b0490613a988287614b2f565b90690a968163f0a57b4000008211612be657613ab660649183614c56565b0490613ac28282614cda565b93335f52601a6020526969e10de76676d0800000613ae48360405f2054614b2f565b11612bac576a1cf389cd46047d03000000613aff8983614b2f565b11612b7057600b54906a0c685fa11e01ec6f000000613b216129058785614b2f565b11612b3557613b35916129258a8793614b2f565b600b55613b4481600c54614b2f565b600c55335f52601a602052613b5e60405f20918254614b2f565b9055335f52601b6020524260405f205583155f14613ce65742905b335f52601960205260405f209160405193613b9385614be6565b888552602085019081526040850192835260608501958652608085019487865260a0810192835260c08101956002875260e08201935f85526101008301965f88528054600160401b811015613cd257613bf191600182018155614a90565b929092613cbf57613c3d99612a3d9760ff966006965186555160018601555160028501555160038401555160048301555160058201550194511660ff19855416178455511515836150d8565b335f52601960205260405f20545f198101908111613cab57604051903482528460208301525f604083015260608201525f51602061580e5f395f51905f5260803392a36040519160028352602083015260408201525f5160206157ce5f395f51905f5260603392a260015f55005b634e487b7160e01b5f52601160045260245ffd5b634e487b7160e01b5f525f60045260245ffd5b634e487b7160e01b5f52604160045260245ffd5b613cf08442614b2f565b90613b79565b6276a7008203613d0e5760146064613a8c600f613a86565b8161386457606480613a8c5f613a86565b636b8868b760e11b5f5260045ffd5b630309b6bb60e41b5f5260045ffd5b6304687a5760e21b5f5260045ffd5b63923de0f760e01b5f5260045ffd5b633aa29fe360e11b5f5260045ffd5b346107b15760403660031901126107b157602061083761149e6149f1565b346107b1575f3660031901126107b1576040517f00000000000000000000000000000000000000000000000000000000000000006001600160a01b03168152602090f35b346107b1575f3660031901126107b1576020601154604051908152f35b346107b15760203660031901126107b1576020610837600435614d85565b346107b15760403660031901126107b157613e206149b5565b613e286149cb565b6001600160a01b039182165f908152601660209081526040808320949093168252928352819020549051908152f35b346107b15760203660031901126107b1576001600160a01b03613e786149b5565b165f52601c602052602060405f2054604051908152f35b346107b1575f3660031901126107b157600954421180613ee6575b80613ed9575b80613ec3575b6020906040519015158152f35b50600a546a073ce27351811f40c0000011613eb6565b5060ff6013541615613eb0565b5060ff600e5460081c1615613eaa565b346107b1575f3660031901126107b157602060ff602254166040519015158152f35b346107b15760203660031901126107b1576001600160a01b03613f396149b5565b165f52601b602052602060405f2054604051908152f35b346107b15760203660031901126107b157600435613f6c6153b9565b60175460ff81166140455760095491824210156140365780159182158061402b575b15613ff25760019060ff1916176017556201518081029181830462015180141715613cab57613fe06040927fa095c4b8373a09958c95a652bd8f237db5879d31ff458552e6f5ce8fd2bf504b94614b2f565b908160095582519182526020820152a1005b60405162461bcd60e51b815260206004820152601160248201527024b73b30b634b21032bc3a32b739b4b7b760791b6044820152606490fd5b50601e821115613f8e565b63d629498560e01b5f5260045ffd5b6355455cd560e11b5f5260045ffd5b346107b1575f3660031901126107b15761406c6153fa565b60ff600e5460081c161561415757335f52601c60205261409d60405f2054335f52601d60205260405f205490614cda565b801561411557335f52601d60205260405f206140ba828254614b2f565b90556140c881600d54614b2f565b600d556140f681337f000000000000000000000000000000000000000000000000000000000000000061560f565b6040519081525f51602061578e5f395f51905f5260203392a260015f55005b60405162461bcd60e51b815260206004820152601a6024820152794e6f20726566657272616c20626f6e757320746f20636c61696d60301b6044820152606490fd5b60405162461bcd60e51b8152602060048201526015602482015274141c995cd85b19481b9bdd08199a5b985b1a5e9959605a1b6044820152606490fd5b346107b1575f3660031901126107b1576020600854604051908152f35b346107b1575f3660031901126107b1576020604051629896808152f35b346107b1575f3660031901126107b1576020604051620111708152f35b346107b15760203660031901126107b1577fb80d1ae5628c2af91424c54c87acfd15016be4bebeef0425b328238702f348316020614227614a11565b61422f6153b9565b151560ff19600e541660ff821617600e55604051908152a1005b346107b1575f3660031901126107b1576020600554604051908152f35b346107b15760203660031901126107b1576001600160a01b036142876149b5565b165f52601960205260405f2080549061429f82614d00565b916142ad6040519384614c02565b8083526020830180925f5260205f205f915b838310614367578486604051918291602083019060208452518091526040830191905f5b8181106142f1575050500390f35b919350916020610120600192610100875180518352848101518584015260408101516040840152606081015160608401526080810151608084015260a081015160a084015260ff60c08201511660c084015260e0810151151560e0840152015115156101008201520194019101918493926142e3565b6007602060019261437785614d17565b8152019201920191906142bf565b346107b15760803660031901126107b15761439e6149b5565b6024356143a96149e1565b91606435906143b66153fa565b6143be61543b565b6143cc60ff60225416614b5d565b6007546001600160a01b03166143e3811515614ba8565b604051633af32abf60e01b81526001600160a01b039092166004830181905291602081602481855afa908115614864575f9161487e575b501561486f5761442985615193565b15613d4c576020602491604051928380926323b95ceb60e21b82528660048301525afa908115614864575f91614845575b5060ff81166006810361480757505082915b61447b62989680841015614c98565b6144a7847f00000000000000000000000000000000000000000000000000000000000000003385615456565b335f52601660205260405f20825f5260205260405f206144c8858254614b2f565b9055335f52601460205260405f206144e1848254614b2f565b90556144ef83601154614b2f565b6011556144fc8584614dbc565b916145078387615573565b60ff6022541615612d4f576008544210612d1c576009544211612cef57600a546a1cf389cd46047d03000000811015612cbf57335f526019602052606460405f20541015613d2e5761455887614ef2565b8310613d1f5760ff871680158080156147fd575b156147bb575f90156147ae576064614587600a925b88614c56565b04906145938288614b2f565b90690a968163f0a57b4000008211612be6576145b160649183614c56565b04906145bd8282614cda565b94335f52601a6020526969e10de76676d08000006145df8360405f2054614b2f565b11612bac576a1cf389cd46047d030000006145fa8a83614b2f565b11612b7057600b54906a0c685fa11e01ec6f00000061461c6129058785614b2f565b11612b3557614630916129258b8793614b2f565b600b5561463f81600c54614b2f565b600c55335f52601a60205261465960405f20918254614b2f565b9055335f52601b6020524260405f205585155f1461479f57425b335f52601960205260405f209260405161468c81614be6565b8981526020810191825260408101938452606081019687526080810189815260a0820193845260c0820196875260e08201935f85526101008301965f88528054600160401b811015613cd2576146e791600182018155614a90565b929092613cbf5761473399612a3d9760ff966006965186555160018601555160028501555160038401555160048301555160058201550194511660ff19855416178455511515836150d8565b335f52601960205260405f2054945f198601958611613cab575f5160206157ce5f395f51905f52956040519182528460208301525f604083015260608201525f5160206157ae5f395f51905f5260803392a4614796604051928392339684614ce7565b0390a260015f55005b6147a98642614b2f565b614673565b6064614587601492614581565b5062ed4e0084036147d457600a6064614587601e614581565b6276a70084036147ec5760146064614587600f614581565b83613864576064806145875f614581565b506001821461456c565b60120361481d575064e8d4a5100083049161446c565b620f42408402848104620f42401485151715613cab57612e0e61483f92614c69565b9161446c565b61485e915060203d602011612e5657612e488183614c02565b8561445a565b6040513d5f823e3d90fd5b6319eaf3dd60e31b5f5260045ffd5b614897915060203d602011612eb857612eaa8183614c02565b8661441a565b346107b1575f3660031901126107b15760206040516969e10de76676d08000008152f35b346107b1575f3660031901126107b15760206118f1614b3c565b346107b1575f3660031901126107b157602060ff60045460081c166040519015158152f35b346107b15760203660031901126107b15760043561491c6153b9565b6103e8811015806149a8575b1561496a5760407f8ada4546c77a7e35ede2f59028a5e375180a9aefab2a7360004d5460f6f4ae299160055490806005554260065582519182526020820152a1005b60405162461bcd60e51b815260206004820152601660248201527550533a207072696365206f7574206f662072616e676560501b6044820152606490fd5b50620186a0811115614928565b600435906001600160a01b03821682036107b157565b602435906001600160a01b03821682036107b157565b6044359060ff821682036107b157565b6024359060ff821682036107b157565b6004359060ff821682036107b157565b6004359081151582036107b157565b346107b1575f3660031901126107b157602060405160648152f35b346107b1575f3660031901126107b15760206040516a0c685fa11e01ec6f0000008152f35b9181601f840112156107b1578235916001600160401b0383116107b1576020808501948460051b0101116107b157565b8054821015614aa9575f52600760205f20910201905f90565b634e487b7160e01b5f52603260045260245ffd5b346107b1575f3660031901126107b15760206040515f8152f35b346107b1575f3660031901126107b157602060405162278d008152f35b346107b1575f3660031901126107b15760206040516a084595161401484a0000008152f35b6040919493926060820195825260208201520152565b91908201809211613cab57565b6006548015614b5757620151808101809111613cab57421190565b50600190565b15614b6457565b60405162461bcd60e51b815260206004820152601c60248201527b1414ce881d1bdad95b9cc81b9bdd081e595d0819195c1bdcda5d195960221b6044820152606490fd5b15614baf57565b60405162461bcd60e51b815260206004820152600f60248201526e50533a206e6f20726567697374727960881b6044820152606490fd5b61012081019081106001600160401b03821117613cd257604052565b601f909101601f19168101906001600160401b03821190821017613cd257604052565b908160209103126107b1575180151581036107b15790565b908160209103126107b1575160ff811681036107b15790565b81810292918115918404141715613cab57565b60ff16604d8111613cab57600a0a90565b8115614c84570490565b634e487b7160e01b5f52601260045260245ffd5b15614c9f57565b60405162461bcd60e51b815260206004820152601360248201527242656c6f77206d696e696d756d20282431302960681b6044820152606490fd5b91908203918211613cab57565b60409194939260ff606083019616825260208201520152565b6001600160401b038111613cd25760051b60200190565b90604051614d2481614be6565b61010060ff600683958054855260018101546020860152600281015460408601526003810154606086015260048101546080860152600581015460a0860152015481811660c0850152818160081c16151560e085015260101c161515910152565b614d8f6002615132565b670de0b6b3a7640000820291808304670de0b6b3a76400001490151715613cab57614db991614c7a565b90565b90614d8f90615132565b15614dcd57565b60405162461bcd60e51b815260206004820152600d60248201526c42656c6f77206d696e696d756d60981b6044820152606490fd5b15614e0957565b60405162461bcd60e51b815260206004820152603b60248201527f50533a20455448207072696365207374616c65202d2075736520737461626c6560448201527a636f696e206f72207761697420666f722044414f2075706461746560281b6064820152608490fd5b3d15614eab573d906001600160401b038211613cd25760405191614ea0601f8201601f191660200184614c02565b82523d5f602084013e565b606090565b15614eb757565b60405162461bcd60e51b8152602060048201526013602482015272115512081d1c985b9cd9995c8819985a5b1959606a1b6044820152606490fd5b60ff168015614f255760018114614f1d57600214614f1957632496383d60e11b5f5260045ffd5b5f90565b506276a70090565b5062ed4e0090565b15614f3457565b60405162461bcd60e51b815260206004820152601460248201527328299d1034b73b30b634b2103932b332b93932b960611b6044820152606490fd5b15614f7757565b60405162461bcd60e51b815260206004820152601860248201527728299d103932b332b93932b9103737ba103090313abcb2b960411b6044820152606490fd5b9094939260609260808301968352602083015260408201520152565b15614fda57565b60405162461bcd60e51b815260206004820152600d60248201526c456d70747920696e646963657360981b6044820152606490fd5b1561501657565b60405162461bcd60e51b815260206004820152601060248201526f546f6f206d616e7920696e646963657360801b6044820152606490fd5b9190811015614aa95760051b0190565b1561506557565b60405162461bcd60e51b815260206004820152600d60248201526c092dcecc2d8d2c840d2dcc8caf609b1b6044820152606490fd5b156150a157565b60405162461bcd60e51b815260206004820152600f60248201526e088eae0d8d2c6c2e8ca40d2dcc8caf608b1b6044820152606490fd5b9061ff00825491151560081b169061ff001916179055565b156150f757565b60405162461bcd60e51b81526020600482015260136024820152721499599d5b991cc81b9bdd08195b98589b1959606a1b6044820152606490fd5b60ff16801561516757600181146151605760021461515957632496383d60e11b5f5260045ffd5b6201117090565b5061c35090565b5061753090565b60ff60045460101c168061517f5790565b506a0c685fa11e01ec6f0000006003541090565b60ff1680156151d557600181146151af5760021461516e575f90565b5060ff60045460081c16806151c15790565b506a084595161401484a0000006002541090565b5060ff60045416806151e45790565b506a084595161401484a0000006001541090565b156151ff57565b60405162461bcd60e51b815260206004820152603760248201527f496e73756666696369656e742062616c616e6365202d207472656173757279206044820152761b5d5cdd08199d5b99081c99599d5b991cc8199a5c9cdd604a1b6064820152608490fd5b6011549065011d37b09a0082116152cb57620186a0915b670de0b6b3a7640000810290808204670de0b6b3a76400001490151715613cab57826152a691614c7a565b906a211654585005212800000082116152bb57565b6a21165458500521280000009150565b65023a6f61340082106152e257620222e09161527b565b65011d37b099ff198201828111613cab5780619c400290619c40820403613cab5765011d37b09a009004620186a00180620186a011613cab579161527b565b60ff168015615393576001811461536d5760021461534857632496383d60e11b5f5260045ffd5b6003546a0c685fa11e01ec6f000000036a0c685fa11e01ec6f0000008111613cab5790565b506002546a084595161401484a000000036a084595161401484a0000008111613cab5790565b506001546a084595161401484a000000036a084595161401484a0000008111613cab5790565b7f00000000000000000000000000000000000000000000000000000000000000006001600160a01b031633036153eb57565b63ed90f6c560e01b5f5260045ffd5b60015f54036154095760025f55565b60405162461bcd60e51b815260206004820152600a6024820152697265656e7472616e637960b01b6044820152606490fd5b60ff600e541661544757565b6320a5816f60e01b5f5260045ffd5b6040516323b872dd60e01b602082019081526001600160a01b0393841660248301529390921660448301526064808301949094529281525f928392909183906154a0608482614c02565b51926001600160a01b03165af16154b5614e72565b81615508575b50156154c357565b60405162461bcd60e51b815260206004820152601e60248201527f5361666545524332303a207472616e7366657246726f6d206661696c656400006044820152606490fd5b805180159250821561551d575b50505f6154bb565b6155309250602080918301019101614c25565b5f80615515565b600354906a0c685fa11e01ec6f0000006155518284614b2f565b116155645761555f91614b2f565b600355565b639b2f6ffb60e01b5f5260045ffd5b60ff16806155a95750600154906a084595161401484a0000006155968284614b2f565b11615564576155a491614b2f565b600155565b600181036155df5750600254906a084595161401484a0000006155cc8284614b2f565b11615564576155da91614b2f565b600255565b60020361560057600354906a0c685fa11e01ec6f0000006155518284614b2f565b632496383d60e11b5f5260045ffd5b5f929183809360405190602082019363a9059cbb60e01b855260018060a01b03166024830152604482015260448152615649606482614c02565b51926001600160a01b03165af161565e614e72565b816156ae575b501561566c57565b60405162461bcd60e51b815260206004820152601a60248201527914d85999515490cc8c0e881d1c985b9cd9995c8819985a5b195960321b6044820152606490fd5b80518015925082156156c3575b50505f615664565b6156d69250602080918301019101614c25565b5f806156bb565b905f915b600560ff8416106156f157509050565b6001600160a01b039081165f9081526021602052604090205416918215615768573383146157255760010160ff16916156e1565b60405162461bcd60e51b815260206004820152601b60248201527a28299d1031b4b931bab630b9103932b332b93930b61031b430b4b760291b6044820152606490fd5b50905056fef95152c639649d46e24f22c64e5edf85b78ecf514bddcbe5433f2bfd324eebf3680c53b41d1344847a313cf24f7b677176839ae55a586501d0a709a249ee67de22034cf4a7590b407077d80291aff4dc04b88fe379b554b199b7c833e27a08145c7cdcf78199c06dbc355a5c9a4a7b64eeea44163fdf9498edcea5e7606e66e3358fe4192934d3bf28ae181feda1f4bd08ca67f5e2fad55582cce5eb67304ae9ce9f9735cf311db121203b8990506d127ab9d5731e2f077041e20e74d815033fa8d7e3e561a74b1c3c78636dae0b89c79b5b47649f34f9c39d2f49e2e0fcb260a26469706673582212203642756e4f7b21c7906c7e31c51b08027970f7fdedc97042021740bc0e4b84cc64736f6c634300081e0033","linkReferences":{}},"methodIdentifiers":{"BASE_SUPPLY()":"baf13a0a","BONUS_180_DAYS()":"77884104","BONUS_90_DAYS()":"7304eb8d","BONUS_NO_LOCK()":"5ff7cd9f","BONUS_POOL()":"4d2a44a8","DAO()":"98fabd3a","ETH_PRICE_STALENESS()":"52c6fd1b","IMMEDIATE_180_DAYS()":"9c799229","IMMEDIATE_90_DAYS()":"9eeb3e11","IMMEDIATE_NO_LOCK()":"29edb7a1","LOCK_180_DAYS()":"82865218","LOCK_90_DAYS()":"e37c3a55","LOCK_NONE()":"93809212","MAX_EXTENSION()":"93a101f6","MAX_PER_WALLET()":"0f2cdd6c","MAX_PURCHASES_PER_WALLET()":"94f90cca","MAX_REFERRAL_CHAIN_DEPTH()":"c1a21f37","MINIMUM_GOAL()":"e518a471","MINIMUM_GOAL_USD()":"f35038c1","MIN_PURCHASE_ETH()":"91733956","MIN_PURCHASE_USD()":"1aae8491","REFEREE_BONUS()":"7bfb15eb","REFERRER_BONUS()":"ec2d2938","SALE_DURATION()":"6d79207c","TIER_0_CAP()":"c2c1befe","TIER_0_PRICE()":"e06937dd","TIER_1_CAP()":"830ced52","TIER_1_PRICE()":"4608eb77","TIER_2_CAP()":"301dd027","TIER_2_PRICE()":"179fc164","TOTAL_SUPPLY()":"902d55a5","TREASURY()":"2d2c5565","buyTokens(uint256)":"3610724e","buyTokensWithReferral(uint256,address)":"3bfbe239","buyWithStable(address,uint256,uint8,uint256)":"0f4173f7","buyWithStableReferral(address,uint256,uint8,uint256,address)":"599377ab","calculateListingPrice()":"ca569857","calculateTokens(uint256)":"71aa60fd","calculateTokensFromEth(uint256)":"ee52bec1","calculateTokensFromEthTier(uint256,uint8)":"c50db2f8","calculateTokensFromUsd(uint256)":"27787a9c","calculateTokensFromUsdPreview(uint256,uint8)":"bf87024a","calculateTokensFromUsdTier(uint256,uint8)":"2fc8f2f4","canClaimRefund(address)":"8cca8f64","canClaimStableRefund(address,address)":"8b24374c","cancelPurchase(uint256)":"c3634ddc","claimAll()":"d1058e59","claimImmediate(uint256[])":"4680d229","claimLocked(uint256[])":"aa52ac1d","claimReferralBonus()":"1e375ab9","claimRefund()":"b5545a3c","claimStableRefund(address)":"f36cf3e4","depositTokens()":"7c4b414d","emergencyWithdraw()":"db2e21bc","enableRefunds()":"8c52dc41","ethAccepted()":"3c24c5c0","ethContributed(address)":"f96f5b35","ethPriceLastUpdated()":"4737ec70","ethPriceUsd()":"16061dbf","extendSale(uint256)":"1f1886e4","finalizePresale()":"a0a6e940","finalized()":"b3f05b97","fundRefunds()":"96b1c00e","fundStableRefunds(address,uint256)":"4c9e04d7","getAllPurchases(address)":"1107bc98","getFinalizationDetails()":"507cc47e","getPresaleStats()":"a56b94f3","getPurchaseDetails(address,uint256)":"c322937e","getRaiseStats()":"b2ebbda7","getRefundStatus(address)":"65c2944e","getTierPrice(uint8)":"5586402d","getTierRemaining(uint8)":"e8dc71ef","getTierRequiredLock(uint8)":"3bbc810e","getUserDashboard(address)":"faaf8076","getUserInfo(address)":"6386c1c7","getUserStableContributions(address,address[])":"d75466eb","isEthPriceStale()":"08c0a8d6","isTierAvailable(uint8)":"ac7a68b7","lastPurchaseTime(address)":"227a14c1","listingPrice()":"c78f19f9","lpVfideAmount()":"cf4b850d","maxGasPrice()":"3de39c11","paused()":"5c975abb","purchases(address,uint256)":"52d3f849","recoverUnclaimedRefunds()":"ebadef63","referralBonusClaimed(address)":"42cd128b","referralBonusEarned(address)":"255f2431","referralCount(address)":"db74559b","referrerOf(address)":"d21cacdf","refundDeadline()":"e1aa1bcc","refundsEnabled()":"532f1179","saleEndTime()":"ed338ff1","saleExtended()":"f4b16b94","saleStartTime()":"1cbaee2d","setEthAccepted(bool)":"77c0c5e2","setEthPrice(uint256)":"009f9262","setMaxGasPrice(uint256)":"d2fa635e","setPaused(bool)":"16c38b3c","setStablecoinRegistry(address)":"eb8a9cfe","setTierEnabled(uint8,bool)":"e1b8fdcc","shouldEnableRefunds()":"22ae8cff","stableContributed(address,address)":"25915ff2","stablecoinRegistry()":"fb85687a","tier0Enabled()":"de763f40","tier0Sold()":"5385b1ed","tier1Enabled()":"013db332","tier1Sold()":"aa138ade","tier2Enabled()":"b96b2223","tier2Sold()":"97690332","tokensDeposited()":"22ae8280","totalAllocated(address)":"ed361b35","totalBaseSold()":"e511e4b7","totalBonusGiven()":"999d350d","totalClaimed()":"d54ad2a1","totalEthRaised()":"c9e904be","totalReferralBonusGiven()":"bf91d366","totalReferrerBonusOnly()":"89bdc5fd","totalSold()":"9106d7ba","totalUsdRaised()":"2cea9442","usdContributed(address)":"60e5f65b","vfideToken()":"b8a71eec","withdrawUnsold(address)":"bb03a1aa"},"id":36}