{"abi":[{"type":"constructor","inputs":[{"name":"_dao","type":"address","internalType":"address"},{"name":"_token","type":"address","internalType":"address"},{"name":"_treasury","type":"address","internalType":"address"},{"name":"_stablecoinRegistry","type":"address","internalType":"address"},{"name":"_startTime","type":"uint256","internalType":"uint256"}],"stateMutability":"nonpayable"},{"type":"function","name":"BASE_SUPPLY","inputs":[],"outputs":[{"name":"","type":"uint256","internalType":"uint256"}],"stateMutability":"view"},{"type":"function","name":"BONUS_180_DAYS","inputs":[],"outputs":[{"name":"","type":"uint256","internalType":"uint256"}],"stateMutability":"view"},{"type":"function","name":"BONUS_90_DAYS","inputs":[],"outputs":[{"name":"","type":"uint256","internalType":"uint256"}],"stateMutability":"view"},{"type":"function","name":"BONUS_NO_LOCK","inputs":[],"outputs":[{"name":"","type":"uint256","internalType":"uint256"}],"stateMutability":"view"},{"type":"function","name":"BONUS_POOL","inputs":[],"outputs":[{"name":"","type":"uint256","internalType":"uint256"}],"stateMutability":"view"},{"type":"function","name":"DAO","inputs":[],"outputs":[{"name":"","type":"address","internalType":"address"}],"stateMutability":"view"},{"type":"function","name":"ETH_PRICE_STALENESS","inputs":[],"outputs":[{"name":"","type":"uint256","internalType":"uint256"}],"stateMutability":"view"},{"type":"function","name":"IMMEDIATE_180_DAYS","inputs":[],"outputs":[{"name":"","type":"uint256","internalType":"uint256"}],"stateMutability":"view"},{"type":"function","name":"IMMEDIATE_90_DAYS","inputs":[],"outputs":[{"name":"","type":"uint256","internalType":"uint256"}],"stateMutability":"view"},{"type":"function","name":"IMMEDIATE_NO_LOCK","inputs":[],"outputs":[{"name":"","type":"uint256","internalType":"uint256"}],"stateMutability":"view"},{"type":"function","name":"LOCK_180_DAYS","inputs":[],"outputs":[{"name":"","type":"uint256","internalType":"uint256"}],"stateMutability":"view"},{"type":"function","name":"LOCK_90_DAYS","inputs":[],"outputs":[{"name":"","type":"uint256","internalType":"uint256"}],"stateMutability":"view"},{"type":"function","name":"LOCK_NONE","inputs":[],"outputs":[{"name":"","type":"uint256","internalType":"uint256"}],"stateMutability":"view"},{"type":"function","name":"MAX_EXTENSION","inputs":[],"outputs":[{"name":"","type":"uint256","internalType":"uint256"}],"stateMutability":"view"},{"type":"function","name":"MAX_PER_WALLET","inputs":[],"outputs":[{"name":"","type":"uint256","internalType":"uint256"}],"stateMutability":"view"},{"type":"function","name":"MAX_PURCHASES_PER_WALLET","inputs":[],"outputs":[{"name":"","type":"uint256","internalType":"uint256"}],"stateMutability":"view"},{"type":"function","name":"MAX_REFERRAL_CHAIN_DEPTH","inputs":[],"outputs":[{"name":"","type":"uint8","internalType":"uint8"}],"stateMutability":"view"},{"type":"function","name":"MINIMUM_GOAL","inputs":[],"outputs":[{"name":"","type":"uint256","internalType":"uint256"}],"stateMutability":"view"},{"type":"function","name":"MINIMUM_GOAL_USD","inputs":[],"outputs":[{"name":"","type":"uint256","internalType":"uint256"}],"stateMutability":"view"},{"type":"function","name":"MIN_PURCHASE_ETH","inputs":[],"outputs":[{"name":"","type":"uint256","internalType":"uint256"}],"stateMutability":"view"},{"type":"function","name":"MIN_PURCHASE_USD","inputs":[],"outputs":[{"name":"","type":"uint256","internalType":"uint256"}],"stateMutability":"view"},{"type":"function","name":"REFEREE_BONUS","inputs":[],"outputs":[{"name":"","type":"uint256","internalType":"uint256"}],"stateMutability":"view"},{"type":"function","name":"REFERRER_BONUS","inputs":[],"outputs":[{"name":"","type":"uint256","internalType":"uint256"}],"stateMutability":"view"},{"type":"function","name":"SALE_DURATION","inputs":[],"outputs":[{"name":"","type":"uint256","internalType":"uint256"}],"stateMutability":"view"},{"type":"function","name":"TIER_0_CAP","inputs":[],"outputs":[{"name":"","type":"uint256","internalType":"uint256"}],"stateMutability":"view"},{"type":"function","name":"TIER_0_PRICE","inputs":[],"outputs":[{"name":"","type":"uint256","internalType":"uint256"}],"stateMutability":"view"},{"type":"function","name":"TIER_1_CAP","inputs":[],"outputs":[{"name":"","type":"uint256","internalType":"uint256"}],"stateMutability":"view"},{"type":"function","name":"TIER_1_PRICE","inputs":[],"outputs":[{"name":"","type":"uint256","internalType":"uint256"}],"stateMutability":"view"},{"type":"function","name":"TIER_2_CAP","inputs":[],"outputs":[{"name":"","type":"uint256","internalType":"uint256"}],"stateMutability":"view"},{"type":"function","name":"TIER_2_PRICE","inputs":[],"outputs":[{"name":"","type":"uint256","internalType":"uint256"}],"stateMutability":"view"},{"type":"function","name":"TOTAL_SUPPLY","inputs":[],"outputs":[{"name":"","type":"uint256","internalType":"uint256"}],"stateMutability":"view"},{"type":"function","name":"TREASURY","inputs":[],"outputs":[{"name":"","type":"address","internalType":"address"}],"stateMutability":"view"},{"type":"function","name":"buyTokens","inputs":[{"name":"lockPeriod","type":"uint256","internalType":"uint256"}],"outputs":[],"stateMutability":"payable"},{"type":"function","name":"buyTokensWithReferral","inputs":[{"name":"lockPeriod","type":"uint256","internalType":"uint256"},{"name":"referrer","type":"address","internalType":"address"}],"outputs":[],"stateMutability":"payable"},{"type":"function","name":"buyWithStable","inputs":[{"name":"stablecoin","type":"address","internalType":"address"},{"name":"amount","type":"uint256","internalType":"uint256"},{"name":"tier","type":"uint8","internalType":"uint8"},{"name":"lockPeriod","type":"uint256","internalType":"uint256"}],"outputs":[],"stateMutability":"nonpayable"},{"type":"function","name":"buyWithStableReferral","inputs":[{"name":"stablecoin","type":"address","internalType":"address"},{"name":"amount","type":"uint256","internalType":"uint256"},{"name":"tier","type":"uint8","internalType":"uint8"},{"name":"lockPeriod","type":"uint256","internalType":"uint256"},{"name":"referrer","type":"address","internalType":"address"}],"outputs":[],"stateMutability":"nonpayable"},{"type":"function","name":"calculateListingPrice","inputs":[],"outputs":[{"name":"priceUsd","type":"uint256","internalType":"uint256"},{"name":"lpVfide","type":"uint256","internalType":"uint256"}],"stateMutability":"view"},{"type":"function","name":"calculateTokens","inputs":[{"name":"ethAmount","type":"uint256","internalType":"uint256"}],"outputs":[{"name":"base180","type":"uint256","internalType":"uint256"},{"name":"bonus180","type":"uint256","internalType":"uint256"},{"name":"total180","type":"uint256","internalType":"uint256"},{"name":"base90","type":"uint256","internalType":"uint256"},{"name":"bonus90","type":"uint256","internalType":"uint256"},{"name":"total90","type":"uint256","internalType":"uint256"},{"name":"baseNoLock","type":"uint256","internalType":"uint256"},{"name":"bonusNoLock","type":"uint256","internalType":"uint256"},{"name":"totalNoLock","type":"uint256","internalType":"uint256"}],"stateMutability":"view"},{"type":"function","name":"calculateTokensFromEth","inputs":[{"name":"ethAmount","type":"uint256","internalType":"uint256"}],"outputs":[{"name":"baseTokens","type":"uint256","internalType":"uint256"}],"stateMutability":"view"},{"type":"function","name":"calculateTokensFromEthTier","inputs":[{"name":"ethAmount","type":"uint256","internalType":"uint256"},{"name":"tier","type":"uint8","internalType":"uint8"}],"outputs":[{"name":"baseTokens","type":"uint256","internalType":"uint256"}],"stateMutability":"view"},{"type":"function","name":"calculateTokensFromUsd","inputs":[{"name":"usdAmount","type":"uint256","internalType":"uint256"}],"outputs":[{"name":"baseTokens","type":"uint256","internalType":"uint256"}],"stateMutability":"pure"},{"type":"function","name":"calculateTokensFromUsdPreview","inputs":[{"name":"usdAmount","type":"uint256","internalType":"uint256"},{"name":"tier","type":"uint8","internalType":"uint8"}],"outputs":[{"name":"base180","type":"uint256","internalType":"uint256"},{"name":"bonus180","type":"uint256","internalType":"uint256"},{"name":"total180","type":"uint256","internalType":"uint256"},{"name":"base90","type":"uint256","internalType":"uint256"},{"name":"bonus90","type":"uint256","internalType":"uint256"},{"name":"total90","type":"uint256","internalType":"uint256"},{"name":"baseNoLock","type":"uint256","internalType":"uint256"},{"name":"bonusNoLock","type":"uint256","internalType":"uint256"},{"name":"totalNoLock","type":"uint256","internalType":"uint256"}],"stateMutability":"pure"},{"type":"function","name":"calculateTokensFromUsdTier","inputs":[{"name":"usdAmount","type":"uint256","internalType":"uint256"},{"name":"tier","type":"uint8","internalType":"uint8"}],"outputs":[{"name":"baseTokens","type":"uint256","internalType":"uint256"}],"stateMutability":"pure"},{"type":"function","name":"canClaimRefund","inputs":[{"name":"user","type":"address","internalType":"address"}],"outputs":[{"name":"canClaim","type":"bool","internalType":"bool"},{"name":"amount","type":"uint256","internalType":"uint256"}],"stateMutability":"view"},{"type":"function","name":"canClaimStableRefund","inputs":[{"name":"user","type":"address","internalType":"address"},{"name":"stablecoin","type":"address","internalType":"address"}],"outputs":[{"name":"canClaim","type":"bool","internalType":"bool"},{"name":"amount","type":"uint256","internalType":"uint256"}],"stateMutability":"view"},{"type":"function","name":"cancelPurchase","inputs":[{"name":"index","type":"uint256","internalType":"uint256"}],"outputs":[],"stateMutability":"nonpayable"},{"type":"function","name":"claimAll","inputs":[],"outputs":[],"stateMutability":"nonpayable"},{"type":"function","name":"claimImmediate","inputs":[{"name":"indices","type":"uint256[]","internalType":"uint256[]"}],"outputs":[],"stateMutability":"nonpayable"},{"type":"function","name":"claimLocked","inputs":[{"name":"indices","type":"uint256[]","internalType":"uint256[]"}],"outputs":[],"stateMutability":"nonpayable"},{"type":"function","name":"claimReferralBonus","inputs":[],"outputs":[],"stateMutability":"nonpayable"},{"type":"function","name":"claimRefund","inputs":[],"outputs":[],"stateMutability":"nonpayable"},{"type":"function","name":"claimStableRefund","inputs":[{"name":"stablecoin","type":"address","internalType":"address"}],"outputs":[],"stateMutability":"nonpayable"},{"type":"function","name":"depositTokens","inputs":[],"outputs":[],"stateMutability":"nonpayable"},{"type":"function","name":"emergencyWithdraw","inputs":[],"outputs":[],"stateMutability":"nonpayable"},{"type":"function","name":"enableRefunds","inputs":[],"outputs":[],"stateMutability":"nonpayable"},{"type":"function","name":"ethAccepted","inputs":[],"outputs":[{"name":"","type":"bool","internalType":"bool"}],"stateMutability":"view"},{"type":"function","name":"ethContributed","inputs":[{"name":"","type":"address","internalType":"address"}],"outputs":[{"name":"","type":"uint256","internalType":"uint256"}],"stateMutability":"view"},{"type":"function","name":"ethPriceLastUpdated","inputs":[],"outputs":[{"name":"","type":"uint256","internalType":"uint256"}],"stateMutability":"view"},{"type":"function","name":"ethPriceUsd","inputs":[],"outputs":[{"name":"","type":"uint256","internalType":"uint256"}],"stateMutability":"view"},{"type":"function","name":"extendSale","inputs":[{"name":"additionalDays","type":"uint256","internalType":"uint256"}],"outputs":[],"stateMutability":"nonpayable"},{"type":"function","name":"finalizePresale","inputs":[],"outputs":[],"stateMutability":"nonpayable"},{"type":"function","name":"finalized","inputs":[],"outputs":[{"name":"","type":"bool","internalType":"bool"}],"stateMutability":"view"},{"type":"function","name":"fundRefunds","inputs":[],"outputs":[],"stateMutability":"payable"},{"type":"function","name":"fundStableRefunds","inputs":[{"name":"stablecoin","type":"address","internalType":"address"},{"name":"amount","type":"uint256","internalType":"uint256"}],"outputs":[],"stateMutability":"nonpayable"},{"type":"function","name":"getAllPurchases","inputs":[{"name":"user","type":"address","internalType":"address"}],"outputs":[{"name":"records","type":"tuple[]","internalType":"struct VFIDEPresale.PurchaseRecord[]","components":[{"name":"baseAmount","type":"uint256","internalType":"uint256"},{"name":"bonusAmount","type":"uint256","internalType":"uint256"},{"name":"immediateAmount","type":"uint256","internalType":"uint256"},{"name":"lockedAmount","type":"uint256","internalType":"uint256"},{"name":"lockPeriod","type":"uint256","internalType":"uint256"},{"name":"unlockTime","type":"uint256","internalType":"uint256"},{"name":"tier","type":"uint8","internalType":"uint8"},{"name":"immediateClaimed","type":"bool","internalType":"bool"},{"name":"lockedClaimed","type":"bool","internalType":"bool"}]}],"stateMutability":"view"},{"type":"function","name":"getFinalizationDetails","inputs":[],"outputs":[{"name":"isFinalized","type":"bool","internalType":"bool"},{"name":"totalRaisedUsd","type":"uint256","internalType":"uint256"},{"name":"lpTokens","type":"uint256","internalType":"uint256"},{"name":"priceUsd","type":"uint256","internalType":"uint256"}],"stateMutability":"view"},{"type":"function","name":"getPresaleStats","inputs":[],"outputs":[{"name":"sold","type":"uint256","internalType":"uint256"},{"name":"remaining","type":"uint256","internalType":"uint256"},{"name":"raisedUsd","type":"uint256","internalType":"uint256"}],"stateMutability":"view"},{"type":"function","name":"getPurchaseDetails","inputs":[{"name":"user","type":"address","internalType":"address"},{"name":"index","type":"uint256","internalType":"uint256"}],"outputs":[{"name":"baseAmount","type":"uint256","internalType":"uint256"},{"name":"bonusAmount","type":"uint256","internalType":"uint256"},{"name":"immediateAmount","type":"uint256","internalType":"uint256"},{"name":"lockedAmount","type":"uint256","internalType":"uint256"},{"name":"lockPeriod","type":"uint256","internalType":"uint256"},{"name":"unlockTime","type":"uint256","internalType":"uint256"},{"name":"immediateClaimed","type":"bool","internalType":"bool"},{"name":"lockedClaimed","type":"bool","internalType":"bool"}],"stateMutability":"view"},{"type":"function","name":"getRaiseStats","inputs":[],"outputs":[{"name":"usdRaised","type":"uint256","internalType":"uint256"},{"name":"ethRaised","type":"uint256","internalType":"uint256"},{"name":"tokensSold","type":"uint256","internalType":"uint256"},{"name":"tokensRemaining","type":"uint256","internalType":"uint256"},{"name":"goalMet","type":"bool","internalType":"bool"}],"stateMutability":"view"},{"type":"function","name":"getRefundStatus","inputs":[{"name":"user","type":"address","internalType":"address"}],"outputs":[{"name":"ethRefund","type":"uint256","internalType":"uint256"},{"name":"deadline","type":"uint64","internalType":"uint64"},{"name":"expired","type":"bool","internalType":"bool"}],"stateMutability":"view"},{"type":"function","name":"getTierPrice","inputs":[{"name":"tier","type":"uint8","internalType":"uint8"}],"outputs":[{"name":"price","type":"uint256","internalType":"uint256"}],"stateMutability":"pure"},{"type":"function","name":"getTierRemaining","inputs":[{"name":"tier","type":"uint8","internalType":"uint8"}],"outputs":[{"name":"remaining","type":"uint256","internalType":"uint256"}],"stateMutability":"view"},{"type":"function","name":"getTierRequiredLock","inputs":[{"name":"tier","type":"uint8","internalType":"uint8"}],"outputs":[{"name":"requiredLock","type":"uint256","internalType":"uint256"}],"stateMutability":"pure"},{"type":"function","name":"getUserDashboard","inputs":[{"name":"user","type":"address","internalType":"address"}],"outputs":[{"name":"purchaseCount","type":"uint256","internalType":"uint256"},{"name":"totalAllocatedTokens","type":"uint256","internalType":"uint256"},{"name":"ethContributedAmt","type":"uint256","internalType":"uint256"},{"name":"usdContributedAmt","type":"uint256","internalType":"uint256"},{"name":"referralBonusEarnedAmt","type":"uint256","internalType":"uint256"},{"name":"referralBonusClaimedAmt","type":"uint256","internalType":"uint256"},{"name":"referralCountNum","type":"uint256","internalType":"uint256"},{"name":"referredBy","type":"address","internalType":"address"}],"stateMutability":"view"},{"type":"function","name":"getUserInfo","inputs":[{"name":"user","type":"address","internalType":"address"}],"outputs":[{"name":"purchaseCount","type":"uint256","internalType":"uint256"},{"name":"totalAmount","type":"uint256","internalType":"uint256"},{"name":"totalBase","type":"uint256","internalType":"uint256"},{"name":"totalBonus","type":"uint256","internalType":"uint256"},{"name":"claimableImmediate","type":"uint256","internalType":"uint256"},{"name":"claimableLocked","type":"uint256","internalType":"uint256"},{"name":"stillLocked","type":"uint256","internalType":"uint256"}],"stateMutability":"view"},{"type":"function","name":"getUserStableContributions","inputs":[{"name":"user","type":"address","internalType":"address"},{"name":"stablecoins","type":"address[]","internalType":"address[]"}],"outputs":[{"name":"amounts","type":"uint256[]","internalType":"uint256[]"}],"stateMutability":"view"},{"type":"function","name":"isEthPriceStale","inputs":[],"outputs":[{"name":"","type":"bool","internalType":"bool"}],"stateMutability":"view"},{"type":"function","name":"isTierAvailable","inputs":[{"name":"tier","type":"uint8","internalType":"uint8"}],"outputs":[{"name":"available","type":"bool","internalType":"bool"}],"stateMutability":"view"},{"type":"function","name":"lastPurchaseTime","inputs":[{"name":"","type":"address","internalType":"address"}],"outputs":[{"name":"","type":"uint256","internalType":"uint256"}],"stateMutability":"view"},{"type":"function","name":"listingPrice","inputs":[],"outputs":[{"name":"","type":"uint256","internalType":"uint256"}],"stateMutability":"view"},{"type":"function","name":"lpVfideAmount","inputs":[],"outputs":[{"name":"","type":"uint256","internalType":"uint256"}],"stateMutability":"view"},{"type":"function","name":"maxGasPrice","inputs":[],"outputs":[{"name":"","type":"uint256","internalType":"uint256"}],"stateMutability":"view"},{"type":"function","name":"paused","inputs":[],"outputs":[{"name":"","type":"bool","internalType":"bool"}],"stateMutability":"view"},{"type":"function","name":"purchases","inputs":[{"name":"","type":"address","internalType":"address"},{"name":"","type":"uint256","internalType":"uint256"}],"outputs":[{"name":"baseAmount","type":"uint256","internalType":"uint256"},{"name":"bonusAmount","type":"uint256","internalType":"uint256"},{"name":"immediateAmount","type":"uint256","internalType":"uint256"},{"name":"lockedAmount","type":"uint256","internalType":"uint256"},{"name":"lockPeriod","type":"uint256","internalType":"uint256"},{"name":"unlockTime","type":"uint256","internalType":"uint256"},{"name":"tier","type":"uint8","internalType":"uint8"},{"name":"immediateClaimed","type":"bool","internalType":"bool"},{"name":"lockedClaimed","type":"bool","internalType":"bool"}],"stateMutability":"view"},{"type":"function","name":"recoverUnclaimedRefunds","inputs":[],"outputs":[],"stateMutability":"nonpayable"},{"type":"function","name":"referralBonusClaimed","inputs":[{"name":"","type":"address","internalType":"address"}],"outputs":[{"name":"","type":"uint256","internalType":"uint256"}],"stateMutability":"view"},{"type":"function","name":"referralBonusEarned","inputs":[{"name":"","type":"address","internalType":"address"}],"outputs":[{"name":"","type":"uint256","internalType":"uint256"}],"stateMutability":"view"},{"type":"function","name":"referralCount","inputs":[{"name":"","type":"address","internalType":"address"}],"outputs":[{"name":"","type":"uint256","internalType":"uint256"}],"stateMutability":"view"},{"type":"function","name":"referrerOf","inputs":[{"name":"","type":"address","internalType":"address"}],"outputs":[{"name":"","type":"address","internalType":"address"}],"stateMutability":"view"},{"type":"function","name":"refundDeadline","inputs":[],"outputs":[{"name":"","type":"uint64","internalType":"uint64"}],"stateMutability":"view"},{"type":"function","name":"refundsEnabled","inputs":[],"outputs":[{"name":"","type":"bool","internalType":"bool"}],"stateMutability":"view"},{"type":"function","name":"saleEndTime","inputs":[],"outputs":[{"name":"","type":"uint256","internalType":"uint256"}],"stateMutability":"view"},{"type":"function","name":"saleExtended","inputs":[],"outputs":[{"name":"","type":"bool","internalType":"bool"}],"stateMutability":"view"},{"type":"function","name":"saleStartTime","inputs":[],"outputs":[{"name":"","type":"uint256","internalType":"uint256"}],"stateMutability":"view"},{"type":"function","name":"setEthAccepted","inputs":[{"name":"accepted","type":"bool","internalType":"bool"}],"outputs":[],"stateMutability":"nonpayable"},{"type":"function","name":"setEthPrice","inputs":[{"name":"newPrice","type":"uint256","internalType":"uint256"}],"outputs":[],"stateMutability":"nonpayable"},{"type":"function","name":"setMaxGasPrice","inputs":[{"name":"newMaxGasPrice","type":"uint256","internalType":"uint256"}],"outputs":[],"stateMutability":"nonpayable"},{"type":"function","name":"setPaused","inputs":[{"name":"_paused","type":"bool","internalType":"bool"}],"outputs":[],"stateMutability":"nonpayable"},{"type":"function","name":"setStablecoinRegistry","inputs":[{"name":"_registry","type":"address","internalType":"address"}],"outputs":[],"stateMutability":"nonpayable"},{"type":"function","name":"setTierEnabled","inputs":[{"name":"tier","type":"uint8","internalType":"uint8"},{"name":"enabled","type":"bool","internalType":"bool"}],"outputs":[],"stateMutability":"nonpayable"},{"type":"function","name":"shouldEnableRefunds","inputs":[],"outputs":[{"name":"shouldEnable","type":"bool","internalType":"bool"}],"stateMutability":"view"},{"type":"function","name":"stableContributed","inputs":[{"name":"","type":"address","internalType":"address"},{"name":"","type":"address","internalType":"address"}],"outputs":[{"name":"","type":"uint256","internalType":"uint256"}],"stateMutability":"view"},{"type":"function","name":"stablecoinRegistry","inputs":[],"outputs":[{"name":"","type":"address","internalType":"contract IStablecoinRegistry"}],"stateMutability":"view"},{"type":"function","name":"tier0Enabled","inputs":[],"outputs":[{"name":"","type":"bool","internalType":"bool"}],"stateMutability":"view"},{"type":"function","name":"tier0Sold","inputs":[],"outputs":[{"name":"","type":"uint256","internalType":"uint256"}],"stateMutability":"view"},{"type":"function","name":"tier1Enabled","inputs":[],"outputs":[{"name":"","type":"bool","internalType":"bool"}],"stateMutability":"view"},{"type":"function","name":"tier1Sold","inputs":[],"outputs":[{"name":"","type":"uint256","internalType":"uint256"}],"stateMutability":"view"},{"type":"function","name":"tier2Enabled","inputs":[],"outputs":[{"name":"","type":"bool","internalType":"bool"}],"stateMutability":"view"},{"type":"function","name":"tier2Sold","inputs":[],"outputs":[{"name":"","type":"uint256","internalType":"uint256"}],"stateMutability":"view"},{"type":"function","name":"tokensDeposited","inputs":[],"outputs":[{"name":"","type":"bool","internalType":"bool"}],"stateMutability":"view"},{"type":"function","name":"totalAllocated","inputs":[{"name":"","type":"address","internalType":"address"}],"outputs":[{"name":"","type":"uint256","internalType":"uint256"}],"stateMutability":"view"},{"type":"function","name":"totalBaseSold","inputs":[],"outputs":[{"name":"","type":"uint256","internalType":"uint256"}],"stateMutability":"view"},{"type":"function","name":"totalBonusGiven","inputs":[],"outputs":[{"name":"","type":"uint256","internalType":"uint256"}],"stateMutability":"view"},{"type":"function","name":"totalClaimed","inputs":[],"outputs":[{"name":"","type":"uint256","internalType":"uint256"}],"stateMutability":"view"},{"type":"function","name":"totalEthRaised","inputs":[],"outputs":[{"name":"","type":"uint256","internalType":"uint256"}],"stateMutability":"view"},{"type":"function","name":"totalReferralBonusGiven","inputs":[],"outputs":[{"name":"","type":"uint256","internalType":"uint256"}],"stateMutability":"view"},{"type":"function","name":"totalReferrerBonusOnly","inputs":[],"outputs":[{"name":"","type":"uint256","internalType":"uint256"}],"stateMutability":"view"},{"type":"function","name":"totalSold","inputs":[],"outputs":[{"name":"","type":"uint256","internalType":"uint256"}],"stateMutability":"view"},{"type":"function","name":"totalUsdRaised","inputs":[],"outputs":[{"name":"","type":"uint256","internalType":"uint256"}],"stateMutability":"view"},{"type":"function","name":"usdContributed","inputs":[{"name":"","type":"address","internalType":"address"}],"outputs":[{"name":"","type":"uint256","internalType":"uint256"}],"stateMutability":"view"},{"type":"function","name":"vfideToken","inputs":[],"outputs":[{"name":"","type":"address","internalType":"contract IERC20"}],"stateMutability":"view"},{"type":"function","name":"withdrawUnsold","inputs":[{"name":"recipient","type":"address","internalType":"address"}],"outputs":[],"stateMutability":"nonpayable"},{"type":"event","name":"ClaimImmediate","inputs":[{"name":"user","type":"address","indexed":true,"internalType":"address"},{"name":"amount","type":"uint256","indexed":false,"internalType":"uint256"}],"anonymous":false},{"type":"event","name":"ClaimLocked","inputs":[{"name":"user","type":"address","indexed":true,"internalType":"address"},{"name":"amount","type":"uint256","indexed":false,"internalType":"uint256"}],"anonymous":false},{"type":"event","name":"ETHPriceUpdated","inputs":[{"name":"oldPrice","type":"uint256","indexed":false,"internalType":"uint256"},{"name":"newPrice","type":"uint256","indexed":false,"internalType":"uint256"}],"anonymous":false},{"type":"event","name":"EmergencyPause","inputs":[{"name":"paused","type":"bool","indexed":false,"internalType":"bool"}],"anonymous":false},{"type":"event","name":"MaxGasPriceUpdated","inputs":[{"name":"oldPrice","type":"uint256","indexed":false,"internalType":"uint256"},{"name":"newPrice","type":"uint256","indexed":false,"internalType":"uint256"}],"anonymous":false},{"type":"event","name":"PresaleFinalized","inputs":[{"name":"ethRaised","type":"uint256","indexed":false,"internalType":"uint256"},{"name":"lpVfide","type":"uint256","indexed":false,"internalType":"uint256"},{"name":"listingPrice","type":"uint256","indexed":false,"internalType":"uint256"}],"anonymous":false},{"type":"event","name":"Purchase","inputs":[{"name":"buyer","type":"address","indexed":true,"internalType":"address"},{"name":"lockPeriod","type":"uint256","indexed":true,"internalType":"uint256"},{"name":"ethSpent","type":"uint256","indexed":false,"internalType":"uint256"},{"name":"baseTokens","type":"uint256","indexed":false,"internalType":"uint256"},{"name":"bonusTokens","type":"uint256","indexed":false,"internalType":"uint256"},{"name":"purchaseIndex","type":"uint256","indexed":false,"internalType":"uint256"}],"anonymous":false},{"type":"event","name":"PurchaseCancelled","inputs":[{"name":"buyer","type":"address","indexed":true,"internalType":"address"},{"name":"index","type":"uint256","indexed":true,"internalType":"uint256"},{"name":"tokensReturned","type":"uint256","indexed":false,"internalType":"uint256"}],"anonymous":false},{"type":"event","name":"ReferralPurchase","inputs":[{"name":"buyer","type":"address","indexed":true,"internalType":"address"},{"name":"referrer","type":"address","indexed":true,"internalType":"address"},{"name":"referrerBonus","type":"uint256","indexed":false,"internalType":"uint256"},{"name":"refereeBonus","type":"uint256","indexed":false,"internalType":"uint256"}],"anonymous":false},{"type":"event","name":"RefundClaimed","inputs":[{"name":"user","type":"address","indexed":true,"internalType":"address"},{"name":"amount","type":"uint256","indexed":false,"internalType":"uint256"}],"anonymous":false},{"type":"event","name":"RefundsEnabled","inputs":[{"name":"timestamp","type":"uint256","indexed":false,"internalType":"uint256"}],"anonymous":false},{"type":"event","name":"SaleExtended","inputs":[{"name":"newEndTime","type":"uint256","indexed":false,"internalType":"uint256"},{"name":"additionalDays","type":"uint256","indexed":false,"internalType":"uint256"}],"anonymous":false},{"type":"event","name":"StablePurchase","inputs":[{"name":"buyer","type":"address","indexed":true,"internalType":"address"},{"name":"stablecoin","type":"address","indexed":true,"internalType":"address"},{"name":"lockPeriod","type":"uint256","indexed":true,"internalType":"uint256"},{"name":"stableAmount","type":"uint256","indexed":false,"internalType":"uint256"},{"name":"baseTokens","type":"uint256","indexed":false,"internalType":"uint256"},{"name":"bonusTokens","type":"uint256","indexed":false,"internalType":"uint256"},{"name":"purchaseIndex","type":"uint256","indexed":false,"internalType":"uint256"}],"anonymous":false},{"type":"event","name":"StablecoinRegistryUpdated","inputs":[{"name":"oldRegistry","type":"address","indexed":false,"internalType":"address"},{"name":"newRegistry","type":"address","indexed":false,"internalType":"address"}],"anonymous":false},{"type":"event","name":"SubscriptionCancelled","inputs":[{"name":"index","type":"uint256","indexed":true,"internalType":"uint256"}],"anonymous":false},{"type":"event","name":"TierEnabled","inputs":[{"name":"tier","type":"uint8","indexed":false,"internalType":"uint8"},{"name":"enabled","type":"bool","indexed":false,"internalType":"bool"}],"anonymous":false},{"type":"event","name":"TieredPurchase","inputs":[{"name":"buyer","type":"address","indexed":true,"internalType":"address"},{"name":"tier","type":"uint8","indexed":false,"internalType":"uint8"},{"name":"baseTokens","type":"uint256","indexed":false,"internalType":"uint256"},{"name":"usdPaid","type":"uint256","indexed":false,"internalType":"uint256"}],"anonymous":false},{"type":"error","name":"PS_AlreadyExtended","inputs":[]},{"type":"error","name":"PS_AlreadyFinalized","inputs":[]},{"type":"error","name":"PS_CannotExtend","inputs":[]},{"type":"error","name":"PS_ETHNotAccepted","inputs":[]},{"type":"error","name":"PS_GasPriceTooHigh","inputs":[]},{"type":"error","name":"PS_GoalAlreadyMet","inputs":[]},{"type":"error","name":"PS_InvalidLockPeriod","inputs":[]},{"type":"error","name":"PS_InvalidStablecoin","inputs":[]},{"type":"error","name":"PS_InvalidTier","inputs":[]},{"type":"error","name":"PS_LockNotExpired","inputs":[]},{"type":"error","name":"PS_MinimumGoalNotMet","inputs":[]},{"type":"error","name":"PS_NoRefundAvailable","inputs":[]},{"type":"error","name":"PS_NoTokens","inputs":[]},{"type":"error","name":"PS_NotDAO","inputs":[]},{"type":"error","name":"PS_Paused","inputs":[]},{"type":"error","name":"PS_RefundsNotEnabled","inputs":[]},{"type":"error","name":"PS_TierDisabled","inputs":[]},{"type":"error","name":"PS_TierLockRequired","inputs":[]},{"type":"error","name":"PS_TierSoldOut","inputs":[]},{"type":"error","name":"PS_TooManyPurchases","inputs":[]},{"type":"error","name":"PS_Zero","inputs":[]}],"bytecode":{"object":"0x60e03461021457601f615b3038819003918201601f19168301916001600160401b038311848410176102185780849260a094604052833981010312610214576100478161022c565b906100546020820161022c565b6100606040830161022c565b90608061006f6060850161022c565b93015160015f556004805463ffffffff19166301010101179055610dac60055564746a528800601855936001600160a01b038116158015610203575b80156101f2575b6101e3574285106101aa576080526001600160a01b0390811660c05260a0919091521680610190575b508060085562278d00810180911161017c576009556040516158ef9081610241823960805181818161091e01528181610c9a01528181611e8001526154e2015260a051818181611d1f015281816127420152818161351801528181613aee01528181613ed101526145cb015260c051818181610fe7015281816116450152818161173f015281816119ed01528181611c71015281816121e701526142060152f35b634e487b7160e01b5f52601160045260245ffd5b600780546001600160a01b0319169190911790555f6100db565b60405162461bcd60e51b81526020600482015260116024820152701414ce881cdd185c9d081a5b881c185cdd607a1b6044820152606490fd5b6327e3e2d960e21b5f5260045ffd5b506001600160a01b038316156100b2565b506001600160a01b038216156100ab565b5f80fd5b634e487b7160e01b5f52604160045260245ffd5b51906001600160a01b03821682036102145756fe60806040526004361015610011575f80fd5b5f5f3560e01c80629f926214614a79578063013db33214614a5457806308c0a8d614614a3a5780630f2cdd6c14614a165780630f4173f7146144cf5780631107bc98146143b057806316061dbf1461439357806316c38b3c14614335578063179fc164146143185780631aae8491146142fb5780631cbaee2d146142de5780631e375ab9146141885780631f1886e414614084578063227a14c11461404c57806322ae82801461402a57806322ae8cff14613fc3578063255f243114613f8b57806325915ff214613f3b57806327787a9c14613f1d57806329edb7a114611eef5780632cea944214613f005780632d2c556514613ebc5780632fc8f2f414613e9e578063301dd027146131075780633610724e14613a205780633bbc810e146139fc5780633bfbe239146134015780633c24c5c0146133db5780633de39c11146133bd57806342cd128b146133845780634608eb77146133675780634680d229146132285780634737ec701461320a5780634c9e04d71461310c5780634d2a44a814613107578063507cc47e146130c557806352c6fd1b146130a757806352d3f84914612ff5578063532f117914612fd25780635385b1ed14612fb45780635586402d14612f90578063599377ab146125fc5780635c975abb146125d95780635ff7cd9f14611ef957806360e5f65b146125a05780636386c1c71461246857806365c2944e146123fd5780636d79207c14611ef457806371aa60fd146123d45780637304eb8d146123b8578063778841041461239c57806377c0c5e21461235c5780637bfb15eb146123405780637c4b414d1461219e5780638286521814612180578063830ced52146114a557806389bdc5fd146121635780638b24374c146120fc5780638c52dc4114611fbb5780638cca8f6414611f64578063902d55a514611f3e5780639106d7ba14611f205780639173395614611efe5780639380921214611ef957806393a101f614611ef457806394f90cca14611eef57806396b1c00e14611ecd5780639769033214611eaf57806398fabd3a14611e6a578063999d350d14611e4c5780639c79922914611e305780639eeb3e1114611e14578063a0a6e94014611bec578063a56b94f314611b76578063aa138ade14611b58578063aa52ac1d14611971578063ac7a68b714611943578063b2ebbda71461188a578063b3f05b9714611864578063b5545a3c1461176e578063b8a71eec14611729578063b96b222314611703578063baf13a0a146116dd578063bb03a1aa146115c7578063bf87024a146114e4578063bf91d366146114c6578063c1a21f37146114aa578063c2c1befe146114a5578063c322937e146113ee578063c3634ddc14611204578063c50db2f8146111cb578063c78f19f9146111ad578063c9e904be1461118f578063ca56985714611168578063cf4b850d1461114a578063d1058e5914610f93578063d21cacdf14610f52578063d2fa635e14610e9e578063d54ad2a114610e80578063d75466eb14610d4a578063db2e21bc14610c58578063db74559b14610c1f578063de763f4014610bfc578063e06937dd14610bdf578063e1aa1bcc14610bb4578063e1b8fdcc14610a98578063e37c3a5514610a7a578063e511e4b714610a5c578063e518a47114610a36578063e8dc71ef14610a12578063eb8a9cfe1461099f578063ebadef63146108c5578063ec2d2938146108a9578063ed338ff11461088b578063ed361b3514610852578063ee52bec114610819578063f35038c1146107f9578063f36cf3e4146106a6578063f4b16b9414610683578063f96f5b351461064a578063faaf8076146105825763fb85687a14610557575f80fd5b3461057f578060031936011261057f576007546040516001600160a01b039091168152602090f35b80fd5b503461057f57602036600319011261057f57610100906001600160a01b036105a8614b2e565b16908181526019602052604081205491808252601a6020526040822054918181526015602052604081205482825260146020526040822054838352601c602052604083205491848452601d602052604084205493858152601e60205260408120549581526021602052604060018060a01b039120541695604051978852602088015260408701526060860152608085015260a084015260c083015260e0820152f35b503461057f57602036600319011261057f576020906040906001600160a01b03610672614b2e565b168152601583522054604051908152f35b503461057f578060031936011261057f57602060ff601754166040519015158152f35b503461057f57602036600319011261057f576106c0614b2e565b6106c8615521565b60ff60135416156107ea5733825260166020526040822060018060a01b0382165f5260205260405f20549081156107db573383526016602090815260408085206001600160a01b03939093165f81815293835292819020859055516370a0823160e01b81523060048201529081602481855afa80156107d05783918591610795575b509161075b82610762941015615319565b3390615736565b6040519081527f358fe4192934d3bf28ae181feda1f4bd08ca67f5e2fad55582cce5eb67304ae960203392a26001815580f35b9150506020813d6020116107c8575b816107b160209383614d68565b810103126107c45751829061075b61074a565b5f80fd5b3d91506107a4565b6040513d86823e3d90fd5b635ae852db60e01b8352600483fd5b632549a0f560e21b8252600482fd5b503461057f578060031936011261057f576020604051648e9bd84d008152f35b503461057f57602036600319011261057f57602061084a64e8d4a51000610844600554600435614dbb565b04614ed2565b604051908152f35b503461057f57602036600319011261057f576020906040906001600160a01b0361087a614b2e565b168152601a83522054604051908152f35b503461057f578060031936011261057f576020600954604051908152f35b503461057f578060031936011261057f57602060405160038152f35b503461057f578060031936011261057f576108de6154e0565b6108ec60ff60135416615211565b67ffffffffffffffff60225460081c168015159081610995575b501561095057476109145780f35b61094d81808080477f00000000000000000000000000000000000000000000000000000000000000005af1610947614fc1565b50615000565b80f35b60405162461bcd60e51b815260206004820152601960248201527f526566756e6420706572696f64206e6f742065787069726564000000000000006044820152606490fd5b905042115f610906565b503461057f57602036600319011261057f577fff8d8c00233e47494f2e83bb5617519a20292abac49bf4ae29247a4d9d413a7960406109dc614b2e565b6109e46154e0565b600780546001600160a01b039283166001600160a01b0319821681179092558351921682526020820152a180f35b503461057f57602036600319011261057f57602061084a610a31614b7a565b615448565b503461057f578060031936011261057f5760206040516a073ce27351811f40c000008152f35b503461057f578060031936011261057f576020600a54604051908152f35b503461057f578060031936011261057f5760206040516276a7008152f35b503461057f57604036600319011261057f57610ab2614b7a565b602435908115158092036107c45760ff90610acb6154e0565b169081610b15577fa8d7e3e561a74b1c3c78636dae0b89c79b5b47649f34f9c39d2f49e2e0fcb2609160409160ff196004541660ff8216176004555b82519182526020820152a180f35b60018203610b5c577fa8d7e3e561a74b1c3c78636dae0b89c79b5b47649f34f9c39d2f49e2e0fcb2609160409160045461ff008260081b169061ff00191617600455610b07565b60028203610ba5577fa8d7e3e561a74b1c3c78636dae0b89c79b5b47649f34f9c39d2f49e2e0fcb2609160409160045462ff00008260101b169062ff0000191617600455610b07565b632496383d60e11b8352600483fd5b503461057f578060031936011261057f57602067ffffffffffffffff60225460081c16604051908152f35b503461057f578060031936011261057f5760206040516175308152f35b503461057f578060031936011261057f57602060ff600454166040519015158152f35b503461057f57602036600319011261057f576020906040906001600160a01b03610c47614b2e565b168152601e83522054604051908152f35b503461057f578060031936011261057f57610c716154e0565b60085442108015610d2d575b15610cf657478015610cc4578180808061094d9460018060a01b037f0000000000000000000000000000000000000000000000000000000000000000165af1610947614fc1565b60405162461bcd60e51b815260206004820152600a6024820152694e6f2062616c616e636560b01b6044820152606490fd5b60405162461bcd60e51b815260206004820152600f60248201526e43616e6e6f7420776974686472617760881b6044820152606490fd5b5060ff600e5460081c168015610c7d575060ff6013541615610c7d565b503461057f57604036600319011261057f57610d64614b2e565b60243567ffffffffffffffff8111610e7c57610d84903690600401614bd9565b91610d8e83614e4c565b91610d9c6040519384614d68565b838352610da884614e4c565b602084019490601f19013686376001600160a01b0390921691855b818110610e0e57868587604051928392602084019060208552518091526040840192915b818110610df5575050500390f35b8251845285945060209384019390920191600101610de7565b838752601660205260408720610e25828486615187565b356001600160a01b0381168103610e785760018060a01b03165f5260205260405f20548551821015610e6457600582901b860160200152600101610dc3565b634e487b7160e01b88526032600452602488fd5b8880fd5b8280fd5b503461057f578060031936011261057f576020600d54604051908152f35b503461057f57602036600319011261057f57600435610ebb6154e0565b64174876e80081101580610f42575b15610f095760407fb1daf6a9ad2299bf65e68bf739b901d006349eb874677e4b9ce28e208bd41c2791601854908060185582519182526020820152a180f35b60405162461bcd60e51b8152602060048201526011602482015270496e76616c69642067617320707269636560781b6044820152606490fd5b506501d1a94a2000811115610eca565b503461057f57602036600319011261057f576020906001600160a01b03610f77614b2e565b16815260218252604060018060a01b0391205416604051908152f35b503461057f578060031936011261057f57610fac615521565b8033825260196020526040822054801561111657825b81811061104d575050801561103e57610fdd81600d54614c93565b600d5561100b81337f0000000000000000000000000000000000000000000000000000000000000000615736565b6040519081527f680c53b41d1344847a313cf24f7b677176839ae55a586501d0a709a249ee67de60203392a26001815580f35b6335f23dad60e01b8252600482fd5b33845260196020526110628160408620614c0a565b5060068101805460ff8160081c161580611109575b6110e6575b50805460ff8160101c1615806110d9575b806110cb575b6110a3575b505050600101610fc2565b62ff00001916620100001790556003015490926001916110c291614c93565b92905f80611098565b506005830154421015611093565b506003830154151561108d565b61ff001916610100178155600282015490946111029190614c93565b935f61107c565b5060028301541515611077565b60405162461bcd60e51b815260206004820152600c60248201526b4e6f2070757263686173657360a01b6044820152606490fd5b503461057f578060031936011261057f576020601054604051908152f35b503461057f578060031936011261057f57604061118361538b565b82519182526020820152f35b503461057f578060031936011261057f576020601254604051908152f35b503461057f578060031936011261057f576020600f54604051908152f35b503461057f57604036600319011261057f57602061084a6111ea614b6a565b64e8d4a510006111fe600554600435614dbb565b04614f09565b503461057f57602036600319011261057f57600435611221615521565b338252601960205261123860408320548210615197565b338252601960205261124d8160408420614c0a565b5060068101805460ff8160081c161590816113df575b50156113a857815491821561136f57600381866001819401611292611289825489614c93565b97600a54614e3f565b600a556112a28154600b54614e3f565b600b556112b187600c54614e3f565b600c55338252601a602052604082206112cb888254614e3f565b9055855460ff168061133757506112e58354600154614e3f565b6001555b8183555582600282015501556201010062ffff00198254161790556040519081527f5a3ef4ffe684ba69c8082693713e60c04710f506943e370c859329fdab69c52760203392a36001815580f35b60018103611355575061134d8354600254614e3f565b6002556112e9565b6002036112e95761136883548554614e3f565b84556112e9565b60405162461bcd60e51b8152602060048201526011602482015270105b1c9958591e4818d85b98d95b1b1959607a1b6044820152606490fd5b60405162461bcd60e51b815260206004820152600f60248201526e105b1c9958591e4818db185a5b5959608a1b6044820152606490fd5b60ff915060101c16155f611263565b503461057f57604036600319011261057f5761144d611447610100926040611414614b2e565b6001600160a01b031680835260196020528183205460243593919061143a908510615197565b8152601960205220614c0a565b50614e64565b8051906020810151906040810151606082015160808301519060a0840151928760e08601511515950151151595604051978852602088015260408701526060860152608085015260a084015260c083015260e0820152f35b614c6e565b503461057f578060031936011261057f57602060405160058152f35b503461057f578060031936011261057f576020601f54604051908152f35b503461057f57604036600319011261057f57611509611501614b6a565b600435614f09565b601e810290801591818104601e148317156115b357606490049161152d8383614c93565b93600f830291838304600f14171561159f57509080606461159b93046115538183614c93565b90826040519788978289949192610100969399989794919961012087019a8752602087015260408601526060850152608084015260a083015260c08201525f60e08201520152565b0390f35b634e487b7160e01b81526011600452602490fd5b634e487b7160e01b84526011600452602484fd5b503461057f57602036600319011261057f576115e1614b2e565b6115e96154e0565b60ff600e5460081c16156116a8576001600160a01b0381161561166f57600c54806a295be96e6406697200000003906a295be96e6406697200000082116115b3576a295be96e640669720000000361163f578280f35b611669917f0000000000000000000000000000000000000000000000000000000000000000615736565b5f808280f35b60405162461bcd60e51b8152602060048201526011602482015270125b9d985b1a59081c9958da5c1a595b9d607a1b6044820152606490fd5b60405162461bcd60e51b815260206004820152600d60248201526c139bdd08199a5b985b1a5e9959609a1b6044820152606490fd5b503461057f578060031936011261057f5760206040516a1cf389cd46047d030000008152f35b503461057f578060031936011261057f57602060ff60045460101c166040519015158152f35b503461057f578060031936011261057f576040517f00000000000000000000000000000000000000000000000000000000000000006001600160a01b03168152602090f35b503461057f578060031936011261057f57611787615521565b60ff6013541615611855573381526015602052604081205480156118465733825260156020528160408120556117bf81471015615319565b8180808084335af16117cf614fc1565b5015611808576040519081527f358fe4192934d3bf28ae181feda1f4bd08ca67f5e2fad55582cce5eb67304ae960203392a26001815580f35b60405162461bcd60e51b81526020600482015260166024820152751499599d5b99081d1c985b9cd9995c8819985a5b195960521b6044820152606490fd5b635ae852db60e01b8252600482fd5b632549a0f560e21b8152600490fd5b503461057f578060031936011261057f57602060ff600e5460081c166040519015158152f35b503461057f578060031936011261057f57601154601254600c54806a295be96e64066972000000115f1461193a57806a295be96e64066972000000036a295be96e6406697200000081116119265760a09450905b648e9bd84d0084109283159361190d575b60405194855260208501526040840152606083015215156080820152f35b92506a073ce27351811f40c00000600a541015926118ef565b634e487b7160e01b85526011600452602485fd5b60a093906118de565b503461057f57602036600319011261057f576020611967611962614b7a565b6152b4565b6040519015158152f35b503461057f57602036600319011261057f5760043567ffffffffffffffff8111611b54576119a3903690600401614bd9565b6119ab615521565b6119b681151561510c565b6119c36032821115615148565b8291835b828110611a4457505050801561103e576119e381600d54614c93565b600d55611a1181337f0000000000000000000000000000000000000000000000000000000000000000615736565b6040519081527fe309c1fa133ebf52111d7e9ead67247ee4ce7856212925c49dfeea0b841ed45760203392a26001815580f35b611a4f818484615187565b353386526019602052611a6760408720548210615197565b60018201808311611b40575b848110611b065750611a9090338752601960205260408720614c0a565b5060068101805460ff8160101c161580611af9575b611ab5575b5050506001016119c7565b60058397949701544210611aea5762ff000019166201000017905560030154600191611ae19190614c93565b93905f80611aaa565b6352727e0b60e01b8852600488fd5b5060038301541515611aa5565b600190611b32611b1e85888896989b99979a9b615187565b35611b2a838787615187565b3514156151d3565b019594919395929092611a73565b634e487b7160e01b87526011600452602487fd5b5080fd5b503461057f578060031936011261057f576020600254604051908152f35b503461057f578060031936011261057f57600c5490816a295be96e64066972000000115f14611be657816a295be96e6406697200000003906a295be96e64066972000000821161159f5750905b61159b601154604051938493846040919493926060820195825260208201520152565b90611bc3565b503461057f578060031936011261057f57611c056154e0565b600e5460ff8160081c16611e055760095442118015611dee575b15611dba57648e9bd84d006011541080611da4575b611d9557610100611c4361538b565b600f829055601081905561ff0019909316909117600e556040516370a0823160e01b815230600482015291907f00000000000000000000000000000000000000000000000000000000000000006020846024816001600160a01b0385165afa938415611d8a578594611d54575b50611cf47fd4294f2e03dfa3f368c60ae6950d6e90c37101953b6aa279269459a9517f106e94600c54600d548082115f14611d4b57611cee91614e3f565b90614e3f565b80611d19575b505060115460408051918252602082019390935291820152606090a180f35b611d44917f000000000000000000000000000000000000000000000000000000000000000090615736565b5f80611cfa565b50508690614e3f565b93506020843d602011611d82575b81611d6f60209383614d68565b810103126107c457925192611cf4611cb0565b3d9150611d62565b6040513d87823e3d90fd5b630c2df51b60e11b8252600482fd5b506a073ce27351811f40c00000600a5410611c34565b60405162461bcd60e51b815260206004820152600c60248201526b53616c65206f6e676f696e6760a01b6044820152606490fd5b506a1cf389cd46047d03000000600a541015611c1f565b6398c8c30f60e01b8252600482fd5b503461057f578060031936011261057f57602060405160148152f35b503461057f578060031936011261057f576020604051600a8152f35b503461057f578060031936011261057f576020600b54604051908152f35b503461057f578060031936011261057f576040517f00000000000000000000000000000000000000000000000000000000000000006001600160a01b03168152602090f35b503461057f578060031936011261057f576020600354604051908152f35b508060031936011261057f57611ee16154e0565b61094d60ff60135416615211565b614b99565b614c51565b614c37565b503461057f578060031936011261057f576020604051662386f26fc100008152f35b503461057f578060031936011261057f576020600c54604051908152f35b503461057f578060031936011261057f5760206040516a295be96e640669720000008152f35b503461057f57602036600319011261057f576040906001600160a01b03611f89614b2e565b1681526015602052205460ff6013541680611fb2575b6040805191151582526020820192909252f35b50801515611f9f565b503461057f578060031936011261057f57611fd46154e0565b6009544211156120c65760ff600e5460081c1661208d576a073ce27351811f40c00000600a54101561207e57600160ff1960135416176013556276a700420180421161206a5768ffffffffffffffff006022549160081b169068ffffffffffffffff001916176022557f01fd9d9d9f159bbb346cbe96d08df5b61108b672fa79a2d53fb9c67b9717d2736020604051428152a180f35b634e487b7160e01b82526011600452602482fd5b63756cf3e360e11b8152600490fd5b60405162461bcd60e51b8152602060048201526011602482015270105b1c9958591e48199a5b985b1a5e9959607a1b6044820152606490fd5b60405162461bcd60e51b815260206004820152600e60248201526d14d85b19481b9bdd08195b99195960921b6044820152606490fd5b503461057f57604036600319011261057f576040612118614b2e565b91612121614b44565b9260018060a01b031681526016602052209060018060a01b03165f5260205260405f205460ff6013541680611fb2576040805191151582526020820192909252f35b503461057f578060031936011261057f5760208054604051908152f35b503461057f578060031936011261057f57602060405162ed4e008152f35b503461057f578060031936011261057f576121b76154e0565b60225460ff8116612307576008544210156122cb576040516370a0823160e01b81523060048201526020816024817f00000000000000000000000000000000000000000000000000000000000000006001600160a01b03165afa80156122c0578390612283575b6a295be96e6406697200000091501061223e5760ff191660011760225580f35b60405162461bcd60e51b815260206004820152601f60248201527f496e73756666696369656e74207072652d6d696e7465642062616c616e6365006044820152606490fd5b506020813d6020116122b8575b8161229d60209383614d68565b810103126107c4576a295be96e64066972000000905161221e565b3d9150612290565b6040513d85823e3d90fd5b60405162461bcd60e51b815260206004820152601460248201527314d85b1948185b1c9958591e481cdd185c9d195960621b6044820152606490fd5b60405162461bcd60e51b8152602060048201526011602482015270105b1c9958591e4819195c1bdcda5d1959607a1b6044820152606490fd5b503461057f578060031936011261057f57602060405160028152f35b503461057f57602036600319011261057f57612376614b8a565b61237e6154e0565b63ff00000060045491151560181b169063ff00000019161760045580f35b503461057f578060031936011261057f576020604051601e8152f35b503461057f578060031936011261057f576020604051600f8152f35b503461057f57602036600319011261057f5761150964e8d4a51000610844600554600435614dbb565b503461057f57602036600319011261057f576060906040906001600160a01b03612425614b2e565b1681526015602052205467ffffffffffffffff60225460081c16801515908161245d575b604051928352602083015215156040820152f35b809150421190612449565b503461057f57602036600319011261057f57612482614b2e565b6001600160a01b031680825260196020526040822054908290819081908190819081805b8881106124da575050509560e096604051968752602087015260408601526060850152608084015260a083015260c0820152f35b82825260196020526125266124f56114478360408620614c0a565b9561251e61251588519761250f60208b01998a5190614c93565b90614c93565b9c885190614c93565b955190614c93565b9460e08101511561258a575b6101008101511561254a575b506001019892986124a6565b60a0810151919791421061257157600191606061256992015190614c93565b965b9061253e565b6001919798606061258492015190614c93565b9761256b565b9561259a90604088015190614c93565b95612532565b503461057f57602036600319011261057f576020906040906001600160a01b036125c8614b2e565b168152601483522054604051908152f35b503461057f578060031936011261057f57602060ff600e54166040519015158152f35b503461057f5760a036600319011261057f57612616614b2e565b60243590612622614b5a565b6084356001600160a01b038116939190606435908581036107c457612645615521565b61264d615562565b61265b60ff60225416614cc1565b6007546001600160a01b031690612673821515614d0d565b604051633af32abf60e01b81526001600160a01b039096166004870181905295602081602481865afa908115612f85578991612f56575b5015612f47576126b9846152b4565b15612f38576024916126f460209289151580612f2e575b6126d99061507d565b898b52601984526126ef60408c205415156150c0565b615807565b604051928380926323b95ceb60e21b82528960048301525afa908115612f23578791612ef4575b5060ff811660068103612e9a57505082905b61273c62989680831015614dfd565b612768847f0000000000000000000000000000000000000000000000000000000000000000338861557d565b338752601660205260408720855f5260205260405f20612789858254614c93565b90553387526014602052604087206127a2838254614c93565b90556127b082601154614c93565b6011556127bd8383614f09565b906127c8828561569a565b6003820295821596838104600314881715612e865760649004968360011b908482046002141715612e86576064900495888a52601c60205260408a2061280f898254614c93565b9055888a52601e60205260408a2080549060018201809211612e725755612841612839888a614c93565b601f54614c93565b601f5561285088602054614c93565b6020908155338b526021905260408a20546001600160a01b031615612e51575b60ff6022541615612e15576008544210612de2576009544211612db557600a546a1cf389cd46047d03000000811015612d8557338b526019602052606460408c20541015612d76576128c187615042565b8410612d675760ff87161590818015612d5a575b15612cf9578b9115612ce8576128fa8960646128f4600a955b8a614dbb565b04614c93565b916129058388614c93565b92690a968163f0a57b4000008411612cac5760646129248f9386614dbb565b04906969e10de76676d08000006129518660406129418683614e3f565b96338152601a6020522054614c93565b11612c72576a1cf389cd46047d0300000061296c8a86614c93565b11612c3657600b54946a0c685fa11e01ec6f00000061299761298e8489614c93565b60205490614c93565b11612bfb578f94828d976129ae8d6129b694614c93565b600a55614c93565b600b556129c581600c54614c93565b600c55338552601a6020526129df60408620918254614c93565b9055338452601b60205242604085205587155f14612beb5742905b3385526019602052604085209360405193612a1485614d4b565b8b855260208501928352604085019081526060850191825260808501928b845260a0860194855260ff60c087019916895260e08601968888526101008701988952805490600160401b821015612bd15790612a7491600182018155614c0a565b969096612bb95751865551600186015551600285015551600384015551600483015551600582015592516006939093018054915161ffff1990921660ff949094169390931790151560081b61ff0016178255612ae591905b51815462ff0000191690151560101b62ff000016179055565b338a52601960205260408a20545f198101908111612ba5576040805192835260208301869052820188905260608201525f51602061589a5f395f51905f52949392919033907f22034cf4a7590b407077d80291aff4dc04b88fe379b554b199b7c833e27a081490608090a46040805160ff95909516855260208501919091528301523391606090a260405191825260208201527ff95152c639649d46e24f22c64e5edf85b78ecf514bddcbe5433f2bfd324eebf360403392a36001815580f35b634e487b7160e01b8b52601160045260248bfd5b505050505060248f634e487b7160e01b815280600452fd5b50505050505060248f634e487b7160e01b81526041600452fd5b612bf58842614c93565b906129fa565b60405162461bcd60e51b8152602060048201526013602482015272109bdb9d5cc81c1bdbdb08195e18d959591959606a1b6044820152606490fd5b60405162461bcd60e51b815260206004820152601460248201527310985cd9481cdd5c1c1b1e48195e18d95959195960621b6044820152606490fd5b60405162461bcd60e51b81526020600482015260126024820152710457863656564732077616c6c6574206361760741b6044820152606490fd5b60405162461bcd60e51b8152602060048201526014602482015273115e18d959591cc81c195c8b5d1e081b1a5b5a5d60621b6044820152606490fd5b6128fa8960646128f46014956128ee565b905062ed4e008403612d1857600a906128fa8960646128f4601e6128ee565b6276a7008403612d35576014906128fa8960646128f4600f6128ee565b83612d4b576064906128fa89836128f48f6128ee565b631786a8e360e31b8b5260048bfd5b50600160ff8916146128d5565b636b8868b760e11b8b5260048bfd5b630309b6bb60e41b8b5260048bfd5b60405162461bcd60e51b815260206004820152600860248201526714dbdb19081bdd5d60c21b6044820152606490fd5b60405162461bcd60e51b8152602060048201526005602482015264115b99195960da1b6044820152606490fd5b60405162461bcd60e51b815260206004820152600b60248201526a139bdd081cdd185c9d195960aa1b6044820152606490fd5b60405162461bcd60e51b8152602060048201526014602482015273151bdad95b9cc81b9bdd0819195c1bdcda5d195960621b6044820152606490fd5b338a52602160205260408a2080546001600160a01b0319168a179055612870565b634e487b7160e01b8c52601160045260248cfd5b634e487b7160e01b8a52601160045260248afd5b601203612eb0575064e8d4a5100083049061272d565b620f4240840290848204620f42401485151715612ee05790612ed4612eda92614dce565b90614ddf565b9061272d565b634e487b7160e01b88526011600452602488fd5b612f16915060203d602011612f1c575b612f0e8183614d68565b810190614da2565b5f61271b565b503d612f04565b6040513d89823e3d90fd5b50338a14156126d0565b63923de0f760e01b8852600488fd5b6319eaf3dd60e31b8852600488fd5b612f78915060203d602011612f7e575b612f708183614d68565b810190614d8a565b5f6126aa565b503d612f66565b6040513d8b823e3d90fd5b503461057f57602036600319011261057f57602061084a612faf614b7a565b615253565b503461057f578060031936011261057f576020600154604051908152f35b503461057f578060031936011261057f57602060ff601354166040519015158152f35b503461057f57604036600319011261057f5761300f614b2e565b6001600160a01b031681526019602052604081208054602435929083101561057f5761012061303e8484614c0a565b5060ff815491600181015490600281015460038201546004830154916006600585015494015494604051978852602088015260408701526060860152608085015260a084015281811660c0840152818160081c16151560e084015260101c161515610100820152f35b503461057f578060031936011261057f576020604051620151808152f35b503461057f578060031936011261057f57608060ff600e5460081c166011546130ec61538b565b90916040519315158452602084015260408301526060820152f35b614bb4565b503461057f57604036600319011261057f57613126614b2e565b61312e6154e0565b61313c60ff60135416615211565b6007546001600160a01b031680151590816131ac575b50156131725761094d9060243590309033906001600160a01b031661557d565b60405162461bcd60e51b815260206004820152601260248201527124b73b30b634b21039ba30b13632b1b7b4b760711b6044820152606490fd5b604051633af32abf60e01b81526001600160a01b03841660048201529150602090829060249082905afa9081156122c05783916131eb575b505f613152565b613204915060203d602011612f7e57612f708183614d68565b5f6131e4565b503461057f578060031936011261057f576020600654604051908152f35b503461057f57602036600319011261057f5760043567ffffffffffffffff8111611b545761325a903690600401614bd9565b90613263615521565b61326e82151561510c565b61327b6032831115615148565b8291835b81811061329b57505050801561103e57610fdd81600d54614c93565b6132a6818385615187565b3533865260196020526132be60408720548210615197565b60018201808311611b40575b83811061333f57506132e790338752601960205260408720614c0a565b5060068101805460ff8160081c161580613332575b61330c575b50505060010161327f565b61ff00191661010017905560020154909360019161332991614c93565b93905f80613301565b50600283015415156132fc565b936001839695613358611b1e839a968886999799615187565b019094959296509290926132ca565b503461057f578060031936011261057f57602060405161c3508152f35b503461057f57602036600319011261057f576020906040906001600160a01b036133ac614b2e565b168152601d83522054604051908152f35b503461057f578060031936011261057f576020601854604051908152f35b503461057f578060031936011261057f57602060ff60045460181c166040519015158152f35b50604036600319011261057f57600435613419614b44565b90613422615521565b61342a615562565b60ff60045460181c16156139ed5761344061528f565b156139de57613458662386f26fc10000341015614f13565b613469613463614ca0565b15614f4f565b6001600160a01b038216916134a190831515806139d4575b61348a9061507d565b83855260196020526126ef604086205415156150c0565b6018543a116139c55764e8d4a510006134bc60055434614dbb565b04906134ca34601254614c93565b6012556134d982601154614c93565b6011553384526014602052604084206134f3838254614c93565b905533845260156020526040842061350c348254614c93565b905561354184808080347f00000000000000000000000000000000000000000000000000000000000000005af1610947614fc1565b613558600264e8d4a510006111fe60055434614dbb565b6135618161565e565b6003810292811593828104600314851715611b405760649004938260011b908382046002141715611b40576064900492858752601c602052604087206135a8868254614c93565b9055858752601e60205260408720805490600182018092116139b157556135d26128398587614c93565b601f556135e185602054614c93565b60209081553388526021905260408720546001600160a01b031615613990575b60ff6022541615612e15576008544210612de2576009544211612db557600a546a1cf389cd46047d03000000811015612d85573388526019602052606460408920541015613981578715613922576014906136638660646128f48c5b89614dbb565b9161366e8387614c93565b90690a968163f0a57b4000008211612cac57606461368d8c9284614dbb565b04916969e10de76676d08000006136ba8260406136aa8783614e3f565b95338152601a6020522054614c93565b11612c72576a1cf389cd46047d030000006136d58986614c93565b11612c3657600b546a0c685fa11e01ec6f0000006136f661298e8884614c93565b11612bfb578561370c916129ae8f978c90614c93565b600b5561371b81600c54614c93565b600c55338452601a60205261373560408520918254614c93565b9055338352601b60205242604084205584155f1461391357425b338452601960205260408420926040519261376984614d4b565b898452602084019687526040840191825260608401908152608084019188835260a0850193845260c08501976002895260e08601968888526101008701988952805490600160401b8210156138fc57906137c891600182018155614c0a565b9690966138e65751865551600186015551600285015551600384015551600483015551600582015592516006939093018054915161ffff1990921660ff949094169390931790151560081b61ff00161782556138249190612acc565b338752601960205260408720545f198101908111612ee0577fce9f9735cf311db121203b8990506d127ab9d5731e2f077041e20e74d815033f604051806138863394898934859094939260609260808301968352602083015260408201520152565b0390a36040519160028352602083015260408201525f51602061589a5f395f51905f5260603392a260405191825260208201527ff95152c639649d46e24f22c64e5edf85b78ecf514bddcbe5433f2bfd324eebf360403392a36001815580f35b5050634e487b7160e01b8f5260048f905260248ffd5b50505060248f634e487b7160e01b81526041600452fd5b61391d8542614c93565b61374f565b62ed4e00820361393f57600a906136638660646128f4601e61365d565b6276a700820361395c576014906136638660646128f4600f61365d565b816139725760649061366386836128f45f61365d565b631786a8e360e31b5f5260045ffd5b630309b6bb60e41b8852600488fd5b33875260216020526040872080546001600160a01b03191687179055613601565b634e487b7160e01b89526011600452602489fd5b6304687a5760e21b8352600483fd5b5033841415613481565b63923de0f760e01b8352600483fd5b633aa29fe360e11b8352600483fd5b503461057f57602036600319011261057f57602061084a613a1b614b7a565b615042565b60203660031901126107c457600435613a37615521565b613a3f615562565b60ff60045460181c1615613e8f57613a5561528f565b15613e8057613a6d662386f26fc10000341015614f13565b613a78613463614ca0565b6018543a11613e715764e8d4a51000613a9360055434614dbb565b04613aa034601254614c93565b601255613aaf81601154614c93565b601155335f52601460205260405f20613ac9828254614c93565b9055335f52601560205260405f20613ae2348254614c93565b9055613b175f808080347f00000000000000000000000000000000000000000000000000000000000000005af1610947614fc1565b613b2e600264e8d4a510006111fe60055434614dbb565b91613b388361565e565b60ff6022541615612e15576008544210612de2576009544211612db557600a546a1cf389cd46047d03000000811015612d8557335f526019602052606460405f20541015613e625762ed4e008203613e2a57600a6064613b9a601e5b87614dbb565b0490613ba68287614c93565b90690a968163f0a57b4000008211612cac57613bc460649183614dbb565b0490613bd08282614e3f565b93335f52601a6020526969e10de76676d0800000613bf28360405f2054614c93565b11612c72576a1cf389cd46047d03000000613c0d8983614c93565b11612c3657600b54906a0c685fa11e01ec6f000000613c2f61298e8785614c93565b11612bfb57613c43916129ae8a8793614c93565b600b55613c5281600c54614c93565b600c55335f52601a602052613c6c60405f20918254614c93565b9055335f52601b6020524260405f205583155f14613e1a5742905b335f52601960205260405f209160405193613ca185614d4b565b888552602085019081526040850192835260608501958652608085019487865260a0810192835260c08101956002875260e08201935f85526101008301965f88528054600160401b811015613e0657613cff91600182018155614c0a565b929092613df357613d5e99612acc9760ff966006965186555160018601555160028501555160038401555160048301555160058201550194511660ff19855416178455511515839061ff00825491151560081b169061ff001916179055565b335f52601960205260405f20545f198101908111613ddf57604051903482528460208301525f604083015260608201527fce9f9735cf311db121203b8990506d127ab9d5731e2f077041e20e74d815033f60803392a36040519160028352602083015260408201525f51602061589a5f395f51905f5260603392a260015f55005b634e487b7160e01b5f52601160045260245ffd5b634e487b7160e01b5f525f60045260245ffd5b634e487b7160e01b5f52604160045260245ffd5b613e248442614c93565b90613c87565b6276a7008203613e425760146064613b9a600f613b94565b8161397257606480613b9a5f613b94565b636b8868b760e11b5f5260045ffd5b630309b6bb60e41b5f5260045ffd5b6304687a5760e21b5f5260045ffd5b63923de0f760e01b5f5260045ffd5b633aa29fe360e11b5f5260045ffd5b346107c45760403660031901126107c457602061084a611501614b6a565b346107c4575f3660031901126107c4576040517f00000000000000000000000000000000000000000000000000000000000000006001600160a01b03168152602090f35b346107c4575f3660031901126107c4576020601154604051908152f35b346107c45760203660031901126107c457602061084a600435614ed2565b346107c45760403660031901126107c457613f54614b2e565b613f5c614b44565b6001600160a01b039182165f908152601660209081526040808320949093168252928352819020549051908152f35b346107c45760203660031901126107c4576001600160a01b03613fac614b2e565b165f52601c602052602060405f2054604051908152f35b346107c4575f3660031901126107c45760095442118061401a575b8061400d575b80613ff7575b6020906040519015158152f35b50600a546a073ce27351811f40c0000011613fea565b5060ff6013541615613fe4565b5060ff600e5460081c1615613fde565b346107c4575f3660031901126107c457602060ff602254166040519015158152f35b346107c45760203660031901126107c4576001600160a01b0361406d614b2e565b165f52601b602052602060405f2054604051908152f35b346107c45760203660031901126107c4576004356140a06154e0565b60175460ff811661417957600954918242101561416a5780159182158061415f575b156141265760019060ff1916176017556201518081029181830462015180141715613ddf576141146040927fa095c4b8373a09958c95a652bd8f237db5879d31ff458552e6f5ce8fd2bf504b94614c93565b908160095582519182526020820152a1005b60405162461bcd60e51b815260206004820152601160248201527024b73b30b634b21032bc3a32b739b4b7b760791b6044820152606490fd5b50601e8211156140c2565b63d629498560e01b5f5260045ffd5b6355455cd560e11b5f5260045ffd5b346107c4575f3660031901126107c4576141a0615521565b60ff600e5460081c16156142a157335f52601c6020526141d160405f2054335f52601d60205260405f205490614e3f565b801561425c57335f52601d60205260405f206141ee828254614c93565b90556141fc81600d54614c93565b600d5561422a81337f0000000000000000000000000000000000000000000000000000000000000000615736565b6040519081527f680c53b41d1344847a313cf24f7b677176839ae55a586501d0a709a249ee67de60203392a260015f55005b60405162461bcd60e51b815260206004820152601a60248201527f4e6f20726566657272616c20626f6e757320746f20636c61696d0000000000006044820152606490fd5b60405162461bcd60e51b8152602060048201526015602482015274141c995cd85b19481b9bdd08199a5b985b1a5e9959605a1b6044820152606490fd5b346107c4575f3660031901126107c4576020600854604051908152f35b346107c4575f3660031901126107c4576020604051629896808152f35b346107c4575f3660031901126107c4576020604051620111708152f35b346107c45760203660031901126107c4577fb80d1ae5628c2af91424c54c87acfd15016be4bebeef0425b328238702f348316020614371614b8a565b6143796154e0565b151560ff19600e541660ff821617600e55604051908152a1005b346107c4575f3660031901126107c4576020600554604051908152f35b346107c45760203660031901126107c4576001600160a01b036143d1614b2e565b165f52601960205260405f208054906143e982614e4c565b916143f76040519384614d68565b8083526020830180925f5260205f205f915b8383106144b1578486604051918291602083019060208452518091526040830191905f5b81811061443b575050500390f35b919350916020610120600192610100875180518352848101518584015260408101516040840152606081015160608401526080810151608084015260a081015160a084015260ff60c08201511660c084015260e0810151151560e08401520151151561010082015201940191019184939261442d565b600760206001926144c185614e64565b815201920192019190614409565b346107c45760803660031901126107c4576144e8614b2e565b6024356144f3614b5a565b9160643590614500615521565b614508615562565b61451660ff60225416614cc1565b6007546001600160a01b031661452d811515614d0d565b604051633af32abf60e01b81526001600160a01b039092166004830181905291602081602481855afa9081156149dd575f916149f7575b50156149e857614573856152b4565b15613e80576020602491604051928380926323b95ceb60e21b82528660048301525afa9081156149dd575f916149be575b5060ff81166006810361498057505082915b6145c562989680841015614dfd565b6145f1847f0000000000000000000000000000000000000000000000000000000000000000338561557d565b335f52601660205260405f20825f5260205260405f20614612858254614c93565b9055335f52601460205260405f2061462b848254614c93565b905561463983601154614c93565b6011556146468584614f09565b91614651838761569a565b60ff6022541615612e15576008544210612de2576009544211612db557600a546a1cf389cd46047d03000000811015612d8557335f526019602052606460405f20541015613e62576146a287615042565b8310613e535760ff87168015808015614976575b15614934575f90156149275760646146d1600a925b88614dbb565b04906146dd8288614c93565b90690a968163f0a57b4000008211612cac576146fb60649183614dbb565b04906147078282614e3f565b94335f52601a6020526969e10de76676d08000006147298360405f2054614c93565b11612c72576a1cf389cd46047d030000006147448a83614c93565b11612c3657600b54906a0c685fa11e01ec6f00000061476661298e8785614c93565b11612bfb5761477a916129ae8b8793614c93565b600b5561478981600c54614c93565b600c55335f52601a6020526147a360405f20918254614c93565b9055335f52601b6020524260405f205585155f1461491857425b335f52601960205260405f20926040516147d681614d4b565b8981526020810191825260408101938452606081019687526080810189815260a0820193845260c0820196875260e08201935f85526101008301965f88528054600160401b811015613e065761483191600182018155614c0a565b929092613df35761489099612acc9760ff966006965186555160018601555160028501555160038401555160048301555160058201550194511660ff19855416178455511515839061ff00825491151560081b169061ff001916179055565b335f52601960205260405f2054945f198601958611613ddf575f51602061589a5f395f51905f52956040519182528460208301525f604083015260608201527f22034cf4a7590b407077d80291aff4dc04b88fe379b554b199b7c833e27a081460803392a46040805160ff95909516855260208501919091528301523391606090a260015f55005b6149228642614c93565b6147bd565b60646146d16014926146cb565b5062ed4e00840361494d57600a60646146d1601e6146cb565b6276a700840361496557601460646146d1600f6146cb565b83613972576064806146d15f6146cb565b50600182146146b6565b601203614996575064e8d4a510008304916145b6565b620f42408402848104620f42401485151715613ddf57612ed46149b892614dce565b916145b6565b6149d7915060203d602011612f1c57612f0e8183614d68565b856145a4565b6040513d5f823e3d90fd5b6319eaf3dd60e31b5f5260045ffd5b614a10915060203d602011612f7e57612f708183614d68565b86614564565b346107c4575f3660031901126107c45760206040516969e10de76676d08000008152f35b346107c4575f3660031901126107c4576020611967614ca0565b346107c4575f3660031901126107c457602060ff60045460081c166040519015158152f35b346107c45760203660031901126107c457600435614a956154e0565b6103e881101580614b21575b15614ae35760407f8ada4546c77a7e35ede2f59028a5e375180a9aefab2a7360004d5460f6f4ae299160055490806005554260065582519182526020820152a1005b60405162461bcd60e51b815260206004820152601660248201527550533a207072696365206f7574206f662072616e676560501b6044820152606490fd5b50620186a0811115614aa1565b600435906001600160a01b03821682036107c457565b602435906001600160a01b03821682036107c457565b6044359060ff821682036107c457565b6024359060ff821682036107c457565b6004359060ff821682036107c457565b6004359081151582036107c457565b346107c4575f3660031901126107c457602060405160648152f35b346107c4575f3660031901126107c45760206040516a0c685fa11e01ec6f0000008152f35b9181601f840112156107c45782359167ffffffffffffffff83116107c4576020808501948460051b0101116107c457565b8054821015614c23575f52600760205f20910201905f90565b634e487b7160e01b5f52603260045260245ffd5b346107c4575f3660031901126107c45760206040515f8152f35b346107c4575f3660031901126107c457602060405162278d008152f35b346107c4575f3660031901126107c45760206040516a084595161401484a0000008152f35b91908201809211613ddf57565b6006548015614cbb57620151808101809111613ddf57421190565b50600190565b15614cc857565b60405162461bcd60e51b815260206004820152601c60248201527f50533a20746f6b656e73206e6f7420796574206465706f7369746564000000006044820152606490fd5b15614d1457565b60405162461bcd60e51b815260206004820152600f60248201526e50533a206e6f20726567697374727960881b6044820152606490fd5b610120810190811067ffffffffffffffff821117613e0657604052565b90601f8019910116810190811067ffffffffffffffff821117613e0657604052565b908160209103126107c4575180151581036107c45790565b908160209103126107c4575160ff811681036107c45790565b81810292918115918404141715613ddf57565b60ff16604d8111613ddf57600a0a90565b8115614de9570490565b634e487b7160e01b5f52601260045260245ffd5b15614e0457565b60405162461bcd60e51b815260206004820152601360248201527242656c6f77206d696e696d756d20282431302960681b6044820152606490fd5b91908203918211613ddf57565b67ffffffffffffffff8111613e065760051b60200190565b90604051614e7181614d4b565b61010060ff600683958054855260018101546020860152600281015460408601526003810154606086015260048101546080860152600581015460a0860152015481811660c0850152818160081c16151560e085015260101c161515910152565b614edc6002615253565b670de0b6b3a7640000820291808304670de0b6b3a76400001490151715613ddf57614f0691614ddf565b90565b90614edc90615253565b15614f1a57565b60405162461bcd60e51b815260206004820152600d60248201526c42656c6f77206d696e696d756d60981b6044820152606490fd5b15614f5657565b60405162461bcd60e51b815260206004820152603b60248201527f50533a20455448207072696365207374616c65202d2075736520737461626c6560448201527f636f696e206f72207761697420666f722044414f2075706461746500000000006064820152608490fd5b3d15614ffb573d9067ffffffffffffffff8211613e065760405191614ff0601f8201601f191660200184614d68565b82523d5f602084013e565b606090565b1561500757565b60405162461bcd60e51b8152602060048201526013602482015272115512081d1c985b9cd9995c8819985a5b1959606a1b6044820152606490fd5b60ff168015615075576001811461506d5760021461506957632496383d60e11b5f5260045ffd5b5f90565b506276a70090565b5062ed4e0090565b1561508457565b60405162461bcd60e51b815260206004820152601460248201527328299d1034b73b30b634b2103932b332b93932b960611b6044820152606490fd5b156150c757565b60405162461bcd60e51b815260206004820152601860248201527f50533a207265666572726572206e6f74206120627579657200000000000000006044820152606490fd5b1561511357565b60405162461bcd60e51b815260206004820152600d60248201526c456d70747920696e646963657360981b6044820152606490fd5b1561514f57565b60405162461bcd60e51b815260206004820152601060248201526f546f6f206d616e7920696e646963657360801b6044820152606490fd5b9190811015614c235760051b0190565b1561519e57565b60405162461bcd60e51b815260206004820152600d60248201526c092dcecc2d8d2c840d2dcc8caf609b1b6044820152606490fd5b156151da57565b60405162461bcd60e51b815260206004820152600f60248201526e088eae0d8d2c6c2e8ca40d2dcc8caf608b1b6044820152606490fd5b1561521857565b60405162461bcd60e51b81526020600482015260136024820152721499599d5b991cc81b9bdd08195b98589b1959606a1b6044820152606490fd5b60ff16801561528857600181146152815760021461527a57632496383d60e11b5f5260045ffd5b6201117090565b5061c35090565b5061753090565b60ff60045460101c16806152a05790565b506a0c685fa11e01ec6f0000006003541090565b60ff1680156152f657600181146152d05760021461528f575f90565b5060ff60045460081c16806152e25790565b506a084595161401484a0000006002541090565b5060ff60045416806153055790565b506a084595161401484a0000006001541090565b1561532057565b60405162461bcd60e51b815260206004820152603760248201527f496e73756666696369656e742062616c616e6365202d2074726561737572792060448201527f6d7573742066756e6420726566756e64732066697273740000000000000000006064820152608490fd5b6011549065011d37b09a0082116153f257620186a0915b670de0b6b3a7640000810290808204670de0b6b3a76400001490151715613ddf57826153cd91614ddf565b906a211654585005212800000082116153e257565b6a21165458500521280000009150565b65023a6f613400821061540957620222e0916153a2565b65011d37b099ff198201828111613ddf5780619c400290619c40820403613ddf5765011d37b09a009004620186a00180620186a011613ddf57916153a2565b60ff1680156154ba57600181146154945760021461546f57632496383d60e11b5f5260045ffd5b6003546a0c685fa11e01ec6f000000036a0c685fa11e01ec6f0000008111613ddf5790565b506002546a084595161401484a000000036a084595161401484a0000008111613ddf5790565b506001546a084595161401484a000000036a084595161401484a0000008111613ddf5790565b7f00000000000000000000000000000000000000000000000000000000000000006001600160a01b0316330361551257565b63ed90f6c560e01b5f5260045ffd5b60015f54036155305760025f55565b60405162461bcd60e51b815260206004820152600a6024820152697265656e7472616e637960b01b6044820152606490fd5b60ff600e541661556e57565b6320a5816f60e01b5f5260045ffd5b6040516323b872dd60e01b602082019081526001600160a01b0393841660248301529390921660448301526064808301949094529281525f928392909183906155c7608482614d68565b51926001600160a01b03165af16155dc614fc1565b8161562f575b50156155ea57565b60405162461bcd60e51b815260206004820152601e60248201527f5361666545524332303a207472616e7366657246726f6d206661696c656400006044820152606490fd5b8051801592508215615644575b50505f6155e2565b6156579250602080918301019101614d8a565b5f8061563c565b600354906a0c685fa11e01ec6f0000006156788284614c93565b1161568b5761568691614c93565b600355565b639b2f6ffb60e01b5f5260045ffd5b60ff16806156d05750600154906a084595161401484a0000006156bd8284614c93565b1161568b576156cb91614c93565b600155565b600181036157065750600254906a084595161401484a0000006156f38284614c93565b1161568b5761570191614c93565b600255565b60020361572757600354906a0c685fa11e01ec6f0000006156788284614c93565b632496383d60e11b5f5260045ffd5b5f929183809360405190602082019363a9059cbb60e01b855260018060a01b03166024830152604482015260448152615770606482614d68565b51926001600160a01b03165af1615785614fc1565b816157d8575b501561579357565b60405162461bcd60e51b815260206004820152601a60248201527f5361666545524332303a207472616e73666572206661696c65640000000000006044820152606490fd5b80518015925082156157ed575b50505f61578b565b6158009250602080918301019101614d8a565b5f806157e5565b905f915b600560ff84161061581b57509050565b6001600160a01b039081165f90815260216020526040902054169182156158945733831461584f5760010160ff169161580b565b60405162461bcd60e51b815260206004820152601b60248201527f50533a2063697263756c617220726566657272616c20636861696e00000000006044820152606490fd5b50905056fe5c7cdcf78199c06dbc355a5c9a4a7b64eeea44163fdf9498edcea5e7606e66e3a2646970667358221220dc2973ec792f730e8c9bc66143ee5e53f29c1a6226f00c04e85d69ca0c81c05264736f6c634300081e0033","linkReferences":{}},"methodIdentifiers":{"BASE_SUPPLY()":"baf13a0a","BONUS_180_DAYS()":"77884104","BONUS_90_DAYS()":"7304eb8d","BONUS_NO_LOCK()":"5ff7cd9f","BONUS_POOL()":"4d2a44a8","DAO()":"98fabd3a","ETH_PRICE_STALENESS()":"52c6fd1b","IMMEDIATE_180_DAYS()":"9c799229","IMMEDIATE_90_DAYS()":"9eeb3e11","IMMEDIATE_NO_LOCK()":"29edb7a1","LOCK_180_DAYS()":"82865218","LOCK_90_DAYS()":"e37c3a55","LOCK_NONE()":"93809212","MAX_EXTENSION()":"93a101f6","MAX_PER_WALLET()":"0f2cdd6c","MAX_PURCHASES_PER_WALLET()":"94f90cca","MAX_REFERRAL_CHAIN_DEPTH()":"c1a21f37","MINIMUM_GOAL()":"e518a471","MINIMUM_GOAL_USD()":"f35038c1","MIN_PURCHASE_ETH()":"91733956","MIN_PURCHASE_USD()":"1aae8491","REFEREE_BONUS()":"7bfb15eb","REFERRER_BONUS()":"ec2d2938","SALE_DURATION()":"6d79207c","TIER_0_CAP()":"c2c1befe","TIER_0_PRICE()":"e06937dd","TIER_1_CAP()":"830ced52","TIER_1_PRICE()":"4608eb77","TIER_2_CAP()":"301dd027","TIER_2_PRICE()":"179fc164","TOTAL_SUPPLY()":"902d55a5","TREASURY()":"2d2c5565","buyTokens(uint256)":"3610724e","buyTokensWithReferral(uint256,address)":"3bfbe239","buyWithStable(address,uint256,uint8,uint256)":"0f4173f7","buyWithStableReferral(address,uint256,uint8,uint256,address)":"599377ab","calculateListingPrice()":"ca569857","calculateTokens(uint256)":"71aa60fd","calculateTokensFromEth(uint256)":"ee52bec1","calculateTokensFromEthTier(uint256,uint8)":"c50db2f8","calculateTokensFromUsd(uint256)":"27787a9c","calculateTokensFromUsdPreview(uint256,uint8)":"bf87024a","calculateTokensFromUsdTier(uint256,uint8)":"2fc8f2f4","canClaimRefund(address)":"8cca8f64","canClaimStableRefund(address,address)":"8b24374c","cancelPurchase(uint256)":"c3634ddc","claimAll()":"d1058e59","claimImmediate(uint256[])":"4680d229","claimLocked(uint256[])":"aa52ac1d","claimReferralBonus()":"1e375ab9","claimRefund()":"b5545a3c","claimStableRefund(address)":"f36cf3e4","depositTokens()":"7c4b414d","emergencyWithdraw()":"db2e21bc","enableRefunds()":"8c52dc41","ethAccepted()":"3c24c5c0","ethContributed(address)":"f96f5b35","ethPriceLastUpdated()":"4737ec70","ethPriceUsd()":"16061dbf","extendSale(uint256)":"1f1886e4","finalizePresale()":"a0a6e940","finalized()":"b3f05b97","fundRefunds()":"96b1c00e","fundStableRefunds(address,uint256)":"4c9e04d7","getAllPurchases(address)":"1107bc98","getFinalizationDetails()":"507cc47e","getPresaleStats()":"a56b94f3","getPurchaseDetails(address,uint256)":"c322937e","getRaiseStats()":"b2ebbda7","getRefundStatus(address)":"65c2944e","getTierPrice(uint8)":"5586402d","getTierRemaining(uint8)":"e8dc71ef","getTierRequiredLock(uint8)":"3bbc810e","getUserDashboard(address)":"faaf8076","getUserInfo(address)":"6386c1c7","getUserStableContributions(address,address[])":"d75466eb","isEthPriceStale()":"08c0a8d6","isTierAvailable(uint8)":"ac7a68b7","lastPurchaseTime(address)":"227a14c1","listingPrice()":"c78f19f9","lpVfideAmount()":"cf4b850d","maxGasPrice()":"3de39c11","paused()":"5c975abb","purchases(address,uint256)":"52d3f849","recoverUnclaimedRefunds()":"ebadef63","referralBonusClaimed(address)":"42cd128b","referralBonusEarned(address)":"255f2431","referralCount(address)":"db74559b","referrerOf(address)":"d21cacdf","refundDeadline()":"e1aa1bcc","refundsEnabled()":"532f1179","saleEndTime()":"ed338ff1","saleExtended()":"f4b16b94","saleStartTime()":"1cbaee2d","setEthAccepted(bool)":"77c0c5e2","setEthPrice(uint256)":"009f9262","setMaxGasPrice(uint256)":"d2fa635e","setPaused(bool)":"16c38b3c","setStablecoinRegistry(address)":"eb8a9cfe","setTierEnabled(uint8,bool)":"e1b8fdcc","shouldEnableRefunds()":"22ae8cff","stableContributed(address,address)":"25915ff2","stablecoinRegistry()":"fb85687a","tier0Enabled()":"de763f40","tier0Sold()":"5385b1ed","tier1Enabled()":"013db332","tier1Sold()":"aa138ade","tier2Enabled()":"b96b2223","tier2Sold()":"97690332","tokensDeposited()":"22ae8280","totalAllocated(address)":"ed361b35","totalBaseSold()":"e511e4b7","totalBonusGiven()":"999d350d","totalClaimed()":"d54ad2a1","totalEthRaised()":"c9e904be","totalReferralBonusGiven()":"bf91d366","totalReferrerBonusOnly()":"89bdc5fd","totalSold()":"9106d7ba","totalUsdRaised()":"2cea9442","usdContributed(address)":"60e5f65b","vfideToken()":"b8a71eec","withdrawUnsold(address)":"bb03a1aa"},"id":33}