{"abi":[{"type":"constructor","inputs":[{"name":"_dao","type":"address","internalType":"address"},{"name":"_seer","type":"address","internalType":"address"}],"stateMutability":"nonpayable"},{"type":"function","name":"MAX_FOUNDING_MEMBERS","inputs":[],"outputs":[{"name":"","type":"uint32","internalType":"uint32"}],"stateMutability":"view"},{"type":"function","name":"MAX_PIONEERS","inputs":[],"outputs":[{"name":"","type":"uint32","internalType":"uint32"}],"stateMutability":"view"},{"type":"function","name":"awardBadge","inputs":[{"name":"user","type":"address","internalType":"address"},{"name":"badge","type":"bytes32","internalType":"bytes32"}],"outputs":[],"stateMutability":"nonpayable"},{"type":"function","name":"awardFoundingMember","inputs":[{"name":"user","type":"address","internalType":"address"}],"outputs":[],"stateMutability":"nonpayable"},{"type":"function","name":"awardPioneer","inputs":[{"name":"user","type":"address","internalType":"address"}],"outputs":[],"stateMutability":"nonpayable"},{"type":"function","name":"dao","inputs":[],"outputs":[{"name":"","type":"address","internalType":"address"}],"stateMutability":"view"},{"type":"function","name":"foundingMemberCount","inputs":[],"outputs":[{"name":"","type":"uint32","internalType":"uint32"}],"stateMutability":"view"},{"type":"function","name":"getBadgeProgress","inputs":[{"name":"user","type":"address","internalType":"address"},{"name":"badge","type":"bytes32","internalType":"bytes32"}],"outputs":[{"name":"current","type":"uint32","internalType":"uint32"},{"name":"required","type":"uint32","internalType":"uint32"},{"name":"percentage","type":"uint8","internalType":"uint8"}],"stateMutability":"view"},{"type":"function","name":"getEligibleBadges","inputs":[{"name":"user","type":"address","internalType":"address"}],"outputs":[{"name":"eligible","type":"bytes32[]","internalType":"bytes32[]"}],"stateMutability":"view"},{"type":"function","name":"getUserStats","inputs":[{"name":"user","type":"address","internalType":"address"}],"outputs":[{"name":"","type":"tuple","internalType":"struct BadgeManager.UserStats","components":[{"name":"commerceTxCount","type":"uint32","internalType":"uint32"},{"name":"consecutiveDays","type":"uint32","internalType":"uint32"},{"name":"governanceVotes","type":"uint32","internalType":"uint32"},{"name":"successfulTrades","type":"uint32","internalType":"uint32"},{"name":"endorsementsReceived","type":"uint32","internalType":"uint32"},{"name":"referralsMade","type":"uint32","internalType":"uint32"},{"name":"referralsQualified","type":"uint32","internalType":"uint32"},{"name":"disputesMediated","type":"uint32","internalType":"uint32"},{"name":"fraudReports","type":"uint32","internalType":"uint32"},{"name":"educationalContent","type":"uint32","internalType":"uint32"},{"name":"lastActivityDay","type":"uint64","internalType":"uint64"},{"name":"firstActivity","type":"uint64","internalType":"uint64"},{"name":"lastScoreDropBelow700","type":"uint64","internalType":"uint64"},{"name":"hasPresaleParticipation","type":"bool","internalType":"bool"},{"name":"hasContributed","type":"bool","internalType":"bool"},{"name":"hasTranslated","type":"bool","internalType":"bool"}]}],"stateMutability":"view"},{"type":"function","name":"lastBadgeCheck","inputs":[{"name":"","type":"address","internalType":"address"},{"name":"","type":"bytes32","internalType":"bytes32"}],"outputs":[{"name":"","type":"uint64","internalType":"uint64"}],"stateMutability":"view"},{"type":"function","name":"operators","inputs":[{"name":"","type":"address","internalType":"address"}],"outputs":[{"name":"","type":"bool","internalType":"bool"}],"stateMutability":"view"},{"type":"function","name":"pioneerCount","inputs":[],"outputs":[{"name":"","type":"uint32","internalType":"uint32"}],"stateMutability":"view"},{"type":"function","name":"recordCommerceTx","inputs":[{"name":"user","type":"address","internalType":"address"},{"name":"successful","type":"bool","internalType":"bool"}],"outputs":[],"stateMutability":"nonpayable"},{"type":"function","name":"recordContribution","inputs":[{"name":"contributor","type":"address","internalType":"address"}],"outputs":[],"stateMutability":"nonpayable"},{"type":"function","name":"recordEducationalContent","inputs":[{"name":"creator","type":"address","internalType":"address"}],"outputs":[],"stateMutability":"nonpayable"},{"type":"function","name":"recordEndorsement","inputs":[{"name":"user","type":"address","internalType":"address"}],"outputs":[],"stateMutability":"nonpayable"},{"type":"function","name":"recordFraudReport","inputs":[{"name":"reporter","type":"address","internalType":"address"}],"outputs":[],"stateMutability":"nonpayable"},{"type":"function","name":"recordGovernanceVote","inputs":[{"name":"user","type":"address","internalType":"address"}],"outputs":[],"stateMutability":"nonpayable"},{"type":"function","name":"recordPresaleParticipation","inputs":[{"name":"user","type":"address","internalType":"address"}],"outputs":[],"stateMutability":"nonpayable"},{"type":"function","name":"recordReferral","inputs":[{"name":"referrer","type":"address","internalType":"address"},{"name":"referred","type":"address","internalType":"address"},{"name":"qualified","type":"bool","internalType":"bool"}],"outputs":[],"stateMutability":"nonpayable"},{"type":"function","name":"recordTranslation","inputs":[{"name":"translator","type":"address","internalType":"address"}],"outputs":[],"stateMutability":"nonpayable"},{"type":"function","name":"revokeBadge","inputs":[{"name":"user","type":"address","internalType":"address"},{"name":"badge","type":"bytes32","internalType":"bytes32"},{"name":"reason","type":"string","internalType":"string"}],"outputs":[],"stateMutability":"nonpayable"},{"type":"function","name":"seer","inputs":[],"outputs":[{"name":"","type":"address","internalType":"contract Seer"}],"stateMutability":"view"},{"type":"function","name":"setDAO","inputs":[{"name":"newDAO","type":"address","internalType":"address"}],"outputs":[],"stateMutability":"nonpayable"},{"type":"function","name":"setOperator","inputs":[{"name":"operator","type":"address","internalType":"address"},{"name":"authorized","type":"bool","internalType":"bool"}],"outputs":[],"stateMutability":"nonpayable"},{"type":"function","name":"setSeer","inputs":[{"name":"newSeer","type":"address","internalType":"address"}],"outputs":[],"stateMutability":"nonpayable"},{"type":"function","name":"userStats","inputs":[{"name":"","type":"address","internalType":"address"}],"outputs":[{"name":"commerceTxCount","type":"uint32","internalType":"uint32"},{"name":"consecutiveDays","type":"uint32","internalType":"uint32"},{"name":"governanceVotes","type":"uint32","internalType":"uint32"},{"name":"successfulTrades","type":"uint32","internalType":"uint32"},{"name":"endorsementsReceived","type":"uint32","internalType":"uint32"},{"name":"referralsMade","type":"uint32","internalType":"uint32"},{"name":"referralsQualified","type":"uint32","internalType":"uint32"},{"name":"disputesMediated","type":"uint32","internalType":"uint32"},{"name":"fraudReports","type":"uint32","internalType":"uint32"},{"name":"educationalContent","type":"uint32","internalType":"uint32"},{"name":"lastActivityDay","type":"uint64","internalType":"uint64"},{"name":"firstActivity","type":"uint64","internalType":"uint64"},{"name":"lastScoreDropBelow700","type":"uint64","internalType":"uint64"},{"name":"hasPresaleParticipation","type":"bool","internalType":"bool"},{"name":"hasContributed","type":"bool","internalType":"bool"},{"name":"hasTranslated","type":"bool","internalType":"bool"}],"stateMutability":"view"},{"type":"event","name":"BadgeEarned","inputs":[{"name":"user","type":"address","indexed":true,"internalType":"address"},{"name":"badge","type":"bytes32","indexed":true,"internalType":"bytes32"},{"name":"expiry","type":"uint256","indexed":false,"internalType":"uint256"},{"name":"scoreBoost","type":"uint16","indexed":false,"internalType":"uint16"}],"anonymous":false},{"type":"event","name":"BadgeRenewed","inputs":[{"name":"user","type":"address","indexed":true,"internalType":"address"},{"name":"badge","type":"bytes32","indexed":true,"internalType":"bytes32"},{"name":"newExpiry","type":"uint256","indexed":false,"internalType":"uint256"}],"anonymous":false},{"type":"event","name":"BadgeRevoked","inputs":[{"name":"user","type":"address","indexed":true,"internalType":"address"},{"name":"badge","type":"bytes32","indexed":true,"internalType":"bytes32"},{"name":"reason","type":"string","indexed":false,"internalType":"string"}],"anonymous":false},{"type":"event","name":"OperatorSet","inputs":[{"name":"operator","type":"address","indexed":true,"internalType":"address"},{"name":"authorized","type":"bool","indexed":false,"internalType":"bool"}],"anonymous":false},{"type":"event","name":"StatsUpdated","inputs":[{"name":"user","type":"address","indexed":true,"internalType":"address"},{"name":"metric","type":"string","indexed":false,"internalType":"string"},{"name":"newValue","type":"uint32","indexed":false,"internalType":"uint32"}],"anonymous":false},{"type":"error","name":"BM_InvalidBadge","inputs":[]},{"type":"error","name":"BM_NotDAO","inputs":[]},{"type":"error","name":"BM_NotOperator","inputs":[]},{"type":"error","name":"BM_Zero","inputs":[]}],"bytecode":{"object":"0x60803460b457601f617f8438819003918201601f19168301916001600160401b0383118484101760b857808492604094855283398101031260b457604b602060458360cc565b920160cc565b906001600160a01b03168015801560a4575b60955760018060a01b03195f5416175f5560018060a01b031660018060a01b03196001541617600155604051617ea490816100e08239f35b63dce3538560e01b5f5260045ffd5b506001600160a01b03821615605d565b5f80fd5b634e487b7160e01b5f52604160045260245ffd5b51906001600160a01b038216820360b45756fe60806040526004361015610011575f80fd5b5f3560e01c806305409f33146116b257806313cf93fb1461166b57806313e7c9d81461162e5780631d92098514611564578063283d6715146114885780632d55ea3914611460578063387b279c146113695780634162169f1461134257806341752096146112a9578063466d055f146112585780634e43603a14610fb35780635521f9fe14610f62578063558a729714610ed4578063615e5cae14610e7f5780636d134ac214610e0757806377a0555c14610d5557806385e8135c14610c92578063889b468d14610b735780638a65d87414610a5157806393a645e4146103ce578063aea3b217146103b2578063bdf033291461038d578063c37f34ca1461036a578063e071c1c014610315578063e5b3d3ee14610223578063e73a914c146101ba578063e7b2c7b21461016d5763f220836f1461014d575f80fd5b34610169575f3660031901126101695760206040516103e88152f35b5f80fd5b34610169576040366003190112610169576001600160a01b0361018e611749565b165f52600360205260405f206024355f5260205260206001600160401b0360405f205416604051908152f35b34610169576020366003190112610169576101d3611749565b5f54906001600160a01b0382163303610214576001600160a01b0316908115610205576001600160a01b031916175f55005b63dce3538560e01b5f5260045ffd5b63385b4f9160e21b5f5260045ffd5b346101695760203660031901126101695761023c611749565b5f546001600160a01b0316331415806102fe575b6102ef575f516020617c8f5f395f51905f52608063ffffffff60018060a01b03841693845f5260026020526102bb60405f2091825463ffffffff60401b61029b868360401c16611a90565b60401b169063ffffffff60401b19161783556102b6816163fb565b616110565b5460401c166040519060408252600f60408301526e676f7665726e616e6365566f74657360881b60608301526020820152a2005b63ed1f1d8d60e01b5f5260045ffd5b50335f52600460205260ff60405f20541615610250565b346101695760203660031901126101695761032e611749565b5f546001600160a01b03163303610214576001600160a01b03168015610205576bffffffffffffffffffffffff60a01b60015416176001555f80f35b34610169575f36600319011261016957602063ffffffff60055416604051908152f35b34610169575f36600319011261016957602063ffffffff600554821c16604051908152f35b34610169575f3660031901126101695760206040516127108152f35b34610169576020366003190112610169576103e7611749565b6040516103806103f781836117b4565b601b82526020820190601f1901368237815115610a3d575f516020617e4f5f395f51905f529052805160011015610a3d575f516020617cef5f395f51905f526040820152805160021015610a3d575f516020617c4f5f395f51905f526060820152805160031015610a3d575f516020617c6f5f395f51905f526080820152805160041015610a3d575f516020617d2f5f395f51905f5260a0820152805160051015610a3d575f516020617d4f5f395f51905f5260c0820152805160061015610a3d575f516020617dcf5f395f51905f5260e0820152805160071015610a3d577ff4f1880c72d8dbafc9805eb1c4bcefcb30af90b0ae932e0f050c81b491125857610100820152805160081015610a3d575f516020617d6f5f395f51905f52610120820152805160091015610a3d577facf4336c61c8a8031abec411f918f29aa8a8d0d7d07ae250391d186289fb49996101408201528051600a1015610a3d575f516020617e0f5f395f51905f526101608201528051600b1015610a3d575f516020617d8f5f395f51905f526101808201528051600c1015610a3d577fde4df86a0cfbc1ca19c1967d53b4f9d906c2f3e5f0b5637ff74d60111ad48d746101a08201528051600d1015610a3d577fe2a717c0595726a19d429ba65a7be318c309e2bbfbe0d178266ba0266404b2806101c08201528051600e1015610a3d577f8cd7ae4080d5a7057c8858e5c9e0a698fbc88b319a304fbaaae0f5c2be2423496101e08201528051600f1015610a3d575f516020617daf5f395f51905f52610200820152805160101015610a3d577f8f1a39279a10a884ddf0b6a95d0e46f341a5809f447de8f39f0c29e43a914272610220820152805160111015610a3d577ff55c3c85690d0abf93de8c24ececede3ee62e529020683594957b8e0c109ace1610240820152805160121015610a3d577f8b5b16d04624687fcf0d0228f19993c9157c1ed07b41d8d430fd9100eb099fe8610260820152805160131015610a3d575f516020617e2f5f395f51905f52610280820152805160141015610a3d577f66071085b8de5ddfb56be1bbf93230fbaa1b5a4a7ed21f7ca2ec8b760127b0826102a0820152805160151015610a3d577f27b035d29cbd235e68f8e722fb80b6f9a31122fb2c3bce79340725e804fc99926102c0820152805160161015610a3d577f7c3d6722688d7e04217fd02beb9ee0abaf5dd8c4c65c6ad4846a80aae94ca27d6102e0820152805160171015610a3d575f516020617ccf5f395f51905f52610300820152805160181015610a3d575f516020617caf5f395f51905f52610320820152805160191015610a3d577f5c96081090ee4a64cc21b4a34b2247212174b7b9afec075a3d09fd229b01e5506103408201528051601a1015610a3d575f516020617def5f395f51905f526103608201526001546001600160a01b031691905f90815b81518110156108f257610863602061083283856160ee565b51604051630e05e5d560e21b81526001600160a01b0388166004820152602481019190915291829081906044820190565b0381895afa9081156108e7575f916108b9575b50158061089f575b61088b575b60010161081a565b91610897600191616102565b929050610883565b506108b46108ad82846160ee565b518561757f565b61087e565b6108da915060203d81116108e0575b6108d281836117b4565b810190611aa7565b86610876565b503d6108c8565b6040513d5f823e3d90fd5b506109156108ff836160d7565b9261090d60405194856117b4565b8084526160d7565b602083019290601f19013684375f915f5b81518110156109f95761096f602061093e83856160ee565b51604051630e05e5d560e21b81526001600160a01b038a166004820152602481019190915291829081906044820190565b03818b5afa9081156108e7575f916109db575b5015806109c1575b610997575b600101610926565b926109b96001916109a886856160ee565b516109b382876160ee565b52616102565b93905061098f565b506109d66109cf82846160ee565b518761757f565b61098a565b6109f3915060203d81116108e0576108d281836117b4565b88610982565b8483604051918291602083019060208452518091526040830191905f5b818110610a24575050500390f35b8251845285945060209384019390920191600101610a16565b634e487b7160e01b5f52603260045260245ffd5b34610169576020366003190112610169576001600160a01b03610a72611749565b165f52600260205261020060405f2060ff81549160026001820154910154906040519363ffffffff8116855263ffffffff8160201c16602086015263ffffffff8160401c16604086015263ffffffff8160601c16606086015263ffffffff8160801c16608086015263ffffffff8160a01c1660a086015263ffffffff8160c01c1660c086015260e01c60e085015263ffffffff811661010085015263ffffffff8160201c166101208501526001600160401b038160401c166101408501526001600160401b038160801c1661016085015260c01c61018084015281811615156101a0840152818160081c1615156101c084015260101c1615156101e0820152f35b3461016957606036600319011261016957610b8c611749565b610b9461175f565b506044358015158103610169575f546001600160a01b031633141580610c7b575b6102ef57608063ffffffff5f516020617c8f5f395f51905f5292610c1d60018060a01b03861695865f52600260205260405f20928354908560a01b610bfe878460a01c16611a90565b60a01b1690818760a01b1984161790818755610c4b575b505050616110565b5460a01c1660405190604082526009604083015268726566657272616c7360b81b60608301526020820152a2005b610c5d878060c01b9260c01c16611a90565b60c01b16916001600160401b0360a01b191617178355878080610c15565b50335f52600460205260ff60405f20541615610bb5565b3461016957602036600319011261016957610cab611749565b5f546001600160a01b031633141580610d3e575b6102ef575f516020617c8f5f395f51905f52608063ffffffff60018060a01b03841693845f526002602052610d10600160405f20019183610d0281855416611a90565b168419845416178355616110565b54166040519060408252600c60408301526b66726175645265706f72747360a01b60608301526020820152a2005b50335f52600460205260ff60405f20541615610cbf565b3461016957602036600319011261016957610d6e611749565b5f546001600160a01b031633141580610df0575b6102ef5760018060a01b0381165f526002602052600260405f2001805460ff811615610daa57005b60ff191660011790555f54336001600160a01b0391909116141580610dd9575b6102ef57610dd790612580565b005b50335f52600460205260ff60405f20541615610dca565b50335f52600460205260ff60405f20541615610d82565b3461016957606036600319011261016957610e20611749565b604435906001600160401b0382116101695736602383011215610169578160040135906001600160401b038211610169573660248385010111610169575f546001600160a01b03163303610214576024610dd793019060243590615ec6565b3461016957604036600319011261016957610e98611749565b5f546001600160a01b031633141580610ebd575b6102ef57610dd79060243590615adf565b50335f52600460205260ff60405f20541615610eac565b3461016957604036600319011261016957610eed611749565b610ef5611775565b5f549091906001600160a01b03163303610214576001600160a01b03169081156102055760207f1a594081ae893ab78e67d9b9e843547318164322d32c65369d78a96172d9dc8f91835f526004825260405f209015159060ff1981541660ff8316179055604051908152a2005b3461016957602036600319011261016957610f7b611749565b5f546001600160a01b031633141580610f9c575b6102ef57610dd790611bba565b50335f52600460205260ff60405f20541615610f8f565b3461016957602036600319011261016957610fcc611749565b604051610fd881611784565b5f8152602081015f9052604081015f9052606081015f9052608081015f905260a081015f905260c081015f905260e081015f905261010081015f905261012081015f905261014081015f905261016081015f905261018081015f90526101a081015f90526101c081015f90526101e0015f9052600160a01b60019003165f52600260205260405f2060405161106c81611784565b81549163ffffffff83168252602082018360201c63ffffffff168152604083018460401c63ffffffff168152606084018560601c63ffffffff16815260808501918660801c63ffffffff16835260a08601938760a01c63ffffffff16855260c08701958860c01c63ffffffff1687528860e01c60e0890152600181015463ffffffff81166101008a01528060201c63ffffffff166101208a01528060401c6001600160401b03166101408a01528060801c6001600160401b03166101608a015260c01c6101808901526002015460ff811615156101a08901528060081c60ff1615156101c089015260101c60ff1615156101e08801526040519763ffffffff1688525163ffffffff1660208801525163ffffffff1660408701525163ffffffff1660608601525163ffffffff1660808501525163ffffffff1660a08401525163ffffffff1660c083015260e081015163ffffffff1660e083015261010081015163ffffffff1661010083015261012081015163ffffffff166101208301526101408101516001600160401b03166101408301526101608101516001600160401b03166101608301526101808101516001600160401b03166101808301526101a081015115156101a08301526101c081015115156101c08301526101e0015115156101e082015261020090f35b3461016957602036600319011261016957611271611749565b5f546001600160a01b031633141580611292575b6102ef57610dd790611abf565b50335f52600460205260ff60405f20541615611285565b34610169576020366003190112610169576112c2611749565b5f546001600160a01b031633036102145760018060a01b0381165f526002602052600260405f2001805460ff8160101c16156112fa57005b62ff00001916620100001790555f54336001600160a01b039190911614158061132b575b6102ef57610dd790612165565b50335f52600460205260ff60405f2054161561131e565b34610169575f366003190112610169575f546040516001600160a01b039091168152602090f35b3461016957604036600319011261016957611382611749565b61138a611775565b5f546001600160a01b031633141580611449575b6102ef57608063ffffffff5f516020617c8f5f395f51905f52926113f660018060a01b03861695865f52600260205260405f2092846113df81865416611a90565b168519855416178455611422575b6102b6816163fb565b54166040519060408252600a6040830152690c6dedadacae4c6caa8f60b31b60608301526020820152a2005b82548460601b611436868360601c16611a90565b60601b16908560601b19161783556113ed565b50335f52600460205260ff60405f2054161561139e565b34610169575f366003190112610169576001546040516001600160a01b039091168152602090f35b34610169576020366003190112610169576114a1611749565b5f546001600160a01b03163314158061154d575b6102ef575f516020617c8f5f395f51905f52608063ffffffff60018060a01b03841693845f52600260205261151f600160405f2001916102b66114fd85855460201c16611a90565b845467ffffffff00000000191660209190911b67ffffffff0000000016178455565b5460201c166040519060408252600960408301526832b23ab1b0ba34b7b760b91b60608301526020820152a2005b50335f52600460205260ff60405f205416156114b5565b346101695760203660031901126101695761157d611749565b5f546001600160a01b031633141580611617575b6102ef575f516020617c8f5f395f51905f52608063ffffffff60018060a01b03841693845f5260026020526115e760405f2091825484861b6115d68683891c16611a90565b871b169085871b1916178355616110565b54821c166040519060408252600c60408301526b656e646f7273656d656e747360a01b60608301526020820152a2005b50335f52600460205260ff60405f20541615611591565b34610169576020366003190112610169576001600160a01b0361164f611749565b165f526004602052602060ff60405f2054166040519015158152f35b3461016957604036600319011261016957606063ffffffff60ff611699611690611749565b602435906117d5565b9193908160405195168552166020840152166040820152f35b34610169576020366003190112610169576116cb611749565b5f546001600160a01b031633036102145760018060a01b0381165f526002602052600260405f2001805460ff8160081c161561170357005b61ff0019166101001790555f54336001600160a01b0391909116141580611732575b6102ef57610dd790611d1f565b50335f52600460205260ff60405f20541615611725565b600435906001600160a01b038216820361016957565b602435906001600160a01b038216820361016957565b60243590811515820361016957565b61020081019081106001600160401b038211176117a057604052565b634e487b7160e01b5f52604160045260245ffd5b90601f801991011681019081106001600160401b038211176117a057604052565b91909160018060a01b03165f52600260205260405f20604051906117f882611784565b80549363ffffffff85169485845263ffffffff8160201c169283602086015263ffffffff8260401c169485604082015263ffffffff8360601c169384606083015263ffffffff8460801c16608083015263ffffffff8460a01c1660a083015263ffffffff8460c01c16938460c084015260e01c60e08301526001830154916101e060ff600263ffffffff8616968761010086015263ffffffff8760201c1696876101208701526001600160401b038160401c166101408701526001600160401b038160801c1661016087015260c01c610180860152015481811615156101a0850152818160081c1615156101c085015260101c1615159101525f516020617c6f5f395f51905f5281145f1461197b5750505050505050603291905b63ffffffff82811690841680821061192f575050606491929190565b6064820291808304606414901517156119675780156119535760ff91041691929190565b634e487b7160e01b5f52601260045260245ffd5b634e487b7160e01b5f52601160045260245ffd5b90919293949597505f516020617d2f5f395f51905f5281145f146119a857505050505050600a9190611913565b909192939496505f516020617dcf5f395f51905f5281145f146119d3575050505050601e9190611913565b9091929395505f516020617d8f5f395f51905f5281145f146119fc575050505060649190611913565b92945090915f516020617d6f5f395f51905f528103611a2157505050600a9190611913565b919390915f516020617daf5f395f51905f528103611a455750505060039190611913565b919350905f516020617ccf5f395f51905f528103611a6857505060059190611913565b9092505f516020617e0f5f395f51905f5203611a875760059190611913565b5f915081908190565b63ffffffff1663ffffffff81146119675760010190565b90816020910312610169575180151581036101695790565b60055463ffffffff8116612710811015611b7c57600154604051630e05e5d560e21b81526001600160a01b0385811660048301525f516020617e4f5f395f51905f526024830152909160209183916044918391165afa9081156108e7575f91611b81575b50611b7c57611b3663ffffffff91611a90565b169063ffffffff19161760055560018060a01b035f541633141580611b65575b6102ef57611b639061299b565b565b50335f52600460205260ff60405f20541615611b56565b505050565b611b9a915060203d6020116108e0576108d281836117b4565b5f611b23565b90816020910312610169575161ffff811681036101695790565b60055463ffffffff8160201c166103e8811015611b7c57600154604051630e05e5d560e21b81526001600160a01b03858116600483018190525f516020617c4f5f395f51905f52602484015292169190602081604481865afa9081156108e7575f91611cf3575b50611cec57602090602460405180948193630d47875d60e41b835260048301525afa9081156108e757611f409161ffff915f91611cbd575b501610611b7c57611c7267ffffffff0000000091611a90565b60201b169067ffffffff0000000019161760055560018060a01b035f541633141580611ca6575b6102ef57611b6390612db6565b50335f52600460205260ff60405f20541615611c99565b611cdf915060203d602011611ce5575b611cd781836117b4565b810190611ba0565b5f611c59565b503d611ccd565b5050505050565b611d0c915060203d6020116108e0576108d281836117b4565b5f611c21565b9190820180921161196757565b600154604051630e05e5d560e21b81526001600160a01b03808416600483018190525f516020617caf5f395f51905f526024840152935f9390929160209183916044918391165afa9081156108e7575f91612146575b5061212c575060405163157e6ad160e21b81525f516020617caf5f395f51905f5260048201525f9173__$e3a882f22bd04f7a2b17b0bf615ac922fd$__91602081602481865af49081156108e7575f9161210d575b501561208f575b6001546001600160a01b0316803b156101695760405163024a6d6d60e11b8152600481018690525f516020617caf5f395f51905f5260248201526001604482015260648101859052905f908290608490829084905af1908161207a575b50611e3a575b50505050565b604051630737fee160e41b81525f516020617caf5f395f51905f526004820152602081602481865af4908115612050579061ffff91839161205b575b50169182611eb6575b505060405f516020617caf5f395f51905f5293925f516020617d0f5f395f51905f529282519182526020820152a35f808080611e34565b81602491604051928380926354b8d5e360e01b82525f516020617caf5f395f51905f5260048301525af4908115612050578291611fb0575b50604051611f2b6027826020808201956602130b233b29d160cd1b87528051918291018484015e810186838201520301601f1981018352826117b4565b6001546001600160a01b031690813b15611fac5791839160849383604051958680958194630eccbd3560e11b83528d60048401528b6024840152606060448401525180918160648501528484015e8181018301849052601f01601f191681010301925af115611e7f57611f9f8280926117b4565b611fa95780611e7f565b80fd5b8380fd5b90503d8083833e611fc181836117b4565b81019060208183031261204c578051906001600160401b038211611fac570181601f8201121561204c578051906001600160401b0382116120385760405192612014601f8401601f1916602001856117b4565b82845260208383010111611fac5781849260208093018386015e830101525f611eee565b634e487b7160e01b84526041600452602484fd5b8280fd5b6040513d84823e3d90fd5b612074915060203d602011611ce557611cd781836117b4565b5f611e76565b6120879192505f906117b4565b5f905f611e2e565b604051636f143be160e01b81525f516020617caf5f395f51905f526004820152909250602081602481855af480156108e7575f906120d9575b6120d3915042611d12565b91611dd1565b506020813d602011612105575b816120f3602093836117b4565b81010312610169576120d390516120c8565b3d91506120e6565b612126915060203d6020116108e0576108d281836117b4565b5f611dca565b611b6392505f516020617caf5f395f51905f5291506165f9565b61215f915060203d6020116108e0576108d281836117b4565b5f611d75565b600154604051630e05e5d560e21b81526001600160a01b03808416600483018190525f516020617def5f395f51905f526024840152935f9390929160209183916044918391165afa9081156108e7575f91612561575b50612547575060405163157e6ad160e21b81525f516020617def5f395f51905f5260048201525f9173__$e3a882f22bd04f7a2b17b0bf615ac922fd$__91602081602481865af49081156108e7575f91612528575b50156124aa575b6001546001600160a01b0316803b156101695760405163024a6d6d60e11b8152600481018690525f516020617def5f395f51905f5260248201526001604482015260648101859052905f908290608490829084905af19081612495575b5061227f5750505050565b604051630737fee160e41b81525f516020617def5f395f51905f526004820152602081602481865af4908115612050579061ffff918391612476575b501691826122fb575b505060405f516020617def5f395f51905f5293925f516020617d0f5f395f51905f529282519182526020820152a35f808080611e34565b81602491604051928380926354b8d5e360e01b82525f516020617def5f395f51905f5260048301525af49081156120505782916123ee575b506040516123706027826020808201956602130b233b29d160cd1b87528051918291018484015e810186838201520301601f1981018352826117b4565b6001546001600160a01b031690813b15611fac5791839160849383604051958680958194630eccbd3560e11b83528d60048401528b6024840152606060448401525180918160648501528484015e8181018301849052601f01601f191681010301925af1156122c4576123e48280926117b4565b611fa957806122c4565b90503d8083833e6123ff81836117b4565b81019060208183031261204c578051906001600160401b038211611fac570181601f8201121561204c578051906001600160401b0382116120385760405192612452601f8401601f1916602001856117b4565b82845260208383010111611fac5781849260208093018386015e830101525f612333565b61248f915060203d602011611ce557611cd781836117b4565b5f6122bb565b6124a29192505f906117b4565b5f905f612274565b604051636f143be160e01b81525f516020617def5f395f51905f526004820152909250602081602481855af480156108e7575f906124f4575b6124ee915042611d12565b91612217565b506020813d602011612520575b8161250e602093836117b4565b81010312610169576124ee90516124e3565b3d9150612501565b612541915060203d6020116108e0576108d281836117b4565b5f612210565b611b6392505f516020617def5f395f51905f5291506165f9565b61257a915060203d6020116108e0576108d281836117b4565b5f6121bb565b600154604051630e05e5d560e21b81526001600160a01b03808416600483018190525f516020617cef5f395f51905f526024840152935f9390929160209183916044918391165afa9081156108e7575f9161297c575b50612962575060405163157e6ad160e21b81525f516020617cef5f395f51905f5260048201525f9173__$e3a882f22bd04f7a2b17b0bf615ac922fd$__91602081602481865af49081156108e7575f91612943575b50156128c5575b6001546001600160a01b0316803b156101695760405163024a6d6d60e11b8152600481018690525f516020617cef5f395f51905f5260248201526001604482015260648101859052905f908290608490829084905af190816128b0575b5061269a5750505050565b604051630737fee160e41b81525f516020617cef5f395f51905f526004820152602081602481865af4908115612050579061ffff918391612891575b50169182612716575b505060405f516020617cef5f395f51905f5293925f516020617d0f5f395f51905f529282519182526020820152a35f808080611e34565b81602491604051928380926354b8d5e360e01b82525f516020617cef5f395f51905f5260048301525af4908115612050578291612809575b5060405161278b6027826020808201956602130b233b29d160cd1b87528051918291018484015e810186838201520301601f1981018352826117b4565b6001546001600160a01b031690813b15611fac5791839160849383604051958680958194630eccbd3560e11b83528d60048401528b6024840152606060448401525180918160648501528484015e8181018301849052601f01601f191681010301925af1156126df576127ff8280926117b4565b611fa957806126df565b90503d8083833e61281a81836117b4565b81019060208183031261204c578051906001600160401b038211611fac570181601f8201121561204c578051906001600160401b038211612038576040519261286d601f8401601f1916602001856117b4565b82845260208383010111611fac5781849260208093018386015e830101525f61274e565b6128aa915060203d602011611ce557611cd781836117b4565b5f6126d6565b6128bd9192505f906117b4565b5f905f61268f565b604051636f143be160e01b81525f516020617cef5f395f51905f526004820152909250602081602481855af480156108e7575f9061290f575b612909915042611d12565b91612632565b506020813d60201161293b575b81612929602093836117b4565b810103126101695761290990516128fe565b3d915061291c565b61295c915060203d6020116108e0576108d281836117b4565b5f61262b565b611b6392505f516020617cef5f395f51905f5291506165f9565b612995915060203d6020116108e0576108d281836117b4565b5f6125d6565b600154604051630e05e5d560e21b81526001600160a01b03808416600483018190525f516020617e4f5f395f51905f526024840152935f9390929160209183916044918391165afa9081156108e7575f91612d97575b50612d7d575060405163157e6ad160e21b81525f516020617e4f5f395f51905f5260048201525f9173__$e3a882f22bd04f7a2b17b0bf615ac922fd$__91602081602481865af49081156108e7575f91612d5e575b5015612ce0575b6001546001600160a01b0316803b156101695760405163024a6d6d60e11b8152600481018690525f516020617e4f5f395f51905f5260248201526001604482015260648101859052905f908290608490829084905af19081612ccb575b50612ab55750505050565b604051630737fee160e41b81525f516020617e4f5f395f51905f526004820152602081602481865af4908115612050579061ffff918391612cac575b50169182612b31575b505060405f516020617e4f5f395f51905f5293925f516020617d0f5f395f51905f529282519182526020820152a35f808080611e34565b81602491604051928380926354b8d5e360e01b82525f516020617e4f5f395f51905f5260048301525af4908115612050578291612c24575b50604051612ba66027826020808201956602130b233b29d160cd1b87528051918291018484015e810186838201520301601f1981018352826117b4565b6001546001600160a01b031690813b15611fac5791839160849383604051958680958194630eccbd3560e11b83528d60048401528b6024840152606060448401525180918160648501528484015e8181018301849052601f01601f191681010301925af115612afa57612c1a8280926117b4565b611fa95780612afa565b90503d8083833e612c3581836117b4565b81019060208183031261204c578051906001600160401b038211611fac570181601f8201121561204c578051906001600160401b0382116120385760405192612c88601f8401601f1916602001856117b4565b82845260208383010111611fac5781849260208093018386015e830101525f612b69565b612cc5915060203d602011611ce557611cd781836117b4565b5f612af1565b612cd89192505f906117b4565b5f905f612aaa565b604051636f143be160e01b81525f516020617e4f5f395f51905f526004820152909250602081602481855af480156108e7575f90612d2a575b612d24915042611d12565b91612a4d565b506020813d602011612d56575b81612d44602093836117b4565b8101031261016957612d249051612d19565b3d9150612d37565b612d77915060203d6020116108e0576108d281836117b4565b5f612a46565b611b6392505f516020617e4f5f395f51905f5291506165f9565b612db0915060203d6020116108e0576108d281836117b4565b5f6129f1565b600154604051630e05e5d560e21b81526001600160a01b03808416600483018190525f516020617c4f5f395f51905f526024840152935f9390929160209183916044918391165afa9081156108e7575f916131b2575b50613198575060405163157e6ad160e21b81525f516020617c4f5f395f51905f5260048201525f9173__$e3a882f22bd04f7a2b17b0bf615ac922fd$__91602081602481865af49081156108e7575f91613179575b50156130fb575b6001546001600160a01b0316803b156101695760405163024a6d6d60e11b8152600481018690525f516020617c4f5f395f51905f5260248201526001604482015260648101859052905f908290608490829084905af190816130e6575b50612ed05750505050565b604051630737fee160e41b81525f516020617c4f5f395f51905f526004820152602081602481865af4908115612050579061ffff9183916130c7575b50169182612f4c575b505060405f516020617c4f5f395f51905f5293925f516020617d0f5f395f51905f529282519182526020820152a35f808080611e34565b81602491604051928380926354b8d5e360e01b82525f516020617c4f5f395f51905f5260048301525af490811561205057829161303f575b50604051612fc16027826020808201956602130b233b29d160cd1b87528051918291018484015e810186838201520301601f1981018352826117b4565b6001546001600160a01b031690813b15611fac5791839160849383604051958680958194630eccbd3560e11b83528d60048401528b6024840152606060448401525180918160648501528484015e8181018301849052601f01601f191681010301925af115612f15576130358280926117b4565b611fa95780612f15565b90503d8083833e61305081836117b4565b81019060208183031261204c578051906001600160401b038211611fac570181601f8201121561204c578051906001600160401b03821161203857604051926130a3601f8401601f1916602001856117b4565b82845260208383010111611fac5781849260208093018386015e830101525f612f84565b6130e0915060203d602011611ce557611cd781836117b4565b5f612f0c565b6130f39192505f906117b4565b5f905f612ec5565b604051636f143be160e01b81525f516020617c4f5f395f51905f526004820152909250602081602481855af480156108e7575f90613145575b61313f915042611d12565b91612e68565b506020813d602011613171575b8161315f602093836117b4565b810103126101695761313f9051613134565b3d9150613152565b613192915060203d6020116108e0576108d281836117b4565b5f612e61565b611b6392505f516020617c4f5f395f51905f5291506165f9565b6131cb915060203d6020116108e0576108d281836117b4565b5f612e0c565b600154604051630e05e5d560e21b81526001600160a01b03808416600483018190525f516020617c6f5f395f51905f526024840152935f9390929160209183916044918391165afa9081156108e7575f916135cd575b506135b3575060405163157e6ad160e21b81525f516020617c6f5f395f51905f5260048201525f9173__$e3a882f22bd04f7a2b17b0bf615ac922fd$__91602081602481865af49081156108e7575f91613594575b5015613516575b6001546001600160a01b0316803b156101695760405163024a6d6d60e11b8152600481018690525f516020617c6f5f395f51905f5260248201526001604482015260648101859052905f908290608490829084905af19081613501575b506132eb5750505050565b604051630737fee160e41b81525f516020617c6f5f395f51905f526004820152602081602481865af4908115612050579061ffff9183916134e2575b50169182613367575b505060405f516020617c6f5f395f51905f5293925f516020617d0f5f395f51905f529282519182526020820152a35f808080611e34565b81602491604051928380926354b8d5e360e01b82525f516020617c6f5f395f51905f5260048301525af490811561205057829161345a575b506040516133dc6027826020808201956602130b233b29d160cd1b87528051918291018484015e810186838201520301601f1981018352826117b4565b6001546001600160a01b031690813b15611fac5791839160849383604051958680958194630eccbd3560e11b83528d60048401528b6024840152606060448401525180918160648501528484015e8181018301849052601f01601f191681010301925af115613330576134508280926117b4565b611fa95780613330565b90503d8083833e61346b81836117b4565b81019060208183031261204c578051906001600160401b038211611fac570181601f8201121561204c578051906001600160401b03821161203857604051926134be601f8401601f1916602001856117b4565b82845260208383010111611fac5781849260208093018386015e830101525f61339f565b6134fb915060203d602011611ce557611cd781836117b4565b5f613327565b61350e9192505f906117b4565b5f905f6132e0565b604051636f143be160e01b81525f516020617c6f5f395f51905f526004820152909250602081602481855af480156108e7575f90613560575b61355a915042611d12565b91613283565b506020813d60201161358c575b8161357a602093836117b4565b810103126101695761355a905161354f565b3d915061356d565b6135ad915060203d6020116108e0576108d281836117b4565b5f61327c565b611b6392505f516020617c6f5f395f51905f5291506165f9565b6135e6915060203d6020116108e0576108d281836117b4565b5f613227565b600154604051630e05e5d560e21b81526001600160a01b03808416600483018190525f516020617d2f5f395f51905f526024840152935f9390929160209183916044918391165afa9081156108e7575f916139e8575b506139ce575060405163157e6ad160e21b81525f516020617d2f5f395f51905f5260048201525f9173__$e3a882f22bd04f7a2b17b0bf615ac922fd$__91602081602481865af49081156108e7575f916139af575b5015613931575b6001546001600160a01b0316803b156101695760405163024a6d6d60e11b8152600481018690525f516020617d2f5f395f51905f5260248201526001604482015260648101859052905f908290608490829084905af1908161391c575b506137065750505050565b604051630737fee160e41b81525f516020617d2f5f395f51905f526004820152602081602481865af4908115612050579061ffff9183916138fd575b50169182613782575b505060405f516020617d2f5f395f51905f5293925f516020617d0f5f395f51905f529282519182526020820152a35f808080611e34565b81602491604051928380926354b8d5e360e01b82525f516020617d2f5f395f51905f5260048301525af4908115612050578291613875575b506040516137f76027826020808201956602130b233b29d160cd1b87528051918291018484015e810186838201520301601f1981018352826117b4565b6001546001600160a01b031690813b15611fac5791839160849383604051958680958194630eccbd3560e11b83528d60048401528b6024840152606060448401525180918160648501528484015e8181018301849052601f01601f191681010301925af11561374b5761386b8280926117b4565b611fa9578061374b565b90503d8083833e61388681836117b4565b81019060208183031261204c578051906001600160401b038211611fac570181601f8201121561204c578051906001600160401b03821161203857604051926138d9601f8401601f1916602001856117b4565b82845260208383010111611fac5781849260208093018386015e830101525f6137ba565b613916915060203d602011611ce557611cd781836117b4565b5f613742565b6139299192505f906117b4565b5f905f6136fb565b604051636f143be160e01b81525f516020617d2f5f395f51905f526004820152909250602081602481855af480156108e7575f9061397b575b613975915042611d12565b9161369e565b506020813d6020116139a7575b81613995602093836117b4565b8101031261016957613975905161396a565b3d9150613988565b6139c8915060203d6020116108e0576108d281836117b4565b5f613697565b611b6392505f516020617d2f5f395f51905f5291506165f9565b613a01915060203d6020116108e0576108d281836117b4565b5f613642565b600154604051630e05e5d560e21b81526001600160a01b03808416600483018190525f516020617d4f5f395f51905f526024840152935f9390929160209183916044918391165afa9081156108e7575f91613e03575b50613de9575060405163157e6ad160e21b81525f516020617d4f5f395f51905f5260048201525f9173__$e3a882f22bd04f7a2b17b0bf615ac922fd$__91602081602481865af49081156108e7575f91613dca575b5015613d4c575b6001546001600160a01b0316803b156101695760405163024a6d6d60e11b8152600481018690525f516020617d4f5f395f51905f5260248201526001604482015260648101859052905f908290608490829084905af19081613d37575b50613b215750505050565b604051630737fee160e41b81525f516020617d4f5f395f51905f526004820152602081602481865af4908115612050579061ffff918391613d18575b50169182613b9d575b505060405f516020617d4f5f395f51905f5293925f516020617d0f5f395f51905f529282519182526020820152a35f808080611e34565b81602491604051928380926354b8d5e360e01b82525f516020617d4f5f395f51905f5260048301525af4908115612050578291613c90575b50604051613c126027826020808201956602130b233b29d160cd1b87528051918291018484015e810186838201520301601f1981018352826117b4565b6001546001600160a01b031690813b15611fac5791839160849383604051958680958194630eccbd3560e11b83528d60048401528b6024840152606060448401525180918160648501528484015e8181018301849052601f01601f191681010301925af115613b6657613c868280926117b4565b611fa95780613b66565b90503d8083833e613ca181836117b4565b81019060208183031261204c578051906001600160401b038211611fac570181601f8201121561204c578051906001600160401b0382116120385760405192613cf4601f8401601f1916602001856117b4565b82845260208383010111611fac5781849260208093018386015e830101525f613bd5565b613d31915060203d602011611ce557611cd781836117b4565b5f613b5d565b613d449192505f906117b4565b5f905f613b16565b604051636f143be160e01b81525f516020617d4f5f395f51905f526004820152909250602081602481855af480156108e7575f90613d96575b613d90915042611d12565b91613ab9565b506020813d602011613dc2575b81613db0602093836117b4565b8101031261016957613d909051613d85565b3d9150613da3565b613de3915060203d6020116108e0576108d281836117b4565b5f613ab2565b611b6392505f516020617d4f5f395f51905f5291506165f9565b613e1c915060203d6020116108e0576108d281836117b4565b5f613a5d565b600154604051630e05e5d560e21b81526001600160a01b03808416600483018190525f516020617dcf5f395f51905f526024840152935f9390929160209183916044918391165afa9081156108e7575f9161421e575b50614204575060405163157e6ad160e21b81525f516020617dcf5f395f51905f5260048201525f9173__$e3a882f22bd04f7a2b17b0bf615ac922fd$__91602081602481865af49081156108e7575f916141e5575b5015614167575b6001546001600160a01b0316803b156101695760405163024a6d6d60e11b8152600481018690525f516020617dcf5f395f51905f5260248201526001604482015260648101859052905f908290608490829084905af19081614152575b50613f3c5750505050565b604051630737fee160e41b81525f516020617dcf5f395f51905f526004820152602081602481865af4908115612050579061ffff918391614133575b50169182613fb8575b505060405f516020617dcf5f395f51905f5293925f516020617d0f5f395f51905f529282519182526020820152a35f808080611e34565b81602491604051928380926354b8d5e360e01b82525f516020617dcf5f395f51905f5260048301525af49081156120505782916140ab575b5060405161402d6027826020808201956602130b233b29d160cd1b87528051918291018484015e810186838201520301601f1981018352826117b4565b6001546001600160a01b031690813b15611fac5791839160849383604051958680958194630eccbd3560e11b83528d60048401528b6024840152606060448401525180918160648501528484015e8181018301849052601f01601f191681010301925af115613f81576140a18280926117b4565b611fa95780613f81565b90503d8083833e6140bc81836117b4565b81019060208183031261204c578051906001600160401b038211611fac570181601f8201121561204c578051906001600160401b038211612038576040519261410f601f8401601f1916602001856117b4565b82845260208383010111611fac5781849260208093018386015e830101525f613ff0565b61414c915060203d602011611ce557611cd781836117b4565b5f613f78565b61415f9192505f906117b4565b5f905f613f31565b604051636f143be160e01b81525f516020617dcf5f395f51905f526004820152909250602081602481855af480156108e7575f906141b1575b6141ab915042611d12565b91613ed4565b506020813d6020116141dd575b816141cb602093836117b4565b81010312610169576141ab90516141a0565b3d91506141be565b6141fe915060203d6020116108e0576108d281836117b4565b5f613ecd565b611b6392505f516020617dcf5f395f51905f5291506165f9565b614237915060203d6020116108e0576108d281836117b4565b5f613e78565b600154604051630e05e5d560e21b81526001600160a01b03808416600483018190525f516020617d8f5f395f51905f526024840152935f9390929160209183916044918391165afa9081156108e7575f91614639575b5061461f575060405163157e6ad160e21b81525f516020617d8f5f395f51905f5260048201525f9173__$e3a882f22bd04f7a2b17b0bf615ac922fd$__91602081602481865af49081156108e7575f91614600575b5015614582575b6001546001600160a01b0316803b156101695760405163024a6d6d60e11b8152600481018690525f516020617d8f5f395f51905f5260248201526001604482015260648101859052905f908290608490829084905af1908161456d575b506143575750505050565b604051630737fee160e41b81525f516020617d8f5f395f51905f526004820152602081602481865af4908115612050579061ffff91839161454e575b501691826143d3575b505060405f516020617d8f5f395f51905f5293925f516020617d0f5f395f51905f529282519182526020820152a35f808080611e34565b81602491604051928380926354b8d5e360e01b82525f516020617d8f5f395f51905f5260048301525af49081156120505782916144c6575b506040516144486027826020808201956602130b233b29d160cd1b87528051918291018484015e810186838201520301601f1981018352826117b4565b6001546001600160a01b031690813b15611fac5791839160849383604051958680958194630eccbd3560e11b83528d60048401528b6024840152606060448401525180918160648501528484015e8181018301849052601f01601f191681010301925af11561439c576144bc8280926117b4565b611fa9578061439c565b90503d8083833e6144d781836117b4565b81019060208183031261204c578051906001600160401b038211611fac570181601f8201121561204c578051906001600160401b038211612038576040519261452a601f8401601f1916602001856117b4565b82845260208383010111611fac5781849260208093018386015e830101525f61440b565b614567915060203d602011611ce557611cd781836117b4565b5f614393565b61457a9192505f906117b4565b5f905f61434c565b604051636f143be160e01b81525f516020617d8f5f395f51905f526004820152909250602081602481855af480156108e7575f906145cc575b6145c6915042611d12565b916142ef565b506020813d6020116145f8575b816145e6602093836117b4565b81010312610169576145c690516145bb565b3d91506145d9565b614619915060203d6020116108e0576108d281836117b4565b5f6142e8565b611b6392505f516020617d8f5f395f51905f5291506165f9565b614652915060203d6020116108e0576108d281836117b4565b5f614293565b600154604051630e05e5d560e21b81526001600160a01b03808416600483018190525f516020617e2f5f395f51905f526024840152935f9390929160209183916044918391165afa9081156108e7575f91614a54575b50614a3a575060405163157e6ad160e21b81525f516020617e2f5f395f51905f5260048201525f9173__$e3a882f22bd04f7a2b17b0bf615ac922fd$__91602081602481865af49081156108e7575f91614a1b575b501561499d575b6001546001600160a01b0316803b156101695760405163024a6d6d60e11b8152600481018690525f516020617e2f5f395f51905f5260248201526001604482015260648101859052905f908290608490829084905af19081614988575b506147725750505050565b604051630737fee160e41b81525f516020617e2f5f395f51905f526004820152602081602481865af4908115612050579061ffff918391614969575b501691826147ee575b505060405f516020617e2f5f395f51905f5293925f516020617d0f5f395f51905f529282519182526020820152a35f808080611e34565b81602491604051928380926354b8d5e360e01b82525f516020617e2f5f395f51905f5260048301525af49081156120505782916148e1575b506040516148636027826020808201956602130b233b29d160cd1b87528051918291018484015e810186838201520301601f1981018352826117b4565b6001546001600160a01b031690813b15611fac5791839160849383604051958680958194630eccbd3560e11b83528d60048401528b6024840152606060448401525180918160648501528484015e8181018301849052601f01601f191681010301925af1156147b7576148d78280926117b4565b611fa957806147b7565b90503d8083833e6148f281836117b4565b81019060208183031261204c578051906001600160401b038211611fac570181601f8201121561204c578051906001600160401b0382116120385760405192614945601f8401601f1916602001856117b4565b82845260208383010111611fac5781849260208093018386015e830101525f614826565b614982915060203d602011611ce557611cd781836117b4565b5f6147ae565b6149959192505f906117b4565b5f905f614767565b604051636f143be160e01b81525f516020617e2f5f395f51905f526004820152909250602081602481855af480156108e7575f906149e7575b6149e1915042611d12565b9161470a565b506020813d602011614a13575b81614a01602093836117b4565b81010312610169576149e190516149d6565b3d91506149f4565b614a34915060203d6020116108e0576108d281836117b4565b5f614703565b611b6392505f516020617e2f5f395f51905f5291506165f9565b614a6d915060203d6020116108e0576108d281836117b4565b5f6146ae565b600154604051630e05e5d560e21b81526001600160a01b03808416600483018190525f516020617d6f5f395f51905f526024840152935f9390929160209183916044918391165afa9081156108e7575f91614e6f575b50614e55575060405163157e6ad160e21b81525f516020617d6f5f395f51905f5260048201525f9173__$e3a882f22bd04f7a2b17b0bf615ac922fd$__91602081602481865af49081156108e7575f91614e36575b5015614db8575b6001546001600160a01b0316803b156101695760405163024a6d6d60e11b8152600481018690525f516020617d6f5f395f51905f5260248201526001604482015260648101859052905f908290608490829084905af19081614da3575b50614b8d5750505050565b604051630737fee160e41b81525f516020617d6f5f395f51905f526004820152602081602481865af4908115612050579061ffff918391614d84575b50169182614c09575b505060405f516020617d6f5f395f51905f5293925f516020617d0f5f395f51905f529282519182526020820152a35f808080611e34565b81602491604051928380926354b8d5e360e01b82525f516020617d6f5f395f51905f5260048301525af4908115612050578291614cfc575b50604051614c7e6027826020808201956602130b233b29d160cd1b87528051918291018484015e810186838201520301601f1981018352826117b4565b6001546001600160a01b031690813b15611fac5791839160849383604051958680958194630eccbd3560e11b83528d60048401528b6024840152606060448401525180918160648501528484015e8181018301849052601f01601f191681010301925af115614bd257614cf28280926117b4565b611fa95780614bd2565b90503d8083833e614d0d81836117b4565b81019060208183031261204c578051906001600160401b038211611fac570181601f8201121561204c578051906001600160401b0382116120385760405192614d60601f8401601f1916602001856117b4565b82845260208383010111611fac5781849260208093018386015e830101525f614c41565b614d9d915060203d602011611ce557611cd781836117b4565b5f614bc9565b614db09192505f906117b4565b5f905f614b82565b604051636f143be160e01b81525f516020617d6f5f395f51905f526004820152909250602081602481855af480156108e7575f90614e02575b614dfc915042611d12565b91614b25565b506020813d602011614e2e575b81614e1c602093836117b4565b8101031261016957614dfc9051614df1565b3d9150614e0f565b614e4f915060203d6020116108e0576108d281836117b4565b5f614b1e565b611b6392505f516020617d6f5f395f51905f5291506165f9565b614e88915060203d6020116108e0576108d281836117b4565b5f614ac9565b600154604051630e05e5d560e21b81526001600160a01b03808416600483018190525f516020617daf5f395f51905f526024840152935f9390929160209183916044918391165afa9081156108e7575f9161528a575b50615270575060405163157e6ad160e21b81525f516020617daf5f395f51905f5260048201525f9173__$e3a882f22bd04f7a2b17b0bf615ac922fd$__91602081602481865af49081156108e7575f91615251575b50156151d3575b6001546001600160a01b0316803b156101695760405163024a6d6d60e11b8152600481018690525f516020617daf5f395f51905f5260248201526001604482015260648101859052905f908290608490829084905af190816151be575b50614fa85750505050565b604051630737fee160e41b81525f516020617daf5f395f51905f526004820152602081602481865af4908115612050579061ffff91839161519f575b50169182615024575b505060405f516020617daf5f395f51905f5293925f516020617d0f5f395f51905f529282519182526020820152a35f808080611e34565b81602491604051928380926354b8d5e360e01b82525f516020617daf5f395f51905f5260048301525af4908115612050578291615117575b506040516150996027826020808201956602130b233b29d160cd1b87528051918291018484015e810186838201520301601f1981018352826117b4565b6001546001600160a01b031690813b15611fac5791839160849383604051958680958194630eccbd3560e11b83528d60048401528b6024840152606060448401525180918160648501528484015e8181018301849052601f01601f191681010301925af115614fed5761510d8280926117b4565b611fa95780614fed565b90503d8083833e61512881836117b4565b81019060208183031261204c578051906001600160401b038211611fac570181601f8201121561204c578051906001600160401b038211612038576040519261517b601f8401601f1916602001856117b4565b82845260208383010111611fac5781849260208093018386015e830101525f61505c565b6151b8915060203d602011611ce557611cd781836117b4565b5f614fe4565b6151cb9192505f906117b4565b5f905f614f9d565b604051636f143be160e01b81525f516020617daf5f395f51905f526004820152909250602081602481855af480156108e7575f9061521d575b615217915042611d12565b91614f40565b506020813d602011615249575b81615237602093836117b4565b8101031261016957615217905161520c565b3d915061522a565b61526a915060203d6020116108e0576108d281836117b4565b5f614f39565b611b6392505f516020617daf5f395f51905f5291506165f9565b6152a3915060203d6020116108e0576108d281836117b4565b5f614ee4565b600154604051630e05e5d560e21b81526001600160a01b03808416600483018190525f516020617ccf5f395f51905f526024840152935f9390929160209183916044918391165afa9081156108e7575f916156a5575b5061568b575060405163157e6ad160e21b81525f516020617ccf5f395f51905f5260048201525f9173__$e3a882f22bd04f7a2b17b0bf615ac922fd$__91602081602481865af49081156108e7575f9161566c575b50156155ee575b6001546001600160a01b0316803b156101695760405163024a6d6d60e11b8152600481018690525f516020617ccf5f395f51905f5260248201526001604482015260648101859052905f908290608490829084905af190816155d9575b506153c35750505050565b604051630737fee160e41b81525f516020617ccf5f395f51905f526004820152602081602481865af4908115612050579061ffff9183916155ba575b5016918261543f575b505060405f516020617ccf5f395f51905f5293925f516020617d0f5f395f51905f529282519182526020820152a35f808080611e34565b81602491604051928380926354b8d5e360e01b82525f516020617ccf5f395f51905f5260048301525af4908115612050578291615532575b506040516154b46027826020808201956602130b233b29d160cd1b87528051918291018484015e810186838201520301601f1981018352826117b4565b6001546001600160a01b031690813b15611fac5791839160849383604051958680958194630eccbd3560e11b83528d60048401528b6024840152606060448401525180918160648501528484015e8181018301849052601f01601f191681010301925af115615408576155288280926117b4565b611fa95780615408565b90503d8083833e61554381836117b4565b81019060208183031261204c578051906001600160401b038211611fac570181601f8201121561204c578051906001600160401b0382116120385760405192615596601f8401601f1916602001856117b4565b82845260208383010111611fac5781849260208093018386015e830101525f615477565b6155d3915060203d602011611ce557611cd781836117b4565b5f6153ff565b6155e69192505f906117b4565b5f905f6153b8565b604051636f143be160e01b81525f516020617ccf5f395f51905f526004820152909250602081602481855af480156108e7575f90615638575b615632915042611d12565b9161535b565b506020813d602011615664575b81615652602093836117b4565b81010312610169576156329051615627565b3d9150615645565b615685915060203d6020116108e0576108d281836117b4565b5f615354565b611b6392505f516020617ccf5f395f51905f5291506165f9565b6156be915060203d6020116108e0576108d281836117b4565b5f6152ff565b600154604051630e05e5d560e21b81526001600160a01b03808416600483018190525f516020617e0f5f395f51905f526024840152935f9390929160209183916044918391165afa9081156108e7575f91615ac0575b50615aa6575060405163157e6ad160e21b81525f516020617e0f5f395f51905f5260048201525f9173__$e3a882f22bd04f7a2b17b0bf615ac922fd$__91602081602481865af49081156108e7575f91615a87575b5015615a09575b6001546001600160a01b0316803b156101695760405163024a6d6d60e11b8152600481018690525f516020617e0f5f395f51905f5260248201526001604482015260648101859052905f908290608490829084905af190816159f4575b506157de5750505050565b604051630737fee160e41b81525f516020617e0f5f395f51905f526004820152602081602481865af4908115612050579061ffff9183916159d5575b5016918261585a575b505060405f516020617e0f5f395f51905f5293925f516020617d0f5f395f51905f529282519182526020820152a35f808080611e34565b81602491604051928380926354b8d5e360e01b82525f516020617e0f5f395f51905f5260048301525af490811561205057829161594d575b506040516158cf6027826020808201956602130b233b29d160cd1b87528051918291018484015e810186838201520301601f1981018352826117b4565b6001546001600160a01b031690813b15611fac5791839160849383604051958680958194630eccbd3560e11b83528d60048401528b6024840152606060448401525180918160648501528484015e8181018301849052601f01601f191681010301925af115615823576159438280926117b4565b611fa95780615823565b90503d8083833e61595e81836117b4565b81019060208183031261204c578051906001600160401b038211611fac570181601f8201121561204c578051906001600160401b03821161203857604051926159b1601f8401601f1916602001856117b4565b82845260208383010111611fac5781849260208093018386015e830101525f615892565b6159ee915060203d602011611ce557611cd781836117b4565b5f61581a565b615a019192505f906117b4565b5f905f6157d3565b604051636f143be160e01b81525f516020617e0f5f395f51905f526004820152909250602081602481855af480156108e7575f90615a53575b615a4d915042611d12565b91615776565b506020813d602011615a7f575b81615a6d602093836117b4565b8101031261016957615a4d9051615a42565b3d9150615a60565b615aa0915060203d6020116108e0576108d281836117b4565b5f61576f565b611b6392505f516020617e0f5f395f51905f5291506165f9565b615ad9915060203d6020116108e0576108d281836117b4565b5f61571a565b600154604051630e05e5d560e21b81526001600160a01b038381166004830152602482018590525f939260209183916044918391165afa9081156108e7575f91615e87575b50615e7c5760405163157e6ad160e21b8152600481018490525f9273__$e3a882f22bd04f7a2b17b0bf615ac922fd$__91602081602481865af49081156108e7575f91615e5d575b5015615ded575b6001546001600160a01b0316803b156101695760405163024a6d6d60e11b81526001600160a01b0385166004820152602481018790526001604482015260648101869052905f908290608490829084905af19081615dd8575b50615bd8575050505050565b604051630737fee160e41b815260048101869052602081602481865af4908115612050579061ffff918391615db9575b50169182615c43575b50505f516020617d0f5f395f51905f52916040918251948552602085015260018060a01b031692a35f80808080611cec565b81602491604051928380926354b8d5e360e01b82528a60048301525af4908115612050578291615d31575b50604051615cab6027826020808201956602130b233b29d160cd1b87528051918291018484015e810186838201520301601f1981018352826117b4565b6001546001600160a01b031690813b15611fac5791839160849383604051958680958194630eccbd3560e11b835260018060a01b038d1660048401528b6024840152606060448401525180918160648501528484015e8181018301849052601f01601f191681010301925af115615c1157615d278280926117b4565b611fa95780615c11565b90503d8083833e615d4281836117b4565b81019060208183031261204c578051906001600160401b038211611fac570181601f8201121561204c578051906001600160401b0382116120385760405192615d95601f8401601f1916602001856117b4565b82845260208383010111611fac5781849260208093018386015e830101525f615c6e565b615dd2915060203d602011611ce557611cd781836117b4565b5f615c08565b615de59192505f906117b4565b5f905f615bcc565b9250604051636f143be160e01b8152846004820152602081602481855af480156108e7575f90615e29575b615e23915042611d12565b92615b73565b506020813d602011615e55575b81615e43602093836117b4565b8101031261016957615e239051615e18565b3d9150615e36565b615e76915060203d6020116108e0576108d281836117b4565b5f615b6c565b611b639291506165f9565b615ea0915060203d6020116108e0576108d281836117b4565b5f615b24565b908060209392818452848401375f828201840152601f01601f1916010190565b600154604051630e05e5d560e21b81526001600160a01b03838116600483015260248201859052939594935f921690602081604481855afa9081156108e7575f916160b8575b50156160b057803b156101695760405163024a6d6d60e11b81526001600160a01b0384166004820152602481018790525f604482018190526064820181905290918290608490829084905af1908161609b575b50615f6b575050505050565b604051630737fee160e41b81526004810186905260208160248173__$e3a882f22bd04f7a2b17b0bf615ac922fd$__5af4908115612050579061ffff91839161607c575b501680616009575b5050907f26d2c97c09cc1ae6ca58d6c5f71f9fe7f41b640abfc004802f040df1a8589b5991615ffc6040519283926020845260018060a01b0316956020840191615ea6565b0390a35f80808080611cec565b6001546001600160a01b031690813b1561204c5760405163031879a760e21b81526001600160a01b0385166004820152602481019190915260606044820152908290829081838161605e606482018c8c615ea6565b03925af115615fb7576160728280926117b4565b611fa95780615fb7565b616095915060203d602011611ce557611cd781836117b4565b5f615faf565b6160a89192505f906117b4565b5f905f615f5f565b505050505050565b6160d1915060203d6020116108e0576108d281836117b4565b5f615f0c565b6001600160401b0381116117a05760051b60200190565b8051821015610a3d5760209160051b010190565b5f1981146119675760010190565b61611981616738565b6163be575b616127816168a4565b616381575b616135816169f7565b616344575b61614381616bde565b616307575b61615181616d31565b6162ca575b61615f81616ec5565b61628d575b61616d81617033565b616250575b61617b81617186565b616213575b616189816172d9565b6161d6575b6161978161742c565b61619e5750565b5f546001600160a01b0316331415806161bf575b6102ef57611b63906156c4565b50335f52600460205260ff60405f205416156161b2565b5f546001600160a01b0316331415806161fc575b6102ef576161f7816152a9565b61618e565b50335f52600460205260ff60405f205416156161ea565b5f546001600160a01b031633141580616239575b6102ef5761623481614e8e565b616180565b50335f52600460205260ff60405f20541615616227565b5f546001600160a01b031633141580616276575b6102ef5761627181614a73565b616172565b50335f52600460205260ff60405f20541615616264565b5f546001600160a01b0316331415806162b3575b6102ef576162ae81614658565b616164565b50335f52600460205260ff60405f205416156162a1565b5f546001600160a01b0316331415806162f0575b6102ef576162eb8161423d565b616156565b50335f52600460205260ff60405f205416156162de565b5f546001600160a01b03163314158061632d575b6102ef5761632881613e22565b616148565b50335f52600460205260ff60405f2054161561631b565b5f546001600160a01b03163314158061636a575b6102ef5761636581613a07565b61613a565b50335f52600460205260ff60405f20541615616358565b5f546001600160a01b0316331415806163a7575b6102ef576163a2816135ec565b61612c565b50335f52600460205260ff60405f20541615616395565b5f546001600160a01b0316331415806163e4575b6102ef576163df816131d1565b61611e565b50335f52600460205260ff60405f205416156163d2565b6001600160a01b03165f818152600260205260409020600181018054608081901c6001600160401b0316156165d1575b506001600160401b0362015180420416906001600160401b03815460401c1680155f146164e057505f516020617c8f5f395f51905f52926164ac60809363ffffffff9364010000000067ffffffff00000000198554161784559067ffffffffffffffff60401b82549160401b169067ffffffffffffffff60401b1916179055565b5460201c166040519060408252600f60408301526e636f6e73656375746976654461797360881b60608301526020820152a2565b9092908281036164f1575050505050565b600101906001600160401b038211611967575f516020617c8f5f395f51905f529360809363ffffffff936001600160401b0316810361658f5761658a9161656261654086865460201c16611a90565b855467ffffffff00000000191660209190911b67ffffffff0000000016178555565b9067ffffffffffffffff60401b82549160401b169067ffffffffffffffff60401b1916179055565b6164ac565b825467ffffffff00000000191664010000000017835561658a919067ffffffffffffffff60401b82549160401b169067ffffffffffffffff60401b1916179055565b67ffffffffffffffff60801b19164260801b67ffffffffffffffff60801b161781555f61642b565b9060405163157e6ad160e21b815281600482015260208160248173__$e3a882f22bd04f7a2b17b0bf615ac922fd$__5af49081156108e7575f91616708575b506166a95760015460405163d5b37a7f60e01b81526001600160a01b03848116600483015260248201849052909160209183916044918391165afa9081156108e7575f916166d6575b508015159081806166cd575b1561669d575050611b639161793e565b816166b6575b506166ad575b5050565b611b639161793e565b62093a7f198101915081116119675742115f6166a3565b5080421161668d565b90506020813d602011616700575b816166f1602093836117b4565b8101031261016957515f616681565b3d91506166e4565b616721915060203d6020116108e0576108d281836117b4565b5f616638565b60ff1660ff81146119675760010190565b60018060a01b0316805f52600260205260405f2060ff60026040519261675d84611784565b805463ffffffff8116855263ffffffff8160201c16602086015263ffffffff8160401c16604086015263ffffffff8160601c16606086015263ffffffff8160801c16608086015263ffffffff8160a01c1660a086015263ffffffff8160c01c1660c086015260e01c60e0850152600181015463ffffffff811661010086015263ffffffff8160201c166101208601526001600160401b038160401c166101408601526001600160401b038160801c1661016086015260c01c610180850152015481811615156101a0840152818160081c1615156101c084015260101c1615156101e0820152602060018060a01b036001541692602460405180958193630d47875d60e41b835260048301525afa9081156108e75760329263ffffffff92616887575b505116101590565b61689f9060203d602011611ce557611cd781836117b4565b61687f565b6001600160a01b03165f818152600260205260409081902090516168c781611784565b6101e060ff600284549463ffffffff8616855263ffffffff8660201c166020860152604085019563ffffffff8160401c16875263ffffffff8160601c16606087015263ffffffff8160801c16608087015263ffffffff8160a01c1660a087015263ffffffff8160c01c1660c087015260e01c60e0860152600181015463ffffffff811661010087015263ffffffff8160201c166101208701526001600160401b038160401c166101408701526001600160401b038160801c1661016087015260c01c610180860152015481811615156101a0850152818160081c1615156101c085015260101c161515910152602060018060a01b036001541692602460405180958193630d47875d60e41b835260048301525afa9081156108e757600a9263ffffffff9261688757505116101590565b6001600160a01b03165f81815260026020526040908190209051616a1a81611784565b815463ffffffff8116825263ffffffff8160201c166020830152604082019263ffffffff8260401c16845263ffffffff8260601c16606084015260ff6002608085019263ffffffff8560801c16845260a086019463ffffffff8160a01c16865263ffffffff8160c01c1660c088015260e01c60e0870152600181015463ffffffff811661010088015263ffffffff8160201c166101208801526001600160401b038160401c166101408801526001600160401b038160801c1661016088015260c01c610180870152015481811615156101a0860152818160081c1615156101c086015260101c1615156101e0840152602060018060a01b036001541695602460405180988193630d47875d60e41b835260048301525afa9384156108e75760039560ff95616bc1575b5063ffffffff5f945116616bb8575b5163ffffffff16616ba1575b5163ffffffff16616b8a575b5163ffffffff16616b7c575b16101590565b616b8590616727565b616b76565b90616b9963ffffffff91616727565b919050616b6a565b91616bb063ffffffff91616727565b929050616b5e565b60019350616b52565b616bd99060203d602011611ce557611cd781836117b4565b616b43565b6001600160a01b03165f81815260026020526040908190209051616c0181611784565b6101e060ff600284549463ffffffff86168552602085019563ffffffff8160201c16875263ffffffff8160401c16604087015263ffffffff8160601c16606087015263ffffffff8160801c16608087015263ffffffff8160a01c1660a087015263ffffffff8160c01c1660c087015260e01c60e0860152600181015463ffffffff811661010087015263ffffffff8160201c166101208701526001600160401b038160401c166101408701526001600160401b038160801c1661016087015260c01c610180860152015481811615156101a0850152818160081c1615156101c085015260101c161515910152602060018060a01b036001541692602460405180958193630d47875d60e41b835260048301525afa9081156108e757601e9263ffffffff9261688757505116101590565b6001600160a01b03165f81815260026020526040908190209051616d5481611784565b6101e060ff600284549463ffffffff8616855263ffffffff8660201c16602086015263ffffffff8660401c166040860152606085019563ffffffff8160601c16875263ffffffff8160801c16608087015263ffffffff8160a01c1660a087015263ffffffff8160c01c1660c087015260e01c60e0860152600181015463ffffffff811661010087015263ffffffff8160201c166101208701526001600160401b038160401c166101408701526001600160401b038160801c1661016087015260c01c610180860152015481811615156101a0850152818160081c1615156101c085015260101c161515910152602060018060a01b036001541692602460405180958193630d47875d60e41b835260048301525afa9182156108e7575f92616e9b575b5063ffffffff606491511610159081616e8d575090565b6102bc915061ffff16101590565b6064919250616ebd63ffffffff9160203d602011611ce557611cd781836117b4565b929150616e76565b60018060a01b0316805f52600260205260405f206101e060ff600260405193616eed85611784565b805463ffffffff8116865263ffffffff8160201c16602087015263ffffffff8160401c16604087015263ffffffff8160601c16606087015263ffffffff8160801c16608087015263ffffffff8160a01c1660a087015263ffffffff8160c01c1660c087015260e01c60e0860152600181015463ffffffff811661010087015263ffffffff8160201c166101208701526001600160401b038160401c166101408701526001600160401b038160801c1661016087015260c01c610180860152015481811615156101a0850152818160081c1615156101c085015260101c161515910152602060018060a01b036001541691602460405180948193630d47875d60e41b835260048301525afa9081156108e7576123289161ffff915f91617014575b5016101590565b61702d915060203d602011611ce557611cd781836117b4565b5f61700d565b6001600160a01b03165f8181526002602052604090819020905161705681611784565b6101e060ff600284549463ffffffff8616855263ffffffff8660201c16602086015263ffffffff8660401c16604086015263ffffffff8660601c16606086015263ffffffff8660801c16608086015263ffffffff8660a01c1660a086015260c085019563ffffffff8160c01c16875260e01c60e0860152600181015463ffffffff811661010087015263ffffffff8160201c166101208701526001600160401b038160401c166101408701526001600160401b038160801c1661016087015260c01c610180860152015481811615156101a0850152818160081c1615156101c085015260101c161515910152602060018060a01b036001541692602460405180958193630d47875d60e41b835260048301525afa9081156108e757600a9263ffffffff9261688757505116101590565b6001600160a01b03165f818152600260205260409081902090516171a981611784565b815463ffffffff8116825263ffffffff8160201c16602083015263ffffffff8160401c16604083015263ffffffff8160601c16606083015263ffffffff8160801c16608083015263ffffffff8160a01c1660a083015263ffffffff8160c01c1660c083015260e01c60e08201526101e060ff600260018501549461010085019563ffffffff8116875263ffffffff8160201c166101208701526001600160401b038160401c166101408701526001600160401b038160801c1661016087015260c01c610180860152015481811615156101a0850152818160081c1615156101c085015260101c161515910152602060018060a01b036001541692602460405180958193630d47875d60e41b835260048301525afa9081156108e75760039263ffffffff9261688757505116101590565b6001600160a01b03165f818152600260205260409081902090516172fc81611784565b815463ffffffff8116825263ffffffff8160201c16602083015263ffffffff8160401c16604083015263ffffffff8160601c16606083015263ffffffff8160801c16608083015263ffffffff8160a01c1660a083015263ffffffff8160c01c1660c083015260e01c60e08201526101e060ff600260018501549463ffffffff861661010086015261012085019563ffffffff8160201c1687526001600160401b038160401c166101408701526001600160401b038160801c1661016087015260c01c610180860152015481811615156101a0850152818160081c1615156101c085015260101c161515910152602060018060a01b036001541692602460405180958193630d47875d60e41b835260048301525afa9081156108e75760059263ffffffff9261688757505116101590565b6001600160a01b03165f8181526002602052604090819020905161744f81611784565b6101e060ff600284549463ffffffff8616855263ffffffff8660201c16602086015263ffffffff8660401c16604086015263ffffffff8660601c16606086015263ffffffff8660801c16608086015263ffffffff8660a01c1660a086015260c085019563ffffffff8160c01c16875260e01c60e0860152600181015463ffffffff811661010087015263ffffffff8160201c166101208701526001600160401b038160401c166101408701526001600160401b038160801c1661016087015260c01c610180860152015481811615156101a0850152818160081c1615156101c085015260101c161515910152602060018060a01b036001541692602460405180958193630d47875d60e41b835260048301525afa9081156108e75760059263ffffffff9261688757505116101590565b60018060a01b031690815f52600260205260405f206040516175a081611784565b81549363ffffffff85168252602082019163ffffffff8660201c168352604081019263ffffffff8760401c168452606082019063ffffffff8860601c168252608083019263ffffffff8960801c16845260a0810163ffffffff8a60a01c16815260c082019963ffffffff8160c01c168b5260e01c60e083015260018801549461010083019763ffffffff8716895260ff600261012086019b63ffffffff8a60201c168d526001600160401b038a60401c166101408801526001600160401b038a60801c1661016088015261018087019960c01c8a52015481811615156101a0870152818160081c1615156101c087015260101c1615156101e0850152602060018060a01b0360015416986024604051809b8193630d47875d60e41b835260048301525afa9788156108e7575f9861791d575b505f516020617c6f5f395f51905f528b14617901575f516020617d2f5f395f51905f528b146178e5575f516020617d4f5f395f51905f528b1461789f57505050505f516020617dcf5f395f51905f52871461788757505f516020617d8f5f395f51905f52861461786957507f8f1a39279a10a884ddf0b6a95d0e46f341a5809f447de8f39f0c29e43a914272851461782a57505f516020617e2f5f395f51905f52841461781757505f516020617d6f5f395f51905f528314617805575f516020617daf5f395f51905f5283146177f157505f516020617ccf5f395f51905f5282146177df57505f516020617e0f5f395f51905f52146177d057505f90565b63ffffffff6005915116101590565b6005925063ffffffff91505116101590565b90506003925063ffffffff91505116101590565b50505063ffffffff600a915116101590565b915050612328925061ffff915016101590565b93505050506001600160401b03915051168015617864576301e13380016001600160401b038111611967576001600160401b031642101590565b505f90565b92505093506064925063ffffffff9150511610159081616e8d575090565b945050505050601e925063ffffffff91505116101590565b955095509550955050506003955060ff945063ffffffff5f945116616bb8575163ffffffff16616ba1575163ffffffff16616b8a575163ffffffff16616b7c5716101590565b98505050505050505050600a925063ffffffff91505116101590565b505050955050505050506032925063ffffffff91505116101590565b61793791985060203d602011611ce557611cd781836117b4565b965f6176d2565b617948828261757f565b15617a7857604051636f143be160e01b81526004810183905260208160248173__$e3a882f22bd04f7a2b17b0bf615ac922fd$__5af480156108e7575f90617a44575b617996915042611d12565b6001549091906001600160a01b0316803b156101695760405163024a6d6d60e11b81526001600160a01b0383166004820152602481018590526001604482015260648101849052905f908290608490829084905af19081617a34575b506179fc57505050565b6040519182526001600160a01b0316907f709768a937fa6c96f16d504e6ccd79ed0f7cec9890bc8caf66b974d8234b2b7290602090a3565b5f617a3e916117b4565b5f6179f2565b506020813d602011617a70575b81617a5e602093836117b4565b8101031261016957617996905161798b565b3d9150617a51565b6001545f906001600160a01b0316803b156101695760405163024a6d6d60e11b81526001600160a01b0384166004820152602481018590525f604482018190526064820181905290918290608490829084905af19081617c39575b50617add57505050565b604051630737fee160e41b81526004810184905260208160248173__$e3a882f22bd04f7a2b17b0bf615ac922fd$__5af4908115612050579061ffff918391617c1a575b501680617b86575b50507f26d2c97c09cc1ae6ca58d6c5f71f9fe7f41b640abfc004802f040df1a8589b596060604051926020845260146020850152734661696c656420746f2072652d7175616c69667960601b604085015260018060a01b031692a3565b6001546001600160a01b031690813b1561204c5760405163031879a760e21b81526001600160a01b0385166004820152602481019190915260606044820152602060648201527f42616467652065787069726564202d206e6f742072652d7175616c69666965646084820152908290829060a490829084905af115617b2957617c108280926117b4565b611fa95780617b29565b617c33915060203d602011611ce557611cd781836117b4565b5f617b21565b617c469192505f906117b4565b5f905f617ad356fecd25a284806e0931bbfbd59e48ca09094f95cc8a54899ac7cf670a7bc084e4c8fe3c33b66e28f14b3d890787766ee667031d474e01f41afd2282c6ddd242b13496af6c1bc6b7426f6e19731efc05c031985ae6b78f7170092d703c7da8e444f5a0bb1af1c90aa52ed052b92714ff0087008cc720049bf1af77cca2600b31e80c9f56690334c710be9812966692e10c040bde4927265518b422c82505f65961ec7866cd9bf5624adbb572bdf0ef2c6611719c1bd1dd881d077900477122585f51a4d0d2188316f6d5aba43361a7ec054181c935cc0ed13d35943e0d099fd5fc891b4e571958fba4ea5c92407500c44c03a913f7a3c4f5746fc318ba401831b4e5a96fb0ea3366184fa9ef274bb2b523bb1410c5597f5b73e284bcc8d9c27caf81fe29986656bd77a1f0da32c9315bed40455567f6060bea388c123d4bafff845ac4f6113bf43fb59dba21ffee106d9126a16fd7ef738a99e9f98f3366a7bcd62822d441acdd22f4ae7f00407a46293dd53140dc9fa6beeef35e22cb018b264344d33d23312f0938ef21668aa46fd5bd7b72db718fcdd7e30d1e9db0ea46420720372cedd1d27b066a923b896eea7904ca9ef57e79d18aa00ae08d276de72c77b14ad701a62eb4bddf2c4f992ebf56952b66972847c21daeab6931b6b4aa89a4ebe426caaf9f537d800bdc663bd466690f26963dfd7bb0ed1ed5f323a945377dfca03d1a4a2c4366d3db0c7243a29eef9c5e849fe7328823e0b7288dab59d52310a26469706673582212205834d6ba72adfb7ca988eb33557b5cbb1858df8efdaca326bfcd387ca599ee9864736f6c634300081e0033","linkReferences":{"contracts/BadgeRegistry.sol":{"BadgeRegistry":[{"start":7807,"length":20},{"start":8901,"length":20},{"start":9952,"length":20},{"start":11003,"length":20},{"start":12054,"length":20},{"start":13105,"length":20},{"start":14156,"length":20},{"start":15207,"length":20},{"start":16258,"length":20},{"start":17309,"length":20},{"start":18360,"length":20},{"start":19411,"length":20},{"start":20462,"length":20},{"start":21513,"length":20},{"start":22564,"length":20},{"start":23585,"length":20},{"start":24679,"length":20},{"start":26357,"length":20},{"start":31305,"length":20},{"start":31705,"length":20}]}}},"methodIdentifiers":{"MAX_FOUNDING_MEMBERS()":"f220836f","MAX_PIONEERS()":"aea3b217","awardBadge(address,bytes32)":"615e5cae","awardFoundingMember(address)":"5521f9fe","awardPioneer(address)":"466d055f","dao()":"4162169f","foundingMemberCount()":"bdf03329","getBadgeProgress(address,bytes32)":"13cf93fb","getEligibleBadges(address)":"93a645e4","getUserStats(address)":"4e43603a","lastBadgeCheck(address,bytes32)":"e7b2c7b2","operators(address)":"13e7c9d8","pioneerCount()":"c37f34ca","recordCommerceTx(address,bool)":"387b279c","recordContribution(address)":"05409f33","recordEducationalContent(address)":"283d6715","recordEndorsement(address)":"1d920985","recordFraudReport(address)":"85e8135c","recordGovernanceVote(address)":"e5b3d3ee","recordPresaleParticipation(address)":"77a0555c","recordReferral(address,address,bool)":"889b468d","recordTranslation(address)":"41752096","revokeBadge(address,bytes32,string)":"6d134ac2","seer()":"2d55ea39","setDAO(address)":"e73a914c","setOperator(address,bool)":"558a7297","setSeer(address)":"e071c1c0","userStats(address)":"8a65d874"},"id":0}