{"abi":[{"type":"constructor","inputs":[{"name":"_dao","type":"address","internalType":"address"},{"name":"_breaker","type":"address","internalType":"address"},{"name":"_ledger","type":"address","internalType":"address"}],"stateMutability":"nonpayable"},{"type":"function","name":"addMember","inputs":[{"name":"m","type":"address","internalType":"address"}],"outputs":[],"stateMutability":"nonpayable"},{"type":"function","name":"approvalsHalt","inputs":[],"outputs":[{"name":"","type":"uint8","internalType":"uint8"}],"stateMutability":"view"},{"type":"function","name":"approvalsUnhalt","inputs":[],"outputs":[{"name":"","type":"uint8","internalType":"uint8"}],"stateMutability":"view"},{"type":"function","name":"breaker","inputs":[],"outputs":[{"name":"","type":"address","internalType":"contract IEmergencyBreaker"}],"stateMutability":"view"},{"type":"function","name":"committeeVote","inputs":[{"name":"halt","type":"bool","internalType":"bool"},{"name":"reason","type":"string","internalType":"string"}],"outputs":[],"stateMutability":"nonpayable"},{"type":"function","name":"currentMembers","inputs":[{"name":"","type":"uint256","internalType":"uint256"}],"outputs":[{"name":"","type":"address","internalType":"address"}],"stateMutability":"view"},{"type":"function","name":"dao","inputs":[],"outputs":[{"name":"","type":"address","internalType":"address"}],"stateMutability":"view"},{"type":"function","name":"daoToggle","inputs":[{"name":"halt","type":"bool","internalType":"bool"},{"name":"reason","type":"string","internalType":"string"}],"outputs":[],"stateMutability":"nonpayable"},{"type":"function","name":"epoch","inputs":[],"outputs":[{"name":"","type":"uint256","internalType":"uint256"}],"stateMutability":"view"},{"type":"function","name":"haltVotingStartTime","inputs":[],"outputs":[{"name":"","type":"uint64","internalType":"uint64"}],"stateMutability":"view"},{"type":"function","name":"hasVotedHalt","inputs":[{"name":"m","type":"address","internalType":"address"}],"outputs":[{"name":"","type":"bool","internalType":"bool"}],"stateMutability":"view"},{"type":"function","name":"hasVotedUnhalt","inputs":[{"name":"m","type":"address","internalType":"address"}],"outputs":[{"name":"","type":"bool","internalType":"bool"}],"stateMutability":"view"},{"type":"function","name":"isMember","inputs":[{"name":"","type":"address","internalType":"address"}],"outputs":[{"name":"","type":"bool","internalType":"bool"}],"stateMutability":"view"},{"type":"function","name":"lastToggleTs","inputs":[],"outputs":[{"name":"","type":"uint64","internalType":"uint64"}],"stateMutability":"view"},{"type":"function","name":"lastVotedHaltEpoch","inputs":[{"name":"","type":"address","internalType":"address"}],"outputs":[{"name":"","type":"uint256","internalType":"uint256"}],"stateMutability":"view"},{"type":"function","name":"lastVotedUnhaltEpoch","inputs":[{"name":"","type":"address","internalType":"address"}],"outputs":[{"name":"","type":"uint256","internalType":"uint256"}],"stateMutability":"view"},{"type":"function","name":"ledger","inputs":[],"outputs":[{"name":"","type":"address","internalType":"contract IProofLedger"}],"stateMutability":"view"},{"type":"function","name":"memberCount","inputs":[],"outputs":[{"name":"","type":"uint8","internalType":"uint8"}],"stateMutability":"view"},{"type":"function","name":"minCooldown","inputs":[],"outputs":[{"name":"","type":"uint64","internalType":"uint64"}],"stateMutability":"view"},{"type":"function","name":"removeMember","inputs":[{"name":"m","type":"address","internalType":"address"}],"outputs":[],"stateMutability":"nonpayable"},{"type":"function","name":"resetCommittee","inputs":[{"name":"_threshold","type":"uint8","internalType":"uint8"},{"name":"members","type":"address[]","internalType":"address[]"}],"outputs":[],"stateMutability":"nonpayable"},{"type":"function","name":"resetVotes","inputs":[],"outputs":[],"stateMutability":"nonpayable"},{"type":"function","name":"setCooldown","inputs":[{"name":"secondsMin","type":"uint64","internalType":"uint64"}],"outputs":[],"stateMutability":"nonpayable"},{"type":"function","name":"setModules","inputs":[{"name":"_dao","type":"address","internalType":"address"},{"name":"_breaker","type":"address","internalType":"address"},{"name":"_ledger","type":"address","internalType":"address"}],"outputs":[],"stateMutability":"nonpayable"},{"type":"function","name":"setThreshold","inputs":[{"name":"_threshold","type":"uint8","internalType":"uint8"}],"outputs":[],"stateMutability":"nonpayable"},{"type":"function","name":"threshold","inputs":[],"outputs":[{"name":"","type":"uint8","internalType":"uint8"}],"stateMutability":"view"},{"type":"function","name":"timeSinceLastToggle","inputs":[],"outputs":[{"name":"","type":"uint64","internalType":"uint64"}],"stateMutability":"view"},{"type":"function","name":"unhaltVotingStartTime","inputs":[],"outputs":[{"name":"","type":"uint64","internalType":"uint64"}],"stateMutability":"view"},{"type":"function","name":"voteExpiryPeriod","inputs":[],"outputs":[{"name":"","type":"uint64","internalType":"uint64"}],"stateMutability":"view"},{"type":"event","name":"CommitteeReset","inputs":[{"name":"threshold","type":"uint8","indexed":false,"internalType":"uint8"},{"name":"members","type":"address[]","indexed":false,"internalType":"address[]"}],"anonymous":false},{"type":"event","name":"CommitteeTriggered","inputs":[{"name":"halt","type":"bool","indexed":false,"internalType":"bool"},{"name":"reason","type":"string","indexed":false,"internalType":"string"}],"anonymous":false},{"type":"event","name":"CommitteeVote","inputs":[{"name":"member","type":"address","indexed":true,"internalType":"address"},{"name":"halt","type":"bool","indexed":false,"internalType":"bool"},{"name":"approvals","type":"uint8","indexed":false,"internalType":"uint8"},{"name":"reason","type":"string","indexed":false,"internalType":"string"}],"anonymous":false},{"type":"event","name":"CooldownSet","inputs":[{"name":"secondsMin","type":"uint64","indexed":false,"internalType":"uint64"}],"anonymous":false},{"type":"event","name":"DAOToggled","inputs":[{"name":"halt","type":"bool","indexed":false,"internalType":"bool"},{"name":"reason","type":"string","indexed":false,"internalType":"string"}],"anonymous":false},{"type":"event","name":"MemberAdded","inputs":[{"name":"member","type":"address","indexed":false,"internalType":"address"}],"anonymous":false},{"type":"event","name":"MemberRemoved","inputs":[{"name":"member","type":"address","indexed":false,"internalType":"address"}],"anonymous":false},{"type":"event","name":"ModulesSet","inputs":[{"name":"dao","type":"address","indexed":false,"internalType":"address"},{"name":"breaker","type":"address","indexed":false,"internalType":"address"},{"name":"ledger","type":"address","indexed":false,"internalType":"address"}],"anonymous":false},{"type":"error","name":"EC_AlreadyMember","inputs":[]},{"type":"error","name":"EC_AlreadyVoted","inputs":[]},{"type":"error","name":"EC_BadThreshold","inputs":[]},{"type":"error","name":"EC_Cooldown","inputs":[]},{"type":"error","name":"EC_NotDAO","inputs":[]},{"type":"error","name":"EC_NotMember","inputs":[]},{"type":"error","name":"EC_Zero","inputs":[]}],"bytecode":{"object":"0x60803461014a57601f611b2b38819003918201601f19168301916001600160401b0383118484101761014e5780849260609460405283398101031261014a5761004781610162565b90610060604061005960208401610162565b9201610162565b600254600a805462010000600160501b03191664093a80000017905590926001600160a01b03169081158015610139575b61012a575f80546001600160a01b03199081168417909155600180549091166001600160a01b0394851690811782556001600160e01b031990921693909416928317604b60a21b17600255600793909355604080519182526020820193909352918201527f4ae14344aaed3962a7f6c6977dc689bd5108ebb211a205507f01ae2a95148ce990606090a16040516119b490816101778239f35b634fed6a0560e11b5f5260045ffd5b506001600160a01b03831615610091565b5f80fd5b634e487b7160e01b5f52604160045260245ffd5b51906001600160a01b038216820361014a5756fe60806040526004361015610011575f80fd5b5f5f3560e01c8063053f4a661461155457806307fbe3b61461152b5780630b1ca49a146113215780630f41e0d2146112f957806311aee380146112d95780632fafe00f146112b35780634162169f1461128c57806342cde4e814611269578063446ad549146112275780634b11982e1461116e57806356397c35146111465780637def2e3514610b49578063900cf0cf14610b2b5780639e3a5d4114610b01578063a230c52414610ac2578063a383cde214610a89578063a8336a061461096b578063adc5188b1461092e578063b7f92918146108f1578063b9830ff114610883578063bff8043a14610862578063c4305d7d14610680578063ca6d56dc14610587578063cd716f76146102aa578063d6e8b9f314610280578063db6f9d1514610256578063db9df33314610232578063dc12a48d146101f95763e5a9860314610159575f80fd5b346101f65760203660031901126101f65761017261161c565b61017a6117c9565b60ff811680159081156101e7575b506101d85761ff006006549160081b169061ff001916176006556101d56040516101b3604082611666565b601081526f1958d7dd1a1c995cda1bdb1917dcd95d60821b602082015261180f565b80f35b63567e11b360e01b8252600482fd5b905060ff60065416105f610188565b80fd5b50346101f65760203660031901126101f6576020906040906001600160a01b0361022161157f565b168152600983522054604051908152f35b50346101f657806003193601126101f657602060ff600a5460081c16604051908152f35b50346101f657806003193601126101f65760206001600160401b03600a5460501c16604051908152f35b50346101f657806003193601126101f65760206001600160401b0360025460a01c16604051908152f35b50346101f65760403660031901126101f6576102c461161c565b6024356001600160401b0381116105835736602382011215610583578060040135906001600160401b03821161057f573660248360051b8301011161057f5761030b6117c9565b60ff831680158015610576575b61056757845b60055481101561035b5780610334600192611595565b838060a01b0391549060031b1c16875260046020526040872060ff1981541690550161031e565b5084936005548560055580610507575b5061ff006006549160081b169061ffff191617600655610389611963565b835b83811015610458576024600582901b840101356001600160a01b0381169081810361045457811561044557818752600460205260ff6040882054166104365760208261040f7fb251eb052afc73ffd02ffe85ad79990a8b3fed60d76dbc2fa2fdd7123dffd91493600196958b526004845260408b208760ff1982541617905561175c565b60065460ff61041f8183166116c9565b169060ff191617600655604051908152a10161038b565b63300be6a160e01b8752600487fd5b634fed6a0560e11b8752600487fd5b8680fd5b5091806040519360408501908552604060208601525260246060840192019084905b8082106104dd57857fbc5a8c8ee0ed60f458920b4eb029c87b8a8d8948500191db53b70ac8452664ec86860387a16101d56040516104b9604082611666565b60128152711958d7d8dbdb5b5a5d1d195957dc995cd95d60721b602082015261180f565b90919283359060018060a01b0382168092036104545760208160019382935201940192019061047a565b600586527f036b6384b5eca791c62761152d0c79bb0604c104a5fb6f4eb0703f3154bb3db0017f036b6384b5eca791c62761152d0c79bb0604c104a5fb6f4eb0703f3154bb3db05b81811061055c575061036b565b86815560010161054f565b63567e11b360e01b8552600485fd5b50828111610318565b8380fd5b8280fd5b50346101f65760203660031901126101f6576105a161157f565b6105a96117c9565b6001600160a01b03811690811561067157818352600460205260ff604084205416610662578161062b6020927fb251eb052afc73ffd02ffe85ad79990a8b3fed60d76dbc2fa2fdd7123dffd9149486526004845260408620600160ff1982541617905560065460ff61061c8183166116c9565b169060ff19161760065561175c565b604051908152a16101d5604051610643604082611666565b600d81526c1958d7db595b58995c97d85919609a1b602082015261180f565b63300be6a160e01b8352600483fd5b634fed6a0560e11b8352600483fd5b50346101f65780610690366115c1565b906106996117c9565b6106a1611916565b6001546001600160a01b0316803b1561080d5784604051809263337d1d5b60e01b82528183816106d689898c60048501611740565b03925af190811561085757859161083d575b505061077d906001600160401b0342166001600160401b031960035416176003557f6f799a3cb5289d4d634a3466ba79f91baf080d41ac6a2e940c91609a187ee3de6040518061073a86858984611740565b0390a16001546001600160a01b031693156108115760405161075d604082611666565b600a815269313932b0b5b2b92fb7b760b11b6020820152925b36916116fb565b6002549092906001600160a01b031680610795578480f35b803b1561080d578492836107d0936107e860405197889687958694630303c28760e61b865260048601526080602486015260848501906117eb565b908460448501526003198483030160648501526117eb565b03925af16107f8575b8080808480f35b8161080291611666565b6101f657805f6107f1565b8480fd5b60405161081f604082611666565b600b81526a313932b0b5b2b92fb7b33360a91b602082015292610776565b8161084791611666565b61085257835f6106e8565b505050fd5b6040513d87823e3d90fd5b50346101f657806003193601126101f657602060ff600a5416604051908152f35b50346101f657806003193601126101f65761089c6117c9565b6108a4611963565b6fffffffffffffffffffffffffffffffff60501b19600a5416600a556101d56040516108d1604082611666565b600e81526d1958d7dd9bdd195cd7dc995cd95d60921b602082015261180f565b50346101f65760203660031901126101f6576020906040906001600160a01b0361091961157f565b16815260088352205460075414604051908152f35b50346101f65760203660031901126101f6576020906040906001600160a01b0361095661157f565b16815260098352205460075414604051908152f35b50346101f65760603660031901126101f65761098561157f565b6024356001600160a01b0381169190829003610583576044356001600160a01b038116919082900361057f576109b96117c9565b6001600160a01b03169182158015610a81575b610a7257916060917f4ae14344aaed3962a7f6c6977dc689bd5108ebb211a205507f01ae2a95148ce993826001600160601b0360a01b875416178655806001600160601b0360a01b6001541617600155816001600160601b0360a01b600254161760025560405192835260208301526040820152a16101d5604051610a52604082611666565b600e81526d1958d7db5bd91d5b195cd7dcd95d60921b602082015261180f565b634fed6a0560e11b8452600484fd5b5080156109cc565b50346101f65760203660031901126101f6576020906040906001600160a01b03610ab161157f565b168152600883522054604051908152f35b50346101f65760203660031901126101f65760209060ff906040906001600160a01b03610aed61157f565b168152600484522054166040519015158152f35b50346101f657806003193601126101f65760206001600160401b03600a5460901c16604051908152f35b50346101f657806003193601126101f6576020600754604051908152f35b50346110cd57610b58366115c1565b9091335f52600460205260ff60405f205416156111375715610e3957600a546001600160401b038160501c1680159081159081610e16575b5015610de2575050600a805471ffffffffffffffff000000000000000000ff19164260501b67ffffffffffffffff60501b16179055600754610bd1906116bb565b6007555b33835260086020526040832054600754809114610dd35733845260086020526040842055600a549060ff610c0a8184166116c9565b16809260ff191617600a5560405160018152826020820152606060408201527f82a2e58dba38a07a8ff15e50655e00cac15812f6dc0b882e14e25eb046b994bb610c586060830184876116db565b918033930390a2610c9d604092835190610c728583611666565b600c82526b1958d7dd9bdd1957da185b1d60a21b6020830152610c963685886116fb565b913361187c565b60ff600a541660ff60065460081c161115610cb9575b50505080f35b610cc1611916565b60015484906001600160a01b0316803b15610dcf57818451809263337d1d5b60e01b825260016004830152866024830152818381610d03604482018a8d6116db565b03925af18015610dc557610db0575b5050610da0927f621f66e7ee390bb8bafd11c60c3794e960819300723bdbe771d28c7bc0efde60916001600160401b0342166001600160401b03196003541617600355610d70845192839260018452866020850152868401916116db565b0390a1610d7f81519182611666565b600f81526e1958d7dd1c9a59d9d95c97da185b1d608a1b602082015261180f565b610da8611963565b5f8080610cb3565b81610dba91611666565b61057f57835f610d12565b84513d84823e3d90fd5b5080fd5b6320226fdb60e11b8452600484fd5b610ded575b50610bd5565b67ffffffffffffffff60501b19164260501b67ffffffffffffffff60501b1617600a555f610de7565b6001600160401b039150610e3090828560101c169061169b565b1642115f610b90565b9190600a546001600160401b038160901c1680159081159081611114575b50156110e0575050600a805479ffffffffffffffff00000000000000000000000000000000ff0019164260901b67ffffffffffffffff60901b16179055600754610ea0906116bb565b6007555b335f52600960205260405f20546007548091146110d157335f52600960205260405f205560ff600a5461ff00610ede838360081c166116c9565b60081b169061ff0019161780600a5560081c16906040515f8152826020820152606060408201527f82a2e58dba38a07a8ff15e50655e00cac15812f6dc0b882e14e25eb046b994bb610f346060830187856116db565b918033930390a2610f74604092835190610f4e8583611666565b600e82526d1958d7dd9bdd1957dd5b9a185b1d60921b6020830152610c963688866116fb565b60ff600a5460081c1660ff60065460081c161115610f94575b5050905080f35b610f9c611916565b6001546001600160a01b0316803b156110cd575f8351809263337d1d5b60e01b8252826004830152856024830152818381610fdb604482018c8a6116db565b03925af180156110c357611089575b507f621f66e7ee390bb8bafd11c60c3794e960819300723bdbe771d28c7bc0efde609061107993946001600160401b0342166001600160401b031960035416176003556110478451928392888452866020850152868401916116db565b0390a161105681519182611666565b60118152701958d7dd1c9a59d9d95c97dd5b9a185b1d607a1b602082015261180f565b611081611963565b805f80610f8d565b6110799350906110ba5f7f621f66e7ee390bb8bafd11c60c3794e960819300723bdbe771d28c7bc0efde6093611666565b5f935090610fea565b83513d5f823e3d90fd5b5f80fd5b6320226fdb60e11b5f5260045ffd5b6110eb575b50610ea4565b67ffffffffffffffff60901b19164260901b67ffffffffffffffff60901b1617600a555f6110e5565b6001600160401b03915061112e90828560101c169061169b565b1642115f610e57565b637e3ead1760e01b5f5260045ffd5b346110cd575f3660031901126110cd576002546040516001600160a01b039091168152602090f35b346110cd5760203660031901126110cd576004356001600160401b038116908181036110cd577fd3c86bd8150fcc5f376375097a2a9b313bf89addc501ee368c9eebe117328497916020916111c16117c9565b6002805467ffffffffffffffff60a01b191660a09290921b67ffffffffffffffff60a01b16919091179055604051908152a1611225604051611204604082611666565b600f81526e1958d7d8dbdbdb191bdddb97dcd95d608a1b602082015261180f565b005b346110cd5760203660031901126110cd576004356005548110156110cd57611250602091611595565b905460405160039290921b1c6001600160a01b03168152f35b346110cd575f3660031901126110cd57602060ff60065460081c16604051908152f35b346110cd575f3660031901126110cd575f546040516001600160a01b039091168152602090f35b346110cd575f3660031901126110cd5760206001600160401b0360035416604051908152f35b346110cd575f3660031901126110cd57602060ff60065416604051908152f35b346110cd575f3660031901126110cd576001546040516001600160a01b039091168152602090f35b346110cd5760203660031901126110cd5761133a61157f565b6113426117c9565b6001600160a01b03165f8181526004602052604090205460ff161561113757805f52600460205260405f2060ff1981541690556006545f1960ff82160160ff81116114ec5760ff169060ff1916176006555f5b600554908181101561150057826113ab82611595565b905460039190911b1c6001600160a01b0316146113cc576001915001611395565b5f1982019182116114ec576113fe6113e661142293611595565b905460039190911b1c6001600160a01b031691611595565b81546001600160a01b0393841660039290921b91821b9390911b1916919091179055565b60055480156114d8577f6e76fb4c77256006d9c38ec7d82b45a8c8f3c27b1d6766fffc42dfb8de684492916020915f190161145c81611595565b81549060018060a01b039060031b1b191690556005555b604051908152a16114ad60405161148b604082611666565b601081526f65635f6d656d6265725f72656d6f766560801b602082015261180f565b60065460ff811660ff8260081c16116114c257005b61ff0019811660089190911b61ff001617600655005b634e487b7160e01b5f52603160045260245ffd5b634e487b7160e01b5f52601160045260245ffd5b505060207f6e76fb4c77256006d9c38ec7d82b45a8c8f3c27b1d6766fffc42dfb8de68449291611473565b346110cd575f3660031901126110cd5760206001600160401b03600a5460101c16604051908152f35b346110cd575f3660031901126110cd57602061156e61162c565b6001600160401b0360405191168152f35b600435906001600160a01b03821682036110cd57565b6005548110156115ad5760055f5260205f2001905f90565b634e487b7160e01b5f52603260045260245ffd5b60406003198201126110cd5760043580151581036110cd57916024356001600160401b0381116110cd57826023820112156110cd578060040135926001600160401b0384116110cd57602484830101116110cd576024019190565b6004359060ff821682036110cd57565b6001600160401b0360035416801561165a576001600160401b034216036001600160401b0381116114ec5790565b506001600160401b0390565b90601f801991011681019081106001600160401b0382111761168757604052565b634e487b7160e01b5f52604160045260245ffd5b906001600160401b03809116911601906001600160401b0382116114ec57565b5f1981146114ec5760010190565b60ff60019116019060ff82116114ec57565b908060209392818452848401375f828201840152601f01601f1916010190565b9291926001600160401b0382116116875760405191611724601f8201601f191660200184611666565b8294818452818301116110cd578281602093845f960137010152565b60409061175994921515815281602082015201916116db565b90565b600554906801000000000000000082101561168757600182016005556005548210156115ad5760055f527f036b6384b5eca791c62761152d0c79bb0604c104a5fb6f4eb0703f3154bb3db090910180546001600160a01b0319166001600160a01b03909216919091179055565b5f546001600160a01b031633036117dc57565b63c5d5adb160e01b5f5260045ffd5b805180835260209291819084018484015e5f828201840152601f01601f1916010190565b6002546001600160a01b031680611824575050565b803b156110cd57604051633ddd61ab60e21b815230600482015260606024820152915f91839182908490829061185e9060648301906117eb565b33604483015203925af1611870575b50565b5f61187a91611666565b565b60025490916001600160a01b03909116908161189a575b5050505050565b813b156110cd575f6118dd936118f4829660405198899788968795630303c28760e61b875260018060a01b031660048701526080602487015260848601906117eb565b9160448501526003198483030160648501526117eb565b03925af1611906575b80808080611893565b5f61191091611666565b5f6118fd565b6001600160401b0360035416801561186d576119426001600160401b03918260025460a01c169061169b565b166001600160401b0342161061195457565b633c8ad51160e11b5f5260045ffd5b61ffff19600a5416600a556119796007546116bb565b60075556fea26469706673582212204a963c652cad2b8097ed7718db6fb10cf17381c4de1d3593695d07a288696e5f64736f6c634300081e0033","linkReferences":{}},"methodIdentifiers":{"addMember(address)":"ca6d56dc","approvalsHalt()":"bff8043a","approvalsUnhalt()":"db9df333","breaker()":"0f41e0d2","committeeVote(bool,string)":"7def2e35","currentMembers(uint256)":"446ad549","dao()":"4162169f","daoToggle(bool,string)":"c4305d7d","epoch()":"900cf0cf","haltVotingStartTime()":"db6f9d15","hasVotedHalt(address)":"b7f92918","hasVotedUnhalt(address)":"adc5188b","isMember(address)":"a230c524","lastToggleTs()":"2fafe00f","lastVotedHaltEpoch(address)":"a383cde2","lastVotedUnhaltEpoch(address)":"dc12a48d","ledger()":"56397c35","memberCount()":"11aee380","minCooldown()":"d6e8b9f3","removeMember(address)":"0b1ca49a","resetCommittee(uint8,address[])":"cd716f76","resetVotes()":"b9830ff1","setCooldown(uint64)":"4b11982e","setModules(address,address,address)":"a8336a06","setThreshold(uint8)":"e5a98603","threshold()":"42cde4e8","timeSinceLastToggle()":"053f4a66","unhaltVotingStartTime()":"9e3a5d41","voteExpiryPeriod()":"07fbe3b6"},"id":11}