{"abi":[{"type":"constructor","inputs":[{"name":"_dao","type":"address","internalType":"address"},{"name":"_breaker","type":"address","internalType":"address"},{"name":"_ledger","type":"address","internalType":"address"}],"stateMutability":"nonpayable"},{"type":"function","name":"addMember","inputs":[{"name":"m","type":"address","internalType":"address"}],"outputs":[],"stateMutability":"nonpayable"},{"type":"function","name":"approvalsHalt","inputs":[],"outputs":[{"name":"","type":"uint8","internalType":"uint8"}],"stateMutability":"view"},{"type":"function","name":"approvalsUnhalt","inputs":[],"outputs":[{"name":"","type":"uint8","internalType":"uint8"}],"stateMutability":"view"},{"type":"function","name":"breaker","inputs":[],"outputs":[{"name":"","type":"address","internalType":"contract IEmergencyBreaker"}],"stateMutability":"view"},{"type":"function","name":"committeeVote","inputs":[{"name":"halt","type":"bool","internalType":"bool"},{"name":"reason","type":"string","internalType":"string"}],"outputs":[],"stateMutability":"nonpayable"},{"type":"function","name":"currentMembers","inputs":[{"name":"","type":"uint256","internalType":"uint256"}],"outputs":[{"name":"","type":"address","internalType":"address"}],"stateMutability":"view"},{"type":"function","name":"dao","inputs":[],"outputs":[{"name":"","type":"address","internalType":"address"}],"stateMutability":"view"},{"type":"function","name":"daoToggle","inputs":[{"name":"halt","type":"bool","internalType":"bool"},{"name":"reason","type":"string","internalType":"string"}],"outputs":[],"stateMutability":"nonpayable"},{"type":"function","name":"epoch","inputs":[],"outputs":[{"name":"","type":"uint256","internalType":"uint256"}],"stateMutability":"view"},{"type":"function","name":"haltVotingStartTime","inputs":[],"outputs":[{"name":"","type":"uint64","internalType":"uint64"}],"stateMutability":"view"},{"type":"function","name":"hasVotedHalt","inputs":[{"name":"m","type":"address","internalType":"address"}],"outputs":[{"name":"","type":"bool","internalType":"bool"}],"stateMutability":"view"},{"type":"function","name":"hasVotedUnhalt","inputs":[{"name":"m","type":"address","internalType":"address"}],"outputs":[{"name":"","type":"bool","internalType":"bool"}],"stateMutability":"view"},{"type":"function","name":"isMember","inputs":[{"name":"","type":"address","internalType":"address"}],"outputs":[{"name":"","type":"bool","internalType":"bool"}],"stateMutability":"view"},{"type":"function","name":"lastToggleTs","inputs":[],"outputs":[{"name":"","type":"uint64","internalType":"uint64"}],"stateMutability":"view"},{"type":"function","name":"lastVotedHaltEpoch","inputs":[{"name":"","type":"address","internalType":"address"}],"outputs":[{"name":"","type":"uint256","internalType":"uint256"}],"stateMutability":"view"},{"type":"function","name":"lastVotedUnhaltEpoch","inputs":[{"name":"","type":"address","internalType":"address"}],"outputs":[{"name":"","type":"uint256","internalType":"uint256"}],"stateMutability":"view"},{"type":"function","name":"ledger","inputs":[],"outputs":[{"name":"","type":"address","internalType":"contract IProofLedger"}],"stateMutability":"view"},{"type":"function","name":"memberCount","inputs":[],"outputs":[{"name":"","type":"uint8","internalType":"uint8"}],"stateMutability":"view"},{"type":"function","name":"minCooldown","inputs":[],"outputs":[{"name":"","type":"uint64","internalType":"uint64"}],"stateMutability":"view"},{"type":"function","name":"removeMember","inputs":[{"name":"m","type":"address","internalType":"address"}],"outputs":[],"stateMutability":"nonpayable"},{"type":"function","name":"resetCommittee","inputs":[{"name":"_threshold","type":"uint8","internalType":"uint8"},{"name":"members","type":"address[]","internalType":"address[]"}],"outputs":[],"stateMutability":"nonpayable"},{"type":"function","name":"resetVotes","inputs":[],"outputs":[],"stateMutability":"nonpayable"},{"type":"function","name":"setCooldown","inputs":[{"name":"secondsMin","type":"uint64","internalType":"uint64"}],"outputs":[],"stateMutability":"nonpayable"},{"type":"function","name":"setModules","inputs":[{"name":"_dao","type":"address","internalType":"address"},{"name":"_breaker","type":"address","internalType":"address"},{"name":"_ledger","type":"address","internalType":"address"}],"outputs":[],"stateMutability":"nonpayable"},{"type":"function","name":"setThreshold","inputs":[{"name":"_threshold","type":"uint8","internalType":"uint8"}],"outputs":[],"stateMutability":"nonpayable"},{"type":"function","name":"threshold","inputs":[],"outputs":[{"name":"","type":"uint8","internalType":"uint8"}],"stateMutability":"view"},{"type":"function","name":"timeSinceLastToggle","inputs":[],"outputs":[{"name":"","type":"uint64","internalType":"uint64"}],"stateMutability":"view"},{"type":"function","name":"unhaltVotingStartTime","inputs":[],"outputs":[{"name":"","type":"uint64","internalType":"uint64"}],"stateMutability":"view"},{"type":"function","name":"voteExpiryPeriod","inputs":[],"outputs":[{"name":"","type":"uint64","internalType":"uint64"}],"stateMutability":"view"},{"type":"event","name":"CommitteeReset","inputs":[{"name":"threshold","type":"uint8","indexed":false,"internalType":"uint8"},{"name":"members","type":"address[]","indexed":false,"internalType":"address[]"}],"anonymous":false},{"type":"event","name":"CommitteeTriggered","inputs":[{"name":"halt","type":"bool","indexed":false,"internalType":"bool"},{"name":"reason","type":"string","indexed":false,"internalType":"string"}],"anonymous":false},{"type":"event","name":"CommitteeVote","inputs":[{"name":"member","type":"address","indexed":true,"internalType":"address"},{"name":"halt","type":"bool","indexed":false,"internalType":"bool"},{"name":"approvals","type":"uint8","indexed":false,"internalType":"uint8"},{"name":"reason","type":"string","indexed":false,"internalType":"string"}],"anonymous":false},{"type":"event","name":"CooldownSet","inputs":[{"name":"secondsMin","type":"uint64","indexed":false,"internalType":"uint64"}],"anonymous":false},{"type":"event","name":"DAOToggled","inputs":[{"name":"halt","type":"bool","indexed":false,"internalType":"bool"},{"name":"reason","type":"string","indexed":false,"internalType":"string"}],"anonymous":false},{"type":"event","name":"MemberAdded","inputs":[{"name":"member","type":"address","indexed":false,"internalType":"address"}],"anonymous":false},{"type":"event","name":"MemberRemoved","inputs":[{"name":"member","type":"address","indexed":false,"internalType":"address"}],"anonymous":false},{"type":"event","name":"ModulesSet","inputs":[{"name":"dao","type":"address","indexed":false,"internalType":"address"},{"name":"breaker","type":"address","indexed":false,"internalType":"address"},{"name":"ledger","type":"address","indexed":false,"internalType":"address"}],"anonymous":false},{"type":"error","name":"EC_AlreadyMember","inputs":[]},{"type":"error","name":"EC_AlreadyVoted","inputs":[]},{"type":"error","name":"EC_BadThreshold","inputs":[]},{"type":"error","name":"EC_Cooldown","inputs":[]},{"type":"error","name":"EC_NotDAO","inputs":[]},{"type":"error","name":"EC_NotMember","inputs":[]},{"type":"error","name":"EC_Zero","inputs":[]}],"bytecode":{"object":"0x60803461014a57601f611ac238819003918201601f19168301916001600160401b0383118484101761014e5780849260609460405283398101031261014a5761004781610162565b90610060604061005960208401610162565b9201610162565b600254600a805462010000600160501b03191664093a80000017905590926001600160a01b03169081158015610139575b61012a575f80546001600160a01b03199081168417909155600180549091166001600160a01b0394851690811782556001600160e01b031990921693909416928317604b60a21b17600255600793909355604080519182526020820193909352918201527f4ae14344aaed3962a7f6c6977dc689bd5108ebb211a205507f01ae2a95148ce990606090a160405161194b90816101778239f35b634fed6a0560e11b5f5260045ffd5b506001600160a01b03831615610091565b5f80fd5b634e487b7160e01b5f52604160045260245ffd5b51906001600160a01b038216820361014a5756fe60806040526004361015610011575f80fd5b5f5f3560e01c8063053f4a661461144a57806307fbe3b6146114215780630b1ca49a1461123e5780630f41e0d21461121657806311aee380146111f65780632fafe00f146111d05780634162169f146111a957806342cde4e814611186578063446ad549146111445780634b11982e1461108b57806356397c35146110635780637def2e3514610ad8578063900cf0cf14610aba5780639e3a5d4114610a90578063a230c52414610a51578063a383cde214610a18578063a8336a061461090c578063adc5188b146108cf578063b7f9291814610892578063b9830ff11461082c578063bff8043a1461080b578063c4305d7d14610629578063ca6d56dc14610543578063cd716f76146102aa578063d6e8b9f314610280578063db6f9d1514610256578063db9df33314610232578063dc12a48d146101f95763e5a9860314610159575f80fd5b346101f65760203660031901126101f657610172611512565b61017a6116b6565b60ff811680159081156101e7575b506101d85761ff006006549160081b169061ff001916176006556101d56040516101b360408261157f565b601081526f1958d7dd1a1c995cda1bdb1917dcd95d60821b60208201526116fc565b80f35b63567e11b360e01b8252600482fd5b905060ff60065416105f610188565b80fd5b50346101f65760203660031901126101f6576020906040906001600160a01b03610221611475565b168152600983522054604051908152f35b50346101f657806003193601126101f657602060ff600a5460081c16604051908152f35b50346101f657806003193601126101f65760206001600160401b03600a5460501c16604051908152f35b50346101f657806003193601126101f65760206001600160401b0360025460a01c16604051908152f35b50346101f65760403660031901126101f6576102c4611512565b6024356001600160401b03811161053f573660238201121561053f578060040135906001600160401b03821161053b573660248360051b8301011161053b5761030b6116b6565b60ff831680158015610532575b61052357845b60055481101561035b578061033460019261148b565b838060a01b0391549060031b1c16875260046020526040872060ff1981541690550161031e565b50849360055485600555806104f4575b5061ff006006549160081b169061ffff191617600655610389611767565b835b83811015610445576024600582901b840101356001600160a01b0381169081810361044157811561043257818752600460205260ff604088205416610423576020826103fc5f5160206118f65f395f51905f5293600196958b526004845260408b208760ff19825416179055611675565b60065460ff61040c8183166115e2565b169060ff191617600655604051908152a10161038b565b63300be6a160e01b8752600487fd5b634fed6a0560e11b8752600487fd5b8680fd5b5091806040519360408501908552604060208601525260246060840192019084905b8082106104ca57857fbc5a8c8ee0ed60f458920b4eb029c87b8a8d8948500191db53b70ac8452664ec86860387a16101d56040516104a660408261157f565b60128152711958d7d8dbdb5b5a5d1d195957dc995cd95d60721b60208201526116fc565b90919283359060018060a01b03821680920361044157602081600193829352019401920190610467565b600586525f5160206118765f395f51905f52908101905b818110610518575061036b565b86815560010161050b565b63567e11b360e01b8552600485fd5b50828111610318565b8380fd5b8280fd5b50346101f65760203660031901126101f65761055d611475565b6105656116b6565b6001600160a01b03811690811561061a57818352600460205260ff60408420541661060b57816105d46020925f5160206118f65f395f51905f529486526004845260408620600160ff1982541617905560065460ff6105c58183166115e2565b169060ff191617600655611675565b604051908152a16101d56040516105ec60408261157f565b600d81526c1958d7db595b58995c97d85919609a1b60208201526116fc565b63300be6a160e01b8352600483fd5b634fed6a0560e11b8352600483fd5b50346101f65780610639366114b7565b906106426116b6565b61064a611828565b6001546001600160a01b0316803b156107b65784604051809263337d1d5b60e01b825281838161067f89898c60048501611659565b03925af19081156108005785916107e6575b5050610726906001600160401b0342166001600160401b031960035416176003557f6f799a3cb5289d4d634a3466ba79f91baf080d41ac6a2e940c91609a187ee3de604051806106e386858984611659565b0390a16001546001600160a01b031693156107ba5760405161070660408261157f565b600a815269313932b0b5b2b92fb7b760b11b6020820152925b3691611614565b6002549092906001600160a01b03168061073e578480f35b803b156107b6578492836107799361079160405197889687958694630303c28760e61b865260048601526080602486015260848501906116d8565b908460448501526003198483030160648501526116d8565b03925af16107a1575b8080808480f35b816107ab9161157f565b6101f657805f61079a565b8480fd5b6040516107c860408261157f565b600b81526a313932b0b5b2b92fb7b33360a91b60208201529261071f565b816107f09161157f565b6107fb57835f610691565b505050fd5b6040513d87823e3d90fd5b50346101f657806003193601126101f657602060ff600a5416604051908152f35b50346101f657806003193601126101f6576108456116b6565b61084d611767565b600a8054600160501b600160d01b0319169055604080516101d591610872908261157f565b600e81526d1958d7dd9bdd195cd7dc995cd95d60921b60208201526116fc565b50346101f65760203660031901126101f6576020906040906001600160a01b036108ba611475565b16815260088352205460075414604051908152f35b50346101f65760203660031901126101f6576020906040906001600160a01b036108f7611475565b16815260098352205460075414604051908152f35b50346101f65760603660031901126101f657610926611475565b6024356001600160a01b038116919082900361053f576044356001600160a01b038116919082900361053b5761095a6116b6565b6001600160a01b03169182158015610a10575b610a015783546001600160a01b0319908116841785556001805482168317905560028054909116831790556040805193845260208401919091528201527f4ae14344aaed3962a7f6c6977dc689bd5108ebb211a205507f01ae2a95148ce990606090a16101d56040516109e160408261157f565b600e81526d1958d7db5bd91d5b195cd7dcd95d60921b60208201526116fc565b634fed6a0560e11b8452600484fd5b50801561096d565b50346101f65760203660031901126101f6576020906040906001600160a01b03610a40611475565b168152600883522054604051908152f35b50346101f65760203660031901126101f65760209060ff906040906001600160a01b03610a7c611475565b168152600484522054166040519015158152f35b50346101f657806003193601126101f65760206001600160401b03600a5460901c16604051908152f35b50346101f657806003193601126101f6576020600754604051908152f35b5034610feb57610ae7366114b7565b9091335f52600460205260ff60405f205416156110545715610d9c57600a546001600160401b038160501c1680159081159081610d79575b5015610d46575050600a805460ff67ffffffffffffffff60501b0119164260501b600160501b600160901b0316179055600754610b5b906115d4565b6007555b33835260086020526040832054600754809114610d375733845260086020526040842055600a549060ff610b948184166115e2565b16809260ff191617600a5560405160018152826020820152606060408201525f5160206118d65f395f51905f52610bcf6060830184876115f4565b918033930390a2610c14604092835190610be9858361157f565b600c82526b1958d7dd9bdd1957da185b1d60a21b6020830152610c0d368588611614565b913361178e565b60ff600a541660ff60065460081c161115610c30575b50505080f35b610c38611828565b60015484906001600160a01b0316803b15610d3357818451809263337d1d5b60e01b825260016004830152866024830152818381610c7a604482018a8d6115f4565b03925af18015610d2957610d14575b5050610d04925f5160206118965f395f51905f52916001600160401b0342166001600160401b03196003541617600355610cd4845192839260018452866020850152868401916115f4565b0390a1610ce38151918261157f565b600f81526e1958d7dd1c9a59d9d95c97da185b1d608a1b60208201526116fc565b610d0c611767565b5f8080610c2a565b81610d1e9161157f565b61053b57835f610c89565b84513d84823e3d90fd5b5080fd5b6320226fdb60e11b8452600484fd5b610d51575b50610b5f565b67ffffffffffffffff60501b19164260501b600160501b600160901b031617600a555f610d4b565b6001600160401b039150610d9390828560101c16906115b4565b1642115f610b1f565b9190600a546001600160401b038160901c1680159081159081611031575b5015610ffe575050600a805461ff0067ffffffffffffffff60901b0119164260901b600160901b600160d01b0316179055600754610df7906115d4565b6007555b335f52600960205260405f2054600754809114610fef57335f52600960205260405f205560ff600a5461ff00610e35838360081c166115e2565b60081b169061ff0019161780600a5560081c16906040515f8152826020820152606060408201525f5160206118d65f395f51905f52610e786060830187856115f4565b918033930390a2610eb8604092835190610e92858361157f565b600e82526d1958d7dd9bdd1957dd5b9a185b1d60921b6020830152610c0d368886611614565b60ff600a5460081c1660ff60065460081c161115610ed8575b5050905080f35b610ee0611828565b6001546001600160a01b0316803b15610feb575f8351809263337d1d5b60e01b8252826004830152856024830152818381610f1f604482018c8a6115f4565b03925af18015610fe157610fba575b505f5160206118965f395f51905f5290610faa93946001600160401b0342166001600160401b03196003541617600355610f788451928392888452866020850152868401916115f4565b0390a1610f878151918261157f565b60118152701958d7dd1c9a59d9d95c97dd5b9a185b1d607a1b60208201526116fc565b610fb2611767565b805f80610ed1565b610faa935090610fd85f5f5160206118965f395f51905f529361157f565b5f935090610f2e565b83513d5f823e3d90fd5b5f80fd5b6320226fdb60e11b5f5260045ffd5b611009575b50610dfb565b67ffffffffffffffff60901b19164260901b600160901b600160d01b031617600a555f611003565b6001600160401b03915061104b90828560101c16906115b4565b1642115f610dba565b637e3ead1760e01b5f5260045ffd5b34610feb575f366003190112610feb576002546040516001600160a01b039091168152602090f35b34610feb576020366003190112610feb576004356001600160401b03811690818103610feb577fd3c86bd8150fcc5f376375097a2a9b313bf89addc501ee368c9eebe117328497916020916110de6116b6565b6002805467ffffffffffffffff60a01b191660a09290921b67ffffffffffffffff60a01b16919091179055604051908152a161114260405161112160408261157f565b600f81526e1958d7d8dbdbdb191bdddb97dcd95d608a1b60208201526116fc565b005b34610feb576020366003190112610feb57600435600554811015610feb5761116d60209161148b565b905460405160039290921b1c6001600160a01b03168152f35b34610feb575f366003190112610feb57602060ff60065460081c16604051908152f35b34610feb575f366003190112610feb575f546040516001600160a01b039091168152602090f35b34610feb575f366003190112610feb5760206001600160401b0360035416604051908152f35b34610feb575f366003190112610feb57602060ff60065416604051908152f35b34610feb575f366003190112610feb576001546040516001600160a01b039091168152602090f35b34610feb576020366003190112610feb57611257611475565b61125f6116b6565b6001600160a01b03165f8181526004602052604090205460ff161561105457805f52600460205260405f2060ff1981541690556006545f1960ff82160160ff81116113f55760ff169060ff1916176006555f5b600554908181101561140957826112c88261148b565b905460039190911b1c6001600160a01b0316146112e95760019150016112b2565b5f1982019182116113f55761131b6113036113219361148b565b905460039190911b1c6001600160a01b03169161148b565b9061155c565b60055480156113e1575f5160206118b65f395f51905f52916020915f19016113488161148b565b81549060018060a01b039060031b1b191690556005555b604051908152a161139960405161137760408261157f565b601081526f65635f6d656d6265725f72656d6f766560801b60208201526116fc565b6113a1611767565b600a8054600160501b600160d01b031916905560065460ff808216600883901c909116116113cb57005b61ff0019811660089190911b61ff001617600655005b634e487b7160e01b5f52603160045260245ffd5b634e487b7160e01b5f52601160045260245ffd5b505060205f5160206118b65f395f51905f529161135f565b34610feb575f366003190112610feb5760206001600160401b03600a5460101c16604051908152f35b34610feb575f366003190112610feb576020611464611522565b6001600160401b0360405191168152f35b600435906001600160a01b0382168203610feb57565b6005548110156114a35760055f5260205f2001905f90565b634e487b7160e01b5f52603260045260245ffd5b6040600319820112610feb576004358015158103610feb57916024356001600160401b038111610feb5782602382011215610feb578060040135926001600160401b038411610feb5760248483010111610feb576024019190565b6004359060ff82168203610feb57565b6001600160401b03600354168015611550576001600160401b034216036001600160401b0381116113f55790565b506001600160401b0390565b80546001600160a01b0360039390931b83811b199091169290931690921b179055565b90601f801991011681019081106001600160401b038211176115a057604052565b634e487b7160e01b5f52604160045260245ffd5b906001600160401b03809116911601906001600160401b0382116113f557565b5f1981146113f55760010190565b60ff60019116019060ff82116113f557565b908060209392818452848401375f828201840152601f01601f1916010190565b9291926001600160401b0382116115a0576040519161163d601f8201601f19166020018461157f565b829481845281830111610feb578281602093845f960137010152565b60409061167294921515815281602082015201916115f4565b90565b60055490600160401b8210156115a057600182016005556005548210156114a35760055f9081526116b4925f5160206118765f395f51905f520161155c565b565b5f546001600160a01b031633036116c957565b63c5d5adb160e01b5f5260045ffd5b805180835260209291819084018484015e5f828201840152601f01601f1916010190565b6002546001600160a01b031680611711575050565b803b15610feb57604051633ddd61ab60e21b815230600482015260606024820152915f91839182908490829061174b9060648301906116d8565b33604483015203925af161175d575b50565b5f6116b49161157f565b600a546117756007546115d4565b60075561ffff600160501b03600160d01b031916600a55565b60025490916001600160a01b0390911690816117ac575b5050505050565b813b15610feb575f6117ef93611806829660405198899788968795630303c28760e61b875260018060a01b031660048701526080602487015260848601906116d8565b9160448501526003198483030160648501526116d8565b03925af1611818575b808080806117a5565b5f6118229161157f565b5f61180f565b6001600160401b0360035416801561175a576118546001600160401b03918260025460a01c16906115b4565b166001600160401b0342161061186657565b633c8ad51160e11b5f5260045ffdfe036b6384b5eca791c62761152d0c79bb0604c104a5fb6f4eb0703f3154bb3db0621f66e7ee390bb8bafd11c60c3794e960819300723bdbe771d28c7bc0efde606e76fb4c77256006d9c38ec7d82b45a8c8f3c27b1d6766fffc42dfb8de68449282a2e58dba38a07a8ff15e50655e00cac15812f6dc0b882e14e25eb046b994bbb251eb052afc73ffd02ffe85ad79990a8b3fed60d76dbc2fa2fdd7123dffd914a26469706673582212201c54a7399691627b8db893fd37e7af073df57c8eaccd53ef911444afdd8100aa64736f6c634300081e0033","linkReferences":{}},"methodIdentifiers":{"addMember(address)":"ca6d56dc","approvalsHalt()":"bff8043a","approvalsUnhalt()":"db9df333","breaker()":"0f41e0d2","committeeVote(bool,string)":"7def2e35","currentMembers(uint256)":"446ad549","dao()":"4162169f","daoToggle(bool,string)":"c4305d7d","epoch()":"900cf0cf","haltVotingStartTime()":"db6f9d15","hasVotedHalt(address)":"b7f92918","hasVotedUnhalt(address)":"adc5188b","isMember(address)":"a230c524","lastToggleTs()":"2fafe00f","lastVotedHaltEpoch(address)":"a383cde2","lastVotedUnhaltEpoch(address)":"dc12a48d","ledger()":"56397c35","memberCount()":"11aee380","minCooldown()":"d6e8b9f3","removeMember(address)":"0b1ca49a","resetCommittee(uint8,address[])":"cd716f76","resetVotes()":"b9830ff1","setCooldown(uint64)":"4b11982e","setModules(address,address,address)":"a8336a06","setThreshold(uint8)":"e5a98603","threshold()":"42cde4e8","timeSinceLastToggle()":"053f4a66","unhaltVotingStartTime()":"9e3a5d41","voteExpiryPeriod()":"07fbe3b6"},"id":12}