{
  "_format": "hh-sol-artifact-1",
  "contractName": "ChainOfReturn",
  "sourceName": "contracts/ChainOfReturn.sol",
  "abi": [
    {
      "inputs": [
        {
          "internalType": "address",
          "name": "initialOwner",
          "type": "address"
        }
      ],
      "stateMutability": "nonpayable",
      "type": "constructor"
    },
    {
      "inputs": [],
      "name": "AlreadyExists",
      "type": "error"
    },
    {
      "inputs": [],
      "name": "BadParams",
      "type": "error"
    },
    {
      "inputs": [],
      "name": "DuplicateApproval",
      "type": "error"
    },
    {
      "inputs": [],
      "name": "Expired",
      "type": "error"
    },
    {
      "inputs": [],
      "name": "NotActive",
      "type": "error"
    },
    {
      "inputs": [],
      "name": "NotConfigured",
      "type": "error"
    },
    {
      "inputs": [],
      "name": "NotExecutable",
      "type": "error"
    },
    {
      "inputs": [],
      "name": "NotGuardian",
      "type": "error"
    },
    {
      "inputs": [],
      "name": "NotOwner",
      "type": "error"
    },
    {
      "inputs": [],
      "name": "NotVault",
      "type": "error"
    },
    {
      "inputs": [],
      "name": "Paused",
      "type": "error"
    },
    {
      "inputs": [],
      "name": "ZeroAddress",
      "type": "error"
    },
    {
      "anonymous": false,
      "inputs": [
        {
          "indexed": false,
          "internalType": "uint16",
          "name": "gMin",
          "type": "uint16"
        },
        {
          "indexed": false,
          "internalType": "uint16",
          "name": "gMax",
          "type": "uint16"
        },
        {
          "indexed": false,
          "internalType": "uint64",
          "name": "expMin",
          "type": "uint64"
        },
        {
          "indexed": false,
          "internalType": "uint64",
          "name": "expMax",
          "type": "uint64"
        },
        {
          "indexed": false,
          "internalType": "uint64",
          "name": "cdMin",
          "type": "uint64"
        },
        {
          "indexed": false,
          "internalType": "uint64",
          "name": "cdMax",
          "type": "uint64"
        }
      ],
      "name": "BoundsSet",
      "type": "event"
    },
    {
      "anonymous": false,
      "inputs": [
        {
          "indexed": true,
          "internalType": "address",
          "name": "vault",
          "type": "address"
        },
        {
          "indexed": false,
          "internalType": "address[]",
          "name": "guardians",
          "type": "address[]"
        },
        {
          "indexed": false,
          "internalType": "uint8",
          "name": "threshold",
          "type": "uint8"
        }
      ],
      "name": "GuardiansConfigured",
      "type": "event"
    },
    {
      "anonymous": false,
      "inputs": [
        {
          "indexed": true,
          "internalType": "address",
          "name": "previousOwner",
          "type": "address"
        },
        {
          "indexed": true,
          "internalType": "address",
          "name": "newOwner",
          "type": "address"
        }
      ],
      "name": "OwnershipTransferStarted",
      "type": "event"
    },
    {
      "anonymous": false,
      "inputs": [
        {
          "indexed": true,
          "internalType": "address",
          "name": "previousOwner",
          "type": "address"
        },
        {
          "indexed": true,
          "internalType": "address",
          "name": "newOwner",
          "type": "address"
        }
      ],
      "name": "OwnershipTransferred",
      "type": "event"
    },
    {
      "anonymous": false,
      "inputs": [
        {
          "indexed": false,
          "internalType": "uint16",
          "name": "minGuardianScore",
          "type": "uint16"
        },
        {
          "indexed": false,
          "internalType": "uint64",
          "name": "approvalExpiry",
          "type": "uint64"
        },
        {
          "indexed": false,
          "internalType": "uint64",
          "name": "cooldownSecs",
          "type": "uint64"
        },
        {
          "indexed": false,
          "internalType": "bool",
          "name": "enableQuarantine",
          "type": "bool"
        },
        {
          "indexed": false,
          "internalType": "uint64",
          "name": "quarantineSecs",
          "type": "uint64"
        },
        {
          "indexed": false,
          "internalType": "uint8",
          "name": "breakerModuleId",
          "type": "uint8"
        }
      ],
      "name": "PolicySet",
      "type": "event"
    },
    {
      "anonymous": false,
      "inputs": [
        {
          "indexed": true,
          "internalType": "bytes32",
          "name": "id",
          "type": "bytes32"
        },
        {
          "indexed": true,
          "internalType": "address",
          "name": "guardian",
          "type": "address"
        },
        {
          "indexed": false,
          "internalType": "uint8",
          "name": "approvals",
          "type": "uint8"
        },
        {
          "indexed": false,
          "internalType": "uint8",
          "name": "threshold",
          "type": "uint8"
        }
      ],
      "name": "RecoveryApproved",
      "type": "event"
    },
    {
      "anonymous": false,
      "inputs": [
        {
          "indexed": true,
          "internalType": "bytes32",
          "name": "id",
          "type": "bytes32"
        },
        {
          "indexed": true,
          "internalType": "address",
          "name": "by",
          "type": "address"
        },
        {
          "indexed": false,
          "internalType": "string",
          "name": "reason",
          "type": "string"
        }
      ],
      "name": "RecoveryCanceled",
      "type": "event"
    },
    {
      "anonymous": false,
      "inputs": [
        {
          "indexed": true,
          "internalType": "bytes32",
          "name": "id",
          "type": "bytes32"
        },
        {
          "indexed": true,
          "internalType": "address",
          "name": "vault",
          "type": "address"
        },
        {
          "indexed": true,
          "internalType": "address",
          "name": "newWallet",
          "type": "address"
        }
      ],
      "name": "RecoveryExecuted",
      "type": "event"
    },
    {
      "anonymous": false,
      "inputs": [
        {
          "indexed": true,
          "internalType": "bytes32",
          "name": "id",
          "type": "bytes32"
        },
        {
          "indexed": true,
          "internalType": "address",
          "name": "vault",
          "type": "address"
        },
        {
          "indexed": true,
          "internalType": "address",
          "name": "newWallet",
          "type": "address"
        },
        {
          "indexed": false,
          "internalType": "address",
          "name": "proposer",
          "type": "address"
        }
      ],
      "name": "RecoveryProposed",
      "type": "event"
    },
    {
      "anonymous": false,
      "inputs": [
        {
          "indexed": true,
          "internalType": "bytes32",
          "name": "id",
          "type": "bytes32"
        },
        {
          "indexed": false,
          "internalType": "uint64",
          "name": "at",
          "type": "uint64"
        },
        {
          "indexed": false,
          "internalType": "uint64",
          "name": "executableAt",
          "type": "uint64"
        }
      ],
      "name": "ThresholdReached",
      "type": "event"
    },
    {
      "anonymous": false,
      "inputs": [
        {
          "indexed": true,
          "internalType": "address",
          "name": "vault",
          "type": "address"
        },
        {
          "indexed": false,
          "internalType": "uint16",
          "name": "minGuardianScore",
          "type": "uint16"
        },
        {
          "indexed": false,
          "internalType": "uint64",
          "name": "approvalExpiry",
          "type": "uint64"
        },
        {
          "indexed": false,
          "internalType": "uint64",
          "name": "cooldownSecs",
          "type": "uint64"
        },
        {
          "indexed": false,
          "internalType": "bool",
          "name": "cleared",
          "type": "bool"
        }
      ],
      "name": "VaultPolicySet",
      "type": "event"
    },
    {
      "anonymous": false,
      "inputs": [
        {
          "indexed": false,
          "internalType": "address",
          "name": "breaker",
          "type": "address"
        },
        {
          "indexed": false,
          "internalType": "address",
          "name": "proof",
          "type": "address"
        },
        {
          "indexed": false,
          "internalType": "address",
          "name": "seer",
          "type": "address"
        },
        {
          "indexed": false,
          "internalType": "address",
          "name": "seerTune",
          "type": "address"
        },
        {
          "indexed": false,
          "internalType": "address",
          "name": "guard",
          "type": "address"
        },
        {
          "indexed": false,
          "internalType": "address",
          "name": "factory",
          "type": "address"
        }
      ],
      "name": "WiringSet",
      "type": "event"
    },
    {
      "inputs": [],
      "name": "MAX_GUARDIANS",
      "outputs": [
        {
          "internalType": "uint8",
          "name": "",
          "type": "uint8"
        }
      ],
      "stateMutability": "view",
      "type": "function"
    },
    {
      "inputs": [],
      "name": "acceptOwnership",
      "outputs": [],
      "stateMutability": "nonpayable",
      "type": "function"
    },
    {
      "inputs": [],
      "name": "approvalExpiry",
      "outputs": [
        {
          "internalType": "uint64",
          "name": "",
          "type": "uint64"
        }
      ],
      "stateMutability": "view",
      "type": "function"
    },
    {
      "inputs": [
        {
          "internalType": "bytes32",
          "name": "id",
          "type": "bytes32"
        }
      ],
      "name": "approve",
      "outputs": [],
      "stateMutability": "nonpayable",
      "type": "function"
    },
    {
      "inputs": [],
      "name": "bounds",
      "outputs": [
        {
          "internalType": "uint16",
          "name": "minGuardianScoreMin",
          "type": "uint16"
        },
        {
          "internalType": "uint16",
          "name": "minGuardianScoreMax",
          "type": "uint16"
        },
        {
          "internalType": "uint64",
          "name": "approvalExpiryMin",
          "type": "uint64"
        },
        {
          "internalType": "uint64",
          "name": "approvalExpiryMax",
          "type": "uint64"
        },
        {
          "internalType": "uint64",
          "name": "cooldownSecsMin",
          "type": "uint64"
        },
        {
          "internalType": "uint64",
          "name": "cooldownSecsMax",
          "type": "uint64"
        }
      ],
      "stateMutability": "view",
      "type": "function"
    },
    {
      "inputs": [],
      "name": "breaker",
      "outputs": [
        {
          "internalType": "contract IEmergencyBreaker",
          "name": "",
          "type": "address"
        }
      ],
      "stateMutability": "view",
      "type": "function"
    },
    {
      "inputs": [],
      "name": "breakerModuleId",
      "outputs": [
        {
          "internalType": "uint8",
          "name": "",
          "type": "uint8"
        }
      ],
      "stateMutability": "view",
      "type": "function"
    },
    {
      "inputs": [
        {
          "internalType": "bytes32",
          "name": "id",
          "type": "bytes32"
        },
        {
          "internalType": "string",
          "name": "reason",
          "type": "string"
        }
      ],
      "name": "cancel",
      "outputs": [],
      "stateMutability": "nonpayable",
      "type": "function"
    },
    {
      "inputs": [
        {
          "internalType": "address",
          "name": "",
          "type": "address"
        }
      ],
      "name": "config",
      "outputs": [
        {
          "internalType": "uint8",
          "name": "threshold",
          "type": "uint8"
        },
        {
          "internalType": "bool",
          "name": "set",
          "type": "bool"
        }
      ],
      "stateMutability": "view",
      "type": "function"
    },
    {
      "inputs": [],
      "name": "cooldownSecs",
      "outputs": [
        {
          "internalType": "uint64",
          "name": "",
          "type": "uint64"
        }
      ],
      "stateMutability": "view",
      "type": "function"
    },
    {
      "inputs": [
        {
          "internalType": "address",
          "name": "vault",
          "type": "address"
        }
      ],
      "name": "effectivePolicy",
      "outputs": [
        {
          "internalType": "uint16",
          "name": "gScore",
          "type": "uint16"
        },
        {
          "internalType": "uint64",
          "name": "expSecs",
          "type": "uint64"
        },
        {
          "internalType": "uint64",
          "name": "cdSecs",
          "type": "uint64"
        }
      ],
      "stateMutability": "view",
      "type": "function"
    },
    {
      "inputs": [],
      "name": "enableQuarantine",
      "outputs": [
        {
          "internalType": "bool",
          "name": "",
          "type": "bool"
        }
      ],
      "stateMutability": "view",
      "type": "function"
    },
    {
      "inputs": [
        {
          "internalType": "bytes32",
          "name": "id",
          "type": "bytes32"
        }
      ],
      "name": "execute",
      "outputs": [],
      "stateMutability": "nonpayable",
      "type": "function"
    },
    {
      "inputs": [],
      "name": "factory",
      "outputs": [
        {
          "internalType": "contract IVaultFactoryView",
          "name": "",
          "type": "address"
        }
      ],
      "stateMutability": "view",
      "type": "function"
    },
    {
      "inputs": [
        {
          "internalType": "address",
          "name": "vault",
          "type": "address"
        }
      ],
      "name": "getGuardians",
      "outputs": [
        {
          "internalType": "address[]",
          "name": "gs",
          "type": "address[]"
        },
        {
          "internalType": "uint8",
          "name": "threshold",
          "type": "uint8"
        },
        {
          "internalType": "bool",
          "name": "isSet",
          "type": "bool"
        }
      ],
      "stateMutability": "view",
      "type": "function"
    },
    {
      "inputs": [],
      "name": "guard",
      "outputs": [
        {
          "internalType": "contract IPanicGuard",
          "name": "",
          "type": "address"
        }
      ],
      "stateMutability": "view",
      "type": "function"
    },
    {
      "inputs": [
        {
          "internalType": "address",
          "name": "",
          "type": "address"
        }
      ],
      "name": "latestRequestOf",
      "outputs": [
        {
          "internalType": "bytes32",
          "name": "",
          "type": "bytes32"
        }
      ],
      "stateMutability": "view",
      "type": "function"
    },
    {
      "inputs": [],
      "name": "minGuardianScore",
      "outputs": [
        {
          "internalType": "uint16",
          "name": "",
          "type": "uint16"
        }
      ],
      "stateMutability": "view",
      "type": "function"
    },
    {
      "inputs": [],
      "name": "owner",
      "outputs": [
        {
          "internalType": "address",
          "name": "",
          "type": "address"
        }
      ],
      "stateMutability": "view",
      "type": "function"
    },
    {
      "inputs": [],
      "name": "pendingOwner",
      "outputs": [
        {
          "internalType": "address",
          "name": "",
          "type": "address"
        }
      ],
      "stateMutability": "view",
      "type": "function"
    },
    {
      "inputs": [
        {
          "internalType": "bytes32",
          "name": "id",
          "type": "bytes32"
        }
      ],
      "name": "previewRequest",
      "outputs": [
        {
          "internalType": "address",
          "name": "vault",
          "type": "address"
        },
        {
          "internalType": "address",
          "name": "newWallet",
          "type": "address"
        },
        {
          "internalType": "address",
          "name": "proposer",
          "type": "address"
        },
        {
          "internalType": "uint64",
          "name": "createdAt",
          "type": "uint64"
        },
        {
          "internalType": "uint64",
          "name": "thresholdAt",
          "type": "uint64"
        },
        {
          "internalType": "uint64",
          "name": "executableAt",
          "type": "uint64"
        },
        {
          "internalType": "enum ChainOfReturn.ReqState",
          "name": "state",
          "type": "uint8"
        },
        {
          "internalType": "uint8",
          "name": "approvals",
          "type": "uint8"
        },
        {
          "internalType": "uint8",
          "name": "threshold",
          "type": "uint8"
        }
      ],
      "stateMutability": "view",
      "type": "function"
    },
    {
      "inputs": [],
      "name": "proof",
      "outputs": [
        {
          "internalType": "contract IProofLedger",
          "name": "",
          "type": "address"
        }
      ],
      "stateMutability": "view",
      "type": "function"
    },
    {
      "inputs": [
        {
          "internalType": "address",
          "name": "vault",
          "type": "address"
        },
        {
          "internalType": "address",
          "name": "newWallet",
          "type": "address"
        },
        {
          "internalType": "bytes32",
          "name": "salt",
          "type": "bytes32"
        }
      ],
      "name": "propose",
      "outputs": [
        {
          "internalType": "bytes32",
          "name": "id",
          "type": "bytes32"
        }
      ],
      "stateMutability": "nonpayable",
      "type": "function"
    },
    {
      "inputs": [],
      "name": "quarantineSecs",
      "outputs": [
        {
          "internalType": "uint64",
          "name": "",
          "type": "uint64"
        }
      ],
      "stateMutability": "view",
      "type": "function"
    },
    {
      "inputs": [],
      "name": "renounceOwnership",
      "outputs": [],
      "stateMutability": "nonpayable",
      "type": "function"
    },
    {
      "inputs": [
        {
          "internalType": "address",
          "name": "vault",
          "type": "address"
        },
        {
          "internalType": "address",
          "name": "newWallet",
          "type": "address"
        },
        {
          "internalType": "bytes32",
          "name": "salt",
          "type": "bytes32"
        }
      ],
      "name": "requestId",
      "outputs": [
        {
          "internalType": "bytes32",
          "name": "",
          "type": "bytes32"
        }
      ],
      "stateMutability": "pure",
      "type": "function"
    },
    {
      "inputs": [],
      "name": "seer",
      "outputs": [
        {
          "internalType": "contract ISeerView",
          "name": "",
          "type": "address"
        }
      ],
      "stateMutability": "view",
      "type": "function"
    },
    {
      "inputs": [],
      "name": "seerTune",
      "outputs": [
        {
          "internalType": "contract ISeerTuning",
          "name": "",
          "type": "address"
        }
      ],
      "stateMutability": "view",
      "type": "function"
    },
    {
      "inputs": [
        {
          "internalType": "uint16",
          "name": "gMin",
          "type": "uint16"
        },
        {
          "internalType": "uint16",
          "name": "gMax",
          "type": "uint16"
        },
        {
          "internalType": "uint64",
          "name": "expMin",
          "type": "uint64"
        },
        {
          "internalType": "uint64",
          "name": "expMax",
          "type": "uint64"
        },
        {
          "internalType": "uint64",
          "name": "cdMin",
          "type": "uint64"
        },
        {
          "internalType": "uint64",
          "name": "cdMax",
          "type": "uint64"
        }
      ],
      "name": "setBounds",
      "outputs": [],
      "stateMutability": "nonpayable",
      "type": "function"
    },
    {
      "inputs": [
        {
          "internalType": "address",
          "name": "vault",
          "type": "address"
        },
        {
          "internalType": "address[]",
          "name": "guardians",
          "type": "address[]"
        },
        {
          "internalType": "uint8",
          "name": "threshold",
          "type": "uint8"
        }
      ],
      "name": "setGuardians",
      "outputs": [],
      "stateMutability": "nonpayable",
      "type": "function"
    },
    {
      "inputs": [
        {
          "internalType": "uint16",
          "name": "minGuardianScore_",
          "type": "uint16"
        },
        {
          "internalType": "uint64",
          "name": "approvalExpiry_",
          "type": "uint64"
        },
        {
          "internalType": "uint64",
          "name": "cooldownSecs_",
          "type": "uint64"
        },
        {
          "internalType": "bool",
          "name": "enableQuarantine_",
          "type": "bool"
        },
        {
          "internalType": "uint64",
          "name": "quarantineSecs_",
          "type": "uint64"
        },
        {
          "internalType": "uint8",
          "name": "breakerModuleId_",
          "type": "uint8"
        }
      ],
      "name": "setPolicy",
      "outputs": [],
      "stateMutability": "nonpayable",
      "type": "function"
    },
    {
      "inputs": [
        {
          "internalType": "address",
          "name": "vault",
          "type": "address"
        },
        {
          "internalType": "bool",
          "name": "clear",
          "type": "bool"
        },
        {
          "internalType": "uint16",
          "name": "minGuardianScore_",
          "type": "uint16"
        },
        {
          "internalType": "uint64",
          "name": "approvalExpiry_",
          "type": "uint64"
        },
        {
          "internalType": "uint64",
          "name": "cooldownSecs_",
          "type": "uint64"
        }
      ],
      "name": "setVaultPolicy",
      "outputs": [],
      "stateMutability": "nonpayable",
      "type": "function"
    },
    {
      "inputs": [
        {
          "internalType": "address",
          "name": "breaker_",
          "type": "address"
        },
        {
          "internalType": "address",
          "name": "proof_",
          "type": "address"
        },
        {
          "internalType": "address",
          "name": "seer_",
          "type": "address"
        },
        {
          "internalType": "address",
          "name": "seerTune_",
          "type": "address"
        },
        {
          "internalType": "address",
          "name": "guard_",
          "type": "address"
        },
        {
          "internalType": "address",
          "name": "factory_",
          "type": "address"
        }
      ],
      "name": "setWiring",
      "outputs": [],
      "stateMutability": "nonpayable",
      "type": "function"
    },
    {
      "inputs": [
        {
          "internalType": "address",
          "name": "newOwner",
          "type": "address"
        }
      ],
      "name": "transferOwnership",
      "outputs": [],
      "stateMutability": "nonpayable",
      "type": "function"
    },
    {
      "inputs": [
        {
          "internalType": "address",
          "name": "",
          "type": "address"
        }
      ],
      "name": "vaultPolicy",
      "outputs": [
        {
          "internalType": "bool",
          "name": "hasOverride",
          "type": "bool"
        },
        {
          "internalType": "uint16",
          "name": "minGuardianScore",
          "type": "uint16"
        },
        {
          "internalType": "uint64",
          "name": "approvalExpiry",
          "type": "uint64"
        },
        {
          "internalType": "uint64",
          "name": "cooldownSecs",
          "type": "uint64"
        }
      ],
      "stateMutability": "view",
      "type": "function"
    }
  ],
  "bytecode": "0x60806040523461017157604051601f6133b438819003918201601f19168301916001600160401b0383118484101761015b5780849260209460405283398101031261017157516001600160a01b0381168082036101715761005f33610176565b60016002556008805464024ea0004b60a31b600160a01b600160f01b0319909116179055600980546001600160901b0319166c0151800109000000000002a30017905560405160c081018181106001600160401b0382111761015b576040908152610258825261038460208301526203f48090820152624f1a00606082015261a8c0608082015262093a8060a0909101819052600a80546001600160e01b03191675a8c000000000004f1a00000000000003f48003840258179055600b80546001600160401b03191690911790551561014a5761013b90610176565b6040516131e890816101cc8239f35b63d92e233d60e01b60005260046000fd5b634e487b7160e01b600052604160045260246000fd5b600080fd5b600180546001600160a01b0319908116909155600080546001600160a01b03938416928116831782559192909116907f8be0079c531659141344cd1fd0a4f28419497f9722a3daafe3b4186f6b6457e09080a356fe608080604052600436101561001357600080fd5b600090813560e01c9081630e68ec95146127ed575080630f41e0d2146127c4578063187692281461279d57806325e4fd95146127775780632d55ea391461274e5780633d580c0e1461272a5780633d9229e414612708578063422c1d37146126ec5780634956eddc1461244e5780635843a5ad146123e9578063715018a614612384578063753b87db1461235f57806379ba5097146122965780637ceab3b11461226d5780637d9b82e81461211657806383143a76146120c1578063836160e114611cde5780638da5cb5b14611cb7578063a3d380a814611c4e578063a53a1adf1461175d578063ac410b1b14611733578063b14cb447146115ef578063b4b34d37146115c6578063b7d6fe2414611273578063bc6cf9191461123a578063c45a015514611211578063d27e4a39146111e7578063e30c3978146111be578063e4639f5e14610bf1578063e5640668146108cb578063e751f27114610413578063f06ed1661461031a578063f18858ab1461023a578063f2fde38b146101cd5763faf924cf146101a257600080fd5b346101ca57806003193601126101ca576004546040516001600160a01b039091168152602090f35b80fd5b50346101ca5760203660031901126101ca576101e7612838565b6101ef612f48565b600180546001600160a01b0319166001600160a01b0392831690811790915582549091167f38d16b8cac22d99fc7c124b9cd0de2d3fa1faef420bfe791d8c362d765e227008380a380f35b50346101ca5760203660031901126101ca576001600160a01b0361025c612838565b168152600d6020526040812090600182015491604051918260208354918281520190819383526020832090835b8181106102fb575050508361029f910384612961565b60405192606084019060608552518091526080840192915b8181106102dc5750505060ff8381849516602085015260081c16151560408301520390f35b82516001600160a01b03168452602093840193909201916001016102b7565b82546001600160a01b0316845260209093019260019283019201610289565b50346101ca5760203660031901126101ca5761033760043561317b565b80546001600160a01b0316808352600d6020526040832090919061035a836129bd565b60038501549692506001600160401b0391508682169081610403575082905b82600260018060a01b0360018901541697015460ff6001818c60401c169801541697604051998a5260208a015260018060a01b03811660408a015260a01c16606088015260808701521660a085015260058210156103ef57506101209360ff9160c085015260481c1660e0830152610100820152f35b634e487b7160e01b81526021600452602490fd5b61040d9082612aed565b90610379565b50346101ca5760203660031901126101ca57600354600435906001600160a01b0316806107e2575b50610444612fa0565b61044d8161317b565b90600382019182549060ff8260401c1660058110156107ce57600181141590816107c2575b506107b35780546001600160a01b0316808652600d60205260408620600101549092600882901c60ff161561077f5760ff906104ad856129bd565b939150931660ff8260481c1610610749576001600160401b03168015610715576001600160401b03916104df91612aed565b164210610706576105016001600160401b039182600285015460a01c16612aed565b1642116106f757600181018054909286916001600160a01b0316813b156106d057604051636cab20fd60e01b81526004810182905283808260248183885af191826106de575b50506106d457813b156106d057829160248392604051958693849263f2fde38b60e01b845260048401525af191826106b7575b50506106b057845b1561067357835460ff60401b1916680300000000000000001790935591549154604051849390916001600160a01b0390811691168181857f6a4fa7238aa224d542b5741448b8017d6fe8dea8b8a4ad71502ee1058a5228b58880a46020830193845260408301526060820152606081526105fd608082612961565b5190206004546001600160a01b0316908161061c575b82600160025580f35b813b1561066f578291606483926040519485938492631250d57560e31b845230600485015260ae602485015260448401525af161065a575b80610613565b8161066491612961565b6101ca578038610654565b5050fd5b60405162461bcd60e51b81526020600482015260156024820152741d985d5b1d081c9bdd185d1a5bdb8819985a5b1959605a1b6044820152606490fd5b6001610582565b816106c191612961565b6106cc57853861057a565b8580fd5b8280fd5b5050506001610582565b816106e891612961565b6106f3578338610547565b8380fd5b630407b05b60e31b8552600485fd5b6323f70a7560e11b8652600486fd5b60405162461bcd60e51b815260206004820152600c60248201526b1b9bc81d1a1c995cda1bdb1960a21b6044820152606490fd5b60405162461bcd60e51b815260206004820152600e60248201526d6e65656420617070726f76616c7360901b6044820152606490fd5b60405162461bcd60e51b815260206004820152600c60248201526b6e6f20677561726469616e7360a01b6044820152606490fd5b634065aaf160e11b8552600485fd5b60029150141538610472565b634e487b7160e01b86526021600452602486fd5b604051631da4712b60e21b815290602082600481845afa9182156108c057849261089f575b508115610829575b5061081a573861043b565b6313d0ff5960e31b8252600482fd5b9050602060ff60095460401c166024604051809481936350fbe4af60e11b835260048301525afa908115610894578391610865575b503861080f565b610887915060203d60201161088d575b61087f8183612961565b810190612a4d565b3861085e565b503d610875565b6040513d85823e3d90fd5b6108b991925060203d60201161088d5761087f8183612961565b9038610807565b6040513d86823e3d90fd5b50346101ca5760c03660031901126101ca576108e56128a1565b906024359161ffff83168084036106d0576108fe6128b2565b906109076128de565b61090f6128c8565b9060a435926001600160401b03841690818503610bed5761092e612f48565b61ffff8716908082111580610be1575b15610bb1576001600160401b0387166201518081101580610b9e575b15610b6c576001600160401b03861690610e1082101580610b62575b15610b31576040519260c084018481106001600160401b03821117610b1d57610aab979487948e9f9a9794610ab99c999460a094604052868452602084015260408301526001600160401b038716606083015260808201520152600a546001600160401b0360601b8460601b16916001600160401b0360601b19916001600160601b031916171663ffff00008860101b16176bffffffffffffffff000000008a60201b161717600a55600a546001600160401b0360a01b6001600160401b0360a01b8560a01b1616906001600160401b0360a01b191617600a556001600160401b0319600b541617600b557feb091ee236e4511bc688b15e27d2bcf4acf7895d325fbe9219bf6f124aa203948589610a978686868d604051968796876128f4565b0390a160405196879560208701998a6128f4565b03601f198101835282612961565b5190206004546001600160a01b03169081610ad2575050f35b813b1561066f578291606483926040519485938492631250d57560e31b845230600485015260b5602485015260448401525af1610b0c5750f35b81610b1691612961565b6101ca5780f35b634e487b7160e01b8d52604160045260248dfd5b60405162461bcd60e51b815260206004820152600960248201526863642d626f756e647360b81b6044820152606490fd5b5084821115610976565b60405162461bcd60e51b815260206004820152600a6024820152696578702d626f756e647360b01b6044820152606490fd5b506001600160401b03851681111561095a565b60405162461bcd60e51b8152602060048201526008602482015267672d626f756e647360c01b6044820152606490fd5b506103e881111561093e565b8780fd5b50346101ca5760603660031901126101ca57610c0b612838565b90602435916001600160401b0383116111ba57366023840112156111ba5782600401356001600160401b0381116106d057602484019060248160051b80960101943686116111b6576044359060ff82168092036106cc576003546001600160a01b0316806110dd575b50610c7d612fa0565b610c8685612ff4565b6001600160a01b03610c97866130ba565b1633036110ce57821580156110c4575b6110ac57811580156110bb575b6110ac57610cc1856129bd565b50506005546001600160a01b0316875b858110610f195750505060405196606088018881106001600160401b03821117610f0557604052610d086020604051930183612961565b83825284602083015b828210610eed5750505086526020860181815260408701946001865260018060a01b031694858752600d602052604087209751978851986001600160401b038a11610ed957600160401b8a11610ed95781548a8355808b10610eb3575b5060200198818952602089209989905b828210610e96578a808b8b610e268c8c8c8c60ff60018e0192511661ff0083549251151560081b169161ffff191617179055847f678d6573551a295bfa196b3f9b91e080e77fce1584c983ab9c37bf8c876b3f626040516040815280610de860408201878a612f08565b8560208301520390a2610e1260405194859360208501978852606060408601526080850191612f08565b90606083015203601f198101835282612961565b5190206004546001600160a01b03169081610e445782600160025580f35b813b1561066f578291606483926040519485938492631250d57560e31b845230600485015260aa602485015260448401525af1610e815780610613565b81610e8b91612961565b6101ca578082610654565b80516001600160a01b03168c830155600190910190602001610d7e565b828a528a60208b2091820191015b818110610ece5750610d6e565b8a8155600101610ec1565b634e487b7160e01b89526041600452602489fd5b60208091610efa84612853565b815201910190610d11565b634e487b7160e01b88526041600452602488fd5b6001600160a01b03610f34610f2f83898b612ece565b612ef4565b16801561109d5760018201808311611089575b878110611030575060405163fbac395160e01b815260048101829052602081602481875afa9081156110255790610f86918c91611007575b5015612a65565b6040519063776f384360e01b82526004820152602081602481865afa908115610ffc5760019291610fc8918c91610fce575b5061ffff80871691161015612ab7565b01610cd1565b610fef915060203d8111610ff5575b610fe78183612961565b810190612a9d565b38610fb8565b503d610fdd565b6040513d8c823e3d90fd5b61101f915060203d811161088d5761087f8183612961565b38610f7f565b6040513d8d823e3d90fd5b6001600160a01b03611046610f2f838b8d612ece565b16821461105557600101610f47565b60405162461bcd60e51b815260206004820152600c60248201526b323ab81033bab0b93234b0b760a11b6044820152606490fd5b634e487b7160e01b8b52601160045260248bfd5b63d92e233d60e01b8a5260048afd5b63019af63760e01b8652600486fd5b50828211610cb4565b5060058311610ca7565b6330cd747160e01b8652600486fd5b604051631da4712b60e21b815290602082600481845afa9182156111ab57889261118a575b508115611124575b506111155738610c74565b6313d0ff5960e31b8652600486fd5b9050602060ff60095460401c166024604051809481936350fbe4af60e11b835260048301525afa90811561117f578791611160575b503861110a565b611179915060203d60201161088d5761087f8183612961565b38611159565b6040513d89823e3d90fd5b6111a491925060203d60201161088d5761087f8183612961565b9038611102565b6040513d8a823e3d90fd5b8480fd5b5080fd5b50346101ca57806003193601126101ca576001546040516001600160a01b039091168152602090f35b50346101ca57806003193601126101ca5760206001600160401b0360085460b01c16604051908152f35b50346101ca57806003193601126101ca576008546040516001600160a01b039091168152602090f35b50346101ca5760203660031901126101ca576020906040906001600160a01b03611262612838565b168152600f83522054604051908152f35b50346101ca5760403660031901126101ca57600435906024356001600160401b0381116111ba57366023820112156111ba578060040135926001600160401b0384116106d057602482019160248536920101116106d0576003546001600160a01b0316806114f8575b506112e5612fa0565b6112ee8161317b565b91600383019460ff865460401c1660058110156107ce576001036107b35783546001600160a01b03906113229082166130ba565b1633036114e95784956804000000000000000060ff60401b19825416179055846020604051928184528082850152808560408601378260408286010152601f19601f82011693867f6b430ba529971a00bfc2ba55fb958a08081c2cf964eba3e890330f68e7c55a573392604081898101030190a36113a582604051950185612961565b808452808285019586378301015251902060405190602082019283523360408301526060820152606081526113db608082612961565b5190206004546001600160a01b031680611497575b505060095460ff8160481c1680611483575b61140f5782600160025580f35b6007546002909201546001600160a01b039283169216906114409060501c6001600160401b03908116904216612aed565b823b1561147e5760448492836001600160401b03956040519687958694633fdc9dad60e11b865260048601521660248401525af161065a5780610613565b505050fd5b506007546001600160a01b03161515611402565b803b1561147e5783809291606482936040519485938492631250d57560e31b845230600485015260af602485015260448401525af1156113f057816114db91612961565b6114e65781386113f0565b50fd5b6330cd747160e01b8552600485fd5b604051631da4712b60e21b815290602082600481845afa9182156115bb57859261159a575b50811561153f575b5061153057386112dc565b6313d0ff5960e31b8352600483fd5b9050602060ff60095460401c166024604051809481936350fbe4af60e11b835260048301525afa9081156108c057849161157b575b5038611525565b611594915060203d60201161088d5761087f8183612961565b38611574565b6115b491925060203d60201161088d5761087f8183612961565b903861151d565b6040513d87823e3d90fd5b50346101ca57806003193601126101ca576006546040516001600160a01b039091168152602090f35b50346101ca5760a03660031901126101ca57611609612838565b9060243580151581036111ba5760443561ffff811681036106d05761162c6128de565b906116356128c8565b6003549093906001600160a01b031680611665575b5061165d9495611658612fa0565b612b23565b600160025580f35b604051631da4712b60e21b815290602082600481845afa91821561117f578792611712575b5081156116ac575b5061169d573861164a565b6313d0ff5960e31b8552600485fd5b9050602060ff60095460401c166024604051809481936350fbe4af60e11b835260048301525afa9081156117075786916116e8575b5038611692565b611701915060203d60201161088d5761087f8183612961565b386116e1565b6040513d88823e3d90fd5b61172c91925060203d60201161088d5761087f8183612961565b903861168a565b50346101ca57806003193601126101ca5760206001600160401b0360095460501c16604051908152f35b50346101ca5760203660031901126101ca5760035460043591906001600160a01b031680611b80575b5061178f612fa0565b6117988261317b565b916003830160ff815460401c166005811015611b6c57600103611b5d5783546001600160a01b0316808452600d6020526040842094906117d83387613138565b15611b4e57600482019060018060a01b0333166000528160205260ff60406000205416611b3f57611808906129bd565b505060055460405163fbac395160e01b81523360048201526001600160a01b0390911690602081602481855afa9081156111ab5791611854602092602495948b91611b28575015612a65565b60405163776f384360e01b815233600482015293849182905afa91821561117f579061189292918892611b01575b5061ffff80911691161015612ab7565b60018060a01b0333166000526020526040600020600160ff19825416179055815494600160ff8760481c160160ff8111611aed5760ff869760ff60481b60019360481b169060ff60481b19161780865560481c1691019060ff825416604051828152816020820152867efb59b706895b03d25527b749d570d37f74cccfc56719ba58cb174be014f9a960403393a3604051906020820192878452336040840152606083015260808201526080815261194b60a082612961565b5190206004546001600160a01b031680611a9a575b505060ff835491541660ff8260481c1610159081611a88575b50611988575b83600160025580f35b546001600160401b039081906119a6906001600160a01b03166129bd565b949150508142168219825416178155541691837f155c8c344e5cd6816ea5074f7e5ba5e8140e3aff2eff8f7cebc7bbbd34b3a19860406119e68487612aed565b85825191888352166020820152a26040519260208401948552604084015216606082015260608152611a19608082612961565b5190206004546001600160a01b03169081611a35575b8061197f565b813b1561066f578291606483926040519485938492631250d57560e31b845230600485015260ad602485015260448401525af1611a73575b80611a2f565b81611a7d91612961565b6101ca578038611a6d565b6001600160401b039150161538611979565b803b15611ae95786809291606482936040519485938492631250d57560e31b845230600485015260ac602485015260448401525af1156119605781611ade91612961565b6111b6578438611960565b8680fd5b634e487b7160e01b86526011600452602486fd5b61ffff919250611b20829160203d602011610ff557610fe78183612961565b929150611882565b61101f9150843d861161088d5761087f8183612961565b63db67b91b60e01b8652600486fd5b6377b6878160e11b8552600485fd5b634065aaf160e11b8352600483fd5b634e487b7160e01b84526021600452602484fd5b604051631da4712b60e21b815290602082600481845afa918215610894578392611c2d575b508115611bc7575b50611bb85738611786565b6313d0ff5960e31b8152600490fd5b9050602060ff60095460401c166024604051809481936350fbe4af60e11b835260048301525afa908115611c22578291611c03575b5038611bad565b611c1c915060203d60201161088d5761087f8183612961565b38611bfc565b6040513d84823e3d90fd5b611c4791925060203d60201161088d5761087f8183612961565b9038611ba5565b50346101ca5760203660031901126101ca576080906040906001600160a01b03611c76612838565b168152600c60205220546001600160401b036040519160ff81161515835261ffff8160081c166020840152818160181c16604084015260581c166060820152f35b50346101ca57806003193601126101ca57546040516001600160a01b039091168152602090f35b50346101ca57611ced36612867565b6003549192916001600160a01b031680611ffe575b50611d0b612fa0565b6001600160a01b038316928315611fef57611d2583612ff4565b6001600160a01b038316808652600d60205260408620600181015491939160081c60ff1615611fe0576001600160a01b03611d5f866130ba565b163314908115611fce575b5015611f9a57611d7a9184612982565b92838552600e6020526001600160401b03600260408720015460a01c16611f8b57838552600e6020908152604080872080546001600160a01b0319908116861782556001820180549091168517905560028101805467ffffffffffffffff60a01b19339081166001600160e01b0319909216919091174260a01b67ffffffffffffffff60a01b1617909155600391909101805460ff60401b1916600160401b179055848852600f83528188208790559051908152869392918291849188917fb72d2742800e3213c492e218266e083d34d862bcd7c451835ca214ec371cbe5d9190a46040519060208201928684526040830152606082015233608082015260808152611e8760a082612961565b5190206004546001600160a01b03169081611f38575b50506006546001600160a01b031691821515915081611f1b575b50611ecd575b6020826001600255604051908152f35b8083913b156111ba578190606460405180948193630403408d60e11b835233600484015260056024840152600160448401525af115611ebd57611f11838092612961565b6111ba5781611ebd565b6001600160a01b039150611f2e906130ba565b1633141538611eb7565b813b156106d0578291606483926040519485938492631250d57560e31b845230600485015260ab602485015260448401525af1611f76575b80611e9d565b81611f8091612961565b6106d0578238611f70565b63119b4fd360e11b8552600485fd5b60405162461bcd60e51b815260206004820152600c60248201526b3737ba10383937b837b9b2b960a11b6044820152606490fd5b611fda91503390613138565b38611d6a565b63d311bc3960e01b8752600487fd5b63d92e233d60e01b8552600485fd5b604051631da4712b60e21b815290602082600481845afa9182156117075786926120a0575b508115612045575b506120365738611d02565b6313d0ff5960e31b8452600484fd5b9050602060ff60095460401c166024604051809481936350fbe4af60e11b835260048301525afa9081156115bb578591612081575b503861202b565b61209a915060203d60201161088d5761087f8183612961565b3861207a565b6120ba91925060203d60201161088d5761087f8183612961565b9038612023565b50346101ca5760203660031901126101ca576121126120e66120e1612838565b6129bd565b6040805161ffff90941684526001600160401b0392831660208501529116908201529081906060820190565b0390f35b50346101ca5760c03660031901126101ca57612130612838565b6024356001600160a01b03811691908290036106d0576044356001600160a01b03811692908390036106f3576064356001600160a01b038116908190036111b6576084356001600160a01b038116908190036106cc5760a4356001600160a01b0381169290839003611ae9577fccb4afc22e6136410ef7847a5259f644267a05986a7d70bf1fc0e5079a3073629560c0956121c9612f48565b60018060a01b031694856001600160601b0360a01b6003541617600355806001600160601b0360a01b6004541617600455816001600160601b0360a01b6005541617600555826001600160601b0360a01b6006541617600655836001600160601b0360a01b6007541617600755846001600160601b0360a01b6008541617600855604051958652602086015260408501526060840152608083015260a0820152a180f35b50346101ca57806003193601126101ca576007546040516001600160a01b039091168152602090f35b50346101ca57806003193601126101ca57600154336001600160a01b039091160361230857600180546001600160a01b0319908116909155815433918116821783556001600160a01b03167f8be0079c531659141344cd1fd0a4f28419497f9722a3daafe3b4186f6b6457e08380a380f35b60405162461bcd60e51b815260206004820152602960248201527f4f776e61626c6532537465703a2063616c6c6572206973206e6f7420746865206044820152683732bb9037bbb732b960b91b6064820152608490fd5b50346101ca57806003193601126101ca57602061ffff60085460a01c16604051908152f35b50346101ca57806003193601126101ca5761239d612f48565b600180546001600160a01b03199081169091558154908116825581906001600160a01b03167f8be0079c531659141344cd1fd0a4f28419497f9722a3daafe3b4186f6b6457e08280a380f35b50346101ca57806003193601126101ca57600a546001600160401b03600b54169061211260405192826001600160401b03859460a01c16906001600160401b038160601c16906001600160401b038160201c169061ffff808260101c169116876128f4565b50346101ca5760c03660031901126101ca576124686128a1565b602435906001600160401b0382168083036106f3576124856128b2565b916064358015158091036106cc5761249b6128c8565b9460a4359260ff8416948585036126e8576124b4612f48565b6103e861ffff8316116126b657620151801115806126a1575b156126745787966126149460ff60401b9460ff60481b60c0947f56b454d60f7cf2ebc93df2f55f6276d9a07ea72eef667eb9fbd18d237d08eff696600854906001600160401b0360b01b9060b01b169161ffff60a01b9060a01b169069ffffffffffffffffffff60a01b19161717998a6008556009546001600160401b03891992169071ffffffffffffffffff00ffffffffffffffff191617169160481b161794859160401b16916001600160401b0360501b9060501b161717806009556001600160401b038061ffff8960a01c169860b01c1694168817956001600160401b036040519289845286602085015288604085015260ff8160481c161515606085015260501c16608083015260a0820152a1610aab6040519384926020840196879160409194936001600160401b03809261ffff606087019816865216602085015216910152565b5190206004546001600160a01b0316908161262d575050f35b813b1561066f578291606483926040519586938492631250d57560e31b845230600485015260b4602485015260448401525af1612668579050f35b61267191612961565b80f35b60405162461bcd60e51b81526020600482015260056024820152641cda1bdc9d60da1b6044820152606490fd5b50610e106001600160401b03871610156124cd565b60405162461bcd60e51b815260206004820152600a602482015269073636f72653e313030360b41b6044820152606490fd5b8880fd5b50346101ca57806003193601126101ca57602060405160058152f35b50346101ca57602061272261271c36612867565b91612982565b604051908152f35b50346101ca57806003193601126101ca57602060ff60095460401c16604051908152f35b50346101ca57806003193601126101ca576005546040516001600160a01b039091168152602090f35b50346101ca57806003193601126101ca57602060ff60095460481c166040519015158152f35b50346101ca57806003193601126101ca5760206001600160401b0360095416604051908152f35b50346101ca57806003193601126101ca576003546040516001600160a01b039091168152602090f35b9050346111ba5760203660031901126111ba5760409160ff9060019084906001600160a01b0361281b612838565b168152600d602052200154818116835260081c1615156020820152f35b600435906001600160a01b038216820361284e57565b600080fd5b35906001600160a01b038216820361284e57565b606090600319011261284e576004356001600160a01b038116810361284e57906024356001600160a01b038116810361284e579060443590565b6004359061ffff8216820361284e57565b604435906001600160401b038216820361284e57565b608435906001600160401b038216820361284e57565b606435906001600160401b038216820361284e57565b61ffff9182168152911660208201526001600160401b03918216604082015291811660608301529182166080820152911660a082015260c00190565b608081019081106001600160401b0382111761294b57604052565b634e487b7160e01b600052604160045260246000fd5b90601f801991011681019081106001600160401b0382111761294b57604052565b604080516001600160a01b039283166020820190815292909316908301526060808301939093529181526129b7608082612961565b51902090565b60018060a01b0316600052600c60205260406000206060604051916129e183612930565b549160ff8316151580825261ffff8460081c16918260208201526001600160401b03808660181c169586604084015260581c169384910152612a4a57505050600854906001600160401b0360095416906001600160401b0361ffff8460a01c169360b01c169190565b92565b9081602091031261284e5751801515810361284e5790565b15612a6c57565b60405162461bcd60e51b815260206004820152600960248201526819c8189b1bd8dad95960ba1b6044820152606490fd5b9081602091031261284e575161ffff8116810361284e5790565b15612abe57565b60405162461bcd60e51b8152602060048201526007602482015266672073636f726560c81b6044820152606490fd5b906001600160401b03809116911601906001600160401b038211612b0d57565b634e487b7160e01b600052601160045260246000fd5b92919390612b3084612ff4565b6001600160a01b03612b41856130ba565b163303612ebd57612df457600a549061ffff600095169261ffff831684101580612de3575b15612dac576001600160401b0316906001600160401b038360201c1682101580612d96575b15612d5d576001600160401b038091169260a01c1682101580612d48575b15612d1057604051612bba81612930565b6001815260208101948486526040820190838252606083019085825260018060a01b031696878952600c602052604089209351151560ff80198654169116178455519162ffff006affffffffffffffff0000008554925160181b16926001600160401b0360581b905160581b169360081b169072ffffffffffffffffffffffffffffffffffff0019161717179055837fd070c1ecc65fe43267b334ef7df53de2bb7795056ded4d24a648ea4eaff5e0636080604051868152846020820152856040820152886060820152a2604051926020840194855260408401526060830152608082015260808152612cae60a082612961565b5190206004546001600160a01b03169081612cc857505050565b813b156106d0578291606483926040519485938492631250d57560e31b845230600485015260b7602485015260448401525af1612d03575050565b81612d0d91612961565b50565b60405162461bcd60e51b815260206004820152601060248201526f6364206f7574206f6620626f756e647360801b6044820152606490fd5b506001600160401b03600b5416821115612ba9565b60405162461bcd60e51b8152602060048201526011602482015270657870206f7574206f6620626f756e647360781b6044820152606490fd5b506001600160401b038360601c16821115612b8b565b60405162461bcd60e51b815260206004820152600f60248201526e67206f7574206f6620626f756e647360881b6044820152606490fd5b5061ffff8360101c16841115612b66565b5050905060009060018060a01b0316808252600c602052816040812055807fd070c1ecc65fe43267b334ef7df53de2bb7795056ded4d24a648ea4eaff5e063608060405185815285602082015285604082015260016060820152a26040516020810191825260208152612e68604082612961565b5190206004546001600160a01b03169081612e8257505050565b813b156106d0578291606483926040519485938492631250d57560e31b845230600485015260b6602485015260448401525af1612d03575050565b6330cd747160e01b60005260046000fd5b9190811015612ede5760051b0190565b634e487b7160e01b600052603260045260246000fd5b356001600160a01b038116810361284e5790565b9160209082815201919060005b818110612f225750505090565b909192602080600192838060a01b03612f3a88612853565b168152019401929101612f15565b6000546001600160a01b03163303612f5c57565b606460405162461bcd60e51b815260206004820152602060248201527f4f776e61626c653a2063616c6c6572206973206e6f7420746865206f776e65726044820152fd5b6002805414612faf5760028055565b60405162461bcd60e51b815260206004820152601f60248201527f5265656e7472616e637947756172643a207265656e7472616e742063616c6c006044820152606490fd5b6001600160a01b031680156130a9576008546001600160a01b03169081613019575050565b60209060246040518094819363652b9b4160e01b835260048301525afa90811561309d5760009161307e575b501561304d57565b60405162461bcd60e51b81526020600482015260096024820152681b9bdd081d985d5b1d60ba1b6044820152606490fd5b613097915060203d60201161088d5761087f8183612961565b38613045565b6040513d6000823e3d90fd5b63d92e233d60e01b60005260046000fd5b604051638da5cb5b60e01b815290602090829060049082906001600160a01b03165afa80916000916130f6575b50906130f35750600090565b90565b6020813d602011613130575b8161310f60209383612961565b810103126111ba5751906001600160a01b03821682036101ca5750386130e7565b3d9150613102565b9060005b8254811015613173576000838152602090208101546001600160a01b0383811691161461316b5760010161313c565b505050600190565b505050600090565b600052600e60205260406000206001600160401b03600282015460a01c16156131a15790565b63019af63760e01b60005260046000fdfea26469706673582212201d1b92512b3382f72d0841dc44ef26f9a2f1c5df3878e7ab620e569ee32ead8d64736f6c634300081e0033",
  "linkReferences": {},
  "deployedLinkReferences": {}
}