{"abi":[{"type":"constructor","inputs":[{"name":"_election","type":"address","internalType":"address"},{"name":"_seer","type":"address","internalType":"address"},{"name":"_token","type":"address","internalType":"address"},{"name":"_dao","type":"address","internalType":"address"}],"stateMutability":"nonpayable"},{"type":"function","name":"currentTerm","inputs":[],"outputs":[{"name":"","type":"uint256","internalType":"uint256"}],"stateMutability":"view"},{"type":"function","name":"dao","inputs":[],"outputs":[{"name":"","type":"address","internalType":"address"}],"stateMutability":"view"},{"type":"function","name":"distributeSalary","inputs":[],"outputs":[],"stateMutability":"nonpayable"},{"type":"function","name":"election","inputs":[],"outputs":[{"name":"","type":"address","internalType":"contract ICouncilElection"}],"stateMutability":"view"},{"type":"function","name":"hasVotedToRemoveInTerm","inputs":[{"name":"","type":"uint256","internalType":"uint256"},{"name":"","type":"address","internalType":"address"},{"name":"","type":"address","internalType":"address"}],"outputs":[{"name":"","type":"bool","internalType":"bool"}],"stateMutability":"view"},{"type":"function","name":"isBlacklisted","inputs":[{"name":"","type":"address","internalType":"address"}],"outputs":[{"name":"","type":"bool","internalType":"bool"}],"stateMutability":"view"},{"type":"function","name":"lastPayTime","inputs":[],"outputs":[{"name":"","type":"uint256","internalType":"uint256"}],"stateMutability":"view"},{"type":"function","name":"minScoreToPay","inputs":[],"outputs":[{"name":"","type":"uint16","internalType":"uint16"}],"stateMutability":"view"},{"type":"function","name":"payInterval","inputs":[],"outputs":[{"name":"","type":"uint256","internalType":"uint256"}],"stateMutability":"view"},{"type":"function","name":"removalVotesInTerm","inputs":[{"name":"","type":"uint256","internalType":"uint256"},{"name":"","type":"address","internalType":"address"}],"outputs":[{"name":"","type":"uint256","internalType":"uint256"}],"stateMutability":"view"},{"type":"function","name":"seer","inputs":[],"outputs":[{"name":"","type":"address","internalType":"contract ISeer"}],"stateMutability":"view"},{"type":"function","name":"setDAO","inputs":[{"name":"_dao","type":"address","internalType":"address"}],"outputs":[],"stateMutability":"nonpayable"},{"type":"function","name":"startNewTerm","inputs":[],"outputs":[],"stateMutability":"nonpayable"},{"type":"function","name":"token","inputs":[],"outputs":[{"name":"","type":"address","internalType":"contract IERC20"}],"stateMutability":"view"},{"type":"function","name":"voteToRemove","inputs":[{"name":"target","type":"address","internalType":"address"}],"outputs":[],"stateMutability":"nonpayable"},{"type":"event","name":"MemberRemoved","inputs":[{"name":"member","type":"address","indexed":true,"internalType":"address"},{"name":"by","type":"address","indexed":true,"internalType":"address"}],"anonymous":false},{"type":"event","name":"SalaryPaid","inputs":[{"name":"cycleId","type":"uint256","indexed":true,"internalType":"uint256"},{"name":"totalDistributed","type":"uint256","indexed":false,"internalType":"uint256"}],"anonymous":false},{"type":"event","name":"VoteCast","inputs":[{"name":"voter","type":"address","indexed":true,"internalType":"address"},{"name":"target","type":"address","indexed":true,"internalType":"address"},{"name":"support","type":"bool","indexed":false,"internalType":"bool"}],"anonymous":false}],"bytecode":{"object":"0x6080346100e457601f610e5738819003918201601f19168301916001600160401b038311848410176100e8578084926080946040528339810103126100e457610047816100fc565b90610054602082016100fc565b61006c6060610065604085016100fc565b93016100fc565b629e34006004556005805461ffff1916611b581790555f80546001600160a01b03199081166001600160a01b03968716179091556001805482169386169390931790925560028054831693851693909317909255600a80549091169290911691909117905542600355604051610d4690816101118239f35b5f80fd5b634e487b7160e01b5f52604160045260245ffd5b51906001600160a01b03821682036100e45756fe6080806040526004361015610012575f80fd5b5f3560e01c9081630e443c5f146106d2575080632d55ea39146106aa5780634162169f146106825780634b1d3ede1461065b578063606b659d1461061757806362bffa88146105e25780637727d3aa146102935780638e6a1bc2146102765780638f2f24211461025c578063999b2218146101ed578063c48c7342146101d0578063d139f882146101af578063e73a914c1461012a578063fc0c546a146101025763fe575a87146100c1575f80fd5b346100fe5760203660031901126100fe576001600160a01b036100e2610702565b165f526009602052602060ff60405f2054166040519015158152f35b5f80fd5b346100fe575f3660031901126100fe576002546040516001600160a01b039091168152602090f35b346100fe5760203660031901126100fe57610143610702565b600a549061015b336001600160a01b03841614610718565b6001600160a01b031690811561017b576001600160a01b03191617600a55005b60405162461bcd60e51b815260206004820152600c60248201526b7a65726f206164647265737360a01b6044820152606490fd5b346100fe575f3660031901126100fe57602061ffff60055416604051908152f35b346100fe575f3660031901126100fe576020600654604051908152f35b346100fe5760603660031901126100fe576102066106ec565b604435906001600160a01b03821682036100fe576004355f52600760205260405f209060018060a01b03165f5260205260405f209060018060a01b03165f52602052602060ff60405f2054166040519015158152f35b346100fe575f3660031901126100fe576102746107fe565b005b346100fe575f3660031901126100fe576020600454604051908152f35b346100fe5760203660031901126100fe576102ac610702565b5f546040516326a8d83b60e21b81523360048201526001600160a01b039091169190602081602481865afa9081156104b0575f916105c3575b5015610590576040516326a8d83b60e21b81526001600160a01b039091166004820181905291602090829060249082905afa9081156104b0575f91610561575b5015610527576006545f818152600760209081526040808320858452825280832033845290915290205460ff166104f257815f52600960205260ff60405f2054166104bb575f90815260076020908152604080832084845282528083203384528252808320805460ff19166001179055600654835260088252808320848452909152902080546103b49061074e565b90555f546040516302b553e960e41b815290602090829060049082906001600160a01b03165afa9081156104b0575f9161047e575b506006545f52600860205260405f20825f5260205260405f20549060011c1061043c575b604051600181527fcc194f214df029fe546c9959ee15d79d8633742aab6c02a862e337f8ace3d55060203392a3005b805f52600960205260405f20600160ff1982541617905533817faa91016c21c52c58ac64f23f71bbe75becc9ada603e18ee671d09ff15492d1c15f80a361040d565b90506020813d6020116104a8575b8161049960209383610770565b810103126100fe5751826103e9565b3d915061048c565b6040513d5f823e3d90fd5b60405162461bcd60e51b815260206004820152600f60248201526e185b1c9958591e481c995b5bdd9959608a1b6044820152606490fd5b60405162461bcd60e51b815260206004820152600d60248201526c185b1c9958591e481d9bdd1959609a1b6044820152606490fd5b60405162461bcd60e51b81526020600482015260126024820152711d185c99d95d081b9bdd0818dbdd5b98da5b60721b6044820152606490fd5b610583915060203d602011610589575b61057b8183610770565b8101906107a6565b82610325565b503d610571565b60405162461bcd60e51b815260206004820152600b60248201526a1b9bdd0818dbdd5b98da5b60aa1b6044820152606490fd5b6105dc915060203d6020116105895761057b8183610770565b836102e5565b346100fe575f3660031901126100fe5761060760018060a01b03600a54163314610718565b61061260065461074e565b600655005b346100fe5760403660031901126100fe576106306106ec565b6004355f52600860205260405f209060018060a01b03165f52602052602060405f2054604051908152f35b346100fe575f3660031901126100fe575f546040516001600160a01b039091168152602090f35b346100fe575f3660031901126100fe57600a546040516001600160a01b039091168152602090f35b346100fe575f3660031901126100fe576001546040516001600160a01b039091168152602090f35b346100fe575f3660031901126100fe576020906003548152f35b602435906001600160a01b03821682036100fe57565b600435906001600160a01b03821682036100fe57565b1561071f57565b60405162461bcd60e51b81526020600482015260076024820152666e6f742064616f60c81b6044820152606490fd5b5f19811461075c5760010190565b634e487b7160e01b5f52601160045260245ffd5b90601f8019910116810190811067ffffffffffffffff82111761079257604052565b634e487b7160e01b5f52604160045260245ffd5b908160209103126100fe575180151581036100fe5790565b67ffffffffffffffff81116107925760051b60200190565b80518210156107ea5760209160051b010190565b634e487b7160e01b5f52603260045260245ffd5b600354600454810180911161075c574210610cdf576002546040516370a0823160e01b815230600482015290602090829060249082906001600160a01b03165afa9081156104b0575f91610cad575b508015610c7d575f546040516302b553e960e41b81526001600160a01b0390911690602081600481855afa9081156104b0575f91610c4b575b508015610c1957808310610bc25761089d816107be565b906108ab6040519283610770565b808252601f196108ba826107be565b013660208401375f925f9160018060a01b036001541661ffff60055416925b828510610a8a5750505050508115610a85578183048015610a4a575f5b8381106109335750505050426003556040519081527fda24fc068c246587ac32513621f98385e5194f26bfc95ef9c849ce11d1d7a2f460204292a2565b6002545f9081906001600160a01b039081169061095085886107d6565b511682604051602081019263a9059cbb60e01b845260248201528760448201526044815261097f606482610770565b51925af13d15610a43573d67ffffffffffffffff811161079257604051906109b1601f8201601f191660200183610770565b81523d5f602083013e5b81610a14575b50156109cf576001016108f6565b60405162461bcd60e51b815260206004820152601a60248201527f5361666545524332303a207472616e73666572206661696c65640000000000006044820152606490fd5b8051801592508215610a29575b50505f6109c1565b610a3c92506020809183010191016107a6565b5f80610a21565b60606109bb565b60405162461bcd60e51b815260206004820152601360248201527210d4ce881cda185c99481d1bdbc81cdb585b1b606a1b6044820152606490fd5b505050565b9091929395604051630def1ea960e31b8152876004820152602081602481865afa9081156104b0575f91610b81575b506001600160a01b03168015610b3657805f52600960205260ff60405f205416610b3657604051630d47875d60e41b815260048101829052602081602481885afa80156104b05787915f91610b40575b5061ffff1610610b365781610b2a91610b246001948a6107d6565b5261074e565b965b01939291906108d9565b5095600190610b2c565b9150506020813d8211610b79575b81610b5b60209383610770565b810103126100fe575161ffff811681036100fe57869061ffff610b09565b3d9150610b4e565b90506020813d8211610bba575b81610b9b60209383610770565b810103126100fe57516001600160a01b03811681036100fe575f610ab9565b3d9150610b8e565b60405162461bcd60e51b815260206004820152602960248201527f43533a20696e73756666696369656e742062616c616e636520666f72206469736044820152683a3934b13aba34b7b760b91b6064820152608490fd5b60405162461bcd60e51b815260206004820152600a6024820152691b9bc818dbdd5b98da5b60b21b6044820152606490fd5b90506020813d602011610c75575b81610c6660209383610770565b810103126100fe57515f610886565b3d9150610c59565b60405162461bcd60e51b81526020600482015260086024820152676e6f2066756e647360c01b6044820152606490fd5b90506020813d602011610cd7575b81610cc860209383610770565b810103126100fe57515f61084d565b3d9150610cbb565b60405162461bcd60e51b8152602060048201526009602482015268746f6f206561726c7960b81b6044820152606490fdfea264697066735822122020fd140df0fe20fbe9acc267746b63626d2f6ba917f32e18b81a16f7aba002a564736f6c634300081e0033","linkReferences":{}},"methodIdentifiers":{"currentTerm()":"c48c7342","dao()":"4162169f","distributeSalary()":"8f2f2421","election()":"4b1d3ede","hasVotedToRemoveInTerm(uint256,address,address)":"999b2218","isBlacklisted(address)":"fe575a87","lastPayTime()":"0e443c5f","minScoreToPay()":"d139f882","payInterval()":"8e6a1bc2","removalVotesInTerm(uint256,address)":"606b659d","seer()":"2d55ea39","setDAO(address)":"e73a914c","startNewTerm()":"62bffa88","token()":"fc0c546a","voteToRemove(address)":"7727d3aa"},"id":4}