{"abi":[{"type":"constructor","inputs":[{"name":"_election","type":"address","internalType":"address"},{"name":"_seer","type":"address","internalType":"address"},{"name":"_token","type":"address","internalType":"address"},{"name":"_dao","type":"address","internalType":"address"}],"stateMutability":"nonpayable"},{"type":"function","name":"currentTerm","inputs":[],"outputs":[{"name":"","type":"uint256","internalType":"uint256"}],"stateMutability":"view"},{"type":"function","name":"dao","inputs":[],"outputs":[{"name":"","type":"address","internalType":"address"}],"stateMutability":"view"},{"type":"function","name":"distributeSalary","inputs":[],"outputs":[],"stateMutability":"nonpayable"},{"type":"function","name":"distributionNonce","inputs":[],"outputs":[{"name":"","type":"uint256","internalType":"uint256"}],"stateMutability":"view"},{"type":"function","name":"election","inputs":[],"outputs":[{"name":"","type":"address","internalType":"contract ICouncilElection"}],"stateMutability":"view"},{"type":"function","name":"hasVotedToRemoveInTerm","inputs":[{"name":"","type":"uint256","internalType":"uint256"},{"name":"","type":"address","internalType":"address"},{"name":"","type":"address","internalType":"address"}],"outputs":[{"name":"","type":"bool","internalType":"bool"}],"stateMutability":"view"},{"type":"function","name":"isBlacklisted","inputs":[{"name":"","type":"address","internalType":"address"}],"outputs":[{"name":"","type":"bool","internalType":"bool"}],"stateMutability":"view"},{"type":"function","name":"isKeeper","inputs":[{"name":"","type":"address","internalType":"address"}],"outputs":[{"name":"","type":"bool","internalType":"bool"}],"stateMutability":"view"},{"type":"function","name":"lastPayTime","inputs":[],"outputs":[{"name":"","type":"uint256","internalType":"uint256"}],"stateMutability":"view"},{"type":"function","name":"minScoreToPay","inputs":[],"outputs":[{"name":"","type":"uint16","internalType":"uint16"}],"stateMutability":"view"},{"type":"function","name":"payInterval","inputs":[],"outputs":[{"name":"","type":"uint256","internalType":"uint256"}],"stateMutability":"view"},{"type":"function","name":"removalVotesInTerm","inputs":[{"name":"","type":"uint256","internalType":"uint256"},{"name":"","type":"address","internalType":"address"}],"outputs":[{"name":"","type":"uint256","internalType":"uint256"}],"stateMutability":"view"},{"type":"function","name":"seer","inputs":[],"outputs":[{"name":"","type":"address","internalType":"contract ISeer"}],"stateMutability":"view"},{"type":"function","name":"setDAO","inputs":[{"name":"_dao","type":"address","internalType":"address"}],"outputs":[],"stateMutability":"nonpayable"},{"type":"function","name":"setKeeper","inputs":[{"name":"keeper","type":"address","internalType":"address"},{"name":"authorized","type":"bool","internalType":"bool"}],"outputs":[],"stateMutability":"nonpayable"},{"type":"function","name":"startNewTerm","inputs":[],"outputs":[],"stateMutability":"nonpayable"},{"type":"function","name":"token","inputs":[],"outputs":[{"name":"","type":"address","internalType":"contract IERC20"}],"stateMutability":"view"},{"type":"function","name":"voteToRemove","inputs":[{"name":"target","type":"address","internalType":"address"}],"outputs":[],"stateMutability":"nonpayable"},{"type":"event","name":"MemberRemoved","inputs":[{"name":"member","type":"address","indexed":true,"internalType":"address"},{"name":"by","type":"address","indexed":true,"internalType":"address"}],"anonymous":false},{"type":"event","name":"SalaryPaid","inputs":[{"name":"cycleId","type":"uint256","indexed":true,"internalType":"uint256"},{"name":"totalDistributed","type":"uint256","indexed":false,"internalType":"uint256"}],"anonymous":false},{"type":"event","name":"VoteCast","inputs":[{"name":"voter","type":"address","indexed":true,"internalType":"address"},{"name":"target","type":"address","indexed":true,"internalType":"address"},{"name":"support","type":"bool","indexed":false,"internalType":"bool"}],"anonymous":false}],"bytecode":{"object":"0x6080346100fa57601f610fd838819003918201601f19168301916001600160401b038311848410176100fe578084926080946040528339810103126100fa5761004781610112565b9061005460208201610112565b61006c606061006560408501610112565b9301610112565b629e34006004556005805461ffff1916611b581790555f80546001600160a01b03199081166001600160a01b0396871617825560018054821694871694909417845560028054821695871695909517909455600a80549094169490911693841790925542600355918152600b602052604090819020805460ff191690921790915551610eb190816101278239f35b5f80fd5b634e487b7160e01b5f52604160045260245ffd5b51906001600160a01b03821682036100fa5756fe6080806040526004361015610012575f80fd5b5f3560e01c9081630e443c5f1461078a575080632d55ea39146107625780634162169f1461073a5780634b1d3ede146107135780635fe62d04146106f6578063606b659d146106b257806362bffa881461067d5780636ba42aaa146106405780637727d3aa146102f15780638e6a1bc2146102d45780638f2f2421146102ba578063999b22181461024b578063c48c73421461022e578063d139f8821461020d578063d1b9e853146101a1578063e73a914c1461014b578063fc0c546a146101235763fe575a87146100e2575f80fd5b3461011f57602036600319011261011f576001600160a01b036101036107ba565b165f526009602052602060ff60405f2054166040519015158152f35b5f80fd5b3461011f575f36600319011261011f576002546040516001600160a01b039091168152602090f35b3461011f57602036600319011261011f576101646107ba565b600a549061017c336001600160a01b038416146107d0565b6001600160a01b031690610191821515610e40565b6001600160a01b03191617600a55005b3461011f57604036600319011261011f576101ba6107ba565b6024359081151580920361011f576101dd60018060a01b03600a541633146107d0565b6001600160a01b03166101f1811515610e40565b5f52600b60205260405f209060ff801983541691161790555f80f35b3461011f575f36600319011261011f57602061ffff60055416604051908152f35b3461011f575f36600319011261011f576020600654604051908152f35b3461011f57606036600319011261011f576102646107a4565b604435906001600160a01b038216820361011f576004355f52600760205260405f209060018060a01b03165f5260205260405f209060018060a01b03165f52602052602060ff60405f2054166040519015158152f35b3461011f575f36600319011261011f576102d26108b6565b005b3461011f575f36600319011261011f576020600454604051908152f35b3461011f57602036600319011261011f5761030a6107ba565b5f546040516326a8d83b60e21b81523360048201526001600160a01b039091169190602081602481865afa90811561050e575f91610621575b50156105ee576040516326a8d83b60e21b81526001600160a01b039091166004820181905291602090829060249082905afa90811561050e575f916105bf575b5015610585576006545f818152600760209081526040808320858452825280832033845290915290205460ff1661055057815f52600960205260ff60405f205416610519575f90815260076020908152604080832084845282528083203384528252808320805460ff191660011790556006548352600882528083208484529091529020805461041290610806565b90555f546040516302b553e960e41b815290602090829060049082906001600160a01b03165afa90811561050e575f916104dc575b506006545f52600860205260405f20825f5260205260405f20549060011c1061049a575b604051600181527fcc194f214df029fe546c9959ee15d79d8633742aab6c02a862e337f8ace3d55060203392a3005b805f52600960205260405f20600160ff1982541617905533817faa91016c21c52c58ac64f23f71bbe75becc9ada603e18ee671d09ff15492d1c15f80a361046b565b90506020813d602011610506575b816104f760209383610828565b8101031261011f575182610447565b3d91506104ea565b6040513d5f823e3d90fd5b60405162461bcd60e51b815260206004820152600f60248201526e185b1c9958591e481c995b5bdd9959608a1b6044820152606490fd5b60405162461bcd60e51b815260206004820152600d60248201526c185b1c9958591e481d9bdd1959609a1b6044820152606490fd5b60405162461bcd60e51b81526020600482015260126024820152711d185c99d95d081b9bdd0818dbdd5b98da5b60721b6044820152606490fd5b6105e1915060203d6020116105e7575b6105d98183610828565b81019061085e565b82610383565b503d6105cf565b60405162461bcd60e51b815260206004820152600b60248201526a1b9bdd0818dbdd5b98da5b60aa1b6044820152606490fd5b61063a915060203d6020116105e7576105d98183610828565b83610343565b3461011f57602036600319011261011f576001600160a01b036106616107ba565b165f52600b602052602060ff60405f2054166040519015158152f35b3461011f575f36600319011261011f576106a260018060a01b03600a541633146107d0565b6106ad600654610806565b600655005b3461011f57604036600319011261011f576106cb6107a4565b6004355f52600860205260405f209060018060a01b03165f52602052602060405f2054604051908152f35b3461011f575f36600319011261011f576020600c54604051908152f35b3461011f575f36600319011261011f575f546040516001600160a01b039091168152602090f35b3461011f575f36600319011261011f57600a546040516001600160a01b039091168152602090f35b3461011f575f36600319011261011f576001546040516001600160a01b039091168152602090f35b3461011f575f36600319011261011f576020906003548152f35b602435906001600160a01b038216820361011f57565b600435906001600160a01b038216820361011f57565b156107d757565b60405162461bcd60e51b81526020600482015260076024820152666e6f742064616f60c81b6044820152606490fd5b5f1981146108145760010190565b634e487b7160e01b5f52601160045260245ffd5b90601f8019910116810190811067ffffffffffffffff82111761084a57604052565b634e487b7160e01b5f52604160045260245ffd5b9081602091031261011f5751801515810361011f5790565b67ffffffffffffffff811161084a5760051b60200190565b80518210156108a25760209160051b010190565b634e487b7160e01b5f52603260045260245ffd5b600a546001600160a01b031633148015610e2a575b15610df0576003546004548101809111610814574210610dbf576108f0600c54610806565b600c556002546040516370a0823160e01b815230600482015290602090829060249082906001600160a01b03165afa90811561050e575f91610d8d575b508015610d5d575f546040516302b553e960e41b81526001600160a01b0390911690602081600481855afa90811561050e575f91610d2b575b508015610cf957808310610ca25761097d81610876565b9061098b6040519283610828565b808252601f1961099a82610876565b013660208401375f925f9160018060a01b036001541661ffff60055416925b828510610b6a5750505050508115610b65578183048015610b2a575f5b838110610a135750505050426003556040519081527fda24fc068c246587ac32513621f98385e5194f26bfc95ef9c849ce11d1d7a2f460204292a2565b6002545f9081906001600160a01b0390811690610a30858861088e565b511682604051602081019263a9059cbb60e01b8452602482015287604482015260448152610a5f606482610828565b51925af13d15610b23573d67ffffffffffffffff811161084a5760405190610a91601f8201601f191660200183610828565b81523d5f602083013e5b81610af4575b5015610aaf576001016109d6565b60405162461bcd60e51b815260206004820152601a60248201527f5361666545524332303a207472616e73666572206661696c65640000000000006044820152606490fd5b8051801592508215610b09575b50505f610aa1565b610b1c925060208091830101910161085e565b5f80610b01565b6060610a9b565b60405162461bcd60e51b815260206004820152601360248201527210d4ce881cda185c99481d1bdbc81cdb585b1b606a1b6044820152606490fd5b505050565b9091929395604051630def1ea960e31b8152876004820152602081602481865afa90811561050e575f91610c61575b506001600160a01b03168015610c1657805f52600960205260ff60405f205416610c1657604051630d47875d60e41b815260048101829052602081602481885afa801561050e5787915f91610c20575b5061ffff1610610c165781610c0a91610c046001948a61088e565b52610806565b965b01939291906109b9565b5095600190610c0c565b9150506020813d8211610c59575b81610c3b60209383610828565b8101031261011f575161ffff8116810361011f57869061ffff610be9565b3d9150610c2e565b90506020813d8211610c9a575b81610c7b60209383610828565b8101031261011f57516001600160a01b038116810361011f575f610b99565b3d9150610c6e565b60405162461bcd60e51b815260206004820152602960248201527f43533a20696e73756666696369656e742062616c616e636520666f72206469736044820152683a3934b13aba34b7b760b91b6064820152608490fd5b60405162461bcd60e51b815260206004820152600a6024820152691b9bc818dbdd5b98da5b60b21b6044820152606490fd5b90506020813d602011610d55575b81610d4660209383610828565b8101031261011f57515f610966565b3d9150610d39565b60405162461bcd60e51b81526020600482015260086024820152676e6f2066756e647360c01b6044820152606490fd5b90506020813d602011610db7575b81610da860209383610828565b8101031261011f57515f61092d565b3d9150610d9b565b60405162461bcd60e51b8152602060048201526009602482015268746f6f206561726c7960b81b6044820152606490fd5b60405162461bcd60e51b815260206004820152601260248201527110d4ce881b9bdd08185d5d1a1bdc9a5e995960721b6044820152606490fd5b50335f52600b60205260ff60405f2054166108cb565b15610e4757565b60405162461bcd60e51b815260206004820152600c60248201526b7a65726f206164647265737360a01b6044820152606490fdfea26469706673582212203a48309e713c6ea3c8f08ddc165fc605e241af769d82db2e3c06769412c83bfe64736f6c634300081e0033","linkReferences":{}},"methodIdentifiers":{"currentTerm()":"c48c7342","dao()":"4162169f","distributeSalary()":"8f2f2421","distributionNonce()":"5fe62d04","election()":"4b1d3ede","hasVotedToRemoveInTerm(uint256,address,address)":"999b2218","isBlacklisted(address)":"fe575a87","isKeeper(address)":"6ba42aaa","lastPayTime()":"0e443c5f","minScoreToPay()":"d139f882","payInterval()":"8e6a1bc2","removalVotesInTerm(uint256,address)":"606b659d","seer()":"2d55ea39","setDAO(address)":"e73a914c","setKeeper(address,bool)":"d1b9e853","startNewTerm()":"62bffa88","token()":"fc0c546a","voteToRemove(address)":"7727d3aa"},"id":4}