{"abi":[{"type":"function","name":"noteVFIDE","inputs":[{"name":"amount","type":"uint256","internalType":"uint256"},{"name":"from","type":"address","internalType":"address"}],"outputs":[],"stateMutability":"nonpayable"},{"type":"event","name":"NoteVFIDE","inputs":[{"name":"amount","type":"uint256","indexed":false,"internalType":"uint256"},{"name":"from","type":"address","indexed":false,"internalType":"address"}],"anonymous":false}],"bytecode":{"object":"0x6080806040523460135760b2908160188239f35b5f80fdfe60808060405260043610156011575f80fd5b5f3560e01c637f6b78a4146023575f80fd5b3460785760403660031901126078576024356001600160a01b038116908190036078577f35155ba5135793b1945b1b8bcf7c66f006baf9f1a241291ff79fd3af0bcfff419160409160043582526020820152a1005b5f80fdfea264697066735822122028e7bf36d274bfba7781b8ce3bffe1fc5ad0828a4b42c44f7d19c002630c735064736f6c634300081e0033","linkReferences":{}},"methodIdentifiers":{"noteVFIDE(uint256,address)":"7f6b78a4"},"id":93}