{"abi":[{"type":"function","name":"TEST_checkAllowance","inputs":[{"name":"from","type":"address","internalType":"address"},{"name":"spender","type":"address","internalType":"address"},{"name":"value","type":"uint256","internalType":"uint256"}],"outputs":[{"name":"","type":"bool","internalType":"bool"}],"stateMutability":"view"},{"type":"function","name":"allowance","inputs":[{"name":"","type":"address","internalType":"address"},{"name":"","type":"address","internalType":"address"}],"outputs":[{"name":"","type":"uint256","internalType":"uint256"}],"stateMutability":"view"},{"type":"function","name":"approve","inputs":[{"name":"spender","type":"address","internalType":"address"},{"name":"value","type":"uint256","internalType":"uint256"}],"outputs":[{"name":"","type":"bool","internalType":"bool"}],"stateMutability":"nonpayable"},{"type":"function","name":"balanceOf","inputs":[{"name":"","type":"address","internalType":"address"}],"outputs":[{"name":"","type":"uint256","internalType":"uint256"}],"stateMutability":"view"},{"type":"function","name":"decimals","inputs":[],"outputs":[{"name":"","type":"uint8","internalType":"uint8"}],"stateMutability":"view"},{"type":"function","name":"mint","inputs":[{"name":"to","type":"address","internalType":"address"},{"name":"amount","type":"uint256","internalType":"uint256"}],"outputs":[],"stateMutability":"nonpayable"},{"type":"function","name":"name","inputs":[],"outputs":[{"name":"","type":"string","internalType":"string"}],"stateMutability":"view"},{"type":"function","name":"reenterId","inputs":[],"outputs":[{"name":"","type":"uint256","internalType":"uint256"}],"stateMutability":"view"},{"type":"function","name":"reenterTarget","inputs":[],"outputs":[{"name":"","type":"address","internalType":"address"}],"stateMutability":"view"},{"type":"function","name":"setReenter","inputs":[{"name":"target","type":"address","internalType":"address"},{"name":"id","type":"uint256","internalType":"uint256"}],"outputs":[],"stateMutability":"nonpayable"},{"type":"function","name":"symbol","inputs":[],"outputs":[{"name":"","type":"string","internalType":"string"}],"stateMutability":"view"},{"type":"function","name":"transfer","inputs":[{"name":"to","type":"address","internalType":"address"},{"name":"value","type":"uint256","internalType":"uint256"}],"outputs":[{"name":"","type":"bool","internalType":"bool"}],"stateMutability":"nonpayable"},{"type":"function","name":"transferFrom","inputs":[{"name":"from","type":"address","internalType":"address"},{"name":"to","type":"address","internalType":"address"},{"name":"value","type":"uint256","internalType":"uint256"}],"outputs":[{"name":"","type":"bool","internalType":"bool"}],"stateMutability":"nonpayable"}],"bytecode":{"object":"0x6080604052346100fa576100135f546100fe565b601f81116100b3575b50600e662932b2b73a32b960c91b015f55600154610039906100fe565b601f811161006b575b60066214939560ea1b016001556002805460ff191660121790556040516107a190816101378239f35b60015f52601f0160051c7fb10e2d527612073b26eecdfd717e6a320cf44b4afac2b0732d9fcbe2b7fa0cf6908101905b8181106100a85750610042565b5f815560010161009b565b5f8052601f0160051c7f290decd9548b62a8d60345a988386fc84ba6bc95484008f6362f93160ef3e563908101905b8181106100ef575061001c565b5f81556001016100e2565b5f80fd5b90600182811c9216801561012c575b602083101461011857565b634e487b7160e01b5f52602260045260245ffd5b91607f169161010d56fe60806040526004361015610011575f80fd5b5f5f3560e01c806306fdde0314610569578063095ea7b31461052257806323b872dd14610436578063313ce5671461041657806340c10f19146103d857806370a08231146103a057806395d89b411461029c578063a9059cbb146101be578063c283914c146101a0578063c438e1891461015c578063cc6e845414610133578063dd62ed3e146100cf5763f81f7909146100a9575f80fd5b346100cc5760206100c26100bc36610697565b91610735565b6040519015158152f35b80fd5b50346100cc5760403660031901126100cc576100e9610681565b60243591906001600160a01b038316830361012f579060409160018060a01b031681526004602052209060018060a01b03165f52602052602060405f2054604051908152f35b5080fd5b50346100cc57806003193601126100cc576005546040516001600160a01b039091168152602090f35b50346100cc5760403660031901126100cc576001600160a01b0361017e610681565b166bffffffffffffffffffffffff60a01b600554161760055560243560065580f35b50346100cc57806003193601126100cc576020600654604051908152f35b34610298576040366003190112610298576101d7610681565b60243590335f5260036020526101f38260405f205410156106d1565b335f52600360205260405f2061020a838254610707565b905560018060a01b03165f52600360205261022a60405f20918254610728565b90556005546001600160a01b031680610249575b602060405160018152f35b600654813b15610298575f916024839260405194859384926337bdc99b60e01b845260048401525af1801561028d571561023e575f61028791610621565b5f61023e565b6040513d5f823e3d90fd5b5f80fd5b34610298575f366003190112610298576040515f6001548060011c90600181168015610396575b6020831081146103825782855290811561035e5750600114610300575b6102fc836102f081850382610621565b60405191829182610657565b0390f35b60015f9081527fb10e2d527612073b26eecdfd717e6a320cf44b4afac2b0732d9fcbe2b7fa0cf6939250905b808210610344575090915081016020016102f06102e0565b91926001816020925483858801015201910190929161032c565b60ff191660208086019190915291151560051b840190910191506102f090506102e0565b634e487b7160e01b5f52602260045260245ffd5b91607f16916102c3565b34610298576020366003190112610298576001600160a01b036103c1610681565b165f526003602052602060405f2054604051908152f35b34610298576040366003190112610298576001600160a01b036103f9610681565b165f52600360205260405f206104126024358254610728565b9055005b34610298575f36600319011261029857602060ff60025416604051908152f35b346102985761044436610697565b9160018060a01b0316805f5260036020526104658360405f205410156106d1565b5f8181526004602090815260408083203384529091529020548381106104f1578361048f91610707565b815f52600460205260405f2060018060a01b0333165f5260205260405f20555f52600360205260405f206104c4838254610707565b905560018060a01b03165f5260036020526104e460405f20918254610728565b9055602060405160018152f35b60405162461bcd60e51b8152602060048201526009602482015268616c6c6f77616e636560b81b6044820152606490fd5b346102985760403660031901126102985761053b610681565b335f52600460205260405f209060018060a01b03165f5260205260405f206024359055602060405160018152f35b34610298575f366003190112610298576040515f5f548060011c90600181168015610617575b6020831081146103825782855290811561035e57506001146105bb576102fc836102f081850382610621565b5f8080527f290decd9548b62a8d60345a988386fc84ba6bc95484008f6362f93160ef3e563939250905b8082106105fd575090915081016020016102f06102e0565b9192600181602092548385880101520191019092916105e5565b91607f169161058f565b90601f8019910116810190811067ffffffffffffffff82111761064357604052565b634e487b7160e01b5f52604160045260245ffd5b602060409281835280519182918282860152018484015e5f828201840152601f01601f1916010190565b600435906001600160a01b038216820361029857565b6060906003190112610298576004356001600160a01b038116810361029857906024356001600160a01b0381168103610298579060443590565b156106d857565b60405162461bcd60e51b815260206004820152600760248201526662616c616e636560c81b6044820152606490fd5b9190820391821161071457565b634e487b7160e01b5f52601160045260245ffd5b9190820180921161071457565b6001600160a01b039081165f908152600460209081526040808320949093168252929092529020541061076757600190565b5f9056fea2646970667358221220e91d83dca450f224373cc51cee12c3b524b69badc39e79c16c45e485cf662cd864736f6c634300081e0033","linkReferences":{}},"methodIdentifiers":{"TEST_checkAllowance(address,address,uint256)":"f81f7909","allowance(address,address)":"dd62ed3e","approve(address,uint256)":"095ea7b3","balanceOf(address)":"70a08231","decimals()":"313ce567","mint(address,uint256)":"40c10f19","name()":"06fdde03","reenterId()":"c283914c","reenterTarget()":"cc6e8454","setReenter(address,uint256)":"c438e189","symbol()":"95d89b41","transfer(address,uint256)":"a9059cbb","transferFrom(address,address,uint256)":"23b872dd"},"id":83}