{"abi":[{"type":"constructor","inputs":[{"name":"_dao","type":"address","internalType":"address"},{"name":"_token","type":"address","internalType":"address"},{"name":"_hub","type":"address","internalType":"address"},{"name":"_seer","type":"address","internalType":"address"},{"name":"_sec","type":"address","internalType":"address"},{"name":"_ledger","type":"address","internalType":"address"}],"stateMutability":"nonpayable"},{"type":"function","name":"TEST_setForceAlreadyMerchant","inputs":[{"name":"v","type":"bool","internalType":"bool"}],"outputs":[],"stateMutability":"nonpayable"},{"type":"function","name":"TEST_setForceLowScore","inputs":[{"name":"v","type":"bool","internalType":"bool"}],"outputs":[],"stateMutability":"nonpayable"},{"type":"function","name":"TEST_setForceNoVault","inputs":[{"name":"v","type":"bool","internalType":"bool"}],"outputs":[],"stateMutability":"nonpayable"},{"type":"function","name":"TEST_setForceZeroSenderDispute","inputs":[{"name":"v","type":"bool","internalType":"bool"}],"outputs":[],"stateMutability":"nonpayable"},{"type":"function","name":"TEST_setForceZeroSenderRefund","inputs":[{"name":"v","type":"bool","internalType":"bool"}],"outputs":[],"stateMutability":"nonpayable"},{"type":"function","name":"TEST_setOnlyDAOOff","inputs":[{"name":"v","type":"bool","internalType":"bool"}],"outputs":[],"stateMutability":"nonpayable"},{"type":"function","name":"_test_forceAlreadyMerchant","inputs":[],"outputs":[{"name":"","type":"bool","internalType":"bool"}],"stateMutability":"view"},{"type":"function","name":"_test_forceLowScore","inputs":[],"outputs":[{"name":"","type":"bool","internalType":"bool"}],"stateMutability":"view"},{"type":"function","name":"_test_forceNoVault","inputs":[],"outputs":[{"name":"","type":"bool","internalType":"bool"}],"stateMutability":"view"},{"type":"function","name":"_test_forceZeroSenderDispute","inputs":[],"outputs":[{"name":"","type":"bool","internalType":"bool"}],"stateMutability":"view"},{"type":"function","name":"_test_forceZeroSenderRefund","inputs":[],"outputs":[{"name":"","type":"bool","internalType":"bool"}],"stateMutability":"view"},{"type":"function","name":"_test_onlyDAOOff","inputs":[],"outputs":[{"name":"","type":"bool","internalType":"bool"}],"stateMutability":"view"},{"type":"function","name":"addMerchant","inputs":[{"name":"metaHash","type":"bytes32","internalType":"bytes32"}],"outputs":[],"stateMutability":"nonpayable"},{"type":"function","name":"autoSuspendDisputes","inputs":[],"outputs":[{"name":"","type":"uint8","internalType":"uint8"}],"stateMutability":"view"},{"type":"function","name":"autoSuspendRefunds","inputs":[],"outputs":[{"name":"","type":"uint8","internalType":"uint8"}],"stateMutability":"view"},{"type":"function","name":"dao","inputs":[],"outputs":[{"name":"","type":"address","internalType":"address"}],"stateMutability":"view"},{"type":"function","name":"info","inputs":[{"name":"owner","type":"address","internalType":"address"}],"outputs":[{"name":"","type":"tuple","internalType":"struct MerchantRegistryTestable.Merchant","components":[{"name":"owner","type":"address","internalType":"address"},{"name":"vault","type":"address","internalType":"address"},{"name":"status","type":"uint8","internalType":"enum MerchantRegistryTestable.Status"},{"name":"refunds","type":"uint32","internalType":"uint32"},{"name":"disputes","type":"uint32","internalType":"uint32"},{"name":"metaHash","type":"bytes32","internalType":"bytes32"}]}],"stateMutability":"view"},{"type":"function","name":"ledger","inputs":[],"outputs":[{"name":"","type":"address","internalType":"contract IProofLedger"}],"stateMutability":"view"},{"type":"function","name":"merchants","inputs":[{"name":"","type":"address","internalType":"address"}],"outputs":[{"name":"owner","type":"address","internalType":"address"},{"name":"vault","type":"address","internalType":"address"},{"name":"status","type":"uint8","internalType":"enum MerchantRegistryTestable.Status"},{"name":"refunds","type":"uint32","internalType":"uint32"},{"name":"disputes","type":"uint32","internalType":"uint32"},{"name":"metaHash","type":"bytes32","internalType":"bytes32"}],"stateMutability":"view"},{"type":"function","name":"minScore","inputs":[],"outputs":[{"name":"","type":"uint16","internalType":"uint16"}],"stateMutability":"view"},{"type":"function","name":"reportDispute","inputs":[{"name":"owner","type":"address","internalType":"address"}],"outputs":[],"stateMutability":"nonpayable"},{"type":"function","name":"reportRefund","inputs":[{"name":"owner","type":"address","internalType":"address"}],"outputs":[],"stateMutability":"nonpayable"},{"type":"function","name":"security","inputs":[],"outputs":[{"name":"","type":"address","internalType":"contract ISecurityHub"}],"stateMutability":"view"},{"type":"function","name":"seer","inputs":[],"outputs":[{"name":"","type":"address","internalType":"contract ISeer"}],"stateMutability":"view"},{"type":"function","name":"setPolicy","inputs":[{"name":"_minScore","type":"uint16","internalType":"uint16"},{"name":"_autoSuspendRefunds","type":"uint8","internalType":"uint8"},{"name":"_autoSuspendDisputes","type":"uint8","internalType":"uint8"}],"outputs":[],"stateMutability":"nonpayable"},{"type":"function","name":"token","inputs":[],"outputs":[{"name":"","type":"address","internalType":"contract IERC20"}],"stateMutability":"view"},{"type":"function","name":"vaultHub","inputs":[],"outputs":[{"name":"","type":"address","internalType":"contract IVaultHub"}],"stateMutability":"view"},{"type":"event","name":"AutoFlagged","inputs":[{"name":"owner","type":"address","indexed":true,"internalType":"address"},{"name":"reason","type":"string","indexed":false,"internalType":"string"}],"anonymous":false},{"type":"event","name":"MerchantAdded","inputs":[{"name":"owner","type":"address","indexed":true,"internalType":"address"},{"name":"vault","type":"address","indexed":true,"internalType":"address"},{"name":"metaHash","type":"bytes32","indexed":false,"internalType":"bytes32"}],"anonymous":false},{"type":"event","name":"MerchantStatus","inputs":[{"name":"owner","type":"address","indexed":true,"internalType":"address"},{"name":"status","type":"uint8","indexed":false,"internalType":"enum MerchantRegistryTestable.Status"},{"name":"reason","type":"string","indexed":false,"internalType":"string"}],"anonymous":false},{"type":"event","name":"ModulesSet","inputs":[{"name":"dao","type":"address","indexed":false,"internalType":"address"},{"name":"token","type":"address","indexed":false,"internalType":"address"},{"name":"hub","type":"address","indexed":false,"internalType":"address"},{"name":"seer","type":"address","indexed":false,"internalType":"address"},{"name":"sec","type":"address","indexed":false,"internalType":"address"},{"name":"ledger","type":"address","indexed":false,"internalType":"address"}],"anonymous":false},{"type":"event","name":"PolicySet","inputs":[{"name":"minScore","type":"uint16","indexed":false,"internalType":"uint16"},{"name":"autoSuspendRefunds","type":"uint8","indexed":false,"internalType":"uint8"},{"name":"autoSuspendDisputes","type":"uint8","indexed":false,"internalType":"uint8"}],"anonymous":false},{"type":"error","name":"COM_AlreadyMerchant","inputs":[]},{"type":"error","name":"COM_BadRating","inputs":[]},{"type":"error","name":"COM_NotAllowed","inputs":[]},{"type":"error","name":"COM_NotDAO","inputs":[]},{"type":"error","name":"COM_NotMerchant","inputs":[]},{"type":"error","name":"COM_Zero","inputs":[]}],"bytecode":{"object":"0x610140346101ea57601f6110f738819003918201601f19168301916001600160401b038311848410176101ee5780849260c0946040528339810103126101ea5761004881610202565b61005460208301610202565b9161006160408201610202565b61006d60608301610202565b9161008660a061007f60808401610202565b9201610202565b6001805463ffff0000191663030500001790556001600160a01b03851693909190841580156101d9575b80156101c8575b80156101b7575b6101a85760809586526001600160a01b0396871660a081815294881660c081815292891660e081905293891661010081905294909816610120819052604080519788526020880192909252908601979097526060850191909152938301528101929092527f52286c1f6776073dabe8dfcad8b462596b05fff8827c8c35d3b8c3909860371e91a1604051610ee0908161021782396080518181816105d8015261078a015260a05181610158015260c05181818161064b01526108b0015260e0518181816107f501526109200152610100518161071f0152610120518181816106da0152610a4f0152f35b63417bf3f760e01b5f5260045ffd5b506001600160a01b038116156100be565b506001600160a01b038416156100b7565b506001600160a01b038716156100b0565b5f80fd5b634e487b7160e01b5f52604160045260245ffd5b51906001600160a01b03821682036101ea5756fe60806040526004361015610011575f80fd5b5f5f3560e01c8063073d319914610d2c5780630aae7a6b14610c1a5780630d38434f1461086a57806313c2bedc14610848578063230ebff5146108245780632d55ea39146107df5780633a8838af146107b95780634162169f1461077457806344a6f1491461074e578063548799181461070957806356397c35146106c45780635c8159ef1461069e5780635faddc741461067a5780636dd6e80b146106355780636e4e374e1461060f578063727bda9c1461051357806372f8a804146104d857806378983da71461049b57806385e6bf6c1461045c5780639983dd39146104215780639b98c0bf146103e0578063be33e92e146102a5578063e3cc5a431461027f578063ee14e939146101ee578063f684220b146101c9578063fa7669c11461018a5763fc0c546a14610143575f80fd5b346101875780600319360112610187576040517f00000000000000000000000000000000000000000000000000000000000000006001600160a01b03168152602090f35b80fd5b5034610187576020366003190112610187576004358015158091036101c55760ff60481b6001549160481b169060ff60481b19161760015580f35b5080fd5b5034610187578060031936011261018757602060ff600154821c166040519015158152f35b5034610187576020366003190112610187576004356001600160a01b038116908190036101c5578160409160c09352806020522060018060a01b038154169063ffffffff600260018301549201549160405193845260018060a01b03811660208501526102646040850160ff8360a01c16610e4b565b818160a81c16606085015260c81c16608083015260a0820152f35b5034610187578060031936011261018757602060ff60015460401c166040519015158152f35b5034610187576020366003190112610187576004356001600160a01b038116908190036101c55760ff60015460481c166103d15733156103d1578082528160205260016040832001805460ff8160a01c1660048110156103bd57156103ae57815463ffffffff60c81b191660c891821c63ffffffff1660010190911b63ffffffff60c81b1617815563ffffffff815460c81c1660ff60015460181c16111561034b578280f35b600160a11b60ff60a01b198254161790557f43a90d98c063905fdd4f2cc8b6da01061d7fd4a042aafe2a9eb368edb461c2586060604051602081526011602082015270191a5cdc1d5d1957dd1a1c995cda1bdb19607a1b6040820152a25f808280f35b636483e60360e01b8452600484fd5b634e487b7160e01b85526021600452602485fd5b63417bf3f760e01b8252600482fd5b5034610187576020366003190112610187576004358015158091036101c55766ff0000000000006001549160301b169066ff00000000000019161760015580f35b5034610187576020366003190112610187576004358015158091036101c55760ff60381b6001549160381b169060ff60381b19161760015580f35b5034610187576020366003190112610187576004358015158091036101c55765ff00000000006001549160281b169065ff000000000019161760015580f35b5034610187576020366003190112610187576004358015158091036101c55764ff000000006001549160201b169064ff0000000019161760015580f35b5034610187576020366003190112610187576004358015158091036101c55760ff60401b6001549160401b169060ff60401b19161760015580f35b50346101875760603660031901126101875760043561ffff81168091036101c55760243560ff811680820361060b5760443560ff811692838203610607576001549160ff8360201c1615806105d4575b6105c5579185939162ff00007fc586d2832d1f8635100a918a951aaa03822ab8895b3dc87e94a51c7e329a689e9763ff0000006060989660181b169363ffffffff1916179160101b16171760015560405192835260208301526040820152a180f35b63064eaf8960e51b8752600487fd5b50337f00000000000000000000000000000000000000000000000000000000000000006001600160a01b03161415610563565b8580fd5b8380fd5b5034610187578060031936011261018757602060ff60015460481c166040519015158152f35b50346101875780600319360112610187576040517f00000000000000000000000000000000000000000000000000000000000000006001600160a01b03168152602090f35b5034610187578060031936011261018757602060ff60015460181c16604051908152f35b5034610187578060031936011261018757602060ff60015460381c166040519015158152f35b50346101875780600319360112610187576040517f00000000000000000000000000000000000000000000000000000000000000006001600160a01b03168152602090f35b50346101875780600319360112610187576040517f00000000000000000000000000000000000000000000000000000000000000006001600160a01b03168152602090f35b5034610187578060031936011261018757602060ff60015460281c166040519015158152f35b50346101875780600319360112610187576040517f00000000000000000000000000000000000000000000000000000000000000006001600160a01b03168152602090f35b5034610187578060031936011261018757602060ff60015460301c166040519015158152f35b50346101875780600319360112610187576040517f00000000000000000000000000000000000000000000000000000000000000006001600160a01b03168152602090f35b5034610187578060031936011261018757602060ff60015460101c16604051908152f35b5034610187578060031936011261018757602061ffff60015416604051908152f35b5034610b21576020366003190112610b21576004356001549060ff8260281c168015610bf4575b610be557604051630709df4560e01b81523360048201526020816024817f00000000000000000000000000000000000000000000000000000000000000006001600160a01b03165afa908115610b16575f91610ba3575b5060ff8360301c16610b9c575b6001600160a01b0316918215610b8d57604051630d47875d60e41b81523360048201526020816024817f00000000000000000000000000000000000000000000000000000000000000006001600160a01b03165afa908115610b16575f91610b50575b509060ff8160381c16610b48575b61ffff809116911610610b395760405161097f81610e58565b338082526020808301858152600160408086018281525f606088018181526080890182815260a08a018b815298835296829052929020965187546001600160a01b03199081166001600160a01b0392831617895594519388018054909516931692909217835590519293929091906004811015610b255781549251945163ffffffff60c81b60c89190911b1668ffffffffffffffffff60a01b1990931660ff60a01b60a09290921b919091161763ffffffff60a81b60a89590951b949094169390931717909155600290519101557f00000000000000000000000000000000000000000000000000000000000000006001600160a01b0316803b15610b21575f809160a460405180948193633ddd61ab60e21b835233600484015260606024840152600d60648401526c13595c98da185b9d1059191959609a1b60848401523360448401525af18015610b1657610b01575b506040519081527f1609ad0904581124d080230a81972911df349ec00897ff67a50b644564c8ec2260203392a380f35b610b0e9193505f90610e88565b5f915f610ad1565b6040513d5f823e3d90fd5b5f80fd5b634e487b7160e01b5f52602160045260245ffd5b63b67dcfe360e01b5f5260045ffd5b5f9150610966565b90506020813d602011610b85575b81610b6b60209383610e88565b81010312610b21575161ffff81168103610b21575f610958565b3d9150610b5e565b6312a2a7e560e31b5f5260045ffd5b505f6108f5565b90506020813d602011610bdd575b81610bbe60209383610e88565b81010312610b2157516001600160a01b0381168103610b21575f6108e8565b3d9150610bb1565b63271e56eb60e01b5f5260045ffd5b50335f525f60205260ff600160405f20015460a01c166004811015610b25571515610891565b34610b21576020366003190112610b21576004356001600160a01b03811690819003610b21575f60a0604051610c4f81610e58565b82815282602082015282604082015282606082015282608082015201525f525f60205260405f20604051610c8281610e58565b81546001600160a01b0390811682526001830154908116602083019081529060a081901c60ff1690604084016004831015610b255760c095610d168263ffffffff9586945260026060890193858760a81c1685528560808b019760c81c16875201549660a089019788526040519860018060a01b03905116895260018060a01b039051166020890152516040880190610e4b565b51166060850152511660808301525160a0820152f35b34610b21576020366003190112610b21576004356001600160a01b03811690819003610b215760ff60015460401c16610e3c573315610e3c57805f525f602052600160405f2001805460ff8160a01c166004811015610b255715610e2d57815463ffffffff60a81b191660a891821c63ffffffff1660010190911b63ffffffff60a81b1617815563ffffffff815460a81c1660ff60015460101c161115610dcf57005b600160a11b60ff60a01b198254161790557f43a90d98c063905fdd4f2cc8b6da01061d7fd4a042aafe2a9eb368edb461c258606060405160208152601060208201526f1c99599d5b9917dd1a1c995cda1bdb1960821b6040820152a2005b636483e60360e01b5f5260045ffd5b63417bf3f760e01b5f5260045ffd5b906004821015610b255752565b60c0810190811067ffffffffffffffff821117610e7457604052565b634e487b7160e01b5f52604160045260245ffd5b90601f8019910116810190811067ffffffffffffffff821117610e745760405256fea2646970667358221220193acdd0f426180123c69a69892bde7b75b0f3ccc2a83d1e528f39c99ca9d97064736f6c634300081e0033","linkReferences":{}},"methodIdentifiers":{"TEST_setForceAlreadyMerchant(bool)":"85e6bf6c","TEST_setForceLowScore(bool)":"9983dd39","TEST_setForceNoVault(bool)":"9b98c0bf","TEST_setForceZeroSenderDispute(bool)":"fa7669c1","TEST_setForceZeroSenderRefund(bool)":"72f8a804","TEST_setOnlyDAOOff(bool)":"78983da7","_test_forceAlreadyMerchant()":"44a6f149","_test_forceLowScore()":"5c8159ef","_test_forceNoVault()":"3a8838af","_test_forceZeroSenderDispute()":"6e4e374e","_test_forceZeroSenderRefund()":"e3cc5a43","_test_onlyDAOOff()":"f684220b","addMerchant(bytes32)":"0d38434f","autoSuspendDisputes()":"5faddc74","autoSuspendRefunds()":"230ebff5","dao()":"4162169f","info(address)":"0aae7a6b","ledger()":"56397c35","merchants(address)":"ee14e939","minScore()":"13c2bedc","reportDispute(address)":"be33e92e","reportRefund(address)":"073d3199","security()":"54879918","seer()":"2d55ea39","setPolicy(uint16,uint8,uint8)":"727bda9c","token()":"fc0c546a","vaultHub()":"6dd6e80b"},"id":97}