{
  "_format": "hh-sol-artifact-1",
  "contractName": "MultiSigDeveloperControl",
  "sourceName": "contracts/MultiSigDeveloperControl.sol",
  "abi": [
    {
      "inputs": [
        {
          "internalType": "address[]",
          "name": "owners_",
          "type": "address[]"
        },
        {
          "internalType": "uint256",
          "name": "threshold_",
          "type": "uint256"
        },
        {
          "internalType": "uint64",
          "name": "initialDelay",
          "type": "uint64"
        }
      ],
      "stateMutability": "nonpayable",
      "type": "constructor"
    },
    {
      "inputs": [],
      "name": "AlreadyExecuted",
      "type": "error"
    },
    {
      "inputs": [],
      "name": "AlreadyInDAOMode",
      "type": "error"
    },
    {
      "inputs": [],
      "name": "AlreadyOwner",
      "type": "error"
    },
    {
      "inputs": [],
      "name": "InvalidThreshold",
      "type": "error"
    },
    {
      "inputs": [],
      "name": "NotConfirmed",
      "type": "error"
    },
    {
      "inputs": [],
      "name": "NotDAO",
      "type": "error"
    },
    {
      "inputs": [],
      "name": "NotInDAOMode",
      "type": "error"
    },
    {
      "inputs": [],
      "name": "NotOwner",
      "type": "error"
    },
    {
      "inputs": [],
      "name": "NotWhitelistedSelector",
      "type": "error"
    },
    {
      "inputs": [],
      "name": "NotWhitelistedTarget",
      "type": "error"
    },
    {
      "inputs": [],
      "name": "OnlyDAO",
      "type": "error"
    },
    {
      "inputs": [],
      "name": "TimelockNotExpired",
      "type": "error"
    },
    {
      "inputs": [],
      "name": "TxNotFound",
      "type": "error"
    },
    {
      "inputs": [],
      "name": "ZeroAddress",
      "type": "error"
    },
    {
      "anonymous": false,
      "inputs": [
        {
          "indexed": true,
          "internalType": "uint256",
          "name": "txId",
          "type": "uint256"
        },
        {
          "indexed": true,
          "internalType": "address",
          "name": "owner",
          "type": "address"
        }
      ],
      "name": "Confirmed",
      "type": "event"
    },
    {
      "anonymous": false,
      "inputs": [
        {
          "indexed": true,
          "internalType": "address",
          "name": "daoExecutor",
          "type": "address"
        }
      ],
      "name": "DAOModeActivated",
      "type": "event"
    },
    {
      "anonymous": false,
      "inputs": [],
      "name": "DAOModeDeactivated",
      "type": "event"
    },
    {
      "anonymous": false,
      "inputs": [
        {
          "indexed": true,
          "internalType": "uint256",
          "name": "txId",
          "type": "uint256"
        },
        {
          "indexed": true,
          "internalType": "address",
          "name": "executor",
          "type": "address"
        },
        {
          "indexed": false,
          "internalType": "bytes",
          "name": "result",
          "type": "bytes"
        }
      ],
      "name": "Executed",
      "type": "event"
    },
    {
      "anonymous": false,
      "inputs": [
        {
          "indexed": false,
          "internalType": "uint64",
          "name": "minDelay",
          "type": "uint64"
        }
      ],
      "name": "MinDelayChanged",
      "type": "event"
    },
    {
      "anonymous": false,
      "inputs": [
        {
          "indexed": true,
          "internalType": "address",
          "name": "owner",
          "type": "address"
        }
      ],
      "name": "OwnerAdded",
      "type": "event"
    },
    {
      "anonymous": false,
      "inputs": [
        {
          "indexed": true,
          "internalType": "address",
          "name": "owner",
          "type": "address"
        }
      ],
      "name": "OwnerRemoved",
      "type": "event"
    },
    {
      "anonymous": false,
      "inputs": [
        {
          "indexed": true,
          "internalType": "uint256",
          "name": "txId",
          "type": "uint256"
        },
        {
          "indexed": true,
          "internalType": "address",
          "name": "owner",
          "type": "address"
        }
      ],
      "name": "Revoked",
      "type": "event"
    },
    {
      "anonymous": false,
      "inputs": [
        {
          "indexed": true,
          "internalType": "bytes4",
          "name": "selector",
          "type": "bytes4"
        },
        {
          "indexed": false,
          "internalType": "bool",
          "name": "allowed",
          "type": "bool"
        }
      ],
      "name": "SelectorAllowed",
      "type": "event"
    },
    {
      "anonymous": false,
      "inputs": [
        {
          "indexed": true,
          "internalType": "uint256",
          "name": "txId",
          "type": "uint256"
        },
        {
          "indexed": true,
          "internalType": "address",
          "name": "submitter",
          "type": "address"
        },
        {
          "indexed": true,
          "internalType": "address",
          "name": "target",
          "type": "address"
        },
        {
          "indexed": false,
          "internalType": "uint256",
          "name": "value",
          "type": "uint256"
        },
        {
          "indexed": false,
          "internalType": "bytes",
          "name": "data",
          "type": "bytes"
        },
        {
          "indexed": false,
          "internalType": "uint64",
          "name": "eta",
          "type": "uint64"
        }
      ],
      "name": "Submitted",
      "type": "event"
    },
    {
      "anonymous": false,
      "inputs": [
        {
          "indexed": true,
          "internalType": "address",
          "name": "target",
          "type": "address"
        },
        {
          "indexed": false,
          "internalType": "bool",
          "name": "allowed",
          "type": "bool"
        }
      ],
      "name": "TargetAllowed",
      "type": "event"
    },
    {
      "anonymous": false,
      "inputs": [
        {
          "indexed": false,
          "internalType": "uint256",
          "name": "threshold",
          "type": "uint256"
        }
      ],
      "name": "ThresholdChanged",
      "type": "event"
    },
    {
      "anonymous": false,
      "inputs": [
        {
          "indexed": false,
          "internalType": "bool",
          "name": "strict",
          "type": "bool"
        }
      ],
      "name": "WhitelistStrictSet",
      "type": "event"
    },
    {
      "inputs": [
        {
          "internalType": "address",
          "name": "dao_",
          "type": "address"
        }
      ],
      "name": "activateDAOMode",
      "outputs": [],
      "stateMutability": "nonpayable",
      "type": "function"
    },
    {
      "inputs": [
        {
          "internalType": "address",
          "name": "owner",
          "type": "address"
        }
      ],
      "name": "addOwner",
      "outputs": [],
      "stateMutability": "nonpayable",
      "type": "function"
    },
    {
      "inputs": [
        {
          "internalType": "bytes4",
          "name": "",
          "type": "bytes4"
        }
      ],
      "name": "allowedSelector",
      "outputs": [
        {
          "internalType": "bool",
          "name": "",
          "type": "bool"
        }
      ],
      "stateMutability": "view",
      "type": "function"
    },
    {
      "inputs": [
        {
          "internalType": "address",
          "name": "",
          "type": "address"
        }
      ],
      "name": "allowedTarget",
      "outputs": [
        {
          "internalType": "bool",
          "name": "",
          "type": "bool"
        }
      ],
      "stateMutability": "view",
      "type": "function"
    },
    {
      "inputs": [
        {
          "internalType": "uint256",
          "name": "newThreshold",
          "type": "uint256"
        }
      ],
      "name": "changeThreshold",
      "outputs": [],
      "stateMutability": "nonpayable",
      "type": "function"
    },
    {
      "inputs": [
        {
          "internalType": "uint256",
          "name": "txId",
          "type": "uint256"
        }
      ],
      "name": "confirmTx",
      "outputs": [],
      "stateMutability": "nonpayable",
      "type": "function"
    },
    {
      "inputs": [
        {
          "internalType": "uint256",
          "name": "",
          "type": "uint256"
        }
      ],
      "name": "confirmations",
      "outputs": [
        {
          "internalType": "uint256",
          "name": "",
          "type": "uint256"
        }
      ],
      "stateMutability": "view",
      "type": "function"
    },
    {
      "inputs": [
        {
          "internalType": "uint256",
          "name": "",
          "type": "uint256"
        },
        {
          "internalType": "address",
          "name": "",
          "type": "address"
        }
      ],
      "name": "confirmedBy",
      "outputs": [
        {
          "internalType": "bool",
          "name": "",
          "type": "bool"
        }
      ],
      "stateMutability": "view",
      "type": "function"
    },
    {
      "inputs": [],
      "name": "daoExecutor",
      "outputs": [
        {
          "internalType": "address",
          "name": "",
          "type": "address"
        }
      ],
      "stateMutability": "view",
      "type": "function"
    },
    {
      "inputs": [],
      "name": "daoMode",
      "outputs": [
        {
          "internalType": "bool",
          "name": "",
          "type": "bool"
        }
      ],
      "stateMutability": "view",
      "type": "function"
    },
    {
      "inputs": [],
      "name": "deactivateDAOMode",
      "outputs": [],
      "stateMutability": "nonpayable",
      "type": "function"
    },
    {
      "inputs": [
        {
          "internalType": "uint256",
          "name": "txId",
          "type": "uint256"
        }
      ],
      "name": "executeTx",
      "outputs": [
        {
          "internalType": "bytes",
          "name": "result",
          "type": "bytes"
        }
      ],
      "stateMutability": "nonpayable",
      "type": "function"
    },
    {
      "inputs": [
        {
          "internalType": "address",
          "name": "",
          "type": "address"
        }
      ],
      "name": "isOwner",
      "outputs": [
        {
          "internalType": "bool",
          "name": "",
          "type": "bool"
        }
      ],
      "stateMutability": "view",
      "type": "function"
    },
    {
      "inputs": [],
      "name": "minDelay",
      "outputs": [
        {
          "internalType": "uint64",
          "name": "",
          "type": "uint64"
        }
      ],
      "stateMutability": "view",
      "type": "function"
    },
    {
      "inputs": [
        {
          "internalType": "uint256",
          "name": "",
          "type": "uint256"
        }
      ],
      "name": "owners",
      "outputs": [
        {
          "internalType": "address",
          "name": "",
          "type": "address"
        }
      ],
      "stateMutability": "view",
      "type": "function"
    },
    {
      "inputs": [],
      "name": "ownersList",
      "outputs": [
        {
          "internalType": "address[]",
          "name": "",
          "type": "address[]"
        }
      ],
      "stateMutability": "view",
      "type": "function"
    },
    {
      "inputs": [
        {
          "internalType": "address",
          "name": "owner",
          "type": "address"
        }
      ],
      "name": "removeOwner",
      "outputs": [],
      "stateMutability": "nonpayable",
      "type": "function"
    },
    {
      "inputs": [
        {
          "internalType": "uint256",
          "name": "txId",
          "type": "uint256"
        }
      ],
      "name": "revokeConfirmation",
      "outputs": [],
      "stateMutability": "nonpayable",
      "type": "function"
    },
    {
      "inputs": [
        {
          "internalType": "bytes4",
          "name": "selector",
          "type": "bytes4"
        },
        {
          "internalType": "bool",
          "name": "allowed",
          "type": "bool"
        }
      ],
      "name": "setAllowedSelector",
      "outputs": [],
      "stateMutability": "nonpayable",
      "type": "function"
    },
    {
      "inputs": [
        {
          "internalType": "address",
          "name": "target",
          "type": "address"
        },
        {
          "internalType": "bool",
          "name": "allowed",
          "type": "bool"
        }
      ],
      "name": "setAllowedTarget",
      "outputs": [],
      "stateMutability": "nonpayable",
      "type": "function"
    },
    {
      "inputs": [
        {
          "internalType": "uint64",
          "name": "newDelay",
          "type": "uint64"
        }
      ],
      "name": "setMinDelay",
      "outputs": [],
      "stateMutability": "nonpayable",
      "type": "function"
    },
    {
      "inputs": [
        {
          "internalType": "bool",
          "name": "strict",
          "type": "bool"
        }
      ],
      "name": "setWhitelistStrict",
      "outputs": [],
      "stateMutability": "nonpayable",
      "type": "function"
    },
    {
      "inputs": [
        {
          "internalType": "address",
          "name": "target",
          "type": "address"
        },
        {
          "internalType": "uint256",
          "name": "value",
          "type": "uint256"
        },
        {
          "internalType": "bytes",
          "name": "data",
          "type": "bytes"
        }
      ],
      "name": "submitTx",
      "outputs": [
        {
          "internalType": "uint256",
          "name": "txId",
          "type": "uint256"
        }
      ],
      "stateMutability": "nonpayable",
      "type": "function"
    },
    {
      "inputs": [],
      "name": "threshold",
      "outputs": [
        {
          "internalType": "uint256",
          "name": "",
          "type": "uint256"
        }
      ],
      "stateMutability": "view",
      "type": "function"
    },
    {
      "inputs": [],
      "name": "txCount",
      "outputs": [
        {
          "internalType": "uint256",
          "name": "",
          "type": "uint256"
        }
      ],
      "stateMutability": "view",
      "type": "function"
    },
    {
      "inputs": [
        {
          "internalType": "uint256",
          "name": "",
          "type": "uint256"
        }
      ],
      "name": "txs",
      "outputs": [
        {
          "internalType": "address",
          "name": "target",
          "type": "address"
        },
        {
          "internalType": "uint256",
          "name": "value",
          "type": "uint256"
        },
        {
          "internalType": "bytes",
          "name": "data",
          "type": "bytes"
        },
        {
          "internalType": "bool",
          "name": "executed",
          "type": "bool"
        },
        {
          "internalType": "uint64",
          "name": "eta",
          "type": "uint64"
        }
      ],
      "stateMutability": "view",
      "type": "function"
    },
    {
      "inputs": [],
      "name": "whitelistStrict",
      "outputs": [
        {
          "internalType": "bool",
          "name": "",
          "type": "bool"
        }
      ],
      "stateMutability": "view",
      "type": "function"
    },
    {
      "stateMutability": "payable",
      "type": "receive"
    }
  ],
  "bytecode": "0x6080604052346103185761206e8038038061001981610353565b9283398101906060818303126103185780516001600160401b03811161031857810182601f82011215610318578051926001600160401b03841161033d578360051b9160208061006a818601610353565b80978152019382010191821161031857602001915b81831061031d5750505060208101516040909101516001600160401b03811680820361031857600160005560048054600160a81b600160f01b0319167d0100000000000151800000000000000000000000000000000000000000001790558351156102fc5760005b845181101561020557600581901b8501602001516001600160a01b0316600081156101f657818152600160205260ff6040822054166101e757818152600160205260408120600160ff19825416179055600254680100000000000000008110156101d35760018101806002558110156101bf57600282527f405787fa12a823e0f2b7631cc41b3ba8828b3321ca811111fa75cd3aa3bb5ace0180546001600160a01b0319168317905560019291907f994a936646fe87ffe4f1e469d3d6aa417d6b855598397f323de5b449f765f0c39080a2016100e7565b634e487b7160e01b82526032600452602482fd5b634e487b7160e01b82526041600452602482fd5b63600acf0760e11b8152600490fd5b63d92e233d60e01b8152600490fd5b5082801585811561030d575b506102fc576020817f6c4ce60fd690e1216286a10b875c5662555f10774484e58142cedd7a90781baa92600355604051908152a1610299575b6004805460ff60e81b1916600160e81b179055604051600181527f3842d00de15897160eeeeb98f69a5151e0364c88782695b14e816e3fc90f6dc190602090a1604051611cf590816103798239f35b60048054600160a81b600160e81b03191660a892831b600160a81b600160e81b03161790819055604051911c6001600160401b031681527f72fd90ccd949718024f6677bd133d3843458c9675385bcd1b51d517c2d0db7db90602090a18061024a565b63aabd5a0960e01b60005260046000fd5b905051811184610211565b600080fd5b82516001600160a01b03811681036103185781526020928301920161007f565b634e487b7160e01b600052604160045260246000fd5b6040519190601f01601f191682016001600160401b0381118382101761033d5760405256fe6080604052600436101561001b575b361561001957600080fd5b005b60003560e01c8063025e7c27146101cb578063173825d9146101c65780631fbd8e3f146101c157806320ea8d86146101bc5780632f54bf6e146101b75780633c540687146101b2578063406194c5146101ad57806342cde4e8146101a85780634e831d7a146101a357806354b5fe801461019e5780635f39f89214610199578063694e80c3146101945780637065cb481461018f5780637a7a03af1461018a5780637d7b165914610185578063801be0601461018057806386a2c00d1461017b5780639a64bb1614610176578063ae9dcc0214610171578063b14fceb21461016c578063b9774f7b14610167578063ba3723bb14610162578063bb84c5a91461015d578063bda90e0914610158578063c63c4e9b14610153578063ca1dd22e1461014e5763f5715d560361000e5761142e565b6111c1565b611197565b611157565b6110ec565b6110c6565b61109a565b610ffe565b610fa9565b610f1d565b610eb4565b610e71565b610d72565b610c62565b610b23565b610a4c565b610a0d565b61081d565b610768565b61074a565b610721565b610703565b6106c4565b610598565b6104b3565b61027c565b610206565b634e487b7160e01b600052603260045260246000fd5b60025481101561020157600260005260206000200190600090565b6101d0565b34610261576020366003190112610261576004356002548110156102615760026000527f405787fa12a823e0f2b7631cc41b3ba8828b3321ca811111fa75cd3aa3bb5ace01546040516001600160a01b039091168152602090f35b600080fd5b600435906001600160a01b038216820361026157565b3461026157602036600319011261026157610295610266565b60045460a081901c60ff1615610462576102bf906001600160a01b03165b6001600160a01b031690565b3303610451575b6001600160a01b03811660009081526001602052604090206102f2906102ee905b5460ff1690565b1590565b610440576001600160a01b038116600090815260016020526040902061031d905b805460ff19169055565b6002546001600160a01b039091169060005b8181106103a6575b505060035460025480911161036f575b507f58619076adf5bb0943d100ef88d52d7c3fd691b19d3a9071b555b651fbf418da600080a2005b60038190556040519081527f6c4ce60fd690e1216286a10b875c5662555f10774484e58142cedd7a90781baa90602090a138610347565b826103ca6103b3836101e6565b90546001600160a01b039260039290921b1c821690565b16146103d85760010161032f565b61040d6104076103f26103ed610431956114b1565b6101e6565b905460039190911b1c6001600160a01b031690565b916101e6565b81546001600160a01b0393841660039290921b91821b9390911b1916919091179055565b6104396114c5565b3880610337565b6330cd747160e01b60005260046000fd5b630999802f60e41b60005260046000fd5b5033600090815260016020526040902061047f906102ee906102e7565b156102c6576330cd747160e01b60005260046000fd5b60043590811515820361026157565b60243590811515820361026157565b34610261576020366003190112610261576104cc610495565b60045460ff8160a01c1660001461054d576104ef906001600160a01b03166102b3565b3303610451576105487f3842d00de15897160eeeeb98f69a5151e0364c88782695b14e816e3fc90f6dc1915b6004805460ff60e81b191682151560e81b60ff60e81b161790555b60405190151581529081906020820190565b0390a1005b5033600052600160205261056a6102ee604060002060ff90541690565b610440576105487f3842d00de15897160eeeeb98f69a5151e0364c88782695b14e816e3fc90f6dc19161051b565b346102615760203660031901126102615760043533600052600160205260ff60406000205416156104405760045460a01c60ff166106b3576007548110156106a2576105f160036105e883611297565b50015460ff1690565b610691576106276102e733610610846000526008602052604060002090565b9060018060a01b0316600052602052604060002090565b61062d57005b61064861031333610610846000526008602052604060002090565b61065c816000526009602052604060002090565b61066681546114b1565b905533907f0819476e55ffbe23df64353d5f7898429609397cc93c44300b058b51648f7878600080a3005b630dc1019760e01b60005260046000fd5b6371a2de7360e11b60005260046000fd5b63589ed1c360e11b60005260046000fd5b34610261576020366003190112610261576001600160a01b036106e5610266565b166000526001602052602060ff604060002054166040519015158152f35b34610261576000366003190112610261576020600754604051908152f35b34610261576000366003190112610261576004546040516001600160a01b039091168152602090f35b34610261576000366003190112610261576020600354604051908152f35b34610261576040366003190112610261576004356024356001600160a01b03811681036102615760009182526008602090815260408084206001600160a01b039093168452918152912060ff9054166040519015158152f35b60005b8381106107d45750506000910152565b81810151838201526020016107c4565b906020916107fd815180928185528580860191016107c1565b601f01601f1916010190565b90602061081a9281815201906107e4565b90565b34610261576020366003190112610261576004356002600054146109c85760026000556007548110156106a25761085381611297565b50906003820180546108658160ff1690565b6106915760081c6001600160401b031642106109b75782546001600160a01b031661089d600285019161089783611348565b90611a8b565b60045460a081901c60ff161561096f576108bf906001600160a01b03166102b3565b33036104515761096b93610900600093926108e28594600160ff19825416179055565b82546001906001600160a01b03169301549060405192838092611530565b03925af1906109206109106115c8565b9261091a84611b5a565b906115f8565b604051907f687656bcdc248e32bf17a5e7f71e8ad6f00fe0671f9414acaeccc0ed017f90f13392806109528682610809565b0390a361095f6001600055565b60405191829182610809565b0390f35b5061098d6102ee846000526009602052604060002054600354111590565b6109a65761096b93610900600093926108e28594610bbd565b637238834d60e11b60005260046000fd5b63621e25c360e01b60005260046000fd5b60405162461bcd60e51b815260206004820152601f60248201527f5265656e7472616e637947756172643a207265656e7472616e742063616c6c006044820152606490fd5b34610261576020366003190112610261576001600160a01b03610a2e610266565b166000526005602052602060ff604060002054166040519015158152f35b346102615760203660031901126102615760043560045460a081901c60ff1615610af057610a82906001600160a01b03166102b3565b3303610451575b80158015610ae5575b610ad45761054881610ac47f6c4ce60fd690e1216286a10b875c5662555f10774484e58142cedd7a90781baa93600355565b6040519081529081906020820190565b63aabd5a0960e01b60005260046000fd5b506002548111610a92565b50336000908152600160205260409020610b0d906102ee906102e7565b15610a89576330cd747160e01b60005260046000fd5b3461026157602036600319011261026157610b3c610266565b60045460a081901c60ff1615610c1857610b5e906001600160a01b03166102b3565b3303610451575b6001600160a01b038116908115610c07576001600160a01b0381166000908152600160205260409020610b97906102e7565b610bf6576001600160a01b0381166000908152600160205260409020610bcf9190610bca905b805460ff19166001179055565b611628565b7f994a936646fe87ffe4f1e469d3d6aa417d6b855598397f323de5b449f765f0c3600080a2005b63600acf0760e11b60005260046000fd5b63d92e233d60e01b60005260046000fd5b50336000908152600160205260409020610c35906102ee906102e7565b15610b65576330cd747160e01b60005260046000fd5b600435906001600160e01b03198216820361026157565b3461026157604036600319011261026157610c7b610c4b565b610c836104a4565b9060045460ff8160a01c16600014610d2757610ca7906001600160a01b03166102b3565b330361045157610d227f8da1afae363356de160512938ec573ae04c2ea58079487af5626bc79e65f7413915b610d0584610cf48363ffffffff60e01b166000526006602052604060002090565b9060ff801983541691151516179055565b60405193151584526001600160e01b031916929081906020820190565b0390a2005b50336000908152600160205260409020610d44906102ee906102e7565b61044057610d227f8da1afae363356de160512938ec573ae04c2ea58079487af5626bc79e65f741391610cd3565b34610261576020366003190112610261576004356001600160401b03811681036102615760045460ff8160a01c16600014610e2657610db9906001600160a01b03166102b3565b3303610451576105487f72fd90ccd949718024f6677bd133d3843458c9675385bcd1b51d517c2d0db7db915b6004805467ffffffffffffffff60a81b191660a883901b67ffffffffffffffff60a81b161790556040516001600160401b0390911681529081906020820190565b50336000526001602052610e436102ee604060002060ff90541690565b610440576105487f72fd90ccd949718024f6677bd133d3843458c9675385bcd1b51d517c2d0db7db91610de5565b346102615760203660031901126102615760043533600052600160205260ff60406000205416156104405760ff60045460a01c166106b357610019903390611c0e565b3461026157600036600319011261026157602060ff60045460e81c166040519015158152f35b602060408183019282815284518094520192019060005b818110610efe5750505090565b82516001600160a01b0316845260209384019390920191600101610ef1565b346102615760003660031901126102615760405180602060025491828152019060026000527f405787fa12a823e0f2b7631cc41b3ba8828b3321ca811111fa75cd3aa3bb5ace9060005b818110610f8a5761096b85610f7e81870382611322565b60405191829182610eda565b82546001600160a01b0316845260209093019260019283019201610f67565b34610261576000366003190112610261576004546001600160a01b03811633036104515760ff60a01b19166004557f332d90aaaa617ceb9c8901039556746e3ef90b473beb7d37a6694bd80191406c600080a1005b3461026157602036600319011261026157611017610266565b33600052600160205260ff6040600020541615610440576004549060ff8260a01c16611089576001600160a01b0316908115610c07576001600160a81b0319168117600160a01b176004557fb8d93e8473747fbf7622c34700a0073bf37ff7716f4989d2cdf0e248abb6efda600080a2005b63d771a33f60e01b60005260046000fd5b346102615760203660031901126102615760043560005260096020526020604060002054604051908152f35b3461026157600036600319011261026157602060ff60045460a01c166040519015158152f35b3461026157606036600319011261026157611105610266565b60243590604435906001600160401b0382116102615736602383011215610261578160040135906001600160401b0382116102615736602483850101116102615761096b936024610ac4940191611926565b34610261576020366003190112610261576001600160e01b0319611179610c4b565b166000526006602052602060ff604060002054166040519015158152f35b346102615760003660031901126102615760206001600160401b0360045460a81c16604051908152f35b34610261576040366003190112610261576111da610266565b6111e26104a4565b60045460a081901c60ff161561126457611204906001600160a01b03166102b3565b3303610451575b6001600160a01b038216918215610c07576001600160a01b031660009081526005602052604090207fa15b89ddfd4f8f39b42c00d0e35440aa574da8d20d9e1d886e42edf16ce9ad4c91610d2291610536908290610cf4565b50336000908152600160205260409020611281906102ee906102e7565b1561120b576330cd747160e01b60005260046000fd5b60075481101561020157600760005260206000209060021b0190600090565b80548210156102015760005260206000209060021b0190600090565b90600182811c92168015611302575b60208310146112ec57565b634e487b7160e01b600052602260045260246000fd5b91607f16916112e1565b634e487b7160e01b600052604160045260246000fd5b90601f801991011681019081106001600160401b0382111761134357604052565b61130c565b906040519182600082549261135c846112d2565b80845293600181169081156113ca5750600114611383575b5061138192500383611322565b565b90506000929192526020600020906000915b8183106113ae5750509060206113819282010138611374565b6020919350806001915483858901015201910190918492611395565b90506020925061138194915060ff191682840152151560051b82010138611374565b939594906080936001600160401b03936114209260018060a01b03168752602087015260a0604087015260a08601906107e4565b951515606085015216910152565b34610261576020366003190112610261576004356007548110156102615761145590611297565b50805460018201549061096b906001600160a01b0316600361147960028601611348565b9401549060405194859460ff6001600160401b038560081c16941692866113ec565b634e487b7160e01b600052601160045260246000fd5b6000198101919082116114c057565b61149b565b600254801561151a57600254600019820191600091831015610201576002918290527f405787fa12a823e0f2b7631cc41b3ba8828b3321ca811111fa75cd3aa3bb5acd0180546001600160a01b031916905555565b634e487b7160e01b600052603160045260246000fd5b60009291815491611540836112d2565b926001811690811561158b575060011461155957505050565b909192935060005260206000206000905b8382106115775750500190565b60018160209254848601520191019061156a565b60ff191683525050811515909102019150565b6040519061138160a083611322565b6001600160401b03811161134357601f01601f191660200190565b3d156115f3573d906115d9826115ad565b916115e76040519384611322565b82523d6000602084013e565b606090565b156116005750565b60405162461bcd60e51b8152602060048201529081906116249060248301906107e4565b0390fd5b60025490600160401b82101561134357600182016002556002548210156102015760026000527f405787fa12a823e0f2b7631cc41b3ba8828b3321ca811111fa75cd3aa3bb5ace90910180546001600160a01b0319166001600160a01b03909216919091179055565b92919261169d826115ad565b916116ab6040519384611322565b829481845281830111610261578281602093846000960137010152565b906001600160401b03809116911601906001600160401b0382116114c057565b601f82116116f557505050565b6000526020600020906020601f840160051c83019310611730575b601f0160051c01905b818110611724575050565b60008155600101611719565b9091508190611710565b600754600160401b8110156113435780600161175b920160075560076112b6565b6118d057815181546001600160a01b0319166001600160a01b0391909116178155602082015160018201556002810160408301518051906001600160401b038211611343576117b4826117ae85546112d2565b856116e8565b602090601f83116001146118565793611828936117f3846080956003956113819a9960009261184b575b50508160011b916000199060031b1c19161790565b90555b019261181a6118086060830151151590565b859060ff801983541691151516179055565b01516001600160401b031690565b68ffffffffffffffff0082549160081b169068ffffffffffffffff001916179055565b0151905038806117de565b90601f1983169161186c85600052602060002090565b9260005b8181106118b85750846003946113819998946118289894608098600195106118a0575b505050811b0190556117f6565b015160001983881b60f8161c19169055388080611893565b92936020600181928786015181550195019301611870565b634e487b7160e01b600052600060045260246000fd5b92806080916040946001600160401b0394989798875260606020880152816060880152838701376000828287010152601f80199101168401019416910152565b60045493949360a081901c60ff1615611a3a5761194b6001600160a01b0382166102b3565b330361045157611a16956119b06119a17f1a0e1883a49103b0f07f623dfdd744c9d2616575c6dbffc045abfa916b1362fc935b61199261198c36868b611691565b87611a8b565b60a81c6001600160401b031690565b6001600160401b0342166116c8565b926007549788946119ff6119c261159e565b6001600160a01b03851681528860208201526119df36878c611691565b6040820152600060608201526001600160401b038316608082015261173a565b60405193849360018060a01b0316983398856118e6565b0390a4600454611a2a9060a01c60ff161590565b611a3057565b6113813383611c0e565b336000908152600160205260409020611a56906102ee906102e7565b61044057611a16956119b06119a17f1a0e1883a49103b0f07f623dfdd744c9d2616575c6dbffc045abfa916b1362fc9361197e565b600454611a9c9060e81c60ff161590565b611b56576001600160a01b03166000908152600560205260409020611ac4906102ee906102e7565b611b45578051600411611b0f576102ee6102e76020611af893015163ffffffff60e01b166000526006602052604060002090565b611afe57565b631863f71960e21b60005260046000fd5b50600080526006602052611af86102ee7f54cdd369e4e8a8515e52ca72ec816c2101831ad1f18bf44102ed171459c9b4f86102e7565b6328efb6e360e11b60005260046000fd5b5050565b6044815110611bd6576004810151810160248101919060209082900312610261576024810151906001600160401b038211610261570181604382011215610261576024810151611ba9816115ad565b92611bb76040519485611322565b818452604483830101116102615761081a9160446020850191016107c1565b50604051611be5604082611322565b600b81526a18d85b1b0819985a5b195960aa1b602082015290565b90600182018092116114c057565b906007548210156106a25760ff6003611c2684611297565b500154166106915760ff611c4882610610856000526008602052604060002090565b541615611c53575050565b611c6e610bbd82610610856000526008602052604060002090565b611c82826000526009602052604060002090565b611c8c8154611c00565b90556001600160a01b0316907f6f220d98c15dbd07fdc24781b682ea34f92411fc61b83c761dd927afbe02d3fd600080a356fea2646970667358221220e3c063a6b8d384a7658b381d2f8b0648a533330f0207d2f3016a0a03b457a29464736f6c634300081e0033",
  "linkReferences": {},
  "deployedLinkReferences": {}
}