{"contracts/VaultInfrastructure.sol":{"UserVault":{"abi":[{"inputs":[{"internalType":"address","name":"_hub","type":"address"},{"internalType":"address","name":"_vfide","type":"address"},{"internalType":"address","name":"_owner","type":"address"},{"internalType":"address","name":"_securityHub","type":"address"},{"internalType":"address","name":"_ledger","type":"address"}],"stateMutability":"nonpayable","type":"constructor"},{"inputs":[],"name":"UV_AlreadyVoted","type":"error"},{"inputs":[],"name":"UV_Frozen","type":"error"},{"inputs":[],"name":"UV_InheritanceDenied","type":"error"},{"inputs":[],"name":"UV_Locked","type":"error"},{"inputs":[],"name":"UV_NoInheritance","type":"error"},{"inputs":[],"name":"UV_NoPendingTx","type":"error"},{"inputs":[],"name":"UV_NoRecovery","type":"error"},{"inputs":[],"name":"UV_NotGuardian","type":"error"},{"inputs":[],"name":"UV_NotNextOfKin","type":"error"},{"inputs":[],"name":"UV_NotOwner","type":"error"},{"inputs":[],"name":"UV_RecoveryActive","type":"error"},{"inputs":[],"name":"UV_TxAlreadyProcessed","type":"error"},{"inputs":[],"name":"UV_Zero","type":"error"},{"anonymous":false,"inputs":[{"indexed":false,"internalType":"bool","name":"usePercentage","type":"bool"},{"indexed":false,"internalType":"uint256","name":"fixedAmount","type":"uint256"},{"indexed":false,"internalType":"uint16","name":"percentageBps","type":"uint16"}],"name":"AbnormalThresholdSet","type":"event"},{"anonymous":false,"inputs":[{"indexed":true,"internalType":"uint256","name":"txId","type":"uint256"},{"indexed":true,"internalType":"address","name":"toVault","type":"address"},{"indexed":false,"internalType":"uint256","name":"amount","type":"uint256"}],"name":"AbnormalTransactionDetected","type":"event"},{"anonymous":false,"inputs":[{"indexed":true,"internalType":"address","name":"guardian","type":"address"},{"indexed":false,"internalType":"bool","name":"active","type":"bool"}],"name":"GuardianSet","type":"event"},{"anonymous":false,"inputs":[{"indexed":true,"internalType":"address","name":"guardian","type":"address"},{"indexed":false,"internalType":"uint8","name":"approvals","type":"uint8"}],"name":"InheritanceApproved","type":"event"},{"anonymous":false,"inputs":[{"indexed":true,"internalType":"address","name":"cancelledBy","type":"address"}],"name":"InheritanceCancelled","type":"event"},{"anonymous":false,"inputs":[{"indexed":true,"internalType":"address","name":"cancelledBy","type":"address"},{"indexed":false,"internalType":"uint8","name":"approvals","type":"uint8"}],"name":"InheritanceCancelledByGuardians","type":"event"},{"anonymous":false,"inputs":[{"indexed":true,"internalType":"address","name":"owner","type":"address"}],"name":"InheritanceDenied","type":"event"},{"anonymous":false,"inputs":[{"indexed":true,"internalType":"address","name":"inheritor","type":"address"},{"indexed":true,"internalType":"address","name":"inheritorVault","type":"address"},{"indexed":false,"internalType":"uint256","name":"amount","type":"uint256"}],"name":"InheritanceFinalized","type":"event"},{"anonymous":false,"inputs":[{"indexed":true,"internalType":"address","name":"nextOfKin","type":"address"}],"name":"InheritanceRequested","type":"event"},{"anonymous":false,"inputs":[{"indexed":true,"internalType":"address","name":"kin","type":"address"}],"name":"NextOfKinSet","type":"event"},{"anonymous":false,"inputs":[{"indexed":true,"internalType":"address","name":"newOwner","type":"address"}],"name":"OwnerSet","type":"event"},{"anonymous":false,"inputs":[{"indexed":true,"internalType":"address","name":"guardian","type":"address"},{"indexed":true,"internalType":"address","name":"proposedOwner","type":"address"},{"indexed":false,"internalType":"uint8","name":"approvals","type":"uint8"}],"name":"RecoveryApproved","type":"event"},{"anonymous":false,"inputs":[{"indexed":true,"internalType":"address","name":"cancelledBy","type":"address"}],"name":"RecoveryCancelled","type":"event"},{"anonymous":false,"inputs":[{"indexed":true,"internalType":"address","name":"newOwner","type":"address"}],"name":"RecoveryFinalized","type":"event"},{"anonymous":false,"inputs":[{"indexed":true,"internalType":"address","name":"proposedOwner","type":"address"}],"name":"RecoveryRequested","type":"event"},{"anonymous":false,"inputs":[{"indexed":true,"internalType":"uint256","name":"txId","type":"uint256"},{"indexed":true,"internalType":"address","name":"by","type":"address"}],"name":"TransactionApproved","type":"event"},{"anonymous":false,"inputs":[{"indexed":true,"internalType":"uint256","name":"txId","type":"uint256"},{"indexed":true,"internalType":"address","name":"by","type":"address"}],"name":"TransactionDenied","type":"event"},{"anonymous":false,"inputs":[{"indexed":true,"internalType":"uint256","name":"txId","type":"uint256"},{"indexed":true,"internalType":"address","name":"toVault","type":"address"},{"indexed":false,"internalType":"uint256","name":"amount","type":"uint256"}],"name":"TransactionExecuted","type":"event"},{"anonymous":false,"inputs":[{"indexed":true,"internalType":"uint256","name":"txId","type":"uint256"},{"indexed":true,"internalType":"address","name":"toVault","type":"address"},{"indexed":false,"internalType":"uint256","name":"amount","type":"uint256"}],"name":"TransferPendingApproval","type":"event"},{"anonymous":false,"inputs":[{"indexed":true,"internalType":"address","name":"spender","type":"address"},{"indexed":false,"internalType":"uint256","name":"amount","type":"uint256"}],"name":"VaultApprove","type":"event"},{"anonymous":false,"inputs":[{"indexed":false,"internalType":"bool","name":"frozen","type":"bool"}],"name":"VaultFrozen","type":"event"},{"anonymous":false,"inputs":[{"indexed":true,"internalType":"address","name":"toVault","type":"address"},{"indexed":false,"internalType":"uint256","name":"amount","type":"uint256"}],"name":"VaultTransfer","type":"event"},{"anonymous":false,"inputs":[{"indexed":false,"internalType":"uint64","name":"cooldown","type":"uint64"}],"name":"WithdrawalCooldownSet","type":"event"},{"inputs":[],"name":"GUARDIAN_MATURITY_PERIOD","outputs":[{"internalType":"uint64","name":"","type":"uint64"}],"stateMutability":"view","type":"function"},{"inputs":[],"name":"INHERITANCE_EXPIRY","outputs":[{"internalType":"uint64","name":"","type":"uint64"}],"stateMutability":"view","type":"function"},{"inputs":[],"name":"PENDING_TX_EXPIRY","outputs":[{"internalType":"uint64","name":"","type":"uint64"}],"stateMutability":"view","type":"function"},{"inputs":[],"name":"RECOVERY_EXPIRY","outputs":[{"internalType":"uint64","name":"","type":"uint64"}],"stateMutability":"view","type":"function"},{"inputs":[{"internalType":"address","name":"newOwner","type":"address"}],"name":"__forceSetOwner","outputs":[],"stateMutability":"nonpayable","type":"function"},{"inputs":[],"name":"abnormalTransactionPercentageBps","outputs":[{"internalType":"uint16","name":"","type":"uint16"}],"stateMutability":"view","type":"function"},{"inputs":[],"name":"abnormalTransactionThreshold","outputs":[{"internalType":"uint256","name":"","type":"uint256"}],"stateMutability":"view","type":"function"},{"inputs":[],"name":"approveInheritance","outputs":[],"stateMutability":"nonpayable","type":"function"},{"inputs":[{"internalType":"uint256","name":"txId","type":"uint256"}],"name":"approvePendingTransaction","outputs":[],"stateMutability":"nonpayable","type":"function"},{"inputs":[{"internalType":"address","name":"spender","type":"address"},{"internalType":"uint256","name":"amount","type":"uint256"}],"name":"approveVFIDE","outputs":[{"internalType":"bool","name":"","type":"bool"}],"stateMutability":"nonpayable","type":"function"},{"inputs":[],"name":"balanceSnapshot","outputs":[{"internalType":"uint256","name":"","type":"uint256"}],"stateMutability":"view","type":"function"},{"inputs":[],"name":"cancelRecovery","outputs":[],"stateMutability":"nonpayable","type":"function"},{"inputs":[{"internalType":"uint256","name":"txId","type":"uint256"}],"name":"cleanupExpiredTransaction","outputs":[],"stateMutability":"nonpayable","type":"function"},{"inputs":[],"name":"denyInheritance","outputs":[],"stateMutability":"nonpayable","type":"function"},{"inputs":[{"internalType":"uint256","name":"txId","type":"uint256"}],"name":"denyPendingTransaction","outputs":[],"stateMutability":"nonpayable","type":"function"},{"inputs":[{"internalType":"address","name":"target","type":"address"},{"internalType":"uint256","name":"value","type":"uint256"},{"internalType":"bytes","name":"data","type":"bytes"}],"name":"execute","outputs":[{"internalType":"bytes","name":"result","type":"bytes"}],"stateMutability":"nonpayable","type":"function"},{"inputs":[{"internalType":"address[]","name":"targets","type":"address[]"},{"internalType":"uint256[]","name":"values","type":"uint256[]"},{"internalType":"bytes[]","name":"datas","type":"bytes[]"}],"name":"executeBatch","outputs":[{"internalType":"bytes[]","name":"results","type":"bytes[]"}],"stateMutability":"nonpayable","type":"function"},{"inputs":[],"name":"executeCooldown","outputs":[{"internalType":"uint64","name":"","type":"uint64"}],"stateMutability":"view","type":"function"},{"inputs":[{"internalType":"uint256","name":"txId","type":"uint256"}],"name":"executePendingTransaction","outputs":[],"stateMutability":"nonpayable","type":"function"},{"inputs":[],"name":"finalizeInheritance","outputs":[],"stateMutability":"nonpayable","type":"function"},{"inputs":[],"name":"finalizeRecovery","outputs":[],"stateMutability":"nonpayable","type":"function"},{"inputs":[],"name":"frozen","outputs":[{"internalType":"bool","name":"","type":"bool"}],"stateMutability":"view","type":"function"},{"inputs":[],"name":"getAbnormalTransactionThreshold","outputs":[{"internalType":"uint256","name":"","type":"uint256"}],"stateMutability":"view","type":"function"},{"inputs":[],"name":"getCooldownStatus","outputs":[{"internalType":"uint64","name":"withdrawalCooldownRemaining","type":"uint64"},{"internalType":"uint64","name":"executeCooldownRemaining","type":"uint64"}],"stateMutability":"view","type":"function"},{"inputs":[],"name":"getGuardians","outputs":[{"internalType":"address[]","name":"addresses","type":"address[]"},{"internalType":"uint64[]","name":"addedTimes","type":"uint64[]"},{"internalType":"bool[]","name":"mature","type":"bool[]"}],"stateMutability":"view","type":"function"},{"inputs":[],"name":"getInheritanceStatus","outputs":[{"internalType":"bool","name":"active","type":"bool"},{"internalType":"uint8","name":"approvals","type":"uint8"},{"internalType":"uint64","name":"expiryTime","type":"uint64"},{"internalType":"bool","name":"ownerDenied","type":"bool"},{"internalType":"uint8","name":"guardianThreshold","type":"uint8"}],"stateMutability":"view","type":"function"},{"inputs":[{"internalType":"uint256","name":"offset","type":"uint256"},{"internalType":"uint256","name":"limit","type":"uint256"}],"name":"getPendingTransactions","outputs":[{"internalType":"uint256[]","name":"txIds","type":"uint256[]"},{"internalType":"address[]","name":"toVaults","type":"address[]"},{"internalType":"uint256[]","name":"amounts","type":"uint256[]"},{"internalType":"uint64[]","name":"requestTimes","type":"uint64[]"},{"internalType":"bool[]","name":"approved","type":"bool[]"},{"internalType":"bool[]","name":"executed","type":"bool[]"},{"internalType":"uint256","name":"totalPending","type":"uint256"}],"stateMutability":"view","type":"function"},{"inputs":[],"name":"getRecoveryStatus","outputs":[{"internalType":"bool","name":"active","type":"bool"},{"internalType":"address","name":"proposedOwner","type":"address"},{"internalType":"uint8","name":"approvals","type":"uint8"},{"internalType":"uint64","name":"expiryTime","type":"uint64"},{"internalType":"uint8","name":"guardianThreshold","type":"uint8"}],"stateMutability":"view","type":"function"},{"inputs":[{"internalType":"uint256","name":"txId","type":"uint256"}],"name":"getTransactionWithExpiry","outputs":[{"internalType":"address","name":"toVault","type":"address"},{"internalType":"uint256","name":"amount","type":"uint256"},{"internalType":"uint64","name":"requestTime","type":"uint64"},{"internalType":"uint64","name":"expiresAt","type":"uint64"},{"internalType":"bool","name":"isExpired","type":"bool"},{"internalType":"bool","name":"approved","type":"bool"},{"internalType":"bool","name":"executed","type":"bool"}],"stateMutability":"view","type":"function"},{"inputs":[],"name":"getVaultSummary","outputs":[{"internalType":"address","name":"vaultOwner","type":"address"},{"internalType":"uint256","name":"vfideBalance","type":"uint256"},{"internalType":"uint256","name":"ethBalance","type":"uint256"},{"internalType":"bool","name":"isFrozen","type":"bool"},{"internalType":"bool","name":"isLocked","type":"bool"},{"internalType":"uint8","name":"numGuardians","type":"uint8"},{"internalType":"address","name":"kinAddress","type":"address"},{"internalType":"bool","name":"hasActiveRecovery","type":"bool"},{"internalType":"bool","name":"hasActiveInheritance","type":"bool"}],"stateMutability":"view","type":"function"},{"inputs":[{"internalType":"address","name":"","type":"address"}],"name":"guardianAddTime","outputs":[{"internalType":"uint64","name":"","type":"uint64"}],"stateMutability":"view","type":"function"},{"inputs":[],"name":"guardianApproveRecovery","outputs":[],"stateMutability":"nonpayable","type":"function"},{"inputs":[],"name":"guardianCancelInheritance","outputs":[],"stateMutability":"nonpayable","type":"function"},{"inputs":[],"name":"guardianCount","outputs":[{"internalType":"uint8","name":"","type":"uint8"}],"stateMutability":"view","type":"function"},{"inputs":[],"name":"hub","outputs":[{"internalType":"address","name":"","type":"address"}],"stateMutability":"view","type":"function"},{"inputs":[{"internalType":"address","name":"","type":"address"}],"name":"isGuardian","outputs":[{"internalType":"bool","name":"","type":"bool"}],"stateMutability":"view","type":"function"},{"inputs":[{"internalType":"address","name":"g","type":"address"}],"name":"isGuardianMature","outputs":[{"internalType":"bool","name":"","type":"bool"}],"stateMutability":"view","type":"function"},{"inputs":[],"name":"largeTransferThreshold","outputs":[{"internalType":"uint256","name":"","type":"uint256"}],"stateMutability":"view","type":"function"},{"inputs":[],"name":"lastExecuteTime","outputs":[{"internalType":"uint64","name":"","type":"uint64"}],"stateMutability":"view","type":"function"},{"inputs":[],"name":"lastWithdrawalTime","outputs":[{"internalType":"uint64","name":"","type":"uint64"}],"stateMutability":"view","type":"function"},{"inputs":[],"name":"ledger","outputs":[{"internalType":"contract IProofLedger","name":"","type":"address"}],"stateMutability":"view","type":"function"},{"inputs":[],"name":"maxExecuteValue","outputs":[{"internalType":"uint256","name":"","type":"uint256"}],"stateMutability":"view","type":"function"},{"inputs":[],"name":"nextOfKin","outputs":[{"internalType":"address","name":"","type":"address"}],"stateMutability":"view","type":"function"},{"inputs":[],"name":"owner","outputs":[{"internalType":"address","name":"","type":"address"}],"stateMutability":"view","type":"function"},{"inputs":[{"internalType":"uint256","name":"","type":"uint256"}],"name":"pendingTransactions","outputs":[{"internalType":"address","name":"toVault","type":"address"},{"internalType":"uint256","name":"amount","type":"uint256"},{"internalType":"uint64","name":"requestTime","type":"uint64"},{"internalType":"bool","name":"approved","type":"bool"},{"internalType":"bool","name":"executed","type":"bool"}],"stateMutability":"view","type":"function"},{"inputs":[],"name":"pendingTxCount","outputs":[{"internalType":"uint256","name":"","type":"uint256"}],"stateMutability":"view","type":"function"},{"inputs":[],"name":"requestInheritance","outputs":[],"stateMutability":"nonpayable","type":"function"},{"inputs":[{"internalType":"address","name":"proposedOwner","type":"address"}],"name":"requestRecovery","outputs":[],"stateMutability":"nonpayable","type":"function"},{"inputs":[{"internalType":"address payable","name":"recipient","type":"address"}],"name":"rescueETH","outputs":[],"stateMutability":"nonpayable","type":"function"},{"inputs":[{"internalType":"address","name":"token","type":"address"},{"internalType":"address","name":"recipient","type":"address"},{"internalType":"uint256","name":"amount","type":"uint256"}],"name":"rescueToken","outputs":[],"stateMutability":"nonpayable","type":"function"},{"inputs":[],"name":"securityHub","outputs":[{"internalType":"contract ISecurityHub","name":"","type":"address"}],"stateMutability":"view","type":"function"},{"inputs":[{"internalType":"bool","name":"_usePercentage","type":"bool"},{"internalType":"uint256","name":"_fixedAmount","type":"uint256"},{"internalType":"uint16","name":"_percentageBps","type":"uint16"}],"name":"setAbnormalTransactionThreshold","outputs":[],"stateMutability":"nonpayable","type":"function"},{"inputs":[{"internalType":"bool","name":"_useSnapshot","type":"bool"}],"name":"setBalanceSnapshotMode","outputs":[],"stateMutability":"nonpayable","type":"function"},{"inputs":[{"internalType":"bool","name":"_frozen","type":"bool"}],"name":"setFrozen","outputs":[],"stateMutability":"nonpayable","type":"function"},{"inputs":[{"internalType":"address","name":"g","type":"address"},{"internalType":"bool","name":"active","type":"bool"}],"name":"setGuardian","outputs":[],"stateMutability":"nonpayable","type":"function"},{"inputs":[{"internalType":"uint256","name":"threshold","type":"uint256"}],"name":"setLargeTransferThreshold","outputs":[],"stateMutability":"nonpayable","type":"function"},{"inputs":[{"internalType":"address","name":"kin","type":"address"}],"name":"setNextOfKin","outputs":[],"stateMutability":"nonpayable","type":"function"},{"inputs":[{"internalType":"uint64","name":"cooldown","type":"uint64"}],"name":"setWithdrawalCooldown","outputs":[],"stateMutability":"nonpayable","type":"function"},{"inputs":[{"internalType":"address","name":"toVault","type":"address"},{"internalType":"uint256","name":"amount","type":"uint256"}],"name":"transferVFIDE","outputs":[{"internalType":"bool","name":"","type":"bool"}],"stateMutability":"nonpayable","type":"function"},{"inputs":[],"name":"updateBalanceSnapshot","outputs":[],"stateMutability":"nonpayable","type":"function"},{"inputs":[],"name":"useBalanceSnapshot","outputs":[{"internalType":"bool","name":"","type":"bool"}],"stateMutability":"view","type":"function"},{"inputs":[],"name":"usePercentageThreshold","outputs":[{"internalType":"bool","name":"","type":"bool"}],"stateMutability":"view","type":"function"},{"inputs":[],"name":"vfideToken","outputs":[{"internalType":"address","name":"","type":"address"}],"stateMutability":"view","type":"function"},{"inputs":[],"name":"withdrawalCooldown","outputs":[{"internalType":"uint64","name":"","type":"uint64"}],"stateMutability":"view","type":"function"},{"stateMutability":"payable","type":"receive"}],"evm":{"bytecode":{"linkReferences":{},"object":"610100806040523461033257600060a08261551780380380916100228285610337565b83398101031261032f5761003582610370565b61004160208401610370565b61004d60408501610370565b90610066608061005f60608801610370565b9601610370565b60018555600680546001600160401b0319166201518017905569021e19e0c9bab240000060075560088054600160401b600160801b031916690e100000000000000000179055670de0b6b3a7640000600955690a968163f0a57b400000600b55600c805461ffff1916611388179055926001600160a01b03811615158061031d575b8061030b575b156102dc5760805260a052600180546001600160a01b0319166001600160a01b0392831690811790915593811660c0521660e052604080519081016001600160401b038111828210176102c857604052600d81526c1d985d5b1d17d8dc99585d1959609a1b602082015260e0516001600160a01b031680610232575b604051847f50146d0e3c60aa1d17a70635b05494f864e86144a2201275021014fbf08bafe28580a26151929081610385823960805181818161131801528181611a380152612783015260a051818181610480015281816111fe01528181611a9701528181611c62015281816127000152818161293501528181612b4c01528181612cca01528181613252015261475c015260c051818181612b0701528181612d130152614c22015260e0518181816117e001528181614cc401528181614d8301526150490152f35b803b156102c457908290604051928391633ddd61ab60e21b835230600484015260606024840152805190816064850152845b8281106102a957505083608484838383839684010152336044830152601f801991011681010301925af1610299575b8061016a565b816102a391610337565b38610293565b60208183018101516084898401015288965087955001610264565b8280fd5b634e487b7160e01b83526041600452602483fd5b60405162461bcd60e51b815260206004820152600760248201526655563a7a65726f60c81b6044820152606490fd5b506001600160a01b03831615156100ee565b506001600160a01b03821615156100e8565b80fd5b600080fd5b601f909101601f19168101906001600160401b0382119082101761035a57604052565b634e487b7160e01b600052604160045260246000fd5b51906001600160a01b03821682036103325756fe6080604052600436101561001b575b361561001957600080fd5b005b60003560e01c8063020378221461041657806304824e7014610411578063054f7d9c1461040c57806306603f8d146104075780630665f04b14610402578063092cc1fb146103fd5780630b6946da146103f85780630ba234d6146103f35780630c68ba21146103ee5780630fbd22b0146103e9578063118f117f146103e4578063124f8d9c146103df5780631bed8c6e146103da5780631f180de8146103d5578063269b54b1146103d05780632b8a1c5a146103cb57806331d559f8146103c657806334a014dc146103c1578063365a86fc146103bc57806342e01e73146103b757806347e1da2a146103b25780634ddb926a146103ad5780635132124c146103a8578063518d0959146103a3578063536b801d1461039e57806354387ad71461039957806356397c35146103945780635f8983fd1461038f57806363a8374d1461038a57806363f95a3b14610385578063688aa6ce146103805780636a1509811461037b5780636b1994ea146103765780636b6fe5e9146103715780636d68e53b1461036c578063700c5e7d1461035857806372890ca2146103675780637e932d3214610362578063835316c71461035d5780638b2bc3e7146103585780638da5cb5b146103535780638e48d0821461034e5780638f252d34146103495780639362698c1461034457806393bcd8581461033f5780639a0dd1401461033a578063b50ef71b14610335578063b5354ce514610330578063b61d27f61461032b578063b72d294314610326578063b8a71eec14610321578063ba58db511461031c578063c55e4a0e14610317578063c60cd99c14610312578063cd1492d41461030d578063d25a918914610308578063d6c89c6014610303578063e2158ee7146102fe578063e24ba265146102f9578063e2ccb305146102f4578063e5711e8b146102ef578063e6536fc5146102ea578063f9773f92146102e55763fd4fa9810361000e57613399565b6132f2565b6132d4565b6131e4565b6130d3565b6130a6565b613084565b61305b565b612eee565b612ecb565b612e4f565b612c8b565b612b7b565b612b36565b612af1565b612a76565b612a47565b612882565b612864565b612839565b612764565b612694565b612593565b61256a565b6120c8565b6124ae565b6123e0565b612191565b6120aa565b611fd5565b611f23565b611bf7565b611963565b611937565b6118ca565b61180f565b6117ca565b6117a9565b611700565b611637565b611619565b6114f1565b611464565b611347565b611302565b6112d5565b611197565b610f96565b610f66565b610e04565b610c16565b610b92565b610b69565b610b43565b610b01565b6109a7565b610850565b610832565b610756565b610637565b610601565b610531565b61042b565b600091031261042657565b600080fd5b3461042657600036600319011261042657610444614bfb565b61044c614c20565b600c5461045e9060101c60ff166133b7565b6040516370a0823160e01b81526020818061047c3060048301610624565b03817f00000000000000000000000000000000000000000000000000000000000000006001600160a01b03165afa801561050f576104c2916000916104e0575b50600d55565b610019600d546104d061349d565b906104d9613488565b9133614d80565b610502915060203d602011610508575b6104fa8183613419565b810190613441565b386104bc565b503d6104f0565b613450565b6001600160a01b031690565b6001600160a01b0381160361042657565b346104265760203660031901126104265760043561054e81610520565b610556614bfb565b61055e614c20565b610566614e3b565b61056e614e58565b6001600160a01b031680156105c7576105bd904761058d8115156134d3565b6105a7600080808085875af16105a1613516565b50613546565b6105af61358c565b6105b7613488565b92614d80565b6100196001600055565b60405162461bcd60e51b815260206004820152601260248201527115558e881e995c9bc81c9958da5c1a595b9d60721b6044820152606490fd5b3461042657600036600319011261042657602060ff600a54166040519015158152f35b6001600160a01b03909116815260200190565b34610426576000366003190112610426576005546040516001600160a01b039091168152602090f35b906020808351928381520192019060005b81811061067e5750505090565b82516001600160a01b0316845260209384019390920191600101610671565b6001600160401b031690565b906020808351928381520192019060005b8181106106c75750505090565b82516001600160401b03168452602093840193909201916001016106ba565b906020808351928381520192019060005b8181106107045750505090565b825115158452602093840193909201916001016106f7565b91610745906107376107539593606086526060860190610660565b9084820360208601526106a9565b9160408184039101526106e6565b90565b3461042657600036600319011261042657600454610773816135cc565b9061077d816135cc565b91610787826135cc565b9060005b8381101561081c57600460005260008051602061511d8339815191528101546001919061081690610805906001600160a01b0316806107ca8588613634565b526108006107e76107da83610a7f565b546001600160401b031690565b6107f1868c613634565b6001600160401b039091169052565b613f85565b61080f8387613634565b9015159052565b0161078b565b5061082e84926040519384938461071c565b0390f35b34610426576000366003190112610426576020600b54604051908152f35b3461042657600036600319011261042657610869614c20565b610874600554610514565b61087d81610514565b3303610996576001600160a01b031615610985576108c46108bf6108ad6013546108b66108b16108ad8360ff1690565b1590565b613648565b60501c60ff1690565b613694565b6108d76108d26014546136f5565b601455565b6108e9600160ff196013541617601355565b6108f960135461ff001916601355565b61093661090d61090842613709565b61069d565b6013805462010000600160501b03191660109290921b62010000600160501b0316919091179055565b6013805460ff60501b1916905561095d61094e61373b565b610956613488565b9033614cc2565b337f45169f9a6369d811de455bb5ecdc25c684355abe2deaf2f8d9b81618754ba3b4600080a2005b630fd9d18960e41b60005260046000fd5b631a4f16b960e21b60005260046000fd5b34610426576000366003190112610426576109c0614bfb565b6109c8614c20565b6010546001600160a01b0381168015610a6e576001600160a01b0319909116601055610a46906109f6613790565b6109fe61379f565b6010805460ff60e81b19169055604051610a19604082613419565b60128152711c9958dbdd995c9e57d8d85b98d95b1b195960721b6020820152610a40613488565b91614cc2565b337f8154b6c5e1fc90d44b49808ef93f9739148d0821411890f8cd684385e24b9f1e600080a2005b638d0fa13360e01b60005260046000fd5b6001600160a01b0316600090815260166020526040902090565b6001600160a01b0316600090815260026020526040902090565b6001600160a01b0316600090815260176020526040902090565b6001600160a01b0316600090815260126020526040902090565b6001600160a01b0316600090815260156020526040902090565b3461042657602036600319011261042657600435610b1e81610520565b60018060a01b03166000526002602052602060ff604060002054166040519015158152f35b3461042657600036600319011261042657602060ff600a5460081c166040519015158152f35b34610426576000366003190112610426576008546040516001600160401b039091168152602090f35b34610426576000366003190112610426576010546001600160a01b03811690600260e882901c60ff1610610c0e576002915b6040805182151581526001600160a01b03909216602083015260a083811c60ff9081169284019290925260a89390931c6001600160401b0316606083015292909216608083015290f35b600191610bc4565b3461042657600036600319011261042657610c2f614c20565b610c456108ad610c3e33610a99565b5460ff1690565b610df357610c586108ad60135460ff1690565b610de257610c6533610ab3565b610c75610c3e60195480936118bb565b610dd157610c8e610c9b91610c8933610ab3565b6118bb565b805460ff19166001179055565b610cc2610cb2610cad60185460ff1690565b6137b4565b60ff1660ff196018541617601855565b60135460081c60ff1615610dbc57600260ff610ce060035460ff1690565b1610610db35760ff60025b1660ff610cfa60185460ff1690565b16818110610da65750610d1260ff1960135416601355565b610d2260135461ff001916601355565b610d2a613727565b6013805460ff60501b19169055610d4a610d456019546136f5565b601955565b610d5960ff1960185416601855565b610d6d610d646137fa565b826104d9613488565b60405160ff909116815233907f82a4e870a30fcdcdb7097dff3667437d1d8574e2766560bb07e1f1fb4a5b15189080602081015b0390a2005b61001991506104d06137c5565b60ff6001610ceb565b600260ff610dcc60035460ff1690565b610ce0565b63017a521b60e51b60005260046000fd5b6324dcf66760e21b60005260046000fd5b633321153560e21b60005260046000fd5b3461042657600036600319011261042657610e1d614c20565b610e2c6108ad610c3e33610a99565b610df357610e41610e3c33613f85565b613840565b6010546001600160a01b03610e5582610514565b1615610a6e57610e7c90610e749060a81c6001600160401b031661069d565b421115613886565b610e8533610acd565b610e95610c3e60115480936118bb565b610dd157610c8e610ea991610c8933610acd565b610ee3610ec4610ebf60105460ff9060a01c1690565b6138c9565b6010805460ff60a01b191660a09290921b60ff60a01b16919091179055565b601054610f0b9060a01c60ff16610ef86138db565b60ff610f02613488565b92169033614d80565b601054610f24610f1a82610514565b9160a01c60ff1690565b60405160ff9190911681526001600160a01b03919091169033907f93a8f3acc471767423e482b998d4f8d2dd61068cf066749b4d296f36bb64ad0090602090a3005b3461042657600036600319011261042657602060ff600c5460101c166040519015158152f35b8015150361042657565b3461042657604036600319011261042657600435610fb381610520565b60243590610fc082610f8c565b610fc8614bfb565b610fd0614c20565b6001600160a01b03811691821561098557610ff4610fef601054610514565b610514565b61118657611004610c3e83610a99565b8115159015150361101157005b61102f8161101e84610a99565b9060ff801983541691151516179055565b80156110cf576100199261105b61104b610cad60035460ff1690565b60ff1660ff196003541617600355565b611076426001600160401b031661107185610a7f565b6139e6565b61107f83613a05565b60405182151581527fc4459d655e1efe034a75446f1f4db087f75d23bdfabccffafa6384cdb23a154490602090a2156110c2576110ba613a73565b610a40613488565b6110ca613a46565b6110ba565b6110e661104b6110e160035460ff1690565b61390a565b6111026110f283610a7f565b80546001600160401b0319169055565b60005b6004548082101561117b5784611135610fef61112085613614565b905460039190911b1c6001600160a01b031690565b146111435750600101611105565b610019949161116861116261112061115d61116e9561391a565b613614565b91613614565b90613936565b611176613959565b61107f565b50506100199261107f565b631b11469b60e11b60005260046000fd5b34610426576040366003190112610426576004356111b481610520565b602435906111c0614bfb565b6111c8614c20565b6001600160a01b03811680156109855760405163095ea7b360e01b815292602084806111f8848760048401613ab2565b038160007f00000000000000000000000000000000000000000000000000000000000000006001600160a01b03165af192831561050f5761082e9460009461128a575b506000805160206150dd833981519152916112656112759261125c87613acd565b826105af613b0d565b6040519081529081906020820190565b0390a260405190151581529081906020820190565b611275919450916112656112c46000805160206150dd8339815191529460203d6020116112ce575b6112bc8183613419565b810190613a9d565b959250509161123b565b503d6112b2565b346104265760003660031901126104265760055460405160a09190911c6001600160401b03168152602090f35b34610426576000366003190112610426576040517f00000000000000000000000000000000000000000000000000000000000000006001600160a01b03168152602090f35b346104265760203660031901126104265760043561136481610520565b60018060a01b03166000526016602052602060018060401b0360406000205416604051908152f35b9181601f84011215610426578235916001600160401b038311610426576020808501948460051b01011161042657565b60005b8381106113cf5750506000910152565b81810151838201526020016113bf565b906020916113f8815180928185528580860191016113bc565b601f01601f1916010190565b602081016020825282518091526040820191602060408360051b8301019401926000915b83831061143757505050505090565b9091929394602080611455600193603f1986820301875289516113df565b97019301930191939290611428565b34610426576060366003190112610426576004356001600160401b0381116104265761149490369060040161138c565b6024356001600160401b038111610426576114b390369060040161138c565b909260443592916001600160401b0384116104265761082e946114dd6114e595369060040161138c565b949093613b38565b60405191829182611404565b346104265760003660031901126104265760008061151060065461069d565b6001600160401b038116151580611603575b6115c8575b50600854604081901c6001600160401b03166115428161069d565b1515806115b4575b61156e575b5050604080516001600160401b03928316815292909116602083015290f35b61157a61157f9261069d565b613d3a565b6001600160401b0381164210611596575b8061154f565b9091506115ad90426001600160401b031690613f0d565b9038611590565b506115c16109088361069d565b151561154a565b6115d79061157a600554613efe565b6001600160401b038116421015611527576115fd9150426001600160401b031690613f0d565b38611527565b50611612610908600554613efe565b1515611522565b34610426576000366003190112610426576020600d54604051908152f35b3461042657602036600319011261042657600435611653614bfb565b80600052600e60205260406000206001810154156116ef57600201546001600160401b0390611683908216613d20565b164211156116b557806116ad61169b610019936118ab565b60026000918281558260018201550155565b6104d0613f26565b60405162461bcd60e51b815260206004820152601260248201527115558e881d1e081b9bdd08195e1c1a5c995960721b6044820152606490fd5b634c8d442960e01b60005260046000fd5b3461042657600036600319011261042657611719614bfb565b611721614c20565b60135460ff811615610de25761ffff60ff60501b011916600160501b17601355611749613727565b61178160405161175a604082613419565b60128152711a5b9a195c9a5d185b98d957d9195b9a595960721b6020820152610956613488565b337fec32f6be1cfe5f271330570749895d0cdcb3324846ee37b8a6ac973b4a27cf57600080a2005b3461042657600036600319011261042657602060ff60035416604051908152f35b34610426576000366003190112610426576040517f00000000000000000000000000000000000000000000000000000000000000006001600160a01b03168152602090f35b346104265760203660031901126104265760043561182b614bfb565b80600052600e60205260406000206001810154156116ef576002019081549160ff8360481c1661189a5760ff60481b19909216600160481b179091556100199033817f12cd094e454538586035071c64eb69c206d65137212e7d5e9d32d73854043570600080a36104d0613f56565b63446d277b60e11b60005260046000fd5b600052600e602052604060002090565b90600052602052604060002090565b3461042657602036600319011261042657600435600052600e60205260a0604060002060ff600180841b03825416916002600182015491015490604051938452602084015260018060401b0381166040840152818160401c161515606084015260481c1615156080820152f35b3461042657602036600319011261042657602061195960043561080081610520565b6040519015158152f35b346104265760003660031901126104265761197c614c20565b611984614e58565b60135460ff811615610de257605081901c60ff16611be6576119f3906119c16119b9601083901c6001600160401b031661069d565b421115613fe0565b600260ff6119d160035460ff1690565b1610611bd95760ff6119eb8160025b169260081c60ff1690565b161015614026565b611a34611a01600554610514565b6001600160a01b03811690602090611a1a83151561406f565b60405180948192630709df4560e01b835260048301610624565b03817f00000000000000000000000000000000000000000000000000000000000000006001600160a01b03165afa91821561050f57600092611ba8575b506001600160a01b03821691611a888315156140c5565b6040516370a0823160e01b81527f00000000000000000000000000000000000000000000000000000000000000006001600160a01b031660208280611ad03060048301610624565b0381845afa801561050f577fcc9c89312a2ac19bfbb488a107aa51e50162fc6a2ad5dad80dbba85e2a9a936893611b7093600092611b7d575b50611b2482828195611b1f611265961515614120565b614e9b565b611b3360ff1960135416601355565b611b4360135461ff001916601355565b611b4b613727565b6013805460ff60501b19169055611b6760ff1960185416601855565b826105af614166565b0390a36100196001600055565b61126592508193611b9f611b249260203d602011610508576104fa8183613419565b93509350611b09565b611bcb91925060203d602011611bd2575b611bc38183613419565b8101906140b0565b9038611a71565b503d611bb9565b60ff6119eb8160016119e0565b63781b949d60e11b60005260046000fd5b3461042657604036600319011261042657600435611c1481610520565b602435611c1f614bfb565b611c27614c20565b611c2f614e3b565b611c37614e58565b6001600160a01b03821691821561098557611c53821515614199565b6040516370a0823160e01b81527f00000000000000000000000000000000000000000000000000000000000000006001600160a01b03169060208180611c9c3060048301610624565b0381855afa90811561050f57611cbe918591600091611f04575b5010156141d7565b611cc66146f0565b8015159081611ef9575b50611dbe579161126582611d2c83611d47956000805160206150fd83398151915297611cfd60065461069d565b6001600160401b038116151580611da8575b611d85575b506007548084119081611d7b575b50611d6057614e9b565b611d3e426001600160401b0316614359565b826105af614384565b0390a2611d546001600055565b60405160018152602090f35b611b1f611d6b614325565b84611d74613488565b9185614d80565b9050151538611d22565b611d9a610908611da29261157a600554613efe565b4210156142e4565b38611d14565b50611db7610908600554613efe565b1515611d0f565b611ef5611ecf611edd611ea287611e9d8789600f5493611de5611de0866136f5565b600f55565b611e2e611df061345c565b6001600160a01b038516815260208101849052426001600160401b031660408201526000606082015260006080820152611e29876118ab565b61421e565b80857f72c131e4f3fead122420dfa8d1a10e700e5e3badef6ea9b934ce82124515d1ce60405180611e6487829190602083019252565b0390a360405182815285907f01f061fd4833af7536ad6a70ec12a9dc6288023456766753aae7ff9197ecfc1090602090a36105af61429b565b614f93565b604051732aab1d3832b73234b73396b0b8383937bb30b61d60611b602082015292839160348301906142cd565b03601f198101835282613419565b60405162461bcd60e51b815291829160048301612a65565b0390fd5b905083101538611cd0565b611f1d915060203d602011610508576104fa8183613419565b38611cb6565b34610426576020366003190112610426576004356000908152600e60205260409020805460018201546002909201546001600160a01b03909116916001600160401b0382169161082e91611f7684613d20565b604080516001600160a01b0397909716875260208701929092526001600160401b0394851686830152909316606085018190524211608085015260ff9281901c8316151560a085015260481c909116151560c0830152819060e0820190565b3461042657602036600319011261042657600435611ff1614bfb565b611ff9614c20565b68056bc75e2d63100000811061206d5769d3c21bcecceda1000000811161202f578061202761001992600755565b6104d06143b0565b60405162461bcd60e51b81526020600482015260166024820152750aaac7440e8d0e4cae6d0ded8c840e8dede40d0d2ced60531b6044820152606490fd5b60405162461bcd60e51b815260206004820152601560248201527455563a207468726573686f6c6420746f6f206c6f7760581b6044820152606490fd5b34610426576000366003190112610426576020600f54604051908152f35b3461042657600036600319011261042657602060405162278d008152f35b906020808351928381520192019060005b8181106121045750505090565b82518452602093840193909201916001016120f7565b9796959261218c94612162612170926121548c61217e9761214660c09c9860e0845260e08401906120e6565b916020818403910152610660565b8c810360408e0152906120e6565b908a820360608c01526106a9565b9088820360808a01526106e6565b9086820360a08801526106e6565b930152565b346104265760403660031901126104265760243560043581156123d7575b606482116123ce575b600f54906000805b83811061237657508181111561236e576121da8282613929565b935b808511612366575b506121ee846135cc565b6121f7856135cc565b94612201816135cc565b9161220b826135cc565b612214836135cc565b9061221e846135cc565b9160009660009560005b8b81108061235d575b156123475761223f816118ab565b60018101548e8d8215158061232e575b612266575b50505050612261906136f5565b612228565b90848d928f969f101561228f575b5050505050612285612261916136f5565b9990388e8d612254565b60026122859561232495612261989f958f6122e3916122de61231f98612315986122ba8c8096613634565b526122cf846122c98954610514565b92613634565b6001600160a01b039091169052565b613634565b5201546122f78b6107f1866122c98561069d565b61230c604082901c60ff1661080f868d613634565b60481c60ff1690565b61080f838c613634565b6136f5565b98918a8f8d612274565b5060028401546123429060481c60ff161590565b61224f565b8c8761082e8589888a8f6040519788978861211a565b50818810612231565b9350386121e4565b6000936121dc565b6001612381826118ab565b01541515806123ac575b612398575b6001016121c0565b906123a46001916136f5565b919050612390565b506123c96108ad60026123be846118ab565b015460481c60ff1690565b61238b565b606491506121b8565b603291506121af565b34610426576020366003190112610426576004356123fd81610f8c565b612405614bfb565b7f18a225f450380fd39da2a8986c15805afce4eb7f6efbdfe1d0bb9df17c8e7923602082151560ff19600a541660ff821617600a55604051908152a16000901561247c575061001960405161245b604082613419565b600c81526b3b30bab63a2fb33937bd32b760a11b6020820152610956613488565b5061001960405161248e604082613419565b600e81526d3b30bab63a2fbab7333937bd32b760911b602082015261094e565b34610426576020366003190112610426576004356124cb81610520565b6124d3614bfb565b6124db614c20565b6001600160a01b03811690811561098557600580546001600160a01b031916831790556040805161254392916125118183613419565b600f82526e1b995e1d17dbd997dada5b97dcd95d608a1b6020830152519161253a602084613419565b60008352614cc2565b7f5e5418a3c3d9e12cae95b949efcf26cfdffb4dbc73cd1d2532a97f656e634bf5600080a2005b34610426576000366003190112610426576001546040516001600160a01b039091168152602090f35b34610426576020366003190112610426576004356001600160401b038116808203610426576125c0614bfb565b6125c8614c20565b62093a808111612658577f8cda612ae0c82a8cb2d30ebddc4e01a65f44d092f2d1537454f126f009974f1661264561001993610e108410801590612650575b612610906143db565b600680546001600160401b0319166001600160401b0383161790556040516001600160401b0390911681529081906020820190565b0390a16104d061441f565b508315612607565b60405162461bcd60e51b815260206004820152601460248201527355563a636f6f6c646f776e2d746f6f2d6c6f6e6760601b6044820152606490fd5b34610426576020366003190112610426576004356126b181610f8c565b6126b9614bfb565b6126c1614c20565b600c805462ff0000191682151560101b62ff0000161790551561274f576040516370a0823160e01b8152602081806126fc3060048301610624565b03817f00000000000000000000000000000000000000000000000000000000000000006001600160a01b03165afa801561050f57612741916000916104e05750600d55565b610019600d546104d0614480565b6127596000600d55565b61001961094e614449565b346104265760203660031901126104265760043561278181610520565b7f00000000000000000000000000000000000000000000000000000000000000006001600160a01b0316330361280757600180546001600160a01b0319166001600160a01b039290921691821790556127e06127db6144b6565b615047565b7f50146d0e3c60aa1d17a70635b05494f864e86144a2201275021014fbf08bafe2600080a2005b60405162461bcd60e51b815260206004820152600a6024820152692aab1d37b7363ca43ab160b11b6044820152606490fd5b34610426576000366003190112610426576008546040805191901c6001600160401b03168152602090f35b34610426576000366003190112610426576020600954604051908152f35b346104265760203660031901126104265760043561289e614bfb565b6128a6614c20565b6128ae614e3b565b6128b6614e58565b6128bf816118ab565b9060018201908154156116ef5760028301805490604882901c60ff1661189a5761291261290a610908612905856109086129006129259860ff9060401c1690565b6144e5565b613d20565b421115614527565b805460ff60481b1916600160481b179055565b6040516370a0823160e01b8152927f00000000000000000000000000000000000000000000000000000000000000006001600160a01b0316906020858061296f3060048301610624565b0381855afa94851561050f576105bd956129c6936129ae92600092612a26575b5061299e8754809310156141d7565b6129a88454610514565b90614e9b565b6129c0426001600160401b0316614359565b54610514565b915460405181815290916001600160a01b038416918291907fda19024f6708ce28e75d9c0ec389fb05a8e5cc9dfe520f61239c10d51a11e59c90602090a36040518281526000805160206150fd83398151915290602090a26105af61456c565b612a4091925060203d602011610508576104fa8183613419565b903861298f565b34610426576000366003190112610426576020600754604051908152f35b9060206107539281815201906113df565b3461042657606036600319011261042657600435612a9381610520565b60243590604435906001600160401b0382116104265736602383011215610426576004820135906001600160401b0382116104265736602483850101116104265761082e936024612ae594019161459d565b60405191829182612a65565b34610426576000366003190112610426576040517f00000000000000000000000000000000000000000000000000000000000000006001600160a01b03168152602090f35b34610426576000366003190112610426576040517f00000000000000000000000000000000000000000000000000000000000000006001600160a01b03168152602090f35b3461042657600036600319011261042657612b94614c20565b612ba36108ad610c3e33610a99565b610df35760135460ff811615610de257605081901c60ff16611be657612bc833610ae7565b90612bd9610c3e60145480946118bb565b610dd157612c0791610c8e91612bfe906119b99060101c6001600160401b031661069d565b610c8933610ae7565b612c35612c1d610cad60135460ff9060081c1690565b60135461ff00191660089190911b61ff001617601355565b601354612c4a9060081c60ff16610ef86146a4565b60135460081c60ff1660405160ff909116815233907f0ea7dfe497d90adcfba43ccd872c922d16653039b5d89b207ba8554c2cff14cd908060208101610da1565b3461042657600036600319011261042657612ca7600154610514565b6040516370a0823160e01b81529060208280612cc63060048301610624565b03817f00000000000000000000000000000000000000000000000000000000000000006001600160a01b03165afa91821561050f57600092612e2e575b5047612d11600a5460ff1690565b7f00000000000000000000000000000000000000000000000000000000000000006001600160a01b0316919082151580612dd2575b60035461082e945060ff16612d5c600554610514565b91612d6b610fef601054610514565b151593612d7a60135460ff1690565b604080516001600160a01b039a8b168152602081019b909b528a0196909652151560608901521515608088015260ff1660a087015290931660c085015291151560e08401529015156101008301528190610120820190565b5060206040518094631293efbb60e21b82528180612df33060048301610624565b03915afa801561050f5761082e93600091612e0f575b50612d46565b612e28915060203d6020116112ce576112bc8183613419565b38612e09565b612e4891925060203d602011610508576104fa8183613419565b9038612d03565b3461042657600036600319011261042657601354600260ff600354161015600014612ec3576002905b6040805160ff83811615158252600884901c811660208301526001600160401b03601085901c169282019290925260509290921c81161515606083015291909116608082015260a090f35b600190612e78565b34610426576000366003190112610426576020612ee66146f0565b604051908152f35b3461042657606036600319011261042657600435612f0b81610f8c565b602435906044359161ffff83169182840361042657612f28614bfb565b612f30614c20565b8015612fd95760008051602061513d833981519152612fb46100199585151580612fcd575b612f5e906147dc565b612f748161ffff1661ffff19600c541617600c55565b612f9084600a5461ff00191690151560081b61ff001617600a55565b6040805185151581526020810187905261ffff909216908201529081906060820190565b0390a115612fc657505b6104d0614834565b9050612fbe565b50612710861115612f55565b60075482106130065760008051602061513d833981519152612fb46100199561300185600b55565b612f74565b60405162461bcd60e51b815260206004820152602760248201527f55563a206d757374206265203e3d206c61726765207472616e736665722074686044820152661c995cda1bdb1960ca1b6064820152608490fd5b34610426576000366003190112610426576006546040516001600160401b039091168152602090f35b3461042657600036600319011261042657602061ffff600c5416604051908152f35b34610426576020366003190112610426576100196004356130c681610520565b6130ce614c20565b614900565b34610426576000366003190112610426576130ec614c20565b6010546130f881610514565b6001600160a01b03811691908215610a6e57613178916131569061312b610e7460a883901c6001600160401b031661069d565b600260e882901c60ff16106131d75760ff61314e8160025b169260a01c60ff1690565b161015614adb565b600180546001600160a01b0319166001600160a01b0392909216919091179055565b601080546001600160a01b0319169055613190613790565b61319861379f565b6010805460ff60e81b191690556131b06127db614b23565b7f9504e318c48c2d15540e6faaea014f2855c06fc4df211f5e26a8fb99a6be7fdf600080a2005b60ff61314e816001613143565b346104265760603660031901126104265760043561320181610520565b60243561320d81610520565b60443591613219614bfb565b613221614c20565b613229614e3b565b6001600160a01b031691821515806132c2575b1561328a57610019926132829082908490611b1f7f00000000000000000000000000000000000000000000000000000000000000006001600160a01b0316821415614b53565b6105af614b9f565b60405162461bcd60e51b815260206004820152601060248201526f55563a207a65726f206164647265737360801b6044820152606490fd5b506001600160a01b038216151561323c565b3461042657600036600319011261042657602060405162093a808152f35b346104265760203660031901126104265760043561330e614bfb565b80600052600e60205260406000206001810154156116ef5760020190815461333a8160ff9060481c1690565b61189a576100199261335761290a61090861290561336a9561069d565b805460ff60401b1916600160401b179055565b33817f924813d717e221b5f46dcd8a56da1679e4612584ab3237d55e5faabf6f6a3079600080a36104d0614bca565b34610426576000366003190112610426576020604051620151808152f35b156133be57565b60405162461bcd60e51b815260206004820152601d60248201527f55563a20736e617073686f74206d6f6465206e6f7420656e61626c65640000006044820152606490fd5b634e487b7160e01b600052604160045260246000fd5b601f909101601f19168101906001600160401b0382119082101761343c57604052565b613403565b90816020910312610426575190565b6040513d6000823e3d90fd5b6040519061346b60a083613419565b565b6001600160401b03811161343c57601f01601f191660200190565b60405190613497602083613419565b60008252565b604051906134ac604083613419565b601882527718985b185b98d957dcdb985c1cda1bdd17dd5c19185d195960421b6020830152565b156134da57565b60405162461bcd60e51b815260206004820152601460248201527355563a206e6f2045544820746f2072657363756560601b6044820152606490fd5b3d15613541573d906135278261346d565b916135356040519384613419565b82523d6000602084013e565b606090565b1561354d57565b60405162461bcd60e51b815260206004820152601760248201527615558e88115512081d1c985b9cd9995c8819985a5b1959604a1b6044820152606490fd5b6040519061359b604083613419565b600b82526a195d1a17dc995cd8dd595960aa1b6020830152565b6001600160401b03811161343c5760051b60200190565b906135d6826135b5565b6135e36040519182613419565b82815280926135f4601f19916135b5565b0190602036910137565b634e487b7160e01b600052603260045260246000fd5b60045481101561362f57600460005260206000200190600090565b6135fe565b805182101561362f5760209160051b010190565b1561364f57565b60405162461bcd60e51b815260206004820152601e60248201527f55563a20696e6865726974616e636520616c72656164792061637469766500006044820152606490fd5b1561369b57565b60405162461bcd60e51b815260206004820152601c60248201527b55563a206f776e65722064656e69656420696e6865726974616e636560201b6044820152606490fd5b634e487b7160e01b600052601160045260246000fd5b60001981146137045760010190565b6136df565b9062278d00820180921161370457565b603001908160301161370457565b6013805462010000600160501b0319169055565b6040519061374a604083613419565b60158252741a5b9a195c9a5d185b98d957dc995c5d595cdd1959605a1b6020830152565b601080546001600160a01b0319166001600160a01b0392909216919091179055565b6010805460ff60a01b19169055565b60108054600160a81b600160e81b0319169055565b60ff1660ff81146137045760010190565b604051906137d4604083613419565b6017825276696e6865726974616e63655f63616e63656c5f766f746560481b6020830152565b60405190613809606083613419565b60228252616e7360f01b6040837f696e6865726974616e63655f63616e63656c6c65645f62795f6775617264696160208201520152565b1561384757565b60405162461bcd60e51b815260206004820152601760248201527655563a20677561726469616e206e6f74206d617475726560481b6044820152606490fd5b1561388d57565b60405162461bcd60e51b815260206004820152601460248201527315558e881c9958dbdd995c9e48195e1c1a5c995960621b6044820152606490fd5b60ff60019116019060ff821161370457565b604051906138ea604083613419565b60118252701c9958dbdd995c9e57d85c1c1c9bdd985b607a1b6020830152565b60ff168015613704576000190190565b60001981019190821161370457565b9190820391821161370457565b80546001600160a01b0360039390931b83811b199091169290931690921b179055565b60045480156139ae5760045460001982019160009183101561362f576004918290527f8a35acfbc15ff81a39ae7d344fd709f28e8600b4aa8c65c6b64bfe7fe36bd19a0180546001600160a01b031916905555565b634e487b7160e01b600052603160045260246000fd5b600880546001600160401b0319166001600160401b0392909216919091179055565b80546001600160401b0319166001600160401b03909216919091179055565b60045490600160401b82101561343c576001820160045560045482101561362f576004600090815261346b9260008051602061511d83398151915201613936565b60405190613a55604083613419565b600f82526e677561726469616e5f72656d6f766560881b6020830152565b60405190613a82604083613419565b600c82526b19dd585c991a585b97d8591960a21b6020830152565b90816020910312610426575161075381610f8c565b6001600160a01b039091168152602081019190915260400190565b15613ad457565b60405162461bcd60e51b815260206004820152601160248201527015558e985c1c1c9bdd994b59985a5b1959607a1b6044820152606490fd5b60405190613b1c604083613419565b600d82526c7661756c745f617070726f766560981b6020830152565b939290613b43614bfb565b613b4b614c20565b613b53614e58565b81811480613cd6575b613b6590613cdf565b6008546001600160401b03604082901c1680151580613cc2575b613ca0575b5050613b8f81613d9c565b9560005b828110613bc05750613bb6955050426001600160401b031693506139c492505050565b6107536001600055565b613bd6610fef613bd183868b613de6565b613df6565b1561098557613bf730613bf0610fef613bd185888d613de6565b1415613e00565b613c10613c05828688613de6565b356009541015613e3b565b600080613c21613bd184878c613de6565b613c2c84888a613de6565b35613c3885878c613e7e565b9190613c4960405180948193613ebf565b03925af190613c56613516565b911561345057600191613c69828b613634565b52613c74818a613634565b50613c9a613c86613bd183878c613de6565b613c9183888a613de6565b356105af613ecd565b01613b93565b610908613cb39161157a613cbb9461069d565b421015613d53565b3880613b84565b50613ccf6109088361069d565b1515613b7f565b50818614613b5c565b15613ce657565b60405162461bcd60e51b81526020600482015260126024820152710aaac74d8cadccee8d05adad2e6dac2e8c6d60731b6044820152606490fd5b6001600160401b0390811662015180019190821161370457565b6001600160401b03918216908216019190821161370457565b15613d5a57565b60405162461bcd60e51b815260206004820152601a60248201527955563a657865637574652d636f6f6c646f776e2d61637469766560301b6044820152606490fd5b90613da6826135b5565b613db36040519182613419565b8281528092613dc4601f19916135b5565b019060005b828110613dd557505050565b806060602080938501015201613dc9565b919081101561362f5760051b0190565b3561075381610520565b15613e0757565b60405162461bcd60e51b815260206004820152600c60248201526b15558e9cd95b198b58d85b1b60a21b6044820152606490fd5b15613e4257565b60405162461bcd60e51b81526020600482015260146024820152730aaac74ecc2d8eaca5acaf0c6cacac8e65adac2f60631b6044820152606490fd5b919081101561362f5760051b81013590601e19813603018212156104265701803591906001600160401b038311610426576020018236038113610426579190565b908092918237016000815290565b60405190613edc604083613419565b60138252720ecc2ead8e8becaf0cac6eae8cabec4c2e8c6d606b1b6020830152565b60a01c6001600160401b031690565b6001600160401b03918216908216039190821161370457565b60405190613f35604083613419565b6012825271070656e64696e675f74785f636c65616e75760741b6020830152565b60405190613f65604083613419565b60118252701c195b991a5b99d7dd1e17d9195b9a5959607a1b6020830152565b6001600160a01b031660008181526002602052604090205460ff1615613fda576000908152601660205260409020546001600160401b0390811662093a8001908111613704576001600160401b031642101590565b50600090565b15613fe757565b60405162461bcd60e51b815260206004820152601760248201527615558e881a5b9a195c9a5d185b98d948195e1c1a5c9959604a1b6044820152606490fd5b1561402d57565b60405162461bcd60e51b815260206004820152601a60248201527955563a20696e73756666696369656e7420617070726f76616c7360301b6044820152606490fd5b1561407657565b60405162461bcd60e51b81526020600482015260126024820152712aab1d103737903732bc3a1037b31035b4b760711b6044820152606490fd5b90816020910312610426575161075381610520565b156140cc57565b60405162461bcd60e51b815260206004820152602660248201527f55563a20696e68657269746f72206d7573742068617665206578697374696e67604482015265081d985d5b1d60d21b6064820152608490fd5b1561412757565b60405162461bcd60e51b815260206004820152601760248201527615558e881b9bc8199d5b991cc81d1bc81a5b9a195c9a5d604a1b6044820152606490fd5b60405190614175604083613419565b60158252741a5b9a195c9a5d185b98d957d99a5b985b1a5e9959605a1b6020830152565b156141a057565b60405162461bcd60e51b815260206004820152600f60248201526e15558e881e995c9bc8185b5bdd5b9d608a1b6044820152606490fd5b156141de57565b60405162461bcd60e51b815260206004820152601860248201527755563a20696e73756666696369656e742062616c616e636560401b6044820152606490fd5b815181546001600160a01b0319166001600160a01b039190911617815560208201516001820155604082015160029190910191608091614267906001600160401b0316846139e6565b60608101518354929091015161ffff60401b1990921690151560401b60ff60401b161790151560481b60ff60481b16179055565b604051906142aa604083613419565b601482527318589b9bdc9b585b17dd1e17d9195d1958dd195960621b6020830152565b906142e0602092828151948592016113bc565b0190565b156142eb57565b60405162461bcd60e51b815260206004820152601260248201527155563a636f6f6c646f776e2d61637469766560701b6044820152606490fd5b60405190614334604083613419565b60168252751b185c99d957dd1c985b9cd9995c97d85d1d195b5c1d60521b6020830152565b60058054600160a01b600160e01b03191660a09290921b600160a01b600160e01b0316919091179055565b60405190614393604083613419565b600e82526d3b30bab63a2fba3930b739b332b960911b6020830152565b604051906143bf604083613419565b600d82526c1d1a1c995cda1bdb1917dcd95d609a1b6020830152565b156143e257565b60405162461bcd60e51b815260206004820152601560248201527415558e98dbdbdb191bdddb8b5d1bdbcb5cda1bdc9d605a1b6044820152606490fd5b6040519061442e604083613419565b600c82526b18dbdbdb191bdddb97dcd95d60a21b6020830152565b60405190614458604083613419565b601982527818985b185b98d957dcdb985c1cda1bdd17d91a5cd8589b1959603a1b6020830152565b6040519061448f604083613419565b601882527718985b185b98d957dcdb985c1cda1bdd17d95b98589b195960421b6020830152565b604051906144c5604083613419565b60118252703b30bab63a2fb337b931b2afb7bbb732b960791b6020830152565b156144ec57565b60405162461bcd60e51b815260206004820152601360248201527215558e881d1e081b9bdd08185c1c1c9bdd9959606a1b6044820152606490fd5b1561452e57565b60405162461bcd60e51b815260206004820152601660248201527515558e881c195b991a5b99c81d1e08195e1c1a5c995960521b6044820152606490fd5b6040519061457b604083613419565b60138252721c195b991a5b99d7dd1e17d95e1958dd5d1959606a1b6020830152565b929190916145a9614bfb565b6145b1614c20565b6145b9614e58565b6001600160a01b0384169081156109855760009261460984936145e0600954881115613e3b565b6008546001600160401b03604082901c1680151580614665575b61464b575b5050301415613e00565b61461860405180938193613ebf565b039084865af191614627613516565b921561345057613bb691614643426001600160401b03166139c4565b6105af614679565b610908613cb39161157a61465e9461069d565b38806145ff565b506146726109088361069d565b15156145fa565b60405190614688604083613419565b600d82526c7661756c745f6578656375746560981b6020830152565b604051906146b3604083613419565b60148252731a5b9a195c9a5d185b98d957d85c1c1c9bdd995960621b6020830152565b61ffff1690565b8181029291811591840414171561370457565b600a5460081c60ff16156147d657600c54601081901c60ff16806147cb575b1561473a576147326107539161472c6146d6600d549261ffff1690565b906146dd565b612710900490565b6040516370a0823160e01b8152602081806147583060048301610624565b03817f00000000000000000000000000000000000000000000000000000000000000006001600160a01b03165afa91821561050f5761472c6146d661075394614732946000916147ac575b509261ffff1690565b6147c5915060203d602011610508576104fa8183613419565b386147a3565b50600d54151561470f565b600b5490565b156147e357565b60405162461bcd60e51b8152602060048201526024808201527f55563a20696e76616c69642070657263656e746167652028302d3130303030206044820152636270732960e01b6064820152608490fd5b60405190614843604083613419565b601982527818589b9bdc9b585b17dd1e17dd1a1c995cda1bdb1917dcd95d603a1b6020830152565b6040519061487a604083613419565b60168252753932b1b7bb32b93cafb932b8bab2b9ba32b22fb5b4b760511b6020830152565b604051906148ae604083613419565b60138252720dcb59185e481dd85a5d081c995c5d5a5c9959606a1b6020830152565b604051906148df604083613419565b60128252711c9958dbdd995c9e57dc995c5d595cdd195960721b6020830152565b61490e610fef600154610514565b33148015614ac9575b8015614ab3575b15610df3576001600160a01b03811690811561098557614942610fef600554610514565b331480614a9d575b614a4e576149f7906149656149606011546136f5565b601155565b61496e8161376e565b614976613790565b6149b061498561090842613709565b60108054600160a81b600160e81b03191660a89290921b600160a81b600160e81b0316919091179055565b6149de6149bf60035460ff1690565b6010805460ff60e81b191660e89290921b60ff60e81b16919091179055565b6149ea610c3e33610a99565b614a1e575b6110ba6148d0565b7f9cc0dc5a29a0ebc421ec879559ba990d29c1fb967a227ed69c9f4e33faa04bff600080a2565b614a36610c8e614a2d33610acd565b601154906118bb565b6010805460ff60a01b1916600160a01b1790556149ef565b6149f790614a606149606011546136f5565b614a698161376e565b614a71613790565b614a8061498561090842613709565b6010805460ff60e81b19169055614a9561486b565b610a4061489f565b5060ff614aac60035460ff1690565b161561494a565b50614ac2610fef600554610514565b331461491e565b50614ad6610c3e33610a99565b614917565b15614ae257565b60405162461bcd60e51b815260206004820152601960248201527855563a696e73756666696369656e742d617070726f76616c7360381b6044820152606490fd5b60405190614b32604083613419565b60128252711c9958dbdd995c9e57d99a5b985b1a5e995960721b6020830152565b15614b5a57565b60405162461bcd60e51b815260206004820152601f60248201527f55563a20757365207472616e73666572564649444520666f72205646494445006044820152606490fd5b60405190614bae604083613419565b600d82526c1d1bdad95b97dc995cd8dd5959609a1b6020830152565b60405190614bd9604083613419565b60138252721c195b991a5b99d7dd1e17d85c1c1c9bdd9959606a1b6020830152565b6001546001600160a01b03163303614c0f57565b63c0b06f0b60e01b60005260046000fd5b7f00000000000000000000000000000000000000000000000000000000000000006001600160a01b03168015159081614c6c575b50614c5b57565b63105aa7fb60e31b60005260046000fd5b604051631293efbb60e21b81523060048201529150602090829060249082905afa90811561050f57600091614ca3575b5038614c54565b614cbc915060203d6020116112ce576112bc8183613419565b38614c9c565b7f00000000000000000000000000000000000000000000000000000000000000006001600160a01b031680614cf8575b50505050565b803b156104265760009283614d3c93614d5460405197889687958694630303c28760e61b865260018060a01b031660048601526080602486015260848501906113df565b908460448501526003198483030160648501526113df565b03925af1614d65575b808080614cf2565b80614d746000614d7a93613419565b8061041b565b38614d5d565b907f00000000000000000000000000000000000000000000000000000000000000006001600160a01b03169081614db9575b5050505050565b813b15610426576000614dfd93614e14829660405198899788968795630303c28760e61b875260018060a01b031660048701526080602487015260848601906113df565b9160448501526003198483030160648501526113df565b03925af1614e26575b80808080614db2565b80614d746000614e3593613419565b38614e1d565b60ff600a5416614e4757565b6357fa752160e01b60005260046000fd5b600160005403614e69576002600055565b60405162461bcd60e51b815260206004820152600a6024820152697265656e7472616e637960b01b6044820152606490fd5b6000929183611ecf614ec68295604051928391602083019663a9059cbb60e01b885260248401613ab2565b51926001600160a01b03165af1614edb613516565b81614f2b575b5015614ee957565b60405162461bcd60e51b815260206004820152601a60248201527914d85999515490cc8c0e881d1c985b9cd9995c8819985a5b195960321b6044820152606490fd5b8051801592508215614f40575b505038614ee1565b614f539250602080918301019101613a9d565b3880614f38565b90614f648261346d565b614f716040519182613419565b82815280926135f4601f199161346d565b90815181101561362f570160200190565b90811561502657600082805b61500b575082614fae82614f5a565b91905b614fba57509150565b614fc66150049161391a565b93614fef614fdf614fd9600a8406613719565b60ff1690565b60f81b6001600160f81b03191690565b60001a614ffc8685614f82565b53600a900490565b9283614fb1565b90615018615020916136f5565b91600a900490565b80614f9f565b9050604051615036604082613419565b60018152600360fc1b602082015290565b7f00000000000000000000000000000000000000000000000000000000000000006001600160a01b03168061507a575050565b803b1561042657604051633ddd61ab60e21b8152306004820152606060248201529160009183918290849082906150b59060648301906113df565b33604483015203925af16150c65750565b806150d360008093613419565b8003126104265756fedbb7105d7dc41668df230e5be9d018b32b76fa24d02376890ee40fef045332491f4e9075aadab47c6d1822e19226819c4482f4326012945c69bb143c6861982a8a35acfbc15ff81a39ae7d344fd709f28e8600b4aa8c65c6b64bfe7fe36bd19b2e02e19641dbae8d0ee7cf4656d3cc039f7adb684e447de0492c12fe349bc9d5a26469706673582212206b10b0401db686e8ba3c225ddbac65c3db9462db32edea8da47a8a7ef5bbf79864736f6c634300081e0033","opcodes":"PUSH2 0x100 DUP1 PUSH1 0x40 MSTORE CALLVALUE PUSH2 0x332 JUMPI PUSH1 0x0 PUSH1 0xA0 DUP3 PUSH2 0x5517 DUP1 CODESIZE SUB DUP1 SWAP2 PUSH2 0x22 DUP3 DUP6 PUSH2 0x337 JUMP JUMPDEST DUP4 CODECOPY DUP2 ADD SUB SLT PUSH2 0x32F JUMPI PUSH2 0x35 DUP3 PUSH2 0x370 JUMP JUMPDEST PUSH2 0x41 PUSH1 0x20 DUP5 ADD PUSH2 0x370 JUMP JUMPDEST PUSH2 0x4D PUSH1 0x40 DUP6 ADD PUSH2 0x370 JUMP JUMPDEST SWAP1 PUSH2 0x66 PUSH1 0x80 PUSH2 0x5F PUSH1 0x60 DUP9 ADD PUSH2 0x370 JUMP JUMPDEST SWAP7 ADD PUSH2 0x370 JUMP JUMPDEST PUSH1 0x1 DUP6 SSTORE PUSH1 0x6 DUP1 SLOAD PUSH1 0x1 PUSH1 0x1 PUSH1 0x40 SHL SUB NOT AND PUSH3 0x15180 OR SWAP1 SSTORE PUSH10 0x21E19E0C9BAB2400000 PUSH1 0x7 SSTORE PUSH1 0x8 DUP1 SLOAD PUSH1 0x1 PUSH1 0x40 SHL PUSH1 0x1 PUSH1 0x80 SHL SUB NOT AND PUSH10 0xE100000000000000000 OR SWAP1 SSTORE PUSH8 0xDE0B6B3A7640000 PUSH1 0x9 SSTORE PUSH10 0xA968163F0A57B400000 PUSH1 0xB SSTORE PUSH1 0xC DUP1 SLOAD PUSH2 0xFFFF NOT AND PUSH2 0x1388 OR SWAP1 SSTORE SWAP3 PUSH1 0x1 PUSH1 0x1 PUSH1 0xA0 SHL SUB DUP2 AND ISZERO ISZERO DUP1 PUSH2 0x31D JUMPI JUMPDEST DUP1 PUSH2 0x30B JUMPI JUMPDEST ISZERO PUSH2 0x2DC JUMPI PUSH1 0x80 MSTORE PUSH1 0xA0 MSTORE PUSH1 0x1 DUP1 SLOAD PUSH1 0x1 PUSH1 0x1 PUSH1 0xA0 SHL SUB NOT AND PUSH1 0x1 PUSH1 0x1 PUSH1 0xA0 SHL SUB SWAP3 DUP4 AND SWAP1 DUP2 OR SWAP1 SWAP2 SSTORE SWAP4 DUP2 AND PUSH1 0xC0 MSTORE AND PUSH1 0xE0 MSTORE PUSH1 0x40 DUP1 MLOAD SWAP1 DUP2 ADD PUSH1 0x1 PUSH1 0x1 PUSH1 0x40 SHL SUB DUP2 GT DUP3 DUP3 LT OR PUSH2 0x2C8 JUMPI PUSH1 0x40 MSTORE PUSH1 0xD DUP2 MSTORE PUSH13 0x1D985D5B1D17D8DC99585D1959 PUSH1 0x9A SHL PUSH1 0x20 DUP3 ADD MSTORE PUSH1 0xE0 MLOAD PUSH1 0x1 PUSH1 0x1 PUSH1 0xA0 SHL SUB AND DUP1 PUSH2 0x232 JUMPI JUMPDEST PUSH1 0x40 MLOAD DUP5 PUSH32 0x50146D0E3C60AA1D17A70635B05494F864E86144A2201275021014FBF08BAFE2 DUP6 DUP1 LOG2 PUSH2 0x5192 SWAP1 DUP2 PUSH2 0x385 DUP3 CODECOPY PUSH1 0x80 MLOAD DUP2 DUP2 DUP2 PUSH2 0x1318 ADD MSTORE DUP2 DUP2 PUSH2 0x1A38 ADD MSTORE PUSH2 0x2783 ADD MSTORE PUSH1 0xA0 MLOAD DUP2 DUP2 DUP2 PUSH2 0x480 ADD MSTORE DUP2 DUP2 PUSH2 0x11FE ADD MSTORE DUP2 DUP2 PUSH2 0x1A97 ADD MSTORE DUP2 DUP2 PUSH2 0x1C62 ADD MSTORE DUP2 DUP2 PUSH2 0x2700 ADD MSTORE DUP2 DUP2 PUSH2 0x2935 ADD MSTORE DUP2 DUP2 PUSH2 0x2B4C ADD MSTORE DUP2 DUP2 PUSH2 0x2CCA ADD MSTORE DUP2 DUP2 PUSH2 0x3252 ADD MSTORE PUSH2 0x475C ADD MSTORE PUSH1 0xC0 MLOAD DUP2 DUP2 DUP2 PUSH2 0x2B07 ADD MSTORE DUP2 DUP2 PUSH2 0x2D13 ADD MSTORE PUSH2 0x4C22 ADD MSTORE PUSH1 0xE0 MLOAD DUP2 DUP2 DUP2 PUSH2 0x17E0 ADD MSTORE DUP2 DUP2 PUSH2 0x4CC4 ADD MSTORE DUP2 DUP2 PUSH2 0x4D83 ADD MSTORE PUSH2 0x5049 ADD MSTORE RETURN JUMPDEST DUP1 EXTCODESIZE ISZERO PUSH2 0x2C4 JUMPI SWAP1 DUP3 SWAP1 PUSH1 0x40 MLOAD SWAP3 DUP4 SWAP2 PUSH4 0x3DDD61AB PUSH1 0xE2 SHL DUP4 MSTORE ADDRESS PUSH1 0x4 DUP5 ADD MSTORE PUSH1 0x60 PUSH1 0x24 DUP5 ADD MSTORE DUP1 MLOAD SWAP1 DUP2 PUSH1 0x64 DUP6 ADD MSTORE DUP5 JUMPDEST DUP3 DUP2 LT PUSH2 0x2A9 JUMPI POP POP DUP4 PUSH1 0x84 DUP5 DUP4 DUP4 DUP4 DUP4 SWAP7 DUP5 ADD ADD MSTORE CALLER PUSH1 0x44 DUP4 ADD MSTORE PUSH1 0x1F DUP1 NOT SWAP2 ADD AND DUP2 ADD SUB ADD SWAP3 GAS CALL PUSH2 0x299 JUMPI JUMPDEST DUP1 PUSH2 0x16A JUMP JUMPDEST DUP2 PUSH2 0x2A3 SWAP2 PUSH2 0x337 JUMP JUMPDEST CODESIZE PUSH2 0x293 JUMP JUMPDEST PUSH1 0x20 DUP2 DUP4 ADD DUP2 ADD MLOAD PUSH1 0x84 DUP10 DUP5 ADD ADD MSTORE DUP9 SWAP7 POP DUP8 SWAP6 POP ADD PUSH2 0x264 JUMP JUMPDEST DUP3 DUP1 REVERT JUMPDEST PUSH4 0x4E487B71 PUSH1 0xE0 SHL DUP4 MSTORE PUSH1 0x41 PUSH1 0x4 MSTORE PUSH1 0x24 DUP4 REVERT JUMPDEST PUSH1 0x40 MLOAD PUSH3 0x461BCD PUSH1 0xE5 SHL DUP2 MSTORE PUSH1 0x20 PUSH1 0x4 DUP3 ADD MSTORE PUSH1 0x7 PUSH1 0x24 DUP3 ADD MSTORE PUSH7 0x55563A7A65726F PUSH1 0xC8 SHL PUSH1 0x44 DUP3 ADD MSTORE PUSH1 0x64 SWAP1 REVERT JUMPDEST POP PUSH1 0x1 PUSH1 0x1 PUSH1 0xA0 SHL SUB DUP4 AND ISZERO ISZERO PUSH2 0xEE JUMP JUMPDEST POP PUSH1 0x1 PUSH1 0x1 PUSH1 0xA0 SHL SUB DUP3 AND ISZERO ISZERO PUSH2 0xE8 JUMP JUMPDEST DUP1 REVERT JUMPDEST PUSH1 0x0 DUP1 REVERT JUMPDEST PUSH1 0x1F SWAP1 SWAP2 ADD PUSH1 0x1F NOT AND DUP2 ADD SWAP1 PUSH1 0x1 PUSH1 0x1 PUSH1 0x40 SHL SUB DUP3 GT SWAP1 DUP3 LT OR PUSH2 0x35A JUMPI PUSH1 0x40 MSTORE JUMP JUMPDEST PUSH4 0x4E487B71 PUSH1 0xE0 SHL PUSH1 0x0 MSTORE PUSH1 0x41 PUSH1 0x4 MSTORE PUSH1 0x24 PUSH1 0x0 REVERT JUMPDEST MLOAD SWAP1 PUSH1 0x1 PUSH1 0x1 PUSH1 0xA0 SHL SUB DUP3 AND DUP3 SUB PUSH2 0x332 JUMPI JUMP INVALID PUSH1 0x80 PUSH1 0x40 MSTORE PUSH1 0x4 CALLDATASIZE LT ISZERO PUSH2 0x1B JUMPI JUMPDEST CALLDATASIZE ISZERO PUSH2 0x19 JUMPI PUSH1 0x0 DUP1 REVERT JUMPDEST STOP JUMPDEST PUSH1 0x0 CALLDATALOAD PUSH1 0xE0 SHR DUP1 PUSH4 0x2037822 EQ PUSH2 0x416 JUMPI DUP1 PUSH4 0x4824E70 EQ PUSH2 0x411 JUMPI DUP1 PUSH4 0x54F7D9C EQ PUSH2 0x40C JUMPI DUP1 PUSH4 0x6603F8D EQ PUSH2 0x407 JUMPI DUP1 PUSH4 0x665F04B EQ PUSH2 0x402 JUMPI DUP1 PUSH4 0x92CC1FB EQ PUSH2 0x3FD JUMPI DUP1 PUSH4 0xB6946DA EQ PUSH2 0x3F8 JUMPI DUP1 PUSH4 0xBA234D6 EQ PUSH2 0x3F3 JUMPI DUP1 PUSH4 0xC68BA21 EQ PUSH2 0x3EE JUMPI DUP1 PUSH4 0xFBD22B0 EQ PUSH2 0x3E9 JUMPI DUP1 PUSH4 0x118F117F EQ PUSH2 0x3E4 JUMPI DUP1 PUSH4 0x124F8D9C EQ PUSH2 0x3DF JUMPI DUP1 PUSH4 0x1BED8C6E EQ PUSH2 0x3DA JUMPI DUP1 PUSH4 0x1F180DE8 EQ PUSH2 0x3D5 JUMPI DUP1 PUSH4 0x269B54B1 EQ PUSH2 0x3D0 JUMPI DUP1 PUSH4 0x2B8A1C5A EQ PUSH2 0x3CB JUMPI DUP1 PUSH4 0x31D559F8 EQ PUSH2 0x3C6 JUMPI DUP1 PUSH4 0x34A014DC EQ PUSH2 0x3C1 JUMPI DUP1 PUSH4 0x365A86FC EQ PUSH2 0x3BC JUMPI DUP1 PUSH4 0x42E01E73 EQ PUSH2 0x3B7 JUMPI DUP1 PUSH4 0x47E1DA2A EQ PUSH2 0x3B2 JUMPI DUP1 PUSH4 0x4DDB926A EQ PUSH2 0x3AD JUMPI DUP1 PUSH4 0x5132124C EQ PUSH2 0x3A8 JUMPI DUP1 PUSH4 0x518D0959 EQ PUSH2 0x3A3 JUMPI DUP1 PUSH4 0x536B801D EQ PUSH2 0x39E JUMPI DUP1 PUSH4 0x54387AD7 EQ PUSH2 0x399 JUMPI DUP1 PUSH4 0x56397C35 EQ PUSH2 0x394 JUMPI DUP1 PUSH4 0x5F8983FD EQ PUSH2 0x38F JUMPI DUP1 PUSH4 0x63A8374D EQ PUSH2 0x38A JUMPI DUP1 PUSH4 0x63F95A3B EQ PUSH2 0x385 JUMPI DUP1 PUSH4 0x688AA6CE EQ PUSH2 0x380 JUMPI DUP1 PUSH4 0x6A150981 EQ PUSH2 0x37B JUMPI DUP1 PUSH4 0x6B1994EA EQ PUSH2 0x376 JUMPI DUP1 PUSH4 0x6B6FE5E9 EQ PUSH2 0x371 JUMPI DUP1 PUSH4 0x6D68E53B EQ PUSH2 0x36C JUMPI DUP1 PUSH4 0x700C5E7D EQ PUSH2 0x358 JUMPI DUP1 PUSH4 0x72890CA2 EQ PUSH2 0x367 JUMPI DUP1 PUSH4 0x7E932D32 EQ PUSH2 0x362 JUMPI DUP1 PUSH4 0x835316C7 EQ PUSH2 0x35D JUMPI DUP1 PUSH4 0x8B2BC3E7 EQ PUSH2 0x358 JUMPI DUP1 PUSH4 0x8DA5CB5B EQ PUSH2 0x353 JUMPI DUP1 PUSH4 0x8E48D082 EQ PUSH2 0x34E JUMPI DUP1 PUSH4 0x8F252D34 EQ PUSH2 0x349 JUMPI DUP1 PUSH4 0x9362698C EQ PUSH2 0x344 JUMPI DUP1 PUSH4 0x93BCD858 EQ PUSH2 0x33F JUMPI DUP1 PUSH4 0x9A0DD140 EQ PUSH2 0x33A JUMPI DUP1 PUSH4 0xB50EF71B EQ PUSH2 0x335 JUMPI DUP1 PUSH4 0xB5354CE5 EQ PUSH2 0x330 JUMPI DUP1 PUSH4 0xB61D27F6 EQ PUSH2 0x32B JUMPI DUP1 PUSH4 0xB72D2943 EQ PUSH2 0x326 JUMPI DUP1 PUSH4 0xB8A71EEC EQ PUSH2 0x321 JUMPI DUP1 PUSH4 0xBA58DB51 EQ PUSH2 0x31C JUMPI DUP1 PUSH4 0xC55E4A0E EQ PUSH2 0x317 JUMPI DUP1 PUSH4 0xC60CD99C EQ PUSH2 0x312 JUMPI DUP1 PUSH4 0xCD1492D4 EQ PUSH2 0x30D JUMPI DUP1 PUSH4 0xD25A9189 EQ PUSH2 0x308 JUMPI DUP1 PUSH4 0xD6C89C60 EQ PUSH2 0x303 JUMPI DUP1 PUSH4 0xE2158EE7 EQ PUSH2 0x2FE JUMPI DUP1 PUSH4 0xE24BA265 EQ PUSH2 0x2F9 JUMPI DUP1 PUSH4 0xE2CCB305 EQ PUSH2 0x2F4 JUMPI DUP1 PUSH4 0xE5711E8B EQ PUSH2 0x2EF JUMPI DUP1 PUSH4 0xE6536FC5 EQ PUSH2 0x2EA JUMPI DUP1 PUSH4 0xF9773F92 EQ PUSH2 0x2E5 JUMPI PUSH4 0xFD4FA981 SUB PUSH2 0xE JUMPI PUSH2 0x3399 JUMP JUMPDEST PUSH2 0x32F2 JUMP JUMPDEST PUSH2 0x32D4 JUMP JUMPDEST PUSH2 0x31E4 JUMP JUMPDEST PUSH2 0x30D3 JUMP JUMPDEST PUSH2 0x30A6 JUMP JUMPDEST PUSH2 0x3084 JUMP JUMPDEST PUSH2 0x305B JUMP JUMPDEST PUSH2 0x2EEE JUMP JUMPDEST PUSH2 0x2ECB JUMP JUMPDEST PUSH2 0x2E4F JUMP JUMPDEST PUSH2 0x2C8B JUMP JUMPDEST PUSH2 0x2B7B JUMP JUMPDEST PUSH2 0x2B36 JUMP JUMPDEST PUSH2 0x2AF1 JUMP JUMPDEST PUSH2 0x2A76 JUMP JUMPDEST PUSH2 0x2A47 JUMP JUMPDEST PUSH2 0x2882 JUMP JUMPDEST PUSH2 0x2864 JUMP JUMPDEST PUSH2 0x2839 JUMP JUMPDEST PUSH2 0x2764 JUMP JUMPDEST PUSH2 0x2694 JUMP JUMPDEST PUSH2 0x2593 JUMP JUMPDEST PUSH2 0x256A JUMP JUMPDEST PUSH2 0x20C8 JUMP JUMPDEST PUSH2 0x24AE JUMP JUMPDEST PUSH2 0x23E0 JUMP JUMPDEST PUSH2 0x2191 JUMP JUMPDEST PUSH2 0x20AA JUMP JUMPDEST PUSH2 0x1FD5 JUMP JUMPDEST PUSH2 0x1F23 JUMP JUMPDEST PUSH2 0x1BF7 JUMP JUMPDEST PUSH2 0x1963 JUMP JUMPDEST PUSH2 0x1937 JUMP JUMPDEST PUSH2 0x18CA JUMP JUMPDEST PUSH2 0x180F JUMP JUMPDEST PUSH2 0x17CA JUMP JUMPDEST PUSH2 0x17A9 JUMP JUMPDEST PUSH2 0x1700 JUMP JUMPDEST PUSH2 0x1637 JUMP JUMPDEST PUSH2 0x1619 JUMP JUMPDEST PUSH2 0x14F1 JUMP JUMPDEST PUSH2 0x1464 JUMP JUMPDEST PUSH2 0x1347 JUMP JUMPDEST PUSH2 0x1302 JUMP JUMPDEST PUSH2 0x12D5 JUMP JUMPDEST PUSH2 0x1197 JUMP JUMPDEST PUSH2 0xF96 JUMP JUMPDEST PUSH2 0xF66 JUMP JUMPDEST PUSH2 0xE04 JUMP JUMPDEST PUSH2 0xC16 JUMP JUMPDEST PUSH2 0xB92 JUMP JUMPDEST PUSH2 0xB69 JUMP JUMPDEST PUSH2 0xB43 JUMP JUMPDEST PUSH2 0xB01 JUMP JUMPDEST PUSH2 0x9A7 JUMP JUMPDEST PUSH2 0x850 JUMP JUMPDEST PUSH2 0x832 JUMP JUMPDEST PUSH2 0x756 JUMP JUMPDEST PUSH2 0x637 JUMP JUMPDEST PUSH2 0x601 JUMP JUMPDEST PUSH2 0x531 JUMP JUMPDEST PUSH2 0x42B JUMP JUMPDEST PUSH1 0x0 SWAP2 SUB SLT PUSH2 0x426 JUMPI JUMP JUMPDEST PUSH1 0x0 DUP1 REVERT JUMPDEST CALLVALUE PUSH2 0x426 JUMPI PUSH1 0x0 CALLDATASIZE PUSH1 0x3 NOT ADD SLT PUSH2 0x426 JUMPI PUSH2 0x444 PUSH2 0x4BFB JUMP JUMPDEST PUSH2 0x44C PUSH2 0x4C20 JUMP JUMPDEST PUSH1 0xC SLOAD PUSH2 0x45E SWAP1 PUSH1 0x10 SHR PUSH1 0xFF AND PUSH2 0x33B7 JUMP JUMPDEST PUSH1 0x40 MLOAD PUSH4 0x70A08231 PUSH1 0xE0 SHL DUP2 MSTORE PUSH1 0x20 DUP2 DUP1 PUSH2 0x47C ADDRESS PUSH1 0x4 DUP4 ADD PUSH2 0x624 JUMP JUMPDEST SUB DUP2 PUSH32 0x0 PUSH1 0x1 PUSH1 0x1 PUSH1 0xA0 SHL SUB AND GAS STATICCALL DUP1 ISZERO PUSH2 0x50F JUMPI PUSH2 0x4C2 SWAP2 PUSH1 0x0 SWAP2 PUSH2 0x4E0 JUMPI JUMPDEST POP PUSH1 0xD SSTORE JUMP JUMPDEST PUSH2 0x19 PUSH1 0xD SLOAD PUSH2 0x4D0 PUSH2 0x349D JUMP JUMPDEST SWAP1 PUSH2 0x4D9 PUSH2 0x3488 JUMP JUMPDEST SWAP2 CALLER PUSH2 0x4D80 JUMP JUMPDEST PUSH2 0x502 SWAP2 POP PUSH1 0x20 RETURNDATASIZE PUSH1 0x20 GT PUSH2 0x508 JUMPI JUMPDEST PUSH2 0x4FA DUP2 DUP4 PUSH2 0x3419 JUMP JUMPDEST DUP2 ADD SWAP1 PUSH2 0x3441 JUMP JUMPDEST CODESIZE PUSH2 0x4BC JUMP JUMPDEST POP RETURNDATASIZE PUSH2 0x4F0 JUMP JUMPDEST PUSH2 0x3450 JUMP JUMPDEST PUSH1 0x1 PUSH1 0x1 PUSH1 0xA0 SHL SUB AND SWAP1 JUMP JUMPDEST PUSH1 0x1 PUSH1 0x1 PUSH1 0xA0 SHL SUB DUP2 AND SUB PUSH2 0x426 JUMPI JUMP JUMPDEST CALLVALUE PUSH2 0x426 JUMPI PUSH1 0x20 CALLDATASIZE PUSH1 0x3 NOT ADD SLT PUSH2 0x426 JUMPI PUSH1 0x4 CALLDATALOAD PUSH2 0x54E DUP2 PUSH2 0x520 JUMP JUMPDEST PUSH2 0x556 PUSH2 0x4BFB JUMP JUMPDEST PUSH2 0x55E PUSH2 0x4C20 JUMP JUMPDEST PUSH2 0x566 PUSH2 0x4E3B JUMP JUMPDEST PUSH2 0x56E PUSH2 0x4E58 JUMP JUMPDEST PUSH1 0x1 PUSH1 0x1 PUSH1 0xA0 SHL SUB AND DUP1 ISZERO PUSH2 0x5C7 JUMPI PUSH2 0x5BD SWAP1 SELFBALANCE PUSH2 0x58D DUP2 ISZERO ISZERO PUSH2 0x34D3 JUMP JUMPDEST PUSH2 0x5A7 PUSH1 0x0 DUP1 DUP1 DUP1 DUP6 DUP8 GAS CALL PUSH2 0x5A1 PUSH2 0x3516 JUMP JUMPDEST POP PUSH2 0x3546 JUMP JUMPDEST PUSH2 0x5AF PUSH2 0x358C JUMP JUMPDEST PUSH2 0x5B7 PUSH2 0x3488 JUMP JUMPDEST SWAP3 PUSH2 0x4D80 JUMP JUMPDEST PUSH2 0x19 PUSH1 0x1 PUSH1 0x0 SSTORE JUMP JUMPDEST PUSH1 0x40 MLOAD PUSH3 0x461BCD PUSH1 0xE5 SHL DUP2 MSTORE PUSH1 0x20 PUSH1 0x4 DUP3 ADD MSTORE PUSH1 0x12 PUSH1 0x24 DUP3 ADD MSTORE PUSH18 0x15558E881E995C9BC81C9958DA5C1A595B9D PUSH1 0x72 SHL PUSH1 0x44 DUP3 ADD MSTORE PUSH1 0x64 SWAP1 REVERT JUMPDEST CALLVALUE PUSH2 0x426 JUMPI PUSH1 0x0 CALLDATASIZE PUSH1 0x3 NOT ADD SLT PUSH2 0x426 JUMPI PUSH1 0x20 PUSH1 0xFF PUSH1 0xA SLOAD AND PUSH1 0x40 MLOAD SWAP1 ISZERO ISZERO DUP2 MSTORE RETURN JUMPDEST PUSH1 0x1 PUSH1 0x1 PUSH1 0xA0 SHL SUB SWAP1 SWAP2 AND DUP2 MSTORE PUSH1 0x20 ADD SWAP1 JUMP JUMPDEST CALLVALUE PUSH2 0x426 JUMPI PUSH1 0x0 CALLDATASIZE PUSH1 0x3 NOT ADD SLT PUSH2 0x426 JUMPI PUSH1 0x5 SLOAD PUSH1 0x40 MLOAD PUSH1 0x1 PUSH1 0x1 PUSH1 0xA0 SHL SUB SWAP1 SWAP2 AND DUP2 MSTORE PUSH1 0x20 SWAP1 RETURN JUMPDEST SWAP1 PUSH1 0x20 DUP1 DUP4 MLOAD SWAP3 DUP4 DUP2 MSTORE ADD SWAP3 ADD SWAP1 PUSH1 0x0 JUMPDEST DUP2 DUP2 LT PUSH2 0x67E JUMPI POP POP POP SWAP1 JUMP JUMPDEST DUP3 MLOAD PUSH1 0x1 PUSH1 0x1 PUSH1 0xA0 SHL SUB AND DUP5 MSTORE PUSH1 0x20 SWAP4 DUP5 ADD SWAP4 SWAP1 SWAP3 ADD SWAP2 PUSH1 0x1 ADD PUSH2 0x671 JUMP JUMPDEST PUSH1 0x1 PUSH1 0x1 PUSH1 0x40 SHL SUB AND SWAP1 JUMP JUMPDEST SWAP1 PUSH1 0x20 DUP1 DUP4 MLOAD SWAP3 DUP4 DUP2 MSTORE ADD SWAP3 ADD SWAP1 PUSH1 0x0 JUMPDEST DUP2 DUP2 LT PUSH2 0x6C7 JUMPI POP POP POP SWAP1 JUMP JUMPDEST DUP3 MLOAD PUSH1 0x1 PUSH1 0x1 PUSH1 0x40 SHL SUB AND DUP5 MSTORE PUSH1 0x20 SWAP4 DUP5 ADD SWAP4 SWAP1 SWAP3 ADD SWAP2 PUSH1 0x1 ADD PUSH2 0x6BA JUMP JUMPDEST SWAP1 PUSH1 0x20 DUP1 DUP4 MLOAD SWAP3 DUP4 DUP2 MSTORE ADD SWAP3 ADD SWAP1 PUSH1 0x0 JUMPDEST DUP2 DUP2 LT PUSH2 0x704 JUMPI POP POP POP SWAP1 JUMP JUMPDEST DUP3 MLOAD ISZERO ISZERO DUP5 MSTORE PUSH1 0x20 SWAP4 DUP5 ADD SWAP4 SWAP1 SWAP3 ADD SWAP2 PUSH1 0x1 ADD PUSH2 0x6F7 JUMP JUMPDEST SWAP2 PUSH2 0x745 SWAP1 PUSH2 0x737 PUSH2 0x753 SWAP6 SWAP4 PUSH1 0x60 DUP7 MSTORE PUSH1 0x60 DUP7 ADD SWAP1 PUSH2 0x660 JUMP JUMPDEST SWAP1 DUP5 DUP3 SUB PUSH1 0x20 DUP7 ADD MSTORE PUSH2 0x6A9 JUMP JUMPDEST SWAP2 PUSH1 0x40 DUP2 DUP5 SUB SWAP2 ADD MSTORE PUSH2 0x6E6 JUMP JUMPDEST SWAP1 JUMP JUMPDEST CALLVALUE PUSH2 0x426 JUMPI PUSH1 0x0 CALLDATASIZE PUSH1 0x3 NOT ADD SLT PUSH2 0x426 JUMPI PUSH1 0x4 SLOAD PUSH2 0x773 DUP2 PUSH2 0x35CC JUMP JUMPDEST SWAP1 PUSH2 0x77D DUP2 PUSH2 0x35CC JUMP JUMPDEST SWAP2 PUSH2 0x787 DUP3 PUSH2 0x35CC JUMP JUMPDEST SWAP1 PUSH1 0x0 JUMPDEST DUP4 DUP2 LT ISZERO PUSH2 0x81C JUMPI PUSH1 0x4 PUSH1 0x0 MSTORE PUSH1 0x0 DUP1 MLOAD PUSH1 0x20 PUSH2 0x511D DUP4 CODECOPY DUP2 MLOAD SWAP2 MSTORE DUP2 ADD SLOAD PUSH1 0x1 SWAP2 SWAP1 PUSH2 0x816 SWAP1 PUSH2 0x805 SWAP1 PUSH1 0x1 PUSH1 0x1 PUSH1 0xA0 SHL SUB AND DUP1 PUSH2 0x7CA DUP6 DUP9 PUSH2 0x3634 JUMP JUMPDEST MSTORE PUSH2 0x800 PUSH2 0x7E7 PUSH2 0x7DA DUP4 PUSH2 0xA7F JUMP JUMPDEST SLOAD PUSH1 0x1 PUSH1 0x1 PUSH1 0x40 SHL SUB AND SWAP1 JUMP JUMPDEST PUSH2 0x7F1 DUP7 DUP13 PUSH2 0x3634 JUMP JUMPDEST PUSH1 0x1 PUSH1 0x1 PUSH1 0x40 SHL SUB SWAP1 SWAP2 AND SWAP1 MSTORE JUMP JUMPDEST PUSH2 0x3F85 JUMP JUMPDEST PUSH2 0x80F DUP4 DUP8 PUSH2 0x3634 JUMP JUMPDEST SWAP1 ISZERO ISZERO SWAP1 MSTORE JUMP JUMPDEST ADD PUSH2 0x78B JUMP JUMPDEST POP PUSH2 0x82E DUP5 SWAP3 PUSH1 0x40 MLOAD SWAP4 DUP5 SWAP4 DUP5 PUSH2 0x71C JUMP JUMPDEST SUB SWAP1 RETURN JUMPDEST CALLVALUE PUSH2 0x426 JUMPI PUSH1 0x0 CALLDATASIZE PUSH1 0x3 NOT ADD SLT PUSH2 0x426 JUMPI PUSH1 0x20 PUSH1 0xB SLOAD PUSH1 0x40 MLOAD SWAP1 DUP2 MSTORE RETURN JUMPDEST CALLVALUE PUSH2 0x426 JUMPI PUSH1 0x0 CALLDATASIZE PUSH1 0x3 NOT ADD SLT PUSH2 0x426 JUMPI PUSH2 0x869 PUSH2 0x4C20 JUMP JUMPDEST PUSH2 0x874 PUSH1 0x5 SLOAD PUSH2 0x514 JUMP JUMPDEST PUSH2 0x87D DUP2 PUSH2 0x514 JUMP JUMPDEST CALLER SUB PUSH2 0x996 JUMPI PUSH1 0x1 PUSH1 0x1 PUSH1 0xA0 SHL SUB AND ISZERO PUSH2 0x985 JUMPI PUSH2 0x8C4 PUSH2 0x8BF PUSH2 0x8AD PUSH1 0x13 SLOAD PUSH2 0x8B6 PUSH2 0x8B1 PUSH2 0x8AD DUP4 PUSH1 0xFF AND SWAP1 JUMP JUMPDEST ISZERO SWAP1 JUMP JUMPDEST PUSH2 0x3648 JUMP JUMPDEST PUSH1 0x50 SHR PUSH1 0xFF AND SWAP1 JUMP JUMPDEST PUSH2 0x3694 JUMP JUMPDEST PUSH2 0x8D7 PUSH2 0x8D2 PUSH1 0x14 SLOAD PUSH2 0x36F5 JUMP JUMPDEST PUSH1 0x14 SSTORE JUMP JUMPDEST PUSH2 0x8E9 PUSH1 0x1 PUSH1 0xFF NOT PUSH1 0x13 SLOAD AND OR PUSH1 0x13 SSTORE JUMP JUMPDEST PUSH2 0x8F9 PUSH1 0x13 SLOAD PUSH2 0xFF00 NOT AND PUSH1 0x13 SSTORE JUMP JUMPDEST PUSH2 0x936 PUSH2 0x90D PUSH2 0x908 TIMESTAMP PUSH2 0x3709 JUMP JUMPDEST PUSH2 0x69D JUMP JUMPDEST PUSH1 0x13 DUP1 SLOAD PUSH3 0x10000 PUSH1 0x1 PUSH1 0x50 SHL SUB NOT AND PUSH1 0x10 SWAP3 SWAP1 SWAP3 SHL PUSH3 0x10000 PUSH1 0x1 PUSH1 0x50 SHL SUB AND SWAP2 SWAP1 SWAP2 OR SWAP1 SSTORE JUMP JUMPDEST PUSH1 0x13 DUP1 SLOAD PUSH1 0xFF PUSH1 0x50 SHL NOT AND SWAP1 SSTORE PUSH2 0x95D PUSH2 0x94E PUSH2 0x373B JUMP JUMPDEST PUSH2 0x956 PUSH2 0x3488 JUMP JUMPDEST SWAP1 CALLER PUSH2 0x4CC2 JUMP JUMPDEST CALLER PUSH32 0x45169F9A6369D811DE455BB5ECDC25C684355ABE2DEAF2F8D9B81618754BA3B4 PUSH1 0x0 DUP1 LOG2 STOP JUMPDEST PUSH4 0xFD9D189 PUSH1 0xE4 SHL PUSH1 0x0 MSTORE PUSH1 0x4 PUSH1 0x0 REVERT JUMPDEST PUSH4 0x1A4F16B9 PUSH1 0xE2 SHL PUSH1 0x0 MSTORE PUSH1 0x4 PUSH1 0x0 REVERT JUMPDEST CALLVALUE PUSH2 0x426 JUMPI PUSH1 0x0 CALLDATASIZE PUSH1 0x3 NOT ADD SLT PUSH2 0x426 JUMPI PUSH2 0x9C0 PUSH2 0x4BFB JUMP JUMPDEST PUSH2 0x9C8 PUSH2 0x4C20 JUMP JUMPDEST PUSH1 0x10 SLOAD PUSH1 0x1 PUSH1 0x1 PUSH1 0xA0 SHL SUB DUP2 AND DUP1 ISZERO PUSH2 0xA6E JUMPI PUSH1 0x1 PUSH1 0x1 PUSH1 0xA0 SHL SUB NOT SWAP1 SWAP2 AND PUSH1 0x10 SSTORE PUSH2 0xA46 SWAP1 PUSH2 0x9F6 PUSH2 0x3790 JUMP JUMPDEST PUSH2 0x9FE PUSH2 0x379F JUMP JUMPDEST PUSH1 0x10 DUP1 SLOAD PUSH1 0xFF PUSH1 0xE8 SHL NOT AND SWAP1 SSTORE PUSH1 0x40 MLOAD PUSH2 0xA19 PUSH1 0x40 DUP3 PUSH2 0x3419 JUMP JUMPDEST PUSH1 0x12 DUP2 MSTORE PUSH18 0x1C9958DBDD995C9E57D8D85B98D95B1B1959 PUSH1 0x72 SHL PUSH1 0x20 DUP3 ADD MSTORE PUSH2 0xA40 PUSH2 0x3488 JUMP JUMPDEST SWAP2 PUSH2 0x4CC2 JUMP JUMPDEST CALLER PUSH32 0x8154B6C5E1FC90D44B49808EF93F9739148D0821411890F8CD684385E24B9F1E PUSH1 0x0 DUP1 LOG2 STOP JUMPDEST PUSH4 0x8D0FA133 PUSH1 0xE0 SHL PUSH1 0x0 MSTORE PUSH1 0x4 PUSH1 0x0 REVERT JUMPDEST PUSH1 0x1 PUSH1 0x1 PUSH1 0xA0 SHL SUB AND PUSH1 0x0 SWAP1 DUP2 MSTORE PUSH1 0x16 PUSH1 0x20 MSTORE PUSH1 0x40 SWAP1 KECCAK256 SWAP1 JUMP JUMPDEST PUSH1 0x1 PUSH1 0x1 PUSH1 0xA0 SHL SUB AND PUSH1 0x0 SWAP1 DUP2 MSTORE PUSH1 0x2 PUSH1 0x20 MSTORE PUSH1 0x40 SWAP1 KECCAK256 SWAP1 JUMP JUMPDEST PUSH1 0x1 PUSH1 0x1 PUSH1 0xA0 SHL SUB AND PUSH1 0x0 SWAP1 DUP2 MSTORE PUSH1 0x17 PUSH1 0x20 MSTORE PUSH1 0x40 SWAP1 KECCAK256 SWAP1 JUMP JUMPDEST PUSH1 0x1 PUSH1 0x1 PUSH1 0xA0 SHL SUB AND PUSH1 0x0 SWAP1 DUP2 MSTORE PUSH1 0x12 PUSH1 0x20 MSTORE PUSH1 0x40 SWAP1 KECCAK256 SWAP1 JUMP JUMPDEST PUSH1 0x1 PUSH1 0x1 PUSH1 0xA0 SHL SUB AND PUSH1 0x0 SWAP1 DUP2 MSTORE PUSH1 0x15 PUSH1 0x20 MSTORE PUSH1 0x40 SWAP1 KECCAK256 SWAP1 JUMP JUMPDEST CALLVALUE PUSH2 0x426 JUMPI PUSH1 0x20 CALLDATASIZE PUSH1 0x3 NOT ADD SLT PUSH2 0x426 JUMPI PUSH1 0x4 CALLDATALOAD PUSH2 0xB1E DUP2 PUSH2 0x520 JUMP JUMPDEST PUSH1 0x1 DUP1 PUSH1 0xA0 SHL SUB AND PUSH1 0x0 MSTORE PUSH1 0x2 PUSH1 0x20 MSTORE PUSH1 0x20 PUSH1 0xFF PUSH1 0x40 PUSH1 0x0 KECCAK256 SLOAD AND PUSH1 0x40 MLOAD SWAP1 ISZERO ISZERO DUP2 MSTORE RETURN JUMPDEST CALLVALUE PUSH2 0x426 JUMPI PUSH1 0x0 CALLDATASIZE PUSH1 0x3 NOT ADD SLT PUSH2 0x426 JUMPI PUSH1 0x20 PUSH1 0xFF PUSH1 0xA SLOAD PUSH1 0x8 SHR AND PUSH1 0x40 MLOAD SWAP1 ISZERO ISZERO DUP2 MSTORE RETURN JUMPDEST CALLVALUE PUSH2 0x426 JUMPI PUSH1 0x0 CALLDATASIZE PUSH1 0x3 NOT ADD SLT PUSH2 0x426 JUMPI PUSH1 0x8 SLOAD PUSH1 0x40 MLOAD PUSH1 0x1 PUSH1 0x1 PUSH1 0x40 SHL SUB SWAP1 SWAP2 AND DUP2 MSTORE PUSH1 0x20 SWAP1 RETURN JUMPDEST CALLVALUE PUSH2 0x426 JUMPI PUSH1 0x0 CALLDATASIZE PUSH1 0x3 NOT ADD SLT PUSH2 0x426 JUMPI PUSH1 0x10 SLOAD PUSH1 0x1 PUSH1 0x1 PUSH1 0xA0 SHL SUB DUP2 AND SWAP1 PUSH1 0x2 PUSH1 0xE8 DUP3 SWAP1 SHR PUSH1 0xFF AND LT PUSH2 0xC0E JUMPI PUSH1 0x2 SWAP2 JUMPDEST PUSH1 0x40 DUP1 MLOAD DUP3 ISZERO ISZERO DUP2 MSTORE PUSH1 0x1 PUSH1 0x1 PUSH1 0xA0 SHL SUB SWAP1 SWAP3 AND PUSH1 0x20 DUP4 ADD MSTORE PUSH1 0xA0 DUP4 DUP2 SHR PUSH1 0xFF SWAP1 DUP2 AND SWAP3 DUP5 ADD SWAP3 SWAP1 SWAP3 MSTORE PUSH1 0xA8 SWAP4 SWAP1 SWAP4 SHR PUSH1 0x1 PUSH1 0x1 PUSH1 0x40 SHL SUB AND PUSH1 0x60 DUP4 ADD MSTORE SWAP3 SWAP1 SWAP3 AND PUSH1 0x80 DUP4 ADD MSTORE SWAP1 RETURN JUMPDEST PUSH1 0x1 SWAP2 PUSH2 0xBC4 JUMP JUMPDEST CALLVALUE PUSH2 0x426 JUMPI PUSH1 0x0 CALLDATASIZE PUSH1 0x3 NOT ADD SLT PUSH2 0x426 JUMPI PUSH2 0xC2F PUSH2 0x4C20 JUMP JUMPDEST PUSH2 0xC45 PUSH2 0x8AD PUSH2 0xC3E CALLER PUSH2 0xA99 JUMP JUMPDEST SLOAD PUSH1 0xFF AND SWAP1 JUMP JUMPDEST PUSH2 0xDF3 JUMPI PUSH2 0xC58 PUSH2 0x8AD PUSH1 0x13 SLOAD PUSH1 0xFF AND SWAP1 JUMP JUMPDEST PUSH2 0xDE2 JUMPI PUSH2 0xC65 CALLER PUSH2 0xAB3 JUMP JUMPDEST PUSH2 0xC75 PUSH2 0xC3E PUSH1 0x19 SLOAD DUP1 SWAP4 PUSH2 0x18BB JUMP JUMPDEST PUSH2 0xDD1 JUMPI PUSH2 0xC8E PUSH2 0xC9B SWAP2 PUSH2 0xC89 CALLER PUSH2 0xAB3 JUMP JUMPDEST PUSH2 0x18BB JUMP JUMPDEST DUP1 SLOAD PUSH1 0xFF NOT AND PUSH1 0x1 OR SWAP1 SSTORE JUMP JUMPDEST PUSH2 0xCC2 PUSH2 0xCB2 PUSH2 0xCAD PUSH1 0x18 SLOAD PUSH1 0xFF AND SWAP1 JUMP JUMPDEST PUSH2 0x37B4 JUMP JUMPDEST PUSH1 0xFF AND PUSH1 0xFF NOT PUSH1 0x18 SLOAD AND OR PUSH1 0x18 SSTORE JUMP JUMPDEST PUSH1 0x13 SLOAD PUSH1 0x8 SHR PUSH1 0xFF AND ISZERO PUSH2 0xDBC JUMPI PUSH1 0x2 PUSH1 0xFF PUSH2 0xCE0 PUSH1 0x3 SLOAD PUSH1 0xFF AND SWAP1 JUMP JUMPDEST AND LT PUSH2 0xDB3 JUMPI PUSH1 0xFF PUSH1 0x2 JUMPDEST AND PUSH1 0xFF PUSH2 0xCFA PUSH1 0x18 SLOAD PUSH1 0xFF AND SWAP1 JUMP JUMPDEST AND DUP2 DUP2 LT PUSH2 0xDA6 JUMPI POP PUSH2 0xD12 PUSH1 0xFF NOT PUSH1 0x13 SLOAD AND PUSH1 0x13 SSTORE JUMP JUMPDEST PUSH2 0xD22 PUSH1 0x13 SLOAD PUSH2 0xFF00 NOT AND PUSH1 0x13 SSTORE JUMP JUMPDEST PUSH2 0xD2A PUSH2 0x3727 JUMP JUMPDEST PUSH1 0x13 DUP1 SLOAD PUSH1 0xFF PUSH1 0x50 SHL NOT AND SWAP1 SSTORE PUSH2 0xD4A PUSH2 0xD45 PUSH1 0x19 SLOAD PUSH2 0x36F5 JUMP JUMPDEST PUSH1 0x19 SSTORE JUMP JUMPDEST PUSH2 0xD59 PUSH1 0xFF NOT PUSH1 0x18 SLOAD AND PUSH1 0x18 SSTORE JUMP JUMPDEST PUSH2 0xD6D PUSH2 0xD64 PUSH2 0x37FA JUMP JUMPDEST DUP3 PUSH2 0x4D9 PUSH2 0x3488 JUMP JUMPDEST PUSH1 0x40 MLOAD PUSH1 0xFF SWAP1 SWAP2 AND DUP2 MSTORE CALLER SWAP1 PUSH32 0x82A4E870A30FCDCDB7097DFF3667437D1D8574E2766560BB07E1F1FB4A5B1518 SWAP1 DUP1 PUSH1 0x20 DUP2 ADD JUMPDEST SUB SWAP1 LOG2 STOP JUMPDEST PUSH2 0x19 SWAP2 POP PUSH2 0x4D0 PUSH2 0x37C5 JUMP JUMPDEST PUSH1 0xFF PUSH1 0x1 PUSH2 0xCEB JUMP JUMPDEST PUSH1 0x2 PUSH1 0xFF PUSH2 0xDCC PUSH1 0x3 SLOAD PUSH1 0xFF AND SWAP1 JUMP JUMPDEST PUSH2 0xCE0 JUMP JUMPDEST PUSH4 0x17A521B PUSH1 0xE5 SHL PUSH1 0x0 MSTORE PUSH1 0x4 PUSH1 0x0 REVERT JUMPDEST PUSH4 0x24DCF667 PUSH1 0xE2 SHL PUSH1 0x0 MSTORE PUSH1 0x4 PUSH1 0x0 REVERT JUMPDEST PUSH4 0x33211535 PUSH1 0xE2 SHL PUSH1 0x0 MSTORE PUSH1 0x4 PUSH1 0x0 REVERT JUMPDEST CALLVALUE PUSH2 0x426 JUMPI PUSH1 0x0 CALLDATASIZE PUSH1 0x3 NOT ADD SLT PUSH2 0x426 JUMPI PUSH2 0xE1D PUSH2 0x4C20 JUMP JUMPDEST PUSH2 0xE2C PUSH2 0x8AD PUSH2 0xC3E CALLER PUSH2 0xA99 JUMP JUMPDEST PUSH2 0xDF3 JUMPI PUSH2 0xE41 PUSH2 0xE3C CALLER PUSH2 0x3F85 JUMP JUMPDEST PUSH2 0x3840 JUMP JUMPDEST PUSH1 0x10 SLOAD PUSH1 0x1 PUSH1 0x1 PUSH1 0xA0 SHL SUB PUSH2 0xE55 DUP3 PUSH2 0x514 JUMP JUMPDEST AND ISZERO PUSH2 0xA6E JUMPI PUSH2 0xE7C SWAP1 PUSH2 0xE74 SWAP1 PUSH1 0xA8 SHR PUSH1 0x1 PUSH1 0x1 PUSH1 0x40 SHL SUB AND PUSH2 0x69D JUMP JUMPDEST TIMESTAMP GT ISZERO PUSH2 0x3886 JUMP JUMPDEST PUSH2 0xE85 CALLER PUSH2 0xACD JUMP JUMPDEST PUSH2 0xE95 PUSH2 0xC3E PUSH1 0x11 SLOAD DUP1 SWAP4 PUSH2 0x18BB JUMP JUMPDEST PUSH2 0xDD1 JUMPI PUSH2 0xC8E PUSH2 0xEA9 SWAP2 PUSH2 0xC89 CALLER PUSH2 0xACD JUMP JUMPDEST PUSH2 0xEE3 PUSH2 0xEC4 PUSH2 0xEBF PUSH1 0x10 SLOAD PUSH1 0xFF SWAP1 PUSH1 0xA0 SHR AND SWAP1 JUMP JUMPDEST PUSH2 0x38C9 JUMP JUMPDEST PUSH1 0x10 DUP1 SLOAD PUSH1 0xFF PUSH1 0xA0 SHL NOT AND PUSH1 0xA0 SWAP3 SWAP1 SWAP3 SHL PUSH1 0xFF PUSH1 0xA0 SHL AND SWAP2 SWAP1 SWAP2 OR SWAP1 SSTORE JUMP JUMPDEST PUSH1 0x10 SLOAD PUSH2 0xF0B SWAP1 PUSH1 0xA0 SHR PUSH1 0xFF AND PUSH2 0xEF8 PUSH2 0x38DB JUMP JUMPDEST PUSH1 0xFF PUSH2 0xF02 PUSH2 0x3488 JUMP JUMPDEST SWAP3 AND SWAP1 CALLER PUSH2 0x4D80 JUMP JUMPDEST PUSH1 0x10 SLOAD PUSH2 0xF24 PUSH2 0xF1A DUP3 PUSH2 0x514 JUMP JUMPDEST SWAP2 PUSH1 0xA0 SHR PUSH1 0xFF AND SWAP1 JUMP JUMPDEST PUSH1 0x40 MLOAD PUSH1 0xFF SWAP2 SWAP1 SWAP2 AND DUP2 MSTORE PUSH1 0x1 PUSH1 0x1 PUSH1 0xA0 SHL SUB SWAP2 SWAP1 SWAP2 AND SWAP1 CALLER SWAP1 PUSH32 0x93A8F3ACC471767423E482B998D4F8D2DD61068CF066749B4D296F36BB64AD00 SWAP1 PUSH1 0x20 SWAP1 LOG3 STOP JUMPDEST CALLVALUE PUSH2 0x426 JUMPI PUSH1 0x0 CALLDATASIZE PUSH1 0x3 NOT ADD SLT PUSH2 0x426 JUMPI PUSH1 0x20 PUSH1 0xFF PUSH1 0xC SLOAD PUSH1 0x10 SHR AND PUSH1 0x40 MLOAD SWAP1 ISZERO ISZERO DUP2 MSTORE RETURN JUMPDEST DUP1 ISZERO ISZERO SUB PUSH2 0x426 JUMPI JUMP JUMPDEST CALLVALUE PUSH2 0x426 JUMPI PUSH1 0x40 CALLDATASIZE PUSH1 0x3 NOT ADD SLT PUSH2 0x426 JUMPI PUSH1 0x4 CALLDATALOAD PUSH2 0xFB3 DUP2 PUSH2 0x520 JUMP JUMPDEST PUSH1 0x24 CALLDATALOAD SWAP1 PUSH2 0xFC0 DUP3 PUSH2 0xF8C JUMP JUMPDEST PUSH2 0xFC8 PUSH2 0x4BFB JUMP JUMPDEST PUSH2 0xFD0 PUSH2 0x4C20 JUMP JUMPDEST PUSH1 0x1 PUSH1 0x1 PUSH1 0xA0 SHL SUB DUP2 AND SWAP2 DUP3 ISZERO PUSH2 0x985 JUMPI PUSH2 0xFF4 PUSH2 0xFEF PUSH1 0x10 SLOAD PUSH2 0x514 JUMP JUMPDEST PUSH2 0x514 JUMP JUMPDEST PUSH2 0x1186 JUMPI PUSH2 0x1004 PUSH2 0xC3E DUP4 PUSH2 0xA99 JUMP JUMPDEST DUP2 ISZERO ISZERO SWAP1 ISZERO ISZERO SUB PUSH2 0x1011 JUMPI STOP JUMPDEST PUSH2 0x102F DUP2 PUSH2 0x101E DUP5 PUSH2 0xA99 JUMP JUMPDEST SWAP1 PUSH1 0xFF DUP1 NOT DUP4 SLOAD AND SWAP2 ISZERO ISZERO AND OR SWAP1 SSTORE JUMP JUMPDEST DUP1 ISZERO PUSH2 0x10CF JUMPI PUSH2 0x19 SWAP3 PUSH2 0x105B PUSH2 0x104B PUSH2 0xCAD PUSH1 0x3 SLOAD PUSH1 0xFF AND SWAP1 JUMP JUMPDEST PUSH1 0xFF AND PUSH1 0xFF NOT PUSH1 0x3 SLOAD AND OR PUSH1 0x3 SSTORE JUMP JUMPDEST PUSH2 0x1076 TIMESTAMP PUSH1 0x1 PUSH1 0x1 PUSH1 0x40 SHL SUB AND PUSH2 0x1071 DUP6 PUSH2 0xA7F JUMP JUMPDEST PUSH2 0x39E6 JUMP JUMPDEST PUSH2 0x107F DUP4 PUSH2 0x3A05 JUMP JUMPDEST PUSH1 0x40 MLOAD DUP3 ISZERO ISZERO DUP2 MSTORE PUSH32 0xC4459D655E1EFE034A75446F1F4DB087F75D23BDFABCCFFAFA6384CDB23A1544 SWAP1 PUSH1 0x20 SWAP1 LOG2 ISZERO PUSH2 0x10C2 JUMPI PUSH2 0x10BA PUSH2 0x3A73 JUMP JUMPDEST PUSH2 0xA40 PUSH2 0x3488 JUMP JUMPDEST PUSH2 0x10CA PUSH2 0x3A46 JUMP JUMPDEST PUSH2 0x10BA JUMP JUMPDEST PUSH2 0x10E6 PUSH2 0x104B PUSH2 0x10E1 PUSH1 0x3 SLOAD PUSH1 0xFF AND SWAP1 JUMP JUMPDEST PUSH2 0x390A JUMP JUMPDEST PUSH2 0x1102 PUSH2 0x10F2 DUP4 PUSH2 0xA7F JUMP JUMPDEST DUP1 SLOAD PUSH1 0x1 PUSH1 0x1 PUSH1 0x40 SHL SUB NOT AND SWAP1 SSTORE JUMP JUMPDEST PUSH1 0x0 JUMPDEST PUSH1 0x4 SLOAD DUP1 DUP3 LT ISZERO PUSH2 0x117B JUMPI DUP5 PUSH2 0x1135 PUSH2 0xFEF PUSH2 0x1120 DUP6 PUSH2 0x3614 JUMP JUMPDEST SWAP1 SLOAD PUSH1 0x3 SWAP2 SWAP1 SWAP2 SHL SHR PUSH1 0x1 PUSH1 0x1 PUSH1 0xA0 SHL SUB AND SWAP1 JUMP JUMPDEST EQ PUSH2 0x1143 JUMPI POP PUSH1 0x1 ADD PUSH2 0x1105 JUMP JUMPDEST PUSH2 0x19 SWAP5 SWAP2 PUSH2 0x1168 PUSH2 0x1162 PUSH2 0x1120 PUSH2 0x115D PUSH2 0x116E SWAP6 PUSH2 0x391A JUMP JUMPDEST PUSH2 0x3614 JUMP JUMPDEST SWAP2 PUSH2 0x3614 JUMP JUMPDEST SWAP1 PUSH2 0x3936 JUMP JUMPDEST PUSH2 0x1176 PUSH2 0x3959 JUMP JUMPDEST PUSH2 0x107F JUMP JUMPDEST POP POP PUSH2 0x19 SWAP3 PUSH2 0x107F JUMP JUMPDEST PUSH4 0x1B11469B PUSH1 0xE1 SHL PUSH1 0x0 MSTORE PUSH1 0x4 PUSH1 0x0 REVERT JUMPDEST CALLVALUE PUSH2 0x426 JUMPI PUSH1 0x40 CALLDATASIZE PUSH1 0x3 NOT ADD SLT PUSH2 0x426 JUMPI PUSH1 0x4 CALLDATALOAD PUSH2 0x11B4 DUP2 PUSH2 0x520 JUMP JUMPDEST PUSH1 0x24 CALLDATALOAD SWAP1 PUSH2 0x11C0 PUSH2 0x4BFB JUMP JUMPDEST PUSH2 0x11C8 PUSH2 0x4C20 JUMP JUMPDEST PUSH1 0x1 PUSH1 0x1 PUSH1 0xA0 SHL SUB DUP2 AND DUP1 ISZERO PUSH2 0x985 JUMPI PUSH1 0x40 MLOAD PUSH4 0x95EA7B3 PUSH1 0xE0 SHL DUP2 MSTORE SWAP3 PUSH1 0x20 DUP5 DUP1 PUSH2 0x11F8 DUP5 DUP8 PUSH1 0x4 DUP5 ADD PUSH2 0x3AB2 JUMP JUMPDEST SUB DUP2 PUSH1 0x0 PUSH32 0x0 PUSH1 0x1 PUSH1 0x1 PUSH1 0xA0 SHL SUB AND GAS CALL SWAP3 DUP4 ISZERO PUSH2 0x50F JUMPI PUSH2 0x82E SWAP5 PUSH1 0x0 SWAP5 PUSH2 0x128A JUMPI JUMPDEST POP PUSH1 0x0 DUP1 MLOAD PUSH1 0x20 PUSH2 0x50DD DUP4 CODECOPY DUP2 MLOAD SWAP2 MSTORE SWAP2 PUSH2 0x1265 PUSH2 0x1275 SWAP3 PUSH2 0x125C DUP8 PUSH2 0x3ACD JUMP JUMPDEST DUP3 PUSH2 0x5AF PUSH2 0x3B0D JUMP JUMPDEST PUSH1 0x40 MLOAD SWAP1 DUP2 MSTORE SWAP1 DUP2 SWAP1 PUSH1 0x20 DUP3 ADD SWAP1 JUMP JUMPDEST SUB SWAP1 LOG2 PUSH1 0x40 MLOAD SWAP1 ISZERO ISZERO DUP2 MSTORE SWAP1 DUP2 SWAP1 PUSH1 0x20 DUP3 ADD SWAP1 JUMP JUMPDEST PUSH2 0x1275 SWAP2 SWAP5 POP SWAP2 PUSH2 0x1265 PUSH2 0x12C4 PUSH1 0x0 DUP1 MLOAD PUSH1 0x20 PUSH2 0x50DD DUP4 CODECOPY DUP2 MLOAD SWAP2 MSTORE SWAP5 PUSH1 0x20 RETURNDATASIZE PUSH1 0x20 GT PUSH2 0x12CE JUMPI JUMPDEST PUSH2 0x12BC DUP2 DUP4 PUSH2 0x3419 JUMP JUMPDEST DUP2 ADD SWAP1 PUSH2 0x3A9D JUMP JUMPDEST SWAP6 SWAP3 POP POP SWAP2 PUSH2 0x123B JUMP JUMPDEST POP RETURNDATASIZE PUSH2 0x12B2 JUMP JUMPDEST CALLVALUE PUSH2 0x426 JUMPI PUSH1 0x0 CALLDATASIZE PUSH1 0x3 NOT ADD SLT PUSH2 0x426 JUMPI PUSH1 0x5 SLOAD PUSH1 0x40 MLOAD PUSH1 0xA0 SWAP2 SWAP1 SWAP2 SHR PUSH1 0x1 PUSH1 0x1 PUSH1 0x40 SHL SUB AND DUP2 MSTORE PUSH1 0x20 SWAP1 RETURN JUMPDEST CALLVALUE PUSH2 0x426 JUMPI PUSH1 0x0 CALLDATASIZE PUSH1 0x3 NOT ADD SLT PUSH2 0x426 JUMPI PUSH1 0x40 MLOAD PUSH32 0x0 PUSH1 0x1 PUSH1 0x1 PUSH1 0xA0 SHL SUB AND DUP2 MSTORE PUSH1 0x20 SWAP1 RETURN JUMPDEST CALLVALUE PUSH2 0x426 JUMPI PUSH1 0x20 CALLDATASIZE PUSH1 0x3 NOT ADD SLT PUSH2 0x426 JUMPI PUSH1 0x4 CALLDATALOAD PUSH2 0x1364 DUP2 PUSH2 0x520 JUMP JUMPDEST PUSH1 0x1 DUP1 PUSH1 0xA0 SHL SUB AND PUSH1 0x0 MSTORE PUSH1 0x16 PUSH1 0x20 MSTORE PUSH1 0x20 PUSH1 0x1 DUP1 PUSH1 0x40 SHL SUB PUSH1 0x40 PUSH1 0x0 KECCAK256 SLOAD AND PUSH1 0x40 MLOAD SWAP1 DUP2 MSTORE RETURN JUMPDEST SWAP2 DUP2 PUSH1 0x1F DUP5 ADD SLT ISZERO PUSH2 0x426 JUMPI DUP3 CALLDATALOAD SWAP2 PUSH1 0x1 PUSH1 0x1 PUSH1 0x40 SHL SUB DUP4 GT PUSH2 0x426 JUMPI PUSH1 0x20 DUP1 DUP6 ADD SWAP5 DUP5 PUSH1 0x5 SHL ADD ADD GT PUSH2 0x426 JUMPI JUMP JUMPDEST PUSH1 0x0 JUMPDEST DUP4 DUP2 LT PUSH2 0x13CF JUMPI POP POP PUSH1 0x0 SWAP2 ADD MSTORE JUMP JUMPDEST DUP2 DUP2 ADD MLOAD DUP4 DUP3 ADD MSTORE PUSH1 0x20 ADD PUSH2 0x13BF JUMP JUMPDEST SWAP1 PUSH1 0x20 SWAP2 PUSH2 0x13F8 DUP2 MLOAD DUP1 SWAP3 DUP2 DUP6 MSTORE DUP6 DUP1 DUP7 ADD SWAP2 ADD PUSH2 0x13BC JUMP JUMPDEST PUSH1 0x1F ADD PUSH1 0x1F NOT AND ADD ADD SWAP1 JUMP JUMPDEST PUSH1 0x20 DUP2 ADD PUSH1 0x20 DUP3 MSTORE DUP3 MLOAD DUP1 SWAP2 MSTORE PUSH1 0x40 DUP3 ADD SWAP2 PUSH1 0x20 PUSH1 0x40 DUP4 PUSH1 0x5 SHL DUP4 ADD ADD SWAP5 ADD SWAP3 PUSH1 0x0 SWAP2 JUMPDEST DUP4 DUP4 LT PUSH2 0x1437 JUMPI POP POP POP POP POP SWAP1 JUMP JUMPDEST SWAP1 SWAP2 SWAP3 SWAP4 SWAP5 PUSH1 0x20 DUP1 PUSH2 0x1455 PUSH1 0x1 SWAP4 PUSH1 0x3F NOT DUP7 DUP3 SUB ADD DUP8 MSTORE DUP10 MLOAD PUSH2 0x13DF JUMP JUMPDEST SWAP8 ADD SWAP4 ADD SWAP4 ADD SWAP2 SWAP4 SWAP3 SWAP1 PUSH2 0x1428 JUMP JUMPDEST CALLVALUE PUSH2 0x426 JUMPI PUSH1 0x60 CALLDATASIZE PUSH1 0x3 NOT ADD SLT PUSH2 0x426 JUMPI PUSH1 0x4 CALLDATALOAD PUSH1 0x1 PUSH1 0x1 PUSH1 0x40 SHL SUB DUP2 GT PUSH2 0x426 JUMPI PUSH2 0x1494 SWAP1 CALLDATASIZE SWAP1 PUSH1 0x4 ADD PUSH2 0x138C JUMP JUMPDEST PUSH1 0x24 CALLDATALOAD PUSH1 0x1 PUSH1 0x1 PUSH1 0x40 SHL SUB DUP2 GT PUSH2 0x426 JUMPI PUSH2 0x14B3 SWAP1 CALLDATASIZE SWAP1 PUSH1 0x4 ADD PUSH2 0x138C JUMP JUMPDEST SWAP1 SWAP3 PUSH1 0x44 CALLDATALOAD SWAP3 SWAP2 PUSH1 0x1 PUSH1 0x1 PUSH1 0x40 SHL SUB DUP5 GT PUSH2 0x426 JUMPI PUSH2 0x82E SWAP5 PUSH2 0x14DD PUSH2 0x14E5 SWAP6 CALLDATASIZE SWAP1 PUSH1 0x4 ADD PUSH2 0x138C JUMP JUMPDEST SWAP5 SWAP1 SWAP4 PUSH2 0x3B38 JUMP JUMPDEST PUSH1 0x40 MLOAD SWAP2 DUP3 SWAP2 DUP3 PUSH2 0x1404 JUMP JUMPDEST CALLVALUE PUSH2 0x426 JUMPI PUSH1 0x0 CALLDATASIZE PUSH1 0x3 NOT ADD SLT PUSH2 0x426 JUMPI PUSH1 0x0 DUP1 PUSH2 0x1510 PUSH1 0x6 SLOAD PUSH2 0x69D JUMP JUMPDEST PUSH1 0x1 PUSH1 0x1 PUSH1 0x40 SHL SUB DUP2 AND ISZERO ISZERO DUP1 PUSH2 0x1603 JUMPI JUMPDEST PUSH2 0x15C8 JUMPI JUMPDEST POP PUSH1 0x8 SLOAD PUSH1 0x40 DUP2 SWAP1 SHR PUSH1 0x1 PUSH1 0x1 PUSH1 0x40 SHL SUB AND PUSH2 0x1542 DUP2 PUSH2 0x69D JUMP JUMPDEST ISZERO ISZERO DUP1 PUSH2 0x15B4 JUMPI JUMPDEST PUSH2 0x156E JUMPI JUMPDEST POP POP PUSH1 0x40 DUP1 MLOAD PUSH1 0x1 PUSH1 0x1 PUSH1 0x40 SHL SUB SWAP3 DUP4 AND DUP2 MSTORE SWAP3 SWAP1 SWAP2 AND PUSH1 0x20 DUP4 ADD MSTORE SWAP1 RETURN JUMPDEST PUSH2 0x157A PUSH2 0x157F SWAP3 PUSH2 0x69D JUMP JUMPDEST PUSH2 0x3D3A JUMP JUMPDEST PUSH1 0x1 PUSH1 0x1 PUSH1 0x40 SHL SUB DUP2 AND TIMESTAMP LT PUSH2 0x1596 JUMPI JUMPDEST DUP1 PUSH2 0x154F JUMP JUMPDEST SWAP1 SWAP2 POP PUSH2 0x15AD SWAP1 TIMESTAMP PUSH1 0x1 PUSH1 0x1 PUSH1 0x40 SHL SUB AND SWAP1 PUSH2 0x3F0D JUMP JUMPDEST SWAP1 CODESIZE PUSH2 0x1590 JUMP JUMPDEST POP PUSH2 0x15C1 PUSH2 0x908 DUP4 PUSH2 0x69D JUMP JUMPDEST ISZERO ISZERO PUSH2 0x154A JUMP JUMPDEST PUSH2 0x15D7 SWAP1 PUSH2 0x157A PUSH1 0x5 SLOAD PUSH2 0x3EFE JUMP JUMPDEST PUSH1 0x1 PUSH1 0x1 PUSH1 0x40 SHL SUB DUP2 AND TIMESTAMP LT ISZERO PUSH2 0x1527 JUMPI PUSH2 0x15FD SWAP2 POP TIMESTAMP PUSH1 0x1 PUSH1 0x1 PUSH1 0x40 SHL SUB AND SWAP1 PUSH2 0x3F0D JUMP JUMPDEST CODESIZE PUSH2 0x1527 JUMP JUMPDEST POP PUSH2 0x1612 PUSH2 0x908 PUSH1 0x5 SLOAD PUSH2 0x3EFE JUMP JUMPDEST ISZERO ISZERO PUSH2 0x1522 JUMP JUMPDEST CALLVALUE PUSH2 0x426 JUMPI PUSH1 0x0 CALLDATASIZE PUSH1 0x3 NOT ADD SLT PUSH2 0x426 JUMPI PUSH1 0x20 PUSH1 0xD SLOAD PUSH1 0x40 MLOAD SWAP1 DUP2 MSTORE RETURN JUMPDEST CALLVALUE PUSH2 0x426 JUMPI PUSH1 0x20 CALLDATASIZE PUSH1 0x3 NOT ADD SLT PUSH2 0x426 JUMPI PUSH1 0x4 CALLDATALOAD PUSH2 0x1653 PUSH2 0x4BFB JUMP JUMPDEST DUP1 PUSH1 0x0 MSTORE PUSH1 0xE PUSH1 0x20 MSTORE PUSH1 0x40 PUSH1 0x0 KECCAK256 PUSH1 0x1 DUP2 ADD SLOAD ISZERO PUSH2 0x16EF JUMPI PUSH1 0x2 ADD SLOAD PUSH1 0x1 PUSH1 0x1 PUSH1 0x40 SHL SUB SWAP1 PUSH2 0x1683 SWAP1 DUP3 AND PUSH2 0x3D20 JUMP JUMPDEST AND TIMESTAMP GT ISZERO PUSH2 0x16B5 JUMPI DUP1 PUSH2 0x16AD PUSH2 0x169B PUSH2 0x19 SWAP4 PUSH2 0x18AB JUMP JUMPDEST PUSH1 0x2 PUSH1 0x0 SWAP2 DUP3 DUP2 SSTORE DUP3 PUSH1 0x1 DUP3 ADD SSTORE ADD SSTORE JUMP JUMPDEST PUSH2 0x4D0 PUSH2 0x3F26 JUMP JUMPDEST PUSH1 0x40 MLOAD PUSH3 0x461BCD PUSH1 0xE5 SHL DUP2 MSTORE PUSH1 0x20 PUSH1 0x4 DUP3 ADD MSTORE PUSH1 0x12 PUSH1 0x24 DUP3 ADD MSTORE PUSH18 0x15558E881D1E081B9BDD08195E1C1A5C9959 PUSH1 0x72 SHL PUSH1 0x44 DUP3 ADD MSTORE PUSH1 0x64 SWAP1 REVERT JUMPDEST PUSH4 0x4C8D4429 PUSH1 0xE0 SHL PUSH1 0x0 MSTORE PUSH1 0x4 PUSH1 0x0 REVERT JUMPDEST CALLVALUE PUSH2 0x426 JUMPI PUSH1 0x0 CALLDATASIZE PUSH1 0x3 NOT ADD SLT PUSH2 0x426 JUMPI PUSH2 0x1719 PUSH2 0x4BFB JUMP JUMPDEST PUSH2 0x1721 PUSH2 0x4C20 JUMP JUMPDEST PUSH1 0x13 SLOAD PUSH1 0xFF DUP2 AND ISZERO PUSH2 0xDE2 JUMPI PUSH2 0xFFFF PUSH1 0xFF PUSH1 0x50 SHL ADD NOT AND PUSH1 0x1 PUSH1 0x50 SHL OR PUSH1 0x13 SSTORE PUSH2 0x1749 PUSH2 0x3727 JUMP JUMPDEST PUSH2 0x1781 PUSH1 0x40 MLOAD PUSH2 0x175A PUSH1 0x40 DUP3 PUSH2 0x3419 JUMP JUMPDEST PUSH1 0x12 DUP2 MSTORE PUSH18 0x1A5B9A195C9A5D185B98D957D9195B9A5959 PUSH1 0x72 SHL PUSH1 0x20 DUP3 ADD MSTORE PUSH2 0x956 PUSH2 0x3488 JUMP JUMPDEST CALLER PUSH32 0xEC32F6BE1CFE5F271330570749895D0CDCB3324846EE37B8A6AC973B4A27CF57 PUSH1 0x0 DUP1 LOG2 STOP JUMPDEST CALLVALUE PUSH2 0x426 JUMPI PUSH1 0x0 CALLDATASIZE PUSH1 0x3 NOT ADD SLT PUSH2 0x426 JUMPI PUSH1 0x20 PUSH1 0xFF PUSH1 0x3 SLOAD AND PUSH1 0x40 MLOAD SWAP1 DUP2 MSTORE RETURN JUMPDEST CALLVALUE PUSH2 0x426 JUMPI PUSH1 0x0 CALLDATASIZE PUSH1 0x3 NOT ADD SLT PUSH2 0x426 JUMPI PUSH1 0x40 MLOAD PUSH32 0x0 PUSH1 0x1 PUSH1 0x1 PUSH1 0xA0 SHL SUB AND DUP2 MSTORE PUSH1 0x20 SWAP1 RETURN JUMPDEST CALLVALUE PUSH2 0x426 JUMPI PUSH1 0x20 CALLDATASIZE PUSH1 0x3 NOT ADD SLT PUSH2 0x426 JUMPI PUSH1 0x4 CALLDATALOAD PUSH2 0x182B PUSH2 0x4BFB JUMP JUMPDEST DUP1 PUSH1 0x0 MSTORE PUSH1 0xE PUSH1 0x20 MSTORE PUSH1 0x40 PUSH1 0x0 KECCAK256 PUSH1 0x1 DUP2 ADD SLOAD ISZERO PUSH2 0x16EF JUMPI PUSH1 0x2 ADD SWAP1 DUP2 SLOAD SWAP2 PUSH1 0xFF DUP4 PUSH1 0x48 SHR AND PUSH2 0x189A JUMPI PUSH1 0xFF PUSH1 0x48 SHL NOT SWAP1 SWAP3 AND PUSH1 0x1 PUSH1 0x48 SHL OR SWAP1 SWAP2 SSTORE PUSH2 0x19 SWAP1 CALLER DUP2 PUSH32 0x12CD094E454538586035071C64EB69C206D65137212E7D5E9D32D73854043570 PUSH1 0x0 DUP1 LOG3 PUSH2 0x4D0 PUSH2 0x3F56 JUMP JUMPDEST PUSH4 0x446D277B PUSH1 0xE1 SHL PUSH1 0x0 MSTORE PUSH1 0x4 PUSH1 0x0 REVERT JUMPDEST PUSH1 0x0 MSTORE PUSH1 0xE PUSH1 0x20 MSTORE PUSH1 0x40 PUSH1 0x0 KECCAK256 SWAP1 JUMP JUMPDEST SWAP1 PUSH1 0x0 MSTORE PUSH1 0x20 MSTORE PUSH1 0x40 PUSH1 0x0 KECCAK256 SWAP1 JUMP JUMPDEST CALLVALUE PUSH2 0x426 JUMPI PUSH1 0x20 CALLDATASIZE PUSH1 0x3 NOT ADD SLT PUSH2 0x426 JUMPI PUSH1 0x4 CALLDATALOAD PUSH1 0x0 MSTORE PUSH1 0xE PUSH1 0x20 MSTORE PUSH1 0xA0 PUSH1 0x40 PUSH1 0x0 KECCAK256 PUSH1 0xFF PUSH1 0x1 DUP1 DUP5 SHL SUB DUP3 SLOAD AND SWAP2 PUSH1 0x2 PUSH1 0x1 DUP3 ADD SLOAD SWAP2 ADD SLOAD SWAP1 PUSH1 0x40 MLOAD SWAP4 DUP5 MSTORE PUSH1 0x20 DUP5 ADD MSTORE PUSH1 0x1 DUP1 PUSH1 0x40 SHL SUB DUP2 AND PUSH1 0x40 DUP5 ADD MSTORE DUP2 DUP2 PUSH1 0x40 SHR AND ISZERO ISZERO PUSH1 0x60 DUP5 ADD MSTORE PUSH1 0x48 SHR AND ISZERO ISZERO PUSH1 0x80 DUP3 ADD MSTORE RETURN JUMPDEST CALLVALUE PUSH2 0x426 JUMPI PUSH1 0x20 CALLDATASIZE PUSH1 0x3 NOT ADD SLT PUSH2 0x426 JUMPI PUSH1 0x20 PUSH2 0x1959 PUSH1 0x4 CALLDATALOAD PUSH2 0x800 DUP2 PUSH2 0x520 JUMP JUMPDEST PUSH1 0x40 MLOAD SWAP1 ISZERO ISZERO DUP2 MSTORE RETURN JUMPDEST CALLVALUE PUSH2 0x426 JUMPI PUSH1 0x0 CALLDATASIZE PUSH1 0x3 NOT ADD SLT PUSH2 0x426 JUMPI PUSH2 0x197C PUSH2 0x4C20 JUMP JUMPDEST PUSH2 0x1984 PUSH2 0x4E58 JUMP JUMPDEST PUSH1 0x13 SLOAD PUSH1 0xFF DUP2 AND ISZERO PUSH2 0xDE2 JUMPI PUSH1 0x50 DUP2 SWAP1 SHR PUSH1 0xFF AND PUSH2 0x1BE6 JUMPI PUSH2 0x19F3 SWAP1 PUSH2 0x19C1 PUSH2 0x19B9 PUSH1 0x10 DUP4 SWAP1 SHR PUSH1 0x1 PUSH1 0x1 PUSH1 0x40 SHL SUB AND PUSH2 0x69D JUMP JUMPDEST TIMESTAMP GT ISZERO PUSH2 0x3FE0 JUMP JUMPDEST PUSH1 0x2 PUSH1 0xFF PUSH2 0x19D1 PUSH1 0x3 SLOAD PUSH1 0xFF AND SWAP1 JUMP JUMPDEST AND LT PUSH2 0x1BD9 JUMPI PUSH1 0xFF PUSH2 0x19EB DUP2 PUSH1 0x2 JUMPDEST AND SWAP3 PUSH1 0x8 SHR PUSH1 0xFF AND SWAP1 JUMP JUMPDEST AND LT ISZERO PUSH2 0x4026 JUMP JUMPDEST PUSH2 0x1A34 PUSH2 0x1A01 PUSH1 0x5 SLOAD PUSH2 0x514 JUMP JUMPDEST PUSH1 0x1 PUSH1 0x1 PUSH1 0xA0 SHL SUB DUP2 AND SWAP1 PUSH1 0x20 SWAP1 PUSH2 0x1A1A DUP4 ISZERO ISZERO PUSH2 0x406F JUMP JUMPDEST PUSH1 0x40 MLOAD DUP1 SWAP5 DUP2 SWAP3 PUSH4 0x709DF45 PUSH1 0xE0 SHL DUP4 MSTORE PUSH1 0x4 DUP4 ADD PUSH2 0x624 JUMP JUMPDEST SUB DUP2 PUSH32 0x0 PUSH1 0x1 PUSH1 0x1 PUSH1 0xA0 SHL SUB AND GAS STATICCALL SWAP2 DUP3 ISZERO PUSH2 0x50F JUMPI PUSH1 0x0 SWAP3 PUSH2 0x1BA8 JUMPI JUMPDEST POP PUSH1 0x1 PUSH1 0x1 PUSH1 0xA0 SHL SUB DUP3 AND SWAP2 PUSH2 0x1A88 DUP4 ISZERO ISZERO PUSH2 0x40C5 JUMP JUMPDEST PUSH1 0x40 MLOAD PUSH4 0x70A08231 PUSH1 0xE0 SHL DUP2 MSTORE PUSH32 0x0 PUSH1 0x1 PUSH1 0x1 PUSH1 0xA0 SHL SUB AND PUSH1 0x20 DUP3 DUP1 PUSH2 0x1AD0 ADDRESS PUSH1 0x4 DUP4 ADD PUSH2 0x624 JUMP JUMPDEST SUB DUP2 DUP5 GAS STATICCALL DUP1 ISZERO PUSH2 0x50F JUMPI PUSH32 0xCC9C89312A2AC19BFBB488A107AA51E50162FC6A2AD5DAD80DBBA85E2A9A9368 SWAP4 PUSH2 0x1B70 SWAP4 PUSH1 0x0 SWAP3 PUSH2 0x1B7D JUMPI JUMPDEST POP PUSH2 0x1B24 DUP3 DUP3 DUP2 SWAP6 PUSH2 0x1B1F PUSH2 0x1265 SWAP7 ISZERO ISZERO PUSH2 0x4120 JUMP JUMPDEST PUSH2 0x4E9B JUMP JUMPDEST PUSH2 0x1B33 PUSH1 0xFF NOT PUSH1 0x13 SLOAD AND PUSH1 0x13 SSTORE JUMP JUMPDEST PUSH2 0x1B43 PUSH1 0x13 SLOAD PUSH2 0xFF00 NOT AND PUSH1 0x13 SSTORE JUMP JUMPDEST PUSH2 0x1B4B PUSH2 0x3727 JUMP JUMPDEST PUSH1 0x13 DUP1 SLOAD PUSH1 0xFF PUSH1 0x50 SHL NOT AND SWAP1 SSTORE PUSH2 0x1B67 PUSH1 0xFF NOT PUSH1 0x18 SLOAD AND PUSH1 0x18 SSTORE JUMP JUMPDEST DUP3 PUSH2 0x5AF PUSH2 0x4166 JUMP JUMPDEST SUB SWAP1 LOG3 PUSH2 0x19 PUSH1 0x1 PUSH1 0x0 SSTORE JUMP JUMPDEST PUSH2 0x1265 SWAP3 POP DUP2 SWAP4 PUSH2 0x1B9F PUSH2 0x1B24 SWAP3 PUSH1 0x20 RETURNDATASIZE PUSH1 0x20 GT PUSH2 0x508 JUMPI PUSH2 0x4FA DUP2 DUP4 PUSH2 0x3419 JUMP JUMPDEST SWAP4 POP SWAP4 POP PUSH2 0x1B09 JUMP JUMPDEST PUSH2 0x1BCB SWAP2 SWAP3 POP PUSH1 0x20 RETURNDATASIZE PUSH1 0x20 GT PUSH2 0x1BD2 JUMPI JUMPDEST PUSH2 0x1BC3 DUP2 DUP4 PUSH2 0x3419 JUMP JUMPDEST DUP2 ADD SWAP1 PUSH2 0x40B0 JUMP JUMPDEST SWAP1 CODESIZE PUSH2 0x1A71 JUMP JUMPDEST POP RETURNDATASIZE PUSH2 0x1BB9 JUMP JUMPDEST PUSH1 0xFF PUSH2 0x19EB DUP2 PUSH1 0x1 PUSH2 0x19E0 JUMP JUMPDEST PUSH4 0x781B949D PUSH1 0xE1 SHL PUSH1 0x0 MSTORE PUSH1 0x4 PUSH1 0x0 REVERT JUMPDEST CALLVALUE PUSH2 0x426 JUMPI PUSH1 0x40 CALLDATASIZE PUSH1 0x3 NOT ADD SLT PUSH2 0x426 JUMPI PUSH1 0x4 CALLDATALOAD PUSH2 0x1C14 DUP2 PUSH2 0x520 JUMP JUMPDEST PUSH1 0x24 CALLDATALOAD PUSH2 0x1C1F PUSH2 0x4BFB JUMP JUMPDEST PUSH2 0x1C27 PUSH2 0x4C20 JUMP JUMPDEST PUSH2 0x1C2F PUSH2 0x4E3B JUMP JUMPDEST PUSH2 0x1C37 PUSH2 0x4E58 JUMP JUMPDEST PUSH1 0x1 PUSH1 0x1 PUSH1 0xA0 SHL SUB DUP3 AND SWAP2 DUP3 ISZERO PUSH2 0x985 JUMPI PUSH2 0x1C53 DUP3 ISZERO ISZERO PUSH2 0x4199 JUMP JUMPDEST PUSH1 0x40 MLOAD PUSH4 0x70A08231 PUSH1 0xE0 SHL DUP2 MSTORE PUSH32 0x0 PUSH1 0x1 PUSH1 0x1 PUSH1 0xA0 SHL SUB AND SWAP1 PUSH1 0x20 DUP2 DUP1 PUSH2 0x1C9C ADDRESS PUSH1 0x4 DUP4 ADD PUSH2 0x624 JUMP JUMPDEST SUB DUP2 DUP6 GAS STATICCALL SWAP1 DUP2 ISZERO PUSH2 0x50F JUMPI PUSH2 0x1CBE SWAP2 DUP6 SWAP2 PUSH1 0x0 SWAP2 PUSH2 0x1F04 JUMPI JUMPDEST POP LT ISZERO PUSH2 0x41D7 JUMP JUMPDEST PUSH2 0x1CC6 PUSH2 0x46F0 JUMP JUMPDEST DUP1 ISZERO ISZERO SWAP1 DUP2 PUSH2 0x1EF9 JUMPI JUMPDEST POP PUSH2 0x1DBE JUMPI SWAP2 PUSH2 0x1265 DUP3 PUSH2 0x1D2C DUP4 PUSH2 0x1D47 SWAP6 PUSH1 0x0 DUP1 MLOAD PUSH1 0x20 PUSH2 0x50FD DUP4 CODECOPY DUP2 MLOAD SWAP2 MSTORE SWAP8 PUSH2 0x1CFD PUSH1 0x6 SLOAD PUSH2 0x69D JUMP JUMPDEST PUSH1 0x1 PUSH1 0x1 PUSH1 0x40 SHL SUB DUP2 AND ISZERO ISZERO DUP1 PUSH2 0x1DA8 JUMPI JUMPDEST PUSH2 0x1D85 JUMPI JUMPDEST POP PUSH1 0x7 SLOAD DUP1 DUP5 GT SWAP1 DUP2 PUSH2 0x1D7B JUMPI JUMPDEST POP PUSH2 0x1D60 JUMPI PUSH2 0x4E9B JUMP JUMPDEST PUSH2 0x1D3E TIMESTAMP PUSH1 0x1 PUSH1 0x1 PUSH1 0x40 SHL SUB AND PUSH2 0x4359 JUMP JUMPDEST DUP3 PUSH2 0x5AF PUSH2 0x4384 JUMP JUMPDEST SUB SWAP1 LOG2 PUSH2 0x1D54 PUSH1 0x1 PUSH1 0x0 SSTORE JUMP JUMPDEST PUSH1 0x40 MLOAD PUSH1 0x1 DUP2 MSTORE PUSH1 0x20 SWAP1 RETURN JUMPDEST PUSH2 0x1B1F PUSH2 0x1D6B PUSH2 0x4325 JUMP JUMPDEST DUP5 PUSH2 0x1D74 PUSH2 0x3488 JUMP JUMPDEST SWAP2 DUP6 PUSH2 0x4D80 JUMP JUMPDEST SWAP1 POP ISZERO ISZERO CODESIZE PUSH2 0x1D22 JUMP JUMPDEST PUSH2 0x1D9A PUSH2 0x908 PUSH2 0x1DA2 SWAP3 PUSH2 0x157A PUSH1 0x5 SLOAD PUSH2 0x3EFE JUMP JUMPDEST TIMESTAMP LT ISZERO PUSH2 0x42E4 JUMP JUMPDEST CODESIZE PUSH2 0x1D14 JUMP JUMPDEST POP PUSH2 0x1DB7 PUSH2 0x908 PUSH1 0x5 SLOAD PUSH2 0x3EFE JUMP JUMPDEST ISZERO ISZERO PUSH2 0x1D0F JUMP JUMPDEST PUSH2 0x1EF5 PUSH2 0x1ECF PUSH2 0x1EDD PUSH2 0x1EA2 DUP8 PUSH2 0x1E9D DUP8 DUP10 PUSH1 0xF SLOAD SWAP4 PUSH2 0x1DE5 PUSH2 0x1DE0 DUP7 PUSH2 0x36F5 JUMP JUMPDEST PUSH1 0xF SSTORE JUMP JUMPDEST PUSH2 0x1E2E PUSH2 0x1DF0 PUSH2 0x345C JUMP JUMPDEST PUSH1 0x1 PUSH1 0x1 PUSH1 0xA0 SHL SUB DUP6 AND DUP2 MSTORE PUSH1 0x20 DUP2 ADD DUP5 SWAP1 MSTORE TIMESTAMP PUSH1 0x1 PUSH1 0x1 PUSH1 0x40 SHL SUB AND PUSH1 0x40 DUP3 ADD MSTORE PUSH1 0x0 PUSH1 0x60 DUP3 ADD MSTORE PUSH1 0x0 PUSH1 0x80 DUP3 ADD MSTORE PUSH2 0x1E29 DUP8 PUSH2 0x18AB JUMP JUMPDEST PUSH2 0x421E JUMP JUMPDEST DUP1 DUP6 PUSH32 0x72C131E4F3FEAD122420DFA8D1A10E700E5E3BADEF6EA9B934CE82124515D1CE PUSH1 0x40 MLOAD DUP1 PUSH2 0x1E64 DUP8 DUP3 SWAP2 SWAP1 PUSH1 0x20 DUP4 ADD SWAP3 MSTORE JUMP JUMPDEST SUB SWAP1 LOG3 PUSH1 0x40 MLOAD DUP3 DUP2 MSTORE DUP6 SWAP1 PUSH32 0x1F061FD4833AF7536AD6A70EC12A9DC6288023456766753AAE7FF9197ECFC10 SWAP1 PUSH1 0x20 SWAP1 LOG3 PUSH2 0x5AF PUSH2 0x429B JUMP JUMPDEST PUSH2 0x4F93 JUMP JUMPDEST PUSH1 0x40 MLOAD PUSH20 0x2AAB1D3832B73234B73396B0B8383937BB30B61D PUSH1 0x61 SHL PUSH1 0x20 DUP3 ADD MSTORE SWAP3 DUP4 SWAP2 PUSH1 0x34 DUP4 ADD SWAP1 PUSH2 0x42CD JUMP JUMPDEST SUB PUSH1 0x1F NOT DUP2 ADD DUP4 MSTORE DUP3 PUSH2 0x3419 JUMP JUMPDEST PUSH1 0x40 MLOAD PUSH3 0x461BCD PUSH1 0xE5 SHL DUP2 MSTORE SWAP2 DUP3 SWAP2 PUSH1 0x4 DUP4 ADD PUSH2 0x2A65 JUMP JUMPDEST SUB SWAP1 REVERT JUMPDEST SWAP1 POP DUP4 LT ISZERO CODESIZE PUSH2 0x1CD0 JUMP JUMPDEST PUSH2 0x1F1D SWAP2 POP PUSH1 0x20 RETURNDATASIZE PUSH1 0x20 GT PUSH2 0x508 JUMPI PUSH2 0x4FA DUP2 DUP4 PUSH2 0x3419 JUMP JUMPDEST CODESIZE PUSH2 0x1CB6 JUMP JUMPDEST CALLVALUE PUSH2 0x426 JUMPI PUSH1 0x20 CALLDATASIZE PUSH1 0x3 NOT ADD SLT PUSH2 0x426 JUMPI PUSH1 0x4 CALLDATALOAD PUSH1 0x0 SWAP1 DUP2 MSTORE PUSH1 0xE PUSH1 0x20 MSTORE PUSH1 0x40 SWAP1 KECCAK256 DUP1 SLOAD PUSH1 0x1 DUP3 ADD SLOAD PUSH1 0x2 SWAP1 SWAP3 ADD SLOAD PUSH1 0x1 PUSH1 0x1 PUSH1 0xA0 SHL SUB SWAP1 SWAP2 AND SWAP2 PUSH1 0x1 PUSH1 0x1 PUSH1 0x40 SHL SUB DUP3 AND SWAP2 PUSH2 0x82E SWAP2 PUSH2 0x1F76 DUP5 PUSH2 0x3D20 JUMP JUMPDEST PUSH1 0x40 DUP1 MLOAD PUSH1 0x1 PUSH1 0x1 PUSH1 0xA0 SHL SUB SWAP8 SWAP1 SWAP8 AND DUP8 MSTORE PUSH1 0x20 DUP8 ADD SWAP3 SWAP1 SWAP3 MSTORE PUSH1 0x1 PUSH1 0x1 PUSH1 0x40 SHL SUB SWAP5 DUP6 AND DUP7 DUP4 ADD MSTORE SWAP1 SWAP4 AND PUSH1 0x60 DUP6 ADD DUP2 SWAP1 MSTORE TIMESTAMP GT PUSH1 0x80 DUP6 ADD MSTORE PUSH1 0xFF SWAP3 DUP2 SWAP1 SHR DUP4 AND ISZERO ISZERO PUSH1 0xA0 DUP6 ADD MSTORE PUSH1 0x48 SHR SWAP1 SWAP2 AND ISZERO ISZERO PUSH1 0xC0 DUP4 ADD MSTORE DUP2 SWAP1 PUSH1 0xE0 DUP3 ADD SWAP1 JUMP JUMPDEST CALLVALUE PUSH2 0x426 JUMPI PUSH1 0x20 CALLDATASIZE PUSH1 0x3 NOT ADD SLT PUSH2 0x426 JUMPI PUSH1 0x4 CALLDATALOAD PUSH2 0x1FF1 PUSH2 0x4BFB JUMP JUMPDEST PUSH2 0x1FF9 PUSH2 0x4C20 JUMP JUMPDEST PUSH9 0x56BC75E2D63100000 DUP2 LT PUSH2 0x206D JUMPI PUSH10 0xD3C21BCECCEDA1000000 DUP2 GT PUSH2 0x202F JUMPI DUP1 PUSH2 0x2027 PUSH2 0x19 SWAP3 PUSH1 0x7 SSTORE JUMP JUMPDEST PUSH2 0x4D0 PUSH2 0x43B0 JUMP JUMPDEST PUSH1 0x40 MLOAD PUSH3 0x461BCD PUSH1 0xE5 SHL DUP2 MSTORE PUSH1 0x20 PUSH1 0x4 DUP3 ADD MSTORE PUSH1 0x16 PUSH1 0x24 DUP3 ADD MSTORE PUSH22 0xAAAC7440E8D0E4CAE6D0DED8C840E8DEDE40D0D2CED PUSH1 0x53 SHL PUSH1 0x44 DUP3 ADD MSTORE PUSH1 0x64 SWAP1 REVERT JUMPDEST PUSH1 0x40 MLOAD PUSH3 0x461BCD PUSH1 0xE5 SHL DUP2 MSTORE PUSH1 0x20 PUSH1 0x4 DUP3 ADD MSTORE PUSH1 0x15 PUSH1 0x24 DUP3 ADD MSTORE PUSH21 0x55563A207468726573686F6C6420746F6F206C6F77 PUSH1 0x58 SHL PUSH1 0x44 DUP3 ADD MSTORE PUSH1 0x64 SWAP1 REVERT JUMPDEST CALLVALUE PUSH2 0x426 JUMPI PUSH1 0x0 CALLDATASIZE PUSH1 0x3 NOT ADD SLT PUSH2 0x426 JUMPI PUSH1 0x20 PUSH1 0xF SLOAD PUSH1 0x40 MLOAD SWAP1 DUP2 MSTORE RETURN JUMPDEST CALLVALUE PUSH2 0x426 JUMPI PUSH1 0x0 CALLDATASIZE PUSH1 0x3 NOT ADD SLT PUSH2 0x426 JUMPI PUSH1 0x20 PUSH1 0x40 MLOAD PUSH3 0x278D00 DUP2 MSTORE RETURN JUMPDEST SWAP1 PUSH1 0x20 DUP1 DUP4 MLOAD SWAP3 DUP4 DUP2 MSTORE ADD SWAP3 ADD SWAP1 PUSH1 0x0 JUMPDEST DUP2 DUP2 LT PUSH2 0x2104 JUMPI POP POP POP SWAP1 JUMP JUMPDEST DUP3 MLOAD DUP5 MSTORE PUSH1 0x20 SWAP4 DUP5 ADD SWAP4 SWAP1 SWAP3 ADD SWAP2 PUSH1 0x1 ADD PUSH2 0x20F7 JUMP JUMPDEST SWAP8 SWAP7 SWAP6 SWAP3 PUSH2 0x218C SWAP5 PUSH2 0x2162 PUSH2 0x2170 SWAP3 PUSH2 0x2154 DUP13 PUSH2 0x217E SWAP8 PUSH2 0x2146 PUSH1 0xC0 SWAP13 SWAP9 PUSH1 0xE0 DUP5 MSTORE PUSH1 0xE0 DUP5 ADD SWAP1 PUSH2 0x20E6 JUMP JUMPDEST SWAP2 PUSH1 0x20 DUP2 DUP5 SUB SWAP2 ADD MSTORE PUSH2 0x660 JUMP JUMPDEST DUP13 DUP2 SUB PUSH1 0x40 DUP15 ADD MSTORE SWAP1 PUSH2 0x20E6 JUMP JUMPDEST SWAP1 DUP11 DUP3 SUB PUSH1 0x60 DUP13 ADD MSTORE PUSH2 0x6A9 JUMP JUMPDEST SWAP1 DUP9 DUP3 SUB PUSH1 0x80 DUP11 ADD MSTORE PUSH2 0x6E6 JUMP JUMPDEST SWAP1 DUP7 DUP3 SUB PUSH1 0xA0 DUP9 ADD MSTORE PUSH2 0x6E6 JUMP JUMPDEST SWAP4 ADD MSTORE JUMP JUMPDEST CALLVALUE PUSH2 0x426 JUMPI PUSH1 0x40 CALLDATASIZE PUSH1 0x3 NOT ADD SLT PUSH2 0x426 JUMPI PUSH1 0x24 CALLDATALOAD PUSH1 0x4 CALLDATALOAD DUP2 ISZERO PUSH2 0x23D7 JUMPI JUMPDEST PUSH1 0x64 DUP3 GT PUSH2 0x23CE JUMPI JUMPDEST PUSH1 0xF SLOAD SWAP1 PUSH1 0x0 DUP1 JUMPDEST DUP4 DUP2 LT PUSH2 0x2376 JUMPI POP DUP2 DUP2 GT ISZERO PUSH2 0x236E JUMPI PUSH2 0x21DA DUP3 DUP3 PUSH2 0x3929 JUMP JUMPDEST SWAP4 JUMPDEST DUP1 DUP6 GT PUSH2 0x2366 JUMPI JUMPDEST POP PUSH2 0x21EE DUP5 PUSH2 0x35CC JUMP JUMPDEST PUSH2 0x21F7 DUP6 PUSH2 0x35CC JUMP JUMPDEST SWAP5 PUSH2 0x2201 DUP2 PUSH2 0x35CC JUMP JUMPDEST SWAP2 PUSH2 0x220B DUP3 PUSH2 0x35CC JUMP JUMPDEST PUSH2 0x2214 DUP4 PUSH2 0x35CC JUMP JUMPDEST SWAP1 PUSH2 0x221E DUP5 PUSH2 0x35CC JUMP JUMPDEST SWAP2 PUSH1 0x0 SWAP7 PUSH1 0x0 SWAP6 PUSH1 0x0 JUMPDEST DUP12 DUP2 LT DUP1 PUSH2 0x235D JUMPI JUMPDEST ISZERO PUSH2 0x2347 JUMPI PUSH2 0x223F DUP2 PUSH2 0x18AB JUMP JUMPDEST PUSH1 0x1 DUP2 ADD SLOAD DUP15 DUP14 DUP3 ISZERO ISZERO DUP1 PUSH2 0x232E JUMPI JUMPDEST PUSH2 0x2266 JUMPI JUMPDEST POP POP POP POP PUSH2 0x2261 SWAP1 PUSH2 0x36F5 JUMP JUMPDEST PUSH2 0x2228 JUMP JUMPDEST SWAP1 DUP5 DUP14 SWAP3 DUP16 SWAP7 SWAP16 LT ISZERO PUSH2 0x228F JUMPI JUMPDEST POP POP POP POP POP PUSH2 0x2285 PUSH2 0x2261 SWAP2 PUSH2 0x36F5 JUMP JUMPDEST SWAP10 SWAP1 CODESIZE DUP15 DUP14 PUSH2 0x2254 JUMP JUMPDEST PUSH1 0x2 PUSH2 0x2285 SWAP6 PUSH2 0x2324 SWAP6 PUSH2 0x2261 SWAP9 SWAP16 SWAP6 DUP16 PUSH2 0x22E3 SWAP2 PUSH2 0x22DE PUSH2 0x231F SWAP9 PUSH2 0x2315 SWAP9 PUSH2 0x22BA DUP13 DUP1 SWAP7 PUSH2 0x3634 JUMP JUMPDEST MSTORE PUSH2 0x22CF DUP5 PUSH2 0x22C9 DUP10 SLOAD PUSH2 0x514 JUMP JUMPDEST SWAP3 PUSH2 0x3634 JUMP JUMPDEST PUSH1 0x1 PUSH1 0x1 PUSH1 0xA0 SHL SUB SWAP1 SWAP2 AND SWAP1 MSTORE JUMP JUMPDEST PUSH2 0x3634 JUMP JUMPDEST MSTORE ADD SLOAD PUSH2 0x22F7 DUP12 PUSH2 0x7F1 DUP7 PUSH2 0x22C9 DUP6 PUSH2 0x69D JUMP JUMPDEST PUSH2 0x230C PUSH1 0x40 DUP3 SWAP1 SHR PUSH1 0xFF AND PUSH2 0x80F DUP7 DUP14 PUSH2 0x3634 JUMP JUMPDEST PUSH1 0x48 SHR PUSH1 0xFF AND SWAP1 JUMP JUMPDEST PUSH2 0x80F DUP4 DUP13 PUSH2 0x3634 JUMP JUMPDEST PUSH2 0x36F5 JUMP JUMPDEST SWAP9 SWAP2 DUP11 DUP16 DUP14 PUSH2 0x2274 JUMP JUMPDEST POP PUSH1 0x2 DUP5 ADD SLOAD PUSH2 0x2342 SWAP1 PUSH1 0x48 SHR PUSH1 0xFF AND ISZERO SWAP1 JUMP JUMPDEST PUSH2 0x224F JUMP JUMPDEST DUP13 DUP8 PUSH2 0x82E DUP6 DUP10 DUP9 DUP11 DUP16 PUSH1 0x40 MLOAD SWAP8 DUP9 SWAP8 DUP9 PUSH2 0x211A JUMP JUMPDEST POP DUP2 DUP9 LT PUSH2 0x2231 JUMP JUMPDEST SWAP4 POP CODESIZE PUSH2 0x21E4 JUMP JUMPDEST PUSH1 0x0 SWAP4 PUSH2 0x21DC JUMP JUMPDEST PUSH1 0x1 PUSH2 0x2381 DUP3 PUSH2 0x18AB JUMP JUMPDEST ADD SLOAD ISZERO ISZERO DUP1 PUSH2 0x23AC JUMPI JUMPDEST PUSH2 0x2398 JUMPI JUMPDEST PUSH1 0x1 ADD PUSH2 0x21C0 JUMP JUMPDEST SWAP1 PUSH2 0x23A4 PUSH1 0x1 SWAP2 PUSH2 0x36F5 JUMP JUMPDEST SWAP2 SWAP1 POP PUSH2 0x2390 JUMP JUMPDEST POP PUSH2 0x23C9 PUSH2 0x8AD PUSH1 0x2 PUSH2 0x23BE DUP5 PUSH2 0x18AB JUMP JUMPDEST ADD SLOAD PUSH1 0x48 SHR PUSH1 0xFF AND SWAP1 JUMP JUMPDEST PUSH2 0x238B JUMP JUMPDEST PUSH1 0x64 SWAP2 POP PUSH2 0x21B8 JUMP JUMPDEST PUSH1 0x32 SWAP2 POP PUSH2 0x21AF JUMP JUMPDEST CALLVALUE PUSH2 0x426 JUMPI PUSH1 0x20 CALLDATASIZE PUSH1 0x3 NOT ADD SLT PUSH2 0x426 JUMPI PUSH1 0x4 CALLDATALOAD PUSH2 0x23FD DUP2 PUSH2 0xF8C JUMP JUMPDEST PUSH2 0x2405 PUSH2 0x4BFB JUMP JUMPDEST PUSH32 0x18A225F450380FD39DA2A8986C15805AFCE4EB7F6EFBDFE1D0BB9DF17C8E7923 PUSH1 0x20 DUP3 ISZERO ISZERO PUSH1 0xFF NOT PUSH1 0xA SLOAD AND PUSH1 0xFF DUP3 AND OR PUSH1 0xA SSTORE PUSH1 0x40 MLOAD SWAP1 DUP2 MSTORE LOG1 PUSH1 0x0 SWAP1 ISZERO PUSH2 0x247C JUMPI POP PUSH2 0x19 PUSH1 0x40 MLOAD PUSH2 0x245B PUSH1 0x40 DUP3 PUSH2 0x3419 JUMP JUMPDEST PUSH1 0xC DUP2 MSTORE PUSH12 0x3B30BAB63A2FB33937BD32B7 PUSH1 0xA1 SHL PUSH1 0x20 DUP3 ADD MSTORE PUSH2 0x956 PUSH2 0x3488 JUMP JUMPDEST POP PUSH2 0x19 PUSH1 0x40 MLOAD PUSH2 0x248E PUSH1 0x40 DUP3 PUSH2 0x3419 JUMP JUMPDEST PUSH1 0xE DUP2 MSTORE PUSH14 0x3B30BAB63A2FBAB7333937BD32B7 PUSH1 0x91 SHL PUSH1 0x20 DUP3 ADD MSTORE PUSH2 0x94E JUMP JUMPDEST CALLVALUE PUSH2 0x426 JUMPI PUSH1 0x20 CALLDATASIZE PUSH1 0x3 NOT ADD SLT PUSH2 0x426 JUMPI PUSH1 0x4 CALLDATALOAD PUSH2 0x24CB DUP2 PUSH2 0x520 JUMP JUMPDEST PUSH2 0x24D3 PUSH2 0x4BFB JUMP JUMPDEST PUSH2 0x24DB PUSH2 0x4C20 JUMP JUMPDEST PUSH1 0x1 PUSH1 0x1 PUSH1 0xA0 SHL SUB DUP2 AND SWAP1 DUP2 ISZERO PUSH2 0x985 JUMPI PUSH1 0x5 DUP1 SLOAD PUSH1 0x1 PUSH1 0x1 PUSH1 0xA0 SHL SUB NOT AND DUP4 OR SWAP1 SSTORE PUSH1 0x40 DUP1 MLOAD PUSH2 0x2543 SWAP3 SWAP2 PUSH2 0x2511 DUP2 DUP4 PUSH2 0x3419 JUMP JUMPDEST PUSH1 0xF DUP3 MSTORE PUSH15 0x1B995E1D17DBD997DADA5B97DCD95D PUSH1 0x8A SHL PUSH1 0x20 DUP4 ADD MSTORE MLOAD SWAP2 PUSH2 0x253A PUSH1 0x20 DUP5 PUSH2 0x3419 JUMP JUMPDEST PUSH1 0x0 DUP4 MSTORE PUSH2 0x4CC2 JUMP JUMPDEST PUSH32 0x5E5418A3C3D9E12CAE95B949EFCF26CFDFFB4DBC73CD1D2532A97F656E634BF5 PUSH1 0x0 DUP1 LOG2 STOP JUMPDEST CALLVALUE PUSH2 0x426 JUMPI PUSH1 0x0 CALLDATASIZE PUSH1 0x3 NOT ADD SLT PUSH2 0x426 JUMPI PUSH1 0x1 SLOAD PUSH1 0x40 MLOAD PUSH1 0x1 PUSH1 0x1 PUSH1 0xA0 SHL SUB SWAP1 SWAP2 AND DUP2 MSTORE PUSH1 0x20 SWAP1 RETURN JUMPDEST CALLVALUE PUSH2 0x426 JUMPI PUSH1 0x20 CALLDATASIZE PUSH1 0x3 NOT ADD SLT PUSH2 0x426 JUMPI PUSH1 0x4 CALLDATALOAD PUSH1 0x1 PUSH1 0x1 PUSH1 0x40 SHL SUB DUP2 AND DUP1 DUP3 SUB PUSH2 0x426 JUMPI PUSH2 0x25C0 PUSH2 0x4BFB JUMP JUMPDEST PUSH2 0x25C8 PUSH2 0x4C20 JUMP JUMPDEST PUSH3 0x93A80 DUP2 GT PUSH2 0x2658 JUMPI PUSH32 0x8CDA612AE0C82A8CB2D30EBDDC4E01A65F44D092F2D1537454F126F009974F16 PUSH2 0x2645 PUSH2 0x19 SWAP4 PUSH2 0xE10 DUP5 LT DUP1 ISZERO SWAP1 PUSH2 0x2650 JUMPI JUMPDEST PUSH2 0x2610 SWAP1 PUSH2 0x43DB JUMP JUMPDEST PUSH1 0x6 DUP1 SLOAD PUSH1 0x1 PUSH1 0x1 PUSH1 0x40 SHL SUB NOT AND PUSH1 0x1 PUSH1 0x1 PUSH1 0x40 SHL SUB DUP4 AND OR SWAP1 SSTORE PUSH1 0x40 MLOAD PUSH1 0x1 PUSH1 0x1 PUSH1 0x40 SHL SUB SWAP1 SWAP2 AND DUP2 MSTORE SWAP1 DUP2 SWAP1 PUSH1 0x20 DUP3 ADD SWAP1 JUMP JUMPDEST SUB SWAP1 LOG1 PUSH2 0x4D0 PUSH2 0x441F JUMP JUMPDEST POP DUP4 ISZERO PUSH2 0x2607 JUMP JUMPDEST PUSH1 0x40 MLOAD PUSH3 0x461BCD PUSH1 0xE5 SHL DUP2 MSTORE PUSH1 0x20 PUSH1 0x4 DUP3 ADD MSTORE PUSH1 0x14 PUSH1 0x24 DUP3 ADD MSTORE PUSH20 0x55563A636F6F6C646F776E2D746F6F2D6C6F6E67 PUSH1 0x60 SHL PUSH1 0x44 DUP3 ADD MSTORE PUSH1 0x64 SWAP1 REVERT JUMPDEST CALLVALUE PUSH2 0x426 JUMPI PUSH1 0x20 CALLDATASIZE PUSH1 0x3 NOT ADD SLT PUSH2 0x426 JUMPI PUSH1 0x4 CALLDATALOAD PUSH2 0x26B1 DUP2 PUSH2 0xF8C JUMP JUMPDEST PUSH2 0x26B9 PUSH2 0x4BFB JUMP JUMPDEST PUSH2 0x26C1 PUSH2 0x4C20 JUMP JUMPDEST PUSH1 0xC DUP1 SLOAD PUSH3 0xFF0000 NOT AND DUP3 ISZERO ISZERO PUSH1 0x10 SHL PUSH3 0xFF0000 AND OR SWAP1 SSTORE ISZERO PUSH2 0x274F JUMPI PUSH1 0x40 MLOAD PUSH4 0x70A08231 PUSH1 0xE0 SHL DUP2 MSTORE PUSH1 0x20 DUP2 DUP1 PUSH2 0x26FC ADDRESS PUSH1 0x4 DUP4 ADD PUSH2 0x624 JUMP JUMPDEST SUB DUP2 PUSH32 0x0 PUSH1 0x1 PUSH1 0x1 PUSH1 0xA0 SHL SUB AND GAS STATICCALL DUP1 ISZERO PUSH2 0x50F JUMPI PUSH2 0x2741 SWAP2 PUSH1 0x0 SWAP2 PUSH2 0x4E0 JUMPI POP PUSH1 0xD SSTORE JUMP JUMPDEST PUSH2 0x19 PUSH1 0xD SLOAD PUSH2 0x4D0 PUSH2 0x4480 JUMP JUMPDEST PUSH2 0x2759 PUSH1 0x0 PUSH1 0xD SSTORE JUMP JUMPDEST PUSH2 0x19 PUSH2 0x94E PUSH2 0x4449 JUMP JUMPDEST CALLVALUE PUSH2 0x426 JUMPI PUSH1 0x20 CALLDATASIZE PUSH1 0x3 NOT ADD SLT PUSH2 0x426 JUMPI PUSH1 0x4 CALLDATALOAD PUSH2 0x2781 DUP2 PUSH2 0x520 JUMP JUMPDEST PUSH32 0x0 PUSH1 0x1 PUSH1 0x1 PUSH1 0xA0 SHL SUB AND CALLER SUB PUSH2 0x2807 JUMPI PUSH1 0x1 DUP1 SLOAD PUSH1 0x1 PUSH1 0x1 PUSH1 0xA0 SHL SUB NOT AND PUSH1 0x1 PUSH1 0x1 PUSH1 0xA0 SHL SUB SWAP3 SWAP1 SWAP3 AND SWAP2 DUP3 OR SWAP1 SSTORE PUSH2 0x27E0 PUSH2 0x27DB PUSH2 0x44B6 JUMP JUMPDEST PUSH2 0x5047 JUMP JUMPDEST PUSH32 0x50146D0E3C60AA1D17A70635B05494F864E86144A2201275021014FBF08BAFE2 PUSH1 0x0 DUP1 LOG2 STOP JUMPDEST PUSH1 0x40 MLOAD PUSH3 0x461BCD PUSH1 0xE5 SHL DUP2 MSTORE PUSH1 0x20 PUSH1 0x4 DUP3 ADD MSTORE PUSH1 0xA PUSH1 0x24 DUP3 ADD MSTORE PUSH10 0x2AAB1D37B7363CA43AB1 PUSH1 0xB1 SHL PUSH1 0x44 DUP3 ADD MSTORE PUSH1 0x64 SWAP1 REVERT JUMPDEST CALLVALUE PUSH2 0x426 JUMPI PUSH1 0x0 CALLDATASIZE PUSH1 0x3 NOT ADD SLT PUSH2 0x426 JUMPI PUSH1 0x8 SLOAD PUSH1 0x40 DUP1 MLOAD SWAP2 SWAP1 SHR PUSH1 0x1 PUSH1 0x1 PUSH1 0x40 SHL SUB AND DUP2 MSTORE PUSH1 0x20 SWAP1 RETURN JUMPDEST CALLVALUE PUSH2 0x426 JUMPI PUSH1 0x0 CALLDATASIZE PUSH1 0x3 NOT ADD SLT PUSH2 0x426 JUMPI PUSH1 0x20 PUSH1 0x9 SLOAD PUSH1 0x40 MLOAD SWAP1 DUP2 MSTORE RETURN JUMPDEST CALLVALUE PUSH2 0x426 JUMPI PUSH1 0x20 CALLDATASIZE PUSH1 0x3 NOT ADD SLT PUSH2 0x426 JUMPI PUSH1 0x4 CALLDATALOAD PUSH2 0x289E PUSH2 0x4BFB JUMP JUMPDEST PUSH2 0x28A6 PUSH2 0x4C20 JUMP JUMPDEST PUSH2 0x28AE PUSH2 0x4E3B JUMP JUMPDEST PUSH2 0x28B6 PUSH2 0x4E58 JUMP JUMPDEST PUSH2 0x28BF DUP2 PUSH2 0x18AB JUMP JUMPDEST SWAP1 PUSH1 0x1 DUP3 ADD SWAP1 DUP2 SLOAD ISZERO PUSH2 0x16EF JUMPI PUSH1 0x2 DUP4 ADD DUP1 SLOAD SWAP1 PUSH1 0x48 DUP3 SWAP1 SHR PUSH1 0xFF AND PUSH2 0x189A JUMPI PUSH2 0x2912 PUSH2 0x290A PUSH2 0x908 PUSH2 0x2905 DUP6 PUSH2 0x908 PUSH2 0x2900 PUSH2 0x2925 SWAP9 PUSH1 0xFF SWAP1 PUSH1 0x40 SHR AND SWAP1 JUMP JUMPDEST PUSH2 0x44E5 JUMP JUMPDEST PUSH2 0x3D20 JUMP JUMPDEST TIMESTAMP GT ISZERO PUSH2 0x4527 JUMP JUMPDEST DUP1 SLOAD PUSH1 0xFF PUSH1 0x48 SHL NOT AND PUSH1 0x1 PUSH1 0x48 SHL OR SWAP1 SSTORE JUMP JUMPDEST PUSH1 0x40 MLOAD PUSH4 0x70A08231 PUSH1 0xE0 SHL DUP2 MSTORE SWAP3 PUSH32 0x0 PUSH1 0x1 PUSH1 0x1 PUSH1 0xA0 SHL SUB AND SWAP1 PUSH1 0x20 DUP6 DUP1 PUSH2 0x296F ADDRESS PUSH1 0x4 DUP4 ADD PUSH2 0x624 JUMP JUMPDEST SUB DUP2 DUP6 GAS STATICCALL SWAP5 DUP6 ISZERO PUSH2 0x50F JUMPI PUSH2 0x5BD SWAP6 PUSH2 0x29C6 SWAP4 PUSH2 0x29AE SWAP3 PUSH1 0x0 SWAP3 PUSH2 0x2A26 JUMPI JUMPDEST POP PUSH2 0x299E DUP8 SLOAD DUP1 SWAP4 LT ISZERO PUSH2 0x41D7 JUMP JUMPDEST PUSH2 0x29A8 DUP5 SLOAD PUSH2 0x514 JUMP JUMPDEST SWAP1 PUSH2 0x4E9B JUMP JUMPDEST PUSH2 0x29C0 TIMESTAMP PUSH1 0x1 PUSH1 0x1 PUSH1 0x40 SHL SUB AND PUSH2 0x4359 JUMP JUMPDEST SLOAD PUSH2 0x514 JUMP JUMPDEST SWAP2 SLOAD PUSH1 0x40 MLOAD DUP2 DUP2 MSTORE SWAP1 SWAP2 PUSH1 0x1 PUSH1 0x1 PUSH1 0xA0 SHL SUB DUP5 AND SWAP2 DUP3 SWAP2 SWAP1 PUSH32 0xDA19024F6708CE28E75D9C0EC389FB05A8E5CC9DFE520F61239C10D51A11E59C SWAP1 PUSH1 0x20 SWAP1 LOG3 PUSH1 0x40 MLOAD DUP3 DUP2 MSTORE PUSH1 0x0 DUP1 MLOAD PUSH1 0x20 PUSH2 0x50FD DUP4 CODECOPY DUP2 MLOAD SWAP2 MSTORE SWAP1 PUSH1 0x20 SWAP1 LOG2 PUSH2 0x5AF PUSH2 0x456C JUMP JUMPDEST PUSH2 0x2A40 SWAP2 SWAP3 POP PUSH1 0x20 RETURNDATASIZE PUSH1 0x20 GT PUSH2 0x508 JUMPI PUSH2 0x4FA DUP2 DUP4 PUSH2 0x3419 JUMP JUMPDEST SWAP1 CODESIZE PUSH2 0x298F JUMP JUMPDEST CALLVALUE PUSH2 0x426 JUMPI PUSH1 0x0 CALLDATASIZE PUSH1 0x3 NOT ADD SLT PUSH2 0x426 JUMPI PUSH1 0x20 PUSH1 0x7 SLOAD PUSH1 0x40 MLOAD SWAP1 DUP2 MSTORE RETURN JUMPDEST SWAP1 PUSH1 0x20 PUSH2 0x753 SWAP3 DUP2 DUP2 MSTORE ADD SWAP1 PUSH2 0x13DF JUMP JUMPDEST CALLVALUE PUSH2 0x426 JUMPI PUSH1 0x60 CALLDATASIZE PUSH1 0x3 NOT ADD SLT PUSH2 0x426 JUMPI PUSH1 0x4 CALLDATALOAD PUSH2 0x2A93 DUP2 PUSH2 0x520 JUMP JUMPDEST PUSH1 0x24 CALLDATALOAD SWAP1 PUSH1 0x44 CALLDATALOAD SWAP1 PUSH1 0x1 PUSH1 0x1 PUSH1 0x40 SHL SUB DUP3 GT PUSH2 0x426 JUMPI CALLDATASIZE PUSH1 0x23 DUP4 ADD SLT ISZERO PUSH2 0x426 JUMPI PUSH1 0x4 DUP3 ADD CALLDATALOAD SWAP1 PUSH1 0x1 PUSH1 0x1 PUSH1 0x40 SHL SUB DUP3 GT PUSH2 0x426 JUMPI CALLDATASIZE PUSH1 0x24 DUP4 DUP6 ADD ADD GT PUSH2 0x426 JUMPI PUSH2 0x82E SWAP4 PUSH1 0x24 PUSH2 0x2AE5 SWAP5 ADD SWAP2 PUSH2 0x459D JUMP JUMPDEST PUSH1 0x40 MLOAD SWAP2 DUP3 SWAP2 DUP3 PUSH2 0x2A65 JUMP JUMPDEST CALLVALUE PUSH2 0x426 JUMPI PUSH1 0x0 CALLDATASIZE PUSH1 0x3 NOT ADD SLT PUSH2 0x426 JUMPI PUSH1 0x40 MLOAD PUSH32 0x0 PUSH1 0x1 PUSH1 0x1 PUSH1 0xA0 SHL SUB AND DUP2 MSTORE PUSH1 0x20 SWAP1 RETURN JUMPDEST CALLVALUE PUSH2 0x426 JUMPI PUSH1 0x0 CALLDATASIZE PUSH1 0x3 NOT ADD SLT PUSH2 0x426 JUMPI PUSH1 0x40 MLOAD PUSH32 0x0 PUSH1 0x1 PUSH1 0x1 PUSH1 0xA0 SHL SUB AND DUP2 MSTORE PUSH1 0x20 SWAP1 RETURN JUMPDEST CALLVALUE PUSH2 0x426 JUMPI PUSH1 0x0 CALLDATASIZE PUSH1 0x3 NOT ADD SLT PUSH2 0x426 JUMPI PUSH2 0x2B94 PUSH2 0x4C20 JUMP JUMPDEST PUSH2 0x2BA3 PUSH2 0x8AD PUSH2 0xC3E CALLER PUSH2 0xA99 JUMP JUMPDEST PUSH2 0xDF3 JUMPI PUSH1 0x13 SLOAD PUSH1 0xFF DUP2 AND ISZERO PUSH2 0xDE2 JUMPI PUSH1 0x50 DUP2 SWAP1 SHR PUSH1 0xFF AND PUSH2 0x1BE6 JUMPI PUSH2 0x2BC8 CALLER PUSH2 0xAE7 JUMP JUMPDEST SWAP1 PUSH2 0x2BD9 PUSH2 0xC3E PUSH1 0x14 SLOAD DUP1 SWAP5 PUSH2 0x18BB JUMP JUMPDEST PUSH2 0xDD1 JUMPI PUSH2 0x2C07 SWAP2 PUSH2 0xC8E SWAP2 PUSH2 0x2BFE SWAP1 PUSH2 0x19B9 SWAP1 PUSH1 0x10 SHR PUSH1 0x1 PUSH1 0x1 PUSH1 0x40 SHL SUB AND PUSH2 0x69D JUMP JUMPDEST PUSH2 0xC89 CALLER PUSH2 0xAE7 JUMP JUMPDEST PUSH2 0x2C35 PUSH2 0x2C1D PUSH2 0xCAD PUSH1 0x13 SLOAD PUSH1 0xFF SWAP1 PUSH1 0x8 SHR AND SWAP1 JUMP JUMPDEST PUSH1 0x13 SLOAD PUSH2 0xFF00 NOT AND PUSH1 0x8 SWAP2 SWAP1 SWAP2 SHL PUSH2 0xFF00 AND OR PUSH1 0x13 SSTORE JUMP JUMPDEST PUSH1 0x13 SLOAD PUSH2 0x2C4A SWAP1 PUSH1 0x8 SHR PUSH1 0xFF AND PUSH2 0xEF8 PUSH2 0x46A4 JUMP JUMPDEST PUSH1 0x13 SLOAD PUSH1 0x8 SHR PUSH1 0xFF AND PUSH1 0x40 MLOAD PUSH1 0xFF SWAP1 SWAP2 AND DUP2 MSTORE CALLER SWAP1 PUSH32 0xEA7DFE497D90ADCFBA43CCD872C922D16653039B5D89B207BA8554C2CFF14CD SWAP1 DUP1 PUSH1 0x20 DUP2 ADD PUSH2 0xDA1 JUMP JUMPDEST CALLVALUE PUSH2 0x426 JUMPI PUSH1 0x0 CALLDATASIZE PUSH1 0x3 NOT ADD SLT PUSH2 0x426 JUMPI PUSH2 0x2CA7 PUSH1 0x1 SLOAD PUSH2 0x514 JUMP JUMPDEST PUSH1 0x40 MLOAD PUSH4 0x70A08231 PUSH1 0xE0 SHL DUP2 MSTORE SWAP1 PUSH1 0x20 DUP3 DUP1 PUSH2 0x2CC6 ADDRESS PUSH1 0x4 DUP4 ADD PUSH2 0x624 JUMP JUMPDEST SUB DUP2 PUSH32 0x0 PUSH1 0x1 PUSH1 0x1 PUSH1 0xA0 SHL SUB AND GAS STATICCALL SWAP2 DUP3 ISZERO PUSH2 0x50F JUMPI PUSH1 0x0 SWAP3 PUSH2 0x2E2E JUMPI JUMPDEST POP SELFBALANCE PUSH2 0x2D11 PUSH1 0xA SLOAD PUSH1 0xFF AND SWAP1 JUMP JUMPDEST PUSH32 0x0 PUSH1 0x1 PUSH1 0x1 PUSH1 0xA0 SHL SUB AND SWAP2 SWAP1 DUP3 ISZERO ISZERO DUP1 PUSH2 0x2DD2 JUMPI JUMPDEST PUSH1 0x3 SLOAD PUSH2 0x82E SWAP5 POP PUSH1 0xFF AND PUSH2 0x2D5C PUSH1 0x5 SLOAD PUSH2 0x514 JUMP JUMPDEST SWAP2 PUSH2 0x2D6B PUSH2 0xFEF PUSH1 0x10 SLOAD PUSH2 0x514 JUMP JUMPDEST ISZERO ISZERO SWAP4 PUSH2 0x2D7A PUSH1 0x13 SLOAD PUSH1 0xFF AND SWAP1 JUMP JUMPDEST PUSH1 0x40 DUP1 MLOAD PUSH1 0x1 PUSH1 0x1 PUSH1 0xA0 SHL SUB SWAP11 DUP12 AND DUP2 MSTORE PUSH1 0x20 DUP2 ADD SWAP12 SWAP1 SWAP12 MSTORE DUP11 ADD SWAP7 SWAP1 SWAP7 MSTORE ISZERO ISZERO PUSH1 0x60 DUP10 ADD MSTORE ISZERO ISZERO PUSH1 0x80 DUP9 ADD MSTORE PUSH1 0xFF AND PUSH1 0xA0 DUP8 ADD MSTORE SWAP1 SWAP4 AND PUSH1 0xC0 DUP6 ADD MSTORE SWAP2 ISZERO ISZERO PUSH1 0xE0 DUP5 ADD MSTORE SWAP1 ISZERO ISZERO PUSH2 0x100 DUP4 ADD MSTORE DUP2 SWAP1 PUSH2 0x120 DUP3 ADD SWAP1 JUMP JUMPDEST POP PUSH1 0x20 PUSH1 0x40 MLOAD DUP1 SWAP5 PUSH4 0x1293EFBB PUSH1 0xE2 SHL DUP3 MSTORE DUP2 DUP1 PUSH2 0x2DF3 ADDRESS PUSH1 0x4 DUP4 ADD PUSH2 0x624 JUMP JUMPDEST SUB SWAP2 GAS STATICCALL DUP1 ISZERO PUSH2 0x50F JUMPI PUSH2 0x82E SWAP4 PUSH1 0x0 SWAP2 PUSH2 0x2E0F JUMPI JUMPDEST POP PUSH2 0x2D46 JUMP JUMPDEST PUSH2 0x2E28 SWAP2 POP PUSH1 0x20 RETURNDATASIZE PUSH1 0x20 GT PUSH2 0x12CE JUMPI PUSH2 0x12BC DUP2 DUP4 PUSH2 0x3419 JUMP JUMPDEST CODESIZE PUSH2 0x2E09 JUMP JUMPDEST PUSH2 0x2E48 SWAP2 SWAP3 POP PUSH1 0x20 RETURNDATASIZE PUSH1 0x20 GT PUSH2 0x508 JUMPI PUSH2 0x4FA DUP2 DUP4 PUSH2 0x3419 JUMP JUMPDEST SWAP1 CODESIZE PUSH2 0x2D03 JUMP JUMPDEST CALLVALUE PUSH2 0x426 JUMPI PUSH1 0x0 CALLDATASIZE PUSH1 0x3 NOT ADD SLT PUSH2 0x426 JUMPI PUSH1 0x13 SLOAD PUSH1 0x2 PUSH1 0xFF PUSH1 0x3 SLOAD AND LT ISZERO PUSH1 0x0 EQ PUSH2 0x2EC3 JUMPI PUSH1 0x2 SWAP1 JUMPDEST PUSH1 0x40 DUP1 MLOAD PUSH1 0xFF DUP4 DUP2 AND ISZERO ISZERO DUP3 MSTORE PUSH1 0x8 DUP5 SWAP1 SHR DUP2 AND PUSH1 0x20 DUP4 ADD MSTORE PUSH1 0x1 PUSH1 0x1 PUSH1 0x40 SHL SUB PUSH1 0x10 DUP6 SWAP1 SHR AND SWAP3 DUP3 ADD SWAP3 SWAP1 SWAP3 MSTORE PUSH1 0x50 SWAP3 SWAP1 SWAP3 SHR DUP2 AND ISZERO ISZERO PUSH1 0x60 DUP4 ADD MSTORE SWAP2 SWAP1 SWAP2 AND PUSH1 0x80 DUP3 ADD MSTORE PUSH1 0xA0 SWAP1 RETURN JUMPDEST PUSH1 0x1 SWAP1 PUSH2 0x2E78 JUMP JUMPDEST CALLVALUE PUSH2 0x426 JUMPI PUSH1 0x0 CALLDATASIZE PUSH1 0x3 NOT ADD SLT PUSH2 0x426 JUMPI PUSH1 0x20 PUSH2 0x2EE6 PUSH2 0x46F0 JUMP JUMPDEST PUSH1 0x40 MLOAD SWAP1 DUP2 MSTORE RETURN JUMPDEST CALLVALUE PUSH2 0x426 JUMPI PUSH1 0x60 CALLDATASIZE PUSH1 0x3 NOT ADD SLT PUSH2 0x426 JUMPI PUSH1 0x4 CALLDATALOAD PUSH2 0x2F0B DUP2 PUSH2 0xF8C JUMP JUMPDEST PUSH1 0x24 CALLDATALOAD SWAP1 PUSH1 0x44 CALLDATALOAD SWAP2 PUSH2 0xFFFF DUP4 AND SWAP2 DUP3 DUP5 SUB PUSH2 0x426 JUMPI PUSH2 0x2F28 PUSH2 0x4BFB JUMP JUMPDEST PUSH2 0x2F30 PUSH2 0x4C20 JUMP JUMPDEST DUP1 ISZERO PUSH2 0x2FD9 JUMPI PUSH1 0x0 DUP1 MLOAD PUSH1 0x20 PUSH2 0x513D DUP4 CODECOPY DUP2 MLOAD SWAP2 MSTORE PUSH2 0x2FB4 PUSH2 0x19 SWAP6 DUP6 ISZERO ISZERO DUP1 PUSH2 0x2FCD JUMPI JUMPDEST PUSH2 0x2F5E SWAP1 PUSH2 0x47DC JUMP JUMPDEST PUSH2 0x2F74 DUP2 PUSH2 0xFFFF AND PUSH2 0xFFFF NOT PUSH1 0xC SLOAD AND OR PUSH1 0xC SSTORE JUMP JUMPDEST PUSH2 0x2F90 DUP5 PUSH1 0xA SLOAD PUSH2 0xFF00 NOT AND SWAP1 ISZERO ISZERO PUSH1 0x8 SHL PUSH2 0xFF00 AND OR PUSH1 0xA SSTORE JUMP JUMPDEST PUSH1 0x40 DUP1 MLOAD DUP6 ISZERO ISZERO DUP2 MSTORE PUSH1 0x20 DUP2 ADD DUP8 SWAP1 MSTORE PUSH2 0xFFFF SWAP1 SWAP3 AND SWAP1 DUP3 ADD MSTORE SWAP1 DUP2 SWAP1 PUSH1 0x60 DUP3 ADD SWAP1 JUMP JUMPDEST SUB SWAP1 LOG1 ISZERO PUSH2 0x2FC6 JUMPI POP JUMPDEST PUSH2 0x4D0 PUSH2 0x4834 JUMP JUMPDEST SWAP1 POP PUSH2 0x2FBE JUMP JUMPDEST POP PUSH2 0x2710 DUP7 GT ISZERO PUSH2 0x2F55 JUMP JUMPDEST PUSH1 0x7 SLOAD DUP3 LT PUSH2 0x3006 JUMPI PUSH1 0x0 DUP1 MLOAD PUSH1 0x20 PUSH2 0x513D DUP4 CODECOPY DUP2 MLOAD SWAP2 MSTORE PUSH2 0x2FB4 PUSH2 0x19 SWAP6 PUSH2 0x3001 DUP6 PUSH1 0xB SSTORE JUMP JUMPDEST PUSH2 0x2F74 JUMP JUMPDEST PUSH1 0x40 MLOAD PUSH3 0x461BCD PUSH1 0xE5 SHL DUP2 MSTORE PUSH1 0x20 PUSH1 0x4 DUP3 ADD MSTORE PUSH1 0x27 PUSH1 0x24 DUP3 ADD MSTORE PUSH32 0x55563A206D757374206265203E3D206C61726765207472616E73666572207468 PUSH1 0x44 DUP3 ADD MSTORE PUSH7 0x1C995CDA1BDB19 PUSH1 0xCA SHL PUSH1 0x64 DUP3 ADD MSTORE PUSH1 0x84 SWAP1 REVERT JUMPDEST CALLVALUE PUSH2 0x426 JUMPI PUSH1 0x0 CALLDATASIZE PUSH1 0x3 NOT ADD SLT PUSH2 0x426 JUMPI PUSH1 0x6 SLOAD PUSH1 0x40 MLOAD PUSH1 0x1 PUSH1 0x1 PUSH1 0x40 SHL SUB SWAP1 SWAP2 AND DUP2 MSTORE PUSH1 0x20 SWAP1 RETURN JUMPDEST CALLVALUE PUSH2 0x426 JUMPI PUSH1 0x0 CALLDATASIZE PUSH1 0x3 NOT ADD SLT PUSH2 0x426 JUMPI PUSH1 0x20 PUSH2 0xFFFF PUSH1 0xC SLOAD AND PUSH1 0x40 MLOAD SWAP1 DUP2 MSTORE RETURN JUMPDEST CALLVALUE PUSH2 0x426 JUMPI PUSH1 0x20 CALLDATASIZE PUSH1 0x3 NOT ADD SLT PUSH2 0x426 JUMPI PUSH2 0x19 PUSH1 0x4 CALLDATALOAD PUSH2 0x30C6 DUP2 PUSH2 0x520 JUMP JUMPDEST PUSH2 0x30CE PUSH2 0x4C20 JUMP JUMPDEST PUSH2 0x4900 JUMP JUMPDEST CALLVALUE PUSH2 0x426 JUMPI PUSH1 0x0 CALLDATASIZE PUSH1 0x3 NOT ADD SLT PUSH2 0x426 JUMPI PUSH2 0x30EC PUSH2 0x4C20 JUMP JUMPDEST PUSH1 0x10 SLOAD PUSH2 0x30F8 DUP2 PUSH2 0x514 JUMP JUMPDEST PUSH1 0x1 PUSH1 0x1 PUSH1 0xA0 SHL SUB DUP2 AND SWAP2 SWAP1 DUP3 ISZERO PUSH2 0xA6E JUMPI PUSH2 0x3178 SWAP2 PUSH2 0x3156 SWAP1 PUSH2 0x312B PUSH2 0xE74 PUSH1 0xA8 DUP4 SWAP1 SHR PUSH1 0x1 PUSH1 0x1 PUSH1 0x40 SHL SUB AND PUSH2 0x69D JUMP JUMPDEST PUSH1 0x2 PUSH1 0xE8 DUP3 SWAP1 SHR PUSH1 0xFF AND LT PUSH2 0x31D7 JUMPI PUSH1 0xFF PUSH2 0x314E DUP2 PUSH1 0x2 JUMPDEST AND SWAP3 PUSH1 0xA0 SHR PUSH1 0xFF AND SWAP1 JUMP JUMPDEST AND LT ISZERO PUSH2 0x4ADB JUMP JUMPDEST PUSH1 0x1 DUP1 SLOAD PUSH1 0x1 PUSH1 0x1 PUSH1 0xA0 SHL SUB NOT AND PUSH1 0x1 PUSH1 0x1 PUSH1 0xA0 SHL SUB SWAP3 SWAP1 SWAP3 AND SWAP2 SWAP1 SWAP2 OR SWAP1 SSTORE JUMP JUMPDEST PUSH1 0x10 DUP1 SLOAD PUSH1 0x1 PUSH1 0x1 PUSH1 0xA0 SHL SUB NOT AND SWAP1 SSTORE PUSH2 0x3190 PUSH2 0x3790 JUMP JUMPDEST PUSH2 0x3198 PUSH2 0x379F JUMP JUMPDEST PUSH1 0x10 DUP1 SLOAD PUSH1 0xFF PUSH1 0xE8 SHL NOT AND SWAP1 SSTORE PUSH2 0x31B0 PUSH2 0x27DB PUSH2 0x4B23 JUMP JUMPDEST PUSH32 0x9504E318C48C2D15540E6FAAEA014F2855C06FC4DF211F5E26A8FB99A6BE7FDF PUSH1 0x0 DUP1 LOG2 STOP JUMPDEST PUSH1 0xFF PUSH2 0x314E DUP2 PUSH1 0x1 PUSH2 0x3143 JUMP JUMPDEST CALLVALUE PUSH2 0x426 JUMPI PUSH1 0x60 CALLDATASIZE PUSH1 0x3 NOT ADD SLT PUSH2 0x426 JUMPI PUSH1 0x4 CALLDATALOAD PUSH2 0x3201 DUP2 PUSH2 0x520 JUMP JUMPDEST PUSH1 0x24 CALLDATALOAD PUSH2 0x320D DUP2 PUSH2 0x520 JUMP JUMPDEST PUSH1 0x44 CALLDATALOAD SWAP2 PUSH2 0x3219 PUSH2 0x4BFB JUMP JUMPDEST PUSH2 0x3221 PUSH2 0x4C20 JUMP JUMPDEST PUSH2 0x3229 PUSH2 0x4E3B JUMP JUMPDEST PUSH1 0x1 PUSH1 0x1 PUSH1 0xA0 SHL SUB AND SWAP2 DUP3 ISZERO ISZERO DUP1 PUSH2 0x32C2 JUMPI JUMPDEST ISZERO PUSH2 0x328A JUMPI PUSH2 0x19 SWAP3 PUSH2 0x3282 SWAP1 DUP3 SWAP1 DUP5 SWAP1 PUSH2 0x1B1F PUSH32 0x0 PUSH1 0x1 PUSH1 0x1 PUSH1 0xA0 SHL SUB AND DUP3 EQ ISZERO PUSH2 0x4B53 JUMP JUMPDEST PUSH2 0x5AF PUSH2 0x4B9F JUMP JUMPDEST PUSH1 0x40 MLOAD PUSH3 0x461BCD PUSH1 0xE5 SHL DUP2 MSTORE PUSH1 0x20 PUSH1 0x4 DUP3 ADD MSTORE PUSH1 0x10 PUSH1 0x24 DUP3 ADD MSTORE PUSH16 0x55563A207A65726F2061646472657373 PUSH1 0x80 SHL PUSH1 0x44 DUP3 ADD MSTORE PUSH1 0x64 SWAP1 REVERT JUMPDEST POP PUSH1 0x1 PUSH1 0x1 PUSH1 0xA0 SHL SUB DUP3 AND ISZERO ISZERO PUSH2 0x323C JUMP JUMPDEST CALLVALUE PUSH2 0x426 JUMPI PUSH1 0x0 CALLDATASIZE PUSH1 0x3 NOT ADD SLT PUSH2 0x426 JUMPI PUSH1 0x20 PUSH1 0x40 MLOAD PUSH3 0x93A80 DUP2 MSTORE RETURN JUMPDEST CALLVALUE PUSH2 0x426 JUMPI PUSH1 0x20 CALLDATASIZE PUSH1 0x3 NOT ADD SLT PUSH2 0x426 JUMPI PUSH1 0x4 CALLDATALOAD PUSH2 0x330E PUSH2 0x4BFB JUMP JUMPDEST DUP1 PUSH1 0x0 MSTORE PUSH1 0xE PUSH1 0x20 MSTORE PUSH1 0x40 PUSH1 0x0 KECCAK256 PUSH1 0x1 DUP2 ADD SLOAD ISZERO PUSH2 0x16EF JUMPI PUSH1 0x2 ADD SWAP1 DUP2 SLOAD PUSH2 0x333A DUP2 PUSH1 0xFF SWAP1 PUSH1 0x48 SHR AND SWAP1 JUMP JUMPDEST PUSH2 0x189A JUMPI PUSH2 0x19 SWAP3 PUSH2 0x3357 PUSH2 0x290A PUSH2 0x908 PUSH2 0x2905 PUSH2 0x336A SWAP6 PUSH2 0x69D JUMP JUMPDEST DUP1 SLOAD PUSH1 0xFF PUSH1 0x40 SHL NOT AND PUSH1 0x1 PUSH1 0x40 SHL OR SWAP1 SSTORE JUMP JUMPDEST CALLER DUP2 PUSH32 0x924813D717E221B5F46DCD8A56DA1679E4612584AB3237D55E5FAABF6F6A3079 PUSH1 0x0 DUP1 LOG3 PUSH2 0x4D0 PUSH2 0x4BCA JUMP JUMPDEST CALLVALUE PUSH2 0x426 JUMPI PUSH1 0x0 CALLDATASIZE PUSH1 0x3 NOT ADD SLT PUSH2 0x426 JUMPI PUSH1 0x20 PUSH1 0x40 MLOAD PUSH3 0x15180 DUP2 MSTORE RETURN JUMPDEST ISZERO PUSH2 0x33BE JUMPI JUMP JUMPDEST PUSH1 0x40 MLOAD PUSH3 0x461BCD PUSH1 0xE5 SHL DUP2 MSTORE PUSH1 0x20 PUSH1 0x4 DUP3 ADD MSTORE PUSH1 0x1D PUSH1 0x24 DUP3 ADD MSTORE PUSH32 0x55563A20736E617073686F74206D6F6465206E6F7420656E61626C6564000000 PUSH1 0x44 DUP3 ADD MSTORE PUSH1 0x64 SWAP1 REVERT JUMPDEST PUSH4 0x4E487B71 PUSH1 0xE0 SHL PUSH1 0x0 MSTORE PUSH1 0x41 PUSH1 0x4 MSTORE PUSH1 0x24 PUSH1 0x0 REVERT JUMPDEST PUSH1 0x1F SWAP1 SWAP2 ADD PUSH1 0x1F NOT AND DUP2 ADD SWAP1 PUSH1 0x1 PUSH1 0x1 PUSH1 0x40 SHL SUB DUP3 GT SWAP1 DUP3 LT OR PUSH2 0x343C JUMPI PUSH1 0x40 MSTORE JUMP JUMPDEST PUSH2 0x3403 JUMP JUMPDEST SWAP1 DUP2 PUSH1 0x20 SWAP2 SUB SLT PUSH2 0x426 JUMPI MLOAD SWAP1 JUMP JUMPDEST PUSH1 0x40 MLOAD RETURNDATASIZE PUSH1 0x0 DUP3 RETURNDATACOPY RETURNDATASIZE SWAP1 REVERT JUMPDEST PUSH1 0x40 MLOAD SWAP1 PUSH2 0x346B PUSH1 0xA0 DUP4 PUSH2 0x3419 JUMP JUMPDEST JUMP JUMPDEST PUSH1 0x1 PUSH1 0x1 PUSH1 0x40 SHL SUB DUP2 GT PUSH2 0x343C JUMPI PUSH1 0x1F ADD PUSH1 0x1F NOT AND PUSH1 0x20 ADD SWAP1 JUMP JUMPDEST PUSH1 0x40 MLOAD SWAP1 PUSH2 0x3497 PUSH1 0x20 DUP4 PUSH2 0x3419 JUMP JUMPDEST PUSH1 0x0 DUP3 MSTORE JUMP JUMPDEST PUSH1 0x40 MLOAD SWAP1 PUSH2 0x34AC PUSH1 0x40 DUP4 PUSH2 0x3419 JUMP JUMPDEST PUSH1 0x18 DUP3 MSTORE PUSH24 0x18985B185B98D957DCDB985C1CDA1BDD17DD5C19185D1959 PUSH1 0x42 SHL PUSH1 0x20 DUP4 ADD MSTORE JUMP JUMPDEST ISZERO PUSH2 0x34DA JUMPI JUMP JUMPDEST PUSH1 0x40 MLOAD PUSH3 0x461BCD PUSH1 0xE5 SHL DUP2 MSTORE PUSH1 0x20 PUSH1 0x4 DUP3 ADD MSTORE PUSH1 0x14 PUSH1 0x24 DUP3 ADD MSTORE PUSH20 0x55563A206E6F2045544820746F20726573637565 PUSH1 0x60 SHL PUSH1 0x44 DUP3 ADD MSTORE PUSH1 0x64 SWAP1 REVERT JUMPDEST RETURNDATASIZE ISZERO PUSH2 0x3541 JUMPI RETURNDATASIZE SWAP1 PUSH2 0x3527 DUP3 PUSH2 0x346D JUMP JUMPDEST SWAP2 PUSH2 0x3535 PUSH1 0x40 MLOAD SWAP4 DUP5 PUSH2 0x3419 JUMP JUMPDEST DUP3 MSTORE RETURNDATASIZE PUSH1 0x0 PUSH1 0x20 DUP5 ADD RETURNDATACOPY JUMP JUMPDEST PUSH1 0x60 SWAP1 JUMP JUMPDEST ISZERO PUSH2 0x354D JUMPI JUMP JUMPDEST PUSH1 0x40 MLOAD PUSH3 0x461BCD PUSH1 0xE5 SHL DUP2 MSTORE PUSH1 0x20 PUSH1 0x4 DUP3 ADD MSTORE PUSH1 0x17 PUSH1 0x24 DUP3 ADD MSTORE PUSH23 0x15558E88115512081D1C985B9CD9995C8819985A5B1959 PUSH1 0x4A SHL PUSH1 0x44 DUP3 ADD MSTORE PUSH1 0x64 SWAP1 REVERT JUMPDEST PUSH1 0x40 MLOAD SWAP1 PUSH2 0x359B PUSH1 0x40 DUP4 PUSH2 0x3419 JUMP JUMPDEST PUSH1 0xB DUP3 MSTORE PUSH11 0x195D1A17DC995CD8DD5959 PUSH1 0xAA SHL PUSH1 0x20 DUP4 ADD MSTORE JUMP JUMPDEST PUSH1 0x1 PUSH1 0x1 PUSH1 0x40 SHL SUB DUP2 GT PUSH2 0x343C JUMPI PUSH1 0x5 SHL PUSH1 0x20 ADD SWAP1 JUMP JUMPDEST SWAP1 PUSH2 0x35D6 DUP3 PUSH2 0x35B5 JUMP JUMPDEST PUSH2 0x35E3 PUSH1 0x40 MLOAD SWAP2 DUP3 PUSH2 0x3419 JUMP JUMPDEST DUP3 DUP2 MSTORE DUP1 SWAP3 PUSH2 0x35F4 PUSH1 0x1F NOT SWAP2 PUSH2 0x35B5 JUMP JUMPDEST ADD SWAP1 PUSH1 0x20 CALLDATASIZE SWAP2 ADD CALLDATACOPY JUMP JUMPDEST PUSH4 0x4E487B71 PUSH1 0xE0 SHL PUSH1 0x0 MSTORE PUSH1 0x32 PUSH1 0x4 MSTORE PUSH1 0x24 PUSH1 0x0 REVERT JUMPDEST PUSH1 0x4 SLOAD DUP2 LT ISZERO PUSH2 0x362F JUMPI PUSH1 0x4 PUSH1 0x0 MSTORE PUSH1 0x20 PUSH1 0x0 KECCAK256 ADD SWAP1 PUSH1 0x0 SWAP1 JUMP JUMPDEST PUSH2 0x35FE JUMP JUMPDEST DUP1 MLOAD DUP3 LT ISZERO PUSH2 0x362F JUMPI PUSH1 0x20 SWAP2 PUSH1 0x5 SHL ADD ADD SWAP1 JUMP JUMPDEST ISZERO PUSH2 0x364F JUMPI JUMP JUMPDEST PUSH1 0x40 MLOAD PUSH3 0x461BCD PUSH1 0xE5 SHL DUP2 MSTORE PUSH1 0x20 PUSH1 0x4 DUP3 ADD MSTORE PUSH1 0x1E PUSH1 0x24 DUP3 ADD MSTORE PUSH32 0x55563A20696E6865726974616E636520616C7265616479206163746976650000 PUSH1 0x44 DUP3 ADD MSTORE PUSH1 0x64 SWAP1 REVERT JUMPDEST ISZERO PUSH2 0x369B JUMPI JUMP JUMPDEST PUSH1 0x40 MLOAD PUSH3 0x461BCD PUSH1 0xE5 SHL DUP2 MSTORE PUSH1 0x20 PUSH1 0x4 DUP3 ADD MSTORE PUSH1 0x1C PUSH1 0x24 DUP3 ADD MSTORE PUSH28 0x55563A206F776E65722064656E69656420696E6865726974616E6365 PUSH1 0x20 SHL PUSH1 0x44 DUP3 ADD MSTORE PUSH1 0x64 SWAP1 REVERT JUMPDEST PUSH4 0x4E487B71 PUSH1 0xE0 SHL PUSH1 0x0 MSTORE PUSH1 0x11 PUSH1 0x4 MSTORE PUSH1 0x24 PUSH1 0x0 REVERT JUMPDEST PUSH1 0x0 NOT DUP2 EQ PUSH2 0x3704 JUMPI PUSH1 0x1 ADD SWAP1 JUMP JUMPDEST PUSH2 0x36DF JUMP JUMPDEST SWAP1 PUSH3 0x278D00 DUP3 ADD DUP1 SWAP3 GT PUSH2 0x3704 JUMPI JUMP JUMPDEST PUSH1 0x30 ADD SWAP1 DUP2 PUSH1 0x30 GT PUSH2 0x3704 JUMPI JUMP JUMPDEST PUSH1 0x13 DUP1 SLOAD PUSH3 0x10000 PUSH1 0x1 PUSH1 0x50 SHL SUB NOT AND SWAP1 SSTORE JUMP JUMPDEST PUSH1 0x40 MLOAD SWAP1 PUSH2 0x374A PUSH1 0x40 DUP4 PUSH2 0x3419 JUMP JUMPDEST PUSH1 0x15 DUP3 MSTORE PUSH21 0x1A5B9A195C9A5D185B98D957DC995C5D595CDD1959 PUSH1 0x5A SHL PUSH1 0x20 DUP4 ADD MSTORE JUMP JUMPDEST PUSH1 0x10 DUP1 SLOAD PUSH1 0x1 PUSH1 0x1 PUSH1 0xA0 SHL SUB NOT AND PUSH1 0x1 PUSH1 0x1 PUSH1 0xA0 SHL SUB SWAP3 SWAP1 SWAP3 AND SWAP2 SWAP1 SWAP2 OR SWAP1 SSTORE JUMP JUMPDEST PUSH1 0x10 DUP1 SLOAD PUSH1 0xFF PUSH1 0xA0 SHL NOT AND SWAP1 SSTORE JUMP JUMPDEST PUSH1 0x10 DUP1 SLOAD PUSH1 0x1 PUSH1 0xA8 SHL PUSH1 0x1 PUSH1 0xE8 SHL SUB NOT AND SWAP1 SSTORE JUMP JUMPDEST PUSH1 0xFF AND PUSH1 0xFF DUP2 EQ PUSH2 0x3704 JUMPI PUSH1 0x1 ADD SWAP1 JUMP JUMPDEST PUSH1 0x40 MLOAD SWAP1 PUSH2 0x37D4 PUSH1 0x40 DUP4 PUSH2 0x3419 JUMP JUMPDEST PUSH1 0x17 DUP3 MSTORE PUSH23 0x696E6865726974616E63655F63616E63656C5F766F7465 PUSH1 0x48 SHL PUSH1 0x20 DUP4 ADD MSTORE JUMP JUMPDEST PUSH1 0x40 MLOAD SWAP1 PUSH2 0x3809 PUSH1 0x60 DUP4 PUSH2 0x3419 JUMP JUMPDEST PUSH1 0x22 DUP3 MSTORE PUSH2 0x6E73 PUSH1 0xF0 SHL PUSH1 0x40 DUP4 PUSH32 0x696E6865726974616E63655F63616E63656C6C65645F62795F67756172646961 PUSH1 0x20 DUP3 ADD MSTORE ADD MSTORE JUMP JUMPDEST ISZERO PUSH2 0x3847 JUMPI JUMP JUMPDEST PUSH1 0x40 MLOAD PUSH3 0x461BCD PUSH1 0xE5 SHL DUP2 MSTORE PUSH1 0x20 PUSH1 0x4 DUP3 ADD MSTORE PUSH1 0x17 PUSH1 0x24 DUP3 ADD MSTORE PUSH23 0x55563A20677561726469616E206E6F74206D6174757265 PUSH1 0x48 SHL PUSH1 0x44 DUP3 ADD MSTORE PUSH1 0x64 SWAP1 REVERT JUMPDEST ISZERO PUSH2 0x388D JUMPI JUMP JUMPDEST PUSH1 0x40 MLOAD PUSH3 0x461BCD PUSH1 0xE5 SHL DUP2 MSTORE PUSH1 0x20 PUSH1 0x4 DUP3 ADD MSTORE PUSH1 0x14 PUSH1 0x24 DUP3 ADD MSTORE PUSH20 0x15558E881C9958DBDD995C9E48195E1C1A5C9959 PUSH1 0x62 SHL PUSH1 0x44 DUP3 ADD MSTORE PUSH1 0x64 SWAP1 REVERT JUMPDEST PUSH1 0xFF PUSH1 0x1 SWAP2 AND ADD SWAP1 PUSH1 0xFF DUP3 GT PUSH2 0x3704 JUMPI JUMP JUMPDEST PUSH1 0x40 MLOAD SWAP1 PUSH2 0x38EA PUSH1 0x40 DUP4 PUSH2 0x3419 JUMP JUMPDEST PUSH1 0x11 DUP3 MSTORE PUSH17 0x1C9958DBDD995C9E57D85C1C1C9BDD985B PUSH1 0x7A SHL PUSH1 0x20 DUP4 ADD MSTORE JUMP JUMPDEST PUSH1 0xFF AND DUP1 ISZERO PUSH2 0x3704 JUMPI PUSH1 0x0 NOT ADD SWAP1 JUMP JUMPDEST PUSH1 0x0 NOT DUP2 ADD SWAP2 SWAP1 DUP3 GT PUSH2 0x3704 JUMPI JUMP JUMPDEST SWAP2 SWAP1 DUP3 SUB SWAP2 DUP3 GT PUSH2 0x3704 JUMPI JUMP JUMPDEST DUP1 SLOAD PUSH1 0x1 PUSH1 0x1 PUSH1 0xA0 SHL SUB PUSH1 0x3 SWAP4 SWAP1 SWAP4 SHL DUP4 DUP2 SHL NOT SWAP1 SWAP2 AND SWAP3 SWAP1 SWAP4 AND SWAP1 SWAP3 SHL OR SWAP1 SSTORE JUMP JUMPDEST PUSH1 0x4 SLOAD DUP1 ISZERO PUSH2 0x39AE JUMPI PUSH1 0x4 SLOAD PUSH1 0x0 NOT DUP3 ADD SWAP2 PUSH1 0x0 SWAP2 DUP4 LT ISZERO PUSH2 0x362F JUMPI PUSH1 0x4 SWAP2 DUP3 SWAP1 MSTORE PUSH32 0x8A35ACFBC15FF81A39AE7D344FD709F28E8600B4AA8C65C6B64BFE7FE36BD19A ADD DUP1 SLOAD PUSH1 0x1 PUSH1 0x1 PUSH1 0xA0 SHL SUB NOT AND SWAP1 SSTORE SSTORE JUMP JUMPDEST PUSH4 0x4E487B71 PUSH1 0xE0 SHL PUSH1 0x0 MSTORE PUSH1 0x31 PUSH1 0x4 MSTORE PUSH1 0x24 PUSH1 0x0 REVERT JUMPDEST PUSH1 0x8 DUP1 SLOAD PUSH1 0x1 PUSH1 0x1 PUSH1 0x40 SHL SUB NOT AND PUSH1 0x1 PUSH1 0x1 PUSH1 0x40 SHL SUB SWAP3 SWAP1 SWAP3 AND SWAP2 SWAP1 SWAP2 OR SWAP1 SSTORE JUMP JUMPDEST DUP1 SLOAD PUSH1 0x1 PUSH1 0x1 PUSH1 0x40 SHL SUB NOT AND PUSH1 0x1 PUSH1 0x1 PUSH1 0x40 SHL SUB SWAP1 SWAP3 AND SWAP2 SWAP1 SWAP2 OR SWAP1 SSTORE JUMP JUMPDEST PUSH1 0x4 SLOAD SWAP1 PUSH1 0x1 PUSH1 0x40 SHL DUP3 LT ISZERO PUSH2 0x343C JUMPI PUSH1 0x1 DUP3 ADD PUSH1 0x4 SSTORE PUSH1 0x4 SLOAD DUP3 LT ISZERO PUSH2 0x362F JUMPI PUSH1 0x4 PUSH1 0x0 SWAP1 DUP2 MSTORE PUSH2 0x346B SWAP3 PUSH1 0x0 DUP1 MLOAD PUSH1 0x20 PUSH2 0x511D DUP4 CODECOPY DUP2 MLOAD SWAP2 MSTORE ADD PUSH2 0x3936 JUMP JUMPDEST PUSH1 0x40 MLOAD SWAP1 PUSH2 0x3A55 PUSH1 0x40 DUP4 PUSH2 0x3419 JUMP JUMPDEST PUSH1 0xF DUP3 MSTORE PUSH15 0x677561726469616E5F72656D6F7665 PUSH1 0x88 SHL PUSH1 0x20 DUP4 ADD MSTORE JUMP JUMPDEST PUSH1 0x40 MLOAD SWAP1 PUSH2 0x3A82 PUSH1 0x40 DUP4 PUSH2 0x3419 JUMP JUMPDEST PUSH1 0xC DUP3 MSTORE PUSH12 0x19DD585C991A585B97D85919 PUSH1 0xA2 SHL PUSH1 0x20 DUP4 ADD MSTORE JUMP JUMPDEST SWAP1 DUP2 PUSH1 0x20 SWAP2 SUB SLT PUSH2 0x426 JUMPI MLOAD PUSH2 0x753 DUP2 PUSH2 0xF8C JUMP JUMPDEST PUSH1 0x1 PUSH1 0x1 PUSH1 0xA0 SHL SUB SWAP1 SWAP2 AND DUP2 MSTORE PUSH1 0x20 DUP2 ADD SWAP2 SWAP1 SWAP2 MSTORE PUSH1 0x40 ADD SWAP1 JUMP JUMPDEST ISZERO PUSH2 0x3AD4 JUMPI JUMP JUMPDEST PUSH1 0x40 MLOAD PUSH3 0x461BCD PUSH1 0xE5 SHL DUP2 MSTORE PUSH1 0x20 PUSH1 0x4 DUP3 ADD MSTORE PUSH1 0x11 PUSH1 0x24 DUP3 ADD MSTORE PUSH17 0x15558E985C1C1C9BDD994B59985A5B1959 PUSH1 0x7A SHL PUSH1 0x44 DUP3 ADD MSTORE PUSH1 0x64 SWAP1 REVERT JUMPDEST PUSH1 0x40 MLOAD SWAP1 PUSH2 0x3B1C PUSH1 0x40 DUP4 PUSH2 0x3419 JUMP JUMPDEST PUSH1 0xD DUP3 MSTORE PUSH13 0x7661756C745F617070726F7665 PUSH1 0x98 SHL PUSH1 0x20 DUP4 ADD MSTORE JUMP JUMPDEST SWAP4 SWAP3 SWAP1 PUSH2 0x3B43 PUSH2 0x4BFB JUMP JUMPDEST PUSH2 0x3B4B PUSH2 0x4C20 JUMP JUMPDEST PUSH2 0x3B53 PUSH2 0x4E58 JUMP JUMPDEST DUP2 DUP2 EQ DUP1 PUSH2 0x3CD6 JUMPI JUMPDEST PUSH2 0x3B65 SWAP1 PUSH2 0x3CDF JUMP JUMPDEST PUSH1 0x8 SLOAD PUSH1 0x1 PUSH1 0x1 PUSH1 0x40 SHL SUB PUSH1 0x40 DUP3 SWAP1 SHR AND DUP1 ISZERO ISZERO DUP1 PUSH2 0x3CC2 JUMPI JUMPDEST PUSH2 0x3CA0 JUMPI JUMPDEST POP POP PUSH2 0x3B8F DUP2 PUSH2 0x3D9C JUMP JUMPDEST SWAP6 PUSH1 0x0 JUMPDEST DUP3 DUP2 LT PUSH2 0x3BC0 JUMPI POP PUSH2 0x3BB6 SWAP6 POP POP TIMESTAMP PUSH1 0x1 PUSH1 0x1 PUSH1 0x40 SHL SUB AND SWAP4 POP PUSH2 0x39C4 SWAP3 POP POP POP JUMP JUMPDEST PUSH2 0x753 PUSH1 0x1 PUSH1 0x0 SSTORE JUMP JUMPDEST PUSH2 0x3BD6 PUSH2 0xFEF PUSH2 0x3BD1 DUP4 DUP7 DUP12 PUSH2 0x3DE6 JUMP JUMPDEST PUSH2 0x3DF6 JUMP JUMPDEST ISZERO PUSH2 0x985 JUMPI PUSH2 0x3BF7 ADDRESS PUSH2 0x3BF0 PUSH2 0xFEF PUSH2 0x3BD1 DUP6 DUP9 DUP14 PUSH2 0x3DE6 JUMP JUMPDEST EQ ISZERO PUSH2 0x3E00 JUMP JUMPDEST PUSH2 0x3C10 PUSH2 0x3C05 DUP3 DUP7 DUP9 PUSH2 0x3DE6 JUMP JUMPDEST CALLDATALOAD PUSH1 0x9 SLOAD LT ISZERO PUSH2 0x3E3B JUMP JUMPDEST PUSH1 0x0 DUP1 PUSH2 0x3C21 PUSH2 0x3BD1 DUP5 DUP8 DUP13 PUSH2 0x3DE6 JUMP JUMPDEST PUSH2 0x3C2C DUP5 DUP9 DUP11 PUSH2 0x3DE6 JUMP JUMPDEST CALLDATALOAD PUSH2 0x3C38 DUP6 DUP8 DUP13 PUSH2 0x3E7E JUMP JUMPDEST SWAP2 SWAP1 PUSH2 0x3C49 PUSH1 0x40 MLOAD DUP1 SWAP5 DUP2 SWAP4 PUSH2 0x3EBF JUMP JUMPDEST SUB SWAP3 GAS CALL SWAP1 PUSH2 0x3C56 PUSH2 0x3516 JUMP JUMPDEST SWAP2 ISZERO PUSH2 0x3450 JUMPI PUSH1 0x1 SWAP2 PUSH2 0x3C69 DUP3 DUP12 PUSH2 0x3634 JUMP JUMPDEST MSTORE PUSH2 0x3C74 DUP2 DUP11 PUSH2 0x3634 JUMP JUMPDEST POP PUSH2 0x3C9A PUSH2 0x3C86 PUSH2 0x3BD1 DUP4 DUP8 DUP13 PUSH2 0x3DE6 JUMP JUMPDEST PUSH2 0x3C91 DUP4 DUP9 DUP11 PUSH2 0x3DE6 JUMP JUMPDEST CALLDATALOAD PUSH2 0x5AF PUSH2 0x3ECD JUMP JUMPDEST ADD PUSH2 0x3B93 JUMP JUMPDEST PUSH2 0x908 PUSH2 0x3CB3 SWAP2 PUSH2 0x157A PUSH2 0x3CBB SWAP5 PUSH2 0x69D JUMP JUMPDEST TIMESTAMP LT ISZERO PUSH2 0x3D53 JUMP JUMPDEST CODESIZE DUP1 PUSH2 0x3B84 JUMP JUMPDEST POP PUSH2 0x3CCF PUSH2 0x908 DUP4 PUSH2 0x69D JUMP JUMPDEST ISZERO ISZERO PUSH2 0x3B7F JUMP JUMPDEST POP DUP2 DUP7 EQ PUSH2 0x3B5C JUMP JUMPDEST ISZERO PUSH2 0x3CE6 JUMPI JUMP JUMPDEST PUSH1 0x40 MLOAD PUSH3 0x461BCD PUSH1 0xE5 SHL DUP2 MSTORE PUSH1 0x20 PUSH1 0x4 DUP3 ADD MSTORE PUSH1 0x12 PUSH1 0x24 DUP3 ADD MSTORE PUSH18 0xAAAC74D8CADCCEE8D05ADAD2E6DAC2E8C6D PUSH1 0x73 SHL PUSH1 0x44 DUP3 ADD MSTORE PUSH1 0x64 SWAP1 REVERT JUMPDEST PUSH1 0x1 PUSH1 0x1 PUSH1 0x40 SHL SUB SWAP1 DUP2 AND PUSH3 0x15180 ADD SWAP2 SWAP1 DUP3 GT PUSH2 0x3704 JUMPI JUMP JUMPDEST PUSH1 0x1 PUSH1 0x1 PUSH1 0x40 SHL SUB SWAP2 DUP3 AND SWAP1 DUP3 AND ADD SWAP2 SWAP1 DUP3 GT PUSH2 0x3704 JUMPI JUMP JUMPDEST ISZERO PUSH2 0x3D5A JUMPI JUMP JUMPDEST PUSH1 0x40 MLOAD PUSH3 0x461BCD PUSH1 0xE5 SHL DUP2 MSTORE PUSH1 0x20 PUSH1 0x4 DUP3 ADD MSTORE PUSH1 0x1A PUSH1 0x24 DUP3 ADD MSTORE PUSH26 0x55563A657865637574652D636F6F6C646F776E2D616374697665 PUSH1 0x30 SHL PUSH1 0x44 DUP3 ADD MSTORE PUSH1 0x64 SWAP1 REVERT JUMPDEST SWAP1 PUSH2 0x3DA6 DUP3 PUSH2 0x35B5 JUMP JUMPDEST PUSH2 0x3DB3 PUSH1 0x40 MLOAD SWAP2 DUP3 PUSH2 0x3419 JUMP JUMPDEST DUP3 DUP2 MSTORE DUP1 SWAP3 PUSH2 0x3DC4 PUSH1 0x1F NOT SWAP2 PUSH2 0x35B5 JUMP JUMPDEST ADD SWAP1 PUSH1 0x0 JUMPDEST DUP3 DUP2 LT PUSH2 0x3DD5 JUMPI POP POP POP JUMP JUMPDEST DUP1 PUSH1 0x60 PUSH1 0x20 DUP1 SWAP4 DUP6 ADD ADD MSTORE ADD PUSH2 0x3DC9 JUMP JUMPDEST SWAP2 SWAP1 DUP2 LT ISZERO PUSH2 0x362F JUMPI PUSH1 0x5 SHL ADD SWAP1 JUMP JUMPDEST CALLDATALOAD PUSH2 0x753 DUP2 PUSH2 0x520 JUMP JUMPDEST ISZERO PUSH2 0x3E07 JUMPI JUMP JUMPDEST PUSH1 0x40 MLOAD PUSH3 0x461BCD PUSH1 0xE5 SHL DUP2 MSTORE PUSH1 0x20 PUSH1 0x4 DUP3 ADD MSTORE PUSH1 0xC PUSH1 0x24 DUP3 ADD MSTORE PUSH12 0x15558E9CD95B198B58D85B1B PUSH1 0xA2 SHL PUSH1 0x44 DUP3 ADD MSTORE PUSH1 0x64 SWAP1 REVERT JUMPDEST ISZERO PUSH2 0x3E42 JUMPI JUMP JUMPDEST PUSH1 0x40 MLOAD PUSH3 0x461BCD PUSH1 0xE5 SHL DUP2 MSTORE PUSH1 0x20 PUSH1 0x4 DUP3 ADD MSTORE PUSH1 0x14 PUSH1 0x24 DUP3 ADD MSTORE PUSH20 0xAAAC74ECC2D8EACA5ACAF0C6CACAC8E65ADAC2F PUSH1 0x63 SHL PUSH1 0x44 DUP3 ADD MSTORE PUSH1 0x64 SWAP1 REVERT JUMPDEST SWAP2 SWAP1 DUP2 LT ISZERO PUSH2 0x362F JUMPI PUSH1 0x5 SHL DUP2 ADD CALLDATALOAD SWAP1 PUSH1 0x1E NOT DUP2 CALLDATASIZE SUB ADD DUP3 SLT ISZERO PUSH2 0x426 JUMPI ADD DUP1 CALLDATALOAD SWAP2 SWAP1 PUSH1 0x1 PUSH1 0x1 PUSH1 0x40 SHL SUB DUP4 GT PUSH2 0x426 JUMPI PUSH1 0x20 ADD DUP3 CALLDATASIZE SUB DUP2 SGT PUSH2 0x426 JUMPI SWAP2 SWAP1 JUMP JUMPDEST SWAP1 DUP1 SWAP3 SWAP2 DUP3 CALLDATACOPY ADD PUSH1 0x0 DUP2 MSTORE SWAP1 JUMP JUMPDEST PUSH1 0x40 MLOAD SWAP1 PUSH2 0x3EDC PUSH1 0x40 DUP4 PUSH2 0x3419 JUMP JUMPDEST PUSH1 0x13 DUP3 MSTORE PUSH19 0xECC2EAD8E8BECAF0CAC6EAE8CABEC4C2E8C6D PUSH1 0x6B SHL PUSH1 0x20 DUP4 ADD MSTORE JUMP JUMPDEST PUSH1 0xA0 SHR PUSH1 0x1 PUSH1 0x1 PUSH1 0x40 SHL SUB AND SWAP1 JUMP JUMPDEST PUSH1 0x1 PUSH1 0x1 PUSH1 0x40 SHL SUB SWAP2 DUP3 AND SWAP1 DUP3 AND SUB SWAP2 SWAP1 DUP3 GT PUSH2 0x3704 JUMPI JUMP JUMPDEST PUSH1 0x40 MLOAD SWAP1 PUSH2 0x3F35 PUSH1 0x40 DUP4 PUSH2 0x3419 JUMP JUMPDEST PUSH1 0x12 DUP3 MSTORE PUSH18 0x70656E64696E675F74785F636C65616E757 PUSH1 0x74 SHL PUSH1 0x20 DUP4 ADD MSTORE JUMP JUMPDEST PUSH1 0x40 MLOAD SWAP1 PUSH2 0x3F65 PUSH1 0x40 DUP4 PUSH2 0x3419 JUMP JUMPDEST PUSH1 0x11 DUP3 MSTORE PUSH17 0x1C195B991A5B99D7DD1E17D9195B9A5959 PUSH1 0x7A SHL PUSH1 0x20 DUP4 ADD MSTORE JUMP JUMPDEST PUSH1 0x1 PUSH1 0x1 PUSH1 0xA0 SHL SUB AND PUSH1 0x0 DUP2 DUP2 MSTORE PUSH1 0x2 PUSH1 0x20 MSTORE PUSH1 0x40 SWAP1 KECCAK256 SLOAD PUSH1 0xFF AND ISZERO PUSH2 0x3FDA JUMPI PUSH1 0x0 SWAP1 DUP2 MSTORE PUSH1 0x16 PUSH1 0x20 MSTORE PUSH1 0x40 SWAP1 KECCAK256 SLOAD PUSH1 0x1 PUSH1 0x1 PUSH1 0x40 SHL SUB SWAP1 DUP2 AND PUSH3 0x93A80 ADD SWAP1 DUP2 GT PUSH2 0x3704 JUMPI PUSH1 0x1 PUSH1 0x1 PUSH1 0x40 SHL SUB AND TIMESTAMP LT ISZERO SWAP1 JUMP JUMPDEST POP PUSH1 0x0 SWAP1 JUMP JUMPDEST ISZERO PUSH2 0x3FE7 JUMPI JUMP JUMPDEST PUSH1 0x40 MLOAD PUSH3 0x461BCD PUSH1 0xE5 SHL DUP2 MSTORE PUSH1 0x20 PUSH1 0x4 DUP3 ADD MSTORE PUSH1 0x17 PUSH1 0x24 DUP3 ADD MSTORE PUSH23 0x15558E881A5B9A195C9A5D185B98D948195E1C1A5C9959 PUSH1 0x4A SHL PUSH1 0x44 DUP3 ADD MSTORE PUSH1 0x64 SWAP1 REVERT JUMPDEST ISZERO PUSH2 0x402D JUMPI JUMP JUMPDEST PUSH1 0x40 MLOAD PUSH3 0x461BCD PUSH1 0xE5 SHL DUP2 MSTORE PUSH1 0x20 PUSH1 0x4 DUP3 ADD MSTORE PUSH1 0x1A PUSH1 0x24 DUP3 ADD MSTORE PUSH26 0x55563A20696E73756666696369656E7420617070726F76616C73 PUSH1 0x30 SHL PUSH1 0x44 DUP3 ADD MSTORE PUSH1 0x64 SWAP1 REVERT JUMPDEST ISZERO PUSH2 0x4076 JUMPI JUMP JUMPDEST PUSH1 0x40 MLOAD PUSH3 0x461BCD PUSH1 0xE5 SHL DUP2 MSTORE PUSH1 0x20 PUSH1 0x4 DUP3 ADD MSTORE PUSH1 0x12 PUSH1 0x24 DUP3 ADD MSTORE PUSH18 0x2AAB1D103737903732BC3A1037B31035B4B7 PUSH1 0x71 SHL PUSH1 0x44 DUP3 ADD MSTORE PUSH1 0x64 SWAP1 REVERT JUMPDEST SWAP1 DUP2 PUSH1 0x20 SWAP2 SUB SLT PUSH2 0x426 JUMPI MLOAD PUSH2 0x753 DUP2 PUSH2 0x520 JUMP JUMPDEST ISZERO PUSH2 0x40CC JUMPI JUMP JUMPDEST PUSH1 0x40 MLOAD PUSH3 0x461BCD PUSH1 0xE5 SHL DUP2 MSTORE PUSH1 0x20 PUSH1 0x4 DUP3 ADD MSTORE PUSH1 0x26 PUSH1 0x24 DUP3 ADD MSTORE PUSH32 0x55563A20696E68657269746F72206D7573742068617665206578697374696E67 PUSH1 0x44 DUP3 ADD MSTORE PUSH6 0x81D985D5B1D PUSH1 0xD2 SHL PUSH1 0x64 DUP3 ADD MSTORE PUSH1 0x84 SWAP1 REVERT JUMPDEST ISZERO PUSH2 0x4127 JUMPI JUMP JUMPDEST PUSH1 0x40 MLOAD PUSH3 0x461BCD PUSH1 0xE5 SHL DUP2 MSTORE PUSH1 0x20 PUSH1 0x4 DUP3 ADD MSTORE PUSH1 0x17 PUSH1 0x24 DUP3 ADD MSTORE PUSH23 0x15558E881B9BC8199D5B991CC81D1BC81A5B9A195C9A5D PUSH1 0x4A SHL PUSH1 0x44 DUP3 ADD MSTORE PUSH1 0x64 SWAP1 REVERT JUMPDEST PUSH1 0x40 MLOAD SWAP1 PUSH2 0x4175 PUSH1 0x40 DUP4 PUSH2 0x3419 JUMP JUMPDEST PUSH1 0x15 DUP3 MSTORE PUSH21 0x1A5B9A195C9A5D185B98D957D99A5B985B1A5E9959 PUSH1 0x5A SHL PUSH1 0x20 DUP4 ADD MSTORE JUMP JUMPDEST ISZERO PUSH2 0x41A0 JUMPI JUMP JUMPDEST PUSH1 0x40 MLOAD PUSH3 0x461BCD PUSH1 0xE5 SHL DUP2 MSTORE PUSH1 0x20 PUSH1 0x4 DUP3 ADD MSTORE PUSH1 0xF PUSH1 0x24 DUP3 ADD MSTORE PUSH15 0x15558E881E995C9BC8185B5BDD5B9D PUSH1 0x8A SHL PUSH1 0x44 DUP3 ADD MSTORE PUSH1 0x64 SWAP1 REVERT JUMPDEST ISZERO PUSH2 0x41DE JUMPI JUMP JUMPDEST PUSH1 0x40 MLOAD PUSH3 0x461BCD PUSH1 0xE5 SHL DUP2 MSTORE PUSH1 0x20 PUSH1 0x4 DUP3 ADD MSTORE PUSH1 0x18 PUSH1 0x24 DUP3 ADD MSTORE PUSH24 0x55563A20696E73756666696369656E742062616C616E6365 PUSH1 0x40 SHL PUSH1 0x44 DUP3 ADD MSTORE PUSH1 0x64 SWAP1 REVERT JUMPDEST DUP2 MLOAD DUP2 SLOAD PUSH1 0x1 PUSH1 0x1 PUSH1 0xA0 SHL SUB NOT AND PUSH1 0x1 PUSH1 0x1 PUSH1 0xA0 SHL SUB SWAP2 SWAP1 SWAP2 AND OR DUP2 SSTORE PUSH1 0x20 DUP3 ADD MLOAD PUSH1 0x1 DUP3 ADD SSTORE PUSH1 0x40 DUP3 ADD MLOAD PUSH1 0x2 SWAP2 SWAP1 SWAP2 ADD SWAP2 PUSH1 0x80 SWAP2 PUSH2 0x4267 SWAP1 PUSH1 0x1 PUSH1 0x1 PUSH1 0x40 SHL SUB AND DUP5 PUSH2 0x39E6 JUMP JUMPDEST PUSH1 0x60 DUP2 ADD MLOAD DUP4 SLOAD SWAP3 SWAP1 SWAP2 ADD MLOAD PUSH2 0xFFFF PUSH1 0x40 SHL NOT SWAP1 SWAP3 AND SWAP1 ISZERO ISZERO PUSH1 0x40 SHL PUSH1 0xFF PUSH1 0x40 SHL AND OR SWAP1 ISZERO ISZERO PUSH1 0x48 SHL PUSH1 0xFF PUSH1 0x48 SHL AND OR SWAP1 SSTORE JUMP JUMPDEST PUSH1 0x40 MLOAD SWAP1 PUSH2 0x42AA PUSH1 0x40 DUP4 PUSH2 0x3419 JUMP JUMPDEST PUSH1 0x14 DUP3 MSTORE PUSH20 0x18589B9BDC9B585B17DD1E17D9195D1958DD1959 PUSH1 0x62 SHL PUSH1 0x20 DUP4 ADD MSTORE JUMP JUMPDEST SWAP1 PUSH2 0x42E0 PUSH1 0x20 SWAP3 DUP3 DUP2 MLOAD SWAP5 DUP6 SWAP3 ADD PUSH2 0x13BC JUMP JUMPDEST ADD SWAP1 JUMP JUMPDEST ISZERO PUSH2 0x42EB JUMPI JUMP JUMPDEST PUSH1 0x40 MLOAD PUSH3 0x461BCD PUSH1 0xE5 SHL DUP2 MSTORE PUSH1 0x20 PUSH1 0x4 DUP3 ADD MSTORE PUSH1 0x12 PUSH1 0x24 DUP3 ADD MSTORE PUSH18 0x55563A636F6F6C646F776E2D616374697665 PUSH1 0x70 SHL PUSH1 0x44 DUP3 ADD MSTORE PUSH1 0x64 SWAP1 REVERT JUMPDEST PUSH1 0x40 MLOAD SWAP1 PUSH2 0x4334 PUSH1 0x40 DUP4 PUSH2 0x3419 JUMP JUMPDEST PUSH1 0x16 DUP3 MSTORE PUSH22 0x1B185C99D957DD1C985B9CD9995C97D85D1D195B5C1D PUSH1 0x52 SHL PUSH1 0x20 DUP4 ADD MSTORE JUMP JUMPDEST PUSH1 0x5 DUP1 SLOAD PUSH1 0x1 PUSH1 0xA0 SHL PUSH1 0x1 PUSH1 0xE0 SHL SUB NOT AND PUSH1 0xA0 SWAP3 SWAP1 SWAP3 SHL PUSH1 0x1 PUSH1 0xA0 SHL PUSH1 0x1 PUSH1 0xE0 SHL SUB AND SWAP2 SWAP1 SWAP2 OR SWAP1 SSTORE JUMP JUMPDEST PUSH1 0x40 MLOAD SWAP1 PUSH2 0x4393 PUSH1 0x40 DUP4 PUSH2 0x3419 JUMP JUMPDEST PUSH1 0xE DUP3 MSTORE PUSH14 0x3B30BAB63A2FBA3930B739B332B9 PUSH1 0x91 SHL PUSH1 0x20 DUP4 ADD MSTORE JUMP JUMPDEST PUSH1 0x40 MLOAD SWAP1 PUSH2 0x43BF PUSH1 0x40 DUP4 PUSH2 0x3419 JUMP JUMPDEST PUSH1 0xD DUP3 MSTORE PUSH13 0x1D1A1C995CDA1BDB1917DCD95D PUSH1 0x9A SHL PUSH1 0x20 DUP4 ADD MSTORE JUMP JUMPDEST ISZERO PUSH2 0x43E2 JUMPI JUMP JUMPDEST PUSH1 0x40 MLOAD PUSH3 0x461BCD PUSH1 0xE5 SHL DUP2 MSTORE PUSH1 0x20 PUSH1 0x4 DUP3 ADD MSTORE PUSH1 0x15 PUSH1 0x24 DUP3 ADD MSTORE PUSH21 0x15558E98DBDBDB191BDDDB8B5D1BDBCB5CDA1BDC9D PUSH1 0x5A SHL PUSH1 0x44 DUP3 ADD MSTORE PUSH1 0x64 SWAP1 REVERT JUMPDEST PUSH1 0x40 MLOAD SWAP1 PUSH2 0x442E PUSH1 0x40 DUP4 PUSH2 0x3419 JUMP JUMPDEST PUSH1 0xC DUP3 MSTORE PUSH12 0x18DBDBDB191BDDDB97DCD95D PUSH1 0xA2 SHL PUSH1 0x20 DUP4 ADD MSTORE JUMP JUMPDEST PUSH1 0x40 MLOAD SWAP1 PUSH2 0x4458 PUSH1 0x40 DUP4 PUSH2 0x3419 JUMP JUMPDEST PUSH1 0x19 DUP3 MSTORE PUSH25 0x18985B185B98D957DCDB985C1CDA1BDD17D91A5CD8589B1959 PUSH1 0x3A SHL PUSH1 0x20 DUP4 ADD MSTORE JUMP JUMPDEST PUSH1 0x40 MLOAD SWAP1 PUSH2 0x448F PUSH1 0x40 DUP4 PUSH2 0x3419 JUMP JUMPDEST PUSH1 0x18 DUP3 MSTORE PUSH24 0x18985B185B98D957DCDB985C1CDA1BDD17D95B98589B1959 PUSH1 0x42 SHL PUSH1 0x20 DUP4 ADD MSTORE JUMP JUMPDEST PUSH1 0x40 MLOAD SWAP1 PUSH2 0x44C5 PUSH1 0x40 DUP4 PUSH2 0x3419 JUMP JUMPDEST PUSH1 0x11 DUP3 MSTORE PUSH17 0x3B30BAB63A2FB337B931B2AFB7BBB732B9 PUSH1 0x79 SHL PUSH1 0x20 DUP4 ADD MSTORE JUMP JUMPDEST ISZERO PUSH2 0x44EC JUMPI JUMP JUMPDEST PUSH1 0x40 MLOAD PUSH3 0x461BCD PUSH1 0xE5 SHL DUP2 MSTORE PUSH1 0x20 PUSH1 0x4 DUP3 ADD MSTORE PUSH1 0x13 PUSH1 0x24 DUP3 ADD MSTORE PUSH19 0x15558E881D1E081B9BDD08185C1C1C9BDD9959 PUSH1 0x6A SHL PUSH1 0x44 DUP3 ADD MSTORE PUSH1 0x64 SWAP1 REVERT JUMPDEST ISZERO PUSH2 0x452E JUMPI JUMP JUMPDEST PUSH1 0x40 MLOAD PUSH3 0x461BCD PUSH1 0xE5 SHL DUP2 MSTORE PUSH1 0x20 PUSH1 0x4 DUP3 ADD MSTORE PUSH1 0x16 PUSH1 0x24 DUP3 ADD MSTORE PUSH22 0x15558E881C195B991A5B99C81D1E08195E1C1A5C9959 PUSH1 0x52 SHL PUSH1 0x44 DUP3 ADD MSTORE PUSH1 0x64 SWAP1 REVERT JUMPDEST PUSH1 0x40 MLOAD SWAP1 PUSH2 0x457B PUSH1 0x40 DUP4 PUSH2 0x3419 JUMP JUMPDEST PUSH1 0x13 DUP3 MSTORE PUSH19 0x1C195B991A5B99D7DD1E17D95E1958DD5D1959 PUSH1 0x6A SHL PUSH1 0x20 DUP4 ADD MSTORE JUMP JUMPDEST SWAP3 SWAP2 SWAP1 SWAP2 PUSH2 0x45A9 PUSH2 0x4BFB JUMP JUMPDEST PUSH2 0x45B1 PUSH2 0x4C20 JUMP JUMPDEST PUSH2 0x45B9 PUSH2 0x4E58 JUMP JUMPDEST PUSH1 0x1 PUSH1 0x1 PUSH1 0xA0 SHL SUB DUP5 AND SWAP1 DUP2 ISZERO PUSH2 0x985 JUMPI PUSH1 0x0 SWAP3 PUSH2 0x4609 DUP5 SWAP4 PUSH2 0x45E0 PUSH1 0x9 SLOAD DUP9 GT ISZERO PUSH2 0x3E3B JUMP JUMPDEST PUSH1 0x8 SLOAD PUSH1 0x1 PUSH1 0x1 PUSH1 0x40 SHL SUB PUSH1 0x40 DUP3 SWAP1 SHR AND DUP1 ISZERO ISZERO DUP1 PUSH2 0x4665 JUMPI JUMPDEST PUSH2 0x464B JUMPI JUMPDEST POP POP ADDRESS EQ ISZERO PUSH2 0x3E00 JUMP JUMPDEST PUSH2 0x4618 PUSH1 0x40 MLOAD DUP1 SWAP4 DUP2 SWAP4 PUSH2 0x3EBF JUMP JUMPDEST SUB SWAP1 DUP5 DUP7 GAS CALL SWAP2 PUSH2 0x4627 PUSH2 0x3516 JUMP JUMPDEST SWAP3 ISZERO PUSH2 0x3450 JUMPI PUSH2 0x3BB6 SWAP2 PUSH2 0x4643 TIMESTAMP PUSH1 0x1 PUSH1 0x1 PUSH1 0x40 SHL SUB AND PUSH2 0x39C4 JUMP JUMPDEST PUSH2 0x5AF PUSH2 0x4679 JUMP JUMPDEST PUSH2 0x908 PUSH2 0x3CB3 SWAP2 PUSH2 0x157A PUSH2 0x465E SWAP5 PUSH2 0x69D JUMP JUMPDEST CODESIZE DUP1 PUSH2 0x45FF JUMP JUMPDEST POP PUSH2 0x4672 PUSH2 0x908 DUP4 PUSH2 0x69D JUMP JUMPDEST ISZERO ISZERO PUSH2 0x45FA JUMP JUMPDEST PUSH1 0x40 MLOAD SWAP1 PUSH2 0x4688 PUSH1 0x40 DUP4 PUSH2 0x3419 JUMP JUMPDEST PUSH1 0xD DUP3 MSTORE PUSH13 0x7661756C745F65786563757465 PUSH1 0x98 SHL PUSH1 0x20 DUP4 ADD MSTORE JUMP JUMPDEST PUSH1 0x40 MLOAD SWAP1 PUSH2 0x46B3 PUSH1 0x40 DUP4 PUSH2 0x3419 JUMP JUMPDEST PUSH1 0x14 DUP3 MSTORE PUSH20 0x1A5B9A195C9A5D185B98D957D85C1C1C9BDD9959 PUSH1 0x62 SHL PUSH1 0x20 DUP4 ADD MSTORE JUMP JUMPDEST PUSH2 0xFFFF AND SWAP1 JUMP JUMPDEST DUP2 DUP2 MUL SWAP3 SWAP2 DUP2 ISZERO SWAP2 DUP5 DIV EQ OR ISZERO PUSH2 0x3704 JUMPI JUMP JUMPDEST PUSH1 0xA SLOAD PUSH1 0x8 SHR PUSH1 0xFF AND ISZERO PUSH2 0x47D6 JUMPI PUSH1 0xC SLOAD PUSH1 0x10 DUP2 SWAP1 SHR PUSH1 0xFF AND DUP1 PUSH2 0x47CB JUMPI JUMPDEST ISZERO PUSH2 0x473A JUMPI PUSH2 0x4732 PUSH2 0x753 SWAP2 PUSH2 0x472C PUSH2 0x46D6 PUSH1 0xD SLOAD SWAP3 PUSH2 0xFFFF AND SWAP1 JUMP JUMPDEST SWAP1 PUSH2 0x46DD JUMP JUMPDEST PUSH2 0x2710 SWAP1 DIV SWAP1 JUMP JUMPDEST PUSH1 0x40 MLOAD PUSH4 0x70A08231 PUSH1 0xE0 SHL DUP2 MSTORE PUSH1 0x20 DUP2 DUP1 PUSH2 0x4758 ADDRESS PUSH1 0x4 DUP4 ADD PUSH2 0x624 JUMP JUMPDEST SUB DUP2 PUSH32 0x0 PUSH1 0x1 PUSH1 0x1 PUSH1 0xA0 SHL SUB AND GAS STATICCALL SWAP2 DUP3 ISZERO PUSH2 0x50F JUMPI PUSH2 0x472C PUSH2 0x46D6 PUSH2 0x753 SWAP5 PUSH2 0x4732 SWAP5 PUSH1 0x0 SWAP2 PUSH2 0x47AC JUMPI JUMPDEST POP SWAP3 PUSH2 0xFFFF AND SWAP1 JUMP JUMPDEST PUSH2 0x47C5 SWAP2 POP PUSH1 0x20 RETURNDATASIZE PUSH1 0x20 GT PUSH2 0x508 JUMPI PUSH2 0x4FA DUP2 DUP4 PUSH2 0x3419 JUMP JUMPDEST CODESIZE PUSH2 0x47A3 JUMP JUMPDEST POP PUSH1 0xD SLOAD ISZERO ISZERO PUSH2 0x470F JUMP JUMPDEST PUSH1 0xB SLOAD SWAP1 JUMP JUMPDEST ISZERO PUSH2 0x47E3 JUMPI JUMP JUMPDEST PUSH1 0x40 MLOAD PUSH3 0x461BCD PUSH1 0xE5 SHL DUP2 MSTORE PUSH1 0x20 PUSH1 0x4 DUP3 ADD MSTORE PUSH1 0x24 DUP1 DUP3 ADD MSTORE PUSH32 0x55563A20696E76616C69642070657263656E746167652028302D313030303020 PUSH1 0x44 DUP3 ADD MSTORE PUSH4 0x62707329 PUSH1 0xE0 SHL PUSH1 0x64 DUP3 ADD MSTORE PUSH1 0x84 SWAP1 REVERT JUMPDEST PUSH1 0x40 MLOAD SWAP1 PUSH2 0x4843 PUSH1 0x40 DUP4 PUSH2 0x3419 JUMP JUMPDEST PUSH1 0x19 DUP3 MSTORE PUSH25 0x18589B9BDC9B585B17DD1E17DD1A1C995CDA1BDB1917DCD95D PUSH1 0x3A SHL PUSH1 0x20 DUP4 ADD MSTORE JUMP JUMPDEST PUSH1 0x40 MLOAD SWAP1 PUSH2 0x487A PUSH1 0x40 DUP4 PUSH2 0x3419 JUMP JUMPDEST PUSH1 0x16 DUP3 MSTORE PUSH22 0x3932B1B7BB32B93CAFB932B8BAB2B9BA32B22FB5B4B7 PUSH1 0x51 SHL PUSH1 0x20 DUP4 ADD MSTORE JUMP JUMPDEST PUSH1 0x40 MLOAD SWAP1 PUSH2 0x48AE PUSH1 0x40 DUP4 PUSH2 0x3419 JUMP JUMPDEST PUSH1 0x13 DUP3 MSTORE PUSH19 0xDCB59185E481DD85A5D081C995C5D5A5C9959 PUSH1 0x6A SHL PUSH1 0x20 DUP4 ADD MSTORE JUMP JUMPDEST PUSH1 0x40 MLOAD SWAP1 PUSH2 0x48DF PUSH1 0x40 DUP4 PUSH2 0x3419 JUMP JUMPDEST PUSH1 0x12 DUP3 MSTORE PUSH18 0x1C9958DBDD995C9E57DC995C5D595CDD1959 PUSH1 0x72 SHL PUSH1 0x20 DUP4 ADD MSTORE JUMP JUMPDEST PUSH2 0x490E PUSH2 0xFEF PUSH1 0x1 SLOAD PUSH2 0x514 JUMP JUMPDEST CALLER EQ DUP1 ISZERO PUSH2 0x4AC9 JUMPI JUMPDEST DUP1 ISZERO PUSH2 0x4AB3 JUMPI JUMPDEST ISZERO PUSH2 0xDF3 JUMPI PUSH1 0x1 PUSH1 0x1 PUSH1 0xA0 SHL SUB DUP2 AND SWAP1 DUP2 ISZERO PUSH2 0x985 JUMPI PUSH2 0x4942 PUSH2 0xFEF PUSH1 0x5 SLOAD PUSH2 0x514 JUMP JUMPDEST CALLER EQ DUP1 PUSH2 0x4A9D JUMPI JUMPDEST PUSH2 0x4A4E JUMPI PUSH2 0x49F7 SWAP1 PUSH2 0x4965 PUSH2 0x4960 PUSH1 0x11 SLOAD PUSH2 0x36F5 JUMP JUMPDEST PUSH1 0x11 SSTORE JUMP JUMPDEST PUSH2 0x496E DUP2 PUSH2 0x376E JUMP JUMPDEST PUSH2 0x4976 PUSH2 0x3790 JUMP JUMPDEST PUSH2 0x49B0 PUSH2 0x4985 PUSH2 0x908 TIMESTAMP PUSH2 0x3709 JUMP JUMPDEST PUSH1 0x10 DUP1 SLOAD PUSH1 0x1 PUSH1 0xA8 SHL PUSH1 0x1 PUSH1 0xE8 SHL SUB NOT AND PUSH1 0xA8 SWAP3 SWAP1 SWAP3 SHL PUSH1 0x1 PUSH1 0xA8 SHL PUSH1 0x1 PUSH1 0xE8 SHL SUB AND SWAP2 SWAP1 SWAP2 OR SWAP1 SSTORE JUMP JUMPDEST PUSH2 0x49DE PUSH2 0x49BF PUSH1 0x3 SLOAD PUSH1 0xFF AND SWAP1 JUMP JUMPDEST PUSH1 0x10 DUP1 SLOAD PUSH1 0xFF PUSH1 0xE8 SHL NOT AND PUSH1 0xE8 SWAP3 SWAP1 SWAP3 SHL PUSH1 0xFF PUSH1 0xE8 SHL AND SWAP2 SWAP1 SWAP2 OR SWAP1 SSTORE JUMP JUMPDEST PUSH2 0x49EA PUSH2 0xC3E CALLER PUSH2 0xA99 JUMP JUMPDEST PUSH2 0x4A1E JUMPI JUMPDEST PUSH2 0x10BA PUSH2 0x48D0 JUMP JUMPDEST PUSH32 0x9CC0DC5A29A0EBC421EC879559BA990D29C1FB967A227ED69C9F4E33FAA04BFF PUSH1 0x0 DUP1 LOG2 JUMP JUMPDEST PUSH2 0x4A36 PUSH2 0xC8E PUSH2 0x4A2D CALLER PUSH2 0xACD JUMP JUMPDEST PUSH1 0x11 SLOAD SWAP1 PUSH2 0x18BB JUMP JUMPDEST PUSH1 0x10 DUP1 SLOAD PUSH1 0xFF PUSH1 0xA0 SHL NOT AND PUSH1 0x1 PUSH1 0xA0 SHL OR SWAP1 SSTORE PUSH2 0x49EF JUMP JUMPDEST PUSH2 0x49F7 SWAP1 PUSH2 0x4A60 PUSH2 0x4960 PUSH1 0x11 SLOAD PUSH2 0x36F5 JUMP JUMPDEST PUSH2 0x4A69 DUP2 PUSH2 0x376E JUMP JUMPDEST PUSH2 0x4A71 PUSH2 0x3790 JUMP JUMPDEST PUSH2 0x4A80 PUSH2 0x4985 PUSH2 0x908 TIMESTAMP PUSH2 0x3709 JUMP JUMPDEST PUSH1 0x10 DUP1 SLOAD PUSH1 0xFF PUSH1 0xE8 SHL NOT AND SWAP1 SSTORE PUSH2 0x4A95 PUSH2 0x486B JUMP JUMPDEST PUSH2 0xA40 PUSH2 0x489F JUMP JUMPDEST POP PUSH1 0xFF PUSH2 0x4AAC PUSH1 0x3 SLOAD PUSH1 0xFF AND SWAP1 JUMP JUMPDEST AND ISZERO PUSH2 0x494A JUMP JUMPDEST POP PUSH2 0x4AC2 PUSH2 0xFEF PUSH1 0x5 SLOAD PUSH2 0x514 JUMP JUMPDEST CALLER EQ PUSH2 0x491E JUMP JUMPDEST POP PUSH2 0x4AD6 PUSH2 0xC3E CALLER PUSH2 0xA99 JUMP JUMPDEST PUSH2 0x4917 JUMP JUMPDEST ISZERO PUSH2 0x4AE2 JUMPI JUMP JUMPDEST PUSH1 0x40 MLOAD PUSH3 0x461BCD PUSH1 0xE5 SHL DUP2 MSTORE PUSH1 0x20 PUSH1 0x4 DUP3 ADD MSTORE PUSH1 0x19 PUSH1 0x24 DUP3 ADD MSTORE PUSH25 0x55563A696E73756666696369656E742D617070726F76616C73 PUSH1 0x38 SHL PUSH1 0x44 DUP3 ADD MSTORE PUSH1 0x64 SWAP1 REVERT JUMPDEST PUSH1 0x40 MLOAD SWAP1 PUSH2 0x4B32 PUSH1 0x40 DUP4 PUSH2 0x3419 JUMP JUMPDEST PUSH1 0x12 DUP3 MSTORE PUSH18 0x1C9958DBDD995C9E57D99A5B985B1A5E9959 PUSH1 0x72 SHL PUSH1 0x20 DUP4 ADD MSTORE JUMP JUMPDEST ISZERO PUSH2 0x4B5A JUMPI JUMP JUMPDEST PUSH1 0x40 MLOAD PUSH3 0x461BCD PUSH1 0xE5 SHL DUP2 MSTORE PUSH1 0x20 PUSH1 0x4 DUP3 ADD MSTORE PUSH1 0x1F PUSH1 0x24 DUP3 ADD MSTORE PUSH32 0x55563A20757365207472616E73666572564649444520666F7220564649444500 PUSH1 0x44 DUP3 ADD MSTORE PUSH1 0x64 SWAP1 REVERT JUMPDEST PUSH1 0x40 MLOAD SWAP1 PUSH2 0x4BAE PUSH1 0x40 DUP4 PUSH2 0x3419 JUMP JUMPDEST PUSH1 0xD DUP3 MSTORE PUSH13 0x1D1BDAD95B97DC995CD8DD5959 PUSH1 0x9A SHL PUSH1 0x20 DUP4 ADD MSTORE JUMP JUMPDEST PUSH1 0x40 MLOAD SWAP1 PUSH2 0x4BD9 PUSH1 0x40 DUP4 PUSH2 0x3419 JUMP JUMPDEST PUSH1 0x13 DUP3 MSTORE PUSH19 0x1C195B991A5B99D7DD1E17D85C1C1C9BDD9959 PUSH1 0x6A SHL PUSH1 0x20 DUP4 ADD MSTORE JUMP JUMPDEST PUSH1 0x1 SLOAD PUSH1 0x1 PUSH1 0x1 PUSH1 0xA0 SHL SUB AND CALLER SUB PUSH2 0x4C0F JUMPI JUMP JUMPDEST PUSH4 0xC0B06F0B PUSH1 0xE0 SHL PUSH1 0x0 MSTORE PUSH1 0x4 PUSH1 0x0 REVERT JUMPDEST PUSH32 0x0 PUSH1 0x1 PUSH1 0x1 PUSH1 0xA0 SHL SUB AND DUP1 ISZERO ISZERO SWAP1 DUP2 PUSH2 0x4C6C JUMPI JUMPDEST POP PUSH2 0x4C5B JUMPI JUMP JUMPDEST PUSH4 0x105AA7FB PUSH1 0xE3 SHL PUSH1 0x0 MSTORE PUSH1 0x4 PUSH1 0x0 REVERT JUMPDEST PUSH1 0x40 MLOAD PUSH4 0x1293EFBB PUSH1 0xE2 SHL DUP2 MSTORE ADDRESS PUSH1 0x4 DUP3 ADD MSTORE SWAP2 POP PUSH1 0x20 SWAP1 DUP3 SWAP1 PUSH1 0x24 SWAP1 DUP3 SWAP1 GAS STATICCALL SWAP1 DUP2 ISZERO PUSH2 0x50F JUMPI PUSH1 0x0 SWAP2 PUSH2 0x4CA3 JUMPI JUMPDEST POP CODESIZE PUSH2 0x4C54 JUMP JUMPDEST PUSH2 0x4CBC SWAP2 POP PUSH1 0x20 RETURNDATASIZE PUSH1 0x20 GT PUSH2 0x12CE JUMPI PUSH2 0x12BC DUP2 DUP4 PUSH2 0x3419 JUMP JUMPDEST CODESIZE PUSH2 0x4C9C JUMP JUMPDEST PUSH32 0x0 PUSH1 0x1 PUSH1 0x1 PUSH1 0xA0 SHL SUB AND DUP1 PUSH2 0x4CF8 JUMPI JUMPDEST POP POP POP POP JUMP JUMPDEST DUP1 EXTCODESIZE ISZERO PUSH2 0x426 JUMPI PUSH1 0x0 SWAP3 DUP4 PUSH2 0x4D3C SWAP4 PUSH2 0x4D54 PUSH1 0x40 MLOAD SWAP8 DUP9 SWAP7 DUP8 SWAP6 DUP7 SWAP5 PUSH4 0x303C287 PUSH1 0xE6 SHL DUP7 MSTORE PUSH1 0x1 DUP1 PUSH1 0xA0 SHL SUB AND PUSH1 0x4 DUP7 ADD MSTORE PUSH1 0x80 PUSH1 0x24 DUP7 ADD MSTORE PUSH1 0x84 DUP6 ADD SWAP1 PUSH2 0x13DF JUMP JUMPDEST SWAP1 DUP5 PUSH1 0x44 DUP6 ADD MSTORE PUSH1 0x3 NOT DUP5 DUP4 SUB ADD PUSH1 0x64 DUP6 ADD MSTORE PUSH2 0x13DF JUMP JUMPDEST SUB SWAP3 GAS CALL PUSH2 0x4D65 JUMPI JUMPDEST DUP1 DUP1 DUP1 PUSH2 0x4CF2 JUMP JUMPDEST DUP1 PUSH2 0x4D74 PUSH1 0x0 PUSH2 0x4D7A SWAP4 PUSH2 0x3419 JUMP JUMPDEST DUP1 PUSH2 0x41B JUMP JUMPDEST CODESIZE PUSH2 0x4D5D JUMP JUMPDEST SWAP1 PUSH32 0x0 PUSH1 0x1 PUSH1 0x1 PUSH1 0xA0 SHL SUB AND SWAP1 DUP2 PUSH2 0x4DB9 JUMPI JUMPDEST POP POP POP POP POP JUMP JUMPDEST DUP2 EXTCODESIZE ISZERO PUSH2 0x426 JUMPI PUSH1 0x0 PUSH2 0x4DFD SWAP4 PUSH2 0x4E14 DUP3 SWAP7 PUSH1 0x40 MLOAD SWAP9 DUP10 SWAP8 DUP9 SWAP7 DUP8 SWAP6 PUSH4 0x303C287 PUSH1 0xE6 SHL DUP8 MSTORE PUSH1 0x1 DUP1 PUSH1 0xA0 SHL SUB AND PUSH1 0x4 DUP8 ADD MSTORE PUSH1 0x80 PUSH1 0x24 DUP8 ADD MSTORE PUSH1 0x84 DUP7 ADD SWAP1 PUSH2 0x13DF JUMP JUMPDEST SWAP2 PUSH1 0x44 DUP6 ADD MSTORE PUSH1 0x3 NOT DUP5 DUP4 SUB ADD PUSH1 0x64 DUP6 ADD MSTORE PUSH2 0x13DF JUMP JUMPDEST SUB SWAP3 GAS CALL PUSH2 0x4E26 JUMPI JUMPDEST DUP1 DUP1 DUP1 DUP1 PUSH2 0x4DB2 JUMP JUMPDEST DUP1 PUSH2 0x4D74 PUSH1 0x0 PUSH2 0x4E35 SWAP4 PUSH2 0x3419 JUMP JUMPDEST CODESIZE PUSH2 0x4E1D JUMP JUMPDEST PUSH1 0xFF PUSH1 0xA SLOAD AND PUSH2 0x4E47 JUMPI JUMP JUMPDEST PUSH4 0x57FA7521 PUSH1 0xE0 SHL PUSH1 0x0 MSTORE PUSH1 0x4 PUSH1 0x0 REVERT JUMPDEST PUSH1 0x1 PUSH1 0x0 SLOAD SUB PUSH2 0x4E69 JUMPI PUSH1 0x2 PUSH1 0x0 SSTORE JUMP JUMPDEST PUSH1 0x40 MLOAD PUSH3 0x461BCD PUSH1 0xE5 SHL DUP2 MSTORE PUSH1 0x20 PUSH1 0x4 DUP3 ADD MSTORE PUSH1 0xA PUSH1 0x24 DUP3 ADD MSTORE PUSH10 0x7265656E7472616E6379 PUSH1 0xB0 SHL PUSH1 0x44 DUP3 ADD MSTORE PUSH1 0x64 SWAP1 REVERT JUMPDEST PUSH1 0x0 SWAP3 SWAP2 DUP4 PUSH2 0x1ECF PUSH2 0x4EC6 DUP3 SWAP6 PUSH1 0x40 MLOAD SWAP3 DUP4 SWAP2 PUSH1 0x20 DUP4 ADD SWAP7 PUSH4 0xA9059CBB PUSH1 0xE0 SHL DUP9 MSTORE PUSH1 0x24 DUP5 ADD PUSH2 0x3AB2 JUMP JUMPDEST MLOAD SWAP3 PUSH1 0x1 PUSH1 0x1 PUSH1 0xA0 SHL SUB AND GAS CALL PUSH2 0x4EDB PUSH2 0x3516 JUMP JUMPDEST DUP2 PUSH2 0x4F2B JUMPI JUMPDEST POP ISZERO PUSH2 0x4EE9 JUMPI JUMP JUMPDEST PUSH1 0x40 MLOAD PUSH3 0x461BCD PUSH1 0xE5 SHL DUP2 MSTORE PUSH1 0x20 PUSH1 0x4 DUP3 ADD MSTORE PUSH1 0x1A PUSH1 0x24 DUP3 ADD MSTORE PUSH26 0x14D85999515490CC8C0E881D1C985B9CD9995C8819985A5B1959 PUSH1 0x32 SHL PUSH1 0x44 DUP3 ADD MSTORE PUSH1 0x64 SWAP1 REVERT JUMPDEST DUP1 MLOAD DUP1 ISZERO SWAP3 POP DUP3 ISZERO PUSH2 0x4F40 JUMPI JUMPDEST POP POP CODESIZE PUSH2 0x4EE1 JUMP JUMPDEST PUSH2 0x4F53 SWAP3 POP PUSH1 0x20 DUP1 SWAP2 DUP4 ADD ADD SWAP2 ADD PUSH2 0x3A9D JUMP JUMPDEST CODESIZE DUP1 PUSH2 0x4F38 JUMP JUMPDEST SWAP1 PUSH2 0x4F64 DUP3 PUSH2 0x346D JUMP JUMPDEST PUSH2 0x4F71 PUSH1 0x40 MLOAD SWAP2 DUP3 PUSH2 0x3419 JUMP JUMPDEST DUP3 DUP2 MSTORE DUP1 SWAP3 PUSH2 0x35F4 PUSH1 0x1F NOT SWAP2 PUSH2 0x346D JUMP JUMPDEST SWAP1 DUP2 MLOAD DUP2 LT ISZERO PUSH2 0x362F JUMPI ADD PUSH1 0x20 ADD SWAP1 JUMP JUMPDEST SWAP1 DUP2 ISZERO PUSH2 0x5026 JUMPI PUSH1 0x0 DUP3 DUP1 JUMPDEST PUSH2 0x500B JUMPI POP DUP3 PUSH2 0x4FAE DUP3 PUSH2 0x4F5A JUMP JUMPDEST SWAP2 SWAP1 JUMPDEST PUSH2 0x4FBA JUMPI POP SWAP2 POP JUMP JUMPDEST PUSH2 0x4FC6 PUSH2 0x5004 SWAP2 PUSH2 0x391A JUMP JUMPDEST SWAP4 PUSH2 0x4FEF PUSH2 0x4FDF PUSH2 0x4FD9 PUSH1 0xA DUP5 MOD PUSH2 0x3719 JUMP JUMPDEST PUSH1 0xFF AND SWAP1 JUMP JUMPDEST PUSH1 0xF8 SHL PUSH1 0x1 PUSH1 0x1 PUSH1 0xF8 SHL SUB NOT AND SWAP1 JUMP JUMPDEST PUSH1 0x0 BYTE PUSH2 0x4FFC DUP7 DUP6 PUSH2 0x4F82 JUMP JUMPDEST MSTORE8 PUSH1 0xA SWAP1 DIV SWAP1 JUMP JUMPDEST SWAP3 DUP4 PUSH2 0x4FB1 JUMP JUMPDEST SWAP1 PUSH2 0x5018 PUSH2 0x5020 SWAP2 PUSH2 0x36F5 JUMP JUMPDEST SWAP2 PUSH1 0xA SWAP1 DIV SWAP1 JUMP JUMPDEST DUP1 PUSH2 0x4F9F JUMP JUMPDEST SWAP1 POP PUSH1 0x40 MLOAD PUSH2 0x5036 PUSH1 0x40 DUP3 PUSH2 0x3419 JUMP JUMPDEST PUSH1 0x1 DUP2 MSTORE PUSH1 0x3 PUSH1 0xFC SHL PUSH1 0x20 DUP3 ADD MSTORE SWAP1 JUMP JUMPDEST PUSH32 0x0 PUSH1 0x1 PUSH1 0x1 PUSH1 0xA0 SHL SUB AND DUP1 PUSH2 0x507A JUMPI POP POP JUMP JUMPDEST DUP1 EXTCODESIZE ISZERO PUSH2 0x426 JUMPI PUSH1 0x40 MLOAD PUSH4 0x3DDD61AB PUSH1 0xE2 SHL DUP2 MSTORE ADDRESS PUSH1 0x4 DUP3 ADD MSTORE PUSH1 0x60 PUSH1 0x24 DUP3 ADD MSTORE SWAP2 PUSH1 0x0 SWAP2 DUP4 SWAP2 DUP3 SWAP1 DUP5 SWAP1 DUP3 SWAP1 PUSH2 0x50B5 SWAP1 PUSH1 0x64 DUP4 ADD SWAP1 PUSH2 0x13DF JUMP JUMPDEST CALLER PUSH1 0x44 DUP4 ADD MSTORE SUB SWAP3 GAS CALL PUSH2 0x50C6 JUMPI POP JUMP JUMPDEST DUP1 PUSH2 0x50D3 PUSH1 0x0 DUP1 SWAP4 PUSH2 0x3419 JUMP JUMPDEST DUP1 SUB SLT PUSH2 0x426 JUMPI JUMP INVALID 0xDB 0xB7 LT TSTORE PUSH30 0xC41668DF230E5BE9D018B32B76FA24D02376890EE40FEF045332491F4E90 PUSH22 0xAADAB47C6D1822E19226819C4482F4326012945C69BB EQ EXTCODECOPY PUSH9 0x61982A8A35ACFBC15F EXTCALL BYTE CODECOPY 0xAE PUSH30 0x344FD709F28E8600B4AA8C65C6B64BFE7FE36BD19B2E02E19641DBAE8D0E SWAPN 0xCF CHAINID JUMP 0xD3 0xCC SUB SWAP16 PUSH27 0xDB684E447DE0492C12FE349BC9D5A26469706673582212206B10B0 BLOCKHASH SAR 0xB6 DUP7 0xE8 0xBA EXTCODECOPY 0x22 TSTORE 0xDB 0xAC PUSH6 0xC3DB9462DB32 0xED 0xEA DUP14 LOG4 PUSH27 0x8A7EF5BBF79864736F6C634300081E003300000000000000000000 "},"methodIdentifiers":{"GUARDIAN_MATURITY_PERIOD()":"e6536fc5","INHERITANCE_EXPIRY()":"8b2bc3e7","PENDING_TX_EXPIRY()":"fd4fa981","RECOVERY_EXPIRY()":"700c5e7d","__forceSetOwner(address)":"9362698c","abnormalTransactionPercentageBps()":"e2158ee7","abnormalTransactionThreshold()":"092cc1fb","approveInheritance()":"ba58db51","approvePendingTransaction(uint256)":"f9773f92","approveVFIDE(address,uint256)":"31d559f8","balanceSnapshot()":"5132124c","cancelRecovery()":"0ba234d6","cleanupExpiredTransaction(uint256)":"518d0959","denyInheritance()":"536b801d","denyPendingTransaction(uint256)":"5f8983fd","execute(address,uint256,bytes)":"b61d27f6","executeBatch(address[],uint256[],bytes[])":"47e1da2a","executeCooldown()":"93bcd858","executePendingTransaction(uint256)":"b50ef71b","finalizeInheritance()":"688aa6ce","finalizeRecovery()":"e2ccb305","frozen()":"054f7d9c","getAbnormalTransactionThreshold()":"cd1492d4","getCooldownStatus()":"4ddb926a","getGuardians()":"0665f04b","getInheritanceStatus()":"c60cd99c","getPendingTransactions(uint256,uint256)":"72890ca2","getRecoveryStatus()":"124f8d9c","getTransactionWithExpiry(uint256)":"6b1994ea","getVaultSummary()":"c55e4a0e","guardianAddTime(address)":"42e01e73","guardianApproveRecovery()":"1f180de8","guardianCancelInheritance()":"1bed8c6e","guardianCount()":"54387ad7","hub()":"365a86fc","isGuardian(address)":"0c68ba21","isGuardianMature(address)":"63f95a3b","largeTransferThreshold()":"b5354ce5","lastExecuteTime()":"118f117f","lastWithdrawalTime()":"34a014dc","ledger()":"56397c35","maxExecuteValue()":"9a0dd140","nextOfKin()":"06603f8d","owner()":"8da5cb5b","pendingTransactions(uint256)":"63a8374d","pendingTxCount()":"6d68e53b","requestInheritance()":"0b6946da","requestRecovery(address)":"e24ba265","rescueETH(address)":"04824e70","rescueToken(address,address,uint256)":"e5711e8b","securityHub()":"b72d2943","setAbnormalTransactionThreshold(bool,uint256,uint16)":"d25a9189","setBalanceSnapshotMode(bool)":"8f252d34","setFrozen(bool)":"7e932d32","setGuardian(address,bool)":"2b8a1c5a","setLargeTransferThreshold(uint256)":"6b6fe5e9","setNextOfKin(address)":"835316c7","setWithdrawalCooldown(uint64)":"8e48d082","transferVFIDE(address,uint256)":"6a150981","updateBalanceSnapshot()":"02037822","useBalanceSnapshot()":"269b54b1","usePercentageThreshold()":"0fbd22b0","vfideToken()":"b8a71eec","withdrawalCooldown()":"d6c89c60"}}}}}