{"contracts/BadgeRegistry.sol":{"BadgeRegistry":{"abi":[{"inputs":[],"name":"ACTIVE_TRADER","outputs":[{"internalType":"bytes32","name":"","type":"bytes32"}],"stateMutability":"view","type":"function"},{"inputs":[],"name":"BUG_BOUNTY","outputs":[{"internalType":"bytes32","name":"","type":"bytes32"}],"stateMutability":"view","type":"function"},{"inputs":[],"name":"CENTURY_ENDORSER","outputs":[{"internalType":"bytes32","name":"","type":"bytes32"}],"stateMutability":"view","type":"function"},{"inputs":[],"name":"CLEAN_RECORD","outputs":[{"internalType":"bytes32","name":"","type":"bytes32"}],"stateMutability":"view","type":"function"},{"inputs":[],"name":"COMMUNITY_BUILDER","outputs":[{"internalType":"bytes32","name":"","type":"bytes32"}],"stateMutability":"view","type":"function"},{"inputs":[],"name":"CONTRIBUTOR","outputs":[{"internalType":"bytes32","name":"","type":"bytes32"}],"stateMutability":"view","type":"function"},{"inputs":[],"name":"DAILY_CHAMPION","outputs":[{"internalType":"bytes32","name":"","type":"bytes32"}],"stateMutability":"view","type":"function"},{"inputs":[],"name":"DIVERSIFICATION_MASTER","outputs":[{"internalType":"bytes32","name":"","type":"bytes32"}],"stateMutability":"view","type":"function"},{"inputs":[],"name":"EARLY_TESTER","outputs":[{"internalType":"bytes32","name":"","type":"bytes32"}],"stateMutability":"view","type":"function"},{"inputs":[],"name":"EDUCATOR","outputs":[{"internalType":"bytes32","name":"","type":"bytes32"}],"stateMutability":"view","type":"function"},{"inputs":[],"name":"ELITE_ACHIEVER","outputs":[{"internalType":"bytes32","name":"","type":"bytes32"}],"stateMutability":"view","type":"function"},{"inputs":[],"name":"ELITE_MERCHANT","outputs":[{"internalType":"bytes32","name":"","type":"bytes32"}],"stateMutability":"view","type":"function"},{"inputs":[],"name":"FOUNDING_MEMBER","outputs":[{"internalType":"bytes32","name":"","type":"bytes32"}],"stateMutability":"view","type":"function"},{"inputs":[],"name":"FRAUD_HUNTER","outputs":[{"internalType":"bytes32","name":"","type":"bytes32"}],"stateMutability":"view","type":"function"},{"inputs":[],"name":"GENESIS_PRESALE","outputs":[{"internalType":"bytes32","name":"","type":"bytes32"}],"stateMutability":"view","type":"function"},{"inputs":[],"name":"GOVERNANCE_VOTER","outputs":[{"internalType":"bytes32","name":"","type":"bytes32"}],"stateMutability":"view","type":"function"},{"inputs":[],"name":"GUARDIAN","outputs":[{"internalType":"bytes32","name":"","type":"bytes32"}],"stateMutability":"view","type":"function"},{"inputs":[],"name":"INSTANT_SETTLEMENT","outputs":[{"internalType":"bytes32","name":"","type":"bytes32"}],"stateMutability":"view","type":"function"},{"inputs":[],"name":"MENTOR","outputs":[{"internalType":"bytes32","name":"","type":"bytes32"}],"stateMutability":"view","type":"function"},{"inputs":[],"name":"PEACEMAKER","outputs":[{"internalType":"bytes32","name":"","type":"bytes32"}],"stateMutability":"view","type":"function"},{"inputs":[],"name":"PIONEER","outputs":[{"internalType":"bytes32","name":"","type":"bytes32"}],"stateMutability":"view","type":"function"},{"inputs":[],"name":"POWER_USER","outputs":[{"internalType":"bytes32","name":"","type":"bytes32"}],"stateMutability":"view","type":"function"},{"inputs":[],"name":"REDEMPTION","outputs":[{"internalType":"bytes32","name":"","type":"bytes32"}],"stateMutability":"view","type":"function"},{"inputs":[],"name":"TRANSLATOR","outputs":[{"internalType":"bytes32","name":"","type":"bytes32"}],"stateMutability":"view","type":"function"},{"inputs":[],"name":"TRUSTED_ENDORSER","outputs":[{"internalType":"bytes32","name":"","type":"bytes32"}],"stateMutability":"view","type":"function"},{"inputs":[],"name":"VERIFIED_MERCHANT","outputs":[{"internalType":"bytes32","name":"","type":"bytes32"}],"stateMutability":"view","type":"function"},{"inputs":[],"name":"WHALE_SLAYER","outputs":[{"internalType":"bytes32","name":"","type":"bytes32"}],"stateMutability":"view","type":"function"},{"inputs":[],"name":"ZERO_DISPUTE","outputs":[{"internalType":"bytes32","name":"","type":"bytes32"}],"stateMutability":"view","type":"function"},{"inputs":[{"internalType":"bytes32","name":"badge","type":"bytes32"}],"name":"getCategory","outputs":[{"internalType":"string","name":"","type":"string"}],"stateMutability":"pure","type":"function"},{"inputs":[{"internalType":"bytes32","name":"badge","type":"bytes32"}],"name":"getName","outputs":[{"internalType":"string","name":"","type":"string"}],"stateMutability":"pure","type":"function"},{"inputs":[{"internalType":"bytes32","name":"badge","type":"bytes32"}],"name":"getRecommendedDuration","outputs":[{"internalType":"uint256","name":"","type":"uint256"}],"stateMutability":"pure","type":"function"},{"inputs":[{"internalType":"bytes32","name":"badge","type":"bytes32"}],"name":"getRecommendedWeight","outputs":[{"internalType":"uint16","name":"","type":"uint16"}],"stateMutability":"pure","type":"function"},{"inputs":[{"internalType":"bytes32","name":"badge","type":"bytes32"}],"name":"isPermanent","outputs":[{"internalType":"bool","name":"","type":"bool"}],"stateMutability":"pure","type":"function"},{"inputs":[{"internalType":"bytes32","name":"badge","type":"bytes32"}],"name":"isValidBadge","outputs":[{"internalType":"bool","name":"","type":"bool"}],"stateMutability":"pure","type":"function"}],"evm":{"bytecode":{"linkReferences":{},"object":"60808060405234601957611f6a908161001f823930815050f35b600080fdfe608080604052600436101561001357600080fd5b60003560e01c9081630fd8995414610b355750806315a64adf14610b115780631d6b9a4014610aed5780631d7ee0a914610ac957806324aa8e5114610aa55780632a0a057814610a81578063368f301814610a5d5780633b58bc8114610a395780633d5aeb1514610a155780633e201359146109f1578063403c792c146109cd57806345f42d78146109a9578063473b084c1461098f57806347c604651461096b57806354b8d5e31461094157806355f9ab441461076f57806361fa40dc1461074b57806363a3a31a146107275780636f143be114610706578063724c184c146106e2578063737fee10146106bd57806375ff8bcf14610699578063770cc2d6146106755780637c91e54414610651578063a27a14a01461062d578063a8fb88ae14610609578063aa7ca98e146105e5578063adbeb22a146105c1578063b8e3de031461059d578063bb15466d14610579578063d1ef0abe14610206578063dbc6a871146101e2578063f88d10ee146101be5763f8e7813a1461019557600080fd5b60003660031901126101b9576020604051600080516020611e358339815191528152f35b600080fd5b60003660031901126101b9576020604051600080516020611d358339815191528152f35b60003660031901126101b9576020604051600080516020611c958339815191528152f35b60203660031901126101b9576020600435600080516020611eb58339815191528114908115610561575b8115610549575b8115610531575b8115610519575b8115610501575b81156104e9575b81156104d1575b81156104b9575b81156104a1575b8115610489575b8115610471575b8115610459575b8115610441575b8115610429575b8115610411575b81156103f9575b81156103e1575b81156103c9575b81156103b1575b8115610399575b8115610381575b8115610369575b8115610351575b8115610339575b8115610321575b8115610309575b81156102f1575b506040519015158152f35b600080516020611e15833981519152915014826102e6565b600080516020611ed5833981519152811491506102df565b600080516020611c15833981519152811491506102d8565b600080516020611c35833981519152811491506102d1565b600080516020611e95833981519152811491506102ca565b600080516020611bf5833981519152811491506102c3565b600080516020611d15833981519152811491506102bc565b600080516020611e75833981519152811491506102b5565b600080516020611c75833981519152811491506102ae565b600080516020611f15833981519152811491506102a7565b600080516020611e55833981519152811491506102a0565b600080516020611dd583398151915281149150610299565b600080516020611c9583398151915281149150610292565b600080516020611ef58339815191528114915061028b565b600080516020611d5583398151915281149150610284565b600080516020611d958339815191528114915061027d565b600080516020611e3583398151915281149150610276565b600080516020611db58339815191528114915061026f565b600080516020611d7583398151915281149150610268565b600080516020611cf583398151915281149150610261565b600080516020611df58339815191528114915061025a565b600080516020611d3583398151915281149150610253565b600080516020611cd58339815191528114915061024c565b600080516020611bd583398151915281149150610245565b600080516020611cb58339815191528114915061023e565b600080516020611bb583398151915281149150610237565b600080516020611c5583398151915281149150610230565b60003660031901126101b9576020604051600080516020611d158339815191528152f35b60003660031901126101b9576020604051600080516020611df58339815191528152f35b60003660031901126101b9576020604051600080516020611f158339815191528152f35b60003660031901126101b9576020604051600080516020611e558339815191528152f35b60003660031901126101b9576020604051600080516020611ed58339815191528152f35b60003660031901126101b9576020604051600080516020611e958339815191528152f35b60003660031901126101b9576020604051600080516020611bd58339815191528152f35b60003660031901126101b9576020604051600080516020611eb58339815191528152f35b60003660031901126101b9576020604051600080516020611db58339815191528152f35b60203660031901126101b95760206106d660043561192f565b61ffff60405191168152f35b60003660031901126101b9576020604051600080516020611c758339815191528152f35b60203660031901126101b957602061071f60043561181c565b604051908152f35b60003660031901126101b9576020604051600080516020611d758339815191528152f35b60003660031901126101b9576020604051600080516020611c158339815191528152f35b60203660031901126101b9576020600435600080516020611eb58339815191528114908115610929575b8115610911575b81156108f9575b81156108e1575b81156108c9575b81156108b1575b8115610899575b8115610881575b8115610869575b8115610851575b8115610839575b8115610821575b81156108095781156103215781156103095781156102f157506040519015158152f35b600080516020611e95833981519152811491506102d1565b600080516020611bf5833981519152811491506107e6565b600080516020611d15833981519152811491506107df565b600080516020611e75833981519152811491506107d8565b600080516020611c75833981519152811491506107d1565b600080516020611f15833981519152811491506107ca565b600080516020611dd5833981519152811491506107c3565b600080516020611db5833981519152811491506107bc565b600080516020611d75833981519152811491506107b5565b600080516020611cf5833981519152811491506107ae565b600080516020611cb5833981519152811491506107a7565b600080516020611bb5833981519152811491506107a0565b600080516020611c5583398151915281149150610799565b60203660031901126101b95761096761095b6004356111a0565b60405191829182610b57565b0390f35b60003660031901126101b9576020604051600080516020611ef58339815191528152f35b60203660031901126101b95761096761095b600435610d37565b60003660031901126101b9576020604051600080516020611cb58339815191528152f35b60003660031901126101b9576020604051600080516020611d558339815191528152f35b60003660031901126101b9576020604051600080516020611e158339815191528152f35b60003660031901126101b9576020604051600080516020611e758339815191528152f35b60003660031901126101b9576020604051600080516020611cd58339815191528152f35b60003660031901126101b9576020604051600080516020611bb58339815191528152f35b60003660031901126101b9576020604051600080516020611cf58339815191528152f35b60003660031901126101b9576020604051600080516020611c358339815191528152f35b60003660031901126101b9576020604051600080516020611bf58339815191528152f35b60003660031901126101b9576020604051600080516020611c558339815191528152f35b60003660031901126101b9576020604051600080516020611d958339815191528152f35b60003660031901126101b95780600080516020611dd583398151915260209252f35b91909160208152825180602083015260005b818110610b8a575060409293506000838284010152601f8019910116010190565b8060208092870101516040828601015201610b69565b60408051919082016001600160401b03811183821017610bc35760405260148252565b634e487b7160e01b600052604160045260246000fd5b60408051919082016001600160401b03811183821017610bc35760405260188252565b60408051919082016001600160401b03811183821017610bc35760405260118252565b60408051919082016001600160401b03811183821017610bc35760405260078252565b60408051919082016001600160401b03811183821017610bc357604052600f8252565b60408051919082016001600160401b03811183821017610bc357604052600c8252565b60408051919082016001600160401b03811183821017610bc357604052600d8252565b60408051919082016001600160401b03811183821017610bc35760405260108252565b60408051919082016001600160401b03811183821017610bc357604052600a8252565b60408051919082016001600160401b03811183821017610bc357604052600e8252565b60408051919082016001600160401b03811183821017610bc35760405260088252565b600080516020611eb583398151915281148015611189575b8015611172575b801561115b575b61113257600080516020611bd58339815191528114801561111b575b8015611104575b80156110ed575b6110c057600080516020611cf5833981519152811480156110a9575b8015611092575b801561107b575b61105557600080516020611d958339815191528114801561103e575b8015611027575b8015611010575b610fe757600080516020611dd583398151915281148015610fd0575b8015610fb9575b8015610fa2575b610f7957600080516020611e7583398151915281148015610f62575b8015610f4b575b8015610f34575b610eee57600080516020611c358339815191528114908115610ed6575b8115610ebe575b8115610ea6575b50610e7a57610e67610c1f565b662ab735b737bbb760c91b602082015290565b610e82610bd9565b7722b23ab1b0ba34b7b710131021b7b73a3934b13aba34b7b760411b602082015290565b600080516020611e1583398151915291501438610e5a565b600080516020611ed583398151915281149150610e53565b600080516020611c1583398151915281149150610e4c565b50604080519081016001600160401b03811182821017610bc3576040526019815278416368696576656d656e74732026204d696c6573746f6e657360381b602082015290565b50600080516020611e958339815191528114610e2f565b50600080516020611bf58339815191528114610e28565b50600080516020611d158339815191528114610e21565b50610f82610ba0565b735365637572697479202620496e7465677269747960601b602082015290565b50600080516020611c758339815191528114610e05565b50600080516020611f158339815191528114610dfe565b50600080516020611e558339815191528114610df7565b50610ff0610ba0565b73436f6d6d657263652026204d65726368616e747360601b602082015290565b50600080516020611c958339815191528114610ddb565b50600080516020611ef58339815191528114610dd4565b50600080516020611d558339815191528114610dcd565b5061105e610bfc565b705472757374202620436f6d6d756e69747960781b602082015290565b50600080516020611e358339815191528114610db1565b50600080516020611db58339815191528114610daa565b50600080516020611d758339815191528114610da3565b506110c9610bd9565b7720b1ba34bb34ba3c9013102830b93a34b1b4b830ba34b7b760411b602082015290565b50600080516020611df58339815191528114610d87565b50600080516020611d358339815191528114610d80565b50600080516020611cd58339815191528114610d79565b5061113b610ba0565b732834b7b732b2b91013102337bab73230ba34b7b760611b602082015290565b50600080516020611cb58339815191528114610d5d565b50600080516020611bb58339815191528114610d56565b50600080516020611c558339815191528114610d4f565b600080516020611eb5833981519152811461180057600080516020611c5583398151915281146117dc57600080516020611bb583398151915281146117b857600080516020611cb5833981519152811461179757600080516020611bd5833981519152811461177557600080516020611cd5833981519152811461175057600080516020611d35833981519152811461173157600080516020611df5833981519152811461170e57600080516020611cf583398151915281146116e957600080516020611d7583398151915281146116c357600080516020611db583398151915281146116a457600080516020611e35833981519152811461167157600080516020611d95833981519152811461164b57600080516020611d55833981519152811461162857600080516020611ef583398151915281146115e957600080516020611c9583398151915281146115c857600080516020611dd583398151915281146115a757600080516020611e55833981519152811461158657600080516020611f15833981519152811461156757600080516020611c75833981519152811461154a57600080516020611e75833981519152811461152757600080516020611d15833981519152811461150257600080516020611bf583398151915281146114e157600080516020611e95833981519152811461149e57600080516020611c35833981519152811461148157600080516020611c15833981519152811461144957600080516020611ed5833981519152811461142a57600080516020611e158339815191521461140c576113f3610c88565b6c556e6b6e6f776e20426164676560981b602082015290565b611414610cce565b692a3930b739b630ba37b960b11b602082015290565b50611433610cce565b6942756720426f756e747960b01b602082015290565b50604080519081016001600160401b03811182821017610bc357604052600b81526a21b7b73a3934b13aba37b960a91b602082015290565b5061148a610d14565b6722b23ab1b0ba37b960c11b602082015290565b50604080519081016001600160401b03811182821017610bc35760405260168152752234bb32b939b4b334b1b0ba34b7b71026b0b9ba32b960511b602082015290565b506114ea610c65565b6b2bb430b6329029b630bcb2b960a11b602082015290565b5061150b610cab565b6f21b2b73a3ab93c9022b73237b939b2b960811b602082015290565b50611530610cf1565b6d22b634ba329020b1b434b2bb32b960911b602082015290565b50611553610d14565b6723bab0b93234b0b760c11b602082015290565b50611570610cce565b692932b232b6b83a34b7b760b11b602082015290565b5061158f610c65565b6b10db19585b88149958dbdc9960a21b602082015290565b506115b0610c65565b6b233930bab210243ab73a32b960a11b602082015290565b506115d1610c65565b6b5a65726f204469737075746560a01b602082015290565b50604080519081016001600160401b03811182821017610bc3576040526012815271125b9cdd185b9d0814d95d1d1b195b595b9d60721b602082015290565b50611631610cf1565b6d115b1a5d194813595c98da185b9d60921b602082015290565b50611654610bfc565b7015995c9a599a59590813595c98da185b9d607a1b602082015290565b50604080519081016001600160401b03811182821017610bc357604052600681526526b2b73a37b960d11b602082015290565b506116ad610cce565b692832b0b1b2b6b0b5b2b960b11b602082015290565b506116cc610bfc565b7021b7b6b6bab734ba3c90213ab4b63232b960791b602082015290565b506116f2610cab565b6f2a393ab9ba32b21022b73237b939b2b960811b602082015290565b50611717610cf1565b6d2230b4b63c9021b430b6b834b7b760911b602082015290565b5061173a610cce565b692837bbb2b9102ab9b2b960b11b602082015290565b50611759610cab565b6f23b7bb32b93730b731b2902b37ba32b960811b602082015290565b5061177e610c88565b6c20b1ba34bb32902a3930b232b960991b602082015290565b506117a0610c65565b6b22b0b9363c902a32b9ba32b960a11b602082015290565b506117c1610c42565b6e2337bab73234b7339026b2b6b132b960891b602082015290565b506117e5610c42565b6e47656e657369732050726573616c6560881b602082015290565b50611809610c1f565b662834b7b732b2b960c91b602082015290565b600080516020611bd5833981519152811461191f57600080516020611cd5833981519152811461191757600080516020611d35833981519152811461191f57600080516020611df5833981519152811461192757600080516020611e35833981519152811461190e57600080516020611d95833981519152811461190e57600080516020611d55833981519152811461191757600080516020611ef5833981519152811461191f57600080516020611c95833981519152811461191757600080516020611e55833981519152811461190e57600080516020611c358339815191521461190757600090565b62ed4e0090565b506301e1338090565b5062ed4e0090565b506276a70090565b5062278d0090565b600080516020611eb58339815191528114611b9057600080516020611c558339815191528114611b8a57600080516020611bb58339815191528114611b8457600080516020611cb58339815191528114611b9657600080516020611bd58339815191528114611ba257600080516020611cd58339815191528114611b9657600080516020611d358339815191528114611b8a57600080516020611df58339815191528114611bae57600080516020611cf58339815191528114611b9057600080516020611d758339815191528114611b9c57600080516020611db58339815191528114611b9657600080516020611e358339815191528114611b9057600080516020611d958339815191528114611b8a57600080516020611d558339815191528114611ba857600080516020611ef58339815191528114611ba257600080516020611c958339815191528114611b9657600080516020611dd58339815191528114611b8457600080516020611e558339815191528114611ba257600080516020611f158339815191528114611b9057600080516020611c758339815191528114611b8a57600080516020611e758339815191528114611b8457600080516020611d158339815191528114611b9c57600080516020611bf58339815191528114611b9657600080516020611e958339815191528114611b9057600080516020611c358339815191528114611b9057600080516020611c158339815191528114611b8a57600080516020611ed58339815191528114611b8457600080516020611e1583398151915214611b7f57600090565b601990565b50603290565b50602890565b50601e90565b50601990565b50602390565b50601490565b50603c90565b50600f9056fecd25a284806e0931bbfbd59e48ca09094f95cc8a54899ac7cf670a7bc084e4c8fe3c33b66e28f14b3d890787766ee667031d474e01f41afd2282c6ddd242b13427b035d29cbd235e68f8e722fb80b6f9a31122fb2c3bce79340725e804fc9992a0bb1af1c90aa52ed052b92714ff0087008cc720049bf1af77cca2600b31e80c9f56690334c710be9812966692e10c040bde4927265518b422c82505f65961ec7866cd9bf5624adbb572bdf0ef2c6611719c1bd1dd881d077900477122585f518b5b16d04624687fcf0d0228f19993c9157c1ed07b41d8d430fd9100eb099fe88cd7ae4080d5a7057c8858e5c9e0a698fbc88b319a304fbaaae0f5c2be2423490320a6eadcaf07ad703766ce2aae1e5a2302fd7b9236ecdacdc6089d556ee6611b4e571958fba4ea5c92407500c44c03a913f7a3c4f5746fc318ba401831b4e5f4f1880c72d8dbafc9805eb1c4bcefcb30af90b0ae932e0f050c81b49112585766071085b8de5ddfb56be1bbf93230fbaa1b5a4a7ed21f7ca2ec8b760127b082a96fb0ea3366184fa9ef274bb2b523bb1410c5597f5b73e284bcc8d9c27caf81de4df86a0cfbc1ca19c1967d53b4f9d906c2f3e5f0b5637ff74d60111ad48d74fe29986656bd77a1f0da32c9315bed40455567f6060bea388c123d4bafff845ac4f6113bf43fb59dba21ffee106d9126a16fd7ef738a99e9f98f3366a7bcd628acf4336c61c8a8031abec411f918f29aa8a8d0d7d07ae250391d186289fb499922d441acdd22f4ae7f00407a46293dd53140dc9fa6beeef35e22cb018b264344d33d23312f0938ef21668aa46fd5bd7b72db718fcdd7e30d1e9db0ea46420720372cedd1d27b066a923b896eea7904ca9ef57e79d18aa00ae08d276de72c77b14ad701a62eb4bddf2c4f992ebf56952b66972847c21daeab6931b6b4aa89a4eb8f1a39279a10a884ddf0b6a95d0e46f341a5809f447de8f39f0c29e43a914272e426caaf9f537d800bdc663bd466690f26963dfd7bb0ed1ed5f323a945377dfc7c3d6722688d7e04217fd02beb9ee0abaf5dd8c4c65c6ad4846a80aae94ca27da03d1a4a2c4366d3db0c7243a29eef9c5e849fe7328823e0b7288dab59d523105c96081090ee4a64cc21b4a34b2247212174b7b9afec075a3d09fd229b01e550e2a717c0595726a19d429ba65a7be318c309e2bbfbe0d178266ba0266404b280f55c3c85690d0abf93de8c24ececede3ee62e529020683594957b8e0c109ace1a264697066735822122062bd61aed7bc01c12c58e75eb88b02d1828426bade4d42b5faa388ee7ebd024764736f6c634300081e0033","opcodes":"PUSH1 0x80 DUP1 PUSH1 0x40 MSTORE CALLVALUE PUSH1 0x19 JUMPI PUSH2 0x1F6A SWAP1 DUP2 PUSH2 0x1F DUP3 CODECOPY ADDRESS DUP2 POP POP RETURN JUMPDEST PUSH1 0x0 DUP1 REVERT INVALID PUSH1 0x80 DUP1 PUSH1 0x40 MSTORE PUSH1 0x4 CALLDATASIZE LT ISZERO PUSH2 0x13 JUMPI PUSH1 0x0 DUP1 REVERT JUMPDEST PUSH1 0x0 CALLDATALOAD PUSH1 0xE0 SHR SWAP1 DUP2 PUSH4 0xFD89954 EQ PUSH2 0xB35 JUMPI POP DUP1 PUSH4 0x15A64ADF EQ PUSH2 0xB11 JUMPI DUP1 PUSH4 0x1D6B9A40 EQ PUSH2 0xAED JUMPI DUP1 PUSH4 0x1D7EE0A9 EQ PUSH2 0xAC9 JUMPI DUP1 PUSH4 0x24AA8E51 EQ PUSH2 0xAA5 JUMPI DUP1 PUSH4 0x2A0A0578 EQ PUSH2 0xA81 JUMPI DUP1 PUSH4 0x368F3018 EQ PUSH2 0xA5D JUMPI DUP1 PUSH4 0x3B58BC81 EQ PUSH2 0xA39 JUMPI DUP1 PUSH4 0x3D5AEB15 EQ PUSH2 0xA15 JUMPI DUP1 PUSH4 0x3E201359 EQ PUSH2 0x9F1 JUMPI DUP1 PUSH4 0x403C792C EQ PUSH2 0x9CD JUMPI DUP1 PUSH4 0x45F42D78 EQ PUSH2 0x9A9 JUMPI DUP1 PUSH4 0x473B084C EQ PUSH2 0x98F JUMPI DUP1 PUSH4 0x47C60465 EQ PUSH2 0x96B JUMPI DUP1 PUSH4 0x54B8D5E3 EQ PUSH2 0x941 JUMPI DUP1 PUSH4 0x55F9AB44 EQ PUSH2 0x76F JUMPI DUP1 PUSH4 0x61FA40DC EQ PUSH2 0x74B JUMPI DUP1 PUSH4 0x63A3A31A EQ PUSH2 0x727 JUMPI DUP1 PUSH4 0x6F143BE1 EQ PUSH2 0x706 JUMPI DUP1 PUSH4 0x724C184C EQ PUSH2 0x6E2 JUMPI DUP1 PUSH4 0x737FEE10 EQ PUSH2 0x6BD JUMPI DUP1 PUSH4 0x75FF8BCF EQ PUSH2 0x699 JUMPI DUP1 PUSH4 0x770CC2D6 EQ PUSH2 0x675 JUMPI DUP1 PUSH4 0x7C91E544 EQ PUSH2 0x651 JUMPI DUP1 PUSH4 0xA27A14A0 EQ PUSH2 0x62D JUMPI DUP1 PUSH4 0xA8FB88AE EQ PUSH2 0x609 JUMPI DUP1 PUSH4 0xAA7CA98E EQ PUSH2 0x5E5 JUMPI DUP1 PUSH4 0xADBEB22A EQ PUSH2 0x5C1 JUMPI DUP1 PUSH4 0xB8E3DE03 EQ PUSH2 0x59D JUMPI DUP1 PUSH4 0xBB15466D EQ PUSH2 0x579 JUMPI DUP1 PUSH4 0xD1EF0ABE EQ PUSH2 0x206 JUMPI DUP1 PUSH4 0xDBC6A871 EQ PUSH2 0x1E2 JUMPI DUP1 PUSH4 0xF88D10EE EQ PUSH2 0x1BE JUMPI PUSH4 0xF8E7813A EQ PUSH2 0x195 JUMPI PUSH1 0x0 DUP1 REVERT JUMPDEST PUSH1 0x0 CALLDATASIZE PUSH1 0x3 NOT ADD SLT PUSH2 0x1B9 JUMPI PUSH1 0x20 PUSH1 0x40 MLOAD PUSH1 0x0 DUP1 MLOAD PUSH1 0x20 PUSH2 0x1E35 DUP4 CODECOPY DUP2 MLOAD SWAP2 MSTORE DUP2 MSTORE RETURN JUMPDEST PUSH1 0x0 DUP1 REVERT JUMPDEST PUSH1 0x0 CALLDATASIZE PUSH1 0x3 NOT ADD SLT PUSH2 0x1B9 JUMPI PUSH1 0x20 PUSH1 0x40 MLOAD PUSH1 0x0 DUP1 MLOAD PUSH1 0x20 PUSH2 0x1D35 DUP4 CODECOPY DUP2 MLOAD SWAP2 MSTORE DUP2 MSTORE RETURN JUMPDEST PUSH1 0x0 CALLDATASIZE PUSH1 0x3 NOT ADD SLT PUSH2 0x1B9 JUMPI PUSH1 0x20 PUSH1 0x40 MLOAD PUSH1 0x0 DUP1 MLOAD PUSH1 0x20 PUSH2 0x1C95 DUP4 CODECOPY DUP2 MLOAD SWAP2 MSTORE DUP2 MSTORE RETURN JUMPDEST PUSH1 0x20 CALLDATASIZE PUSH1 0x3 NOT ADD SLT PUSH2 0x1B9 JUMPI PUSH1 0x20 PUSH1 0x4 CALLDATALOAD PUSH1 0x0 DUP1 MLOAD PUSH1 0x20 PUSH2 0x1EB5 DUP4 CODECOPY DUP2 MLOAD SWAP2 MSTORE DUP2 EQ SWAP1 DUP2 ISZERO PUSH2 0x561 JUMPI JUMPDEST DUP2 ISZERO PUSH2 0x549 JUMPI JUMPDEST DUP2 ISZERO PUSH2 0x531 JUMPI JUMPDEST DUP2 ISZERO PUSH2 0x519 JUMPI JUMPDEST DUP2 ISZERO PUSH2 0x501 JUMPI JUMPDEST DUP2 ISZERO PUSH2 0x4E9 JUMPI JUMPDEST DUP2 ISZERO PUSH2 0x4D1 JUMPI JUMPDEST DUP2 ISZERO PUSH2 0x4B9 JUMPI JUMPDEST DUP2 ISZERO PUSH2 0x4A1 JUMPI JUMPDEST DUP2 ISZERO PUSH2 0x489 JUMPI JUMPDEST DUP2 ISZERO PUSH2 0x471 JUMPI JUMPDEST DUP2 ISZERO PUSH2 0x459 JUMPI JUMPDEST DUP2 ISZERO PUSH2 0x441 JUMPI JUMPDEST DUP2 ISZERO PUSH2 0x429 JUMPI JUMPDEST DUP2 ISZERO PUSH2 0x411 JUMPI JUMPDEST DUP2 ISZERO PUSH2 0x3F9 JUMPI JUMPDEST DUP2 ISZERO PUSH2 0x3E1 JUMPI JUMPDEST DUP2 ISZERO PUSH2 0x3C9 JUMPI JUMPDEST DUP2 ISZERO PUSH2 0x3B1 JUMPI JUMPDEST DUP2 ISZERO PUSH2 0x399 JUMPI JUMPDEST DUP2 ISZERO PUSH2 0x381 JUMPI JUMPDEST DUP2 ISZERO PUSH2 0x369 JUMPI JUMPDEST DUP2 ISZERO PUSH2 0x351 JUMPI JUMPDEST DUP2 ISZERO PUSH2 0x339 JUMPI JUMPDEST DUP2 ISZERO PUSH2 0x321 JUMPI JUMPDEST DUP2 ISZERO PUSH2 0x309 JUMPI JUMPDEST DUP2 ISZERO PUSH2 0x2F1 JUMPI JUMPDEST POP PUSH1 0x40 MLOAD SWAP1 ISZERO ISZERO DUP2 MSTORE RETURN JUMPDEST PUSH1 0x0 DUP1 MLOAD PUSH1 0x20 PUSH2 0x1E15 DUP4 CODECOPY DUP2 MLOAD SWAP2 MSTORE SWAP2 POP EQ DUP3 PUSH2 0x2E6 JUMP JUMPDEST PUSH1 0x0 DUP1 MLOAD PUSH1 0x20 PUSH2 0x1ED5 DUP4 CODECOPY DUP2 MLOAD SWAP2 MSTORE DUP2 EQ SWAP2 POP PUSH2 0x2DF JUMP JUMPDEST PUSH1 0x0 DUP1 MLOAD PUSH1 0x20 PUSH2 0x1C15 DUP4 CODECOPY DUP2 MLOAD SWAP2 MSTORE DUP2 EQ SWAP2 POP PUSH2 0x2D8 JUMP JUMPDEST PUSH1 0x0 DUP1 MLOAD PUSH1 0x20 PUSH2 0x1C35 DUP4 CODECOPY DUP2 MLOAD SWAP2 MSTORE DUP2 EQ SWAP2 POP PUSH2 0x2D1 JUMP JUMPDEST PUSH1 0x0 DUP1 MLOAD PUSH1 0x20 PUSH2 0x1E95 DUP4 CODECOPY DUP2 MLOAD SWAP2 MSTORE DUP2 EQ SWAP2 POP PUSH2 0x2CA JUMP JUMPDEST PUSH1 0x0 DUP1 MLOAD PUSH1 0x20 PUSH2 0x1BF5 DUP4 CODECOPY DUP2 MLOAD SWAP2 MSTORE DUP2 EQ SWAP2 POP PUSH2 0x2C3 JUMP JUMPDEST PUSH1 0x0 DUP1 MLOAD PUSH1 0x20 PUSH2 0x1D15 DUP4 CODECOPY DUP2 MLOAD SWAP2 MSTORE DUP2 EQ SWAP2 POP PUSH2 0x2BC JUMP JUMPDEST PUSH1 0x0 DUP1 MLOAD PUSH1 0x20 PUSH2 0x1E75 DUP4 CODECOPY DUP2 MLOAD SWAP2 MSTORE DUP2 EQ SWAP2 POP PUSH2 0x2B5 JUMP JUMPDEST PUSH1 0x0 DUP1 MLOAD PUSH1 0x20 PUSH2 0x1C75 DUP4 CODECOPY DUP2 MLOAD SWAP2 MSTORE DUP2 EQ SWAP2 POP PUSH2 0x2AE JUMP JUMPDEST PUSH1 0x0 DUP1 MLOAD PUSH1 0x20 PUSH2 0x1F15 DUP4 CODECOPY DUP2 MLOAD SWAP2 MSTORE DUP2 EQ SWAP2 POP PUSH2 0x2A7 JUMP JUMPDEST PUSH1 0x0 DUP1 MLOAD PUSH1 0x20 PUSH2 0x1E55 DUP4 CODECOPY DUP2 MLOAD SWAP2 MSTORE DUP2 EQ SWAP2 POP PUSH2 0x2A0 JUMP JUMPDEST PUSH1 0x0 DUP1 MLOAD PUSH1 0x20 PUSH2 0x1DD5 DUP4 CODECOPY DUP2 MLOAD SWAP2 MSTORE DUP2 EQ SWAP2 POP PUSH2 0x299 JUMP JUMPDEST PUSH1 0x0 DUP1 MLOAD PUSH1 0x20 PUSH2 0x1C95 DUP4 CODECOPY DUP2 MLOAD SWAP2 MSTORE DUP2 EQ SWAP2 POP PUSH2 0x292 JUMP JUMPDEST PUSH1 0x0 DUP1 MLOAD PUSH1 0x20 PUSH2 0x1EF5 DUP4 CODECOPY DUP2 MLOAD SWAP2 MSTORE DUP2 EQ SWAP2 POP PUSH2 0x28B JUMP JUMPDEST PUSH1 0x0 DUP1 MLOAD PUSH1 0x20 PUSH2 0x1D55 DUP4 CODECOPY DUP2 MLOAD SWAP2 MSTORE DUP2 EQ SWAP2 POP PUSH2 0x284 JUMP JUMPDEST PUSH1 0x0 DUP1 MLOAD PUSH1 0x20 PUSH2 0x1D95 DUP4 CODECOPY DUP2 MLOAD SWAP2 MSTORE DUP2 EQ SWAP2 POP PUSH2 0x27D JUMP JUMPDEST PUSH1 0x0 DUP1 MLOAD PUSH1 0x20 PUSH2 0x1E35 DUP4 CODECOPY DUP2 MLOAD SWAP2 MSTORE DUP2 EQ SWAP2 POP PUSH2 0x276 JUMP JUMPDEST PUSH1 0x0 DUP1 MLOAD PUSH1 0x20 PUSH2 0x1DB5 DUP4 CODECOPY DUP2 MLOAD SWAP2 MSTORE DUP2 EQ SWAP2 POP PUSH2 0x26F JUMP JUMPDEST PUSH1 0x0 DUP1 MLOAD PUSH1 0x20 PUSH2 0x1D75 DUP4 CODECOPY DUP2 MLOAD SWAP2 MSTORE DUP2 EQ SWAP2 POP PUSH2 0x268 JUMP JUMPDEST PUSH1 0x0 DUP1 MLOAD PUSH1 0x20 PUSH2 0x1CF5 DUP4 CODECOPY DUP2 MLOAD SWAP2 MSTORE DUP2 EQ SWAP2 POP PUSH2 0x261 JUMP JUMPDEST PUSH1 0x0 DUP1 MLOAD PUSH1 0x20 PUSH2 0x1DF5 DUP4 CODECOPY DUP2 MLOAD SWAP2 MSTORE DUP2 EQ SWAP2 POP PUSH2 0x25A JUMP JUMPDEST PUSH1 0x0 DUP1 MLOAD PUSH1 0x20 PUSH2 0x1D35 DUP4 CODECOPY DUP2 MLOAD SWAP2 MSTORE DUP2 EQ SWAP2 POP PUSH2 0x253 JUMP JUMPDEST PUSH1 0x0 DUP1 MLOAD PUSH1 0x20 PUSH2 0x1CD5 DUP4 CODECOPY DUP2 MLOAD SWAP2 MSTORE DUP2 EQ SWAP2 POP PUSH2 0x24C JUMP JUMPDEST PUSH1 0x0 DUP1 MLOAD PUSH1 0x20 PUSH2 0x1BD5 DUP4 CODECOPY DUP2 MLOAD SWAP2 MSTORE DUP2 EQ SWAP2 POP PUSH2 0x245 JUMP JUMPDEST PUSH1 0x0 DUP1 MLOAD PUSH1 0x20 PUSH2 0x1CB5 DUP4 CODECOPY DUP2 MLOAD SWAP2 MSTORE DUP2 EQ SWAP2 POP PUSH2 0x23E JUMP JUMPDEST PUSH1 0x0 DUP1 MLOAD PUSH1 0x20 PUSH2 0x1BB5 DUP4 CODECOPY DUP2 MLOAD SWAP2 MSTORE DUP2 EQ SWAP2 POP PUSH2 0x237 JUMP JUMPDEST PUSH1 0x0 DUP1 MLOAD PUSH1 0x20 PUSH2 0x1C55 DUP4 CODECOPY DUP2 MLOAD SWAP2 MSTORE DUP2 EQ SWAP2 POP PUSH2 0x230 JUMP JUMPDEST PUSH1 0x0 CALLDATASIZE PUSH1 0x3 NOT ADD SLT PUSH2 0x1B9 JUMPI PUSH1 0x20 PUSH1 0x40 MLOAD PUSH1 0x0 DUP1 MLOAD PUSH1 0x20 PUSH2 0x1D15 DUP4 CODECOPY DUP2 MLOAD SWAP2 MSTORE DUP2 MSTORE RETURN JUMPDEST PUSH1 0x0 CALLDATASIZE PUSH1 0x3 NOT ADD SLT PUSH2 0x1B9 JUMPI PUSH1 0x20 PUSH1 0x40 MLOAD PUSH1 0x0 DUP1 MLOAD PUSH1 0x20 PUSH2 0x1DF5 DUP4 CODECOPY DUP2 MLOAD SWAP2 MSTORE DUP2 MSTORE RETURN JUMPDEST PUSH1 0x0 CALLDATASIZE PUSH1 0x3 NOT ADD SLT PUSH2 0x1B9 JUMPI PUSH1 0x20 PUSH1 0x40 MLOAD PUSH1 0x0 DUP1 MLOAD PUSH1 0x20 PUSH2 0x1F15 DUP4 CODECOPY DUP2 MLOAD SWAP2 MSTORE DUP2 MSTORE RETURN JUMPDEST PUSH1 0x0 CALLDATASIZE PUSH1 0x3 NOT ADD SLT PUSH2 0x1B9 JUMPI PUSH1 0x20 PUSH1 0x40 MLOAD PUSH1 0x0 DUP1 MLOAD PUSH1 0x20 PUSH2 0x1E55 DUP4 CODECOPY DUP2 MLOAD SWAP2 MSTORE DUP2 MSTORE RETURN JUMPDEST PUSH1 0x0 CALLDATASIZE PUSH1 0x3 NOT ADD SLT PUSH2 0x1B9 JUMPI PUSH1 0x20 PUSH1 0x40 MLOAD PUSH1 0x0 DUP1 MLOAD PUSH1 0x20 PUSH2 0x1ED5 DUP4 CODECOPY DUP2 MLOAD SWAP2 MSTORE DUP2 MSTORE RETURN JUMPDEST PUSH1 0x0 CALLDATASIZE PUSH1 0x3 NOT ADD SLT PUSH2 0x1B9 JUMPI PUSH1 0x20 PUSH1 0x40 MLOAD PUSH1 0x0 DUP1 MLOAD PUSH1 0x20 PUSH2 0x1E95 DUP4 CODECOPY DUP2 MLOAD SWAP2 MSTORE DUP2 MSTORE RETURN JUMPDEST PUSH1 0x0 CALLDATASIZE PUSH1 0x3 NOT ADD SLT PUSH2 0x1B9 JUMPI PUSH1 0x20 PUSH1 0x40 MLOAD PUSH1 0x0 DUP1 MLOAD PUSH1 0x20 PUSH2 0x1BD5 DUP4 CODECOPY DUP2 MLOAD SWAP2 MSTORE DUP2 MSTORE RETURN JUMPDEST PUSH1 0x0 CALLDATASIZE PUSH1 0x3 NOT ADD SLT PUSH2 0x1B9 JUMPI PUSH1 0x20 PUSH1 0x40 MLOAD PUSH1 0x0 DUP1 MLOAD PUSH1 0x20 PUSH2 0x1EB5 DUP4 CODECOPY DUP2 MLOAD SWAP2 MSTORE DUP2 MSTORE RETURN JUMPDEST PUSH1 0x0 CALLDATASIZE PUSH1 0x3 NOT ADD SLT PUSH2 0x1B9 JUMPI PUSH1 0x20 PUSH1 0x40 MLOAD PUSH1 0x0 DUP1 MLOAD PUSH1 0x20 PUSH2 0x1DB5 DUP4 CODECOPY DUP2 MLOAD SWAP2 MSTORE DUP2 MSTORE RETURN JUMPDEST PUSH1 0x20 CALLDATASIZE PUSH1 0x3 NOT ADD SLT PUSH2 0x1B9 JUMPI PUSH1 0x20 PUSH2 0x6D6 PUSH1 0x4 CALLDATALOAD PUSH2 0x192F JUMP JUMPDEST PUSH2 0xFFFF PUSH1 0x40 MLOAD SWAP2 AND DUP2 MSTORE RETURN JUMPDEST PUSH1 0x0 CALLDATASIZE PUSH1 0x3 NOT ADD SLT PUSH2 0x1B9 JUMPI PUSH1 0x20 PUSH1 0x40 MLOAD PUSH1 0x0 DUP1 MLOAD PUSH1 0x20 PUSH2 0x1C75 DUP4 CODECOPY DUP2 MLOAD SWAP2 MSTORE DUP2 MSTORE RETURN JUMPDEST PUSH1 0x20 CALLDATASIZE PUSH1 0x3 NOT ADD SLT PUSH2 0x1B9 JUMPI PUSH1 0x20 PUSH2 0x71F PUSH1 0x4 CALLDATALOAD PUSH2 0x181C JUMP JUMPDEST PUSH1 0x40 MLOAD SWAP1 DUP2 MSTORE RETURN JUMPDEST PUSH1 0x0 CALLDATASIZE PUSH1 0x3 NOT ADD SLT PUSH2 0x1B9 JUMPI PUSH1 0x20 PUSH1 0x40 MLOAD PUSH1 0x0 DUP1 MLOAD PUSH1 0x20 PUSH2 0x1D75 DUP4 CODECOPY DUP2 MLOAD SWAP2 MSTORE DUP2 MSTORE RETURN JUMPDEST PUSH1 0x0 CALLDATASIZE PUSH1 0x3 NOT ADD SLT PUSH2 0x1B9 JUMPI PUSH1 0x20 PUSH1 0x40 MLOAD PUSH1 0x0 DUP1 MLOAD PUSH1 0x20 PUSH2 0x1C15 DUP4 CODECOPY DUP2 MLOAD SWAP2 MSTORE DUP2 MSTORE RETURN JUMPDEST PUSH1 0x20 CALLDATASIZE PUSH1 0x3 NOT ADD SLT PUSH2 0x1B9 JUMPI PUSH1 0x20 PUSH1 0x4 CALLDATALOAD PUSH1 0x0 DUP1 MLOAD PUSH1 0x20 PUSH2 0x1EB5 DUP4 CODECOPY DUP2 MLOAD SWAP2 MSTORE DUP2 EQ SWAP1 DUP2 ISZERO PUSH2 0x929 JUMPI JUMPDEST DUP2 ISZERO PUSH2 0x911 JUMPI JUMPDEST DUP2 ISZERO PUSH2 0x8F9 JUMPI JUMPDEST DUP2 ISZERO PUSH2 0x8E1 JUMPI JUMPDEST DUP2 ISZERO PUSH2 0x8C9 JUMPI JUMPDEST DUP2 ISZERO PUSH2 0x8B1 JUMPI JUMPDEST DUP2 ISZERO PUSH2 0x899 JUMPI JUMPDEST DUP2 ISZERO PUSH2 0x881 JUMPI JUMPDEST DUP2 ISZERO PUSH2 0x869 JUMPI JUMPDEST DUP2 ISZERO PUSH2 0x851 JUMPI JUMPDEST DUP2 ISZERO PUSH2 0x839 JUMPI JUMPDEST DUP2 ISZERO PUSH2 0x821 JUMPI JUMPDEST DUP2 ISZERO PUSH2 0x809 JUMPI DUP2 ISZERO PUSH2 0x321 JUMPI DUP2 ISZERO PUSH2 0x309 JUMPI DUP2 ISZERO PUSH2 0x2F1 JUMPI POP PUSH1 0x40 MLOAD SWAP1 ISZERO ISZERO DUP2 MSTORE RETURN JUMPDEST PUSH1 0x0 DUP1 MLOAD PUSH1 0x20 PUSH2 0x1E95 DUP4 CODECOPY DUP2 MLOAD SWAP2 MSTORE DUP2 EQ SWAP2 POP PUSH2 0x2D1 JUMP JUMPDEST PUSH1 0x0 DUP1 MLOAD PUSH1 0x20 PUSH2 0x1BF5 DUP4 CODECOPY DUP2 MLOAD SWAP2 MSTORE DUP2 EQ SWAP2 POP PUSH2 0x7E6 JUMP JUMPDEST PUSH1 0x0 DUP1 MLOAD PUSH1 0x20 PUSH2 0x1D15 DUP4 CODECOPY DUP2 MLOAD SWAP2 MSTORE DUP2 EQ SWAP2 POP PUSH2 0x7DF JUMP JUMPDEST PUSH1 0x0 DUP1 MLOAD PUSH1 0x20 PUSH2 0x1E75 DUP4 CODECOPY DUP2 MLOAD SWAP2 MSTORE DUP2 EQ SWAP2 POP PUSH2 0x7D8 JUMP JUMPDEST PUSH1 0x0 DUP1 MLOAD PUSH1 0x20 PUSH2 0x1C75 DUP4 CODECOPY DUP2 MLOAD SWAP2 MSTORE DUP2 EQ SWAP2 POP PUSH2 0x7D1 JUMP JUMPDEST PUSH1 0x0 DUP1 MLOAD PUSH1 0x20 PUSH2 0x1F15 DUP4 CODECOPY DUP2 MLOAD SWAP2 MSTORE DUP2 EQ SWAP2 POP PUSH2 0x7CA JUMP JUMPDEST PUSH1 0x0 DUP1 MLOAD PUSH1 0x20 PUSH2 0x1DD5 DUP4 CODECOPY DUP2 MLOAD SWAP2 MSTORE DUP2 EQ SWAP2 POP PUSH2 0x7C3 JUMP JUMPDEST PUSH1 0x0 DUP1 MLOAD PUSH1 0x20 PUSH2 0x1DB5 DUP4 CODECOPY DUP2 MLOAD SWAP2 MSTORE DUP2 EQ SWAP2 POP PUSH2 0x7BC JUMP JUMPDEST PUSH1 0x0 DUP1 MLOAD PUSH1 0x20 PUSH2 0x1D75 DUP4 CODECOPY DUP2 MLOAD SWAP2 MSTORE DUP2 EQ SWAP2 POP PUSH2 0x7B5 JUMP JUMPDEST PUSH1 0x0 DUP1 MLOAD PUSH1 0x20 PUSH2 0x1CF5 DUP4 CODECOPY DUP2 MLOAD SWAP2 MSTORE DUP2 EQ SWAP2 POP PUSH2 0x7AE JUMP JUMPDEST PUSH1 0x0 DUP1 MLOAD PUSH1 0x20 PUSH2 0x1CB5 DUP4 CODECOPY DUP2 MLOAD SWAP2 MSTORE DUP2 EQ SWAP2 POP PUSH2 0x7A7 JUMP JUMPDEST PUSH1 0x0 DUP1 MLOAD PUSH1 0x20 PUSH2 0x1BB5 DUP4 CODECOPY DUP2 MLOAD SWAP2 MSTORE DUP2 EQ SWAP2 POP PUSH2 0x7A0 JUMP JUMPDEST PUSH1 0x0 DUP1 MLOAD PUSH1 0x20 PUSH2 0x1C55 DUP4 CODECOPY DUP2 MLOAD SWAP2 MSTORE DUP2 EQ SWAP2 POP PUSH2 0x799 JUMP JUMPDEST PUSH1 0x20 CALLDATASIZE PUSH1 0x3 NOT ADD SLT PUSH2 0x1B9 JUMPI PUSH2 0x967 PUSH2 0x95B PUSH1 0x4 CALLDATALOAD PUSH2 0x11A0 JUMP JUMPDEST PUSH1 0x40 MLOAD SWAP2 DUP3 SWAP2 DUP3 PUSH2 0xB57 JUMP JUMPDEST SUB SWAP1 RETURN JUMPDEST PUSH1 0x0 CALLDATASIZE PUSH1 0x3 NOT ADD SLT PUSH2 0x1B9 JUMPI PUSH1 0x20 PUSH1 0x40 MLOAD PUSH1 0x0 DUP1 MLOAD PUSH1 0x20 PUSH2 0x1EF5 DUP4 CODECOPY DUP2 MLOAD SWAP2 MSTORE DUP2 MSTORE RETURN JUMPDEST PUSH1 0x20 CALLDATASIZE PUSH1 0x3 NOT ADD SLT PUSH2 0x1B9 JUMPI PUSH2 0x967 PUSH2 0x95B PUSH1 0x4 CALLDATALOAD PUSH2 0xD37 JUMP JUMPDEST PUSH1 0x0 CALLDATASIZE PUSH1 0x3 NOT ADD SLT PUSH2 0x1B9 JUMPI PUSH1 0x20 PUSH1 0x40 MLOAD PUSH1 0x0 DUP1 MLOAD PUSH1 0x20 PUSH2 0x1CB5 DUP4 CODECOPY DUP2 MLOAD SWAP2 MSTORE DUP2 MSTORE RETURN JUMPDEST PUSH1 0x0 CALLDATASIZE PUSH1 0x3 NOT ADD SLT PUSH2 0x1B9 JUMPI PUSH1 0x20 PUSH1 0x40 MLOAD PUSH1 0x0 DUP1 MLOAD PUSH1 0x20 PUSH2 0x1D55 DUP4 CODECOPY DUP2 MLOAD SWAP2 MSTORE DUP2 MSTORE RETURN JUMPDEST PUSH1 0x0 CALLDATASIZE PUSH1 0x3 NOT ADD SLT PUSH2 0x1B9 JUMPI PUSH1 0x20 PUSH1 0x40 MLOAD PUSH1 0x0 DUP1 MLOAD PUSH1 0x20 PUSH2 0x1E15 DUP4 CODECOPY DUP2 MLOAD SWAP2 MSTORE DUP2 MSTORE RETURN JUMPDEST PUSH1 0x0 CALLDATASIZE PUSH1 0x3 NOT ADD SLT PUSH2 0x1B9 JUMPI PUSH1 0x20 PUSH1 0x40 MLOAD PUSH1 0x0 DUP1 MLOAD PUSH1 0x20 PUSH2 0x1E75 DUP4 CODECOPY DUP2 MLOAD SWAP2 MSTORE DUP2 MSTORE RETURN JUMPDEST PUSH1 0x0 CALLDATASIZE PUSH1 0x3 NOT ADD SLT PUSH2 0x1B9 JUMPI PUSH1 0x20 PUSH1 0x40 MLOAD PUSH1 0x0 DUP1 MLOAD PUSH1 0x20 PUSH2 0x1CD5 DUP4 CODECOPY DUP2 MLOAD SWAP2 MSTORE DUP2 MSTORE RETURN JUMPDEST PUSH1 0x0 CALLDATASIZE PUSH1 0x3 NOT ADD SLT PUSH2 0x1B9 JUMPI PUSH1 0x20 PUSH1 0x40 MLOAD PUSH1 0x0 DUP1 MLOAD PUSH1 0x20 PUSH2 0x1BB5 DUP4 CODECOPY DUP2 MLOAD SWAP2 MSTORE DUP2 MSTORE RETURN JUMPDEST PUSH1 0x0 CALLDATASIZE PUSH1 0x3 NOT ADD SLT PUSH2 0x1B9 JUMPI PUSH1 0x20 PUSH1 0x40 MLOAD PUSH1 0x0 DUP1 MLOAD PUSH1 0x20 PUSH2 0x1CF5 DUP4 CODECOPY DUP2 MLOAD SWAP2 MSTORE DUP2 MSTORE RETURN JUMPDEST PUSH1 0x0 CALLDATASIZE PUSH1 0x3 NOT ADD SLT PUSH2 0x1B9 JUMPI PUSH1 0x20 PUSH1 0x40 MLOAD PUSH1 0x0 DUP1 MLOAD PUSH1 0x20 PUSH2 0x1C35 DUP4 CODECOPY DUP2 MLOAD SWAP2 MSTORE DUP2 MSTORE RETURN JUMPDEST PUSH1 0x0 CALLDATASIZE PUSH1 0x3 NOT ADD SLT PUSH2 0x1B9 JUMPI PUSH1 0x20 PUSH1 0x40 MLOAD PUSH1 0x0 DUP1 MLOAD PUSH1 0x20 PUSH2 0x1BF5 DUP4 CODECOPY DUP2 MLOAD SWAP2 MSTORE DUP2 MSTORE RETURN JUMPDEST PUSH1 0x0 CALLDATASIZE PUSH1 0x3 NOT ADD SLT PUSH2 0x1B9 JUMPI PUSH1 0x20 PUSH1 0x40 MLOAD PUSH1 0x0 DUP1 MLOAD PUSH1 0x20 PUSH2 0x1C55 DUP4 CODECOPY DUP2 MLOAD SWAP2 MSTORE DUP2 MSTORE RETURN JUMPDEST PUSH1 0x0 CALLDATASIZE PUSH1 0x3 NOT ADD SLT PUSH2 0x1B9 JUMPI PUSH1 0x20 PUSH1 0x40 MLOAD PUSH1 0x0 DUP1 MLOAD PUSH1 0x20 PUSH2 0x1D95 DUP4 CODECOPY DUP2 MLOAD SWAP2 MSTORE DUP2 MSTORE RETURN JUMPDEST PUSH1 0x0 CALLDATASIZE PUSH1 0x3 NOT ADD SLT PUSH2 0x1B9 JUMPI DUP1 PUSH1 0x0 DUP1 MLOAD PUSH1 0x20 PUSH2 0x1DD5 DUP4 CODECOPY DUP2 MLOAD SWAP2 MSTORE PUSH1 0x20 SWAP3 MSTORE RETURN JUMPDEST SWAP2 SWAP1 SWAP2 PUSH1 0x20 DUP2 MSTORE DUP3 MLOAD DUP1 PUSH1 0x20 DUP4 ADD MSTORE PUSH1 0x0 JUMPDEST DUP2 DUP2 LT PUSH2 0xB8A JUMPI POP PUSH1 0x40 SWAP3 SWAP4 POP PUSH1 0x0 DUP4 DUP3 DUP5 ADD ADD MSTORE PUSH1 0x1F DUP1 NOT SWAP2 ADD AND ADD ADD SWAP1 JUMP JUMPDEST DUP1 PUSH1 0x20 DUP1 SWAP3 DUP8 ADD ADD MLOAD PUSH1 0x40 DUP3 DUP7 ADD ADD MSTORE ADD PUSH2 0xB69 JUMP JUMPDEST PUSH1 0x40 DUP1 MLOAD SWAP2 SWAP1 DUP3 ADD PUSH1 0x1 PUSH1 0x1 PUSH1 0x40 SHL SUB DUP2 GT DUP4 DUP3 LT OR PUSH2 0xBC3 JUMPI PUSH1 0x40 MSTORE PUSH1 0x14 DUP3 MSTORE JUMP JUMPDEST PUSH4 0x4E487B71 PUSH1 0xE0 SHL PUSH1 0x0 MSTORE PUSH1 0x41 PUSH1 0x4 MSTORE PUSH1 0x24 PUSH1 0x0 REVERT JUMPDEST PUSH1 0x40 DUP1 MLOAD SWAP2 SWAP1 DUP3 ADD PUSH1 0x1 PUSH1 0x1 PUSH1 0x40 SHL SUB DUP2 GT DUP4 DUP3 LT OR PUSH2 0xBC3 JUMPI PUSH1 0x40 MSTORE PUSH1 0x18 DUP3 MSTORE JUMP JUMPDEST PUSH1 0x40 DUP1 MLOAD SWAP2 SWAP1 DUP3 ADD PUSH1 0x1 PUSH1 0x1 PUSH1 0x40 SHL SUB DUP2 GT DUP4 DUP3 LT OR PUSH2 0xBC3 JUMPI PUSH1 0x40 MSTORE PUSH1 0x11 DUP3 MSTORE JUMP JUMPDEST PUSH1 0x40 DUP1 MLOAD SWAP2 SWAP1 DUP3 ADD PUSH1 0x1 PUSH1 0x1 PUSH1 0x40 SHL SUB DUP2 GT DUP4 DUP3 LT OR PUSH2 0xBC3 JUMPI PUSH1 0x40 MSTORE PUSH1 0x7 DUP3 MSTORE JUMP JUMPDEST PUSH1 0x40 DUP1 MLOAD SWAP2 SWAP1 DUP3 ADD PUSH1 0x1 PUSH1 0x1 PUSH1 0x40 SHL SUB DUP2 GT DUP4 DUP3 LT OR PUSH2 0xBC3 JUMPI PUSH1 0x40 MSTORE PUSH1 0xF DUP3 MSTORE JUMP JUMPDEST PUSH1 0x40 DUP1 MLOAD SWAP2 SWAP1 DUP3 ADD PUSH1 0x1 PUSH1 0x1 PUSH1 0x40 SHL SUB DUP2 GT DUP4 DUP3 LT OR PUSH2 0xBC3 JUMPI PUSH1 0x40 MSTORE PUSH1 0xC DUP3 MSTORE JUMP JUMPDEST PUSH1 0x40 DUP1 MLOAD SWAP2 SWAP1 DUP3 ADD PUSH1 0x1 PUSH1 0x1 PUSH1 0x40 SHL SUB DUP2 GT DUP4 DUP3 LT OR PUSH2 0xBC3 JUMPI PUSH1 0x40 MSTORE PUSH1 0xD DUP3 MSTORE JUMP JUMPDEST PUSH1 0x40 DUP1 MLOAD SWAP2 SWAP1 DUP3 ADD PUSH1 0x1 PUSH1 0x1 PUSH1 0x40 SHL SUB DUP2 GT DUP4 DUP3 LT OR PUSH2 0xBC3 JUMPI PUSH1 0x40 MSTORE PUSH1 0x10 DUP3 MSTORE JUMP JUMPDEST PUSH1 0x40 DUP1 MLOAD SWAP2 SWAP1 DUP3 ADD PUSH1 0x1 PUSH1 0x1 PUSH1 0x40 SHL SUB DUP2 GT DUP4 DUP3 LT OR PUSH2 0xBC3 JUMPI PUSH1 0x40 MSTORE PUSH1 0xA DUP3 MSTORE JUMP JUMPDEST PUSH1 0x40 DUP1 MLOAD SWAP2 SWAP1 DUP3 ADD PUSH1 0x1 PUSH1 0x1 PUSH1 0x40 SHL SUB DUP2 GT DUP4 DUP3 LT OR PUSH2 0xBC3 JUMPI PUSH1 0x40 MSTORE PUSH1 0xE DUP3 MSTORE JUMP JUMPDEST PUSH1 0x40 DUP1 MLOAD SWAP2 SWAP1 DUP3 ADD PUSH1 0x1 PUSH1 0x1 PUSH1 0x40 SHL SUB DUP2 GT DUP4 DUP3 LT OR PUSH2 0xBC3 JUMPI PUSH1 0x40 MSTORE PUSH1 0x8 DUP3 MSTORE JUMP JUMPDEST PUSH1 0x0 DUP1 MLOAD PUSH1 0x20 PUSH2 0x1EB5 DUP4 CODECOPY DUP2 MLOAD SWAP2 MSTORE DUP2 EQ DUP1 ISZERO PUSH2 0x1189 JUMPI JUMPDEST DUP1 ISZERO PUSH2 0x1172 JUMPI JUMPDEST DUP1 ISZERO PUSH2 0x115B JUMPI JUMPDEST PUSH2 0x1132 JUMPI PUSH1 0x0 DUP1 MLOAD PUSH1 0x20 PUSH2 0x1BD5 DUP4 CODECOPY DUP2 MLOAD SWAP2 MSTORE DUP2 EQ DUP1 ISZERO PUSH2 0x111B JUMPI JUMPDEST DUP1 ISZERO PUSH2 0x1104 JUMPI JUMPDEST DUP1 ISZERO PUSH2 0x10ED JUMPI JUMPDEST PUSH2 0x10C0 JUMPI PUSH1 0x0 DUP1 MLOAD PUSH1 0x20 PUSH2 0x1CF5 DUP4 CODECOPY DUP2 MLOAD SWAP2 MSTORE DUP2 EQ DUP1 ISZERO PUSH2 0x10A9 JUMPI JUMPDEST DUP1 ISZERO PUSH2 0x1092 JUMPI JUMPDEST DUP1 ISZERO PUSH2 0x107B JUMPI JUMPDEST PUSH2 0x1055 JUMPI PUSH1 0x0 DUP1 MLOAD PUSH1 0x20 PUSH2 0x1D95 DUP4 CODECOPY DUP2 MLOAD SWAP2 MSTORE DUP2 EQ DUP1 ISZERO PUSH2 0x103E JUMPI JUMPDEST DUP1 ISZERO PUSH2 0x1027 JUMPI JUMPDEST DUP1 ISZERO PUSH2 0x1010 JUMPI JUMPDEST PUSH2 0xFE7 JUMPI PUSH1 0x0 DUP1 MLOAD PUSH1 0x20 PUSH2 0x1DD5 DUP4 CODECOPY DUP2 MLOAD SWAP2 MSTORE DUP2 EQ DUP1 ISZERO PUSH2 0xFD0 JUMPI JUMPDEST DUP1 ISZERO PUSH2 0xFB9 JUMPI JUMPDEST DUP1 ISZERO PUSH2 0xFA2 JUMPI JUMPDEST PUSH2 0xF79 JUMPI PUSH1 0x0 DUP1 MLOAD PUSH1 0x20 PUSH2 0x1E75 DUP4 CODECOPY DUP2 MLOAD SWAP2 MSTORE DUP2 EQ DUP1 ISZERO PUSH2 0xF62 JUMPI JUMPDEST DUP1 ISZERO PUSH2 0xF4B JUMPI JUMPDEST DUP1 ISZERO PUSH2 0xF34 JUMPI JUMPDEST PUSH2 0xEEE JUMPI PUSH1 0x0 DUP1 MLOAD PUSH1 0x20 PUSH2 0x1C35 DUP4 CODECOPY DUP2 MLOAD SWAP2 MSTORE DUP2 EQ SWAP1 DUP2 ISZERO PUSH2 0xED6 JUMPI JUMPDEST DUP2 ISZERO PUSH2 0xEBE JUMPI JUMPDEST DUP2 ISZERO PUSH2 0xEA6 JUMPI JUMPDEST POP PUSH2 0xE7A JUMPI PUSH2 0xE67 PUSH2 0xC1F JUMP JUMPDEST PUSH7 0x2AB735B737BBB7 PUSH1 0xC9 SHL PUSH1 0x20 DUP3 ADD MSTORE SWAP1 JUMP JUMPDEST PUSH2 0xE82 PUSH2 0xBD9 JUMP JUMPDEST PUSH24 0x22B23AB1B0BA34B7B710131021B7B73A3934B13ABA34B7B7 PUSH1 0x41 SHL PUSH1 0x20 DUP3 ADD MSTORE SWAP1 JUMP JUMPDEST PUSH1 0x0 DUP1 MLOAD PUSH1 0x20 PUSH2 0x1E15 DUP4 CODECOPY DUP2 MLOAD SWAP2 MSTORE SWAP2 POP EQ CODESIZE PUSH2 0xE5A JUMP JUMPDEST PUSH1 0x0 DUP1 MLOAD PUSH1 0x20 PUSH2 0x1ED5 DUP4 CODECOPY DUP2 MLOAD SWAP2 MSTORE DUP2 EQ SWAP2 POP PUSH2 0xE53 JUMP JUMPDEST PUSH1 0x0 DUP1 MLOAD PUSH1 0x20 PUSH2 0x1C15 DUP4 CODECOPY DUP2 MLOAD SWAP2 MSTORE DUP2 EQ SWAP2 POP PUSH2 0xE4C JUMP JUMPDEST POP PUSH1 0x40 DUP1 MLOAD SWAP1 DUP2 ADD PUSH1 0x1 PUSH1 0x1 PUSH1 0x40 SHL SUB DUP2 GT DUP3 DUP3 LT OR PUSH2 0xBC3 JUMPI PUSH1 0x40 MSTORE PUSH1 0x19 DUP2 MSTORE PUSH25 0x416368696576656D656E74732026204D696C6573746F6E6573 PUSH1 0x38 SHL PUSH1 0x20 DUP3 ADD MSTORE SWAP1 JUMP JUMPDEST POP PUSH1 0x0 DUP1 MLOAD PUSH1 0x20 PUSH2 0x1E95 DUP4 CODECOPY DUP2 MLOAD SWAP2 MSTORE DUP2 EQ PUSH2 0xE2F JUMP JUMPDEST POP PUSH1 0x0 DUP1 MLOAD PUSH1 0x20 PUSH2 0x1BF5 DUP4 CODECOPY DUP2 MLOAD SWAP2 MSTORE DUP2 EQ PUSH2 0xE28 JUMP JUMPDEST POP PUSH1 0x0 DUP1 MLOAD PUSH1 0x20 PUSH2 0x1D15 DUP4 CODECOPY DUP2 MLOAD SWAP2 MSTORE DUP2 EQ PUSH2 0xE21 JUMP JUMPDEST POP PUSH2 0xF82 PUSH2 0xBA0 JUMP JUMPDEST PUSH20 0x5365637572697479202620496E74656772697479 PUSH1 0x60 SHL PUSH1 0x20 DUP3 ADD MSTORE SWAP1 JUMP JUMPDEST POP PUSH1 0x0 DUP1 MLOAD PUSH1 0x20 PUSH2 0x1C75 DUP4 CODECOPY DUP2 MLOAD SWAP2 MSTORE DUP2 EQ PUSH2 0xE05 JUMP JUMPDEST POP PUSH1 0x0 DUP1 MLOAD PUSH1 0x20 PUSH2 0x1F15 DUP4 CODECOPY DUP2 MLOAD SWAP2 MSTORE DUP2 EQ PUSH2 0xDFE JUMP JUMPDEST POP PUSH1 0x0 DUP1 MLOAD PUSH1 0x20 PUSH2 0x1E55 DUP4 CODECOPY DUP2 MLOAD SWAP2 MSTORE DUP2 EQ PUSH2 0xDF7 JUMP JUMPDEST POP PUSH2 0xFF0 PUSH2 0xBA0 JUMP JUMPDEST PUSH20 0x436F6D6D657263652026204D65726368616E7473 PUSH1 0x60 SHL PUSH1 0x20 DUP3 ADD MSTORE SWAP1 JUMP JUMPDEST POP PUSH1 0x0 DUP1 MLOAD PUSH1 0x20 PUSH2 0x1C95 DUP4 CODECOPY DUP2 MLOAD SWAP2 MSTORE DUP2 EQ PUSH2 0xDDB JUMP JUMPDEST POP PUSH1 0x0 DUP1 MLOAD PUSH1 0x20 PUSH2 0x1EF5 DUP4 CODECOPY DUP2 MLOAD SWAP2 MSTORE DUP2 EQ PUSH2 0xDD4 JUMP JUMPDEST POP PUSH1 0x0 DUP1 MLOAD PUSH1 0x20 PUSH2 0x1D55 DUP4 CODECOPY DUP2 MLOAD SWAP2 MSTORE DUP2 EQ PUSH2 0xDCD JUMP JUMPDEST POP PUSH2 0x105E PUSH2 0xBFC JUMP JUMPDEST PUSH17 0x5472757374202620436F6D6D756E697479 PUSH1 0x78 SHL PUSH1 0x20 DUP3 ADD MSTORE SWAP1 JUMP JUMPDEST POP PUSH1 0x0 DUP1 MLOAD PUSH1 0x20 PUSH2 0x1E35 DUP4 CODECOPY DUP2 MLOAD SWAP2 MSTORE DUP2 EQ PUSH2 0xDB1 JUMP JUMPDEST POP PUSH1 0x0 DUP1 MLOAD PUSH1 0x20 PUSH2 0x1DB5 DUP4 CODECOPY DUP2 MLOAD SWAP2 MSTORE DUP2 EQ PUSH2 0xDAA JUMP JUMPDEST POP PUSH1 0x0 DUP1 MLOAD PUSH1 0x20 PUSH2 0x1D75 DUP4 CODECOPY DUP2 MLOAD SWAP2 MSTORE DUP2 EQ PUSH2 0xDA3 JUMP JUMPDEST POP PUSH2 0x10C9 PUSH2 0xBD9 JUMP JUMPDEST PUSH24 0x20B1BA34BB34BA3C9013102830B93A34B1B4B830BA34B7B7 PUSH1 0x41 SHL PUSH1 0x20 DUP3 ADD MSTORE SWAP1 JUMP JUMPDEST POP PUSH1 0x0 DUP1 MLOAD PUSH1 0x20 PUSH2 0x1DF5 DUP4 CODECOPY DUP2 MLOAD SWAP2 MSTORE DUP2 EQ PUSH2 0xD87 JUMP JUMPDEST POP PUSH1 0x0 DUP1 MLOAD PUSH1 0x20 PUSH2 0x1D35 DUP4 CODECOPY DUP2 MLOAD SWAP2 MSTORE DUP2 EQ PUSH2 0xD80 JUMP JUMPDEST POP PUSH1 0x0 DUP1 MLOAD PUSH1 0x20 PUSH2 0x1CD5 DUP4 CODECOPY DUP2 MLOAD SWAP2 MSTORE DUP2 EQ PUSH2 0xD79 JUMP JUMPDEST POP PUSH2 0x113B PUSH2 0xBA0 JUMP JUMPDEST PUSH20 0x2834B7B732B2B91013102337BAB73230BA34B7B7 PUSH1 0x61 SHL PUSH1 0x20 DUP3 ADD MSTORE SWAP1 JUMP JUMPDEST POP PUSH1 0x0 DUP1 MLOAD PUSH1 0x20 PUSH2 0x1CB5 DUP4 CODECOPY DUP2 MLOAD SWAP2 MSTORE DUP2 EQ PUSH2 0xD5D JUMP JUMPDEST POP PUSH1 0x0 DUP1 MLOAD PUSH1 0x20 PUSH2 0x1BB5 DUP4 CODECOPY DUP2 MLOAD SWAP2 MSTORE DUP2 EQ PUSH2 0xD56 JUMP JUMPDEST POP PUSH1 0x0 DUP1 MLOAD PUSH1 0x20 PUSH2 0x1C55 DUP4 CODECOPY DUP2 MLOAD SWAP2 MSTORE DUP2 EQ PUSH2 0xD4F JUMP JUMPDEST PUSH1 0x0 DUP1 MLOAD PUSH1 0x20 PUSH2 0x1EB5 DUP4 CODECOPY DUP2 MLOAD SWAP2 MSTORE DUP2 EQ PUSH2 0x1800 JUMPI PUSH1 0x0 DUP1 MLOAD PUSH1 0x20 PUSH2 0x1C55 DUP4 CODECOPY DUP2 MLOAD SWAP2 MSTORE DUP2 EQ PUSH2 0x17DC JUMPI PUSH1 0x0 DUP1 MLOAD PUSH1 0x20 PUSH2 0x1BB5 DUP4 CODECOPY DUP2 MLOAD SWAP2 MSTORE DUP2 EQ PUSH2 0x17B8 JUMPI PUSH1 0x0 DUP1 MLOAD PUSH1 0x20 PUSH2 0x1CB5 DUP4 CODECOPY DUP2 MLOAD SWAP2 MSTORE DUP2 EQ PUSH2 0x1797 JUMPI PUSH1 0x0 DUP1 MLOAD PUSH1 0x20 PUSH2 0x1BD5 DUP4 CODECOPY DUP2 MLOAD SWAP2 MSTORE DUP2 EQ PUSH2 0x1775 JUMPI PUSH1 0x0 DUP1 MLOAD PUSH1 0x20 PUSH2 0x1CD5 DUP4 CODECOPY DUP2 MLOAD SWAP2 MSTORE DUP2 EQ PUSH2 0x1750 JUMPI PUSH1 0x0 DUP1 MLOAD PUSH1 0x20 PUSH2 0x1D35 DUP4 CODECOPY DUP2 MLOAD SWAP2 MSTORE DUP2 EQ PUSH2 0x1731 JUMPI PUSH1 0x0 DUP1 MLOAD PUSH1 0x20 PUSH2 0x1DF5 DUP4 CODECOPY DUP2 MLOAD SWAP2 MSTORE DUP2 EQ PUSH2 0x170E JUMPI PUSH1 0x0 DUP1 MLOAD PUSH1 0x20 PUSH2 0x1CF5 DUP4 CODECOPY DUP2 MLOAD SWAP2 MSTORE DUP2 EQ PUSH2 0x16E9 JUMPI PUSH1 0x0 DUP1 MLOAD PUSH1 0x20 PUSH2 0x1D75 DUP4 CODECOPY DUP2 MLOAD SWAP2 MSTORE DUP2 EQ PUSH2 0x16C3 JUMPI PUSH1 0x0 DUP1 MLOAD PUSH1 0x20 PUSH2 0x1DB5 DUP4 CODECOPY DUP2 MLOAD SWAP2 MSTORE DUP2 EQ PUSH2 0x16A4 JUMPI PUSH1 0x0 DUP1 MLOAD PUSH1 0x20 PUSH2 0x1E35 DUP4 CODECOPY DUP2 MLOAD SWAP2 MSTORE DUP2 EQ PUSH2 0x1671 JUMPI PUSH1 0x0 DUP1 MLOAD PUSH1 0x20 PUSH2 0x1D95 DUP4 CODECOPY DUP2 MLOAD SWAP2 MSTORE DUP2 EQ PUSH2 0x164B JUMPI PUSH1 0x0 DUP1 MLOAD PUSH1 0x20 PUSH2 0x1D55 DUP4 CODECOPY DUP2 MLOAD SWAP2 MSTORE DUP2 EQ PUSH2 0x1628 JUMPI PUSH1 0x0 DUP1 MLOAD PUSH1 0x20 PUSH2 0x1EF5 DUP4 CODECOPY DUP2 MLOAD SWAP2 MSTORE DUP2 EQ PUSH2 0x15E9 JUMPI PUSH1 0x0 DUP1 MLOAD PUSH1 0x20 PUSH2 0x1C95 DUP4 CODECOPY DUP2 MLOAD SWAP2 MSTORE DUP2 EQ PUSH2 0x15C8 JUMPI PUSH1 0x0 DUP1 MLOAD PUSH1 0x20 PUSH2 0x1DD5 DUP4 CODECOPY DUP2 MLOAD SWAP2 MSTORE DUP2 EQ PUSH2 0x15A7 JUMPI PUSH1 0x0 DUP1 MLOAD PUSH1 0x20 PUSH2 0x1E55 DUP4 CODECOPY DUP2 MLOAD SWAP2 MSTORE DUP2 EQ PUSH2 0x1586 JUMPI PUSH1 0x0 DUP1 MLOAD PUSH1 0x20 PUSH2 0x1F15 DUP4 CODECOPY DUP2 MLOAD SWAP2 MSTORE DUP2 EQ PUSH2 0x1567 JUMPI PUSH1 0x0 DUP1 MLOAD PUSH1 0x20 PUSH2 0x1C75 DUP4 CODECOPY DUP2 MLOAD SWAP2 MSTORE DUP2 EQ PUSH2 0x154A JUMPI PUSH1 0x0 DUP1 MLOAD PUSH1 0x20 PUSH2 0x1E75 DUP4 CODECOPY DUP2 MLOAD SWAP2 MSTORE DUP2 EQ PUSH2 0x1527 JUMPI PUSH1 0x0 DUP1 MLOAD PUSH1 0x20 PUSH2 0x1D15 DUP4 CODECOPY DUP2 MLOAD SWAP2 MSTORE DUP2 EQ PUSH2 0x1502 JUMPI PUSH1 0x0 DUP1 MLOAD PUSH1 0x20 PUSH2 0x1BF5 DUP4 CODECOPY DUP2 MLOAD SWAP2 MSTORE DUP2 EQ PUSH2 0x14E1 JUMPI PUSH1 0x0 DUP1 MLOAD PUSH1 0x20 PUSH2 0x1E95 DUP4 CODECOPY DUP2 MLOAD SWAP2 MSTORE DUP2 EQ PUSH2 0x149E JUMPI PUSH1 0x0 DUP1 MLOAD PUSH1 0x20 PUSH2 0x1C35 DUP4 CODECOPY DUP2 MLOAD SWAP2 MSTORE DUP2 EQ PUSH2 0x1481 JUMPI PUSH1 0x0 DUP1 MLOAD PUSH1 0x20 PUSH2 0x1C15 DUP4 CODECOPY DUP2 MLOAD SWAP2 MSTORE DUP2 EQ PUSH2 0x1449 JUMPI PUSH1 0x0 DUP1 MLOAD PUSH1 0x20 PUSH2 0x1ED5 DUP4 CODECOPY DUP2 MLOAD SWAP2 MSTORE DUP2 EQ PUSH2 0x142A JUMPI PUSH1 0x0 DUP1 MLOAD PUSH1 0x20 PUSH2 0x1E15 DUP4 CODECOPY DUP2 MLOAD SWAP2 MSTORE EQ PUSH2 0x140C JUMPI PUSH2 0x13F3 PUSH2 0xC88 JUMP JUMPDEST PUSH13 0x556E6B6E6F776E204261646765 PUSH1 0x98 SHL PUSH1 0x20 DUP3 ADD MSTORE SWAP1 JUMP JUMPDEST PUSH2 0x1414 PUSH2 0xCCE JUMP JUMPDEST PUSH10 0x2A3930B739B630BA37B9 PUSH1 0xB1 SHL PUSH1 0x20 DUP3 ADD MSTORE SWAP1 JUMP JUMPDEST POP PUSH2 0x1433 PUSH2 0xCCE JUMP JUMPDEST PUSH10 0x42756720426F756E7479 PUSH1 0xB0 SHL PUSH1 0x20 DUP3 ADD MSTORE SWAP1 JUMP JUMPDEST POP PUSH1 0x40 DUP1 MLOAD SWAP1 DUP2 ADD PUSH1 0x1 PUSH1 0x1 PUSH1 0x40 SHL SUB DUP2 GT DUP3 DUP3 LT OR PUSH2 0xBC3 JUMPI PUSH1 0x40 MSTORE PUSH1 0xB DUP2 MSTORE PUSH11 0x21B7B73A3934B13ABA37B9 PUSH1 0xA9 SHL PUSH1 0x20 DUP3 ADD MSTORE SWAP1 JUMP JUMPDEST POP PUSH2 0x148A PUSH2 0xD14 JUMP JUMPDEST PUSH8 0x22B23AB1B0BA37B9 PUSH1 0xC1 SHL PUSH1 0x20 DUP3 ADD MSTORE SWAP1 JUMP JUMPDEST POP PUSH1 0x40 DUP1 MLOAD SWAP1 DUP2 ADD PUSH1 0x1 PUSH1 0x1 PUSH1 0x40 SHL SUB DUP2 GT DUP3 DUP3 LT OR PUSH2 0xBC3 JUMPI PUSH1 0x40 MSTORE PUSH1 0x16 DUP2 MSTORE PUSH22 0x2234BB32B939B4B334B1B0BA34B7B71026B0B9BA32B9 PUSH1 0x51 SHL PUSH1 0x20 DUP3 ADD MSTORE SWAP1 JUMP JUMPDEST POP PUSH2 0x14EA PUSH2 0xC65 JUMP JUMPDEST PUSH12 0x2BB430B6329029B630BCB2B9 PUSH1 0xA1 SHL PUSH1 0x20 DUP3 ADD MSTORE SWAP1 JUMP JUMPDEST POP PUSH2 0x150B PUSH2 0xCAB JUMP JUMPDEST PUSH16 0x21B2B73A3AB93C9022B73237B939B2B9 PUSH1 0x81 SHL PUSH1 0x20 DUP3 ADD MSTORE SWAP1 JUMP JUMPDEST POP PUSH2 0x1530 PUSH2 0xCF1 JUMP JUMPDEST PUSH14 0x22B634BA329020B1B434B2BB32B9 PUSH1 0x91 SHL PUSH1 0x20 DUP3 ADD MSTORE SWAP1 JUMP JUMPDEST POP PUSH2 0x1553 PUSH2 0xD14 JUMP JUMPDEST PUSH8 0x23BAB0B93234B0B7 PUSH1 0xC1 SHL PUSH1 0x20 DUP3 ADD MSTORE SWAP1 JUMP JUMPDEST POP PUSH2 0x1570 PUSH2 0xCCE JUMP JUMPDEST PUSH10 0x2932B232B6B83A34B7B7 PUSH1 0xB1 SHL PUSH1 0x20 DUP3 ADD MSTORE SWAP1 JUMP JUMPDEST POP PUSH2 0x158F PUSH2 0xC65 JUMP JUMPDEST PUSH12 0x10DB19585B88149958DBDC99 PUSH1 0xA2 SHL PUSH1 0x20 DUP3 ADD MSTORE SWAP1 JUMP JUMPDEST POP PUSH2 0x15B0 PUSH2 0xC65 JUMP JUMPDEST PUSH12 0x233930BAB210243AB73A32B9 PUSH1 0xA1 SHL PUSH1 0x20 DUP3 ADD MSTORE SWAP1 JUMP JUMPDEST POP PUSH2 0x15D1 PUSH2 0xC65 JUMP JUMPDEST PUSH12 0x5A65726F2044697370757465 PUSH1 0xA0 SHL PUSH1 0x20 DUP3 ADD MSTORE SWAP1 JUMP JUMPDEST POP PUSH1 0x40 DUP1 MLOAD SWAP1 DUP2 ADD PUSH1 0x1 PUSH1 0x1 PUSH1 0x40 SHL SUB DUP2 GT DUP3 DUP3 LT OR PUSH2 0xBC3 JUMPI PUSH1 0x40 MSTORE PUSH1 0x12 DUP2 MSTORE PUSH18 0x125B9CDD185B9D0814D95D1D1B195B595B9D PUSH1 0x72 SHL PUSH1 0x20 DUP3 ADD MSTORE SWAP1 JUMP JUMPDEST POP PUSH2 0x1631 PUSH2 0xCF1 JUMP JUMPDEST PUSH14 0x115B1A5D194813595C98DA185B9D PUSH1 0x92 SHL PUSH1 0x20 DUP3 ADD MSTORE SWAP1 JUMP JUMPDEST POP PUSH2 0x1654 PUSH2 0xBFC JUMP JUMPDEST PUSH17 0x15995C9A599A59590813595C98DA185B9D PUSH1 0x7A SHL PUSH1 0x20 DUP3 ADD MSTORE SWAP1 JUMP JUMPDEST POP PUSH1 0x40 DUP1 MLOAD SWAP1 DUP2 ADD PUSH1 0x1 PUSH1 0x1 PUSH1 0x40 SHL SUB DUP2 GT DUP3 DUP3 LT OR PUSH2 0xBC3 JUMPI PUSH1 0x40 MSTORE PUSH1 0x6 DUP2 MSTORE PUSH6 0x26B2B73A37B9 PUSH1 0xD1 SHL PUSH1 0x20 DUP3 ADD MSTORE SWAP1 JUMP JUMPDEST POP PUSH2 0x16AD PUSH2 0xCCE JUMP JUMPDEST PUSH10 0x2832B0B1B2B6B0B5B2B9 PUSH1 0xB1 SHL PUSH1 0x20 DUP3 ADD MSTORE SWAP1 JUMP JUMPDEST POP PUSH2 0x16CC PUSH2 0xBFC JUMP JUMPDEST PUSH17 0x21B7B6B6BAB734BA3C90213AB4B63232B9 PUSH1 0x79 SHL PUSH1 0x20 DUP3 ADD MSTORE SWAP1 JUMP JUMPDEST POP PUSH2 0x16F2 PUSH2 0xCAB JUMP JUMPDEST PUSH16 0x2A393AB9BA32B21022B73237B939B2B9 PUSH1 0x81 SHL PUSH1 0x20 DUP3 ADD MSTORE SWAP1 JUMP JUMPDEST POP PUSH2 0x1717 PUSH2 0xCF1 JUMP JUMPDEST PUSH14 0x2230B4B63C9021B430B6B834B7B7 PUSH1 0x91 SHL PUSH1 0x20 DUP3 ADD MSTORE SWAP1 JUMP JUMPDEST POP PUSH2 0x173A PUSH2 0xCCE JUMP JUMPDEST PUSH10 0x2837BBB2B9102AB9B2B9 PUSH1 0xB1 SHL PUSH1 0x20 DUP3 ADD MSTORE SWAP1 JUMP JUMPDEST POP PUSH2 0x1759 PUSH2 0xCAB JUMP JUMPDEST PUSH16 0x23B7BB32B93730B731B2902B37BA32B9 PUSH1 0x81 SHL PUSH1 0x20 DUP3 ADD MSTORE SWAP1 JUMP JUMPDEST POP PUSH2 0x177E PUSH2 0xC88 JUMP JUMPDEST PUSH13 0x20B1BA34BB32902A3930B232B9 PUSH1 0x99 SHL PUSH1 0x20 DUP3 ADD MSTORE SWAP1 JUMP JUMPDEST POP PUSH2 0x17A0 PUSH2 0xC65 JUMP JUMPDEST PUSH12 0x22B0B9363C902A32B9BA32B9 PUSH1 0xA1 SHL PUSH1 0x20 DUP3 ADD MSTORE SWAP1 JUMP JUMPDEST POP PUSH2 0x17C1 PUSH2 0xC42 JUMP JUMPDEST PUSH15 0x2337BAB73234B7339026B2B6B132B9 PUSH1 0x89 SHL PUSH1 0x20 DUP3 ADD MSTORE SWAP1 JUMP JUMPDEST POP PUSH2 0x17E5 PUSH2 0xC42 JUMP JUMPDEST PUSH15 0x47656E657369732050726573616C65 PUSH1 0x88 SHL PUSH1 0x20 DUP3 ADD MSTORE SWAP1 JUMP JUMPDEST POP PUSH2 0x1809 PUSH2 0xC1F JUMP JUMPDEST PUSH7 0x2834B7B732B2B9 PUSH1 0xC9 SHL PUSH1 0x20 DUP3 ADD MSTORE SWAP1 JUMP JUMPDEST PUSH1 0x0 DUP1 MLOAD PUSH1 0x20 PUSH2 0x1BD5 DUP4 CODECOPY DUP2 MLOAD SWAP2 MSTORE DUP2 EQ PUSH2 0x191F JUMPI PUSH1 0x0 DUP1 MLOAD PUSH1 0x20 PUSH2 0x1CD5 DUP4 CODECOPY DUP2 MLOAD SWAP2 MSTORE DUP2 EQ PUSH2 0x1917 JUMPI PUSH1 0x0 DUP1 MLOAD PUSH1 0x20 PUSH2 0x1D35 DUP4 CODECOPY DUP2 MLOAD SWAP2 MSTORE DUP2 EQ PUSH2 0x191F JUMPI PUSH1 0x0 DUP1 MLOAD PUSH1 0x20 PUSH2 0x1DF5 DUP4 CODECOPY DUP2 MLOAD SWAP2 MSTORE DUP2 EQ PUSH2 0x1927 JUMPI PUSH1 0x0 DUP1 MLOAD PUSH1 0x20 PUSH2 0x1E35 DUP4 CODECOPY DUP2 MLOAD SWAP2 MSTORE DUP2 EQ PUSH2 0x190E JUMPI PUSH1 0x0 DUP1 MLOAD PUSH1 0x20 PUSH2 0x1D95 DUP4 CODECOPY DUP2 MLOAD SWAP2 MSTORE DUP2 EQ PUSH2 0x190E JUMPI PUSH1 0x0 DUP1 MLOAD PUSH1 0x20 PUSH2 0x1D55 DUP4 CODECOPY DUP2 MLOAD SWAP2 MSTORE DUP2 EQ PUSH2 0x1917 JUMPI PUSH1 0x0 DUP1 MLOAD PUSH1 0x20 PUSH2 0x1EF5 DUP4 CODECOPY DUP2 MLOAD SWAP2 MSTORE DUP2 EQ PUSH2 0x191F JUMPI PUSH1 0x0 DUP1 MLOAD PUSH1 0x20 PUSH2 0x1C95 DUP4 CODECOPY DUP2 MLOAD SWAP2 MSTORE DUP2 EQ PUSH2 0x1917 JUMPI PUSH1 0x0 DUP1 MLOAD PUSH1 0x20 PUSH2 0x1E55 DUP4 CODECOPY DUP2 MLOAD SWAP2 MSTORE DUP2 EQ PUSH2 0x190E JUMPI PUSH1 0x0 DUP1 MLOAD PUSH1 0x20 PUSH2 0x1C35 DUP4 CODECOPY DUP2 MLOAD SWAP2 MSTORE EQ PUSH2 0x1907 JUMPI PUSH1 0x0 SWAP1 JUMP JUMPDEST PUSH3 0xED4E00 SWAP1 JUMP JUMPDEST POP PUSH4 0x1E13380 SWAP1 JUMP JUMPDEST POP PUSH3 0xED4E00 SWAP1 JUMP JUMPDEST POP PUSH3 0x76A700 SWAP1 JUMP JUMPDEST POP PUSH3 0x278D00 SWAP1 JUMP JUMPDEST PUSH1 0x0 DUP1 MLOAD PUSH1 0x20 PUSH2 0x1EB5 DUP4 CODECOPY DUP2 MLOAD SWAP2 MSTORE DUP2 EQ PUSH2 0x1B90 JUMPI PUSH1 0x0 DUP1 MLOAD PUSH1 0x20 PUSH2 0x1C55 DUP4 CODECOPY DUP2 MLOAD SWAP2 MSTORE DUP2 EQ PUSH2 0x1B8A JUMPI PUSH1 0x0 DUP1 MLOAD PUSH1 0x20 PUSH2 0x1BB5 DUP4 CODECOPY DUP2 MLOAD SWAP2 MSTORE DUP2 EQ PUSH2 0x1B84 JUMPI PUSH1 0x0 DUP1 MLOAD PUSH1 0x20 PUSH2 0x1CB5 DUP4 CODECOPY DUP2 MLOAD SWAP2 MSTORE DUP2 EQ PUSH2 0x1B96 JUMPI PUSH1 0x0 DUP1 MLOAD PUSH1 0x20 PUSH2 0x1BD5 DUP4 CODECOPY DUP2 MLOAD SWAP2 MSTORE DUP2 EQ PUSH2 0x1BA2 JUMPI PUSH1 0x0 DUP1 MLOAD PUSH1 0x20 PUSH2 0x1CD5 DUP4 CODECOPY DUP2 MLOAD SWAP2 MSTORE DUP2 EQ PUSH2 0x1B96 JUMPI PUSH1 0x0 DUP1 MLOAD PUSH1 0x20 PUSH2 0x1D35 DUP4 CODECOPY DUP2 MLOAD SWAP2 MSTORE DUP2 EQ PUSH2 0x1B8A JUMPI PUSH1 0x0 DUP1 MLOAD PUSH1 0x20 PUSH2 0x1DF5 DUP4 CODECOPY DUP2 MLOAD SWAP2 MSTORE DUP2 EQ PUSH2 0x1BAE JUMPI PUSH1 0x0 DUP1 MLOAD PUSH1 0x20 PUSH2 0x1CF5 DUP4 CODECOPY DUP2 MLOAD SWAP2 MSTORE DUP2 EQ PUSH2 0x1B90 JUMPI PUSH1 0x0 DUP1 MLOAD PUSH1 0x20 PUSH2 0x1D75 DUP4 CODECOPY DUP2 MLOAD SWAP2 MSTORE DUP2 EQ PUSH2 0x1B9C JUMPI PUSH1 0x0 DUP1 MLOAD PUSH1 0x20 PUSH2 0x1DB5 DUP4 CODECOPY DUP2 MLOAD SWAP2 MSTORE DUP2 EQ PUSH2 0x1B96 JUMPI PUSH1 0x0 DUP1 MLOAD PUSH1 0x20 PUSH2 0x1E35 DUP4 CODECOPY DUP2 MLOAD SWAP2 MSTORE DUP2 EQ PUSH2 0x1B90 JUMPI PUSH1 0x0 DUP1 MLOAD PUSH1 0x20 PUSH2 0x1D95 DUP4 CODECOPY DUP2 MLOAD SWAP2 MSTORE DUP2 EQ PUSH2 0x1B8A JUMPI PUSH1 0x0 DUP1 MLOAD PUSH1 0x20 PUSH2 0x1D55 DUP4 CODECOPY DUP2 MLOAD SWAP2 MSTORE DUP2 EQ PUSH2 0x1BA8 JUMPI PUSH1 0x0 DUP1 MLOAD PUSH1 0x20 PUSH2 0x1EF5 DUP4 CODECOPY DUP2 MLOAD SWAP2 MSTORE DUP2 EQ PUSH2 0x1BA2 JUMPI PUSH1 0x0 DUP1 MLOAD PUSH1 0x20 PUSH2 0x1C95 DUP4 CODECOPY DUP2 MLOAD SWAP2 MSTORE DUP2 EQ PUSH2 0x1B96 JUMPI PUSH1 0x0 DUP1 MLOAD PUSH1 0x20 PUSH2 0x1DD5 DUP4 CODECOPY DUP2 MLOAD SWAP2 MSTORE DUP2 EQ PUSH2 0x1B84 JUMPI PUSH1 0x0 DUP1 MLOAD PUSH1 0x20 PUSH2 0x1E55 DUP4 CODECOPY DUP2 MLOAD SWAP2 MSTORE DUP2 EQ PUSH2 0x1BA2 JUMPI PUSH1 0x0 DUP1 MLOAD PUSH1 0x20 PUSH2 0x1F15 DUP4 CODECOPY DUP2 MLOAD SWAP2 MSTORE DUP2 EQ PUSH2 0x1B90 JUMPI PUSH1 0x0 DUP1 MLOAD PUSH1 0x20 PUSH2 0x1C75 DUP4 CODECOPY DUP2 MLOAD SWAP2 MSTORE DUP2 EQ PUSH2 0x1B8A JUMPI PUSH1 0x0 DUP1 MLOAD PUSH1 0x20 PUSH2 0x1E75 DUP4 CODECOPY DUP2 MLOAD SWAP2 MSTORE DUP2 EQ PUSH2 0x1B84 JUMPI PUSH1 0x0 DUP1 MLOAD PUSH1 0x20 PUSH2 0x1D15 DUP4 CODECOPY DUP2 MLOAD SWAP2 MSTORE DUP2 EQ PUSH2 0x1B9C JUMPI PUSH1 0x0 DUP1 MLOAD PUSH1 0x20 PUSH2 0x1BF5 DUP4 CODECOPY DUP2 MLOAD SWAP2 MSTORE DUP2 EQ PUSH2 0x1B96 JUMPI PUSH1 0x0 DUP1 MLOAD PUSH1 0x20 PUSH2 0x1E95 DUP4 CODECOPY DUP2 MLOAD SWAP2 MSTORE DUP2 EQ PUSH2 0x1B90 JUMPI PUSH1 0x0 DUP1 MLOAD PUSH1 0x20 PUSH2 0x1C35 DUP4 CODECOPY DUP2 MLOAD SWAP2 MSTORE DUP2 EQ PUSH2 0x1B90 JUMPI PUSH1 0x0 DUP1 MLOAD PUSH1 0x20 PUSH2 0x1C15 DUP4 CODECOPY DUP2 MLOAD SWAP2 MSTORE DUP2 EQ PUSH2 0x1B8A JUMPI PUSH1 0x0 DUP1 MLOAD PUSH1 0x20 PUSH2 0x1ED5 DUP4 CODECOPY DUP2 MLOAD SWAP2 MSTORE DUP2 EQ PUSH2 0x1B84 JUMPI PUSH1 0x0 DUP1 MLOAD PUSH1 0x20 PUSH2 0x1E15 DUP4 CODECOPY DUP2 MLOAD SWAP2 MSTORE EQ PUSH2 0x1B7F JUMPI PUSH1 0x0 SWAP1 JUMP JUMPDEST PUSH1 0x19 SWAP1 JUMP JUMPDEST POP PUSH1 0x32 SWAP1 JUMP JUMPDEST POP PUSH1 0x28 SWAP1 JUMP JUMPDEST POP PUSH1 0x1E SWAP1 JUMP JUMPDEST POP PUSH1 0x19 SWAP1 JUMP JUMPDEST POP PUSH1 0x23 SWAP1 JUMP JUMPDEST POP PUSH1 0x14 SWAP1 JUMP JUMPDEST POP PUSH1 0x3C SWAP1 JUMP JUMPDEST POP PUSH1 0xF SWAP1 JUMP INVALID 0xCD 0x25 LOG2 DUP5 DUP1 PUSH15 0x931BBFBD59E48CA09094F95CC8A54 DUP10 SWAP11 0xC7 0xCF PUSH8 0xA7BC084E4C8FE3C CALLER 0xB6 PUSH15 0x28F14B3D890787766EE667031D474E ADD DELEGATECALL BYTE REVERT 0x22 DUP3 0xC6 0xDD 0xD2 TIMESTAMP 0xB1 CALLVALUE 0x27 0xB0 CALLDATALOAD 0xD2 SWAP13 0xBD 0x23 MCOPY PUSH9 0xF8E722FB80B6F9A311 0x22 EXTSTATICCALL 0x2C EXTCODESIZE 0xCE PUSH26 0x340725E804FC9992A0BB1AF1C90AA52ED052B92714FF0087008C 0xC7 KECCAK256 DIV SWAP12 CALL 0xAF PUSH24 0xCCA2600B31E80C9F56690334C710BE9812966692E10C040B 0xDE BLOBHASH 0x27 0x26 SSTORE XOR 0xB4 0x22 0xC8 0x25 SDIV 0xF6 MSIZE PUSH2 0xEC78 PUSH7 0xCD9BF5624ADBB5 PUSH19 0xBDF0EF2C6611719C1BD1DD881D077900477122 PC PUSH0 MLOAD DUP12 JUMPDEST AND 0xD0 CHAINID 0x24 PUSH9 0x7FCF0D0228F19993C9 ISZERO PUSH29 0x1ED07B41D8D430FD9100EB099FE88CD7AE4080D5A7057C8858E5C9E0A6 SWAP9 EXTSTATICCALL 0xC8 DUP12 BALANCE SWAP11 ADDRESS 0x4F 0xBA 0xAA RJUMP 0xF5C2 0xBE 0x24 0x23 BLOBHASH SUB KECCAK256 0xA6 0xEA 0xDC 0xAF SMOD 0xAD PUSH17 0x3766CE2AAE1E5A2302FD7B9236ECDACDC6 ADDMOD SWAP14 SSTORE PUSH15 0xE6611B4E571958FBA4EA5C92407500 0xC4 0x4C SUB 0xA9 SGT 0xF7 LOG3 0xC4 CREATE2 PUSH21 0x6FC318BA401831B4E5F4F1880C72D8DBAFC9805EB1 0xC4 0xBC 0xEF 0xCB ADDRESS 0xAF SWAP1 0xB0 0xAE SWAP4 0x2E 0xF SDIV 0xC DUP2 0xB4 SWAP2 SLT PC JUMPI PUSH7 0x71085B8DE5DDF 0xB5 PUSH12 0xE1BBF93230FBAA1B5A4A7ED2 0x1F PUSH29 0xA2EC8B760127B082A96FB0EA3366184FA9EF274BB2B523BB1410C5597F JUMPDEST PUSH20 0xE284BCC8D9C27CAF81DE4DF86A0CFBC1CA19C196 PUSH30 0x53B4F9D906C2F3E5F0B5637FF74D60111AD48D74FE29986656BD77A1F0DA ORIGIN 0xC9 BALANCE JUMPDEST 0xED BLOCKHASH GASLIMIT SSTORE PUSH8 0xF6060BEA388C123D 0x4B 0xAF SELFDESTRUCT DUP5 GAS 0xC4 0xF6 GT EXTCODESIZE DELEGATECALL EXTCODEHASH 0xB5 SWAP14 0xBA 0x21 SELFDESTRUCT RETURNCONTRACT 0x10 PUSH14 0x9126A16FD7EF738A99E9F98F3366 0xA7 0xBC 0xD6 0x28 0xAC DELEGATECALL CALLER PUSH13 0x61C8A8031ABEC411F918F29AA8 0xA8 0xD0 0xD7 0xD0 PUSH27 0xE250391D186289FB499922D441ACDD22F4AE7F00407A46293DD531 BLOCKHASH 0xDC SWAP16 0xA6 0xBE RETURNCONTRACT 0xF3 MCOPY 0x22 0xCB ADD DUP12 0x26 NUMBER PREVRANDAO 0xD3 RETURNDATASIZE 0x23 BALANCE 0x2F MULMOD CODESIZE 0xEF 0x21 PUSH7 0x8AA46FD5BD7B72 0xDB PUSH18 0x8FCDD7E30D1E9DB0EA46420720372CEDD1D2 PUSH28 0x66A923B896EEA7904CA9EF57E79D18AA00AE08D276DE72C77B14AD7 ADD 0xA6 0x2E 0xB4 0xBD 0xDF 0x2C 0x4F SWAP10 0x2E 0xBF JUMP SWAP6 0x2B PUSH7 0x972847C21DAEAB PUSH10 0x31B6B4AA89A4EB8F1A39 0x27 SWAP11 LT 0xA8 DUP5 0xDD CREATE 0xB6 0xA9 TSTORE 0xE CHAINID RETURN COINBASE 0xA5 DUP1 SWAP16 PREVRANDAO PUSH30 0xE8F39F0C29E43A914272E426CAAF9F537D800BDC663BD466690F26963DFD PUSH28 0xB0ED1ED5F323A945377DFC7C3D6722688D7E04217FD02BEB9EE0ABAF TSTORE 0xD8 0xC4 0xC6 TLOAD PUSH11 0xD4846A80AAE94CA27DA03D BYTE BLOBBASEFEE 0x2C NUMBER PUSH7 0xD3DB0C7243A29E 0xEF SWAP13 MCOPY DUP5 SWAP16 SWAPN 0x32 DUP9 0x23 RJUMP 0xB728 DUP14 0xAB MSIZE 0xD5 0x23 LT TLOAD SWAP7 ADDMOD LT SWAP1 RETURNCONTRACT 0x4A PUSH5 0xCC21B4A34B 0x22 SELFBALANCE 0x21 0x21 PUSH21 0xB7B9AFEC075A3D09FD229B01E550E2A717C0595726 LOG1 SWAP14 TIMESTAMP SWAP12 0xA6 GAS PUSH28 0xE318C309E2BBFBE0D178266BA0266404B280F55C3C85690D0ABF93DE DUP13 0x24 EOFCREATE 0xEC 0xED CALLF 0xEE62 JUMPF 0x2902 MOD DUP4 MSIZE BLOBHASH JUMPI 0xB8 RJUMP 0xC109 0xAC RJUMPI 0xA264 PUSH10 0x7066735822122062BD61 0xAE 0xD7 0xBC ADD 0xC1 0x2C PC SWAPN 0x5E 0xB8 DUP12 MUL DATALOADN 0x8284 0x26 0xBA 0xDE 0x4D TIMESTAMP 0xB5 STATICCALL LOG3 DUP9 RETURNCONTRACT 0x7E 0xBD MUL SELFBALANCE PUSH5 0x736F6C6343 STOP ADDMOD 0x1E STOP CALLER "},"methodIdentifiers":{"ACTIVE_TRADER()":"7c91e544","BUG_BOUNTY()":"a8fb88ae","CENTURY_ENDORSER()":"bb15466d","CLEAN_RECORD()":"aa7ca98e","COMMUNITY_BUILDER()":"63a3a31a","CONTRIBUTOR()":"61fa40dc","DAILY_CHAMPION()":"b8e3de03","DIVERSIFICATION_MASTER()":"a27a14a0","EARLY_TESTER()":"45f42d78","EDUCATOR()":"24aa8e51","ELITE_ACHIEVER()":"3d5aeb15","ELITE_MERCHANT()":"403c792c","FOUNDING_MEMBER()":"368f3018","FRAUD_HUNTER()":"0fd89954","GENESIS_PRESALE()":"1d6b9a40","GOVERNANCE_VOTER()":"3b58bc81","GUARDIAN()":"724c184c","INSTANT_SETTLEMENT()":"47c60465","MENTOR()":"f8e7813a","PEACEMAKER()":"75ff8bcf","PIONEER()":"770cc2d6","POWER_USER()":"f88d10ee","REDEMPTION()":"adbeb22a","TRANSLATOR()":"3e201359","TRUSTED_ENDORSER()":"2a0a0578","VERIFIED_MERCHANT()":"15a64adf","WHALE_SLAYER()":"1d7ee0a9","ZERO_DISPUTE()":"dbc6a871","getCategory(bytes32)":"473b084c","getName(bytes32)":"54b8d5e3","getRecommendedDuration(bytes32)":"6f143be1","getRecommendedWeight(bytes32)":"737fee10","isPermanent(bytes32)":"55f9ab44","isValidBadge(bytes32)":"d1ef0abe"}}}}}