{"contracts/VFIDETrust.sol":{"Seer":{"abi":[{"inputs":[{"internalType":"address","name":"_dao","type":"address"},{"internalType":"address","name":"_ledger","type":"address"},{"internalType":"address","name":"_hub","type":"address"}],"stateMutability":"nonpayable","type":"constructor"},{"inputs":[],"name":"TRUST_Bounds","type":"error"},{"inputs":[],"name":"TRUST_EndorseExists","type":"error"},{"inputs":[],"name":"TRUST_EndorseLimit","type":"error"},{"inputs":[],"name":"TRUST_InvalidEndorse","type":"error"},{"inputs":[],"name":"TRUST_NotDAO","type":"error"},{"inputs":[],"name":"TRUST_NotOperator","type":"error"},{"inputs":[],"name":"TRUST_Paused","type":"error"},{"inputs":[],"name":"TRUST_Zero","type":"error"},{"anonymous":false,"inputs":[{"indexed":true,"internalType":"address","name":"subject","type":"address"},{"indexed":false,"internalType":"string","name":"reason","type":"string"}],"name":"AppealFiled","type":"event"},{"anonymous":false,"inputs":[{"indexed":true,"internalType":"address","name":"subject","type":"address"},{"indexed":false,"internalType":"bool","name":"approved","type":"bool"},{"indexed":false,"internalType":"string","name":"resolution","type":"string"}],"name":"AppealResolved","type":"event"},{"anonymous":false,"inputs":[{"indexed":true,"internalType":"address","name":"oldDAO","type":"address"},{"indexed":true,"internalType":"address","name":"newDAO","type":"address"}],"name":"DAOSet","type":"event"},{"anonymous":false,"inputs":[{"indexed":true,"internalType":"address","name":"subject","type":"address"},{"indexed":false,"internalType":"uint16","name":"oldScore","type":"uint16"},{"indexed":false,"internalType":"uint16","name":"newScore","type":"uint16"},{"indexed":false,"internalType":"uint256","name":"inactiveDays","type":"uint256"}],"name":"DecayApplied","type":"event"},{"anonymous":false,"inputs":[{"indexed":false,"internalType":"uint8","name":"daoWeight","type":"uint8"},{"indexed":false,"internalType":"uint8","name":"onChainWeight","type":"uint8"}],"name":"DecentralizationUpdated","type":"event"},{"anonymous":false,"inputs":[{"indexed":false,"internalType":"address","name":"vaultHub","type":"address"}],"name":"HubSet","type":"event"},{"anonymous":false,"inputs":[{"indexed":false,"internalType":"address","name":"ledger","type":"address"}],"name":"LedgerSet","type":"event"},{"anonymous":false,"inputs":[{"indexed":true,"internalType":"address","name":"mentor","type":"address"},{"indexed":true,"internalType":"address","name":"mentee","type":"address"}],"name":"MenteeRemoved","type":"event"},{"anonymous":false,"inputs":[{"indexed":true,"internalType":"address","name":"mentor","type":"address"},{"indexed":true,"internalType":"address","name":"mentee","type":"address"}],"name":"MenteeSponsored","type":"event"},{"anonymous":false,"inputs":[{"indexed":false,"internalType":"uint16","name":"minScore","type":"uint16"},{"indexed":false,"internalType":"uint16","name":"maxMentees","type":"uint16"}],"name":"MentorConfigUpdated","type":"event"},{"anonymous":false,"inputs":[{"indexed":true,"internalType":"address","name":"mentor","type":"address"}],"name":"MentorRegistered","type":"event"},{"anonymous":false,"inputs":[{"indexed":true,"internalType":"address","name":"mentor","type":"address"}],"name":"MentorRevoked","type":"event"},{"anonymous":false,"inputs":[{"indexed":true,"internalType":"address","name":"operator","type":"address"},{"indexed":false,"internalType":"bool","name":"authorized","type":"bool"}],"name":"OperatorSet","type":"event"},{"anonymous":false,"inputs":[{"indexed":false,"internalType":"bool","name":"isPaused","type":"bool"}],"name":"Paused","type":"event"},{"anonymous":false,"inputs":[{"indexed":true,"internalType":"address","name":"subject","type":"address"},{"indexed":false,"internalType":"string","name":"reason","type":"string"}],"name":"ScoreDisputeRequested","type":"event"},{"anonymous":false,"inputs":[{"indexed":true,"internalType":"address","name":"subject","type":"address"},{"indexed":false,"internalType":"bool","name":"approved","type":"bool"},{"indexed":false,"internalType":"int256","name":"adjustment","type":"int256"}],"name":"ScoreDisputeResolved","type":"event"},{"anonymous":false,"inputs":[{"indexed":true,"internalType":"address","name":"subject","type":"address"},{"indexed":false,"internalType":"uint16","name":"oldScore","type":"uint16"},{"indexed":false,"internalType":"uint16","name":"newScore","type":"uint16"},{"indexed":false,"internalType":"string","name":"reason","type":"string"}],"name":"ScoreSet","type":"event"},{"anonymous":false,"inputs":[{"indexed":true,"internalType":"address","name":"source","type":"address"},{"indexed":false,"internalType":"string","name":"name","type":"string"},{"indexed":false,"internalType":"uint8","name":"weight","type":"uint8"}],"name":"ScoreSourceAdded","type":"event"},{"anonymous":false,"inputs":[{"indexed":true,"internalType":"address","name":"source","type":"address"}],"name":"ScoreSourceRemoved","type":"event"},{"anonymous":false,"inputs":[{"indexed":true,"internalType":"address","name":"seerAutonomous","type":"address"}],"name":"SeerAutonomousSet","type":"event"},{"anonymous":false,"inputs":[{"indexed":true,"internalType":"address","name":"seerSocial","type":"address"}],"name":"SeerSocialSet","type":"event"},{"anonymous":false,"inputs":[{"indexed":false,"internalType":"uint16","name":"low","type":"uint16"},{"indexed":false,"internalType":"uint16","name":"high","type":"uint16"},{"indexed":false,"internalType":"uint16","name":"minForGov","type":"uint16"},{"indexed":false,"internalType":"uint16","name":"minForMerchant","type":"uint16"}],"name":"ThresholdsSet","type":"event"},{"anonymous":false,"inputs":[{"indexed":true,"internalType":"address","name":"endorser","type":"address"},{"indexed":true,"internalType":"address","name":"subject","type":"address"},{"indexed":false,"internalType":"uint16","name":"weight","type":"uint16"},{"indexed":false,"internalType":"uint64","name":"expiry","type":"uint64"},{"indexed":false,"internalType":"string","name":"reason","type":"string"}],"name":"UserEndorsed","type":"event"},{"inputs":[],"name":"MAX_HISTORY_PER_USER","outputs":[{"internalType":"uint8","name":"","type":"uint8"}],"stateMutability":"view","type":"function"},{"inputs":[],"name":"MAX_SCORE","outputs":[{"internalType":"uint16","name":"","type":"uint16"}],"stateMutability":"view","type":"function"},{"inputs":[],"name":"MIN_SCORE","outputs":[{"internalType":"uint16","name":"","type":"uint16"}],"stateMutability":"view","type":"function"},{"inputs":[],"name":"NEUTRAL","outputs":[{"internalType":"uint16","name":"","type":"uint16"}],"stateMutability":"view","type":"function"},{"inputs":[{"internalType":"address","name":"source","type":"address"},{"internalType":"string","name":"name","type":"string"},{"internalType":"uint8","name":"weight","type":"uint8"}],"name":"addScoreSource","outputs":[],"stateMutability":"nonpayable","type":"function"},{"inputs":[{"internalType":"address","name":"","type":"address"}],"name":"appeals","outputs":[{"internalType":"address","name":"requester","type":"address"},{"internalType":"string","name":"reason","type":"string"},{"internalType":"uint64","name":"timestamp","type":"uint64"},{"internalType":"bool","name":"resolved","type":"bool"},{"internalType":"bool","name":"approved","type":"bool"},{"internalType":"string","name":"resolution","type":"string"}],"stateMutability":"view","type":"function"},{"inputs":[{"internalType":"address","name":"subject","type":"address"}],"name":"applyDecay","outputs":[],"stateMutability":"nonpayable","type":"function"},{"inputs":[{"internalType":"address[]","name":"subjects","type":"address[]"}],"name":"applyDecayBatch","outputs":[],"stateMutability":"nonpayable","type":"function"},{"inputs":[{"internalType":"address","name":"","type":"address"},{"internalType":"bytes32","name":"","type":"bytes32"}],"name":"badgeExpiry","outputs":[{"internalType":"uint256","name":"","type":"uint256"}],"stateMutability":"view","type":"function"},{"inputs":[],"name":"becomeMentor","outputs":[],"stateMutability":"nonpayable","type":"function"},{"inputs":[{"internalType":"address","name":"subject","type":"address"}],"name":"calculateAutomatedScore","outputs":[{"internalType":"uint16","name":"","type":"uint16"}],"stateMutability":"view","type":"function"},{"inputs":[{"internalType":"address","name":"subject","type":"address"}],"name":"calculateOnChainScore","outputs":[{"internalType":"uint16","name":"","type":"uint16"}],"stateMutability":"view","type":"function"},{"inputs":[{"internalType":"address","name":"","type":"address"},{"internalType":"address","name":"","type":"address"}],"name":"dailyOperatorRewardTotal","outputs":[{"internalType":"uint16","name":"","type":"uint16"}],"stateMutability":"view","type":"function"},{"inputs":[],"name":"dao","outputs":[{"internalType":"address","name":"","type":"address"}],"stateMutability":"view","type":"function"},{"inputs":[],"name":"daoScoreWeight","outputs":[{"internalType":"uint8","name":"","type":"uint8"}],"stateMutability":"view","type":"function"},{"inputs":[],"name":"decayEnabled","outputs":[{"internalType":"bool","name":"","type":"bool"}],"stateMutability":"view","type":"function"},{"inputs":[],"name":"decayPerMonth","outputs":[{"internalType":"uint16","name":"","type":"uint16"}],"stateMutability":"view","type":"function"},{"inputs":[],"name":"decayStartDays","outputs":[{"internalType":"uint64","name":"","type":"uint64"}],"stateMutability":"view","type":"function"},{"inputs":[{"internalType":"address","name":"subject","type":"address"},{"internalType":"string","name":"reason","type":"string"}],"name":"endorse","outputs":[],"stateMutability":"nonpayable","type":"function"},{"inputs":[],"name":"endorsementBaseValue","outputs":[{"internalType":"uint16","name":"","type":"uint16"}],"stateMutability":"view","type":"function"},{"inputs":[],"name":"endorsementBonusCap","outputs":[{"internalType":"uint16","name":"","type":"uint16"}],"stateMutability":"view","type":"function"},{"inputs":[],"name":"endorsementCooldown","outputs":[{"internalType":"uint64","name":"","type":"uint64"}],"stateMutability":"view","type":"function"},{"inputs":[],"name":"endorsementMaxPerEndorser","outputs":[{"internalType":"uint16","name":"","type":"uint16"}],"stateMutability":"view","type":"function"},{"inputs":[],"name":"endorsementValidity","outputs":[{"internalType":"uint64","name":"","type":"uint64"}],"stateMutability":"view","type":"function"},{"inputs":[{"internalType":"address","name":"","type":"address"},{"internalType":"address","name":"","type":"address"}],"name":"endorsements","outputs":[{"internalType":"uint64","name":"expiry","type":"uint64"},{"internalType":"uint16","name":"weight","type":"uint16"},{"internalType":"uint64","name":"timestamp","type":"uint64"}],"stateMutability":"view","type":"function"},{"inputs":[{"internalType":"address","name":"","type":"address"}],"name":"endorsementsGiven","outputs":[{"internalType":"uint16","name":"","type":"uint16"}],"stateMutability":"view","type":"function"},{"inputs":[{"internalType":"address","name":"","type":"address"}],"name":"endorsementsReceived","outputs":[{"internalType":"uint16","name":"","type":"uint16"}],"stateMutability":"view","type":"function"},{"inputs":[{"internalType":"string","name":"reason","type":"string"}],"name":"fileAppeal","outputs":[],"stateMutability":"nonpayable","type":"function"},{"inputs":[{"internalType":"address","name":"subject","type":"address"},{"internalType":"string","name":"reason","type":"string"}],"name":"findReasonInHistory","outputs":[{"internalType":"bool","name":"found","type":"bool"},{"internalType":"uint64","name":"timestamp","type":"uint64"}],"stateMutability":"view","type":"function"},{"inputs":[{"internalType":"address","name":"subject","type":"address"}],"name":"getActiveEndorsements","outputs":[{"internalType":"address[]","name":"endorsers","type":"address[]"},{"internalType":"uint16[]","name":"weights","type":"uint16[]"},{"internalType":"uint64[]","name":"expiries","type":"uint64[]"},{"internalType":"uint64[]","name":"timestamps","type":"uint64[]"}],"stateMutability":"view","type":"function"},{"inputs":[{"internalType":"address","name":"subject","type":"address"}],"name":"getDecayAdjustedScore","outputs":[{"internalType":"uint16","name":"adjustedScore","type":"uint16"},{"internalType":"uint64","name":"daysInactive","type":"uint64"},{"internalType":"uint16","name":"decayAmount","type":"uint16"}],"stateMutability":"view","type":"function"},{"inputs":[{"internalType":"address","name":"subject","type":"address"}],"name":"getEndorsementStats","outputs":[{"internalType":"uint16","name":"activeEndorsers","type":"uint16"},{"internalType":"uint16","name":"activeBonus","type":"uint16"},{"internalType":"uint16","name":"endorsementsYouGave","type":"uint16"}],"stateMutability":"view","type":"function"},{"inputs":[{"internalType":"address","name":"mentor","type":"address"}],"name":"getMentees","outputs":[{"internalType":"address[]","name":"","type":"address[]"}],"stateMutability":"view","type":"function"},{"inputs":[{"internalType":"address","name":"subject","type":"address"}],"name":"getMentorInfo","outputs":[{"internalType":"bool","name":"isMentorUser","type":"bool"},{"internalType":"address","name":"mentor","type":"address"},{"internalType":"uint16","name":"menteeCount","type":"uint16"},{"internalType":"bool","name":"hasMentor","type":"bool"},{"internalType":"bool","name":"canBecome","type":"bool"},{"internalType":"uint16","name":"minScore","type":"uint16"},{"internalType":"uint16","name":"currentScore","type":"uint16"}],"stateMutability":"view","type":"function"},{"inputs":[{"internalType":"address","name":"subject","type":"address"}],"name":"getScore","outputs":[{"internalType":"uint16","name":"","type":"uint16"}],"stateMutability":"view","type":"function"},{"inputs":[{"internalType":"address","name":"subject","type":"address"}],"name":"getScoreBreakdown","outputs":[{"internalType":"uint16","name":"daoSetScore","type":"uint16"},{"internalType":"uint16","name":"onChainScore","type":"uint16"},{"internalType":"uint16","name":"finalScore","type":"uint16"},{"internalType":"uint8","name":"daoWeight","type":"uint8"},{"internalType":"uint8","name":"onChainWeight","type":"uint8"},{"internalType":"bool","name":"hasVault","type":"bool"}],"stateMutability":"view","type":"function"},{"inputs":[{"internalType":"address","name":"subject","type":"address"}],"name":"getScoreHistory","outputs":[{"internalType":"uint256","name":"count","type":"uint256"},{"components":[{"internalType":"uint16","name":"oldScore","type":"uint16"},{"internalType":"uint16","name":"newScore","type":"uint16"},{"internalType":"uint64","name":"timestamp","type":"uint64"},{"internalType":"bytes32","name":"reasonHash","type":"bytes32"}],"internalType":"struct Seer.ScoreChange[]","name":"recentChanges","type":"tuple[]"}],"stateMutability":"view","type":"function"},{"inputs":[],"name":"getScoreSourceCount","outputs":[{"internalType":"uint256","name":"total","type":"uint256"},{"internalType":"uint256","name":"active","type":"uint256"}],"stateMutability":"view","type":"function"},{"inputs":[{"internalType":"address[]","name":"subjects","type":"address[]"}],"name":"getScores","outputs":[{"internalType":"uint16[]","name":"scores","type":"uint16[]"}],"stateMutability":"view","type":"function"},{"inputs":[{"internalType":"address[]","name":"subjects","type":"address[]"}],"name":"getScoresBatch","outputs":[{"internalType":"uint16[]","name":"scores","type":"uint16[]"}],"stateMutability":"view","type":"function"},{"inputs":[{"internalType":"address","name":"subject","type":"address"}],"name":"getTrustLevel","outputs":[{"internalType":"uint8","name":"level","type":"uint8"},{"internalType":"string","name":"levelName","type":"string"},{"internalType":"bool","name":"canVote","type":"bool"},{"internalType":"bool","name":"canBeMerchant","type":"bool"}],"stateMutability":"view","type":"function"},{"inputs":[{"internalType":"address","name":"subject","type":"address"}],"name":"getUserStatus","outputs":[{"internalType":"uint16","name":"currentScore","type":"uint16"},{"internalType":"uint16","name":"decayAdjustedScore","type":"uint16"},{"internalType":"uint64","name":"daysInactive","type":"uint64"},{"internalType":"uint64","name":"lastActivityTime","type":"uint64"},{"internalType":"uint256","name":"historyCount","type":"uint256"},{"internalType":"bool","name":"hasPendingDispute","type":"bool"},{"internalType":"bool","name":"isOperator","type":"bool"}],"stateMutability":"view","type":"function"},{"inputs":[{"internalType":"address","name":"","type":"address"},{"internalType":"bytes32","name":"","type":"bytes32"}],"name":"hasBadge","outputs":[{"internalType":"bool","name":"","type":"bool"}],"stateMutability":"view","type":"function"},{"inputs":[],"name":"highTrustThreshold","outputs":[{"internalType":"uint16","name":"","type":"uint16"}],"stateMutability":"view","type":"function"},{"inputs":[{"internalType":"address","name":"subject","type":"address"},{"internalType":"bytes32","name":"badge","type":"bytes32"}],"name":"isBadgeValid","outputs":[{"internalType":"bool","name":"","type":"bool"}],"stateMutability":"view","type":"function"},{"inputs":[{"internalType":"address","name":"","type":"address"}],"name":"lastActivity","outputs":[{"internalType":"uint64","name":"","type":"uint64"}],"stateMutability":"view","type":"function"},{"inputs":[{"internalType":"address","name":"","type":"address"}],"name":"lastEndorseTime","outputs":[{"internalType":"uint64","name":"","type":"uint64"}],"stateMutability":"view","type":"function"},{"inputs":[{"internalType":"address","name":"","type":"address"},{"internalType":"address","name":"","type":"address"}],"name":"lastOperatorRewardTime","outputs":[{"internalType":"uint64","name":"","type":"uint64"}],"stateMutability":"view","type":"function"},{"inputs":[],"name":"ledger","outputs":[{"internalType":"contract ProofLedger","name":"","type":"address"}],"stateMutability":"view","type":"function"},{"inputs":[],"name":"lowTrustThreshold","outputs":[{"internalType":"uint16","name":"","type":"uint16"}],"stateMutability":"view","type":"function"},{"inputs":[],"name":"maxActiveGivenPerUser","outputs":[{"internalType":"uint16","name":"","type":"uint16"}],"stateMutability":"view","type":"function"},{"inputs":[],"name":"maxDailyOperatorReward","outputs":[{"internalType":"uint16","name":"","type":"uint16"}],"stateMutability":"view","type":"function"},{"inputs":[],"name":"maxEndorsersPerSubject","outputs":[{"internalType":"uint16","name":"","type":"uint16"}],"stateMutability":"view","type":"function"},{"inputs":[],"name":"maxMenteesPerMentor","outputs":[{"internalType":"uint16","name":"","type":"uint16"}],"stateMutability":"view","type":"function"},{"inputs":[],"name":"maxSingleReward","outputs":[{"internalType":"uint16","name":"","type":"uint16"}],"stateMutability":"view","type":"function"},{"inputs":[{"internalType":"address","name":"","type":"address"}],"name":"mentorOf","outputs":[{"internalType":"address","name":"","type":"address"}],"stateMutability":"view","type":"function"},{"inputs":[{"internalType":"address","name":"","type":"address"}],"name":"mentors","outputs":[{"internalType":"bool","name":"","type":"bool"}],"stateMutability":"view","type":"function"},{"inputs":[],"name":"minForGovernance","outputs":[{"internalType":"uint16","name":"","type":"uint16"}],"stateMutability":"view","type":"function"},{"inputs":[],"name":"minForMerchant","outputs":[{"internalType":"uint16","name":"","type":"uint16"}],"stateMutability":"view","type":"function"},{"inputs":[],"name":"minScoreToEndorse","outputs":[{"internalType":"uint16","name":"","type":"uint16"}],"stateMutability":"view","type":"function"},{"inputs":[],"name":"minScoreToMentor","outputs":[{"internalType":"uint16","name":"","type":"uint16"}],"stateMutability":"view","type":"function"},{"inputs":[],"name":"onChainScoreWeight","outputs":[{"internalType":"uint8","name":"","type":"uint8"}],"stateMutability":"view","type":"function"},{"inputs":[{"internalType":"address","name":"","type":"address"}],"name":"operatorRewardDayStart","outputs":[{"internalType":"uint64","name":"","type":"uint64"}],"stateMutability":"view","type":"function"},{"inputs":[{"internalType":"address","name":"","type":"address"}],"name":"operators","outputs":[{"internalType":"bool","name":"","type":"bool"}],"stateMutability":"view","type":"function"},{"inputs":[],"name":"paused","outputs":[{"internalType":"bool","name":"","type":"bool"}],"stateMutability":"view","type":"function"},{"inputs":[],"name":"pendingAppealCount","outputs":[{"internalType":"uint256","name":"","type":"uint256"}],"stateMutability":"view","type":"function"},{"inputs":[],"name":"pendingDisputeCount","outputs":[{"internalType":"uint256","name":"","type":"uint256"}],"stateMutability":"view","type":"function"},{"inputs":[{"internalType":"address","name":"subject","type":"address"}],"name":"pruneEndorsements","outputs":[],"stateMutability":"nonpayable","type":"function"},{"inputs":[{"internalType":"address","name":"subject","type":"address"},{"internalType":"uint16","name":"delta","type":"uint16"},{"internalType":"string","name":"reason","type":"string"}],"name":"punish","outputs":[],"stateMutability":"nonpayable","type":"function"},{"inputs":[{"internalType":"address","name":"mentee","type":"address"}],"name":"removeMentee","outputs":[],"stateMutability":"nonpayable","type":"function"},{"inputs":[{"internalType":"address","name":"source","type":"address"}],"name":"removeScoreSource","outputs":[],"stateMutability":"nonpayable","type":"function"},{"inputs":[{"internalType":"string","name":"reason","type":"string"}],"name":"requestScoreReview","outputs":[],"stateMutability":"nonpayable","type":"function"},{"inputs":[{"internalType":"address","name":"subject","type":"address"},{"internalType":"bool","name":"approved","type":"bool"},{"internalType":"string","name":"resolution","type":"string"}],"name":"resolveAppeal","outputs":[],"stateMutability":"nonpayable","type":"function"},{"inputs":[{"internalType":"address","name":"subject","type":"address"},{"internalType":"bool","name":"approved","type":"bool"},{"internalType":"int16","name":"adjustment","type":"int16"}],"name":"resolveScoreDispute","outputs":[],"stateMutability":"nonpayable","type":"function"},{"inputs":[{"internalType":"address","name":"mentor","type":"address"}],"name":"revokeMentor","outputs":[],"stateMutability":"nonpayable","type":"function"},{"inputs":[{"internalType":"address","name":"subject","type":"address"},{"internalType":"uint16","name":"delta","type":"uint16"},{"internalType":"string","name":"reason","type":"string"}],"name":"reward","outputs":[],"stateMutability":"nonpayable","type":"function"},{"inputs":[{"internalType":"address","name":"","type":"address"}],"name":"scoreDisputes","outputs":[{"internalType":"address","name":"requester","type":"address"},{"internalType":"string","name":"reason","type":"string"},{"internalType":"uint64","name":"timestamp","type":"uint64"},{"internalType":"bool","name":"resolved","type":"bool"},{"internalType":"bool","name":"approved","type":"bool"}],"stateMutability":"view","type":"function"},{"inputs":[{"internalType":"address","name":"","type":"address"},{"internalType":"uint256","name":"","type":"uint256"}],"name":"scoreHistory","outputs":[{"internalType":"uint16","name":"oldScore","type":"uint16"},{"internalType":"uint16","name":"newScore","type":"uint16"},{"internalType":"uint64","name":"timestamp","type":"uint64"},{"internalType":"bytes32","name":"reasonHash","type":"bytes32"}],"stateMutability":"view","type":"function"},{"inputs":[{"internalType":"address","name":"","type":"address"}],"name":"scoreSourceIndex","outputs":[{"internalType":"uint256","name":"","type":"uint256"}],"stateMutability":"view","type":"function"},{"inputs":[{"internalType":"uint256","name":"","type":"uint256"}],"name":"scoreSources","outputs":[{"internalType":"address","name":"source","type":"address"},{"internalType":"string","name":"name","type":"string"},{"internalType":"uint8","name":"weight","type":"uint8"},{"internalType":"bool","name":"active","type":"bool"}],"stateMutability":"view","type":"function"},{"inputs":[],"name":"seerAutonomous","outputs":[{"internalType":"address","name":"","type":"address"}],"stateMutability":"view","type":"function"},{"inputs":[],"name":"seerSocial","outputs":[{"internalType":"address","name":"","type":"address"}],"stateMutability":"view","type":"function"},{"inputs":[{"internalType":"address","name":"subject","type":"address"},{"internalType":"bytes32","name":"badge","type":"bytes32"},{"internalType":"bool","name":"active","type":"bool"},{"internalType":"uint256","name":"expiry","type":"uint256"}],"name":"setBadge","outputs":[],"stateMutability":"nonpayable","type":"function"},{"inputs":[{"internalType":"address[]","name":"subjects","type":"address[]"},{"internalType":"bytes32","name":"badge","type":"bytes32"},{"internalType":"bool","name":"active","type":"bool"},{"internalType":"uint256","name":"expiry","type":"uint256"}],"name":"setBadgeBatch","outputs":[],"stateMutability":"nonpayable","type":"function"},{"inputs":[{"internalType":"address","name":"newDAO","type":"address"}],"name":"setDAO","outputs":[],"stateMutability":"nonpayable","type":"function"},{"inputs":[{"internalType":"bool","name":"enabled","type":"bool"},{"internalType":"uint64","name":"startDays","type":"uint64"},{"internalType":"uint16","name":"perMonth","type":"uint16"}],"name":"setDecayConfig","outputs":[],"stateMutability":"nonpayable","type":"function"},{"inputs":[{"internalType":"uint8","name":"daoWeight","type":"uint8"},{"internalType":"uint8","name":"onChainWeight","type":"uint8"}],"name":"setDecentralizationWeights","outputs":[],"stateMutability":"nonpayable","type":"function"},{"inputs":[{"internalType":"uint16","name":"baseValue","type":"uint16"},{"internalType":"uint16","name":"maxPerEndorser","type":"uint16"},{"internalType":"uint16","name":"bonusCap","type":"uint16"},{"internalType":"uint16","name":"maxPerSubject","type":"uint16"},{"internalType":"uint16","name":"maxGiven","type":"uint16"},{"internalType":"uint64","name":"validity","type":"uint64"},{"internalType":"uint64","name":"cooldown","type":"uint64"},{"internalType":"uint16","name":"minScore","type":"uint16"}],"name":"setEndorsementPolicy","outputs":[],"stateMutability":"nonpayable","type":"function"},{"inputs":[{"internalType":"uint16","name":"minScore","type":"uint16"},{"internalType":"uint16","name":"maxMentees","type":"uint16"}],"name":"setMentorConfig","outputs":[],"stateMutability":"nonpayable","type":"function"},{"inputs":[{"internalType":"address","name":"_ledger","type":"address"},{"internalType":"address","name":"_hub","type":"address"}],"name":"setModules","outputs":[],"stateMutability":"nonpayable","type":"function"},{"inputs":[{"internalType":"address","name":"operator","type":"address"},{"internalType":"bool","name":"authorized","type":"bool"}],"name":"setOperator","outputs":[],"stateMutability":"nonpayable","type":"function"},{"inputs":[{"internalType":"uint16","name":"_maxSingle","type":"uint16"},{"internalType":"uint16","name":"_maxDaily","type":"uint16"}],"name":"setOperatorLimits","outputs":[],"stateMutability":"nonpayable","type":"function"},{"inputs":[{"internalType":"bool","name":"_paused","type":"bool"}],"name":"setPaused","outputs":[],"stateMutability":"nonpayable","type":"function"},{"inputs":[{"internalType":"address","name":"subject","type":"address"},{"internalType":"uint16","name":"newScore","type":"uint16"},{"internalType":"string","name":"reason","type":"string"}],"name":"setScore","outputs":[],"stateMutability":"nonpayable","type":"function"},{"inputs":[{"internalType":"address","name":"_seerAutonomous","type":"address"}],"name":"setSeerAutonomous","outputs":[],"stateMutability":"nonpayable","type":"function"},{"inputs":[{"internalType":"address","name":"_seerSocial","type":"address"}],"name":"setSeerSocial","outputs":[],"stateMutability":"nonpayable","type":"function"},{"inputs":[{"internalType":"uint16","name":"low","type":"uint16"},{"internalType":"uint16","name":"high","type":"uint16"},{"internalType":"uint16","name":"minGov","type":"uint16"},{"internalType":"uint16","name":"minMerch","type":"uint16"}],"name":"setThresholds","outputs":[],"stateMutability":"nonpayable","type":"function"},{"inputs":[{"internalType":"address","name":"mentee","type":"address"}],"name":"sponsorMentee","outputs":[],"stateMutability":"nonpayable","type":"function"},{"inputs":[],"name":"vaultHub","outputs":[{"internalType":"contract IVaultHub_Trust","name":"","type":"address"}],"stateMutability":"view","type":"function"}],"evm":{"bytecode":{"linkReferences":{},"object":"60803461018457601f61753a38819003918201601f19168301916001600160401b0383118484101761018957808492606094604052833981010312610184576100478161019f565b9061006060406100596020840161019f565b920161019f565b600d80547b1b580000000000015180000000000076a7000032001905dc005000286001600160e01b03199091161790556011805463ffffffff1990811662321c201790915560178054909116626400c8179055601a80546001600160581b0319166964000000000000005a00179055601d80546915e015181f400fa000646001600160501b0319909116179055916001600160a01b0316801561017357600080546001600160a01b0319169190911790556001600160a01b031680610159575b506001600160a01b03168061013f575b60405161738690816101b48239f35b600280546001600160a01b03191691909117905538610130565b600180546001600160a01b03191691909117905538610120565b630409728b60e41b60005260046000fd5b600080fd5b634e487b7160e01b600052604160045260246000fd5b51906001600160a01b03821682036101845756fe608080604052600436101561001357600080fd5b60003560e01c908163024caec714614f1b575080630494dada14614de55780630ba2d87214614d9e5780630c61e69c14614ce85780630f39c94014614cc55780630f83a99c14614a645780631017817c14614920578063103f88291461488b5780631121834f146145b557806313e7c9d81461457657806316c38b3c146144b15780631d997a6a1461429d578063246683ce14614279578063257076dd1461424d57806327758b171461420f57806327ff6223146141f257806329c07cf9146141d15780632b7ffc95146141af5780632c27750a1461406e578063327d8bfc14613f2c578063362d9b4814613ec75780633817975414613e7a5780633909b9de14613e5e5780633f4d10be14613da757806340b8927014613d8b5780634162169f14613d6257806345f5cc1f14613cfb578063460da41b14613cd65780634a33fb7214613cb25780634b9707c414613a3c5780634cbb2f2214613a0f5780634ccf04cf146139ea5780634d4efe8e146135bf5780634e3ac713146132905780635037fc7d146131e357806351c131f51461302757806352a67c5d1461300257806353a4257814612fde578063558a729714612ef457806356397c3514612ecb57806359f827ad14612e8957806359f8661114612cec5780635abfe2cf1461289f5780635bed5604146126f35780635c975abb146126d05780635ed2ed9c1461267657806362238e8a1461256b57806366101d511461252957806366bb7b7814612506578063691845e4146124845780636a4b783d146123735780636b1cdab1146122605780636c010095146121bd5780636dd6e80b1461219457806372f557ee1461216f57806375055c531461214c5780637b1f12a81461212f5780638101d30014611f825780638437f7cc14611f595780638e20a25814611f2c578063900acd8014611f0e57806394c30e1a14611ed057806399f68ac714611eab5780639beeb53414611e015780639d30f8d014611dd35780639e5f4e9d14611dae578063a1d51dcc14611d7d578063a5d4e06314611c6a578063a61ff4e114611bf0578063a8a89dc01461197d578063af216861146115ae578063b25e4cf11461158c578063b2746eed14611567578063b291d0111461152d578063b3a5df9e1461150f578063b3cc5642146114b3578063b7be2d2a1461144c578063b7e2bf2f1461140a578063bfda418114611187578063c1c4462114611162578063c4a2db651461104d578063d47875d014611023578063d5b37a7f14610fdb578063d74a5d0014610f03578063dc99e34114610cc6578063e0511fa014610c9d578063e29d04a214610bf5578063e3bf0aff14610b7c578063e710c92b14610b57578063e7244bbd14610ac3578063e73a914c14610a0f578063e7cce5d6146109ea578063ea0d5dcd14610903578063edfcc43714610706578063eed4ea8f146106c7578063f07e96b314610685578063f6c97ed1146105cc578063f9c4f4d9146104875763fa41d56a1461046057600080fd5b3461048257600036600319011261048257602061ffff60115416604051908152f35b600080fd5b346104825760003660031901126104825760ff601354166105bc5733600052600e60205260ff60406000205416610580576104c133616555565b61ffff80601154169116106105455733600052600e6020526040600020600160ff19825416179055337f900045c2cd74602d2cc377fa4ab9861abb55c4333c29ac3866c52d2bcb3f09a7600080a26105436040516105206040826150b2565b60118152701b595b9d1bdc97dc9959da5cdd195c9959607a1b6020820152616af9565b005b60405162461bcd60e51b8152602060048201526013602482015272534545523a2073636f726520746f6f206c6f7760681b6044820152606490fd5b60405162461bcd60e51b815260206004820152601460248201527329a2a2a91d1030b63932b0b23c9036b2b73a37b960611b6044820152606490fd5b621e909d60ea1b60005260046000fd5b34610482576020366003190112610482576004356001600160401b038111610482576105fc9036906004016151ba565b610605816165e9565b9160005b82811061062a5760405160208082528190610626908201876152b7565b0390f35b6001906001600160a01b0361064861064383878761572f565b61573f565b16600052600560205261ffff60406000205416801560001461068057506113885b61ffff61067683886157b2565b9116905201610609565b610669565b34610482576020366003190112610482576001600160a01b036106a6614f42565b166000526019602052602060018060401b0360406000205416604051908152f35b34610482576020366003190112610482576001600160a01b036106e8614f42565b16600052600e602052602060ff604060002054166040519015158152f35b346104825760203660031901126104825761071f614f42565b60ff601354166105bc57601a549061073960ff8316615ca7565b6001600160a01b0381166000818152601960205260409020546001600160401b0316929083156108c157426001600160401b031693620151809061077d908661533d565b6001600160401b03908116919091049260081c8116908316106108825761ffff916107a784615394565b949094169350836107b457005b6000838152600560209081526040808320805461ffff19811661ffff8781169190911790925560199093529281902080546001600160401b0319166001600160401b03909a16999099179098559651610543976000805160206171b1833981519152949193849361082793921684615cea565b0390a260409182519061083a84836150b2565b60138252721cd8dbdc9957d91958d85e57d85c1c1b1a5959606a1b6020830152610866845194856150b2565b600a845269696e616374697669747960b01b60208501526166e1565b60405162461bcd60e51b8152602060048201526017602482015276534545523a206e6f742079657420646563617961626c6560481b6044820152606490fd5b60405162461bcd60e51b815260206004820152601a602482015279534545523a206e6f20616374697669747920746f20646563617960301b6044820152606490fd5b346104825760203660031901126104825760e061091e614f42565b61092781616555565b9061093181615394565b506001600160a01b039092166000818152601960209081526040808320546018835281842054601e90935292206002015493946001600160401b0394851615159491939290911691846109c9575b600052601260205261ffff60ff6040600020541695816040519816885216602087015260018060401b0316604086015260608501526080840152151560a0830152151560c0820152f35b809450600052601e60205260ff60026040600020015460401c16159361097f565b3461048257600036600319011261048257602061ffff60115460101c16604051908152f35b3461048257602036600319011261048257610a28614f42565b610a3061661b565b6001600160a01b03168015610ab257600080546001600160a01b03198116831782556001600160a01b0316907f43cefe694890edd168d1075c3464baea1d7edcf0bc1a1648423ea65b5a2ac0919080a3610543604051610a916040826150b2565b600f81526e19185bd7dd1c985b9cd9995c9c9959608a1b6020820152616af9565b630409728b60e41b60005260046000fd5b34610482576020366003190112610482576001600160a01b03610ae4614f42565b166000526010602052604060002060405190816020825491828152019160005260206000209060005b818110610b385761062685610b24818703826150b2565b60405191829160208352602083019061527a565b82546001600160a01b0316845260209093019260019283019201610b0d565b3461048257600036600319011261048257602061ffff601d5460401c16604051908152f35b3461048257604036600319011261048257610b95614f42565b610b9d614f58565b6001600160a01b0391821660009081526008602090815260408083209490931682529283528190205481516001600160401b03808316825282841c61ffff169482019490945260509190911c90921690820152606090f35b34610482576020366003190112610482576004356001600160401b03811161048257610c259036906004016151ba565b9081151580610c92575b610c38906156e8565b610c41826165e9565b9160005b818110610c625760405160208082528190610626908201876152b7565b80610c7b610c76610643600194868861572f565b616555565b61ffff610c8883886157b2565b9116905201610c45565b506064821115610c2f565b34610482576000366003190112610482576003546040516001600160a01b039091168152602090f35b34610482576020366003190112610482576001600160a01b03610ce7614f42565b1680600052600960205260406000209081549060009060005b838110610e855750610d118261579b565b92610d1f60405194856150b2565b828452601f19610d2e8461579b565b01366020860137610d3e836165e9565b91610d51610d4b856165e9565b946165e9565b9560009160005b848110610dad57610d83886106268b610d9f8b610d918c60405197889760808952608089019061527a565b9087820360208901526152b7565b9085820360408701526152ef565b9083820360608501526152ef565b816000526008602052604080600020610dc68386615760565b905460039190911b1c6001600160a01b0316600090815260209190915220546001600160401b03811642811180610e75575b610e07575b5050600101610d58565b94610e6d9183968b610e3384610e1f6001988b615760565b898060a01b0391549060031b1c16926157b2565b5261ffff8260401c16610e46848c6157b2565b52610e51838c6157b2565b52838060401b039060501c16610e67828d6157b2565b5261564b565b93908a610dfd565b5061ffff8260401c161515610df8565b816000526008602052604080600020610e9e8388615760565b905460039190911b1c6001600160a01b031660009081526020919091522054426001600160401b038216119081610ef2575b50610ede575b600101610d00565b91610eea60019161564b565b929050610ed6565b61ffff915060401c16151586610ed0565b3461048257604036600319011261048257610f1c614f42565b610f24614f58565b90610f2d61661b565b6001600160a01b03169081158015610fca575b610ab257600180546001600160a01b03199081168417909155600280549091166001600160a01b0390921691821790556040519182527f15e04fee0c1335178e78e4dc6a8b0dcade867d1aea65418bf1200bc322ab7c2191602091907fbc62e69a31739e36d57d56991ac20e4e507a7edfff9070e6a11df5a37b8b4e6f908390a1604051908152a1005b506001600160a01b03811615610f40565b34610482576040366003190112610482576001600160a01b03610ffc614f42565b16600052600760205260406000206024356000526020526020604060002054604051908152f35b34610482576020366003190112610482576020611041610c76614f42565b61ffff60405191168152f35b3461048257604036600319011261048257611066614f9b565b61106e614fac565b61107661661b565b6101f461ffff8316116111215761ffff16906103e882116110e15763ffff00006017549160101b169063ffffffff191617176017556105436040516110bc6040826150b2565b60138152721bdc195c985d1bdc97db1a5b5a5d1cd7dcd95d606a1b6020820152616af9565b60405162461bcd60e51b81526020600482015260186024820152770a68a8aa47440dac2f040c8c2d2d8f240e8dede40d0d2ced60431b6044820152606490fd5b60405162461bcd60e51b81526020600482015260196024820152780a68a8aa47440dac2f040e6d2dcced8ca40e8dede40d0d2ced603b1b6044820152606490fd5b3461048257600036600319011261048257602061ffff600d5460d01c16604051908152f35b34610482576020366003190112610482576111a0614f42565b60ff601354166105bc5733600052600e60205260ff60406000205416156113d2576001600160a01b03811690811515806113c8575b1561138c576000828152600f60205260409020546001600160a01b031661134d573360005260106020526040600020546011549061ffff8260101c1611156113145761ffff8061122433616555565b92169116106112d2576000828152600f6020908152604080832080546001600160a01b03191633908117909155835260109091529020610543929061126a908390615778565b337f1bf74c66f4733e451868185ff432d08e19f3e4bc28fd5bcc2670180c6da92e99600080a3604080519061129f81836150b2565b601082526f1b595b9d195957dcdc1bdb9cdbdc995960821b602083015251916112c96020846150b2565b60008352616640565b60405162461bcd60e51b815260206004820152601a602482015279534545523a206d656e746f722073636f726520746f6f206c6f7760301b6044820152606490fd5b60405162461bcd60e51b8152602060048201526011602482015270534545523a206d6178206d656e7465657360781b6044820152606490fd5b60405162461bcd60e51b815260206004820152601760248201527629a2a2a91d1036b2b73a32b2903430b99036b2b73a37b960491b6044820152606490fd5b60405162461bcd60e51b8152602060048201526014602482015273534545523a20696e76616c6964206d656e74656560601b6044820152606490fd5b50338214156111d5565b60405162461bcd60e51b815260206004820152601060248201526f29a2a2a91d103737ba1036b2b73a37b960811b6044820152606490fd5b34610482576020366003190112610482576001600160a01b0361142b614f42565b16600052600c602052602060018060401b0360406000205416604051908152f35b3461048257602036600319011261048257611465614f42565b61146d61661b565b600380546001600160a01b0319166001600160a01b039290921691821790557f77f7b83d6373c1af6ae71265155348a0c6fea12c006fef945c4f8954e61087c2600080a2005b34610482576040366003190112610482576114cc614f42565b6114d4614f58565b6001600160a01b0391821660009081526014602090815260408083209490931682529283528190205490516001600160401b03919091168152f35b34610482576000366003190112610482576020602154604051908152f35b34610482576020366003190112610482576001600160a01b0361154e614f42565b16600052601c6020526020604060002054604051908152f35b3461048257600036600319011261048257602061ffff600d5460401c16604051908152f35b3461048257600036600319011261048257602061ffff60175416604051908152f35b34610482576020366003190112610482576004356001600160401b038111610482576115de903690600401614fdf565b9081151580611971575b6115f19061551c565b3360009081526020805260409020600201546001600160401b03811615908115611963575b5015611927576040519160c083016001600160401b0381118482101761189257604052338352611647368284615566565b60208401908152604084019360018060401b034216855260608101946000865260808201600081526020966040519461168089876150b2565b600080875260a0860196875233815289805260409020945185546001600160a01b0319166001600160a01b039190911617855551805160018601916001600160401b038211611892576116dd826116d7855461505d565b856155ac565b8a90601f83116001146118b3579261170d8361173e9460039a99979461174799976000926118a8575b50506155fe565b90555b92516002860180546001600160401b0319166001600160401b03929092169190911781559251151583615611565b5115159061562e565b9151805191909201916001600160401b0382116118925761176c826116d7855461505d565b8590601f83116001146118225782611810959361054398979593611798936000926118175750506155fe565b90555b6117a660215461564b565b6021556040518481527f847065330edb730c1ec21ebbf03603a63880d25a2480c3b9852d0551ad80756d3391806117e0888201868861565a565b0390a26b185c1c19585b17d99a5b195960a21b604051946118026040876150b2565b600c86528501523691615566565b9033616640565b015190508980611706565b90601f1983169184600052876000209260005b81811061187b575092600192859261181098966105439b9a989610611862575b505050811b01905561179b565b015160001960f88460031b161c19169055888080611855565b929389600181928786015181550195019301611835565b634e487b7160e01b600052604160045260246000fd5b015190508f80611706565b60008481528c8120929190601f198516908e5b82821061190f575050936003999896936117479896936001938361173e98106118f7575b505050811b019055611710565b0151600019838d1b60f8161c191690558e80806118ea565b806001869782949787015181550196019401906118c6565b60405162461bcd60e51b8152602060048201526014602482015273534545523a2061707065616c2070656e64696e6760601b6044820152606490fd5b60ff915060401c1683611616565b506101f48211156115e8565b3461048257606036600319011261048257611996614f42565b61199e614f8c565b906044356001600160401b038111610482576119be903690600401614fdf565b906119c761661b565b6001600160a01b0383166000818152602080526040902060028101805491906001600160401b03831615611bb95760ff8360401c16611b7c5760ff60401b19909216600160401b178255600391611a1f90889061562e565b01946001600160401b03841161189257611a4384611a3d885461505d565b886155ac565b600095601f8511600114611b0157611ade9392916000805160206170f183398151915291611a7e87806105439b600091611af6575b506155fe565b90555b60215480611ae4575b5060405190151581526040602082015280611aa960408201888761565a565b0390a260405192611abb6040856150b2565b600f84526e185c1c19585b17dc995cdbdb1d9959608a1b60208501523691615566565b91616640565b611aed906156db565b60215588611a8a565b90508701358c611a78565b8087526020872096601f198616815b818110611b6457509161054398611ade96959492886000805160206170f18339815191529510611b4a575b5050600187811b019055611a81565b86013560001960038a901b60f8161c191690558980611b3b565b868301358a5560019099019860209283019201611b10565b60405162461bcd60e51b815260206004820152601560248201527414d151548e88185c1c19585b081c995cdbdb1d9959605a1b6044820152606490fd5b60405162461bcd60e51b815260206004820152600f60248201526e14d151548e881b9bc8185c1c19585b608a1b6044820152606490fd5b3461048257602036600319011261048257600435601b5481101561048257611c179061525b565b5080546001600160a01b03166002611c31600184016150d5565b92015460ff611c526040519485948552608060208601526080850190615179565b91818116604085015260081c16151560608301520390f35b3461048257602036600319011261048257611c83614f42565b6001600160a01b0381166000818152600960205260408120805491929190835b828110611ce65750505061ffff611cbb606094616d6c565b1690600052600b60205261ffff604060002054169061ffff6040519316835260208301526040820152f35b836000526008602052604080600020611cff8385615760565b905460039190911b1c6001600160a01b031660009081526020919091522054426001600160401b038216119081611d6c575b50611d3f575b600101611ca3565b9361ffff1661ffff8114611d565760010193611d37565b634e487b7160e01b600052601160045260246000fd5b61ffff915060401c16151587611d31565b34610482576040366003190112610482576020611da4611d9b614f42565b602435906164fc565b6040519015158152f35b3461048257600036600319011261048257602061ffff60175460101c16604051908152f35b34610482576040611dec611de6366151ea565b91615d0f565b82519115158252600180841b03166020820152f35b346104825760203660031901126104825760e0611e1c614f42565b61ffff611e2882616555565b6011546001600160a01b039384166000908152600e6020908152604080832054600f835281842054601090935292205460ff9092161595928516928692911690851682611e9d575b604051961587528160208801526040870152151560608601521515608085015260a08401521660c0820152f35b915082858516101591611e70565b3461048257600036600319011261048257602061ffff600d5460101c16604051908152f35b34610482576020366003190112610482576001600160a01b03611ef1614f42565b16600052600b602052602061ffff60406000205416604051908152f35b34610482576000366003190112610482576020601f54604051908152f35b3461048257600036600319011261048257601a5460405160089190911c6001600160401b03168152602090f35b34610482576000366003190112610482576004546040516001600160a01b039091168152602090f35b34610482576020366003190112610482576004356001600160401b03811161048257611fb29036906004016151ba565b9060ff601354166105bc57611fcb60ff601a5416615ca7565b81151580612124575b156120e957426001600160401b031660005b838110611fef57005b80612000610643600193878761572f565b828060a01b03811690816000526019602052838060401b036040600020541680156120e15761203362015180918761533d565b858060401b03160490848060401b03601a5460081c16858060401b038316106120e15761206261ffff91615394565b905091909116612077575b5050505b01611fe6565b6000838152600560209081526040808320805461ffff86811661ffff19831617909255601990935292819020805489831b8a90038b81169019909116179055516000805160206171b183398151915294909384936120d6931684615cea565b0390a285808061206d565b505050612071565b60405162461bcd60e51b81526020600482015260136024820152720a68a8aa47440d2dcecc2d8d2c840c4c2e8c6d606b1b6044820152606490fd5b506032821115611fd4565b346104825760003660031901126104825760206040516113888152f35b3461048257602036600319011261048257602061104161216a614f42565b615ae7565b3461048257600036600319011261048257602061ffff600d5460301c16604051908152f35b34610482576000366003190112610482576002546040516001600160a01b039091168152602090f35b34610482576020366003190112610482576001600160a01b036121de614f42565b16803303612253575b80600052600e602052604060002060ff1981541690557f5808667fab0acf73544191fca46e124794dcc62e60b174ac3f5c88b7b5299425600080a26105436040516122336040826150b2565b600e81526d1b595b9d1bdc97dc995d9bdad95960921b6020820152616af9565b61225b61661b565b6121e7565b346104825760403660031901126104825760043560ff81168091036104825760243560ff8116918282036104825761229661661b565b82810160ff8111611d565760ff606491160361232e577fdc0c1a85c25b1a7535e6884d4ffc9fc836d9897f70e1a7f1c36c97eef3bcdf9c926040928261ff00601d549260081b169161ffff19161717601d5582519182526020820152a16105436040516123046040826150b2565b6018815277191958d95b9d1c985b1a5e985d1a5bdb97dd5c19185d195960421b6020820152616af9565b60405162461bcd60e51b815260206004820152601d60248201527f534545523a2077656967687473206d7573742073756d20746f203130300000006044820152606490fd5b346104825760203660031901126104825760ff612391610c76614f42565b601d5461ffff91821691601082901c16821161240d5760009161ffff6123ef6040516123be6040826150b2565b6009815268131bddc8151c9d5cdd60ba1b60208201525b604051968796168652608060208701526080860190615179565b92818160301c16831015604086015260401c16111560608301520390f35b602081901c61ffff16821061244f5760029161ffff6123ef6040516124336040826150b2565b600a815269121a59da08151c9d5cdd60b21b60208201526123d5565b60019161ffff6123ef6040516124666040826150b2565b600c81526b1359591a5d5b48151c9d5cdd60a21b60208201526123d5565b346104825760403660031901126104825761249d614f42565b6001600160a01b0316600090815260186020526040902080546024359190821015610482576080916124ce91615229565b50600181549101546040519161ffff8116835261ffff8160101c16602084015260018060401b039060201c1660408301526060820152f35b34610482576020366003190112610482576020611041612524614f42565b6157c6565b34610482576020366003190112610482576001600160a01b0361254a614f42565b166000526016602052602060018060401b0360406000205416604051908152f35b3461048257602036600319011261048257612584614f42565b61258c61661b565b6001600160a01b03166000818152601c60205260409020548015612638576000198101908111611d56576125c160029161525b565b500161ff0019815416905580600052601c602052600060408120557f826628d8ed5b5660f5dcbab7a54b068dec5e76bbbe84185612d70605652b3a01600080a26105436040516126126040826150b2565b60148152731cd8dbdc9957dcdbdd5c98d957dc995b5bdd995960621b6020820152616af9565b60405162461bcd60e51b815260206004820152601660248201527514d151548e881cdbdd5c98d9481b9bdd08199bdd5b9960521b6044820152606490fd5b346104825760403660031901126104825761268f614f42565b612697614f58565b9060018060a01b0316600052601560205260406000209060018060a01b0316600052602052602061ffff60406000205416604051908152f35b3461048257600036600319011261048257602060ff601354166040519015158152f35b34610482576020366003190112610482576001600160a01b03612714614f42565b1660005260186020526040600020805490600a821160001461289957600a5b61273c8161579b565b9161274a60405193846150b2565b818352601f196127598361579b565b0160005b81811061286657505060005b8281106127ee5783856040519182916040830190835260406020840152815180915260206060840192019060005b8181106127a5575050500390f35b91935091602060806001926060875161ffff815116835261ffff858201511685840152858060401b03604082015116604084015201516060820152019401910191849392612797565b82850390858211611d565761280e61280882600194615753565b84615229565b50826040519161281d83615097565b805461ffff8116845261ffff8160101c166020850152828060401b039060201c1660408401520154606082015261285482876157b2565b5261285f81866157b2565b5001612769565b60209060405161287581615097565b6000815260008382015260006040820152600060608201528282880101520161275d565b81612733565b34610482576128ad366151ea565b60ff601393929354166105bc576001600160a01b0382169081158015612ce3575b612cd25760a08111612cc157600d5491609083901c6001600160401b031680612c48575b5061ffff8061290033616555565b169360d01c168310612c265761291584616bc0565b60008181526008602090815260408083203384529091529020546001600160401b03164210612c375780600052600960205261ffff6040600020541694600d5461ffff8160301c16871015612c265733600052600b60205261ffff6040600020541661ffff8260401c161115612c265761ffff81169461ffff601d5460201c161115612c16575b6129a533615da1565b612c06575b61ffff8160101c168061ffff871611612bfe575b506129d761ffff6129ce88616d6c565b96168096615753565b61ffff8260201c1610612bc1576001600160401b03906129fc9060501c821642615753565b604051939116426001600160401b039081169060608601908111868210176118925760409081528286526020808701898152828801848152600087815260088452848120338083529085528582209a518b54945193516001600160901b03199095166001600160401b03919091161792861b61ffff60401b169290921760509390931b600160501b600160901b03169290921790985585815260099091522061054399612bbb96612ab692612ab19190615778565b61536a565b83600052600a60205261ffff6040600020911661ffff1982541617905533600052600b602052604060002061ffff612af08183541661536a565b1661ffff1982541617905533600052600c602052604060002060018060401b03821660018060401b031982541617905582600052601960205260406000209060018060401b031660018060401b0319825416179055604051908682526020820152606060408201527fd7b6373d0cc8185cacb0cd7341ab8a20f17ea855f4ff4b8199ff544d5335b5af339180612b8a60608201898861565a565b0390a360405192612b9c6040856150b2565b600b84526a195b991bdc9cd95b595b9d60aa1b60208501523691615566565b926166e1565b60405162461bcd60e51b81526020600482015260156024820152740534545523a20656e646f7273656d656e742063617605c1b6044820152606490fd5b9450876129be565b93612c1090615356565b936129aa565b93612c2090615356565b9361299c565b63cb450d2360e01b60005260046000fd5b635361ab1760e01b60005260046000fd5b336000908152600c60205260409020546001600160401b0390811691909101908111611d56576001600160401b03164210612c8357856128f2565b60405162461bcd60e51b815260206004820152601660248201527529a2a2a91d1032b73237b939b29031b7b7b63237bbb760511b6044820152606490fd5b6302f9198160e51b60005260046000fd5b63f973482560e01b60005260046000fd5b503382146128ce565b34610482576080366003190112610482576004356001600160401b03811161048257612d1c9036906004016151ba565b60243591612d28614f6e565b9260643590612d3561661b565b83151580612e7e575b612d47906156e8565b60005b848110612ddc576105438560008815612da75750604051612d6c6040826150b2565b601381527218985919d957d8985d18da17d9dc985b9d1959606a1b6020820152905b60405191612d9d6020846150b2565b60008352306166e1565b50604051612db66040826150b2565b601381527218985919d957d8985d18da17dc995d9bdad959606a1b602082015290612d8e565b6001906001600160a01b03612df561064383898961572f565b16806000526006602052604060002084600052602052612e1988604060002061532c565b8780612e75575b15612e47576000526007602052604060002083600052602052836040600020555b01612d4a565b8715612e54575b50612e41565b60005260076020526040600020836000526020526000604081205587612e4e565b50841515612e20565b506064841115612d3e565b34610482576020366003190112610482576001600160a01b03612eaa614f42565b16600052600f602052602060018060a01b0360406000205416604051908152f35b34610482576000366003190112610482576001546040516001600160a01b039091168152602090f35b3461048257604036600319011261048257612f0d614f42565b612f15614f8c565b90612f1e61661b565b6001600160a01b03168015610ab257806000526012602052612f4482604060002061532c565b7f1a594081ae893ab78e67d9b9e843547318164322d32c65369d78a96172d9dc8f60206040518415158152a260009015612faa5750610543604051612f8a6040826150b2565b600e81526d1bdc195c985d1bdc97d85919195960921b6020820152616af9565b50610543604051612fbc6040826150b2565b601081526f1bdc195c985d1bdc97dc995b5bdd995960821b6020820152616af9565b3461048257600036600319011261048257602060ff601d5460081c16604051908152f35b3461048257600036600319011261048257602061ffff601d5460101c16604051908152f35b3461048257602036600319011261048257613040614f42565b6001600160a01b038181166000818152600f6020526040902054909116919082156131ac5782330361319f575b82600052601060205260406000209283549360005b858110613108575b50506000828152600f6020526040812080546001600160a01b031916905561054394507fc890e92b7f9c8c46c61cd0ac0d88ba6817effe750591001f30845df0f3645fd89080a360408051906130e081836150b2565b600e82526d1b595b9d195957dc995b5bdd995960921b602083015251916112c96020846150b2565b836131138284615760565b905460039190911b1c6001600160a01b03161461313257600101613082565b906000198601958611611d56576131936131989261316f6131566105439985615760565b905460039190911b1c6001600160a01b03169184615760565b9080546001600160a01b0360039390931b83811b199091169290931690921b179055565b616b7d565b848061308a565b6131a761661b565b61306d565b60405162461bcd60e51b815260206004820152600f60248201526e29a2a2a91d1037379036b2b73a37b960891b6044820152606490fd5b34610482576020366003190112610482576001600160a01b03613204614f42565b166000908152602080526040902080546001600160a01b031661062661322c600184016150d5565b9261323e6003600283015492016150d5565b60ff61325c604051968796875260c0602088015260c0870190615179565b9260018060401b0381166040870152818160401c161515606087015260481c161515608085015283820360a0850152615179565b34610482576060366003190112610482576132a9614f42565b6024356001600160401b038111610482576132c8903690600401614fdf565b906044359260ff8416809403610482576132e061661b565b6001600160a01b0316918215613586576064841161354c5782600052601c602052604060002054613511576040519361331885615097565b838552613326368385615566565b94602081019586526040810190828252606081019060018252601b54600160401b8110156118925780600161335e9201601b5561525b565b9190916134fb575181546001600160a01b0319166001600160a01b03919091161781559651805190979060018201906001600160401b038111611892576133af816133a9845461505d565b846155ac565b6020601f821160011461347f57916133e78260ff95936002956000805160206172f18339815191529d9e6000926134745750506155fe565b90555b0192511660ff1983541617825551151561ff0082549160081b169061ff001916179055601b5485600052601c60205260406000205561343660405193849360408552604085019161565a565b9060208301520390a26105436040516134506040826150b2565b60128152711cd8dbdc9957dcdbdd5c98d957d85919195960721b6020820152616af9565b015190508e80611706565b601f1982169a83600052816000209b60005b8181106134e35750926000805160206172f18339815191529b9c600295936001938360ff9997106134ca575b505050811b0190556133ea565b015160001960f88460031b161c191690558d80806134bd565b838301518e556001909d019c60209384019301613491565b634e487b7160e01b600052600060045260246000fd5b60405162461bcd60e51b8152602060048201526013602482015272534545523a20736f757263652065786973747360681b6044820152606490fd5b60405162461bcd60e51b81526020600482015260126024820152710534545523a20776569676874203e203130360741b6044820152606490fd5b60405162461bcd60e51b8152602060048201526011602482015270534545523a207a65726f20736f7572636560781b6044820152606490fd5b3461048257610100366003190112610482576135d9614f9b565b6135e1614fac565b906135ea614fbd565b916135f3614fce565b9060843561ffff8116918282036104825760a435936001600160401b0385168086036104825760c435966001600160401b0388168089036104825760e4359261ffff8416928385036104825761ffff9061364b61661b565b1697881515806139df575b156139a05761ffff8716898110159081613993575b5015613955578861ffff8d161061391a5761ffff8616801515908161390e575b50156138d55780151590816138c9575b50156138925762093a808110159081613883575b5015613847576102588110159081613839575b50156137fd57600a81101590816137f0575b50156137b357600d805460909890981b600160901b600160d01b031660509790971b600160501b600160901b0316600160301b600160e01b03199096166001600160e01b03199098169790971760109390931b63ffff0000169290921760209790971b61ffff60201b169690961760309690961b61ffff60301b1695909517604091821b61ffff60401b1617919091179190911760d09390931b61ffff60d01b1692909217905580516105439161378b90826150b2565b6016815275195b991bdc9cd95b595b9d17dc1bdb1a58de57dcd95d60521b6020820152616af9565b60405162461bcd60e51b8152602060048201526015602482015274534545523a206d696e2073636f72652072616e676560581b6044820152606490fd5b61271091501115896136d4565b60405162461bcd60e51b8152602060048201526014602482015273534545523a20636f6f6c646f776e2072616e676560601b6044820152606490fd5b62093a80915011158a6136c2565b60405162461bcd60e51b8152602060048201526014602482015273534545523a2076616c69646974792072616e676560601b6044820152606490fd5b6301e13380915011158b6136af565b60405162461bcd60e51b815260206004820152600f60248201526e0534545523a20676976656e2063617608c1b6044820152606490fd5b60c8915011158c61369b565b60405162461bcd60e51b81526020600482015260116024820152700534545523a207375626a6563742063617607c1b6044820152606490fd5b6032915011158d61368b565b60405162461bcd60e51b8152602060048201526013602482015272534545523a20626f6e757320636170206c6f7760681b6044820152606490fd5b60405162461bcd60e51b815260206004820152601660248201527529a2a2a91d1036b0bc103832b91032b73237b939b2b960511b6044820152606490fd5b61012c915011158d61366b565b60405162461bcd60e51b8152602060048201526017602482015276534545523a2062617365206f7574206f662072616e676560481b6044820152606490fd5b5060c8891115613656565b3461048257600036600319011261048257602061ffff601d5460301c16604051908152f35b3461048257600036600319011261048257600d5460405160509190911c6001600160401b03168152602090f35b3461048257606036600319011261048257613a55614f42565b613a5d614f8c565b90604435918260010b80930361048257613a7561661b565b6001600160a01b0382166000818152601e6020526040902060020180546001600160401b03811615613c745760ff8160401c16613c365760ff60401b1916600160401b178155610543947f2eec6b0a78eba6860ae5bb6579b36b4b751ba52ee7d16723279b46572c96469d9160409190613af090869061562e565b8480613c2d575b613b83575b601f5480613b71575b5081519085151582526020820152a215613b69576001905b604060ff815191613b2e81846150b2565b60168352751cd8dbdc9957d91a5cdc1d5d1957dc995cdbdb1d995960521b60208401525193613b5e6020866150b2565b6000855216916166e1565b600090613b1d565b613b7a906156db565b601f5587613b05565b8360008051602061711183398151915260a061ffff613ba18a616555565b16613bac85826156bf565b600a8112613c25575b6127108113613c1c575b600085815260056020908152888220805461ffff191661ffff948516179055908890205488519384529091169082015260608187018190526010908201526f191a5cdc1d5d1957dc995cdbdb1d995960821b6080820152a2613afc565b50612710613bbf565b50600a613bb5565b50801515613af7565b60405162461bcd60e51b815260206004820152601660248201527514d151548e88185b1c9958591e481c995cdbdb1d995960521b6044820152606490fd5b60405162461bcd60e51b815260206004820152601660248201527514d151548e881b9bc8191a5cdc1d5d1948199bdd5b9960521b6044820152606490fd5b3461048257600036600319011261048257602061ffff601d54821c16604051908152f35b3461048257600036600319011261048257602061ffff601a5460481c16604051908152f35b3461048257602036600319011261048257613d14614f42565b613d1c61661b565b600480546001600160a01b0319166001600160a01b039290921691821790557fe4684f339ba56463e5cadcd26648b097a048a5f17251bfea9591d8c6a6081318600080a2005b34610482576000366003190112610482576000546040516001600160a01b039091168152602090f35b34610482576000366003190112610482576020604051600a8152f35b3461048257613db53661500c565b613dc093929361661b565b6001600160a01b038316938415610ab25761ffff8116926127108411612cc15761054395600080516020617111833981519152612bbb93613e0088616555565b83600052600560205260406000208861ffff19825416179055613e2a87866040519485948561569a565b0390a260405192613e3c6040856150b2565b600e84526d1cd9595c97dcd8dbdc9957dcd95d60921b60208501523691615566565b3461048257600036600319011261048257602060405160328152f35b34610482576040366003190112610482576001600160a01b03613e9b614f42565b1660005260066020526040600020602435600052602052602060ff604060002054166040519015158152f35b34610482576000366003190112610482576000601b5460005b818110613ef7575060409182519182526020820152f35b60ff6002613f048361525b565b50015460081c16613f18575b600101613ee0565b91613f2460019161564b565b929050613f10565b3461048257606036600319011261048257613f45614f7d565b6024356001600160401b03811680820361048257601e613f63614fbd565b91613f6c61661b565b1061402b576101f461ffff821611613fe95760ff601a549161ffff60481b9060481b16931515169060018060581b0319161790610100600160481b039060081b161717601a55610543604051613fc36040826150b2565b6014815273191958d85e57d8dbdb999a59d7dd5c19185d195960621b6020820152616af9565b60405162461bcd60e51b815260206004820152601a602482015279534545523a20646563617920746f6f206167677265737369766560301b6044820152606490fd5b60405162461bcd60e51b815260206004820152601b60248201527a14d151548e88191958d85e481cdd185c9d081d1bdbc81cda1bdc9d602a1b6044820152606490fd5b3461048257602036600319011261048257614087614f42565b6001600160a01b03811660008181526005602052604090205461ffff1690811561419e575b6140be6140b884615ae7565b93616555565b92601d549060018060a01b03600254168015159384614113575b50509061ffff60c0958160ff948160405198168852166020870152166040850152818116606085015260081c166080830152151560a0820152f35b60209193929450602460405180958193630709df4560e01b835260048301525afa80156141925760c09561ffff809260ff95600091614163575b5060018060a01b031615159593945050956140d8565b614185915060203d60201161418b575b61417d81836150b2565b81019061567b565b8961414d565b503d614173565b6040513d6000823e3d90fd5b90506141a9826157c6565b906140ac565b3461048257600036600319011261048257602061ffff600d5416604051908152f35b3461048257600036600319011261048257602060ff601d5416604051908152f35b346104825760003660031901126104825760206040516127108152f35b34610482576020366003190112610482576001600160a01b03614230614f42565b16600052600a602052602061ffff60406000205416604051908152f35b3461048257602036600319011261048257614266614f42565b60ff601354166105bc5761054390616bc0565b3461048257600036600319011261048257602061ffff600d54821c16604051908152f35b34610482576142ab3661500c565b919260018060a01b036000541633141580614498575b6144875760ff601354166105bc5761ffff60175460101c169061ffff851691821161444257336000908152601660205260409020546001600160401b039081166201518001908111611d56576001600160401b03164210156143f1575b336000526015602052604060002060018060a01b03821660005260205261434e8561ffff6040600020541661537e565b61ffff80601754169116116143a2576105439433600052601560205261ffff61439260408060002060009060018060a01b038716825260205220928284541661537e565b1661ffff19825416179055616786565b60405162461bcd60e51b815260206004820152602160248201527f534545523a206461696c7920726577617264206c696d697420657863656564656044820152601960fa1b6064820152608490fd5b33600090815260166020908152604080832080546001600160401b031916426001600160401b0316179055601582528083206001600160a01b03851684529091529020805461ffff1916905561431e565b60405162461bcd60e51b815260206004820152601f60248201527f534545523a207265776172642065786365656473206d61782073696e676c65006044820152606490fd5b634c87459760e11b60005260046000fd5b5033600052601260205260ff60406000205416156142c1565b34610482576020366003190112610482576144ca614f7d565b6144d261661b565b7f0e2fb031ee032dc02d8011dc50b816eb450cf856abd8261680dac74f72165bd2602082151560ff196013541660ff821617601355604051908152a16000901561454557506105436040516145286040826150b2565b600b81526a1cd9595c97dc185d5cd95960aa1b6020820152616af9565b506105436040516145576040826150b2565b600d81526c1cd9595c97dd5b9c185d5cd959609a1b6020820152616af9565b34610482576020366003190112610482576001600160a01b03614597614f42565b166000526012602052602060ff604060002054166040519015158152f35b34610482576020366003190112610482576004356001600160401b038111610482576145e5903690600401614fdf565b8015158061487f575b6145f79061551c565b336000908152601e60205260409020600201546001600160401b0316158015614861575b15614824576040519160a083016001600160401b038111848210176118925760405233835261464b368383615566565b6020808501918252426001600160401b03908116604080880191825260006060890181815260808a01828152338352601e909652919020975188546001600160a01b0319166001600160a01b03919091161788559351805190979194926001830191908111611892576146c2816133a9845461505d565b6020601f82116001146147aa57614726959361173e936146f8846118109b9a98956002956105439f6000926118a85750506155fe565b90555b9451940180546001600160401b0319166001600160401b039590951694909417845551151583615611565b614731601f5461564b565b601f55604051602081527fb23ac579e6192f602dcd9cb4739d7aac62bf98df815a123ea748071d25b8087533918061476d60208201888761565a565b0390a26040519261477f6040856150b2565b60178452761cd8dbdc9957d91a5cdc1d5d1957dc995c5d595cdd1959604a1b60208501523691615566565b601f1982169983600052816000209a60005b81811061480c5750936001846105439d6002956147269b99956118109e9d9b9861173e9a106147f3575b505050811b0190556146fb565b015160001960f88460031b161c191690558e80806147e6565b838301518d556001909c019b602093840193016147bc565b60405162461bcd60e51b8152602060048201526015602482015274534545523a20646973707574652070656e64696e6760581b6044820152606490fd5b5033600052601e60205260ff60026040600020015460401c1661461b565b506101f48111156145ee565b34610482576020366003190112610482576001600160a01b036148ac614f42565b166000908152601e6020526040902080546001600160a01b031660026148d4600184016150d5565b92015460ff6148f5604051948594855260a0602086015260a0850190615179565b9160018060401b0381166040850152818160401c161515606085015260481c16151560808301520390f35b3461048257604036600319011261048257614939614f9b565b61ffff614944614fac565b9161494d61661b565b169061138882101580614a58575b15614a135761ffff811691600183101580614a08575b156149c3577f273cee8c4dd4641fdf7f817df77d9ad070ab040ab68b2b923bf6a49c6ec673ee926040928263ffff00006011549260101b169163ffffffff1916171760115582519182526020820152a1005b60405162461bcd60e51b815260206004820152601d60248201527f534545523a206d656e746f72206d6178206f7574206f662072616e67650000006044820152606490fd5b5060c8831115614971565b60405162461bcd60e51b815260206004820152601d60248201527f534545523a206d656e746f72206d696e206f7574206f662072616e67650000006044820152606490fd5b5061271082111561495b565b3461048257608036600319011261048257614a7d614f9b565b614a85614fac565b90614a8e614fbd565b614a96614fce565b90614a9f61661b565b61ffff84169161ffff841692808411612cc1576127108111612cc1576103e88410614c825761251c8111614c3d5761ffff831691610bb88310614bed5761ffff811693610bb88510614ba9577f41bc9bed7ea81d63e5ff2964100fd598eb19876ddea235344dab5ef7c0af0c8997608097601d549361ffff60401b9060401b169363ffff000061ffff60401b199260101b169067ffffffffffff0000191617169061ffff60201b9060201b16179061ffff60301b9060301b161717601d55604051938452602084015260408301526060820152a1610543604051614b846040826150b2565b60138152721cd9595c97dd1a1c995cda1bdb191cd7dcd95d606a1b6020820152616af9565b606460405162461bcd60e51b815260206004820152602060248201527f534545523a206d65726368616e74207468726573686f6c6420746f6f206c6f776044820152fd5b60405162461bcd60e51b815260206004820152602260248201527f534545523a20676f7665726e616e6365207468726573686f6c6420746f6f206c6044820152616f7760f01b6064820152608490fd5b60405162461bcd60e51b815260206004820152601d60248201527f534545523a2068696768207468726573686f6c6420746f6f20686967680000006044820152606490fd5b60405162461bcd60e51b815260206004820152601b60248201527a534545523a206c6f77207468726573686f6c6420746f6f206c6f7760281b6044820152606490fd5b3461048257600036600319011261048257602060ff601a54166040519015158152f35b3461048257614cf63661500c565b919260018060a01b036000541633141580614d85575b6144875760ff601354166105bc5761ffff8060175460101c169416938411614d4057614d3a610543946154f1565b90616786565b60405162461bcd60e51b815260206004820152601f60248201527f534545523a2070756e6973682065786365656473206d61782073696e676c65006044820152606490fd5b5033600052601260205260ff6040600020541615614d0c565b3461048257602036600319011261048257606061ffff614dc4614dbf614f42565b615394565b90836040949394519416845260018060401b03166020840152166040820152f35b3461048257608036600319011261048257610543614e01614f42565b602435614e0c614f6e565b606435614e1761661b565b60018060a01b038416806000526006602052604060002084600052602052614e4383604060002061532c565b8280614f12575b15614ee25760005260076020526040600020836000526020526040600020555b60009015614eb45750604051614e816040826150b2565b600d81526c18985919d957d9dc985b9d1959609a1b60208201525b60405192614eab6020856150b2565b600084526166e1565b50604051614ec36040826150b2565b600d81526c18985919d957dc995d9bdad959609a1b6020820152614e9c565b90508115614ef1575b50614e6a565b60005260076020526040600020826000526020526000604081205584614eeb565b50811515614e4a565b3461048257600036600319011261048257600d5460901c6001600160401b03168152602090f35b600435906001600160a01b038216820361048257565b602435906001600160a01b038216820361048257565b60443590811515820361048257565b60043590811515820361048257565b60243590811515820361048257565b6004359061ffff8216820361048257565b6024359061ffff8216820361048257565b6044359061ffff8216820361048257565b6064359061ffff8216820361048257565b9181601f84011215610482578235916001600160401b038311610482576020838186019501011161048257565b6060600319820112610482576004356001600160a01b0381168103610482579160243561ffff811681036104825791604435906001600160401b0382116104825761505991600401614fdf565b9091565b90600182811c9216801561508d575b602083101461507757565b634e487b7160e01b600052602260045260246000fd5b91607f169161506c565b608081019081106001600160401b0382111761189257604052565b601f909101601f19168101906001600160401b0382119082101761189257604052565b90604051918260008254926150e98461505d565b80845293600181169081156151575750600114615110575b5061510e925003836150b2565b565b90506000929192526020600020906000915b81831061513b57505090602061510e9282010138615101565b6020919350806001915483858901015201910190918492615122565b90506020925061510e94915060ff191682840152151560051b82010138615101565b919082519283825260005b8481106151a5575050826000602080949584010152601f8019910116010190565b80602080928401015182828601015201615184565b9181601f84011215610482578235916001600160401b038311610482576020808501948460051b01011161048257565b906040600319830112610482576004356001600160a01b03811681036104825791602435906001600160401b0382116104825761505991600401614fdf565b80548210156152455760005260206000209060011b0190600090565b634e487b7160e01b600052603260045260246000fd5b601b5481101561524557601b6000526003602060002091020190600090565b906020808351928381520192019060005b8181106152985750505090565b82516001600160a01b031684526020938401939092019160010161528b565b906020808351928381520192019060005b8181106152d55750505090565b825161ffff168452602093840193909201916001016152c8565b906020808351928381520192019060005b81811061530d5750505090565b82516001600160401b0316845260209384019390920191600101615300565b9060ff801983541691151516179055565b6001600160401b039182169082160391908211611d5657565b61ffff600a9116019061ffff8211611d5657565b61ffff60019116019061ffff8211611d5657565b9061ffff8091169116019061ffff8211611d5657565b61539d81616555565b6001600160a01b039091166000908152601960205260409020546001600160401b0316801580156154e4575b6154da5762015180906153e590426001600160401b031661533d565b601a546001600160401b0391821692909204929190600882901c8116908490811682116154ce5750601e61541c61ffff928661533d565b60018060401b0316049160481c169060018060401b0316028060018060401b03811603611d565761ffff169061ffff811690611388821160001461548d57506113871981019061ffff8211611d5657829161ffff1682111561548057505061138892565b0361ffff8111611d565792565b906113888110156154c6576113880361ffff8111611d5657829061ffff168111156154ba57505061138892565b6154c39161537e565b92565b505061138892565b94935050509190600090565b5090600090600090565b5060ff601a5416156153c9565b600160ff1b8114611d565760000390565b9063ffff000082549160101b169063ffff00001916179055565b1561552357565b60405162461bcd60e51b815260206004820152601b60248201527a0a68a8aa47440d2dcecc2d8d2c840e4cac2e6dedc40d8cadccee8d602b1b6044820152606490fd5b9192916001600160401b038211611892576040519161558f601f8201601f1916602001846150b2565b829481845281830111610482578281602093846000960137010152565b601f82116155b957505050565b6000526020600020906020601f840160051c830193106155f4575b601f0160051c01905b8181106155e8575050565b600081556001016155dd565b90915081906155d4565b8160011b916000199060031b1c19161790565b805460ff60401b191691151560401b60ff60401b16919091179055565b805460ff60481b191691151560481b60ff60481b16919091179055565b6000198114611d565760010190565b908060209392818452848401376000828201840152601f01601f1916010190565b9081602091031261048257516001600160a01b03811681036104825790565b61ffff6156bc959381606094168352166020820152816040820152019161565a565b90565b91909160008382019384129112908015821691151617611d5657565b8015611d56576000190190565b156156ef57565b60405162461bcd60e51b8152602060048201526018602482015277534545523a20696e76616c69642062617463682073697a6560401b6044820152606490fd5b91908110156152455760051b0190565b356001600160a01b03811681036104825790565b91908201809211611d5657565b80548210156152455760005260206000200190600090565b80549190600160401b831015611892578261316f91600161510e95018155615760565b6001600160401b0381116118925760051b60200190565b80518210156152455760209160051b010190565b6001600160a01b038116908115615abd57600254611388926001600160a01b039091169081615a52575b50506000916157fe82615e1c565b615a49575b61580c82615e8a565b615a37575b61581a82615ef8565b615a25575b61582882615f66565b615a13575b61583682615fd4565b615a01575b61584482616042565b6159ef575b615852826160b0565b6159dd575b61586082615da1565b6159cb575b61586e8261611e565b6159b9575b61587c8261618c565b6159a7575b61588a826161fa565b615995575b61589882616268565b615983575b6158a6826162d6565b615971575b6158b482616344565b61595f575b6158c2826163b2565b61594d575b6158d082616420565b61593b575b6158de8261648e565b615919575b6158f36158ff936158f992615753565b91616d6c565b90615753565b6127108111615910575b61ffff1690565b50612710615909565b601e8301809311156158e357634e487b7160e01b600052601160045260246000fd5b9160288101809111611d5657916158d5565b9160148101809111611d5657916158c7565b9160288101809111611d5657916158b9565b9160328101809111611d5657916158ab565b9160328101809111611d56579161589d565b91603c8101809111611d56579161588f565b9160288101809111611d565791615881565b9160238101809111611d565791615873565b91601e8101809111611d565791615865565b9160288101809111611d565791615857565b9160198101809111611d565791615849565b9160148101809111611d56579161583b565b9160198101809111611d56579161582d565b9160328101809111611d56579161581f565b9160288101809111611d565791615811565b601e9250615803565b602090602460405180948193630709df4560e01b835260048301525afa90811561419257600091615a9e575b506001600160a01b0316615a94575b38806157f0565b61157c9150615a8d565b615ab7915060203d60201161418b5761417d81836150b2565b38615a7e565b505061138890565b519061ffff8216820361048257565b81810292918115918404141715611d5657565b6001600160a01b0381168015615abd5760009182918390601b54915b828110615b8257505050615b16906157c6565b826064039060648211611d565783606403615b5f575b50508115615abd57046127108111615b56575b600a8110615b4e5761ffff1690565b50600a615909565b50612710615b3f565b615b7a926158f98361ffff615b749416615ad4565b92615753565b903880615b2c565b60ff6002615b8f8361525b565b50015460081c1615615c9f5760246040615ba88361525b565b5054815163bc0824a360e01b81526004810186905292839182906001600160a01b03165afa806000928392615c4b575b50615bea575b50506001905b01615b03565b60ff169081151580615c3b575b15615bde5761ffff9097969192971691600a830292808404600a1490151715611d5657615c2d615c33926158f983600196615ad4565b96615753565b959038615bde565b506103e861ffff82161115615bf7565b9091506040813d8211615c97575b81615c66604093836150b2565b81010312615c93576020615c7982615ac5565b9101519260ff84168403615c905750919038615bd8565b80fd5b8280fd5b3d9150615c59565b600190615be4565b15615cae57565b60405162461bcd60e51b815260206004820152601460248201527314d151548e88191958d85e48191a5cd8589b195960621b6044820152606490fd5b61ffff9182168152911660208201526001600160401b03909116604082015260600190565b9190615d1c913691615566565b602081519101209060018060a01b031660005260186020526040600020908154805b615d4d57505050600090600090565b6000198101818111611d5657826001615d668387615229565b50015414615d7e5750615d78906156db565b80615d3e565b915050615d8a91615229565b505460019160209190911c6001600160401b031690565b60018060a01b0316806000526006602052604060002060008051602061721183398151915260005260205260ff6040600020541615615e1657600052600760205260406000206000805160206172118339815191526000526020526040600020548015908115615e0f575090565b9050421090565b50600090565b60018060a01b0316806000526006602052604060002060008051602061733183398151915260005260205260ff6040600020541615615e1657600052600760205260406000206000805160206173318339815191526000526020526040600020548015908115615e0f575090565b60018060a01b0316806000526006602052604060002060008051602061717183398151915260005260205260ff6040600020541615615e1657600052600760205260406000206000805160206171718339815191526000526020526040600020548015908115615e0f575090565b60018060a01b031680600052600660205260406000206000805160206170b183398151915260005260205260ff6040600020541615615e1657600052600760205260406000206000805160206170b18339815191526000526020526040600020548015908115615e0f575090565b60018060a01b031680600052600660205260406000206000805160206171d183398151915260005260205260ff6040600020541615615e1657600052600760205260406000206000805160206171d18339815191526000526020526040600020548015908115615e0f575090565b60018060a01b031680600052600660205260406000206000805160206170d183398151915260005260205260ff6040600020541615615e1657600052600760205260406000206000805160206170d18339815191526000526020526040600020548015908115615e0f575090565b60018060a01b031680600052600660205260406000206000805160206171f183398151915260005260205260ff6040600020541615615e1657600052600760205260406000206000805160206171f18339815191526000526020526040600020548015908115615e0f575090565b60018060a01b0316806000526006602052604060002060008051602061723183398151915260005260205260ff6040600020541615615e1657600052600760205260406000206000805160206172318339815191526000526020526040600020548015908115615e0f575090565b60018060a01b0316806000526006602052604060002060008051602061727183398151915260005260205260ff6040600020541615615e1657600052600760205260406000206000805160206172718339815191526000526020526040600020548015908115615e0f575090565b60018060a01b0316806000526006602052604060002060008051602061729183398151915260005260205260ff6040600020541615615e1657600052600760205260406000206000805160206172918339815191526000526020526040600020548015908115615e0f575090565b60018060a01b0316806000526006602052604060002060008051602061725183398151915260005260205260ff6040600020541615615e1657600052600760205260406000206000805160206172518339815191526000526020526040600020548015908115615e0f575090565b60018060a01b0316806000526006602052604060002060008051602061731183398151915260005260205260ff6040600020541615615e1657600052600760205260406000206000805160206173118339815191526000526020526040600020548015908115615e0f575090565b60018060a01b031680600052600660205260406000206000805160206172b183398151915260005260205260ff6040600020541615615e1657600052600760205260406000206000805160206172b18339815191526000526020526040600020548015908115615e0f575090565b60018060a01b0316806000526006602052604060002060008051602061719183398151915260005260205260ff6040600020541615615e1657600052600760205260406000206000805160206171918339815191526000526020526040600020548015908115615e0f575090565b60018060a01b031680600052600660205260406000206000805160206172d183398151915260005260205260ff6040600020541615615e1657600052600760205260406000206000805160206172d18339815191526000526020526040600020548015908115615e0f575090565b60018060a01b0316806000526006602052604060002060008051602061713183398151915260005260205260ff6040600020541615615e1657600052600760205260406000206000805160206171318339815191526000526020526040600020548015908115615e0f575090565b60018060a01b0316806000526006602052604060002060008051602061715183398151915260005260205260ff6040600020541615615e1657600052600760205260406000206000805160206171518339815191526000526020526040600020548015908115615e0f575090565b60018060a01b031680600052600660205260406000208260005260205260ff604060002054161561654e5760005260076020526040600020906000526020526040600020548015908115615e0f575090565b5050600090565b6001600160a01b03811660009081526005602052604090205461ffff169081156165d8575b601d549060ff8260081c169081156165d2576165b9929161ffff6165b26064968260ff6165a96158f997615ae7565b97169116615ad4565b9316615ad4565b046127108111615b5657600a8110615b4e5761ffff1690565b50505090565b90506165e3816157c6565b9061657a565b906165f38261579b565b61660060405191826150b2565b8281528092616611601f199161579b565b0190602036910137565b6000546001600160a01b0316330361662f57565b63483e517d60e01b60005260046000fd5b600154600093926001600160a01b039091169182616660575b5050505050565b823b156166dd57916166a4918580946166bc60405197889687958694630303c28760e61b865260018060a01b03166004860152608060248601526084850190615179565b90846044850152600319848303016064850152615179565b03925af16166cd575b808080616659565b816166d7916150b2565b386166c5565b8480fd5b600154600094936001600160a01b0390911692919083616704575b505050505050565b833b156167825791858094926167606167499560405198899788968795630303c28760e61b875260018060a01b03166004870152608060248701526084860190615179565b916044850152600319848303016064850152615179565b03925af1616772575b808080806166fc565b8161677c916150b2565b38616769565b8580fd5b9291909261679381616555565b9061ffff8216926167a486856156bf565b600a8112616af1575b6127108113616ae8575b61ffff169460009660018060a01b0384169485895260056020526040892061ffff891661ffff198254161790558589526018602052604089206032815410156169c6575b426001600160401b031690616811368688615566565b602081519101206040519161682583615097565b8a8352602083018c8152604084018581526060850193845282549092600160401b8210156169b1579061685d91600182018155615229565b94909461699d579460408f8f949660018f98976169429f9e9d9c9a600080516020617111833981519152996168ac61ffff612bbb9f9a81806168ba965116168219895416178855511686615502565b8380881b0390511684617087565b5191015586815260196020522080546001600160401b0319166001600160401b039092169190911790556040519182916168f99189918b91908561569a565b0390a2898112156169975761690d906154f1565b925b6040519261691e6040856150b2565b601084526f736565725f73636f72655f64656c746160801b60208501523691615566565b6004546001600160a01b03168061695a575050505050565b803b156166dd578492918360649260405196879586946319e9cbb760e01b86526004860152602485015260448401525af16166cd57808080616659565b9261690f565b634e487b7160e01b8f5260048f905260248ffd5b50634e487b7160e01b8f52604160045260248ffd5b9795939160019a97959391999a5b8954811015616a8a576169e7818b615229565b506000198201828111616a76576169fe908c615229565b919091616a62579081600193928203616a1a575b5050016169d4565b838161ffff80839454161661ffff19855416178455616a4161ffff825460101c1685615502565b616a56828060401b03825460201c1685617087565b01549101553880616a12565b634e487b7160e01b8e5260048e905260248efd5b634e487b7160e01b8e52601160045260248efd5b50919395979998909294969980548015616ad45760001901616aac8183615229565b616ac0576001818d809355015581556167fb565b634e487b7160e01b8c5260048c905260248cfd5b634e487b7160e01b8b52603160045260248bfd5b506127106167b7565b50600a6167ad565b6001546000916001600160a01b039091169081616b1557505050565b813b15615c9357616b4d83928392604051948580948193633ddd61ab60e21b8352306004840152606060248401526064830190615179565b33604483015203925af1616b5f575050565b81616b69916150b2565b50565b61ffff168015611d56576000190190565b80548015616baa576000190190616b948282615760565b81549060018060a01b039060031b1b1916905555565b634e487b7160e01b600052603160045260246000fd5b6001600160a01b0316600081815260096020526040812091905b8254811015616d4557616bed8184615760565b9054600084815260086020908152604080832060039590951b9390931c6001600160a01b031680835293905220546001600160401b03168015159081616d3a575b50616c455750616c3d9061564b565b925b92616bda565b82600095929552600860205260006040808220829060018060a01b0385168252602052205582600052600a60205261ffff60406000205416616d0d575b80600052600b60205261ffff60406000205416616ce0575b5082546000198101908111611d5657616cb6616cd29185615760565b905460039190911b1c6001600160a01b031661316f8686615760565b616cdb83616b7d565b616c3f565b600052600b602052604060002061ffff616cfc81835416616b6c565b1661ffff1982541617905538616c9a565b82600052600a602052604060002061ffff616d2a81835416616b6c565b1661ffff19825416179055616c82565b905042101538616c2e565b509061ffff90541690600052600a60205261ffff6040600020911661ffff19825416179055565b600354600091906001600160a01b031680617015575b506001600160a01b03908116600081815260096020526040812080546004549294909392168015159283616f98575b60005b858110616e285750505050505080151580616e1f575b616de9575b509061ffff600d5460201c16808311616de55750565b9150565b610320811115616e1a57506103205b6103e803906103e88211611d56576103e891616e1391615ad4565b0438616dcf565b616df8565b50811515616dca565b816000526008602052604080600020616e418387615760565b905460039190911b1c6001600160a01b031660009081526020919091522054604081901c61ffff16908115159081616f83575b50616e83575b50600101616db4565b9097908086616ea1575b50616e9a90600192615753565b9790616e7a565b616eab8a87615760565b9054604051631b660d0b60e01b815260039290921b1c6001600160a01b03166004820152602081602481895afa60009181616f48575b50616eed575b50616e8d565b61ffff811680616efe575b50616ee7565b6101f49192935011600014616f3f575061ffff6101f45b166103e803916103e88311611d56576103e8616f36600194616e9a94615ad4565b04918193616ef8565b61ffff90616f15565b90916020823d8211616f7b575b81616f62602093836150b2565b81010312615c905750616f7490615ac5565b9038616ee1565b3d9150616f55565b426001600160401b0390911611905038616e74565b604051631b660d0b60e01b815260048101829052602081602481865afa879181616fd5575b50616fc9575b50616db1565b61ffff16955038616fc3565b9091506020813d60201161700d575b81616ff1602093836150b2565b810103126170095761700290615ac5565b9038616fbd565b8780fd5b3d9150616fe4565b604051633af2cac760e01b81526001600160a01b038316600482015290602090829060249082905afa60009181617053575b5015616d825791505090565b9091506020813d60201161707f575b8161706f602093836150b2565b8101031261048257519038617047565b3d9150617062565b8054600160201b600160601b03191660209290921b600160201b600160601b031691909117905556fecd25a284806e0931bbfbd59e48ca09094f95cc8a54899ac7cf670a7bc084e4c8fe3c33b66e28f14b3d890787766ee667031d474e01f41afd2282c6ddd242b134ec5cb6b9077be93ff2307b61c4b6793dd8a820336c6f61327ef42adf8592977a97bd20c77df683df83db0a97dc89f48199a8ab88197522acbc07667bd9cb815ba0bb1af1c90aa52ed052b92714ff0087008cc720049bf1af77cca2600b31e80c9f56690334c710be9812966692e10c040bde4927265518b422c82505f65961ec7866cd9bf5624adbb572bdf0ef2c6611719c1bd1dd881d077900477122585f518b5b16d04624687fcf0d0228f19993c9157c1ed07b41d8d430fd9100eb099fe86f31909d6110ef8da858cbb62b280e06f6073e5ef7c13784cbbd52d4d0a12f0a0320a6eadcaf07ad703766ce2aae1e5a2302fd7b9236ecdacdc6089d556ee6611b4e571958fba4ea5c92407500c44c03a913f7a3c4f5746fc318ba401831b4e5f4f1880c72d8dbafc9805eb1c4bcefcb30af90b0ae932e0f050c81b491125857a96fb0ea3366184fa9ef274bb2b523bb1410c5597f5b73e284bcc8d9c27caf81de4df86a0cfbc1ca19c1967d53b4f9d906c2f3e5f0b5637ff74d60111ad48d74fe29986656bd77a1f0da32c9315bed40455567f6060bea388c123d4bafff845ac4f6113bf43fb59dba21ffee106d9126a16fd7ef738a99e9f98f3366a7bcd62822d441acdd22f4ae7f00407a46293dd53140dc9fa6beeef35e22cb018b2643448f1a39279a10a884ddf0b6a95d0e46f341a5809f447de8f39f0c29e43a91427228074cc836ee3f9b71c5f19669ad560de5d34c8d7b0cfcd86301093fba4908ede426caaf9f537d800bdc663bd466690f26963dfd7bb0ed1ed5f323a945377dfca03d1a4a2c4366d3db0c7243a29eef9c5e849fe7328823e0b7288dab59d52310a2646970667358221220563cf84461524a73ef4d380a49023072be976d434a7195b12a18e08df994e1f564736f6c634300081e0033","opcodes":"PUSH1 0x80 CALLVALUE PUSH2 0x184 JUMPI PUSH1 0x1F PUSH2 0x753A CODESIZE DUP2 SWAP1 SUB SWAP2 DUP3 ADD PUSH1 0x1F NOT AND DUP4 ADD SWAP2 PUSH1 0x1 PUSH1 0x1 PUSH1 0x40 SHL SUB DUP4 GT DUP5 DUP5 LT OR PUSH2 0x189 JUMPI DUP1 DUP5 SWAP3 PUSH1 0x60 SWAP5 PUSH1 0x40 MSTORE DUP4 CODECOPY DUP2 ADD SUB SLT PUSH2 0x184 JUMPI PUSH2 0x47 DUP2 PUSH2 0x19F JUMP JUMPDEST SWAP1 PUSH2 0x60 PUSH1 0x40 PUSH2 0x59 PUSH1 0x20 DUP5 ADD PUSH2 0x19F JUMP JUMPDEST SWAP3 ADD PUSH2 0x19F JUMP JUMPDEST PUSH1 0xD DUP1 SLOAD PUSH28 0x1B580000000000015180000000000076A7000032001905DC00500028 PUSH1 0x1 PUSH1 0x1 PUSH1 0xE0 SHL SUB NOT SWAP1 SWAP2 AND OR SWAP1 SSTORE PUSH1 0x11 DUP1 SLOAD PUSH4 0xFFFFFFFF NOT SWAP1 DUP2 AND PUSH3 0x321C20 OR SWAP1 SWAP2 SSTORE PUSH1 0x17 DUP1 SLOAD SWAP1 SWAP2 AND PUSH3 0x6400C8 OR SWAP1 SSTORE PUSH1 0x1A DUP1 SLOAD PUSH1 0x1 PUSH1 0x1 PUSH1 0x58 SHL SUB NOT AND PUSH10 0x64000000000000005A00 OR SWAP1 SSTORE PUSH1 0x1D DUP1 SLOAD PUSH10 0x15E015181F400FA00064 PUSH1 0x1 PUSH1 0x1 PUSH1 0x50 SHL SUB NOT SWAP1 SWAP2 AND OR SWAP1 SSTORE SWAP2 PUSH1 0x1 PUSH1 0x1 PUSH1 0xA0 SHL SUB AND DUP1 ISZERO PUSH2 0x173 JUMPI PUSH1 0x0 DUP1 SLOAD PUSH1 0x1 PUSH1 0x1 PUSH1 0xA0 SHL SUB NOT AND SWAP2 SWAP1 SWAP2 OR SWAP1 SSTORE PUSH1 0x1 PUSH1 0x1 PUSH1 0xA0 SHL SUB AND DUP1 PUSH2 0x159 JUMPI JUMPDEST POP PUSH1 0x1 PUSH1 0x1 PUSH1 0xA0 SHL SUB AND DUP1 PUSH2 0x13F JUMPI JUMPDEST PUSH1 0x40 MLOAD PUSH2 0x7386 SWAP1 DUP2 PUSH2 0x1B4 DUP3 CODECOPY RETURN JUMPDEST PUSH1 0x2 DUP1 SLOAD PUSH1 0x1 PUSH1 0x1 PUSH1 0xA0 SHL SUB NOT AND SWAP2 SWAP1 SWAP2 OR SWAP1 SSTORE CODESIZE PUSH2 0x130 JUMP JUMPDEST PUSH1 0x1 DUP1 SLOAD PUSH1 0x1 PUSH1 0x1 PUSH1 0xA0 SHL SUB NOT AND SWAP2 SWAP1 SWAP2 OR SWAP1 SSTORE CODESIZE PUSH2 0x120 JUMP JUMPDEST PUSH4 0x409728B PUSH1 0xE4 SHL PUSH1 0x0 MSTORE PUSH1 0x4 PUSH1 0x0 REVERT JUMPDEST PUSH1 0x0 DUP1 REVERT JUMPDEST PUSH4 0x4E487B71 PUSH1 0xE0 SHL PUSH1 0x0 MSTORE PUSH1 0x41 PUSH1 0x4 MSTORE PUSH1 0x24 PUSH1 0x0 REVERT JUMPDEST MLOAD SWAP1 PUSH1 0x1 PUSH1 0x1 PUSH1 0xA0 SHL SUB DUP3 AND DUP3 SUB PUSH2 0x184 JUMPI JUMP INVALID PUSH1 0x80 DUP1 PUSH1 0x40 MSTORE PUSH1 0x4 CALLDATASIZE LT ISZERO PUSH2 0x13 JUMPI PUSH1 0x0 DUP1 REVERT JUMPDEST PUSH1 0x0 CALLDATALOAD PUSH1 0xE0 SHR SWAP1 DUP2 PUSH4 0x24CAEC7 EQ PUSH2 0x4F1B JUMPI POP DUP1 PUSH4 0x494DADA EQ PUSH2 0x4DE5 JUMPI DUP1 PUSH4 0xBA2D872 EQ PUSH2 0x4D9E JUMPI DUP1 PUSH4 0xC61E69C EQ PUSH2 0x4CE8 JUMPI DUP1 PUSH4 0xF39C940 EQ PUSH2 0x4CC5 JUMPI DUP1 PUSH4 0xF83A99C EQ PUSH2 0x4A64 JUMPI DUP1 PUSH4 0x1017817C EQ PUSH2 0x4920 JUMPI DUP1 PUSH4 0x103F8829 EQ PUSH2 0x488B JUMPI DUP1 PUSH4 0x1121834F EQ PUSH2 0x45B5 JUMPI DUP1 PUSH4 0x13E7C9D8 EQ PUSH2 0x4576 JUMPI DUP1 PUSH4 0x16C38B3C EQ PUSH2 0x44B1 JUMPI DUP1 PUSH4 0x1D997A6A EQ PUSH2 0x429D JUMPI DUP1 PUSH4 0x246683CE EQ PUSH2 0x4279 JUMPI DUP1 PUSH4 0x257076DD EQ PUSH2 0x424D JUMPI DUP1 PUSH4 0x27758B17 EQ PUSH2 0x420F JUMPI DUP1 PUSH4 0x27FF6223 EQ PUSH2 0x41F2 JUMPI DUP1 PUSH4 0x29C07CF9 EQ PUSH2 0x41D1 JUMPI DUP1 PUSH4 0x2B7FFC95 EQ PUSH2 0x41AF JUMPI DUP1 PUSH4 0x2C27750A EQ PUSH2 0x406E JUMPI DUP1 PUSH4 0x327D8BFC EQ PUSH2 0x3F2C JUMPI DUP1 PUSH4 0x362D9B48 EQ PUSH2 0x3EC7 JUMPI DUP1 PUSH4 0x38179754 EQ PUSH2 0x3E7A JUMPI DUP1 PUSH4 0x3909B9DE EQ PUSH2 0x3E5E JUMPI DUP1 PUSH4 0x3F4D10BE EQ PUSH2 0x3DA7 JUMPI DUP1 PUSH4 0x40B89270 EQ PUSH2 0x3D8B JUMPI DUP1 PUSH4 0x4162169F EQ PUSH2 0x3D62 JUMPI DUP1 PUSH4 0x45F5CC1F EQ PUSH2 0x3CFB JUMPI DUP1 PUSH4 0x460DA41B EQ PUSH2 0x3CD6 JUMPI DUP1 PUSH4 0x4A33FB72 EQ PUSH2 0x3CB2 JUMPI DUP1 PUSH4 0x4B9707C4 EQ PUSH2 0x3A3C JUMPI DUP1 PUSH4 0x4CBB2F22 EQ PUSH2 0x3A0F JUMPI DUP1 PUSH4 0x4CCF04CF EQ PUSH2 0x39EA JUMPI DUP1 PUSH4 0x4D4EFE8E EQ PUSH2 0x35BF JUMPI DUP1 PUSH4 0x4E3AC713 EQ PUSH2 0x3290 JUMPI DUP1 PUSH4 0x5037FC7D EQ PUSH2 0x31E3 JUMPI DUP1 PUSH4 0x51C131F5 EQ PUSH2 0x3027 JUMPI DUP1 PUSH4 0x52A67C5D EQ PUSH2 0x3002 JUMPI DUP1 PUSH4 0x53A42578 EQ PUSH2 0x2FDE JUMPI DUP1 PUSH4 0x558A7297 EQ PUSH2 0x2EF4 JUMPI DUP1 PUSH4 0x56397C35 EQ PUSH2 0x2ECB JUMPI DUP1 PUSH4 0x59F827AD EQ PUSH2 0x2E89 JUMPI DUP1 PUSH4 0x59F86611 EQ PUSH2 0x2CEC JUMPI DUP1 PUSH4 0x5ABFE2CF EQ PUSH2 0x289F JUMPI DUP1 PUSH4 0x5BED5604 EQ PUSH2 0x26F3 JUMPI DUP1 PUSH4 0x5C975ABB EQ PUSH2 0x26D0 JUMPI DUP1 PUSH4 0x5ED2ED9C EQ PUSH2 0x2676 JUMPI DUP1 PUSH4 0x62238E8A EQ PUSH2 0x256B JUMPI DUP1 PUSH4 0x66101D51 EQ PUSH2 0x2529 JUMPI DUP1 PUSH4 0x66BB7B78 EQ PUSH2 0x2506 JUMPI DUP1 PUSH4 0x691845E4 EQ PUSH2 0x2484 JUMPI DUP1 PUSH4 0x6A4B783D EQ PUSH2 0x2373 JUMPI DUP1 PUSH4 0x6B1CDAB1 EQ PUSH2 0x2260 JUMPI DUP1 PUSH4 0x6C010095 EQ PUSH2 0x21BD JUMPI DUP1 PUSH4 0x6DD6E80B EQ PUSH2 0x2194 JUMPI DUP1 PUSH4 0x72F557EE EQ PUSH2 0x216F JUMPI DUP1 PUSH4 0x75055C53 EQ PUSH2 0x214C JUMPI DUP1 PUSH4 0x7B1F12A8 EQ PUSH2 0x212F JUMPI DUP1 PUSH4 0x8101D300 EQ PUSH2 0x1F82 JUMPI DUP1 PUSH4 0x8437F7CC EQ PUSH2 0x1F59 JUMPI DUP1 PUSH4 0x8E20A258 EQ PUSH2 0x1F2C JUMPI DUP1 PUSH4 0x900ACD80 EQ PUSH2 0x1F0E JUMPI DUP1 PUSH4 0x94C30E1A EQ PUSH2 0x1ED0 JUMPI DUP1 PUSH4 0x99F68AC7 EQ PUSH2 0x1EAB JUMPI DUP1 PUSH4 0x9BEEB534 EQ PUSH2 0x1E01 JUMPI DUP1 PUSH4 0x9D30F8D0 EQ PUSH2 0x1DD3 JUMPI DUP1 PUSH4 0x9E5F4E9D EQ PUSH2 0x1DAE JUMPI DUP1 PUSH4 0xA1D51DCC EQ PUSH2 0x1D7D JUMPI DUP1 PUSH4 0xA5D4E063 EQ PUSH2 0x1C6A JUMPI DUP1 PUSH4 0xA61FF4E1 EQ PUSH2 0x1BF0 JUMPI DUP1 PUSH4 0xA8A89DC0 EQ PUSH2 0x197D JUMPI DUP1 PUSH4 0xAF216861 EQ PUSH2 0x15AE JUMPI DUP1 PUSH4 0xB25E4CF1 EQ PUSH2 0x158C JUMPI DUP1 PUSH4 0xB2746EED EQ PUSH2 0x1567 JUMPI DUP1 PUSH4 0xB291D011 EQ PUSH2 0x152D JUMPI DUP1 PUSH4 0xB3A5DF9E EQ PUSH2 0x150F JUMPI DUP1 PUSH4 0xB3CC5642 EQ PUSH2 0x14B3 JUMPI DUP1 PUSH4 0xB7BE2D2A EQ PUSH2 0x144C JUMPI DUP1 PUSH4 0xB7E2BF2F EQ PUSH2 0x140A JUMPI DUP1 PUSH4 0xBFDA4181 EQ PUSH2 0x1187 JUMPI DUP1 PUSH4 0xC1C44621 EQ PUSH2 0x1162 JUMPI DUP1 PUSH4 0xC4A2DB65 EQ PUSH2 0x104D JUMPI DUP1 PUSH4 0xD47875D0 EQ PUSH2 0x1023 JUMPI DUP1 PUSH4 0xD5B37A7F EQ PUSH2 0xFDB JUMPI DUP1 PUSH4 0xD74A5D00 EQ PUSH2 0xF03 JUMPI DUP1 PUSH4 0xDC99E341 EQ PUSH2 0xCC6 JUMPI DUP1 PUSH4 0xE0511FA0 EQ PUSH2 0xC9D JUMPI DUP1 PUSH4 0xE29D04A2 EQ PUSH2 0xBF5 JUMPI DUP1 PUSH4 0xE3BF0AFF EQ PUSH2 0xB7C JUMPI DUP1 PUSH4 0xE710C92B EQ PUSH2 0xB57 JUMPI DUP1 PUSH4 0xE7244BBD EQ PUSH2 0xAC3 JUMPI DUP1 PUSH4 0xE73A914C EQ PUSH2 0xA0F JUMPI DUP1 PUSH4 0xE7CCE5D6 EQ PUSH2 0x9EA JUMPI DUP1 PUSH4 0xEA0D5DCD EQ PUSH2 0x903 JUMPI DUP1 PUSH4 0xEDFCC437 EQ PUSH2 0x706 JUMPI DUP1 PUSH4 0xEED4EA8F EQ PUSH2 0x6C7 JUMPI DUP1 PUSH4 0xF07E96B3 EQ PUSH2 0x685 JUMPI DUP1 PUSH4 0xF6C97ED1 EQ PUSH2 0x5CC JUMPI DUP1 PUSH4 0xF9C4F4D9 EQ PUSH2 0x487 JUMPI PUSH4 0xFA41D56A EQ PUSH2 0x460 JUMPI PUSH1 0x0 DUP1 REVERT JUMPDEST CALLVALUE PUSH2 0x482 JUMPI PUSH1 0x0 CALLDATASIZE PUSH1 0x3 NOT ADD SLT PUSH2 0x482 JUMPI PUSH1 0x20 PUSH2 0xFFFF PUSH1 0x11 SLOAD AND PUSH1 0x40 MLOAD SWAP1 DUP2 MSTORE RETURN JUMPDEST PUSH1 0x0 DUP1 REVERT JUMPDEST CALLVALUE PUSH2 0x482 JUMPI PUSH1 0x0 CALLDATASIZE PUSH1 0x3 NOT ADD SLT PUSH2 0x482 JUMPI PUSH1 0xFF PUSH1 0x13 SLOAD AND PUSH2 0x5BC JUMPI CALLER PUSH1 0x0 MSTORE PUSH1 0xE PUSH1 0x20 MSTORE PUSH1 0xFF PUSH1 0x40 PUSH1 0x0 KECCAK256 SLOAD AND PUSH2 0x580 JUMPI PUSH2 0x4C1 CALLER PUSH2 0x6555 JUMP JUMPDEST PUSH2 0xFFFF DUP1 PUSH1 0x11 SLOAD AND SWAP2 AND LT PUSH2 0x545 JUMPI CALLER PUSH1 0x0 MSTORE PUSH1 0xE PUSH1 0x20 MSTORE PUSH1 0x40 PUSH1 0x0 KECCAK256 PUSH1 0x1 PUSH1 0xFF NOT DUP3 SLOAD AND OR SWAP1 SSTORE CALLER PUSH32 0x900045C2CD74602D2CC377FA4AB9861ABB55C4333C29AC3866C52D2BCB3F09A7 PUSH1 0x0 DUP1 LOG2 PUSH2 0x543 PUSH1 0x40 MLOAD PUSH2 0x520 PUSH1 0x40 DUP3 PUSH2 0x50B2 JUMP JUMPDEST PUSH1 0x11 DUP2 MSTORE PUSH17 0x1B595B9D1BDC97DC9959DA5CDD195C9959 PUSH1 0x7A SHL PUSH1 0x20 DUP3 ADD MSTORE PUSH2 0x6AF9 JUMP JUMPDEST STOP JUMPDEST PUSH1 0x40 MLOAD PUSH3 0x461BCD PUSH1 0xE5 SHL DUP2 MSTORE PUSH1 0x20 PUSH1 0x4 DUP3 ADD MSTORE PUSH1 0x13 PUSH1 0x24 DUP3 ADD MSTORE PUSH19 0x534545523A2073636F726520746F6F206C6F77 PUSH1 0x68 SHL PUSH1 0x44 DUP3 ADD MSTORE PUSH1 0x64 SWAP1 REVERT JUMPDEST PUSH1 0x40 MLOAD PUSH3 0x461BCD PUSH1 0xE5 SHL DUP2 MSTORE PUSH1 0x20 PUSH1 0x4 DUP3 ADD MSTORE PUSH1 0x14 PUSH1 0x24 DUP3 ADD MSTORE PUSH20 0x29A2A2A91D1030B63932B0B23C9036B2B73A37B9 PUSH1 0x61 SHL PUSH1 0x44 DUP3 ADD MSTORE PUSH1 0x64 SWAP1 REVERT JUMPDEST PUSH3 0x1E909D PUSH1 0xEA SHL PUSH1 0x0 MSTORE PUSH1 0x4 PUSH1 0x0 REVERT JUMPDEST CALLVALUE PUSH2 0x482 JUMPI PUSH1 0x20 CALLDATASIZE PUSH1 0x3 NOT ADD SLT PUSH2 0x482 JUMPI PUSH1 0x4 CALLDATALOAD PUSH1 0x1 PUSH1 0x1 PUSH1 0x40 SHL SUB DUP2 GT PUSH2 0x482 JUMPI PUSH2 0x5FC SWAP1 CALLDATASIZE SWAP1 PUSH1 0x4 ADD PUSH2 0x51BA JUMP JUMPDEST PUSH2 0x605 DUP2 PUSH2 0x65E9 JUMP JUMPDEST SWAP2 PUSH1 0x0 JUMPDEST DUP3 DUP2 LT PUSH2 0x62A JUMPI PUSH1 0x40 MLOAD PUSH1 0x20 DUP1 DUP3 MSTORE DUP2 SWAP1 PUSH2 0x626 SWAP1 DUP3 ADD DUP8 PUSH2 0x52B7 JUMP JUMPDEST SUB SWAP1 RETURN JUMPDEST PUSH1 0x1 SWAP1 PUSH1 0x1 PUSH1 0x1 PUSH1 0xA0 SHL SUB PUSH2 0x648 PUSH2 0x643 DUP4 DUP8 DUP8 PUSH2 0x572F JUMP JUMPDEST PUSH2 0x573F JUMP JUMPDEST AND PUSH1 0x0 MSTORE PUSH1 0x5 PUSH1 0x20 MSTORE PUSH2 0xFFFF PUSH1 0x40 PUSH1 0x0 KECCAK256 SLOAD AND DUP1 ISZERO PUSH1 0x0 EQ PUSH2 0x680 JUMPI POP PUSH2 0x1388 JUMPDEST PUSH2 0xFFFF PUSH2 0x676 DUP4 DUP9 PUSH2 0x57B2 JUMP JUMPDEST SWAP2 AND SWAP1 MSTORE ADD PUSH2 0x609 JUMP JUMPDEST PUSH2 0x669 JUMP JUMPDEST CALLVALUE PUSH2 0x482 JUMPI PUSH1 0x20 CALLDATASIZE PUSH1 0x3 NOT ADD SLT PUSH2 0x482 JUMPI PUSH1 0x1 PUSH1 0x1 PUSH1 0xA0 SHL SUB PUSH2 0x6A6 PUSH2 0x4F42 JUMP JUMPDEST AND PUSH1 0x0 MSTORE PUSH1 0x19 PUSH1 0x20 MSTORE PUSH1 0x20 PUSH1 0x1 DUP1 PUSH1 0x40 SHL SUB PUSH1 0x40 PUSH1 0x0 KECCAK256 SLOAD AND PUSH1 0x40 MLOAD SWAP1 DUP2 MSTORE RETURN JUMPDEST CALLVALUE PUSH2 0x482 JUMPI PUSH1 0x20 CALLDATASIZE PUSH1 0x3 NOT ADD SLT PUSH2 0x482 JUMPI PUSH1 0x1 PUSH1 0x1 PUSH1 0xA0 SHL SUB PUSH2 0x6E8 PUSH2 0x4F42 JUMP JUMPDEST AND PUSH1 0x0 MSTORE PUSH1 0xE PUSH1 0x20 MSTORE PUSH1 0x20 PUSH1 0xFF PUSH1 0x40 PUSH1 0x0 KECCAK256 SLOAD AND PUSH1 0x40 MLOAD SWAP1 ISZERO ISZERO DUP2 MSTORE RETURN JUMPDEST CALLVALUE PUSH2 0x482 JUMPI PUSH1 0x20 CALLDATASIZE PUSH1 0x3 NOT ADD SLT PUSH2 0x482 JUMPI PUSH2 0x71F PUSH2 0x4F42 JUMP JUMPDEST PUSH1 0xFF PUSH1 0x13 SLOAD AND PUSH2 0x5BC JUMPI PUSH1 0x1A SLOAD SWAP1 PUSH2 0x739 PUSH1 0xFF DUP4 AND PUSH2 0x5CA7 JUMP JUMPDEST PUSH1 0x1 PUSH1 0x1 PUSH1 0xA0 SHL SUB DUP2 AND PUSH1 0x0 DUP2 DUP2 MSTORE PUSH1 0x19 PUSH1 0x20 MSTORE PUSH1 0x40 SWAP1 KECCAK256 SLOAD PUSH1 0x1 PUSH1 0x1 PUSH1 0x40 SHL SUB AND SWAP3 SWAP1 DUP4 ISZERO PUSH2 0x8C1 JUMPI TIMESTAMP PUSH1 0x1 PUSH1 0x1 PUSH1 0x40 SHL SUB AND SWAP4 PUSH3 0x15180 SWAP1 PUSH2 0x77D SWAP1 DUP7 PUSH2 0x533D JUMP JUMPDEST PUSH1 0x1 PUSH1 0x1 PUSH1 0x40 SHL SUB SWAP1 DUP2 AND SWAP2 SWAP1 SWAP2 DIV SWAP3 PUSH1 0x8 SHR DUP2 AND SWAP1 DUP4 AND LT PUSH2 0x882 JUMPI PUSH2 0xFFFF SWAP2 PUSH2 0x7A7 DUP5 PUSH2 0x5394 JUMP JUMPDEST SWAP5 SWAP1 SWAP5 AND SWAP4 POP DUP4 PUSH2 0x7B4 JUMPI STOP JUMPDEST PUSH1 0x0 DUP4 DUP2 MSTORE PUSH1 0x5 PUSH1 0x20 SWAP1 DUP2 MSTORE PUSH1 0x40 DUP1 DUP4 KECCAK256 DUP1 SLOAD PUSH2 0xFFFF NOT DUP2 AND PUSH2 0xFFFF DUP8 DUP2 AND SWAP2 SWAP1 SWAP2 OR SWAP1 SWAP3 SSTORE PUSH1 0x19 SWAP1 SWAP4 MSTORE SWAP3 DUP2 SWAP1 KECCAK256 DUP1 SLOAD PUSH1 0x1 PUSH1 0x1 PUSH1 0x40 SHL SUB NOT AND PUSH1 0x1 PUSH1 0x1 PUSH1 0x40 SHL SUB SWAP1 SWAP11 AND SWAP10 SWAP1 SWAP10 OR SWAP1 SWAP9 SSTORE SWAP7 MLOAD PUSH2 0x543 SWAP8 PUSH1 0x0 DUP1 MLOAD PUSH1 0x20 PUSH2 0x71B1 DUP4 CODECOPY DUP2 MLOAD SWAP2 MSTORE SWAP5 SWAP2 SWAP4 DUP5 SWAP4 PUSH2 0x827 SWAP4 SWAP3 AND DUP5 PUSH2 0x5CEA JUMP JUMPDEST SUB SWAP1 LOG2 PUSH1 0x40 SWAP2 DUP3 MLOAD SWAP1 PUSH2 0x83A DUP5 DUP4 PUSH2 0x50B2 JUMP JUMPDEST PUSH1 0x13 DUP3 MSTORE PUSH19 0x1CD8DBDC9957D91958D85E57D85C1C1B1A5959 PUSH1 0x6A SHL PUSH1 0x20 DUP4 ADD MSTORE PUSH2 0x866 DUP5 MLOAD SWAP5 DUP6 PUSH2 0x50B2 JUMP JUMPDEST PUSH1 0xA DUP5 MSTORE PUSH10 0x696E6163746976697479 PUSH1 0xB0 SHL PUSH1 0x20 DUP6 ADD MSTORE PUSH2 0x66E1 JUMP JUMPDEST PUSH1 0x40 MLOAD PUSH3 0x461BCD PUSH1 0xE5 SHL DUP2 MSTORE PUSH1 0x20 PUSH1 0x4 DUP3 ADD MSTORE PUSH1 0x17 PUSH1 0x24 DUP3 ADD MSTORE PUSH23 0x534545523A206E6F742079657420646563617961626C65 PUSH1 0x48 SHL PUSH1 0x44 DUP3 ADD MSTORE PUSH1 0x64 SWAP1 REVERT JUMPDEST PUSH1 0x40 MLOAD PUSH3 0x461BCD PUSH1 0xE5 SHL DUP2 MSTORE PUSH1 0x20 PUSH1 0x4 DUP3 ADD MSTORE PUSH1 0x1A PUSH1 0x24 DUP3 ADD MSTORE PUSH26 0x534545523A206E6F20616374697669747920746F206465636179 PUSH1 0x30 SHL PUSH1 0x44 DUP3 ADD MSTORE PUSH1 0x64 SWAP1 REVERT JUMPDEST CALLVALUE PUSH2 0x482 JUMPI PUSH1 0x20 CALLDATASIZE PUSH1 0x3 NOT ADD SLT PUSH2 0x482 JUMPI PUSH1 0xE0 PUSH2 0x91E PUSH2 0x4F42 JUMP JUMPDEST PUSH2 0x927 DUP2 PUSH2 0x6555 JUMP JUMPDEST SWAP1 PUSH2 0x931 DUP2 PUSH2 0x5394 JUMP JUMPDEST POP PUSH1 0x1 PUSH1 0x1 PUSH1 0xA0 SHL SUB SWAP1 SWAP3 AND PUSH1 0x0 DUP2 DUP2 MSTORE PUSH1 0x19 PUSH1 0x20 SWAP1 DUP2 MSTORE PUSH1 0x40 DUP1 DUP4 KECCAK256 SLOAD PUSH1 0x18 DUP4 MSTORE DUP2 DUP5 KECCAK256 SLOAD PUSH1 0x1E SWAP1 SWAP4 MSTORE SWAP3 KECCAK256 PUSH1 0x2 ADD SLOAD SWAP4 SWAP5 PUSH1 0x1 PUSH1 0x1 PUSH1 0x40 SHL SUB SWAP5 DUP6 AND ISZERO ISZERO SWAP5 SWAP2 SWAP4 SWAP3 SWAP1 SWAP2 AND SWAP2 DUP5 PUSH2 0x9C9 JUMPI JUMPDEST PUSH1 0x0 MSTORE PUSH1 0x12 PUSH1 0x20 MSTORE PUSH2 0xFFFF PUSH1 0xFF PUSH1 0x40 PUSH1 0x0 KECCAK256 SLOAD AND SWAP6 DUP2 PUSH1 0x40 MLOAD SWAP9 AND DUP9 MSTORE AND PUSH1 0x20 DUP8 ADD MSTORE PUSH1 0x1 DUP1 PUSH1 0x40 SHL SUB AND PUSH1 0x40 DUP7 ADD MSTORE PUSH1 0x60 DUP6 ADD MSTORE PUSH1 0x80 DUP5 ADD MSTORE ISZERO ISZERO PUSH1 0xA0 DUP4 ADD MSTORE ISZERO ISZERO PUSH1 0xC0 DUP3 ADD MSTORE RETURN JUMPDEST DUP1 SWAP5 POP PUSH1 0x0 MSTORE PUSH1 0x1E PUSH1 0x20 MSTORE PUSH1 0xFF PUSH1 0x2 PUSH1 0x40 PUSH1 0x0 KECCAK256 ADD SLOAD PUSH1 0x40 SHR AND ISZERO SWAP4 PUSH2 0x97F JUMP JUMPDEST CALLVALUE PUSH2 0x482 JUMPI PUSH1 0x0 CALLDATASIZE PUSH1 0x3 NOT ADD SLT PUSH2 0x482 JUMPI PUSH1 0x20 PUSH2 0xFFFF PUSH1 0x11 SLOAD PUSH1 0x10 SHR AND PUSH1 0x40 MLOAD SWAP1 DUP2 MSTORE RETURN JUMPDEST CALLVALUE PUSH2 0x482 JUMPI PUSH1 0x20 CALLDATASIZE PUSH1 0x3 NOT ADD SLT PUSH2 0x482 JUMPI PUSH2 0xA28 PUSH2 0x4F42 JUMP JUMPDEST PUSH2 0xA30 PUSH2 0x661B JUMP JUMPDEST PUSH1 0x1 PUSH1 0x1 PUSH1 0xA0 SHL SUB AND DUP1 ISZERO PUSH2 0xAB2 JUMPI PUSH1 0x0 DUP1 SLOAD PUSH1 0x1 PUSH1 0x1 PUSH1 0xA0 SHL SUB NOT DUP2 AND DUP4 OR DUP3 SSTORE PUSH1 0x1 PUSH1 0x1 PUSH1 0xA0 SHL SUB AND SWAP1 PUSH32 0x43CEFE694890EDD168D1075C3464BAEA1D7EDCF0BC1A1648423EA65B5A2AC091 SWAP1 DUP1 LOG3 PUSH2 0x543 PUSH1 0x40 MLOAD PUSH2 0xA91 PUSH1 0x40 DUP3 PUSH2 0x50B2 JUMP JUMPDEST PUSH1 0xF DUP2 MSTORE PUSH15 0x19185BD7DD1C985B9CD9995C9C9959 PUSH1 0x8A SHL PUSH1 0x20 DUP3 ADD MSTORE PUSH2 0x6AF9 JUMP JUMPDEST PUSH4 0x409728B PUSH1 0xE4 SHL PUSH1 0x0 MSTORE PUSH1 0x4 PUSH1 0x0 REVERT JUMPDEST CALLVALUE PUSH2 0x482 JUMPI PUSH1 0x20 CALLDATASIZE PUSH1 0x3 NOT ADD SLT PUSH2 0x482 JUMPI PUSH1 0x1 PUSH1 0x1 PUSH1 0xA0 SHL SUB PUSH2 0xAE4 PUSH2 0x4F42 JUMP JUMPDEST AND PUSH1 0x0 MSTORE PUSH1 0x10 PUSH1 0x20 MSTORE PUSH1 0x40 PUSH1 0x0 KECCAK256 PUSH1 0x40 MLOAD SWAP1 DUP2 PUSH1 0x20 DUP3 SLOAD SWAP2 DUP3 DUP2 MSTORE ADD SWAP2 PUSH1 0x0 MSTORE PUSH1 0x20 PUSH1 0x0 KECCAK256 SWAP1 PUSH1 0x0 JUMPDEST DUP2 DUP2 LT PUSH2 0xB38 JUMPI PUSH2 0x626 DUP6 PUSH2 0xB24 DUP2 DUP8 SUB DUP3 PUSH2 0x50B2 JUMP JUMPDEST PUSH1 0x40 MLOAD SWAP2 DUP3 SWAP2 PUSH1 0x20 DUP4 MSTORE PUSH1 0x20 DUP4 ADD SWAP1 PUSH2 0x527A JUMP JUMPDEST DUP3 SLOAD PUSH1 0x1 PUSH1 0x1 PUSH1 0xA0 SHL SUB AND DUP5 MSTORE PUSH1 0x20 SWAP1 SWAP4 ADD SWAP3 PUSH1 0x1 SWAP3 DUP4 ADD SWAP3 ADD PUSH2 0xB0D JUMP JUMPDEST CALLVALUE PUSH2 0x482 JUMPI PUSH1 0x0 CALLDATASIZE PUSH1 0x3 NOT ADD SLT PUSH2 0x482 JUMPI PUSH1 0x20 PUSH2 0xFFFF PUSH1 0x1D SLOAD PUSH1 0x40 SHR AND PUSH1 0x40 MLOAD SWAP1 DUP2 MSTORE RETURN JUMPDEST CALLVALUE PUSH2 0x482 JUMPI PUSH1 0x40 CALLDATASIZE PUSH1 0x3 NOT ADD SLT PUSH2 0x482 JUMPI PUSH2 0xB95 PUSH2 0x4F42 JUMP JUMPDEST PUSH2 0xB9D PUSH2 0x4F58 JUMP JUMPDEST PUSH1 0x1 PUSH1 0x1 PUSH1 0xA0 SHL SUB SWAP2 DUP3 AND PUSH1 0x0 SWAP1 DUP2 MSTORE PUSH1 0x8 PUSH1 0x20 SWAP1 DUP2 MSTORE PUSH1 0x40 DUP1 DUP4 KECCAK256 SWAP5 SWAP1 SWAP4 AND DUP3 MSTORE SWAP3 DUP4 MSTORE DUP2 SWAP1 KECCAK256 SLOAD DUP2 MLOAD PUSH1 0x1 PUSH1 0x1 PUSH1 0x40 SHL SUB DUP1 DUP4 AND DUP3 MSTORE DUP3 DUP5 SHR PUSH2 0xFFFF AND SWAP5 DUP3 ADD SWAP5 SWAP1 SWAP5 MSTORE PUSH1 0x50 SWAP2 SWAP1 SWAP2 SHR SWAP1 SWAP3 AND SWAP1 DUP3 ADD MSTORE PUSH1 0x60 SWAP1 RETURN JUMPDEST CALLVALUE PUSH2 0x482 JUMPI PUSH1 0x20 CALLDATASIZE PUSH1 0x3 NOT ADD SLT PUSH2 0x482 JUMPI PUSH1 0x4 CALLDATALOAD PUSH1 0x1 PUSH1 0x1 PUSH1 0x40 SHL SUB DUP2 GT PUSH2 0x482 JUMPI PUSH2 0xC25 SWAP1 CALLDATASIZE SWAP1 PUSH1 0x4 ADD PUSH2 0x51BA JUMP JUMPDEST SWAP1 DUP2 ISZERO ISZERO DUP1 PUSH2 0xC92 JUMPI JUMPDEST PUSH2 0xC38 SWAP1 PUSH2 0x56E8 JUMP JUMPDEST PUSH2 0xC41 DUP3 PUSH2 0x65E9 JUMP JUMPDEST SWAP2 PUSH1 0x0 JUMPDEST DUP2 DUP2 LT PUSH2 0xC62 JUMPI PUSH1 0x40 MLOAD PUSH1 0x20 DUP1 DUP3 MSTORE DUP2 SWAP1 PUSH2 0x626 SWAP1 DUP3 ADD DUP8 PUSH2 0x52B7 JUMP JUMPDEST DUP1 PUSH2 0xC7B PUSH2 0xC76 PUSH2 0x643 PUSH1 0x1 SWAP5 DUP7 DUP9 PUSH2 0x572F JUMP JUMPDEST PUSH2 0x6555 JUMP JUMPDEST PUSH2 0xFFFF PUSH2 0xC88 DUP4 DUP9 PUSH2 0x57B2 JUMP JUMPDEST SWAP2 AND SWAP1 MSTORE ADD PUSH2 0xC45 JUMP JUMPDEST POP PUSH1 0x64 DUP3 GT ISZERO PUSH2 0xC2F JUMP JUMPDEST CALLVALUE PUSH2 0x482 JUMPI PUSH1 0x0 CALLDATASIZE PUSH1 0x3 NOT ADD SLT PUSH2 0x482 JUMPI PUSH1 0x3 SLOAD PUSH1 0x40 MLOAD PUSH1 0x1 PUSH1 0x1 PUSH1 0xA0 SHL SUB SWAP1 SWAP2 AND DUP2 MSTORE PUSH1 0x20 SWAP1 RETURN JUMPDEST CALLVALUE PUSH2 0x482 JUMPI PUSH1 0x20 CALLDATASIZE PUSH1 0x3 NOT ADD SLT PUSH2 0x482 JUMPI PUSH1 0x1 PUSH1 0x1 PUSH1 0xA0 SHL SUB PUSH2 0xCE7 PUSH2 0x4F42 JUMP JUMPDEST AND DUP1 PUSH1 0x0 MSTORE PUSH1 0x9 PUSH1 0x20 MSTORE PUSH1 0x40 PUSH1 0x0 KECCAK256 SWAP1 DUP2 SLOAD SWAP1 PUSH1 0x0 SWAP1 PUSH1 0x0 JUMPDEST DUP4 DUP2 LT PUSH2 0xE85 JUMPI POP PUSH2 0xD11 DUP3 PUSH2 0x579B JUMP JUMPDEST SWAP3 PUSH2 0xD1F PUSH1 0x40 MLOAD SWAP5 DUP6 PUSH2 0x50B2 JUMP JUMPDEST DUP3 DUP5 MSTORE PUSH1 0x1F NOT PUSH2 0xD2E DUP5 PUSH2 0x579B JUMP JUMPDEST ADD CALLDATASIZE PUSH1 0x20 DUP7 ADD CALLDATACOPY PUSH2 0xD3E DUP4 PUSH2 0x65E9 JUMP JUMPDEST SWAP2 PUSH2 0xD51 PUSH2 0xD4B DUP6 PUSH2 0x65E9 JUMP JUMPDEST SWAP5 PUSH2 0x65E9 JUMP JUMPDEST SWAP6 PUSH1 0x0 SWAP2 PUSH1 0x0 JUMPDEST DUP5 DUP2 LT PUSH2 0xDAD JUMPI PUSH2 0xD83 DUP9 PUSH2 0x626 DUP12 PUSH2 0xD9F DUP12 PUSH2 0xD91 DUP13 PUSH1 0x40 MLOAD SWAP8 DUP9 SWAP8 PUSH1 0x80 DUP10 MSTORE PUSH1 0x80 DUP10 ADD SWAP1 PUSH2 0x527A JUMP JUMPDEST SWAP1 DUP8 DUP3 SUB PUSH1 0x20 DUP10 ADD MSTORE PUSH2 0x52B7 JUMP JUMPDEST SWAP1 DUP6 DUP3 SUB PUSH1 0x40 DUP8 ADD MSTORE PUSH2 0x52EF JUMP JUMPDEST SWAP1 DUP4 DUP3 SUB PUSH1 0x60 DUP6 ADD MSTORE PUSH2 0x52EF JUMP JUMPDEST DUP2 PUSH1 0x0 MSTORE PUSH1 0x8 PUSH1 0x20 MSTORE PUSH1 0x40 DUP1 PUSH1 0x0 KECCAK256 PUSH2 0xDC6 DUP4 DUP7 PUSH2 0x5760 JUMP JUMPDEST SWAP1 SLOAD PUSH1 0x3 SWAP2 SWAP1 SWAP2 SHL SHR PUSH1 0x1 PUSH1 0x1 PUSH1 0xA0 SHL SUB AND PUSH1 0x0 SWAP1 DUP2 MSTORE PUSH1 0x20 SWAP2 SWAP1 SWAP2 MSTORE KECCAK256 SLOAD PUSH1 0x1 PUSH1 0x1 PUSH1 0x40 SHL SUB DUP2 AND TIMESTAMP DUP2 GT DUP1 PUSH2 0xE75 JUMPI JUMPDEST PUSH2 0xE07 JUMPI JUMPDEST POP POP PUSH1 0x1 ADD PUSH2 0xD58 JUMP JUMPDEST SWAP5 PUSH2 0xE6D SWAP2 DUP4 SWAP7 DUP12 PUSH2 0xE33 DUP5 PUSH2 0xE1F PUSH1 0x1 SWAP9 DUP12 PUSH2 0x5760 JUMP JUMPDEST DUP10 DUP1 PUSH1 0xA0 SHL SUB SWAP2 SLOAD SWAP1 PUSH1 0x3 SHL SHR AND SWAP3 PUSH2 0x57B2 JUMP JUMPDEST MSTORE PUSH2 0xFFFF DUP3 PUSH1 0x40 SHR AND PUSH2 0xE46 DUP5 DUP13 PUSH2 0x57B2 JUMP JUMPDEST MSTORE PUSH2 0xE51 DUP4 DUP13 PUSH2 0x57B2 JUMP JUMPDEST MSTORE DUP4 DUP1 PUSH1 0x40 SHL SUB SWAP1 PUSH1 0x50 SHR AND PUSH2 0xE67 DUP3 DUP14 PUSH2 0x57B2 JUMP JUMPDEST MSTORE PUSH2 0x564B JUMP JUMPDEST SWAP4 SWAP1 DUP11 PUSH2 0xDFD JUMP JUMPDEST POP PUSH2 0xFFFF DUP3 PUSH1 0x40 SHR AND ISZERO ISZERO PUSH2 0xDF8 JUMP JUMPDEST DUP2 PUSH1 0x0 MSTORE PUSH1 0x8 PUSH1 0x20 MSTORE PUSH1 0x40 DUP1 PUSH1 0x0 KECCAK256 PUSH2 0xE9E DUP4 DUP9 PUSH2 0x5760 JUMP JUMPDEST SWAP1 SLOAD PUSH1 0x3 SWAP2 SWAP1 SWAP2 SHL SHR PUSH1 0x1 PUSH1 0x1 PUSH1 0xA0 SHL SUB AND PUSH1 0x0 SWAP1 DUP2 MSTORE PUSH1 0x20 SWAP2 SWAP1 SWAP2 MSTORE KECCAK256 SLOAD TIMESTAMP PUSH1 0x1 PUSH1 0x1 PUSH1 0x40 SHL SUB DUP3 AND GT SWAP1 DUP2 PUSH2 0xEF2 JUMPI JUMPDEST POP PUSH2 0xEDE JUMPI JUMPDEST PUSH1 0x1 ADD PUSH2 0xD00 JUMP JUMPDEST SWAP2 PUSH2 0xEEA PUSH1 0x1 SWAP2 PUSH2 0x564B JUMP JUMPDEST SWAP3 SWAP1 POP PUSH2 0xED6 JUMP JUMPDEST PUSH2 0xFFFF SWAP2 POP PUSH1 0x40 SHR AND ISZERO ISZERO DUP7 PUSH2 0xED0 JUMP JUMPDEST CALLVALUE PUSH2 0x482 JUMPI PUSH1 0x40 CALLDATASIZE PUSH1 0x3 NOT ADD SLT PUSH2 0x482 JUMPI PUSH2 0xF1C PUSH2 0x4F42 JUMP JUMPDEST PUSH2 0xF24 PUSH2 0x4F58 JUMP JUMPDEST SWAP1 PUSH2 0xF2D PUSH2 0x661B JUMP JUMPDEST PUSH1 0x1 PUSH1 0x1 PUSH1 0xA0 SHL SUB AND SWAP1 DUP2 ISZERO DUP1 ISZERO PUSH2 0xFCA JUMPI JUMPDEST PUSH2 0xAB2 JUMPI PUSH1 0x1 DUP1 SLOAD PUSH1 0x1 PUSH1 0x1 PUSH1 0xA0 SHL SUB NOT SWAP1 DUP2 AND DUP5 OR SWAP1 SWAP2 SSTORE PUSH1 0x2 DUP1 SLOAD SWAP1 SWAP2 AND PUSH1 0x1 PUSH1 0x1 PUSH1 0xA0 SHL SUB SWAP1 SWAP3 AND SWAP2 DUP3 OR SWAP1 SSTORE PUSH1 0x40 MLOAD SWAP2 DUP3 MSTORE PUSH32 0x15E04FEE0C1335178E78E4DC6A8B0DCADE867D1AEA65418BF1200BC322AB7C21 SWAP2 PUSH1 0x20 SWAP2 SWAP1 PUSH32 0xBC62E69A31739E36D57D56991AC20E4E507A7EDFFF9070E6A11DF5A37B8B4E6F SWAP1 DUP4 SWAP1 LOG1 PUSH1 0x40 MLOAD SWAP1 DUP2 MSTORE LOG1 STOP JUMPDEST POP PUSH1 0x1 PUSH1 0x1 PUSH1 0xA0 SHL SUB DUP2 AND ISZERO PUSH2 0xF40 JUMP JUMPDEST CALLVALUE PUSH2 0x482 JUMPI PUSH1 0x40 CALLDATASIZE PUSH1 0x3 NOT ADD SLT PUSH2 0x482 JUMPI PUSH1 0x1 PUSH1 0x1 PUSH1 0xA0 SHL SUB PUSH2 0xFFC PUSH2 0x4F42 JUMP JUMPDEST AND PUSH1 0x0 MSTORE PUSH1 0x7 PUSH1 0x20 MSTORE PUSH1 0x40 PUSH1 0x0 KECCAK256 PUSH1 0x24 CALLDATALOAD PUSH1 0x0 MSTORE PUSH1 0x20 MSTORE PUSH1 0x20 PUSH1 0x40 PUSH1 0x0 KECCAK256 SLOAD PUSH1 0x40 MLOAD SWAP1 DUP2 MSTORE RETURN JUMPDEST CALLVALUE PUSH2 0x482 JUMPI PUSH1 0x20 CALLDATASIZE PUSH1 0x3 NOT ADD SLT PUSH2 0x482 JUMPI PUSH1 0x20 PUSH2 0x1041 PUSH2 0xC76 PUSH2 0x4F42 JUMP JUMPDEST PUSH2 0xFFFF PUSH1 0x40 MLOAD SWAP2 AND DUP2 MSTORE RETURN JUMPDEST CALLVALUE PUSH2 0x482 JUMPI PUSH1 0x40 CALLDATASIZE PUSH1 0x3 NOT ADD SLT PUSH2 0x482 JUMPI PUSH2 0x1066 PUSH2 0x4F9B JUMP JUMPDEST PUSH2 0x106E PUSH2 0x4FAC JUMP JUMPDEST PUSH2 0x1076 PUSH2 0x661B JUMP JUMPDEST PUSH2 0x1F4 PUSH2 0xFFFF DUP4 AND GT PUSH2 0x1121 JUMPI PUSH2 0xFFFF AND SWAP1 PUSH2 0x3E8 DUP3 GT PUSH2 0x10E1 JUMPI PUSH4 0xFFFF0000 PUSH1 0x17 SLOAD SWAP2 PUSH1 0x10 SHL AND SWAP1 PUSH4 0xFFFFFFFF NOT AND OR OR PUSH1 0x17 SSTORE PUSH2 0x543 PUSH1 0x40 MLOAD PUSH2 0x10BC PUSH1 0x40 DUP3 PUSH2 0x50B2 JUMP JUMPDEST PUSH1 0x13 DUP2 MSTORE PUSH19 0x1BDC195C985D1BDC97DB1A5B5A5D1CD7DCD95D PUSH1 0x6A SHL PUSH1 0x20 DUP3 ADD MSTORE PUSH2 0x6AF9 JUMP JUMPDEST PUSH1 0x40 MLOAD PUSH3 0x461BCD PUSH1 0xE5 SHL DUP2 MSTORE PUSH1 0x20 PUSH1 0x4 DUP3 ADD MSTORE PUSH1 0x18 PUSH1 0x24 DUP3 ADD MSTORE PUSH24 0xA68A8AA47440DAC2F040C8C2D2D8F240E8DEDE40D0D2CED PUSH1 0x43 SHL PUSH1 0x44 DUP3 ADD MSTORE PUSH1 0x64 SWAP1 REVERT JUMPDEST PUSH1 0x40 MLOAD PUSH3 0x461BCD PUSH1 0xE5 SHL DUP2 MSTORE PUSH1 0x20 PUSH1 0x4 DUP3 ADD MSTORE PUSH1 0x19 PUSH1 0x24 DUP3 ADD MSTORE PUSH25 0xA68A8AA47440DAC2F040E6D2DCCED8CA40E8DEDE40D0D2CED PUSH1 0x3B SHL PUSH1 0x44 DUP3 ADD MSTORE PUSH1 0x64 SWAP1 REVERT JUMPDEST CALLVALUE PUSH2 0x482 JUMPI PUSH1 0x0 CALLDATASIZE PUSH1 0x3 NOT ADD SLT PUSH2 0x482 JUMPI PUSH1 0x20 PUSH2 0xFFFF PUSH1 0xD SLOAD PUSH1 0xD0 SHR AND PUSH1 0x40 MLOAD SWAP1 DUP2 MSTORE RETURN JUMPDEST CALLVALUE PUSH2 0x482 JUMPI PUSH1 0x20 CALLDATASIZE PUSH1 0x3 NOT ADD SLT PUSH2 0x482 JUMPI PUSH2 0x11A0 PUSH2 0x4F42 JUMP JUMPDEST PUSH1 0xFF PUSH1 0x13 SLOAD AND PUSH2 0x5BC JUMPI CALLER PUSH1 0x0 MSTORE PUSH1 0xE PUSH1 0x20 MSTORE PUSH1 0xFF PUSH1 0x40 PUSH1 0x0 KECCAK256 SLOAD AND ISZERO PUSH2 0x13D2 JUMPI PUSH1 0x1 PUSH1 0x1 PUSH1 0xA0 SHL SUB DUP2 AND SWAP1 DUP2 ISZERO ISZERO DUP1 PUSH2 0x13C8 JUMPI JUMPDEST ISZERO PUSH2 0x138C JUMPI PUSH1 0x0 DUP3 DUP2 MSTORE PUSH1 0xF PUSH1 0x20 MSTORE PUSH1 0x40 SWAP1 KECCAK256 SLOAD PUSH1 0x1 PUSH1 0x1 PUSH1 0xA0 SHL SUB AND PUSH2 0x134D JUMPI CALLER PUSH1 0x0 MSTORE PUSH1 0x10 PUSH1 0x20 MSTORE PUSH1 0x40 PUSH1 0x0 KECCAK256 SLOAD PUSH1 0x11 SLOAD SWAP1 PUSH2 0xFFFF DUP3 PUSH1 0x10 SHR AND GT ISZERO PUSH2 0x1314 JUMPI PUSH2 0xFFFF DUP1 PUSH2 0x1224 CALLER PUSH2 0x6555 JUMP JUMPDEST SWAP3 AND SWAP2 AND LT PUSH2 0x12D2 JUMPI PUSH1 0x0 DUP3 DUP2 MSTORE PUSH1 0xF PUSH1 0x20 SWAP1 DUP2 MSTORE PUSH1 0x40 DUP1 DUP4 KECCAK256 DUP1 SLOAD PUSH1 0x1 PUSH1 0x1 PUSH1 0xA0 SHL SUB NOT AND CALLER SWAP1 DUP2 OR SWAP1 SWAP2 SSTORE DUP4 MSTORE PUSH1 0x10 SWAP1 SWAP2 MSTORE SWAP1 KECCAK256 PUSH2 0x543 SWAP3 SWAP1 PUSH2 0x126A SWAP1 DUP4 SWAP1 PUSH2 0x5778 JUMP JUMPDEST CALLER PUSH32 0x1BF74C66F4733E451868185FF432D08E19F3E4BC28FD5BCC2670180C6DA92E99 PUSH1 0x0 DUP1 LOG3 PUSH1 0x40 DUP1 MLOAD SWAP1 PUSH2 0x129F DUP2 DUP4 PUSH2 0x50B2 JUMP JUMPDEST PUSH1 0x10 DUP3 MSTORE PUSH16 0x1B595B9D195957DCDC1BDB9CDBDC9959 PUSH1 0x82 SHL PUSH1 0x20 DUP4 ADD MSTORE MLOAD SWAP2 PUSH2 0x12C9 PUSH1 0x20 DUP5 PUSH2 0x50B2 JUMP JUMPDEST PUSH1 0x0 DUP4 MSTORE PUSH2 0x6640 JUMP JUMPDEST PUSH1 0x40 MLOAD PUSH3 0x461BCD PUSH1 0xE5 SHL DUP2 MSTORE PUSH1 0x20 PUSH1 0x4 DUP3 ADD MSTORE PUSH1 0x1A PUSH1 0x24 DUP3 ADD MSTORE PUSH26 0x534545523A206D656E746F722073636F726520746F6F206C6F77 PUSH1 0x30 SHL PUSH1 0x44 DUP3 ADD MSTORE PUSH1 0x64 SWAP1 REVERT JUMPDEST PUSH1 0x40 MLOAD PUSH3 0x461BCD PUSH1 0xE5 SHL DUP2 MSTORE PUSH1 0x20 PUSH1 0x4 DUP3 ADD MSTORE PUSH1 0x11 PUSH1 0x24 DUP3 ADD MSTORE PUSH17 0x534545523A206D6178206D656E74656573 PUSH1 0x78 SHL PUSH1 0x44 DUP3 ADD MSTORE PUSH1 0x64 SWAP1 REVERT JUMPDEST PUSH1 0x40 MLOAD PUSH3 0x461BCD PUSH1 0xE5 SHL DUP2 MSTORE PUSH1 0x20 PUSH1 0x4 DUP3 ADD MSTORE PUSH1 0x17 PUSH1 0x24 DUP3 ADD MSTORE PUSH23 0x29A2A2A91D1036B2B73A32B2903430B99036B2B73A37B9 PUSH1 0x49 SHL PUSH1 0x44 DUP3 ADD MSTORE PUSH1 0x64 SWAP1 REVERT JUMPDEST PUSH1 0x40 MLOAD PUSH3 0x461BCD PUSH1 0xE5 SHL DUP2 MSTORE PUSH1 0x20 PUSH1 0x4 DUP3 ADD MSTORE PUSH1 0x14 PUSH1 0x24 DUP3 ADD MSTORE PUSH20 0x534545523A20696E76616C6964206D656E746565 PUSH1 0x60 SHL PUSH1 0x44 DUP3 ADD MSTORE PUSH1 0x64 SWAP1 REVERT JUMPDEST POP CALLER DUP3 EQ ISZERO PUSH2 0x11D5 JUMP JUMPDEST PUSH1 0x40 MLOAD PUSH3 0x461BCD PUSH1 0xE5 SHL DUP2 MSTORE PUSH1 0x20 PUSH1 0x4 DUP3 ADD MSTORE PUSH1 0x10 PUSH1 0x24 DUP3 ADD MSTORE PUSH16 0x29A2A2A91D103737BA1036B2B73A37B9 PUSH1 0x81 SHL PUSH1 0x44 DUP3 ADD MSTORE PUSH1 0x64 SWAP1 REVERT JUMPDEST CALLVALUE PUSH2 0x482 JUMPI PUSH1 0x20 CALLDATASIZE PUSH1 0x3 NOT ADD SLT PUSH2 0x482 JUMPI PUSH1 0x1 PUSH1 0x1 PUSH1 0xA0 SHL SUB PUSH2 0x142B PUSH2 0x4F42 JUMP JUMPDEST AND PUSH1 0x0 MSTORE PUSH1 0xC PUSH1 0x20 MSTORE PUSH1 0x20 PUSH1 0x1 DUP1 PUSH1 0x40 SHL SUB PUSH1 0x40 PUSH1 0x0 KECCAK256 SLOAD AND PUSH1 0x40 MLOAD SWAP1 DUP2 MSTORE RETURN JUMPDEST CALLVALUE PUSH2 0x482 JUMPI PUSH1 0x20 CALLDATASIZE PUSH1 0x3 NOT ADD SLT PUSH2 0x482 JUMPI PUSH2 0x1465 PUSH2 0x4F42 JUMP JUMPDEST PUSH2 0x146D PUSH2 0x661B JUMP JUMPDEST PUSH1 0x3 DUP1 SLOAD PUSH1 0x1 PUSH1 0x1 PUSH1 0xA0 SHL SUB NOT AND PUSH1 0x1 PUSH1 0x1 PUSH1 0xA0 SHL SUB SWAP3 SWAP1 SWAP3 AND SWAP2 DUP3 OR SWAP1 SSTORE PUSH32 0x77F7B83D6373C1AF6AE71265155348A0C6FEA12C006FEF945C4F8954E61087C2 PUSH1 0x0 DUP1 LOG2 STOP JUMPDEST CALLVALUE PUSH2 0x482 JUMPI PUSH1 0x40 CALLDATASIZE PUSH1 0x3 NOT ADD SLT PUSH2 0x482 JUMPI PUSH2 0x14CC PUSH2 0x4F42 JUMP JUMPDEST PUSH2 0x14D4 PUSH2 0x4F58 JUMP JUMPDEST PUSH1 0x1 PUSH1 0x1 PUSH1 0xA0 SHL SUB SWAP2 DUP3 AND PUSH1 0x0 SWAP1 DUP2 MSTORE PUSH1 0x14 PUSH1 0x20 SWAP1 DUP2 MSTORE PUSH1 0x40 DUP1 DUP4 KECCAK256 SWAP5 SWAP1 SWAP4 AND DUP3 MSTORE SWAP3 DUP4 MSTORE DUP2 SWAP1 KECCAK256 SLOAD SWAP1 MLOAD PUSH1 0x1 PUSH1 0x1 PUSH1 0x40 SHL SUB SWAP2 SWAP1 SWAP2 AND DUP2 MSTORE RETURN JUMPDEST CALLVALUE PUSH2 0x482 JUMPI PUSH1 0x0 CALLDATASIZE PUSH1 0x3 NOT ADD SLT PUSH2 0x482 JUMPI PUSH1 0x20 PUSH1 0x21 SLOAD PUSH1 0x40 MLOAD SWAP1 DUP2 MSTORE RETURN JUMPDEST CALLVALUE PUSH2 0x482 JUMPI PUSH1 0x20 CALLDATASIZE PUSH1 0x3 NOT ADD SLT PUSH2 0x482 JUMPI PUSH1 0x1 PUSH1 0x1 PUSH1 0xA0 SHL SUB PUSH2 0x154E PUSH2 0x4F42 JUMP JUMPDEST AND PUSH1 0x0 MSTORE PUSH1 0x1C PUSH1 0x20 MSTORE PUSH1 0x20 PUSH1 0x40 PUSH1 0x0 KECCAK256 SLOAD PUSH1 0x40 MLOAD SWAP1 DUP2 MSTORE RETURN JUMPDEST CALLVALUE PUSH2 0x482 JUMPI PUSH1 0x0 CALLDATASIZE PUSH1 0x3 NOT ADD SLT PUSH2 0x482 JUMPI PUSH1 0x20 PUSH2 0xFFFF PUSH1 0xD SLOAD PUSH1 0x40 SHR AND PUSH1 0x40 MLOAD SWAP1 DUP2 MSTORE RETURN JUMPDEST CALLVALUE PUSH2 0x482 JUMPI PUSH1 0x0 CALLDATASIZE PUSH1 0x3 NOT ADD SLT PUSH2 0x482 JUMPI PUSH1 0x20 PUSH2 0xFFFF PUSH1 0x17 SLOAD AND PUSH1 0x40 MLOAD SWAP1 DUP2 MSTORE RETURN JUMPDEST CALLVALUE PUSH2 0x482 JUMPI PUSH1 0x20 CALLDATASIZE PUSH1 0x3 NOT ADD SLT PUSH2 0x482 JUMPI PUSH1 0x4 CALLDATALOAD PUSH1 0x1 PUSH1 0x1 PUSH1 0x40 SHL SUB DUP2 GT PUSH2 0x482 JUMPI PUSH2 0x15DE SWAP1 CALLDATASIZE SWAP1 PUSH1 0x4 ADD PUSH2 0x4FDF JUMP JUMPDEST SWAP1 DUP2 ISZERO ISZERO DUP1 PUSH2 0x1971 JUMPI JUMPDEST PUSH2 0x15F1 SWAP1 PUSH2 0x551C JUMP JUMPDEST CALLER PUSH1 0x0 SWAP1 DUP2 MSTORE PUSH1 0x20 DUP1 MSTORE PUSH1 0x40 SWAP1 KECCAK256 PUSH1 0x2 ADD SLOAD PUSH1 0x1 PUSH1 0x1 PUSH1 0x40 SHL SUB DUP2 AND ISZERO SWAP1 DUP2 ISZERO PUSH2 0x1963 JUMPI JUMPDEST POP ISZERO PUSH2 0x1927 JUMPI PUSH1 0x40 MLOAD SWAP2 PUSH1 0xC0 DUP4 ADD PUSH1 0x1 PUSH1 0x1 PUSH1 0x40 SHL SUB DUP2 GT DUP5 DUP3 LT OR PUSH2 0x1892 JUMPI PUSH1 0x40 MSTORE CALLER DUP4 MSTORE PUSH2 0x1647 CALLDATASIZE DUP3 DUP5 PUSH2 0x5566 JUMP JUMPDEST PUSH1 0x20 DUP5 ADD SWAP1 DUP2 MSTORE PUSH1 0x40 DUP5 ADD SWAP4 PUSH1 0x1 DUP1 PUSH1 0x40 SHL SUB TIMESTAMP AND DUP6 MSTORE PUSH1 0x60 DUP2 ADD SWAP5 PUSH1 0x0 DUP7 MSTORE PUSH1 0x80 DUP3 ADD PUSH1 0x0 DUP2 MSTORE PUSH1 0x20 SWAP7 PUSH1 0x40 MLOAD SWAP5 PUSH2 0x1680 DUP10 DUP8 PUSH2 0x50B2 JUMP JUMPDEST PUSH1 0x0 DUP1 DUP8 MSTORE PUSH1 0xA0 DUP7 ADD SWAP7 DUP8 MSTORE CALLER DUP2 MSTORE DUP10 DUP1 MSTORE PUSH1 0x40 SWAP1 KECCAK256 SWAP5 MLOAD DUP6 SLOAD PUSH1 0x1 PUSH1 0x1 PUSH1 0xA0 SHL SUB NOT AND PUSH1 0x1 PUSH1 0x1 PUSH1 0xA0 SHL SUB SWAP2 SWAP1 SWAP2 AND OR DUP6 SSTORE MLOAD DUP1 MLOAD PUSH1 0x1 DUP7 ADD SWAP2 PUSH1 0x1 PUSH1 0x1 PUSH1 0x40 SHL SUB DUP3 GT PUSH2 0x1892 JUMPI PUSH2 0x16DD DUP3 PUSH2 0x16D7 DUP6 SLOAD PUSH2 0x505D JUMP JUMPDEST DUP6 PUSH2 0x55AC JUMP JUMPDEST DUP11 SWAP1 PUSH1 0x1F DUP4 GT PUSH1 0x1 EQ PUSH2 0x18B3 JUMPI SWAP3 PUSH2 0x170D DUP4 PUSH2 0x173E SWAP5 PUSH1 0x3 SWAP11 SWAP10 SWAP8 SWAP5 PUSH2 0x1747 SWAP10 SWAP8 PUSH1 0x0 SWAP3 PUSH2 0x18A8 JUMPI JUMPDEST POP POP PUSH2 0x55FE JUMP JUMPDEST SWAP1 SSTORE JUMPDEST SWAP3 MLOAD PUSH1 0x2 DUP7 ADD DUP1 SLOAD PUSH1 0x1 PUSH1 0x1 PUSH1 0x40 SHL SUB NOT AND PUSH1 0x1 PUSH1 0x1 PUSH1 0x40 SHL SUB SWAP3 SWAP1 SWAP3 AND SWAP2 SWAP1 SWAP2 OR DUP2 SSTORE SWAP3 MLOAD ISZERO ISZERO DUP4 PUSH2 0x5611 JUMP JUMPDEST MLOAD ISZERO ISZERO SWAP1 PUSH2 0x562E JUMP JUMPDEST SWAP2 MLOAD DUP1 MLOAD SWAP2 SWAP1 SWAP3 ADD SWAP2 PUSH1 0x1 PUSH1 0x1 PUSH1 0x40 SHL SUB DUP3 GT PUSH2 0x1892 JUMPI PUSH2 0x176C DUP3 PUSH2 0x16D7 DUP6 SLOAD PUSH2 0x505D JUMP JUMPDEST DUP6 SWAP1 PUSH1 0x1F DUP4 GT PUSH1 0x1 EQ PUSH2 0x1822 JUMPI DUP3 PUSH2 0x1810 SWAP6 SWAP4 PUSH2 0x543 SWAP9 SWAP8 SWAP6 SWAP4 PUSH2 0x1798 SWAP4 PUSH1 0x0 SWAP3 PUSH2 0x1817 JUMPI POP POP PUSH2 0x55FE JUMP JUMPDEST SWAP1 SSTORE JUMPDEST PUSH2 0x17A6 PUSH1 0x21 SLOAD PUSH2 0x564B JUMP JUMPDEST PUSH1 0x21 SSTORE PUSH1 0x40 MLOAD DUP5 DUP2 MSTORE PUSH32 0x847065330EDB730C1EC21EBBF03603A63880D25A2480C3B9852D0551AD80756D CALLER SWAP2 DUP1 PUSH2 0x17E0 DUP9 DUP3 ADD DUP7 DUP9 PUSH2 0x565A JUMP JUMPDEST SUB SWAP1 LOG2 PUSH12 0x185C1C19585B17D99A5B1959 PUSH1 0xA2 SHL PUSH1 0x40 MLOAD SWAP5 PUSH2 0x1802 PUSH1 0x40 DUP8 PUSH2 0x50B2 JUMP JUMPDEST PUSH1 0xC DUP7 MSTORE DUP6 ADD MSTORE CALLDATASIZE SWAP2 PUSH2 0x5566 JUMP JUMPDEST SWAP1 CALLER PUSH2 0x6640 JUMP JUMPDEST ADD MLOAD SWAP1 POP DUP10 DUP1 PUSH2 0x1706 JUMP JUMPDEST SWAP1 PUSH1 0x1F NOT DUP4 AND SWAP2 DUP5 PUSH1 0x0 MSTORE DUP8 PUSH1 0x0 KECCAK256 SWAP3 PUSH1 0x0 JUMPDEST DUP2 DUP2 LT PUSH2 0x187B JUMPI POP SWAP3 PUSH1 0x1 SWAP3 DUP6 SWAP3 PUSH2 0x1810 SWAP9 SWAP7 PUSH2 0x543 SWAP12 SWAP11 SWAP9 SWAP7 LT PUSH2 0x1862 JUMPI JUMPDEST POP POP POP DUP2 SHL ADD SWAP1 SSTORE PUSH2 0x179B JUMP JUMPDEST ADD MLOAD PUSH1 0x0 NOT PUSH1 0xF8 DUP5 PUSH1 0x3 SHL AND SHR NOT AND SWAP1 SSTORE DUP9 DUP1 DUP1 PUSH2 0x1855 JUMP JUMPDEST SWAP3 SWAP4 DUP10 PUSH1 0x1 DUP2 SWAP3 DUP8 DUP7 ADD MLOAD DUP2 SSTORE ADD SWAP6 ADD SWAP4 ADD PUSH2 0x1835 JUMP JUMPDEST PUSH4 0x4E487B71 PUSH1 0xE0 SHL PUSH1 0x0 MSTORE PUSH1 0x41 PUSH1 0x4 MSTORE PUSH1 0x24 PUSH1 0x0 REVERT JUMPDEST ADD MLOAD SWAP1 POP DUP16 DUP1 PUSH2 0x1706 JUMP JUMPDEST PUSH1 0x0 DUP5 DUP2 MSTORE DUP13 DUP2 KECCAK256 SWAP3 SWAP2 SWAP1 PUSH1 0x1F NOT DUP6 AND SWAP1 DUP15 JUMPDEST DUP3 DUP3 LT PUSH2 0x190F JUMPI POP POP SWAP4 PUSH1 0x3 SWAP10 SWAP9 SWAP7 SWAP4 PUSH2 0x1747 SWAP9 SWAP7 SWAP4 PUSH1 0x1 SWAP4 DUP4 PUSH2 0x173E SWAP9 LT PUSH2 0x18F7 JUMPI JUMPDEST POP POP POP DUP2 SHL ADD SWAP1 SSTORE PUSH2 0x1710 JUMP JUMPDEST ADD MLOAD PUSH1 0x0 NOT DUP4 DUP14 SHL PUSH1 0xF8 AND SHR NOT AND SWAP1 SSTORE DUP15 DUP1 DUP1 PUSH2 0x18EA JUMP JUMPDEST DUP1 PUSH1 0x1 DUP7 SWAP8 DUP3 SWAP5 SWAP8 DUP8 ADD MLOAD DUP2 SSTORE ADD SWAP7 ADD SWAP5 ADD SWAP1 PUSH2 0x18C6 JUMP JUMPDEST PUSH1 0x40 MLOAD PUSH3 0x461BCD PUSH1 0xE5 SHL DUP2 MSTORE PUSH1 0x20 PUSH1 0x4 DUP3 ADD MSTORE PUSH1 0x14 PUSH1 0x24 DUP3 ADD MSTORE PUSH20 0x534545523A2061707065616C2070656E64696E67 PUSH1 0x60 SHL PUSH1 0x44 DUP3 ADD MSTORE PUSH1 0x64 SWAP1 REVERT JUMPDEST PUSH1 0xFF SWAP2 POP PUSH1 0x40 SHR AND DUP4 PUSH2 0x1616 JUMP JUMPDEST POP PUSH2 0x1F4 DUP3 GT ISZERO PUSH2 0x15E8 JUMP JUMPDEST CALLVALUE PUSH2 0x482 JUMPI PUSH1 0x60 CALLDATASIZE PUSH1 0x3 NOT ADD SLT PUSH2 0x482 JUMPI PUSH2 0x1996 PUSH2 0x4F42 JUMP JUMPDEST PUSH2 0x199E PUSH2 0x4F8C JUMP JUMPDEST SWAP1 PUSH1 0x44 CALLDATALOAD PUSH1 0x1 PUSH1 0x1 PUSH1 0x40 SHL SUB DUP2 GT PUSH2 0x482 JUMPI PUSH2 0x19BE SWAP1 CALLDATASIZE SWAP1 PUSH1 0x4 ADD PUSH2 0x4FDF JUMP JUMPDEST SWAP1 PUSH2 0x19C7 PUSH2 0x661B JUMP JUMPDEST PUSH1 0x1 PUSH1 0x1 PUSH1 0xA0 SHL SUB DUP4 AND PUSH1 0x0 DUP2 DUP2 MSTORE PUSH1 0x20 DUP1 MSTORE PUSH1 0x40 SWAP1 KECCAK256 PUSH1 0x2 DUP2 ADD DUP1 SLOAD SWAP2 SWAP1 PUSH1 0x1 PUSH1 0x1 PUSH1 0x40 SHL SUB DUP4 AND ISZERO PUSH2 0x1BB9 JUMPI PUSH1 0xFF DUP4 PUSH1 0x40 SHR AND PUSH2 0x1B7C JUMPI PUSH1 0xFF PUSH1 0x40 SHL NOT SWAP1 SWAP3 AND PUSH1 0x1 PUSH1 0x40 SHL OR DUP3 SSTORE PUSH1 0x3 SWAP2 PUSH2 0x1A1F SWAP1 DUP9 SWAP1 PUSH2 0x562E JUMP JUMPDEST ADD SWAP5 PUSH1 0x1 PUSH1 0x1 PUSH1 0x40 SHL SUB DUP5 GT PUSH2 0x1892 JUMPI PUSH2 0x1A43 DUP5 PUSH2 0x1A3D DUP9 SLOAD PUSH2 0x505D JUMP JUMPDEST DUP9 PUSH2 0x55AC JUMP JUMPDEST PUSH1 0x0 SWAP6 PUSH1 0x1F DUP6 GT PUSH1 0x1 EQ PUSH2 0x1B01 JUMPI PUSH2 0x1ADE SWAP4 SWAP3 SWAP2 PUSH1 0x0 DUP1 MLOAD PUSH1 0x20 PUSH2 0x70F1 DUP4 CODECOPY DUP2 MLOAD SWAP2 MSTORE SWAP2 PUSH2 0x1A7E DUP8 DUP1 PUSH2 0x543 SWAP12 PUSH1 0x0 SWAP2 PUSH2 0x1AF6 JUMPI JUMPDEST POP PUSH2 0x55FE JUMP JUMPDEST SWAP1 SSTORE JUMPDEST PUSH1 0x21 SLOAD DUP1 PUSH2 0x1AE4 JUMPI JUMPDEST POP PUSH1 0x40 MLOAD SWAP1 ISZERO ISZERO DUP2 MSTORE PUSH1 0x40 PUSH1 0x20 DUP3 ADD MSTORE DUP1 PUSH2 0x1AA9 PUSH1 0x40 DUP3 ADD DUP9 DUP8 PUSH2 0x565A JUMP JUMPDEST SUB SWAP1 LOG2 PUSH1 0x40 MLOAD SWAP3 PUSH2 0x1ABB PUSH1 0x40 DUP6 PUSH2 0x50B2 JUMP JUMPDEST PUSH1 0xF DUP5 MSTORE PUSH15 0x185C1C19585B17DC995CDBDB1D9959 PUSH1 0x8A SHL PUSH1 0x20 DUP6 ADD MSTORE CALLDATASIZE SWAP2 PUSH2 0x5566 JUMP JUMPDEST SWAP2 PUSH2 0x6640 JUMP JUMPDEST PUSH2 0x1AED SWAP1 PUSH2 0x56DB JUMP JUMPDEST PUSH1 0x21 SSTORE DUP9 PUSH2 0x1A8A JUMP JUMPDEST SWAP1 POP DUP8 ADD CALLDATALOAD DUP13 PUSH2 0x1A78 JUMP JUMPDEST DUP1 DUP8 MSTORE PUSH1 0x20 DUP8 KECCAK256 SWAP7 PUSH1 0x1F NOT DUP7 AND DUP2 JUMPDEST DUP2 DUP2 LT PUSH2 0x1B64 JUMPI POP SWAP2 PUSH2 0x543 SWAP9 PUSH2 0x1ADE SWAP7 SWAP6 SWAP5 SWAP3 DUP9 PUSH1 0x0 DUP1 MLOAD PUSH1 0x20 PUSH2 0x70F1 DUP4 CODECOPY DUP2 MLOAD SWAP2 MSTORE SWAP6 LT PUSH2 0x1B4A JUMPI JUMPDEST POP POP PUSH1 0x1 DUP8 DUP2 SHL ADD SWAP1 SSTORE PUSH2 0x1A81 JUMP JUMPDEST DUP7 ADD CALLDATALOAD PUSH1 0x0 NOT PUSH1 0x3 DUP11 SWAP1 SHL PUSH1 0xF8 AND SHR NOT AND SWAP1 SSTORE DUP10 DUP1 PUSH2 0x1B3B JUMP JUMPDEST DUP7 DUP4 ADD CALLDATALOAD DUP11 SSTORE PUSH1 0x1 SWAP1 SWAP10 ADD SWAP9 PUSH1 0x20 SWAP3 DUP4 ADD SWAP3 ADD PUSH2 0x1B10 JUMP JUMPDEST PUSH1 0x40 MLOAD PUSH3 0x461BCD PUSH1 0xE5 SHL DUP2 MSTORE PUSH1 0x20 PUSH1 0x4 DUP3 ADD MSTORE PUSH1 0x15 PUSH1 0x24 DUP3 ADD MSTORE PUSH21 0x14D151548E88185C1C19585B081C995CDBDB1D9959 PUSH1 0x5A SHL PUSH1 0x44 DUP3 ADD MSTORE PUSH1 0x64 SWAP1 REVERT JUMPDEST PUSH1 0x40 MLOAD PUSH3 0x461BCD PUSH1 0xE5 SHL DUP2 MSTORE PUSH1 0x20 PUSH1 0x4 DUP3 ADD MSTORE PUSH1 0xF PUSH1 0x24 DUP3 ADD MSTORE PUSH15 0x14D151548E881B9BC8185C1C19585B PUSH1 0x8A SHL PUSH1 0x44 DUP3 ADD MSTORE PUSH1 0x64 SWAP1 REVERT JUMPDEST CALLVALUE PUSH2 0x482 JUMPI PUSH1 0x20 CALLDATASIZE PUSH1 0x3 NOT ADD SLT PUSH2 0x482 JUMPI PUSH1 0x4 CALLDATALOAD PUSH1 0x1B SLOAD DUP2 LT ISZERO PUSH2 0x482 JUMPI PUSH2 0x1C17 SWAP1 PUSH2 0x525B JUMP JUMPDEST POP DUP1 SLOAD PUSH1 0x1 PUSH1 0x1 PUSH1 0xA0 SHL SUB AND PUSH1 0x2 PUSH2 0x1C31 PUSH1 0x1 DUP5 ADD PUSH2 0x50D5 JUMP JUMPDEST SWAP3 ADD SLOAD PUSH1 0xFF PUSH2 0x1C52 PUSH1 0x40 MLOAD SWAP5 DUP6 SWAP5 DUP6 MSTORE PUSH1 0x80 PUSH1 0x20 DUP7 ADD MSTORE PUSH1 0x80 DUP6 ADD SWAP1 PUSH2 0x5179 JUMP JUMPDEST SWAP2 DUP2 DUP2 AND PUSH1 0x40 DUP6 ADD MSTORE PUSH1 0x8 SHR AND ISZERO ISZERO PUSH1 0x60 DUP4 ADD MSTORE SUB SWAP1 RETURN JUMPDEST CALLVALUE PUSH2 0x482 JUMPI PUSH1 0x20 CALLDATASIZE PUSH1 0x3 NOT ADD SLT PUSH2 0x482 JUMPI PUSH2 0x1C83 PUSH2 0x4F42 JUMP JUMPDEST PUSH1 0x1 PUSH1 0x1 PUSH1 0xA0 SHL SUB DUP2 AND PUSH1 0x0 DUP2 DUP2 MSTORE PUSH1 0x9 PUSH1 0x20 MSTORE PUSH1 0x40 DUP2 KECCAK256 DUP1 SLOAD SWAP2 SWAP3 SWAP2 SWAP1 DUP4 JUMPDEST DUP3 DUP2 LT PUSH2 0x1CE6 JUMPI POP POP POP PUSH2 0xFFFF PUSH2 0x1CBB PUSH1 0x60 SWAP5 PUSH2 0x6D6C JUMP JUMPDEST AND SWAP1 PUSH1 0x0 MSTORE PUSH1 0xB PUSH1 0x20 MSTORE PUSH2 0xFFFF PUSH1 0x40 PUSH1 0x0 KECCAK256 SLOAD AND SWAP1 PUSH2 0xFFFF PUSH1 0x40 MLOAD SWAP4 AND DUP4 MSTORE PUSH1 0x20 DUP4 ADD MSTORE PUSH1 0x40 DUP3 ADD MSTORE RETURN JUMPDEST DUP4 PUSH1 0x0 MSTORE PUSH1 0x8 PUSH1 0x20 MSTORE PUSH1 0x40 DUP1 PUSH1 0x0 KECCAK256 PUSH2 0x1CFF DUP4 DUP6 PUSH2 0x5760 JUMP JUMPDEST SWAP1 SLOAD PUSH1 0x3 SWAP2 SWAP1 SWAP2 SHL SHR PUSH1 0x1 PUSH1 0x1 PUSH1 0xA0 SHL SUB AND PUSH1 0x0 SWAP1 DUP2 MSTORE PUSH1 0x20 SWAP2 SWAP1 SWAP2 MSTORE KECCAK256 SLOAD TIMESTAMP PUSH1 0x1 PUSH1 0x1 PUSH1 0x40 SHL SUB DUP3 AND GT SWAP1 DUP2 PUSH2 0x1D6C JUMPI JUMPDEST POP PUSH2 0x1D3F JUMPI JUMPDEST PUSH1 0x1 ADD PUSH2 0x1CA3 JUMP JUMPDEST SWAP4 PUSH2 0xFFFF AND PUSH2 0xFFFF DUP2 EQ PUSH2 0x1D56 JUMPI PUSH1 0x1 ADD SWAP4 PUSH2 0x1D37 JUMP JUMPDEST PUSH4 0x4E487B71 PUSH1 0xE0 SHL PUSH1 0x0 MSTORE PUSH1 0x11 PUSH1 0x4 MSTORE PUSH1 0x24 PUSH1 0x0 REVERT JUMPDEST PUSH2 0xFFFF SWAP2 POP PUSH1 0x40 SHR AND ISZERO ISZERO DUP8 PUSH2 0x1D31 JUMP JUMPDEST CALLVALUE PUSH2 0x482 JUMPI PUSH1 0x40 CALLDATASIZE PUSH1 0x3 NOT ADD SLT PUSH2 0x482 JUMPI PUSH1 0x20 PUSH2 0x1DA4 PUSH2 0x1D9B PUSH2 0x4F42 JUMP JUMPDEST PUSH1 0x24 CALLDATALOAD SWAP1 PUSH2 0x64FC JUMP JUMPDEST PUSH1 0x40 MLOAD SWAP1 ISZERO ISZERO DUP2 MSTORE RETURN JUMPDEST CALLVALUE PUSH2 0x482 JUMPI PUSH1 0x0 CALLDATASIZE PUSH1 0x3 NOT ADD SLT PUSH2 0x482 JUMPI PUSH1 0x20 PUSH2 0xFFFF PUSH1 0x17 SLOAD PUSH1 0x10 SHR AND PUSH1 0x40 MLOAD SWAP1 DUP2 MSTORE RETURN JUMPDEST CALLVALUE PUSH2 0x482 JUMPI PUSH1 0x40 PUSH2 0x1DEC PUSH2 0x1DE6 CALLDATASIZE PUSH2 0x51EA JUMP JUMPDEST SWAP2 PUSH2 0x5D0F JUMP JUMPDEST DUP3 MLOAD SWAP2 ISZERO ISZERO DUP3 MSTORE PUSH1 0x1 DUP1 DUP5 SHL SUB AND PUSH1 0x20 DUP3 ADD MSTORE RETURN JUMPDEST CALLVALUE PUSH2 0x482 JUMPI PUSH1 0x20 CALLDATASIZE PUSH1 0x3 NOT ADD SLT PUSH2 0x482 JUMPI PUSH1 0xE0 PUSH2 0x1E1C PUSH2 0x4F42 JUMP JUMPDEST PUSH2 0xFFFF PUSH2 0x1E28 DUP3 PUSH2 0x6555 JUMP JUMPDEST PUSH1 0x11 SLOAD PUSH1 0x1 PUSH1 0x1 PUSH1 0xA0 SHL SUB SWAP4 DUP5 AND PUSH1 0x0 SWAP1 DUP2 MSTORE PUSH1 0xE PUSH1 0x20 SWAP1 DUP2 MSTORE PUSH1 0x40 DUP1 DUP4 KECCAK256 SLOAD PUSH1 0xF DUP4 MSTORE DUP2 DUP5 KECCAK256 SLOAD PUSH1 0x10 SWAP1 SWAP4 MSTORE SWAP3 KECCAK256 SLOAD PUSH1 0xFF SWAP1 SWAP3 AND ISZERO SWAP6 SWAP3 DUP6 AND SWAP3 DUP7 SWAP3 SWAP2 AND SWAP1 DUP6 AND DUP3 PUSH2 0x1E9D JUMPI JUMPDEST PUSH1 0x40 MLOAD SWAP7 ISZERO DUP8 MSTORE DUP2 PUSH1 0x20 DUP9 ADD MSTORE PUSH1 0x40 DUP8 ADD MSTORE ISZERO ISZERO PUSH1 0x60 DUP7 ADD MSTORE ISZERO ISZERO PUSH1 0x80 DUP6 ADD MSTORE PUSH1 0xA0 DUP5 ADD MSTORE AND PUSH1 0xC0 DUP3 ADD MSTORE RETURN JUMPDEST SWAP2 POP DUP3 DUP6 DUP6 AND LT ISZERO SWAP2 PUSH2 0x1E70 JUMP JUMPDEST CALLVALUE PUSH2 0x482 JUMPI PUSH1 0x0 CALLDATASIZE PUSH1 0x3 NOT ADD SLT PUSH2 0x482 JUMPI PUSH1 0x20 PUSH2 0xFFFF PUSH1 0xD SLOAD PUSH1 0x10 SHR AND PUSH1 0x40 MLOAD SWAP1 DUP2 MSTORE RETURN JUMPDEST CALLVALUE PUSH2 0x482 JUMPI PUSH1 0x20 CALLDATASIZE PUSH1 0x3 NOT ADD SLT PUSH2 0x482 JUMPI PUSH1 0x1 PUSH1 0x1 PUSH1 0xA0 SHL SUB PUSH2 0x1EF1 PUSH2 0x4F42 JUMP JUMPDEST AND PUSH1 0x0 MSTORE PUSH1 0xB PUSH1 0x20 MSTORE PUSH1 0x20 PUSH2 0xFFFF PUSH1 0x40 PUSH1 0x0 KECCAK256 SLOAD AND PUSH1 0x40 MLOAD SWAP1 DUP2 MSTORE RETURN JUMPDEST CALLVALUE PUSH2 0x482 JUMPI PUSH1 0x0 CALLDATASIZE PUSH1 0x3 NOT ADD SLT PUSH2 0x482 JUMPI PUSH1 0x20 PUSH1 0x1F SLOAD PUSH1 0x40 MLOAD SWAP1 DUP2 MSTORE RETURN JUMPDEST CALLVALUE PUSH2 0x482 JUMPI PUSH1 0x0 CALLDATASIZE PUSH1 0x3 NOT ADD SLT PUSH2 0x482 JUMPI PUSH1 0x1A SLOAD PUSH1 0x40 MLOAD PUSH1 0x8 SWAP2 SWAP1 SWAP2 SHR PUSH1 0x1 PUSH1 0x1 PUSH1 0x40 SHL SUB AND DUP2 MSTORE PUSH1 0x20 SWAP1 RETURN JUMPDEST CALLVALUE PUSH2 0x482 JUMPI PUSH1 0x0 CALLDATASIZE PUSH1 0x3 NOT ADD SLT PUSH2 0x482 JUMPI PUSH1 0x4 SLOAD PUSH1 0x40 MLOAD PUSH1 0x1 PUSH1 0x1 PUSH1 0xA0 SHL SUB SWAP1 SWAP2 AND DUP2 MSTORE PUSH1 0x20 SWAP1 RETURN JUMPDEST CALLVALUE PUSH2 0x482 JUMPI PUSH1 0x20 CALLDATASIZE PUSH1 0x3 NOT ADD SLT PUSH2 0x482 JUMPI PUSH1 0x4 CALLDATALOAD PUSH1 0x1 PUSH1 0x1 PUSH1 0x40 SHL SUB DUP2 GT PUSH2 0x482 JUMPI PUSH2 0x1FB2 SWAP1 CALLDATASIZE SWAP1 PUSH1 0x4 ADD PUSH2 0x51BA JUMP JUMPDEST SWAP1 PUSH1 0xFF PUSH1 0x13 SLOAD AND PUSH2 0x5BC JUMPI PUSH2 0x1FCB PUSH1 0xFF PUSH1 0x1A SLOAD AND PUSH2 0x5CA7 JUMP JUMPDEST DUP2 ISZERO ISZERO DUP1 PUSH2 0x2124 JUMPI JUMPDEST ISZERO PUSH2 0x20E9 JUMPI TIMESTAMP PUSH1 0x1 PUSH1 0x1 PUSH1 0x40 SHL SUB AND PUSH1 0x0 JUMPDEST DUP4 DUP2 LT PUSH2 0x1FEF JUMPI STOP JUMPDEST DUP1 PUSH2 0x2000 PUSH2 0x643 PUSH1 0x1 SWAP4 DUP8 DUP8 PUSH2 0x572F JUMP JUMPDEST DUP3 DUP1 PUSH1 0xA0 SHL SUB DUP2 AND SWAP1 DUP2 PUSH1 0x0 MSTORE PUSH1 0x19 PUSH1 0x20 MSTORE DUP4 DUP1 PUSH1 0x40 SHL SUB PUSH1 0x40 PUSH1 0x0 KECCAK256 SLOAD AND DUP1 ISZERO PUSH2 0x20E1 JUMPI PUSH2 0x2033 PUSH3 0x15180 SWAP2 DUP8 PUSH2 0x533D JUMP JUMPDEST DUP6 DUP1 PUSH1 0x40 SHL SUB AND DIV SWAP1 DUP5 DUP1 PUSH1 0x40 SHL SUB PUSH1 0x1A SLOAD PUSH1 0x8 SHR AND DUP6 DUP1 PUSH1 0x40 SHL SUB DUP4 AND LT PUSH2 0x20E1 JUMPI PUSH2 0x2062 PUSH2 0xFFFF SWAP2 PUSH2 0x5394 JUMP JUMPDEST SWAP1 POP SWAP2 SWAP1 SWAP2 AND PUSH2 0x2077 JUMPI JUMPDEST POP POP POP JUMPDEST ADD PUSH2 0x1FE6 JUMP JUMPDEST PUSH1 0x0 DUP4 DUP2 MSTORE PUSH1 0x5 PUSH1 0x20 SWAP1 DUP2 MSTORE PUSH1 0x40 DUP1 DUP4 KECCAK256 DUP1 SLOAD PUSH2 0xFFFF DUP7 DUP2 AND PUSH2 0xFFFF NOT DUP4 AND OR SWAP1 SWAP3 SSTORE PUSH1 0x19 SWAP1 SWAP4 MSTORE SWAP3 DUP2 SWAP1 KECCAK256 DUP1 SLOAD DUP10 DUP4 SHL DUP11 SWAP1 SUB DUP12 DUP2 AND SWAP1 NOT SWAP1 SWAP2 AND OR SWAP1 SSTORE MLOAD PUSH1 0x0 DUP1 MLOAD PUSH1 0x20 PUSH2 0x71B1 DUP4 CODECOPY DUP2 MLOAD SWAP2 MSTORE SWAP5 SWAP1 SWAP4 DUP5 SWAP4 PUSH2 0x20D6 SWAP4 AND DUP5 PUSH2 0x5CEA JUMP JUMPDEST SUB SWAP1 LOG2 DUP6 DUP1 DUP1 PUSH2 0x206D JUMP JUMPDEST POP POP POP PUSH2 0x2071 JUMP JUMPDEST PUSH1 0x40 MLOAD PUSH3 0x461BCD PUSH1 0xE5 SHL DUP2 MSTORE PUSH1 0x20 PUSH1 0x4 DUP3 ADD MSTORE PUSH1 0x13 PUSH1 0x24 DUP3 ADD MSTORE PUSH19 0xA68A8AA47440D2DCECC2D8D2C840C4C2E8C6D PUSH1 0x6B SHL PUSH1 0x44 DUP3 ADD MSTORE PUSH1 0x64 SWAP1 REVERT JUMPDEST POP PUSH1 0x32 DUP3 GT ISZERO PUSH2 0x1FD4 JUMP JUMPDEST CALLVALUE PUSH2 0x482 JUMPI PUSH1 0x0 CALLDATASIZE PUSH1 0x3 NOT ADD SLT PUSH2 0x482 JUMPI PUSH1 0x20 PUSH1 0x40 MLOAD PUSH2 0x1388 DUP2 MSTORE RETURN JUMPDEST CALLVALUE PUSH2 0x482 JUMPI PUSH1 0x20 CALLDATASIZE PUSH1 0x3 NOT ADD SLT PUSH2 0x482 JUMPI PUSH1 0x20 PUSH2 0x1041 PUSH2 0x216A PUSH2 0x4F42 JUMP JUMPDEST PUSH2 0x5AE7 JUMP JUMPDEST CALLVALUE PUSH2 0x482 JUMPI PUSH1 0x0 CALLDATASIZE PUSH1 0x3 NOT ADD SLT PUSH2 0x482 JUMPI PUSH1 0x20 PUSH2 0xFFFF PUSH1 0xD SLOAD PUSH1 0x30 SHR AND PUSH1 0x40 MLOAD SWAP1 DUP2 MSTORE RETURN JUMPDEST CALLVALUE PUSH2 0x482 JUMPI PUSH1 0x0 CALLDATASIZE PUSH1 0x3 NOT ADD SLT PUSH2 0x482 JUMPI PUSH1 0x2 SLOAD PUSH1 0x40 MLOAD PUSH1 0x1 PUSH1 0x1 PUSH1 0xA0 SHL SUB SWAP1 SWAP2 AND DUP2 MSTORE PUSH1 0x20 SWAP1 RETURN JUMPDEST CALLVALUE PUSH2 0x482 JUMPI PUSH1 0x20 CALLDATASIZE PUSH1 0x3 NOT ADD SLT PUSH2 0x482 JUMPI PUSH1 0x1 PUSH1 0x1 PUSH1 0xA0 SHL SUB PUSH2 0x21DE PUSH2 0x4F42 JUMP JUMPDEST AND DUP1 CALLER SUB PUSH2 0x2253 JUMPI JUMPDEST DUP1 PUSH1 0x0 MSTORE PUSH1 0xE PUSH1 0x20 MSTORE PUSH1 0x40 PUSH1 0x0 KECCAK256 PUSH1 0xFF NOT DUP2 SLOAD AND SWAP1 SSTORE PUSH32 0x5808667FAB0ACF73544191FCA46E124794DCC62E60B174AC3F5C88B7B5299425 PUSH1 0x0 DUP1 LOG2 PUSH2 0x543 PUSH1 0x40 MLOAD PUSH2 0x2233 PUSH1 0x40 DUP3 PUSH2 0x50B2 JUMP JUMPDEST PUSH1 0xE DUP2 MSTORE PUSH14 0x1B595B9D1BDC97DC995D9BDAD959 PUSH1 0x92 SHL PUSH1 0x20 DUP3 ADD MSTORE PUSH2 0x6AF9 JUMP JUMPDEST PUSH2 0x225B PUSH2 0x661B JUMP JUMPDEST PUSH2 0x21E7 JUMP JUMPDEST CALLVALUE PUSH2 0x482 JUMPI PUSH1 0x40 CALLDATASIZE PUSH1 0x3 NOT ADD SLT PUSH2 0x482 JUMPI PUSH1 0x4 CALLDATALOAD PUSH1 0xFF DUP2 AND DUP1 SWAP2 SUB PUSH2 0x482 JUMPI PUSH1 0x24 CALLDATALOAD PUSH1 0xFF DUP2 AND SWAP2 DUP3 DUP3 SUB PUSH2 0x482 JUMPI PUSH2 0x2296 PUSH2 0x661B JUMP JUMPDEST DUP3 DUP2 ADD PUSH1 0xFF DUP2 GT PUSH2 0x1D56 JUMPI PUSH1 0xFF PUSH1 0x64 SWAP2 AND SUB PUSH2 0x232E JUMPI PUSH32 0xDC0C1A85C25B1A7535E6884D4FFC9FC836D9897F70E1A7F1C36C97EEF3BCDF9C SWAP3 PUSH1 0x40 SWAP3 DUP3 PUSH2 0xFF00 PUSH1 0x1D SLOAD SWAP3 PUSH1 0x8 SHL AND SWAP2 PUSH2 0xFFFF NOT AND OR OR PUSH1 0x1D SSTORE DUP3 MLOAD SWAP2 DUP3 MSTORE PUSH1 0x20 DUP3 ADD MSTORE LOG1 PUSH2 0x543 PUSH1 0x40 MLOAD PUSH2 0x2304 PUSH1 0x40 DUP3 PUSH2 0x50B2 JUMP JUMPDEST PUSH1 0x18 DUP2 MSTORE PUSH24 0x191958D95B9D1C985B1A5E985D1A5BDB97DD5C19185D1959 PUSH1 0x42 SHL PUSH1 0x20 DUP3 ADD MSTORE PUSH2 0x6AF9 JUMP JUMPDEST PUSH1 0x40 MLOAD PUSH3 0x461BCD PUSH1 0xE5 SHL DUP2 MSTORE PUSH1 0x20 PUSH1 0x4 DUP3 ADD MSTORE PUSH1 0x1D PUSH1 0x24 DUP3 ADD MSTORE PUSH32 0x534545523A2077656967687473206D7573742073756D20746F20313030000000 PUSH1 0x44 DUP3 ADD MSTORE PUSH1 0x64 SWAP1 REVERT JUMPDEST CALLVALUE PUSH2 0x482 JUMPI PUSH1 0x20 CALLDATASIZE PUSH1 0x3 NOT ADD SLT PUSH2 0x482 JUMPI PUSH1 0xFF PUSH2 0x2391 PUSH2 0xC76 PUSH2 0x4F42 JUMP JUMPDEST PUSH1 0x1D SLOAD PUSH2 0xFFFF SWAP2 DUP3 AND SWAP2 PUSH1 0x10 DUP3 SWAP1 SHR AND DUP3 GT PUSH2 0x240D JUMPI PUSH1 0x0 SWAP2 PUSH2 0xFFFF PUSH2 0x23EF PUSH1 0x40 MLOAD PUSH2 0x23BE PUSH1 0x40 DUP3 PUSH2 0x50B2 JUMP JUMPDEST PUSH1 0x9 DUP2 MSTORE PUSH9 0x131BDDC8151C9D5CDD PUSH1 0xBA SHL PUSH1 0x20 DUP3 ADD MSTORE JUMPDEST PUSH1 0x40 MLOAD SWAP7 DUP8 SWAP7 AND DUP7 MSTORE PUSH1 0x80 PUSH1 0x20 DUP8 ADD MSTORE PUSH1 0x80 DUP7 ADD SWAP1 PUSH2 0x5179 JUMP JUMPDEST SWAP3 DUP2 DUP2 PUSH1 0x30 SHR AND DUP4 LT ISZERO PUSH1 0x40 DUP7 ADD MSTORE PUSH1 0x40 SHR AND GT ISZERO PUSH1 0x60 DUP4 ADD MSTORE SUB SWAP1 RETURN JUMPDEST PUSH1 0x20 DUP2 SWAP1 SHR PUSH2 0xFFFF AND DUP3 LT PUSH2 0x244F JUMPI PUSH1 0x2 SWAP2 PUSH2 0xFFFF PUSH2 0x23EF PUSH1 0x40 MLOAD PUSH2 0x2433 PUSH1 0x40 DUP3 PUSH2 0x50B2 JUMP JUMPDEST PUSH1 0xA DUP2 MSTORE PUSH10 0x121A59DA08151C9D5CDD PUSH1 0xB2 SHL PUSH1 0x20 DUP3 ADD MSTORE PUSH2 0x23D5 JUMP JUMPDEST PUSH1 0x1 SWAP2 PUSH2 0xFFFF PUSH2 0x23EF PUSH1 0x40 MLOAD PUSH2 0x2466 PUSH1 0x40 DUP3 PUSH2 0x50B2 JUMP JUMPDEST PUSH1 0xC DUP2 MSTORE PUSH12 0x1359591A5D5B48151C9D5CDD PUSH1 0xA2 SHL PUSH1 0x20 DUP3 ADD MSTORE PUSH2 0x23D5 JUMP JUMPDEST CALLVALUE PUSH2 0x482 JUMPI PUSH1 0x40 CALLDATASIZE PUSH1 0x3 NOT ADD SLT PUSH2 0x482 JUMPI PUSH2 0x249D PUSH2 0x4F42 JUMP JUMPDEST PUSH1 0x1 PUSH1 0x1 PUSH1 0xA0 SHL SUB AND PUSH1 0x0 SWAP1 DUP2 MSTORE PUSH1 0x18 PUSH1 0x20 MSTORE PUSH1 0x40 SWAP1 KECCAK256 DUP1 SLOAD PUSH1 0x24 CALLDATALOAD SWAP2 SWAP1 DUP3 LT ISZERO PUSH2 0x482 JUMPI PUSH1 0x80 SWAP2 PUSH2 0x24CE SWAP2 PUSH2 0x5229 JUMP JUMPDEST POP PUSH1 0x1 DUP2 SLOAD SWAP2 ADD SLOAD PUSH1 0x40 MLOAD SWAP2 PUSH2 0xFFFF DUP2 AND DUP4 MSTORE PUSH2 0xFFFF DUP2 PUSH1 0x10 SHR AND PUSH1 0x20 DUP5 ADD MSTORE PUSH1 0x1 DUP1 PUSH1 0x40 SHL SUB SWAP1 PUSH1 0x20 SHR AND PUSH1 0x40 DUP4 ADD MSTORE PUSH1 0x60 DUP3 ADD MSTORE RETURN JUMPDEST CALLVALUE PUSH2 0x482 JUMPI PUSH1 0x20 CALLDATASIZE PUSH1 0x3 NOT ADD SLT PUSH2 0x482 JUMPI PUSH1 0x20 PUSH2 0x1041 PUSH2 0x2524 PUSH2 0x4F42 JUMP JUMPDEST PUSH2 0x57C6 JUMP JUMPDEST CALLVALUE PUSH2 0x482 JUMPI PUSH1 0x20 CALLDATASIZE PUSH1 0x3 NOT ADD SLT PUSH2 0x482 JUMPI PUSH1 0x1 PUSH1 0x1 PUSH1 0xA0 SHL SUB PUSH2 0x254A PUSH2 0x4F42 JUMP JUMPDEST AND PUSH1 0x0 MSTORE PUSH1 0x16 PUSH1 0x20 MSTORE PUSH1 0x20 PUSH1 0x1 DUP1 PUSH1 0x40 SHL SUB PUSH1 0x40 PUSH1 0x0 KECCAK256 SLOAD AND PUSH1 0x40 MLOAD SWAP1 DUP2 MSTORE RETURN JUMPDEST CALLVALUE PUSH2 0x482 JUMPI PUSH1 0x20 CALLDATASIZE PUSH1 0x3 NOT ADD SLT PUSH2 0x482 JUMPI PUSH2 0x2584 PUSH2 0x4F42 JUMP JUMPDEST PUSH2 0x258C PUSH2 0x661B JUMP JUMPDEST PUSH1 0x1 PUSH1 0x1 PUSH1 0xA0 SHL SUB AND PUSH1 0x0 DUP2 DUP2 MSTORE PUSH1 0x1C PUSH1 0x20 MSTORE PUSH1 0x40 SWAP1 KECCAK256 SLOAD DUP1 ISZERO PUSH2 0x2638 JUMPI PUSH1 0x0 NOT DUP2 ADD SWAP1 DUP2 GT PUSH2 0x1D56 JUMPI PUSH2 0x25C1 PUSH1 0x2 SWAP2 PUSH2 0x525B JUMP JUMPDEST POP ADD PUSH2 0xFF00 NOT DUP2 SLOAD AND SWAP1 SSTORE DUP1 PUSH1 0x0 MSTORE PUSH1 0x1C PUSH1 0x20 MSTORE PUSH1 0x0 PUSH1 0x40 DUP2 KECCAK256 SSTORE PUSH32 0x826628D8ED5B5660F5DCBAB7A54B068DEC5E76BBBE84185612D70605652B3A01 PUSH1 0x0 DUP1 LOG2 PUSH2 0x543 PUSH1 0x40 MLOAD PUSH2 0x2612 PUSH1 0x40 DUP3 PUSH2 0x50B2 JUMP JUMPDEST PUSH1 0x14 DUP2 MSTORE PUSH20 0x1CD8DBDC9957DCDBDD5C98D957DC995B5BDD9959 PUSH1 0x62 SHL PUSH1 0x20 DUP3 ADD MSTORE PUSH2 0x6AF9 JUMP JUMPDEST PUSH1 0x40 MLOAD PUSH3 0x461BCD PUSH1 0xE5 SHL DUP2 MSTORE PUSH1 0x20 PUSH1 0x4 DUP3 ADD MSTORE PUSH1 0x16 PUSH1 0x24 DUP3 ADD MSTORE PUSH22 0x14D151548E881CDBDD5C98D9481B9BDD08199BDD5B99 PUSH1 0x52 SHL PUSH1 0x44 DUP3 ADD MSTORE PUSH1 0x64 SWAP1 REVERT JUMPDEST CALLVALUE PUSH2 0x482 JUMPI PUSH1 0x40 CALLDATASIZE PUSH1 0x3 NOT ADD SLT PUSH2 0x482 JUMPI PUSH2 0x268F PUSH2 0x4F42 JUMP JUMPDEST PUSH2 0x2697 PUSH2 0x4F58 JUMP JUMPDEST SWAP1 PUSH1 0x1 DUP1 PUSH1 0xA0 SHL SUB AND PUSH1 0x0 MSTORE PUSH1 0x15 PUSH1 0x20 MSTORE PUSH1 0x40 PUSH1 0x0 KECCAK256 SWAP1 PUSH1 0x1 DUP1 PUSH1 0xA0 SHL SUB AND PUSH1 0x0 MSTORE PUSH1 0x20 MSTORE PUSH1 0x20 PUSH2 0xFFFF PUSH1 0x40 PUSH1 0x0 KECCAK256 SLOAD AND PUSH1 0x40 MLOAD SWAP1 DUP2 MSTORE RETURN JUMPDEST CALLVALUE PUSH2 0x482 JUMPI PUSH1 0x0 CALLDATASIZE PUSH1 0x3 NOT ADD SLT PUSH2 0x482 JUMPI PUSH1 0x20 PUSH1 0xFF PUSH1 0x13 SLOAD AND PUSH1 0x40 MLOAD SWAP1 ISZERO ISZERO DUP2 MSTORE RETURN JUMPDEST CALLVALUE PUSH2 0x482 JUMPI PUSH1 0x20 CALLDATASIZE PUSH1 0x3 NOT ADD SLT PUSH2 0x482 JUMPI PUSH1 0x1 PUSH1 0x1 PUSH1 0xA0 SHL SUB PUSH2 0x2714 PUSH2 0x4F42 JUMP JUMPDEST AND PUSH1 0x0 MSTORE PUSH1 0x18 PUSH1 0x20 MSTORE PUSH1 0x40 PUSH1 0x0 KECCAK256 DUP1 SLOAD SWAP1 PUSH1 0xA DUP3 GT PUSH1 0x0 EQ PUSH2 0x2899 JUMPI PUSH1 0xA JUMPDEST PUSH2 0x273C DUP2 PUSH2 0x579B JUMP JUMPDEST SWAP2 PUSH2 0x274A PUSH1 0x40 MLOAD SWAP4 DUP5 PUSH2 0x50B2 JUMP JUMPDEST DUP2 DUP4 MSTORE PUSH1 0x1F NOT PUSH2 0x2759 DUP4 PUSH2 0x579B JUMP JUMPDEST ADD PUSH1 0x0 JUMPDEST DUP2 DUP2 LT PUSH2 0x2866 JUMPI POP POP PUSH1 0x0 JUMPDEST DUP3 DUP2 LT PUSH2 0x27EE JUMPI DUP4 DUP6 PUSH1 0x40 MLOAD SWAP2 DUP3 SWAP2 PUSH1 0x40 DUP4 ADD SWAP1 DUP4 MSTORE PUSH1 0x40 PUSH1 0x20 DUP5 ADD MSTORE DUP2 MLOAD DUP1 SWAP2 MSTORE PUSH1 0x20 PUSH1 0x60 DUP5 ADD SWAP3 ADD SWAP1 PUSH1 0x0 JUMPDEST DUP2 DUP2 LT PUSH2 0x27A5 JUMPI POP POP POP SUB SWAP1 RETURN JUMPDEST SWAP2 SWAP4 POP SWAP2 PUSH1 0x20 PUSH1 0x80 PUSH1 0x1 SWAP3 PUSH1 0x60 DUP8 MLOAD PUSH2 0xFFFF DUP2 MLOAD AND DUP4 MSTORE PUSH2 0xFFFF DUP6 DUP3 ADD MLOAD AND DUP6 DUP5 ADD MSTORE DUP6 DUP1 PUSH1 0x40 SHL SUB PUSH1 0x40 DUP3 ADD MLOAD AND PUSH1 0x40 DUP5 ADD MSTORE ADD MLOAD PUSH1 0x60 DUP3 ADD MSTORE ADD SWAP5 ADD SWAP2 ADD SWAP2 DUP5 SWAP4 SWAP3 PUSH2 0x2797 JUMP JUMPDEST DUP3 DUP6 SUB SWAP1 DUP6 DUP3 GT PUSH2 0x1D56 JUMPI PUSH2 0x280E PUSH2 0x2808 DUP3 PUSH1 0x1 SWAP5 PUSH2 0x5753 JUMP JUMPDEST DUP5 PUSH2 0x5229 JUMP JUMPDEST POP DUP3 PUSH1 0x40 MLOAD SWAP2 PUSH2 0x281D DUP4 PUSH2 0x5097 JUMP JUMPDEST DUP1 SLOAD PUSH2 0xFFFF DUP2 AND DUP5 MSTORE PUSH2 0xFFFF DUP2 PUSH1 0x10 SHR AND PUSH1 0x20 DUP6 ADD MSTORE DUP3 DUP1 PUSH1 0x40 SHL SUB SWAP1 PUSH1 0x20 SHR AND PUSH1 0x40 DUP5 ADD MSTORE ADD SLOAD PUSH1 0x60 DUP3 ADD MSTORE PUSH2 0x2854 DUP3 DUP8 PUSH2 0x57B2 JUMP JUMPDEST MSTORE PUSH2 0x285F DUP2 DUP7 PUSH2 0x57B2 JUMP JUMPDEST POP ADD PUSH2 0x2769 JUMP JUMPDEST PUSH1 0x20 SWAP1 PUSH1 0x40 MLOAD PUSH2 0x2875 DUP2 PUSH2 0x5097 JUMP JUMPDEST PUSH1 0x0 DUP2 MSTORE PUSH1 0x0 DUP4 DUP3 ADD MSTORE PUSH1 0x0 PUSH1 0x40 DUP3 ADD MSTORE PUSH1 0x0 PUSH1 0x60 DUP3 ADD MSTORE DUP3 DUP3 DUP9 ADD ADD MSTORE ADD PUSH2 0x275D JUMP JUMPDEST DUP2 PUSH2 0x2733 JUMP JUMPDEST CALLVALUE PUSH2 0x482 JUMPI PUSH2 0x28AD CALLDATASIZE PUSH2 0x51EA JUMP JUMPDEST PUSH1 0xFF PUSH1 0x13 SWAP4 SWAP3 SWAP4 SLOAD AND PUSH2 0x5BC JUMPI PUSH1 0x1 PUSH1 0x1 PUSH1 0xA0 SHL SUB DUP3 AND SWAP1 DUP2 ISZERO DUP1 ISZERO PUSH2 0x2CE3 JUMPI JUMPDEST PUSH2 0x2CD2 JUMPI PUSH1 0xA0 DUP2 GT PUSH2 0x2CC1 JUMPI PUSH1 0xD SLOAD SWAP2 PUSH1 0x90 DUP4 SWAP1 SHR PUSH1 0x1 PUSH1 0x1 PUSH1 0x40 SHL SUB AND DUP1 PUSH2 0x2C48 JUMPI JUMPDEST POP PUSH2 0xFFFF DUP1 PUSH2 0x2900 CALLER PUSH2 0x6555 JUMP JUMPDEST AND SWAP4 PUSH1 0xD0 SHR AND DUP4 LT PUSH2 0x2C26 JUMPI PUSH2 0x2915 DUP5 PUSH2 0x6BC0 JUMP JUMPDEST PUSH1 0x0 DUP2 DUP2 MSTORE PUSH1 0x8 PUSH1 0x20 SWAP1 DUP2 MSTORE PUSH1 0x40 DUP1 DUP4 KECCAK256 CALLER DUP5 MSTORE SWAP1 SWAP2 MSTORE SWAP1 KECCAK256 SLOAD PUSH1 0x1 PUSH1 0x1 PUSH1 0x40 SHL SUB AND TIMESTAMP LT PUSH2 0x2C37 JUMPI DUP1 PUSH1 0x0 MSTORE PUSH1 0x9 PUSH1 0x20 MSTORE PUSH2 0xFFFF PUSH1 0x40 PUSH1 0x0 KECCAK256 SLOAD AND SWAP5 PUSH1 0xD SLOAD PUSH2 0xFFFF DUP2 PUSH1 0x30 SHR AND DUP8 LT ISZERO PUSH2 0x2C26 JUMPI CALLER PUSH1 0x0 MSTORE PUSH1 0xB PUSH1 0x20 MSTORE PUSH2 0xFFFF PUSH1 0x40 PUSH1 0x0 KECCAK256 SLOAD AND PUSH2 0xFFFF DUP3 PUSH1 0x40 SHR AND GT ISZERO PUSH2 0x2C26 JUMPI PUSH2 0xFFFF DUP2 AND SWAP5 PUSH2 0xFFFF PUSH1 0x1D SLOAD PUSH1 0x20 SHR AND GT ISZERO PUSH2 0x2C16 JUMPI JUMPDEST PUSH2 0x29A5 CALLER PUSH2 0x5DA1 JUMP JUMPDEST PUSH2 0x2C06 JUMPI JUMPDEST PUSH2 0xFFFF DUP2 PUSH1 0x10 SHR AND DUP1 PUSH2 0xFFFF DUP8 AND GT PUSH2 0x2BFE JUMPI JUMPDEST POP PUSH2 0x29D7 PUSH2 0xFFFF PUSH2 0x29CE DUP9 PUSH2 0x6D6C JUMP JUMPDEST SWAP7 AND DUP1 SWAP7 PUSH2 0x5753 JUMP JUMPDEST PUSH2 0xFFFF DUP3 PUSH1 0x20 SHR AND LT PUSH2 0x2BC1 JUMPI PUSH1 0x1 PUSH1 0x1 PUSH1 0x40 SHL SUB SWAP1 PUSH2 0x29FC SWAP1 PUSH1 0x50 SHR DUP3 AND TIMESTAMP PUSH2 0x5753 JUMP JUMPDEST PUSH1 0x40 MLOAD SWAP4 SWAP2 AND TIMESTAMP PUSH1 0x1 PUSH1 0x1 PUSH1 0x40 SHL SUB SWAP1 DUP2 AND SWAP1 PUSH1 0x60 DUP7 ADD SWAP1 DUP2 GT DUP7 DUP3 LT OR PUSH2 0x1892 JUMPI PUSH1 0x40 SWAP1 DUP2 MSTORE DUP3 DUP7 MSTORE PUSH1 0x20 DUP1 DUP8 ADD DUP10 DUP2 MSTORE DUP3 DUP9 ADD DUP5 DUP2 MSTORE PUSH1 0x0 DUP8 DUP2 MSTORE PUSH1 0x8 DUP5 MSTORE DUP5 DUP2 KECCAK256 CALLER DUP1 DUP4 MSTORE SWAP1 DUP6 MSTORE DUP6 DUP3 KECCAK256 SWAP11 MLOAD DUP12 SLOAD SWAP5 MLOAD SWAP4 MLOAD PUSH1 0x1 PUSH1 0x1 PUSH1 0x90 SHL SUB NOT SWAP1 SWAP6 AND PUSH1 0x1 PUSH1 0x1 PUSH1 0x40 SHL SUB SWAP2 SWAP1 SWAP2 AND OR SWAP3 DUP7 SHL PUSH2 0xFFFF PUSH1 0x40 SHL AND SWAP3 SWAP1 SWAP3 OR PUSH1 0x50 SWAP4 SWAP1 SWAP4 SHL PUSH1 0x1 PUSH1 0x50 SHL PUSH1 0x1 PUSH1 0x90 SHL SUB AND SWAP3 SWAP1 SWAP3 OR SWAP1 SWAP9 SSTORE DUP6 DUP2 MSTORE PUSH1 0x9 SWAP1 SWAP2 MSTORE KECCAK256 PUSH2 0x543 SWAP10 PUSH2 0x2BBB SWAP7 PUSH2 0x2AB6 SWAP3 PUSH2 0x2AB1 SWAP2 SWAP1 PUSH2 0x5778 JUMP JUMPDEST PUSH2 0x536A JUMP JUMPDEST DUP4 PUSH1 0x0 MSTORE PUSH1 0xA PUSH1 0x20 MSTORE PUSH2 0xFFFF PUSH1 0x40 PUSH1 0x0 KECCAK256 SWAP2 AND PUSH2 0xFFFF NOT DUP3 SLOAD AND OR SWAP1 SSTORE CALLER PUSH1 0x0 MSTORE PUSH1 0xB PUSH1 0x20 MSTORE PUSH1 0x40 PUSH1 0x0 KECCAK256 PUSH2 0xFFFF PUSH2 0x2AF0 DUP2 DUP4 SLOAD AND PUSH2 0x536A JUMP JUMPDEST AND PUSH2 0xFFFF NOT DUP3 SLOAD AND OR SWAP1 SSTORE CALLER PUSH1 0x0 MSTORE PUSH1 0xC PUSH1 0x20 MSTORE PUSH1 0x40 PUSH1 0x0 KECCAK256 PUSH1 0x1 DUP1 PUSH1 0x40 SHL SUB DUP3 AND PUSH1 0x1 DUP1 PUSH1 0x40 SHL SUB NOT DUP3 SLOAD AND OR SWAP1 SSTORE DUP3 PUSH1 0x0 MSTORE PUSH1 0x19 PUSH1 0x20 MSTORE PUSH1 0x40 PUSH1 0x0 KECCAK256 SWAP1 PUSH1 0x1 DUP1 PUSH1 0x40 SHL SUB AND PUSH1 0x1 DUP1 PUSH1 0x40 SHL SUB NOT DUP3 SLOAD AND OR SWAP1 SSTORE PUSH1 0x40 MLOAD SWAP1 DUP7 DUP3 MSTORE PUSH1 0x20 DUP3 ADD MSTORE PUSH1 0x60 PUSH1 0x40 DUP3 ADD MSTORE PUSH32 0xD7B6373D0CC8185CACB0CD7341AB8A20F17EA855F4FF4B8199FF544D5335B5AF CALLER SWAP2 DUP1 PUSH2 0x2B8A PUSH1 0x60 DUP3 ADD DUP10 DUP9 PUSH2 0x565A JUMP JUMPDEST SUB SWAP1 LOG3 PUSH1 0x40 MLOAD SWAP3 PUSH2 0x2B9C PUSH1 0x40 DUP6 PUSH2 0x50B2 JUMP JUMPDEST PUSH1 0xB DUP5 MSTORE PUSH11 0x195B991BDC9CD95B595B9D PUSH1 0xAA SHL PUSH1 0x20 DUP6 ADD MSTORE CALLDATASIZE SWAP2 PUSH2 0x5566 JUMP JUMPDEST SWAP3 PUSH2 0x66E1 JUMP JUMPDEST PUSH1 0x40 MLOAD PUSH3 0x461BCD PUSH1 0xE5 SHL DUP2 MSTORE PUSH1 0x20 PUSH1 0x4 DUP3 ADD MSTORE PUSH1 0x15 PUSH1 0x24 DUP3 ADD MSTORE PUSH21 0x534545523A20656E646F7273656D656E742063617 PUSH1 0x5C SHL PUSH1 0x44 DUP3 ADD MSTORE PUSH1 0x64 SWAP1 REVERT JUMPDEST SWAP5 POP DUP8 PUSH2 0x29BE JUMP JUMPDEST SWAP4 PUSH2 0x2C10 SWAP1 PUSH2 0x5356 JUMP JUMPDEST SWAP4 PUSH2 0x29AA JUMP JUMPDEST SWAP4 PUSH2 0x2C20 SWAP1 PUSH2 0x5356 JUMP JUMPDEST SWAP4 PUSH2 0x299C JUMP JUMPDEST PUSH4 0xCB450D23 PUSH1 0xE0 SHL PUSH1 0x0 MSTORE PUSH1 0x4 PUSH1 0x0 REVERT JUMPDEST PUSH4 0x5361AB17 PUSH1 0xE0 SHL PUSH1 0x0 MSTORE PUSH1 0x4 PUSH1 0x0 REVERT JUMPDEST CALLER PUSH1 0x0 SWAP1 DUP2 MSTORE PUSH1 0xC PUSH1 0x20 MSTORE PUSH1 0x40 SWAP1 KECCAK256 SLOAD PUSH1 0x1 PUSH1 0x1 PUSH1 0x40 SHL SUB SWAP1 DUP2 AND SWAP2 SWAP1 SWAP2 ADD SWAP1 DUP2 GT PUSH2 0x1D56 JUMPI PUSH1 0x1 PUSH1 0x1 PUSH1 0x40 SHL SUB AND TIMESTAMP LT PUSH2 0x2C83 JUMPI DUP6 PUSH2 0x28F2 JUMP JUMPDEST PUSH1 0x40 MLOAD PUSH3 0x461BCD PUSH1 0xE5 SHL DUP2 MSTORE PUSH1 0x20 PUSH1 0x4 DUP3 ADD MSTORE PUSH1 0x16 PUSH1 0x24 DUP3 ADD MSTORE PUSH22 0x29A2A2A91D1032B73237B939B29031B7B7B63237BBB7 PUSH1 0x51 SHL PUSH1 0x44 DUP3 ADD MSTORE PUSH1 0x64 SWAP1 REVERT JUMPDEST PUSH4 0x2F91981 PUSH1 0xE5 SHL PUSH1 0x0 MSTORE PUSH1 0x4 PUSH1 0x0 REVERT JUMPDEST PUSH4 0xF9734825 PUSH1 0xE0 SHL PUSH1 0x0 MSTORE PUSH1 0x4 PUSH1 0x0 REVERT JUMPDEST POP CALLER DUP3 EQ PUSH2 0x28CE JUMP JUMPDEST CALLVALUE PUSH2 0x482 JUMPI PUSH1 0x80 CALLDATASIZE PUSH1 0x3 NOT ADD SLT PUSH2 0x482 JUMPI PUSH1 0x4 CALLDATALOAD PUSH1 0x1 PUSH1 0x1 PUSH1 0x40 SHL SUB DUP2 GT PUSH2 0x482 JUMPI PUSH2 0x2D1C SWAP1 CALLDATASIZE SWAP1 PUSH1 0x4 ADD PUSH2 0x51BA JUMP JUMPDEST PUSH1 0x24 CALLDATALOAD SWAP2 PUSH2 0x2D28 PUSH2 0x4F6E JUMP JUMPDEST SWAP3 PUSH1 0x64 CALLDATALOAD SWAP1 PUSH2 0x2D35 PUSH2 0x661B JUMP JUMPDEST DUP4 ISZERO ISZERO DUP1 PUSH2 0x2E7E JUMPI JUMPDEST PUSH2 0x2D47 SWAP1 PUSH2 0x56E8 JUMP JUMPDEST PUSH1 0x0 JUMPDEST DUP5 DUP2 LT PUSH2 0x2DDC JUMPI PUSH2 0x543 DUP6 PUSH1 0x0 DUP9 ISZERO PUSH2 0x2DA7 JUMPI POP PUSH1 0x40 MLOAD PUSH2 0x2D6C PUSH1 0x40 DUP3 PUSH2 0x50B2 JUMP JUMPDEST PUSH1 0x13 DUP2 MSTORE PUSH19 0x18985919D957D8985D18DA17D9DC985B9D1959 PUSH1 0x6A SHL PUSH1 0x20 DUP3 ADD MSTORE SWAP1 JUMPDEST PUSH1 0x40 MLOAD SWAP2 PUSH2 0x2D9D PUSH1 0x20 DUP5 PUSH2 0x50B2 JUMP JUMPDEST PUSH1 0x0 DUP4 MSTORE ADDRESS PUSH2 0x66E1 JUMP JUMPDEST POP PUSH1 0x40 MLOAD PUSH2 0x2DB6 PUSH1 0x40 DUP3 PUSH2 0x50B2 JUMP JUMPDEST PUSH1 0x13 DUP2 MSTORE PUSH19 0x18985919D957D8985D18DA17DC995D9BDAD959 PUSH1 0x6A SHL PUSH1 0x20 DUP3 ADD MSTORE SWAP1 PUSH2 0x2D8E JUMP JUMPDEST PUSH1 0x1 SWAP1 PUSH1 0x1 PUSH1 0x1 PUSH1 0xA0 SHL SUB PUSH2 0x2DF5 PUSH2 0x643 DUP4 DUP10 DUP10 PUSH2 0x572F JUMP JUMPDEST AND DUP1 PUSH1 0x0 MSTORE PUSH1 0x6 PUSH1 0x20 MSTORE PUSH1 0x40 PUSH1 0x0 KECCAK256 DUP5 PUSH1 0x0 MSTORE PUSH1 0x20 MSTORE PUSH2 0x2E19 DUP9 PUSH1 0x40 PUSH1 0x0 KECCAK256 PUSH2 0x532C JUMP JUMPDEST DUP8 DUP1 PUSH2 0x2E75 JUMPI JUMPDEST ISZERO PUSH2 0x2E47 JUMPI PUSH1 0x0 MSTORE PUSH1 0x7 PUSH1 0x20 MSTORE PUSH1 0x40 PUSH1 0x0 KECCAK256 DUP4 PUSH1 0x0 MSTORE PUSH1 0x20 MSTORE DUP4 PUSH1 0x40 PUSH1 0x0 KECCAK256 SSTORE JUMPDEST ADD PUSH2 0x2D4A JUMP JUMPDEST DUP8 ISZERO PUSH2 0x2E54 JUMPI JUMPDEST POP PUSH2 0x2E41 JUMP JUMPDEST PUSH1 0x0 MSTORE PUSH1 0x7 PUSH1 0x20 MSTORE PUSH1 0x40 PUSH1 0x0 KECCAK256 DUP4 PUSH1 0x0 MSTORE PUSH1 0x20 MSTORE PUSH1 0x0 PUSH1 0x40 DUP2 KECCAK256 SSTORE DUP8 PUSH2 0x2E4E JUMP JUMPDEST POP DUP5 ISZERO ISZERO PUSH2 0x2E20 JUMP JUMPDEST POP PUSH1 0x64 DUP5 GT ISZERO PUSH2 0x2D3E JUMP JUMPDEST CALLVALUE PUSH2 0x482 JUMPI PUSH1 0x20 CALLDATASIZE PUSH1 0x3 NOT ADD SLT PUSH2 0x482 JUMPI PUSH1 0x1 PUSH1 0x1 PUSH1 0xA0 SHL SUB PUSH2 0x2EAA PUSH2 0x4F42 JUMP JUMPDEST AND PUSH1 0x0 MSTORE PUSH1 0xF PUSH1 0x20 MSTORE PUSH1 0x20 PUSH1 0x1 DUP1 PUSH1 0xA0 SHL SUB PUSH1 0x40 PUSH1 0x0 KECCAK256 SLOAD AND PUSH1 0x40 MLOAD SWAP1 DUP2 MSTORE RETURN JUMPDEST CALLVALUE PUSH2 0x482 JUMPI PUSH1 0x0 CALLDATASIZE PUSH1 0x3 NOT ADD SLT PUSH2 0x482 JUMPI PUSH1 0x1 SLOAD PUSH1 0x40 MLOAD PUSH1 0x1 PUSH1 0x1 PUSH1 0xA0 SHL SUB SWAP1 SWAP2 AND DUP2 MSTORE PUSH1 0x20 SWAP1 RETURN JUMPDEST CALLVALUE PUSH2 0x482 JUMPI PUSH1 0x40 CALLDATASIZE PUSH1 0x3 NOT ADD SLT PUSH2 0x482 JUMPI PUSH2 0x2F0D PUSH2 0x4F42 JUMP JUMPDEST PUSH2 0x2F15 PUSH2 0x4F8C JUMP JUMPDEST SWAP1 PUSH2 0x2F1E PUSH2 0x661B JUMP JUMPDEST PUSH1 0x1 PUSH1 0x1 PUSH1 0xA0 SHL SUB AND DUP1 ISZERO PUSH2 0xAB2 JUMPI DUP1 PUSH1 0x0 MSTORE PUSH1 0x12 PUSH1 0x20 MSTORE PUSH2 0x2F44 DUP3 PUSH1 0x40 PUSH1 0x0 KECCAK256 PUSH2 0x532C JUMP JUMPDEST PUSH32 0x1A594081AE893AB78E67D9B9E843547318164322D32C65369D78A96172D9DC8F PUSH1 0x20 PUSH1 0x40 MLOAD DUP5 ISZERO ISZERO DUP2 MSTORE LOG2 PUSH1 0x0 SWAP1 ISZERO PUSH2 0x2FAA JUMPI POP PUSH2 0x543 PUSH1 0x40 MLOAD PUSH2 0x2F8A PUSH1 0x40 DUP3 PUSH2 0x50B2 JUMP JUMPDEST PUSH1 0xE DUP2 MSTORE PUSH14 0x1BDC195C985D1BDC97D859191959 PUSH1 0x92 SHL PUSH1 0x20 DUP3 ADD MSTORE PUSH2 0x6AF9 JUMP JUMPDEST POP PUSH2 0x543 PUSH1 0x40 MLOAD PUSH2 0x2FBC PUSH1 0x40 DUP3 PUSH2 0x50B2 JUMP JUMPDEST PUSH1 0x10 DUP2 MSTORE PUSH16 0x1BDC195C985D1BDC97DC995B5BDD9959 PUSH1 0x82 SHL PUSH1 0x20 DUP3 ADD MSTORE PUSH2 0x6AF9 JUMP JUMPDEST CALLVALUE PUSH2 0x482 JUMPI PUSH1 0x0 CALLDATASIZE PUSH1 0x3 NOT ADD SLT PUSH2 0x482 JUMPI PUSH1 0x20 PUSH1 0xFF PUSH1 0x1D SLOAD PUSH1 0x8 SHR AND PUSH1 0x40 MLOAD SWAP1 DUP2 MSTORE RETURN JUMPDEST CALLVALUE PUSH2 0x482 JUMPI PUSH1 0x0 CALLDATASIZE PUSH1 0x3 NOT ADD SLT PUSH2 0x482 JUMPI PUSH1 0x20 PUSH2 0xFFFF PUSH1 0x1D SLOAD PUSH1 0x10 SHR AND PUSH1 0x40 MLOAD SWAP1 DUP2 MSTORE RETURN JUMPDEST CALLVALUE PUSH2 0x482 JUMPI PUSH1 0x20 CALLDATASIZE PUSH1 0x3 NOT ADD SLT PUSH2 0x482 JUMPI PUSH2 0x3040 PUSH2 0x4F42 JUMP JUMPDEST PUSH1 0x1 PUSH1 0x1 PUSH1 0xA0 SHL SUB DUP2 DUP2 AND PUSH1 0x0 DUP2 DUP2 MSTORE PUSH1 0xF PUSH1 0x20 MSTORE PUSH1 0x40 SWAP1 KECCAK256 SLOAD SWAP1 SWAP2 AND SWAP2 SWAP1 DUP3 ISZERO PUSH2 0x31AC JUMPI DUP3 CALLER SUB PUSH2 0x319F JUMPI JUMPDEST DUP3 PUSH1 0x0 MSTORE PUSH1 0x10 PUSH1 0x20 MSTORE PUSH1 0x40 PUSH1 0x0 KECCAK256 SWAP3 DUP4 SLOAD SWAP4 PUSH1 0x0 JUMPDEST DUP6 DUP2 LT PUSH2 0x3108 JUMPI JUMPDEST POP POP PUSH1 0x0 DUP3 DUP2 MSTORE PUSH1 0xF PUSH1 0x20 MSTORE PUSH1 0x40 DUP2 KECCAK256 DUP1 SLOAD PUSH1 0x1 PUSH1 0x1 PUSH1 0xA0 SHL SUB NOT AND SWAP1 SSTORE PUSH2 0x543 SWAP5 POP PUSH32 0xC890E92B7F9C8C46C61CD0AC0D88BA6817EFFE750591001F30845DF0F3645FD8 SWAP1 DUP1 LOG3 PUSH1 0x40 DUP1 MLOAD SWAP1 PUSH2 0x30E0 DUP2 DUP4 PUSH2 0x50B2 JUMP JUMPDEST PUSH1 0xE DUP3 MSTORE PUSH14 0x1B595B9D195957DC995B5BDD9959 PUSH1 0x92 SHL PUSH1 0x20 DUP4 ADD MSTORE MLOAD SWAP2 PUSH2 0x12C9 PUSH1 0x20 DUP5 PUSH2 0x50B2 JUMP JUMPDEST DUP4 PUSH2 0x3113 DUP3 DUP5 PUSH2 0x5760 JUMP JUMPDEST SWAP1 SLOAD PUSH1 0x3 SWAP2 SWAP1 SWAP2 SHL SHR PUSH1 0x1 PUSH1 0x1 PUSH1 0xA0 SHL SUB AND EQ PUSH2 0x3132 JUMPI PUSH1 0x1 ADD PUSH2 0x3082 JUMP JUMPDEST SWAP1 PUSH1 0x0 NOT DUP7 ADD SWAP6 DUP7 GT PUSH2 0x1D56 JUMPI PUSH2 0x3193 PUSH2 0x3198 SWAP3 PUSH2 0x316F PUSH2 0x3156 PUSH2 0x543 SWAP10 DUP6 PUSH2 0x5760 JUMP JUMPDEST SWAP1 SLOAD PUSH1 0x3 SWAP2 SWAP1 SWAP2 SHL SHR PUSH1 0x1 PUSH1 0x1 PUSH1 0xA0 SHL SUB AND SWAP2 DUP5 PUSH2 0x5760 JUMP JUMPDEST SWAP1 DUP1 SLOAD PUSH1 0x1 PUSH1 0x1 PUSH1 0xA0 SHL SUB PUSH1 0x3 SWAP4 SWAP1 SWAP4 SHL DUP4 DUP2 SHL NOT SWAP1 SWAP2 AND SWAP3 SWAP1 SWAP4 AND SWAP1 SWAP3 SHL OR SWAP1 SSTORE JUMP JUMPDEST PUSH2 0x6B7D JUMP JUMPDEST DUP5 DUP1 PUSH2 0x308A JUMP JUMPDEST PUSH2 0x31A7 PUSH2 0x661B JUMP JUMPDEST PUSH2 0x306D JUMP JUMPDEST PUSH1 0x40 MLOAD PUSH3 0x461BCD PUSH1 0xE5 SHL DUP2 MSTORE PUSH1 0x20 PUSH1 0x4 DUP3 ADD MSTORE PUSH1 0xF PUSH1 0x24 DUP3 ADD MSTORE PUSH15 0x29A2A2A91D1037379036B2B73A37B9 PUSH1 0x89 SHL PUSH1 0x44 DUP3 ADD MSTORE PUSH1 0x64 SWAP1 REVERT JUMPDEST CALLVALUE PUSH2 0x482 JUMPI PUSH1 0x20 CALLDATASIZE PUSH1 0x3 NOT ADD SLT PUSH2 0x482 JUMPI PUSH1 0x1 PUSH1 0x1 PUSH1 0xA0 SHL SUB PUSH2 0x3204 PUSH2 0x4F42 JUMP JUMPDEST AND PUSH1 0x0 SWAP1 DUP2 MSTORE PUSH1 0x20 DUP1 MSTORE PUSH1 0x40 SWAP1 KECCAK256 DUP1 SLOAD PUSH1 0x1 PUSH1 0x1 PUSH1 0xA0 SHL SUB AND PUSH2 0x626 PUSH2 0x322C PUSH1 0x1 DUP5 ADD PUSH2 0x50D5 JUMP JUMPDEST SWAP3 PUSH2 0x323E PUSH1 0x3 PUSH1 0x2 DUP4 ADD SLOAD SWAP3 ADD PUSH2 0x50D5 JUMP JUMPDEST PUSH1 0xFF PUSH2 0x325C PUSH1 0x40 MLOAD SWAP7 DUP8 SWAP7 DUP8 MSTORE PUSH1 0xC0 PUSH1 0x20 DUP9 ADD MSTORE PUSH1 0xC0 DUP8 ADD SWAP1 PUSH2 0x5179 JUMP JUMPDEST SWAP3 PUSH1 0x1 DUP1 PUSH1 0x40 SHL SUB DUP2 AND PUSH1 0x40 DUP8 ADD MSTORE DUP2 DUP2 PUSH1 0x40 SHR AND ISZERO ISZERO PUSH1 0x60 DUP8 ADD MSTORE PUSH1 0x48 SHR AND ISZERO ISZERO PUSH1 0x80 DUP6 ADD MSTORE DUP4 DUP3 SUB PUSH1 0xA0 DUP6 ADD MSTORE PUSH2 0x5179 JUMP JUMPDEST CALLVALUE PUSH2 0x482 JUMPI PUSH1 0x60 CALLDATASIZE PUSH1 0x3 NOT ADD SLT PUSH2 0x482 JUMPI PUSH2 0x32A9 PUSH2 0x4F42 JUMP JUMPDEST PUSH1 0x24 CALLDATALOAD PUSH1 0x1 PUSH1 0x1 PUSH1 0x40 SHL SUB DUP2 GT PUSH2 0x482 JUMPI PUSH2 0x32C8 SWAP1 CALLDATASIZE SWAP1 PUSH1 0x4 ADD PUSH2 0x4FDF JUMP JUMPDEST SWAP1 PUSH1 0x44 CALLDATALOAD SWAP3 PUSH1 0xFF DUP5 AND DUP1 SWAP5 SUB PUSH2 0x482 JUMPI PUSH2 0x32E0 PUSH2 0x661B JUMP JUMPDEST PUSH1 0x1 PUSH1 0x1 PUSH1 0xA0 SHL SUB AND SWAP2 DUP3 ISZERO PUSH2 0x3586 JUMPI PUSH1 0x64 DUP5 GT PUSH2 0x354C JUMPI DUP3 PUSH1 0x0 MSTORE PUSH1 0x1C PUSH1 0x20 MSTORE PUSH1 0x40 PUSH1 0x0 KECCAK256 SLOAD PUSH2 0x3511 JUMPI PUSH1 0x40 MLOAD SWAP4 PUSH2 0x3318 DUP6 PUSH2 0x5097 JUMP JUMPDEST DUP4 DUP6 MSTORE PUSH2 0x3326 CALLDATASIZE DUP4 DUP6 PUSH2 0x5566 JUMP JUMPDEST SWAP5 PUSH1 0x20 DUP2 ADD SWAP6 DUP7 MSTORE PUSH1 0x40 DUP2 ADD SWAP1 DUP3 DUP3 MSTORE PUSH1 0x60 DUP2 ADD SWAP1 PUSH1 0x1 DUP3 MSTORE PUSH1 0x1B SLOAD PUSH1 0x1 PUSH1 0x40 SHL DUP2 LT ISZERO PUSH2 0x1892 JUMPI DUP1 PUSH1 0x1 PUSH2 0x335E SWAP3 ADD PUSH1 0x1B SSTORE PUSH2 0x525B JUMP JUMPDEST SWAP2 SWAP1 SWAP2 PUSH2 0x34FB JUMPI MLOAD DUP2 SLOAD PUSH1 0x1 PUSH1 0x1 PUSH1 0xA0 SHL SUB NOT AND PUSH1 0x1 PUSH1 0x1 PUSH1 0xA0 SHL SUB SWAP2 SWAP1 SWAP2 AND OR DUP2 SSTORE SWAP7 MLOAD DUP1 MLOAD SWAP1 SWAP8 SWAP1 PUSH1 0x1 DUP3 ADD SWAP1 PUSH1 0x1 PUSH1 0x1 PUSH1 0x40 SHL SUB DUP2 GT PUSH2 0x1892 JUMPI PUSH2 0x33AF DUP2 PUSH2 0x33A9 DUP5 SLOAD PUSH2 0x505D JUMP JUMPDEST DUP5 PUSH2 0x55AC JUMP JUMPDEST PUSH1 0x20 PUSH1 0x1F DUP3 GT PUSH1 0x1 EQ PUSH2 0x347F JUMPI SWAP2 PUSH2 0x33E7 DUP3 PUSH1 0xFF SWAP6 SWAP4 PUSH1 0x2 SWAP6 PUSH1 0x0 DUP1 MLOAD PUSH1 0x20 PUSH2 0x72F1 DUP4 CODECOPY DUP2 MLOAD SWAP2 MSTORE SWAP14 SWAP15 PUSH1 0x0 SWAP3 PUSH2 0x3474 JUMPI POP POP PUSH2 0x55FE JUMP JUMPDEST SWAP1 SSTORE JUMPDEST ADD SWAP3 MLOAD AND PUSH1 0xFF NOT DUP4 SLOAD AND OR DUP3 SSTORE MLOAD ISZERO ISZERO PUSH2 0xFF00 DUP3 SLOAD SWAP2 PUSH1 0x8 SHL AND SWAP1 PUSH2 0xFF00 NOT AND OR SWAP1 SSTORE PUSH1 0x1B SLOAD DUP6 PUSH1 0x0 MSTORE PUSH1 0x1C PUSH1 0x20 MSTORE PUSH1 0x40 PUSH1 0x0 KECCAK256 SSTORE PUSH2 0x3436 PUSH1 0x40 MLOAD SWAP4 DUP5 SWAP4 PUSH1 0x40 DUP6 MSTORE PUSH1 0x40 DUP6 ADD SWAP2 PUSH2 0x565A JUMP JUMPDEST SWAP1 PUSH1 0x20 DUP4 ADD MSTORE SUB SWAP1 LOG2 PUSH2 0x543 PUSH1 0x40 MLOAD PUSH2 0x3450 PUSH1 0x40 DUP3 PUSH2 0x50B2 JUMP JUMPDEST PUSH1 0x12 DUP2 MSTORE PUSH18 0x1CD8DBDC9957DCDBDD5C98D957D859191959 PUSH1 0x72 SHL PUSH1 0x20 DUP3 ADD MSTORE PUSH2 0x6AF9 JUMP JUMPDEST ADD MLOAD SWAP1 POP DUP15 DUP1 PUSH2 0x1706 JUMP JUMPDEST PUSH1 0x1F NOT DUP3 AND SWAP11 DUP4 PUSH1 0x0 MSTORE DUP2 PUSH1 0x0 KECCAK256 SWAP12 PUSH1 0x0 JUMPDEST DUP2 DUP2 LT PUSH2 0x34E3 JUMPI POP SWAP3 PUSH1 0x0 DUP1 MLOAD PUSH1 0x20 PUSH2 0x72F1 DUP4 CODECOPY DUP2 MLOAD SWAP2 MSTORE SWAP12 SWAP13 PUSH1 0x2 SWAP6 SWAP4 PUSH1 0x1 SWAP4 DUP4 PUSH1 0xFF SWAP10 SWAP8 LT PUSH2 0x34CA JUMPI JUMPDEST POP POP POP DUP2 SHL ADD SWAP1 SSTORE PUSH2 0x33EA JUMP JUMPDEST ADD MLOAD PUSH1 0x0 NOT PUSH1 0xF8 DUP5 PUSH1 0x3 SHL AND SHR NOT AND SWAP1 SSTORE DUP14 DUP1 DUP1 PUSH2 0x34BD JUMP JUMPDEST DUP4 DUP4 ADD MLOAD DUP15 SSTORE PUSH1 0x1 SWAP1 SWAP14 ADD SWAP13 PUSH1 0x20 SWAP4 DUP5 ADD SWAP4 ADD PUSH2 0x3491 JUMP JUMPDEST PUSH4 0x4E487B71 PUSH1 0xE0 SHL PUSH1 0x0 MSTORE PUSH1 0x0 PUSH1 0x4 MSTORE PUSH1 0x24 PUSH1 0x0 REVERT JUMPDEST PUSH1 0x40 MLOAD PUSH3 0x461BCD PUSH1 0xE5 SHL DUP2 MSTORE PUSH1 0x20 PUSH1 0x4 DUP3 ADD MSTORE PUSH1 0x13 PUSH1 0x24 DUP3 ADD MSTORE PUSH19 0x534545523A20736F7572636520657869737473 PUSH1 0x68 SHL PUSH1 0x44 DUP3 ADD MSTORE PUSH1 0x64 SWAP1 REVERT JUMPDEST PUSH1 0x40 MLOAD PUSH3 0x461BCD PUSH1 0xE5 SHL DUP2 MSTORE PUSH1 0x20 PUSH1 0x4 DUP3 ADD MSTORE PUSH1 0x12 PUSH1 0x24 DUP3 ADD MSTORE PUSH18 0x534545523A20776569676874203E2031303 PUSH1 0x74 SHL PUSH1 0x44 DUP3 ADD MSTORE PUSH1 0x64 SWAP1 REVERT JUMPDEST PUSH1 0x40 MLOAD PUSH3 0x461BCD PUSH1 0xE5 SHL DUP2 MSTORE PUSH1 0x20 PUSH1 0x4 DUP3 ADD MSTORE PUSH1 0x11 PUSH1 0x24 DUP3 ADD MSTORE PUSH17 0x534545523A207A65726F20736F75726365 PUSH1 0x78 SHL PUSH1 0x44 DUP3 ADD MSTORE PUSH1 0x64 SWAP1 REVERT JUMPDEST CALLVALUE PUSH2 0x482 JUMPI PUSH2 0x100 CALLDATASIZE PUSH1 0x3 NOT ADD SLT PUSH2 0x482 JUMPI PUSH2 0x35D9 PUSH2 0x4F9B JUMP JUMPDEST PUSH2 0x35E1 PUSH2 0x4FAC JUMP JUMPDEST SWAP1 PUSH2 0x35EA PUSH2 0x4FBD JUMP JUMPDEST SWAP2 PUSH2 0x35F3 PUSH2 0x4FCE JUMP JUMPDEST SWAP1 PUSH1 0x84 CALLDATALOAD PUSH2 0xFFFF DUP2 AND SWAP2 DUP3 DUP3 SUB PUSH2 0x482 JUMPI PUSH1 0xA4 CALLDATALOAD SWAP4 PUSH1 0x1 PUSH1 0x1 PUSH1 0x40 SHL SUB DUP6 AND DUP1 DUP7 SUB PUSH2 0x482 JUMPI PUSH1 0xC4 CALLDATALOAD SWAP7 PUSH1 0x1 PUSH1 0x1 PUSH1 0x40 SHL SUB DUP9 AND DUP1 DUP10 SUB PUSH2 0x482 JUMPI PUSH1 0xE4 CALLDATALOAD SWAP3 PUSH2 0xFFFF DUP5 AND SWAP3 DUP4 DUP6 SUB PUSH2 0x482 JUMPI PUSH2 0xFFFF SWAP1 PUSH2 0x364B PUSH2 0x661B JUMP JUMPDEST AND SWAP8 DUP9 ISZERO ISZERO DUP1 PUSH2 0x39DF JUMPI JUMPDEST ISZERO PUSH2 0x39A0 JUMPI PUSH2 0xFFFF DUP8 AND DUP10 DUP2 LT ISZERO SWAP1 DUP2 PUSH2 0x3993 JUMPI JUMPDEST POP ISZERO PUSH2 0x3955 JUMPI DUP9 PUSH2 0xFFFF DUP14 AND LT PUSH2 0x391A JUMPI PUSH2 0xFFFF DUP7 AND DUP1 ISZERO ISZERO SWAP1 DUP2 PUSH2 0x390E JUMPI JUMPDEST POP ISZERO PUSH2 0x38D5 JUMPI DUP1 ISZERO ISZERO SWAP1 DUP2 PUSH2 0x38C9 JUMPI JUMPDEST POP ISZERO PUSH2 0x3892 JUMPI PUSH3 0x93A80 DUP2 LT ISZERO SWAP1 DUP2 PUSH2 0x3883 JUMPI JUMPDEST POP ISZERO PUSH2 0x3847 JUMPI PUSH2 0x258 DUP2 LT ISZERO SWAP1 DUP2 PUSH2 0x3839 JUMPI JUMPDEST POP ISZERO PUSH2 0x37FD JUMPI PUSH1 0xA DUP2 LT ISZERO SWAP1 DUP2 PUSH2 0x37F0 JUMPI JUMPDEST POP ISZERO PUSH2 0x37B3 JUMPI PUSH1 0xD DUP1 SLOAD PUSH1 0x90 SWAP9 SWAP1 SWAP9 SHL PUSH1 0x1 PUSH1 0x90 SHL PUSH1 0x1 PUSH1 0xD0 SHL SUB AND PUSH1 0x50 SWAP8 SWAP1 SWAP8 SHL PUSH1 0x1 PUSH1 0x50 SHL PUSH1 0x1 PUSH1 0x90 SHL SUB AND PUSH1 0x1 PUSH1 0x30 SHL PUSH1 0x1 PUSH1 0xE0 SHL SUB NOT SWAP1 SWAP7 AND PUSH1 0x1 PUSH1 0x1 PUSH1 0xE0 SHL SUB NOT SWAP1 SWAP9 AND SWAP8 SWAP1 SWAP8 OR PUSH1 0x10 SWAP4 SWAP1 SWAP4 SHL PUSH4 0xFFFF0000 AND SWAP3 SWAP1 SWAP3 OR PUSH1 0x20 SWAP8 SWAP1 SWAP8 SHL PUSH2 0xFFFF PUSH1 0x20 SHL AND SWAP7 SWAP1 SWAP7 OR PUSH1 0x30 SWAP7 SWAP1 SWAP7 SHL PUSH2 0xFFFF PUSH1 0x30 SHL AND SWAP6 SWAP1 SWAP6 OR PUSH1 0x40 SWAP2 DUP3 SHL PUSH2 0xFFFF PUSH1 0x40 SHL AND OR SWAP2 SWAP1 SWAP2 OR SWAP2 SWAP1 SWAP2 OR PUSH1 0xD0 SWAP4 SWAP1 SWAP4 SHL PUSH2 0xFFFF PUSH1 0xD0 SHL AND SWAP3 SWAP1 SWAP3 OR SWAP1 SSTORE DUP1 MLOAD PUSH2 0x543 SWAP2 PUSH2 0x378B SWAP1 DUP3 PUSH2 0x50B2 JUMP JUMPDEST PUSH1 0x16 DUP2 MSTORE PUSH22 0x195B991BDC9CD95B595B9D17DC1BDB1A58DE57DCD95D PUSH1 0x52 SHL PUSH1 0x20 DUP3 ADD MSTORE PUSH2 0x6AF9 JUMP JUMPDEST PUSH1 0x40 MLOAD PUSH3 0x461BCD PUSH1 0xE5 SHL DUP2 MSTORE PUSH1 0x20 PUSH1 0x4 DUP3 ADD MSTORE PUSH1 0x15 PUSH1 0x24 DUP3 ADD MSTORE PUSH21 0x534545523A206D696E2073636F72652072616E6765 PUSH1 0x58 SHL PUSH1 0x44 DUP3 ADD MSTORE PUSH1 0x64 SWAP1 REVERT JUMPDEST PUSH2 0x2710 SWAP2 POP GT ISZERO DUP10 PUSH2 0x36D4 JUMP JUMPDEST PUSH1 0x40 MLOAD PUSH3 0x461BCD PUSH1 0xE5 SHL DUP2 MSTORE PUSH1 0x20 PUSH1 0x4 DUP3 ADD MSTORE PUSH1 0x14 PUSH1 0x24 DUP3 ADD MSTORE PUSH20 0x534545523A20636F6F6C646F776E2072616E6765 PUSH1 0x60 SHL PUSH1 0x44 DUP3 ADD MSTORE PUSH1 0x64 SWAP1 REVERT JUMPDEST PUSH3 0x93A80 SWAP2 POP GT ISZERO DUP11 PUSH2 0x36C2 JUMP JUMPDEST PUSH1 0x40 MLOAD PUSH3 0x461BCD PUSH1 0xE5 SHL DUP2 MSTORE PUSH1 0x20 PUSH1 0x4 DUP3 ADD MSTORE PUSH1 0x14 PUSH1 0x24 DUP3 ADD MSTORE PUSH20 0x534545523A2076616C69646974792072616E6765 PUSH1 0x60 SHL PUSH1 0x44 DUP3 ADD MSTORE PUSH1 0x64 SWAP1 REVERT JUMPDEST PUSH4 0x1E13380 SWAP2 POP GT ISZERO DUP12 PUSH2 0x36AF JUMP JUMPDEST PUSH1 0x40 MLOAD PUSH3 0x461BCD PUSH1 0xE5 SHL DUP2 MSTORE PUSH1 0x20 PUSH1 0x4 DUP3 ADD MSTORE PUSH1 0xF PUSH1 0x24 DUP3 ADD MSTORE PUSH15 0x534545523A20676976656E2063617 PUSH1 0x8C SHL PUSH1 0x44 DUP3 ADD MSTORE PUSH1 0x64 SWAP1 REVERT JUMPDEST PUSH1 0xC8 SWAP2 POP GT ISZERO DUP13 PUSH2 0x369B JUMP JUMPDEST PUSH1 0x40 MLOAD PUSH3 0x461BCD PUSH1 0xE5 SHL DUP2 MSTORE PUSH1 0x20 PUSH1 0x4 DUP3 ADD MSTORE PUSH1 0x11 PUSH1 0x24 DUP3 ADD MSTORE PUSH17 0x534545523A207375626A6563742063617 PUSH1 0x7C SHL PUSH1 0x44 DUP3 ADD MSTORE PUSH1 0x64 SWAP1 REVERT JUMPDEST PUSH1 0x32 SWAP2 POP GT ISZERO DUP14 PUSH2 0x368B JUMP JUMPDEST PUSH1 0x40 MLOAD PUSH3 0x461BCD PUSH1 0xE5 SHL DUP2 MSTORE PUSH1 0x20 PUSH1 0x4 DUP3 ADD MSTORE PUSH1 0x13 PUSH1 0x24 DUP3 ADD MSTORE PUSH19 0x534545523A20626F6E757320636170206C6F77 PUSH1 0x68 SHL PUSH1 0x44 DUP3 ADD MSTORE PUSH1 0x64 SWAP1 REVERT JUMPDEST PUSH1 0x40 MLOAD PUSH3 0x461BCD PUSH1 0xE5 SHL DUP2 MSTORE PUSH1 0x20 PUSH1 0x4 DUP3 ADD MSTORE PUSH1 0x16 PUSH1 0x24 DUP3 ADD MSTORE PUSH22 0x29A2A2A91D1036B0BC103832B91032B73237B939B2B9 PUSH1 0x51 SHL PUSH1 0x44 DUP3 ADD MSTORE PUSH1 0x64 SWAP1 REVERT JUMPDEST PUSH2 0x12C SWAP2 POP GT ISZERO DUP14 PUSH2 0x366B JUMP JUMPDEST PUSH1 0x40 MLOAD PUSH3 0x461BCD PUSH1 0xE5 SHL DUP2 MSTORE PUSH1 0x20 PUSH1 0x4 DUP3 ADD MSTORE PUSH1 0x17 PUSH1 0x24 DUP3 ADD MSTORE PUSH23 0x534545523A2062617365206F7574206F662072616E6765 PUSH1 0x48 SHL PUSH1 0x44 DUP3 ADD MSTORE PUSH1 0x64 SWAP1 REVERT JUMPDEST POP PUSH1 0xC8 DUP10 GT ISZERO PUSH2 0x3656 JUMP JUMPDEST CALLVALUE PUSH2 0x482 JUMPI PUSH1 0x0 CALLDATASIZE PUSH1 0x3 NOT ADD SLT PUSH2 0x482 JUMPI PUSH1 0x20 PUSH2 0xFFFF PUSH1 0x1D SLOAD PUSH1 0x30 SHR AND PUSH1 0x40 MLOAD SWAP1 DUP2 MSTORE RETURN JUMPDEST CALLVALUE PUSH2 0x482 JUMPI PUSH1 0x0 CALLDATASIZE PUSH1 0x3 NOT ADD SLT PUSH2 0x482 JUMPI PUSH1 0xD SLOAD PUSH1 0x40 MLOAD PUSH1 0x50 SWAP2 SWAP1 SWAP2 SHR PUSH1 0x1 PUSH1 0x1 PUSH1 0x40 SHL SUB AND DUP2 MSTORE PUSH1 0x20 SWAP1 RETURN JUMPDEST CALLVALUE PUSH2 0x482 JUMPI PUSH1 0x60 CALLDATASIZE PUSH1 0x3 NOT ADD SLT PUSH2 0x482 JUMPI PUSH2 0x3A55 PUSH2 0x4F42 JUMP JUMPDEST PUSH2 0x3A5D PUSH2 0x4F8C JUMP JUMPDEST SWAP1 PUSH1 0x44 CALLDATALOAD SWAP2 DUP3 PUSH1 0x1 SIGNEXTEND DUP1 SWAP4 SUB PUSH2 0x482 JUMPI PUSH2 0x3A75 PUSH2 0x661B JUMP JUMPDEST PUSH1 0x1 PUSH1 0x1 PUSH1 0xA0 SHL SUB DUP3 AND PUSH1 0x0 DUP2 DUP2 MSTORE PUSH1 0x1E PUSH1 0x20 MSTORE PUSH1 0x40 SWAP1 KECCAK256 PUSH1 0x2 ADD DUP1 SLOAD PUSH1 0x1 PUSH1 0x1 PUSH1 0x40 SHL SUB DUP2 AND ISZERO PUSH2 0x3C74 JUMPI PUSH1 0xFF DUP2 PUSH1 0x40 SHR AND PUSH2 0x3C36 JUMPI PUSH1 0xFF PUSH1 0x40 SHL NOT AND PUSH1 0x1 PUSH1 0x40 SHL OR DUP2 SSTORE PUSH2 0x543 SWAP5 PUSH32 0x2EEC6B0A78EBA6860AE5BB6579B36B4B751BA52EE7D16723279B46572C96469D SWAP2 PUSH1 0x40 SWAP2 SWAP1 PUSH2 0x3AF0 SWAP1 DUP7 SWAP1 PUSH2 0x562E JUMP JUMPDEST DUP5 DUP1 PUSH2 0x3C2D JUMPI JUMPDEST PUSH2 0x3B83 JUMPI JUMPDEST PUSH1 0x1F SLOAD DUP1 PUSH2 0x3B71 JUMPI JUMPDEST POP DUP2 MLOAD SWAP1 DUP6 ISZERO ISZERO DUP3 MSTORE PUSH1 0x20 DUP3 ADD MSTORE LOG2 ISZERO PUSH2 0x3B69 JUMPI PUSH1 0x1 SWAP1 JUMPDEST PUSH1 0x40 PUSH1 0xFF DUP2 MLOAD SWAP2 PUSH2 0x3B2E DUP2 DUP5 PUSH2 0x50B2 JUMP JUMPDEST PUSH1 0x16 DUP4 MSTORE PUSH22 0x1CD8DBDC9957D91A5CDC1D5D1957DC995CDBDB1D9959 PUSH1 0x52 SHL PUSH1 0x20 DUP5 ADD MSTORE MLOAD SWAP4 PUSH2 0x3B5E PUSH1 0x20 DUP7 PUSH2 0x50B2 JUMP JUMPDEST PUSH1 0x0 DUP6 MSTORE AND SWAP2 PUSH2 0x66E1 JUMP JUMPDEST PUSH1 0x0 SWAP1 PUSH2 0x3B1D JUMP JUMPDEST PUSH2 0x3B7A SWAP1 PUSH2 0x56DB JUMP JUMPDEST PUSH1 0x1F SSTORE DUP8 PUSH2 0x3B05 JUMP JUMPDEST DUP4 PUSH1 0x0 DUP1 MLOAD PUSH1 0x20 PUSH2 0x7111 DUP4 CODECOPY DUP2 MLOAD SWAP2 MSTORE PUSH1 0xA0 PUSH2 0xFFFF PUSH2 0x3BA1 DUP11 PUSH2 0x6555 JUMP JUMPDEST AND PUSH2 0x3BAC DUP6 DUP3 PUSH2 0x56BF JUMP JUMPDEST PUSH1 0xA DUP2 SLT PUSH2 0x3C25 JUMPI JUMPDEST PUSH2 0x2710 DUP2 SGT PUSH2 0x3C1C JUMPI JUMPDEST PUSH1 0x0 DUP6 DUP2 MSTORE PUSH1 0x5 PUSH1 0x20 SWAP1 DUP2 MSTORE DUP9 DUP3 KECCAK256 DUP1 SLOAD PUSH2 0xFFFF NOT AND PUSH2 0xFFFF SWAP5 DUP6 AND OR SWAP1 SSTORE SWAP1 DUP9 SWAP1 KECCAK256 SLOAD DUP9 MLOAD SWAP4 DUP5 MSTORE SWAP1 SWAP2 AND SWAP1 DUP3 ADD MSTORE PUSH1 0x60 DUP2 DUP8 ADD DUP2 SWAP1 MSTORE PUSH1 0x10 SWAP1 DUP3 ADD MSTORE PUSH16 0x191A5CDC1D5D1957DC995CDBDB1D9959 PUSH1 0x82 SHL PUSH1 0x80 DUP3 ADD MSTORE LOG2 PUSH2 0x3AFC JUMP JUMPDEST POP PUSH2 0x2710 PUSH2 0x3BBF JUMP JUMPDEST POP PUSH1 0xA PUSH2 0x3BB5 JUMP JUMPDEST POP DUP1 ISZERO ISZERO PUSH2 0x3AF7 JUMP JUMPDEST PUSH1 0x40 MLOAD PUSH3 0x461BCD PUSH1 0xE5 SHL DUP2 MSTORE PUSH1 0x20 PUSH1 0x4 DUP3 ADD MSTORE PUSH1 0x16 PUSH1 0x24 DUP3 ADD MSTORE PUSH22 0x14D151548E88185B1C9958591E481C995CDBDB1D9959 PUSH1 0x52 SHL PUSH1 0x44 DUP3 ADD MSTORE PUSH1 0x64 SWAP1 REVERT JUMPDEST PUSH1 0x40 MLOAD PUSH3 0x461BCD PUSH1 0xE5 SHL DUP2 MSTORE PUSH1 0x20 PUSH1 0x4 DUP3 ADD MSTORE PUSH1 0x16 PUSH1 0x24 DUP3 ADD MSTORE PUSH22 0x14D151548E881B9BC8191A5CDC1D5D1948199BDD5B99 PUSH1 0x52 SHL PUSH1 0x44 DUP3 ADD MSTORE PUSH1 0x64 SWAP1 REVERT JUMPDEST CALLVALUE PUSH2 0x482 JUMPI PUSH1 0x0 CALLDATASIZE PUSH1 0x3 NOT ADD SLT PUSH2 0x482 JUMPI PUSH1 0x20 PUSH2 0xFFFF PUSH1 0x1D SLOAD DUP3 SHR AND PUSH1 0x40 MLOAD SWAP1 DUP2 MSTORE RETURN JUMPDEST CALLVALUE PUSH2 0x482 JUMPI PUSH1 0x0 CALLDATASIZE PUSH1 0x3 NOT ADD SLT PUSH2 0x482 JUMPI PUSH1 0x20 PUSH2 0xFFFF PUSH1 0x1A SLOAD PUSH1 0x48 SHR AND PUSH1 0x40 MLOAD SWAP1 DUP2 MSTORE RETURN JUMPDEST CALLVALUE PUSH2 0x482 JUMPI PUSH1 0x20 CALLDATASIZE PUSH1 0x3 NOT ADD SLT PUSH2 0x482 JUMPI PUSH2 0x3D14 PUSH2 0x4F42 JUMP JUMPDEST PUSH2 0x3D1C PUSH2 0x661B JUMP JUMPDEST PUSH1 0x4 DUP1 SLOAD PUSH1 0x1 PUSH1 0x1 PUSH1 0xA0 SHL SUB NOT AND PUSH1 0x1 PUSH1 0x1 PUSH1 0xA0 SHL SUB SWAP3 SWAP1 SWAP3 AND SWAP2 DUP3 OR SWAP1 SSTORE PUSH32 0xE4684F339BA56463E5CADCD26648B097A048A5F17251BFEA9591D8C6A6081318 PUSH1 0x0 DUP1 LOG2 STOP JUMPDEST CALLVALUE PUSH2 0x482 JUMPI PUSH1 0x0 CALLDATASIZE PUSH1 0x3 NOT ADD SLT PUSH2 0x482 JUMPI PUSH1 0x0 SLOAD PUSH1 0x40 MLOAD PUSH1 0x1 PUSH1 0x1 PUSH1 0xA0 SHL SUB SWAP1 SWAP2 AND DUP2 MSTORE PUSH1 0x20 SWAP1 RETURN JUMPDEST CALLVALUE PUSH2 0x482 JUMPI PUSH1 0x0 CALLDATASIZE PUSH1 0x3 NOT ADD SLT PUSH2 0x482 JUMPI PUSH1 0x20 PUSH1 0x40 MLOAD PUSH1 0xA DUP2 MSTORE RETURN JUMPDEST CALLVALUE PUSH2 0x482 JUMPI PUSH2 0x3DB5 CALLDATASIZE PUSH2 0x500C JUMP JUMPDEST PUSH2 0x3DC0 SWAP4 SWAP3 SWAP4 PUSH2 0x661B JUMP JUMPDEST PUSH1 0x1 PUSH1 0x1 PUSH1 0xA0 SHL SUB DUP4 AND SWAP4 DUP5 ISZERO PUSH2 0xAB2 JUMPI PUSH2 0xFFFF DUP2 AND SWAP3 PUSH2 0x2710 DUP5 GT PUSH2 0x2CC1 JUMPI PUSH2 0x543 SWAP6 PUSH1 0x0 DUP1 MLOAD PUSH1 0x20 PUSH2 0x7111 DUP4 CODECOPY DUP2 MLOAD SWAP2 MSTORE PUSH2 0x2BBB SWAP4 PUSH2 0x3E00 DUP9 PUSH2 0x6555 JUMP JUMPDEST DUP4 PUSH1 0x0 MSTORE PUSH1 0x5 PUSH1 0x20 MSTORE PUSH1 0x40 PUSH1 0x0 KECCAK256 DUP9 PUSH2 0xFFFF NOT DUP3 SLOAD AND OR SWAP1 SSTORE PUSH2 0x3E2A DUP8 DUP7 PUSH1 0x40 MLOAD SWAP5 DUP6 SWAP5 DUP6 PUSH2 0x569A JUMP JUMPDEST SUB SWAP1 LOG2 PUSH1 0x40 MLOAD SWAP3 PUSH2 0x3E3C PUSH1 0x40 DUP6 PUSH2 0x50B2 JUMP JUMPDEST PUSH1 0xE DUP5 MSTORE PUSH14 0x1CD9595C97DCD8DBDC9957DCD95D PUSH1 0x92 SHL PUSH1 0x20 DUP6 ADD MSTORE CALLDATASIZE SWAP2 PUSH2 0x5566 JUMP JUMPDEST CALLVALUE PUSH2 0x482 JUMPI PUSH1 0x0 CALLDATASIZE PUSH1 0x3 NOT ADD SLT PUSH2 0x482 JUMPI PUSH1 0x20 PUSH1 0x40 MLOAD PUSH1 0x32 DUP2 MSTORE RETURN JUMPDEST CALLVALUE PUSH2 0x482 JUMPI PUSH1 0x40 CALLDATASIZE PUSH1 0x3 NOT ADD SLT PUSH2 0x482 JUMPI PUSH1 0x1 PUSH1 0x1 PUSH1 0xA0 SHL SUB PUSH2 0x3E9B PUSH2 0x4F42 JUMP JUMPDEST AND PUSH1 0x0 MSTORE PUSH1 0x6 PUSH1 0x20 MSTORE PUSH1 0x40 PUSH1 0x0 KECCAK256 PUSH1 0x24 CALLDATALOAD PUSH1 0x0 MSTORE PUSH1 0x20 MSTORE PUSH1 0x20 PUSH1 0xFF PUSH1 0x40 PUSH1 0x0 KECCAK256 SLOAD AND PUSH1 0x40 MLOAD SWAP1 ISZERO ISZERO DUP2 MSTORE RETURN JUMPDEST CALLVALUE PUSH2 0x482 JUMPI PUSH1 0x0 CALLDATASIZE PUSH1 0x3 NOT ADD SLT PUSH2 0x482 JUMPI PUSH1 0x0 PUSH1 0x1B SLOAD PUSH1 0x0 JUMPDEST DUP2 DUP2 LT PUSH2 0x3EF7 JUMPI POP PUSH1 0x40 SWAP2 DUP3 MLOAD SWAP2 DUP3 MSTORE PUSH1 0x20 DUP3 ADD MSTORE RETURN JUMPDEST PUSH1 0xFF PUSH1 0x2 PUSH2 0x3F04 DUP4 PUSH2 0x525B JUMP JUMPDEST POP ADD SLOAD PUSH1 0x8 SHR AND PUSH2 0x3F18 JUMPI JUMPDEST PUSH1 0x1 ADD PUSH2 0x3EE0 JUMP JUMPDEST SWAP2 PUSH2 0x3F24 PUSH1 0x1 SWAP2 PUSH2 0x564B JUMP JUMPDEST SWAP3 SWAP1 POP PUSH2 0x3F10 JUMP JUMPDEST CALLVALUE PUSH2 0x482 JUMPI PUSH1 0x60 CALLDATASIZE PUSH1 0x3 NOT ADD SLT PUSH2 0x482 JUMPI PUSH2 0x3F45 PUSH2 0x4F7D JUMP JUMPDEST PUSH1 0x24 CALLDATALOAD PUSH1 0x1 PUSH1 0x1 PUSH1 0x40 SHL SUB DUP2 AND DUP1 DUP3 SUB PUSH2 0x482 JUMPI PUSH1 0x1E PUSH2 0x3F63 PUSH2 0x4FBD JUMP JUMPDEST SWAP2 PUSH2 0x3F6C PUSH2 0x661B JUMP JUMPDEST LT PUSH2 0x402B JUMPI PUSH2 0x1F4 PUSH2 0xFFFF DUP3 AND GT PUSH2 0x3FE9 JUMPI PUSH1 0xFF PUSH1 0x1A SLOAD SWAP2 PUSH2 0xFFFF PUSH1 0x48 SHL SWAP1 PUSH1 0x48 SHL AND SWAP4 ISZERO ISZERO AND SWAP1 PUSH1 0x1 DUP1 PUSH1 0x58 SHL SUB NOT AND OR SWAP1 PUSH2 0x100 PUSH1 0x1 PUSH1 0x48 SHL SUB SWAP1 PUSH1 0x8 SHL AND OR OR PUSH1 0x1A SSTORE PUSH2 0x543 PUSH1 0x40 MLOAD PUSH2 0x3FC3 PUSH1 0x40 DUP3 PUSH2 0x50B2 JUMP JUMPDEST PUSH1 0x14 DUP2 MSTORE PUSH20 0x191958D85E57D8DBDB999A59D7DD5C19185D1959 PUSH1 0x62 SHL PUSH1 0x20 DUP3 ADD MSTORE PUSH2 0x6AF9 JUMP JUMPDEST PUSH1 0x40 MLOAD PUSH3 0x461BCD PUSH1 0xE5 SHL DUP2 MSTORE PUSH1 0x20 PUSH1 0x4 DUP3 ADD MSTORE PUSH1 0x1A PUSH1 0x24 DUP3 ADD MSTORE PUSH26 0x534545523A20646563617920746F6F2061676772657373697665 PUSH1 0x30 SHL PUSH1 0x44 DUP3 ADD MSTORE PUSH1 0x64 SWAP1 REVERT JUMPDEST PUSH1 0x40 MLOAD PUSH3 0x461BCD PUSH1 0xE5 SHL DUP2 MSTORE PUSH1 0x20 PUSH1 0x4 DUP3 ADD MSTORE PUSH1 0x1B PUSH1 0x24 DUP3 ADD MSTORE PUSH27 0x14D151548E88191958D85E481CDD185C9D081D1BDBC81CDA1BDC9D PUSH1 0x2A SHL PUSH1 0x44 DUP3 ADD MSTORE PUSH1 0x64 SWAP1 REVERT JUMPDEST CALLVALUE PUSH2 0x482 JUMPI PUSH1 0x20 CALLDATASIZE PUSH1 0x3 NOT ADD SLT PUSH2 0x482 JUMPI PUSH2 0x4087 PUSH2 0x4F42 JUMP JUMPDEST PUSH1 0x1 PUSH1 0x1 PUSH1 0xA0 SHL SUB DUP2 AND PUSH1 0x0 DUP2 DUP2 MSTORE PUSH1 0x5 PUSH1 0x20 MSTORE PUSH1 0x40 SWAP1 KECCAK256 SLOAD PUSH2 0xFFFF AND SWAP1 DUP2 ISZERO PUSH2 0x419E JUMPI JUMPDEST PUSH2 0x40BE PUSH2 0x40B8 DUP5 PUSH2 0x5AE7 JUMP JUMPDEST SWAP4 PUSH2 0x6555 JUMP JUMPDEST SWAP3 PUSH1 0x1D SLOAD SWAP1 PUSH1 0x1 DUP1 PUSH1 0xA0 SHL SUB PUSH1 0x2 SLOAD AND DUP1 ISZERO ISZERO SWAP4 DUP5 PUSH2 0x4113 JUMPI JUMPDEST POP POP SWAP1 PUSH2 0xFFFF PUSH1 0xC0 SWAP6 DUP2 PUSH1 0xFF SWAP5 DUP2 PUSH1 0x40 MLOAD SWAP9 AND DUP9 MSTORE AND PUSH1 0x20 DUP8 ADD MSTORE AND PUSH1 0x40 DUP6 ADD MSTORE DUP2 DUP2 AND PUSH1 0x60 DUP6 ADD MSTORE PUSH1 0x8 SHR AND PUSH1 0x80 DUP4 ADD MSTORE ISZERO ISZERO PUSH1 0xA0 DUP3 ADD MSTORE RETURN JUMPDEST PUSH1 0x20 SWAP2 SWAP4 SWAP3 SWAP5 POP PUSH1 0x24 PUSH1 0x40 MLOAD DUP1 SWAP6 DUP2 SWAP4 PUSH4 0x709DF45 PUSH1 0xE0 SHL DUP4 MSTORE PUSH1 0x4 DUP4 ADD MSTORE GAS STATICCALL DUP1 ISZERO PUSH2 0x4192 JUMPI PUSH1 0xC0 SWAP6 PUSH2 0xFFFF DUP1 SWAP3 PUSH1 0xFF SWAP6 PUSH1 0x0 SWAP2 PUSH2 0x4163 JUMPI JUMPDEST POP PUSH1 0x1 DUP1 PUSH1 0xA0 SHL SUB AND ISZERO ISZERO SWAP6 SWAP4 SWAP5 POP POP SWAP6 PUSH2 0x40D8 JUMP JUMPDEST PUSH2 0x4185 SWAP2 POP PUSH1 0x20 RETURNDATASIZE PUSH1 0x20 GT PUSH2 0x418B JUMPI JUMPDEST PUSH2 0x417D DUP2 DUP4 PUSH2 0x50B2 JUMP JUMPDEST DUP2 ADD SWAP1 PUSH2 0x567B JUMP JUMPDEST DUP10 PUSH2 0x414D JUMP JUMPDEST POP RETURNDATASIZE PUSH2 0x4173 JUMP JUMPDEST PUSH1 0x40 MLOAD RETURNDATASIZE PUSH1 0x0 DUP3 RETURNDATACOPY RETURNDATASIZE SWAP1 REVERT JUMPDEST SWAP1 POP PUSH2 0x41A9 DUP3 PUSH2 0x57C6 JUMP JUMPDEST SWAP1 PUSH2 0x40AC JUMP JUMPDEST CALLVALUE PUSH2 0x482 JUMPI PUSH1 0x0 CALLDATASIZE PUSH1 0x3 NOT ADD SLT PUSH2 0x482 JUMPI PUSH1 0x20 PUSH2 0xFFFF PUSH1 0xD SLOAD AND PUSH1 0x40 MLOAD SWAP1 DUP2 MSTORE RETURN JUMPDEST CALLVALUE PUSH2 0x482 JUMPI PUSH1 0x0 CALLDATASIZE PUSH1 0x3 NOT ADD SLT PUSH2 0x482 JUMPI PUSH1 0x20 PUSH1 0xFF PUSH1 0x1D SLOAD AND PUSH1 0x40 MLOAD SWAP1 DUP2 MSTORE RETURN JUMPDEST CALLVALUE PUSH2 0x482 JUMPI PUSH1 0x0 CALLDATASIZE PUSH1 0x3 NOT ADD SLT PUSH2 0x482 JUMPI PUSH1 0x20 PUSH1 0x40 MLOAD PUSH2 0x2710 DUP2 MSTORE RETURN JUMPDEST CALLVALUE PUSH2 0x482 JUMPI PUSH1 0x20 CALLDATASIZE PUSH1 0x3 NOT ADD SLT PUSH2 0x482 JUMPI PUSH1 0x1 PUSH1 0x1 PUSH1 0xA0 SHL SUB PUSH2 0x4230 PUSH2 0x4F42 JUMP JUMPDEST AND PUSH1 0x0 MSTORE PUSH1 0xA PUSH1 0x20 MSTORE PUSH1 0x20 PUSH2 0xFFFF PUSH1 0x40 PUSH1 0x0 KECCAK256 SLOAD AND PUSH1 0x40 MLOAD SWAP1 DUP2 MSTORE RETURN JUMPDEST CALLVALUE PUSH2 0x482 JUMPI PUSH1 0x20 CALLDATASIZE PUSH1 0x3 NOT ADD SLT PUSH2 0x482 JUMPI PUSH2 0x4266 PUSH2 0x4F42 JUMP JUMPDEST PUSH1 0xFF PUSH1 0x13 SLOAD AND PUSH2 0x5BC JUMPI PUSH2 0x543 SWAP1 PUSH2 0x6BC0 JUMP JUMPDEST CALLVALUE PUSH2 0x482 JUMPI PUSH1 0x0 CALLDATASIZE PUSH1 0x3 NOT ADD SLT PUSH2 0x482 JUMPI PUSH1 0x20 PUSH2 0xFFFF PUSH1 0xD SLOAD DUP3 SHR AND PUSH1 0x40 MLOAD SWAP1 DUP2 MSTORE RETURN JUMPDEST CALLVALUE PUSH2 0x482 JUMPI PUSH2 0x42AB CALLDATASIZE PUSH2 0x500C JUMP JUMPDEST SWAP2 SWAP3 PUSH1 0x1 DUP1 PUSH1 0xA0 SHL SUB PUSH1 0x0 SLOAD AND CALLER EQ ISZERO DUP1 PUSH2 0x4498 JUMPI JUMPDEST PUSH2 0x4487 JUMPI PUSH1 0xFF PUSH1 0x13 SLOAD AND PUSH2 0x5BC JUMPI PUSH2 0xFFFF PUSH1 0x17 SLOAD PUSH1 0x10 SHR AND SWAP1 PUSH2 0xFFFF DUP6 AND SWAP2 DUP3 GT PUSH2 0x4442 JUMPI CALLER PUSH1 0x0 SWAP1 DUP2 MSTORE PUSH1 0x16 PUSH1 0x20 MSTORE PUSH1 0x40 SWAP1 KECCAK256 SLOAD PUSH1 0x1 PUSH1 0x1 PUSH1 0x40 SHL SUB SWAP1 DUP2 AND PUSH3 0x15180 ADD SWAP1 DUP2 GT PUSH2 0x1D56 JUMPI PUSH1 0x1 PUSH1 0x1 PUSH1 0x40 SHL SUB AND TIMESTAMP LT ISZERO PUSH2 0x43F1 JUMPI JUMPDEST CALLER PUSH1 0x0 MSTORE PUSH1 0x15 PUSH1 0x20 MSTORE PUSH1 0x40 PUSH1 0x0 KECCAK256 PUSH1 0x1 DUP1 PUSH1 0xA0 SHL SUB DUP3 AND PUSH1 0x0 MSTORE PUSH1 0x20 MSTORE PUSH2 0x434E DUP6 PUSH2 0xFFFF PUSH1 0x40 PUSH1 0x0 KECCAK256 SLOAD AND PUSH2 0x537E JUMP JUMPDEST PUSH2 0xFFFF DUP1 PUSH1 0x17 SLOAD AND SWAP2 AND GT PUSH2 0x43A2 JUMPI PUSH2 0x543 SWAP5 CALLER PUSH1 0x0 MSTORE PUSH1 0x15 PUSH1 0x20 MSTORE PUSH2 0xFFFF PUSH2 0x4392 PUSH1 0x40 DUP1 PUSH1 0x0 KECCAK256 PUSH1 0x0 SWAP1 PUSH1 0x1 DUP1 PUSH1 0xA0 SHL SUB DUP8 AND DUP3 MSTORE PUSH1 0x20 MSTORE KECCAK256 SWAP3 DUP3 DUP5 SLOAD AND PUSH2 0x537E JUMP JUMPDEST AND PUSH2 0xFFFF NOT DUP3 SLOAD AND OR SWAP1 SSTORE PUSH2 0x6786 JUMP JUMPDEST PUSH1 0x40 MLOAD PUSH3 0x461BCD PUSH1 0xE5 SHL DUP2 MSTORE PUSH1 0x20 PUSH1 0x4 DUP3 ADD MSTORE PUSH1 0x21 PUSH1 0x24 DUP3 ADD MSTORE PUSH32 0x534545523A206461696C7920726577617264206C696D69742065786365656465 PUSH1 0x44 DUP3 ADD MSTORE PUSH1 0x19 PUSH1 0xFA SHL PUSH1 0x64 DUP3 ADD MSTORE PUSH1 0x84 SWAP1 REVERT JUMPDEST CALLER PUSH1 0x0 SWAP1 DUP2 MSTORE PUSH1 0x16 PUSH1 0x20 SWAP1 DUP2 MSTORE PUSH1 0x40 DUP1 DUP4 KECCAK256 DUP1 SLOAD PUSH1 0x1 PUSH1 0x1 PUSH1 0x40 SHL SUB NOT AND TIMESTAMP PUSH1 0x1 PUSH1 0x1 PUSH1 0x40 SHL SUB AND OR SWAP1 SSTORE PUSH1 0x15 DUP3 MSTORE DUP1 DUP4 KECCAK256 PUSH1 0x1 PUSH1 0x1 PUSH1 0xA0 SHL SUB DUP6 AND DUP5 MSTORE SWAP1 SWAP2 MSTORE SWAP1 KECCAK256 DUP1 SLOAD PUSH2 0xFFFF NOT AND SWAP1 SSTORE PUSH2 0x431E JUMP JUMPDEST PUSH1 0x40 MLOAD PUSH3 0x461BCD PUSH1 0xE5 SHL DUP2 MSTORE PUSH1 0x20 PUSH1 0x4 DUP3 ADD MSTORE PUSH1 0x1F PUSH1 0x24 DUP3 ADD MSTORE PUSH32 0x534545523A207265776172642065786365656473206D61782073696E676C6500 PUSH1 0x44 DUP3 ADD MSTORE PUSH1 0x64 SWAP1 REVERT JUMPDEST PUSH4 0x4C874597 PUSH1 0xE1 SHL PUSH1 0x0 MSTORE PUSH1 0x4 PUSH1 0x0 REVERT JUMPDEST POP CALLER PUSH1 0x0 MSTORE PUSH1 0x12 PUSH1 0x20 MSTORE PUSH1 0xFF PUSH1 0x40 PUSH1 0x0 KECCAK256 SLOAD AND ISZERO PUSH2 0x42C1 JUMP JUMPDEST CALLVALUE PUSH2 0x482 JUMPI PUSH1 0x20 CALLDATASIZE PUSH1 0x3 NOT ADD SLT PUSH2 0x482 JUMPI PUSH2 0x44CA PUSH2 0x4F7D JUMP JUMPDEST PUSH2 0x44D2 PUSH2 0x661B JUMP JUMPDEST PUSH32 0xE2FB031EE032DC02D8011DC50B816EB450CF856ABD8261680DAC74F72165BD2 PUSH1 0x20 DUP3 ISZERO ISZERO PUSH1 0xFF NOT PUSH1 0x13 SLOAD AND PUSH1 0xFF DUP3 AND OR PUSH1 0x13 SSTORE PUSH1 0x40 MLOAD SWAP1 DUP2 MSTORE LOG1 PUSH1 0x0 SWAP1 ISZERO PUSH2 0x4545 JUMPI POP PUSH2 0x543 PUSH1 0x40 MLOAD PUSH2 0x4528 PUSH1 0x40 DUP3 PUSH2 0x50B2 JUMP JUMPDEST PUSH1 0xB DUP2 MSTORE PUSH11 0x1CD9595C97DC185D5CD959 PUSH1 0xAA SHL PUSH1 0x20 DUP3 ADD MSTORE PUSH2 0x6AF9 JUMP JUMPDEST POP PUSH2 0x543 PUSH1 0x40 MLOAD PUSH2 0x4557 PUSH1 0x40 DUP3 PUSH2 0x50B2 JUMP JUMPDEST PUSH1 0xD DUP2 MSTORE PUSH13 0x1CD9595C97DD5B9C185D5CD959 PUSH1 0x9A SHL PUSH1 0x20 DUP3 ADD MSTORE PUSH2 0x6AF9 JUMP JUMPDEST CALLVALUE PUSH2 0x482 JUMPI PUSH1 0x20 CALLDATASIZE PUSH1 0x3 NOT ADD SLT PUSH2 0x482 JUMPI PUSH1 0x1 PUSH1 0x1 PUSH1 0xA0 SHL SUB PUSH2 0x4597 PUSH2 0x4F42 JUMP JUMPDEST AND PUSH1 0x0 MSTORE PUSH1 0x12 PUSH1 0x20 MSTORE PUSH1 0x20 PUSH1 0xFF PUSH1 0x40 PUSH1 0x0 KECCAK256 SLOAD AND PUSH1 0x40 MLOAD SWAP1 ISZERO ISZERO DUP2 MSTORE RETURN JUMPDEST CALLVALUE PUSH2 0x482 JUMPI PUSH1 0x20 CALLDATASIZE PUSH1 0x3 NOT ADD SLT PUSH2 0x482 JUMPI PUSH1 0x4 CALLDATALOAD PUSH1 0x1 PUSH1 0x1 PUSH1 0x40 SHL SUB DUP2 GT PUSH2 0x482 JUMPI PUSH2 0x45E5 SWAP1 CALLDATASIZE SWAP1 PUSH1 0x4 ADD PUSH2 0x4FDF JUMP JUMPDEST DUP1 ISZERO ISZERO DUP1 PUSH2 0x487F JUMPI JUMPDEST PUSH2 0x45F7 SWAP1 PUSH2 0x551C JUMP JUMPDEST CALLER PUSH1 0x0 SWAP1 DUP2 MSTORE PUSH1 0x1E PUSH1 0x20 MSTORE PUSH1 0x40 SWAP1 KECCAK256 PUSH1 0x2 ADD SLOAD PUSH1 0x1 PUSH1 0x1 PUSH1 0x40 SHL SUB AND ISZERO DUP1 ISZERO PUSH2 0x4861 JUMPI JUMPDEST ISZERO PUSH2 0x4824 JUMPI PUSH1 0x40 MLOAD SWAP2 PUSH1 0xA0 DUP4 ADD PUSH1 0x1 PUSH1 0x1 PUSH1 0x40 SHL SUB DUP2 GT DUP5 DUP3 LT OR PUSH2 0x1892 JUMPI PUSH1 0x40 MSTORE CALLER DUP4 MSTORE PUSH2 0x464B CALLDATASIZE DUP4 DUP4 PUSH2 0x5566 JUMP JUMPDEST PUSH1 0x20 DUP1 DUP6 ADD SWAP2 DUP3 MSTORE TIMESTAMP PUSH1 0x1 PUSH1 0x1 PUSH1 0x40 SHL SUB SWAP1 DUP2 AND PUSH1 0x40 DUP1 DUP9 ADD SWAP2 DUP3 MSTORE PUSH1 0x0 PUSH1 0x60 DUP10 ADD DUP2 DUP2 MSTORE PUSH1 0x80 DUP11 ADD DUP3 DUP2 MSTORE CALLER DUP4 MSTORE PUSH1 0x1E SWAP1 SWAP7 MSTORE SWAP2 SWAP1 KECCAK256 SWAP8 MLOAD DUP9 SLOAD PUSH1 0x1 PUSH1 0x1 PUSH1 0xA0 SHL SUB NOT AND PUSH1 0x1 PUSH1 0x1 PUSH1 0xA0 SHL SUB SWAP2 SWAP1 SWAP2 AND OR DUP9 SSTORE SWAP4 MLOAD DUP1 MLOAD SWAP1 SWAP8 SWAP2 SWAP5 SWAP3 PUSH1 0x1 DUP4 ADD SWAP2 SWAP1 DUP2 GT PUSH2 0x1892 JUMPI PUSH2 0x46C2 DUP2 PUSH2 0x33A9 DUP5 SLOAD PUSH2 0x505D JUMP JUMPDEST PUSH1 0x20 PUSH1 0x1F DUP3 GT PUSH1 0x1 EQ PUSH2 0x47AA JUMPI PUSH2 0x4726 SWAP6 SWAP4 PUSH2 0x173E SWAP4 PUSH2 0x46F8 DUP5 PUSH2 0x1810 SWAP12 SWAP11 SWAP9 SWAP6 PUSH1 0x2 SWAP6 PUSH2 0x543 SWAP16 PUSH1 0x0 SWAP3 PUSH2 0x18A8 JUMPI POP POP PUSH2 0x55FE JUMP JUMPDEST SWAP1 SSTORE JUMPDEST SWAP5 MLOAD SWAP5 ADD DUP1 SLOAD PUSH1 0x1 PUSH1 0x1 PUSH1 0x40 SHL SUB NOT AND PUSH1 0x1 PUSH1 0x1 PUSH1 0x40 SHL SUB SWAP6 SWAP1 SWAP6 AND SWAP5 SWAP1 SWAP5 OR DUP5 SSTORE MLOAD ISZERO ISZERO DUP4 PUSH2 0x5611 JUMP JUMPDEST PUSH2 0x4731 PUSH1 0x1F SLOAD PUSH2 0x564B JUMP JUMPDEST PUSH1 0x1F SSTORE PUSH1 0x40 MLOAD PUSH1 0x20 DUP2 MSTORE PUSH32 0xB23AC579E6192F602DCD9CB4739D7AAC62BF98DF815A123EA748071D25B80875 CALLER SWAP2 DUP1 PUSH2 0x476D PUSH1 0x20 DUP3 ADD DUP9 DUP8 PUSH2 0x565A JUMP JUMPDEST SUB SWAP1 LOG2 PUSH1 0x40 MLOAD SWAP3 PUSH2 0x477F PUSH1 0x40 DUP6 PUSH2 0x50B2 JUMP JUMPDEST PUSH1 0x17 DUP5 MSTORE PUSH23 0x1CD8DBDC9957D91A5CDC1D5D1957DC995C5D595CDD1959 PUSH1 0x4A SHL PUSH1 0x20 DUP6 ADD MSTORE CALLDATASIZE SWAP2 PUSH2 0x5566 JUMP JUMPDEST PUSH1 0x1F NOT DUP3 AND SWAP10 DUP4 PUSH1 0x0 MSTORE DUP2 PUSH1 0x0 KECCAK256 SWAP11 PUSH1 0x0 JUMPDEST DUP2 DUP2 LT PUSH2 0x480C JUMPI POP SWAP4 PUSH1 0x1 DUP5 PUSH2 0x543 SWAP14 PUSH1 0x2 SWAP6 PUSH2 0x4726 SWAP12 SWAP10 SWAP6 PUSH2 0x1810 SWAP15 SWAP14 SWAP12 SWAP9 PUSH2 0x173E SWAP11 LT PUSH2 0x47F3 JUMPI JUMPDEST POP POP POP DUP2 SHL ADD SWAP1 SSTORE PUSH2 0x46FB JUMP JUMPDEST ADD MLOAD PUSH1 0x0 NOT PUSH1 0xF8 DUP5 PUSH1 0x3 SHL AND SHR NOT AND SWAP1 SSTORE DUP15 DUP1 DUP1 PUSH2 0x47E6 JUMP JUMPDEST DUP4 DUP4 ADD MLOAD DUP14 SSTORE PUSH1 0x1 SWAP1 SWAP13 ADD SWAP12 PUSH1 0x20 SWAP4 DUP5 ADD SWAP4 ADD PUSH2 0x47BC JUMP JUMPDEST PUSH1 0x40 MLOAD PUSH3 0x461BCD PUSH1 0xE5 SHL DUP2 MSTORE PUSH1 0x20 PUSH1 0x4 DUP3 ADD MSTORE PUSH1 0x15 PUSH1 0x24 DUP3 ADD MSTORE PUSH21 0x534545523A20646973707574652070656E64696E67 PUSH1 0x58 SHL PUSH1 0x44 DUP3 ADD MSTORE PUSH1 0x64 SWAP1 REVERT JUMPDEST POP CALLER PUSH1 0x0 MSTORE PUSH1 0x1E PUSH1 0x20 MSTORE PUSH1 0xFF PUSH1 0x2 PUSH1 0x40 PUSH1 0x0 KECCAK256 ADD SLOAD PUSH1 0x40 SHR AND PUSH2 0x461B JUMP JUMPDEST POP PUSH2 0x1F4 DUP2 GT ISZERO PUSH2 0x45EE JUMP JUMPDEST CALLVALUE PUSH2 0x482 JUMPI PUSH1 0x20 CALLDATASIZE PUSH1 0x3 NOT ADD SLT PUSH2 0x482 JUMPI PUSH1 0x1 PUSH1 0x1 PUSH1 0xA0 SHL SUB PUSH2 0x48AC PUSH2 0x4F42 JUMP JUMPDEST AND PUSH1 0x0 SWAP1 DUP2 MSTORE PUSH1 0x1E PUSH1 0x20 MSTORE PUSH1 0x40 SWAP1 KECCAK256 DUP1 SLOAD PUSH1 0x1 PUSH1 0x1 PUSH1 0xA0 SHL SUB AND PUSH1 0x2 PUSH2 0x48D4 PUSH1 0x1 DUP5 ADD PUSH2 0x50D5 JUMP JUMPDEST SWAP3 ADD SLOAD PUSH1 0xFF PUSH2 0x48F5 PUSH1 0x40 MLOAD SWAP5 DUP6 SWAP5 DUP6 MSTORE PUSH1 0xA0 PUSH1 0x20 DUP7 ADD MSTORE PUSH1 0xA0 DUP6 ADD SWAP1 PUSH2 0x5179 JUMP JUMPDEST SWAP2 PUSH1 0x1 DUP1 PUSH1 0x40 SHL SUB DUP2 AND PUSH1 0x40 DUP6 ADD MSTORE DUP2 DUP2 PUSH1 0x40 SHR AND ISZERO ISZERO PUSH1 0x60 DUP6 ADD MSTORE PUSH1 0x48 SHR AND ISZERO ISZERO PUSH1 0x80 DUP4 ADD MSTORE SUB SWAP1 RETURN JUMPDEST CALLVALUE PUSH2 0x482 JUMPI PUSH1 0x40 CALLDATASIZE PUSH1 0x3 NOT ADD SLT PUSH2 0x482 JUMPI PUSH2 0x4939 PUSH2 0x4F9B JUMP JUMPDEST PUSH2 0xFFFF PUSH2 0x4944 PUSH2 0x4FAC JUMP JUMPDEST SWAP2 PUSH2 0x494D PUSH2 0x661B JUMP JUMPDEST AND SWAP1 PUSH2 0x1388 DUP3 LT ISZERO DUP1 PUSH2 0x4A58 JUMPI JUMPDEST ISZERO PUSH2 0x4A13 JUMPI PUSH2 0xFFFF DUP2 AND SWAP2 PUSH1 0x1 DUP4 LT ISZERO DUP1 PUSH2 0x4A08 JUMPI JUMPDEST ISZERO PUSH2 0x49C3 JUMPI PUSH32 0x273CEE8C4DD4641FDF7F817DF77D9AD070AB040AB68B2B923BF6A49C6EC673EE SWAP3 PUSH1 0x40 SWAP3 DUP3 PUSH4 0xFFFF0000 PUSH1 0x11 SLOAD SWAP3 PUSH1 0x10 SHL AND SWAP2 PUSH4 0xFFFFFFFF NOT AND OR OR PUSH1 0x11 SSTORE DUP3 MLOAD SWAP2 DUP3 MSTORE PUSH1 0x20 DUP3 ADD MSTORE LOG1 STOP JUMPDEST PUSH1 0x40 MLOAD PUSH3 0x461BCD PUSH1 0xE5 SHL DUP2 MSTORE PUSH1 0x20 PUSH1 0x4 DUP3 ADD MSTORE PUSH1 0x1D PUSH1 0x24 DUP3 ADD MSTORE PUSH32 0x534545523A206D656E746F72206D6178206F7574206F662072616E6765000000 PUSH1 0x44 DUP3 ADD MSTORE PUSH1 0x64 SWAP1 REVERT JUMPDEST POP PUSH1 0xC8 DUP4 GT ISZERO PUSH2 0x4971 JUMP JUMPDEST PUSH1 0x40 MLOAD PUSH3 0x461BCD PUSH1 0xE5 SHL DUP2 MSTORE PUSH1 0x20 PUSH1 0x4 DUP3 ADD MSTORE PUSH1 0x1D PUSH1 0x24 DUP3 ADD MSTORE PUSH32 0x534545523A206D656E746F72206D696E206F7574206F662072616E6765000000 PUSH1 0x44 DUP3 ADD MSTORE PUSH1 0x64 SWAP1 REVERT JUMPDEST POP PUSH2 0x2710 DUP3 GT ISZERO PUSH2 0x495B JUMP JUMPDEST CALLVALUE PUSH2 0x482 JUMPI PUSH1 0x80 CALLDATASIZE PUSH1 0x3 NOT ADD SLT PUSH2 0x482 JUMPI PUSH2 0x4A7D PUSH2 0x4F9B JUMP JUMPDEST PUSH2 0x4A85 PUSH2 0x4FAC JUMP JUMPDEST SWAP1 PUSH2 0x4A8E PUSH2 0x4FBD JUMP JUMPDEST PUSH2 0x4A96 PUSH2 0x4FCE JUMP JUMPDEST SWAP1 PUSH2 0x4A9F PUSH2 0x661B JUMP JUMPDEST PUSH2 0xFFFF DUP5 AND SWAP2 PUSH2 0xFFFF DUP5 AND SWAP3 DUP1 DUP5 GT PUSH2 0x2CC1 JUMPI PUSH2 0x2710 DUP2 GT PUSH2 0x2CC1 JUMPI PUSH2 0x3E8 DUP5 LT PUSH2 0x4C82 JUMPI PUSH2 0x251C DUP2 GT PUSH2 0x4C3D JUMPI PUSH2 0xFFFF DUP4 AND SWAP2 PUSH2 0xBB8 DUP4 LT PUSH2 0x4BED JUMPI PUSH2 0xFFFF DUP2 AND SWAP4 PUSH2 0xBB8 DUP6 LT PUSH2 0x4BA9 JUMPI PUSH32 0x41BC9BED7EA81D63E5FF2964100FD598EB19876DDEA235344DAB5EF7C0AF0C89 SWAP8 PUSH1 0x80 SWAP8 PUSH1 0x1D SLOAD SWAP4 PUSH2 0xFFFF PUSH1 0x40 SHL SWAP1 PUSH1 0x40 SHL AND SWAP4 PUSH4 0xFFFF0000 PUSH2 0xFFFF PUSH1 0x40 SHL NOT SWAP3 PUSH1 0x10 SHL AND SWAP1 PUSH8 0xFFFFFFFFFFFF0000 NOT AND OR AND SWAP1 PUSH2 0xFFFF PUSH1 0x20 SHL SWAP1 PUSH1 0x20 SHL AND OR SWAP1 PUSH2 0xFFFF PUSH1 0x30 SHL SWAP1 PUSH1 0x30 SHL AND OR OR PUSH1 0x1D SSTORE PUSH1 0x40 MLOAD SWAP4 DUP5 MSTORE PUSH1 0x20 DUP5 ADD MSTORE PUSH1 0x40 DUP4 ADD MSTORE PUSH1 0x60 DUP3 ADD MSTORE LOG1 PUSH2 0x543 PUSH1 0x40 MLOAD PUSH2 0x4B84 PUSH1 0x40 DUP3 PUSH2 0x50B2 JUMP JUMPDEST PUSH1 0x13 DUP2 MSTORE PUSH19 0x1CD9595C97DD1A1C995CDA1BDB191CD7DCD95D PUSH1 0x6A SHL PUSH1 0x20 DUP3 ADD MSTORE PUSH2 0x6AF9 JUMP JUMPDEST PUSH1 0x64 PUSH1 0x40 MLOAD PUSH3 0x461BCD PUSH1 0xE5 SHL DUP2 MSTORE PUSH1 0x20 PUSH1 0x4 DUP3 ADD MSTORE PUSH1 0x20 PUSH1 0x24 DUP3 ADD MSTORE PUSH32 0x534545523A206D65726368616E74207468726573686F6C6420746F6F206C6F77 PUSH1 0x44 DUP3 ADD MSTORE REVERT JUMPDEST PUSH1 0x40 MLOAD PUSH3 0x461BCD PUSH1 0xE5 SHL DUP2 MSTORE PUSH1 0x20 PUSH1 0x4 DUP3 ADD MSTORE PUSH1 0x22 PUSH1 0x24 DUP3 ADD MSTORE PUSH32 0x534545523A20676F7665726E616E6365207468726573686F6C6420746F6F206C PUSH1 0x44 DUP3 ADD MSTORE PUSH2 0x6F77 PUSH1 0xF0 SHL PUSH1 0x64 DUP3 ADD MSTORE PUSH1 0x84 SWAP1 REVERT JUMPDEST PUSH1 0x40 MLOAD PUSH3 0x461BCD PUSH1 0xE5 SHL DUP2 MSTORE PUSH1 0x20 PUSH1 0x4 DUP3 ADD MSTORE PUSH1 0x1D PUSH1 0x24 DUP3 ADD MSTORE PUSH32 0x534545523A2068696768207468726573686F6C6420746F6F2068696768000000 PUSH1 0x44 DUP3 ADD MSTORE PUSH1 0x64 SWAP1 REVERT JUMPDEST PUSH1 0x40 MLOAD PUSH3 0x461BCD PUSH1 0xE5 SHL DUP2 MSTORE PUSH1 0x20 PUSH1 0x4 DUP3 ADD MSTORE PUSH1 0x1B PUSH1 0x24 DUP3 ADD MSTORE PUSH27 0x534545523A206C6F77207468726573686F6C6420746F6F206C6F77 PUSH1 0x28 SHL PUSH1 0x44 DUP3 ADD MSTORE PUSH1 0x64 SWAP1 REVERT JUMPDEST CALLVALUE PUSH2 0x482 JUMPI PUSH1 0x0 CALLDATASIZE PUSH1 0x3 NOT ADD SLT PUSH2 0x482 JUMPI PUSH1 0x20 PUSH1 0xFF PUSH1 0x1A SLOAD AND PUSH1 0x40 MLOAD SWAP1 ISZERO ISZERO DUP2 MSTORE RETURN JUMPDEST CALLVALUE PUSH2 0x482 JUMPI PUSH2 0x4CF6 CALLDATASIZE PUSH2 0x500C JUMP JUMPDEST SWAP2 SWAP3 PUSH1 0x1 DUP1 PUSH1 0xA0 SHL SUB PUSH1 0x0 SLOAD AND CALLER EQ ISZERO DUP1 PUSH2 0x4D85 JUMPI JUMPDEST PUSH2 0x4487 JUMPI PUSH1 0xFF PUSH1 0x13 SLOAD AND PUSH2 0x5BC JUMPI PUSH2 0xFFFF DUP1 PUSH1 0x17 SLOAD PUSH1 0x10 SHR AND SWAP5 AND SWAP4 DUP5 GT PUSH2 0x4D40 JUMPI PUSH2 0x4D3A PUSH2 0x543 SWAP5 PUSH2 0x54F1 JUMP JUMPDEST SWAP1 PUSH2 0x6786 JUMP JUMPDEST PUSH1 0x40 MLOAD PUSH3 0x461BCD PUSH1 0xE5 SHL DUP2 MSTORE PUSH1 0x20 PUSH1 0x4 DUP3 ADD MSTORE PUSH1 0x1F PUSH1 0x24 DUP3 ADD MSTORE PUSH32 0x534545523A2070756E6973682065786365656473206D61782073696E676C6500 PUSH1 0x44 DUP3 ADD MSTORE PUSH1 0x64 SWAP1 REVERT JUMPDEST POP CALLER PUSH1 0x0 MSTORE PUSH1 0x12 PUSH1 0x20 MSTORE PUSH1 0xFF PUSH1 0x40 PUSH1 0x0 KECCAK256 SLOAD AND ISZERO PUSH2 0x4D0C JUMP JUMPDEST CALLVALUE PUSH2 0x482 JUMPI PUSH1 0x20 CALLDATASIZE PUSH1 0x3 NOT ADD SLT PUSH2 0x482 JUMPI PUSH1 0x60 PUSH2 0xFFFF PUSH2 0x4DC4 PUSH2 0x4DBF PUSH2 0x4F42 JUMP JUMPDEST PUSH2 0x5394 JUMP JUMPDEST SWAP1 DUP4 PUSH1 0x40 SWAP5 SWAP4 SWAP5 MLOAD SWAP5 AND DUP5 MSTORE PUSH1 0x1 DUP1 PUSH1 0x40 SHL SUB AND PUSH1 0x20 DUP5 ADD MSTORE AND PUSH1 0x40 DUP3 ADD MSTORE RETURN JUMPDEST CALLVALUE PUSH2 0x482 JUMPI PUSH1 0x80 CALLDATASIZE PUSH1 0x3 NOT ADD SLT PUSH2 0x482 JUMPI PUSH2 0x543 PUSH2 0x4E01 PUSH2 0x4F42 JUMP JUMPDEST PUSH1 0x24 CALLDATALOAD PUSH2 0x4E0C PUSH2 0x4F6E JUMP JUMPDEST PUSH1 0x64 CALLDATALOAD PUSH2 0x4E17 PUSH2 0x661B JUMP JUMPDEST PUSH1 0x1 DUP1 PUSH1 0xA0 SHL SUB DUP5 AND DUP1 PUSH1 0x0 MSTORE PUSH1 0x6 PUSH1 0x20 MSTORE PUSH1 0x40 PUSH1 0x0 KECCAK256 DUP5 PUSH1 0x0 MSTORE PUSH1 0x20 MSTORE PUSH2 0x4E43 DUP4 PUSH1 0x40 PUSH1 0x0 KECCAK256 PUSH2 0x532C JUMP JUMPDEST DUP3 DUP1 PUSH2 0x4F12 JUMPI JUMPDEST ISZERO PUSH2 0x4EE2 JUMPI PUSH1 0x0 MSTORE PUSH1 0x7 PUSH1 0x20 MSTORE PUSH1 0x40 PUSH1 0x0 KECCAK256 DUP4 PUSH1 0x0 MSTORE PUSH1 0x20 MSTORE PUSH1 0x40 PUSH1 0x0 KECCAK256 SSTORE JUMPDEST PUSH1 0x0 SWAP1 ISZERO PUSH2 0x4EB4 JUMPI POP PUSH1 0x40 MLOAD PUSH2 0x4E81 PUSH1 0x40 DUP3 PUSH2 0x50B2 JUMP JUMPDEST PUSH1 0xD DUP2 MSTORE PUSH13 0x18985919D957D9DC985B9D1959 PUSH1 0x9A SHL PUSH1 0x20 DUP3 ADD MSTORE JUMPDEST PUSH1 0x40 MLOAD SWAP3 PUSH2 0x4EAB PUSH1 0x20 DUP6 PUSH2 0x50B2 JUMP JUMPDEST PUSH1 0x0 DUP5 MSTORE PUSH2 0x66E1 JUMP JUMPDEST POP PUSH1 0x40 MLOAD PUSH2 0x4EC3 PUSH1 0x40 DUP3 PUSH2 0x50B2 JUMP JUMPDEST PUSH1 0xD DUP2 MSTORE PUSH13 0x18985919D957DC995D9BDAD959 PUSH1 0x9A SHL PUSH1 0x20 DUP3 ADD MSTORE PUSH2 0x4E9C JUMP JUMPDEST SWAP1 POP DUP2 ISZERO PUSH2 0x4EF1 JUMPI JUMPDEST POP PUSH2 0x4E6A JUMP JUMPDEST PUSH1 0x0 MSTORE PUSH1 0x7 PUSH1 0x20 MSTORE PUSH1 0x40 PUSH1 0x0 KECCAK256 DUP3 PUSH1 0x0 MSTORE PUSH1 0x20 MSTORE PUSH1 0x0 PUSH1 0x40 DUP2 KECCAK256 SSTORE DUP5 PUSH2 0x4EEB JUMP JUMPDEST POP DUP2 ISZERO ISZERO PUSH2 0x4E4A JUMP JUMPDEST CALLVALUE PUSH2 0x482 JUMPI PUSH1 0x0 CALLDATASIZE PUSH1 0x3 NOT ADD SLT PUSH2 0x482 JUMPI PUSH1 0xD SLOAD PUSH1 0x90 SHR PUSH1 0x1 PUSH1 0x1 PUSH1 0x40 SHL SUB AND DUP2 MSTORE PUSH1 0x20 SWAP1 RETURN JUMPDEST PUSH1 0x4 CALLDATALOAD SWAP1 PUSH1 0x1 PUSH1 0x1 PUSH1 0xA0 SHL SUB DUP3 AND DUP3 SUB PUSH2 0x482 JUMPI JUMP JUMPDEST PUSH1 0x24 CALLDATALOAD SWAP1 PUSH1 0x1 PUSH1 0x1 PUSH1 0xA0 SHL SUB DUP3 AND DUP3 SUB PUSH2 0x482 JUMPI JUMP JUMPDEST PUSH1 0x44 CALLDATALOAD SWAP1 DUP2 ISZERO ISZERO DUP3 SUB PUSH2 0x482 JUMPI JUMP JUMPDEST PUSH1 0x4 CALLDATALOAD SWAP1 DUP2 ISZERO ISZERO DUP3 SUB PUSH2 0x482 JUMPI JUMP JUMPDEST PUSH1 0x24 CALLDATALOAD SWAP1 DUP2 ISZERO ISZERO DUP3 SUB PUSH2 0x482 JUMPI JUMP JUMPDEST PUSH1 0x4 CALLDATALOAD SWAP1 PUSH2 0xFFFF DUP3 AND DUP3 SUB PUSH2 0x482 JUMPI JUMP JUMPDEST PUSH1 0x24 CALLDATALOAD SWAP1 PUSH2 0xFFFF DUP3 AND DUP3 SUB PUSH2 0x482 JUMPI JUMP JUMPDEST PUSH1 0x44 CALLDATALOAD SWAP1 PUSH2 0xFFFF DUP3 AND DUP3 SUB PUSH2 0x482 JUMPI JUMP JUMPDEST PUSH1 0x64 CALLDATALOAD SWAP1 PUSH2 0xFFFF DUP3 AND DUP3 SUB PUSH2 0x482 JUMPI JUMP JUMPDEST SWAP2 DUP2 PUSH1 0x1F DUP5 ADD SLT ISZERO PUSH2 0x482 JUMPI DUP3 CALLDATALOAD SWAP2 PUSH1 0x1 PUSH1 0x1 PUSH1 0x40 SHL SUB DUP4 GT PUSH2 0x482 JUMPI PUSH1 0x20 DUP4 DUP2 DUP7 ADD SWAP6 ADD ADD GT PUSH2 0x482 JUMPI JUMP JUMPDEST PUSH1 0x60 PUSH1 0x3 NOT DUP3 ADD SLT PUSH2 0x482 JUMPI PUSH1 0x4 CALLDATALOAD PUSH1 0x1 PUSH1 0x1 PUSH1 0xA0 SHL SUB DUP2 AND DUP2 SUB PUSH2 0x482 JUMPI SWAP2 PUSH1 0x24 CALLDATALOAD PUSH2 0xFFFF DUP2 AND DUP2 SUB PUSH2 0x482 JUMPI SWAP2 PUSH1 0x44 CALLDATALOAD SWAP1 PUSH1 0x1 PUSH1 0x1 PUSH1 0x40 SHL SUB DUP3 GT PUSH2 0x482 JUMPI PUSH2 0x5059 SWAP2 PUSH1 0x4 ADD PUSH2 0x4FDF JUMP JUMPDEST SWAP1 SWAP2 JUMP JUMPDEST SWAP1 PUSH1 0x1 DUP3 DUP2 SHR SWAP3 AND DUP1 ISZERO PUSH2 0x508D JUMPI JUMPDEST PUSH1 0x20 DUP4 LT EQ PUSH2 0x5077 JUMPI JUMP JUMPDEST PUSH4 0x4E487B71 PUSH1 0xE0 SHL PUSH1 0x0 MSTORE PUSH1 0x22 PUSH1 0x4 MSTORE PUSH1 0x24 PUSH1 0x0 REVERT JUMPDEST SWAP2 PUSH1 0x7F AND SWAP2 PUSH2 0x506C JUMP JUMPDEST PUSH1 0x80 DUP2 ADD SWAP1 DUP2 LT PUSH1 0x1 PUSH1 0x1 PUSH1 0x40 SHL SUB DUP3 GT OR PUSH2 0x1892 JUMPI PUSH1 0x40 MSTORE JUMP JUMPDEST PUSH1 0x1F SWAP1 SWAP2 ADD PUSH1 0x1F NOT AND DUP2 ADD SWAP1 PUSH1 0x1 PUSH1 0x1 PUSH1 0x40 SHL SUB DUP3 GT SWAP1 DUP3 LT OR PUSH2 0x1892 JUMPI PUSH1 0x40 MSTORE JUMP JUMPDEST SWAP1 PUSH1 0x40 MLOAD SWAP2 DUP3 PUSH1 0x0 DUP3 SLOAD SWAP3 PUSH2 0x50E9 DUP5 PUSH2 0x505D JUMP JUMPDEST DUP1 DUP5 MSTORE SWAP4 PUSH1 0x1 DUP2 AND SWAP1 DUP2 ISZERO PUSH2 0x5157 JUMPI POP PUSH1 0x1 EQ PUSH2 0x5110 JUMPI JUMPDEST POP PUSH2 0x510E SWAP3 POP SUB DUP4 PUSH2 0x50B2 JUMP JUMPDEST JUMP JUMPDEST SWAP1 POP PUSH1 0x0 SWAP3 SWAP2 SWAP3 MSTORE PUSH1 0x20 PUSH1 0x0 KECCAK256 SWAP1 PUSH1 0x0 SWAP2 JUMPDEST DUP2 DUP4 LT PUSH2 0x513B JUMPI POP POP SWAP1 PUSH1 0x20 PUSH2 0x510E SWAP3 DUP3 ADD ADD CODESIZE PUSH2 0x5101 JUMP JUMPDEST PUSH1 0x20 SWAP2 SWAP4 POP DUP1 PUSH1 0x1 SWAP2 SLOAD DUP4 DUP6 DUP10 ADD ADD MSTORE ADD SWAP2 ADD SWAP1 SWAP2 DUP5 SWAP3 PUSH2 0x5122 JUMP JUMPDEST SWAP1 POP PUSH1 0x20 SWAP3 POP PUSH2 0x510E SWAP5 SWAP2 POP PUSH1 0xFF NOT AND DUP3 DUP5 ADD MSTORE ISZERO ISZERO PUSH1 0x5 SHL DUP3 ADD ADD CODESIZE PUSH2 0x5101 JUMP JUMPDEST SWAP2 SWAP1 DUP3 MLOAD SWAP3 DUP4 DUP3 MSTORE PUSH1 0x0 JUMPDEST DUP5 DUP2 LT PUSH2 0x51A5 JUMPI POP POP DUP3 PUSH1 0x0 PUSH1 0x20 DUP1 SWAP5 SWAP6 DUP5 ADD ADD MSTORE PUSH1 0x1F DUP1 NOT SWAP2 ADD AND ADD ADD SWAP1 JUMP JUMPDEST DUP1 PUSH1 0x20 DUP1 SWAP3 DUP5 ADD ADD MLOAD DUP3 DUP3 DUP7 ADD ADD MSTORE ADD PUSH2 0x5184 JUMP JUMPDEST SWAP2 DUP2 PUSH1 0x1F DUP5 ADD SLT ISZERO PUSH2 0x482 JUMPI DUP3 CALLDATALOAD SWAP2 PUSH1 0x1 PUSH1 0x1 PUSH1 0x40 SHL SUB DUP4 GT PUSH2 0x482 JUMPI PUSH1 0x20 DUP1 DUP6 ADD SWAP5 DUP5 PUSH1 0x5 SHL ADD ADD GT PUSH2 0x482 JUMPI JUMP JUMPDEST SWAP1 PUSH1 0x40 PUSH1 0x3 NOT DUP4 ADD SLT PUSH2 0x482 JUMPI PUSH1 0x4 CALLDATALOAD PUSH1 0x1 PUSH1 0x1 PUSH1 0xA0 SHL SUB DUP2 AND DUP2 SUB PUSH2 0x482 JUMPI SWAP2 PUSH1 0x24 CALLDATALOAD SWAP1 PUSH1 0x1 PUSH1 0x1 PUSH1 0x40 SHL SUB DUP3 GT PUSH2 0x482 JUMPI PUSH2 0x5059 SWAP2 PUSH1 0x4 ADD PUSH2 0x4FDF JUMP JUMPDEST DUP1 SLOAD DUP3 LT ISZERO PUSH2 0x5245 JUMPI PUSH1 0x0 MSTORE PUSH1 0x20 PUSH1 0x0 KECCAK256 SWAP1 PUSH1 0x1 SHL ADD SWAP1 PUSH1 0x0 SWAP1 JUMP JUMPDEST PUSH4 0x4E487B71 PUSH1 0xE0 SHL PUSH1 0x0 MSTORE PUSH1 0x32 PUSH1 0x4 MSTORE PUSH1 0x24 PUSH1 0x0 REVERT JUMPDEST PUSH1 0x1B SLOAD DUP2 LT ISZERO PUSH2 0x5245 JUMPI PUSH1 0x1B PUSH1 0x0 MSTORE PUSH1 0x3 PUSH1 0x20 PUSH1 0x0 KECCAK256 SWAP2 MUL ADD SWAP1 PUSH1 0x0 SWAP1 JUMP JUMPDEST SWAP1 PUSH1 0x20 DUP1 DUP4 MLOAD SWAP3 DUP4 DUP2 MSTORE ADD SWAP3 ADD SWAP1 PUSH1 0x0 JUMPDEST DUP2 DUP2 LT PUSH2 0x5298 JUMPI POP POP POP SWAP1 JUMP JUMPDEST DUP3 MLOAD PUSH1 0x1 PUSH1 0x1 PUSH1 0xA0 SHL SUB AND DUP5 MSTORE PUSH1 0x20 SWAP4 DUP5 ADD SWAP4 SWAP1 SWAP3 ADD SWAP2 PUSH1 0x1 ADD PUSH2 0x528B JUMP JUMPDEST SWAP1 PUSH1 0x20 DUP1 DUP4 MLOAD SWAP3 DUP4 DUP2 MSTORE ADD SWAP3 ADD SWAP1 PUSH1 0x0 JUMPDEST DUP2 DUP2 LT PUSH2 0x52D5 JUMPI POP POP POP SWAP1 JUMP JUMPDEST DUP3 MLOAD PUSH2 0xFFFF AND DUP5 MSTORE PUSH1 0x20 SWAP4 DUP5 ADD SWAP4 SWAP1 SWAP3 ADD SWAP2 PUSH1 0x1 ADD PUSH2 0x52C8 JUMP JUMPDEST SWAP1 PUSH1 0x20 DUP1 DUP4 MLOAD SWAP3 DUP4 DUP2 MSTORE ADD SWAP3 ADD SWAP1 PUSH1 0x0 JUMPDEST DUP2 DUP2 LT PUSH2 0x530D JUMPI POP POP POP SWAP1 JUMP JUMPDEST DUP3 MLOAD PUSH1 0x1 PUSH1 0x1 PUSH1 0x40 SHL SUB AND DUP5 MSTORE PUSH1 0x20 SWAP4 DUP5 ADD SWAP4 SWAP1 SWAP3 ADD SWAP2 PUSH1 0x1 ADD PUSH2 0x5300 JUMP JUMPDEST SWAP1 PUSH1 0xFF DUP1 NOT DUP4 SLOAD AND SWAP2 ISZERO ISZERO AND OR SWAP1 SSTORE JUMP JUMPDEST PUSH1 0x1 PUSH1 0x1 PUSH1 0x40 SHL SUB SWAP2 DUP3 AND SWAP1 DUP3 AND SUB SWAP2 SWAP1 DUP3 GT PUSH2 0x1D56 JUMPI JUMP JUMPDEST PUSH2 0xFFFF PUSH1 0xA SWAP2 AND ADD SWAP1 PUSH2 0xFFFF DUP3 GT PUSH2 0x1D56 JUMPI JUMP JUMPDEST PUSH2 0xFFFF PUSH1 0x1 SWAP2 AND ADD SWAP1 PUSH2 0xFFFF DUP3 GT PUSH2 0x1D56 JUMPI JUMP JUMPDEST SWAP1 PUSH2 0xFFFF DUP1 SWAP2 AND SWAP2 AND ADD SWAP1 PUSH2 0xFFFF DUP3 GT PUSH2 0x1D56 JUMPI JUMP JUMPDEST PUSH2 0x539D DUP2 PUSH2 0x6555 JUMP JUMPDEST PUSH1 0x1 PUSH1 0x1 PUSH1 0xA0 SHL SUB SWAP1 SWAP2 AND PUSH1 0x0 SWAP1 DUP2 MSTORE PUSH1 0x19 PUSH1 0x20 MSTORE PUSH1 0x40 SWAP1 KECCAK256 SLOAD PUSH1 0x1 PUSH1 0x1 PUSH1 0x40 SHL SUB AND DUP1 ISZERO DUP1 ISZERO PUSH2 0x54E4 JUMPI JUMPDEST PUSH2 0x54DA JUMPI PUSH3 0x15180 SWAP1 PUSH2 0x53E5 SWAP1 TIMESTAMP PUSH1 0x1 PUSH1 0x1 PUSH1 0x40 SHL SUB AND PUSH2 0x533D JUMP JUMPDEST PUSH1 0x1A SLOAD PUSH1 0x1 PUSH1 0x1 PUSH1 0x40 SHL SUB SWAP2 DUP3 AND SWAP3 SWAP1 SWAP3 DIV SWAP3 SWAP2 SWAP1 PUSH1 0x8 DUP3 SWAP1 SHR DUP2 AND SWAP1 DUP5 SWAP1 DUP2 AND DUP3 GT PUSH2 0x54CE JUMPI POP PUSH1 0x1E PUSH2 0x541C PUSH2 0xFFFF SWAP3 DUP7 PUSH2 0x533D JUMP JUMPDEST PUSH1 0x1 DUP1 PUSH1 0x40 SHL SUB AND DIV SWAP2 PUSH1 0x48 SHR AND SWAP1 PUSH1 0x1 DUP1 PUSH1 0x40 SHL SUB AND MUL DUP1 PUSH1 0x1 DUP1 PUSH1 0x40 SHL SUB DUP2 AND SUB PUSH2 0x1D56 JUMPI PUSH2 0xFFFF AND SWAP1 PUSH2 0xFFFF DUP2 AND SWAP1 PUSH2 0x1388 DUP3 GT PUSH1 0x0 EQ PUSH2 0x548D JUMPI POP PUSH2 0x1387 NOT DUP2 ADD SWAP1 PUSH2 0xFFFF DUP3 GT PUSH2 0x1D56 JUMPI DUP3 SWAP2 PUSH2 0xFFFF AND DUP3 GT ISZERO PUSH2 0x5480 JUMPI POP POP PUSH2 0x1388 SWAP3 JUMP JUMPDEST SUB PUSH2 0xFFFF DUP2 GT PUSH2 0x1D56 JUMPI SWAP3 JUMP JUMPDEST SWAP1 PUSH2 0x1388 DUP2 LT ISZERO PUSH2 0x54C6 JUMPI PUSH2 0x1388 SUB PUSH2 0xFFFF DUP2 GT PUSH2 0x1D56 JUMPI DUP3 SWAP1 PUSH2 0xFFFF AND DUP2 GT ISZERO PUSH2 0x54BA JUMPI POP POP PUSH2 0x1388 SWAP3 JUMP JUMPDEST PUSH2 0x54C3 SWAP2 PUSH2 0x537E JUMP JUMPDEST SWAP3 JUMP JUMPDEST POP POP PUSH2 0x1388 SWAP3 JUMP JUMPDEST SWAP5 SWAP4 POP POP POP SWAP2 SWAP1 PUSH1 0x0 SWAP1 JUMP JUMPDEST POP SWAP1 PUSH1 0x0 SWAP1 PUSH1 0x0 SWAP1 JUMP JUMPDEST POP PUSH1 0xFF PUSH1 0x1A SLOAD AND ISZERO PUSH2 0x53C9 JUMP JUMPDEST PUSH1 0x1 PUSH1 0xFF SHL DUP2 EQ PUSH2 0x1D56 JUMPI PUSH1 0x0 SUB SWAP1 JUMP JUMPDEST SWAP1 PUSH4 0xFFFF0000 DUP3 SLOAD SWAP2 PUSH1 0x10 SHL AND SWAP1 PUSH4 0xFFFF0000 NOT AND OR SWAP1 SSTORE JUMP JUMPDEST ISZERO PUSH2 0x5523 JUMPI JUMP JUMPDEST PUSH1 0x40 MLOAD PUSH3 0x461BCD PUSH1 0xE5 SHL DUP2 MSTORE PUSH1 0x20 PUSH1 0x4 DUP3 ADD MSTORE PUSH1 0x1B PUSH1 0x24 DUP3 ADD MSTORE PUSH27 0xA68A8AA47440D2DCECC2D8D2C840E4CAC2E6DEDC40D8CADCCEE8D PUSH1 0x2B SHL PUSH1 0x44 DUP3 ADD MSTORE PUSH1 0x64 SWAP1 REVERT JUMPDEST SWAP2 SWAP3 SWAP2 PUSH1 0x1 PUSH1 0x1 PUSH1 0x40 SHL SUB DUP3 GT PUSH2 0x1892 JUMPI PUSH1 0x40 MLOAD SWAP2 PUSH2 0x558F PUSH1 0x1F DUP3 ADD PUSH1 0x1F NOT AND PUSH1 0x20 ADD DUP5 PUSH2 0x50B2 JUMP JUMPDEST DUP3 SWAP5 DUP2 DUP5 MSTORE DUP2 DUP4 ADD GT PUSH2 0x482 JUMPI DUP3 DUP2 PUSH1 0x20 SWAP4 DUP5 PUSH1 0x0 SWAP7 ADD CALLDATACOPY ADD ADD MSTORE JUMP JUMPDEST PUSH1 0x1F DUP3 GT PUSH2 0x55B9 JUMPI POP POP POP JUMP JUMPDEST PUSH1 0x0 MSTORE PUSH1 0x20 PUSH1 0x0 KECCAK256 SWAP1 PUSH1 0x20 PUSH1 0x1F DUP5 ADD PUSH1 0x5 SHR DUP4 ADD SWAP4 LT PUSH2 0x55F4 JUMPI JUMPDEST PUSH1 0x1F ADD PUSH1 0x5 SHR ADD SWAP1 JUMPDEST DUP2 DUP2 LT PUSH2 0x55E8 JUMPI POP POP JUMP JUMPDEST PUSH1 0x0 DUP2 SSTORE PUSH1 0x1 ADD PUSH2 0x55DD JUMP JUMPDEST SWAP1 SWAP2 POP DUP2 SWAP1 PUSH2 0x55D4 JUMP JUMPDEST DUP2 PUSH1 0x1 SHL SWAP2 PUSH1 0x0 NOT SWAP1 PUSH1 0x3 SHL SHR NOT AND OR SWAP1 JUMP JUMPDEST DUP1 SLOAD PUSH1 0xFF PUSH1 0x40 SHL NOT AND SWAP2 ISZERO ISZERO PUSH1 0x40 SHL PUSH1 0xFF PUSH1 0x40 SHL AND SWAP2 SWAP1 SWAP2 OR SWAP1 SSTORE JUMP JUMPDEST DUP1 SLOAD PUSH1 0xFF PUSH1 0x48 SHL NOT AND SWAP2 ISZERO ISZERO PUSH1 0x48 SHL PUSH1 0xFF PUSH1 0x48 SHL AND SWAP2 SWAP1 SWAP2 OR SWAP1 SSTORE JUMP JUMPDEST PUSH1 0x0 NOT DUP2 EQ PUSH2 0x1D56 JUMPI PUSH1 0x1 ADD SWAP1 JUMP JUMPDEST SWAP1 DUP1 PUSH1 0x20 SWAP4 SWAP3 DUP2 DUP5 MSTORE DUP5 DUP5 ADD CALLDATACOPY PUSH1 0x0 DUP3 DUP3 ADD DUP5 ADD MSTORE PUSH1 0x1F ADD PUSH1 0x1F NOT AND ADD ADD SWAP1 JUMP JUMPDEST SWAP1 DUP2 PUSH1 0x20 SWAP2 SUB SLT PUSH2 0x482 JUMPI MLOAD PUSH1 0x1 PUSH1 0x1 PUSH1 0xA0 SHL SUB DUP2 AND DUP2 SUB PUSH2 0x482 JUMPI SWAP1 JUMP JUMPDEST PUSH2 0xFFFF PUSH2 0x56BC SWAP6 SWAP4 DUP2 PUSH1 0x60 SWAP5 AND DUP4 MSTORE AND PUSH1 0x20 DUP3 ADD MSTORE DUP2 PUSH1 0x40 DUP3 ADD MSTORE ADD SWAP2 PUSH2 0x565A JUMP JUMPDEST SWAP1 JUMP JUMPDEST SWAP2 SWAP1 SWAP2 PUSH1 0x0 DUP4 DUP3 ADD SWAP4 DUP5 SLT SWAP2 SLT SWAP1 DUP1 ISZERO DUP3 AND SWAP2 ISZERO AND OR PUSH2 0x1D56 JUMPI JUMP JUMPDEST DUP1 ISZERO PUSH2 0x1D56 JUMPI PUSH1 0x0 NOT ADD SWAP1 JUMP JUMPDEST ISZERO PUSH2 0x56EF JUMPI JUMP JUMPDEST PUSH1 0x40 MLOAD PUSH3 0x461BCD PUSH1 0xE5 SHL DUP2 MSTORE PUSH1 0x20 PUSH1 0x4 DUP3 ADD MSTORE PUSH1 0x18 PUSH1 0x24 DUP3 ADD MSTORE PUSH24 0x534545523A20696E76616C69642062617463682073697A65 PUSH1 0x40 SHL PUSH1 0x44 DUP3 ADD MSTORE PUSH1 0x64 SWAP1 REVERT JUMPDEST SWAP2 SWAP1 DUP2 LT ISZERO PUSH2 0x5245 JUMPI PUSH1 0x5 SHL ADD SWAP1 JUMP JUMPDEST CALLDATALOAD PUSH1 0x1 PUSH1 0x1 PUSH1 0xA0 SHL SUB DUP2 AND DUP2 SUB PUSH2 0x482 JUMPI SWAP1 JUMP JUMPDEST SWAP2 SWAP1 DUP3 ADD DUP1 SWAP3 GT PUSH2 0x1D56 JUMPI JUMP JUMPDEST DUP1 SLOAD DUP3 LT ISZERO PUSH2 0x5245 JUMPI PUSH1 0x0 MSTORE PUSH1 0x20 PUSH1 0x0 KECCAK256 ADD SWAP1 PUSH1 0x0 SWAP1 JUMP JUMPDEST DUP1 SLOAD SWAP2 SWAP1 PUSH1 0x1 PUSH1 0x40 SHL DUP4 LT ISZERO PUSH2 0x1892 JUMPI DUP3 PUSH2 0x316F SWAP2 PUSH1 0x1 PUSH2 0x510E SWAP6 ADD DUP2 SSTORE PUSH2 0x5760 JUMP JUMPDEST PUSH1 0x1 PUSH1 0x1 PUSH1 0x40 SHL SUB DUP2 GT PUSH2 0x1892 JUMPI PUSH1 0x5 SHL PUSH1 0x20 ADD SWAP1 JUMP JUMPDEST DUP1 MLOAD DUP3 LT ISZERO PUSH2 0x5245 JUMPI PUSH1 0x20 SWAP2 PUSH1 0x5 SHL ADD ADD SWAP1 JUMP JUMPDEST PUSH1 0x1 PUSH1 0x1 PUSH1 0xA0 SHL SUB DUP2 AND SWAP1 DUP2 ISZERO PUSH2 0x5ABD JUMPI PUSH1 0x2 SLOAD PUSH2 0x1388 SWAP3 PUSH1 0x1 PUSH1 0x1 PUSH1 0xA0 SHL SUB SWAP1 SWAP2 AND SWAP1 DUP2 PUSH2 0x5A52 JUMPI JUMPDEST POP POP PUSH1 0x0 SWAP2 PUSH2 0x57FE DUP3 PUSH2 0x5E1C JUMP JUMPDEST PUSH2 0x5A49 JUMPI JUMPDEST PUSH2 0x580C DUP3 PUSH2 0x5E8A JUMP JUMPDEST PUSH2 0x5A37 JUMPI JUMPDEST PUSH2 0x581A DUP3 PUSH2 0x5EF8 JUMP JUMPDEST PUSH2 0x5A25 JUMPI JUMPDEST PUSH2 0x5828 DUP3 PUSH2 0x5F66 JUMP JUMPDEST PUSH2 0x5A13 JUMPI JUMPDEST PUSH2 0x5836 DUP3 PUSH2 0x5FD4 JUMP JUMPDEST PUSH2 0x5A01 JUMPI JUMPDEST PUSH2 0x5844 DUP3 PUSH2 0x6042 JUMP JUMPDEST PUSH2 0x59EF JUMPI JUMPDEST PUSH2 0x5852 DUP3 PUSH2 0x60B0 JUMP JUMPDEST PUSH2 0x59DD JUMPI JUMPDEST PUSH2 0x5860 DUP3 PUSH2 0x5DA1 JUMP JUMPDEST PUSH2 0x59CB JUMPI JUMPDEST PUSH2 0x586E DUP3 PUSH2 0x611E JUMP JUMPDEST PUSH2 0x59B9 JUMPI JUMPDEST PUSH2 0x587C DUP3 PUSH2 0x618C JUMP JUMPDEST PUSH2 0x59A7 JUMPI JUMPDEST PUSH2 0x588A DUP3 PUSH2 0x61FA JUMP JUMPDEST PUSH2 0x5995 JUMPI JUMPDEST PUSH2 0x5898 DUP3 PUSH2 0x6268 JUMP JUMPDEST PUSH2 0x5983 JUMPI JUMPDEST PUSH2 0x58A6 DUP3 PUSH2 0x62D6 JUMP JUMPDEST PUSH2 0x5971 JUMPI JUMPDEST PUSH2 0x58B4 DUP3 PUSH2 0x6344 JUMP JUMPDEST PUSH2 0x595F JUMPI JUMPDEST PUSH2 0x58C2 DUP3 PUSH2 0x63B2 JUMP JUMPDEST PUSH2 0x594D JUMPI JUMPDEST PUSH2 0x58D0 DUP3 PUSH2 0x6420 JUMP JUMPDEST PUSH2 0x593B JUMPI JUMPDEST PUSH2 0x58DE DUP3 PUSH2 0x648E JUMP JUMPDEST PUSH2 0x5919 JUMPI JUMPDEST PUSH2 0x58F3 PUSH2 0x58FF SWAP4 PUSH2 0x58F9 SWAP3 PUSH2 0x5753 JUMP JUMPDEST SWAP2 PUSH2 0x6D6C JUMP JUMPDEST SWAP1 PUSH2 0x5753 JUMP JUMPDEST PUSH2 0x2710 DUP2 GT PUSH2 0x5910 JUMPI JUMPDEST PUSH2 0xFFFF AND SWAP1 JUMP JUMPDEST POP PUSH2 0x2710 PUSH2 0x5909 JUMP JUMPDEST PUSH1 0x1E DUP4 ADD DUP1 SWAP4 GT ISZERO PUSH2 0x58E3 JUMPI PUSH4 0x4E487B71 PUSH1 0xE0 SHL PUSH1 0x0 MSTORE PUSH1 0x11 PUSH1 0x4 MSTORE PUSH1 0x24 PUSH1 0x0 REVERT JUMPDEST SWAP2 PUSH1 0x28 DUP2 ADD DUP1 SWAP2 GT PUSH2 0x1D56 JUMPI SWAP2 PUSH2 0x58D5 JUMP JUMPDEST SWAP2 PUSH1 0x14 DUP2 ADD DUP1 SWAP2 GT PUSH2 0x1D56 JUMPI SWAP2 PUSH2 0x58C7 JUMP JUMPDEST SWAP2 PUSH1 0x28 DUP2 ADD DUP1 SWAP2 GT PUSH2 0x1D56 JUMPI SWAP2 PUSH2 0x58B9 JUMP JUMPDEST SWAP2 PUSH1 0x32 DUP2 ADD DUP1 SWAP2 GT PUSH2 0x1D56 JUMPI SWAP2 PUSH2 0x58AB JUMP JUMPDEST SWAP2 PUSH1 0x32 DUP2 ADD DUP1 SWAP2 GT PUSH2 0x1D56 JUMPI SWAP2 PUSH2 0x589D JUMP JUMPDEST SWAP2 PUSH1 0x3C DUP2 ADD DUP1 SWAP2 GT PUSH2 0x1D56 JUMPI SWAP2 PUSH2 0x588F JUMP JUMPDEST SWAP2 PUSH1 0x28 DUP2 ADD DUP1 SWAP2 GT PUSH2 0x1D56 JUMPI SWAP2 PUSH2 0x5881 JUMP JUMPDEST SWAP2 PUSH1 0x23 DUP2 ADD DUP1 SWAP2 GT PUSH2 0x1D56 JUMPI SWAP2 PUSH2 0x5873 JUMP JUMPDEST SWAP2 PUSH1 0x1E DUP2 ADD DUP1 SWAP2 GT PUSH2 0x1D56 JUMPI SWAP2 PUSH2 0x5865 JUMP JUMPDEST SWAP2 PUSH1 0x28 DUP2 ADD DUP1 SWAP2 GT PUSH2 0x1D56 JUMPI SWAP2 PUSH2 0x5857 JUMP JUMPDEST SWAP2 PUSH1 0x19 DUP2 ADD DUP1 SWAP2 GT PUSH2 0x1D56 JUMPI SWAP2 PUSH2 0x5849 JUMP JUMPDEST SWAP2 PUSH1 0x14 DUP2 ADD DUP1 SWAP2 GT PUSH2 0x1D56 JUMPI SWAP2 PUSH2 0x583B JUMP JUMPDEST SWAP2 PUSH1 0x19 DUP2 ADD DUP1 SWAP2 GT PUSH2 0x1D56 JUMPI SWAP2 PUSH2 0x582D JUMP JUMPDEST SWAP2 PUSH1 0x32 DUP2 ADD DUP1 SWAP2 GT PUSH2 0x1D56 JUMPI SWAP2 PUSH2 0x581F JUMP JUMPDEST SWAP2 PUSH1 0x28 DUP2 ADD DUP1 SWAP2 GT PUSH2 0x1D56 JUMPI SWAP2 PUSH2 0x5811 JUMP JUMPDEST PUSH1 0x1E SWAP3 POP PUSH2 0x5803 JUMP JUMPDEST PUSH1 0x20 SWAP1 PUSH1 0x24 PUSH1 0x40 MLOAD DUP1 SWAP5 DUP2 SWAP4 PUSH4 0x709DF45 PUSH1 0xE0 SHL DUP4 MSTORE PUSH1 0x4 DUP4 ADD MSTORE GAS STATICCALL SWAP1 DUP2 ISZERO PUSH2 0x4192 JUMPI PUSH1 0x0 SWAP2 PUSH2 0x5A9E JUMPI JUMPDEST POP PUSH1 0x1 PUSH1 0x1 PUSH1 0xA0 SHL SUB AND PUSH2 0x5A94 JUMPI JUMPDEST CODESIZE DUP1 PUSH2 0x57F0 JUMP JUMPDEST PUSH2 0x157C SWAP2 POP PUSH2 0x5A8D JUMP JUMPDEST PUSH2 0x5AB7 SWAP2 POP PUSH1 0x20 RETURNDATASIZE PUSH1 0x20 GT PUSH2 0x418B JUMPI PUSH2 0x417D DUP2 DUP4 PUSH2 0x50B2 JUMP JUMPDEST CODESIZE PUSH2 0x5A7E JUMP JUMPDEST POP POP PUSH2 0x1388 SWAP1 JUMP JUMPDEST MLOAD SWAP1 PUSH2 0xFFFF DUP3 AND DUP3 SUB PUSH2 0x482 JUMPI JUMP JUMPDEST DUP2 DUP2 MUL SWAP3 SWAP2 DUP2 ISZERO SWAP2 DUP5 DIV EQ OR ISZERO PUSH2 0x1D56 JUMPI JUMP JUMPDEST PUSH1 0x1 PUSH1 0x1 PUSH1 0xA0 SHL SUB DUP2 AND DUP1 ISZERO PUSH2 0x5ABD JUMPI PUSH1 0x0 SWAP2 DUP3 SWAP2 DUP4 SWAP1 PUSH1 0x1B SLOAD SWAP2 JUMPDEST DUP3 DUP2 LT PUSH2 0x5B82 JUMPI POP POP POP PUSH2 0x5B16 SWAP1 PUSH2 0x57C6 JUMP JUMPDEST DUP3 PUSH1 0x64 SUB SWAP1 PUSH1 0x64 DUP3 GT PUSH2 0x1D56 JUMPI DUP4 PUSH1 0x64 SUB PUSH2 0x5B5F JUMPI JUMPDEST POP POP DUP2 ISZERO PUSH2 0x5ABD JUMPI DIV PUSH2 0x2710 DUP2 GT PUSH2 0x5B56 JUMPI JUMPDEST PUSH1 0xA DUP2 LT PUSH2 0x5B4E JUMPI PUSH2 0xFFFF AND SWAP1 JUMP JUMPDEST POP PUSH1 0xA PUSH2 0x5909 JUMP JUMPDEST POP PUSH2 0x2710 PUSH2 0x5B3F JUMP JUMPDEST PUSH2 0x5B7A SWAP3 PUSH2 0x58F9 DUP4 PUSH2 0xFFFF PUSH2 0x5B74 SWAP5 AND PUSH2 0x5AD4 JUMP JUMPDEST SWAP3 PUSH2 0x5753 JUMP JUMPDEST SWAP1 CODESIZE DUP1 PUSH2 0x5B2C JUMP JUMPDEST PUSH1 0xFF PUSH1 0x2 PUSH2 0x5B8F DUP4 PUSH2 0x525B JUMP JUMPDEST POP ADD SLOAD PUSH1 0x8 SHR AND ISZERO PUSH2 0x5C9F JUMPI PUSH1 0x24 PUSH1 0x40 PUSH2 0x5BA8 DUP4 PUSH2 0x525B JUMP JUMPDEST POP SLOAD DUP2 MLOAD PUSH4 0xBC0824A3 PUSH1 0xE0 SHL DUP2 MSTORE PUSH1 0x4 DUP2 ADD DUP7 SWAP1 MSTORE SWAP3 DUP4 SWAP2 DUP3 SWAP1 PUSH1 0x1 PUSH1 0x1 PUSH1 0xA0 SHL SUB AND GAS STATICCALL DUP1 PUSH1 0x0 SWAP3 DUP4 SWAP3 PUSH2 0x5C4B JUMPI JUMPDEST POP PUSH2 0x5BEA JUMPI JUMPDEST POP POP PUSH1 0x1 SWAP1 JUMPDEST ADD PUSH2 0x5B03 JUMP JUMPDEST PUSH1 0xFF AND SWAP1 DUP2 ISZERO ISZERO DUP1 PUSH2 0x5C3B JUMPI JUMPDEST ISZERO PUSH2 0x5BDE JUMPI PUSH2 0xFFFF SWAP1 SWAP8 SWAP7 SWAP2 SWAP3 SWAP8 AND SWAP2 PUSH1 0xA DUP4 MUL SWAP3 DUP1 DUP5 DIV PUSH1 0xA EQ SWAP1 ISZERO OR ISZERO PUSH2 0x1D56 JUMPI PUSH2 0x5C2D PUSH2 0x5C33 SWAP3 PUSH2 0x58F9 DUP4 PUSH1 0x1 SWAP7 PUSH2 0x5AD4 JUMP JUMPDEST SWAP7 PUSH2 0x5753 JUMP JUMPDEST SWAP6 SWAP1 CODESIZE PUSH2 0x5BDE JUMP JUMPDEST POP PUSH2 0x3E8 PUSH2 0xFFFF DUP3 AND GT ISZERO PUSH2 0x5BF7 JUMP JUMPDEST SWAP1 SWAP2 POP PUSH1 0x40 DUP2 RETURNDATASIZE DUP3 GT PUSH2 0x5C97 JUMPI JUMPDEST DUP2 PUSH2 0x5C66 PUSH1 0x40 SWAP4 DUP4 PUSH2 0x50B2 JUMP JUMPDEST DUP2 ADD SUB SLT PUSH2 0x5C93 JUMPI PUSH1 0x20 PUSH2 0x5C79 DUP3 PUSH2 0x5AC5 JUMP JUMPDEST SWAP2 ADD MLOAD SWAP3 PUSH1 0xFF DUP5 AND DUP5 SUB PUSH2 0x5C90 JUMPI POP SWAP2 SWAP1 CODESIZE PUSH2 0x5BD8 JUMP JUMPDEST DUP1 REVERT JUMPDEST DUP3 DUP1 REVERT JUMPDEST RETURNDATASIZE SWAP2 POP PUSH2 0x5C59 JUMP JUMPDEST PUSH1 0x1 SWAP1 PUSH2 0x5BE4 JUMP JUMPDEST ISZERO PUSH2 0x5CAE JUMPI JUMP JUMPDEST PUSH1 0x40 MLOAD PUSH3 0x461BCD PUSH1 0xE5 SHL DUP2 MSTORE PUSH1 0x20 PUSH1 0x4 DUP3 ADD MSTORE PUSH1 0x14 PUSH1 0x24 DUP3 ADD MSTORE PUSH20 0x14D151548E88191958D85E48191A5CD8589B1959 PUSH1 0x62 SHL PUSH1 0x44 DUP3 ADD MSTORE PUSH1 0x64 SWAP1 REVERT JUMPDEST PUSH2 0xFFFF SWAP2 DUP3 AND DUP2 MSTORE SWAP2 AND PUSH1 0x20 DUP3 ADD MSTORE PUSH1 0x1 PUSH1 0x1 PUSH1 0x40 SHL SUB SWAP1 SWAP2 AND PUSH1 0x40 DUP3 ADD MSTORE PUSH1 0x60 ADD SWAP1 JUMP JUMPDEST SWAP2 SWAP1 PUSH2 0x5D1C SWAP2 CALLDATASIZE SWAP2 PUSH2 0x5566 JUMP JUMPDEST PUSH1 0x20 DUP2 MLOAD SWAP2 ADD KECCAK256 SWAP1 PUSH1 0x1 DUP1 PUSH1 0xA0 SHL SUB AND PUSH1 0x0 MSTORE PUSH1 0x18 PUSH1 0x20 MSTORE PUSH1 0x40 PUSH1 0x0 KECCAK256 SWAP1 DUP2 SLOAD DUP1 JUMPDEST PUSH2 0x5D4D JUMPI POP POP POP PUSH1 0x0 SWAP1 PUSH1 0x0 SWAP1 JUMP JUMPDEST PUSH1 0x0 NOT DUP2 ADD DUP2 DUP2 GT PUSH2 0x1D56 JUMPI DUP3 PUSH1 0x1 PUSH2 0x5D66 DUP4 DUP8 PUSH2 0x5229 JUMP JUMPDEST POP ADD SLOAD EQ PUSH2 0x5D7E JUMPI POP PUSH2 0x5D78 SWAP1 PUSH2 0x56DB JUMP JUMPDEST DUP1 PUSH2 0x5D3E JUMP JUMPDEST SWAP2 POP POP PUSH2 0x5D8A SWAP2 PUSH2 0x5229 JUMP JUMPDEST POP SLOAD PUSH1 0x1 SWAP2 PUSH1 0x20 SWAP2 SWAP1 SWAP2 SHR PUSH1 0x1 PUSH1 0x1 PUSH1 0x40 SHL SUB AND SWAP1 JUMP JUMPDEST PUSH1 0x1 DUP1 PUSH1 0xA0 SHL SUB AND DUP1 PUSH1 0x0 MSTORE PUSH1 0x6 PUSH1 0x20 MSTORE PUSH1 0x40 PUSH1 0x0 KECCAK256 PUSH1 0x0 DUP1 MLOAD PUSH1 0x20 PUSH2 0x7211 DUP4 CODECOPY DUP2 MLOAD SWAP2 MSTORE PUSH1 0x0 MSTORE PUSH1 0x20 MSTORE PUSH1 0xFF PUSH1 0x40 PUSH1 0x0 KECCAK256 SLOAD AND ISZERO PUSH2 0x5E16 JUMPI PUSH1 0x0 MSTORE PUSH1 0x7 PUSH1 0x20 MSTORE PUSH1 0x40 PUSH1 0x0 KECCAK256 PUSH1 0x0 DUP1 MLOAD PUSH1 0x20 PUSH2 0x7211 DUP4 CODECOPY DUP2 MLOAD SWAP2 MSTORE PUSH1 0x0 MSTORE PUSH1 0x20 MSTORE PUSH1 0x40 PUSH1 0x0 KECCAK256 SLOAD DUP1 ISZERO SWAP1 DUP2 ISZERO PUSH2 0x5E0F JUMPI POP SWAP1 JUMP JUMPDEST SWAP1 POP TIMESTAMP LT SWAP1 JUMP JUMPDEST POP PUSH1 0x0 SWAP1 JUMP JUMPDEST PUSH1 0x1 DUP1 PUSH1 0xA0 SHL SUB AND DUP1 PUSH1 0x0 MSTORE PUSH1 0x6 PUSH1 0x20 MSTORE PUSH1 0x40 PUSH1 0x0 KECCAK256 PUSH1 0x0 DUP1 MLOAD PUSH1 0x20 PUSH2 0x7331 DUP4 CODECOPY DUP2 MLOAD SWAP2 MSTORE PUSH1 0x0 MSTORE PUSH1 0x20 MSTORE PUSH1 0xFF PUSH1 0x40 PUSH1 0x0 KECCAK256 SLOAD AND ISZERO PUSH2 0x5E16 JUMPI PUSH1 0x0 MSTORE PUSH1 0x7 PUSH1 0x20 MSTORE PUSH1 0x40 PUSH1 0x0 KECCAK256 PUSH1 0x0 DUP1 MLOAD PUSH1 0x20 PUSH2 0x7331 DUP4 CODECOPY DUP2 MLOAD SWAP2 MSTORE PUSH1 0x0 MSTORE PUSH1 0x20 MSTORE PUSH1 0x40 PUSH1 0x0 KECCAK256 SLOAD DUP1 ISZERO SWAP1 DUP2 ISZERO PUSH2 0x5E0F JUMPI POP SWAP1 JUMP JUMPDEST PUSH1 0x1 DUP1 PUSH1 0xA0 SHL SUB AND DUP1 PUSH1 0x0 MSTORE PUSH1 0x6 PUSH1 0x20 MSTORE PUSH1 0x40 PUSH1 0x0 KECCAK256 PUSH1 0x0 DUP1 MLOAD PUSH1 0x20 PUSH2 0x7171 DUP4 CODECOPY DUP2 MLOAD SWAP2 MSTORE PUSH1 0x0 MSTORE PUSH1 0x20 MSTORE PUSH1 0xFF PUSH1 0x40 PUSH1 0x0 KECCAK256 SLOAD AND ISZERO PUSH2 0x5E16 JUMPI PUSH1 0x0 MSTORE PUSH1 0x7 PUSH1 0x20 MSTORE PUSH1 0x40 PUSH1 0x0 KECCAK256 PUSH1 0x0 DUP1 MLOAD PUSH1 0x20 PUSH2 0x7171 DUP4 CODECOPY DUP2 MLOAD SWAP2 MSTORE PUSH1 0x0 MSTORE PUSH1 0x20 MSTORE PUSH1 0x40 PUSH1 0x0 KECCAK256 SLOAD DUP1 ISZERO SWAP1 DUP2 ISZERO PUSH2 0x5E0F JUMPI POP SWAP1 JUMP JUMPDEST PUSH1 0x1 DUP1 PUSH1 0xA0 SHL SUB AND DUP1 PUSH1 0x0 MSTORE PUSH1 0x6 PUSH1 0x20 MSTORE PUSH1 0x40 PUSH1 0x0 KECCAK256 PUSH1 0x0 DUP1 MLOAD PUSH1 0x20 PUSH2 0x70B1 DUP4 CODECOPY DUP2 MLOAD SWAP2 MSTORE PUSH1 0x0 MSTORE PUSH1 0x20 MSTORE PUSH1 0xFF PUSH1 0x40 PUSH1 0x0 KECCAK256 SLOAD AND ISZERO PUSH2 0x5E16 JUMPI PUSH1 0x0 MSTORE PUSH1 0x7 PUSH1 0x20 MSTORE PUSH1 0x40 PUSH1 0x0 KECCAK256 PUSH1 0x0 DUP1 MLOAD PUSH1 0x20 PUSH2 0x70B1 DUP4 CODECOPY DUP2 MLOAD SWAP2 MSTORE PUSH1 0x0 MSTORE PUSH1 0x20 MSTORE PUSH1 0x40 PUSH1 0x0 KECCAK256 SLOAD DUP1 ISZERO SWAP1 DUP2 ISZERO PUSH2 0x5E0F JUMPI POP SWAP1 JUMP JUMPDEST PUSH1 0x1 DUP1 PUSH1 0xA0 SHL SUB AND DUP1 PUSH1 0x0 MSTORE PUSH1 0x6 PUSH1 0x20 MSTORE PUSH1 0x40 PUSH1 0x0 KECCAK256 PUSH1 0x0 DUP1 MLOAD PUSH1 0x20 PUSH2 0x71D1 DUP4 CODECOPY DUP2 MLOAD SWAP2 MSTORE PUSH1 0x0 MSTORE PUSH1 0x20 MSTORE PUSH1 0xFF PUSH1 0x40 PUSH1 0x0 KECCAK256 SLOAD AND ISZERO PUSH2 0x5E16 JUMPI PUSH1 0x0 MSTORE PUSH1 0x7 PUSH1 0x20 MSTORE PUSH1 0x40 PUSH1 0x0 KECCAK256 PUSH1 0x0 DUP1 MLOAD PUSH1 0x20 PUSH2 0x71D1 DUP4 CODECOPY DUP2 MLOAD SWAP2 MSTORE PUSH1 0x0 MSTORE PUSH1 0x20 MSTORE PUSH1 0x40 PUSH1 0x0 KECCAK256 SLOAD DUP1 ISZERO SWAP1 DUP2 ISZERO PUSH2 0x5E0F JUMPI POP SWAP1 JUMP JUMPDEST PUSH1 0x1 DUP1 PUSH1 0xA0 SHL SUB AND DUP1 PUSH1 0x0 MSTORE PUSH1 0x6 PUSH1 0x20 MSTORE PUSH1 0x40 PUSH1 0x0 KECCAK256 PUSH1 0x0 DUP1 MLOAD PUSH1 0x20 PUSH2 0x70D1 DUP4 CODECOPY DUP2 MLOAD SWAP2 MSTORE PUSH1 0x0 MSTORE PUSH1 0x20 MSTORE PUSH1 0xFF PUSH1 0x40 PUSH1 0x0 KECCAK256 SLOAD AND ISZERO PUSH2 0x5E16 JUMPI PUSH1 0x0 MSTORE PUSH1 0x7 PUSH1 0x20 MSTORE PUSH1 0x40 PUSH1 0x0 KECCAK256 PUSH1 0x0 DUP1 MLOAD PUSH1 0x20 PUSH2 0x70D1 DUP4 CODECOPY DUP2 MLOAD SWAP2 MSTORE PUSH1 0x0 MSTORE PUSH1 0x20 MSTORE PUSH1 0x40 PUSH1 0x0 KECCAK256 SLOAD DUP1 ISZERO SWAP1 DUP2 ISZERO PUSH2 0x5E0F JUMPI POP SWAP1 JUMP JUMPDEST PUSH1 0x1 DUP1 PUSH1 0xA0 SHL SUB AND DUP1 PUSH1 0x0 MSTORE PUSH1 0x6 PUSH1 0x20 MSTORE PUSH1 0x40 PUSH1 0x0 KECCAK256 PUSH1 0x0 DUP1 MLOAD PUSH1 0x20 PUSH2 0x71F1 DUP4 CODECOPY DUP2 MLOAD SWAP2 MSTORE PUSH1 0x0 MSTORE PUSH1 0x20 MSTORE PUSH1 0xFF PUSH1 0x40 PUSH1 0x0 KECCAK256 SLOAD AND ISZERO PUSH2 0x5E16 JUMPI PUSH1 0x0 MSTORE PUSH1 0x7 PUSH1 0x20 MSTORE PUSH1 0x40 PUSH1 0x0 KECCAK256 PUSH1 0x0 DUP1 MLOAD PUSH1 0x20 PUSH2 0x71F1 DUP4 CODECOPY DUP2 MLOAD SWAP2 MSTORE PUSH1 0x0 MSTORE PUSH1 0x20 MSTORE PUSH1 0x40 PUSH1 0x0 KECCAK256 SLOAD DUP1 ISZERO SWAP1 DUP2 ISZERO PUSH2 0x5E0F JUMPI POP SWAP1 JUMP JUMPDEST PUSH1 0x1 DUP1 PUSH1 0xA0 SHL SUB AND DUP1 PUSH1 0x0 MSTORE PUSH1 0x6 PUSH1 0x20 MSTORE PUSH1 0x40 PUSH1 0x0 KECCAK256 PUSH1 0x0 DUP1 MLOAD PUSH1 0x20 PUSH2 0x7231 DUP4 CODECOPY DUP2 MLOAD SWAP2 MSTORE PUSH1 0x0 MSTORE PUSH1 0x20 MSTORE PUSH1 0xFF PUSH1 0x40 PUSH1 0x0 KECCAK256 SLOAD AND ISZERO PUSH2 0x5E16 JUMPI PUSH1 0x0 MSTORE PUSH1 0x7 PUSH1 0x20 MSTORE PUSH1 0x40 PUSH1 0x0 KECCAK256 PUSH1 0x0 DUP1 MLOAD PUSH1 0x20 PUSH2 0x7231 DUP4 CODECOPY DUP2 MLOAD SWAP2 MSTORE PUSH1 0x0 MSTORE PUSH1 0x20 MSTORE PUSH1 0x40 PUSH1 0x0 KECCAK256 SLOAD DUP1 ISZERO SWAP1 DUP2 ISZERO PUSH2 0x5E0F JUMPI POP SWAP1 JUMP JUMPDEST PUSH1 0x1 DUP1 PUSH1 0xA0 SHL SUB AND DUP1 PUSH1 0x0 MSTORE PUSH1 0x6 PUSH1 0x20 MSTORE PUSH1 0x40 PUSH1 0x0 KECCAK256 PUSH1 0x0 DUP1 MLOAD PUSH1 0x20 PUSH2 0x7271 DUP4 CODECOPY DUP2 MLOAD SWAP2 MSTORE PUSH1 0x0 MSTORE PUSH1 0x20 MSTORE PUSH1 0xFF PUSH1 0x40 PUSH1 0x0 KECCAK256 SLOAD AND ISZERO PUSH2 0x5E16 JUMPI PUSH1 0x0 MSTORE PUSH1 0x7 PUSH1 0x20 MSTORE PUSH1 0x40 PUSH1 0x0 KECCAK256 PUSH1 0x0 DUP1 MLOAD PUSH1 0x20 PUSH2 0x7271 DUP4 CODECOPY DUP2 MLOAD SWAP2 MSTORE PUSH1 0x0 MSTORE PUSH1 0x20 MSTORE PUSH1 0x40 PUSH1 0x0 KECCAK256 SLOAD DUP1 ISZERO SWAP1 DUP2 ISZERO PUSH2 0x5E0F JUMPI POP SWAP1 JUMP JUMPDEST PUSH1 0x1 DUP1 PUSH1 0xA0 SHL SUB AND DUP1 PUSH1 0x0 MSTORE PUSH1 0x6 PUSH1 0x20 MSTORE PUSH1 0x40 PUSH1 0x0 KECCAK256 PUSH1 0x0 DUP1 MLOAD PUSH1 0x20 PUSH2 0x7291 DUP4 CODECOPY DUP2 MLOAD SWAP2 MSTORE PUSH1 0x0 MSTORE PUSH1 0x20 MSTORE PUSH1 0xFF PUSH1 0x40 PUSH1 0x0 KECCAK256 SLOAD AND ISZERO PUSH2 0x5E16 JUMPI PUSH1 0x0 MSTORE PUSH1 0x7 PUSH1 0x20 MSTORE PUSH1 0x40 PUSH1 0x0 KECCAK256 PUSH1 0x0 DUP1 MLOAD PUSH1 0x20 PUSH2 0x7291 DUP4 CODECOPY DUP2 MLOAD SWAP2 MSTORE PUSH1 0x0 MSTORE PUSH1 0x20 MSTORE PUSH1 0x40 PUSH1 0x0 KECCAK256 SLOAD DUP1 ISZERO SWAP1 DUP2 ISZERO PUSH2 0x5E0F JUMPI POP SWAP1 JUMP JUMPDEST PUSH1 0x1 DUP1 PUSH1 0xA0 SHL SUB AND DUP1 PUSH1 0x0 MSTORE PUSH1 0x6 PUSH1 0x20 MSTORE PUSH1 0x40 PUSH1 0x0 KECCAK256 PUSH1 0x0 DUP1 MLOAD PUSH1 0x20 PUSH2 0x7251 DUP4 CODECOPY DUP2 MLOAD SWAP2 MSTORE PUSH1 0x0 MSTORE PUSH1 0x20 MSTORE PUSH1 0xFF PUSH1 0x40 PUSH1 0x0 KECCAK256 SLOAD AND ISZERO PUSH2 0x5E16 JUMPI PUSH1 0x0 MSTORE PUSH1 0x7 PUSH1 0x20 MSTORE PUSH1 0x40 PUSH1 0x0 KECCAK256 PUSH1 0x0 DUP1 MLOAD PUSH1 0x20 PUSH2 0x7251 DUP4 CODECOPY DUP2 MLOAD SWAP2 MSTORE PUSH1 0x0 MSTORE PUSH1 0x20 MSTORE PUSH1 0x40 PUSH1 0x0 KECCAK256 SLOAD DUP1 ISZERO SWAP1 DUP2 ISZERO PUSH2 0x5E0F JUMPI POP SWAP1 JUMP JUMPDEST PUSH1 0x1 DUP1 PUSH1 0xA0 SHL SUB AND DUP1 PUSH1 0x0 MSTORE PUSH1 0x6 PUSH1 0x20 MSTORE PUSH1 0x40 PUSH1 0x0 KECCAK256 PUSH1 0x0 DUP1 MLOAD PUSH1 0x20 PUSH2 0x7311 DUP4 CODECOPY DUP2 MLOAD SWAP2 MSTORE PUSH1 0x0 MSTORE PUSH1 0x20 MSTORE PUSH1 0xFF PUSH1 0x40 PUSH1 0x0 KECCAK256 SLOAD AND ISZERO PUSH2 0x5E16 JUMPI PUSH1 0x0 MSTORE PUSH1 0x7 PUSH1 0x20 MSTORE PUSH1 0x40 PUSH1 0x0 KECCAK256 PUSH1 0x0 DUP1 MLOAD PUSH1 0x20 PUSH2 0x7311 DUP4 CODECOPY DUP2 MLOAD SWAP2 MSTORE PUSH1 0x0 MSTORE PUSH1 0x20 MSTORE PUSH1 0x40 PUSH1 0x0 KECCAK256 SLOAD DUP1 ISZERO SWAP1 DUP2 ISZERO PUSH2 0x5E0F JUMPI POP SWAP1 JUMP JUMPDEST PUSH1 0x1 DUP1 PUSH1 0xA0 SHL SUB AND DUP1 PUSH1 0x0 MSTORE PUSH1 0x6 PUSH1 0x20 MSTORE PUSH1 0x40 PUSH1 0x0 KECCAK256 PUSH1 0x0 DUP1 MLOAD PUSH1 0x20 PUSH2 0x72B1 DUP4 CODECOPY DUP2 MLOAD SWAP2 MSTORE PUSH1 0x0 MSTORE PUSH1 0x20 MSTORE PUSH1 0xFF PUSH1 0x40 PUSH1 0x0 KECCAK256 SLOAD AND ISZERO PUSH2 0x5E16 JUMPI PUSH1 0x0 MSTORE PUSH1 0x7 PUSH1 0x20 MSTORE PUSH1 0x40 PUSH1 0x0 KECCAK256 PUSH1 0x0 DUP1 MLOAD PUSH1 0x20 PUSH2 0x72B1 DUP4 CODECOPY DUP2 MLOAD SWAP2 MSTORE PUSH1 0x0 MSTORE PUSH1 0x20 MSTORE PUSH1 0x40 PUSH1 0x0 KECCAK256 SLOAD DUP1 ISZERO SWAP1 DUP2 ISZERO PUSH2 0x5E0F JUMPI POP SWAP1 JUMP JUMPDEST PUSH1 0x1 DUP1 PUSH1 0xA0 SHL SUB AND DUP1 PUSH1 0x0 MSTORE PUSH1 0x6 PUSH1 0x20 MSTORE PUSH1 0x40 PUSH1 0x0 KECCAK256 PUSH1 0x0 DUP1 MLOAD PUSH1 0x20 PUSH2 0x7191 DUP4 CODECOPY DUP2 MLOAD SWAP2 MSTORE PUSH1 0x0 MSTORE PUSH1 0x20 MSTORE PUSH1 0xFF PUSH1 0x40 PUSH1 0x0 KECCAK256 SLOAD AND ISZERO PUSH2 0x5E16 JUMPI PUSH1 0x0 MSTORE PUSH1 0x7 PUSH1 0x20 MSTORE PUSH1 0x40 PUSH1 0x0 KECCAK256 PUSH1 0x0 DUP1 MLOAD PUSH1 0x20 PUSH2 0x7191 DUP4 CODECOPY DUP2 MLOAD SWAP2 MSTORE PUSH1 0x0 MSTORE PUSH1 0x20 MSTORE PUSH1 0x40 PUSH1 0x0 KECCAK256 SLOAD DUP1 ISZERO SWAP1 DUP2 ISZERO PUSH2 0x5E0F JUMPI POP SWAP1 JUMP JUMPDEST PUSH1 0x1 DUP1 PUSH1 0xA0 SHL SUB AND DUP1 PUSH1 0x0 MSTORE PUSH1 0x6 PUSH1 0x20 MSTORE PUSH1 0x40 PUSH1 0x0 KECCAK256 PUSH1 0x0 DUP1 MLOAD PUSH1 0x20 PUSH2 0x72D1 DUP4 CODECOPY DUP2 MLOAD SWAP2 MSTORE PUSH1 0x0 MSTORE PUSH1 0x20 MSTORE PUSH1 0xFF PUSH1 0x40 PUSH1 0x0 KECCAK256 SLOAD AND ISZERO PUSH2 0x5E16 JUMPI PUSH1 0x0 MSTORE PUSH1 0x7 PUSH1 0x20 MSTORE PUSH1 0x40 PUSH1 0x0 KECCAK256 PUSH1 0x0 DUP1 MLOAD PUSH1 0x20 PUSH2 0x72D1 DUP4 CODECOPY DUP2 MLOAD SWAP2 MSTORE PUSH1 0x0 MSTORE PUSH1 0x20 MSTORE PUSH1 0x40 PUSH1 0x0 KECCAK256 SLOAD DUP1 ISZERO SWAP1 DUP2 ISZERO PUSH2 0x5E0F JUMPI POP SWAP1 JUMP JUMPDEST PUSH1 0x1 DUP1 PUSH1 0xA0 SHL SUB AND DUP1 PUSH1 0x0 MSTORE PUSH1 0x6 PUSH1 0x20 MSTORE PUSH1 0x40 PUSH1 0x0 KECCAK256 PUSH1 0x0 DUP1 MLOAD PUSH1 0x20 PUSH2 0x7131 DUP4 CODECOPY DUP2 MLOAD SWAP2 MSTORE PUSH1 0x0 MSTORE PUSH1 0x20 MSTORE PUSH1 0xFF PUSH1 0x40 PUSH1 0x0 KECCAK256 SLOAD AND ISZERO PUSH2 0x5E16 JUMPI PUSH1 0x0 MSTORE PUSH1 0x7 PUSH1 0x20 MSTORE PUSH1 0x40 PUSH1 0x0 KECCAK256 PUSH1 0x0 DUP1 MLOAD PUSH1 0x20 PUSH2 0x7131 DUP4 CODECOPY DUP2 MLOAD SWAP2 MSTORE PUSH1 0x0 MSTORE PUSH1 0x20 MSTORE PUSH1 0x40 PUSH1 0x0 KECCAK256 SLOAD DUP1 ISZERO SWAP1 DUP2 ISZERO PUSH2 0x5E0F JUMPI POP SWAP1 JUMP JUMPDEST PUSH1 0x1 DUP1 PUSH1 0xA0 SHL SUB AND DUP1 PUSH1 0x0 MSTORE PUSH1 0x6 PUSH1 0x20 MSTORE PUSH1 0x40 PUSH1 0x0 KECCAK256 PUSH1 0x0 DUP1 MLOAD PUSH1 0x20 PUSH2 0x7151 DUP4 CODECOPY DUP2 MLOAD SWAP2 MSTORE PUSH1 0x0 MSTORE PUSH1 0x20 MSTORE PUSH1 0xFF PUSH1 0x40 PUSH1 0x0 KECCAK256 SLOAD AND ISZERO PUSH2 0x5E16 JUMPI PUSH1 0x0 MSTORE PUSH1 0x7 PUSH1 0x20 MSTORE PUSH1 0x40 PUSH1 0x0 KECCAK256 PUSH1 0x0 DUP1 MLOAD PUSH1 0x20 PUSH2 0x7151 DUP4 CODECOPY DUP2 MLOAD SWAP2 MSTORE PUSH1 0x0 MSTORE PUSH1 0x20 MSTORE PUSH1 0x40 PUSH1 0x0 KECCAK256 SLOAD DUP1 ISZERO SWAP1 DUP2 ISZERO PUSH2 0x5E0F JUMPI POP SWAP1 JUMP JUMPDEST PUSH1 0x1 DUP1 PUSH1 0xA0 SHL SUB AND DUP1 PUSH1 0x0 MSTORE PUSH1 0x6 PUSH1 0x20 MSTORE PUSH1 0x40 PUSH1 0x0 KECCAK256 DUP3 PUSH1 0x0 MSTORE PUSH1 0x20 MSTORE PUSH1 0xFF PUSH1 0x40 PUSH1 0x0 KECCAK256 SLOAD AND ISZERO PUSH2 0x654E JUMPI PUSH1 0x0 MSTORE PUSH1 0x7 PUSH1 0x20 MSTORE PUSH1 0x40 PUSH1 0x0 KECCAK256 SWAP1 PUSH1 0x0 MSTORE PUSH1 0x20 MSTORE PUSH1 0x40 PUSH1 0x0 KECCAK256 SLOAD DUP1 ISZERO SWAP1 DUP2 ISZERO PUSH2 0x5E0F JUMPI POP SWAP1 JUMP JUMPDEST POP POP PUSH1 0x0 SWAP1 JUMP JUMPDEST PUSH1 0x1 PUSH1 0x1 PUSH1 0xA0 SHL SUB DUP2 AND PUSH1 0x0 SWAP1 DUP2 MSTORE PUSH1 0x5 PUSH1 0x20 MSTORE PUSH1 0x40 SWAP1 KECCAK256 SLOAD PUSH2 0xFFFF AND SWAP1 DUP2 ISZERO PUSH2 0x65D8 JUMPI JUMPDEST PUSH1 0x1D SLOAD SWAP1 PUSH1 0xFF DUP3 PUSH1 0x8 SHR AND SWAP1 DUP2 ISZERO PUSH2 0x65D2 JUMPI PUSH2 0x65B9 SWAP3 SWAP2 PUSH2 0xFFFF PUSH2 0x65B2 PUSH1 0x64 SWAP7 DUP3 PUSH1 0xFF PUSH2 0x65A9 PUSH2 0x58F9 SWAP8 PUSH2 0x5AE7 JUMP JUMPDEST SWAP8 AND SWAP2 AND PUSH2 0x5AD4 JUMP JUMPDEST SWAP4 AND PUSH2 0x5AD4 JUMP JUMPDEST DIV PUSH2 0x2710 DUP2 GT PUSH2 0x5B56 JUMPI PUSH1 0xA DUP2 LT PUSH2 0x5B4E JUMPI PUSH2 0xFFFF AND SWAP1 JUMP JUMPDEST POP POP POP SWAP1 JUMP JUMPDEST SWAP1 POP PUSH2 0x65E3 DUP2 PUSH2 0x57C6 JUMP JUMPDEST SWAP1 PUSH2 0x657A JUMP JUMPDEST SWAP1 PUSH2 0x65F3 DUP3 PUSH2 0x579B JUMP JUMPDEST PUSH2 0x6600 PUSH1 0x40 MLOAD SWAP2 DUP3 PUSH2 0x50B2 JUMP JUMPDEST DUP3 DUP2 MSTORE DUP1 SWAP3 PUSH2 0x6611 PUSH1 0x1F NOT SWAP2 PUSH2 0x579B JUMP JUMPDEST ADD SWAP1 PUSH1 0x20 CALLDATASIZE SWAP2 ADD CALLDATACOPY JUMP JUMPDEST PUSH1 0x0 SLOAD PUSH1 0x1 PUSH1 0x1 PUSH1 0xA0 SHL SUB AND CALLER SUB PUSH2 0x662F JUMPI JUMP JUMPDEST PUSH4 0x483E517D PUSH1 0xE0 SHL PUSH1 0x0 MSTORE PUSH1 0x4 PUSH1 0x0 REVERT JUMPDEST PUSH1 0x1 SLOAD PUSH1 0x0 SWAP4 SWAP3 PUSH1 0x1 PUSH1 0x1 PUSH1 0xA0 SHL SUB SWAP1 SWAP2 AND SWAP2 DUP3 PUSH2 0x6660 JUMPI JUMPDEST POP POP POP POP POP JUMP JUMPDEST DUP3 EXTCODESIZE ISZERO PUSH2 0x66DD JUMPI SWAP2 PUSH2 0x66A4 SWAP2 DUP6 DUP1 SWAP5 PUSH2 0x66BC PUSH1 0x40 MLOAD SWAP8 DUP9 SWAP7 DUP8 SWAP6 DUP7 SWAP5 PUSH4 0x303C287 PUSH1 0xE6 SHL DUP7 MSTORE PUSH1 0x1 DUP1 PUSH1 0xA0 SHL SUB AND PUSH1 0x4 DUP7 ADD MSTORE PUSH1 0x80 PUSH1 0x24 DUP7 ADD MSTORE PUSH1 0x84 DUP6 ADD SWAP1 PUSH2 0x5179 JUMP JUMPDEST SWAP1 DUP5 PUSH1 0x44 DUP6 ADD MSTORE PUSH1 0x3 NOT DUP5 DUP4 SUB ADD PUSH1 0x64 DUP6 ADD MSTORE PUSH2 0x5179 JUMP JUMPDEST SUB SWAP3 GAS CALL PUSH2 0x66CD JUMPI JUMPDEST DUP1 DUP1 DUP1 PUSH2 0x6659 JUMP JUMPDEST DUP2 PUSH2 0x66D7 SWAP2 PUSH2 0x50B2 JUMP JUMPDEST CODESIZE PUSH2 0x66C5 JUMP JUMPDEST DUP5 DUP1 REVERT JUMPDEST PUSH1 0x1 SLOAD PUSH1 0x0 SWAP5 SWAP4 PUSH1 0x1 PUSH1 0x1 PUSH1 0xA0 SHL SUB SWAP1 SWAP2 AND SWAP3 SWAP2 SWAP1 DUP4 PUSH2 0x6704 JUMPI JUMPDEST POP POP POP POP POP POP JUMP JUMPDEST DUP4 EXTCODESIZE ISZERO PUSH2 0x6782 JUMPI SWAP2 DUP6 DUP1 SWAP5 SWAP3 PUSH2 0x6760 PUSH2 0x6749 SWAP6 PUSH1 0x40 MLOAD SWAP9 DUP10 SWAP8 DUP9 SWAP7 DUP8 SWAP6 PUSH4 0x303C287 PUSH1 0xE6 SHL DUP8 MSTORE PUSH1 0x1 DUP1 PUSH1 0xA0 SHL SUB AND PUSH1 0x4 DUP8 ADD MSTORE PUSH1 0x80 PUSH1 0x24 DUP8 ADD MSTORE PUSH1 0x84 DUP7 ADD SWAP1 PUSH2 0x5179 JUMP JUMPDEST SWAP2 PUSH1 0x44 DUP6 ADD MSTORE PUSH1 0x3 NOT DUP5 DUP4 SUB ADD PUSH1 0x64 DUP6 ADD MSTORE PUSH2 0x5179 JUMP JUMPDEST SUB SWAP3 GAS CALL PUSH2 0x6772 JUMPI JUMPDEST DUP1 DUP1 DUP1 DUP1 PUSH2 0x66FC JUMP JUMPDEST DUP2 PUSH2 0x677C SWAP2 PUSH2 0x50B2 JUMP JUMPDEST CODESIZE PUSH2 0x6769 JUMP JUMPDEST DUP6 DUP1 REVERT JUMPDEST SWAP3 SWAP2 SWAP1 SWAP3 PUSH2 0x6793 DUP2 PUSH2 0x6555 JUMP JUMPDEST SWAP1 PUSH2 0xFFFF DUP3 AND SWAP3 PUSH2 0x67A4 DUP7 DUP6 PUSH2 0x56BF JUMP JUMPDEST PUSH1 0xA DUP2 SLT PUSH2 0x6AF1 JUMPI JUMPDEST PUSH2 0x2710 DUP2 SGT PUSH2 0x6AE8 JUMPI JUMPDEST PUSH2 0xFFFF AND SWAP5 PUSH1 0x0 SWAP7 PUSH1 0x1 DUP1 PUSH1 0xA0 SHL SUB DUP5 AND SWAP5 DUP6 DUP10 MSTORE PUSH1 0x5 PUSH1 0x20 MSTORE PUSH1 0x40 DUP10 KECCAK256 PUSH2 0xFFFF DUP10 AND PUSH2 0xFFFF NOT DUP3 SLOAD AND OR SWAP1 SSTORE DUP6 DUP10 MSTORE PUSH1 0x18 PUSH1 0x20 MSTORE PUSH1 0x40 DUP10 KECCAK256 PUSH1 0x32 DUP2 SLOAD LT ISZERO PUSH2 0x69C6 JUMPI JUMPDEST TIMESTAMP PUSH1 0x1 PUSH1 0x1 PUSH1 0x40 SHL SUB AND SWAP1 PUSH2 0x6811 CALLDATASIZE DUP7 DUP9 PUSH2 0x5566 JUMP JUMPDEST PUSH1 0x20 DUP2 MLOAD SWAP2 ADD KECCAK256 PUSH1 0x40 MLOAD SWAP2 PUSH2 0x6825 DUP4 PUSH2 0x5097 JUMP JUMPDEST DUP11 DUP4 MSTORE PUSH1 0x20 DUP4 ADD DUP13 DUP2 MSTORE PUSH1 0x40 DUP5 ADD DUP6 DUP2 MSTORE PUSH1 0x60 DUP6 ADD SWAP4 DUP5 MSTORE DUP3 SLOAD SWAP1 SWAP3 PUSH1 0x1 PUSH1 0x40 SHL DUP3 LT ISZERO PUSH2 0x69B1 JUMPI SWAP1 PUSH2 0x685D SWAP2 PUSH1 0x1 DUP3 ADD DUP2 SSTORE PUSH2 0x5229 JUMP JUMPDEST SWAP5 SWAP1 SWAP5 PUSH2 0x699D JUMPI SWAP5 PUSH1 0x40 DUP16 DUP16 SWAP5 SWAP7 PUSH1 0x1 DUP16 SWAP9 SWAP8 PUSH2 0x6942 SWAP16 SWAP15 SWAP14 SWAP13 SWAP11 PUSH1 0x0 DUP1 MLOAD PUSH1 0x20 PUSH2 0x7111 DUP4 CODECOPY DUP2 MLOAD SWAP2 MSTORE SWAP10 PUSH2 0x68AC PUSH2 0xFFFF PUSH2 0x2BBB SWAP16 SWAP11 DUP2 DUP1 PUSH2 0x68BA SWAP7 MLOAD AND AND DUP3 NOT DUP10 SLOAD AND OR DUP9 SSTORE MLOAD AND DUP7 PUSH2 0x5502 JUMP JUMPDEST DUP4 DUP1 DUP9 SHL SUB SWAP1 MLOAD AND DUP5 PUSH2 0x7087 JUMP JUMPDEST MLOAD SWAP2 ADD SSTORE DUP7 DUP2 MSTORE PUSH1 0x19 PUSH1 0x20 MSTORE KECCAK256 DUP1 SLOAD PUSH1 0x1 PUSH1 0x1 PUSH1 0x40 SHL SUB NOT AND PUSH1 0x1 PUSH1 0x1 PUSH1 0x40 SHL SUB SWAP1 SWAP3 AND SWAP2 SWAP1 SWAP2 OR SWAP1 SSTORE PUSH1 0x40 MLOAD SWAP2 DUP3 SWAP2 PUSH2 0x68F9 SWAP2 DUP10 SWAP2 DUP12 SWAP2 SWAP1 DUP6 PUSH2 0x569A JUMP JUMPDEST SUB SWAP1 LOG2 DUP10 DUP2 SLT ISZERO PUSH2 0x6997 JUMPI PUSH2 0x690D SWAP1 PUSH2 0x54F1 JUMP JUMPDEST SWAP3 JUMPDEST PUSH1 0x40 MLOAD SWAP3 PUSH2 0x691E PUSH1 0x40 DUP6 PUSH2 0x50B2 JUMP JUMPDEST PUSH1 0x10 DUP5 MSTORE PUSH16 0x736565725F73636F72655F64656C7461 PUSH1 0x80 SHL PUSH1 0x20 DUP6 ADD MSTORE CALLDATASIZE SWAP2 PUSH2 0x5566 JUMP JUMPDEST PUSH1 0x4 SLOAD PUSH1 0x1 PUSH1 0x1 PUSH1 0xA0 SHL SUB AND DUP1 PUSH2 0x695A JUMPI POP POP POP POP POP JUMP JUMPDEST DUP1 EXTCODESIZE ISZERO PUSH2 0x66DD JUMPI DUP5 SWAP3 SWAP2 DUP4 PUSH1 0x64 SWAP3 PUSH1 0x40 MLOAD SWAP7 DUP8 SWAP6 DUP7 SWAP5 PUSH4 0x19E9CBB7 PUSH1 0xE0 SHL DUP7 MSTORE PUSH1 0x4 DUP7 ADD MSTORE PUSH1 0x24 DUP6 ADD MSTORE PUSH1 0x44 DUP5 ADD MSTORE GAS CALL PUSH2 0x66CD JUMPI DUP1 DUP1 DUP1 PUSH2 0x6659 JUMP JUMPDEST SWAP3 PUSH2 0x690F JUMP JUMPDEST PUSH4 0x4E487B71 PUSH1 0xE0 SHL DUP16 MSTORE PUSH1 0x4 DUP16 SWAP1 MSTORE PUSH1 0x24 DUP16 REVERT JUMPDEST POP PUSH4 0x4E487B71 PUSH1 0xE0 SHL DUP16 MSTORE PUSH1 0x41 PUSH1 0x4 MSTORE PUSH1 0x24 DUP16 REVERT JUMPDEST SWAP8 SWAP6 SWAP4 SWAP2 PUSH1 0x1 SWAP11 SWAP8 SWAP6 SWAP4 SWAP2 SWAP10 SWAP11 JUMPDEST DUP10 SLOAD DUP2 LT ISZERO PUSH2 0x6A8A JUMPI PUSH2 0x69E7 DUP2 DUP12 PUSH2 0x5229 JUMP JUMPDEST POP PUSH1 0x0 NOT DUP3 ADD DUP3 DUP2 GT PUSH2 0x6A76 JUMPI PUSH2 0x69FE SWAP1 DUP13 PUSH2 0x5229 JUMP JUMPDEST SWAP2 SWAP1 SWAP2 PUSH2 0x6A62 JUMPI SWAP1 DUP2 PUSH1 0x1 SWAP4 SWAP3 DUP3 SUB PUSH2 0x6A1A JUMPI JUMPDEST POP POP ADD PUSH2 0x69D4 JUMP JUMPDEST DUP4 DUP2 PUSH2 0xFFFF DUP1 DUP4 SWAP5 SLOAD AND AND PUSH2 0xFFFF NOT DUP6 SLOAD AND OR DUP5 SSTORE PUSH2 0x6A41 PUSH2 0xFFFF DUP3 SLOAD PUSH1 0x10 SHR AND DUP6 PUSH2 0x5502 JUMP JUMPDEST PUSH2 0x6A56 DUP3 DUP1 PUSH1 0x40 SHL SUB DUP3 SLOAD PUSH1 0x20 SHR AND DUP6 PUSH2 0x7087 JUMP JUMPDEST ADD SLOAD SWAP2 ADD SSTORE CODESIZE DUP1 PUSH2 0x6A12 JUMP JUMPDEST PUSH4 0x4E487B71 PUSH1 0xE0 SHL DUP15 MSTORE PUSH1 0x4 DUP15 SWAP1 MSTORE PUSH1 0x24 DUP15 REVERT JUMPDEST PUSH4 0x4E487B71 PUSH1 0xE0 SHL DUP15 MSTORE PUSH1 0x11 PUSH1 0x4 MSTORE PUSH1 0x24 DUP15 REVERT JUMPDEST POP SWAP2 SWAP4 SWAP6 SWAP8 SWAP10 SWAP9 SWAP1 SWAP3 SWAP5 SWAP7 SWAP10 DUP1 SLOAD DUP1 ISZERO PUSH2 0x6AD4 JUMPI PUSH1 0x0 NOT ADD PUSH2 0x6AAC DUP2 DUP4 PUSH2 0x5229 JUMP JUMPDEST PUSH2 0x6AC0 JUMPI PUSH1 0x1 DUP2 DUP14 DUP1 SWAP4 SSTORE ADD SSTORE DUP2 SSTORE PUSH2 0x67FB JUMP JUMPDEST PUSH4 0x4E487B71 PUSH1 0xE0 SHL DUP13 MSTORE PUSH1 0x4 DUP13 SWAP1 MSTORE PUSH1 0x24 DUP13 REVERT JUMPDEST PUSH4 0x4E487B71 PUSH1 0xE0 SHL DUP12 MSTORE PUSH1 0x31 PUSH1 0x4 MSTORE PUSH1 0x24 DUP12 REVERT JUMPDEST POP PUSH2 0x2710 PUSH2 0x67B7 JUMP JUMPDEST POP PUSH1 0xA PUSH2 0x67AD JUMP JUMPDEST PUSH1 0x1 SLOAD PUSH1 0x0 SWAP2 PUSH1 0x1 PUSH1 0x1 PUSH1 0xA0 SHL SUB SWAP1 SWAP2 AND SWAP1 DUP2 PUSH2 0x6B15 JUMPI POP POP POP JUMP JUMPDEST DUP2 EXTCODESIZE ISZERO PUSH2 0x5C93 JUMPI PUSH2 0x6B4D DUP4 SWAP3 DUP4 SWAP3 PUSH1 0x40 MLOAD SWAP5 DUP6 DUP1 SWAP5 DUP2 SWAP4 PUSH4 0x3DDD61AB PUSH1 0xE2 SHL DUP4 MSTORE ADDRESS PUSH1 0x4 DUP5 ADD MSTORE PUSH1 0x60 PUSH1 0x24 DUP5 ADD MSTORE PUSH1 0x64 DUP4 ADD SWAP1 PUSH2 0x5179 JUMP JUMPDEST CALLER PUSH1 0x44 DUP4 ADD MSTORE SUB SWAP3 GAS CALL PUSH2 0x6B5F JUMPI POP POP JUMP JUMPDEST DUP2 PUSH2 0x6B69 SWAP2 PUSH2 0x50B2 JUMP JUMPDEST POP JUMP JUMPDEST PUSH2 0xFFFF AND DUP1 ISZERO PUSH2 0x1D56 JUMPI PUSH1 0x0 NOT ADD SWAP1 JUMP JUMPDEST DUP1 SLOAD DUP1 ISZERO PUSH2 0x6BAA JUMPI PUSH1 0x0 NOT ADD SWAP1 PUSH2 0x6B94 DUP3 DUP3 PUSH2 0x5760 JUMP JUMPDEST DUP2 SLOAD SWAP1 PUSH1 0x1 DUP1 PUSH1 0xA0 SHL SUB SWAP1 PUSH1 0x3 SHL SHL NOT AND SWAP1 SSTORE SSTORE JUMP JUMPDEST PUSH4 0x4E487B71 PUSH1 0xE0 SHL PUSH1 0x0 MSTORE PUSH1 0x31 PUSH1 0x4 MSTORE PUSH1 0x24 PUSH1 0x0 REVERT JUMPDEST PUSH1 0x1 PUSH1 0x1 PUSH1 0xA0 SHL SUB AND PUSH1 0x0 DUP2 DUP2 MSTORE PUSH1 0x9 PUSH1 0x20 MSTORE PUSH1 0x40 DUP2 KECCAK256 SWAP2 SWAP1 JUMPDEST DUP3 SLOAD DUP2 LT ISZERO PUSH2 0x6D45 JUMPI PUSH2 0x6BED DUP2 DUP5 PUSH2 0x5760 JUMP JUMPDEST SWAP1 SLOAD PUSH1 0x0 DUP5 DUP2 MSTORE PUSH1 0x8 PUSH1 0x20 SWAP1 DUP2 MSTORE PUSH1 0x40 DUP1 DUP4 KECCAK256 PUSH1 0x3 SWAP6 SWAP1 SWAP6 SHL SWAP4 SWAP1 SWAP4 SHR PUSH1 0x1 PUSH1 0x1 PUSH1 0xA0 SHL SUB AND DUP1 DUP4 MSTORE SWAP4 SWAP1 MSTORE KECCAK256 SLOAD PUSH1 0x1 PUSH1 0x1 PUSH1 0x40 SHL SUB AND DUP1 ISZERO ISZERO SWAP1 DUP2 PUSH2 0x6D3A JUMPI JUMPDEST POP PUSH2 0x6C45 JUMPI POP PUSH2 0x6C3D SWAP1 PUSH2 0x564B JUMP JUMPDEST SWAP3 JUMPDEST SWAP3 PUSH2 0x6BDA JUMP JUMPDEST DUP3 PUSH1 0x0 SWAP6 SWAP3 SWAP6 MSTORE PUSH1 0x8 PUSH1 0x20 MSTORE PUSH1 0x0 PUSH1 0x40 DUP1 DUP3 KECCAK256 DUP3 SWAP1 PUSH1 0x1 DUP1 PUSH1 0xA0 SHL SUB DUP6 AND DUP3 MSTORE PUSH1 0x20 MSTORE KECCAK256 SSTORE DUP3 PUSH1 0x0 MSTORE PUSH1 0xA PUSH1 0x20 MSTORE PUSH2 0xFFFF PUSH1 0x40 PUSH1 0x0 KECCAK256 SLOAD AND PUSH2 0x6D0D JUMPI JUMPDEST DUP1 PUSH1 0x0 MSTORE PUSH1 0xB PUSH1 0x20 MSTORE PUSH2 0xFFFF PUSH1 0x40 PUSH1 0x0 KECCAK256 SLOAD AND PUSH2 0x6CE0 JUMPI JUMPDEST POP DUP3 SLOAD PUSH1 0x0 NOT DUP2 ADD SWAP1 DUP2 GT PUSH2 0x1D56 JUMPI PUSH2 0x6CB6 PUSH2 0x6CD2 SWAP2 DUP6 PUSH2 0x5760 JUMP JUMPDEST SWAP1 SLOAD PUSH1 0x3 SWAP2 SWAP1 SWAP2 SHL SHR PUSH1 0x1 PUSH1 0x1 PUSH1 0xA0 SHL SUB AND PUSH2 0x316F DUP7 DUP7 PUSH2 0x5760 JUMP JUMPDEST PUSH2 0x6CDB DUP4 PUSH2 0x6B7D JUMP JUMPDEST PUSH2 0x6C3F JUMP JUMPDEST PUSH1 0x0 MSTORE PUSH1 0xB PUSH1 0x20 MSTORE PUSH1 0x40 PUSH1 0x0 KECCAK256 PUSH2 0xFFFF PUSH2 0x6CFC DUP2 DUP4 SLOAD AND PUSH2 0x6B6C JUMP JUMPDEST AND PUSH2 0xFFFF NOT DUP3 SLOAD AND OR SWAP1 SSTORE CODESIZE PUSH2 0x6C9A JUMP JUMPDEST DUP3 PUSH1 0x0 MSTORE PUSH1 0xA PUSH1 0x20 MSTORE PUSH1 0x40 PUSH1 0x0 KECCAK256 PUSH2 0xFFFF PUSH2 0x6D2A DUP2 DUP4 SLOAD AND PUSH2 0x6B6C JUMP JUMPDEST AND PUSH2 0xFFFF NOT DUP3 SLOAD AND OR SWAP1 SSTORE PUSH2 0x6C82 JUMP JUMPDEST SWAP1 POP TIMESTAMP LT ISZERO CODESIZE PUSH2 0x6C2E JUMP JUMPDEST POP SWAP1 PUSH2 0xFFFF SWAP1 SLOAD AND SWAP1 PUSH1 0x0 MSTORE PUSH1 0xA PUSH1 0x20 MSTORE PUSH2 0xFFFF PUSH1 0x40 PUSH1 0x0 KECCAK256 SWAP2 AND PUSH2 0xFFFF NOT DUP3 SLOAD AND OR SWAP1 SSTORE JUMP JUMPDEST PUSH1 0x3 SLOAD PUSH1 0x0 SWAP2 SWAP1 PUSH1 0x1 PUSH1 0x1 PUSH1 0xA0 SHL SUB AND DUP1 PUSH2 0x7015 JUMPI JUMPDEST POP PUSH1 0x1 PUSH1 0x1 PUSH1 0xA0 SHL SUB SWAP1 DUP2 AND PUSH1 0x0 DUP2 DUP2 MSTORE PUSH1 0x9 PUSH1 0x20 MSTORE PUSH1 0x40 DUP2 KECCAK256 DUP1 SLOAD PUSH1 0x4 SLOAD SWAP3 SWAP5 SWAP1 SWAP4 SWAP3 AND DUP1 ISZERO ISZERO SWAP3 DUP4 PUSH2 0x6F98 JUMPI JUMPDEST PUSH1 0x0 JUMPDEST DUP6 DUP2 LT PUSH2 0x6E28 JUMPI POP POP POP POP POP POP DUP1 ISZERO ISZERO DUP1 PUSH2 0x6E1F JUMPI JUMPDEST PUSH2 0x6DE9 JUMPI JUMPDEST POP SWAP1 PUSH2 0xFFFF PUSH1 0xD SLOAD PUSH1 0x20 SHR AND DUP1 DUP4 GT PUSH2 0x6DE5 JUMPI POP JUMP JUMPDEST SWAP2 POP JUMP JUMPDEST PUSH2 0x320 DUP2 GT ISZERO PUSH2 0x6E1A JUMPI POP PUSH2 0x320 JUMPDEST PUSH2 0x3E8 SUB SWAP1 PUSH2 0x3E8 DUP3 GT PUSH2 0x1D56 JUMPI PUSH2 0x3E8 SWAP2 PUSH2 0x6E13 SWAP2 PUSH2 0x5AD4 JUMP JUMPDEST DIV CODESIZE PUSH2 0x6DCF JUMP JUMPDEST PUSH2 0x6DF8 JUMP JUMPDEST POP DUP2 ISZERO ISZERO PUSH2 0x6DCA JUMP JUMPDEST DUP2 PUSH1 0x0 MSTORE PUSH1 0x8 PUSH1 0x20 MSTORE PUSH1 0x40 DUP1 PUSH1 0x0 KECCAK256 PUSH2 0x6E41 DUP4 DUP8 PUSH2 0x5760 JUMP JUMPDEST SWAP1 SLOAD PUSH1 0x3 SWAP2 SWAP1 SWAP2 SHL SHR PUSH1 0x1 PUSH1 0x1 PUSH1 0xA0 SHL SUB AND PUSH1 0x0 SWAP1 DUP2 MSTORE PUSH1 0x20 SWAP2 SWAP1 SWAP2 MSTORE KECCAK256 SLOAD PUSH1 0x40 DUP2 SWAP1 SHR PUSH2 0xFFFF AND SWAP1 DUP2 ISZERO ISZERO SWAP1 DUP2 PUSH2 0x6F83 JUMPI JUMPDEST POP PUSH2 0x6E83 JUMPI JUMPDEST POP PUSH1 0x1 ADD PUSH2 0x6DB4 JUMP JUMPDEST SWAP1 SWAP8 SWAP1 DUP1 DUP7 PUSH2 0x6EA1 JUMPI JUMPDEST POP PUSH2 0x6E9A SWAP1 PUSH1 0x1 SWAP3 PUSH2 0x5753 JUMP JUMPDEST SWAP8 SWAP1 PUSH2 0x6E7A JUMP JUMPDEST PUSH2 0x6EAB DUP11 DUP8 PUSH2 0x5760 JUMP JUMPDEST SWAP1 SLOAD PUSH1 0x40 MLOAD PUSH4 0x1B660D0B PUSH1 0xE0 SHL DUP2 MSTORE PUSH1 0x3 SWAP3 SWAP1 SWAP3 SHL SHR PUSH1 0x1 PUSH1 0x1 PUSH1 0xA0 SHL SUB AND PUSH1 0x4 DUP3 ADD MSTORE PUSH1 0x20 DUP2 PUSH1 0x24 DUP2 DUP10 GAS STATICCALL PUSH1 0x0 SWAP2 DUP2 PUSH2 0x6F48 JUMPI JUMPDEST POP PUSH2 0x6EED JUMPI JUMPDEST POP PUSH2 0x6E8D JUMP JUMPDEST PUSH2 0xFFFF DUP2 AND DUP1 PUSH2 0x6EFE JUMPI JUMPDEST POP PUSH2 0x6EE7 JUMP JUMPDEST PUSH2 0x1F4 SWAP2 SWAP3 SWAP4 POP GT PUSH1 0x0 EQ PUSH2 0x6F3F JUMPI POP PUSH2 0xFFFF PUSH2 0x1F4 JUMPDEST AND PUSH2 0x3E8 SUB SWAP2 PUSH2 0x3E8 DUP4 GT PUSH2 0x1D56 JUMPI PUSH2 0x3E8 PUSH2 0x6F36 PUSH1 0x1 SWAP5 PUSH2 0x6E9A SWAP5 PUSH2 0x5AD4 JUMP JUMPDEST DIV SWAP2 DUP2 SWAP4 PUSH2 0x6EF8 JUMP JUMPDEST PUSH2 0xFFFF SWAP1 PUSH2 0x6F15 JUMP JUMPDEST SWAP1 SWAP2 PUSH1 0x20 DUP3 RETURNDATASIZE DUP3 GT PUSH2 0x6F7B JUMPI JUMPDEST DUP2 PUSH2 0x6F62 PUSH1 0x20 SWAP4 DUP4 PUSH2 0x50B2 JUMP JUMPDEST DUP2 ADD SUB SLT PUSH2 0x5C90 JUMPI POP PUSH2 0x6F74 SWAP1 PUSH2 0x5AC5 JUMP JUMPDEST SWAP1 CODESIZE PUSH2 0x6EE1 JUMP JUMPDEST RETURNDATASIZE SWAP2 POP PUSH2 0x6F55 JUMP JUMPDEST TIMESTAMP PUSH1 0x1 PUSH1 0x1 PUSH1 0x40 SHL SUB SWAP1 SWAP2 AND GT SWAP1 POP CODESIZE PUSH2 0x6E74 JUMP JUMPDEST PUSH1 0x40 MLOAD PUSH4 0x1B660D0B PUSH1 0xE0 SHL DUP2 MSTORE PUSH1 0x4 DUP2 ADD DUP3 SWAP1 MSTORE PUSH1 0x20 DUP2 PUSH1 0x24 DUP2 DUP7 GAS STATICCALL DUP8 SWAP2 DUP2 PUSH2 0x6FD5 JUMPI JUMPDEST POP PUSH2 0x6FC9 JUMPI JUMPDEST POP PUSH2 0x6DB1 JUMP JUMPDEST PUSH2 0xFFFF AND SWAP6 POP CODESIZE PUSH2 0x6FC3 JUMP JUMPDEST SWAP1 SWAP2 POP PUSH1 0x20 DUP2 RETURNDATASIZE PUSH1 0x20 GT PUSH2 0x700D JUMPI JUMPDEST DUP2 PUSH2 0x6FF1 PUSH1 0x20 SWAP4 DUP4 PUSH2 0x50B2 JUMP JUMPDEST DUP2 ADD SUB SLT PUSH2 0x7009 JUMPI PUSH2 0x7002 SWAP1 PUSH2 0x5AC5 JUMP JUMPDEST SWAP1 CODESIZE PUSH2 0x6FBD JUMP JUMPDEST DUP8 DUP1 REVERT JUMPDEST RETURNDATASIZE SWAP2 POP PUSH2 0x6FE4 JUMP JUMPDEST PUSH1 0x40 MLOAD PUSH4 0x3AF2CAC7 PUSH1 0xE0 SHL DUP2 MSTORE PUSH1 0x1 PUSH1 0x1 PUSH1 0xA0 SHL SUB DUP4 AND PUSH1 0x4 DUP3 ADD MSTORE SWAP1 PUSH1 0x20 SWAP1 DUP3 SWAP1 PUSH1 0x24 SWAP1 DUP3 SWAP1 GAS STATICCALL PUSH1 0x0 SWAP2 DUP2 PUSH2 0x7053 JUMPI JUMPDEST POP ISZERO PUSH2 0x6D82 JUMPI SWAP2 POP POP SWAP1 JUMP JUMPDEST SWAP1 SWAP2 POP PUSH1 0x20 DUP2 RETURNDATASIZE PUSH1 0x20 GT PUSH2 0x707F JUMPI JUMPDEST DUP2 PUSH2 0x706F PUSH1 0x20 SWAP4 DUP4 PUSH2 0x50B2 JUMP JUMPDEST DUP2 ADD SUB SLT PUSH2 0x482 JUMPI MLOAD SWAP1 CODESIZE PUSH2 0x7047 JUMP JUMPDEST RETURNDATASIZE SWAP2 POP PUSH2 0x7062 JUMP JUMPDEST DUP1 SLOAD PUSH1 0x1 PUSH1 0x20 SHL PUSH1 0x1 PUSH1 0x60 SHL SUB NOT AND PUSH1 0x20 SWAP3 SWAP1 SWAP3 SHL PUSH1 0x1 PUSH1 0x20 SHL PUSH1 0x1 PUSH1 0x60 SHL SUB AND SWAP2 SWAP1 SWAP2 OR SWAP1 SSTORE JUMP INVALID 0xCD 0x25 LOG2 DUP5 DUP1 PUSH15 0x931BBFBD59E48CA09094F95CC8A54 DUP10 SWAP11 0xC7 0xCF PUSH8 0xA7BC084E4C8FE3C CALLER 0xB6 PUSH15 0x28F14B3D890787766EE667031D474E ADD DELEGATECALL BYTE REVERT 0x22 DUP3 0xC6 0xDD 0xD2 TIMESTAMP 0xB1 CALLVALUE EOFCREATE 0x5C 0xB6 0xB9 SMOD PUSH28 0xE93FF2307B61C4B6793DD8A820336C6F61327EF42ADF8592977A97BD KECCAK256 0xC7 PUSH30 0xF683DF83DB0A97DC89F48199A8AB88197522ACBC07667BD9CB815BA0BB1A CALL 0xC9 EXP 0xA5 0x2E 0xD0 MSTORE 0xB9 0x27 EQ SELFDESTRUCT STOP DUP8 STOP DUP13 0xC7 KECCAK256 DIV SWAP12 CALL 0xAF PUSH24 0xCCA2600B31E80C9F56690334C710BE9812966692E10C040B 0xDE BLOBHASH 0x27 0x26 SSTORE XOR 0xB4 0x22 0xC8 0x25 SDIV 0xF6 MSIZE PUSH2 0xEC78 PUSH7 0xCD9BF5624ADBB5 PUSH19 0xBDF0EF2C6611719C1BD1DD881D077900477122 PC PUSH0 MLOAD DUP12 JUMPDEST AND 0xD0 CHAINID 0x24 PUSH9 0x7FCF0D0228F19993C9 ISZERO PUSH29 0x1ED07B41D8D430FD9100EB099FE86F31909D6110EF8DA858CBB62B280E MOD 0xF6 SMOD RETURNDATACOPY MCOPY 0xF7 0xC1 CALLDATACOPY DUP5 0xCB 0xBD MSTORE 0xD4 0xD0 LOG1 0x2F EXP SUB KECCAK256 0xA6 0xEA 0xDC 0xAF SMOD 0xAD PUSH17 0x3766CE2AAE1E5A2302FD7B9236ECDACDC6 ADDMOD SWAP14 SSTORE PUSH15 0xE6611B4E571958FBA4EA5C92407500 0xC4 0x4C SUB 0xA9 SGT 0xF7 LOG3 0xC4 CREATE2 PUSH21 0x6FC318BA401831B4E5F4F1880C72D8DBAFC9805EB1 0xC4 0xBC 0xEF 0xCB ADDRESS 0xAF SWAP1 0xB0 0xAE SWAP4 0x2E 0xF SDIV 0xC DUP2 0xB4 SWAP2 SLT PC JUMPI 0xA9 PUSH16 0xB0EA3366184FA9EF274BB2B523BB1410 0xC5 MSIZE PUSH32 0x5B73E284BCC8D9C27CAF81DE4DF86A0CFBC1CA19C1967D53B4F9D906C2F3E5F0 0xB5 PUSH4 0x7FF74D60 GT BYTE 0xD4 DUP14 PUSH21 0xFE29986656BD77A1F0DA32C9315BED40455567F606 SIGNEXTEND 0xEA CODESIZE DUP13 SLT RETURNDATASIZE 0x4B 0xAF SELFDESTRUCT DUP5 GAS 0xC4 0xF6 GT EXTCODESIZE DELEGATECALL EXTCODEHASH 0xB5 SWAP14 0xBA 0x21 SELFDESTRUCT RETURNCONTRACT 0x10 PUSH14 0x9126A16FD7EF738A99E9F98F3366 0xA7 0xBC 0xD6 0x28 0x22 0xD4 COINBASE 0xAC 0xDD 0x22 DELEGATECALL 0xAE PUSH32 0x407A46293DD53140DC9FA6BEEEF35E22CB018B2643448F1A39279A10A884DD CREATE 0xB6 0xA9 TSTORE 0xE CHAINID RETURN COINBASE 0xA5 DUP1 SWAP16 PREVRANDAO PUSH30 0xE8F39F0C29E43A91427228074CC836EE3F9B71C5F19669AD560DE5D34C8D PUSH28 0xCFCD86301093FBA4908EDE426CAAF9F537D800BDC663BD466690F26 SWAP7 RETURNDATASIZE REVERT PUSH28 0xB0ED1ED5F323A945377DFCA03D1A4A2C4366D3DB0C7243A29EEF9C5E DUP5 SWAP16 SWAPN 0x32 DUP9 0x23 RJUMP 0xB728 DUP14 0xAB MSIZE 0xD5 0x23 LT LOG2 PUSH5 0x6970667358 0x22 SLT KECCAK256 JUMP EXTCODECOPY EXTCALL PREVRANDAO PUSH2 0x524A PUSH20 0xEF4D380A49023072BE976D434A7195B12A18E08D EXTDELEGATECALL SWAP5 RJUMPI 0xF564 PUSH20 0x6F6C634300081E00330000000000000000000000 "},"methodIdentifiers":{"MAX_HISTORY_PER_USER()":"3909b9de","MAX_SCORE()":"27ff6223","MIN_SCORE()":"40b89270","NEUTRAL()":"7b1f12a8","addScoreSource(address,string,uint8)":"4e3ac713","appeals(address)":"5037fc7d","applyDecay(address)":"edfcc437","applyDecayBatch(address[])":"8101d300","badgeExpiry(address,bytes32)":"d5b37a7f","becomeMentor()":"f9c4f4d9","calculateAutomatedScore(address)":"66bb7b78","calculateOnChainScore(address)":"75055c53","dailyOperatorRewardTotal(address,address)":"5ed2ed9c","dao()":"4162169f","daoScoreWeight()":"29c07cf9","decayEnabled()":"0f39c940","decayPerMonth()":"460da41b","decayStartDays()":"8e20a258","endorse(address,string)":"5abfe2cf","endorsementBaseValue()":"2b7ffc95","endorsementBonusCap()":"246683ce","endorsementCooldown()":"024caec7","endorsementMaxPerEndorser()":"99f68ac7","endorsementValidity()":"4cbb2f22","endorsements(address,address)":"e3bf0aff","endorsementsGiven(address)":"94c30e1a","endorsementsReceived(address)":"27758b17","fileAppeal(string)":"af216861","findReasonInHistory(address,string)":"9d30f8d0","getActiveEndorsements(address)":"dc99e341","getDecayAdjustedScore(address)":"0ba2d872","getEndorsementStats(address)":"a5d4e063","getMentees(address)":"e7244bbd","getMentorInfo(address)":"9beeb534","getScore(address)":"d47875d0","getScoreBreakdown(address)":"2c27750a","getScoreHistory(address)":"5bed5604","getScoreSourceCount()":"362d9b48","getScores(address[])":"f6c97ed1","getScoresBatch(address[])":"e29d04a2","getTrustLevel(address)":"6a4b783d","getUserStatus(address)":"ea0d5dcd","hasBadge(address,bytes32)":"38179754","highTrustThreshold()":"4a33fb72","isBadgeValid(address,bytes32)":"a1d51dcc","lastActivity(address)":"f07e96b3","lastEndorseTime(address)":"b7e2bf2f","lastOperatorRewardTime(address,address)":"b3cc5642","ledger()":"56397c35","lowTrustThreshold()":"52a67c5d","maxActiveGivenPerUser()":"b2746eed","maxDailyOperatorReward()":"b25e4cf1","maxEndorsersPerSubject()":"72f557ee","maxMenteesPerMentor()":"e7cce5d6","maxSingleReward()":"9e5f4e9d","mentorOf(address)":"59f827ad","mentors(address)":"eed4ea8f","minForGovernance()":"4ccf04cf","minForMerchant()":"e710c92b","minScoreToEndorse()":"c1c44621","minScoreToMentor()":"fa41d56a","onChainScoreWeight()":"53a42578","operatorRewardDayStart(address)":"66101d51","operators(address)":"13e7c9d8","paused()":"5c975abb","pendingAppealCount()":"b3a5df9e","pendingDisputeCount()":"900acd80","pruneEndorsements(address)":"257076dd","punish(address,uint16,string)":"0c61e69c","removeMentee(address)":"51c131f5","removeScoreSource(address)":"62238e8a","requestScoreReview(string)":"1121834f","resolveAppeal(address,bool,string)":"a8a89dc0","resolveScoreDispute(address,bool,int16)":"4b9707c4","revokeMentor(address)":"6c010095","reward(address,uint16,string)":"1d997a6a","scoreDisputes(address)":"103f8829","scoreHistory(address,uint256)":"691845e4","scoreSourceIndex(address)":"b291d011","scoreSources(uint256)":"a61ff4e1","seerAutonomous()":"8437f7cc","seerSocial()":"e0511fa0","setBadge(address,bytes32,bool,uint256)":"0494dada","setBadgeBatch(address[],bytes32,bool,uint256)":"59f86611","setDAO(address)":"e73a914c","setDecayConfig(bool,uint64,uint16)":"327d8bfc","setDecentralizationWeights(uint8,uint8)":"6b1cdab1","setEndorsementPolicy(uint16,uint16,uint16,uint16,uint16,uint64,uint64,uint16)":"4d4efe8e","setMentorConfig(uint16,uint16)":"1017817c","setModules(address,address)":"d74a5d00","setOperator(address,bool)":"558a7297","setOperatorLimits(uint16,uint16)":"c4a2db65","setPaused(bool)":"16c38b3c","setScore(address,uint16,string)":"3f4d10be","setSeerAutonomous(address)":"45f5cc1f","setSeerSocial(address)":"b7be2d2a","setThresholds(uint16,uint16,uint16,uint16)":"0f83a99c","sponsorMentee(address)":"bfda4181","vaultHub()":"6dd6e80b"}}}}}