{"contracts/VFIDETrust.sol":{"ProofScoreBurnRouterPlus":{"abi":[{"inputs":[{"internalType":"address","name":"_dao","type":"address"},{"internalType":"address","name":"_seer","type":"address"},{"internalType":"address","name":"_treasury","type":"address"}],"stateMutability":"nonpayable","type":"constructor"},{"inputs":[],"name":"TRUST_Bounds","type":"error"},{"inputs":[],"name":"TRUST_NotDAO","type":"error"},{"inputs":[],"name":"TRUST_Zero","type":"error"},{"anonymous":false,"inputs":[{"indexed":false,"internalType":"uint16","name":"baseBurnBps","type":"uint16"},{"indexed":false,"internalType":"uint16","name":"baseRewardBps","type":"uint16"},{"indexed":false,"internalType":"uint16","name":"highBoostBps","type":"uint16"},{"indexed":false,"internalType":"uint16","name":"lowPenaltyBps","type":"uint16"},{"indexed":false,"internalType":"uint16","name":"maxTotalBps","type":"uint16"},{"indexed":false,"internalType":"address","name":"treasury","type":"address"}],"name":"PolicySet","type":"event"},{"anonymous":false,"inputs":[{"indexed":false,"internalType":"address","name":"seer","type":"address"}],"name":"SeerSet","type":"event"},{"inputs":[],"name":"baseBurnBps","outputs":[{"internalType":"uint16","name":"","type":"uint16"}],"stateMutability":"view","type":"function"},{"inputs":[],"name":"baseRewardBps","outputs":[{"internalType":"uint16","name":"","type":"uint16"}],"stateMutability":"view","type":"function"},{"inputs":[],"name":"dao","outputs":[{"internalType":"address","name":"","type":"address"}],"stateMutability":"view","type":"function"},{"inputs":[],"name":"highBoostBps","outputs":[{"internalType":"uint16","name":"","type":"uint16"}],"stateMutability":"view","type":"function"},{"inputs":[],"name":"lowPenaltyBps","outputs":[{"internalType":"uint16","name":"","type":"uint16"}],"stateMutability":"view","type":"function"},{"inputs":[],"name":"maxTotalBps","outputs":[{"internalType":"uint16","name":"","type":"uint16"}],"stateMutability":"view","type":"function"},{"inputs":[{"internalType":"address","name":"subject","type":"address"}],"name":"routeFor","outputs":[{"components":[{"internalType":"uint16","name":"burnBps","type":"uint16"},{"internalType":"uint16","name":"rewardBps","type":"uint16"},{"internalType":"uint16","name":"treasuryBps","type":"uint16"}],"internalType":"struct ProofScoreBurnRouterPlus.Route","name":"r","type":"tuple"}],"stateMutability":"view","type":"function"},{"inputs":[],"name":"seer","outputs":[{"internalType":"contract Seer","name":"","type":"address"}],"stateMutability":"view","type":"function"},{"inputs":[{"internalType":"address","name":"_seer","type":"address"},{"internalType":"address","name":"_treasury","type":"address"}],"name":"setModules","outputs":[],"stateMutability":"nonpayable","type":"function"},{"inputs":[{"internalType":"uint16","name":"_baseBurnBps","type":"uint16"},{"internalType":"uint16","name":"_baseRewardBps","type":"uint16"},{"internalType":"uint16","name":"_highBoostBps","type":"uint16"},{"internalType":"uint16","name":"_lowPenaltyBps","type":"uint16"},{"internalType":"uint16","name":"_maxTotalBps","type":"uint16"},{"internalType":"address","name":"_treasury","type":"address"}],"name":"setPolicy","outputs":[],"stateMutability":"nonpayable","type":"function"},{"inputs":[],"name":"treasury","outputs":[{"internalType":"address","name":"","type":"address"}],"stateMutability":"view","type":"function"}],"evm":{"bytecode":{"linkReferences":{},"object":"60803461016557601f61088938819003918201601f19168301916001600160401b0383118484101761016a578084926060946040528339810103126101655761004781610180565b61005f604061005860208501610180565b9301610180565b60018054600160a01b600160f01b031981167d03e800960032003200c80000000000000000000000000000000000000000179091559092600160a01b600160e01b03199091167a960032003200c8000000000000000000000000000000000000000017916001600160a01b0316801561015457600080546001600160a01b0319169190911790556001600160a01b03168061011f575b600280546001600160a01b0319166001600160a01b0385161790556040516106f490816101958239f35b7fffff0000ffffffffffffffff000000000000000000000000000000000000000090911617607d60e31b1760015538806100f5565b630409728b60e41b60005260046000fd5b600080fd5b634e487b7160e01b600052604160045260246000fd5b51906001600160a01b03821682036101655756fe608080604052600436101561001357600080fd5b60003560e01c90816318c3d4ac146105e6575080632d55ea39146105bd5780634162169f146105945780634547c6761461056f5780635af1a1431461054a5780635f31bce51461052557806361d027b3146104fc57806399388df4146104d7578063d74a5d0014610430578063e8c6df01146102cb5763f9b5c4ce1461009857600080fd5b346102c65760203660031901126102c6576100b1610608565b6000604080516100c08161061e565b8281526020808201849052910191909152600154604051630d47875d60e41b81526001600160a01b0393841660048201529281169183602481855afa928315610272576000936102a5575b5061ffff8160a01c169261ffff8260b01c169260405191632519fdb960e11b8352602083600481855afa9283156102725760009361027e575b5061ffff908116921682106101f9575050906101689061ffff8360c01c169061068c565b905b61ffff610177838561068c565b60e09290921c16908181106101cb57505061ffff60609281806000925b169381604080516101a48161061e565b87815282602082019416845201931683526040519485525116602084015251166040820152f35b81039081116101e35760609261ffff80809392610194565b634e487b7160e01b600052601160045260246000fd5b6020600491604051928380926352a67c5d60e01b82525afa80156102725761ffff91600091610243575b50161061016a579161023d9061ffff8460d01c169061068c565b9161016a565b610265915060203d60201161026b575b61025d818361064f565b810190610672565b38610223565b503d610253565b6040513d6000823e3d90fd5b61ffff91935061029d829160203d60201161026b5761025d818361064f565b939150610144565b6102bf91935060203d60201161026b5761025d818361064f565b913861010b565b600080fd5b346102c65760c03660031901126102c65760043561ffff811681036102c65760243561ffff811681036102c65760443561ffff811681036102c6576064359261ffff841684036102c6576084359361ffff8516928386036102c65760a4356001600160a01b03811694908590036102c657610fa090610348610699565b1161041f576001805460d093841b61ffff60d01b1660c093841b61ffff60c01b16600160a01b600160f01b031990921660a096871b61ffff60a01b161760b098891b61ffff60b01b1617919091171760e097881b61ffff60e01b161790819055600280546001600160a01b031916861790556040805182861c61ffff90811682529783901c8816602082015282841c8816918101919091529281901c8616606084015290951c90931660808401528201527fad85ea8bd62a800d47d98d22f8b8af72e1744a61b7f4d23863d8806fac0ef98e9190a1005b6302f9198160e51b60005260046000fd5b346102c65760403660031901126102c657610449610608565b6024356001600160a01b03811691908290036102c657610467610699565b6001600160a01b03169081156104c657600180546001600160a01b031990811684179091556002805490911690911790556040519081527fc33c1a95c902d772578a793cd3d42b7d0a418863633ff3be7853c55a4d95388a90602090a1005b630409728b60e41b60005260046000fd5b346102c65760003660031901126102c657602061ffff60015460c01c16604051908152f35b346102c65760003660031901126102c6576002546040516001600160a01b039091168152602090f35b346102c65760003660031901126102c657602061ffff60015460e01c16604051908152f35b346102c65760003660031901126102c657602061ffff60015460b01c16604051908152f35b346102c65760003660031901126102c657602061ffff60015460d01c16604051908152f35b346102c65760003660031901126102c6576000546040516001600160a01b039091168152602090f35b346102c65760003660031901126102c6576001546040516001600160a01b039091168152602090f35b346102c65760003660031901126102c65760209061ffff60015460a01c168152f35b600435906001600160a01b03821682036102c657565b606081019081106001600160401b0382111761063957604052565b634e487b7160e01b600052604160045260246000fd5b601f909101601f19168101906001600160401b0382119082101761063957604052565b908160209103126102c6575161ffff811681036102c65790565b919082018092116101e357565b6000546001600160a01b031633036106ad57565b63483e517d60e01b60005260046000fdfea2646970667358221220cfa7c2121818e64650219b2ea6a75a58c0372cd524c77577f5eef2476d7b202864736f6c634300081e0033","opcodes":"PUSH1 0x80 CALLVALUE PUSH2 0x165 JUMPI PUSH1 0x1F PUSH2 0x889 CODESIZE DUP2 SWAP1 SUB SWAP2 DUP3 ADD PUSH1 0x1F NOT AND DUP4 ADD SWAP2 PUSH1 0x1 PUSH1 0x1 PUSH1 0x40 SHL SUB DUP4 GT DUP5 DUP5 LT OR PUSH2 0x16A JUMPI DUP1 DUP5 SWAP3 PUSH1 0x60 SWAP5 PUSH1 0x40 MSTORE DUP4 CODECOPY DUP2 ADD SUB SLT PUSH2 0x165 JUMPI PUSH2 0x47 DUP2 PUSH2 0x180 JUMP JUMPDEST PUSH2 0x5F PUSH1 0x40 PUSH2 0x58 PUSH1 0x20 DUP6 ADD PUSH2 0x180 JUMP JUMPDEST SWAP4 ADD PUSH2 0x180 JUMP JUMPDEST PUSH1 0x1 DUP1 SLOAD PUSH1 0x1 PUSH1 0xA0 SHL PUSH1 0x1 PUSH1 0xF0 SHL SUB NOT DUP2 AND PUSH30 0x3E800960032003200C80000000000000000000000000000000000000000 OR SWAP1 SWAP2 SSTORE SWAP1 SWAP3 PUSH1 0x1 PUSH1 0xA0 SHL PUSH1 0x1 PUSH1 0xE0 SHL SUB NOT SWAP1 SWAP2 AND PUSH27 0x960032003200C80000000000000000000000000000000000000000 OR SWAP2 PUSH1 0x1 PUSH1 0x1 PUSH1 0xA0 SHL SUB AND DUP1 ISZERO PUSH2 0x154 JUMPI PUSH1 0x0 DUP1 SLOAD PUSH1 0x1 PUSH1 0x1 PUSH1 0xA0 SHL SUB NOT AND SWAP2 SWAP1 SWAP2 OR SWAP1 SSTORE PUSH1 0x1 PUSH1 0x1 PUSH1 0xA0 SHL SUB AND DUP1 PUSH2 0x11F JUMPI JUMPDEST PUSH1 0x2 DUP1 SLOAD PUSH1 0x1 PUSH1 0x1 PUSH1 0xA0 SHL SUB NOT AND PUSH1 0x1 PUSH1 0x1 PUSH1 0xA0 SHL SUB DUP6 AND OR SWAP1 SSTORE PUSH1 0x40 MLOAD PUSH2 0x6F4 SWAP1 DUP2 PUSH2 0x195 DUP3 CODECOPY RETURN JUMPDEST PUSH32 0xFFFF0000FFFFFFFFFFFFFFFF0000000000000000000000000000000000000000 SWAP1 SWAP2 AND OR PUSH1 0x7D PUSH1 0xE3 SHL OR PUSH1 0x1 SSTORE CODESIZE DUP1 PUSH2 0xF5 JUMP JUMPDEST PUSH4 0x409728B PUSH1 0xE4 SHL PUSH1 0x0 MSTORE PUSH1 0x4 PUSH1 0x0 REVERT JUMPDEST PUSH1 0x0 DUP1 REVERT JUMPDEST PUSH4 0x4E487B71 PUSH1 0xE0 SHL PUSH1 0x0 MSTORE PUSH1 0x41 PUSH1 0x4 MSTORE PUSH1 0x24 PUSH1 0x0 REVERT JUMPDEST MLOAD SWAP1 PUSH1 0x1 PUSH1 0x1 PUSH1 0xA0 SHL SUB DUP3 AND DUP3 SUB PUSH2 0x165 JUMPI JUMP INVALID PUSH1 0x80 DUP1 PUSH1 0x40 MSTORE PUSH1 0x4 CALLDATASIZE LT ISZERO PUSH2 0x13 JUMPI PUSH1 0x0 DUP1 REVERT JUMPDEST PUSH1 0x0 CALLDATALOAD PUSH1 0xE0 SHR SWAP1 DUP2 PUSH4 0x18C3D4AC EQ PUSH2 0x5E6 JUMPI POP DUP1 PUSH4 0x2D55EA39 EQ PUSH2 0x5BD JUMPI DUP1 PUSH4 0x4162169F EQ PUSH2 0x594 JUMPI DUP1 PUSH4 0x4547C676 EQ PUSH2 0x56F JUMPI DUP1 PUSH4 0x5AF1A143 EQ PUSH2 0x54A JUMPI DUP1 PUSH4 0x5F31BCE5 EQ PUSH2 0x525 JUMPI DUP1 PUSH4 0x61D027B3 EQ PUSH2 0x4FC JUMPI DUP1 PUSH4 0x99388DF4 EQ PUSH2 0x4D7 JUMPI DUP1 PUSH4 0xD74A5D00 EQ PUSH2 0x430 JUMPI DUP1 PUSH4 0xE8C6DF01 EQ PUSH2 0x2CB JUMPI PUSH4 0xF9B5C4CE EQ PUSH2 0x98 JUMPI PUSH1 0x0 DUP1 REVERT JUMPDEST CALLVALUE PUSH2 0x2C6 JUMPI PUSH1 0x20 CALLDATASIZE PUSH1 0x3 NOT ADD SLT PUSH2 0x2C6 JUMPI PUSH2 0xB1 PUSH2 0x608 JUMP JUMPDEST PUSH1 0x0 PUSH1 0x40 DUP1 MLOAD PUSH2 0xC0 DUP2 PUSH2 0x61E JUMP JUMPDEST DUP3 DUP2 MSTORE PUSH1 0x20 DUP1 DUP3 ADD DUP5 SWAP1 MSTORE SWAP2 ADD SWAP2 SWAP1 SWAP2 MSTORE PUSH1 0x1 SLOAD PUSH1 0x40 MLOAD PUSH4 0xD47875D PUSH1 0xE4 SHL DUP2 MSTORE PUSH1 0x1 PUSH1 0x1 PUSH1 0xA0 SHL SUB SWAP4 DUP5 AND PUSH1 0x4 DUP3 ADD MSTORE SWAP3 DUP2 AND SWAP2 DUP4 PUSH1 0x24 DUP2 DUP6 GAS STATICCALL SWAP3 DUP4 ISZERO PUSH2 0x272 JUMPI PUSH1 0x0 SWAP4 PUSH2 0x2A5 JUMPI JUMPDEST POP PUSH2 0xFFFF DUP2 PUSH1 0xA0 SHR AND SWAP3 PUSH2 0xFFFF DUP3 PUSH1 0xB0 SHR AND SWAP3 PUSH1 0x40 MLOAD SWAP2 PUSH4 0x2519FDB9 PUSH1 0xE1 SHL DUP4 MSTORE PUSH1 0x20 DUP4 PUSH1 0x4 DUP2 DUP6 GAS STATICCALL SWAP3 DUP4 ISZERO PUSH2 0x272 JUMPI PUSH1 0x0 SWAP4 PUSH2 0x27E JUMPI JUMPDEST POP PUSH2 0xFFFF SWAP1 DUP2 AND SWAP3 AND DUP3 LT PUSH2 0x1F9 JUMPI POP POP SWAP1 PUSH2 0x168 SWAP1 PUSH2 0xFFFF DUP4 PUSH1 0xC0 SHR AND SWAP1 PUSH2 0x68C JUMP JUMPDEST SWAP1 JUMPDEST PUSH2 0xFFFF PUSH2 0x177 DUP4 DUP6 PUSH2 0x68C JUMP JUMPDEST PUSH1 0xE0 SWAP3 SWAP1 SWAP3 SHR AND SWAP1 DUP2 DUP2 LT PUSH2 0x1CB JUMPI POP POP PUSH2 0xFFFF PUSH1 0x60 SWAP3 DUP2 DUP1 PUSH1 0x0 SWAP3 JUMPDEST AND SWAP4 DUP2 PUSH1 0x40 DUP1 MLOAD PUSH2 0x1A4 DUP2 PUSH2 0x61E JUMP JUMPDEST DUP8 DUP2 MSTORE DUP3 PUSH1 0x20 DUP3 ADD SWAP5 AND DUP5 MSTORE ADD SWAP4 AND DUP4 MSTORE PUSH1 0x40 MLOAD SWAP5 DUP6 MSTORE MLOAD AND PUSH1 0x20 DUP5 ADD MSTORE MLOAD AND PUSH1 0x40 DUP3 ADD MSTORE RETURN JUMPDEST DUP2 SUB SWAP1 DUP2 GT PUSH2 0x1E3 JUMPI PUSH1 0x60 SWAP3 PUSH2 0xFFFF DUP1 DUP1 SWAP4 SWAP3 PUSH2 0x194 JUMP JUMPDEST PUSH4 0x4E487B71 PUSH1 0xE0 SHL PUSH1 0x0 MSTORE PUSH1 0x11 PUSH1 0x4 MSTORE PUSH1 0x24 PUSH1 0x0 REVERT JUMPDEST PUSH1 0x20 PUSH1 0x4 SWAP2 PUSH1 0x40 MLOAD SWAP3 DUP4 DUP1 SWAP3 PUSH4 0x52A67C5D PUSH1 0xE0 SHL DUP3 MSTORE GAS STATICCALL DUP1 ISZERO PUSH2 0x272 JUMPI PUSH2 0xFFFF SWAP2 PUSH1 0x0 SWAP2 PUSH2 0x243 JUMPI JUMPDEST POP AND LT PUSH2 0x16A JUMPI SWAP2 PUSH2 0x23D SWAP1 PUSH2 0xFFFF DUP5 PUSH1 0xD0 SHR AND SWAP1 PUSH2 0x68C JUMP JUMPDEST SWAP2 PUSH2 0x16A JUMP JUMPDEST PUSH2 0x265 SWAP2 POP PUSH1 0x20 RETURNDATASIZE PUSH1 0x20 GT PUSH2 0x26B JUMPI JUMPDEST PUSH2 0x25D DUP2 DUP4 PUSH2 0x64F JUMP JUMPDEST DUP2 ADD SWAP1 PUSH2 0x672 JUMP JUMPDEST CODESIZE PUSH2 0x223 JUMP JUMPDEST POP RETURNDATASIZE PUSH2 0x253 JUMP JUMPDEST PUSH1 0x40 MLOAD RETURNDATASIZE PUSH1 0x0 DUP3 RETURNDATACOPY RETURNDATASIZE SWAP1 REVERT JUMPDEST PUSH2 0xFFFF SWAP2 SWAP4 POP PUSH2 0x29D DUP3 SWAP2 PUSH1 0x20 RETURNDATASIZE PUSH1 0x20 GT PUSH2 0x26B JUMPI PUSH2 0x25D DUP2 DUP4 PUSH2 0x64F JUMP JUMPDEST SWAP4 SWAP2 POP PUSH2 0x144 JUMP JUMPDEST PUSH2 0x2BF SWAP2 SWAP4 POP PUSH1 0x20 RETURNDATASIZE PUSH1 0x20 GT PUSH2 0x26B JUMPI PUSH2 0x25D DUP2 DUP4 PUSH2 0x64F JUMP JUMPDEST SWAP2 CODESIZE PUSH2 0x10B JUMP JUMPDEST PUSH1 0x0 DUP1 REVERT JUMPDEST CALLVALUE PUSH2 0x2C6 JUMPI PUSH1 0xC0 CALLDATASIZE PUSH1 0x3 NOT ADD SLT PUSH2 0x2C6 JUMPI PUSH1 0x4 CALLDATALOAD PUSH2 0xFFFF DUP2 AND DUP2 SUB PUSH2 0x2C6 JUMPI PUSH1 0x24 CALLDATALOAD PUSH2 0xFFFF DUP2 AND DUP2 SUB PUSH2 0x2C6 JUMPI PUSH1 0x44 CALLDATALOAD PUSH2 0xFFFF DUP2 AND DUP2 SUB PUSH2 0x2C6 JUMPI PUSH1 0x64 CALLDATALOAD SWAP3 PUSH2 0xFFFF DUP5 AND DUP5 SUB PUSH2 0x2C6 JUMPI PUSH1 0x84 CALLDATALOAD SWAP4 PUSH2 0xFFFF DUP6 AND SWAP3 DUP4 DUP7 SUB PUSH2 0x2C6 JUMPI PUSH1 0xA4 CALLDATALOAD PUSH1 0x1 PUSH1 0x1 PUSH1 0xA0 SHL SUB DUP2 AND SWAP5 SWAP1 DUP6 SWAP1 SUB PUSH2 0x2C6 JUMPI PUSH2 0xFA0 SWAP1 PUSH2 0x348 PUSH2 0x699 JUMP JUMPDEST GT PUSH2 0x41F JUMPI PUSH1 0x1 DUP1 SLOAD PUSH1 0xD0 SWAP4 DUP5 SHL PUSH2 0xFFFF PUSH1 0xD0 SHL AND PUSH1 0xC0 SWAP4 DUP5 SHL PUSH2 0xFFFF PUSH1 0xC0 SHL AND PUSH1 0x1 PUSH1 0xA0 SHL PUSH1 0x1 PUSH1 0xF0 SHL SUB NOT SWAP1 SWAP3 AND PUSH1 0xA0 SWAP7 DUP8 SHL PUSH2 0xFFFF PUSH1 0xA0 SHL AND OR PUSH1 0xB0 SWAP9 DUP10 SHL PUSH2 0xFFFF PUSH1 0xB0 SHL AND OR SWAP2 SWAP1 SWAP2 OR OR PUSH1 0xE0 SWAP8 DUP9 SHL PUSH2 0xFFFF PUSH1 0xE0 SHL AND OR SWAP1 DUP2 SWAP1 SSTORE PUSH1 0x2 DUP1 SLOAD PUSH1 0x1 PUSH1 0x1 PUSH1 0xA0 SHL SUB NOT AND DUP7 OR SWAP1 SSTORE PUSH1 0x40 DUP1 MLOAD DUP3 DUP7 SHR PUSH2 0xFFFF SWAP1 DUP2 AND DUP3 MSTORE SWAP8 DUP4 SWAP1 SHR DUP9 AND PUSH1 0x20 DUP3 ADD MSTORE DUP3 DUP5 SHR DUP9 AND SWAP2 DUP2 ADD SWAP2 SWAP1 SWAP2 MSTORE SWAP3 DUP2 SWAP1 SHR DUP7 AND PUSH1 0x60 DUP5 ADD MSTORE SWAP1 SWAP6 SHR SWAP1 SWAP4 AND PUSH1 0x80 DUP5 ADD MSTORE DUP3 ADD MSTORE PUSH32 0xAD85EA8BD62A800D47D98D22F8B8AF72E1744A61B7F4D23863D8806FAC0EF98E SWAP2 SWAP1 LOG1 STOP JUMPDEST PUSH4 0x2F91981 PUSH1 0xE5 SHL PUSH1 0x0 MSTORE PUSH1 0x4 PUSH1 0x0 REVERT JUMPDEST CALLVALUE PUSH2 0x2C6 JUMPI PUSH1 0x40 CALLDATASIZE PUSH1 0x3 NOT ADD SLT PUSH2 0x2C6 JUMPI PUSH2 0x449 PUSH2 0x608 JUMP JUMPDEST PUSH1 0x24 CALLDATALOAD PUSH1 0x1 PUSH1 0x1 PUSH1 0xA0 SHL SUB DUP2 AND SWAP2 SWAP1 DUP3 SWAP1 SUB PUSH2 0x2C6 JUMPI PUSH2 0x467 PUSH2 0x699 JUMP JUMPDEST PUSH1 0x1 PUSH1 0x1 PUSH1 0xA0 SHL SUB AND SWAP1 DUP2 ISZERO PUSH2 0x4C6 JUMPI PUSH1 0x1 DUP1 SLOAD PUSH1 0x1 PUSH1 0x1 PUSH1 0xA0 SHL SUB NOT SWAP1 DUP2 AND DUP5 OR SWAP1 SWAP2 SSTORE PUSH1 0x2 DUP1 SLOAD SWAP1 SWAP2 AND SWAP1 SWAP2 OR SWAP1 SSTORE PUSH1 0x40 MLOAD SWAP1 DUP2 MSTORE PUSH32 0xC33C1A95C902D772578A793CD3D42B7D0A418863633FF3BE7853C55A4D95388A SWAP1 PUSH1 0x20 SWAP1 LOG1 STOP JUMPDEST PUSH4 0x409728B PUSH1 0xE4 SHL PUSH1 0x0 MSTORE PUSH1 0x4 PUSH1 0x0 REVERT JUMPDEST CALLVALUE PUSH2 0x2C6 JUMPI PUSH1 0x0 CALLDATASIZE PUSH1 0x3 NOT ADD SLT PUSH2 0x2C6 JUMPI PUSH1 0x20 PUSH2 0xFFFF PUSH1 0x1 SLOAD PUSH1 0xC0 SHR AND PUSH1 0x40 MLOAD SWAP1 DUP2 MSTORE RETURN JUMPDEST CALLVALUE PUSH2 0x2C6 JUMPI PUSH1 0x0 CALLDATASIZE PUSH1 0x3 NOT ADD SLT PUSH2 0x2C6 JUMPI PUSH1 0x2 SLOAD PUSH1 0x40 MLOAD PUSH1 0x1 PUSH1 0x1 PUSH1 0xA0 SHL SUB SWAP1 SWAP2 AND DUP2 MSTORE PUSH1 0x20 SWAP1 RETURN JUMPDEST CALLVALUE PUSH2 0x2C6 JUMPI PUSH1 0x0 CALLDATASIZE PUSH1 0x3 NOT ADD SLT PUSH2 0x2C6 JUMPI PUSH1 0x20 PUSH2 0xFFFF PUSH1 0x1 SLOAD PUSH1 0xE0 SHR AND PUSH1 0x40 MLOAD SWAP1 DUP2 MSTORE RETURN JUMPDEST CALLVALUE PUSH2 0x2C6 JUMPI PUSH1 0x0 CALLDATASIZE PUSH1 0x3 NOT ADD SLT PUSH2 0x2C6 JUMPI PUSH1 0x20 PUSH2 0xFFFF PUSH1 0x1 SLOAD PUSH1 0xB0 SHR AND PUSH1 0x40 MLOAD SWAP1 DUP2 MSTORE RETURN JUMPDEST CALLVALUE PUSH2 0x2C6 JUMPI PUSH1 0x0 CALLDATASIZE PUSH1 0x3 NOT ADD SLT PUSH2 0x2C6 JUMPI PUSH1 0x20 PUSH2 0xFFFF PUSH1 0x1 SLOAD PUSH1 0xD0 SHR AND PUSH1 0x40 MLOAD SWAP1 DUP2 MSTORE RETURN JUMPDEST CALLVALUE PUSH2 0x2C6 JUMPI PUSH1 0x0 CALLDATASIZE PUSH1 0x3 NOT ADD SLT PUSH2 0x2C6 JUMPI PUSH1 0x0 SLOAD PUSH1 0x40 MLOAD PUSH1 0x1 PUSH1 0x1 PUSH1 0xA0 SHL SUB SWAP1 SWAP2 AND DUP2 MSTORE PUSH1 0x20 SWAP1 RETURN JUMPDEST CALLVALUE PUSH2 0x2C6 JUMPI PUSH1 0x0 CALLDATASIZE PUSH1 0x3 NOT ADD SLT PUSH2 0x2C6 JUMPI PUSH1 0x1 SLOAD PUSH1 0x40 MLOAD PUSH1 0x1 PUSH1 0x1 PUSH1 0xA0 SHL SUB SWAP1 SWAP2 AND DUP2 MSTORE PUSH1 0x20 SWAP1 RETURN JUMPDEST CALLVALUE PUSH2 0x2C6 JUMPI PUSH1 0x0 CALLDATASIZE PUSH1 0x3 NOT ADD SLT PUSH2 0x2C6 JUMPI PUSH1 0x20 SWAP1 PUSH2 0xFFFF PUSH1 0x1 SLOAD PUSH1 0xA0 SHR AND DUP2 MSTORE RETURN JUMPDEST PUSH1 0x4 CALLDATALOAD SWAP1 PUSH1 0x1 PUSH1 0x1 PUSH1 0xA0 SHL SUB DUP3 AND DUP3 SUB PUSH2 0x2C6 JUMPI JUMP JUMPDEST PUSH1 0x60 DUP2 ADD SWAP1 DUP2 LT PUSH1 0x1 PUSH1 0x1 PUSH1 0x40 SHL SUB DUP3 GT OR PUSH2 0x639 JUMPI PUSH1 0x40 MSTORE JUMP JUMPDEST PUSH4 0x4E487B71 PUSH1 0xE0 SHL PUSH1 0x0 MSTORE PUSH1 0x41 PUSH1 0x4 MSTORE PUSH1 0x24 PUSH1 0x0 REVERT JUMPDEST PUSH1 0x1F SWAP1 SWAP2 ADD PUSH1 0x1F NOT AND DUP2 ADD SWAP1 PUSH1 0x1 PUSH1 0x1 PUSH1 0x40 SHL SUB DUP3 GT SWAP1 DUP3 LT OR PUSH2 0x639 JUMPI PUSH1 0x40 MSTORE JUMP JUMPDEST SWAP1 DUP2 PUSH1 0x20 SWAP2 SUB SLT PUSH2 0x2C6 JUMPI MLOAD PUSH2 0xFFFF DUP2 AND DUP2 SUB PUSH2 0x2C6 JUMPI SWAP1 JUMP JUMPDEST SWAP2 SWAP1 DUP3 ADD DUP1 SWAP3 GT PUSH2 0x1E3 JUMPI JUMP JUMPDEST PUSH1 0x0 SLOAD PUSH1 0x1 PUSH1 0x1 PUSH1 0xA0 SHL SUB AND CALLER SUB PUSH2 0x6AD JUMPI JUMP JUMPDEST PUSH4 0x483E517D PUSH1 0xE0 SHL PUSH1 0x0 MSTORE PUSH1 0x4 PUSH1 0x0 REVERT INVALID LOG2 PUSH5 0x6970667358 0x22 SLT KECCAK256 0xCF 0xA7 0xC2 SLT XOR XOR DUPN 0x46 POP 0x21 SWAP12 0x2E 0xA6 0xA7 GAS PC 0xC0 CALLDATACOPY 0x2C 0xD5 0x24 0xC7 PUSH22 0x77F5EEF2476D7B202864736F6C634300081E00330000 "},"methodIdentifiers":{"baseBurnBps()":"18c3d4ac","baseRewardBps()":"5af1a143","dao()":"4162169f","highBoostBps()":"99388df4","lowPenaltyBps()":"4547c676","maxTotalBps()":"5f31bce5","routeFor(address)":"f9b5c4ce","seer()":"2d55ea39","setModules(address,address)":"d74a5d00","setPolicy(uint16,uint16,uint16,uint16,uint16,address)":"e8c6df01","treasury()":"61d027b3"}}}}}