{"contracts/BadgeManager.sol":{"BadgeManager":{"abi":[{"inputs":[{"internalType":"address","name":"_dao","type":"address"},{"internalType":"address","name":"_seer","type":"address"}],"stateMutability":"nonpayable","type":"constructor"},{"inputs":[],"name":"BM_InvalidBadge","type":"error"},{"inputs":[],"name":"BM_NotDAO","type":"error"},{"inputs":[],"name":"BM_NotOperator","type":"error"},{"inputs":[],"name":"BM_Zero","type":"error"},{"anonymous":false,"inputs":[{"indexed":true,"internalType":"address","name":"user","type":"address"},{"indexed":true,"internalType":"bytes32","name":"badge","type":"bytes32"},{"indexed":false,"internalType":"uint256","name":"expiry","type":"uint256"},{"indexed":false,"internalType":"uint16","name":"scoreBoost","type":"uint16"}],"name":"BadgeEarned","type":"event"},{"anonymous":false,"inputs":[{"indexed":true,"internalType":"address","name":"user","type":"address"},{"indexed":true,"internalType":"bytes32","name":"badge","type":"bytes32"},{"indexed":false,"internalType":"uint256","name":"newExpiry","type":"uint256"}],"name":"BadgeRenewed","type":"event"},{"anonymous":false,"inputs":[{"indexed":true,"internalType":"address","name":"user","type":"address"},{"indexed":true,"internalType":"bytes32","name":"badge","type":"bytes32"},{"indexed":false,"internalType":"string","name":"reason","type":"string"}],"name":"BadgeRevoked","type":"event"},{"anonymous":false,"inputs":[{"indexed":true,"internalType":"address","name":"operator","type":"address"},{"indexed":false,"internalType":"bool","name":"authorized","type":"bool"}],"name":"OperatorSet","type":"event"},{"anonymous":false,"inputs":[{"indexed":true,"internalType":"address","name":"user","type":"address"},{"indexed":false,"internalType":"string","name":"metric","type":"string"},{"indexed":false,"internalType":"uint32","name":"newValue","type":"uint32"}],"name":"StatsUpdated","type":"event"},{"inputs":[],"name":"MAX_FOUNDING_MEMBERS","outputs":[{"internalType":"uint32","name":"","type":"uint32"}],"stateMutability":"view","type":"function"},{"inputs":[],"name":"MAX_PIONEERS","outputs":[{"internalType":"uint32","name":"","type":"uint32"}],"stateMutability":"view","type":"function"},{"inputs":[{"internalType":"address","name":"user","type":"address"},{"internalType":"bytes32","name":"badge","type":"bytes32"}],"name":"awardBadge","outputs":[],"stateMutability":"nonpayable","type":"function"},{"inputs":[{"internalType":"address","name":"user","type":"address"}],"name":"awardFoundingMember","outputs":[],"stateMutability":"nonpayable","type":"function"},{"inputs":[{"internalType":"address","name":"user","type":"address"}],"name":"awardPioneer","outputs":[],"stateMutability":"nonpayable","type":"function"},{"inputs":[],"name":"dao","outputs":[{"internalType":"address","name":"","type":"address"}],"stateMutability":"view","type":"function"},{"inputs":[],"name":"foundingMemberCount","outputs":[{"internalType":"uint32","name":"","type":"uint32"}],"stateMutability":"view","type":"function"},{"inputs":[{"internalType":"address","name":"user","type":"address"},{"internalType":"bytes32","name":"badge","type":"bytes32"}],"name":"getBadgeProgress","outputs":[{"internalType":"uint32","name":"current","type":"uint32"},{"internalType":"uint32","name":"required","type":"uint32"},{"internalType":"uint8","name":"percentage","type":"uint8"}],"stateMutability":"view","type":"function"},{"inputs":[{"internalType":"address","name":"user","type":"address"}],"name":"getEligibleBadges","outputs":[{"internalType":"bytes32[]","name":"eligible","type":"bytes32[]"}],"stateMutability":"view","type":"function"},{"inputs":[{"internalType":"address","name":"user","type":"address"}],"name":"getUserStats","outputs":[{"components":[{"internalType":"uint32","name":"commerceTxCount","type":"uint32"},{"internalType":"uint32","name":"consecutiveDays","type":"uint32"},{"internalType":"uint32","name":"governanceVotes","type":"uint32"},{"internalType":"uint32","name":"successfulTrades","type":"uint32"},{"internalType":"uint32","name":"endorsementsReceived","type":"uint32"},{"internalType":"uint32","name":"referralsMade","type":"uint32"},{"internalType":"uint32","name":"referralsQualified","type":"uint32"},{"internalType":"uint32","name":"disputesMediated","type":"uint32"},{"internalType":"uint32","name":"fraudReports","type":"uint32"},{"internalType":"uint32","name":"educationalContent","type":"uint32"},{"internalType":"uint64","name":"lastActivityDay","type":"uint64"},{"internalType":"uint64","name":"firstActivity","type":"uint64"},{"internalType":"uint64","name":"lastScoreDropBelow700","type":"uint64"},{"internalType":"bool","name":"hasPresaleParticipation","type":"bool"},{"internalType":"bool","name":"hasContributed","type":"bool"},{"internalType":"bool","name":"hasTranslated","type":"bool"}],"internalType":"struct BadgeManager.UserStats","name":"","type":"tuple"}],"stateMutability":"view","type":"function"},{"inputs":[{"internalType":"address","name":"","type":"address"},{"internalType":"bytes32","name":"","type":"bytes32"}],"name":"lastBadgeCheck","outputs":[{"internalType":"uint64","name":"","type":"uint64"}],"stateMutability":"view","type":"function"},{"inputs":[{"internalType":"address","name":"","type":"address"}],"name":"operators","outputs":[{"internalType":"bool","name":"","type":"bool"}],"stateMutability":"view","type":"function"},{"inputs":[],"name":"pioneerCount","outputs":[{"internalType":"uint32","name":"","type":"uint32"}],"stateMutability":"view","type":"function"},{"inputs":[{"internalType":"address","name":"user","type":"address"},{"internalType":"bool","name":"successful","type":"bool"}],"name":"recordCommerceTx","outputs":[],"stateMutability":"nonpayable","type":"function"},{"inputs":[{"internalType":"address","name":"contributor","type":"address"}],"name":"recordContribution","outputs":[],"stateMutability":"nonpayable","type":"function"},{"inputs":[{"internalType":"address","name":"creator","type":"address"}],"name":"recordEducationalContent","outputs":[],"stateMutability":"nonpayable","type":"function"},{"inputs":[{"internalType":"address","name":"user","type":"address"}],"name":"recordEndorsement","outputs":[],"stateMutability":"nonpayable","type":"function"},{"inputs":[{"internalType":"address","name":"reporter","type":"address"}],"name":"recordFraudReport","outputs":[],"stateMutability":"nonpayable","type":"function"},{"inputs":[{"internalType":"address","name":"user","type":"address"}],"name":"recordGovernanceVote","outputs":[],"stateMutability":"nonpayable","type":"function"},{"inputs":[{"internalType":"address","name":"user","type":"address"}],"name":"recordPresaleParticipation","outputs":[],"stateMutability":"nonpayable","type":"function"},{"inputs":[{"internalType":"address","name":"referrer","type":"address"},{"internalType":"address","name":"referred","type":"address"},{"internalType":"bool","name":"qualified","type":"bool"}],"name":"recordReferral","outputs":[],"stateMutability":"nonpayable","type":"function"},{"inputs":[{"internalType":"address","name":"translator","type":"address"}],"name":"recordTranslation","outputs":[],"stateMutability":"nonpayable","type":"function"},{"inputs":[{"internalType":"address","name":"user","type":"address"},{"internalType":"bytes32","name":"badge","type":"bytes32"},{"internalType":"string","name":"reason","type":"string"}],"name":"revokeBadge","outputs":[],"stateMutability":"nonpayable","type":"function"},{"inputs":[],"name":"seer","outputs":[{"internalType":"contract Seer","name":"","type":"address"}],"stateMutability":"view","type":"function"},{"inputs":[{"internalType":"address","name":"newDAO","type":"address"}],"name":"setDAO","outputs":[],"stateMutability":"nonpayable","type":"function"},{"inputs":[{"internalType":"address","name":"operator","type":"address"},{"internalType":"bool","name":"authorized","type":"bool"}],"name":"setOperator","outputs":[],"stateMutability":"nonpayable","type":"function"},{"inputs":[{"internalType":"address","name":"newSeer","type":"address"}],"name":"setSeer","outputs":[],"stateMutability":"nonpayable","type":"function"},{"inputs":[{"internalType":"address","name":"","type":"address"}],"name":"userStats","outputs":[{"internalType":"uint32","name":"commerceTxCount","type":"uint32"},{"internalType":"uint32","name":"consecutiveDays","type":"uint32"},{"internalType":"uint32","name":"governanceVotes","type":"uint32"},{"internalType":"uint32","name":"successfulTrades","type":"uint32"},{"internalType":"uint32","name":"endorsementsReceived","type":"uint32"},{"internalType":"uint32","name":"referralsMade","type":"uint32"},{"internalType":"uint32","name":"referralsQualified","type":"uint32"},{"internalType":"uint32","name":"disputesMediated","type":"uint32"},{"internalType":"uint32","name":"fraudReports","type":"uint32"},{"internalType":"uint32","name":"educationalContent","type":"uint32"},{"internalType":"uint64","name":"lastActivityDay","type":"uint64"},{"internalType":"uint64","name":"firstActivity","type":"uint64"},{"internalType":"uint64","name":"lastScoreDropBelow700","type":"uint64"},{"internalType":"bool","name":"hasPresaleParticipation","type":"bool"},{"internalType":"bool","name":"hasContributed","type":"bool"},{"internalType":"bool","name":"hasTranslated","type":"bool"}],"stateMutability":"view","type":"function"}],"evm":{"bytecode":{"linkReferences":{"contracts/BadgeRegistry.sol":{"BadgeRegistry":[{"length":20,"start":8019},{"length":20,"start":9135},{"length":20,"start":10180},{"length":20,"start":11225},{"length":20,"start":12270},{"length":20,"start":13315},{"length":20,"start":14360},{"length":20,"start":15405},{"length":20,"start":16450},{"length":20,"start":17495},{"length":20,"start":18540},{"length":20,"start":19585},{"length":20,"start":20630},{"length":20,"start":21675},{"length":20,"start":22720},{"length":20,"start":23712},{"length":20,"start":24814},{"length":20,"start":26395},{"length":20,"start":31441},{"length":20,"start":31790}]}},"object":"60803460b857601f61800238819003918201601f19168301916001600160401b0383118484101760bd57808492604094855283398101031260b857604b602060458360d3565b920160d3565b906001600160a01b03168015801560a8575b60975760018060a01b0319600054161760005560018060a01b031660018060a01b03196001541617600155604051617f1b90816100e78239f35b63dce3538560e01b60005260046000fd5b506001600160a01b03821615605d565b600080fd5b634e487b7160e01b600052604160045260246000fd5b51906001600160a01b038216820360b85756fe6080604052600436101561001257600080fd5b60003560e01c806305409f33146116d357806313cf93fb1461168c57806313e7c9d81461164d5780631d9209851461157d578063283d6715146114b75780632d55ea391461148e578063387b279c146113915780634162169f1461136857806341752096146112c9578063466d055f146112755780634e43603a14610fb95780635521f9fe14610f65578063558a729714610ed4578063615e5cae14610e7c5780636d134ac214610e0357806377a0555c14610d4957806385e8135c14610c80578063889b468d14610b5b5780638a65d87414610a3957806393a645e4146103da578063aea3b217146103bd578063bdf0332914610397578063c37f34ca14610373578063e071c1c014610323578063e5b3d3ee14610231578063e73a914c146101c2578063e7b2c7b2146101725763f220836f1461015057600080fd5b3461016d57600036600319011261016d5760206040516103e88152f35b600080fd5b3461016d57604036600319011261016d576001600160a01b03610193611770565b1660005260036020526040600020602435600052602052602060018060401b0360406000205416604051908152f35b3461016d57602036600319011261016d576101db611770565b600054906001600160a01b0382163303610220576001600160a01b031690811561020f576001600160a01b03191617600055005b63dce3538560e01b60005260046000fd5b63385b4f9160e21b60005260046000fd5b3461016d57602036600319011261016d5761024a611770565b6000546001600160a01b03163314158061030a575b6102f957600080516020617ce6833981519152608063ffffffff60018060a01b038416938460005260026020526102c560406000209182548460401b6102a9868360401c16611acc565b60401b16908560401b19161783556102c0816164ac565b61617a565b5460401c166040519060408252600f60408301526e676f7665726e616e6365566f74657360881b60608301526020820152a2005b63ed1f1d8d60e01b60005260046000fd5b5033600052600460205260ff604060002054161561025f565b3461016d57602036600319011261016d5761033c611770565b6000546001600160a01b03163303610220576001600160a01b0316801561020f57600180546001600160a01b031916919091179055005b3461016d57600036600319011261016d57602063ffffffff60055416604051908152f35b3461016d57600036600319011261016d57602063ffffffff600554821c16604051908152f35b3461016d57600036600319011261016d5760206040516127108152f35b3461016d57602036600319011261016d576103f3611770565b60405161038061040381836117dd565b601b82526020820190601f1901368237815115610a2357600080516020617ec68339815191529052805160011015610a2357600080516020617d468339815191526040820152805160021015610a2357600080516020617c868339815191526060820152805160031015610a2357600080516020617ca68339815191526080820152805160041015610a2357600080516020617d8683398151915260a0820152805160051015610a2357600080516020617da683398151915260c0820152805160061015610a2357600080516020617e2683398151915260e0820152805160071015610a23577ff4f1880c72d8dbafc9805eb1c4bcefcb30af90b0ae932e0f050c81b491125857610100820152805160081015610a2357600080516020617dc6833981519152610120820152805160091015610a23577facf4336c61c8a8031abec411f918f29aa8a8d0d7d07ae250391d186289fb49996101408201528051600a1015610a2357600080516020617e668339815191526101608201528051600b1015610a2357600080516020617de68339815191526101808201528051600c1015610a23577fde4df86a0cfbc1ca19c1967d53b4f9d906c2f3e5f0b5637ff74d60111ad48d746101a08201528051600d1015610a23577fe2a717c0595726a19d429ba65a7be318c309e2bbfbe0d178266ba0266404b2806101c08201528051600e1015610a23577f8cd7ae4080d5a7057c8858e5c9e0a698fbc88b319a304fbaaae0f5c2be2423496101e08201528051600f1015610a2357600080516020617e06833981519152610200820152805160101015610a2357600080516020617e86833981519152610220820152805160111015610a23577ff55c3c85690d0abf93de8c24ececede3ee62e529020683594957b8e0c109ace1610240820152805160121015610a23577f8b5b16d04624687fcf0d0228f19993c9157c1ed07b41d8d430fd9100eb099fe8610260820152805160131015610a2357600080516020617ea6833981519152610280820152805160141015610a23577f66071085b8de5ddfb56be1bbf93230fbaa1b5a4a7ed21f7ca2ec8b760127b0826102a0820152805160151015610a23577f27b035d29cbd235e68f8e722fb80b6f9a31122fb2c3bce79340725e804fc99926102c0820152805160161015610a23577f7c3d6722688d7e04217fd02beb9ee0abaf5dd8c4c65c6ad4846a80aae94ca27d6102e0820152805160171015610a2357600080516020617d26833981519152610300820152805160181015610a2357600080516020617d06833981519152610320820152805160191015610a23577f5c96081090ee4a64cc21b4a34b2247212174b7b9afec075a3d09fd229b01e5506103408201528051601a1015610a2357600080516020617e468339815191526103608201526001546001600160a01b03169190600090815b81518110156108e957610858602061083c8385616157565b5160405180938192630e05e5d560e21b83528960048401611b1e565b0381895afa9081156108dd576000916108af575b501580610895575b610881575b600101610824565b9161088d60019161616b565b929050610879565b506108aa6108a38284616157565b51856175f5565b610874565b6108d0915060203d81116108d6575b6108c881836117dd565b810190611b06565b8661086c565b503d6108be565b6040513d6000823e3d90fd5b5061090c6108f683616140565b9261090460405194856117dd565b808452616140565b602083019290601f190136843760009160005b81518110156109de5761095360206109378385616157565b5160405180938192630e05e5d560e21b83528b60048401611b1e565b03818b5afa9081156108dd576000916109c0575b5015806109a6575b61097c575b60010161091f565b9261099e60019161098d8685616157565b516109988287616157565b5261616b565b939050610974565b506109bb6109b48284616157565b51876175f5565b61096f565b6109d8915060203d81116108d6576108c881836117dd565b88610967565b84836040519182916020830190602084525180915260408301919060005b818110610a0a575050500390f35b82518452859450602093840193909201916001016109fc565b634e487b7160e01b600052603260045260246000fd5b3461016d57602036600319011261016d576001600160a01b03610a5a611770565b166000526002602052610200604060002060ff81549160026001820154910154906040519363ffffffff8116855263ffffffff8160201c16602086015263ffffffff8160401c16604086015263ffffffff8160601c16606086015263ffffffff8160801c16608086015263ffffffff8160a01c1660a086015263ffffffff8160c01c1660c086015260e01c60e085015263ffffffff811661010085015263ffffffff8160201c1661012085015260018060401b038160401c1661014085015260018060401b038160801c1661016085015260c01c61018084015281811615156101a0840152818160081c1615156101c084015260101c1615156101e0820152f35b3461016d57606036600319011261016d57610b74611770565b610b7c611786565b50604435801515810361016d576000546001600160a01b031633141580610c67575b6102f957608063ffffffff600080516020617ce683398151915292610c0960018060a01b038616958660005260026020526040600020928354908560a01b610bea878460a01c16611acc565b60a01b1690818760a01b1984161790818755610c37575b50505061617a565b5460a01c1660405190604082526009604083015268726566657272616c7360b81b60608301526020820152a2005b610c49878060c01b9260c01c16611acc565b60c01b1691600160a01b600160e01b03191617178355878080610c01565b5033600052600460205260ff6040600020541615610b9e565b3461016d57602036600319011261016d57610c99611770565b6000546001600160a01b031633141580610d30575b6102f957600080516020617ce6833981519152608063ffffffff60018060a01b03841693846000526002602052610d0260016040600020019183610cf481855416611acc565b16841984541617835561617a565b54166040519060408252600c60408301526b66726175645265706f72747360a01b60608301526020820152a2005b5033600052600460205260ff6040600020541615610cae565b3461016d57602036600319011261016d57610d62611770565b6000546001600160a01b031633141580610dea575b6102f95760018060a01b03811660005260026020526002604060002001805460ff811615610da157005b60ff19166001179055600054336001600160a01b0391909116141580610dd1575b6102f957610dcf9061265c565b005b5033600052600460205260ff6040600020541615610dc2565b5033600052600460205260ff6040600020541615610d77565b3461016d57606036600319011261016d57610e1c611770565b604435906001600160401b03821161016d573660238301121561016d576004820135906001600160401b03821161016d57366024838501011161016d576000546001600160a01b03163303610220576024610dcf93019060243590615f5d565b3461016d57604036600319011261016d57610e95611770565b6000546001600160a01b031633141580610ebb575b6102f957610dcf9060243590615b6d565b5033600052600460205260ff6040600020541615610eaa565b3461016d57604036600319011261016d57610eed611770565b610ef561179c565b6000549091906001600160a01b03163303610220576001600160a01b031690811561020f5760207f1a594081ae893ab78e67d9b9e843547318164322d32c65369d78a96172d9dc8f91836000526004825260406000209015159060ff1981541660ff8316179055604051908152a2005b3461016d57602036600319011261016d57610f7e611770565b6000546001600160a01b031633141580610fa0575b6102f957610dcf90611c39565b5033600052600460205260ff6040600020541615610f93565b3461016d57602036600319011261016d57610fd2611770565b604051610fde816117ab565b60008152602081016000905260408101600090526060810160009052608081016000905260a081016000905260c081016000905260e08101600090526101008101600090526101208101600090526101408101600090526101608101600090526101808101600090526101a08101600090526101c08101600090526101e00160009052600160a01b600190031660005260026020526040600020604051611084816117ab565b81549163ffffffff83168252602082018360201c63ffffffff168152604083018460401c63ffffffff168152606084018560601c63ffffffff16815260808501918660801c63ffffffff16835260a08601938760a01c63ffffffff16855260c08701958860c01c63ffffffff1687528860e01c60e0890152600181015463ffffffff81166101008a01528060201c63ffffffff166101208a0152600160401b600190038160401c166101408a0152600160401b600190038160801c166101608a015260c01c6101808901526002015460ff811615156101a08901528060081c60ff1615156101c089015260101c60ff1615156101e08801526040519763ffffffff1688525163ffffffff1660208801525163ffffffff1660408701525163ffffffff1660608601525163ffffffff1660808501525163ffffffff1660a08401525163ffffffff1660c083015260e081015163ffffffff1660e083015261010081015163ffffffff1661010083015261012081015163ffffffff16610120830152600160401b6001900361014082015116610140830152600160401b6001900361016082015116610160830152600160401b60019003610180820151166101808301526101a081015115156101a08301526101c081015115156101c08301526101e0015115156101e082015261020090f35b3461016d57602036600319011261016d5761128e611770565b6000546001600160a01b0316331415806112b0575b6102f957610dcf90611b39565b5033600052600460205260ff60406000205416156112a3565b3461016d57602036600319011261016d576112e2611770565b6000546001600160a01b031633036102205760018060a01b03811660005260026020526002604060002001805460ff8160101c161561131d57005b62ff0000191662010000179055600054336001600160a01b039190911614158061134f575b6102f957610dcf90612247565b5033600052600460205260ff6040600020541615611342565b3461016d57600036600319011261016d576000546040516001600160a01b039091168152602090f35b3461016d57604036600319011261016d576113aa611770565b6113b261179c565b6000546001600160a01b031633141580611475575b6102f957608063ffffffff600080516020617ce68339815191529261142260018060a01b038616958660005260026020526040600020928461140b81865416611acc565b16851985541617845561144e575b6102c0816164ac565b54166040519060408252600a6040830152690c6dedadacae4c6caa8f60b31b60608301526020820152a2005b82548460601b611462868360601c16611acc565b60601b16908560601b1916178355611419565b5033600052600460205260ff60406000205416156113c7565b3461016d57600036600319011261016d576001546040516001600160a01b039091168152602090f35b3461016d57602036600319011261016d576114d0611770565b6000546001600160a01b031633141580611564575b6102f957600080516020617ce6833981519152608063ffffffff60018060a01b038416938460005260026020526115366001604060002001916102c061153085855460201c16611acc565b84611ae3565b5460201c166040519060408252600960408301526832b23ab1b0ba34b7b760b91b60608301526020820152a2005b5033600052600460205260ff60406000205416156114e5565b3461016d57602036600319011261016d57611596611770565b6000546001600160a01b031633141580611634575b6102f957600080516020617ce6833981519152608063ffffffff60018060a01b03841693846000526002602052611604604060002091825484861b6115f38683891c16611acc565b871b169085871b191617835561617a565b54821c166040519060408252600c60408301526b656e646f7273656d656e747360a01b60608301526020820152a2005b5033600052600460205260ff60406000205416156115ab565b3461016d57602036600319011261016d576001600160a01b0361166e611770565b166000526004602052602060ff604060002054166040519015158152f35b3461016d57604036600319011261016d57606063ffffffff60ff6116ba6116b1611770565b60243590611800565b9193908160405195168552166020840152166040820152f35b3461016d57602036600319011261016d576116ec611770565b6000546001600160a01b031633036102205760018060a01b03811660005260026020526002604060002001805460ff8160081c161561172757005b61ff001916610100179055600054336001600160a01b0391909116141580611757575b6102f957610dcf90611deb565b5033600052600460205260ff604060002054161561174a565b600435906001600160a01b038216820361016d57565b602435906001600160a01b038216820361016d57565b60243590811515820361016d57565b61020081019081106001600160401b038211176117c757604052565b634e487b7160e01b600052604160045260246000fd5b601f909101601f19168101906001600160401b038211908210176117c757604052565b91909160018060a01b03166000526002602052604060002060405190611825826117ab565b80549363ffffffff85169485845263ffffffff8160201c169283602086015263ffffffff8260401c169485604082015263ffffffff8360601c169384606083015263ffffffff8460801c16608083015263ffffffff8460a01c1660a083015263ffffffff8460c01c16938460c084015260e01c60e08301526001830154916101e060ff600263ffffffff8616968761010086015263ffffffff8760201c16968761012087015260018060401b038160401c1661014087015260018060401b038160801c1661016087015260c01c610180860152015481811615156101a0850152818160081c1615156101c085015260101c161515910152600080516020617ca683398151915281146000146119ac5750505050505050603291905b63ffffffff82811690841680821061195c575050606491929190565b6064820291808304606414901517156119965780156119805760ff91041691929190565b634e487b7160e01b600052601260045260246000fd5b634e487b7160e01b600052601160045260246000fd5b9091929394959750600080516020617d8683398151915281146000146119db57505050505050600a9190611940565b90919293949650600080516020617e268339815191528114600014611a08575050505050601e9190611940565b909192939550600080516020617de68339815191528114600014611a33575050505060649190611940565b9294509091600080516020617dc68339815191528103611a5957505050600a9190611940565b91939091600080516020617e068339815191528103611a7e5750505060039190611940565b91935090600080516020617d268339815191528103611aa257505060059190611940565b909250600080516020617e6683398151915203611ac25760059190611940565b6000915081908190565b63ffffffff1663ffffffff81146119965760010190565b805463ffffffff60201b191660209290921b63ffffffff60201b16919091179055565b9081602091031261016d5751801515810361016d5790565b6001600160a01b039091168152602081019190915260400190565b60055463ffffffff8116612710811015611bfb57600154604051630e05e5d560e21b81526001600160a01b038581166004830152600080516020617ec68339815191526024830152909160209183916044918391165afa9081156108dd57600091611c00575b50611bfb57611bb263ffffffff91611acc565b169063ffffffff19161760055560018060a01b036000541633141580611be2575b6102f957611be090612a71565b565b5033600052600460205260ff6040600020541615611bd3565b505050565b611c19915060203d6020116108d6576108c881836117dd565b38611b9f565b9081602091031261016d575161ffff8116810361016d5790565b60055463ffffffff8160201c166103e8811015611bfb57600154604051630e05e5d560e21b81526001600160a01b0385811660048301819052600080516020617c86833981519152602484015292169190602081604481865afa9081156108dd57600091611d77575b50611d7057602090602460405180948193630d47875d60e41b835260048301525afa9081156108dd57611f409161ffff91600091611d41575b501610611bfb5763ffffffff60201b90611cf490611acc565b60201b169063ffffffff60201b19161760055560018060a01b036000541633141580611d28575b6102f957611be090612e86565b5033600052600460205260ff6040600020541615611d1b565b611d63915060203d602011611d69575b611d5b81836117dd565b810190611c1f565b38611cdb565b503d611d51565b5050505050565b611d90915060203d6020116108d6576108c881836117dd565b38611ca2565b9190820180921161199657565b606091949392608082019560018060a01b031682526020820152600160408201520152565b60005b838110611ddb5750506000910152565b8181015183820152602001611dcb565b600154604051630e05e5d560e21b81526001600160a01b0380841660048301819052600080516020617d0683398151915260248401529360009390929160209183916044918391165afa9081156121e3578391612228575b5061220d575060405163157e6ad160e21b8152600080516020617d06833981519152600482015273__$e3a882f22bd04f7a2b17b0bf615ac922fd$__908290602081602481865af490811561212a5782916121ee575b5015612164575b6001546001600160a01b031690813b156120825760405163024a6d6d60e11b815260048101869052600080516020617d06833981519152602482015260016044820152606481018590529181908390608490829084905af19182612154575b5090611f0c575b50505050565b604051630737fee160e41b8152600080516020617d068339815191526004820152602081602481865af490811561212a579061ffff918391612135575b50169182611f8b575b50506040600080516020617d068339815191529392600080516020617d668339815191529282519182526020820152a338808080611f06565b81602491604051928380926354b8d5e360e01b8252600080516020617d0683398151915260048301525af490811561212a578291612089575b5060405161200460278260208101946602130b233b29d160cd1b8652611ff38151809260208686019101611dc8565b81010301601f1981018352826117dd565b6001546001600160a01b031690813b1561208557839161205a918360848a60405197889687958693630eccbd3560e11b855260048501528c60248501526060604485015251809281606486015285850190611dc8565b601f01601f191681010301925af115611f52576120788280926117dd565b6120825780611f52565b80fd5b8380fd5b90503d8083833e61209a81836117dd565b810190602081830312612126578051906001600160401b038211612085570181601f82011215612126578051906001600160401b03821161211257604051926120ed601f8401601f1916602001856117dd565b82845260208383010111612085579061210c9160208085019101611dc8565b38611fc4565b634e487b7160e01b84526041600452602484fd5b8280fd5b6040513d84823e3d90fd5b61214e915060203d602011611d6957611d5b81836117dd565b38611f49565b8161215e916117dd565b38611eff565b604051636f143be160e01b8152600080516020617d068339815191526004820152909250602081602481855af480156121e35783906121af575b6121a9915042611d96565b91611ea0565b506020813d6020116121db575b816121c9602093836117dd565b81010312612126576121a9905161219e565b3d91506121bc565b6040513d85823e3d90fd5b612207915060203d6020116108d6576108c881836117dd565b38611e99565b611be09250600080516020617d068339815191529150616618565b612241915060203d6020116108d6576108c881836117dd565b38611e43565b600154604051630e05e5d560e21b81526001600160a01b0380841660048301819052600080516020617e4683398151915260248401529360009390929160209183916044918391165afa9081156121e357839161263d575b50612622575060405163157e6ad160e21b8152600080516020617e46833981519152600482015273__$e3a882f22bd04f7a2b17b0bf615ac922fd$__908290602081602481865af490811561212a578291612603575b5015612584575b6001546001600160a01b031690813b156120825760405163024a6d6d60e11b815260048101869052600080516020617e46833981519152602482015260016044820152606481018590529181908390608490829084905af19182612574575b50906123675750505050565b604051630737fee160e41b8152600080516020617e468339815191526004820152602081602481865af490811561212a579061ffff918391612555575b501691826123e6575b50506040600080516020617e468339815191529392600080516020617d668339815191529282519182526020820152a338808080611f06565b81602491604051928380926354b8d5e360e01b8252600080516020617e4683398151915260048301525af490811561212a5782916124cc575b5060405161244e60278260208101946602130b233b29d160cd1b8652611ff38151809260208686019101611dc8565b6001546001600160a01b031690813b156120855783916124a4918360848a60405197889687958693630eccbd3560e11b855260048501528c60248501526060604485015251809281606486015285850190611dc8565b601f01601f191681010301925af1156123ad576124c28280926117dd565b61208257806123ad565b90503d8083833e6124dd81836117dd565b810190602081830312612126578051906001600160401b038211612085570181601f82011215612126578051906001600160401b0382116121125760405192612530601f8401601f1916602001856117dd565b82845260208383010111612085579061254f9160208085019101611dc8565b3861241f565b61256e915060203d602011611d6957611d5b81836117dd565b386123a4565b8161257e916117dd565b3861235b565b604051636f143be160e01b8152600080516020617e468339815191526004820152909250602081602481855af480156121e35783906125cf575b6125c9915042611d96565b916122fc565b506020813d6020116125fb575b816125e9602093836117dd565b81010312612126576125c990516125be565b3d91506125dc565b61261c915060203d6020116108d6576108c881836117dd565b386122f5565b611be09250600080516020617e468339815191529150616618565b612656915060203d6020116108d6576108c881836117dd565b3861229f565b600154604051630e05e5d560e21b81526001600160a01b0380841660048301819052600080516020617d4683398151915260248401529360009390929160209183916044918391165afa9081156121e3578391612a52575b50612a37575060405163157e6ad160e21b8152600080516020617d46833981519152600482015273__$e3a882f22bd04f7a2b17b0bf615ac922fd$__908290602081602481865af490811561212a578291612a18575b5015612999575b6001546001600160a01b031690813b156120825760405163024a6d6d60e11b815260048101869052600080516020617d46833981519152602482015260016044820152606481018590529181908390608490829084905af19182612989575b509061277c5750505050565b604051630737fee160e41b8152600080516020617d468339815191526004820152602081602481865af490811561212a579061ffff91839161296a575b501691826127fb575b50506040600080516020617d468339815191529392600080516020617d668339815191529282519182526020820152a338808080611f06565b81602491604051928380926354b8d5e360e01b8252600080516020617d4683398151915260048301525af490811561212a5782916128e1575b5060405161286360278260208101946602130b233b29d160cd1b8652611ff38151809260208686019101611dc8565b6001546001600160a01b031690813b156120855783916128b9918360848a60405197889687958693630eccbd3560e11b855260048501528c60248501526060604485015251809281606486015285850190611dc8565b601f01601f191681010301925af1156127c2576128d78280926117dd565b61208257806127c2565b90503d8083833e6128f281836117dd565b810190602081830312612126578051906001600160401b038211612085570181601f82011215612126578051906001600160401b0382116121125760405192612945601f8401601f1916602001856117dd565b8284526020838301011161208557906129649160208085019101611dc8565b38612834565b612983915060203d602011611d6957611d5b81836117dd565b386127b9565b81612993916117dd565b38612770565b604051636f143be160e01b8152600080516020617d468339815191526004820152909250602081602481855af480156121e35783906129e4575b6129de915042611d96565b91612711565b506020813d602011612a10575b816129fe602093836117dd565b81010312612126576129de90516129d3565b3d91506129f1565b612a31915060203d6020116108d6576108c881836117dd565b3861270a565b611be09250600080516020617d468339815191529150616618565b612a6b915060203d6020116108d6576108c881836117dd565b386126b4565b600154604051630e05e5d560e21b81526001600160a01b0380841660048301819052600080516020617ec683398151915260248401529360009390929160209183916044918391165afa9081156121e3578391612e67575b50612e4c575060405163157e6ad160e21b8152600080516020617ec6833981519152600482015273__$e3a882f22bd04f7a2b17b0bf615ac922fd$__908290602081602481865af490811561212a578291612e2d575b5015612dae575b6001546001600160a01b031690813b156120825760405163024a6d6d60e11b815260048101869052600080516020617ec6833981519152602482015260016044820152606481018590529181908390608490829084905af19182612d9e575b5090612b915750505050565b604051630737fee160e41b8152600080516020617ec68339815191526004820152602081602481865af490811561212a579061ffff918391612d7f575b50169182612c10575b50506040600080516020617ec68339815191529392600080516020617d668339815191529282519182526020820152a338808080611f06565b81602491604051928380926354b8d5e360e01b8252600080516020617ec683398151915260048301525af490811561212a578291612cf6575b50604051612c7860278260208101946602130b233b29d160cd1b8652611ff38151809260208686019101611dc8565b6001546001600160a01b031690813b15612085578391612cce918360848a60405197889687958693630eccbd3560e11b855260048501528c60248501526060604485015251809281606486015285850190611dc8565b601f01601f191681010301925af115612bd757612cec8280926117dd565b6120825780612bd7565b90503d8083833e612d0781836117dd565b810190602081830312612126578051906001600160401b038211612085570181601f82011215612126578051906001600160401b0382116121125760405192612d5a601f8401601f1916602001856117dd565b828452602083830101116120855790612d799160208085019101611dc8565b38612c49565b612d98915060203d602011611d6957611d5b81836117dd565b38612bce565b81612da8916117dd565b38612b85565b604051636f143be160e01b8152600080516020617ec68339815191526004820152909250602081602481855af480156121e3578390612df9575b612df3915042611d96565b91612b26565b506020813d602011612e25575b81612e13602093836117dd565b8101031261212657612df39051612de8565b3d9150612e06565b612e46915060203d6020116108d6576108c881836117dd565b38612b1f565b611be09250600080516020617ec68339815191529150616618565b612e80915060203d6020116108d6576108c881836117dd565b38612ac9565b600154604051630e05e5d560e21b81526001600160a01b0380841660048301819052600080516020617c8683398151915260248401529360009390929160209183916044918391165afa9081156121e357839161327c575b50613261575060405163157e6ad160e21b8152600080516020617c86833981519152600482015273__$e3a882f22bd04f7a2b17b0bf615ac922fd$__908290602081602481865af490811561212a578291613242575b50156131c3575b6001546001600160a01b031690813b156120825760405163024a6d6d60e11b815260048101869052600080516020617c86833981519152602482015260016044820152606481018590529181908390608490829084905af191826131b3575b5090612fa65750505050565b604051630737fee160e41b8152600080516020617c868339815191526004820152602081602481865af490811561212a579061ffff918391613194575b50169182613025575b50506040600080516020617c868339815191529392600080516020617d668339815191529282519182526020820152a338808080611f06565b81602491604051928380926354b8d5e360e01b8252600080516020617c8683398151915260048301525af490811561212a57829161310b575b5060405161308d60278260208101946602130b233b29d160cd1b8652611ff38151809260208686019101611dc8565b6001546001600160a01b031690813b156120855783916130e3918360848a60405197889687958693630eccbd3560e11b855260048501528c60248501526060604485015251809281606486015285850190611dc8565b601f01601f191681010301925af115612fec576131018280926117dd565b6120825780612fec565b90503d8083833e61311c81836117dd565b810190602081830312612126578051906001600160401b038211612085570181601f82011215612126578051906001600160401b038211612112576040519261316f601f8401601f1916602001856117dd565b82845260208383010111612085579061318e9160208085019101611dc8565b3861305e565b6131ad915060203d602011611d6957611d5b81836117dd565b38612fe3565b816131bd916117dd565b38612f9a565b604051636f143be160e01b8152600080516020617c868339815191526004820152909250602081602481855af480156121e357839061320e575b613208915042611d96565b91612f3b565b506020813d60201161323a575b81613228602093836117dd565b810103126121265761320890516131fd565b3d915061321b565b61325b915060203d6020116108d6576108c881836117dd565b38612f34565b611be09250600080516020617c868339815191529150616618565b613295915060203d6020116108d6576108c881836117dd565b38612ede565b600154604051630e05e5d560e21b81526001600160a01b0380841660048301819052600080516020617ca683398151915260248401529360009390929160209183916044918391165afa9081156121e3578391613691575b50613676575060405163157e6ad160e21b8152600080516020617ca6833981519152600482015273__$e3a882f22bd04f7a2b17b0bf615ac922fd$__908290602081602481865af490811561212a578291613657575b50156135d8575b6001546001600160a01b031690813b156120825760405163024a6d6d60e11b815260048101869052600080516020617ca6833981519152602482015260016044820152606481018590529181908390608490829084905af191826135c8575b50906133bb5750505050565b604051630737fee160e41b8152600080516020617ca68339815191526004820152602081602481865af490811561212a579061ffff9183916135a9575b5016918261343a575b50506040600080516020617ca68339815191529392600080516020617d668339815191529282519182526020820152a338808080611f06565b81602491604051928380926354b8d5e360e01b8252600080516020617ca683398151915260048301525af490811561212a578291613520575b506040516134a260278260208101946602130b233b29d160cd1b8652611ff38151809260208686019101611dc8565b6001546001600160a01b031690813b156120855783916134f8918360848a60405197889687958693630eccbd3560e11b855260048501528c60248501526060604485015251809281606486015285850190611dc8565b601f01601f191681010301925af115613401576135168280926117dd565b6120825780613401565b90503d8083833e61353181836117dd565b810190602081830312612126578051906001600160401b038211612085570181601f82011215612126578051906001600160401b0382116121125760405192613584601f8401601f1916602001856117dd565b8284526020838301011161208557906135a39160208085019101611dc8565b38613473565b6135c2915060203d602011611d6957611d5b81836117dd565b386133f8565b816135d2916117dd565b386133af565b604051636f143be160e01b8152600080516020617ca68339815191526004820152909250602081602481855af480156121e3578390613623575b61361d915042611d96565b91613350565b506020813d60201161364f575b8161363d602093836117dd565b810103126121265761361d9051613612565b3d9150613630565b613670915060203d6020116108d6576108c881836117dd565b38613349565b611be09250600080516020617ca68339815191529150616618565b6136aa915060203d6020116108d6576108c881836117dd565b386132f3565b600154604051630e05e5d560e21b81526001600160a01b0380841660048301819052600080516020617d8683398151915260248401529360009390929160209183916044918391165afa9081156121e3578391613aa6575b50613a8b575060405163157e6ad160e21b8152600080516020617d86833981519152600482015273__$e3a882f22bd04f7a2b17b0bf615ac922fd$__908290602081602481865af490811561212a578291613a6c575b50156139ed575b6001546001600160a01b031690813b156120825760405163024a6d6d60e11b815260048101869052600080516020617d86833981519152602482015260016044820152606481018590529181908390608490829084905af191826139dd575b50906137d05750505050565b604051630737fee160e41b8152600080516020617d868339815191526004820152602081602481865af490811561212a579061ffff9183916139be575b5016918261384f575b50506040600080516020617d868339815191529392600080516020617d668339815191529282519182526020820152a338808080611f06565b81602491604051928380926354b8d5e360e01b8252600080516020617d8683398151915260048301525af490811561212a578291613935575b506040516138b760278260208101946602130b233b29d160cd1b8652611ff38151809260208686019101611dc8565b6001546001600160a01b031690813b1561208557839161390d918360848a60405197889687958693630eccbd3560e11b855260048501528c60248501526060604485015251809281606486015285850190611dc8565b601f01601f191681010301925af1156138165761392b8280926117dd565b6120825780613816565b90503d8083833e61394681836117dd565b810190602081830312612126578051906001600160401b038211612085570181601f82011215612126578051906001600160401b0382116121125760405192613999601f8401601f1916602001856117dd565b8284526020838301011161208557906139b89160208085019101611dc8565b38613888565b6139d7915060203d602011611d6957611d5b81836117dd565b3861380d565b816139e7916117dd565b386137c4565b604051636f143be160e01b8152600080516020617d868339815191526004820152909250602081602481855af480156121e3578390613a38575b613a32915042611d96565b91613765565b506020813d602011613a64575b81613a52602093836117dd565b8101031261212657613a329051613a27565b3d9150613a45565b613a85915060203d6020116108d6576108c881836117dd565b3861375e565b611be09250600080516020617d868339815191529150616618565b613abf915060203d6020116108d6576108c881836117dd565b38613708565b600154604051630e05e5d560e21b81526001600160a01b0380841660048301819052600080516020617da683398151915260248401529360009390929160209183916044918391165afa9081156121e3578391613ebb575b50613ea0575060405163157e6ad160e21b8152600080516020617da6833981519152600482015273__$e3a882f22bd04f7a2b17b0bf615ac922fd$__908290602081602481865af490811561212a578291613e81575b5015613e02575b6001546001600160a01b031690813b156120825760405163024a6d6d60e11b815260048101869052600080516020617da6833981519152602482015260016044820152606481018590529181908390608490829084905af19182613df2575b5090613be55750505050565b604051630737fee160e41b8152600080516020617da68339815191526004820152602081602481865af490811561212a579061ffff918391613dd3575b50169182613c64575b50506040600080516020617da68339815191529392600080516020617d668339815191529282519182526020820152a338808080611f06565b81602491604051928380926354b8d5e360e01b8252600080516020617da683398151915260048301525af490811561212a578291613d4a575b50604051613ccc60278260208101946602130b233b29d160cd1b8652611ff38151809260208686019101611dc8565b6001546001600160a01b031690813b15612085578391613d22918360848a60405197889687958693630eccbd3560e11b855260048501528c60248501526060604485015251809281606486015285850190611dc8565b601f01601f191681010301925af115613c2b57613d408280926117dd565b6120825780613c2b565b90503d8083833e613d5b81836117dd565b810190602081830312612126578051906001600160401b038211612085570181601f82011215612126578051906001600160401b0382116121125760405192613dae601f8401601f1916602001856117dd565b828452602083830101116120855790613dcd9160208085019101611dc8565b38613c9d565b613dec915060203d602011611d6957611d5b81836117dd565b38613c22565b81613dfc916117dd565b38613bd9565b604051636f143be160e01b8152600080516020617da68339815191526004820152909250602081602481855af480156121e3578390613e4d575b613e47915042611d96565b91613b7a565b506020813d602011613e79575b81613e67602093836117dd565b8101031261212657613e479051613e3c565b3d9150613e5a565b613e9a915060203d6020116108d6576108c881836117dd565b38613b73565b611be09250600080516020617da68339815191529150616618565b613ed4915060203d6020116108d6576108c881836117dd565b38613b1d565b600154604051630e05e5d560e21b81526001600160a01b0380841660048301819052600080516020617e2683398151915260248401529360009390929160209183916044918391165afa9081156121e35783916142d0575b506142b5575060405163157e6ad160e21b8152600080516020617e26833981519152600482015273__$e3a882f22bd04f7a2b17b0bf615ac922fd$__908290602081602481865af490811561212a578291614296575b5015614217575b6001546001600160a01b031690813b156120825760405163024a6d6d60e11b815260048101869052600080516020617e26833981519152602482015260016044820152606481018590529181908390608490829084905af19182614207575b5090613ffa5750505050565b604051630737fee160e41b8152600080516020617e268339815191526004820152602081602481865af490811561212a579061ffff9183916141e8575b50169182614079575b50506040600080516020617e268339815191529392600080516020617d668339815191529282519182526020820152a338808080611f06565b81602491604051928380926354b8d5e360e01b8252600080516020617e2683398151915260048301525af490811561212a57829161415f575b506040516140e160278260208101946602130b233b29d160cd1b8652611ff38151809260208686019101611dc8565b6001546001600160a01b031690813b15612085578391614137918360848a60405197889687958693630eccbd3560e11b855260048501528c60248501526060604485015251809281606486015285850190611dc8565b601f01601f191681010301925af115614040576141558280926117dd565b6120825780614040565b90503d8083833e61417081836117dd565b810190602081830312612126578051906001600160401b038211612085570181601f82011215612126578051906001600160401b03821161211257604051926141c3601f8401601f1916602001856117dd565b8284526020838301011161208557906141e29160208085019101611dc8565b386140b2565b614201915060203d602011611d6957611d5b81836117dd565b38614037565b81614211916117dd565b38613fee565b604051636f143be160e01b8152600080516020617e268339815191526004820152909250602081602481855af480156121e3578390614262575b61425c915042611d96565b91613f8f565b506020813d60201161428e575b8161427c602093836117dd565b810103126121265761425c9051614251565b3d915061426f565b6142af915060203d6020116108d6576108c881836117dd565b38613f88565b611be09250600080516020617e268339815191529150616618565b6142e9915060203d6020116108d6576108c881836117dd565b38613f32565b600154604051630e05e5d560e21b81526001600160a01b0380841660048301819052600080516020617de683398151915260248401529360009390929160209183916044918391165afa9081156121e35783916146e5575b506146ca575060405163157e6ad160e21b8152600080516020617de6833981519152600482015273__$e3a882f22bd04f7a2b17b0bf615ac922fd$__908290602081602481865af490811561212a5782916146ab575b501561462c575b6001546001600160a01b031690813b156120825760405163024a6d6d60e11b815260048101869052600080516020617de6833981519152602482015260016044820152606481018590529181908390608490829084905af1918261461c575b509061440f5750505050565b604051630737fee160e41b8152600080516020617de68339815191526004820152602081602481865af490811561212a579061ffff9183916145fd575b5016918261448e575b50506040600080516020617de68339815191529392600080516020617d668339815191529282519182526020820152a338808080611f06565b81602491604051928380926354b8d5e360e01b8252600080516020617de683398151915260048301525af490811561212a578291614574575b506040516144f660278260208101946602130b233b29d160cd1b8652611ff38151809260208686019101611dc8565b6001546001600160a01b031690813b1561208557839161454c918360848a60405197889687958693630eccbd3560e11b855260048501528c60248501526060604485015251809281606486015285850190611dc8565b601f01601f191681010301925af1156144555761456a8280926117dd565b6120825780614455565b90503d8083833e61458581836117dd565b810190602081830312612126578051906001600160401b038211612085570181601f82011215612126578051906001600160401b03821161211257604051926145d8601f8401601f1916602001856117dd565b8284526020838301011161208557906145f79160208085019101611dc8565b386144c7565b614616915060203d602011611d6957611d5b81836117dd565b3861444c565b81614626916117dd565b38614403565b604051636f143be160e01b8152600080516020617de68339815191526004820152909250602081602481855af480156121e3578390614677575b614671915042611d96565b916143a4565b506020813d6020116146a3575b81614691602093836117dd565b81010312612126576146719051614666565b3d9150614684565b6146c4915060203d6020116108d6576108c881836117dd565b3861439d565b611be09250600080516020617de68339815191529150616618565b6146fe915060203d6020116108d6576108c881836117dd565b38614347565b600154604051630e05e5d560e21b81526001600160a01b0380841660048301819052600080516020617ea683398151915260248401529360009390929160209183916044918391165afa9081156121e3578391614afa575b50614adf575060405163157e6ad160e21b8152600080516020617ea6833981519152600482015273__$e3a882f22bd04f7a2b17b0bf615ac922fd$__908290602081602481865af490811561212a578291614ac0575b5015614a41575b6001546001600160a01b031690813b156120825760405163024a6d6d60e11b815260048101869052600080516020617ea6833981519152602482015260016044820152606481018590529181908390608490829084905af19182614a31575b50906148245750505050565b604051630737fee160e41b8152600080516020617ea68339815191526004820152602081602481865af490811561212a579061ffff918391614a12575b501691826148a3575b50506040600080516020617ea68339815191529392600080516020617d668339815191529282519182526020820152a338808080611f06565b81602491604051928380926354b8d5e360e01b8252600080516020617ea683398151915260048301525af490811561212a578291614989575b5060405161490b60278260208101946602130b233b29d160cd1b8652611ff38151809260208686019101611dc8565b6001546001600160a01b031690813b15612085578391614961918360848a60405197889687958693630eccbd3560e11b855260048501528c60248501526060604485015251809281606486015285850190611dc8565b601f01601f191681010301925af11561486a5761497f8280926117dd565b612082578061486a565b90503d8083833e61499a81836117dd565b810190602081830312612126578051906001600160401b038211612085570181601f82011215612126578051906001600160401b03821161211257604051926149ed601f8401601f1916602001856117dd565b828452602083830101116120855790614a0c9160208085019101611dc8565b386148dc565b614a2b915060203d602011611d6957611d5b81836117dd565b38614861565b81614a3b916117dd565b38614818565b604051636f143be160e01b8152600080516020617ea68339815191526004820152909250602081602481855af480156121e3578390614a8c575b614a86915042611d96565b916147b9565b506020813d602011614ab8575b81614aa6602093836117dd565b8101031261212657614a869051614a7b565b3d9150614a99565b614ad9915060203d6020116108d6576108c881836117dd565b386147b2565b611be09250600080516020617ea68339815191529150616618565b614b13915060203d6020116108d6576108c881836117dd565b3861475c565b600154604051630e05e5d560e21b81526001600160a01b0380841660048301819052600080516020617dc683398151915260248401529360009390929160209183916044918391165afa9081156121e3578391614f0f575b50614ef4575060405163157e6ad160e21b8152600080516020617dc6833981519152600482015273__$e3a882f22bd04f7a2b17b0bf615ac922fd$__908290602081602481865af490811561212a578291614ed5575b5015614e56575b6001546001600160a01b031690813b156120825760405163024a6d6d60e11b815260048101869052600080516020617dc6833981519152602482015260016044820152606481018590529181908390608490829084905af19182614e46575b5090614c395750505050565b604051630737fee160e41b8152600080516020617dc68339815191526004820152602081602481865af490811561212a579061ffff918391614e27575b50169182614cb8575b50506040600080516020617dc68339815191529392600080516020617d668339815191529282519182526020820152a338808080611f06565b81602491604051928380926354b8d5e360e01b8252600080516020617dc683398151915260048301525af490811561212a578291614d9e575b50604051614d2060278260208101946602130b233b29d160cd1b8652611ff38151809260208686019101611dc8565b6001546001600160a01b031690813b15612085578391614d76918360848a60405197889687958693630eccbd3560e11b855260048501528c60248501526060604485015251809281606486015285850190611dc8565b601f01601f191681010301925af115614c7f57614d948280926117dd565b6120825780614c7f565b90503d8083833e614daf81836117dd565b810190602081830312612126578051906001600160401b038211612085570181601f82011215612126578051906001600160401b0382116121125760405192614e02601f8401601f1916602001856117dd565b828452602083830101116120855790614e219160208085019101611dc8565b38614cf1565b614e40915060203d602011611d6957611d5b81836117dd565b38614c76565b81614e50916117dd565b38614c2d565b604051636f143be160e01b8152600080516020617dc68339815191526004820152909250602081602481855af480156121e3578390614ea1575b614e9b915042611d96565b91614bce565b506020813d602011614ecd575b81614ebb602093836117dd565b8101031261212657614e9b9051614e90565b3d9150614eae565b614eee915060203d6020116108d6576108c881836117dd565b38614bc7565b611be09250600080516020617dc68339815191529150616618565b614f28915060203d6020116108d6576108c881836117dd565b38614b71565b600154604051630e05e5d560e21b81526001600160a01b0380841660048301819052600080516020617e0683398151915260248401529360009390929160209183916044918391165afa9081156121e3578391615324575b50615309575060405163157e6ad160e21b8152600080516020617e06833981519152600482015273__$e3a882f22bd04f7a2b17b0bf615ac922fd$__908290602081602481865af490811561212a5782916152ea575b501561526b575b6001546001600160a01b031690813b156120825760405163024a6d6d60e11b815260048101869052600080516020617e06833981519152602482015260016044820152606481018590529181908390608490829084905af1918261525b575b509061504e5750505050565b604051630737fee160e41b8152600080516020617e068339815191526004820152602081602481865af490811561212a579061ffff91839161523c575b501691826150cd575b50506040600080516020617e068339815191529392600080516020617d668339815191529282519182526020820152a338808080611f06565b81602491604051928380926354b8d5e360e01b8252600080516020617e0683398151915260048301525af490811561212a5782916151b3575b5060405161513560278260208101946602130b233b29d160cd1b8652611ff38151809260208686019101611dc8565b6001546001600160a01b031690813b1561208557839161518b918360848a60405197889687958693630eccbd3560e11b855260048501528c60248501526060604485015251809281606486015285850190611dc8565b601f01601f191681010301925af115615094576151a98280926117dd565b6120825780615094565b90503d8083833e6151c481836117dd565b810190602081830312612126578051906001600160401b038211612085570181601f82011215612126578051906001600160401b0382116121125760405192615217601f8401601f1916602001856117dd565b8284526020838301011161208557906152369160208085019101611dc8565b38615106565b615255915060203d602011611d6957611d5b81836117dd565b3861508b565b81615265916117dd565b38615042565b604051636f143be160e01b8152600080516020617e068339815191526004820152909250602081602481855af480156121e35783906152b6575b6152b0915042611d96565b91614fe3565b506020813d6020116152e2575b816152d0602093836117dd565b81010312612126576152b090516152a5565b3d91506152c3565b615303915060203d6020116108d6576108c881836117dd565b38614fdc565b611be09250600080516020617e068339815191529150616618565b61533d915060203d6020116108d6576108c881836117dd565b38614f86565b600154604051630e05e5d560e21b81526001600160a01b0380841660048301819052600080516020617d2683398151915260248401529360009390929160209183916044918391165afa9081156121e3578391615739575b5061571e575060405163157e6ad160e21b8152600080516020617d26833981519152600482015273__$e3a882f22bd04f7a2b17b0bf615ac922fd$__908290602081602481865af490811561212a5782916156ff575b5015615680575b6001546001600160a01b031690813b156120825760405163024a6d6d60e11b815260048101869052600080516020617d26833981519152602482015260016044820152606481018590529181908390608490829084905af19182615670575b50906154635750505050565b604051630737fee160e41b8152600080516020617d268339815191526004820152602081602481865af490811561212a579061ffff918391615651575b501691826154e2575b50506040600080516020617d268339815191529392600080516020617d668339815191529282519182526020820152a338808080611f06565b81602491604051928380926354b8d5e360e01b8252600080516020617d2683398151915260048301525af490811561212a5782916155c8575b5060405161554a60278260208101946602130b233b29d160cd1b8652611ff38151809260208686019101611dc8565b6001546001600160a01b031690813b156120855783916155a0918360848a60405197889687958693630eccbd3560e11b855260048501528c60248501526060604485015251809281606486015285850190611dc8565b601f01601f191681010301925af1156154a9576155be8280926117dd565b61208257806154a9565b90503d8083833e6155d981836117dd565b810190602081830312612126578051906001600160401b038211612085570181601f82011215612126578051906001600160401b038211612112576040519261562c601f8401601f1916602001856117dd565b82845260208383010111612085579061564b9160208085019101611dc8565b3861551b565b61566a915060203d602011611d6957611d5b81836117dd565b386154a0565b8161567a916117dd565b38615457565b604051636f143be160e01b8152600080516020617d268339815191526004820152909250602081602481855af480156121e35783906156cb575b6156c5915042611d96565b916153f8565b506020813d6020116156f7575b816156e5602093836117dd565b81010312612126576156c590516156ba565b3d91506156d8565b615718915060203d6020116108d6576108c881836117dd565b386153f1565b611be09250600080516020617d268339815191529150616618565b615752915060203d6020116108d6576108c881836117dd565b3861539b565b600154604051630e05e5d560e21b81526001600160a01b0380841660048301819052600080516020617e6683398151915260248401529360009390929160209183916044918391165afa9081156121e3578391615b4e575b50615b33575060405163157e6ad160e21b8152600080516020617e66833981519152600482015273__$e3a882f22bd04f7a2b17b0bf615ac922fd$__908290602081602481865af490811561212a578291615b14575b5015615a95575b6001546001600160a01b031690813b156120825760405163024a6d6d60e11b815260048101869052600080516020617e66833981519152602482015260016044820152606481018590529181908390608490829084905af19182615a85575b50906158785750505050565b604051630737fee160e41b8152600080516020617e668339815191526004820152602081602481865af490811561212a579061ffff918391615a66575b501691826158f7575b50506040600080516020617e668339815191529392600080516020617d668339815191529282519182526020820152a338808080611f06565b81602491604051928380926354b8d5e360e01b8252600080516020617e6683398151915260048301525af490811561212a5782916159dd575b5060405161595f60278260208101946602130b233b29d160cd1b8652611ff38151809260208686019101611dc8565b6001546001600160a01b031690813b156120855783916159b5918360848a60405197889687958693630eccbd3560e11b855260048501528c60248501526060604485015251809281606486015285850190611dc8565b601f01601f191681010301925af1156158be576159d38280926117dd565b61208257806158be565b90503d8083833e6159ee81836117dd565b810190602081830312612126578051906001600160401b038211612085570181601f82011215612126578051906001600160401b0382116121125760405192615a41601f8401601f1916602001856117dd565b828452602083830101116120855790615a609160208085019101611dc8565b38615930565b615a7f915060203d602011611d6957611d5b81836117dd565b386158b5565b81615a8f916117dd565b3861586c565b604051636f143be160e01b8152600080516020617e668339815191526004820152909250602081602481855af480156121e3578390615ae0575b615ada915042611d96565b9161580d565b506020813d602011615b0c575b81615afa602093836117dd565b8101031261212657615ada9051615acf565b3d9150615aed565b615b2d915060203d6020116108d6576108c881836117dd565b38615806565b611be09250600080516020617e668339815191529150616618565b615b67915060203d6020116108d6576108c881836117dd565b386157b0565b600154604051630e05e5d560e21b81526000929160209082908180615b96898860048401611b1e565b03916001600160a01b03165afa9081156121e3578391615ef4575b50615ee9578173__$e3a882f22bd04f7a2b17b0bf615ac922fd$__9060405163157e6ad160e21b8152856004820152602081602481865af490811561212a578291615eca575b5015615e4f575b6001546001600160a01b031690813b156120825780604051809363024a6d6d60e11b8252818381615c348b8d8c60048501611da3565b03925af19182615e3f575b5090615c4c575050505050565b604051630737fee160e41b815260048101869052602081602481865af490811561212a579061ffff918391615e20575b50169182615cb8575b5050600080516020617d66833981519152916040918251948552602085015260018060a01b031692a33880808080611d70565b81602491604051928380926354b8d5e360e01b82528a60048301525af490811561212a578291615d97575b50604051615d1260278260208101946602130b233b29d160cd1b8652611ff38151809260208686019101611dc8565b6001546001600160a01b031690813b15612085578391615d6f91836084604051809781968295630eccbd3560e11b84528d60018060a01b031660048501528c60248501526060604485015251809281606486015285850190611dc8565b601f01601f191681010301925af115615c8557615d8d8280926117dd565b6120825780615c85565b90503d8083833e615da881836117dd565b810190602081830312612126578051906001600160401b038211612085570181601f82011215612126578051906001600160401b0382116121125760405192615dfb601f8401601f1916602001856117dd565b828452602083830101116120855790615e1a9160208085019101611dc8565b38615ce3565b615e39915060203d602011611d6957611d5b81836117dd565b38615c7c565b81615e49916117dd565b38615c3f565b9250604051636f143be160e01b8152846004820152602081602481855af48015615ebf578490615e8b575b615e85915042611d96565b92615bfe565b506020813d602011615eb7575b81615ea5602093836117dd565b8101031261208557615e859051615e7a565b3d9150615e98565b6040513d86823e3d90fd5b615ee3915060203d6020116108d6576108c881836117dd565b38615bf7565b611be0929150616618565b615f0d915060203d6020116108d6576108c881836117dd565b38615bb1565b6001600160a01b0390911681526020810191909152600060408201819052606082015260800190565b908060209392818452848401376000828201840152601f01601f1916010190565b600154604051630e05e5d560e21b8152929493926001600160a01b039091169060009060208180615f928a8860048401611b1e565b0381865afa90811561212a578291616121575b501561611957813b156120825780604051809363024a6d6d60e11b8252818381615fd38c8a60048401615f13565b03925af19182616109575b5090615feb575050505050565b604051630737fee160e41b81526004810186905260208160248173__$e3a882f22bd04f7a2b17b0bf615ac922fd$__5af490811561212a579061ffff9183916160ea575b501680616077575b505090600080516020617cc68339815191529161606a6040519283926020845260018060a01b0316956020840191615f3c565b0390a33880808080611d70565b6001546001600160a01b031690813b156121265760405163031879a760e21b81526001600160a01b038516600482015260248101919091526060604482015290829082908183816160cc606482018c8c615f3c565b03925af115616037576160e08280926117dd565b6120825780616037565b616103915060203d602011611d6957611d5b81836117dd565b3861602f565b81616113916117dd565b38615fde565b505050505050565b61613a915060203d6020116108d6576108c881836117dd565b38615fa5565b6001600160401b0381116117c75760051b60200190565b8051821015610a235760209160051b010190565b60001981146119965760010190565b61618381616756565b616443575b616191816168c2565b616403575b61619f81616a36565b6163c3575b6161ad81616c2b565b616383575b6161bb81616d81565b616343575b6161c981616f27565b616303575b6161d78161709d565b6162c3575b6161e5816171f3565b616283575b6161f381617349565b616243575b6162018161749f565b6162085750565b6000546001600160a01b03163314158061622a575b6102f957611be090615758565b5033600052600460205260ff604060002054161561621d565b6000546001600160a01b03163314158061626a575b6102f95761626581615343565b6161f8565b5033600052600460205260ff6040600020541615616258565b6000546001600160a01b0316331415806162aa575b6102f9576162a581614f2e565b6161ea565b5033600052600460205260ff6040600020541615616298565b6000546001600160a01b0316331415806162ea575b6102f9576162e581614b19565b6161dc565b5033600052600460205260ff60406000205416156162d8565b6000546001600160a01b03163314158061632a575b6102f95761632581614704565b6161ce565b5033600052600460205260ff6040600020541615616318565b6000546001600160a01b03163314158061636a575b6102f957616365816142ef565b6161c0565b5033600052600460205260ff6040600020541615616358565b6000546001600160a01b0316331415806163aa575b6102f9576163a581613eda565b6161b2565b5033600052600460205260ff6040600020541615616398565b6000546001600160a01b0316331415806163ea575b6102f9576163e581613ac5565b6161a4565b5033600052600460205260ff60406000205416156163d8565b6000546001600160a01b03163314158061642a575b6102f957616425816136b0565b616196565b5033600052600460205260ff6040600020541615616418565b6000546001600160a01b03163314158061646a575b6102f9576164658161329b565b616188565b5033600052600460205260ff6040600020541615616458565b8054600160401b600160801b03191660409290921b600160401b600160801b0316919091179055565b6001600160a01b03166000818152600260205260409020600181018054608081901c6001600160401b0316156165f2575b5080546001600160401b036201518042048116929160401c16806165675750825463ffffffff60201b1916600160201b178355600080516020617ce68339815191529260809263ffffffff926165339190616483565b5460201c166040519060408252600f60408301526e636f6e73656375746976654461797360881b60608301526020820152a2565b909290828103616578575050505050565b600101906001600160401b03821161199657600080516020617ce68339815191529360809363ffffffff936001600160401b031681036165d8576165d3916165ce6165c886865460201c16611acc565b85611ae3565b616483565b616533565b8254602085901b1916600160201b1783556165d391616483565b600160801b600160c01b0319164260801b600160801b600160c01b0316178155386164dd565b9060405163157e6ad160e21b815281600482015260208160248173__$e3a882f22bd04f7a2b17b0bf615ac922fd$__5af49081156108dd57600091616726575b506166c75760015460405163d5b37a7f60e01b81529060209082906001600160a01b0316818061668c878960048401611b1e565b03915afa9081156108dd576000916166f4575b508015159081806166eb575b156166bb575050611be0916179bb565b816166d4575b506166cb575b5050565b611be0916179bb565b62093a7f19810191508111611996574211386166c1565b508042116166ab565b906020823d60201161671e575b8161670e602093836117dd565b810103126120825750513861669f565b3d9150616701565b61673f915060203d6020116108d6576108c881836117dd565b38616658565b60ff1660ff81146119965760010190565b60018060a01b0316806000526002602052604060002060ff60026040519261677d846117ab565b805463ffffffff8116855263ffffffff8160201c16602086015263ffffffff8160401c16604086015263ffffffff8160601c16606086015263ffffffff8160801c16608086015263ffffffff8160a01c1660a086015263ffffffff8160c01c1660c086015260e01c60e0850152600181015463ffffffff811661010086015263ffffffff8160201c1661012086015260018060401b038160401c1661014086015260018060401b038160801c1661016086015260c01c610180850152015481811615156101a0840152818160081c1615156101c084015260101c1615156101e0820152602060018060a01b036001541692602460405180958193630d47875d60e41b835260048301525afa9081156108dd5760329263ffffffff926168a5575b505116101590565b6168bd9060203d602011611d6957611d5b81836117dd565b61689d565b6001600160a01b031660008181526002602052604080822090519092906168e8816117ab565b6101e060ff600286549663ffffffff8816855263ffffffff8860201c166020860152604085019763ffffffff8160401c16895263ffffffff8160601c16606087015263ffffffff8160801c16608087015263ffffffff8160a01c1660a087015263ffffffff8160c01c1660c087015260e01c60e0860152600181015463ffffffff811661010087015263ffffffff8160201c1661012087015260018060401b038160401c1661014087015260018060401b038160801c1661016087015260c01c610180860152015481811615156101a0850152818160081c1615156101c085015260101c161515910152602060018060a01b036001541691602460405180948193630d47875d60e41b835260048301525afa801561212a5791600a939163ffffffff93616a19575b50505116101590565b616a319060203d602011611d6957611d5b81836117dd565b616a10565b6001600160a01b0316600081815260026020526040808220905192616a5a846117ab565b81549263ffffffff8416855263ffffffff8460201c166020860152604085019163ffffffff8560401c16835263ffffffff8560601c16606087015260ff6002608088019563ffffffff8860801c16875260a089019763ffffffff8160a01c16895263ffffffff8160c01c1660c08b015260e01c60e08a0152600181015463ffffffff81166101008b015263ffffffff8160201c166101208b015260018060401b038160401c166101408b015260018060401b038160801c166101608b015260c01c6101808a0152015481811615156101a0890152818160081c1615156101c089015260101c1615156101e0870152602060018060a01b036001541691602460405180948193630d47875d60e41b835260048301525afa801561212a579160ff9593916003979593616c0e575b5050600063ffffffff81955116616bff575b505163ffffffff16616be8575b5163ffffffff16616bd1575b5163ffffffff16616bc3575b16101590565b616bcc90616745565b616bbd565b90616be063ffffffff91616745565b919050616bb1565b91616bf763ffffffff91616745565b929050616ba5565b506001935063ffffffff616b98565b616c269060203d602011611d6957611d5b81836117dd565b616b86565b6001600160a01b03166000818152600260205260408082209051909290616c51816117ab565b6101e060ff600286549663ffffffff88168552602085019763ffffffff8160201c16895263ffffffff8160401c16604087015263ffffffff8160601c16606087015263ffffffff8160801c16608087015263ffffffff8160a01c1660a087015263ffffffff8160c01c1660c087015260e01c60e0860152600181015463ffffffff811661010087015263ffffffff8160201c1661012087015260018060401b038160401c1661014087015260018060401b038160801c1661016087015260c01c610180860152015481811615156101a0850152818160081c1615156101c085015260101c161515910152602060018060a01b036001541691602460405180948193630d47875d60e41b835260048301525afa801561212a5791601e939163ffffffff93616a195750505116101590565b6001600160a01b03166000818152600260205260408082209051909190616da7816117ab565b6101e060ff600285549563ffffffff8716855263ffffffff8760201c16602086015263ffffffff8760401c166040860152606085019663ffffffff8160601c16885263ffffffff8160801c16608087015263ffffffff8160a01c1660a087015263ffffffff8160c01c1660c087015260e01c60e0860152600181015463ffffffff811661010087015263ffffffff8160201c1661012087015260018060401b038160401c1661014087015260018060401b038160801c1661016087015260c01c610180860152015481811615156101a0850152818160081c1615156101c085015260101c161515910152602060018060a01b036001541693602460405180968193630d47875d60e41b835260048301525afa928315616f1a578193616eee575b5060649163ffffffff9150511610159081616ee0575090565b6102bc915061ffff16101590565b63ffffffff91935091616f1160649360203d602011611d6957611d5b81836117dd565b93915091616ec7565b50604051903d90823e3d90fd5b6001600160a01b031660008181526002602081905260408083209051916101e09160ff9190616f55856117ab565b805463ffffffff8116865263ffffffff8160201c16602087015263ffffffff8160401c16604087015263ffffffff8160601c16606087015263ffffffff8160801c16608087015263ffffffff8160a01c1660a087015263ffffffff8160c01c1660c087015260e01c60e0860152600181015463ffffffff811661010087015263ffffffff8160201c1661012087015260018060401b038160401c1661014087015260018060401b038160801c1661016087015260c01c610180860152015481811615156101a0850152818160081c1615156101c085015260101c161515910152602060018060a01b036001541692602460405180958193630d47875d60e41b835260048301525afa918215616f1a5791816123289361ffff939261707c575b505016101590565b61709691925060203d602011611d6957611d5b81836117dd565b9038617074565b6001600160a01b031660008181526002602052604080822090519092906170c3816117ab565b6101e060ff600286549663ffffffff8816855263ffffffff8860201c16602086015263ffffffff8860401c16604086015263ffffffff8860601c16606086015263ffffffff8860801c16608086015263ffffffff8860a01c1660a086015260c085019763ffffffff8160c01c16895260e01c60e0860152600181015463ffffffff811661010087015263ffffffff8160201c1661012087015260018060401b038160401c1661014087015260018060401b038160801c1661016087015260c01c610180860152015481811615156101a0850152818160081c1615156101c085015260101c161515910152602060018060a01b036001541691602460405180948193630d47875d60e41b835260048301525afa801561212a5791600a939163ffffffff93616a195750505116101590565b6001600160a01b03166000818152600260205260408082209051909290617219816117ab565b835463ffffffff8116825263ffffffff8160201c16602083015263ffffffff8160401c16604083015263ffffffff8160601c16606083015263ffffffff8160801c16608083015263ffffffff8160a01c1660a083015263ffffffff8160c01c1660c083015260e01c60e08201526101e060ff600260018701549661010085019763ffffffff8116895263ffffffff8160201c1661012087015260018060401b038160401c1661014087015260018060401b038160801c1661016087015260c01c610180860152015481811615156101a0850152818160081c1615156101c085015260101c161515910152602060018060a01b036001541691602460405180948193630d47875d60e41b835260048301525afa801561212a57916003939163ffffffff93616a195750505116101590565b6001600160a01b0316600081815260026020526040808220905190929061736f816117ab565b835463ffffffff8116825263ffffffff8160201c16602083015263ffffffff8160401c16604083015263ffffffff8160601c16606083015263ffffffff8160801c16608083015263ffffffff8160a01c1660a083015263ffffffff8160c01c1660c083015260e01c60e08201526101e060ff600260018701549663ffffffff881661010086015261012085019763ffffffff8160201c16895260018060401b038160401c1661014087015260018060401b038160801c1661016087015260c01c610180860152015481811615156101a0850152818160081c1615156101c085015260101c161515910152602060018060a01b036001541691602460405180948193630d47875d60e41b835260048301525afa801561212a57916005939163ffffffff93616a195750505116101590565b6001600160a01b031660008181526002602052604080822090519092906174c5816117ab565b6101e060ff600286549663ffffffff8816855263ffffffff8860201c16602086015263ffffffff8860401c16604086015263ffffffff8860601c16606086015263ffffffff8860801c16608086015263ffffffff8860a01c1660a086015260c085019763ffffffff8160c01c16895260e01c60e0860152600181015463ffffffff811661010087015263ffffffff8160201c1661012087015260018060401b038160401c1661014087015260018060401b038160801c1661016087015260c01c610180860152015481811615156101a0850152818160081c1615156101c085015260101c161515910152602060018060a01b036001541691602460405180948193630d47875d60e41b835260048301525afa801561212a57916005939163ffffffff93616a195750505116101590565b60018060a01b0316908160005260026020526040600020604051617618816117ab565b81549363ffffffff85168252602082019163ffffffff8660201c168352604081019263ffffffff8760401c168452606082019063ffffffff8860601c168252608083019263ffffffff8960801c16845260a0810163ffffffff8a60a01c16815260c082019963ffffffff8160c01c168b5260e01c60e083015260018801549461010083019763ffffffff8716895260ff600261012086019b63ffffffff8a60201c168d5260018060401b038a60401c1661014088015260018060401b038a60801c1661016088015261018087019960c01c8a52015481811615156101a0870152818160081c1615156101c087015260101c1615156101e0850152602060018060a01b0360015416986024604051809b8193630d47875d60e41b835260048301525afa9788156108dd5760009861799a575b50600080516020617ca68339815191528b1461797e57600080516020617d868339815191528b1461796257600080516020617da68339815191528b146179115750505050600080516020617e2683398151915287146178f95750600080516020617de683398151915286146178db5750600080516020617e86833981519152851461789a5750600080516020617ea683398151915284146178875750600080516020617dc6833981519152831461787557600080516020617e0683398151915283146178615750600080516020617d26833981519152821461784f5750600080516020617e66833981519152146178405750600090565b63ffffffff6005915116101590565b6005925063ffffffff91505116101590565b90506003925063ffffffff91505116101590565b50505063ffffffff600a915116101590565b915050612328925061ffff915016101590565b516001600160401b0316945050831592506178d5915050576301e13380016001600160401b038111611996576001600160401b031642101590565b50600090565b92505093506064925063ffffffff9150511610159081616ee0575090565b945050505050601e925063ffffffff91505116101590565b955095509550955050506003955060ff945063ffffffff6000945116617959575b5163ffffffff16616be8575163ffffffff16616bd1575163ffffffff16616bc35716101590565b60019350617932565b98505050505050505050600a925063ffffffff91505116101590565b505050955050505050506032925063ffffffff91505116101590565b6179b491985060203d602011611d6957611d5b81836117dd565b9638617749565b6179c582826175f5565b15617adf57604051636f143be160e01b8152600481018390526000919060208160248173__$e3a882f22bd04f7a2b17b0bf615ac922fd$__5af480156121e3578390617aab575b617a17915042611d96565b9160018060a01b036001541690813b156120825780604051809363024a6d6d60e11b8252818381617a4d8a8c8b60048501611da3565b03925af19182617a9b575b5050617a6357505050565b6040519182526001600160a01b0316907f709768a937fa6c96f16d504e6ccd79ed0f7cec9890bc8caf66b974d8234b2b7290602090a3565b81617aa5916117dd565b38617a58565b506020813d602011617ad7575b81617ac5602093836117dd565b8101031261212657617a179051617a0c565b3d9150617ab8565b6001546001600160a01b03166000813b156120825780604051809363024a6d6d60e11b8252818381617b158a8a60048401615f13565b03925af19182617c75575b5090617b2b57505050565b604051630737fee160e41b81526004810184905260208160248173__$e3a882f22bd04f7a2b17b0bf615ac922fd$__5af490811561212a579061ffff918391617c56575b501680617bc2575b5050600080516020617cc68339815191526060604051926020845260146020850152734661696c656420746f2072652d7175616c69667960601b604085015260018060a01b031692a3565b6001546001600160a01b031690813b156121265760405163031879a760e21b81526001600160a01b0385166004820152602481019190915260606044820152602060648201527f42616467652065787069726564202d206e6f742072652d7175616c69666965646084820152908290829060a490829084905af115617b7757617c4c8280926117dd565b6120825780617b77565b617c6f915060203d602011611d6957611d5b81836117dd565b38617b6f565b81617c7f916117dd565b38617b2056fecd25a284806e0931bbfbd59e48ca09094f95cc8a54899ac7cf670a7bc084e4c8fe3c33b66e28f14b3d890787766ee667031d474e01f41afd2282c6ddd242b13426d2c97c09cc1ae6ca58d6c5f71f9fe7f41b640abfc004802f040df1a8589b5996af6c1bc6b7426f6e19731efc05c031985ae6b78f7170092d703c7da8e444f5a0bb1af1c90aa52ed052b92714ff0087008cc720049bf1af77cca2600b31e80c9f56690334c710be9812966692e10c040bde4927265518b422c82505f65961ec7866cd9bf5624adbb572bdf0ef2c6611719c1bd1dd881d077900477122585f51a4d0d2188316f6d5aba43361a7ec054181c935cc0ed13d35943e0d099fd5fc891b4e571958fba4ea5c92407500c44c03a913f7a3c4f5746fc318ba401831b4e5a96fb0ea3366184fa9ef274bb2b523bb1410c5597f5b73e284bcc8d9c27caf81fe29986656bd77a1f0da32c9315bed40455567f6060bea388c123d4bafff845ac4f6113bf43fb59dba21ffee106d9126a16fd7ef738a99e9f98f3366a7bcd62822d441acdd22f4ae7f00407a46293dd53140dc9fa6beeef35e22cb018b264344d33d23312f0938ef21668aa46fd5bd7b72db718fcdd7e30d1e9db0ea46420720372cedd1d27b066a923b896eea7904ca9ef57e79d18aa00ae08d276de72c77b14ad701a62eb4bddf2c4f992ebf56952b66972847c21daeab6931b6b4aa89a4eb8f1a39279a10a884ddf0b6a95d0e46f341a5809f447de8f39f0c29e43a914272e426caaf9f537d800bdc663bd466690f26963dfd7bb0ed1ed5f323a945377dfca03d1a4a2c4366d3db0c7243a29eef9c5e849fe7328823e0b7288dab59d52310a264697066735822122025e0cecc47d90e5b2e931503fdaf0bc6e454f287c0c5601ae9bb210c3ccca85764736f6c634300081e0033","opcodes":"PUSH1 0x80 CALLVALUE PUSH1 0xB8 JUMPI PUSH1 0x1F PUSH2 0x8002 CODESIZE DUP2 SWAP1 SUB SWAP2 DUP3 ADD PUSH1 0x1F NOT AND DUP4 ADD SWAP2 PUSH1 0x1 PUSH1 0x1 PUSH1 0x40 SHL SUB DUP4 GT DUP5 DUP5 LT OR PUSH1 0xBD JUMPI DUP1 DUP5 SWAP3 PUSH1 0x40 SWAP5 DUP6 MSTORE DUP4 CODECOPY DUP2 ADD SUB SLT PUSH1 0xB8 JUMPI PUSH1 0x4B PUSH1 0x20 PUSH1 0x45 DUP4 PUSH1 0xD3 JUMP JUMPDEST SWAP3 ADD PUSH1 0xD3 JUMP JUMPDEST SWAP1 PUSH1 0x1 PUSH1 0x1 PUSH1 0xA0 SHL SUB AND DUP1 ISZERO DUP1 ISZERO PUSH1 0xA8 JUMPI JUMPDEST PUSH1 0x97 JUMPI PUSH1 0x1 DUP1 PUSH1 0xA0 SHL SUB NOT PUSH1 0x0 SLOAD AND OR PUSH1 0x0 SSTORE PUSH1 0x1 DUP1 PUSH1 0xA0 SHL SUB AND PUSH1 0x1 DUP1 PUSH1 0xA0 SHL SUB NOT PUSH1 0x1 SLOAD AND OR PUSH1 0x1 SSTORE PUSH1 0x40 MLOAD PUSH2 0x7F1B SWAP1 DUP2 PUSH2 0xE7 DUP3 CODECOPY RETURN JUMPDEST PUSH4 0xDCE35385 PUSH1 0xE0 SHL PUSH1 0x0 MSTORE PUSH1 0x4 PUSH1 0x0 REVERT JUMPDEST POP PUSH1 0x1 PUSH1 0x1 PUSH1 0xA0 SHL SUB DUP3 AND ISZERO PUSH1 0x5D JUMP JUMPDEST PUSH1 0x0 DUP1 REVERT JUMPDEST PUSH4 0x4E487B71 PUSH1 0xE0 SHL PUSH1 0x0 MSTORE PUSH1 0x41 PUSH1 0x4 MSTORE PUSH1 0x24 PUSH1 0x0 REVERT JUMPDEST MLOAD SWAP1 PUSH1 0x1 PUSH1 0x1 PUSH1 0xA0 SHL SUB DUP3 AND DUP3 SUB PUSH1 0xB8 JUMPI JUMP INVALID PUSH1 0x80 PUSH1 0x40 MSTORE PUSH1 0x4 CALLDATASIZE LT ISZERO PUSH2 0x12 JUMPI PUSH1 0x0 DUP1 REVERT JUMPDEST PUSH1 0x0 CALLDATALOAD PUSH1 0xE0 SHR DUP1 PUSH4 0x5409F33 EQ PUSH2 0x16D3 JUMPI DUP1 PUSH4 0x13CF93FB EQ PUSH2 0x168C JUMPI DUP1 PUSH4 0x13E7C9D8 EQ PUSH2 0x164D JUMPI DUP1 PUSH4 0x1D920985 EQ PUSH2 0x157D JUMPI DUP1 PUSH4 0x283D6715 EQ PUSH2 0x14B7 JUMPI DUP1 PUSH4 0x2D55EA39 EQ PUSH2 0x148E JUMPI DUP1 PUSH4 0x387B279C EQ PUSH2 0x1391 JUMPI DUP1 PUSH4 0x4162169F EQ PUSH2 0x1368 JUMPI DUP1 PUSH4 0x41752096 EQ PUSH2 0x12C9 JUMPI DUP1 PUSH4 0x466D055F EQ PUSH2 0x1275 JUMPI DUP1 PUSH4 0x4E43603A EQ PUSH2 0xFB9 JUMPI DUP1 PUSH4 0x5521F9FE EQ PUSH2 0xF65 JUMPI DUP1 PUSH4 0x558A7297 EQ PUSH2 0xED4 JUMPI DUP1 PUSH4 0x615E5CAE EQ PUSH2 0xE7C JUMPI DUP1 PUSH4 0x6D134AC2 EQ PUSH2 0xE03 JUMPI DUP1 PUSH4 0x77A0555C EQ PUSH2 0xD49 JUMPI DUP1 PUSH4 0x85E8135C EQ PUSH2 0xC80 JUMPI DUP1 PUSH4 0x889B468D EQ PUSH2 0xB5B JUMPI DUP1 PUSH4 0x8A65D874 EQ PUSH2 0xA39 JUMPI DUP1 PUSH4 0x93A645E4 EQ PUSH2 0x3DA JUMPI DUP1 PUSH4 0xAEA3B217 EQ PUSH2 0x3BD JUMPI DUP1 PUSH4 0xBDF03329 EQ PUSH2 0x397 JUMPI DUP1 PUSH4 0xC37F34CA EQ PUSH2 0x373 JUMPI DUP1 PUSH4 0xE071C1C0 EQ PUSH2 0x323 JUMPI DUP1 PUSH4 0xE5B3D3EE EQ PUSH2 0x231 JUMPI DUP1 PUSH4 0xE73A914C EQ PUSH2 0x1C2 JUMPI DUP1 PUSH4 0xE7B2C7B2 EQ PUSH2 0x172 JUMPI PUSH4 0xF220836F EQ PUSH2 0x150 JUMPI PUSH1 0x0 DUP1 REVERT JUMPDEST CALLVALUE PUSH2 0x16D JUMPI PUSH1 0x0 CALLDATASIZE PUSH1 0x3 NOT ADD SLT PUSH2 0x16D JUMPI PUSH1 0x20 PUSH1 0x40 MLOAD PUSH2 0x3E8 DUP2 MSTORE RETURN JUMPDEST PUSH1 0x0 DUP1 REVERT JUMPDEST CALLVALUE PUSH2 0x16D JUMPI PUSH1 0x40 CALLDATASIZE PUSH1 0x3 NOT ADD SLT PUSH2 0x16D JUMPI PUSH1 0x1 PUSH1 0x1 PUSH1 0xA0 SHL SUB PUSH2 0x193 PUSH2 0x1770 JUMP JUMPDEST AND PUSH1 0x0 MSTORE PUSH1 0x3 PUSH1 0x20 MSTORE PUSH1 0x40 PUSH1 0x0 KECCAK256 PUSH1 0x24 CALLDATALOAD PUSH1 0x0 MSTORE PUSH1 0x20 MSTORE PUSH1 0x20 PUSH1 0x1 DUP1 PUSH1 0x40 SHL SUB PUSH1 0x40 PUSH1 0x0 KECCAK256 SLOAD AND PUSH1 0x40 MLOAD SWAP1 DUP2 MSTORE RETURN JUMPDEST CALLVALUE PUSH2 0x16D JUMPI PUSH1 0x20 CALLDATASIZE PUSH1 0x3 NOT ADD SLT PUSH2 0x16D JUMPI PUSH2 0x1DB PUSH2 0x1770 JUMP JUMPDEST PUSH1 0x0 SLOAD SWAP1 PUSH1 0x1 PUSH1 0x1 PUSH1 0xA0 SHL SUB DUP3 AND CALLER SUB PUSH2 0x220 JUMPI PUSH1 0x1 PUSH1 0x1 PUSH1 0xA0 SHL SUB AND SWAP1 DUP2 ISZERO PUSH2 0x20F JUMPI PUSH1 0x1 PUSH1 0x1 PUSH1 0xA0 SHL SUB NOT AND OR PUSH1 0x0 SSTORE STOP JUMPDEST PUSH4 0xDCE35385 PUSH1 0xE0 SHL PUSH1 0x0 MSTORE PUSH1 0x4 PUSH1 0x0 REVERT JUMPDEST PUSH4 0x385B4F91 PUSH1 0xE2 SHL PUSH1 0x0 MSTORE PUSH1 0x4 PUSH1 0x0 REVERT JUMPDEST CALLVALUE PUSH2 0x16D JUMPI PUSH1 0x20 CALLDATASIZE PUSH1 0x3 NOT ADD SLT PUSH2 0x16D JUMPI PUSH2 0x24A PUSH2 0x1770 JUMP JUMPDEST PUSH1 0x0 SLOAD PUSH1 0x1 PUSH1 0x1 PUSH1 0xA0 SHL SUB AND CALLER EQ ISZERO DUP1 PUSH2 0x30A JUMPI JUMPDEST PUSH2 0x2F9 JUMPI PUSH1 0x0 DUP1 MLOAD PUSH1 0x20 PUSH2 0x7CE6 DUP4 CODECOPY DUP2 MLOAD SWAP2 MSTORE PUSH1 0x80 PUSH4 0xFFFFFFFF PUSH1 0x1 DUP1 PUSH1 0xA0 SHL SUB DUP5 AND SWAP4 DUP5 PUSH1 0x0 MSTORE PUSH1 0x2 PUSH1 0x20 MSTORE PUSH2 0x2C5 PUSH1 0x40 PUSH1 0x0 KECCAK256 SWAP2 DUP3 SLOAD DUP5 PUSH1 0x40 SHL PUSH2 0x2A9 DUP7 DUP4 PUSH1 0x40 SHR AND PUSH2 0x1ACC JUMP JUMPDEST PUSH1 0x40 SHL AND SWAP1 DUP6 PUSH1 0x40 SHL NOT AND OR DUP4 SSTORE PUSH2 0x2C0 DUP2 PUSH2 0x64AC JUMP JUMPDEST PUSH2 0x617A JUMP JUMPDEST SLOAD PUSH1 0x40 SHR AND PUSH1 0x40 MLOAD SWAP1 PUSH1 0x40 DUP3 MSTORE PUSH1 0xF PUSH1 0x40 DUP4 ADD MSTORE PUSH15 0x676F7665726E616E6365566F746573 PUSH1 0x88 SHL PUSH1 0x60 DUP4 ADD MSTORE PUSH1 0x20 DUP3 ADD MSTORE LOG2 STOP JUMPDEST PUSH4 0xED1F1D8D PUSH1 0xE0 SHL PUSH1 0x0 MSTORE PUSH1 0x4 PUSH1 0x0 REVERT JUMPDEST POP CALLER PUSH1 0x0 MSTORE PUSH1 0x4 PUSH1 0x20 MSTORE PUSH1 0xFF PUSH1 0x40 PUSH1 0x0 KECCAK256 SLOAD AND ISZERO PUSH2 0x25F JUMP JUMPDEST CALLVALUE PUSH2 0x16D JUMPI PUSH1 0x20 CALLDATASIZE PUSH1 0x3 NOT ADD SLT PUSH2 0x16D JUMPI PUSH2 0x33C PUSH2 0x1770 JUMP JUMPDEST PUSH1 0x0 SLOAD PUSH1 0x1 PUSH1 0x1 PUSH1 0xA0 SHL SUB AND CALLER SUB PUSH2 0x220 JUMPI PUSH1 0x1 PUSH1 0x1 PUSH1 0xA0 SHL SUB AND DUP1 ISZERO PUSH2 0x20F JUMPI PUSH1 0x1 DUP1 SLOAD PUSH1 0x1 PUSH1 0x1 PUSH1 0xA0 SHL SUB NOT AND SWAP2 SWAP1 SWAP2 OR SWAP1 SSTORE STOP JUMPDEST CALLVALUE PUSH2 0x16D JUMPI PUSH1 0x0 CALLDATASIZE PUSH1 0x3 NOT ADD SLT PUSH2 0x16D JUMPI PUSH1 0x20 PUSH4 0xFFFFFFFF PUSH1 0x5 SLOAD AND PUSH1 0x40 MLOAD SWAP1 DUP2 MSTORE RETURN JUMPDEST CALLVALUE PUSH2 0x16D JUMPI PUSH1 0x0 CALLDATASIZE PUSH1 0x3 NOT ADD SLT PUSH2 0x16D JUMPI PUSH1 0x20 PUSH4 0xFFFFFFFF PUSH1 0x5 SLOAD DUP3 SHR AND PUSH1 0x40 MLOAD SWAP1 DUP2 MSTORE RETURN JUMPDEST CALLVALUE PUSH2 0x16D JUMPI PUSH1 0x0 CALLDATASIZE PUSH1 0x3 NOT ADD SLT PUSH2 0x16D JUMPI PUSH1 0x20 PUSH1 0x40 MLOAD PUSH2 0x2710 DUP2 MSTORE RETURN JUMPDEST CALLVALUE PUSH2 0x16D JUMPI PUSH1 0x20 CALLDATASIZE PUSH1 0x3 NOT ADD SLT PUSH2 0x16D JUMPI PUSH2 0x3F3 PUSH2 0x1770 JUMP JUMPDEST PUSH1 0x40 MLOAD PUSH2 0x380 PUSH2 0x403 DUP2 DUP4 PUSH2 0x17DD JUMP JUMPDEST PUSH1 0x1B DUP3 MSTORE PUSH1 0x20 DUP3 ADD SWAP1 PUSH1 0x1F NOT ADD CALLDATASIZE DUP3 CALLDATACOPY DUP2 MLOAD ISZERO PUSH2 0xA23 JUMPI PUSH1 0x0 DUP1 MLOAD PUSH1 0x20 PUSH2 0x7EC6 DUP4 CODECOPY DUP2 MLOAD SWAP2 MSTORE SWAP1 MSTORE DUP1 MLOAD PUSH1 0x1 LT ISZERO PUSH2 0xA23 JUMPI PUSH1 0x0 DUP1 MLOAD PUSH1 0x20 PUSH2 0x7D46 DUP4 CODECOPY DUP2 MLOAD SWAP2 MSTORE PUSH1 0x40 DUP3 ADD MSTORE DUP1 MLOAD PUSH1 0x2 LT ISZERO PUSH2 0xA23 JUMPI PUSH1 0x0 DUP1 MLOAD PUSH1 0x20 PUSH2 0x7C86 DUP4 CODECOPY DUP2 MLOAD SWAP2 MSTORE PUSH1 0x60 DUP3 ADD MSTORE DUP1 MLOAD PUSH1 0x3 LT ISZERO PUSH2 0xA23 JUMPI PUSH1 0x0 DUP1 MLOAD PUSH1 0x20 PUSH2 0x7CA6 DUP4 CODECOPY DUP2 MLOAD SWAP2 MSTORE PUSH1 0x80 DUP3 ADD MSTORE DUP1 MLOAD PUSH1 0x4 LT ISZERO PUSH2 0xA23 JUMPI PUSH1 0x0 DUP1 MLOAD PUSH1 0x20 PUSH2 0x7D86 DUP4 CODECOPY DUP2 MLOAD SWAP2 MSTORE PUSH1 0xA0 DUP3 ADD MSTORE DUP1 MLOAD PUSH1 0x5 LT ISZERO PUSH2 0xA23 JUMPI PUSH1 0x0 DUP1 MLOAD PUSH1 0x20 PUSH2 0x7DA6 DUP4 CODECOPY DUP2 MLOAD SWAP2 MSTORE PUSH1 0xC0 DUP3 ADD MSTORE DUP1 MLOAD PUSH1 0x6 LT ISZERO PUSH2 0xA23 JUMPI PUSH1 0x0 DUP1 MLOAD PUSH1 0x20 PUSH2 0x7E26 DUP4 CODECOPY DUP2 MLOAD SWAP2 MSTORE PUSH1 0xE0 DUP3 ADD MSTORE DUP1 MLOAD PUSH1 0x7 LT ISZERO PUSH2 0xA23 JUMPI PUSH32 0xF4F1880C72D8DBAFC9805EB1C4BCEFCB30AF90B0AE932E0F050C81B491125857 PUSH2 0x100 DUP3 ADD MSTORE DUP1 MLOAD PUSH1 0x8 LT ISZERO PUSH2 0xA23 JUMPI PUSH1 0x0 DUP1 MLOAD PUSH1 0x20 PUSH2 0x7DC6 DUP4 CODECOPY DUP2 MLOAD SWAP2 MSTORE PUSH2 0x120 DUP3 ADD MSTORE DUP1 MLOAD PUSH1 0x9 LT ISZERO PUSH2 0xA23 JUMPI PUSH32 0xACF4336C61C8A8031ABEC411F918F29AA8A8D0D7D07AE250391D186289FB4999 PUSH2 0x140 DUP3 ADD MSTORE DUP1 MLOAD PUSH1 0xA LT ISZERO PUSH2 0xA23 JUMPI PUSH1 0x0 DUP1 MLOAD PUSH1 0x20 PUSH2 0x7E66 DUP4 CODECOPY DUP2 MLOAD SWAP2 MSTORE PUSH2 0x160 DUP3 ADD MSTORE DUP1 MLOAD PUSH1 0xB LT ISZERO PUSH2 0xA23 JUMPI PUSH1 0x0 DUP1 MLOAD PUSH1 0x20 PUSH2 0x7DE6 DUP4 CODECOPY DUP2 MLOAD SWAP2 MSTORE PUSH2 0x180 DUP3 ADD MSTORE DUP1 MLOAD PUSH1 0xC LT ISZERO PUSH2 0xA23 JUMPI PUSH32 0xDE4DF86A0CFBC1CA19C1967D53B4F9D906C2F3E5F0B5637FF74D60111AD48D74 PUSH2 0x1A0 DUP3 ADD MSTORE DUP1 MLOAD PUSH1 0xD LT ISZERO PUSH2 0xA23 JUMPI PUSH32 0xE2A717C0595726A19D429BA65A7BE318C309E2BBFBE0D178266BA0266404B280 PUSH2 0x1C0 DUP3 ADD MSTORE DUP1 MLOAD PUSH1 0xE LT ISZERO PUSH2 0xA23 JUMPI PUSH32 0x8CD7AE4080D5A7057C8858E5C9E0A698FBC88B319A304FBAAAE0F5C2BE242349 PUSH2 0x1E0 DUP3 ADD MSTORE DUP1 MLOAD PUSH1 0xF LT ISZERO PUSH2 0xA23 JUMPI PUSH1 0x0 DUP1 MLOAD PUSH1 0x20 PUSH2 0x7E06 DUP4 CODECOPY DUP2 MLOAD SWAP2 MSTORE PUSH2 0x200 DUP3 ADD MSTORE DUP1 MLOAD PUSH1 0x10 LT ISZERO PUSH2 0xA23 JUMPI PUSH1 0x0 DUP1 MLOAD PUSH1 0x20 PUSH2 0x7E86 DUP4 CODECOPY DUP2 MLOAD SWAP2 MSTORE PUSH2 0x220 DUP3 ADD MSTORE DUP1 MLOAD PUSH1 0x11 LT ISZERO PUSH2 0xA23 JUMPI PUSH32 0xF55C3C85690D0ABF93DE8C24ECECEDE3EE62E529020683594957B8E0C109ACE1 PUSH2 0x240 DUP3 ADD MSTORE DUP1 MLOAD PUSH1 0x12 LT ISZERO PUSH2 0xA23 JUMPI PUSH32 0x8B5B16D04624687FCF0D0228F19993C9157C1ED07B41D8D430FD9100EB099FE8 PUSH2 0x260 DUP3 ADD MSTORE DUP1 MLOAD PUSH1 0x13 LT ISZERO PUSH2 0xA23 JUMPI PUSH1 0x0 DUP1 MLOAD PUSH1 0x20 PUSH2 0x7EA6 DUP4 CODECOPY DUP2 MLOAD SWAP2 MSTORE PUSH2 0x280 DUP3 ADD MSTORE DUP1 MLOAD PUSH1 0x14 LT ISZERO PUSH2 0xA23 JUMPI PUSH32 0x66071085B8DE5DDFB56BE1BBF93230FBAA1B5A4A7ED21F7CA2EC8B760127B082 PUSH2 0x2A0 DUP3 ADD MSTORE DUP1 MLOAD PUSH1 0x15 LT ISZERO PUSH2 0xA23 JUMPI PUSH32 0x27B035D29CBD235E68F8E722FB80B6F9A31122FB2C3BCE79340725E804FC9992 PUSH2 0x2C0 DUP3 ADD MSTORE DUP1 MLOAD PUSH1 0x16 LT ISZERO PUSH2 0xA23 JUMPI PUSH32 0x7C3D6722688D7E04217FD02BEB9EE0ABAF5DD8C4C65C6AD4846A80AAE94CA27D PUSH2 0x2E0 DUP3 ADD MSTORE DUP1 MLOAD PUSH1 0x17 LT ISZERO PUSH2 0xA23 JUMPI PUSH1 0x0 DUP1 MLOAD PUSH1 0x20 PUSH2 0x7D26 DUP4 CODECOPY DUP2 MLOAD SWAP2 MSTORE PUSH2 0x300 DUP3 ADD MSTORE DUP1 MLOAD PUSH1 0x18 LT ISZERO PUSH2 0xA23 JUMPI PUSH1 0x0 DUP1 MLOAD PUSH1 0x20 PUSH2 0x7D06 DUP4 CODECOPY DUP2 MLOAD SWAP2 MSTORE PUSH2 0x320 DUP3 ADD MSTORE DUP1 MLOAD PUSH1 0x19 LT ISZERO PUSH2 0xA23 JUMPI PUSH32 0x5C96081090EE4A64CC21B4A34B2247212174B7B9AFEC075A3D09FD229B01E550 PUSH2 0x340 DUP3 ADD MSTORE DUP1 MLOAD PUSH1 0x1A LT ISZERO PUSH2 0xA23 JUMPI PUSH1 0x0 DUP1 MLOAD PUSH1 0x20 PUSH2 0x7E46 DUP4 CODECOPY DUP2 MLOAD SWAP2 MSTORE PUSH2 0x360 DUP3 ADD MSTORE PUSH1 0x1 SLOAD PUSH1 0x1 PUSH1 0x1 PUSH1 0xA0 SHL SUB AND SWAP2 SWAP1 PUSH1 0x0 SWAP1 DUP2 JUMPDEST DUP2 MLOAD DUP2 LT ISZERO PUSH2 0x8E9 JUMPI PUSH2 0x858 PUSH1 0x20 PUSH2 0x83C DUP4 DUP6 PUSH2 0x6157 JUMP JUMPDEST MLOAD PUSH1 0x40 MLOAD DUP1 SWAP4 DUP2 SWAP3 PUSH4 0xE05E5D5 PUSH1 0xE2 SHL DUP4 MSTORE DUP10 PUSH1 0x4 DUP5 ADD PUSH2 0x1B1E JUMP JUMPDEST SUB DUP2 DUP10 GAS STATICCALL SWAP1 DUP2 ISZERO PUSH2 0x8DD JUMPI PUSH1 0x0 SWAP2 PUSH2 0x8AF JUMPI JUMPDEST POP ISZERO DUP1 PUSH2 0x895 JUMPI JUMPDEST PUSH2 0x881 JUMPI JUMPDEST PUSH1 0x1 ADD PUSH2 0x824 JUMP JUMPDEST SWAP2 PUSH2 0x88D PUSH1 0x1 SWAP2 PUSH2 0x616B JUMP JUMPDEST SWAP3 SWAP1 POP PUSH2 0x879 JUMP JUMPDEST POP PUSH2 0x8AA PUSH2 0x8A3 DUP3 DUP5 PUSH2 0x6157 JUMP JUMPDEST MLOAD DUP6 PUSH2 0x75F5 JUMP JUMPDEST PUSH2 0x874 JUMP JUMPDEST PUSH2 0x8D0 SWAP2 POP PUSH1 0x20 RETURNDATASIZE DUP2 GT PUSH2 0x8D6 JUMPI JUMPDEST PUSH2 0x8C8 DUP2 DUP4 PUSH2 0x17DD JUMP JUMPDEST DUP2 ADD SWAP1 PUSH2 0x1B06 JUMP JUMPDEST DUP7 PUSH2 0x86C JUMP JUMPDEST POP RETURNDATASIZE PUSH2 0x8BE JUMP JUMPDEST PUSH1 0x40 MLOAD RETURNDATASIZE PUSH1 0x0 DUP3 RETURNDATACOPY RETURNDATASIZE SWAP1 REVERT JUMPDEST POP PUSH2 0x90C PUSH2 0x8F6 DUP4 PUSH2 0x6140 JUMP JUMPDEST SWAP3 PUSH2 0x904 PUSH1 0x40 MLOAD SWAP5 DUP6 PUSH2 0x17DD JUMP JUMPDEST DUP1 DUP5 MSTORE PUSH2 0x6140 JUMP JUMPDEST PUSH1 0x20 DUP4 ADD SWAP3 SWAP1 PUSH1 0x1F NOT ADD CALLDATASIZE DUP5 CALLDATACOPY PUSH1 0x0 SWAP2 PUSH1 0x0 JUMPDEST DUP2 MLOAD DUP2 LT ISZERO PUSH2 0x9DE JUMPI PUSH2 0x953 PUSH1 0x20 PUSH2 0x937 DUP4 DUP6 PUSH2 0x6157 JUMP JUMPDEST MLOAD PUSH1 0x40 MLOAD DUP1 SWAP4 DUP2 SWAP3 PUSH4 0xE05E5D5 PUSH1 0xE2 SHL DUP4 MSTORE DUP12 PUSH1 0x4 DUP5 ADD PUSH2 0x1B1E JUMP JUMPDEST SUB DUP2 DUP12 GAS STATICCALL SWAP1 DUP2 ISZERO PUSH2 0x8DD JUMPI PUSH1 0x0 SWAP2 PUSH2 0x9C0 JUMPI JUMPDEST POP ISZERO DUP1 PUSH2 0x9A6 JUMPI JUMPDEST PUSH2 0x97C JUMPI JUMPDEST PUSH1 0x1 ADD PUSH2 0x91F JUMP JUMPDEST SWAP3 PUSH2 0x99E PUSH1 0x1 SWAP2 PUSH2 0x98D DUP7 DUP6 PUSH2 0x6157 JUMP JUMPDEST MLOAD PUSH2 0x998 DUP3 DUP8 PUSH2 0x6157 JUMP JUMPDEST MSTORE PUSH2 0x616B JUMP JUMPDEST SWAP4 SWAP1 POP PUSH2 0x974 JUMP JUMPDEST POP PUSH2 0x9BB PUSH2 0x9B4 DUP3 DUP5 PUSH2 0x6157 JUMP JUMPDEST MLOAD DUP8 PUSH2 0x75F5 JUMP JUMPDEST PUSH2 0x96F JUMP JUMPDEST PUSH2 0x9D8 SWAP2 POP PUSH1 0x20 RETURNDATASIZE DUP2 GT PUSH2 0x8D6 JUMPI PUSH2 0x8C8 DUP2 DUP4 PUSH2 0x17DD JUMP JUMPDEST DUP9 PUSH2 0x967 JUMP JUMPDEST DUP5 DUP4 PUSH1 0x40 MLOAD SWAP2 DUP3 SWAP2 PUSH1 0x20 DUP4 ADD SWAP1 PUSH1 0x20 DUP5 MSTORE MLOAD DUP1 SWAP2 MSTORE PUSH1 0x40 DUP4 ADD SWAP2 SWAP1 PUSH1 0x0 JUMPDEST DUP2 DUP2 LT PUSH2 0xA0A JUMPI POP POP POP SUB SWAP1 RETURN JUMPDEST DUP3 MLOAD DUP5 MSTORE DUP6 SWAP5 POP PUSH1 0x20 SWAP4 DUP5 ADD SWAP4 SWAP1 SWAP3 ADD SWAP2 PUSH1 0x1 ADD PUSH2 0x9FC JUMP JUMPDEST PUSH4 0x4E487B71 PUSH1 0xE0 SHL PUSH1 0x0 MSTORE PUSH1 0x32 PUSH1 0x4 MSTORE PUSH1 0x24 PUSH1 0x0 REVERT JUMPDEST CALLVALUE PUSH2 0x16D JUMPI PUSH1 0x20 CALLDATASIZE PUSH1 0x3 NOT ADD SLT PUSH2 0x16D JUMPI PUSH1 0x1 PUSH1 0x1 PUSH1 0xA0 SHL SUB PUSH2 0xA5A PUSH2 0x1770 JUMP JUMPDEST AND PUSH1 0x0 MSTORE PUSH1 0x2 PUSH1 0x20 MSTORE PUSH2 0x200 PUSH1 0x40 PUSH1 0x0 KECCAK256 PUSH1 0xFF DUP2 SLOAD SWAP2 PUSH1 0x2 PUSH1 0x1 DUP3 ADD SLOAD SWAP2 ADD SLOAD SWAP1 PUSH1 0x40 MLOAD SWAP4 PUSH4 0xFFFFFFFF DUP2 AND DUP6 MSTORE PUSH4 0xFFFFFFFF DUP2 PUSH1 0x20 SHR AND PUSH1 0x20 DUP7 ADD MSTORE PUSH4 0xFFFFFFFF DUP2 PUSH1 0x40 SHR AND PUSH1 0x40 DUP7 ADD MSTORE PUSH4 0xFFFFFFFF DUP2 PUSH1 0x60 SHR AND PUSH1 0x60 DUP7 ADD MSTORE PUSH4 0xFFFFFFFF DUP2 PUSH1 0x80 SHR AND PUSH1 0x80 DUP7 ADD MSTORE PUSH4 0xFFFFFFFF DUP2 PUSH1 0xA0 SHR AND PUSH1 0xA0 DUP7 ADD MSTORE PUSH4 0xFFFFFFFF DUP2 PUSH1 0xC0 SHR AND PUSH1 0xC0 DUP7 ADD MSTORE PUSH1 0xE0 SHR PUSH1 0xE0 DUP6 ADD MSTORE PUSH4 0xFFFFFFFF DUP2 AND PUSH2 0x100 DUP6 ADD MSTORE PUSH4 0xFFFFFFFF DUP2 PUSH1 0x20 SHR AND PUSH2 0x120 DUP6 ADD MSTORE PUSH1 0x1 DUP1 PUSH1 0x40 SHL SUB DUP2 PUSH1 0x40 SHR AND PUSH2 0x140 DUP6 ADD MSTORE PUSH1 0x1 DUP1 PUSH1 0x40 SHL SUB DUP2 PUSH1 0x80 SHR AND PUSH2 0x160 DUP6 ADD MSTORE PUSH1 0xC0 SHR PUSH2 0x180 DUP5 ADD MSTORE DUP2 DUP2 AND ISZERO ISZERO PUSH2 0x1A0 DUP5 ADD MSTORE DUP2 DUP2 PUSH1 0x8 SHR AND ISZERO ISZERO PUSH2 0x1C0 DUP5 ADD MSTORE PUSH1 0x10 SHR AND ISZERO ISZERO PUSH2 0x1E0 DUP3 ADD MSTORE RETURN JUMPDEST CALLVALUE PUSH2 0x16D JUMPI PUSH1 0x60 CALLDATASIZE PUSH1 0x3 NOT ADD SLT PUSH2 0x16D JUMPI PUSH2 0xB74 PUSH2 0x1770 JUMP JUMPDEST PUSH2 0xB7C PUSH2 0x1786 JUMP JUMPDEST POP PUSH1 0x44 CALLDATALOAD DUP1 ISZERO ISZERO DUP2 SUB PUSH2 0x16D JUMPI PUSH1 0x0 SLOAD PUSH1 0x1 PUSH1 0x1 PUSH1 0xA0 SHL SUB AND CALLER EQ ISZERO DUP1 PUSH2 0xC67 JUMPI JUMPDEST PUSH2 0x2F9 JUMPI PUSH1 0x80 PUSH4 0xFFFFFFFF PUSH1 0x0 DUP1 MLOAD PUSH1 0x20 PUSH2 0x7CE6 DUP4 CODECOPY DUP2 MLOAD SWAP2 MSTORE SWAP3 PUSH2 0xC09 PUSH1 0x1 DUP1 PUSH1 0xA0 SHL SUB DUP7 AND SWAP6 DUP7 PUSH1 0x0 MSTORE PUSH1 0x2 PUSH1 0x20 MSTORE PUSH1 0x40 PUSH1 0x0 KECCAK256 SWAP3 DUP4 SLOAD SWAP1 DUP6 PUSH1 0xA0 SHL PUSH2 0xBEA DUP8 DUP5 PUSH1 0xA0 SHR AND PUSH2 0x1ACC JUMP JUMPDEST PUSH1 0xA0 SHL AND SWAP1 DUP2 DUP8 PUSH1 0xA0 SHL NOT DUP5 AND OR SWAP1 DUP2 DUP8 SSTORE PUSH2 0xC37 JUMPI JUMPDEST POP POP POP PUSH2 0x617A JUMP JUMPDEST SLOAD PUSH1 0xA0 SHR AND PUSH1 0x40 MLOAD SWAP1 PUSH1 0x40 DUP3 MSTORE PUSH1 0x9 PUSH1 0x40 DUP4 ADD MSTORE PUSH9 0x726566657272616C73 PUSH1 0xB8 SHL PUSH1 0x60 DUP4 ADD MSTORE PUSH1 0x20 DUP3 ADD MSTORE LOG2 STOP JUMPDEST PUSH2 0xC49 DUP8 DUP1 PUSH1 0xC0 SHL SWAP3 PUSH1 0xC0 SHR AND PUSH2 0x1ACC JUMP JUMPDEST PUSH1 0xC0 SHL AND SWAP2 PUSH1 0x1 PUSH1 0xA0 SHL PUSH1 0x1 PUSH1 0xE0 SHL SUB NOT AND OR OR DUP4 SSTORE DUP8 DUP1 DUP1 PUSH2 0xC01 JUMP JUMPDEST POP CALLER PUSH1 0x0 MSTORE PUSH1 0x4 PUSH1 0x20 MSTORE PUSH1 0xFF PUSH1 0x40 PUSH1 0x0 KECCAK256 SLOAD AND ISZERO PUSH2 0xB9E JUMP JUMPDEST CALLVALUE PUSH2 0x16D JUMPI PUSH1 0x20 CALLDATASIZE PUSH1 0x3 NOT ADD SLT PUSH2 0x16D JUMPI PUSH2 0xC99 PUSH2 0x1770 JUMP JUMPDEST PUSH1 0x0 SLOAD PUSH1 0x1 PUSH1 0x1 PUSH1 0xA0 SHL SUB AND CALLER EQ ISZERO DUP1 PUSH2 0xD30 JUMPI JUMPDEST PUSH2 0x2F9 JUMPI PUSH1 0x0 DUP1 MLOAD PUSH1 0x20 PUSH2 0x7CE6 DUP4 CODECOPY DUP2 MLOAD SWAP2 MSTORE PUSH1 0x80 PUSH4 0xFFFFFFFF PUSH1 0x1 DUP1 PUSH1 0xA0 SHL SUB DUP5 AND SWAP4 DUP5 PUSH1 0x0 MSTORE PUSH1 0x2 PUSH1 0x20 MSTORE PUSH2 0xD02 PUSH1 0x1 PUSH1 0x40 PUSH1 0x0 KECCAK256 ADD SWAP2 DUP4 PUSH2 0xCF4 DUP2 DUP6 SLOAD AND PUSH2 0x1ACC JUMP JUMPDEST AND DUP5 NOT DUP5 SLOAD AND OR DUP4 SSTORE PUSH2 0x617A JUMP JUMPDEST SLOAD AND PUSH1 0x40 MLOAD SWAP1 PUSH1 0x40 DUP3 MSTORE PUSH1 0xC PUSH1 0x40 DUP4 ADD MSTORE PUSH12 0x66726175645265706F727473 PUSH1 0xA0 SHL PUSH1 0x60 DUP4 ADD MSTORE PUSH1 0x20 DUP3 ADD MSTORE LOG2 STOP JUMPDEST POP CALLER PUSH1 0x0 MSTORE PUSH1 0x4 PUSH1 0x20 MSTORE PUSH1 0xFF PUSH1 0x40 PUSH1 0x0 KECCAK256 SLOAD AND ISZERO PUSH2 0xCAE JUMP JUMPDEST CALLVALUE PUSH2 0x16D JUMPI PUSH1 0x20 CALLDATASIZE PUSH1 0x3 NOT ADD SLT PUSH2 0x16D JUMPI PUSH2 0xD62 PUSH2 0x1770 JUMP JUMPDEST PUSH1 0x0 SLOAD PUSH1 0x1 PUSH1 0x1 PUSH1 0xA0 SHL SUB AND CALLER EQ ISZERO DUP1 PUSH2 0xDEA JUMPI JUMPDEST PUSH2 0x2F9 JUMPI PUSH1 0x1 DUP1 PUSH1 0xA0 SHL SUB DUP2 AND PUSH1 0x0 MSTORE PUSH1 0x2 PUSH1 0x20 MSTORE PUSH1 0x2 PUSH1 0x40 PUSH1 0x0 KECCAK256 ADD DUP1 SLOAD PUSH1 0xFF DUP2 AND ISZERO PUSH2 0xDA1 JUMPI STOP JUMPDEST PUSH1 0xFF NOT AND PUSH1 0x1 OR SWAP1 SSTORE PUSH1 0x0 SLOAD CALLER PUSH1 0x1 PUSH1 0x1 PUSH1 0xA0 SHL SUB SWAP2 SWAP1 SWAP2 AND EQ ISZERO DUP1 PUSH2 0xDD1 JUMPI JUMPDEST PUSH2 0x2F9 JUMPI PUSH2 0xDCF SWAP1 PUSH2 0x265C JUMP JUMPDEST STOP JUMPDEST POP CALLER PUSH1 0x0 MSTORE PUSH1 0x4 PUSH1 0x20 MSTORE PUSH1 0xFF PUSH1 0x40 PUSH1 0x0 KECCAK256 SLOAD AND ISZERO PUSH2 0xDC2 JUMP JUMPDEST POP CALLER PUSH1 0x0 MSTORE PUSH1 0x4 PUSH1 0x20 MSTORE PUSH1 0xFF PUSH1 0x40 PUSH1 0x0 KECCAK256 SLOAD AND ISZERO PUSH2 0xD77 JUMP JUMPDEST CALLVALUE PUSH2 0x16D JUMPI PUSH1 0x60 CALLDATASIZE PUSH1 0x3 NOT ADD SLT PUSH2 0x16D JUMPI PUSH2 0xE1C PUSH2 0x1770 JUMP JUMPDEST PUSH1 0x44 CALLDATALOAD SWAP1 PUSH1 0x1 PUSH1 0x1 PUSH1 0x40 SHL SUB DUP3 GT PUSH2 0x16D JUMPI CALLDATASIZE PUSH1 0x23 DUP4 ADD SLT ISZERO PUSH2 0x16D JUMPI PUSH1 0x4 DUP3 ADD CALLDATALOAD SWAP1 PUSH1 0x1 PUSH1 0x1 PUSH1 0x40 SHL SUB DUP3 GT PUSH2 0x16D JUMPI CALLDATASIZE PUSH1 0x24 DUP4 DUP6 ADD ADD GT PUSH2 0x16D JUMPI PUSH1 0x0 SLOAD PUSH1 0x1 PUSH1 0x1 PUSH1 0xA0 SHL SUB AND CALLER SUB PUSH2 0x220 JUMPI PUSH1 0x24 PUSH2 0xDCF SWAP4 ADD SWAP1 PUSH1 0x24 CALLDATALOAD SWAP1 PUSH2 0x5F5D JUMP JUMPDEST CALLVALUE PUSH2 0x16D JUMPI PUSH1 0x40 CALLDATASIZE PUSH1 0x3 NOT ADD SLT PUSH2 0x16D JUMPI PUSH2 0xE95 PUSH2 0x1770 JUMP JUMPDEST PUSH1 0x0 SLOAD PUSH1 0x1 PUSH1 0x1 PUSH1 0xA0 SHL SUB AND CALLER EQ ISZERO DUP1 PUSH2 0xEBB JUMPI JUMPDEST PUSH2 0x2F9 JUMPI PUSH2 0xDCF SWAP1 PUSH1 0x24 CALLDATALOAD SWAP1 PUSH2 0x5B6D JUMP JUMPDEST POP CALLER PUSH1 0x0 MSTORE PUSH1 0x4 PUSH1 0x20 MSTORE PUSH1 0xFF PUSH1 0x40 PUSH1 0x0 KECCAK256 SLOAD AND ISZERO PUSH2 0xEAA JUMP JUMPDEST CALLVALUE PUSH2 0x16D JUMPI PUSH1 0x40 CALLDATASIZE PUSH1 0x3 NOT ADD SLT PUSH2 0x16D JUMPI PUSH2 0xEED PUSH2 0x1770 JUMP JUMPDEST PUSH2 0xEF5 PUSH2 0x179C JUMP JUMPDEST PUSH1 0x0 SLOAD SWAP1 SWAP2 SWAP1 PUSH1 0x1 PUSH1 0x1 PUSH1 0xA0 SHL SUB AND CALLER SUB PUSH2 0x220 JUMPI PUSH1 0x1 PUSH1 0x1 PUSH1 0xA0 SHL SUB AND SWAP1 DUP2 ISZERO PUSH2 0x20F JUMPI PUSH1 0x20 PUSH32 0x1A594081AE893AB78E67D9B9E843547318164322D32C65369D78A96172D9DC8F SWAP2 DUP4 PUSH1 0x0 MSTORE PUSH1 0x4 DUP3 MSTORE PUSH1 0x40 PUSH1 0x0 KECCAK256 SWAP1 ISZERO ISZERO SWAP1 PUSH1 0xFF NOT DUP2 SLOAD AND PUSH1 0xFF DUP4 AND OR SWAP1 SSTORE PUSH1 0x40 MLOAD SWAP1 DUP2 MSTORE LOG2 STOP JUMPDEST CALLVALUE PUSH2 0x16D JUMPI PUSH1 0x20 CALLDATASIZE PUSH1 0x3 NOT ADD SLT PUSH2 0x16D JUMPI PUSH2 0xF7E PUSH2 0x1770 JUMP JUMPDEST PUSH1 0x0 SLOAD PUSH1 0x1 PUSH1 0x1 PUSH1 0xA0 SHL SUB AND CALLER EQ ISZERO DUP1 PUSH2 0xFA0 JUMPI JUMPDEST PUSH2 0x2F9 JUMPI PUSH2 0xDCF SWAP1 PUSH2 0x1C39 JUMP JUMPDEST POP CALLER PUSH1 0x0 MSTORE PUSH1 0x4 PUSH1 0x20 MSTORE PUSH1 0xFF PUSH1 0x40 PUSH1 0x0 KECCAK256 SLOAD AND ISZERO PUSH2 0xF93 JUMP JUMPDEST CALLVALUE PUSH2 0x16D JUMPI PUSH1 0x20 CALLDATASIZE PUSH1 0x3 NOT ADD SLT PUSH2 0x16D JUMPI PUSH2 0xFD2 PUSH2 0x1770 JUMP JUMPDEST PUSH1 0x40 MLOAD PUSH2 0xFDE DUP2 PUSH2 0x17AB JUMP JUMPDEST PUSH1 0x0 DUP2 MSTORE PUSH1 0x20 DUP2 ADD PUSH1 0x0 SWAP1 MSTORE PUSH1 0x40 DUP2 ADD PUSH1 0x0 SWAP1 MSTORE PUSH1 0x60 DUP2 ADD PUSH1 0x0 SWAP1 MSTORE PUSH1 0x80 DUP2 ADD PUSH1 0x0 SWAP1 MSTORE PUSH1 0xA0 DUP2 ADD PUSH1 0x0 SWAP1 MSTORE PUSH1 0xC0 DUP2 ADD PUSH1 0x0 SWAP1 MSTORE PUSH1 0xE0 DUP2 ADD PUSH1 0x0 SWAP1 MSTORE PUSH2 0x100 DUP2 ADD PUSH1 0x0 SWAP1 MSTORE PUSH2 0x120 DUP2 ADD PUSH1 0x0 SWAP1 MSTORE PUSH2 0x140 DUP2 ADD PUSH1 0x0 SWAP1 MSTORE PUSH2 0x160 DUP2 ADD PUSH1 0x0 SWAP1 MSTORE PUSH2 0x180 DUP2 ADD PUSH1 0x0 SWAP1 MSTORE PUSH2 0x1A0 DUP2 ADD PUSH1 0x0 SWAP1 MSTORE PUSH2 0x1C0 DUP2 ADD PUSH1 0x0 SWAP1 MSTORE PUSH2 0x1E0 ADD PUSH1 0x0 SWAP1 MSTORE PUSH1 0x1 PUSH1 0xA0 SHL PUSH1 0x1 SWAP1 SUB AND PUSH1 0x0 MSTORE PUSH1 0x2 PUSH1 0x20 MSTORE PUSH1 0x40 PUSH1 0x0 KECCAK256 PUSH1 0x40 MLOAD PUSH2 0x1084 DUP2 PUSH2 0x17AB JUMP JUMPDEST DUP2 SLOAD SWAP2 PUSH4 0xFFFFFFFF DUP4 AND DUP3 MSTORE PUSH1 0x20 DUP3 ADD DUP4 PUSH1 0x20 SHR PUSH4 0xFFFFFFFF AND DUP2 MSTORE PUSH1 0x40 DUP4 ADD DUP5 PUSH1 0x40 SHR PUSH4 0xFFFFFFFF AND DUP2 MSTORE PUSH1 0x60 DUP5 ADD DUP6 PUSH1 0x60 SHR PUSH4 0xFFFFFFFF AND DUP2 MSTORE PUSH1 0x80 DUP6 ADD SWAP2 DUP7 PUSH1 0x80 SHR PUSH4 0xFFFFFFFF AND DUP4 MSTORE PUSH1 0xA0 DUP7 ADD SWAP4 DUP8 PUSH1 0xA0 SHR PUSH4 0xFFFFFFFF AND DUP6 MSTORE PUSH1 0xC0 DUP8 ADD SWAP6 DUP9 PUSH1 0xC0 SHR PUSH4 0xFFFFFFFF AND DUP8 MSTORE DUP9 PUSH1 0xE0 SHR PUSH1 0xE0 DUP10 ADD MSTORE PUSH1 0x1 DUP2 ADD SLOAD PUSH4 0xFFFFFFFF DUP2 AND PUSH2 0x100 DUP11 ADD MSTORE DUP1 PUSH1 0x20 SHR PUSH4 0xFFFFFFFF AND PUSH2 0x120 DUP11 ADD MSTORE PUSH1 0x1 PUSH1 0x40 SHL PUSH1 0x1 SWAP1 SUB DUP2 PUSH1 0x40 SHR AND PUSH2 0x140 DUP11 ADD MSTORE PUSH1 0x1 PUSH1 0x40 SHL PUSH1 0x1 SWAP1 SUB DUP2 PUSH1 0x80 SHR AND PUSH2 0x160 DUP11 ADD MSTORE PUSH1 0xC0 SHR PUSH2 0x180 DUP10 ADD MSTORE PUSH1 0x2 ADD SLOAD PUSH1 0xFF DUP2 AND ISZERO ISZERO PUSH2 0x1A0 DUP10 ADD MSTORE DUP1 PUSH1 0x8 SHR PUSH1 0xFF AND ISZERO ISZERO PUSH2 0x1C0 DUP10 ADD MSTORE PUSH1 0x10 SHR PUSH1 0xFF AND ISZERO ISZERO PUSH2 0x1E0 DUP9 ADD MSTORE PUSH1 0x40 MLOAD SWAP8 PUSH4 0xFFFFFFFF AND DUP9 MSTORE MLOAD PUSH4 0xFFFFFFFF AND PUSH1 0x20 DUP9 ADD MSTORE MLOAD PUSH4 0xFFFFFFFF AND PUSH1 0x40 DUP8 ADD MSTORE MLOAD PUSH4 0xFFFFFFFF AND PUSH1 0x60 DUP7 ADD MSTORE MLOAD PUSH4 0xFFFFFFFF AND PUSH1 0x80 DUP6 ADD MSTORE MLOAD PUSH4 0xFFFFFFFF AND PUSH1 0xA0 DUP5 ADD MSTORE MLOAD PUSH4 0xFFFFFFFF AND PUSH1 0xC0 DUP4 ADD MSTORE PUSH1 0xE0 DUP2 ADD MLOAD PUSH4 0xFFFFFFFF AND PUSH1 0xE0 DUP4 ADD MSTORE PUSH2 0x100 DUP2 ADD MLOAD PUSH4 0xFFFFFFFF AND PUSH2 0x100 DUP4 ADD MSTORE PUSH2 0x120 DUP2 ADD MLOAD PUSH4 0xFFFFFFFF AND PUSH2 0x120 DUP4 ADD MSTORE PUSH1 0x1 PUSH1 0x40 SHL PUSH1 0x1 SWAP1 SUB PUSH2 0x140 DUP3 ADD MLOAD AND PUSH2 0x140 DUP4 ADD MSTORE PUSH1 0x1 PUSH1 0x40 SHL PUSH1 0x1 SWAP1 SUB PUSH2 0x160 DUP3 ADD MLOAD AND PUSH2 0x160 DUP4 ADD MSTORE PUSH1 0x1 PUSH1 0x40 SHL PUSH1 0x1 SWAP1 SUB PUSH2 0x180 DUP3 ADD MLOAD AND PUSH2 0x180 DUP4 ADD MSTORE PUSH2 0x1A0 DUP2 ADD MLOAD ISZERO ISZERO PUSH2 0x1A0 DUP4 ADD MSTORE PUSH2 0x1C0 DUP2 ADD MLOAD ISZERO ISZERO PUSH2 0x1C0 DUP4 ADD MSTORE PUSH2 0x1E0 ADD MLOAD ISZERO ISZERO PUSH2 0x1E0 DUP3 ADD MSTORE PUSH2 0x200 SWAP1 RETURN JUMPDEST CALLVALUE PUSH2 0x16D JUMPI PUSH1 0x20 CALLDATASIZE PUSH1 0x3 NOT ADD SLT PUSH2 0x16D JUMPI PUSH2 0x128E PUSH2 0x1770 JUMP JUMPDEST PUSH1 0x0 SLOAD PUSH1 0x1 PUSH1 0x1 PUSH1 0xA0 SHL SUB AND CALLER EQ ISZERO DUP1 PUSH2 0x12B0 JUMPI JUMPDEST PUSH2 0x2F9 JUMPI PUSH2 0xDCF SWAP1 PUSH2 0x1B39 JUMP JUMPDEST POP CALLER PUSH1 0x0 MSTORE PUSH1 0x4 PUSH1 0x20 MSTORE PUSH1 0xFF PUSH1 0x40 PUSH1 0x0 KECCAK256 SLOAD AND ISZERO PUSH2 0x12A3 JUMP JUMPDEST CALLVALUE PUSH2 0x16D JUMPI PUSH1 0x20 CALLDATASIZE PUSH1 0x3 NOT ADD SLT PUSH2 0x16D JUMPI PUSH2 0x12E2 PUSH2 0x1770 JUMP JUMPDEST PUSH1 0x0 SLOAD PUSH1 0x1 PUSH1 0x1 PUSH1 0xA0 SHL SUB AND CALLER SUB PUSH2 0x220 JUMPI PUSH1 0x1 DUP1 PUSH1 0xA0 SHL SUB DUP2 AND PUSH1 0x0 MSTORE PUSH1 0x2 PUSH1 0x20 MSTORE PUSH1 0x2 PUSH1 0x40 PUSH1 0x0 KECCAK256 ADD DUP1 SLOAD PUSH1 0xFF DUP2 PUSH1 0x10 SHR AND ISZERO PUSH2 0x131D JUMPI STOP JUMPDEST PUSH3 0xFF0000 NOT AND PUSH3 0x10000 OR SWAP1 SSTORE PUSH1 0x0 SLOAD CALLER PUSH1 0x1 PUSH1 0x1 PUSH1 0xA0 SHL SUB SWAP2 SWAP1 SWAP2 AND EQ ISZERO DUP1 PUSH2 0x134F JUMPI JUMPDEST PUSH2 0x2F9 JUMPI PUSH2 0xDCF SWAP1 PUSH2 0x2247 JUMP JUMPDEST POP CALLER PUSH1 0x0 MSTORE PUSH1 0x4 PUSH1 0x20 MSTORE PUSH1 0xFF PUSH1 0x40 PUSH1 0x0 KECCAK256 SLOAD AND ISZERO PUSH2 0x1342 JUMP JUMPDEST CALLVALUE PUSH2 0x16D JUMPI PUSH1 0x0 CALLDATASIZE PUSH1 0x3 NOT ADD SLT PUSH2 0x16D JUMPI PUSH1 0x0 SLOAD PUSH1 0x40 MLOAD PUSH1 0x1 PUSH1 0x1 PUSH1 0xA0 SHL SUB SWAP1 SWAP2 AND DUP2 MSTORE PUSH1 0x20 SWAP1 RETURN JUMPDEST CALLVALUE PUSH2 0x16D JUMPI PUSH1 0x40 CALLDATASIZE PUSH1 0x3 NOT ADD SLT PUSH2 0x16D JUMPI PUSH2 0x13AA PUSH2 0x1770 JUMP JUMPDEST PUSH2 0x13B2 PUSH2 0x179C JUMP JUMPDEST PUSH1 0x0 SLOAD PUSH1 0x1 PUSH1 0x1 PUSH1 0xA0 SHL SUB AND CALLER EQ ISZERO DUP1 PUSH2 0x1475 JUMPI JUMPDEST PUSH2 0x2F9 JUMPI PUSH1 0x80 PUSH4 0xFFFFFFFF PUSH1 0x0 DUP1 MLOAD PUSH1 0x20 PUSH2 0x7CE6 DUP4 CODECOPY DUP2 MLOAD SWAP2 MSTORE SWAP3 PUSH2 0x1422 PUSH1 0x1 DUP1 PUSH1 0xA0 SHL SUB DUP7 AND SWAP6 DUP7 PUSH1 0x0 MSTORE PUSH1 0x2 PUSH1 0x20 MSTORE PUSH1 0x40 PUSH1 0x0 KECCAK256 SWAP3 DUP5 PUSH2 0x140B DUP2 DUP7 SLOAD AND PUSH2 0x1ACC JUMP JUMPDEST AND DUP6 NOT DUP6 SLOAD AND OR DUP5 SSTORE PUSH2 0x144E JUMPI JUMPDEST PUSH2 0x2C0 DUP2 PUSH2 0x64AC JUMP JUMPDEST SLOAD AND PUSH1 0x40 MLOAD SWAP1 PUSH1 0x40 DUP3 MSTORE PUSH1 0xA PUSH1 0x40 DUP4 ADD MSTORE PUSH10 0xC6DEDADACAE4C6CAA8F PUSH1 0xB3 SHL PUSH1 0x60 DUP4 ADD MSTORE PUSH1 0x20 DUP3 ADD MSTORE LOG2 STOP JUMPDEST DUP3 SLOAD DUP5 PUSH1 0x60 SHL PUSH2 0x1462 DUP7 DUP4 PUSH1 0x60 SHR AND PUSH2 0x1ACC JUMP JUMPDEST PUSH1 0x60 SHL AND SWAP1 DUP6 PUSH1 0x60 SHL NOT AND OR DUP4 SSTORE PUSH2 0x1419 JUMP JUMPDEST POP CALLER PUSH1 0x0 MSTORE PUSH1 0x4 PUSH1 0x20 MSTORE PUSH1 0xFF PUSH1 0x40 PUSH1 0x0 KECCAK256 SLOAD AND ISZERO PUSH2 0x13C7 JUMP JUMPDEST CALLVALUE PUSH2 0x16D JUMPI PUSH1 0x0 CALLDATASIZE PUSH1 0x3 NOT ADD SLT PUSH2 0x16D JUMPI PUSH1 0x1 SLOAD PUSH1 0x40 MLOAD PUSH1 0x1 PUSH1 0x1 PUSH1 0xA0 SHL SUB SWAP1 SWAP2 AND DUP2 MSTORE PUSH1 0x20 SWAP1 RETURN JUMPDEST CALLVALUE PUSH2 0x16D JUMPI PUSH1 0x20 CALLDATASIZE PUSH1 0x3 NOT ADD SLT PUSH2 0x16D JUMPI PUSH2 0x14D0 PUSH2 0x1770 JUMP JUMPDEST PUSH1 0x0 SLOAD PUSH1 0x1 PUSH1 0x1 PUSH1 0xA0 SHL SUB AND CALLER EQ ISZERO DUP1 PUSH2 0x1564 JUMPI JUMPDEST PUSH2 0x2F9 JUMPI PUSH1 0x0 DUP1 MLOAD PUSH1 0x20 PUSH2 0x7CE6 DUP4 CODECOPY DUP2 MLOAD SWAP2 MSTORE PUSH1 0x80 PUSH4 0xFFFFFFFF PUSH1 0x1 DUP1 PUSH1 0xA0 SHL SUB DUP5 AND SWAP4 DUP5 PUSH1 0x0 MSTORE PUSH1 0x2 PUSH1 0x20 MSTORE PUSH2 0x1536 PUSH1 0x1 PUSH1 0x40 PUSH1 0x0 KECCAK256 ADD SWAP2 PUSH2 0x2C0 PUSH2 0x1530 DUP6 DUP6 SLOAD PUSH1 0x20 SHR AND PUSH2 0x1ACC JUMP JUMPDEST DUP5 PUSH2 0x1AE3 JUMP JUMPDEST SLOAD PUSH1 0x20 SHR AND PUSH1 0x40 MLOAD SWAP1 PUSH1 0x40 DUP3 MSTORE PUSH1 0x9 PUSH1 0x40 DUP4 ADD MSTORE PUSH9 0x32B23AB1B0BA34B7B7 PUSH1 0xB9 SHL PUSH1 0x60 DUP4 ADD MSTORE PUSH1 0x20 DUP3 ADD MSTORE LOG2 STOP JUMPDEST POP CALLER PUSH1 0x0 MSTORE PUSH1 0x4 PUSH1 0x20 MSTORE PUSH1 0xFF PUSH1 0x40 PUSH1 0x0 KECCAK256 SLOAD AND ISZERO PUSH2 0x14E5 JUMP JUMPDEST CALLVALUE PUSH2 0x16D JUMPI PUSH1 0x20 CALLDATASIZE PUSH1 0x3 NOT ADD SLT PUSH2 0x16D JUMPI PUSH2 0x1596 PUSH2 0x1770 JUMP JUMPDEST PUSH1 0x0 SLOAD PUSH1 0x1 PUSH1 0x1 PUSH1 0xA0 SHL SUB AND CALLER EQ ISZERO DUP1 PUSH2 0x1634 JUMPI JUMPDEST PUSH2 0x2F9 JUMPI PUSH1 0x0 DUP1 MLOAD PUSH1 0x20 PUSH2 0x7CE6 DUP4 CODECOPY DUP2 MLOAD SWAP2 MSTORE PUSH1 0x80 PUSH4 0xFFFFFFFF PUSH1 0x1 DUP1 PUSH1 0xA0 SHL SUB DUP5 AND SWAP4 DUP5 PUSH1 0x0 MSTORE PUSH1 0x2 PUSH1 0x20 MSTORE PUSH2 0x1604 PUSH1 0x40 PUSH1 0x0 KECCAK256 SWAP2 DUP3 SLOAD DUP5 DUP7 SHL PUSH2 0x15F3 DUP7 DUP4 DUP10 SHR AND PUSH2 0x1ACC JUMP JUMPDEST DUP8 SHL AND SWAP1 DUP6 DUP8 SHL NOT AND OR DUP4 SSTORE PUSH2 0x617A JUMP JUMPDEST SLOAD DUP3 SHR AND PUSH1 0x40 MLOAD SWAP1 PUSH1 0x40 DUP3 MSTORE PUSH1 0xC PUSH1 0x40 DUP4 ADD MSTORE PUSH12 0x656E646F7273656D656E7473 PUSH1 0xA0 SHL PUSH1 0x60 DUP4 ADD MSTORE PUSH1 0x20 DUP3 ADD MSTORE LOG2 STOP JUMPDEST POP CALLER PUSH1 0x0 MSTORE PUSH1 0x4 PUSH1 0x20 MSTORE PUSH1 0xFF PUSH1 0x40 PUSH1 0x0 KECCAK256 SLOAD AND ISZERO PUSH2 0x15AB JUMP JUMPDEST CALLVALUE PUSH2 0x16D JUMPI PUSH1 0x20 CALLDATASIZE PUSH1 0x3 NOT ADD SLT PUSH2 0x16D JUMPI PUSH1 0x1 PUSH1 0x1 PUSH1 0xA0 SHL SUB PUSH2 0x166E PUSH2 0x1770 JUMP JUMPDEST AND PUSH1 0x0 MSTORE PUSH1 0x4 PUSH1 0x20 MSTORE PUSH1 0x20 PUSH1 0xFF PUSH1 0x40 PUSH1 0x0 KECCAK256 SLOAD AND PUSH1 0x40 MLOAD SWAP1 ISZERO ISZERO DUP2 MSTORE RETURN JUMPDEST CALLVALUE PUSH2 0x16D JUMPI PUSH1 0x40 CALLDATASIZE PUSH1 0x3 NOT ADD SLT PUSH2 0x16D JUMPI PUSH1 0x60 PUSH4 0xFFFFFFFF PUSH1 0xFF PUSH2 0x16BA PUSH2 0x16B1 PUSH2 0x1770 JUMP JUMPDEST PUSH1 0x24 CALLDATALOAD SWAP1 PUSH2 0x1800 JUMP JUMPDEST SWAP2 SWAP4 SWAP1 DUP2 PUSH1 0x40 MLOAD SWAP6 AND DUP6 MSTORE AND PUSH1 0x20 DUP5 ADD MSTORE AND PUSH1 0x40 DUP3 ADD MSTORE RETURN JUMPDEST CALLVALUE PUSH2 0x16D JUMPI PUSH1 0x20 CALLDATASIZE PUSH1 0x3 NOT ADD SLT PUSH2 0x16D JUMPI PUSH2 0x16EC PUSH2 0x1770 JUMP JUMPDEST PUSH1 0x0 SLOAD PUSH1 0x1 PUSH1 0x1 PUSH1 0xA0 SHL SUB AND CALLER SUB PUSH2 0x220 JUMPI PUSH1 0x1 DUP1 PUSH1 0xA0 SHL SUB DUP2 AND PUSH1 0x0 MSTORE PUSH1 0x2 PUSH1 0x20 MSTORE PUSH1 0x2 PUSH1 0x40 PUSH1 0x0 KECCAK256 ADD DUP1 SLOAD PUSH1 0xFF DUP2 PUSH1 0x8 SHR AND ISZERO PUSH2 0x1727 JUMPI STOP JUMPDEST PUSH2 0xFF00 NOT AND PUSH2 0x100 OR SWAP1 SSTORE PUSH1 0x0 SLOAD CALLER PUSH1 0x1 PUSH1 0x1 PUSH1 0xA0 SHL SUB SWAP2 SWAP1 SWAP2 AND EQ ISZERO DUP1 PUSH2 0x1757 JUMPI JUMPDEST PUSH2 0x2F9 JUMPI PUSH2 0xDCF SWAP1 PUSH2 0x1DEB JUMP JUMPDEST POP CALLER PUSH1 0x0 MSTORE PUSH1 0x4 PUSH1 0x20 MSTORE PUSH1 0xFF PUSH1 0x40 PUSH1 0x0 KECCAK256 SLOAD AND ISZERO PUSH2 0x174A JUMP JUMPDEST PUSH1 0x4 CALLDATALOAD SWAP1 PUSH1 0x1 PUSH1 0x1 PUSH1 0xA0 SHL SUB DUP3 AND DUP3 SUB PUSH2 0x16D JUMPI JUMP JUMPDEST PUSH1 0x24 CALLDATALOAD SWAP1 PUSH1 0x1 PUSH1 0x1 PUSH1 0xA0 SHL SUB DUP3 AND DUP3 SUB PUSH2 0x16D JUMPI JUMP JUMPDEST PUSH1 0x24 CALLDATALOAD SWAP1 DUP2 ISZERO ISZERO DUP3 SUB PUSH2 0x16D JUMPI JUMP JUMPDEST PUSH2 0x200 DUP2 ADD SWAP1 DUP2 LT PUSH1 0x1 PUSH1 0x1 PUSH1 0x40 SHL SUB DUP3 GT OR PUSH2 0x17C7 JUMPI PUSH1 0x40 MSTORE JUMP JUMPDEST PUSH4 0x4E487B71 PUSH1 0xE0 SHL PUSH1 0x0 MSTORE PUSH1 0x41 PUSH1 0x4 MSTORE PUSH1 0x24 PUSH1 0x0 REVERT JUMPDEST PUSH1 0x1F SWAP1 SWAP2 ADD PUSH1 0x1F NOT AND DUP2 ADD SWAP1 PUSH1 0x1 PUSH1 0x1 PUSH1 0x40 SHL SUB DUP3 GT SWAP1 DUP3 LT OR PUSH2 0x17C7 JUMPI PUSH1 0x40 MSTORE JUMP JUMPDEST SWAP2 SWAP1 SWAP2 PUSH1 0x1 DUP1 PUSH1 0xA0 SHL SUB AND PUSH1 0x0 MSTORE PUSH1 0x2 PUSH1 0x20 MSTORE PUSH1 0x40 PUSH1 0x0 KECCAK256 PUSH1 0x40 MLOAD SWAP1 PUSH2 0x1825 DUP3 PUSH2 0x17AB JUMP JUMPDEST DUP1 SLOAD SWAP4 PUSH4 0xFFFFFFFF DUP6 AND SWAP5 DUP6 DUP5 MSTORE PUSH4 0xFFFFFFFF DUP2 PUSH1 0x20 SHR AND SWAP3 DUP4 PUSH1 0x20 DUP7 ADD MSTORE PUSH4 0xFFFFFFFF DUP3 PUSH1 0x40 SHR AND SWAP5 DUP6 PUSH1 0x40 DUP3 ADD MSTORE PUSH4 0xFFFFFFFF DUP4 PUSH1 0x60 SHR AND SWAP4 DUP5 PUSH1 0x60 DUP4 ADD MSTORE PUSH4 0xFFFFFFFF DUP5 PUSH1 0x80 SHR AND PUSH1 0x80 DUP4 ADD MSTORE PUSH4 0xFFFFFFFF DUP5 PUSH1 0xA0 SHR AND PUSH1 0xA0 DUP4 ADD MSTORE PUSH4 0xFFFFFFFF DUP5 PUSH1 0xC0 SHR AND SWAP4 DUP5 PUSH1 0xC0 DUP5 ADD MSTORE PUSH1 0xE0 SHR PUSH1 0xE0 DUP4 ADD MSTORE PUSH1 0x1 DUP4 ADD SLOAD SWAP2 PUSH2 0x1E0 PUSH1 0xFF PUSH1 0x2 PUSH4 0xFFFFFFFF DUP7 AND SWAP7 DUP8 PUSH2 0x100 DUP7 ADD MSTORE PUSH4 0xFFFFFFFF DUP8 PUSH1 0x20 SHR AND SWAP7 DUP8 PUSH2 0x120 DUP8 ADD MSTORE PUSH1 0x1 DUP1 PUSH1 0x40 SHL SUB DUP2 PUSH1 0x40 SHR AND PUSH2 0x140 DUP8 ADD MSTORE PUSH1 0x1 DUP1 PUSH1 0x40 SHL SUB DUP2 PUSH1 0x80 SHR AND PUSH2 0x160 DUP8 ADD MSTORE PUSH1 0xC0 SHR PUSH2 0x180 DUP7 ADD MSTORE ADD SLOAD DUP2 DUP2 AND ISZERO ISZERO PUSH2 0x1A0 DUP6 ADD MSTORE DUP2 DUP2 PUSH1 0x8 SHR AND ISZERO ISZERO PUSH2 0x1C0 DUP6 ADD MSTORE PUSH1 0x10 SHR AND ISZERO ISZERO SWAP2 ADD MSTORE PUSH1 0x0 DUP1 MLOAD PUSH1 0x20 PUSH2 0x7CA6 DUP4 CODECOPY DUP2 MLOAD SWAP2 MSTORE DUP2 EQ PUSH1 0x0 EQ PUSH2 0x19AC JUMPI POP POP POP POP POP POP POP PUSH1 0x32 SWAP2 SWAP1 JUMPDEST PUSH4 0xFFFFFFFF DUP3 DUP2 AND SWAP1 DUP5 AND DUP1 DUP3 LT PUSH2 0x195C JUMPI POP POP PUSH1 0x64 SWAP2 SWAP3 SWAP2 SWAP1 JUMP JUMPDEST PUSH1 0x64 DUP3 MUL SWAP2 DUP1 DUP4 DIV PUSH1 0x64 EQ SWAP1 ISZERO OR ISZERO PUSH2 0x1996 JUMPI DUP1 ISZERO PUSH2 0x1980 JUMPI PUSH1 0xFF SWAP2 DIV AND SWAP2 SWAP3 SWAP2 SWAP1 JUMP JUMPDEST PUSH4 0x4E487B71 PUSH1 0xE0 SHL PUSH1 0x0 MSTORE PUSH1 0x12 PUSH1 0x4 MSTORE PUSH1 0x24 PUSH1 0x0 REVERT JUMPDEST PUSH4 0x4E487B71 PUSH1 0xE0 SHL PUSH1 0x0 MSTORE PUSH1 0x11 PUSH1 0x4 MSTORE PUSH1 0x24 PUSH1 0x0 REVERT JUMPDEST SWAP1 SWAP2 SWAP3 SWAP4 SWAP5 SWAP6 SWAP8 POP PUSH1 0x0 DUP1 MLOAD PUSH1 0x20 PUSH2 0x7D86 DUP4 CODECOPY DUP2 MLOAD SWAP2 MSTORE DUP2 EQ PUSH1 0x0 EQ PUSH2 0x19DB JUMPI POP POP POP POP POP POP PUSH1 0xA SWAP2 SWAP1 PUSH2 0x1940 JUMP JUMPDEST SWAP1 SWAP2 SWAP3 SWAP4 SWAP5 SWAP7 POP PUSH1 0x0 DUP1 MLOAD PUSH1 0x20 PUSH2 0x7E26 DUP4 CODECOPY DUP2 MLOAD SWAP2 MSTORE DUP2 EQ PUSH1 0x0 EQ PUSH2 0x1A08 JUMPI POP POP POP POP POP PUSH1 0x1E SWAP2 SWAP1 PUSH2 0x1940 JUMP JUMPDEST SWAP1 SWAP2 SWAP3 SWAP4 SWAP6 POP PUSH1 0x0 DUP1 MLOAD PUSH1 0x20 PUSH2 0x7DE6 DUP4 CODECOPY DUP2 MLOAD SWAP2 MSTORE DUP2 EQ PUSH1 0x0 EQ PUSH2 0x1A33 JUMPI POP POP POP POP PUSH1 0x64 SWAP2 SWAP1 PUSH2 0x1940 JUMP JUMPDEST SWAP3 SWAP5 POP SWAP1 SWAP2 PUSH1 0x0 DUP1 MLOAD PUSH1 0x20 PUSH2 0x7DC6 DUP4 CODECOPY DUP2 MLOAD SWAP2 MSTORE DUP2 SUB PUSH2 0x1A59 JUMPI POP POP POP PUSH1 0xA SWAP2 SWAP1 PUSH2 0x1940 JUMP JUMPDEST SWAP2 SWAP4 SWAP1 SWAP2 PUSH1 0x0 DUP1 MLOAD PUSH1 0x20 PUSH2 0x7E06 DUP4 CODECOPY DUP2 MLOAD SWAP2 MSTORE DUP2 SUB PUSH2 0x1A7E JUMPI POP POP POP PUSH1 0x3 SWAP2 SWAP1 PUSH2 0x1940 JUMP JUMPDEST SWAP2 SWAP4 POP SWAP1 PUSH1 0x0 DUP1 MLOAD PUSH1 0x20 PUSH2 0x7D26 DUP4 CODECOPY DUP2 MLOAD SWAP2 MSTORE DUP2 SUB PUSH2 0x1AA2 JUMPI POP POP PUSH1 0x5 SWAP2 SWAP1 PUSH2 0x1940 JUMP JUMPDEST SWAP1 SWAP3 POP PUSH1 0x0 DUP1 MLOAD PUSH1 0x20 PUSH2 0x7E66 DUP4 CODECOPY DUP2 MLOAD SWAP2 MSTORE SUB PUSH2 0x1AC2 JUMPI PUSH1 0x5 SWAP2 SWAP1 PUSH2 0x1940 JUMP JUMPDEST PUSH1 0x0 SWAP2 POP DUP2 SWAP1 DUP2 SWAP1 JUMP JUMPDEST PUSH4 0xFFFFFFFF AND PUSH4 0xFFFFFFFF DUP2 EQ PUSH2 0x1996 JUMPI PUSH1 0x1 ADD SWAP1 JUMP JUMPDEST DUP1 SLOAD PUSH4 0xFFFFFFFF PUSH1 0x20 SHL NOT AND PUSH1 0x20 SWAP3 SWAP1 SWAP3 SHL PUSH4 0xFFFFFFFF PUSH1 0x20 SHL AND SWAP2 SWAP1 SWAP2 OR SWAP1 SSTORE JUMP JUMPDEST SWAP1 DUP2 PUSH1 0x20 SWAP2 SUB SLT PUSH2 0x16D JUMPI MLOAD DUP1 ISZERO ISZERO DUP2 SUB PUSH2 0x16D JUMPI SWAP1 JUMP JUMPDEST PUSH1 0x1 PUSH1 0x1 PUSH1 0xA0 SHL SUB SWAP1 SWAP2 AND DUP2 MSTORE PUSH1 0x20 DUP2 ADD SWAP2 SWAP1 SWAP2 MSTORE PUSH1 0x40 ADD SWAP1 JUMP JUMPDEST PUSH1 0x5 SLOAD PUSH4 0xFFFFFFFF DUP2 AND PUSH2 0x2710 DUP2 LT ISZERO PUSH2 0x1BFB JUMPI PUSH1 0x1 SLOAD PUSH1 0x40 MLOAD PUSH4 0xE05E5D5 PUSH1 0xE2 SHL DUP2 MSTORE PUSH1 0x1 PUSH1 0x1 PUSH1 0xA0 SHL SUB DUP6 DUP2 AND PUSH1 0x4 DUP4 ADD MSTORE PUSH1 0x0 DUP1 MLOAD PUSH1 0x20 PUSH2 0x7EC6 DUP4 CODECOPY DUP2 MLOAD SWAP2 MSTORE PUSH1 0x24 DUP4 ADD MSTORE SWAP1 SWAP2 PUSH1 0x20 SWAP2 DUP4 SWAP2 PUSH1 0x44 SWAP2 DUP4 SWAP2 AND GAS STATICCALL SWAP1 DUP2 ISZERO PUSH2 0x8DD JUMPI PUSH1 0x0 SWAP2 PUSH2 0x1C00 JUMPI JUMPDEST POP PUSH2 0x1BFB JUMPI PUSH2 0x1BB2 PUSH4 0xFFFFFFFF SWAP2 PUSH2 0x1ACC JUMP JUMPDEST AND SWAP1 PUSH4 0xFFFFFFFF NOT AND OR PUSH1 0x5 SSTORE PUSH1 0x1 DUP1 PUSH1 0xA0 SHL SUB PUSH1 0x0 SLOAD AND CALLER EQ ISZERO DUP1 PUSH2 0x1BE2 JUMPI JUMPDEST PUSH2 0x2F9 JUMPI PUSH2 0x1BE0 SWAP1 PUSH2 0x2A71 JUMP JUMPDEST JUMP JUMPDEST POP CALLER PUSH1 0x0 MSTORE PUSH1 0x4 PUSH1 0x20 MSTORE PUSH1 0xFF PUSH1 0x40 PUSH1 0x0 KECCAK256 SLOAD AND ISZERO PUSH2 0x1BD3 JUMP JUMPDEST POP POP POP JUMP JUMPDEST PUSH2 0x1C19 SWAP2 POP PUSH1 0x20 RETURNDATASIZE PUSH1 0x20 GT PUSH2 0x8D6 JUMPI PUSH2 0x8C8 DUP2 DUP4 PUSH2 0x17DD JUMP JUMPDEST CODESIZE PUSH2 0x1B9F JUMP JUMPDEST SWAP1 DUP2 PUSH1 0x20 SWAP2 SUB SLT PUSH2 0x16D JUMPI MLOAD PUSH2 0xFFFF DUP2 AND DUP2 SUB PUSH2 0x16D JUMPI SWAP1 JUMP JUMPDEST PUSH1 0x5 SLOAD PUSH4 0xFFFFFFFF DUP2 PUSH1 0x20 SHR AND PUSH2 0x3E8 DUP2 LT ISZERO PUSH2 0x1BFB JUMPI PUSH1 0x1 SLOAD PUSH1 0x40 MLOAD PUSH4 0xE05E5D5 PUSH1 0xE2 SHL DUP2 MSTORE PUSH1 0x1 PUSH1 0x1 PUSH1 0xA0 SHL SUB DUP6 DUP2 AND PUSH1 0x4 DUP4 ADD DUP2 SWAP1 MSTORE PUSH1 0x0 DUP1 MLOAD PUSH1 0x20 PUSH2 0x7C86 DUP4 CODECOPY DUP2 MLOAD SWAP2 MSTORE PUSH1 0x24 DUP5 ADD MSTORE SWAP3 AND SWAP2 SWAP1 PUSH1 0x20 DUP2 PUSH1 0x44 DUP2 DUP7 GAS STATICCALL SWAP1 DUP2 ISZERO PUSH2 0x8DD JUMPI PUSH1 0x0 SWAP2 PUSH2 0x1D77 JUMPI JUMPDEST POP PUSH2 0x1D70 JUMPI PUSH1 0x20 SWAP1 PUSH1 0x24 PUSH1 0x40 MLOAD DUP1 SWAP5 DUP2 SWAP4 PUSH4 0xD47875D PUSH1 0xE4 SHL DUP4 MSTORE PUSH1 0x4 DUP4 ADD MSTORE GAS STATICCALL SWAP1 DUP2 ISZERO PUSH2 0x8DD JUMPI PUSH2 0x1F40 SWAP2 PUSH2 0xFFFF SWAP2 PUSH1 0x0 SWAP2 PUSH2 0x1D41 JUMPI JUMPDEST POP AND LT PUSH2 0x1BFB JUMPI PUSH4 0xFFFFFFFF PUSH1 0x20 SHL SWAP1 PUSH2 0x1CF4 SWAP1 PUSH2 0x1ACC JUMP JUMPDEST PUSH1 0x20 SHL AND SWAP1 PUSH4 0xFFFFFFFF PUSH1 0x20 SHL NOT AND OR PUSH1 0x5 SSTORE PUSH1 0x1 DUP1 PUSH1 0xA0 SHL SUB PUSH1 0x0 SLOAD AND CALLER EQ ISZERO DUP1 PUSH2 0x1D28 JUMPI JUMPDEST PUSH2 0x2F9 JUMPI PUSH2 0x1BE0 SWAP1 PUSH2 0x2E86 JUMP JUMPDEST POP CALLER PUSH1 0x0 MSTORE PUSH1 0x4 PUSH1 0x20 MSTORE PUSH1 0xFF PUSH1 0x40 PUSH1 0x0 KECCAK256 SLOAD AND ISZERO PUSH2 0x1D1B JUMP JUMPDEST PUSH2 0x1D63 SWAP2 POP PUSH1 0x20 RETURNDATASIZE PUSH1 0x20 GT PUSH2 0x1D69 JUMPI JUMPDEST PUSH2 0x1D5B DUP2 DUP4 PUSH2 0x17DD JUMP JUMPDEST DUP2 ADD SWAP1 PUSH2 0x1C1F JUMP JUMPDEST CODESIZE PUSH2 0x1CDB JUMP JUMPDEST POP RETURNDATASIZE PUSH2 0x1D51 JUMP JUMPDEST POP POP POP POP POP JUMP JUMPDEST PUSH2 0x1D90 SWAP2 POP PUSH1 0x20 RETURNDATASIZE PUSH1 0x20 GT PUSH2 0x8D6 JUMPI PUSH2 0x8C8 DUP2 DUP4 PUSH2 0x17DD JUMP JUMPDEST CODESIZE PUSH2 0x1CA2 JUMP JUMPDEST SWAP2 SWAP1 DUP3 ADD DUP1 SWAP3 GT PUSH2 0x1996 JUMPI JUMP JUMPDEST PUSH1 0x60 SWAP2 SWAP5 SWAP4 SWAP3 PUSH1 0x80 DUP3 ADD SWAP6 PUSH1 0x1 DUP1 PUSH1 0xA0 SHL SUB AND DUP3 MSTORE PUSH1 0x20 DUP3 ADD MSTORE PUSH1 0x1 PUSH1 0x40 DUP3 ADD MSTORE ADD MSTORE JUMP JUMPDEST PUSH1 0x0 JUMPDEST DUP4 DUP2 LT PUSH2 0x1DDB JUMPI POP POP PUSH1 0x0 SWAP2 ADD MSTORE JUMP JUMPDEST DUP2 DUP2 ADD MLOAD DUP4 DUP3 ADD MSTORE PUSH1 0x20 ADD PUSH2 0x1DCB JUMP JUMPDEST PUSH1 0x1 SLOAD PUSH1 0x40 MLOAD PUSH4 0xE05E5D5 PUSH1 0xE2 SHL DUP2 MSTORE PUSH1 0x1 PUSH1 0x1 PUSH1 0xA0 SHL SUB DUP1 DUP5 AND PUSH1 0x4 DUP4 ADD DUP2 SWAP1 MSTORE PUSH1 0x0 DUP1 MLOAD PUSH1 0x20 PUSH2 0x7D06 DUP4 CODECOPY DUP2 MLOAD SWAP2 MSTORE PUSH1 0x24 DUP5 ADD MSTORE SWAP4 PUSH1 0x0 SWAP4 SWAP1 SWAP3 SWAP2 PUSH1 0x20 SWAP2 DUP4 SWAP2 PUSH1 0x44 SWAP2 DUP4 SWAP2 AND GAS STATICCALL SWAP1 DUP2 ISZERO PUSH2 0x21E3 JUMPI DUP4 SWAP2 PUSH2 0x2228 JUMPI JUMPDEST POP PUSH2 0x220D JUMPI POP PUSH1 0x40 MLOAD PUSH4 0x157E6AD1 PUSH1 0xE2 SHL DUP2 MSTORE PUSH1 0x0 DUP1 MLOAD PUSH1 0x20 PUSH2 0x7D06 DUP4 CODECOPY DUP2 MLOAD SWAP2 MSTORE PUSH1 0x4 DUP3 ADD MSTORE PUSH20 0x0 SWAP1 DUP3 SWAP1 PUSH1 0x20 DUP2 PUSH1 0x24 DUP2 DUP7 GAS DELEGATECALL SWAP1 DUP2 ISZERO PUSH2 0x212A JUMPI DUP3 SWAP2 PUSH2 0x21EE JUMPI JUMPDEST POP ISZERO PUSH2 0x2164 JUMPI JUMPDEST PUSH1 0x1 SLOAD PUSH1 0x1 PUSH1 0x1 PUSH1 0xA0 SHL SUB AND SWAP1 DUP2 EXTCODESIZE ISZERO PUSH2 0x2082 JUMPI PUSH1 0x40 MLOAD PUSH4 0x24A6D6D PUSH1 0xE1 SHL DUP2 MSTORE PUSH1 0x4 DUP2 ADD DUP7 SWAP1 MSTORE PUSH1 0x0 DUP1 MLOAD PUSH1 0x20 PUSH2 0x7D06 DUP4 CODECOPY DUP2 MLOAD SWAP2 MSTORE PUSH1 0x24 DUP3 ADD MSTORE PUSH1 0x1 PUSH1 0x44 DUP3 ADD MSTORE PUSH1 0x64 DUP2 ADD DUP6 SWAP1 MSTORE SWAP2 DUP2 SWAP1 DUP4 SWAP1 PUSH1 0x84 SWAP1 DUP3 SWAP1 DUP5 SWAP1 GAS CALL SWAP2 DUP3 PUSH2 0x2154 JUMPI JUMPDEST POP SWAP1 PUSH2 0x1F0C JUMPI JUMPDEST POP POP POP POP JUMP JUMPDEST PUSH1 0x40 MLOAD PUSH4 0x737FEE1 PUSH1 0xE4 SHL DUP2 MSTORE PUSH1 0x0 DUP1 MLOAD PUSH1 0x20 PUSH2 0x7D06 DUP4 CODECOPY DUP2 MLOAD SWAP2 MSTORE PUSH1 0x4 DUP3 ADD MSTORE PUSH1 0x20 DUP2 PUSH1 0x24 DUP2 DUP7 GAS DELEGATECALL SWAP1 DUP2 ISZERO PUSH2 0x212A JUMPI SWAP1 PUSH2 0xFFFF SWAP2 DUP4 SWAP2 PUSH2 0x2135 JUMPI JUMPDEST POP AND SWAP2 DUP3 PUSH2 0x1F8B JUMPI JUMPDEST POP POP PUSH1 0x40 PUSH1 0x0 DUP1 MLOAD PUSH1 0x20 PUSH2 0x7D06 DUP4 CODECOPY DUP2 MLOAD SWAP2 MSTORE SWAP4 SWAP3 PUSH1 0x0 DUP1 MLOAD PUSH1 0x20 PUSH2 0x7D66 DUP4 CODECOPY DUP2 MLOAD SWAP2 MSTORE SWAP3 DUP3 MLOAD SWAP2 DUP3 MSTORE PUSH1 0x20 DUP3 ADD MSTORE LOG3 CODESIZE DUP1 DUP1 DUP1 PUSH2 0x1F06 JUMP JUMPDEST DUP2 PUSH1 0x24 SWAP2 PUSH1 0x40 MLOAD SWAP3 DUP4 DUP1 SWAP3 PUSH4 0x54B8D5E3 PUSH1 0xE0 SHL DUP3 MSTORE PUSH1 0x0 DUP1 MLOAD PUSH1 0x20 PUSH2 0x7D06 DUP4 CODECOPY DUP2 MLOAD SWAP2 MSTORE PUSH1 0x4 DUP4 ADD MSTORE GAS DELEGATECALL SWAP1 DUP2 ISZERO PUSH2 0x212A JUMPI DUP3 SWAP2 PUSH2 0x2089 JUMPI JUMPDEST POP PUSH1 0x40 MLOAD PUSH2 0x2004 PUSH1 0x27 DUP3 PUSH1 0x20 DUP2 ADD SWAP5 PUSH7 0x2130B233B29D1 PUSH1 0xCD SHL DUP7 MSTORE PUSH2 0x1FF3 DUP2 MLOAD DUP1 SWAP3 PUSH1 0x20 DUP7 DUP7 ADD SWAP2 ADD PUSH2 0x1DC8 JUMP JUMPDEST DUP2 ADD SUB ADD PUSH1 0x1F NOT DUP2 ADD DUP4 MSTORE DUP3 PUSH2 0x17DD JUMP JUMPDEST PUSH1 0x1 SLOAD PUSH1 0x1 PUSH1 0x1 PUSH1 0xA0 SHL SUB AND SWAP1 DUP2 EXTCODESIZE ISZERO PUSH2 0x2085 JUMPI DUP4 SWAP2 PUSH2 0x205A SWAP2 DUP4 PUSH1 0x84 DUP11 PUSH1 0x40 MLOAD SWAP8 DUP9 SWAP7 DUP8 SWAP6 DUP7 SWAP4 PUSH4 0xECCBD35 PUSH1 0xE1 SHL DUP6 MSTORE PUSH1 0x4 DUP6 ADD MSTORE DUP13 PUSH1 0x24 DUP6 ADD MSTORE PUSH1 0x60 PUSH1 0x44 DUP6 ADD MSTORE MLOAD DUP1 SWAP3 DUP2 PUSH1 0x64 DUP7 ADD MSTORE DUP6 DUP6 ADD SWAP1 PUSH2 0x1DC8 JUMP JUMPDEST PUSH1 0x1F ADD PUSH1 0x1F NOT AND DUP2 ADD SUB ADD SWAP3 GAS CALL ISZERO PUSH2 0x1F52 JUMPI PUSH2 0x2078 DUP3 DUP1 SWAP3 PUSH2 0x17DD JUMP JUMPDEST PUSH2 0x2082 JUMPI DUP1 PUSH2 0x1F52 JUMP JUMPDEST DUP1 REVERT JUMPDEST DUP4 DUP1 REVERT JUMPDEST SWAP1 POP RETURNDATASIZE DUP1 DUP4 DUP4 RETURNDATACOPY PUSH2 0x209A DUP2 DUP4 PUSH2 0x17DD JUMP JUMPDEST DUP2 ADD SWAP1 PUSH1 0x20 DUP2 DUP4 SUB SLT PUSH2 0x2126 JUMPI DUP1 MLOAD SWAP1 PUSH1 0x1 PUSH1 0x1 PUSH1 0x40 SHL SUB DUP3 GT PUSH2 0x2085 JUMPI ADD DUP2 PUSH1 0x1F DUP3 ADD SLT ISZERO PUSH2 0x2126 JUMPI DUP1 MLOAD SWAP1 PUSH1 0x1 PUSH1 0x1 PUSH1 0x40 SHL SUB DUP3 GT PUSH2 0x2112 JUMPI PUSH1 0x40 MLOAD SWAP3 PUSH2 0x20ED PUSH1 0x1F DUP5 ADD PUSH1 0x1F NOT AND PUSH1 0x20 ADD DUP6 PUSH2 0x17DD JUMP JUMPDEST DUP3 DUP5 MSTORE PUSH1 0x20 DUP4 DUP4 ADD ADD GT PUSH2 0x2085 JUMPI SWAP1 PUSH2 0x210C SWAP2 PUSH1 0x20 DUP1 DUP6 ADD SWAP2 ADD PUSH2 0x1DC8 JUMP JUMPDEST CODESIZE PUSH2 0x1FC4 JUMP JUMPDEST PUSH4 0x4E487B71 PUSH1 0xE0 SHL DUP5 MSTORE PUSH1 0x41 PUSH1 0x4 MSTORE PUSH1 0x24 DUP5 REVERT JUMPDEST DUP3 DUP1 REVERT JUMPDEST PUSH1 0x40 MLOAD RETURNDATASIZE DUP5 DUP3 RETURNDATACOPY RETURNDATASIZE SWAP1 REVERT JUMPDEST PUSH2 0x214E SWAP2 POP PUSH1 0x20 RETURNDATASIZE PUSH1 0x20 GT PUSH2 0x1D69 JUMPI PUSH2 0x1D5B DUP2 DUP4 PUSH2 0x17DD JUMP JUMPDEST CODESIZE PUSH2 0x1F49 JUMP JUMPDEST DUP2 PUSH2 0x215E SWAP2 PUSH2 0x17DD JUMP JUMPDEST CODESIZE PUSH2 0x1EFF JUMP JUMPDEST PUSH1 0x40 MLOAD PUSH4 0x6F143BE1 PUSH1 0xE0 SHL DUP2 MSTORE PUSH1 0x0 DUP1 MLOAD PUSH1 0x20 PUSH2 0x7D06 DUP4 CODECOPY DUP2 MLOAD SWAP2 MSTORE PUSH1 0x4 DUP3 ADD MSTORE SWAP1 SWAP3 POP PUSH1 0x20 DUP2 PUSH1 0x24 DUP2 DUP6 GAS DELEGATECALL DUP1 ISZERO PUSH2 0x21E3 JUMPI DUP4 SWAP1 PUSH2 0x21AF JUMPI JUMPDEST PUSH2 0x21A9 SWAP2 POP TIMESTAMP PUSH2 0x1D96 JUMP JUMPDEST SWAP2 PUSH2 0x1EA0 JUMP JUMPDEST POP PUSH1 0x20 DUP2 RETURNDATASIZE PUSH1 0x20 GT PUSH2 0x21DB JUMPI JUMPDEST DUP2 PUSH2 0x21C9 PUSH1 0x20 SWAP4 DUP4 PUSH2 0x17DD JUMP JUMPDEST DUP2 ADD SUB SLT PUSH2 0x2126 JUMPI PUSH2 0x21A9 SWAP1 MLOAD PUSH2 0x219E JUMP JUMPDEST RETURNDATASIZE SWAP2 POP PUSH2 0x21BC JUMP JUMPDEST PUSH1 0x40 MLOAD RETURNDATASIZE DUP6 DUP3 RETURNDATACOPY RETURNDATASIZE SWAP1 REVERT JUMPDEST PUSH2 0x2207 SWAP2 POP PUSH1 0x20 RETURNDATASIZE PUSH1 0x20 GT PUSH2 0x8D6 JUMPI PUSH2 0x8C8 DUP2 DUP4 PUSH2 0x17DD JUMP JUMPDEST CODESIZE PUSH2 0x1E99 JUMP JUMPDEST PUSH2 0x1BE0 SWAP3 POP PUSH1 0x0 DUP1 MLOAD PUSH1 0x20 PUSH2 0x7D06 DUP4 CODECOPY DUP2 MLOAD SWAP2 MSTORE SWAP2 POP PUSH2 0x6618 JUMP JUMPDEST PUSH2 0x2241 SWAP2 POP PUSH1 0x20 RETURNDATASIZE PUSH1 0x20 GT PUSH2 0x8D6 JUMPI PUSH2 0x8C8 DUP2 DUP4 PUSH2 0x17DD JUMP JUMPDEST CODESIZE PUSH2 0x1E43 JUMP JUMPDEST PUSH1 0x1 SLOAD PUSH1 0x40 MLOAD PUSH4 0xE05E5D5 PUSH1 0xE2 SHL DUP2 MSTORE PUSH1 0x1 PUSH1 0x1 PUSH1 0xA0 SHL SUB DUP1 DUP5 AND PUSH1 0x4 DUP4 ADD DUP2 SWAP1 MSTORE PUSH1 0x0 DUP1 MLOAD PUSH1 0x20 PUSH2 0x7E46 DUP4 CODECOPY DUP2 MLOAD SWAP2 MSTORE PUSH1 0x24 DUP5 ADD MSTORE SWAP4 PUSH1 0x0 SWAP4 SWAP1 SWAP3 SWAP2 PUSH1 0x20 SWAP2 DUP4 SWAP2 PUSH1 0x44 SWAP2 DUP4 SWAP2 AND GAS STATICCALL SWAP1 DUP2 ISZERO PUSH2 0x21E3 JUMPI DUP4 SWAP2 PUSH2 0x263D JUMPI JUMPDEST POP PUSH2 0x2622 JUMPI POP PUSH1 0x40 MLOAD PUSH4 0x157E6AD1 PUSH1 0xE2 SHL DUP2 MSTORE PUSH1 0x0 DUP1 MLOAD PUSH1 0x20 PUSH2 0x7E46 DUP4 CODECOPY DUP2 MLOAD SWAP2 MSTORE PUSH1 0x4 DUP3 ADD MSTORE PUSH20 0x0 SWAP1 DUP3 SWAP1 PUSH1 0x20 DUP2 PUSH1 0x24 DUP2 DUP7 GAS DELEGATECALL SWAP1 DUP2 ISZERO PUSH2 0x212A JUMPI DUP3 SWAP2 PUSH2 0x2603 JUMPI JUMPDEST POP ISZERO PUSH2 0x2584 JUMPI JUMPDEST PUSH1 0x1 SLOAD PUSH1 0x1 PUSH1 0x1 PUSH1 0xA0 SHL SUB AND SWAP1 DUP2 EXTCODESIZE ISZERO PUSH2 0x2082 JUMPI PUSH1 0x40 MLOAD PUSH4 0x24A6D6D PUSH1 0xE1 SHL DUP2 MSTORE PUSH1 0x4 DUP2 ADD DUP7 SWAP1 MSTORE PUSH1 0x0 DUP1 MLOAD PUSH1 0x20 PUSH2 0x7E46 DUP4 CODECOPY DUP2 MLOAD SWAP2 MSTORE PUSH1 0x24 DUP3 ADD MSTORE PUSH1 0x1 PUSH1 0x44 DUP3 ADD MSTORE PUSH1 0x64 DUP2 ADD DUP6 SWAP1 MSTORE SWAP2 DUP2 SWAP1 DUP4 SWAP1 PUSH1 0x84 SWAP1 DUP3 SWAP1 DUP5 SWAP1 GAS CALL SWAP2 DUP3 PUSH2 0x2574 JUMPI JUMPDEST POP SWAP1 PUSH2 0x2367 JUMPI POP POP POP POP JUMP JUMPDEST PUSH1 0x40 MLOAD PUSH4 0x737FEE1 PUSH1 0xE4 SHL DUP2 MSTORE PUSH1 0x0 DUP1 MLOAD PUSH1 0x20 PUSH2 0x7E46 DUP4 CODECOPY DUP2 MLOAD SWAP2 MSTORE PUSH1 0x4 DUP3 ADD MSTORE PUSH1 0x20 DUP2 PUSH1 0x24 DUP2 DUP7 GAS DELEGATECALL SWAP1 DUP2 ISZERO PUSH2 0x212A JUMPI SWAP1 PUSH2 0xFFFF SWAP2 DUP4 SWAP2 PUSH2 0x2555 JUMPI JUMPDEST POP AND SWAP2 DUP3 PUSH2 0x23E6 JUMPI JUMPDEST POP POP PUSH1 0x40 PUSH1 0x0 DUP1 MLOAD PUSH1 0x20 PUSH2 0x7E46 DUP4 CODECOPY DUP2 MLOAD SWAP2 MSTORE SWAP4 SWAP3 PUSH1 0x0 DUP1 MLOAD PUSH1 0x20 PUSH2 0x7D66 DUP4 CODECOPY DUP2 MLOAD SWAP2 MSTORE SWAP3 DUP3 MLOAD SWAP2 DUP3 MSTORE PUSH1 0x20 DUP3 ADD MSTORE LOG3 CODESIZE DUP1 DUP1 DUP1 PUSH2 0x1F06 JUMP JUMPDEST DUP2 PUSH1 0x24 SWAP2 PUSH1 0x40 MLOAD SWAP3 DUP4 DUP1 SWAP3 PUSH4 0x54B8D5E3 PUSH1 0xE0 SHL DUP3 MSTORE PUSH1 0x0 DUP1 MLOAD PUSH1 0x20 PUSH2 0x7E46 DUP4 CODECOPY DUP2 MLOAD SWAP2 MSTORE PUSH1 0x4 DUP4 ADD MSTORE GAS DELEGATECALL SWAP1 DUP2 ISZERO PUSH2 0x212A JUMPI DUP3 SWAP2 PUSH2 0x24CC JUMPI JUMPDEST POP PUSH1 0x40 MLOAD PUSH2 0x244E PUSH1 0x27 DUP3 PUSH1 0x20 DUP2 ADD SWAP5 PUSH7 0x2130B233B29D1 PUSH1 0xCD SHL DUP7 MSTORE PUSH2 0x1FF3 DUP2 MLOAD DUP1 SWAP3 PUSH1 0x20 DUP7 DUP7 ADD SWAP2 ADD PUSH2 0x1DC8 JUMP JUMPDEST PUSH1 0x1 SLOAD PUSH1 0x1 PUSH1 0x1 PUSH1 0xA0 SHL SUB AND SWAP1 DUP2 EXTCODESIZE ISZERO PUSH2 0x2085 JUMPI DUP4 SWAP2 PUSH2 0x24A4 SWAP2 DUP4 PUSH1 0x84 DUP11 PUSH1 0x40 MLOAD SWAP8 DUP9 SWAP7 DUP8 SWAP6 DUP7 SWAP4 PUSH4 0xECCBD35 PUSH1 0xE1 SHL DUP6 MSTORE PUSH1 0x4 DUP6 ADD MSTORE DUP13 PUSH1 0x24 DUP6 ADD MSTORE PUSH1 0x60 PUSH1 0x44 DUP6 ADD MSTORE MLOAD DUP1 SWAP3 DUP2 PUSH1 0x64 DUP7 ADD MSTORE DUP6 DUP6 ADD SWAP1 PUSH2 0x1DC8 JUMP JUMPDEST PUSH1 0x1F ADD PUSH1 0x1F NOT AND DUP2 ADD SUB ADD SWAP3 GAS CALL ISZERO PUSH2 0x23AD JUMPI PUSH2 0x24C2 DUP3 DUP1 SWAP3 PUSH2 0x17DD JUMP JUMPDEST PUSH2 0x2082 JUMPI DUP1 PUSH2 0x23AD JUMP JUMPDEST SWAP1 POP RETURNDATASIZE DUP1 DUP4 DUP4 RETURNDATACOPY PUSH2 0x24DD DUP2 DUP4 PUSH2 0x17DD JUMP JUMPDEST DUP2 ADD SWAP1 PUSH1 0x20 DUP2 DUP4 SUB SLT PUSH2 0x2126 JUMPI DUP1 MLOAD SWAP1 PUSH1 0x1 PUSH1 0x1 PUSH1 0x40 SHL SUB DUP3 GT PUSH2 0x2085 JUMPI ADD DUP2 PUSH1 0x1F DUP3 ADD SLT ISZERO PUSH2 0x2126 JUMPI DUP1 MLOAD SWAP1 PUSH1 0x1 PUSH1 0x1 PUSH1 0x40 SHL SUB DUP3 GT PUSH2 0x2112 JUMPI PUSH1 0x40 MLOAD SWAP3 PUSH2 0x2530 PUSH1 0x1F DUP5 ADD PUSH1 0x1F NOT AND PUSH1 0x20 ADD DUP6 PUSH2 0x17DD JUMP JUMPDEST DUP3 DUP5 MSTORE PUSH1 0x20 DUP4 DUP4 ADD ADD GT PUSH2 0x2085 JUMPI SWAP1 PUSH2 0x254F SWAP2 PUSH1 0x20 DUP1 DUP6 ADD SWAP2 ADD PUSH2 0x1DC8 JUMP JUMPDEST CODESIZE PUSH2 0x241F JUMP JUMPDEST PUSH2 0x256E SWAP2 POP PUSH1 0x20 RETURNDATASIZE PUSH1 0x20 GT PUSH2 0x1D69 JUMPI PUSH2 0x1D5B DUP2 DUP4 PUSH2 0x17DD JUMP JUMPDEST CODESIZE PUSH2 0x23A4 JUMP JUMPDEST DUP2 PUSH2 0x257E SWAP2 PUSH2 0x17DD JUMP JUMPDEST CODESIZE PUSH2 0x235B JUMP JUMPDEST PUSH1 0x40 MLOAD PUSH4 0x6F143BE1 PUSH1 0xE0 SHL DUP2 MSTORE PUSH1 0x0 DUP1 MLOAD PUSH1 0x20 PUSH2 0x7E46 DUP4 CODECOPY DUP2 MLOAD SWAP2 MSTORE PUSH1 0x4 DUP3 ADD MSTORE SWAP1 SWAP3 POP PUSH1 0x20 DUP2 PUSH1 0x24 DUP2 DUP6 GAS DELEGATECALL DUP1 ISZERO PUSH2 0x21E3 JUMPI DUP4 SWAP1 PUSH2 0x25CF JUMPI JUMPDEST PUSH2 0x25C9 SWAP2 POP TIMESTAMP PUSH2 0x1D96 JUMP JUMPDEST SWAP2 PUSH2 0x22FC JUMP JUMPDEST POP PUSH1 0x20 DUP2 RETURNDATASIZE PUSH1 0x20 GT PUSH2 0x25FB JUMPI JUMPDEST DUP2 PUSH2 0x25E9 PUSH1 0x20 SWAP4 DUP4 PUSH2 0x17DD JUMP JUMPDEST DUP2 ADD SUB SLT PUSH2 0x2126 JUMPI PUSH2 0x25C9 SWAP1 MLOAD PUSH2 0x25BE JUMP JUMPDEST RETURNDATASIZE SWAP2 POP PUSH2 0x25DC JUMP JUMPDEST PUSH2 0x261C SWAP2 POP PUSH1 0x20 RETURNDATASIZE PUSH1 0x20 GT PUSH2 0x8D6 JUMPI PUSH2 0x8C8 DUP2 DUP4 PUSH2 0x17DD JUMP JUMPDEST CODESIZE PUSH2 0x22F5 JUMP JUMPDEST PUSH2 0x1BE0 SWAP3 POP PUSH1 0x0 DUP1 MLOAD PUSH1 0x20 PUSH2 0x7E46 DUP4 CODECOPY DUP2 MLOAD SWAP2 MSTORE SWAP2 POP PUSH2 0x6618 JUMP JUMPDEST PUSH2 0x2656 SWAP2 POP PUSH1 0x20 RETURNDATASIZE PUSH1 0x20 GT PUSH2 0x8D6 JUMPI PUSH2 0x8C8 DUP2 DUP4 PUSH2 0x17DD JUMP JUMPDEST CODESIZE PUSH2 0x229F JUMP JUMPDEST PUSH1 0x1 SLOAD PUSH1 0x40 MLOAD PUSH4 0xE05E5D5 PUSH1 0xE2 SHL DUP2 MSTORE PUSH1 0x1 PUSH1 0x1 PUSH1 0xA0 SHL SUB DUP1 DUP5 AND PUSH1 0x4 DUP4 ADD DUP2 SWAP1 MSTORE PUSH1 0x0 DUP1 MLOAD PUSH1 0x20 PUSH2 0x7D46 DUP4 CODECOPY DUP2 MLOAD SWAP2 MSTORE PUSH1 0x24 DUP5 ADD MSTORE SWAP4 PUSH1 0x0 SWAP4 SWAP1 SWAP3 SWAP2 PUSH1 0x20 SWAP2 DUP4 SWAP2 PUSH1 0x44 SWAP2 DUP4 SWAP2 AND GAS STATICCALL SWAP1 DUP2 ISZERO PUSH2 0x21E3 JUMPI DUP4 SWAP2 PUSH2 0x2A52 JUMPI JUMPDEST POP PUSH2 0x2A37 JUMPI POP PUSH1 0x40 MLOAD PUSH4 0x157E6AD1 PUSH1 0xE2 SHL DUP2 MSTORE PUSH1 0x0 DUP1 MLOAD PUSH1 0x20 PUSH2 0x7D46 DUP4 CODECOPY DUP2 MLOAD SWAP2 MSTORE PUSH1 0x4 DUP3 ADD MSTORE PUSH20 0x0 SWAP1 DUP3 SWAP1 PUSH1 0x20 DUP2 PUSH1 0x24 DUP2 DUP7 GAS DELEGATECALL SWAP1 DUP2 ISZERO PUSH2 0x212A JUMPI DUP3 SWAP2 PUSH2 0x2A18 JUMPI JUMPDEST POP ISZERO PUSH2 0x2999 JUMPI JUMPDEST PUSH1 0x1 SLOAD PUSH1 0x1 PUSH1 0x1 PUSH1 0xA0 SHL SUB AND SWAP1 DUP2 EXTCODESIZE ISZERO PUSH2 0x2082 JUMPI PUSH1 0x40 MLOAD PUSH4 0x24A6D6D PUSH1 0xE1 SHL DUP2 MSTORE PUSH1 0x4 DUP2 ADD DUP7 SWAP1 MSTORE PUSH1 0x0 DUP1 MLOAD PUSH1 0x20 PUSH2 0x7D46 DUP4 CODECOPY DUP2 MLOAD SWAP2 MSTORE PUSH1 0x24 DUP3 ADD MSTORE PUSH1 0x1 PUSH1 0x44 DUP3 ADD MSTORE PUSH1 0x64 DUP2 ADD DUP6 SWAP1 MSTORE SWAP2 DUP2 SWAP1 DUP4 SWAP1 PUSH1 0x84 SWAP1 DUP3 SWAP1 DUP5 SWAP1 GAS CALL SWAP2 DUP3 PUSH2 0x2989 JUMPI JUMPDEST POP SWAP1 PUSH2 0x277C JUMPI POP POP POP POP JUMP JUMPDEST PUSH1 0x40 MLOAD PUSH4 0x737FEE1 PUSH1 0xE4 SHL DUP2 MSTORE PUSH1 0x0 DUP1 MLOAD PUSH1 0x20 PUSH2 0x7D46 DUP4 CODECOPY DUP2 MLOAD SWAP2 MSTORE PUSH1 0x4 DUP3 ADD MSTORE PUSH1 0x20 DUP2 PUSH1 0x24 DUP2 DUP7 GAS DELEGATECALL SWAP1 DUP2 ISZERO PUSH2 0x212A JUMPI SWAP1 PUSH2 0xFFFF SWAP2 DUP4 SWAP2 PUSH2 0x296A JUMPI JUMPDEST POP AND SWAP2 DUP3 PUSH2 0x27FB JUMPI JUMPDEST POP POP PUSH1 0x40 PUSH1 0x0 DUP1 MLOAD PUSH1 0x20 PUSH2 0x7D46 DUP4 CODECOPY DUP2 MLOAD SWAP2 MSTORE SWAP4 SWAP3 PUSH1 0x0 DUP1 MLOAD PUSH1 0x20 PUSH2 0x7D66 DUP4 CODECOPY DUP2 MLOAD SWAP2 MSTORE SWAP3 DUP3 MLOAD SWAP2 DUP3 MSTORE PUSH1 0x20 DUP3 ADD MSTORE LOG3 CODESIZE DUP1 DUP1 DUP1 PUSH2 0x1F06 JUMP JUMPDEST DUP2 PUSH1 0x24 SWAP2 PUSH1 0x40 MLOAD SWAP3 DUP4 DUP1 SWAP3 PUSH4 0x54B8D5E3 PUSH1 0xE0 SHL DUP3 MSTORE PUSH1 0x0 DUP1 MLOAD PUSH1 0x20 PUSH2 0x7D46 DUP4 CODECOPY DUP2 MLOAD SWAP2 MSTORE PUSH1 0x4 DUP4 ADD MSTORE GAS DELEGATECALL SWAP1 DUP2 ISZERO PUSH2 0x212A JUMPI DUP3 SWAP2 PUSH2 0x28E1 JUMPI JUMPDEST POP PUSH1 0x40 MLOAD PUSH2 0x2863 PUSH1 0x27 DUP3 PUSH1 0x20 DUP2 ADD SWAP5 PUSH7 0x2130B233B29D1 PUSH1 0xCD SHL DUP7 MSTORE PUSH2 0x1FF3 DUP2 MLOAD DUP1 SWAP3 PUSH1 0x20 DUP7 DUP7 ADD SWAP2 ADD PUSH2 0x1DC8 JUMP JUMPDEST PUSH1 0x1 SLOAD PUSH1 0x1 PUSH1 0x1 PUSH1 0xA0 SHL SUB AND SWAP1 DUP2 EXTCODESIZE ISZERO PUSH2 0x2085 JUMPI DUP4 SWAP2 PUSH2 0x28B9 SWAP2 DUP4 PUSH1 0x84 DUP11 PUSH1 0x40 MLOAD SWAP8 DUP9 SWAP7 DUP8 SWAP6 DUP7 SWAP4 PUSH4 0xECCBD35 PUSH1 0xE1 SHL DUP6 MSTORE PUSH1 0x4 DUP6 ADD MSTORE DUP13 PUSH1 0x24 DUP6 ADD MSTORE PUSH1 0x60 PUSH1 0x44 DUP6 ADD MSTORE MLOAD DUP1 SWAP3 DUP2 PUSH1 0x64 DUP7 ADD MSTORE DUP6 DUP6 ADD SWAP1 PUSH2 0x1DC8 JUMP JUMPDEST PUSH1 0x1F ADD PUSH1 0x1F NOT AND DUP2 ADD SUB ADD SWAP3 GAS CALL ISZERO PUSH2 0x27C2 JUMPI PUSH2 0x28D7 DUP3 DUP1 SWAP3 PUSH2 0x17DD JUMP JUMPDEST PUSH2 0x2082 JUMPI DUP1 PUSH2 0x27C2 JUMP JUMPDEST SWAP1 POP RETURNDATASIZE DUP1 DUP4 DUP4 RETURNDATACOPY PUSH2 0x28F2 DUP2 DUP4 PUSH2 0x17DD JUMP JUMPDEST DUP2 ADD SWAP1 PUSH1 0x20 DUP2 DUP4 SUB SLT PUSH2 0x2126 JUMPI DUP1 MLOAD SWAP1 PUSH1 0x1 PUSH1 0x1 PUSH1 0x40 SHL SUB DUP3 GT PUSH2 0x2085 JUMPI ADD DUP2 PUSH1 0x1F DUP3 ADD SLT ISZERO PUSH2 0x2126 JUMPI DUP1 MLOAD SWAP1 PUSH1 0x1 PUSH1 0x1 PUSH1 0x40 SHL SUB DUP3 GT PUSH2 0x2112 JUMPI PUSH1 0x40 MLOAD SWAP3 PUSH2 0x2945 PUSH1 0x1F DUP5 ADD PUSH1 0x1F NOT AND PUSH1 0x20 ADD DUP6 PUSH2 0x17DD JUMP JUMPDEST DUP3 DUP5 MSTORE PUSH1 0x20 DUP4 DUP4 ADD ADD GT PUSH2 0x2085 JUMPI SWAP1 PUSH2 0x2964 SWAP2 PUSH1 0x20 DUP1 DUP6 ADD SWAP2 ADD PUSH2 0x1DC8 JUMP JUMPDEST CODESIZE PUSH2 0x2834 JUMP JUMPDEST PUSH2 0x2983 SWAP2 POP PUSH1 0x20 RETURNDATASIZE PUSH1 0x20 GT PUSH2 0x1D69 JUMPI PUSH2 0x1D5B DUP2 DUP4 PUSH2 0x17DD JUMP JUMPDEST CODESIZE PUSH2 0x27B9 JUMP JUMPDEST DUP2 PUSH2 0x2993 SWAP2 PUSH2 0x17DD JUMP JUMPDEST CODESIZE PUSH2 0x2770 JUMP JUMPDEST PUSH1 0x40 MLOAD PUSH4 0x6F143BE1 PUSH1 0xE0 SHL DUP2 MSTORE PUSH1 0x0 DUP1 MLOAD PUSH1 0x20 PUSH2 0x7D46 DUP4 CODECOPY DUP2 MLOAD SWAP2 MSTORE PUSH1 0x4 DUP3 ADD MSTORE SWAP1 SWAP3 POP PUSH1 0x20 DUP2 PUSH1 0x24 DUP2 DUP6 GAS DELEGATECALL DUP1 ISZERO PUSH2 0x21E3 JUMPI DUP4 SWAP1 PUSH2 0x29E4 JUMPI JUMPDEST PUSH2 0x29DE SWAP2 POP TIMESTAMP PUSH2 0x1D96 JUMP JUMPDEST SWAP2 PUSH2 0x2711 JUMP JUMPDEST POP PUSH1 0x20 DUP2 RETURNDATASIZE PUSH1 0x20 GT PUSH2 0x2A10 JUMPI JUMPDEST DUP2 PUSH2 0x29FE PUSH1 0x20 SWAP4 DUP4 PUSH2 0x17DD JUMP JUMPDEST DUP2 ADD SUB SLT PUSH2 0x2126 JUMPI PUSH2 0x29DE SWAP1 MLOAD PUSH2 0x29D3 JUMP JUMPDEST RETURNDATASIZE SWAP2 POP PUSH2 0x29F1 JUMP JUMPDEST PUSH2 0x2A31 SWAP2 POP PUSH1 0x20 RETURNDATASIZE PUSH1 0x20 GT PUSH2 0x8D6 JUMPI PUSH2 0x8C8 DUP2 DUP4 PUSH2 0x17DD JUMP JUMPDEST CODESIZE PUSH2 0x270A JUMP JUMPDEST PUSH2 0x1BE0 SWAP3 POP PUSH1 0x0 DUP1 MLOAD PUSH1 0x20 PUSH2 0x7D46 DUP4 CODECOPY DUP2 MLOAD SWAP2 MSTORE SWAP2 POP PUSH2 0x6618 JUMP JUMPDEST PUSH2 0x2A6B SWAP2 POP PUSH1 0x20 RETURNDATASIZE PUSH1 0x20 GT PUSH2 0x8D6 JUMPI PUSH2 0x8C8 DUP2 DUP4 PUSH2 0x17DD JUMP JUMPDEST CODESIZE PUSH2 0x26B4 JUMP JUMPDEST PUSH1 0x1 SLOAD PUSH1 0x40 MLOAD PUSH4 0xE05E5D5 PUSH1 0xE2 SHL DUP2 MSTORE PUSH1 0x1 PUSH1 0x1 PUSH1 0xA0 SHL SUB DUP1 DUP5 AND PUSH1 0x4 DUP4 ADD DUP2 SWAP1 MSTORE PUSH1 0x0 DUP1 MLOAD PUSH1 0x20 PUSH2 0x7EC6 DUP4 CODECOPY DUP2 MLOAD SWAP2 MSTORE PUSH1 0x24 DUP5 ADD MSTORE SWAP4 PUSH1 0x0 SWAP4 SWAP1 SWAP3 SWAP2 PUSH1 0x20 SWAP2 DUP4 SWAP2 PUSH1 0x44 SWAP2 DUP4 SWAP2 AND GAS STATICCALL SWAP1 DUP2 ISZERO PUSH2 0x21E3 JUMPI DUP4 SWAP2 PUSH2 0x2E67 JUMPI JUMPDEST POP PUSH2 0x2E4C JUMPI POP PUSH1 0x40 MLOAD PUSH4 0x157E6AD1 PUSH1 0xE2 SHL DUP2 MSTORE PUSH1 0x0 DUP1 MLOAD PUSH1 0x20 PUSH2 0x7EC6 DUP4 CODECOPY DUP2 MLOAD SWAP2 MSTORE PUSH1 0x4 DUP3 ADD MSTORE PUSH20 0x0 SWAP1 DUP3 SWAP1 PUSH1 0x20 DUP2 PUSH1 0x24 DUP2 DUP7 GAS DELEGATECALL SWAP1 DUP2 ISZERO PUSH2 0x212A JUMPI DUP3 SWAP2 PUSH2 0x2E2D JUMPI JUMPDEST POP ISZERO PUSH2 0x2DAE JUMPI JUMPDEST PUSH1 0x1 SLOAD PUSH1 0x1 PUSH1 0x1 PUSH1 0xA0 SHL SUB AND SWAP1 DUP2 EXTCODESIZE ISZERO PUSH2 0x2082 JUMPI PUSH1 0x40 MLOAD PUSH4 0x24A6D6D PUSH1 0xE1 SHL DUP2 MSTORE PUSH1 0x4 DUP2 ADD DUP7 SWAP1 MSTORE PUSH1 0x0 DUP1 MLOAD PUSH1 0x20 PUSH2 0x7EC6 DUP4 CODECOPY DUP2 MLOAD SWAP2 MSTORE PUSH1 0x24 DUP3 ADD MSTORE PUSH1 0x1 PUSH1 0x44 DUP3 ADD MSTORE PUSH1 0x64 DUP2 ADD DUP6 SWAP1 MSTORE SWAP2 DUP2 SWAP1 DUP4 SWAP1 PUSH1 0x84 SWAP1 DUP3 SWAP1 DUP5 SWAP1 GAS CALL SWAP2 DUP3 PUSH2 0x2D9E JUMPI JUMPDEST POP SWAP1 PUSH2 0x2B91 JUMPI POP POP POP POP JUMP JUMPDEST PUSH1 0x40 MLOAD PUSH4 0x737FEE1 PUSH1 0xE4 SHL DUP2 MSTORE PUSH1 0x0 DUP1 MLOAD PUSH1 0x20 PUSH2 0x7EC6 DUP4 CODECOPY DUP2 MLOAD SWAP2 MSTORE PUSH1 0x4 DUP3 ADD MSTORE PUSH1 0x20 DUP2 PUSH1 0x24 DUP2 DUP7 GAS DELEGATECALL SWAP1 DUP2 ISZERO PUSH2 0x212A JUMPI SWAP1 PUSH2 0xFFFF SWAP2 DUP4 SWAP2 PUSH2 0x2D7F JUMPI JUMPDEST POP AND SWAP2 DUP3 PUSH2 0x2C10 JUMPI JUMPDEST POP POP PUSH1 0x40 PUSH1 0x0 DUP1 MLOAD PUSH1 0x20 PUSH2 0x7EC6 DUP4 CODECOPY DUP2 MLOAD SWAP2 MSTORE SWAP4 SWAP3 PUSH1 0x0 DUP1 MLOAD PUSH1 0x20 PUSH2 0x7D66 DUP4 CODECOPY DUP2 MLOAD SWAP2 MSTORE SWAP3 DUP3 MLOAD SWAP2 DUP3 MSTORE PUSH1 0x20 DUP3 ADD MSTORE LOG3 CODESIZE DUP1 DUP1 DUP1 PUSH2 0x1F06 JUMP JUMPDEST DUP2 PUSH1 0x24 SWAP2 PUSH1 0x40 MLOAD SWAP3 DUP4 DUP1 SWAP3 PUSH4 0x54B8D5E3 PUSH1 0xE0 SHL DUP3 MSTORE PUSH1 0x0 DUP1 MLOAD PUSH1 0x20 PUSH2 0x7EC6 DUP4 CODECOPY DUP2 MLOAD SWAP2 MSTORE PUSH1 0x4 DUP4 ADD MSTORE GAS DELEGATECALL SWAP1 DUP2 ISZERO PUSH2 0x212A JUMPI DUP3 SWAP2 PUSH2 0x2CF6 JUMPI JUMPDEST POP PUSH1 0x40 MLOAD PUSH2 0x2C78 PUSH1 0x27 DUP3 PUSH1 0x20 DUP2 ADD SWAP5 PUSH7 0x2130B233B29D1 PUSH1 0xCD SHL DUP7 MSTORE PUSH2 0x1FF3 DUP2 MLOAD DUP1 SWAP3 PUSH1 0x20 DUP7 DUP7 ADD SWAP2 ADD PUSH2 0x1DC8 JUMP JUMPDEST PUSH1 0x1 SLOAD PUSH1 0x1 PUSH1 0x1 PUSH1 0xA0 SHL SUB AND SWAP1 DUP2 EXTCODESIZE ISZERO PUSH2 0x2085 JUMPI DUP4 SWAP2 PUSH2 0x2CCE SWAP2 DUP4 PUSH1 0x84 DUP11 PUSH1 0x40 MLOAD SWAP8 DUP9 SWAP7 DUP8 SWAP6 DUP7 SWAP4 PUSH4 0xECCBD35 PUSH1 0xE1 SHL DUP6 MSTORE PUSH1 0x4 DUP6 ADD MSTORE DUP13 PUSH1 0x24 DUP6 ADD MSTORE PUSH1 0x60 PUSH1 0x44 DUP6 ADD MSTORE MLOAD DUP1 SWAP3 DUP2 PUSH1 0x64 DUP7 ADD MSTORE DUP6 DUP6 ADD SWAP1 PUSH2 0x1DC8 JUMP JUMPDEST PUSH1 0x1F ADD PUSH1 0x1F NOT AND DUP2 ADD SUB ADD SWAP3 GAS CALL ISZERO PUSH2 0x2BD7 JUMPI PUSH2 0x2CEC DUP3 DUP1 SWAP3 PUSH2 0x17DD JUMP JUMPDEST PUSH2 0x2082 JUMPI DUP1 PUSH2 0x2BD7 JUMP JUMPDEST SWAP1 POP RETURNDATASIZE DUP1 DUP4 DUP4 RETURNDATACOPY PUSH2 0x2D07 DUP2 DUP4 PUSH2 0x17DD JUMP JUMPDEST DUP2 ADD SWAP1 PUSH1 0x20 DUP2 DUP4 SUB SLT PUSH2 0x2126 JUMPI DUP1 MLOAD SWAP1 PUSH1 0x1 PUSH1 0x1 PUSH1 0x40 SHL SUB DUP3 GT PUSH2 0x2085 JUMPI ADD DUP2 PUSH1 0x1F DUP3 ADD SLT ISZERO PUSH2 0x2126 JUMPI DUP1 MLOAD SWAP1 PUSH1 0x1 PUSH1 0x1 PUSH1 0x40 SHL SUB DUP3 GT PUSH2 0x2112 JUMPI PUSH1 0x40 MLOAD SWAP3 PUSH2 0x2D5A PUSH1 0x1F DUP5 ADD PUSH1 0x1F NOT AND PUSH1 0x20 ADD DUP6 PUSH2 0x17DD JUMP JUMPDEST DUP3 DUP5 MSTORE PUSH1 0x20 DUP4 DUP4 ADD ADD GT PUSH2 0x2085 JUMPI SWAP1 PUSH2 0x2D79 SWAP2 PUSH1 0x20 DUP1 DUP6 ADD SWAP2 ADD PUSH2 0x1DC8 JUMP JUMPDEST CODESIZE PUSH2 0x2C49 JUMP JUMPDEST PUSH2 0x2D98 SWAP2 POP PUSH1 0x20 RETURNDATASIZE PUSH1 0x20 GT PUSH2 0x1D69 JUMPI PUSH2 0x1D5B DUP2 DUP4 PUSH2 0x17DD JUMP JUMPDEST CODESIZE PUSH2 0x2BCE JUMP JUMPDEST DUP2 PUSH2 0x2DA8 SWAP2 PUSH2 0x17DD JUMP JUMPDEST CODESIZE PUSH2 0x2B85 JUMP JUMPDEST PUSH1 0x40 MLOAD PUSH4 0x6F143BE1 PUSH1 0xE0 SHL DUP2 MSTORE PUSH1 0x0 DUP1 MLOAD PUSH1 0x20 PUSH2 0x7EC6 DUP4 CODECOPY DUP2 MLOAD SWAP2 MSTORE PUSH1 0x4 DUP3 ADD MSTORE SWAP1 SWAP3 POP PUSH1 0x20 DUP2 PUSH1 0x24 DUP2 DUP6 GAS DELEGATECALL DUP1 ISZERO PUSH2 0x21E3 JUMPI DUP4 SWAP1 PUSH2 0x2DF9 JUMPI JUMPDEST PUSH2 0x2DF3 SWAP2 POP TIMESTAMP PUSH2 0x1D96 JUMP JUMPDEST SWAP2 PUSH2 0x2B26 JUMP JUMPDEST POP PUSH1 0x20 DUP2 RETURNDATASIZE PUSH1 0x20 GT PUSH2 0x2E25 JUMPI JUMPDEST DUP2 PUSH2 0x2E13 PUSH1 0x20 SWAP4 DUP4 PUSH2 0x17DD JUMP JUMPDEST DUP2 ADD SUB SLT PUSH2 0x2126 JUMPI PUSH2 0x2DF3 SWAP1 MLOAD PUSH2 0x2DE8 JUMP JUMPDEST RETURNDATASIZE SWAP2 POP PUSH2 0x2E06 JUMP JUMPDEST PUSH2 0x2E46 SWAP2 POP PUSH1 0x20 RETURNDATASIZE PUSH1 0x20 GT PUSH2 0x8D6 JUMPI PUSH2 0x8C8 DUP2 DUP4 PUSH2 0x17DD JUMP JUMPDEST CODESIZE PUSH2 0x2B1F JUMP JUMPDEST PUSH2 0x1BE0 SWAP3 POP PUSH1 0x0 DUP1 MLOAD PUSH1 0x20 PUSH2 0x7EC6 DUP4 CODECOPY DUP2 MLOAD SWAP2 MSTORE SWAP2 POP PUSH2 0x6618 JUMP JUMPDEST PUSH2 0x2E80 SWAP2 POP PUSH1 0x20 RETURNDATASIZE PUSH1 0x20 GT PUSH2 0x8D6 JUMPI PUSH2 0x8C8 DUP2 DUP4 PUSH2 0x17DD JUMP JUMPDEST CODESIZE PUSH2 0x2AC9 JUMP JUMPDEST PUSH1 0x1 SLOAD PUSH1 0x40 MLOAD PUSH4 0xE05E5D5 PUSH1 0xE2 SHL DUP2 MSTORE PUSH1 0x1 PUSH1 0x1 PUSH1 0xA0 SHL SUB DUP1 DUP5 AND PUSH1 0x4 DUP4 ADD DUP2 SWAP1 MSTORE PUSH1 0x0 DUP1 MLOAD PUSH1 0x20 PUSH2 0x7C86 DUP4 CODECOPY DUP2 MLOAD SWAP2 MSTORE PUSH1 0x24 DUP5 ADD MSTORE SWAP4 PUSH1 0x0 SWAP4 SWAP1 SWAP3 SWAP2 PUSH1 0x20 SWAP2 DUP4 SWAP2 PUSH1 0x44 SWAP2 DUP4 SWAP2 AND GAS STATICCALL SWAP1 DUP2 ISZERO PUSH2 0x21E3 JUMPI DUP4 SWAP2 PUSH2 0x327C JUMPI JUMPDEST POP PUSH2 0x3261 JUMPI POP PUSH1 0x40 MLOAD PUSH4 0x157E6AD1 PUSH1 0xE2 SHL DUP2 MSTORE PUSH1 0x0 DUP1 MLOAD PUSH1 0x20 PUSH2 0x7C86 DUP4 CODECOPY DUP2 MLOAD SWAP2 MSTORE PUSH1 0x4 DUP3 ADD MSTORE PUSH20 0x0 SWAP1 DUP3 SWAP1 PUSH1 0x20 DUP2 PUSH1 0x24 DUP2 DUP7 GAS DELEGATECALL SWAP1 DUP2 ISZERO PUSH2 0x212A JUMPI DUP3 SWAP2 PUSH2 0x3242 JUMPI JUMPDEST POP ISZERO PUSH2 0x31C3 JUMPI JUMPDEST PUSH1 0x1 SLOAD PUSH1 0x1 PUSH1 0x1 PUSH1 0xA0 SHL SUB AND SWAP1 DUP2 EXTCODESIZE ISZERO PUSH2 0x2082 JUMPI PUSH1 0x40 MLOAD PUSH4 0x24A6D6D PUSH1 0xE1 SHL DUP2 MSTORE PUSH1 0x4 DUP2 ADD DUP7 SWAP1 MSTORE PUSH1 0x0 DUP1 MLOAD PUSH1 0x20 PUSH2 0x7C86 DUP4 CODECOPY DUP2 MLOAD SWAP2 MSTORE PUSH1 0x24 DUP3 ADD MSTORE PUSH1 0x1 PUSH1 0x44 DUP3 ADD MSTORE PUSH1 0x64 DUP2 ADD DUP6 SWAP1 MSTORE SWAP2 DUP2 SWAP1 DUP4 SWAP1 PUSH1 0x84 SWAP1 DUP3 SWAP1 DUP5 SWAP1 GAS CALL SWAP2 DUP3 PUSH2 0x31B3 JUMPI JUMPDEST POP SWAP1 PUSH2 0x2FA6 JUMPI POP POP POP POP JUMP JUMPDEST PUSH1 0x40 MLOAD PUSH4 0x737FEE1 PUSH1 0xE4 SHL DUP2 MSTORE PUSH1 0x0 DUP1 MLOAD PUSH1 0x20 PUSH2 0x7C86 DUP4 CODECOPY DUP2 MLOAD SWAP2 MSTORE PUSH1 0x4 DUP3 ADD MSTORE PUSH1 0x20 DUP2 PUSH1 0x24 DUP2 DUP7 GAS DELEGATECALL SWAP1 DUP2 ISZERO PUSH2 0x212A JUMPI SWAP1 PUSH2 0xFFFF SWAP2 DUP4 SWAP2 PUSH2 0x3194 JUMPI JUMPDEST POP AND SWAP2 DUP3 PUSH2 0x3025 JUMPI JUMPDEST POP POP PUSH1 0x40 PUSH1 0x0 DUP1 MLOAD PUSH1 0x20 PUSH2 0x7C86 DUP4 CODECOPY DUP2 MLOAD SWAP2 MSTORE SWAP4 SWAP3 PUSH1 0x0 DUP1 MLOAD PUSH1 0x20 PUSH2 0x7D66 DUP4 CODECOPY DUP2 MLOAD SWAP2 MSTORE SWAP3 DUP3 MLOAD SWAP2 DUP3 MSTORE PUSH1 0x20 DUP3 ADD MSTORE LOG3 CODESIZE DUP1 DUP1 DUP1 PUSH2 0x1F06 JUMP JUMPDEST DUP2 PUSH1 0x24 SWAP2 PUSH1 0x40 MLOAD SWAP3 DUP4 DUP1 SWAP3 PUSH4 0x54B8D5E3 PUSH1 0xE0 SHL DUP3 MSTORE PUSH1 0x0 DUP1 MLOAD PUSH1 0x20 PUSH2 0x7C86 DUP4 CODECOPY DUP2 MLOAD SWAP2 MSTORE PUSH1 0x4 DUP4 ADD MSTORE GAS DELEGATECALL SWAP1 DUP2 ISZERO PUSH2 0x212A JUMPI DUP3 SWAP2 PUSH2 0x310B JUMPI JUMPDEST POP PUSH1 0x40 MLOAD PUSH2 0x308D PUSH1 0x27 DUP3 PUSH1 0x20 DUP2 ADD SWAP5 PUSH7 0x2130B233B29D1 PUSH1 0xCD SHL DUP7 MSTORE PUSH2 0x1FF3 DUP2 MLOAD DUP1 SWAP3 PUSH1 0x20 DUP7 DUP7 ADD SWAP2 ADD PUSH2 0x1DC8 JUMP JUMPDEST PUSH1 0x1 SLOAD PUSH1 0x1 PUSH1 0x1 PUSH1 0xA0 SHL SUB AND SWAP1 DUP2 EXTCODESIZE ISZERO PUSH2 0x2085 JUMPI DUP4 SWAP2 PUSH2 0x30E3 SWAP2 DUP4 PUSH1 0x84 DUP11 PUSH1 0x40 MLOAD SWAP8 DUP9 SWAP7 DUP8 SWAP6 DUP7 SWAP4 PUSH4 0xECCBD35 PUSH1 0xE1 SHL DUP6 MSTORE PUSH1 0x4 DUP6 ADD MSTORE DUP13 PUSH1 0x24 DUP6 ADD MSTORE PUSH1 0x60 PUSH1 0x44 DUP6 ADD MSTORE MLOAD DUP1 SWAP3 DUP2 PUSH1 0x64 DUP7 ADD MSTORE DUP6 DUP6 ADD SWAP1 PUSH2 0x1DC8 JUMP JUMPDEST PUSH1 0x1F ADD PUSH1 0x1F NOT AND DUP2 ADD SUB ADD SWAP3 GAS CALL ISZERO PUSH2 0x2FEC JUMPI PUSH2 0x3101 DUP3 DUP1 SWAP3 PUSH2 0x17DD JUMP JUMPDEST PUSH2 0x2082 JUMPI DUP1 PUSH2 0x2FEC JUMP JUMPDEST SWAP1 POP RETURNDATASIZE DUP1 DUP4 DUP4 RETURNDATACOPY PUSH2 0x311C DUP2 DUP4 PUSH2 0x17DD JUMP JUMPDEST DUP2 ADD SWAP1 PUSH1 0x20 DUP2 DUP4 SUB SLT PUSH2 0x2126 JUMPI DUP1 MLOAD SWAP1 PUSH1 0x1 PUSH1 0x1 PUSH1 0x40 SHL SUB DUP3 GT PUSH2 0x2085 JUMPI ADD DUP2 PUSH1 0x1F DUP3 ADD SLT ISZERO PUSH2 0x2126 JUMPI DUP1 MLOAD SWAP1 PUSH1 0x1 PUSH1 0x1 PUSH1 0x40 SHL SUB DUP3 GT PUSH2 0x2112 JUMPI PUSH1 0x40 MLOAD SWAP3 PUSH2 0x316F PUSH1 0x1F DUP5 ADD PUSH1 0x1F NOT AND PUSH1 0x20 ADD DUP6 PUSH2 0x17DD JUMP JUMPDEST DUP3 DUP5 MSTORE PUSH1 0x20 DUP4 DUP4 ADD ADD GT PUSH2 0x2085 JUMPI SWAP1 PUSH2 0x318E SWAP2 PUSH1 0x20 DUP1 DUP6 ADD SWAP2 ADD PUSH2 0x1DC8 JUMP JUMPDEST CODESIZE PUSH2 0x305E JUMP JUMPDEST PUSH2 0x31AD SWAP2 POP PUSH1 0x20 RETURNDATASIZE PUSH1 0x20 GT PUSH2 0x1D69 JUMPI PUSH2 0x1D5B DUP2 DUP4 PUSH2 0x17DD JUMP JUMPDEST CODESIZE PUSH2 0x2FE3 JUMP JUMPDEST DUP2 PUSH2 0x31BD SWAP2 PUSH2 0x17DD JUMP JUMPDEST CODESIZE PUSH2 0x2F9A JUMP JUMPDEST PUSH1 0x40 MLOAD PUSH4 0x6F143BE1 PUSH1 0xE0 SHL DUP2 MSTORE PUSH1 0x0 DUP1 MLOAD PUSH1 0x20 PUSH2 0x7C86 DUP4 CODECOPY DUP2 MLOAD SWAP2 MSTORE PUSH1 0x4 DUP3 ADD MSTORE SWAP1 SWAP3 POP PUSH1 0x20 DUP2 PUSH1 0x24 DUP2 DUP6 GAS DELEGATECALL DUP1 ISZERO PUSH2 0x21E3 JUMPI DUP4 SWAP1 PUSH2 0x320E JUMPI JUMPDEST PUSH2 0x3208 SWAP2 POP TIMESTAMP PUSH2 0x1D96 JUMP JUMPDEST SWAP2 PUSH2 0x2F3B JUMP JUMPDEST POP PUSH1 0x20 DUP2 RETURNDATASIZE PUSH1 0x20 GT PUSH2 0x323A JUMPI JUMPDEST DUP2 PUSH2 0x3228 PUSH1 0x20 SWAP4 DUP4 PUSH2 0x17DD JUMP JUMPDEST DUP2 ADD SUB SLT PUSH2 0x2126 JUMPI PUSH2 0x3208 SWAP1 MLOAD PUSH2 0x31FD JUMP JUMPDEST RETURNDATASIZE SWAP2 POP PUSH2 0x321B JUMP JUMPDEST PUSH2 0x325B SWAP2 POP PUSH1 0x20 RETURNDATASIZE PUSH1 0x20 GT PUSH2 0x8D6 JUMPI PUSH2 0x8C8 DUP2 DUP4 PUSH2 0x17DD JUMP JUMPDEST CODESIZE PUSH2 0x2F34 JUMP JUMPDEST PUSH2 0x1BE0 SWAP3 POP PUSH1 0x0 DUP1 MLOAD PUSH1 0x20 PUSH2 0x7C86 DUP4 CODECOPY DUP2 MLOAD SWAP2 MSTORE SWAP2 POP PUSH2 0x6618 JUMP JUMPDEST PUSH2 0x3295 SWAP2 POP PUSH1 0x20 RETURNDATASIZE PUSH1 0x20 GT PUSH2 0x8D6 JUMPI PUSH2 0x8C8 DUP2 DUP4 PUSH2 0x17DD JUMP JUMPDEST CODESIZE PUSH2 0x2EDE JUMP JUMPDEST PUSH1 0x1 SLOAD PUSH1 0x40 MLOAD PUSH4 0xE05E5D5 PUSH1 0xE2 SHL DUP2 MSTORE PUSH1 0x1 PUSH1 0x1 PUSH1 0xA0 SHL SUB DUP1 DUP5 AND PUSH1 0x4 DUP4 ADD DUP2 SWAP1 MSTORE PUSH1 0x0 DUP1 MLOAD PUSH1 0x20 PUSH2 0x7CA6 DUP4 CODECOPY DUP2 MLOAD SWAP2 MSTORE PUSH1 0x24 DUP5 ADD MSTORE SWAP4 PUSH1 0x0 SWAP4 SWAP1 SWAP3 SWAP2 PUSH1 0x20 SWAP2 DUP4 SWAP2 PUSH1 0x44 SWAP2 DUP4 SWAP2 AND GAS STATICCALL SWAP1 DUP2 ISZERO PUSH2 0x21E3 JUMPI DUP4 SWAP2 PUSH2 0x3691 JUMPI JUMPDEST POP PUSH2 0x3676 JUMPI POP PUSH1 0x40 MLOAD PUSH4 0x157E6AD1 PUSH1 0xE2 SHL DUP2 MSTORE PUSH1 0x0 DUP1 MLOAD PUSH1 0x20 PUSH2 0x7CA6 DUP4 CODECOPY DUP2 MLOAD SWAP2 MSTORE PUSH1 0x4 DUP3 ADD MSTORE PUSH20 0x0 SWAP1 DUP3 SWAP1 PUSH1 0x20 DUP2 PUSH1 0x24 DUP2 DUP7 GAS DELEGATECALL SWAP1 DUP2 ISZERO PUSH2 0x212A JUMPI DUP3 SWAP2 PUSH2 0x3657 JUMPI JUMPDEST POP ISZERO PUSH2 0x35D8 JUMPI JUMPDEST PUSH1 0x1 SLOAD PUSH1 0x1 PUSH1 0x1 PUSH1 0xA0 SHL SUB AND SWAP1 DUP2 EXTCODESIZE ISZERO PUSH2 0x2082 JUMPI PUSH1 0x40 MLOAD PUSH4 0x24A6D6D PUSH1 0xE1 SHL DUP2 MSTORE PUSH1 0x4 DUP2 ADD DUP7 SWAP1 MSTORE PUSH1 0x0 DUP1 MLOAD PUSH1 0x20 PUSH2 0x7CA6 DUP4 CODECOPY DUP2 MLOAD SWAP2 MSTORE PUSH1 0x24 DUP3 ADD MSTORE PUSH1 0x1 PUSH1 0x44 DUP3 ADD MSTORE PUSH1 0x64 DUP2 ADD DUP6 SWAP1 MSTORE SWAP2 DUP2 SWAP1 DUP4 SWAP1 PUSH1 0x84 SWAP1 DUP3 SWAP1 DUP5 SWAP1 GAS CALL SWAP2 DUP3 PUSH2 0x35C8 JUMPI JUMPDEST POP SWAP1 PUSH2 0x33BB JUMPI POP POP POP POP JUMP JUMPDEST PUSH1 0x40 MLOAD PUSH4 0x737FEE1 PUSH1 0xE4 SHL DUP2 MSTORE PUSH1 0x0 DUP1 MLOAD PUSH1 0x20 PUSH2 0x7CA6 DUP4 CODECOPY DUP2 MLOAD SWAP2 MSTORE PUSH1 0x4 DUP3 ADD MSTORE PUSH1 0x20 DUP2 PUSH1 0x24 DUP2 DUP7 GAS DELEGATECALL SWAP1 DUP2 ISZERO PUSH2 0x212A JUMPI SWAP1 PUSH2 0xFFFF SWAP2 DUP4 SWAP2 PUSH2 0x35A9 JUMPI JUMPDEST POP AND SWAP2 DUP3 PUSH2 0x343A JUMPI JUMPDEST POP POP PUSH1 0x40 PUSH1 0x0 DUP1 MLOAD PUSH1 0x20 PUSH2 0x7CA6 DUP4 CODECOPY DUP2 MLOAD SWAP2 MSTORE SWAP4 SWAP3 PUSH1 0x0 DUP1 MLOAD PUSH1 0x20 PUSH2 0x7D66 DUP4 CODECOPY DUP2 MLOAD SWAP2 MSTORE SWAP3 DUP3 MLOAD SWAP2 DUP3 MSTORE PUSH1 0x20 DUP3 ADD MSTORE LOG3 CODESIZE DUP1 DUP1 DUP1 PUSH2 0x1F06 JUMP JUMPDEST DUP2 PUSH1 0x24 SWAP2 PUSH1 0x40 MLOAD SWAP3 DUP4 DUP1 SWAP3 PUSH4 0x54B8D5E3 PUSH1 0xE0 SHL DUP3 MSTORE PUSH1 0x0 DUP1 MLOAD PUSH1 0x20 PUSH2 0x7CA6 DUP4 CODECOPY DUP2 MLOAD SWAP2 MSTORE PUSH1 0x4 DUP4 ADD MSTORE GAS DELEGATECALL SWAP1 DUP2 ISZERO PUSH2 0x212A JUMPI DUP3 SWAP2 PUSH2 0x3520 JUMPI JUMPDEST POP PUSH1 0x40 MLOAD PUSH2 0x34A2 PUSH1 0x27 DUP3 PUSH1 0x20 DUP2 ADD SWAP5 PUSH7 0x2130B233B29D1 PUSH1 0xCD SHL DUP7 MSTORE PUSH2 0x1FF3 DUP2 MLOAD DUP1 SWAP3 PUSH1 0x20 DUP7 DUP7 ADD SWAP2 ADD PUSH2 0x1DC8 JUMP JUMPDEST PUSH1 0x1 SLOAD PUSH1 0x1 PUSH1 0x1 PUSH1 0xA0 SHL SUB AND SWAP1 DUP2 EXTCODESIZE ISZERO PUSH2 0x2085 JUMPI DUP4 SWAP2 PUSH2 0x34F8 SWAP2 DUP4 PUSH1 0x84 DUP11 PUSH1 0x40 MLOAD SWAP8 DUP9 SWAP7 DUP8 SWAP6 DUP7 SWAP4 PUSH4 0xECCBD35 PUSH1 0xE1 SHL DUP6 MSTORE PUSH1 0x4 DUP6 ADD MSTORE DUP13 PUSH1 0x24 DUP6 ADD MSTORE PUSH1 0x60 PUSH1 0x44 DUP6 ADD MSTORE MLOAD DUP1 SWAP3 DUP2 PUSH1 0x64 DUP7 ADD MSTORE DUP6 DUP6 ADD SWAP1 PUSH2 0x1DC8 JUMP JUMPDEST PUSH1 0x1F ADD PUSH1 0x1F NOT AND DUP2 ADD SUB ADD SWAP3 GAS CALL ISZERO PUSH2 0x3401 JUMPI PUSH2 0x3516 DUP3 DUP1 SWAP3 PUSH2 0x17DD JUMP JUMPDEST PUSH2 0x2082 JUMPI DUP1 PUSH2 0x3401 JUMP JUMPDEST SWAP1 POP RETURNDATASIZE DUP1 DUP4 DUP4 RETURNDATACOPY PUSH2 0x3531 DUP2 DUP4 PUSH2 0x17DD JUMP JUMPDEST DUP2 ADD SWAP1 PUSH1 0x20 DUP2 DUP4 SUB SLT PUSH2 0x2126 JUMPI DUP1 MLOAD SWAP1 PUSH1 0x1 PUSH1 0x1 PUSH1 0x40 SHL SUB DUP3 GT PUSH2 0x2085 JUMPI ADD DUP2 PUSH1 0x1F DUP3 ADD SLT ISZERO PUSH2 0x2126 JUMPI DUP1 MLOAD SWAP1 PUSH1 0x1 PUSH1 0x1 PUSH1 0x40 SHL SUB DUP3 GT PUSH2 0x2112 JUMPI PUSH1 0x40 MLOAD SWAP3 PUSH2 0x3584 PUSH1 0x1F DUP5 ADD PUSH1 0x1F NOT AND PUSH1 0x20 ADD DUP6 PUSH2 0x17DD JUMP JUMPDEST DUP3 DUP5 MSTORE PUSH1 0x20 DUP4 DUP4 ADD ADD GT PUSH2 0x2085 JUMPI SWAP1 PUSH2 0x35A3 SWAP2 PUSH1 0x20 DUP1 DUP6 ADD SWAP2 ADD PUSH2 0x1DC8 JUMP JUMPDEST CODESIZE PUSH2 0x3473 JUMP JUMPDEST PUSH2 0x35C2 SWAP2 POP PUSH1 0x20 RETURNDATASIZE PUSH1 0x20 GT PUSH2 0x1D69 JUMPI PUSH2 0x1D5B DUP2 DUP4 PUSH2 0x17DD JUMP JUMPDEST CODESIZE PUSH2 0x33F8 JUMP JUMPDEST DUP2 PUSH2 0x35D2 SWAP2 PUSH2 0x17DD JUMP JUMPDEST CODESIZE PUSH2 0x33AF JUMP JUMPDEST PUSH1 0x40 MLOAD PUSH4 0x6F143BE1 PUSH1 0xE0 SHL DUP2 MSTORE PUSH1 0x0 DUP1 MLOAD PUSH1 0x20 PUSH2 0x7CA6 DUP4 CODECOPY DUP2 MLOAD SWAP2 MSTORE PUSH1 0x4 DUP3 ADD MSTORE SWAP1 SWAP3 POP PUSH1 0x20 DUP2 PUSH1 0x24 DUP2 DUP6 GAS DELEGATECALL DUP1 ISZERO PUSH2 0x21E3 JUMPI DUP4 SWAP1 PUSH2 0x3623 JUMPI JUMPDEST PUSH2 0x361D SWAP2 POP TIMESTAMP PUSH2 0x1D96 JUMP JUMPDEST SWAP2 PUSH2 0x3350 JUMP JUMPDEST POP PUSH1 0x20 DUP2 RETURNDATASIZE PUSH1 0x20 GT PUSH2 0x364F JUMPI JUMPDEST DUP2 PUSH2 0x363D PUSH1 0x20 SWAP4 DUP4 PUSH2 0x17DD JUMP JUMPDEST DUP2 ADD SUB SLT PUSH2 0x2126 JUMPI PUSH2 0x361D SWAP1 MLOAD PUSH2 0x3612 JUMP JUMPDEST RETURNDATASIZE SWAP2 POP PUSH2 0x3630 JUMP JUMPDEST PUSH2 0x3670 SWAP2 POP PUSH1 0x20 RETURNDATASIZE PUSH1 0x20 GT PUSH2 0x8D6 JUMPI PUSH2 0x8C8 DUP2 DUP4 PUSH2 0x17DD JUMP JUMPDEST CODESIZE PUSH2 0x3349 JUMP JUMPDEST PUSH2 0x1BE0 SWAP3 POP PUSH1 0x0 DUP1 MLOAD PUSH1 0x20 PUSH2 0x7CA6 DUP4 CODECOPY DUP2 MLOAD SWAP2 MSTORE SWAP2 POP PUSH2 0x6618 JUMP JUMPDEST PUSH2 0x36AA SWAP2 POP PUSH1 0x20 RETURNDATASIZE PUSH1 0x20 GT PUSH2 0x8D6 JUMPI PUSH2 0x8C8 DUP2 DUP4 PUSH2 0x17DD JUMP JUMPDEST CODESIZE PUSH2 0x32F3 JUMP JUMPDEST PUSH1 0x1 SLOAD PUSH1 0x40 MLOAD PUSH4 0xE05E5D5 PUSH1 0xE2 SHL DUP2 MSTORE PUSH1 0x1 PUSH1 0x1 PUSH1 0xA0 SHL SUB DUP1 DUP5 AND PUSH1 0x4 DUP4 ADD DUP2 SWAP1 MSTORE PUSH1 0x0 DUP1 MLOAD PUSH1 0x20 PUSH2 0x7D86 DUP4 CODECOPY DUP2 MLOAD SWAP2 MSTORE PUSH1 0x24 DUP5 ADD MSTORE SWAP4 PUSH1 0x0 SWAP4 SWAP1 SWAP3 SWAP2 PUSH1 0x20 SWAP2 DUP4 SWAP2 PUSH1 0x44 SWAP2 DUP4 SWAP2 AND GAS STATICCALL SWAP1 DUP2 ISZERO PUSH2 0x21E3 JUMPI DUP4 SWAP2 PUSH2 0x3AA6 JUMPI JUMPDEST POP PUSH2 0x3A8B JUMPI POP PUSH1 0x40 MLOAD PUSH4 0x157E6AD1 PUSH1 0xE2 SHL DUP2 MSTORE PUSH1 0x0 DUP1 MLOAD PUSH1 0x20 PUSH2 0x7D86 DUP4 CODECOPY DUP2 MLOAD SWAP2 MSTORE PUSH1 0x4 DUP3 ADD MSTORE PUSH20 0x0 SWAP1 DUP3 SWAP1 PUSH1 0x20 DUP2 PUSH1 0x24 DUP2 DUP7 GAS DELEGATECALL SWAP1 DUP2 ISZERO PUSH2 0x212A JUMPI DUP3 SWAP2 PUSH2 0x3A6C JUMPI JUMPDEST POP ISZERO PUSH2 0x39ED JUMPI JUMPDEST PUSH1 0x1 SLOAD PUSH1 0x1 PUSH1 0x1 PUSH1 0xA0 SHL SUB AND SWAP1 DUP2 EXTCODESIZE ISZERO PUSH2 0x2082 JUMPI PUSH1 0x40 MLOAD PUSH4 0x24A6D6D PUSH1 0xE1 SHL DUP2 MSTORE PUSH1 0x4 DUP2 ADD DUP7 SWAP1 MSTORE PUSH1 0x0 DUP1 MLOAD PUSH1 0x20 PUSH2 0x7D86 DUP4 CODECOPY DUP2 MLOAD SWAP2 MSTORE PUSH1 0x24 DUP3 ADD MSTORE PUSH1 0x1 PUSH1 0x44 DUP3 ADD MSTORE PUSH1 0x64 DUP2 ADD DUP6 SWAP1 MSTORE SWAP2 DUP2 SWAP1 DUP4 SWAP1 PUSH1 0x84 SWAP1 DUP3 SWAP1 DUP5 SWAP1 GAS CALL SWAP2 DUP3 PUSH2 0x39DD JUMPI JUMPDEST POP SWAP1 PUSH2 0x37D0 JUMPI POP POP POP POP JUMP JUMPDEST PUSH1 0x40 MLOAD PUSH4 0x737FEE1 PUSH1 0xE4 SHL DUP2 MSTORE PUSH1 0x0 DUP1 MLOAD PUSH1 0x20 PUSH2 0x7D86 DUP4 CODECOPY DUP2 MLOAD SWAP2 MSTORE PUSH1 0x4 DUP3 ADD MSTORE PUSH1 0x20 DUP2 PUSH1 0x24 DUP2 DUP7 GAS DELEGATECALL SWAP1 DUP2 ISZERO PUSH2 0x212A JUMPI SWAP1 PUSH2 0xFFFF SWAP2 DUP4 SWAP2 PUSH2 0x39BE JUMPI JUMPDEST POP AND SWAP2 DUP3 PUSH2 0x384F JUMPI JUMPDEST POP POP PUSH1 0x40 PUSH1 0x0 DUP1 MLOAD PUSH1 0x20 PUSH2 0x7D86 DUP4 CODECOPY DUP2 MLOAD SWAP2 MSTORE SWAP4 SWAP3 PUSH1 0x0 DUP1 MLOAD PUSH1 0x20 PUSH2 0x7D66 DUP4 CODECOPY DUP2 MLOAD SWAP2 MSTORE SWAP3 DUP3 MLOAD SWAP2 DUP3 MSTORE PUSH1 0x20 DUP3 ADD MSTORE LOG3 CODESIZE DUP1 DUP1 DUP1 PUSH2 0x1F06 JUMP JUMPDEST DUP2 PUSH1 0x24 SWAP2 PUSH1 0x40 MLOAD SWAP3 DUP4 DUP1 SWAP3 PUSH4 0x54B8D5E3 PUSH1 0xE0 SHL DUP3 MSTORE PUSH1 0x0 DUP1 MLOAD PUSH1 0x20 PUSH2 0x7D86 DUP4 CODECOPY DUP2 MLOAD SWAP2 MSTORE PUSH1 0x4 DUP4 ADD MSTORE GAS DELEGATECALL SWAP1 DUP2 ISZERO PUSH2 0x212A JUMPI DUP3 SWAP2 PUSH2 0x3935 JUMPI JUMPDEST POP PUSH1 0x40 MLOAD PUSH2 0x38B7 PUSH1 0x27 DUP3 PUSH1 0x20 DUP2 ADD SWAP5 PUSH7 0x2130B233B29D1 PUSH1 0xCD SHL DUP7 MSTORE PUSH2 0x1FF3 DUP2 MLOAD DUP1 SWAP3 PUSH1 0x20 DUP7 DUP7 ADD SWAP2 ADD PUSH2 0x1DC8 JUMP JUMPDEST PUSH1 0x1 SLOAD PUSH1 0x1 PUSH1 0x1 PUSH1 0xA0 SHL SUB AND SWAP1 DUP2 EXTCODESIZE ISZERO PUSH2 0x2085 JUMPI DUP4 SWAP2 PUSH2 0x390D SWAP2 DUP4 PUSH1 0x84 DUP11 PUSH1 0x40 MLOAD SWAP8 DUP9 SWAP7 DUP8 SWAP6 DUP7 SWAP4 PUSH4 0xECCBD35 PUSH1 0xE1 SHL DUP6 MSTORE PUSH1 0x4 DUP6 ADD MSTORE DUP13 PUSH1 0x24 DUP6 ADD MSTORE PUSH1 0x60 PUSH1 0x44 DUP6 ADD MSTORE MLOAD DUP1 SWAP3 DUP2 PUSH1 0x64 DUP7 ADD MSTORE DUP6 DUP6 ADD SWAP1 PUSH2 0x1DC8 JUMP JUMPDEST PUSH1 0x1F ADD PUSH1 0x1F NOT AND DUP2 ADD SUB ADD SWAP3 GAS CALL ISZERO PUSH2 0x3816 JUMPI PUSH2 0x392B DUP3 DUP1 SWAP3 PUSH2 0x17DD JUMP JUMPDEST PUSH2 0x2082 JUMPI DUP1 PUSH2 0x3816 JUMP JUMPDEST SWAP1 POP RETURNDATASIZE DUP1 DUP4 DUP4 RETURNDATACOPY PUSH2 0x3946 DUP2 DUP4 PUSH2 0x17DD JUMP JUMPDEST DUP2 ADD SWAP1 PUSH1 0x20 DUP2 DUP4 SUB SLT PUSH2 0x2126 JUMPI DUP1 MLOAD SWAP1 PUSH1 0x1 PUSH1 0x1 PUSH1 0x40 SHL SUB DUP3 GT PUSH2 0x2085 JUMPI ADD DUP2 PUSH1 0x1F DUP3 ADD SLT ISZERO PUSH2 0x2126 JUMPI DUP1 MLOAD SWAP1 PUSH1 0x1 PUSH1 0x1 PUSH1 0x40 SHL SUB DUP3 GT PUSH2 0x2112 JUMPI PUSH1 0x40 MLOAD SWAP3 PUSH2 0x3999 PUSH1 0x1F DUP5 ADD PUSH1 0x1F NOT AND PUSH1 0x20 ADD DUP6 PUSH2 0x17DD JUMP JUMPDEST DUP3 DUP5 MSTORE PUSH1 0x20 DUP4 DUP4 ADD ADD GT PUSH2 0x2085 JUMPI SWAP1 PUSH2 0x39B8 SWAP2 PUSH1 0x20 DUP1 DUP6 ADD SWAP2 ADD PUSH2 0x1DC8 JUMP JUMPDEST CODESIZE PUSH2 0x3888 JUMP JUMPDEST PUSH2 0x39D7 SWAP2 POP PUSH1 0x20 RETURNDATASIZE PUSH1 0x20 GT PUSH2 0x1D69 JUMPI PUSH2 0x1D5B DUP2 DUP4 PUSH2 0x17DD JUMP JUMPDEST CODESIZE PUSH2 0x380D JUMP JUMPDEST DUP2 PUSH2 0x39E7 SWAP2 PUSH2 0x17DD JUMP JUMPDEST CODESIZE PUSH2 0x37C4 JUMP JUMPDEST PUSH1 0x40 MLOAD PUSH4 0x6F143BE1 PUSH1 0xE0 SHL DUP2 MSTORE PUSH1 0x0 DUP1 MLOAD PUSH1 0x20 PUSH2 0x7D86 DUP4 CODECOPY DUP2 MLOAD SWAP2 MSTORE PUSH1 0x4 DUP3 ADD MSTORE SWAP1 SWAP3 POP PUSH1 0x20 DUP2 PUSH1 0x24 DUP2 DUP6 GAS DELEGATECALL DUP1 ISZERO PUSH2 0x21E3 JUMPI DUP4 SWAP1 PUSH2 0x3A38 JUMPI JUMPDEST PUSH2 0x3A32 SWAP2 POP TIMESTAMP PUSH2 0x1D96 JUMP JUMPDEST SWAP2 PUSH2 0x3765 JUMP JUMPDEST POP PUSH1 0x20 DUP2 RETURNDATASIZE PUSH1 0x20 GT PUSH2 0x3A64 JUMPI JUMPDEST DUP2 PUSH2 0x3A52 PUSH1 0x20 SWAP4 DUP4 PUSH2 0x17DD JUMP JUMPDEST DUP2 ADD SUB SLT PUSH2 0x2126 JUMPI PUSH2 0x3A32 SWAP1 MLOAD PUSH2 0x3A27 JUMP JUMPDEST RETURNDATASIZE SWAP2 POP PUSH2 0x3A45 JUMP JUMPDEST PUSH2 0x3A85 SWAP2 POP PUSH1 0x20 RETURNDATASIZE PUSH1 0x20 GT PUSH2 0x8D6 JUMPI PUSH2 0x8C8 DUP2 DUP4 PUSH2 0x17DD JUMP JUMPDEST CODESIZE PUSH2 0x375E JUMP JUMPDEST PUSH2 0x1BE0 SWAP3 POP PUSH1 0x0 DUP1 MLOAD PUSH1 0x20 PUSH2 0x7D86 DUP4 CODECOPY DUP2 MLOAD SWAP2 MSTORE SWAP2 POP PUSH2 0x6618 JUMP JUMPDEST PUSH2 0x3ABF SWAP2 POP PUSH1 0x20 RETURNDATASIZE PUSH1 0x20 GT PUSH2 0x8D6 JUMPI PUSH2 0x8C8 DUP2 DUP4 PUSH2 0x17DD JUMP JUMPDEST CODESIZE PUSH2 0x3708 JUMP JUMPDEST PUSH1 0x1 SLOAD PUSH1 0x40 MLOAD PUSH4 0xE05E5D5 PUSH1 0xE2 SHL DUP2 MSTORE PUSH1 0x1 PUSH1 0x1 PUSH1 0xA0 SHL SUB DUP1 DUP5 AND PUSH1 0x4 DUP4 ADD DUP2 SWAP1 MSTORE PUSH1 0x0 DUP1 MLOAD PUSH1 0x20 PUSH2 0x7DA6 DUP4 CODECOPY DUP2 MLOAD SWAP2 MSTORE PUSH1 0x24 DUP5 ADD MSTORE SWAP4 PUSH1 0x0 SWAP4 SWAP1 SWAP3 SWAP2 PUSH1 0x20 SWAP2 DUP4 SWAP2 PUSH1 0x44 SWAP2 DUP4 SWAP2 AND GAS STATICCALL SWAP1 DUP2 ISZERO PUSH2 0x21E3 JUMPI DUP4 SWAP2 PUSH2 0x3EBB JUMPI JUMPDEST POP PUSH2 0x3EA0 JUMPI POP PUSH1 0x40 MLOAD PUSH4 0x157E6AD1 PUSH1 0xE2 SHL DUP2 MSTORE PUSH1 0x0 DUP1 MLOAD PUSH1 0x20 PUSH2 0x7DA6 DUP4 CODECOPY DUP2 MLOAD SWAP2 MSTORE PUSH1 0x4 DUP3 ADD MSTORE PUSH20 0x0 SWAP1 DUP3 SWAP1 PUSH1 0x20 DUP2 PUSH1 0x24 DUP2 DUP7 GAS DELEGATECALL SWAP1 DUP2 ISZERO PUSH2 0x212A JUMPI DUP3 SWAP2 PUSH2 0x3E81 JUMPI JUMPDEST POP ISZERO PUSH2 0x3E02 JUMPI JUMPDEST PUSH1 0x1 SLOAD PUSH1 0x1 PUSH1 0x1 PUSH1 0xA0 SHL SUB AND SWAP1 DUP2 EXTCODESIZE ISZERO PUSH2 0x2082 JUMPI PUSH1 0x40 MLOAD PUSH4 0x24A6D6D PUSH1 0xE1 SHL DUP2 MSTORE PUSH1 0x4 DUP2 ADD DUP7 SWAP1 MSTORE PUSH1 0x0 DUP1 MLOAD PUSH1 0x20 PUSH2 0x7DA6 DUP4 CODECOPY DUP2 MLOAD SWAP2 MSTORE PUSH1 0x24 DUP3 ADD MSTORE PUSH1 0x1 PUSH1 0x44 DUP3 ADD MSTORE PUSH1 0x64 DUP2 ADD DUP6 SWAP1 MSTORE SWAP2 DUP2 SWAP1 DUP4 SWAP1 PUSH1 0x84 SWAP1 DUP3 SWAP1 DUP5 SWAP1 GAS CALL SWAP2 DUP3 PUSH2 0x3DF2 JUMPI JUMPDEST POP SWAP1 PUSH2 0x3BE5 JUMPI POP POP POP POP JUMP JUMPDEST PUSH1 0x40 MLOAD PUSH4 0x737FEE1 PUSH1 0xE4 SHL DUP2 MSTORE PUSH1 0x0 DUP1 MLOAD PUSH1 0x20 PUSH2 0x7DA6 DUP4 CODECOPY DUP2 MLOAD SWAP2 MSTORE PUSH1 0x4 DUP3 ADD MSTORE PUSH1 0x20 DUP2 PUSH1 0x24 DUP2 DUP7 GAS DELEGATECALL SWAP1 DUP2 ISZERO PUSH2 0x212A JUMPI SWAP1 PUSH2 0xFFFF SWAP2 DUP4 SWAP2 PUSH2 0x3DD3 JUMPI JUMPDEST POP AND SWAP2 DUP3 PUSH2 0x3C64 JUMPI JUMPDEST POP POP PUSH1 0x40 PUSH1 0x0 DUP1 MLOAD PUSH1 0x20 PUSH2 0x7DA6 DUP4 CODECOPY DUP2 MLOAD SWAP2 MSTORE SWAP4 SWAP3 PUSH1 0x0 DUP1 MLOAD PUSH1 0x20 PUSH2 0x7D66 DUP4 CODECOPY DUP2 MLOAD SWAP2 MSTORE SWAP3 DUP3 MLOAD SWAP2 DUP3 MSTORE PUSH1 0x20 DUP3 ADD MSTORE LOG3 CODESIZE DUP1 DUP1 DUP1 PUSH2 0x1F06 JUMP JUMPDEST DUP2 PUSH1 0x24 SWAP2 PUSH1 0x40 MLOAD SWAP3 DUP4 DUP1 SWAP3 PUSH4 0x54B8D5E3 PUSH1 0xE0 SHL DUP3 MSTORE PUSH1 0x0 DUP1 MLOAD PUSH1 0x20 PUSH2 0x7DA6 DUP4 CODECOPY DUP2 MLOAD SWAP2 MSTORE PUSH1 0x4 DUP4 ADD MSTORE GAS DELEGATECALL SWAP1 DUP2 ISZERO PUSH2 0x212A JUMPI DUP3 SWAP2 PUSH2 0x3D4A JUMPI JUMPDEST POP PUSH1 0x40 MLOAD PUSH2 0x3CCC PUSH1 0x27 DUP3 PUSH1 0x20 DUP2 ADD SWAP5 PUSH7 0x2130B233B29D1 PUSH1 0xCD SHL DUP7 MSTORE PUSH2 0x1FF3 DUP2 MLOAD DUP1 SWAP3 PUSH1 0x20 DUP7 DUP7 ADD SWAP2 ADD PUSH2 0x1DC8 JUMP JUMPDEST PUSH1 0x1 SLOAD PUSH1 0x1 PUSH1 0x1 PUSH1 0xA0 SHL SUB AND SWAP1 DUP2 EXTCODESIZE ISZERO PUSH2 0x2085 JUMPI DUP4 SWAP2 PUSH2 0x3D22 SWAP2 DUP4 PUSH1 0x84 DUP11 PUSH1 0x40 MLOAD SWAP8 DUP9 SWAP7 DUP8 SWAP6 DUP7 SWAP4 PUSH4 0xECCBD35 PUSH1 0xE1 SHL DUP6 MSTORE PUSH1 0x4 DUP6 ADD MSTORE DUP13 PUSH1 0x24 DUP6 ADD MSTORE PUSH1 0x60 PUSH1 0x44 DUP6 ADD MSTORE MLOAD DUP1 SWAP3 DUP2 PUSH1 0x64 DUP7 ADD MSTORE DUP6 DUP6 ADD SWAP1 PUSH2 0x1DC8 JUMP JUMPDEST PUSH1 0x1F ADD PUSH1 0x1F NOT AND DUP2 ADD SUB ADD SWAP3 GAS CALL ISZERO PUSH2 0x3C2B JUMPI PUSH2 0x3D40 DUP3 DUP1 SWAP3 PUSH2 0x17DD JUMP JUMPDEST PUSH2 0x2082 JUMPI DUP1 PUSH2 0x3C2B JUMP JUMPDEST SWAP1 POP RETURNDATASIZE DUP1 DUP4 DUP4 RETURNDATACOPY PUSH2 0x3D5B DUP2 DUP4 PUSH2 0x17DD JUMP JUMPDEST DUP2 ADD SWAP1 PUSH1 0x20 DUP2 DUP4 SUB SLT PUSH2 0x2126 JUMPI DUP1 MLOAD SWAP1 PUSH1 0x1 PUSH1 0x1 PUSH1 0x40 SHL SUB DUP3 GT PUSH2 0x2085 JUMPI ADD DUP2 PUSH1 0x1F DUP3 ADD SLT ISZERO PUSH2 0x2126 JUMPI DUP1 MLOAD SWAP1 PUSH1 0x1 PUSH1 0x1 PUSH1 0x40 SHL SUB DUP3 GT PUSH2 0x2112 JUMPI PUSH1 0x40 MLOAD SWAP3 PUSH2 0x3DAE PUSH1 0x1F DUP5 ADD PUSH1 0x1F NOT AND PUSH1 0x20 ADD DUP6 PUSH2 0x17DD JUMP JUMPDEST DUP3 DUP5 MSTORE PUSH1 0x20 DUP4 DUP4 ADD ADD GT PUSH2 0x2085 JUMPI SWAP1 PUSH2 0x3DCD SWAP2 PUSH1 0x20 DUP1 DUP6 ADD SWAP2 ADD PUSH2 0x1DC8 JUMP JUMPDEST CODESIZE PUSH2 0x3C9D JUMP JUMPDEST PUSH2 0x3DEC SWAP2 POP PUSH1 0x20 RETURNDATASIZE PUSH1 0x20 GT PUSH2 0x1D69 JUMPI PUSH2 0x1D5B DUP2 DUP4 PUSH2 0x17DD JUMP JUMPDEST CODESIZE PUSH2 0x3C22 JUMP JUMPDEST DUP2 PUSH2 0x3DFC SWAP2 PUSH2 0x17DD JUMP JUMPDEST CODESIZE PUSH2 0x3BD9 JUMP JUMPDEST PUSH1 0x40 MLOAD PUSH4 0x6F143BE1 PUSH1 0xE0 SHL DUP2 MSTORE PUSH1 0x0 DUP1 MLOAD PUSH1 0x20 PUSH2 0x7DA6 DUP4 CODECOPY DUP2 MLOAD SWAP2 MSTORE PUSH1 0x4 DUP3 ADD MSTORE SWAP1 SWAP3 POP PUSH1 0x20 DUP2 PUSH1 0x24 DUP2 DUP6 GAS DELEGATECALL DUP1 ISZERO PUSH2 0x21E3 JUMPI DUP4 SWAP1 PUSH2 0x3E4D JUMPI JUMPDEST PUSH2 0x3E47 SWAP2 POP TIMESTAMP PUSH2 0x1D96 JUMP JUMPDEST SWAP2 PUSH2 0x3B7A JUMP JUMPDEST POP PUSH1 0x20 DUP2 RETURNDATASIZE PUSH1 0x20 GT PUSH2 0x3E79 JUMPI JUMPDEST DUP2 PUSH2 0x3E67 PUSH1 0x20 SWAP4 DUP4 PUSH2 0x17DD JUMP JUMPDEST DUP2 ADD SUB SLT PUSH2 0x2126 JUMPI PUSH2 0x3E47 SWAP1 MLOAD PUSH2 0x3E3C JUMP JUMPDEST RETURNDATASIZE SWAP2 POP PUSH2 0x3E5A JUMP JUMPDEST PUSH2 0x3E9A SWAP2 POP PUSH1 0x20 RETURNDATASIZE PUSH1 0x20 GT PUSH2 0x8D6 JUMPI PUSH2 0x8C8 DUP2 DUP4 PUSH2 0x17DD JUMP JUMPDEST CODESIZE PUSH2 0x3B73 JUMP JUMPDEST PUSH2 0x1BE0 SWAP3 POP PUSH1 0x0 DUP1 MLOAD PUSH1 0x20 PUSH2 0x7DA6 DUP4 CODECOPY DUP2 MLOAD SWAP2 MSTORE SWAP2 POP PUSH2 0x6618 JUMP JUMPDEST PUSH2 0x3ED4 SWAP2 POP PUSH1 0x20 RETURNDATASIZE PUSH1 0x20 GT PUSH2 0x8D6 JUMPI PUSH2 0x8C8 DUP2 DUP4 PUSH2 0x17DD JUMP JUMPDEST CODESIZE PUSH2 0x3B1D JUMP JUMPDEST PUSH1 0x1 SLOAD PUSH1 0x40 MLOAD PUSH4 0xE05E5D5 PUSH1 0xE2 SHL DUP2 MSTORE PUSH1 0x1 PUSH1 0x1 PUSH1 0xA0 SHL SUB DUP1 DUP5 AND PUSH1 0x4 DUP4 ADD DUP2 SWAP1 MSTORE PUSH1 0x0 DUP1 MLOAD PUSH1 0x20 PUSH2 0x7E26 DUP4 CODECOPY DUP2 MLOAD SWAP2 MSTORE PUSH1 0x24 DUP5 ADD MSTORE SWAP4 PUSH1 0x0 SWAP4 SWAP1 SWAP3 SWAP2 PUSH1 0x20 SWAP2 DUP4 SWAP2 PUSH1 0x44 SWAP2 DUP4 SWAP2 AND GAS STATICCALL SWAP1 DUP2 ISZERO PUSH2 0x21E3 JUMPI DUP4 SWAP2 PUSH2 0x42D0 JUMPI JUMPDEST POP PUSH2 0x42B5 JUMPI POP PUSH1 0x40 MLOAD PUSH4 0x157E6AD1 PUSH1 0xE2 SHL DUP2 MSTORE PUSH1 0x0 DUP1 MLOAD PUSH1 0x20 PUSH2 0x7E26 DUP4 CODECOPY DUP2 MLOAD SWAP2 MSTORE PUSH1 0x4 DUP3 ADD MSTORE PUSH20 0x0 SWAP1 DUP3 SWAP1 PUSH1 0x20 DUP2 PUSH1 0x24 DUP2 DUP7 GAS DELEGATECALL SWAP1 DUP2 ISZERO PUSH2 0x212A JUMPI DUP3 SWAP2 PUSH2 0x4296 JUMPI JUMPDEST POP ISZERO PUSH2 0x4217 JUMPI JUMPDEST PUSH1 0x1 SLOAD PUSH1 0x1 PUSH1 0x1 PUSH1 0xA0 SHL SUB AND SWAP1 DUP2 EXTCODESIZE ISZERO PUSH2 0x2082 JUMPI PUSH1 0x40 MLOAD PUSH4 0x24A6D6D PUSH1 0xE1 SHL DUP2 MSTORE PUSH1 0x4 DUP2 ADD DUP7 SWAP1 MSTORE PUSH1 0x0 DUP1 MLOAD PUSH1 0x20 PUSH2 0x7E26 DUP4 CODECOPY DUP2 MLOAD SWAP2 MSTORE PUSH1 0x24 DUP3 ADD MSTORE PUSH1 0x1 PUSH1 0x44 DUP3 ADD MSTORE PUSH1 0x64 DUP2 ADD DUP6 SWAP1 MSTORE SWAP2 DUP2 SWAP1 DUP4 SWAP1 PUSH1 0x84 SWAP1 DUP3 SWAP1 DUP5 SWAP1 GAS CALL SWAP2 DUP3 PUSH2 0x4207 JUMPI JUMPDEST POP SWAP1 PUSH2 0x3FFA JUMPI POP POP POP POP JUMP JUMPDEST PUSH1 0x40 MLOAD PUSH4 0x737FEE1 PUSH1 0xE4 SHL DUP2 MSTORE PUSH1 0x0 DUP1 MLOAD PUSH1 0x20 PUSH2 0x7E26 DUP4 CODECOPY DUP2 MLOAD SWAP2 MSTORE PUSH1 0x4 DUP3 ADD MSTORE PUSH1 0x20 DUP2 PUSH1 0x24 DUP2 DUP7 GAS DELEGATECALL SWAP1 DUP2 ISZERO PUSH2 0x212A JUMPI SWAP1 PUSH2 0xFFFF SWAP2 DUP4 SWAP2 PUSH2 0x41E8 JUMPI JUMPDEST POP AND SWAP2 DUP3 PUSH2 0x4079 JUMPI JUMPDEST POP POP PUSH1 0x40 PUSH1 0x0 DUP1 MLOAD PUSH1 0x20 PUSH2 0x7E26 DUP4 CODECOPY DUP2 MLOAD SWAP2 MSTORE SWAP4 SWAP3 PUSH1 0x0 DUP1 MLOAD PUSH1 0x20 PUSH2 0x7D66 DUP4 CODECOPY DUP2 MLOAD SWAP2 MSTORE SWAP3 DUP3 MLOAD SWAP2 DUP3 MSTORE PUSH1 0x20 DUP3 ADD MSTORE LOG3 CODESIZE DUP1 DUP1 DUP1 PUSH2 0x1F06 JUMP JUMPDEST DUP2 PUSH1 0x24 SWAP2 PUSH1 0x40 MLOAD SWAP3 DUP4 DUP1 SWAP3 PUSH4 0x54B8D5E3 PUSH1 0xE0 SHL DUP3 MSTORE PUSH1 0x0 DUP1 MLOAD PUSH1 0x20 PUSH2 0x7E26 DUP4 CODECOPY DUP2 MLOAD SWAP2 MSTORE PUSH1 0x4 DUP4 ADD MSTORE GAS DELEGATECALL SWAP1 DUP2 ISZERO PUSH2 0x212A JUMPI DUP3 SWAP2 PUSH2 0x415F JUMPI JUMPDEST POP PUSH1 0x40 MLOAD PUSH2 0x40E1 PUSH1 0x27 DUP3 PUSH1 0x20 DUP2 ADD SWAP5 PUSH7 0x2130B233B29D1 PUSH1 0xCD SHL DUP7 MSTORE PUSH2 0x1FF3 DUP2 MLOAD DUP1 SWAP3 PUSH1 0x20 DUP7 DUP7 ADD SWAP2 ADD PUSH2 0x1DC8 JUMP JUMPDEST PUSH1 0x1 SLOAD PUSH1 0x1 PUSH1 0x1 PUSH1 0xA0 SHL SUB AND SWAP1 DUP2 EXTCODESIZE ISZERO PUSH2 0x2085 JUMPI DUP4 SWAP2 PUSH2 0x4137 SWAP2 DUP4 PUSH1 0x84 DUP11 PUSH1 0x40 MLOAD SWAP8 DUP9 SWAP7 DUP8 SWAP6 DUP7 SWAP4 PUSH4 0xECCBD35 PUSH1 0xE1 SHL DUP6 MSTORE PUSH1 0x4 DUP6 ADD MSTORE DUP13 PUSH1 0x24 DUP6 ADD MSTORE PUSH1 0x60 PUSH1 0x44 DUP6 ADD MSTORE MLOAD DUP1 SWAP3 DUP2 PUSH1 0x64 DUP7 ADD MSTORE DUP6 DUP6 ADD SWAP1 PUSH2 0x1DC8 JUMP JUMPDEST PUSH1 0x1F ADD PUSH1 0x1F NOT AND DUP2 ADD SUB ADD SWAP3 GAS CALL ISZERO PUSH2 0x4040 JUMPI PUSH2 0x4155 DUP3 DUP1 SWAP3 PUSH2 0x17DD JUMP JUMPDEST PUSH2 0x2082 JUMPI DUP1 PUSH2 0x4040 JUMP JUMPDEST SWAP1 POP RETURNDATASIZE DUP1 DUP4 DUP4 RETURNDATACOPY PUSH2 0x4170 DUP2 DUP4 PUSH2 0x17DD JUMP JUMPDEST DUP2 ADD SWAP1 PUSH1 0x20 DUP2 DUP4 SUB SLT PUSH2 0x2126 JUMPI DUP1 MLOAD SWAP1 PUSH1 0x1 PUSH1 0x1 PUSH1 0x40 SHL SUB DUP3 GT PUSH2 0x2085 JUMPI ADD DUP2 PUSH1 0x1F DUP3 ADD SLT ISZERO PUSH2 0x2126 JUMPI DUP1 MLOAD SWAP1 PUSH1 0x1 PUSH1 0x1 PUSH1 0x40 SHL SUB DUP3 GT PUSH2 0x2112 JUMPI PUSH1 0x40 MLOAD SWAP3 PUSH2 0x41C3 PUSH1 0x1F DUP5 ADD PUSH1 0x1F NOT AND PUSH1 0x20 ADD DUP6 PUSH2 0x17DD JUMP JUMPDEST DUP3 DUP5 MSTORE PUSH1 0x20 DUP4 DUP4 ADD ADD GT PUSH2 0x2085 JUMPI SWAP1 PUSH2 0x41E2 SWAP2 PUSH1 0x20 DUP1 DUP6 ADD SWAP2 ADD PUSH2 0x1DC8 JUMP JUMPDEST CODESIZE PUSH2 0x40B2 JUMP JUMPDEST PUSH2 0x4201 SWAP2 POP PUSH1 0x20 RETURNDATASIZE PUSH1 0x20 GT PUSH2 0x1D69 JUMPI PUSH2 0x1D5B DUP2 DUP4 PUSH2 0x17DD JUMP JUMPDEST CODESIZE PUSH2 0x4037 JUMP JUMPDEST DUP2 PUSH2 0x4211 SWAP2 PUSH2 0x17DD JUMP JUMPDEST CODESIZE PUSH2 0x3FEE JUMP JUMPDEST PUSH1 0x40 MLOAD PUSH4 0x6F143BE1 PUSH1 0xE0 SHL DUP2 MSTORE PUSH1 0x0 DUP1 MLOAD PUSH1 0x20 PUSH2 0x7E26 DUP4 CODECOPY DUP2 MLOAD SWAP2 MSTORE PUSH1 0x4 DUP3 ADD MSTORE SWAP1 SWAP3 POP PUSH1 0x20 DUP2 PUSH1 0x24 DUP2 DUP6 GAS DELEGATECALL DUP1 ISZERO PUSH2 0x21E3 JUMPI DUP4 SWAP1 PUSH2 0x4262 JUMPI JUMPDEST PUSH2 0x425C SWAP2 POP TIMESTAMP PUSH2 0x1D96 JUMP JUMPDEST SWAP2 PUSH2 0x3F8F JUMP JUMPDEST POP PUSH1 0x20 DUP2 RETURNDATASIZE PUSH1 0x20 GT PUSH2 0x428E JUMPI JUMPDEST DUP2 PUSH2 0x427C PUSH1 0x20 SWAP4 DUP4 PUSH2 0x17DD JUMP JUMPDEST DUP2 ADD SUB SLT PUSH2 0x2126 JUMPI PUSH2 0x425C SWAP1 MLOAD PUSH2 0x4251 JUMP JUMPDEST RETURNDATASIZE SWAP2 POP PUSH2 0x426F JUMP JUMPDEST PUSH2 0x42AF SWAP2 POP PUSH1 0x20 RETURNDATASIZE PUSH1 0x20 GT PUSH2 0x8D6 JUMPI PUSH2 0x8C8 DUP2 DUP4 PUSH2 0x17DD JUMP JUMPDEST CODESIZE PUSH2 0x3F88 JUMP JUMPDEST PUSH2 0x1BE0 SWAP3 POP PUSH1 0x0 DUP1 MLOAD PUSH1 0x20 PUSH2 0x7E26 DUP4 CODECOPY DUP2 MLOAD SWAP2 MSTORE SWAP2 POP PUSH2 0x6618 JUMP JUMPDEST PUSH2 0x42E9 SWAP2 POP PUSH1 0x20 RETURNDATASIZE PUSH1 0x20 GT PUSH2 0x8D6 JUMPI PUSH2 0x8C8 DUP2 DUP4 PUSH2 0x17DD JUMP JUMPDEST CODESIZE PUSH2 0x3F32 JUMP JUMPDEST PUSH1 0x1 SLOAD PUSH1 0x40 MLOAD PUSH4 0xE05E5D5 PUSH1 0xE2 SHL DUP2 MSTORE PUSH1 0x1 PUSH1 0x1 PUSH1 0xA0 SHL SUB DUP1 DUP5 AND PUSH1 0x4 DUP4 ADD DUP2 SWAP1 MSTORE PUSH1 0x0 DUP1 MLOAD PUSH1 0x20 PUSH2 0x7DE6 DUP4 CODECOPY DUP2 MLOAD SWAP2 MSTORE PUSH1 0x24 DUP5 ADD MSTORE SWAP4 PUSH1 0x0 SWAP4 SWAP1 SWAP3 SWAP2 PUSH1 0x20 SWAP2 DUP4 SWAP2 PUSH1 0x44 SWAP2 DUP4 SWAP2 AND GAS STATICCALL SWAP1 DUP2 ISZERO PUSH2 0x21E3 JUMPI DUP4 SWAP2 PUSH2 0x46E5 JUMPI JUMPDEST POP PUSH2 0x46CA JUMPI POP PUSH1 0x40 MLOAD PUSH4 0x157E6AD1 PUSH1 0xE2 SHL DUP2 MSTORE PUSH1 0x0 DUP1 MLOAD PUSH1 0x20 PUSH2 0x7DE6 DUP4 CODECOPY DUP2 MLOAD SWAP2 MSTORE PUSH1 0x4 DUP3 ADD MSTORE PUSH20 0x0 SWAP1 DUP3 SWAP1 PUSH1 0x20 DUP2 PUSH1 0x24 DUP2 DUP7 GAS DELEGATECALL SWAP1 DUP2 ISZERO PUSH2 0x212A JUMPI DUP3 SWAP2 PUSH2 0x46AB JUMPI JUMPDEST POP ISZERO PUSH2 0x462C JUMPI JUMPDEST PUSH1 0x1 SLOAD PUSH1 0x1 PUSH1 0x1 PUSH1 0xA0 SHL SUB AND SWAP1 DUP2 EXTCODESIZE ISZERO PUSH2 0x2082 JUMPI PUSH1 0x40 MLOAD PUSH4 0x24A6D6D PUSH1 0xE1 SHL DUP2 MSTORE PUSH1 0x4 DUP2 ADD DUP7 SWAP1 MSTORE PUSH1 0x0 DUP1 MLOAD PUSH1 0x20 PUSH2 0x7DE6 DUP4 CODECOPY DUP2 MLOAD SWAP2 MSTORE PUSH1 0x24 DUP3 ADD MSTORE PUSH1 0x1 PUSH1 0x44 DUP3 ADD MSTORE PUSH1 0x64 DUP2 ADD DUP6 SWAP1 MSTORE SWAP2 DUP2 SWAP1 DUP4 SWAP1 PUSH1 0x84 SWAP1 DUP3 SWAP1 DUP5 SWAP1 GAS CALL SWAP2 DUP3 PUSH2 0x461C JUMPI JUMPDEST POP SWAP1 PUSH2 0x440F JUMPI POP POP POP POP JUMP JUMPDEST PUSH1 0x40 MLOAD PUSH4 0x737FEE1 PUSH1 0xE4 SHL DUP2 MSTORE PUSH1 0x0 DUP1 MLOAD PUSH1 0x20 PUSH2 0x7DE6 DUP4 CODECOPY DUP2 MLOAD SWAP2 MSTORE PUSH1 0x4 DUP3 ADD MSTORE PUSH1 0x20 DUP2 PUSH1 0x24 DUP2 DUP7 GAS DELEGATECALL SWAP1 DUP2 ISZERO PUSH2 0x212A JUMPI SWAP1 PUSH2 0xFFFF SWAP2 DUP4 SWAP2 PUSH2 0x45FD JUMPI JUMPDEST POP AND SWAP2 DUP3 PUSH2 0x448E JUMPI JUMPDEST POP POP PUSH1 0x40 PUSH1 0x0 DUP1 MLOAD PUSH1 0x20 PUSH2 0x7DE6 DUP4 CODECOPY DUP2 MLOAD SWAP2 MSTORE SWAP4 SWAP3 PUSH1 0x0 DUP1 MLOAD PUSH1 0x20 PUSH2 0x7D66 DUP4 CODECOPY DUP2 MLOAD SWAP2 MSTORE SWAP3 DUP3 MLOAD SWAP2 DUP3 MSTORE PUSH1 0x20 DUP3 ADD MSTORE LOG3 CODESIZE DUP1 DUP1 DUP1 PUSH2 0x1F06 JUMP JUMPDEST DUP2 PUSH1 0x24 SWAP2 PUSH1 0x40 MLOAD SWAP3 DUP4 DUP1 SWAP3 PUSH4 0x54B8D5E3 PUSH1 0xE0 SHL DUP3 MSTORE PUSH1 0x0 DUP1 MLOAD PUSH1 0x20 PUSH2 0x7DE6 DUP4 CODECOPY DUP2 MLOAD SWAP2 MSTORE PUSH1 0x4 DUP4 ADD MSTORE GAS DELEGATECALL SWAP1 DUP2 ISZERO PUSH2 0x212A JUMPI DUP3 SWAP2 PUSH2 0x4574 JUMPI JUMPDEST POP PUSH1 0x40 MLOAD PUSH2 0x44F6 PUSH1 0x27 DUP3 PUSH1 0x20 DUP2 ADD SWAP5 PUSH7 0x2130B233B29D1 PUSH1 0xCD SHL DUP7 MSTORE PUSH2 0x1FF3 DUP2 MLOAD DUP1 SWAP3 PUSH1 0x20 DUP7 DUP7 ADD SWAP2 ADD PUSH2 0x1DC8 JUMP JUMPDEST PUSH1 0x1 SLOAD PUSH1 0x1 PUSH1 0x1 PUSH1 0xA0 SHL SUB AND SWAP1 DUP2 EXTCODESIZE ISZERO PUSH2 0x2085 JUMPI DUP4 SWAP2 PUSH2 0x454C SWAP2 DUP4 PUSH1 0x84 DUP11 PUSH1 0x40 MLOAD SWAP8 DUP9 SWAP7 DUP8 SWAP6 DUP7 SWAP4 PUSH4 0xECCBD35 PUSH1 0xE1 SHL DUP6 MSTORE PUSH1 0x4 DUP6 ADD MSTORE DUP13 PUSH1 0x24 DUP6 ADD MSTORE PUSH1 0x60 PUSH1 0x44 DUP6 ADD MSTORE MLOAD DUP1 SWAP3 DUP2 PUSH1 0x64 DUP7 ADD MSTORE DUP6 DUP6 ADD SWAP1 PUSH2 0x1DC8 JUMP JUMPDEST PUSH1 0x1F ADD PUSH1 0x1F NOT AND DUP2 ADD SUB ADD SWAP3 GAS CALL ISZERO PUSH2 0x4455 JUMPI PUSH2 0x456A DUP3 DUP1 SWAP3 PUSH2 0x17DD JUMP JUMPDEST PUSH2 0x2082 JUMPI DUP1 PUSH2 0x4455 JUMP JUMPDEST SWAP1 POP RETURNDATASIZE DUP1 DUP4 DUP4 RETURNDATACOPY PUSH2 0x4585 DUP2 DUP4 PUSH2 0x17DD JUMP JUMPDEST DUP2 ADD SWAP1 PUSH1 0x20 DUP2 DUP4 SUB SLT PUSH2 0x2126 JUMPI DUP1 MLOAD SWAP1 PUSH1 0x1 PUSH1 0x1 PUSH1 0x40 SHL SUB DUP3 GT PUSH2 0x2085 JUMPI ADD DUP2 PUSH1 0x1F DUP3 ADD SLT ISZERO PUSH2 0x2126 JUMPI DUP1 MLOAD SWAP1 PUSH1 0x1 PUSH1 0x1 PUSH1 0x40 SHL SUB DUP3 GT PUSH2 0x2112 JUMPI PUSH1 0x40 MLOAD SWAP3 PUSH2 0x45D8 PUSH1 0x1F DUP5 ADD PUSH1 0x1F NOT AND PUSH1 0x20 ADD DUP6 PUSH2 0x17DD JUMP JUMPDEST DUP3 DUP5 MSTORE PUSH1 0x20 DUP4 DUP4 ADD ADD GT PUSH2 0x2085 JUMPI SWAP1 PUSH2 0x45F7 SWAP2 PUSH1 0x20 DUP1 DUP6 ADD SWAP2 ADD PUSH2 0x1DC8 JUMP JUMPDEST CODESIZE PUSH2 0x44C7 JUMP JUMPDEST PUSH2 0x4616 SWAP2 POP PUSH1 0x20 RETURNDATASIZE PUSH1 0x20 GT PUSH2 0x1D69 JUMPI PUSH2 0x1D5B DUP2 DUP4 PUSH2 0x17DD JUMP JUMPDEST CODESIZE PUSH2 0x444C JUMP JUMPDEST DUP2 PUSH2 0x4626 SWAP2 PUSH2 0x17DD JUMP JUMPDEST CODESIZE PUSH2 0x4403 JUMP JUMPDEST PUSH1 0x40 MLOAD PUSH4 0x6F143BE1 PUSH1 0xE0 SHL DUP2 MSTORE PUSH1 0x0 DUP1 MLOAD PUSH1 0x20 PUSH2 0x7DE6 DUP4 CODECOPY DUP2 MLOAD SWAP2 MSTORE PUSH1 0x4 DUP3 ADD MSTORE SWAP1 SWAP3 POP PUSH1 0x20 DUP2 PUSH1 0x24 DUP2 DUP6 GAS DELEGATECALL DUP1 ISZERO PUSH2 0x21E3 JUMPI DUP4 SWAP1 PUSH2 0x4677 JUMPI JUMPDEST PUSH2 0x4671 SWAP2 POP TIMESTAMP PUSH2 0x1D96 JUMP JUMPDEST SWAP2 PUSH2 0x43A4 JUMP JUMPDEST POP PUSH1 0x20 DUP2 RETURNDATASIZE PUSH1 0x20 GT PUSH2 0x46A3 JUMPI JUMPDEST DUP2 PUSH2 0x4691 PUSH1 0x20 SWAP4 DUP4 PUSH2 0x17DD JUMP JUMPDEST DUP2 ADD SUB SLT PUSH2 0x2126 JUMPI PUSH2 0x4671 SWAP1 MLOAD PUSH2 0x4666 JUMP JUMPDEST RETURNDATASIZE SWAP2 POP PUSH2 0x4684 JUMP JUMPDEST PUSH2 0x46C4 SWAP2 POP PUSH1 0x20 RETURNDATASIZE PUSH1 0x20 GT PUSH2 0x8D6 JUMPI PUSH2 0x8C8 DUP2 DUP4 PUSH2 0x17DD JUMP JUMPDEST CODESIZE PUSH2 0x439D JUMP JUMPDEST PUSH2 0x1BE0 SWAP3 POP PUSH1 0x0 DUP1 MLOAD PUSH1 0x20 PUSH2 0x7DE6 DUP4 CODECOPY DUP2 MLOAD SWAP2 MSTORE SWAP2 POP PUSH2 0x6618 JUMP JUMPDEST PUSH2 0x46FE SWAP2 POP PUSH1 0x20 RETURNDATASIZE PUSH1 0x20 GT PUSH2 0x8D6 JUMPI PUSH2 0x8C8 DUP2 DUP4 PUSH2 0x17DD JUMP JUMPDEST CODESIZE PUSH2 0x4347 JUMP JUMPDEST PUSH1 0x1 SLOAD PUSH1 0x40 MLOAD PUSH4 0xE05E5D5 PUSH1 0xE2 SHL DUP2 MSTORE PUSH1 0x1 PUSH1 0x1 PUSH1 0xA0 SHL SUB DUP1 DUP5 AND PUSH1 0x4 DUP4 ADD DUP2 SWAP1 MSTORE PUSH1 0x0 DUP1 MLOAD PUSH1 0x20 PUSH2 0x7EA6 DUP4 CODECOPY DUP2 MLOAD SWAP2 MSTORE PUSH1 0x24 DUP5 ADD MSTORE SWAP4 PUSH1 0x0 SWAP4 SWAP1 SWAP3 SWAP2 PUSH1 0x20 SWAP2 DUP4 SWAP2 PUSH1 0x44 SWAP2 DUP4 SWAP2 AND GAS STATICCALL SWAP1 DUP2 ISZERO PUSH2 0x21E3 JUMPI DUP4 SWAP2 PUSH2 0x4AFA JUMPI JUMPDEST POP PUSH2 0x4ADF JUMPI POP PUSH1 0x40 MLOAD PUSH4 0x157E6AD1 PUSH1 0xE2 SHL DUP2 MSTORE PUSH1 0x0 DUP1 MLOAD PUSH1 0x20 PUSH2 0x7EA6 DUP4 CODECOPY DUP2 MLOAD SWAP2 MSTORE PUSH1 0x4 DUP3 ADD MSTORE PUSH20 0x0 SWAP1 DUP3 SWAP1 PUSH1 0x20 DUP2 PUSH1 0x24 DUP2 DUP7 GAS DELEGATECALL SWAP1 DUP2 ISZERO PUSH2 0x212A JUMPI DUP3 SWAP2 PUSH2 0x4AC0 JUMPI JUMPDEST POP ISZERO PUSH2 0x4A41 JUMPI JUMPDEST PUSH1 0x1 SLOAD PUSH1 0x1 PUSH1 0x1 PUSH1 0xA0 SHL SUB AND SWAP1 DUP2 EXTCODESIZE ISZERO PUSH2 0x2082 JUMPI PUSH1 0x40 MLOAD PUSH4 0x24A6D6D PUSH1 0xE1 SHL DUP2 MSTORE PUSH1 0x4 DUP2 ADD DUP7 SWAP1 MSTORE PUSH1 0x0 DUP1 MLOAD PUSH1 0x20 PUSH2 0x7EA6 DUP4 CODECOPY DUP2 MLOAD SWAP2 MSTORE PUSH1 0x24 DUP3 ADD MSTORE PUSH1 0x1 PUSH1 0x44 DUP3 ADD MSTORE PUSH1 0x64 DUP2 ADD DUP6 SWAP1 MSTORE SWAP2 DUP2 SWAP1 DUP4 SWAP1 PUSH1 0x84 SWAP1 DUP3 SWAP1 DUP5 SWAP1 GAS CALL SWAP2 DUP3 PUSH2 0x4A31 JUMPI JUMPDEST POP SWAP1 PUSH2 0x4824 JUMPI POP POP POP POP JUMP JUMPDEST PUSH1 0x40 MLOAD PUSH4 0x737FEE1 PUSH1 0xE4 SHL DUP2 MSTORE PUSH1 0x0 DUP1 MLOAD PUSH1 0x20 PUSH2 0x7EA6 DUP4 CODECOPY DUP2 MLOAD SWAP2 MSTORE PUSH1 0x4 DUP3 ADD MSTORE PUSH1 0x20 DUP2 PUSH1 0x24 DUP2 DUP7 GAS DELEGATECALL SWAP1 DUP2 ISZERO PUSH2 0x212A JUMPI SWAP1 PUSH2 0xFFFF SWAP2 DUP4 SWAP2 PUSH2 0x4A12 JUMPI JUMPDEST POP AND SWAP2 DUP3 PUSH2 0x48A3 JUMPI JUMPDEST POP POP PUSH1 0x40 PUSH1 0x0 DUP1 MLOAD PUSH1 0x20 PUSH2 0x7EA6 DUP4 CODECOPY DUP2 MLOAD SWAP2 MSTORE SWAP4 SWAP3 PUSH1 0x0 DUP1 MLOAD PUSH1 0x20 PUSH2 0x7D66 DUP4 CODECOPY DUP2 MLOAD SWAP2 MSTORE SWAP3 DUP3 MLOAD SWAP2 DUP3 MSTORE PUSH1 0x20 DUP3 ADD MSTORE LOG3 CODESIZE DUP1 DUP1 DUP1 PUSH2 0x1F06 JUMP JUMPDEST DUP2 PUSH1 0x24 SWAP2 PUSH1 0x40 MLOAD SWAP3 DUP4 DUP1 SWAP3 PUSH4 0x54B8D5E3 PUSH1 0xE0 SHL DUP3 MSTORE PUSH1 0x0 DUP1 MLOAD PUSH1 0x20 PUSH2 0x7EA6 DUP4 CODECOPY DUP2 MLOAD SWAP2 MSTORE PUSH1 0x4 DUP4 ADD MSTORE GAS DELEGATECALL SWAP1 DUP2 ISZERO PUSH2 0x212A JUMPI DUP3 SWAP2 PUSH2 0x4989 JUMPI JUMPDEST POP PUSH1 0x40 MLOAD PUSH2 0x490B PUSH1 0x27 DUP3 PUSH1 0x20 DUP2 ADD SWAP5 PUSH7 0x2130B233B29D1 PUSH1 0xCD SHL DUP7 MSTORE PUSH2 0x1FF3 DUP2 MLOAD DUP1 SWAP3 PUSH1 0x20 DUP7 DUP7 ADD SWAP2 ADD PUSH2 0x1DC8 JUMP JUMPDEST PUSH1 0x1 SLOAD PUSH1 0x1 PUSH1 0x1 PUSH1 0xA0 SHL SUB AND SWAP1 DUP2 EXTCODESIZE ISZERO PUSH2 0x2085 JUMPI DUP4 SWAP2 PUSH2 0x4961 SWAP2 DUP4 PUSH1 0x84 DUP11 PUSH1 0x40 MLOAD SWAP8 DUP9 SWAP7 DUP8 SWAP6 DUP7 SWAP4 PUSH4 0xECCBD35 PUSH1 0xE1 SHL DUP6 MSTORE PUSH1 0x4 DUP6 ADD MSTORE DUP13 PUSH1 0x24 DUP6 ADD MSTORE PUSH1 0x60 PUSH1 0x44 DUP6 ADD MSTORE MLOAD DUP1 SWAP3 DUP2 PUSH1 0x64 DUP7 ADD MSTORE DUP6 DUP6 ADD SWAP1 PUSH2 0x1DC8 JUMP JUMPDEST PUSH1 0x1F ADD PUSH1 0x1F NOT AND DUP2 ADD SUB ADD SWAP3 GAS CALL ISZERO PUSH2 0x486A JUMPI PUSH2 0x497F DUP3 DUP1 SWAP3 PUSH2 0x17DD JUMP JUMPDEST PUSH2 0x2082 JUMPI DUP1 PUSH2 0x486A JUMP JUMPDEST SWAP1 POP RETURNDATASIZE DUP1 DUP4 DUP4 RETURNDATACOPY PUSH2 0x499A DUP2 DUP4 PUSH2 0x17DD JUMP JUMPDEST DUP2 ADD SWAP1 PUSH1 0x20 DUP2 DUP4 SUB SLT PUSH2 0x2126 JUMPI DUP1 MLOAD SWAP1 PUSH1 0x1 PUSH1 0x1 PUSH1 0x40 SHL SUB DUP3 GT PUSH2 0x2085 JUMPI ADD DUP2 PUSH1 0x1F DUP3 ADD SLT ISZERO PUSH2 0x2126 JUMPI DUP1 MLOAD SWAP1 PUSH1 0x1 PUSH1 0x1 PUSH1 0x40 SHL SUB DUP3 GT PUSH2 0x2112 JUMPI PUSH1 0x40 MLOAD SWAP3 PUSH2 0x49ED PUSH1 0x1F DUP5 ADD PUSH1 0x1F NOT AND PUSH1 0x20 ADD DUP6 PUSH2 0x17DD JUMP JUMPDEST DUP3 DUP5 MSTORE PUSH1 0x20 DUP4 DUP4 ADD ADD GT PUSH2 0x2085 JUMPI SWAP1 PUSH2 0x4A0C SWAP2 PUSH1 0x20 DUP1 DUP6 ADD SWAP2 ADD PUSH2 0x1DC8 JUMP JUMPDEST CODESIZE PUSH2 0x48DC JUMP JUMPDEST PUSH2 0x4A2B SWAP2 POP PUSH1 0x20 RETURNDATASIZE PUSH1 0x20 GT PUSH2 0x1D69 JUMPI PUSH2 0x1D5B DUP2 DUP4 PUSH2 0x17DD JUMP JUMPDEST CODESIZE PUSH2 0x4861 JUMP JUMPDEST DUP2 PUSH2 0x4A3B SWAP2 PUSH2 0x17DD JUMP JUMPDEST CODESIZE PUSH2 0x4818 JUMP JUMPDEST PUSH1 0x40 MLOAD PUSH4 0x6F143BE1 PUSH1 0xE0 SHL DUP2 MSTORE PUSH1 0x0 DUP1 MLOAD PUSH1 0x20 PUSH2 0x7EA6 DUP4 CODECOPY DUP2 MLOAD SWAP2 MSTORE PUSH1 0x4 DUP3 ADD MSTORE SWAP1 SWAP3 POP PUSH1 0x20 DUP2 PUSH1 0x24 DUP2 DUP6 GAS DELEGATECALL DUP1 ISZERO PUSH2 0x21E3 JUMPI DUP4 SWAP1 PUSH2 0x4A8C JUMPI JUMPDEST PUSH2 0x4A86 SWAP2 POP TIMESTAMP PUSH2 0x1D96 JUMP JUMPDEST SWAP2 PUSH2 0x47B9 JUMP JUMPDEST POP PUSH1 0x20 DUP2 RETURNDATASIZE PUSH1 0x20 GT PUSH2 0x4AB8 JUMPI JUMPDEST DUP2 PUSH2 0x4AA6 PUSH1 0x20 SWAP4 DUP4 PUSH2 0x17DD JUMP JUMPDEST DUP2 ADD SUB SLT PUSH2 0x2126 JUMPI PUSH2 0x4A86 SWAP1 MLOAD PUSH2 0x4A7B JUMP JUMPDEST RETURNDATASIZE SWAP2 POP PUSH2 0x4A99 JUMP JUMPDEST PUSH2 0x4AD9 SWAP2 POP PUSH1 0x20 RETURNDATASIZE PUSH1 0x20 GT PUSH2 0x8D6 JUMPI PUSH2 0x8C8 DUP2 DUP4 PUSH2 0x17DD JUMP JUMPDEST CODESIZE PUSH2 0x47B2 JUMP JUMPDEST PUSH2 0x1BE0 SWAP3 POP PUSH1 0x0 DUP1 MLOAD PUSH1 0x20 PUSH2 0x7EA6 DUP4 CODECOPY DUP2 MLOAD SWAP2 MSTORE SWAP2 POP PUSH2 0x6618 JUMP JUMPDEST PUSH2 0x4B13 SWAP2 POP PUSH1 0x20 RETURNDATASIZE PUSH1 0x20 GT PUSH2 0x8D6 JUMPI PUSH2 0x8C8 DUP2 DUP4 PUSH2 0x17DD JUMP JUMPDEST CODESIZE PUSH2 0x475C JUMP JUMPDEST PUSH1 0x1 SLOAD PUSH1 0x40 MLOAD PUSH4 0xE05E5D5 PUSH1 0xE2 SHL DUP2 MSTORE PUSH1 0x1 PUSH1 0x1 PUSH1 0xA0 SHL SUB DUP1 DUP5 AND PUSH1 0x4 DUP4 ADD DUP2 SWAP1 MSTORE PUSH1 0x0 DUP1 MLOAD PUSH1 0x20 PUSH2 0x7DC6 DUP4 CODECOPY DUP2 MLOAD SWAP2 MSTORE PUSH1 0x24 DUP5 ADD MSTORE SWAP4 PUSH1 0x0 SWAP4 SWAP1 SWAP3 SWAP2 PUSH1 0x20 SWAP2 DUP4 SWAP2 PUSH1 0x44 SWAP2 DUP4 SWAP2 AND GAS STATICCALL SWAP1 DUP2 ISZERO PUSH2 0x21E3 JUMPI DUP4 SWAP2 PUSH2 0x4F0F JUMPI JUMPDEST POP PUSH2 0x4EF4 JUMPI POP PUSH1 0x40 MLOAD PUSH4 0x157E6AD1 PUSH1 0xE2 SHL DUP2 MSTORE PUSH1 0x0 DUP1 MLOAD PUSH1 0x20 PUSH2 0x7DC6 DUP4 CODECOPY DUP2 MLOAD SWAP2 MSTORE PUSH1 0x4 DUP3 ADD MSTORE PUSH20 0x0 SWAP1 DUP3 SWAP1 PUSH1 0x20 DUP2 PUSH1 0x24 DUP2 DUP7 GAS DELEGATECALL SWAP1 DUP2 ISZERO PUSH2 0x212A JUMPI DUP3 SWAP2 PUSH2 0x4ED5 JUMPI JUMPDEST POP ISZERO PUSH2 0x4E56 JUMPI JUMPDEST PUSH1 0x1 SLOAD PUSH1 0x1 PUSH1 0x1 PUSH1 0xA0 SHL SUB AND SWAP1 DUP2 EXTCODESIZE ISZERO PUSH2 0x2082 JUMPI PUSH1 0x40 MLOAD PUSH4 0x24A6D6D PUSH1 0xE1 SHL DUP2 MSTORE PUSH1 0x4 DUP2 ADD DUP7 SWAP1 MSTORE PUSH1 0x0 DUP1 MLOAD PUSH1 0x20 PUSH2 0x7DC6 DUP4 CODECOPY DUP2 MLOAD SWAP2 MSTORE PUSH1 0x24 DUP3 ADD MSTORE PUSH1 0x1 PUSH1 0x44 DUP3 ADD MSTORE PUSH1 0x64 DUP2 ADD DUP6 SWAP1 MSTORE SWAP2 DUP2 SWAP1 DUP4 SWAP1 PUSH1 0x84 SWAP1 DUP3 SWAP1 DUP5 SWAP1 GAS CALL SWAP2 DUP3 PUSH2 0x4E46 JUMPI JUMPDEST POP SWAP1 PUSH2 0x4C39 JUMPI POP POP POP POP JUMP JUMPDEST PUSH1 0x40 MLOAD PUSH4 0x737FEE1 PUSH1 0xE4 SHL DUP2 MSTORE PUSH1 0x0 DUP1 MLOAD PUSH1 0x20 PUSH2 0x7DC6 DUP4 CODECOPY DUP2 MLOAD SWAP2 MSTORE PUSH1 0x4 DUP3 ADD MSTORE PUSH1 0x20 DUP2 PUSH1 0x24 DUP2 DUP7 GAS DELEGATECALL SWAP1 DUP2 ISZERO PUSH2 0x212A JUMPI SWAP1 PUSH2 0xFFFF SWAP2 DUP4 SWAP2 PUSH2 0x4E27 JUMPI JUMPDEST POP AND SWAP2 DUP3 PUSH2 0x4CB8 JUMPI JUMPDEST POP POP PUSH1 0x40 PUSH1 0x0 DUP1 MLOAD PUSH1 0x20 PUSH2 0x7DC6 DUP4 CODECOPY DUP2 MLOAD SWAP2 MSTORE SWAP4 SWAP3 PUSH1 0x0 DUP1 MLOAD PUSH1 0x20 PUSH2 0x7D66 DUP4 CODECOPY DUP2 MLOAD SWAP2 MSTORE SWAP3 DUP3 MLOAD SWAP2 DUP3 MSTORE PUSH1 0x20 DUP3 ADD MSTORE LOG3 CODESIZE DUP1 DUP1 DUP1 PUSH2 0x1F06 JUMP JUMPDEST DUP2 PUSH1 0x24 SWAP2 PUSH1 0x40 MLOAD SWAP3 DUP4 DUP1 SWAP3 PUSH4 0x54B8D5E3 PUSH1 0xE0 SHL DUP3 MSTORE PUSH1 0x0 DUP1 MLOAD PUSH1 0x20 PUSH2 0x7DC6 DUP4 CODECOPY DUP2 MLOAD SWAP2 MSTORE PUSH1 0x4 DUP4 ADD MSTORE GAS DELEGATECALL SWAP1 DUP2 ISZERO PUSH2 0x212A JUMPI DUP3 SWAP2 PUSH2 0x4D9E JUMPI JUMPDEST POP PUSH1 0x40 MLOAD PUSH2 0x4D20 PUSH1 0x27 DUP3 PUSH1 0x20 DUP2 ADD SWAP5 PUSH7 0x2130B233B29D1 PUSH1 0xCD SHL DUP7 MSTORE PUSH2 0x1FF3 DUP2 MLOAD DUP1 SWAP3 PUSH1 0x20 DUP7 DUP7 ADD SWAP2 ADD PUSH2 0x1DC8 JUMP JUMPDEST PUSH1 0x1 SLOAD PUSH1 0x1 PUSH1 0x1 PUSH1 0xA0 SHL SUB AND SWAP1 DUP2 EXTCODESIZE ISZERO PUSH2 0x2085 JUMPI DUP4 SWAP2 PUSH2 0x4D76 SWAP2 DUP4 PUSH1 0x84 DUP11 PUSH1 0x40 MLOAD SWAP8 DUP9 SWAP7 DUP8 SWAP6 DUP7 SWAP4 PUSH4 0xECCBD35 PUSH1 0xE1 SHL DUP6 MSTORE PUSH1 0x4 DUP6 ADD MSTORE DUP13 PUSH1 0x24 DUP6 ADD MSTORE PUSH1 0x60 PUSH1 0x44 DUP6 ADD MSTORE MLOAD DUP1 SWAP3 DUP2 PUSH1 0x64 DUP7 ADD MSTORE DUP6 DUP6 ADD SWAP1 PUSH2 0x1DC8 JUMP JUMPDEST PUSH1 0x1F ADD PUSH1 0x1F NOT AND DUP2 ADD SUB ADD SWAP3 GAS CALL ISZERO PUSH2 0x4C7F JUMPI PUSH2 0x4D94 DUP3 DUP1 SWAP3 PUSH2 0x17DD JUMP JUMPDEST PUSH2 0x2082 JUMPI DUP1 PUSH2 0x4C7F JUMP JUMPDEST SWAP1 POP RETURNDATASIZE DUP1 DUP4 DUP4 RETURNDATACOPY PUSH2 0x4DAF DUP2 DUP4 PUSH2 0x17DD JUMP JUMPDEST DUP2 ADD SWAP1 PUSH1 0x20 DUP2 DUP4 SUB SLT PUSH2 0x2126 JUMPI DUP1 MLOAD SWAP1 PUSH1 0x1 PUSH1 0x1 PUSH1 0x40 SHL SUB DUP3 GT PUSH2 0x2085 JUMPI ADD DUP2 PUSH1 0x1F DUP3 ADD SLT ISZERO PUSH2 0x2126 JUMPI DUP1 MLOAD SWAP1 PUSH1 0x1 PUSH1 0x1 PUSH1 0x40 SHL SUB DUP3 GT PUSH2 0x2112 JUMPI PUSH1 0x40 MLOAD SWAP3 PUSH2 0x4E02 PUSH1 0x1F DUP5 ADD PUSH1 0x1F NOT AND PUSH1 0x20 ADD DUP6 PUSH2 0x17DD JUMP JUMPDEST DUP3 DUP5 MSTORE PUSH1 0x20 DUP4 DUP4 ADD ADD GT PUSH2 0x2085 JUMPI SWAP1 PUSH2 0x4E21 SWAP2 PUSH1 0x20 DUP1 DUP6 ADD SWAP2 ADD PUSH2 0x1DC8 JUMP JUMPDEST CODESIZE PUSH2 0x4CF1 JUMP JUMPDEST PUSH2 0x4E40 SWAP2 POP PUSH1 0x20 RETURNDATASIZE PUSH1 0x20 GT PUSH2 0x1D69 JUMPI PUSH2 0x1D5B DUP2 DUP4 PUSH2 0x17DD JUMP JUMPDEST CODESIZE PUSH2 0x4C76 JUMP JUMPDEST DUP2 PUSH2 0x4E50 SWAP2 PUSH2 0x17DD JUMP JUMPDEST CODESIZE PUSH2 0x4C2D JUMP JUMPDEST PUSH1 0x40 MLOAD PUSH4 0x6F143BE1 PUSH1 0xE0 SHL DUP2 MSTORE PUSH1 0x0 DUP1 MLOAD PUSH1 0x20 PUSH2 0x7DC6 DUP4 CODECOPY DUP2 MLOAD SWAP2 MSTORE PUSH1 0x4 DUP3 ADD MSTORE SWAP1 SWAP3 POP PUSH1 0x20 DUP2 PUSH1 0x24 DUP2 DUP6 GAS DELEGATECALL DUP1 ISZERO PUSH2 0x21E3 JUMPI DUP4 SWAP1 PUSH2 0x4EA1 JUMPI JUMPDEST PUSH2 0x4E9B SWAP2 POP TIMESTAMP PUSH2 0x1D96 JUMP JUMPDEST SWAP2 PUSH2 0x4BCE JUMP JUMPDEST POP PUSH1 0x20 DUP2 RETURNDATASIZE PUSH1 0x20 GT PUSH2 0x4ECD JUMPI JUMPDEST DUP2 PUSH2 0x4EBB PUSH1 0x20 SWAP4 DUP4 PUSH2 0x17DD JUMP JUMPDEST DUP2 ADD SUB SLT PUSH2 0x2126 JUMPI PUSH2 0x4E9B SWAP1 MLOAD PUSH2 0x4E90 JUMP JUMPDEST RETURNDATASIZE SWAP2 POP PUSH2 0x4EAE JUMP JUMPDEST PUSH2 0x4EEE SWAP2 POP PUSH1 0x20 RETURNDATASIZE PUSH1 0x20 GT PUSH2 0x8D6 JUMPI PUSH2 0x8C8 DUP2 DUP4 PUSH2 0x17DD JUMP JUMPDEST CODESIZE PUSH2 0x4BC7 JUMP JUMPDEST PUSH2 0x1BE0 SWAP3 POP PUSH1 0x0 DUP1 MLOAD PUSH1 0x20 PUSH2 0x7DC6 DUP4 CODECOPY DUP2 MLOAD SWAP2 MSTORE SWAP2 POP PUSH2 0x6618 JUMP JUMPDEST PUSH2 0x4F28 SWAP2 POP PUSH1 0x20 RETURNDATASIZE PUSH1 0x20 GT PUSH2 0x8D6 JUMPI PUSH2 0x8C8 DUP2 DUP4 PUSH2 0x17DD JUMP JUMPDEST CODESIZE PUSH2 0x4B71 JUMP JUMPDEST PUSH1 0x1 SLOAD PUSH1 0x40 MLOAD PUSH4 0xE05E5D5 PUSH1 0xE2 SHL DUP2 MSTORE PUSH1 0x1 PUSH1 0x1 PUSH1 0xA0 SHL SUB DUP1 DUP5 AND PUSH1 0x4 DUP4 ADD DUP2 SWAP1 MSTORE PUSH1 0x0 DUP1 MLOAD PUSH1 0x20 PUSH2 0x7E06 DUP4 CODECOPY DUP2 MLOAD SWAP2 MSTORE PUSH1 0x24 DUP5 ADD MSTORE SWAP4 PUSH1 0x0 SWAP4 SWAP1 SWAP3 SWAP2 PUSH1 0x20 SWAP2 DUP4 SWAP2 PUSH1 0x44 SWAP2 DUP4 SWAP2 AND GAS STATICCALL SWAP1 DUP2 ISZERO PUSH2 0x21E3 JUMPI DUP4 SWAP2 PUSH2 0x5324 JUMPI JUMPDEST POP PUSH2 0x5309 JUMPI POP PUSH1 0x40 MLOAD PUSH4 0x157E6AD1 PUSH1 0xE2 SHL DUP2 MSTORE PUSH1 0x0 DUP1 MLOAD PUSH1 0x20 PUSH2 0x7E06 DUP4 CODECOPY DUP2 MLOAD SWAP2 MSTORE PUSH1 0x4 DUP3 ADD MSTORE PUSH20 0x0 SWAP1 DUP3 SWAP1 PUSH1 0x20 DUP2 PUSH1 0x24 DUP2 DUP7 GAS DELEGATECALL SWAP1 DUP2 ISZERO PUSH2 0x212A JUMPI DUP3 SWAP2 PUSH2 0x52EA JUMPI JUMPDEST POP ISZERO PUSH2 0x526B JUMPI JUMPDEST PUSH1 0x1 SLOAD PUSH1 0x1 PUSH1 0x1 PUSH1 0xA0 SHL SUB AND SWAP1 DUP2 EXTCODESIZE ISZERO PUSH2 0x2082 JUMPI PUSH1 0x40 MLOAD PUSH4 0x24A6D6D PUSH1 0xE1 SHL DUP2 MSTORE PUSH1 0x4 DUP2 ADD DUP7 SWAP1 MSTORE PUSH1 0x0 DUP1 MLOAD PUSH1 0x20 PUSH2 0x7E06 DUP4 CODECOPY DUP2 MLOAD SWAP2 MSTORE PUSH1 0x24 DUP3 ADD MSTORE PUSH1 0x1 PUSH1 0x44 DUP3 ADD MSTORE PUSH1 0x64 DUP2 ADD DUP6 SWAP1 MSTORE SWAP2 DUP2 SWAP1 DUP4 SWAP1 PUSH1 0x84 SWAP1 DUP3 SWAP1 DUP5 SWAP1 GAS CALL SWAP2 DUP3 PUSH2 0x525B JUMPI JUMPDEST POP SWAP1 PUSH2 0x504E JUMPI POP POP POP POP JUMP JUMPDEST PUSH1 0x40 MLOAD PUSH4 0x737FEE1 PUSH1 0xE4 SHL DUP2 MSTORE PUSH1 0x0 DUP1 MLOAD PUSH1 0x20 PUSH2 0x7E06 DUP4 CODECOPY DUP2 MLOAD SWAP2 MSTORE PUSH1 0x4 DUP3 ADD MSTORE PUSH1 0x20 DUP2 PUSH1 0x24 DUP2 DUP7 GAS DELEGATECALL SWAP1 DUP2 ISZERO PUSH2 0x212A JUMPI SWAP1 PUSH2 0xFFFF SWAP2 DUP4 SWAP2 PUSH2 0x523C JUMPI JUMPDEST POP AND SWAP2 DUP3 PUSH2 0x50CD JUMPI JUMPDEST POP POP PUSH1 0x40 PUSH1 0x0 DUP1 MLOAD PUSH1 0x20 PUSH2 0x7E06 DUP4 CODECOPY DUP2 MLOAD SWAP2 MSTORE SWAP4 SWAP3 PUSH1 0x0 DUP1 MLOAD PUSH1 0x20 PUSH2 0x7D66 DUP4 CODECOPY DUP2 MLOAD SWAP2 MSTORE SWAP3 DUP3 MLOAD SWAP2 DUP3 MSTORE PUSH1 0x20 DUP3 ADD MSTORE LOG3 CODESIZE DUP1 DUP1 DUP1 PUSH2 0x1F06 JUMP JUMPDEST DUP2 PUSH1 0x24 SWAP2 PUSH1 0x40 MLOAD SWAP3 DUP4 DUP1 SWAP3 PUSH4 0x54B8D5E3 PUSH1 0xE0 SHL DUP3 MSTORE PUSH1 0x0 DUP1 MLOAD PUSH1 0x20 PUSH2 0x7E06 DUP4 CODECOPY DUP2 MLOAD SWAP2 MSTORE PUSH1 0x4 DUP4 ADD MSTORE GAS DELEGATECALL SWAP1 DUP2 ISZERO PUSH2 0x212A JUMPI DUP3 SWAP2 PUSH2 0x51B3 JUMPI JUMPDEST POP PUSH1 0x40 MLOAD PUSH2 0x5135 PUSH1 0x27 DUP3 PUSH1 0x20 DUP2 ADD SWAP5 PUSH7 0x2130B233B29D1 PUSH1 0xCD SHL DUP7 MSTORE PUSH2 0x1FF3 DUP2 MLOAD DUP1 SWAP3 PUSH1 0x20 DUP7 DUP7 ADD SWAP2 ADD PUSH2 0x1DC8 JUMP JUMPDEST PUSH1 0x1 SLOAD PUSH1 0x1 PUSH1 0x1 PUSH1 0xA0 SHL SUB AND SWAP1 DUP2 EXTCODESIZE ISZERO PUSH2 0x2085 JUMPI DUP4 SWAP2 PUSH2 0x518B SWAP2 DUP4 PUSH1 0x84 DUP11 PUSH1 0x40 MLOAD SWAP8 DUP9 SWAP7 DUP8 SWAP6 DUP7 SWAP4 PUSH4 0xECCBD35 PUSH1 0xE1 SHL DUP6 MSTORE PUSH1 0x4 DUP6 ADD MSTORE DUP13 PUSH1 0x24 DUP6 ADD MSTORE PUSH1 0x60 PUSH1 0x44 DUP6 ADD MSTORE MLOAD DUP1 SWAP3 DUP2 PUSH1 0x64 DUP7 ADD MSTORE DUP6 DUP6 ADD SWAP1 PUSH2 0x1DC8 JUMP JUMPDEST PUSH1 0x1F ADD PUSH1 0x1F NOT AND DUP2 ADD SUB ADD SWAP3 GAS CALL ISZERO PUSH2 0x5094 JUMPI PUSH2 0x51A9 DUP3 DUP1 SWAP3 PUSH2 0x17DD JUMP JUMPDEST PUSH2 0x2082 JUMPI DUP1 PUSH2 0x5094 JUMP JUMPDEST SWAP1 POP RETURNDATASIZE DUP1 DUP4 DUP4 RETURNDATACOPY PUSH2 0x51C4 DUP2 DUP4 PUSH2 0x17DD JUMP JUMPDEST DUP2 ADD SWAP1 PUSH1 0x20 DUP2 DUP4 SUB SLT PUSH2 0x2126 JUMPI DUP1 MLOAD SWAP1 PUSH1 0x1 PUSH1 0x1 PUSH1 0x40 SHL SUB DUP3 GT PUSH2 0x2085 JUMPI ADD DUP2 PUSH1 0x1F DUP3 ADD SLT ISZERO PUSH2 0x2126 JUMPI DUP1 MLOAD SWAP1 PUSH1 0x1 PUSH1 0x1 PUSH1 0x40 SHL SUB DUP3 GT PUSH2 0x2112 JUMPI PUSH1 0x40 MLOAD SWAP3 PUSH2 0x5217 PUSH1 0x1F DUP5 ADD PUSH1 0x1F NOT AND PUSH1 0x20 ADD DUP6 PUSH2 0x17DD JUMP JUMPDEST DUP3 DUP5 MSTORE PUSH1 0x20 DUP4 DUP4 ADD ADD GT PUSH2 0x2085 JUMPI SWAP1 PUSH2 0x5236 SWAP2 PUSH1 0x20 DUP1 DUP6 ADD SWAP2 ADD PUSH2 0x1DC8 JUMP JUMPDEST CODESIZE PUSH2 0x5106 JUMP JUMPDEST PUSH2 0x5255 SWAP2 POP PUSH1 0x20 RETURNDATASIZE PUSH1 0x20 GT PUSH2 0x1D69 JUMPI PUSH2 0x1D5B DUP2 DUP4 PUSH2 0x17DD JUMP JUMPDEST CODESIZE PUSH2 0x508B JUMP JUMPDEST DUP2 PUSH2 0x5265 SWAP2 PUSH2 0x17DD JUMP JUMPDEST CODESIZE PUSH2 0x5042 JUMP JUMPDEST PUSH1 0x40 MLOAD PUSH4 0x6F143BE1 PUSH1 0xE0 SHL DUP2 MSTORE PUSH1 0x0 DUP1 MLOAD PUSH1 0x20 PUSH2 0x7E06 DUP4 CODECOPY DUP2 MLOAD SWAP2 MSTORE PUSH1 0x4 DUP3 ADD MSTORE SWAP1 SWAP3 POP PUSH1 0x20 DUP2 PUSH1 0x24 DUP2 DUP6 GAS DELEGATECALL DUP1 ISZERO PUSH2 0x21E3 JUMPI DUP4 SWAP1 PUSH2 0x52B6 JUMPI JUMPDEST PUSH2 0x52B0 SWAP2 POP TIMESTAMP PUSH2 0x1D96 JUMP JUMPDEST SWAP2 PUSH2 0x4FE3 JUMP JUMPDEST POP PUSH1 0x20 DUP2 RETURNDATASIZE PUSH1 0x20 GT PUSH2 0x52E2 JUMPI JUMPDEST DUP2 PUSH2 0x52D0 PUSH1 0x20 SWAP4 DUP4 PUSH2 0x17DD JUMP JUMPDEST DUP2 ADD SUB SLT PUSH2 0x2126 JUMPI PUSH2 0x52B0 SWAP1 MLOAD PUSH2 0x52A5 JUMP JUMPDEST RETURNDATASIZE SWAP2 POP PUSH2 0x52C3 JUMP JUMPDEST PUSH2 0x5303 SWAP2 POP PUSH1 0x20 RETURNDATASIZE PUSH1 0x20 GT PUSH2 0x8D6 JUMPI PUSH2 0x8C8 DUP2 DUP4 PUSH2 0x17DD JUMP JUMPDEST CODESIZE PUSH2 0x4FDC JUMP JUMPDEST PUSH2 0x1BE0 SWAP3 POP PUSH1 0x0 DUP1 MLOAD PUSH1 0x20 PUSH2 0x7E06 DUP4 CODECOPY DUP2 MLOAD SWAP2 MSTORE SWAP2 POP PUSH2 0x6618 JUMP JUMPDEST PUSH2 0x533D SWAP2 POP PUSH1 0x20 RETURNDATASIZE PUSH1 0x20 GT PUSH2 0x8D6 JUMPI PUSH2 0x8C8 DUP2 DUP4 PUSH2 0x17DD JUMP JUMPDEST CODESIZE PUSH2 0x4F86 JUMP JUMPDEST PUSH1 0x1 SLOAD PUSH1 0x40 MLOAD PUSH4 0xE05E5D5 PUSH1 0xE2 SHL DUP2 MSTORE PUSH1 0x1 PUSH1 0x1 PUSH1 0xA0 SHL SUB DUP1 DUP5 AND PUSH1 0x4 DUP4 ADD DUP2 SWAP1 MSTORE PUSH1 0x0 DUP1 MLOAD PUSH1 0x20 PUSH2 0x7D26 DUP4 CODECOPY DUP2 MLOAD SWAP2 MSTORE PUSH1 0x24 DUP5 ADD MSTORE SWAP4 PUSH1 0x0 SWAP4 SWAP1 SWAP3 SWAP2 PUSH1 0x20 SWAP2 DUP4 SWAP2 PUSH1 0x44 SWAP2 DUP4 SWAP2 AND GAS STATICCALL SWAP1 DUP2 ISZERO PUSH2 0x21E3 JUMPI DUP4 SWAP2 PUSH2 0x5739 JUMPI JUMPDEST POP PUSH2 0x571E JUMPI POP PUSH1 0x40 MLOAD PUSH4 0x157E6AD1 PUSH1 0xE2 SHL DUP2 MSTORE PUSH1 0x0 DUP1 MLOAD PUSH1 0x20 PUSH2 0x7D26 DUP4 CODECOPY DUP2 MLOAD SWAP2 MSTORE PUSH1 0x4 DUP3 ADD MSTORE PUSH20 0x0 SWAP1 DUP3 SWAP1 PUSH1 0x20 DUP2 PUSH1 0x24 DUP2 DUP7 GAS DELEGATECALL SWAP1 DUP2 ISZERO PUSH2 0x212A JUMPI DUP3 SWAP2 PUSH2 0x56FF JUMPI JUMPDEST POP ISZERO PUSH2 0x5680 JUMPI JUMPDEST PUSH1 0x1 SLOAD PUSH1 0x1 PUSH1 0x1 PUSH1 0xA0 SHL SUB AND SWAP1 DUP2 EXTCODESIZE ISZERO PUSH2 0x2082 JUMPI PUSH1 0x40 MLOAD PUSH4 0x24A6D6D PUSH1 0xE1 SHL DUP2 MSTORE PUSH1 0x4 DUP2 ADD DUP7 SWAP1 MSTORE PUSH1 0x0 DUP1 MLOAD PUSH1 0x20 PUSH2 0x7D26 DUP4 CODECOPY DUP2 MLOAD SWAP2 MSTORE PUSH1 0x24 DUP3 ADD MSTORE PUSH1 0x1 PUSH1 0x44 DUP3 ADD MSTORE PUSH1 0x64 DUP2 ADD DUP6 SWAP1 MSTORE SWAP2 DUP2 SWAP1 DUP4 SWAP1 PUSH1 0x84 SWAP1 DUP3 SWAP1 DUP5 SWAP1 GAS CALL SWAP2 DUP3 PUSH2 0x5670 JUMPI JUMPDEST POP SWAP1 PUSH2 0x5463 JUMPI POP POP POP POP JUMP JUMPDEST PUSH1 0x40 MLOAD PUSH4 0x737FEE1 PUSH1 0xE4 SHL DUP2 MSTORE PUSH1 0x0 DUP1 MLOAD PUSH1 0x20 PUSH2 0x7D26 DUP4 CODECOPY DUP2 MLOAD SWAP2 MSTORE PUSH1 0x4 DUP3 ADD MSTORE PUSH1 0x20 DUP2 PUSH1 0x24 DUP2 DUP7 GAS DELEGATECALL SWAP1 DUP2 ISZERO PUSH2 0x212A JUMPI SWAP1 PUSH2 0xFFFF SWAP2 DUP4 SWAP2 PUSH2 0x5651 JUMPI JUMPDEST POP AND SWAP2 DUP3 PUSH2 0x54E2 JUMPI JUMPDEST POP POP PUSH1 0x40 PUSH1 0x0 DUP1 MLOAD PUSH1 0x20 PUSH2 0x7D26 DUP4 CODECOPY DUP2 MLOAD SWAP2 MSTORE SWAP4 SWAP3 PUSH1 0x0 DUP1 MLOAD PUSH1 0x20 PUSH2 0x7D66 DUP4 CODECOPY DUP2 MLOAD SWAP2 MSTORE SWAP3 DUP3 MLOAD SWAP2 DUP3 MSTORE PUSH1 0x20 DUP3 ADD MSTORE LOG3 CODESIZE DUP1 DUP1 DUP1 PUSH2 0x1F06 JUMP JUMPDEST DUP2 PUSH1 0x24 SWAP2 PUSH1 0x40 MLOAD SWAP3 DUP4 DUP1 SWAP3 PUSH4 0x54B8D5E3 PUSH1 0xE0 SHL DUP3 MSTORE PUSH1 0x0 DUP1 MLOAD PUSH1 0x20 PUSH2 0x7D26 DUP4 CODECOPY DUP2 MLOAD SWAP2 MSTORE PUSH1 0x4 DUP4 ADD MSTORE GAS DELEGATECALL SWAP1 DUP2 ISZERO PUSH2 0x212A JUMPI DUP3 SWAP2 PUSH2 0x55C8 JUMPI JUMPDEST POP PUSH1 0x40 MLOAD PUSH2 0x554A PUSH1 0x27 DUP3 PUSH1 0x20 DUP2 ADD SWAP5 PUSH7 0x2130B233B29D1 PUSH1 0xCD SHL DUP7 MSTORE PUSH2 0x1FF3 DUP2 MLOAD DUP1 SWAP3 PUSH1 0x20 DUP7 DUP7 ADD SWAP2 ADD PUSH2 0x1DC8 JUMP JUMPDEST PUSH1 0x1 SLOAD PUSH1 0x1 PUSH1 0x1 PUSH1 0xA0 SHL SUB AND SWAP1 DUP2 EXTCODESIZE ISZERO PUSH2 0x2085 JUMPI DUP4 SWAP2 PUSH2 0x55A0 SWAP2 DUP4 PUSH1 0x84 DUP11 PUSH1 0x40 MLOAD SWAP8 DUP9 SWAP7 DUP8 SWAP6 DUP7 SWAP4 PUSH4 0xECCBD35 PUSH1 0xE1 SHL DUP6 MSTORE PUSH1 0x4 DUP6 ADD MSTORE DUP13 PUSH1 0x24 DUP6 ADD MSTORE PUSH1 0x60 PUSH1 0x44 DUP6 ADD MSTORE MLOAD DUP1 SWAP3 DUP2 PUSH1 0x64 DUP7 ADD MSTORE DUP6 DUP6 ADD SWAP1 PUSH2 0x1DC8 JUMP JUMPDEST PUSH1 0x1F ADD PUSH1 0x1F NOT AND DUP2 ADD SUB ADD SWAP3 GAS CALL ISZERO PUSH2 0x54A9 JUMPI PUSH2 0x55BE DUP3 DUP1 SWAP3 PUSH2 0x17DD JUMP JUMPDEST PUSH2 0x2082 JUMPI DUP1 PUSH2 0x54A9 JUMP JUMPDEST SWAP1 POP RETURNDATASIZE DUP1 DUP4 DUP4 RETURNDATACOPY PUSH2 0x55D9 DUP2 DUP4 PUSH2 0x17DD JUMP JUMPDEST DUP2 ADD SWAP1 PUSH1 0x20 DUP2 DUP4 SUB SLT PUSH2 0x2126 JUMPI DUP1 MLOAD SWAP1 PUSH1 0x1 PUSH1 0x1 PUSH1 0x40 SHL SUB DUP3 GT PUSH2 0x2085 JUMPI ADD DUP2 PUSH1 0x1F DUP3 ADD SLT ISZERO PUSH2 0x2126 JUMPI DUP1 MLOAD SWAP1 PUSH1 0x1 PUSH1 0x1 PUSH1 0x40 SHL SUB DUP3 GT PUSH2 0x2112 JUMPI PUSH1 0x40 MLOAD SWAP3 PUSH2 0x562C PUSH1 0x1F DUP5 ADD PUSH1 0x1F NOT AND PUSH1 0x20 ADD DUP6 PUSH2 0x17DD JUMP JUMPDEST DUP3 DUP5 MSTORE PUSH1 0x20 DUP4 DUP4 ADD ADD GT PUSH2 0x2085 JUMPI SWAP1 PUSH2 0x564B SWAP2 PUSH1 0x20 DUP1 DUP6 ADD SWAP2 ADD PUSH2 0x1DC8 JUMP JUMPDEST CODESIZE PUSH2 0x551B JUMP JUMPDEST PUSH2 0x566A SWAP2 POP PUSH1 0x20 RETURNDATASIZE PUSH1 0x20 GT PUSH2 0x1D69 JUMPI PUSH2 0x1D5B DUP2 DUP4 PUSH2 0x17DD JUMP JUMPDEST CODESIZE PUSH2 0x54A0 JUMP JUMPDEST DUP2 PUSH2 0x567A SWAP2 PUSH2 0x17DD JUMP JUMPDEST CODESIZE PUSH2 0x5457 JUMP JUMPDEST PUSH1 0x40 MLOAD PUSH4 0x6F143BE1 PUSH1 0xE0 SHL DUP2 MSTORE PUSH1 0x0 DUP1 MLOAD PUSH1 0x20 PUSH2 0x7D26 DUP4 CODECOPY DUP2 MLOAD SWAP2 MSTORE PUSH1 0x4 DUP3 ADD MSTORE SWAP1 SWAP3 POP PUSH1 0x20 DUP2 PUSH1 0x24 DUP2 DUP6 GAS DELEGATECALL DUP1 ISZERO PUSH2 0x21E3 JUMPI DUP4 SWAP1 PUSH2 0x56CB JUMPI JUMPDEST PUSH2 0x56C5 SWAP2 POP TIMESTAMP PUSH2 0x1D96 JUMP JUMPDEST SWAP2 PUSH2 0x53F8 JUMP JUMPDEST POP PUSH1 0x20 DUP2 RETURNDATASIZE PUSH1 0x20 GT PUSH2 0x56F7 JUMPI JUMPDEST DUP2 PUSH2 0x56E5 PUSH1 0x20 SWAP4 DUP4 PUSH2 0x17DD JUMP JUMPDEST DUP2 ADD SUB SLT PUSH2 0x2126 JUMPI PUSH2 0x56C5 SWAP1 MLOAD PUSH2 0x56BA JUMP JUMPDEST RETURNDATASIZE SWAP2 POP PUSH2 0x56D8 JUMP JUMPDEST PUSH2 0x5718 SWAP2 POP PUSH1 0x20 RETURNDATASIZE PUSH1 0x20 GT PUSH2 0x8D6 JUMPI PUSH2 0x8C8 DUP2 DUP4 PUSH2 0x17DD JUMP JUMPDEST CODESIZE PUSH2 0x53F1 JUMP JUMPDEST PUSH2 0x1BE0 SWAP3 POP PUSH1 0x0 DUP1 MLOAD PUSH1 0x20 PUSH2 0x7D26 DUP4 CODECOPY DUP2 MLOAD SWAP2 MSTORE SWAP2 POP PUSH2 0x6618 JUMP JUMPDEST PUSH2 0x5752 SWAP2 POP PUSH1 0x20 RETURNDATASIZE PUSH1 0x20 GT PUSH2 0x8D6 JUMPI PUSH2 0x8C8 DUP2 DUP4 PUSH2 0x17DD JUMP JUMPDEST CODESIZE PUSH2 0x539B JUMP JUMPDEST PUSH1 0x1 SLOAD PUSH1 0x40 MLOAD PUSH4 0xE05E5D5 PUSH1 0xE2 SHL DUP2 MSTORE PUSH1 0x1 PUSH1 0x1 PUSH1 0xA0 SHL SUB DUP1 DUP5 AND PUSH1 0x4 DUP4 ADD DUP2 SWAP1 MSTORE PUSH1 0x0 DUP1 MLOAD PUSH1 0x20 PUSH2 0x7E66 DUP4 CODECOPY DUP2 MLOAD SWAP2 MSTORE PUSH1 0x24 DUP5 ADD MSTORE SWAP4 PUSH1 0x0 SWAP4 SWAP1 SWAP3 SWAP2 PUSH1 0x20 SWAP2 DUP4 SWAP2 PUSH1 0x44 SWAP2 DUP4 SWAP2 AND GAS STATICCALL SWAP1 DUP2 ISZERO PUSH2 0x21E3 JUMPI DUP4 SWAP2 PUSH2 0x5B4E JUMPI JUMPDEST POP PUSH2 0x5B33 JUMPI POP PUSH1 0x40 MLOAD PUSH4 0x157E6AD1 PUSH1 0xE2 SHL DUP2 MSTORE PUSH1 0x0 DUP1 MLOAD PUSH1 0x20 PUSH2 0x7E66 DUP4 CODECOPY DUP2 MLOAD SWAP2 MSTORE PUSH1 0x4 DUP3 ADD MSTORE PUSH20 0x0 SWAP1 DUP3 SWAP1 PUSH1 0x20 DUP2 PUSH1 0x24 DUP2 DUP7 GAS DELEGATECALL SWAP1 DUP2 ISZERO PUSH2 0x212A JUMPI DUP3 SWAP2 PUSH2 0x5B14 JUMPI JUMPDEST POP ISZERO PUSH2 0x5A95 JUMPI JUMPDEST PUSH1 0x1 SLOAD PUSH1 0x1 PUSH1 0x1 PUSH1 0xA0 SHL SUB AND SWAP1 DUP2 EXTCODESIZE ISZERO PUSH2 0x2082 JUMPI PUSH1 0x40 MLOAD PUSH4 0x24A6D6D PUSH1 0xE1 SHL DUP2 MSTORE PUSH1 0x4 DUP2 ADD DUP7 SWAP1 MSTORE PUSH1 0x0 DUP1 MLOAD PUSH1 0x20 PUSH2 0x7E66 DUP4 CODECOPY DUP2 MLOAD SWAP2 MSTORE PUSH1 0x24 DUP3 ADD MSTORE PUSH1 0x1 PUSH1 0x44 DUP3 ADD MSTORE PUSH1 0x64 DUP2 ADD DUP6 SWAP1 MSTORE SWAP2 DUP2 SWAP1 DUP4 SWAP1 PUSH1 0x84 SWAP1 DUP3 SWAP1 DUP5 SWAP1 GAS CALL SWAP2 DUP3 PUSH2 0x5A85 JUMPI JUMPDEST POP SWAP1 PUSH2 0x5878 JUMPI POP POP POP POP JUMP JUMPDEST PUSH1 0x40 MLOAD PUSH4 0x737FEE1 PUSH1 0xE4 SHL DUP2 MSTORE PUSH1 0x0 DUP1 MLOAD PUSH1 0x20 PUSH2 0x7E66 DUP4 CODECOPY DUP2 MLOAD SWAP2 MSTORE PUSH1 0x4 DUP3 ADD MSTORE PUSH1 0x20 DUP2 PUSH1 0x24 DUP2 DUP7 GAS DELEGATECALL SWAP1 DUP2 ISZERO PUSH2 0x212A JUMPI SWAP1 PUSH2 0xFFFF SWAP2 DUP4 SWAP2 PUSH2 0x5A66 JUMPI JUMPDEST POP AND SWAP2 DUP3 PUSH2 0x58F7 JUMPI JUMPDEST POP POP PUSH1 0x40 PUSH1 0x0 DUP1 MLOAD PUSH1 0x20 PUSH2 0x7E66 DUP4 CODECOPY DUP2 MLOAD SWAP2 MSTORE SWAP4 SWAP3 PUSH1 0x0 DUP1 MLOAD PUSH1 0x20 PUSH2 0x7D66 DUP4 CODECOPY DUP2 MLOAD SWAP2 MSTORE SWAP3 DUP3 MLOAD SWAP2 DUP3 MSTORE PUSH1 0x20 DUP3 ADD MSTORE LOG3 CODESIZE DUP1 DUP1 DUP1 PUSH2 0x1F06 JUMP JUMPDEST DUP2 PUSH1 0x24 SWAP2 PUSH1 0x40 MLOAD SWAP3 DUP4 DUP1 SWAP3 PUSH4 0x54B8D5E3 PUSH1 0xE0 SHL DUP3 MSTORE PUSH1 0x0 DUP1 MLOAD PUSH1 0x20 PUSH2 0x7E66 DUP4 CODECOPY DUP2 MLOAD SWAP2 MSTORE PUSH1 0x4 DUP4 ADD MSTORE GAS DELEGATECALL SWAP1 DUP2 ISZERO PUSH2 0x212A JUMPI DUP3 SWAP2 PUSH2 0x59DD JUMPI JUMPDEST POP PUSH1 0x40 MLOAD PUSH2 0x595F PUSH1 0x27 DUP3 PUSH1 0x20 DUP2 ADD SWAP5 PUSH7 0x2130B233B29D1 PUSH1 0xCD SHL DUP7 MSTORE PUSH2 0x1FF3 DUP2 MLOAD DUP1 SWAP3 PUSH1 0x20 DUP7 DUP7 ADD SWAP2 ADD PUSH2 0x1DC8 JUMP JUMPDEST PUSH1 0x1 SLOAD PUSH1 0x1 PUSH1 0x1 PUSH1 0xA0 SHL SUB AND SWAP1 DUP2 EXTCODESIZE ISZERO PUSH2 0x2085 JUMPI DUP4 SWAP2 PUSH2 0x59B5 SWAP2 DUP4 PUSH1 0x84 DUP11 PUSH1 0x40 MLOAD SWAP8 DUP9 SWAP7 DUP8 SWAP6 DUP7 SWAP4 PUSH4 0xECCBD35 PUSH1 0xE1 SHL DUP6 MSTORE PUSH1 0x4 DUP6 ADD MSTORE DUP13 PUSH1 0x24 DUP6 ADD MSTORE PUSH1 0x60 PUSH1 0x44 DUP6 ADD MSTORE MLOAD DUP1 SWAP3 DUP2 PUSH1 0x64 DUP7 ADD MSTORE DUP6 DUP6 ADD SWAP1 PUSH2 0x1DC8 JUMP JUMPDEST PUSH1 0x1F ADD PUSH1 0x1F NOT AND DUP2 ADD SUB ADD SWAP3 GAS CALL ISZERO PUSH2 0x58BE JUMPI PUSH2 0x59D3 DUP3 DUP1 SWAP3 PUSH2 0x17DD JUMP JUMPDEST PUSH2 0x2082 JUMPI DUP1 PUSH2 0x58BE JUMP JUMPDEST SWAP1 POP RETURNDATASIZE DUP1 DUP4 DUP4 RETURNDATACOPY PUSH2 0x59EE DUP2 DUP4 PUSH2 0x17DD JUMP JUMPDEST DUP2 ADD SWAP1 PUSH1 0x20 DUP2 DUP4 SUB SLT PUSH2 0x2126 JUMPI DUP1 MLOAD SWAP1 PUSH1 0x1 PUSH1 0x1 PUSH1 0x40 SHL SUB DUP3 GT PUSH2 0x2085 JUMPI ADD DUP2 PUSH1 0x1F DUP3 ADD SLT ISZERO PUSH2 0x2126 JUMPI DUP1 MLOAD SWAP1 PUSH1 0x1 PUSH1 0x1 PUSH1 0x40 SHL SUB DUP3 GT PUSH2 0x2112 JUMPI PUSH1 0x40 MLOAD SWAP3 PUSH2 0x5A41 PUSH1 0x1F DUP5 ADD PUSH1 0x1F NOT AND PUSH1 0x20 ADD DUP6 PUSH2 0x17DD JUMP JUMPDEST DUP3 DUP5 MSTORE PUSH1 0x20 DUP4 DUP4 ADD ADD GT PUSH2 0x2085 JUMPI SWAP1 PUSH2 0x5A60 SWAP2 PUSH1 0x20 DUP1 DUP6 ADD SWAP2 ADD PUSH2 0x1DC8 JUMP JUMPDEST CODESIZE PUSH2 0x5930 JUMP JUMPDEST PUSH2 0x5A7F SWAP2 POP PUSH1 0x20 RETURNDATASIZE PUSH1 0x20 GT PUSH2 0x1D69 JUMPI PUSH2 0x1D5B DUP2 DUP4 PUSH2 0x17DD JUMP JUMPDEST CODESIZE PUSH2 0x58B5 JUMP JUMPDEST DUP2 PUSH2 0x5A8F SWAP2 PUSH2 0x17DD JUMP JUMPDEST CODESIZE PUSH2 0x586C JUMP JUMPDEST PUSH1 0x40 MLOAD PUSH4 0x6F143BE1 PUSH1 0xE0 SHL DUP2 MSTORE PUSH1 0x0 DUP1 MLOAD PUSH1 0x20 PUSH2 0x7E66 DUP4 CODECOPY DUP2 MLOAD SWAP2 MSTORE PUSH1 0x4 DUP3 ADD MSTORE SWAP1 SWAP3 POP PUSH1 0x20 DUP2 PUSH1 0x24 DUP2 DUP6 GAS DELEGATECALL DUP1 ISZERO PUSH2 0x21E3 JUMPI DUP4 SWAP1 PUSH2 0x5AE0 JUMPI JUMPDEST PUSH2 0x5ADA SWAP2 POP TIMESTAMP PUSH2 0x1D96 JUMP JUMPDEST SWAP2 PUSH2 0x580D JUMP JUMPDEST POP PUSH1 0x20 DUP2 RETURNDATASIZE PUSH1 0x20 GT PUSH2 0x5B0C JUMPI JUMPDEST DUP2 PUSH2 0x5AFA PUSH1 0x20 SWAP4 DUP4 PUSH2 0x17DD JUMP JUMPDEST DUP2 ADD SUB SLT PUSH2 0x2126 JUMPI PUSH2 0x5ADA SWAP1 MLOAD PUSH2 0x5ACF JUMP JUMPDEST RETURNDATASIZE SWAP2 POP PUSH2 0x5AED JUMP JUMPDEST PUSH2 0x5B2D SWAP2 POP PUSH1 0x20 RETURNDATASIZE PUSH1 0x20 GT PUSH2 0x8D6 JUMPI PUSH2 0x8C8 DUP2 DUP4 PUSH2 0x17DD JUMP JUMPDEST CODESIZE PUSH2 0x5806 JUMP JUMPDEST PUSH2 0x1BE0 SWAP3 POP PUSH1 0x0 DUP1 MLOAD PUSH1 0x20 PUSH2 0x7E66 DUP4 CODECOPY DUP2 MLOAD SWAP2 MSTORE SWAP2 POP PUSH2 0x6618 JUMP JUMPDEST PUSH2 0x5B67 SWAP2 POP PUSH1 0x20 RETURNDATASIZE PUSH1 0x20 GT PUSH2 0x8D6 JUMPI PUSH2 0x8C8 DUP2 DUP4 PUSH2 0x17DD JUMP JUMPDEST CODESIZE PUSH2 0x57B0 JUMP JUMPDEST PUSH1 0x1 SLOAD PUSH1 0x40 MLOAD PUSH4 0xE05E5D5 PUSH1 0xE2 SHL DUP2 MSTORE PUSH1 0x0 SWAP3 SWAP2 PUSH1 0x20 SWAP1 DUP3 SWAP1 DUP2 DUP1 PUSH2 0x5B96 DUP10 DUP9 PUSH1 0x4 DUP5 ADD PUSH2 0x1B1E JUMP JUMPDEST SUB SWAP2 PUSH1 0x1 PUSH1 0x1 PUSH1 0xA0 SHL SUB AND GAS STATICCALL SWAP1 DUP2 ISZERO PUSH2 0x21E3 JUMPI DUP4 SWAP2 PUSH2 0x5EF4 JUMPI JUMPDEST POP PUSH2 0x5EE9 JUMPI DUP2 PUSH20 0x0 SWAP1 PUSH1 0x40 MLOAD PUSH4 0x157E6AD1 PUSH1 0xE2 SHL DUP2 MSTORE DUP6 PUSH1 0x4 DUP3 ADD MSTORE PUSH1 0x20 DUP2 PUSH1 0x24 DUP2 DUP7 GAS DELEGATECALL SWAP1 DUP2 ISZERO PUSH2 0x212A JUMPI DUP3 SWAP2 PUSH2 0x5ECA JUMPI JUMPDEST POP ISZERO PUSH2 0x5E4F JUMPI JUMPDEST PUSH1 0x1 SLOAD PUSH1 0x1 PUSH1 0x1 PUSH1 0xA0 SHL SUB AND SWAP1 DUP2 EXTCODESIZE ISZERO PUSH2 0x2082 JUMPI DUP1 PUSH1 0x40 MLOAD DUP1 SWAP4 PUSH4 0x24A6D6D PUSH1 0xE1 SHL DUP3 MSTORE DUP2 DUP4 DUP2 PUSH2 0x5C34 DUP12 DUP14 DUP13 PUSH1 0x4 DUP6 ADD PUSH2 0x1DA3 JUMP JUMPDEST SUB SWAP3 GAS CALL SWAP2 DUP3 PUSH2 0x5E3F JUMPI JUMPDEST POP SWAP1 PUSH2 0x5C4C JUMPI POP POP POP POP POP JUMP JUMPDEST PUSH1 0x40 MLOAD PUSH4 0x737FEE1 PUSH1 0xE4 SHL DUP2 MSTORE PUSH1 0x4 DUP2 ADD DUP7 SWAP1 MSTORE PUSH1 0x20 DUP2 PUSH1 0x24 DUP2 DUP7 GAS DELEGATECALL SWAP1 DUP2 ISZERO PUSH2 0x212A JUMPI SWAP1 PUSH2 0xFFFF SWAP2 DUP4 SWAP2 PUSH2 0x5E20 JUMPI JUMPDEST POP AND SWAP2 DUP3 PUSH2 0x5CB8 JUMPI JUMPDEST POP POP PUSH1 0x0 DUP1 MLOAD PUSH1 0x20 PUSH2 0x7D66 DUP4 CODECOPY DUP2 MLOAD SWAP2 MSTORE SWAP2 PUSH1 0x40 SWAP2 DUP3 MLOAD SWAP5 DUP6 MSTORE PUSH1 0x20 DUP6 ADD MSTORE PUSH1 0x1 DUP1 PUSH1 0xA0 SHL SUB AND SWAP3 LOG3 CODESIZE DUP1 DUP1 DUP1 DUP1 PUSH2 0x1D70 JUMP JUMPDEST DUP2 PUSH1 0x24 SWAP2 PUSH1 0x40 MLOAD SWAP3 DUP4 DUP1 SWAP3 PUSH4 0x54B8D5E3 PUSH1 0xE0 SHL DUP3 MSTORE DUP11 PUSH1 0x4 DUP4 ADD MSTORE GAS DELEGATECALL SWAP1 DUP2 ISZERO PUSH2 0x212A JUMPI DUP3 SWAP2 PUSH2 0x5D97 JUMPI JUMPDEST POP PUSH1 0x40 MLOAD PUSH2 0x5D12 PUSH1 0x27 DUP3 PUSH1 0x20 DUP2 ADD SWAP5 PUSH7 0x2130B233B29D1 PUSH1 0xCD SHL DUP7 MSTORE PUSH2 0x1FF3 DUP2 MLOAD DUP1 SWAP3 PUSH1 0x20 DUP7 DUP7 ADD SWAP2 ADD PUSH2 0x1DC8 JUMP JUMPDEST PUSH1 0x1 SLOAD PUSH1 0x1 PUSH1 0x1 PUSH1 0xA0 SHL SUB AND SWAP1 DUP2 EXTCODESIZE ISZERO PUSH2 0x2085 JUMPI DUP4 SWAP2 PUSH2 0x5D6F SWAP2 DUP4 PUSH1 0x84 PUSH1 0x40 MLOAD DUP1 SWAP8 DUP2 SWAP7 DUP3 SWAP6 PUSH4 0xECCBD35 PUSH1 0xE1 SHL DUP5 MSTORE DUP14 PUSH1 0x1 DUP1 PUSH1 0xA0 SHL SUB AND PUSH1 0x4 DUP6 ADD MSTORE DUP13 PUSH1 0x24 DUP6 ADD MSTORE PUSH1 0x60 PUSH1 0x44 DUP6 ADD MSTORE MLOAD DUP1 SWAP3 DUP2 PUSH1 0x64 DUP7 ADD MSTORE DUP6 DUP6 ADD SWAP1 PUSH2 0x1DC8 JUMP JUMPDEST PUSH1 0x1F ADD PUSH1 0x1F NOT AND DUP2 ADD SUB ADD SWAP3 GAS CALL ISZERO PUSH2 0x5C85 JUMPI PUSH2 0x5D8D DUP3 DUP1 SWAP3 PUSH2 0x17DD JUMP JUMPDEST PUSH2 0x2082 JUMPI DUP1 PUSH2 0x5C85 JUMP JUMPDEST SWAP1 POP RETURNDATASIZE DUP1 DUP4 DUP4 RETURNDATACOPY PUSH2 0x5DA8 DUP2 DUP4 PUSH2 0x17DD JUMP JUMPDEST DUP2 ADD SWAP1 PUSH1 0x20 DUP2 DUP4 SUB SLT PUSH2 0x2126 JUMPI DUP1 MLOAD SWAP1 PUSH1 0x1 PUSH1 0x1 PUSH1 0x40 SHL SUB DUP3 GT PUSH2 0x2085 JUMPI ADD DUP2 PUSH1 0x1F DUP3 ADD SLT ISZERO PUSH2 0x2126 JUMPI DUP1 MLOAD SWAP1 PUSH1 0x1 PUSH1 0x1 PUSH1 0x40 SHL SUB DUP3 GT PUSH2 0x2112 JUMPI PUSH1 0x40 MLOAD SWAP3 PUSH2 0x5DFB PUSH1 0x1F DUP5 ADD PUSH1 0x1F NOT AND PUSH1 0x20 ADD DUP6 PUSH2 0x17DD JUMP JUMPDEST DUP3 DUP5 MSTORE PUSH1 0x20 DUP4 DUP4 ADD ADD GT PUSH2 0x2085 JUMPI SWAP1 PUSH2 0x5E1A SWAP2 PUSH1 0x20 DUP1 DUP6 ADD SWAP2 ADD PUSH2 0x1DC8 JUMP JUMPDEST CODESIZE PUSH2 0x5CE3 JUMP JUMPDEST PUSH2 0x5E39 SWAP2 POP PUSH1 0x20 RETURNDATASIZE PUSH1 0x20 GT PUSH2 0x1D69 JUMPI PUSH2 0x1D5B DUP2 DUP4 PUSH2 0x17DD JUMP JUMPDEST CODESIZE PUSH2 0x5C7C JUMP JUMPDEST DUP2 PUSH2 0x5E49 SWAP2 PUSH2 0x17DD JUMP JUMPDEST CODESIZE PUSH2 0x5C3F JUMP JUMPDEST SWAP3 POP PUSH1 0x40 MLOAD PUSH4 0x6F143BE1 PUSH1 0xE0 SHL DUP2 MSTORE DUP5 PUSH1 0x4 DUP3 ADD MSTORE PUSH1 0x20 DUP2 PUSH1 0x24 DUP2 DUP6 GAS DELEGATECALL DUP1 ISZERO PUSH2 0x5EBF JUMPI DUP5 SWAP1 PUSH2 0x5E8B JUMPI JUMPDEST PUSH2 0x5E85 SWAP2 POP TIMESTAMP PUSH2 0x1D96 JUMP JUMPDEST SWAP3 PUSH2 0x5BFE JUMP JUMPDEST POP PUSH1 0x20 DUP2 RETURNDATASIZE PUSH1 0x20 GT PUSH2 0x5EB7 JUMPI JUMPDEST DUP2 PUSH2 0x5EA5 PUSH1 0x20 SWAP4 DUP4 PUSH2 0x17DD JUMP JUMPDEST DUP2 ADD SUB SLT PUSH2 0x2085 JUMPI PUSH2 0x5E85 SWAP1 MLOAD PUSH2 0x5E7A JUMP JUMPDEST RETURNDATASIZE SWAP2 POP PUSH2 0x5E98 JUMP JUMPDEST PUSH1 0x40 MLOAD RETURNDATASIZE DUP7 DUP3 RETURNDATACOPY RETURNDATASIZE SWAP1 REVERT JUMPDEST PUSH2 0x5EE3 SWAP2 POP PUSH1 0x20 RETURNDATASIZE PUSH1 0x20 GT PUSH2 0x8D6 JUMPI PUSH2 0x8C8 DUP2 DUP4 PUSH2 0x17DD JUMP JUMPDEST CODESIZE PUSH2 0x5BF7 JUMP JUMPDEST PUSH2 0x1BE0 SWAP3 SWAP2 POP PUSH2 0x6618 JUMP JUMPDEST PUSH2 0x5F0D SWAP2 POP PUSH1 0x20 RETURNDATASIZE PUSH1 0x20 GT PUSH2 0x8D6 JUMPI PUSH2 0x8C8 DUP2 DUP4 PUSH2 0x17DD JUMP JUMPDEST CODESIZE PUSH2 0x5BB1 JUMP JUMPDEST PUSH1 0x1 PUSH1 0x1 PUSH1 0xA0 SHL SUB SWAP1 SWAP2 AND DUP2 MSTORE PUSH1 0x20 DUP2 ADD SWAP2 SWAP1 SWAP2 MSTORE PUSH1 0x0 PUSH1 0x40 DUP3 ADD DUP2 SWAP1 MSTORE PUSH1 0x60 DUP3 ADD MSTORE PUSH1 0x80 ADD SWAP1 JUMP JUMPDEST SWAP1 DUP1 PUSH1 0x20 SWAP4 SWAP3 DUP2 DUP5 MSTORE DUP5 DUP5 ADD CALLDATACOPY PUSH1 0x0 DUP3 DUP3 ADD DUP5 ADD MSTORE PUSH1 0x1F ADD PUSH1 0x1F NOT AND ADD ADD SWAP1 JUMP JUMPDEST PUSH1 0x1 SLOAD PUSH1 0x40 MLOAD PUSH4 0xE05E5D5 PUSH1 0xE2 SHL DUP2 MSTORE SWAP3 SWAP5 SWAP4 SWAP3 PUSH1 0x1 PUSH1 0x1 PUSH1 0xA0 SHL SUB SWAP1 SWAP2 AND SWAP1 PUSH1 0x0 SWAP1 PUSH1 0x20 DUP2 DUP1 PUSH2 0x5F92 DUP11 DUP9 PUSH1 0x4 DUP5 ADD PUSH2 0x1B1E JUMP JUMPDEST SUB DUP2 DUP7 GAS STATICCALL SWAP1 DUP2 ISZERO PUSH2 0x212A JUMPI DUP3 SWAP2 PUSH2 0x6121 JUMPI JUMPDEST POP ISZERO PUSH2 0x6119 JUMPI DUP2 EXTCODESIZE ISZERO PUSH2 0x2082 JUMPI DUP1 PUSH1 0x40 MLOAD DUP1 SWAP4 PUSH4 0x24A6D6D PUSH1 0xE1 SHL DUP3 MSTORE DUP2 DUP4 DUP2 PUSH2 0x5FD3 DUP13 DUP11 PUSH1 0x4 DUP5 ADD PUSH2 0x5F13 JUMP JUMPDEST SUB SWAP3 GAS CALL SWAP2 DUP3 PUSH2 0x6109 JUMPI JUMPDEST POP SWAP1 PUSH2 0x5FEB JUMPI POP POP POP POP POP JUMP JUMPDEST PUSH1 0x40 MLOAD PUSH4 0x737FEE1 PUSH1 0xE4 SHL DUP2 MSTORE PUSH1 0x4 DUP2 ADD DUP7 SWAP1 MSTORE PUSH1 0x20 DUP2 PUSH1 0x24 DUP2 PUSH20 0x0 GAS DELEGATECALL SWAP1 DUP2 ISZERO PUSH2 0x212A JUMPI SWAP1 PUSH2 0xFFFF SWAP2 DUP4 SWAP2 PUSH2 0x60EA JUMPI JUMPDEST POP AND DUP1 PUSH2 0x6077 JUMPI JUMPDEST POP POP SWAP1 PUSH1 0x0 DUP1 MLOAD PUSH1 0x20 PUSH2 0x7CC6 DUP4 CODECOPY DUP2 MLOAD SWAP2 MSTORE SWAP2 PUSH2 0x606A PUSH1 0x40 MLOAD SWAP3 DUP4 SWAP3 PUSH1 0x20 DUP5 MSTORE PUSH1 0x1 DUP1 PUSH1 0xA0 SHL SUB AND SWAP6 PUSH1 0x20 DUP5 ADD SWAP2 PUSH2 0x5F3C JUMP JUMPDEST SUB SWAP1 LOG3 CODESIZE DUP1 DUP1 DUP1 DUP1 PUSH2 0x1D70 JUMP JUMPDEST PUSH1 0x1 SLOAD PUSH1 0x1 PUSH1 0x1 PUSH1 0xA0 SHL SUB AND SWAP1 DUP2 EXTCODESIZE ISZERO PUSH2 0x2126 JUMPI PUSH1 0x40 MLOAD PUSH4 0x31879A7 PUSH1 0xE2 SHL DUP2 MSTORE PUSH1 0x1 PUSH1 0x1 PUSH1 0xA0 SHL SUB DUP6 AND PUSH1 0x4 DUP3 ADD MSTORE PUSH1 0x24 DUP2 ADD SWAP2 SWAP1 SWAP2 MSTORE PUSH1 0x60 PUSH1 0x44 DUP3 ADD MSTORE SWAP1 DUP3 SWAP1 DUP3 SWAP1 DUP2 DUP4 DUP2 PUSH2 0x60CC PUSH1 0x64 DUP3 ADD DUP13 DUP13 PUSH2 0x5F3C JUMP JUMPDEST SUB SWAP3 GAS CALL ISZERO PUSH2 0x6037 JUMPI PUSH2 0x60E0 DUP3 DUP1 SWAP3 PUSH2 0x17DD JUMP JUMPDEST PUSH2 0x2082 JUMPI DUP1 PUSH2 0x6037 JUMP JUMPDEST PUSH2 0x6103 SWAP2 POP PUSH1 0x20 RETURNDATASIZE PUSH1 0x20 GT PUSH2 0x1D69 JUMPI PUSH2 0x1D5B DUP2 DUP4 PUSH2 0x17DD JUMP JUMPDEST CODESIZE PUSH2 0x602F JUMP JUMPDEST DUP2 PUSH2 0x6113 SWAP2 PUSH2 0x17DD JUMP JUMPDEST CODESIZE PUSH2 0x5FDE JUMP JUMPDEST POP POP POP POP POP POP JUMP JUMPDEST PUSH2 0x613A SWAP2 POP PUSH1 0x20 RETURNDATASIZE PUSH1 0x20 GT PUSH2 0x8D6 JUMPI PUSH2 0x8C8 DUP2 DUP4 PUSH2 0x17DD JUMP JUMPDEST CODESIZE PUSH2 0x5FA5 JUMP JUMPDEST PUSH1 0x1 PUSH1 0x1 PUSH1 0x40 SHL SUB DUP2 GT PUSH2 0x17C7 JUMPI PUSH1 0x5 SHL PUSH1 0x20 ADD SWAP1 JUMP JUMPDEST DUP1 MLOAD DUP3 LT ISZERO PUSH2 0xA23 JUMPI PUSH1 0x20 SWAP2 PUSH1 0x5 SHL ADD ADD SWAP1 JUMP JUMPDEST PUSH1 0x0 NOT DUP2 EQ PUSH2 0x1996 JUMPI PUSH1 0x1 ADD SWAP1 JUMP JUMPDEST PUSH2 0x6183 DUP2 PUSH2 0x6756 JUMP JUMPDEST PUSH2 0x6443 JUMPI JUMPDEST PUSH2 0x6191 DUP2 PUSH2 0x68C2 JUMP JUMPDEST PUSH2 0x6403 JUMPI JUMPDEST PUSH2 0x619F DUP2 PUSH2 0x6A36 JUMP JUMPDEST PUSH2 0x63C3 JUMPI JUMPDEST PUSH2 0x61AD DUP2 PUSH2 0x6C2B JUMP JUMPDEST PUSH2 0x6383 JUMPI JUMPDEST PUSH2 0x61BB DUP2 PUSH2 0x6D81 JUMP JUMPDEST PUSH2 0x6343 JUMPI JUMPDEST PUSH2 0x61C9 DUP2 PUSH2 0x6F27 JUMP JUMPDEST PUSH2 0x6303 JUMPI JUMPDEST PUSH2 0x61D7 DUP2 PUSH2 0x709D JUMP JUMPDEST PUSH2 0x62C3 JUMPI JUMPDEST PUSH2 0x61E5 DUP2 PUSH2 0x71F3 JUMP JUMPDEST PUSH2 0x6283 JUMPI JUMPDEST PUSH2 0x61F3 DUP2 PUSH2 0x7349 JUMP JUMPDEST PUSH2 0x6243 JUMPI JUMPDEST PUSH2 0x6201 DUP2 PUSH2 0x749F JUMP JUMPDEST PUSH2 0x6208 JUMPI POP JUMP JUMPDEST PUSH1 0x0 SLOAD PUSH1 0x1 PUSH1 0x1 PUSH1 0xA0 SHL SUB AND CALLER EQ ISZERO DUP1 PUSH2 0x622A JUMPI JUMPDEST PUSH2 0x2F9 JUMPI PUSH2 0x1BE0 SWAP1 PUSH2 0x5758 JUMP JUMPDEST POP CALLER PUSH1 0x0 MSTORE PUSH1 0x4 PUSH1 0x20 MSTORE PUSH1 0xFF PUSH1 0x40 PUSH1 0x0 KECCAK256 SLOAD AND ISZERO PUSH2 0x621D JUMP JUMPDEST PUSH1 0x0 SLOAD PUSH1 0x1 PUSH1 0x1 PUSH1 0xA0 SHL SUB AND CALLER EQ ISZERO DUP1 PUSH2 0x626A JUMPI JUMPDEST PUSH2 0x2F9 JUMPI PUSH2 0x6265 DUP2 PUSH2 0x5343 JUMP JUMPDEST PUSH2 0x61F8 JUMP JUMPDEST POP CALLER PUSH1 0x0 MSTORE PUSH1 0x4 PUSH1 0x20 MSTORE PUSH1 0xFF PUSH1 0x40 PUSH1 0x0 KECCAK256 SLOAD AND ISZERO PUSH2 0x6258 JUMP JUMPDEST PUSH1 0x0 SLOAD PUSH1 0x1 PUSH1 0x1 PUSH1 0xA0 SHL SUB AND CALLER EQ ISZERO DUP1 PUSH2 0x62AA JUMPI JUMPDEST PUSH2 0x2F9 JUMPI PUSH2 0x62A5 DUP2 PUSH2 0x4F2E JUMP JUMPDEST PUSH2 0x61EA JUMP JUMPDEST POP CALLER PUSH1 0x0 MSTORE PUSH1 0x4 PUSH1 0x20 MSTORE PUSH1 0xFF PUSH1 0x40 PUSH1 0x0 KECCAK256 SLOAD AND ISZERO PUSH2 0x6298 JUMP JUMPDEST PUSH1 0x0 SLOAD PUSH1 0x1 PUSH1 0x1 PUSH1 0xA0 SHL SUB AND CALLER EQ ISZERO DUP1 PUSH2 0x62EA JUMPI JUMPDEST PUSH2 0x2F9 JUMPI PUSH2 0x62E5 DUP2 PUSH2 0x4B19 JUMP JUMPDEST PUSH2 0x61DC JUMP JUMPDEST POP CALLER PUSH1 0x0 MSTORE PUSH1 0x4 PUSH1 0x20 MSTORE PUSH1 0xFF PUSH1 0x40 PUSH1 0x0 KECCAK256 SLOAD AND ISZERO PUSH2 0x62D8 JUMP JUMPDEST PUSH1 0x0 SLOAD PUSH1 0x1 PUSH1 0x1 PUSH1 0xA0 SHL SUB AND CALLER EQ ISZERO DUP1 PUSH2 0x632A JUMPI JUMPDEST PUSH2 0x2F9 JUMPI PUSH2 0x6325 DUP2 PUSH2 0x4704 JUMP JUMPDEST PUSH2 0x61CE JUMP JUMPDEST POP CALLER PUSH1 0x0 MSTORE PUSH1 0x4 PUSH1 0x20 MSTORE PUSH1 0xFF PUSH1 0x40 PUSH1 0x0 KECCAK256 SLOAD AND ISZERO PUSH2 0x6318 JUMP JUMPDEST PUSH1 0x0 SLOAD PUSH1 0x1 PUSH1 0x1 PUSH1 0xA0 SHL SUB AND CALLER EQ ISZERO DUP1 PUSH2 0x636A JUMPI JUMPDEST PUSH2 0x2F9 JUMPI PUSH2 0x6365 DUP2 PUSH2 0x42EF JUMP JUMPDEST PUSH2 0x61C0 JUMP JUMPDEST POP CALLER PUSH1 0x0 MSTORE PUSH1 0x4 PUSH1 0x20 MSTORE PUSH1 0xFF PUSH1 0x40 PUSH1 0x0 KECCAK256 SLOAD AND ISZERO PUSH2 0x6358 JUMP JUMPDEST PUSH1 0x0 SLOAD PUSH1 0x1 PUSH1 0x1 PUSH1 0xA0 SHL SUB AND CALLER EQ ISZERO DUP1 PUSH2 0x63AA JUMPI JUMPDEST PUSH2 0x2F9 JUMPI PUSH2 0x63A5 DUP2 PUSH2 0x3EDA JUMP JUMPDEST PUSH2 0x61B2 JUMP JUMPDEST POP CALLER PUSH1 0x0 MSTORE PUSH1 0x4 PUSH1 0x20 MSTORE PUSH1 0xFF PUSH1 0x40 PUSH1 0x0 KECCAK256 SLOAD AND ISZERO PUSH2 0x6398 JUMP JUMPDEST PUSH1 0x0 SLOAD PUSH1 0x1 PUSH1 0x1 PUSH1 0xA0 SHL SUB AND CALLER EQ ISZERO DUP1 PUSH2 0x63EA JUMPI JUMPDEST PUSH2 0x2F9 JUMPI PUSH2 0x63E5 DUP2 PUSH2 0x3AC5 JUMP JUMPDEST PUSH2 0x61A4 JUMP JUMPDEST POP CALLER PUSH1 0x0 MSTORE PUSH1 0x4 PUSH1 0x20 MSTORE PUSH1 0xFF PUSH1 0x40 PUSH1 0x0 KECCAK256 SLOAD AND ISZERO PUSH2 0x63D8 JUMP JUMPDEST PUSH1 0x0 SLOAD PUSH1 0x1 PUSH1 0x1 PUSH1 0xA0 SHL SUB AND CALLER EQ ISZERO DUP1 PUSH2 0x642A JUMPI JUMPDEST PUSH2 0x2F9 JUMPI PUSH2 0x6425 DUP2 PUSH2 0x36B0 JUMP JUMPDEST PUSH2 0x6196 JUMP JUMPDEST POP CALLER PUSH1 0x0 MSTORE PUSH1 0x4 PUSH1 0x20 MSTORE PUSH1 0xFF PUSH1 0x40 PUSH1 0x0 KECCAK256 SLOAD AND ISZERO PUSH2 0x6418 JUMP JUMPDEST PUSH1 0x0 SLOAD PUSH1 0x1 PUSH1 0x1 PUSH1 0xA0 SHL SUB AND CALLER EQ ISZERO DUP1 PUSH2 0x646A JUMPI JUMPDEST PUSH2 0x2F9 JUMPI PUSH2 0x6465 DUP2 PUSH2 0x329B JUMP JUMPDEST PUSH2 0x6188 JUMP JUMPDEST POP CALLER PUSH1 0x0 MSTORE PUSH1 0x4 PUSH1 0x20 MSTORE PUSH1 0xFF PUSH1 0x40 PUSH1 0x0 KECCAK256 SLOAD AND ISZERO PUSH2 0x6458 JUMP JUMPDEST DUP1 SLOAD PUSH1 0x1 PUSH1 0x40 SHL PUSH1 0x1 PUSH1 0x80 SHL SUB NOT AND PUSH1 0x40 SWAP3 SWAP1 SWAP3 SHL PUSH1 0x1 PUSH1 0x40 SHL PUSH1 0x1 PUSH1 0x80 SHL SUB AND SWAP2 SWAP1 SWAP2 OR SWAP1 SSTORE JUMP JUMPDEST PUSH1 0x1 PUSH1 0x1 PUSH1 0xA0 SHL SUB AND PUSH1 0x0 DUP2 DUP2 MSTORE PUSH1 0x2 PUSH1 0x20 MSTORE PUSH1 0x40 SWAP1 KECCAK256 PUSH1 0x1 DUP2 ADD DUP1 SLOAD PUSH1 0x80 DUP2 SWAP1 SHR PUSH1 0x1 PUSH1 0x1 PUSH1 0x40 SHL SUB AND ISZERO PUSH2 0x65F2 JUMPI JUMPDEST POP DUP1 SLOAD PUSH1 0x1 PUSH1 0x1 PUSH1 0x40 SHL SUB PUSH3 0x15180 TIMESTAMP DIV DUP2 AND SWAP3 SWAP2 PUSH1 0x40 SHR AND DUP1 PUSH2 0x6567 JUMPI POP DUP3 SLOAD PUSH4 0xFFFFFFFF PUSH1 0x20 SHL NOT AND PUSH1 0x1 PUSH1 0x20 SHL OR DUP4 SSTORE PUSH1 0x0 DUP1 MLOAD PUSH1 0x20 PUSH2 0x7CE6 DUP4 CODECOPY DUP2 MLOAD SWAP2 MSTORE SWAP3 PUSH1 0x80 SWAP3 PUSH4 0xFFFFFFFF SWAP3 PUSH2 0x6533 SWAP2 SWAP1 PUSH2 0x6483 JUMP JUMPDEST SLOAD PUSH1 0x20 SHR AND PUSH1 0x40 MLOAD SWAP1 PUSH1 0x40 DUP3 MSTORE PUSH1 0xF PUSH1 0x40 DUP4 ADD MSTORE PUSH15 0x636F6E736563757469766544617973 PUSH1 0x88 SHL PUSH1 0x60 DUP4 ADD MSTORE PUSH1 0x20 DUP3 ADD MSTORE LOG2 JUMP JUMPDEST SWAP1 SWAP3 SWAP1 DUP3 DUP2 SUB PUSH2 0x6578 JUMPI POP POP POP POP POP JUMP JUMPDEST PUSH1 0x1 ADD SWAP1 PUSH1 0x1 PUSH1 0x1 PUSH1 0x40 SHL SUB DUP3 GT PUSH2 0x1996 JUMPI PUSH1 0x0 DUP1 MLOAD PUSH1 0x20 PUSH2 0x7CE6 DUP4 CODECOPY DUP2 MLOAD SWAP2 MSTORE SWAP4 PUSH1 0x80 SWAP4 PUSH4 0xFFFFFFFF SWAP4 PUSH1 0x1 PUSH1 0x1 PUSH1 0x40 SHL SUB AND DUP2 SUB PUSH2 0x65D8 JUMPI PUSH2 0x65D3 SWAP2 PUSH2 0x65CE PUSH2 0x65C8 DUP7 DUP7 SLOAD PUSH1 0x20 SHR AND PUSH2 0x1ACC JUMP JUMPDEST DUP6 PUSH2 0x1AE3 JUMP JUMPDEST PUSH2 0x6483 JUMP JUMPDEST PUSH2 0x6533 JUMP JUMPDEST DUP3 SLOAD PUSH1 0x20 DUP6 SWAP1 SHL NOT AND PUSH1 0x1 PUSH1 0x20 SHL OR DUP4 SSTORE PUSH2 0x65D3 SWAP2 PUSH2 0x6483 JUMP JUMPDEST PUSH1 0x1 PUSH1 0x80 SHL PUSH1 0x1 PUSH1 0xC0 SHL SUB NOT AND TIMESTAMP PUSH1 0x80 SHL PUSH1 0x1 PUSH1 0x80 SHL PUSH1 0x1 PUSH1 0xC0 SHL SUB AND OR DUP2 SSTORE CODESIZE PUSH2 0x64DD JUMP JUMPDEST SWAP1 PUSH1 0x40 MLOAD PUSH4 0x157E6AD1 PUSH1 0xE2 SHL DUP2 MSTORE DUP2 PUSH1 0x4 DUP3 ADD MSTORE PUSH1 0x20 DUP2 PUSH1 0x24 DUP2 PUSH20 0x0 GAS DELEGATECALL SWAP1 DUP2 ISZERO PUSH2 0x8DD JUMPI PUSH1 0x0 SWAP2 PUSH2 0x6726 JUMPI JUMPDEST POP PUSH2 0x66C7 JUMPI PUSH1 0x1 SLOAD PUSH1 0x40 MLOAD PUSH4 0xD5B37A7F PUSH1 0xE0 SHL DUP2 MSTORE SWAP1 PUSH1 0x20 SWAP1 DUP3 SWAP1 PUSH1 0x1 PUSH1 0x1 PUSH1 0xA0 SHL SUB AND DUP2 DUP1 PUSH2 0x668C DUP8 DUP10 PUSH1 0x4 DUP5 ADD PUSH2 0x1B1E JUMP JUMPDEST SUB SWAP2 GAS STATICCALL SWAP1 DUP2 ISZERO PUSH2 0x8DD JUMPI PUSH1 0x0 SWAP2 PUSH2 0x66F4 JUMPI JUMPDEST POP DUP1 ISZERO ISZERO SWAP1 DUP2 DUP1 PUSH2 0x66EB JUMPI JUMPDEST ISZERO PUSH2 0x66BB JUMPI POP POP PUSH2 0x1BE0 SWAP2 PUSH2 0x79BB JUMP JUMPDEST DUP2 PUSH2 0x66D4 JUMPI JUMPDEST POP PUSH2 0x66CB JUMPI JUMPDEST POP POP JUMP JUMPDEST PUSH2 0x1BE0 SWAP2 PUSH2 0x79BB JUMP JUMPDEST PUSH3 0x93A7F NOT DUP2 ADD SWAP2 POP DUP2 GT PUSH2 0x1996 JUMPI TIMESTAMP GT CODESIZE PUSH2 0x66C1 JUMP JUMPDEST POP DUP1 TIMESTAMP GT PUSH2 0x66AB JUMP JUMPDEST SWAP1 PUSH1 0x20 DUP3 RETURNDATASIZE PUSH1 0x20 GT PUSH2 0x671E JUMPI JUMPDEST DUP2 PUSH2 0x670E PUSH1 0x20 SWAP4 DUP4 PUSH2 0x17DD JUMP JUMPDEST DUP2 ADD SUB SLT PUSH2 0x2082 JUMPI POP MLOAD CODESIZE PUSH2 0x669F JUMP JUMPDEST RETURNDATASIZE SWAP2 POP PUSH2 0x6701 JUMP JUMPDEST PUSH2 0x673F SWAP2 POP PUSH1 0x20 RETURNDATASIZE PUSH1 0x20 GT PUSH2 0x8D6 JUMPI PUSH2 0x8C8 DUP2 DUP4 PUSH2 0x17DD JUMP JUMPDEST CODESIZE PUSH2 0x6658 JUMP JUMPDEST PUSH1 0xFF AND PUSH1 0xFF DUP2 EQ PUSH2 0x1996 JUMPI PUSH1 0x1 ADD SWAP1 JUMP JUMPDEST PUSH1 0x1 DUP1 PUSH1 0xA0 SHL SUB AND DUP1 PUSH1 0x0 MSTORE PUSH1 0x2 PUSH1 0x20 MSTORE PUSH1 0x40 PUSH1 0x0 KECCAK256 PUSH1 0xFF PUSH1 0x2 PUSH1 0x40 MLOAD SWAP3 PUSH2 0x677D DUP5 PUSH2 0x17AB JUMP JUMPDEST DUP1 SLOAD PUSH4 0xFFFFFFFF DUP2 AND DUP6 MSTORE PUSH4 0xFFFFFFFF DUP2 PUSH1 0x20 SHR AND PUSH1 0x20 DUP7 ADD MSTORE PUSH4 0xFFFFFFFF DUP2 PUSH1 0x40 SHR AND PUSH1 0x40 DUP7 ADD MSTORE PUSH4 0xFFFFFFFF DUP2 PUSH1 0x60 SHR AND PUSH1 0x60 DUP7 ADD MSTORE PUSH4 0xFFFFFFFF DUP2 PUSH1 0x80 SHR AND PUSH1 0x80 DUP7 ADD MSTORE PUSH4 0xFFFFFFFF DUP2 PUSH1 0xA0 SHR AND PUSH1 0xA0 DUP7 ADD MSTORE PUSH4 0xFFFFFFFF DUP2 PUSH1 0xC0 SHR AND PUSH1 0xC0 DUP7 ADD MSTORE PUSH1 0xE0 SHR PUSH1 0xE0 DUP6 ADD MSTORE PUSH1 0x1 DUP2 ADD SLOAD PUSH4 0xFFFFFFFF DUP2 AND PUSH2 0x100 DUP7 ADD MSTORE PUSH4 0xFFFFFFFF DUP2 PUSH1 0x20 SHR AND PUSH2 0x120 DUP7 ADD MSTORE PUSH1 0x1 DUP1 PUSH1 0x40 SHL SUB DUP2 PUSH1 0x40 SHR AND PUSH2 0x140 DUP7 ADD MSTORE PUSH1 0x1 DUP1 PUSH1 0x40 SHL SUB DUP2 PUSH1 0x80 SHR AND PUSH2 0x160 DUP7 ADD MSTORE PUSH1 0xC0 SHR PUSH2 0x180 DUP6 ADD MSTORE ADD SLOAD DUP2 DUP2 AND ISZERO ISZERO PUSH2 0x1A0 DUP5 ADD MSTORE DUP2 DUP2 PUSH1 0x8 SHR AND ISZERO ISZERO PUSH2 0x1C0 DUP5 ADD MSTORE PUSH1 0x10 SHR AND ISZERO ISZERO PUSH2 0x1E0 DUP3 ADD MSTORE PUSH1 0x20 PUSH1 0x1 DUP1 PUSH1 0xA0 SHL SUB PUSH1 0x1 SLOAD AND SWAP3 PUSH1 0x24 PUSH1 0x40 MLOAD DUP1 SWAP6 DUP2 SWAP4 PUSH4 0xD47875D PUSH1 0xE4 SHL DUP4 MSTORE PUSH1 0x4 DUP4 ADD MSTORE GAS STATICCALL SWAP1 DUP2 ISZERO PUSH2 0x8DD JUMPI PUSH1 0x32 SWAP3 PUSH4 0xFFFFFFFF SWAP3 PUSH2 0x68A5 JUMPI JUMPDEST POP MLOAD AND LT ISZERO SWAP1 JUMP JUMPDEST PUSH2 0x68BD SWAP1 PUSH1 0x20 RETURNDATASIZE PUSH1 0x20 GT PUSH2 0x1D69 JUMPI PUSH2 0x1D5B DUP2 DUP4 PUSH2 0x17DD JUMP JUMPDEST PUSH2 0x689D JUMP JUMPDEST PUSH1 0x1 PUSH1 0x1 PUSH1 0xA0 SHL SUB AND PUSH1 0x0 DUP2 DUP2 MSTORE PUSH1 0x2 PUSH1 0x20 MSTORE PUSH1 0x40 DUP1 DUP3 KECCAK256 SWAP1 MLOAD SWAP1 SWAP3 SWAP1 PUSH2 0x68E8 DUP2 PUSH2 0x17AB JUMP JUMPDEST PUSH2 0x1E0 PUSH1 0xFF PUSH1 0x2 DUP7 SLOAD SWAP7 PUSH4 0xFFFFFFFF DUP9 AND DUP6 MSTORE PUSH4 0xFFFFFFFF DUP9 PUSH1 0x20 SHR AND PUSH1 0x20 DUP7 ADD MSTORE PUSH1 0x40 DUP6 ADD SWAP8 PUSH4 0xFFFFFFFF DUP2 PUSH1 0x40 SHR AND DUP10 MSTORE PUSH4 0xFFFFFFFF DUP2 PUSH1 0x60 SHR AND PUSH1 0x60 DUP8 ADD MSTORE PUSH4 0xFFFFFFFF DUP2 PUSH1 0x80 SHR AND PUSH1 0x80 DUP8 ADD MSTORE PUSH4 0xFFFFFFFF DUP2 PUSH1 0xA0 SHR AND PUSH1 0xA0 DUP8 ADD MSTORE PUSH4 0xFFFFFFFF DUP2 PUSH1 0xC0 SHR AND PUSH1 0xC0 DUP8 ADD MSTORE PUSH1 0xE0 SHR PUSH1 0xE0 DUP7 ADD MSTORE PUSH1 0x1 DUP2 ADD SLOAD PUSH4 0xFFFFFFFF DUP2 AND PUSH2 0x100 DUP8 ADD MSTORE PUSH4 0xFFFFFFFF DUP2 PUSH1 0x20 SHR AND PUSH2 0x120 DUP8 ADD MSTORE PUSH1 0x1 DUP1 PUSH1 0x40 SHL SUB DUP2 PUSH1 0x40 SHR AND PUSH2 0x140 DUP8 ADD MSTORE PUSH1 0x1 DUP1 PUSH1 0x40 SHL SUB DUP2 PUSH1 0x80 SHR AND PUSH2 0x160 DUP8 ADD MSTORE PUSH1 0xC0 SHR PUSH2 0x180 DUP7 ADD MSTORE ADD SLOAD DUP2 DUP2 AND ISZERO ISZERO PUSH2 0x1A0 DUP6 ADD MSTORE DUP2 DUP2 PUSH1 0x8 SHR AND ISZERO ISZERO PUSH2 0x1C0 DUP6 ADD MSTORE PUSH1 0x10 SHR AND ISZERO ISZERO SWAP2 ADD MSTORE PUSH1 0x20 PUSH1 0x1 DUP1 PUSH1 0xA0 SHL SUB PUSH1 0x1 SLOAD AND SWAP2 PUSH1 0x24 PUSH1 0x40 MLOAD DUP1 SWAP5 DUP2 SWAP4 PUSH4 0xD47875D PUSH1 0xE4 SHL DUP4 MSTORE PUSH1 0x4 DUP4 ADD MSTORE GAS STATICCALL DUP1 ISZERO PUSH2 0x212A JUMPI SWAP2 PUSH1 0xA SWAP4 SWAP2 PUSH4 0xFFFFFFFF SWAP4 PUSH2 0x6A19 JUMPI JUMPDEST POP POP MLOAD AND LT ISZERO SWAP1 JUMP JUMPDEST PUSH2 0x6A31 SWAP1 PUSH1 0x20 RETURNDATASIZE PUSH1 0x20 GT PUSH2 0x1D69 JUMPI PUSH2 0x1D5B DUP2 DUP4 PUSH2 0x17DD JUMP JUMPDEST PUSH2 0x6A10 JUMP JUMPDEST PUSH1 0x1 PUSH1 0x1 PUSH1 0xA0 SHL SUB AND PUSH1 0x0 DUP2 DUP2 MSTORE PUSH1 0x2 PUSH1 0x20 MSTORE PUSH1 0x40 DUP1 DUP3 KECCAK256 SWAP1 MLOAD SWAP3 PUSH2 0x6A5A DUP5 PUSH2 0x17AB JUMP JUMPDEST DUP2 SLOAD SWAP3 PUSH4 0xFFFFFFFF DUP5 AND DUP6 MSTORE PUSH4 0xFFFFFFFF DUP5 PUSH1 0x20 SHR AND PUSH1 0x20 DUP7 ADD MSTORE PUSH1 0x40 DUP6 ADD SWAP2 PUSH4 0xFFFFFFFF DUP6 PUSH1 0x40 SHR AND DUP4 MSTORE PUSH4 0xFFFFFFFF DUP6 PUSH1 0x60 SHR AND PUSH1 0x60 DUP8 ADD MSTORE PUSH1 0xFF PUSH1 0x2 PUSH1 0x80 DUP9 ADD SWAP6 PUSH4 0xFFFFFFFF DUP9 PUSH1 0x80 SHR AND DUP8 MSTORE PUSH1 0xA0 DUP10 ADD SWAP8 PUSH4 0xFFFFFFFF DUP2 PUSH1 0xA0 SHR AND DUP10 MSTORE PUSH4 0xFFFFFFFF DUP2 PUSH1 0xC0 SHR AND PUSH1 0xC0 DUP12 ADD MSTORE PUSH1 0xE0 SHR PUSH1 0xE0 DUP11 ADD MSTORE PUSH1 0x1 DUP2 ADD SLOAD PUSH4 0xFFFFFFFF DUP2 AND PUSH2 0x100 DUP12 ADD MSTORE PUSH4 0xFFFFFFFF DUP2 PUSH1 0x20 SHR AND PUSH2 0x120 DUP12 ADD MSTORE PUSH1 0x1 DUP1 PUSH1 0x40 SHL SUB DUP2 PUSH1 0x40 SHR AND PUSH2 0x140 DUP12 ADD MSTORE PUSH1 0x1 DUP1 PUSH1 0x40 SHL SUB DUP2 PUSH1 0x80 SHR AND PUSH2 0x160 DUP12 ADD MSTORE PUSH1 0xC0 SHR PUSH2 0x180 DUP11 ADD MSTORE ADD SLOAD DUP2 DUP2 AND ISZERO ISZERO PUSH2 0x1A0 DUP10 ADD MSTORE DUP2 DUP2 PUSH1 0x8 SHR AND ISZERO ISZERO PUSH2 0x1C0 DUP10 ADD MSTORE PUSH1 0x10 SHR AND ISZERO ISZERO PUSH2 0x1E0 DUP8 ADD MSTORE PUSH1 0x20 PUSH1 0x1 DUP1 PUSH1 0xA0 SHL SUB PUSH1 0x1 SLOAD AND SWAP2 PUSH1 0x24 PUSH1 0x40 MLOAD DUP1 SWAP5 DUP2 SWAP4 PUSH4 0xD47875D PUSH1 0xE4 SHL DUP4 MSTORE PUSH1 0x4 DUP4 ADD MSTORE GAS STATICCALL DUP1 ISZERO PUSH2 0x212A JUMPI SWAP2 PUSH1 0xFF SWAP6 SWAP4 SWAP2 PUSH1 0x3 SWAP8 SWAP6 SWAP4 PUSH2 0x6C0E JUMPI JUMPDEST POP POP PUSH1 0x0 PUSH4 0xFFFFFFFF DUP2 SWAP6 MLOAD AND PUSH2 0x6BFF JUMPI JUMPDEST POP MLOAD PUSH4 0xFFFFFFFF AND PUSH2 0x6BE8 JUMPI JUMPDEST MLOAD PUSH4 0xFFFFFFFF AND PUSH2 0x6BD1 JUMPI JUMPDEST MLOAD PUSH4 0xFFFFFFFF AND PUSH2 0x6BC3 JUMPI JUMPDEST AND LT ISZERO SWAP1 JUMP JUMPDEST PUSH2 0x6BCC SWAP1 PUSH2 0x6745 JUMP JUMPDEST PUSH2 0x6BBD JUMP JUMPDEST SWAP1 PUSH2 0x6BE0 PUSH4 0xFFFFFFFF SWAP2 PUSH2 0x6745 JUMP JUMPDEST SWAP2 SWAP1 POP PUSH2 0x6BB1 JUMP JUMPDEST SWAP2 PUSH2 0x6BF7 PUSH4 0xFFFFFFFF SWAP2 PUSH2 0x6745 JUMP JUMPDEST SWAP3 SWAP1 POP PUSH2 0x6BA5 JUMP JUMPDEST POP PUSH1 0x1 SWAP4 POP PUSH4 0xFFFFFFFF PUSH2 0x6B98 JUMP JUMPDEST PUSH2 0x6C26 SWAP1 PUSH1 0x20 RETURNDATASIZE PUSH1 0x20 GT PUSH2 0x1D69 JUMPI PUSH2 0x1D5B DUP2 DUP4 PUSH2 0x17DD JUMP JUMPDEST PUSH2 0x6B86 JUMP JUMPDEST PUSH1 0x1 PUSH1 0x1 PUSH1 0xA0 SHL SUB AND PUSH1 0x0 DUP2 DUP2 MSTORE PUSH1 0x2 PUSH1 0x20 MSTORE PUSH1 0x40 DUP1 DUP3 KECCAK256 SWAP1 MLOAD SWAP1 SWAP3 SWAP1 PUSH2 0x6C51 DUP2 PUSH2 0x17AB JUMP JUMPDEST PUSH2 0x1E0 PUSH1 0xFF PUSH1 0x2 DUP7 SLOAD SWAP7 PUSH4 0xFFFFFFFF DUP9 AND DUP6 MSTORE PUSH1 0x20 DUP6 ADD SWAP8 PUSH4 0xFFFFFFFF DUP2 PUSH1 0x20 SHR AND DUP10 MSTORE PUSH4 0xFFFFFFFF DUP2 PUSH1 0x40 SHR AND PUSH1 0x40 DUP8 ADD MSTORE PUSH4 0xFFFFFFFF DUP2 PUSH1 0x60 SHR AND PUSH1 0x60 DUP8 ADD MSTORE PUSH4 0xFFFFFFFF DUP2 PUSH1 0x80 SHR AND PUSH1 0x80 DUP8 ADD MSTORE PUSH4 0xFFFFFFFF DUP2 PUSH1 0xA0 SHR AND PUSH1 0xA0 DUP8 ADD MSTORE PUSH4 0xFFFFFFFF DUP2 PUSH1 0xC0 SHR AND PUSH1 0xC0 DUP8 ADD MSTORE PUSH1 0xE0 SHR PUSH1 0xE0 DUP7 ADD MSTORE PUSH1 0x1 DUP2 ADD SLOAD PUSH4 0xFFFFFFFF DUP2 AND PUSH2 0x100 DUP8 ADD MSTORE PUSH4 0xFFFFFFFF DUP2 PUSH1 0x20 SHR AND PUSH2 0x120 DUP8 ADD MSTORE PUSH1 0x1 DUP1 PUSH1 0x40 SHL SUB DUP2 PUSH1 0x40 SHR AND PUSH2 0x140 DUP8 ADD MSTORE PUSH1 0x1 DUP1 PUSH1 0x40 SHL SUB DUP2 PUSH1 0x80 SHR AND PUSH2 0x160 DUP8 ADD MSTORE PUSH1 0xC0 SHR PUSH2 0x180 DUP7 ADD MSTORE ADD SLOAD DUP2 DUP2 AND ISZERO ISZERO PUSH2 0x1A0 DUP6 ADD MSTORE DUP2 DUP2 PUSH1 0x8 SHR AND ISZERO ISZERO PUSH2 0x1C0 DUP6 ADD MSTORE PUSH1 0x10 SHR AND ISZERO ISZERO SWAP2 ADD MSTORE PUSH1 0x20 PUSH1 0x1 DUP1 PUSH1 0xA0 SHL SUB PUSH1 0x1 SLOAD AND SWAP2 PUSH1 0x24 PUSH1 0x40 MLOAD DUP1 SWAP5 DUP2 SWAP4 PUSH4 0xD47875D PUSH1 0xE4 SHL DUP4 MSTORE PUSH1 0x4 DUP4 ADD MSTORE GAS STATICCALL DUP1 ISZERO PUSH2 0x212A JUMPI SWAP2 PUSH1 0x1E SWAP4 SWAP2 PUSH4 0xFFFFFFFF SWAP4 PUSH2 0x6A19 JUMPI POP POP MLOAD AND LT ISZERO SWAP1 JUMP JUMPDEST PUSH1 0x1 PUSH1 0x1 PUSH1 0xA0 SHL SUB AND PUSH1 0x0 DUP2 DUP2 MSTORE PUSH1 0x2 PUSH1 0x20 MSTORE PUSH1 0x40 DUP1 DUP3 KECCAK256 SWAP1 MLOAD SWAP1 SWAP2 SWAP1 PUSH2 0x6DA7 DUP2 PUSH2 0x17AB JUMP JUMPDEST PUSH2 0x1E0 PUSH1 0xFF PUSH1 0x2 DUP6 SLOAD SWAP6 PUSH4 0xFFFFFFFF DUP8 AND DUP6 MSTORE PUSH4 0xFFFFFFFF DUP8 PUSH1 0x20 SHR AND PUSH1 0x20 DUP7 ADD MSTORE PUSH4 0xFFFFFFFF DUP8 PUSH1 0x40 SHR AND PUSH1 0x40 DUP7 ADD MSTORE PUSH1 0x60 DUP6 ADD SWAP7 PUSH4 0xFFFFFFFF DUP2 PUSH1 0x60 SHR AND DUP9 MSTORE PUSH4 0xFFFFFFFF DUP2 PUSH1 0x80 SHR AND PUSH1 0x80 DUP8 ADD MSTORE PUSH4 0xFFFFFFFF DUP2 PUSH1 0xA0 SHR AND PUSH1 0xA0 DUP8 ADD MSTORE PUSH4 0xFFFFFFFF DUP2 PUSH1 0xC0 SHR AND PUSH1 0xC0 DUP8 ADD MSTORE PUSH1 0xE0 SHR PUSH1 0xE0 DUP7 ADD MSTORE PUSH1 0x1 DUP2 ADD SLOAD PUSH4 0xFFFFFFFF DUP2 AND PUSH2 0x100 DUP8 ADD MSTORE PUSH4 0xFFFFFFFF DUP2 PUSH1 0x20 SHR AND PUSH2 0x120 DUP8 ADD MSTORE PUSH1 0x1 DUP1 PUSH1 0x40 SHL SUB DUP2 PUSH1 0x40 SHR AND PUSH2 0x140 DUP8 ADD MSTORE PUSH1 0x1 DUP1 PUSH1 0x40 SHL SUB DUP2 PUSH1 0x80 SHR AND PUSH2 0x160 DUP8 ADD MSTORE PUSH1 0xC0 SHR PUSH2 0x180 DUP7 ADD MSTORE ADD SLOAD DUP2 DUP2 AND ISZERO ISZERO PUSH2 0x1A0 DUP6 ADD MSTORE DUP2 DUP2 PUSH1 0x8 SHR AND ISZERO ISZERO PUSH2 0x1C0 DUP6 ADD MSTORE PUSH1 0x10 SHR AND ISZERO ISZERO SWAP2 ADD MSTORE PUSH1 0x20 PUSH1 0x1 DUP1 PUSH1 0xA0 SHL SUB PUSH1 0x1 SLOAD AND SWAP4 PUSH1 0x24 PUSH1 0x40 MLOAD DUP1 SWAP7 DUP2 SWAP4 PUSH4 0xD47875D PUSH1 0xE4 SHL DUP4 MSTORE PUSH1 0x4 DUP4 ADD MSTORE GAS STATICCALL SWAP3 DUP4 ISZERO PUSH2 0x6F1A JUMPI DUP2 SWAP4 PUSH2 0x6EEE JUMPI JUMPDEST POP PUSH1 0x64 SWAP2 PUSH4 0xFFFFFFFF SWAP2 POP MLOAD AND LT ISZERO SWAP1 DUP2 PUSH2 0x6EE0 JUMPI POP SWAP1 JUMP JUMPDEST PUSH2 0x2BC SWAP2 POP PUSH2 0xFFFF AND LT ISZERO SWAP1 JUMP JUMPDEST PUSH4 0xFFFFFFFF SWAP2 SWAP4 POP SWAP2 PUSH2 0x6F11 PUSH1 0x64 SWAP4 PUSH1 0x20 RETURNDATASIZE PUSH1 0x20 GT PUSH2 0x1D69 JUMPI PUSH2 0x1D5B DUP2 DUP4 PUSH2 0x17DD JUMP JUMPDEST SWAP4 SWAP2 POP SWAP2 PUSH2 0x6EC7 JUMP JUMPDEST POP PUSH1 0x40 MLOAD SWAP1 RETURNDATASIZE SWAP1 DUP3 RETURNDATACOPY RETURNDATASIZE SWAP1 REVERT JUMPDEST PUSH1 0x1 PUSH1 0x1 PUSH1 0xA0 SHL SUB AND PUSH1 0x0 DUP2 DUP2 MSTORE PUSH1 0x2 PUSH1 0x20 DUP2 SWAP1 MSTORE PUSH1 0x40 DUP1 DUP4 KECCAK256 SWAP1 MLOAD SWAP2 PUSH2 0x1E0 SWAP2 PUSH1 0xFF SWAP2 SWAP1 PUSH2 0x6F55 DUP6 PUSH2 0x17AB JUMP JUMPDEST DUP1 SLOAD PUSH4 0xFFFFFFFF DUP2 AND DUP7 MSTORE PUSH4 0xFFFFFFFF DUP2 PUSH1 0x20 SHR AND PUSH1 0x20 DUP8 ADD MSTORE PUSH4 0xFFFFFFFF DUP2 PUSH1 0x40 SHR AND PUSH1 0x40 DUP8 ADD MSTORE PUSH4 0xFFFFFFFF DUP2 PUSH1 0x60 SHR AND PUSH1 0x60 DUP8 ADD MSTORE PUSH4 0xFFFFFFFF DUP2 PUSH1 0x80 SHR AND PUSH1 0x80 DUP8 ADD MSTORE PUSH4 0xFFFFFFFF DUP2 PUSH1 0xA0 SHR AND PUSH1 0xA0 DUP8 ADD MSTORE PUSH4 0xFFFFFFFF DUP2 PUSH1 0xC0 SHR AND PUSH1 0xC0 DUP8 ADD MSTORE PUSH1 0xE0 SHR PUSH1 0xE0 DUP7 ADD MSTORE PUSH1 0x1 DUP2 ADD SLOAD PUSH4 0xFFFFFFFF DUP2 AND PUSH2 0x100 DUP8 ADD MSTORE PUSH4 0xFFFFFFFF DUP2 PUSH1 0x20 SHR AND PUSH2 0x120 DUP8 ADD MSTORE PUSH1 0x1 DUP1 PUSH1 0x40 SHL SUB DUP2 PUSH1 0x40 SHR AND PUSH2 0x140 DUP8 ADD MSTORE PUSH1 0x1 DUP1 PUSH1 0x40 SHL SUB DUP2 PUSH1 0x80 SHR AND PUSH2 0x160 DUP8 ADD MSTORE PUSH1 0xC0 SHR PUSH2 0x180 DUP7 ADD MSTORE ADD SLOAD DUP2 DUP2 AND ISZERO ISZERO PUSH2 0x1A0 DUP6 ADD MSTORE DUP2 DUP2 PUSH1 0x8 SHR AND ISZERO ISZERO PUSH2 0x1C0 DUP6 ADD MSTORE PUSH1 0x10 SHR AND ISZERO ISZERO SWAP2 ADD MSTORE PUSH1 0x20 PUSH1 0x1 DUP1 PUSH1 0xA0 SHL SUB PUSH1 0x1 SLOAD AND SWAP3 PUSH1 0x24 PUSH1 0x40 MLOAD DUP1 SWAP6 DUP2 SWAP4 PUSH4 0xD47875D PUSH1 0xE4 SHL DUP4 MSTORE PUSH1 0x4 DUP4 ADD MSTORE GAS STATICCALL SWAP2 DUP3 ISZERO PUSH2 0x6F1A JUMPI SWAP2 DUP2 PUSH2 0x2328 SWAP4 PUSH2 0xFFFF SWAP4 SWAP3 PUSH2 0x707C JUMPI JUMPDEST POP POP AND LT ISZERO SWAP1 JUMP JUMPDEST PUSH2 0x7096 SWAP2 SWAP3 POP PUSH1 0x20 RETURNDATASIZE PUSH1 0x20 GT PUSH2 0x1D69 JUMPI PUSH2 0x1D5B DUP2 DUP4 PUSH2 0x17DD JUMP JUMPDEST SWAP1 CODESIZE PUSH2 0x7074 JUMP JUMPDEST PUSH1 0x1 PUSH1 0x1 PUSH1 0xA0 SHL SUB AND PUSH1 0x0 DUP2 DUP2 MSTORE PUSH1 0x2 PUSH1 0x20 MSTORE PUSH1 0x40 DUP1 DUP3 KECCAK256 SWAP1 MLOAD SWAP1 SWAP3 SWAP1 PUSH2 0x70C3 DUP2 PUSH2 0x17AB JUMP JUMPDEST PUSH2 0x1E0 PUSH1 0xFF PUSH1 0x2 DUP7 SLOAD SWAP7 PUSH4 0xFFFFFFFF DUP9 AND DUP6 MSTORE PUSH4 0xFFFFFFFF DUP9 PUSH1 0x20 SHR AND PUSH1 0x20 DUP7 ADD MSTORE PUSH4 0xFFFFFFFF DUP9 PUSH1 0x40 SHR AND PUSH1 0x40 DUP7 ADD MSTORE PUSH4 0xFFFFFFFF DUP9 PUSH1 0x60 SHR AND PUSH1 0x60 DUP7 ADD MSTORE PUSH4 0xFFFFFFFF DUP9 PUSH1 0x80 SHR AND PUSH1 0x80 DUP7 ADD MSTORE PUSH4 0xFFFFFFFF DUP9 PUSH1 0xA0 SHR AND PUSH1 0xA0 DUP7 ADD MSTORE PUSH1 0xC0 DUP6 ADD SWAP8 PUSH4 0xFFFFFFFF DUP2 PUSH1 0xC0 SHR AND DUP10 MSTORE PUSH1 0xE0 SHR PUSH1 0xE0 DUP7 ADD MSTORE PUSH1 0x1 DUP2 ADD SLOAD PUSH4 0xFFFFFFFF DUP2 AND PUSH2 0x100 DUP8 ADD MSTORE PUSH4 0xFFFFFFFF DUP2 PUSH1 0x20 SHR AND PUSH2 0x120 DUP8 ADD MSTORE PUSH1 0x1 DUP1 PUSH1 0x40 SHL SUB DUP2 PUSH1 0x40 SHR AND PUSH2 0x140 DUP8 ADD MSTORE PUSH1 0x1 DUP1 PUSH1 0x40 SHL SUB DUP2 PUSH1 0x80 SHR AND PUSH2 0x160 DUP8 ADD MSTORE PUSH1 0xC0 SHR PUSH2 0x180 DUP7 ADD MSTORE ADD SLOAD DUP2 DUP2 AND ISZERO ISZERO PUSH2 0x1A0 DUP6 ADD MSTORE DUP2 DUP2 PUSH1 0x8 SHR AND ISZERO ISZERO PUSH2 0x1C0 DUP6 ADD MSTORE PUSH1 0x10 SHR AND ISZERO ISZERO SWAP2 ADD MSTORE PUSH1 0x20 PUSH1 0x1 DUP1 PUSH1 0xA0 SHL SUB PUSH1 0x1 SLOAD AND SWAP2 PUSH1 0x24 PUSH1 0x40 MLOAD DUP1 SWAP5 DUP2 SWAP4 PUSH4 0xD47875D PUSH1 0xE4 SHL DUP4 MSTORE PUSH1 0x4 DUP4 ADD MSTORE GAS STATICCALL DUP1 ISZERO PUSH2 0x212A JUMPI SWAP2 PUSH1 0xA SWAP4 SWAP2 PUSH4 0xFFFFFFFF SWAP4 PUSH2 0x6A19 JUMPI POP POP MLOAD AND LT ISZERO SWAP1 JUMP JUMPDEST PUSH1 0x1 PUSH1 0x1 PUSH1 0xA0 SHL SUB AND PUSH1 0x0 DUP2 DUP2 MSTORE PUSH1 0x2 PUSH1 0x20 MSTORE PUSH1 0x40 DUP1 DUP3 KECCAK256 SWAP1 MLOAD SWAP1 SWAP3 SWAP1 PUSH2 0x7219 DUP2 PUSH2 0x17AB JUMP JUMPDEST DUP4 SLOAD PUSH4 0xFFFFFFFF DUP2 AND DUP3 MSTORE PUSH4 0xFFFFFFFF DUP2 PUSH1 0x20 SHR AND PUSH1 0x20 DUP4 ADD MSTORE PUSH4 0xFFFFFFFF DUP2 PUSH1 0x40 SHR AND PUSH1 0x40 DUP4 ADD MSTORE PUSH4 0xFFFFFFFF DUP2 PUSH1 0x60 SHR AND PUSH1 0x60 DUP4 ADD MSTORE PUSH4 0xFFFFFFFF DUP2 PUSH1 0x80 SHR AND PUSH1 0x80 DUP4 ADD MSTORE PUSH4 0xFFFFFFFF DUP2 PUSH1 0xA0 SHR AND PUSH1 0xA0 DUP4 ADD MSTORE PUSH4 0xFFFFFFFF DUP2 PUSH1 0xC0 SHR AND PUSH1 0xC0 DUP4 ADD MSTORE PUSH1 0xE0 SHR PUSH1 0xE0 DUP3 ADD MSTORE PUSH2 0x1E0 PUSH1 0xFF PUSH1 0x2 PUSH1 0x1 DUP8 ADD SLOAD SWAP7 PUSH2 0x100 DUP6 ADD SWAP8 PUSH4 0xFFFFFFFF DUP2 AND DUP10 MSTORE PUSH4 0xFFFFFFFF DUP2 PUSH1 0x20 SHR AND PUSH2 0x120 DUP8 ADD MSTORE PUSH1 0x1 DUP1 PUSH1 0x40 SHL SUB DUP2 PUSH1 0x40 SHR AND PUSH2 0x140 DUP8 ADD MSTORE PUSH1 0x1 DUP1 PUSH1 0x40 SHL SUB DUP2 PUSH1 0x80 SHR AND PUSH2 0x160 DUP8 ADD MSTORE PUSH1 0xC0 SHR PUSH2 0x180 DUP7 ADD MSTORE ADD SLOAD DUP2 DUP2 AND ISZERO ISZERO PUSH2 0x1A0 DUP6 ADD MSTORE DUP2 DUP2 PUSH1 0x8 SHR AND ISZERO ISZERO PUSH2 0x1C0 DUP6 ADD MSTORE PUSH1 0x10 SHR AND ISZERO ISZERO SWAP2 ADD MSTORE PUSH1 0x20 PUSH1 0x1 DUP1 PUSH1 0xA0 SHL SUB PUSH1 0x1 SLOAD AND SWAP2 PUSH1 0x24 PUSH1 0x40 MLOAD DUP1 SWAP5 DUP2 SWAP4 PUSH4 0xD47875D PUSH1 0xE4 SHL DUP4 MSTORE PUSH1 0x4 DUP4 ADD MSTORE GAS STATICCALL DUP1 ISZERO PUSH2 0x212A JUMPI SWAP2 PUSH1 0x3 SWAP4 SWAP2 PUSH4 0xFFFFFFFF SWAP4 PUSH2 0x6A19 JUMPI POP POP MLOAD AND LT ISZERO SWAP1 JUMP JUMPDEST PUSH1 0x1 PUSH1 0x1 PUSH1 0xA0 SHL SUB AND PUSH1 0x0 DUP2 DUP2 MSTORE PUSH1 0x2 PUSH1 0x20 MSTORE PUSH1 0x40 DUP1 DUP3 KECCAK256 SWAP1 MLOAD SWAP1 SWAP3 SWAP1 PUSH2 0x736F DUP2 PUSH2 0x17AB JUMP JUMPDEST DUP4 SLOAD PUSH4 0xFFFFFFFF DUP2 AND DUP3 MSTORE PUSH4 0xFFFFFFFF DUP2 PUSH1 0x20 SHR AND PUSH1 0x20 DUP4 ADD MSTORE PUSH4 0xFFFFFFFF DUP2 PUSH1 0x40 SHR AND PUSH1 0x40 DUP4 ADD MSTORE PUSH4 0xFFFFFFFF DUP2 PUSH1 0x60 SHR AND PUSH1 0x60 DUP4 ADD MSTORE PUSH4 0xFFFFFFFF DUP2 PUSH1 0x80 SHR AND PUSH1 0x80 DUP4 ADD MSTORE PUSH4 0xFFFFFFFF DUP2 PUSH1 0xA0 SHR AND PUSH1 0xA0 DUP4 ADD MSTORE PUSH4 0xFFFFFFFF DUP2 PUSH1 0xC0 SHR AND PUSH1 0xC0 DUP4 ADD MSTORE PUSH1 0xE0 SHR PUSH1 0xE0 DUP3 ADD MSTORE PUSH2 0x1E0 PUSH1 0xFF PUSH1 0x2 PUSH1 0x1 DUP8 ADD SLOAD SWAP7 PUSH4 0xFFFFFFFF DUP9 AND PUSH2 0x100 DUP7 ADD MSTORE PUSH2 0x120 DUP6 ADD SWAP8 PUSH4 0xFFFFFFFF DUP2 PUSH1 0x20 SHR AND DUP10 MSTORE PUSH1 0x1 DUP1 PUSH1 0x40 SHL SUB DUP2 PUSH1 0x40 SHR AND PUSH2 0x140 DUP8 ADD MSTORE PUSH1 0x1 DUP1 PUSH1 0x40 SHL SUB DUP2 PUSH1 0x80 SHR AND PUSH2 0x160 DUP8 ADD MSTORE PUSH1 0xC0 SHR PUSH2 0x180 DUP7 ADD MSTORE ADD SLOAD DUP2 DUP2 AND ISZERO ISZERO PUSH2 0x1A0 DUP6 ADD MSTORE DUP2 DUP2 PUSH1 0x8 SHR AND ISZERO ISZERO PUSH2 0x1C0 DUP6 ADD MSTORE PUSH1 0x10 SHR AND ISZERO ISZERO SWAP2 ADD MSTORE PUSH1 0x20 PUSH1 0x1 DUP1 PUSH1 0xA0 SHL SUB PUSH1 0x1 SLOAD AND SWAP2 PUSH1 0x24 PUSH1 0x40 MLOAD DUP1 SWAP5 DUP2 SWAP4 PUSH4 0xD47875D PUSH1 0xE4 SHL DUP4 MSTORE PUSH1 0x4 DUP4 ADD MSTORE GAS STATICCALL DUP1 ISZERO PUSH2 0x212A JUMPI SWAP2 PUSH1 0x5 SWAP4 SWAP2 PUSH4 0xFFFFFFFF SWAP4 PUSH2 0x6A19 JUMPI POP POP MLOAD AND LT ISZERO SWAP1 JUMP JUMPDEST PUSH1 0x1 PUSH1 0x1 PUSH1 0xA0 SHL SUB AND PUSH1 0x0 DUP2 DUP2 MSTORE PUSH1 0x2 PUSH1 0x20 MSTORE PUSH1 0x40 DUP1 DUP3 KECCAK256 SWAP1 MLOAD SWAP1 SWAP3 SWAP1 PUSH2 0x74C5 DUP2 PUSH2 0x17AB JUMP JUMPDEST PUSH2 0x1E0 PUSH1 0xFF PUSH1 0x2 DUP7 SLOAD SWAP7 PUSH4 0xFFFFFFFF DUP9 AND DUP6 MSTORE PUSH4 0xFFFFFFFF DUP9 PUSH1 0x20 SHR AND PUSH1 0x20 DUP7 ADD MSTORE PUSH4 0xFFFFFFFF DUP9 PUSH1 0x40 SHR AND PUSH1 0x40 DUP7 ADD MSTORE PUSH4 0xFFFFFFFF DUP9 PUSH1 0x60 SHR AND PUSH1 0x60 DUP7 ADD MSTORE PUSH4 0xFFFFFFFF DUP9 PUSH1 0x80 SHR AND PUSH1 0x80 DUP7 ADD MSTORE PUSH4 0xFFFFFFFF DUP9 PUSH1 0xA0 SHR AND PUSH1 0xA0 DUP7 ADD MSTORE PUSH1 0xC0 DUP6 ADD SWAP8 PUSH4 0xFFFFFFFF DUP2 PUSH1 0xC0 SHR AND DUP10 MSTORE PUSH1 0xE0 SHR PUSH1 0xE0 DUP7 ADD MSTORE PUSH1 0x1 DUP2 ADD SLOAD PUSH4 0xFFFFFFFF DUP2 AND PUSH2 0x100 DUP8 ADD MSTORE PUSH4 0xFFFFFFFF DUP2 PUSH1 0x20 SHR AND PUSH2 0x120 DUP8 ADD MSTORE PUSH1 0x1 DUP1 PUSH1 0x40 SHL SUB DUP2 PUSH1 0x40 SHR AND PUSH2 0x140 DUP8 ADD MSTORE PUSH1 0x1 DUP1 PUSH1 0x40 SHL SUB DUP2 PUSH1 0x80 SHR AND PUSH2 0x160 DUP8 ADD MSTORE PUSH1 0xC0 SHR PUSH2 0x180 DUP7 ADD MSTORE ADD SLOAD DUP2 DUP2 AND ISZERO ISZERO PUSH2 0x1A0 DUP6 ADD MSTORE DUP2 DUP2 PUSH1 0x8 SHR AND ISZERO ISZERO PUSH2 0x1C0 DUP6 ADD MSTORE PUSH1 0x10 SHR AND ISZERO ISZERO SWAP2 ADD MSTORE PUSH1 0x20 PUSH1 0x1 DUP1 PUSH1 0xA0 SHL SUB PUSH1 0x1 SLOAD AND SWAP2 PUSH1 0x24 PUSH1 0x40 MLOAD DUP1 SWAP5 DUP2 SWAP4 PUSH4 0xD47875D PUSH1 0xE4 SHL DUP4 MSTORE PUSH1 0x4 DUP4 ADD MSTORE GAS STATICCALL DUP1 ISZERO PUSH2 0x212A JUMPI SWAP2 PUSH1 0x5 SWAP4 SWAP2 PUSH4 0xFFFFFFFF SWAP4 PUSH2 0x6A19 JUMPI POP POP MLOAD AND LT ISZERO SWAP1 JUMP JUMPDEST PUSH1 0x1 DUP1 PUSH1 0xA0 SHL SUB AND SWAP1 DUP2 PUSH1 0x0 MSTORE PUSH1 0x2 PUSH1 0x20 MSTORE PUSH1 0x40 PUSH1 0x0 KECCAK256 PUSH1 0x40 MLOAD PUSH2 0x7618 DUP2 PUSH2 0x17AB JUMP JUMPDEST DUP2 SLOAD SWAP4 PUSH4 0xFFFFFFFF DUP6 AND DUP3 MSTORE PUSH1 0x20 DUP3 ADD SWAP2 PUSH4 0xFFFFFFFF DUP7 PUSH1 0x20 SHR AND DUP4 MSTORE PUSH1 0x40 DUP2 ADD SWAP3 PUSH4 0xFFFFFFFF DUP8 PUSH1 0x40 SHR AND DUP5 MSTORE PUSH1 0x60 DUP3 ADD SWAP1 PUSH4 0xFFFFFFFF DUP9 PUSH1 0x60 SHR AND DUP3 MSTORE PUSH1 0x80 DUP4 ADD SWAP3 PUSH4 0xFFFFFFFF DUP10 PUSH1 0x80 SHR AND DUP5 MSTORE PUSH1 0xA0 DUP2 ADD PUSH4 0xFFFFFFFF DUP11 PUSH1 0xA0 SHR AND DUP2 MSTORE PUSH1 0xC0 DUP3 ADD SWAP10 PUSH4 0xFFFFFFFF DUP2 PUSH1 0xC0 SHR AND DUP12 MSTORE PUSH1 0xE0 SHR PUSH1 0xE0 DUP4 ADD MSTORE PUSH1 0x1 DUP9 ADD SLOAD SWAP5 PUSH2 0x100 DUP4 ADD SWAP8 PUSH4 0xFFFFFFFF DUP8 AND DUP10 MSTORE PUSH1 0xFF PUSH1 0x2 PUSH2 0x120 DUP7 ADD SWAP12 PUSH4 0xFFFFFFFF DUP11 PUSH1 0x20 SHR AND DUP14 MSTORE PUSH1 0x1 DUP1 PUSH1 0x40 SHL SUB DUP11 PUSH1 0x40 SHR AND PUSH2 0x140 DUP9 ADD MSTORE PUSH1 0x1 DUP1 PUSH1 0x40 SHL SUB DUP11 PUSH1 0x80 SHR AND PUSH2 0x160 DUP9 ADD MSTORE PUSH2 0x180 DUP8 ADD SWAP10 PUSH1 0xC0 SHR DUP11 MSTORE ADD SLOAD DUP2 DUP2 AND ISZERO ISZERO PUSH2 0x1A0 DUP8 ADD MSTORE DUP2 DUP2 PUSH1 0x8 SHR AND ISZERO ISZERO PUSH2 0x1C0 DUP8 ADD MSTORE PUSH1 0x10 SHR AND ISZERO ISZERO PUSH2 0x1E0 DUP6 ADD MSTORE PUSH1 0x20 PUSH1 0x1 DUP1 PUSH1 0xA0 SHL SUB PUSH1 0x1 SLOAD AND SWAP9 PUSH1 0x24 PUSH1 0x40 MLOAD DUP1 SWAP12 DUP2 SWAP4 PUSH4 0xD47875D PUSH1 0xE4 SHL DUP4 MSTORE PUSH1 0x4 DUP4 ADD MSTORE GAS STATICCALL SWAP8 DUP9 ISZERO PUSH2 0x8DD JUMPI PUSH1 0x0 SWAP9 PUSH2 0x799A JUMPI JUMPDEST POP PUSH1 0x0 DUP1 MLOAD PUSH1 0x20 PUSH2 0x7CA6 DUP4 CODECOPY DUP2 MLOAD SWAP2 MSTORE DUP12 EQ PUSH2 0x797E JUMPI PUSH1 0x0 DUP1 MLOAD PUSH1 0x20 PUSH2 0x7D86 DUP4 CODECOPY DUP2 MLOAD SWAP2 MSTORE DUP12 EQ PUSH2 0x7962 JUMPI PUSH1 0x0 DUP1 MLOAD PUSH1 0x20 PUSH2 0x7DA6 DUP4 CODECOPY DUP2 MLOAD SWAP2 MSTORE DUP12 EQ PUSH2 0x7911 JUMPI POP POP POP POP PUSH1 0x0 DUP1 MLOAD PUSH1 0x20 PUSH2 0x7E26 DUP4 CODECOPY DUP2 MLOAD SWAP2 MSTORE DUP8 EQ PUSH2 0x78F9 JUMPI POP PUSH1 0x0 DUP1 MLOAD PUSH1 0x20 PUSH2 0x7DE6 DUP4 CODECOPY DUP2 MLOAD SWAP2 MSTORE DUP7 EQ PUSH2 0x78DB JUMPI POP PUSH1 0x0 DUP1 MLOAD PUSH1 0x20 PUSH2 0x7E86 DUP4 CODECOPY DUP2 MLOAD SWAP2 MSTORE DUP6 EQ PUSH2 0x789A JUMPI POP PUSH1 0x0 DUP1 MLOAD PUSH1 0x20 PUSH2 0x7EA6 DUP4 CODECOPY DUP2 MLOAD SWAP2 MSTORE DUP5 EQ PUSH2 0x7887 JUMPI POP PUSH1 0x0 DUP1 MLOAD PUSH1 0x20 PUSH2 0x7DC6 DUP4 CODECOPY DUP2 MLOAD SWAP2 MSTORE DUP4 EQ PUSH2 0x7875 JUMPI PUSH1 0x0 DUP1 MLOAD PUSH1 0x20 PUSH2 0x7E06 DUP4 CODECOPY DUP2 MLOAD SWAP2 MSTORE DUP4 EQ PUSH2 0x7861 JUMPI POP PUSH1 0x0 DUP1 MLOAD PUSH1 0x20 PUSH2 0x7D26 DUP4 CODECOPY DUP2 MLOAD SWAP2 MSTORE DUP3 EQ PUSH2 0x784F JUMPI POP PUSH1 0x0 DUP1 MLOAD PUSH1 0x20 PUSH2 0x7E66 DUP4 CODECOPY DUP2 MLOAD SWAP2 MSTORE EQ PUSH2 0x7840 JUMPI POP PUSH1 0x0 SWAP1 JUMP JUMPDEST PUSH4 0xFFFFFFFF PUSH1 0x5 SWAP2 MLOAD AND LT ISZERO SWAP1 JUMP JUMPDEST PUSH1 0x5 SWAP3 POP PUSH4 0xFFFFFFFF SWAP2 POP MLOAD AND LT ISZERO SWAP1 JUMP JUMPDEST SWAP1 POP PUSH1 0x3 SWAP3 POP PUSH4 0xFFFFFFFF SWAP2 POP MLOAD AND LT ISZERO SWAP1 JUMP JUMPDEST POP POP POP PUSH4 0xFFFFFFFF PUSH1 0xA SWAP2 MLOAD AND LT ISZERO SWAP1 JUMP JUMPDEST SWAP2 POP POP PUSH2 0x2328 SWAP3 POP PUSH2 0xFFFF SWAP2 POP AND LT ISZERO SWAP1 JUMP JUMPDEST MLOAD PUSH1 0x1 PUSH1 0x1 PUSH1 0x40 SHL SUB AND SWAP5 POP POP DUP4 ISZERO SWAP3 POP PUSH2 0x78D5 SWAP2 POP POP JUMPI PUSH4 0x1E13380 ADD PUSH1 0x1 PUSH1 0x1 PUSH1 0x40 SHL SUB DUP2 GT PUSH2 0x1996 JUMPI PUSH1 0x1 PUSH1 0x1 PUSH1 0x40 SHL SUB AND TIMESTAMP LT ISZERO SWAP1 JUMP JUMPDEST POP PUSH1 0x0 SWAP1 JUMP JUMPDEST SWAP3 POP POP SWAP4 POP PUSH1 0x64 SWAP3 POP PUSH4 0xFFFFFFFF SWAP2 POP MLOAD AND LT ISZERO SWAP1 DUP2 PUSH2 0x6EE0 JUMPI POP SWAP1 JUMP JUMPDEST SWAP5 POP POP POP POP POP PUSH1 0x1E SWAP3 POP PUSH4 0xFFFFFFFF SWAP2 POP MLOAD AND LT ISZERO SWAP1 JUMP JUMPDEST SWAP6 POP SWAP6 POP SWAP6 POP SWAP6 POP POP POP PUSH1 0x3 SWAP6 POP PUSH1 0xFF SWAP5 POP PUSH4 0xFFFFFFFF PUSH1 0x0 SWAP5 MLOAD AND PUSH2 0x7959 JUMPI JUMPDEST MLOAD PUSH4 0xFFFFFFFF AND PUSH2 0x6BE8 JUMPI MLOAD PUSH4 0xFFFFFFFF AND PUSH2 0x6BD1 JUMPI MLOAD PUSH4 0xFFFFFFFF AND PUSH2 0x6BC3 JUMPI AND LT ISZERO SWAP1 JUMP JUMPDEST PUSH1 0x1 SWAP4 POP PUSH2 0x7932 JUMP JUMPDEST SWAP9 POP POP POP POP POP POP POP POP POP PUSH1 0xA SWAP3 POP PUSH4 0xFFFFFFFF SWAP2 POP MLOAD AND LT ISZERO SWAP1 JUMP JUMPDEST POP POP POP SWAP6 POP POP POP POP POP POP PUSH1 0x32 SWAP3 POP PUSH4 0xFFFFFFFF SWAP2 POP MLOAD AND LT ISZERO SWAP1 JUMP JUMPDEST PUSH2 0x79B4 SWAP2 SWAP9 POP PUSH1 0x20 RETURNDATASIZE PUSH1 0x20 GT PUSH2 0x1D69 JUMPI PUSH2 0x1D5B DUP2 DUP4 PUSH2 0x17DD JUMP JUMPDEST SWAP7 CODESIZE PUSH2 0x7749 JUMP JUMPDEST PUSH2 0x79C5 DUP3 DUP3 PUSH2 0x75F5 JUMP JUMPDEST ISZERO PUSH2 0x7ADF JUMPI PUSH1 0x40 MLOAD PUSH4 0x6F143BE1 PUSH1 0xE0 SHL DUP2 MSTORE PUSH1 0x4 DUP2 ADD DUP4 SWAP1 MSTORE PUSH1 0x0 SWAP2 SWAP1 PUSH1 0x20 DUP2 PUSH1 0x24 DUP2 PUSH20 0x0 GAS DELEGATECALL DUP1 ISZERO PUSH2 0x21E3 JUMPI DUP4 SWAP1 PUSH2 0x7AAB JUMPI JUMPDEST PUSH2 0x7A17 SWAP2 POP TIMESTAMP PUSH2 0x1D96 JUMP JUMPDEST SWAP2 PUSH1 0x1 DUP1 PUSH1 0xA0 SHL SUB PUSH1 0x1 SLOAD AND SWAP1 DUP2 EXTCODESIZE ISZERO PUSH2 0x2082 JUMPI DUP1 PUSH1 0x40 MLOAD DUP1 SWAP4 PUSH4 0x24A6D6D PUSH1 0xE1 SHL DUP3 MSTORE DUP2 DUP4 DUP2 PUSH2 0x7A4D DUP11 DUP13 DUP12 PUSH1 0x4 DUP6 ADD PUSH2 0x1DA3 JUMP JUMPDEST SUB SWAP3 GAS CALL SWAP2 DUP3 PUSH2 0x7A9B JUMPI JUMPDEST POP POP PUSH2 0x7A63 JUMPI POP POP POP JUMP JUMPDEST PUSH1 0x40 MLOAD SWAP2 DUP3 MSTORE PUSH1 0x1 PUSH1 0x1 PUSH1 0xA0 SHL SUB AND SWAP1 PUSH32 0x709768A937FA6C96F16D504E6CCD79ED0F7CEC9890BC8CAF66B974D8234B2B72 SWAP1 PUSH1 0x20 SWAP1 LOG3 JUMP JUMPDEST DUP2 PUSH2 0x7AA5 SWAP2 PUSH2 0x17DD JUMP JUMPDEST CODESIZE PUSH2 0x7A58 JUMP JUMPDEST POP PUSH1 0x20 DUP2 RETURNDATASIZE PUSH1 0x20 GT PUSH2 0x7AD7 JUMPI JUMPDEST DUP2 PUSH2 0x7AC5 PUSH1 0x20 SWAP4 DUP4 PUSH2 0x17DD JUMP JUMPDEST DUP2 ADD SUB SLT PUSH2 0x2126 JUMPI PUSH2 0x7A17 SWAP1 MLOAD PUSH2 0x7A0C JUMP JUMPDEST RETURNDATASIZE SWAP2 POP PUSH2 0x7AB8 JUMP JUMPDEST PUSH1 0x1 SLOAD PUSH1 0x1 PUSH1 0x1 PUSH1 0xA0 SHL SUB AND PUSH1 0x0 DUP2 EXTCODESIZE ISZERO PUSH2 0x2082 JUMPI DUP1 PUSH1 0x40 MLOAD DUP1 SWAP4 PUSH4 0x24A6D6D PUSH1 0xE1 SHL DUP3 MSTORE DUP2 DUP4 DUP2 PUSH2 0x7B15 DUP11 DUP11 PUSH1 0x4 DUP5 ADD PUSH2 0x5F13 JUMP JUMPDEST SUB SWAP3 GAS CALL SWAP2 DUP3 PUSH2 0x7C75 JUMPI JUMPDEST POP SWAP1 PUSH2 0x7B2B JUMPI POP POP POP JUMP JUMPDEST PUSH1 0x40 MLOAD PUSH4 0x737FEE1 PUSH1 0xE4 SHL DUP2 MSTORE PUSH1 0x4 DUP2 ADD DUP5 SWAP1 MSTORE PUSH1 0x20 DUP2 PUSH1 0x24 DUP2 PUSH20 0x0 GAS DELEGATECALL SWAP1 DUP2 ISZERO PUSH2 0x212A JUMPI SWAP1 PUSH2 0xFFFF SWAP2 DUP4 SWAP2 PUSH2 0x7C56 JUMPI JUMPDEST POP AND DUP1 PUSH2 0x7BC2 JUMPI JUMPDEST POP POP PUSH1 0x0 DUP1 MLOAD PUSH1 0x20 PUSH2 0x7CC6 DUP4 CODECOPY DUP2 MLOAD SWAP2 MSTORE PUSH1 0x60 PUSH1 0x40 MLOAD SWAP3 PUSH1 0x20 DUP5 MSTORE PUSH1 0x14 PUSH1 0x20 DUP6 ADD MSTORE PUSH20 0x4661696C656420746F2072652D7175616C696679 PUSH1 0x60 SHL PUSH1 0x40 DUP6 ADD MSTORE PUSH1 0x1 DUP1 PUSH1 0xA0 SHL SUB AND SWAP3 LOG3 JUMP JUMPDEST PUSH1 0x1 SLOAD PUSH1 0x1 PUSH1 0x1 PUSH1 0xA0 SHL SUB AND SWAP1 DUP2 EXTCODESIZE ISZERO PUSH2 0x2126 JUMPI PUSH1 0x40 MLOAD PUSH4 0x31879A7 PUSH1 0xE2 SHL DUP2 MSTORE PUSH1 0x1 PUSH1 0x1 PUSH1 0xA0 SHL SUB DUP6 AND PUSH1 0x4 DUP3 ADD MSTORE PUSH1 0x24 DUP2 ADD SWAP2 SWAP1 SWAP2 MSTORE PUSH1 0x60 PUSH1 0x44 DUP3 ADD MSTORE PUSH1 0x20 PUSH1 0x64 DUP3 ADD MSTORE PUSH32 0x42616467652065787069726564202D206E6F742072652D7175616C6966696564 PUSH1 0x84 DUP3 ADD MSTORE SWAP1 DUP3 SWAP1 DUP3 SWAP1 PUSH1 0xA4 SWAP1 DUP3 SWAP1 DUP5 SWAP1 GAS CALL ISZERO PUSH2 0x7B77 JUMPI PUSH2 0x7C4C DUP3 DUP1 SWAP3 PUSH2 0x17DD JUMP JUMPDEST PUSH2 0x2082 JUMPI DUP1 PUSH2 0x7B77 JUMP JUMPDEST PUSH2 0x7C6F SWAP2 POP PUSH1 0x20 RETURNDATASIZE PUSH1 0x20 GT PUSH2 0x1D69 JUMPI PUSH2 0x1D5B DUP2 DUP4 PUSH2 0x17DD JUMP JUMPDEST CODESIZE PUSH2 0x7B6F JUMP JUMPDEST DUP2 PUSH2 0x7C7F SWAP2 PUSH2 0x17DD JUMP JUMPDEST CODESIZE PUSH2 0x7B20 JUMP INVALID 0xCD 0x25 LOG2 DUP5 DUP1 PUSH15 0x931BBFBD59E48CA09094F95CC8A54 DUP10 SWAP11 0xC7 0xCF PUSH8 0xA7BC084E4C8FE3C CALLER 0xB6 PUSH15 0x28F14B3D890787766EE667031D474E ADD DELEGATECALL BYTE REVERT 0x22 DUP3 0xC6 0xDD 0xD2 TIMESTAMP 0xB1 CALLVALUE 0x26 0xD2 0xC9 PUSH29 0x9CC1AE6CA58D6C5F71F9FE7F41B640ABFC004802F040DF1A8589B5996 0xAF PUSH13 0x1BC6B7426F6E19731EFC05C031 SWAP9 GAS DUPN 0xB7 DUP16 PUSH18 0x70092D703C7DA8E444F5A0BB1AF1C90AA52E 0xD0 MSTORE 0xB9 0x27 EQ SELFDESTRUCT STOP DUP8 STOP DUP13 0xC7 KECCAK256 DIV SWAP12 CALL 0xAF PUSH24 0xCCA2600B31E80C9F56690334C710BE9812966692E10C040B 0xDE BLOBHASH 0x27 0x26 SSTORE XOR 0xB4 0x22 0xC8 0x25 SDIV 0xF6 MSIZE PUSH2 0xEC78 PUSH7 0xCD9BF5624ADBB5 PUSH19 0xBDF0EF2C6611719C1BD1DD881D077900477122 PC PUSH0 MLOAD LOG4 0xD0 0xD2 XOR DUP4 AND 0xF6 0xD5 0xAB LOG4 CALLER PUSH2 0xA7EC SDIV COINBASE DUP2 0xC9 CALLDATALOAD 0xCC 0xE DATALOADN 0x3D35 SWAP5 RETURNDATACOPY 0xD MULMOD SWAP16 0xD5 0xFC DUP10 SHL 0x4E JUMPI NOT PC EXTSTATICCALL LOG4 0xEA TLOAD SWAP3 BLOCKHASH PUSH22 0xC44C03A913F7A3C4F5746FC318BA401831B4E5A96F 0xB0 0xEA CALLER PUSH7 0x184FA9EF274BB2 0xB5 0x23 0xBB EQ LT 0xC5 MSIZE PUSH32 0x5B73E284BCC8D9C27CAF81FE29986656BD77A1F0DA32C9315BED40455567F606 SIGNEXTEND 0xEA CODESIZE DUP13 SLT RETURNDATASIZE 0x4B 0xAF SELFDESTRUCT DUP5 GAS 0xC4 0xF6 GT EXTCODESIZE DELEGATECALL EXTCODEHASH 0xB5 SWAP14 0xBA 0x21 SELFDESTRUCT RETURNCONTRACT 0x10 PUSH14 0x9126A16FD7EF738A99E9F98F3366 0xA7 0xBC 0xD6 0x28 0x22 0xD4 COINBASE 0xAC 0xDD 0x22 DELEGATECALL 0xAE PUSH32 0x407A46293DD53140DC9FA6BEEEF35E22CB018B264344D33D23312F0938EF21 PUSH7 0x8AA46FD5BD7B72 0xDB PUSH18 0x8FCDD7E30D1E9DB0EA46420720372CEDD1D2 PUSH28 0x66A923B896EEA7904CA9EF57E79D18AA00AE08D276DE72C77B14AD7 ADD 0xA6 0x2E 0xB4 0xBD 0xDF 0x2C 0x4F SWAP10 0x2E 0xBF JUMP SWAP6 0x2B PUSH7 0x972847C21DAEAB PUSH10 0x31B6B4AA89A4EB8F1A39 0x27 SWAP11 LT 0xA8 DUP5 0xDD CREATE 0xB6 0xA9 TSTORE 0xE CHAINID RETURN COINBASE 0xA5 DUP1 SWAP16 PREVRANDAO PUSH30 0xE8F39F0C29E43A914272E426CAAF9F537D800BDC663BD466690F26963DFD PUSH28 0xB0ED1ED5F323A945377DFCA03D1A4A2C4366D3DB0C7243A29EEF9C5E DUP5 SWAP16 SWAPN 0x32 DUP9 0x23 RJUMP 0xB728 DUP14 0xAB MSIZE 0xD5 0x23 LT LOG2 PUSH5 0x6970667358 0x22 SLT KECCAK256 0x25 RJUMP 0xCECC SELFBALANCE 0xD9 0xE JUMPDEST 0x2E SWAP4 ISZERO SUB REVERT 0xAF SIGNEXTEND 0xC6 RETF SLOAD CALLCODE DUP8 0xC0 0xC5 PUSH1 0x1A 0xE9 0xBB 0x21 0xC EXTCODECOPY 0xCC 0xA8 JUMPI PUSH5 0x736F6C6343 STOP ADDMOD 0x1E STOP CALLER "},"methodIdentifiers":{"MAX_FOUNDING_MEMBERS()":"f220836f","MAX_PIONEERS()":"aea3b217","awardBadge(address,bytes32)":"615e5cae","awardFoundingMember(address)":"5521f9fe","awardPioneer(address)":"466d055f","dao()":"4162169f","foundingMemberCount()":"bdf03329","getBadgeProgress(address,bytes32)":"13cf93fb","getEligibleBadges(address)":"93a645e4","getUserStats(address)":"4e43603a","lastBadgeCheck(address,bytes32)":"e7b2c7b2","operators(address)":"13e7c9d8","pioneerCount()":"c37f34ca","recordCommerceTx(address,bool)":"387b279c","recordContribution(address)":"05409f33","recordEducationalContent(address)":"283d6715","recordEndorsement(address)":"1d920985","recordFraudReport(address)":"85e8135c","recordGovernanceVote(address)":"e5b3d3ee","recordPresaleParticipation(address)":"77a0555c","recordReferral(address,address,bool)":"889b468d","recordTranslation(address)":"41752096","revokeBadge(address,bytes32,string)":"6d134ac2","seer()":"2d55ea39","setDAO(address)":"e73a914c","setOperator(address,bool)":"558a7297","setSeer(address)":"e071c1c0","userStats(address)":"8a65d874"}}}}}