{"abi":[{"type":"function","name":"burnAmount","inputs":[],"outputs":[{"name":"","type":"uint256","internalType":"uint256"}],"stateMutability":"view"},{"type":"function","name":"burnSink","inputs":[],"outputs":[{"name":"","type":"address","internalType":"address"}],"stateMutability":"view"},{"type":"function","name":"computeFees","inputs":[{"name":"","type":"address","internalType":"address"},{"name":"","type":"address","internalType":"address"},{"name":"","type":"uint256","internalType":"uint256"}],"outputs":[{"name":"","type":"uint256","internalType":"uint256"},{"name":"","type":"uint256","internalType":"uint256"},{"name":"","type":"uint256","internalType":"uint256"},{"name":"","type":"address","internalType":"address"},{"name":"","type":"address","internalType":"address"},{"name":"","type":"address","internalType":"address"}],"stateMutability":"view"},{"type":"function","name":"ecosystemAmount","inputs":[],"outputs":[{"name":"","type":"uint256","internalType":"uint256"}],"stateMutability":"view"},{"type":"function","name":"ecosystemSink","inputs":[],"outputs":[{"name":"","type":"address","internalType":"address"}],"stateMutability":"view"},{"type":"function","name":"sanctumAmount","inputs":[],"outputs":[{"name":"","type":"uint256","internalType":"uint256"}],"stateMutability":"view"},{"type":"function","name":"sanctumSink","inputs":[],"outputs":[{"name":"","type":"address","internalType":"address"}],"stateMutability":"view"},{"type":"function","name":"set","inputs":[{"name":"_burn","type":"uint256","internalType":"uint256"},{"name":"_sanctum","type":"uint256","internalType":"uint256"},{"name":"_eco","type":"uint256","internalType":"uint256"},{"name":"_sanctumSink","type":"address","internalType":"address"},{"name":"_ecoSink","type":"address","internalType":"address"},{"name":"_burnSink","type":"address","internalType":"address"}],"outputs":[],"stateMutability":"nonpayable"}],"bytecode":{"object":"0x608080604052346015576102af908161001a8239f35b5f80fdfe6080806040526004361015610012575f80fd5b5f3560e01c9081631d6e4bd51461022a57508063252f15f5146101bd57806341becbce14610195578063486a7e6b146101795780635b1dcf74146100da57806398cdb44e146100bd578063beeeb4ce146100955763f3c3a0d114610074575f80fd5b34610091575f366003190112610091576020600154604051908152f35b5f80fd5b34610091575f366003190112610091576003546040516001600160a01b039091168152602090f35b34610091575f366003190112610091576020600254604051908152f35b346100915760c0366003190112610091576064356001600160a01b03811690819003610091576084356001600160a01b038116908190036100915760a4356001600160a01b0381169290839003610091576004355f556024356001556044356002556001600160601b0360a01b60035416176003556001600160601b0360a01b60045416176004556001600160601b0360a01b60055416176005555f80f35b34610091575f3660031901126100915760205f54604051908152f35b34610091575f366003190112610091576005546040516001600160a01b039091168152602090f35b34610091576060366003190112610091576101d661024d565b506101df610263565b505f54600154600254600354600454600554604080519687526020870195909552938501929092526001600160a01b03908116606085015290811660808401521660a082015260c090f35b34610091575f366003190112610091576004546001600160a01b03168152602090f35b600435906001600160a01b038216820361009157565b602435906001600160a01b03821682036100915756fea26469706673582212209bcd4a6d27b4f96a992d9ca84be8de9513d77af434290b56edda633405e90afb64736f6c634300081e0033","linkReferences":{}},"methodIdentifiers":{"burnAmount()":"486a7e6b","burnSink()":"41becbce","computeFees(address,address,uint256)":"252f15f5","ecosystemAmount()":"98cdb44e","ecosystemSink()":"1d6e4bd5","sanctumAmount()":"f3c3a0d1","sanctumSink()":"beeeb4ce","set(uint256,uint256,uint256,address,address,address)":"5b1dcf74"},"id":67}