{
  "_format": "hh-sol-artifact-1",
  "contractName": "GasDrainerERC20",
  "sourceName": "contracts/mocks/GasDrainerERC20.sol",
  "abi": [
    {
      "inputs": [
        {
          "internalType": "address",
          "name": "from",
          "type": "address"
        },
        {
          "internalType": "address",
          "name": "spender",
          "type": "address"
        },
        {
          "internalType": "uint256",
          "name": "value",
          "type": "uint256"
        }
      ],
      "name": "TEST_checkAllowance",
      "outputs": [
        {
          "internalType": "bool",
          "name": "",
          "type": "bool"
        }
      ],
      "stateMutability": "view",
      "type": "function"
    },
    {
      "inputs": [
        {
          "internalType": "address",
          "name": "",
          "type": "address"
        },
        {
          "internalType": "address",
          "name": "",
          "type": "address"
        }
      ],
      "name": "allowance",
      "outputs": [
        {
          "internalType": "uint256",
          "name": "",
          "type": "uint256"
        }
      ],
      "stateMutability": "view",
      "type": "function"
    },
    {
      "inputs": [
        {
          "internalType": "address",
          "name": "spender",
          "type": "address"
        },
        {
          "internalType": "uint256",
          "name": "value",
          "type": "uint256"
        }
      ],
      "name": "approve",
      "outputs": [
        {
          "internalType": "bool",
          "name": "",
          "type": "bool"
        }
      ],
      "stateMutability": "nonpayable",
      "type": "function"
    },
    {
      "inputs": [
        {
          "internalType": "address",
          "name": "",
          "type": "address"
        }
      ],
      "name": "balanceOf",
      "outputs": [
        {
          "internalType": "uint256",
          "name": "",
          "type": "uint256"
        }
      ],
      "stateMutability": "view",
      "type": "function"
    },
    {
      "inputs": [],
      "name": "decimals",
      "outputs": [
        {
          "internalType": "uint8",
          "name": "",
          "type": "uint8"
        }
      ],
      "stateMutability": "view",
      "type": "function"
    },
    {
      "inputs": [
        {
          "internalType": "address",
          "name": "to",
          "type": "address"
        },
        {
          "internalType": "uint256",
          "name": "amount",
          "type": "uint256"
        }
      ],
      "name": "mint",
      "outputs": [],
      "stateMutability": "nonpayable",
      "type": "function"
    },
    {
      "inputs": [],
      "name": "name",
      "outputs": [
        {
          "internalType": "string",
          "name": "",
          "type": "string"
        }
      ],
      "stateMutability": "view",
      "type": "function"
    },
    {
      "inputs": [],
      "name": "symbol",
      "outputs": [
        {
          "internalType": "string",
          "name": "",
          "type": "string"
        }
      ],
      "stateMutability": "view",
      "type": "function"
    },
    {
      "inputs": [
        {
          "internalType": "address",
          "name": "to",
          "type": "address"
        },
        {
          "internalType": "uint256",
          "name": "value",
          "type": "uint256"
        }
      ],
      "name": "transfer",
      "outputs": [
        {
          "internalType": "bool",
          "name": "",
          "type": "bool"
        }
      ],
      "stateMutability": "nonpayable",
      "type": "function"
    },
    {
      "inputs": [
        {
          "internalType": "address",
          "name": "from",
          "type": "address"
        },
        {
          "internalType": "address",
          "name": "to",
          "type": "address"
        },
        {
          "internalType": "uint256",
          "name": "value",
          "type": "uint256"
        }
      ],
      "name": "transferFrom",
      "outputs": [
        {
          "internalType": "bool",
          "name": "",
          "type": "bool"
        }
      ],
      "stateMutability": "nonpayable",
      "type": "function"
    }
  ],
  "bytecode": "0x60806040523461011357610014600054610118565b601f81116100ca575b507f476173447261696e65720000000000000000000000000000000000000000001460005560015461004e90610118565b601f8111610080575b60066247415360e81b016001556002805460ff191660121790556040516106dd90816101538239f35b6001600052601f0160051c7fb10e2d527612073b26eecdfd717e6a320cf44b4afac2b0732d9fcbe2b7fa0cf6908101905b8181106100be5750610057565b600081556001016100b1565b60008052601f0160051c7f290decd9548b62a8d60345a988386fc84ba6bc95484008f6362f93160ef3e563908101905b818110610107575061001d565b600081556001016100fa565b600080fd5b90600182811c92168015610148575b602083101461013257565b634e487b7160e01b600052602260045260246000fd5b91607f169161012756fe6080604052600436101561001257600080fd5b60003560e01c806306fdde03146104b7578063095ea7b31461046c57806323b872dd14610361578063313ce5671461034057806340c10f191461030057806370a08231146102c657806395d89b41146101a6578063a9059cbb14610113578063dd62ed3e146100b25763f81f79091461008a57600080fd5b346100ad5760206100a361009d366105cf565b9161066f565b6040519015158152f35b600080fd5b346100ad5760403660031901126100ad576100cb6105b9565b602435906001600160a01b03821682036100ad5760018060a01b0316600052600460205260406000209060018060a01b03166000526020526020604060002054604051908152f35b346100ad5760403660031901126100ad5761012c6105b9565b6024359033600052600360205261014a826040600020541015610609565b336000526003602052604060002061016383825461063f565b905560018060a01b031660005260036020526101856040600020918254610662565b905560005b6107d0811061019e57602060405160018152f35b60010161018a565b346100ad5760003660031901126100ad576000604051816001548060011c906001811680156102bc575b6020831081146102a85782855290811561028c5750600114610238575b50819003601f01601f191681016001600160401b0381118282101761022457610220925060405260405191829182610570565b0390f35b634e487b7160e01b83526041600452602483fd5b600184529050827fb10e2d527612073b26eecdfd717e6a320cf44b4afac2b0732d9fcbe2b7fa0cf65b828210610276575060209150820101836101ed565b6001816020925483858801015201910190610261565b90506020925060ff191682840152151560051b820101836101ed565b634e487b7160e01b86526022600452602486fd5b91607f16916101d0565b346100ad5760203660031901126100ad576001600160a01b036102e76105b9565b1660005260036020526020604060002054604051908152f35b346100ad5760403660031901126100ad576001600160a01b036103216105b9565b166000526003602052604060002061033c6024358254610662565b9055005b346100ad5760003660031901126100ad57602060ff60025416604051908152f35b346100ad5761036f366105cf565b9160018060a01b0316806000526003602052610392836040600020541015610609565b600081815260046020908152604080832033845290915290205483811061043b57836103bd9161063f565b816000526004602052604060002060018060a01b033316600052602052604060002055600052600360205260406000206103f883825461063f565b905560018060a01b0316600052600360205261041a6040600020918254610662565b905560005b6107d0811061043357602060405160018152f35b60010161041f565b60405162461bcd60e51b8152602060048201526009602482015268616c6c6f77616e636560b81b6044820152606490fd5b346100ad5760403660031901126100ad576104856105b9565b33600052600460205260406000209060018060a01b031660005260205260406000206024359055602060405160018152f35b346100ad5760003660031901126100ad5760006040518182548060011c90600181168015610566575b6020831081146102a85782855290811561028c575060011461052f5750819003601f01601f191681016001600160401b0381118282101761022457610220925060405260405191829182610570565b90508280526020832083905b828210610550575060209150820101836101ed565b600181602092548385880101520191019061053b565b91607f16916104e0565b91909160208152825180602083015260005b8181106105a3575060409293506000838284010152601f8019910116010190565b8060208092870101516040828601015201610582565b600435906001600160a01b03821682036100ad57565b60609060031901126100ad576004356001600160a01b03811681036100ad57906024356001600160a01b03811681036100ad579060443590565b1561061057565b60405162461bcd60e51b815260206004820152600760248201526662616c616e636560c81b6044820152606490fd5b9190820391821161064c57565b634e487b7160e01b600052601160045260246000fd5b9190820180921161064c57565b6001600160a01b03908116600090815260046020908152604080832094909316825292909252902054106106a257600190565b60009056fea2646970667358221220fbcd903b83edb36349af90a7d6999d81a8697017264b91e0e5bbf5cb772a14d664736f6c634300081e0033",
  "linkReferences": {},
  "deployedLinkReferences": {}
}