{"abi":[{"type":"constructor","inputs":[{"name":"_dao","type":"address","internalType":"address"},{"name":"_ledger","type":"address","internalType":"address"},{"name":"_vfide","type":"address","internalType":"address"}],"stateMutability":"nonpayable"},{"type":"function","name":"authorizedNotifiers","inputs":[{"name":"","type":"address","internalType":"address"}],"outputs":[{"name":"","type":"bool","internalType":"bool"}],"stateMutability":"view"},{"type":"function","name":"balanceOf","inputs":[{"name":"token","type":"address","internalType":"address"}],"outputs":[{"name":"","type":"uint256","internalType":"uint256"}],"stateMutability":"view"},{"type":"function","name":"dao","inputs":[],"outputs":[{"name":"","type":"address","internalType":"address"}],"stateMutability":"view"},{"type":"function","name":"getMultiTokenBalances","inputs":[{"name":"tokens","type":"address[]","internalType":"address[]"}],"outputs":[{"name":"balances","type":"uint256[]","internalType":"uint256[]"}],"stateMutability":"view"},{"type":"function","name":"getTreasurySummary","inputs":[],"outputs":[{"name":"currentBalance","type":"uint256","internalType":"uint256"},{"name":"totalIn","type":"uint256","internalType":"uint256"},{"name":"totalOut","type":"uint256","internalType":"uint256"},{"name":"netPosition","type":"uint256","internalType":"uint256"}],"stateMutability":"view"},{"type":"function","name":"ledger","inputs":[],"outputs":[{"name":"","type":"address","internalType":"contract IProofLedger"}],"stateMutability":"view"},{"type":"function","name":"noteVFIDE","inputs":[{"name":"amount","type":"uint256","internalType":"uint256"},{"name":"from","type":"address","internalType":"address"}],"outputs":[],"stateMutability":"nonpayable"},{"type":"function","name":"rescueToken","inputs":[{"name":"token","type":"address","internalType":"address"},{"name":"to","type":"address","internalType":"address"},{"name":"amount","type":"uint256","internalType":"uint256"}],"outputs":[],"stateMutability":"nonpayable"},{"type":"function","name":"sendVFIDE","inputs":[{"name":"to","type":"address","internalType":"address"},{"name":"amount","type":"uint256","internalType":"uint256"},{"name":"reason","type":"string","internalType":"string"}],"outputs":[],"stateMutability":"nonpayable"},{"type":"function","name":"setModules","inputs":[{"name":"_dao","type":"address","internalType":"address"},{"name":"_ledger","type":"address","internalType":"address"},{"name":"_vfide","type":"address","internalType":"address"}],"outputs":[],"stateMutability":"nonpayable"},{"type":"function","name":"setNotifier","inputs":[{"name":"notifier","type":"address","internalType":"address"},{"name":"authorized","type":"bool","internalType":"bool"}],"outputs":[],"stateMutability":"nonpayable"},{"type":"function","name":"totalDisbursed","inputs":[],"outputs":[{"name":"","type":"uint256","internalType":"uint256"}],"stateMutability":"view"},{"type":"function","name":"totalReceived","inputs":[],"outputs":[{"name":"","type":"uint256","internalType":"uint256"}],"stateMutability":"view"},{"type":"function","name":"vfideBalance","inputs":[],"outputs":[{"name":"","type":"uint256","internalType":"uint256"}],"stateMutability":"view"},{"type":"function","name":"vfideToken","inputs":[],"outputs":[{"name":"","type":"address","internalType":"contract IERC20"}],"stateMutability":"view"},{"type":"event","name":"ModulesSet","inputs":[{"name":"dao","type":"address","indexed":false,"internalType":"address"},{"name":"ledger","type":"address","indexed":false,"internalType":"address"},{"name":"vfideToken","type":"address","indexed":false,"internalType":"address"}],"anonymous":false},{"type":"event","name":"NotifierAuthorized","inputs":[{"name":"notifier","type":"address","indexed":true,"internalType":"address"},{"name":"authorized","type":"bool","indexed":false,"internalType":"bool"}],"anonymous":false},{"type":"event","name":"ReceivedVFIDE","inputs":[{"name":"amount","type":"uint256","indexed":false,"internalType":"uint256"},{"name":"from","type":"address","indexed":false,"internalType":"address"}],"anonymous":false},{"type":"event","name":"Sent","inputs":[{"name":"token","type":"address","indexed":true,"internalType":"address"},{"name":"to","type":"address","indexed":false,"internalType":"address"},{"name":"amount","type":"uint256","indexed":false,"internalType":"uint256"},{"name":"reason","type":"string","indexed":false,"internalType":"string"}],"anonymous":false},{"type":"error","name":"FI_Insufficient","inputs":[]},{"type":"error","name":"FI_NotDAO","inputs":[]},{"type":"error","name":"FI_Zero","inputs":[]}],"bytecode":{"object":"0x60803461011a57601f610ef238819003918201601f19168301916001600160401b0383118484101761011e5780849260609460405283398101031261011a5761004781610132565b90610060604061005960208401610132565b9201610132565b916001600160a01b031680158015610109575b6100fa575f80546001600160a01b031990811683179091556001805482166001600160a01b0394851690811790915560028054909216939094169283179055604080519182526020820193909352918201527f4ae14344aaed3962a7f6c6977dc689bd5108ebb211a205507f01ae2a95148ce990606090a1604051610dab90816101478239f35b633de5b7e360e11b5f5260045ffd5b506001600160a01b03831615610073565b5f80fd5b634e487b7160e01b5f52604160045260245ffd5b51906001600160a01b038216820361011a5756fe60806040526004361015610011575f80fd5b5f5f3560e01c80632e47fe8314610a515780634162169f14610a2a57806356397c3514610a025780636ed4190e146109305780636f24b1e4146108dd57806370a08231146108485780637f6b78a414610744578063a3c2c46214610727578063a71efa35146106ea578063a8336a0614610579578063b8a71eec14610550578063bf95c78d14610532578063cbc847841461033f578063cc7fc6b3146101b35763e5711e8b146100bf575f80fd5b346101b05760603660031901126101b0576100d8610ad5565b906100e1610aeb565b6044356100ec610b77565b6001600160a01b038216801580156101a8575b610199575f516020610d565f395f51905f5260a06101969596600180831b03169261012b858786610c57565b60405190815284602082015260606040820152600660608201526572657363756560d01b6080820152a2604051610163604082610b01565b600f81526e74726561737572795f72657363756560881b60208201526040519261018e602085610b01565b858452610bbd565b80f35b633de5b7e360e11b8452600484fd5b5081156100ff565b80fd5b50346101b05760203660031901126101b057600435906001600160401b0382116101b057366023830112156101b0576004820135906001600160401b0382116101b0573660248360051b850101116101b05761020e82610b60565b9061021c6040519283610b01565b82825261022883610b60565b6020830190601f1901368237815b848110156102fb57600581901b602487820101356001600160a01b038116908190036102f757906020602492604051938480926370a0823160e01b82523060048301525afa9182156102ec5785926102b5575b5085518310156102a157850160200152600101610236565b634e487b7160e01b85526032600452602485fd5b9091506020813d82116102e4575b816102d060209383610b01565b810103126102e05751905f610289565b5f80fd5b3d91506102c3565b6040513d87823e3d90fd5b8480fd5b508290604051928392602084019060208552518091526040840192915b818110610326575050500390f35b8251845285945060209384019390920191600101610318565b50346101b05760603660031901126101b057610359610ad5565b906044356024356001600160401b03821161052e573660238301121561052e5760048201356001600160401b03811161052a576024830192602482369201011161052a576103a5610b77565b6001600160a01b0385169485158015610522575b610513576002546040516370a0823160e01b81523060048201526001600160a01b0390911696906020816024818b5afa9081156105085790859188916104d3575b50106104c45761040f84836101969899610c57565b61041b84600454610b38565b6004555f516020610d565f395f51905f5260018060a01b03600254169160405190815285602082015260606040820152846060820152848760808301378860808683010152608081601f19601f8801168101030190a285602060405193610483604086610b01565b600d85526c1d1c99585cdd5c9e57dcd95b99609a1b82860152806104a681610b45565b976104b4604051998a610b01565b8189528389013786010152610bbd565b6333f086ed60e21b8652600486fd5b9150506020813d602011610500575b816104ef60209383610b01565b810103126102e0578490515f6103fa565b3d91506104e2565b6040513d89823e3d90fd5b633de5b7e360e11b8552600485fd5b5082156103b9565b8380fd5b8280fd5b50346101b057806003193601126101b0576020600454604051908152f35b50346101b057806003193601126101b0576002546040516001600160a01b039091168152602090f35b50346102e05760603660031901126102e057610593610ad5565b61059b610aeb565b6044356001600160a01b03811692908390036102e0576105b9610b77565b6001600160a01b031690811580156106e2575b6106d3575f80546001600160a01b031990811684179091556001805482166001600160a01b039093169283179055600280549091168417905560408051928352602083018290528201929092527f4ae14344aaed3962a7f6c6977dc689bd5108ebb211a205507f01ae2a95148ce990606090a16040519061064e604083610b01565b60148252731d1c99585cdd5c9e57db5bd91d5b195cd7dcd95d60621b602083015280610678578280f35b803b156102e057604051633ddd61ab60e21b815230600482015260606024820152915f9183918290849082906106b2906064830190610b99565b33604483015203925af16106c557808280f35b6106d191505f90610b01565b005b633de5b7e360e11b5f5260045ffd5b5082156105cc565b346102e05760203660031901126102e0576001600160a01b0361070b610ad5565b165f526005602052602060ff60405f2054166040519015158152f35b346102e0575f3660031901126102e0576020600354604051908152f35b346102e05760403660031901126102e057600435610760610aeb565b335f52600560205260ff60405f2054161561080557816107856106d193600354610b38565b600355604080518281526001600160a01b03841660208201527f2dc5d0a0a5a1df3abf2c1589e1b698f1f48a1c29279af34533bb194c2c53fdaf9190a16040516107d0604082610b01565b60118152703a3932b0b9bab93cafbb3334b232afb4b760791b6020820152604051926107fd602085610b01565b5f8452610bbd565b60405162461bcd60e51b815260206004820152601b60248201527a23249d103737ba1030baba3437b934bd32b2103737ba34b334b2b960291b6044820152606490fd5b346102e05760203660031901126102e057602460206001600160a01b0361086d610ad5565b16604051928380926370a0823160e01b82523060048301525afa80156108d2575f9061089f575b602090604051908152f35b506020813d6020116108ca575b816108b960209383610b01565b810103126102e05760209051610894565b3d91506108ac565b6040513d5f823e3d90fd5b346102e0575f3660031901126102e0576002546040516370a0823160e01b815230600482015290602090829060249082906001600160a01b03165afa80156108d2575f9061089f57602090604051908152f35b346102e0575f3660031901126102e0576002546040516370a0823160e01b815230600482015290602090829060249082906001600160a01b03165afa9081156108d2575f916109d0575b506003546004549190828111156109c657828103928184116109b257608093915b604051938452602084015260408301526060820152f35b634e487b7160e01b5f52601160045260245ffd5b6080925f9161099b565b90506020813d6020116109fa575b816109eb60209383610b01565b810103126102e057518161097a565b3d91506109de565b346102e0575f3660031901126102e0576001546040516001600160a01b039091168152602090f35b346102e0575f3660031901126102e0575f546040516001600160a01b039091168152602090f35b346102e05760403660031901126102e057610a6a610ad5565b602435908115158092036102e057610a80610b77565b6001600160a01b03169081156106d35760207f296722f60a131c96b55c8251d5e83f4f4a3f56fc4cb77cd3d1393bd2bdc714cd91835f526005825260405f2060ff1981541660ff8316179055604051908152a2005b600435906001600160a01b03821682036102e057565b602435906001600160a01b03821682036102e057565b601f909101601f19168101906001600160401b03821190821017610b2457604052565b634e487b7160e01b5f52604160045260245ffd5b919082018092116109b257565b6001600160401b038111610b2457601f01601f191660200190565b6001600160401b038111610b245760051b60200190565b5f546001600160a01b03163303610b8a57565b6395863f6560e01b5f5260045ffd5b805180835260209291819084018484015e5f828201840152601f01601f1916010190565b60015490916001600160a01b039091169081610bdb575b5050505050565b813b156102e0575f610c1e93610c35829660405198899788968795630303c28760e61b875260018060a01b03166004870152608060248701526084860190610b99565b916044850152600319848303016064850152610b99565b03925af1610c47575b80808080610bd4565b5f610c5191610b01565b5f610c3e565b5f929183809360405190602082019363a9059cbb60e01b855260018060a01b03166024830152604482015260448152610c91606482610b01565b51926001600160a01b03165af13d15610d4e573d610cae81610b45565b90610cbc6040519283610b01565b81523d5f602083013e5b81610d16575b5015610cd457565b60405162461bcd60e51b815260206004820152601a60248201527914d85999515490cc8c0e881d1c985b9cd9995c8819985a5b195960321b6044820152606490fd5b8051801592508215610d2b575b50505f610ccc565b81925090602091810103126102e0576020015180151581036102e0575f80610d23565b6060610cc656fe02605d54d67ccbe0064a8ce6c39465102dd02b85ad8709391c5953a27083964ba26469706673582212200606684e4c4fc54f7092f7f3e6b093b238cbda399d96ae49d671a3380916ddff64736f6c634300081e0033","linkReferences":{}},"methodIdentifiers":{"authorizedNotifiers(address)":"a71efa35","balanceOf(address)":"70a08231","dao()":"4162169f","getMultiTokenBalances(address[])":"cc7fc6b3","getTreasurySummary()":"6ed4190e","ledger()":"56397c35","noteVFIDE(uint256,address)":"7f6b78a4","rescueToken(address,address,uint256)":"e5711e8b","sendVFIDE(address,uint256,string)":"cbc84784","setModules(address,address,address)":"a8336a06","setNotifier(address,bool)":"2e47fe83","totalDisbursed()":"bf95c78d","totalReceived()":"a3c2c462","vfideBalance()":"6f24b1e4","vfideToken()":"b8a71eec"},"id":35}