{"abi":[{"type":"constructor","inputs":[{"name":"_dao","type":"address","internalType":"address"},{"name":"_ledger","type":"address","internalType":"address"}],"stateMutability":"nonpayable"},{"type":"function","name":"addAsset","inputs":[{"name":"token","type":"address","internalType":"address"},{"name":"symbolHint","type":"string","internalType":"string"}],"outputs":[],"stateMutability":"nonpayable"},{"type":"function","name":"assets","inputs":[{"name":"","type":"address","internalType":"address"}],"outputs":[{"name":"ok","type":"bool","internalType":"bool"},{"name":"decimals","type":"uint8","internalType":"uint8"},{"name":"symbolHint","type":"string","internalType":"string"}],"stateMutability":"view"},{"type":"function","name":"dao","inputs":[],"outputs":[{"name":"","type":"address","internalType":"address"}],"stateMutability":"view"},{"type":"function","name":"isWhitelisted","inputs":[{"name":"token","type":"address","internalType":"address"}],"outputs":[{"name":"","type":"bool","internalType":"bool"}],"stateMutability":"view"},{"type":"function","name":"ledger","inputs":[],"outputs":[{"name":"","type":"address","internalType":"contract IProofLedger"}],"stateMutability":"view"},{"type":"function","name":"removeAsset","inputs":[{"name":"token","type":"address","internalType":"address"}],"outputs":[],"stateMutability":"nonpayable"},{"type":"function","name":"setDAO","inputs":[{"name":"_dao","type":"address","internalType":"address"}],"outputs":[],"stateMutability":"nonpayable"},{"type":"function","name":"setLedger","inputs":[{"name":"_ledger","type":"address","internalType":"address"}],"outputs":[],"stateMutability":"nonpayable"},{"type":"function","name":"setTreasury","inputs":[{"name":"_treasury","type":"address","internalType":"address"}],"outputs":[],"stateMutability":"nonpayable"},{"type":"function","name":"tokenDecimals","inputs":[{"name":"token","type":"address","internalType":"address"}],"outputs":[{"name":"","type":"uint8","internalType":"uint8"}],"stateMutability":"view"},{"type":"function","name":"treasury","inputs":[],"outputs":[{"name":"","type":"address","internalType":"address"}],"stateMutability":"view"},{"type":"event","name":"AssetAdded","inputs":[{"name":"token","type":"address","indexed":true,"internalType":"address"},{"name":"decimals","type":"uint8","indexed":false,"internalType":"uint8"},{"name":"symbolHint","type":"string","indexed":false,"internalType":"string"}],"anonymous":false},{"type":"event","name":"AssetRemoved","inputs":[{"name":"token","type":"address","indexed":true,"internalType":"address"}],"anonymous":false},{"type":"event","name":"DAOSet","inputs":[{"name":"dao","type":"address","indexed":false,"internalType":"address"}],"anonymous":false},{"type":"event","name":"LedgerSet","inputs":[{"name":"ledger","type":"address","indexed":false,"internalType":"address"}],"anonymous":false},{"type":"event","name":"TreasurySet","inputs":[{"name":"treasury","type":"address","indexed":false,"internalType":"address"}],"anonymous":false},{"type":"error","name":"FI_NotDAO","inputs":[]},{"type":"error","name":"FI_Zero","inputs":[]}],"bytecode":{"object":"0x608034609e57601f61099038819003918201601f19168301916001600160401b0383118484101760a2578084926040948552833981010312609e57604b602060458360b6565b920160b6565b906001600160a01b03168015608f5760018060a01b03195f5416175f5560018060a01b031660018060a01b031960025416176002556040516108c690816100ca8239f35b633de5b7e360e11b5f5260045ffd5b5f80fd5b634e487b7160e01b5f52604160045260245ffd5b51906001600160a01b0382168203609e5756fe60806040526004361015610011575f80fd5b5f3560e01c80633246887d146106cd5780633af32abf146106905780634162169f146106695780634a5e42b1146105b057806356397c35146105885780635a109d1d146102e057806361d027b3146102b85780638ee573ac1461027a578063e73a914c1461020f578063f0f44260146101a35763f11b818814610092575f80fd5b3461019f57602036600319011261019f576001600160a01b036100b3610739565b165f52600360205260405f206001815491016040515f8254926100d58461074f565b9081845260208401946001811690815f146101825750600114610145575b60ff608087878761010681890382610787565b6040519483818795161515855260081c166020840152606060408401525180918160608501528484015e5f828201840152601f01601f19168101030190f35b5f908152602081209092505b8183106101685750508101602001816101066100f3565b600181602092949394548385880101520191019190610151565b60ff191686525050151560051b82016020019050816101066100f3565b5f80fd5b3461019f57602036600319011261019f577f3c864541ef71378c6229510ed90f376565ee42d9c5e0904a984a9e863e6db44f60206101df610739565b6101e76107db565b600180546001600160a01b0319166001600160a01b03929092169182179055604051908152a1005b3461019f57602036600319011261019f577f8aad84fcad50e723fa3bcf0fb32c5bea4c71078b77b9aedfa638f146f3a3f7b9602061024b610739565b6102536107db565b5f80546001600160a01b0319166001600160a01b03929092169182179055604051908152a1005b3461019f57602036600319011261019f576001600160a01b0361029b610739565b165f526003602052602060ff60405f205460081c16604051908152f35b3461019f575f36600319011261019f576001546040516001600160a01b039091168152602090f35b3461019f57604036600319011261019f576102f9610739565b6024359067ffffffffffffffff821161019f573660238301121561019f5781600401359167ffffffffffffffff831161019f576024810190602484369201011161019f576103456107db565b6001600160a01b0382169182156105795761035f906107fd565b92604051906060820182811067ffffffffffffffff8211176105655760405260018252600160ff60208401961692838752610399836107bf565b966103a76040519889610787565b838852838660208a01375f6020858a01015260408201978852865f52600360205260405f20915115159060ff61ff008454925160081b1692169061ffff19161717815501945194855167ffffffffffffffff811161056557610409825461074f565b601f811161052a575b506020601f82116001146104a15790806060959493927f8662e68e372005d1f1e92b0c5834999e95066e44a81d35c664838087426f268098995f92610496575b50508160011b915f199060031b1c19161790555b80604051948593845260406020850152816040850152848401375f828201840152601f01601f19168101030190a2005b015190508980610452565b601f19821697835f52815f20985f5b81811061051257509860019284926060989796957f8662e68e372005d1f1e92b0c5834999e95066e44a81d35c664838087426f26809b9c106104fa575b505050811b019055610466565b01515f1960f88460031b161c191690558980806104ed565b838301518b556001909a0199602093840193016104b0565b61055590835f5260205f20601f840160051c8101916020851061055b575b601f0160051c01906107a9565b87610412565b9091508190610548565b634e487b7160e01b5f52604160045260245ffd5b633de5b7e360e11b5f5260045ffd5b3461019f575f36600319011261019f576002546040516001600160a01b039091168152602090f35b3461019f57602036600319011261019f576105c9610739565b6105d16107db565b6001600160a01b03165f81815260036020526040812090815560010180546105f89061074f565b9081610626575b827f37803e2125c48ee96c38ddf04e826daf335b0e1603579040fd275aba6d06b6fc5f80a2005b81601f5f931160011461063d5750555b81806105ff565b8183526020832061065991601f0160051c8101906001016107a9565b8082528160208120915555610636565b3461019f575f36600319011261019f575f546040516001600160a01b039091168152602090f35b3461019f57602036600319011261019f576001600160a01b036106b1610739565b165f526003602052602060ff60405f2054166040519015158152f35b3461019f57602036600319011261019f577fbc62e69a31739e36d57d56991ac20e4e507a7edfff9070e6a11df5a37b8b4e6f6020610709610739565b6107116107db565b600280546001600160a01b0319166001600160a01b03929092169182179055604051908152a1005b600435906001600160a01b038216820361019f57565b90600182811c9216801561077d575b602083101461076957565b634e487b7160e01b5f52602260045260245ffd5b91607f169161075e565b90601f8019910116810190811067ffffffffffffffff82111761056557604052565b8181106107b4575050565b5f81556001016107a9565b67ffffffffffffffff811161056557601f01601f191660200190565b5f546001600160a01b031633036107ee57565b6395863f6560e01b5f5260045ffd5b5f8091604051602081019063313ce56760e01b825260048152610821602482610787565b51915afa3d15610888573d90610836826107bf565b916108446040519384610787565b82523d5f602084013e5b8061087c575b61085e5750601290565b60208180518101031261019f576020015160ff8116810361019f5790565b50602081511015610854565b60609061084e56fea2646970667358221220a741027366ee55ad594fc3e86fae64fdb75e40bfd981a24e84f50a867b57f1cf64736f6c634300081e0033","linkReferences":{}},"methodIdentifiers":{"addAsset(address,string)":"5a109d1d","assets(address)":"f11b8188","dao()":"4162169f","isWhitelisted(address)":"3af32abf","ledger()":"56397c35","removeAsset(address)":"4a5e42b1","setDAO(address)":"e73a914c","setLedger(address)":"3246887d","setTreasury(address)":"f0f44260","tokenDecimals(address)":"8ee573ac","treasury()":"61d027b3"},"id":32}