{
  "_format": "hh-sol-artifact-1",
  "contractName": "EchidnaCommerceHarness",
  "sourceName": "contracts/harness/EchidnaCommerce.sol",
  "abi": [
    {
      "inputs": [
        {
          "internalType": "address",
          "name": "reg",
          "type": "address"
        }
      ],
      "stateMutability": "nonpayable",
      "type": "constructor"
    },
    {
      "inputs": [],
      "name": "echidna_fresh_merchant_not_suspended",
      "outputs": [
        {
          "internalType": "bool",
          "name": "",
          "type": "bool"
        }
      ],
      "stateMutability": "view",
      "type": "function"
    },
    {
      "inputs": [],
      "name": "registry",
      "outputs": [
        {
          "internalType": "contract IMerchantRegistry_H",
          "name": "",
          "type": "address"
        }
      ],
      "stateMutability": "view",
      "type": "function"
    },
    {
      "inputs": [],
      "name": "sampleMerchant",
      "outputs": [
        {
          "internalType": "address",
          "name": "",
          "type": "address"
        }
      ],
      "stateMutability": "view",
      "type": "function"
    },
    {
      "inputs": [],
      "name": "threshold",
      "outputs": [
        {
          "internalType": "uint32",
          "name": "",
          "type": "uint32"
        }
      ],
      "stateMutability": "view",
      "type": "function"
    }
  ],
  "bytecode": "0x6080806040523461015c576000816020829361041980380380916100238285610161565b83398101031261010757516001600160a01b038116908190036101075781546001600160a01b031981168217835560405163db3c0c6d60e01b8152602081600481865afa8015610151578391859161010a575b506001600160c01b03199092161760a09190911b63ffffffff60a01b16178255600180546001600160a01b031916620a11ce179055803b1561010757819060246040518094819363bf76c0ef60e01b8352620a11ce60048401525af180156100fc576100ec575b60405161027e908161019b8239f35b816100f691610161565b386100dd565b6040513d84823e3d90fd5b50fd5b9150506020813d602011610149575b8161012660209383610161565b81010312610144575163ffffffff8116810361014457829038610076565b505050fd5b3d9150610119565b6040513d86823e3d90fd5b600080fd5b601f909101601f19168101906001600160401b0382119082101761018457604052565b634e487b7160e01b600052604160045260246000fdfe608080604052600436101561001357600080fd5b60003560e01c90816342cde4e814610205575080637b103999146101dc578063ea995112146100795763ed81771b1461004b57600080fd5b34610074576000366003190112610074576001546040516001600160a01b039091168152602090f35b600080fd5b346100745760003660031901126100745760005460015460405163ee14e93960e01b81526001600160a01b0391821660048201529060a0908290602490829086165afa9081156101d0576000908190829361012c575b5063ffffffff80911691160163ffffffff81116101165763ffffffff8060209460a01c169116109081610108575b506040519015158152f35b6001915060ff1614826100fd565b634e487b7160e01b600052601160045260246000fd5b92505060a03d60a0116101c9575b601f8101601f1916830167ffffffffffffffff8111848210176101b55760a0918491604052810103126101b2575061017181610229565b5061017e60208201610237565b63ffffffff8061019060408501610237565b926101a960806101a260608801610229565b9601610237565b509291506100cf565b80fd5b634e487b7160e01b83526041600452602483fd5b503d61013a565b6040513d6000823e3d90fd5b34610074576000366003190112610074576000546040516001600160a01b039091168152602090f35b346100745760003660031901126100745760209063ffffffff60005460a01c168152f35b519060ff8216820361007457565b519063ffffffff821682036100745756fea264697066735822122035b25f55d71a2e1ec5b02e3763aca6fbd0e4f1b90fc91f70622306becb0ddb2664736f6c634300081e0033",
  "linkReferences": {},
  "deployedLinkReferences": {}
}