{"abi":[{"type":"constructor","inputs":[{"name":"devReserveVestingVault","type":"address","internalType":"address"},{"name":"presaleContract","type":"address","internalType":"address"},{"name":"treasury","type":"address","internalType":"address"},{"name":"vaultHub","type":"address","internalType":"address"},{"name":"ledger","type":"address","internalType":"address"},{"name":"treasurySink","type":"address","internalType":"address"}],"stateMutability":"nonpayable"},{"type":"function","name":"DEV_RESERVE_SUPPLY","inputs":[],"outputs":[{"name":"","type":"uint256","internalType":"uint256"}],"stateMutability":"view"},{"type":"function","name":"DOMAIN_SEPARATOR","inputs":[],"outputs":[{"name":"","type":"bytes32","internalType":"bytes32"}],"stateMutability":"view"},{"type":"function","name":"FREEZE_DELAY","inputs":[],"outputs":[{"name":"","type":"uint64","internalType":"uint64"}],"stateMutability":"view"},{"type":"function","name":"MAX_CIRCUIT_BREAKER_DURATION","inputs":[],"outputs":[{"name":"","type":"uint256","internalType":"uint256"}],"stateMutability":"view"},{"type":"function","name":"MAX_SUPPLY","inputs":[],"outputs":[{"name":"","type":"uint256","internalType":"uint256"}],"stateMutability":"view"},{"type":"function","name":"PERMIT_TYPEHASH","inputs":[],"outputs":[{"name":"","type":"bytes32","internalType":"bytes32"}],"stateMutability":"view"},{"type":"function","name":"PRESALE_CAP","inputs":[],"outputs":[{"name":"","type":"uint256","internalType":"uint256"}],"stateMutability":"view"},{"type":"function","name":"TEST_expose_transfer","inputs":[{"name":"from","type":"address","internalType":"address"},{"name":"to","type":"address","internalType":"address"},{"name":"amount","type":"uint256","internalType":"uint256"}],"outputs":[],"stateMutability":"nonpayable"},{"type":"function","name":"TEST_exposed_mint","inputs":[{"name":"to","type":"address","internalType":"address"},{"name":"amount","type":"uint256","internalType":"uint256"}],"outputs":[],"stateMutability":"nonpayable"},{"type":"function","name":"acceptOwnership","inputs":[],"outputs":[],"stateMutability":"nonpayable"},{"type":"function","name":"allowance","inputs":[{"name":"owner_","type":"address","internalType":"address"},{"name":"spender","type":"address","internalType":"address"}],"outputs":[{"name":"","type":"uint256","internalType":"uint256"}],"stateMutability":"view"},{"type":"function","name":"approve","inputs":[{"name":"spender","type":"address","internalType":"address"},{"name":"amount","type":"uint256","internalType":"uint256"}],"outputs":[{"name":"","type":"bool","internalType":"bool"}],"stateMutability":"nonpayable"},{"type":"function","name":"balanceOf","inputs":[{"name":"account","type":"address","internalType":"address"}],"outputs":[{"name":"","type":"uint256","internalType":"uint256"}],"stateMutability":"view"},{"type":"function","name":"burnRouter","inputs":[],"outputs":[{"name":"","type":"address","internalType":"contract IProofScoreBurnRouterToken"}],"stateMutability":"view"},{"type":"function","name":"canTransfer","inputs":[{"name":"from","type":"address","internalType":"address"},{"name":"to","type":"address","internalType":"address"},{"name":"amount","type":"uint256","internalType":"uint256"}],"outputs":[{"name":"canDo","type":"bool","internalType":"bool"},{"name":"reason","type":"string","internalType":"string"}],"stateMutability":"view"},{"type":"function","name":"cancelOwnershipTransfer","inputs":[],"outputs":[],"stateMutability":"nonpayable"},{"type":"function","name":"circuitBreaker","inputs":[],"outputs":[{"name":"","type":"bool","internalType":"bool"}],"stateMutability":"view"},{"type":"function","name":"circuitBreakerExpiry","inputs":[],"outputs":[{"name":"","type":"uint256","internalType":"uint256"}],"stateMutability":"view"},{"type":"function","name":"cooldownRemaining","inputs":[{"name":"account","type":"address","internalType":"address"}],"outputs":[{"name":"","type":"uint256","internalType":"uint256"}],"stateMutability":"view"},{"type":"function","name":"dailyResetTime","inputs":[{"name":"","type":"address","internalType":"address"}],"outputs":[{"name":"","type":"uint256","internalType":"uint256"}],"stateMutability":"view"},{"type":"function","name":"dailyTransferLimit","inputs":[],"outputs":[{"name":"","type":"uint256","internalType":"uint256"}],"stateMutability":"view"},{"type":"function","name":"dailyTransferred","inputs":[{"name":"","type":"address","internalType":"address"}],"outputs":[{"name":"","type":"uint256","internalType":"uint256"}],"stateMutability":"view"},{"type":"function","name":"decimals","inputs":[],"outputs":[{"name":"","type":"uint8","internalType":"uint8"}],"stateMutability":"view"},{"type":"function","name":"decreaseAllowance","inputs":[{"name":"spender","type":"address","internalType":"address"},{"name":"subtracted","type":"uint256","internalType":"uint256"}],"outputs":[{"name":"","type":"bool","internalType":"bool"}],"stateMutability":"nonpayable"},{"type":"function","name":"freezeTime","inputs":[{"name":"","type":"address","internalType":"address"}],"outputs":[{"name":"","type":"uint64","internalType":"uint64"}],"stateMutability":"view"},{"type":"function","name":"getDailyTransferStats","inputs":[{"name":"user","type":"address","internalType":"address"}],"outputs":[{"name":"transferred","type":"uint256","internalType":"uint256"},{"name":"limit","type":"uint256","internalType":"uint256"},{"name":"remaining","type":"uint256","internalType":"uint256"},{"name":"resetTime","type":"uint256","internalType":"uint256"},{"name":"nextResetTime","type":"uint256","internalType":"uint256"}],"stateMutability":"view"},{"type":"function","name":"getTransferLimitsFor","inputs":[{"name":"account","type":"address","internalType":"address"}],"outputs":[{"name":"maxPerTransfer","type":"uint256","internalType":"uint256"},{"name":"maxWallet","type":"uint256","internalType":"uint256"},{"name":"dailyLimit","type":"uint256","internalType":"uint256"},{"name":"dailyRemaining","type":"uint256","internalType":"uint256"},{"name":"cooldownSecs","type":"uint256","internalType":"uint256"},{"name":"cooldownRemain","type":"uint256","internalType":"uint256"},{"name":"isExempt","type":"bool","internalType":"bool"}],"stateMutability":"view"},{"type":"function","name":"increaseAllowance","inputs":[{"name":"spender","type":"address","internalType":"address"},{"name":"added","type":"uint256","internalType":"uint256"}],"outputs":[{"name":"","type":"bool","internalType":"bool"}],"stateMutability":"nonpayable"},{"type":"function","name":"isBlacklisted","inputs":[{"name":"","type":"address","internalType":"address"}],"outputs":[{"name":"","type":"bool","internalType":"bool"}],"stateMutability":"view"},{"type":"function","name":"isCircuitBreakerActive","inputs":[],"outputs":[{"name":"","type":"bool","internalType":"bool"}],"stateMutability":"view"},{"type":"function","name":"isFrozen","inputs":[{"name":"","type":"address","internalType":"address"}],"outputs":[{"name":"","type":"bool","internalType":"bool"}],"stateMutability":"view"},{"type":"function","name":"lastTransferTime","inputs":[{"name":"","type":"address","internalType":"address"}],"outputs":[{"name":"","type":"uint256","internalType":"uint256"}],"stateMutability":"view"},{"type":"function","name":"ledger","inputs":[],"outputs":[{"name":"","type":"address","internalType":"contract IProofLedger"}],"stateMutability":"view"},{"type":"function","name":"lockPolicy","inputs":[],"outputs":[],"stateMutability":"nonpayable"},{"type":"function","name":"maxTransferAmount","inputs":[],"outputs":[{"name":"","type":"uint256","internalType":"uint256"}],"stateMutability":"view"},{"type":"function","name":"maxWalletBalance","inputs":[],"outputs":[{"name":"","type":"uint256","internalType":"uint256"}],"stateMutability":"view"},{"type":"function","name":"name","inputs":[],"outputs":[{"name":"","type":"string","internalType":"string"}],"stateMutability":"view"},{"type":"function","name":"nonces","inputs":[{"name":"","type":"address","internalType":"address"}],"outputs":[{"name":"","type":"uint256","internalType":"uint256"}],"stateMutability":"view"},{"type":"function","name":"owner","inputs":[],"outputs":[{"name":"","type":"address","internalType":"address"}],"stateMutability":"view"},{"type":"function","name":"pendingOwner","inputs":[],"outputs":[{"name":"","type":"address","internalType":"address"}],"stateMutability":"view"},{"type":"function","name":"permit","inputs":[{"name":"owner","type":"address","internalType":"address"},{"name":"spender","type":"address","internalType":"address"},{"name":"value","type":"uint256","internalType":"uint256"},{"name":"deadline","type":"uint256","internalType":"uint256"},{"name":"v","type":"uint8","internalType":"uint8"},{"name":"r","type":"bytes32","internalType":"bytes32"},{"name":"s","type":"bytes32","internalType":"bytes32"}],"outputs":[],"stateMutability":"nonpayable"},{"type":"function","name":"policyLocked","inputs":[],"outputs":[{"name":"","type":"bool","internalType":"bool"}],"stateMutability":"view"},{"type":"function","name":"presaleContract","inputs":[],"outputs":[{"name":"","type":"address","internalType":"address"}],"stateMutability":"view"},{"type":"function","name":"previewTransferFees","inputs":[{"name":"from","type":"address","internalType":"address"},{"name":"to","type":"address","internalType":"address"},{"name":"amount","type":"uint256","internalType":"uint256"}],"outputs":[{"name":"burnAmount","type":"uint256","internalType":"uint256"},{"name":"sanctumAmount","type":"uint256","internalType":"uint256"},{"name":"ecosystemAmount","type":"uint256","internalType":"uint256"},{"name":"netReceived","type":"uint256","internalType":"uint256"}],"stateMutability":"view"},{"type":"function","name":"remainingDailyLimit","inputs":[{"name":"account","type":"address","internalType":"address"}],"outputs":[{"name":"","type":"uint256","internalType":"uint256"}],"stateMutability":"view"},{"type":"function","name":"sanctumSink","inputs":[],"outputs":[{"name":"","type":"address","internalType":"address"}],"stateMutability":"view"},{"type":"function","name":"securityHub","inputs":[],"outputs":[{"name":"","type":"address","internalType":"contract ISecurityHub"}],"stateMutability":"view"},{"type":"function","name":"setAntiWhale","inputs":[{"name":"_maxTransfer","type":"uint256","internalType":"uint256"},{"name":"_maxWallet","type":"uint256","internalType":"uint256"},{"name":"_dailyLimit","type":"uint256","internalType":"uint256"},{"name":"_cooldown","type":"uint256","internalType":"uint256"}],"outputs":[],"stateMutability":"nonpayable"},{"type":"function","name":"setBlacklist","inputs":[{"name":"user","type":"address","internalType":"address"},{"name":"status","type":"bool","internalType":"bool"}],"outputs":[],"stateMutability":"nonpayable"},{"type":"function","name":"setBurnRouter","inputs":[{"name":"router","type":"address","internalType":"address"}],"outputs":[],"stateMutability":"nonpayable"},{"type":"function","name":"setCircuitBreaker","inputs":[{"name":"_active","type":"bool","internalType":"bool"},{"name":"_duration","type":"uint256","internalType":"uint256"}],"outputs":[],"stateMutability":"nonpayable"},{"type":"function","name":"setFrozen","inputs":[{"name":"user","type":"address","internalType":"address"},{"name":"frozen","type":"bool","internalType":"bool"}],"outputs":[],"stateMutability":"nonpayable"},{"type":"function","name":"setLedger","inputs":[{"name":"_ledger","type":"address","internalType":"address"}],"outputs":[],"stateMutability":"nonpayable"},{"type":"function","name":"setSanctumSink","inputs":[{"name":"_sanctum","type":"address","internalType":"address"}],"outputs":[],"stateMutability":"nonpayable"},{"type":"function","name":"setSecurityHub","inputs":[{"name":"hub","type":"address","internalType":"address"}],"outputs":[],"stateMutability":"nonpayable"},{"type":"function","name":"setSystemExempt","inputs":[{"name":"who","type":"address","internalType":"address"},{"name":"isExempt","type":"bool","internalType":"bool"}],"outputs":[],"stateMutability":"nonpayable"},{"type":"function","name":"setTreasurySink","inputs":[{"name":"sink","type":"address","internalType":"address"}],"outputs":[],"stateMutability":"nonpayable"},{"type":"function","name":"setVaultHub","inputs":[{"name":"hub","type":"address","internalType":"address"}],"outputs":[],"stateMutability":"nonpayable"},{"type":"function","name":"setVaultOnly","inputs":[{"name":"enabled","type":"bool","internalType":"bool"}],"outputs":[],"stateMutability":"nonpayable"},{"type":"function","name":"setWhaleLimitExempt","inputs":[{"name":"addr","type":"address","internalType":"address"},{"name":"exempt","type":"bool","internalType":"bool"}],"outputs":[],"stateMutability":"nonpayable"},{"type":"function","name":"setWhitelist","inputs":[{"name":"addr","type":"address","internalType":"address"},{"name":"status","type":"bool","internalType":"bool"}],"outputs":[],"stateMutability":"nonpayable"},{"type":"function","name":"symbol","inputs":[],"outputs":[{"name":"","type":"string","internalType":"string"}],"stateMutability":"view"},{"type":"function","name":"systemExempt","inputs":[{"name":"","type":"address","internalType":"address"}],"outputs":[{"name":"","type":"bool","internalType":"bool"}],"stateMutability":"view"},{"type":"function","name":"totalSupply","inputs":[],"outputs":[{"name":"","type":"uint256","internalType":"uint256"}],"stateMutability":"view"},{"type":"function","name":"transfer","inputs":[{"name":"to","type":"address","internalType":"address"},{"name":"amount","type":"uint256","internalType":"uint256"}],"outputs":[{"name":"","type":"bool","internalType":"bool"}],"stateMutability":"nonpayable"},{"type":"function","name":"transferCooldown","inputs":[],"outputs":[{"name":"","type":"uint256","internalType":"uint256"}],"stateMutability":"view"},{"type":"function","name":"transferFrom","inputs":[{"name":"from","type":"address","internalType":"address"},{"name":"to","type":"address","internalType":"address"},{"name":"amount","type":"uint256","internalType":"uint256"}],"outputs":[{"name":"","type":"bool","internalType":"bool"}],"stateMutability":"nonpayable"},{"type":"function","name":"transferOwnership","inputs":[{"name":"newOwner","type":"address","internalType":"address"}],"outputs":[],"stateMutability":"nonpayable"},{"type":"function","name":"treasurySink","inputs":[],"outputs":[{"name":"","type":"address","internalType":"address"}],"stateMutability":"view"},{"type":"function","name":"vaultHub","inputs":[],"outputs":[{"name":"","type":"address","internalType":"contract IVaultHub"}],"stateMutability":"view"},{"type":"function","name":"vaultOnly","inputs":[],"outputs":[{"name":"","type":"bool","internalType":"bool"}],"stateMutability":"view"},{"type":"function","name":"whaleLimitExempt","inputs":[{"name":"","type":"address","internalType":"address"}],"outputs":[{"name":"","type":"bool","internalType":"bool"}],"stateMutability":"view"},{"type":"function","name":"whitelisted","inputs":[{"name":"","type":"address","internalType":"address"}],"outputs":[{"name":"","type":"bool","internalType":"bool"}],"stateMutability":"view"},{"type":"event","name":"AntiWhaleSet","inputs":[{"name":"maxTransfer","type":"uint256","indexed":false,"internalType":"uint256"},{"name":"maxWallet","type":"uint256","indexed":false,"internalType":"uint256"},{"name":"dailyLimit","type":"uint256","indexed":false,"internalType":"uint256"},{"name":"cooldown","type":"uint256","indexed":false,"internalType":"uint256"}],"anonymous":false},{"type":"event","name":"Approval","inputs":[{"name":"owner","type":"address","indexed":true,"internalType":"address"},{"name":"spender","type":"address","indexed":true,"internalType":"address"},{"name":"value","type":"uint256","indexed":false,"internalType":"uint256"}],"anonymous":false},{"type":"event","name":"BlacklistSet","inputs":[{"name":"user","type":"address","indexed":true,"internalType":"address"},{"name":"status","type":"bool","indexed":false,"internalType":"bool"},{"name":"setBy","type":"address","indexed":true,"internalType":"address"}],"anonymous":false},{"type":"event","name":"BurnRouterSet","inputs":[{"name":"router","type":"address","indexed":true,"internalType":"address"}],"anonymous":false},{"type":"event","name":"CircuitBreakerSet","inputs":[{"name":"active","type":"bool","indexed":false,"internalType":"bool"},{"name":"expiry","type":"uint256","indexed":false,"internalType":"uint256"}],"anonymous":false},{"type":"event","name":"ExemptSet","inputs":[{"name":"target","type":"address","indexed":true,"internalType":"address"},{"name":"exempt","type":"bool","indexed":false,"internalType":"bool"}],"anonymous":false},{"type":"event","name":"FeeApplied","inputs":[{"name":"from","type":"address","indexed":true,"internalType":"address"},{"name":"to","type":"address","indexed":true,"internalType":"address"},{"name":"burnAmount","type":"uint256","indexed":false,"internalType":"uint256"},{"name":"sanctumAmount","type":"uint256","indexed":false,"internalType":"uint256"},{"name":"ecosystemAmount","type":"uint256","indexed":false,"internalType":"uint256"},{"name":"sanctumSink","type":"address","indexed":true,"internalType":"address"},{"name":"ecosystemSink","type":"address","indexed":false,"internalType":"address"}],"anonymous":false},{"type":"event","name":"FrozenSet","inputs":[{"name":"user","type":"address","indexed":true,"internalType":"address"},{"name":"frozen","type":"bool","indexed":false,"internalType":"bool"},{"name":"setBy","type":"address","indexed":true,"internalType":"address"}],"anonymous":false},{"type":"event","name":"LedgerSet","inputs":[{"name":"ledger","type":"address","indexed":true,"internalType":"address"}],"anonymous":false},{"type":"event","name":"OwnershipTransferStarted","inputs":[{"name":"previousOwner","type":"address","indexed":true,"internalType":"address"},{"name":"newOwner","type":"address","indexed":true,"internalType":"address"}],"anonymous":false},{"type":"event","name":"OwnershipTransferred","inputs":[{"name":"previousOwner","type":"address","indexed":true,"internalType":"address"},{"name":"newOwner","type":"address","indexed":true,"internalType":"address"}],"anonymous":false},{"type":"event","name":"PolicyLocked","inputs":[],"anonymous":false},{"type":"event","name":"PresaleContractSet","inputs":[{"name":"presale","type":"address","indexed":true,"internalType":"address"}],"anonymous":false},{"type":"event","name":"SanctumSinkSet","inputs":[{"name":"sink","type":"address","indexed":true,"internalType":"address"}],"anonymous":false},{"type":"event","name":"SecurityHubSet","inputs":[{"name":"hub","type":"address","indexed":true,"internalType":"address"}],"anonymous":false},{"type":"event","name":"SystemExemptSet","inputs":[{"name":"who","type":"address","indexed":true,"internalType":"address"},{"name":"isExempt","type":"bool","indexed":false,"internalType":"bool"}],"anonymous":false},{"type":"event","name":"Transfer","inputs":[{"name":"from","type":"address","indexed":true,"internalType":"address"},{"name":"to","type":"address","indexed":true,"internalType":"address"},{"name":"value","type":"uint256","indexed":false,"internalType":"uint256"}],"anonymous":false},{"type":"event","name":"TreasurySinkSet","inputs":[{"name":"sink","type":"address","indexed":true,"internalType":"address"}],"anonymous":false},{"type":"event","name":"VaultHubSet","inputs":[{"name":"hub","type":"address","indexed":true,"internalType":"address"}],"anonymous":false},{"type":"event","name":"VaultOnlySet","inputs":[{"name":"enabled","type":"bool","indexed":false,"internalType":"bool"}],"anonymous":false},{"type":"event","name":"WhaleLimitExemptSet","inputs":[{"name":"addr","type":"address","indexed":true,"internalType":"address"},{"name":"exempt","type":"bool","indexed":false,"internalType":"bool"}],"anonymous":false},{"type":"event","name":"Whitelisted","inputs":[{"name":"addr","type":"address","indexed":true,"internalType":"address"},{"name":"status","type":"bool","indexed":false,"internalType":"bool"}],"anonymous":false},{"type":"error","name":"Token_NotVault","inputs":[]},{"type":"error","name":"VF_CAP","inputs":[]},{"type":"error","name":"VF_DailyLimitExceeded","inputs":[]},{"type":"error","name":"VF_LOCKED","inputs":[]},{"type":"error","name":"VF_MaxTransferExceeded","inputs":[]},{"type":"error","name":"VF_MaxWalletExceeded","inputs":[]},{"type":"error","name":"VF_POLICY_LOCKED","inputs":[]},{"type":"error","name":"VF_TransferCooldown","inputs":[]},{"type":"error","name":"VF_ZERO","inputs":[]}],"bytecode":{"object":"0x608080604052346105795760c081614506803803809161001f82856106b0565b83398101031261057957610032816106e7565b9061003f602082016106e7565b61004b604083016106e7565b610057606084016106e7565b61006f60a0610068608087016106e7565b95016106e7565b5f80546001600160a01b0319163390811782556040519792917f8be0079c531659141344cd1fd0a4f28419497f9722a3daafe3b4186f6b6457e08180a360016002556a01a784379d99db420000006003556a034f086f3b33b6840000006004556a0422ca8b0a00a4250000006005555f60068190556011805462ffffff60a01b1916600160a01b1790556012556001600160a01b0382169081156106a1576001600160a01b0386169485156106a1576001600160a01b03169788156106a157833b1561066a5750853b1561063157610438966103a2946001600160a01b0316806105f5575b506001600160a01b0316806105b9575b506001600160a01b03168061057d575b508360018060a01b03196015541617601555835f52601360205260405f20600160ff19825416179055837f44f2eda14b8ba74d08291fccb7fe6e96b0188538fb528966e0d02a84713f290d6020604051837f7188527286b7c8f39703bf108a472dc431dec1ab5e61b363c3ebb1f35ef67af15f80a260018152a2805f52600a60205260405f20600160ff19825416179055835f52600a60205260405f20600160ff19825416179055865f52600a60205260405f20600160ff198254161790556040516102416040826106b0565b600b81526a2b2324a222902a37b5b2b760a91b602090910152604080517f4ce082c216934f45765aa52f1d82612cdb513a49760946798ca41165309f978c9161028a90826106b0565b600181526020810190603160f81b82525190206040519060208201927f8b73c3c69bb8fe3d512ecc4cf759cc79239f7b179b0ffacaa9a75d522b39400f8452604083015260608201524660808201523060a082015260a081526102ee60c0826106b0565b519020601b556aa56fa5b99019a5c8000000600b55805f52600c6020526a295be96e6406697200000060405f20555f5f5160206144e65f395f51905f5260206040516a295be96e640669720000008152a360405161034d6040826106b0565b601381527f7072656d696e745f6465765f72657365727665000000000000000000000000006020820152604051916103866040846106b0565b600a8352690d4c13481b1bd8dad95960b21b602084015261071f565b805f52600c6020526a295be96e6406697200000060405f20555f5f5160206144e65f395f51905f5260206040516a295be96e640669720000008152a36040516103ec6040826106b0565b600f81526e7072656d696e745f70726573616c6560881b6020820152604051916104176040846106b0565b600f83526e35304d20666f722070726573616c6560881b602084015261071f565b805f52600c6020526a52b7d2dcc80cd2e400000060405f2055805f5f5160206144e65f395f51905f5260206040516a52b7d2dcc80cd2e40000008152a36040516104836040826106b0565b601081526f7072656d696e745f747265617375727960801b6020820152604051916104af6040846106b0565b601383527f3130304d20666f72206f7065726174696f6e730000000000000000000000000060208401526010546001600160a01b0316806104fa575b604051613d2790816107bf8239f35b803b15610579575f92836105359361055860405197889687958694630303c28760e61b865260048601526080602486015260848501906106fb565b6a52b7d2dcc80cd2e40000006044850152838103600319016064850152906106fb565b03925af1610569575b8080806104eb565b5f610573916106b0565b5f610561565b5f80fd5b601680546001600160a01b031916821790557f3f2254a28ba18b54180672b4e5f33b7cbe996e44be5c1ebe9057f49e894cde315f80a25f610174565b601080546001600160a01b031916821790557fbc62e69a31739e36d57d56991ac20e4e507a7edfff9070e6a11df5a37b8b4e6f5f80a25f610164565b600e80546001600160a01b031916821790557fbb3d89b3025a50f5b3f9fc1bfe23194ad7fb05af4e31ab293af4a947960954d55f80a25f610154565b60405162461bcd60e51b81526020600482015260116024820152701c1c995cd85b19480858dbdb9d1c9858dd607a1b6044820152606490fd5b62461bcd60e51b815260206004820152601260248201527119195d95985d5b1d080858dbdb9d1c9858dd60721b6044820152606490fd5b63ebeb59ad60e01b5f5260045ffd5b601f909101601f19168101906001600160401b038211908210176106d357604052565b634e487b7160e01b5f52604160045260245ffd5b51906001600160a01b038216820361057957565b805180835260209291819084018484015e5f828201840152601f01601f1916010190565b6010546001600160a01b031680610737575b50505050565b803b15610579575f928361077a9361079d60405197889687958694630303c28760e61b865260018060a01b031660048601526080602486015260848501906106fb565b6a295be96e640669720000006044850152838103600319016064850152906106fb565b03925af16107ae575b808080610731565b5f6107b8916106b0565b5f6107a656fe6080806040526004361015610012575f80fd5b5f3560e01c90816306e0c52c146120415750806306fdde0314611ff45780630741206e14611f59578063095ea7b314611f335780630d2d8a3114611efb57806313d1ad0814611e86578063153b0d1e14611d0057806316efd94114611cdb57806318160ddd14611cbe578063198803b114611b225780631dc4b09c14611a6a57806322a7caf514611a4d57806323452b9c14611a2357806323b872dd1461197f57806330adf81f1461195857806330e7668414611920578063313ce567146119055780633246887d1461187457806332941ecb1461185057806332cb6b0c1461182b5780633644e5151461180e57806339509351146117c75780633c2f9fe41461160557806350140c06146115db57806353d6fd59146114ed57806355545fb01461145657806356397c351461142e578063573458e5146114175780636336f3ac1461132a57806363d9df851461130257806368f16293146112e55780636c32b2ec146112bd5780636dd6e80b1461129557806370a082311461125d578063748ada521461123857806379036e901461120057806379ba5097146111595780637adc723d1461111c5780637ecebe00146110e45780638bea4f2d146110bc5780638da5cb5b1461109557806395d89b411461104e57806399e793a014610aa35780639a03f22414610fcf5780639d82190f14610fac5780639dac064114610f69578063a34857cd14610ead578063a457c2d714610e14578063a9059cbb14610dd6578063a9e7572314610db9578063ac41d29914610d79578063ac869cd814610cb1578063b55e3f3a14610bb2578063b692749714610b95578063b72d294314610b6d578063bae82f7514610ac5578063bbde77c114610aa8578063bd94fafc14610aa3578063beeeb4ce14610a7b578063c4b740f514610981578063d505accf14610752578063d6b5473514610715578063d7ae8942146106f9578063d936547e146106bc578063dd62ed3e1461066c578063e30c397814610644578063e46638e61461060a578063e5839836146105cd578063f2fde38b14610527578063f497e873146104fc578063f714af6f146104df578063fa037766146103805763fe575a871461033f575f80fd5b3461037c57602036600319011261037c576001600160a01b036103606120be565b165f526018602052602060ff60405f2054166040519015158152f35b5f80fd5b3461037c57604036600319011261037c576103996120f9565b6024356103a4612c00565b81156104c857801515806104bb575b1561047f576011805460ff60b01b1916600160b01b1790556103d590426121e0565b6012555b7f04593f08e7dc4a4b3442a0009dff46944620bf6c71bde4a1fa3724b7d6bfe09e604060125481519084151582526020820152a11561044957610447604051610423604082612063565b601281527131b4b931bab4ba2fb13932b0b5b2b92fb7b760711b6020820152612c49565b005b61044760405161045a604082612063565b601381527231b4b931bab4ba2fb13932b0b5b2b92fb7b33360691b6020820152612c49565b60405162461bcd60e51b81526020600482015260146024820152732b231d1034b73b30b634b210323ab930ba34b7b760611b6044820152606490fd5b5062093a808111156103b3565b506011805460ff60b01b191690555f6012556103d9565b3461037c575f36600319011261037c576020600554604051908152f35b3461037c57602036600319011261037c57602061051f61051a6120be565b612b9a565b604051908152f35b3461037c57602036600319011261037c576105406120be565b610548612c00565b6001600160a01b0316801561059c57600180546001600160a01b031916821790555f80546001600160a01b0316907f38d16b8cac22d99fc7c124b9cd0de2d3fa1faef420bfe791d8c362d765e227009080a3005b60405162461bcd60e51b81526020600482015260096024820152684f574e3a207a65726f60b81b6044820152606490fd5b3461037c57602036600319011261037c576001600160a01b036105ee6120be565b165f526019602052602060ff60405f2054166040519015158152f35b3461037c5761062161061b36612108565b9161254a565b906106406040519283921515835260406020840152604083019061209a565b0390f35b3461037c575f36600319011261037c576001546040516001600160a01b039091168152602090f35b3461037c57604036600319011261037c576106856120be565b61068d6120d4565b6001600160a01b039182165f908152600d60209081526040808320949093168252928352819020549051908152f35b3461037c57602036600319011261037c576001600160a01b036106dd6120be565b165f526014602052602060ff60405f2054166040519015158152f35b3461037c575f36600319011261037c576020604051610e108152f35b3461037c57602036600319011261037c576001600160a01b036107366120be565b165f526013602052602060ff60405f2054166040519015158152f35b3461037c5760e036600319011261037c5761076b6120be565b6107736120d4565b604435906064356084359060ff821680920361037c578042116109425762278d004201908142116108ef5711610903576001600160a01b0384165f818152601c602052604090208054919291905f1982146108ef576020928260809260015f95019055604051858101915f516020613cd25f395f51905f52835287604083015260018060a01b0389166060830152898583015260a082015260a0815261081a60c082612063565b519020601b5490604051908682019261190160f01b8452602283015260428201526042815261084a606282612063565b519020906040519182528482015260a435604082015260c435606082015282805260015afa156108e4575f516001600160a01b03168015159190826108da575b50501561089a5761044792612cb5565b60405162461bcd60e51b815260206004820152601860248201527756464944453a20696e76616c6964207369676e617475726560401b6044820152606490fd5b149050848061088a565b6040513d5f823e3d90fd5b634e487b7160e01b5f52601160045260245ffd5b60405162461bcd60e51b81526020600482015260176024820152762b2324a2229d103232b0b23634b732903a37b7903330b960491b6044820152606490fd5b60405162461bcd60e51b815260206004820152601760248201527656464944453a206578706972656420646561646c696e6560481b6044820152606490fd5b3461037c57602036600319011261037c5761099a6120f9565b6109a2612c00565b60115460ff8160a81c1680610a73575b610a645760ff60a01b191681151560a081901b60ff60a01b16919091176011556040519081527fc700a08714659bf8ab2121ea3f1f64e22835cf102ad9ba5d0816e55a23f6ea2c90602090a115610a3357610447604051610a14604082612063565b600d81526c3b30bab63a2fb7b7363cafb7b760991b6020820152612c49565b610447604051610a44604082612063565b600e81526d3b30bab63a2fb7b7363cafb7b33360911b6020820152612c49565b63015c1ff360e51b5f5260045ffd5b5081156109b2565b3461037c575f36600319011261037c576017546040516001600160a01b039091168152602090f35b61215e565b3461037c575f36600319011261037c576020600454604051908152f35b3461037c57604036600319011261037c57610ade6120be565b6001600160a01b03166024358115610b5e57600b54906aa56fa5b99019a5c8000000610b0a82846121e0565b11610b4f57602081610b2b5f516020613cb25f395f51905f52935f956121e0565b600b55848452600c825260408420610b448282546121e0565b9055604051908152a3005b63d65d418b60e01b5f5260045ffd5b63ebeb59ad60e01b5f5260045ffd5b3461037c575f36600319011261037c57600f546040516001600160a01b039091168152602090f35b3461037c575f36600319011261037c57602060405162093a808152f35b3461037c57602036600319011261037c57610bcb6120be565b610bd3612c00565b60ff60115460a81c16610c5e575b6001600160a01b0316610bf5811515612183565b601780546001600160a01b031916821790557fe99cdf96738a4659f820a0890f65abe82cce94da951e032d7abe61e5687ba2525f80a2610447604051610c3c604082612063565b601081526f1cd85b98dd1d5b57dcda5b9ad7dcd95d60821b6020820152612c49565b6001600160a01b038116610be15760405162461bcd60e51b815260206004820152601f60248201527f56463a2063616e6e6f7420736574207a65726f207768656e206c6f636b6564006044820152606490fd5b3461037c57604036600319011261037c57610cca6120be565b610cd26120ea565b90610cdb612c00565b6001600160a01b03165f818152601960205260409020610cfc9083906121c2565b8115610d59575f818152601a6020526040902080546001600160401b031916426001600160401b03161790555b60405191151582527f0a85b4f485f69ad2f3adfe863c3129f2ce56bc6437a23b0db9bb4de47475d06460203393a3005b5f818152601a6020526040902080546001600160401b0319169055610d29565b3461037c57602036600319011261037c576001600160a01b03610d9a6120be565b165f52601a602052602060018060401b0360405f205416604051908152f35b3461037c575f36600319011261037c576020600354604051908152f35b3461037c57604036600319011261037c57610e04610df26120be565b610dfa612d64565b6024359033612da6565b6001600255602060405160018152f35b3461037c57604036600319011261037c57610e2d6120be565b60243590335f52600d60205260405f2060018060a01b0382165f5260205260405f2054828110610e7657610e6b92610e64916121d3565b9033612cb5565b602060405160018152f35b60405162461bcd60e51b815260206004820152600f60248201526e616c6c6f7720756e646572666c6f7760881b6044820152606490fd5b3461037c57602036600319011261037c57610ec66120be565b610ece612c00565b60ff60115460a81c1680610f58575b610a6457601680546001600160a01b0319166001600160a01b039290921691821790557f3f2254a28ba18b54180672b4e5f33b7cbe996e44be5c1ebe9057f49e894cde315f80a2610447604051610f35604082612063565b60118152701d1c99585cdd5c9e57dcda5b9ad7dcd95d607a1b6020820152612c49565b506001600160a01b03811615610edd565b3461037c57602036600319011261037c5760a0610f8c610f876120be565b61245a565b926040929192519485526020850152604084015260608301526080820152f35b3461037c57602036600319011261037c57602061051f610fca6120be565b6123fe565b3461037c575f36600319011261037c57610fe7612c00565b6011805460ff60a81b1916600160a81b1790557f3ce392d8aa0912d44ce27fbdd025b988ec76fd2b53f0ab8b479ed539069d2b345f80a161044760405161102f604082612063565b600d81526c1c1bdb1a58de57db1bd8dad959609a1b6020820152612c49565b3461037c575f36600319011261037c5761064060405161106f604082612063565b6005815264564649444560d81b602082015260405191829160208352602083019061209a565b3461037c575f36600319011261037c575f546040516001600160a01b039091168152602090f35b3461037c575f36600319011261037c576016546040516001600160a01b039091168152602090f35b3461037c57602036600319011261037c576001600160a01b036111056120be565b165f52601c602052602060405f2054604051908152f35b3461037c57602036600319011261037c576001600160a01b0361113d6120be565b165f52600a602052602060ff60405f2054166040519015158152f35b3461037c575f36600319011261037c576001546001600160a01b03811633036111c2575f543360018060a01b0382167f8be0079c531659141344cd1fd0a4f28419497f9722a3daafe3b4186f6b6457e05f80a36001600160a01b031990811633175f5516600155005b60405162461bcd60e51b815260206004820152601660248201527527aba71d103737ba103832b73234b7339037bbb732b960511b6044820152606490fd5b3461037c57602036600319011261037c576001600160a01b036112216120be565b165f526007602052602060405f2054604051908152f35b3461037c575f36600319011261037c57602060ff60115460a81c166040519015158152f35b3461037c57602036600319011261037c576001600160a01b0361127e6120be565b165f52600c602052602060405f2054604051908152f35b3461037c575f36600319011261037c57600e546040516001600160a01b039091168152602090f35b3461037c575f36600319011261037c576011546040516001600160a01b039091168152602090f35b3461037c575f36600319011261037c576020600654604051908152f35b3461037c575f36600319011261037c576015546040516001600160a01b039091168152602090f35b3461037c57604036600319011261037c576104476113466120be565b61134e6120ea565b611356612c00565b6001600160a01b03821661136b811515612183565b805f5260136020526113808260405f206121c2565b7f44f2eda14b8ba74d08291fccb7fe6e96b0188538fb528966e0d02a84713f290d60206040518415158152a2156113ed576040516113bf604082612063565b600981526832bc32b6b83a2fb7b760b91b60208201525b604051916113e5602084612063565b5f83526139c0565b6040516113fb604082612063565b600a81526932bc32b6b83a2fb7b33360b11b60208201526113d6565b3461037c5761044761142836612108565b91612da6565b3461037c575f36600319011261037c576010546040516001600160a01b039091168152602090f35b3461037c57602036600319011261037c5761146f6120be565b611477612c00565b600f80546001600160a01b0319166001600160a01b039290921691821790557fd15414d216acba4fd6e41103922663a24e3ac895d383ad66e7be0c48115d5b1e5f80a26104476040516114cb604082612063565b601081526f1cd958dd5c9a5d1e57da1d5897dcd95d60821b6020820152612c49565b3461037c57604036600319011261037c576104476115096120be565b6115116120ea565b611519612c00565b6001600160a01b03821661152e811515612183565b805f5260146020526115438260405f206121c2565b7fa54714518c5d275fdcd3d2a461e4858e4e8cb04fb93cd0bca9d6d34115f2644060206040518415158152a2156115ab57604051611582604082612063565b600d81526c1dda1a5d195b1a5cdd17d85919609a1b6020820152604051916113e5602084612063565b6040516115b9604082612063565b601081526f77686974656c6973745f72656d6f766560801b60208201526113d6565b3461037c576106406115f56115ef36612108565b916122d3565b9060409492945194859485612142565b3461037c57608036600319011261037c5760643560243560043560443561162a612c00565b81611785575b82611743575b80611701575b836116bc575b7fdd527915e4785ab4e44c56581b4895b2cf4ce1414470508ea4a3d00623fba91493611684918360035584600455806005558160065560405194859485612142565b0390a1610447604051611698604082612063565b6012815271185b9d1a57ddda185b1957dd5c19185d195960721b6020820152612c49565b610e108411156116425760405162461bcd60e51b815260206004820152601360248201527236b0bc1018903437bab91031b7b7b63237bbb760691b6044820152606490fd5b6969e10de76676d080000081101561163c5760405162461bcd60e51b81526020600482015260086024820152676d696e203530306b60c01b6044820152606490fd5b692a5a058fc295ed0000008310156116365760405162461bcd60e51b81526020600482015260086024820152676d696e203230306b60c01b6044820152606490fd5b69152d02c7e14af68000008210156116305760405162461bcd60e51b81526020600482015260086024820152676d696e203130306b60c01b6044820152606490fd5b3461037c57604036600319011261037c57610e6b6117e36120be565b335f52600d60205260405f2060018060a01b0382165f52602052610e6460405f2060243590546121e0565b3461037c575f36600319011261037c576020601b54604051908152f35b3461037c575f36600319011261037c5760206040516aa56fa5b99019a5c80000008152f35b3461037c575f36600319011261037c57602061186a612226565b6040519015158152f35b3461037c57602036600319011261037c5761188d6120be565b611895612c00565b601080546001600160a01b0319166001600160a01b039290921691821790557fbc62e69a31739e36d57d56991ac20e4e507a7edfff9070e6a11df5a37b8b4e6f5f80a26104476040516118e9604082612063565b600a8152691b195919d95c97dcd95d60b21b6020820152612c49565b3461037c575f36600319011261037c57602060405160128152f35b3461037c57602036600319011261037c576001600160a01b036119416120be565b165f526008602052602060405f2054604051908152f35b3461037c575f36600319011261037c5760206040515f516020613cd25f395f51905f528152f35b3461037c5761198d36612108565b90611996612d64565b335f5260186020526119af60ff60405f205416156121ed565b6001600160a01b0383165f908152600d60209081526040808320338452909152902054928284106119f6576119f16119ea84610e04966121d3565b3383612cb5565b612da6565b60405162461bcd60e51b8152602060048201526005602482015264616c6c6f7760d81b6044820152606490fd5b3461037c575f36600319011261037c57611a3b612c00565b600180546001600160a01b0319169055005b3461037c575f36600319011261037c576020601254604051908152f35b3461037c57602036600319011261037c57611a836120be565b611a8b612c00565b6011549060ff8260a81c1680611b11575b610a64576001600160a01b03166001600160a01b03199190911681176011557faf9b9a8ca16be293d721c9b992abdb79c8c7a18ed68c393cc10deeaf4b2f99775f80a2610447604051611af0604082612063565b600f81526e189d5c9b97dc9bdd5d195c97dcd95d608a1b6020820152612c49565b506001600160a01b03811615611a9c565b3461037c57602036600319011261037c5760e0611b3d6120be565b6001600160a01b03165f818152600a602052604090205460ff16908115611ca6575b8115611b9757505f19905f808380805b604051968752602087015260408601526060850152608084015260a0830152151560c0820152f35b6003549091908015611c9e575b6004549092908015611c96575b9060055480151590815f14611c8f57805b9115611c8657825f5260086020526201518060405f205404620151804204115f14611c4d57905b6006549283151580611c38575b15611c30575f526009602052611c108360405f20546121e0565b428111611c2057505f5b93611b6f565b611c2b9042906121d3565b611c1a565b505f93611b6f565b50805f52600960205260405f20541515611bf6565b5f838152600760205260409020548111611c6957505f90611be9565b611c8090835f52600760205260405f2054906121d3565b90611be9565b505f1990611be9565b5f19611bc2565b505f19611bb1565b505f19611ba4565b8091505f52601360205260ff60405f20541690611b5f565b3461037c575f36600319011261037c576020600b54604051908152f35b3461037c575f36600319011261037c57602060ff60115460b01c166040519015158152f35b3461037c57604036600319011261037c57611d196120be565b611d216120ea565b9081611d2b612c00565b611db5575b60018060a01b0316805f52601860205281611d4e8160405f206121c2565b611d83575b60405191151582527f4edd9bb92fa41bc25fb64fc24645bea26691eff97f54d2db5362a3f986c188e960203393a3005b5f818152601960209081526040808320805460ff19169055601a909152902080546001600160401b0319169055611d53565b6001600160a01b0381165f8181526019602052604090205460ff1615611e49575f908152601a60205260409020546001600160401b03908116610e10019081116108ef576001600160401b0316421015611d305760405162461bcd60e51b815260206004820152601860248201527715918e88199c99595e994819195b185e481b9bdd081b595d60421b6044820152606490fd5b60405162461bcd60e51b815260206004820152601560248201527415918e881b5d5cdd08199c99595e9948199a5c9cdd605a1b6044820152606490fd5b3461037c57604036600319011261037c57611e9f6120be565b7fe355751d29baf3bbcbfb4f9db660bfdf038ac8076722a3cb9ed1807250c1f7b06020611eca6120ea565b92611ed3612c00565b60018060a01b031692835f52600a8252611ef08160405f206121c2565b6040519015158152a2005b3461037c57602036600319011261037c576001600160a01b03611f1c6120be565b165f526009602052602060405f2054604051908152f35b3461037c57604036600319011261037c57610e6b611f4f6120be565b6024359033612cb5565b3461037c57602036600319011261037c57611f726120be565b611f7a612c00565b6001600160a01b0316611f8e811515612183565b600e80546001600160a01b031916821790557fbb3d89b3025a50f5b3f9fc1bfe23194ad7fb05af4e31ab293af4a947960954d55f80a2610447604051611fd5604082612063565b600d81526c1d985d5b1d17da1d5897dcd95d609a1b6020820152612c49565b3461037c575f36600319011261037c57610640604051612015604082612063565b600b81526a2b2324a222902a37b5b2b760a91b602082015260405191829160208352602083019061209a565b3461037c575f36600319011261037c5760209060ff60115460a01c1615158152f35b601f909101601f19168101906001600160401b0382119082101761208657604052565b634e487b7160e01b5f52604160045260245ffd5b805180835260209291819084018484015e5f828201840152601f01601f1916010190565b600435906001600160a01b038216820361037c57565b602435906001600160a01b038216820361037c57565b60243590811515820361037c57565b60043590811515820361037c57565b606090600319011261037c576004356001600160a01b038116810361037c57906024356001600160a01b038116810361037c579060443590565b9094939260609260808301968352602083015260408201520152565b3461037c575f36600319011261037c5760206040516a295be96e640669720000008152f35b1561218a57565b60405162461bcd60e51b815260206004820152601060248201526f56463a207a65726f206164647265737360801b6044820152606490fd5b9060ff801983541691151516179055565b919082039182116108ef57565b919082018092116108ef57565b156121f457565b60405162461bcd60e51b815260206004820152600a60248201526914d85b98dd1a5bdb995960b21b6044820152606490fd5b60ff60115460b01c161561224b57601254801515908161224f575b5061224b57600190565b5f90565b90504210155f612241565b51906001600160a01b038216820361037c57565b91908260c091031261037c578151916020810151916040820151916122956060820161225a565b916122ae60a06122a76080850161225a565b930161225a565b90565b6001600160a01b03918216815291166020820152604081019190915260600190565b9092919260018060a01b0382165f5260136020528360ff60405f20541680156123da575b80156123c7575b80156123b9575b6123ad5760115460405163252f15f560e01b81529360c09385936001600160a01b03909316928492839261233d9291600485016122b1565b03915afa9182156108e4575f925f925f9161236e575b50806123696122ae9294612369819780996121d3565b6121d3565b90506122ae935061239891925060c03d60c0116123a6575b6123908183612063565b81019061226e565b505050929193909290612353565b503d612386565b5050505f915f915f9190565b506123c2612226565b612305565b506011546001600160a01b0316156122fe565b50506001600160a01b0381165f90815260136020526040902054849060ff166122f7565b600654908115612454576001600160a01b03165f81815260096020526040902054909190156124545761243c915f52600960205260405f20546121e0565b8042101561244f576122ae9042906121d3565b505f90565b50505f90565b6001600160a01b03165f818152600a602052604090205490919060ff168015612534575b612526576005549062015180420492805f5260086020526201518060405f205404908185115f146124d65750505f928291620151808202918083046201518014901517156108ef576201518082018083116108ef5790565b5f908152600760205260409020549350828410612517575f5b91620151808202918083046201518014901517156108ef576201518082018083116108ef5790565b61252184846121d3565b6124ef565b5f91505f1990819083908190565b50815f52601360205260ff60405f20541661247e565b6001600160a01b0381165f818152601860205260409020549293919260ff16612b64576001600160a01b0384165f8181526018602052604090205490929060ff16612b2a57815f52600c6020528060405f205410612af157815f52600a60205260ff60405f2054161580612ada575b80612ac3575b80612aac575b80612aa3575b80612a9a575b6128b6575b5060ff60115460a01c16806128a2575b612708575b5050600f546001600160a01b03161515806126f9575b61261f575b5050600190604051612619602082612063565b5f815290565b61262b61263191613b85565b91613b85565b906001600160a01b038116151590816126e9575b506126b2576001600160a01b038116151590816126a2575b50612669575f80612606565b5f90604051612679604082612063565b6019815278149958da5c1a595b9d081d985d5b1d081a5cc81b1bd8dad959603a1b602082015290565b6126ac9150613c07565b5f61265d565b505f906040516126c3604082612063565b601681527514d95b99195c881d985d5b1d081a5cc81b1bd8dad95960521b602082015290565b6126f39150613c07565b5f612645565b50612702612226565b15612601565b801590811561288a575b8115612873575b508015612864575b8015612855575b8115918215612840575b821561282b575b8215612813575b82156127fb575b5081156127ea575b81156127d9575b156127a15715612767575f806125eb565b50505f90604051612779604082612063565b6018815277149958da5c1a595b9d081b5d5cdd081d5cd9481d985d5b1d60421b602082015290565b5050505f906040516127b4604082612063565b601581527414d95b99195c881b5d5cdd081d5cd9481d985d5b1d605a1b602082015290565b90506127e483613aec565b90612756565b90506127f583613a6c565b9061274f565b5f9081526014602052604081205460ff169250612747565b8092505f52601360205260ff60405f20541691612740565b6017546001600160a01b031681149250612739565b6016546001600160a01b031681149250612732565b5061285f82613aec565b612728565b5061286e82613a6c565b612721565b90505f52601460205260ff60405f2054165f612719565b8091505f52601360205260ff60405f20541690612712565b50600e546001600160a01b031615156125e6565b6003548015159081612a90575b50612a50576004548015159081612a31575b506129f257600554908161296a575b505060065480151580612955575b156125d65761290d90825f52600960205260405f20546121e0565b4210612919575f6125d6565b505050505f9060405161292d604082612063565b60188152775472616e7366657220636f6f6c646f776e2061637469766560401b602082015290565b50815f52600960205260405f205415156128f2565b825f52600760205260405f205490835f5260086020526201518060405f2054046201518042041461299c575b506128e4565b6129a5916121e0565b116129b2575f8080612996565b505050505f906040516129c6604082612063565b601c81527b115e18d959591cc819185a5b1e481d1c985b9cd9995c881b1a5b5a5d60221b602082015290565b50505050505f90604051612a07604082612063565b601a81527945786365656473206d61782077616c6c65742062616c616e636560301b602082015290565b9050835f52600c602052612a498260405f20546121e0565b115f6128d5565b50505050505f90604051612a65604082612063565b601b81527a115e18d959591cc81b585e081d1c985b9cd9995c88185b5bdd5b9d602a1b602082015290565b905081115f6128c3565b508215156125d1565b508115156125cb565b50825f52601360205260ff60405f205416156125c5565b50815f52601360205260ff60405f205416156125bf565b50825f52600a60205260ff60405f205416156125b9565b50505050505f90604051612b06604082612063565b6014815273496e73756666696369656e742062616c616e636560601b602082015290565b50505050505f90604051612b3f604082612063565b6015815274149958da5c1a595b9d08189b1858dadb1a5cdd1959605a1b602082015290565b505050505f90604051612b78604082612063565b601281527114d95b99195c88189b1858dadb1a5cdd195960721b602082015290565b600554908115612bf95760018060a01b031690815f5260086020526201518060405f20540462015180420411612bf457815f5260076020528060405f20541015612454576122ae915f52600760205260405f2054906121d3565b905090565b50505f1990565b5f546001600160a01b03163303612c1357565b60405162461bcd60e51b815260206004820152600e60248201526d27aba71d103737ba1037bbb732b960911b6044820152606490fd5b6010546001600160a01b031680612c5e575050565b803b1561037c57604051633ddd61ab60e21b815230600482015260606024820152915f918391829084908290612c9890606483019061209a565b33604483015203925af1612ca95750565b5f612cb391612063565b565b6001600160a01b03169081151580612d52575b15612d215760207f8c5be1e5ebec7d5bd14f71427d1e84f3dd0314c0f7b2291e5b200ac8c7c3b92591835f52600d825260405f2060018060a01b0382165f5282528460405f205560405194855260018060a01b031693a3565b60405162461bcd60e51b81526020600482015260096024820152680617070726f766520360bc1b6044820152606490fd5b506001600160a01b0381161515612cc8565b600160025403612d745760028055565b60405162461bcd60e51b815260206004820152600a6024820152697265656e7472616e637960b01b6044820152606490fd5b915f9260018060a01b03811692835f52601860205260ff60405f205416158061399e575b612dd3906121ed565b835f52600a60205260ff60405f205416158061397c575b80613965575b80613943575b8061393a575b80613928575b6137a4575b60ff60115460a01c1680613790575b61350f575b831580156134fe575b610b5e578215610b5e57600f545f9081906001600160a01b03161515806134e2575b806134d3575b613460575b5050835f52600c60205260405f2054838110613431578390855f52600c6020520360405f2055828092601154908660018060a01b03831692831590811580613422575b806133e3575b15613373575050509160c09184612ec8946040519586948593849363252f15f560e01b8552600485016122b1565b03915afa9081156108e4575f915f905f905f905f945f91613349575b508515908115908161326a575b50841515806131dd575b8415159182613137575b9261312f575b508115613127575b50613085575b50506011546001600160a01b031692505050803b15613062579085808087946024604051809481936329a7724f60e21b83528b60048401525af1613066575b505060205f516020613cb25f395f51905f52915b60018060a01b031693848852600c825260408820612f8b8282546121e0565b9055604051908152a3604051612fa2604082612063565b60088152673a3930b739b332b960c11b602082015260405192612fc6602085612063565b8484526010546001600160a01b03169283612fe4575b505050505050565b833b156130625791858094926130386130219560405198899788968795630303c28760e61b8752600487015260806024870152608486019061209a565b91604485015260031984830301606485015261209a565b03925af161304a575b80808080612fdc565b613055828092612063565b61305f5780613041565b80fd5b8580fd5b819293509061307491612063565b613081578390855f612f58565b8480fd5b6001600160a01b03811661312157506016546001600160a01b0316925b6001600160a01b03811661311b57506016546001600160a01b0316915b6040805195865260208601919091528401526001600160a01b039081166060840152908116919083169086907f83f1070d5154c1ec6e9f656f98b1b6761035814eeba41c9ace66fd53f501e35c90608090a45f80808080612f19565b916130bf565b926130a2565b90505f612f13565b91505f612f0b565b996001600160a01b0388166131d7576016546001600160a01b03165b6001600160a01b031680156131a55761319f918f918f604084838c9652600c602052206131818582546121e0565b90555f516020613cb25f395f51905f526020604051868152a36121d3565b99612f05565b60405162461bcd60e51b815260206004820152600a602482015269065636f2073696e6b3d360b41b6044820152606490fd5b87613153565b986001600160a01b038416613264576016546001600160a01b03165b6001600160a01b0316801561322e5761322891818f8f90808b9560409252600c602052206131818582546121e0565b98612efb565b60405162461bcd60e51b815260206004820152600e60248201526d073616e6374756d2073696e6b3d360941b6044820152606490fd5b836131f9565b9098506001600160a01b03811661334457505f5b6001600160a01b03168061330e575061329986600b546121d3565b600b555f8a5f516020613cb25f395f51905f5260206040518a8152a35b6132c0868a6121d3565b6011549098906001600160a01b0316803b1561037c575f8091602460405180948193631bc9354160e21b83528d60048401525af115612ef157613306919c505f90612063565b5f9a5f612ef1565b805f52600c60205260405f206133258882546121e0565b90558a5f516020613cb25f395f51905f5260206040518a8152a36132b6565b61327e565b945050505050613368915060c03d60c0116123a6576123908183612063565b93929190935f612ee4565b91959450925060ff915060a81c1661339d575b5060205f516020613cb25f395f51905f5291612f6c565b9091506133ac5783905f613386565b60405162461bcd60e51b815260206004820152600f60248201526e1c9bdd5d195c881c995c5d5a5c9959608a1b6044820152606490fd5b50825f52601360205260ff60405f2054168015613401575b15612e9a565b506001600160a01b0387165f9081526013602052604090205460ff166133fb565b5061342b612226565b15612e94565b60405162461bcd60e51b815260206004820152600760248201526662616c616e636560c81b6044820152606490fd5b6001600160a01b038216151591826134c1575b508115613496575b50613487575f80612e51565b63b8e516c360e01b5f5260045ffd5b6001600160a01b03811615159150816134b1575b505f61347b565b6134bb9150613c07565b5f6134aa565b6134cc919250613c07565b905f613473565b506134dc612226565b15612e4c565b9150506134ee83613b85565b906134f883613b85565b90612e46565b506001600160a01b03811615612e24565b803b158061377e575b8061375c575b8061373a575b61365f575b83158015613649575b8015613633575b8015613624575b8015613615575b6001600160a01b038216801591908215613600575b82156135eb575b82156135d3575b82156135bb575b5081156135aa575b8115613599575b1561358a57612e1b575b63cd0d8b2160e01b5f5260045ffd5b90506135a482613aec565b90613580565b90506135b582613a6c565b90613579565b5f9081526014602052604081205460ff169250613571565b8092505f52601360205260ff60405f2054169161356a565b6017546001600160a01b031681149250613563565b6016546001600160a01b03168114925061355c565b5061361f82613aec565b613547565b5061362e82613a6c565b613540565b50835f52601460205260ff60405f205416613539565b50835f52601360205260ff60405f205416613532565b61366881613aec565b61352957600e5460405163e01fd21560e01b81526001600160a01b0383811660048301529091602091839160249183915f91165af15f91816136fe575b506136b95763cd0d8b2160e01b5f5260045ffd5b6136f9906040516136cb604082612063565b60128152711d985d5b1d17d85d5d1bd7d8dc99585d195960721b6020820152604051916113e5602084612063565b613529565b9091506020813d602011613732575b8161371a60209383612063565b8101031261037c5761372b9061225a565b905f6136a5565b3d915061370d565b506001600160a01b0381165f9081526014602052604090205460ff1615613524565b506001600160a01b0381165f9081526013602052604090205460ff161561351e565b506001600160a01b0381161515613518565b50600e546001600160a01b03161515612e16565b600354801515908161391e575b5061390f57600454806138d7575b50600554613834575b600654806137d7575b50612e07565b845f52600960205260405f205415159081613815575b5061380657835f5260096020524260405f20555f6137d1565b6301249b7160e01b5f5260045ffd5b61382c9150855f52600960205260405f20546121e0565b42105f6137ed565b620151804204845f5260086020526201518060405f205404811161389f575b50835f52600760205261386a8360405f20546121e0565b6005541061389057835f52600760205260405f206138898482546121e0565b90556137c8565b639ad5c1c760e01b5f5260045ffd5b845f5260076020525f6040812055620151808102908082046201518014901517156108ef57845f52600860205260405f20555f613853565b60018060a01b0382165f52600c6020526138f58460405f20546121e0565b11613900575f6137bf565b63f5cec06760e01b5f5260045ffd5b631ae2df0760e01b5f5260045ffd5b905083115f6137b1565b506001600160a01b0381161515612e02565b50831515612dfc565b506001600160a01b0381165f9081526013602052604090205460ff1615612df6565b50835f52601360205260ff60405f20541615612df0565b506001600160a01b0381165f908152600a602052604090205460ff1615612dea565b506001600160a01b0381165f9081526018602052604090205460ff1615612dca565b6010546001600160a01b0316806139d8575b50505050565b803b1561037c575f9283613a1b93613a3360405197889687958694630303c28760e61b865260018060a01b0316600486015260806024860152608485019061209a565b9084604485015260031984830301606485015261209a565b03925af1613a44575b8080806139d2565b5f613a4e91612063565b5f613a3c565b9081602091031261037c5751801515810361037c5790565b600e546001600160a01b03169081156124545760405163652b9b4160e01b81526001600160a01b03909116600482015290602090829060249082905afa5f9181613abb575b506122ae57505f90565b613ade91925060203d602011613ae5575b613ad68183612063565b810190613a54565b905f613ab1565b503d613acc565b600e546001600160a01b031690811561245457604051630709df4560e01b81526001600160a01b03909116600482015290602090829060249082905afa5f9181613b49575b50613b3b57505f90565b6001600160a01b0316151590565b9091506020813d602011613b7d575b81613b6560209383612063565b8101031261037c57613b769061225a565b905f613b31565b3d9150613b58565b600e546001600160a01b031690811561245457604051630709df4560e01b81526001600160a01b03909116600482015290602090829060249082905afa9081156108e4575f91613bd3575090565b90506020813d602011613bff575b81613bee60209383612063565b8101031261037c576122ae9061225a565b3d9150613be1565b600f54604051631293efbb60e21b602082019081526001600160a01b0393841660248084019190915282525f9384931691613c43604482612063565b51915afa3d15613ca9573d906001600160401b0382116120865760405191613c75601f8201601f191660200184612063565b82523d5f602084013e5b158015613c9e575b61244f57806020806122ae93518301019101613a54565b506020815110613c87565b606090613c7f56feddf252ad1be2c89b69c2b068fc378daa952ba7f163c4a11628f55a4df523b3ef6e71edae12b1b97f4d1f60370fef10105fa2faae0126114a169c64845d6126c9a2646970667358221220d43a78571cf51acb20614934c2ababe25e811c7590158499df12161d4328390764736f6c634300081e0033ddf252ad1be2c89b69c2b068fc378daa952ba7f163c4a11628f55a4df523b3ef","linkReferences":{}},"methodIdentifiers":{"DEV_RESERVE_SUPPLY()":"99e793a0","DOMAIN_SEPARATOR()":"3644e515","FREEZE_DELAY()":"d7ae8942","MAX_CIRCUIT_BREAKER_DURATION()":"b6927497","MAX_SUPPLY()":"32cb6b0c","PERMIT_TYPEHASH()":"30adf81f","PRESALE_CAP()":"bd94fafc","TEST_expose_transfer(address,address,uint256)":"573458e5","TEST_exposed_mint(address,uint256)":"bae82f75","acceptOwnership()":"79ba5097","allowance(address,address)":"dd62ed3e","approve(address,uint256)":"095ea7b3","balanceOf(address)":"70a08231","burnRouter()":"6c32b2ec","canTransfer(address,address,uint256)":"e46638e6","cancelOwnershipTransfer()":"23452b9c","circuitBreaker()":"16efd941","circuitBreakerExpiry()":"22a7caf5","cooldownRemaining(address)":"9d82190f","dailyResetTime(address)":"30e76684","dailyTransferLimit()":"f714af6f","dailyTransferred(address)":"79036e90","decimals()":"313ce567","decreaseAllowance(address,uint256)":"a457c2d7","freezeTime(address)":"ac41d299","getDailyTransferStats(address)":"9dac0641","getTransferLimitsFor(address)":"198803b1","increaseAllowance(address,uint256)":"39509351","isBlacklisted(address)":"fe575a87","isCircuitBreakerActive()":"32941ecb","isFrozen(address)":"e5839836","lastTransferTime(address)":"0d2d8a31","ledger()":"56397c35","lockPolicy()":"9a03f224","maxTransferAmount()":"a9e75723","maxWalletBalance()":"bbde77c1","name()":"06fdde03","nonces(address)":"7ecebe00","owner()":"8da5cb5b","pendingOwner()":"e30c3978","permit(address,address,uint256,uint256,uint8,bytes32,bytes32)":"d505accf","policyLocked()":"748ada52","presaleContract()":"63d9df85","previewTransferFees(address,address,uint256)":"50140c06","remainingDailyLimit(address)":"f497e873","sanctumSink()":"beeeb4ce","securityHub()":"b72d2943","setAntiWhale(uint256,uint256,uint256,uint256)":"3c2f9fe4","setBlacklist(address,bool)":"153b0d1e","setBurnRouter(address)":"1dc4b09c","setCircuitBreaker(bool,uint256)":"fa037766","setFrozen(address,bool)":"ac869cd8","setLedger(address)":"3246887d","setSanctumSink(address)":"b55e3f3a","setSecurityHub(address)":"55545fb0","setSystemExempt(address,bool)":"6336f3ac","setTreasurySink(address)":"a34857cd","setVaultHub(address)":"0741206e","setVaultOnly(bool)":"c4b740f5","setWhaleLimitExempt(address,bool)":"13d1ad08","setWhitelist(address,bool)":"53d6fd59","symbol()":"95d89b41","systemExempt(address)":"d6b54735","totalSupply()":"18160ddd","transfer(address,uint256)":"a9059cbb","transferCooldown()":"68f16293","transferFrom(address,address,uint256)":"23b872dd","transferOwnership(address)":"f2fde38b","treasurySink()":"8bea4f2d","vaultHub()":"6dd6e80b","vaultOnly()":"06e0c52c","whaleLimitExempt(address)":"7adc723d","whitelisted(address)":"d936547e"},"id":100}