{"abi":[{"type":"constructor","inputs":[{"name":"devReserveVestingVault","type":"address","internalType":"address"},{"name":"presaleContract","type":"address","internalType":"address"},{"name":"treasury","type":"address","internalType":"address"},{"name":"vaultHub","type":"address","internalType":"address"},{"name":"ledger","type":"address","internalType":"address"},{"name":"treasurySink","type":"address","internalType":"address"}],"stateMutability":"nonpayable"},{"type":"function","name":"DEV_RESERVE_SUPPLY","inputs":[],"outputs":[{"name":"","type":"uint256","internalType":"uint256"}],"stateMutability":"view"},{"type":"function","name":"DOMAIN_SEPARATOR","inputs":[],"outputs":[{"name":"","type":"bytes32","internalType":"bytes32"}],"stateMutability":"view"},{"type":"function","name":"MAX_CIRCUIT_BREAKER_DURATION","inputs":[],"outputs":[{"name":"","type":"uint256","internalType":"uint256"}],"stateMutability":"view"},{"type":"function","name":"MAX_SUPPLY","inputs":[],"outputs":[{"name":"","type":"uint256","internalType":"uint256"}],"stateMutability":"view"},{"type":"function","name":"PERMIT_TYPEHASH","inputs":[],"outputs":[{"name":"","type":"bytes32","internalType":"bytes32"}],"stateMutability":"view"},{"type":"function","name":"PRESALE_CAP","inputs":[],"outputs":[{"name":"","type":"uint256","internalType":"uint256"}],"stateMutability":"view"},{"type":"function","name":"TEST_expose_transfer","inputs":[{"name":"from","type":"address","internalType":"address"},{"name":"to","type":"address","internalType":"address"},{"name":"amount","type":"uint256","internalType":"uint256"}],"outputs":[],"stateMutability":"nonpayable"},{"type":"function","name":"TEST_exposed_mint","inputs":[{"name":"to","type":"address","internalType":"address"},{"name":"amount","type":"uint256","internalType":"uint256"}],"outputs":[],"stateMutability":"nonpayable"},{"type":"function","name":"acceptOwnership","inputs":[],"outputs":[],"stateMutability":"nonpayable"},{"type":"function","name":"allowance","inputs":[{"name":"owner_","type":"address","internalType":"address"},{"name":"spender","type":"address","internalType":"address"}],"outputs":[{"name":"","type":"uint256","internalType":"uint256"}],"stateMutability":"view"},{"type":"function","name":"approve","inputs":[{"name":"spender","type":"address","internalType":"address"},{"name":"amount","type":"uint256","internalType":"uint256"}],"outputs":[{"name":"","type":"bool","internalType":"bool"}],"stateMutability":"nonpayable"},{"type":"function","name":"balanceOf","inputs":[{"name":"account","type":"address","internalType":"address"}],"outputs":[{"name":"","type":"uint256","internalType":"uint256"}],"stateMutability":"view"},{"type":"function","name":"burnRouter","inputs":[],"outputs":[{"name":"","type":"address","internalType":"contract IProofScoreBurnRouterToken"}],"stateMutability":"view"},{"type":"function","name":"canTransfer","inputs":[{"name":"from","type":"address","internalType":"address"},{"name":"to","type":"address","internalType":"address"},{"name":"amount","type":"uint256","internalType":"uint256"}],"outputs":[{"name":"canDo","type":"bool","internalType":"bool"},{"name":"reason","type":"string","internalType":"string"}],"stateMutability":"view"},{"type":"function","name":"cancelOwnershipTransfer","inputs":[],"outputs":[],"stateMutability":"nonpayable"},{"type":"function","name":"circuitBreaker","inputs":[],"outputs":[{"name":"","type":"bool","internalType":"bool"}],"stateMutability":"view"},{"type":"function","name":"circuitBreakerExpiry","inputs":[],"outputs":[{"name":"","type":"uint256","internalType":"uint256"}],"stateMutability":"view"},{"type":"function","name":"cooldownRemaining","inputs":[{"name":"account","type":"address","internalType":"address"}],"outputs":[{"name":"","type":"uint256","internalType":"uint256"}],"stateMutability":"view"},{"type":"function","name":"dailyResetTime","inputs":[{"name":"","type":"address","internalType":"address"}],"outputs":[{"name":"","type":"uint256","internalType":"uint256"}],"stateMutability":"view"},{"type":"function","name":"dailyTransferLimit","inputs":[],"outputs":[{"name":"","type":"uint256","internalType":"uint256"}],"stateMutability":"view"},{"type":"function","name":"dailyTransferred","inputs":[{"name":"","type":"address","internalType":"address"}],"outputs":[{"name":"","type":"uint256","internalType":"uint256"}],"stateMutability":"view"},{"type":"function","name":"decimals","inputs":[],"outputs":[{"name":"","type":"uint8","internalType":"uint8"}],"stateMutability":"view"},{"type":"function","name":"decreaseAllowance","inputs":[{"name":"spender","type":"address","internalType":"address"},{"name":"subtracted","type":"uint256","internalType":"uint256"}],"outputs":[{"name":"","type":"bool","internalType":"bool"}],"stateMutability":"nonpayable"},{"type":"function","name":"getDailyTransferStats","inputs":[{"name":"user","type":"address","internalType":"address"}],"outputs":[{"name":"transferred","type":"uint256","internalType":"uint256"},{"name":"limit","type":"uint256","internalType":"uint256"},{"name":"remaining","type":"uint256","internalType":"uint256"},{"name":"resetTime","type":"uint256","internalType":"uint256"},{"name":"nextResetTime","type":"uint256","internalType":"uint256"}],"stateMutability":"view"},{"type":"function","name":"getTransferLimitsFor","inputs":[{"name":"account","type":"address","internalType":"address"}],"outputs":[{"name":"maxPerTransfer","type":"uint256","internalType":"uint256"},{"name":"maxWallet","type":"uint256","internalType":"uint256"},{"name":"dailyLimit","type":"uint256","internalType":"uint256"},{"name":"dailyRemaining","type":"uint256","internalType":"uint256"},{"name":"cooldownSecs","type":"uint256","internalType":"uint256"},{"name":"cooldownRemain","type":"uint256","internalType":"uint256"},{"name":"isExempt","type":"bool","internalType":"bool"}],"stateMutability":"view"},{"type":"function","name":"increaseAllowance","inputs":[{"name":"spender","type":"address","internalType":"address"},{"name":"added","type":"uint256","internalType":"uint256"}],"outputs":[{"name":"","type":"bool","internalType":"bool"}],"stateMutability":"nonpayable"},{"type":"function","name":"isBlacklisted","inputs":[{"name":"","type":"address","internalType":"address"}],"outputs":[{"name":"","type":"bool","internalType":"bool"}],"stateMutability":"view"},{"type":"function","name":"isCircuitBreakerActive","inputs":[],"outputs":[{"name":"","type":"bool","internalType":"bool"}],"stateMutability":"view"},{"type":"function","name":"lastTransferTime","inputs":[{"name":"","type":"address","internalType":"address"}],"outputs":[{"name":"","type":"uint256","internalType":"uint256"}],"stateMutability":"view"},{"type":"function","name":"ledger","inputs":[],"outputs":[{"name":"","type":"address","internalType":"contract IProofLedger"}],"stateMutability":"view"},{"type":"function","name":"lockPolicy","inputs":[],"outputs":[],"stateMutability":"nonpayable"},{"type":"function","name":"maxTransferAmount","inputs":[],"outputs":[{"name":"","type":"uint256","internalType":"uint256"}],"stateMutability":"view"},{"type":"function","name":"maxWalletBalance","inputs":[],"outputs":[{"name":"","type":"uint256","internalType":"uint256"}],"stateMutability":"view"},{"type":"function","name":"name","inputs":[],"outputs":[{"name":"","type":"string","internalType":"string"}],"stateMutability":"view"},{"type":"function","name":"nonces","inputs":[{"name":"","type":"address","internalType":"address"}],"outputs":[{"name":"","type":"uint256","internalType":"uint256"}],"stateMutability":"view"},{"type":"function","name":"owner","inputs":[],"outputs":[{"name":"","type":"address","internalType":"address"}],"stateMutability":"view"},{"type":"function","name":"pendingOwner","inputs":[],"outputs":[{"name":"","type":"address","internalType":"address"}],"stateMutability":"view"},{"type":"function","name":"permit","inputs":[{"name":"owner","type":"address","internalType":"address"},{"name":"spender","type":"address","internalType":"address"},{"name":"value","type":"uint256","internalType":"uint256"},{"name":"deadline","type":"uint256","internalType":"uint256"},{"name":"v","type":"uint8","internalType":"uint8"},{"name":"r","type":"bytes32","internalType":"bytes32"},{"name":"s","type":"bytes32","internalType":"bytes32"}],"outputs":[],"stateMutability":"nonpayable"},{"type":"function","name":"policyLocked","inputs":[],"outputs":[{"name":"","type":"bool","internalType":"bool"}],"stateMutability":"view"},{"type":"function","name":"presaleContract","inputs":[],"outputs":[{"name":"","type":"address","internalType":"address"}],"stateMutability":"view"},{"type":"function","name":"previewTransferFees","inputs":[{"name":"from","type":"address","internalType":"address"},{"name":"to","type":"address","internalType":"address"},{"name":"amount","type":"uint256","internalType":"uint256"}],"outputs":[{"name":"burnAmount","type":"uint256","internalType":"uint256"},{"name":"sanctumAmount","type":"uint256","internalType":"uint256"},{"name":"ecosystemAmount","type":"uint256","internalType":"uint256"},{"name":"netReceived","type":"uint256","internalType":"uint256"}],"stateMutability":"view"},{"type":"function","name":"remainingDailyLimit","inputs":[{"name":"account","type":"address","internalType":"address"}],"outputs":[{"name":"","type":"uint256","internalType":"uint256"}],"stateMutability":"view"},{"type":"function","name":"sanctumSink","inputs":[],"outputs":[{"name":"","type":"address","internalType":"address"}],"stateMutability":"view"},{"type":"function","name":"securityHub","inputs":[],"outputs":[{"name":"","type":"address","internalType":"contract ISecurityHub"}],"stateMutability":"view"},{"type":"function","name":"setAntiWhale","inputs":[{"name":"_maxTransfer","type":"uint256","internalType":"uint256"},{"name":"_maxWallet","type":"uint256","internalType":"uint256"},{"name":"_dailyLimit","type":"uint256","internalType":"uint256"},{"name":"_cooldown","type":"uint256","internalType":"uint256"}],"outputs":[],"stateMutability":"nonpayable"},{"type":"function","name":"setBlacklist","inputs":[{"name":"user","type":"address","internalType":"address"},{"name":"status","type":"bool","internalType":"bool"}],"outputs":[],"stateMutability":"nonpayable"},{"type":"function","name":"setBurnRouter","inputs":[{"name":"router","type":"address","internalType":"address"}],"outputs":[],"stateMutability":"nonpayable"},{"type":"function","name":"setCircuitBreaker","inputs":[{"name":"_active","type":"bool","internalType":"bool"},{"name":"_duration","type":"uint256","internalType":"uint256"}],"outputs":[],"stateMutability":"nonpayable"},{"type":"function","name":"setLedger","inputs":[{"name":"_ledger","type":"address","internalType":"address"}],"outputs":[],"stateMutability":"nonpayable"},{"type":"function","name":"setSanctumSink","inputs":[{"name":"_sanctum","type":"address","internalType":"address"}],"outputs":[],"stateMutability":"nonpayable"},{"type":"function","name":"setSecurityHub","inputs":[{"name":"hub","type":"address","internalType":"address"}],"outputs":[],"stateMutability":"nonpayable"},{"type":"function","name":"setSystemExempt","inputs":[{"name":"who","type":"address","internalType":"address"},{"name":"isExempt","type":"bool","internalType":"bool"}],"outputs":[],"stateMutability":"nonpayable"},{"type":"function","name":"setTreasurySink","inputs":[{"name":"sink","type":"address","internalType":"address"}],"outputs":[],"stateMutability":"nonpayable"},{"type":"function","name":"setVaultHub","inputs":[{"name":"hub","type":"address","internalType":"address"}],"outputs":[],"stateMutability":"nonpayable"},{"type":"function","name":"setVaultOnly","inputs":[{"name":"enabled","type":"bool","internalType":"bool"}],"outputs":[],"stateMutability":"nonpayable"},{"type":"function","name":"setWhaleLimitExempt","inputs":[{"name":"addr","type":"address","internalType":"address"},{"name":"exempt","type":"bool","internalType":"bool"}],"outputs":[],"stateMutability":"nonpayable"},{"type":"function","name":"setWhitelist","inputs":[{"name":"addr","type":"address","internalType":"address"},{"name":"status","type":"bool","internalType":"bool"}],"outputs":[],"stateMutability":"nonpayable"},{"type":"function","name":"symbol","inputs":[],"outputs":[{"name":"","type":"string","internalType":"string"}],"stateMutability":"view"},{"type":"function","name":"systemExempt","inputs":[{"name":"","type":"address","internalType":"address"}],"outputs":[{"name":"","type":"bool","internalType":"bool"}],"stateMutability":"view"},{"type":"function","name":"totalSupply","inputs":[],"outputs":[{"name":"","type":"uint256","internalType":"uint256"}],"stateMutability":"view"},{"type":"function","name":"transfer","inputs":[{"name":"to","type":"address","internalType":"address"},{"name":"amount","type":"uint256","internalType":"uint256"}],"outputs":[{"name":"","type":"bool","internalType":"bool"}],"stateMutability":"nonpayable"},{"type":"function","name":"transferCooldown","inputs":[],"outputs":[{"name":"","type":"uint256","internalType":"uint256"}],"stateMutability":"view"},{"type":"function","name":"transferFrom","inputs":[{"name":"from","type":"address","internalType":"address"},{"name":"to","type":"address","internalType":"address"},{"name":"amount","type":"uint256","internalType":"uint256"}],"outputs":[{"name":"","type":"bool","internalType":"bool"}],"stateMutability":"nonpayable"},{"type":"function","name":"transferOwnership","inputs":[{"name":"newOwner","type":"address","internalType":"address"}],"outputs":[],"stateMutability":"nonpayable"},{"type":"function","name":"treasurySink","inputs":[],"outputs":[{"name":"","type":"address","internalType":"address"}],"stateMutability":"view"},{"type":"function","name":"vaultHub","inputs":[],"outputs":[{"name":"","type":"address","internalType":"contract IVaultHub"}],"stateMutability":"view"},{"type":"function","name":"vaultOnly","inputs":[],"outputs":[{"name":"","type":"bool","internalType":"bool"}],"stateMutability":"view"},{"type":"function","name":"whaleLimitExempt","inputs":[{"name":"","type":"address","internalType":"address"}],"outputs":[{"name":"","type":"bool","internalType":"bool"}],"stateMutability":"view"},{"type":"function","name":"whitelisted","inputs":[{"name":"","type":"address","internalType":"address"}],"outputs":[{"name":"","type":"bool","internalType":"bool"}],"stateMutability":"view"},{"type":"event","name":"AntiWhaleSet","inputs":[{"name":"maxTransfer","type":"uint256","indexed":false,"internalType":"uint256"},{"name":"maxWallet","type":"uint256","indexed":false,"internalType":"uint256"},{"name":"dailyLimit","type":"uint256","indexed":false,"internalType":"uint256"},{"name":"cooldown","type":"uint256","indexed":false,"internalType":"uint256"}],"anonymous":false},{"type":"event","name":"Approval","inputs":[{"name":"owner","type":"address","indexed":true,"internalType":"address"},{"name":"spender","type":"address","indexed":true,"internalType":"address"},{"name":"value","type":"uint256","indexed":false,"internalType":"uint256"}],"anonymous":false},{"type":"event","name":"BlacklistSet","inputs":[{"name":"user","type":"address","indexed":true,"internalType":"address"},{"name":"status","type":"bool","indexed":false,"internalType":"bool"},{"name":"setBy","type":"address","indexed":true,"internalType":"address"}],"anonymous":false},{"type":"event","name":"BurnRouterSet","inputs":[{"name":"router","type":"address","indexed":true,"internalType":"address"}],"anonymous":false},{"type":"event","name":"CircuitBreakerSet","inputs":[{"name":"active","type":"bool","indexed":false,"internalType":"bool"},{"name":"expiry","type":"uint256","indexed":false,"internalType":"uint256"}],"anonymous":false},{"type":"event","name":"ExemptSet","inputs":[{"name":"target","type":"address","indexed":true,"internalType":"address"},{"name":"exempt","type":"bool","indexed":false,"internalType":"bool"}],"anonymous":false},{"type":"event","name":"FeeApplied","inputs":[{"name":"from","type":"address","indexed":true,"internalType":"address"},{"name":"to","type":"address","indexed":true,"internalType":"address"},{"name":"burnAmount","type":"uint256","indexed":false,"internalType":"uint256"},{"name":"sanctumAmount","type":"uint256","indexed":false,"internalType":"uint256"},{"name":"ecosystemAmount","type":"uint256","indexed":false,"internalType":"uint256"},{"name":"sanctumSink","type":"address","indexed":true,"internalType":"address"},{"name":"ecosystemSink","type":"address","indexed":false,"internalType":"address"}],"anonymous":false},{"type":"event","name":"LedgerSet","inputs":[{"name":"ledger","type":"address","indexed":true,"internalType":"address"}],"anonymous":false},{"type":"event","name":"OwnershipTransferStarted","inputs":[{"name":"previousOwner","type":"address","indexed":true,"internalType":"address"},{"name":"newOwner","type":"address","indexed":true,"internalType":"address"}],"anonymous":false},{"type":"event","name":"OwnershipTransferred","inputs":[{"name":"previousOwner","type":"address","indexed":true,"internalType":"address"},{"name":"newOwner","type":"address","indexed":true,"internalType":"address"}],"anonymous":false},{"type":"event","name":"PolicyLocked","inputs":[],"anonymous":false},{"type":"event","name":"PresaleContractSet","inputs":[{"name":"presale","type":"address","indexed":true,"internalType":"address"}],"anonymous":false},{"type":"event","name":"SanctumSinkSet","inputs":[{"name":"sink","type":"address","indexed":true,"internalType":"address"}],"anonymous":false},{"type":"event","name":"SecurityHubSet","inputs":[{"name":"hub","type":"address","indexed":true,"internalType":"address"}],"anonymous":false},{"type":"event","name":"SystemExemptSet","inputs":[{"name":"who","type":"address","indexed":true,"internalType":"address"},{"name":"isExempt","type":"bool","indexed":false,"internalType":"bool"}],"anonymous":false},{"type":"event","name":"Transfer","inputs":[{"name":"from","type":"address","indexed":true,"internalType":"address"},{"name":"to","type":"address","indexed":true,"internalType":"address"},{"name":"value","type":"uint256","indexed":false,"internalType":"uint256"}],"anonymous":false},{"type":"event","name":"TreasurySinkSet","inputs":[{"name":"sink","type":"address","indexed":true,"internalType":"address"}],"anonymous":false},{"type":"event","name":"VaultHubSet","inputs":[{"name":"hub","type":"address","indexed":true,"internalType":"address"}],"anonymous":false},{"type":"event","name":"VaultOnlySet","inputs":[{"name":"enabled","type":"bool","indexed":false,"internalType":"bool"}],"anonymous":false},{"type":"event","name":"WhaleLimitExemptSet","inputs":[{"name":"addr","type":"address","indexed":true,"internalType":"address"},{"name":"exempt","type":"bool","indexed":false,"internalType":"bool"}],"anonymous":false},{"type":"event","name":"Whitelisted","inputs":[{"name":"addr","type":"address","indexed":true,"internalType":"address"},{"name":"status","type":"bool","indexed":false,"internalType":"bool"}],"anonymous":false},{"type":"error","name":"Token_NotVault","inputs":[]},{"type":"error","name":"VF_CAP","inputs":[]},{"type":"error","name":"VF_DailyLimitExceeded","inputs":[]},{"type":"error","name":"VF_LOCKED","inputs":[]},{"type":"error","name":"VF_MaxTransferExceeded","inputs":[]},{"type":"error","name":"VF_MaxWalletExceeded","inputs":[]},{"type":"error","name":"VF_POLICY_LOCKED","inputs":[]},{"type":"error","name":"VF_TransferCooldown","inputs":[]},{"type":"error","name":"VF_ZERO","inputs":[]}],"bytecode":{"object":"0x608080604052346105795760c0816142ad803803809161001f82856106b0565b83398101031261057957610032816106e7565b9061003f602082016106e7565b61004b604083016106e7565b610057606084016106e7565b61006f60a0610068608087016106e7565b95016106e7565b5f80546001600160a01b0319163390811782556040519792917f8be0079c531659141344cd1fd0a4f28419497f9722a3daafe3b4186f6b6457e08180a360016002556a01a784379d99db420000006003556a034f086f3b33b6840000006004556a0422ca8b0a00a4250000006005555f60068190556011805462ffffff60a01b1916600160a01b1790556012556001600160a01b0382169081156106a1576001600160a01b0386169485156106a1576001600160a01b03169788156106a157833b1561066a5750853b1561063157610438966103a2946001600160a01b0316806105f5575b506001600160a01b0316806105b9575b506001600160a01b03168061057d575b508360018060a01b03196015541617601555835f52601360205260405f20600160ff19825416179055837f44f2eda14b8ba74d08291fccb7fe6e96b0188538fb528966e0d02a84713f290d6020604051837f7188527286b7c8f39703bf108a472dc431dec1ab5e61b363c3ebb1f35ef67af15f80a260018152a2805f52600a60205260405f20600160ff19825416179055835f52600a60205260405f20600160ff19825416179055865f52600a60205260405f20600160ff198254161790556040516102416040826106b0565b600b81526a2b2324a222902a37b5b2b760a91b602090910152604080517f4ce082c216934f45765aa52f1d82612cdb513a49760946798ca41165309f978c9161028a90826106b0565b600181526020810190603160f81b82525190206040519060208201927f8b73c3c69bb8fe3d512ecc4cf759cc79239f7b179b0ffacaa9a75d522b39400f8452604083015260608201524660808201523060a082015260a081526102ee60c0826106b0565b5190206019556aa56fa5b99019a5c8000000600b55805f52600c6020526a295be96e6406697200000060405f20555f5f51602061428d5f395f51905f5260206040516a295be96e640669720000008152a360405161034d6040826106b0565b601381527f7072656d696e745f6465765f72657365727665000000000000000000000000006020820152604051916103866040846106b0565b600a8352690d4c13481b1bd8dad95960b21b602084015261071f565b805f52600c6020526a295be96e6406697200000060405f20555f5f51602061428d5f395f51905f5260206040516a295be96e640669720000008152a36040516103ec6040826106b0565b600f81526e7072656d696e745f70726573616c6560881b6020820152604051916104176040846106b0565b600f83526e35304d20666f722070726573616c6560881b602084015261071f565b805f52600c6020526a52b7d2dcc80cd2e400000060405f2055805f5f51602061428d5f395f51905f5260206040516a52b7d2dcc80cd2e40000008152a36040516104836040826106b0565b601081526f7072656d696e745f747265617375727960801b6020820152604051916104af6040846106b0565b601383527f3130304d20666f72206f7065726174696f6e730000000000000000000000000060208401526010546001600160a01b0316806104fa575b604051613ace90816107bf8239f35b803b15610579575f92836105359361055860405197889687958694630303c28760e61b865260048601526080602486015260848501906106fb565b6a52b7d2dcc80cd2e40000006044850152838103600319016064850152906106fb565b03925af1610569575b8080806104eb565b5f610573916106b0565b5f610561565b5f80fd5b601680546001600160a01b031916821790557f3f2254a28ba18b54180672b4e5f33b7cbe996e44be5c1ebe9057f49e894cde315f80a25f610174565b601080546001600160a01b031916821790557fbc62e69a31739e36d57d56991ac20e4e507a7edfff9070e6a11df5a37b8b4e6f5f80a25f610164565b600e80546001600160a01b031916821790557fbb3d89b3025a50f5b3f9fc1bfe23194ad7fb05af4e31ab293af4a947960954d55f80a25f610154565b60405162461bcd60e51b81526020600482015260116024820152701c1c995cd85b19480858dbdb9d1c9858dd607a1b6044820152606490fd5b62461bcd60e51b815260206004820152601260248201527119195d95985d5b1d080858dbdb9d1c9858dd60721b6044820152606490fd5b63ebeb59ad60e01b5f5260045ffd5b601f909101601f19168101906001600160401b038211908210176106d357604052565b634e487b7160e01b5f52604160045260245ffd5b51906001600160a01b038216820361057957565b805180835260209291819084018484015e5f828201840152601f01601f1916010190565b6010546001600160a01b031680610737575b50505050565b803b15610579575f928361077a9361079d60405197889687958694630303c28760e61b865260018060a01b031660048601526080602486015260848501906106fb565b6a295be96e640669720000006044850152838103600319016064850152906106fb565b03925af16107ae575b808080610731565b5f6107b8916106b0565b5f6107a656fe6080806040526004361015610012575f80fd5b5f3560e01c90816306e0c52c14611e2d5750806306fdde0314611de05780630741206e14611d45578063095ea7b314611d1f5780630d2d8a3114611ce757806313d1ad0814611c6a578063153b0d1e14611beb57806316efd94114611bc657806318160ddd14611ba9578063198803b114611a0d5780631dc4b09c1461195557806322a7caf51461193857806323452b9c1461190e57806323b872dd1461186a57806330adf81f1461183057806330e76684146117f8578063313ce567146117dd5780633246887d1461174c57806332941ecb1461172857806332cb6b0c146117035780633644e515146116e6578063395093511461169f5780633c2f9fe4146114c657806350140c061461148a57806353d6fd591461139057806355545fb0146112f957806356397c35146112d1578063573458e5146112ba5780636336f3ac146111c157806363d9df851461119957806368f162931461117c5780636c32b2ec146111545780636dd6e80b1461112c57806370a08231146110f4578063748ada52146110cf57806379036e901461109757806379ba509714610ff05780637adc723d14610fb35780637ecebe0014610f7b5780638bea4f2d14610f535780638da5cb5b14610f2c57806395d89b4114610ee557806399e793a014610a425780639a03f22414610e665780639d82190f14610e435780639dac064114610e00578063a34857cd14610d44578063a457c2d714610cab578063a9059cbb14610c6d578063a9e7572314610c50578063b55e3f3a14610b51578063b692749714610b34578063b72d294314610b0c578063bae82f7514610a64578063bbde77c114610a47578063bd94fafc14610a42578063beeeb4ce14610a1a578063c4b740f514610920578063d505accf146106cd578063d6b5473514610690578063d936547e14610653578063dd62ed3e14610603578063e30c3978146105db578063e46638e6146105a1578063f2fde38b146104fb578063f497e873146104d0578063f714af6f146104b3578063fa037766146103545763fe575a8714610313575f80fd5b34610350576020366003190112610350576001600160a01b03610334611ea9565b165f526018602052602060ff60405f2054166040519015158152f35b5f80fd5b346103505760403660031901126103505761036d611ee4565b6024356103786129b7565b811561049c578015158061048f575b15610453576011805460ff60b01b1916600160b01b1790556103a99042611f9e565b6012555b7f04593f08e7dc4a4b3442a0009dff46944620bf6c71bde4a1fa3724b7d6bfe09e604060125481519084151582526020820152a11561041d5761041b6040516103f7604082611e4f565b601281527131b4b931bab4ba2fb13932b0b5b2b92fb7b760711b6020820152612a00565b005b61041b60405161042e604082611e4f565b601381527231b4b931bab4ba2fb13932b0b5b2b92fb7b33360691b6020820152612a00565b60405162461bcd60e51b81526020600482015260146024820152732b231d1034b73b30b634b210323ab930ba34b7b760611b6044820152606490fd5b5062093a80811115610387565b506011805460ff60b01b191690555f6012556103ad565b34610350575f366003190112610350576020600554604051908152f35b346103505760203660031901126103505760206104f36104ee611ea9565b612951565b604051908152f35b3461035057602036600319011261035057610514611ea9565b61051c6129b7565b6001600160a01b0316801561057057600180546001600160a01b031916821790555f80546001600160a01b0316907f38d16b8cac22d99fc7c124b9cd0de2d3fa1faef420bfe791d8c362d765e227009080a3005b60405162461bcd60e51b81526020600482015260096024820152684f574e3a207a65726f60b81b6044820152606490fd5b34610350576105b86105b236611ef3565b916122ed565b906105d760405192839215158352604060208401526040830190611e85565b0390f35b34610350575f366003190112610350576001546040516001600160a01b039091168152602090f35b346103505760403660031901126103505761061c611ea9565b610624611ebf565b6001600160a01b039182165f908152600d60209081526040808320949093168252928352819020549051908152f35b34610350576020366003190112610350576001600160a01b03610674611ea9565b165f526014602052602060ff60405f2054166040519015158152f35b34610350576020366003190112610350576001600160a01b036106b1611ea9565b165f526013602052602060ff60405f2054166040519015158152f35b346103505760e0366003190112610350576106e6611ea9565b6106ee611ebf565b604435906064356084359060ff8216809203610350578042116108db5762278d004201908142116108825711610896576001600160a01b0384165f818152601a602052604090208054919291905f198214610882576020928260809260015f95019055604051858101917f6e71edae12b1b97f4d1f60370fef10105fa2faae0126114a169c64845d6126c9835287604083015260018060a01b0389166060830152898583015260a082015260a081526107a860c082611e4f565b51902060195490604051908682019261190160f01b845260228301526042820152604281526107d8606282611e4f565b519020906040519182528482015260a435604082015260c435606082015282805260015afa15610877575f516001600160a01b031680151591908261086d575b5050156108285761041b92612a6c565b60405162461bcd60e51b815260206004820152601860248201527f56464944453a20696e76616c6964207369676e617475726500000000000000006044820152606490fd5b1490508480610818565b6040513d5f823e3d90fd5b634e487b7160e01b5f52601160045260245ffd5b60405162461bcd60e51b815260206004820152601760248201527f56464944453a20646561646c696e6520746f6f206661720000000000000000006044820152606490fd5b60405162461bcd60e51b815260206004820152601760248201527f56464944453a206578706972656420646561646c696e650000000000000000006044820152606490fd5b3461035057602036600319011261035057610939611ee4565b6109416129b7565b60115460ff8160a81c1680610a12575b610a035760ff60a01b191681151560a081901b60ff60a01b16919091176011556040519081527fc700a08714659bf8ab2121ea3f1f64e22835cf102ad9ba5d0816e55a23f6ea2c90602090a1156109d25761041b6040516109b3604082611e4f565b600d81526c3b30bab63a2fb7b7363cafb7b760991b6020820152612a00565b61041b6040516109e3604082611e4f565b600e81526d3b30bab63a2fb7b7363cafb7b33360911b6020820152612a00565b63015c1ff360e51b5f5260045ffd5b508115610951565b34610350575f366003190112610350576017546040516001600160a01b039091168152602090f35b611f2d565b34610350575f366003190112610350576020600454604051908152f35b3461035057604036600319011261035057610a7d611ea9565b6001600160a01b03166024358115610afd57600b54906aa56fa5b99019a5c8000000610aa98284611f9e565b11610aee57602081610aca5f516020613a795f395f51905f52935f95611f9e565b600b55848452600c825260408420610ae3828254611f9e565b9055604051908152a3005b63d65d418b60e01b5f5260045ffd5b63ebeb59ad60e01b5f5260045ffd5b34610350575f36600319011261035057600f546040516001600160a01b039091168152602090f35b34610350575f36600319011261035057602060405162093a808152f35b3461035057602036600319011261035057610b6a611ea9565b610b726129b7565b60ff60115460a81c16610bfd575b6001600160a01b0316610b94811515611f52565b601780546001600160a01b031916821790557fe99cdf96738a4659f820a0890f65abe82cce94da951e032d7abe61e5687ba2525f80a261041b604051610bdb604082611e4f565b601081526f1cd85b98dd1d5b57dcda5b9ad7dcd95d60821b6020820152612a00565b6001600160a01b038116610b805760405162461bcd60e51b815260206004820152601f60248201527f56463a2063616e6e6f7420736574207a65726f207768656e206c6f636b6564006044820152606490fd5b34610350575f366003190112610350576020600354604051908152f35b3461035057604036600319011261035057610c9b610c89611ea9565b610c91612b1b565b6024359033612b5d565b6001600255602060405160018152f35b3461035057604036600319011261035057610cc4611ea9565b60243590335f52600d60205260405f2060018060a01b0382165f5260205260405f2054828110610d0d57610d0292610cfb91611f91565b9033612a6c565b602060405160018152f35b60405162461bcd60e51b815260206004820152600f60248201526e616c6c6f7720756e646572666c6f7760881b6044820152606490fd5b3461035057602036600319011261035057610d5d611ea9565b610d656129b7565b60ff60115460a81c1680610def575b610a0357601680546001600160a01b0319166001600160a01b039290921691821790557f3f2254a28ba18b54180672b4e5f33b7cbe996e44be5c1ebe9057f49e894cde315f80a261041b604051610dcc604082611e4f565b60118152701d1c99585cdd5c9e57dcda5b9ad7dcd95d607a1b6020820152612a00565b506001600160a01b03811615610d74565b346103505760203660031901126103505760a0610e23610e1e611ea9565b6121fd565b926040929192519485526020850152604084015260608301526080820152f35b346103505760203660031901126103505760206104f3610e61611ea9565b6121a1565b34610350575f36600319011261035057610e7e6129b7565b6011805460ff60a81b1916600160a81b1790557f3ce392d8aa0912d44ce27fbdd025b988ec76fd2b53f0ab8b479ed539069d2b345f80a161041b604051610ec6604082611e4f565b600d81526c1c1bdb1a58de57db1bd8dad959609a1b6020820152612a00565b34610350575f366003190112610350576105d7604051610f06604082611e4f565b6005815264564649444560d81b6020820152604051918291602083526020830190611e85565b34610350575f366003190112610350575f546040516001600160a01b039091168152602090f35b34610350575f366003190112610350576016546040516001600160a01b039091168152602090f35b34610350576020366003190112610350576001600160a01b03610f9c611ea9565b165f52601a602052602060405f2054604051908152f35b34610350576020366003190112610350576001600160a01b03610fd4611ea9565b165f52600a602052602060ff60405f2054166040519015158152f35b34610350575f366003190112610350576001546001600160a01b0381163303611059575f543360018060a01b0382167f8be0079c531659141344cd1fd0a4f28419497f9722a3daafe3b4186f6b6457e05f80a36001600160a01b031990811633175f5516600155005b60405162461bcd60e51b815260206004820152601660248201527527aba71d103737ba103832b73234b7339037bbb732b960511b6044820152606490fd5b34610350576020366003190112610350576001600160a01b036110b8611ea9565b165f526007602052602060405f2054604051908152f35b34610350575f36600319011261035057602060ff60115460a81c166040519015158152f35b34610350576020366003190112610350576001600160a01b03611115611ea9565b165f52600c602052602060405f2054604051908152f35b34610350575f36600319011261035057600e546040516001600160a01b039091168152602090f35b34610350575f366003190112610350576011546040516001600160a01b039091168152602090f35b34610350575f366003190112610350576020600654604051908152f35b34610350575f366003190112610350576015546040516001600160a01b039091168152602090f35b346103505760403660031901126103505761041b6111dd611ea9565b6111e5611ed5565b6111ed6129b7565b6001600160a01b038216611202811515611f52565b805f5260136020526112238260405f209060ff801983541691151516179055565b7f44f2eda14b8ba74d08291fccb7fe6e96b0188538fb528966e0d02a84713f290d60206040518415158152a21561129057604051611262604082611e4f565b600981526832bc32b6b83a2fb7b760b91b60208201525b60405191611288602084611e4f565b5f8352613786565b60405161129e604082611e4f565b600a81526932bc32b6b83a2fb7b33360b11b6020820152611279565b346103505761041b6112cb36611ef3565b91612b5d565b34610350575f366003190112610350576010546040516001600160a01b039091168152602090f35b3461035057602036600319011261035057611312611ea9565b61131a6129b7565b600f80546001600160a01b0319166001600160a01b039290921691821790557fd15414d216acba4fd6e41103922663a24e3ac895d383ad66e7be0c48115d5b1e5f80a261041b60405161136e604082611e4f565b601081526f1cd958dd5c9a5d1e57da1d5897dcd95d60821b6020820152612a00565b346103505760403660031901126103505761041b6113ac611ea9565b6113b4611ed5565b6113bc6129b7565b6001600160a01b0382166113d1811515611f52565b805f5260146020526113f28260405f209060ff801983541691151516179055565b7fa54714518c5d275fdcd3d2a461e4858e4e8cb04fb93cd0bca9d6d34115f2644060206040518415158152a21561145a57604051611431604082611e4f565b600d81526c1dda1a5d195b1a5cdd17d85919609a1b602082015260405191611288602084611e4f565b604051611468604082611e4f565b601081526f77686974656c6973745f72656d6f766560801b6020820152611279565b34610350576105d76114a461149e36611ef3565b9161206f565b6040805194855260208501939093529183015260608201529081906080820190565b34610350576080366003190112610350576064356024356004356044356114eb6129b7565b8161165d575b8261161b575b806115d9575b83611594575b7fdd527915e4785ab4e44c56581b4895b2cf4ce1414470508ea4a3d00623fba9149361155c9183600355846004558060055581600655604051948594859094939260609260808301968352602083015260408201520152565b0390a161041b604051611570604082611e4f565b6012815271185b9d1a57ddda185b1957dd5c19185d195960721b6020820152612a00565b610e108411156115035760405162461bcd60e51b815260206004820152601360248201527236b0bc1018903437bab91031b7b7b63237bbb760691b6044820152606490fd5b6969e10de76676d08000008110156114fd5760405162461bcd60e51b81526020600482015260086024820152676d696e203530306b60c01b6044820152606490fd5b692a5a058fc295ed0000008310156114f75760405162461bcd60e51b81526020600482015260086024820152676d696e203230306b60c01b6044820152606490fd5b69152d02c7e14af68000008210156114f15760405162461bcd60e51b81526020600482015260086024820152676d696e203130306b60c01b6044820152606490fd5b3461035057604036600319011261035057610d026116bb611ea9565b335f52600d60205260405f2060018060a01b0382165f52602052610cfb60405f206024359054611f9e565b34610350575f366003190112610350576020601954604051908152f35b34610350575f3660031901126103505760206040516aa56fa5b99019a5c80000008152f35b34610350575f366003190112610350576020611742611fe4565b6040519015158152f35b3461035057602036600319011261035057611765611ea9565b61176d6129b7565b601080546001600160a01b0319166001600160a01b039290921691821790557fbc62e69a31739e36d57d56991ac20e4e507a7edfff9070e6a11df5a37b8b4e6f5f80a261041b6040516117c1604082611e4f565b600a8152691b195919d95c97dcd95d60b21b6020820152612a00565b34610350575f36600319011261035057602060405160128152f35b34610350576020366003190112610350576001600160a01b03611819611ea9565b165f526008602052602060405f2054604051908152f35b34610350575f3660031901126103505760206040517f6e71edae12b1b97f4d1f60370fef10105fa2faae0126114a169c64845d6126c98152f35b346103505761187836611ef3565b90611881612b1b565b335f52601860205261189a60ff60405f20541615611fab565b6001600160a01b0383165f908152600d60209081526040808320338452909152902054928284106118e1576118dc6118d584610c9b96611f91565b3383612a6c565b612b5d565b60405162461bcd60e51b8152602060048201526005602482015264616c6c6f7760d81b6044820152606490fd5b34610350575f366003190112610350576119266129b7565b600180546001600160a01b0319169055005b34610350575f366003190112610350576020601254604051908152f35b346103505760203660031901126103505761196e611ea9565b6119766129b7565b6011549060ff8260a81c16806119fc575b610a03576001600160a01b03166001600160a01b03199190911681176011557faf9b9a8ca16be293d721c9b992abdb79c8c7a18ed68c393cc10deeaf4b2f99775f80a261041b6040516119db604082611e4f565b600f81526e189d5c9b97dc9bdd5d195c97dcd95d608a1b6020820152612a00565b506001600160a01b03811615611987565b346103505760203660031901126103505760e0611a28611ea9565b6001600160a01b03165f818152600a602052604090205460ff16908115611b91575b8115611a8257505f19905f808380805b604051968752602087015260408601526060850152608084015260a0830152151560c0820152f35b6003549091908015611b89575b6004549092908015611b81575b9060055480151590815f14611b7a57805b9115611b7157825f5260086020526201518060405f205404620151804204115f14611b3857905b6006549283151580611b23575b15611b1b575f526009602052611afb8360405f2054611f9e565b428111611b0b57505f5b93611a5a565b611b16904290611f91565b611b05565b505f93611a5a565b50805f52600960205260405f20541515611ae1565b5f838152600760205260409020548111611b5457505f90611ad4565b611b6b90835f52600760205260405f205490611f91565b90611ad4565b505f1990611ad4565b5f19611aad565b505f19611a9c565b505f19611a8f565b8091505f52601360205260ff60405f20541690611a4a565b34610350575f366003190112610350576020600b54604051908152f35b34610350575f36600319011261035057602060ff60115460b01c166040519015158152f35b3461035057604036600319011261035057611c04611ea9565b611c0c611ed5565b90611c156129b7565b6001600160a01b03165f818152601860205260409020805460ff191660ff8415151617905560405191151582527f4edd9bb92fa41bc25fb64fc24645bea26691eff97f54d2db5362a3f986c188e960203393a3005b3461035057604036600319011261035057611c83611ea9565b7fe355751d29baf3bbcbfb4f9db660bfdf038ac8076722a3cb9ed1807250c1f7b06020611cae611ed5565b92611cb76129b7565b6001600160a01b03165f818152600a835260409020805460ff191660ff86151516179055926040519015158152a2005b34610350576020366003190112610350576001600160a01b03611d08611ea9565b165f526009602052602060405f2054604051908152f35b3461035057604036600319011261035057610d02611d3b611ea9565b6024359033612a6c565b3461035057602036600319011261035057611d5e611ea9565b611d666129b7565b6001600160a01b0316611d7a811515611f52565b600e80546001600160a01b031916821790557fbb3d89b3025a50f5b3f9fc1bfe23194ad7fb05af4e31ab293af4a947960954d55f80a261041b604051611dc1604082611e4f565b600d81526c1d985d5b1d17da1d5897dcd95d609a1b6020820152612a00565b34610350575f366003190112610350576105d7604051611e01604082611e4f565b600b81526a2b2324a222902a37b5b2b760a91b6020820152604051918291602083526020830190611e85565b34610350575f3660031901126103505760209060ff60115460a01c1615158152f35b90601f8019910116810190811067ffffffffffffffff821117611e7157604052565b634e487b7160e01b5f52604160045260245ffd5b805180835260209291819084018484015e5f828201840152601f01601f1916010190565b600435906001600160a01b038216820361035057565b602435906001600160a01b038216820361035057565b60243590811515820361035057565b60043590811515820361035057565b6060906003190112610350576004356001600160a01b038116810361035057906024356001600160a01b0381168103610350579060443590565b34610350575f3660031901126103505760206040516a295be96e640669720000008152f35b15611f5957565b60405162461bcd60e51b815260206004820152601060248201526f56463a207a65726f206164647265737360801b6044820152606490fd5b9190820391821161088257565b9190820180921161088257565b15611fb257565b60405162461bcd60e51b815260206004820152600a60248201526914d85b98dd1a5bdb995960b21b6044820152606490fd5b60ff60115460b01c161561200957601254801515908161200d575b5061200957600190565b5f90565b90504210155f611fff565b51906001600160a01b038216820361035057565b91908260c09103126103505781519160208101519160408201519161205360608201612018565b9161206c60a061206560808501612018565b9301612018565b90565b9092919260018060a01b0382165f5260136020528360ff60405f205416801561217d575b801561216a575b801561215c575b6121505760115460405163252f15f560e01b81526001600160a01b03948516600482015292841660248401526044830191909152909160c09183916064918391165afa918215610877575f925f925f91612111575b508061210c61206c929461210c81978099611f91565b611f91565b905061206c935061213b91925060c03d60c011612149575b6121338183611e4f565b81019061202c565b5050509291939092906120f6565b503d612129565b5050505f915f915f9190565b50612165611fe4565b6120a1565b506011546001600160a01b03161561209a565b50506001600160a01b0381165f90815260136020526040902054849060ff16612093565b6006549081156121f7576001600160a01b03165f81815260096020526040902054909190156121f7576121df915f52600960205260405f2054611f9e565b804210156121f25761206c904290611f91565b505f90565b50505f90565b6001600160a01b03165f818152600a602052604090205490919060ff1680156122d7575b6122c9576005549062015180420492805f5260086020526201518060405f205404908185115f146122795750505f92829162015180820291808304620151801490151715610882576201518082018083116108825790565b5f9081526007602052604090205493508284106122ba575f5b9162015180820291808304620151801490151715610882576201518082018083116108825790565b6122c48484611f91565b612292565b5f91505f1990819083908190565b50815f52601360205260ff60405f205416612221565b6001600160a01b0381165f818152601860205260409020549293919260ff1661291b576001600160a01b0384165f8181526018602052604090205490929060ff166128e157815f52600c6020528060405f2054106128a857815f52600a60205260ff60405f2054161580612891575b8061287a575b80612863575b8061285a575b80612851575b612662575b5060ff60115460a01c168061264e575b6124af575b5050600f546001600160a01b03161515806124a0575b6123c2575b50506001906040516123bc602082611e4f565b5f815290565b6123ce6123d49161394b565b9161394b565b906001600160a01b03811615159081612490575b50612459576001600160a01b03811615159081612449575b5061240c575f806123a9565b5f9060405161241c604082611e4f565b601981527f526563697069656e74207661756c74206973206c6f636b656400000000000000602082015290565b61245391506139cd565b5f612400565b505f9060405161246a604082611e4f565b601681527514d95b99195c881d985d5b1d081a5cc81b1bd8dad95960521b602082015290565b61249a91506139cd565b5f6123e8565b506124a9611fe4565b156123a4565b8015908115612636575b811561261f575b508015612610575b8015612601575b81159182156125ec575b82156125d7575b82156125bf575b82156125a7575b508115612596575b8115612585575b1561254d571561250e575f8061238e565b50505f90604051612520604082611e4f565b601881527f526563697069656e74206d75737420757365207661756c740000000000000000602082015290565b5050505f90604051612560604082611e4f565b601581527414d95b99195c881b5d5cdd081d5cd9481d985d5b1d605a1b602082015290565b9050612590836138b2565b906124fd565b90506125a183613832565b906124f6565b5f9081526014602052604081205460ff1692506124ee565b8092505f52601360205260ff60405f205416916124e7565b6017546001600160a01b0316811492506124e0565b6016546001600160a01b0316811492506124d9565b5061260b826138b2565b6124cf565b5061261a82613832565b6124c8565b90505f52601460205260ff60405f2054165f6124c0565b8091505f52601360205260ff60405f205416906124b9565b50600e546001600160a01b03161515612389565b6003548015159081612847575b506128055760045480151590816127e6575b506127a457600554908161271b575b505060065480151580612706575b15612379576126b990825f52600960205260405f2054611f9e565b42106126c5575f612379565b505050505f906040516126d9604082611e4f565b601881527f5472616e7366657220636f6f6c646f776e206163746976650000000000000000602082015290565b50815f52600960205260405f2054151561269e565b825f52600760205260405f205490835f5260086020526201518060405f2054046201518042041461274d575b50612690565b61275691611f9e565b11612763575f8080612747565b505050505f90604051612777604082611e4f565b601c81527f45786365656473206461696c79207472616e73666572206c696d697400000000602082015290565b50505050505f906040516127b9604082611e4f565b601a81527f45786365656473206d61782077616c6c65742062616c616e6365000000000000602082015290565b9050835f52600c6020526127fe8260405f2054611f9e565b115f612681565b50505050505f9060405161281a604082611e4f565b601b81527f45786365656473206d6178207472616e7366657220616d6f756e740000000000602082015290565b905081115f61266f565b50821515612374565b5081151561236e565b50825f52601360205260ff60405f20541615612368565b50815f52601360205260ff60405f20541615612362565b50825f52600a60205260ff60405f2054161561235c565b50505050505f906040516128bd604082611e4f565b6014815273496e73756666696369656e742062616c616e636560601b602082015290565b50505050505f906040516128f6604082611e4f565b6015815274149958da5c1a595b9d08189b1858dadb1a5cdd1959605a1b602082015290565b505050505f9060405161292f604082611e4f565b601281527114d95b99195c88189b1858dadb1a5cdd195960721b602082015290565b6005549081156129b05760018060a01b031690815f5260086020526201518060405f205404620151804204116129ab57815f5260076020528060405f205410156121f75761206c915f52600760205260405f205490611f91565b905090565b50505f1990565b5f546001600160a01b031633036129ca57565b60405162461bcd60e51b815260206004820152600e60248201526d27aba71d103737ba1037bbb732b960911b6044820152606490fd5b6010546001600160a01b031680612a15575050565b803b1561035057604051633ddd61ab60e21b815230600482015260606024820152915f918391829084908290612a4f906064830190611e85565b33604483015203925af1612a605750565b5f612a6a91611e4f565b565b6001600160a01b03169081151580612b09575b15612ad85760207f8c5be1e5ebec7d5bd14f71427d1e84f3dd0314c0f7b2291e5b200ac8c7c3b92591835f52600d825260405f2060018060a01b0382165f5282528460405f205560405194855260018060a01b031693a3565b60405162461bcd60e51b81526020600482015260096024820152680617070726f766520360bc1b6044820152606490fd5b506001600160a01b0381161515612a7f565b600160025403612b2b5760028055565b60405162461bcd60e51b815260206004820152600a6024820152697265656e7472616e637960b01b6044820152606490fd5b915f9260018060a01b03811692835f52601860205260ff60405f2054161580613764575b612b8a90611fab565b835f52600a60205260ff60405f2054161580613742575b8061372b575b80613709575b80613700575b806136ee575b61356a575b60ff60115460a01c1680613556575b6132d5575b831580156132c4575b610afd578215610afd57600f545f9081906001600160a01b03161515806132a8575b80613299575b613226575b5050835f52600c60205260405f20548381106131f7578390855f52600c6020520360405f2055828092601154908660018060a01b038316928315908115806131e8575b806131a9575b1561313957505060405163252f15f560e01b81526001600160a01b039283166004820152918516602483015250604481019290925260c090829060649082905afa908115610877575f915f905f905f905f945f9161310f575b5085159081159081613030575b5084151580612fa3575b8415159182612efd575b92612ef5575b508115612eed575b50612e4b575b50506011546001600160a01b031692505050803b15612e28579085808087946024604051809481936329a7724f60e21b83528b60048401525af1612e2c575b505060205f516020613a795f395f51905f52915b60018060a01b031693848852600c825260408820612d51828254611f9e565b9055604051908152a3604051612d68604082611e4f565b60088152673a3930b739b332b960c11b602082015260405192612d8c602085611e4f565b8484526010546001600160a01b03169283612daa575b505050505050565b833b15612e28579185809492612dfe612de79560405198899788968795630303c28760e61b87526004870152608060248701526084860190611e85565b916044850152600319848303016064850152611e85565b03925af1612e10575b80808080612da2565b612e1b828092611e4f565b612e255780612e07565b80fd5b8580fd5b8192935090612e3a91611e4f565b612e47578390855f612d1e565b8480fd5b6001600160a01b038116612ee757506016546001600160a01b0316925b6001600160a01b038116612ee157506016546001600160a01b0316915b6040805195865260208601919091528401526001600160a01b039081166060840152908116919083169086907f83f1070d5154c1ec6e9f656f98b1b6761035814eeba41c9ace66fd53f501e35c90608090a45f80808080612cdf565b91612e85565b92612e68565b90505f612cd9565b91505f612cd1565b996001600160a01b038816612f9d576016546001600160a01b03165b6001600160a01b03168015612f6b57612f65918f918f604084838c9652600c60205220612f47858254611f9e565b90555f516020613a795f395f51905f526020604051868152a3611f91565b99612ccb565b60405162461bcd60e51b815260206004820152600a602482015269065636f2073696e6b3d360b41b6044820152606490fd5b87612f19565b986001600160a01b03841661302a576016546001600160a01b03165b6001600160a01b03168015612ff457612fee91818f8f90808b9560409252600c60205220612f47858254611f9e565b98612cc1565b60405162461bcd60e51b815260206004820152600e60248201526d073616e6374756d2073696e6b3d360941b6044820152606490fd5b83612fbf565b9098506001600160a01b03811661310a57505f5b6001600160a01b0316806130d4575061305f86600b54611f91565b600b555f8a5f516020613a795f395f51905f5260206040518a8152a35b613086868a611f91565b6011549098906001600160a01b0316803b15610350575f8091602460405180948193631bc9354160e21b83528d60048401525af115612cb7576130cc919c505f90611e4f565b5f9a5f612cb7565b805f52600c60205260405f206130eb888254611f9e565b90558a5f516020613a795f395f51905f5260206040518a8152a361307c565b613044565b94505050505061312e915060c03d60c011612149576121338183611e4f565b93929190935f612caa565b91959450925060ff915060a81c16613163575b5060205f516020613a795f395f51905f5291612d32565b9091506131725783905f61314c565b60405162461bcd60e51b815260206004820152600f60248201526e1c9bdd5d195c881c995c5d5a5c9959608a1b6044820152606490fd5b50825f52601360205260ff60405f20541680156131c7575b15612c51565b506001600160a01b0387165f9081526013602052604090205460ff166131c1565b506131f1611fe4565b15612c4b565b60405162461bcd60e51b815260206004820152600760248201526662616c616e636560c81b6044820152606490fd5b6001600160a01b03821615159182613287575b50811561325c575b5061324d575f80612c08565b63b8e516c360e01b5f5260045ffd5b6001600160a01b0381161515915081613277575b505f613241565b61328191506139cd565b5f613270565b6132929192506139cd565b905f613239565b506132a2611fe4565b15612c03565b9150506132b48361394b565b906132be8361394b565b90612bfd565b506001600160a01b03811615612bdb565b803b1580613544575b80613522575b80613500575b613425575b8315801561340f575b80156133f9575b80156133ea575b80156133db575b6001600160a01b0382168015919082156133c6575b82156133b1575b8215613399575b8215613381575b508115613370575b811561335f575b1561335057612bd2575b63cd0d8b2160e01b5f5260045ffd5b905061336a826138b2565b90613346565b905061337b82613832565b9061333f565b5f9081526014602052604081205460ff169250613337565b8092505f52601360205260ff60405f20541691613330565b6017546001600160a01b031681149250613329565b6016546001600160a01b031681149250613322565b506133e5826138b2565b61330d565b506133f482613832565b613306565b50835f52601460205260ff60405f2054166132ff565b50835f52601360205260ff60405f2054166132f8565b61342e816138b2565b6132ef57600e5460405163e01fd21560e01b81526001600160a01b0383811660048301529091602091839160249183915f91165af15f91816134c4575b5061347f5763cd0d8b2160e01b5f5260045ffd5b6134bf90604051613491604082611e4f565b60128152711d985d5b1d17d85d5d1bd7d8dc99585d195960721b602082015260405191611288602084611e4f565b6132ef565b9091506020813d6020116134f8575b816134e060209383611e4f565b81010312610350576134f190612018565b905f61346b565b3d91506134d3565b506001600160a01b0381165f9081526014602052604090205460ff16156132ea565b506001600160a01b0381165f9081526013602052604090205460ff16156132e4565b506001600160a01b03811615156132de565b50600e546001600160a01b03161515612bcd565b60035480151590816136e4575b506136d5576004548061369d575b506005546135fa575b6006548061359d575b50612bbe565b845f52600960205260405f2054151590816135db575b506135cc57835f5260096020524260405f20555f613597565b6301249b7160e01b5f5260045ffd5b6135f29150855f52600960205260405f2054611f9e565b42105f6135b3565b620151804204845f5260086020526201518060405f2054048111613665575b50835f5260076020526136308360405f2054611f9e565b6005541061365657835f52600760205260405f2061364f848254611f9e565b905561358e565b639ad5c1c760e01b5f5260045ffd5b845f5260076020525f60408120556201518081029080820462015180149015171561088257845f52600860205260405f20555f613619565b60018060a01b0382165f52600c6020526136bb8460405f2054611f9e565b116136c6575f613585565b63f5cec06760e01b5f5260045ffd5b631ae2df0760e01b5f5260045ffd5b905083115f613577565b506001600160a01b0381161515612bb9565b50831515612bb3565b506001600160a01b0381165f9081526013602052604090205460ff1615612bad565b50835f52601360205260ff60405f20541615612ba7565b506001600160a01b0381165f908152600a602052604090205460ff1615612ba1565b506001600160a01b0381165f9081526018602052604090205460ff1615612b81565b6010546001600160a01b03168061379e575b50505050565b803b15610350575f92836137e1936137f960405197889687958694630303c28760e61b865260018060a01b03166004860152608060248601526084850190611e85565b90846044850152600319848303016064850152611e85565b03925af161380a575b808080613798565b5f61381491611e4f565b5f613802565b90816020910312610350575180151581036103505790565b600e546001600160a01b03169081156121f75760405163652b9b4160e01b81526001600160a01b03909116600482015290602090829060249082905afa5f9181613881575b5061206c57505f90565b6138a491925060203d6020116138ab575b61389c8183611e4f565b81019061381a565b905f613877565b503d613892565b600e546001600160a01b03169081156121f757604051630709df4560e01b81526001600160a01b03909116600482015290602090829060249082905afa5f918161390f575b5061390157505f90565b6001600160a01b0316151590565b9091506020813d602011613943575b8161392b60209383611e4f565b810103126103505761393c90612018565b905f6138f7565b3d915061391e565b600e546001600160a01b03169081156121f757604051630709df4560e01b81526001600160a01b03909116600482015290602090829060249082905afa908115610877575f91613999575090565b90506020813d6020116139c5575b816139b460209383611e4f565b810103126103505761206c90612018565b3d91506139a7565b600f54604051631293efbb60e21b602082019081526001600160a01b0393841660248084019190915282525f9384931691613a09604482611e4f565b51915afa3d15613a70573d9067ffffffffffffffff8211611e715760405191613a3c601f8201601f191660200184611e4f565b82523d5f602084013e5b158015613a65575b6121f2578060208061206c9351830101910161381a565b506020815110613a4e565b606090613a4656feddf252ad1be2c89b69c2b068fc378daa952ba7f163c4a11628f55a4df523b3efa2646970667358221220339ea64c713039faa825ef60a66f77aa30f8f89b82828332e21efb88ba5b319c64736f6c634300081e0033ddf252ad1be2c89b69c2b068fc378daa952ba7f163c4a11628f55a4df523b3ef","linkReferences":{}},"methodIdentifiers":{"DEV_RESERVE_SUPPLY()":"99e793a0","DOMAIN_SEPARATOR()":"3644e515","MAX_CIRCUIT_BREAKER_DURATION()":"b6927497","MAX_SUPPLY()":"32cb6b0c","PERMIT_TYPEHASH()":"30adf81f","PRESALE_CAP()":"bd94fafc","TEST_expose_transfer(address,address,uint256)":"573458e5","TEST_exposed_mint(address,uint256)":"bae82f75","acceptOwnership()":"79ba5097","allowance(address,address)":"dd62ed3e","approve(address,uint256)":"095ea7b3","balanceOf(address)":"70a08231","burnRouter()":"6c32b2ec","canTransfer(address,address,uint256)":"e46638e6","cancelOwnershipTransfer()":"23452b9c","circuitBreaker()":"16efd941","circuitBreakerExpiry()":"22a7caf5","cooldownRemaining(address)":"9d82190f","dailyResetTime(address)":"30e76684","dailyTransferLimit()":"f714af6f","dailyTransferred(address)":"79036e90","decimals()":"313ce567","decreaseAllowance(address,uint256)":"a457c2d7","getDailyTransferStats(address)":"9dac0641","getTransferLimitsFor(address)":"198803b1","increaseAllowance(address,uint256)":"39509351","isBlacklisted(address)":"fe575a87","isCircuitBreakerActive()":"32941ecb","lastTransferTime(address)":"0d2d8a31","ledger()":"56397c35","lockPolicy()":"9a03f224","maxTransferAmount()":"a9e75723","maxWalletBalance()":"bbde77c1","name()":"06fdde03","nonces(address)":"7ecebe00","owner()":"8da5cb5b","pendingOwner()":"e30c3978","permit(address,address,uint256,uint256,uint8,bytes32,bytes32)":"d505accf","policyLocked()":"748ada52","presaleContract()":"63d9df85","previewTransferFees(address,address,uint256)":"50140c06","remainingDailyLimit(address)":"f497e873","sanctumSink()":"beeeb4ce","securityHub()":"b72d2943","setAntiWhale(uint256,uint256,uint256,uint256)":"3c2f9fe4","setBlacklist(address,bool)":"153b0d1e","setBurnRouter(address)":"1dc4b09c","setCircuitBreaker(bool,uint256)":"fa037766","setLedger(address)":"3246887d","setSanctumSink(address)":"b55e3f3a","setSecurityHub(address)":"55545fb0","setSystemExempt(address,bool)":"6336f3ac","setTreasurySink(address)":"a34857cd","setVaultHub(address)":"0741206e","setVaultOnly(bool)":"c4b740f5","setWhaleLimitExempt(address,bool)":"13d1ad08","setWhitelist(address,bool)":"53d6fd59","symbol()":"95d89b41","systemExempt(address)":"d6b54735","totalSupply()":"18160ddd","transfer(address,uint256)":"a9059cbb","transferCooldown()":"68f16293","transferFrom(address,address,uint256)":"23b872dd","transferOwnership(address)":"f2fde38b","treasurySink()":"8bea4f2d","vaultHub()":"6dd6e80b","vaultOnly()":"06e0c52c","whaleLimitExempt(address)":"7adc723d","whitelisted(address)":"d936547e"},"id":95}