{"abi":[{"type":"constructor","inputs":[{"name":"devReserveVestingVault","type":"address","internalType":"address"},{"name":"presaleContract","type":"address","internalType":"address"},{"name":"treasury","type":"address","internalType":"address"},{"name":"vaultHub","type":"address","internalType":"address"},{"name":"ledger","type":"address","internalType":"address"},{"name":"treasurySink","type":"address","internalType":"address"}],"stateMutability":"nonpayable"},{"type":"function","name":"DEV_RESERVE_SUPPLY","inputs":[],"outputs":[{"name":"","type":"uint256","internalType":"uint256"}],"stateMutability":"view"},{"type":"function","name":"DOMAIN_SEPARATOR","inputs":[],"outputs":[{"name":"","type":"bytes32","internalType":"bytes32"}],"stateMutability":"view"},{"type":"function","name":"MAX_CIRCUIT_BREAKER_DURATION","inputs":[],"outputs":[{"name":"","type":"uint256","internalType":"uint256"}],"stateMutability":"view"},{"type":"function","name":"MAX_SUPPLY","inputs":[],"outputs":[{"name":"","type":"uint256","internalType":"uint256"}],"stateMutability":"view"},{"type":"function","name":"PERMIT_TYPEHASH","inputs":[],"outputs":[{"name":"","type":"bytes32","internalType":"bytes32"}],"stateMutability":"view"},{"type":"function","name":"PRESALE_CAP","inputs":[],"outputs":[{"name":"","type":"uint256","internalType":"uint256"}],"stateMutability":"view"},{"type":"function","name":"TEST_expose_transfer","inputs":[{"name":"from","type":"address","internalType":"address"},{"name":"to","type":"address","internalType":"address"},{"name":"amount","type":"uint256","internalType":"uint256"}],"outputs":[],"stateMutability":"nonpayable"},{"type":"function","name":"TEST_exposed_mint","inputs":[{"name":"to","type":"address","internalType":"address"},{"name":"amount","type":"uint256","internalType":"uint256"}],"outputs":[],"stateMutability":"nonpayable"},{"type":"function","name":"acceptOwnership","inputs":[],"outputs":[],"stateMutability":"nonpayable"},{"type":"function","name":"allowance","inputs":[{"name":"owner_","type":"address","internalType":"address"},{"name":"spender","type":"address","internalType":"address"}],"outputs":[{"name":"","type":"uint256","internalType":"uint256"}],"stateMutability":"view"},{"type":"function","name":"approve","inputs":[{"name":"spender","type":"address","internalType":"address"},{"name":"amount","type":"uint256","internalType":"uint256"}],"outputs":[{"name":"","type":"bool","internalType":"bool"}],"stateMutability":"nonpayable"},{"type":"function","name":"balanceOf","inputs":[{"name":"account","type":"address","internalType":"address"}],"outputs":[{"name":"","type":"uint256","internalType":"uint256"}],"stateMutability":"view"},{"type":"function","name":"burnRouter","inputs":[],"outputs":[{"name":"","type":"address","internalType":"contract IProofScoreBurnRouterToken"}],"stateMutability":"view"},{"type":"function","name":"canTransfer","inputs":[{"name":"from","type":"address","internalType":"address"},{"name":"to","type":"address","internalType":"address"},{"name":"amount","type":"uint256","internalType":"uint256"}],"outputs":[{"name":"canDo","type":"bool","internalType":"bool"},{"name":"reason","type":"string","internalType":"string"}],"stateMutability":"view"},{"type":"function","name":"cancelOwnershipTransfer","inputs":[],"outputs":[],"stateMutability":"nonpayable"},{"type":"function","name":"circuitBreaker","inputs":[],"outputs":[{"name":"","type":"bool","internalType":"bool"}],"stateMutability":"view"},{"type":"function","name":"circuitBreakerExpiry","inputs":[],"outputs":[{"name":"","type":"uint256","internalType":"uint256"}],"stateMutability":"view"},{"type":"function","name":"cooldownRemaining","inputs":[{"name":"account","type":"address","internalType":"address"}],"outputs":[{"name":"","type":"uint256","internalType":"uint256"}],"stateMutability":"view"},{"type":"function","name":"dailyResetTime","inputs":[{"name":"","type":"address","internalType":"address"}],"outputs":[{"name":"","type":"uint256","internalType":"uint256"}],"stateMutability":"view"},{"type":"function","name":"dailyTransferLimit","inputs":[],"outputs":[{"name":"","type":"uint256","internalType":"uint256"}],"stateMutability":"view"},{"type":"function","name":"dailyTransferred","inputs":[{"name":"","type":"address","internalType":"address"}],"outputs":[{"name":"","type":"uint256","internalType":"uint256"}],"stateMutability":"view"},{"type":"function","name":"decimals","inputs":[],"outputs":[{"name":"","type":"uint8","internalType":"uint8"}],"stateMutability":"view"},{"type":"function","name":"decreaseAllowance","inputs":[{"name":"spender","type":"address","internalType":"address"},{"name":"subtracted","type":"uint256","internalType":"uint256"}],"outputs":[{"name":"","type":"bool","internalType":"bool"}],"stateMutability":"nonpayable"},{"type":"function","name":"getDailyTransferStats","inputs":[{"name":"user","type":"address","internalType":"address"}],"outputs":[{"name":"transferred","type":"uint256","internalType":"uint256"},{"name":"limit","type":"uint256","internalType":"uint256"},{"name":"remaining","type":"uint256","internalType":"uint256"},{"name":"resetTime","type":"uint256","internalType":"uint256"},{"name":"nextResetTime","type":"uint256","internalType":"uint256"}],"stateMutability":"view"},{"type":"function","name":"getTransferLimitsFor","inputs":[{"name":"account","type":"address","internalType":"address"}],"outputs":[{"name":"maxPerTransfer","type":"uint256","internalType":"uint256"},{"name":"maxWallet","type":"uint256","internalType":"uint256"},{"name":"dailyLimit","type":"uint256","internalType":"uint256"},{"name":"dailyRemaining","type":"uint256","internalType":"uint256"},{"name":"cooldownSecs","type":"uint256","internalType":"uint256"},{"name":"cooldownRemain","type":"uint256","internalType":"uint256"},{"name":"isExempt","type":"bool","internalType":"bool"}],"stateMutability":"view"},{"type":"function","name":"increaseAllowance","inputs":[{"name":"spender","type":"address","internalType":"address"},{"name":"added","type":"uint256","internalType":"uint256"}],"outputs":[{"name":"","type":"bool","internalType":"bool"}],"stateMutability":"nonpayable"},{"type":"function","name":"isBlacklisted","inputs":[{"name":"","type":"address","internalType":"address"}],"outputs":[{"name":"","type":"bool","internalType":"bool"}],"stateMutability":"view"},{"type":"function","name":"isCircuitBreakerActive","inputs":[],"outputs":[{"name":"","type":"bool","internalType":"bool"}],"stateMutability":"view"},{"type":"function","name":"lastTransferTime","inputs":[{"name":"","type":"address","internalType":"address"}],"outputs":[{"name":"","type":"uint256","internalType":"uint256"}],"stateMutability":"view"},{"type":"function","name":"ledger","inputs":[],"outputs":[{"name":"","type":"address","internalType":"contract IProofLedger"}],"stateMutability":"view"},{"type":"function","name":"lockPolicy","inputs":[],"outputs":[],"stateMutability":"nonpayable"},{"type":"function","name":"maxTransferAmount","inputs":[],"outputs":[{"name":"","type":"uint256","internalType":"uint256"}],"stateMutability":"view"},{"type":"function","name":"maxWalletBalance","inputs":[],"outputs":[{"name":"","type":"uint256","internalType":"uint256"}],"stateMutability":"view"},{"type":"function","name":"name","inputs":[],"outputs":[{"name":"","type":"string","internalType":"string"}],"stateMutability":"view"},{"type":"function","name":"nonces","inputs":[{"name":"","type":"address","internalType":"address"}],"outputs":[{"name":"","type":"uint256","internalType":"uint256"}],"stateMutability":"view"},{"type":"function","name":"owner","inputs":[],"outputs":[{"name":"","type":"address","internalType":"address"}],"stateMutability":"view"},{"type":"function","name":"pendingOwner","inputs":[],"outputs":[{"name":"","type":"address","internalType":"address"}],"stateMutability":"view"},{"type":"function","name":"permit","inputs":[{"name":"owner","type":"address","internalType":"address"},{"name":"spender","type":"address","internalType":"address"},{"name":"value","type":"uint256","internalType":"uint256"},{"name":"deadline","type":"uint256","internalType":"uint256"},{"name":"v","type":"uint8","internalType":"uint8"},{"name":"r","type":"bytes32","internalType":"bytes32"},{"name":"s","type":"bytes32","internalType":"bytes32"}],"outputs":[],"stateMutability":"nonpayable"},{"type":"function","name":"policyLocked","inputs":[],"outputs":[{"name":"","type":"bool","internalType":"bool"}],"stateMutability":"view"},{"type":"function","name":"presaleContract","inputs":[],"outputs":[{"name":"","type":"address","internalType":"address"}],"stateMutability":"view"},{"type":"function","name":"previewTransferFees","inputs":[{"name":"from","type":"address","internalType":"address"},{"name":"to","type":"address","internalType":"address"},{"name":"amount","type":"uint256","internalType":"uint256"}],"outputs":[{"name":"burnAmount","type":"uint256","internalType":"uint256"},{"name":"sanctumAmount","type":"uint256","internalType":"uint256"},{"name":"ecosystemAmount","type":"uint256","internalType":"uint256"},{"name":"netReceived","type":"uint256","internalType":"uint256"}],"stateMutability":"view"},{"type":"function","name":"remainingDailyLimit","inputs":[{"name":"account","type":"address","internalType":"address"}],"outputs":[{"name":"","type":"uint256","internalType":"uint256"}],"stateMutability":"view"},{"type":"function","name":"sanctumSink","inputs":[],"outputs":[{"name":"","type":"address","internalType":"address"}],"stateMutability":"view"},{"type":"function","name":"securityHub","inputs":[],"outputs":[{"name":"","type":"address","internalType":"contract ISecurityHub"}],"stateMutability":"view"},{"type":"function","name":"setAntiWhale","inputs":[{"name":"_maxTransfer","type":"uint256","internalType":"uint256"},{"name":"_maxWallet","type":"uint256","internalType":"uint256"},{"name":"_dailyLimit","type":"uint256","internalType":"uint256"},{"name":"_cooldown","type":"uint256","internalType":"uint256"}],"outputs":[],"stateMutability":"nonpayable"},{"type":"function","name":"setBlacklist","inputs":[{"name":"user","type":"address","internalType":"address"},{"name":"status","type":"bool","internalType":"bool"}],"outputs":[],"stateMutability":"nonpayable"},{"type":"function","name":"setBurnRouter","inputs":[{"name":"router","type":"address","internalType":"address"}],"outputs":[],"stateMutability":"nonpayable"},{"type":"function","name":"setCircuitBreaker","inputs":[{"name":"_active","type":"bool","internalType":"bool"},{"name":"_duration","type":"uint256","internalType":"uint256"}],"outputs":[],"stateMutability":"nonpayable"},{"type":"function","name":"setLedger","inputs":[{"name":"_ledger","type":"address","internalType":"address"}],"outputs":[],"stateMutability":"nonpayable"},{"type":"function","name":"setSanctumSink","inputs":[{"name":"_sanctum","type":"address","internalType":"address"}],"outputs":[],"stateMutability":"nonpayable"},{"type":"function","name":"setSecurityHub","inputs":[{"name":"hub","type":"address","internalType":"address"}],"outputs":[],"stateMutability":"nonpayable"},{"type":"function","name":"setSystemExempt","inputs":[{"name":"who","type":"address","internalType":"address"},{"name":"isExempt","type":"bool","internalType":"bool"}],"outputs":[],"stateMutability":"nonpayable"},{"type":"function","name":"setTreasurySink","inputs":[{"name":"sink","type":"address","internalType":"address"}],"outputs":[],"stateMutability":"nonpayable"},{"type":"function","name":"setVaultHub","inputs":[{"name":"hub","type":"address","internalType":"address"}],"outputs":[],"stateMutability":"nonpayable"},{"type":"function","name":"setVaultOnly","inputs":[{"name":"enabled","type":"bool","internalType":"bool"}],"outputs":[],"stateMutability":"nonpayable"},{"type":"function","name":"setWhaleLimitExempt","inputs":[{"name":"addr","type":"address","internalType":"address"},{"name":"exempt","type":"bool","internalType":"bool"}],"outputs":[],"stateMutability":"nonpayable"},{"type":"function","name":"setWhitelist","inputs":[{"name":"addr","type":"address","internalType":"address"},{"name":"status","type":"bool","internalType":"bool"}],"outputs":[],"stateMutability":"nonpayable"},{"type":"function","name":"symbol","inputs":[],"outputs":[{"name":"","type":"string","internalType":"string"}],"stateMutability":"view"},{"type":"function","name":"systemExempt","inputs":[{"name":"","type":"address","internalType":"address"}],"outputs":[{"name":"","type":"bool","internalType":"bool"}],"stateMutability":"view"},{"type":"function","name":"totalSupply","inputs":[],"outputs":[{"name":"","type":"uint256","internalType":"uint256"}],"stateMutability":"view"},{"type":"function","name":"transfer","inputs":[{"name":"to","type":"address","internalType":"address"},{"name":"amount","type":"uint256","internalType":"uint256"}],"outputs":[{"name":"","type":"bool","internalType":"bool"}],"stateMutability":"nonpayable"},{"type":"function","name":"transferCooldown","inputs":[],"outputs":[{"name":"","type":"uint256","internalType":"uint256"}],"stateMutability":"view"},{"type":"function","name":"transferFrom","inputs":[{"name":"from","type":"address","internalType":"address"},{"name":"to","type":"address","internalType":"address"},{"name":"amount","type":"uint256","internalType":"uint256"}],"outputs":[{"name":"","type":"bool","internalType":"bool"}],"stateMutability":"nonpayable"},{"type":"function","name":"transferOwnership","inputs":[{"name":"newOwner","type":"address","internalType":"address"}],"outputs":[],"stateMutability":"nonpayable"},{"type":"function","name":"treasurySink","inputs":[],"outputs":[{"name":"","type":"address","internalType":"address"}],"stateMutability":"view"},{"type":"function","name":"vaultHub","inputs":[],"outputs":[{"name":"","type":"address","internalType":"contract IVaultHub"}],"stateMutability":"view"},{"type":"function","name":"vaultOnly","inputs":[],"outputs":[{"name":"","type":"bool","internalType":"bool"}],"stateMutability":"view"},{"type":"function","name":"whaleLimitExempt","inputs":[{"name":"","type":"address","internalType":"address"}],"outputs":[{"name":"","type":"bool","internalType":"bool"}],"stateMutability":"view"},{"type":"function","name":"whitelisted","inputs":[{"name":"","type":"address","internalType":"address"}],"outputs":[{"name":"","type":"bool","internalType":"bool"}],"stateMutability":"view"},{"type":"event","name":"AntiWhaleSet","inputs":[{"name":"maxTransfer","type":"uint256","indexed":false,"internalType":"uint256"},{"name":"maxWallet","type":"uint256","indexed":false,"internalType":"uint256"},{"name":"dailyLimit","type":"uint256","indexed":false,"internalType":"uint256"},{"name":"cooldown","type":"uint256","indexed":false,"internalType":"uint256"}],"anonymous":false},{"type":"event","name":"Approval","inputs":[{"name":"owner","type":"address","indexed":true,"internalType":"address"},{"name":"spender","type":"address","indexed":true,"internalType":"address"},{"name":"value","type":"uint256","indexed":false,"internalType":"uint256"}],"anonymous":false},{"type":"event","name":"BlacklistSet","inputs":[{"name":"user","type":"address","indexed":true,"internalType":"address"},{"name":"status","type":"bool","indexed":false,"internalType":"bool"},{"name":"setBy","type":"address","indexed":true,"internalType":"address"}],"anonymous":false},{"type":"event","name":"BurnRouterSet","inputs":[{"name":"router","type":"address","indexed":true,"internalType":"address"}],"anonymous":false},{"type":"event","name":"CircuitBreakerSet","inputs":[{"name":"active","type":"bool","indexed":false,"internalType":"bool"},{"name":"expiry","type":"uint256","indexed":false,"internalType":"uint256"}],"anonymous":false},{"type":"event","name":"ExemptSet","inputs":[{"name":"target","type":"address","indexed":true,"internalType":"address"},{"name":"exempt","type":"bool","indexed":false,"internalType":"bool"}],"anonymous":false},{"type":"event","name":"FeeApplied","inputs":[{"name":"from","type":"address","indexed":true,"internalType":"address"},{"name":"to","type":"address","indexed":true,"internalType":"address"},{"name":"burnAmount","type":"uint256","indexed":false,"internalType":"uint256"},{"name":"sanctumAmount","type":"uint256","indexed":false,"internalType":"uint256"},{"name":"ecosystemAmount","type":"uint256","indexed":false,"internalType":"uint256"},{"name":"sanctumSink","type":"address","indexed":true,"internalType":"address"},{"name":"ecosystemSink","type":"address","indexed":false,"internalType":"address"}],"anonymous":false},{"type":"event","name":"LedgerSet","inputs":[{"name":"ledger","type":"address","indexed":true,"internalType":"address"}],"anonymous":false},{"type":"event","name":"OwnershipTransferStarted","inputs":[{"name":"previousOwner","type":"address","indexed":true,"internalType":"address"},{"name":"newOwner","type":"address","indexed":true,"internalType":"address"}],"anonymous":false},{"type":"event","name":"OwnershipTransferred","inputs":[{"name":"previousOwner","type":"address","indexed":true,"internalType":"address"},{"name":"newOwner","type":"address","indexed":true,"internalType":"address"}],"anonymous":false},{"type":"event","name":"PolicyLocked","inputs":[],"anonymous":false},{"type":"event","name":"PresaleContractSet","inputs":[{"name":"presale","type":"address","indexed":true,"internalType":"address"}],"anonymous":false},{"type":"event","name":"SanctumSinkSet","inputs":[{"name":"sink","type":"address","indexed":true,"internalType":"address"}],"anonymous":false},{"type":"event","name":"SecurityHubSet","inputs":[{"name":"hub","type":"address","indexed":true,"internalType":"address"}],"anonymous":false},{"type":"event","name":"SystemExemptSet","inputs":[{"name":"who","type":"address","indexed":true,"internalType":"address"},{"name":"isExempt","type":"bool","indexed":false,"internalType":"bool"}],"anonymous":false},{"type":"event","name":"Transfer","inputs":[{"name":"from","type":"address","indexed":true,"internalType":"address"},{"name":"to","type":"address","indexed":true,"internalType":"address"},{"name":"value","type":"uint256","indexed":false,"internalType":"uint256"}],"anonymous":false},{"type":"event","name":"TreasurySinkSet","inputs":[{"name":"sink","type":"address","indexed":true,"internalType":"address"}],"anonymous":false},{"type":"event","name":"VaultHubSet","inputs":[{"name":"hub","type":"address","indexed":true,"internalType":"address"}],"anonymous":false},{"type":"event","name":"VaultOnlySet","inputs":[{"name":"enabled","type":"bool","indexed":false,"internalType":"bool"}],"anonymous":false},{"type":"event","name":"WhaleLimitExemptSet","inputs":[{"name":"addr","type":"address","indexed":true,"internalType":"address"},{"name":"exempt","type":"bool","indexed":false,"internalType":"bool"}],"anonymous":false},{"type":"event","name":"Whitelisted","inputs":[{"name":"addr","type":"address","indexed":true,"internalType":"address"},{"name":"status","type":"bool","indexed":false,"internalType":"bool"}],"anonymous":false},{"type":"error","name":"Token_NotVault","inputs":[]},{"type":"error","name":"VF_CAP","inputs":[]},{"type":"error","name":"VF_DailyLimitExceeded","inputs":[]},{"type":"error","name":"VF_LOCKED","inputs":[]},{"type":"error","name":"VF_MaxTransferExceeded","inputs":[]},{"type":"error","name":"VF_MaxWalletExceeded","inputs":[]},{"type":"error","name":"VF_POLICY_LOCKED","inputs":[]},{"type":"error","name":"VF_TransferCooldown","inputs":[]},{"type":"error","name":"VF_ZERO","inputs":[]}],"bytecode":{"object":"0x608080604052346105795760c08161428a803803809161001f82856106b0565b83398101031261057957610032816106e7565b9061003f602082016106e7565b61004b604083016106e7565b610057606084016106e7565b61006f60a0610068608087016106e7565b95016106e7565b5f80546001600160a01b0319163390811782556040519792917f8be0079c531659141344cd1fd0a4f28419497f9722a3daafe3b4186f6b6457e08180a360016002556a01a784379d99db420000006003556a034f086f3b33b6840000006004556a0422ca8b0a00a4250000006005555f60068190556011805462ffffff60a01b1916600160a01b1790556012556001600160a01b0382169081156106a1576001600160a01b0386169485156106a1576001600160a01b03169788156106a157833b1561066a5750853b1561063157610438966103a2946001600160a01b0316806105f5575b506001600160a01b0316806105b9575b506001600160a01b03168061057d575b508360018060a01b03196015541617601555835f52601360205260405f20600160ff19825416179055837f44f2eda14b8ba74d08291fccb7fe6e96b0188538fb528966e0d02a84713f290d6020604051837f7188527286b7c8f39703bf108a472dc431dec1ab5e61b363c3ebb1f35ef67af15f80a260018152a2805f52600a60205260405f20600160ff19825416179055835f52600a60205260405f20600160ff19825416179055865f52600a60205260405f20600160ff198254161790556040516102416040826106b0565b600b81526a2b2324a222902a37b5b2b760a91b602090910152604080517f4ce082c216934f45765aa52f1d82612cdb513a49760946798ca41165309f978c9161028a90826106b0565b600181526020810190603160f81b82525190206040519060208201927f8b73c3c69bb8fe3d512ecc4cf759cc79239f7b179b0ffacaa9a75d522b39400f8452604083015260608201524660808201523060a082015260a081526102ee60c0826106b0565b5190206019556aa56fa5b99019a5c8000000600b55805f52600c6020526a295be96e6406697200000060405f20555f5f51602061426a5f395f51905f5260206040516a295be96e640669720000008152a360405161034d6040826106b0565b601381527f7072656d696e745f6465765f72657365727665000000000000000000000000006020820152604051916103866040846106b0565b600a8352690d4c13481b1bd8dad95960b21b602084015261071f565b805f52600c6020526a295be96e6406697200000060405f20555f5f51602061426a5f395f51905f5260206040516a295be96e640669720000008152a36040516103ec6040826106b0565b600f81526e7072656d696e745f70726573616c6560881b6020820152604051916104176040846106b0565b600f83526e35304d20666f722070726573616c6560881b602084015261071f565b805f52600c6020526a52b7d2dcc80cd2e400000060405f2055805f5f51602061426a5f395f51905f5260206040516a52b7d2dcc80cd2e40000008152a36040516104836040826106b0565b601081526f7072656d696e745f747265617375727960801b6020820152604051916104af6040846106b0565b601383527f3130304d20666f72206f7065726174696f6e730000000000000000000000000060208401526010546001600160a01b0316806104fa575b604051613aab90816107bf8239f35b803b15610579575f92836105359361055860405197889687958694630303c28760e61b865260048601526080602486015260848501906106fb565b6a52b7d2dcc80cd2e40000006044850152838103600319016064850152906106fb565b03925af1610569575b8080806104eb565b5f610573916106b0565b5f610561565b5f80fd5b601680546001600160a01b031916821790557f3f2254a28ba18b54180672b4e5f33b7cbe996e44be5c1ebe9057f49e894cde315f80a25f610174565b601080546001600160a01b031916821790557fbc62e69a31739e36d57d56991ac20e4e507a7edfff9070e6a11df5a37b8b4e6f5f80a25f610164565b600e80546001600160a01b031916821790557fbb3d89b3025a50f5b3f9fc1bfe23194ad7fb05af4e31ab293af4a947960954d55f80a25f610154565b60405162461bcd60e51b81526020600482015260116024820152701c1c995cd85b19480858dbdb9d1c9858dd607a1b6044820152606490fd5b62461bcd60e51b815260206004820152601260248201527119195d95985d5b1d080858dbdb9d1c9858dd60721b6044820152606490fd5b63ebeb59ad60e01b5f5260045ffd5b601f909101601f19168101906001600160401b038211908210176106d357604052565b634e487b7160e01b5f52604160045260245ffd5b51906001600160a01b038216820361057957565b805180835260209291819084018484015e5f828201840152601f01601f1916010190565b6010546001600160a01b031680610737575b50505050565b803b15610579575f928361077a9361079d60405197889687958694630303c28760e61b865260018060a01b031660048601526080602486015260848501906106fb565b6a295be96e640669720000006044850152838103600319016064850152906106fb565b03925af16107ae575b808080610731565b5f6107b8916106b0565b5f6107a656fe6080806040526004361015610012575f80fd5b5f3560e01c90816306e0c52c14611e2e5750806306fdde0314611de15780630741206e14611d46578063095ea7b314611d205780630d2d8a3114611ce857806313d1ad0814611c6b578063153b0d1e14611bec57806316efd94114611bc757806318160ddd14611baa578063198803b114611a0d5780631dc4b09c1461195557806322a7caf51461193857806323452b9c1461190e57806323b872dd1461186a57806330adf81f1461183057806330e76684146117f8578063313ce567146117dd5780633246887d1461174c57806332941ecb1461172857806332cb6b0c146117035780633644e515146116e6578063395093511461169f5780633c2f9fe4146114c657806350140c061461148a57806353d6fd591461139057806355545fb0146112f957806356397c35146112d1578063573458e5146112ba5780636336f3ac146111c157806363d9df851461119957806368f162931461117c5780636c32b2ec146111545780636dd6e80b1461112c57806370a08231146110f4578063748ada52146110cf57806379036e901461109757806379ba509714610ff05780637adc723d14610fb35780637ecebe0014610f7b5780638bea4f2d14610f535780638da5cb5b14610f2c57806395d89b4114610ee557806399e793a014610a425780639a03f22414610e665780639d82190f14610e435780639dac064114610e00578063a34857cd14610d44578063a457c2d714610cab578063a9059cbb14610c6d578063a9e7572314610c50578063b55e3f3a14610b51578063b692749714610b34578063b72d294314610b0c578063bae82f7514610a64578063bbde77c114610a47578063bd94fafc14610a42578063beeeb4ce14610a1a578063c4b740f514610920578063d505accf146106cd578063d6b5473514610690578063d936547e14610653578063dd62ed3e14610603578063e30c3978146105db578063e46638e6146105a1578063f2fde38b146104fb578063f497e873146104d0578063f714af6f146104b3578063fa037766146103545763fe575a8714610313575f80fd5b34610350576020366003190112610350576001600160a01b03610334611eaa565b165f526018602052602060ff60405f2054166040519015158152f35b5f80fd5b346103505760403660031901126103505761036d611ee5565b60243561037861297f565b811561049c578015158061048f575b15610453576011805460ff60b01b1916600160b01b1790556103a99042611f92565b6012555b7f04593f08e7dc4a4b3442a0009dff46944620bf6c71bde4a1fa3724b7d6bfe09e604060125481519084151582526020820152a11561041d5761041b6040516103f7604082611e50565b601281527131b4b931bab4ba2fb13932b0b5b2b92fb7b760711b60208201526129c8565b005b61041b60405161042e604082611e50565b601381527231b4b931bab4ba2fb13932b0b5b2b92fb7b33360691b60208201526129c8565b60405162461bcd60e51b81526020600482015260146024820152732b231d1034b73b30b634b210323ab930ba34b7b760611b6044820152606490fd5b5062093a80811115610387565b506011805460ff60b01b191690555f6012556103ad565b34610350575f366003190112610350576020600554604051908152f35b346103505760203660031901126103505760206104f36104ee611eaa565b612915565b604051908152f35b3461035057602036600319011261035057610514611eaa565b61051c61297f565b6001600160a01b0316801561057057600180546001600160a01b031916821790555f80546001600160a01b0316907f38d16b8cac22d99fc7c124b9cd0de2d3fa1faef420bfe791d8c362d765e227009080a3005b60405162461bcd60e51b81526020600482015260096024820152684f574e3a207a65726f60b81b6044820152606490fd5b34610350576105b86105b236611ef4565b916122ae565b906105d760405192839215158352604060208401526040830190611e86565b0390f35b34610350575f366003190112610350576001546040516001600160a01b039091168152602090f35b346103505760403660031901126103505761061c611eaa565b610624611ec0565b6001600160a01b039182165f908152600d60209081526040808320949093168252928352819020549051908152f35b34610350576020366003190112610350576001600160a01b03610674611eaa565b165f526014602052602060ff60405f2054166040519015158152f35b34610350576020366003190112610350576001600160a01b036106b1611eaa565b165f526013602052602060ff60405f2054166040519015158152f35b346103505760e0366003190112610350576106e6611eaa565b6106ee611ec0565b604435906064356084359060ff8216809203610350578042116108db5762278d004201908142116108825711610896576001600160a01b0384165f818152601a602052604090208054919291905f198214610882576020928260809260015f95019055604051858101917f6e71edae12b1b97f4d1f60370fef10105fa2faae0126114a169c64845d6126c9835287604083015260018060a01b0389166060830152898583015260a082015260a081526107a860c082611e50565b51902060195490604051908682019261190160f01b845260228301526042820152604281526107d8606282611e50565b519020906040519182528482015260a435604082015260c435606082015282805260015afa15610877575f516001600160a01b031680151591908261086d575b5050156108285761041b92612a34565b60405162461bcd60e51b815260206004820152601860248201527f56464944453a20696e76616c6964207369676e617475726500000000000000006044820152606490fd5b1490508480610818565b6040513d5f823e3d90fd5b634e487b7160e01b5f52601160045260245ffd5b60405162461bcd60e51b815260206004820152601760248201527f56464944453a20646561646c696e6520746f6f206661720000000000000000006044820152606490fd5b60405162461bcd60e51b815260206004820152601760248201527f56464944453a206578706972656420646561646c696e650000000000000000006044820152606490fd5b3461035057602036600319011261035057610939611ee5565b61094161297f565b60115460ff8160a81c1680610a12575b610a035760ff60a01b191681151560a081901b60ff60a01b16919091176011556040519081527fc700a08714659bf8ab2121ea3f1f64e22835cf102ad9ba5d0816e55a23f6ea2c90602090a1156109d25761041b6040516109b3604082611e50565b600d81526c3b30bab63a2fb7b7363cafb7b760991b60208201526129c8565b61041b6040516109e3604082611e50565b600e81526d3b30bab63a2fb7b7363cafb7b33360911b60208201526129c8565b63015c1ff360e51b5f5260045ffd5b508115610951565b34610350575f366003190112610350576017546040516001600160a01b039091168152602090f35b611f2e565b34610350575f366003190112610350576020600454604051908152f35b3461035057604036600319011261035057610a7d611eaa565b6001600160a01b03166024358115610afd57600b54906aa56fa5b99019a5c8000000610aa98284611f92565b11610aee57602081610aca5f516020613a565f395f51905f52935f95611f92565b600b55848452600c825260408420610ae3828254611f92565b9055604051908152a3005b63d65d418b60e01b5f5260045ffd5b63ebeb59ad60e01b5f5260045ffd5b34610350575f36600319011261035057600f546040516001600160a01b039091168152602090f35b34610350575f36600319011261035057602060405162093a808152f35b3461035057602036600319011261035057610b6a611eaa565b610b7261297f565b60ff60115460a81c16610bfd575b6001600160a01b0316610b94811515611f53565b601780546001600160a01b031916821790557fe99cdf96738a4659f820a0890f65abe82cce94da951e032d7abe61e5687ba2525f80a261041b604051610bdb604082611e50565b601081526f1cd85b98dd1d5b57dcda5b9ad7dcd95d60821b60208201526129c8565b6001600160a01b038116610b805760405162461bcd60e51b815260206004820152601f60248201527f56463a2063616e6e6f7420736574207a65726f207768656e206c6f636b6564006044820152606490fd5b34610350575f366003190112610350576020600354604051908152f35b3461035057604036600319011261035057610c9b610c89611eaa565b610c91612ae3565b6024359033612b25565b6001600255602060405160018152f35b3461035057604036600319011261035057610cc4611eaa565b60243590335f52600d60205260405f2060018060a01b0382165f5260205260405f2054828110610d0d57610d0292610cfb91611f9f565b9033612a34565b602060405160018152f35b60405162461bcd60e51b815260206004820152600f60248201526e616c6c6f7720756e646572666c6f7760881b6044820152606490fd5b3461035057602036600319011261035057610d5d611eaa565b610d6561297f565b60ff60115460a81c1680610def575b610a0357601680546001600160a01b0319166001600160a01b039290921691821790557f3f2254a28ba18b54180672b4e5f33b7cbe996e44be5c1ebe9057f49e894cde315f80a261041b604051610dcc604082611e50565b60118152701d1c99585cdd5c9e57dcda5b9ad7dcd95d607a1b60208201526129c8565b506001600160a01b03811615610d74565b346103505760203660031901126103505760a0610e23610e1e611eaa565b6121fe565b926040929192519485526020850152604084015260608301526080820152f35b346103505760203660031901126103505760206104f3610e61611eaa565b6121a2565b34610350575f36600319011261035057610e7e61297f565b6011805460ff60a81b1916600160a81b1790557f3ce392d8aa0912d44ce27fbdd025b988ec76fd2b53f0ab8b479ed539069d2b345f80a161041b604051610ec6604082611e50565b600d81526c1c1bdb1a58de57db1bd8dad959609a1b60208201526129c8565b34610350575f366003190112610350576105d7604051610f06604082611e50565b6005815264564649444560d81b6020820152604051918291602083526020830190611e86565b34610350575f366003190112610350575f546040516001600160a01b039091168152602090f35b34610350575f366003190112610350576016546040516001600160a01b039091168152602090f35b34610350576020366003190112610350576001600160a01b03610f9c611eaa565b165f52601a602052602060405f2054604051908152f35b34610350576020366003190112610350576001600160a01b03610fd4611eaa565b165f52600a602052602060ff60405f2054166040519015158152f35b34610350575f366003190112610350576001546001600160a01b0381163303611059575f543360018060a01b0382167f8be0079c531659141344cd1fd0a4f28419497f9722a3daafe3b4186f6b6457e05f80a36001600160a01b031990811633175f5516600155005b60405162461bcd60e51b815260206004820152601660248201527527aba71d103737ba103832b73234b7339037bbb732b960511b6044820152606490fd5b34610350576020366003190112610350576001600160a01b036110b8611eaa565b165f526007602052602060405f2054604051908152f35b34610350575f36600319011261035057602060ff60115460a81c166040519015158152f35b34610350576020366003190112610350576001600160a01b03611115611eaa565b165f52600c602052602060405f2054604051908152f35b34610350575f36600319011261035057600e546040516001600160a01b039091168152602090f35b34610350575f366003190112610350576011546040516001600160a01b039091168152602090f35b34610350575f366003190112610350576020600654604051908152f35b34610350575f366003190112610350576015546040516001600160a01b039091168152602090f35b346103505760403660031901126103505761041b6111dd611eaa565b6111e5611ed6565b6111ed61297f565b6001600160a01b038216611202811515611f53565b805f5260136020526112238260405f209060ff801983541691151516179055565b7f44f2eda14b8ba74d08291fccb7fe6e96b0188538fb528966e0d02a84713f290d60206040518415158152a21561129057604051611262604082611e50565b600981526832bc32b6b83a2fb7b760b91b60208201525b60405191611288602084611e50565b5f8352613763565b60405161129e604082611e50565b600a81526932bc32b6b83a2fb7b33360b11b6020820152611279565b346103505761041b6112cb36611ef4565b91612b25565b34610350575f366003190112610350576010546040516001600160a01b039091168152602090f35b3461035057602036600319011261035057611312611eaa565b61131a61297f565b600f80546001600160a01b0319166001600160a01b039290921691821790557fd15414d216acba4fd6e41103922663a24e3ac895d383ad66e7be0c48115d5b1e5f80a261041b60405161136e604082611e50565b601081526f1cd958dd5c9a5d1e57da1d5897dcd95d60821b60208201526129c8565b346103505760403660031901126103505761041b6113ac611eaa565b6113b4611ed6565b6113bc61297f565b6001600160a01b0382166113d1811515611f53565b805f5260146020526113f28260405f209060ff801983541691151516179055565b7fa54714518c5d275fdcd3d2a461e4858e4e8cb04fb93cd0bca9d6d34115f2644060206040518415158152a21561145a57604051611431604082611e50565b600d81526c1dda1a5d195b1a5cdd17d85919609a1b602082015260405191611288602084611e50565b604051611468604082611e50565b601081526f77686974656c6973745f72656d6f766560801b6020820152611279565b34610350576105d76114a461149e36611ef4565b91612070565b6040805194855260208501939093529183015260608201529081906080820190565b34610350576080366003190112610350576064356024356004356044356114eb61297f565b8161165d575b8261161b575b806115d9575b83611594575b7fdd527915e4785ab4e44c56581b4895b2cf4ce1414470508ea4a3d00623fba9149361155c9183600355846004558060055581600655604051948594859094939260609260808301968352602083015260408201520152565b0390a161041b604051611570604082611e50565b6012815271185b9d1a57ddda185b1957dd5c19185d195960721b60208201526129c8565b610e108411156115035760405162461bcd60e51b815260206004820152601360248201527236b0bc1018903437bab91031b7b7b63237bbb760691b6044820152606490fd5b6969e10de76676d08000008110156114fd5760405162461bcd60e51b81526020600482015260086024820152676d696e203530306b60c01b6044820152606490fd5b692a5a058fc295ed0000008310156114f75760405162461bcd60e51b81526020600482015260086024820152676d696e203230306b60c01b6044820152606490fd5b69152d02c7e14af68000008210156114f15760405162461bcd60e51b81526020600482015260086024820152676d696e203130306b60c01b6044820152606490fd5b3461035057604036600319011261035057610d026116bb611eaa565b335f52600d60205260405f2060018060a01b0382165f52602052610cfb60405f206024359054611f92565b34610350575f366003190112610350576020601954604051908152f35b34610350575f3660031901126103505760206040516aa56fa5b99019a5c80000008152f35b34610350575f366003190112610350576020611742611fe5565b6040519015158152f35b3461035057602036600319011261035057611765611eaa565b61176d61297f565b601080546001600160a01b0319166001600160a01b039290921691821790557fbc62e69a31739e36d57d56991ac20e4e507a7edfff9070e6a11df5a37b8b4e6f5f80a261041b6040516117c1604082611e50565b600a8152691b195919d95c97dcd95d60b21b60208201526129c8565b34610350575f36600319011261035057602060405160128152f35b34610350576020366003190112610350576001600160a01b03611819611eaa565b165f526008602052602060405f2054604051908152f35b34610350575f3660031901126103505760206040517f6e71edae12b1b97f4d1f60370fef10105fa2faae0126114a169c64845d6126c98152f35b346103505761187836611ef4565b90611881612ae3565b335f52601860205261189a60ff60405f20541615611fac565b6001600160a01b0383165f908152600d60209081526040808320338452909152902054928284106118e1576118dc6118d584610c9b96611f9f565b3383612a34565b612b25565b60405162461bcd60e51b8152602060048201526005602482015264616c6c6f7760d81b6044820152606490fd5b34610350575f3660031901126103505761192661297f565b600180546001600160a01b0319169055005b34610350575f366003190112610350576020601254604051908152f35b346103505760203660031901126103505761196e611eaa565b61197661297f565b6011549060ff8260a81c16806119fc575b610a03576001600160a01b03166001600160a01b03199190911681176011557faf9b9a8ca16be293d721c9b992abdb79c8c7a18ed68c393cc10deeaf4b2f99775f80a261041b6040516119db604082611e50565b600f81526e189d5c9b97dc9bdd5d195c97dcd95d608a1b60208201526129c8565b506001600160a01b03811615611987565b3461035057602036600319011261035057611a26611eaa565b6001600160a01b03165f818152600a602052604090205460ff168015611b94575b8015611a825760e091505f19905f808380805b604051968752602087015260408601526060850152608084015260a0830152151560c0820152f35b6003548015611b8c575b6004549091908015611b84575b600554938415801590611b7d57855b9015611b7157815f52600860205260405f2054956201518087018097116108825760e0964210611b3857905b6006549283151580611b23575b15611b1b575f526009602052611afb8360405f2054611f92565b428111611b0b57505f5b93611a5a565b611b16904290611f9f565b611b05565b505f93611a5a565b50805f52600960205260405f20541515611ae1565b5f838152600760205260409020548111611b5457505f90611ad4565b611b6b90835f52600760205260405f205490611f9f565b90611ad4565b60e095505f1990611ad4565b5f19611aa8565b505f19611a99565b505f19611a8c565b50805f52601360205260ff60405f205416611a47565b34610350575f366003190112610350576020600b54604051908152f35b34610350575f36600319011261035057602060ff60115460b01c166040519015158152f35b3461035057604036600319011261035057611c05611eaa565b611c0d611ed6565b90611c1661297f565b6001600160a01b03165f818152601860205260409020805460ff191660ff8415151617905560405191151582527f4edd9bb92fa41bc25fb64fc24645bea26691eff97f54d2db5362a3f986c188e960203393a3005b3461035057604036600319011261035057611c84611eaa565b7fe355751d29baf3bbcbfb4f9db660bfdf038ac8076722a3cb9ed1807250c1f7b06020611caf611ed6565b92611cb861297f565b6001600160a01b03165f818152600a835260409020805460ff191660ff86151516179055926040519015158152a2005b34610350576020366003190112610350576001600160a01b03611d09611eaa565b165f526009602052602060405f2054604051908152f35b3461035057604036600319011261035057610d02611d3c611eaa565b6024359033612a34565b3461035057602036600319011261035057611d5f611eaa565b611d6761297f565b6001600160a01b0316611d7b811515611f53565b600e80546001600160a01b031916821790557fbb3d89b3025a50f5b3f9fc1bfe23194ad7fb05af4e31ab293af4a947960954d55f80a261041b604051611dc2604082611e50565b600d81526c1d985d5b1d17da1d5897dcd95d609a1b60208201526129c8565b34610350575f366003190112610350576105d7604051611e02604082611e50565b600b81526a2b2324a222902a37b5b2b760a91b6020820152604051918291602083526020830190611e86565b34610350575f3660031901126103505760209060ff60115460a01c1615158152f35b90601f8019910116810190811067ffffffffffffffff821117611e7257604052565b634e487b7160e01b5f52604160045260245ffd5b805180835260209291819084018484015e5f828201840152601f01601f1916010190565b600435906001600160a01b038216820361035057565b602435906001600160a01b038216820361035057565b60243590811515820361035057565b60043590811515820361035057565b6060906003190112610350576004356001600160a01b038116810361035057906024356001600160a01b0381168103610350579060443590565b34610350575f3660031901126103505760206040516a295be96e640669720000008152f35b15611f5a57565b60405162461bcd60e51b815260206004820152601060248201526f56463a207a65726f206164647265737360801b6044820152606490fd5b9190820180921161088257565b9190820391821161088257565b15611fb357565b60405162461bcd60e51b815260206004820152600a60248201526914d85b98dd1a5bdb995960b21b6044820152606490fd5b60ff60115460b01c161561200a57601254801515908161200e575b5061200a57600190565b5f90565b90504210155f612000565b51906001600160a01b038216820361035057565b91908260c09103126103505781519160208101519160408201519161205460608201612019565b9161206d60a061206660808501612019565b9301612019565b90565b9092919260018060a01b0382165f5260136020528360ff60405f205416801561217e575b801561216b575b801561215d575b6121515760115460405163252f15f560e01b81526001600160a01b03948516600482015292841660248401526044830191909152909160c09183916064918391165afa918215610877575f925f925f91612112575b508061210d61206d929461210d81978099611f9f565b611f9f565b905061206d935061213c91925060c03d60c01161214a575b6121348183611e50565b81019061202d565b5050509291939092906120f7565b503d61212a565b5050505f915f915f9190565b50612166611fe5565b6120a2565b506011546001600160a01b03161561209b565b50506001600160a01b0381165f90815260136020526040902054849060ff16612094565b6006549081156121f8576001600160a01b03165f81815260096020526040902054909190156121f8576121e0915f52600960205260405f2054611f92565b804210156121f35761206d904290611f9f565b505f90565b50505f90565b6001600160a01b03165f818152600a602052604090205460ff168015612298575b61228a5760055490805f52600860205260405f20546201518081019182821161088257428311612262575050505f91819042906201518042018042116108825790565b5f90815260076020526040902054939183851061227d575f92565b6122878585611f9f565b92565b505f905f1990819083908190565b50805f52601360205260ff60405f20541661221f565b6001600160a01b0381165f818152601860205260409020549293919260ff166128df576001600160a01b0384165f8181526018602052604090205490929060ff166128a557815f52600c6020528060405f20541061286c57815f52600a60205260ff60405f2054161580612855575b8061283e575b80612827575b8061281e575b80612815575b612623575b5060ff60115460a01c168061260f575b612470575b5050600f546001600160a01b0316151580612461575b612383575b505060019060405161237d602082611e50565b5f815290565b61238f61239591613928565b91613928565b906001600160a01b03811615159081612451575b5061241a576001600160a01b0381161515908161240a575b506123cd575f8061236a565b5f906040516123dd604082611e50565b601981527f526563697069656e74207661756c74206973206c6f636b656400000000000000602082015290565b61241491506139aa565b5f6123c1565b505f9060405161242b604082611e50565b601681527514d95b99195c881d985d5b1d081a5cc81b1bd8dad95960521b602082015290565b61245b91506139aa565b5f6123a9565b5061246a611fe5565b15612365565b80159081156125f7575b81156125e0575b5080156125d1575b80156125c2575b81159182156125ad575b8215612598575b8215612580575b8215612568575b508115612557575b8115612546575b1561250e57156124cf575f8061234f565b50505f906040516124e1604082611e50565b601881527f526563697069656e74206d75737420757365207661756c740000000000000000602082015290565b5050505f90604051612521604082611e50565b601581527414d95b99195c881b5d5cdd081d5cd9481d985d5b1d605a1b602082015290565b90506125518361388f565b906124be565b90506125628361380f565b906124b7565b5f9081526014602052604081205460ff1692506124af565b8092505f52601360205260ff60405f205416916124a8565b6017546001600160a01b0316811492506124a1565b6016546001600160a01b03168114925061249a565b506125cc8261388f565b612490565b506125db8261380f565b612489565b90505f52601460205260ff60405f2054165f612481565b8091505f52601360205260ff60405f2054169061247a565b50600e546001600160a01b0316151561234a565b600354801515908161280b575b506127c95760045480151590816127aa575b506127685760055490816126dc575b5050600654801515806126c7575b1561233a5761267a90825f52600960205260405f2054611f92565b4210612686575f61233a565b505050505f9060405161269a604082611e50565b601881527f5472616e7366657220636f6f6c646f776e206163746976650000000000000000602082015290565b50815f52600960205260405f2054151561265f565b825f52600760205260405f205490835f52600860205260405f2054620151808101809111610882574210612711575b50612651565b61271a91611f92565b11612727575f808061270b565b505050505f9060405161273b604082611e50565b601c81527f45786365656473206461696c79207472616e73666572206c696d697400000000602082015290565b50505050505f9060405161277d604082611e50565b601a81527f45786365656473206d61782077616c6c65742062616c616e6365000000000000602082015290565b9050835f52600c6020526127c28260405f2054611f92565b115f612642565b50505050505f906040516127de604082611e50565b601b81527f45786365656473206d6178207472616e7366657220616d6f756e740000000000602082015290565b905081115f612630565b50821515612335565b5081151561232f565b50825f52601360205260ff60405f20541615612329565b50815f52601360205260ff60405f20541615612323565b50825f52600a60205260ff60405f2054161561231d565b50505050505f90604051612881604082611e50565b6014815273496e73756666696369656e742062616c616e636560601b602082015290565b50505050505f906040516128ba604082611e50565b6015815274149958da5c1a595b9d08189b1858dadb1a5cdd1959605a1b602082015290565b505050505f906040516128f3604082611e50565b601281527114d95b99195c88189b1858dadb1a5cdd195960721b602082015290565b6005549081156129785760018060a01b031690815f52600860205260405f20546201518081018091116108825742101561297357815f5260076020528060405f205410156121f85761206d915f52600760205260405f205490611f9f565b905090565b50505f1990565b5f546001600160a01b0316330361299257565b60405162461bcd60e51b815260206004820152600e60248201526d27aba71d103737ba1037bbb732b960911b6044820152606490fd5b6010546001600160a01b0316806129dd575050565b803b1561035057604051633ddd61ab60e21b815230600482015260606024820152915f918391829084908290612a17906064830190611e86565b33604483015203925af1612a285750565b5f612a3291611e50565b565b6001600160a01b03169081151580612ad1575b15612aa05760207f8c5be1e5ebec7d5bd14f71427d1e84f3dd0314c0f7b2291e5b200ac8c7c3b92591835f52600d825260405f2060018060a01b0382165f5282528460405f205560405194855260018060a01b031693a3565b60405162461bcd60e51b81526020600482015260096024820152680617070726f766520360bc1b6044820152606490fd5b506001600160a01b0381161515612a47565b600160025403612af35760028055565b60405162461bcd60e51b815260206004820152600a6024820152697265656e7472616e637960b01b6044820152606490fd5b915f9260018060a01b03811692835f52601860205260ff60405f2054161580613741575b612b5290611fac565b835f52600a60205260ff60405f205416158061371f575b80613708575b806136e6575b806136dd575b806136cb575b61355c575b60ff60115460a01c1680613548575b6132c7575b831580156132b6575b610afd57821561328c57600f545f9081906001600160a01b0316151580613270575b80613261575b6131ee575b5050835f52600c60205260405f20548381106131bf578390855f52600c6020520360405f2055828092601154908660018060a01b038316928315908115806131b0575b80613171575b1561310157505060405163252f15f560e01b81526001600160a01b039283166004820152918516602483015250604481019290925260c090829060649082905afa908115610877575f915f905f905f905f945f916130d7575b5085159081159081612ff8575b5084151580612f6b575b8415159182612ec5575b92612ebd575b508115612eb5575b50612e13575b50506011546001600160a01b031692505050803b15612df0579085808087946024604051809481936329a7724f60e21b83528b60048401525af1612df4575b505060205f516020613a565f395f51905f52915b60018060a01b031693848852600c825260408820612d19828254611f92565b9055604051908152a3604051612d30604082611e50565b60088152673a3930b739b332b960c11b602082015260405192612d54602085611e50565b8484526010546001600160a01b03169283612d72575b505050505050565b833b15612df0579185809492612dc6612daf9560405198899788968795630303c28760e61b87526004870152608060248701526084860190611e86565b916044850152600319848303016064850152611e86565b03925af1612dd8575b80808080612d6a565b612de3828092611e50565b612ded5780612dcf565b80fd5b8580fd5b8192935090612e0291611e50565b612e0f578390855f612ce6565b8480fd5b6001600160a01b038116612eaf57506016546001600160a01b0316925b6001600160a01b038116612ea957506016546001600160a01b0316915b6040805195865260208601919091528401526001600160a01b039081166060840152908116919083169086907f83f1070d5154c1ec6e9f656f98b1b6761035814eeba41c9ace66fd53f501e35c90608090a45f80808080612ca7565b91612e4d565b92612e30565b90505f612ca1565b91505f612c99565b996001600160a01b038816612f65576016546001600160a01b03165b6001600160a01b03168015612f3357612f2d918f918f604084838c9652600c60205220612f0f858254611f92565b90555f516020613a565f395f51905f526020604051868152a3611f9f565b99612c93565b60405162461bcd60e51b815260206004820152600a602482015269065636f2073696e6b3d360b41b6044820152606490fd5b87612ee1565b986001600160a01b038416612ff2576016546001600160a01b03165b6001600160a01b03168015612fbc57612fb691818f8f90808b9560409252600c60205220612f0f858254611f92565b98612c89565b60405162461bcd60e51b815260206004820152600e60248201526d073616e6374756d2073696e6b3d360941b6044820152606490fd5b83612f87565b9098506001600160a01b0381166130d257505f5b6001600160a01b03168061309c575061302786600b54611f9f565b600b555f8a5f516020613a565f395f51905f5260206040518a8152a35b61304e868a611f9f565b6011549098906001600160a01b0316803b15610350575f8091602460405180948193631bc9354160e21b83528d60048401525af115612c7f57613094919c505f90611e50565b5f9a5f612c7f565b805f52600c60205260405f206130b3888254611f92565b90558a5f516020613a565f395f51905f5260206040518a8152a3613044565b61300c565b9450505050506130f6915060c03d60c01161214a576121348183611e50565b93929190935f612c72565b91959450925060ff915060a81c1661312b575b5060205f516020613a565f395f51905f5291612cfa565b90915061313a5783905f613114565b60405162461bcd60e51b815260206004820152600f60248201526e1c9bdd5d195c881c995c5d5a5c9959608a1b6044820152606490fd5b50825f52601360205260ff60405f205416801561318f575b15612c19565b506001600160a01b0387165f9081526013602052604090205460ff16613189565b506131b9611fe5565b15612c13565b60405162461bcd60e51b815260206004820152600760248201526662616c616e636560c81b6044820152606490fd5b6001600160a01b0382161515918261324f575b508115613224575b50613215575f80612bd0565b63b8e516c360e01b5f5260045ffd5b6001600160a01b038116151591508161323f575b505f613209565b61324991506139aa565b5f613238565b61325a9192506139aa565b905f613201565b5061326a611fe5565b15612bcb565b91505061327c83613928565b9061328683613928565b90612bc5565b6040515f81526001600160a01b0390911694505f516020613a565f395f51905f52925060209150a3565b506001600160a01b03811615612ba3565b803b1580613536575b80613514575b806134f2575b613417575b83158015613401575b80156133eb575b80156133dc575b80156133cd575b6001600160a01b0382168015919082156133b8575b82156133a3575b821561338b575b8215613373575b508115613362575b8115613351575b1561334257612b9a575b63cd0d8b2160e01b5f5260045ffd5b905061335c8261388f565b90613338565b905061336d8261380f565b90613331565b5f9081526014602052604081205460ff169250613329565b8092505f52601360205260ff60405f20541691613322565b6017546001600160a01b03168114925061331b565b6016546001600160a01b031681149250613314565b506133d78261388f565b6132ff565b506133e68261380f565b6132f8565b50835f52601460205260ff60405f2054166132f1565b50835f52601360205260ff60405f2054166132ea565b6134208161388f565b6132e157600e5460405163e01fd21560e01b81526001600160a01b0383811660048301529091602091839160249183915f91165af15f91816134b6575b506134715763cd0d8b2160e01b5f5260045ffd5b6134b190604051613483604082611e50565b60128152711d985d5b1d17d85d5d1bd7d8dc99585d195960721b602082015260405191611288602084611e50565b6132e1565b9091506020813d6020116134ea575b816134d260209383611e50565b81010312610350576134e390612019565b905f61345d565b3d91506134c5565b506001600160a01b0381165f9081526014602052604090205460ff16156132dc565b506001600160a01b0381165f9081526013602052604090205460ff16156132d6565b506001600160a01b03811615156132d0565b50600e546001600160a01b03161515612b95565b60035480151590816136c1575b506136b2576004548061367a575b506005546135ec575b6006548061358f575b50612b86565b845f52600960205260405f2054151590816135cd575b506135be57835f5260096020524260405f20555f613589565b6301249b7160e01b5f5260045ffd5b6135e49150855f52600960205260405f2054611f92565b42105f6135a5565b835f52600860205260405f205462015180810180911161088257421015613659575b835f5260076020526136248360405f2054611f92565b6005541061364a57835f52600760205260405f20613643848254611f92565b9055613580565b639ad5c1c760e01b5f5260045ffd5b835f5260076020525f6040812055835f5260086020524260405f205561360e565b60018060a01b0382165f52600c6020526136988460405f2054611f92565b116136a3575f613577565b63f5cec06760e01b5f5260045ffd5b631ae2df0760e01b5f5260045ffd5b905083115f613569565b506001600160a01b0381161515612b81565b50831515612b7b565b506001600160a01b0381165f9081526013602052604090205460ff1615612b75565b50835f52601360205260ff60405f20541615612b6f565b506001600160a01b0381165f908152600a602052604090205460ff1615612b69565b506001600160a01b0381165f9081526018602052604090205460ff1615612b49565b6010546001600160a01b03168061377b575b50505050565b803b15610350575f92836137be936137d660405197889687958694630303c28760e61b865260018060a01b03166004860152608060248601526084850190611e86565b90846044850152600319848303016064850152611e86565b03925af16137e7575b808080613775565b5f6137f191611e50565b5f6137df565b90816020910312610350575180151581036103505790565b600e546001600160a01b03169081156121f85760405163652b9b4160e01b81526001600160a01b03909116600482015290602090829060249082905afa5f918161385e575b5061206d57505f90565b61388191925060203d602011613888575b6138798183611e50565b8101906137f7565b905f613854565b503d61386f565b600e546001600160a01b03169081156121f857604051630709df4560e01b81526001600160a01b03909116600482015290602090829060249082905afa5f91816138ec575b506138de57505f90565b6001600160a01b0316151590565b9091506020813d602011613920575b8161390860209383611e50565b810103126103505761391990612019565b905f6138d4565b3d91506138fb565b600e546001600160a01b03169081156121f857604051630709df4560e01b81526001600160a01b03909116600482015290602090829060249082905afa908115610877575f91613976575090565b90506020813d6020116139a2575b8161399160209383611e50565b810103126103505761206d90612019565b3d9150613984565b600f54604051631293efbb60e21b602082019081526001600160a01b0393841660248084019190915282525f93849316916139e6604482611e50565b51915afa3d15613a4d573d9067ffffffffffffffff8211611e725760405191613a19601f8201601f191660200184611e50565b82523d5f602084013e5b158015613a42575b6121f3578060208061206d935183010191016137f7565b506020815110613a2b565b606090613a2356feddf252ad1be2c89b69c2b068fc378daa952ba7f163c4a11628f55a4df523b3efa26469706673582212206339ee1e0bd3502d3140f880ef6a3ea4244bbfb06b4a16715392f1dc2088b70764736f6c634300081e0033ddf252ad1be2c89b69c2b068fc378daa952ba7f163c4a11628f55a4df523b3ef","linkReferences":{}},"methodIdentifiers":{"DEV_RESERVE_SUPPLY()":"99e793a0","DOMAIN_SEPARATOR()":"3644e515","MAX_CIRCUIT_BREAKER_DURATION()":"b6927497","MAX_SUPPLY()":"32cb6b0c","PERMIT_TYPEHASH()":"30adf81f","PRESALE_CAP()":"bd94fafc","TEST_expose_transfer(address,address,uint256)":"573458e5","TEST_exposed_mint(address,uint256)":"bae82f75","acceptOwnership()":"79ba5097","allowance(address,address)":"dd62ed3e","approve(address,uint256)":"095ea7b3","balanceOf(address)":"70a08231","burnRouter()":"6c32b2ec","canTransfer(address,address,uint256)":"e46638e6","cancelOwnershipTransfer()":"23452b9c","circuitBreaker()":"16efd941","circuitBreakerExpiry()":"22a7caf5","cooldownRemaining(address)":"9d82190f","dailyResetTime(address)":"30e76684","dailyTransferLimit()":"f714af6f","dailyTransferred(address)":"79036e90","decimals()":"313ce567","decreaseAllowance(address,uint256)":"a457c2d7","getDailyTransferStats(address)":"9dac0641","getTransferLimitsFor(address)":"198803b1","increaseAllowance(address,uint256)":"39509351","isBlacklisted(address)":"fe575a87","isCircuitBreakerActive()":"32941ecb","lastTransferTime(address)":"0d2d8a31","ledger()":"56397c35","lockPolicy()":"9a03f224","maxTransferAmount()":"a9e75723","maxWalletBalance()":"bbde77c1","name()":"06fdde03","nonces(address)":"7ecebe00","owner()":"8da5cb5b","pendingOwner()":"e30c3978","permit(address,address,uint256,uint256,uint8,bytes32,bytes32)":"d505accf","policyLocked()":"748ada52","presaleContract()":"63d9df85","previewTransferFees(address,address,uint256)":"50140c06","remainingDailyLimit(address)":"f497e873","sanctumSink()":"beeeb4ce","securityHub()":"b72d2943","setAntiWhale(uint256,uint256,uint256,uint256)":"3c2f9fe4","setBlacklist(address,bool)":"153b0d1e","setBurnRouter(address)":"1dc4b09c","setCircuitBreaker(bool,uint256)":"fa037766","setLedger(address)":"3246887d","setSanctumSink(address)":"b55e3f3a","setSecurityHub(address)":"55545fb0","setSystemExempt(address,bool)":"6336f3ac","setTreasurySink(address)":"a34857cd","setVaultHub(address)":"0741206e","setVaultOnly(bool)":"c4b740f5","setWhaleLimitExempt(address,bool)":"13d1ad08","setWhitelist(address,bool)":"53d6fd59","symbol()":"95d89b41","systemExempt(address)":"d6b54735","totalSupply()":"18160ddd","transfer(address,uint256)":"a9059cbb","transferCooldown()":"68f16293","transferFrom(address,address,uint256)":"23b872dd","transferOwnership(address)":"f2fde38b","treasurySink()":"8bea4f2d","vaultHub()":"6dd6e80b","vaultOnly()":"06e0c52c","whaleLimitExempt(address)":"7adc723d","whitelisted(address)":"d936547e"},"id":32}