{
  "_format": "hh-sol-artifact-1",
  "contractName": "MerchantPortal",
  "sourceName": "contracts/MerchantPortal.sol",
  "abi": [
    {
      "inputs": [
        {
          "internalType": "address",
          "name": "_dao",
          "type": "address"
        },
        {
          "internalType": "address",
          "name": "_vaultHub",
          "type": "address"
        },
        {
          "internalType": "address",
          "name": "_seer",
          "type": "address"
        },
        {
          "internalType": "address",
          "name": "_securityHub",
          "type": "address"
        },
        {
          "internalType": "address",
          "name": "_ledger",
          "type": "address"
        },
        {
          "internalType": "address",
          "name": "_feeSink",
          "type": "address"
        }
      ],
      "stateMutability": "nonpayable",
      "type": "constructor"
    },
    {
      "inputs": [],
      "name": "MERCH_EscrowRequired",
      "type": "error"
    },
    {
      "inputs": [],
      "name": "MERCH_InvalidPayment",
      "type": "error"
    },
    {
      "inputs": [],
      "name": "MERCH_LowTrust",
      "type": "error"
    },
    {
      "inputs": [],
      "name": "MERCH_NotDAO",
      "type": "error"
    },
    {
      "inputs": [],
      "name": "MERCH_NotMerchant",
      "type": "error"
    },
    {
      "inputs": [],
      "name": "MERCH_NotRegistered",
      "type": "error"
    },
    {
      "inputs": [],
      "name": "MERCH_Suspended",
      "type": "error"
    },
    {
      "inputs": [],
      "name": "MERCH_VaultLocked",
      "type": "error"
    },
    {
      "anonymous": false,
      "inputs": [
        {
          "indexed": false,
          "internalType": "address",
          "name": "sink",
          "type": "address"
        }
      ],
      "name": "FeeSinkSet",
      "type": "event"
    },
    {
      "anonymous": false,
      "inputs": [
        {
          "indexed": false,
          "internalType": "uint256",
          "name": "feeBasisPoints",
          "type": "uint256"
        }
      ],
      "name": "FeeUpdated",
      "type": "event"
    },
    {
      "anonymous": false,
      "inputs": [
        {
          "indexed": true,
          "internalType": "address",
          "name": "merchant",
          "type": "address"
        }
      ],
      "name": "MerchantDeregistered",
      "type": "event"
    },
    {
      "anonymous": false,
      "inputs": [
        {
          "indexed": true,
          "internalType": "address",
          "name": "merchant",
          "type": "address"
        },
        {
          "indexed": false,
          "internalType": "string",
          "name": "businessName",
          "type": "string"
        },
        {
          "indexed": false,
          "internalType": "string",
          "name": "category",
          "type": "string"
        }
      ],
      "name": "MerchantRegistered",
      "type": "event"
    },
    {
      "anonymous": false,
      "inputs": [
        {
          "indexed": true,
          "internalType": "address",
          "name": "merchant",
          "type": "address"
        }
      ],
      "name": "MerchantReinstated",
      "type": "event"
    },
    {
      "anonymous": false,
      "inputs": [
        {
          "indexed": true,
          "internalType": "address",
          "name": "merchant",
          "type": "address"
        },
        {
          "indexed": false,
          "internalType": "string",
          "name": "reason",
          "type": "string"
        }
      ],
      "name": "MerchantSuspended",
      "type": "event"
    },
    {
      "anonymous": false,
      "inputs": [
        {
          "indexed": true,
          "internalType": "address",
          "name": "merchant",
          "type": "address"
        },
        {
          "indexed": false,
          "internalType": "string",
          "name": "businessName",
          "type": "string"
        },
        {
          "indexed": false,
          "internalType": "string",
          "name": "category",
          "type": "string"
        }
      ],
      "name": "MerchantUpdated",
      "type": "event"
    },
    {
      "anonymous": false,
      "inputs": [
        {
          "indexed": false,
          "internalType": "uint16",
          "name": "minScore",
          "type": "uint16"
        }
      ],
      "name": "MinScoreUpdated",
      "type": "event"
    },
    {
      "anonymous": false,
      "inputs": [
        {
          "indexed": false,
          "internalType": "address",
          "name": "vaultHub",
          "type": "address"
        },
        {
          "indexed": false,
          "internalType": "address",
          "name": "seer",
          "type": "address"
        },
        {
          "indexed": false,
          "internalType": "address",
          "name": "securityHub",
          "type": "address"
        },
        {
          "indexed": false,
          "internalType": "address",
          "name": "ledger",
          "type": "address"
        }
      ],
      "name": "ModulesSet",
      "type": "event"
    },
    {
      "anonymous": false,
      "inputs": [
        {
          "indexed": true,
          "internalType": "address",
          "name": "previousOwner",
          "type": "address"
        },
        {
          "indexed": true,
          "internalType": "address",
          "name": "newOwner",
          "type": "address"
        }
      ],
      "name": "OwnershipTransferStarted",
      "type": "event"
    },
    {
      "anonymous": false,
      "inputs": [
        {
          "indexed": true,
          "internalType": "address",
          "name": "previousOwner",
          "type": "address"
        },
        {
          "indexed": true,
          "internalType": "address",
          "name": "newOwner",
          "type": "address"
        }
      ],
      "name": "OwnershipTransferred",
      "type": "event"
    },
    {
      "anonymous": false,
      "inputs": [
        {
          "indexed": true,
          "internalType": "address",
          "name": "customer",
          "type": "address"
        },
        {
          "indexed": true,
          "internalType": "address",
          "name": "merchant",
          "type": "address"
        },
        {
          "indexed": false,
          "internalType": "address",
          "name": "token",
          "type": "address"
        },
        {
          "indexed": false,
          "internalType": "uint256",
          "name": "amount",
          "type": "uint256"
        },
        {
          "indexed": false,
          "internalType": "uint256",
          "name": "fee",
          "type": "uint256"
        },
        {
          "indexed": false,
          "internalType": "string",
          "name": "orderId",
          "type": "string"
        },
        {
          "indexed": false,
          "internalType": "uint16",
          "name": "customerScore",
          "type": "uint16"
        },
        {
          "indexed": false,
          "internalType": "enum PaymentChannel",
          "name": "channel",
          "type": "uint8"
        }
      ],
      "name": "PaymentProcessed",
      "type": "event"
    },
    {
      "anonymous": false,
      "inputs": [
        {
          "indexed": true,
          "internalType": "address",
          "name": "customer",
          "type": "address"
        },
        {
          "indexed": true,
          "internalType": "address",
          "name": "merchant",
          "type": "address"
        },
        {
          "indexed": false,
          "internalType": "address",
          "name": "token",
          "type": "address"
        },
        {
          "indexed": false,
          "internalType": "uint256",
          "name": "amount",
          "type": "uint256"
        },
        {
          "indexed": false,
          "internalType": "uint256",
          "name": "fee",
          "type": "uint256"
        },
        {
          "indexed": false,
          "internalType": "string",
          "name": "orderId",
          "type": "string"
        },
        {
          "indexed": false,
          "internalType": "uint16",
          "name": "customerScore",
          "type": "uint16"
        },
        {
          "indexed": false,
          "internalType": "enum PaymentChannel",
          "name": "channel",
          "type": "uint8"
        }
      ],
      "name": "PaymentWithChannel",
      "type": "event"
    },
    {
      "anonymous": false,
      "inputs": [
        {
          "indexed": true,
          "internalType": "address",
          "name": "customer",
          "type": "address"
        },
        {
          "indexed": true,
          "internalType": "address",
          "name": "merchant",
          "type": "address"
        },
        {
          "indexed": false,
          "internalType": "string",
          "name": "orderId",
          "type": "string"
        },
        {
          "indexed": false,
          "internalType": "uint256",
          "name": "amount",
          "type": "uint256"
        }
      ],
      "name": "RefundCompleted",
      "type": "event"
    },
    {
      "anonymous": false,
      "inputs": [
        {
          "indexed": true,
          "internalType": "address",
          "name": "customer",
          "type": "address"
        },
        {
          "indexed": true,
          "internalType": "address",
          "name": "merchant",
          "type": "address"
        },
        {
          "indexed": false,
          "internalType": "string",
          "name": "orderId",
          "type": "string"
        },
        {
          "indexed": false,
          "internalType": "uint256",
          "name": "amount",
          "type": "uint256"
        }
      ],
      "name": "RefundInitiated",
      "type": "event"
    },
    {
      "inputs": [],
      "name": "acceptOwnership",
      "outputs": [],
      "stateMutability": "nonpayable",
      "type": "function"
    },
    {
      "inputs": [
        {
          "internalType": "address",
          "name": "",
          "type": "address"
        }
      ],
      "name": "acceptedTokens",
      "outputs": [
        {
          "internalType": "bool",
          "name": "",
          "type": "bool"
        }
      ],
      "stateMutability": "view",
      "type": "function"
    },
    {
      "inputs": [
        {
          "internalType": "address",
          "name": "",
          "type": "address"
        }
      ],
      "name": "autoConvert",
      "outputs": [
        {
          "internalType": "bool",
          "name": "",
          "type": "bool"
        }
      ],
      "stateMutability": "view",
      "type": "function"
    },
    {
      "inputs": [
        {
          "internalType": "uint256",
          "name": "amount",
          "type": "uint256"
        }
      ],
      "name": "calculateFee",
      "outputs": [
        {
          "internalType": "uint256",
          "name": "fee",
          "type": "uint256"
        },
        {
          "internalType": "uint256",
          "name": "netAmount",
          "type": "uint256"
        }
      ],
      "stateMutability": "view",
      "type": "function"
    },
    {
      "inputs": [],
      "name": "cancelOwnershipTransfer",
      "outputs": [],
      "stateMutability": "nonpayable",
      "type": "function"
    },
    {
      "inputs": [
        {
          "internalType": "bytes32",
          "name": "refundId",
          "type": "bytes32"
        }
      ],
      "name": "completeRefund",
      "outputs": [],
      "stateMutability": "nonpayable",
      "type": "function"
    },
    {
      "inputs": [],
      "name": "dao",
      "outputs": [
        {
          "internalType": "address",
          "name": "",
          "type": "address"
        }
      ],
      "stateMutability": "view",
      "type": "function"
    },
    {
      "inputs": [],
      "name": "deregisterMerchant",
      "outputs": [],
      "stateMutability": "nonpayable",
      "type": "function"
    },
    {
      "inputs": [],
      "name": "feeSink",
      "outputs": [
        {
          "internalType": "address",
          "name": "",
          "type": "address"
        }
      ],
      "stateMutability": "view",
      "type": "function"
    },
    {
      "inputs": [
        {
          "internalType": "address",
          "name": "customer",
          "type": "address"
        }
      ],
      "name": "getCustomerTrustScore",
      "outputs": [
        {
          "internalType": "uint16",
          "name": "score",
          "type": "uint16"
        },
        {
          "internalType": "bool",
          "name": "highTrust",
          "type": "bool"
        },
        {
          "internalType": "bool",
          "name": "lowTrust",
          "type": "bool"
        },
        {
          "internalType": "bool",
          "name": "eligible",
          "type": "bool"
        }
      ],
      "stateMutability": "view",
      "type": "function"
    },
    {
      "inputs": [],
      "name": "getMerchantCount",
      "outputs": [
        {
          "internalType": "uint256",
          "name": "",
          "type": "uint256"
        }
      ],
      "stateMutability": "view",
      "type": "function"
    },
    {
      "inputs": [
        {
          "internalType": "address",
          "name": "merchant",
          "type": "address"
        }
      ],
      "name": "getMerchantInfo",
      "outputs": [
        {
          "internalType": "bool",
          "name": "registered",
          "type": "bool"
        },
        {
          "internalType": "bool",
          "name": "suspended",
          "type": "bool"
        },
        {
          "internalType": "string",
          "name": "businessName",
          "type": "string"
        },
        {
          "internalType": "string",
          "name": "category",
          "type": "string"
        },
        {
          "internalType": "uint64",
          "name": "registeredAt",
          "type": "uint64"
        },
        {
          "internalType": "uint256",
          "name": "totalVolume",
          "type": "uint256"
        },
        {
          "internalType": "uint256",
          "name": "txCount",
          "type": "uint256"
        }
      ],
      "stateMutability": "view",
      "type": "function"
    },
    {
      "inputs": [
        {
          "internalType": "address",
          "name": "merchant",
          "type": "address"
        }
      ],
      "name": "getMerchantRefundRate",
      "outputs": [
        {
          "internalType": "uint256",
          "name": "refundCount",
          "type": "uint256"
        },
        {
          "internalType": "uint256",
          "name": "refundVolume",
          "type": "uint256"
        },
        {
          "internalType": "uint256",
          "name": "refundRate",
          "type": "uint256"
        }
      ],
      "stateMutability": "view",
      "type": "function"
    },
    {
      "inputs": [
        {
          "internalType": "address",
          "name": "merchant",
          "type": "address"
        }
      ],
      "name": "getMerchantStats",
      "outputs": [
        {
          "internalType": "bool",
          "name": "registered",
          "type": "bool"
        },
        {
          "internalType": "bool",
          "name": "suspended",
          "type": "bool"
        },
        {
          "internalType": "uint256",
          "name": "totalVolume",
          "type": "uint256"
        },
        {
          "internalType": "uint256",
          "name": "txCount",
          "type": "uint256"
        },
        {
          "internalType": "uint256",
          "name": "avgTxSize",
          "type": "uint256"
        },
        {
          "internalType": "uint16",
          "name": "trustScore",
          "type": "uint16"
        }
      ],
      "stateMutability": "view",
      "type": "function"
    },
    {
      "inputs": [
        {
          "internalType": "bytes32",
          "name": "refundId",
          "type": "bytes32"
        }
      ],
      "name": "getRefundStatus",
      "outputs": [
        {
          "internalType": "address",
          "name": "customer",
          "type": "address"
        },
        {
          "internalType": "address",
          "name": "merchant",
          "type": "address"
        },
        {
          "internalType": "address",
          "name": "token",
          "type": "address"
        },
        {
          "internalType": "uint256",
          "name": "amount",
          "type": "uint256"
        },
        {
          "internalType": "string",
          "name": "orderId",
          "type": "string"
        },
        {
          "internalType": "uint64",
          "name": "requestTime",
          "type": "uint64"
        },
        {
          "internalType": "bool",
          "name": "approved",
          "type": "bool"
        },
        {
          "internalType": "bool",
          "name": "completed",
          "type": "bool"
        }
      ],
      "stateMutability": "view",
      "type": "function"
    },
    {
      "inputs": [
        {
          "internalType": "address",
          "name": "customer",
          "type": "address"
        }
      ],
      "name": "getRefundsForCustomer",
      "outputs": [
        {
          "internalType": "bytes32[]",
          "name": "",
          "type": "bytes32[]"
        }
      ],
      "stateMutability": "view",
      "type": "function"
    },
    {
      "inputs": [
        {
          "internalType": "address",
          "name": "merchant",
          "type": "address"
        }
      ],
      "name": "getRefundsForMerchant",
      "outputs": [
        {
          "internalType": "bytes32[]",
          "name": "",
          "type": "bytes32[]"
        }
      ],
      "stateMutability": "view",
      "type": "function"
    },
    {
      "inputs": [
        {
          "internalType": "address",
          "name": "customer",
          "type": "address"
        },
        {
          "internalType": "address",
          "name": "token",
          "type": "address"
        },
        {
          "internalType": "uint256",
          "name": "amount",
          "type": "uint256"
        },
        {
          "internalType": "string",
          "name": "orderId",
          "type": "string"
        }
      ],
      "name": "initiateRefund",
      "outputs": [
        {
          "internalType": "bytes32",
          "name": "refundId",
          "type": "bytes32"
        }
      ],
      "stateMutability": "nonpayable",
      "type": "function"
    },
    {
      "inputs": [
        {
          "internalType": "address",
          "name": "token",
          "type": "address"
        }
      ],
      "name": "isTokenAccepted",
      "outputs": [
        {
          "internalType": "bool",
          "name": "",
          "type": "bool"
        }
      ],
      "stateMutability": "view",
      "type": "function"
    },
    {
      "inputs": [],
      "name": "ledger",
      "outputs": [
        {
          "internalType": "contract IProofLedger",
          "name": "",
          "type": "address"
        }
      ],
      "stateMutability": "view",
      "type": "function"
    },
    {
      "inputs": [
        {
          "internalType": "uint256",
          "name": "",
          "type": "uint256"
        }
      ],
      "name": "merchantList",
      "outputs": [
        {
          "internalType": "address",
          "name": "",
          "type": "address"
        }
      ],
      "stateMutability": "view",
      "type": "function"
    },
    {
      "inputs": [
        {
          "internalType": "address",
          "name": "",
          "type": "address"
        }
      ],
      "name": "merchants",
      "outputs": [
        {
          "internalType": "bool",
          "name": "registered",
          "type": "bool"
        },
        {
          "internalType": "bool",
          "name": "suspended",
          "type": "bool"
        },
        {
          "internalType": "string",
          "name": "businessName",
          "type": "string"
        },
        {
          "internalType": "string",
          "name": "category",
          "type": "string"
        },
        {
          "internalType": "uint64",
          "name": "registeredAt",
          "type": "uint64"
        },
        {
          "internalType": "uint256",
          "name": "totalVolume",
          "type": "uint256"
        },
        {
          "internalType": "uint256",
          "name": "txCount",
          "type": "uint256"
        },
        {
          "internalType": "address",
          "name": "payoutAddress",
          "type": "address"
        }
      ],
      "stateMutability": "view",
      "type": "function"
    },
    {
      "inputs": [],
      "name": "minMerchantScore",
      "outputs": [
        {
          "internalType": "uint16",
          "name": "",
          "type": "uint16"
        }
      ],
      "stateMutability": "view",
      "type": "function"
    },
    {
      "inputs": [],
      "name": "minSwapOutputBps",
      "outputs": [
        {
          "internalType": "uint256",
          "name": "",
          "type": "uint256"
        }
      ],
      "stateMutability": "view",
      "type": "function"
    },
    {
      "inputs": [],
      "name": "owner",
      "outputs": [
        {
          "internalType": "address",
          "name": "",
          "type": "address"
        }
      ],
      "stateMutability": "view",
      "type": "function"
    },
    {
      "inputs": [
        {
          "internalType": "address",
          "name": "merchant",
          "type": "address"
        },
        {
          "internalType": "address",
          "name": "token",
          "type": "address"
        },
        {
          "internalType": "uint256",
          "name": "amount",
          "type": "uint256"
        },
        {
          "internalType": "string",
          "name": "orderId",
          "type": "string"
        }
      ],
      "name": "pay",
      "outputs": [
        {
          "internalType": "uint256",
          "name": "netAmount",
          "type": "uint256"
        }
      ],
      "stateMutability": "nonpayable",
      "type": "function"
    },
    {
      "inputs": [
        {
          "internalType": "address",
          "name": "merchant",
          "type": "address"
        },
        {
          "internalType": "address",
          "name": "token",
          "type": "address"
        },
        {
          "internalType": "uint256",
          "name": "amount",
          "type": "uint256"
        },
        {
          "internalType": "string",
          "name": "orderId",
          "type": "string"
        },
        {
          "internalType": "enum PaymentChannel",
          "name": "channel",
          "type": "uint8"
        }
      ],
      "name": "payInPerson",
      "outputs": [
        {
          "internalType": "uint256",
          "name": "netAmount",
          "type": "uint256"
        }
      ],
      "stateMutability": "nonpayable",
      "type": "function"
    },
    {
      "inputs": [
        {
          "internalType": "address",
          "name": "merchant",
          "type": "address"
        },
        {
          "internalType": "address",
          "name": "token",
          "type": "address"
        },
        {
          "internalType": "uint256",
          "name": "amount",
          "type": "uint256"
        },
        {
          "internalType": "string",
          "name": "invoiceId",
          "type": "string"
        }
      ],
      "name": "payInvoice",
      "outputs": [
        {
          "internalType": "uint256",
          "name": "netAmount",
          "type": "uint256"
        }
      ],
      "stateMutability": "nonpayable",
      "type": "function"
    },
    {
      "inputs": [
        {
          "internalType": "address",
          "name": "merchant",
          "type": "address"
        },
        {
          "internalType": "address",
          "name": "token",
          "type": "address"
        },
        {
          "internalType": "uint256",
          "name": "amount",
          "type": "uint256"
        },
        {
          "internalType": "string",
          "name": "orderId",
          "type": "string"
        }
      ],
      "name": "payOnline",
      "outputs": [
        {
          "internalType": "uint256",
          "name": "",
          "type": "uint256"
        }
      ],
      "stateMutability": "pure",
      "type": "function"
    },
    {
      "inputs": [
        {
          "internalType": "address",
          "name": "merchant",
          "type": "address"
        },
        {
          "internalType": "address",
          "name": "token",
          "type": "address"
        },
        {
          "internalType": "uint256",
          "name": "amount",
          "type": "uint256"
        },
        {
          "internalType": "string",
          "name": "subscriptionId",
          "type": "string"
        }
      ],
      "name": "paySubscription",
      "outputs": [
        {
          "internalType": "uint256",
          "name": "netAmount",
          "type": "uint256"
        }
      ],
      "stateMutability": "nonpayable",
      "type": "function"
    },
    {
      "inputs": [],
      "name": "pendingOwner",
      "outputs": [
        {
          "internalType": "address",
          "name": "",
          "type": "address"
        }
      ],
      "stateMutability": "view",
      "type": "function"
    },
    {
      "inputs": [
        {
          "internalType": "address",
          "name": "customer",
          "type": "address"
        },
        {
          "internalType": "address",
          "name": "token",
          "type": "address"
        },
        {
          "internalType": "uint256",
          "name": "amount",
          "type": "uint256"
        },
        {
          "internalType": "string",
          "name": "orderId",
          "type": "string"
        }
      ],
      "name": "processPayment",
      "outputs": [
        {
          "internalType": "uint256",
          "name": "netAmount",
          "type": "uint256"
        }
      ],
      "stateMutability": "nonpayable",
      "type": "function"
    },
    {
      "inputs": [],
      "name": "protocolFeeBps",
      "outputs": [
        {
          "internalType": "uint256",
          "name": "",
          "type": "uint256"
        }
      ],
      "stateMutability": "view",
      "type": "function"
    },
    {
      "inputs": [
        {
          "internalType": "bytes32",
          "name": "",
          "type": "bytes32"
        }
      ],
      "name": "refundRequests",
      "outputs": [
        {
          "internalType": "address",
          "name": "customer",
          "type": "address"
        },
        {
          "internalType": "address",
          "name": "merchant",
          "type": "address"
        },
        {
          "internalType": "address",
          "name": "token",
          "type": "address"
        },
        {
          "internalType": "uint256",
          "name": "amount",
          "type": "uint256"
        },
        {
          "internalType": "string",
          "name": "orderId",
          "type": "string"
        },
        {
          "internalType": "uint64",
          "name": "requestTime",
          "type": "uint64"
        },
        {
          "internalType": "bool",
          "name": "approved",
          "type": "bool"
        },
        {
          "internalType": "bool",
          "name": "completed",
          "type": "bool"
        }
      ],
      "stateMutability": "view",
      "type": "function"
    },
    {
      "inputs": [
        {
          "internalType": "string",
          "name": "businessName",
          "type": "string"
        },
        {
          "internalType": "string",
          "name": "category",
          "type": "string"
        }
      ],
      "name": "registerMerchant",
      "outputs": [],
      "stateMutability": "nonpayable",
      "type": "function"
    },
    {
      "inputs": [
        {
          "internalType": "address",
          "name": "merchant",
          "type": "address"
        }
      ],
      "name": "reinstateMerchant",
      "outputs": [],
      "stateMutability": "nonpayable",
      "type": "function"
    },
    {
      "inputs": [],
      "name": "securityHub",
      "outputs": [
        {
          "internalType": "contract ISecurityHub",
          "name": "",
          "type": "address"
        }
      ],
      "stateMutability": "view",
      "type": "function"
    },
    {
      "inputs": [],
      "name": "seer",
      "outputs": [
        {
          "internalType": "contract ISeer",
          "name": "",
          "type": "address"
        }
      ],
      "stateMutability": "view",
      "type": "function"
    },
    {
      "inputs": [
        {
          "internalType": "address",
          "name": "token",
          "type": "address"
        },
        {
          "internalType": "bool",
          "name": "accepted",
          "type": "bool"
        }
      ],
      "name": "setAcceptedToken",
      "outputs": [],
      "stateMutability": "nonpayable",
      "type": "function"
    },
    {
      "inputs": [
        {
          "internalType": "bool",
          "name": "enabled",
          "type": "bool"
        }
      ],
      "name": "setAutoConvert",
      "outputs": [],
      "stateMutability": "nonpayable",
      "type": "function"
    },
    {
      "inputs": [
        {
          "internalType": "address",
          "name": "_sink",
          "type": "address"
        }
      ],
      "name": "setFeeSink",
      "outputs": [],
      "stateMutability": "nonpayable",
      "type": "function"
    },
    {
      "inputs": [
        {
          "internalType": "uint16",
          "name": "_minScore",
          "type": "uint16"
        }
      ],
      "name": "setMinMerchantScore",
      "outputs": [],
      "stateMutability": "nonpayable",
      "type": "function"
    },
    {
      "inputs": [
        {
          "internalType": "uint256",
          "name": "_minBps",
          "type": "uint256"
        }
      ],
      "name": "setMinSwapOutput",
      "outputs": [],
      "stateMutability": "nonpayable",
      "type": "function"
    },
    {
      "inputs": [
        {
          "internalType": "address",
          "name": "_vaultHub",
          "type": "address"
        },
        {
          "internalType": "address",
          "name": "_seer",
          "type": "address"
        },
        {
          "internalType": "address",
          "name": "_securityHub",
          "type": "address"
        },
        {
          "internalType": "address",
          "name": "_ledger",
          "type": "address"
        }
      ],
      "name": "setModules",
      "outputs": [],
      "stateMutability": "nonpayable",
      "type": "function"
    },
    {
      "inputs": [
        {
          "internalType": "address",
          "name": "payout",
          "type": "address"
        }
      ],
      "name": "setPayoutAddress",
      "outputs": [],
      "stateMutability": "nonpayable",
      "type": "function"
    },
    {
      "inputs": [
        {
          "internalType": "uint256",
          "name": "_feeBps",
          "type": "uint256"
        }
      ],
      "name": "setProtocolFee",
      "outputs": [],
      "stateMutability": "nonpayable",
      "type": "function"
    },
    {
      "inputs": [
        {
          "internalType": "address",
          "name": "_router",
          "type": "address"
        },
        {
          "internalType": "address",
          "name": "_stable",
          "type": "address"
        }
      ],
      "name": "setSwapConfig",
      "outputs": [],
      "stateMutability": "nonpayable",
      "type": "function"
    },
    {
      "inputs": [
        {
          "internalType": "address",
          "name": "token",
          "type": "address"
        },
        {
          "internalType": "address[]",
          "name": "path",
          "type": "address[]"
        }
      ],
      "name": "setSwapPath",
      "outputs": [],
      "stateMutability": "nonpayable",
      "type": "function"
    },
    {
      "inputs": [],
      "name": "stablecoin",
      "outputs": [
        {
          "internalType": "address",
          "name": "",
          "type": "address"
        }
      ],
      "stateMutability": "view",
      "type": "function"
    },
    {
      "inputs": [
        {
          "internalType": "address",
          "name": "merchant",
          "type": "address"
        },
        {
          "internalType": "string",
          "name": "reason",
          "type": "string"
        }
      ],
      "name": "suspendMerchant",
      "outputs": [],
      "stateMutability": "nonpayable",
      "type": "function"
    },
    {
      "inputs": [],
      "name": "swapRouter",
      "outputs": [
        {
          "internalType": "contract ISwapRouter",
          "name": "",
          "type": "address"
        }
      ],
      "stateMutability": "view",
      "type": "function"
    },
    {
      "inputs": [
        {
          "internalType": "address",
          "name": "",
          "type": "address"
        },
        {
          "internalType": "uint256",
          "name": "",
          "type": "uint256"
        }
      ],
      "name": "tokenSwapPaths",
      "outputs": [
        {
          "internalType": "address",
          "name": "",
          "type": "address"
        }
      ],
      "stateMutability": "view",
      "type": "function"
    },
    {
      "inputs": [
        {
          "internalType": "address",
          "name": "newOwner",
          "type": "address"
        }
      ],
      "name": "transferOwnership",
      "outputs": [],
      "stateMutability": "nonpayable",
      "type": "function"
    },
    {
      "inputs": [
        {
          "internalType": "string",
          "name": "businessName",
          "type": "string"
        },
        {
          "internalType": "string",
          "name": "category",
          "type": "string"
        }
      ],
      "name": "updateMerchantInfo",
      "outputs": [],
      "stateMutability": "nonpayable",
      "type": "function"
    },
    {
      "inputs": [],
      "name": "vaultHub",
      "outputs": [
        {
          "internalType": "contract IVaultHub",
          "name": "",
          "type": "address"
        }
      ],
      "stateMutability": "view",
      "type": "function"
    }
  ],
  "bytecode": "0x60803461027957601f614e3c38819003918201601f19168301916001600160401b0383118484101761027e5780849260c0946040528339810103126102795761004781610294565b61005360208301610294565b9061006060408401610294565b9161006d60608501610294565b9261008660a061007f60808801610294565b9601610294565b600080546001600160a01b0319163390811782556040519392917f8be0079c531659141344cd1fd0a4f28419497f9722a3daafe3b4186f6b6457e08180a36001600255600060085560095461251c601055946001600160a01b03169283151580610267575b1561023e57506001600160a01b03169384156101ea57600780546001600160a01b031990811690941790556003805484166001600160a01b039586169081179091556004805485169386169384179055600580548516978616978817905560068054909416949097169384179092556001600160b01b0319909116831760af60a51b176009556040805195865260208681019290925285019390935260608401527f93f45e69cdabde5c8296469e04ee6765b806aa9c3ef27883e43d1c3d227c4f22927f2ad69807131f242e4c6b9e21338b8d7d7d5f32ab1dfaa1eddfa881c305c8f5e790608090a1604051908152a1604051614b9390816102a98239f35b60405162461bcd60e51b815260206004820152602660248201527f4d65726368616e74506f7274616c3a2066656553696e6b2063616e6e6f74206260448201526565207a65726f60d01b6064820152608490fd5b60649062461bcd60e51b81526020600482015260046024820152637a65726f60e01b6044820152fd5b506001600160a01b03851615156100eb565b600080fd5b634e487b7160e01b600052604160045260246000fd5b51906001600160a01b03821682036102795756fe608080604052600436101561001357600080fd5b60003560e01c9081630560bd9614613d7757508063072d74c614613ccd5780630e733ef114613c155780631a8ce5ed14613b905780631b705d94146137e15780631b795d56146137b857806322b62ba01461374157806323452b9c146137165780632522fc3b1461368f5780632d55ea3914613666578063311b39651461324657806333ea51a8146131f457806335659fb8146131d6578063395603b614612e355780633a04259f14612b1d5780633a69e272146129c35780633e03c062146128dd5780634162169f146128b45780634384c7461461289657806344d4aeb014612878578063464a0aee1461281557806349d2cfdb1461271b5780634ad9816f146124d85780634b38474d146124af57806355e65c39146123b357806356397c351461238a578063614b18001461234b578063679e9e69146122815780636dd6e80b1461225857806376fac57514612233578063787dce3d1461217457806379ba5097146120c957806382dc4a051461208a57806384a602321461187757806385f7e641146118325780638da5cb5b1461180957806397f735fd1461147257806399a5d74714611436578063ab3bd7181461134b578063b079fbff14611213578063b435dee114611113578063b72d2943146110ea578063bbe96b0014610da2578063c31c9c0714610d79578063c997dbca14610caa578063d8cda7f714610c23578063da62e06414610b83578063df6d21f014610905578063e30c3978146108dc578063e314c30414610892578063e7327a7b1461086e578063e9cbd82214610845578063ee14e93914610777578063f2fde38b146106d05763f809d8241461027c57600080fd5b346106cb5761028a36614089565b9093916102956146e3565b6001600160a01b0383166000818152600a602052604090205490939060ff16156106ba5783600052600a60205260ff60406000205460081c166106a9576102db906149c7565b6001600160a01b03841694600090861580156106a1575b61069257868252600c60205261030e60ff604084205416614504565b6004546001600160a01b0316801561068857602060249160405192838092630d47875d60e41b82523360048301525afa90811561067d57839161064e575b50945b600354604051630709df4560e01b81523360048201526001600160a01b039091169790936020856024818c5afa948515610641578195610620575b506001600160a01b0385166103a0811515614545565b6005546001600160a01b031680151591826105b1575b50506105a257828152600a60205260408120600601546001600160a01b031698891561052f575b50506127106103ee60085487614218565b04936103fa85876144c5565b9883600052600a602052600560406000206004810161041a8a825461420b565b9055019889549b60018d01809d116105195784600080516020614b3e8339815191528b60209f8f6104da9f878f936104d39f938f9b8f9a61048791600080516020614afe8339815191529f849261049d9961048d9760049a5580151580610505575b6104e7575b50614755565b856144c5565b948a604051968796339a886145bd565b0390a36104c060046104af8d8b6144c5565b928b6040519586958d339a886145bd565b0390a36104cb614608565b93369161411a565b91336148d8565b6001600255604051908152f35b6009546104ff91906001600160a01b03168484614755565b38610481565b506009546001600160a01b0316151561047c565b634e487b7160e01b600052601160045260246000fd5b8192995060209060246040518094819363e01fd21560e01b83528860048401525af19182156105965791610567575b509638806103dd565b610589915060203d60201161058f575b6105818183613e75565b8101906140fb565b3861055e565b503d610577565b604051903d90823e3d90fd5b63f456a04f60e01b8152600490fd5b6020919250602460405180948193631293efbb60e21b835260048301525afa9081156106155782916105e6575b5038806103b6565b610608915060203d60201161060e575b6106008183613e75565b810190614265565b386105de565b503d6105f6565b6040513d84823e3d90fd5b61063a91955060203d60201161058f576105818183613e75565b933861038a565b50604051903d90823e3d90fd5b610670915060203d602011610676575b6106688183613e75565b81019061424b565b3861034c565b503d61065e565b6040513d85823e3d90fd5b506101f49461034f565b63b313ad1360e01b8252600482fd5b5082156102f2565b637f37ade960e11b60005260046000fd5b63515fd07b60e11b60005260046000fd5b600080fd5b346106cb5760203660031901126106cb576106e9613db2565b6106f161497d565b6001600160a01b0316801561074657600180546001600160a01b03191682179055600080546001600160a01b0316907f38d16b8cac22d99fc7c124b9cd0de2d3fa1faef420bfe791d8c362d765e227009080a3005b60405162461bcd60e51b81526020600482015260096024820152684f574e3a207a65726f60b81b6044820152606490fd5b346106cb5760203660031901126106cb576001600160a01b03610798613db2565b16600052600a60205260ff60406000208054906107b760018201613e96565b6107c360028301613e96565b916001600160401b036003820154169261082c60048301549161081e600585015494600660018060a01b0391015416956040519989818c9b1615158b5260081c16151560208a015261010060408a0152610100890190613dde565b908782036060890152613dde565b93608086015260a085015260c084015260e08301520390f35b346106cb5760003660031901126106cb57600e546040516001600160a01b039091168152602090f35b346106cb5761087c36614089565b5050505050635525d35560e11b60005260046000fd5b346106cb5760203660031901126106cb5760043580151581036106cb576108da906108bb614ab8565b33600052600f60205260406000209060ff801983541691151516179055565b005b346106cb5760003660031901126106cb576001546040516001600160a01b039091168152602090f35b346106cb5760403660031901126106cb5761091e613db2565b6024356001600160401b0381116106cb57366023820112156106cb578060040135906001600160401b0382116106cb5760248101923660248460051b840101116106cb5761096a61464a565b6001600160a01b0316908115610b515760028310610b1b578215610aca57816001600160a01b0361099a86614636565b1603610ae05760001983018381116105195783811015610aca576109c59160249160051b0101614636565b600e546001600160a01b03908116911603610a915760005260116020526040600020600092600160401b8311610a7d578154838355808410610a62575b5090835260208320835b838110610a475784610a44604051610a25604082613e75565b600d81526c1cddd85c17dc185d1a17dcd95d609a1b602082015261466f565b80f35b6001906020610a5585614636565b9401938184015501610a0c565b82855260208520610a77918101908501614151565b84610a02565b634e487b7160e01b84526041600452602484fd5b60405162461bcd60e51b81526020600482015260116024820152700e0c2e8d040cadcc840dad2e6dac2e8c6d607b1b6044820152606490fd5b634e487b7160e01b600052603260045260246000fd5b60405162461bcd60e51b81526020600482015260136024820152720e0c2e8d040e6e8c2e4e840dad2e6dac2e8c6d606b1b6044820152606490fd5b60405162461bcd60e51b815260206004820152600e60248201526d1c185d1a081d1bdbc81cda1bdc9d60921b6044820152606490fd5b60405162461bcd60e51b815260206004820152600a6024820152693d32b937903a37b5b2b760b11b6044820152606490fd5b346106cb5760203660031901126106cb577f93f45e69cdabde5c8296469e04ee6765b806aa9c3ef27883e43d1c3d227c4f226020610bbf613db2565b610bc761464a565b6001600160a01b0316610bdb8115156144d2565b600980546001600160a01b03191682179055604051908152a16108da604051610c05604082613e75565b600c81526b19995957dcda5b9ad7dcd95d60a21b602082015261466f565b346106cb5760203660031901126106cb576001600160a01b03610c44613db2565b166000526014602052604060002060405190816020825491828152019160005260206000209060005b818110610c9457610c9085610c8481870382613e75565b60405191829182613fd2565b0390f35b8254845260209093019260019283019201610c6d565b346106cb5760403660031901126106cb57610cc3613db2565b6024359081151582036106cb57610cd861464a565b6001600160a01b0316610cec8115156144d2565b600052600c602052610d0e8160406000209060ff801983541691151516179055565b60009015610d4857506108da604051610d28604082613e75565b600e81526d1d1bdad95b97d858d8d95c1d195960921b602082015261466f565b506108da604051610d5a604082613e75565b600d81526c1d1bdad95b97dc995b5bdd9959609a1b602082015261466f565b346106cb5760003660031901126106cb57600d546040516001600160a01b039091168152602090f35b346106cb57610db036614089565b9291610dbd9491946146e3565b610dc5614ab8565b6001600160a01b03821693841580156110d9575b80156110d1575b6110c05733600052600a60205260406000209460ff865460081c166106a957610e08336149c7565b6004546001600160a01b031680156110b657602060249160405192838092630d47875d60e41b82528660048301525afa90811561100457600091611097575b50965b60018060a01b0386169586600052600c602052610e6e60ff60406000205416614504565b600354604051630709df4560e01b81526004810185905293906001600160a01b0316602085602481845afa94851561100457600095611076575b506001600160a01b038516610ebe811515614545565b6005546001600160a01b03168015159182611021575b505061101057602060009160246040518094819363e01fd21560e01b83523360048401525af190811561100457600091610fe5575b50612710610f1960085489614218565b04986005610f278b8a6144c5565b9b60048101610f378b825461420b565b905501998a54600181018091116105195760209d610f8a8e600080516020614afe833981519152966104da9f9b8b97610f9a96610fad9e55610f78336149c7565b87151580610fd1575b610fb357614755565b896040519485948d339a8761457c565b0390a3610fa5614608565b92369161411a565b926148d8565b600954610fcc9089906001600160a01b03168484614755565b614755565b506009546001600160a01b03161515610f81565b610ffe915060203d60201161058f576105818183613e75565b8b610f09565b6040513d6000823e3d90fd5b63f456a04f60e01b60005260046000fd5b6020919250602460405180948193631293efbb60e21b835260048301525afa90811561100457600091611057575b508c80610ed4565b611070915060203d60201161060e576106008183613e75565b8c61104f565b61109091955060203d60201161058f576105818183613e75565b938b610ea8565b6110b0915060203d602011610676576106688183613e75565b88610e47565b506101f496610e4a565b63b313ad1360e01b60005260046000fd5b508115610de0565b506001600160a01b03841615610dd9565b346106cb5760003660031901126106cb576005546040516001600160a01b039091168152602090f35b346106cb5760203660031901126106cb576001600160a01b03611134613db2565b166000818152600a6020526040902080546004820154600590920154929091831561120c57611163848261422b565b6004546001600160a01b03169283156111fa57602090602460405180968193630d47875d60e41b835260048301525afa9485156110045760c09561ffff946000916111db575b50925b60ff604051968181161515885260081c16151560208701526040860152606085015260808401521660a0820152f35b6111f4915060203d602011610676576106688183613e75565b876111a9565b5061ffff925060c094611388926111ac565b6000611163565b346106cb5760803660031901126106cb5761122c613db2565b611234613dc8565b6044356001600160a01b0381169291908390036106cb576064356001600160a01b038116908190036106cb577f2ad69807131f242e4c6b9e21338b8d7d7d5f32ab1dfaa1eddfa881c305c8f5e79360809361128d61464a565b6001600160a01b03169283151580611339575b6112a9906144d2565b600380546001600160a01b031990811686179091556004805482166001600160a01b039390931692831790556005805482168417905560068054909116841790556040805194855260208501919091528301526060820152a16108da604051611313604082613e75565b60148152731b595c98da185b9d17db5bd91d5b195cd7dcd95d60621b602082015261466f565b506001600160a01b03811615156112a0565b346106cb5760203660031901126106cb5760043561ffff8116908181036106cb5761137461464a565b6127108211611401576009805461ffff60a01b191660a09290921b61ffff60a01b169190911790556040519081527fae6362fa2cba18c7ba93fa3cb73d87a847b87359ffaa47e62dc75c57e5bd595890602090a16108da6040516113d9604082613e75565b60168152751b5a5b97db595c98da185b9d17dcd8dbdc9957dcd95d60521b602082015261466f565b60405162461bcd60e51b815260206004820152600d60248201526c696e76616c69642073636f726560981b6044820152606490fd5b346106cb5760203660031901126106cb57604060043561146661271061145e60085484614218565b0480926144c5565b82519182526020820152f35b346106cb5761148036614089565b919361148a614ab8565b6001600160a01b0381169485151580611800575b156117c3576040516020810190338252876040820152608060608201526114e1816114cd60a0820189896141c0565b42608083015203601f198101835282613e75565b51902093604051966114f288613e59565b8088526020880197338952604081019760018060a01b03168852606081019084825261151f36858961411a565b9860808201998a5260a08201926001600160401b034216845260c08301916001835260e0840193600085528b6000526012602052600160406000209e8f92828060a01b0390838060a01b0390511616828060a01b0319845416178355818060a01b0390511691019060018060a01b031660018060a01b031982541617905560018060a01b0390511660028d019060018060a01b031660018060a01b03198254161790555160038c015560048b0199519a8b519a6001600160401b038c116117ad578b60209d6115f8826115f28554613e1f565b85614168565b601f8f921160011461173457926001600160401b03939261162d6117239d9e9f806005958897600092611729575b50506141ad565b90555b9551950180549351945161ffff60401b199290961692909216166001600160501b031990921691909117911515604090811b60ff60401b169290921792151560481b60ff60481b1692909217909155600082815260138a5220611694908890614490565b33600052601488526116aa876040600020614490565b60405190604082527ffc19d89cb79b4d3134331c20d750cd920d5c126c2a714d7cb433cf21ffcf41556116e160408401858a6141c0565b92858b8201528033940390a3610fad6040958651926117008885613e75565b601084526f1c99599d5b9917da5b9a5d1a585d195960821b8a850152369161411a565b51908152f35b015190503880611626565b908d601f19169183600052816000209260005b81811061179557506117239d9e9f6005946001600160401b039794889794836001951061177c575b505050811b019055611630565b015160001960f88460031b161c1916905538808061176f565b92936020600181928786015181550195019301611747565b634e487b7160e01b600052604160045260246000fd5b60405162461bcd60e51b8152602060048201526015602482015274496e76616c696420726566756e6420706172616d7360581b6044820152606490fd5b5080151561149e565b346106cb5760003660031901126106cb576000546040516001600160a01b039091168152602090f35b346106cb5760203660031901126106cb576080611855611850613db2565b61427d565b9161ffff60405194168452151560208401521515604083015215156060820152f35b346106cb5761188536614089565b9092916118906146e3565b6001600160a01b0385166000818152600a602052604090205490939060ff16156106ba5783600052600a60205260ff60406000205460081c166106a9576118d6866149c7565b6001600160a01b0381169485158015612082575b6110c05785600052600c60205261190860ff60406000205416614504565b6004546001600160a01b0316801561207857602060249160405192838092630d47875d60e41b82523360048301525afa90811561100457600091612059575b50945b600354604051630709df4560e01b8152336004820152976001600160a01b039091169390602089602481885afa98891561100457600099612038575b506001600160a01b03891661199c811515614545565b6005546001600160a01b03168015159182611fe3575b5050611010576000838152600a60205260409020600601546001600160a01b0316948515611f8a575b506127106119eb60085488614218565b04946119f786886144c5565b9984600052600a6020526005604060002060048101611a178b825461420b565b90550180549060018201809211610519575586151580611f76575b611f58575b84600052600f60205260ff6040600020541680611f43575b80611f2f575b80611f1b575b15611eee578a611a6d91309085614755565b600d5460405163095ea7b360e01b81529060209082908190611a9d908f906001600160a01b031660048401614ae2565b03816000875af1801561100457611ed1575b50606082600052601160205260026040600020541015600014611e85575081600052601160205260406000206040518082602082945493848152019060005260206000209260005b818110611e63575050611b0c92500382613e75565b612710611b1b6010548d614218565b049060018060a01b03600d54169061012c420180421161051957908d93916040519485936338ed173960e01b855260a48501916004860152602485015260a060448501528251809152602060c4850193019060005b818110611e41575050506001600160a01b038616606484015260848301526000929082900390829084905af18091600091611d88575b5050611d005760018060a01b03600d5416916040519263095ea7b360e01b84526004840152600060248401526020836044816000855af1918215611004576000611c15611c238e83978497611ce3575b50604051928391602083019663a9059cbb60e01b885260248401614ae2565b03601f198101835282613e75565b51925af1611c2f614725565b81611cb4575b5015611c7257600080516020614afe833981519152836104d3956104c06104da9a611c6260209e5b6149c7565b8a6040519485948c33998761457c565b60405162461bcd60e51b815260206004820152601a60248201527914d85999515490cc8c0e881d1c985b9cd9995c8819985a5b195960321b6044820152606490fd5b8051801592508215611cc9575b50508a611c35565b611cdc9250602080918301019101614265565b8a80611cc1565b611cfb9060203d60201161060e576106008183613e75565b611bf6565b50986020600098959a604460018060a01b03600d54166040519b8c93849263095ea7b360e01b845260048401528160248401525af19081156110045760209a6104c06104d397611c6288946104da9d600080516020614afe83398151915297611d6a575b506149c7565b611d819060203d811161060e576106008183613e75565b5038611d64565b3d8083833e611d978183613e75565b810190602081830312611e3d578051906001600160401b038211611e3957019181601f84011215611e22578251926001600160401b038411611e25578360051b916020830194611dea6040519687613e75565b8552602080860193830101938411611e225750602001905b828210611e12575050508d611ba6565b8151815260209182019101611e02565b80fd5b634e487b7160e01b82526041600452602482fd5b8380fd5b8280fd5b82516001600160a01b0316855287955060209485019490920191600101611b70565b84546001600160a01b0316835260019485019486945060209093019201611af7565b604051611e928282613e75565b600281526020810191601f19013683378091815115610aca57849052600e5481516001600160a01b03909116919060011015610aca5760400152611b0c565b611ee99060203d60201161060e576106008183613e75565b611aaf565b956104c06104da9a611c6260209e611c5d8f8b976104d39d600080516020614afe8339815191529a614755565b50600e546001600160a01b03161515611a5b565b50600d546001600160a01b03161515611a55565b50600e546001600160a01b0316831415611a4f565b600954611f719088906001600160a01b03168386614755565b611a37565b506009546001600160a01b03161515611a32565b600091955060209060246040518094819363e01fd21560e01b83528860048401525af190811561100457600091611fc4575b50938a6119db565b611fdd915060203d60201161058f576105818183613e75565b8a611fbc565b6020919250602460405180948193631293efbb60e21b835260048301525afa90811561100457600091612019575b508b806119b2565b612032915060203d60201161060e576106008183613e75565b8b612011565b61205291995060203d60201161058f576105818183613e75565b978a611986565b612072915060203d602011610676576106688183613e75565b88611947565b506101f49461194a565b5082156118ea565b346106cb5760203660031901126106cb576001600160a01b036120ab613db2565b16600052600c602052602060ff604060002054166040519015158152f35b346106cb5760003660031901126106cb576001546001600160a01b0381163303612136576000543360018060a01b0382167f8be0079c531659141344cd1fd0a4f28419497f9722a3daafe3b4186f6b6457e0600080a36001600160a01b0319908116331760005516600155005b60405162461bcd60e51b815260206004820152601660248201527527aba71d103737ba103832b73234b7339037bbb732b960511b6044820152606490fd5b346106cb5760203660031901126106cb5760043561219061464a565b6101f481116121ff576020817f8c4d35e54a3f2ef1134138fd8ea3daee6a3c89e10d2665996babdf70261e2c7692600855604051908152a16108da6040516121d9604082613e75565b60148152731c1c9bdd1bd8dbdb17d9995957dd5c19185d195960621b602082015261466f565b60405162461bcd60e51b815260206004820152600c60248201526b0cccaca40e8dede40d0d2ced60a31b6044820152606490fd5b346106cb5760003660031901126106cb57602061ffff60095460a01c16604051908152f35b346106cb5760003660031901126106cb576003546040516001600160a01b039091168152602090f35b346106cb5760203660031901126106cb5761229a613db2565b6122a261464a565b6001600160a01b0381166000818152600a602052604090205490919060ff16156106ba57816108da92600052600a602052604060002061ff001981541690557f347a99fe8231756175eb07c80915f39e5e829aa45ccf58d20ae94f12b767fbd0600080a260408051906123158183613e75565b60138252721b595c98da185b9d17dc995a5b9cdd185d1959606a1b60208301525191612342602084613e75565b60008352614837565b346106cb5760203660031901126106cb576001600160a01b0361236c613db2565b16600052600f602052602060ff604060002054166040519015158152f35b346106cb5760003660031901126106cb576006546040516001600160a01b039091168152602090f35b346106cb5760403660031901126106cb576123cc613db2565b6024356001600160401b0381116106cb576123eb90369060040161400c565b6123f692919261464a565b6001600160a01b0382166000818152600a602052604090205460ff16156106ba576108da93816124a992600052600a602052604060002061010061ff00198254161790557f982ac13f4e1a099c2a6f82aaa965b986473b9cd2bc36758c35ec13436c82ff2960405160208152806124716020820188876141c0565b0390a260405192612483604085613e75565b60128452711b595c98da185b9d17dcdd5cdc195b99195960721b6020850152369161411a565b91614837565b346106cb5760003660031901126106cb576009546040516001600160a01b039091168152602090f35b346106cb576124e636614039565b906124ef614ab8565b33600052600a60205260406000209360018501946001600160401b0385116117ad576125258561251f8854613e1f565b88614168565b600095601f86116001146126b55761254d8680600295969798996000916126aa575b506141ad565b90555b016001600160401b0384116117ad576125738461256d8354613e1f565b83614168565b6000601f851160011461261c57836108da9661260a9594936125bf88807f0613ee99da764f84495dd846af208695f4c3d1c35d1666d55cbcc7e7c1a7826b9660009161261157506141ad565b90555b6125d4876040519384933397856141e1565b0390a2604051926125e6604085613e75565b601084526f1b595c98da185b9d17dd5c19185d195960821b6020850152369161411a565b9033614837565b90508501358c612547565b8181526020812090601f198616815b8181106126925750968594937f0613ee99da764f84495dd846af208695f4c3d1c35d1666d55cbcc7e7c1a7826b9361260a9793896108da9b10612678575b5050600188811b0190556125c2565b84013560001960038b901b60f8161c191690558980612669565b9192602060018192868a01358155019401920161262b565b90508601358a612547565b80875260208720601f19871697805b89811061270357508760029596979899106126e9575b5050600187811b019055612550565b85013560001960038a901b60f8161c1916905587806126da565b909160206001819285890135815501930191016126c4565b346106cb5760003660031901126106cb57612734614ab8565b33600052600a6020526040600020805460ff8160081c166127c65760ff19169055337fa9057f5035f868cd545546fef7a7bf48a6792a02434a4185b1fed09d0842083a600080a26108da604080519061278d8183613e75565b60158252741b595c98da185b9d17d9195c9959da5cdd195c9959605a1b602083015251906127bc602083613e75565b6000825233614837565b60405162461bcd60e51b815260206004820152602160248201527f43616e6e6f742064657265676973746572207768696c652073757370656e64656044820152601960fa1b6064820152608490fd5b346106cb5760403660031901126106cb5761282e613db2565b6001600160a01b03166000908152601160205260409020805460243591908210156106cb5760209161285f91613fba565b905460405160039290921b1c6001600160a01b03168152f35b346106cb5760003660031901126106cb576020600b54604051908152f35b346106cb5760003660031901126106cb576020601054604051908152f35b346106cb5760003660031901126106cb576007546040516001600160a01b039091168152602090f35b346106cb5760403660031901126106cb576128f6613db2565b6128fe613dc8565b9061290761464a565b6001600160a01b031680612970575b60018060a01b0319600d541617600d5560018060a01b031660018060a01b0319600e541617600e556108da60405161294f604082613e75565b600f81526e1cddd85c17d8dbdb999a59d7dcd95d608a1b602082015261466f565b6001600160a01b0382166129165760405162461bcd60e51b815260206004820152601f60248201527f4d503a20737461626c65207265717569726564207769746820726f75746572006044820152606490fd5b346106cb5760203660031901126106cb576129dc613db2565b6000906000809160018060a01b031691828252601460205260408220906040518083602082955493848152019086526020862092865b818110612b04575050612a2792500383613e75565b825b8251811015612aaa5760008351821015612a96575060208160051b840101516000526012602052604060002060ff600582015460481c16612a6e575b50600101612a29565b95909390600019811461051957600191600383612a8f93019801549061420b565b9390612a65565b634e487b7160e01b81526032600452602490fd5b83868387600052600a6020526005604060002001549283612adc575b6060935060405192835260208301526040820152f35b90506127108202828104612710148315171561051957606093612afe9161422b565b90612ac6565b8454835260019485019487945060209093019201612a12565b346106cb57612b2b36614089565b909391612b366146e3565b6001600160a01b0383166000818152600a602052604090205490939060ff16156106ba5783600052600a60205260ff60406000205460081c166106a957612b7c906149c7565b6001600160a01b0384169460009086158015612e2d575b61069257868252600c602052612baf60ff604084205416614504565b6004546001600160a01b03168015612e2357602060249160405192838092630d47875d60e41b82523360048301525afa90811561067d578391612e04575b50945b600354604051630709df4560e01b81523360048201526001600160a01b039091169790936020856024818c5afa948515610641578195612de3575b506001600160a01b038516612c41811515614545565b6005546001600160a01b03168015159182612d8f575b50506105a257828152600a60205260408120600601546001600160a01b0316988915612d38575b5050612710612c8f60085487614218565b0493612c9b85876144c5565b9883600052600a6020526005604060002060048101612cbb8a825461420b565b9055019889549b60018d01809d116105195784600080516020614b3e8339815191528b60209f8f6104da9f878f936104d39f938f9b8f9a61048791600080516020614afe8339815191529f8492612d269961048d9760059a5580151580610505576104e75750614755565b0390a36104c060056104af8d8b6144c5565b8192995060209060246040518094819363e01fd21560e01b83528860048401525af19182156105965791612d70575b50968980612c7e565b612d89915060203d60201161058f576105818183613e75565b89612d67565b6020919250602460405180948193631293efbb60e21b835260048301525afa908115610615578291612dc4575b508b80612c57565b612ddd915060203d60201161060e576106008183613e75565b8b612dbc565b612dfd91955060203d60201161058f576105818183613e75565b938a612c2b565b612e1d915060203d602011610676576106688183613e75565b88612bed565b506101f494612bf0565b508215612b93565b346106cb57612e4336614039565b91929033600052600a60205260ff6040600020541661319c57612e65336149c7565b604051612e7181613e59565b600181526020810160008152612e8836878661411a565b60408301908152612e9a36878661411a565b60608401908152608084016001600160401b034216815260a08501916000835260c08601936000855260e08701956000875233600052600a602052612ef3604060002098511515899060ff801983541691151516179055565b51875461ff00191690151560081b61ff001617875551805160018801916001600160401b0382116117ad57612f2c826115f28554613e1f565b602090601f831160011461313557612f4e92916000918361312a5750506141ad565b90555b51805160028701916001600160401b0382116117ad57612f75826115f28554613e1f565b602090601f83116001146130b45782600698979695936001600160401b039593612fa7936000926130a95750506141ad565b90555b5160038701805467ffffffffffffffff19166001600160401b03939092169290921617905551600485015551600584015551910180546001600160a01b0319166001600160a01b0392909216919091179055600b5491600160401b8310156117ad577f7476726b1d8882ab8352f5af9fb6c3dfab81c79b6a107ef114d5472393a75953826108da9661304586600161260a9801600b55613f9f565b81549060031b9033821b9160018060a01b03901b1916179055613070876040519384933397856141e1565b0390a260405192613082604085613e75565b60138452721b595c98da185b9d17dc9959da5cdd195c9959606a1b6020850152369161411a565b015190508f80611626565b90601f1983169184600052816000209260005b818110613112575092600192859260069b9a9998966001600160401b039896106130f9575b505050811b019055612faa565b015160001960f88460031b161c191690558e80806130ec565b929360206001819287860151815501950193016130c7565b015190508e80611626565b90601f1983169184600052816000209260005b818110613184575090846001959493921061316b575b505050811b019055612f51565b015160001960f88460031b161c191690558d808061315e565b92936020600181928786015181550195019301613148565b60405162461bcd60e51b8152602060048201526012602482015271185b1c9958591e481c9959da5cdd195c995960721b6044820152606490fd5b346106cb5760003660031901126106cb576020600854604051908152f35b346106cb5760203660031901126106cb5761320d613db2565b613215614ab8565b336000908152600a6020526040902060060180546001600160a01b0319166001600160a01b03909216919091179055005b346106cb5760a03660031901126106cb5761325f613db2565b613267613dc8565b6044356064356001600160401b0381116106cb5761328990369060040161400c565b90916084359260068410156106cb576132a06146e3565b6001841460008115613659575b8115613633575b50156135e3576001600160a01b0386166000818152600a602052604090205490969060ff16156106ba5786600052600a60205260ff60406000205460081c166106a957613300906149c7565b6001600160a01b0385169560009190871580156135db575b6135cc57878352600c60205261333460ff604085205416614504565b6004546001600160a01b031680156135c257602060249160405192838092630d47875d60e41b82523360048301525afa9081156135b7578491613598575b50965b600354604051630709df4560e01b81523360048201526001600160a01b0390911694602082602481895afa918215610641578192613577575b506001600160a01b0382166133c4811515614545565b6005546001600160a01b03168015159182613523575b50506105a257838152600a60205260408120600601546001600160a01b03169586156134cc575b505061271061341260085488614218565b049461341e86886144c5565b9984600052600a602052600560406000206004810161343e8b825461420b565b9055019687549a60018c01809c1161051957868660209f8f6104da9f8f918f916104d39f8f9b83610487600080516020614afe8339815191529f956134af938f95976104c09f9b8f989c600080516020614b3e8339815191529d6134bf9b5580151580610505576104e75750614755565b948c604051968796339a886145bd565b0390a36104af8d8b6144c5565b8192965060209060246040518094819363e01fd21560e01b83528960048401525af19182156105965791613504575b50938a80613401565b61351d915060203d60201161058f576105818183613e75565b8a6134fb565b6020919250602460405180948193631293efbb60e21b835260048301525afa908115610615578291613558575b508c806133da565b613571915060203d60201161060e576106008183613e75565b8c613550565b61359191925060203d60201161058f576105818183613e75565b908b6133ae565b6135b1915060203d602011610676576106688183613e75565b89613372565b6040513d86823e3d90fd5b506101f496613375565b63b313ad1360e01b8352600483fd5b508315613318565b60405162461bcd60e51b815260206004820152602260248201527f4d503a20757365207061794f6e6c696e6520666f722074686973206368616e6e604482015261195b60f21b6064820152608490fd5b90506136435760038414876132b4565b634e487b7160e01b600052602160045260246000fd5b50506002841460006132ad565b346106cb5760003660031901126106cb576004546040516001600160a01b039091168152602090f35b346106cb5760203660031901126106cb576004356000526012602052604060002060018060a01b0381541690610c9060018060a01b0360018301541660018060a01b03600284015416926003810154946136f0600460058401549301613e96565b60405196879660ff8560481c16956001600160401b0360ff8760401c1696169489613f3a565b346106cb5760003660031901126106cb5761372f61497d565b600180546001600160a01b0319169055005b346106cb5760203660031901126106cb576001600160a01b03613762613db2565b166000526013602052604060002060405190816020825491828152019160005260206000209060005b8181106137a257610c9085610c8481870382613e75565b825484526020909301926001928301920161378b565b346106cb5760203660031901126106cb57600435600b548110156106cb5761285f602091613f9f565b346106cb5760203660031901126106cb576137fa6146e3565b60043560005260126020526040600020600381018054908115613b5857600583019182549060ff8260401c1615613b1d5760ff8260481c16613ae457600185019360018060a01b0385541692833303613aa25760ff60481b1916600160481b179055600354604051630709df4560e01b815260048101939093526001600160a01b0316602083602481845afa92831561100457600093613a81575b50602060018060a01b03875416602460405180948193630709df4560e01b835260048301525afa90811561100457600091613a62575b506001600160a01b038316151580613a50575b15613a1a5760028601546138fb93906001600160a01b0316614755565b600460018060a01b038454169260018060a01b03905416930190549060405193604085526000825461392c81613e1f565b908160408901526001811690816000146139ea57506001146139a4575b50600080516020614b1e8339815191528680879387602061399d9b01520390a3610fad6040519161397b604084613e75565b601083526f1c99599d5b9917d8dbdb5c1b195d195960821b6020840152613e96565b6001600255005b6000848152602081209092505b8183106139d35750508501606001600080516020614b1e833981519152613949565b80546060848a0101526020909201916001016139b1565b60ff19166060808a019190915291151560051b88019091019150600080516020614b1e8339815191529050613949565b60405162461bcd60e51b815260206004820152600e60248201526d4d697373696e67207661756c747360901b6044820152606490fd5b506001600160a01b03811615156138de565b613a7b915060203d60201161058f576105818183613e75565b866138cb565b613a9b91935060203d60201161058f576105818183613e75565b9186613895565b60405162461bcd60e51b815260206004820152601a6024820152794f6e6c79206d65726368616e742063616e20636f6d706c65746560301b6044820152606490fd5b60405162461bcd60e51b8152602060048201526011602482015270105b1c9958591e4818dbdb5c1b195d1959607a1b6044820152606490fd5b60405162461bcd60e51b81526020600482015260136024820152721499599d5b99081b9bdd08185c1c1c9bdd9959606a1b6044820152606490fd5b60405162461bcd60e51b815260206004820152601060248201526f1499599d5b99081b9bdd08199bdd5b9960821b6044820152606490fd5b346106cb5760203660031901126106cb576004803560009081526012602052604090208054600182015460028301546003840154946001600160a01b0391821694610c90949383169390921690600590613beb908401613e96565b9201549160405196879660ff8560481c16956001600160401b0360ff8760401c1696169489613f3a565b346106cb5760203660031901126106cb576001600160a01b03613c36613db2565b16600052600a60205260ff60406000208054906001600160401b03600382015416906004810154613cb9600583015492613cab613c816002613c7a60018501613e96565b9301613e96565b916040519888818b9a1615158a5260081c161515602089015260e0604089015260e0880190613dde565b908682036060880152613dde565b92608085015260a084015260c08301520390f35b346106cb5760203660031901126106cb57600435613ce961464a565b61232881101580613d6b575b15613d33576010556108da604051613d0e604082613e75565b60138152721b5a5b97dcddd85c17dbdd5d1c1d5d17dcd95d606a1b602082015261466f565b60405162461bcd60e51b815260206004820152601060248201526f696e76616c696420736c69707061676560801b6044820152606490fd5b50612710811115613cf5565b346106cb5760203660031901126106cb576020906001600160a01b03613d9b613db2565b16600052600c825260ff6040600020541615158152f35b600435906001600160a01b03821682036106cb57565b602435906001600160a01b03821682036106cb57565b919082519283825260005b848110613e0a575050826000602080949584010152601f8019910116010190565b80602080928401015182828601015201613de9565b90600182811c92168015613e4f575b6020831014613e3957565b634e487b7160e01b600052602260045260246000fd5b91607f1691613e2e565b61010081019081106001600160401b038211176117ad57604052565b90601f801991011681019081106001600160401b038211176117ad57604052565b9060405191826000825492613eaa84613e1f565b8084529360018116908115613f185750600114613ed1575b50613ecf92500383613e75565b565b90506000929192526020600020906000915b818310613efc575050906020613ecf9282010138613ec2565b6020919350806001915483858901015201910190918492613ee3565b905060209250613ecf94915060ff191682840152151560051b82010138613ec2565b6001600160a01b03918216815291811660208301529091166040820152606081019190915261010060808201819052929594909360e093919290916001600160401b0391613f8a91870190613dde565b961660a0850152151560c08401521515910152565b600b54811015610aca57600b60005260206000200190600090565b8054821015610aca5760005260206000200190600090565b602060408183019282815284518094520192019060005b818110613ff65750505090565b8251845260209384019390920191600101613fe9565b9181601f840112156106cb578235916001600160401b0383116106cb57602083818601950101116106cb57565b60406003198201126106cb576004356001600160401b0381116106cb57816140639160040161400c565b92909291602435906001600160401b0382116106cb576140859160040161400c565b9091565b9060806003198301126106cb576004356001600160a01b03811681036106cb57916024356001600160a01b03811681036106cb579160443591606435906001600160401b0382116106cb576140859160040161400c565b6001600160401b0381116117ad57601f01601f191660200190565b908160209103126106cb57516001600160a01b03811681036106cb5790565b929192614126826140e0565b916141346040519384613e75565b8294818452818301116106cb578281602093846000960137010152565b81811061415c575050565b60008155600101614151565b9190601f811161417757505050565b613ecf926000526020600020906020601f840160051c830193106141a3575b601f0160051c0190614151565b9091508190614196565b8160011b916000199060031b1c19161790565b908060209392818452848401376000828201840152601f01601f1916010190565b92906141fa9061420895936040865260408601916141c0565b9260208185039101526141c0565b90565b9190820180921161051957565b8181029291811591840414171561051957565b8115614235570490565b634e487b7160e01b600052601260045260246000fd5b908160209103126106cb575161ffff811681036106cb5790565b908160209103126106cb575180151581036106cb5790565b6004546001600160a01b031691821561448057604051630d47875d60e41b81526001600160a01b039092166004830181905290602083602481875afa9283156110045760009361445f575b50604051632519fdb960e11b8152929384602085600481855afa9182156110045760049560009361443d575b50602090604051968780926352a67c5d60e01b82525afa94851561100457600095614414575b5061ffff8080921692168210159416101591602060018060a01b036003541691602460405180948193630709df4560e01b835260048301525afa908115611004576000916143f5575b506001600160a01b0316801515919082806143e1575b6143805750565b600554604051631293efbb60e21b8152600481019290925291925090602090829060249082906001600160a01b03165afa908115611004576000916143c457501590565b6143dd915060203d60201161060e576106008183613e75565b1590565b506005546001600160a01b03161515614379565b61440e915060203d60201161058f576105818183613e75565b38614363565b61ffff80929650614434819260203d602011610676576106688183613e75565b9692505061431a565b602091935061445890823d8411610676576106688183613e75565b92906142f4565b61447991935060203d602011610676576106688183613e75565b91386142c8565b6101f49250600091508190600190565b8054600160401b8110156117ad576144ad91600182018155613fba565b819291549060031b91821b91600019901b1916179055565b9190820391821161051957565b156144d957565b606460405162461bcd60e51b81526020600482015260046024820152637a65726f60e01b6044820152fd5b1561450b57565b60405162461bcd60e51b81526020600482015260126024820152711d1bdad95b881b9bdd081858d8d95c1d195960721b6044820152606490fd5b1561454c57565b60405162461bcd60e51b81526020600482015260086024820152671b9bc81d985d5b1d60c21b6044820152606490fd5b929360019560a09561ffff946145b2949a999a89808a1b031687526020870152604086015260c0606086015260c08501916141c0565b951660808201520152565b94909261ffff94926145f2949998979960018060a01b031687526020870152604086015260c0606086015260c08501916141c0565b9416608082015260068210156136435760a00152565b60405190614617604083613e75565b601082526f1b595c98da185b9d17dc185e5b595b9d60821b6020830152565b356001600160a01b03811681036106cb5790565b6007546001600160a01b0316330361465e57565b6302bfc35f60e41b60005260046000fd5b6006546000916001600160a01b03909116908161468b57505050565b813b15611e3d576146c383928392604051948580948193633ddd61ab60e21b8352306004840152606060248401526064830190613dde565b33604483015203925af16146d6575b5050565b816146e091613e75565b50565b6001600254036146f35760028055565b60405162461bcd60e51b815260206004820152600a6024820152697265656e7472616e637960b01b6044820152606490fd5b3d15614750573d90614736826140e0565b916147446040519384613e75565b82523d6000602084013e565b606090565b6040516323b872dd60e01b602082019081526001600160a01b0393841660248301529390921660448301526064808301949094529281526000928392909183906147a0608482613e75565b51926001600160a01b03165af16147b5614725565b81614808575b50156147c357565b60405162461bcd60e51b815260206004820152601e60248201527f5361666545524332303a207472616e7366657246726f6d206661696c656400006044820152606490fd5b805180159250821561481d575b5050386147bb565b6148309250602080918301019101614265565b3880614815565b600654600093926001600160a01b039091169182614857575b5050505050565b823b156148d4579161489b918580946148b360405197889687958694630303c28760e61b865260018060a01b03166004860152608060248601526084850190613dde565b90846044850152600319848303016064850152613dde565b03925af16148c4575b808080614850565b816148ce91613e75565b386148bc565b8480fd5b600654600094936001600160a01b03909116929190836148fb575b505050505050565b833b156149795791858094926149576149409560405198899788968795630303c28760e61b875260018060a01b03166004870152608060248701526084860190613dde565b916044850152600319848303016064850152613dde565b03925af1614969575b808080806148f3565b8161497391613e75565b38614960565b8580fd5b6000546001600160a01b0316330361499157565b60405162461bcd60e51b815260206004820152600e60248201526d27aba71d103737ba1037bbb732b960911b6044820152606490fd5b6004546001600160a01b031680156146d257604051630d47875d60e41b81526001600160a01b039092166004830152602082602481845afa91821561100457600092614a93575b5060206004916040519283809263e710c92b60e01b82525afa90811561100457600091614a74575b5061ffff811615614a625761ffff80915b16911610614a5157565b634e151c2b60e11b60005260046000fd5b5061ffff808060095460a01c16614a47565b614a8d915060203d602011610676576106688183613e75565b38614a36565b6004919250614ab0602091823d8411610676576106688183613e75565b929150614a0e565b33600052600a60205260ff6040600020541615614ad157565b636551842160e11b60005260046000fd5b6001600160a01b03909116815260208101919091526040019056feec41e5f29be0c14cddfa2fa8d5810ac0830b81a5e2ce564cd6e890f380de9cc68bae2ec0e2a69cf8d78e49966dc7eb00e5528d3c042219b082effa1a6f1dd50ab00ad9b52e63491e2cf8b05f9c03e6c492b9490445a4d78451bae67f066bd751a26469706673582212203f1f4d2f496e0bdeaa59b0047af0568f671bb08367733dd6aa087e2026d0373c64736f6c634300081e0033",
  "linkReferences": {},
  "deployedLinkReferences": {}
}