{
  "_format": "hh-sol-artifact-1",
  "contractName": "MerchantPortal",
  "sourceName": "contracts/MerchantPortal.sol",
  "abi": [
    {
      "inputs": [
        {
          "internalType": "address",
          "name": "initialOwner",
          "type": "address"
        }
      ],
      "stateMutability": "nonpayable",
      "type": "constructor"
    },
    {
      "inputs": [],
      "name": "MerchantNotActive",
      "type": "error"
    },
    {
      "inputs": [],
      "name": "NotGov",
      "type": "error"
    },
    {
      "inputs": [
        {
          "internalType": "string",
          "name": "why",
          "type": "string"
        }
      ],
      "name": "RegistryRejects",
      "type": "error"
    },
    {
      "inputs": [],
      "name": "ZeroAddress",
      "type": "error"
    },
    {
      "anonymous": false,
      "inputs": [
        {
          "indexed": false,
          "internalType": "address",
          "name": "dao",
          "type": "address"
        }
      ],
      "name": "DAOUpdated",
      "type": "event"
    },
    {
      "anonymous": false,
      "inputs": [
        {
          "indexed": true,
          "internalType": "uint256",
          "name": "orderId",
          "type": "uint256"
        }
      ],
      "name": "Delivered",
      "type": "event"
    },
    {
      "anonymous": false,
      "inputs": [
        {
          "indexed": true,
          "internalType": "uint256",
          "name": "orderId",
          "type": "uint256"
        },
        {
          "indexed": false,
          "internalType": "string",
          "name": "reason",
          "type": "string"
        }
      ],
      "name": "Disputed",
      "type": "event"
    },
    {
      "anonymous": false,
      "inputs": [
        {
          "indexed": false,
          "internalType": "address",
          "name": "escrow",
          "type": "address"
        }
      ],
      "name": "EscrowSet",
      "type": "event"
    },
    {
      "anonymous": false,
      "inputs": [
        {
          "indexed": false,
          "internalType": "address",
          "name": "factory",
          "type": "address"
        }
      ],
      "name": "FactorySet",
      "type": "event"
    },
    {
      "anonymous": false,
      "inputs": [
        {
          "indexed": true,
          "internalType": "address",
          "name": "previousOwner",
          "type": "address"
        },
        {
          "indexed": true,
          "internalType": "address",
          "name": "newOwner",
          "type": "address"
        }
      ],
      "name": "OwnershipTransferStarted",
      "type": "event"
    },
    {
      "anonymous": false,
      "inputs": [
        {
          "indexed": true,
          "internalType": "address",
          "name": "previousOwner",
          "type": "address"
        },
        {
          "indexed": true,
          "internalType": "address",
          "name": "newOwner",
          "type": "address"
        }
      ],
      "name": "OwnershipTransferred",
      "type": "event"
    },
    {
      "anonymous": false,
      "inputs": [
        {
          "indexed": false,
          "internalType": "address",
          "name": "proof",
          "type": "address"
        }
      ],
      "name": "ProofSinkSet",
      "type": "event"
    },
    {
      "anonymous": false,
      "inputs": [
        {
          "indexed": true,
          "internalType": "uint256",
          "name": "orderId",
          "type": "uint256"
        },
        {
          "indexed": true,
          "internalType": "address",
          "name": "buyer",
          "type": "address"
        },
        {
          "indexed": true,
          "internalType": "address",
          "name": "merchant",
          "type": "address"
        },
        {
          "indexed": false,
          "internalType": "uint256",
          "name": "amount",
          "type": "uint256"
        },
        {
          "indexed": false,
          "internalType": "string",
          "name": "meta",
          "type": "string"
        }
      ],
      "name": "PurchaseInitiated",
      "type": "event"
    },
    {
      "anonymous": false,
      "inputs": [
        {
          "indexed": false,
          "internalType": "address",
          "name": "registry",
          "type": "address"
        }
      ],
      "name": "RegistrySet",
      "type": "event"
    },
    {
      "anonymous": false,
      "inputs": [
        {
          "indexed": false,
          "internalType": "address",
          "name": "reviews",
          "type": "address"
        }
      ],
      "name": "ReviewsSet",
      "type": "event"
    },
    {
      "anonymous": false,
      "inputs": [
        {
          "indexed": false,
          "internalType": "address",
          "name": "seer",
          "type": "address"
        }
      ],
      "name": "SeerSet",
      "type": "event"
    },
    {
      "anonymous": false,
      "inputs": [
        {
          "indexed": true,
          "internalType": "uint256",
          "name": "orderId",
          "type": "uint256"
        }
      ],
      "name": "Shipped",
      "type": "event"
    },
    {
      "inputs": [],
      "name": "acceptOwnership",
      "outputs": [],
      "stateMutability": "nonpayable",
      "type": "function"
    },
    {
      "inputs": [
        {
          "internalType": "address",
          "name": "merchant",
          "type": "address"
        },
        {
          "internalType": "uint256",
          "name": "amount",
          "type": "uint256"
        },
        {
          "internalType": "string",
          "name": "meta",
          "type": "string"
        }
      ],
      "name": "buy",
      "outputs": [
        {
          "internalType": "uint256",
          "name": "orderId",
          "type": "uint256"
        }
      ],
      "stateMutability": "nonpayable",
      "type": "function"
    },
    {
      "inputs": [],
      "name": "dao",
      "outputs": [
        {
          "internalType": "address",
          "name": "",
          "type": "address"
        }
      ],
      "stateMutability": "view",
      "type": "function"
    },
    {
      "inputs": [
        {
          "internalType": "uint256",
          "name": "orderId",
          "type": "uint256"
        },
        {
          "internalType": "bool",
          "name": "refundBuyer",
          "type": "bool"
        },
        {
          "internalType": "string",
          "name": "memo",
          "type": "string"
        }
      ],
      "name": "daoResolve",
      "outputs": [],
      "stateMutability": "nonpayable",
      "type": "function"
    },
    {
      "inputs": [
        {
          "internalType": "uint256",
          "name": "orderId",
          "type": "uint256"
        },
        {
          "internalType": "string",
          "name": "reason",
          "type": "string"
        }
      ],
      "name": "dispute",
      "outputs": [],
      "stateMutability": "nonpayable",
      "type": "function"
    },
    {
      "inputs": [
        {
          "internalType": "uint256",
          "name": "orderId",
          "type": "uint256"
        },
        {
          "internalType": "uint8",
          "name": "newStars",
          "type": "uint8"
        },
        {
          "internalType": "string",
          "name": "newText",
          "type": "string"
        }
      ],
      "name": "editReview",
      "outputs": [],
      "stateMutability": "nonpayable",
      "type": "function"
    },
    {
      "inputs": [],
      "name": "escrow",
      "outputs": [
        {
          "internalType": "contract ICommerceEscrow",
          "name": "",
          "type": "address"
        }
      ],
      "stateMutability": "view",
      "type": "function"
    },
    {
      "inputs": [],
      "name": "factory",
      "outputs": [
        {
          "internalType": "contract IVaultFactoryView",
          "name": "",
          "type": "address"
        }
      ],
      "stateMutability": "view",
      "type": "function"
    },
    {
      "inputs": [
        {
          "internalType": "uint256",
          "name": "orderId",
          "type": "uint256"
        }
      ],
      "name": "finalizeAfterTimeout",
      "outputs": [],
      "stateMutability": "nonpayable",
      "type": "function"
    },
    {
      "inputs": [
        {
          "internalType": "uint256",
          "name": "orderId",
          "type": "uint256"
        },
        {
          "internalType": "uint8",
          "name": "stars",
          "type": "uint8"
        },
        {
          "internalType": "string",
          "name": "text",
          "type": "string"
        }
      ],
      "name": "leaveReview",
      "outputs": [],
      "stateMutability": "nonpayable",
      "type": "function"
    },
    {
      "inputs": [
        {
          "internalType": "uint256",
          "name": "orderId",
          "type": "uint256"
        }
      ],
      "name": "markDelivered",
      "outputs": [],
      "stateMutability": "nonpayable",
      "type": "function"
    },
    {
      "inputs": [
        {
          "internalType": "uint256",
          "name": "orderId",
          "type": "uint256"
        }
      ],
      "name": "markShipped",
      "outputs": [],
      "stateMutability": "nonpayable",
      "type": "function"
    },
    {
      "inputs": [
        {
          "internalType": "address",
          "name": "merchant",
          "type": "address"
        }
      ],
      "name": "merchantSummary",
      "outputs": [
        {
          "components": [
            {
              "internalType": "enum IMerchantRegistry.Status",
              "name": "status",
              "type": "uint8"
            },
            {
              "internalType": "address",
              "name": "payoutVault",
              "type": "address"
            },
            {
              "internalType": "string",
              "name": "name",
              "type": "string"
            },
            {
              "internalType": "bytes32",
              "name": "metaHash",
              "type": "bytes32"
            },
            {
              "internalType": "uint64",
              "name": "approvedAt",
              "type": "uint64"
            },
            {
              "internalType": "uint16",
              "name": "proofScore",
              "type": "uint16"
            },
            {
              "internalType": "uint256",
              "name": "ratingNum",
              "type": "uint256"
            },
            {
              "internalType": "uint256",
              "name": "ratingDen",
              "type": "uint256"
            },
            {
              "internalType": "uint256",
              "name": "ratingStars1e2",
              "type": "uint256"
            },
            {
              "internalType": "uint32",
              "name": "kpiTotal",
              "type": "uint32"
            },
            {
              "internalType": "uint32",
              "name": "kpiDisputes",
              "type": "uint32"
            },
            {
              "internalType": "uint32",
              "name": "kpiRefunds",
              "type": "uint32"
            },
            {
              "internalType": "uint32",
              "name": "kpiLateShips",
              "type": "uint32"
            },
            {
              "internalType": "uint256[]",
              "name": "orders",
              "type": "uint256[]"
            }
          ],
          "internalType": "struct MerchantPortal.MerchantSummary",
          "name": "s",
          "type": "tuple"
        }
      ],
      "stateMutability": "view",
      "type": "function"
    },
    {
      "inputs": [
        {
          "internalType": "uint256",
          "name": "orderId",
          "type": "uint256"
        }
      ],
      "name": "orderInfo",
      "outputs": [
        {
          "internalType": "address",
          "name": "buyer",
          "type": "address"
        },
        {
          "internalType": "address",
          "name": "merchant",
          "type": "address"
        },
        {
          "internalType": "uint256",
          "name": "amount",
          "type": "uint256"
        },
        {
          "internalType": "enum ICommerceEscrow.State",
          "name": "state",
          "type": "uint8"
        },
        {
          "internalType": "uint64",
          "name": "tInitiated",
          "type": "uint64"
        },
        {
          "internalType": "uint64",
          "name": "tShipped",
          "type": "uint64"
        },
        {
          "internalType": "uint64",
          "name": "tDelivered",
          "type": "uint64"
        },
        {
          "internalType": "uint64",
          "name": "tDisputed",
          "type": "uint64"
        },
        {
          "internalType": "string",
          "name": "meta",
          "type": "string"
        }
      ],
      "stateMutability": "view",
      "type": "function"
    },
    {
      "inputs": [],
      "name": "owner",
      "outputs": [
        {
          "internalType": "address",
          "name": "",
          "type": "address"
        }
      ],
      "stateMutability": "view",
      "type": "function"
    },
    {
      "inputs": [],
      "name": "pendingOwner",
      "outputs": [
        {
          "internalType": "address",
          "name": "",
          "type": "address"
        }
      ],
      "stateMutability": "view",
      "type": "function"
    },
    {
      "inputs": [],
      "name": "proof",
      "outputs": [
        {
          "internalType": "contract IProofLedger",
          "name": "",
          "type": "address"
        }
      ],
      "stateMutability": "view",
      "type": "function"
    },
    {
      "inputs": [],
      "name": "registry",
      "outputs": [
        {
          "internalType": "contract IMerchantRegistry",
          "name": "",
          "type": "address"
        }
      ],
      "stateMutability": "view",
      "type": "function"
    },
    {
      "inputs": [],
      "name": "renounceOwnership",
      "outputs": [],
      "stateMutability": "nonpayable",
      "type": "function"
    },
    {
      "inputs": [],
      "name": "reviews",
      "outputs": [
        {
          "internalType": "contract IReviewRegistry",
          "name": "",
          "type": "address"
        }
      ],
      "stateMutability": "view",
      "type": "function"
    },
    {
      "inputs": [],
      "name": "seer",
      "outputs": [
        {
          "internalType": "contract ISeerView",
          "name": "",
          "type": "address"
        }
      ],
      "stateMutability": "view",
      "type": "function"
    },
    {
      "inputs": [
        {
          "internalType": "address",
          "name": "dao_",
          "type": "address"
        }
      ],
      "name": "setDAO",
      "outputs": [],
      "stateMutability": "nonpayable",
      "type": "function"
    },
    {
      "inputs": [
        {
          "internalType": "address",
          "name": "escrow_",
          "type": "address"
        }
      ],
      "name": "setEscrow",
      "outputs": [],
      "stateMutability": "nonpayable",
      "type": "function"
    },
    {
      "inputs": [
        {
          "internalType": "address",
          "name": "factory_",
          "type": "address"
        }
      ],
      "name": "setFactory",
      "outputs": [],
      "stateMutability": "nonpayable",
      "type": "function"
    },
    {
      "inputs": [
        {
          "internalType": "address",
          "name": "proof_",
          "type": "address"
        }
      ],
      "name": "setProofSink",
      "outputs": [],
      "stateMutability": "nonpayable",
      "type": "function"
    },
    {
      "inputs": [
        {
          "internalType": "address",
          "name": "registry_",
          "type": "address"
        }
      ],
      "name": "setRegistry",
      "outputs": [],
      "stateMutability": "nonpayable",
      "type": "function"
    },
    {
      "inputs": [
        {
          "internalType": "address",
          "name": "reviews_",
          "type": "address"
        }
      ],
      "name": "setReviews",
      "outputs": [],
      "stateMutability": "nonpayable",
      "type": "function"
    },
    {
      "inputs": [
        {
          "internalType": "address",
          "name": "seer_",
          "type": "address"
        }
      ],
      "name": "setSeer",
      "outputs": [],
      "stateMutability": "nonpayable",
      "type": "function"
    },
    {
      "inputs": [
        {
          "internalType": "address",
          "name": "newOwner",
          "type": "address"
        }
      ],
      "name": "transferOwnership",
      "outputs": [],
      "stateMutability": "nonpayable",
      "type": "function"
    }
  ],
  "bytecode": "0x60803461008c57601f611d2238819003918201601f19168301916001600160401b038311848410176100915780849260209460405283398101031261008c57516001600160a01b03811680820361008c57610059336100a7565b60016002551561007b5761006c906100a7565b604051611c2590816100fd8239f35b63d92e233d60e01b60005260046000fd5b600080fd5b634e487b7160e01b600052604160045260246000fd5b600180546001600160a01b0319908116909155600080546001600160a01b03938416928116831782559192909116907f8be0079c531659141344cd1fd0a4f28419497f9722a3daafe3b4186f6b6457e09080a356fe6080604052600436101561001257600080fd5b6000803560e01c80630dc9759d146118525780632d55ea391461182957806335e3c278146111d95780634162169f146111b05780634862ddc314610ea757806348ce238414610e13578063495a564214610dea5780635462bcfd14610d855780635bb4780814610ced578063632889c214610b4f57806366c85dee14610a695780636a9202b9146109e75780636ab34a4a1461084c578063715018a6146107e757806379ba50971461071e5780637b103999146106f55780638da5cb5b146106ce5780639c7495ba14610636578063a91ee0dc1461059e578063c10c354614610506578063c45a0155146104dd578063e071c1c014610445578063e2fdcc171461041c578063e30c3978146103f3578063e73a914c1461033d578063eb826a5f146102a0578063eed90d6b146101f4578063f2fde38b146101875763faf924cf1461015c57600080fd5b346101845780600319360112610184576008546040516001600160a01b039091168152602090f35b80fd5b5034610184576020366003190112610184576101a16119bd565b6101a9611b97565b600180546001600160a01b0319166001600160a01b0392831690811790915582549091167f38d16b8cac22d99fc7c124b9cd0de2d3fa1faef420bfe791d8c362d765e227008380a380f35b503461018457602036600319011261018457600435610211611b43565b60055482906001600160a01b0316803b156102915781809160246040518094819363eed90d6b60e01b83528860048401525af180156102955761027c575b50807ff00b9a5725b80c54016f42114f6ed7792d22eecb116011c4afac29c57bef6c9591a2600160025580f35b8161028691611a1b565b61029157813861024f565b5080fd5b6040513d84823e3d90fd5b5034610184576020366003190112610184576004356102bd611b43565b60055482906001600160a01b0316803b156102915781809160246040518094819363eb826a5f60e01b83528860048401525af1801561029557610328575b50807ffcc296b8bdd64e3f1d1faadef50cb2d6550f645316330fe57cb1dd7e0612ead091a2600160025580f35b8161033291611a1b565b6102915781386102fb565b5034610184576020366003190112610184576103576119bd565b81546001600160a01b0316331415806103de575b6103cf576001600160a01b031680156103c0576020817f395c0f5a57accc3f0c20646b402f0845c448f3e4ac4a2ec56a3eaf26d15bf79a926001600160601b0360a01b6009541617600955604051908152a180f35b63d92e233d60e01b8252600482fd5b63b577c1f760e01b8252600482fd5b506009546001600160a01b031633141561036b565b50346101845780600319360112610184576001546040516001600160a01b039091168152602090f35b50346101845780600319360112610184576005546040516001600160a01b039091168152602090f35b50346101845760203660031901126101845761045f6119bd565b81546001600160a01b0316331415806104c8575b6103cf576001600160a01b031680156103c0576020817fc33c1a95c902d772578a793cd3d42b7d0a418863633ff3be7853c55a4d95388a926001600160601b0360a01b6007541617600755604051908152a180f35b506009546001600160a01b0316331415610473565b50346101845780600319360112610184576003546040516001600160a01b039091168152602090f35b5034610184576020366003190112610184576105206119bd565b81546001600160a01b031633141580610589575b6103cf576001600160a01b031680156103c0576020817fa585aec3a6cb0e1a084ed18c7638024e40cc3e3ea815166e2cb6fc17d7f1392b926001600160601b0360a01b6005541617600555604051908152a180f35b506009546001600160a01b0316331415610534565b5034610184576020366003190112610184576105b86119bd565b81546001600160a01b031633141580610621575b6103cf576001600160a01b031680156103c0576020817f27fe5f0c1c3b1ed427cc63d0f05759ffdecf9aec9e18d31ef366fc8a6cb5dc3b926001600160601b0360a01b6004541617600455604051908152a180f35b506009546001600160a01b03163314156105cc565b5034610184576020366003190112610184576106506119bd565b81546001600160a01b0316331415806106b9575b6103cf576001600160a01b031680156103c0576020817fa8a1fbb917cf6d46e2be4fefbbbfe5b893d78af58683c28943ca99e31620a86f926001600160601b0360a01b6006541617600655604051908152a180f35b506009546001600160a01b0316331415610664565b5034610184578060031936011261018457546040516001600160a01b039091168152602090f35b50346101845780600319360112610184576004546040516001600160a01b039091168152602090f35b5034610184578060031936011261018457600154336001600160a01b039091160361079057600180546001600160a01b0319908116909155815433918116821783556001600160a01b03167f8be0079c531659141344cd1fd0a4f28419497f9722a3daafe3b4186f6b6457e08380a380f35b60405162461bcd60e51b815260206004820152602960248201527f4f776e61626c6532537465703a2063616c6c6572206973206e6f7420746865206044820152683732bb9037bbb732b960b91b6064820152608490fd5b5034610184578060031936011261018457610800611b97565b600180546001600160a01b03199081169091558154908116825581906001600160a01b03167f8be0079c531659141344cd1fd0a4f28419497f9722a3daafe3b4186f6b6457e08280a380f35b50346101845760203660031901126101845760055460405163a85c38ef60e01b81526004803590820152908290829060249082906001600160a01b03165afa908115610295578280808081809381958297839961092b575b50604080516001600160a01b039b8c16815291909a16602082015298890152600782101561091757508695936001600160401b038094816109139895819560608c01521660808a01521660a08801521660c08601521660e08401526101206101008401526101208301906119f6565b0390f35b634e487b7160e01b81526021600452602490fd5b99505050955050505050503d8082843e6109458184611a1b565b820191610120818403126102915761095c81611a95565b9061096960208201611a95565b9360408201519360608301519060078210156101845761098b60808501611aa9565b9061099860a08601611aa9565b926109a560c08701611aa9565b946109b260e08801611aa9565b96610100810151906001600160401b0382116109e3576109d3929101611abd565b96989790929394959697386108a4565b8480fd5b503461018457806109f73661197d565b9291610a01611b43565b6006546001600160a01b031690813b15610a6557858094610a3860405197889687958694636a9202b960e01b865260048601611a73565b03925af1801561029557610a50575b50600160025580f35b81610a5a91611a1b565b610184578038610a47565b8580fd5b5034610184576040366003190112610184576004356024356001600160401b038111610b4b57610a9d90369060040161194b565b90610aa6611b43565b60055484906001600160a01b0316803b15610291578160405180926333642ef760e11b8252818381610add8a8a8d60048501611b2c565b03925af1801561029557610b32575b50507fd204349004c12248e5f9be3960833f6fded8178a82a06dab9f9a5c660d70517391610b27604051928392602084526020840191611a52565b0390a2600160025580f35b81610b3c91611a1b565b610b47578338610aec565b8380fd5b8280fd5b5034610184576060366003190112610184576004359060243591821515809303610291576044356001600160401b038111610b4b57610b9290369060040161194b565b939060018060a01b0384541633141580610cd8575b610cc9578394610bb5611b43565b6005546001600160a01b031691823b15610a6557610c009286928360405180968195829463319444e160e11b84528b60048501528a6024850152606060448501526064840191611a52565b03925af1908115610cbe578491610ca9575b50506040519060208201928352604082015260408152610c33606082611a1b565b5190206008546001600160a01b03169081610c52575b82600160025580f35b813b15610ca5578291606483926040519485938492631250d57560e31b84523360048501526034602485015260448401525af1610c90575b80610c49565b81610c9a91611a1b565b610184578038610c8a565b5050fd5b81610cb391611a1b565b610ca5578238610c12565b6040513d86823e3d90fd5b63b577c1f760e01b8452600484fd5b506009546001600160a01b0316331415610ba7565b503461018457602036600319011261018457610d076119bd565b81546001600160a01b031633141580610d70575b6103cf576001600160a01b031680156103c0576020817f1edf3afd4ac789736e00d216cd88be164ddcef26a6eedcc30cdb0cb62f3741b1926001600160601b0360a01b6003541617600355604051908152a180f35b506009546001600160a01b0316331415610d1b565b503461018457602036600319011261018457610d9f611b43565b60055481906001600160a01b0316803b15610de757818091602460405180948193635462bcfd60e01b835260043560048401525af1801561029557610a505750600160025580f35b50fd5b50346101845780600319360112610184576006546040516001600160a01b039091168152602090f35b503461018457602036600319011261018457610e2d6119bd565b81546001600160a01b031633141580610e92575b6103cf57600880546001600160a01b0319166001600160a01b0390921691821790556040519081527f672081dadde50e814bb62a7286e6c0cad07071fa40747b022649c85346bdbc8490602090a180f35b506009546001600160a01b0316331415610e41565b503461018457606036600319011261018457610ec16119bd565b602435906044356001600160401b038111610b4757610ee490369060040161194b565b9290610eee611b43565b60048054604051631a2f716760e01b81526001600160a01b0395861692810183905291941690602081602481855afa9081156111a557879161116b575b501561115c578560449160405192838092635d901bff60e11b82528860048301523360248301525afa9081156110d35786908792611107575b50156110de5750600554604051634b70023160e01b8152600481018590526024810184905260606044820152949060209086906001600160a01b0316818981610fb160648201888a611a52565b03925af19485156110d357869561109d575b5090847f30a8ab2fbcc6ca3ffcf2530a8e377bc3f5d4b97e4aa47b2a2b209e99eee740fc610ffb869460405191829133968984611b2c565b0390a46040519060208201928484526040830152606082015260608152611023608082611a1b565b5190206008546001600160a01b031692908361104a575b6020836001600255604051908152f35b8382943b15610b4b57606483926040519485938492631250d57560e31b84523360048501526032602485015260448401525af1611088575b8061103a565b611093838092611a1b565b6102915781611082565b919094506020823d6020116110cb575b816110ba60209383611a1b565b81010312610a655790519383610fc3565b3d91506110ad565b6040513d88823e3d90fd5b604051631a93c1ef60e01b8152602060048201529081906111039060248301906119f6565b0390fd5b9150503d8087833e6111198183611a1b565b8101906040818303126111585761112f81611b1f565b9160208201516001600160401b0381116111545761114d9201611abd565b9038610f64565b8880fd5b8680fd5b63179a70ab60e11b8652600486fd5b90506020813d60201161119d575b8161118660209383611a1b565b810103126111585761119790611b1f565b38610f2b565b3d9150611179565b6040513d89823e3d90fd5b50346101845780600319360112610184576009546040516001600160a01b039091168152602090f35b5034610184576020366003190112610184576111f36119bd565b90604051916101c083018381106001600160401b0382111761181557604052818352816020840152606060408401528160608401528160808401528160a08401528160c08401528160e0840152816101008401528161012084015281610140840152816101608401528161018084015260606101a084015260248260018060a01b036004541660405192838092630cc67e9d60e31b825260018060a01b03871660048301525afa80156116d85783918492859386928794611776575b5060058110156117625787526001600160a01b039081166020880152604087019190915260608601919091526001600160401b0391909116608085015260075416806116e3575061ffff825b1660a0840152600654604051630d17861760e41b81526001600160a01b038381166004830152909160609183916024918391165afa9081156116d857839184918591611696575b5061010086015260e085015260c0840152600554604051630f78b79560e11b81526001600160a01b0383811660048301529091169190608081602481865afa908115610cbe579084929183916115e5575b5060608163ffffffff8093511661012089015282602082015116610140890152826040820151166101608901520151166101808601526024604051809481936318386fdd60e01b835260018060a01b031660048301525afa908115610295578291611537575b506101a083015260405191602083528051600581101561152357918392602084015260018060a01b0360208301511660408401526101a061144b60408401516101c060608701526101e08601906119f6565b92606081015160808601526001600160401b0360808201511660a086015261ffff60a08201511660c086015260c081015160e086015260e081015161010086015261010081015161012086015263ffffffff6101208201511661014086015263ffffffff6101408201511661016086015263ffffffff6101608201511661018086015263ffffffff6101808201511682860152015191601f19848203016101c0850152602080845192838152019301915b81811061150a575050500390f35b82518452859450602093840193909201916001016114fc565b634e487b7160e01b83526021600452602483fd5b90503d8083833e6115488183611a1b565b810190602081830312610b4b578051906001600160401b038211610b4757019080601f83011215610b4b578151916001600160401b0383116115d1578260051b906040519361159a6020840186611a1b565b84526020808501928201019283116109e357602001905b8282106115c157505050386113f9565b81518152602091820191016115b1565b634e487b7160e01b84526041600452602484fd5b919250506080813d60801161168e575b8161160260809383611a1b565b81010312610b4757604051908160808101106001600160401b0360808401111761167a5760608261166f8263ffffffff9460808a98970160405261164581611b0e565b845261165360208201611b0e565b602085015261166460408201611b0e565b604085015201611b0e565b828201529150611393565b634e487b7160e01b85526041600452602485fd5b3d91506115f5565b925050506060813d6060116116d0575b816116b360609383611a1b565b81010312610b4b5780516040602083015192015190919038611342565b3d91506116a6565b6040513d85823e3d90fd5b60405163776f384360e01b81526001600160a01b038316600482015290602090829060249082905afa80156116d8578390611723575b61ffff91506112fb565b506020813d60201161175a575b8161173d60209383611a1b565b81010312610b4b575161ffff81168103610b4b5761ffff90611719565b3d9150611730565b634e487b7160e01b87526021600452602487fd5b9450505050503d8084833e61178b8183611a1b565b810161010082820312610b47576117a182611a95565b506117ae60208301611a95565b60408301516005811015610a65576117c860608501611aa9565b506117d560808501611aa9565b926117e260a08601611aa9565b5060c08501516001600160401b0381116118115760e091611804918701611abd565b94015192939190386112af565b8780fd5b634e487b7160e01b83526041600452602483fd5b50346101845780600319360112610184576007546040516001600160a01b039091168152602090f35b5034610184576118613661197d565b9392919061186d611b43565b6006546001600160a01b031690813b156109e3579484916118a79683604051809981958294630dc9759d60e01b8452898b60048601611a73565b03925af180156116d857611936575b82935060ff6040519160208301938452166040820152604081526118db606082611a1b565b5190206008546001600160a01b031690816118f95782600160025580f35b813b15610ca5578291606483926040519485938492631250d57560e31b84523360048501526033602485015260448401525af1610c905780610c49565b9190928161194391611a1b565b9082906118b6565b9181601f84011215611978578235916001600160401b038311611978576020838186019501011161197857565b600080fd5b6060600319820112611978576004359160243560ff811681036119785791604435906001600160401b038211611978576119b99160040161194b565b9091565b600435906001600160a01b038216820361197857565b60005b8381106119e65750506000910152565b81810151838201526020016119d6565b90602091611a0f815180928185528580860191016119d3565b601f01601f1916010190565b90601f801991011681019081106001600160401b03821117611a3c57604052565b634e487b7160e01b600052604160045260246000fd5b908060209392818452848401376000828201840152601f01601f1916010190565b60ff611a92959360609383521660208201528160408201520191611a52565b90565b51906001600160a01b038216820361197857565b51906001600160401b038216820361197857565b81601f820112156119785780516001600160401b038111611a3c5760405192611af0601f8301601f191660200185611a1b565b8184526020828401011161197857611a9291602080850191016119d3565b519063ffffffff8216820361197857565b5190811515820361197857565b604090611a92949281528160208201520191611a52565b6002805414611b525760028055565b60405162461bcd60e51b815260206004820152601f60248201527f5265656e7472616e637947756172643a207265656e7472616e742063616c6c006044820152606490fd5b6000546001600160a01b03163303611bab57565b606460405162461bcd60e51b815260206004820152602060248201527f4f776e61626c653a2063616c6c6572206973206e6f7420746865206f776e65726044820152fdfea2646970667358221220ba4dc3210eef728488d5fe902efbb042608433fc39d4492e2d15958c0fd0124f64736f6c634300081e0033",
  "linkReferences": {},
  "deployedLinkReferences": {}
}