{"abi":[{"type":"constructor","inputs":[{"name":"_dao","type":"address","internalType":"address"}],"stateMutability":"nonpayable"},{"type":"function","name":"balanceOf","inputs":[{"name":"token","type":"address","internalType":"address"}],"outputs":[{"name":"","type":"uint256","internalType":"uint256"}],"stateMutability":"view"},{"type":"function","name":"balances","inputs":[{"name":"","type":"address","internalType":"address"}],"outputs":[{"name":"","type":"uint256","internalType":"uint256"}],"stateMutability":"view"},{"type":"function","name":"dao","inputs":[],"outputs":[{"name":"","type":"address","internalType":"address"}],"stateMutability":"view"},{"type":"function","name":"depositStable","inputs":[{"name":"token","type":"address","internalType":"address"},{"name":"amount","type":"uint256","internalType":"uint256"}],"outputs":[],"stateMutability":"nonpayable"},{"type":"function","name":"send","inputs":[{"name":"token","type":"address","internalType":"address"},{"name":"","type":"address","internalType":"address"},{"name":"amount","type":"uint256","internalType":"uint256"},{"name":"","type":"string","internalType":"string"}],"outputs":[],"stateMutability":"nonpayable"}],"bytecode":{"object":"0x608034606f57601f6102ad38819003918201601f19168301916001600160401b03831184841017607357808492602094604052833981010312606f57516001600160a01b03811690819003606f575f80546001600160a01b03191691909117905560405161022590816100888239f35b5f80fd5b634e487b7160e01b5f52604160045260245ffdfe6080806040526004361015610012575f80fd5b5f3560e01c90816327e235e31461018f5750806336762067146101505780634162169f1461012957806370a08231146100f157639a67edad14610053575f80fd5b346100ed5760803660031901126100ed5761006c6101c3565b6100746101d9565b5060643567ffffffffffffffff81116100ed57366023820112156100ed57806004013567ffffffffffffffff81116100ed57369101602401116100ed576001600160a01b03165f90815260016020526040902080546044358103919082116100d95755005b634e487b7160e01b5f52601160045260245ffd5b5f80fd5b346100ed5760203660031901126100ed576001600160a01b036101126101c3565b165f526001602052602060405f2054604051908152f35b346100ed575f3660031901126100ed575f546040516001600160a01b039091168152602090f35b346100ed5760403660031901126100ed576001600160a01b036101716101c3565b165f52600160205260405f2080549060243582018092116100d95755005b346100ed5760203660031901126100ed576020906001600160a01b036101b36101c3565b165f526001825260405f20548152f35b600435906001600160a01b03821682036100ed57565b602435906001600160a01b03821682036100ed5756fea2646970667358221220ff987cc8eefe1b972ecb2599bd456bda08c33739fc3293dc31324528c4cd796864736f6c634300081e0033","linkReferences":{}},"methodIdentifiers":{"balanceOf(address)":"70a08231","balances(address)":"27e235e3","dao()":"4162169f","depositStable(address,uint256)":"36762067","send(address,address,uint256,string)":"9a67edad"},"id":95}