{"abi":[{"type":"constructor","inputs":[{"name":"_dao","type":"address","internalType":"address"}],"stateMutability":"nonpayable"},{"type":"function","name":"addAsset","inputs":[{"name":"token","type":"address","internalType":"address"},{"name":"","type":"string","internalType":"string"}],"outputs":[],"stateMutability":"nonpayable"},{"type":"function","name":"allowed","inputs":[{"name":"","type":"address","internalType":"address"}],"outputs":[{"name":"","type":"bool","internalType":"bool"}],"stateMutability":"view"},{"type":"function","name":"dao","inputs":[],"outputs":[{"name":"","type":"address","internalType":"address"}],"stateMutability":"view"},{"type":"function","name":"decimals","inputs":[{"name":"","type":"address","internalType":"address"}],"outputs":[{"name":"","type":"uint8","internalType":"uint8"}],"stateMutability":"view"},{"type":"function","name":"isWhitelisted","inputs":[{"name":"token","type":"address","internalType":"address"}],"outputs":[{"name":"","type":"bool","internalType":"bool"}],"stateMutability":"view"},{"type":"function","name":"removeAsset","inputs":[{"name":"token","type":"address","internalType":"address"}],"outputs":[],"stateMutability":"nonpayable"},{"type":"function","name":"setSymbolHint","inputs":[{"name":"token","type":"address","internalType":"address"},{"name":"","type":"string","internalType":"string"}],"outputs":[],"stateMutability":"nonpayable"},{"type":"function","name":"tokenDecimals","inputs":[{"name":"token","type":"address","internalType":"address"}],"outputs":[{"name":"","type":"uint8","internalType":"uint8"}],"stateMutability":"view"},{"type":"error","name":"FI_AlreadyWhitelisted","inputs":[]},{"type":"error","name":"FI_NotDAO","inputs":[]},{"type":"error","name":"FI_NotWhitelisted","inputs":[]}],"bytecode":{"object":"0x608034607057601f6103c838819003918201601f19168301916001600160401b03831184841017607457808492602094604052833981010312607057516001600160a01b03811690819003607057600280546001600160a01b03191691909117905560405161033f90816100898239f35b5f80fd5b634e487b7160e01b5f52604160045260245ffdfe6080806040526004361015610012575f80fd5b5f3560e01c9081633af32abf14610257575080634162169f1461022f5780634a5e42b1146101cf5780635a109d1d146101505780636cfaf819146100ef5780638ee573ac146100b4578063d449a832146100b45763d63a8e1114610074575f80fd5b346100b05760203660031901126100b0576001600160a01b0361009561028f565b165f525f602052602060ff60405f2054166040519015158152f35b5f80fd5b346100b05760203660031901126100b0576001600160a01b036100d561028f565b165f526001602052602060ff60405f205416604051908152f35b346100b0576100fd366102a5565b50506002546001600160a01b03163303610141576001600160a01b03165f9081526020819052604090205460ff161561013257005b636c44093f60e11b5f5260045ffd5b6395863f6560e01b5f5260045ffd5b346100b05761015e366102a5565b50506002546001600160a01b03163303610141576001600160a01b03165f8181526020819052604090205460ff166101c057805f525f60205260405f20600160ff198254161790555f52600160205260405f20601260ff198254161790555f80f35b63c7c88f4f60e01b5f5260045ffd5b346100b05760203660031901126100b0576101e861028f565b6002546001600160a01b03163303610141576001600160a01b03165f8181526020819052604090205460ff1615610132575f525f60205260405f2060ff1981541690555f80f35b346100b0575f3660031901126100b0576002546040516001600160a01b039091168152602090f35b346100b05760203660031901126100b0576020906001600160a01b0361027b61028f565b165f525f825260ff60405f20541615158152f35b600435906001600160a01b03821682036100b057565b60406003198201126100b0576004356001600160a01b03811681036100b0579160243567ffffffffffffffff81116100b057826023820112156100b05780600401359267ffffffffffffffff84116100b057602484830101116100b057602401919056fea2646970667358221220f6caa4ba23b95fc2c6fa21db4b0ee90ae6c64a66055b2186c410488dfd07e25464736f6c634300081e0033","linkReferences":{}},"methodIdentifiers":{"addAsset(address,string)":"5a109d1d","allowed(address)":"d63a8e11","dao()":"4162169f","decimals(address)":"d449a832","isWhitelisted(address)":"3af32abf","removeAsset(address)":"4a5e42b1","setSymbolHint(address,string)":"6cfaf819","tokenDecimals(address)":"8ee573ac"},"id":95}