{"abi":[{"type":"constructor","inputs":[{"name":"_vfideToken","type":"address","internalType":"address"},{"name":"_securityHub","type":"address","internalType":"address"},{"name":"_ledger","type":"address","internalType":"address"},{"name":"_dao","type":"address","internalType":"address"}],"stateMutability":"nonpayable"},{"type":"function","name":"RECOVERY_APPROVALS_REQUIRED","inputs":[],"outputs":[{"name":"","type":"uint8","internalType":"uint8"}],"stateMutability":"view"},{"type":"function","name":"RECOVERY_DELAY","inputs":[],"outputs":[{"name":"","type":"uint64","internalType":"uint64"}],"stateMutability":"view"},{"type":"function","name":"acceptOwnership","inputs":[],"outputs":[],"stateMutability":"nonpayable"},{"type":"function","name":"approveForceRecovery","inputs":[{"name":"vault","type":"address","internalType":"address"},{"name":"newOwner","type":"address","internalType":"address"}],"outputs":[],"stateMutability":"nonpayable"},{"type":"function","name":"cancelOwnershipTransfer","inputs":[],"outputs":[],"stateMutability":"nonpayable"},{"type":"function","name":"checkVaultStatus","inputs":[{"name":"addr","type":"address","internalType":"address"}],"outputs":[{"name":"hasVault","type":"bool","internalType":"bool"},{"name":"vaultAddress","type":"address","internalType":"address"},{"name":"isVaultContract","type":"bool","internalType":"bool"}],"stateMutability":"view"},{"type":"function","name":"createVault","inputs":[],"outputs":[{"name":"","type":"address","internalType":"address"}],"stateMutability":"nonpayable"},{"type":"function","name":"dao","inputs":[],"outputs":[{"name":"","type":"address","internalType":"address"}],"stateMutability":"view"},{"type":"function","name":"ensureVault","inputs":[{"name":"owner_","type":"address","internalType":"address"}],"outputs":[{"name":"vault","type":"address","internalType":"address"}],"stateMutability":"nonpayable"},{"type":"function","name":"finalizeForceRecovery","inputs":[{"name":"vault","type":"address","internalType":"address"}],"outputs":[],"stateMutability":"nonpayable"},{"type":"function","name":"getVault","inputs":[{"name":"owner_","type":"address","internalType":"address"}],"outputs":[{"name":"","type":"address","internalType":"address"}],"stateMutability":"view"},{"type":"function","name":"getVaultInfo","inputs":[{"name":"vault","type":"address","internalType":"address"}],"outputs":[{"name":"owner_","type":"address","internalType":"address"},{"name":"createdAt","type":"uint256","internalType":"uint256"},{"name":"isLocked","type":"bool","internalType":"bool"},{"name":"exists","type":"bool","internalType":"bool"}],"stateMutability":"view"},{"type":"function","name":"initiateForceRecovery","inputs":[{"name":"vault","type":"address","internalType":"address"},{"name":"newOwner","type":"address","internalType":"address"}],"outputs":[],"stateMutability":"nonpayable"},{"type":"function","name":"isRecoveryApprover","inputs":[{"name":"","type":"address","internalType":"address"}],"outputs":[{"name":"","type":"bool","internalType":"bool"}],"stateMutability":"view"},{"type":"function","name":"isVault","inputs":[{"name":"a","type":"address","internalType":"address"}],"outputs":[{"name":"","type":"bool","internalType":"bool"}],"stateMutability":"view"},{"type":"function","name":"ledger","inputs":[],"outputs":[{"name":"","type":"address","internalType":"contract IProofLedger"}],"stateMutability":"view"},{"type":"function","name":"owner","inputs":[],"outputs":[{"name":"","type":"address","internalType":"address"}],"stateMutability":"view"},{"type":"function","name":"ownerOfVault","inputs":[{"name":"","type":"address","internalType":"address"}],"outputs":[{"name":"","type":"address","internalType":"address"}],"stateMutability":"view"},{"type":"function","name":"pendingOwner","inputs":[],"outputs":[{"name":"","type":"address","internalType":"address"}],"stateMutability":"view"},{"type":"function","name":"predictVault","inputs":[{"name":"owner_","type":"address","internalType":"address"}],"outputs":[{"name":"predicted","type":"address","internalType":"address"}],"stateMutability":"view"},{"type":"function","name":"predictVaultsBatch","inputs":[{"name":"owners","type":"address[]","internalType":"address[]"}],"outputs":[{"name":"vaults","type":"address[]","internalType":"address[]"}],"stateMutability":"view"},{"type":"function","name":"recoveryApprovalCount","inputs":[{"name":"","type":"address","internalType":"address"}],"outputs":[{"name":"","type":"uint8","internalType":"uint8"}],"stateMutability":"view"},{"type":"function","name":"recoveryApprovals","inputs":[{"name":"","type":"address","internalType":"address"},{"name":"","type":"address","internalType":"address"},{"name":"","type":"uint256","internalType":"uint256"}],"outputs":[{"name":"","type":"bool","internalType":"bool"}],"stateMutability":"view"},{"type":"function","name":"recoveryNonce","inputs":[{"name":"","type":"address","internalType":"address"}],"outputs":[{"name":"","type":"uint256","internalType":"uint256"}],"stateMutability":"view"},{"type":"function","name":"recoveryProposedOwner","inputs":[{"name":"","type":"address","internalType":"address"}],"outputs":[{"name":"","type":"address","internalType":"address"}],"stateMutability":"view"},{"type":"function","name":"recoveryUnlockTime","inputs":[{"name":"","type":"address","internalType":"address"}],"outputs":[{"name":"","type":"uint64","internalType":"uint64"}],"stateMutability":"view"},{"type":"function","name":"securityHub","inputs":[],"outputs":[{"name":"","type":"address","internalType":"contract ISecurityHub"}],"stateMutability":"view"},{"type":"function","name":"setDAO","inputs":[{"name":"_dao","type":"address","internalType":"address"}],"outputs":[],"stateMutability":"nonpayable"},{"type":"function","name":"setModules","inputs":[{"name":"_vfideToken","type":"address","internalType":"address"},{"name":"_securityHub","type":"address","internalType":"address"},{"name":"_ledger","type":"address","internalType":"address"},{"name":"_dao","type":"address","internalType":"address"}],"outputs":[],"stateMutability":"nonpayable"},{"type":"function","name":"setRecoveryApprover","inputs":[{"name":"approver","type":"address","internalType":"address"},{"name":"status","type":"bool","internalType":"bool"}],"outputs":[],"stateMutability":"nonpayable"},{"type":"function","name":"setVFIDE","inputs":[{"name":"_vfide","type":"address","internalType":"address"}],"outputs":[],"stateMutability":"nonpayable"},{"type":"function","name":"totalVaults","inputs":[],"outputs":[{"name":"","type":"uint256","internalType":"uint256"}],"stateMutability":"view"},{"type":"function","name":"transferOwnership","inputs":[{"name":"newOwner","type":"address","internalType":"address"}],"outputs":[],"stateMutability":"nonpayable"},{"type":"function","name":"vaultCreatedAt","inputs":[{"name":"","type":"address","internalType":"address"}],"outputs":[{"name":"","type":"uint256","internalType":"uint256"}],"stateMutability":"view"},{"type":"function","name":"vaultOf","inputs":[{"name":"","type":"address","internalType":"address"}],"outputs":[{"name":"","type":"address","internalType":"address"}],"stateMutability":"view"},{"type":"function","name":"vfideToken","inputs":[],"outputs":[{"name":"","type":"address","internalType":"address"}],"stateMutability":"view"},{"type":"event","name":"DAOSet","inputs":[{"name":"dao","type":"address","indexed":false,"internalType":"address"}],"anonymous":false},{"type":"event","name":"ForcedRecovery","inputs":[{"name":"vault","type":"address","indexed":true,"internalType":"address"},{"name":"newOwner","type":"address","indexed":true,"internalType":"address"}],"anonymous":false},{"type":"event","name":"ForcedRecoveryInitiated","inputs":[{"name":"vault","type":"address","indexed":true,"internalType":"address"},{"name":"newOwner","type":"address","indexed":true,"internalType":"address"},{"name":"unlockTime","type":"uint64","indexed":false,"internalType":"uint64"}],"anonymous":false},{"type":"event","name":"ModulesSet","inputs":[{"name":"vfide","type":"address","indexed":false,"internalType":"address"},{"name":"securityHub","type":"address","indexed":false,"internalType":"address"},{"name":"ledger","type":"address","indexed":false,"internalType":"address"},{"name":"dao","type":"address","indexed":false,"internalType":"address"}],"anonymous":false},{"type":"event","name":"OwnershipTransferStarted","inputs":[{"name":"previousOwner","type":"address","indexed":true,"internalType":"address"},{"name":"newOwner","type":"address","indexed":true,"internalType":"address"}],"anonymous":false},{"type":"event","name":"OwnershipTransferred","inputs":[{"name":"previousOwner","type":"address","indexed":true,"internalType":"address"},{"name":"newOwner","type":"address","indexed":true,"internalType":"address"}],"anonymous":false},{"type":"event","name":"VFIDESet","inputs":[{"name":"vfide","type":"address","indexed":false,"internalType":"address"}],"anonymous":false},{"type":"event","name":"VaultCreated","inputs":[{"name":"owner","type":"address","indexed":true,"internalType":"address"},{"name":"vault","type":"address","indexed":true,"internalType":"address"}],"anonymous":false},{"type":"error","name":"VH_NotDAO","inputs":[]},{"type":"error","name":"VH_Zero","inputs":[]}],"bytecode":{"object":"0x60803461014257601f61502938819003918201601f19168301916001600160401b03831184841017610146578084926080946040528339810103126101425760808161006b7f2ad69807131f242e4c6b9e21338b8d7d7d5f32ab1dfaa1eddfa881c305c8f5e79361015a565b906100786020820161015a565b90610091606061008a6040840161015a565b920161015a565b5f80546001600160a01b03191633908117825560405195929392917f8be0079c531659141344cd1fd0a4f28419497f9722a3daafe3b4186f6b6457e08180a3600280546001600160a01b039283166001600160a01b03199182168117909255600380549684169682168717905560048054948416948216851790556005805495909316941684179091558452602084019290925260408301919091526060820152a1604051614eba908161016f8239f35b5f80fd5b634e487b7160e01b5f52604160045260245ffd5b51906001600160a01b03821682036101425756fe60806040526004361015610011575f80fd5b5f3560e01c806306d7d6cf1461024f5780630709df45146102455780630d6c4df31461024a5780630eb9af381461024557806317fd7bf6146102405780631a6568811461023b57806323452b9c146102365780632724fe091461023157806327a4e1ab1461022c5780633297992e14610227578063360ca958146102225780634162169f1461021d578063419d7a8314610218578063435c529b1461021357806347b456521461020e57806349bcad0a1461020957806356397c35146102045780635d12928b146101ff578063652b9b41146101fa5780636a240a9c146101f557806379ba5097146101f05780638d654023146101eb5780638da5cb5b146101e657806390229af7146101e15780639f9a6508146101dc578063b079fbff146101d7578063b72d2943146101d2578063b8a71eec146101cd578063c5c82203146101c8578063c93883a5146101c3578063e01fd215146101be578063e30c3978146101b9578063e73a914c146101b4578063f20ca7ed146101af578063f2fde38b146101aa5763fa3fd3bc146101a5575f80fd5b61138e565b6112dc565b611299565b6111fd565b6111d5565b6111ae565b611142565b610f2a565b610f02565b610eda565b610dea565b610da7565b610ca8565b610c81565b610c64565b610ba6565b610afb565b610a66565b610a4b565b610a23565b6109e8565b6109cb565b61098b565b61094d565b610925565b610858565b610833565b6107fa565b6107b7565b61078d565b610533565b610475565b6103c8565b61040b565b610275565b6001600160a01b031690565b6001600160a01b0381160361027157565b5f80fd5b346102715760203660031901126102715760043561029281610260565b6001600160a01b039081165f9081526006602090815260408083205460078352928190205481519385168015158552928401929092529216151591810191909152606090f35b6001600160a01b03165f90815260076020526040902090565b6001600160a01b03165f90815260066020526040902090565b6001600160a01b03165f908152600c6020526040902090565b6001600160a01b03165f908152600a6020526040902090565b6001600160a01b03165f908152600b6020526040902090565b6001600160a01b03165f90815260096020526040902090565b6001600160a01b03165f90815260086020526040902090565b6001600160a01b03165f908152600f6020526040902090565b9060018060a01b03165f5260205260405f2090565b6001600160a01b03909116815260200190565b34610271576020366003190112610271576004356103e581610260565b60018060a01b03165f526006602052602060018060a01b0360405f205416604051908152f35b346102715760603660031901126102715761045360043561042b81610260565b6024359061043882610260565b6001600160a01b03165f908152600a602052604090206103a0565b6044355f5260205260ff60405f20541660405180916020820190151582520390f35b34610271576020366003190112610271577f77035913569424ed432f15a527aa4e0317cbefd28ce0fe9cdfe61acd77345c1760206004356104b581610260565b6104bd6119fb565b600280546001600160a01b0319166001600160a01b03929092169182179055604051908152a16105096104ee611412565b6c1a1d5897dd999a591957dcd95d609a1b6020820152611a68565b005b60409060031901126102715760043561052381610260565b9060243561053081610260565b90565b34610271576105413661050b565b335f908152600d6020526040902090919061056790610562905b5460ff1690565b611465565b6001600160a01b0381169182158015610772575b610763576105a261059b610596610591856102d8565b6113c9565b610254565b15156114a3565b6105ba6105b4610596610591846102f1565b156114df565b6105c38261030a565b546105f16105ed61055b836105e0336105db89610323565b6103a0565b905f5260205260405f2090565b1590565b6106ff575b50600360ff61060761055b8561033c565b16101561061057005b610509926106408261062185610355565b80546001600160a01b0319166001600160a01b03909216919091179055565b61068361065b61064f4261157c565b6001600160401b031690565b6106648561036e565b80546001600160401b0319166001600160401b03909216919091179055565b7f4f6a320f55ac586fc5dbafc5a9d39bf84e088884ac86cb6391a2ced7e237c8316106e66106c06106b38661036e565b546001600160401b031690565b6040516001600160a01b0390951694918291826001600160401b03909116815260200190565b0390a36106f161158c565b6106f9611427565b91611add565b610713610720916105e0336105db87610323565b805460ff19166001179055565b61074d61072c8361033c565b61073f61073a825460ff1690565b611532565b60ff1660ff19825416179055565b61075d610758611548565b611a68565b5f6105f6565b6306f32b4160e51b5f5260045ffd5b506001600160a01b0381161561057b565b5f91031261027157565b34610271575f366003190112610271576107a56119fb565b600180546001600160a01b0319169055005b34610271576020366003190112610271576004356107d481610260565b60018060a01b03165f526007602052602060018060a01b0360405f205416604051908152f35b3461027157602036600319011261027157602061082160043561081c81610260565b6115bc565b6040516001600160a01b039091168152f35b34610271575f36600319011261027157602060405160038152f35b8015150361027157565b346102715760403660031901126102715760043561087581610260565b602435906108828261084e565b61088a6119fb565b6001600160a01b031661089e81151561162a565b5f52600d6020526108be8160405f209060ff801983541691151516179055565b156108f3576105096108ce611450565b761c9958dbdd995c9e57d85c1c1c9bdd995c97d859191959604a1b6020820152611a68565b6105096108fe61143b565b781c9958dbdd995c9e57d85c1c1c9bdd995c97dc995b5bdd9959603a1b6020820152611a68565b34610271575f366003190112610271576005546040516001600160a01b039091168152602090f35b346102715760203660031901126102715760043561096a81610260565b60018060a01b03165f52600b602052602060ff60405f205416604051908152f35b34610271576020366003190112610271576004356109a881610260565b60018060a01b03165f52600d602052602060ff60405f2054166040519015158152f35b34610271575f36600319011261027157602060405162093a808152f35b3461027157602036600319011261027157600435610a0581610260565b60018060a01b03165f52600c602052602060405f2054604051908152f35b34610271575f366003190112610271576004546040516001600160a01b039091168152602090f35b34610271575f366003190112610271576020610821336118ac565b3461027157602036600319011261027157610abe600435610a8681610260565b6001600160a01b039081165f8181526007602052604090205490911615159081610ac2575b5060405190151581529081906020820190565b0390f35b8091505f52600760205260018060a01b0360405f2054165f52600660205260018060a01b03610af360405f206113c9565b16145f610aab565b3461027157610b093661050b565b90610b18610596600554610254565b3303610b97576001600160a01b0381169182158015610b86575b6107635761050992610b4c61059b610596610591866102d8565b610b5e6105b4610596610591856102f1565b610b79600360ff610b7161055b8761033c565b161015611660565b6106408261062185610355565b506001600160a01b03811615610b32565b6322671fad60e01b5f5260045ffd5b34610271575f366003190112610271576001546001600160a01b03163303610c26575f5433906001600160a01b0390610bde90610254565b167f8be0079c531659141344cd1fd0a4f28419497f9722a3daafe3b4186f6b6457e05f80a35f80546001600160a01b03191633179055600180546001600160a01b0319169055005b60405162461bcd60e51b815260206004820152601660248201527527aba71d103737ba103832b73234b7339037bbb732b960511b6044820152606490fd5b34610271575f366003190112610271576020600e54604051908152f35b34610271575f366003190112610271575f546040516001600160a01b039091168152602090f35b3461027157602036600319011261027157600435610cc581610260565b610cd1610591826102d8565b610cda82610387565b5490610cea610596600354610254565b92610cf484610254565b15159384610d30575b5050604080516001600160a01b039290921680835260208301939093529215159281019290925215156060820152608090f35b610d55929450906020916040518080958194631293efbb60e21b8352600483016103b5565b03915afa8015610da257610abe915f91610d73575b5092905f610cfd565b610d95915060203d602011610d9b575b610d8d81836113ea565b8101906116a8565b5f610d6a565b503d610d83565b6116bd565b3461027157602036600319011261027157600435610dc481610260565b60018060a01b03165f526009602052602060018060a01b0360405f205416604051908152f35b34610271576080366003190112610271577f2ad69807131f242e4c6b9e21338b8d7d7d5f32ab1dfaa1eddfa881c305c8f5e7600435610e2881610260565b60243590610e3582610260565b610ecc604435610e4481610260565b60643590610e5182610260565b610e596119fb565b600280546001600160a01b039586166001600160a01b03199182168117909255600380549787169782168817905560048054938716938216841790556005805494909616931683179094556040805194855260208501959095529383019390935260608201929092529081906080820190565b0390a16105096107586116c8565b34610271575f366003190112610271576003546040516001600160a01b039091168152602090f35b34610271575f366003190112610271576002546040516001600160a01b039091168152602090f35b3461027157602036600319011261027157600435610f4781610260565b610f55610596600554610254565b3303610b9757610f7a6001600160401b03610f726106b38461036e565b1615156116f5565b610f94610f8c61064f6106b38461036e565b42101561172d565b610fa061059182610355565b906001600160a01b038216610fb681151561162a565b610fc86105b4610596610591866102f1565b610fd4610591836102d8565b6001600160a01b0381166110ee575b50610ff183610621846102d8565b610ffe82610621856102f1565b6001600160a01b038216803b15610271575f61102e94604051809681926324d89a6360e21b8352600483016103b5565b038183855af1938415610da257610509946110d4575b5061106161105184610355565b80546001600160a01b0319169055565b61107d61106d8461036e565b80546001600160401b0319169055565b6110936110898461033c565b805460ff19169055565b61109c8361030a565b6110a68154611767565b90557f95d14defab6a2b4ee4b7409bbb87adbfd28ae37e235f30d9a96198e6825dbc3b5f80a36106f1611775565b806110e25f6110e8936113ea565b80610783565b5f611044565b6110516110fa916102f1565b5f610fe3565b60206040818301928281528451809452019201905f5b8181106111235750505090565b82516001600160a01b0316845260209384019390920191600101611116565b34610271576020366003190112610271576004356001600160401b0381116102715736602382011215610271576004810135906001600160401b038211610271573660248360051b8301011161027157610abe9160246111a292016117bd565b60405191829182611100565b346102715760203660031901126102715760206108216004356111d081610260565b6118ac565b34610271575f366003190112610271576001546040516001600160a01b039091168152602090f35b34610271576020366003190112610271577f8aad84fcad50e723fa3bcf0fb32c5bea4c71078b77b9aedfa638f146f3a3f7b9602060043561123d81610260565b6112456119fb565b600580546001600160a01b0319166001600160a01b03929092169182179055604051908152a161050960405161127c6040826113ea565b600b81526a1a1d5897d9185bd7dcd95d60aa1b6020820152611a68565b34610271576020366003190112610271576004356112b681610260565b60018060a01b03165f526008602052602060018060401b0360405f205416604051908152f35b34610271576020366003190112610271576004356112f981610260565b6113016119fb565b6001600160a01b0316801561135d57600180546001600160a01b031916821790555f546001600160a01b039061133690610254565b167f38d16b8cac22d99fc7c124b9cd0de2d3fa1faef420bfe791d8c362d765e227005f80a3005b60405162461bcd60e51b81526020600482015260096024820152684f574e3a207a65726f60b81b6044820152606490fd5b34610271576020366003190112610271576004356113ab81610260565b60018060a01b03165f52600f602052602060405f2054604051908152f35b546001600160a01b031690565b634e487b7160e01b5f52604160045260245ffd5b601f909101601f19168101906001600160401b0382119082101761140d57604052565b6113d6565b604051906114216040836113ea565b600d8252565b604051906114366020836113ea565b5f8252565b6040519061144a6040836113ea565b60198252565b6040519061145f6040836113ea565b60178252565b1561146c57565b60405162461bcd60e51b815260206004820152600f60248201526e2b241d3737ba16b0b8383937bb32b960891b6044820152606490fd5b156114aa57565b60405162461bcd60e51b815260206004820152600d60248201526c1d5b9adb9bdddb881d985d5b1d609a1b6044820152606490fd5b156114e657565b60405162461bcd60e51b815260206004820152601060248201526f1d185c99d95d081a185cc81d985d5b1d60821b6044820152606490fd5b634e487b7160e01b5f52601160045260245ffd5b60ff1660ff81146115435760010190565b61151e565b604051906115576040836113ea565b60168252751c9958dbdd995c9e57d85c1c1c9bdd985b17d8d85cdd60521b6020830152565b9062093a80820180921161154357565b6040519061159b6040836113ea565b6012825271199bdc98d957dc9958dbdd995c97da5b9a5d60721b6020830152565b6001600160a01b03811615611625576115dd6115d782611b77565b91611bb9565b6020815191012060405190602082019260ff60f81b84523060601b602184015260358301526055820152605581526116166075826113ea565b5190206001600160a01b031690565b505f90565b1561163157565b60405162461bcd60e51b815260206004820152600760248201526656483a7a65726f60c81b6044820152606490fd5b1561166757565b60405162461bcd60e51b815260206004820152601960248201527856483a696e73756666696369656e742d617070726f76616c7360381b6044820152606490fd5b9081602091031261027157516105308161084e565b6040513d5f823e3d90fd5b604051906116d76040836113ea565b600f82526e1a1d5897db5bd91d5b195cd7dcd95d608a1b6020830152565b156116fc57565b60405162461bcd60e51b815260206004820152600960248201526856483a6e6f2d72657160b81b6044820152606490fd5b1561173457565b60405162461bcd60e51b815260206004820152600b60248201526a56483a74696d656c6f636b60a81b6044820152606490fd5b5f1981146115435760010190565b604051906117846040836113ea565b6013825272199bdc98d957dc9958dbdd995c97d99a5b985b606a1b6020830152565b6001600160401b03811161140d5760051b60200190565b6117c6826117a6565b926117d460405194856113ea565b828452601f196117e3846117a6565b0136602086013783905f5b84811015611846578060051b9061180b8286013561081c81610260565b918751821015611832576001600160a01b03909216918701602001919091526001016117ee565b634e487b7160e01b5f52603260045260245ffd5b509250925050565b1561185557565b60405162461bcd60e51b815260206004820152600e60248201526d18dc99585d194c8819985a5b195960921b6044820152606490fd5b611893611412565b906c1d985d5b1d17d8dc99585d1959609a1b6020830152565b6001600160a01b03811691908215610763576118cc610596600254610254565b15610763576118dd610591826102f1565b6001600160a01b0381166119f657506118f581611b77565b6118fe82611bb9565b6020815191015ff5926001600160a01b038416916119379061192184151561184e565b61192e86610621836102f1565b610621866102d8565b61194a611945600e54611767565b600e55565b4261195485610387565b55611963610596600354610254565b61196c81610254565b6119b2575b507f5d9c31ffa0fecffd7cf379989a3c7af252f0335e0d2a1320b55245912c781f535f80a36119b06119a161188b565b6119a9611427565b9084611add565b565b803b15610271575f60405180926367ccd1cb60e01b82528183816119d98b600483016103b5565b03925af11561197157806110e25f6119f0936113ea565b5f611971565b925050565b5f546001600160a01b03163303611a0e57565b60405162461bcd60e51b815260206004820152600e60248201526d27aba71d103737ba1037bbb732b960911b6044820152606490fd5b805180835260209291819084018484015e5f828201840152601f01601f1916010190565b6004546001600160a01b031680611a7d575050565b803b1561027157604051633ddd61ab60e21b815230600482015260606024820152915f918391829084908290611ab7906064830190611a44565b33604483015203925af1611ac85750565b80611ad45f80936113ea565b80031261027157565b6004549092906001600160a01b031680611af8575b50505050565b803b1561027157604051630303c28760e61b81526001600160a01b0390941660048501908152608060248601525f938593849286928492611b569291611b42906084860190611a44565b918560408201526060818403910152611a44565b03925af1611b67575b808080611af2565b5f611b71916113ea565b5f611b5f565b60405160609190911b6001600160601b031916602082019081526014825290611ba16034826113ea565b51902090565b805191908290602001825e015f815290565b610530611c6b91611c4d6132139160405192611bd860208201856113ea565b808452611c726020850139611c5b60018060a01b0360025416611c4d611c02610596600354610254565b611c10610596600454610254565b604080513060208201526001600160a01b03958616918101919091529584166060870152908316608086015290911660a0840152829060c0820190565b03601f1981018352826113ea565b6040519485936020850190611ba7565b90611ba756fe60808060405234610233575f9060a0816132138038038091610021828561029e565b83398101031261023357610034816102c1565b610040602083016102c1565b61004c604084016102c1565b90610065608061005e606087016102c1565b95016102c1565b60015f55926001600160a01b03168015158061028c575b8061027a575b1561024b57600180546001600160a01b03199081169290921790556002805482166001600160a01b03938416179055600580548216938316938417905560038054821695831695909517909455600480549094169216918217909255600a80546001600160401b0319166201518017905569021e19e0c9bab2400000600b55600c8054600160401b600160801b031916690e100000000000000000179055670de0b6b3a7640000600d55690a968163f0a57b400000600f556010805461ffff1916611388179055604080519081016001600160401b0381118282101761023757604052600d8152602081016c1d985d5b1d17d8dc99585d1959609a1b8152826101bc575b5050507f50146d0e3c60aa1d17a70635b05494f864e86144a2201275021014fbf08bafe26040519280a2612f3d90816102d68239f35b823b15610233576084925f9283604051958680958194633ddd61ab60e21b8352306004840152606060248401525180918160648501528484015e8181018301849052336044830152601f01601f191681010301925af161021e575b8080610186565b61022b9192505f9061029e565b5f905f610217565b5f80fd5b634e487b7160e01b5f52604160045260245ffd5b60405162461bcd60e51b815260206004820152600760248201526655563a7a65726f60c81b6044820152606490fd5b506001600160a01b0383161515610082565b506001600160a01b038216151561007c565b601f909101601f19168101906001600160401b0382119082101761023757604052565b51906001600160a01b03821682036102335756fe6080604052600436101561001a575b3615610018575f80fd5b005b5f5f3560e01c8063020378221461261e578063054f7d9c146125fc57806306603f8d146125d45780630665f04b1461247a578063091ea9dc1461242c578063092cc1fb1461240f5780630b6946da146123455780630ba234d61461228c5780630c68ba211461224f5780630fbd22b01461222a578063118f117f1461220257806312065fe01461217b578063124f8d9c146120fe5780631459457a14611f2c5780631bed8c6e14611dfb5780631cff79cd14611bd8578063269b54b114611bb35780632b8a1c5a146118bb57806334a014dc1461188f578063365a86fc1461186757806342e01e73146118275780635132124c1461180a578063518d095914611733578063536b801d146116ab57806354387ad71461168b57806356397c35146116635780635f8983fd146115e357806363a8374d1461157857806363f95a3b1461154b578063688aa6ce146112e65780636a1509811461129b5780636b1994ea1461120c5780636d68e53b146111ef578063700c5e7d1461100f578063713c6cb3146111725780637e932d32146110b0578063835316c7146110145780638b2bc3e71461100f5780638da5cb5b14610fe75780638e48d08214610f815780638f252d3414610ec65780639362698c14610e0257806393bcd85814610dd85780639a0dd14014610dbb578063aa14cc6b14610d0e578063b50ef71b14610b1a578063b5354ce514610afc578063b72d294314610ad3578063b8a71eec14610aaa578063ba58db5114610964578063c60cd99c146108dd578063d6c89c60146108b4578063e2158ee714610892578063e24ba2651461072b578063e2ccb305146105d3578063e6536fc5146105b5578063e6dd89ca1461050b578063f9773f9214610443578063fcae8d38146102d95763fd4fa981146102b9575061000e565b346102d657806003193601126102d6576020604051620151808152f35b80fd5b50346102d657806003193601126102d6576102f2612bca565b338152600660205260ff604082205416156104345761031861031333612875565b612767565b6014546001600160a01b038116156104255760a81c6001600160401b03164211610416573381526016602052604081206015549081835260205260ff6040832054166104075733825260166020526040822090825260205260408120600160ff1982541617905560145460ff60a01b61039660ff8360a01c166127a1565b60a01b1660ff60a01b19821617908160145560ff6040519260a01c16825260018060a01b0316905f516020612ec85f395f51905f5260203392a36104046040516103e160408261269c565b60118152701c9958dbdd995c9e57d85c1c1c9bdd9959607a1b6020820152612c5b565b80f35b63017a521b60e51b8252600482fd5b638d0fa13360e01b8152600490fd5b638d0fa13360e01b8252600482fd5b633321153560e21b8152600490fd5b50346102d65760203660031901126102d657600435610460612b8f565b80825260126020526040822080546001600160a01b0316156104fc57600201805460ff8160481c166104ed576001600160401b0361049f8282166127b2565b1642116104de5760ff60401b1916600160401b17905533907f924813d717e221b5f46dcd8a56da1679e4612584ab3237d55e5faabf6f6a30798380a380f35b634c8d442960e01b8452600484fd5b63446d277b60e11b8452600484fd5b634c8d442960e01b8352600483fd5b50346102d65760603660031901126102d657610525612670565b602435906044359161ffff83168093036105b1577f2e02e19641dbae8d0ee7cf4656d3cc039f7adb684e447de0492c12fe349bc9d592606092610566612b8f565b6105746127108311156126fe565b151591600e5461ff008460081b169061ff00191617600e5580600f558161ffff19601054161760105560405192835260208301526040820152a180f35b8380fd5b50346102d657806003193601126102d657602060405162093a808152f35b50346102d657806003193601126102d6576105ec612bca565b6014546001600160a01b03811690811561071c5760a881901c6001600160401b0316421161071c5760ff8160e81c1690600282106106e25760ff80610639607f6106469560011c16612755565b169160a01c1610156128de565b601480546001600160e81b031916905560155461066290612747565b601555600580546001600160a01b03191682179055807f9504e318c48c2d15540e6faaea014f2855c06fc4df211f5e26a8fb99a6be7fdf8380a25f516020612ea85f395f51905f528280a26104046040516106be60408261269c565b60128152711c9958dbdd995c9e57d99a5b985b1a5e995960721b6020820152612c5b565b60405162461bcd60e51b815260206004820152601260248201527155563a6d696e2d322d677561726469616e7360701b6044820152606490fd5b638d0fa13360e01b8352600483fd5b50346102d65760203660031901126102d657610745612636565b61074d612bca565b338252600660205260ff604083205416156108835761077561076e33612875565b1515612767565b6001600160a01b03168015610874576014546001600160a81b0319168117600160a01b17600160a81b600160e81b036107ad42612737565b60a81b1660ff60e81b60075460e81b1691600160a81b600160f01b03191617176014556107db601554612747565b8060155533835260166020526040832090835260205260408220600160ff19825416179055604051817f9cc0dc5a29a0ebc421ec879559ba990d29c1fb967a227ed69c9f4e33faa04bff8480a2600181525f516020612ec85f395f51905f5260203392a361040460405161085060408261269c565b60128152711c9958dbdd995c9e57dc995c5d595cdd195960721b6020820152612c5b565b630fd9d18960e41b8252600482fd5b633321153560e21b8252600482fd5b50346102d657806003193601126102d657602061ffff60105416604051908152f35b50346102d657806003193601126102d657600a546040516001600160401b039091168152602090f35b50346102d657806003193601126102d65760a060175460ff8116908161094c575b60ff9081610915607f826007541660011c16612755565b6040519415158552818360081c16602086015216604084015260018060401b038160101c16606084015260501c1615156080820152f35b601081901c6001600160401b031642111591506108fe565b50346102d657806003193601126102d65761097d612bca565b338152600660205260ff604082205416156104345761099e61031333612875565b60175460ff811615610a9b5760101c6001600160401b03164211610a8c573381526019602052604081206018549081835260205260ff6040832054166104075733825260196020526040822090825260205260408120600160ff1982541617905560175461ff00610a1460ff8360081c166127a1565b60081b169061ff001916178060175560ff6040519160081c1681527f0ea7dfe497d90adcfba43ccd872c922d16653039b5d89b207ba8554c2cff14cd60203392a2610404604051610a6660408261269c565b60148152731a5b9a195c9a5d185b98d957d85c1c1c9bdd995960621b6020820152612c5b565b6324dcf66760e21b8152600490fd5b6324dcf66760e21b8252600482fd5b50346102d657806003193601126102d6576002546040516001600160a01b039091168152602090f35b50346102d657806003193601126102d6576003546040516001600160a01b039091168152602090f35b50346102d657806003193601126102d6576020600b54604051908152f35b5034610cec576020366003190112610cec57600435610b37612b8f565b610b3f612bca565b610b47612cbb565b610b4f612cd6565b5f81815260126020526040902080546001600160a01b031615610cf05760028101805460ff8160481c16610cff5760ff8160401c1615610cf0576001600160401b03610b9c8282166127b2565b164211610cf05760ff60481b1916600160481b17905560098054600160a01b600160e01b0319164260a01b600160a01b600160e01b03161790556002548154600183018054909392610bfa926001600160a01b039081169116612d17565b60018060a01b039054169054917fda19024f6708ce28e75d9c0ec389fb05a8e5cc9dfe520f61239c10d51a11e59c6020604051858152a3604051610c3f60408261269c565b60138152721c195b991a5b99d7dd1e17d95e1958dd5d1959606a1b60208201526004546001600160a01b03169081610c7a575b836001815580f35b813b15610cec575f91610cb3918360206040519687958694630303c28760e61b865230600487015260806024870152608486019061264c565b9060448501528284820391600319830160648701525201925af1610cd9575b8080610c72565b610ce591505f9061269c565b5f5f610cd2565b5f80fd5b634c8d442960e01b5f5260045ffd5b63446d277b60e11b5f5260045ffd5b34610cec575f366003190112610cec57610d26612b8f565b610d2e612bca565b60175460ff811615610dac5760ff1916601755610d4c601854612747565b601855337f577d80a92396a49283a298935287995fee74eceefc62c3edfdf8257ec85462965f80a2610018604051610d8560408261269c565b60158152741a5b9a195c9a5d185b98d957d8d85b98d95b1b1959605a1b6020820152612c5b565b6324dcf66760e21b5f5260045ffd5b34610cec575f366003190112610cec576020600d54604051908152f35b34610cec575f366003190112610cec57600c546040805191901c6001600160401b03168152602090f35b34610cec576020366003190112610cec57610e1b612636565b6001546001600160a01b03163303610e9457600580546001600160a01b0319166001600160a01b0392909216918217905560408051610e8191610e5e908261269c565b60118152703b30bab63a2fb337b931b2afb7bbb732b960791b6020820152612c5b565b5f516020612ea85f395f51905f525f80a2005b60405162461bcd60e51b815260206004820152600a6024820152692aab1d37b7363ca43ab160b11b6044820152606490fd5b34610cec576020366003190112610cec57610edf612670565b610ee7612b8f565b6010805462ff00001916821515821b62ff000016179055610f0457005b6002546040516370a0823160e01b815230600482015290602090829060249082906001600160a01b03165afa908115610f76575f91610f44575b50601155005b90506020813d602011610f6e575b81610f5f6020938361269c565b81010312610cec575181610f3e565b3d9150610f52565b6040513d5f823e3d90fd5b34610cec576020366003190112610cec576004356001600160401b03811690819003610cec57610faf612b8f565b610e1081101580610fda575b610fc4906126fe565b600a80546001600160401b031916919091179055005b5062093a80811115610fbb565b34610cec575f366003190112610cec576005546040516001600160a01b039091168152602090f35b61267f565b34610cec576020366003190112610cec5761102d612636565b611035612b8f565b61103d612bca565b600980546001600160a01b0319166001600160a01b039290921691821790557f5e5418a3c3d9e12cae95b949efcf26cfdffb4dbc73cd1d2532a97f656e634bf55f80a261001860405161109160408261269c565b600d81526c1b995e1d1bd99ada5b97dcd95d609a1b6020820152612c5b565b34610cec576020366003190112610cec576110c9612670565b6110d1612b8f565b7f18a225f450380fd39da2a8986c15805afce4eb7f6efbdfe1d0bb9df17c8e7923602082151560ff19600e541660ff821617600e55604051908152a1156111415761001860405161112360408261269c565b600c81526b3b30bab63a2fb33937bd32b760a11b6020820152612c5b565b61001860405161115260408261269c565b600e81526d3b30bab63a2fbab7333937bd32b760911b6020820152612c5b565b34610cec576020366003190112610cec576004356001600160401b038116808203610cec576111b6906111a3612b8f565b610e1081101590816111e1575b506126fe565b600c8054600160401b600160801b03191660409290921b600160401b600160801b0316919091179055005b6201518091501115836111b0565b34610cec575f366003190112610cec576020601354604051908152f35b34610cec576020366003190112610cec576004355f9081526012602052604090208054600182015460029092015460e0926001600160a01b039092169160ff91906001600160401b0380831690611262826127b2565b16916040519586526020860152604085015280606085015242116080840152818160401c16151560a084015260481c16151560c0820152f35b34610cec576040366003190112610cec576112e06112b7612636565b6112bf612b8f565b6112c7612bca565b6112cf612cbb565b6112d7612cd6565b60243590612919565b60015f55005b34610cec575f366003190112610cec576112fe612bca565b611306612cd6565b6009546001600160a01b03163381900361153c5760175460ff811615610dac57601081901c6001600160401b03164211610dac5760ff8160501c1661152d5761136c60ff61135d607f826007541660011c16612755565b1660ff8360081c1610156128de565b60ff191660175561137e601854612747565b6018556002546040516370a0823160e01b81523060048201526001600160a01b0390911691602082602481865afa918215610f76575f926114f9575b50600154604051630709df4560e01b81526004810192909252602090829060249082906001600160a01b03165afa908115610f76575f916114b7575b506001600160a01b03811692831561148457611413918391612d17565b6009546040519182526001600160a01b0316907fcc9c89312a2ac19bfbb488a107aa51e50162fc6a2ad5dad80dbba85e2a9a936890602090a36112e060405161145d60408261269c565b60158152741a5b9a195c9a5d185b98d957d99a5b985b1a5e9959605a1b6020820152612c5b565b60405162461bcd60e51b815260206004820152600b60248201526a15558e9b9bcb5d985d5b1d60aa1b6044820152606490fd5b90506020813d6020116114f1575b816114d26020938361269c565b81010312610cec57516001600160a01b0381168103610cec57836113f6565b3d91506114c5565b9091506020813d602011611525575b816115156020938361269c565b81010312610cec575190836113ba565b3d9150611508565b63781b949d60e11b5f5260045ffd5b631a4f16b960e21b5f5260045ffd5b34610cec576020366003190112610cec57602061156e611569612636565b612875565b6040519015158152f35b34610cec576020366003190112610cec576004355f52601260205260a060405f2060ff600180841b03825416916002600182015491015490604051938452602084015260018060401b0381166040840152818160401c161515606084015260481c1615156080820152f35b34610cec576020366003190112610cec576004356115ff612b8f565b5f81815260126020526040902080546001600160a01b031615610cf057600201805460ff8160481c16610cff5760ff60481b1916600160481b17905533907f12cd094e454538586035071c64eb69c206d65137212e7d5e9d32d738540435705f80a3005b34610cec575f366003190112610cec576004546040516001600160a01b039091168152602090f35b34610cec575f366003190112610cec57602060ff60075416604051908152f35b34610cec575f366003190112610cec576116c3612b8f565b6017805460ff60ff60501b011916600160501b179055337fec32f6be1cfe5f271330570749895d0cdcb3324846ee37b8a6ac973b4a27cf575f80a261001860405161170f60408261269c565b60128152711a5b9a195c9a5d185b98d957d9195b9a595960721b6020820152612c5b565b34610cec576020366003190112610cec576004355f90815260126020526040902080546001600160a01b031615610cf057600201805460ff8160481c16610cff576001600160401b036117878282166127b2565b164211156117d45760ff60481b1916600160481b17905560408051610018916117b0908261269c565b6012815271195e1c1a5c995917dd1e17d8db19585b995960721b6020820152612c5b565b60405162461bcd60e51b815260206004820152600e60248201526d15558e9b9bdd0b595e1c1a5c995960921b6044820152606490fd5b34610cec575f366003190112610cec576020601154604051908152f35b34610cec576020366003190112610cec576001600160a01b03611848612636565b165f52601a602052602060018060401b0360405f205416604051908152f35b34610cec575f366003190112610cec576001546040516001600160a01b039091168152602090f35b34610cec575f366003190112610cec5760095460405160a09190911c6001600160401b03168152602090f35b34610cec576040366003190112610cec576118d4612636565b60243590811515808303610cec576118ea612b8f565b6118f2612bca565b6001600160a01b038216918215611ba4576014546001600160a01b0316611b9557825f5260066020528160ff60405f20541615150361192d57005b825f52600660205260405f2060ff1981541660ff8416179055835f14611a6b5760075460ff61195d8183166127a1565b60ff1990921691161760075560085491600160401b831015611a57576119c160209261199d8560015f516020612ee85f395f51905f52970160085561285d565b9080546001600160a01b0360039390931b83811b199091169290931690921b179055565b5f848152601a83526040902080546001600160401b031916426001600160401b03161790555b604051908152a215611a2457610018604051611a0460408261269c565b600e81526d19dd585c991a585b97d85919195960921b6020820152612c5b565b610018604051611a3560408261269c565b601081526f19dd585c991a585b97dc995b5bdd995960821b6020820152612c5b565b634e487b7160e01b5f52604160045260245ffd5b509060075460ff81168015611b685760ff905f1901169060ff1916176007555f5b60085480821015611b7c5782611aa18361285d565b905460039190911b1c6001600160a01b031614611ac15750600101611a8c565b9192915f19810191908211611b685761199d611adf611af79361285d565b905460039190911b1c6001600160a01b03169161285d565b6008548015611b54575f516020612ee85f395f51905f52916020915f1901611b1e8161285d565b81549060018060a01b039060031b1b191690556008555b5f848152601a83526040902080546001600160401b03191690556119e7565b634e487b7160e01b5f52603160045260245ffd5b634e487b7160e01b5f52601160045260245ffd5b50509060205f516020612ee85f395f51905f5291611b35565b631b11469b60e11b5f5260045ffd5b630fd9d18960e41b5f5260045ffd5b34610cec575f366003190112610cec57602060ff60105460101c166040519015158152f35b6040366003190112610cec57611bec612636565b6024356001600160401b038111610cec5736602382011215610cec576004810135916001600160401b038311610cec573660248484010111610cec57611c30612b8f565b611c38612bca565b611c40612cbb565b611c48612cd6565b6002546001600160a01b0382811691168114611dc8576001546001600160a01b031614611d9757600d543411611d6757600c545f938493602492909190611cab6001600160401b03611ca2604084901c82168285166127cc565b164210156127e5565b6001600160401b031916426001600160401b031617600c5560405192839282910183378101848152039134905af1611ce161281f565b9015611d3157611d2d90611d15604051611cfc60408261269c565b60078152666578656375746560c81b6020820152612c5b565b60015f5560405191829160208352602083019061264c565b0390f35b60405162461bcd60e51b815260206004820152600e60248201526d15558e98d85b1b0b59985a5b195960921b6044820152606490fd5b60405162461bcd60e51b815260206004820152600860248201526755563a76616c756560c01b6044820152606490fd5b60405162461bcd60e51b81526020600482015260096024820152682aab1d373796b43ab160b91b6044820152606490fd5b60405162461bcd60e51b815260206004820152600b60248201526a2aab1d373796ba37b5b2b760a91b6044820152606490fd5b34610cec575f366003190112610cec57611e13612bca565b335f52600660205260ff60405f20541615611f1d57611e3461031333612875565b60175460ff811615610dac57600754611e529060011c607f16612755565b9061ff00611e6560ff8360081c166127a1565b60081b169160ff808461ff00198516179283601755169160081c161015611e8857005b61ffff19161780601755611e9d601854612747565b60185560ff6040519160081c1681527f82a4e870a30fcdcdb7097dff3667437d1d8574e2766560bb07e1f1fb4a5b151860203392a2610018604051611ee360608261269c565b602281527f696e6865726974616e63655f63616e63656c6c65645f62795f677561726469616020820152616e7360f01b6040820152612c5b565b633321153560e21b5f5260045ffd5b34610cec5760a0366003190112610cec57611f45612636565b6024356001600160a01b0381169190829003610cec576044356001600160a01b0381169290839003610cec576064356001600160a01b0381169190829003610cec576084356001600160a01b0381169390849003610cec57601b549060ff82166120ef576001600160a01b031690811515806120e6575b806120dd575b156120ae5760ff19166001908117601b5580546001600160a01b031990811692909217905560028054821692909217909155600580548216851790556003805482169290921790915560048054909116919091179055600a80546001600160401b0319166201518017905569021e19e0c9bab2400000600b55600c8054600160401b600160801b03191660e160441b179055670de0b6b3a7640000600d55690a968163f0a57b400000600f556010805461ffff191661138817905560408051610e819161208f908261269c565b600d81526c1d985d5b1d17d8dc99585d1959609a1b6020820152612c5b565b60405162461bcd60e51b815260206004820152600760248201526655563a7a65726f60c81b6044820152606490fd5b50851515611fc2565b50821515611fbc565b63141fb2bf60e01b5f5260045ffd5b34610cec575f366003190112610cec5760145460a0906001600160a01b0381169061212f60e982901c607f16612755565b8215159160a881901c6001600160401b0316919083612170575b9060ff8092604051968752871c166020860152166040840152606083015215156080820152f35b428310159350612149565b34610cec575f366003190112610cec576002546040516370a0823160e01b815230600482015290602090829060249082906001600160a01b03165afa8015610f76575f906121cf575b602090604051908152f35b506020813d6020116121fa575b816121e96020938361269c565b81010312610cec57602090516121c4565b3d91506121dc565b34610cec575f366003190112610cec57600c546040516001600160401b039091168152602090f35b34610cec575f366003190112610cec57602060ff600e5460081c166040519015158152f35b34610cec576020366003190112610cec576001600160a01b03612270612636565b165f526006602052602060ff60405f2054166040519015158152f35b34610cec575f366003190112610cec576122a4612b8f565b6122ac612bca565b6014546001600160a01b03161561233657601480546001600160e81b03191690556015546122d990612747565b601555337f8154b6c5e1fc90d44b49808ef93f9739148d0821411890f8cd684385e24b9f1e5f80a261001860405161231260408261269c565b60128152711c9958dbdd995c9e57d8d85b98d95b1b195960721b6020820152612c5b565b638d0fa13360e01b5f5260045ffd5b34610cec575f366003190112610cec5761235d612bca565b6009546001600160a01b0316330361153c5760175460ff8160501c1661152d57600162010000600160501b0361239242612737565b60101b1691818060501b03191617176017556123af601854612747565b601855337f45169f9a6369d811de455bb5ecdc25c684355abe2deaf2f8d9b81618754ba3b45f80a26100186040516123e860408261269c565b60158152741a5b9a195c9a5d185b98d957dc995c5d595cdd1959605a1b6020820152612c5b565b34610cec575f366003190112610cec576020600f54604051908152f35b34610cec576020366003190112610cec57600435612448612b8f565b67016345785d8a000081101580612468575b612463906126fe565b600d55005b50678ac7230489e8000081111561245a565b34610cec575f366003190112610cec57604051806020600854918281520190828260085f5260205f20925f5b8181106125b25750506124bb9250038361269c565b81516124df6124c9826126bf565b916124d7604051938461269c565b8083526126bf565b6020820190601f19013682375f5b845181101561252a576001906125156001600160a01b0361250e83896126d6565b5116612875565b61251f82866126d6565b9015159052016124ed565b50909291604051938493604085019060408652518091526060850192905f5b818110612590575050506020908483038286015251918281520191905f5b818110612575575050500390f35b82511515845285945060209384019390920191600101612567565b82516001600160a01b0316855287965060209485019490920191600101612549565b84546001600160a01b03168352600194850194879450602090930192016124a6565b34610cec575f366003190112610cec576009546040516001600160a01b039091168152602090f35b34610cec575f366003190112610cec57602060ff600e54166040519015158152f35b34610cec575f366003190112610cec57610f04612b8f565b600435906001600160a01b0382168203610cec57565b805180835260209291819084018484015e5f828201840152601f01601f1916010190565b600435908115158203610cec57565b34610cec575f366003190112610cec57602060405162278d008152f35b601f909101601f19168101906001600160401b03821190821017611a5757604052565b6001600160401b038111611a575760051b60200190565b80518210156126ea5760209160051b010190565b634e487b7160e01b5f52603260045260245ffd5b1561270557565b60405162461bcd60e51b815260206004820152600a60248201526915558e9a5b9d985b1a5960b21b6044820152606490fd5b9062278d008201809211611b6857565b5f198114611b685760010190565b60ff60019116019060ff8211611b6857565b1561276e57565b60405162461bcd60e51b815260206004820152600b60248201526a55563a696d6d617475726560a81b6044820152606490fd5b60ff1660ff8114611b685760010190565b6001600160401b03908116620151800191908211611b6857565b6001600160401b039182169082160191908211611b6857565b156127ec57565b60405162461bcd60e51b815260206004820152600b60248201526a2aab1d31b7b7b63237bbb760a91b6044820152606490fd5b3d15612858573d906001600160401b038211611a57576040519161284d601f8201601f19166020018461269c565b82523d5f602084013e565b606090565b6008548110156126ea5760085f5260205f2001905f90565b6001600160a01b03165f8181526006602052604090205460ff16156128d9575f908152601a60205260409020546001600160401b031680156128d35762093a80016001600160401b038111611b68576001600160401b031642101590565b50600190565b505f90565b156128e557565b60405162461bcd60e51b815260206004820152600c60248201526b15558e9d1a1c995cda1bdb1960a21b6044820152606490fd5b6001600160a01b038116908115611ba457600954600a5461294f916001600160401b0391611ca2919083169060a01c83166127cc565b61295883612de5565b612a615760098054600160a01b600160e01b0319164260a01b600160a01b600160e01b03161790556002546129979184916001600160a01b0316612d17565b7f1f4e9075aadab47c6d1822e19226819c4482f4326012945c69bb143c6861982a6020604051848152a26040516129cf60408261269c565b60088152673a3930b739b332b960c11b60208201526004546001600160a01b031690816129fb57505050565b813b15610cec575f91612a34918360206040519687958694630303c28760e61b865230600487015260806024870152608486019061264c565b9060448501528284820391600319830160648701525201925af1612a555750565b5f612a5f9161269c565b565b509060135490612a7082612747565b6013556040519060a08201906001600160401b03821183831017611a575760409182528483526020808401828152426001600160401b039081168587019081525f60608801818152608089018281528a83526012875291889020985189546001600160a01b0319166001600160a01b03919091161789559351600189015590516002979097018054935191516001600160501b03199094169790921696909617951515851b60ff60401b169590951790151560481b60ff60481b161790935590519081527f72c131e4f3fead122420dfa8d1a10e700e5e3badef6ea9b934ce82124515d1ce9190a3612a5f604051612b6960408261269c565b601481527318589b9bdc9b585b17dd1e17d9195d1958dd195960621b6020820152612c5b565b6005546001600160a01b03163303612ba357565b63c0b06f0b60e01b5f5260045ffd5b90816020910312610cec57518015158103610cec5790565b6003546001600160a01b03168015159081612bf6575b50612be757565b63105aa7fb60e31b5f5260045ffd5b604051631293efbb60e21b81523060048201529150602090829060249082905afa908115610f76575f91612c2c575b505f612be0565b612c4e915060203d602011612c54575b612c46818361269c565b810190612bb2565b5f612c25565b503d612c3c565b6004546001600160a01b031680612c70575050565b803b15610cec57604051633ddd61ab60e21b815230600482015260606024820152915f918391829084908290612caa90606483019061264c565b33604483015203925af1612a555750565b60ff600e5416612cc757565b6357fa752160e01b5f5260045ffd5b60015f5403612ce55760025f55565b60405162461bcd60e51b815260206004820152600a6024820152697265656e7472616e637960b01b6044820152606490fd5b5f929183809360405190602082019363a9059cbb60e01b855260018060a01b03166024830152604482015260448152612d5160648261269c565b51926001600160a01b03165af1612d6661281f565b81612db6575b5015612d7457565b60405162461bcd60e51b815260206004820152601a60248201527914d85999515490cc8c0e881d1c985b9cd9995c8819985a5b195960321b6044820152606490fd5b8051801592508215612dcb575b50505f612d6c565b612dde9250602080918301019101612bb2565b5f80612dc3565b600e5460081c60ff1615612ea05760105460ff8160101c165f14612e2d57601154905b8115612e265761ffff1680820291820403611b685761271090041090565b5050505f90565b6002546040516370a0823160e01b815230600482015290602090829060249082906001600160a01b03165afa908115610f76575f91612e6e575b5090612e08565b90506020813d602011612e98575b81612e896020938361269c565b81010312610cec57515f612e67565b3d9150612e7c565b600f54109056fe50146d0e3c60aa1d17a70635b05494f864e86144a2201275021014fbf08bafe293a8f3acc471767423e482b998d4f8d2dd61068cf066749b4d296f36bb64ad00c4459d655e1efe034a75446f1f4db087f75d23bdfabccffafa6384cdb23a1544a2646970667358221220e552a50c51a800447192b264f48c27c10142868d017aff2e9d10d2765b4dd53364736f6c634300081e0033a2646970667358221220a972c2bf9c29b3cfedada0b86d022487b99efb3b4e3d9c2bedf18205efb14e0c64736f6c634300081e0033","linkReferences":{}},"methodIdentifiers":{"RECOVERY_APPROVALS_REQUIRED()":"3297992e","RECOVERY_DELAY()":"47b45652","acceptOwnership()":"79ba5097","approveForceRecovery(address,address)":"1a656881","cancelOwnershipTransfer()":"23452b9c","checkVaultStatus(address)":"06d7d6cf","createVault()":"5d12928b","dao()":"4162169f","ensureVault(address)":"e01fd215","finalizeForceRecovery(address)":"c5c82203","getVault(address)":"0eb9af38","getVaultInfo(address)":"90229af7","initiateForceRecovery(address,address)":"6a240a9c","isRecoveryApprover(address)":"435c529b","isVault(address)":"652b9b41","ledger()":"56397c35","owner()":"8da5cb5b","ownerOfVault(address)":"2724fe09","pendingOwner()":"e30c3978","predictVault(address)":"27a4e1ab","predictVaultsBatch(address[])":"c93883a5","recoveryApprovalCount(address)":"419d7a83","recoveryApprovals(address,address,uint256)":"0d6c4df3","recoveryNonce(address)":"49bcad0a","recoveryProposedOwner(address)":"9f9a6508","recoveryUnlockTime(address)":"f20ca7ed","securityHub()":"b72d2943","setDAO(address)":"e73a914c","setModules(address,address,address,address)":"b079fbff","setRecoveryApprover(address,bool)":"360ca958","setVFIDE(address)":"17fd7bf6","totalVaults()":"8d654023","transferOwnership(address)":"f2fde38b","vaultCreatedAt(address)":"fa3fd3bc","vaultOf(address)":"0709df45","vfideToken()":"b8a71eec"},"id":40}