{"abi":[{"type":"function","name":"launch","inputs":[],"outputs":[],"stateMutability":"nonpayable"},{"type":"function","name":"launchNow","inputs":[],"outputs":[],"stateMutability":"nonpayable"},{"type":"function","name":"presaleStartTime","inputs":[],"outputs":[{"name":"","type":"uint256","internalType":"uint256"}],"stateMutability":"view"},{"type":"function","name":"setPresaleStartTime","inputs":[{"name":"_time","type":"uint256","internalType":"uint256"}],"outputs":[],"stateMutability":"nonpayable"}],"bytecode":{"object":"0x6080806040523460135760bf908160188239f35b5f80fdfe60808060405260043610156011575f80fd5b5f3560e01c806301339c21146076578063296cab55146060578063715492aa14605c5763a82524b2146041575f80fd5b346058575f3660031901126058576020905f548152f35b5f80fd5b6076565b3460585760203660031901126058576004355f55005b346058575f366003190112605857425f5500fea2646970667358221220f8cee9604508e2df0fe44c92d8026946cb3f6973ecea697a3a4eac303e8c005764736f6c634300081e0033","linkReferences":{}},"methodIdentifiers":{"launch()":"01339c21","launchNow()":"715492aa","presaleStartTime()":"a82524b2","setPresaleStartTime(uint256)":"296cab55"},"id":81}