{"abi":[{"type":"constructor","inputs":[{"name":"_dao","type":"address","internalType":"address"},{"name":"_seer","type":"address","internalType":"address"},{"name":"_ledger","type":"address","internalType":"address"}],"stateMutability":"nonpayable"},{"type":"function","name":"ADJUSTMENT_INTERVAL","inputs":[],"outputs":[{"name":"","type":"uint64","internalType":"uint64"}],"stateMutability":"view"},{"type":"function","name":"WINDOW_DURATION","inputs":[],"outputs":[{"name":"","type":"uint64","internalType":"uint64"}],"stateMutability":"view"},{"type":"function","name":"actionCountToday","inputs":[{"name":"","type":"address","internalType":"address"},{"name":"","type":"uint8","internalType":"enum SeerAutonomous.ActionType"}],"outputs":[{"name":"","type":"uint16","internalType":"uint16"}],"stateMutability":"view"},{"type":"function","name":"activityWindows","inputs":[{"name":"","type":"address","internalType":"address"}],"outputs":[{"name":"windowStart","type":"uint64","internalType":"uint64"},{"name":"transferCount","type":"uint16","internalType":"uint16"},{"name":"voteCount","type":"uint16","internalType":"uint16"},{"name":"endorseCount","type":"uint16","internalType":"uint16"},{"name":"transferVolume","type":"uint256","internalType":"uint256"}],"stateMutability":"view"},{"type":"function","name":"autoLiftThreshold","inputs":[],"outputs":[{"name":"","type":"uint16","internalType":"uint16"}],"stateMutability":"view"},{"type":"function","name":"autoRestrictThreshold","inputs":[],"outputs":[{"name":"","type":"uint16","internalType":"uint16"}],"stateMutability":"view"},{"type":"function","name":"beforeAction","inputs":[{"name":"subject","type":"address","internalType":"address"},{"name":"action","type":"uint8","internalType":"enum SeerAutonomous.ActionType"},{"name":"amount","type":"uint256","internalType":"uint256"},{"name":"counterparty","type":"address","internalType":"address"}],"outputs":[{"name":"result","type":"uint8","internalType":"enum SeerAutonomous.EnforcementResult"}],"stateMutability":"nonpayable"},{"type":"function","name":"canPerformAction","inputs":[{"name":"subject","type":"address","internalType":"address"},{"name":"action","type":"uint8","internalType":"enum SeerAutonomous.ActionType"}],"outputs":[{"name":"allowed","type":"bool","internalType":"bool"},{"name":"reason","type":"string","internalType":"string"}],"stateMutability":"view"},{"type":"function","name":"dailyResetTime","inputs":[{"name":"","type":"address","internalType":"address"}],"outputs":[{"name":"","type":"uint64","internalType":"uint64"}],"stateMutability":"view"},{"type":"function","name":"dao","inputs":[],"outputs":[{"name":"","type":"address","internalType":"address"}],"stateMutability":"view"},{"type":"function","name":"daoOverridden","inputs":[{"name":"","type":"address","internalType":"address"}],"outputs":[{"name":"","type":"bool","internalType":"bool"}],"stateMutability":"view"},{"type":"function","name":"daoOverride","inputs":[{"name":"subject","type":"address","internalType":"address"},{"name":"reason","type":"string","internalType":"string"}],"outputs":[],"stateMutability":"nonpayable"},{"type":"function","name":"daoRemoveOverride","inputs":[{"name":"subject","type":"address","internalType":"address"}],"outputs":[],"stateMutability":"nonpayable"},{"type":"function","name":"daoSetRateLimit","inputs":[{"name":"level","type":"uint8","internalType":"enum SeerAutonomous.RestrictionLevel"},{"name":"action","type":"uint8","internalType":"enum SeerAutonomous.ActionType"},{"name":"limit","type":"uint16","internalType":"uint16"}],"outputs":[],"stateMutability":"nonpayable"},{"type":"function","name":"daoSetThresholds","inputs":[{"name":"_autoRestrict","type":"uint16","internalType":"uint16"},{"name":"_autoLift","type":"uint16","internalType":"uint16"},{"name":"_rateLimit","type":"uint16","internalType":"uint16"},{"name":"_sensitivity","type":"uint16","internalType":"uint16"}],"outputs":[],"stateMutability":"nonpayable"},{"type":"function","name":"getActivitySummary","inputs":[{"name":"subject","type":"address","internalType":"address"}],"outputs":[{"name":"transferCount","type":"uint16","internalType":"uint16"},{"name":"voteCount","type":"uint16","internalType":"uint16"},{"name":"endorseCount","type":"uint16","internalType":"uint16"},{"name":"transferVolume","type":"uint256","internalType":"uint256"},{"name":"windowStart","type":"uint64","internalType":"uint64"}],"stateMutability":"view"},{"type":"function","name":"getNetworkHealth","inputs":[],"outputs":[{"name":"totalActions","type":"uint256","internalType":"uint256"},{"name":"totalViolations","type":"uint256","internalType":"uint256"},{"name":"violationRate","type":"uint256","internalType":"uint256"},{"name":"currentSensitivity","type":"uint16","internalType":"uint16"}],"stateMutability":"view"},{"type":"function","name":"getRestrictionInfo","inputs":[{"name":"subject","type":"address","internalType":"address"}],"outputs":[{"name":"level","type":"uint8","internalType":"enum SeerAutonomous.RestrictionLevel"},{"name":"expiry","type":"uint64","internalType":"uint64"},{"name":"overridden","type":"bool","internalType":"bool"},{"name":"reason","type":"string","internalType":"string"},{"name":"violationScore","type":"uint16","internalType":"uint16"}],"stateMutability":"view"},{"type":"function","name":"lastActionTime","inputs":[{"name":"","type":"address","internalType":"address"},{"name":"","type":"uint8","internalType":"enum SeerAutonomous.ActionType"}],"outputs":[{"name":"","type":"uint64","internalType":"uint64"}],"stateMutability":"view"},{"type":"function","name":"lastThresholdAdjustment","inputs":[],"outputs":[{"name":"","type":"uint64","internalType":"uint64"}],"stateMutability":"view"},{"type":"function","name":"lastViolationTime","inputs":[{"name":"","type":"address","internalType":"address"}],"outputs":[{"name":"","type":"uint64","internalType":"uint64"}],"stateMutability":"view"},{"type":"function","name":"ledger","inputs":[],"outputs":[{"name":"","type":"address","internalType":"contract IProofLedger_Auto"}],"stateMutability":"view"},{"type":"function","name":"networkActionCount","inputs":[],"outputs":[{"name":"","type":"uint256","internalType":"uint256"}],"stateMutability":"view"},{"type":"function","name":"networkViolationCount","inputs":[],"outputs":[{"name":"","type":"uint256","internalType":"uint256"}],"stateMutability":"view"},{"type":"function","name":"onScoreChange","inputs":[{"name":"subject","type":"address","internalType":"address"},{"name":"oldScore","type":"uint16","internalType":"uint16"},{"name":"newScore","type":"uint16","internalType":"uint16"}],"outputs":[],"stateMutability":"nonpayable"},{"type":"function","name":"operators","inputs":[{"name":"","type":"address","internalType":"address"}],"outputs":[{"name":"","type":"bool","internalType":"bool"}],"stateMutability":"view"},{"type":"function","name":"patternSensitivity","inputs":[],"outputs":[{"name":"","type":"uint16","internalType":"uint16"}],"stateMutability":"view"},{"type":"function","name":"patternViolations","inputs":[{"name":"","type":"address","internalType":"address"},{"name":"","type":"uint8","internalType":"enum SeerAutonomous.PatternType"}],"outputs":[{"name":"","type":"uint8","internalType":"uint8"}],"stateMutability":"view"},{"type":"function","name":"rateLimitThreshold","inputs":[],"outputs":[{"name":"","type":"uint16","internalType":"uint16"}],"stateMutability":"view"},{"type":"function","name":"rateLimits","inputs":[{"name":"","type":"uint8","internalType":"enum SeerAutonomous.RestrictionLevel"},{"name":"","type":"uint8","internalType":"enum SeerAutonomous.ActionType"}],"outputs":[{"name":"","type":"uint16","internalType":"uint16"}],"stateMutability":"view"},{"type":"function","name":"restrictionExpiry","inputs":[{"name":"","type":"address","internalType":"address"}],"outputs":[{"name":"","type":"uint64","internalType":"uint64"}],"stateMutability":"view"},{"type":"function","name":"restrictionLevel","inputs":[{"name":"","type":"address","internalType":"address"}],"outputs":[{"name":"","type":"uint8","internalType":"enum SeerAutonomous.RestrictionLevel"}],"stateMutability":"view"},{"type":"function","name":"restrictionReason","inputs":[{"name":"","type":"address","internalType":"address"}],"outputs":[{"name":"","type":"string","internalType":"string"}],"stateMutability":"view"},{"type":"function","name":"seer","inputs":[],"outputs":[{"name":"","type":"address","internalType":"contract ISeer_Auto"}],"stateMutability":"view"},{"type":"function","name":"setDAO","inputs":[{"name":"_newDAO","type":"address","internalType":"address"}],"outputs":[],"stateMutability":"nonpayable"},{"type":"function","name":"setModules","inputs":[{"name":"_seer","type":"address","internalType":"address"},{"name":"_ledger","type":"address","internalType":"address"}],"outputs":[],"stateMutability":"nonpayable"},{"type":"function","name":"setOperator","inputs":[{"name":"operator","type":"address","internalType":"address"},{"name":"authorized","type":"bool","internalType":"bool"}],"outputs":[],"stateMutability":"nonpayable"},{"type":"function","name":"totalViolationScore","inputs":[{"name":"","type":"address","internalType":"address"}],"outputs":[{"name":"","type":"uint16","internalType":"uint16"}],"stateMutability":"view"},{"type":"event","name":"AutoEnforced","inputs":[{"name":"subject","type":"address","indexed":true,"internalType":"address"},{"name":"action","type":"uint8","indexed":false,"internalType":"enum SeerAutonomous.ActionType"},{"name":"result","type":"uint8","indexed":false,"internalType":"enum SeerAutonomous.EnforcementResult"}],"anonymous":false},{"type":"event","name":"DAOOverride","inputs":[{"name":"subject","type":"address","indexed":true,"internalType":"address"},{"name":"reason","type":"string","indexed":false,"internalType":"string"}],"anonymous":false},{"type":"event","name":"DAOSet","inputs":[{"name":"oldDAO","type":"address","indexed":true,"internalType":"address"},{"name":"newDAO","type":"address","indexed":true,"internalType":"address"}],"anonymous":false},{"type":"event","name":"DynamicThresholdAdjusted","inputs":[{"name":"ttype","type":"uint8","indexed":false,"internalType":"enum SeerAutonomous.ThresholdType"},{"name":"oldValue","type":"uint16","indexed":false,"internalType":"uint16"},{"name":"newValue","type":"uint16","indexed":false,"internalType":"uint16"}],"anonymous":false},{"type":"event","name":"ModulesSet","inputs":[{"name":"seer","type":"address","indexed":false,"internalType":"address"},{"name":"dao","type":"address","indexed":false,"internalType":"address"},{"name":"ledger","type":"address","indexed":false,"internalType":"address"}],"anonymous":false},{"type":"event","name":"OperatorSet","inputs":[{"name":"operator","type":"address","indexed":true,"internalType":"address"},{"name":"authorized","type":"bool","indexed":false,"internalType":"bool"}],"anonymous":false},{"type":"event","name":"PatternDetected","inputs":[{"name":"subject","type":"address","indexed":true,"internalType":"address"},{"name":"pattern","type":"uint8","indexed":false,"internalType":"enum SeerAutonomous.PatternType"},{"name":"severity","type":"uint8","indexed":false,"internalType":"uint8"}],"anonymous":false},{"type":"event","name":"ReputationCascade","inputs":[{"name":"subject","type":"address","indexed":true,"internalType":"address"},{"name":"change","type":"int16","indexed":false,"internalType":"int16"},{"name":"source","type":"string","indexed":false,"internalType":"string"}],"anonymous":false},{"type":"event","name":"RestrictionApplied","inputs":[{"name":"subject","type":"address","indexed":true,"internalType":"address"},{"name":"level","type":"uint8","indexed":false,"internalType":"enum SeerAutonomous.RestrictionLevel"},{"name":"duration","type":"uint64","indexed":false,"internalType":"uint64"},{"name":"reason","type":"string","indexed":false,"internalType":"string"}],"anonymous":false},{"type":"event","name":"RestrictionLifted","inputs":[{"name":"subject","type":"address","indexed":true,"internalType":"address"},{"name":"oldLevel","type":"uint8","indexed":false,"internalType":"enum SeerAutonomous.RestrictionLevel"}],"anonymous":false},{"type":"error","name":"SA_NotAuthorized","inputs":[]},{"type":"error","name":"SA_Zero","inputs":[]}],"bytecode":{"object":"0x60803461036757601f61362838819003918201601f19168301916001600160401b0383118484101761036b57808492606094604052833981010312610367576100478161037f565b9061006060406100596020840161037f565b920161037f565b600c80546001600160401b03191666320fa013880bb81790556001600160a01b03929092169182158015610356575b610347575f80546001600160a01b03199081168517909155600180546001600160a01b039485169216821790557f4ae14344aaed3962a7f6c6977dc689bd5108ebb211a205507f01ae2a95148ce99360609391929091169081610330575b7ff39caac663176ac4a8c6acc9aa4b961e95c93b69efe0e12e1b86ce4719b6f33c805461ffff199081166103e8179091557f404985aad780c7bb5372a8e8730d3915010e06ec0db57af2b041672f9b96fbff8054821660649081179091557f805a8d824d7d67070dc44330e8dd4fe0f468cc224d9f253825e75aadd1630fe98054831690911790557feb56de841757c988263e7dd6958d6ffc642e18b1778eaf462289ba9005880a0b8054821660321790557f9a32fc75832ec7f2bbd8409e7433d9bbe21b2a514a30d0d8b78c2261f8b096bd8054821660141790557fd6590b9554b4aad29e742c3c04af9ad890c8582f38f16529475cfd948c3c4f0a80548216600a1790557fae7306cf338bc0d25f4f67eb6795682990387846c0c5ffba4571c2d5a99b4db58054821660051790557f72024cdb945285d701318f9f97b52fe71b273198cae097653f8fb21c0bb914658054821690557fbefe1e0b8f7ca39ffce15a2236f7700de9091672cdacb1fdc77f8cd891d326288054821660011790557f5006b4066bd5506d4ecde408cd1956ba1af5e1cfa248a5f8e28577cb4b3999188054821690557f243fac484c54a96c57f87fa88a4fa518947e8cd497bae6b53105d4212fed7c6880548216905560035f527ff4b2859895858d6aa26d656e4999d552f6a869b74c43bba7d2a941c4d22c355960209081527f1b966fd34b0146579fd6e0ac71b5780e0f9264c860b8749a6d5dca0258f1ed9680549092169091556040805194855290840191909152820152a160405161329490816103948239f35b600280546001600160a01b031916831790556100ed565b6318ed93d960e01b5f5260045ffd5b506001600160a01b0382161561008f565b5f80fd5b634e487b7160e01b5f52604160045260245ffd5b51906001600160a01b03821682036103675756fe60806040526004361015610011575f80fd5b5f3560e01c8063095071711461100857806309c94cee14610fa357806313e7c9d814610f66578063170b3b4614610f4257806319e9cbb714610da15780631b9cb05214610d805780632d55ea3914610d5857806330e7668414610d185780633711f69b14610cd857806339e32d3114610ca25780634162169f14610c7b578063456d105014610bf757806351818aa614610bba578063539f437414610b4c578063558a729714610ac657806356397c3514610a9e5780635f6fc37814610a81578063653eed1214610a5d57806367cc71ea14610a1d5780638ad469f414610a005780638b2f832e146109e357806394d51a0a1461081457806397ea0706146107a15780639871d38f14610724578063a0052b8e14610701578063a589bbac14610649578063ac92540814610526578063bb08e400146104ed578063c55fdd1f146104d1578063cfd0db631461047d578063d69698131461043d578063d74a5d0014610384578063d757af2214610342578063e73a914c146102af578063e956062414610273578063e9a3b6ce14610237578063f20938b3146101e75763faf3107b146101bb575f80fd5b346101e3575f3660031901126101e357600f546040516001600160401b039091168152602090f35b5f80fd5b346101e35760203660031901126101e3576001600160a01b0361020861104d565b165f52600760205261023361021f60405f206111b8565b6040519182916020835260208301906110de565b0390f35b346101e357602061ffff61026961024d366110af565b6001600160a01b039091165f908152601185526040902061111c565b5416604051908152f35b346101e35760203660031901126101e3576001600160a01b0361029461104d565b165f52600b602052602061ffff60405f205416604051908152f35b346101e35760203660031901126101e3576102c861104d565b5f54906001600160a01b0382169033829003610333576001600160a01b0316918215610324576001600160a01b03191682175f9081557f43cefe694890edd168d1075c3464baea1d7edcf0bc1a1648423ea65b5a2ac0919080a3005b6318ed93d960e01b5f5260045ffd5b634f2141fd60e11b5f5260045ffd5b346101e35760203660031901126101e3576001600160a01b0361036361104d565b165f526004602052602060ff60405f205416610382604051809261110f565bf35b346101e35760403660031901126101e35761039d61104d565b6024356001600160a01b03811691908290036101e3575f546001600160a01b03169033829003610333576001600160a01b0316801561032457600180546001600160a01b031916821790557f4ae14344aaed3962a7f6c6977dc689bd5108ebb211a205507f01ae2a95148ce99260609281610426575b60405192835260208301526040820152a1005b600280546001600160a01b03191683179055610413565b346101e35760403660031901126101e35760043560068110156101e35760243560088110156101e35761026961ffff91610478602094611132565b61111c565b346101e35760203660031901126101e35761049661104d565b5f546001600160a01b03163303610333576001600160a01b0381165f908152600660205260409020805460ff191690556104cf9061188d565b005b346101e3575f3660031901126101e3576020604051610e108152f35b346101e35760206104fd366110af565b6001600160a01b039091165f90815260108352604090206001600160401b03916102699161111c565b346101e35760803660031901126101e35760043561ffff81168091036101e35761054e61109e565b61055661108d565b9060643561ffff81168082036101e3575f546001600160a01b031633036103335761ffff831685101561060b576064106105ce5763ffff000090600c549061ffff60301b9060301b169461ffff60301b199165ffffffffffff191617169160101b16179061ffff60201b9060201b161717600c555f80f35b60405162461bcd60e51b8152602060048201526015602482015274053413a2073656e736974697669747920302d31303605c1b6044820152606490fd5b60405162461bcd60e51b815260206004820152601660248201527553413a20696e76616c6964207468726573686f6c647360501b6044820152606490fd5b346101e35760203660031901126101e3576106da6001600160a01b0361066d61104d565b16805f52600460205260ff60405f20541690805f5260056020526106f760018060401b0360405f205416825f52600660205260ff60405f205416835f52600760205260405f20935f52600b6020526106cd61ffff60405f205416946111b8565b916040519687809761110f565b60208601521515604085015260a0606085015260a08401906110de565b9060808301520390f35b346101e3575f3660031901126101e357602061ffff600c54821c16604051908152f35b346101e3575f3660031901126101e357600e54600d54908015610798576127108202918083046127101481151715610784576107628260809461186f565b61ffff600c5460301c1691604051938452602084015260408301526060820152f35b634e487b7160e01b5f52601160045260245ffd5b6080915f610762565b346101e35760203660031901126101e3576001600160a01b036107c261104d565b165f52600860205260a060405f2060018154910154906040519161ffff8260401c16835261ffff8260501c16602084015261ffff8260601c166040840152606083015260018060401b03166080820152f35b346101e35760403660031901126101e35761082d61104d565b6024356001600160401b0381116101e357366023820112156101e3576004810135906001600160401b0382116101e35736602483830101116101e3575f546001600160a01b031633036103335760406024917f49b3c5fd27fa1ef818446f0957143caf1cab2ca270d27454338780299e9b203b936108c960018060a01b03871696875f526006602052845f20600160ff198254161790556124ca565b855f526009602052825f2060015f52602052825f2060ff198154169055855f526009602052825f2060025f52602052825f2060ff198154169055855f526009602052825f2060035f52602052825f2060ff198154169055855f526009602052825f2060045f52602052825f2060ff198154169055855f526009602052825f2060055f52602052825f2060ff198154169055855f526009602052825f2060065f52602052825f2060ff198154169055855f52600b602052825f2061ffff1981541690558083519485936020855282602086015201848401375f828201840152601f01601f19168101030190a26104cf6040516109c5604082611181565b600c81526b64616f5f6f7665727269646560a01b6020820152612590565b346101e3575f3660031901126101e3576020600d54604051908152f35b346101e3575f3660031901126101e3576020604051620151808152f35b346101e35760203660031901126101e3576001600160a01b03610a3e61104d565b165f526005602052602060018060401b0360405f205416604051908152f35b346101e3575f3660031901126101e357602061ffff600c5460301c16604051908152f35b346101e3575f3660031901126101e3576020600e54604051908152f35b346101e3575f3660031901126101e3576002546040516001600160a01b039091168152602090f35b346101e35760403660031901126101e357610adf61104d565b602435908115158092036101e3575f546001600160a01b031633036103335760207f1a594081ae893ab78e67d9b9e843547318164322d32c65369d78a96172d9dc8f9160018060a01b031692835f526003825260405f2060ff1981541660ff8316179055604051908152a2005b346101e35760203660031901126101e3576001600160a01b03610b6d61104d565b165f52600860205260a060405f206001815491015461ffff6040519260018060401b0381168452818160401c166020850152818160501c16604085015260601c1660608301526080820152f35b346101e35760203660031901126101e3576001600160a01b03610bdb61104d565b165f526006602052602060ff60405f2054166040519015158152f35b346101e35760803660031901126101e357610c1061104d565b60243560088110156101e3576064356001600160a01b03811681036101e3575f546001600160a01b031633141580610c64575b61033357602092610c579260443591611448565b6103826040518092611102565b50335f52600360205260ff60405f20541615610c43565b346101e3575f3660031901126101e3575f546040516001600160a01b039091168152602090f35b346101e357610cb9610cb3366110af565b9061126e565b90610233604051928392151583526040602084015260408301906110de565b346101e35760203660031901126101e3576001600160a01b03610cf961104d565b165f52600a602052602060018060401b0360405f205416604051908152f35b346101e35760203660031901126101e3576001600160a01b03610d3961104d565b165f526012602052602060018060401b0360405f205416604051908152f35b346101e3575f3660031901126101e3576001546040516001600160a01b039091168152602090f35b346101e3575f3660031901126101e357602061ffff600c5416604051908152f35b346101e35760603660031901126101e357610dba61104d565b610dc261109e565b610dca61108d565b5f546001600160a01b031633141580610f2b575b61033357610deb8361188d565b61ffff811661ffff83168060010b8260010b03617fff8113617fff19821217610784577f1135108551e5f8cd2e06903633534ce7f0ef8c554b2d348264fddd048798995d60809660018060a01b03169687926040519060010b815260406020820152600c60408201526b73636f72655f6368616e676560a01b6060820152a2119182610f10575b5050610e7a57005b60405190610e89604083611181565b601082526f072617069645f73636f72655f64726f760841b6020808401919091525f918252600a8152604080832080546001600160401b031916426001600160401b0316179055600b9091529020805461ffff90811660140192919083116107845761ffff6104cf931661ffff19825416179055610f08600d5461143a565b600d55612590565b6101f4925061ffff91610f2291611258565b16118280610e72565b50335f52600360205260ff60405f20541615610dde565b346101e3575f3660031901126101e357602061ffff600c5460101c16604051908152f35b346101e35760203660031901126101e3576001600160a01b03610f8761104d565b165f526003602052602060ff60405f2054166040519015158152f35b346101e35760603660031901126101e35760043560068110156101e35760243560088110156101e357610fd461108d565b5f549092906001600160a01b031633036103335761ffff91610478610ff892611132565b805461ffff191691909216179055005b346101e35760403660031901126101e35761102161104d565b60243560078110156101e35761026960ff9160209360018060a01b03165f526009845260405f20611063565b600435906001600160a01b03821682036101e357565b906007811015611079575f5260205260405f2090565b634e487b7160e01b5f52602160045260245ffd5b6044359061ffff821682036101e357565b6024359061ffff821682036101e357565b60409060031901126101e3576004356001600160a01b03811681036101e3579060243560088110156101e35790565b805180835260209291819084018484015e5f828201840152601f01601f1916010190565b9060058210156110795752565b9060068210156110795752565b906008811015611079575f5260205260405f2090565b6006811015611079575f52601360205260405f2090565b90600182811c92168015611177575b602083101461116357565b634e487b7160e01b5f52602260045260245ffd5b91607f1691611158565b601f909101601f19168101906001600160401b038211908210176111a457604052565b634e487b7160e01b5f52604160045260245ffd5b9060405191825f8254926111cb84611149565b808452936001811690811561123657506001146111f2575b506111f092500383611181565b565b90505f9291925260205f20905f915b81831061121a5750509060206111f0928201015f6111e3565b6020919350806001915483858901015201910190918492611201565b9050602092506111f094915060ff191682840152151560051b8201015f6111e3565b9061ffff8091169116039061ffff821161078457565b6001600160a01b03165f8181526006602052604090205490919060ff166113eb57815f52600460205260ff60405f20541691600683101561107957821515806113cb575b6113c3575b6006831015611079576005831461139a5761ffff6112d88361047886611132565b5416928315908161138e575b5061135d5761ffff91611301915f52601160205260405f2061111c565b541610156113315760019060405161131a604082611181565b6007815266185b1b1bddd95960ca1b602082015290565b5f90604051611341604082611181565b600c81526b1c985d1957db1a5b5a5d195960a21b602082015290565b5050505f90604051611370604082611181565b600e81526d1858dd1a5bdb97d89b1bd8dad95960921b602082015290565b6003915010155f6112e4565b5050505f906040516113ad604082611181565b6006815265333937bd32b760d11b602082015290565b5f92506112b7565b505f818152600560205260409020546001600160401b03164210156112b2565b50506001906040516113fe604082611181565b600c81526b64616f5f6f7665727269646560a01b602082015290565b909291604082019360088110156110795782526111f09160200190611102565b5f1981146107845760010190565b6001600160a01b0381165f8181526006602052604090205490939060ff16611866576114748383611b4c565b94600586101561107957856003811461184457505f85815260086020526040902080549092906001600160401b03908116610e1001908111610784576001600160401b03164210156117f2575b60088510156110795784611781576114e061ffff845460401c16611c7e565b835461ffff60401b191660409190911b61ffff60401b1617835560018301805491820191821061078457555b6001600160a01b0381169182151580611773575b611729575b5061153291508383611cba565b600781101561107957806116b3575b505f51602061321f5f395f51905f529161155b859261188d565b5f848152601260205260409020546001600160401b039061157d908216611c35565b1642101561160e575b835f52601160205261159b8160405f2061111c565b61ffff6115aa81835416611c7e565b1661ffff19825416179055835f5260106020526115ca8160405f2061111c565b80546001600160401b031916426001600160401b03161790556115eb6121d8565b6115f6600e5461143a565b600e556116086040519283928361141a565b0390a290565b5f84815260126020908152604080832080546001600160401b031916426001600160401b031617905560118252808320838052909152808220805461ffff1990811690915560018352818320805482169055600283528183208054821690556003835281832080548216905560048352818320805482169055600583528183208054821690556006835281832080548216905560078352912080549091169055611586565b909193506116c18183611e34565b93835f52600460205260ff60405f205416916006831015611079575f51602061321f5f395f51905f5293857fd2e33092e965b98e12fbe5c5c0aa2b7ced756e773932a5ab0c49671b08396069604061155b948a9782519182526020820152a292505091611541565b60020180549290600160401b8410156111a4578361174f91600161153296018155611c91565b81546001600160a01b0360039290921b91821b191692901b9190911790555f611525565b506014600282015410611520565b50600384036117ba5761179b61ffff835460501c16611c7e565b825461ffff60501b191660509190911b61ffff60501b1617825561150c565b6005840361150c576117d361ffff835460601c16611c7e565b825461ffff60601b191660609190911b61ffff60601b1617825561150c565b82546001600160701b031916426001600160401b03161783555f60018401819055600284018054918155908061182a575b50506114c1565b61183d915f5260205f2090810190611c68565b5f80611823565b925050505f51602061321f5f395f51905f52916116086040519283928361141a565b50505050505f90565b8115611879570490565b634e487b7160e01b5f52601260045260245ffd5b6001600160a01b0381165f8181526006602052604090205460ff16611b3257600154604051630d47875d60e41b81526004810183905290602090829060249082906001600160a01b03165afa908115611b27575f91611aea575b50815f52600460205260ff60405f205416916006831015611079578215159081611ac9575b50611ab7575b61ffff166103e8811080611aa4575b1561195b5750506111f0906040519061193b604083611181565b600e82526d637269746963616c5f73636f726560901b6020830152612a69565b6107d0811080611a91575b156119a05750506111f09060405190611980604083611181565b600e82526d766572795f6c6f775f73636f726560901b60208301526128f4565b600c5461ffff8116821080611a7e575b156119e6575050506111f090604051906119cb604083611181565b60098252686c6f775f73636f726560b81b6020830152612773565b61ffff8160201c16821080611a6b575b15611a37575050506111f09060405190611a11604083611181565b601482527318995b1bddd7dc985d1957dd1a1c995cda1bdb1960621b60208301526125fa565b60101c61ffff1611159081611a58575b50611a4f5750565b6111f0906124ca565b905060068110156110795715155f611a47565b50600683101561107957600283106119f6565b50600683101561107957600383106119b0565b5060068210156110795760048210611966565b5060068210156110795760058210611921565b9050611ac2826124ca565b5f90611912565b5f908152600560205260408120546001600160401b0316421015915061190c565b90506020813d602011611b1f575b81611b0560209383611181565b810103126101e3575161ffff811681036101e3575f6118e7565b3d9150611af8565b6040513d5f823e3d90fd5b5050565b9061ffff8091169116019061ffff821161078457565b6001600160a01b03165f8181526004602052604090205460ff16919060068310156110795782151580611c15575b611c0d575b600683101591826110795760058414611c045761ffff611ba28261047887611132565b541691821580611bf6575b611bec5761ffff91611bc9915f52601160205260405f2061111c565b54161015611be55761107957600414611be0575f90565b600190565b5050600390565b5050505050600390565b505f93506003851015611bad565b50505050600390565b5f9250611b7f565b505f818152600560205260409020546001600160401b0316421015611b7a565b6001600160401b0390811662015180019190821161078457565b6001600160401b03918216908216019190821161078457565b818110611c73575050565b5f8155600101611c68565b61ffff1661ffff81146107845760010190565b8054821015611ca6575f5260205f2001905f90565b634e487b7160e01b5f52603260045260245ffd5b91909160018060a01b03165f52600860205260405f2091600c5461ffff8160301c16926008831015611079578215611df4575b6001600160a01b031680611d9d575b5060058214611d56575b50600314611d15575b50505f90565b600a0261ffff811690810361078457606461ffff910416600f039061ffff82116107845761ffff80915460501c16911610611d51575f80611d0f565b600490565b602d1c61fff88116906207fff816810361078457606461ffff910416600a0361ffff81116107845761ffff80855460601c16911610611d95575f611d06565b505050600390565b5f90600286018054925b838110611db657505050611cfc565b82611dc18284611c91565b905460039190911b1c6001600160a01b031614611de1575b600101611da7565b8015611dd9575050505050505050600290565b600f840261ffff811690810361078457606461ffff91041660140361ffff81116107845761ffff80875460401c1691161015611ced575050505050600190565b905f9160018060a01b03811691825f526009602052611e568160405f20611063565b60ff81541660ff811461078457600160ff91011660ff19825416179055825f52600960205260ff611e8a8260405f20611063565b545f858152600a6020526040902080546001600160401b031916426001600160401b0316179055600d5491169190611ec19061143a565b600d555f9060078110156110795760018103612184575050600a5b835f52600b60205261ffff611ef860405f209282845416611b36565b825461ffff1916911617905560058110611ff95750611f4c9060405190611f20604083611181565b601a8252793932b832b0ba32b22fb830ba3a32b9372fbb34b7b630ba34b7b760311b602083015261302b565b60405190611f5b604083611181565b601a8252793932b832b0ba32b22fb830ba3a32b9372fbb34b7b630ba34b7b760311b60208301526001546001600160a01b031690813b15611ff557918391611fce938360405180968195829463031879a760e21b8452600484015260c860248401526060604484015260648301906110de565b03925af1611fdd575050600390565b611fe8828092611181565b611ff25780611be5565b80fd5b8380fd5b91925090600381106120d3575061203c9060405190612019604083611181565b60118252703830ba3a32b9372fbb34b7b630ba34b7b760791b6020830152612eb7565b6040519061204b604083611181565b60118252703830ba3a32b9372fbb34b7b630ba34b7b760791b60208301526001546001600160a01b031691823b156101e3576120b4925f928360405180968195829463031879a760e21b84526004840152606460248401526060604484015260648301906110de565b03925af16120c3575b50600390565b5f6120cd91611181565b5f6120bd565b90915060021161214f5761214a906121176040516120f2604082611181565b601281527139bab9b834b1b4b7bab9afb830ba3a32b93760711b602082015282612d49565b60405190612126604083611181565b601282527139bab9b834b1b4b7bab9afb830ba3a32b93760711b60208301526131a0565b600290565b611be09060405190612162604083611181565b601082526f1c185d1d195c9b97d9195d1958dd195960821b6020830152612bdd565b60028103612196575050601e5b611edc565b600381036121a75750506032611edc565b600481036121b85750506046611edc565b600581036121c95750506050611edc565b60060361219157506064611edc565b600f545f906001600160401b036121f0818316611c35565b164210611b32576001600160401b031916426001600160401b031617600f55600e548015611b3257600d549061271082029180830461271014901517156107845761223a9161186f565b6101f481111561236f575080600c5461ffff811661138861ffff61225f60c884611b36565b16111561235c5761ffff6113885b16809261ffff191617600c5581810361232c575b50505080600c5461ffff808260301c16916064826122a0600a86611b36565b16111561231b576064905b8260301b8260301b16908360301b191617600c5516908181036122d6575b5050505b80600d55600e55565b604051926123075760038352602083015260408201525f51602061323f5f395f51905f5290606090a1805f806122c9565b634e487b7160e01b84526021600452602484fd5b612326600a84611b36565b906122ab565b60405192612307575f8352602083015260408201525f51602061323f5f395f51905f5290606090a1805f80612281565b61ffff61236a60c883611b36565b61226d565b606411156122cd5750600c545f9061ffff81169061044c82101561245c5761ffff6103e85b16809161ffff191617600c5580820361242d575b505080600c5461ffff808260301c1691600583105f1461241c5783905b8260301b8260301b16908360301b191617600c5516908181036123eb575b5050506122cd565b604051926123075760038352602083015260408201525f51602061323f5f395f51905f5290606090a1805f806123e3565b612427600584611258565b906123c5565b5f51602061323f5f395f51905f52919250606090604051905f945f835260208301526040820152a15f806123a8565b61ffff61246a606484611258565b612394565b9060068110156110795760ff80198354169116179055565b9190601f811161249657505050565b6111f0925f5260205f20906020601f840160051c830193106124c0575b601f0160051c0190611c68565b90915081906124b3565b6001600160a01b03165f8181526004602052604090205460ff166006811015611079578015611b32575f828152600460209081526040808320805460ff191690556005825280832080546001600160401b031916905560078252822080547f7b23ba6eeabed8bd1b0067057409c959bff86ddfa5915ccc8db770d2353ca1ed949293919061255790611149565b601f8111612572575b505561256f604051809261110f565ba2565b81835284832061258a91601f0160051c810190611c68565b5f612560565b6002546001600160a01b0316806125a5575050565b803b156101e357604051633ddd61ab60e21b815230600482015260606024820152915f9183918290849082906125df9060648301906110de565b33604483015203925af16125f05750565b5f6111f091611181565b6001600160a01b03165f8181526004602052604090205490919060ff1660068110156110795760021115611b32575f8281526004602052604090206126419060029061246f565b6126576203f480426001600160401b0316611c4f565b5f83815260056020908152604080832080546001600160401b0319166001600160401b03958616179055600790915290208251909181116111a4576126a6816126a08454611149565b84612487565b806020601f8211600114612712575f91612707575b508160011b915f199060031b1c19161790555b604051806127025f5160206131ff5f395f51905f5293600283526203f48060208401526060604084015260608301906110de565b0390a2565b90508301515f6126bb565b5f8481528181209250601f198416905b81811061275b57509083600194939210612743575b5050811b0190556126ce565b8501515f1960f88460031b161c191690555f80612737565b9192602060018192868a015181550194019201612722565b6001600160a01b0381165f818152600460205260409020549092919060ff16600681101561107957600311156128ef575f8381526004602052604090206127bc9060039061246f565b6127d262093a80426001600160401b0316611c4f565b5f84815260056020908152604080832080546001600160401b0319166001600160401b03958616179055600790915290208351909181116111a45761281b816126a08454611149565b806020601f821160011461288e575f91612883575b508160011b915f199060031b1c19161790555b604051925f5160206131ff5f395f51905f528460036111f0965262093a806020820152606060408201528061287b60608201876110de565b0390a26131a0565b90508401515f612830565b5f8481528181209250601f198416905b8181106128d7575090836001949392106128bf575b5050811b019055612843565b8601515f1960f88460031b161c191690555f806128b3565b9192602060018192868b01518155019401920161289e565b505050565b6001600160a01b0381165f818152600460205260409020549092919060ff16600681101561107957600411156128ef575f83815260046020819052604090912061293e919061246f565b61295462127500426001600160401b0316611c4f565b5f84815260056020908152604080832080546001600160401b0319166001600160401b03958616179055600790915290208351909181116111a45761299d816126a08454611149565b806020601f8211600114612a08575f916129fd575b508160011b915f199060031b1c19161790555b604051925f5160206131ff5f395f51905f528460046111f09652621275006020820152606060408201528061287b60608201876110de565b90508401515f6129b2565b5f8481528181209250601f198416905b818110612a5157509083600194939210612a39575b5050811b0190556129c5565b8601515f1960f88460031b161c191690555f80612a2d565b9192602060018192868b015181550194019201612a18565b6001600160a01b0381165f818152600460205260409020549092919060ff16600681101561107957600511156128ef575f838152600460205260409020612ab29060059061246f565b612ac862278d00426001600160401b0316611c4f565b5f84815260056020908152604080832080546001600160401b0319166001600160401b03958616179055600790915290208351909181116111a457612b11816126a08454611149565b806020601f8211600114612b7c575f91612b71575b508160011b915f199060031b1c19161790555b604051925f5160206131ff5f395f51905f528460056111f0965262278d006020820152606060408201528061287b60608201876110de565b90508401515f612b26565b5f8481528181209250601f198416905b818110612bc557509083600194939210612bad575b5050811b019055612b39565b8601515f1960f88460031b161c191690555f80612ba1565b9192602060018192868b015181550194019201612b8c565b6001600160a01b03165f8181526004602052604090205490919060ff1660068110156110795760011115611b32575f828152600460205260409020612c249060019061246f565b612c39615460426001600160401b0316611c4f565b5f83815260056020908152604080832080546001600160401b0319166001600160401b03958616179055600790915290208251909181116111a457612c82816126a08454611149565b806020601f8211600114612ce8575f91612cdd575b508160011b915f199060031b1c19161790555b604051806127025f5160206131ff5f395f51905f52936001835261546060208401526060604084015260608301906110de565b90508301515f612c97565b5f8481528181209250601f198416905b818110612d3157509083600194939210612d19575b5050811b019055612caa565b8501515f1960f88460031b161c191690555f80612d0d565b9192602060018192868a015181550194019201612cf8565b6001600160a01b03165f8181526004602052604090205490919060ff1660068110156110795760021115611b32575f828152600460205260409020612d909060029061246f565b612da662015180426001600160401b0316611c4f565b5f83815260056020908152604080832080546001600160401b0319166001600160401b03958616179055600790915290208251909181116111a457612def816126a08454611149565b806020601f8211600114612e56575f91612e4b575b508160011b915f199060031b1c19161790555b604051806127025f5160206131ff5f395f51905f5293600283526201518060208401526060604084015260608301906110de565b90508301515f612e04565b5f8481528181209250601f198416905b818110612e9f57509083600194939210612e87575b5050811b019055612e17565b8501515f1960f88460031b161c191690555f80612e7b565b9192602060018192868a015181550194019201612e66565b6001600160a01b0381165f818152600460205260409020549092919060ff16600681101561107957600311156128ef575f838152600460205260409020612f009060039061246f565b612f166203f480426001600160401b0316611c4f565b5f84815260056020908152604080832080546001600160401b0319166001600160401b03958616179055600790915290208351909181116111a457612f5f816126a08454611149565b806020601f8211600114612fca575f91612fbf575b508160011b915f199060031b1c19161790555b604051925f5160206131ff5f395f51905f528460036111f096526203f4806020820152606060408201528061287b60608201876110de565b90508401515f612f74565b5f8481528181209250601f198416905b81811061301357509083600194939210612ffb575b5050811b019055612f87565b8601515f1960f88460031b161c191690555f80612fef565b9192602060018192868b015181550194019201612fda565b6001600160a01b0381165f818152600460205260409020549092919060ff16600681101561107957600411156128ef575f838152600460208190526040909120613075919061246f565b61308b62093a80426001600160401b0316611c4f565b5f84815260056020908152604080832080546001600160401b0319166001600160401b03958616179055600790915290208351909181116111a4576130d4816126a08454611149565b806020601f821160011461313f575f91613134575b508160011b915f199060031b1c19161790555b604051925f5160206131ff5f395f51905f528460046111f0965262093a806020820152606060408201528061287b60608201876110de565b90508401515f6130e9565b5f8481528181209250601f198416905b81811061318857509083600194939210613170575b5050811b0190556130fc565b8601515f1960f88460031b161c191690555f80613164565b9192602060018192868b01518155019401920161314f565b6001546001600160a01b031691823b156101e3576131f3925f928360405180968195829463031879a760e21b845260018060a01b03166004840152603260248401526060604484015260648301906110de565b03925af16125f0575056fe22c85b3d94a1ba3a9322c4e04ad1813525375dae45698eb5957f18c0812cf7e44909085539de9923a8e0454222710f93be48039aa8bfc0a9e6d37f8236e42c9239d1b5740c8a1efded3c1de1f89851b6dad657de063bd31c547ab61320fc6ea5a2646970667358221220014e04a4a845158a4060e3b617564d3a04a32f1a40aa0c97ef02d317b3f43aeb64736f6c634300081e0033","linkReferences":{}},"methodIdentifiers":{"ADJUSTMENT_INTERVAL()":"8ad469f4","WINDOW_DURATION()":"c55fdd1f","actionCountToday(address,uint8)":"e9a3b6ce","activityWindows(address)":"539f4374","autoLiftThreshold()":"170b3b46","autoRestrictThreshold()":"1b9cb052","beforeAction(address,uint8,uint256,address)":"456d1050","canPerformAction(address,uint8)":"39e32d31","dailyResetTime(address)":"30e76684","dao()":"4162169f","daoOverridden(address)":"51818aa6","daoOverride(address,string)":"94d51a0a","daoRemoveOverride(address)":"cfd0db63","daoSetRateLimit(uint8,uint8,uint16)":"09c94cee","daoSetThresholds(uint16,uint16,uint16,uint16)":"ac925408","getActivitySummary(address)":"97ea0706","getNetworkHealth()":"9871d38f","getRestrictionInfo(address)":"a589bbac","lastActionTime(address,uint8)":"bb08e400","lastThresholdAdjustment()":"faf3107b","lastViolationTime(address)":"3711f69b","ledger()":"56397c35","networkActionCount()":"5f6fc378","networkViolationCount()":"8b2f832e","onScoreChange(address,uint16,uint16)":"19e9cbb7","operators(address)":"13e7c9d8","patternSensitivity()":"653eed12","patternViolations(address,uint8)":"09507171","rateLimitThreshold()":"a0052b8e","rateLimits(uint8,uint8)":"d6969813","restrictionExpiry(address)":"67cc71ea","restrictionLevel(address)":"d757af22","restrictionReason(address)":"f20938b3","seer()":"2d55ea39","setDAO(address)":"e73a914c","setModules(address,address)":"d74a5d00","setOperator(address,bool)":"558a7297","totalViolationScore(address)":"e9560624"},"id":13}