{
  "_format": "hh-sol-artifact-1",
  "contractName": "PromotionalTreasury",
  "sourceName": "contracts/PromotionalTreasury.sol",
  "abi": [
    {
      "inputs": [
        {
          "internalType": "address",
          "name": "_vfideToken",
          "type": "address"
        },
        {
          "internalType": "address",
          "name": "_admin",
          "type": "address"
        }
      ],
      "stateMutability": "nonpayable",
      "type": "constructor"
    },
    {
      "anonymous": false,
      "inputs": [
        {
          "indexed": false,
          "internalType": "string",
          "name": "category",
          "type": "string"
        },
        {
          "indexed": false,
          "internalType": "uint256",
          "name": "amount",
          "type": "uint256"
        }
      ],
      "name": "BudgetReplenished",
      "type": "event"
    },
    {
      "anonymous": false,
      "inputs": [
        {
          "indexed": true,
          "internalType": "address",
          "name": "user",
          "type": "address"
        },
        {
          "indexed": false,
          "internalType": "string",
          "name": "milestone",
          "type": "string"
        },
        {
          "indexed": false,
          "internalType": "uint256",
          "name": "amount",
          "type": "uint256"
        }
      ],
      "name": "EducationRewardClaimed",
      "type": "event"
    },
    {
      "anonymous": false,
      "inputs": [
        {
          "indexed": true,
          "internalType": "address",
          "name": "merchant",
          "type": "address"
        },
        {
          "indexed": false,
          "internalType": "uint256",
          "name": "volume",
          "type": "uint256"
        },
        {
          "indexed": false,
          "internalType": "uint256",
          "name": "amount",
          "type": "uint256"
        }
      ],
      "name": "MerchantMilestoneRewardClaimed",
      "type": "event"
    },
    {
      "anonymous": false,
      "inputs": [
        {
          "indexed": true,
          "internalType": "address",
          "name": "user",
          "type": "address"
        },
        {
          "indexed": false,
          "internalType": "uint256",
          "name": "pioneerNumber",
          "type": "uint256"
        },
        {
          "indexed": false,
          "internalType": "uint256",
          "name": "bonus",
          "type": "uint256"
        }
      ],
      "name": "PioneerBadgeAwarded",
      "type": "event"
    },
    {
      "anonymous": false,
      "inputs": [
        {
          "indexed": false,
          "internalType": "string",
          "name": "category",
          "type": "string"
        }
      ],
      "name": "PromotionalBudgetDepleted",
      "type": "event"
    },
    {
      "anonymous": false,
      "inputs": [
        {
          "indexed": true,
          "internalType": "address",
          "name": "referrer",
          "type": "address"
        },
        {
          "indexed": true,
          "internalType": "address",
          "name": "referee",
          "type": "address"
        },
        {
          "indexed": false,
          "internalType": "uint256",
          "name": "amount",
          "type": "uint256"
        }
      ],
      "name": "ReferralRewardClaimed",
      "type": "event"
    },
    {
      "anonymous": false,
      "inputs": [
        {
          "indexed": true,
          "internalType": "bytes32",
          "name": "role",
          "type": "bytes32"
        },
        {
          "indexed": true,
          "internalType": "bytes32",
          "name": "previousAdminRole",
          "type": "bytes32"
        },
        {
          "indexed": true,
          "internalType": "bytes32",
          "name": "newAdminRole",
          "type": "bytes32"
        }
      ],
      "name": "RoleAdminChanged",
      "type": "event"
    },
    {
      "anonymous": false,
      "inputs": [
        {
          "indexed": true,
          "internalType": "bytes32",
          "name": "role",
          "type": "bytes32"
        },
        {
          "indexed": true,
          "internalType": "address",
          "name": "account",
          "type": "address"
        },
        {
          "indexed": true,
          "internalType": "address",
          "name": "sender",
          "type": "address"
        }
      ],
      "name": "RoleGranted",
      "type": "event"
    },
    {
      "anonymous": false,
      "inputs": [
        {
          "indexed": true,
          "internalType": "bytes32",
          "name": "role",
          "type": "bytes32"
        },
        {
          "indexed": true,
          "internalType": "address",
          "name": "account",
          "type": "address"
        },
        {
          "indexed": true,
          "internalType": "address",
          "name": "sender",
          "type": "address"
        }
      ],
      "name": "RoleRevoked",
      "type": "event"
    },
    {
      "anonymous": false,
      "inputs": [
        {
          "indexed": true,
          "internalType": "address",
          "name": "user",
          "type": "address"
        },
        {
          "indexed": false,
          "internalType": "string",
          "name": "milestone",
          "type": "string"
        },
        {
          "indexed": false,
          "internalType": "uint256",
          "name": "amount",
          "type": "uint256"
        }
      ],
      "name": "UserMilestoneRewardClaimed",
      "type": "event"
    },
    {
      "inputs": [],
      "name": "ADMIN_ROLE",
      "outputs": [
        {
          "internalType": "bytes32",
          "name": "",
          "type": "bytes32"
        }
      ],
      "stateMutability": "view",
      "type": "function"
    },
    {
      "inputs": [],
      "name": "DEFAULT_ADMIN_ROLE",
      "outputs": [
        {
          "internalType": "bytes32",
          "name": "",
          "type": "bytes32"
        }
      ],
      "stateMutability": "view",
      "type": "function"
    },
    {
      "inputs": [],
      "name": "EDUCATION_COMPLETE_PROFILE",
      "outputs": [
        {
          "internalType": "uint256",
          "name": "",
          "type": "uint256"
        }
      ],
      "stateMutability": "view",
      "type": "function"
    },
    {
      "inputs": [],
      "name": "EDUCATION_PAYMENT_TUTORIAL",
      "outputs": [
        {
          "internalType": "uint256",
          "name": "",
          "type": "uint256"
        }
      ],
      "stateMutability": "view",
      "type": "function"
    },
    {
      "inputs": [],
      "name": "EDUCATION_PROOF_SCORE_TUTORIAL",
      "outputs": [
        {
          "internalType": "uint256",
          "name": "",
          "type": "uint256"
        }
      ],
      "stateMutability": "view",
      "type": "function"
    },
    {
      "inputs": [],
      "name": "FIRST_ENDORSEMENT_GIVEN",
      "outputs": [
        {
          "internalType": "uint256",
          "name": "",
          "type": "uint256"
        }
      ],
      "stateMutability": "view",
      "type": "function"
    },
    {
      "inputs": [],
      "name": "FIRST_ENDORSEMENT_RECEIVED",
      "outputs": [
        {
          "internalType": "uint256",
          "name": "",
          "type": "uint256"
        }
      ],
      "stateMutability": "view",
      "type": "function"
    },
    {
      "inputs": [],
      "name": "FIRST_MERCHANT_PAYMENT",
      "outputs": [
        {
          "internalType": "uint256",
          "name": "",
          "type": "uint256"
        }
      ],
      "stateMutability": "view",
      "type": "function"
    },
    {
      "inputs": [],
      "name": "FIRST_TRANSACTION_BONUS",
      "outputs": [
        {
          "internalType": "uint256",
          "name": "",
          "type": "uint256"
        }
      ],
      "stateMutability": "view",
      "type": "function"
    },
    {
      "inputs": [],
      "name": "MAX_EDUCATION_PER_USER",
      "outputs": [
        {
          "internalType": "uint256",
          "name": "",
          "type": "uint256"
        }
      ],
      "stateMutability": "view",
      "type": "function"
    },
    {
      "inputs": [],
      "name": "MAX_MERCHANT_REWARDS",
      "outputs": [
        {
          "internalType": "uint256",
          "name": "",
          "type": "uint256"
        }
      ],
      "stateMutability": "view",
      "type": "function"
    },
    {
      "inputs": [],
      "name": "MAX_PIONEERS",
      "outputs": [
        {
          "internalType": "uint256",
          "name": "",
          "type": "uint256"
        }
      ],
      "stateMutability": "view",
      "type": "function"
    },
    {
      "inputs": [],
      "name": "MAX_REFERRALS_PER_USER",
      "outputs": [
        {
          "internalType": "uint256",
          "name": "",
          "type": "uint256"
        }
      ],
      "stateMutability": "view",
      "type": "function"
    },
    {
      "inputs": [],
      "name": "MAX_REFERRAL_PER_USER",
      "outputs": [
        {
          "internalType": "uint256",
          "name": "",
          "type": "uint256"
        }
      ],
      "stateMutability": "view",
      "type": "function"
    },
    {
      "inputs": [],
      "name": "MAX_USER_MILESTONE_PER_USER",
      "outputs": [
        {
          "internalType": "uint256",
          "name": "",
          "type": "uint256"
        }
      ],
      "stateMutability": "view",
      "type": "function"
    },
    {
      "inputs": [],
      "name": "MERCHANT_10K_VOLUME",
      "outputs": [
        {
          "internalType": "uint256",
          "name": "",
          "type": "uint256"
        }
      ],
      "stateMutability": "view",
      "type": "function"
    },
    {
      "inputs": [],
      "name": "MERCHANT_1K_VOLUME",
      "outputs": [
        {
          "internalType": "uint256",
          "name": "",
          "type": "uint256"
        }
      ],
      "stateMutability": "view",
      "type": "function"
    },
    {
      "inputs": [],
      "name": "MERCHANT_5K_VOLUME",
      "outputs": [
        {
          "internalType": "uint256",
          "name": "",
          "type": "uint256"
        }
      ],
      "stateMutability": "view",
      "type": "function"
    },
    {
      "inputs": [],
      "name": "PIONEER_BADGE_BONUS",
      "outputs": [
        {
          "internalType": "uint256",
          "name": "",
          "type": "uint256"
        }
      ],
      "stateMutability": "view",
      "type": "function"
    },
    {
      "inputs": [],
      "name": "REFERRAL_SIGNUP_BONUS",
      "outputs": [
        {
          "internalType": "uint256",
          "name": "",
          "type": "uint256"
        }
      ],
      "stateMutability": "view",
      "type": "function"
    },
    {
      "inputs": [],
      "name": "REFERRAL_TRANSACTION_BONUS",
      "outputs": [
        {
          "internalType": "uint256",
          "name": "",
          "type": "uint256"
        }
      ],
      "stateMutability": "view",
      "type": "function"
    },
    {
      "inputs": [],
      "name": "TEN_MERCHANTS_VISITED",
      "outputs": [
        {
          "internalType": "uint256",
          "name": "",
          "type": "uint256"
        }
      ],
      "stateMutability": "view",
      "type": "function"
    },
    {
      "inputs": [],
      "name": "THREE_MERCHANTS_VISITED",
      "outputs": [
        {
          "internalType": "uint256",
          "name": "",
          "type": "uint256"
        }
      ],
      "stateMutability": "view",
      "type": "function"
    },
    {
      "inputs": [],
      "name": "TOTAL_PROMOTIONAL_ALLOCATION",
      "outputs": [
        {
          "internalType": "uint256",
          "name": "",
          "type": "uint256"
        }
      ],
      "stateMutability": "view",
      "type": "function"
    },
    {
      "inputs": [],
      "name": "VAULT_CREATED",
      "outputs": [
        {
          "internalType": "uint256",
          "name": "",
          "type": "uint256"
        }
      ],
      "stateMutability": "view",
      "type": "function"
    },
    {
      "inputs": [
        {
          "internalType": "address",
          "name": "user",
          "type": "address"
        }
      ],
      "name": "awardPioneerBadge",
      "outputs": [],
      "stateMutability": "nonpayable",
      "type": "function"
    },
    {
      "inputs": [
        {
          "internalType": "string",
          "name": "milestone",
          "type": "string"
        }
      ],
      "name": "claimEducationReward",
      "outputs": [],
      "stateMutability": "nonpayable",
      "type": "function"
    },
    {
      "inputs": [
        {
          "internalType": "uint256",
          "name": "volumeProcessed",
          "type": "uint256"
        }
      ],
      "name": "claimMerchantMilestone",
      "outputs": [],
      "stateMutability": "nonpayable",
      "type": "function"
    },
    {
      "inputs": [
        {
          "internalType": "address",
          "name": "referee",
          "type": "address"
        }
      ],
      "name": "claimReferralTransactionBonus",
      "outputs": [],
      "stateMutability": "nonpayable",
      "type": "function"
    },
    {
      "inputs": [
        {
          "internalType": "string",
          "name": "milestone",
          "type": "string"
        }
      ],
      "name": "claimUserMilestone",
      "outputs": [],
      "stateMutability": "nonpayable",
      "type": "function"
    },
    {
      "inputs": [
        {
          "internalType": "address",
          "name": "",
          "type": "address"
        }
      ],
      "name": "claimedTenMerchants",
      "outputs": [
        {
          "internalType": "bool",
          "name": "",
          "type": "bool"
        }
      ],
      "stateMutability": "view",
      "type": "function"
    },
    {
      "inputs": [
        {
          "internalType": "address",
          "name": "",
          "type": "address"
        }
      ],
      "name": "claimedThreeMerchants",
      "outputs": [
        {
          "internalType": "bool",
          "name": "",
          "type": "bool"
        }
      ],
      "stateMutability": "view",
      "type": "function"
    },
    {
      "inputs": [
        {
          "internalType": "address",
          "name": "",
          "type": "address"
        }
      ],
      "name": "completedPaymentTutorial",
      "outputs": [
        {
          "internalType": "bool",
          "name": "",
          "type": "bool"
        }
      ],
      "stateMutability": "view",
      "type": "function"
    },
    {
      "inputs": [
        {
          "internalType": "address",
          "name": "",
          "type": "address"
        }
      ],
      "name": "completedProfile",
      "outputs": [
        {
          "internalType": "bool",
          "name": "",
          "type": "bool"
        }
      ],
      "stateMutability": "view",
      "type": "function"
    },
    {
      "inputs": [
        {
          "internalType": "address",
          "name": "",
          "type": "address"
        }
      ],
      "name": "completedProofScoreTutorial",
      "outputs": [
        {
          "internalType": "bool",
          "name": "",
          "type": "bool"
        }
      ],
      "stateMutability": "view",
      "type": "function"
    },
    {
      "inputs": [
        {
          "internalType": "address",
          "name": "",
          "type": "address"
        }
      ],
      "name": "createdVault",
      "outputs": [
        {
          "internalType": "bool",
          "name": "",
          "type": "bool"
        }
      ],
      "stateMutability": "view",
      "type": "function"
    },
    {
      "inputs": [],
      "name": "educationBudgetRemaining",
      "outputs": [
        {
          "internalType": "uint256",
          "name": "",
          "type": "uint256"
        }
      ],
      "stateMutability": "view",
      "type": "function"
    },
    {
      "inputs": [
        {
          "internalType": "address",
          "name": "",
          "type": "address"
        }
      ],
      "name": "educationRewardsClaimed",
      "outputs": [
        {
          "internalType": "uint256",
          "name": "",
          "type": "uint256"
        }
      ],
      "stateMutability": "view",
      "type": "function"
    },
    {
      "inputs": [
        {
          "internalType": "address",
          "name": "",
          "type": "address"
        }
      ],
      "name": "gaveFirstEndorsement",
      "outputs": [
        {
          "internalType": "bool",
          "name": "",
          "type": "bool"
        }
      ],
      "stateMutability": "view",
      "type": "function"
    },
    {
      "inputs": [],
      "name": "getRemainingBudgets",
      "outputs": [
        {
          "internalType": "uint256",
          "name": "education",
          "type": "uint256"
        },
        {
          "internalType": "uint256",
          "name": "referral",
          "type": "uint256"
        },
        {
          "internalType": "uint256",
          "name": "userMilestone",
          "type": "uint256"
        },
        {
          "internalType": "uint256",
          "name": "merchant",
          "type": "uint256"
        },
        {
          "internalType": "uint256",
          "name": "pioneer",
          "type": "uint256"
        },
        {
          "internalType": "uint256",
          "name": "total",
          "type": "uint256"
        }
      ],
      "stateMutability": "view",
      "type": "function"
    },
    {
      "inputs": [
        {
          "internalType": "bytes32",
          "name": "role",
          "type": "bytes32"
        }
      ],
      "name": "getRoleAdmin",
      "outputs": [
        {
          "internalType": "bytes32",
          "name": "",
          "type": "bytes32"
        }
      ],
      "stateMutability": "view",
      "type": "function"
    },
    {
      "inputs": [
        {
          "internalType": "address",
          "name": "user",
          "type": "address"
        }
      ],
      "name": "getUserStats",
      "outputs": [
        {
          "internalType": "bool",
          "name": "_isPioneer",
          "type": "bool"
        },
        {
          "internalType": "uint256",
          "name": "_pioneerNumber",
          "type": "uint256"
        },
        {
          "internalType": "uint256",
          "name": "_educationClaimed",
          "type": "uint256"
        },
        {
          "internalType": "uint256",
          "name": "_referralClaimed",
          "type": "uint256"
        },
        {
          "internalType": "uint256",
          "name": "_milestoneClaimed",
          "type": "uint256"
        },
        {
          "internalType": "uint256",
          "name": "_referralsMade",
          "type": "uint256"
        },
        {
          "internalType": "bool",
          "name": "_canReferMore",
          "type": "bool"
        }
      ],
      "stateMutability": "view",
      "type": "function"
    },
    {
      "inputs": [
        {
          "internalType": "bytes32",
          "name": "role",
          "type": "bytes32"
        },
        {
          "internalType": "address",
          "name": "account",
          "type": "address"
        }
      ],
      "name": "grantRole",
      "outputs": [],
      "stateMutability": "nonpayable",
      "type": "function"
    },
    {
      "inputs": [
        {
          "internalType": "bytes32",
          "name": "role",
          "type": "bytes32"
        },
        {
          "internalType": "address",
          "name": "account",
          "type": "address"
        }
      ],
      "name": "hasRole",
      "outputs": [
        {
          "internalType": "bool",
          "name": "",
          "type": "bool"
        }
      ],
      "stateMutability": "view",
      "type": "function"
    },
    {
      "inputs": [
        {
          "internalType": "address",
          "name": "",
          "type": "address"
        }
      ],
      "name": "hasUsedReferralCode",
      "outputs": [
        {
          "internalType": "bool",
          "name": "",
          "type": "bool"
        }
      ],
      "stateMutability": "view",
      "type": "function"
    },
    {
      "inputs": [
        {
          "internalType": "address",
          "name": "",
          "type": "address"
        }
      ],
      "name": "isPioneer",
      "outputs": [
        {
          "internalType": "bool",
          "name": "",
          "type": "bool"
        }
      ],
      "stateMutability": "view",
      "type": "function"
    },
    {
      "inputs": [],
      "name": "isPromotionActive",
      "outputs": [
        {
          "internalType": "bool",
          "name": "",
          "type": "bool"
        }
      ],
      "stateMutability": "view",
      "type": "function"
    },
    {
      "inputs": [
        {
          "internalType": "address",
          "name": "",
          "type": "address"
        }
      ],
      "name": "madeFirstMerchantPayment",
      "outputs": [
        {
          "internalType": "bool",
          "name": "",
          "type": "bool"
        }
      ],
      "stateMutability": "view",
      "type": "function"
    },
    {
      "inputs": [
        {
          "internalType": "address",
          "name": "",
          "type": "address"
        }
      ],
      "name": "madeFirstTransaction",
      "outputs": [
        {
          "internalType": "bool",
          "name": "",
          "type": "bool"
        }
      ],
      "stateMutability": "view",
      "type": "function"
    },
    {
      "inputs": [],
      "name": "merchantBudgetRemaining",
      "outputs": [
        {
          "internalType": "uint256",
          "name": "",
          "type": "uint256"
        }
      ],
      "stateMutability": "view",
      "type": "function"
    },
    {
      "inputs": [
        {
          "internalType": "address",
          "name": "",
          "type": "address"
        }
      ],
      "name": "merchantMilestoneClaimed",
      "outputs": [
        {
          "internalType": "bool",
          "name": "",
          "type": "bool"
        }
      ],
      "stateMutability": "view",
      "type": "function"
    },
    {
      "inputs": [
        {
          "internalType": "address",
          "name": "",
          "type": "address"
        }
      ],
      "name": "merchantRewardsClaimed",
      "outputs": [
        {
          "internalType": "uint256",
          "name": "",
          "type": "uint256"
        }
      ],
      "stateMutability": "view",
      "type": "function"
    },
    {
      "inputs": [
        {
          "internalType": "address",
          "name": "",
          "type": "address"
        }
      ],
      "name": "merchantVolumeProcessed",
      "outputs": [
        {
          "internalType": "uint256",
          "name": "",
          "type": "uint256"
        }
      ],
      "stateMutability": "view",
      "type": "function"
    },
    {
      "inputs": [],
      "name": "pioneerBudgetRemaining",
      "outputs": [
        {
          "internalType": "uint256",
          "name": "",
          "type": "uint256"
        }
      ],
      "stateMutability": "view",
      "type": "function"
    },
    {
      "inputs": [
        {
          "internalType": "address",
          "name": "",
          "type": "address"
        }
      ],
      "name": "pioneerNumber",
      "outputs": [
        {
          "internalType": "uint256",
          "name": "",
          "type": "uint256"
        }
      ],
      "stateMutability": "view",
      "type": "function"
    },
    {
      "inputs": [
        {
          "internalType": "address",
          "name": "",
          "type": "address"
        }
      ],
      "name": "receivedFirstEndorsement",
      "outputs": [
        {
          "internalType": "bool",
          "name": "",
          "type": "bool"
        }
      ],
      "stateMutability": "view",
      "type": "function"
    },
    {
      "inputs": [
        {
          "internalType": "address",
          "name": "user",
          "type": "address"
        },
        {
          "internalType": "address",
          "name": "merchant",
          "type": "address"
        }
      ],
      "name": "recordMerchantVisit",
      "outputs": [],
      "stateMutability": "nonpayable",
      "type": "function"
    },
    {
      "inputs": [],
      "name": "referralBudgetRemaining",
      "outputs": [
        {
          "internalType": "uint256",
          "name": "",
          "type": "uint256"
        }
      ],
      "stateMutability": "view",
      "type": "function"
    },
    {
      "inputs": [
        {
          "internalType": "address",
          "name": "",
          "type": "address"
        }
      ],
      "name": "referralCount",
      "outputs": [
        {
          "internalType": "uint256",
          "name": "",
          "type": "uint256"
        }
      ],
      "stateMutability": "view",
      "type": "function"
    },
    {
      "inputs": [
        {
          "internalType": "address",
          "name": "",
          "type": "address"
        }
      ],
      "name": "referralRewardsClaimed",
      "outputs": [
        {
          "internalType": "uint256",
          "name": "",
          "type": "uint256"
        }
      ],
      "stateMutability": "view",
      "type": "function"
    },
    {
      "inputs": [
        {
          "internalType": "address",
          "name": "",
          "type": "address"
        }
      ],
      "name": "referralTxBonusClaimed",
      "outputs": [
        {
          "internalType": "bool",
          "name": "",
          "type": "bool"
        }
      ],
      "stateMutability": "view",
      "type": "function"
    },
    {
      "inputs": [
        {
          "internalType": "address",
          "name": "",
          "type": "address"
        }
      ],
      "name": "referredBy",
      "outputs": [
        {
          "internalType": "address",
          "name": "",
          "type": "address"
        }
      ],
      "stateMutability": "view",
      "type": "function"
    },
    {
      "inputs": [
        {
          "internalType": "address",
          "name": "referee",
          "type": "address"
        },
        {
          "internalType": "address",
          "name": "referrer",
          "type": "address"
        }
      ],
      "name": "registerReferral",
      "outputs": [],
      "stateMutability": "nonpayable",
      "type": "function"
    },
    {
      "inputs": [
        {
          "internalType": "bytes32",
          "name": "role",
          "type": "bytes32"
        },
        {
          "internalType": "address",
          "name": "account",
          "type": "address"
        }
      ],
      "name": "renounceRole",
      "outputs": [],
      "stateMutability": "nonpayable",
      "type": "function"
    },
    {
      "inputs": [
        {
          "internalType": "string",
          "name": "category",
          "type": "string"
        },
        {
          "internalType": "uint256",
          "name": "amount",
          "type": "uint256"
        }
      ],
      "name": "replenishBudget",
      "outputs": [],
      "stateMutability": "nonpayable",
      "type": "function"
    },
    {
      "inputs": [
        {
          "internalType": "bytes32",
          "name": "role",
          "type": "bytes32"
        },
        {
          "internalType": "address",
          "name": "account",
          "type": "address"
        }
      ],
      "name": "revokeRole",
      "outputs": [],
      "stateMutability": "nonpayable",
      "type": "function"
    },
    {
      "inputs": [],
      "name": "totalDistributed",
      "outputs": [
        {
          "internalType": "uint256",
          "name": "",
          "type": "uint256"
        }
      ],
      "stateMutability": "view",
      "type": "function"
    },
    {
      "inputs": [],
      "name": "totalPioneers",
      "outputs": [
        {
          "internalType": "uint256",
          "name": "",
          "type": "uint256"
        }
      ],
      "stateMutability": "view",
      "type": "function"
    },
    {
      "inputs": [
        {
          "internalType": "address",
          "name": "",
          "type": "address"
        }
      ],
      "name": "uniqueMerchantsVisited",
      "outputs": [
        {
          "internalType": "uint256",
          "name": "",
          "type": "uint256"
        }
      ],
      "stateMutability": "view",
      "type": "function"
    },
    {
      "inputs": [],
      "name": "userMilestoneBudgetRemaining",
      "outputs": [
        {
          "internalType": "uint256",
          "name": "",
          "type": "uint256"
        }
      ],
      "stateMutability": "view",
      "type": "function"
    },
    {
      "inputs": [
        {
          "internalType": "address",
          "name": "",
          "type": "address"
        }
      ],
      "name": "userMilestoneRewardsClaimed",
      "outputs": [
        {
          "internalType": "uint256",
          "name": "",
          "type": "uint256"
        }
      ],
      "stateMutability": "view",
      "type": "function"
    },
    {
      "inputs": [],
      "name": "vfideToken",
      "outputs": [
        {
          "internalType": "contract VFIDEToken",
          "name": "",
          "type": "address"
        }
      ],
      "stateMutability": "view",
      "type": "function"
    }
  ],
  "bytecode": "0x60a03461027b57601f61340138819003918201601f19168301916001600160401b0383118484101761028057808492604094855283398101031261027b57610052602061004b83610296565b9201610296565b600180556001600160a01b03909116908115610236576001600160a01b03169081156101f157608052693f870857a3e0e38000006002556969e10de76676d08000006003556954b40b1f852bda000000600455697f0e10af47c1c7000000600555692a5a058fc295ed00000060065560008181526000805160206133e1833981519152602052604090205460ff16156101b0575b60008181526000805160206133c1833981519152602052604090205460ff161561014d575b6040516130f690816102ab82396080518181816105bf01528181610d63015281816110f0015281816114a601528181611a0801528181611d3e01526121150152f35b60008181526000805160206133c183398151915260205260408120805460ff191660011790553391907fa49807205ce4d355092ef5a8a18f56e8913cf4a201fbe287825b095693c21775906000805160206133a18339815191529080a43861010b565b60008181526000805160206133e183398151915260205260408120805460ff19166001179055339082906000805160206133a18339815191528180a46100e6565b60405162461bcd60e51b815260206004820152601560248201527f496e76616c69642061646d696e206164647265737300000000000000000000006044820152606490fd5b60405162461bcd60e51b815260206004820152601560248201527f496e76616c696420746f6b656e206164647265737300000000000000000000006044820152606490fd5b600080fd5b634e487b7160e01b600052604160045260246000fd5b51906001600160a01b038216820361027b5756fe6080604052600436101561001257600080fd5b60003560e01c806304ae1fb514612be85780630b9a8859146129e25780630d538b87146129be5780630db16b62146129a05780631176d7ed1461296657806312f6f7ee14612927578063185840fe146128e8578063197d63a1146128a95780631c86779a1461288b5780632327597e14612867578063248a9ca314612841578063277402b514610bb65780632f2ff15d146127735780632fca4a7614612734578063311528081461271857806332b02d44146126d957806332ef958c146126b3578063344027441461033457806336568abe14612639578063366202501461261b5780633fcfe45a146125dc578063458394ce146125be57806345a137141461257f578063462e61b01461255b578063476014dd146118dd578063478c0250146125215780634dae7b3214610bb65780634e43603a146124885780635603b9f914611fbc57806358fc460114611f98578063683c60d714611c1257806368b3c7d214611bf457806368fece8c14611bb557806369067a45146118e257806369782c3c14610bf55780636b11328b146118dd5780636d925f161461187657806375647e0214611852578063758d86771461181357806375b238fc146117d85780637850aa27146117b457806381dec47c1461178a578063827f2ccc14611750578063849733c6146103345780638a07cc7414611334578063915bd11f146112fa57806391d14854146112ad578063a217fddf14611291578063a262876d1461126d578063a85399b21461122e578063a90f8e9a146111ec578063a9d65051146111ad578063ac1ba4fd1461113c578063aea3b2171461111f578063b8a71eec146110da578063bcb5bae1146110bc578063c5016f5c14611082578063ca25b6fe14611043578063d310412214610c4e578063d547741f14610bfa578063d6abc27914610bf5578063db74559b14610bbb578063dbedbc6414610bb6578063e27e59fc14610b92578063e32a16701461044e578063e45fc9561461040f578063e8c62a15146103d0578063ecfb88ca14610396578063eebf2d1d14610334578063efca2eed14610378578063f404f791146103395763ffbc7c831461033457600080fd5b612cf4565b34610373576020366003190112610373576001600160a01b0361035a612ca5565b1660005260106020526020604060002054604051908152f35b600080fd5b34610373576000366003190112610373576020600754604051908152f35b34610373576020366003190112610373576001600160a01b036103b7612ca5565b16600052600a6020526020604060002054604051908152f35b34610373576020366003190112610373576001600160a01b036103f1612ca5565b166000526014602052602060ff604060002054166040519015158152f35b34610373576020366003190112610373576001600160a01b03610430612ca5565b166000526019602052602060ff604060002054166040519015158152f35b34610373576020366003190112610373576004356001600160401b0381116103735761047e903690600401612c5e565b61048661301e565b33600052600a60205268097c9ce4cf6d5c00006040600020541015610b555760009080519160208201928320926040936011602086516104c68882612c0c565b82815201703334b939ba2fba3930b739b0b1ba34b7b760791b815220146000146107aa57505033600052601760205261050660ff83600020541615612f5e565b33600052601760205281600020600160ff1982541617905568015af1d78b58c40000905b81600454106107665733600052600a6020528260002061054b838254612ea7565b9055610555612e04565b50610561821515612d7a565b60075466d3c21bcecceda160191b6105798483612ea7565b1161072a578261058891612ea7565b6007556000808451602081019063a9059cbb60e01b8252336024820152856044820152604481526105ba606482612c0c565b5190827f00000000000000000000000000000000000000000000000000000000000000006001600160a01b03165af13d15610723573d6105f981612c43565b9061060686519283612c0c565b81523d6000602083013e5b816106eb575b50156106aa577fcac730ce09b428ff423f84a360bcb2d523288d59c3c2469647c27934302fd51c61065f61064d84600454612f25565b93846004558551918291339583612eb4565b0390a21561066e575b60018055005b6060816d757365725f6d696c6573746f6e6560901b6000805160206130a183398151915293519160208352600e6020840152820152a180610668565b825162461bcd60e51b815260206004820152601a60248201527914d85999515490cc8c0e881d1c985b9cd9995c8819985a5b195960321b6044820152606490fd5b8051801592508215610700575b505084610617565b8192509060209181010312610373576020015180151581036103735784806106f8565b6060610611565b835162461bcd60e51b8152602060048201526015602482015274151bdd185b08189d5919d95d08195e18d959591959605a1b6044820152606490fd5b825162461bcd60e51b815260206004820152601e60248201527f55736572206d696c6573746f6e6520627564676574206465706c6574656400006044820152606490fd5b825181206016602086516107be8882612c0c565b8281520175199a5c9cdd17db595c98da185b9d17dc185e5b595b9d60521b8152201460001461082b57505033600052601860205261080360ff83600020541615612f5e565b33600052601860205281600020600160ff1982541617905568015af1d78b58c400009061052a565b8251812060176020865161083f8882612c0c565b82815201763334b939ba2fb2b73237b939b2b6b2b73a2fb3b4bb32b760491b815220146000146108ac57505033600052601960205261088560ff83600020541615612f5e565b33600052601960205281600020600160ff1982541617905567d02ab486cedc00009061052a565b82518120601a602086516108c08882612c0c565b8281520179199a5c9cdd17d95b991bdc9cd95b595b9d17dc9958d95a5d995960321b8152201460001461093057505033600052601a60205261090960ff83600020541615612f5e565b33600052601a60205281600020600160ff1982541617905567d02ab486cedc00009061052a565b82518120600d602086516109448882612c0c565b828152016c1d985d5b1d17d8dc99585d1959609a1b815220146000146109a857505033600052601b60205261098060ff83600020541615612f5e565b33600052601b60205281600020600160ff198254161790556802b5e3af16b18800009061052a565b82518120600f602086516109bc8882612c0c565b828152016e74687265655f6d65726368616e747360881b81522014600014610a7557505033600052601d6020526109fa60ff83600020541615612f5e565b33600052601c6020526003826000205410610a375733600052601d60205281600020600160ff198254161790556802b5e3af16b18800009061052a565b815162461bcd60e51b8152602060048201526017602482015276159a5cda5d080cc81b595c98da185b9d1cc8199a5c9cdd604a1b6044820152606490fd5b82519020600d60208551610a898782612c0c565b828152016c74656e5f6d65726368616e747360981b81522014600014610b3957338152601e602052610ac160ff848320541615612f5e565b338152601c602052600a8382205410610afa57338152601e602052829020805460ff1916600117905568056bc75e2d631000009061052a565b825162461bcd60e51b8152602060048201526018602482015277159a5cda5d080c4c081b595c98da185b9d1cc8199a5c9cdd60421b6044820152606490fd5b825162461bcd60e51b815280610b5160048201612f32565b0390fd5b60405162461bcd60e51b8152602060048201526015602482015274135a5b195cdd1bdb994818d85c081c995858da1959605a1b6044820152606490fd5b34610373576000366003190112610373576020604051683635c9adc5dea000008152f35b612cd1565b34610373576020366003190112610373576001600160a01b03610bdc612ca5565b16600052600d6020526020604060002054604051908152f35b612d18565b3461037357604036600319011261037357610c4c600435610c19612cbb565b90610c2381612f02565b600090815260208181526040808320338452909152902054610c479060ff16612d3b565b612f9c565b005b3461037357602036600319011261037357610c67612ca5565b610c6f61301e565b6001600160a01b039081166000818152600c60205260409020549091169033820361100b5780600052601f60205260ff60406000205416610fc757816000526009602052683635c9adc5dea000006040600020541015610f8b5768015af1d78b58c4000060035410610f4b5780600052601f6020526040600020600160ff19825416179055610cfc612dde565b5060075466d3c21bcecceda160191b610d1482612e7b565b11610f0e57610d2290612e7b565b600755600080604051602081019063a9059cbb60e01b825285602482015268015af1d78b58c40000604482015260448152610d5e606482612c0c565b5190827f00000000000000000000000000000000000000000000000000000000000000006001600160a01b03165af13d15610f07573d610d9d81612c43565b90610dab6040519283612c0c565b81523d6000602083013e5b81610ecf575b5015610e8d57816000526009602052604060002080549068015af1d78b58c400008201809211610e77575560035468015af1d78b58c3ffff19810192908311610e7757826003557ff1a5b75d05cae9d461d822c73e66e2ae88a31f7edec9922587b8f22689d6f20b602060405168015af1d78b58c400008152a315610e415760018055005b6000805160206130a183398151915260606040516020815260086020820152671c9959995c9c985b60c21b6040820152a1610668565b634e487b7160e01b600052601160045260246000fd5b60405162461bcd60e51b815260206004820152601a60248201527914d85999515490cc8c0e881d1c985b9cd9995c8819985a5b195960321b6044820152606490fd5b8051801592508215610ee4575b505083610dbc565b819250906020918101031261037357602001518015158103610373578380610edc565b6060610db6565b60405162461bcd60e51b8152602060048201526015602482015274151bdd185b08189d5919d95d08195e18d959591959605a1b6044820152606490fd5b60405162461bcd60e51b8152602060048201526018602482015277149959995c9c985b08189d5919d95d0819195c1b195d195960421b6044820152606490fd5b60405162461bcd60e51b8152602060048201526014602482015273149959995c9c985b0818d85c081c995858da195960621b6044820152606490fd5b606460405162461bcd60e51b815260206004820152602060248201527f416c726561647920636c61696d656420666f72207468697320726566657265656044820152fd5b60405162461bcd60e51b815260206004820152601060248201526f2737ba103a3432903932b332b93932b960811b6044820152606490fd5b34610373576020366003190112610373576001600160a01b03611064612ca5565b16600052600e602052602060ff604060002054166040519015158152f35b34610373576020366003190112610373576001600160a01b036110a3612ca5565b16600052601c6020526020604060002054604051908152f35b34610373576000366003190112610373576020600454604051908152f35b34610373576000366003190112610373576040517f00000000000000000000000000000000000000000000000000000000000000006001600160a01b03168152602090f35b346103735760003660031901126103735760206040516127108152f35b3461037357604036600319011261037357611155612ca5565b61115d612cbb565b5033600090815260008051602061306183398151915260205260409020546111879060ff16612d3b565b6001600160a01b03166000908152601c6020526040902080546111a990612f16565b9055005b34610373576020366003190112610373576001600160a01b036111ce612ca5565b166000526016602052602060ff604060002054166040519015158152f35b34610373576020366003190112610373576001600160a01b0361120d612ca5565b16600052600c602052602060018060a01b0360406000205416604051908152f35b34610373576020366003190112610373576001600160a01b0361124f612ca5565b166000526015602052602060ff604060002054166040519015158152f35b346103735760003660031901126103735760206040516801158e460913d000008152f35b3461037357600036600319011261037357602060405160008152f35b34610373576040366003190112610373576112c6612cbb565b600435600052600060205260406000209060018060a01b0316600052602052602060ff604060002054166040519015158152f35b34610373576020366003190112610373576001600160a01b0361131b612ca5565b1660005260086020526020604060002054604051908152f35b34610373576020366003190112610373576004356001600160401b03811161037357611364903690600401612c5e565b61136c61301e565b3360005260086020526801a055690d9db80000604060002054101561171357600090805191602082019283209060409384926010602085516113ae8782612c0c565b828152016f636f6d706c6574655f70726f66696c6560801b8152201460001461160a575050503360005260146020526113ee60ff83600020541615612f5e565b33600052601460205281600020600160ff19825416179055678ac7230489e80000905b81600254106115ca5733600052600860205282600020611432838254612ea7565b905561143c612db7565b50611448821515612d7a565b60075466d3c21bcecceda160191b6114608483612ea7565b1161072a578261146f91612ea7565b6007556000808451602081019063a9059cbb60e01b8252336024820152856044820152604481526114a1606482612c0c565b5190827f00000000000000000000000000000000000000000000000000000000000000006001600160a01b03165af13d156115c3573d6114e081612c43565b906114ed86519283612c0c565b81523d6000602083013e5b8161158b575b50156106aa577f2053a07ba0a17d6312cb2a44b404d84a1da024cecd29b09657e9c6a03cc9a65061154661153484600254612f25565b93846002558551918291339583612eb4565b0390a2156115545760018055005b6060816832b23ab1b0ba34b7b760b91b6000805160206130a18339815191529351916020835260096020840152820152a180610668565b80518015925082156115a0575b5050846114fe565b819250906020918101031261037357602001518015158103610373578480611598565b60606114f8565b825162461bcd60e51b815260206004820152601960248201527811591d58d85d1a5bdb88189d5919d95d0819195c1b195d1959603a1b6044820152606490fd5b8351812060146020855161161e8782612c0c565b82815201731c1c9bdbd997dcd8dbdc9957dd1d5d1bdc9a585b60621b815220146000146116895750505033600052601560205261166260ff83600020541615612f5e565b33600052601560205281600020600160ff19825416179055678ac7230489e8000090611411565b8351902060106020845161169d8682612c0c565b828152016f1c185e5b595b9d17dd1d5d1bdc9a585b60821b815220146000146116fb5733815260166020526116d860ff838320541615612f5e565b338152601660205220805460ff19166001179055678ac7230489e8000090611411565b505162461bcd60e51b815280610b5160048201612f32565b60405162461bcd60e51b815260206004820152601560248201527411591d58d85d1a5bdb8818d85c081c995858da1959605a1b6044820152606490fd5b34610373576020366003190112610373576001600160a01b03611771612ca5565b16600052600b6020526020604060002054604051908152f35b3461037357600036600319011261037357602066d3c21bcecceda160191b60075410604051908152f35b3461037357600036600319011261037357602060405168097c9ce4cf6d5c00008152f35b346103735760003660031901126103735760206040517fa49807205ce4d355092ef5a8a18f56e8913cf4a201fbe287825b095693c217758152f35b34610373576020366003190112610373576001600160a01b03611834612ca5565b16600052601f602052602060ff604060002054166040519015158152f35b34610373576000366003190112610373576020604051681b1ae4d6e2ef5000008152f35b3461037357600036600319011261037357600254600354906004546005546006549060075466d3c21bcecceda160191b039266d3c21bcecceda160191b8411610e775760c095604051958652602086015260408501526060840152608083015260a0820152f35b612be8565b34610373576020366003190112610373576118fb612ca5565b33600090815260008051602061306183398151915260205260409020546119249060ff16612d3b565b6001600160a01b03166000818152600f602052604090205460ff16611b7c57601154612710811015611b3c576801158e460913d0000060065410611afd5761196b90612f16565b60115580600052600f6020526040600020600160ff198254161790556011548160005260106020526040600020556119a1612e56565b5060075466d3c21bcecceda160191b6119b982612e91565b11610f0e576119c790612e91565b600755600080604051602081019063a9059cbb60e01b82528460248201526801158e460913d00000604482015260448152611a03606482612c0c565b5190827f00000000000000000000000000000000000000000000000000000000000000006001600160a01b03165af13d15611af6573d611a4281612c43565b90611a506040519283612c0c565b81523d6000602083013e5b81611abe575b5015610e8d576006546801158e460913cfffff198101908111610e77576006557f6a90316e67ed6573e66292169087b28c08bc381fa9e9d1aaa43a1bc2a37b0dda604060115481519081526801158e460913d000006020820152a2005b8051801592508215611ad3575b505082611a61565b819250906020918101031261037357602001518015158103610373578280611acb565b6060611a5b565b60405162461bcd60e51b8152602060048201526017602482015276141a5bdb99595c88189d5919d95d0819195c1b195d1959604a1b6044820152606490fd5b60405162461bcd60e51b8152602060048201526018602482015277105b1b081c1a5bdb99595c881cdb1bdd1cc8199a5b1b195960421b6044820152606490fd5b60405162461bcd60e51b815260206004820152601160248201527020b63932b0b23c9030903834b7b732b2b960791b6044820152606490fd5b34610373576020366003190112610373576001600160a01b03611bd6612ca5565b166000526013602052602060ff604060002054166040519015158152f35b34610373576000366003190112610373576020600654604051908152f35b3461037357602036600319011261037357600435611c2e61301e565b33600052600b602052685150ae84a8cdf000006040600020541015611f5c5733600052601360205260ff60406000205416611f1b5733600090815260126020908152604080832084905560139091529020805460ff1916600117905569021e19e0c9bab24000008110611e9f57681b1ae4d6e2ef500000905b8160055410611e5f5733600052600b6020526040600020611cc9838254612ea7565b9055611cd3612e30565b50611cdf821515612d7a565b60075466d3c21bcecceda160191b611cf78483612ea7565b11610f0e5782611d0691612ea7565b600755600080604051602081019063a9059cbb60e01b825233602482015285604482015260448152611d39606482612c0c565b5190827f00000000000000000000000000000000000000000000000000000000000000006001600160a01b03165af13d15611e58573d611d7881612c43565b90611d866040519283612c0c565b81523d6000602083013e5b81611e20575b5015610e8d57611da982600554612f25565b918260055560405191825260208201527ff19d369a43c96ee685266d4178ebb8ca58b649f803489008b0cd115ad34deb9b60403392a215611dea5760018055005b6000805160206130a183398151915260606040516020815260086020820152671b595c98da185b9d60c21b6040820152a1610668565b8051801592508215611e35575b505083611d97565b819250906020918101031261037357602001518015158103610373578380611e2d565b6060611d91565b60405162461bcd60e51b815260206004820152601860248201527713595c98da185b9d08189d5919d95d0819195c1b195d195960421b6044820152606490fd5b69010f0cf064dd592000008110611ec057680ad78ebc5ac620000090611ca7565b683635c9adc5dea000008110611ee0576802b5e3af16b188000090611ca7565b60405162461bcd60e51b8152602060048201526013602482015272496e73756666696369656e7420766f6c756d6560681b6044820152606490fd5b60405162461bcd60e51b8152602060048201526019602482015278135a5b195cdd1bdb9948185b1c9958591e4818db185a5b5959603a1b6044820152606490fd5b60405162461bcd60e51b815260206004820152601460248201527313595c98da185b9d0818d85c081c995858da195960621b6044820152606490fd5b346103735760003660031901126103735760206040516801a055690d9db800008152f35b3461037357604036600319011261037357611fd5612ca5565b611fdd612cbb565b33600090815260008051602061306183398151915260205260409020549091906120099060ff16612d3b565b6001600160a01b03169081151580612476575b1561243d576001600160a01b03168181146124005781600052600e60205260ff604060002054166123be5780600052600d60205260146040600020541015612382576000818152600c60205260409020546001600160a01b03168214612340576000828152600c6020908152604080832080546001600160a01b03191685179055600e8252808320805460ff19166001179055838352600d909152902080546120c490612f16565b90556802b5e3af16b188000060035410156120db57005b6120e3612dde565b5060075466d3c21bcecceda160191b6120fb82612e7b565b11610f0e5761210990612e7b565b60075560018060a01b037f000000000000000000000000000000000000000000000000000000000000000016600080604051602081019063a9059cbb60e01b825285602482015268015af1d78b58c4000060448201526044815261216e606482612c0c565b519082855af13d15612339573d61218481612c43565b906121926040519283612c0c565b81523d6000602083013e5b81612301575b5015610e8d576121b1612dde565b5060075466d3c21bcecceda160191b6121c982612e7b565b11610f0e576000916121db8392612e7b565b60075560405182602082019163a9059cbb60e01b835287602482015268015af1d78b58c40000604482015260448152612215606482612c0c565b51925af13d156122fa573d61222981612c43565b906122376040519283612c0c565b81523d6000602083013e5b816122c2575b5015610e8d57806000526009602052604060002080549068015af1d78b58c400008201809211610e7757556003546802b5e3af16b187ffff198101908111610e77576003557ff1a5b75d05cae9d461d822c73e66e2ae88a31f7edec9922587b8f22689d6f20b602060405168015af1d78b58c400008152a3005b80518015925082156122d7575b505083612248565b8192509060209181010312610373576020015180151581036103735783806122cf565b6060612242565b8051801592508215612316575b5050846121a3565b81925090602091810103126103735760200151801515810361037357848061230e565b606061219d565b60405162461bcd60e51b815260206004820152601a60248201527910da5c98dd5b185c881c9959995c9c985b0819195d1958dd195960321b6044820152606490fd5b60405162461bcd60e51b8152602060048201526014602482015273149959995c9c995c8818d85c081c995858da195960621b6044820152606490fd5b60405162461bcd60e51b815260206004820152601a602482015279416c7265616479207573656420726566657272616c20636f646560301b6044820152606490fd5b60405162461bcd60e51b815260206004820152601560248201527421b0b73737ba103932b332b9103cb7bab939b2b63360591b6044820152606490fd5b60405162461bcd60e51b8152602060048201526011602482015270496e76616c69642061646472657373657360781b6044820152606490fd5b506001600160a01b038116151561201c565b346103735760203660031901126103735760e06001600160a01b036124ab612ca5565b166000908152600f6020908152604080832054601083528184205460088452828520546009855283862054600a865284872054600d87529685902054855160ff9095161515855295840192909252928201929092526060810191909152608081019290925260a0820181905260141160c0820152f35b34610373576020366003190112610373576001600160a01b03612542612ca5565b1660005260126020526020604060002054604051908152f35b3461037357600036600319011261037357602060405168056bc75e2d631000008152f35b34610373576020366003190112610373576001600160a01b036125a0612ca5565b16600052601e602052602060ff604060002054166040519015158152f35b34610373576000366003190112610373576020600254604051908152f35b34610373576020366003190112610373576001600160a01b036125fd612ca5565b166000526017602052602060ff604060002054166040519015158152f35b34610373576000366003190112610373576020601154604051908152f35b3461037357604036600319011261037357612652612cbb565b336001600160a01b0382160361266e57610c4c90600435612f9c565b60405162461bcd60e51b815260206004820152601e60248201527f41433a2063616e206f6e6c792072656e6f756e636520666f722073656c6600006044820152606490fd5b346103735760003660031901126103735760405166d3c21bcecceda160191b8152602090f35b34610373576020366003190112610373576001600160a01b036126fa612ca5565b16600052601a602052602060ff604060002054166040519015158152f35b3461037357600036600319011261037357602060405160148152f35b34610373576020366003190112610373576001600160a01b03612755612ca5565b16600052601b602052602060ff604060002054166040519015158152f35b346103735760403660031901126103735760043561278f612cbb565b9061279981612f02565b6000908152602081815260408083203384529091529020546127bd9060ff16612d3b565b6000818152602081815260408083206001600160a01b038616845290915290205460ff16156127e857005b6000818152602081815260408083206001600160a01b0395909516808452949091528120805460ff19166001179055339291907f2f8788117e7eff1d82e926ec794901d17c78024a50270940304540a733656f0d9080a4005b3461037357602036600319011261037357602061285f600435612f02565b604051908152f35b34610373576000366003190112610373576020604051685150ae84a8cdf000008152f35b34610373576000366003190112610373576020600354604051908152f35b34610373576020366003190112610373576001600160a01b036128ca612ca5565b16600052600f602052602060ff604060002054166040519015158152f35b34610373576020366003190112610373576001600160a01b03612909612ca5565b166000526018602052602060ff604060002054166040519015158152f35b34610373576020366003190112610373576001600160a01b03612948612ca5565b16600052601d602052602060ff604060002054166040519015158152f35b34610373576020366003190112610373576001600160a01b03612987612ca5565b1660005260096020526020604060002054604051908152f35b34610373576000366003190112610373576020600554604051908152f35b34610373576000366003190112610373576020604051680ad78ebc5ac62000008152f35b34610373576040366003190112610373576004356001600160401b03811161037357612a12903690600401612c5e565b3360009081527fad3228b676f7d3cd4284a5443f17f1962b36e491b30a40b2405849e597ba5fb5602052604090205460243590612a519060ff16612d3b565b612a5c811515612d7a565b815160208301908120612a6d612db7565b6020815191012014600014612ab1575060008051602061308183398151915291612a9982600254612ea7565b6002555b612aac60405192839283612eb4565b0390a1005b82518120612abd612dde565b6020815191012014600014612af1575060008051602061308183398151915291612ae982600354612ea7565b600355612a9d565b82518120612afd612e04565b6020815191012014600014612b31575060008051602061308183398151915291612b2982600454612ea7565b600455612a9d565b82518120612b3d612e30565b6020815191012014600014612b71575060008051602061308183398151915291612b6982600554612ea7565b600555612a9d565b82519020612b7d612e56565b6020815191012014600014612bb05760008051602061308183398151915291612ba882600654612ea7565b600655612a9d565b60405162461bcd60e51b815260206004820152601060248201526f496e76616c69642063617465676f727960801b6044820152606490fd5b346103735760003660031901126103735760206040516802b5e3af16b18800008152f35b90601f801991011681019081106001600160401b03821117612c2d57604052565b634e487b7160e01b600052604160045260246000fd5b6001600160401b038111612c2d57601f01601f191660200190565b81601f8201121561037357803590612c7582612c43565b92612c836040519485612c0c565b8284526020838301011161037357816000926020809301838601378301015290565b600435906001600160a01b038216820361037357565b602435906001600160a01b038216820361037357565b34610373576000366003190112610373576020604051678ac7230489e800008152f35b3461037357600036600319011261037357602060405168015af1d78b58c400008152f35b3461037357600036600319011261037357602060405167d02ab486cedc00008152f35b15612d4257565b60405162461bcd60e51b815260206004820152601060248201526f41433a206d697373696e6720726f6c6560801b6044820152606490fd5b15612d8157565b60405162461bcd60e51b815260206004820152600e60248201526d125b9d985b1a5908185b5bdd5b9d60921b6044820152606490fd5b60405190612dc6604083612c0c565b600982526832b23ab1b0ba34b7b760b91b6020830152565b60405190612ded604083612c0c565b60088252671c9959995c9c985b60c21b6020830152565b60405190612e13604083612c0c565b600e82526d757365725f6d696c6573746f6e6560901b6020830152565b60405190612e3f604083612c0c565b60088252671b595c98da185b9d60c21b6020830152565b60405190612e65604083612c0c565b60078252663834b7b732b2b960c91b6020830152565b9068015af1d78b58c400008201809211610e7757565b906801158e460913d000008201809211610e7757565b91908201809211610e7757565b9291906040845280519081604086015260005b828110612eec57505060608160008260209488010152601f8019910116850101930152565b8060208092840101516060828901015201612ec7565b600052600060205260016040600020015490565b6000198114610e775760010190565b91908203918211610e7757565b606090602081526011602082015270496e76616c6964206d696c6573746f6e6560781b60408201520190565b15612f6557565b60405162461bcd60e51b815260206004820152600f60248201526e105b1c9958591e4818db185a5b5959608a1b6044820152606490fd5b6000818152602081815260408083206001600160a01b038616845290915290205460ff16612fc8575050565b6000818152602081815260408083206001600160a01b0395909516808452949091528120805460ff19169055339291907ff6391f5c32d9c69d2a47ea670b442974b53935d1edc7fd64eb21e047a839171b9080a4565b600180540361302e576002600155565b60405162461bcd60e51b815260206004820152600a6024820152697265656e7472616e637960b01b6044820152606490fdfe7d7ffb7a348e1c6a02869081a26547b49160dd3df72d1d75a570eb9b698292ec2c4ba78d47c7f54e2b79ce76bf215dcbe7fa0c49a3892f541b8a0fcf53e239ee29f3845725550c3cfcc495e7acee01a4295a68cabe562338900638c414c07ce1a26469706673582212206b154b8d098f577dcf1d10dba7c5fb6bccb8f7161a3599ca97c1412d3ad043c264736f6c634300081e00332f8788117e7eff1d82e926ec794901d17c78024a50270940304540a733656f0d7d7ffb7a348e1c6a02869081a26547b49160dd3df72d1d75a570eb9b698292ecad3228b676f7d3cd4284a5443f17f1962b36e491b30a40b2405849e597ba5fb5",
  "linkReferences": {},
  "deployedLinkReferences": {}
}