{
  "_format": "hh-sol-artifact-1",
  "contractName": "DAOMock",
  "sourceName": "contracts/mocks/InterfaceMocks.sol",
  "abi": [
    {
      "anonymous": false,
      "inputs": [
        {
          "indexed": false,
          "internalType": "address",
          "name": "admin",
          "type": "address"
        }
      ],
      "name": "AdminSet",
      "type": "event"
    },
    {
      "inputs": [
        {
          "internalType": "address",
          "name": "admin",
          "type": "address"
        }
      ],
      "name": "setAdmin",
      "outputs": [],
      "stateMutability": "nonpayable",
      "type": "function"
    }
  ],
  "bytecode": "0x6080806040523460135760ae908160198239f35b600080fdfe6080806040526004361015601257600080fd5b60003560e01c63704b6c0214602657600080fd5b3460735760203660031901126073576004356001600160a01b03811690819003607357816020917f8fe72c3e0020beb3234e76ae6676fa576fbfcae600af1c4fea44784cf0db329c9352a1005b600080fdfea2646970667358221220a3a46fcb32820557603f7a1f8a5c09c1d38db5d18c40ffebcba9a5d0036948ca64736f6c634300081e0033",
  "linkReferences": {},
  "deployedLinkReferences": {}
}