{"abi":[{"type":"constructor","inputs":[{"name":"_hub","type":"address","internalType":"address"},{"name":"_vfide","type":"address","internalType":"address"},{"name":"_owner","type":"address","internalType":"address"}],"stateMutability":"nonpayable"},{"type":"receive","stateMutability":"payable"},{"type":"function","name":"COOLDOWN","inputs":[],"outputs":[{"name":"","type":"uint64","internalType":"uint64"}],"stateMutability":"view"},{"type":"function","name":"approveRecovery","inputs":[],"outputs":[],"stateMutability":"nonpayable"},{"type":"function","name":"balance","inputs":[],"outputs":[{"name":"","type":"uint256","internalType":"uint256"}],"stateMutability":"view"},{"type":"function","name":"cancelRecovery","inputs":[],"outputs":[],"stateMutability":"nonpayable"},{"type":"function","name":"executeRecovery","inputs":[],"outputs":[],"stateMutability":"nonpayable"},{"type":"function","name":"guardianCount","inputs":[],"outputs":[{"name":"","type":"uint8","internalType":"uint8"}],"stateMutability":"view"},{"type":"function","name":"guardians","inputs":[{"name":"","type":"uint256","internalType":"uint256"}],"outputs":[{"name":"","type":"address","internalType":"address"}],"stateMutability":"view"},{"type":"function","name":"hasApprovedRecovery","inputs":[{"name":"","type":"address","internalType":"address"}],"outputs":[{"name":"","type":"bool","internalType":"bool"}],"stateMutability":"view"},{"type":"function","name":"hub","inputs":[],"outputs":[{"name":"","type":"address","internalType":"address"}],"stateMutability":"view"},{"type":"function","name":"isGuardian","inputs":[{"name":"addr","type":"address","internalType":"address"}],"outputs":[{"name":"","type":"bool","internalType":"bool"}],"stateMutability":"view"},{"type":"function","name":"lastWithdrawTime","inputs":[],"outputs":[{"name":"","type":"uint64","internalType":"uint64"}],"stateMutability":"view"},{"type":"function","name":"owner","inputs":[],"outputs":[{"name":"","type":"address","internalType":"address"}],"stateMutability":"view"},{"type":"function","name":"recoveryApprovals","inputs":[],"outputs":[{"name":"","type":"uint8","internalType":"uint8"}],"stateMutability":"view"},{"type":"function","name":"recoveryCandidate","inputs":[],"outputs":[{"name":"","type":"address","internalType":"address"}],"stateMutability":"view"},{"type":"function","name":"recoveryExpiry","inputs":[],"outputs":[{"name":"","type":"uint64","internalType":"uint64"}],"stateMutability":"view"},{"type":"function","name":"setGuardian","inputs":[{"name":"slot","type":"uint8","internalType":"uint8"},{"name":"guardian","type":"address","internalType":"address"}],"outputs":[],"stateMutability":"nonpayable"},{"type":"function","name":"startRecovery","inputs":[{"name":"candidate","type":"address","internalType":"address"}],"outputs":[],"stateMutability":"nonpayable"},{"type":"function","name":"transfer","inputs":[{"name":"toVault","type":"address","internalType":"address"},{"name":"amount","type":"uint256","internalType":"uint256"}],"outputs":[],"stateMutability":"nonpayable"},{"type":"function","name":"vfideToken","inputs":[],"outputs":[{"name":"","type":"address","internalType":"address"}],"stateMutability":"view"},{"type":"function","name":"withdrawETH","inputs":[{"name":"to","type":"address","internalType":"address payable"},{"name":"amount","type":"uint256","internalType":"uint256"}],"outputs":[],"stateMutability":"nonpayable"},{"type":"event","name":"GuardianSet","inputs":[{"name":"guardian","type":"address","indexed":true,"internalType":"address"},{"name":"slot","type":"uint8","indexed":false,"internalType":"uint8"},{"name":"active","type":"bool","indexed":false,"internalType":"bool"}],"anonymous":false},{"type":"event","name":"OwnerChanged","inputs":[{"name":"newOwner","type":"address","indexed":true,"internalType":"address"}],"anonymous":false},{"type":"event","name":"RecoveryApproved","inputs":[{"name":"guardian","type":"address","indexed":true,"internalType":"address"}],"anonymous":false},{"type":"event","name":"RecoveryExecuted","inputs":[{"name":"newOwner","type":"address","indexed":true,"internalType":"address"}],"anonymous":false},{"type":"event","name":"RecoveryStarted","inputs":[{"name":"candidate","type":"address","indexed":true,"internalType":"address"}],"anonymous":false},{"type":"event","name":"Transfer","inputs":[{"name":"to","type":"address","indexed":true,"internalType":"address"},{"name":"amount","type":"uint256","indexed":false,"internalType":"uint256"}],"anonymous":false},{"type":"error","name":"AlreadyApproved","inputs":[]},{"type":"error","name":"CooldownActive","inputs":[]},{"type":"error","name":"InvalidAddress","inputs":[]},{"type":"error","name":"NoRecovery","inputs":[]},{"type":"error","name":"NotGuardian","inputs":[]},{"type":"error","name":"NotHub","inputs":[]},{"type":"error","name":"NotOwner","inputs":[]},{"type":"error","name":"RecoveryExpired","inputs":[]},{"type":"error","name":"ReentrancyGuardReentrantCall","inputs":[]},{"type":"error","name":"SafeERC20FailedOperation","inputs":[{"name":"token","type":"address","internalType":"address"}]}],"bytecode":{"object":"0x60c0346100d857601f610d4238819003918201601f19168301916001600160401b038311848410176100dc578084926060946040528339810103126100d857610047816100f0565b906100606040610059602084016100f0565b92016100f0565b9160015f5560805260a05260018060a01b03168060018060a01b03196001541617600155604051907fa2ea9883a321a3e97b8266c2b078bfeec6d50c711ed71f874a90d500ae2eaf365f80a2610c3d9081610105823960805181610981015260a051818181610447015281816104a101526105f40152f35b5f80fd5b634e487b7160e01b5f52604160045260245ffd5b51906001600160a01b03821682036100d85756fe608080604052600436101561001c575b50361561001a575f80fd5b005b5f3560e01c9081630b6cb27114610ab5575080630ba234d614610a805780630c68ba2114610a5357806320c5a3e1146109b0578063365a86fc1461096c5780633e720c6e146109405780634782f7791461085857806354387ad7146108385780638da5cb5b146108105780639eb548f3146106e5578063a2724a4d146106c9578063a9059cbb1461054b578063ab23151114610521578063b69ef8a814610476578063b8a71eec14610432578063bd5021af146102c7578063c2dbba8e146102a0578063f560c7341461026a578063fbdd99901461022d5763fcae8d3814610104575f61000f565b34610229575f3660031901126102295761011d33610aeb565b1561021a5760055460081c6001600160a01b03161561020b5767ffffffffffffffff6007541642116101fc57335f52600660205260ff60405f2054166101ed57335f52600660205260405f20600160ff19825416179055600554600260ff8060a81b61018d828560a81c16610b58565b60a81b168160a81b1984161780600555337f47032c9dbd3001ab3b46aa359314884f3f192d251eda3b26f0be4cffd76d39c55f80a260a81c16101590816101de575b506101d657005b61001a610b69565b6002915060ff1610155f6101cf565b63080fc0bd60e11b5f5260045ffd5b63d3c92b0d60e01b5f5260045ffd5b63c993b99360e01b5f5260045ffd5b6377b6878160e11b5f5260045ffd5b5f80fd5b34610229576020366003190112610229576001600160a01b0361024e610ad5565b165f526006602052602060ff60405f2054166040519015158152f35b3461022957602036600319011261022957600435600381101561022957600201546040516001600160a01b039091168152602090f35b34610229575f36600319011261022957602067ffffffffffffffff60075416604051908152f35b34610229576020366003190112610229576102e0610ad5565b6102e933610aeb565b1561021a576001600160a01b0381169081156104235760058054610100600160b01b03191660089290921b610100600160a81b031691909117600160a81b1790554262093a80810190811061040f5767ffffffffffffffff1667ffffffffffffffff1960075416176007555f5b600360ff8216106103c45750335f52600660205260405f20600160ff198254161790557fcd4e9df2b0a742bc5628c20baf55859f839c034aa76a32f600d6b085c4de48295f80a2337f47032c9dbd3001ab3b46aa359314884f3f192d251eda3b26f0be4cffd76d39c55f80a2005b60038110156103fb5760028101546001600160a01b03165f908152600660205260409020805460ff1916905560010160ff16610356565b634e487b7160e01b5f52603260045260245ffd5b634e487b7160e01b5f52601160045260245ffd5b63e6c4247b60e01b5f5260045ffd5b34610229575f366003190112610229576040517f00000000000000000000000000000000000000000000000000000000000000006001600160a01b03168152602090f35b34610229575f366003190112610229576040516370a0823160e01b81523060048201526020816024817f00000000000000000000000000000000000000000000000000000000000000006001600160a01b03165afa8015610516575f906104e3575b602090604051908152f35b506020813d60201161050e575b816104fd60209383610b36565b8101031261022957602090516104d8565b3d91506104f0565b6040513d5f823e3d90fd5b34610229575f36600319011261022957602067ffffffffffffffff60075460401c16604051908152f35b3461022957604036600319011261022957610564610ad5565b60015460243591906001600160a01b031633036106ba57610583610be9565b6001600160a01b031690811561042357600754610e1067ffffffffffffffff8260401c160167ffffffffffffffff811161040f5767ffffffffffffffff1642106106ab5767ffffffffffffffff60401b4260401b169067ffffffffffffffff60401b19161760075560018060a01b037f00000000000000000000000000000000000000000000000000000000000000001660205f6040518281019063a9059cbb60e01b825286602482015285604482015260448152610643606482610b36565b519082855af115610516575f513d6106a25750803b155b610690575060207f69ca02dd4edd7bf0a4abb9ed3b7af3f14778db5d61921c7dc7cd545266326de291604051908152a260015f55005b635274afe760e01b5f5260045260245ffd5b6001141561065a565b63aa9a98df60e01b5f5260045ffd5b6330cd747160e01b5f5260045ffd5b34610229575f366003190112610229576020604051610e108152f35b346102295760403660031901126102295760043560ff8116808203610229576024356001600160a01b0381169290839003610229576001546001600160a01b031633036106ba57600282116104235760038110156103fb5760020180546001600160a01b0316151580610808575b6107de575b80547fb5d1b8ac7ce189fd5a604959b3f88580ad7e6c67d1a12238b1aec90785dc39da9260409290916001600160a01b031615806107d5575b6107b6575b80546001600160a01b0319168517905581519081528315156020820152a2005b60055460ff6107c6818316610b58565b169060ff191617600555610796565b50841515610791565b6005549160ff831691821561040f5760ff199093165f1990920160ff169190911760055590610758565b508215610753565b34610229575f366003190112610229576001546040516001600160a01b039091168152602090f35b34610229575f36600319011261022957602060ff60055416604051908152f35b34610229576040366003190112610229576004356001600160a01b03811690819003610229576001546001600160a01b031633036106ba57610898610be9565b8015610423575f80808093602435905af13d1561093b573d67ffffffffffffffff811161092757604051906108d7601f8201601f191660200183610b36565b81525f60203d92013e5b156108ec5760015f55005b60405162461bcd60e51b8152602060048201526013602482015272115512081d1c985b9cd9995c8819985a5b1959606a1b6044820152606490fd5b634e487b7160e01b5f52604160045260245ffd5b6108e1565b34610229575f3660031901126102295760055460405160089190911c6001600160a01b03168152602090f35b34610229575f366003190112610229576040517f00000000000000000000000000000000000000000000000000000000000000006001600160a01b03168152602090f35b34610229575f36600319011261022957600554600881901c6001600160a01b03161561020b5767ffffffffffffffff6007541642116101fc57600260ff821610610a495760ff8060025b169160a81c1610610a0d5761001a610b69565b60405162461bcd60e51b81526020600482015260146024820152734e6f7420656e6f75676820617070726f76616c7360601b6044820152606490fd5b60ff8060016109fa565b34610229576020366003190112610229576020610a76610a71610ad5565b610aeb565b6040519015158152f35b34610229575f366003190112610229576001546001600160a01b031633036106ba5760058054610100600160b01b0319169055005b34610229575f3660031901126102295760209060ff60055460a81c168152f35b600435906001600160a01b038216820361022957565b6002546001600160a01b0391821691168114908115610b21575b8115610b0f575090565b6004546001600160a01b031614919050565b6003546001600160a01b031681149150610b05565b90601f8019910116810190811067ffffffffffffffff82111761092757604052565b60ff1660ff811461040f5760010190565b60058054610100600160b01b03198116909155600180546001600160a01b03191660089290921c6001600160a01b03169182179055807ffcd2de31341801b7fd80895c780aae50c1505fd674ff1b9b9764c56c633434d65f80a27fa2ea9883a321a3e97b8266c2b078bfeec6d50c711ed71f874a90d500ae2eaf365f80a2565b60025f5414610bf85760025f55565b633ee5aeb560e01b5f5260045ffdfea2646970667358221220f68875393fae4c331cee98c9fe0a94a9511ff2996a477acefad252c4ffea2c2d64736f6c634300081e0033","linkReferences":{}},"methodIdentifiers":{"COOLDOWN()":"a2724a4d","approveRecovery()":"fcae8d38","balance()":"b69ef8a8","cancelRecovery()":"0ba234d6","executeRecovery()":"20c5a3e1","guardianCount()":"54387ad7","guardians(uint256)":"f560c734","hasApprovedRecovery(address)":"fbdd9990","hub()":"365a86fc","isGuardian(address)":"0c68ba21","lastWithdrawTime()":"ab231511","owner()":"8da5cb5b","recoveryApprovals()":"0b6cb271","recoveryCandidate()":"3e720c6e","recoveryExpiry()":"c2dbba8e","setGuardian(uint8,address)":"9eb548f3","startRecovery(address)":"bd5021af","transfer(address,uint256)":"a9059cbb","vfideToken()":"b8a71eec","withdrawETH(address,uint256)":"4782f779"},"id":0}