{"abi":[{"type":"constructor","inputs":[{"name":"_vfide","type":"address","internalType":"address"},{"name":"_ledger","type":"address","internalType":"address"}],"stateMutability":"nonpayable"},{"type":"function","name":"allVaults","inputs":[{"name":"","type":"uint256","internalType":"uint256"}],"outputs":[{"name":"","type":"address","internalType":"address"}],"stateMutability":"view"},{"type":"function","name":"createVault","inputs":[],"outputs":[{"name":"vault","type":"address","internalType":"address"}],"stateMutability":"nonpayable"},{"type":"function","name":"createVaultAndDeposit","inputs":[{"name":"amount","type":"uint256","internalType":"uint256"}],"outputs":[{"name":"vault","type":"address","internalType":"address"}],"stateMutability":"nonpayable"},{"type":"function","name":"deposit","inputs":[{"name":"amount","type":"uint256","internalType":"uint256"}],"outputs":[],"stateMutability":"nonpayable"},{"type":"function","name":"getVault","inputs":[{"name":"user","type":"address","internalType":"address"}],"outputs":[{"name":"","type":"address","internalType":"address"}],"stateMutability":"view"},{"type":"function","name":"getVaults","inputs":[{"name":"offset","type":"uint256","internalType":"uint256"},{"name":"limit","type":"uint256","internalType":"uint256"}],"outputs":[{"name":"","type":"address[]","internalType":"address[]"}],"stateMutability":"view"},{"type":"function","name":"isVault","inputs":[{"name":"addr","type":"address","internalType":"address"}],"outputs":[{"name":"","type":"bool","internalType":"bool"}],"stateMutability":"view"},{"type":"function","name":"owner","inputs":[],"outputs":[{"name":"","type":"address","internalType":"address"}],"stateMutability":"view"},{"type":"function","name":"ownerOf","inputs":[{"name":"","type":"address","internalType":"address"}],"outputs":[{"name":"","type":"address","internalType":"address"}],"stateMutability":"view"},{"type":"function","name":"predictVaultAddress","inputs":[{"name":"user","type":"address","internalType":"address"}],"outputs":[{"name":"","type":"address","internalType":"address"}],"stateMutability":"view"},{"type":"function","name":"proofLedger","inputs":[],"outputs":[{"name":"","type":"address","internalType":"address"}],"stateMutability":"view"},{"type":"function","name":"totalDeposits","inputs":[],"outputs":[{"name":"","type":"uint256","internalType":"uint256"}],"stateMutability":"view"},{"type":"function","name":"totalVaults","inputs":[],"outputs":[{"name":"","type":"uint256","internalType":"uint256"}],"stateMutability":"view"},{"type":"function","name":"vaultOf","inputs":[{"name":"","type":"address","internalType":"address"}],"outputs":[{"name":"","type":"address","internalType":"address"}],"stateMutability":"view"},{"type":"function","name":"vfideToken","inputs":[],"outputs":[{"name":"","type":"address","internalType":"address"}],"stateMutability":"view"},{"type":"event","name":"Deposit","inputs":[{"name":"vault","type":"address","indexed":true,"internalType":"address"},{"name":"amount","type":"uint256","indexed":false,"internalType":"uint256"}],"anonymous":false},{"type":"event","name":"VaultCreated","inputs":[{"name":"user","type":"address","indexed":true,"internalType":"address"},{"name":"vault","type":"address","indexed":true,"internalType":"address"}],"anonymous":false},{"type":"error","name":"AlreadyHasVault","inputs":[]},{"type":"error","name":"NoVault","inputs":[]},{"type":"error","name":"NotVaultOwner","inputs":[]},{"type":"error","name":"ReentrancyGuardReentrantCall","inputs":[]},{"type":"error","name":"SafeERC20FailedOperation","inputs":[{"name":"token","type":"address","internalType":"address"}]}],"bytecode":{"object":"0x60c0346100bc57601f611afd38819003918201601f19168301916001600160401b038311848410176100c05780849260409485528339810103126100bc57610052602061004b836100d4565b92016100d4565b60015f81905560809290925260a05280546001600160a01b03191633179055604051611a1490816100e98239608051818181610149015281816101cc015281816102860152818161060e01526107e6015260a05181818161034901528181610474015261069f0152f35b5f80fd5b634e487b7160e01b5f52604160045260245ffd5b51906001600160a01b03821682036100bc5756fe6080806040526004361015610012575f80fd5b5f905f3560e01c9081630709df451461091e575080630eb9af38146108da57806314afd79e1461089657806329eb7e17146107715780635d12928b14610594578063652b9b411461054c5780637d8820971461052e5780638d654023146105105780638da5cb5b146104e75780639094a91e146104a3578063acbb14151461045e578063b5b8ee7514610225578063b6b55f2514610178578063b8a71eec146101335763b98cca37146100c3575f80fd5b34610130576040366003190112610130576100e2602435600435610ae3565b90604051918291602083016020845282518091526020604085019301915b81811061010e575050500390f35b82516001600160a01b0316845285945060209384019390920191600101610100565b80fd5b50346101305780600319360112610130576040517f00000000000000000000000000000000000000000000000000000000000000006001600160a01b03168152602090f35b503461013057602036600319011261013057600435610195610bb0565b338252600260205260408220546001600160a01b0316908115610216575f5160206119bf5f395f51905f52906020906101f98185337f00000000000000000000000000000000000000000000000000000000000000006001600160a01b0316610bce565b61020581600654610ab2565b600655604051908152a26001815580f35b63a1b86ccf60e01b8352600483fd5b503461013057602036600319011261013057600435610242610bb0565b338252600260205260408220546001600160a01b031661044f5760405160208101906102818161027343338661098f565b03601f1981018352826109af565b5190207f000000000000000000000000000000000000000000000000000000000000000090604051610d39808201908282106001600160401b0383111761043b5782916102d791610c66843985339130906109d0565b039085f58015610430573380855260026020908152604080872080546001600160a01b03199081166001600160a01b03969096169586179091558488526003909252862080549091169091179055918291610331836109f3565b61033c600554610a58565b600555816103e8575b50507f00000000000000000000000000000000000000000000000000000000000000006001600160a01b031690508061039b575b6020838360016040519282335f51602061199f5f395f51905f528380a3558152f35b803b156103e45782604051809263759f86bb60e01b82528183816103c23360048301610a7a565b03925af115610379576103d68380926109af565b6103e0575f610379565b5080fd5b8280fd5b5f5160206119bf5f395f51905f5291602091610412908290869033906001600160a01b0316610bce565b61041e81600654610ab2565b600655604051908152a2805f80610345565b6040513d85823e3d90fd5b634e487b7160e01b87526041600452602487fd5b634f10987560e01b8252600482fd5b50346101305780600319360112610130576040517f00000000000000000000000000000000000000000000000000000000000000006001600160a01b03168152602090f35b503461013057602036600319011261013057600435906004548210156101305760206104ce83610963565b905460405160039290921b1c6001600160a01b03168152f35b50346101305780600319360112610130576001546040516001600160a01b039091168152602090f35b50346101305780600319360112610130576020600554604051908152f35b50346101305780600319360112610130576020600654604051908152f35b5034610130576020366003190112610130576004356001600160a01b038116908190036103e05790602091815260038252604060018060a01b03912054161515604051908152f35b503461073f575f36600319011261073f576105ad610bb0565b335f908152600260205260409020546001600160a01b03166107625760405160208101906105e08161027343338661098f565b519020604051610d39808201908282106001600160401b0383111761074e57829161063591610c66843933907f00000000000000000000000000000000000000000000000000000000000000009030906109d0565b03905ff5801561074357335f81815260026020908152604080832080546001600160a01b03199081166001600160a01b03979097169687179091558584526003909252909120805490911690911790559061068f826109f3565b61069a600554610a58565b6005557f00000000000000000000000000000000000000000000000000000000000000006001600160a01b031691826106f0575b6020925060016040519282335f51602061199f5f395f51905f528380a3558152f35b823b1561073f5760405163759f86bb60e01b81526020935f90829081838161071b3360048301610a7a565b03925af161072a575b506106ce565b6107379192505f906109af565b5f905f610724565b5f80fd5b6040513d5f823e3d90fd5b634e487b7160e01b5f52604160045260245ffd5b634f10987560e01b5f5260045ffd5b3461073f57602036600319011261073f576004356001600160a01b038116810361073f57602090604051828101906107ae8161027343868661098f565b519020604051909161084b610d396107c8868201856109af565b80845285840190610c668239856040519361081a8561080c848201937f000000000000000000000000000000000000000000000000000000000000000030866109d0565b03601f1981018752866109af565b60405194859383850197518091895e840190838201905f8252519283915e01015f815203601f1981018352826109af565b51902090604051918383019160ff60f81b83523060601b602185015260358401526055830152605582526108806075836109af565b905190206040516001600160a01b039091168152f35b3461073f57602036600319011261073f576004356001600160a01b0381169081900361073f575f526003602052602060018060a01b0360405f205416604051908152f35b3461073f57602036600319011261073f576004356001600160a01b0381169081900361073f575f526002602052602060018060a01b0360405f205416604051908152f35b3461073f57602036600319011261073f576004356001600160a01b038116919082900361073f575f918252600260209081526040909220546001600160a01b03168152f35b60045481101561097b5760045f5260205f2001905f90565b634e487b7160e01b5f52603260045260245ffd5b60609190911b6001600160601b0319168152601481019190915260340190565b90601f801991011681019081106001600160401b0382111761074e57604052565b6001600160a01b0391821681529181166020830152909116604082015260600190565b600454600160401b81101561074e576001810160045560045481101561097b5760045f527f8a35acfbc15ff81a39ae7d344fd709f28e8600b4aa8c65c6b64bfe7fe36bd19b0180546001600160a01b0319166001600160a01b03909216919091179055565b5f198114610a665760010190565b634e487b7160e01b5f52601160045260245ffd5b6001600160a01b039091168152604060208201819052600d908201526c1d985d5b1d17d8dc99585d1959609a1b606082015260800190565b91908201809211610a6657565b6001600160401b03811161074e5760051b60200190565b91908203918211610a6657565b906004549081831015610b9557610afa9083610ab2565b90808211610b8d575b50610b0e8282610ad6565b91610b1883610abf565b92610b2660405194856109af565b808452610b35601f1991610abf565b01366020850137805b828110610b4b5750505090565b610b5481610963565b905460039190911b1c6001600160a01b031690610b718382610ad6565b91855183101561097b57602060019360051b8701015201610b3e565b90505f610b03565b505050604051610ba66020826109af565b5f81525f36813790565b60025f5414610bbf5760025f55565b633ee5aeb560e01b5f5260045ffd5b6040516323b872dd60e01b60208083019182526001600160a01b039485166024840152949093166044820152606480820195909552938452925f9190610c156084826109af565b519082855af115610743575f513d610c5c57506001600160a01b0381163b155b610c3c5750565b635274afe760e01b5f9081526001600160a01b0391909116600452602490fd5b60011415610c3556fe60c0346100d857601f610d3938819003918201601f19168301916001600160401b038311848410176100dc578084926060946040528339810103126100d857610047816100f0565b906100606040610059602084016100f0565b92016100f0565b9160015f5560805260a05260018060a01b03168060018060a01b03196001541617600155604051907fa2ea9883a321a3e97b8266c2b078bfeec6d50c711ed71f874a90d500ae2eaf365f80a2610c34908161010582396080518161095a015260a05181818161041d0152818161047701526105e50152f35b5f80fd5b634e487b7160e01b5f52604160045260245ffd5b51906001600160a01b03821682036100d85756fe608080604052600436101561001c575b50361561001a575f80fd5b005b5f3560e01c9081630b6cb27114610a8d575080630ba234d614610a585780630c68ba2114610a2b57806320c5a3e114610989578063365a86fc146109455780633e720c6e146109195780634782f7791461083257806354387ad7146108125780638da5cb5b146107ea5780639eb548f3146106bf578063a2724a4d146106a3578063a9059cbb14610520578063ab231511146104f7578063b69ef8a81461044c578063b8a71eec14610408578063bd5021af146102b2578063c2dbba8e1461028c578063f560c73414610256578063fbdd9990146102195763fcae8d3814610104575f61000f565b34610215575f3660031901126102155761011d33610ac3565b156102065760055460081c6001600160a01b0316156101f7576001600160401b036007541642116101e857335f52600660205260ff60405f2054166101d957335f52600660205260405f20600160ff19825416179055600554600260ff8060a81b61018c828560a81c16610b2f565b60a81b168160a81b1984161780600555335f516020610bdf5f395f51905f525f80a260a81c16101590816101ca575b506101c257005b61001a610b40565b6002915060ff1610155f6101bb565b63080fc0bd60e11b5f5260045ffd5b63d3c92b0d60e01b5f5260045ffd5b63c993b99360e01b5f5260045ffd5b6377b6878160e11b5f5260045ffd5b5f80fd5b34610215576020366003190112610215576001600160a01b0361023a610aad565b165f526006602052602060ff60405f2054166040519015158152f35b3461021557602036600319011261021557600435600381101561021557600201546040516001600160a01b039091168152602090f35b34610215575f3660031901126102155760206001600160401b0360075416604051908152f35b34610215576020366003190112610215576102cb610aad565b6102d433610ac3565b15610206576001600160a01b0381169081156103f95760058054610100600160b01b03191660089290921b610100600160a81b031691909117600160a81b1790554262093a8081019081106103e5576001600160401b03166001600160401b031960075416176007555f5b600360ff82161061039a5750335f52600660205260405f20600160ff198254161790557fcd4e9df2b0a742bc5628c20baf55859f839c034aa76a32f600d6b085c4de48295f80a2335f516020610bdf5f395f51905f525f80a2005b60038110156103d15760028101546001600160a01b03165f908152600660205260409020805460ff1916905560010160ff1661033f565b634e487b7160e01b5f52603260045260245ffd5b634e487b7160e01b5f52601160045260245ffd5b63e6c4247b60e01b5f5260045ffd5b34610215575f366003190112610215576040517f00000000000000000000000000000000000000000000000000000000000000006001600160a01b03168152602090f35b34610215575f366003190112610215576040516370a0823160e01b81523060048201526020816024817f00000000000000000000000000000000000000000000000000000000000000006001600160a01b03165afa80156104ec575f906104b9575b602090604051908152f35b506020813d6020116104e4575b816104d360209383610b0e565b8101031261021557602090516104ae565b3d91506104c6565b6040513d5f823e3d90fd5b34610215575f3660031901126102155760206001600160401b0360075460401c16604051908152f35b3461021557604036600319011261021557610539610aad565b60015460243591906001600160a01b0316330361069457610558610bc0565b6001600160a01b03169081156103f957600754610e106001600160401b038260401c16016001600160401b0381116103e5576001600160401b031642106106855767ffffffffffffffff60401b191642604090811b67ffffffffffffffff60401b16919091176007555163a9059cbb60e01b602082810191825260248301859052604480840185905283527f00000000000000000000000000000000000000000000000000000000000000006001600160a01b03169290915f9161061d606482610b0e565b519082855af1156104ec575f513d61067c5750803b155b61066a575060207f69ca02dd4edd7bf0a4abb9ed3b7af3f14778db5d61921c7dc7cd545266326de291604051908152a260015f55005b635274afe760e01b5f5260045260245ffd5b60011415610634565b63aa9a98df60e01b5f5260045ffd5b6330cd747160e01b5f5260045ffd5b34610215575f366003190112610215576020604051610e108152f35b346102155760403660031901126102155760043560ff8116808203610215576024356001600160a01b0381169290839003610215576001546001600160a01b0316330361069457600282116103f95760038110156103d15760020180546001600160a01b03161515806107e2575b6107b8575b80547fb5d1b8ac7ce189fd5a604959b3f88580ad7e6c67d1a12238b1aec90785dc39da9260409290916001600160a01b031615806107af575b610790575b80546001600160a01b0319168517905581519081528315156020820152a2005b60055460ff6107a0818316610b2f565b169060ff191617600555610770565b5084151561076b565b6005549160ff83169182156103e55760ff199093165f1990920160ff169190911760055590610732565b50821561072d565b34610215575f366003190112610215576001546040516001600160a01b039091168152602090f35b34610215575f36600319011261021557602060ff60055416604051908152f35b34610215576040366003190112610215576004356001600160a01b03811690819003610215576001546001600160a01b0316330361069457610872610bc0565b80156103f9575f80808093602435905af13d15610914573d6001600160401b03811161090057604051906108b0601f8201601f191660200183610b0e565b81525f60203d92013e5b156108c55760015f55005b60405162461bcd60e51b8152602060048201526013602482015272115512081d1c985b9cd9995c8819985a5b1959606a1b6044820152606490fd5b634e487b7160e01b5f52604160045260245ffd5b6108ba565b34610215575f3660031901126102155760055460405160089190911c6001600160a01b03168152602090f35b34610215575f366003190112610215576040517f00000000000000000000000000000000000000000000000000000000000000006001600160a01b03168152602090f35b34610215575f36600319011261021557600554600881901c6001600160a01b0316156101f7576001600160401b036007541642116101e857600260ff821610610a215760ff8060025b169160a81c16106109e55761001a610b40565b60405162461bcd60e51b81526020600482015260146024820152734e6f7420656e6f75676820617070726f76616c7360601b6044820152606490fd5b60ff8060016109d2565b34610215576020366003190112610215576020610a4e610a49610aad565b610ac3565b6040519015158152f35b34610215575f366003190112610215576001546001600160a01b031633036106945760058054610100600160b01b0319169055005b34610215575f3660031901126102155760209060ff60055460a81c168152f35b600435906001600160a01b038216820361021557565b6002546001600160a01b0391821691168114908115610af9575b8115610ae7575090565b6004546001600160a01b031614919050565b6003546001600160a01b031681149150610add565b90601f801991011681019081106001600160401b0382111761090057604052565b60ff1660ff81146103e55760010190565b60058054610100600160b01b03198116909155600180546001600160a01b03191660089290921c6001600160a01b03169182179055807ffcd2de31341801b7fd80895c780aae50c1505fd674ff1b9b9764c56c633434d65f80a27fa2ea9883a321a3e97b8266c2b078bfeec6d50c711ed71f874a90d500ae2eaf365f80a2565b60025f5414610bcf5760025f55565b633ee5aeb560e01b5f5260045ffdfe47032c9dbd3001ab3b46aa359314884f3f192d251eda3b26f0be4cffd76d39c5a2646970667358221220ac86a78b63829dc027fdf5a8f927fb53e9ff93b9948fe9f135799c8d94239de264736f6c634300081e00335d9c31ffa0fecffd7cf379989a3c7af252f0335e0d2a1320b55245912c781f53e1fffcc4923d04b559f4d29a8bfc6cda04eb5b0d3c460751c2402c5c5cc9109ca2646970667358221220637bb52ac4da0810cd52301f2f924203e60c9a250934a4a897838a53e468721b64736f6c634300081e0033","linkReferences":{}},"methodIdentifiers":{"allVaults(uint256)":"9094a91e","createVault()":"5d12928b","createVaultAndDeposit(uint256)":"b5b8ee75","deposit(uint256)":"b6b55f25","getVault(address)":"0eb9af38","getVaults(uint256,uint256)":"b98cca37","isVault(address)":"652b9b41","owner()":"8da5cb5b","ownerOf(address)":"14afd79e","predictVaultAddress(address)":"29eb7e17","proofLedger()":"acbb1415","totalDeposits()":"7d882097","totalVaults()":"8d654023","vaultOf(address)":"0709df45","vfideToken()":"b8a71eec"},"id":39}