{"abi":[{"type":"function","name":"balanceOf","inputs":[{"name":"","type":"address","internalType":"address"}],"outputs":[{"name":"","type":"uint256","internalType":"uint256"}],"stateMutability":"pure"},{"type":"function","name":"decimals","inputs":[],"outputs":[{"name":"","type":"uint8","internalType":"uint8"}],"stateMutability":"view"},{"type":"function","name":"name","inputs":[],"outputs":[{"name":"","type":"string","internalType":"string"}],"stateMutability":"view"},{"type":"function","name":"symbol","inputs":[],"outputs":[{"name":"","type":"string","internalType":"string"}],"stateMutability":"view"},{"type":"function","name":"transfer","inputs":[{"name":"","type":"address","internalType":"address"},{"name":"","type":"uint256","internalType":"uint256"}],"outputs":[{"name":"","type":"bool","internalType":"bool"}],"stateMutability":"pure"},{"type":"function","name":"transferFrom","inputs":[{"name":"","type":"address","internalType":"address"},{"name":"","type":"address","internalType":"address"},{"name":"","type":"uint256","internalType":"uint256"}],"outputs":[{"name":"","type":"bool","internalType":"bool"}],"stateMutability":"pure"}],"bytecode":{"object":"0x60806040523461010d576100135f54610111565b601f81116100c6575b507f426164546f6b656e0000000000000000000000000000000000000000000000105f5560015461004c90610111565b601f811161007e575b60066210905160ea1b016001556002805460ff1916601217905560405161035a908161014a8239f35b60015f52601f0160051c7fb10e2d527612073b26eecdfd717e6a320cf44b4afac2b0732d9fcbe2b7fa0cf6908101905b8181106100bb5750610055565b5f81556001016100ae565b5f8052601f0160051c7f290decd9548b62a8d60345a988386fc84ba6bc95484008f6362f93160ef3e563908101905b818110610102575061001c565b5f81556001016100f5565b5f80fd5b90600182811c9216801561013f575b602083101461012b57565b634e487b7160e01b5f52602260045260245ffd5b91607f169161012056fe60806040526004361015610011575f80fd5b5f3560e01c806306fdde03146101fc57806323b872dd146101da578063313ce567146101ba57806370a08231146101a157806395d89b41146100835763a9059cbb1461005b575f80fd5b3461007f57604036600319011261007f576100746102f8565b5060206040515f8152f35b5f80fd5b3461007f575f36600319011261007f576040515f6001548060011c90600181168015610197575b602083108114610183578285529081156101675750600114610111575b50819003601f01601f191681019067ffffffffffffffff8211818310176100fd57604082905281906100f990826102ce565b0390f35b634e487b7160e01b5f52604160045260245ffd5b60015f9081529091507fb10e2d527612073b26eecdfd717e6a320cf44b4afac2b0732d9fcbe2b7fa0cf65b828210610151575060209150820101826100c7565b600181602092548385880101520191019061013c565b90506020925060ff191682840152151560051b820101826100c7565b634e487b7160e01b5f52602260045260245ffd5b91607f16916100aa565b3461007f57602036600319011261007f576100746102f8565b3461007f575f36600319011261007f57602060ff60025416604051908152f35b3461007f57606036600319011261007f576101f36102f8565b5061007461030e565b3461007f575f36600319011261007f576040515f5f548060011c906001811680156102c4575b6020831081146101835782855290811561016757506001146102705750819003601f01601f191681019067ffffffffffffffff8211818310176100fd57604082905281906100f990826102ce565b5f8080529091507f290decd9548b62a8d60345a988386fc84ba6bc95484008f6362f93160ef3e5635b8282106102ae575060209150820101826100c7565b6001816020925483858801015201910190610299565b91607f1691610222565b602060409281835280519182918282860152018484015e5f828201840152601f01601f1916010190565b600435906001600160a01b038216820361007f57565b602435906001600160a01b038216820361007f5756fea2646970667358221220bf8d80479389a9662fe8b1fbc75f022103116af63207ecbfb1eb0e435365d6dd64736f6c634300081e0033","linkReferences":{}},"methodIdentifiers":{"balanceOf(address)":"70a08231","decimals()":"313ce567","name()":"06fdde03","symbol()":"95d89b41","transfer(address,uint256)":"a9059cbb","transferFrom(address,address,uint256)":"23b872dd"},"id":73}