{
  "_format": "hh-sol-artifact-1",
  "contractName": "DAOTimelock",
  "sourceName": "contracts/DAOTimelock.sol",
  "abi": [
    {
      "inputs": [
        {
          "internalType": "address",
          "name": "initialOwner",
          "type": "address"
        }
      ],
      "stateMutability": "nonpayable",
      "type": "constructor"
    },
    {
      "inputs": [],
      "name": "BadDelay",
      "type": "error"
    },
    {
      "inputs": [],
      "name": "NotExecutor",
      "type": "error"
    },
    {
      "inputs": [],
      "name": "NotGov",
      "type": "error"
    },
    {
      "inputs": [],
      "name": "NotProposer",
      "type": "error"
    },
    {
      "inputs": [],
      "name": "OpDone",
      "type": "error"
    },
    {
      "inputs": [],
      "name": "OpMissing",
      "type": "error"
    },
    {
      "inputs": [],
      "name": "OpNotReady",
      "type": "error"
    },
    {
      "inputs": [],
      "name": "Paused",
      "type": "error"
    },
    {
      "inputs": [],
      "name": "PredecessorIncomplete",
      "type": "error"
    },
    {
      "inputs": [],
      "name": "SeerRejected",
      "type": "error"
    },
    {
      "anonymous": false,
      "inputs": [
        {
          "indexed": true,
          "internalType": "address",
          "name": "breaker",
          "type": "address"
        }
      ],
      "name": "BreakerSet",
      "type": "event"
    },
    {
      "anonymous": false,
      "inputs": [
        {
          "indexed": true,
          "internalType": "address",
          "name": "dao",
          "type": "address"
        }
      ],
      "name": "DAOUpdated",
      "type": "event"
    },
    {
      "anonymous": false,
      "inputs": [
        {
          "indexed": true,
          "internalType": "address",
          "name": "who",
          "type": "address"
        },
        {
          "indexed": false,
          "internalType": "bool",
          "name": "on",
          "type": "bool"
        }
      ],
      "name": "ExecutorSet",
      "type": "event"
    },
    {
      "anonymous": false,
      "inputs": [
        {
          "indexed": true,
          "internalType": "address",
          "name": "dao",
          "type": "address"
        },
        {
          "indexed": false,
          "internalType": "uint64",
          "name": "at",
          "type": "uint64"
        }
      ],
      "name": "HandoverFinalized",
      "type": "event"
    },
    {
      "anonymous": false,
      "inputs": [
        {
          "indexed": false,
          "internalType": "uint64",
          "name": "newMinDelay",
          "type": "uint64"
        }
      ],
      "name": "MinDelayUpdated",
      "type": "event"
    },
    {
      "anonymous": false,
      "inputs": [
        {
          "indexed": true,
          "internalType": "bytes32",
          "name": "id",
          "type": "bytes32"
        },
        {
          "indexed": true,
          "internalType": "address",
          "name": "by",
          "type": "address"
        }
      ],
      "name": "OperationCanceled",
      "type": "event"
    },
    {
      "anonymous": false,
      "inputs": [
        {
          "indexed": true,
          "internalType": "bytes32",
          "name": "id",
          "type": "bytes32"
        },
        {
          "indexed": true,
          "internalType": "address",
          "name": "executor",
          "type": "address"
        },
        {
          "indexed": false,
          "internalType": "address",
          "name": "target",
          "type": "address"
        },
        {
          "indexed": false,
          "internalType": "uint256",
          "name": "value",
          "type": "uint256"
        },
        {
          "indexed": false,
          "internalType": "bytes",
          "name": "data",
          "type": "bytes"
        }
      ],
      "name": "OperationExecuted",
      "type": "event"
    },
    {
      "anonymous": false,
      "inputs": [
        {
          "indexed": true,
          "internalType": "bytes32",
          "name": "id",
          "type": "bytes32"
        },
        {
          "indexed": true,
          "internalType": "address",
          "name": "proposer",
          "type": "address"
        },
        {
          "indexed": false,
          "internalType": "address",
          "name": "target",
          "type": "address"
        },
        {
          "indexed": false,
          "internalType": "uint256",
          "name": "value",
          "type": "uint256"
        },
        {
          "indexed": false,
          "internalType": "bytes",
          "name": "data",
          "type": "bytes"
        },
        {
          "indexed": false,
          "internalType": "bytes32",
          "name": "predecessor",
          "type": "bytes32"
        },
        {
          "indexed": false,
          "internalType": "bytes32",
          "name": "salt",
          "type": "bytes32"
        },
        {
          "indexed": false,
          "internalType": "uint64",
          "name": "readyAt",
          "type": "uint64"
        }
      ],
      "name": "OperationQueued",
      "type": "event"
    },
    {
      "anonymous": false,
      "inputs": [
        {
          "indexed": true,
          "internalType": "address",
          "name": "previousOwner",
          "type": "address"
        },
        {
          "indexed": true,
          "internalType": "address",
          "name": "newOwner",
          "type": "address"
        }
      ],
      "name": "OwnershipTransferStarted",
      "type": "event"
    },
    {
      "anonymous": false,
      "inputs": [
        {
          "indexed": true,
          "internalType": "address",
          "name": "previousOwner",
          "type": "address"
        },
        {
          "indexed": true,
          "internalType": "address",
          "name": "newOwner",
          "type": "address"
        }
      ],
      "name": "OwnershipTransferred",
      "type": "event"
    },
    {
      "anonymous": false,
      "inputs": [
        {
          "indexed": true,
          "internalType": "address",
          "name": "proof",
          "type": "address"
        }
      ],
      "name": "ProofSinkSet",
      "type": "event"
    },
    {
      "anonymous": false,
      "inputs": [
        {
          "indexed": true,
          "internalType": "address",
          "name": "who",
          "type": "address"
        },
        {
          "indexed": false,
          "internalType": "bool",
          "name": "on",
          "type": "bool"
        }
      ],
      "name": "ProposerSet",
      "type": "event"
    },
    {
      "anonymous": false,
      "inputs": [
        {
          "indexed": false,
          "internalType": "bool",
          "name": "queueGate",
          "type": "bool"
        },
        {
          "indexed": false,
          "internalType": "bool",
          "name": "executeGate",
          "type": "bool"
        },
        {
          "indexed": false,
          "internalType": "uint16",
          "name": "minProp",
          "type": "uint16"
        },
        {
          "indexed": false,
          "internalType": "uint16",
          "name": "minDAO",
          "type": "uint16"
        }
      ],
      "name": "SeerGatesUpdated",
      "type": "event"
    },
    {
      "anonymous": false,
      "inputs": [
        {
          "indexed": true,
          "internalType": "address",
          "name": "seer",
          "type": "address"
        }
      ],
      "name": "SeerSet",
      "type": "event"
    },
    {
      "stateMutability": "payable",
      "type": "fallback"
    },
    {
      "inputs": [],
      "name": "acceptOwnership",
      "outputs": [],
      "stateMutability": "nonpayable",
      "type": "function"
    },
    {
      "inputs": [],
      "name": "breaker",
      "outputs": [
        {
          "internalType": "contract IEmergencyBreaker",
          "name": "",
          "type": "address"
        }
      ],
      "stateMutability": "view",
      "type": "function"
    },
    {
      "inputs": [],
      "name": "canFinalizeHandover",
      "outputs": [
        {
          "internalType": "bool",
          "name": "",
          "type": "bool"
        }
      ],
      "stateMutability": "view",
      "type": "function"
    },
    {
      "inputs": [
        {
          "internalType": "address",
          "name": "target",
          "type": "address"
        },
        {
          "internalType": "uint256",
          "name": "value",
          "type": "uint256"
        },
        {
          "internalType": "bytes",
          "name": "data",
          "type": "bytes"
        },
        {
          "internalType": "bytes32",
          "name": "predecessor",
          "type": "bytes32"
        },
        {
          "internalType": "bytes32",
          "name": "salt",
          "type": "bytes32"
        }
      ],
      "name": "cancel",
      "outputs": [],
      "stateMutability": "nonpayable",
      "type": "function"
    },
    {
      "inputs": [],
      "name": "dao",
      "outputs": [
        {
          "internalType": "address",
          "name": "",
          "type": "address"
        }
      ],
      "stateMutability": "view",
      "type": "function"
    },
    {
      "inputs": [],
      "name": "enforceSeerForExecute",
      "outputs": [
        {
          "internalType": "bool",
          "name": "",
          "type": "bool"
        }
      ],
      "stateMutability": "view",
      "type": "function"
    },
    {
      "inputs": [],
      "name": "enforceSeerForQueue",
      "outputs": [
        {
          "internalType": "bool",
          "name": "",
          "type": "bool"
        }
      ],
      "stateMutability": "view",
      "type": "function"
    },
    {
      "inputs": [
        {
          "internalType": "address",
          "name": "target",
          "type": "address"
        },
        {
          "internalType": "uint256",
          "name": "value",
          "type": "uint256"
        },
        {
          "internalType": "bytes",
          "name": "data",
          "type": "bytes"
        },
        {
          "internalType": "bytes32",
          "name": "predecessor",
          "type": "bytes32"
        },
        {
          "internalType": "bytes32",
          "name": "salt",
          "type": "bytes32"
        }
      ],
      "name": "execute",
      "outputs": [
        {
          "internalType": "bytes",
          "name": "returndata",
          "type": "bytes"
        }
      ],
      "stateMutability": "payable",
      "type": "function"
    },
    {
      "inputs": [],
      "name": "finalizeHandover",
      "outputs": [],
      "stateMutability": "nonpayable",
      "type": "function"
    },
    {
      "inputs": [],
      "name": "handoverDelay",
      "outputs": [
        {
          "internalType": "uint64",
          "name": "",
          "type": "uint64"
        }
      ],
      "stateMutability": "view",
      "type": "function"
    },
    {
      "inputs": [],
      "name": "handoverEligibleAt",
      "outputs": [
        {
          "internalType": "uint64",
          "name": "",
          "type": "uint64"
        }
      ],
      "stateMutability": "view",
      "type": "function"
    },
    {
      "inputs": [],
      "name": "handoverFinalized",
      "outputs": [
        {
          "internalType": "bool",
          "name": "",
          "type": "bool"
        }
      ],
      "stateMutability": "view",
      "type": "function"
    },
    {
      "inputs": [],
      "name": "handoverStart",
      "outputs": [
        {
          "internalType": "uint64",
          "name": "",
          "type": "uint64"
        }
      ],
      "stateMutability": "view",
      "type": "function"
    },
    {
      "inputs": [
        {
          "internalType": "address",
          "name": "target",
          "type": "address"
        },
        {
          "internalType": "uint256",
          "name": "value",
          "type": "uint256"
        },
        {
          "internalType": "bytes",
          "name": "data",
          "type": "bytes"
        },
        {
          "internalType": "bytes32",
          "name": "predecessor",
          "type": "bytes32"
        },
        {
          "internalType": "bytes32",
          "name": "salt",
          "type": "bytes32"
        }
      ],
      "name": "hashOperation",
      "outputs": [
        {
          "internalType": "bytes32",
          "name": "",
          "type": "bytes32"
        }
      ],
      "stateMutability": "pure",
      "type": "function"
    },
    {
      "inputs": [
        {
          "internalType": "address",
          "name": "",
          "type": "address"
        }
      ],
      "name": "isExecutor",
      "outputs": [
        {
          "internalType": "bool",
          "name": "",
          "type": "bool"
        }
      ],
      "stateMutability": "view",
      "type": "function"
    },
    {
      "inputs": [
        {
          "internalType": "bytes32",
          "name": "id",
          "type": "bytes32"
        }
      ],
      "name": "isOperationDone",
      "outputs": [
        {
          "internalType": "bool",
          "name": "",
          "type": "bool"
        }
      ],
      "stateMutability": "view",
      "type": "function"
    },
    {
      "inputs": [
        {
          "internalType": "bytes32",
          "name": "id",
          "type": "bytes32"
        }
      ],
      "name": "isOperationPending",
      "outputs": [
        {
          "internalType": "bool",
          "name": "",
          "type": "bool"
        }
      ],
      "stateMutability": "view",
      "type": "function"
    },
    {
      "inputs": [
        {
          "internalType": "bytes32",
          "name": "id",
          "type": "bytes32"
        }
      ],
      "name": "isOperationReady",
      "outputs": [
        {
          "internalType": "bool",
          "name": "",
          "type": "bool"
        }
      ],
      "stateMutability": "view",
      "type": "function"
    },
    {
      "inputs": [
        {
          "internalType": "address",
          "name": "",
          "type": "address"
        }
      ],
      "name": "isProposer",
      "outputs": [
        {
          "internalType": "bool",
          "name": "",
          "type": "bool"
        }
      ],
      "stateMutability": "view",
      "type": "function"
    },
    {
      "inputs": [],
      "name": "maxDelay",
      "outputs": [
        {
          "internalType": "uint64",
          "name": "",
          "type": "uint64"
        }
      ],
      "stateMutability": "view",
      "type": "function"
    },
    {
      "inputs": [],
      "name": "minDAOScore",
      "outputs": [
        {
          "internalType": "uint16",
          "name": "",
          "type": "uint16"
        }
      ],
      "stateMutability": "view",
      "type": "function"
    },
    {
      "inputs": [],
      "name": "minDelay",
      "outputs": [
        {
          "internalType": "uint64",
          "name": "",
          "type": "uint64"
        }
      ],
      "stateMutability": "view",
      "type": "function"
    },
    {
      "inputs": [],
      "name": "minScoreProposer",
      "outputs": [
        {
          "internalType": "uint16",
          "name": "",
          "type": "uint16"
        }
      ],
      "stateMutability": "view",
      "type": "function"
    },
    {
      "inputs": [
        {
          "internalType": "bytes32",
          "name": "",
          "type": "bytes32"
        }
      ],
      "name": "ops",
      "outputs": [
        {
          "internalType": "uint64",
          "name": "readyAt",
          "type": "uint64"
        },
        {
          "internalType": "bytes32",
          "name": "predecessor",
          "type": "bytes32"
        },
        {
          "internalType": "address",
          "name": "proposer",
          "type": "address"
        },
        {
          "internalType": "bool",
          "name": "done",
          "type": "bool"
        }
      ],
      "stateMutability": "view",
      "type": "function"
    },
    {
      "inputs": [],
      "name": "owner",
      "outputs": [
        {
          "internalType": "address",
          "name": "",
          "type": "address"
        }
      ],
      "stateMutability": "view",
      "type": "function"
    },
    {
      "inputs": [],
      "name": "pendingOwner",
      "outputs": [
        {
          "internalType": "address",
          "name": "",
          "type": "address"
        }
      ],
      "stateMutability": "view",
      "type": "function"
    },
    {
      "inputs": [],
      "name": "proof",
      "outputs": [
        {
          "internalType": "contract IProofLedger",
          "name": "",
          "type": "address"
        }
      ],
      "stateMutability": "view",
      "type": "function"
    },
    {
      "inputs": [
        {
          "internalType": "address",
          "name": "target",
          "type": "address"
        },
        {
          "internalType": "uint256",
          "name": "value",
          "type": "uint256"
        },
        {
          "internalType": "bytes",
          "name": "data",
          "type": "bytes"
        },
        {
          "internalType": "bytes32",
          "name": "predecessor",
          "type": "bytes32"
        },
        {
          "internalType": "bytes32",
          "name": "salt",
          "type": "bytes32"
        },
        {
          "internalType": "uint64",
          "name": "delay",
          "type": "uint64"
        }
      ],
      "name": "queue",
      "outputs": [
        {
          "internalType": "bytes32",
          "name": "id",
          "type": "bytes32"
        }
      ],
      "stateMutability": "nonpayable",
      "type": "function"
    },
    {
      "inputs": [],
      "name": "renounceOwnership",
      "outputs": [],
      "stateMutability": "nonpayable",
      "type": "function"
    },
    {
      "inputs": [],
      "name": "seer",
      "outputs": [
        {
          "internalType": "contract ISeerView",
          "name": "",
          "type": "address"
        }
      ],
      "stateMutability": "view",
      "type": "function"
    },
    {
      "inputs": [
        {
          "internalType": "address",
          "name": "b_",
          "type": "address"
        }
      ],
      "name": "setBreaker",
      "outputs": [],
      "stateMutability": "nonpayable",
      "type": "function"
    },
    {
      "inputs": [
        {
          "internalType": "address",
          "name": "dao_",
          "type": "address"
        }
      ],
      "name": "setDAO",
      "outputs": [],
      "stateMutability": "nonpayable",
      "type": "function"
    },
    {
      "inputs": [
        {
          "internalType": "address",
          "name": "who",
          "type": "address"
        },
        {
          "internalType": "bool",
          "name": "on",
          "type": "bool"
        }
      ],
      "name": "setExecutor",
      "outputs": [],
      "stateMutability": "nonpayable",
      "type": "function"
    },
    {
      "inputs": [
        {
          "internalType": "uint64",
          "name": "delaySecs",
          "type": "uint64"
        }
      ],
      "name": "setHandoverDelay",
      "outputs": [],
      "stateMutability": "nonpayable",
      "type": "function"
    },
    {
      "inputs": [
        {
          "internalType": "uint64",
          "name": "startTs",
          "type": "uint64"
        }
      ],
      "name": "setHandoverStart",
      "outputs": [],
      "stateMutability": "nonpayable",
      "type": "function"
    },
    {
      "inputs": [
        {
          "internalType": "uint64",
          "name": "newDelay",
          "type": "uint64"
        }
      ],
      "name": "setMinDelay",
      "outputs": [],
      "stateMutability": "nonpayable",
      "type": "function"
    },
    {
      "inputs": [
        {
          "internalType": "address",
          "name": "p_",
          "type": "address"
        }
      ],
      "name": "setProofSink",
      "outputs": [],
      "stateMutability": "nonpayable",
      "type": "function"
    },
    {
      "inputs": [
        {
          "internalType": "address",
          "name": "who",
          "type": "address"
        },
        {
          "internalType": "bool",
          "name": "on",
          "type": "bool"
        }
      ],
      "name": "setProposer",
      "outputs": [],
      "stateMutability": "nonpayable",
      "type": "function"
    },
    {
      "inputs": [
        {
          "internalType": "address",
          "name": "s_",
          "type": "address"
        }
      ],
      "name": "setSeer",
      "outputs": [],
      "stateMutability": "nonpayable",
      "type": "function"
    },
    {
      "inputs": [
        {
          "internalType": "bool",
          "name": "gateQueue",
          "type": "bool"
        },
        {
          "internalType": "bool",
          "name": "gateExecute",
          "type": "bool"
        },
        {
          "internalType": "uint16",
          "name": "minProp",
          "type": "uint16"
        },
        {
          "internalType": "uint16",
          "name": "minDAO_",
          "type": "uint16"
        }
      ],
      "name": "setSeerGates",
      "outputs": [],
      "stateMutability": "nonpayable",
      "type": "function"
    },
    {
      "inputs": [
        {
          "internalType": "address",
          "name": "newOwner",
          "type": "address"
        }
      ],
      "name": "transferOwnership",
      "outputs": [],
      "stateMutability": "nonpayable",
      "type": "function"
    },
    {
      "stateMutability": "payable",
      "type": "receive"
    }
  ],
  "bytecode": "0x60803461012157601f61281638819003918201601f19168301916001600160401b038311848410176101265780849260209460405283398101031261012157516001600160a01b038116808203610121576100593361013c565b600160025560068054600160a01b600160e01b0319166102a360a81b179055600780546d0101025802580000000000278d006001600160701b0319909116179055600a8054600160401b600160801b0319166aed4e000000000000000000179055156100f2576100c89061013c565b600a80546001600160401b031916426001600160401b031617905560405161268490816101928239f35b60405162461bcd60e51b815260206004820152600760248201526606f776e65723d360cc1b6044820152606490fd5b600080fd5b634e487b7160e01b600052604160045260246000fd5b600180546001600160a01b0319908116909155600080546001600160a01b03938416928116831782559192909116907f8be0079c531659141344cd1fd0a4f28419497f9722a3daafe3b4186f6b6457e09080a356fe60806040526004361015610010575b005b60003560e01c8063041ddc8c146102a05780630f41e0d21461029b578063134008d31461029657806313bc9f20146102915780631e1bff3f1461028c578063230edf57146102875780632ab0f529146102825780632ace80491461027d5780632b942be5146102785780632d55ea39146102735780633a60b45c1461026e5780634162169f146102695780634882c47c1461026457806348ce23841461025f57806348f692791461025a5780635715e49114610255578063584b153e146102505780636327873b1461024b578063692a34f414610246578063715018a61461024157806374ec29a01461023c57806379ba5097146102375780637d7b1659146102325780638065657f1461022d5780638da5cb5b146102285780638dd1cd1314610223578063af79312d1461021e578063c63c4e9b14610219578063d7cd2f0014610214578063debfda301461020f578063e071c1c01461020a578063e30c397814610205578063e4c57bd714610200578063e7251a41146101fb578063e73a914c146101f6578063e9ed9b64146101f1578063ed49d2f8146101ec578063f2fde38b146101e7578063f498de75146101e2578063faf924cf146101dd5763ff4fd62f0361000e576118a0565b611877565b6117c4565b611750565b611729565b611679565b6115bd565b6114ca565b61143d565b611414565b611387565b611348565b611323565b6112f9565b611127565b6110f4565b6110cb565b6110a4565b610f8e565b610ec3565b610e84565b610e1f565b610dbd565b610d91565b610d14565b610cee565b610cc9565b610c3c565b610c12565b610be9565b610bc3565b610b9a565b610906565b6108e1565b6108aa565b610844565b61074c565b610685565b6103e1565b6102cb565b346102c65760003660031901126102c657602060ff60075460601c166040519015158152f35b600080fd5b346102c65760003660031901126102c6576005546040516001600160a01b039091168152602090f35b600435906001600160a01b03821682036102c657565b9181601f840112156102c6578235916001600160401b0383116102c657602083818601950101116102c657565b60a06003198201126102c6576004356001600160a01b03811681036102c6579160243591604435906001600160401b0382116102c6576103799160040161030a565b90916064359060843590565b60005b8381106103985750506000910152565b8181015183820152602001610388565b906020916103c181518092818552858086019101610385565b601f01601f1916010190565b9060206103de9281815201906103a8565b90565b6103ea36610337565b6103f695929495611ead565b6103fe611f01565b60005461041b906001600160a01b03165b6001600160a01b031690565b33148015610668575b8015610647575b15610636576104469161043d33611ff1565b85858886611e5a565b61045a81600052600b602052604060002090565b9261046c84546001600160401b031690565b6001600160401b0381161561062557600285019461048f865460ff9060a01c1690565b6106145760010154806105ce575b506001600160401b031642106105bd576105b99561058d61054861059b936104f0986105096105a3996104f66000808c6040518b816104dd818b8d6119e8565b03925af16104e9611a68565b9d8e6121c3565b90611a98565b805460ff60a01b1916600160a01b179055565b87877f720626a7d42e86dff8de6ff4bc88f4063e04614d4ecd876bbf9ef56ef3a5fe426040518061053e86888c339885611ae9565b0390a33691611b0d565b8051602091820120604080519283019687526001600160a01b0390971696820196909652606081019290925260808201949094523360a08201529192829060c0820190565b03601f198101835282611a2c565b519020612273565b6105ad6001600255565b604051918291826103cd565b0390f35b635875096b60e01b60005260046000fd5b6105f560026105ea6105f993600052600b602052604060002090565b015460a01c60ff1690565b1590565b610603573861049d565b63c406a13d60e01b60005260046000fd5b630deda19360e11b60005260046000fd5b630679241f60e31b60005260046000fd5b6361968ebb60e11b60005260046000fd5b50336000908152600960205260409020610663905b5460ff1690565b61042b565b5060035461067e906001600160a01b031661040f565b3314610424565b346102c65760203660031901126102c657600435600052600b6020526105b960606106f860406000206040516106ba81611a0c565b81546001600160401b031680825260018301546020830152600292909201546001600160a01b038116604083015260a01c60ff161515930183905290565b6001600160401b03811615159182610739575b5081610725575b5060405190151581529081906020820190565b6001600160401b0316905042101538610712565b1591503861070b565b801515036102c657565b346102c65760403660031901126102c6576107656102f4565b6024359061077282610742565b6000546001600160a01b031633141580610803575b6107f2576001600160a01b0316907f278b09622564dd3991fe7744514513d64ea2c8ed2b2b9ec1150ad964fde80a99906020906107c5841515611b44565b83600052600982526107e78160406000209060ff801983541691151516179055565b6040519015158152a2005b63b577c1f760e01b60005260046000fd5b506003546001600160a01b0316331415610787565b600435906001600160401b03821682036102c657565b60a435906001600160401b03821682036102c657565b346102c65760203660031901126102c65761085d610818565b6000546001600160a01b031633141580610895575b6107f2576001600160401b03166001600160401b0319600a541617600a55600080f35b506003546001600160a01b0316331415610872565b346102c65760203660031901126102c657600435600052600b602052602060ff60026040600020015460a01c166040519015158152f35b346102c65760003660031901126102c65760206108fc611bae565b6040519015158152f35b346102c65760c03660031901126102c65761091f6102f4565b6024356044356001600160401b0381116102c65761094190369060040161030a565b909290606435916084359161095461082e565b9561095d611ead565b610965611f01565b60005461097a906001600160a01b031661040f565b33148015610b7d575b8015610b5f575b15610b4e57610998336124cd565b60065460a01c6001600160401b03166001600160401b03166001600160401b03881610156109c590611d1c565b6109d96001600160a01b0384161515611d54565b6109e7848684848a88611e5a565b966109fc88600052600b602052604060002090565b908154610a0f906001600160401b031690565b6001600160401b031615610a2290611d8b565b610a35906001600160401b034216611dc3565b815467ffffffffffffffff19166001600160401b03909116178155600181018690556002810180546001600160a01b03191633178155805460ff60a01b19169055546001600160401b03169186886040518087878a8c888a3399610a999688611df9565b037f4aa74d3a7c6b429033e67576b18691c51bc18a37a569038be4e383c037853a4b91a33690610ac892611b0d565b8051602091820120604080519283018981526001600160a01b0395909516908301526060820196909652608081019590955260a085019390935260c08401919091526001600160401b0390911660e080840191909152825290610b2d61010082611a2c565b519020610b39906122e2565b610b436001600255565b604051908152602090f35b637d1b73b960e01b60005260046000fd5b50336000908152600860205260409020610b789061065c565b61098a565b50600354610b93906001600160a01b031661040f565b3314610983565b346102c65760003660031901126102c6576004546040516001600160a01b039091168152602090f35b346102c65760003660031901126102c657602060ff60075460681c166040519015158152f35b346102c65760003660031901126102c6576003546040516001600160a01b039091168152602090f35b346102c65760003660031901126102c65760206001600160401b03600a5460401c16604051908152f35b346102c65760203660031901126102c657610c556102f4565b6000546001600160a01b031633141580610cb4575b6107f257600680546001600160a01b0319166001600160a01b039290921691821790557f672081dadde50e814bb62a7286e6c0cad07071fa40747b022649c85346bdbc84600080a2005b506003546001600160a01b0316331415610c6a565b346102c65760003660031901126102c657602061ffff60075460401c16604051908152f35b346102c65760003660031901126102c657602060ff600a5460801c166040519015158152f35b346102c65760203660031901126102c657600435600052600b6020526105b96060610d4960406000206040516106ba81611a0c565b6001600160401b03811615159182610d88575b5081610d75575060405190151581529081906020820190565b6001600160401b03169050421038610712565b15915038610d5c565b346102c65760003660031901126102c6576020610dac611e3f565b6001600160401b0360405191168152f35b346102c65760203660031901126102c657600435600052600b6020526080604060002060ff6001600160401b03825416916002600182015491015490604051938452602084015260018060a01b038116604084015260a01c1615156060820152f35b346102c65760003660031901126102c657610e386125f6565b600180546001600160a01b0319908116909155600080549182168155906001600160a01b03167f8be0079c531659141344cd1fd0a4f28419497f9722a3daafe3b4186f6b6457e08280a3005b346102c65760203660031901126102c6576001600160a01b03610ea56102f4565b166000526008602052602060ff604060002054166040519015158152f35b346102c65760003660031901126102c657600154336001600160a01b0390911603610f3757600180546001600160a01b03199081169091556000805433928116831782556001600160a01b0316907f8be0079c531659141344cd1fd0a4f28419497f9722a3daafe3b4186f6b6457e09080a3005b60405162461bcd60e51b815260206004820152602960248201527f4f776e61626c6532537465703a2063616c6c6572206973206e6f7420746865206044820152683732bb9037bbb732b960b91b6064820152608490fd5b346102c65760203660031901126102c657610fa7610818565b6000546001600160a01b03163314158061108f575b6107f2576001600160401b038116610e10811090811561107a575b5061106a576006805467ffffffffffffffff60a01b191660a083901b67ffffffffffffffff60a01b161790556040516001600160401b038216815261000e91907fd6e691a00d5c4296c14d58d4bc6fd145797657356f10ca16c68e0139dad3333d90602090a16040516110628161058d6020820194859190916001600160401b036020820193169052565b519020612338565b6209bfa560e51b60005260046000fd5b90506001600160401b03600754161038610fd7565b506003546001600160a01b0316331415610fbc565b346102c65760206110c36110b736610337565b94939093929192611e5a565b604051908152f35b346102c65760003660031901126102c6576000546040516001600160a01b039091168152602090f35b346102c65760003660031901126102c65760206001600160401b03600a5416604051908152f35b61ffff8116036102c657565b346102c65760803660031901126102c65760043561114481610742565b6024359061115182610742565b60443561115d8161111b565b6064356111698161111b565b6000546001600160a01b0316331415806112e4575b6107f2576103e861ffff83161115806112d4575b156112a3576007805460ff60601b191684151560601b60ff60601b1617905561000e9361129b9161058d906007805460ff60681b191684151560681b60ff60681b161790556007805469ffff00000000000000001916604087901b69ffff0000000000000000161790556007805461ffff60501b1916605083901b61ffff60501b16179055604080518715158152841515602082015261ffff8088169282019290925290821660608201527fc4d9938778f7535203b03fcb857b7c1b32cb82bd856acf55e7726ce9fd4585a99080608081010390a1604051948593602085019788929361ffff809296956060946080870198151587521515602087015216604085015216910152565b51902061238e565b60405162461bcd60e51b81526020600482015260096024820152680e6c6dee4ca7cdac2f60bb1b6044820152606490fd5b506103e861ffff82161115611192565b506003546001600160a01b031633141561117e565b346102c65760003660031901126102c65760206001600160401b0360065460a01c16604051908152f35b346102c65760003660031901126102c657602061ffff60075460501c16604051908152f35b346102c65760203660031901126102c6576001600160a01b036113696102f4565b166000526009602052602060ff604060002054166040519015158152f35b346102c65760203660031901126102c6576113a06102f4565b6000546001600160a01b0316331415806113ff575b6107f257600480546001600160a01b0319166001600160a01b039290921691821790557fc33c1a95c902d772578a793cd3d42b7d0a418863633ff3be7853c55a4d95388a600080a2005b506003546001600160a01b03163314156113b5565b346102c65760003660031901126102c6576001546040516001600160a01b039091168152602090f35b346102c65760203660031901126102c6576114566102f4565b6000546001600160a01b0316331415806114b5575b6107f257600580546001600160a01b0319166001600160a01b039290921691821790557fba232e444ed39bb946759480b350063ea9926d008864ec84e64c61308c51e9e9600080a2005b506003546001600160a01b031633141561146b565b346102c65760003660031901126102c6576114e3611ead565b6114eb611bae565b1561158957600a805460ff60801b1916600160801b179055600354604051426001600160401b0316815261157f916001600160a01b03169081907fa1e429b283375f4003e1306adebea2f726d0a0a16fdb4c8843a3dfa431562ea490602090a2604080516001600160a01b0390921660208301908152439183019190915290611577816060810161058d565b5190206123e4565b61000e6001600255565b60405162461bcd60e51b815260206004820152600c60248201526b6e6f7420656c696769626c6560a01b6044820152606490fd5b346102c65760203660031901126102c6576115d66102f4565b6000546001600160a01b031633141580611664575b6107f2576001600160a01b0316801561163757600380546001600160a01b031916821790557f395c0f5a57accc3f0c20646b402f0845c448f3e4ac4a2ec56a3eaf26d15bf79a600080a2005b60405162461bcd60e51b8152602060048201526005602482015264064616f3d360dc1b6044820152606490fd5b506003546001600160a01b03163314156115eb565b346102c65760403660031901126102c6576116926102f4565b6024359061169f82610742565b6000546001600160a01b031633141580611714575b6107f2576001600160a01b0316907ffc7858ed770f3bd9c19525fe1de2c94c7d048128ade2219d82b32d888a45a7d2906020906116f2841515611b44565b83600052600882526107e78160406000209060ff801983541691151516179055565b506003546001600160a01b03163314156116b4565b346102c65760003660031901126102c65760206001600160401b0360075416604051908152f35b346102c65760203660031901126102c6576117696102f4565b6117716125f6565b60018060a01b0316806bffffffffffffffffffffffff60a01b600154161760015560018060a01b03600054167f38d16b8cac22d99fc7c124b9cd0de2d3fa1faef420bfe791d8c362d765e22700600080a3005b346102c65760203660031901126102c6576117dd610818565b6000546001600160a01b031633141580611862575b6107f25762093a806001600160401b038216106118355767ffffffffffffffff60401b600a549160401b169067ffffffffffffffff60401b191617600a55600080f35b60405162461bcd60e51b81526020600482015260056024820152641cda1bdc9d60da1b6044820152606490fd5b506003546001600160a01b03163314156117f2565b346102c65760003660031901126102c6576006546040516001600160a01b039091168152602090f35b346102c6576118c56118b136610337565b946118c0949194939293611ead565b611e5a565b6118d981600052600b602052604060002090565b6001600160401b036118f282546001600160401b031690565b1615610625576002015460a081901c60ff166106145760005461191d906001600160a01b031661040f565b33141590816119c7575b816119ab575b506107f2578061195f61194d61157f93600052600b602052604060002090565b60026000918281558260018201550155565b60405133827f90d6f2ffd2a3f2468b94e36aa476b8e0e21785ee09a06196c422e5d09d42a3ab600080a3602081019182523360408201526119a3816060810161058d565b51902061243a565b6119be91506001600160a01b031661040f565b3314153861192d565b6003549091506119df906001600160a01b031661040f565b33141590611927565b908092918237016000815290565b634e487b7160e01b600052604160045260246000fd5b608081019081106001600160401b03821117611a2757604052565b6119f6565b90601f801991011681019081106001600160401b03821117611a2757604052565b6001600160401b038111611a2757601f01601f191660200190565b3d15611a93573d90611a7982611a4d565b91611a876040519384611a2c565b82523d6000602084013e565b606090565b15611aa05750565b60405162461bcd60e51b815260206004820152908190611ac49060248301906103a8565b0390fd5b908060209392818452848401376000828201840152601f01601f1916010190565b6103de949260609260018060a01b0316825260208201528160408201520191611ac8565b929192611b1982611a4d565b91611b276040519384611a2c565b8294818452818301116102c6578281602093846000960137010152565b15611b4b57565b60405162461bcd60e51b8152602060048201526005602482015264077686f3d360dc1b6044820152606490fd5b908160209103126102c657516103de81610742565b6040513d6000823e3d90fd5b908160209103126102c657516103de8161111b565b600a5460801c60ff16611d1757611bd2611bc6611e3f565b6001600160401b031690565b4210611d1757600454611bed906001600160a01b031661040f565b6001600160a01b03811615611d11576003546001600160a01b0316908115611cdb5760405163fbac395160e01b81526001600160a01b0383166004820152602081602481855afa908115611cd657600091611ce2575b50611cdb5760405163776f384360e01b81526001600160a01b03929092166004830152602090829060249082905afa908115611cd657600091611ca7575b5061ffff611ca0611c9960075461ffff9060501c1690565b61ffff1690565b9116101590565b611cc9915060203d602011611ccf575b611cc18183611a2c565b810190611b99565b38611c81565b503d611cb7565b611b8d565b5050600090565b611d04915060203d602011611d0a575b611cfc8183611a2c565b810190611b78565b38611c43565b503d611cf2565b50600190565b600090565b15611d2357565b60405162461bcd60e51b81526020600482015260096024820152683232b630bc9e36b4b760b91b6044820152606490fd5b15611d5b57565b60405162461bcd60e51b815260206004820152600860248201526707461726765743d360c41b6044820152606490fd5b15611d9257565b60405162461bcd60e51b81526020600482015260096024820152686f702065786973747360b81b6044820152606490fd5b906001600160401b03809116911601906001600160401b038211611de357565b634e487b7160e01b600052601160045260246000fd5b9591926001600160401b039460a096999894611e2e936001808a1b03168952602089015260c0604089015260c0880191611ac8565b966060860152608085015216910152565b6103de600a546001600160401b03808260401c169116611dc3565b949291611e6a9194923691611b0d565b6020815191012060405193602085019560018060a01b0316865260408501526060840152608083015260a082015260a08152611ea760c082611a2c565b51902090565b6002805414611ebc5760028055565b60405162461bcd60e51b815260206004820152601f60248201527f5265656e7472616e637947756172643a207265656e7472616e742063616c6c006044820152606490fd5b6005546001600160a01b03168015159081611f2f575b50611f1e57565b6313d0ff5960e31b60005260046000fd5b604051631da4712b60e21b81529150602090829060049082905afa908115611cd657600091611f60575b5038611f17565b611f79915060203d602011611d0a57611cfc8183611a2c565b38611f59565b15611f8657565b60405162461bcd60e51b815260206004820152600b60248201526a19185bc8189b1bd8dad95960aa1b6044820152606490fd5b15611fc057565b60405162461bcd60e51b815260206004820152600960248201526864616f2073636f726560b81b6044820152606490fd5b60075460ff606882901c161580156121a4575b6121a05760045461204e90602090612024906001600160a01b031661040f565b60405163fbac395160e01b81526001600160a01b0390951660048601529391829081906024820190565b0381865afa908115611cd657600091612181575b50612170576003546001600160a01b0316918261207e57505050565b60405163fbac395160e01b81526001600160a01b038416600482015292602084602481855afa918215611cd6576120c46020936120f196600091612153575b5015611f7f565b60405163776f384360e01b81526001600160a01b0390921660048301529093849190829081906024820190565b03915afa908115611cd65761212492600092612126575b5061ffff9061211b9060501c8216611c99565b91161015611fb9565b565b61ffff919250611c9961214a61211b9260203d602011611ccf57611cc18183611a2c565b93925050612108565b61216a9150853d8711611d0a57611cfc8183611a2c565b386120bd565b6322bdd6d160e11b60005260046000fd5b61219a915060203d602011611d0a57611cfc8183611a2c565b38612062565b5050565b506004546001600160a01b03906121bc90821661040f565b1615612004565b604481511061223f5760048101518101602481019190602090829003126102c6576024810151906001600160401b0382116102c65701816043820112156102c657602481015161221281611a4d565b926122206040519485611a2c565b818452604483830101116102c6576103de916044602085019101610385565b5060405161224e604082611a2c565b60158152741d1a5b595b1bd8dace8818d85b1b0819985a5b1959605a1b602082015290565b6006546000916001600160a01b03909116908161228f57505050565b813b156122de57604051631250d57560e31b815230600482015260d6602482015260448101919091529082908290818381606481015b03925af16122d1575050565b816122db91611a2c565b50565b8280fd5b6006546000916001600160a01b0390911690816122fe57505050565b813b156122de57604051631250d57560e31b815230600482015260d5602482015260448101919091529082908290818381606481016122c5565b6006546000916001600160a01b03909116908161235457505050565b813b156122de57604051631250d57560e31b815230600482015260d2602482015260448101919091529082908290818381606481016122c5565b6006546000916001600160a01b0390911690816123aa57505050565b813b156122de57604051631250d57560e31b815230600482015260d3602482015260448101919091529082908290818381606481016122c5565b6006546000916001600160a01b03909116908161240057505050565b813b156122de57604051631250d57560e31b815230600482015260d4602482015260448101919091529082908290818381606481016122c5565b6006546000916001600160a01b03909116908161245657505050565b813b156122de57604051631250d57560e31b815230600482015260d7602482015260448101919091529082908290818381606481016122c5565b1561249757565b60405162461bcd60e51b815260206004820152600e60248201526d70726f706f7365722073636f726560901b6044820152606490fd5b60075460ff606082901c161580156125d7575b6121a0576004546124f9906001600160a01b031661040f565b60405163fbac395160e01b81526001600160a01b0384166004820152602081602481855afa908115611cd6576000916125b8575b506121705760405163776f384360e01b81526001600160a01b03939093166004840152602090839060249082905afa908115611cd6576121249260009261258b575b5061ffff906125829060401c8216611c99565b91161015612490565b61ffff919250611c996125af6125829260203d602011611ccf57611cc18183611a2c565b9392505061256f565b6125d1915060203d602011611d0a57611cfc8183611a2c565b3861252d565b506004546001600160a01b03906125ef90821661040f565b16156124e0565b6000546001600160a01b0316330361260a57565b606460405162461bcd60e51b815260206004820152602060248201527f4f776e61626c653a2063616c6c6572206973206e6f7420746865206f776e65726044820152fdfea2646970667358221220d453ab02330519eb43047776245f0aaec9f11fd5e06b8482d6a1b8dc04d158d764736f6c634300081e0033",
  "linkReferences": {},
  "deployedLinkReferences": {}
}