{"abi":[{"type":"constructor","inputs":[{"name":"_seer","type":"address","internalType":"address"},{"name":"_vfide","type":"address","internalType":"address"},{"name":"_dao","type":"address","internalType":"address"}],"stateMutability":"nonpayable"},{"type":"function","name":"BASE_FEE_BP","inputs":[],"outputs":[{"name":"","type":"uint256","internalType":"uint256"}],"stateMutability":"view"},{"type":"function","name":"CHALLENGE_PERIOD","inputs":[],"outputs":[{"name":"","type":"uint256","internalType":"uint256"}],"stateMutability":"view"},{"type":"function","name":"FEE_BASIS","inputs":[],"outputs":[{"name":"","type":"uint256","internalType":"uint256"}],"stateMutability":"view"},{"type":"function","name":"HIGH_TRUST_FEE_BP","inputs":[],"outputs":[{"name":"","type":"uint256","internalType":"uint256"}],"stateMutability":"view"},{"type":"function","name":"INSTANT_THRESHOLD","inputs":[],"outputs":[{"name":"","type":"uint256","internalType":"uint256"}],"stateMutability":"view"},{"type":"function","name":"INTENT_VALIDITY","inputs":[],"outputs":[{"name":"","type":"uint256","internalType":"uint256"}],"stateMutability":"view"},{"type":"function","name":"MIN_RELAYER_STAKE","inputs":[],"outputs":[{"name":"","type":"uint256","internalType":"uint256"}],"stateMutability":"view"},{"type":"function","name":"MIN_SCORE_FOR_FAST","inputs":[],"outputs":[{"name":"","type":"uint256","internalType":"uint256"}],"stateMutability":"view"},{"type":"function","name":"MIN_SCORE_FOR_INSTANT","inputs":[],"outputs":[{"name":"","type":"uint256","internalType":"uint256"}],"stateMutability":"view"},{"type":"function","name":"cancelIntent","inputs":[{"name":"intentHash","type":"bytes32","internalType":"bytes32"}],"outputs":[],"stateMutability":"nonpayable"},{"type":"function","name":"chainConfigs","inputs":[{"name":"","type":"uint256","internalType":"uint256"}],"outputs":[{"name":"supported","type":"bool","internalType":"bool"},{"name":"minConfirmations","type":"uint256","internalType":"uint256"},{"name":"maxAmount","type":"uint256","internalType":"uint256"},{"name":"remoteContract","type":"address","internalType":"address"}],"stateMutability":"view"},{"type":"function","name":"chainId","inputs":[],"outputs":[{"name":"","type":"uint256","internalType":"uint256"}],"stateMutability":"view"},{"type":"function","name":"challengeFulfillment","inputs":[{"name":"intentHash","type":"bytes32","internalType":"bytes32"},{"name":"fraudProof","type":"bytes","internalType":"bytes"}],"outputs":[],"stateMutability":"nonpayable"},{"type":"function","name":"completeIntent","inputs":[{"name":"intentHash","type":"bytes32","internalType":"bytes32"}],"outputs":[],"stateMutability":"nonpayable"},{"type":"function","name":"configureChain","inputs":[{"name":"_chainId","type":"uint256","internalType":"uint256"},{"name":"supported","type":"bool","internalType":"bool"},{"name":"minConfirmations","type":"uint256","internalType":"uint256"},{"name":"maxAmount","type":"uint256","internalType":"uint256"},{"name":"remoteContract","type":"address","internalType":"address"}],"outputs":[],"stateMutability":"nonpayable"},{"type":"function","name":"createIntent","inputs":[{"name":"recipient","type":"address","internalType":"address"},{"name":"amount","type":"uint256","internalType":"uint256"},{"name":"destChain","type":"uint256","internalType":"uint256"}],"outputs":[{"name":"intentHash","type":"bytes32","internalType":"bytes32"}],"stateMutability":"nonpayable"},{"type":"function","name":"dao","inputs":[],"outputs":[{"name":"","type":"address","internalType":"address"}],"stateMutability":"view"},{"type":"function","name":"estimateFee","inputs":[{"name":"user","type":"address","internalType":"address"},{"name":"amount","type":"uint256","internalType":"uint256"}],"outputs":[{"name":"fee","type":"uint256","internalType":"uint256"},{"name":"tier","type":"string","internalType":"string"}],"stateMutability":"view"},{"type":"function","name":"executeIntent","inputs":[{"name":"intentHash","type":"bytes32","internalType":"bytes32"},{"name":"sender","type":"address","internalType":"address"},{"name":"recipient","type":"address","internalType":"address"},{"name":"amount","type":"uint256","internalType":"uint256"},{"name":"sourceChain","type":"uint256","internalType":"uint256"}],"outputs":[],"stateMutability":"nonpayable"},{"type":"function","name":"fulfillIntent","inputs":[{"name":"intentHash","type":"bytes32","internalType":"bytes32"},{"name":"destTxProof","type":"bytes","internalType":"bytes"}],"outputs":[],"stateMutability":"nonpayable"},{"type":"function","name":"getBridgeStats","inputs":[],"outputs":[{"name":"_totalIntents","type":"uint256","internalType":"uint256"},{"name":"_totalVolume","type":"uint256","internalType":"uint256"},{"name":"_totalFees","type":"uint256","internalType":"uint256"},{"name":"_relayerCount","type":"uint256","internalType":"uint256"}],"stateMutability":"view"},{"type":"function","name":"getIntent","inputs":[{"name":"intentHash","type":"bytes32","internalType":"bytes32"}],"outputs":[{"name":"sender","type":"address","internalType":"address"},{"name":"recipient","type":"address","internalType":"address"},{"name":"amount","type":"uint256","internalType":"uint256"},{"name":"destChain","type":"uint256","internalType":"uint256"},{"name":"status","type":"uint8","internalType":"enum CrossChainTrustBridge.IntentStatus"},{"name":"expiresAt","type":"uint256","internalType":"uint256"},{"name":"fulfiller","type":"address","internalType":"address"}],"stateMutability":"view"},{"type":"function","name":"getRelayerInfo","inputs":[{"name":"addr","type":"address","internalType":"address"}],"outputs":[{"name":"stakedAmount","type":"uint256","internalType":"uint256"},{"name":"totalFulfilled","type":"uint256","internalType":"uint256"},{"name":"relayerVolume","type":"uint256","internalType":"uint256"},{"name":"successRate","type":"uint256","internalType":"uint256"},{"name":"active","type":"bool","internalType":"bool"}],"stateMutability":"view"},{"type":"function","name":"getUserIntents","inputs":[{"name":"user","type":"address","internalType":"address"}],"outputs":[{"name":"","type":"bytes32[]","internalType":"bytes32[]"}],"stateMutability":"view"},{"type":"function","name":"intents","inputs":[{"name":"","type":"bytes32","internalType":"bytes32"}],"outputs":[{"name":"sender","type":"address","internalType":"address"},{"name":"recipient","type":"address","internalType":"address"},{"name":"amount","type":"uint256","internalType":"uint256"},{"name":"sourceChain","type":"uint256","internalType":"uint256"},{"name":"destChain","type":"uint256","internalType":"uint256"},{"name":"createdAt","type":"uint256","internalType":"uint256"},{"name":"expiresAt","type":"uint256","internalType":"uint256"},{"name":"fee","type":"uint256","internalType":"uint256"},{"name":"intentHash","type":"bytes32","internalType":"bytes32"},{"name":"status","type":"uint8","internalType":"enum CrossChainTrustBridge.IntentStatus"},{"name":"fulfiller","type":"address","internalType":"address"},{"name":"fulfilledAt","type":"uint256","internalType":"uint256"}],"stateMutability":"view"},{"type":"function","name":"registerRelayer","inputs":[{"name":"stakeAmount","type":"uint256","internalType":"uint256"}],"outputs":[],"stateMutability":"nonpayable"},{"type":"function","name":"relayerList","inputs":[{"name":"","type":"uint256","internalType":"uint256"}],"outputs":[{"name":"","type":"address","internalType":"address"}],"stateMutability":"view"},{"type":"function","name":"relayers","inputs":[{"name":"","type":"address","internalType":"address"}],"outputs":[{"name":"stakedAmount","type":"uint256","internalType":"uint256"},{"name":"totalFulfilled","type":"uint256","internalType":"uint256"},{"name":"totalVolume","type":"uint256","internalType":"uint256"},{"name":"successRate","type":"uint256","internalType":"uint256"},{"name":"avgFulfillTime","type":"uint256","internalType":"uint256"},{"name":"active","type":"bool","internalType":"bool"},{"name":"slashCount","type":"uint256","internalType":"uint256"}],"stateMutability":"view"},{"type":"function","name":"resolveChallengedIntent","inputs":[{"name":"intentHash","type":"bytes32","internalType":"bytes32"},{"name":"refundUser","type":"bool","internalType":"bool"}],"outputs":[],"stateMutability":"nonpayable"},{"type":"function","name":"seer","inputs":[],"outputs":[{"name":"","type":"address","internalType":"contract ISeerCrossChain"}],"stateMutability":"view"},{"type":"function","name":"slashRelayer","inputs":[{"name":"relayer","type":"address","internalType":"address"},{"name":"amount","type":"uint256","internalType":"uint256"},{"name":"reason","type":"string","internalType":"string"}],"outputs":[],"stateMutability":"nonpayable"},{"type":"function","name":"totalFees","inputs":[],"outputs":[{"name":"","type":"uint256","internalType":"uint256"}],"stateMutability":"view"},{"type":"function","name":"totalIntents","inputs":[],"outputs":[{"name":"","type":"uint256","internalType":"uint256"}],"stateMutability":"view"},{"type":"function","name":"totalVolume","inputs":[],"outputs":[{"name":"","type":"uint256","internalType":"uint256"}],"stateMutability":"view"},{"type":"function","name":"userIntents","inputs":[{"name":"","type":"address","internalType":"address"},{"name":"","type":"uint256","internalType":"uint256"}],"outputs":[{"name":"","type":"bytes32","internalType":"bytes32"}],"stateMutability":"view"},{"type":"function","name":"vfide","inputs":[],"outputs":[{"name":"","type":"address","internalType":"contract IERC20Simple"}],"stateMutability":"view"},{"type":"event","name":"ChainConfigured","inputs":[{"name":"chainId","type":"uint256","indexed":true,"internalType":"uint256"},{"name":"remoteContract","type":"address","indexed":false,"internalType":"address"}],"anonymous":false},{"type":"event","name":"CrossChainMessage","inputs":[{"name":"intentHash","type":"bytes32","indexed":true,"internalType":"bytes32"},{"name":"destChain","type":"uint256","indexed":true,"internalType":"uint256"},{"name":"sender","type":"address","indexed":false,"internalType":"address"},{"name":"recipient","type":"address","indexed":false,"internalType":"address"},{"name":"amount","type":"uint256","indexed":false,"internalType":"uint256"},{"name":"data","type":"bytes","indexed":false,"internalType":"bytes"}],"anonymous":false},{"type":"event","name":"IntentChallenged","inputs":[{"name":"intentHash","type":"bytes32","indexed":true,"internalType":"bytes32"},{"name":"challenger","type":"address","indexed":false,"internalType":"address"}],"anonymous":false},{"type":"event","name":"IntentCompleted","inputs":[{"name":"intentHash","type":"bytes32","indexed":true,"internalType":"bytes32"}],"anonymous":false},{"type":"event","name":"IntentCreated","inputs":[{"name":"intentHash","type":"bytes32","indexed":true,"internalType":"bytes32"},{"name":"sender","type":"address","indexed":true,"internalType":"address"},{"name":"recipient","type":"address","indexed":true,"internalType":"address"},{"name":"amount","type":"uint256","indexed":false,"internalType":"uint256"},{"name":"destChain","type":"uint256","indexed":false,"internalType":"uint256"},{"name":"fee","type":"uint256","indexed":false,"internalType":"uint256"}],"anonymous":false},{"type":"event","name":"IntentFulfilled","inputs":[{"name":"intentHash","type":"bytes32","indexed":true,"internalType":"bytes32"},{"name":"relayer","type":"address","indexed":true,"internalType":"address"},{"name":"timestamp","type":"uint256","indexed":false,"internalType":"uint256"}],"anonymous":false},{"type":"event","name":"IntentRefunded","inputs":[{"name":"intentHash","type":"bytes32","indexed":true,"internalType":"bytes32"}],"anonymous":false},{"type":"event","name":"RelayerRegistered","inputs":[{"name":"relayer","type":"address","indexed":true,"internalType":"address"},{"name":"stake","type":"uint256","indexed":false,"internalType":"uint256"}],"anonymous":false},{"type":"event","name":"RelayerSlashed","inputs":[{"name":"relayer","type":"address","indexed":true,"internalType":"address"},{"name":"amount","type":"uint256","indexed":false,"internalType":"uint256"},{"name":"reason","type":"string","indexed":false,"internalType":"string"}],"anonymous":false},{"type":"error","name":"CCT_ChainNotSupported","inputs":[]},{"type":"error","name":"CCT_CooldownActive","inputs":[]},{"type":"error","name":"CCT_InsufficientScore","inputs":[]},{"type":"error","name":"CCT_InsufficientStake","inputs":[]},{"type":"error","name":"CCT_IntentAlreadyFulfilled","inputs":[]},{"type":"error","name":"CCT_IntentExpired","inputs":[]},{"type":"error","name":"CCT_InvalidProof","inputs":[]},{"type":"error","name":"CCT_NotDAO","inputs":[]},{"type":"error","name":"CCT_NotRelayer","inputs":[]}],"bytecode":{"object":"0x60a0346100e257601f611b7138819003918201601f19168301916001600160401b0383118484101761010a578084926060946040528339810103126100e2576100478161011e565b9061006060406100596020840161011e565b920161011e565b916001600160a01b0316801515806100f8575b806100e6575b156100e2575f80546001600160a01b03199081169290921790556001805482166001600160a01b03938416179055600280549091169290911691909117905546608052604051611a3e9081610133823960805181818161089f01528181610aa90152610f270152f35b5f80fd5b506001600160a01b0383161515610079565b506001600160a01b0382161515610073565b634e487b7160e01b5f52604160045260245ffd5b51906001600160a01b03821682036100e25756fe6080806040526004361015610012575f80fd5b5f3560e01c90816306bfd20b1461182c57508063078524f0146118085780630ee6b51e146117ec57806311162be7146117aa57806313114a9d1461178d57806317e33f151461163a5780632165cbb71461160457806322e8f7d6146115e95780632d55ea39146115c25780633d38de8b146114435780634162169f1461141b57806351bfbc32146113c15780635300f841146113435780635f0253d6146113275780635f81a57c1461130a57806372c8ae3b146112e25780637781398514610e9f57806382f2a30214610e165780638686ebcc14610dfa57806389c9c3ae14610da25780638b637c6d14610cb15780639021578a14610beb578063917f494a14610acc5780639a8a059214610a925780639f7a1d0014610996578063a742e6c014610973578063b3e3fdb214610821578063bbc3f09314610618578063c3a079ed146105fc578063c5896a5a146105e0578063d06a54f4146105c3578063d55f960d1461048f578063eff33ad014610474578063f13c46aa146103e8578063f5855d16146102605763fa3209b2146101a8575f80fd5b3461025c57602036600319011261025c576001600160a01b036101c9611892565b165f52600660205260405f20604051806020835491828152019081935f5260205f20905f5b8181106102465750505081610204910382611967565b604051918291602083019060208452518091526040830191905f5b81811061022d575050500390f35b825184528594506020938401939092019160010161021f565b82548452602090930192600192830192016101ee565b5f80fd5b3461025c57602036600319011261025c5760043569021e19e0c9bab240000081106103d957335f52600460205260405f20600581019060ff8254161561037e575b80612710926102b385600394546119bc565b8255805460ff19166001908117909155910191909155546040516323b872dd60e01b81523360048201523060248201526044810183905290602090829060649082905f906001600160a01b03165af1908115610373575f91610344575b501561025c576040519081527f193a79fd17752d71da6eaba98e99be182b006d3e3178dd96b26a52f905e23e7d60203392a2005b610366915060203d60201161036c575b61035e8183611967565b8101906119a4565b82610310565b503d610354565b6040513d5f823e3d90fd5b60075490600160401b8210156103c557612710926103a4836001600395016007556118a8565b815490851b9033821b9160018060a01b03901b1916179055925090506102a1565b634e487b7160e01b5f52604160045260245ffd5b630b72c34560e31b5f5260045ffd5b3461025c57602036600319011261025c576004355f52600360205260e060405f2060018060a01b038154169060018060a01b036001820154166002820154600483015490600660098501549401549260405195865260208601526040850152606084015261045c6080840160ff841661194b565b60a083015260081c6001600160a01b031660c0820152f35b3461025c575f36600319011261025c576020604051600a8152f35b3461025c57602036600319011261025c576004355f81815260036020526040902080546001600160a01b031633036105b457600981019060ff82541660068110156105a057610591576105346020915f93600560ff1982541617905561050a60018060a01b03600154169160076002820154910154906119bc565b60405163a9059cbb60e01b8152336004820152602481019190915293849283919082906044820190565b03925af1908115610373575f91610572575b501561025c577f201e800184023ab964576ffafc7bd0bf44fa36634c07cc62b7069419a75249455f80a2005b61058b915060203d60201161036c5761035e8183611967565b82610546565b636f83d8bf60e01b5f5260045ffd5b634e487b7160e01b5f52602160045260245ffd5b6309633e2160e31b5f5260045ffd5b3461025c575f36600319011261025c576020600854604051908152f35b3461025c575f36600319011261025c576020604051611b588152f35b3461025c575f36600319011261025c5760206040516102588152f35b3461025c57604036600319011261025c57610631611958565b6002546001600160a01b031633036105b4576004355f52600360205260405f20600981019160ff83541660068110156105a057600203610812571561078a57815460ff19166005178255600154815460028301805460079094015490936106e2936020936001600160a01b03908116939116916106ae91906119bc565b60405163a9059cbb60e01b81526001600160a01b0390931660048401526024830152909283919082905f9082906044820190565b03925af1908115610373575f9161076b575b501561025c57905460081c6001600160a01b03165f9081526004602052604090209054815460039291610731919081811115610765575080611989565b8155018054605a810290808204605a149015171561075157606490049055005b634e487b7160e01b5f52601160045260245ffd5b90611989565b610784915060203d60201161036c5761035e8183611967565b836106f4565b815460ff19166003179182905560015460079091015460405163a9059cbb60e01b815260089390931c6001600160a01b0390811660048501526024840191909152602091839116815f81604481015b03925af1908115610373575f916107f3575b501561025c57005b61080c915060203d60201161036c5761035e8183611967565b816107eb565b63026bd7c360e11b5f5260045ffd5b3461025c5760a036600319011261025c576024356001600160a01b038116906004359082900361025c576044356001600160a01b0381169290919083830361025c5760643593335f52600460205260ff600560405f2001541615610964576040519060208201928352604082015284606082015260843560808201527f000000000000000000000000000000000000000000000000000000000000000060a082015260a081526108d260c082611967565b519020811490811561095a575b501561091f5760015460405163a9059cbb60e01b81526001600160a01b0392831660048201526024810193909352602091839116815f81604481016107d9565b60405162461bcd60e51b815260206004820152601360248201527210d0d50e881a5b9d985b1a59081a5b9d195b9d606a1b6044820152606490fd5b90501515836108df565b6317fc971b60e21b5f5260045ffd5b3461025c575f36600319011261025c576020604051683635c9adc5dea000008152f35b3461025c5760a036600319011261025c576004356109b2611958565b6084356001600160a01b0381169081900361025c576002546001600160a01b031633036105b45760405190608082019180831067ffffffffffffffff8411176103c5577f796d6a69fbd196467cedddb963a627a9bde07c0375c4c5323d55cbc09ebbd1289360209360405215158152600383820160443581526040830160643581526060840191858352885f526005875260405f209451151560ff8019875416911617855551600185015551600284015560018060a01b0390511691019060018060a01b03166001600160601b0360a01b825416179055604051908152a2005b3461025c575f36600319011261025c5760206040517f00000000000000000000000000000000000000000000000000000000000000008152f35b3461025c57602036600319011261025c57600435805f52600360205260405f20600981019060ff82541660068110156105a05760010361081257600a8101546102588101809111610751574210610bdc57815460ff1916600317918290556001546007909101805460405163a9059cbb60e01b815260089490941c6001600160a01b0390811660048601526024850191909152909291602091839116815f816044810103925af1908115610373575f91610bbd575b501561025c57610b949054600a546119bc565b600a557f26138616d77a7dcd42b11bd74f05e059074bdb7d2889cbf8517e5916582e57c35f80a2005b610bd6915060203d60201161036c5761035e8183611967565b83610b81565b63203e508960e21b5f5260045ffd5b3461025c57602036600319011261025c576004355f52600360205261018060405f2060018060a01b038154169060018060a01b03600182015416906002810154600382015460048301546005840154600685015491600786015493600887015495600a6009890154980154986040519a8b5260208b015260408a01526060890152608088015260a087015260c086015260e0850152610100840152610c97610120840160ff831661194b565b60081c6001600160a01b0316610140830152610160820152f35b3461025c57610cbf36611917565b9050335f52600460205260ff600560405f200154161561096457815f52600360205260405f2090600982019060ff82541660068110156105a0576105915760068301544211610d9357156108125780546001600160a81b0319163360081b610100600160a81b031617600117905542600a820155335f526004602052610d6260028060405f209360018501610d548154611996565b9055015492019182546119bc565b9055604051904282527fbda9294d48d13a800af71a56f22ca4a914080822f8a8f45dc2662c641ef0776c60203393a3005b63646ac38560e01b5f5260045ffd5b3461025c57604036600319011261025c57610dbb611892565b6001600160a01b03165f9081526006602052604090208054602435919082101561025c57602091610deb916118d4565b90549060031b1c604051908152f35b3461025c575f36600319011261025c5760206040516127108152f35b3461025c57610e2436611917565b9050815f52600360205260405f2090600982019160ff83541660068110156105a05760010361081257600a01546102588101809111610751574211610d93571561081257600260ff198254161790557f61332a4962c516a9357f5f81aae7b9d468ba360df46acf692421ea2a9a62e25a6020604051338152a2005b3461025c57606036600319011261025c57610eb8611892565b60243590604435805f52600560205260405f2060ff815416156112d3576002015483116112c4575f54604051630d47875d60e41b81523360048201529290602090849060249082906001600160a01b03165afa928315610373575f93611290575b50610f2483856119c9565b937f000000000000000000000000000000000000000000000000000000000000000060085492610f5384611996565b600855604051602081019133835260018060a01b0316948560408301528460608301528360808301528660a08301524260c083015260e082015260e08152610f9d61010082611967565b51902094610e1090611b588110158061127d575b15611261575050610fc561012c5b426119bc565b906040519161018083019083821067ffffffffffffffff8311176103c55787916040523384526020840192868452604085019186835260608601918252608086019089825260a0870142815260c0880191825260e08801928d84526101008901948786526101208a01965f88526101408b01995f8b526101608c01995f8b525f52600360205260405f209b60018060a01b039060018060a01b03905116166001600160601b0360a01b8d5416178c5560018060a01b0390511660018c019060018060a01b03166001600160601b0360a01b8254161790555160028b01555160038a01555160048901555160058801555160068701555160078601555160088501556009840190519060068210156105a05780549351610100600160a81b0360089190911b1660ff929092166001600160a81b03199094169390931717909155600a9051910155335f52600660205260405f208054600160401b8110156103c557611134916001820181556118d4565b81549060031b9086821b915f19901b19161790555f602061119360018060a01b036001541661116389866119bc565b6040516323b872dd60e01b8152336004820152306024820152604481019190915293849283919082906064820190565b03925af1908115610373575f91611242575b501561025c5760a0828286946020986111e17f34c697d0efcee7b4289a9c847ab98a367cc09a428513adf380f1691dac5aa1a4966009546119bc565b60095560405190838252888b8301526040820152867fd40e7194b5f545c40a921075f3e668a63b188bccabe349b90984e2d06b131a8160603393a460405191338352888301526040820152608060608201525f6080820152a3604051908152f35b61125b915060203d60201161036c5761035e8183611967565b866111a5565b6113881115611274575b610fc590610fbf565b5061070861126b565b50683635c9adc5dea00000841115610fb1565b9092506020813d6020116112bc575b816112ac60209383611967565b8101031261025c57519184610f19565b3d915061129f565b635d1cc88960e11b5f5260045ffd5b6324d3dc0d60e11b5f5260045ffd5b3461025c575f36600319011261025c576001546040516001600160a01b039091168152602090f35b3461025c575f36600319011261025c576020600954604051908152f35b3461025c575f36600319011261025c576020604051610e108152f35b3461025c57602036600319011261025c576001600160a01b03611364611892565b165f52600460205260e060405f2080549060018101549060028101546003820154600483015491600660ff600586015416940154946040519687526020870152604086015260608501526080840152151560a083015260c0820152f35b3461025c57602036600319011261025c576004355f526005602052608060405f2060ff81541690600181015490600281015490600360018060a01b0391015416916040519315158452602084015260408301526060820152f35b3461025c575f36600319011261025c576002546040516001600160a01b039091168152602090f35b3461025c57606036600319011261025c5761145c611892565b6024359060443567ffffffffffffffff811161025c576114809036906004016118e9565b6002546001600160a01b031633036105b4576001600160a01b039092165f8181526004602052604090208054919493918085116115ba575b6114cd8569021e19e0c9bab240000092611989565b808355600683016114de8154611996565b9055106115a9575b5060015460025460405163a9059cbb60e01b81526001600160a01b0391821660048201526024810186905291602091839160449183915f91165af1908115610373575f9161158a575b501561025c577f34b16bec5c847a369ab5a7e513806b9e911ff951029f06caa2ec795e93f0bce19281606092604051948593845260406020850152816040850152848401375f828201840152601f01601f19168101030190a2005b6115a3915060203d60201161036c5761035e8183611967565b8561152f565b600501805460ff19169055846114e6565b9350836114b8565b3461025c575f36600319011261025c575f546040516001600160a01b039091168152602090f35b3461025c575f36600319011261025c576020604051601e8152f35b3461025c575f36600319011261025c576080600854600954600a5460075491604051938452602084015260408301526060820152f35b3461025c57604036600319011261025c57611653611892565b5f54604051630d47875d60e41b81526001600160a01b0392831660048201529160209183916024918391165afa908115610373575f9161175b575b5061169b816024356119c9565b90611b588110611701575060606040516116b6604082611967565b6007815266125394d510539560ca1b6020820152915b602060405193849283526040828401528051918291826040860152018484015e5f828201840152601f01601f19168101030190f35b61138811611730576060604051611719604082611967565b6004815263119054d560e21b6020820152916116cc565b6060604051611740604082611967565b600881526714d510539110549160c21b6020820152916116cc565b90506020813d602011611785575b8161177660209383611967565b8101031261025c57518161168e565b3d9150611769565b3461025c575f36600319011261025c576020600a54604051908152f35b3461025c57602036600319011261025c5760043560075481101561025c576117d36020916118a8565b905460405160039290921b1c6001600160a01b03168152f35b3461025c575f36600319011261025c5760206040516113888152f35b3461025c575f36600319011261025c57602060405169021e19e0c9bab24000008152f35b3461025c57602036600319011261025c5760a0906001600160a01b03611850611892565b165f52600460205260405f20805490600181015460028201549060ff600560038501549401541693855260208501526040840152606083015215156080820152f35b600435906001600160a01b038216820361025c57565b6007548110156118c05760075f5260205f2001905f90565b634e487b7160e01b5f52603260045260245ffd5b80548210156118c0575f5260205f2001905f90565b9181601f8401121561025c5782359167ffffffffffffffff831161025c576020838186019501011161025c57565b90604060031983011261025c57600435916024359067ffffffffffffffff821161025c57611947916004016118e9565b9091565b9060068210156105a05752565b60243590811515820361025c57565b90601f8019910116810190811067ffffffffffffffff8211176103c557604052565b9190820391821161075157565b5f1981146107515760010190565b9081602091031261025c5751801515810361025c5790565b9190820180921161075157565b90611f4081106119f05750600a905b81810291818304149015171561075157612710900490565b61177011611a0057600f906119d8565b601e906119d856fea2646970667358221220eb34ffc28c8be7fec08e3ca27a553e8678e200d2fd049810d933c53efcc9f9a264736f6c634300081e0033","linkReferences":{}},"methodIdentifiers":{"BASE_FEE_BP()":"22e8f7d6","CHALLENGE_PERIOD()":"c3a079ed","FEE_BASIS()":"8686ebcc","HIGH_TRUST_FEE_BP()":"eff33ad0","INSTANT_THRESHOLD()":"a742e6c0","INTENT_VALIDITY()":"5f0253d6","MIN_RELAYER_STAKE()":"078524f0","MIN_SCORE_FOR_FAST()":"0ee6b51e","MIN_SCORE_FOR_INSTANT()":"c5896a5a","cancelIntent(bytes32)":"d55f960d","chainConfigs(uint256)":"51bfbc32","chainId()":"9a8a0592","challengeFulfillment(bytes32,bytes)":"82f2a302","completeIntent(bytes32)":"917f494a","configureChain(uint256,bool,uint256,uint256,address)":"9f7a1d00","createIntent(address,uint256,uint256)":"77813985","dao()":"4162169f","estimateFee(address,uint256)":"17e33f15","executeIntent(bytes32,address,address,uint256,uint256)":"b3e3fdb2","fulfillIntent(bytes32,bytes)":"8b637c6d","getBridgeStats()":"2165cbb7","getIntent(bytes32)":"f13c46aa","getRelayerInfo(address)":"06bfd20b","getUserIntents(address)":"fa3209b2","intents(bytes32)":"9021578a","registerRelayer(uint256)":"f5855d16","relayerList(uint256)":"11162be7","relayers(address)":"5300f841","resolveChallengedIntent(bytes32,bool)":"bbc3f093","seer()":"2d55ea39","slashRelayer(address,uint256,string)":"3d38de8b","totalFees()":"13114a9d","totalIntents()":"d06a54f4","totalVolume()":"5f81a57c","userIntents(address,uint256)":"89c9c3ae","vfide()":"72c8ae3b"},"id":0}