{"abi":[{"type":"function","name":"isWhitelisted","inputs":[{"name":"","type":"address","internalType":"address"}],"outputs":[{"name":"","type":"bool","internalType":"bool"}],"stateMutability":"view"},{"type":"function","name":"setDecimals","inputs":[{"name":"token","type":"address","internalType":"address"},{"name":"decimals","type":"uint8","internalType":"uint8"}],"outputs":[],"stateMutability":"nonpayable"},{"type":"function","name":"setTreasury","inputs":[{"name":"newTreasury","type":"address","internalType":"address"}],"outputs":[],"stateMutability":"nonpayable"},{"type":"function","name":"setWhitelisted","inputs":[{"name":"token","type":"address","internalType":"address"},{"name":"status","type":"bool","internalType":"bool"}],"outputs":[],"stateMutability":"nonpayable"},{"type":"function","name":"tokenDecimals","inputs":[{"name":"","type":"address","internalType":"address"}],"outputs":[{"name":"","type":"uint8","internalType":"uint8"}],"stateMutability":"view"},{"type":"function","name":"treasury","inputs":[],"outputs":[{"name":"","type":"address","internalType":"address"}],"stateMutability":"view"}],"bytecode":{"object":"0x6080806040523460155761021c908161001a8239f35b5f80fdfe6080806040526004361015610012575f80fd5b5f3560e01c9081633af32abf146101985750806361d027b3146101705780638ee573ac146101355780639281aa0b146100eb578063f0f44260146100ad5763f2259f961461005e575f80fd5b346100a95760403660031901126100a9576100776101d0565b6024359060ff82168092036100a9576001600160a01b03165f908152600160205260409020805460ff19169091179055005b5f80fd5b346100a95760203660031901126100a9576001600160a01b036100ce6101d0565b166bffffffffffffffffffffffff60a01b60025416176002555f80f35b346100a95760403660031901126100a9576101046101d0565b602435908115158092036100a95760018060a01b03165f525f60205260405f209060ff801983541691161790555f80f35b346100a95760203660031901126100a9576001600160a01b036101566101d0565b165f526001602052602060ff60405f205416604051908152f35b346100a9575f3660031901126100a9576002546040516001600160a01b039091168152602090f35b346100a95760203660031901126100a9576020906001600160a01b036101bc6101d0565b165f525f825260ff60405f20541615158152f35b600435906001600160a01b03821682036100a95756fea2646970667358221220e6d924a2a630224e9386eb0af88ac9450f4508782e93557fc63ff6815d1162dc64736f6c634300081e0033","linkReferences":{}},"methodIdentifiers":{"isWhitelisted(address)":"3af32abf","setDecimals(address,uint8)":"f2259f96","setTreasury(address)":"f0f44260","setWhitelisted(address,bool)":"9281aa0b","tokenDecimals(address)":"8ee573ac","treasury()":"61d027b3"},"id":90}