{"abi":[{"type":"constructor","inputs":[{"name":"_vfide","type":"address","internalType":"address"},{"name":"_seer","type":"address","internalType":"address"},{"name":"_operationsWallet","type":"address","internalType":"address"}],"stateMutability":"nonpayable"},{"type":"function","name":"HEADHUNTER_MIN_SCORE","inputs":[],"outputs":[{"name":"","type":"uint16","internalType":"uint16"}],"stateMutability":"view"},{"type":"function","name":"HEADHUNTER_RANKS","inputs":[],"outputs":[{"name":"","type":"uint8","internalType":"uint8"}],"stateMutability":"view"},{"type":"function","name":"HEADHUNTER_RANK_SHARE_BPS","inputs":[{"name":"","type":"uint256","internalType":"uint256"}],"outputs":[{"name":"","type":"uint16","internalType":"uint16"}],"stateMutability":"view"},{"type":"function","name":"MAX_BPS","inputs":[],"outputs":[{"name":"","type":"uint16","internalType":"uint16"}],"stateMutability":"view"},{"type":"function","name":"MAX_COUNCIL_MEMBERS","inputs":[],"outputs":[{"name":"","type":"uint8","internalType":"uint8"}],"stateMutability":"view"},{"type":"function","name":"MAX_MERCHANTS_PER_PERIOD","inputs":[],"outputs":[{"name":"","type":"uint256","internalType":"uint256"}],"stateMutability":"view"},{"type":"function","name":"MAX_RANK_ITERATIONS","inputs":[],"outputs":[{"name":"","type":"uint256","internalType":"uint256"}],"stateMutability":"view"},{"type":"function","name":"MAX_REFERRERS_PER_YEAR","inputs":[],"outputs":[{"name":"","type":"uint256","internalType":"uint256"}],"stateMutability":"view"},{"type":"function","name":"MERCHANT_RANKS","inputs":[],"outputs":[{"name":"","type":"uint8","internalType":"uint8"}],"stateMutability":"view"},{"type":"function","name":"MIN_ALLOCATION_BPS","inputs":[],"outputs":[{"name":"","type":"uint16","internalType":"uint16"}],"stateMutability":"view"},{"type":"function","name":"MIN_MERCHANT_TX","inputs":[],"outputs":[{"name":"","type":"uint8","internalType":"uint8"}],"stateMutability":"view"},{"type":"function","name":"MIN_USER_VAULT_USD","inputs":[],"outputs":[{"name":"","type":"uint256","internalType":"uint256"}],"stateMutability":"view"},{"type":"function","name":"MONTH","inputs":[],"outputs":[{"name":"","type":"uint256","internalType":"uint256"}],"stateMutability":"view"},{"type":"function","name":"POINTS_MERCHANT_REFERRAL","inputs":[],"outputs":[{"name":"","type":"uint16","internalType":"uint16"}],"stateMutability":"view"},{"type":"function","name":"POINTS_USER_REFERRAL","inputs":[],"outputs":[{"name":"","type":"uint16","internalType":"uint16"}],"stateMutability":"view"},{"type":"function","name":"QUARTER","inputs":[],"outputs":[{"name":"","type":"uint256","internalType":"uint256"}],"stateMutability":"view"},{"type":"function","name":"TIER1_MULTIPLIER","inputs":[],"outputs":[{"name":"","type":"uint16","internalType":"uint16"}],"stateMutability":"view"},{"type":"function","name":"TIER1_THRESHOLD","inputs":[],"outputs":[{"name":"","type":"uint16","internalType":"uint16"}],"stateMutability":"view"},{"type":"function","name":"TIER2_MULTIPLIER","inputs":[],"outputs":[{"name":"","type":"uint16","internalType":"uint16"}],"stateMutability":"view"},{"type":"function","name":"TIER2_THRESHOLD","inputs":[],"outputs":[{"name":"","type":"uint16","internalType":"uint16"}],"stateMutability":"view"},{"type":"function","name":"TIER3_MULTIPLIER","inputs":[],"outputs":[{"name":"","type":"uint16","internalType":"uint16"}],"stateMutability":"view"},{"type":"function","name":"TIER3_THRESHOLD","inputs":[],"outputs":[{"name":"","type":"uint16","internalType":"uint16"}],"stateMutability":"view"},{"type":"function","name":"TIER4_MULTIPLIER","inputs":[],"outputs":[{"name":"","type":"uint16","internalType":"uint16"}],"stateMutability":"view"},{"type":"function","name":"TIER4_THRESHOLD","inputs":[],"outputs":[{"name":"","type":"uint16","internalType":"uint16"}],"stateMutability":"view"},{"type":"function","name":"WITHDRAW_TIMELOCK","inputs":[],"outputs":[{"name":"","type":"uint256","internalType":"uint256"}],"stateMutability":"view"},{"type":"function","name":"acceptOwnership","inputs":[],"outputs":[],"stateMutability":"nonpayable"},{"type":"function","name":"allocateIncoming","inputs":[],"outputs":[],"stateMutability":"nonpayable"},{"type":"function","name":"burnFunds","inputs":[{"name":"amount","type":"uint256","internalType":"uint256"}],"outputs":[],"stateMutability":"nonpayable"},{"type":"function","name":"cancelOwnershipTransfer","inputs":[],"outputs":[],"stateMutability":"nonpayable"},{"type":"function","name":"cancelWithdraw","inputs":[{"name":"id","type":"uint256","internalType":"uint256"}],"outputs":[],"stateMutability":"nonpayable"},{"type":"function","name":"checkHeadhunterReward","inputs":[{"name":"","type":"address","internalType":"address"}],"outputs":[],"stateMutability":"nonpayable"},{"type":"function","name":"claimHeadhunterReward","inputs":[{"name":"year","type":"uint256","internalType":"uint256"},{"name":"quarter","type":"uint256","internalType":"uint256"}],"outputs":[],"stateMutability":"nonpayable"},{"type":"function","name":"claimMerchantReward","inputs":[{"name":"period","type":"uint256","internalType":"uint256"}],"outputs":[],"stateMutability":"nonpayable"},{"type":"function","name":"councilBps","inputs":[],"outputs":[{"name":"","type":"uint16","internalType":"uint16"}],"stateMutability":"view"},{"type":"function","name":"councilManager","inputs":[],"outputs":[{"name":"","type":"address","internalType":"contract ICouncilManager"}],"stateMutability":"view"},{"type":"function","name":"councilPool","inputs":[],"outputs":[{"name":"","type":"uint256","internalType":"uint256"}],"stateMutability":"view"},{"type":"function","name":"creditMerchantReferral","inputs":[{"name":"merchant","type":"address","internalType":"address"}],"outputs":[],"stateMutability":"nonpayable"},{"type":"function","name":"creditUserReferral","inputs":[{"name":"user","type":"address","internalType":"address"}],"outputs":[],"stateMutability":"nonpayable"},{"type":"function","name":"currentMerchantPeriod","inputs":[],"outputs":[{"name":"","type":"uint256","internalType":"uint256"}],"stateMutability":"view"},{"type":"function","name":"currentQuarter","inputs":[],"outputs":[{"name":"","type":"uint256","internalType":"uint256"}],"stateMutability":"view"},{"type":"function","name":"currentYear","inputs":[],"outputs":[{"name":"","type":"uint256","internalType":"uint256"}],"stateMutability":"view"},{"type":"function","name":"distributeCouncilRewards","inputs":[],"outputs":[],"stateMutability":"nonpayable"},{"type":"function","name":"endHeadhunterQuarter","inputs":[],"outputs":[],"stateMutability":"nonpayable"},{"type":"function","name":"endMerchantPeriod","inputs":[],"outputs":[],"stateMutability":"nonpayable"},{"type":"function","name":"executeWithdraw","inputs":[{"name":"id","type":"uint256","internalType":"uint256"}],"outputs":[],"stateMutability":"nonpayable"},{"type":"function","name":"getHeadhunterStats","inputs":[{"name":"referrer","type":"address","internalType":"address"}],"outputs":[{"name":"currentYearPoints","type":"uint16","internalType":"uint16"},{"name":"estimatedRank","type":"uint8","internalType":"uint8"},{"name":"currentYearNumber","type":"uint256","internalType":"uint256"},{"name":"currentQuarterNumber","type":"uint256","internalType":"uint256"},{"name":"quarterEndsAt","type":"uint256","internalType":"uint256"}],"stateMutability":"view"},{"type":"function","name":"getMerchantStats","inputs":[{"name":"merchant","type":"address","internalType":"address"}],"outputs":[{"name":"txCount","type":"uint256","internalType":"uint256"},{"name":"bonusesPaid","type":"uint256","internalType":"uint256"},{"name":"currentTier","type":"uint16","internalType":"uint16"},{"name":"currentPeriodRank","type":"uint8","internalType":"uint8"}],"stateMutability":"view"},{"type":"function","name":"getMerchantTierMultipliers","inputs":[],"outputs":[{"name":"tier1Threshold","type":"uint16","internalType":"uint16"},{"name":"tier1Multiplier","type":"uint16","internalType":"uint16"},{"name":"tier2Threshold","type":"uint16","internalType":"uint16"},{"name":"tier2Multiplier","type":"uint16","internalType":"uint16"},{"name":"tier3Threshold","type":"uint16","internalType":"uint16"},{"name":"tier3Multiplier","type":"uint16","internalType":"uint16"},{"name":"tier4Threshold","type":"uint16","internalType":"uint16"},{"name":"tier4Multiplier","type":"uint16","internalType":"uint16"}],"stateMutability":"pure"},{"type":"function","name":"getMerchantsPaginated","inputs":[{"name":"period","type":"uint256","internalType":"uint256"},{"name":"offset","type":"uint256","internalType":"uint256"},{"name":"limit","type":"uint256","internalType":"uint256"}],"outputs":[{"name":"merchants","type":"address[]","internalType":"address[]"},{"name":"total","type":"uint256","internalType":"uint256"}],"stateMutability":"view"},{"type":"function","name":"getOperationsStatus","inputs":[],"outputs":[{"name":"poolBalance","type":"uint256","internalType":"uint256"},{"name":"wallet","type":"address","internalType":"address"},{"name":"lastWithdrawal","type":"uint256","internalType":"uint256"},{"name":"nextWithdrawalTime","type":"uint256","internalType":"uint256"},{"name":"canWithdraw","type":"bool","internalType":"bool"}],"stateMutability":"view"},{"type":"function","name":"getPendingReferral","inputs":[{"name":"referred","type":"address","internalType":"address"}],"outputs":[{"name":"merchantReferrer","type":"address","internalType":"address"},{"name":"userReferrer","type":"address","internalType":"address"},{"name":"credited","type":"bool","internalType":"bool"}],"stateMutability":"view"},{"type":"function","name":"getPoolBalances","inputs":[],"outputs":[{"name":"council","type":"uint256","internalType":"uint256"},{"name":"merchant","type":"uint256","internalType":"uint256"},{"name":"headhunter","type":"uint256","internalType":"uint256"},{"name":"total","type":"uint256","internalType":"uint256"}],"stateMutability":"view"},{"type":"function","name":"getReferrersPaginated","inputs":[{"name":"year","type":"uint256","internalType":"uint256"},{"name":"offset","type":"uint256","internalType":"uint256"},{"name":"limit","type":"uint256","internalType":"uint256"}],"outputs":[{"name":"referrers","type":"address[]","internalType":"address[]"},{"name":"total","type":"uint256","internalType":"uint256"}],"stateMutability":"view"},{"type":"function","name":"getSpendingSummary","inputs":[],"outputs":[{"name":"councilTotal","type":"uint256","internalType":"uint256"},{"name":"merchantTotal","type":"uint256","internalType":"uint256"},{"name":"headhunterTotal","type":"uint256","internalType":"uint256"},{"name":"burnedTotal","type":"uint256","internalType":"uint256"},{"name":"expensesTotal","type":"uint256","internalType":"uint256"},{"name":"grandTotal","type":"uint256","internalType":"uint256"}],"stateMutability":"view"},{"type":"function","name":"getVaultHealth","inputs":[],"outputs":[{"name":"currentBalance","type":"uint256","internalType":"uint256"},{"name":"totalIn","type":"uint256","internalType":"uint256"},{"name":"totalOut","type":"uint256","internalType":"uint256"},{"name":"councilPoolBalance","type":"uint256","internalType":"uint256"},{"name":"merchantPoolBalance","type":"uint256","internalType":"uint256"},{"name":"headhunterPoolBalance","type":"uint256","internalType":"uint256"}],"stateMutability":"view"},{"type":"function","name":"headhunterBps","inputs":[],"outputs":[{"name":"","type":"uint16","internalType":"uint16"}],"stateMutability":"view"},{"type":"function","name":"headhunterPool","inputs":[],"outputs":[{"name":"","type":"uint256","internalType":"uint256"}],"stateMutability":"view"},{"type":"function","name":"isManager","inputs":[{"name":"","type":"address","internalType":"address"}],"outputs":[{"name":"","type":"bool","internalType":"bool"}],"stateMutability":"view"},{"type":"function","name":"lastCouncilDistribution","inputs":[],"outputs":[{"name":"","type":"uint256","internalType":"uint256"}],"stateMutability":"view"},{"type":"function","name":"lastMerchantDistribution","inputs":[],"outputs":[{"name":"","type":"uint256","internalType":"uint256"}],"stateMutability":"view"},{"type":"function","name":"lastOperationsWithdrawal","inputs":[],"outputs":[{"name":"","type":"uint256","internalType":"uint256"}],"stateMutability":"view"},{"type":"function","name":"lastQuarterPayout","inputs":[],"outputs":[{"name":"","type":"uint256","internalType":"uint256"}],"stateMutability":"view"},{"type":"function","name":"merchantBps","inputs":[],"outputs":[{"name":"","type":"uint16","internalType":"uint16"}],"stateMutability":"view"},{"type":"function","name":"merchantPeriodClaimed","inputs":[{"name":"","type":"uint256","internalType":"uint256"},{"name":"","type":"address","internalType":"address"}],"outputs":[{"name":"","type":"bool","internalType":"bool"}],"stateMutability":"view"},{"type":"function","name":"merchantPeriodEnded","inputs":[{"name":"","type":"uint256","internalType":"uint256"}],"outputs":[{"name":"","type":"bool","internalType":"bool"}],"stateMutability":"view"},{"type":"function","name":"merchantPeriodPoolSnapshot","inputs":[{"name":"","type":"uint256","internalType":"uint256"}],"outputs":[{"name":"","type":"uint256","internalType":"uint256"}],"stateMutability":"view"},{"type":"function","name":"merchantPool","inputs":[],"outputs":[{"name":"","type":"uint256","internalType":"uint256"}],"stateMutability":"view"},{"type":"function","name":"operationsBps","inputs":[],"outputs":[{"name":"","type":"uint16","internalType":"uint16"}],"stateMutability":"view"},{"type":"function","name":"operationsPool","inputs":[],"outputs":[{"name":"","type":"uint256","internalType":"uint256"}],"stateMutability":"view"},{"type":"function","name":"operationsWallet","inputs":[],"outputs":[{"name":"","type":"address","internalType":"address"}],"stateMutability":"view"},{"type":"function","name":"operationsWithdrawalCooldown","inputs":[],"outputs":[{"name":"","type":"uint256","internalType":"uint256"}],"stateMutability":"view"},{"type":"function","name":"owner","inputs":[],"outputs":[{"name":"","type":"address","internalType":"address"}],"stateMutability":"view"},{"type":"function","name":"payExpense","inputs":[{"name":"recipient","type":"address","internalType":"address"},{"name":"amount","type":"uint256","internalType":"uint256"},{"name":"reason","type":"string","internalType":"string"}],"outputs":[],"stateMutability":"nonpayable"},{"type":"function","name":"pendingMerchantReferrer","inputs":[{"name":"","type":"address","internalType":"address"}],"outputs":[{"name":"","type":"address","internalType":"address"}],"stateMutability":"view"},{"type":"function","name":"pendingOwner","inputs":[],"outputs":[{"name":"","type":"address","internalType":"address"}],"stateMutability":"view"},{"type":"function","name":"pendingUserReferrer","inputs":[{"name":"","type":"address","internalType":"address"}],"outputs":[{"name":"","type":"address","internalType":"address"}],"stateMutability":"view"},{"type":"function","name":"periodMerchantTier","inputs":[{"name":"","type":"uint256","internalType":"uint256"},{"name":"","type":"address","internalType":"address"}],"outputs":[{"name":"","type":"uint16","internalType":"uint16"}],"stateMutability":"view"},{"type":"function","name":"periodMerchantTxCount","inputs":[{"name":"","type":"uint256","internalType":"uint256"},{"name":"","type":"address","internalType":"address"}],"outputs":[{"name":"","type":"uint256","internalType":"uint256"}],"stateMutability":"view"},{"type":"function","name":"periodMerchants","inputs":[{"name":"","type":"uint256","internalType":"uint256"},{"name":"","type":"uint256","internalType":"uint256"}],"outputs":[{"name":"","type":"address","internalType":"address"}],"stateMutability":"view"},{"type":"function","name":"previewHeadhunterReward","inputs":[{"name":"year","type":"uint256","internalType":"uint256"},{"name":"quarter","type":"uint256","internalType":"uint256"},{"name":"referrer","type":"address","internalType":"address"}],"outputs":[{"name":"referrerPoints","type":"uint16","internalType":"uint16"},{"name":"claimed","type":"bool","internalType":"bool"},{"name":"quarterEndedFlag","type":"bool","internalType":"bool"},{"name":"poolSnapshot","type":"uint256","internalType":"uint256"}],"stateMutability":"view"},{"type":"function","name":"previewMerchantReward","inputs":[{"name":"period","type":"uint256","internalType":"uint256"},{"name":"merchant","type":"address","internalType":"address"}],"outputs":[{"name":"txCount","type":"uint256","internalType":"uint256"},{"name":"bestTier","type":"uint16","internalType":"uint16"},{"name":"claimed","type":"bool","internalType":"bool"},{"name":"periodEnded","type":"bool","internalType":"bool"},{"name":"poolSnapshot","type":"uint256","internalType":"uint256"}],"stateMutability":"view"},{"type":"function","name":"quarterClaimed","inputs":[{"name":"","type":"uint256","internalType":"uint256"},{"name":"","type":"uint256","internalType":"uint256"},{"name":"","type":"address","internalType":"address"}],"outputs":[{"name":"","type":"bool","internalType":"bool"}],"stateMutability":"view"},{"type":"function","name":"quarterEnded","inputs":[{"name":"","type":"uint256","internalType":"uint256"},{"name":"","type":"uint256","internalType":"uint256"}],"outputs":[{"name":"","type":"bool","internalType":"bool"}],"stateMutability":"view"},{"type":"function","name":"quarterPoolSnapshot","inputs":[{"name":"","type":"uint256","internalType":"uint256"},{"name":"","type":"uint256","internalType":"uint256"}],"outputs":[{"name":"","type":"uint256","internalType":"uint256"}],"stateMutability":"view"},{"type":"function","name":"recordMerchantTransaction","inputs":[{"name":"merchant","type":"address","internalType":"address"}],"outputs":[],"stateMutability":"nonpayable"},{"type":"function","name":"referralCredited","inputs":[{"name":"","type":"address","internalType":"address"}],"outputs":[{"name":"","type":"bool","internalType":"bool"}],"stateMutability":"view"},{"type":"function","name":"registerMerchantReferral","inputs":[{"name":"merchant","type":"address","internalType":"address"},{"name":"referrer","type":"address","internalType":"address"}],"outputs":[],"stateMutability":"nonpayable"},{"type":"function","name":"registerUserReferral","inputs":[{"name":"referrer","type":"address","internalType":"address"},{"name":"user","type":"address","internalType":"address"}],"outputs":[],"stateMutability":"nonpayable"},{"type":"function","name":"requestWithdraw","inputs":[{"name":"to","type":"address","internalType":"address"},{"name":"amount","type":"uint256","internalType":"uint256"}],"outputs":[{"name":"id","type":"uint256","internalType":"uint256"}],"stateMutability":"nonpayable"},{"type":"function","name":"seer","inputs":[],"outputs":[{"name":"","type":"address","internalType":"contract ISeer"}],"stateMutability":"view"},{"type":"function","name":"setAllocations","inputs":[{"name":"_councilBps","type":"uint16","internalType":"uint16"},{"name":"_merchantBps","type":"uint16","internalType":"uint16"},{"name":"_headhunterBps","type":"uint16","internalType":"uint16"}],"outputs":[],"stateMutability":"nonpayable"},{"type":"function","name":"setCouncilManager","inputs":[{"name":"_councilManager","type":"address","internalType":"address"}],"outputs":[],"stateMutability":"nonpayable"},{"type":"function","name":"setManager","inputs":[{"name":"manager","type":"address","internalType":"address"},{"name":"active","type":"bool","internalType":"bool"}],"outputs":[],"stateMutability":"nonpayable"},{"type":"function","name":"setOperationsAllocation","inputs":[{"name":"_operationsBps","type":"uint16","internalType":"uint16"}],"outputs":[],"stateMutability":"nonpayable"},{"type":"function","name":"setOperationsCooldown","inputs":[{"name":"_cooldown","type":"uint256","internalType":"uint256"}],"outputs":[],"stateMutability":"nonpayable"},{"type":"function","name":"setOperationsWallet","inputs":[{"name":"_wallet","type":"address","internalType":"address"}],"outputs":[],"stateMutability":"nonpayable"},{"type":"function","name":"setSeer","inputs":[{"name":"_seer","type":"address","internalType":"address"}],"outputs":[],"stateMutability":"nonpayable"},{"type":"function","name":"totalBurned","inputs":[],"outputs":[{"name":"","type":"uint256","internalType":"uint256"}],"stateMutability":"view"},{"type":"function","name":"totalCouncilPaid","inputs":[],"outputs":[{"name":"","type":"uint256","internalType":"uint256"}],"stateMutability":"view"},{"type":"function","name":"totalExpensesPaid","inputs":[],"outputs":[{"name":"","type":"uint256","internalType":"uint256"}],"stateMutability":"view"},{"type":"function","name":"totalHeadhunterPaid","inputs":[],"outputs":[{"name":"","type":"uint256","internalType":"uint256"}],"stateMutability":"view"},{"type":"function","name":"totalMerchantBonusPaid","inputs":[],"outputs":[{"name":"","type":"uint256","internalType":"uint256"}],"stateMutability":"view"},{"type":"function","name":"totalMerchantBonusesPaid","inputs":[{"name":"","type":"address","internalType":"address"}],"outputs":[{"name":"","type":"uint256","internalType":"uint256"}],"stateMutability":"view"},{"type":"function","name":"totalReceived","inputs":[],"outputs":[{"name":"","type":"uint256","internalType":"uint256"}],"stateMutability":"view"},{"type":"function","name":"transferOwnership","inputs":[{"name":"newOwner","type":"address","internalType":"address"}],"outputs":[],"stateMutability":"nonpayable"},{"type":"function","name":"vfide","inputs":[],"outputs":[{"name":"","type":"address","internalType":"contract IERC20"}],"stateMutability":"view"},{"type":"function","name":"withdrawOperations","inputs":[],"outputs":[],"stateMutability":"nonpayable"},{"type":"function","name":"withdrawRequestCount","inputs":[],"outputs":[{"name":"","type":"uint256","internalType":"uint256"}],"stateMutability":"view"},{"type":"function","name":"withdrawRequests","inputs":[{"name":"","type":"uint256","internalType":"uint256"}],"outputs":[{"name":"to","type":"address","internalType":"address"},{"name":"amount","type":"uint256","internalType":"uint256"},{"name":"requestedAt","type":"uint256","internalType":"uint256"},{"name":"executed","type":"bool","internalType":"bool"},{"name":"cancelled","type":"bool","internalType":"bool"}],"stateMutability":"view"},{"type":"function","name":"yearPoints","inputs":[{"name":"","type":"uint256","internalType":"uint256"},{"name":"","type":"address","internalType":"address"}],"outputs":[{"name":"","type":"uint16","internalType":"uint16"}],"stateMutability":"view"},{"type":"function","name":"yearReferrers","inputs":[{"name":"","type":"uint256","internalType":"uint256"},{"name":"","type":"uint256","internalType":"uint256"}],"outputs":[{"name":"","type":"address","internalType":"address"}],"stateMutability":"view"},{"type":"function","name":"yearStartTime","inputs":[],"outputs":[{"name":"","type":"uint256","internalType":"uint256"}],"stateMutability":"view"},{"type":"event","name":"AllocationUpdated","inputs":[{"name":"councilBps","type":"uint16","indexed":false,"internalType":"uint16"},{"name":"merchantBps","type":"uint16","indexed":false,"internalType":"uint16"},{"name":"headhunterBps","type":"uint16","indexed":false,"internalType":"uint16"}],"anonymous":false},{"type":"event","name":"CouncilDistributed","inputs":[{"name":"totalAmount","type":"uint256","indexed":false,"internalType":"uint256"},{"name":"memberCount","type":"uint8","indexed":false,"internalType":"uint8"},{"name":"perMember","type":"uint256","indexed":false,"internalType":"uint256"}],"anonymous":false},{"type":"event","name":"FundsBurned","inputs":[{"name":"amount","type":"uint256","indexed":false,"internalType":"uint256"}],"anonymous":false},{"type":"event","name":"HeadhunterQuarterEnded","inputs":[{"name":"year","type":"uint256","indexed":false,"internalType":"uint256"},{"name":"quarter","type":"uint256","indexed":false,"internalType":"uint256"},{"name":"totalPool","type":"uint256","indexed":false,"internalType":"uint256"}],"anonymous":false},{"type":"event","name":"HeadhunterRewardClaimed","inputs":[{"name":"referrer","type":"address","indexed":true,"internalType":"address"},{"name":"year","type":"uint256","indexed":false,"internalType":"uint256"},{"name":"quarter","type":"uint256","indexed":false,"internalType":"uint256"},{"name":"amount","type":"uint256","indexed":false,"internalType":"uint256"},{"name":"rank","type":"uint8","indexed":false,"internalType":"uint8"}],"anonymous":false},{"type":"event","name":"ManagerSet","inputs":[{"name":"manager","type":"address","indexed":false,"internalType":"address"},{"name":"active","type":"bool","indexed":false,"internalType":"bool"}],"anonymous":false},{"type":"event","name":"MerchantBonusPaid","inputs":[{"name":"merchant","type":"address","indexed":true,"internalType":"address"},{"name":"amount","type":"uint256","indexed":false,"internalType":"uint256"},{"name":"tier","type":"uint16","indexed":false,"internalType":"uint16"}],"anonymous":false},{"type":"event","name":"MerchantPeriodEnded","inputs":[{"name":"period","type":"uint256","indexed":false,"internalType":"uint256"},{"name":"poolSnapshot","type":"uint256","indexed":false,"internalType":"uint256"}],"anonymous":false},{"type":"event","name":"MerchantRewardClaimed","inputs":[{"name":"merchant","type":"address","indexed":true,"internalType":"address"},{"name":"period","type":"uint256","indexed":false,"internalType":"uint256"},{"name":"reward","type":"uint256","indexed":false,"internalType":"uint256"},{"name":"rank","type":"uint8","indexed":false,"internalType":"uint8"}],"anonymous":false},{"type":"event","name":"OperationsWithdrawal","inputs":[{"name":"wallet","type":"address","indexed":true,"internalType":"address"},{"name":"amount","type":"uint256","indexed":false,"internalType":"uint256"}],"anonymous":false},{"type":"event","name":"OwnershipTransferStarted","inputs":[{"name":"previousOwner","type":"address","indexed":true,"internalType":"address"},{"name":"newOwner","type":"address","indexed":true,"internalType":"address"}],"anonymous":false},{"type":"event","name":"OwnershipTransferred","inputs":[{"name":"previousOwner","type":"address","indexed":true,"internalType":"address"},{"name":"newOwner","type":"address","indexed":true,"internalType":"address"}],"anonymous":false},{"type":"event","name":"PaymentMade","inputs":[{"name":"recipient","type":"address","indexed":true,"internalType":"address"},{"name":"amount","type":"uint256","indexed":false,"internalType":"uint256"},{"name":"reason","type":"string","indexed":false,"internalType":"string"}],"anonymous":false},{"type":"event","name":"PendingReferralRegistered","inputs":[{"name":"referred","type":"address","indexed":true,"internalType":"address"},{"name":"referrer","type":"address","indexed":true,"internalType":"address"},{"name":"isMerchant","type":"bool","indexed":false,"internalType":"bool"}],"anonymous":false},{"type":"event","name":"ReferralRecorded","inputs":[{"name":"referrer","type":"address","indexed":true,"internalType":"address"},{"name":"referred","type":"address","indexed":true,"internalType":"address"},{"name":"isMerchant","type":"bool","indexed":false,"internalType":"bool"},{"name":"points","type":"uint16","indexed":false,"internalType":"uint16"}],"anonymous":false},{"type":"event","name":"SeerUpdated","inputs":[{"name":"oldSeer","type":"address","indexed":true,"internalType":"address"},{"name":"newSeer","type":"address","indexed":true,"internalType":"address"}],"anonymous":false},{"type":"event","name":"WithdrawCancelled","inputs":[{"name":"id","type":"uint256","indexed":true,"internalType":"uint256"}],"anonymous":false},{"type":"event","name":"WithdrawExecuted","inputs":[{"name":"id","type":"uint256","indexed":true,"internalType":"uint256"},{"name":"to","type":"address","indexed":false,"internalType":"address"},{"name":"amount","type":"uint256","indexed":false,"internalType":"uint256"}],"anonymous":false},{"type":"event","name":"WithdrawRequested","inputs":[{"name":"id","type":"uint256","indexed":true,"internalType":"uint256"},{"name":"to","type":"address","indexed":false,"internalType":"address"},{"name":"amount","type":"uint256","indexed":false,"internalType":"uint256"}],"anonymous":false},{"type":"error","name":"ECO_AlreadyClaimed","inputs":[]},{"type":"error","name":"ECO_ArrayCapReached","inputs":[]},{"type":"error","name":"ECO_InsufficientFunds","inputs":[]},{"type":"error","name":"ECO_InvalidRank","inputs":[]},{"type":"error","name":"ECO_NotAuthorized","inputs":[]},{"type":"error","name":"ECO_NotEligible","inputs":[]},{"type":"error","name":"ECO_TooEarly","inputs":[]},{"type":"error","name":"ECO_Zero","inputs":[]}],"bytecode":{"object":"0x6080604052346102b757604051601f61436638819003918201601f19168301916001600160401b038311848410176102a3578084926060946040528339810103126102b75761004d816102bb565b90610066604061005f602084016102bb565b92016102bb565b5f80546001600160a01b031916339081178255919291907f8be0079c531659141344cd1fd0a4f28419497f9722a3daafe3b4186f6b6457e08180a3600160025560405161028081016001600160401b038111828210176102a3576040526105dc81526104b060208201526103e8604082015261032060608201526102bc608082015261025860a08201526101f460c08201526101c260e082015261019061010082015261015e61012082015261012c61014082015261011861016082015261010461018082015260f06101a082015260dc6101c082015260c86101e082015260b461020082015260a0610220820152608c61024082015260786102608201525f5b6001811061026257505f905f5b6004811061023157505060045560095462278d00600b556001600160401b0319166709c409c409c409c417926001600160a01b0316801561022257600580546001600160a01b0319908116929092179055600680549091166001600160a01b0392909216919091179055600160401b600160e01b0319909116604091821b600160401b600160e01b03161760095542601d556001601b819055601c8190556013555161409690816102d08239f35b63ef85f47d60e01b5f5260045ffd5b9091602061025960019261ffff8651169085851b61ffff809160031b9316831b921b19161790565b93019101610174565b5f5f5b6010811061027b57506003820155600101610167565b835190939160019160209161ffff600488901b81811b199092169216901b1792019301610265565b634e487b7160e01b5f52604160045260245ffd5b5f80fd5b51906001600160a01b03821682036102b75756fe60806040526004361015610011575f80fd5b5f3560e01c806302c8a51714612e19578063034c32a21461265f578063038c0f7714612dfc5780630567375b14612db8578063086d2c8714612d9c578063093b1ef514612d6e578063096fa74414612d515780630971203d14612d345780630b5a006b14612d175780630c5fba3f14612cad5780630e4d116914612c92578063117b63a114612c7557806312e35df214612c2c5780631314097714612c0f578063177f8d6014612bc45780631995333b146129e05780631b44a048146129c35780631e9f791b146129a25780631f0e54cf146129515780631f4d956b146129225780632104ebf1146127d757806323452b9c146127ad578063265020e6146126fe57806326db4cd5146126e757806327259cf5146126965780632b0f0cfd1461267b5780632b4691651461265f5780632be57bbb146126385780632d55ea39146126105780632e55ffe0146125f357806331d46b19146125db578063363836f814612593578063397a1b28146123dc57806339d55f7f1461239c578063412847d41461236857806341d4a5dd146121ff57806342dfac72146121e35780634d380275146121a85780634dc1ecc61461218b5780634deac2fc146121455780634f3f0ade146121225780634f488a821461136b57806352062f66146120c957806352375bb11461202a5780635636963b14611e425780635c59c2fe14611c24578063626a5fe614611be1578063633a109f14611a66578063642ce35514611a4a578063652bb36614611a2057806372c8ae3b146119f857806374109cf6146119d457806375f0a5341461185f57806376699dfa1461184257806379ba50971461179b5780637ab603d3146116dc5780637c484a1b146114bd578063800f8293146114755780638036b096146113705780638040210a1461136b578063807f09711461134e578063840190e114611316578063850a1c50146112c55780638793e742146111a15780638da5cb5b1461117a578063936014ca1461115d57806398adda0d1461111d578063992a7dfb146110b857806399656ff11461109b5780639f01f7ba14610fec578063a3c2c46214610fcf578063a5e90eee14610f45578063a64cf73714610ed0578063a65edb0614610eb3578063a70009e314610d64578063ac54db3914610d47578063aff7844814610cff578063b435dee114610c0f578063b9b2b1c614610ba1578063b9f127cd14610afe578063bab2c8e314610ac1578063bdca187214610828578063c0995f6e14610aa6578063c0acc41a14610a3d578063c2838fe914610a20578063c3b86884146109c7578063c616e25a146109ac578063c86c8bb214610988578063c95e918d14610959578063cd3f24f51461093c578063d5999a5c1461091f578063d89135cd14610902578063d954a53c146108e7578063dcf91156146108cc578063dd292b5e146108af578063e071c1c01461082d578063e1e09bc214610828578063e30c397814610800578063e4c02d0c146107e5578063e82db489146107c9578063ee5ecc891461072c578063eef573be146106ca578063ef36f7dc146106af578063f040050514610692578063f2fde38b146105ec578063f30afd8e146105d0578063f3ae241514610593578063f837becd14610576578063fb6e4bb41461055b578063fd6e38d514610533578063fd72e22a146105095763fd967f47146104e9575f80fd5b34610505575f3660031901126105055760206040516127108152f35b5f80fd5b34610505575f366003190112610505576009546040805191901c6001600160a01b03168152602090f35b34610505575f366003190112610505576007546040516001600160a01b039091168152602090f35b34610505575f366003190112610505576020604051600c8152f35b34610505575f366003190112610505576020600e54604051908152f35b34610505576020366003190112610505576001600160a01b036105b4612f0a565b165f526008602052602060ff60405f2054166040519015158152f35b34610505575f366003190112610505576020604051611f408152f35b3461050557602036600319011261050557610605612f0a565b61060d613ba3565b6001600160a01b0316801561066157600180546001600160a01b031916821790555f80546001600160a01b0316907f38d16b8cac22d99fc7c124b9cd0de2d3fa1faef420bfe791d8c362d765e227009080a3005b60405162461bcd60e51b81526020600482015260096024820152684f574e3a207a65726f60b81b6044820152606490fd5b34610505575f366003190112610505576020601254604051908152f35b34610505575f36600319011261050557602060405160058152f35b34610505576020366003190112610505576106e3612f0a565b335f52600860205260ff60405f2054161580610718575b610709576107079061397f565b005b635b9938e160e11b5f5260045ffd5b505f546001600160a01b03163314156106fa565b3461050557602036600319011261050557610745612f0a565b61074d613ba3565b6001600160a01b03811615610791576009805468010000000000000000600160e01b03191660409290921b68010000000000000000600160e01b0316919091179055005b60405162461bcd60e51b815260206004820152601060248201526f1150d3ce881e995c9bc81dd85b1b195d60821b6044820152606490fd5b34610505575f3660031901126105055760206040516117708152f35b34610505575f36600319011261050557602060405160198152f35b34610505575f366003190112610505576001546040516001600160a01b039091168152602090f35b61301c565b3461050557602036600319011261050557610846612f0a565b61084e613ba3565b6001600160a01b031680156108a057600680546001600160a01b0319811683179091556001600160a01b03167fa0a9d6ecb76ebc110016cc8177e79af5c57330922a027f736c9c357fecbfaf7e5f80a3005b63ef85f47d60e01b5f5260045ffd5b34610505575f366003190112610505576020601354604051908152f35b34610505575f36600319011261050557602060405160648152f35b34610505575f36600319011261050557602060405160038152f35b34610505575f366003190112610505576020602c54604051908152f35b34610505575f36600319011261050557602060405162278d008152f35b34610505575f3660031901126105055760206040516202a3008152f35b34610505576020366003190112610505576004355f526018602052602060ff60405f2054166040519015158152f35b34610505575f36600319011261050557602061ffff60095460301c16604051908152f35b34610505575f36600319011261050557602060405160048152f35b34610505576040366003190112610505576109e0612f0a565b6109e8612ef4565b335f52600860205260ff60405f2054161580610a0c575b6107095761070791613829565b505f546001600160a01b03163314156109ff565b34610505575f366003190112610505576020601e54604051908152f35b3461050557602036600319011261050557600435610a59613ba3565b6276a7008111610a6857600b55005b60405162461bcd60e51b815260206004820152601660248201527545434f3a20636f6f6c646f776e20746f6f206c6f6e6760501b6044820152606490fd5b34610505575f36600319011261050557602060405160018152f35b34610505576020366003190112610505576001600160a01b03610ae2612f0a565b165f526026602052602060ff60405f2054166040519015158152f35b3461050557602036600319011261050557610b17612f0a565b601b5490815f52601f60205260405f2060018060a01b0382165f52602052610b4861ffff60405f2054169183613f08565b601c54601d5493816276a700026276a70081048303610b8d57610b6f60ff9160a097613037565b93604051958652166020850152604084015260608301526080820152f35b634e487b7160e01b5f52601160045260245ffd5b346105055760203660031901126105055760606001600160a01b03610bc4612f0a565b165f90815260246020908152604080832054602583528184205460268452938290205482516001600160a01b039283168152949091169284019290925260ff91909116151590820152f35b3461050557602036600319011261050557610c28612f0a565b6013545f8181526014602090815260408083206001600160a01b0380871680865291845282852054601a855294839020546006549351630d47875d60e41b815260048101939093529596949593919283916024918391165afa948515610cf457610cab60ff94610ca560809861ffff955f91610cc5575b5061401a565b92613c3f565b926040519586526020860152166040840152166060820152f35b610ce7915060203d602011610ced575b610cdf8183613052565b810190613074565b8a610c9f565b503d610cd5565b6040513d5f823e3d90fd5b3461050557610d0d36612f20565b905f52601660205260405f20805482101561050557602091610d2e91612f36565b905460405160039290921b1c6001600160a01b03168152f35b34610505575f366003190112610505576020600c54604051908152f35b34610505575f36600319011261050557335f52600860205260ff60405f2054161580610e9f575b61070957601d54601c54806276a70002906276a700820403610b8d57610db091613037565b4210610e9057610dbe61340b565b600e54601b545f52602160205260405f20601c545f5260205260405f2055601b545f52602360205260405f20601c545f5260205260405f20600160ff198254161790555f600e55601b547f7ac1837a9e0bba83b018c5bfa58e6626fb69d2c225045ad59cd68af8feb041986060601c5492805f52602160205260405f20845f5260205260405f20546040519182528460208301526040820152a160048103610e7f57506001601c55610e71601b54613044565b601b5542601d555b42601e55005b610e8890613044565b601c55610e79565b634eb526c760e01b5f5260045ffd5b505f546001600160a01b0316331415610d8b565b34610505575f366003190112610505576020602954604051908152f35b34610505575f3660031901126105055760a0600f54600180831b0360095460401c16600a54610f01600b5482613037565b90814210159283610f3b575b83610f31575b60405194855260208501526040840152606083015215156080820152f35b8415159350610f13565b8015159350610f0d565b3461050557604036600319011261050557610f5e612f0a565b6024359081151591828103610505577fff83ce179bad4fbdb0e98074011487cde624295a52d8189d92d5d8b06c914eda92610fc2604093610f9d613ba3565b60018060a01b031692835f526008602052845f209060ff801983541691151516179055565b82519182526020820152a1005b34610505575f366003190112610505576020601054604051908152f35b3461050557602036600319011261050557600435611008613ba3565b805f526028602052600360405f2001805461102660ff82161561321f565b60ff8160081c166110625761ff0019166101001790557fc25927a40d50ab2ae053ddebccbcbd7f606855406d91ed39ffcc28c07abbd0cc5f80a2005b60405162461bcd60e51b8152602060048201526011602482015270185b1c9958591e4818d85b98d95b1b1959607a1b6044820152606490fd5b34610505575f366003190112610505576020602a54604051908152f35b34610505576020366003190112610505576004355f52602860205260a060405f2060ff600180841b03825416916001810154906003600282015491015491604051948552602085015260408401528181161515606084015260081c1615156080820152f35b34610505576020366003190112610505576001600160a01b0361113e612f0a565b165f526024602052602060018060a01b0360405f205416604051908152f35b34610505575f366003190112610505576020600a54604051908152f35b34610505575f366003190112610505575f546040516001600160a01b039091168152602090f35b34610505575f366003190112610505576005546040516370a0823160e01b815230600482015290602090829060249082906001600160a01b03165afa908115610cf4575f91611293575b50600c549061128f600d546112008185613037565b9061120e600e548093613037565b9461126061125761124e611225602954809a613037565b611249611235602a548093613037565b91611243602b548094613037565b9b613037565b613037565b602c5490613037565b602d5490613037565b604051968796879260a094919796959260c0850198855260208501526040840152606083015260808201520152565b0390f35b90506020813d6020116112bd575b816112ae60209383613052565b810103126105055751816111eb565b3d91506112a1565b34610505576020366003190112610505576112de612f0a565b335f52600860205260ff60405f2054161580611302575b61070957610707906136aa565b505f546001600160a01b03163314156112f5565b34610505576020366003190112610505576001600160a01b03611337612f0a565b165f52601a602052602060405f2054604051908152f35b34610505575f366003190112610505576020602754604051908152f35b6108e7565b346105055760203660031901126105055761138961300b565b611391613ba3565b61ffff81166101f481101580611469575b1561143157612710039061ffff8211610b8d57600361ffff8316049161ffff83169267ffff00000000000065ffff000000006114076113ee8763ffff00006009549660101b1696613694565b63ffffffff1985168817861760101c61ffff1690613694565b60201b169360301b169367ffff000000000000199165ffffffffffff191617161717176009555f80f35b60405162461bcd60e51b815260206004820152601060248201526f45434f3a20696e76616c69642062707360801b6044820152606490fd5b50610fa08111156113a2565b346105055760403660031901126105055761148e612ef4565b6004355f52601560205260405f209060018060a01b03165f52602052602061ffff60405f205416604051908152f35b34610505576114cb36612f20565b6114d3613bec565b801580156116d2575b61167c57815f52602360205260405f20815f5260205260ff60405f20541615611695575f828152602260209081526040808320848452825280832033845290915290205460ff166116c3575f828152601f6020908152604080832033845290915290205461ffff161561169557600654604051630d47875d60e41b815233600482015290602090829060249082906001600160a01b03165afa908115610cf4576117709161ffff915f916116a4575b5016106116955760ff61159e3384613f08565b16908115801561168b575b61167c57825f52602160205260405f20815f5260205260405f20545f19830160ff8111610b8d576127109161ffff6115e36115f193612ff0565b90549060031b1c16906133f8565b5f8581526022602090815260408083208684528252808320338085529252909120805460ff1916600117905560055492909104929161163a9184916001600160a01b0316613ad0565b6040519384526020840152604083015260608201527f8c6745466716fda91d91c51b58533a360f3faf7ba5252dd79c8d5744a3affc7d60803392a26001600255005b634c8a5c7560e11b5f5260045ffd5b50601482116115a9565b632f6f86f560e11b5f5260045ffd5b6116bd915060203d602011610ced57610cdf8183613052565b8561158b565b630ce1d3a160e11b5f5260045ffd5b50600481116114dc565b346105055760403660031901126105055760a06004356116fa612ef4565b815f52601460205260405f20600180851b0382165f5260205260405f205491805f52601560205260405f20600180861b0383165f5260205261ffff60405f20541691815f52601960205260405f2090600180871b03165f5260205260ff60405f205416815f52601860205260ff60405f205416915f52601760205260405f205492604051948552602085015215156040840152151560608301526080820152f35b34610505575f366003190112610505576001546001600160a01b0381163303611804575f543360018060a01b0382167f8be0079c531659141344cd1fd0a4f28419497f9722a3daafe3b4186f6b6457e05f80a36001600160a01b031990811633175f5516600155005b60405162461bcd60e51b815260206004820152601660248201527527aba71d103737ba103832b73234b7339037bbb732b960511b6044820152606490fd5b34610505575f366003190112610505576020600d54604051908152f35b346105055760203660031901126105055760043561187b613bec565b805f52601860205260ff60405f20541615611695575f81815260196020908152604080832033845290915290205460ff166116c3575f81815260146020908152604080832033845290915290205415611695576118d83382613c3f565b60ff811680159081156119c9575b5061167c576119126118fa61271092613e9f565b835f52601760205261ffff60405f20549116906133f8565b0490805f52601960205260405f2060018060a01b0333165f5260205260405f20600160ff19825416179055335f52601a60205260405f20611954838254613037565b905560055461196f90839033906001600160a01b0316613ad0565b5f52601560205260405f2060018060a01b0333165f5260205261ffff60405f20541660405191825260208201527f7ccc0c3537c6dc751d1223af030053352b2e976c890c461e81aac0d3f91dd39260403392a26001600255005b6064915011836118e6565b34610505575f36600319011261050557602061ffff60095460101c16604051908152f35b34610505575f366003190112610505576005546040516001600160a01b039091168152602090f35b34610505576020366003190112610505576004355f526017602052602060405f2054604051908152f35b34610505575f36600319011261050557602060405161251c8152f35b3461050557606036600319011261050557611a7f612f0a565b6024359060443567ffffffffffffffff811161050557366023820112156105055780600401359267ffffffffffffffff841161050557366024858401011161050557335f52600860205260ff60405f2054161580611bcd575b610709576005546040516370a0823160e01b81523060048201526001600160a01b039091169190602081602481865afa8015610cf45782915f91611b98575b5010611b895783611b4c827f5ce0614a46459714585c219d6fb0dd3a4b01b81fc18567ebe68bf418067c91d496606095613ad0565b85602460405195869485526040602086015282604086015201848401375f8287018401526001600160a01b031694601f01601f19168101030190a2005b63584d195b60e01b5f5260045ffd5b9150506020813d602011611bc5575b81611bb460209383613052565b810103126105055781905187611b17565b3d9150611ba7565b505f546001600160a01b0316331415611ad8565b3461050557602036600319011261050557611bfa612f0a565b611c02613ba3565b600780546001600160a01b0319166001600160a01b0392909216919091179055005b34610505575f36600319011261050557335f52600860205260ff60405f2054161580611e2e575b61070957611c57613bec565b60115462278d008101809111610b8d574210610e90576007546001600160a01b0316156108a057611c8661340b565b600c548015611b895760075460405163121dabaf60e21b8152905f90829060049082906001600160a01b03165afa908115610cf4575f91611d8c575b5060ff8151169081156108a057818304828406600c555f5b60ff811684811015611d3d5760ff91600191846001600160a01b03611cff83896132b5565b5116611d0f575b50500116611cda565b611d3691848060a01b036005541690611d2e868060a01b03918a6132b5565b511690613ad0565b8784611d06565b7fd17b72b5549c72d13491e1f39ee964fc864bb81afae4cec2363f018417d014ef60608685611d738a42601155600c54906132a8565b9160405192835260208301526040820152a16001600255005b90503d805f833e611d9d8183613052565b8101906020818303126105055780519067ffffffffffffffff821161050557019080601f8301121561050557815190611dd58261325e565b92611de36040519485613052565b82845260208085019360051b82010191821161050557602001915b818310611e0e5750505082611cc2565b82516001600160a01b038116810361050557815260209283019201611dfe565b505f546001600160a01b0316331415611c4b565b3461050557606036600319011261050557611e5b61300b565b60243561ffff8116808203610505576044359261ffff84169081850361050557611e83613ba3565b61271061ffff611e9c87611e97888661367e565b61367e565b1603611ff35761ffff16916101f48310611fae576101f48110611f69576101f48210611f24577f025122528fe9426d02452a38a1fc2ce1449397dc97df9d9bcf156f4e954b74cc9460609463ffff00008565ffff000000006009549460201b169365ffffffffffff1916179160101b16171760095560405192835260208301526040820152a1005b60405162461bcd60e51b815260206004820152601d60248201527f45434f3a206865616468756e7465722062656c6f77206d696e696d756d0000006044820152606490fd5b60405162461bcd60e51b815260206004820152601b60248201527f45434f3a206d65726368616e742062656c6f77206d696e696d756d00000000006044820152606490fd5b60405162461bcd60e51b815260206004820152601a60248201527f45434f3a20636f756e63696c2062656c6f77206d696e696d756d0000000000006044820152606490fd5b60405162461bcd60e51b815260206004820152600f60248201526e6d75737420746f74616c203130302560881b6044820152606490fd5b34610505575f366003190112610505576024600c54600d54600e54602060018060a01b0360055416604051958680926370a0823160e01b82523060048301525afa918215610cf4575f92612094575b60809450604051938452602084015260408301526060820152f35b91506020843d6020116120c1575b816120af60209383613052565b81010312610505576080935191612079565b3d91506120a2565b34610505576040366003190112610505576120e2612f0a565b6120ea612ef4565b335f52600860205260ff60405f205416158061210e575b610709576107079161356b565b505f546001600160a01b0316331415612101565b34610505575f36600319011261050557602061ffff600954821c16604051908152f35b346105055761215336612f5f565b915f52602260205260405f20905f5260205260405f209060018060a01b03165f52602052602060ff60405f2054166040519015158152f35b34610505575f366003190112610505576020600b54604051908152f35b346105055760203660031901126105055760043560148110156105055761ffff6121d3602092612ff0565b90549060031b1c16604051908152f35b34610505575f3660031901126105055760206040516121348152f35b34610505575f36600319011261050557612217613ba3565b61221f613bec565b60095460401c6001600160a01b03161561232e57612242600a54600b5490613037565b42106122f95761225061340b565b600f5480156122c4575f600f5542600a5560055460095461228291839160401c6001600160a01b039081169116613ad0565b600954604080519283521c6001600160a01b0316907f58e68cd0cca2fd08275f12ec27861c91b8c9bde83f8831205368bf2f932d2c8290602090a26001600255005b60405162461bcd60e51b815260206004820152600d60248201526c45434f3a206e6f2066756e647360981b6044820152606490fd5b60405162461bcd60e51b815260206004820152600d60248201526c22a1a79d1031b7b7b63237bbb760991b6044820152606490fd5b60405162461bcd60e51b81526020600482015260126024820152711150d3ce881b9bc81bdc1cc81dd85b1b195d60721b6044820152606490fd5b346105055761237636612f20565b905f52602360205260405f20905f52602052602060ff60405f2054166040519015158152f35b34610505576020366003190112610505576001600160a01b036123bd612f0a565b165f526025602052602060018060a01b0360405f205416604051908152f35b34610505576040366003190112610505576123f5612f0a565b60243590612401613ba3565b6001600160a01b038116801561256457821561253157612422602754613044565b91826027556040519360a085019185831067ffffffffffffffff84111761251d5760209585947f4270d36c10eeecefc724efcd994c9d273660fcf9beb749ca205d6dcc6fe5e2be9460405281528681018381526124e56003604084019342855260608101945f865260808201945f86528a5f5260288d5260405f209260018060a01b039060018060a01b03905116166001600160601b0360a01b8454161783555160018301555160028201550192511515839060ff801983541691151516179055565b51815461ff00191690151560081b61ff0016179055604080516001600160a01b039290921682526020820192909252a2604051908152f35b634e487b7160e01b5f52604160045260245ffd5b60405162461bcd60e51b815260206004820152600b60248201526a1e995c9bc8185b5bdd5b9d60aa1b6044820152606490fd5b60405162461bcd60e51b81526020600482015260076024820152667a65726f20746f60c81b6044820152606490fd5b34610505576040366003190112610505576125ac612ef4565b6004355f52601f60205260405f209060018060a01b03165f52602052602061ffff60405f205416604051908152f35b34610505575f3660031901126105055761070761340b565b34610505575f366003190112610505576020601154604051908152f35b34610505575f366003190112610505576006546040516001600160a01b039091168152602090f35b346105055761264f61264936612f89565b91613373565b9061128f60405192839283612fa3565b34610505575f3660031901126105055760206040516101f48152f35b34610505575f36600319011261050557602060405160028152f35b34610505575f3660031901126105055761010060405161251c8152600560208201526123286040820152600460608201526121346080820152600360a0820152611f4060c0820152600260e0820152f35b346105055761264f6126f836612f89565b916132c9565b3461050557608061270e36612f5f565b91805f52601f60205260405f2060018060a01b0384165f5260205261ffff60405f20541692815f52602260205260405f20835f5260205260405f209060018060a01b03165f5260205260ff60405f20541691815f52602360205260405f20815f5260205260ff60405f205416915f52602160205260405f20905f5260205260405f20549160405193845215156020840152151560408301526060820152f35b34610505575f366003190112610505576127c5613ba3565b600180546001600160a01b0319169055005b34610505576020366003190112610505576004356127f3613ba3565b6127fb613bec565b805f52602860205260405f20600381019081549161281c60ff84161561321f565b60ff8360081c166128f15760028201546202a3008101809111610b8d5742106128b657600160ff199390931683179055600554815492820180547f83ddacb169e140af5f24cc0352129d755797bfced4f17086308bdf6ab6f2da2e94919392612891926001600160a01b039081169116613ad0565b549054604080516001600160a01b039093168352602083019190915290a26001600255005b60405162461bcd60e51b81526020600482015260136024820152721d1a5b595b1bd8dac81b9bdd081c185cdcd959606a1b6044820152606490fd5b60405162461bcd60e51b815260206004820152600960248201526818d85b98d95b1b195960ba1b6044820152606490fd5b346105055761293036612f20565b905f52602160205260405f20905f52602052602060405f2054604051908152f35b346105055760203660031901126105055761296a612f0a565b335f52600860205260ff60405f205416158061298e575b610709576107079061308e565b505f546001600160a01b0316331415612981565b34610505575f36600319011261050557602061ffff60095416604051908152f35b34610505575f366003190112610505576020602b54604051908152f35b3461050557602036600319011261050557600435335f52600860205260ff60405f2054161580612bb0575b610709576005546040516370a0823160e01b81523060048201526001600160a01b0390911690602081602481855afa8015610cf45783915f91612b7b575b5010611b89575f809160405182602082019163a9059cbb60e01b835261dead602482015286604482015260448152612a82606482613052565b51925af13d15612b74573d67ffffffffffffffff811161251d5760405190612ab4601f8201601f191660200183613052565b81523d5f602083013e5b81612b3c575b5015612af75760207fe2a0d56d128408deff6c63b30ce69c78024280bc67a251ee2bb096dc08ff1c1e91604051908152a1005b60405162461bcd60e51b815260206004820152601a60248201527f5361666545524332303a207472616e73666572206661696c65640000000000006044820152606490fd5b8051801592508215612b51575b505082612ac4565b819250906020918101031261050557602001518015158103610505578280612b49565b6060612abe565b9150506020813d602011612ba8575b81612b9760209383613052565b810103126105055782905184612a49565b3d9150612b8a565b505f546001600160a01b0316331415612a0b565b3461050557602036600319011261050557612bdd612f0a565b50335f52600860205260ff60405f2054161580612bfb575b61070957005b505f546001600160a01b0316331415612bf5565b34610505575f366003190112610505576020601c54604051908152f35b3461050557604036600319011261050557612c45612ef4565b6004355f52601960205260405f209060018060a01b03165f52602052602060ff60405f2054166040519015158152f35b34610505575f366003190112610505576020602d54604051908152f35b34610505575f36600319011261050557602060405160148152f35b34610505575f36600319011261050557602954602a549061128f602b54602c54602d5490612ce78261124983611249876112498c8c613037565b92604051968796879260a094919796959260c0850198855260208501526040840152606083015260808201520152565b34610505575f366003190112610505576020601b54604051908152f35b34610505575f366003190112610505576020601d54604051908152f35b34610505575f366003190112610505576020600f54604051908152f35b3461050557612d7c36612f20565b905f526020805260405f20805482101561050557602091610d2e91612f36565b34610505575f3660031901126105055760206040516123288152f35b3461050557604036600319011261050557612dd1612ef4565b6004355f52601460205260405f209060018060a01b03165f52602052602060405f2054604051908152f35b34610505575f3660031901126105055760206040516276a7008152f35b34610505575f36600319011261050557335f52600860205260ff60405f2054161580612ee0575b6107095760125462278d008101809111610b8d574210610e9057612e6261340b565b600d546013545f52601760205260405f20556013545f52601860205260405f20600160ff198254161790555f600d55612edb601354805f5260176020527f09345695c9668e739d09bd56c0d9a9fe8c3ff04b179f4ba344b848cf45c268d46040805f20548151908482526020820152a142601255613044565b601355005b505f546001600160a01b0316331415612e40565b602435906001600160a01b038216820361050557565b600435906001600160a01b038216820361050557565b6040906003190112610505576004359060243590565b8054821015612f4b575f5260205f2001905f90565b634e487b7160e01b5f52603260045260245ffd5b60609060031901126105055760043590602435906044356001600160a01b03811681036105055790565b606090600319011261050557600435906024359060443590565b92919060408401906040855280518092526020606086019101915f5b818110612fd157505060209150930152565b83516001600160a01b0316835260209384019390920191600101612fbf565b906014821015612f4b57601e8260041c6003019260011b1690565b6004359061ffff8216820361050557565b34610505575f36600319011261050557602060405160c88152f35b91908201809211610b8d57565b5f198114610b8d5760010190565b90601f8019910116810190811067ffffffffffffffff82111761251d57604052565b90816020910312610505575161ffff811681036105055790565b6001600160a01b039081165f8181526025602052604090205490911680156131fc57815f52602660205260ff60405f2054166131fc57600654604051630d47875d60e41b81526004810183905290602090829060249082906001600160a01b03165afa908115610cf4576117709161ffff915f91613200575b5016106131fc57815f52602660205260405f20600160ff19825416179055601b54805f52601f60205260405f2060018060a01b0383165f5260205261ffff60405f205416156131c0575b50601b545f52601f60205260405f2060018060a01b0382165f5260205260405f2061ffff61318360018284541661367e565b1661ffff198254161790557fed4e7058ceee79d559da4497e0dc1c8bef05f5a58696203c7c5bebc63b99edd9604080515f815260016020820152a3565b805f526020805260c860405f205410156131ed575f52602080526131e78160405f20613939565b5f613151565b63387f421f60e11b5f5260045ffd5b5050565b613219915060203d602011610ced57610cdf8183613052565b5f613107565b1561322657565b60405162461bcd60e51b815260206004820152601060248201526f185b1c9958591e48195e1958dd5d195960821b6044820152606490fd5b67ffffffffffffffff811161251d5760051b60200190565b906132808261325e565b61328d6040519182613052565b828152809261329e601f199161325e565b0190602036910137565b91908203918211610b8d57565b8051821015612f4b5760209160051b010190565b9290925f52601660205260405f2080549283851015613355576132ec9085613037565b8484821161334d575b6132fe916132a8565b9061330882613276565b945f5b8381106133185750505050565b8061332e61332860019385613037565b85612f36565b838060a01b0391549060031b1c16613346828a6132b5565b520161330b565b8491506132f5565b5050909150604051613368602082613052565b5f81525f3681379190565b9290925f526020805260405f2080549283851015613355576133959085613037565b848482116133f0575b6133a7916132a8565b906133b182613276565b945f5b8381106133c15750505050565b806133d161332860019385613037565b838060a01b0391549060031b1c166133e9828a6132b5565b52016133b4565b84915061339e565b81810292918115918404141715610b8d57565b6005546040516370a0823160e01b815230600482015290602090829060249082906001600160a01b03165afa908115610cf4575f91613539575b50600c5490600d546134578184613037565b92613465600e548095613037565b92613473600f548095613037565b8082111561353057613484916132a8565b925b83613493575b5050505050565b6135106134f56135239661350861ffff613518976135006009546134fa8c6127106134c0878516836133f8565b0498836134f56127106134ec816134de8f998d9060101c16886133f8565b049a8b9460201c16866133f8565b049b8c946132a8565b6132a8565b99613037565b600c55613037565b600d55613037565b600e55613037565b600f55601054613037565b6010555f8080808061348c565b50505f92613486565b90506020813d602011613563575b8161355460209383613052565b8101031261050557515f613445565b3d9150613547565b6001600160a01b03909116908115801561366c575b6131fc576001600160a01b039081165f818152602460205260409020549091166131fc57805f52602660205260ff60405f2054166131fc57600654604051630d47875d60e41b81526004810184905290602090829060249082906001600160a01b03165afa908115610cf4576117709161ffff915f9161364d575b5016106131fc57805f52602460205260405f20826001600160601b0360a01b8254161790557fa81bd0dacd20bf8e738dd9d07f2bb5be010e8b9061de505b453a5df5f09288bb602060405160018152a3565b613666915060203d602011610ced57610cdf8183613052565b5f6135fb565b506001600160a01b0381168214613580565b9061ffff8091169116019061ffff8211610b8d57565b9061ffff8091169116039061ffff8211610b8d57565b6001600160a01b039081165f8181526024602052604090205490911680156131fc57815f52602660205260ff60405f2054166131fc57600654604051630d47875d60e41b81526004810183905290602090829060249082906001600160a01b03165afa908115610cf4576117709161ffff915f9161380a575b5016106131fc57815f52602660205260405f20600160ff19825416179055601b54805f52601f60205260405f2060018060a01b0383165f5260205261ffff60405f205416156137dd575b50601b545f52601f60205260405f2060018060a01b0382165f5260205260405f2061ffff61379f60038284541661367e565b1661ffff198254161790557fed4e7058ceee79d559da4497e0dc1c8bef05f5a58696203c7c5bebc63b99edd9604080516001815260036020820152a3565b805f526020805260c860405f205410156131ed575f52602080526138048160405f20613939565b5f61376d565b613823915060203d602011610ced57610cdf8183613052565b5f613723565b6001600160a01b03169081158015613927575b6131fc576001600160a01b039081165f818152602560205260409020549091166131fc57805f52602660205260ff60405f2054166131fc57600654604051630d47875d60e41b81526004810184905290602090829060249082906001600160a01b03165afa908115610cf4576117709161ffff915f91613908575b5016106131fc57805f52602560205260405f20826001600160601b0360a01b8254161790557fa81bd0dacd20bf8e738dd9d07f2bb5be010e8b9061de505b453a5df5f09288bb60206040515f8152a3565b613921915060203d602011610ced57610cdf8183613052565b5f6138b7565b506001600160a01b038116821461383c565b80546801000000000000000081101561251d5761395b91600182018155612f36565b81546001600160a01b0393841660039290921b91821b9390911b1916919091179055565b600654604051630d47875d60e41b81526001600160a01b038381166004830152909160209183916024918391165afa908115610cf45761ffff916139c9915f91613ab1575061401a565b169081156131fc57601354805f52601460205260405f2060018060a01b0383165f5260205260405f205415613a81575b506013545f52601460205260405f2060018060a01b0382165f5260205260405f20613a248154613044565b9055601354805f52601560205260405f2060018060a01b0383165f5260205261ffff60405f2054168311613a5757505050565b5f52601560205260405f209060018060a01b03165f5260205260405f209061ffff19825416179055565b805f5260166020526101f460405f205410156131ed575f526016602052613aab8160405f20613939565b5f6139f9565b613aca915060203d602011610ced57610cdf8183613052565b5f610c9f565b60405163a9059cbb60e01b602082019081526001600160a01b039390931660248201526044808201949094529283525f928392908390613b11606482613052565b51926001600160a01b03165af13d15613b9c573d67ffffffffffffffff811161251d5760405190613b4c601f8201601f191660200183613052565b81523d5f602083013e5b81613b64575b5015612af757565b8051801592508215613b79575b50505f613b5c565b819250906020918101031261050557602001518015158103610505575f80613b71565b6060613b56565b5f546001600160a01b03163303613bb657565b60405162461bcd60e51b815260206004820152600e60248201526d27aba71d103737ba1037bbb732b960911b6044820152606490fd5b600160025403613bfc5760028055565b60405162461bcd60e51b815260206004820152600a6024820152697265656e7472616e637960b01b6044820152606490fd5b60ff1660ff8114610b8d5760010190565b9190825f52601460205260405f2060018060a01b0382165f52602052613c8c60405f2054845f52601560205260405f2060018060a01b0384165f5260205261ffff60405f205416906133f8565b8015613e9857600191845f52601660205260405f209485549460c88611613d7d575f5b86811080613d6f575b15613d645784613cc8828a612f36565b90546001600160a01b0360039290921b1c81169086168103613cf5575b5050613cf090613044565b613caf565b613d4290855f52601460205260405f2060018060a01b0382165f5260205260405f205490865f52601560205260405f209060018060a01b03165f5260205261ffff60405f205416906133f8565b11613d4f575b845f613ce5565b94613d5c613cf091613c2e565b959050613d48565b509550505050905090565b50606460ff87161115613cb8565b9591925f959194959360c8830495878701809711610b8d5787935f855b613dce575b5050505050505090613db0916133f8565b908101809111610b8d5760ff1660648111613dc85790565b50606490565b81811080613e8e575b15613e89578085613de98b938a612f36565b90546001600160a01b0360039290921b1c81169087168103613e18575b505090613e1291613037565b85613d9a565b613e6590865f52601460205260405f2060018060a01b0382165f5260205260405f205490875f52601560205260405f209060018060a01b03165f5260205261ffff60405f205416906133f8565b11613e72575b855f613e06565b9790613e80613e1292613044565b98909150613e6b565b613d9f565b5060648810613dd7565b505f925050565b60ff1680158015613efe575b613ef9576005811115613ef257600a811115613eeb576014811115613ee5576028811115613dc857603c1015613ee057601990565b603290565b5060c890565b5061012c90565b506101f490565b505f90565b5060648111613eab565b805f52601f60205260405f2060018060a01b0383165f5260205261ffff60405f20541690811561401357600191815f526020805260405f20805460c881115f1461400d575060c8945b5f5b86811080613fff575b15613ff557613f6b8184612f36565b905460039190911b1c6001600160a01b03908116908316141580613fb2575b613f9d575b613f9890613044565b613f53565b94613faa613f9891613c2e565b959050613f8f565b50845f52601f60205260405f20613fc98285612f36565b905460039190911b1c6001600160a01b03165f908152602091909152604090205461ffff168410613f8a565b5050505050905090565b50601460ff87161115613f5c565b94613f51565b5050505f90565b61ffff1661251c81101561405a576123288110156140545761213481101561404e57611f401115614049575f90565b600290565b50600390565b50600490565b5060059056fea2646970667358221220b667ccb62e2871a87a8c1e45c8999e5f5841189256f436a58518867e4bbb575264736f6c634300081e0033","linkReferences":{}},"methodIdentifiers":{"HEADHUNTER_MIN_SCORE()":"e82db489","HEADHUNTER_RANKS()":"0e4d1169","HEADHUNTER_RANK_SHARE_BPS(uint256)":"4d380275","MAX_BPS()":"fd967f47","MAX_COUNCIL_MEMBERS()":"fb6e4bb4","MAX_MERCHANTS_PER_PERIOD()":"034c32a2","MAX_RANK_ITERATIONS()":"bdca1872","MAX_REFERRERS_PER_YEAR()":"e1e09bc2","MERCHANT_RANKS()":"dcf91156","MIN_ALLOCATION_BPS()":"2b469165","MIN_MERCHANT_TX()":"d954a53c","MIN_USER_VAULT_USD()":"e4c02d0c","MONTH()":"d5999a5c","POINTS_MERCHANT_REFERRAL()":"4f488a82","POINTS_USER_REFERRAL()":"c0995f6e","QUARTER()":"038c0f77","TIER1_MULTIPLIER()":"ef36f7dc","TIER1_THRESHOLD()":"642ce355","TIER2_MULTIPLIER()":"c616e25a","TIER2_THRESHOLD()":"086d2c87","TIER3_MULTIPLIER()":"8040210a","TIER3_THRESHOLD()":"42dfac72","TIER4_MULTIPLIER()":"2b0f0cfd","TIER4_THRESHOLD()":"f30afd8e","WITHDRAW_TIMELOCK()":"cd3f24f5","acceptOwnership()":"79ba5097","allocateIncoming()":"31d46b19","burnFunds(uint256)":"1995333b","cancelOwnershipTransfer()":"23452b9c","cancelWithdraw(uint256)":"9f01f7ba","checkHeadhunterReward(address)":"177f8d60","claimHeadhunterReward(uint256,uint256)":"7c484a1b","claimMerchantReward(uint256)":"75f0a534","councilBps()":"1e9f791b","councilManager()":"fd6e38d5","councilPool()":"ac54db39","creditMerchantReferral(address)":"850a1c50","creditUserReferral(address)":"1f0e54cf","currentMerchantPeriod()":"dd292b5e","currentQuarter()":"13140977","currentYear()":"0b5a006b","distributeCouncilRewards()":"5c59c2fe","endHeadhunterQuarter()":"a70009e3","endMerchantPeriod()":"02c8a517","executeWithdraw(uint256)":"2104ebf1","getHeadhunterStats(address)":"b9f127cd","getMerchantStats(address)":"b435dee1","getMerchantTierMultipliers()":"27259cf5","getMerchantsPaginated(uint256,uint256,uint256)":"26db4cd5","getOperationsStatus()":"a64cf737","getPendingReferral(address)":"b9b2b1c6","getPoolBalances()":"52375bb1","getReferrersPaginated(uint256,uint256,uint256)":"2be57bbb","getSpendingSummary()":"0c5fba3f","getVaultHealth()":"8793e742","headhunterBps()":"4f3f0ade","headhunterPool()":"f837becd","isManager(address)":"f3ae2415","lastCouncilDistribution()":"2e55ffe0","lastMerchantDistribution()":"f0400505","lastOperationsWithdrawal()":"936014ca","lastQuarterPayout()":"c2838fe9","merchantBps()":"74109cf6","merchantPeriodClaimed(uint256,address)":"12e35df2","merchantPeriodEnded(uint256)":"c95e918d","merchantPeriodPoolSnapshot(uint256)":"652bb366","merchantPool()":"76699dfa","operationsBps()":"c86c8bb2","operationsPool()":"096fa744","operationsWallet()":"fd72e22a","operationsWithdrawalCooldown()":"4dc1ecc6","owner()":"8da5cb5b","payExpense(address,uint256,string)":"633a109f","pendingMerchantReferrer(address)":"98adda0d","pendingOwner()":"e30c3978","pendingUserReferrer(address)":"39d55f7f","periodMerchantTier(uint256,address)":"800f8293","periodMerchantTxCount(uint256,address)":"0567375b","periodMerchants(uint256,uint256)":"aff78448","previewHeadhunterReward(uint256,uint256,address)":"265020e6","previewMerchantReward(uint256,address)":"7ab603d3","quarterClaimed(uint256,uint256,address)":"4deac2fc","quarterEnded(uint256,uint256)":"412847d4","quarterPoolSnapshot(uint256,uint256)":"1f4d956b","recordMerchantTransaction(address)":"eef573be","referralCredited(address)":"bab2c8e3","registerMerchantReferral(address,address)":"52062f66","registerUserReferral(address,address)":"c3b86884","requestWithdraw(address,uint256)":"397a1b28","seer()":"2d55ea39","setAllocations(uint16,uint16,uint16)":"5636963b","setCouncilManager(address)":"626a5fe6","setManager(address,bool)":"a5e90eee","setOperationsAllocation(uint16)":"8036b096","setOperationsCooldown(uint256)":"c0acc41a","setOperationsWallet(address)":"ee5ecc89","setSeer(address)":"e071c1c0","totalBurned()":"d89135cd","totalCouncilPaid()":"a65edb06","totalExpensesPaid()":"117b63a1","totalHeadhunterPaid()":"1b44a048","totalMerchantBonusPaid()":"99656ff1","totalMerchantBonusesPaid(address)":"840190e1","totalReceived()":"a3c2c462","transferOwnership(address)":"f2fde38b","vfide()":"72c8ae3b","withdrawOperations()":"41d4a5dd","withdrawRequestCount()":"807f0971","withdrawRequests(uint256)":"992a7dfb","yearPoints(uint256,address)":"363836f8","yearReferrers(uint256,uint256)":"093b1ef5","yearStartTime()":"0971203d"},"id":10}