{"abi":[{"type":"function","name":"ensureVault","inputs":[{"name":"owner_","type":"address","internalType":"address"}],"outputs":[{"name":"vault","type":"address","internalType":"address"}],"stateMutability":"nonpayable"},{"type":"function","name":"vaultOf","inputs":[{"name":"","type":"address","internalType":"address"}],"outputs":[{"name":"","type":"address","internalType":"address"}],"stateMutability":"view"}],"bytecode":{"object":"0x60808060405234601557610190908161001a8239f35b5f80fdfe6080806040526004361015610012575f80fd5b5f3560e01c9081630709df4514610117575063e01fd21514610032575f80fd5b34610113576020366003190112610113576004356001600160a01b03811690818103610113575f828152602081905260409020546001600160a01b031615610093575b505f525f602052602060018060a01b0360405f205416604051908152f35b6040805160609290921b6001600160601b03191660208301908152601483529082016001600160401b038111838210176100ff576040908152915190205f838152602081905291822080546001600160a01b0319166001600160a01b0392909216919091179055610075565b634e487b7160e01b5f52604160045260245ffd5b5f80fd5b34610113576020366003190112610113576004356001600160a01b0381169190829003610113575f91825260208281526040909220546001600160a01b03168152f3fea2646970667358221220d360fca2d76962f7e381f9fd6ec1ec5f950f5b64d7ab7a885fcfba3208f40f3564736f6c634300081e0033","linkReferences":{}},"methodIdentifiers":{"ensureVault(address)":"e01fd215","vaultOf(address)":"0709df45"},"id":105}