{"abi":[{"type":"function","name":"ensureVault","inputs":[{"name":"owner_","type":"address","internalType":"address"}],"outputs":[{"name":"vault","type":"address","internalType":"address"}],"stateMutability":"nonpayable"},{"type":"function","name":"vaultOf","inputs":[{"name":"","type":"address","internalType":"address"}],"outputs":[{"name":"","type":"address","internalType":"address"}],"stateMutability":"view"}],"bytecode":{"object":"0x60808060405234601557610191908161001a8239f35b5f80fdfe6080806040526004361015610012575f80fd5b5f3560e01c9081630709df4514610118575063e01fd21514610032575f80fd5b34610114576020366003190112610114576004356001600160a01b03811690818103610114575f828152602081905260409020546001600160a01b031615610093575b505f525f602052602060018060a01b0360405f205416604051908152f35b6040805160609290921b6001600160601b031916602083019081526014835290820167ffffffffffffffff811183821017610100576040908152915190205f838152602081905291822080546001600160a01b0319166001600160a01b0392909216919091179055610075565b634e487b7160e01b5f52604160045260245ffd5b5f80fd5b34610114576020366003190112610114576004356001600160a01b0381169190829003610114575f91825260208281526040909220546001600160a01b03168152f3fea2646970667358221220e506a168e95930b31a3847980e0fbdeca72705c57a3a0f7a051e2a4a29eda69d64736f6c634300081e0033","linkReferences":{}},"methodIdentifiers":{"ensureVault(address)":"e01fd215","vaultOf(address)":"0709df45"},"id":103}