{"abi":[{"type":"constructor","inputs":[{"name":"_seer","type":"address","internalType":"address"}],"stateMutability":"nonpayable"},{"type":"function","name":"appeals","inputs":[{"name":"","type":"address","internalType":"address"}],"outputs":[{"name":"requester","type":"address","internalType":"address"},{"name":"reason","type":"string","internalType":"string"},{"name":"timestamp","type":"uint64","internalType":"uint64"},{"name":"resolved","type":"bool","internalType":"bool"},{"name":"approved","type":"bool","internalType":"bool"},{"name":"resolution","type":"string","internalType":"string"}],"stateMutability":"view"},{"type":"function","name":"becomeMentor","inputs":[],"outputs":[],"stateMutability":"nonpayable"},{"type":"function","name":"calculateEndorsementBonus","inputs":[{"name":"subject","type":"address","internalType":"address"}],"outputs":[{"name":"bonus","type":"uint256","internalType":"uint256"}],"stateMutability":"view"},{"type":"function","name":"endorse","inputs":[{"name":"subject","type":"address","internalType":"address"},{"name":"reason","type":"string","internalType":"string"}],"outputs":[],"stateMutability":"nonpayable"},{"type":"function","name":"endorsementBaseValue","inputs":[],"outputs":[{"name":"","type":"uint16","internalType":"uint16"}],"stateMutability":"view"},{"type":"function","name":"endorsementBonusCap","inputs":[],"outputs":[{"name":"","type":"uint16","internalType":"uint16"}],"stateMutability":"view"},{"type":"function","name":"endorsementCooldown","inputs":[],"outputs":[{"name":"","type":"uint64","internalType":"uint64"}],"stateMutability":"view"},{"type":"function","name":"endorsementMaxPerEndorser","inputs":[],"outputs":[{"name":"","type":"uint16","internalType":"uint16"}],"stateMutability":"view"},{"type":"function","name":"endorsementValidity","inputs":[],"outputs":[{"name":"","type":"uint64","internalType":"uint64"}],"stateMutability":"view"},{"type":"function","name":"endorsements","inputs":[{"name":"","type":"address","internalType":"address"},{"name":"","type":"address","internalType":"address"}],"outputs":[{"name":"expiry","type":"uint64","internalType":"uint64"},{"name":"weight","type":"uint16","internalType":"uint16"},{"name":"timestamp","type":"uint64","internalType":"uint64"}],"stateMutability":"view"},{"type":"function","name":"endorsementsGiven","inputs":[{"name":"","type":"address","internalType":"address"}],"outputs":[{"name":"","type":"uint16","internalType":"uint16"}],"stateMutability":"view"},{"type":"function","name":"endorsementsReceived","inputs":[{"name":"","type":"address","internalType":"address"}],"outputs":[{"name":"","type":"uint16","internalType":"uint16"}],"stateMutability":"view"},{"type":"function","name":"fileAppeal","inputs":[{"name":"reason","type":"string","internalType":"string"}],"outputs":[],"stateMutability":"nonpayable"},{"type":"function","name":"getActiveEndorsements","inputs":[{"name":"subject","type":"address","internalType":"address"}],"outputs":[{"name":"endorsers","type":"address[]","internalType":"address[]"},{"name":"weights","type":"uint16[]","internalType":"uint16[]"},{"name":"expiries","type":"uint64[]","internalType":"uint64[]"},{"name":"timestamps","type":"uint64[]","internalType":"uint64[]"}],"stateMutability":"view"},{"type":"function","name":"getAppealInfo","inputs":[{"name":"subject","type":"address","internalType":"address"}],"outputs":[{"name":"hasAppeal","type":"bool","internalType":"bool"},{"name":"appealResolved","type":"bool","internalType":"bool"},{"name":"appealApproved","type":"bool","internalType":"bool"},{"name":"appealTimestamp","type":"uint64","internalType":"uint64"},{"name":"appealReason","type":"string","internalType":"string"},{"name":"appealResolution","type":"string","internalType":"string"}],"stateMutability":"view"},{"type":"function","name":"getDisputeInfo","inputs":[{"name":"subject","type":"address","internalType":"address"}],"outputs":[{"name":"hasDispute","type":"bool","internalType":"bool"},{"name":"disputeResolved","type":"bool","internalType":"bool"},{"name":"disputeApproved","type":"bool","internalType":"bool"},{"name":"disputeTimestamp","type":"uint64","internalType":"uint64"},{"name":"disputeReason","type":"string","internalType":"string"}],"stateMutability":"view"},{"type":"function","name":"getEndorsementStats","inputs":[{"name":"subject","type":"address","internalType":"address"}],"outputs":[{"name":"activeEndorsers","type":"uint16","internalType":"uint16"},{"name":"activeBonus","type":"uint16","internalType":"uint16"},{"name":"endorsementsYouGave","type":"uint16","internalType":"uint16"}],"stateMutability":"view"},{"type":"function","name":"getMentees","inputs":[{"name":"mentor","type":"address","internalType":"address"}],"outputs":[{"name":"","type":"address[]","internalType":"address[]"}],"stateMutability":"view"},{"type":"function","name":"getMentorInfo","inputs":[{"name":"subject","type":"address","internalType":"address"}],"outputs":[{"name":"isMentorUser","type":"bool","internalType":"bool"},{"name":"mentor","type":"address","internalType":"address"},{"name":"menteeCount","type":"uint16","internalType":"uint16"},{"name":"hasMentor","type":"bool","internalType":"bool"},{"name":"canBecome","type":"bool","internalType":"bool"},{"name":"minScore","type":"uint16","internalType":"uint16"},{"name":"currentScore","type":"uint16","internalType":"uint16"}],"stateMutability":"view"},{"type":"function","name":"lastActivity","inputs":[{"name":"","type":"address","internalType":"address"}],"outputs":[{"name":"","type":"uint64","internalType":"uint64"}],"stateMutability":"view"},{"type":"function","name":"lastEndorseTime","inputs":[{"name":"","type":"address","internalType":"address"}],"outputs":[{"name":"","type":"uint64","internalType":"uint64"}],"stateMutability":"view"},{"type":"function","name":"maxActiveGivenPerUser","inputs":[],"outputs":[{"name":"","type":"uint16","internalType":"uint16"}],"stateMutability":"view"},{"type":"function","name":"maxEndorsersPerSubject","inputs":[],"outputs":[{"name":"","type":"uint16","internalType":"uint16"}],"stateMutability":"view"},{"type":"function","name":"maxMenteesPerMentor","inputs":[],"outputs":[{"name":"","type":"uint16","internalType":"uint16"}],"stateMutability":"view"},{"type":"function","name":"mentorOf","inputs":[{"name":"","type":"address","internalType":"address"}],"outputs":[{"name":"","type":"address","internalType":"address"}],"stateMutability":"view"},{"type":"function","name":"mentors","inputs":[{"name":"","type":"address","internalType":"address"}],"outputs":[{"name":"","type":"bool","internalType":"bool"}],"stateMutability":"view"},{"type":"function","name":"minScoreToEndorse","inputs":[],"outputs":[{"name":"","type":"uint16","internalType":"uint16"}],"stateMutability":"view"},{"type":"function","name":"minScoreToMentor","inputs":[],"outputs":[{"name":"","type":"uint16","internalType":"uint16"}],"stateMutability":"view"},{"type":"function","name":"pendingAppealCount","inputs":[],"outputs":[{"name":"","type":"uint256","internalType":"uint256"}],"stateMutability":"view"},{"type":"function","name":"pendingDisputeCount","inputs":[],"outputs":[{"name":"","type":"uint256","internalType":"uint256"}],"stateMutability":"view"},{"type":"function","name":"pruneEndorsements","inputs":[{"name":"subject","type":"address","internalType":"address"}],"outputs":[],"stateMutability":"nonpayable"},{"type":"function","name":"removeMentee","inputs":[{"name":"mentee","type":"address","internalType":"address"}],"outputs":[],"stateMutability":"nonpayable"},{"type":"function","name":"requestScoreReview","inputs":[{"name":"reason","type":"string","internalType":"string"}],"outputs":[],"stateMutability":"nonpayable"},{"type":"function","name":"resolveAppeal","inputs":[{"name":"subject","type":"address","internalType":"address"},{"name":"approved","type":"bool","internalType":"bool"},{"name":"resolution","type":"string","internalType":"string"}],"outputs":[],"stateMutability":"nonpayable"},{"type":"function","name":"resolveScoreDispute","inputs":[{"name":"subject","type":"address","internalType":"address"},{"name":"approved","type":"bool","internalType":"bool"},{"name":"adjustment","type":"int16","internalType":"int16"}],"outputs":[],"stateMutability":"nonpayable"},{"type":"function","name":"revokeMentor","inputs":[{"name":"mentor","type":"address","internalType":"address"}],"outputs":[],"stateMutability":"nonpayable"},{"type":"function","name":"scoreDisputes","inputs":[{"name":"","type":"address","internalType":"address"}],"outputs":[{"name":"requester","type":"address","internalType":"address"},{"name":"reason","type":"string","internalType":"string"},{"name":"timestamp","type":"uint64","internalType":"uint64"},{"name":"resolved","type":"bool","internalType":"bool"},{"name":"approved","type":"bool","internalType":"bool"}],"stateMutability":"view"},{"type":"function","name":"seer","inputs":[],"outputs":[{"name":"","type":"address","internalType":"contract ISeerCore"}],"stateMutability":"view"},{"type":"function","name":"setEndorsementPolicy","inputs":[{"name":"baseValue","type":"uint16","internalType":"uint16"},{"name":"maxPerEndorser","type":"uint16","internalType":"uint16"},{"name":"bonusCap","type":"uint16","internalType":"uint16"},{"name":"maxPerSubject","type":"uint16","internalType":"uint16"},{"name":"maxGiven","type":"uint16","internalType":"uint16"},{"name":"validity","type":"uint64","internalType":"uint64"},{"name":"cooldown","type":"uint64","internalType":"uint64"},{"name":"minScore","type":"uint16","internalType":"uint16"}],"outputs":[],"stateMutability":"nonpayable"},{"type":"function","name":"setMentorConfig","inputs":[{"name":"minScore","type":"uint16","internalType":"uint16"},{"name":"maxMentees","type":"uint16","internalType":"uint16"}],"outputs":[],"stateMutability":"nonpayable"},{"type":"function","name":"setSeer","inputs":[{"name":"_seer","type":"address","internalType":"address"}],"outputs":[],"stateMutability":"nonpayable"},{"type":"function","name":"sponsorMentee","inputs":[{"name":"mentee","type":"address","internalType":"address"}],"outputs":[],"stateMutability":"nonpayable"},{"type":"event","name":"AppealFiled","inputs":[{"name":"subject","type":"address","indexed":true,"internalType":"address"},{"name":"reason","type":"string","indexed":false,"internalType":"string"}],"anonymous":false},{"type":"event","name":"AppealResolved","inputs":[{"name":"subject","type":"address","indexed":true,"internalType":"address"},{"name":"approved","type":"bool","indexed":false,"internalType":"bool"},{"name":"resolution","type":"string","indexed":false,"internalType":"string"}],"anonymous":false},{"type":"event","name":"EndorsementPolicySet","inputs":[],"anonymous":false},{"type":"event","name":"MenteeRemoved","inputs":[{"name":"mentor","type":"address","indexed":true,"internalType":"address"},{"name":"mentee","type":"address","indexed":true,"internalType":"address"}],"anonymous":false},{"type":"event","name":"MenteeSponsored","inputs":[{"name":"mentor","type":"address","indexed":true,"internalType":"address"},{"name":"mentee","type":"address","indexed":true,"internalType":"address"}],"anonymous":false},{"type":"event","name":"MentorConfigUpdated","inputs":[{"name":"minScore","type":"uint16","indexed":false,"internalType":"uint16"},{"name":"maxMentees","type":"uint16","indexed":false,"internalType":"uint16"}],"anonymous":false},{"type":"event","name":"MentorRegistered","inputs":[{"name":"mentor","type":"address","indexed":true,"internalType":"address"}],"anonymous":false},{"type":"event","name":"MentorRevoked","inputs":[{"name":"mentor","type":"address","indexed":true,"internalType":"address"}],"anonymous":false},{"type":"event","name":"ScoreDisputeRequested","inputs":[{"name":"subject","type":"address","indexed":true,"internalType":"address"},{"name":"reason","type":"string","indexed":false,"internalType":"string"}],"anonymous":false},{"type":"event","name":"ScoreDisputeResolved","inputs":[{"name":"subject","type":"address","indexed":true,"internalType":"address"},{"name":"approved","type":"bool","indexed":false,"internalType":"bool"},{"name":"adjustment","type":"int256","indexed":false,"internalType":"int256"}],"anonymous":false},{"type":"event","name":"UserEndorsed","inputs":[{"name":"endorser","type":"address","indexed":true,"internalType":"address"},{"name":"subject","type":"address","indexed":true,"internalType":"address"},{"name":"weight","type":"uint16","indexed":false,"internalType":"uint16"},{"name":"expiry","type":"uint64","indexed":false,"internalType":"uint64"},{"name":"reason","type":"string","indexed":false,"internalType":"string"}],"anonymous":false},{"type":"error","name":"SOCIAL_Bounds","inputs":[]},{"type":"error","name":"SOCIAL_EndorseExists","inputs":[]},{"type":"error","name":"SOCIAL_EndorseLimit","inputs":[]},{"type":"error","name":"SOCIAL_InvalidEndorse","inputs":[]},{"type":"error","name":"SOCIAL_NotDAO","inputs":[]},{"type":"error","name":"SOCIAL_Paused","inputs":[]},{"type":"error","name":"SOCIAL_Zero","inputs":[]}],"bytecode":{"object":"0x60803460c557601f613a2d38819003918201601f19168301916001600160401b0383118484101760c95780849260209460405283398101031260c557516001600160a01b0381169081900360c557600780547b1b580000000000015180000000000076a7000032001905dc005000286001600160e01b0319909116179055600b805463ffffffff191662321c20179055801560b6575f80546001600160a01b03191691909117905560405161394f90816100de8239f35b63fbe40e4960e01b5f5260045ffd5b5f80fd5b634e487b7160e01b5f52604160045260245ffdfe6080806040526004361015610012575f80fd5b5f3560e01c908163024caec714612ddd575080631017817c14612c3d578063103f882914612ba95780631121834f146128d4578063246683ce146128b1578063257076dd1461283857806327758b17146127fc5780632b7ffc95146127db5780632d55ea39146127b4578063338dcc9f1461270f5780633af2cac7146126e45780634b9707c4146124d15780634cbb2f22146124a55780634d4efe8e14611fe95780635037fc7d14611f3c57806351c131f514611d1f57806359f827ad14611cdf5780635abfe2cf1461179d5780636c0100951461169957806372f557ee14611675578063900acd801461165857806391fa8432146115d257806394c30e1a1461159657806399f68ac7146115725780639beeb53414611474578063a5d4e06314611367578063a8a89dc014611098578063af21686114610cd3578063b2746eed14610caf578063b3a5df9e14610c92578063b7e2bf2f14610c52578063bfda418114610934578063c1c4462114610910578063dc99e3411461068a578063e071c1c0146105c3578063e3bf0aff1461053f578063e7244bbd146104ac578063e7cce5d614610488578063eed4ea8f1461044b578063f07e96b31461040b578063f9c4f4d91461020f5763fa41d56a146101ea575f80fd5b3461020b575f36600319011261020b57602061ffff600b5416604051908152f35b5f80fd5b3461020b575f36600319011261020b575f54604051635c975abb60e01b81526001600160a01b0390911690602081600481855afa908115610384575f916103dc575b506103cd57335f52600860205260ff60405f20541661038f57602060249160405192838092630d47875d60e41b82523360048301525afa908115610384575f91610355575b5061ffff80600b541691161061031857335f52600860205260405f20600160ff19825416179055337f900045c2cd74602d2cc377fa4ab9861abb55c4333c29ac3866c52d2bcb3f09a75f80a26103166040516102f3604082612e73565b60118152701b595b9d1bdc97dc9959da5cdd195c9959607a1b602082015261371f565b005b60405162461bcd60e51b8152602060048201526015602482015274534f4349414c3a2073636f726520746f6f206c6f7760581b6044820152606490fd5b610377915060203d60201161037d575b61036f8183612e73565b8101906132a3565b81610296565b503d610365565b6040513d5f823e3d90fd5b60405162461bcd60e51b815260206004820152601660248201527529a7a1a4a0a61d1030b63932b0b23c9036b2b73a37b960511b6044820152606490fd5b63dbd95ba960e01b5f5260045ffd5b6103fe915060203d602011610404575b6103f68183612e73565b810190613187565b82610251565b503d6103ec565b3461020b57602036600319011261020b576001600160a01b0361042c612e25565b165f526006602052602060018060401b0360405f205416604051908152f35b3461020b57602036600319011261020b576001600160a01b0361046c612e25565b165f526008602052602060ff60405f2054166040519015158152f35b3461020b575f36600319011261020b57602061ffff600b5460101c16604051908152f35b3461020b57602036600319011261020b576001600160a01b036104cd612e25565b165f52600a60205260405f206040519081602082549182815201915f5260205f20905f5b8181106105205761051c8561050881870382612e73565b604051918291602083526020830190612f96565b0390f35b82546001600160a01b03168452602090930192600192830192016104f1565b3461020b57604036600319011261020b57610558612e25565b602435906001600160a01b038216820361020b5760018060a01b03165f52600160205260405f209060018060a01b03165f52602052606060405f20546040519060018060401b038116825261ffff8160401c16602083015260018060401b039060501c166040820152f35b3461020b57602036600319011261020b576105dc612e25565b5f54604051634162169f60e01b81529091906020816004816001600160a01b0387165afa908115610384575f9161065b575b506001600160a01b0316330361064c576001600160a01b031690811561063d576001600160a01b031916175f55005b63fbe40e4960e01b5f5260045ffd5b638b30463760e01b5f5260045ffd5b61067d915060203d602011610683575b6106758183612e73565b81019061300e565b8361060e565b503d61066b565b3461020b57602036600319011261020b576001600160a01b036106ab612e25565b16805f52600260205260405f208054915f5f5b84811061089357506106cf81613308565b936106dd6040519586612e73565b818552601f196106ec83613308565b013660208701376106fc82613308565b9061070a6040519283612e73565b82825261071683613308565b602083019490601f190136863761073561072f8561331f565b9461331f565b955f915f5b8481106107bc5761075f8a8a8a8a8a6020604051968796608088526080880190612f96565b918683038288015251918281520192905f5b81811061079f5750505081610791918561051c9594036040870152612fd2565b908382036060850152612fd2565b825161ffff16855287965060209485019490920191600101610771565b815f52600160205260405f206107d2828561319f565b905460039190911b1c6001600160a01b03165f90815260209190915260409020546001600160401b03811642811180610883575b610815575b505060010161073a565b9461087b9183968d6108418461082d6001988b61319f565b898060a01b0391549060031b1c1692613351565b5261ffff8260401c16610854848c613351565b5261085f838c613351565b52838060401b039060501c16610875828d613351565b52613159565b93908b61080b565b5061ffff8260401c161515610806565b825f52600160205260405f206108a9828661319f565b905460039190911b1c6001600160a01b03165f9081526020919091526040902054426001600160401b0382161190816108ff575b506108eb575b6001016106be565b906108f7600191613159565b9190506108e3565b61ffff915060401c161515866108dd565b3461020b575f36600319011261020b57602061ffff60075460d01c16604051908152f35b3461020b57602036600319011261020b5761094d612e25565b5f54604051635c975abb60e01b81526001600160a01b039091169190602081600481865afa908115610384575f91610c33575b506103cd57335f52600860205260ff60405f20541615610bf9576001600160a01b0381169182151580610bef575b15610bb1575f838152600960205260409020546001600160a01b0316610b7057335f52600a60205260405f2054600b549061ffff8260101c161115610b3557602060249260405193848092630d47875d60e41b82523360048301525afa918215610384575f92610b0e575b5061ffff809116911610610aca575f82815260096020908152604080832080546001600160a01b031916339081179091558352600a90915290206103169290610a639083906132e5565b337f1bf74c66f4733e451868185ff432d08e19f3e4bc28fd5bcc2670180c6da92e995f80a3604051610a96604082612e73565b601081526f1b595b9d195957dcdc1bdb9cdbdc995960821b602082015260405191610ac2602084612e73565b5f8352613365565b60405162461bcd60e51b815260206004820152601c60248201527b534f4349414c3a206d656e746f722073636f726520746f6f206c6f7760201b6044820152606490fd5b61ffff919250610b2d829160203d60201161037d5761036f8183612e73565b929150610a19565b60405162461bcd60e51b8152602060048201526013602482015272534f4349414c3a206d6178206d656e7465657360681b6044820152606490fd5b60405162461bcd60e51b815260206004820152601960248201527829a7a1a4a0a61d1036b2b73a32b2903430b99036b2b73a37b960391b6044820152606490fd5b60405162461bcd60e51b8152602060048201526016602482015275534f4349414c3a20696e76616c6964206d656e74656560501b6044820152606490fd5b50338314156109ae565b60405162461bcd60e51b815260206004820152601260248201527129a7a1a4a0a61d103737ba1036b2b73a37b960711b6044820152606490fd5b610c4c915060203d602011610404576103f68183612e73565b83610980565b3461020b57602036600319011261020b576001600160a01b03610c73612e25565b165f526005602052602060018060401b0360405f205416604051908152f35b3461020b575f36600319011261020b576020600f54604051908152f35b3461020b575f36600319011261020b57602061ffff60075460401c16604051908152f35b3461020b57602036600319011261020b576004356001600160401b03811161020b57610d03903690600401612f5a565b908115158061108c575b610d169061302d565b335f908152600e60205260409020600201546001600160401b0381161590811561107e575b5015611040576040519160c083016001600160401b03811184821017610faf57604052338352610d6c368284613079565b60208401908152604084019360018060401b034216855260608101945f8652608082015f815260209660405194610da38987612e73565b5f80875260a08601968752338152600e8a5260409020945185546001600160a01b0319166001600160a01b039190911617855551805160018601916001600160401b038211610faf57610e0082610dfa8554612e3b565b856130be565b8a90601f8311600114610fce5792610e2f83610e609460039a999794610e6999975f92610fc3575b505061310d565b90555b92516002860180546001600160401b0319166001600160401b0392909216919091178155925115158361311f565b5115159061313c565b9151805191909201916001600160401b038211610faf57610e8e82610dfa8554612e3b565b8590601f8311600114610f435782610f31959361031698979593610eb9935f92610f3857505061310d565b90555b610ec7600f54613159565b600f556040518481527f847065330edb730c1ec21ebbf03603a63880d25a2480c3b9852d0551ad80756d339180610f018882018688613167565b0390a26b185c1c19585b17d99a5b195960a21b60405194610f23604087612e73565b600c86528501523691613079565b9033613365565b015190508980610e28565b90601f19831691845f52875f20925f5b818110610f985750926001928592610f3198966103169b9a989610610f80575b505050811b019055610ebc565b01515f1960f88460031b161c19169055888080610f73565b929389600181928786015181550195019301610f53565b634e487b7160e01b5f52604160045260245ffd5b015190508f80610e28565b5f8481528c8120929190601f198516908e5b82821061102857505093600399989693610e6998969360019383610e609810611011575b505050811b019055610e32565b01515f19838d1b60f8161c191690558e8080611004565b80600186978294978701518155019601940190610fe0565b60405162461bcd60e51b8152602060048201526016602482015275534f4349414c3a2061707065616c2070656e64696e6760501b6044820152606490fd5b60ff915060401c1683610d3b565b506101f4821115610d0d565b3461020b57606036600319011261020b576110b1612e25565b6110b9612f87565b906044356001600160401b03811161020b576110d9903690600401612f5a565b5f54604051634162169f60e01b815291929190602090829060049082906001600160a01b03165afa908115610384575f91611348575b506001600160a01b0316330361064c576001600160a01b0383165f818152600e6020526040902060028101805491906001600160401b0383161561130f5760ff8360401c166112d05760ff60401b19909216600160401b17825560039161117790889061313c565b01946001600160401b038411610faf5761119b846111958854612e3b565b886130be565b5f95601f8511600114611256576112339392915f5160206138da5f395f51905f52916111d387806103169b5f9161124b575b5061310d565b90555b600f5480611239575b50604051901515815260406020820152806111fe604082018887613167565b0390a260405192611210604085612e73565b600f84526e185c1c19585b17dc995cdbdb1d9959608a1b60208501523691613079565b91613365565b61124290613297565b600f55886111df565b90508701358c6111cd565b601f19851696815f5260205f20975f5b8181106112b85750916103169861123396959492885f5160206138da5f395f51905f52951061129f575b5050600187811b0190556111d6565b8601355f1960038a901b60f8161c191690558980611290565b868301358a5560019099019860209283019201611266565b60405162461bcd60e51b815260206004820152601760248201527614d3d0d250530e88185c1c19585b081c995cdbdb1d9959604a1b6044820152606490fd5b60405162461bcd60e51b815260206004820152601160248201527014d3d0d250530e881b9bc8185c1c19585b607a1b6044820152606490fd5b611361915060203d602011610683576106758183612e73565b8561110f565b3461020b57602036600319011261020b57611380612e25565b6001600160a01b0381165f81815260026020526040812080549293919290835b8281106113e0576060858761ffff6113b7886131d5565b16905f52600460205261ffff60405f2054169061ffff6040519316835260208301526040820152f35b855f52600160205260405f206113f6828461319f565b905460039190911b1c6001600160a01b03165f9081526020919091526040902054426001600160401b038216119081611463575b50611438575b6001016113a0565b9361ffff1661ffff811461144f5760010193611430565b634e487b7160e01b5f52601160045260245ffd5b61ffff915060401c1615158761142a565b3461020b57602036600319011261020b57602461148f612e25565b5f54604051630d47875d60e41b81526001600160a01b0392831660048201819052909390926020928592918391165afa9182156103845760e09261ffff915f91611553575b50600b545f938452600860209081526040808620546009835281872054600a90935295205460ff90951615949184169185916001600160a01b031690851682611545575b604051961587528160208801526040870152151560608601521515608085015260a08401521660c0820152f35b915082858516101591611518565b61156c915060203d60201161037d5761036f8183612e73565b846114d4565b3461020b575f36600319011261020b57602061ffff60075460101c16604051908152f35b3461020b57602036600319011261020b576001600160a01b036115b7612e25565b165f526004602052602061ffff60405f205416604051908152f35b3461020b57602036600319011261020b576001600160a01b036115f3612e25565b165f52600c60205260ff60405f2061051c60028201549161161e6001808060401b0385169201612e96565b906040519485948215158652818160401c161515602087015260481c1615156040850152606084015260a0608084015260a0830190612f36565b3461020b575f36600319011261020b576020600d54604051908152f35b3461020b575f36600319011261020b57602061ffff60075460301c16604051908152f35b3461020b57602036600319011261020b576001600160a01b036116ba612e25565b1680330361172c575b805f52600860205260405f2060ff1981541690557f5808667fab0acf73544191fca46e124794dcc62e60b174ac3f5c88b7b52994255f80a261031660405161170c604082612e73565b600e81526d1b595b9d1bdc97dc995d9bdad95960921b602082015261371f565b5f54604051634162169f60e01b815290602090829060049082906001600160a01b03165afa908115610384575f9161177e575b506001600160a01b031633146116c357638b30463760e01b5f5260045ffd5b611797915060203d602011610683576106758183612e73565b8261175f565b3461020b57604036600319011261020b576117b6612e25565b6024356001600160401b03811161020b576117d5903690600401612f5a565b5f54604051635c975abb60e01b81529293926001600160a01b039091169190602081600481865afa908115610384575f91611cc0575b506103cd576001600160a01b03831680158015611cb7575b611ca85760a08211611c995760075492609084901c6001600160401b031680611c1f575b50602060249160405192838092630d47875d60e41b82523360048301525afa9081156103845761ffff9182915f91611c00575b50169360d01c168310611be25761189084613582565b5f8181526001602090815260408083203384529091529020546001600160401b03164210611bf157805f52600260205261ffff60405f2054169460075461ffff8160301c16871015611be257335f52600460205261ffff60405f20541661ffff8260401c161115611be2575f54604051632519fdb960e11b815261ffff83169691602090829060049082906001600160a01b03165afa80156103845761ffff915f91611bc3575b50161115611bb3575b611949336137d9565b611ba3575b61ffff8160101c168061ffff871611611b9b575b5061197b61ffff611972886131d5565b961680966131c8565b61ffff8260201c1610611b5c576001600160401b03906119a09060501c8216426131c8565b604051939116426001600160401b03908116906060860190811186821017610faf57604090815282865260208087018981528288018481525f87815260018452848120338083529085528582209a518b54945193516001600160901b03199095166001600160401b03919091161792861b61ffff60401b169290921760509390931b600160501b600160901b03169290921790985585815260029091522061031699611b5696611a5992611a5491906132e5565b6132d1565b835f52600360205261ffff60405f20911661ffff19825416179055335f52600460205260405f2061ffff611a8f818354166132d1565b1661ffff19825416179055335f52600560205260405f2060018060401b03821660018060401b0319825416179055825f52600660205260405f209060018060401b031660018060401b0319825416179055604051908682526020820152606060408201527fd7b6373d0cc8185cacb0cd7341ab8a20f17ea855f4ff4b8199ff544d5335b5af339180611b25606082018988613167565b0390a360405192611b37604085612e73565b600b84526a195b991bdc9cd95b595b9d60aa1b60208501523691613079565b92613449565b60405162461bcd60e51b81526020600482015260176024820152760534f4349414c3a20656e646f7273656d656e742063617604c1b6044820152606490fd5b945087611962565b93611bad906132bd565b9361194e565b93611bbd906132bd565b93611940565b611bdc915060203d60201161037d5761036f8183612e73565b8a611937565b633db3b06f60e21b5f5260045ffd5b63263a344160e01b5f5260045ffd5b611c19915060203d60201161037d5761036f8183612e73565b8861187a565b335f908152600560205260409020546001600160401b039081169190910190811161144f576001600160401b03164210611c595786611847565b60405162461bcd60e51b815260206004820152601860248201527729a7a1a4a0a61d1032b73237b939b29031b7b7b63237bbb760411b6044820152606490fd5b6311de9f7960e01b5f5260045ffd5b632b733a2d60e11b5f5260045ffd5b50338114611823565b611cd9915060203d602011610404576103f68183612e73565b8561180b565b3461020b57602036600319011261020b576001600160a01b03611d00612e25565b165f526009602052602060018060a01b0360405f205416604051908152f35b3461020b57602036600319011261020b57611d38612e25565b6001600160a01b038181165f8181526009602052604090205490911691908215611f0357823303611e92575b825f52600a60205260405f20928354935f5b858110611dfc575b50505f82815260096020526040812080546001600160a01b031916905561031694507fc890e92b7f9c8c46c61cd0ac0d88ba6817effe750591001f30845df0f3645fd89080a3604051611dd2604082612e73565b600e81526d1b595b9d195957dc995b5bdd995960921b602082015260405191610ac2602084612e73565b83611e07828461319f565b905460039190911b1c6001600160a01b031614611e2657600101611d76565b905f19860195861161144f57611e86611e8b92611e62611e49610316998561319f565b905460039190911b1c6001600160a01b0316918461319f565b9080546001600160a01b0360039390931b83811b199091169290931690921b179055565b613542565b8480611d7e565b5f54604051634162169f60e01b815290602090829060049082906001600160a01b03165afa908115610384575f91611ee4575b506001600160a01b03163314611d6457638b30463760e01b5f5260045ffd5b611efd915060203d602011610683576106758183612e73565b84611ec5565b60405162461bcd60e51b815260206004820152601160248201527029a7a1a4a0a61d1037379036b2b73a37b960791b6044820152606490fd5b3461020b57602036600319011261020b576001600160a01b03611f5d612e25565b165f908152600e6020526040902080546001600160a01b031661051c611f8560018401612e96565b92611f97600360028301549201612e96565b60ff611fb5604051968796875260c0602088015260c0870190612f36565b9260018060401b0381166040870152818160401c161515606087015260481c161515608085015283820360a0850152612f36565b3461020b5761010036600319011261020b57612003612e03565b61200b612e14565b6044359161ffff831680840361020b5760643561ffff81169384820361020b576084359161ffff83169586840361020b5760a4356001600160401b0381169790969088880361020b5760c435986001600160401b038a1691828b0361020b5760e4359461ffff86169485870361020b575f54604051634162169f60e01b815290602090829060049082906001600160a01b03165afa908115610384575f91612486575b506001600160a01b0316330361064c5761ffff16998a15158061247b575b1561243a5761ffff89168b811015908161242d575b50156123ed578a116123b05780151590816123a4575b501561236957801515908161235d575b50156123245762093a808110159081612315575b50156122d75761025881101590816122c9575b501561228b57600a811015908161227e575b501561223f576007805460909890981b600160901b600160d01b031660509790971b600160501b600160901b0316600160301b600160e01b03199096166001600160e01b03199098169790971760109390931b63ffff0000169290921760209790971b61ffff60201b169690961760309690961b61ffff60301b169590951760409190911b61ffff60401b1617171760d09290921b61ffff60d01b169190911790557fc0bc1ba9cba70c67bf11a4dc22b76e97c29c7e0f659df84da7e346a3648992585f80a1610316604051612217604082612e73565b6016815275195b991bdc9cd95b595b9d17dc1bdb1a58de57dcd95d60521b602082015261371f565b60405162461bcd60e51b8152602060048201526017602482015276534f4349414c3a206d696e2073636f72652072616e676560481b6044820152606490fd5b6127109150111589612140565b60405162461bcd60e51b8152602060048201526016602482015275534f4349414c3a20636f6f6c646f776e2072616e676560501b6044820152606490fd5b62093a80915011158a61212e565b60405162461bcd60e51b8152602060048201526016602482015275534f4349414c3a2076616c69646974792072616e676560501b6044820152606490fd5b6301e13380915011158b61211b565b60405162461bcd60e51b81526020600482015260116024820152700534f4349414c3a20676976656e2063617607c1b6044820152606490fd5b60c8915011158c612107565b60405162461bcd60e51b81526020600482015260136024820152720534f4349414c3a207375626a6563742063617606c1b6044820152606490fd5b6032915011158d6120f7565b60405162461bcd60e51b8152602060048201526015602482015274534f4349414c3a20626f6e757320636170206c6f7760581b6044820152606490fd5b60405162461bcd60e51b815260206004820152601860248201527729a7a1a4a0a61d1036b0bc103832b91032b73237b939b2b960411b6044820152606490fd5b61012c915011158f6120e1565b60405162461bcd60e51b8152602060048201526019602482015278534f4349414c3a2062617365206f7574206f662072616e676560381b6044820152606490fd5b5060c88b11156120cc565b61249f915060203d602011610683576106758183612e73565b8f6120ae565b3461020b575f36600319011261020b5760075460405160509190911c6001600160401b03168152602090f35b3461020b57606036600319011261020b576124ea612e25565b6124f2612f87565b90604435918260010b80930361020b575f54604051634162169f60e01b815290602090829060049082906001600160a01b03165afa908115610384575f916126c5575b506001600160a01b0316330361064c576001600160a01b0382165f818152600c6020526040902060020180546001600160401b038116156126855760ff8160401c166126455760ff60401b1916600160401b178155610316947f2eec6b0a78eba6860ae5bb6579b36b4b751ba52ee7d16723279b46572c96469d91604091906125bf90869061313c565b600d5480612633575b5081519085151582526020820152a21561262c576001905b6040516125ee604082612e73565b60168152751cd8dbdc9957d91a5cdc1d5d1957dc995cdbdb1d995960521b602082015260ff60405193612622602086612e73565b5f85521691613449565b5f906125e0565b61263c90613297565b600d55876125c8565b60405162461bcd60e51b815260206004820152601860248201527714d3d0d250530e88185b1c9958591e481c995cdbdb1d995960421b6044820152606490fd5b60405162461bcd60e51b815260206004820152601860248201527714d3d0d250530e881b9bc8191a5cdc1d5d1948199bdd5b9960421b6044820152606490fd5b6126de915060203d602011610683576106758183612e73565b84612535565b3461020b57602036600319011261020b576020612707612702612e25565b6131d5565b604051908152f35b3461020b57602036600319011261020b576001600160a01b03612730612e25565b165f52600e60205260ff60405f2061051c6002820154916127a660018060401b0384169161276c600361276560018401612e96565b9201612e96565b926040519687968215158852818160401c161515602089015260481c1615156040870152606086015260c0608086015260c0850190612f36565b9083820360a0850152612f36565b3461020b575f36600319011261020b575f546040516001600160a01b039091168152602090f35b3461020b575f36600319011261020b57602061ffff60075416604051908152f35b3461020b57602036600319011261020b576001600160a01b0361281d612e25565b165f526003602052602061ffff60405f205416604051908152f35b3461020b57602036600319011261020b57612851612e25565b5f54604051635c975abb60e01b815290602090829060049082906001600160a01b03165afa908115610384575f91612892575b506103cd5761031690613582565b6128ab915060203d602011610404576103f68183612e73565b82612884565b3461020b575f36600319011261020b57602061ffff600754821c16604051908152f35b3461020b57602036600319011261020b576004356001600160401b03811161020b57612904903690600401612f5a565b80151580612b9d575b6129169061302d565b335f908152600c60205260409020600201546001600160401b0316158015612b81575b15612b42576040519160a083016001600160401b03811184821017610faf57604052338352612969368383613079565b6020808501918252426001600160401b0390811660408088019182525f6060890181815260808a01828152338352600c909652919020975188546001600160a01b0319166001600160a01b03919091161788559351805190979194926001830191908111610faf576129e5816129df8454612e3b565b846130be565b6020601f8211600114612acc57612a489593610e6093612a1a84610f319b9a98956002956103169f5f92610fc357505061310d565b90555b9451940180546001600160401b0319166001600160401b03959095169490941784555115158361311f565b612a53600d54613159565b600d55604051602081527fb23ac579e6192f602dcd9cb4739d7aac62bf98df815a123ea748071d25b80875339180612a8f602082018887613167565b0390a260405192612aa1604085612e73565b60178452761cd8dbdc9957d91a5cdc1d5d1957dc995c5d595cdd1959604a1b60208501523691613079565b601f19821699835f52815f209a5f5b818110612b2a5750936001846103169d600295612a489b9995610f319e9d9b98610e609a10612b12575b505050811b019055612a1d565b01515f1960f88460031b161c191690558e8080612b05565b838301518d556001909c019b60209384019301612adb565b60405162461bcd60e51b8152602060048201526017602482015276534f4349414c3a20646973707574652070656e64696e6760481b6044820152606490fd5b50335f52600c60205260ff600260405f20015460401c16612939565b506101f481111561290d565b3461020b57602036600319011261020b576001600160a01b03612bca612e25565b165f908152600c6020526040902080546001600160a01b03166002612bf160018401612e96565b92015460ff612c12604051948594855260a0602086015260a0850190612f36565b9160018060401b0381166040850152818160401c161515606085015260481c16151560808301520390f35b3461020b57604036600319011261020b57612c56612e03565b612c5e612e14565b5f54604051634162169f60e01b815291929190602090829060049082906001600160a01b03165afa908115610384575f91612dbe575b506001600160a01b0316330361064c5761ffff169061138882101580612db2575b15612d6d5761ffff811691600183101580612d62575b15612d1d577f273cee8c4dd4641fdf7f817df77d9ad070ab040ab68b2b923bf6a49c6ec673ee926040928263ffff0000600b549260101b169163ffffffff19161717600b5582519182526020820152a1005b60405162461bcd60e51b815260206004820152601f60248201527f534f4349414c3a206d656e746f72206d6178206f7574206f662072616e6765006044820152606490fd5b5060c8831115612ccb565b60405162461bcd60e51b815260206004820152601f60248201527f534f4349414c3a206d656e746f72206d696e206f7574206f662072616e6765006044820152606490fd5b50612710821115612cb5565b612dd7915060203d602011610683576106758183612e73565b83612c94565b3461020b575f36600319011261020b5760075460901c6001600160401b03168152602090f35b6004359061ffff8216820361020b57565b6024359061ffff8216820361020b57565b600435906001600160a01b038216820361020b57565b90600182811c92168015612e69575b6020831014612e5557565b634e487b7160e01b5f52602260045260245ffd5b91607f1691612e4a565b601f909101601f19168101906001600160401b03821190821017610faf57604052565b9060405191825f825492612ea984612e3b565b8084529360018116908115612f145750600114612ed0575b50612ece92500383612e73565b565b90505f9291925260205f20905f915b818310612ef8575050906020612ece928201015f612ec1565b6020919350806001915483858901015201910190918492612edf565b905060209250612ece94915060ff191682840152151560051b8201015f612ec1565b805180835260209291819084018484015e5f828201840152601f01601f1916010190565b9181601f8401121561020b578235916001600160401b03831161020b576020838186019501011161020b57565b60243590811515820361020b57565b90602080835192838152019201905f5b818110612fb35750505090565b82516001600160a01b0316845260209384019390920191600101612fa6565b90602080835192838152019201905f5b818110612fef5750505090565b82516001600160401b0316845260209384019390920191600101612fe2565b9081602091031261020b57516001600160a01b038116810361020b5790565b1561303457565b60405162461bcd60e51b815260206004820152601d60248201527f534f4349414c3a20696e76616c696420726561736f6e206c656e6774680000006044820152606490fd5b9192916001600160401b038211610faf57604051916130a2601f8201601f191660200184612e73565b82948184528183011161020b578281602093845f960137010152565b601f82116130cb57505050565b5f5260205f20906020601f840160051c83019310613103575b601f0160051c01905b8181106130f8575050565b5f81556001016130ed565b90915081906130e4565b8160011b915f199060031b1c19161790565b805460ff60401b191691151560401b60ff60401b16919091179055565b805460ff60481b191691151560481b60ff60481b16919091179055565b5f19811461144f5760010190565b908060209392818452848401375f828201840152601f01601f1916010190565b9081602091031261020b5751801515810361020b5790565b80548210156131b4575f5260205f2001905f90565b634e487b7160e01b5f52603260045260245ffd5b9190820180921161144f57565b6001600160a01b03165f8181526002602052604081208054919392845b838110613215575050505061ffff60075460201c168083116132115750565b9150565b815f52600160205260405f2061322b828561319f565b60018060a01b0391549060031b1c1660018060a01b03165f5260205260405f205461ffff8160401c16908115159081613282575b5061326e575b506001016131f2565b61327b90600192976131c8565b9590613265565b426001600160401b039091161190505f61325f565b801561144f575f190190565b9081602091031261020b575161ffff8116810361020b5790565b61ffff600a9116019061ffff821161144f57565b61ffff60019116019061ffff821161144f57565b80549190600160401b831015610faf5782611e62916001612ece9501815561319f565b6001600160401b038111610faf5760051b60200190565b9061332982613308565b6133366040519182612e73565b8281528092613347601f1991613308565b0190602036910137565b80518210156131b45760209160051b010190565b5f546040516356397c3560e01b815290602090829060049082906001600160a01b03165afa908115610384575f9161342a575b506001600160a01b0316806133ae575b50505050565b803b1561020b575f92836133f19361340960405197889687958694630303c28760e61b865260018060a01b03166004860152608060248601526084850190612f36565b90846044850152600319848303016064850152612f36565b03925af161341a575b8080806133a8565b5f61342491612e73565b5f613412565b613443915060203d602011610683576106758183612e73565b5f613398565b5f546040516356397c3560e01b815291929190602090829060049082906001600160a01b03165afa908115610384575f91613513575b506001600160a01b03169081613497575b5050505050565b813b1561020b575f6134da936134f1829660405198899788968795630303c28760e61b875260018060a01b03166004870152608060248701526084860190612f36565b916044850152600319848303016064850152612f36565b03925af1613503575b80808080613490565b5f61350d91612e73565b5f6134fa565b61352c915060203d602011610683576106758183612e73565b5f61347f565b61ffff16801561144f575f190190565b8054801561356e575f190190613558828261319f565b81549060018060a01b039060031b1b1916905555565b634e487b7160e01b5f52603160045260245ffd5b6001600160a01b03165f81815260026020526040812091905b82548110156136fa576135ae818461319f565b90545f84815260016020908152604080832060039590951b9390931c6001600160a01b031680835293905220546001600160401b031680151590816136ef575b5061360557506135fd90613159565b925b9261359b565b825f95929552600160205260405f2060018060a01b0382165f526020525f6040812055825f52600360205261ffff60405f2054166136c4575b805f52600460205261ffff60405f205416613699575b5082545f19810190811161144f5761366f61368b918561319f565b905460039190911b1c6001600160a01b0316611e62868661319f565b61369483613542565b6135ff565b5f52600460205260405f2061ffff6136b381835416613532565b1661ffff198254161790555f613654565b825f52600360205260405f2061ffff6136df81835416613532565b1661ffff1982541617905561363e565b90504210155f6135ee565b509061ffff905416905f52600360205261ffff60405f20911661ffff19825416179055565b5f546040516356397c3560e01b815290602090829060049082906001600160a01b03165afa908115610384575f916137ba575b506001600160a01b031680613765575050565b803b1561020b57604051633ddd61ab60e21b815230600482015260606024820152915f91839182908490829061379f906064830190612f36565b33604483015203925af16137b05750565b5f612ece91612e73565b6137d3915060203d602011610683576106758183612e73565b5f613752565b5f54604051630e05e5d560e21b81526001600160a01b03928316600482018190525f5160206138fa5f395f51905f5260248301529190921691602081604481865afa908115610384575f916138ba575b50156138b45760209060446040518094819363d5b37a7f60e01b835260048301525f5160206138fa5f395f51905f5260248301525afa908115610384575f91613882575b50801590811561387b575090565b9050421090565b90506020813d6020116138ac575b8161389d60209383612e73565b8101031261020b57515f61386d565b3d9150613890565b50505f90565b6138d3915060203d602011610404576103f68183612e73565b5f61382956feec5cb6b9077be93ff2307b61c4b6793dd8a820336c6f61327ef42adf8592977af4f1880c72d8dbafc9805eb1c4bcefcb30af90b0ae932e0f050c81b491125857a2646970667358221220d8e028b762c881cdaabbc0a7439bad15f5769a05718303c5f8cbae1f786a775964736f6c634300081e0033","linkReferences":{}},"methodIdentifiers":{"appeals(address)":"5037fc7d","becomeMentor()":"f9c4f4d9","calculateEndorsementBonus(address)":"3af2cac7","endorse(address,string)":"5abfe2cf","endorsementBaseValue()":"2b7ffc95","endorsementBonusCap()":"246683ce","endorsementCooldown()":"024caec7","endorsementMaxPerEndorser()":"99f68ac7","endorsementValidity()":"4cbb2f22","endorsements(address,address)":"e3bf0aff","endorsementsGiven(address)":"94c30e1a","endorsementsReceived(address)":"27758b17","fileAppeal(string)":"af216861","getActiveEndorsements(address)":"dc99e341","getAppealInfo(address)":"338dcc9f","getDisputeInfo(address)":"91fa8432","getEndorsementStats(address)":"a5d4e063","getMentees(address)":"e7244bbd","getMentorInfo(address)":"9beeb534","lastActivity(address)":"f07e96b3","lastEndorseTime(address)":"b7e2bf2f","maxActiveGivenPerUser()":"b2746eed","maxEndorsersPerSubject()":"72f557ee","maxMenteesPerMentor()":"e7cce5d6","mentorOf(address)":"59f827ad","mentors(address)":"eed4ea8f","minScoreToEndorse()":"c1c44621","minScoreToMentor()":"fa41d56a","pendingAppealCount()":"b3a5df9e","pendingDisputeCount()":"900acd80","pruneEndorsements(address)":"257076dd","removeMentee(address)":"51c131f5","requestScoreReview(string)":"1121834f","resolveAppeal(address,bool,string)":"a8a89dc0","resolveScoreDispute(address,bool,int16)":"4b9707c4","revokeMentor(address)":"6c010095","scoreDisputes(address)":"103f8829","seer()":"2d55ea39","setEndorsementPolicy(uint16,uint16,uint16,uint16,uint16,uint64,uint64,uint16)":"4d4efe8e","setMentorConfig(uint16,uint16)":"1017817c","setSeer(address)":"e071c1c0","sponsorMentee(address)":"bfda4181"},"id":24}