{
  "_format": "hh-sol-artifact-1",
  "contractName": "OwnerControlPanel",
  "sourceName": "contracts/OwnerControlPanel.sol",
  "abi": [
    {
      "inputs": [
        {
          "internalType": "address",
          "name": "_owner",
          "type": "address"
        },
        {
          "internalType": "address",
          "name": "_token",
          "type": "address"
        },
        {
          "internalType": "address",
          "name": "_presale",
          "type": "address"
        },
        {
          "internalType": "address",
          "name": "_vaultHub",
          "type": "address"
        },
        {
          "internalType": "address",
          "name": "_burnRouter",
          "type": "address"
        },
        {
          "internalType": "address",
          "name": "_seer",
          "type": "address"
        }
      ],
      "stateMutability": "nonpayable",
      "type": "constructor"
    },
    {
      "inputs": [],
      "name": "OCP_NotOwner",
      "type": "error"
    },
    {
      "inputs": [],
      "name": "OCP_Zero",
      "type": "error"
    },
    {
      "anonymous": false,
      "inputs": [
        {
          "indexed": false,
          "internalType": "uint256",
          "name": "lowVolThreshold",
          "type": "uint256"
        },
        {
          "indexed": false,
          "internalType": "uint256",
          "name": "highVolThreshold",
          "type": "uint256"
        },
        {
          "indexed": false,
          "internalType": "uint16",
          "name": "lowVolMult",
          "type": "uint16"
        },
        {
          "indexed": false,
          "internalType": "uint16",
          "name": "highVolMult",
          "type": "uint16"
        },
        {
          "indexed": false,
          "internalType": "bool",
          "name": "enabled",
          "type": "bool"
        }
      ],
      "name": "AdaptiveFeesUpdated",
      "type": "event"
    },
    {
      "anonymous": false,
      "inputs": [
        {
          "indexed": false,
          "internalType": "uint256",
          "name": "maxTransfer",
          "type": "uint256"
        },
        {
          "indexed": false,
          "internalType": "uint256",
          "name": "maxWallet",
          "type": "uint256"
        },
        {
          "indexed": false,
          "internalType": "uint256",
          "name": "dailyLimit",
          "type": "uint256"
        },
        {
          "indexed": false,
          "internalType": "uint256",
          "name": "cooldown",
          "type": "uint256"
        }
      ],
      "name": "AntiWhaleUpdated",
      "type": "event"
    },
    {
      "anonymous": false,
      "inputs": [
        {
          "indexed": false,
          "internalType": "address",
          "name": "token",
          "type": "address"
        },
        {
          "indexed": false,
          "internalType": "address",
          "name": "presale",
          "type": "address"
        },
        {
          "indexed": false,
          "internalType": "address",
          "name": "vaultHub",
          "type": "address"
        },
        {
          "indexed": false,
          "internalType": "address",
          "name": "burnRouter",
          "type": "address"
        },
        {
          "indexed": false,
          "internalType": "address",
          "name": "seer",
          "type": "address"
        }
      ],
      "name": "ContractsUpdated",
      "type": "event"
    },
    {
      "anonymous": false,
      "inputs": [
        {
          "indexed": false,
          "internalType": "string",
          "name": "action",
          "type": "string"
        },
        {
          "indexed": false,
          "internalType": "address",
          "name": "target",
          "type": "address"
        }
      ],
      "name": "EmergencyAction",
      "type": "event"
    },
    {
      "anonymous": false,
      "inputs": [
        {
          "indexed": false,
          "internalType": "uint16",
          "name": "minBps",
          "type": "uint16"
        },
        {
          "indexed": false,
          "internalType": "uint16",
          "name": "maxBps",
          "type": "uint16"
        }
      ],
      "name": "FeePolicyUpdated",
      "type": "event"
    },
    {
      "anonymous": false,
      "inputs": [
        {
          "indexed": false,
          "internalType": "uint256",
          "name": "dailyBurnCap",
          "type": "uint256"
        },
        {
          "indexed": false,
          "internalType": "uint256",
          "name": "supplyFloor",
          "type": "uint256"
        },
        {
          "indexed": false,
          "internalType": "uint16",
          "name": "ecosystemMinBps",
          "type": "uint16"
        }
      ],
      "name": "SustainabilityUpdated",
      "type": "event"
    },
    {
      "inputs": [],
      "name": "burnRouter",
      "outputs": [
        {
          "internalType": "contract IProofScoreBurnRouter",
          "name": "",
          "type": "address"
        }
      ],
      "stateMutability": "view",
      "type": "function"
    },
    {
      "inputs": [],
      "name": "emergency_pauseAll",
      "outputs": [],
      "stateMutability": "nonpayable",
      "type": "function"
    },
    {
      "inputs": [
        {
          "internalType": "address payable",
          "name": "recipient",
          "type": "address"
        }
      ],
      "name": "emergency_recoverETH",
      "outputs": [],
      "stateMutability": "nonpayable",
      "type": "function"
    },
    {
      "inputs": [
        {
          "internalType": "address",
          "name": "token",
          "type": "address"
        },
        {
          "internalType": "address",
          "name": "recipient",
          "type": "address"
        },
        {
          "internalType": "uint256",
          "name": "amount",
          "type": "uint256"
        }
      ],
      "name": "emergency_recoverTokens",
      "outputs": [],
      "stateMutability": "nonpayable",
      "type": "function"
    },
    {
      "inputs": [],
      "name": "emergency_resumeAll",
      "outputs": [],
      "stateMutability": "nonpayable",
      "type": "function"
    },
    {
      "inputs": [
        {
          "internalType": "address",
          "name": "user",
          "type": "address"
        }
      ],
      "name": "fees_getEffectiveRates",
      "outputs": [
        {
          "internalType": "uint16",
          "name": "burnBps",
          "type": "uint16"
        },
        {
          "internalType": "uint16",
          "name": "sanctumBps",
          "type": "uint16"
        },
        {
          "internalType": "uint16",
          "name": "ecosystemBps",
          "type": "uint16"
        }
      ],
      "stateMutability": "view",
      "type": "function"
    },
    {
      "inputs": [],
      "name": "fees_getPolicy",
      "outputs": [
        {
          "internalType": "uint16",
          "name": "minBps",
          "type": "uint16"
        },
        {
          "internalType": "uint16",
          "name": "maxBps",
          "type": "uint16"
        }
      ],
      "stateMutability": "view",
      "type": "function"
    },
    {
      "inputs": [
        {
          "internalType": "uint16",
          "name": "score",
          "type": "uint16"
        }
      ],
      "name": "fees_previewForScore",
      "outputs": [
        {
          "internalType": "uint256",
          "name": "totalBps",
          "type": "uint256"
        }
      ],
      "stateMutability": "view",
      "type": "function"
    },
    {
      "inputs": [
        {
          "internalType": "address",
          "name": "user",
          "type": "address"
        },
        {
          "internalType": "uint256",
          "name": "amount",
          "type": "uint256"
        }
      ],
      "name": "fees_previewTransfer",
      "outputs": [
        {
          "internalType": "uint256",
          "name": "burnAmount",
          "type": "uint256"
        },
        {
          "internalType": "uint256",
          "name": "sanctumAmount",
          "type": "uint256"
        },
        {
          "internalType": "uint256",
          "name": "ecosystemAmount",
          "type": "uint256"
        },
        {
          "internalType": "uint256",
          "name": "netAmount",
          "type": "uint256"
        },
        {
          "internalType": "uint16",
          "name": "score",
          "type": "uint16"
        }
      ],
      "stateMutability": "view",
      "type": "function"
    },
    {
      "inputs": [
        {
          "internalType": "uint16",
          "name": "minBps",
          "type": "uint16"
        },
        {
          "internalType": "uint16",
          "name": "maxBps",
          "type": "uint16"
        }
      ],
      "name": "fees_setPolicy",
      "outputs": [],
      "stateMutability": "nonpayable",
      "type": "function"
    },
    {
      "inputs": [],
      "name": "getPresaleStatus",
      "outputs": [
        {
          "internalType": "uint256",
          "name": "totalBaseSold",
          "type": "uint256"
        },
        {
          "internalType": "uint256",
          "name": "totalBonusGiven",
          "type": "uint256"
        },
        {
          "internalType": "uint256",
          "name": "totalSold",
          "type": "uint256"
        },
        {
          "internalType": "uint256",
          "name": "tokenBalance",
          "type": "uint256"
        },
        {
          "internalType": "bool",
          "name": "hasSufficientTokens",
          "type": "bool"
        },
        {
          "internalType": "bool",
          "name": "paused",
          "type": "bool"
        },
        {
          "internalType": "bool",
          "name": "finalized",
          "type": "bool"
        },
        {
          "internalType": "uint256",
          "name": "startTime",
          "type": "uint256"
        },
        {
          "internalType": "uint256",
          "name": "endTime",
          "type": "uint256"
        },
        {
          "internalType": "uint256",
          "name": "timeRemaining",
          "type": "uint256"
        }
      ],
      "stateMutability": "view",
      "type": "function"
    },
    {
      "inputs": [],
      "name": "getSystemHealth",
      "outputs": [
        {
          "internalType": "bool",
          "name": "tokenHealthy",
          "type": "bool"
        },
        {
          "internalType": "bool",
          "name": "presaleHealthy",
          "type": "bool"
        },
        {
          "internalType": "bool",
          "name": "vaultHealthy",
          "type": "bool"
        },
        {
          "internalType": "string",
          "name": "status",
          "type": "string"
        }
      ],
      "stateMutability": "view",
      "type": "function"
    },
    {
      "inputs": [],
      "name": "getTokenStatus",
      "outputs": [
        {
          "internalType": "uint256",
          "name": "totalSupply",
          "type": "uint256"
        },
        {
          "internalType": "uint256",
          "name": "devReserveBalance",
          "type": "uint256"
        },
        {
          "internalType": "uint256",
          "name": "presaleBalance",
          "type": "uint256"
        },
        {
          "internalType": "uint256",
          "name": "treasuryBalance",
          "type": "uint256"
        },
        {
          "internalType": "bool",
          "name": "vaultOnly",
          "type": "bool"
        },
        {
          "internalType": "bool",
          "name": "policyLocked",
          "type": "bool"
        },
        {
          "internalType": "bool",
          "name": "circuitBreaker",
          "type": "bool"
        }
      ],
      "stateMutability": "view",
      "type": "function"
    },
    {
      "inputs": [
        {
          "internalType": "address",
          "name": "vaultAddress",
          "type": "address"
        }
      ],
      "name": "getVaultDetails",
      "outputs": [
        {
          "internalType": "address",
          "name": "vaultOwner",
          "type": "address"
        },
        {
          "internalType": "uint8",
          "name": "guardianCount",
          "type": "uint8"
        },
        {
          "internalType": "bool",
          "name": "frozen",
          "type": "bool"
        },
        {
          "internalType": "bool",
          "name": "isValid",
          "type": "bool"
        }
      ],
      "stateMutability": "view",
      "type": "function"
    },
    {
      "inputs": [],
      "name": "getVaultStatus",
      "outputs": [
        {
          "internalType": "uint256",
          "name": "totalVaults",
          "type": "uint256"
        },
        {
          "internalType": "address",
          "name": "specificVault",
          "type": "address"
        },
        {
          "internalType": "bool",
          "name": "isVault",
          "type": "bool"
        }
      ],
      "stateMutability": "view",
      "type": "function"
    },
    {
      "inputs": [
        {
          "internalType": "address",
          "name": "user",
          "type": "address"
        }
      ],
      "name": "hasVault",
      "outputs": [
        {
          "internalType": "bool",
          "name": "",
          "type": "bool"
        },
        {
          "internalType": "address",
          "name": "",
          "type": "address"
        }
      ],
      "stateMutability": "view",
      "type": "function"
    },
    {
      "inputs": [],
      "name": "owner",
      "outputs": [
        {
          "internalType": "address",
          "name": "",
          "type": "address"
        }
      ],
      "stateMutability": "view",
      "type": "function"
    },
    {
      "inputs": [],
      "name": "presale",
      "outputs": [
        {
          "internalType": "contract IVFIDEPresale",
          "name": "",
          "type": "address"
        }
      ],
      "stateMutability": "view",
      "type": "function"
    },
    {
      "inputs": [],
      "name": "presale_emergencyWithdraw",
      "outputs": [],
      "stateMutability": "nonpayable",
      "type": "function"
    },
    {
      "inputs": [],
      "name": "presale_enableRefunds",
      "outputs": [],
      "stateMutability": "nonpayable",
      "type": "function"
    },
    {
      "inputs": [
        {
          "internalType": "uint256",
          "name": "additionalDays",
          "type": "uint256"
        }
      ],
      "name": "presale_extendSale",
      "outputs": [],
      "stateMutability": "nonpayable",
      "type": "function"
    },
    {
      "inputs": [
        {
          "internalType": "address",
          "name": "uniRouter",
          "type": "address"
        },
        {
          "internalType": "address",
          "name": "uniFactory",
          "type": "address"
        }
      ],
      "name": "presale_finalize",
      "outputs": [],
      "stateMutability": "nonpayable",
      "type": "function"
    },
    {
      "inputs": [],
      "name": "presale_fundRefunds",
      "outputs": [],
      "stateMutability": "payable",
      "type": "function"
    },
    {
      "inputs": [
        {
          "internalType": "uint256",
          "name": "newMaxGasPrice",
          "type": "uint256"
        }
      ],
      "name": "presale_setMaxGasPrice",
      "outputs": [],
      "stateMutability": "nonpayable",
      "type": "function"
    },
    {
      "inputs": [
        {
          "internalType": "bool",
          "name": "paused",
          "type": "bool"
        }
      ],
      "name": "presale_setPaused",
      "outputs": [],
      "stateMutability": "nonpayable",
      "type": "function"
    },
    {
      "inputs": [
        {
          "internalType": "address",
          "name": "recipient",
          "type": "address"
        }
      ],
      "name": "presale_withdrawUnsold",
      "outputs": [],
      "stateMutability": "nonpayable",
      "type": "function"
    },
    {
      "inputs": [],
      "name": "seer",
      "outputs": [
        {
          "internalType": "contract ISeer",
          "name": "",
          "type": "address"
        }
      ],
      "stateMutability": "view",
      "type": "function"
    },
    {
      "inputs": [
        {
          "internalType": "address",
          "name": "user",
          "type": "address"
        }
      ],
      "name": "seer_getScore",
      "outputs": [
        {
          "internalType": "uint16",
          "name": "",
          "type": "uint16"
        }
      ],
      "stateMutability": "view",
      "type": "function"
    },
    {
      "inputs": [],
      "name": "seer_getThresholds",
      "outputs": [
        {
          "internalType": "uint16",
          "name": "lowTrust",
          "type": "uint16"
        },
        {
          "internalType": "uint16",
          "name": "highTrust",
          "type": "uint16"
        },
        {
          "internalType": "uint16",
          "name": "minGovernance",
          "type": "uint16"
        },
        {
          "internalType": "uint16",
          "name": "minMerchant",
          "type": "uint16"
        }
      ],
      "stateMutability": "view",
      "type": "function"
    },
    {
      "inputs": [
        {
          "internalType": "uint16",
          "name": "lowTrust",
          "type": "uint16"
        },
        {
          "internalType": "uint16",
          "name": "highTrust",
          "type": "uint16"
        },
        {
          "internalType": "uint16",
          "name": "minGovernance",
          "type": "uint16"
        },
        {
          "internalType": "uint16",
          "name": "minMerchant",
          "type": "uint16"
        }
      ],
      "name": "seer_setThresholds",
      "outputs": [],
      "stateMutability": "nonpayable",
      "type": "function"
    },
    {
      "inputs": [
        {
          "internalType": "address",
          "name": "_token",
          "type": "address"
        },
        {
          "internalType": "address",
          "name": "_presale",
          "type": "address"
        },
        {
          "internalType": "address",
          "name": "_vaultHub",
          "type": "address"
        },
        {
          "internalType": "address",
          "name": "_burnRouter",
          "type": "address"
        },
        {
          "internalType": "address",
          "name": "_seer",
          "type": "address"
        }
      ],
      "name": "setContracts",
      "outputs": [],
      "stateMutability": "nonpayable",
      "type": "function"
    },
    {
      "inputs": [],
      "name": "sustainability_getConfig",
      "outputs": [
        {
          "internalType": "uint256",
          "name": "dailyBurnCap",
          "type": "uint256"
        },
        {
          "internalType": "uint256",
          "name": "minimumSupplyFloor",
          "type": "uint256"
        },
        {
          "internalType": "uint16",
          "name": "ecosystemMinBps",
          "type": "uint16"
        },
        {
          "internalType": "bool",
          "name": "adaptiveEnabled",
          "type": "bool"
        },
        {
          "internalType": "uint16",
          "name": "volumeMultiplier",
          "type": "uint16"
        }
      ],
      "stateMutability": "view",
      "type": "function"
    },
    {
      "inputs": [],
      "name": "sustainability_getStatus",
      "outputs": [
        {
          "internalType": "uint256",
          "name": "dailyBurned",
          "type": "uint256"
        },
        {
          "internalType": "uint256",
          "name": "burnCapacity",
          "type": "uint256"
        },
        {
          "internalType": "uint256",
          "name": "dailyVolume",
          "type": "uint256"
        },
        {
          "internalType": "uint16",
          "name": "volumeMultiplier",
          "type": "uint16"
        },
        {
          "internalType": "bool",
          "name": "burnsPausedFlag",
          "type": "bool"
        },
        {
          "internalType": "uint256",
          "name": "supplyFloor",
          "type": "uint256"
        },
        {
          "internalType": "uint256",
          "name": "currentSupply",
          "type": "uint256"
        }
      ],
      "stateMutability": "view",
      "type": "function"
    },
    {
      "inputs": [
        {
          "internalType": "uint256",
          "name": "lowVolumeThreshold",
          "type": "uint256"
        },
        {
          "internalType": "uint256",
          "name": "highVolumeThreshold",
          "type": "uint256"
        },
        {
          "internalType": "uint16",
          "name": "lowVolMultiplier",
          "type": "uint16"
        },
        {
          "internalType": "uint16",
          "name": "highVolMultiplier",
          "type": "uint16"
        },
        {
          "internalType": "bool",
          "name": "enabled",
          "type": "bool"
        }
      ],
      "name": "sustainability_setAdaptiveFees",
      "outputs": [],
      "stateMutability": "nonpayable",
      "type": "function"
    },
    {
      "inputs": [
        {
          "internalType": "uint256",
          "name": "dailyBurnCap",
          "type": "uint256"
        },
        {
          "internalType": "uint256",
          "name": "minimumSupplyFloor",
          "type": "uint256"
        },
        {
          "internalType": "uint16",
          "name": "ecosystemMinBps",
          "type": "uint16"
        }
      ],
      "name": "sustainability_setBurnLimits",
      "outputs": [],
      "stateMutability": "nonpayable",
      "type": "function"
    },
    {
      "inputs": [
        {
          "internalType": "address",
          "name": "token",
          "type": "address"
        }
      ],
      "name": "sustainability_setTokenReference",
      "outputs": [],
      "stateMutability": "nonpayable",
      "type": "function"
    },
    {
      "inputs": [
        {
          "internalType": "address[]",
          "name": "users",
          "type": "address[]"
        },
        {
          "internalType": "bool",
          "name": "status",
          "type": "bool"
        }
      ],
      "name": "token_batchBlacklist",
      "outputs": [],
      "stateMutability": "nonpayable",
      "type": "function"
    },
    {
      "inputs": [
        {
          "internalType": "address[]",
          "name": "addrs",
          "type": "address[]"
        },
        {
          "internalType": "bool",
          "name": "exempt",
          "type": "bool"
        }
      ],
      "name": "token_batchWhaleLimitExempt",
      "outputs": [],
      "stateMutability": "nonpayable",
      "type": "function"
    },
    {
      "inputs": [
        {
          "internalType": "address[]",
          "name": "addrs",
          "type": "address[]"
        },
        {
          "internalType": "bool",
          "name": "status",
          "type": "bool"
        }
      ],
      "name": "token_batchWhitelist",
      "outputs": [],
      "stateMutability": "nonpayable",
      "type": "function"
    },
    {
      "inputs": [
        {
          "internalType": "address",
          "name": "addr",
          "type": "address"
        }
      ],
      "name": "token_cooldownRemaining",
      "outputs": [
        {
          "internalType": "uint256",
          "name": "",
          "type": "uint256"
        }
      ],
      "stateMutability": "view",
      "type": "function"
    },
    {
      "inputs": [],
      "name": "token_getAntiWhaleConfig",
      "outputs": [
        {
          "internalType": "uint256",
          "name": "maxTransfer",
          "type": "uint256"
        },
        {
          "internalType": "uint256",
          "name": "maxWallet",
          "type": "uint256"
        },
        {
          "internalType": "uint256",
          "name": "dailyLimit",
          "type": "uint256"
        },
        {
          "internalType": "uint256",
          "name": "cooldown",
          "type": "uint256"
        }
      ],
      "stateMutability": "view",
      "type": "function"
    },
    {
      "inputs": [],
      "name": "token_isCircuitBreakerActive",
      "outputs": [
        {
          "internalType": "bool",
          "name": "",
          "type": "bool"
        }
      ],
      "stateMutability": "view",
      "type": "function"
    },
    {
      "inputs": [
        {
          "internalType": "address",
          "name": "addr",
          "type": "address"
        }
      ],
      "name": "token_isWhaleLimitExempt",
      "outputs": [
        {
          "internalType": "bool",
          "name": "",
          "type": "bool"
        }
      ],
      "stateMutability": "view",
      "type": "function"
    },
    {
      "inputs": [],
      "name": "token_lockPolicy",
      "outputs": [],
      "stateMutability": "nonpayable",
      "type": "function"
    },
    {
      "inputs": [
        {
          "internalType": "address",
          "name": "addr",
          "type": "address"
        }
      ],
      "name": "token_remainingDailyLimit",
      "outputs": [
        {
          "internalType": "uint256",
          "name": "",
          "type": "uint256"
        }
      ],
      "stateMutability": "view",
      "type": "function"
    },
    {
      "inputs": [
        {
          "internalType": "uint256",
          "name": "maxTransfer",
          "type": "uint256"
        },
        {
          "internalType": "uint256",
          "name": "maxWallet",
          "type": "uint256"
        },
        {
          "internalType": "uint256",
          "name": "dailyLimit",
          "type": "uint256"
        },
        {
          "internalType": "uint256",
          "name": "cooldown",
          "type": "uint256"
        }
      ],
      "name": "token_setAntiWhale",
      "outputs": [],
      "stateMutability": "nonpayable",
      "type": "function"
    },
    {
      "inputs": [
        {
          "internalType": "address",
          "name": "user",
          "type": "address"
        },
        {
          "internalType": "bool",
          "name": "status",
          "type": "bool"
        }
      ],
      "name": "token_setBlacklist",
      "outputs": [],
      "stateMutability": "nonpayable",
      "type": "function"
    },
    {
      "inputs": [
        {
          "internalType": "bool",
          "name": "active",
          "type": "bool"
        },
        {
          "internalType": "uint256",
          "name": "duration",
          "type": "uint256"
        }
      ],
      "name": "token_setCircuitBreaker",
      "outputs": [],
      "stateMutability": "nonpayable",
      "type": "function"
    },
    {
      "inputs": [
        {
          "internalType": "address",
          "name": "hub",
          "type": "address"
        },
        {
          "internalType": "address",
          "name": "security",
          "type": "address"
        },
        {
          "internalType": "address",
          "name": "ledger",
          "type": "address"
        },
        {
          "internalType": "address",
          "name": "router",
          "type": "address"
        }
      ],
      "name": "token_setModules",
      "outputs": [],
      "stateMutability": "nonpayable",
      "type": "function"
    },
    {
      "inputs": [
        {
          "internalType": "address",
          "name": "treasury",
          "type": "address"
        },
        {
          "internalType": "address",
          "name": "sanctum",
          "type": "address"
        }
      ],
      "name": "token_setSinks",
      "outputs": [],
      "stateMutability": "nonpayable",
      "type": "function"
    },
    {
      "inputs": [
        {
          "internalType": "address",
          "name": "who",
          "type": "address"
        },
        {
          "internalType": "bool",
          "name": "isExempt",
          "type": "bool"
        }
      ],
      "name": "token_setSystemExempt",
      "outputs": [],
      "stateMutability": "nonpayable",
      "type": "function"
    },
    {
      "inputs": [
        {
          "internalType": "bool",
          "name": "enabled",
          "type": "bool"
        }
      ],
      "name": "token_setVaultOnly",
      "outputs": [],
      "stateMutability": "nonpayable",
      "type": "function"
    },
    {
      "inputs": [
        {
          "internalType": "address",
          "name": "addr",
          "type": "address"
        },
        {
          "internalType": "bool",
          "name": "exempt",
          "type": "bool"
        }
      ],
      "name": "token_setWhaleLimitExempt",
      "outputs": [],
      "stateMutability": "nonpayable",
      "type": "function"
    },
    {
      "inputs": [
        {
          "internalType": "address",
          "name": "addr",
          "type": "address"
        },
        {
          "internalType": "bool",
          "name": "status",
          "type": "bool"
        }
      ],
      "name": "token_setWhitelist",
      "outputs": [],
      "stateMutability": "nonpayable",
      "type": "function"
    },
    {
      "inputs": [],
      "name": "vaultHub",
      "outputs": [
        {
          "internalType": "contract IVaultHub",
          "name": "",
          "type": "address"
        }
      ],
      "stateMutability": "view",
      "type": "function"
    },
    {
      "inputs": [
        {
          "internalType": "address",
          "name": "vault",
          "type": "address"
        }
      ],
      "name": "vault_cancelDAORecovery",
      "outputs": [],
      "stateMutability": "nonpayable",
      "type": "function"
    },
    {
      "inputs": [
        {
          "internalType": "address",
          "name": "vault",
          "type": "address"
        }
      ],
      "name": "vault_finalizeDAORecovery",
      "outputs": [],
      "stateMutability": "nonpayable",
      "type": "function"
    },
    {
      "inputs": [
        {
          "internalType": "address",
          "name": "vault",
          "type": "address"
        },
        {
          "internalType": "bool",
          "name": "frozen",
          "type": "bool"
        }
      ],
      "name": "vault_freezeVault",
      "outputs": [],
      "stateMutability": "nonpayable",
      "type": "function"
    },
    {
      "inputs": [
        {
          "internalType": "address",
          "name": "vault",
          "type": "address"
        },
        {
          "internalType": "address",
          "name": "newOwner",
          "type": "address"
        }
      ],
      "name": "vault_requestDAORecovery",
      "outputs": [],
      "stateMutability": "nonpayable",
      "type": "function"
    },
    {
      "inputs": [
        {
          "internalType": "address",
          "name": "multisig",
          "type": "address"
        }
      ],
      "name": "vault_setDAOMultisig",
      "outputs": [],
      "stateMutability": "nonpayable",
      "type": "function"
    },
    {
      "inputs": [
        {
          "internalType": "address",
          "name": "token",
          "type": "address"
        },
        {
          "internalType": "address",
          "name": "security",
          "type": "address"
        },
        {
          "internalType": "address",
          "name": "ledger",
          "type": "address"
        }
      ],
      "name": "vault_setModules",
      "outputs": [],
      "stateMutability": "nonpayable",
      "type": "function"
    },
    {
      "inputs": [
        {
          "internalType": "uint64",
          "name": "timelock",
          "type": "uint64"
        }
      ],
      "name": "vault_setRecoveryTimelock",
      "outputs": [],
      "stateMutability": "nonpayable",
      "type": "function"
    },
    {
      "inputs": [],
      "name": "vfideToken",
      "outputs": [
        {
          "internalType": "contract IVFIDEToken",
          "name": "",
          "type": "address"
        }
      ],
      "stateMutability": "view",
      "type": "function"
    },
    {
      "stateMutability": "payable",
      "type": "receive"
    }
  ],
  "bytecode": "0x60a03461029c57601f6143fe38819003918201601f19168301916001600160401b038311848410176102a15780849260c09460405283398101031261029c57610047816102b7565b90610054602082016102b7565b610060604083016102b7565b61006c606084016102b7565b9161008560a061007e608087016102b7565b95016102b7565b946001600160a01b0381161561028b576080526001600160a01b031680610271575b506001600160a01b031680610257575b506001600160a01b03168061023d575b506001600160a01b031680610223575b506001600160a01b031680610209575b60405161413290816102cc82396080518181816102e801528181610407015281816104cc01528181610609015281816106920152818161088601528181610a3f01528181610b5f01528181611034015281816110b601528181611154015281816111d50152818161125f0152818161132c0152818161148801528181611612015281816116ed015281816118d40152818161196f015281816119f001528181611c1101528181611c9a01528181611e1c01528181611edf01528181611f30015281816124b6015281816125ee015281816126df0152818161279001528181612a6a01528181612b6c01528181612c5d01528181612e3301528181612f4c0152818161308c01528181613119015281816131be015281816138480152613cb80152f35b600480546001600160a01b031916919091179055386100e7565b600380546001600160a01b031916919091179055386100d7565b600280546001600160a01b031916919091179055386100c7565b600180546001600160a01b031916919091179055386100b7565b600080546001600160a01b031916919091179055386100a7565b630ad3d6df60e01b60005260046000fd5b600080fd5b634e487b7160e01b600052604160045260246000fd5b51906001600160a01b038216820361029c5756fe6080604052600436101561001b575b361561001957600080fd5b005b60003560e01c8063011dcb7914613ca85780630d453efb14613c165780630f2d3b7914613bb757806316332c0b146139fc578063199f27bf146139ab57806325f0dfaf146138245780632d55ea39146137fb5780632f78026e146135c957806331a6be8c1461327b57806335f35bf8146131875780633d27e5ed146130f25780634285b52114613068578063450ffa8b14612f315780634544a10114612e0f5780634e929f6114612d6d578063505cc39314612c4a57806358e378d914612b44578063671f9b0e14612a4657806367a44ca3146128335780636c32b2ec1461280a5780636cc92c8e146127755780636dd6e80b1461274c57806371cb804a146126cc57806378a2e013146125ca5780637b898d0c146124a35780637edc9d4b146122525780637f7c65e01461215457806385a9a51f146120d157806387980ec114611fe95780638d54066914611f0e5780638da5cb5b14611ec95780639be95eff14611e0c578063a5e3b21d14611d70578063a8f5daf014611c7f578063a9fe0d8a14611bfe578063aa452e9b14611a60578063aadde38b146119d5578063ad1cbfc11461193a578063adadeac6146118b0578063aede67ea14611753578063b14867f6146116c9578063b555290c146115ef578063b8a71eec146115c6578063ba92c3c71461145c578063bb4de8b914611311578063bd284d1a1461124f578063bdde6f21146111ba578063be38ee5c14611130578063c117a1d21461109b578063c6f3cb9814611026578063d7517caa14610ca3578063d831d55d14610bc5578063e02cd68a14610b4c578063e1aa87e814610ab9578063e625e80a14610a24578063f0d4344d14610851578063f254929e14610756578063f4a3c94c1461067f578063f4e32699146105e5578063f63bf8bd14610480578063f64ee9d3146103f4578063fdea8e0b146103cb5763fe917bd30361000e57346103b55760003660031901126103b5577f00000000000000000000000000000000000000000000000000000000000000006001600160a01b031633036103ba576001546001600160a01b0316803b156103b55760008091600460405180948193638c52dc4160e01b83525af180156103a957610398575b6000805160206140dd833981519152608060018060a01b03600154166040519060408252600f60408301526e1c99599d5b991cd7d95b98589b1959608a1b60608301526020820152a1005b60006103a391613f4f565b3861034d565b6040513d6000823e3d90fd5b600080fd5b633f4f4a0960e21b60005260046000fd5b346103b55760003660031901126103b5576001546040516001600160a01b039091168152602090f35b346103b55760203660031901126103b5577f00000000000000000000000000000000000000000000000000000000000000006001600160a01b031633036103ba576001546001600160a01b0316803b156103b557600080916024604051809481936307c621b960e21b835260043560048401525af180156103a95761047557005b600061001991613f4f565b346103b55760a03660031901126103b557610499613de2565b6104a1613df8565b906104aa613e0e565b916104b3613e24565b926084356001600160a01b03811691908290036103b5577f00000000000000000000000000000000000000000000000000000000000000006001600160a01b031633036103ba577f0ef794e787fc9c91fefe4a55535c1a78a09d1cfb5ef3042e4ea952fbec5bfab39460a0946001600160a01b031693846105d0575b600180871b031691826105bb575b600180871b031690816105a6575b600180871b03169182610591575b8361057c575b6040519485526020850152604084015260608301526080820152a1005b83600180881b0319600454161760045561055f565b82600180881b03196003541617600355610559565b81600180881b0319600254161760025561054b565b82600180881b0319600154161760015561053d565b84600180881b0319600054161760005561052f565b346103b55760403660031901126103b5576105fe613de2565b610606613d74565b907f00000000000000000000000000000000000000000000000000000000000000006001600160a01b031633036103ba576000546001600160a01b031691823b156103b55761066f9260009283604051809681958294630a9d868f60e11b845260048401613f86565b03925af180156103a95761047557005b346103b55760003660031901126103b5577f00000000000000000000000000000000000000000000000000000000000000006001600160a01b031633036103ba576001546001600160a01b0316803b156103b557600080916004604051809481936336cb886f60e21b83525af180156103a957610745575b6000805160206140dd833981519152608060018060a01b036001541660405190604082526012604083015271656d657267656e63795f776974686472617760701b60608301526020820152a1005b600061075091613f4f565b806106f7565b346103b55760003660031901126103b557600354604051635e83c26d60e01b8152906001600160a01b0316602082600481845afa9182156103a957600092610812575b5090602060049260405193848092635f31bce560e01b82525afa9182156103a9576000926107d6575b506107d260405192839283613f00565b0390f35b9091506020813d60201161080a575b816107f260209383613f4f565b810103126103b55761080390613fc0565b90826107c2565b3d91506107e5565b91506020823d602011610849575b8161082d60209383613f4f565b810103126103b5576020610842600493613fc0565b9250610799565b3d9150610820565b346103b55760803660031901126103b55761086a613de2565b610872613df8565b61087a613e0e565b90610883613e24565b927f00000000000000000000000000000000000000000000000000000000000000006001600160a01b031633036103ba576001600160a01b0316806109d4575b506001600160a01b031680610984575b506001600160a01b031680610934575b506001600160a01b0316806108f457005b6000546001600160a01b031690813b156103b5576000916024839260405194859384926307712c2760e21b845260048401525af180156103a95761047557005b6000546001600160a01b031690813b156103b557600091602483926040519485938492633246887d60e01b845260048401525af180156103a957156108e357600061097e91613f4f565b816108e3565b6000546001600160a01b031690813b156103b55760009160248392604051948593849263055545fb60e41b845260048401525af180156103a957156108d35760006109ce91613f4f565b826108d3565b6000546001600160a01b031690813b156103b5576000916024839260405194859384926303a0903760e11b845260048401525af180156103a957156108c3576000610a1e91613f4f565b836108c3565b346103b55760203660031901126103b557610a3d613de2565b7f00000000000000000000000000000000000000000000000000000000000000006001600160a01b031633036103ba576002546001600160a01b031690813b156103b5576040516302f40b3360e41b81526001600160a01b039091166004820152906000908290602490829084905af180156103a95761047557005b346103b55760203660031901126103b557610ad2613de2565b60005460405163f497e87360e01b81526001600160a01b0392831660048201529160209183916024918391165afa80156103a957600090610b19575b602090604051908152f35b506020813d602011610b44575b81610b3360209383613f4f565b810103126103b55760209051610b0e565b3d9150610b26565b346103b55760003660031901126103b5577f00000000000000000000000000000000000000000000000000000000000000006001600160a01b031633036103ba576000546001600160a01b0316803b156103b55760008091600460405180948193632680fc8960e21b83525af180156103a95761047557005b346103b55760203660031901126103b557610bde613de2565b6003546040516318108ef960e31b81526001600160a01b0392831660048201529160609183916024918391165afa80156103a95760009182908392610c3d575b60608461ffff8581868160405195168552166020840152166040820152f35b9150506060813d606011610c9b575b81610c5960609383613f4f565b81010312610c97576060915061ffff610c7182613fc0565b81610c8a6040610c8360208701613fc0565b9501613fc0565b9193919394505090610c1e565b5080fd5b3d9150610c4c565b346103b55760003660031901126103b55760015460405163e511e4b760e01b81526001600160a01b03909116906000602082600481865afa9182156103a957600092610ff2575b5060405163999d350d60e01b815292602084600481845afa9384156103a957600094610fbe575b506040516348836bdd60e11b815293602085600481855afa9485156103a957600095610f8a575b50604051635c975abb60e01b8152602081600481865afa9081156103a957600091610f50575b5060405163b3f05b9760e01b815290602082600481875afa9182156103a957600092610f14575b50604051631cbaee2d60e01b815292602084600481885afa9384156103a957600094610ee0575b5060405163ed338ff160e01b815294602086600481845afa9586156103a957600096610ea8575b506040805163bb4c46e960e01b81529291839060049082905afa9081156103a957600092600092610e74575b50864210610e4a575b9861014099604051998a5260208a01526040890152606088015215156080870152151560a0860152151560c085015260e0840152610100830152610120820152f35b965042860398868a11610e5e579896610e08565b634e487b7160e01b600052601160045260246000fd5b909250610e99915060403d604011610ea1575b610e918183613f4f565b810190613fdc565b90918a610dff565b503d610e87565b90956020823d602011610ed8575b81610ec360209383613f4f565b81010312610ed5575051946040610dd3565b80fd5b3d9150610eb6565b9093506020813d602011610f0c575b81610efc60209383613f4f565b810103126103b557519288610dac565b3d9150610eef565b9091506020813d602011610f48575b81610f3060209383613f4f565b810103126103b557610f4190613fcf565b9087610d85565b3d9150610f23565b90506020813d602011610f82575b81610f6b60209383613f4f565b810103126103b557610f7c90613fcf565b86610d5e565b3d9150610f5e565b9094506020813d602011610fb6575b81610fa660209383613f4f565b810103126103b557519385610d38565b3d9150610f99565b9093506020813d602011610fea575b81610fda60209383613f4f565b810103126103b557519284610d11565b3d9150610fcd565b9091506020813d60201161101e575b8161100e60209383613f4f565b810103126103b557519083610cea565b3d9150611001565b60003660031901126103b5577f00000000000000000000000000000000000000000000000000000000000000006001600160a01b031633036103ba576001546001600160a01b0316803b156103b557600060049160405192838092634b58e00760e11b825234905af180156103a95761047557005b346103b55760203660031901126103b5576110b4613de2565b7f00000000000000000000000000000000000000000000000000000000000000006001600160a01b031633036103ba576001546001600160a01b031690813b156103b557604051635d81d0d560e11b81526001600160a01b039091166004820152906000908290602490829084905af180156103a95761047557005b346103b55760403660031901126103b557611149613de2565b611151613d74565b907f00000000000000000000000000000000000000000000000000000000000000006001600160a01b031633036103ba576000546001600160a01b031691823b156103b55761066f92600092836040518096819582946353d6fd5960e01b845260048401613f86565b346103b55760203660031901126103b5576111d3613de2565b7f00000000000000000000000000000000000000000000000000000000000000006001600160a01b031633036103ba576003546001600160a01b031690813b156103b55760405163144fa6d760e01b81526001600160a01b039091166004820152906000908290602490829084905af180156103a95761047557005b346103b55761125d36613d83565b7f00000000000000000000000000000000000000000000000000000000000000006001600160a01b031633036103ba5760005b82811061129957005b6000546001600160a01b0316906112b96112b4828688613f15565b613f3b565b91803b156103b557836000916112e694836040518097819582946353d6fd5960e01b845260048401613f86565b03925af19182156103a957600192611300575b5001611290565b600061130b91613f4f565b856112f9565b346103b55760403660031901126103b55761132a613d65565b7f00000000000000000000000000000000000000000000000000000000000000006001600160a01b031633036103ba576000546001600160a01b0316803b156103b55760008091604460405180948193637d01bbb360e11b8352871515600484015260243560248401525af180156103a95761144b575b506000901561140857506000805160206140dd8339815191526040516113c8604082613f4f565b601281527131b4b931bab4ba2fb13932b0b5b2b92fb7b760711b60208201525b60018060a01b0360005416906114036040519283928361403e565b0390a1005b506000805160206140dd833981519152604051611426604082613f4f565b601381527231b4b931bab4ba2fb13932b0b5b2b92fb7b33360691b60208201526113e8565b600061145691613f4f565b816113a1565b346103b55760603660031901126103b557611475613de2565b61147d613df8565b611485613e0e565b917f00000000000000000000000000000000000000000000000000000000000000006001600160a01b031633036103ba576001600160a01b031680611576575b506001600160a01b031680611526575b506001600160a01b0316806114e657005b6002546001600160a01b031690813b156103b557600091602483926040519485938492630f6bab3960e01b845260048401525af180156103a95761047557005b6002546001600160a01b031690813b156103b55760009160248392604051948593849263055545fb60e41b845260048401525af180156103a957156114d557600061157091613f4f565b816114d5565b6002546001600160a01b031690813b156103b557600091602483926040519485938492631029802160e21b845260048401525af180156103a957156114c55760006115c091613f4f565b826114c5565b346103b55760003660031901126103b5576000546040516001600160a01b039091168152602090f35b346103b55760403660031901126103b557611608613ec2565b611610613ed3565b7f00000000000000000000000000000000000000000000000000000000000000006001600160a01b031633036103ba576003546001600160a01b031691823b156103b55760006040518094631a31c34b60e11b8252818381611676888860048401613f00565b03925af19283156103a9577ff4520fd8fa646cd03d963f7aac52687df531340e045ad8c4cff8cdbb321611db936116b8575b5061140360405192839283613f00565b60006116c391613f4f565b836116a8565b346103b55760403660031901126103b5576116e2613de2565b6116ea613d74565b907f00000000000000000000000000000000000000000000000000000000000000006001600160a01b031633036103ba576000546001600160a01b031691823b156103b55761066f92600092836040518096819582946318cdbceb60e21b845260048401613f86565b346103b55760003660031901126103b557600254604051633588957d60e11b81526001600160a01b0390911690602081600481855afa9081156103a95760009161187e575b50604051630709df4560e01b815233600482015291602083602481845afa9283156103a957602493602091600091611851575b506040519485809263652b9b4160e01b825260018060a01b0316948560048301525afa9081156103a957600091611815575b60609350604051928352602083015215156040820152f35b90506020833d602011611849575b8161183060209383613f4f565b810103126103b557611843606093613fcf565b906117fd565b3d9150611823565b6118719150823d8411611877575b6118698183613f4f565b810190613fa1565b856117cb565b503d61185f565b90506020813d6020116118a8575b8161189960209383613f4f565b810103126103b5575182611798565b3d915061188c565b346103b55760403660031901126103b5576118c9613de2565b6118d1613d74565b907f00000000000000000000000000000000000000000000000000000000000000006001600160a01b031633036103ba576000546001600160a01b031691823b156103b55761066f926000928360405180968195829463027a35a160e31b845260048401613f86565b346103b55760803660031901126103b557611953613ec2565b61195b613ed3565b90611964613ea0565b61196c613eb1565b927f00000000000000000000000000000000000000000000000000000000000000006001600160a01b031633036103ba576004546001600160a01b031690813b156103b5576000809461066f604051978896879586946303e0ea6760e21b865260048601613e3a565b346103b55760203660031901126103b5576119ee613d65565b7f00000000000000000000000000000000000000000000000000000000000000006001600160a01b031633036103ba576000546001600160a01b031690813b156103b55760009160248392604051948593849263c4b740f560e01b8452151560048401525af180156103a95761047557005b346103b55760003660031901126103b55760005460405163a9e7572360e01b81526001600160a01b0390911690602081600481855afa9081156103a957600091611bcc575b5060405163bbde77c160e01b815291602083600481845afa9283156103a957600093611b98575b5060405163f714af6f60e01b815290602082600481845afa9182156103a957600092611b63575b50906020600492604051938480926368f1629360e01b82525afa9081156103a957600091611b2d575b6107d2925060405194859485613ee4565b90506020823d602011611b5b575b81611b4860209383613f4f565b810103126103b5576107d2915190611b1c565b3d9150611b3b565b91506020823d602011611b90575b81611b7e60209383613f4f565b810103126103b5579051906020611af3565b3d9150611b71565b9092506020813d602011611bc4575b81611bb460209383613f4f565b810103126103b557519183611acc565b3d9150611ba7565b90506020813d602011611bf6575b81611be760209383613f4f565b810103126103b5575182611aa5565b3d9150611bda565b346103b55760203660031901126103b5577f00000000000000000000000000000000000000000000000000000000000000006001600160a01b031633036103ba576001546001600160a01b0316803b156103b5576000809160246040518094819363697d31af60e11b835260043560048401525af180156103a95761047557005b346103b55760203660031901126103b557611c98613de2565b7f00000000000000000000000000000000000000000000000000000000000000006001600160a01b031633036103ba576002546001600160a01b0316803b156103b55760405163a2a78a7f60e01b81526001600160a01b0390921660048301819052906000908390602490829084905af19081156103a9576000805160206140dd83398151915292608092611d5f575b506040519060408252601660408301527519185bd7dc9958dbdd995c9e57d99a5b985b1a5e995960521b60608301526020820152a1005b6000611d6a91613f4f565b83611d28565b346103b55760203660031901126103b557611d89613de2565b600054604051637adc723d60e01b81526001600160a01b0392831660048201529160209183916024918391165afa80156103a957600090611dd2575b6020906040519015158152f35b506020813d602011611e04575b81611dec60209383613f4f565b810103126103b557611dff602091613fcf565b611dc5565b3d9150611ddf565b346103b557611e1a36613d83565b7f00000000000000000000000000000000000000000000000000000000000000006001600160a01b031633036103ba5760005b828110611e5657005b6000546001600160a01b031690611e716112b4828688613f15565b91803b156103b55783600091611e9e948360405180978195829463027a35a160e31b845260048401613f86565b03925af19182156103a957600192611eb8575b5001611e4d565b6000611ec391613f4f565b85611eb1565b346103b55760003660031901126103b5576040517f00000000000000000000000000000000000000000000000000000000000000006001600160a01b03168152602090f35b346103b55760603660031901126103b557600435602435611f2d613ea0565b917f00000000000000000000000000000000000000000000000000000000000000006001600160a01b031633036103ba576003546001600160a01b031692833b156103b55760006040518095636c86d1f960e11b8252818381611f95878a8a600485016140c0565b03925af19081156103a9577f4f1f530ba712f35acedd7a906642f0d8810dffa9b9d81620e4b807dc80601be49461140392611fd8575b50604051938493846140c0565b6000611fe391613f4f565b85611fcb565b346103b55760403660031901126103b55761203060a0612007613de2565b600180831b036003541660405180809581946331cf2e0f60e21b835260243590600484016140a5565b03915afa80156103a95760009182839084928594612070575b60a08661ffff87878787604051958652602086015260408501526060840152166080820152f35b935050505060a0813d60a0116120c9575b8161208e60a09383613f4f565b81010312610c975760a0915061ffff8151916020810151926040820151916120bd608060608301519201613fc0565b91955090939092612049565b3d9150612081565b346103b55760203660031901126103b5576120ea613ec2565b6003546040805163ad0d14db60e01b815261ffff93909316600484015290829060249082906001600160a01b03165afa80156103a95760009061213257602090604051908152f35b506040813d60401161214c575b81610b3360409383613f4f565b3d915061213f565b346103b55760003660031901126103b55760035460405163556cfc1f60e01b81529060e090829060049082906001600160a01b03165afa80156103a9576000908192829383948491859386956121d7575b509561ffff9160e097604051978852602088015260408701521660608501521515608084015260a083015260c0820152f35b959650505050505060e0813d60e01161224a575b816121f860e09383613f4f565b81010312610c975760e0915080519060208101519160408201519161ffff61222260608301613fc0565b61222e60808401613fcf565b9060c060a08501519401519496959091939495919750916121a5565b3d91506121eb565b346103b55760003660031901126103b557600080546040516318160ddd60e01b81526001600160a01b0390911691602082600481865afa9182156103a95760009261246f575b506040516301b8314b60e21b8152602081600481875afa9081156103a957600091612435575b50604051633a456d2960e11b815290602082600481885afa9182156103a9576000926123f9575b506040516316efd94160e01b815292602084600481895afa9384156103a9576000946123bd575b506001546001600160a01b031680612354575b5060e095506040519485526000602086015260408501526000606085015215156080840152151560a0830152151560c0820152f35b602091506024604051809881936370a0823160e01b835260048301525afa80156103a95760009061238a575b60e095508661231f565b506020853d6020116123b5575b816123a460209383613f4f565b810103126103b55760e09451612380565b3d9150612397565b9093506020813d6020116123f1575b816123d960209383613f4f565b810103126103b5576123ea90613fcf565b928661230c565b3d91506123cc565b9091506020813d60201161242d575b8161241560209383613f4f565b810103126103b55761242690613fcf565b90856122e5565b3d9150612408565b90506020813d602011612467575b8161245060209383613f4f565b810103126103b55761246190613fcf565b846122be565b3d9150612443565b9091506020813d60201161249b575b8161248b60209383613f4f565b810103126103b557519083612298565b3d915061247e565b346103b55760003660031901126103b5577f00000000000000000000000000000000000000000000000000000000000000006001600160a01b031633036103ba576001546001600160a01b0316803b156103b557600080916024604051809481936305b0e2cf60e21b8352600160048401525af180156103a9576125b9575b506000546001600160a01b0316803b156103b55760008091604460405180948193637d01bbb360e11b8352600160048401526201518060248401525af180156103a9576125a8575b6000805160206140dd833981519152608060405160408152600d60408201526c1cde5cdd195b57dc185d5cd959609a1b6060820152306020820152a1005b60006125b391613f4f565b8061256a565b60006125c491613f4f565b80612522565b346103b55760403660031901126103b5576125e3613de2565b6125eb613df8565b907f00000000000000000000000000000000000000000000000000000000000000006001600160a01b031633036103ba576001600160a01b03168061267c575b506001600160a01b03168061263c57005b6000546001600160a01b031690813b156103b557600091602483926040519485938492635aaf1f9d60e11b845260048401525af180156103a95761047557005b6000546001600160a01b031690813b156103b55760009160248392604051948593849263a34857cd60e01b845260048401525af180156103a9571561262b5760006126c691613f4f565b8161262b565b346103b55760803660031901126103b5577f00000000000000000000000000000000000000000000000000000000000000006001600160a01b031633036103ba576000546001600160a01b0316803b156103b55760006040518092630f0be7f960e21b825281838161066f60643560443560243560043560048601613ee4565b346103b55760003660031901126103b5576002546040516001600160a01b039091168152602090f35b346103b55760203660031901126103b55761278e613de2565b7f00000000000000000000000000000000000000000000000000000000000000006001600160a01b031633036103ba576002546001600160a01b031690813b156103b5576040516304ae060960e21b81526001600160a01b039091166004820152906000908290602490829084905af180156103a95761047557005b346103b55760003660031901126103b5576003546040516001600160a01b039091168152602090f35b346103b55760203660031901126103b55761284c613de2565b60025460405163652b9b4160e01b81526001600160a01b0392831660048201819052600093849384929160209185916024918391165afa928315612a3b5785936129ff575b50826128c2575b5060ff6080946040519460018060a01b031685521660208401521515604083015215156060820152f35b925050604051638da5cb5b60e01b8152602081600481865afa9081156129f45784916129d5575b5091604051936354387ad760e01b8552602085600481855afa9485156129c8578195612982575b505060206004949160405195868092630153df6760e21b82525afa9384156103a957600094612943575b509260ff612898565b93506020843d60201161297a575b8161295e60209383613f4f565b810103126103b55760ff612973608095613fcf565b945061293a565b3d9150612951565b9094506020813d6020116129c0575b8161299e60209383613f4f565b810103126129bc57519360ff85168503610ed5575060206004612910565b8480fd5b3d9150612991565b50604051903d90823e3d90fd5b6129ee915060203d602011611877576118698183613f4f565b846128e9565b6040513d86823e3d90fd5b9092506020813d602011612a33575b81612a1b60209383613f4f565b810103126129bc57612a2c90613fcf565b9185612891565b3d9150612a0e565b6040513d87823e3d90fd5b346103b55760403660031901126103b557612a5f613de2565b612a67613df8565b907f00000000000000000000000000000000000000000000000000000000000000006001600160a01b031633036103ba576002546001600160a01b0316803b156103b55760405162e940c160e31b8152926000918491829084908290612ad1908860048401614024565b03925af19081156103a9576000805160206140dd83398151915292608092612b33575b506040519060408252601660408301527519185bd7dc9958dbdd995c9e57dc995c5d595cdd195960521b606083015260018060a01b03166020820152a1005b6000612b3e91613f4f565b83612af4565b346103b55760203660031901126103b5576004356001600160a01b038116908190036103b5577f00000000000000000000000000000000000000000000000000000000000000006001600160a01b031633036103ba578015612c39574780612ba857005b600080808093855af1612bb9614066565b5015612bfe5760806000805160206140dd833981519152916040519060408252600d60408301526c195d1a17dc9958dbdd995c9959609a1b60608301526020820152a1005b60405162461bcd60e51b8152602060048201526013602482015272115512081d1c985b9cd9995c8819985a5b1959606a1b6044820152606490fd5b630ad3d6df60e01b60005260046000fd5b346103b55760003660031901126103b5577f00000000000000000000000000000000000000000000000000000000000000006001600160a01b031633036103ba576001546001600160a01b0316803b156103b557600080916024604051809481936305b0e2cf60e21b83528160048401525af180156103a957612d5c575b506000546001600160a01b0316803b156103b55760008091604460405180948193637d01bbb360e11b83528160048401528160248401525af180156103a957612d4b575b6000805160206140dd833981519152608060405160408152600e60408201526d1cde5cdd195b57dc995cdd5b595960921b6060820152306020820152a1005b6000612d5691613f4f565b80612d0c565b6000612d6791613f4f565b80612cc8565b346103b55760203660031901126103b557612d86613de2565b60048054604051630d47875d60e41b81526001600160a01b0393841692810192909252909160209183916024918391165afa80156103a957600090612dd5575b60209061ffff60405191168152f35b506020813d602011612e07575b81612def60209383613f4f565b810103126103b557612e02602091613fc0565b612dc6565b3d9150612de2565b346103b55760403660031901126103b557612e28613de2565b612e30613d74565b907f00000000000000000000000000000000000000000000000000000000000000006001600160a01b031633036103ba576001600160a01b03811691823b156103b55760008093602460405180968193633f49969960e11b835286151560048401525af19283156103a9576000805160206140dd83398151915293612f20575b5060009015612ef15750604051612ec8604082613f4f565b600c81526b3b30bab63a2fb33937bd32b760a11b60208201525b6114036040519283928361403e565b50604051612f00604082613f4f565b600e81526d3b30bab63a2fbab7333937bd32b760911b6020820152612ee2565b6000612f2b91613f4f565b83612eb0565b346103b55760203660031901126103b557612f4a613d65565b7f00000000000000000000000000000000000000000000000000000000000000006001600160a01b031633036103ba576001546001600160a01b0316803b156103b557600080916024604051809481936305b0e2cf60e21b835287151560048401525af180156103a957613057575b506000901561301757506000805160206140dd833981519152604051612fe0604082613f4f565b600e81526d1c1c995cd85b1957dc185d5cd95960921b60208201525b60018060a01b0360015416906114036040519283928361403e565b506000805160206140dd833981519152604051613035604082613f4f565b601081526f1c1c995cd85b1957dd5b9c185d5cd95960821b6020820152612ffc565b600061306291613f4f565b81612fb9565b346103b55760403660031901126103b557613081613de2565b613089613df8565b907f00000000000000000000000000000000000000000000000000000000000000006001600160a01b031633036103ba576001546001600160a01b031691823b156103b55761066f9260009283604051809681958294636848d17d60e11b845260048401614024565b346103b55760203660031901126103b5576004356001600160401b0381168091036103b5577f00000000000000000000000000000000000000000000000000000000000000006001600160a01b031633036103ba576002546001600160a01b031690813b156103b557600091602483926040519485938492639ce492f160e01b845260048401525af180156103a95761047557005b346103b55760a03660031901126103b5576004356024356131a6613ea0565b916131af613eb1565b9260843580151581036103b5577f00000000000000000000000000000000000000000000000000000000000000006001600160a01b031633036103ba576003546001600160a01b0316803b156103b55760405163024ec29360e31b81529590600090879081838161322788888b8e8e60048701613ff9565b03925af19283156103a9577ff7d6a60a5abfa76db66a2659a0a81708176589b02f89d200e3a37b2fcb6367c7966114039461326a575b5060405195869586613ff9565b600061327591613f4f565b8761325d565b346103b55760003660031901126103b5576000546040516318160ddd60e01b815290602090829060049082906001600160a01b03165afa9081156103a957600091613597575b5015801560018060a01b0360015416916040519263bb4c46e960e01b8452604084600481845afa9384156103a957600094613575575b5083613495575b50600254604051633588957d60e11b81529190602090839060049082906001600160a01b03165afa80156103a957600090613461575b6107d29250151590838061345a575b80613453575b156133a8575060405161335d604082613f4f565b6017815276105b1b081cde5cdd195b5cc81bdc195c985d1a5bdb985b604a1b6020820152905b6040519485948552151560208501526040840152608060608401526080830190613e5f565b156133e2576040516133bb604082613f4f565b6014815273151bdad95b881a5cdcdd594819195d1958dd195960621b602082015290613383565b8361341e576040516133f5604082613f4f565b6016815275141c995cd85b19481a5cdcdd594819195d1958dd195960521b602082015290613383565b60405161342c604082613f4f565b601481527315985d5b1d081a5cdcdd594819195d1958dd195960621b602082015290613383565b5081613349565b5084613343565b506020823d60201161348d575b8161347b60209383613f4f565b810103126103b5576107d29151613334565b3d915061346e565b604051635c975abb60e01b8152919350602082600481845afa80156103a95760009061353b575b60049250159081156134d1575b5092906132fe565b60405163b3f05b9760e01b81529260209250839182905afa80156103a957600090613501575b60049150846134c9565b506020813d602011613533575b8161351b60209383613f4f565b810103126103b55761352e600491613fcf565b6134f7565b3d915061350e565b506020823d60201161356d575b8161355560209383613f4f565b810103126103b557613568600492613fcf565b6134bc565b3d9150613548565b61358f91945060403d604011610ea157610e918183613f4f565b5092846132f7565b90506020813d6020116135c1575b816135b260209383613f4f565b810103126103b55751816132c1565b3d91506135a5565b346103b55760003660031901126103b557600354604051639460e3cf60e01b81526001600160a01b0390911690602081600481855afa9081156103a9576000916137c9575b5060405163f5c6f5ab60e01b8152602081600481865afa9081156103a957600091613797575b5060405163588fe6b760e01b8152602081600481875afa9081156103a95760009161375d575b5060405163b81ee45960e01b815291602083600481885afa9283156103a95760009361371c575b5060206004956040519687809263601ebb3360e11b82525afa9485156103a9576000956136d4575b509161ffff60a095928194604051968752602087015216604085015215156060840152166080820152f35b945090916020853d602011613714575b816136f160209383613f4f565b810103126103b55761ffff809361370960a097613fc0565b9650929193506136a9565b3d91506136e4565b9492506020853d602011613755575b8161373860209383613f4f565b810103126103b557602061374d600496613fcf565b939550613681565b3d915061372b565b90506020813d60201161378f575b8161377860209383613f4f565b810103126103b55761378990613fc0565b8461365a565b3d915061376b565b90506020813d6020116137c1575b816137b260209383613f4f565b810103126103b5575183613634565b3d91506137a5565b90506020813d6020116137f3575b816137e460209383613f4f565b810103126103b557518261360e565b3d91506137d7565b346103b55760003660031901126103b5576004546040516001600160a01b039091168152602090f35b346103b55760603660031901126103b55761383d613de2565b613845613df8565b907f00000000000000000000000000000000000000000000000000000000000000006001600160a01b031633036103ba576001600160a01b0316908115801561399a575b612c3957600080916040516138c5816138b7602082019463a9059cbb60e01b865260443590602484016140a5565b03601f198101835282613f4f565b519082855af16138d3614066565b81613963575b50156139215760806000805160206140dd833981519152916040519060408252601060408301526f1d1bdad95b9cd7dc9958dbdd995c995960821b60608301526020820152a1005b60405162461bcd60e51b815260206004820152601a60248201527914d85999515490cc8c0e881d1c985b9cd9995c8819985a5b195960321b6044820152606490fd5b8051801592508215613978575b5050826138d9565b81925090602091810103126103b55760206139939101613fcf565b8280613970565b506001600160a01b03811615613889565b346103b55760003660031901126103b5576000546040516332941ecb60e01b815290602090829060049082906001600160a01b03165afa80156103a957600090611dd2576020906040519015158152f35b346103b55760003660031901126103b55760018060a01b03600454166040516352a67c5d60e01b8152602081600481855afa9081156103a957600091613b7d575b50604051632519fdb960e11b815291602083600481845afa9283156103a957600093613b41575b50604051634ccf04cf60e01b815290602082600481845afa9182156103a957600092613b02575b509060206004926040519384809263e710c92b60e01b82525afa9081156103a957600091613ac5575b6107d2925060405194859485613e3a565b90506020823d602011613afa575b81613ae060209383613f4f565b810103126103b557613af46107d292613fc0565b90613ab4565b3d9150613ad3565b91506020823d602011613b39575b81613b1d60209383613f4f565b810103126103b5576020613b32600493613fc0565b9250613a8b565b3d9150613b10565b9092506020813d602011613b75575b81613b5d60209383613f4f565b810103126103b557613b6e90613fc0565b9183613a64565b3d9150613b50565b90506020813d602011613baf575b81613b9860209383613f4f565b810103126103b557613ba990613fc0565b82613a3d565b3d9150613b8b565b346103b55760203660031901126103b557613bd0613de2565b600054604051639d82190f60e01b81526001600160a01b0392831660048201529160209183916024918391165afa80156103a957600090610b1957602090604051908152f35b346103b55760203660031901126103b557613c2f613de2565b600254604051630709df4560e01b81526001600160a01b0392831660048201529160209183916024918391165afa80156103a957604091600091613c89575b5081516001600160a01b039190911680151582526020820152f35b613ca2915060203d602011611877576118698183613f4f565b82613c6e565b346103b557613cb636613d83565b7f00000000000000000000000000000000000000000000000000000000000000006001600160a01b031633036103ba5760005b828110613cf257005b6000546001600160a01b031690613d0d6112b4828688613f15565b91803b156103b55783600091613d3a9483604051809781958294630a9d868f60e11b845260048401613f86565b03925af19182156103a957600192613d54575b5001613ce9565b6000613d5f91613f4f565b85613d4d565b6004359081151582036103b557565b6024359081151582036103b557565b9060406003198301126103b5576004356001600160401b0381116103b557826023820112156103b5578060040135926001600160401b0384116103b55760248460051b830101116103b557602401919060243580151581036103b55790565b600435906001600160a01b03821682036103b557565b602435906001600160a01b03821682036103b557565b604435906001600160a01b03821682036103b557565b606435906001600160a01b03821682036103b557565b61ffff9182168152918116602083015291821660408201529116606082015260800190565b919082519283825260005b848110613e8b575050826000602080949584010152601f8019910116010190565b80602080928401015182828601015201613e6a565b6044359061ffff821682036103b557565b6064359061ffff821682036103b557565b6004359061ffff821682036103b557565b6024359061ffff821682036103b557565b9094939260609260808301968352602083015260408201520152565b61ffff91821681529116602082015260400190565b9190811015613f255760051b0190565b634e487b7160e01b600052603260045260246000fd5b356001600160a01b03811681036103b55790565b90601f801991011681019081106001600160401b03821117613f7057604052565b634e487b7160e01b600052604160045260246000fd5b6001600160a01b039091168152901515602082015260400190565b908160209103126103b557516001600160a01b03811681036103b55790565b519061ffff821682036103b557565b519081151582036103b557565b91908260409103126103b5576020613ff383613fcf565b92015190565b9361ffff608094819398979460a0880199885260208801521660408601521660608401521515910152565b6001600160a01b0391821681529116602082015260400190565b90614056602091949394604084526040840190613e5f565b6001600160a01b03909416910152565b3d156140a0573d906001600160401b038211613f705760405191614094601f8201601f191660200184613f4f565b82523d6000602084013e565b606090565b6001600160a01b039091168152602081019190915260400190565b91604091949361ffff916060850196855260208501521691015256fe2a09e26ec96218a3a144df2e04de096b7f0410106a4caff3cdfa5d667e604f2aa2646970667358221220cb312bc39a6e171a3c400db6687d7b43917dc97a0df5d35ad35a4719b0dd78be64736f6c634300081e0033",
  "linkReferences": {},
  "deployedLinkReferences": {}
}