{"abi":[{"type":"constructor","inputs":[{"name":"_seer","type":"address","internalType":"address"},{"name":"_sanctumSink","type":"address","internalType":"address"},{"name":"_burnSink","type":"address","internalType":"address"},{"name":"_ecosystemSink","type":"address","internalType":"address"}],"stateMutability":"nonpayable"},{"type":"function","name":"DEFAULT_BURN_BPS","inputs":[],"outputs":[{"name":"","type":"uint16","internalType":"uint16"}],"stateMutability":"view"},{"type":"function","name":"DEFAULT_ECOSYSTEM_BPS","inputs":[],"outputs":[{"name":"","type":"uint16","internalType":"uint16"}],"stateMutability":"view"},{"type":"function","name":"DEFAULT_SANCTUM_BPS","inputs":[],"outputs":[{"name":"","type":"uint16","internalType":"uint16"}],"stateMutability":"view"},{"type":"function","name":"HIGH_SCORE_THRESHOLD","inputs":[],"outputs":[{"name":"","type":"uint16","internalType":"uint16"}],"stateMutability":"view"},{"type":"function","name":"LOW_SCORE_THRESHOLD","inputs":[],"outputs":[{"name":"","type":"uint16","internalType":"uint16"}],"stateMutability":"view"},{"type":"function","name":"MAX_SCORE_SNAPSHOTS","inputs":[],"outputs":[{"name":"","type":"uint256","internalType":"uint256"}],"stateMutability":"view"},{"type":"function","name":"SCORE_WINDOW","inputs":[],"outputs":[{"name":"","type":"uint64","internalType":"uint64"}],"stateMutability":"view"},{"type":"function","name":"acceptOwnership","inputs":[],"outputs":[],"stateMutability":"nonpayable"},{"type":"function","name":"adaptiveFeesEnabled","inputs":[],"outputs":[{"name":"","type":"bool","internalType":"bool"}],"stateMutability":"view"},{"type":"function","name":"baseBurnBps","inputs":[],"outputs":[{"name":"","type":"uint16","internalType":"uint16"}],"stateMutability":"view"},{"type":"function","name":"baseEcosystemBps","inputs":[],"outputs":[{"name":"","type":"uint16","internalType":"uint16"}],"stateMutability":"view"},{"type":"function","name":"baseSanctumBps","inputs":[],"outputs":[{"name":"","type":"uint16","internalType":"uint16"}],"stateMutability":"view"},{"type":"function","name":"burnSink","inputs":[],"outputs":[{"name":"","type":"address","internalType":"address"}],"stateMutability":"view"},{"type":"function","name":"burnsPaused","inputs":[],"outputs":[{"name":"","type":"bool","internalType":"bool"}],"stateMutability":"view"},{"type":"function","name":"cancelOwnershipTransfer","inputs":[],"outputs":[],"stateMutability":"nonpayable"},{"type":"function","name":"computeFees","inputs":[{"name":"from","type":"address","internalType":"address"},{"name":"to","type":"address","internalType":"address"},{"name":"amount","type":"uint256","internalType":"uint256"}],"outputs":[{"name":"burnAmount","type":"uint256","internalType":"uint256"},{"name":"sanctumAmount","type":"uint256","internalType":"uint256"},{"name":"ecosystemAmount","type":"uint256","internalType":"uint256"},{"name":"sanctumSink_","type":"address","internalType":"address"},{"name":"ecosystemSink_","type":"address","internalType":"address"},{"name":"burnSink_","type":"address","internalType":"address"}],"stateMutability":"view"},{"type":"function","name":"currentDayStart","inputs":[],"outputs":[{"name":"","type":"uint256","internalType":"uint256"}],"stateMutability":"view"},{"type":"function","name":"dailyBurnCap","inputs":[],"outputs":[{"name":"","type":"uint256","internalType":"uint256"}],"stateMutability":"view"},{"type":"function","name":"dailyBurnedAmount","inputs":[],"outputs":[{"name":"","type":"uint256","internalType":"uint256"}],"stateMutability":"view"},{"type":"function","name":"dailyVolumeTracked","inputs":[],"outputs":[{"name":"","type":"uint256","internalType":"uint256"}],"stateMutability":"view"},{"type":"function","name":"ecosystemMinBps","inputs":[],"outputs":[{"name":"","type":"uint16","internalType":"uint16"}],"stateMutability":"view"},{"type":"function","name":"ecosystemSink","inputs":[],"outputs":[{"name":"","type":"address","internalType":"address"}],"stateMutability":"view"},{"type":"function","name":"getEffectiveBurnRate","inputs":[{"name":"user","type":"address","internalType":"address"}],"outputs":[{"name":"burnBps","type":"uint16","internalType":"uint16"},{"name":"sanctumBps","type":"uint16","internalType":"uint16"},{"name":"ecosystemBps","type":"uint16","internalType":"uint16"}],"stateMutability":"view"},{"type":"function","name":"getFeeForScore","inputs":[{"name":"score","type":"uint16","internalType":"uint16"}],"outputs":[{"name":"totalBps","type":"uint256","internalType":"uint256"},{"name":"feePercent","type":"uint256","internalType":"uint256"}],"stateMutability":"view"},{"type":"function","name":"getSplitRatio","inputs":[],"outputs":[{"name":"burnPercent","type":"uint256","internalType":"uint256"},{"name":"sanctumPercent","type":"uint256","internalType":"uint256"},{"name":"ecosystemPercent","type":"uint256","internalType":"uint256"}],"stateMutability":"view"},{"type":"function","name":"getSustainabilityStatus","inputs":[],"outputs":[{"name":"dailyBurned","type":"uint256","internalType":"uint256"},{"name":"burnCapacity","type":"uint256","internalType":"uint256"},{"name":"dailyVolume","type":"uint256","internalType":"uint256"},{"name":"volumeMultiplier","type":"uint16","internalType":"uint16"},{"name":"burnsPausedFlag","type":"bool","internalType":"bool"},{"name":"supplyFloor","type":"uint256","internalType":"uint256"},{"name":"currentSupply","type":"uint256","internalType":"uint256"}],"stateMutability":"view"},{"type":"function","name":"getTimeWeightedScore","inputs":[{"name":"user","type":"address","internalType":"address"}],"outputs":[{"name":"","type":"uint16","internalType":"uint16"}],"stateMutability":"view"},{"type":"function","name":"getVolumeMultiplier","inputs":[],"outputs":[{"name":"","type":"uint16","internalType":"uint16"}],"stateMutability":"view"},{"type":"function","name":"highVolumeFeeMultiplier","inputs":[],"outputs":[{"name":"","type":"uint16","internalType":"uint16"}],"stateMutability":"view"},{"type":"function","name":"highVolumeThreshold","inputs":[],"outputs":[{"name":"","type":"uint256","internalType":"uint256"}],"stateMutability":"view"},{"type":"function","name":"lastScoreUpdate","inputs":[{"name":"","type":"address","internalType":"address"}],"outputs":[{"name":"","type":"uint64","internalType":"uint64"}],"stateMutability":"view"},{"type":"function","name":"lowVolumeFeeMultiplier","inputs":[],"outputs":[{"name":"","type":"uint16","internalType":"uint16"}],"stateMutability":"view"},{"type":"function","name":"lowVolumeThreshold","inputs":[],"outputs":[{"name":"","type":"uint256","internalType":"uint256"}],"stateMutability":"view"},{"type":"function","name":"maxTotalBps","inputs":[],"outputs":[{"name":"","type":"uint16","internalType":"uint16"}],"stateMutability":"view"},{"type":"function","name":"minTotalBps","inputs":[],"outputs":[{"name":"","type":"uint16","internalType":"uint16"}],"stateMutability":"view"},{"type":"function","name":"minimumSupplyFloor","inputs":[],"outputs":[{"name":"","type":"uint256","internalType":"uint256"}],"stateMutability":"view"},{"type":"function","name":"owner","inputs":[],"outputs":[{"name":"","type":"address","internalType":"address"}],"stateMutability":"view"},{"type":"function","name":"pendingOwner","inputs":[],"outputs":[{"name":"","type":"address","internalType":"address"}],"stateMutability":"view"},{"type":"function","name":"previewFees","inputs":[{"name":"user","type":"address","internalType":"address"},{"name":"amount","type":"uint256","internalType":"uint256"}],"outputs":[{"name":"burnAmount","type":"uint256","internalType":"uint256"},{"name":"sanctumAmount","type":"uint256","internalType":"uint256"},{"name":"ecosystemAmount","type":"uint256","internalType":"uint256"},{"name":"netAmount","type":"uint256","internalType":"uint256"},{"name":"score","type":"uint16","internalType":"uint16"}],"stateMutability":"view"},{"type":"function","name":"recordBurn","inputs":[{"name":"burnAmount","type":"uint256","internalType":"uint256"}],"outputs":[],"stateMutability":"nonpayable"},{"type":"function","name":"recordVolume","inputs":[{"name":"amount","type":"uint256","internalType":"uint256"}],"outputs":[],"stateMutability":"nonpayable"},{"type":"function","name":"remainingDailyBurnCapacity","inputs":[],"outputs":[{"name":"","type":"uint256","internalType":"uint256"}],"stateMutability":"view"},{"type":"function","name":"sanctumSink","inputs":[],"outputs":[{"name":"","type":"address","internalType":"address"}],"stateMutability":"view"},{"type":"function","name":"scoreHistory","inputs":[{"name":"","type":"address","internalType":"address"},{"name":"","type":"uint256","internalType":"uint256"}],"outputs":[{"name":"score","type":"uint16","internalType":"uint16"},{"name":"timestamp","type":"uint64","internalType":"uint64"}],"stateMutability":"view"},{"type":"function","name":"seer","inputs":[],"outputs":[{"name":"","type":"address","internalType":"contract ISeer"}],"stateMutability":"view"},{"type":"function","name":"setAdaptiveFees","inputs":[{"name":"_lowVolumeThreshold","type":"uint256","internalType":"uint256"},{"name":"_highVolumeThreshold","type":"uint256","internalType":"uint256"},{"name":"_lowVolMultiplier","type":"uint16","internalType":"uint16"},{"name":"_highVolMultiplier","type":"uint16","internalType":"uint16"},{"name":"_enabled","type":"bool","internalType":"bool"}],"outputs":[],"stateMutability":"nonpayable"},{"type":"function","name":"setFeePolicy","inputs":[{"name":"_minTotalBps","type":"uint16","internalType":"uint16"},{"name":"_maxTotalBps","type":"uint16","internalType":"uint16"}],"outputs":[],"stateMutability":"nonpayable"},{"type":"function","name":"setModules","inputs":[{"name":"_seer","type":"address","internalType":"address"},{"name":"_sanctumSink","type":"address","internalType":"address"},{"name":"_burnSink","type":"address","internalType":"address"},{"name":"_ecosystemSink","type":"address","internalType":"address"}],"outputs":[],"stateMutability":"nonpayable"},{"type":"function","name":"setSustainability","inputs":[{"name":"_dailyBurnCap","type":"uint256","internalType":"uint256"},{"name":"_minimumSupplyFloor","type":"uint256","internalType":"uint256"},{"name":"_ecosystemMinBps","type":"uint16","internalType":"uint16"}],"outputs":[],"stateMutability":"nonpayable"},{"type":"function","name":"setToken","inputs":[{"name":"_token","type":"address","internalType":"address"}],"outputs":[],"stateMutability":"nonpayable"},{"type":"function","name":"token","inputs":[],"outputs":[{"name":"","type":"address","internalType":"address"}],"stateMutability":"view"},{"type":"function","name":"transferOwnership","inputs":[{"name":"newOwner","type":"address","internalType":"address"}],"outputs":[],"stateMutability":"nonpayable"},{"type":"function","name":"updateScore","inputs":[{"name":"user","type":"address","internalType":"address"}],"outputs":[],"stateMutability":"nonpayable"},{"type":"event","name":"BurnCapReached","inputs":[{"name":"dailyBurned","type":"uint256","indexed":false,"internalType":"uint256"},{"name":"dailyCap","type":"uint256","indexed":false,"internalType":"uint256"},{"name":"redirectedToEcosystem","type":"uint256","indexed":false,"internalType":"uint256"}],"anonymous":false},{"type":"event","name":"FeesComputed","inputs":[{"name":"from","type":"address","indexed":true,"internalType":"address"},{"name":"to","type":"address","indexed":true,"internalType":"address"},{"name":"burnAmount","type":"uint256","indexed":false,"internalType":"uint256"},{"name":"sanctumAmount","type":"uint256","indexed":false,"internalType":"uint256"},{"name":"ecosystemAmount","type":"uint256","indexed":false,"internalType":"uint256"},{"name":"score","type":"uint16","indexed":false,"internalType":"uint16"}],"anonymous":false},{"type":"event","name":"ModulesSet","inputs":[{"name":"seer","type":"address","indexed":false,"internalType":"address"},{"name":"sanctumSink","type":"address","indexed":false,"internalType":"address"},{"name":"burnSink","type":"address","indexed":false,"internalType":"address"},{"name":"ecosystemSink","type":"address","indexed":false,"internalType":"address"}],"anonymous":false},{"type":"event","name":"OwnershipTransferStarted","inputs":[{"name":"previousOwner","type":"address","indexed":true,"internalType":"address"},{"name":"newOwner","type":"address","indexed":true,"internalType":"address"}],"anonymous":false},{"type":"event","name":"OwnershipTransferred","inputs":[{"name":"previousOwner","type":"address","indexed":true,"internalType":"address"},{"name":"newOwner","type":"address","indexed":true,"internalType":"address"}],"anonymous":false},{"type":"event","name":"PolicySet","inputs":[{"name":"baseBurnBps","type":"uint16","indexed":false,"internalType":"uint16"},{"name":"baseSanctumBps","type":"uint16","indexed":false,"internalType":"uint16"},{"name":"baseEcosystemBps","type":"uint16","indexed":false,"internalType":"uint16"},{"name":"highTrustReduction","type":"uint16","indexed":false,"internalType":"uint16"},{"name":"lowTrustPenalty","type":"uint16","indexed":false,"internalType":"uint16"}],"anonymous":false},{"type":"event","name":"SustainabilitySet","inputs":[{"name":"dailyBurnCap","type":"uint256","indexed":false,"internalType":"uint256"},{"name":"minimumSupplyFloor","type":"uint256","indexed":false,"internalType":"uint256"},{"name":"ecosystemMinBps","type":"uint16","indexed":false,"internalType":"uint16"}],"anonymous":false},{"type":"error","name":"BURN_Zero","inputs":[]}],"bytecode":{"object":"0x60803461023c57601f61225538819003918201601f19168301916001600160401b038311848410176102405780849260809460405283398101031261023c5761004781610254565b61005360208301610254565b9161006c606061006560408401610254565b9201610254565b5f80546001600160a01b03191633908117825560405195929392917f8be0079c531659141344cd1fd0a4f28419497f9722a3daafe3b4186f6b6457e08180a3600580546969e10de76676d08000006006556a295be96e640669720000006007556008805461ffff191690921790915569152d02c7e14af6800000600c556a0422ca8b0a00a425000000600d55600e8054631f402ee064ffffffffff199091161790556001600160a01b039490941694600160a01b600160e01b03199094167a1900140005009600000000000000000000000000000000000000001793851561020e57600280546001600160a01b03199081168817909155600380546001600160a01b03858116918416821790925560048054878416941684179055607d60e21b9187167fffff0000ffffffffffffffff0000000000000000000000000000000000000000891681179290921760055542600955604080518a8152602081019290925281019290925260608201527f2ad69807131f242e4c6b9e21338b8d7d7d5f32ab1dfaa1eddfa881c305c8f5e790608090a1604051611fec90816102698239f35b62461bcd60e51b81526020600482015260096024820152683d32b9379039b2b2b960b91b6044820152606490fd5b5f80fd5b634e487b7160e01b5f52604160045260245ffd5b51906001600160a01b038216820361023c5756fe60806040526004361015610011575f80fd5b5f3560e01c806312761498146114a2578063144fa6d71461142a5780631803fb711461140d57806318c3d4ac146113e95780631d6e4bd5146113c157806323452b9c14611397578063252f15f5146113315780632d55ea391461130957806332072bc2146112e557806334638696146111b25780633cd08e6b1461119757806341becbce1461116f57806343ad62db146111545780634eadcca814611127578063556cfc1f14611041578063588fe6b7146110205780635a4d30cd146110035780635d8c489e14610fdf5780635e83c26d14610fbb5780635f31bce514610f97578063691845e414610f2f5780636f24d50414610ec457806376f1244b14610ea857806379ba509714610e015780637c4abf2414610ddd5780637f0f22fd14610dbc578063817fff1514610d9f5780638da5cb5b14610d785780638dacb64214610d5b5780639460e3cf14610d3e57806396c67bfc14610d1a578063a69dc93c14610caf578063ad0d14db14610c7f578063af53429514610c5d578063b079fbff14610b66578063b81ee45914610b42578063b8c4651a14610b1f578063beeeb4ce14610af7578063c03d766614610ad1578063c08477c8146109f7578063c73cb83c1461087a578063ca8b052f14610839578063d3c48fee1461081c578063d90da3f214610763578063de0dbaaa14610748578063e18c0ddb1461072b578063e2e6b7cd14610710578063e30c3978146106e8578063e3e7903f1461036b578063f2fde38b146102c5578063f5c6f5ab146102a8578063fba9203d1461028c5763fc0c546a14610260575f80fd5b34610288575f36600319011261028857600b546040516001600160a01b039091168152602090f35b5f80fd5b34610288575f366003190112610288576020604051611f408152f35b34610288575f366003190112610288576020600754604051908152f35b34610288576020366003190112610288576102de6115fd565b6102e6611e90565b6001600160a01b0316801561033a57600180546001600160a01b031916821790555f80546001600160a01b0316907f38d16b8cac22d99fc7c124b9cd0de2d3fa1faef420bfe791d8c362d765e227009080a3005b60405162461bcd60e51b81526020600482015260096024820152684f574e3a207a65726f60b81b6044820152606490fd5b34610288576020366003190112610288576103846115fd565b6002546001600160a01b03169033821480156106d5575b1561069f57604051630d47875d60e41b81526001600160a01b039091166004820181905291602090829060249082905afa908115610694575f91610665575b506001600160401b03421690825f52601060205260405f20906040519060408201908282106001600160401b038311176106515761ffff9160405216815260208101918383528054600160401b8110156106515761043d91600182018155611629565b91909161063e5761046a9261ffff806001600160401b039351161661ffff19845416178355511690611dfd565b815f52601160205260405f20816001600160401b0319825416179055815f52601060205260405f205490606482116105b1575b600182116104a8575b005b62093a808111156105a2576104c46001600160401b0391611acb565b16905f915f5b828110610565575b50508115158061055c575b6104e357005b815b8181106105155750505f5b818110156104a657600190835f52601060205261050f60405f20611e5c565b016104f0565b600190845f5260106020526105566105308260405f20611629565b50865f52601060205261055060405f2061054a8886611683565b90611629565b90611e21565b016104e5565b508082106104dd565b845f526010602052816001600160401b036105838360405f20611629565b505460101c161015610597576001016104ca565b9250849050806104d2565b506001600160401b035f6104c4565b9060015b8181106105e5575050815f5260106020526105d260405f20611e5c565b815f52601060205260405f20549061049d565b835f5260106020526105fa8160405f20611629565b5090845f52601060205260405f20915f1982019082821161062a5761055061062492600195611629565b016105b5565b634e487b7160e01b5f52601160045260245ffd5b634e487b7160e01b5f525f60045260245ffd5b634e487b7160e01b5f52604160045260245ffd5b610687915060203d60201161068d575b61067f8183611993565b810190611ab1565b826103da565b503d610675565b6040513d5f823e3d90fd5b60405162461bcd60e51b815260206004820152600e60248201526d139bdd08185d5d1a1bdc9a5e995960921b6044820152606490fd5b505f546001600160a01b0316331461039b565b34610288575f366003190112610288576001546040516001600160a01b039091168152602090f35b34610288575f36600319011261028857602060405160148152f35b34610288575f366003190112610288576020600f54604051908152f35b34610288575f36600319011261028857602060405160058152f35b346102885760603660031901126102885760043560243561ffff6107856115db565b61078d611e90565b1691606483116107e4577f688d8a1c9dac6b96264fe22528f3c052dde3fa0ff21e6283f8fb3e15c3a5e1fe9260609282600655806007558161ffff19600854161760085560405192835260208301526040820152a1005b60405162461bcd60e51b815260206004820152601060248201526f0cac6de40dad2dc40e8dede40d0d2ced60831b6044820152606490fd5b34610288575f366003190112610288576020600d54604051908152f35b34610288576020366003190112610288576001600160a01b0361085a6115fd565b165f52601160205260206001600160401b0360405f205416604051908152f35b346102885760403660031901126102885760246108956115fd565b600254604051630d47875d60e41b81526001600160a01b0392831660048201819052909380359391926020928692918391165afa928315610694575f936109d6575b506040519063252f15f560e01b825260048201525f602482015281604482015260c081606481305afa8015610694575f925f925f9261094f575b50918161093160a0969361092c8461092c8961ffff99611683565b611683565b91604051958652602086015260408501526060840152166080820152f35b935091505060c0823d60c0116109ce575b8161096d60c09383611993565b810103126102885760a09261092c61ffff9261093185519161092c6020880151936109b88a60408b01519a6109a460608201611de9565b506109b160808201611de9565b5001611de9565b50978894958691979a5050505092945050610911565b3d9150610960565b6109f091935060203d60201161068d5761067f8183611993565b91836108d7565b3461028857602036600319011261028857610a106115fd565b600254604051630d47875d60e41b81526001600160a01b0392831660048201529160209183916024918391165afa801561069457610a55915f91610ab2575b50611ed9565b6028810281159082810460281482171561062a57606461ffff91041690600a830290838204600a14171561062a5761ffff610a9e60609461092c83606487960416948592611683565b169060405192835260208301526040820152f35b610acb915060203d60201161068d5761067f8183611993565b82610a4f565b34610288575f366003190112610288576020610aeb611d43565b61ffff60405191168152f35b34610288575f366003190112610288576003546040516001600160a01b039091168152602090f35b34610288576020366003190112610288576020610aeb610b3d6115fd565b611aec565b34610288575f36600319011261028857602060ff600e54821c166040519015158152f35b3461028857608036600319011261028857610b7f6115fd565b610b87611613565b6044356001600160a01b0381169290839003610288576064356001600160a01b038116919082900361028857610bbb611e90565b6001600160a01b0316908115610c4e57600280546001600160a01b031990811684179091556003805482166001600160a01b0390951694851790556004805482168617905560058054909116821790556040805192835260208301939093529181019290925260608201527f2ad69807131f242e4c6b9e21338b8d7d7d5f32ab1dfaa1eddfa881c305c8f5e790608090a1005b6305e5a74b60e21b5f5260045ffd5b34610288575f366003190112610288576020610c77611a76565b604051908152f35b34610288576020366003190112610288576040610ca2610c9d6115ec565b611ed9565b8151908082526020820152f35b3461028857602036600319011261028857600435610cd860018060a01b03600b541633146119b4565b60095462015180810180911161062a574210610d0957610cfd62015180420642611683565b600955600f555f600a55005b610d1590600f54611690565b600f55005b34610288575f366003190112610288576020610d346119ed565b6040519015158152f35b34610288575f366003190112610288576020600654604051908152f35b34610288575f36600319011261028857602060405162093a808152f35b34610288575f366003190112610288575f546040516001600160a01b039091168152602090f35b34610288575f366003190112610288576020600c54604051908152f35b34610288575f36600319011261028857602061ffff600e5416604051908152f35b34610288575f36600319011261028857602061ffff600e5460101c16604051908152f35b34610288575f366003190112610288576001546001600160a01b0381163303610e6a575f543360018060a01b0382167f8be0079c531659141344cd1fd0a4f28419497f9722a3daafe3b4186f6b6457e05f80a36001600160a01b031990811633175f5516600155005b60405162461bcd60e51b815260206004820152601660248201527527aba71d103737ba103832b73234b7339037bbb732b960511b6044820152606490fd5b34610288575f366003190112610288576020604051610fa08152f35b3461028857602036600319011261028857600435610eed60018060a01b03600b541633146119b4565b60095462015180810180911161062a574210610f1e57610f1262015180420642611683565b600955600a555f600f55005b610f2a90600a54611690565b600a55005b3461028857604036600319011261028857610f486115fd565b6001600160a01b03165f9081526010602052604090208054602435919082101561028857604091610f7891611629565b50546001600160401b0382519161ffff8116835260101c166020820152f35b34610288575f36600319011261028857602061ffff60055460e01c16604051908152f35b34610288575f36600319011261028857602061ffff60055460d01c16604051908152f35b34610288575f36600319011261028857602061ffff60055460b01c16604051908152f35b34610288575f366003190112610288576020600954604051908152f35b34610288575f36600319011261028857602061ffff60085416604051908152f35b34610288575f36600319011261028857600a5461105c611a76565b90600f5491611069611d43565b6110716119ed565b600754600b549092906001600160a01b03168015611118576020600491604051928380926318160ddd60e01b82525afa908115610694575f916110e3575b509060e09661ffff92955b604051978852602088015260408701521660608501521515608084015260a083015260c0820152f35b9190506020823d602011611110575b816110ff60209383611993565b8101031261028857905160e06110af565b3d91506110f2565b5061ffff9060e0965f956110ba565b34610288575f3660031901126102885760606111416118f0565b9060405192835260208301526040820152f35b34610288575f36600319011261028857602060405160968152f35b34610288575f366003190112610288576004546040516001600160a01b039091168152602090f35b34610288575f36600319011261028857602060405160648152f35b34610288576040366003190112610288576111cb6115ec565b60243561ffff8116808203610288576111e2611e90565b8061ffff8416116112b4576103e810611277577f2b5a96a2cb88422a36d75f1e5ba2508e6d0f30627b3dbc2a2e19613ed652a8539160a0916005549061ffff60e01b9060e01b169161ffff60d01b9060d01b169063ffffffff60d01b191617178060055561ffff604051918181851c168352818160b01c16602084015260c01c1660408201525f60608201525f6080820152a1005b60405162461bcd60e51b81526020600482015260156024820152746d61782063616e6e6f74206578636565642031302560581b6044820152606490fd5b60405162461bcd60e51b81526020600482015260096024820152680dad2dc407c40dac2f60bb1b6044820152606490fd5b34610288575f36600319011261028857602061ffff60055460c01c16604051908152f35b34610288575f366003190112610288576002546040516001600160a01b039091168152602090f35b346102885760603660031901126102885760c061136161134f6115fd565b611357611613565b506044359061169d565b604080519687526020870195909552938501929092526001600160a01b03908116606085015290811660808401521660a0820152f35b34610288575f366003190112610288576113af611e90565b600180546001600160a01b0319169055005b34610288575f366003190112610288576005546040516001600160a01b039091168152602090f35b34610288575f36600319011261028857602061ffff60055460a01c16604051908152f35b34610288575f366003190112610288576020600a54604051908152f35b34610288576020366003190112610288576114436115fd565b61144b611e90565b6001600160a01b0316801561147057600b80546001600160a01b031916919091179055005b60405162461bcd60e51b815260206004820152600a6024820152693d32b937903a37b5b2b760b11b6044820152606490fd5b346102885760a0366003190112610288576004356024356114c16115db565b916064359161ffff8316908184036102885760843594851515809603610288576114e9611e90565b8184116115a95761ffff1691614e20831161157257611388116115385763ffff000092600c55600d55600e549360ff60201b9060201b169364ffffffffff1916179160101b161717600e555f80f35b60405162461bcd60e51b81526020600482015260126024820152710d0d2ced040daead8e840dad2dc40605c6af60731b6044820152606490fd5b60405162461bcd60e51b815260206004820152600f60248201526e0d8deee40daead8e840dac2f04064f608b1b6044820152606490fd5b60405162461bcd60e51b815260206004820152600a6024820152690d8deee407c40d0d2ced60b31b6044820152606490fd5b6044359061ffff8216820361028857565b6004359061ffff8216820361028857565b600435906001600160a01b038216820361028857565b602435906001600160a01b038216820361028857565b805482101561163e575f5260205f2001905f90565b634e487b7160e01b5f52603260045260245ffd5b8181029291811591840414171561062a57565b811561166f570490565b634e487b7160e01b5f52601260045260245ffd5b9190820391821161062a57565b9190820180921161062a57565b81156118b457610c9d6116af91611aec565b90602882029282159383810460281485171561062a576064900493600a840290848204600a14171561062a57849361092c60646116ef9304968792611683565b9261ffff60085416808510611869575b5061172561271061171d81611715819588611652565b049786611652565b049484611652565b049161172f6119ed565b80611860575b61184d575b60065480151580611844575b6117c1575b5061175f8361175a8688611690565b611690565b11611781576003546005546004546001600160a01b0392831693918316921690565b60405162461bcd60e51b8152602060048201526018602482015277109554938e881999595cc8195e18d9595908185b5bdd5b9d60421b6044820152606490fd5b600a5460095462015180810180911161062a5742101561183d575b816117e78883611690565b116117f3575b5061174b565b5f969194929694808210611821575b5050906118128461181893611683565b90611690565b91935f806117ed565b611818939295506118129161183591611683565b949192611802565b505f6117dc565b50851515611746565b936118589192611690565b905f9361173a565b50841515611735565b936118749085611683565b80821061189e5761271061171d81611715611893611725958397611683565b9550505050506116ff565b50506127106117258161171d816117155f611893565b50506003546005546004545f93849384936001600160a01b039182169390821692911690565b9061ffff8091169116019061ffff821161062a57565b6005549061ffff8260a01c169061ffff8360b01c169261ffff6119238161191787876118da565b9360c01c1680936118da565b169283156119865760648102908082046064149015171561062a578361194891611665565b9360648102908082046064149015171561062a578361196691611665565b9260648202918083046064149015171561062a5761198391611665565b90565b50509150505f905f905f90565b90601f801991011681019081106001600160401b0382111761065157604052565b156119bb57565b60405162461bcd60e51b815260206004820152600a60248201526937b7363c903a37b5b2b760b11b6044820152606490fd5b600b546001600160a01b031680158015611a6c575b611a67576020600491604051928380926318160ddd60e01b82525afa908115610694575f91611a35575b50600754101590565b90506020813d602011611a5f575b81611a5060209383611993565b8101031261028857515f611a2c565b3d9150611a43565b505f90565b5060075415611a02565b60095462015180810180911161062a57421015611aab57600a546006549081811015611aa55761198391611683565b50505f90565b60065490565b90816020910312610288575161ffff811681036102885790565b6001600160401b0362093a7f19911601906001600160401b03821161062a57565b6001600160a01b03165f818152601060205260409020548015611cee57426001600160401b03169162093a80831115611ce757611b2883611acb565b925b815f52601060205260405f205f1984019084821161062a576001600160401b03611b55838293611629565b505460101c169516809510611cc4575092915f935f935f925b808410611bec57505050508215611b91575061ffff91611b8d91611665565b1690565b600254604051630d47875d60e41b8152600481019290925290925060209150829060249082906001600160a01b03165afa908115610694575f91611bd3575090565b611983915060203d60201161068d5761067f8183611993565b90919294845f5260106020526001600160401b03611c0d8760405f20611629565b505460101c16838110611cba576001870180881161062a5783811015611cab576001600160401b03611c4b8192895f52601060205260405f20611629565b505460101c165b16036001600160401b03811161062a57600191611812611c7f6001600160401b03611ca09416809b611690565b99885f52601060205261ffff611c988b60405f20611629565b505416611652565b955b01929190611b6e565b506001600160401b0385611c52565b5094600190611ca2565b91905061ffff9350611ce192505f52601060205260405f20611629565b50541690565b5f92611b2a565b50600254604051630d47875d60e41b81526004810192909252602090829060249082906001600160a01b03165afa908115610694575f91611bd3575090565b9061ffff8091169116039061ffff821161062a57565b600e5460ff8160201c1615611de257600f54906009549162015180830180931161062a5761ffff92421015611ddb575b600c54808211611d835750501690565b600d54808310611d975750505060101c1690565b91611dd0611db683611db0611dd595611b8d9897611683565b93611683565b86611dc9818088169760101c1687611d2d565b1690611652565b611665565b90611683565b505f611d73565b5061271090565b51906001600160a01b038216820361028857565b9062010000600160501b0382549160101b169062010000600160501b031916179055565b9061063e57818103611e31575050565b6001600160401b038261ffff80611e5a9554161661ffff198454161783555460101c1690611dfd565b565b80548015611e7c575f190190611e728282611629565b61063e575f905555565b634e487b7160e01b5f52603160045260245ffd5b5f546001600160a01b03163303611ea357565b60405162461bcd60e51b815260206004820152600e60248201526d27aba71d103737ba1037bbb732b960911b6044820152606490fd5b61ffff16610fa0811115611fa857611f40811015611f9a57610fa06005549061ffff808360e01c169260d01c169261ffff611f148585611d2d565b1690610f9f19019061ffff821161062a5761ffff611f329216611652565b90801561166f57611f44910482611683565b9161ffff611f50611d43565b166127108103611f61575b50505090565b611f7090612710929394611652565b0491808311611f92575b50808210611f8a575b8080611f5b565b90505f611f83565b91505f611f7a565b5061ffff60055460d01c1690565b5061ffff60055460e01c169056fea2646970667358221220dbe4f9566e874f0a46a5194920ea50978eacccbd2409b83e0a8a800fe91f90d064736f6c634300081e0033","linkReferences":{}},"methodIdentifiers":{"DEFAULT_BURN_BPS()":"43ad62db","DEFAULT_ECOSYSTEM_BPS()":"e2e6b7cd","DEFAULT_SANCTUM_BPS()":"de0dbaaa","HIGH_SCORE_THRESHOLD()":"fba9203d","LOW_SCORE_THRESHOLD()":"76f1244b","MAX_SCORE_SNAPSHOTS()":"3cd08e6b","SCORE_WINDOW()":"8dacb642","acceptOwnership()":"79ba5097","adaptiveFeesEnabled()":"b81ee459","baseBurnBps()":"18c3d4ac","baseEcosystemBps()":"32072bc2","baseSanctumBps()":"5d8c489e","burnSink()":"41becbce","burnsPaused()":"96c67bfc","cancelOwnershipTransfer()":"23452b9c","computeFees(address,address,uint256)":"252f15f5","currentDayStart()":"5a4d30cd","dailyBurnCap()":"9460e3cf","dailyBurnedAmount()":"1803fb71","dailyVolumeTracked()":"e18c0ddb","ecosystemMinBps()":"588fe6b7","ecosystemSink()":"1d6e4bd5","getEffectiveBurnRate(address)":"c08477c8","getFeeForScore(uint16)":"ad0d14db","getSplitRatio()":"4eadcca8","getSustainabilityStatus()":"556cfc1f","getTimeWeightedScore(address)":"b8c4651a","getVolumeMultiplier()":"c03d7666","highVolumeFeeMultiplier()":"7c4abf24","highVolumeThreshold()":"d3c48fee","lastScoreUpdate(address)":"ca8b052f","lowVolumeFeeMultiplier()":"7f0f22fd","lowVolumeThreshold()":"817fff15","maxTotalBps()":"5f31bce5","minTotalBps()":"5e83c26d","minimumSupplyFloor()":"f5c6f5ab","owner()":"8da5cb5b","pendingOwner()":"e30c3978","previewFees(address,uint256)":"c73cb83c","recordBurn(uint256)":"6f24d504","recordVolume(uint256)":"a69dc93c","remainingDailyBurnCapacity()":"af534295","sanctumSink()":"beeeb4ce","scoreHistory(address,uint256)":"691845e4","seer()":"2d55ea39","setAdaptiveFees(uint256,uint256,uint16,uint16,bool)":"12761498","setFeePolicy(uint16,uint16)":"34638696","setModules(address,address,address,address)":"b079fbff","setSustainability(uint256,uint256,uint16)":"d90da3f2","setToken(address)":"144fa6d7","token()":"fc0c546a","transferOwnership(address)":"f2fde38b","updateScore(address)":"e3e7903f"},"id":21}