{"abi":[{"type":"constructor","inputs":[{"name":"_seer","type":"address","internalType":"address"},{"name":"_sanctumSink","type":"address","internalType":"address"},{"name":"_burnSink","type":"address","internalType":"address"},{"name":"_ecosystemSink","type":"address","internalType":"address"}],"stateMutability":"nonpayable"},{"type":"function","name":"DEFAULT_BURN_BPS","inputs":[],"outputs":[{"name":"","type":"uint16","internalType":"uint16"}],"stateMutability":"view"},{"type":"function","name":"DEFAULT_ECOSYSTEM_BPS","inputs":[],"outputs":[{"name":"","type":"uint16","internalType":"uint16"}],"stateMutability":"view"},{"type":"function","name":"DEFAULT_SANCTUM_BPS","inputs":[],"outputs":[{"name":"","type":"uint16","internalType":"uint16"}],"stateMutability":"view"},{"type":"function","name":"HIGH_SCORE_THRESHOLD","inputs":[],"outputs":[{"name":"","type":"uint16","internalType":"uint16"}],"stateMutability":"view"},{"type":"function","name":"LOW_SCORE_THRESHOLD","inputs":[],"outputs":[{"name":"","type":"uint16","internalType":"uint16"}],"stateMutability":"view"},{"type":"function","name":"MAX_SCORE_SNAPSHOTS","inputs":[],"outputs":[{"name":"","type":"uint256","internalType":"uint256"}],"stateMutability":"view"},{"type":"function","name":"SCORE_WINDOW","inputs":[],"outputs":[{"name":"","type":"uint64","internalType":"uint64"}],"stateMutability":"view"},{"type":"function","name":"acceptOwnership","inputs":[],"outputs":[],"stateMutability":"nonpayable"},{"type":"function","name":"adaptiveFeesEnabled","inputs":[],"outputs":[{"name":"","type":"bool","internalType":"bool"}],"stateMutability":"view"},{"type":"function","name":"baseBurnBps","inputs":[],"outputs":[{"name":"","type":"uint16","internalType":"uint16"}],"stateMutability":"view"},{"type":"function","name":"baseEcosystemBps","inputs":[],"outputs":[{"name":"","type":"uint16","internalType":"uint16"}],"stateMutability":"view"},{"type":"function","name":"baseSanctumBps","inputs":[],"outputs":[{"name":"","type":"uint16","internalType":"uint16"}],"stateMutability":"view"},{"type":"function","name":"burnSink","inputs":[],"outputs":[{"name":"","type":"address","internalType":"address"}],"stateMutability":"view"},{"type":"function","name":"burnsPaused","inputs":[],"outputs":[{"name":"","type":"bool","internalType":"bool"}],"stateMutability":"view"},{"type":"function","name":"cancelOwnershipTransfer","inputs":[],"outputs":[],"stateMutability":"nonpayable"},{"type":"function","name":"computeFees","inputs":[{"name":"from","type":"address","internalType":"address"},{"name":"to","type":"address","internalType":"address"},{"name":"amount","type":"uint256","internalType":"uint256"}],"outputs":[{"name":"burnAmount","type":"uint256","internalType":"uint256"},{"name":"sanctumAmount","type":"uint256","internalType":"uint256"},{"name":"ecosystemAmount","type":"uint256","internalType":"uint256"},{"name":"sanctumSink_","type":"address","internalType":"address"},{"name":"ecosystemSink_","type":"address","internalType":"address"},{"name":"burnSink_","type":"address","internalType":"address"}],"stateMutability":"view"},{"type":"function","name":"currentDayStart","inputs":[],"outputs":[{"name":"","type":"uint256","internalType":"uint256"}],"stateMutability":"view"},{"type":"function","name":"dailyBurnCap","inputs":[],"outputs":[{"name":"","type":"uint256","internalType":"uint256"}],"stateMutability":"view"},{"type":"function","name":"dailyBurnedAmount","inputs":[],"outputs":[{"name":"","type":"uint256","internalType":"uint256"}],"stateMutability":"view"},{"type":"function","name":"dailyVolumeTracked","inputs":[],"outputs":[{"name":"","type":"uint256","internalType":"uint256"}],"stateMutability":"view"},{"type":"function","name":"ecosystemMinBps","inputs":[],"outputs":[{"name":"","type":"uint16","internalType":"uint16"}],"stateMutability":"view"},{"type":"function","name":"ecosystemSink","inputs":[],"outputs":[{"name":"","type":"address","internalType":"address"}],"stateMutability":"view"},{"type":"function","name":"getEffectiveBurnRate","inputs":[{"name":"user","type":"address","internalType":"address"}],"outputs":[{"name":"burnBps","type":"uint16","internalType":"uint16"},{"name":"sanctumBps","type":"uint16","internalType":"uint16"},{"name":"ecosystemBps","type":"uint16","internalType":"uint16"}],"stateMutability":"view"},{"type":"function","name":"getFeeForScore","inputs":[{"name":"score","type":"uint16","internalType":"uint16"}],"outputs":[{"name":"totalBps","type":"uint256","internalType":"uint256"},{"name":"feePercent","type":"uint256","internalType":"uint256"}],"stateMutability":"view"},{"type":"function","name":"getSplitRatio","inputs":[],"outputs":[{"name":"burnPercent","type":"uint256","internalType":"uint256"},{"name":"sanctumPercent","type":"uint256","internalType":"uint256"},{"name":"ecosystemPercent","type":"uint256","internalType":"uint256"}],"stateMutability":"view"},{"type":"function","name":"getSustainabilityStatus","inputs":[],"outputs":[{"name":"dailyBurned","type":"uint256","internalType":"uint256"},{"name":"burnCapacity","type":"uint256","internalType":"uint256"},{"name":"dailyVolume","type":"uint256","internalType":"uint256"},{"name":"volumeMultiplier","type":"uint16","internalType":"uint16"},{"name":"burnsPausedFlag","type":"bool","internalType":"bool"},{"name":"supplyFloor","type":"uint256","internalType":"uint256"},{"name":"currentSupply","type":"uint256","internalType":"uint256"}],"stateMutability":"view"},{"type":"function","name":"getTimeWeightedScore","inputs":[{"name":"user","type":"address","internalType":"address"}],"outputs":[{"name":"","type":"uint16","internalType":"uint16"}],"stateMutability":"view"},{"type":"function","name":"getVolumeMultiplier","inputs":[],"outputs":[{"name":"","type":"uint16","internalType":"uint16"}],"stateMutability":"view"},{"type":"function","name":"highVolumeFeeMultiplier","inputs":[],"outputs":[{"name":"","type":"uint16","internalType":"uint16"}],"stateMutability":"view"},{"type":"function","name":"highVolumeThreshold","inputs":[],"outputs":[{"name":"","type":"uint256","internalType":"uint256"}],"stateMutability":"view"},{"type":"function","name":"lastScoreUpdate","inputs":[{"name":"","type":"address","internalType":"address"}],"outputs":[{"name":"","type":"uint64","internalType":"uint64"}],"stateMutability":"view"},{"type":"function","name":"lowVolumeFeeMultiplier","inputs":[],"outputs":[{"name":"","type":"uint16","internalType":"uint16"}],"stateMutability":"view"},{"type":"function","name":"lowVolumeThreshold","inputs":[],"outputs":[{"name":"","type":"uint256","internalType":"uint256"}],"stateMutability":"view"},{"type":"function","name":"maxTotalBps","inputs":[],"outputs":[{"name":"","type":"uint16","internalType":"uint16"}],"stateMutability":"view"},{"type":"function","name":"minTotalBps","inputs":[],"outputs":[{"name":"","type":"uint16","internalType":"uint16"}],"stateMutability":"view"},{"type":"function","name":"minimumSupplyFloor","inputs":[],"outputs":[{"name":"","type":"uint256","internalType":"uint256"}],"stateMutability":"view"},{"type":"function","name":"owner","inputs":[],"outputs":[{"name":"","type":"address","internalType":"address"}],"stateMutability":"view"},{"type":"function","name":"pendingOwner","inputs":[],"outputs":[{"name":"","type":"address","internalType":"address"}],"stateMutability":"view"},{"type":"function","name":"previewFees","inputs":[{"name":"user","type":"address","internalType":"address"},{"name":"amount","type":"uint256","internalType":"uint256"}],"outputs":[{"name":"burnAmount","type":"uint256","internalType":"uint256"},{"name":"sanctumAmount","type":"uint256","internalType":"uint256"},{"name":"ecosystemAmount","type":"uint256","internalType":"uint256"},{"name":"netAmount","type":"uint256","internalType":"uint256"},{"name":"score","type":"uint16","internalType":"uint16"}],"stateMutability":"view"},{"type":"function","name":"recordBurn","inputs":[{"name":"burnAmount","type":"uint256","internalType":"uint256"}],"outputs":[],"stateMutability":"nonpayable"},{"type":"function","name":"recordVolume","inputs":[{"name":"amount","type":"uint256","internalType":"uint256"}],"outputs":[],"stateMutability":"nonpayable"},{"type":"function","name":"remainingDailyBurnCapacity","inputs":[],"outputs":[{"name":"","type":"uint256","internalType":"uint256"}],"stateMutability":"view"},{"type":"function","name":"sanctumSink","inputs":[],"outputs":[{"name":"","type":"address","internalType":"address"}],"stateMutability":"view"},{"type":"function","name":"scoreHistory","inputs":[{"name":"","type":"address","internalType":"address"},{"name":"","type":"uint256","internalType":"uint256"}],"outputs":[{"name":"score","type":"uint16","internalType":"uint16"},{"name":"timestamp","type":"uint64","internalType":"uint64"}],"stateMutability":"view"},{"type":"function","name":"seer","inputs":[],"outputs":[{"name":"","type":"address","internalType":"contract ISeer"}],"stateMutability":"view"},{"type":"function","name":"setAdaptiveFees","inputs":[{"name":"_lowVolumeThreshold","type":"uint256","internalType":"uint256"},{"name":"_highVolumeThreshold","type":"uint256","internalType":"uint256"},{"name":"_lowVolMultiplier","type":"uint16","internalType":"uint16"},{"name":"_highVolMultiplier","type":"uint16","internalType":"uint16"},{"name":"_enabled","type":"bool","internalType":"bool"}],"outputs":[],"stateMutability":"nonpayable"},{"type":"function","name":"setFeePolicy","inputs":[{"name":"_minTotalBps","type":"uint16","internalType":"uint16"},{"name":"_maxTotalBps","type":"uint16","internalType":"uint16"}],"outputs":[],"stateMutability":"nonpayable"},{"type":"function","name":"setModules","inputs":[{"name":"_seer","type":"address","internalType":"address"},{"name":"_sanctumSink","type":"address","internalType":"address"},{"name":"_burnSink","type":"address","internalType":"address"},{"name":"_ecosystemSink","type":"address","internalType":"address"}],"outputs":[],"stateMutability":"nonpayable"},{"type":"function","name":"setSustainability","inputs":[{"name":"_dailyBurnCap","type":"uint256","internalType":"uint256"},{"name":"_minimumSupplyFloor","type":"uint256","internalType":"uint256"},{"name":"_ecosystemMinBps","type":"uint16","internalType":"uint16"}],"outputs":[],"stateMutability":"nonpayable"},{"type":"function","name":"setToken","inputs":[{"name":"_token","type":"address","internalType":"address"}],"outputs":[],"stateMutability":"nonpayable"},{"type":"function","name":"token","inputs":[],"outputs":[{"name":"","type":"address","internalType":"address"}],"stateMutability":"view"},{"type":"function","name":"transferOwnership","inputs":[{"name":"newOwner","type":"address","internalType":"address"}],"outputs":[],"stateMutability":"nonpayable"},{"type":"function","name":"updateScore","inputs":[{"name":"user","type":"address","internalType":"address"}],"outputs":[],"stateMutability":"nonpayable"},{"type":"event","name":"BurnCapReached","inputs":[{"name":"dailyBurned","type":"uint256","indexed":false,"internalType":"uint256"},{"name":"dailyCap","type":"uint256","indexed":false,"internalType":"uint256"},{"name":"redirectedToEcosystem","type":"uint256","indexed":false,"internalType":"uint256"}],"anonymous":false},{"type":"event","name":"FeesComputed","inputs":[{"name":"from","type":"address","indexed":true,"internalType":"address"},{"name":"to","type":"address","indexed":true,"internalType":"address"},{"name":"burnAmount","type":"uint256","indexed":false,"internalType":"uint256"},{"name":"sanctumAmount","type":"uint256","indexed":false,"internalType":"uint256"},{"name":"ecosystemAmount","type":"uint256","indexed":false,"internalType":"uint256"},{"name":"score","type":"uint16","indexed":false,"internalType":"uint16"}],"anonymous":false},{"type":"event","name":"ModulesSet","inputs":[{"name":"seer","type":"address","indexed":false,"internalType":"address"},{"name":"sanctumSink","type":"address","indexed":false,"internalType":"address"},{"name":"burnSink","type":"address","indexed":false,"internalType":"address"},{"name":"ecosystemSink","type":"address","indexed":false,"internalType":"address"}],"anonymous":false},{"type":"event","name":"OwnershipTransferStarted","inputs":[{"name":"previousOwner","type":"address","indexed":true,"internalType":"address"},{"name":"newOwner","type":"address","indexed":true,"internalType":"address"}],"anonymous":false},{"type":"event","name":"OwnershipTransferred","inputs":[{"name":"previousOwner","type":"address","indexed":true,"internalType":"address"},{"name":"newOwner","type":"address","indexed":true,"internalType":"address"}],"anonymous":false},{"type":"event","name":"PolicySet","inputs":[{"name":"baseBurnBps","type":"uint16","indexed":false,"internalType":"uint16"},{"name":"baseSanctumBps","type":"uint16","indexed":false,"internalType":"uint16"},{"name":"baseEcosystemBps","type":"uint16","indexed":false,"internalType":"uint16"},{"name":"highTrustReduction","type":"uint16","indexed":false,"internalType":"uint16"},{"name":"lowTrustPenalty","type":"uint16","indexed":false,"internalType":"uint16"}],"anonymous":false},{"type":"event","name":"SustainabilitySet","inputs":[{"name":"dailyBurnCap","type":"uint256","indexed":false,"internalType":"uint256"},{"name":"minimumSupplyFloor","type":"uint256","indexed":false,"internalType":"uint256"},{"name":"ecosystemMinBps","type":"uint16","indexed":false,"internalType":"uint16"}],"anonymous":false},{"type":"error","name":"BURN_Zero","inputs":[]}],"bytecode":{"object":"0x60803461023c57601f61227338819003918201601f19168301916001600160401b038311848410176102405780849260809460405283398101031261023c5761004781610254565b61005360208301610254565b9161006c606061006560408401610254565b9201610254565b5f80546001600160a01b03191633908117825560405195929392917f8be0079c531659141344cd1fd0a4f28419497f9722a3daafe3b4186f6b6457e08180a3600580546969e10de76676d08000006006556a295be96e640669720000006007556008805461ffff191690921790915569152d02c7e14af6800000600c556a0422ca8b0a00a425000000600d55600e8054631f402ee064ffffffffff199091161790556001600160a01b039490941694600160a01b600160e01b03199094167a1900140005009600000000000000000000000000000000000000001793851561020e57600280546001600160a01b03199081168817909155600380546001600160a01b03858116918416821790925560048054878416941684179055607d60e21b9187167fffff0000ffffffffffffffff0000000000000000000000000000000000000000891681179290921760055542600955604080518a8152602081019290925281019290925260608201527f2ad69807131f242e4c6b9e21338b8d7d7d5f32ab1dfaa1eddfa881c305c8f5e790608090a160405161200a90816102698239f35b62461bcd60e51b81526020600482015260096024820152683d32b9379039b2b2b960b91b6044820152606490fd5b5f80fd5b634e487b7160e01b5f52604160045260245ffd5b51906001600160a01b038216820361023c5756fe60806040526004361015610011575f80fd5b5f3560e01c806312761498146114c0578063144fa6d7146114475780631803fb711461142a57806318c3d4ac146114065780631d6e4bd5146113de57806323452b9c146113b4578063252f15f51461134e5780632d55ea391461132657806332072bc21461130257806334638696146111cf5780633cd08e6b146111b457806341becbce1461118c57806343ad62db146111715780634eadcca814611144578063556cfc1f1461105e578063588fe6b71461103d5780635a4d30cd146110205780635d8c489e14610ffc5780635e83c26d14610fd85780635f31bce514610fb4578063691845e414610f4c5780636f24d50414610ee157806376f1244b14610ec557806379ba509714610e1e5780637c4abf2414610dfa5780637f0f22fd14610dd9578063817fff1514610dbc5780638da5cb5b14610d955780638dacb64214610d785780639460e3cf14610d5b57806396c67bfc14610d37578063a69dc93c14610ccc578063ad0d14db14610c9c578063af53429514610c7a578063b079fbff14610b71578063b81ee45914610b4d578063b8c4651a14610b2a578063beeeb4ce14610b02578063c03d766614610adc578063c08477c814610a02578063c73cb83c14610885578063ca8b052f14610844578063d3c48fee14610827578063d90da3f21461076e578063de0dbaaa14610753578063e18c0ddb14610736578063e2e6b7cd1461071b578063e30c3978146106f3578063e3e7903f1461036b578063f2fde38b146102c5578063f5c6f5ab146102a8578063fba9203d1461028c5763fc0c546a14610260575f80fd5b34610288575f36600319011261028857600b546040516001600160a01b039091168152602090f35b5f80fd5b34610288575f366003190112610288576020604051611f408152f35b34610288575f366003190112610288576020600754604051908152f35b34610288576020366003190112610288576102de61161b565b6102e6611eae565b6001600160a01b0316801561033a57600180546001600160a01b031916821790555f80546001600160a01b0316907f38d16b8cac22d99fc7c124b9cd0de2d3fa1faef420bfe791d8c362d765e227009080a3005b60405162461bcd60e51b81526020600482015260096024820152684f574e3a207a65726f60b81b6044820152606490fd5b346102885760203660031901126102885761038461161b565b6002546001600160a01b03169033821480156106e0575b156106aa57604051630d47875d60e41b81526001600160a01b039091166004820181905291602090829060249082905afa90811561069f575f91610670575b506001600160401b03421690825f52601060205260405f20906040519060408201908282106001600160401b0383111761065c5761ffff91604052168152602081019183835280546801000000000000000081101561065c5761044291600182018155611647565b91909161064957518154925169ffffffffffffffffffff1990931661ffff90911617601092831b69ffffffffffffffff0000161790555f838152601160209081526040808320805467ffffffffffffffff191686179055929052205490606482116105bc575b600182116104b3575b005b62093a808111156105ad576104cf6001600160401b0391611aee565b16905f915f5b828110610570575b505081151580610567575b6104ee57005b815b8181106105205750505f5b818110156104b157600190835f52601060205261051a60405f20611e7a565b016104fb565b600190845f52601060205261056161053b8260405f20611647565b50865f52601060205261055b60405f2061055588866116a1565b90611647565b90611e20565b016104f0565b508082106104e8565b845f526010602052816001600160401b0361058e8360405f20611647565b505460101c1610156105a2576001016104d5565b9250849050806104dd565b506001600160401b035f6104cf565b9060015b8181106105f0575050815f5260106020526105dd60405f20611e7a565b815f52601060205260405f2054906104a8565b835f5260106020526106058160405f20611647565b5090845f52601060205260405f20915f198201908282116106355761055b61062f92600195611647565b016105c0565b634e487b7160e01b5f52601160045260245ffd5b634e487b7160e01b5f525f60045260245ffd5b634e487b7160e01b5f52604160045260245ffd5b610692915060203d602011610698575b61068a81836119b6565b810190611ad4565b826103da565b503d610680565b6040513d5f823e3d90fd5b60405162461bcd60e51b815260206004820152600e60248201526d139bdd08185d5d1a1bdc9a5e995960921b6044820152606490fd5b505f546001600160a01b0316331461039b565b34610288575f366003190112610288576001546040516001600160a01b039091168152602090f35b34610288575f36600319011261028857602060405160148152f35b34610288575f366003190112610288576020600f54604051908152f35b34610288575f36600319011261028857602060405160058152f35b346102885760603660031901126102885760043560243561ffff6107906115f9565b610798611eae565b1691606483116107ef577f688d8a1c9dac6b96264fe22528f3c052dde3fa0ff21e6283f8fb3e15c3a5e1fe9260609282600655806007558161ffff19600854161760085560405192835260208301526040820152a1005b60405162461bcd60e51b815260206004820152601060248201526f0cac6de40dad2dc40e8dede40d0d2ced60831b6044820152606490fd5b34610288575f366003190112610288576020600d54604051908152f35b34610288576020366003190112610288576001600160a01b0361086561161b565b165f52601160205260206001600160401b0360405f205416604051908152f35b346102885760403660031901126102885760246108a061161b565b600254604051630d47875d60e41b81526001600160a01b0392831660048201819052909380359391926020928692918391165afa92831561069f575f936109e1575b506040519063252f15f560e01b825260048201525f602482015281604482015260c081606481305afa801561069f575f925f925f9261095a575b50918161093c60a09693610937846109378961ffff996116a1565b6116a1565b91604051958652602086015260408501526060840152166080820152f35b935091505060c0823d60c0116109d9575b8161097860c093836119b6565b810103126102885760a09261093761ffff9261093c8551916109376020880151936109c38a60408b01519a6109af60608201611e0c565b506109bc60808201611e0c565b5001611e0c565b50978894958691979a505050509294505061091c565b3d915061096b565b6109fb91935060203d6020116106985761068a81836119b6565b91836108e2565b3461028857602036600319011261028857610a1b61161b565b600254604051630d47875d60e41b81526001600160a01b0392831660048201529160209183916024918391165afa801561069f57610a60915f91610abd575b50611ef7565b6028810281159082810460281482171561063557606461ffff91041690600a830290838204600a1417156106355761ffff610aa9606094610937836064879604169485926116a1565b169060405192835260208301526040820152f35b610ad6915060203d6020116106985761068a81836119b6565b82610a5a565b34610288575f366003190112610288576020610af6611d66565b61ffff60405191168152f35b34610288575f366003190112610288576003546040516001600160a01b039091168152602090f35b34610288576020366003190112610288576020610af6610b4861161b565b611b0f565b34610288575f36600319011261028857602060ff600e54821c166040519015158152f35b3461028857608036600319011261028857610b8a61161b565b610b92611631565b6044356001600160a01b0381169290839003610288576064356001600160a01b038116919082900361028857610bc6611eae565b6001600160a01b0316908115610c6b577f2ad69807131f242e4c6b9e21338b8d7d7d5f32ab1dfaa1eddfa881c305c8f5e793608093836001600160601b0360a01b600254161760025560018060a01b0316806001600160601b0360a01b6003541617600355816001600160601b0360a01b6004541617600455826001600160601b0360a01b6005541617600555604051938452602084015260408301526060820152a1005b6305e5a74b60e21b5f5260045ffd5b34610288575f366003190112610288576020610c94611a99565b604051908152f35b34610288576020366003190112610288576040610cbf610cba61160a565b611ef7565b8151908082526020820152f35b3461028857602036600319011261028857600435610cf560018060a01b03600b541633146119d7565b600954620151808101809111610635574210610d2657610d1a620151804206426116a1565b600955600f555f600a55005b610d3290600f546116ae565b600f55005b34610288575f366003190112610288576020610d51611a10565b6040519015158152f35b34610288575f366003190112610288576020600654604051908152f35b34610288575f36600319011261028857602060405162093a808152f35b34610288575f366003190112610288575f546040516001600160a01b039091168152602090f35b34610288575f366003190112610288576020600c54604051908152f35b34610288575f36600319011261028857602061ffff600e5416604051908152f35b34610288575f36600319011261028857602061ffff600e5460101c16604051908152f35b34610288575f366003190112610288576001546001600160a01b0381163303610e87575f543360018060a01b0382167f8be0079c531659141344cd1fd0a4f28419497f9722a3daafe3b4186f6b6457e05f80a36001600160a01b031990811633175f5516600155005b60405162461bcd60e51b815260206004820152601660248201527527aba71d103737ba103832b73234b7339037bbb732b960511b6044820152606490fd5b34610288575f366003190112610288576020604051610fa08152f35b3461028857602036600319011261028857600435610f0a60018060a01b03600b541633146119d7565b600954620151808101809111610635574210610f3b57610f2f620151804206426116a1565b600955600a555f600f55005b610f4790600a546116ae565b600a55005b3461028857604036600319011261028857610f6561161b565b6001600160a01b03165f9081526010602052604090208054602435919082101561028857604091610f9591611647565b50546001600160401b0382519161ffff8116835260101c166020820152f35b34610288575f36600319011261028857602061ffff60055460e01c16604051908152f35b34610288575f36600319011261028857602061ffff60055460d01c16604051908152f35b34610288575f36600319011261028857602061ffff60055460b01c16604051908152f35b34610288575f366003190112610288576020600954604051908152f35b34610288575f36600319011261028857602061ffff60085416604051908152f35b34610288575f36600319011261028857600a54611079611a99565b90600f5491611086611d66565b61108e611a10565b600754600b549092906001600160a01b03168015611135576020600491604051928380926318160ddd60e01b82525afa90811561069f575f91611100575b509060e09661ffff92955b604051978852602088015260408701521660608501521515608084015260a083015260c0820152f35b9190506020823d60201161112d575b8161111c602093836119b6565b8101031261028857905160e06110cc565b3d915061110f565b5061ffff9060e0965f956110d7565b34610288575f36600319011261028857606061115e611913565b9060405192835260208301526040820152f35b34610288575f36600319011261028857602060405160968152f35b34610288575f366003190112610288576004546040516001600160a01b039091168152602090f35b34610288575f36600319011261028857602060405160648152f35b34610288576040366003190112610288576111e861160a565b60243561ffff8116808203610288576111ff611eae565b8061ffff8416116112d1576103e810611294577f2b5a96a2cb88422a36d75f1e5ba2508e6d0f30627b3dbc2a2e19613ed652a8539160a0916005549061ffff60e01b9060e01b169161ffff60d01b9060d01b169063ffffffff60d01b191617178060055561ffff604051918181851c168352818160b01c16602084015260c01c1660408201525f60608201525f6080820152a1005b60405162461bcd60e51b81526020600482015260156024820152746d61782063616e6e6f74206578636565642031302560581b6044820152606490fd5b60405162461bcd60e51b81526020600482015260096024820152680dad2dc407c40dac2f60bb1b6044820152606490fd5b34610288575f36600319011261028857602061ffff60055460c01c16604051908152f35b34610288575f366003190112610288576002546040516001600160a01b039091168152602090f35b346102885760603660031901126102885760c061137e61136c61161b565b611374611631565b50604435906116bb565b604080519687526020870195909552938501929092526001600160a01b03908116606085015290811660808401521660a0820152f35b34610288575f366003190112610288576113cc611eae565b600180546001600160a01b0319169055005b34610288575f366003190112610288576005546040516001600160a01b039091168152602090f35b34610288575f36600319011261028857602061ffff60055460a01c16604051908152f35b34610288575f366003190112610288576020600a54604051908152f35b346102885760203660031901126102885761146061161b565b611468611eae565b6001600160a01b0316801561148e576001600160601b0360a01b600b541617600b555f80f35b60405162461bcd60e51b815260206004820152600a6024820152693d32b937903a37b5b2b760b11b6044820152606490fd5b346102885760a0366003190112610288576004356024356114df6115f9565b916064359161ffff831690818403610288576084359485151580960361028857611507611eae565b8184116115c75761ffff1691614e20831161159057611388116115565763ffff000092600c55600d5564ff00000000600e549460201b169364ffffffffff1916179160101b161717600e555f80f35b60405162461bcd60e51b81526020600482015260126024820152710d0d2ced040daead8e840dad2dc40605c6af60731b6044820152606490fd5b60405162461bcd60e51b815260206004820152600f60248201526e0d8deee40daead8e840dac2f04064f608b1b6044820152606490fd5b60405162461bcd60e51b815260206004820152600a6024820152690d8deee407c40d0d2ced60b31b6044820152606490fd5b6044359061ffff8216820361028857565b6004359061ffff8216820361028857565b600435906001600160a01b038216820361028857565b602435906001600160a01b038216820361028857565b805482101561165c575f5260205f2001905f90565b634e487b7160e01b5f52603260045260245ffd5b8181029291811591840414171561063557565b811561168d570490565b634e487b7160e01b5f52601260045260245ffd5b9190820391821161063557565b9190820180921161063557565b81156118d757610cba6116cd91611b0f565b906028820292821593838104602814851715610635576064900493600a840290848204600a141715610635578493610937606461170d93049687926116a1565b9261ffff6008541680851061188c575b5061174361271061173b81611733819588611670565b049786611670565b049484611670565b049161174d611a10565b80611883575b611870575b60065480151580611867575b6117e4575b5061177d8361177886886116ae565b6116ae565b1161179f576003546005546004546001600160a01b0392831693918316921690565b60405162461bcd60e51b815260206004820152601860248201527f4255524e3a20666565732065786365656420616d6f756e7400000000000000006044820152606490fd5b600a5460095462015180810180911161063557421015611860575b8161180a88836116ae565b11611816575b50611769565b5f969194929694808210611844575b5050906118358461183b936116a1565b906116ae565b91935f80611810565b61183b9392955061183591611858916116a1565b949192611825565b505f6117ff565b50851515611764565b9361187b91926116ae565b905f93611758565b50841515611753565b9361189790856116a1565b8082106118c15761271061173b816117336118b66117439583976116a1565b95505050505061171d565b50506127106117438161173b816117335f6118b6565b50506003546005546004545f93849384936001600160a01b039182169390821692911690565b9061ffff8091169116019061ffff821161063557565b6005549061ffff8260a01c169061ffff8360b01c169261ffff6119468161193a87876118fd565b9360c01c1680936118fd565b169283156119a957606481029080820460641490151715610635578361196b91611683565b93606481029080820460641490151715610635578361198991611683565b92606482029180830460641490151715610635576119a691611683565b90565b50509150505f905f905f90565b90601f801991011681019081106001600160401b0382111761065c57604052565b156119de57565b60405162461bcd60e51b815260206004820152600a60248201526937b7363c903a37b5b2b760b11b6044820152606490fd5b600b546001600160a01b031680158015611a8f575b611a8a576020600491604051928380926318160ddd60e01b82525afa90811561069f575f91611a58575b50600754101590565b90506020813d602011611a82575b81611a73602093836119b6565b8101031261028857515f611a4f565b3d9150611a66565b505f90565b5060075415611a25565b60095462015180810180911161063557421015611ace57600a546006549081811015611ac8576119a6916116a1565b50505f90565b60065490565b90816020910312610288575161ffff811681036102885790565b6001600160401b0362093a7f19911601906001600160401b03821161063557565b6001600160a01b03165f818152601060205260409020548015611d1157426001600160401b03169162093a80831115611d0a57611b4b83611aee565b925b815f52601060205260405f205f19840190848211610635576001600160401b03611b78838293611647565b505460101c169516809510611ce7575092915f935f935f925b808410611c0f57505050508215611bb4575061ffff91611bb091611683565b1690565b600254604051630d47875d60e41b8152600481019290925290925060209150829060249082906001600160a01b03165afa90811561069f575f91611bf6575090565b6119a6915060203d6020116106985761068a81836119b6565b90919294845f5260106020526001600160401b03611c308760405f20611647565b505460101c16838110611cdd57600187018088116106355783811015611cce576001600160401b03611c6e8192895f52601060205260405f20611647565b505460101c165b16036001600160401b03811161063557600191611835611ca26001600160401b03611cc39416809b6116ae565b99885f52601060205261ffff611cbb8b60405f20611647565b505416611670565b955b01929190611b91565b506001600160401b0385611c75565b5094600190611cc5565b91905061ffff9350611d0492505f52601060205260405f20611647565b50541690565b5f92611b4d565b50600254604051630d47875d60e41b81526004810192909252602090829060249082906001600160a01b03165afa90811561069f575f91611bf6575090565b9061ffff8091169116039061ffff821161063557565b600e5460ff8160201c1615611e0557600f5490600954916201518083018093116106355761ffff92421015611dfe575b600c54808211611da65750501690565b600d54808310611dba5750505060101c1690565b91611df3611dd983611dd3611df895611bb098976116a1565b936116a1565b86611dec818088169760101c1687611d50565b1690611670565b611683565b906116a1565b505f611d96565b5061271090565b51906001600160a01b038216820361028857565b9061064957818103611e30575050565b6001600160401b038261ffff80611e789554161661ffff198454161783555460101c1669ffffffffffffffff000082549160101b169069ffffffffffffffff00001916179055565b565b80548015611e9a575f190190611e908282611647565b610649575f905555565b634e487b7160e01b5f52603160045260245ffd5b5f546001600160a01b03163303611ec157565b60405162461bcd60e51b815260206004820152600e60248201526d27aba71d103737ba1037bbb732b960911b6044820152606490fd5b61ffff16610fa0811115611fc657611f40811015611fb857610fa06005549061ffff808360e01c169260d01c169261ffff611f328585611d50565b1690610f9f19019061ffff82116106355761ffff611f509216611670565b90801561168d57611f629104826116a1565b9161ffff611f6e611d66565b166127108103611f7f575b50505090565b611f8e90612710929394611670565b0491808311611fb0575b50808210611fa8575b8080611f79565b90505f611fa1565b91505f611f98565b5061ffff60055460d01c1690565b5061ffff60055460e01c169056fea26469706673582212209d7ee8b8925d12af4b2e735bf914d2b6f6fc5b82e099eadd96a1b131725e386164736f6c634300081e0033","linkReferences":{}},"methodIdentifiers":{"DEFAULT_BURN_BPS()":"43ad62db","DEFAULT_ECOSYSTEM_BPS()":"e2e6b7cd","DEFAULT_SANCTUM_BPS()":"de0dbaaa","HIGH_SCORE_THRESHOLD()":"fba9203d","LOW_SCORE_THRESHOLD()":"76f1244b","MAX_SCORE_SNAPSHOTS()":"3cd08e6b","SCORE_WINDOW()":"8dacb642","acceptOwnership()":"79ba5097","adaptiveFeesEnabled()":"b81ee459","baseBurnBps()":"18c3d4ac","baseEcosystemBps()":"32072bc2","baseSanctumBps()":"5d8c489e","burnSink()":"41becbce","burnsPaused()":"96c67bfc","cancelOwnershipTransfer()":"23452b9c","computeFees(address,address,uint256)":"252f15f5","currentDayStart()":"5a4d30cd","dailyBurnCap()":"9460e3cf","dailyBurnedAmount()":"1803fb71","dailyVolumeTracked()":"e18c0ddb","ecosystemMinBps()":"588fe6b7","ecosystemSink()":"1d6e4bd5","getEffectiveBurnRate(address)":"c08477c8","getFeeForScore(uint16)":"ad0d14db","getSplitRatio()":"4eadcca8","getSustainabilityStatus()":"556cfc1f","getTimeWeightedScore(address)":"b8c4651a","getVolumeMultiplier()":"c03d7666","highVolumeFeeMultiplier()":"7c4abf24","highVolumeThreshold()":"d3c48fee","lastScoreUpdate(address)":"ca8b052f","lowVolumeFeeMultiplier()":"7f0f22fd","lowVolumeThreshold()":"817fff15","maxTotalBps()":"5f31bce5","minTotalBps()":"5e83c26d","minimumSupplyFloor()":"f5c6f5ab","owner()":"8da5cb5b","pendingOwner()":"e30c3978","previewFees(address,uint256)":"c73cb83c","recordBurn(uint256)":"6f24d504","recordVolume(uint256)":"a69dc93c","remainingDailyBurnCapacity()":"af534295","sanctumSink()":"beeeb4ce","scoreHistory(address,uint256)":"691845e4","seer()":"2d55ea39","setAdaptiveFees(uint256,uint256,uint16,uint16,bool)":"12761498","setFeePolicy(uint16,uint16)":"34638696","setModules(address,address,address,address)":"b079fbff","setSustainability(uint256,uint256,uint16)":"d90da3f2","setToken(address)":"144fa6d7","token()":"fc0c546a","transferOwnership(address)":"f2fde38b","updateScore(address)":"e3e7903f"},"id":20}