{"abi":[{"type":"constructor","inputs":[{"name":"_dao","type":"address","internalType":"address"},{"name":"_seer","type":"address","internalType":"address"}],"stateMutability":"nonpayable"},{"type":"function","name":"MAX_FOUNDING_MEMBERS","inputs":[],"outputs":[{"name":"","type":"uint32","internalType":"uint32"}],"stateMutability":"view"},{"type":"function","name":"MAX_PIONEERS","inputs":[],"outputs":[{"name":"","type":"uint32","internalType":"uint32"}],"stateMutability":"view"},{"type":"function","name":"awardBadge","inputs":[{"name":"user","type":"address","internalType":"address"},{"name":"badge","type":"bytes32","internalType":"bytes32"}],"outputs":[],"stateMutability":"nonpayable"},{"type":"function","name":"awardFoundingMember","inputs":[{"name":"user","type":"address","internalType":"address"}],"outputs":[],"stateMutability":"nonpayable"},{"type":"function","name":"awardPioneer","inputs":[{"name":"user","type":"address","internalType":"address"}],"outputs":[],"stateMutability":"nonpayable"},{"type":"function","name":"dao","inputs":[],"outputs":[{"name":"","type":"address","internalType":"address"}],"stateMutability":"view"},{"type":"function","name":"foundingMemberCount","inputs":[],"outputs":[{"name":"","type":"uint32","internalType":"uint32"}],"stateMutability":"view"},{"type":"function","name":"getBadgeProgress","inputs":[{"name":"user","type":"address","internalType":"address"},{"name":"badge","type":"bytes32","internalType":"bytes32"}],"outputs":[{"name":"current","type":"uint32","internalType":"uint32"},{"name":"required","type":"uint32","internalType":"uint32"},{"name":"percentage","type":"uint8","internalType":"uint8"}],"stateMutability":"view"},{"type":"function","name":"getUserStats","inputs":[{"name":"user","type":"address","internalType":"address"}],"outputs":[{"name":"","type":"tuple","internalType":"struct BadgeManagerLite.UserStats","components":[{"name":"commerceTxCount","type":"uint32","internalType":"uint32"},{"name":"consecutiveDays","type":"uint32","internalType":"uint32"},{"name":"governanceVotes","type":"uint32","internalType":"uint32"},{"name":"successfulTrades","type":"uint32","internalType":"uint32"},{"name":"endorsementsReceived","type":"uint32","internalType":"uint32"},{"name":"referralsMade","type":"uint32","internalType":"uint32"},{"name":"referralsQualified","type":"uint32","internalType":"uint32"},{"name":"disputesMediated","type":"uint32","internalType":"uint32"},{"name":"fraudReports","type":"uint32","internalType":"uint32"},{"name":"educationalContent","type":"uint32","internalType":"uint32"},{"name":"lastActivityDay","type":"uint64","internalType":"uint64"},{"name":"firstActivity","type":"uint64","internalType":"uint64"},{"name":"lastScoreDropBelow700","type":"uint64","internalType":"uint64"},{"name":"flags","type":"uint8","internalType":"uint8"}]}],"stateMutability":"view"},{"type":"function","name":"operators","inputs":[{"name":"","type":"address","internalType":"address"}],"outputs":[{"name":"","type":"bool","internalType":"bool"}],"stateMutability":"view"},{"type":"function","name":"pioneerCount","inputs":[],"outputs":[{"name":"","type":"uint32","internalType":"uint32"}],"stateMutability":"view"},{"type":"function","name":"recordCommerceTx","inputs":[{"name":"user","type":"address","internalType":"address"},{"name":"successful","type":"bool","internalType":"bool"}],"outputs":[],"stateMutability":"nonpayable"},{"type":"function","name":"recordContribution","inputs":[{"name":"contributor","type":"address","internalType":"address"}],"outputs":[],"stateMutability":"nonpayable"},{"type":"function","name":"recordEducationalContent","inputs":[{"name":"creator","type":"address","internalType":"address"}],"outputs":[],"stateMutability":"nonpayable"},{"type":"function","name":"recordEndorsement","inputs":[{"name":"user","type":"address","internalType":"address"}],"outputs":[],"stateMutability":"nonpayable"},{"type":"function","name":"recordFraudReport","inputs":[{"name":"reporter","type":"address","internalType":"address"}],"outputs":[],"stateMutability":"nonpayable"},{"type":"function","name":"recordGovernanceVote","inputs":[{"name":"user","type":"address","internalType":"address"}],"outputs":[],"stateMutability":"nonpayable"},{"type":"function","name":"recordPresaleParticipation","inputs":[{"name":"user","type":"address","internalType":"address"}],"outputs":[],"stateMutability":"nonpayable"},{"type":"function","name":"recordReferral","inputs":[{"name":"referrer","type":"address","internalType":"address"},{"name":"qualified","type":"bool","internalType":"bool"}],"outputs":[],"stateMutability":"nonpayable"},{"type":"function","name":"recordTranslation","inputs":[{"name":"translator","type":"address","internalType":"address"}],"outputs":[],"stateMutability":"nonpayable"},{"type":"function","name":"revokeBadge","inputs":[{"name":"user","type":"address","internalType":"address"},{"name":"badge","type":"bytes32","internalType":"bytes32"},{"name":"reason","type":"string","internalType":"string"}],"outputs":[],"stateMutability":"nonpayable"},{"type":"function","name":"seer","inputs":[],"outputs":[{"name":"","type":"address","internalType":"contract Seer"}],"stateMutability":"view"},{"type":"function","name":"setDAO","inputs":[{"name":"newDAO","type":"address","internalType":"address"}],"outputs":[],"stateMutability":"nonpayable"},{"type":"function","name":"setOperator","inputs":[{"name":"operator","type":"address","internalType":"address"},{"name":"authorized","type":"bool","internalType":"bool"}],"outputs":[],"stateMutability":"nonpayable"},{"type":"function","name":"setSeer","inputs":[{"name":"newSeer","type":"address","internalType":"address"}],"outputs":[],"stateMutability":"nonpayable"},{"type":"function","name":"userStats","inputs":[{"name":"","type":"address","internalType":"address"}],"outputs":[{"name":"commerceTxCount","type":"uint32","internalType":"uint32"},{"name":"consecutiveDays","type":"uint32","internalType":"uint32"},{"name":"governanceVotes","type":"uint32","internalType":"uint32"},{"name":"successfulTrades","type":"uint32","internalType":"uint32"},{"name":"endorsementsReceived","type":"uint32","internalType":"uint32"},{"name":"referralsMade","type":"uint32","internalType":"uint32"},{"name":"referralsQualified","type":"uint32","internalType":"uint32"},{"name":"disputesMediated","type":"uint32","internalType":"uint32"},{"name":"fraudReports","type":"uint32","internalType":"uint32"},{"name":"educationalContent","type":"uint32","internalType":"uint32"},{"name":"lastActivityDay","type":"uint64","internalType":"uint64"},{"name":"firstActivity","type":"uint64","internalType":"uint64"},{"name":"lastScoreDropBelow700","type":"uint64","internalType":"uint64"},{"name":"flags","type":"uint8","internalType":"uint8"}],"stateMutability":"view"},{"type":"event","name":"BadgeEarned","inputs":[{"name":"user","type":"address","indexed":true,"internalType":"address"},{"name":"badge","type":"bytes32","indexed":true,"internalType":"bytes32"},{"name":"expiry","type":"uint256","indexed":false,"internalType":"uint256"},{"name":"scoreBoost","type":"uint16","indexed":false,"internalType":"uint16"}],"anonymous":false},{"type":"event","name":"BadgeRenewed","inputs":[{"name":"user","type":"address","indexed":true,"internalType":"address"},{"name":"badge","type":"bytes32","indexed":true,"internalType":"bytes32"},{"name":"newExpiry","type":"uint256","indexed":false,"internalType":"uint256"}],"anonymous":false},{"type":"event","name":"BadgeRevoked","inputs":[{"name":"user","type":"address","indexed":true,"internalType":"address"},{"name":"badge","type":"bytes32","indexed":true,"internalType":"bytes32"},{"name":"reason","type":"string","indexed":false,"internalType":"string"}],"anonymous":false},{"type":"event","name":"OperatorSet","inputs":[{"name":"operator","type":"address","indexed":true,"internalType":"address"},{"name":"authorized","type":"bool","indexed":false,"internalType":"bool"}],"anonymous":false},{"type":"event","name":"StatsUpdated","inputs":[{"name":"user","type":"address","indexed":true,"internalType":"address"},{"name":"metric","type":"string","indexed":false,"internalType":"string"},{"name":"newValue","type":"uint32","indexed":false,"internalType":"uint32"}],"anonymous":false},{"type":"error","name":"BM_NotDAO","inputs":[]},{"type":"error","name":"BM_NotOperator","inputs":[]},{"type":"error","name":"BM_Zero","inputs":[]}],"bytecode":{"object":"0x60803460b457601f61363f38819003918201601f19168301916001600160401b0383118484101760b857808492604094855283398101031260b457604b602060458360cc565b920160cc565b906001600160a01b03168015801560a4575b60955760018060a01b03195f5416175f5560018060a01b031660018060a01b0319600154161760015560405161355f90816100e08239f35b63dce3538560e01b5f5260045ffd5b506001600160a01b03821615605d565b5f80fd5b634e487b7160e01b5f52604160045260245ffd5b51906001600160a01b038216820360b45756fe60806040526004361015610011575f80fd5b5f3560e01c806305409f3314610e2457806313cf93fb14610ddd57806313e7c9d814610da05780631d92098514610d07578063283d671514610c6a5780632d55ea3914610c42578063387b279c14610b5e5780634162169f14610b375780634175209614610a9d578063466d055f14610a4c5780634e43603a146107ff5780635521f9fe146107ae578063558a729714610733578063615e5cae146106de5780636d134ac21461066657806377a0555c146105ae5780637fc49ea9146104dd57806385e8135c146104555780638a65d87414610353578063aea3b21714610337578063bdf0332914610312578063c37f34ca146102ef578063e071c1c0146102a0578063e5b3d3ee146101c0578063e73a914c146101575763f220836f14610137575f80fd5b34610153575f3660031901126101535760206040516103e88152f35b5f80fd5b3461015357602036600319011261015357610170610ebe565b5f54906001600160a01b03821633036101b1576001600160a01b03169081156101a2576001600160a01b031916175f55005b63dce3538560e01b5f5260045ffd5b63385b4f9160e21b5f5260045ffd5b34610153576020366003190112610153576101d9610ebe565b5f546001600160a01b031633141580610289575b61027a575f51602061334a5f395f51905f52608063ffffffff60018060a01b03841693845f52600260205261025060405f209182548460401b610234868360401c166111e8565b60401b16908560401b191617835561024b81612b45565b612975565b5460401c1660405190604082526005604083015264766f74657360d81b60608301526020820152a2005b63ed1f1d8d60e01b5f5260045ffd5b50335f52600360205260ff60405f205416156101ed565b34610153576020366003190112610153576102b9610ebe565b5f546001600160a01b031633036101b1576001600160a01b031680156101a257600180546001600160a01b031916919091179055005b34610153575f36600319011261015357602063ffffffff60045416604051908152f35b34610153575f36600319011261015357602063ffffffff600454821c16604051908152f35b34610153575f3660031901126101535760206040516127108152f35b34610153576020366003190112610153576001600160a01b03610374610ebe565b165f5260026020526101c060405f2080549060ff6002600183015492015416906040519263ffffffff8116845263ffffffff8160201c16602085015263ffffffff8160401c16604085015263ffffffff8160601c16606085015263ffffffff8160801c16608085015263ffffffff8160a01c1660a085015263ffffffff8160c01c1660c085015260e01c60e084015263ffffffff811661010084015263ffffffff8160201c1661012084015260018060401b038160401c1661014084015260018060401b038160801c1661016084015260c01c6101808301526101a0820152f35b346101535760203660031901126101535761046e610ebe565b5f546001600160a01b0316331415806104c6575b61027a576104c49060018060a01b0381165f526002602052600160405f200163ffffffff6104b2818354166111e8565b1663ffffffff19825416179055612975565b005b50335f52600360205260ff60405f20541615610482565b34610153576104eb36610ed4565b9060018060a01b035f541633141580610597575b61027a576001600160a01b0381165f90815260026020526040902080546104c49363ffffffff60a01b61053b60a084901c63ffffffff166111e8565b60a01b16908163ffffffff60a01b198416179081855561055d575b8585612975565b63ffffffff60c01b906105789060c01c63ffffffff166111e8565b60c01b1691600160a01b600160e01b0319161717905582808080610556565b50335f52600360205260ff60405f205416156104ff565b34610153576020366003190112610153576105c7610ebe565b5f546001600160a01b03163314158061064f575b61027a5760018060a01b0381165f526002602052600260405f20018054600181161561060357005b8154600160ff9290921660ff19909116171790555f546001600160a01b031633141580610638575b61027a576104c490611b18565b50335f52600360205260ff60405f2054161561062b565b50335f52600360205260ff60405f205416156105db565b346101535760603660031901126101535761067f610ebe565b604435906001600160401b0382116101535736602383011215610153576004820135906001600160401b038211610153573660248385010111610153575f546001600160a01b031633036101b15760246104c493019060243590612769565b34610153576040366003190112610153576106f7610ebe565b5f546001600160a01b03163314158061071c575b61027a576104c49060243590612466565b50335f52600360205260ff60405f2054161561070b565b346101535761074136610ed4565b5f549091906001600160a01b031633036101b1576001600160a01b03169081156101a25760207f1a594081ae893ab78e67d9b9e843547318164322d32c65369d78a96172d9dc8f91835f526003825260405f209015159060ff1981541660ff8316179055604051908152a2005b34610153576020366003190112610153576107c7610ebe565b5f546001600160a01b0316331415806107e8575b61027a576104c490611348565b50335f52600360205260ff60405f205416156107db565b3461015357602036600319011261015357610818610ebe565b60405161082481610f03565b5f8152602081015f9052604081015f9052606081015f9052608081015f905260a081015f905260c081015f905260e081015f905261010081015f905261012081015f905261014081015f905261016081015f905261018081015f90526101a0015f9052600160a01b60019003165f52600260205260405f206040516108a881610f03565b815463ffffffff81169283835260208301938260201c63ffffffff168552604084018360401c63ffffffff168152606085018460601c63ffffffff16815260808601948060801c63ffffffff16865260a087018160a01c63ffffffff16815260c08801908260c01c63ffffffff16825260e089019260e01c83526001870154976101008a019463ffffffff8a1686526101208b01968a60201c63ffffffff1688526101408c0198600160401b600190038c60401c168a526101608d019a8d8d600160401b600190039060801c168d52610180019c60c01c8d526002015460ff169c6101a0019c8d526040519d8e9182525163ffffffff1690602001525163ffffffff1660408d01525163ffffffff1660608c01525163ffffffff1660808b01525163ffffffff1660a08a01525163ffffffff1660c08901525163ffffffff1660e08801525163ffffffff166101008701525163ffffffff16610120860152600160401b60019003905116610140850152600160401b60019003905116610160840152600160401b600190039051166101808301525160ff166101a08201526101c090f35b3461015357602036600319011261015357610a65610ebe565b5f546001600160a01b031633141580610a86575b61027a576104c490611232565b50335f52600360205260ff60405f20541615610a79565b3461015357602036600319011261015357610ab6610ebe565b5f546001600160a01b031633036101b15760018060a01b0381165f526002602052600260405f200180546004811615610aeb57005b8154600460ff9290921660ff19909116171790555f546001600160a01b031633141580610b20575b61027a576104c4906117fe565b50335f52600360205260ff60405f20541615610b13565b34610153575f366003190112610153575f546040516001600160a01b039091168152602090f35b3461015357610b6c36610ed4565b5f546001600160a01b031633141580610c2b575b61027a57608063ffffffff5f51602061334a5f395f51905f5292610bd860018060a01b03861695865f52600260205260405f209284610bc1818654166111e8565b168519855416178455610c04575b61024b81612b45565b54166040519060408252600a6040830152690c6dedadacae4c6caa8f60b31b60608301526020820152a2005b82548460601b610c18868360601c166111e8565b60601b16908560601b1916178355610bcf565b50335f52600360205260ff60405f20541615610b80565b34610153575f366003190112610153576001546040516001600160a01b039091168152602090f35b3461015357602036600319011261015357610c83610ebe565b5f546001600160a01b031633141580610cf0575b61027a576104c49060018060a01b0381165f52600260205261024b600160405f2001610ccc63ffffffff825460201c166111e8565b90805463ffffffff60201b191660209290921b63ffffffff60201b16919091179055565b50335f52600360205260ff60405f20541615610c97565b3461015357602036600319011261015357610d20610ebe565b5f546001600160a01b031633141580610d89575b61027a576001600160a01b0381165f90815260026020526040902080546104c492919063ffffffff60801b610d72608083901c63ffffffff166111e8565b60801b169063ffffffff60801b1916179055612975565b50335f52600360205260ff60405f20541615610d34565b34610153576020366003190112610153576001600160a01b03610dc1610ebe565b165f526003602052602060ff60405f2054166040519015158152f35b3461015357604036600319011261015357606063ffffffff60ff610e0b610e02610ebe565b60243590610f56565b9193908160405195168552166020840152166040820152f35b3461015357602036600319011261015357610e3d610ebe565b5f546001600160a01b031633036101b15760018060a01b0381165f526002602052600260405f200180546002811615610e7257005b8154600260ff9290921660ff19909116171790555f546001600160a01b031633141580610ea7575b61027a576104c4906114d1565b50335f52600360205260ff60405f20541615610e9a565b600435906001600160a01b038216820361015357565b6040906003190112610153576004356001600160a01b0381168103610153579060243580151581036101535790565b6101c081019081106001600160401b03821117610f1f57604052565b634e487b7160e01b5f52604160045260245ffd5b601f909101601f19168101906001600160401b03821190821017610f1f57604052565b60018060a01b03165f52600260205260405f2060405190610f7682610f03565b80549263ffffffff84169384845263ffffffff8160201c169283602086015263ffffffff8260401c169485604082015263ffffffff8360601c169384606083015263ffffffff8460801c16608083015263ffffffff8460a01c1660a083015263ffffffff8460c01c16938460c084015260e01c60e08301526001830154916101a060ff600263ffffffff8616968761010086015263ffffffff8760201c16968761012087015260018060401b038160401c1661014087015260018060401b038160801c1661016087015260c01c6101808601520154169101525f51602061330a5f395f51905f5281145f146110d35750505050505050603290915b63ffffffff83811690831680821061108a575050606490565b6064820291808304606414901517156110bf5780156110ab5760ff91041690565b634e487b7160e01b5f52601260045260245ffd5b634e487b7160e01b5f52601160045260245ffd5b90919293949596505f5160206133ea5f395f51905f5281145f1461110057505050505050600a9091611071565b909192939495505f51602061348a5f395f51905f5281145f1461112b575050505050601e9091611071565b9091929394505f51602061344a5f395f51905f5281145f14611154575050505060649091611071565b92935090915f51602061342a5f395f51905f52810361117957505050600a9091611071565b919290915f51602061346a5f395f51905f52810361119d5750505060039091611071565b919250905f51602061338a5f395f51905f5281036111c057505060059091611071565b9091505f5160206134ca5f395f51905f52036111df5760059091611071565b505f905f905f90565b63ffffffff1663ffffffff81146110bf5760010190565b90816020910312610153575180151581036101535790565b6001600160a01b039091168152602081019190915260400190565b60045463ffffffff81166127108110156112ef57600154604051630e05e5d560e21b81526001600160a01b0385811660048301525f51602061350a5f395f51905f526024830152909160209183916044918391165afa908115611323575f916112f4575b506112ef576112a963ffffffff916111e8565b169063ffffffff19161760045560018060a01b035f5416331415806112d8575b61027a576112d690611e32565b565b50335f52600360205260ff60405f205416156112c9565b505050565b611316915060203d60201161131c575b61130e8183610f33565b8101906111ff565b5f611296565b503d611304565b6040513d5f823e3d90fd5b90816020910312610153575161ffff811681036101535790565b60045463ffffffff8160201c166103e88110156112ef57600154604051630e05e5d560e21b81526001600160a01b03858116600483018190525f5160206132ea5f395f51905f52602484015292169190602081604481865afa908115611323575f91611480575b5061147957602090602460405180948193630d47875d60e41b835260048301525afa90811561132357611f409161ffff915f9161144a575b5016106112ef5763ffffffff60201b90611400906111e8565b60201b169063ffffffff60201b19161760045560018060a01b035f541633141580611433575b61027a576112d69061214c565b50335f52600360205260ff60405f20541615611426565b61146c915060203d602011611472575b6114648183610f33565b81019061132e565b5f6113e7565b503d61145a565b5050505050565b611499915060203d60201161131c5761130e8183610f33565b5f6113af565b919082018092116110bf57565b606091949392608082019560018060a01b031682526020820152600160408201520152565b600154604051630e05e5d560e21b81526001600160a01b03808416600483018190525f51602061336a5f395f51905f526024840152935f9390929160209183916044918391165afa908115611323575f916117df575b506117c557505f9073__$e3a882f22bd04f7a2b17b0bf615ac922fd$__60405163157e6ad160e21b81525f51602061336a5f395f51905f526004820152602081602481855af4908115611323575f916117a6575b5015611728575b6001546001600160a01b0316803b156101535760405163024a6d6d60e11b8152600481018690525f51602061336a5f395f51905f5260248201526001604482015260648101859052905f908290608490829084905af19081611713575b506115eb575b50505050565b602060249160405192838092630737fee160e41b82525f51602061336a5f395f51905f5260048301525af4908115611708579061ffff9183916116e9575b50169081611668575b5060405f51602061336a5f395f51905f5293925f5160206133ca5f395f51905f529282519182526020820152a35f8080806115e5565b6001546001600160a01b0316803b156116e55781809160a460405180948193630eccbd3560e11b83528a600484015288602484015260606044840152600c60648401526b10985919d94819585c9b995960a21b60848401525af16116cd575b50611632565b6116d8828092610f33565b6116e257806116c7565b80fd5b5080fd5b611702915060203d602011611472576114648183610f33565b5f611629565b6040513d84823e3d90fd5b6117209193505f90610f33565b5f915f6115df565b604051636f143be160e01b81525f51602061336a5f395f51905f526004820152909250602081602481865af48015611323575f90611772575b61176c91504261149f565b91611582565b506020813d60201161179e575b8161178c60209383610f33565b810103126101535761176c9051611761565b3d915061177f565b6117bf915060203d60201161131c5761130e8183610f33565b5f61157b565b6112d692505f51602061336a5f395f51905f529150612c5d565b6117f8915060203d60201161131c5761130e8183610f33565b5f611527565b600154604051630e05e5d560e21b81526001600160a01b03808416600483018190525f5160206134aa5f395f51905f526024840152935f9390929160209183916044918391165afa908115611323575f91611af9575b50611adf57505f9073__$e3a882f22bd04f7a2b17b0bf615ac922fd$__60405163157e6ad160e21b81525f5160206134aa5f395f51905f526004820152602081602481855af4908115611323575f91611ac0575b5015611a42575b6001546001600160a01b0316803b156101535760405163024a6d6d60e11b8152600481018690525f5160206134aa5f395f51905f5260248201526001604482015260648101859052905f908290608490829084905af19081611a2d575b506119175750505050565b602060249160405192838092630737fee160e41b82525f5160206134aa5f395f51905f5260048301525af4908115611708579061ffff918391611a0e575b50169081611994575b5060405f5160206134aa5f395f51905f5293925f5160206133ca5f395f51905f529282519182526020820152a35f8080806115e5565b6001546001600160a01b0316803b156116e55781809160a460405180948193630eccbd3560e11b83528a600484015288602484015260606044840152600c60648401526b10985919d94819585c9b995960a21b60848401525af16119f9575b5061195e565b611a04828092610f33565b6116e257806119f3565b611a27915060203d602011611472576114648183610f33565b5f611955565b611a3a9193505f90610f33565b5f915f61190c565b604051636f143be160e01b81525f5160206134aa5f395f51905f526004820152909250602081602481865af48015611323575f90611a8c575b611a8691504261149f565b916118af565b506020813d602011611ab8575b81611aa660209383610f33565b8101031261015357611a869051611a7b565b3d9150611a99565b611ad9915060203d60201161131c5761130e8183610f33565b5f6118a8565b6112d692505f5160206134aa5f395f51905f529150612c5d565b611b12915060203d60201161131c5761130e8183610f33565b5f611854565b600154604051630e05e5d560e21b81526001600160a01b03808416600483018190525f5160206133aa5f395f51905f526024840152935f9390929160209183916044918391165afa908115611323575f91611e13575b50611df957505f9073__$e3a882f22bd04f7a2b17b0bf615ac922fd$__60405163157e6ad160e21b81525f5160206133aa5f395f51905f526004820152602081602481855af4908115611323575f91611dda575b5015611d5c575b6001546001600160a01b0316803b156101535760405163024a6d6d60e11b8152600481018690525f5160206133aa5f395f51905f5260248201526001604482015260648101859052905f908290608490829084905af19081611d47575b50611c315750505050565b602060249160405192838092630737fee160e41b82525f5160206133aa5f395f51905f5260048301525af4908115611708579061ffff918391611d28575b50169081611cae575b5060405f5160206133aa5f395f51905f5293925f5160206133ca5f395f51905f529282519182526020820152a35f8080806115e5565b6001546001600160a01b0316803b156116e55781809160a460405180948193630eccbd3560e11b83528a600484015288602484015260606044840152600c60648401526b10985919d94819585c9b995960a21b60848401525af1611d13575b50611c78565b611d1e828092610f33565b6116e25780611d0d565b611d41915060203d602011611472576114648183610f33565b5f611c6f565b611d549193505f90610f33565b5f915f611c26565b604051636f143be160e01b81525f5160206133aa5f395f51905f526004820152909250602081602481865af48015611323575f90611da6575b611da091504261149f565b91611bc9565b506020813d602011611dd2575b81611dc060209383610f33565b8101031261015357611da09051611d95565b3d9150611db3565b611df3915060203d60201161131c5761130e8183610f33565b5f611bc2565b6112d692505f5160206133aa5f395f51905f529150612c5d565b611e2c915060203d60201161131c5761130e8183610f33565b5f611b6e565b600154604051630e05e5d560e21b81526001600160a01b03808416600483018190525f51602061350a5f395f51905f526024840152935f9390929160209183916044918391165afa908115611323575f9161212d575b5061211357505f9073__$e3a882f22bd04f7a2b17b0bf615ac922fd$__60405163157e6ad160e21b81525f51602061350a5f395f51905f526004820152602081602481855af4908115611323575f916120f4575b5015612076575b6001546001600160a01b0316803b156101535760405163024a6d6d60e11b8152600481018690525f51602061350a5f395f51905f5260248201526001604482015260648101859052905f908290608490829084905af19081612061575b50611f4b5750505050565b602060249160405192838092630737fee160e41b82525f51602061350a5f395f51905f5260048301525af4908115611708579061ffff918391612042575b50169081611fc8575b5060405f51602061350a5f395f51905f5293925f5160206133ca5f395f51905f529282519182526020820152a35f8080806115e5565b6001546001600160a01b0316803b156116e55781809160a460405180948193630eccbd3560e11b83528a600484015288602484015260606044840152600c60648401526b10985919d94819585c9b995960a21b60848401525af161202d575b50611f92565b612038828092610f33565b6116e25780612027565b61205b915060203d602011611472576114648183610f33565b5f611f89565b61206e9193505f90610f33565b5f915f611f40565b604051636f143be160e01b81525f51602061350a5f395f51905f526004820152909250602081602481865af48015611323575f906120c0575b6120ba91504261149f565b91611ee3565b506020813d6020116120ec575b816120da60209383610f33565b81010312610153576120ba90516120af565b3d91506120cd565b61210d915060203d60201161131c5761130e8183610f33565b5f611edc565b6112d692505f51602061350a5f395f51905f529150612c5d565b612146915060203d60201161131c5761130e8183610f33565b5f611e88565b600154604051630e05e5d560e21b81526001600160a01b03808416600483018190525f5160206132ea5f395f51905f526024840152935f9390929160209183916044918391165afa908115611323575f91612447575b5061242d57505f9073__$e3a882f22bd04f7a2b17b0bf615ac922fd$__60405163157e6ad160e21b81525f5160206132ea5f395f51905f526004820152602081602481855af4908115611323575f9161240e575b5015612390575b6001546001600160a01b0316803b156101535760405163024a6d6d60e11b8152600481018690525f5160206132ea5f395f51905f5260248201526001604482015260648101859052905f908290608490829084905af1908161237b575b506122655750505050565b602060249160405192838092630737fee160e41b82525f5160206132ea5f395f51905f5260048301525af4908115611708579061ffff91839161235c575b501690816122e2575b5060405f5160206132ea5f395f51905f5293925f5160206133ca5f395f51905f529282519182526020820152a35f8080806115e5565b6001546001600160a01b0316803b156116e55781809160a460405180948193630eccbd3560e11b83528a600484015288602484015260606044840152600c60648401526b10985919d94819585c9b995960a21b60848401525af1612347575b506122ac565b612352828092610f33565b6116e25780612341565b612375915060203d602011611472576114648183610f33565b5f6122a3565b6123889193505f90610f33565b5f915f61225a565b604051636f143be160e01b81525f5160206132ea5f395f51905f526004820152909250602081602481865af48015611323575f906123da575b6123d491504261149f565b916121fd565b506020813d602011612406575b816123f460209383610f33565b81010312610153576123d490516123c9565b3d91506123e7565b612427915060203d60201161131c5761130e8183610f33565b5f6121f6565b6112d692505f5160206132ea5f395f51905f529150612c5d565b612460915060203d60201161131c5761130e8183610f33565b5f6121a2565b600154604051630e05e5d560e21b81525f92916020908290818061248e898860048401611217565b03916001600160a01b03165afa908115611323575f91612702575b506126f7575f9173__$e3a882f22bd04f7a2b17b0bf615ac922fd$__60405163157e6ad160e21b8152856004820152602081602481855af4908115611323575f916126d8575b5015612668575b6001546001600160a01b0316803b15610153575f604051809263024a6d6d60e11b825281838161252b8b8d8c600485016114ac565b03925af19081612653575b50612542575050505050565b602060249160405192838092630737fee160e41b82528960048301525af4908115611708579061ffff918391612634575b501690816125ad575b505f5160206133ca5f395f51905f52916040918251948552602085015260018060a01b031692a35f80808080611479565b6001546001600160a01b0316803b156116e557604051630eccbd3560e11b81526001600160a01b03851660048201526024810184905260606044820152600c60648201526b10985919d94819585c9b995960a21b6084820152908290829060a490829084905af161261f575b5061257c565b61262a828092610f33565b6116e25780612619565b61264d915060203d602011611472576114648183610f33565b5f612573565b6126609193505f90610f33565b5f915f612536565b9250604051636f143be160e01b8152846004820152602081602481875af48015611323575f906126a4575b61269e91504261149f565b926124f6565b506020813d6020116126d0575b816126be60209383610f33565b810103126101535761269e9051612693565b3d91506126b1565b6126f1915060203d60201161131c5761130e8183610f33565b5f6124ef565b6112d6929150612c5d565b61271b915060203d60201161131c5761130e8183610f33565b5f6124a9565b6001600160a01b03909116815260208101919091525f60408201819052606082015260800190565b908060209392818452848401375f828201840152601f01601f1916010190565b600154604051630e05e5d560e21b8152929493925f916001600160a01b0316906020818061279b8a8860048401611217565b0381855afa908115611323575f91612931575b501561292957803b15610153575f604051809263024a6d6d60e11b82528183816127dc8c8a60048401612721565b03925af19081612914575b506127f3575050505050565b604051630737fee160e41b81526004810186905260208160248173__$e3a882f22bd04f7a2b17b0bf615ac922fd$__5af4908115611708579061ffff9183916128f5575b50168061287e575b5050905f51602061332a5f395f51905f52916128716040519283926020845260018060a01b0316956020840191612749565b0390a35f80808080611479565b6001546001600160a01b031690813b156128f15760405163031879a760e21b81526001600160a01b038516600482015260248101919091526060604482015290829082908183816128d3606482018c8c612749565b03925af11561283f576128e7828092610f33565b6116e2578061283f565b8280fd5b61290e915060203d602011611472576114648183610f33565b5f612837565b6129219192505f90610f33565b5f905f6127e7565b505050505050565b61294a915060203d60201161131c5761130e8183610f33565b5f6127ae565b90600a8110156129615760051b0190565b634e487b7160e01b5f52603260045260245ffd5b60405161014081016001600160401b03811182821017610f1f576040525f51602061330a5f395f51905f5281525f5160206133ea5f395f51905f5260208201525f51602061340a5f395f51905f5260408201525f51602061348a5f395f51905f5260608201525f51602061344a5f395f51905f5260808201525f5160206134ea5f395f51905f5260a08201525f51602061342a5f395f51905f5260c08201525f51602061346a5f395f51905f5260e08201525f51602061338a5f395f51905f526101008201525f5160206134ca5f395f51905f526101208201525f5b600a8110612a5e57505050565b600154612a99906020906001600160a01b0316612a7b8486612950565b51906040518080958194630e05e5d560e21b83528a60048401611217565b03915afa908115611323575f91612b27575b501580612b0d575b612ac0575b600101612a51565b612aca8183612950565b519060018060a01b035f541633141580612af6575b61027a57612aef60019285612466565b9050612ab8565b50335f52600360205260ff60405f20541615612adf565b50612b22612b1b8284612950565b5184612f48565b612ab3565b612b3f915060203d811161131c5761130e8183610f33565b5f612aab565b6001600160a01b03165f908152600260205260409020600181018054909190608081901c6001600160401b031615612c37575b50815462015180420491906001600160401b038084169160401c1680612bd5575050805463ffffffff60201b1916600160201b1790555b8154600160401b600160801b03191660409190911b600160401b600160801b0316179055565b818103612be3575050505050565b6001016001600160401b0381116110bf576001600160401b031603612c1e5780610ccc63ffffffff612c19935460201c166111e8565b612baf565b805463ffffffff60201b1916600160201b179055612baf565b600160801b600160c01b0319164260801b600160801b600160c01b03161782555f612b78565b60405163157e6ad160e21b8152600481018390525f919073__$e3a882f22bd04f7a2b17b0bf615ac922fd$__90602081602481855af4908115611323575f91612f18575b506115e55760015460405163d5b37a7f60e01b81526001600160a01b039091169060208180612cd4898860048401611217565b0381855afa908115611323575f91612ee6575b5080151580612ed0575b612cfd57505050505050565b612d078685612f48565b15612e2d575050602060249160405192838092636f143be160e01b82528860048301525af48015612e22578390612dee575b612d4491504261149f565b9160018060a01b036001541690813b156116e25780604051809363024a6d6d60e11b8252818381612d7a8a8c8b600485016114ac565b03925af19182612dd9575b5050612d9b575b5050505b5f8080808080612929565b6040519182526001600160a01b0316907f709768a937fa6c96f16d504e6ccd79ed0f7cec9890bc8caf66b974d8234b2b7290602090a35f8080612d8c565b612de4828092610f33565b6116e25780612d85565b506020813d602011612e1a575b81612e0860209383610f33565b8101031261015357612d449051612d39565b3d9150612dfb565b6040513d85823e3d90fd5b91509192504211612e41575b505050612d90565b803b15610153575f604051809263024a6d6d60e11b8252818381612e69898960048401612721565b03925af19081612ec0575b50612e80575b80612e39565b5f51602061332a5f395f51905f52606060405192602084526007602085015266115e1c1a5c995960ca1b604085015260018060a01b031692a35f80612e7a565b5f612eca91610f33565b5f612e74565b5062093a7f1981018181116110bf574211612cf1565b90506020813d602011612f10575b81612f0160209383610f33565b8101031261015357515f612ce7565b3d9150612ef4565b612f31915060203d60201161131c5761130e8183610f33565b5f612ca1565b60ff1660ff81146110bf5760010190565b60018060a01b031690815f52600260205260405f2060405190612f6a82610f03565b80549263ffffffff84168352602083019363ffffffff8160201c168552604084019463ffffffff8260401c168652606085019363ffffffff8360601c168552608086019763ffffffff8460801c16895260a087019563ffffffff8560a01c16875260c088019463ffffffff8160c01c16865260e01c60e089015260018301549360ff60026101008b019563ffffffff881687526101208c019763ffffffff8160201c1689528c61014060018060401b038360401c169101528c61016060018060401b038360801c1691015260c01c6101808d01520154166101a08a0152602060018060a01b036001541693602460405180968193630d47875d60e41b835260048301525afa928315611323575f936132c8575b505f51602061330a5f395f51905f5287146132ae575f5160206133ea5f395f51905f528714613294575f51602061348a5f395f51905f52871461327957505f51602061344a5f395f51905f52861461324a57505f5160206134ea5f395f51905f52851461323357505f51602061342a5f395f51905f52841461321b575f51602061346a5f395f51905f52841461320357505f51602061338a5f395f51905f5283146131ec57505f5160206134ca5f395f51905f5282146131d657505f51602061340a5f395f51905f521461315357505050505f90565b60039360ff9363ffffffff5f9451166131cd575b5163ffffffff166131b6575b5163ffffffff1661319f575b5163ffffffff16613191575b16101590565b61319a90612f37565b61318b565b906131ae63ffffffff91612f37565b91905061317f565b916131c563ffffffff91612f37565b929050613173565b60019350613167565b925050506005925063ffffffff91505116101590565b93505050506005925063ffffffff91505116101590565b9450505050506003925063ffffffff91505116101590565b505092505050600a925063ffffffff91505116101590565b95505050505050612328925061ffff915016101590565b95509750505050506064925063ffffffff915051161015908161326b575090565b6102bc915061ffff16101590565b975050505050505050601e925063ffffffff91505116101590565b505050505050505050600a915063ffffffff905116101590565b50505050505050506032925063ffffffff91505116101590565b6132e291935060203d602011611472576114648183610f33565b915f61307d56fecd25a284806e0931bbfbd59e48ca09094f95cc8a54899ac7cf670a7bc084e4c8fe3c33b66e28f14b3d890787766ee667031d474e01f41afd2282c6ddd242b13426d2c97c09cc1ae6ca58d6c5f71f9fe7f41b640abfc004802f040df1a8589b5996af6c1bc6b7426f6e19731efc05c031985ae6b78f7170092d703c7da8e444f5a0bb1af1c90aa52ed052b92714ff0087008cc720049bf1af77cca2600b31e80c9f56690334c710be9812966692e10c040bde4927265518b422c82505f65961ec7866cd9bf5624adbb572bdf0ef2c6611719c1bd1dd881d077900477122585f51a4d0d2188316f6d5aba43361a7ec054181c935cc0ed13d35943e0d099fd5fc891b4e571958fba4ea5c92407500c44c03a913f7a3c4f5746fc318ba401831b4e5a96fb0ea3366184fa9ef274bb2b523bb1410c5597f5b73e284bcc8d9c27caf81fe29986656bd77a1f0da32c9315bed40455567f6060bea388c123d4bafff845ac4f6113bf43fb59dba21ffee106d9126a16fd7ef738a99e9f98f3366a7bcd62822d441acdd22f4ae7f00407a46293dd53140dc9fa6beeef35e22cb018b264344d33d23312f0938ef21668aa46fd5bd7b72db718fcdd7e30d1e9db0ea46420720372cedd1d27b066a923b896eea7904ca9ef57e79d18aa00ae08d276de72c77b14ad701a62eb4bddf2c4f992ebf56952b66972847c21daeab6931b6b4aa89a4ebe426caaf9f537d800bdc663bd466690f26963dfd7bb0ed1ed5f323a945377dfca03d1a4a2c4366d3db0c7243a29eef9c5e849fe7328823e0b7288dab59d52310a2646970667358221220017c8670b31398daca77b59e99b510c099e27b67177615885f4574420d95aa7864736f6c634300081e0033","linkReferences":{"contracts/BadgeRegistry.sol":{"BadgeRegistry":[{"start":5649,"length":20},{"start":6462,"length":20},{"start":7256,"length":20},{"start":8050,"length":20},{"start":8844,"length":20},{"start":9618,"length":20},{"start":10479,"length":20},{"start":11606,"length":20}]}}},"methodIdentifiers":{"MAX_FOUNDING_MEMBERS()":"f220836f","MAX_PIONEERS()":"aea3b217","awardBadge(address,bytes32)":"615e5cae","awardFoundingMember(address)":"5521f9fe","awardPioneer(address)":"466d055f","dao()":"4162169f","foundingMemberCount()":"bdf03329","getBadgeProgress(address,bytes32)":"13cf93fb","getUserStats(address)":"4e43603a","operators(address)":"13e7c9d8","pioneerCount()":"c37f34ca","recordCommerceTx(address,bool)":"387b279c","recordContribution(address)":"05409f33","recordEducationalContent(address)":"283d6715","recordEndorsement(address)":"1d920985","recordFraudReport(address)":"85e8135c","recordGovernanceVote(address)":"e5b3d3ee","recordPresaleParticipation(address)":"77a0555c","recordReferral(address,bool)":"7fc49ea9","recordTranslation(address)":"41752096","revokeBadge(address,bytes32,string)":"6d134ac2","seer()":"2d55ea39","setDAO(address)":"e73a914c","setOperator(address,bool)":"558a7297","setSeer(address)":"e071c1c0","userStats(address)":"8a65d874"},"id":1}