{"abi":[{"type":"constructor","inputs":[{"name":"_dao","type":"address","internalType":"address"},{"name":"_seer","type":"address","internalType":"address"}],"stateMutability":"nonpayable"},{"type":"function","name":"MAX_FOUNDING_MEMBERS","inputs":[],"outputs":[{"name":"","type":"uint32","internalType":"uint32"}],"stateMutability":"view"},{"type":"function","name":"MAX_PIONEERS","inputs":[],"outputs":[{"name":"","type":"uint32","internalType":"uint32"}],"stateMutability":"view"},{"type":"function","name":"awardBadge","inputs":[{"name":"user","type":"address","internalType":"address"},{"name":"badge","type":"bytes32","internalType":"bytes32"}],"outputs":[],"stateMutability":"nonpayable"},{"type":"function","name":"awardFoundingMember","inputs":[{"name":"user","type":"address","internalType":"address"}],"outputs":[],"stateMutability":"nonpayable"},{"type":"function","name":"awardPioneer","inputs":[{"name":"user","type":"address","internalType":"address"}],"outputs":[],"stateMutability":"nonpayable"},{"type":"function","name":"dao","inputs":[],"outputs":[{"name":"","type":"address","internalType":"address"}],"stateMutability":"view"},{"type":"function","name":"foundingMemberCount","inputs":[],"outputs":[{"name":"","type":"uint32","internalType":"uint32"}],"stateMutability":"view"},{"type":"function","name":"getBadgeProgress","inputs":[{"name":"user","type":"address","internalType":"address"},{"name":"badge","type":"bytes32","internalType":"bytes32"}],"outputs":[{"name":"current","type":"uint32","internalType":"uint32"},{"name":"required","type":"uint32","internalType":"uint32"},{"name":"percentage","type":"uint8","internalType":"uint8"}],"stateMutability":"view"},{"type":"function","name":"getUserStats","inputs":[{"name":"user","type":"address","internalType":"address"}],"outputs":[{"name":"","type":"tuple","internalType":"struct BadgeManagerLite.UserStats","components":[{"name":"commerceTxCount","type":"uint32","internalType":"uint32"},{"name":"consecutiveDays","type":"uint32","internalType":"uint32"},{"name":"governanceVotes","type":"uint32","internalType":"uint32"},{"name":"successfulTrades","type":"uint32","internalType":"uint32"},{"name":"endorsementsReceived","type":"uint32","internalType":"uint32"},{"name":"referralsMade","type":"uint32","internalType":"uint32"},{"name":"referralsQualified","type":"uint32","internalType":"uint32"},{"name":"disputesMediated","type":"uint32","internalType":"uint32"},{"name":"fraudReports","type":"uint32","internalType":"uint32"},{"name":"educationalContent","type":"uint32","internalType":"uint32"},{"name":"lastActivityDay","type":"uint64","internalType":"uint64"},{"name":"firstActivity","type":"uint64","internalType":"uint64"},{"name":"lastScoreDropBelow700","type":"uint64","internalType":"uint64"},{"name":"flags","type":"uint8","internalType":"uint8"}]}],"stateMutability":"view"},{"type":"function","name":"operators","inputs":[{"name":"","type":"address","internalType":"address"}],"outputs":[{"name":"","type":"bool","internalType":"bool"}],"stateMutability":"view"},{"type":"function","name":"pioneerCount","inputs":[],"outputs":[{"name":"","type":"uint32","internalType":"uint32"}],"stateMutability":"view"},{"type":"function","name":"recordCommerceTx","inputs":[{"name":"user","type":"address","internalType":"address"},{"name":"successful","type":"bool","internalType":"bool"}],"outputs":[],"stateMutability":"nonpayable"},{"type":"function","name":"recordContribution","inputs":[{"name":"contributor","type":"address","internalType":"address"}],"outputs":[],"stateMutability":"nonpayable"},{"type":"function","name":"recordEducationalContent","inputs":[{"name":"creator","type":"address","internalType":"address"}],"outputs":[],"stateMutability":"nonpayable"},{"type":"function","name":"recordEndorsement","inputs":[{"name":"user","type":"address","internalType":"address"}],"outputs":[],"stateMutability":"nonpayable"},{"type":"function","name":"recordFraudReport","inputs":[{"name":"reporter","type":"address","internalType":"address"}],"outputs":[],"stateMutability":"nonpayable"},{"type":"function","name":"recordGovernanceVote","inputs":[{"name":"user","type":"address","internalType":"address"}],"outputs":[],"stateMutability":"nonpayable"},{"type":"function","name":"recordPresaleParticipation","inputs":[{"name":"user","type":"address","internalType":"address"}],"outputs":[],"stateMutability":"nonpayable"},{"type":"function","name":"recordReferral","inputs":[{"name":"referrer","type":"address","internalType":"address"},{"name":"qualified","type":"bool","internalType":"bool"}],"outputs":[],"stateMutability":"nonpayable"},{"type":"function","name":"recordTranslation","inputs":[{"name":"translator","type":"address","internalType":"address"}],"outputs":[],"stateMutability":"nonpayable"},{"type":"function","name":"revokeBadge","inputs":[{"name":"user","type":"address","internalType":"address"},{"name":"badge","type":"bytes32","internalType":"bytes32"},{"name":"reason","type":"string","internalType":"string"}],"outputs":[],"stateMutability":"nonpayable"},{"type":"function","name":"seer","inputs":[],"outputs":[{"name":"","type":"address","internalType":"contract Seer"}],"stateMutability":"view"},{"type":"function","name":"setDAO","inputs":[{"name":"newDAO","type":"address","internalType":"address"}],"outputs":[],"stateMutability":"nonpayable"},{"type":"function","name":"setOperator","inputs":[{"name":"operator","type":"address","internalType":"address"},{"name":"authorized","type":"bool","internalType":"bool"}],"outputs":[],"stateMutability":"nonpayable"},{"type":"function","name":"setSeer","inputs":[{"name":"newSeer","type":"address","internalType":"address"}],"outputs":[],"stateMutability":"nonpayable"},{"type":"function","name":"userStats","inputs":[{"name":"","type":"address","internalType":"address"}],"outputs":[{"name":"commerceTxCount","type":"uint32","internalType":"uint32"},{"name":"consecutiveDays","type":"uint32","internalType":"uint32"},{"name":"governanceVotes","type":"uint32","internalType":"uint32"},{"name":"successfulTrades","type":"uint32","internalType":"uint32"},{"name":"endorsementsReceived","type":"uint32","internalType":"uint32"},{"name":"referralsMade","type":"uint32","internalType":"uint32"},{"name":"referralsQualified","type":"uint32","internalType":"uint32"},{"name":"disputesMediated","type":"uint32","internalType":"uint32"},{"name":"fraudReports","type":"uint32","internalType":"uint32"},{"name":"educationalContent","type":"uint32","internalType":"uint32"},{"name":"lastActivityDay","type":"uint64","internalType":"uint64"},{"name":"firstActivity","type":"uint64","internalType":"uint64"},{"name":"lastScoreDropBelow700","type":"uint64","internalType":"uint64"},{"name":"flags","type":"uint8","internalType":"uint8"}],"stateMutability":"view"},{"type":"event","name":"BadgeEarned","inputs":[{"name":"user","type":"address","indexed":true,"internalType":"address"},{"name":"badge","type":"bytes32","indexed":true,"internalType":"bytes32"},{"name":"expiry","type":"uint256","indexed":false,"internalType":"uint256"},{"name":"scoreBoost","type":"uint16","indexed":false,"internalType":"uint16"}],"anonymous":false},{"type":"event","name":"BadgeRenewed","inputs":[{"name":"user","type":"address","indexed":true,"internalType":"address"},{"name":"badge","type":"bytes32","indexed":true,"internalType":"bytes32"},{"name":"newExpiry","type":"uint256","indexed":false,"internalType":"uint256"}],"anonymous":false},{"type":"event","name":"BadgeRevoked","inputs":[{"name":"user","type":"address","indexed":true,"internalType":"address"},{"name":"badge","type":"bytes32","indexed":true,"internalType":"bytes32"},{"name":"reason","type":"string","indexed":false,"internalType":"string"}],"anonymous":false},{"type":"event","name":"OperatorSet","inputs":[{"name":"operator","type":"address","indexed":true,"internalType":"address"},{"name":"authorized","type":"bool","indexed":false,"internalType":"bool"}],"anonymous":false},{"type":"event","name":"StatsUpdated","inputs":[{"name":"user","type":"address","indexed":true,"internalType":"address"},{"name":"metric","type":"string","indexed":false,"internalType":"string"},{"name":"newValue","type":"uint32","indexed":false,"internalType":"uint32"}],"anonymous":false},{"type":"error","name":"BM_NotDAO","inputs":[]},{"type":"error","name":"BM_NotOperator","inputs":[]},{"type":"error","name":"BM_Zero","inputs":[]}],"bytecode":{"object":"0x60803460b457601f61364038819003918201601f19168301916001600160401b0383118484101760b857808492604094855283398101031260b457604b602060458360cc565b920160cc565b906001600160a01b03168015801560a4575b60955760018060a01b03195f5416175f5560018060a01b031660018060a01b0319600154161760015560405161356090816100e08239f35b63dce3538560e01b5f5260045ffd5b506001600160a01b03821615605d565b5f80fd5b634e487b7160e01b5f52604160045260245ffd5b51906001600160a01b038216820360b45756fe60806040526004361015610011575f80fd5b5f3560e01c806305409f3314610e1d57806313cf93fb14610dd657806313e7c9d814610d995780631d92098514610d00578063283d671514610c635780632d55ea3914610c3b578063387b279c14610b575780634162169f14610b305780634175209614610a96578063466d055f14610a455780634e43603a146108015780635521f9fe146107b0578063558a729714610735578063615e5cae146106e05780636d134ac21461066857806377a0555c146105b05780637fc49ea9146104df57806385e8135c146104575780638a65d87414610353578063aea3b21714610337578063bdf0332914610312578063c37f34ca146102ef578063e071c1c0146102a0578063e5b3d3ee146101c0578063e73a914c146101575763f220836f14610137575f80fd5b34610153575f3660031901126101535760206040516103e88152f35b5f80fd5b3461015357602036600319011261015357610170610eb7565b5f54906001600160a01b03821633036101b1576001600160a01b03169081156101a2576001600160a01b031916175f55005b63dce3538560e01b5f5260045ffd5b63385b4f9160e21b5f5260045ffd5b34610153576020366003190112610153576101d9610eb7565b5f546001600160a01b031633141580610289575b61027a575f51602061334b5f395f51905f52608063ffffffff60018060a01b03841693845f52600260205261025060405f209182548460401b610234868360401c166111e1565b60401b16908560401b191617835561024b81612b3e565b61296e565b5460401c1660405190604082526005604083015264766f74657360d81b60608301526020820152a2005b63ed1f1d8d60e01b5f5260045ffd5b50335f52600360205260ff60405f205416156101ed565b34610153576020366003190112610153576102b9610eb7565b5f546001600160a01b031633036101b1576001600160a01b031680156101a257600180546001600160a01b031916919091179055005b34610153575f36600319011261015357602063ffffffff60045416604051908152f35b34610153575f36600319011261015357602063ffffffff600454821c16604051908152f35b34610153575f3660031901126101535760206040516127108152f35b34610153576020366003190112610153576001600160a01b03610374610eb7565b165f5260026020526101c060405f2080549060ff6002600183015492015416906040519263ffffffff8116845263ffffffff8160201c16602085015263ffffffff8160401c16604085015263ffffffff8160601c16606085015263ffffffff8160801c16608085015263ffffffff8160a01c1660a085015263ffffffff8160c01c1660c085015260e01c60e084015263ffffffff811661010084015263ffffffff8160201c166101208401526001600160401b038160401c166101408401526001600160401b038160801c1661016084015260c01c6101808301526101a0820152f35b3461015357602036600319011261015357610470610eb7565b5f546001600160a01b0316331415806104c8575b61027a576104c69060018060a01b0381165f526002602052600160405f200163ffffffff6104b4818354166111e1565b1663ffffffff1982541617905561296e565b005b50335f52600360205260ff60405f20541615610484565b34610153576104ed36610ecd565b9060018060a01b035f541633141580610599575b61027a576001600160a01b0381165f90815260026020526040902080546104c69363ffffffff60a01b61053d60a084901c63ffffffff166111e1565b60a01b16908163ffffffff60a01b198416179081855561055f575b858561296e565b63ffffffff60c01b9061057a9060c01c63ffffffff166111e1565b60c01b16916001600160401b0360a01b19161717905582808080610558565b50335f52600360205260ff60405f20541615610501565b34610153576020366003190112610153576105c9610eb7565b5f546001600160a01b031633141580610651575b61027a5760018060a01b0381165f526002602052600260405f20018054600181161561060557005b8154600160ff9290921660ff19909116171790555f546001600160a01b03163314158061063a575b61027a576104c690611b11565b50335f52600360205260ff60405f2054161561062d565b50335f52600360205260ff60405f205416156105dd565b3461015357606036600319011261015357610681610eb7565b604435906001600160401b0382116101535736602383011215610153578160040135906001600160401b038211610153573660248385010111610153575f546001600160a01b031633036101b15760246104c693019060243590612762565b34610153576040366003190112610153576106f9610eb7565b5f546001600160a01b03163314158061071e575b61027a576104c6906024359061245f565b50335f52600360205260ff60405f2054161561070d565b346101535761074336610ecd565b5f549091906001600160a01b031633036101b1576001600160a01b03169081156101a25760207f1a594081ae893ab78e67d9b9e843547318164322d32c65369d78a96172d9dc8f91835f526003825260405f209015159060ff1981541660ff8316179055604051908152a2005b34610153576020366003190112610153576107c9610eb7565b5f546001600160a01b0316331415806107ea575b61027a576104c690611341565b50335f52600360205260ff60405f205416156107dd565b346101535760203660031901126101535761081a610eb7565b60405161082681610efc565b5f8152602081015f9052604081015f9052606081015f9052608081015f905260a081015f905260c081015f905260e081015f905261010081015f905261012081015f905261014081015f905261016081015f905261018081015f90526101a0015f9052600160a01b60019003165f52600260205260405f206040516108aa81610efc565b815463ffffffff81169283835260208301938260201c63ffffffff168552604084018360401c63ffffffff168152606085018460601c63ffffffff16815260808601948060801c63ffffffff16865260a087018160a01c63ffffffff16815260c08801908260c01c63ffffffff16825260e089019260e01c83526001870154976101008a019463ffffffff8a1686526101208b01968a60201c63ffffffff1688526101408c01988b60401c6001600160401b03168a526101608d019a8d8d60801c6001600160401b03168d52610180019c60c01c8d526002015460ff169c6101a0019c8d526040519d8e9182525163ffffffff1690602001525163ffffffff1660408d01525163ffffffff1660608c01525163ffffffff1660808b01525163ffffffff1660a08a01525163ffffffff1660c08901525163ffffffff1660e08801525163ffffffff166101008701525163ffffffff16610120860152516001600160401b0316610140850152516001600160401b0316610160840152516001600160401b03166101808301525160ff166101a08201526101c090f35b3461015357602036600319011261015357610a5e610eb7565b5f546001600160a01b031633141580610a7f575b61027a576104c69061122b565b50335f52600360205260ff60405f20541615610a72565b3461015357602036600319011261015357610aaf610eb7565b5f546001600160a01b031633036101b15760018060a01b0381165f526002602052600260405f200180546004811615610ae457005b8154600460ff9290921660ff19909116171790555f546001600160a01b031633141580610b19575b61027a576104c6906117f7565b50335f52600360205260ff60405f20541615610b0c565b34610153575f366003190112610153575f546040516001600160a01b039091168152602090f35b3461015357610b6536610ecd565b5f546001600160a01b031633141580610c24575b61027a57608063ffffffff5f51602061334b5f395f51905f5292610bd160018060a01b03861695865f52600260205260405f209284610bba818654166111e1565b168519855416178455610bfd575b61024b81612b3e565b54166040519060408252600a6040830152690c6dedadacae4c6caa8f60b31b60608301526020820152a2005b82548460601b610c11868360601c166111e1565b60601b16908560601b1916178355610bc8565b50335f52600360205260ff60405f20541615610b79565b34610153575f366003190112610153576001546040516001600160a01b039091168152602090f35b3461015357602036600319011261015357610c7c610eb7565b5f546001600160a01b031633141580610ce9575b61027a576104c69060018060a01b0381165f52600260205261024b600160405f2001610cc563ffffffff825460201c166111e1565b90805463ffffffff60201b191660209290921b63ffffffff60201b16919091179055565b50335f52600360205260ff60405f20541615610c90565b3461015357602036600319011261015357610d19610eb7565b5f546001600160a01b031633141580610d82575b61027a576001600160a01b0381165f90815260026020526040902080546104c692919063ffffffff60801b610d6b608083901c63ffffffff166111e1565b60801b169063ffffffff60801b191617905561296e565b50335f52600360205260ff60405f20541615610d2d565b34610153576020366003190112610153576001600160a01b03610dba610eb7565b165f526003602052602060ff60405f2054166040519015158152f35b3461015357604036600319011261015357606063ffffffff60ff610e04610dfb610eb7565b60243590610f4d565b9193908160405195168552166020840152166040820152f35b3461015357602036600319011261015357610e36610eb7565b5f546001600160a01b031633036101b15760018060a01b0381165f526002602052600260405f200180546002811615610e6b57005b8154600260ff9290921660ff19909116171790555f546001600160a01b031633141580610ea0575b61027a576104c6906114ca565b50335f52600360205260ff60405f20541615610e93565b600435906001600160a01b038216820361015357565b6040906003190112610153576004356001600160a01b0381168103610153579060243580151581036101535790565b6101c081019081106001600160401b03821117610f1857604052565b634e487b7160e01b5f52604160045260245ffd5b90601f801991011681019081106001600160401b03821117610f1857604052565b60018060a01b03165f52600260205260405f2060405190610f6d82610efc565b80549263ffffffff84169384845263ffffffff8160201c169283602086015263ffffffff8260401c169485604082015263ffffffff8360601c169384606083015263ffffffff8460801c16608083015263ffffffff8460a01c1660a083015263ffffffff8460c01c16938460c084015260e01c60e08301526001830154916101a060ff600263ffffffff8616968761010086015263ffffffff8760201c1696876101208701526001600160401b038160401c166101408701526001600160401b038160801c1661016087015260c01c6101808601520154169101525f51602061330b5f395f51905f5281145f146110cc5750505050505050603290915b63ffffffff838116908316808210611083575050606490565b6064820291808304606414901517156110b85780156110a45760ff91041690565b634e487b7160e01b5f52601260045260245ffd5b634e487b7160e01b5f52601160045260245ffd5b90919293949596505f5160206133eb5f395f51905f5281145f146110f957505050505050600a909161106a565b909192939495505f51602061348b5f395f51905f5281145f14611124575050505050601e909161106a565b9091929394505f51602061344b5f395f51905f5281145f1461114d57505050506064909161106a565b92935090915f51602061342b5f395f51905f52810361117257505050600a909161106a565b919290915f51602061346b5f395f51905f528103611196575050506003909161106a565b919250905f51602061338b5f395f51905f5281036111b95750506005909161106a565b9091505f5160206134cb5f395f51905f52036111d8576005909161106a565b505f905f905f90565b63ffffffff1663ffffffff81146110b85760010190565b90816020910312610153575180151581036101535790565b6001600160a01b039091168152602081019190915260400190565b60045463ffffffff81166127108110156112e857600154604051630e05e5d560e21b81526001600160a01b0385811660048301525f51602061350b5f395f51905f526024830152909160209183916044918391165afa90811561131c575f916112ed575b506112e8576112a263ffffffff916111e1565b169063ffffffff19161760045560018060a01b035f5416331415806112d1575b61027a576112cf90611e2b565b565b50335f52600360205260ff60405f205416156112c2565b505050565b61130f915060203d602011611315575b6113078183610f2c565b8101906111f8565b5f61128f565b503d6112fd565b6040513d5f823e3d90fd5b90816020910312610153575161ffff811681036101535790565b60045463ffffffff8160201c166103e88110156112e857600154604051630e05e5d560e21b81526001600160a01b03858116600483018190525f5160206132eb5f395f51905f52602484015292169190602081604481865afa90811561131c575f91611479575b5061147257602090602460405180948193630d47875d60e41b835260048301525afa90811561131c57611f409161ffff915f91611443575b5016106112e85763ffffffff60201b906113f9906111e1565b60201b169063ffffffff60201b19161760045560018060a01b035f54163314158061142c575b61027a576112cf90612145565b50335f52600360205260ff60405f2054161561141f565b611465915060203d60201161146b575b61145d8183610f2c565b810190611327565b5f6113e0565b503d611453565b5050505050565b611492915060203d602011611315576113078183610f2c565b5f6113a8565b919082018092116110b857565b606091949392608082019560018060a01b031682526020820152600160408201520152565b600154604051630e05e5d560e21b81526001600160a01b03808416600483018190525f51602061336b5f395f51905f526024840152935f9390929160209183916044918391165afa90811561131c575f916117d8575b506117be57505f9073__$e3a882f22bd04f7a2b17b0bf615ac922fd$__60405163157e6ad160e21b81525f51602061336b5f395f51905f526004820152602081602481855af490811561131c575f9161179f575b5015611721575b6001546001600160a01b0316803b156101535760405163024a6d6d60e11b8152600481018690525f51602061336b5f395f51905f5260248201526001604482015260648101859052905f908290608490829084905af1908161170c575b506115e4575b50505050565b602060249160405192838092630737fee160e41b82525f51602061336b5f395f51905f5260048301525af4908115611701579061ffff9183916116e2575b50169081611661575b5060405f51602061336b5f395f51905f5293925f5160206133cb5f395f51905f529282519182526020820152a35f8080806115de565b6001546001600160a01b0316803b156116de5781809160a460405180948193630eccbd3560e11b83528a600484015288602484015260606044840152600c60648401526b10985919d94819585c9b995960a21b60848401525af16116c6575b5061162b565b6116d1828092610f2c565b6116db57806116c0565b80fd5b5080fd5b6116fb915060203d60201161146b5761145d8183610f2c565b5f611622565b6040513d84823e3d90fd5b6117199193505f90610f2c565b5f915f6115d8565b604051636f143be160e01b81525f51602061336b5f395f51905f526004820152909250602081602481865af4801561131c575f9061176b575b611765915042611498565b9161157b565b506020813d602011611797575b8161178560209383610f2c565b8101031261015357611765905161175a565b3d9150611778565b6117b8915060203d602011611315576113078183610f2c565b5f611574565b6112cf92505f51602061336b5f395f51905f529150612c5c565b6117f1915060203d602011611315576113078183610f2c565b5f611520565b600154604051630e05e5d560e21b81526001600160a01b03808416600483018190525f5160206134ab5f395f51905f526024840152935f9390929160209183916044918391165afa90811561131c575f91611af2575b50611ad857505f9073__$e3a882f22bd04f7a2b17b0bf615ac922fd$__60405163157e6ad160e21b81525f5160206134ab5f395f51905f526004820152602081602481855af490811561131c575f91611ab9575b5015611a3b575b6001546001600160a01b0316803b156101535760405163024a6d6d60e11b8152600481018690525f5160206134ab5f395f51905f5260248201526001604482015260648101859052905f908290608490829084905af19081611a26575b506119105750505050565b602060249160405192838092630737fee160e41b82525f5160206134ab5f395f51905f5260048301525af4908115611701579061ffff918391611a07575b5016908161198d575b5060405f5160206134ab5f395f51905f5293925f5160206133cb5f395f51905f529282519182526020820152a35f8080806115de565b6001546001600160a01b0316803b156116de5781809160a460405180948193630eccbd3560e11b83528a600484015288602484015260606044840152600c60648401526b10985919d94819585c9b995960a21b60848401525af16119f2575b50611957565b6119fd828092610f2c565b6116db57806119ec565b611a20915060203d60201161146b5761145d8183610f2c565b5f61194e565b611a339193505f90610f2c565b5f915f611905565b604051636f143be160e01b81525f5160206134ab5f395f51905f526004820152909250602081602481865af4801561131c575f90611a85575b611a7f915042611498565b916118a8565b506020813d602011611ab1575b81611a9f60209383610f2c565b8101031261015357611a7f9051611a74565b3d9150611a92565b611ad2915060203d602011611315576113078183610f2c565b5f6118a1565b6112cf92505f5160206134ab5f395f51905f529150612c5c565b611b0b915060203d602011611315576113078183610f2c565b5f61184d565b600154604051630e05e5d560e21b81526001600160a01b03808416600483018190525f5160206133ab5f395f51905f526024840152935f9390929160209183916044918391165afa90811561131c575f91611e0c575b50611df257505f9073__$e3a882f22bd04f7a2b17b0bf615ac922fd$__60405163157e6ad160e21b81525f5160206133ab5f395f51905f526004820152602081602481855af490811561131c575f91611dd3575b5015611d55575b6001546001600160a01b0316803b156101535760405163024a6d6d60e11b8152600481018690525f5160206133ab5f395f51905f5260248201526001604482015260648101859052905f908290608490829084905af19081611d40575b50611c2a5750505050565b602060249160405192838092630737fee160e41b82525f5160206133ab5f395f51905f5260048301525af4908115611701579061ffff918391611d21575b50169081611ca7575b5060405f5160206133ab5f395f51905f5293925f5160206133cb5f395f51905f529282519182526020820152a35f8080806115de565b6001546001600160a01b0316803b156116de5781809160a460405180948193630eccbd3560e11b83528a600484015288602484015260606044840152600c60648401526b10985919d94819585c9b995960a21b60848401525af1611d0c575b50611c71565b611d17828092610f2c565b6116db5780611d06565b611d3a915060203d60201161146b5761145d8183610f2c565b5f611c68565b611d4d9193505f90610f2c565b5f915f611c1f565b604051636f143be160e01b81525f5160206133ab5f395f51905f526004820152909250602081602481865af4801561131c575f90611d9f575b611d99915042611498565b91611bc2565b506020813d602011611dcb575b81611db960209383610f2c565b8101031261015357611d999051611d8e565b3d9150611dac565b611dec915060203d602011611315576113078183610f2c565b5f611bbb565b6112cf92505f5160206133ab5f395f51905f529150612c5c565b611e25915060203d602011611315576113078183610f2c565b5f611b67565b600154604051630e05e5d560e21b81526001600160a01b03808416600483018190525f51602061350b5f395f51905f526024840152935f9390929160209183916044918391165afa90811561131c575f91612126575b5061210c57505f9073__$e3a882f22bd04f7a2b17b0bf615ac922fd$__60405163157e6ad160e21b81525f51602061350b5f395f51905f526004820152602081602481855af490811561131c575f916120ed575b501561206f575b6001546001600160a01b0316803b156101535760405163024a6d6d60e11b8152600481018690525f51602061350b5f395f51905f5260248201526001604482015260648101859052905f908290608490829084905af1908161205a575b50611f445750505050565b602060249160405192838092630737fee160e41b82525f51602061350b5f395f51905f5260048301525af4908115611701579061ffff91839161203b575b50169081611fc1575b5060405f51602061350b5f395f51905f5293925f5160206133cb5f395f51905f529282519182526020820152a35f8080806115de565b6001546001600160a01b0316803b156116de5781809160a460405180948193630eccbd3560e11b83528a600484015288602484015260606044840152600c60648401526b10985919d94819585c9b995960a21b60848401525af1612026575b50611f8b565b612031828092610f2c565b6116db5780612020565b612054915060203d60201161146b5761145d8183610f2c565b5f611f82565b6120679193505f90610f2c565b5f915f611f39565b604051636f143be160e01b81525f51602061350b5f395f51905f526004820152909250602081602481865af4801561131c575f906120b9575b6120b3915042611498565b91611edc565b506020813d6020116120e5575b816120d360209383610f2c565b81010312610153576120b390516120a8565b3d91506120c6565b612106915060203d602011611315576113078183610f2c565b5f611ed5565b6112cf92505f51602061350b5f395f51905f529150612c5c565b61213f915060203d602011611315576113078183610f2c565b5f611e81565b600154604051630e05e5d560e21b81526001600160a01b03808416600483018190525f5160206132eb5f395f51905f526024840152935f9390929160209183916044918391165afa90811561131c575f91612440575b5061242657505f9073__$e3a882f22bd04f7a2b17b0bf615ac922fd$__60405163157e6ad160e21b81525f5160206132eb5f395f51905f526004820152602081602481855af490811561131c575f91612407575b5015612389575b6001546001600160a01b0316803b156101535760405163024a6d6d60e11b8152600481018690525f5160206132eb5f395f51905f5260248201526001604482015260648101859052905f908290608490829084905af19081612374575b5061225e5750505050565b602060249160405192838092630737fee160e41b82525f5160206132eb5f395f51905f5260048301525af4908115611701579061ffff918391612355575b501690816122db575b5060405f5160206132eb5f395f51905f5293925f5160206133cb5f395f51905f529282519182526020820152a35f8080806115de565b6001546001600160a01b0316803b156116de5781809160a460405180948193630eccbd3560e11b83528a600484015288602484015260606044840152600c60648401526b10985919d94819585c9b995960a21b60848401525af1612340575b506122a5565b61234b828092610f2c565b6116db578061233a565b61236e915060203d60201161146b5761145d8183610f2c565b5f61229c565b6123819193505f90610f2c565b5f915f612253565b604051636f143be160e01b81525f5160206132eb5f395f51905f526004820152909250602081602481865af4801561131c575f906123d3575b6123cd915042611498565b916121f6565b506020813d6020116123ff575b816123ed60209383610f2c565b81010312610153576123cd90516123c2565b3d91506123e0565b612420915060203d602011611315576113078183610f2c565b5f6121ef565b6112cf92505f5160206132eb5f395f51905f529150612c5c565b612459915060203d602011611315576113078183610f2c565b5f61219b565b600154604051630e05e5d560e21b81525f929160209082908180612487898860048401611210565b03916001600160a01b03165afa90811561131c575f916126fb575b506126f0575f9173__$e3a882f22bd04f7a2b17b0bf615ac922fd$__60405163157e6ad160e21b8152856004820152602081602481855af490811561131c575f916126d1575b5015612661575b6001546001600160a01b0316803b15610153575f604051809263024a6d6d60e11b82528183816125248b8d8c600485016114a5565b03925af1908161264c575b5061253b575050505050565b602060249160405192838092630737fee160e41b82528960048301525af4908115611701579061ffff91839161262d575b501690816125a6575b505f5160206133cb5f395f51905f52916040918251948552602085015260018060a01b031692a35f80808080611472565b6001546001600160a01b0316803b156116de57604051630eccbd3560e11b81526001600160a01b03851660048201526024810184905260606044820152600c60648201526b10985919d94819585c9b995960a21b6084820152908290829060a490829084905af1612618575b50612575565b612623828092610f2c565b6116db5780612612565b612646915060203d60201161146b5761145d8183610f2c565b5f61256c565b6126599193505f90610f2c565b5f915f61252f565b9250604051636f143be160e01b8152846004820152602081602481875af4801561131c575f9061269d575b612697915042611498565b926124ef565b506020813d6020116126c9575b816126b760209383610f2c565b8101031261015357612697905161268c565b3d91506126aa565b6126ea915060203d602011611315576113078183610f2c565b5f6124e8565b6112cf929150612c5c565b612714915060203d602011611315576113078183610f2c565b5f6124a2565b6001600160a01b03909116815260208101919091525f60408201819052606082015260800190565b908060209392818452848401375f828201840152601f01601f1916010190565b600154604051630e05e5d560e21b8152929493925f916001600160a01b031690602081806127948a8860048401611210565b0381855afa90811561131c575f9161292a575b501561292257803b15610153575f604051809263024a6d6d60e11b82528183816127d58c8a6004840161271a565b03925af1908161290d575b506127ec575050505050565b604051630737fee160e41b81526004810186905260208160248173__$e3a882f22bd04f7a2b17b0bf615ac922fd$__5af4908115611701579061ffff9183916128ee575b501680612877575b5050905f51602061332b5f395f51905f529161286a6040519283926020845260018060a01b0316956020840191612742565b0390a35f80808080611472565b6001546001600160a01b031690813b156128ea5760405163031879a760e21b81526001600160a01b038516600482015260248101919091526060604482015290829082908183816128cc606482018c8c612742565b03925af115612838576128e0828092610f2c565b6116db5780612838565b8280fd5b612907915060203d60201161146b5761145d8183610f2c565b5f612830565b61291a9192505f90610f2c565b5f905f6127e0565b505050505050565b612943915060203d602011611315576113078183610f2c565b5f6127a7565b90600a81101561295a5760051b0190565b634e487b7160e01b5f52603260045260245ffd5b60405161014081018181106001600160401b03821117610f18576040525f51602061330b5f395f51905f5281525f5160206133eb5f395f51905f5260208201525f51602061340b5f395f51905f5260408201525f51602061348b5f395f51905f5260608201525f51602061344b5f395f51905f5260808201525f5160206134eb5f395f51905f5260a08201525f51602061342b5f395f51905f5260c08201525f51602061346b5f395f51905f5260e08201525f51602061338b5f395f51905f526101008201525f5160206134cb5f395f51905f526101208201525f5b600a8110612a5757505050565b600154612a92906020906001600160a01b0316612a748486612949565b51906040518080958194630e05e5d560e21b83528a60048401611210565b03915afa90811561131c575f91612b20575b501580612b06575b612ab9575b600101612a4a565b612ac38183612949565b519060018060a01b035f541633141580612aef575b61027a57612ae86001928561245f565b9050612ab1565b50335f52600360205260ff60405f20541615612ad8565b50612b1b612b148284612949565b5184612f47565b612aac565b612b38915060203d8111611315576113078183610f2c565b5f612aa4565b60018060a01b03165f52600260205260405f20600181019081546001600160401b038160801c1615612c34575b50620151804204906001600160401b0382166001600160401b03845460401c1680155f14612bd2575050805463ffffffff60201b1916600160201b1790555b815467ffffffffffffffff60401b191660409190911b67ffffffffffffffff60401b16179055565b818103612be0575050505050565b6001016001600160401b0381116110b8576001600160401b031603612c1b5780610cc563ffffffff612c16935460201c166111e1565b612baa565b805463ffffffff60201b1916600160201b179055612baa565b67ffffffffffffffff60801b19164260801b67ffffffffffffffff60801b161782555f612b6b565b60405163157e6ad160e21b8152600481018390525f919073__$e3a882f22bd04f7a2b17b0bf615ac922fd$__90602081602481855af490811561131c575f91612f17575b506115de5760015460405163d5b37a7f60e01b81526001600160a01b039091169060208180612cd3898860048401611210565b0381855afa90811561131c575f91612ee5575b5080151580612ecf575b612cfc57505050505050565b612d068685612f47565b15612e2c575050602060249160405192838092636f143be160e01b82528860048301525af48015612e21578390612ded575b612d43915042611498565b9160018060a01b036001541690813b156116db5780604051809363024a6d6d60e11b8252818381612d798a8c8b600485016114a5565b03925af19182612dd8575b5050612d9a575b5050505b5f8080808080612922565b6040519182526001600160a01b0316907f709768a937fa6c96f16d504e6ccd79ed0f7cec9890bc8caf66b974d8234b2b7290602090a35f8080612d8b565b612de3828092610f2c565b6116db5780612d84565b506020813d602011612e19575b81612e0760209383610f2c565b8101031261015357612d439051612d38565b3d9150612dfa565b6040513d85823e3d90fd5b91509192504211612e40575b505050612d8f565b803b15610153575f604051809263024a6d6d60e11b8252818381612e6889896004840161271a565b03925af19081612ebf575b50612e7f575b80612e38565b5f51602061332b5f395f51905f52606060405192602084526007602085015266115e1c1a5c995960ca1b604085015260018060a01b031692a35f80612e79565b5f612ec991610f2c565b5f612e73565b5062093a7f1981018181116110b8574211612cf0565b90506020813d602011612f0f575b81612f0060209383610f2c565b8101031261015357515f612ce6565b3d9150612ef3565b612f30915060203d602011611315576113078183610f2c565b5f612ca0565b60ff1660ff81146110b85760010190565b60018060a01b031690815f52600260205260405f2060405190612f6982610efc565b80549263ffffffff84168352602083019363ffffffff8160201c168552604084019463ffffffff8260401c168652606085019363ffffffff8360601c168552608086019763ffffffff8460801c16895260a087019563ffffffff8560a01c16875260c088019463ffffffff8160c01c16865260e01c60e089015260018301549360ff60026101008b019563ffffffff881687526101208c019763ffffffff8160201c1689528c6101406001600160401b038360401c169101528c6101606001600160401b038360801c1691015260c01c6101808d01520154166101a08a0152602060018060a01b036001541693602460405180968193630d47875d60e41b835260048301525afa92831561131c575f936132c9575b505f51602061330b5f395f51905f5287146132af575f5160206133eb5f395f51905f528714613295575f51602061348b5f395f51905f52871461327a57505f51602061344b5f395f51905f52861461324b57505f5160206134eb5f395f51905f52851461323457505f51602061342b5f395f51905f52841461321c575f51602061346b5f395f51905f52841461320457505f51602061338b5f395f51905f5283146131ed57505f5160206134cb5f395f51905f5282146131d757505f51602061340b5f395f51905f521461315457505050505f90565b60039360ff9363ffffffff5f9451166131ce575b5163ffffffff166131b7575b5163ffffffff166131a0575b5163ffffffff16613192575b16101590565b61319b90612f36565b61318c565b906131af63ffffffff91612f36565b919050613180565b916131c663ffffffff91612f36565b929050613174565b60019350613168565b925050506005925063ffffffff91505116101590565b93505050506005925063ffffffff91505116101590565b9450505050506003925063ffffffff91505116101590565b505092505050600a925063ffffffff91505116101590565b95505050505050612328925061ffff915016101590565b95509750505050506064925063ffffffff915051161015908161326c575090565b6102bc915061ffff16101590565b975050505050505050601e925063ffffffff91505116101590565b505050505050505050600a915063ffffffff905116101590565b50505050505050506032925063ffffffff91505116101590565b6132e391935060203d60201161146b5761145d8183610f2c565b915f61307e56fecd25a284806e0931bbfbd59e48ca09094f95cc8a54899ac7cf670a7bc084e4c8fe3c33b66e28f14b3d890787766ee667031d474e01f41afd2282c6ddd242b13426d2c97c09cc1ae6ca58d6c5f71f9fe7f41b640abfc004802f040df1a8589b5996af6c1bc6b7426f6e19731efc05c031985ae6b78f7170092d703c7da8e444f5a0bb1af1c90aa52ed052b92714ff0087008cc720049bf1af77cca2600b31e80c9f56690334c710be9812966692e10c040bde4927265518b422c82505f65961ec7866cd9bf5624adbb572bdf0ef2c6611719c1bd1dd881d077900477122585f51a4d0d2188316f6d5aba43361a7ec054181c935cc0ed13d35943e0d099fd5fc891b4e571958fba4ea5c92407500c44c03a913f7a3c4f5746fc318ba401831b4e5a96fb0ea3366184fa9ef274bb2b523bb1410c5597f5b73e284bcc8d9c27caf81fe29986656bd77a1f0da32c9315bed40455567f6060bea388c123d4bafff845ac4f6113bf43fb59dba21ffee106d9126a16fd7ef738a99e9f98f3366a7bcd62822d441acdd22f4ae7f00407a46293dd53140dc9fa6beeef35e22cb018b264344d33d23312f0938ef21668aa46fd5bd7b72db718fcdd7e30d1e9db0ea46420720372cedd1d27b066a923b896eea7904ca9ef57e79d18aa00ae08d276de72c77b14ad701a62eb4bddf2c4f992ebf56952b66972847c21daeab6931b6b4aa89a4ebe426caaf9f537d800bdc663bd466690f26963dfd7bb0ed1ed5f323a945377dfca03d1a4a2c4366d3db0c7243a29eef9c5e849fe7328823e0b7288dab59d52310a2646970667358221220070b66054b5e0d015ee6ebbc10bc252036117bdfd183019a0a750385e9d881fd64736f6c634300081e0033","linkReferences":{"contracts/BadgeRegistry.sol":{"BadgeRegistry":[{"start":5642,"length":20},{"start":6455,"length":20},{"start":7249,"length":20},{"start":8043,"length":20},{"start":8837,"length":20},{"start":9611,"length":20},{"start":10472,"length":20},{"start":11605,"length":20}]}}},"methodIdentifiers":{"MAX_FOUNDING_MEMBERS()":"f220836f","MAX_PIONEERS()":"aea3b217","awardBadge(address,bytes32)":"615e5cae","awardFoundingMember(address)":"5521f9fe","awardPioneer(address)":"466d055f","dao()":"4162169f","foundingMemberCount()":"bdf03329","getBadgeProgress(address,bytes32)":"13cf93fb","getUserStats(address)":"4e43603a","operators(address)":"13e7c9d8","pioneerCount()":"c37f34ca","recordCommerceTx(address,bool)":"387b279c","recordContribution(address)":"05409f33","recordEducationalContent(address)":"283d6715","recordEndorsement(address)":"1d920985","recordFraudReport(address)":"85e8135c","recordGovernanceVote(address)":"e5b3d3ee","recordPresaleParticipation(address)":"77a0555c","recordReferral(address,bool)":"7fc49ea9","recordTranslation(address)":"41752096","revokeBadge(address,bytes32,string)":"6d134ac2","seer()":"2d55ea39","setDAO(address)":"e73a914c","setOperator(address,bool)":"558a7297","setSeer(address)":"e071c1c0","userStats(address)":"8a65d874"},"id":1}