{"abi":[{"type":"constructor","inputs":[{"name":"owner_","type":"address","internalType":"address"},{"name":"vault_","type":"address","internalType":"address"},{"name":"status_","type":"uint8","internalType":"uint8"}],"stateMutability":"nonpayable"},{"type":"function","name":"info","inputs":[{"name":"","type":"address","internalType":"address"}],"outputs":[{"name":"","type":"tuple","internalType":"struct MerchantRegistryMock.Merchant","components":[{"name":"owner","type":"address","internalType":"address"},{"name":"vault","type":"address","internalType":"address"},{"name":"status","type":"uint8","internalType":"enum MerchantRegistryMock.Status"},{"name":"refunds","type":"uint32","internalType":"uint32"},{"name":"disputes","type":"uint32","internalType":"uint32"},{"name":"metaHash","type":"bytes32","internalType":"bytes32"}]}],"stateMutability":"view"},{"type":"function","name":"m","inputs":[],"outputs":[{"name":"owner","type":"address","internalType":"address"},{"name":"vault","type":"address","internalType":"address"},{"name":"status","type":"uint8","internalType":"enum MerchantRegistryMock.Status"},{"name":"refunds","type":"uint32","internalType":"uint32"},{"name":"disputes","type":"uint32","internalType":"uint32"},{"name":"metaHash","type":"bytes32","internalType":"bytes32"}],"stateMutability":"view"},{"type":"function","name":"setMerchant","inputs":[{"name":"owner_","type":"address","internalType":"address"},{"name":"vault_","type":"address","internalType":"address"},{"name":"status_","type":"uint8","internalType":"uint8"}],"outputs":[],"stateMutability":"nonpayable"}],"bytecode":{"object":"0x6080346100e057601f6103cc38819003918201601f19168301916001600160401b038311848410176100e4578084926060946040528339810103126100e057610047816100f8565b906040610056602083016100f8565b9101519160ff8316908184036100e0575f80546001600160a01b0319166001600160a01b039290921691909117905560015490600411156100cc5760a09290921b60ff60a01b166001600160e81b03199092166001600160a01b0390911617176001555f6002556040516102bf908161010d8239f35b634e487b7160e01b5f52602160045260245ffd5b5f80fd5b634e487b7160e01b5f52604160045260245ffd5b51906001600160a01b03821682036100e05756fe60806040526004361015610011575f80fd5b5f3560e01c80630aae7a6b146101415780635a2ee019146100d85763dcfb0a321461003a575f80fd5b346100d45760603660031901126100d457610053610232565b6024356001600160a01b038116908190036100d45760443560ff8116928382036100d45760018060a01b03166bffffffffffffffffffffffff60a01b5f5416175f5560046001549310156100c0576001600160a81b03199092161760a09190911b60ff60a01b1617600155005b634e487b7160e01b5f52602160045260245ffd5b5f80fd5b346100d4575f3660031901126100d4575f54600154600254604080516001600160a01b039485168152938316602085015260c0939263ffffffff9161012690850160a083901c60ff16610248565b818160a81c16606085015260c81c16608083015260a0820152f35b346100d45760203660031901126100d45761015a610232565b505f60a0610166610255565b828152826020820152826040820152826060820152826080820152015261018b610255565b5f546001600160a01b0390811682526001549081166020830190815260a082901c60ff169291604083019060048510156100c05763ffffffff8260c09682945261021c6060870191838560a81c16835283608089019560c81c1685526002549660a089019788526040519860018060a01b03905116895260018060a01b039051166020890152516040880190610248565b51166060850152511660808301525160a0820152f35b600435906001600160a01b03821682036100d457565b9060048210156100c05752565b6040519060c0820182811067ffffffffffffffff82111761027557604052565b634e487b7160e01b5f52604160045260245ffdfea264697066735822122063bb6d39d23010ab9fd77a0e93a78afc6362a8700cdb7a17a14350025bbad6cd64736f6c634300081e0033","linkReferences":{}},"methodIdentifiers":{"info(address)":"0aae7a6b","m()":"5a2ee019","setMerchant(address,address,uint8)":"dcfb0a32"},"id":76}