{"abi":[{"type":"function","name":"allowance","inputs":[{"name":"","type":"address","internalType":"address"},{"name":"","type":"address","internalType":"address"}],"outputs":[{"name":"","type":"uint256","internalType":"uint256"}],"stateMutability":"view"},{"type":"function","name":"approve","inputs":[{"name":"spender","type":"address","internalType":"address"},{"name":"amount","type":"uint256","internalType":"uint256"}],"outputs":[{"name":"","type":"bool","internalType":"bool"}],"stateMutability":"nonpayable"},{"type":"function","name":"balanceOf","inputs":[{"name":"","type":"address","internalType":"address"}],"outputs":[{"name":"","type":"uint256","internalType":"uint256"}],"stateMutability":"view"},{"type":"function","name":"burn","inputs":[{"name":"from","type":"address","internalType":"address"},{"name":"amount","type":"uint256","internalType":"uint256"}],"outputs":[],"stateMutability":"nonpayable"},{"type":"function","name":"mint","inputs":[{"name":"to","type":"address","internalType":"address"},{"name":"amount","type":"uint256","internalType":"uint256"}],"outputs":[],"stateMutability":"nonpayable"},{"type":"function","name":"transfer","inputs":[{"name":"to","type":"address","internalType":"address"},{"name":"amount","type":"uint256","internalType":"uint256"}],"outputs":[{"name":"","type":"bool","internalType":"bool"}],"stateMutability":"nonpayable"},{"type":"function","name":"transferFrom","inputs":[{"name":"from","type":"address","internalType":"address"},{"name":"to","type":"address","internalType":"address"},{"name":"amount","type":"uint256","internalType":"uint256"}],"outputs":[{"name":"","type":"bool","internalType":"bool"}],"stateMutability":"nonpayable"}],"bytecode":{"object":"0x6080806040523460155761030a908161001a8239f35b5f80fdfe60806040526004361015610011575f80fd5b5f3560e01c8063095ea7b31461023357806323b872dd146101c657806340c10f191461018d57806370a08231146101565780639dc29fac14610119578063a9059cbb146100ba5763dd62ed3e14610066575f80fd5b346100b65760403660031901126100b65761007f61027a565b610087610290565b6001600160a01b039182165f908152600160209081526040808320949093168252928352819020549051908152f35b5f80fd5b346100b65760403660031901126100b6576100d361027a565b60243590335f525f60205260405f206100ed8382546102a6565b905560018060a01b03165f525f60205261010c60405f209182546102c7565b9055602060405160018152f35b346100b65760403660031901126100b6576001600160a01b0361013a61027a565b165f525f60205260405f2061015260243582546102a6565b9055005b346100b65760203660031901126100b6576001600160a01b0361017761027a565b165f525f602052602060405f2054604051908152f35b346100b65760403660031901126100b6576001600160a01b036101ae61027a565b165f525f60205260405f2061015260243582546102c7565b346100b65760603660031901126100b6576101df61027a565b6101e7610290565b6044359160018060a01b0316805f52600160205260405f2060018060a01b0333165f5260205260405f2061021c8482546102a6565b90555f525f60205260405f206100ed8382546102a6565b346100b65760403660031901126100b65761024c61027a565b335f52600160205260405f209060018060a01b03165f5260205260405f206024359055602060405160018152f35b600435906001600160a01b03821682036100b657565b602435906001600160a01b03821682036100b657565b919082039182116102b357565b634e487b7160e01b5f52601160045260245ffd5b919082018092116102b35756fea264697066735822122041ccb2cd6c8cc9a975615e457231b11be15537a2409513cc7e0325bb789eb61c64736f6c634300081e0033","linkReferences":{}},"methodIdentifiers":{"allowance(address,address)":"dd62ed3e","approve(address,uint256)":"095ea7b3","balanceOf(address)":"70a08231","burn(address,uint256)":"9dc29fac","mint(address,uint256)":"40c10f19","transfer(address,uint256)":"a9059cbb","transferFrom(address,address,uint256)":"23b872dd"},"id":77}