{
  "_format": "hh-sol-artifact-1",
  "contractName": "EcoTreasuryVault",
  "sourceName": "contracts/EcoTreasuryVault.sol",
  "abi": [
    {
      "inputs": [
        {
          "internalType": "address",
          "name": "initialOwner",
          "type": "address"
        },
        {
          "internalType": "address",
          "name": "vfide_",
          "type": "address"
        }
      ],
      "stateMutability": "nonpayable",
      "type": "constructor"
    },
    {
      "inputs": [],
      "name": "BadAlloc",
      "type": "error"
    },
    {
      "inputs": [],
      "name": "CapTooLow",
      "type": "error"
    },
    {
      "inputs": [],
      "name": "Interval",
      "type": "error"
    },
    {
      "inputs": [],
      "name": "NotGov",
      "type": "error"
    },
    {
      "inputs": [],
      "name": "Paused",
      "type": "error"
    },
    {
      "inputs": [],
      "name": "ZeroAddress",
      "type": "error"
    },
    {
      "anonymous": false,
      "inputs": [
        {
          "indexed": false,
          "internalType": "uint16",
          "name": "sanctum",
          "type": "uint16"
        },
        {
          "indexed": false,
          "internalType": "uint16",
          "name": "staking",
          "type": "uint16"
        },
        {
          "indexed": false,
          "internalType": "uint16",
          "name": "daoOps",
          "type": "uint16"
        },
        {
          "indexed": false,
          "internalType": "uint16",
          "name": "liquidity",
          "type": "uint16"
        }
      ],
      "name": "AllocationsUpdated",
      "type": "event"
    },
    {
      "anonymous": false,
      "inputs": [
        {
          "indexed": false,
          "internalType": "address",
          "name": "breaker",
          "type": "address"
        }
      ],
      "name": "BreakerSet",
      "type": "event"
    },
    {
      "anonymous": false,
      "inputs": [
        {
          "indexed": false,
          "internalType": "address",
          "name": "dao",
          "type": "address"
        }
      ],
      "name": "DAOUpdated",
      "type": "event"
    },
    {
      "anonymous": false,
      "inputs": [
        {
          "indexed": true,
          "internalType": "address",
          "name": "previousOwner",
          "type": "address"
        },
        {
          "indexed": true,
          "internalType": "address",
          "name": "newOwner",
          "type": "address"
        }
      ],
      "name": "OwnershipTransferStarted",
      "type": "event"
    },
    {
      "anonymous": false,
      "inputs": [
        {
          "indexed": true,
          "internalType": "address",
          "name": "previousOwner",
          "type": "address"
        },
        {
          "indexed": true,
          "internalType": "address",
          "name": "newOwner",
          "type": "address"
        }
      ],
      "name": "OwnershipTransferred",
      "type": "event"
    },
    {
      "anonymous": false,
      "inputs": [
        {
          "indexed": false,
          "internalType": "uint64",
          "name": "minInterval",
          "type": "uint64"
        },
        {
          "indexed": false,
          "internalType": "uint256",
          "name": "perCycleCap",
          "type": "uint256"
        },
        {
          "indexed": false,
          "internalType": "uint16",
          "name": "minThrottleBps",
          "type": "uint16"
        },
        {
          "indexed": false,
          "internalType": "uint16",
          "name": "minScoreForFullFlow",
          "type": "uint16"
        }
      ],
      "name": "PolicyUpdated",
      "type": "event"
    },
    {
      "anonymous": false,
      "inputs": [
        {
          "indexed": false,
          "internalType": "address",
          "name": "proof",
          "type": "address"
        }
      ],
      "name": "ProofSinkSet",
      "type": "event"
    },
    {
      "anonymous": false,
      "inputs": [
        {
          "indexed": false,
          "internalType": "address",
          "name": "seer",
          "type": "address"
        }
      ],
      "name": "SeerSet",
      "type": "event"
    },
    {
      "anonymous": false,
      "inputs": [
        {
          "indexed": false,
          "internalType": "address",
          "name": "sanctum",
          "type": "address"
        },
        {
          "indexed": false,
          "internalType": "address",
          "name": "staking",
          "type": "address"
        },
        {
          "indexed": false,
          "internalType": "address",
          "name": "daoOps",
          "type": "address"
        },
        {
          "indexed": false,
          "internalType": "address",
          "name": "liquidity",
          "type": "address"
        }
      ],
      "name": "SinksUpdated",
      "type": "event"
    },
    {
      "anonymous": false,
      "inputs": [
        {
          "indexed": false,
          "internalType": "uint256",
          "name": "gross",
          "type": "uint256"
        },
        {
          "indexed": false,
          "internalType": "uint256",
          "name": "throttleBps",
          "type": "uint256"
        },
        {
          "indexed": false,
          "internalType": "uint256",
          "name": "toSanctum",
          "type": "uint256"
        },
        {
          "indexed": false,
          "internalType": "uint256",
          "name": "toStaking",
          "type": "uint256"
        },
        {
          "indexed": false,
          "internalType": "uint256",
          "name": "toDaoOps",
          "type": "uint256"
        },
        {
          "indexed": false,
          "internalType": "uint256",
          "name": "toLiquidity",
          "type": "uint256"
        },
        {
          "indexed": false,
          "internalType": "uint256",
          "name": "retained",
          "type": "uint256"
        }
      ],
      "name": "Swept",
      "type": "event"
    },
    {
      "anonymous": false,
      "inputs": [
        {
          "indexed": false,
          "internalType": "address",
          "name": "token",
          "type": "address"
        }
      ],
      "name": "VFIDESet",
      "type": "event"
    },
    {
      "inputs": [],
      "name": "acceptOwnership",
      "outputs": [],
      "stateMutability": "nonpayable",
      "type": "function"
    },
    {
      "inputs": [],
      "name": "alloc",
      "outputs": [
        {
          "internalType": "uint16",
          "name": "sanctum",
          "type": "uint16"
        },
        {
          "internalType": "uint16",
          "name": "stakingPool",
          "type": "uint16"
        },
        {
          "internalType": "uint16",
          "name": "daoOps",
          "type": "uint16"
        },
        {
          "internalType": "uint16",
          "name": "liquidityFund",
          "type": "uint16"
        }
      ],
      "stateMutability": "view",
      "type": "function"
    },
    {
      "inputs": [],
      "name": "breaker",
      "outputs": [
        {
          "internalType": "contract IEmergencyBreaker",
          "name": "",
          "type": "address"
        }
      ],
      "stateMutability": "view",
      "type": "function"
    },
    {
      "inputs": [],
      "name": "dao",
      "outputs": [
        {
          "internalType": "address",
          "name": "",
          "type": "address"
        }
      ],
      "stateMutability": "view",
      "type": "function"
    },
    {
      "inputs": [],
      "name": "lastSweepAt",
      "outputs": [
        {
          "internalType": "uint64",
          "name": "",
          "type": "uint64"
        }
      ],
      "stateMutability": "view",
      "type": "function"
    },
    {
      "inputs": [],
      "name": "minScoreForFullFlow",
      "outputs": [
        {
          "internalType": "uint16",
          "name": "",
          "type": "uint16"
        }
      ],
      "stateMutability": "view",
      "type": "function"
    },
    {
      "inputs": [],
      "name": "minSweepInterval",
      "outputs": [
        {
          "internalType": "uint64",
          "name": "",
          "type": "uint64"
        }
      ],
      "stateMutability": "view",
      "type": "function"
    },
    {
      "inputs": [],
      "name": "minThrottleBps",
      "outputs": [
        {
          "internalType": "uint16",
          "name": "",
          "type": "uint16"
        }
      ],
      "stateMutability": "view",
      "type": "function"
    },
    {
      "inputs": [],
      "name": "owner",
      "outputs": [
        {
          "internalType": "address",
          "name": "",
          "type": "address"
        }
      ],
      "stateMutability": "view",
      "type": "function"
    },
    {
      "inputs": [],
      "name": "pendingOwner",
      "outputs": [
        {
          "internalType": "address",
          "name": "",
          "type": "address"
        }
      ],
      "stateMutability": "view",
      "type": "function"
    },
    {
      "inputs": [],
      "name": "perCycleCap",
      "outputs": [
        {
          "internalType": "uint256",
          "name": "",
          "type": "uint256"
        }
      ],
      "stateMutability": "view",
      "type": "function"
    },
    {
      "inputs": [],
      "name": "previewSweep",
      "outputs": [
        {
          "internalType": "uint256",
          "name": "balance",
          "type": "uint256"
        },
        {
          "internalType": "uint16",
          "name": "throttleBps",
          "type": "uint16"
        },
        {
          "internalType": "uint256",
          "name": "capApplied",
          "type": "uint256"
        },
        {
          "internalType": "uint256",
          "name": "willDistribute",
          "type": "uint256"
        },
        {
          "internalType": "uint256",
          "name": "toSanctum",
          "type": "uint256"
        },
        {
          "internalType": "uint256",
          "name": "toStaking",
          "type": "uint256"
        },
        {
          "internalType": "uint256",
          "name": "toDaoOps",
          "type": "uint256"
        },
        {
          "internalType": "uint256",
          "name": "toLiquidity",
          "type": "uint256"
        },
        {
          "internalType": "uint256",
          "name": "retainedIfAllSinksSet",
          "type": "uint256"
        }
      ],
      "stateMutability": "view",
      "type": "function"
    },
    {
      "inputs": [],
      "name": "proof",
      "outputs": [
        {
          "internalType": "contract IProofLedger",
          "name": "",
          "type": "address"
        }
      ],
      "stateMutability": "view",
      "type": "function"
    },
    {
      "inputs": [],
      "name": "renounceOwnership",
      "outputs": [],
      "stateMutability": "nonpayable",
      "type": "function"
    },
    {
      "inputs": [],
      "name": "seer",
      "outputs": [
        {
          "internalType": "contract ISeerView",
          "name": "",
          "type": "address"
        }
      ],
      "stateMutability": "view",
      "type": "function"
    },
    {
      "inputs": [
        {
          "internalType": "uint16",
          "name": "sanctum",
          "type": "uint16"
        },
        {
          "internalType": "uint16",
          "name": "staking",
          "type": "uint16"
        },
        {
          "internalType": "uint16",
          "name": "daoOps_",
          "type": "uint16"
        },
        {
          "internalType": "uint16",
          "name": "liquidity",
          "type": "uint16"
        }
      ],
      "name": "setAllocations",
      "outputs": [],
      "stateMutability": "nonpayable",
      "type": "function"
    },
    {
      "inputs": [
        {
          "internalType": "address",
          "name": "b_",
          "type": "address"
        }
      ],
      "name": "setBreaker",
      "outputs": [],
      "stateMutability": "nonpayable",
      "type": "function"
    },
    {
      "inputs": [
        {
          "internalType": "address",
          "name": "dao_",
          "type": "address"
        }
      ],
      "name": "setDAO",
      "outputs": [],
      "stateMutability": "nonpayable",
      "type": "function"
    },
    {
      "inputs": [
        {
          "internalType": "uint64",
          "name": "minInterval",
          "type": "uint64"
        },
        {
          "internalType": "uint256",
          "name": "cap",
          "type": "uint256"
        },
        {
          "internalType": "uint16",
          "name": "minThrottle",
          "type": "uint16"
        },
        {
          "internalType": "uint16",
          "name": "minScoreFull",
          "type": "uint16"
        }
      ],
      "name": "setPolicy",
      "outputs": [],
      "stateMutability": "nonpayable",
      "type": "function"
    },
    {
      "inputs": [
        {
          "internalType": "address",
          "name": "p_",
          "type": "address"
        }
      ],
      "name": "setProofSink",
      "outputs": [],
      "stateMutability": "nonpayable",
      "type": "function"
    },
    {
      "inputs": [
        {
          "internalType": "address",
          "name": "s_",
          "type": "address"
        }
      ],
      "name": "setSeer",
      "outputs": [],
      "stateMutability": "nonpayable",
      "type": "function"
    },
    {
      "inputs": [
        {
          "internalType": "address",
          "name": "sanctum",
          "type": "address"
        },
        {
          "internalType": "address",
          "name": "staking",
          "type": "address"
        },
        {
          "internalType": "address",
          "name": "daoOps_",
          "type": "address"
        },
        {
          "internalType": "address",
          "name": "liquidity",
          "type": "address"
        }
      ],
      "name": "setSinks",
      "outputs": [],
      "stateMutability": "nonpayable",
      "type": "function"
    },
    {
      "inputs": [
        {
          "internalType": "address",
          "name": "vfide_",
          "type": "address"
        }
      ],
      "name": "setVFIDE",
      "outputs": [],
      "stateMutability": "nonpayable",
      "type": "function"
    },
    {
      "inputs": [],
      "name": "sinks",
      "outputs": [
        {
          "internalType": "address",
          "name": "sanctum",
          "type": "address"
        },
        {
          "internalType": "address",
          "name": "stakingPool",
          "type": "address"
        },
        {
          "internalType": "address",
          "name": "daoOps",
          "type": "address"
        },
        {
          "internalType": "address",
          "name": "liquidityFund",
          "type": "address"
        }
      ],
      "stateMutability": "view",
      "type": "function"
    },
    {
      "inputs": [],
      "name": "sweep",
      "outputs": [],
      "stateMutability": "nonpayable",
      "type": "function"
    },
    {
      "inputs": [
        {
          "internalType": "address",
          "name": "newOwner",
          "type": "address"
        }
      ],
      "name": "transferOwnership",
      "outputs": [],
      "stateMutability": "nonpayable",
      "type": "function"
    },
    {
      "inputs": [],
      "name": "vfide",
      "outputs": [
        {
          "internalType": "contract IVFIDE",
          "name": "",
          "type": "address"
        }
      ],
      "stateMutability": "view",
      "type": "function"
    }
  ],
  "bytecode": "0x60803461010757601f611aad38819003918201601f19168301916001600160401b0383118484101761010c57808492604094855283398101031261010757610052602061004b83610122565b9201610122565b9061005c33610136565b6001600255600d80546001600160401b0319166154601790556a108b2a2c28029094000000600e55600f805463ffffffff19166303200bb81790556001600160a01b0381161580156100f6575b6100e5576100b690610136565b600380546001600160a01b0319166001600160a01b0392909216919091179055604051611921908161018c8239f35b63d92e233d60e01b60005260046000fd5b506001600160a01b038216156100a9565b600080fd5b634e487b7160e01b600052604160045260246000fd5b51906001600160a01b038216820361010757565b600180546001600160a01b0319908116909155600080546001600160a01b03938416928116831782559192909116907f8be0079c531659141344cd1fd0a4f28419497f9722a3daafe3b4186f6b6457e09080a356fe608080604052600436101561001357600080fd5b60003560e01c90816304f38f3b14610d4b575080630f41e0d214610d2257806317fd7bf614610c8b57806320f35ff914610c635780632d55ea3914610c3a57806335faa41614610bc85780634162169f14610b9f57806348ce238414610b0c5780634aa601ac146109a457806369e524ca14610819578063715018a6146107b457806372c8ae3b1461078b57806379ba5097146106c0578063830f032d146106a25780638da5cb5b14610679578063911273531461062b5780639eb2263d14610606578063aa84b8a9146105e4578063b329563514610465578063bbc001c314610418578063e071c1c014610385578063e30c39781461035c578063e4c57bd7146102c9578063e73a914c14610210578063ed5ef352146101e5578063f2fde38b146101765763faf924cf1461014857600080fd5b34610171576000366003190112610171576004546040516001600160a01b039091168152602090f35b600080fd5b346101715760203660031901126101715761018f610ff1565b610197611893565b60018060a01b0316806001600160601b0360a01b600154161760015560018060a01b03600054167f38d16b8cac22d99fc7c124b9cd0de2d3fa1faef420bfe791d8c362d765e22700600080a3005b3461017157600036600319011261017157602067ffffffffffffffff600d5460401c16604051908152f35b3461017157602036600319011261017157610229610ff1565b6000546001600160a01b0316331415806102b4575b6102a3576001600160a01b03168015610292576020817f395c0f5a57accc3f0c20646b402f0845c448f3e4ac4a2ec56a3eaf26d15bf79a926001600160601b0360a01b6007541617600755604051908152a1005b63d92e233d60e01b60005260046000fd5b63b577c1f760e01b60005260046000fd5b506007546001600160a01b031633141561023e565b34610171576020366003190112610171576102e2610ff1565b6000546001600160a01b031633141580610347575b6102a357600680546001600160a01b0319166001600160a01b0390921691821790556040519081527fba232e444ed39bb946759480b350063ea9926d008864ec84e64c61308c51e9e990602090a1005b506007546001600160a01b03163314156102f7565b34610171576000366003190112610171576001546040516001600160a01b039091168152602090f35b346101715760203660031901126101715761039e610ff1565b6000546001600160a01b031633141580610403575b6102a357600580546001600160a01b0319166001600160a01b0390921691821790556040519081527fc33c1a95c902d772578a793cd3d42b7d0a418863633ff3be7853c55a4d95388a90602090a1005b506007546001600160a01b03163314156103b3565b3461017157600036600319011261017157600c546040805161ffff8084168252601084901c811660208084019190915284901c81169282019290925260309290921c166060820152608090f35b346101715760803660031901126101715760043561ffff811690818103610171576024359061ffff82168083036101715761049e611007565b6104a6611018565b9060018060a01b0360005416331415806105cf575b6102a3576104c98387611090565b956104d961ffff83168098611090565b6127106104eb61ffff86168093611090565b116105be5760606105b9957f4e082dcad0db246fbcbaf90e3a0b9fcfdff197581306dcc465a3e6e736e9e4a9996040519161052583611029565b85835260208301526040820152015261ffff19600c541617600c55600c5463ffff0000808760101b16169063ffff0000191617600c55600c5467ffff0000000000008360301b169065ffff000000008360201b169067ffffffff0000000019161717600c5560405194859485929361ffff809296958160609581608089019a16885216602087015216604085015216910152565b0390a1005b63859d0a6d60e01b60005260046000fd5b506007546001600160a01b03163314156104bb565b3461017157600036600319011261017157602061ffff600f5416604051908152f35b3461017157600036600319011261017157602061ffff600f5460101c16604051908152f35b3461017157600036600319011261017157600854600954600a54600b54604080516001600160a01b039586168152938516602085015291841691830191909152919091166060820152608090f35b34610171576000366003190112610171576000546040516001600160a01b039091168152602090f35b34610171576000366003190112610171576020600e54604051908152f35b3461017157600036600319011261017157600154336001600160a01b039091160361073457600180546001600160a01b03199081169091556000805433928116831782556001600160a01b0316907f8be0079c531659141344cd1fd0a4f28419497f9722a3daafe3b4186f6b6457e09080a3005b60405162461bcd60e51b815260206004820152602960248201527f4f776e61626c6532537465703a2063616c6c6572206973206e6f7420746865206044820152683732bb9037bbb732b960b91b6064820152608490fd5b34610171576000366003190112610171576003546040516001600160a01b039091168152602090f35b34610171576000366003190112610171576107cd611893565b600180546001600160a01b0319908116909155600080549182168155906001600160a01b03167f8be0079c531659141344cd1fd0a4f28419497f9722a3daafe3b4186f6b6457e08280a3005b346101715760803660031901126101715760043567ffffffffffffffff8116809103610171576024359061084b611007565b90610854611018565b9160018060a01b03600054163314158061098f575b6102a35761012c821061097f57831561096e5761ffff1661271081116109395761ffff8316906103e88211610907577fdbab01ad97c6a8c8c37838eedc5a658497b87e588a8488d8017f3e47cae50cbe946080948467ffffffffffffffff19600d541617600d5581600e558263ffff0000600f549260101b169163ffffffff19161717600f55604051938452602084015260408301526060820152a1005b60405162461bcd60e51b815260206004820152600a602482015269073636f72653e313030360b41b6044820152606490fd5b60405162461bcd60e51b815260206004820152600d60248201526c7468726f74746c653e3130302560981b6044820152606490fd5b63c7b2b96560e01b60005260046000fd5b6256556f60e71b60005260046000fd5b506007546001600160a01b0316331415610869565b34610171576080366003190112610171576109bd610ff1565b6024356001600160a01b03811691828203610171576044356001600160a01b038116939084810361017157606435906001600160a01b038216808303610171576000546001600160a01b031633141580610af7575b6102a3577ff7c467f5ab0f570fdc1d26ad9cd2bed6d245c81e92e662dfda1472f86e74770d966105b994604051610a4881611029565b83606060018060a01b038a169283815284602082015285604082015201526001600160601b0360a01b60085416176008556001600160601b0360a01b60095416176009556001600160601b0360a01b600a541617600a556001600160601b0360a01b600b541617600b55604051948594859260609295949195608085019660018060a01b0316855260018060a01b0316602085015260018060a01b0316604084015260018060a01b0316910152565b506007546001600160a01b0316331415610a12565b3461017157602036600319011261017157610b25610ff1565b6000546001600160a01b031633141580610b8a575b6102a357600480546001600160a01b0319166001600160a01b0390921691821790556040519081527f672081dadde50e814bb62a7286e6c0cad07071fa40747b022649c85346bdbc8490602090a1005b506007546001600160a01b0316331415610b3a565b34610171576000366003190112610171576007546040516001600160a01b039091168152602090f35b34610171576000366003190112610171576002805414610bf55760028055610bee61109d565b6001600255005b60405162461bcd60e51b815260206004820152601f60248201527f5265656e7472616e637947756172643a207265656e7472616e742063616c6c006044820152606490fd5b34610171576000366003190112610171576005546040516001600160a01b039091168152602090f35b3461017157600036600319011261017157602067ffffffffffffffff600d5416604051908152f35b3461017157602036600319011261017157610ca4610ff1565b6000546001600160a01b031633141580610d0d575b6102a3576001600160a01b03168015610292576020817f77035913569424ed432f15a527aa4e0317cbefd28ce0fe9cdfe61acd77345c17926001600160601b0360a01b6003541617600355604051908152a1005b506007546001600160a01b0316331415610cb9565b34610171576000366003190112610171576006546040516001600160a01b039091168152602090f35b34610171576000366003190112610171576006546001600160a01b03169081610edb575b50506003546040516370a0823160e01b815230600482015290602090829060249082906001600160a01b03165afa908115610ecf57600091610e9a575b50600e5480821115610e9357905b61ffff610dc5611642565b1691612710610dd4848361107d565b04600c54612710610de961ffff83168461107d565b04612710610dfe61ffff8460101c168561107d565b0490612710610e2561ffff82610e19828860201c168961107d565b049560301c168661107d565b0493610e3e85610e3986610e398787611090565b611090565b860395808711610e7d5761012098604051988952602089015260408801526060870152608086015260a085015260c084015260e0830152610100820152f35b634e487b7160e01b600052601160045260246000fd5b5080610dba565b906020823d602011610ec7575b81610eb46020938361105b565b81010312610ec457505181610dac565b80fd5b3d9150610ea7565b6040513d6000823e3d90fd5b631da4712b60e21b8152602081600481855afa908115610ecf57600091610fd2575b50610fa0576020602491604051928380926350fbe4af60e11b8252600760048301525afa908115610ecf57600091610f71575b50610f3c578080610d6f565b60405162461bcd60e51b815260206004820152600d60248201526c1c9bdd5d195c881c185d5cd959609a1b6044820152606490fd5b610f93915060203d602011610f99575b610f8b818361105b565b810190611610565b81610f30565b503d610f81565b60405162461bcd60e51b815260206004820152600a6024820152691cde5cc81c185d5cd95960b21b6044820152606490fd5b610feb915060203d602011610f9957610f8b818361105b565b82610efd565b600435906001600160a01b038216820361017157565b6044359061ffff8216820361017157565b6064359061ffff8216820361017157565b6080810190811067ffffffffffffffff82111761104557604052565b634e487b7160e01b600052604160045260246000fd5b90601f8019910116810190811067ffffffffffffffff82111761104557604052565b81810292918115918404141715610e7d57565b91908201809211610e7d57565b6006546000906001600160a01b031680611548575b50600d5467ffffffffffffffff811667ffffffffffffffff8260401c160167ffffffffffffffff81116115345767ffffffffffffffff8042169116116115045767ffffffffffffffff60401b4260401b169067ffffffffffffffff60401b191617600d556024602060018060a01b0360035416604051928380926370a0823160e01b82523060048301525afa9081156114f95782916114c3575b508080156113cc57600e548091116113c4575b5061ffff61116b611642565b169061271061117a838361107d565b04916024600c5461271061119261ffff83168761107d565b0461122b6112176112036111ef6127106111d9816111b88d61ffff8b60101c169061107d565b049b61ffff836111cd828c60201c168461107d565b049960301c169061107d565b60085491900495906001600160a01b03166117fa565b6009549099906001600160a01b03166117fa565b600a549094906001600160a01b03166117fa565b600b549092906001600160a01b03166117fa565b9161123e83610e3984610e39858c611090565b506003546040516370a0823160e01b81523060048201529460209186919082906001600160a01b03165afa9384156113b9578894611385575b507f7d097b6794b9d7b0ec6e2758c40273e954e6d028d6e63ed255a25a1a9d7d645160e06040518881528760208201528960408201528360608201528460808201528560a08201528660c0820152a16004546001600160a01b031696876112e4575b505050505050505050565b604051956020870197885260408701526060860152608085015260a084015260c083015260e08201524361010082015261010081526113256101208261105b565b519020813b15611381578291606483926040519485938492631250d57560e31b84523060048501526078602485015260448401525af161136c575b808080808080806112d9565b61137782809261105b565b610ec45780611360565b8280fd5b9093506020813d6020116113b1575b816113a16020938361105b565b8101031261017157519238611277565b3d9150611394565b6040513d8a823e3d90fd5b90503861115f565b50507f7d097b6794b9d7b0ec6e2758c40273e954e6d028d6e63ed255a25a1a9d7d645160e06040518381528360208201528360408201528360608201528360808201528360a08201528360c0820152a16004546001600160a01b031680611431575050565b60405160208101908382528360408201528360608201528360808201528360a08201528360c08201528360e08201528361010082015261010081526114786101208261105b565b519020813b15611381578291606483926040519485938492631250d57560e31b84523060048501526078602485015260448401525af16114b6575050565b816114c09161105b565b50565b90506020813d6020116114f1575b816114de6020938361105b565b810103126114ed57513861114c565b5080fd5b3d91506114d1565b6040513d84823e3d90fd5b60405162461bcd60e51b81526020600482015260086024820152671a5b9d195c9d985b60c21b6044820152606490fd5b634e487b7160e01b83526011600452602483fd5b604051631da4712b60e21b8152602081600481855afa9081156116055783916115e6575b506115d7576020602491604051928380926350fbe4af60e11b8252600760048301525afa9081156114f95782916115b8575b506115a957386110b2565b6313d0ff5960e31b8152600490fd5b6115d1915060203d602011610f9957610f8b818361105b565b3861159e565b6313d0ff5960e31b8252600482fd5b6115ff915060203d602011610f9957610f8b818361105b565b3861156c565b6040513d85823e3d90fd5b90816020910312610171575180151581036101715790565b90816020910312610171575161ffff811681036101715790565b6005546001600160a01b031680156117cd5760405163c43873db60e01b8152602081600481855afa600091816117d9575b506117d4575060005b6117cd57600754600091906001600160a01b031680156117705760209060246040518094819363776f384360e01b835260048301525afa6000918161173f575b50611737575b505b600f549061ffff808360101c169116918183101561172e5781156117245761ffff16908161271003926127108411610e7d5761170a936117039161107d565b0490611090565b612710811161171b575b61ffff1690565b50612710611714565b61ffff1692915050565b50505061271090565b9050386116c2565b61176291925060203d602011611769575b61175a818361105b565b810190611628565b90386116bc565b503d611750565b5060206024916040519283809263776f384360e01b82523060048301525afa600091816117ac575b506117a4575b506116c4565b90503861179e565b6117c691925060203d6020116117695761175a818361105b565b9038611798565b5061271090565b61167c565b6117f391925060203d602011610f9957610f8b818361105b565b9038611673565b6001600160a01b03168015801561188b575b6118845760035460405163a9059cbb60e01b8152600481019290925260248201839052602090829060449082906000906001600160a01b03165af1908115610ecf57600091611865575b501561185f5790565b50600090565b61187e915060203d602011610f9957610f8b818361105b565b38611856565b5050600090565b50811561180c565b6000546001600160a01b031633036118a757565b606460405162461bcd60e51b815260206004820152602060248201527f4f776e61626c653a2063616c6c6572206973206e6f7420746865206f776e65726044820152fdfea2646970667358221220a453e3e86a9dec0918ebee1b2425c4b995ccdd70531b006c440ea24380f7319364736f6c634300081e0033",
  "linkReferences": {},
  "deployedLinkReferences": {}
}