{
  "_format": "hh-sol-artifact-1",
  "contractName": "PayrollManager",
  "sourceName": "contracts/PayrollManager.sol",
  "abi": [
    {
      "inputs": [
        {
          "internalType": "address",
          "name": "_dao",
          "type": "address"
        },
        {
          "internalType": "address",
          "name": "_seer",
          "type": "address"
        }
      ],
      "stateMutability": "nonpayable",
      "type": "constructor"
    },
    {
      "inputs": [],
      "name": "PM_InvalidDeposit",
      "type": "error"
    },
    {
      "inputs": [],
      "name": "PM_InvalidPayee",
      "type": "error"
    },
    {
      "inputs": [],
      "name": "PM_InvalidRate",
      "type": "error"
    },
    {
      "inputs": [],
      "name": "PM_NotAuthorized",
      "type": "error"
    },
    {
      "inputs": [],
      "name": "PM_NotPayee",
      "type": "error"
    },
    {
      "inputs": [],
      "name": "PM_NotPayer",
      "type": "error"
    },
    {
      "inputs": [],
      "name": "PM_NothingDue",
      "type": "error"
    },
    {
      "inputs": [],
      "name": "PM_StreamInactive",
      "type": "error"
    },
    {
      "inputs": [],
      "name": "PM_StreamNotPaused",
      "type": "error"
    },
    {
      "inputs": [],
      "name": "PM_StreamPaused",
      "type": "error"
    },
    {
      "anonymous": false,
      "inputs": [
        {
          "indexed": true,
          "internalType": "uint256",
          "name": "streamId",
          "type": "uint256"
        },
        {
          "indexed": true,
          "internalType": "address",
          "name": "to",
          "type": "address"
        },
        {
          "indexed": false,
          "internalType": "uint256",
          "name": "amount",
          "type": "uint256"
        }
      ],
      "name": "EmergencyWithdraw",
      "type": "event"
    },
    {
      "anonymous": false,
      "inputs": [
        {
          "indexed": true,
          "internalType": "uint256",
          "name": "streamId",
          "type": "uint256"
        },
        {
          "indexed": true,
          "internalType": "address",
          "name": "oldPayee",
          "type": "address"
        },
        {
          "indexed": true,
          "internalType": "address",
          "name": "newPayee",
          "type": "address"
        }
      ],
      "name": "PayeeUpdated",
      "type": "event"
    },
    {
      "anonymous": false,
      "inputs": [
        {
          "indexed": true,
          "internalType": "uint256",
          "name": "streamId",
          "type": "uint256"
        },
        {
          "indexed": false,
          "internalType": "uint256",
          "name": "oldRate",
          "type": "uint256"
        },
        {
          "indexed": false,
          "internalType": "uint256",
          "name": "newRate",
          "type": "uint256"
        }
      ],
      "name": "RateModified",
      "type": "event"
    },
    {
      "anonymous": false,
      "inputs": [
        {
          "indexed": true,
          "internalType": "uint256",
          "name": "streamId",
          "type": "uint256"
        }
      ],
      "name": "StreamCancelled",
      "type": "event"
    },
    {
      "anonymous": false,
      "inputs": [
        {
          "indexed": true,
          "internalType": "uint256",
          "name": "streamId",
          "type": "uint256"
        },
        {
          "indexed": true,
          "internalType": "address",
          "name": "payer",
          "type": "address"
        },
        {
          "indexed": true,
          "internalType": "address",
          "name": "payee",
          "type": "address"
        },
        {
          "indexed": false,
          "internalType": "uint256",
          "name": "rate",
          "type": "uint256"
        }
      ],
      "name": "StreamCreated",
      "type": "event"
    },
    {
      "anonymous": false,
      "inputs": [
        {
          "indexed": true,
          "internalType": "uint256",
          "name": "streamId",
          "type": "uint256"
        },
        {
          "indexed": true,
          "internalType": "address",
          "name": "pausedBy",
          "type": "address"
        }
      ],
      "name": "StreamPaused",
      "type": "event"
    },
    {
      "anonymous": false,
      "inputs": [
        {
          "indexed": true,
          "internalType": "uint256",
          "name": "streamId",
          "type": "uint256"
        },
        {
          "indexed": true,
          "internalType": "address",
          "name": "resumedBy",
          "type": "address"
        }
      ],
      "name": "StreamResumed",
      "type": "event"
    },
    {
      "anonymous": false,
      "inputs": [
        {
          "indexed": true,
          "internalType": "uint256",
          "name": "streamId",
          "type": "uint256"
        },
        {
          "indexed": false,
          "internalType": "uint256",
          "name": "amount",
          "type": "uint256"
        }
      ],
      "name": "TopUp",
      "type": "event"
    },
    {
      "anonymous": false,
      "inputs": [
        {
          "indexed": true,
          "internalType": "uint256",
          "name": "streamId",
          "type": "uint256"
        },
        {
          "indexed": true,
          "internalType": "address",
          "name": "payee",
          "type": "address"
        },
        {
          "indexed": false,
          "internalType": "uint256",
          "name": "amount",
          "type": "uint256"
        }
      ],
      "name": "Withdraw",
      "type": "event"
    },
    {
      "inputs": [],
      "name": "PAYROLL_CREATE_REWARD",
      "outputs": [
        {
          "internalType": "uint16",
          "name": "",
          "type": "uint16"
        }
      ],
      "stateMutability": "view",
      "type": "function"
    },
    {
      "inputs": [],
      "name": "PAYROLL_WITHDRAW_REWARD",
      "outputs": [
        {
          "internalType": "uint16",
          "name": "",
          "type": "uint16"
        }
      ],
      "stateMutability": "view",
      "type": "function"
    },
    {
      "inputs": [
        {
          "internalType": "uint256",
          "name": "streamId",
          "type": "uint256"
        }
      ],
      "name": "cancelStream",
      "outputs": [],
      "stateMutability": "nonpayable",
      "type": "function"
    },
    {
      "inputs": [
        {
          "internalType": "uint256",
          "name": "streamId",
          "type": "uint256"
        }
      ],
      "name": "claimable",
      "outputs": [
        {
          "internalType": "uint256",
          "name": "",
          "type": "uint256"
        }
      ],
      "stateMutability": "view",
      "type": "function"
    },
    {
      "inputs": [
        {
          "internalType": "address",
          "name": "payee",
          "type": "address"
        },
        {
          "internalType": "address",
          "name": "token",
          "type": "address"
        },
        {
          "internalType": "uint256",
          "name": "rate",
          "type": "uint256"
        },
        {
          "internalType": "uint256",
          "name": "initialDeposit",
          "type": "uint256"
        }
      ],
      "name": "createStream",
      "outputs": [
        {
          "internalType": "uint256",
          "name": "",
          "type": "uint256"
        }
      ],
      "stateMutability": "nonpayable",
      "type": "function"
    },
    {
      "inputs": [],
      "name": "dao",
      "outputs": [
        {
          "internalType": "address",
          "name": "",
          "type": "address"
        }
      ],
      "stateMutability": "view",
      "type": "function"
    },
    {
      "inputs": [
        {
          "internalType": "uint256",
          "name": "streamId",
          "type": "uint256"
        },
        {
          "internalType": "address",
          "name": "to",
          "type": "address"
        }
      ],
      "name": "emergencyWithdraw",
      "outputs": [],
      "stateMutability": "nonpayable",
      "type": "function"
    },
    {
      "inputs": [
        {
          "internalType": "uint256",
          "name": "streamId",
          "type": "uint256"
        }
      ],
      "name": "estimateEndTime",
      "outputs": [
        {
          "internalType": "uint256",
          "name": "",
          "type": "uint256"
        }
      ],
      "stateMutability": "view",
      "type": "function"
    },
    {
      "inputs": [
        {
          "internalType": "address",
          "name": "payee",
          "type": "address"
        }
      ],
      "name": "getPayeeStreams",
      "outputs": [
        {
          "internalType": "uint256[]",
          "name": "",
          "type": "uint256[]"
        }
      ],
      "stateMutability": "view",
      "type": "function"
    },
    {
      "inputs": [
        {
          "internalType": "address",
          "name": "payer",
          "type": "address"
        }
      ],
      "name": "getPayerStreams",
      "outputs": [
        {
          "internalType": "uint256[]",
          "name": "",
          "type": "uint256[]"
        }
      ],
      "stateMutability": "view",
      "type": "function"
    },
    {
      "inputs": [
        {
          "internalType": "uint256",
          "name": "streamId",
          "type": "uint256"
        }
      ],
      "name": "getStream",
      "outputs": [
        {
          "components": [
            {
              "internalType": "address",
              "name": "payer",
              "type": "address"
            },
            {
              "internalType": "address",
              "name": "payee",
              "type": "address"
            },
            {
              "internalType": "address",
              "name": "token",
              "type": "address"
            },
            {
              "internalType": "uint256",
              "name": "ratePerSecond",
              "type": "uint256"
            },
            {
              "internalType": "uint256",
              "name": "startTime",
              "type": "uint256"
            },
            {
              "internalType": "uint256",
              "name": "lastWithdrawTime",
              "type": "uint256"
            },
            {
              "internalType": "uint256",
              "name": "depositBalance",
              "type": "uint256"
            },
            {
              "internalType": "bool",
              "name": "active",
              "type": "bool"
            },
            {
              "internalType": "bool",
              "name": "paused",
              "type": "bool"
            },
            {
              "internalType": "uint256",
              "name": "pausedAt",
              "type": "uint256"
            },
            {
              "internalType": "uint256",
              "name": "pausedAccrued",
              "type": "uint256"
            }
          ],
          "internalType": "struct PayrollManager.Stream",
          "name": "",
          "type": "tuple"
        }
      ],
      "stateMutability": "view",
      "type": "function"
    },
    {
      "inputs": [
        {
          "internalType": "uint256",
          "name": "streamId",
          "type": "uint256"
        }
      ],
      "name": "getStreamStatus",
      "outputs": [
        {
          "internalType": "bool",
          "name": "active",
          "type": "bool"
        },
        {
          "internalType": "bool",
          "name": "paused",
          "type": "bool"
        },
        {
          "internalType": "uint256",
          "name": "currentClaimable",
          "type": "uint256"
        },
        {
          "internalType": "uint256",
          "name": "remainingBalance",
          "type": "uint256"
        },
        {
          "internalType": "uint256",
          "name": "ratePerSecond",
          "type": "uint256"
        },
        {
          "internalType": "uint256",
          "name": "runwaySeconds",
          "type": "uint256"
        }
      ],
      "stateMutability": "view",
      "type": "function"
    },
    {
      "inputs": [
        {
          "internalType": "uint256[]",
          "name": "streamIds",
          "type": "uint256[]"
        }
      ],
      "name": "getStreamsBatch",
      "outputs": [
        {
          "components": [
            {
              "internalType": "address",
              "name": "payer",
              "type": "address"
            },
            {
              "internalType": "address",
              "name": "payee",
              "type": "address"
            },
            {
              "internalType": "address",
              "name": "token",
              "type": "address"
            },
            {
              "internalType": "uint256",
              "name": "ratePerSecond",
              "type": "uint256"
            },
            {
              "internalType": "uint256",
              "name": "startTime",
              "type": "uint256"
            },
            {
              "internalType": "uint256",
              "name": "lastWithdrawTime",
              "type": "uint256"
            },
            {
              "internalType": "uint256",
              "name": "depositBalance",
              "type": "uint256"
            },
            {
              "internalType": "bool",
              "name": "active",
              "type": "bool"
            },
            {
              "internalType": "bool",
              "name": "paused",
              "type": "bool"
            },
            {
              "internalType": "uint256",
              "name": "pausedAt",
              "type": "uint256"
            },
            {
              "internalType": "uint256",
              "name": "pausedAccrued",
              "type": "uint256"
            }
          ],
          "internalType": "struct PayrollManager.Stream[]",
          "name": "results",
          "type": "tuple[]"
        }
      ],
      "stateMutability": "view",
      "type": "function"
    },
    {
      "inputs": [
        {
          "internalType": "address",
          "name": "payee",
          "type": "address"
        }
      ],
      "name": "getTotalEarnings",
      "outputs": [
        {
          "internalType": "uint256",
          "name": "activeStreamCount",
          "type": "uint256"
        },
        {
          "internalType": "uint256",
          "name": "totalRatePerSecond",
          "type": "uint256"
        },
        {
          "internalType": "uint256",
          "name": "totalClaimable",
          "type": "uint256"
        }
      ],
      "stateMutability": "view",
      "type": "function"
    },
    {
      "inputs": [
        {
          "internalType": "address",
          "name": "payer",
          "type": "address"
        }
      ],
      "name": "getTotalObligations",
      "outputs": [
        {
          "internalType": "uint256",
          "name": "activeStreamCount",
          "type": "uint256"
        },
        {
          "internalType": "uint256",
          "name": "totalRatePerSecond",
          "type": "uint256"
        },
        {
          "internalType": "uint256",
          "name": "totalDeposited",
          "type": "uint256"
        },
        {
          "internalType": "uint256",
          "name": "totalClaimable",
          "type": "uint256"
        }
      ],
      "stateMutability": "view",
      "type": "function"
    },
    {
      "inputs": [],
      "name": "nextStreamId",
      "outputs": [
        {
          "internalType": "uint256",
          "name": "",
          "type": "uint256"
        }
      ],
      "stateMutability": "view",
      "type": "function"
    },
    {
      "inputs": [
        {
          "internalType": "uint256",
          "name": "streamId",
          "type": "uint256"
        }
      ],
      "name": "pauseStream",
      "outputs": [],
      "stateMutability": "nonpayable",
      "type": "function"
    },
    {
      "inputs": [
        {
          "internalType": "uint256",
          "name": "streamId",
          "type": "uint256"
        }
      ],
      "name": "resumeStream",
      "outputs": [],
      "stateMutability": "nonpayable",
      "type": "function"
    },
    {
      "inputs": [],
      "name": "seer",
      "outputs": [
        {
          "internalType": "contract ISeer_PM",
          "name": "",
          "type": "address"
        }
      ],
      "stateMutability": "view",
      "type": "function"
    },
    {
      "inputs": [
        {
          "internalType": "address",
          "name": "_dao",
          "type": "address"
        }
      ],
      "name": "setDAO",
      "outputs": [],
      "stateMutability": "nonpayable",
      "type": "function"
    },
    {
      "inputs": [
        {
          "internalType": "uint256",
          "name": "streamId",
          "type": "uint256"
        },
        {
          "internalType": "uint256",
          "name": "newRate",
          "type": "uint256"
        }
      ],
      "name": "setRate",
      "outputs": [],
      "stateMutability": "nonpayable",
      "type": "function"
    },
    {
      "inputs": [
        {
          "internalType": "address",
          "name": "_seer",
          "type": "address"
        }
      ],
      "name": "setSeer",
      "outputs": [],
      "stateMutability": "nonpayable",
      "type": "function"
    },
    {
      "inputs": [
        {
          "internalType": "uint256",
          "name": "",
          "type": "uint256"
        }
      ],
      "name": "streams",
      "outputs": [
        {
          "internalType": "address",
          "name": "payer",
          "type": "address"
        },
        {
          "internalType": "address",
          "name": "payee",
          "type": "address"
        },
        {
          "internalType": "address",
          "name": "token",
          "type": "address"
        },
        {
          "internalType": "uint256",
          "name": "ratePerSecond",
          "type": "uint256"
        },
        {
          "internalType": "uint256",
          "name": "startTime",
          "type": "uint256"
        },
        {
          "internalType": "uint256",
          "name": "lastWithdrawTime",
          "type": "uint256"
        },
        {
          "internalType": "uint256",
          "name": "depositBalance",
          "type": "uint256"
        },
        {
          "internalType": "bool",
          "name": "active",
          "type": "bool"
        },
        {
          "internalType": "bool",
          "name": "paused",
          "type": "bool"
        },
        {
          "internalType": "uint256",
          "name": "pausedAt",
          "type": "uint256"
        },
        {
          "internalType": "uint256",
          "name": "pausedAccrued",
          "type": "uint256"
        }
      ],
      "stateMutability": "view",
      "type": "function"
    },
    {
      "inputs": [
        {
          "internalType": "uint256",
          "name": "streamId",
          "type": "uint256"
        },
        {
          "internalType": "uint256",
          "name": "amount",
          "type": "uint256"
        }
      ],
      "name": "topUp",
      "outputs": [],
      "stateMutability": "nonpayable",
      "type": "function"
    },
    {
      "inputs": [
        {
          "internalType": "uint256",
          "name": "streamId",
          "type": "uint256"
        },
        {
          "internalType": "address",
          "name": "newPayee",
          "type": "address"
        }
      ],
      "name": "updatePayee",
      "outputs": [],
      "stateMutability": "nonpayable",
      "type": "function"
    },
    {
      "inputs": [
        {
          "internalType": "uint256",
          "name": "streamId",
          "type": "uint256"
        }
      ],
      "name": "withdraw",
      "outputs": [],
      "stateMutability": "nonpayable",
      "type": "function"
    }
  ],
  "bytecode": "0x608034609f57601f611c3538819003918201601f19168301916001600160401b0383118484101760a4578084926040948552833981010312609f57604b602060458360ba565b920160ba565b60016000819055600255600380546001600160a01b0319166001600160a01b0393841617905516806086575b604051611b6790816100ce8239f35b600480546001600160a01b031916919091179055386077565b600080fd5b634e487b7160e01b600052604160045260246000fd5b51906001600160a01b0382168203609f5756fe6080604052600436101561001257600080fd5b6000803560e01c8063117a7a45146113f35780631e99d569146113d557806322dabc20146113b95780632d55ea39146113905780632e1a7d4d146111f25780632f940c70146110c35780634162169f1461109a57806346df2ccb14610f6b5780635588eabe14610ef95780636438f89c14610dd957806364d60d9114610d1f578063668148ea14610c9d5780636db9241b14610b6d578063746ff13d14610aab5780638307ccf314610a8c578063894e9a0d146109bf5780638f62447014610934578063b61b6ce214610642578063be47a9ee146104f6578063d1d58b25146104cf578063dd6ef8cc146104b3578063de643a71146103a4578063e071c1c014610352578063e73a914c146102cb578063ea6be1661461020b5763fb6a984e1461013b57600080fd5b3461020857602036600319011261020857600435808252600160205260408220600781019081549060ff8216156101f95760ff8260081c16156101ea5780546001600160a01b0316331415806101d5575b6101c65760054291015561ff001916905533907f0dbfa51df8b0b3b2d196641ff6e01b8ad3a3bfea169bbd41f321c0391a3e89738380a380f35b632bb02ac160e11b8552600485fd5b506003546001600160a01b031633141561018c565b63582590d160e01b8552600485fd5b6339e9120560e01b8552600485fd5b80fd5b503461020857604036600319011261020857600435610228611633565b81835260016020526040832060ff600782015416156102bc576001019160018060a01b03835416918233036102ad576001600160a01b031692831561029e5780546001600160a01b031916841790557fe9d9a28672a33f2da4e22d235fddf12a83aed52873ddfb504cdc21b498cdb4008480a480f35b63562e8b3d60e01b8552600485fd5b63108d649d60e01b8552600485fd5b6339e9120560e01b8452600484fd5b5034610208576020366003190112610208576102e561164e565b600354906102fd336001600160a01b038416146117bd565b6001600160a01b031690811561031e576001600160a01b0319161760035580f35b60405162461bcd60e51b815260206004820152600c60248201526b504d3a207a65726f2044414f60a01b6044820152606490fd5b50346102085760203660031901126102085761036c61164e565b61038160018060a01b036003541633146117bd565b600480546001600160a01b0319166001600160a01b039290921691909117905580f35b5034610208576103b336611664565b8183526001602052604083209060ff600783015416156102bc5781546001600160a01b031633036104a45760028201546040516323b872dd60e01b8152919060209083906001600160a01b0316818881610412873033600485016118db565b03925af18015610499577f9580ef1bd2c88526f7c878185e323d2bef5d3f0f9471577f3e3a2bfdb87763ef93610454600692602095899161046c575b506118fd565b01610460828254611806565b9055604051908152a280f35b61048c9150863d8811610492575b61048481836116e6565b8101906118c3565b3861044e565b503d61047a565b6040513d87823e3d90fd5b637a03df0760e11b8452600484fd5b5034610208578060031936011261020857602060405160018152f35b50346102085760203660031901126102085760206104ee600435611964565b604051908152f35b50346102085760203660031901126102085761051061164e565b908081928291839160018060a01b031684526005602052604084206040518082602082945493848152019088526020882092885b818110610629575050610559925003826116e6565b845b815181101561060c5761056e8183611770565b51865260016020526040862060078101549060ff8216610593575b505060010161055b565b90936105a460ff91979396976117f7565b9460081c16156105e5575b6105c360019260066105dd93015490611806565b956105d76105d18786611770565b51611964565b90611806565b939038610589565b966105c360019260066106006105dd9460038d015490611806565b9a9350509250506105af565b60808385878a604051938452602084015260408301526060820152f35b8454835260019485019486945060209093019201610544565b50346102085760803660031901126102085761065c61164e565b610664611633565b606435916001600160a01b03169060443590821561029e578115610926578315610917576040516323b872dd60e01b815285916001600160a01b0316602082806106b3893033600485016118db565b038186855af191821561090c576009926106d39185916108f357506118fd565b6002549586916106e2836117f7565b6002556040519485926106f4846116b4565b33845260208401928984526040850190815260608501898152608086019042825260a087019242845260c0880194855260e08801966001885260406101008a01978089526101406101208c019b828d52019b818d5281526001602052209b60018060a01b039060018060a01b039051161660018060a01b03198d5416178c5560018060a01b0390511660018c019060018060a01b031660018060a01b031982541617905560018060a01b0390511660028b019060018060a01b031660018060a01b03198254161790555160038a0155516004890155516005880155516006870155600786019151151560ff8019845416911617825551151561ff0082549160081b169061ff00191617905551600884015551910155338452600560205261081e836040862061193b565b8184526006602052610833836040862061193b565b6004546001600160a01b03168061087e575b5060209350604051908152827f4396d7c3edc1447dac8dd2b7143af95840c926a210524a0d3198012c7fdf37c7853393a4604051908152f35b8085913b156108ef57819060a460405180948193630eccbd3560e11b83523360048401526005602484015260606044840152600f60648401526e1c185e5c9bdb1b17d8dc99585d1959608a1b60848401525af115610845576108e18580926116e6565b6108eb5783610845565b8380fd5b5080fd5b61048c915060203d6020116104925761048481836116e6565b6040513d85823e3d90fd5b63ab02e66360e01b8552600485fd5b624ec27160e71b8552600485fd5b50346102085760203660031901126102085760c0906004359081815260016020526040812090610968600783015493611964565b9160036006820154910154918215156000146109b957506109898282611813565b925b60ff604051958181161515875260081c161515602086015260408501526060840152608083015260a0820152f35b9261098b565b5034610208576020366003190112610208576040610160916109df61171e565b5060043581526001602052206009604051916109fa836116b4565b80546001600160a01b0390811684526001820154811660208501526002820154166040808501919091526003820154606085015260048201546080850152600582015460a0850152600682015460c0850152600782015460ff818116151560e0870152600891821c1615156101008601528201546101208501529101546101408301525190610a8a9082906115a9565bf35b50346102085760203660031901126102085760206104ee600435611833565b50346102085760203660031901126102085760043580825260016020526040822060078101805460ff8116156101f95760ff8160081c16610b5e5782546001600160a01b031633141580610b47575b6101c65761010090610b0b85611964565b600985015561ff00191617905560084291015533907fff71f52d9d3ad4ae0959691a14ef1d1478d482ca10ac8be29c8e7d88cf3baba68380a380f35b5060018301546001600160a01b0316331415610afa565b632bd7def960e01b8552600485fd5b503461020857602036600319011261020857600435610b8a6119d8565b80825260016020526040822080546001600160a01b031633141580610c86575b610c7757600781019060ff825416156102bc57610bc683611964565b80610c39575b5060068101908154908582610c10575b845460ff19168555857f75b8c91e46f219f2164d6bce576e7cebd2d3ff8749726009fcafdf04e2e1eb7b8280a26001815580f35b90925560028201549154610c30926001600160a01b039182169116611a1b565b38808085610bdc565b610c719060068301610c4c82825461179a565b905560098301869055600283015460018401546001600160a01b039081169116611a1b565b38610bcc565b632bb02ac160e11b8352600483fd5b5060018101546001600160a01b0316331415610baa565b5034610208576020366003190112610208576001600160a01b03610cbf61164e565b168152600560205260408120604051918260208354918281520192825260208220915b818110610d0957610d0585610cf9818703826116e6565b6040519182918261167a565b0390f35b8254845260209093019260019283019201610ce2565b503461020857602036600319011261020857604061016091600435815260016020522060018060a01b038154169060018060a01b036001820154169060ff60018060a01b036002830154166003830154600484015460058501549060068601549260078701549460096008890154980154986040519a8b5260208b015260408a01526060890152608088015260a087015260c0860152818116151560e086015260081c161515610100840152610120830152610140820152f35b503461020857602036600319011261020857610df361164e565b81908290839060018060a01b03168452600660205260408420926040518085602082975493848152019088526020882092885b818110610ee0575050610e3b925003856116e6565b845b8451811015610ec957610e508186611770565b51865260016020526040862060078101549060ff8216610e75575b5050600101610e3d565b9092610e8560ff919593956117f7565b9360081c1615610eac575b50610ea46001916105d76105d18689611770565b929038610e6b565b610ec1600192956003610ea493015490611806565b949150610e90565b509060609260405192835260208301526040820152f35b8454835260019485019489945060209093019201610e26565b5034610208576020366003190112610208576001600160a01b03610f1b61164e565b168152600660205260408120604051918260208354918281520192825260208220915b818110610f5557610d0585610cf9818703826116e6565b8254845260209093019260019283019201610f3e565b503461020857610f7a36611664565b818352600160205260408320600781015460ff8116156101f95781546001600160a01b0316330361108b578215610926579160036040927f5ff336526ec3daccf85a7032a5367977be366164c16254f032cb3a0f5d3c27d194610fdc87611964565b90811515908161107c575b50611003575b500190808254925582519182526020820152a280f35b600682018054808311611074575b8261101b9161179a565b905542600583015560028201546001830180548992600080516020611b1283398151915292602092909161105d9187916001600160a01b039182169116611a1b565b5488519485526001600160a01b031693a338610fed565b915081611011565b60ff915060081c161538610fe7565b637a03df0760e11b8552600485fd5b50346102085780600319360112610208576003546040516001600160a01b039091168152602090f35b5034610208576040366003190112610208576004356110e0611633565b906110f660018060a01b036003541633146117bd565b808352600160205260408320600781019283549160ff8316156111b7576001600160a01b03821694851561117f576006820180549088905560ff199094169055600201547f947a9dc0c5e62cc9756634ec0a89afea37eb0305933925040b9bda82004400209260209290916111759183916001600160a01b0316611a1b565b604051908152a380f35b60405162461bcd60e51b815260206004820152601060248201526f504d3a207a65726f206164647265737360801b6044820152606490fd5b60405162461bcd60e51b8152602060048201526013602482015272504d3a2073747265616d20696e61637469766560681b6044820152606490fd5b50346102085760203660031901126102085760043561120f6119d8565b8082526001602052604082209060ff600783015416156113815761123281611964565b9182156113725760068101805480851161136a575b846112519161179a565b905542600582015583600982018054611362575b5050600281015460019091018054909161128d9185916001600160a01b039182169116611a1b565b60045484906001600160a01b0316806112cf575b5050546040519283526001600160a01b031691600080516020611b1283398151915290602090a36001815580f35b82546001600160a01b031690803b1561135e5760a483926040519485938492630eccbd3560e11b845260048401526001602484015260606044840152601060648401526f1c185e5c9bdb1b17dc9958d95a5d995960821b60848401525af1611339575b84906112a1565b84611356600080516020611b1283398151915293966020936116e6565b949150611332565b8280fd5b558338611265565b935083611247565b63de82509360e01b8452600484fd5b6339e9120560e01b8352600483fd5b50346102085780600319360112610208576004546040516001600160a01b039091168152602090f35b5034610208578060031936011261020857602060405160058152f35b50346102085780600319360112610208576020600254604051908152f35b5034610208576020366003190112610208576004356001600160401b0381116108ef57366023820112156108ef578060040135906001600160401b03821161135e573660248360051b8301011161135e5761144d82611707565b9061145b60405192836116e6565b828252601f1961146a84611707565b01845b818110611592575050835b838110156115405760019060248160051b84010135865281602052604086206009604051916114a6836116b4565b805460a086811b87900391821685528287015482166020860152600283015490911660408501526003820154606085015260048201546080850152600582015490840152600681015460c0840152600781015460ff818116151560e0860152600891821c161515610100850152810154610120840152015461014082015261152e8286611770565b526115398185611770565b5001611478565b8285604051918291602083016020845282518091526020604085019301915b81811061156d575050500390f35b9193509160206101608261158460019488516115a9565b01940191019184939261155f565b60209061159d61171e565b8282870101520161146d565b610140809160018060a01b03815116845260018060a01b03602082015116602085015260018060a01b036040820151166040850152606081015160608501526080810151608085015260a081015160a085015260c081015160c085015260e0810151151560e085015261010081015115156101008501526101208101516101208501520151910152565b602435906001600160a01b038216820361164957565b600080fd5b600435906001600160a01b038216820361164957565b6040906003190112611649576004359060243590565b602060408183019282815284518094520192019060005b81811061169e5750505090565b8251845260209384019390920191600101611691565b61016081019081106001600160401b038211176116d057604052565b634e487b7160e01b600052604160045260246000fd5b90601f801991011681019081106001600160401b038211176116d057604052565b6001600160401b0381116116d05760051b60200190565b6040519061172b826116b4565b6000610140838281528260208201528260408201528260608201528260808201528260a08201528260c08201528260e082015282610100820152826101208201520152565b80518210156117845760209160051b010190565b634e487b7160e01b600052603260045260246000fd5b919082039182116117a757565b634e487b7160e01b600052601160045260246000fd5b156117c457565b60405162461bcd60e51b815260206004820152600b60248201526a504d3a206e6f742044414f60a81b6044820152606490fd5b60001981146117a75760010190565b919082018092116117a757565b811561181d570490565b634e487b7160e01b600052601260045260246000fd5b806000526001602052604060002090600782015460ff8116159081156118b5575b5080156118a9575b6118a25761186e600683015491611964565b918183101561189b576003611889611898946118929461179a565b91015490611813565b42611806565b90565b5050504290565b5050600090565b5060038201541561185c565b60ff915060081c1638611854565b90816020910312611649575180151581036116495790565b6001600160a01b03918216815291166020820152604081019190915260600190565b1561190457565b60405162461bcd60e51b815260206004820152600f60248201526e1d1c985b9cd9995c8819985a5b1959608a1b6044820152606490fd5b805490600160401b8210156116d057600182018082558210156117845760005260206000200155565b60005260016020526040600020600781015460ff8116156118a25760081c60ff166119d15761199760058201544261179a565b6003820154908181029181830414901517156117a7576119be600691600984015490611806565b9101548082116119cc575090565b905090565b6009015490565b6001600054036119e9576002600055565b60405162461bcd60e51b815260206004820152600a6024820152697265656e7472616e637960b01b6044820152606490fd5b6000929183809360405190602082019363a9059cbb60e01b855260018060a01b03166024830152604482015260448152611a566064826116e6565b51925af13d15611b0a573d6001600160401b0381116116d05760405190611a87601f8201601f1916602001836116e6565b81523d6000602083013e5b81611adb575b5015611aa057565b60405162461bcd60e51b815260206004820152601360248201527214134e881d1c985b9cd9995c8819985a5b1959606a1b6044820152606490fd5b8051801592508215611af0575b505038611a98565b611b0392506020809183010191016118c3565b3880611ae8565b6060611a9256fe9da6493a92039daf47d1f2d7a782299c5994c6323eb1e972f69c432089ec52bfa26469706673582212201dd9702ce6ce896cad286c7d5e4a54a396aa2c5e6427afbde09efc9cc3a53c2f64736f6c634300081e0033",
  "linkReferences": {},
  "deployedLinkReferences": {}
}