{
  "_format": "hh-sol-artifact-1",
  "contractName": "ProofLedger",
  "sourceName": "contracts/ProofLedger.sol",
  "abi": [
    {
      "inputs": [
        {
          "internalType": "address",
          "name": "initialOwner",
          "type": "address"
        }
      ],
      "stateMutability": "nonpayable",
      "type": "constructor"
    },
    {
      "inputs": [],
      "name": "BadClamp",
      "type": "error"
    },
    {
      "inputs": [],
      "name": "NotGov",
      "type": "error"
    },
    {
      "inputs": [],
      "name": "NotReporter",
      "type": "error"
    },
    {
      "inputs": [],
      "name": "ZeroAddress",
      "type": "error"
    },
    {
      "anonymous": false,
      "inputs": [
        {
          "indexed": false,
          "internalType": "uint16",
          "name": "minClamp",
          "type": "uint16"
        },
        {
          "indexed": false,
          "internalType": "uint16",
          "name": "maxClamp",
          "type": "uint16"
        }
      ],
      "name": "ClampsSet",
      "type": "event"
    },
    {
      "anonymous": false,
      "inputs": [
        {
          "indexed": true,
          "internalType": "address",
          "name": "dao",
          "type": "address"
        }
      ],
      "name": "DAOUpdated",
      "type": "event"
    },
    {
      "anonymous": false,
      "inputs": [
        {
          "indexed": true,
          "internalType": "address",
          "name": "user",
          "type": "address"
        },
        {
          "indexed": true,
          "internalType": "uint8",
          "name": "etype",
          "type": "uint8"
        },
        {
          "indexed": false,
          "internalType": "int16",
          "name": "delta",
          "type": "int16"
        },
        {
          "indexed": false,
          "internalType": "uint16",
          "name": "newScore",
          "type": "uint16"
        },
        {
          "indexed": false,
          "internalType": "bytes32",
          "name": "ctx",
          "type": "bytes32"
        }
      ],
      "name": "Logged",
      "type": "event"
    },
    {
      "anonymous": false,
      "inputs": [
        {
          "indexed": true,
          "internalType": "address",
          "name": "previousOwner",
          "type": "address"
        },
        {
          "indexed": true,
          "internalType": "address",
          "name": "newOwner",
          "type": "address"
        }
      ],
      "name": "OwnershipTransferStarted",
      "type": "event"
    },
    {
      "anonymous": false,
      "inputs": [
        {
          "indexed": true,
          "internalType": "address",
          "name": "previousOwner",
          "type": "address"
        },
        {
          "indexed": true,
          "internalType": "address",
          "name": "newOwner",
          "type": "address"
        }
      ],
      "name": "OwnershipTransferred",
      "type": "event"
    },
    {
      "anonymous": false,
      "inputs": [
        {
          "indexed": true,
          "internalType": "address",
          "name": "reporter",
          "type": "address"
        },
        {
          "indexed": false,
          "internalType": "bool",
          "name": "authorized",
          "type": "bool"
        }
      ],
      "name": "ReporterAuthorized",
      "type": "event"
    },
    {
      "anonymous": false,
      "inputs": [
        {
          "indexed": true,
          "internalType": "address",
          "name": "user",
          "type": "address"
        },
        {
          "indexed": false,
          "internalType": "uint16",
          "name": "newScore",
          "type": "uint16"
        }
      ],
      "name": "ScoreSet",
      "type": "event"
    },
    {
      "anonymous": false,
      "inputs": [
        {
          "indexed": true,
          "internalType": "uint8",
          "name": "etype",
          "type": "uint8"
        },
        {
          "indexed": false,
          "internalType": "int16",
          "name": "delta",
          "type": "int16"
        }
      ],
      "name": "WeightSet",
      "type": "event"
    },
    {
      "inputs": [],
      "name": "MAX_SCORE",
      "outputs": [
        {
          "internalType": "uint16",
          "name": "",
          "type": "uint16"
        }
      ],
      "stateMutability": "view",
      "type": "function"
    },
    {
      "inputs": [],
      "name": "acceptOwnership",
      "outputs": [],
      "stateMutability": "nonpayable",
      "type": "function"
    },
    {
      "inputs": [
        {
          "internalType": "address",
          "name": "",
          "type": "address"
        }
      ],
      "name": "authorizedReporter",
      "outputs": [
        {
          "internalType": "bool",
          "name": "",
          "type": "bool"
        }
      ],
      "stateMutability": "view",
      "type": "function"
    },
    {
      "inputs": [
        {
          "internalType": "address",
          "name": "user",
          "type": "address"
        }
      ],
      "name": "currentScore",
      "outputs": [
        {
          "internalType": "uint16",
          "name": "",
          "type": "uint16"
        }
      ],
      "stateMutability": "view",
      "type": "function"
    },
    {
      "inputs": [],
      "name": "dao",
      "outputs": [
        {
          "internalType": "address",
          "name": "",
          "type": "address"
        }
      ],
      "stateMutability": "view",
      "type": "function"
    },
    {
      "inputs": [
        {
          "internalType": "address",
          "name": "user",
          "type": "address"
        },
        {
          "internalType": "uint256",
          "name": "index",
          "type": "uint256"
        }
      ],
      "name": "eventOf",
      "outputs": [
        {
          "components": [
            {
              "internalType": "uint64",
              "name": "ts",
              "type": "uint64"
            },
            {
              "internalType": "uint8",
              "name": "etype",
              "type": "uint8"
            },
            {
              "internalType": "int16",
              "name": "delta",
              "type": "int16"
            },
            {
              "internalType": "uint16",
              "name": "score",
              "type": "uint16"
            },
            {
              "internalType": "bytes32",
              "name": "ctx",
              "type": "bytes32"
            }
          ],
          "internalType": "struct ProofLedger.Entry",
          "name": "",
          "type": "tuple"
        }
      ],
      "stateMutability": "view",
      "type": "function"
    },
    {
      "inputs": [
        {
          "internalType": "address",
          "name": "user",
          "type": "address"
        }
      ],
      "name": "eventsOf",
      "outputs": [
        {
          "components": [
            {
              "internalType": "uint64",
              "name": "ts",
              "type": "uint64"
            },
            {
              "internalType": "uint8",
              "name": "etype",
              "type": "uint8"
            },
            {
              "internalType": "int16",
              "name": "delta",
              "type": "int16"
            },
            {
              "internalType": "uint16",
              "name": "score",
              "type": "uint16"
            },
            {
              "internalType": "bytes32",
              "name": "ctx",
              "type": "bytes32"
            }
          ],
          "internalType": "struct ProofLedger.Entry[]",
          "name": "",
          "type": "tuple[]"
        }
      ],
      "stateMutability": "view",
      "type": "function"
    },
    {
      "inputs": [
        {
          "internalType": "address",
          "name": "user",
          "type": "address"
        },
        {
          "internalType": "uint8",
          "name": "etype",
          "type": "uint8"
        },
        {
          "internalType": "bytes32",
          "name": "ctx",
          "type": "bytes32"
        }
      ],
      "name": "logEvent",
      "outputs": [],
      "stateMutability": "nonpayable",
      "type": "function"
    },
    {
      "inputs": [],
      "name": "maxClamp",
      "outputs": [
        {
          "internalType": "uint16",
          "name": "",
          "type": "uint16"
        }
      ],
      "stateMutability": "view",
      "type": "function"
    },
    {
      "inputs": [],
      "name": "minClamp",
      "outputs": [
        {
          "internalType": "uint16",
          "name": "",
          "type": "uint16"
        }
      ],
      "stateMutability": "view",
      "type": "function"
    },
    {
      "inputs": [],
      "name": "owner",
      "outputs": [
        {
          "internalType": "address",
          "name": "",
          "type": "address"
        }
      ],
      "stateMutability": "view",
      "type": "function"
    },
    {
      "inputs": [],
      "name": "pendingOwner",
      "outputs": [
        {
          "internalType": "address",
          "name": "",
          "type": "address"
        }
      ],
      "stateMutability": "view",
      "type": "function"
    },
    {
      "inputs": [],
      "name": "renounceOwnership",
      "outputs": [],
      "stateMutability": "nonpayable",
      "type": "function"
    },
    {
      "inputs": [
        {
          "internalType": "address",
          "name": "user",
          "type": "address"
        }
      ],
      "name": "riskLevelOf",
      "outputs": [
        {
          "internalType": "enum ProofLedger.RiskLevel",
          "name": "",
          "type": "uint8"
        }
      ],
      "stateMutability": "view",
      "type": "function"
    },
    {
      "inputs": [
        {
          "internalType": "address",
          "name": "user",
          "type": "address"
        }
      ],
      "name": "scoreOf",
      "outputs": [
        {
          "internalType": "uint16",
          "name": "",
          "type": "uint16"
        }
      ],
      "stateMutability": "view",
      "type": "function"
    },
    {
      "inputs": [
        {
          "internalType": "uint16",
          "name": "minClamp_",
          "type": "uint16"
        },
        {
          "internalType": "uint16",
          "name": "maxClamp_",
          "type": "uint16"
        }
      ],
      "name": "setClamps",
      "outputs": [],
      "stateMutability": "nonpayable",
      "type": "function"
    },
    {
      "inputs": [
        {
          "internalType": "address",
          "name": "dao_",
          "type": "address"
        }
      ],
      "name": "setDAO",
      "outputs": [],
      "stateMutability": "nonpayable",
      "type": "function"
    },
    {
      "inputs": [
        {
          "internalType": "address",
          "name": "reporter",
          "type": "address"
        },
        {
          "internalType": "bool",
          "name": "authorized",
          "type": "bool"
        }
      ],
      "name": "setReporter",
      "outputs": [],
      "stateMutability": "nonpayable",
      "type": "function"
    },
    {
      "inputs": [
        {
          "internalType": "address[]",
          "name": "reporters",
          "type": "address[]"
        },
        {
          "internalType": "bool",
          "name": "authorized",
          "type": "bool"
        }
      ],
      "name": "setReporters",
      "outputs": [],
      "stateMutability": "nonpayable",
      "type": "function"
    },
    {
      "inputs": [
        {
          "internalType": "address",
          "name": "user",
          "type": "address"
        },
        {
          "internalType": "uint16",
          "name": "newScore",
          "type": "uint16"
        }
      ],
      "name": "setScore",
      "outputs": [],
      "stateMutability": "nonpayable",
      "type": "function"
    },
    {
      "inputs": [
        {
          "internalType": "uint8",
          "name": "etype",
          "type": "uint8"
        },
        {
          "internalType": "int16",
          "name": "delta",
          "type": "int16"
        }
      ],
      "name": "setWeight",
      "outputs": [],
      "stateMutability": "nonpayable",
      "type": "function"
    },
    {
      "inputs": [
        {
          "internalType": "uint8[]",
          "name": "etypes",
          "type": "uint8[]"
        },
        {
          "internalType": "int16[]",
          "name": "deltas",
          "type": "int16[]"
        }
      ],
      "name": "setWeights",
      "outputs": [],
      "stateMutability": "nonpayable",
      "type": "function"
    },
    {
      "inputs": [
        {
          "internalType": "address",
          "name": "user",
          "type": "address"
        }
      ],
      "name": "totalEvents",
      "outputs": [
        {
          "internalType": "uint256",
          "name": "",
          "type": "uint256"
        }
      ],
      "stateMutability": "view",
      "type": "function"
    },
    {
      "inputs": [
        {
          "internalType": "address",
          "name": "newOwner",
          "type": "address"
        }
      ],
      "name": "transferOwnership",
      "outputs": [],
      "stateMutability": "nonpayable",
      "type": "function"
    },
    {
      "inputs": [
        {
          "internalType": "uint8",
          "name": "",
          "type": "uint8"
        }
      ],
      "name": "weightOf",
      "outputs": [
        {
          "internalType": "int16",
          "name": "",
          "type": "int16"
        }
      ],
      "stateMutability": "view",
      "type": "function"
    }
  ],
  "bytecode": "0x6080346100e557601f6113a238819003918201601f19168301916001600160401b038311848410176100ea578084926020946040528339810103126100e557516001600160a01b0381168082036100e55761005933610100565b60016002556303e8000063ffffffff196008541617600855156100d45761007f90610100565b3360005260066020526040600020600160ff19825416179055604051600181527fd47f4d9453e9791c794cf5aa87230761df19291606f7b48627c71d934e67271460203392a260405161124c90816101568239f35b63d92e233d60e01b60005260046000fd5b600080fd5b634e487b7160e01b600052604160045260246000fd5b600180546001600160a01b0319908116909155600080546001600160a01b03938416928116831782559192909116907f8be0079c531659141344cd1fd0a4f28419497f9722a3daafe3b4186f6b6457e09080a356fe608080604052600436101561001357600080fd5b60003560e01c9081630116ea2814610f7a5750806302cb0bfc14610e75578063133af456146107f35780632283771514610e5357806327ff622314610e3657806328dd9b3914610d415780633e66466814610cf75780634162169f14610cce5780634bbd6d4d14610c1c57806362fe451d14610bf757806368ed44e714610ac9578063715018a614610a6457806373e29a8814610a2557806379ba50971461095a578063885caa1a146107f85780638a440b00146107f35780638d4a8ea2146106f95780638da5cb5b146106d05780639286aba814610411578063a9d1a45d1461036c578063dea49e4814610335578063e1bb513314610285578063e30c39781461025c578063e73a914c146101ab5763f2fde38b1461013257600080fd5b346101a65760203660031901126101a65761014b610fb0565b6101536111be565b60018060a01b0316806bffffffffffffffffffffffff60a01b600154161760015560018060a01b03600054167f38d16b8cac22d99fc7c124b9cd0de2d3fa1faef420bfe791d8c362d765e22700600080a3005b600080fd5b346101a65760203660031901126101a6576101c4610fb0565b6000546001600160a01b031633141580610247575b610236576001600160a01b0316801561022557600580546001600160a01b031916821790557f395c0f5a57accc3f0c20646b402f0845c448f3e4ac4a2ec56a3eaf26d15bf79a600080a2005b63d92e233d60e01b60005260046000fd5b63b577c1f760e01b60005260046000fd5b506005546001600160a01b03163314156101d9565b346101a65760003660031901126101a6576001546040516001600160a01b039091168152602090f35b346101a65760403660031901126101a65761029e610fb0565b6102a6611045565b9060018060a01b036000541633141580610320575b610236576001600160a01b03169081156102255760207fd47f4d9453e9791c794cf5aa87230761df19291606f7b48627c71d934e6727149183600052600682526103158160406000209060ff801983541691151516179055565b6040519015158152a2005b506005546001600160a01b03163314156102bb565b346101a65760203660031901126101a65760ff610350611054565b166000526007602052602060406000205460010b604051908152f35b346101a65760403660031901126101a657610385611054565b602435908160010b908183036101a6576000546001600160a01b0316331415806103fc575b610236577ed93f11eba823078eadb6641c5868297e1748d08ad539868a5f15982a85bddc9160ff6020921693846000526007835260406000209061ffff198254169061ffff16179055604051908152a2005b506005546001600160a01b03163314156103aa565b346101a65760603660031901126101a65761042a610fb0565b6024359060ff82168092036101a65760443590600280541461068b576002805533600052600660205260ff604060002054161561067a576001600160a01b03169081156102255781600052600360205261ffff6040600020541683600052600760205260406000205460010b90600082820192831291129080158216911516176106645760085461ffff919080831680831261065c575b5060101c8216808213610654575b501690826000526003602052604060002061ffff831661ffff1982541617905582600052600460205260406000209184600052600760205260406000205460010b916105196110c3565b67ffffffffffffffff421681526020810190878252604081019485526060810195848752608082019084825280546801000000000000000081101561063e57610567916001820181556110e3565b93909361062857915183549251965197516cffffffffffffffffffffffffff1990931667ffffffffffffffff9190911617604096871b68ff000000000000000016176affff00000000000000000060489890981b979097169690961760589190911b61ffff60581b16178155935160019485015560008681526007602090815290849020548451950b8552840191909152908201527e7a05dd095c91afc916c3a57f913d007893e44094f434426b29a18e89dcac6c90606090a36001600255005b634e487b7160e01b600052600060045260246000fd5b634e487b7160e01b600052604160045260246000fd5b9050856104cf565b9150826104c1565b634e487b7160e01b600052601160045260246000fd5b63e5ce9c0960e01b60005260046000fd5b60405162461bcd60e51b815260206004820152601f60248201527f5265656e7472616e637947756172643a207265656e7472616e742063616c6c006044820152606490fd5b346101a65760003660031901126101a6576000546040516001600160a01b039091168152602090f35b346101a65760403660031901126101a65760043567ffffffffffffffff81116101a65761072a903690600401611014565b610732611045565b9160018060a01b0360005416331415806107de575b61023657908215159060005b81811061075c57005b61076781838661115c565b356001600160a01b03811691908290036101a65781600192156107d8578060005260066020526107a78760406000209060ff801983541691151516179055565b7fd47f4d9453e9791c794cf5aa87230761df19291606f7b48627c71d934e6727146020604051878152a25b01610753565b506107d2565b506005546001600160a01b0316331415610747565b610fd7565b346101a65760403660031901126101a65760043567ffffffffffffffff81116101a657610829903690600401611014565b9060243567ffffffffffffffff81116101a65761084a903690600401611014565b6000546001600160a01b031633141580610945575b610236578084036109115760005b84811061087657005b8061088c610887600193858761115c565b61116c565b60ff6108a161089c848a8a61115c565b61117a565b16600052600760205260406000209061ffff198254169061ffff161790556108cd61089c82888861115c565b7ed93f11eba823078eadb6641c5868297e1748d08ad539868a5f15982a85bddc602060ff6108ff61088786898b61115c565b9360405194870b85521692a20161086d565b60405162461bcd60e51b815260206004820152600c60248201526b0d8cadc40dad2e6dac2e8c6d60a31b6044820152606490fd5b506005546001600160a01b031633141561085f565b346101a65760003660031901126101a657600154336001600160a01b03909116036109ce57600180546001600160a01b03199081169091556000805433928116831782556001600160a01b0316907f8be0079c531659141344cd1fd0a4f28419497f9722a3daafe3b4186f6b6457e09080a3005b60405162461bcd60e51b815260206004820152602960248201527f4f776e61626c6532537465703a2063616c6c6572206973206e6f7420746865206044820152683732bb9037bbb732b960b91b6064820152608490fd5b346101a65760203660031901126101a6576001600160a01b03610a46610fb0565b166000526006602052602060ff604060002054166040519015158152f35b346101a65760003660031901126101a657610a7d6111be565b600180546001600160a01b0319908116909155600080549182168155906001600160a01b03167f8be0079c531659141344cd1fd0a4f28419497f9722a3daafe3b4186f6b6457e08280a3005b346101a65760203660031901126101a6576001600160a01b03610aea610fb0565b166000526004602052604060002080549067ffffffffffffffff821161063e5760405191601f19603f8260051b0116830183811067ffffffffffffffff82111761063e5760405280835260208301809260005260206000206000915b838310610bd95784866040519182916020830190602084525180915260408301919060005b818110610b79575050500390f35b91935091602060a082610bcb60019488516080809167ffffffffffffffff815116845260ff6020820151166020850152604081015160010b604085015261ffff60608201511660608501520151910152565b019401910191849392610b6b565b60026020600192610be985611115565b815201920192019190610b46565b346101a65760003660031901126101a657602061ffff60085460101c16604051908152f35b346101a65760403660031901126101a657610c35610fb0565b60006080610c416110c3565b828152826020820152826040820152826060820152015260018060a01b0316600052600460205260a0610c83610c7d60243560406000206110e3565b50611115565b610ccc60405180926080809167ffffffffffffffff815116845260ff6020820151166020850152604081015160010b604085015261ffff60608201511660608501520151910152565bf35b346101a65760003660031901126101a6576005546040516001600160a01b039091168152602090f35b346101a65760203660031901126101a657610d18610d13610fb0565b611064565b6040516005821015610d2b576020918152f35b634e487b7160e01b600052602160045260246000fd5b346101a65760403660031901126101a657610d5a610fb0565b610d62610fc6565b9060018060a01b036000541633141580610e21575b610236576001600160a01b0316908115610225576103e861ffff821611610df057610da190611188565b600082815260036020908152604091829020805461ffff191661ffff94909416938417905590519182527fc4eec096690e143d7d3c5ea0f9c7c493150a06468cadd241ead4107cb4abe6fa91a2005b60405162461bcd60e51b81526020600482015260096024820152680e6c6dee4ca7c9a82b60bb1b6044820152606490fd5b506005546001600160a01b0316331415610d77565b346101a65760003660031901126101a65760206040516103e88152f35b346101a65760003660031901126101a657602061ffff60085416604051908152f35b346101a65760403660031901126101a65760043561ffff81168091036101a657610e9d610fc6565b6000546001600160a01b031633141580610f65575b6102365761ffff8116808311610f54576103e810610f1f578161ffff6040927fb78ae16e43b67b8ccc1ac7d131c564a40b88f5c38d3e811f9b05cee3075164419463ffff00006008549260101b169163ffffffff1916171780600855835192835260101c166020820152a1005b60405162461bcd60e51b815260206004820152600d60248201526c6d61783e4d41585f53434f524560981b6044820152606490fd5b635e924de560e01b60005260046000fd5b506005546001600160a01b0316331415610eb2565b346101a65760203660031901126101a6576020906001600160a01b03610f9e610fb0565b16600052600482526040600020548152f35b600435906001600160a01b03821682036101a657565b6024359061ffff821682036101a657565b346101a65760203660031901126101a657610ff0610fb0565b60018060a01b03166000526003602052602061ffff60406000205416604051908152f35b9181601f840112156101a65782359167ffffffffffffffff83116101a6576020808501948460051b0101116101a657565b6024359081151582036101a657565b6004359060ff821682036101a657565b6001600160a01b031660009081526003602052604090205461ffff166103848110156110bd576102bc8110156110b7576101f48110156110b15761012c11156110ac57600090565b600190565b50600290565b50600390565b50600490565b6040519060a0820182811067ffffffffffffffff82111761063e57604052565b80548210156110ff5760005260206000209060011b0190600090565b634e487b7160e01b600052603260045260246000fd5b9060016111206110c3565b9261ffff815467ffffffffffffffff8116865260ff8160401c1660208701528060481c840b604087015260581c16606085015201546080830152565b91908110156110ff5760051b0190565b358060010b81036101a65790565b3560ff811681036101a65790565b60085461ffff81169061ffff8316918083106111b7575061ffff9060101c168091116111b2575090565b905090565b9250505090565b6000546001600160a01b031633036111d257565b606460405162461bcd60e51b815260206004820152602060248201527f4f776e61626c653a2063616c6c6572206973206e6f7420746865206f776e65726044820152fdfea2646970667358221220f86ab0f8b2a933100c4c90e0d56e9256e6ca84c7bf8ab0d1590b8f1d538161bc64736f6c634300081e0033",
  "linkReferences": {},
  "deployedLinkReferences": {}
}