{"abi":[{"type":"function","name":"halted","inputs":[],"outputs":[{"name":"","type":"bool","internalType":"bool"}],"stateMutability":"view"},{"type":"function","name":"toggle","inputs":[{"name":"","type":"bool","internalType":"bool"},{"name":"","type":"string","internalType":"string"}],"outputs":[],"stateMutability":"nonpayable"}],"bytecode":{"object":"0x6080806040523460135760d0908160188239f35b5f80fdfe60808060405260043610156011575f80fd5b5f3560e01c8063337d1d5b1460475763b9b8af0b14602d575f80fd5b346043575f366003190112604357805f60209252f35b5f80fd5b3460435760403660031901126043576004358015150360435760243567ffffffffffffffff811160435736602382011215604357806004013567ffffffffffffffff81116043573691016024011160435700fea26469706673582212201fd74ccfef3a785fb5f9f3a308cde86ca67fc2184bd70e1e3cf1466af54fcfa864736f6c634300081e0033","linkReferences":{}},"methodIdentifiers":{"halted()":"b9b8af0b","toggle(bool,string)":"337d1d5b"},"id":74}