{"abi":[{"type":"function","name":"halted","inputs":[],"outputs":[{"name":"","type":"bool","internalType":"bool"}],"stateMutability":"view"},{"type":"function","name":"toggle","inputs":[{"name":"","type":"bool","internalType":"bool"},{"name":"","type":"string","internalType":"string"}],"outputs":[],"stateMutability":"nonpayable"}],"bytecode":{"object":"0x6080806040523460135760ce908160188239f35b5f80fdfe60808060405260043610156011575f80fd5b5f3560e01c8063337d1d5b1460475763b9b8af0b14602d575f80fd5b346043575f366003190112604357805f60209252f35b5f80fd5b346043576040366003190112604357600435801515036043576024356001600160401b0381116043573660238201121560435780600401356001600160401b0381116043573691016024011160435700fea2646970667358221220e86cca151bac16940efd0932a5a35ec1d92cea20ea766822c61dfa626dd4e87364736f6c634300081e0033","linkReferences":{}},"methodIdentifiers":{"halted()":"b9b8af0b","toggle(bool,string)":"337d1d5b"},"id":80}