{"abi":[{"type":"function","name":"setLocked","inputs":[{"name":"","type":"bool","internalType":"bool"}],"outputs":[],"stateMutability":"nonpayable"}],"bytecode":{"object":"0x608080604052346013576072908160188239f35b5f80fdfe6004361015600b575f80fd5b5f3560e01c63211e28b614601d575f80fd5b34603857602036600319011260385760043580151503603857005b5f80fdfea26469706673582212207cb213c1808ded97cf705c1102c0ee9741d2cd134d6af321edc81037524b4aec64736f6c634300081e0033","linkReferences":{}},"methodIdentifiers":{"setLocked(bool)":"211e28b6"},"id":74}