{"abi":[{"type":"function","name":"isQuarantined","inputs":[{"name":"","type":"address","internalType":"address"}],"outputs":[{"name":"","type":"bool","internalType":"bool"}],"stateMutability":"view"}],"bytecode":{"object":"0x608080604052346013576085908160188239f35b5f80fdfe60808060405260043610156011575f80fd5b5f3560e01c63485d6ef8146023575f80fd5b34604b576020366003190112604b576004356001600160a01b03811603604b57805f60209252f35b5f80fdfea26469706673582212206dfbf87922e47e4c9a0aa8ae36b7f02713b8db8f28590e04e39eefdb3d0cac5564736f6c634300081e0033","linkReferences":{}},"methodIdentifiers":{"isQuarantined(address)":"485d6ef8"},"id":74}