{"abi":[{"type":"function","name":"isQuarantined","inputs":[{"name":"","type":"address","internalType":"address"}],"outputs":[{"name":"","type":"bool","internalType":"bool"}],"stateMutability":"view"}],"bytecode":{"object":"0x608080604052346013576085908160188239f35b5f80fdfe60808060405260043610156011575f80fd5b5f3560e01c63485d6ef8146023575f80fd5b34604b576020366003190112604b576004356001600160a01b03811603604b57805f60209252f35b5f80fdfea2646970667358221220b08bbef1fc0c93c000defc639e23283b99abe9fa73587a9aa1d9b89c3a3c73df64736f6c634300081e0033","linkReferences":{}},"methodIdentifiers":{"isQuarantined(address)":"485d6ef8"},"id":75}