{"abi":[{"type":"function","name":"disburse","inputs":[{"name":"","type":"address","internalType":"address"},{"name":"","type":"uint256","internalType":"uint256"}],"outputs":[],"stateMutability":"nonpayable"}],"bytecode":{"object":"0x608080604052346013576079908160188239f35b5f80fdfe6004361015600b575f80fd5b5f3560e01c637f3bd56e14601d575f80fd5b34603f576040366003190112603f576004356001600160a01b03811603603f57005b5f80fdfea2646970667358221220b2fcdd2b048dc66509e29ebb50b9f3d04a8b25aae40a1b0d3eac8a4ec2a5298464736f6c634300081e0033","linkReferences":{}},"methodIdentifiers":{"disburse(address,uint256)":"7f3bd56e"},"id":75}