{"abi":[{"type":"function","name":"disburse","inputs":[{"name":"","type":"address","internalType":"address"},{"name":"","type":"uint256","internalType":"uint256"}],"outputs":[],"stateMutability":"nonpayable"}],"bytecode":{"object":"0x608080604052346013576079908160188239f35b5f80fdfe6004361015600b575f80fd5b5f3560e01c637f3bd56e14601d575f80fd5b34603f576040366003190112603f576004356001600160a01b03811603603f57005b5f80fdfea2646970667358221220aa6d7520931b654f9da3e2a292201b0a4859edae23aca32b17262ea83317e44664736f6c634300081e0033","linkReferences":{}},"methodIdentifiers":{"disburse(address,uint256)":"7f3bd56e"},"id":74}