{
  "_format": "hh-sol-artifact-1",
  "contractName": "ProofScoreBurnRouter",
  "sourceName": "contracts/ProofScoreBurnRouter.sol",
  "abi": [
    {
      "inputs": [
        {
          "internalType": "address",
          "name": "vfide_",
          "type": "address"
        },
        {
          "internalType": "address",
          "name": "initialOwner",
          "type": "address"
        }
      ],
      "stateMutability": "nonpayable",
      "type": "constructor"
    },
    {
      "inputs": [],
      "name": "FactoryUnset",
      "type": "error"
    },
    {
      "inputs": [],
      "name": "NoVault",
      "type": "error"
    },
    {
      "inputs": [],
      "name": "NotGov",
      "type": "error"
    },
    {
      "inputs": [
        {
          "internalType": "string",
          "name": "why",
          "type": "string"
        }
      ],
      "name": "RiskRejected",
      "type": "error"
    },
    {
      "inputs": [],
      "name": "SanctumUnset",
      "type": "error"
    },
    {
      "inputs": [],
      "name": "SeerUnset",
      "type": "error"
    },
    {
      "inputs": [],
      "name": "ZeroAddress",
      "type": "error"
    },
    {
      "anonymous": false,
      "inputs": [
        {
          "indexed": true,
          "internalType": "address",
          "name": "dao",
          "type": "address"
        }
      ],
      "name": "DAOUpdated",
      "type": "event"
    },
    {
      "anonymous": false,
      "inputs": [
        {
          "indexed": true,
          "internalType": "address",
          "name": "factory",
          "type": "address"
        }
      ],
      "name": "FactorySet",
      "type": "event"
    },
    {
      "anonymous": false,
      "inputs": [
        {
          "indexed": true,
          "internalType": "address",
          "name": "previousOwner",
          "type": "address"
        },
        {
          "indexed": true,
          "internalType": "address",
          "name": "newOwner",
          "type": "address"
        }
      ],
      "name": "OwnershipTransferStarted",
      "type": "event"
    },
    {
      "anonymous": false,
      "inputs": [
        {
          "indexed": true,
          "internalType": "address",
          "name": "previousOwner",
          "type": "address"
        },
        {
          "indexed": true,
          "internalType": "address",
          "name": "newOwner",
          "type": "address"
        }
      ],
      "name": "OwnershipTransferred",
      "type": "event"
    },
    {
      "anonymous": false,
      "inputs": [
        {
          "indexed": true,
          "internalType": "address",
          "name": "proof",
          "type": "address"
        }
      ],
      "name": "ProofSinkSet",
      "type": "event"
    },
    {
      "anonymous": false,
      "inputs": [
        {
          "indexed": true,
          "internalType": "address",
          "name": "vault",
          "type": "address"
        },
        {
          "indexed": false,
          "internalType": "bool",
          "name": "exempt",
          "type": "bool"
        }
      ],
      "name": "RiskExemptVaultSet",
      "type": "event"
    },
    {
      "anonymous": false,
      "inputs": [
        {
          "indexed": false,
          "internalType": "bool",
          "name": "enabled",
          "type": "bool"
        }
      ],
      "name": "RiskGateToggled",
      "type": "event"
    },
    {
      "anonymous": false,
      "inputs": [
        {
          "indexed": false,
          "internalType": "bool",
          "name": "blockIfBlocked",
          "type": "bool"
        },
        {
          "indexed": false,
          "internalType": "uint16",
          "name": "burnMinBps",
          "type": "uint16"
        },
        {
          "indexed": false,
          "internalType": "uint16",
          "name": "burnMaxBps",
          "type": "uint16"
        },
        {
          "indexed": false,
          "internalType": "uint16",
          "name": "blockedBurnBps",
          "type": "uint16"
        },
        {
          "indexed": false,
          "internalType": "uint16",
          "name": "minSenderScoreTx",
          "type": "uint16"
        },
        {
          "indexed": false,
          "internalType": "uint16",
          "name": "minReceiverScoreTx",
          "type": "uint16"
        }
      ],
      "name": "RiskParamsUpdated",
      "type": "event"
    },
    {
      "anonymous": false,
      "inputs": [
        {
          "indexed": true,
          "internalType": "address",
          "name": "user",
          "type": "address"
        },
        {
          "indexed": true,
          "internalType": "address",
          "name": "userVault",
          "type": "address"
        },
        {
          "indexed": false,
          "internalType": "uint16",
          "name": "score",
          "type": "uint16"
        },
        {
          "indexed": false,
          "internalType": "uint16",
          "name": "burnBps",
          "type": "uint16"
        },
        {
          "indexed": false,
          "internalType": "uint256",
          "name": "amountIn",
          "type": "uint256"
        },
        {
          "indexed": false,
          "internalType": "uint256",
          "name": "burned",
          "type": "uint256"
        },
        {
          "indexed": false,
          "internalType": "uint256",
          "name": "toSanctum",
          "type": "uint256"
        }
      ],
      "name": "Routed",
      "type": "event"
    },
    {
      "anonymous": false,
      "inputs": [
        {
          "indexed": true,
          "internalType": "address",
          "name": "sanctum",
          "type": "address"
        }
      ],
      "name": "SanctumSet",
      "type": "event"
    },
    {
      "anonymous": false,
      "inputs": [
        {
          "indexed": true,
          "internalType": "address",
          "name": "seer",
          "type": "address"
        }
      ],
      "name": "SeerSet",
      "type": "event"
    },
    {
      "inputs": [],
      "name": "MAX_SCORE",
      "outputs": [
        {
          "internalType": "uint16",
          "name": "",
          "type": "uint16"
        }
      ],
      "stateMutability": "view",
      "type": "function"
    },
    {
      "inputs": [],
      "name": "acceptOwnership",
      "outputs": [],
      "stateMutability": "nonpayable",
      "type": "function"
    },
    {
      "inputs": [],
      "name": "blockIfBlocked",
      "outputs": [
        {
          "internalType": "bool",
          "name": "",
          "type": "bool"
        }
      ],
      "stateMutability": "view",
      "type": "function"
    },
    {
      "inputs": [],
      "name": "blockedBurnBps",
      "outputs": [
        {
          "internalType": "uint16",
          "name": "",
          "type": "uint16"
        }
      ],
      "stateMutability": "view",
      "type": "function"
    },
    {
      "inputs": [],
      "name": "burnMaxBps",
      "outputs": [
        {
          "internalType": "uint16",
          "name": "",
          "type": "uint16"
        }
      ],
      "stateMutability": "view",
      "type": "function"
    },
    {
      "inputs": [],
      "name": "burnMinBps",
      "outputs": [
        {
          "internalType": "uint16",
          "name": "",
          "type": "uint16"
        }
      ],
      "stateMutability": "view",
      "type": "function"
    },
    {
      "inputs": [],
      "name": "dao",
      "outputs": [
        {
          "internalType": "address",
          "name": "",
          "type": "address"
        }
      ],
      "stateMutability": "view",
      "type": "function"
    },
    {
      "inputs": [],
      "name": "factory",
      "outputs": [
        {
          "internalType": "contract IVaultFactoryView",
          "name": "",
          "type": "address"
        }
      ],
      "stateMutability": "view",
      "type": "function"
    },
    {
      "inputs": [],
      "name": "minReceiverScoreTx",
      "outputs": [
        {
          "internalType": "uint16",
          "name": "",
          "type": "uint16"
        }
      ],
      "stateMutability": "view",
      "type": "function"
    },
    {
      "inputs": [],
      "name": "minSenderScoreTx",
      "outputs": [
        {
          "internalType": "uint16",
          "name": "",
          "type": "uint16"
        }
      ],
      "stateMutability": "view",
      "type": "function"
    },
    {
      "inputs": [],
      "name": "owner",
      "outputs": [
        {
          "internalType": "address",
          "name": "",
          "type": "address"
        }
      ],
      "stateMutability": "view",
      "type": "function"
    },
    {
      "inputs": [],
      "name": "pendingOwner",
      "outputs": [
        {
          "internalType": "address",
          "name": "",
          "type": "address"
        }
      ],
      "stateMutability": "view",
      "type": "function"
    },
    {
      "inputs": [
        {
          "internalType": "address",
          "name": "user",
          "type": "address"
        },
        {
          "internalType": "uint256",
          "name": "amount",
          "type": "uint256"
        }
      ],
      "name": "preview",
      "outputs": [
        {
          "internalType": "uint16",
          "name": "score",
          "type": "uint16"
        },
        {
          "internalType": "uint16",
          "name": "burnBps",
          "type": "uint16"
        },
        {
          "internalType": "uint256",
          "name": "burnAmt",
          "type": "uint256"
        },
        {
          "internalType": "uint256",
          "name": "sanctumAmt",
          "type": "uint256"
        }
      ],
      "stateMutability": "view",
      "type": "function"
    },
    {
      "inputs": [],
      "name": "proof",
      "outputs": [
        {
          "internalType": "contract IProofLedger",
          "name": "",
          "type": "address"
        }
      ],
      "stateMutability": "view",
      "type": "function"
    },
    {
      "inputs": [],
      "name": "renounceOwnership",
      "outputs": [],
      "stateMutability": "nonpayable",
      "type": "function"
    },
    {
      "inputs": [
        {
          "internalType": "address",
          "name": "",
          "type": "address"
        }
      ],
      "name": "riskExemptVault",
      "outputs": [
        {
          "internalType": "bool",
          "name": "",
          "type": "bool"
        }
      ],
      "stateMutability": "view",
      "type": "function"
    },
    {
      "inputs": [],
      "name": "riskGateEnabled",
      "outputs": [
        {
          "internalType": "bool",
          "name": "",
          "type": "bool"
        }
      ],
      "stateMutability": "view",
      "type": "function"
    },
    {
      "inputs": [
        {
          "internalType": "uint256",
          "name": "amount",
          "type": "uint256"
        }
      ],
      "name": "route",
      "outputs": [],
      "stateMutability": "nonpayable",
      "type": "function"
    },
    {
      "inputs": [],
      "name": "sanctum",
      "outputs": [
        {
          "internalType": "address",
          "name": "",
          "type": "address"
        }
      ],
      "stateMutability": "view",
      "type": "function"
    },
    {
      "inputs": [],
      "name": "seer",
      "outputs": [
        {
          "internalType": "contract ISeerView",
          "name": "",
          "type": "address"
        }
      ],
      "stateMutability": "view",
      "type": "function"
    },
    {
      "inputs": [
        {
          "internalType": "address",
          "name": "dao_",
          "type": "address"
        }
      ],
      "name": "setDAO",
      "outputs": [],
      "stateMutability": "nonpayable",
      "type": "function"
    },
    {
      "inputs": [
        {
          "internalType": "address",
          "name": "factory_",
          "type": "address"
        }
      ],
      "name": "setFactory",
      "outputs": [],
      "stateMutability": "nonpayable",
      "type": "function"
    },
    {
      "inputs": [
        {
          "internalType": "address",
          "name": "proof_",
          "type": "address"
        }
      ],
      "name": "setProofSink",
      "outputs": [],
      "stateMutability": "nonpayable",
      "type": "function"
    },
    {
      "inputs": [
        {
          "internalType": "address",
          "name": "vault",
          "type": "address"
        },
        {
          "internalType": "bool",
          "name": "exempt",
          "type": "bool"
        }
      ],
      "name": "setRiskExemptVault",
      "outputs": [],
      "stateMutability": "nonpayable",
      "type": "function"
    },
    {
      "inputs": [
        {
          "internalType": "bool",
          "name": "blockIfBlocked_",
          "type": "bool"
        },
        {
          "internalType": "uint16",
          "name": "burnMinBps_",
          "type": "uint16"
        },
        {
          "internalType": "uint16",
          "name": "burnMaxBps_",
          "type": "uint16"
        },
        {
          "internalType": "uint16",
          "name": "blockedBurnBps_",
          "type": "uint16"
        },
        {
          "internalType": "uint16",
          "name": "minSenderScoreTx_",
          "type": "uint16"
        },
        {
          "internalType": "uint16",
          "name": "minReceiverScoreTx_",
          "type": "uint16"
        }
      ],
      "name": "setRiskParams",
      "outputs": [],
      "stateMutability": "nonpayable",
      "type": "function"
    },
    {
      "inputs": [
        {
          "internalType": "address",
          "name": "sanctum_",
          "type": "address"
        }
      ],
      "name": "setSanctum",
      "outputs": [],
      "stateMutability": "nonpayable",
      "type": "function"
    },
    {
      "inputs": [
        {
          "internalType": "address",
          "name": "seer_",
          "type": "address"
        }
      ],
      "name": "setSeer",
      "outputs": [],
      "stateMutability": "nonpayable",
      "type": "function"
    },
    {
      "inputs": [
        {
          "internalType": "bool",
          "name": "enabled",
          "type": "bool"
        }
      ],
      "name": "toggleRiskGate",
      "outputs": [],
      "stateMutability": "nonpayable",
      "type": "function"
    },
    {
      "inputs": [
        {
          "internalType": "address",
          "name": "newOwner",
          "type": "address"
        }
      ],
      "name": "transferOwnership",
      "outputs": [],
      "stateMutability": "nonpayable",
      "type": "function"
    },
    {
      "inputs": [],
      "name": "vfide",
      "outputs": [
        {
          "internalType": "contract IERC20Burnable",
          "name": "",
          "type": "address"
        }
      ],
      "stateMutability": "view",
      "type": "function"
    }
  ],
  "bytecode": "0x60a0346100dc57601f61179e38819003918201601f19168301916001600160401b038311848410176100e15780849260409485528339810103126100dc57610052602061004b836100f7565b92016100f7565b9061005c3361010b565b600160025560078054672710232807d0010160a01b6001600160a01b03918216179091551690811580156100cb575b6100ba5761009b9160805261010b565b60405161163d908161016182396080518181816108000152610efa0152f35b63d92e233d60e01b60005260046000fd5b506001600160a01b0381161561008b565b600080fd5b634e487b7160e01b600052604160045260246000fd5b51906001600160a01b03821682036100dc57565b600180546001600160a01b0319908116909155600080546001600160a01b03938416928116831782559192909116907f8be0079c531659141344cd1fd0a4f28419497f9722a3daafe3b4186f6b6457e09080a356fe6080604052600436101561001257600080fd5b6000803560e01c806313ce19e3146112f15780631ebb029e1461123a57806327ff62231461121d5780632a4569391461118d5780632d55ea39146111645780632d7c3e3c1461113e5780632f326eea1461111d5780634162169f146110f45780634560dfbe146110cf57806348ce2384146110425780635bb4780814610fb35780636322573314610f8e578063715018a614610f2957806372c8ae3b14610ee457806379ba509714610e1b578063823ac84214610df25780638da5cb5b14610dcb5780639cbf1a0514610da5578063b980c78f14610724578063c45a0155146106fb578063d85d4c001461066c578063e0392e6c146103ed578063e071c1c01461035e578063e30c397814610335578063e6128cb4146102f6578063e73a914c14610249578063ebe53aa814610224578063f2fde38b146101b7578063faf924cf1461018e5763fc85aa691461016757600080fd5b3461018b578060031936011261018b57602061ffff60075460e01c16604051908152f35b80fd5b503461018b578060031936011261018b576006546040516001600160a01b039091168152602090f35b503461018b57602036600319011261018b576101d161133a565b6101d96115af565b600180546001600160a01b0319166001600160a01b0392831690811790915582549091167f38d16b8cac22d99fc7c124b9cd0de2d3fa1faef420bfe791d8c362d765e227008380a380f35b503461018b578060031936011261018b57602061ffff60075460c01c16604051908152f35b503461018b57602036600319011261018b5761026361133a565b81546001600160a01b0316331415806102e1575b6102d2576001600160a01b031680156102c357600780546001600160a01b031916821790557f395c0f5a57accc3f0c20646b402f0845c448f3e4ac4a2ec56a3eaf26d15bf79a8280a280f35b63d92e233d60e01b8252600482fd5b63b577c1f760e01b8252600482fd5b506007546001600160a01b0316331415610277565b503461018b57602036600319011261018b5760209060ff906040906001600160a01b0361032161133a565b168152600884522054166040519015158152f35b503461018b578060031936011261018b576001546040516001600160a01b039091168152602090f35b503461018b57602036600319011261018b5761037861133a565b81546001600160a01b0316331415806103d8575b6102d2576001600160a01b031680156102c357600480546001600160a01b031916821790557fc33c1a95c902d772578a793cd3d42b7d0a418863633ff3be7853c55a4d95388a8280a280f35b506007546001600160a01b031633141561038c565b503461018b5760c036600319011261018b57610407611355565b60243561ffff811690818103610668576044359261ffff841690818503610664576064359061ffff8216808303610660576084359361ffff85169081860361065c5760a4359761ffff891693848a03610658578b546001600160a01b031633141580610643575b610634576127108211159081610627575b8161061a575b50156105ea57116105bb576103e8101590816105ae575b501561057d576007805460e094851b61ffff60e01b1660d094851b61ffff60d01b166001600160a81b0390921693151560a890811b60ff60a81b169490941760b097881b61ffff60b01b161760c0998a1b61ffff60c01b1617919091171760f096871b6001600160f01b0319161790819055604080519282901c60ff16151583529481901c61ffff908116602084015281881c8116958301959095529182901c841660608201529181901c9092166080820152911c60a08201527f9f471f20dcad0d19d4f9e0a949c3859b63e3dcf9c14d193cfa367e58e1415eb69190a180f35b60405162461bcd60e51b81526020600482015260096024820152680e6c6dee4ca7cdac2f60bb1b6044820152606490fd5b6103e8915011153861049c565b60405162461bcd60e51b81526020600482015260076024820152660dad2dc7cdac2f60cb1b6044820152606490fd5b60405162461bcd60e51b81526020600482015260086024820152676270733e3130302560c01b6044820152606490fd5b6127109150111538610485565b612710841115915061047f565b63b577c1f760e01b8c5260048cfd5b506007546001600160a01b031633141561046e565b8b80fd5b8980fd5b8780fd5b8580fd5b8380fd5b503461018b57602036600319011261018b5761068661133a565b81546001600160a01b0316331415806106e6575b6102d2576001600160a01b031680156102c357600580546001600160a01b031916821790557fc055695649b31fc38eb41ad6072f3a7edbf36e57cd1b19f5d8a685d52bfc60ae8280a280f35b506007546001600160a01b031633141561069a565b503461018b578060031936011261018b576003546040516001600160a01b039091168152602090f35b503461018b57602036600319011261018b576004356002805414610d6057600280556003546001600160a01b0316908115610d52576004546001600160a01b03168015610d43576005546001600160a01b031615610d34578115610d0457604051630709df4560e01b8152336004820152602081602481875afa908115610ae6578591610cbe575b506001600160a01b0316928315908115610c69575b50610c5a5760075460ff8160a01c1680610c43575b610af1575b50506040516323b872dd60e01b815260048101839052306024820152604481018290527f00000000000000000000000000000000000000000000000000000000000000006001600160a01b0316929060208160648188885af1908115610ae6578591610ac7575b5015610a965783926108533361147d565b92909161271061086f61ffff61086887611364565b168761138e565b049161087b83876113a1565b91836109d9575b82610983575b5061ffff8060405195169586865216938460208201528660408201528260608201528360808201527fa65b018eb38dbf192529584dafe48e317a1309c62ade2e56356ec725f2b974e260a03392a36006546001600160a01b031694856108f2575b86600160025580f35b60405193602085019533875260408601526060850152608084015260a083015260c082015260c0815261092660e082611413565b519020813b1561097f578291606483926040519485938492631250d57560e31b845233600485015282602485015260448401525af161096a575b80808080806108e9565b8161097491611413565b61018b578038610960565b5050fd5b803b156106605787906024604051809b8193630852cd8d60e31b83528760048401525af180156109ce576109b9575b8697610888565b959096816109c691611413565b9486906109b2565b6040513d89823e3d90fd5b60055460405163a9059cbb60e01b81526001600160a01b039091166004820152602481018590529097506020816044818c8c5af1908115610a8b578991610a5c575b5015610a28578796610882565b60405162461bcd60e51b815260206004820152600c60248201526b786665722073616e6374756d60a01b6044820152606490fd5b610a7e915060203d602011610a84575b610a768183611413565b81019061144b565b38610a1b565b503d610a6c565b6040513d8b823e3d90fd5b60405162461bcd60e51b81526020600482015260096024820152681c1d5b1b0819985a5b60ba1b6044820152606490fd5b610ae0915060203d602011610a8457610a768183611413565b38610842565b6040513d87823e3d90fd5b60ff8160a81c1680610be8575b610bb15760e01c61ffff169081156107db5760206024916040519283809263776f384360e01b82523360048301525afa8015610ae65761ffff918691610b82575b501610610b4d5738806107db565b60405163d280005760e01b815260206004820152600c60248201526b73656e6465722073636f726560a01b6044820152606490fd5b610ba4915060203d602011610baa575b610b9c8183611413565b810190611463565b38610b3f565b503d610b92565b60405163d280005760e01b815260206004820152600e60248201526d1cd95b99195c88189b1bd8dad95960921b6044820152606490fd5b5060405163fbac395160e01b8152336004820152602081602481865afa908115610c38578691610c19575b50610afe565b610c32915060203d602011610a8457610a768183611413565b38610c13565b6040513d88823e3d90fd5b50838552600860205260ff604086205416156107d6565b63a1b86ccf60e01b8452600484fd5b602491506020906040519283809263652b9b4160e01b82528860048301525afa908115610ae6578591610c9f575b5015386107c1565b610cb8915060203d602011610a8457610a768183611413565b38610c97565b90506020813d602011610cfc575b81610cd960209383611413565b81010312610cf857516001600160a01b0381168103610cf857386107ac565b8480fd5b3d9150610ccc565b60405162461bcd60e51b81526020600482015260086024820152670616d6f756e743d360c41b6044820152606490fd5b6320d6e0ad60e21b8452600484fd5b6314f2e90960e01b8452600484fd5b6230237760e91b8352600483fd5b60405162461bcd60e51b815260206004820152601f60248201527f5265656e7472616e637947756172643a207265656e7472616e742063616c6c006044820152606490fd5b503461018b578060031936011261018b57602060ff60075460a81c166040519015158152f35b503461018b578060031936011261018b57546040516001600160a01b039091168152602090f35b503461018b578060031936011261018b576005546040516001600160a01b039091168152602090f35b503461018b578060031936011261018b57600154336001600160a01b0390911603610e8d57600180546001600160a01b0319908116909155815433918116821783556001600160a01b03167f8be0079c531659141344cd1fd0a4f28419497f9722a3daafe3b4186f6b6457e08380a380f35b60405162461bcd60e51b815260206004820152602960248201527f4f776e61626c6532537465703a2063616c6c6572206973206e6f7420746865206044820152683732bb9037bbb732b960b91b6064820152608490fd5b503461018b578060031936011261018b576040517f00000000000000000000000000000000000000000000000000000000000000006001600160a01b03168152602090f35b503461018b578060031936011261018b57610f426115af565b600180546001600160a01b03199081169091558154908116825581906001600160a01b03167f8be0079c531659141344cd1fd0a4f28419497f9722a3daafe3b4186f6b6457e08280a380f35b503461018b578060031936011261018b57602061ffff60075460b01c16604051908152f35b503461018b57602036600319011261018b57610fcd61133a565b81546001600160a01b03163314158061102d575b6102d2576001600160a01b031680156102c357600380546001600160a01b031916821790557f1edf3afd4ac789736e00d216cd88be164ddcef26a6eedcc30cdb0cb62f3741b18280a280f35b506007546001600160a01b0316331415610fe1565b503461018b57602036600319011261018b5761105c61133a565b81546001600160a01b0316331415806110ba575b6102d257600680546001600160a01b0319166001600160a01b039290921691821790557f672081dadde50e814bb62a7286e6c0cad07071fa40747b022649c85346bdbc848280a280f35b506007546001600160a01b0316331415611070565b503461018b578060031936011261018b57602061ffff60075460d01c16604051908152f35b503461018b578060031936011261018b576007546040516001600160a01b039091168152602090f35b503461018b578060031936011261018b57602060075460f01c604051908152f35b503461018b578060031936011261018b57602060ff60075460a01c166040519015158152f35b503461018b578060031936011261018b576004546040516001600160a01b039091168152602090f35b503461018b57602036600319011261018b576111a7611355565b81546001600160a01b031633141580611208575b6102d25760207f7797b8b57a768540a157b63d01a8d26d3219d317d79f104b1cfd8575eadd45e091151560075460ff60a01b8260a01b169060ff60a01b191617600755604051908152a180f35b506007546001600160a01b03163314156111bb565b503461018b578060031936011261018b5760206040516103e88152f35b503461018b57604036600319011261018b5761125461133a565b602435908115158092036112ed5782546001600160a01b0316331415806112d8575b6112c95760207fbc09a6e4bb005d6bdeb0a9ba198f7e7b85a48842ec304a89a921b5296f5a5ece9160018060a01b031692838552600882526040852060ff1981541660ff8316179055604051908152a280f35b63b577c1f760e01b8352600483fd5b506007546001600160a01b0316331415611276565b8280fd5b503461018b57604036600319011261018b57608061ffff61131c61131361133a565b602435906113ae565b92939091816040519516855216602084015260408301526060820152f35b600435906001600160a01b038216820361135057565b600080fd5b60043590811515820361135057565b61ffff16612710039061ffff821161137857565b634e487b7160e01b600052601160045260246000fd5b8181029291811591840414171561137857565b9190820391821161137857565b9091906001600160a01b03811615801561140b575b6113fe576113d09061147d565b9290916113f76127106113ef61ffff6113e888611364565b168561138e565b0480936113a1565b9293929190565b5060009150819081908190565b5082156113c3565b90601f8019910116810190811067ffffffffffffffff82111761143557604052565b634e487b7160e01b600052604160045260246000fd5b90816020910312611350575180151581036113505790565b90816020910312611350575161ffff811681036113505790565b6004805460405163776f384360e01b81526001600160a01b039384169281018390529193921690602081602481855afa90811561157557600091611590575b5080936007549260ff8460a01c169182611581575b82611520575b50506115145750611510816103e861150961150061ffff80809760c01c169460b01c16846113a1565b8588169061138e565b04906113a1565b1690565b925060d01c61ffff1690565b602091925060246040518094819363fbac395160e01b835260048301525afa90811561157557600091611556575b5038806114d7565b61156f915060203d602011610a8457610a768183611413565b3861154e565b6040513d6000823e3d90fd5b915060ff8460a81c16916114d1565b6115a9915060203d602011610baa57610b9c8183611413565b386114bc565b6000546001600160a01b031633036115c357565b606460405162461bcd60e51b815260206004820152602060248201527f4f776e61626c653a2063616c6c6572206973206e6f7420746865206f776e65726044820152fdfea264697066735822122023f2b73ca5a4e09812c2e5029f73a66b455ebe2c005f8025551d4ccaa31e94fb64736f6c634300081e0033",
  "linkReferences": {},
  "deployedLinkReferences": {}
}