{"abi":[{"type":"constructor","inputs":[{"name":"_arbiter","type":"address","internalType":"address"},{"name":"_seer","type":"address","internalType":"address"}],"stateMutability":"nonpayable"},{"type":"function","name":"ARBITER_TIMELOCK","inputs":[],"outputs":[{"name":"","type":"uint256","internalType":"uint256"}],"stateMutability":"view"},{"type":"function","name":"HIGH_VALUE_THRESHOLD","inputs":[],"outputs":[{"name":"","type":"uint256","internalType":"uint256"}],"stateMutability":"view"},{"type":"function","name":"arbiter","inputs":[],"outputs":[{"name":"","type":"address","internalType":"address"}],"stateMutability":"view"},{"type":"function","name":"arbiterChangeTime","inputs":[],"outputs":[{"name":"","type":"uint256","internalType":"uint256"}],"stateMutability":"view"},{"type":"function","name":"checkTimeout","inputs":[{"name":"id","type":"uint256","internalType":"uint256"}],"outputs":[{"name":"isNearTimeout","type":"bool","internalType":"bool"},{"name":"timeRemaining","type":"uint256","internalType":"uint256"}],"stateMutability":"view"},{"type":"function","name":"claimTimeout","inputs":[{"name":"id","type":"uint256","internalType":"uint256"}],"outputs":[],"stateMutability":"nonpayable"},{"type":"function","name":"createEscrow","inputs":[{"name":"merchant","type":"address","internalType":"address"},{"name":"token","type":"address","internalType":"address"},{"name":"amount","type":"uint256","internalType":"uint256"},{"name":"orderId","type":"string","internalType":"string"}],"outputs":[{"name":"","type":"uint256","internalType":"uint256"}],"stateMutability":"nonpayable"},{"type":"function","name":"dao","inputs":[],"outputs":[{"name":"","type":"address","internalType":"address"}],"stateMutability":"view"},{"type":"function","name":"escrowCount","inputs":[],"outputs":[{"name":"","type":"uint256","internalType":"uint256"}],"stateMutability":"view"},{"type":"function","name":"escrows","inputs":[{"name":"","type":"uint256","internalType":"uint256"}],"outputs":[{"name":"buyer","type":"address","internalType":"address"},{"name":"merchant","type":"address","internalType":"address"},{"name":"token","type":"address","internalType":"address"},{"name":"amount","type":"uint256","internalType":"uint256"},{"name":"createdAt","type":"uint256","internalType":"uint256"},{"name":"releaseTime","type":"uint256","internalType":"uint256"},{"name":"state","type":"uint8","internalType":"enum EscrowManager.State"},{"name":"orderId","type":"string","internalType":"string"}],"stateMutability":"view"},{"type":"function","name":"executeArbiterChange","inputs":[],"outputs":[],"stateMutability":"nonpayable"},{"type":"function","name":"notifyTimeout","inputs":[{"name":"id","type":"uint256","internalType":"uint256"}],"outputs":[],"stateMutability":"nonpayable"},{"type":"function","name":"pendingArbiter","inputs":[],"outputs":[{"name":"","type":"address","internalType":"address"}],"stateMutability":"view"},{"type":"function","name":"proposeArbiterChange","inputs":[{"name":"newArbiter","type":"address","internalType":"address"}],"outputs":[],"stateMutability":"nonpayable"},{"type":"function","name":"raiseDispute","inputs":[{"name":"id","type":"uint256","internalType":"uint256"}],"outputs":[],"stateMutability":"nonpayable"},{"type":"function","name":"refund","inputs":[{"name":"id","type":"uint256","internalType":"uint256"}],"outputs":[],"stateMutability":"nonpayable"},{"type":"function","name":"release","inputs":[{"name":"id","type":"uint256","internalType":"uint256"}],"outputs":[],"stateMutability":"nonpayable"},{"type":"function","name":"resolveDispute","inputs":[{"name":"id","type":"uint256","internalType":"uint256"},{"name":"refundBuyer","type":"bool","internalType":"bool"}],"outputs":[],"stateMutability":"nonpayable"},{"type":"function","name":"resolveDisputePartial","inputs":[{"name":"id","type":"uint256","internalType":"uint256"},{"name":"buyerShareBps","type":"uint256","internalType":"uint256"}],"outputs":[],"stateMutability":"nonpayable"},{"type":"function","name":"seer","inputs":[],"outputs":[{"name":"","type":"address","internalType":"contract ISeer"}],"stateMutability":"view"},{"type":"function","name":"setDAO","inputs":[{"name":"newDAO","type":"address","internalType":"address"}],"outputs":[],"stateMutability":"nonpayable"},{"type":"event","name":"DisputeRaised","inputs":[{"name":"escrowId","type":"uint256","indexed":true,"internalType":"uint256"},{"name":"by","type":"address","indexed":true,"internalType":"address"}],"anonymous":false},{"type":"event","name":"DisputeResolved","inputs":[{"name":"escrowId","type":"uint256","indexed":true,"internalType":"uint256"},{"name":"winner","type":"address","indexed":true,"internalType":"address"}],"anonymous":false},{"type":"event","name":"DisputeResolvedPartial","inputs":[{"name":"id","type":"uint256","indexed":true,"internalType":"uint256"},{"name":"buyerAmount","type":"uint256","indexed":false,"internalType":"uint256"},{"name":"merchantAmount","type":"uint256","indexed":false,"internalType":"uint256"}],"anonymous":false},{"type":"event","name":"EscrowCreated","inputs":[{"name":"escrowId","type":"uint256","indexed":true,"internalType":"uint256"},{"name":"buyer","type":"address","indexed":true,"internalType":"address"},{"name":"merchant","type":"address","indexed":true,"internalType":"address"},{"name":"amount","type":"uint256","indexed":false,"internalType":"uint256"},{"name":"releaseTime","type":"uint256","indexed":false,"internalType":"uint256"},{"name":"lockPeriod","type":"uint256","indexed":false,"internalType":"uint256"},{"name":"timestamp","type":"uint256","indexed":false,"internalType":"uint256"}],"anonymous":false},{"type":"event","name":"EscrowNearTimeout","inputs":[{"name":"escrowId","type":"uint256","indexed":true,"internalType":"uint256"},{"name":"timeRemaining","type":"uint256","indexed":false,"internalType":"uint256"}],"anonymous":false},{"type":"event","name":"EscrowRefunded","inputs":[{"name":"escrowId","type":"uint256","indexed":true,"internalType":"uint256"}],"anonymous":false},{"type":"event","name":"EscrowReleased","inputs":[{"name":"escrowId","type":"uint256","indexed":true,"internalType":"uint256"},{"name":"to","type":"address","indexed":true,"internalType":"address"}],"anonymous":false}],"bytecode":{"object":"0x6080346100ff57601f611be738819003918201601f19168301916001600160401b038311848410176101035780849260409485528339810103126100ff57610052602061004b83610117565b9201610117565b60015f556001600160a01b0390911690811515806100ed575b156100b957600380546001600160a01b031990811684179091556004805482166001600160a01b039390931692909217909155600580549091169091179055604051611abb908161012c8239f35b60405162461bcd60e51b815260206004820152600c60248201526b7a65726f206164647265737360a01b6044820152606490fd5b506001600160a01b038116151561006b565b5f80fd5b634e487b7160e01b5f52604160045260245ffd5b51906001600160a01b03821682036100ff5756fe6080806040526004361015610012575f80fd5b5f905f3560e01c908163012f52ee146114d557508063278ecde11461141f5780632d55ea39146113f757806334b25ee21461114857806337bdc99b14610f3e5780634162169f14610f155780634dd3b23a14610eec5780635329c68114610ebf57806354a997eb14610ea1578063675ac67a14610e835780637be87b9e146108c557806386e773f1146107c3578063a5c1674e146106f3578063a83d2b661461044d578063ae90d1fe146103d0578063c72565681461030e578063ca7b64bb146102e9578063dfad4529146101a6578063e73a914c1461014e578063efa23290146101305763fe25e00a14610105575f80fd5b3461012d578060031936011261012d576003546040516001600160a01b039091168152602090f35b80fd5b503461012d578060031936011261012d57602060405162093a808152f35b503461012d57602036600319011261012d576101686116a0565b60055490610180336001600160a01b038416146118f5565b6001600160a01b03169061019582151561185f565b6001600160a01b0319161760055580f35b503461012d57602036600319011261012d5760043580825260026020526040822060ff60068201541660048110156102d55761029c576005015480421015610263576101f39042906117ee565b62015180811161022b5760207f41e80128d1173374dae904ff7cbe2fb9f01804d54d69351c3a2c13dab35d34c691604051908152a280f35b60405162461bcd60e51b815260206004820152601060248201526f1b9bdd081b99585c881d1a5b595bdd5d60821b6044820152606490fd5b60405162461bcd60e51b8152602060048201526011602482015270185b1c9958591e481d1a5b5959081bdd5d607a1b6044820152606490fd5b60405162461bcd60e51b8152602060048201526011602482015270657363726f77206e6f742061637469766560781b6044820152606490fd5b634e487b7160e01b84526021600452602484fd5b503461012d578060031936011261012d57602060405169021e19e0c9bab24000008152f35b503461012d578060031936011261012d576007544210610399576006546001600160a01b0381168015610360576001600160601b0360a01b60035416176003556001600160601b0360a01b1660065580f35b60405162461bcd60e51b81526020600482015260116024820152706e6f2070656e64696e67206368616e676560781b6044820152606490fd5b60405162461bcd60e51b815260206004820152600f60248201526e74696d656c6f636b2061637469766560881b6044820152606490fd5b503461012d57602036600319011261012d576103ea6116a0565b6103ff60018060a01b036005541633146118f5565b6001600160a01b031661041381151561185f565b6001600160601b0360a01b600654161760065562093a8042018042116104395760075580f35b634e487b7160e01b82526011600452602482fd5b503461012d57604036600319011261012d5760043560243561046d61192c565b61048b60018060a01b036003541680331490816106e9575b50611729565b61271081116106b2578183526002602052604083206006810160ff815416600481101561069e5760036104be9114611767565b600382019069021e19e0c9bab2400000825411610684575b600160ff1982541617905554918083029083820414831517156106705761050361271086920480946117ee565b918361064c575b82610625575b6004546001600160a01b03168061055c575b5050507f2417ce4a28030011dbe05bd1b3d079cfb40c3f5c0d3e1067e7c5ace3ba00f3579160409182519182526020820152a26001815580f35b81546001600160a01b0316813b1561060457836105928193829360405194858094819363031879a760e21b8352600483016118b6565b03925af161060c575b5050600454600191909101546001600160a01b039081169116803b156106085760405163031879a760e21b815291839183918290849082906105e090600483016118b6565b03925af16105ef575b80610522565b816105f99161166a565b61060457835f6105e9565b8380fd5b8280fd5b816106169161166a565b61062157815f61059b565b5080fd5b600281015460018201546106479185916001600160a01b0390811691166119b4565b610510565b6002810154815461066b9186916001600160a01b0390811691166119b4565b61050a565b634e487b7160e01b85526011600452602485fd5b61069960018060a01b036005541633146117a2565b6104d6565b634e487b7160e01b86526021600452602486fd5b60405162461bcd60e51b815260206004820152600f60248201526e45533a20696e76616c69642062707360881b6044820152606490fd5b905015155f610485565b503461012d57602036600319011261012d5760043580825260026020526040822080546001600160a01b0316331480156107ad575b1561077c5760060160ff81541660048110156102d55761074890156116f1565b805460ff1916600317905533907f84a477df8a28a4276ca6dee4458a06c3015f30c477d9c949ede4e13ff8a552b48380a380f35b60405162461bcd60e51b81526020600482015260096024820152686e6f7420706172747960b81b6044820152606490fd5b5060018101546001600160a01b03163314610728565b503461012d57602036600319011261012d576004356107e061192c565b808252600260205260408220600181019061080560018060a01b0383541633146116b6565b600681019060ff825416600481101561069e5761082290156116f1565b6005810154421061089457815460ff19166001179091556002810154825460039092015461085e9290916001600160a01b0391821691166119b4565b546001600160a01b0316907fefc7f1f15becfaec7a3c17eec78be3fa7adb45698f26fcfd25efe1754c2423318380a36001815580f35b60405162461bcd60e51b8152602060048201526009602482015268746f6f206561726c7960b81b6044820152606490fd5b503461012d57608036600319011261012d576108df6116a0565b6024356001600160a01b038116929083900361012d5767ffffffffffffffff6064351161012d5736602360643501121561012d5767ffffffffffffffff606435600401351161012d573660246064356004013560643501011161012d5761094461192c565b6001600160a01b038216151580610e7a575b61095f9061185f565b3315610e405760443515610e0d57808060405160208101906323b872dd60e01b82523360248201523060448201526044356064820152606481526109a460848261166a565b519082875af16109b261196d565b81610dde575b5015610d99576004546212750091906001600160a01b031680610ce9575b50600154915f1983146104395760018301600155804201804211610cd55760405195610100870187811067ffffffffffffffff821117610cc15760409081523388526001600160a01b0387166020890152870152604435606087015242608087015260a086015260c08501829052610a536004606435013561189a565b94610a61604051968761166a565b606435600481013580885290602401602088013760046064358101358701602090810185905260e083019788526001868101865260028083526040808820865181546001600160a01b03199081166001600160a01b0392831617835595880151948201805487169582169590951790945590860151918101805490941691909216179091556060830151600382015560808301518183015560a0830151600582015560c0909201516006830191811015610cad57906007929160ff801983541691161790550194519384519567ffffffffffffffff8711610c9957610b468154611632565b601f8111610c54575b5060209687601f8211600114610bf2578190600197988792610be7575b50505f19600383901b1c191690861b1790555b838501835260028652600560408420015491604051926044358452878401526040830152426060830152838060a01b03169033907f2f6495bfe6d502e4955f6e73f157eed0b29d25177d63de7a3246ce38106221b9608086880192a455600160405191018152f35b015190505f80610b6c565b82865280862097601f198316875b818110610c3d5750916001989991848a959410610c25575b505050811b019055610b7f565b01515f1960f88460031b161c191690555f8080610c18565b92998b600181928d8601518155019b019301610c00565b81855260208520601f890160051c81019160208a10610c8f575b601f0160051c01905b818110610c845750610b4f565b858155600101610c77565b9091508190610c6e565b634e487b7160e01b84526041600452602484fd5b634e487b7160e01b85526021600452602485fd5b634e487b7160e01b85526041600452602485fd5b634e487b7160e01b83526011600452602483fd5b604051630d47875d60e41b81526001600160a01b038516600482015290602090829060249082905afa8015610d8e578290610d4f575b61ffff169050611f408110610d3c57506203f48091505b5f6109d6565b61177011610d365762093a809150610d36565b506020813d602011610d86575b81610d696020938361166a565b81010312610621575161ffff811681036106215761ffff90610d1f565b3d9150610d5c565b6040513d84823e3d90fd5b60405162461bcd60e51b815260206004820152601e60248201527f5361666545524332303a207472616e7366657246726f6d206661696c656400006044820152606490fd5b8051801592508215610df3575b50505f6109b8565b610e06925060208091830101910161199c565b5f80610deb565b60405162461bcd60e51b815260206004820152600b60248201526a1e995c9bc8185b5bdd5b9d60aa1b6044820152606490fd5b60405162461bcd60e51b81526020600482015260126024820152716275796572207a65726f206164647265737360701b6044820152606490fd5b50821515610956565b503461012d578060031936011261012d576020600154604051908152f35b503461012d578060031936011261012d576020600754604051908152f35b503461012d57602036600319011261012d576040610ede60043561180f565b825191151582526020820152f35b503461012d578060031936011261012d576006546040516001600160a01b039091168152602090f35b503461012d578060031936011261012d576005546040516001600160a01b039091168152602090f35b503461012d57602036600319011261012d57600435610f5b61192c565b80825260026020526040822080546001600160a01b03163303611117576006810160ff8154166004811015610cad57610f9490156116f1565b600160ff198254161790558260018060a01b0360028301541691610fcb600182019360018060a01b038554166003840154916119b4565b6004546001600160a01b03169081611019575b505090546001600160a01b03169190507fefc7f1f15becfaec7a3c17eec78be3fa7adb45698f26fcfd25efe1754c2423318380a36001815580f35b546001600160a01b0316813b1561060857829160a483926040519485938492630eccbd3560e11b845260048401526002602484015260606044840152600e60648401526d31b7b6b6b2b931b2afb13abcb2b960911b60848401525af1611102575b5060045482546001600160a01b039182169116813b1561060857829160a483926040519485938492630eccbd3560e11b845260048401526005602484015260606044840152601160648401527018dbdb5b595c98d957db595c98da185b9d607a1b60848401525af16110ed575b80610fde565b816110f79161166a565b61060857825f6110e7565b8161110c9161166a565b61060857825f61107a565b60405162461bcd60e51b81526020600482015260096024820152683737ba10313abcb2b960b91b6044820152606490fd5b50346113c55760403660031901126113c55760043560243580151581036113c55761117161192c565b61118e60018060a01b036003541680331490816106e95750611729565b815f52600260205260405f206006810160ff81541660048110156113e35760036111b89114611767565b600382019269021e19e0c9bab24000008454116113c9575b156112cc57805460ff1916600290811790915581015481549254919261120392916001600160a01b0391821691166119b4565b60045483906001600160a01b031680611250575b5050546001600160a01b0316907ff77ceb5e091d2da041bc760667f9d5fe7a756949eaf29250ad0e60ca6f4c27d98380a35b6001815580f35b60018301546001600160a01b0316813b156106085760405163031879a760e21b815260048101919091526032602482015260606044820152600c60648201526b191a5cdc1d5d1957db1bdcdd60a21b6084820152908290829060a490829084905af11561121757816112c19161166a565b61060857825f611217565b805460ff1916600190811790915560028201549082018054935490936112fe926001600160a01b0391821691166119b4565b6004546001600160a01b03169081611347575b5050546001600160a01b0316907ff77ceb5e091d2da041bc760667f9d5fe7a756949eaf29250ad0e60ca6f4c27d98380a3611249565b546001600160a01b0316813b156113c55760405163031879a760e21b815260048101919091526014602482015260606044820152600c60648201526b191a5cdc1d5d1957db1bdcdd60a21b6084820152905f90829060a490829084905af16113b0575b80611311565b6113bd9193505f9061166a565b5f915f6113aa565b5f80fd5b6113de60018060a01b036005541633146117a2565b6111d0565b634e487b7160e01b5f52602160045260245ffd5b346113c5575f3660031901126113c5576004546040516001600160a01b039091168152602090f35b346113c55760203660031901126113c55760043561143b61192c565b805f52600260205260405f2061145e60018060a01b0360018301541633146116b6565b600681019060ff8254169160048310156113e35761147f6114ab93156116f1565b805460ff191660029081179091558101548154600390920154916001600160a01b0390811691166119b4565b7f2babb5cd458b6d41108d6d793a75e29ca524e7caa20e2da6c994462010920a725f80a260015f55005b346113c55760203660031901126113c5576004355f52600260205260405f209060018060a01b038254169160018060a01b0360018201541660018060a01b036002830154166003830154600484015490600585015492600760ff6006880154169601945f958881549761154789611632565b9283835260208301996001811690815f1461161357506001146115d0575b506115729250038961166a565b604051988952602089015260408801526060870152608086015260a085015260048210156113e35761012092849260c084015261010060e0840152518091816101008501528484015e5f828201840152601f01601f19168101030190f35b90505f9291925260205f20905f915b8183106115f8575050906020611572928201018c611565565b80602092948385600194549201015201910190918a926115df565b60ff19168b525061157293151560051b830160200191508d9050611565565b90600182811c92168015611660575b602083101461164c57565b634e487b7160e01b5f52602260045260245ffd5b91607f1691611641565b90601f8019910116810190811067ffffffffffffffff82111761168c57604052565b634e487b7160e01b5f52604160045260245ffd5b600435906001600160a01b03821682036113c557565b156116bd57565b60405162461bcd60e51b815260206004820152600c60248201526b1b9bdd081b595c98da185b9d60a21b6044820152606490fd5b156116f857565b60405162461bcd60e51b815260206004820152600960248201526862616420737461746560b81b6044820152606490fd5b1561173057565b60405162461bcd60e51b815260206004820152600f60248201526e22a99d103737ba1030b93134ba32b960891b6044820152606490fd5b1561176e57565b60405162461bcd60e51b815260206004820152600c60248201526b1b9bdd08191a5cdc1d5d195960a21b6044820152606490fd5b156117a957565b60405162461bcd60e51b815260206004820152601760248201527f686967682076616c75652072657175697265732044414f0000000000000000006044820152606490fd5b919082039182116117fb57565b634e487b7160e01b5f52601160045260245ffd5b5f52600260205260405f2060ff60068201541660048110156113e357611858576005015480421015611850576118469042906117ee565b6201518081111591565b506001905f90565b505f905f90565b1561186657565b60405162461bcd60e51b815260206004820152600c60248201526b7a65726f206164647265737360a01b6044820152606490fd5b67ffffffffffffffff811161168c57601f01601f191660200190565b6001600160a01b03909116815260056020820152606060408201819052600d908201526c191a5cdc1d5d1957dcdc1b1a5d609a1b608082015260a00190565b156118fc57565b60405162461bcd60e51b81526020600482015260086024820152676f6e6c792044414f60c01b6044820152606490fd5b60015f540361193b5760025f55565b60405162461bcd60e51b815260206004820152600a6024820152697265656e7472616e637960b01b6044820152606490fd5b3d15611997573d9061197e8261189a565b9161198c604051938461166a565b82523d5f602084013e565b606090565b908160209103126113c5575180151581036113c55790565b5f929183809360405190602082019363a9059cbb60e01b855260018060a01b031660248301526044820152604481526119ee60648261166a565b51926001600160a01b03165af1611a0361196d565b81611a56575b5015611a1157565b60405162461bcd60e51b815260206004820152601a60248201527f5361666545524332303a207472616e73666572206661696c65640000000000006044820152606490fd5b8051801592508215611a6b575b50505f611a09565b611a7e925060208091830101910161199c565b5f80611a6356fea26469706673582212202197ebb6e2871aeb3dcc6e2b7c1e0e6209d03331b39d30fc773fbb88379a000964736f6c634300081e0033","linkReferences":{}},"methodIdentifiers":{"ARBITER_TIMELOCK()":"efa23290","HIGH_VALUE_THRESHOLD()":"ca7b64bb","arbiter()":"fe25e00a","arbiterChangeTime()":"54a997eb","checkTimeout(uint256)":"5329c681","claimTimeout(uint256)":"86e773f1","createEscrow(address,address,uint256,string)":"7be87b9e","dao()":"4162169f","escrowCount()":"675ac67a","escrows(uint256)":"012f52ee","executeArbiterChange()":"c7256568","notifyTimeout(uint256)":"dfad4529","pendingArbiter()":"4dd3b23a","proposeArbiterChange(address)":"ae90d1fe","raiseDispute(uint256)":"a5c1674e","refund(uint256)":"278ecde1","release(uint256)":"37bdc99b","resolveDispute(uint256,bool)":"34b25ee2","resolveDisputePartial(uint256,uint256)":"a83d2b66","seer()":"2d55ea39","setDAO(address)":"e73a914c"},"id":12}