{"abi":[{"type":"constructor","inputs":[{"name":"_arbiter","type":"address","internalType":"address"},{"name":"_seer","type":"address","internalType":"address"}],"stateMutability":"nonpayable"},{"type":"function","name":"ARBITER_TIMELOCK","inputs":[],"outputs":[{"name":"","type":"uint256","internalType":"uint256"}],"stateMutability":"view"},{"type":"function","name":"HIGH_VALUE_THRESHOLD","inputs":[],"outputs":[{"name":"","type":"uint256","internalType":"uint256"}],"stateMutability":"view"},{"type":"function","name":"arbiter","inputs":[],"outputs":[{"name":"","type":"address","internalType":"address"}],"stateMutability":"view"},{"type":"function","name":"arbiterChangeTime","inputs":[],"outputs":[{"name":"","type":"uint256","internalType":"uint256"}],"stateMutability":"view"},{"type":"function","name":"cancelArbiterChange","inputs":[],"outputs":[],"stateMutability":"nonpayable"},{"type":"function","name":"checkTimeout","inputs":[{"name":"id","type":"uint256","internalType":"uint256"}],"outputs":[{"name":"isNearTimeout","type":"bool","internalType":"bool"},{"name":"timeRemaining","type":"uint256","internalType":"uint256"}],"stateMutability":"view"},{"type":"function","name":"claimTimeout","inputs":[{"name":"id","type":"uint256","internalType":"uint256"}],"outputs":[],"stateMutability":"nonpayable"},{"type":"function","name":"createEscrow","inputs":[{"name":"merchant","type":"address","internalType":"address"},{"name":"token","type":"address","internalType":"address"},{"name":"amount","type":"uint256","internalType":"uint256"},{"name":"orderId","type":"string","internalType":"string"}],"outputs":[{"name":"","type":"uint256","internalType":"uint256"}],"stateMutability":"nonpayable"},{"type":"function","name":"dao","inputs":[],"outputs":[{"name":"","type":"address","internalType":"address"}],"stateMutability":"view"},{"type":"function","name":"escrowCount","inputs":[],"outputs":[{"name":"","type":"uint256","internalType":"uint256"}],"stateMutability":"view"},{"type":"function","name":"escrows","inputs":[{"name":"","type":"uint256","internalType":"uint256"}],"outputs":[{"name":"buyer","type":"address","internalType":"address"},{"name":"merchant","type":"address","internalType":"address"},{"name":"token","type":"address","internalType":"address"},{"name":"amount","type":"uint256","internalType":"uint256"},{"name":"createdAt","type":"uint256","internalType":"uint256"},{"name":"releaseTime","type":"uint256","internalType":"uint256"},{"name":"state","type":"uint8","internalType":"enum EscrowManager.State"},{"name":"orderId","type":"string","internalType":"string"}],"stateMutability":"view"},{"type":"function","name":"executeArbiterChange","inputs":[],"outputs":[],"stateMutability":"nonpayable"},{"type":"function","name":"notifyTimeout","inputs":[{"name":"id","type":"uint256","internalType":"uint256"}],"outputs":[],"stateMutability":"nonpayable"},{"type":"function","name":"pendingArbiter","inputs":[],"outputs":[{"name":"","type":"address","internalType":"address"}],"stateMutability":"view"},{"type":"function","name":"proposeArbiterChange","inputs":[{"name":"newArbiter","type":"address","internalType":"address"}],"outputs":[],"stateMutability":"nonpayable"},{"type":"function","name":"raiseDispute","inputs":[{"name":"id","type":"uint256","internalType":"uint256"}],"outputs":[],"stateMutability":"nonpayable"},{"type":"function","name":"refund","inputs":[{"name":"id","type":"uint256","internalType":"uint256"}],"outputs":[],"stateMutability":"nonpayable"},{"type":"function","name":"release","inputs":[{"name":"id","type":"uint256","internalType":"uint256"}],"outputs":[],"stateMutability":"nonpayable"},{"type":"function","name":"resolveDispute","inputs":[{"name":"id","type":"uint256","internalType":"uint256"},{"name":"refundBuyer","type":"bool","internalType":"bool"}],"outputs":[],"stateMutability":"nonpayable"},{"type":"function","name":"resolveDisputePartial","inputs":[{"name":"id","type":"uint256","internalType":"uint256"},{"name":"buyerShareBps","type":"uint256","internalType":"uint256"}],"outputs":[],"stateMutability":"nonpayable"},{"type":"function","name":"seer","inputs":[],"outputs":[{"name":"","type":"address","internalType":"contract ISeer"}],"stateMutability":"view"},{"type":"function","name":"setDAO","inputs":[{"name":"newDAO","type":"address","internalType":"address"}],"outputs":[],"stateMutability":"nonpayable"},{"type":"event","name":"ArbiterChanged","inputs":[{"name":"oldArbiter","type":"address","indexed":true,"internalType":"address"},{"name":"newArbiter","type":"address","indexed":true,"internalType":"address"}],"anonymous":false},{"type":"event","name":"DisputeRaised","inputs":[{"name":"escrowId","type":"uint256","indexed":true,"internalType":"uint256"},{"name":"by","type":"address","indexed":true,"internalType":"address"}],"anonymous":false},{"type":"event","name":"DisputeResolved","inputs":[{"name":"escrowId","type":"uint256","indexed":true,"internalType":"uint256"},{"name":"winner","type":"address","indexed":true,"internalType":"address"}],"anonymous":false},{"type":"event","name":"DisputeResolvedPartial","inputs":[{"name":"id","type":"uint256","indexed":true,"internalType":"uint256"},{"name":"buyerAmount","type":"uint256","indexed":false,"internalType":"uint256"},{"name":"merchantAmount","type":"uint256","indexed":false,"internalType":"uint256"}],"anonymous":false},{"type":"event","name":"EscrowCreated","inputs":[{"name":"escrowId","type":"uint256","indexed":true,"internalType":"uint256"},{"name":"buyer","type":"address","indexed":true,"internalType":"address"},{"name":"merchant","type":"address","indexed":true,"internalType":"address"},{"name":"amount","type":"uint256","indexed":false,"internalType":"uint256"},{"name":"releaseTime","type":"uint256","indexed":false,"internalType":"uint256"},{"name":"lockPeriod","type":"uint256","indexed":false,"internalType":"uint256"},{"name":"timestamp","type":"uint256","indexed":false,"internalType":"uint256"}],"anonymous":false},{"type":"event","name":"EscrowNearTimeout","inputs":[{"name":"escrowId","type":"uint256","indexed":true,"internalType":"uint256"},{"name":"timeRemaining","type":"uint256","indexed":false,"internalType":"uint256"}],"anonymous":false},{"type":"event","name":"EscrowRefunded","inputs":[{"name":"escrowId","type":"uint256","indexed":true,"internalType":"uint256"}],"anonymous":false},{"type":"event","name":"EscrowReleased","inputs":[{"name":"escrowId","type":"uint256","indexed":true,"internalType":"uint256"},{"name":"to","type":"address","indexed":true,"internalType":"address"}],"anonymous":false}],"bytecode":{"object":"0x60803461010457601f611cfa38819003918201601f19168301916001600160401b0383118484101761010857808492604094855283398101031261010457610052602061004b8361011c565b920161011c565b60015f556001600160a01b0390911690811515806100f2575b156100be57600380546001600160a01b031990811684179091556004805482166001600160a01b0393909316929092179091556005805490911690911790555f19600755604051611bc990816101318239f35b60405162461bcd60e51b815260206004820152600c60248201526b7a65726f206164647265737360a01b6044820152606490fd5b506001600160a01b038116151561006b565b5f80fd5b634e487b7160e01b5f52604160045260245ffd5b51906001600160a01b03821682036101045756fe6080806040526004361015610012575f80fd5b5f905f3560e01c908163012f52ee146115a357508063278ecde1146114ed5780632d55ea39146114c557806334b25ee21461120d57806337bdc99b146110035780634162169f14610fda5780634dd3b23a14610fb15780635329c68114610f8457806354a997eb14610f66578063675ac67a14610f485780637981c8fa14610ef65780637be87b9e1461093857806386e773f114610836578063a5c1674e14610766578063a83d2b66146104ac578063ae90d1fe1461042a578063c725656814610319578063ca7b64bb146102f4578063dfad4529146101b1578063e73a914c14610159578063efa232901461013b5763fe25e00a14610110575f80fd5b346101385780600319360112610138576003546040516001600160a01b039091168152602090f35b80fd5b5034610138578060031936011261013857602060405162093a808152f35b50346101385760203660031901126101385761017361176e565b6005549061018b336001600160a01b0384161461192d565b6001600160a01b0316906101a08215156119a4565b6001600160a01b0319161760055580f35b50346101385760203660031901126101385760043580825260026020526040822060ff60068201541660048110156102e0576102a757600501548042101561026e576101fe9042906118bc565b6201518081116102365760207f41e80128d1173374dae904ff7cbe2fb9f01804d54d69351c3a2c13dab35d34c691604051908152a280f35b60405162461bcd60e51b815260206004820152601060248201526f1b9bdd081b99585c881d1a5b595bdd5d60821b6044820152606490fd5b60405162461bcd60e51b8152602060048201526011602482015270185b1c9958591e481d1a5b5959081bdd5d607a1b6044820152606490fd5b60405162461bcd60e51b8152602060048201526011602482015270657363726f77206e6f742061637469766560781b6044820152606490fd5b634e487b7160e01b84526021600452602484fd5b5034610138578060031936011261013857602060405169021e19e0c9bab24000008152f35b503461013857806003193601126101385761033f60018060a01b0360055416331461192d565b6007548042106103f3576006546001600160a01b03811691610362831515611964565b5f19146103b857600380546001600160a01b0319808216851790925591166006555f196007556001600160a01b03167f8baeb8e9be10c233f000f8215f52a1038a77bc736883d06f9022545ef1ab1a748380a380f35b60405162461bcd60e51b81526020600482015260136024820152721b9bc81c195b991a5b99c81c1c9bdc1bdcd85b606a1b6044820152606490fd5b60405162461bcd60e51b815260206004820152600f60248201526e74696d656c6f636b2061637469766560881b6044820152606490fd5b50346101385760203660031901126101385761044461176e565b61045960018060a01b0360055416331461192d565b6001600160a01b031661046d8115156119a4565b6bffffffffffffffffffffffff60a01b600654161760065562093a8042018042116104985760075580f35b634e487b7160e01b82526011600452602482fd5b5034610138576040366003190112610138576004356024356104cc611a3a565b612710811161072f578183526002602052604083206006810160ff815416600481101561071b5760036104ff91146117f7565b600382019069021e19e0c9bab24000008254115f146106ee5761053660018060a01b036005541680331490816106e4575b50611870565b600160ff1982541617905554918083029083820414831517156106d05761056361271086920480946118bc565b91836106ac575b82610685575b6004546001600160a01b0316806105bc575b5050507f2417ce4a28030011dbe05bd1b3d079cfb40c3f5c0d3e1067e7c5ace3ba00f3579160409182519182526020820152a26001815580f35b81546001600160a01b0316813b1561066457836105f28193829360405194858094819363031879a760e21b8352600483016119fb565b03925af161066c575b5050600454600191909101546001600160a01b039081169116803b156106685760405163031879a760e21b8152918391839182908490829061064090600483016119fb565b03925af161064f575b80610582565b8161065991611738565b61066457835f610649565b8380fd5b8280fd5b8161067691611738565b61068157815f6105fb565b5080fd5b600281015460018201546106a79185916001600160a01b039081169116611ac2565b610570565b600281015481546106cb9186916001600160a01b039081169116611ac2565b61056a565b634e487b7160e01b85526011600452602485fd5b905015155f610530565b61070c60018060a01b03600354168033149081610711575b50611832565b610536565b905015155f610706565b634e487b7160e01b86526021600452602486fd5b60405162461bcd60e51b815260206004820152600f60248201526e45533a20696e76616c69642062707360881b6044820152606490fd5b50346101385760203660031901126101385760043580825260026020526040822080546001600160a01b031633148015610820575b156107ef5760060160ff81541660048110156102e0576107bb90156117bf565b805460ff1916600317905533907f84a477df8a28a4276ca6dee4458a06c3015f30c477d9c949ede4e13ff8a552b48380a380f35b60405162461bcd60e51b81526020600482015260096024820152686e6f7420706172747960b81b6044820152606490fd5b5060018101546001600160a01b0316331461079b565b503461013857602036600319011261013857600435610853611a3a565b808252600260205260408220600181019061087860018060a01b038354163314611784565b600681019060ff825416600481101561071b5761089590156117bf565b6005810154421061090757815460ff1916600117909155600281015482546003909201546108d19290916001600160a01b039182169116611ac2565b546001600160a01b0316907fefc7f1f15becfaec7a3c17eec78be3fa7adb45698f26fcfd25efe1754c2423318380a36001815580f35b60405162461bcd60e51b8152602060048201526009602482015268746f6f206561726c7960b81b6044820152606490fd5b50346101385760803660031901126101385761095261176e565b6024356001600160a01b03811692908390036101385767ffffffffffffffff60643511610138573660236064350112156101385767ffffffffffffffff60643560040135116101385736602460643560040135606435010111610138576109b7611a3a565b6001600160a01b038216151580610eed575b6109d2906119a4565b3315610eb35760443515610e8057808060405160208101906323b872dd60e01b8252336024820152306044820152604435606482015260648152610a17608482611738565b519082875af1610a25611a7b565b81610e51575b5015610e0c576004546212750091906001600160a01b031680610d5c575b50600154915f1983146104985760018301600155804201804211610d485760405195610100870187811067ffffffffffffffff821117610d345760409081523388526001600160a01b0387166020890152870152604435606087015242608087015260a086015260c08501829052610ac6600460643501356119df565b94610ad46040519687611738565b606435600481013580885290602401602088013760046064358101358701602090810185905260e083019788526001868101865260028083526040808820865181546001600160a01b03199081166001600160a01b0392831617835595880151948201805487169582169590951790945590860151918101805490941691909216179091556060830151600382015560808301518183015560a0830151600582015560c0909201516006830191811015610d2057906007929160ff801983541691161790550194519384519567ffffffffffffffff8711610d0c57610bb98154611700565b601f8111610cc7575b5060209687601f8211600114610c65578190600197988792610c5a575b50505f19600383901b1c191690861b1790555b838501835260028652600560408420015491604051926044358452878401526040830152426060830152838060a01b03169033907f2f6495bfe6d502e4955f6e73f157eed0b29d25177d63de7a3246ce38106221b9608086880192a455600160405191018152f35b015190505f80610bdf565b82865280862097601f198316875b818110610cb05750916001989991848a959410610c98575b505050811b019055610bf2565b01515f1960f88460031b161c191690555f8080610c8b565b92998b600181928d8601518155019b019301610c73565b81855260208520601f890160051c81019160208a10610d02575b601f0160051c01905b818110610cf75750610bc2565b858155600101610cea565b9091508190610ce1565b634e487b7160e01b84526041600452602484fd5b634e487b7160e01b85526021600452602485fd5b634e487b7160e01b85526041600452602485fd5b634e487b7160e01b83526011600452602483fd5b604051630d47875d60e41b81526001600160a01b038516600482015290602090829060249082905afa8015610e01578290610dc2575b61ffff169050611f408110610daf57506203f48091505b5f610a49565b61177011610da95762093a809150610da9565b506020813d602011610df9575b81610ddc60209383611738565b81010312610681575161ffff811681036106815761ffff90610d92565b3d9150610dcf565b6040513d84823e3d90fd5b60405162461bcd60e51b815260206004820152601e60248201527f5361666545524332303a207472616e7366657246726f6d206661696c656400006044820152606490fd5b8051801592508215610e66575b50505f610a2b565b610e799250602080918301019101611aaa565b5f80610e5e565b60405162461bcd60e51b815260206004820152600b60248201526a1e995c9bc8185b5bdd5b9d60aa1b6044820152606490fd5b60405162461bcd60e51b81526020600482015260126024820152716275796572207a65726f206164647265737360701b6044820152606490fd5b508215156109c9565b5034610138578060031936011261013857610f1c60018060a01b0360055416331461192d565b600654610f336001600160a01b0382161515611964565b6001600160a01b0319166006555f1960075580f35b50346101385780600319360112610138576020600154604051908152f35b50346101385780600319360112610138576020600754604051908152f35b5034610138576020366003190112610138576040610fa36004356118dd565b825191151582526020820152f35b50346101385780600319360112610138576006546040516001600160a01b039091168152602090f35b50346101385780600319360112610138576005546040516001600160a01b039091168152602090f35b503461013857602036600319011261013857600435611020611a3a565b80825260026020526040822080546001600160a01b031633036111dc576006810160ff8154166004811015610d205761105990156117bf565b600160ff198254161790558260018060a01b0360028301541691611090600182019360018060a01b03855416600384015491611ac2565b6004546001600160a01b031690816110de575b505090546001600160a01b03169190507fefc7f1f15becfaec7a3c17eec78be3fa7adb45698f26fcfd25efe1754c2423318380a36001815580f35b546001600160a01b0316813b1561066857829160a483926040519485938492630eccbd3560e11b845260048401526002602484015260606044840152600e60648401526d31b7b6b6b2b931b2afb13abcb2b960911b60848401525af16111c7575b5060045482546001600160a01b039182169116813b1561066857829160a483926040519485938492630eccbd3560e11b845260048401526005602484015260606044840152601160648401527018dbdb5b595c98d957db595c98da185b9d607a1b60848401525af16111b2575b806110a3565b816111bc91611738565b61066857825f6111ac565b816111d191611738565b61066857825f61113f565b60405162461bcd60e51b81526020600482015260096024820152683737ba10313abcb2b960b91b6044820152606490fd5b503461148b57604036600319011261148b57600435602435801515810361148b57611236611a3a565b815f52600260205260405f206006810160ff81541660048110156114b157600361126091146117f7565b600382019269021e19e0c9bab24000008454115f1461148f5761129660018060a01b036005541680331490816106e45750611870565b1561139257805460ff191660029081179091558101548154925491926112c992916001600160a01b039182169116611ac2565b60045483906001600160a01b031680611316575b5050546001600160a01b0316907ff77ceb5e091d2da041bc760667f9d5fe7a756949eaf29250ad0e60ca6f4c27d98380a35b6001815580f35b60018301546001600160a01b0316813b156106685760405163031879a760e21b815260048101919091526032602482015260606044820152600c60648201526b191a5cdc1d5d1957db1bdcdd60a21b6084820152908290829060a490829084905af1156112dd578161138791611738565b61066857825f6112dd565b805460ff1916600190811790915560028201549082018054935490936113c4926001600160a01b039182169116611ac2565b6004546001600160a01b0316908161140d575b5050546001600160a01b0316907ff77ceb5e091d2da041bc760667f9d5fe7a756949eaf29250ad0e60ca6f4c27d98380a361130f565b546001600160a01b0316813b1561148b5760405163031879a760e21b815260048101919091526014602482015260606044820152600c60648201526b191a5cdc1d5d1957db1bdcdd60a21b6084820152905f90829060a490829084905af1611476575b806113d7565b6114839193505f90611738565b5f915f611470565b5f80fd5b6114ac60018060a01b036003541680331490816107115750611832565b611296565b634e487b7160e01b5f52602160045260245ffd5b3461148b575f36600319011261148b576004546040516001600160a01b039091168152602090f35b3461148b57602036600319011261148b57600435611509611a3a565b805f52600260205260405f2061152c60018060a01b036001830154163314611784565b600681019060ff8254169160048310156114b15761154d61157993156117bf565b805460ff191660029081179091558101548154600390920154916001600160a01b039081169116611ac2565b7f2babb5cd458b6d41108d6d793a75e29ca524e7caa20e2da6c994462010920a725f80a260015f55005b3461148b57602036600319011261148b576004355f52600260205260405f209060018060a01b038254169160018060a01b0360018201541660018060a01b036002830154166003830154600484015490600585015492600760ff6006880154169601945f958881549761161589611700565b9283835260208301996001811690815f146116e1575060011461169e575b5061164092500389611738565b604051988952602089015260408801526060870152608086015260a085015260048210156114b15761012092849260c084015261010060e0840152518091816101008501528484015e5f828201840152601f01601f19168101030190f35b90505f9291925260205f20905f915b8183106116c6575050906020611640928201018c611633565b80602092948385600194549201015201910190918a926116ad565b60ff19168b525061164093151560051b830160200191508d9050611633565b90600182811c9216801561172e575b602083101461171a57565b634e487b7160e01b5f52602260045260245ffd5b91607f169161170f565b90601f8019910116810190811067ffffffffffffffff82111761175a57604052565b634e487b7160e01b5f52604160045260245ffd5b600435906001600160a01b038216820361148b57565b1561178b57565b60405162461bcd60e51b815260206004820152600c60248201526b1b9bdd081b595c98da185b9d60a21b6044820152606490fd5b156117c657565b60405162461bcd60e51b815260206004820152600960248201526862616420737461746560b81b6044820152606490fd5b156117fe57565b60405162461bcd60e51b815260206004820152600c60248201526b1b9bdd08191a5cdc1d5d195960a21b6044820152606490fd5b1561183957565b60405162461bcd60e51b815260206004820152600f60248201526e22a99d103737ba1030b93134ba32b960891b6044820152606490fd5b1561187757565b60405162461bcd60e51b815260206004820152601b60248201527f45533a20686967682076616c75652072657175697265732044414f00000000006044820152606490fd5b919082039182116118c957565b634e487b7160e01b5f52601160045260245ffd5b5f52600260205260405f2060ff60068201541660048110156114b15761192657600501548042101561191e576119149042906118bc565b6201518081111591565b506001905f90565b505f905f90565b1561193457565b60405162461bcd60e51b81526020600482015260086024820152676f6e6c792044414f60c01b6044820152606490fd5b1561196b57565b60405162461bcd60e51b81526020600482015260116024820152706e6f2070656e64696e67206368616e676560781b6044820152606490fd5b156119ab57565b60405162461bcd60e51b815260206004820152600c60248201526b7a65726f206164647265737360a01b6044820152606490fd5b67ffffffffffffffff811161175a57601f01601f191660200190565b6001600160a01b03909116815260056020820152606060408201819052600d908201526c191a5cdc1d5d1957dcdc1b1a5d609a1b608082015260a00190565b60015f5403611a495760025f55565b60405162461bcd60e51b815260206004820152600a6024820152697265656e7472616e637960b01b6044820152606490fd5b3d15611aa5573d90611a8c826119df565b91611a9a6040519384611738565b82523d5f602084013e565b606090565b9081602091031261148b5751801515810361148b5790565b5f929183809360405190602082019363a9059cbb60e01b855260018060a01b03166024830152604482015260448152611afc606482611738565b51926001600160a01b03165af1611b11611a7b565b81611b64575b5015611b1f57565b60405162461bcd60e51b815260206004820152601a60248201527f5361666545524332303a207472616e73666572206661696c65640000000000006044820152606490fd5b8051801592508215611b79575b50505f611b17565b611b8c9250602080918301019101611aaa565b5f80611b7156fea2646970667358221220bccd6a33cb8d532859eb10ece6064803c713f18ce643b653eddee4fb36abe44564736f6c634300081e0033","linkReferences":{}},"methodIdentifiers":{"ARBITER_TIMELOCK()":"efa23290","HIGH_VALUE_THRESHOLD()":"ca7b64bb","arbiter()":"fe25e00a","arbiterChangeTime()":"54a997eb","cancelArbiterChange()":"7981c8fa","checkTimeout(uint256)":"5329c681","claimTimeout(uint256)":"86e773f1","createEscrow(address,address,uint256,string)":"7be87b9e","dao()":"4162169f","escrowCount()":"675ac67a","escrows(uint256)":"012f52ee","executeArbiterChange()":"c7256568","notifyTimeout(uint256)":"dfad4529","pendingArbiter()":"4dd3b23a","proposeArbiterChange(address)":"ae90d1fe","raiseDispute(uint256)":"a5c1674e","refund(uint256)":"278ecde1","release(uint256)":"37bdc99b","resolveDispute(uint256,bool)":"34b25ee2","resolveDisputePartial(uint256,uint256)":"a83d2b66","seer()":"2d55ea39","setDAO(address)":"e73a914c"},"id":12}