{"abi":[{"type":"constructor","inputs":[{"name":"_arbiter","type":"address","internalType":"address"},{"name":"_seer","type":"address","internalType":"address"}],"stateMutability":"nonpayable"},{"type":"function","name":"ARBITER_TIMELOCK","inputs":[],"outputs":[{"name":"","type":"uint256","internalType":"uint256"}],"stateMutability":"view"},{"type":"function","name":"HIGH_VALUE_THRESHOLD","inputs":[],"outputs":[{"name":"","type":"uint256","internalType":"uint256"}],"stateMutability":"view"},{"type":"function","name":"arbiter","inputs":[],"outputs":[{"name":"","type":"address","internalType":"address"}],"stateMutability":"view"},{"type":"function","name":"arbiterChangeTime","inputs":[],"outputs":[{"name":"","type":"uint256","internalType":"uint256"}],"stateMutability":"view"},{"type":"function","name":"checkTimeout","inputs":[{"name":"id","type":"uint256","internalType":"uint256"}],"outputs":[{"name":"isNearTimeout","type":"bool","internalType":"bool"},{"name":"timeRemaining","type":"uint256","internalType":"uint256"}],"stateMutability":"view"},{"type":"function","name":"claimTimeout","inputs":[{"name":"id","type":"uint256","internalType":"uint256"}],"outputs":[],"stateMutability":"nonpayable"},{"type":"function","name":"createEscrow","inputs":[{"name":"merchant","type":"address","internalType":"address"},{"name":"token","type":"address","internalType":"address"},{"name":"amount","type":"uint256","internalType":"uint256"},{"name":"orderId","type":"string","internalType":"string"}],"outputs":[{"name":"","type":"uint256","internalType":"uint256"}],"stateMutability":"nonpayable"},{"type":"function","name":"dao","inputs":[],"outputs":[{"name":"","type":"address","internalType":"address"}],"stateMutability":"view"},{"type":"function","name":"escrowCount","inputs":[],"outputs":[{"name":"","type":"uint256","internalType":"uint256"}],"stateMutability":"view"},{"type":"function","name":"escrows","inputs":[{"name":"","type":"uint256","internalType":"uint256"}],"outputs":[{"name":"buyer","type":"address","internalType":"address"},{"name":"merchant","type":"address","internalType":"address"},{"name":"token","type":"address","internalType":"address"},{"name":"amount","type":"uint256","internalType":"uint256"},{"name":"createdAt","type":"uint256","internalType":"uint256"},{"name":"releaseTime","type":"uint256","internalType":"uint256"},{"name":"state","type":"uint8","internalType":"enum EscrowManager.State"},{"name":"orderId","type":"string","internalType":"string"}],"stateMutability":"view"},{"type":"function","name":"executeArbiterChange","inputs":[],"outputs":[],"stateMutability":"nonpayable"},{"type":"function","name":"notifyTimeout","inputs":[{"name":"id","type":"uint256","internalType":"uint256"}],"outputs":[],"stateMutability":"nonpayable"},{"type":"function","name":"pendingArbiter","inputs":[],"outputs":[{"name":"","type":"address","internalType":"address"}],"stateMutability":"view"},{"type":"function","name":"proposeArbiterChange","inputs":[{"name":"newArbiter","type":"address","internalType":"address"}],"outputs":[],"stateMutability":"nonpayable"},{"type":"function","name":"raiseDispute","inputs":[{"name":"id","type":"uint256","internalType":"uint256"}],"outputs":[],"stateMutability":"nonpayable"},{"type":"function","name":"refund","inputs":[{"name":"id","type":"uint256","internalType":"uint256"}],"outputs":[],"stateMutability":"nonpayable"},{"type":"function","name":"release","inputs":[{"name":"id","type":"uint256","internalType":"uint256"}],"outputs":[],"stateMutability":"nonpayable"},{"type":"function","name":"resolveDispute","inputs":[{"name":"id","type":"uint256","internalType":"uint256"},{"name":"refundBuyer","type":"bool","internalType":"bool"}],"outputs":[],"stateMutability":"nonpayable"},{"type":"function","name":"resolveDisputePartial","inputs":[{"name":"id","type":"uint256","internalType":"uint256"},{"name":"buyerShareBps","type":"uint256","internalType":"uint256"}],"outputs":[],"stateMutability":"nonpayable"},{"type":"function","name":"seer","inputs":[],"outputs":[{"name":"","type":"address","internalType":"contract ISeer"}],"stateMutability":"view"},{"type":"function","name":"setDAO","inputs":[{"name":"newDAO","type":"address","internalType":"address"}],"outputs":[],"stateMutability":"nonpayable"},{"type":"event","name":"DisputeRaised","inputs":[{"name":"escrowId","type":"uint256","indexed":true,"internalType":"uint256"},{"name":"by","type":"address","indexed":true,"internalType":"address"}],"anonymous":false},{"type":"event","name":"DisputeResolved","inputs":[{"name":"escrowId","type":"uint256","indexed":true,"internalType":"uint256"},{"name":"winner","type":"address","indexed":true,"internalType":"address"}],"anonymous":false},{"type":"event","name":"DisputeResolvedPartial","inputs":[{"name":"id","type":"uint256","indexed":true,"internalType":"uint256"},{"name":"buyerAmount","type":"uint256","indexed":false,"internalType":"uint256"},{"name":"merchantAmount","type":"uint256","indexed":false,"internalType":"uint256"}],"anonymous":false},{"type":"event","name":"EscrowCreated","inputs":[{"name":"escrowId","type":"uint256","indexed":true,"internalType":"uint256"},{"name":"buyer","type":"address","indexed":true,"internalType":"address"},{"name":"merchant","type":"address","indexed":true,"internalType":"address"},{"name":"amount","type":"uint256","indexed":false,"internalType":"uint256"},{"name":"releaseTime","type":"uint256","indexed":false,"internalType":"uint256"},{"name":"lockPeriod","type":"uint256","indexed":false,"internalType":"uint256"},{"name":"timestamp","type":"uint256","indexed":false,"internalType":"uint256"}],"anonymous":false},{"type":"event","name":"EscrowNearTimeout","inputs":[{"name":"escrowId","type":"uint256","indexed":true,"internalType":"uint256"},{"name":"timeRemaining","type":"uint256","indexed":false,"internalType":"uint256"}],"anonymous":false},{"type":"event","name":"EscrowRefunded","inputs":[{"name":"escrowId","type":"uint256","indexed":true,"internalType":"uint256"}],"anonymous":false},{"type":"event","name":"EscrowReleased","inputs":[{"name":"escrowId","type":"uint256","indexed":true,"internalType":"uint256"},{"name":"to","type":"address","indexed":true,"internalType":"address"}],"anonymous":false}],"bytecode":{"object":"0x6080346100ff57601f611c0438819003918201601f19168301916001600160401b038311848410176101035780849260409485528339810103126100ff57610052602061004b83610117565b9201610117565b60015f556001600160a01b0390911690811515806100ed575b156100b957600380546001600160a01b031990811684179091556004805482166001600160a01b039390931692909217909155600580549091169091179055604051611ad8908161012c8239f35b60405162461bcd60e51b815260206004820152600c60248201526b7a65726f206164647265737360a01b6044820152606490fd5b506001600160a01b038116151561006b565b5f80fd5b634e487b7160e01b5f52604160045260245ffd5b51906001600160a01b03821682036100ff5756fe6080806040526004361015610012575f80fd5b5f905f3560e01c908163012f52ee146114f257508063278ecde11461143c5780632d55ea391461141457806334b25ee21461115c57806337bdc99b14610f525780634162169f14610f295780634dd3b23a14610f005780635329c68114610ed357806354a997eb14610eb5578063675ac67a14610e975780637be87b9e146108d957806386e773f1146107d7578063a5c1674e14610707578063a83d2b661461044d578063ae90d1fe146103d0578063c72565681461030e578063ca7b64bb146102e9578063dfad4529146101a6578063e73a914c1461014e578063efa23290146101305763fe25e00a14610105575f80fd5b3461012d578060031936011261012d576003546040516001600160a01b039091168152602090f35b80fd5b503461012d578060031936011261012d57602060405162093a808152f35b503461012d57602036600319011261012d576101686116bd565b60055490610180336001600160a01b03841614611912565b6001600160a01b03169061019582151561187c565b6001600160a01b0319161760055580f35b503461012d57602036600319011261012d5760043580825260026020526040822060ff60068201541660048110156102d55761029c576005015480421015610263576101f390429061180b565b62015180811161022b5760207f41e80128d1173374dae904ff7cbe2fb9f01804d54d69351c3a2c13dab35d34c691604051908152a280f35b60405162461bcd60e51b815260206004820152601060248201526f1b9bdd081b99585c881d1a5b595bdd5d60821b6044820152606490fd5b60405162461bcd60e51b8152602060048201526011602482015270185b1c9958591e481d1a5b5959081bdd5d607a1b6044820152606490fd5b60405162461bcd60e51b8152602060048201526011602482015270657363726f77206e6f742061637469766560781b6044820152606490fd5b634e487b7160e01b84526021600452602484fd5b503461012d578060031936011261012d57602060405169021e19e0c9bab24000008152f35b503461012d578060031936011261012d576007544210610399576006546001600160a01b0381168015610360576001600160601b0360a01b60035416176003556001600160601b0360a01b1660065580f35b60405162461bcd60e51b81526020600482015260116024820152706e6f2070656e64696e67206368616e676560781b6044820152606490fd5b60405162461bcd60e51b815260206004820152600f60248201526e74696d656c6f636b2061637469766560881b6044820152606490fd5b503461012d57602036600319011261012d576103ea6116bd565b6103ff60018060a01b03600554163314611912565b6001600160a01b031661041381151561187c565b6001600160601b0360a01b600654161760065562093a8042018042116104395760075580f35b634e487b7160e01b82526011600452602482fd5b503461012d57604036600319011261012d5760043560243561046d611949565b61271081116106d0578183526002602052604083206006810160ff81541660048110156106bc5760036104a09114611746565b600382019069021e19e0c9bab24000008254115f1461068f576104d760018060a01b03600554168033149081610685575b506117bf565b600160ff19825416179055549180830290838204148315171561067157610504612710869204809461180b565b918361064d575b82610626575b6004546001600160a01b03168061055d575b5050507f2417ce4a28030011dbe05bd1b3d079cfb40c3f5c0d3e1067e7c5ace3ba00f3579160409182519182526020820152a26001815580f35b81546001600160a01b0316813b1561060557836105938193829360405194858094819363031879a760e21b8352600483016118d3565b03925af161060d575b5050600454600191909101546001600160a01b039081169116803b156106095760405163031879a760e21b815291839183918290849082906105e190600483016118d3565b03925af16105f0575b80610523565b816105fa91611687565b61060557835f6105ea565b8380fd5b8280fd5b8161061791611687565b61062257815f61059c565b5080fd5b600281015460018201546106489185916001600160a01b0390811691166119d1565b610511565b6002810154815461066c9186916001600160a01b0390811691166119d1565b61050b565b634e487b7160e01b85526011600452602485fd5b905015155f6104d1565b6106ad60018060a01b036003541680331490816106b2575b50611781565b6104d7565b905015155f6106a7565b634e487b7160e01b86526021600452602486fd5b60405162461bcd60e51b815260206004820152600f60248201526e45533a20696e76616c69642062707360881b6044820152606490fd5b503461012d57602036600319011261012d5760043580825260026020526040822080546001600160a01b0316331480156107c1575b156107905760060160ff81541660048110156102d55761075c901561170e565b805460ff1916600317905533907f84a477df8a28a4276ca6dee4458a06c3015f30c477d9c949ede4e13ff8a552b48380a380f35b60405162461bcd60e51b81526020600482015260096024820152686e6f7420706172747960b81b6044820152606490fd5b5060018101546001600160a01b0316331461073c565b503461012d57602036600319011261012d576004356107f4611949565b808252600260205260408220600181019061081960018060a01b0383541633146116d3565b600681019060ff82541660048110156106bc57610836901561170e565b600581015442106108a857815460ff1916600117909155600281015482546003909201546108729290916001600160a01b0391821691166119d1565b546001600160a01b0316907fefc7f1f15becfaec7a3c17eec78be3fa7adb45698f26fcfd25efe1754c2423318380a36001815580f35b60405162461bcd60e51b8152602060048201526009602482015268746f6f206561726c7960b81b6044820152606490fd5b503461012d57608036600319011261012d576108f36116bd565b6024356001600160a01b038116929083900361012d5767ffffffffffffffff6064351161012d5736602360643501121561012d5767ffffffffffffffff606435600401351161012d573660246064356004013560643501011161012d57610958611949565b6001600160a01b038216151580610e8e575b6109739061187c565b3315610e545760443515610e2157808060405160208101906323b872dd60e01b82523360248201523060448201526044356064820152606481526109b8608482611687565b519082875af16109c661198a565b81610df2575b5015610dad576004546212750091906001600160a01b031680610cfd575b50600154915f1983146104395760018301600155804201804211610ce95760405195610100870187811067ffffffffffffffff821117610cd55760409081523388526001600160a01b0387166020890152870152604435606087015242608087015260a086015260c08501829052610a67600460643501356118b7565b94610a756040519687611687565b606435600481013580885290602401602088013760046064358101358701602090810185905260e083019788526001868101865260028083526040808820865181546001600160a01b03199081166001600160a01b0392831617835595880151948201805487169582169590951790945590860151918101805490941691909216179091556060830151600382015560808301518183015560a0830151600582015560c0909201516006830191811015610cc157906007929160ff801983541691161790550194519384519567ffffffffffffffff8711610cad57610b5a815461164f565b601f8111610c68575b5060209687601f8211600114610c06578190600197988792610bfb575b50505f19600383901b1c191690861b1790555b838501835260028652600560408420015491604051926044358452878401526040830152426060830152838060a01b03169033907f2f6495bfe6d502e4955f6e73f157eed0b29d25177d63de7a3246ce38106221b9608086880192a455600160405191018152f35b015190505f80610b80565b82865280862097601f198316875b818110610c515750916001989991848a959410610c39575b505050811b019055610b93565b01515f1960f88460031b161c191690555f8080610c2c565b92998b600181928d8601518155019b019301610c14565b81855260208520601f890160051c81019160208a10610ca3575b601f0160051c01905b818110610c985750610b63565b858155600101610c8b565b9091508190610c82565b634e487b7160e01b84526041600452602484fd5b634e487b7160e01b85526021600452602485fd5b634e487b7160e01b85526041600452602485fd5b634e487b7160e01b83526011600452602483fd5b604051630d47875d60e41b81526001600160a01b038516600482015290602090829060249082905afa8015610da2578290610d63575b61ffff169050611f408110610d5057506203f48091505b5f6109ea565b61177011610d4a5762093a809150610d4a565b506020813d602011610d9a575b81610d7d60209383611687565b81010312610622575161ffff811681036106225761ffff90610d33565b3d9150610d70565b6040513d84823e3d90fd5b60405162461bcd60e51b815260206004820152601e60248201527f5361666545524332303a207472616e7366657246726f6d206661696c656400006044820152606490fd5b8051801592508215610e07575b50505f6109cc565b610e1a92506020809183010191016119b9565b5f80610dff565b60405162461bcd60e51b815260206004820152600b60248201526a1e995c9bc8185b5bdd5b9d60aa1b6044820152606490fd5b60405162461bcd60e51b81526020600482015260126024820152716275796572207a65726f206164647265737360701b6044820152606490fd5b5082151561096a565b503461012d578060031936011261012d576020600154604051908152f35b503461012d578060031936011261012d576020600754604051908152f35b503461012d57602036600319011261012d576040610ef260043561182c565b825191151582526020820152f35b503461012d578060031936011261012d576006546040516001600160a01b039091168152602090f35b503461012d578060031936011261012d576005546040516001600160a01b039091168152602090f35b503461012d57602036600319011261012d57600435610f6f611949565b80825260026020526040822080546001600160a01b0316330361112b576006810160ff8154166004811015610cc157610fa8901561170e565b600160ff198254161790558260018060a01b0360028301541691610fdf600182019360018060a01b038554166003840154916119d1565b6004546001600160a01b0316908161102d575b505090546001600160a01b03169190507fefc7f1f15becfaec7a3c17eec78be3fa7adb45698f26fcfd25efe1754c2423318380a36001815580f35b546001600160a01b0316813b1561060957829160a483926040519485938492630eccbd3560e11b845260048401526002602484015260606044840152600e60648401526d31b7b6b6b2b931b2afb13abcb2b960911b60848401525af1611116575b5060045482546001600160a01b039182169116813b1561060957829160a483926040519485938492630eccbd3560e11b845260048401526005602484015260606044840152601160648401527018dbdb5b595c98d957db595c98da185b9d607a1b60848401525af1611101575b80610ff2565b8161110b91611687565b61060957825f6110fb565b8161112091611687565b61060957825f61108e565b60405162461bcd60e51b81526020600482015260096024820152683737ba10313abcb2b960b91b6044820152606490fd5b50346113da5760403660031901126113da5760043560243580151581036113da57611185611949565b815f52600260205260405f206006810160ff81541660048110156114005760036111af9114611746565b600382019269021e19e0c9bab24000008454115f146113de576111e560018060a01b0360055416803314908161068557506117bf565b156112e157805460ff1916600290811790915581015481549254919261121892916001600160a01b0391821691166119d1565b60045483906001600160a01b031680611265575b5050546001600160a01b0316907ff77ceb5e091d2da041bc760667f9d5fe7a756949eaf29250ad0e60ca6f4c27d98380a35b6001815580f35b60018301546001600160a01b0316813b156106095760405163031879a760e21b815260048101919091526032602482015260606044820152600c60648201526b191a5cdc1d5d1957db1bdcdd60a21b6084820152908290829060a490829084905af11561122c57816112d691611687565b61060957825f61122c565b805460ff191660019081179091556002820154908201805493549093611313926001600160a01b0391821691166119d1565b6004546001600160a01b0316908161135c575b5050546001600160a01b0316907ff77ceb5e091d2da041bc760667f9d5fe7a756949eaf29250ad0e60ca6f4c27d98380a361125e565b546001600160a01b0316813b156113da5760405163031879a760e21b815260048101919091526014602482015260606044820152600c60648201526b191a5cdc1d5d1957db1bdcdd60a21b6084820152905f90829060a490829084905af16113c5575b80611326565b6113d29193505f90611687565b5f915f6113bf565b5f80fd5b6113fb60018060a01b036003541680331490816106b25750611781565b6111e5565b634e487b7160e01b5f52602160045260245ffd5b346113da575f3660031901126113da576004546040516001600160a01b039091168152602090f35b346113da5760203660031901126113da57600435611458611949565b805f52600260205260405f2061147b60018060a01b0360018301541633146116d3565b600681019060ff8254169160048310156114005761149c6114c8931561170e565b805460ff191660029081179091558101548154600390920154916001600160a01b0390811691166119d1565b7f2babb5cd458b6d41108d6d793a75e29ca524e7caa20e2da6c994462010920a725f80a260015f55005b346113da5760203660031901126113da576004355f52600260205260405f209060018060a01b038254169160018060a01b0360018201541660018060a01b036002830154166003830154600484015490600585015492600760ff6006880154169601945f95888154976115648961164f565b9283835260208301996001811690815f1461163057506001146115ed575b5061158f92500389611687565b604051988952602089015260408801526060870152608086015260a085015260048210156114005761012092849260c084015261010060e0840152518091816101008501528484015e5f828201840152601f01601f19168101030190f35b90505f9291925260205f20905f915b81831061161557505090602061158f928201018c611582565b80602092948385600194549201015201910190918a926115fc565b60ff19168b525061158f93151560051b830160200191508d9050611582565b90600182811c9216801561167d575b602083101461166957565b634e487b7160e01b5f52602260045260245ffd5b91607f169161165e565b90601f8019910116810190811067ffffffffffffffff8211176116a957604052565b634e487b7160e01b5f52604160045260245ffd5b600435906001600160a01b03821682036113da57565b156116da57565b60405162461bcd60e51b815260206004820152600c60248201526b1b9bdd081b595c98da185b9d60a21b6044820152606490fd5b1561171557565b60405162461bcd60e51b815260206004820152600960248201526862616420737461746560b81b6044820152606490fd5b1561174d57565b60405162461bcd60e51b815260206004820152600c60248201526b1b9bdd08191a5cdc1d5d195960a21b6044820152606490fd5b1561178857565b60405162461bcd60e51b815260206004820152600f60248201526e22a99d103737ba1030b93134ba32b960891b6044820152606490fd5b156117c657565b60405162461bcd60e51b815260206004820152601b60248201527f45533a20686967682076616c75652072657175697265732044414f00000000006044820152606490fd5b9190820391821161181857565b634e487b7160e01b5f52601160045260245ffd5b5f52600260205260405f2060ff60068201541660048110156114005761187557600501548042101561186d5761186390429061180b565b6201518081111591565b506001905f90565b505f905f90565b1561188357565b60405162461bcd60e51b815260206004820152600c60248201526b7a65726f206164647265737360a01b6044820152606490fd5b67ffffffffffffffff81116116a957601f01601f191660200190565b6001600160a01b03909116815260056020820152606060408201819052600d908201526c191a5cdc1d5d1957dcdc1b1a5d609a1b608082015260a00190565b1561191957565b60405162461bcd60e51b81526020600482015260086024820152676f6e6c792044414f60c01b6044820152606490fd5b60015f54036119585760025f55565b60405162461bcd60e51b815260206004820152600a6024820152697265656e7472616e637960b01b6044820152606490fd5b3d156119b4573d9061199b826118b7565b916119a96040519384611687565b82523d5f602084013e565b606090565b908160209103126113da575180151581036113da5790565b5f929183809360405190602082019363a9059cbb60e01b855260018060a01b03166024830152604482015260448152611a0b606482611687565b51926001600160a01b03165af1611a2061198a565b81611a73575b5015611a2e57565b60405162461bcd60e51b815260206004820152601a60248201527f5361666545524332303a207472616e73666572206661696c65640000000000006044820152606490fd5b8051801592508215611a88575b50505f611a26565b611a9b92506020809183010191016119b9565b5f80611a8056fea2646970667358221220ecaca0fa26bb9f85056c73a19557ce2ac406aa3d73adafbdd1816fa8c4acdf6264736f6c634300081e0033","linkReferences":{}},"methodIdentifiers":{"ARBITER_TIMELOCK()":"efa23290","HIGH_VALUE_THRESHOLD()":"ca7b64bb","arbiter()":"fe25e00a","arbiterChangeTime()":"54a997eb","checkTimeout(uint256)":"5329c681","claimTimeout(uint256)":"86e773f1","createEscrow(address,address,uint256,string)":"7be87b9e","dao()":"4162169f","escrowCount()":"675ac67a","escrows(uint256)":"012f52ee","executeArbiterChange()":"c7256568","notifyTimeout(uint256)":"dfad4529","pendingArbiter()":"4dd3b23a","proposeArbiterChange(address)":"ae90d1fe","raiseDispute(uint256)":"a5c1674e","refund(uint256)":"278ecde1","release(uint256)":"37bdc99b","resolveDispute(uint256,bool)":"34b25ee2","resolveDisputePartial(uint256,uint256)":"a83d2b66","seer()":"2d55ea39","setDAO(address)":"e73a914c"},"id":1}