{
  "_format": "hh-sol-artifact-1",
  "contractName": "StablecoinRegistry",
  "sourceName": "contracts/StablecoinRegistry.sol",
  "abi": [
    {
      "inputs": [
        {
          "internalType": "address",
          "name": "controller_",
          "type": "address"
        },
        {
          "internalType": "address",
          "name": "dao_",
          "type": "address"
        }
      ],
      "stateMutability": "nonpayable",
      "type": "constructor"
    },
    {
      "anonymous": false,
      "inputs": [
        {
          "indexed": true,
          "internalType": "address",
          "name": "controller",
          "type": "address"
        }
      ],
      "name": "ControllerUpdated",
      "type": "event"
    },
    {
      "anonymous": false,
      "inputs": [
        {
          "indexed": true,
          "internalType": "address",
          "name": "dao",
          "type": "address"
        }
      ],
      "name": "DaoUpdated",
      "type": "event"
    },
    {
      "anonymous": false,
      "inputs": [
        {
          "indexed": true,
          "internalType": "address",
          "name": "token",
          "type": "address"
        },
        {
          "indexed": false,
          "internalType": "bool",
          "name": "allowed",
          "type": "bool"
        }
      ],
      "name": "StablecoinSet",
      "type": "event"
    },
    {
      "inputs": [
        {
          "internalType": "address",
          "name": "",
          "type": "address"
        }
      ],
      "name": "allowed",
      "outputs": [
        {
          "internalType": "bool",
          "name": "",
          "type": "bool"
        }
      ],
      "stateMutability": "view",
      "type": "function"
    },
    {
      "inputs": [],
      "name": "controller",
      "outputs": [
        {
          "internalType": "address",
          "name": "",
          "type": "address"
        }
      ],
      "stateMutability": "view",
      "type": "function"
    },
    {
      "inputs": [],
      "name": "dao",
      "outputs": [
        {
          "internalType": "address",
          "name": "",
          "type": "address"
        }
      ],
      "stateMutability": "view",
      "type": "function"
    },
    {
      "inputs": [],
      "name": "getStablecoins",
      "outputs": [
        {
          "internalType": "address[]",
          "name": "",
          "type": "address[]"
        }
      ],
      "stateMutability": "view",
      "type": "function"
    },
    {
      "inputs": [
        {
          "internalType": "address",
          "name": "token",
          "type": "address"
        }
      ],
      "name": "isStablecoin",
      "outputs": [
        {
          "internalType": "bool",
          "name": "",
          "type": "bool"
        }
      ],
      "stateMutability": "view",
      "type": "function"
    },
    {
      "inputs": [
        {
          "internalType": "address",
          "name": "controller_",
          "type": "address"
        }
      ],
      "name": "setController",
      "outputs": [],
      "stateMutability": "nonpayable",
      "type": "function"
    },
    {
      "inputs": [
        {
          "internalType": "address",
          "name": "dao_",
          "type": "address"
        }
      ],
      "name": "setDAO",
      "outputs": [],
      "stateMutability": "nonpayable",
      "type": "function"
    },
    {
      "inputs": [
        {
          "internalType": "address",
          "name": "token",
          "type": "address"
        },
        {
          "internalType": "bool",
          "name": "allowed_",
          "type": "bool"
        }
      ],
      "name": "setStablecoin",
      "outputs": [],
      "stateMutability": "nonpayable",
      "type": "function"
    },
    {
      "inputs": [
        {
          "internalType": "address[]",
          "name": "tokens",
          "type": "address[]"
        },
        {
          "internalType": "bool",
          "name": "allowed_",
          "type": "bool"
        }
      ],
      "name": "setStablecoins",
      "outputs": [],
      "stateMutability": "nonpayable",
      "type": "function"
    },
    {
      "inputs": [
        {
          "internalType": "uint256",
          "name": "index",
          "type": "uint256"
        }
      ],
      "name": "stablecoinAt",
      "outputs": [
        {
          "internalType": "address",
          "name": "",
          "type": "address"
        }
      ],
      "stateMutability": "view",
      "type": "function"
    },
    {
      "inputs": [],
      "name": "stablecoinCount",
      "outputs": [
        {
          "internalType": "uint256",
          "name": "",
          "type": "uint256"
        }
      ],
      "stateMutability": "view",
      "type": "function"
    }
  ],
  "bytecode": "0x60803461012f57601f610b7e38819003918201601f19168301916001600160401b0383118484101761013457808492604094855283398101031261012f57610052602061004b8361014a565b920161014a565b6001600160a01b03909116908115158061011d575b156100f257600080546001600160a01b031990811684178255600180549091166001600160a01b0393909316928317905560405192907f1304018cfe79741dcf02ba6b61d39cc4757d59395d03224d9925c7aa830021469080a27f2c3959ae33559a3a1f1b3315b7f0c94574a64b48fc2d59a3b04c7e4180046bec600080a2610a1f908161015f8239f35b606460405162461bcd60e51b81526020600482015260046024820152637a65726f60e01b6044820152fd5b506001600160a01b0381161515610067565b600080fd5b634e487b7160e01b600052604160045260246000fd5b51906001600160a01b038216820361012f5756fe608080604052600436101561001357600080fd5b60003560e01c9081631a650cc71461063d575080631ccbf908146105e25780634162169f146105b95780637b053df41461059b57806392eefe9b146104fb578063b6020edb1461040d578063cc4637781461039b578063d1d7e6f01461019d578063d63a8e111461015e578063e73a914c146100c65763f77c47911461009857600080fd5b346100c15760003660031901126100c1576000546040516001600160a01b039091168152602090f35b600080fd5b346100c15760203660031901126100c1576100df610678565b6000546001600160a01b03163314801561014a575b6100fd9061069d565b6001600160a01b03166101118115156106d3565b600180546001600160a01b031916821790557f2c3959ae33559a3a1f1b3315b7f0c94574a64b48fc2d59a3b04c7e4180046bec600080a2005b506001546001600160a01b031633146100f4565b346100c15760203660031901126100c1576001600160a01b0361017f610678565b166000526004602052602060ff604060002054166040519015158152f35b346100c15760403660031901126100c15760043567ffffffffffffffff81116100c157366023820112156100c15780600401359067ffffffffffffffff82116100c1573660248360051b830101116100c1576101f761068e565b9160018060a01b036000541633148015610387575b6102189092919261069d565b8215159060005b83811015610385576024600582901b830101356001600160a01b0381169060009082900361038257906001929181156102bd57818152600460205260ff604082205416801590878215146103795789156102f9575061027d83610969565b156102b857508082604092526004602052208360ff198254161790556000805160206109ca8339815191526020604051858152a25b0161021f565b6102c4575b50506102b2565b8082604092526004602052208360ff198254161790556000805160206109ca8339815191526020604051858152a286806102bd565b90506103048361086b565b1561033b5750602081836000805160206109ca8339815191529352600482526040812060ff198154169055604051908152a26102b2565b6103465750506102b2565b602081836000805160206109ca8339815191529352600482526040812060ff198154169055604051908152a286806102bd565b505050506102b2565b80fd5b005b506001546001600160a01b0316331461020c565b346100c15760203660031901126100c1576004356000906002548110156103f95760029091527f405787fa12a823e0f2b7631cc41b3ba8828b3321ca811111fa75cd3aa3bb5ace01546040516001600160a01b039091168152602090f35b634e487b7160e01b82526032600452602482fd5b346100c15760003660031901126100c1576040518060206002549182815201809160026000527f405787fa12a823e0f2b7631cc41b3ba8828b3321ca811111fa75cd3aa3bb5ace9060005b8181106104e557505050829003601f01601f191682019167ffffffffffffffff8311818410176104cf57908291826040526020830190602084525180915260408301919060005b8181106104ad575050500390f35b82516001600160a01b031684528594506020938401939092019160010161049f565b634e487b7160e01b600052604160045260246000fd5b8254845260209093019260019283019201610458565b346100c15760203660031901126100c157610514610678565b60005490336001600160a01b038316148015610587575b6105349061069d565b6001600160a01b031690819061054b8215156106d3565b6bffffffffffffffffffffffff60a01b16176000557f1304018cfe79741dcf02ba6b61d39cc4757d59395d03224d9925c7aa83002146600080a2005b506001546001600160a01b0316331461052b565b346100c15760003660031901126100c1576020600254604051908152f35b346100c15760003660031901126100c1576001546040516001600160a01b039091168152602090f35b346100c15760403660031901126100c1576103856105fe610678565b61060661068e565b9060018060a01b036000541633148015610629575b6106249061069d565b610705565b506001546001600160a01b0316331461061b565b346100c15760203660031901126100c1576020906001600160a01b03610661610678565b166000526004825260ff6040600020541615158152f35b600435906001600160a01b03821682036100c157565b6024359081151582036100c157565b156106a457565b60405162461bcd60e51b81526020600482015260076024820152663737ba1033b7bb60c91b6044820152606490fd5b156106da57565b606460405162461bcd60e51b81526020600482015260046024820152637a65726f60e01b6044820152fd5b6001600160a01b03169061071a8215156106d3565b81600052600460205260ff6040600020541680159180151583151461083757156107bd575061074882610969565b1561078257508060005260046020526040600020600160ff198254161790556000805160206109ca833981519152602060405160018152a2565b6107895750565b8060005260046020526040600020600160ff198254161790556000805160206109ca833981519152602060405160018152a2565b90506107c88261086b565b156107ff5750806000526004602052604060002060ff1981541690556000805160206109ca833981519152602060405160008152a2565b6108065750565b806000526004602052604060002060ff1981541690556000805160206109ca833981519152602060405160008152a2565b50505050565b80548210156108555760005260206000200190600090565b634e487b7160e01b600052603260045260246000fd5b600081815260036020526040902054801561096257600019810181811161094c5760025460001981019190821161094c578082036108fb575b50505060025480156108e557600019016108bf81600261083d565b8154906000199060031b1b19169055600255600052600360205260006040812055600190565b634e487b7160e01b600052603160045260246000fd5b61093461090c61091d93600261083d565b90549060031b1c928392600261083d565b819391549060031b91821b91600019901b19161790565b905560005260036020526040600020553880806108a4565b634e487b7160e01b600052601160045260246000fd5b5050600090565b806000526003602052604060002054156000146109c357600254680100000000000000008110156104cf576109aa61091d826001859401600255600261083d565b9055600254906000526003602052604060002055600190565b5060009056fe28ff7a2959588997cec5aca3f197bdfc2e9dbf0a4dc234cd4b523d26816024dca2646970667358221220398310e5a55262e20c6dcbba5f1507a579517e3a715be2335ebbf2f175d0f57864736f6c634300081e0033",
  "linkReferences": {},
  "deployedLinkReferences": {}
}