{
  "_format": "hh-sol-artifact-1",
  "contractName": "ReviewRegistry",
  "sourceName": "contracts/ReviewRegistry.sol",
  "abi": [
    {
      "inputs": [
        {
          "internalType": "address",
          "name": "initialOwner",
          "type": "address"
        }
      ],
      "stateMutability": "nonpayable",
      "type": "constructor"
    },
    {
      "inputs": [],
      "name": "AlreadyReviewed",
      "type": "error"
    },
    {
      "inputs": [],
      "name": "BadStars",
      "type": "error"
    },
    {
      "inputs": [],
      "name": "EditWindowClosed",
      "type": "error"
    },
    {
      "inputs": [],
      "name": "NotBuyer",
      "type": "error"
    },
    {
      "inputs": [],
      "name": "NotCompleted",
      "type": "error"
    },
    {
      "inputs": [],
      "name": "NotGov",
      "type": "error"
    },
    {
      "inputs": [],
      "name": "ZeroAddress",
      "type": "error"
    },
    {
      "anonymous": false,
      "inputs": [
        {
          "indexed": false,
          "internalType": "address",
          "name": "dao",
          "type": "address"
        }
      ],
      "name": "DAOUpdated",
      "type": "event"
    },
    {
      "anonymous": false,
      "inputs": [
        {
          "indexed": false,
          "internalType": "address",
          "name": "escrow",
          "type": "address"
        }
      ],
      "name": "EscrowSet",
      "type": "event"
    },
    {
      "anonymous": false,
      "inputs": [
        {
          "indexed": true,
          "internalType": "address",
          "name": "previousOwner",
          "type": "address"
        },
        {
          "indexed": true,
          "internalType": "address",
          "name": "newOwner",
          "type": "address"
        }
      ],
      "name": "OwnershipTransferStarted",
      "type": "event"
    },
    {
      "anonymous": false,
      "inputs": [
        {
          "indexed": true,
          "internalType": "address",
          "name": "previousOwner",
          "type": "address"
        },
        {
          "indexed": true,
          "internalType": "address",
          "name": "newOwner",
          "type": "address"
        }
      ],
      "name": "OwnershipTransferred",
      "type": "event"
    },
    {
      "anonymous": false,
      "inputs": [
        {
          "indexed": false,
          "internalType": "address",
          "name": "proof",
          "type": "address"
        }
      ],
      "name": "ProofSinkSet",
      "type": "event"
    },
    {
      "anonymous": false,
      "inputs": [
        {
          "indexed": true,
          "internalType": "uint256",
          "name": "orderId",
          "type": "uint256"
        },
        {
          "indexed": false,
          "internalType": "uint8",
          "name": "newStars",
          "type": "uint8"
        }
      ],
      "name": "ReviewEdited",
      "type": "event"
    },
    {
      "anonymous": false,
      "inputs": [
        {
          "indexed": true,
          "internalType": "uint256",
          "name": "orderId",
          "type": "uint256"
        },
        {
          "indexed": false,
          "internalType": "bool",
          "name": "hidden",
          "type": "bool"
        }
      ],
      "name": "ReviewHidden",
      "type": "event"
    },
    {
      "anonymous": false,
      "inputs": [
        {
          "indexed": true,
          "internalType": "uint256",
          "name": "orderId",
          "type": "uint256"
        },
        {
          "indexed": true,
          "internalType": "address",
          "name": "buyer",
          "type": "address"
        },
        {
          "indexed": true,
          "internalType": "address",
          "name": "merchant",
          "type": "address"
        },
        {
          "indexed": false,
          "internalType": "uint8",
          "name": "stars",
          "type": "uint8"
        },
        {
          "indexed": false,
          "internalType": "int16",
          "name": "weightBp",
          "type": "int16"
        }
      ],
      "name": "Reviewed",
      "type": "event"
    },
    {
      "anonymous": false,
      "inputs": [
        {
          "indexed": false,
          "internalType": "address",
          "name": "seer",
          "type": "address"
        }
      ],
      "name": "SeerSet",
      "type": "event"
    },
    {
      "anonymous": false,
      "inputs": [
        {
          "indexed": false,
          "internalType": "uint64",
          "name": "editGraceSecs",
          "type": "uint64"
        },
        {
          "indexed": false,
          "internalType": "bool",
          "name": "allowEdits",
          "type": "bool"
        }
      ],
      "name": "SettingsUpdated",
      "type": "event"
    },
    {
      "inputs": [],
      "name": "acceptOwnership",
      "outputs": [],
      "stateMutability": "nonpayable",
      "type": "function"
    },
    {
      "inputs": [
        {
          "internalType": "address",
          "name": "",
          "type": "address"
        }
      ],
      "name": "aggOf",
      "outputs": [
        {
          "internalType": "uint256",
          "name": "sumWeighted",
          "type": "uint256"
        },
        {
          "internalType": "uint256",
          "name": "sumWeight",
          "type": "uint256"
        }
      ],
      "stateMutability": "view",
      "type": "function"
    },
    {
      "inputs": [],
      "name": "allowEdits",
      "outputs": [
        {
          "internalType": "bool",
          "name": "",
          "type": "bool"
        }
      ],
      "stateMutability": "view",
      "type": "function"
    },
    {
      "inputs": [],
      "name": "dao",
      "outputs": [
        {
          "internalType": "address",
          "name": "",
          "type": "address"
        }
      ],
      "stateMutability": "view",
      "type": "function"
    },
    {
      "inputs": [],
      "name": "editGraceSecs",
      "outputs": [
        {
          "internalType": "uint64",
          "name": "",
          "type": "uint64"
        }
      ],
      "stateMutability": "view",
      "type": "function"
    },
    {
      "inputs": [
        {
          "internalType": "uint256",
          "name": "orderId",
          "type": "uint256"
        },
        {
          "internalType": "uint8",
          "name": "newStars",
          "type": "uint8"
        },
        {
          "internalType": "string",
          "name": "newText",
          "type": "string"
        }
      ],
      "name": "editReview",
      "outputs": [],
      "stateMutability": "nonpayable",
      "type": "function"
    },
    {
      "inputs": [],
      "name": "escrow",
      "outputs": [
        {
          "internalType": "contract IEscrow",
          "name": "",
          "type": "address"
        }
      ],
      "stateMutability": "view",
      "type": "function"
    },
    {
      "inputs": [
        {
          "internalType": "uint256",
          "name": "orderId",
          "type": "uint256"
        },
        {
          "internalType": "bool",
          "name": "hidden",
          "type": "bool"
        }
      ],
      "name": "hideReview",
      "outputs": [],
      "stateMutability": "nonpayable",
      "type": "function"
    },
    {
      "inputs": [
        {
          "internalType": "uint256",
          "name": "orderId",
          "type": "uint256"
        },
        {
          "internalType": "uint8",
          "name": "stars",
          "type": "uint8"
        },
        {
          "internalType": "string",
          "name": "text",
          "type": "string"
        }
      ],
      "name": "leaveReview",
      "outputs": [],
      "stateMutability": "nonpayable",
      "type": "function"
    },
    {
      "inputs": [],
      "name": "owner",
      "outputs": [
        {
          "internalType": "address",
          "name": "",
          "type": "address"
        }
      ],
      "stateMutability": "view",
      "type": "function"
    },
    {
      "inputs": [],
      "name": "pendingOwner",
      "outputs": [
        {
          "internalType": "address",
          "name": "",
          "type": "address"
        }
      ],
      "stateMutability": "view",
      "type": "function"
    },
    {
      "inputs": [],
      "name": "proof",
      "outputs": [
        {
          "internalType": "contract IProofLedger",
          "name": "",
          "type": "address"
        }
      ],
      "stateMutability": "view",
      "type": "function"
    },
    {
      "inputs": [],
      "name": "renounceOwnership",
      "outputs": [],
      "stateMutability": "nonpayable",
      "type": "function"
    },
    {
      "inputs": [
        {
          "internalType": "uint256",
          "name": "",
          "type": "uint256"
        }
      ],
      "name": "reviewOfOrder",
      "outputs": [
        {
          "internalType": "address",
          "name": "buyer",
          "type": "address"
        },
        {
          "internalType": "address",
          "name": "merchant",
          "type": "address"
        },
        {
          "internalType": "uint8",
          "name": "stars",
          "type": "uint8"
        },
        {
          "internalType": "int16",
          "name": "weightBp",
          "type": "int16"
        },
        {
          "internalType": "string",
          "name": "text",
          "type": "string"
        },
        {
          "internalType": "uint64",
          "name": "createdAt",
          "type": "uint64"
        },
        {
          "internalType": "uint64",
          "name": "editedAt",
          "type": "uint64"
        },
        {
          "internalType": "bool",
          "name": "hidden",
          "type": "bool"
        }
      ],
      "stateMutability": "view",
      "type": "function"
    },
    {
      "inputs": [],
      "name": "seer",
      "outputs": [
        {
          "internalType": "contract ISeerView",
          "name": "",
          "type": "address"
        }
      ],
      "stateMutability": "view",
      "type": "function"
    },
    {
      "inputs": [
        {
          "internalType": "address",
          "name": "d",
          "type": "address"
        }
      ],
      "name": "setDAO",
      "outputs": [],
      "stateMutability": "nonpayable",
      "type": "function"
    },
    {
      "inputs": [
        {
          "internalType": "address",
          "name": "e",
          "type": "address"
        }
      ],
      "name": "setEscrow",
      "outputs": [],
      "stateMutability": "nonpayable",
      "type": "function"
    },
    {
      "inputs": [
        {
          "internalType": "address",
          "name": "p",
          "type": "address"
        }
      ],
      "name": "setProofSink",
      "outputs": [],
      "stateMutability": "nonpayable",
      "type": "function"
    },
    {
      "inputs": [
        {
          "internalType": "address",
          "name": "s",
          "type": "address"
        }
      ],
      "name": "setSeer",
      "outputs": [],
      "stateMutability": "nonpayable",
      "type": "function"
    },
    {
      "inputs": [
        {
          "internalType": "uint64",
          "name": "grace",
          "type": "uint64"
        },
        {
          "internalType": "bool",
          "name": "edits",
          "type": "bool"
        }
      ],
      "name": "setSettings",
      "outputs": [],
      "stateMutability": "nonpayable",
      "type": "function"
    },
    {
      "inputs": [
        {
          "internalType": "address",
          "name": "newOwner",
          "type": "address"
        }
      ],
      "name": "transferOwnership",
      "outputs": [],
      "stateMutability": "nonpayable",
      "type": "function"
    },
    {
      "inputs": [
        {
          "internalType": "address",
          "name": "merchant",
          "type": "address"
        }
      ],
      "name": "weightedRating",
      "outputs": [
        {
          "internalType": "uint256",
          "name": "numerator",
          "type": "uint256"
        },
        {
          "internalType": "uint256",
          "name": "denominator",
          "type": "uint256"
        },
        {
          "internalType": "uint256",
          "name": "scaledStars1e2",
          "type": "uint256"
        }
      ],
      "stateMutability": "view",
      "type": "function"
    }
  ],
  "bytecode": "0x6080346100be57601f61185838819003918201601f19168301916001600160401b038311848410176100c3578084926020946040528339810103126100be57516001600160a01b0381168082036100be57610059336100d9565b600160025560068054600160a01b600160e81b0319167c01000000000002a3000000000000000000000000000000000000000000179055156100ad5761009e906100d9565b604051611729908161012f8239f35b63d92e233d60e01b60005260046000fd5b600080fd5b634e487b7160e01b600052604160045260246000fd5b600180546001600160a01b0319908116909155600080546001600160a01b03938416928116831782559192909116907f8be0079c531659141344cd1fd0a4f28419497f9722a3daafe3b4186f6b6457e09080a356fe6080604052600436101561001257600080fd5b6000803560e01c80630dc9759d14610d8b57806323453faf14610d445780632d55ea3914610d1b5780634162169f14610cf257806348ce238414610c5c57806364ebfbf014610bac5780636a9202b91461089c578063715018a61461083757806379ba50971461076e57806380206b7c1461060e57806389d601f0146105345780638da5cb5b1461050d578063b04aa142146104e7578063c10c35461461044b578063cdf075e914610421578063d178617014610359578063e071c1c0146102bd578063e2fdcc1714610294578063e30c39781461026b578063e73a914c146101b1578063f2fde38b1461013a5763faf924cf1461010f57600080fd5b346101375780600319360112610137576004546040516001600160a01b039091168152602090f35b80fd5b5034610137576020366003190112610137576004356001600160a01b038116908190036101ad5761016961169b565b600180546001600160a01b0319168217905581546001600160a01b03167f38d16b8cac22d99fc7c124b9cd0de2d3fa1faef420bfe791d8c362d765e227008380a380f35b5080fd5b5034610137576020366003190112610137576004356001600160a01b038116908190036101ad5781546001600160a01b031633141580610256575b610247578015610238576020817f395c0f5a57accc3f0c20646b402f0845c448f3e4ac4a2ec56a3eaf26d15bf79a926001600160601b0360a01b6006541617600655604051908152a180f35b63d92e233d60e01b8252600482fd5b63b577c1f760e01b8252600482fd5b506006546001600160a01b03163314156101ec565b50346101375780600319360112610137576001546040516001600160a01b039091168152602090f35b50346101375780600319360112610137576005546040516001600160a01b039091168152602090f35b5034610137576020366003190112610137576004356001600160a01b038116908190036101ad5781546001600160a01b031633141580610344575b610247578015610238576020817fc33c1a95c902d772578a793cd3d42b7d0a418863633ff3be7853c55a4d95388a926001600160601b0360a01b6003541617600355604051908152a180f35b506006546001600160a01b03163314156102f8565b5034610137576020366003190112610137576004356001600160a01b038116908190036101ad578152600860205260408120604051604081018181106001600160401b0382111761040d579060209160405260018354938483520154918291015280156000146103da57606092905b60405192835260208301526040820152f35b60648202828104606414831517156103f95781906060945004906103c8565b634e487b7160e01b84526011600452602484fd5b634e487b7160e01b84526041600452602484fd5b503461013757806003193601126101375760206001600160401b0360065460a01c16604051908152f35b5034610137576020366003190112610137576004356001600160a01b038116908190036101ad5781546001600160a01b0316331415806104d2575b610247578015610238576020817fa585aec3a6cb0e1a084ed18c7638024e40cc3e3ea815166e2cb6fc17d7f1392b926001600160601b0360a01b6005541617600555604051908152a180f35b506006546001600160a01b0316331415610486565b5034610137578060031936011261013757602060ff60065460e01c166040519015158152f35b5034610137578060031936011261013757546040516001600160a01b039091168152602090f35b5034610137576040366003190112610137576004356001600160401b0381169081810361060a576105636113ad565b9060018060a01b03845416331415806105f5575b6105e657916040917f5ed083514c623f3d11fc15f03eb97bec6da95932860ced09573ddf7cd5c3bc74936006549115159160ff60e01b8360e01b16916001600160401b0360a01b9060a01b169068ffffffffffffffffff60a01b1916171760065582519182526020820152a180f35b63b577c1f760e01b8452600484fd5b506006546001600160a01b0316331415610577565b8280fd5b50346101375760203660031901126101375760043581526007602052604081209060018060a01b038254166001830154916002840193604051948290805493610656856113bc565b91828952602089019560018116908160001461074d575060011461070f575b505050946106db600360ff9361069184610120999a03856113f6565b015491604051978896875260018060a01b0381166020880152848160a01c16604088015260a81c60010b60608701526101006080870152518094816101008801528787019061142d565b6001600160401b0381811660a0860152604082901c1660c085015260801c16151560e0830152601f01601f19168101030190f35b9080935052602082205b81831061073357505085016020016106db600360ff610675565b6001816020929493945483858c0101520191019190610719565b60ff19168752505050151560051b860160200190506106db600360ff610675565b5034610137578060031936011261013757600154336001600160a01b03909116036107e057600180546001600160a01b0319908116909155815433918116821783556001600160a01b03167f8be0079c531659141344cd1fd0a4f28419497f9722a3daafe3b4186f6b6457e08380a380f35b60405162461bcd60e51b815260206004820152602960248201527f4f776e61626c6532537465703a2063616c6c6572206973206e6f7420746865206044820152683732bb9037bbb732b960b91b6064820152608490fd5b503461013757806003193601126101375761085061169b565b600180546001600160a01b03199081169091558154908116825581906001600160a01b03167f8be0079c531659141344cd1fd0a4f28419497f9722a3daafe3b4186f6b6457e08280a380f35b5034610137576108ab36611347565b91906108b561150e565b6006549060ff8260e01c1615610b9d5760ff831693600185108015610b93575b610b845785875260076020526040872080549094906001600160a01b03163303610b755760038501936001600160401b03808654169160a01c16016001600160401b038111610b61576001600160401b03164211610b2f578461099e60029260ff61098260018d6109776109708360409e019d8e5493858060a01b03851681526008602052209261ffff8160a81c1696879160a01c166114e5565b825461168e565b81550191825461168e565b9055875460ff60a01b191660a09190911b60ff60a01b16178755565b01916001600160401b038211610b1b576109c2826109bc85546113bc565b85611493565b879088601f8411600114610a895793610a208460209895610a4e957f791f14e6681d0916fa972e3f22871c0287bb9c6ae44cff5651ab1b1d5face5d29b9995610a6f9992610a7e575b50508160011b916000199060031b1c19161790565b90555b80546fffffffffffffffff000000000000000019164260401b67ffffffffffffffff60401b16179055565b5460a881901c60010b9060a081901c60ff16906001600160a01b0316611646565b604051908152a2600160025580f35b013590503880610a0b565b508389526020892091601f1984168a5b818110610b03575084610a4e947f791f14e6681d0916fa972e3f22871c0287bb9c6ae44cff5651ab1b1d5face5d29a9894610a6f989460209b9860019510610ae9575b505050811b019055610a23565b0135600019600384901b60f8161c19169055388080610adc565b91936020600181928787013581550195019201610a99565b634e487b7160e01b88526041600452602488fd5b60405162461bcd60e51b815260206004820152600a60248201526933b930b1b29037bb32b960b11b6044820152606490fd5b634e487b7160e01b89526011600452602489fd5b63239700bf60e11b8852600488fd5b6314dd823d60e31b8752600487fd5b50600585116108d5565b63fee3cef560e01b8652600486fd5b503461013757604036600319011261013757600435610bc96113ad565b82546001600160a01b031633141580610c47575b610c38578183526007602090815260408420600301805460ff60801b191683151560801b60ff60801b161790557f3efd5e17e341e0d8e840edf5d459ad74a0cb39454a741660a5af8d724105c7bb916040519015158152a280f35b63b577c1f760e01b8352600483fd5b506006546001600160a01b0316331415610bdd565b5034610137576020366003190112610137576004356001600160a01b038116908190036101ad5781546001600160a01b031633141580610cdd575b610247576020817f672081dadde50e814bb62a7286e6c0cad07071fa40747b022649c85346bdbc84926001600160601b0360a01b6004541617600455604051908152a180f35b506006546001600160a01b0316331415610c97565b50346101375780600319360112610137576006546040516001600160a01b039091168152602090f35b50346101375780600319360112610137576003546040516001600160a01b039091168152602090f35b5034610137576020366003190112610137576004356001600160a01b038116908190036101ad57604082819281526008602052206001815491015482519182526020820152f35b503461013757610d9a36611347565b93929190610da661150e565b600160ff831610801561133a575b61132b5760055460405163a85c38ef60e01b815260048101859052939291908590859060249082906001600160a01b03165afa93841561132057859486918791611238575b50336001600160a01b03871603611229576007811015611215576005811490811561120a575b50156111fb57838652600760205260408620546001600160a01b03166111ec57610e4885611562565b916040519061010082018281106001600160401b038211176111d45760405260018060a01b03871682526020820160018060a01b0384168152604083019960ff87168b5260608401908660010b8252610ea081611478565b93610eae60405195866113f6565b81855236828201116111e85760019c8c602084610f659560ff95838b013788010152608087019586526001600160401b03421660a08801528c60c08801528c60e08801528a8d52600760205260408d209d8e818060a01b03828060a01b038a5116166001600160601b0360a01b825416178155019460018060a01b039060018060a01b03905116166001600160601b0360a01b8654161785555116839081549060ff60a01b9060a01b169060ff60a01b1916179055565b5181549060a81b61ffff60a81b169061ffff60a81b1916179055519788516001600160401b0381116111d457610fab81610fa260028501546113bc565b60028501611493565b6020601f821160011461115d576110619392610fe68360e0946003948e9f8f9e9f926111525750508160011b916000199060031b1c19161790565b60028201555b01916001600160401b0360a0820151166001600160401b03198454161783556110456001600160401b0360c083015116849067ffffffffffffffff60401b82549160401b169067ffffffffffffffff60401b1916179055565b0151815460ff60801b191690151560801b60ff60801b16179055565b61106c828483611646565b6040805160ff8516815260019390930b60208401526001600160a01b03918216929187169185917f876c1f5af8f142e84572a50f0d99fb2274793865f8bf03902efcebad9076534e91a460ff6040519160208301938452166040820152604081526110d86060826113f6565b5190206004546001600160a01b03169290836110f8575b82600160025580f35b833b1561060a57604051631250d57560e31b81526001600160a01b0390921660048301526028602483015260448201529181908390606490829084905af1611142575b81806110ef565b61114b916113f6565b388161113b565b015190503880610a0b565b600283018a52808a209a8a5b601f19841681106111bc5750926001838c9d60039461106198979d9e9d60e097601f198116106111a4575b505050811b016002820155610fec565b015160001983871b60f8161c19169055388080611194565b828201518d556001909c019b60209283019201611169565b634e487b7160e01b89526041600452602489fd5b8b80fd5b6396c3b41160e01b8652600486fd5b6317f5db8160e21b8652600486fd5b600691501438610e1f565b634e487b7160e01b87526021600452602487fd5b63239700bf60e11b8752600487fd5b955050503d8086863e61124b81866113f6565b8401936101208186031261131c5761126281611450565b61126e60208301611450565b9560608301519260078410156113185761128a60808201611464565b5061129760a08201611464565b506112a460c08201611464565b506112b160e08201611464565b50610100810151906001600160401b038211611314570181601f82011215611318578051916112df83611478565b906112ed60405192836113f6565b83825260208484010111611314579060208061130c949301910161142d565b949038610df9565b8980fd5b8880fd5b8580fd5b6040513d87823e3d90fd5b6314dd823d60e31b8452600484fd5b50600560ff831611610db4565b9060606003198301126113a8576004359160243560ff811681036113a857916044356001600160401b0381116113a857826023820112156113a8578060040135926001600160401b0384116113a857602484830101116113a8576024019190565b600080fd5b6024359081151582036113a857565b90600182811c921680156113ec575b60208310146113d657565b634e487b7160e01b600052602260045260246000fd5b91607f16916113cb565b90601f801991011681019081106001600160401b0382111761141757604052565b634e487b7160e01b600052604160045260246000fd5b60005b8381106114405750506000910152565b8181015183820152602001611430565b51906001600160a01b03821682036113a857565b51906001600160401b03821682036113a857565b6001600160401b03811161141757601f01601f191660200190565b601f82116114a057505050565b6000526020600020906020601f840160051c830193106114db575b601f0160051c01905b8181106114cf575050565b600081556001016114c4565b90915081906114bb565b818102929181159184041417156114f857565b634e487b7160e01b600052601160045260246000fd5b600280541461151d5760028055565b60405162461bcd60e51b815260206004820152601f60248201527f5265656e7472616e637947756172643a207265656e7472616e742063616c6c006044820152606490fd5b6003546001600160a01b03169081156116315760405163776f384360e01b81526001600160a01b03909116600482015290602090829060249082905afa908115611625576000916115e6575b5061ffff166103e88102908082056103e814901517156114f8576103e89005806101f4019081126001166114f85761ffff1660010b90565b6020813d60201161161d575b816115ff602093836113f6565b810103126101ad57519061ffff82168203610137575061ffff6115ae565b3d91506115f2565b6040513d6000823e3d90fd5b50506103e890565b919082018092116114f857565b60ff9261167f61167861168a94600194858060a01b0316600052600860205261ffff60406000209416968791166114e5565b8254611639565b815501918254611639565b9055565b919082039182116114f857565b6000546001600160a01b031633036116af57565b606460405162461bcd60e51b815260206004820152602060248201527f4f776e61626c653a2063616c6c6572206973206e6f7420746865206f776e65726044820152fdfea264697066735822122010138e2ea0662e9eb2dbc5e1eb81133887b19e8b364896c3c1f08bf24ac8076c64736f6c634300081e0033",
  "linkReferences": {},
  "deployedLinkReferences": {}
}