{"abi":[{"type":"constructor","inputs":[{"name":"_dao","type":"address","internalType":"address"},{"name":"_seer","type":"address","internalType":"address"},{"name":"_vaultHub","type":"address","internalType":"address"},{"name":"_ledger","type":"address","internalType":"address"}],"stateMutability":"nonpayable"},{"type":"function","name":"actionOverridden","inputs":[{"name":"","type":"bytes32","internalType":"bytes32"}],"outputs":[{"name":"","type":"bool","internalType":"bool"}],"stateMutability":"view"},{"type":"function","name":"activeRestriction","inputs":[{"name":"","type":"address","internalType":"address"}],"outputs":[{"name":"","type":"uint8","internalType":"enum SeerGuardian.RestrictionType"}],"stateMutability":"view"},{"type":"function","name":"autoCheckProposer","inputs":[{"name":"proposalId","type":"uint256","internalType":"uint256"},{"name":"proposer","type":"address","internalType":"address"}],"outputs":[],"stateMutability":"nonpayable"},{"type":"function","name":"autoLiftThreshold","inputs":[],"outputs":[{"name":"","type":"uint16","internalType":"uint16"}],"stateMutability":"view"},{"type":"function","name":"autoRestrictThreshold","inputs":[],"outputs":[{"name":"","type":"uint16","internalType":"uint16"}],"stateMutability":"view"},{"type":"function","name":"canParticipateInGovernance","inputs":[{"name":"subject","type":"address","internalType":"address"}],"outputs":[{"name":"","type":"bool","internalType":"bool"}],"stateMutability":"view"},{"type":"function","name":"canTransfer","inputs":[{"name":"subject","type":"address","internalType":"address"}],"outputs":[{"name":"","type":"bool","internalType":"bool"}],"stateMutability":"view"},{"type":"function","name":"checkAndEnforce","inputs":[{"name":"subject","type":"address","internalType":"address"}],"outputs":[],"stateMutability":"nonpayable"},{"type":"function","name":"dao","inputs":[],"outputs":[{"name":"","type":"address","internalType":"address"}],"stateMutability":"view"},{"type":"function","name":"daoAdjustScore","inputs":[{"name":"subject","type":"address","internalType":"address"},{"name":"newDelta","type":"uint16","internalType":"uint16"},{"name":"isPositive","type":"bool","internalType":"bool"},{"name":"reason","type":"string","internalType":"string"}],"outputs":[],"stateMutability":"nonpayable"},{"type":"function","name":"daoClearFlag","inputs":[{"name":"proposalId","type":"uint256","internalType":"uint256"}],"outputs":[],"stateMutability":"nonpayable"},{"type":"function","name":"daoOverridden","inputs":[{"name":"","type":"address","internalType":"address"}],"outputs":[{"name":"","type":"bool","internalType":"bool"}],"stateMutability":"view"},{"type":"function","name":"daoOverrideRestriction","inputs":[{"name":"subject","type":"address","internalType":"address"},{"name":"reason","type":"string","internalType":"string"}],"outputs":[],"stateMutability":"nonpayable"},{"type":"function","name":"daoRehabilitateUser","inputs":[{"name":"subject","type":"address","internalType":"address"}],"outputs":[],"stateMutability":"nonpayable"},{"type":"function","name":"getRestrictionStatus","inputs":[{"name":"subject","type":"address","internalType":"address"}],"outputs":[{"name":"rtype","type":"uint8","internalType":"enum SeerGuardian.RestrictionType"},{"name":"expiry","type":"uint64","internalType":"uint64"},{"name":"overridden","type":"bool","internalType":"bool"}],"stateMutability":"view"},{"type":"function","name":"getViolationCounts","inputs":[{"name":"subject","type":"address","internalType":"address"}],"outputs":[{"name":"suspiciousTransfer","type":"uint8","internalType":"uint8"},{"name":"rapidScoreDrop","type":"uint8","internalType":"uint8"},{"name":"spamActivity","type":"uint8","internalType":"uint8"},{"name":"failedRecovery","type":"uint8","internalType":"uint8"},{"name":"governanceAbuse","type":"uint8","internalType":"uint8"}],"stateMutability":"view"},{"type":"function","name":"isProposalBlocked","inputs":[{"name":"proposalId","type":"uint256","internalType":"uint256"}],"outputs":[{"name":"blocked","type":"bool","internalType":"bool"},{"name":"reason","type":"string","internalType":"string"}],"stateMutability":"view"},{"type":"function","name":"lastViolationTime","inputs":[{"name":"","type":"address","internalType":"address"}],"outputs":[{"name":"","type":"uint64","internalType":"uint64"}],"stateMutability":"view"},{"type":"function","name":"ledger","inputs":[],"outputs":[{"name":"","type":"address","internalType":"contract IProofLedger_Guardian"}],"stateMutability":"view"},{"type":"function","name":"maxRestrictionDuration","inputs":[],"outputs":[{"name":"","type":"uint64","internalType":"uint64"}],"stateMutability":"view"},{"type":"function","name":"penaltyScale","inputs":[{"name":"","type":"uint256","internalType":"uint256"}],"outputs":[{"name":"","type":"uint16","internalType":"uint16"}],"stateMutability":"view"},{"type":"function","name":"proposalDelayUntil","inputs":[{"name":"","type":"uint256","internalType":"uint256"}],"outputs":[{"name":"","type":"uint64","internalType":"uint64"}],"stateMutability":"view"},{"type":"function","name":"proposalFlagDelay","inputs":[],"outputs":[{"name":"","type":"uint64","internalType":"uint64"}],"stateMutability":"view"},{"type":"function","name":"proposalFlagReason","inputs":[{"name":"","type":"uint256","internalType":"uint256"}],"outputs":[{"name":"","type":"string","internalType":"string"}],"stateMutability":"view"},{"type":"function","name":"proposalFlagged","inputs":[{"name":"","type":"uint256","internalType":"uint256"}],"outputs":[{"name":"","type":"bool","internalType":"bool"}],"stateMutability":"view"},{"type":"function","name":"recordViolation","inputs":[{"name":"subject","type":"address","internalType":"address"},{"name":"vtype","type":"uint8","internalType":"enum SeerGuardian.ViolationType"},{"name":"reason","type":"string","internalType":"string"}],"outputs":[],"stateMutability":"nonpayable"},{"type":"function","name":"restrictionDurations","inputs":[{"name":"","type":"uint256","internalType":"uint256"}],"outputs":[{"name":"","type":"uint64","internalType":"uint64"}],"stateMutability":"view"},{"type":"function","name":"restrictionExpiry","inputs":[{"name":"","type":"address","internalType":"address"}],"outputs":[{"name":"","type":"uint64","internalType":"uint64"}],"stateMutability":"view"},{"type":"function","name":"seer","inputs":[],"outputs":[{"name":"","type":"address","internalType":"contract ISeer_Guardian"}],"stateMutability":"view"},{"type":"function","name":"seerFlagProposal","inputs":[{"name":"proposalId","type":"uint256","internalType":"uint256"},{"name":"concern","type":"string","internalType":"string"}],"outputs":[],"stateMutability":"nonpayable"},{"type":"function","name":"setDAO","inputs":[{"name":"_newDAO","type":"address","internalType":"address"}],"outputs":[],"stateMutability":"nonpayable"},{"type":"function","name":"setModules","inputs":[{"name":"_seer","type":"address","internalType":"address"},{"name":"_vaultHub","type":"address","internalType":"address"},{"name":"_ledger","type":"address","internalType":"address"}],"outputs":[],"stateMutability":"nonpayable"},{"type":"function","name":"setThresholds","inputs":[{"name":"_autoRestrict","type":"uint16","internalType":"uint16"},{"name":"_autoLift","type":"uint16","internalType":"uint16"},{"name":"_violationCooldown","type":"uint64","internalType":"uint64"},{"name":"_maxDuration","type":"uint64","internalType":"uint64"},{"name":"_flagDelay","type":"uint64","internalType":"uint64"}],"outputs":[],"stateMutability":"nonpayable"},{"type":"function","name":"vaultHub","inputs":[],"outputs":[{"name":"","type":"address","internalType":"contract IVaultHub_Guardian"}],"stateMutability":"view"},{"type":"function","name":"violationCooldown","inputs":[],"outputs":[{"name":"","type":"uint64","internalType":"uint64"}],"stateMutability":"view"},{"type":"function","name":"violationCount","inputs":[{"name":"","type":"address","internalType":"address"},{"name":"","type":"uint8","internalType":"enum SeerGuardian.ViolationType"}],"outputs":[{"name":"","type":"uint8","internalType":"uint8"}],"stateMutability":"view"},{"type":"event","name":"AutoRestrictionApplied","inputs":[{"name":"subject","type":"address","indexed":true,"internalType":"address"},{"name":"rtype","type":"uint8","indexed":false,"internalType":"enum SeerGuardian.RestrictionType"},{"name":"reason","type":"string","indexed":false,"internalType":"string"}],"anonymous":false},{"type":"event","name":"AutoRestrictionLifted","inputs":[{"name":"subject","type":"address","indexed":true,"internalType":"address"},{"name":"rtype","type":"uint8","indexed":false,"internalType":"enum SeerGuardian.RestrictionType"},{"name":"reason","type":"string","indexed":false,"internalType":"string"}],"anonymous":false},{"type":"event","name":"DAOActionFlagged","inputs":[{"name":"proposalId","type":"uint256","indexed":true,"internalType":"uint256"},{"name":"concern","type":"string","indexed":false,"internalType":"string"}],"anonymous":false},{"type":"event","name":"DAOOverride","inputs":[{"name":"subject","type":"address","indexed":true,"internalType":"address"},{"name":"actionId","type":"bytes32","indexed":true,"internalType":"bytes32"},{"name":"reason","type":"string","indexed":false,"internalType":"string"}],"anonymous":false},{"type":"event","name":"DAOSet","inputs":[{"name":"oldDAO","type":"address","indexed":true,"internalType":"address"},{"name":"newDAO","type":"address","indexed":true,"internalType":"address"}],"anonymous":false},{"type":"event","name":"ModulesSet","inputs":[{"name":"seer","type":"address","indexed":false,"internalType":"address"},{"name":"dao","type":"address","indexed":false,"internalType":"address"},{"name":"vaultHub","type":"address","indexed":false,"internalType":"address"},{"name":"ledger","type":"address","indexed":false,"internalType":"address"}],"anonymous":false},{"type":"event","name":"PenaltyApplied","inputs":[{"name":"subject","type":"address","indexed":true,"internalType":"address"},{"name":"scorePenalty","type":"uint16","indexed":false,"internalType":"uint16"},{"name":"reason","type":"string","indexed":false,"internalType":"string"}],"anonymous":false},{"type":"event","name":"SeerActionOverridden","inputs":[{"name":"actionId","type":"bytes32","indexed":true,"internalType":"bytes32"},{"name":"resolution","type":"string","indexed":false,"internalType":"string"}],"anonymous":false},{"type":"event","name":"SeerFlag","inputs":[{"name":"proposalId","type":"uint256","indexed":true,"internalType":"uint256"},{"name":"reason","type":"string","indexed":false,"internalType":"string"},{"name":"delayUntil","type":"uint64","indexed":false,"internalType":"uint64"}],"anonymous":false},{"type":"event","name":"SeerFlagCleared","inputs":[{"name":"proposalId","type":"uint256","indexed":true,"internalType":"uint256"},{"name":"clearedBy","type":"address","indexed":false,"internalType":"address"}],"anonymous":false},{"type":"event","name":"ViolationRecorded","inputs":[{"name":"subject","type":"address","indexed":true,"internalType":"address"},{"name":"vtype","type":"uint8","indexed":false,"internalType":"enum SeerGuardian.ViolationType"},{"name":"count","type":"uint8","indexed":false,"internalType":"uint8"}],"anonymous":false},{"type":"error","name":"SG_Cooldown","inputs":[]},{"type":"error","name":"SG_InvalidAction","inputs":[]},{"type":"error","name":"SG_NoViolation","inputs":[]},{"type":"error","name":"SG_NotAuthorized","inputs":[]},{"type":"error","name":"SG_Zero","inputs":[]}],"bytecode":{"object":"0x6080604052346102a157604051601f6128f238819003918201601f19168301916001600160401b038311848410176102a5578084926080946040528339810103126102a15761004d816102d8565b9061005a602082016102d8565b90610073606061006c604084016102d8565b92016102d8565b600d80546001600160e01b0319167602a3000000000000278d000000000000000e1011940bb8179055926100a56102b9565b603281526064602082015260c86040820152610190606082015261032060808201525f905f5b6005811061027b575050600e556100e06102b9565b6201518081526203f480602082015262093a80604082015262127500606082015262278d0060808201525f5b6001811061023d57505f905f5b600181106102185750506010556001600160a01b031680158015610207575b6101f9575f80546001600160a01b03199081168317909155600180546001600160a01b039586169216821790557f2ad69807131f242e4c6b9e21338b8d7d7d5f32ab1dfaa1eddfa881c305c8f5e794608094919390911690816101e2575b6001600160a01b031691826101cb575b604051938452602084015260408301526060820152a16040516125e7908161030b8239f35b600380546001600160a01b031916841790556101a6565b600280546001600160a01b03191683179055610196565b62ab476f60e11b5f5260045ffd5b506001600160a01b03831615610138565b9091602061023460019262ffffff865116908560031b906102ec565b93019101610119565b5f5f5b600481106102565750600f82015560010161010c565b9290602061027260019262ffffff855116908760031b906102ec565b92019301610240565b9091602060019161ffff8551169061ffff8560041b92831b921b191617930191016100cb565b5f80fd5b634e487b7160e01b5f52604160045260245ffd5b6040519060a082016001600160401b038111838210176102a557604052565b51906001600160a01b03821682036102a157565b6001600160401b0392831660039290921b91821b9290911b1916179056fe60806040526004361015610011575f80fd5b5f5f3560e01c80630e06de4614611a7c578063170b3b4614611a585780631b9cb05214611a37578063225692e914611a165780632d55ea39146119ee578063327bae38146117265780633711f69b146116e65780633dbacb8f146116c35780634162169f1461169c5780634aff987b1461164d57806351818aa61461161057806356397c35146115e857806367cc71ea146115a8578063686c298d1461156a57806368e8f7a3146115285780636dd6e80b1461150057806378fc3cb3146114d357806385d15653146114a7578063974694371461147f5780639a5eb2041461144d578063a8336a0614611352578063ab2aef7914611311578063b1a7f21d146110e7578063b2d72a21146110aa578063bd2279a61461107d578063c5a98eb814610f31578063d144c51e14610d96578063df97a51814610931578063e0df05b9146108f1578063e148e5131461055e578063e261c625146104eb578063e41e49f7146103eb578063e6433050146103bc578063e73a914c1461032a578063f9534416146102fb5763fa4cb240146101a6575f80fd5b346102f85760203660031901126102f8576101bf611b08565b81546001600160a01b031633036102e95760018060a01b0381169081835260076020526040832060015f5260205260405f2060ff19815416905581835260076020526040832060025f5260205260405f2060ff19815416905581835260076020526040832060035f5260205260405f2060ff19815416905581835260076020526040832060045f5260205260405f2060ff19815416905581835260076020526040832060055f5260205260405f2060ff198154169055818352600460205260ff60408420541660058110156102d5576102bd575b508152600660205260408120805460ff191660011790556102ba6102b56123c7565b6124c7565b80f35b6102cf906102c96123c7565b9061240f565b5f610293565b634e487b7160e01b84526021600452602484fd5b63181e449360e01b8252600482fd5b80fd5b50346102f85760203660031901126102f85760ff60406020926004358152600c84522054166040519015158152f35b50346102f85760203660031901126102f857610344611b08565b8154906001600160a01b03821690338290036103ad576001600160a01b031691821561039f576001600160a01b031916821783557f43cefe694890edd168d1075c3464baea1d7edcf0bc1a1648423ea65b5a2ac0918380a380f35b62ab476f60e11b8452600484fd5b63181e449360e01b8452600484fd5b50346102f85760203660031901126102f85760ff60406020926004358152600984522054166040519015158152f35b50346102f85760203660031901126102f8578054600435906001600160a01b031633036102e957808252600960205260ff604083205416156104b457808252600960209081526040808420805460ff19169055828452600a825280842080546001600160401b0319169055513381527f0b29d305a43bca24ee238c8d7f9ed9603958198239c7c583a68e58edc1d41b069190a26102ba60405161048f604082611bc3565b601381527264616f5f636c6561725f736565725f666c616760681b60208201526124c7565b60405162461bcd60e51b815260206004820152600f60248201526e14d1ce881b9bdd08199b1859d9d959608a1b6044820152606490fd5b50346102f85760203660031901126102f8576060906001600160a01b03610510611b08565b16808252600460205260ff6040818185205416938381526005602052600180831b0382822054169381526006602052205416906105506040518094611caa565b602083015215156040820152f35b50346102f85760403660031901126102f85760043561057b611b1e565b600154604051630d47875d60e41b81526001600160a01b039283166004820181905292909116602082602481845afa9182156108c15785926108cc575b50602060049160405192838092634ccf04cf60e01b82525afa9081156108c1576103e89161ffff918791610892575b50160161ffff811161087e5761ffff809116911610610752575b825260076020526040822060055f5260205260ff60405f205416610623575080f35b808252600960205260ff6040832054161561063c575080f35b808252600960205260408220805460ff19166001179055600d546106709060a01c6001600160401b039081169042166121c4565b818352600a602052604083209060018060401b031660018060401b0319825416179055808252600b602052604082206106b26106ac8254611b8b565b82612207565b605181558252676f6c6174696f6e7360c01b6001602084207f4175746f3a2070726f706f7365722068617320676f7665726e616e636520766981550155808252600a6020525f5160206125925f395f51905f52608060018060401b036040852054166040519060408252601d60408301527f4175746f3a2070726f706f736572206861732076696f6c6174696f6e7300000060608301526020820152a280f35b818352600960205260ff60408420541661060157818352600960205260408320805460ff19166001179055600d5461079f9060a11c60016001603f1b0316426001600160401b03166121c4565b828452600a602052604084209060018060401b031660018060401b0319825416179055818352600b602052604083206107db6106ac8254611b8b565b605181558352671a1c995cda1bdb1960c21b6001602085207f4175746f3a2070726f706f736572206e65617220676f7665726e616e6365207481550155818352600a602052815f5160206125925f395f51905f52608060018060401b036040872054166040519060408252601d60408301527f4175746f3a2070726f706f736572206e656172207468726573686f6c6400000060608301526020820152a2610601565b634e487b7160e01b85526011600452602485fd5b6108b4915060203d6020116108ba575b6108ac8183611bc3565b810190611d12565b5f6105e7565b503d6108a2565b6040513d87823e3d90fd5b60049192506108e9602091823d84116108ba576108ac8183611bc3565b9291506105b8565b50346102f85760203660031901126102f85761090e600435612366565b9061092d60405192839215158352604060208401526040830190611c86565b0390f35b50346102f85760603660031901126102f85761094b611b08565b6024356006811015610d92576044356001600160401b038111610d8e57610976903690600401611b34565b9060018060a01b0385541633141580610d79575b610d6a576001600160a01b038416808652600860209081526040872054600d549296926001600160401b03926109c79291901c83169083166121c4565b164210610d5b578315610d4c57848652600760205260ff6109eb8560408920611b61565b54169160ff8310610cfc575b85875260086020908152604080892080546001600160401b031916426001600160401b0316908117909155815197885260ff95909516918701829052909587917f5ee0d4e92b2c443700a4dbef067f30f0bb49eaf1163f77d9decca0462f01d17191a26005851115610cd6576004915b61ffff610a7384611cf7565b90549060031b1c1660018060a01b03600154169189833b156102f85780858b9585838c96610ab76040519889968795869463031879a760e21b8652600486016122f6565b03925af19182610cb7575b5050610c6f575b50506003851015610b0b575b866102ba604051610ae7604082611bc3565b60128152711d9a5bdb185d1a5bdb97dc9958dbdc99195960721b60208201526124c7565b610b958692610ba6610b585f5160206125725f395f51905f52946005610be99a10155f14610c6457610b3e600494611cb7565b905460039190911b1c6001600160401b0316983691612321565b858b526004602052610b6d8360408d206123f7565b858b52600560205260408b20546001600160401b031615610c1d575b60405193848094611caa565b604060208401526040830190611c86565b0390a2610be4604051610bba604082611bc3565b6018815277185d5d1bd7dc995cdd1c9a58dd1a5bdb97d85c1c1b1a595960421b60208201526124c7565b6121c4565b90825260056020526040822080546001600160401b0319166001600160401b039092169190911790555f8080808080610ad5565b600d54610c369060601c6001600160401b0316886121c4565b868c52600560205260408c2080546001600160401b0319166001600160401b03909216919091179055610b89565b610b3e600294611cb7565b7f6b51a52974fa6f82b717e2f45f622b1d1c444b5f1c59c3af20519aa6621d53d0906040519081526040602082015280610cad604082018987612230565b0390a2855f610ac9565b8192945090610cc591611bc3565b610cd2578791895f610ac2565b8880fd5b5f19850160ff8111610ce85791610a67565b634e487b7160e01b88526011600452602488fd5b91600181019060ff8211610ce85760ff908789526007602052610d228760408b20611b61565b828416831982541617905514610d3857916109f7565b634e487b7160e01b87526011600452602487fd5b63026d433960e51b8652600486fd5b6321bbdf6760e21b8652600486fd5b63181e449360e01b8552600485fd5b506001546001600160a01b031633141561098a565b8380fd5b8280fd5b50346102f85760403660031901126102f857610db0611b08565b6024356001600160401b038111610d9257610dcf903690600401611b34565b8354919290916001600160a01b031633036103ad576001600160a01b0381168085526004602052604085205460ff166005811015610f1d5715610f0e5791610e6f9391835f5160206125325f395f51905f52948752600460205260ff604088205416604051610e4960208201928484526040830190611caa565b42606082015260608152610e5e608082611bc3565b5190209586926102c9368688612321565b808752600660205260408720600160ff198254161790557f51be3141e989fe541e81e47bf68ca7435414ee61334d28523c12cd1d47f5514c6040516020815280610ebd602082018789612230565b0390a3610ed7604051928392602084526020840191612230565b0390a26102ba604051610eeb604082611bc3565b60118152703230b7afb7bb32b93934b232afb9b2b2b960791b60208201526124c7565b6312f280c560e31b8552600485fd5b634e487b7160e01b86526021600452602486fd5b50346102f85760a03660031901126102f85760043561ffff811680910361107957610f5a611ce6565b906044356001600160401b0381168103610d8e57606435916001600160401b038316830361107557608435936001600160401b03851685036110715785546001600160a01b031633036110625761ffff811682101561102457600d805460609590951b600160601b600160a01b031660209490941b600160201b600160601b0316600160601b600160e01b03199093166001600160e01b03199095169490941760109190911b63ffff00001617171760a09290921b600160a01b600160e01b031691909117905580f35b60405162461bcd60e51b815260206004820152601660248201527553473a20696e76616c6964207468726573686f6c647360501b6044820152606490fd5b63181e449360e01b8652600486fd5b8580fd5b8480fd5b5080fd5b50346102f857806003193601126102f857600d5460405160609190911c6001600160401b03168152602090f35b50346102f85760203660031901126102f8576004359060058210156102f857602061ffff6110d784611cf7565b90549060031b1c16604051908152f35b50346112fe5760803660031901126112fe57611101611b08565b611109611ce6565b6044359182151583036112fe576064356001600160401b0381116112fe57611135903690600401611b34565b5f5490939192906001600160a01b03163303611302578591604051602081019060808252600c60a08201526b1cd8dbdc9957d8591a9d5cdd60a21b60c082015260018060a01b038416604082015261ffff8316606082015242608082015260c081526111a260e082611bc3565b519020951561127a576001546001600160a01b031691823b15610d8e57859284928387936111e660405197889687958694630eccbd3560e11b8652600486016122f6565b03925af1611265575b50505f5160206125325f395f51905f52915b838552600c60205260408520600160ff1982541617905561122f604051928392602084526020840191612230565b0390a26102ba604051611243604082611bc3565b601081526f64616f5f61646a7573745f73636f726560801b60208201526124c7565b8161126f91611bc3565b610d8e57835f6111ef565b6001549394936001600160a01b0316925090823b156112fe5783925f928387936112ba6040519788968795869463031879a760e21b8652600486016122f6565b03925af16112d9575b50905f5160206125325f395f51905f5291611201565b5f5160206125325f395f51905f52929194505f6112f591611bc3565b5f9390916112c3565b5f80fd5b63181e449360e01b5f5260045ffd5b346112fe5760203660031901126112fe5760043560058110156112fe57611339602091611cb7565b905460405160039290921b1c6001600160401b03168152f35b346112fe5760603660031901126112fe5761136b611b08565b611373611b1e565b6044356001600160a01b038116908190036112fe575f546001600160a01b03169233849003611302576001600160a01b031690811561143f57600180546001600160a01b031916831790557f2ad69807131f242e4c6b9e21338b8d7d7d5f32ab1dfaa1eddfa881c305c8f5e7936080936001600160a01b03169081611428575b82611411575b604051938452602084015260408301526060820152a1005b600380546001600160a01b031916841790556113f9565b600280546001600160a01b031916831790556113f3565b62ab476f60e11b5f5260045ffd5b346112fe5760203660031901126112fe576004355f52600a602052602060018060401b0360405f205416604051908152f35b346112fe575f3660031901126112fe57600d54604051602091821c6001600160401b03168152f35b346112fe575f3660031901126112fe57600d5460405160a09190911c6001600160401b03168152602090f35b346112fe5760203660031901126112fe5760206114f66114f1611b08565b6122bd565b6040519015158152f35b346112fe575f3660031901126112fe576002546040516001600160a01b039091168152602090f35b346112fe5760203660031901126112fe576001600160a01b03611549611b08565b165f526004602052602060ff60405f2054166115686040518092611caa565bf35b346112fe5760203660031901126112fe576004355f52600b60205261092d61159460405f20611be6565b604051918291602083526020830190611c86565b346112fe5760203660031901126112fe576001600160a01b036115c9611b08565b165f526005602052602060018060401b0360405f205416604051908152f35b346112fe575f3660031901126112fe576003546040516001600160a01b039091168152602090f35b346112fe5760203660031901126112fe576001600160a01b03611631611b08565b165f526006602052602060ff60405f2054166040519015158152f35b346112fe5760403660031901126112fe57611666611b08565b60243560068110156112fe5761169260ff9160209360018060a01b03165f526007845260405f20611b61565b5416604051908152f35b346112fe575f3660031901126112fe575f546040516001600160a01b039091168152602090f35b346112fe5760203660031901126112fe5760206114f66116e1611b08565b612250565b346112fe5760203660031901126112fe576001600160a01b03611707611b08565b165f526008602052602060018060401b0360405f205416604051908152f35b346112fe5760403660031901126112fe576004356024356001600160401b0381116112fe57611759903690600401611b34565b919060018060a01b035f5416331415806119d9575b61130257815f52600960205260ff60405f20541661199e575f828152600960205260409020805460ff19166001179055600d546117bb9060a01c6001600160401b039081169042166121c4565b5f838152600a6020908152604080832080546001600160401b0319166001600160401b03958616179055600b90915290209390811161198a576117fe8454611b8b565b601f811161194f575b505f93601f82116001146118e057815f5160206125525f395f51905f5294955f916118d5575b508260011b905f198460031b1c19161790555b835f52600a602052835f5160206125925f395f51905f5260018060401b0360405f20541660405180916040825261187b604083018789612230565b9060208301520390a261189b604051928392602084526020840191612230565b0390a26118d36040516118af604082611bc3565b60128152711cd9595c97d99b1859d7dc1c9bdc1bdcd85b60721b60208201526124c7565b005b90508301358661182d565b601f19821694815f5260205f20905f5b8781106119375750835f5160206125525f395f51905f5296971061191e575b5050600182811b019055611840565b8401355f19600385901b60f8161c19169055858061190f565b909160206001819285890135815501930191016118f0565b61197a90855f5260205f20601f840160051c81019160208510611980575b601f0160051c01906121f1565b84611807565b909150819061196d565b634e487b7160e01b5f52604160045260245ffd5b60405162461bcd60e51b815260206004820152601360248201527214d1ce88185b1c9958591e48199b1859d9d959606a1b6044820152606490fd5b506001546001600160a01b031633141561176e565b346112fe575f3660031901126112fe576001546040516001600160a01b039091168152602090f35b346112fe5760203660031901126112fe576118d3611a32611b08565b611d2c565b346112fe575f3660031901126112fe57602061ffff600d5416604051908152f35b346112fe575f3660031901126112fe57602061ffff600d5460101c16604051908152f35b346112fe5760203660031901126112fe5760a06001600160a01b03611a9f611b08565b165f90815260076020908152604080832060018452825280832054600284528184205460038552828520546004865283862054600587529584902054845160ff948516815292841695830195909552821692810192909252928316606082015291166080820152f35b600435906001600160a01b03821682036112fe57565b602435906001600160a01b03821682036112fe57565b9181601f840112156112fe578235916001600160401b0383116112fe57602083818601950101116112fe57565b906006811015611b77575f5260205260405f2090565b634e487b7160e01b5f52602160045260245ffd5b90600182811c92168015611bb9575b6020831014611ba557565b634e487b7160e01b5f52602260045260245ffd5b91607f1691611b9a565b601f909101601f19168101906001600160401b0382119082101761198a57604052565b9060405191825f825492611bf984611b8b565b8084529360018116908115611c645750600114611c20575b50611c1e92500383611bc3565b565b90505f9291925260205f20905f915b818310611c48575050906020611c1e928201015f611c11565b6020919350806001915483858901015201910190918492611c2f565b905060209250611c1e94915060ff191682840152151560051b8201015f611c11565b805180835260209291819084018484015e5f828201840152601f01601f1916010190565b906005821015611b775752565b906005821015611cd25760188260021c600f019260031b1690565b634e487b7160e01b5f52603260045260245ffd5b6024359061ffff821682036112fe57565b906005821015611cd257601e8260041c600e019260011b1690565b908160209103126112fe575161ffff811681036112fe5790565b6001600160a01b0381165f8181526006602052604090205460ff166121c057600154604051630d47875d60e41b8152600481018390529190602090839060249082906001600160a01b03165afa918215611f2a575f9261219f575b50805f52600460205260ff60405f20541661ffff80600d541693169283108061218e575b15611f93576040805190611dbf8183611bc3565b600e82526d6175746f5f6c6f775f73636f726560901b6020830152835f526004602052611def6002825f206123f7565b5f8481526005602052819020546001600160401b031615611f48575b80515f5160206125725f395f51905f528180611e38611e479660028a965286602084015286830190611c86565b0390a2610bba81519182611bc3565b61ffff600d5460101c168310159081611f35575b50611e6557505050565b5f908152600560205260409020546001600160401b0316421080159190611ec8575b50611e8f5750565b611c1e9060405190611ea2604083611bc3565b6014825273185d5d1bd7dcd8dbdc9957dc9958dbdd995c995960621b602083015261240f565b600154604051632519fdb960e11b8152919250602090829060049082906001600160a01b03165afa8015611f2a5761ffff915f91611f0b575b501611155f611e87565b611f24915060203d6020116108ba576108ac8183611bc3565b5f611f01565b6040513d5f823e3d90fd5b90506005811015611b775715155f611e5b565b600d54611f659060601c6001600160401b039081169042166121c4565b5f858152600560205282902080546001600160401b0319166001600160401b03909216919091179055611e0b565b6107d083108061217b575b15612080576040805190611fb28183611bc3565b60138252726175746f5f766572795f6c6f775f73636f726560681b6020830152835f526004602052611fe76001825f206123f7565b5f8481526005602052819020546001600160401b031615612035575b80515f5160206125725f395f51905f528180611e386120309660018a965286602084015286830190611c86565b611e47565b600d546120529060601c6001600160401b039081169042166121c4565b5f858152600560205282902080546001600160401b0319166001600160401b03909216919091179055612003565b6103e8831080612168575b15611e4757604080519061209f8183611bc3565b60138252726175746f5f637269746963616c5f73636f726560681b6020830152835f5260046020526120d46004825f206123f7565b5f8481526005602052819020546001600160401b03161561211d575b80515f5160206125725f395f51905f528180611e386120309660048a965286602084015286830190611c86565b600d5461213a9060601c6001600160401b039081169042166121c4565b5f858152600560205282902080546001600160401b0319166001600160401b039092169190911790556120f0565b506005811015611b77576004811061208b565b506005811015611b775760018110611f9e565b506005811015611b77578015611dab565b6121b991925060203d6020116108ba576108ac8183611bc3565b905f611d87565b5050565b6001600160401b0391821690821601919082116121dd57565b634e487b7160e01b5f52601160045260245ffd5b8181106121fc575050565b5f81556001016121f1565b90601f8111612214575050565b611c1e915f526002601f60205f20920160051c820191016121f1565b908060209392818452848401375f828201840152601f01601f1916010190565b6001600160a01b03165f8181526004602052604090205460ff166005811015611b7757600281149081156122b2575b5061228b575b50600190565b5f908152600560205260409020546001600160401b031642106122ae575f612285565b5f90565b60049150145f61227f565b6001600160a01b03165f8181526004602052604090205460ff166005811015611b7757600181149081156122b2575061228b5750600190565b61ffff61231e959360609360018060a01b031683521660208201528160408201520191612230565b90565b9192916001600160401b03821161198a576040519161234a601f8201601f191660200184611bc3565b8294818452818301116112fe578281602093845f960137010152565b805f52600960205260ff60405f205416156123b0575f818152600a60205260409020546001600160401b03164210156123b0575f52600b60205260405f209061231e600192611be6565b505f906040516123c1602082611bc3565b5f815290565b604051906123d6604083611bc3565b60128252713230b7afb932b430b134b634ba30ba34b7b760711b6020830152565b906005811015611b775760ff80198354169116179055565b6001600160a01b03165f818152600460209081526040808320805460ff199081169091556005835281842080546001600160401b03191690556006835281842080549091169055805192835290820181905291927fe5233e95477367f5721844155d5a6917ad692a08cd12e797726af4756ede68ab92829161249391830190611c86565b0390a2611c1e6040516124a7604082611bc3565b60128152711c995cdd1c9a58dd1a5bdb97db1a599d195960721b60208201525b6003546001600160a01b0316806124dc575050565b803b156112fe57604051633ddd61ab60e21b815230600482015260606024820152915f918391829084908290612516906064830190611c86565b33604483015203925af16125275750565b5f611c1e91611bc356fe45549530834edb7de3a7c30718c782774257affb3459dca6afe4f0e53a07d120c6c710fd38ec3aa9fbee8735c268927cfa09dab9ae5ca0a58d18591af54ac00645dd688d541a7b43d7fb3c5cec5a01c895a21964f57fcd403cb1734237f75185e11d3f48831176755a855608e6032a2b93cb292697bb76197673d08789eb3b58a2646970667358221220da87353855a56dc590cd813987bfc4a5f8a2a9505a5ae6f7b8eaf9d94cfafd8a64736f6c634300081e0033","linkReferences":{}},"methodIdentifiers":{"actionOverridden(bytes32)":"f9534416","activeRestriction(address)":"68e8f7a3","autoCheckProposer(uint256,address)":"e148e513","autoLiftThreshold()":"170b3b46","autoRestrictThreshold()":"1b9cb052","canParticipateInGovernance(address)":"3dbacb8f","canTransfer(address)":"78fc3cb3","checkAndEnforce(address)":"225692e9","dao()":"4162169f","daoAdjustScore(address,uint16,bool,string)":"b1a7f21d","daoClearFlag(uint256)":"e41e49f7","daoOverridden(address)":"51818aa6","daoOverrideRestriction(address,string)":"d144c51e","daoRehabilitateUser(address)":"fa4cb240","getRestrictionStatus(address)":"e261c625","getViolationCounts(address)":"0e06de46","isProposalBlocked(uint256)":"e0df05b9","lastViolationTime(address)":"3711f69b","ledger()":"56397c35","maxRestrictionDuration()":"bd2279a6","penaltyScale(uint256)":"b2d72a21","proposalDelayUntil(uint256)":"9a5eb204","proposalFlagDelay()":"85d15653","proposalFlagReason(uint256)":"686c298d","proposalFlagged(uint256)":"e6433050","recordViolation(address,uint8,string)":"df97a518","restrictionDurations(uint256)":"ab2aef79","restrictionExpiry(address)":"67cc71ea","seer()":"2d55ea39","seerFlagProposal(uint256,string)":"327bae38","setDAO(address)":"e73a914c","setModules(address,address,address)":"a8336a06","setThresholds(uint16,uint16,uint64,uint64,uint64)":"c5a98eb8","vaultHub()":"6dd6e80b","violationCooldown()":"97469437","violationCount(address,uint8)":"4aff987b"},"id":9}