{"abi":[{"type":"constructor","inputs":[{"name":"_vfideToken","type":"address","internalType":"address"},{"name":"_admin","type":"address","internalType":"address"}],"stateMutability":"nonpayable"},{"type":"function","name":"ADMIN_ROLE","inputs":[],"outputs":[{"name":"","type":"bytes32","internalType":"bytes32"}],"stateMutability":"view"},{"type":"function","name":"DEFAULT_ADMIN_ROLE","inputs":[],"outputs":[{"name":"","type":"bytes32","internalType":"bytes32"}],"stateMutability":"view"},{"type":"function","name":"EDUCATION_COMPLETE_PROFILE","inputs":[],"outputs":[{"name":"","type":"uint256","internalType":"uint256"}],"stateMutability":"view"},{"type":"function","name":"EDUCATION_PAYMENT_TUTORIAL","inputs":[],"outputs":[{"name":"","type":"uint256","internalType":"uint256"}],"stateMutability":"view"},{"type":"function","name":"EDUCATION_PROOF_SCORE_TUTORIAL","inputs":[],"outputs":[{"name":"","type":"uint256","internalType":"uint256"}],"stateMutability":"view"},{"type":"function","name":"FIRST_ENDORSEMENT_GIVEN","inputs":[],"outputs":[{"name":"","type":"uint256","internalType":"uint256"}],"stateMutability":"view"},{"type":"function","name":"FIRST_ENDORSEMENT_RECEIVED","inputs":[],"outputs":[{"name":"","type":"uint256","internalType":"uint256"}],"stateMutability":"view"},{"type":"function","name":"FIRST_MERCHANT_PAYMENT","inputs":[],"outputs":[{"name":"","type":"uint256","internalType":"uint256"}],"stateMutability":"view"},{"type":"function","name":"FIRST_TRANSACTION_BONUS","inputs":[],"outputs":[{"name":"","type":"uint256","internalType":"uint256"}],"stateMutability":"view"},{"type":"function","name":"MAX_EDUCATION_PER_USER","inputs":[],"outputs":[{"name":"","type":"uint256","internalType":"uint256"}],"stateMutability":"view"},{"type":"function","name":"MAX_MERCHANT_REWARDS","inputs":[],"outputs":[{"name":"","type":"uint256","internalType":"uint256"}],"stateMutability":"view"},{"type":"function","name":"MAX_PIONEERS","inputs":[],"outputs":[{"name":"","type":"uint256","internalType":"uint256"}],"stateMutability":"view"},{"type":"function","name":"MAX_REFERRALS_PER_USER","inputs":[],"outputs":[{"name":"","type":"uint256","internalType":"uint256"}],"stateMutability":"view"},{"type":"function","name":"MAX_REFERRAL_PER_USER","inputs":[],"outputs":[{"name":"","type":"uint256","internalType":"uint256"}],"stateMutability":"view"},{"type":"function","name":"MAX_USER_MILESTONE_PER_USER","inputs":[],"outputs":[{"name":"","type":"uint256","internalType":"uint256"}],"stateMutability":"view"},{"type":"function","name":"MERCHANT_10K_VOLUME","inputs":[],"outputs":[{"name":"","type":"uint256","internalType":"uint256"}],"stateMutability":"view"},{"type":"function","name":"MERCHANT_1K_VOLUME","inputs":[],"outputs":[{"name":"","type":"uint256","internalType":"uint256"}],"stateMutability":"view"},{"type":"function","name":"MERCHANT_5K_VOLUME","inputs":[],"outputs":[{"name":"","type":"uint256","internalType":"uint256"}],"stateMutability":"view"},{"type":"function","name":"PIONEER_BADGE_BONUS","inputs":[],"outputs":[{"name":"","type":"uint256","internalType":"uint256"}],"stateMutability":"view"},{"type":"function","name":"REFERRAL_SIGNUP_BONUS","inputs":[],"outputs":[{"name":"","type":"uint256","internalType":"uint256"}],"stateMutability":"view"},{"type":"function","name":"REFERRAL_TRANSACTION_BONUS","inputs":[],"outputs":[{"name":"","type":"uint256","internalType":"uint256"}],"stateMutability":"view"},{"type":"function","name":"TEN_MERCHANTS_VISITED","inputs":[],"outputs":[{"name":"","type":"uint256","internalType":"uint256"}],"stateMutability":"view"},{"type":"function","name":"THREE_MERCHANTS_VISITED","inputs":[],"outputs":[{"name":"","type":"uint256","internalType":"uint256"}],"stateMutability":"view"},{"type":"function","name":"TOTAL_PROMOTIONAL_ALLOCATION","inputs":[],"outputs":[{"name":"","type":"uint256","internalType":"uint256"}],"stateMutability":"view"},{"type":"function","name":"VAULT_CREATED","inputs":[],"outputs":[{"name":"","type":"uint256","internalType":"uint256"}],"stateMutability":"view"},{"type":"function","name":"awardPioneerBadge","inputs":[{"name":"user","type":"address","internalType":"address"}],"outputs":[],"stateMutability":"nonpayable"},{"type":"function","name":"claimEducationReward","inputs":[{"name":"milestone","type":"string","internalType":"string"}],"outputs":[],"stateMutability":"nonpayable"},{"type":"function","name":"claimMerchantMilestone","inputs":[{"name":"volumeProcessed","type":"uint256","internalType":"uint256"}],"outputs":[],"stateMutability":"nonpayable"},{"type":"function","name":"claimReferralTransactionBonus","inputs":[{"name":"referee","type":"address","internalType":"address"}],"outputs":[],"stateMutability":"nonpayable"},{"type":"function","name":"claimUserMilestone","inputs":[{"name":"milestone","type":"string","internalType":"string"}],"outputs":[],"stateMutability":"nonpayable"},{"type":"function","name":"claimedTenMerchants","inputs":[{"name":"","type":"address","internalType":"address"}],"outputs":[{"name":"","type":"bool","internalType":"bool"}],"stateMutability":"view"},{"type":"function","name":"claimedThreeMerchants","inputs":[{"name":"","type":"address","internalType":"address"}],"outputs":[{"name":"","type":"bool","internalType":"bool"}],"stateMutability":"view"},{"type":"function","name":"completedPaymentTutorial","inputs":[{"name":"","type":"address","internalType":"address"}],"outputs":[{"name":"","type":"bool","internalType":"bool"}],"stateMutability":"view"},{"type":"function","name":"completedProfile","inputs":[{"name":"","type":"address","internalType":"address"}],"outputs":[{"name":"","type":"bool","internalType":"bool"}],"stateMutability":"view"},{"type":"function","name":"completedProofScoreTutorial","inputs":[{"name":"","type":"address","internalType":"address"}],"outputs":[{"name":"","type":"bool","internalType":"bool"}],"stateMutability":"view"},{"type":"function","name":"createdVault","inputs":[{"name":"","type":"address","internalType":"address"}],"outputs":[{"name":"","type":"bool","internalType":"bool"}],"stateMutability":"view"},{"type":"function","name":"educationBudgetRemaining","inputs":[],"outputs":[{"name":"","type":"uint256","internalType":"uint256"}],"stateMutability":"view"},{"type":"function","name":"educationRewardsClaimed","inputs":[{"name":"","type":"address","internalType":"address"}],"outputs":[{"name":"","type":"uint256","internalType":"uint256"}],"stateMutability":"view"},{"type":"function","name":"gaveFirstEndorsement","inputs":[{"name":"","type":"address","internalType":"address"}],"outputs":[{"name":"","type":"bool","internalType":"bool"}],"stateMutability":"view"},{"type":"function","name":"getRemainingBudgets","inputs":[],"outputs":[{"name":"education","type":"uint256","internalType":"uint256"},{"name":"referral","type":"uint256","internalType":"uint256"},{"name":"userMilestone","type":"uint256","internalType":"uint256"},{"name":"merchant","type":"uint256","internalType":"uint256"},{"name":"pioneer","type":"uint256","internalType":"uint256"},{"name":"total","type":"uint256","internalType":"uint256"}],"stateMutability":"view"},{"type":"function","name":"getRoleAdmin","inputs":[{"name":"role","type":"bytes32","internalType":"bytes32"}],"outputs":[{"name":"","type":"bytes32","internalType":"bytes32"}],"stateMutability":"view"},{"type":"function","name":"getUserStats","inputs":[{"name":"user","type":"address","internalType":"address"}],"outputs":[{"name":"_isPioneer","type":"bool","internalType":"bool"},{"name":"_pioneerNumber","type":"uint256","internalType":"uint256"},{"name":"_educationClaimed","type":"uint256","internalType":"uint256"},{"name":"_referralClaimed","type":"uint256","internalType":"uint256"},{"name":"_milestoneClaimed","type":"uint256","internalType":"uint256"},{"name":"_referralsMade","type":"uint256","internalType":"uint256"},{"name":"_canReferMore","type":"bool","internalType":"bool"}],"stateMutability":"view"},{"type":"function","name":"grantRole","inputs":[{"name":"role","type":"bytes32","internalType":"bytes32"},{"name":"account","type":"address","internalType":"address"}],"outputs":[],"stateMutability":"nonpayable"},{"type":"function","name":"hasRole","inputs":[{"name":"role","type":"bytes32","internalType":"bytes32"},{"name":"account","type":"address","internalType":"address"}],"outputs":[{"name":"","type":"bool","internalType":"bool"}],"stateMutability":"view"},{"type":"function","name":"hasUsedReferralCode","inputs":[{"name":"","type":"address","internalType":"address"}],"outputs":[{"name":"","type":"bool","internalType":"bool"}],"stateMutability":"view"},{"type":"function","name":"isPioneer","inputs":[{"name":"","type":"address","internalType":"address"}],"outputs":[{"name":"","type":"bool","internalType":"bool"}],"stateMutability":"view"},{"type":"function","name":"isPromotionActive","inputs":[],"outputs":[{"name":"","type":"bool","internalType":"bool"}],"stateMutability":"view"},{"type":"function","name":"madeFirstMerchantPayment","inputs":[{"name":"","type":"address","internalType":"address"}],"outputs":[{"name":"","type":"bool","internalType":"bool"}],"stateMutability":"view"},{"type":"function","name":"madeFirstTransaction","inputs":[{"name":"","type":"address","internalType":"address"}],"outputs":[{"name":"","type":"bool","internalType":"bool"}],"stateMutability":"view"},{"type":"function","name":"merchantBudgetRemaining","inputs":[],"outputs":[{"name":"","type":"uint256","internalType":"uint256"}],"stateMutability":"view"},{"type":"function","name":"merchantMilestoneClaimed","inputs":[{"name":"","type":"address","internalType":"address"}],"outputs":[{"name":"","type":"bool","internalType":"bool"}],"stateMutability":"view"},{"type":"function","name":"merchantRewardsClaimed","inputs":[{"name":"","type":"address","internalType":"address"}],"outputs":[{"name":"","type":"uint256","internalType":"uint256"}],"stateMutability":"view"},{"type":"function","name":"merchantVolumeProcessed","inputs":[{"name":"","type":"address","internalType":"address"}],"outputs":[{"name":"","type":"uint256","internalType":"uint256"}],"stateMutability":"view"},{"type":"function","name":"pioneerBudgetRemaining","inputs":[],"outputs":[{"name":"","type":"uint256","internalType":"uint256"}],"stateMutability":"view"},{"type":"function","name":"pioneerNumber","inputs":[{"name":"","type":"address","internalType":"address"}],"outputs":[{"name":"","type":"uint256","internalType":"uint256"}],"stateMutability":"view"},{"type":"function","name":"receivedFirstEndorsement","inputs":[{"name":"","type":"address","internalType":"address"}],"outputs":[{"name":"","type":"bool","internalType":"bool"}],"stateMutability":"view"},{"type":"function","name":"recordMerchantVisit","inputs":[{"name":"user","type":"address","internalType":"address"},{"name":"merchant","type":"address","internalType":"address"}],"outputs":[],"stateMutability":"nonpayable"},{"type":"function","name":"referralBudgetRemaining","inputs":[],"outputs":[{"name":"","type":"uint256","internalType":"uint256"}],"stateMutability":"view"},{"type":"function","name":"referralCount","inputs":[{"name":"","type":"address","internalType":"address"}],"outputs":[{"name":"","type":"uint256","internalType":"uint256"}],"stateMutability":"view"},{"type":"function","name":"referralRewardsClaimed","inputs":[{"name":"","type":"address","internalType":"address"}],"outputs":[{"name":"","type":"uint256","internalType":"uint256"}],"stateMutability":"view"},{"type":"function","name":"referralTxBonusClaimed","inputs":[{"name":"","type":"address","internalType":"address"}],"outputs":[{"name":"","type":"bool","internalType":"bool"}],"stateMutability":"view"},{"type":"function","name":"referredBy","inputs":[{"name":"","type":"address","internalType":"address"}],"outputs":[{"name":"","type":"address","internalType":"address"}],"stateMutability":"view"},{"type":"function","name":"registerReferral","inputs":[{"name":"referee","type":"address","internalType":"address"},{"name":"referrer","type":"address","internalType":"address"}],"outputs":[],"stateMutability":"nonpayable"},{"type":"function","name":"renounceRole","inputs":[{"name":"role","type":"bytes32","internalType":"bytes32"},{"name":"account","type":"address","internalType":"address"}],"outputs":[],"stateMutability":"nonpayable"},{"type":"function","name":"replenishBudget","inputs":[{"name":"category","type":"string","internalType":"string"},{"name":"amount","type":"uint256","internalType":"uint256"}],"outputs":[],"stateMutability":"nonpayable"},{"type":"function","name":"revokeRole","inputs":[{"name":"role","type":"bytes32","internalType":"bytes32"},{"name":"account","type":"address","internalType":"address"}],"outputs":[],"stateMutability":"nonpayable"},{"type":"function","name":"totalDistributed","inputs":[],"outputs":[{"name":"","type":"uint256","internalType":"uint256"}],"stateMutability":"view"},{"type":"function","name":"totalPioneers","inputs":[],"outputs":[{"name":"","type":"uint256","internalType":"uint256"}],"stateMutability":"view"},{"type":"function","name":"uniqueMerchantsVisited","inputs":[{"name":"","type":"address","internalType":"address"}],"outputs":[{"name":"","type":"uint256","internalType":"uint256"}],"stateMutability":"view"},{"type":"function","name":"userMilestoneBudgetRemaining","inputs":[],"outputs":[{"name":"","type":"uint256","internalType":"uint256"}],"stateMutability":"view"},{"type":"function","name":"userMilestoneRewardsClaimed","inputs":[{"name":"","type":"address","internalType":"address"}],"outputs":[{"name":"","type":"uint256","internalType":"uint256"}],"stateMutability":"view"},{"type":"function","name":"vfideToken","inputs":[],"outputs":[{"name":"","type":"address","internalType":"contract VFIDEToken"}],"stateMutability":"view"},{"type":"event","name":"BudgetReplenished","inputs":[{"name":"category","type":"string","indexed":false,"internalType":"string"},{"name":"amount","type":"uint256","indexed":false,"internalType":"uint256"}],"anonymous":false},{"type":"event","name":"EducationRewardClaimed","inputs":[{"name":"user","type":"address","indexed":true,"internalType":"address"},{"name":"milestone","type":"string","indexed":false,"internalType":"string"},{"name":"amount","type":"uint256","indexed":false,"internalType":"uint256"}],"anonymous":false},{"type":"event","name":"MerchantMilestoneRewardClaimed","inputs":[{"name":"merchant","type":"address","indexed":true,"internalType":"address"},{"name":"volume","type":"uint256","indexed":false,"internalType":"uint256"},{"name":"amount","type":"uint256","indexed":false,"internalType":"uint256"}],"anonymous":false},{"type":"event","name":"PioneerBadgeAwarded","inputs":[{"name":"user","type":"address","indexed":true,"internalType":"address"},{"name":"pioneerNumber","type":"uint256","indexed":false,"internalType":"uint256"},{"name":"bonus","type":"uint256","indexed":false,"internalType":"uint256"}],"anonymous":false},{"type":"event","name":"PromotionalBudgetDepleted","inputs":[{"name":"category","type":"string","indexed":false,"internalType":"string"}],"anonymous":false},{"type":"event","name":"ReferralRewardClaimed","inputs":[{"name":"referrer","type":"address","indexed":true,"internalType":"address"},{"name":"referee","type":"address","indexed":true,"internalType":"address"},{"name":"amount","type":"uint256","indexed":false,"internalType":"uint256"}],"anonymous":false},{"type":"event","name":"RoleAdminChanged","inputs":[{"name":"role","type":"bytes32","indexed":true,"internalType":"bytes32"},{"name":"previousAdminRole","type":"bytes32","indexed":true,"internalType":"bytes32"},{"name":"newAdminRole","type":"bytes32","indexed":true,"internalType":"bytes32"}],"anonymous":false},{"type":"event","name":"RoleGranted","inputs":[{"name":"role","type":"bytes32","indexed":true,"internalType":"bytes32"},{"name":"account","type":"address","indexed":true,"internalType":"address"},{"name":"sender","type":"address","indexed":true,"internalType":"address"}],"anonymous":false},{"type":"event","name":"RoleRevoked","inputs":[{"name":"role","type":"bytes32","indexed":true,"internalType":"bytes32"},{"name":"account","type":"address","indexed":true,"internalType":"address"},{"name":"sender","type":"address","indexed":true,"internalType":"address"}],"anonymous":false},{"type":"event","name":"UserMilestoneRewardClaimed","inputs":[{"name":"user","type":"address","indexed":true,"internalType":"address"},{"name":"milestone","type":"string","indexed":false,"internalType":"string"},{"name":"amount","type":"uint256","indexed":false,"internalType":"uint256"}],"anonymous":false}],"bytecode":{"object":"0x60a03461027157601f6132c538819003918201601f19168301916001600160401b0383118484101761027557808492604094855283398101031261027157610052602061004b83610289565b9201610289565b600180556001600160a01b0390911690811561022c576001600160a01b03169081156101e757608052693f870857a3e0e38000006002556969e10de76676d08000006003556954b40b1f852bda000000600455697f0e10af47c1c7000000600555692a5a058fc295ed0000006006555f8181525f5160206132a55f395f51905f52602052604090205460ff16156101a9575b5f8181525f5160206132855f395f51905f52602052604090205460ff1615610149575b604051612fc7908161029e82396080518181816105a401528181610d35015281816110a3015281816114340152818161196501528181611c8f015261205b0152f35b5f8181525f5160206132855f395f51905f5260205260408120805460ff191660011790553391907fa49807205ce4d355092ef5a8a18f56e8913cf4a201fbe287825b095693c21775905f5160206132655f395f51905f529080a45f610107565b5f8181525f5160206132a55f395f51905f5260205260408120805460ff19166001179055339082905f5160206132655f395f51905f528180a46100e4565b60405162461bcd60e51b815260206004820152601560248201527f496e76616c69642061646d696e206164647265737300000000000000000000006044820152606490fd5b60405162461bcd60e51b815260206004820152601560248201527f496e76616c696420746f6b656e206164647265737300000000000000000000006044820152606490fd5b5f80fd5b634e487b7160e01b5f52604160045260245ffd5b51906001600160a01b03821682036102715756fe60806040526004361015610011575f80fd5b5f3560e01c806304ae1fb514612aeb5780630b9a8859146128f05780630d538b87146128cd5780630db16b62146128b05780631176d7ed1461287857806312f6f7ee1461283b578063185840fe146127fe578063197d63a1146127c15780631c86779a146127a45780632327597e14612781578063248a9ca31461275b578063277402b514610b935780632f2ff15d146126905780632fca4a7614612653578063311528081461263857806332b02d44146125fb57806332ef958c146125d6578063344027441461033157806336568abe1461255c578063366202501461253f5780633fcfe45a14612502578063458394ce146124e557806345a13714146124a8578063462e61b014612485578063476014dd14611842578063478c02501461244d5780634dae7b3214610b935780634e43603a146123b55780635603b9f914611f0a57806358fc460114611ee7578063683c60d714611b6b57806368b3c7d214611b4e57806368fece8c14611b1157806369067a451461184757806369782c3c14610bd05780636b11328b146118425780636d925f16146117dc57806375647e02146117b9578063758d86771461177c57806375b238fc146117425780637850aa271461171f57806381dec47c146116f6578063827f2ccc146116be578063849733c6146103315780638a07cc74146112d3578063915bd11f1461129b57806391d1485414611253578063a217fddf14611239578063a262876d14611216578063a85399b2146111d9578063a90f8e9a14611199578063a9d650511461115c578063ac1ba4fd146110ee578063aea3b217146110d2578063b8a71eec1461108e578063bcb5bae114611071578063c5016f5c14611039578063ca25b6fe14610ffc578063d310412214610c28578063d547741f14610bd5578063d6abc27914610bd0578063db74559b14610b98578063dbedbc6414610b93578063e27e59fc14610b70578063e32a167014610441578063e45fc95614610404578063e8c62a15146103c7578063ecfb88ca1461038f578063eebf2d1d14610331578063efca2eed14610372578063f404f791146103365763ffbc7c8314610331575f80fd5b612bf4565b3461036e57602036600319011261036e576001600160a01b03610357612ba6565b165f526010602052602060405f2054604051908152f35b5f80fd5b3461036e575f36600319011261036e576020600754604051908152f35b3461036e57602036600319011261036e576001600160a01b036103b0612ba6565b165f52600a602052602060405f2054604051908152f35b3461036e57602036600319011261036e576001600160a01b036103e8612ba6565b165f526014602052602060ff60405f2054166040519015158152f35b3461036e57602036600319011261036e576001600160a01b03610425612ba6565b165f526019602052602060ff60405f2054166040519015158152f35b3461036e57602036600319011261036e576004356001600160401b03811161036e57610471903690600401612b60565b610479612ecf565b335f52600a60205268097c9ce4cf6d5c000060405f20541015610b335780519060208101918220916040926011602085516104b48782612b0e565b82815201703334b939ba2fba3930b739b0b1ba34b7b760791b815220145f1461078d5750335f5260176020526104f060ff835f20541615612e11565b335f526017602052815f20600160ff1982541617905568015af1d78b58c40000905b816004541061074957335f52600a602052825f20610531838254612da5565b905561053b612d02565b50610547821515612c78565b60075466d3c21bcecceda160191b61055f8483612da5565b1161070d578261056e91612da5565b6007555f808451602081019063a9059cbb60e01b82523360248201528560448201526044815261059f606482612b0e565b5190827f00000000000000000000000000000000000000000000000000000000000000006001600160a01b03165af13d15610706573d6105de81612b45565b906105eb86519283612b0e565b81523d5f602083013e5b816106ce575b501561068d577fcac730ce09b428ff423f84a360bcb2d523288d59c3c2469647c27934302fd51c61064361063184600454612e04565b93846004558551918291339583612db2565b0390a215610652575b60018055005b6060816d757365725f6d696c6573746f6e6560901b5f516020612f725f395f51905f5293519160208352600e6020840152820152a18061064c565b825162461bcd60e51b815260206004820152601a60248201527914d85999515490cc8c0e881d1c985b9cd9995c8819985a5b195960321b6044820152606490fd5b80518015925082156106e3575b5050846105fb565b819250906020918101031261036e5760200151801515810361036e5784806106db565b60606105f5565b835162461bcd60e51b8152602060048201526015602482015274151bdd185b08189d5919d95d08195e18d959591959605a1b6044820152606490fd5b825162461bcd60e51b815260206004820152601e60248201527f55736572206d696c6573746f6e6520627564676574206465706c6574656400006044820152606490fd5b815181206016602085516107a18782612b0e565b8281520175199a5c9cdd17db595c98da185b9d17dc185e5b595b9d60521b815220145f146108085750335f5260186020526107e260ff835f20541615612e11565b335f526018602052815f20600160ff1982541617905568015af1d78b58c4000090610512565b8151812060176020855161081c8782612b0e565b82815201763334b939ba2fb2b73237b939b2b6b2b73a2fb3b4bb32b760491b815220145f146108835750335f52601960205261085e60ff835f20541615612e11565b335f526019602052815f20600160ff1982541617905567d02ab486cedc000090610512565b81518120601a602085516108978782612b0e565b8281520179199a5c9cdd17d95b991bdc9cd95b595b9d17dc9958d95a5d995960321b815220145f146109015750335f52601a6020526108dc60ff835f20541615612e11565b335f52601a602052815f20600160ff1982541617905567d02ab486cedc000090610512565b81518120600d602085516109158782612b0e565b828152016c1d985d5b1d17d8dc99585d1959609a1b815220145f146109735750335f52601b60205261094d60ff835f20541615612e11565b335f52601b602052815f20600160ff198254161790556802b5e3af16b188000090610512565b81518120600f602085516109878782612b0e565b828152016e74687265655f6d65726368616e747360881b815220145f14610a385750335f52601d6020526109c160ff835f20541615612e11565b335f52601c6020526003825f2054106109fa57335f52601d602052815f20600160ff198254161790556802b5e3af16b188000090610512565b815162461bcd60e51b8152602060048201526017602482015276159a5cda5d080cc81b595c98da185b9d1cc8199a5c9cdd604a1b6044820152606490fd5b81519020600d60208451610a4c8682612b0e565b828152016c74656e5f6d65726368616e747360981b815220145f14610afb57335f52601e602052610a8360ff835f20541615612e11565b335f52601c602052600a825f205410610abc57335f52601e602052815f20600160ff1982541617905568056bc75e2d6310000090610512565b815162461bcd60e51b8152602060048201526018602482015277159a5cda5d080c4c081b595c98da185b9d1cc8199a5c9cdd60421b6044820152606490fd5b505162461bcd60e51b8152602060048201526011602482015270496e76616c6964206d696c6573746f6e6560781b6044820152606490fd5b60405162461bcd60e51b8152602060048201526015602482015274135a5b195cdd1bdb994818d85c081c995858da1959605a1b6044820152606490fd5b3461036e575f36600319011261036e576020604051683635c9adc5dea000008152f35b612bd2565b3461036e57602036600319011261036e576001600160a01b03610bb9612ba6565b165f52600d602052602060405f2054604051908152f35b612c17565b3461036e57604036600319011261036e57610c26600435610bf4612bbc565b90610bfe81612de5565b5f90815260208181526040808320338452909152902054610c219060ff16612c39565b612e4f565b005b3461036e57602036600319011261036e57610c41612ba6565b610c49612ecf565b6001600160a01b039081165f818152600c602052604090205490911690338203610fc457805f52601f60205260ff60405f205416610f8057815f526009602052683635c9adc5dea0000060405f20541015610f445768015af1d78b58c4000060035410610f0457805f52601f60205260405f20600160ff19825416179055610ccf612cdc565b5060075466d3c21bcecceda160191b610ce782612d79565b11610ec757610cf590612d79565b6007555f80604051602081019063a9059cbb60e01b825285602482015268015af1d78b58c40000604482015260448152610d30606482612b0e565b5190827f00000000000000000000000000000000000000000000000000000000000000006001600160a01b03165af13d15610ec0573d610d6f81612b45565b90610d7d6040519283612b0e565b81523d5f602083013e5b81610e88575b5015610e4657815f52600960205260405f2080549068015af1d78b58c400008201809211610e32575560035468015af1d78b58c3ffff19810192908311610e3257826003555f516020612f325f395f51905f52602060405168015af1d78b58c400008152a315610dfd5760018055005b5f516020612f725f395f51905f5260606040516020815260086020820152671c9959995c9c985b60c21b6040820152a161064c565b634e487b7160e01b5f52601160045260245ffd5b60405162461bcd60e51b815260206004820152601a60248201527914d85999515490cc8c0e881d1c985b9cd9995c8819985a5b195960321b6044820152606490fd5b8051801592508215610e9d575b505083610d8d565b819250906020918101031261036e5760200151801515810361036e578380610e95565b6060610d87565b60405162461bcd60e51b8152602060048201526015602482015274151bdd185b08189d5919d95d08195e18d959591959605a1b6044820152606490fd5b60405162461bcd60e51b8152602060048201526018602482015277149959995c9c985b08189d5919d95d0819195c1b195d195960421b6044820152606490fd5b60405162461bcd60e51b8152602060048201526014602482015273149959995c9c985b0818d85c081c995858da195960621b6044820152606490fd5b606460405162461bcd60e51b815260206004820152602060248201527f416c726561647920636c61696d656420666f72207468697320726566657265656044820152fd5b60405162461bcd60e51b815260206004820152601060248201526f2737ba103a3432903932b332b93932b960811b6044820152606490fd5b3461036e57602036600319011261036e576001600160a01b0361101d612ba6565b165f52600e602052602060ff60405f2054166040519015158152f35b3461036e57602036600319011261036e576001600160a01b0361105a612ba6565b165f52601c602052602060405f2054604051908152f35b3461036e575f36600319011261036e576020600454604051908152f35b3461036e575f36600319011261036e576040517f00000000000000000000000000000000000000000000000000000000000000006001600160a01b03168152602090f35b3461036e575f36600319011261036e5760206040516127108152f35b3461036e57604036600319011261036e57611107612ba6565b61110f612bbc565b50335f9081525f516020612f125f395f51905f5260205260409020546111379060ff16612c39565b6001600160a01b03165f908152601c60205260409020805461115890612df6565b9055005b3461036e57602036600319011261036e576001600160a01b0361117d612ba6565b165f526016602052602060ff60405f2054166040519015158152f35b3461036e57602036600319011261036e576001600160a01b036111ba612ba6565b165f52600c602052602060018060a01b0360405f205416604051908152f35b3461036e57602036600319011261036e576001600160a01b036111fa612ba6565b165f526015602052602060ff60405f2054166040519015158152f35b3461036e575f36600319011261036e5760206040516801158e460913d000008152f35b3461036e575f36600319011261036e5760206040515f8152f35b3461036e57604036600319011261036e5761126c612bbc565b6004355f525f60205260405f209060018060a01b03165f52602052602060ff60405f2054166040519015158152f35b3461036e57602036600319011261036e576001600160a01b036112bc612ba6565b165f526008602052602060405f2054604051908152f35b3461036e57602036600319011261036e576004356001600160401b03811161036e57611303903690600401612b60565b61130b612ecf565b335f5260086020526801a055690d9db8000060405f205410156116815780519060208101918220916040926010602085516113468782612b0e565b828152016f636f6d706c6574655f70726f66696c6560801b815220145f146115965750335f52601460205261138160ff835f20541615612e11565b335f526014602052815f20600160ff19825416179055678ac7230489e80000905b816002541061155657335f526008602052825f206113c1838254612da5565b90556113cb612cb5565b506113d7821515612c78565b60075466d3c21bcecceda160191b6113ef8483612da5565b1161070d57826113fe91612da5565b6007555f808451602081019063a9059cbb60e01b82523360248201528560448201526044815261142f606482612b0e565b5190827f00000000000000000000000000000000000000000000000000000000000000006001600160a01b03165af13d1561154f573d61146e81612b45565b9061147b86519283612b0e565b81523d5f602083013e5b81611517575b501561068d577f2053a07ba0a17d6312cb2a44b404d84a1da024cecd29b09657e9c6a03cc9a6506114d36114c184600254612e04565b93846002558551918291339583612db2565b0390a2156114e15760018055005b6060816832b23ab1b0ba34b7b760b91b5f516020612f725f395f51905f529351916020835260096020840152820152a18061064c565b805180159250821561152c575b50508461148b565b819250906020918101031261036e5760200151801515810361036e578480611524565b6060611485565b825162461bcd60e51b815260206004820152601960248201527811591d58d85d1a5bdb88189d5919d95d0819195c1b195d1959603a1b6044820152606490fd5b815181206014602085516115aa8782612b0e565b82815201731c1c9bdbd997dcd8dbdc9957dd1d5d1bdc9a585b60621b815220145f1461160e5750335f5260156020526115e960ff835f20541615612e11565b335f526015602052815f20600160ff19825416179055678ac7230489e80000906113a2565b815190206010602084516116228682612b0e565b828152016f1c185e5b595b9d17dd1d5d1bdc9a585b60821b815220145f14610afb57335f52601660205261165c60ff835f20541615612e11565b335f526016602052815f20600160ff19825416179055678ac7230489e80000906113a2565b60405162461bcd60e51b815260206004820152601560248201527411591d58d85d1a5bdb8818d85c081c995858da1959605a1b6044820152606490fd5b3461036e57602036600319011261036e576001600160a01b036116df612ba6565b165f52600b602052602060405f2054604051908152f35b3461036e575f36600319011261036e57602066d3c21bcecceda160191b60075410604051908152f35b3461036e575f36600319011261036e57602060405168097c9ce4cf6d5c00008152f35b3461036e575f36600319011261036e5760206040517fa49807205ce4d355092ef5a8a18f56e8913cf4a201fbe287825b095693c217758152f35b3461036e57602036600319011261036e576001600160a01b0361179d612ba6565b165f52601f602052602060ff60405f2054166040519015158152f35b3461036e575f36600319011261036e576020604051681b1ae4d6e2ef5000008152f35b3461036e575f36600319011261036e57600254600354906004546005546006549060075466d3c21bcecceda160191b039266d3c21bcecceda160191b8411610e325760c095604051958652602086015260408501526060840152608083015260a0820152f35b612aeb565b3461036e57602036600319011261036e57611860612ba6565b335f9081525f516020612f125f395f51905f5260205260409020546118879060ff16612c39565b6001600160a01b03165f818152600f602052604090205460ff16611ad857601154612710811015611a98576801158e460913d0000060065410611a59576118cd90612df6565b601155805f52600f60205260405f20600160ff19825416179055601154815f52601060205260405f20556118ff612d54565b5060075466d3c21bcecceda160191b61191782612d8f565b11610ec75761192590612d8f565b6007555f80604051602081019063a9059cbb60e01b82528460248201526801158e460913d00000604482015260448152611960606482612b0e565b5190827f00000000000000000000000000000000000000000000000000000000000000006001600160a01b03165af13d15611a52573d61199f81612b45565b906119ad6040519283612b0e565b81523d5f602083013e5b81611a1a575b5015610e46576006546801158e460913cfffff198101908111610e32576006557f6a90316e67ed6573e66292169087b28c08bc381fa9e9d1aaa43a1bc2a37b0dda604060115481519081526801158e460913d000006020820152a2005b8051801592508215611a2f575b5050826119bd565b819250906020918101031261036e5760200151801515810361036e578280611a27565b60606119b7565b60405162461bcd60e51b8152602060048201526017602482015276141a5bdb99595c88189d5919d95d0819195c1b195d1959604a1b6044820152606490fd5b60405162461bcd60e51b8152602060048201526018602482015277105b1b081c1a5bdb99595c881cdb1bdd1cc8199a5b1b195960421b6044820152606490fd5b60405162461bcd60e51b815260206004820152601160248201527020b63932b0b23c9030903834b7b732b2b960791b6044820152606490fd5b3461036e57602036600319011261036e576001600160a01b03611b32612ba6565b165f526013602052602060ff60405f2054166040519015158152f35b3461036e575f36600319011261036e576020600654604051908152f35b3461036e57602036600319011261036e57600435611b87612ecf565b335f52600b602052685150ae84a8cdf0000060405f20541015611eab57335f52601360205260ff60405f205416611e6a57335f90815260126020908152604080832084905560139091529020805460ff1916600117905569021e19e0c9bab24000008110611dee57681b1ae4d6e2ef500000905b8160055410611dae57335f52600b60205260405f20611c1b838254612da5565b9055611c25612d2e565b50611c31821515612c78565b60075466d3c21bcecceda160191b611c498483612da5565b11610ec75782611c5891612da5565b6007555f80604051602081019063a9059cbb60e01b825233602482015285604482015260448152611c8a606482612b0e565b5190827f00000000000000000000000000000000000000000000000000000000000000006001600160a01b03165af13d15611da7573d611cc981612b45565b90611cd76040519283612b0e565b81523d5f602083013e5b81611d6f575b5015610e4657611cf982600554612e04565b918260055560405191825260208201527ff19d369a43c96ee685266d4178ebb8ca58b649f803489008b0cd115ad34deb9b60403392a215611d3a5760018055005b5f516020612f725f395f51905f5260606040516020815260086020820152671b595c98da185b9d60c21b6040820152a161064c565b8051801592508215611d84575b505083611ce7565b819250906020918101031261036e5760200151801515810361036e578380611d7c565b6060611ce1565b60405162461bcd60e51b815260206004820152601860248201527713595c98da185b9d08189d5919d95d0819195c1b195d195960421b6044820152606490fd5b69010f0cf064dd592000008110611e0f57680ad78ebc5ac620000090611bfb565b683635c9adc5dea000008110611e2f576802b5e3af16b188000090611bfb565b60405162461bcd60e51b8152602060048201526013602482015272496e73756666696369656e7420766f6c756d6560681b6044820152606490fd5b60405162461bcd60e51b8152602060048201526019602482015278135a5b195cdd1bdb9948185b1c9958591e4818db185a5b5959603a1b6044820152606490fd5b60405162461bcd60e51b815260206004820152601460248201527313595c98da185b9d0818d85c081c995858da195960621b6044820152606490fd5b3461036e575f36600319011261036e5760206040516801a055690d9db800008152f35b3461036e57604036600319011261036e57611f23612ba6565b611f2b612bbc565b335f9081525f516020612f125f395f51905f526020526040902054909190611f559060ff16612c39565b6001600160a01b031690811515806123a3575b1561236a576001600160a01b031681811461232d57815f52600e60205260ff60405f2054166122eb57805f52600d602052601460405f205410156122af575f818152600c60205260409020546001600160a01b0316821461226d575f828152600c6020908152604080832080546001600160a01b03191685179055600e8252808320805460ff19166001179055838352600d9091529020805461200a90612df6565b90556802b5e3af16b1880000600354101561202157005b612029612cdc565b5060075466d3c21bcecceda160191b61204182612d79565b11610ec75761204f90612d79565b60075560018060a01b037f0000000000000000000000000000000000000000000000000000000000000000165f80604051602081019063a9059cbb60e01b825285602482015268015af1d78b58c400006044820152604481526120b3606482612b0e565b519082855af13d15612266573d6120c981612b45565b906120d76040519283612b0e565b81523d5f602083013e5b8161222e575b5015610e46576120f5612cdc565b5060075466d3c21bcecceda160191b61210d82612d79565b11610ec7575f9161211e8392612d79565b60075560405182602082019163a9059cbb60e01b835287602482015268015af1d78b58c40000604482015260448152612158606482612b0e565b51925af13d15612227573d61216c81612b45565b9061217a6040519283612b0e565b81523d5f602083013e5b816121ef575b5015610e4657805f52600960205260405f2080549068015af1d78b58c400008201809211610e3257556003546802b5e3af16b187ffff198101908111610e32576003555f516020612f325f395f51905f52602060405168015af1d78b58c400008152a3005b8051801592508215612204575b50508361218a565b819250906020918101031261036e5760200151801515810361036e5783806121fc565b6060612184565b8051801592508215612243575b5050846120e7565b819250906020918101031261036e5760200151801515810361036e57848061223b565b60606120e1565b60405162461bcd60e51b815260206004820152601a60248201527910da5c98dd5b185c881c9959995c9c985b0819195d1958dd195960321b6044820152606490fd5b60405162461bcd60e51b8152602060048201526014602482015273149959995c9c995c8818d85c081c995858da195960621b6044820152606490fd5b60405162461bcd60e51b815260206004820152601a602482015279416c7265616479207573656420726566657272616c20636f646560301b6044820152606490fd5b60405162461bcd60e51b815260206004820152601560248201527421b0b73737ba103932b332b9103cb7bab939b2b63360591b6044820152606490fd5b60405162461bcd60e51b8152602060048201526011602482015270496e76616c69642061646472657373657360781b6044820152606490fd5b506001600160a01b0381161515611f68565b3461036e57602036600319011261036e5760e06001600160a01b036123d8612ba6565b165f908152600f6020908152604080832054601083528184205460088452828520546009855283862054600a865284872054600d87529685902054855160ff9095161515855295840192909252928201929092526060810191909152608081019290925260a0820181905260141160c0820152f35b3461036e57602036600319011261036e576001600160a01b0361246e612ba6565b165f526012602052602060405f2054604051908152f35b3461036e575f36600319011261036e57602060405168056bc75e2d631000008152f35b3461036e57602036600319011261036e576001600160a01b036124c9612ba6565b165f52601e602052602060ff60405f2054166040519015158152f35b3461036e575f36600319011261036e576020600254604051908152f35b3461036e57602036600319011261036e576001600160a01b03612523612ba6565b165f526017602052602060ff60405f2054166040519015158152f35b3461036e575f36600319011261036e576020601154604051908152f35b3461036e57604036600319011261036e57612575612bbc565b336001600160a01b0382160361259157610c2690600435612e4f565b60405162461bcd60e51b815260206004820152601e60248201527f41433a2063616e206f6e6c792072656e6f756e636520666f722073656c6600006044820152606490fd5b3461036e575f36600319011261036e5760405166d3c21bcecceda160191b8152602090f35b3461036e57602036600319011261036e576001600160a01b0361261c612ba6565b165f52601a602052602060ff60405f2054166040519015158152f35b3461036e575f36600319011261036e57602060405160148152f35b3461036e57602036600319011261036e576001600160a01b03612674612ba6565b165f52601b602052602060ff60405f2054166040519015158152f35b3461036e57604036600319011261036e576004356126ac612bbc565b906126b681612de5565b5f908152602081815260408083203384529091529020546126d99060ff16612c39565b5f818152602081815260408083206001600160a01b038616845290915290205460ff161561270357005b5f818152602081815260408083206001600160a01b0395909516808452949091528120805460ff19166001179055339291907f2f8788117e7eff1d82e926ec794901d17c78024a50270940304540a733656f0d9080a4005b3461036e57602036600319011261036e576020612779600435612de5565b604051908152f35b3461036e575f36600319011261036e576020604051685150ae84a8cdf000008152f35b3461036e575f36600319011261036e576020600354604051908152f35b3461036e57602036600319011261036e576001600160a01b036127e2612ba6565b165f52600f602052602060ff60405f2054166040519015158152f35b3461036e57602036600319011261036e576001600160a01b0361281f612ba6565b165f526018602052602060ff60405f2054166040519015158152f35b3461036e57602036600319011261036e576001600160a01b0361285c612ba6565b165f52601d602052602060ff60405f2054166040519015158152f35b3461036e57602036600319011261036e576001600160a01b03612899612ba6565b165f526009602052602060405f2054604051908152f35b3461036e575f36600319011261036e576020600554604051908152f35b3461036e575f36600319011261036e576020604051680ad78ebc5ac62000008152f35b3461036e57604036600319011261036e576004356001600160401b03811161036e57612920903690600401612b60565b335f9081527fad3228b676f7d3cd4284a5443f17f1962b36e491b30a40b2405849e597ba5fb560205260409020546024359061295e9060ff16612c39565b612969811515612c78565b81516020830190812061297a612cb5565b60208151910120145f146129bc57505f516020612f525f395f51905f52916129a482600254612da5565b6002555b6129b760405192839283612db2565b0390a1005b825181206129c8612cdc565b60208151910120145f146129fa57505f516020612f525f395f51905f52916129f282600354612da5565b6003556129a8565b82518120612a06612d02565b60208151910120145f14612a3857505f516020612f525f395f51905f5291612a3082600454612da5565b6004556129a8565b82518120612a44612d2e565b60208151910120145f14612a7657505f516020612f525f395f51905f5291612a6e82600554612da5565b6005556129a8565b82519020612a82612d54565b60208151910120145f14612ab3575f516020612f525f395f51905f5291612aab82600654612da5565b6006556129a8565b60405162461bcd60e51b815260206004820152601060248201526f496e76616c69642063617465676f727960801b6044820152606490fd5b3461036e575f36600319011261036e5760206040516802b5e3af16b18800008152f35b601f909101601f19168101906001600160401b03821190821017612b3157604052565b634e487b7160e01b5f52604160045260245ffd5b6001600160401b038111612b3157601f01601f191660200190565b81601f8201121561036e57803590612b7782612b45565b92612b856040519485612b0e565b8284526020838301011161036e57815f926020809301838601378301015290565b600435906001600160a01b038216820361036e57565b602435906001600160a01b038216820361036e57565b3461036e575f36600319011261036e576020604051678ac7230489e800008152f35b3461036e575f36600319011261036e57602060405168015af1d78b58c400008152f35b3461036e575f36600319011261036e57602060405167d02ab486cedc00008152f35b15612c4057565b60405162461bcd60e51b815260206004820152601060248201526f41433a206d697373696e6720726f6c6560801b6044820152606490fd5b15612c7f57565b60405162461bcd60e51b815260206004820152600e60248201526d125b9d985b1a5908185b5bdd5b9d60921b6044820152606490fd5b60405190612cc4604083612b0e565b600982526832b23ab1b0ba34b7b760b91b6020830152565b60405190612ceb604083612b0e565b60088252671c9959995c9c985b60c21b6020830152565b60405190612d11604083612b0e565b600e82526d757365725f6d696c6573746f6e6560901b6020830152565b60405190612d3d604083612b0e565b60088252671b595c98da185b9d60c21b6020830152565b60405190612d63604083612b0e565b60078252663834b7b732b2b960c91b6020830152565b9068015af1d78b58c400008201809211610e3257565b906801158e460913d000008201809211610e3257565b91908201809211610e3257565b9291906060602080926040875280519182918260408a0152018388015e5f828288010152601f8019910116850101930152565b5f525f602052600160405f20015490565b5f198114610e325760010190565b91908203918211610e3257565b15612e1857565b60405162461bcd60e51b815260206004820152600f60248201526e105b1c9958591e4818db185a5b5959608a1b6044820152606490fd5b5f818152602081815260408083206001600160a01b038616845290915290205460ff16612e7a575050565b5f818152602081815260408083206001600160a01b0395909516808452949091528120805460ff19169055339291907ff6391f5c32d9c69d2a47ea670b442974b53935d1edc7fd64eb21e047a839171b9080a4565b6001805403612edf576002600155565b60405162461bcd60e51b815260206004820152600a6024820152697265656e7472616e637960b01b6044820152606490fdfe7d7ffb7a348e1c6a02869081a26547b49160dd3df72d1d75a570eb9b698292ecf1a5b75d05cae9d461d822c73e66e2ae88a31f7edec9922587b8f22689d6f20b2c4ba78d47c7f54e2b79ce76bf215dcbe7fa0c49a3892f541b8a0fcf53e239ee29f3845725550c3cfcc495e7acee01a4295a68cabe562338900638c414c07ce1a2646970667358221220de4858f90e43fda8b6af859645e894423338ac80b97d87ec9e9f29ac74697ebf64736f6c634300081e00332f8788117e7eff1d82e926ec794901d17c78024a50270940304540a733656f0d7d7ffb7a348e1c6a02869081a26547b49160dd3df72d1d75a570eb9b698292ecad3228b676f7d3cd4284a5443f17f1962b36e491b30a40b2405849e597ba5fb5","linkReferences":{}},"methodIdentifiers":{"ADMIN_ROLE()":"75b238fc","DEFAULT_ADMIN_ROLE()":"a217fddf","EDUCATION_COMPLETE_PROFILE()":"277402b5","EDUCATION_PAYMENT_TUTORIAL()":"4dae7b32","EDUCATION_PROOF_SCORE_TUTORIAL()":"dbedbc64","FIRST_ENDORSEMENT_GIVEN()":"69782c3c","FIRST_ENDORSEMENT_RECEIVED()":"d6abc279","FIRST_MERCHANT_PAYMENT()":"eebf2d1d","FIRST_TRANSACTION_BONUS()":"849733c6","MAX_EDUCATION_PER_USER()":"58fc4601","MAX_MERCHANT_REWARDS()":"2327597e","MAX_PIONEERS()":"aea3b217","MAX_REFERRALS_PER_USER()":"31152808","MAX_REFERRAL_PER_USER()":"e27e59fc","MAX_USER_MILESTONE_PER_USER()":"7850aa27","MERCHANT_10K_VOLUME()":"75647e02","MERCHANT_1K_VOLUME()":"6b11328b","MERCHANT_5K_VOLUME()":"0d538b87","PIONEER_BADGE_BONUS()":"a262876d","REFERRAL_SIGNUP_BONUS()":"34402744","REFERRAL_TRANSACTION_BONUS()":"ffbc7c83","TEN_MERCHANTS_VISITED()":"462e61b0","THREE_MERCHANTS_VISITED()":"476014dd","TOTAL_PROMOTIONAL_ALLOCATION()":"32ef958c","VAULT_CREATED()":"04ae1fb5","awardPioneerBadge(address)":"69067a45","claimEducationReward(string)":"8a07cc74","claimMerchantMilestone(uint256)":"683c60d7","claimReferralTransactionBonus(address)":"d3104122","claimUserMilestone(string)":"e32a1670","claimedTenMerchants(address)":"45a13714","claimedThreeMerchants(address)":"12f6f7ee","completedPaymentTutorial(address)":"a9d65051","completedProfile(address)":"e8c62a15","completedProofScoreTutorial(address)":"a85399b2","createdVault(address)":"2fca4a76","educationBudgetRemaining()":"458394ce","educationRewardsClaimed(address)":"915bd11f","gaveFirstEndorsement(address)":"e45fc956","getRemainingBudgets()":"6d925f16","getRoleAdmin(bytes32)":"248a9ca3","getUserStats(address)":"4e43603a","grantRole(bytes32,address)":"2f2ff15d","hasRole(bytes32,address)":"91d14854","hasUsedReferralCode(address)":"ca25b6fe","isPioneer(address)":"197d63a1","isPromotionActive()":"81dec47c","madeFirstMerchantPayment(address)":"185840fe","madeFirstTransaction(address)":"3fcfe45a","merchantBudgetRemaining()":"0db16b62","merchantMilestoneClaimed(address)":"68fece8c","merchantRewardsClaimed(address)":"827f2ccc","merchantVolumeProcessed(address)":"478c0250","pioneerBudgetRemaining()":"68b3c7d2","pioneerNumber(address)":"f404f791","receivedFirstEndorsement(address)":"32b02d44","recordMerchantVisit(address,address)":"ac1ba4fd","referralBudgetRemaining()":"1c86779a","referralCount(address)":"db74559b","referralRewardsClaimed(address)":"1176d7ed","referralTxBonusClaimed(address)":"758d8677","referredBy(address)":"a90f8e9a","registerReferral(address,address)":"5603b9f9","renounceRole(bytes32,address)":"36568abe","replenishBudget(string,uint256)":"0b9a8859","revokeRole(bytes32,address)":"d547741f","totalDistributed()":"efca2eed","totalPioneers()":"36620250","uniqueMerchantsVisited(address)":"c5016f5c","userMilestoneBudgetRemaining()":"bcb5bae1","userMilestoneRewardsClaimed(address)":"ecfb88ca","vfideToken()":"b8a71eec"},"id":20}