{"abi":[{"type":"constructor","inputs":[{"name":"_vfideToken","type":"address","internalType":"address"},{"name":"_admin","type":"address","internalType":"address"}],"stateMutability":"nonpayable"},{"type":"function","name":"ADMIN_ROLE","inputs":[],"outputs":[{"name":"","type":"bytes32","internalType":"bytes32"}],"stateMutability":"view"},{"type":"function","name":"DEFAULT_ADMIN_ROLE","inputs":[],"outputs":[{"name":"","type":"bytes32","internalType":"bytes32"}],"stateMutability":"view"},{"type":"function","name":"EDUCATION_COMPLETE_PROFILE","inputs":[],"outputs":[{"name":"","type":"uint256","internalType":"uint256"}],"stateMutability":"view"},{"type":"function","name":"EDUCATION_PAYMENT_TUTORIAL","inputs":[],"outputs":[{"name":"","type":"uint256","internalType":"uint256"}],"stateMutability":"view"},{"type":"function","name":"EDUCATION_PROOF_SCORE_TUTORIAL","inputs":[],"outputs":[{"name":"","type":"uint256","internalType":"uint256"}],"stateMutability":"view"},{"type":"function","name":"FIRST_ENDORSEMENT_GIVEN","inputs":[],"outputs":[{"name":"","type":"uint256","internalType":"uint256"}],"stateMutability":"view"},{"type":"function","name":"FIRST_ENDORSEMENT_RECEIVED","inputs":[],"outputs":[{"name":"","type":"uint256","internalType":"uint256"}],"stateMutability":"view"},{"type":"function","name":"FIRST_MERCHANT_PAYMENT","inputs":[],"outputs":[{"name":"","type":"uint256","internalType":"uint256"}],"stateMutability":"view"},{"type":"function","name":"FIRST_TRANSACTION_BONUS","inputs":[],"outputs":[{"name":"","type":"uint256","internalType":"uint256"}],"stateMutability":"view"},{"type":"function","name":"MAX_EDUCATION_PER_USER","inputs":[],"outputs":[{"name":"","type":"uint256","internalType":"uint256"}],"stateMutability":"view"},{"type":"function","name":"MAX_MERCHANT_REWARDS","inputs":[],"outputs":[{"name":"","type":"uint256","internalType":"uint256"}],"stateMutability":"view"},{"type":"function","name":"MAX_PIONEERS","inputs":[],"outputs":[{"name":"","type":"uint256","internalType":"uint256"}],"stateMutability":"view"},{"type":"function","name":"MAX_REFERRALS_PER_USER","inputs":[],"outputs":[{"name":"","type":"uint256","internalType":"uint256"}],"stateMutability":"view"},{"type":"function","name":"MAX_REFERRAL_PER_USER","inputs":[],"outputs":[{"name":"","type":"uint256","internalType":"uint256"}],"stateMutability":"view"},{"type":"function","name":"MAX_USER_MILESTONE_PER_USER","inputs":[],"outputs":[{"name":"","type":"uint256","internalType":"uint256"}],"stateMutability":"view"},{"type":"function","name":"MERCHANT_10K_VOLUME","inputs":[],"outputs":[{"name":"","type":"uint256","internalType":"uint256"}],"stateMutability":"view"},{"type":"function","name":"MERCHANT_1K_VOLUME","inputs":[],"outputs":[{"name":"","type":"uint256","internalType":"uint256"}],"stateMutability":"view"},{"type":"function","name":"MERCHANT_5K_VOLUME","inputs":[],"outputs":[{"name":"","type":"uint256","internalType":"uint256"}],"stateMutability":"view"},{"type":"function","name":"PIONEER_BADGE_BONUS","inputs":[],"outputs":[{"name":"","type":"uint256","internalType":"uint256"}],"stateMutability":"view"},{"type":"function","name":"REFERRAL_SIGNUP_BONUS","inputs":[],"outputs":[{"name":"","type":"uint256","internalType":"uint256"}],"stateMutability":"view"},{"type":"function","name":"REFERRAL_TRANSACTION_BONUS","inputs":[],"outputs":[{"name":"","type":"uint256","internalType":"uint256"}],"stateMutability":"view"},{"type":"function","name":"TEN_MERCHANTS_VISITED","inputs":[],"outputs":[{"name":"","type":"uint256","internalType":"uint256"}],"stateMutability":"view"},{"type":"function","name":"THREE_MERCHANTS_VISITED","inputs":[],"outputs":[{"name":"","type":"uint256","internalType":"uint256"}],"stateMutability":"view"},{"type":"function","name":"TOTAL_PROMOTIONAL_ALLOCATION","inputs":[],"outputs":[{"name":"","type":"uint256","internalType":"uint256"}],"stateMutability":"view"},{"type":"function","name":"VAULT_CREATED","inputs":[],"outputs":[{"name":"","type":"uint256","internalType":"uint256"}],"stateMutability":"view"},{"type":"function","name":"awardPioneerBadge","inputs":[{"name":"user","type":"address","internalType":"address"}],"outputs":[],"stateMutability":"nonpayable"},{"type":"function","name":"claimEducationReward","inputs":[{"name":"milestone","type":"string","internalType":"string"}],"outputs":[],"stateMutability":"nonpayable"},{"type":"function","name":"claimMerchantMilestone","inputs":[{"name":"volumeProcessed","type":"uint256","internalType":"uint256"}],"outputs":[],"stateMutability":"nonpayable"},{"type":"function","name":"claimReferralTransactionBonus","inputs":[{"name":"referee","type":"address","internalType":"address"}],"outputs":[],"stateMutability":"nonpayable"},{"type":"function","name":"claimUserMilestone","inputs":[{"name":"milestone","type":"string","internalType":"string"}],"outputs":[],"stateMutability":"nonpayable"},{"type":"function","name":"claimedTenMerchants","inputs":[{"name":"","type":"address","internalType":"address"}],"outputs":[{"name":"","type":"bool","internalType":"bool"}],"stateMutability":"view"},{"type":"function","name":"claimedThreeMerchants","inputs":[{"name":"","type":"address","internalType":"address"}],"outputs":[{"name":"","type":"bool","internalType":"bool"}],"stateMutability":"view"},{"type":"function","name":"completedPaymentTutorial","inputs":[{"name":"","type":"address","internalType":"address"}],"outputs":[{"name":"","type":"bool","internalType":"bool"}],"stateMutability":"view"},{"type":"function","name":"completedProfile","inputs":[{"name":"","type":"address","internalType":"address"}],"outputs":[{"name":"","type":"bool","internalType":"bool"}],"stateMutability":"view"},{"type":"function","name":"completedProofScoreTutorial","inputs":[{"name":"","type":"address","internalType":"address"}],"outputs":[{"name":"","type":"bool","internalType":"bool"}],"stateMutability":"view"},{"type":"function","name":"createdVault","inputs":[{"name":"","type":"address","internalType":"address"}],"outputs":[{"name":"","type":"bool","internalType":"bool"}],"stateMutability":"view"},{"type":"function","name":"educationBudgetRemaining","inputs":[],"outputs":[{"name":"","type":"uint256","internalType":"uint256"}],"stateMutability":"view"},{"type":"function","name":"educationRewardsClaimed","inputs":[{"name":"","type":"address","internalType":"address"}],"outputs":[{"name":"","type":"uint256","internalType":"uint256"}],"stateMutability":"view"},{"type":"function","name":"gaveFirstEndorsement","inputs":[{"name":"","type":"address","internalType":"address"}],"outputs":[{"name":"","type":"bool","internalType":"bool"}],"stateMutability":"view"},{"type":"function","name":"getRemainingBudgets","inputs":[],"outputs":[{"name":"education","type":"uint256","internalType":"uint256"},{"name":"referral","type":"uint256","internalType":"uint256"},{"name":"userMilestone","type":"uint256","internalType":"uint256"},{"name":"merchant","type":"uint256","internalType":"uint256"},{"name":"pioneer","type":"uint256","internalType":"uint256"},{"name":"total","type":"uint256","internalType":"uint256"}],"stateMutability":"view"},{"type":"function","name":"getRoleAdmin","inputs":[{"name":"role","type":"bytes32","internalType":"bytes32"}],"outputs":[{"name":"","type":"bytes32","internalType":"bytes32"}],"stateMutability":"view"},{"type":"function","name":"getUserStats","inputs":[{"name":"user","type":"address","internalType":"address"}],"outputs":[{"name":"_isPioneer","type":"bool","internalType":"bool"},{"name":"_pioneerNumber","type":"uint256","internalType":"uint256"},{"name":"_educationClaimed","type":"uint256","internalType":"uint256"},{"name":"_referralClaimed","type":"uint256","internalType":"uint256"},{"name":"_milestoneClaimed","type":"uint256","internalType":"uint256"},{"name":"_referralsMade","type":"uint256","internalType":"uint256"},{"name":"_canReferMore","type":"bool","internalType":"bool"}],"stateMutability":"view"},{"type":"function","name":"grantRole","inputs":[{"name":"role","type":"bytes32","internalType":"bytes32"},{"name":"account","type":"address","internalType":"address"}],"outputs":[],"stateMutability":"nonpayable"},{"type":"function","name":"hasRole","inputs":[{"name":"role","type":"bytes32","internalType":"bytes32"},{"name":"account","type":"address","internalType":"address"}],"outputs":[{"name":"","type":"bool","internalType":"bool"}],"stateMutability":"view"},{"type":"function","name":"hasUsedReferralCode","inputs":[{"name":"","type":"address","internalType":"address"}],"outputs":[{"name":"","type":"bool","internalType":"bool"}],"stateMutability":"view"},{"type":"function","name":"isPioneer","inputs":[{"name":"","type":"address","internalType":"address"}],"outputs":[{"name":"","type":"bool","internalType":"bool"}],"stateMutability":"view"},{"type":"function","name":"isPromotionActive","inputs":[],"outputs":[{"name":"","type":"bool","internalType":"bool"}],"stateMutability":"view"},{"type":"function","name":"madeFirstMerchantPayment","inputs":[{"name":"","type":"address","internalType":"address"}],"outputs":[{"name":"","type":"bool","internalType":"bool"}],"stateMutability":"view"},{"type":"function","name":"madeFirstTransaction","inputs":[{"name":"","type":"address","internalType":"address"}],"outputs":[{"name":"","type":"bool","internalType":"bool"}],"stateMutability":"view"},{"type":"function","name":"merchantBudgetRemaining","inputs":[],"outputs":[{"name":"","type":"uint256","internalType":"uint256"}],"stateMutability":"view"},{"type":"function","name":"merchantMilestoneClaimed","inputs":[{"name":"","type":"address","internalType":"address"}],"outputs":[{"name":"","type":"bool","internalType":"bool"}],"stateMutability":"view"},{"type":"function","name":"merchantRewardsClaimed","inputs":[{"name":"","type":"address","internalType":"address"}],"outputs":[{"name":"","type":"uint256","internalType":"uint256"}],"stateMutability":"view"},{"type":"function","name":"merchantVolumeProcessed","inputs":[{"name":"","type":"address","internalType":"address"}],"outputs":[{"name":"","type":"uint256","internalType":"uint256"}],"stateMutability":"view"},{"type":"function","name":"pioneerBudgetRemaining","inputs":[],"outputs":[{"name":"","type":"uint256","internalType":"uint256"}],"stateMutability":"view"},{"type":"function","name":"pioneerNumber","inputs":[{"name":"","type":"address","internalType":"address"}],"outputs":[{"name":"","type":"uint256","internalType":"uint256"}],"stateMutability":"view"},{"type":"function","name":"receivedFirstEndorsement","inputs":[{"name":"","type":"address","internalType":"address"}],"outputs":[{"name":"","type":"bool","internalType":"bool"}],"stateMutability":"view"},{"type":"function","name":"recordMerchantVisit","inputs":[{"name":"user","type":"address","internalType":"address"},{"name":"merchant","type":"address","internalType":"address"}],"outputs":[],"stateMutability":"nonpayable"},{"type":"function","name":"referralBudgetRemaining","inputs":[],"outputs":[{"name":"","type":"uint256","internalType":"uint256"}],"stateMutability":"view"},{"type":"function","name":"referralCount","inputs":[{"name":"","type":"address","internalType":"address"}],"outputs":[{"name":"","type":"uint256","internalType":"uint256"}],"stateMutability":"view"},{"type":"function","name":"referralRewardsClaimed","inputs":[{"name":"","type":"address","internalType":"address"}],"outputs":[{"name":"","type":"uint256","internalType":"uint256"}],"stateMutability":"view"},{"type":"function","name":"referredBy","inputs":[{"name":"","type":"address","internalType":"address"}],"outputs":[{"name":"","type":"address","internalType":"address"}],"stateMutability":"view"},{"type":"function","name":"registerReferral","inputs":[{"name":"referee","type":"address","internalType":"address"},{"name":"referrer","type":"address","internalType":"address"}],"outputs":[],"stateMutability":"nonpayable"},{"type":"function","name":"renounceRole","inputs":[{"name":"role","type":"bytes32","internalType":"bytes32"},{"name":"account","type":"address","internalType":"address"}],"outputs":[],"stateMutability":"nonpayable"},{"type":"function","name":"replenishBudget","inputs":[{"name":"category","type":"string","internalType":"string"},{"name":"amount","type":"uint256","internalType":"uint256"}],"outputs":[],"stateMutability":"nonpayable"},{"type":"function","name":"revokeRole","inputs":[{"name":"role","type":"bytes32","internalType":"bytes32"},{"name":"account","type":"address","internalType":"address"}],"outputs":[],"stateMutability":"nonpayable"},{"type":"function","name":"totalDistributed","inputs":[],"outputs":[{"name":"","type":"uint256","internalType":"uint256"}],"stateMutability":"view"},{"type":"function","name":"totalPioneers","inputs":[],"outputs":[{"name":"","type":"uint256","internalType":"uint256"}],"stateMutability":"view"},{"type":"function","name":"uniqueMerchantsVisited","inputs":[{"name":"","type":"address","internalType":"address"}],"outputs":[{"name":"","type":"uint256","internalType":"uint256"}],"stateMutability":"view"},{"type":"function","name":"userMilestoneBudgetRemaining","inputs":[],"outputs":[{"name":"","type":"uint256","internalType":"uint256"}],"stateMutability":"view"},{"type":"function","name":"userMilestoneRewardsClaimed","inputs":[{"name":"","type":"address","internalType":"address"}],"outputs":[{"name":"","type":"uint256","internalType":"uint256"}],"stateMutability":"view"},{"type":"function","name":"vfideToken","inputs":[],"outputs":[{"name":"","type":"address","internalType":"contract VFIDEToken"}],"stateMutability":"view"},{"type":"event","name":"BudgetReplenished","inputs":[{"name":"category","type":"string","indexed":false,"internalType":"string"},{"name":"amount","type":"uint256","indexed":false,"internalType":"uint256"}],"anonymous":false},{"type":"event","name":"EducationRewardClaimed","inputs":[{"name":"user","type":"address","indexed":true,"internalType":"address"},{"name":"milestone","type":"string","indexed":false,"internalType":"string"},{"name":"amount","type":"uint256","indexed":false,"internalType":"uint256"}],"anonymous":false},{"type":"event","name":"MerchantMilestoneRewardClaimed","inputs":[{"name":"merchant","type":"address","indexed":true,"internalType":"address"},{"name":"volume","type":"uint256","indexed":false,"internalType":"uint256"},{"name":"amount","type":"uint256","indexed":false,"internalType":"uint256"}],"anonymous":false},{"type":"event","name":"PioneerBadgeAwarded","inputs":[{"name":"user","type":"address","indexed":true,"internalType":"address"},{"name":"pioneerNumber","type":"uint256","indexed":false,"internalType":"uint256"},{"name":"bonus","type":"uint256","indexed":false,"internalType":"uint256"}],"anonymous":false},{"type":"event","name":"PromotionalBudgetDepleted","inputs":[{"name":"category","type":"string","indexed":false,"internalType":"string"}],"anonymous":false},{"type":"event","name":"ReferralRewardClaimed","inputs":[{"name":"referrer","type":"address","indexed":true,"internalType":"address"},{"name":"referee","type":"address","indexed":true,"internalType":"address"},{"name":"amount","type":"uint256","indexed":false,"internalType":"uint256"}],"anonymous":false},{"type":"event","name":"RoleAdminChanged","inputs":[{"name":"role","type":"bytes32","indexed":true,"internalType":"bytes32"},{"name":"previousAdminRole","type":"bytes32","indexed":true,"internalType":"bytes32"},{"name":"newAdminRole","type":"bytes32","indexed":true,"internalType":"bytes32"}],"anonymous":false},{"type":"event","name":"RoleGranted","inputs":[{"name":"role","type":"bytes32","indexed":true,"internalType":"bytes32"},{"name":"account","type":"address","indexed":true,"internalType":"address"},{"name":"sender","type":"address","indexed":true,"internalType":"address"}],"anonymous":false},{"type":"event","name":"RoleRevoked","inputs":[{"name":"role","type":"bytes32","indexed":true,"internalType":"bytes32"},{"name":"account","type":"address","indexed":true,"internalType":"address"},{"name":"sender","type":"address","indexed":true,"internalType":"address"}],"anonymous":false},{"type":"event","name":"UserMilestoneRewardClaimed","inputs":[{"name":"user","type":"address","indexed":true,"internalType":"address"},{"name":"milestone","type":"string","indexed":false,"internalType":"string"},{"name":"amount","type":"uint256","indexed":false,"internalType":"uint256"}],"anonymous":false}],"bytecode":{"object":"0x60a03461027157601f61327f38819003918201601f19168301916001600160401b0383118484101761027557808492604094855283398101031261027157610052602061004b83610289565b9201610289565b600180556001600160a01b0390911690811561022c576001600160a01b03169081156101e757608052693f870857a3e0e38000006002556969e10de76676d08000006003556954b40b1f852bda000000600455697f0e10af47c1c7000000600555692a5a058fc295ed0000006006555f8181525f51602061325f5f395f51905f52602052604090205460ff16156101a9575b5f8181525f51602061323f5f395f51905f52602052604090205460ff1615610149575b604051612f81908161029e823960805181818161059a01528181610d23015281816110680152818161140d0152818161191801528181611c4d01526120350152f35b5f8181525f51602061323f5f395f51905f5260205260408120805460ff191660011790553391907fa49807205ce4d355092ef5a8a18f56e8913cf4a201fbe287825b095693c21775905f51602061321f5f395f51905f529080a45f610107565b5f8181525f51602061325f5f395f51905f5260205260408120805460ff19166001179055339082905f51602061321f5f395f51905f528180a46100e4565b60405162461bcd60e51b815260206004820152601560248201527f496e76616c69642061646d696e206164647265737300000000000000000000006044820152606490fd5b60405162461bcd60e51b815260206004820152601560248201527f496e76616c696420746f6b656e206164647265737300000000000000000000006044820152606490fd5b5f80fd5b634e487b7160e01b5f52604160045260245ffd5b51906001600160a01b03821682036102715756fe60806040526004361015610011575f80fd5b5f3560e01c806304ae1fb514612af65780630b9a8859146128fa5780630d538b87146128d75780630db16b62146128ba5780631176d7ed1461288257806312f6f7ee14612845578063185840fe14612808578063197d63a1146127cb5780631c86779a146127ae5780632327597e1461278b578063248a9ca314612759578063277402b514610ba05780632f2ff15d146126825780632fca4a7614612645578063311528081461262a57806332b02d44146125ed57806332ef958c146125c9578063344027441461032657806336568abe1461254f57806336620250146125325780633fcfe45a146124f5578063458394ce146124d857806345a137141461249b578063462e61b014612478578063476014dd146117e2578063478c0250146124405780634dae7b3214610ba05780634e43603a146123a85780635603b9f914611ed157806358fc460114611eae578063683c60d714611b2957806368b3c7d214611b0c57806368fece8c14611acf57806369067a45146117e757806369782c3c14610bdd5780636b11328b146117e25780636d925f161461177c57806375647e021461175957806375b238fc1461171f5780637850aa27146116fc57806381dec47c146116d3578063827f2ccc1461169b578063849733c6146103265780638a07cc74146112ab578063915bd11f1461127357806391d148541461122b578063a217fddf14611211578063a262876d146111ee578063a85399b2146111b1578063a90f8e9a14611171578063a9d6505114611134578063ac1ba4fd146110b3578063aea3b21714611097578063b8a71eec14611053578063bcb5bae114611036578063c5016f5c14610ffe578063ca25b6fe14610fc1578063d310412214610c41578063d547741f14610be2578063d6abc27914610bdd578063db74559b14610ba5578063dbedbc6414610ba0578063e27e59fc14610b7d578063e32a167014610436578063e45fc956146103f9578063e8c62a15146103bc578063ecfb88ca14610384578063eebf2d1d14610326578063efca2eed14610367578063f404f7911461032b5763ffbc7c8314610326575f80fd5b612bff565b34610363576020366003190112610363576001600160a01b0361034c612bb1565b165f526010602052602060405f2054604051908152f35b5f80fd5b34610363575f366003190112610363576020600754604051908152f35b34610363576020366003190112610363576001600160a01b036103a5612bb1565b165f52600a602052602060405f2054604051908152f35b34610363576020366003190112610363576001600160a01b036103dd612bb1565b165f526014602052602060ff60405f2054166040519015158152f35b34610363576020366003190112610363576001600160a01b0361041a612bb1565b165f526019602052602060ff60405f2054166040519015158152f35b346103635760203660031901126103635760043567ffffffffffffffff811161036357610467903690600401612b6b565b61046f612ec9565b335f52600a60205268097c9ce4cf6d5c000060405f20541015610b405780519060208101918220916040926011602085516104aa8782612b19565b82815201703334b939ba2fba3930b739b0b1ba34b7b760791b815220145f146107865750335f5260176020526104e660ff835f20541615612e0b565b335f526017602052815f20600160ff1982541617905568015af1d78b58c40000905b816004541061074257335f52600a602052825f20610527838254612db0565b9055610531612d0d565b5061053d821515612c83565b60075466d3c21bcecceda160191b6105558483612db0565b11610706578261056491612db0565b6007555f808451602081019063a9059cbb60e01b825233602482015285604482015260448152610595606482612b19565b5190827f00000000000000000000000000000000000000000000000000000000000000006001600160a01b03165af13d156106ff573d6105d481612b4f565b906105e186519283612b19565b81523d5f602083013e5b816106c7575b5015610683577fcac730ce09b428ff423f84a360bcb2d523288d59c3c2469647c27934302fd51c61063961062784600454612dfe565b93846004558551918291339583612dbd565b0390a215610648575b60018055005b6060816d757365725f6d696c6573746f6e6560901b5f516020612f2c5f395f51905f5293519160208352600e6020840152820152a180610642565b825162461bcd60e51b815260206004820152601a60248201527f5361666545524332303a207472616e73666572206661696c65640000000000006044820152606490fd5b80518015925082156106dc575b5050846105f1565b8192509060209181010312610363576020015180151581036103635784806106d4565b60606105eb565b835162461bcd60e51b8152602060048201526015602482015274151bdd185b08189d5919d95d08195e18d959591959605a1b6044820152606490fd5b825162461bcd60e51b815260206004820152601e60248201527f55736572206d696c6573746f6e6520627564676574206465706c6574656400006044820152606490fd5b8151812060166020855161079a8782612b19565b8281520175199a5c9cdd17db595c98da185b9d17dc185e5b595b9d60521b815220145f146108015750335f5260186020526107db60ff835f20541615612e0b565b335f526018602052815f20600160ff1982541617905568015af1d78b58c4000090610508565b815181206017602085516108158782612b19565b828152017f66697273745f656e646f7273656d656e745f676976656e000000000000000000815220145f146108825750335f52601960205261085d60ff835f20541615612e0b565b335f526019602052815f20600160ff1982541617905567d02ab486cedc000090610508565b81518120601a602085516108968782612b19565b828152017f66697273745f656e646f7273656d656e745f7265636569766564000000000000815220145f146109035750335f52601a6020526108de60ff835f20541615612e0b565b335f52601a602052815f20600160ff1982541617905567d02ab486cedc000090610508565b81518120600d602085516109178782612b19565b828152016c1d985d5b1d17d8dc99585d1959609a1b815220145f146109755750335f52601b60205261094f60ff835f20541615612e0b565b335f52601b602052815f20600160ff198254161790556802b5e3af16b188000090610508565b81518120600f602085516109898782612b19565b828152016e74687265655f6d65726368616e747360881b815220145f14610a405750335f52601d6020526109c360ff835f20541615612e0b565b335f52601c6020526003825f2054106109fc57335f52601d602052815f20600160ff198254161790556802b5e3af16b188000090610508565b815162461bcd60e51b815260206004820152601760248201527f56697369742033206d65726368616e74732066697273740000000000000000006044820152606490fd5b81519020600d60208451610a548682612b19565b828152016c74656e5f6d65726368616e747360981b815220145f14610b0857335f52601e602052610a8b60ff835f20541615612e0b565b335f52601c602052600a825f205410610ac457335f52601e602052815f20600160ff1982541617905568056bc75e2d6310000090610508565b815162461bcd60e51b815260206004820152601860248201527f5669736974203130206d65726368616e747320666972737400000000000000006044820152606490fd5b505162461bcd60e51b8152602060048201526011602482015270496e76616c6964206d696c6573746f6e6560781b6044820152606490fd5b60405162461bcd60e51b8152602060048201526015602482015274135a5b195cdd1bdb994818d85c081c995858da1959605a1b6044820152606490fd5b34610363575f366003190112610363576020604051683635c9adc5dea000008152f35b612bdd565b34610363576020366003190112610363576001600160a01b03610bc6612bb1565b165f52600d602052602060405f2054604051908152f35b612c22565b3461036357604036600319011261036357610c3f600435610c01612bc7565b90610c17815f525f602052600160405f20015490565b5f90815260208181526040808320338452909152902054610c3a9060ff16612c44565b612e49565b005b3461036357602036600319011261036357610c5a612bb1565b610c62612ec9565b6001600160a01b039081165f818152600c602052604090205490911690338203610f8957815f526009602052683635c9adc5dea0000060405f20541015610f4d5768015af1d78b58c4000060035410610f0857610cbd612ce7565b5060075466d3c21bcecceda160191b610cd582612d84565b11610ecb57610ce390612d84565b6007555f80604051602081019063a9059cbb60e01b825285602482015268015af1d78b58c40000604482015260448152610d1e606482612b19565b5190827f00000000000000000000000000000000000000000000000000000000000000006001600160a01b03165af13d15610ec4573d610d5d81612b4f565b90610d6b6040519283612b19565b81523d5f602083013e5b81610e8c575b5015610e4757815f52600960205260405f2080549068015af1d78b58c400008201809211610e33575560035468015af1d78b58c3ffff19810192908311610e3357826003557ff1a5b75d05cae9d461d822c73e66e2ae88a31f7edec9922587b8f22689d6f20b602060405168015af1d78b58c400008152a315610dfe5760018055005b5f516020612f2c5f395f51905f5260606040516020815260086020820152671c9959995c9c985b60c21b6040820152a1610642565b634e487b7160e01b5f52601160045260245ffd5b60405162461bcd60e51b815260206004820152601a60248201527f5361666545524332303a207472616e73666572206661696c65640000000000006044820152606490fd5b8051801592508215610ea1575b505083610d7b565b819250906020918101031261036357602001518015158103610363578380610e99565b6060610d75565b60405162461bcd60e51b8152602060048201526015602482015274151bdd185b08189d5919d95d08195e18d959591959605a1b6044820152606490fd5b60405162461bcd60e51b815260206004820152601860248201527f526566657272616c20627564676574206465706c6574656400000000000000006044820152606490fd5b60405162461bcd60e51b8152602060048201526014602482015273149959995c9c985b0818d85c081c995858da195960621b6044820152606490fd5b60405162461bcd60e51b815260206004820152601060248201526f2737ba103a3432903932b332b93932b960811b6044820152606490fd5b34610363576020366003190112610363576001600160a01b03610fe2612bb1565b165f52600e602052602060ff60405f2054166040519015158152f35b34610363576020366003190112610363576001600160a01b0361101f612bb1565b165f52601c602052602060405f2054604051908152f35b34610363575f366003190112610363576020600454604051908152f35b34610363575f366003190112610363576040517f00000000000000000000000000000000000000000000000000000000000000006001600160a01b03168152602090f35b34610363575f3660031901126103635760206040516127108152f35b34610363576040366003190112610363576110cc612bb1565b6110d4612bc7565b50335f9081527f7d7ffb7a348e1c6a02869081a26547b49160dd3df72d1d75a570eb9b698292ec602052604090205461110f9060ff16612c44565b6001600160a01b03165f908152601c60205260409020805461113090612df0565b9055005b34610363576020366003190112610363576001600160a01b03611155612bb1565b165f526016602052602060ff60405f2054166040519015158152f35b34610363576020366003190112610363576001600160a01b03611192612bb1565b165f52600c602052602060018060a01b0360405f205416604051908152f35b34610363576020366003190112610363576001600160a01b036111d2612bb1565b165f526015602052602060ff60405f2054166040519015158152f35b34610363575f3660031901126103635760206040516801158e460913d000008152f35b34610363575f3660031901126103635760206040515f8152f35b3461036357604036600319011261036357611244612bc7565b6004355f525f60205260405f209060018060a01b03165f52602052602060ff60405f2054166040519015158152f35b34610363576020366003190112610363576001600160a01b03611294612bb1565b165f526008602052602060405f2054604051908152f35b346103635760203660031901126103635760043567ffffffffffffffff8111610363576112dc903690600401612b6b565b6112e4612ec9565b335f5260086020526801a055690d9db8000060405f2054101561165e57805190602081019182209160409260106020855161131f8782612b19565b828152016f636f6d706c6574655f70726f66696c6560801b815220145f146115735750335f52601460205261135a60ff835f20541615612e0b565b335f526014602052815f20600160ff19825416179055678ac7230489e80000905b816002541061152f57335f526008602052825f2061139a838254612db0565b90556113a4612cc0565b506113b0821515612c83565b60075466d3c21bcecceda160191b6113c88483612db0565b1161070657826113d791612db0565b6007555f808451602081019063a9059cbb60e01b825233602482015285604482015260448152611408606482612b19565b5190827f00000000000000000000000000000000000000000000000000000000000000006001600160a01b03165af13d15611528573d61144781612b4f565b9061145486519283612b19565b81523d5f602083013e5b816114f0575b5015610683577f2053a07ba0a17d6312cb2a44b404d84a1da024cecd29b09657e9c6a03cc9a6506114ac61149a84600254612dfe565b93846002558551918291339583612dbd565b0390a2156114ba5760018055005b6060816832b23ab1b0ba34b7b760b91b5f516020612f2c5f395f51905f529351916020835260096020840152820152a180610642565b8051801592508215611505575b505084611464565b8192509060209181010312610363576020015180151581036103635784806114fd565b606061145e565b825162461bcd60e51b815260206004820152601960248201527f456475636174696f6e20627564676574206465706c65746564000000000000006044820152606490fd5b815181206014602085516115878782612b19565b82815201731c1c9bdbd997dcd8dbdc9957dd1d5d1bdc9a585b60621b815220145f146115eb5750335f5260156020526115c660ff835f20541615612e0b565b335f526015602052815f20600160ff19825416179055678ac7230489e800009061137b565b815190206010602084516115ff8682612b19565b828152016f1c185e5b595b9d17dd1d5d1bdc9a585b60821b815220145f14610b0857335f52601660205261163960ff835f20541615612e0b565b335f526016602052815f20600160ff19825416179055678ac7230489e800009061137b565b60405162461bcd60e51b815260206004820152601560248201527411591d58d85d1a5bdb8818d85c081c995858da1959605a1b6044820152606490fd5b34610363576020366003190112610363576001600160a01b036116bc612bb1565b165f52600b602052602060405f2054604051908152f35b34610363575f36600319011261036357602066d3c21bcecceda160191b60075410604051908152f35b34610363575f36600319011261036357602060405168097c9ce4cf6d5c00008152f35b34610363575f3660031901126103635760206040517fa49807205ce4d355092ef5a8a18f56e8913cf4a201fbe287825b095693c217758152f35b34610363575f366003190112610363576020604051681b1ae4d6e2ef5000008152f35b34610363575f36600319011261036357600254600354906004546005546006549060075466d3c21bcecceda160191b039266d3c21bcecceda160191b8411610e335760c095604051958652602086015260408501526060840152608083015260a0820152f35b612af6565b3461036357602036600319011261036357611800612bb1565b335f9081527f7d7ffb7a348e1c6a02869081a26547b49160dd3df72d1d75a570eb9b698292ec602052604090205461183a9060ff16612c44565b6001600160a01b03165f818152600f602052604090205460ff16611a9657601154612710811015611a51576801158e460913d0000060065410611a0c5761188090612df0565b601155805f52600f60205260405f20600160ff19825416179055601154815f52601060205260405f20556118b2612d5f565b5060075466d3c21bcecceda160191b6118ca82612d9a565b11610ecb576118d890612d9a565b6007555f80604051602081019063a9059cbb60e01b82528460248201526801158e460913d00000604482015260448152611913606482612b19565b5190827f00000000000000000000000000000000000000000000000000000000000000006001600160a01b03165af13d15611a05573d61195281612b4f565b906119606040519283612b19565b81523d5f602083013e5b816119cd575b5015610e47576006546801158e460913cfffff198101908111610e33576006557f6a90316e67ed6573e66292169087b28c08bc381fa9e9d1aaa43a1bc2a37b0dda604060115481519081526801158e460913d000006020820152a2005b80518015925082156119e2575b505082611970565b8192509060209181010312610363576020015180151581036103635782806119da565b606061196a565b60405162461bcd60e51b815260206004820152601760248201527f50696f6e65657220627564676574206465706c657465640000000000000000006044820152606490fd5b60405162461bcd60e51b815260206004820152601860248201527f416c6c2070696f6e65657220736c6f74732066696c6c656400000000000000006044820152606490fd5b60405162461bcd60e51b815260206004820152601160248201527020b63932b0b23c9030903834b7b732b2b960791b6044820152606490fd5b34610363576020366003190112610363576001600160a01b03611af0612bb1565b165f526013602052602060ff60405f2054166040519015158152f35b34610363575f366003190112610363576020600654604051908152f35b3461036357602036600319011261036357600435611b45612ec9565b335f52600b602052685150ae84a8cdf0000060405f20541015611e7257335f52601360205260ff60405f205416611e2d57335f90815260126020908152604080832084905560139091529020805460ff1916600117905569021e19e0c9bab24000008110611db157681b1ae4d6e2ef500000905b8160055410611d6c57335f52600b60205260405f20611bd9838254612db0565b9055611be3612d39565b50611bef821515612c83565b60075466d3c21bcecceda160191b611c078483612db0565b11610ecb5782611c1691612db0565b6007555f80604051602081019063a9059cbb60e01b825233602482015285604482015260448152611c48606482612b19565b5190827f00000000000000000000000000000000000000000000000000000000000000006001600160a01b03165af13d15611d65573d611c8781612b4f565b90611c956040519283612b19565b81523d5f602083013e5b81611d2d575b5015610e4757611cb782600554612dfe565b918260055560405191825260208201527ff19d369a43c96ee685266d4178ebb8ca58b649f803489008b0cd115ad34deb9b60403392a215611cf85760018055005b5f516020612f2c5f395f51905f5260606040516020815260086020820152671b595c98da185b9d60c21b6040820152a1610642565b8051801592508215611d42575b505083611ca5565b819250906020918101031261036357602001518015158103610363578380611d3a565b6060611c9f565b60405162461bcd60e51b815260206004820152601860248201527f4d65726368616e7420627564676574206465706c6574656400000000000000006044820152606490fd5b69010f0cf064dd592000008110611dd257680ad78ebc5ac620000090611bb9565b683635c9adc5dea000008110611df2576802b5e3af16b188000090611bb9565b60405162461bcd60e51b8152602060048201526013602482015272496e73756666696369656e7420766f6c756d6560681b6044820152606490fd5b60405162461bcd60e51b815260206004820152601960248201527f4d696c6573746f6e6520616c726561647920636c61696d6564000000000000006044820152606490fd5b60405162461bcd60e51b815260206004820152601460248201527313595c98da185b9d0818d85c081c995858da195960621b6044820152606490fd5b34610363575f3660031901126103635760206040516801a055690d9db800008152f35b3461036357604036600319011261036357611eea612bb1565b611ef2612bc7565b335f9081527f7d7ffb7a348e1c6a02869081a26547b49160dd3df72d1d75a570eb9b698292ec6020526040902054909190611f2f9060ff16612c44565b6001600160a01b03169081151580612396575b1561235d576001600160a01b031681811461232057815f52600e60205260ff60405f2054166122db57805f52600d602052601460405f2054101561229f575f818152600c60205260409020546001600160a01b0316821461225a575f828152600c6020908152604080832080546001600160a01b03191685179055600e8252808320805460ff19166001179055838352600d90915290208054611fe490612df0565b90556802b5e3af16b18800006003541015611ffb57005b612003612ce7565b5060075466d3c21bcecceda160191b61201b82612d84565b11610ecb5761202990612d84565b60075560018060a01b037f0000000000000000000000000000000000000000000000000000000000000000165f80604051602081019063a9059cbb60e01b825285602482015268015af1d78b58c4000060448201526044815261208d606482612b19565b519082855af13d15612253573d6120a381612b4f565b906120b16040519283612b19565b81523d5f602083013e5b8161221b575b5015610e47576120cf612ce7565b5060075466d3c21bcecceda160191b6120e782612d84565b11610ecb575f916120f88392612d84565b60075560405182602082019163a9059cbb60e01b835287602482015268015af1d78b58c40000604482015260448152612132606482612b19565b51925af13d15612214573d61214681612b4f565b906121546040519283612b19565b81523d5f602083013e5b816121dc575b5015610e4757805f52600960205260405f2080549068015af1d78b58c400008201809211610e3357556003546802b5e3af16b187ffff198101908111610e33576003557ff1a5b75d05cae9d461d822c73e66e2ae88a31f7edec9922587b8f22689d6f20b602060405168015af1d78b58c400008152a3005b80518015925082156121f1575b505083612164565b8192509060209181010312610363576020015180151581036103635783806121e9565b606061215e565b8051801592508215612230575b5050846120c1565b819250906020918101031261036357602001518015158103610363578480612228565b60606120bb565b60405162461bcd60e51b815260206004820152601a60248201527f43697263756c617220726566657272616c2064657465637465640000000000006044820152606490fd5b60405162461bcd60e51b8152602060048201526014602482015273149959995c9c995c8818d85c081c995858da195960621b6044820152606490fd5b60405162461bcd60e51b815260206004820152601a60248201527f416c7265616479207573656420726566657272616c20636f64650000000000006044820152606490fd5b60405162461bcd60e51b815260206004820152601560248201527421b0b73737ba103932b332b9103cb7bab939b2b63360591b6044820152606490fd5b60405162461bcd60e51b8152602060048201526011602482015270496e76616c69642061646472657373657360781b6044820152606490fd5b506001600160a01b0381161515611f42565b346103635760203660031901126103635760e06001600160a01b036123cb612bb1565b165f908152600f6020908152604080832054601083528184205460088452828520546009855283862054600a865284872054600d87529685902054855160ff9095161515855295840192909252928201929092526060810191909152608081019290925260a0820181905260141160c0820152f35b34610363576020366003190112610363576001600160a01b03612461612bb1565b165f526012602052602060405f2054604051908152f35b34610363575f36600319011261036357602060405168056bc75e2d631000008152f35b34610363576020366003190112610363576001600160a01b036124bc612bb1565b165f52601e602052602060ff60405f2054166040519015158152f35b34610363575f366003190112610363576020600254604051908152f35b34610363576020366003190112610363576001600160a01b03612516612bb1565b165f526017602052602060ff60405f2054166040519015158152f35b34610363575f366003190112610363576020601154604051908152f35b3461036357604036600319011261036357612568612bc7565b336001600160a01b0382160361258457610c3f90600435612e49565b60405162461bcd60e51b815260206004820152601e60248201527f41433a2063616e206f6e6c792072656e6f756e636520666f722073656c6600006044820152606490fd5b34610363575f36600319011261036357602060405166d3c21bcecceda160191b8152f35b34610363576020366003190112610363576001600160a01b0361260e612bb1565b165f52601a602052602060ff60405f2054166040519015158152f35b34610363575f36600319011261036357602060405160148152f35b34610363576020366003190112610363576001600160a01b03612666612bb1565b165f52601b602052602060ff60405f2054166040519015158152f35b346103635760403660031901126103635760043561269e612bc7565b906126b4815f525f602052600160405f20015490565b5f908152602081815260408083203384529091529020546126d79060ff16612c44565b5f818152602081815260408083206001600160a01b038616845290915290205460ff161561270157005b5f818152602081815260408083206001600160a01b0395909516808452949091528120805460ff19166001179055339291907f2f8788117e7eff1d82e926ec794901d17c78024a50270940304540a733656f0d9080a4005b346103635760203660031901126103635760206127836004355f525f602052600160405f20015490565b604051908152f35b34610363575f366003190112610363576020604051685150ae84a8cdf000008152f35b34610363575f366003190112610363576020600354604051908152f35b34610363576020366003190112610363576001600160a01b036127ec612bb1565b165f52600f602052602060ff60405f2054166040519015158152f35b34610363576020366003190112610363576001600160a01b03612829612bb1565b165f526018602052602060ff60405f2054166040519015158152f35b34610363576020366003190112610363576001600160a01b03612866612bb1565b165f52601d602052602060ff60405f2054166040519015158152f35b34610363576020366003190112610363576001600160a01b036128a3612bb1565b165f526009602052602060405f2054604051908152f35b34610363575f366003190112610363576020600554604051908152f35b34610363575f366003190112610363576020604051680ad78ebc5ac62000008152f35b346103635760403660031901126103635760043567ffffffffffffffff81116103635761292b903690600401612b6b565b335f9081527fad3228b676f7d3cd4284a5443f17f1962b36e491b30a40b2405849e597ba5fb56020526040902054602435906129699060ff16612c44565b612974811515612c83565b815160208301908120612985612cc0565b60208151910120145f146129c757505f516020612f0c5f395f51905f52916129af82600254612db0565b6002555b6129c260405192839283612dbd565b0390a1005b825181206129d3612ce7565b60208151910120145f14612a0557505f516020612f0c5f395f51905f52916129fd82600354612db0565b6003556129b3565b82518120612a11612d0d565b60208151910120145f14612a4357505f516020612f0c5f395f51905f5291612a3b82600454612db0565b6004556129b3565b82518120612a4f612d39565b60208151910120145f14612a8157505f516020612f0c5f395f51905f5291612a7982600554612db0565b6005556129b3565b82519020612a8d612d5f565b60208151910120145f14612abe575f516020612f0c5f395f51905f5291612ab682600654612db0565b6006556129b3565b60405162461bcd60e51b815260206004820152601060248201526f496e76616c69642063617465676f727960801b6044820152606490fd5b34610363575f3660031901126103635760206040516802b5e3af16b18800008152f35b90601f8019910116810190811067ffffffffffffffff821117612b3b57604052565b634e487b7160e01b5f52604160045260245ffd5b67ffffffffffffffff8111612b3b57601f01601f191660200190565b81601f8201121561036357803590612b8282612b4f565b92612b906040519485612b19565b8284526020838301011161036357815f926020809301838601378301015290565b600435906001600160a01b038216820361036357565b602435906001600160a01b038216820361036357565b34610363575f366003190112610363576020604051678ac7230489e800008152f35b34610363575f36600319011261036357602060405168015af1d78b58c400008152f35b34610363575f36600319011261036357602060405167d02ab486cedc00008152f35b15612c4b57565b60405162461bcd60e51b815260206004820152601060248201526f41433a206d697373696e6720726f6c6560801b6044820152606490fd5b15612c8a57565b60405162461bcd60e51b815260206004820152600e60248201526d125b9d985b1a5908185b5bdd5b9d60921b6044820152606490fd5b60405190612ccf604083612b19565b600982526832b23ab1b0ba34b7b760b91b6020830152565b60405190612cf6604083612b19565b60088252671c9959995c9c985b60c21b6020830152565b60405190612d1c604083612b19565b600e82526d757365725f6d696c6573746f6e6560901b6020830152565b60405190612d48604083612b19565b60088252671b595c98da185b9d60c21b6020830152565b60405190612d6e604083612b19565b60078252663834b7b732b2b960c91b6020830152565b9068015af1d78b58c400008201809211610e3357565b906801158e460913d000008201809211610e3357565b91908201809211610e3357565b9291906060602080926040875280519182918260408a0152018388015e5f828288010152601f8019910116850101930152565b5f198114610e335760010190565b91908203918211610e3357565b15612e1257565b60405162461bcd60e51b815260206004820152600f60248201526e105b1c9958591e4818db185a5b5959608a1b6044820152606490fd5b5f818152602081815260408083206001600160a01b038616845290915290205460ff16612e74575050565b5f818152602081815260408083206001600160a01b0395909516808452949091528120805460ff19169055339291907ff6391f5c32d9c69d2a47ea670b442974b53935d1edc7fd64eb21e047a839171b9080a4565b6001805403612ed9576002600155565b60405162461bcd60e51b815260206004820152600a6024820152697265656e7472616e637960b01b6044820152606490fdfe2c4ba78d47c7f54e2b79ce76bf215dcbe7fa0c49a3892f541b8a0fcf53e239ee29f3845725550c3cfcc495e7acee01a4295a68cabe562338900638c414c07ce1a26469706673582212207534df2e92eb101df6a136970d0542ee4e271fe825ce2758d3f79222128d498164736f6c634300081e00332f8788117e7eff1d82e926ec794901d17c78024a50270940304540a733656f0d7d7ffb7a348e1c6a02869081a26547b49160dd3df72d1d75a570eb9b698292ecad3228b676f7d3cd4284a5443f17f1962b36e491b30a40b2405849e597ba5fb5","linkReferences":{}},"methodIdentifiers":{"ADMIN_ROLE()":"75b238fc","DEFAULT_ADMIN_ROLE()":"a217fddf","EDUCATION_COMPLETE_PROFILE()":"277402b5","EDUCATION_PAYMENT_TUTORIAL()":"4dae7b32","EDUCATION_PROOF_SCORE_TUTORIAL()":"dbedbc64","FIRST_ENDORSEMENT_GIVEN()":"69782c3c","FIRST_ENDORSEMENT_RECEIVED()":"d6abc279","FIRST_MERCHANT_PAYMENT()":"eebf2d1d","FIRST_TRANSACTION_BONUS()":"849733c6","MAX_EDUCATION_PER_USER()":"58fc4601","MAX_MERCHANT_REWARDS()":"2327597e","MAX_PIONEERS()":"aea3b217","MAX_REFERRALS_PER_USER()":"31152808","MAX_REFERRAL_PER_USER()":"e27e59fc","MAX_USER_MILESTONE_PER_USER()":"7850aa27","MERCHANT_10K_VOLUME()":"75647e02","MERCHANT_1K_VOLUME()":"6b11328b","MERCHANT_5K_VOLUME()":"0d538b87","PIONEER_BADGE_BONUS()":"a262876d","REFERRAL_SIGNUP_BONUS()":"34402744","REFERRAL_TRANSACTION_BONUS()":"ffbc7c83","TEN_MERCHANTS_VISITED()":"462e61b0","THREE_MERCHANTS_VISITED()":"476014dd","TOTAL_PROMOTIONAL_ALLOCATION()":"32ef958c","VAULT_CREATED()":"04ae1fb5","awardPioneerBadge(address)":"69067a45","claimEducationReward(string)":"8a07cc74","claimMerchantMilestone(uint256)":"683c60d7","claimReferralTransactionBonus(address)":"d3104122","claimUserMilestone(string)":"e32a1670","claimedTenMerchants(address)":"45a13714","claimedThreeMerchants(address)":"12f6f7ee","completedPaymentTutorial(address)":"a9d65051","completedProfile(address)":"e8c62a15","completedProofScoreTutorial(address)":"a85399b2","createdVault(address)":"2fca4a76","educationBudgetRemaining()":"458394ce","educationRewardsClaimed(address)":"915bd11f","gaveFirstEndorsement(address)":"e45fc956","getRemainingBudgets()":"6d925f16","getRoleAdmin(bytes32)":"248a9ca3","getUserStats(address)":"4e43603a","grantRole(bytes32,address)":"2f2ff15d","hasRole(bytes32,address)":"91d14854","hasUsedReferralCode(address)":"ca25b6fe","isPioneer(address)":"197d63a1","isPromotionActive()":"81dec47c","madeFirstMerchantPayment(address)":"185840fe","madeFirstTransaction(address)":"3fcfe45a","merchantBudgetRemaining()":"0db16b62","merchantMilestoneClaimed(address)":"68fece8c","merchantRewardsClaimed(address)":"827f2ccc","merchantVolumeProcessed(address)":"478c0250","pioneerBudgetRemaining()":"68b3c7d2","pioneerNumber(address)":"f404f791","receivedFirstEndorsement(address)":"32b02d44","recordMerchantVisit(address,address)":"ac1ba4fd","referralBudgetRemaining()":"1c86779a","referralCount(address)":"db74559b","referralRewardsClaimed(address)":"1176d7ed","referredBy(address)":"a90f8e9a","registerReferral(address,address)":"5603b9f9","renounceRole(bytes32,address)":"36568abe","replenishBudget(string,uint256)":"0b9a8859","revokeRole(bytes32,address)":"d547741f","totalDistributed()":"efca2eed","totalPioneers()":"36620250","uniqueMerchantsVisited(address)":"c5016f5c","userMilestoneBudgetRemaining()":"bcb5bae1","userMilestoneRewardsClaimed(address)":"ecfb88ca","vfideToken()":"b8a71eec"},"id":12}