{
  "_format": "hh-sol-artifact-1",
  "contractName": "DAO",
  "sourceName": "contracts/DAO.sol",
  "abi": [
    {
      "inputs": [
        {
          "internalType": "address",
          "name": "_admin",
          "type": "address"
        },
        {
          "internalType": "address",
          "name": "_timelock",
          "type": "address"
        },
        {
          "internalType": "address",
          "name": "_seer",
          "type": "address"
        },
        {
          "internalType": "address",
          "name": "_hub",
          "type": "address"
        },
        {
          "internalType": "address",
          "name": "_hooks",
          "type": "address"
        }
      ],
      "stateMutability": "nonpayable",
      "type": "constructor"
    },
    {
      "inputs": [],
      "name": "DAO_AlreadyVoted",
      "type": "error"
    },
    {
      "inputs": [],
      "name": "DAO_NotAdmin",
      "type": "error"
    },
    {
      "inputs": [],
      "name": "DAO_NotEligible",
      "type": "error"
    },
    {
      "inputs": [
        {
          "internalType": "string",
          "name": "reason",
          "type": "string"
        }
      ],
      "name": "DAO_ProposalFlagged",
      "type": "error"
    },
    {
      "inputs": [],
      "name": "DAO_UnknownProposal",
      "type": "error"
    },
    {
      "inputs": [],
      "name": "DAO_VoteEnded",
      "type": "error"
    },
    {
      "inputs": [],
      "name": "DAO_VoteNotStarted",
      "type": "error"
    },
    {
      "anonymous": false,
      "inputs": [
        {
          "indexed": false,
          "internalType": "address",
          "name": "admin",
          "type": "address"
        }
      ],
      "name": "AdminSet",
      "type": "event"
    },
    {
      "anonymous": false,
      "inputs": [
        {
          "indexed": true,
          "internalType": "address",
          "name": "user",
          "type": "address"
        },
        {
          "indexed": true,
          "internalType": "address",
          "name": "caller",
          "type": "address"
        },
        {
          "indexed": false,
          "internalType": "string",
          "name": "reason",
          "type": "string"
        }
      ],
      "name": "DisputeFlagged",
      "type": "event"
    },
    {
      "anonymous": false,
      "inputs": [
        {
          "indexed": false,
          "internalType": "uint256",
          "name": "id",
          "type": "uint256"
        }
      ],
      "name": "Executed",
      "type": "event"
    },
    {
      "anonymous": false,
      "inputs": [
        {
          "indexed": false,
          "internalType": "uint256",
          "name": "id",
          "type": "uint256"
        },
        {
          "indexed": false,
          "internalType": "bool",
          "name": "passed",
          "type": "bool"
        }
      ],
      "name": "Finalized",
      "type": "event"
    },
    {
      "anonymous": false,
      "inputs": [
        {
          "indexed": false,
          "internalType": "address",
          "name": "timelock",
          "type": "address"
        },
        {
          "indexed": false,
          "internalType": "address",
          "name": "seer",
          "type": "address"
        },
        {
          "indexed": false,
          "internalType": "address",
          "name": "hub",
          "type": "address"
        },
        {
          "indexed": false,
          "internalType": "address",
          "name": "hooks",
          "type": "address"
        },
        {
          "indexed": false,
          "internalType": "address",
          "name": "council",
          "type": "address"
        }
      ],
      "name": "ModulesSet",
      "type": "event"
    },
    {
      "anonymous": false,
      "inputs": [
        {
          "indexed": false,
          "internalType": "uint64",
          "name": "votingPeriod",
          "type": "uint64"
        },
        {
          "indexed": false,
          "internalType": "uint256",
          "name": "minVotesRequired",
          "type": "uint256"
        }
      ],
      "name": "ParamsSet",
      "type": "event"
    },
    {
      "anonymous": false,
      "inputs": [
        {
          "indexed": false,
          "internalType": "uint256",
          "name": "id",
          "type": "uint256"
        },
        {
          "indexed": false,
          "internalType": "address",
          "name": "proposer",
          "type": "address"
        },
        {
          "indexed": false,
          "internalType": "enum DAO.ProposalType",
          "name": "ptype",
          "type": "uint8"
        },
        {
          "indexed": false,
          "internalType": "address",
          "name": "target",
          "type": "address"
        },
        {
          "indexed": false,
          "internalType": "uint256",
          "name": "value",
          "type": "uint256"
        },
        {
          "indexed": false,
          "internalType": "bytes",
          "name": "data",
          "type": "bytes"
        },
        {
          "indexed": false,
          "internalType": "string",
          "name": "description",
          "type": "string"
        }
      ],
      "name": "ProposalCreated",
      "type": "event"
    },
    {
      "anonymous": false,
      "inputs": [
        {
          "indexed": true,
          "internalType": "uint256",
          "name": "id",
          "type": "uint256"
        },
        {
          "indexed": false,
          "internalType": "string",
          "name": "oldState",
          "type": "string"
        },
        {
          "indexed": false,
          "internalType": "string",
          "name": "newState",
          "type": "string"
        }
      ],
      "name": "ProposalStateChanged",
      "type": "event"
    },
    {
      "anonymous": false,
      "inputs": [
        {
          "indexed": false,
          "internalType": "uint256",
          "name": "id",
          "type": "uint256"
        },
        {
          "indexed": true,
          "internalType": "address",
          "name": "proposer",
          "type": "address"
        }
      ],
      "name": "ProposalWithdrawn",
      "type": "event"
    },
    {
      "anonymous": false,
      "inputs": [
        {
          "indexed": false,
          "internalType": "uint256",
          "name": "id",
          "type": "uint256"
        },
        {
          "indexed": false,
          "internalType": "bytes32",
          "name": "timelockId",
          "type": "bytes32"
        }
      ],
      "name": "Queued",
      "type": "event"
    },
    {
      "anonymous": false,
      "inputs": [
        {
          "indexed": true,
          "internalType": "address",
          "name": "delegator",
          "type": "address"
        },
        {
          "indexed": true,
          "internalType": "address",
          "name": "delegate",
          "type": "address"
        }
      ],
      "name": "VoteDelegated",
      "type": "event"
    },
    {
      "anonymous": false,
      "inputs": [
        {
          "indexed": false,
          "internalType": "uint256",
          "name": "id",
          "type": "uint256"
        },
        {
          "indexed": false,
          "internalType": "address",
          "name": "voter",
          "type": "address"
        },
        {
          "indexed": false,
          "internalType": "bool",
          "name": "support",
          "type": "bool"
        }
      ],
      "name": "Voted",
      "type": "event"
    },
    {
      "inputs": [],
      "name": "FATIGUE_PER_VOTE",
      "outputs": [
        {
          "internalType": "uint256",
          "name": "",
          "type": "uint256"
        }
      ],
      "stateMutability": "view",
      "type": "function"
    },
    {
      "inputs": [],
      "name": "FATIGUE_RECOVERY_RATE",
      "outputs": [
        {
          "internalType": "uint256",
          "name": "",
          "type": "uint256"
        }
      ],
      "stateMutability": "view",
      "type": "function"
    },
    {
      "inputs": [],
      "name": "admin",
      "outputs": [
        {
          "internalType": "address",
          "name": "",
          "type": "address"
        }
      ],
      "stateMutability": "view",
      "type": "function"
    },
    {
      "inputs": [
        {
          "internalType": "address",
          "name": "user",
          "type": "address"
        },
        {
          "internalType": "string",
          "name": "reason",
          "type": "string"
        }
      ],
      "name": "disputeFlag",
      "outputs": [],
      "stateMutability": "nonpayable",
      "type": "function"
    },
    {
      "inputs": [
        {
          "internalType": "uint256",
          "name": "id",
          "type": "uint256"
        }
      ],
      "name": "finalize",
      "outputs": [],
      "stateMutability": "nonpayable",
      "type": "function"
    },
    {
      "inputs": [],
      "name": "getActiveProposals",
      "outputs": [
        {
          "internalType": "uint256[]",
          "name": "ids",
          "type": "uint256[]"
        }
      ],
      "stateMutability": "view",
      "type": "function"
    },
    {
      "inputs": [
        {
          "internalType": "address",
          "name": "voter",
          "type": "address"
        }
      ],
      "name": "getFatigueInfo",
      "outputs": [
        {
          "internalType": "uint256",
          "name": "currentFatigue",
          "type": "uint256"
        },
        {
          "internalType": "uint256",
          "name": "lastVoteTime",
          "type": "uint256"
        },
        {
          "internalType": "uint256",
          "name": "recoveredSince",
          "type": "uint256"
        },
        {
          "internalType": "uint256",
          "name": "effectiveFatigue",
          "type": "uint256"
        }
      ],
      "stateMutability": "view",
      "type": "function"
    },
    {
      "inputs": [
        {
          "internalType": "uint256",
          "name": "id",
          "type": "uint256"
        }
      ],
      "name": "getProposalDetails",
      "outputs": [
        {
          "internalType": "address",
          "name": "proposer",
          "type": "address"
        },
        {
          "internalType": "enum DAO.ProposalType",
          "name": "ptype",
          "type": "uint8"
        },
        {
          "internalType": "address",
          "name": "target",
          "type": "address"
        },
        {
          "internalType": "uint256",
          "name": "value",
          "type": "uint256"
        },
        {
          "internalType": "string",
          "name": "description",
          "type": "string"
        },
        {
          "internalType": "uint64",
          "name": "startTime",
          "type": "uint64"
        },
        {
          "internalType": "uint64",
          "name": "endTime",
          "type": "uint64"
        },
        {
          "internalType": "uint256",
          "name": "forVotes",
          "type": "uint256"
        },
        {
          "internalType": "uint256",
          "name": "againstVotes",
          "type": "uint256"
        },
        {
          "internalType": "bool",
          "name": "executed",
          "type": "bool"
        },
        {
          "internalType": "bool",
          "name": "queued",
          "type": "bool"
        }
      ],
      "stateMutability": "view",
      "type": "function"
    },
    {
      "inputs": [
        {
          "internalType": "uint256",
          "name": "id",
          "type": "uint256"
        }
      ],
      "name": "getProposalStatus",
      "outputs": [
        {
          "internalType": "string",
          "name": "status",
          "type": "string"
        },
        {
          "internalType": "bool",
          "name": "quorumMet",
          "type": "bool"
        },
        {
          "internalType": "bool",
          "name": "passing",
          "type": "bool"
        },
        {
          "internalType": "uint256",
          "name": "timeRemaining",
          "type": "uint256"
        }
      ],
      "stateMutability": "view",
      "type": "function"
    },
    {
      "inputs": [
        {
          "internalType": "uint256[]",
          "name": "ids",
          "type": "uint256[]"
        }
      ],
      "name": "getProposalsBatch",
      "outputs": [
        {
          "internalType": "uint256[]",
          "name": "forVotesCounts",
          "type": "uint256[]"
        },
        {
          "internalType": "uint256[]",
          "name": "againstVotesCounts",
          "type": "uint256[]"
        },
        {
          "internalType": "bool[]",
          "name": "executedFlags",
          "type": "bool[]"
        },
        {
          "internalType": "bool[]",
          "name": "queuedFlags",
          "type": "bool[]"
        }
      ],
      "stateMutability": "view",
      "type": "function"
    },
    {
      "inputs": [
        {
          "internalType": "address",
          "name": "voter",
          "type": "address"
        }
      ],
      "name": "getVoterHistory",
      "outputs": [
        {
          "internalType": "uint256[]",
          "name": "proposalIds",
          "type": "uint256[]"
        }
      ],
      "stateMutability": "view",
      "type": "function"
    },
    {
      "inputs": [
        {
          "internalType": "address",
          "name": "voter",
          "type": "address"
        }
      ],
      "name": "getVoterStats",
      "outputs": [
        {
          "internalType": "uint256",
          "name": "votesTotal",
          "type": "uint256"
        },
        {
          "internalType": "uint256",
          "name": "forVotes",
          "type": "uint256"
        },
        {
          "internalType": "uint256",
          "name": "againstVotes",
          "type": "uint256"
        },
        {
          "internalType": "uint256",
          "name": "participationRate",
          "type": "uint256"
        }
      ],
      "stateMutability": "view",
      "type": "function"
    },
    {
      "inputs": [
        {
          "internalType": "address",
          "name": "voter",
          "type": "address"
        }
      ],
      "name": "getVotingPower",
      "outputs": [
        {
          "internalType": "uint256",
          "name": "rawScore",
          "type": "uint256"
        },
        {
          "internalType": "uint256",
          "name": "fatiguePercent",
          "type": "uint256"
        },
        {
          "internalType": "uint256",
          "name": "effectivePower",
          "type": "uint256"
        }
      ],
      "stateMutability": "view",
      "type": "function"
    },
    {
      "inputs": [],
      "name": "guardian",
      "outputs": [
        {
          "internalType": "contract ISeerGuardian_DAO",
          "name": "",
          "type": "address"
        }
      ],
      "stateMutability": "view",
      "type": "function"
    },
    {
      "inputs": [
        {
          "internalType": "uint256",
          "name": "id",
          "type": "uint256"
        },
        {
          "internalType": "address",
          "name": "voter",
          "type": "address"
        }
      ],
      "name": "hasVoted",
      "outputs": [
        {
          "internalType": "bool",
          "name": "",
          "type": "bool"
        }
      ],
      "stateMutability": "view",
      "type": "function"
    },
    {
      "inputs": [],
      "name": "hooks",
      "outputs": [
        {
          "internalType": "contract IGovernanceHooks",
          "name": "",
          "type": "address"
        }
      ],
      "stateMutability": "view",
      "type": "function"
    },
    {
      "inputs": [
        {
          "internalType": "address",
          "name": "user",
          "type": "address"
        }
      ],
      "name": "isEligible",
      "outputs": [
        {
          "internalType": "bool",
          "name": "",
          "type": "bool"
        }
      ],
      "stateMutability": "view",
      "type": "function"
    },
    {
      "inputs": [],
      "name": "ledger",
      "outputs": [
        {
          "internalType": "contract IProofLedger",
          "name": "",
          "type": "address"
        }
      ],
      "stateMutability": "view",
      "type": "function"
    },
    {
      "inputs": [
        {
          "internalType": "uint256",
          "name": "id",
          "type": "uint256"
        }
      ],
      "name": "markExecuted",
      "outputs": [],
      "stateMutability": "nonpayable",
      "type": "function"
    },
    {
      "inputs": [],
      "name": "minParticipation",
      "outputs": [
        {
          "internalType": "uint256",
          "name": "",
          "type": "uint256"
        }
      ],
      "stateMutability": "view",
      "type": "function"
    },
    {
      "inputs": [],
      "name": "minVotesRequired",
      "outputs": [
        {
          "internalType": "uint256",
          "name": "",
          "type": "uint256"
        }
      ],
      "stateMutability": "view",
      "type": "function"
    },
    {
      "inputs": [],
      "name": "proposalCount",
      "outputs": [
        {
          "internalType": "uint256",
          "name": "",
          "type": "uint256"
        }
      ],
      "stateMutability": "view",
      "type": "function"
    },
    {
      "inputs": [
        {
          "internalType": "uint256",
          "name": "",
          "type": "uint256"
        }
      ],
      "name": "proposals",
      "outputs": [
        {
          "internalType": "address",
          "name": "proposer",
          "type": "address"
        },
        {
          "internalType": "address",
          "name": "target",
          "type": "address"
        },
        {
          "internalType": "uint256",
          "name": "value",
          "type": "uint256"
        },
        {
          "internalType": "bytes",
          "name": "data",
          "type": "bytes"
        },
        {
          "internalType": "string",
          "name": "description",
          "type": "string"
        },
        {
          "internalType": "enum DAO.ProposalType",
          "name": "ptype",
          "type": "uint8"
        },
        {
          "internalType": "uint64",
          "name": "start",
          "type": "uint64"
        },
        {
          "internalType": "uint64",
          "name": "end",
          "type": "uint64"
        },
        {
          "internalType": "bool",
          "name": "executed",
          "type": "bool"
        },
        {
          "internalType": "bool",
          "name": "queued",
          "type": "bool"
        },
        {
          "internalType": "uint256",
          "name": "forVotes",
          "type": "uint256"
        },
        {
          "internalType": "uint256",
          "name": "againstVotes",
          "type": "uint256"
        },
        {
          "internalType": "uint256",
          "name": "voterCount",
          "type": "uint256"
        }
      ],
      "stateMutability": "view",
      "type": "function"
    },
    {
      "inputs": [
        {
          "internalType": "enum DAO.ProposalType",
          "name": "ptype",
          "type": "uint8"
        },
        {
          "internalType": "address",
          "name": "target",
          "type": "address"
        },
        {
          "internalType": "uint256",
          "name": "value",
          "type": "uint256"
        },
        {
          "internalType": "bytes",
          "name": "data",
          "type": "bytes"
        },
        {
          "internalType": "string",
          "name": "description",
          "type": "string"
        }
      ],
      "name": "propose",
      "outputs": [
        {
          "internalType": "uint256",
          "name": "id",
          "type": "uint256"
        }
      ],
      "stateMutability": "nonpayable",
      "type": "function"
    },
    {
      "inputs": [],
      "name": "seer",
      "outputs": [
        {
          "internalType": "contract ISeer",
          "name": "",
          "type": "address"
        }
      ],
      "stateMutability": "view",
      "type": "function"
    },
    {
      "inputs": [
        {
          "internalType": "address",
          "name": "_admin",
          "type": "address"
        }
      ],
      "name": "setAdmin",
      "outputs": [],
      "stateMutability": "nonpayable",
      "type": "function"
    },
    {
      "inputs": [
        {
          "internalType": "address",
          "name": "_guardian",
          "type": "address"
        }
      ],
      "name": "setGuardian",
      "outputs": [],
      "stateMutability": "nonpayable",
      "type": "function"
    },
    {
      "inputs": [
        {
          "internalType": "uint256",
          "name": "_minParticipation",
          "type": "uint256"
        }
      ],
      "name": "setMinParticipation",
      "outputs": [],
      "stateMutability": "nonpayable",
      "type": "function"
    },
    {
      "inputs": [
        {
          "internalType": "address",
          "name": "_timelock",
          "type": "address"
        },
        {
          "internalType": "address",
          "name": "_seer",
          "type": "address"
        },
        {
          "internalType": "address",
          "name": "_hub",
          "type": "address"
        },
        {
          "internalType": "address",
          "name": "_hooks",
          "type": "address"
        }
      ],
      "name": "setModules",
      "outputs": [],
      "stateMutability": "nonpayable",
      "type": "function"
    },
    {
      "inputs": [
        {
          "internalType": "uint64",
          "name": "_period",
          "type": "uint64"
        },
        {
          "internalType": "uint256",
          "name": "_minVotes",
          "type": "uint256"
        }
      ],
      "name": "setParams",
      "outputs": [],
      "stateMutability": "nonpayable",
      "type": "function"
    },
    {
      "inputs": [],
      "name": "timelock",
      "outputs": [
        {
          "internalType": "contract IDAOTimelock",
          "name": "",
          "type": "address"
        }
      ],
      "stateMutability": "view",
      "type": "function"
    },
    {
      "inputs": [],
      "name": "vaultHub",
      "outputs": [
        {
          "internalType": "contract IVaultHub",
          "name": "",
          "type": "address"
        }
      ],
      "stateMutability": "view",
      "type": "function"
    },
    {
      "inputs": [
        {
          "internalType": "uint256",
          "name": "id",
          "type": "uint256"
        },
        {
          "internalType": "bool",
          "name": "support",
          "type": "bool"
        }
      ],
      "name": "vote",
      "outputs": [],
      "stateMutability": "nonpayable",
      "type": "function"
    },
    {
      "inputs": [
        {
          "internalType": "address",
          "name": "",
          "type": "address"
        }
      ],
      "name": "voterInfo",
      "outputs": [
        {
          "internalType": "uint256",
          "name": "lastVoteTime",
          "type": "uint256"
        },
        {
          "internalType": "uint256",
          "name": "fatigue",
          "type": "uint256"
        }
      ],
      "stateMutability": "view",
      "type": "function"
    },
    {
      "inputs": [],
      "name": "votingDelay",
      "outputs": [
        {
          "internalType": "uint64",
          "name": "",
          "type": "uint64"
        }
      ],
      "stateMutability": "view",
      "type": "function"
    },
    {
      "inputs": [],
      "name": "votingPeriod",
      "outputs": [
        {
          "internalType": "uint64",
          "name": "",
          "type": "uint64"
        }
      ],
      "stateMutability": "view",
      "type": "function"
    },
    {
      "inputs": [
        {
          "internalType": "uint256",
          "name": "id",
          "type": "uint256"
        }
      ],
      "name": "withdrawProposal",
      "outputs": [],
      "stateMutability": "nonpayable",
      "type": "function"
    },
    {
      "inputs": [
        {
          "internalType": "bytes32",
          "name": "",
          "type": "bytes32"
        }
      ],
      "name": "withdrawnProposalHashes",
      "outputs": [
        {
          "internalType": "bool",
          "name": "",
          "type": "bool"
        }
      ],
      "stateMutability": "view",
      "type": "function"
    }
  ],
  "bytecode": "0x60803461021857601f612e1338819003918201601f19168301916001600160401b0383118484101761021d5780849260a0946040528339810103126102185761004781610233565b9061005460208201610233565b61006060408301610233565b92610079608061007260608601610233565b9401610233565b600160005560078054600160a01b600160e01b0319166107e960a71b179055600880546001600160401b031916620151801790556113886009556002600a556001600160a01b039091169182151580610206575b806101f4575b806101e2575b156101b757600180546001600160a01b031990811685179091556002805482166001600160a01b039384169081179091556003805483169784169788179055600480548316968416968717905560058054909216939092169283179055604080519182526020808301969096528101939093526060830152600060808301527f8fe72c3e0020beb3234e76ae6676fa576fbfcae600af1c4fea44784cf0db329c92917f3676b3b8ddb712ee065be8fd22e137c8832e03de83c7fbccd82d6a1813f7b4d39060a090a1604051908152a1604051612bcb90816102488239f35b606460405162461bcd60e51b81526020600482015260046024820152637a65726f60e01b6044820152fd5b506001600160a01b03841615156100d9565b506001600160a01b03851615156100d3565b506001600160a01b03811615156100cd565b600080fd5b634e487b7160e01b600052604160045260246000fd5b51906001600160a01b03821682036102185756fe608080604052600436101561001357600080fd5b600090813560e01c908163013cf08b146124245750806302a251a3146123fa57806305261aea14611f7b578063054fd2c214611f5d5780630eb0ff8a14611edd5780632d55ea3914611eb45780633932abb114611e8d5780633ac01d3f14611deb5780633b4d01a714611cfb578063401853b714611b80578063403fb4a814611b625780634385963214611b13578063452a932014611aea5780634777cc2814611abb57806349348c7b14611a9f5780635584c4f91461193657806356397c351461190d5780635643591d146117cc5780635bff3c23146116da57806361a51f44146116bc57806366e305fd1461168e578063699e6334146115c95780636dd6e80b146115a0578063704b6c021461152b5780638a0dac4a146114e65780638d24e68d146113a8578063b079fbff14611293578063bb4d443614611145578063be9f9e79146110bb578063c9d27afe14610bcc578063cd090f7e14610631578063cd7033c414610608578063cdf58d35146105c5578063d33219b41461059c578063da35c6641461057e578063e1f02ffa146102aa578063f6405119146101ee5763f851a440146101c357600080fd5b346101eb57806003193601126101eb576001546040516001600160a01b039091168152602090f35b80fd5b50346101eb5760203660031901126101eb5760043561020b612993565b808252600c602052600560408320019081549060ff8260901c168061029c575b156102715760ff60881b19909116600160881b179091556040519081527fbcf6a68a2f901be4a23a41b53acd7697893a7e34def4e28acba584da75283b6790602090a180f35b60405162461bcd60e51b815260206004820152600360248201526218985960ea1b6044820152606490fd5b5060ff8260881c161561022b565b50346101eb5760203660031901126101eb57600435808252600c6020526040822080546001600160a01b0316330361054a57600581015460ff8160881c16158061053c575b15610503576001600160401b038160081c16421080156104ea575b156104975761036d6103429161035f60ff9460018060a01b0360018201541660028201549060405196879560208701998a9116612687565b60408501526060840152608080840152600360a084019101612585565b03601f198101835282612608565b5190208252600d60205260408220600160ff19825416179055808252600c6020528160086040822082815582600182015582600282015582600382016103b3815461254b565b80610455575b5050600482016103c9815461254b565b80610413575b5050600582015582600682015582600782015501556040519081527f227963be52ff8a07c7da3b18de57749070333730ee5489bc9c414a467e5425cf60203392a280f35b601f81116001146104295750555b8238806103cf565b8183526020832061044591601f0160051c8101906001016128d2565b8082528160208120915555610421565b601f811160011461046b5750555b8238806103b9565b8183526020832061048791601f0160051c8101906001016128d2565b8082528160208120915555610463565b60405162461bcd60e51b815260206004820152602560248201527f44414f3a2063616e6e6f7420776974686472617720616674657220766f7465736044820152640818d85cdd60da1b6064820152608490fd5b50600682015415801561030a575060078201541561030a565b60405162461bcd60e51b8152602060048201526011602482015270105b1c9958591e481c1c9bd8d95cdcd959607a1b6044820152606490fd5b5060ff8160901c16156102ef565b60405162461bcd60e51b815260206004820152600c60248201526b2737ba10383937b837b9b2b960a11b6044820152606490fd5b50346101eb57806003193601126101eb576020600b54604051908152f35b50346101eb57806003193601126101eb576002546040516001600160a01b039091168152602090f35b50346101eb5760203660031901126101eb5760409081906001600160a01b036105ec6126aa565b168152600e602052206001815491015482519182526020820152f35b50346101eb57806003193601126101eb576005546040516001600160a01b039091168152602090f35b50346101eb5760a03660031901126101eb5760043590600482101591826109835761065a6126c5565b90604435916064356001600160401b038111610bc85761067e90369060040161270f565b906084356001600160401b038111610bc45761069e90369060040161270f565b9290936106aa336129b8565b15610bb5576001600160a01b0316958615801590610ba9575b15610b6e578315610b305760405160208101906106e08289612687565b8860408201528260608201526080808201526107048161035f60a082018789612844565b5190208852600d60205260ff604089205416610adc57610725600b546127c2565b600b819055808952600c6020526040892080546001600160a01b03191633178155600581019a919891610ac8578a5460ff191660ff8916178b556001810180546001600160a01b031916831790556002810183905560038101906001600160401b038511610ab4576107a18561079b845461254b565b846128e9565b8a91858c601f8211600114610a495790806004956107d39391610a3e575b508160011b916000199060031b1c19161790565b90555b01996001600160401b038611610a2a576107fa866107f48d5461254b565b8d6128e9565b89601f871160011461099257926108f4989795928795928c9d61085c887f334e10103f2c922a8712870b48eda402331a41dae7facb36cf4c24756fffb68d9e9f9b61090f9961091d9d9161098757508160011b916000199060031b1c19161790565b90555b61087d6001600160401b03600854166001600160401b034216612930565b610100600160481b0382549160081b1680610100600160481b03198316178084556108c76001600160401b0360481b916001600160401b038060075460a01c169160081c16612930565b60481b1691610100600160881b03191617179055604051998a998d8b523360208c015260408b0190612687565b6060890152608088015260e060a088015260e0870191612844565b9184830360c0860152612844565b0390a16007546001600160a01b03168061093d575b602082604051908152f35b8083913b1561098357819060446040518094819363e148e51360e01b83528760048401523360248401525af11561093257610979838092612608565b6109835781610932565b5080fd5b90508b0135386107bf565b9a601f198716818c5260208c20908c5b818110610a1257509261090f95926108f49b9a9895927f334e10103f2c922a8712870b48eda402331a41dae7facb36cf4c24756fffb68d9d9e9f8b61091d9c9a97106109f8575b5050600188811b01905561085f565b8a013560001960038b901b60f8161c1916905538806109e9565b8a8f0135835560209e8f019e600190930192016109a2565b634e487b7160e01b8a52604160045260248afd5b9050890135386107bf565b82815260208120909490915087601f1981165b808710610a96576004965010610a7c575b5050600186811b0190556107d6565b880135600019600389901b60f8161c191690553880610a6d565b8a830135845560209687019660019094019390920191899150610a5c565b634e487b7160e01b8b52604160045260248bfd5b634e487b7160e01b8a52602160045260248afd5b60405162461bcd60e51b815260206004820152602660248201527f44414f3a2070726f706f73616c207761732070726576696f75736c792077697460448201526534323930bbb760d11b6064820152608490fd5b60405162461bcd60e51b81526020600482015260166024820152752220a79d1032b6b83a3c903232b9b1b934b83a34b7b760511b6044820152606490fd5b60405162461bcd60e51b8152602060048201526013602482015272111053ce881a5b9d985b1a59081d185c99d95d606a1b6044820152606490fd5b509750869785156106c3565b630593eb8f60e51b8852600488fd5b8680fd5b8480fd5b50346101eb5760403660031901126101eb5760043590602435801515810361098357610bf6612950565b828252600c602052604082209260058401546001600160401b038160481c16801580156110a7575b611098576001600160401b038260081c1642106110895742101561107a57610c45336129b8565b1561106b57600985019060018060a01b0333166000528160205260ff6040600020541661105c5760ff8160881c1615908161104d575b50156110085733600090815260209190915260409020805460ff19166001179055600884018054610cab906127c2565b9055338352600f60205260408320805490600160401b821015610ff45760018201808255821015610fe05784526020808520909101829055336000908152600a8601918290526040902054610fca57600354604051630d47875d60e41b815233600482015290602090829060249082906001600160a01b03165afa908115610fbf579061ffff918691610f90575b50169060018060a01b033316600052602052806040600020555b338452600e6020526040842094855480610f2e575b506001860195865480610ee8575b60058101809111610ed45786975542905583600014610ebe576006610d9e910191825461277f565b90555b7ff2913dbe661ee2acc4a046d8fbcdc792373bda34c41c6086484b5345e5785e5f60405180610dd2853386846128b1565b0390a16003546001600160a01b0316803b15610ea0578380809260a460405180948193630eccbd3560e11b83523360048401526005602484015260606044840152600860648401526764616f5f766f746560c01b60848401525af1610ea5575b50506005546001600160a01b03169182610e4f575b836001815580f35b823b15610ea057610e7b92849283604051809681958294635b43b6eb60e11b84523390600485016128b1565b03925af1610e8b575b8080610e47565b81610e9591612608565b6101eb578038610e84565b505050fd5b81610eaf91612608565b610eba578238610e32565b5050fd5b6007610ecd910191825461277f565b9055610da1565b634e487b7160e01b87526011600452602487fd5b92605a841115610f2857605a5b6064039060648211610f1457606491610f0d916127af565b0492610d76565b634e487b7160e01b88526011600452602488fd5b83610ef5565b610f3c6201518091426127a2565b04600581029080820460051490151715610f7c57600187018054879290808210610f6a575050555b38610d68565b610f759293506127a2565b9055610f64565b634e487b7160e01b86526011600452602486fd5b610fb2915060203d602011610fb8575b610faa8183612608565b810190612897565b38610d39565b503d610fa0565b6040513d87823e3d90fd5b3360009081526020919091526040902054610d53565b634e487b7160e01b85526032600452602485fd5b634e487b7160e01b85526041600452602485fd5b60405162461bcd60e51b815260206004820152601f60248201527f44414f3a2070726f706f73616c20616c72656164792070726f636573736564006044820152606490fd5b60ff915060901c161538610c7b565b635cb81f2560e11b8552600485fd5b630593eb8f60e51b8452600484fd5b633d36b71560e11b8452600484fd5b63430ae12f60e11b8552600485fd5b634092c90360e01b8552600485fd5b506001600160401b038260081c1615610c1e565b50346101eb5760203660031901126101eb576001600160a01b036110dd6126aa565b168152600f60205260408120604051918260208354918281520192825260208220915b81811061112f5761112b8561111781870382612608565b6040519182916020835260208301906126db565b0390f35b8254845260209093019260019283019201611100565b50346101eb5760203660031901126101eb5761115f6126aa565b600354604051630d47875d60e41b81526001600160a01b039283166004820181905292909160209183916024918391165afa80156112885761ffff918491611269575b5016908252600e602052604082206001810154905480611214575b50605a81111561120f5750605a5b8060640392606484116111fb575060646111e7606094846127af565b049060405192835260208301526040820152f35b634e487b7160e01b81526011600452602490fd5b6111cb565b6112226201518091426127a2565b0460058102908082046005149015171561125557818110611247575050815b386111bd565b611250916127a2565b611241565b634e487b7160e01b84526011600452602484fd5b611282915060203d602011610fb857610faa8183612608565b386111a2565b6040513d85823e3d90fd5b50346101eb5760803660031901126101eb576112ad6126aa565b6112b56126c5565b6044356001600160a01b0381169291908390036113a4576064356001600160a01b03811690819003610bc8577f3676b3b8ddb712ee065be8fd22e137c8832e03de83c7fbccd82d6a1813f7b4d39360a09361130e612993565b600180861b03169283151580611394575b8061138b575b61132e90612865565b600280546000196001881b018019918216871790925560038054821693909216928317909155600480548216841790556005805490911684179055604080519485526020850191909152830152606082015260808101849052a180f35b50811515611325565b50600180861b038116151561131f565b8380fd5b50346101eb5760203660031901126101eb57600435906001600160401b0382116101eb57366023830112156101eb578160040135906001600160401b0382116101eb573660248360051b850101116101eb57611403826127e8565b9261140d836127e8565b93611417846127e8565b92611421856127e8565b92815b868110156114985760019060248160051b840101358452600c6020526005604085206006810154611455848961281a565b526007810154611465848d61281a565b520154611472828961281a565b60ff8260881c161515905260ff611489838961281a565b9160901c161515905201611424565b6114bc8461112b876114d88a6114ca8e6040519788976080895260808901906126db565b9087820360208901526126db565b90858203604087015261273c565b90838203606085015261273c565b50346101eb5760203660031901126101eb576115006126aa565b611508612993565b600780546001600160a01b0319166001600160a01b039290921691909117905580f35b50346101eb5760203660031901126101eb577f8fe72c3e0020beb3234e76ae6676fa576fbfcae600af1c4fea44784cf0db329c60206115686126aa565b611570612993565b6001600160a01b0316611584811515612865565b600180546001600160a01b03191682179055604051908152a180f35b50346101eb57806003193601126101eb576004546040516001600160a01b039091168152602090f35b50346101eb5760403660031901126101eb576115e36126aa565b6024356001600160401b03811161168a5761160290369060040161270f565b90331561165457604051602080825233946001600160a01b0316937f056e1bd5f7fc2c28c23041f7aacdb2bfc91c128c382f46c02c89b9cfbac04fc893839261164e9290840191612844565b0390a380f35b60405162461bcd60e51b815260206004820152600e60248201526d24b73b30b634b21031b0b63632b960911b6044820152606490fd5b8280fd5b50346101eb5760203660031901126101eb5760206116b26116ad6126aa565b6129b8565b6040519015158152f35b50346101eb57806003193601126101eb576020604051620151808152f35b50346101eb5760203660031901126101eb576116f46126aa565b819060018060a01b03168252600f602052604082206040518082602082945493848152019086526020862092865b8181106117b357505061173792500382612608565b5190600b54928315938415611764575b506080935060405192835280602084015260408301526060820152f35b909150612710830293838504612710148415171561179f5761178b57608093049038611747565b634e487b7160e01b82526012600452602482fd5b634e487b7160e01b83526011600452602483fd5b8454835260019485019486945060209093019201611722565b50346101eb5760403660031901126101eb576004356001600160401b03811680820361168a57610e1060243592611801612993565b9110611904575b6001600160401b03811662278d0081116118c157620f42408311611883577f03904376d24e01ffee2015c8f42bc52451ef52c4cbb442f7537c4902c97b61cb92604092600754906001600160401b0360a01b9060a01b16906001600160401b0360a01b1916176007558060095582519182526020820152a180f35b60405162461bcd60e51b8152602060048201526016602482015275088829e7440dad2dcacdee8cae640e8dede40d0d2ced60531b6044820152606490fd5b60405162461bcd60e51b815260206004820152601b60248201527a44414f3a20766f74696e6720706572696f6420746f6f206c6f6e6760281b6044820152606490fd5b50610e10611808565b50346101eb57806003193601126101eb576006546040516001600160a01b039091168152602090f35b50346101eb57806003193601126101eb57600b548160015b82811115611a135750611960906127e8565b918060015b83811115611983576040516020808252819061112b908201886126db565b806119ba918352600c602052426001600160401b03600560408620015460481c1611806119f6575b806119d9575b6119bf576127c2565b611965565b806119d36119cc866127c2565b958861281a565b526127c2565b50808352600c60205260ff600560408520015460901c16156119b1565b50808352600c60205260ff600560408520015460881c16156119ab565b808452600c602052426001600160401b03600560408720015460481c161180611a82575b80611a65575b611a50575b611a4b906127c2565b61194e565b90611a5d611a4b916127c2565b919050611a42565b50808452600c60205260ff600560408620015460901c1615611a3d565b50808452600c60205260ff600560408620015460881c1615611a37565b50346101eb57806003193601126101eb57602060405160058152f35b50346101eb5760203660031901126101eb5760ff60406020926004358152600d84522054166040519015158152f35b50346101eb57806003193601126101eb576007546040516001600160a01b039091168152602090f35b50346101eb5760403660031901126101eb5760096040611b316126c5565b926004358152600c60205220019060018060a01b0316600052602052602060ff604060002054166040519015158152f35b50346101eb57806003193601126101eb576020600954604051908152f35b50346101eb5760203660031901126101eb576004358152600c602052604081206005810154611c379291608882901c60ff1615611c6557604051611bc5604082612608565b6008815267115e1958dd5d195960c21b6020820152925b6007600683015492015492611bf1848461277f565b600954111593849384611c54575b505060481c6001600160401b031642811115611c4d57611c21915042906127a2565b905b604051948594608086526080860190612662565b9260208501521515604084015260608301520390f35b5090611c23565b1192506001600160401b0338611bff565b60ff8260901c16600014611c9a57604051611c81604082612608565b6006815265145d595d595960d21b602082015292611bdc565b604882901c6001600160401b03164210611cd457604051611cbc604082612608565b6005815264115b99195960da1b602082015292611bdc565b604051611ce2604082612608565b600681526541637469766560d01b602082015292611bdc565b50346101eb5760203660031901126101eb576040906004358152600c6020522060018060a01b0381541660058201549160ff60018060a01b03600183015416936002830154611d9d604051611d5e81611d578160048a01612585565b0382612608565b60076006870154960154926040519889988952611d8060208a01888816612687565b604089015260608801526101606080880152610160870190612662565b936001600160401b038360081c1660a08701526001600160401b038360481c1660c087015260e0860152610100850152818160881c16151561012085015260901c1615156101408301520390f35b50346101eb5760203660031901126101eb57611e056126aa565b6001600160a01b03168152600e602052604081206001810154905491908215611e815762015180611e3684426127a2565b0460058102908082046005149015171561179f5760809381838110611e71575083925b60405194508452602084015260408301526060820152f35b611e7b90846127a2565b92611e59565b60809282908392611e59565b50346101eb57806003193601126101eb5760206001600160401b0360085416604051908152f35b50346101eb57806003193601126101eb576003546040516001600160a01b039091168152602090f35b50346101eb5760203660031901126101eb57600435611efa612993565b600181101580611f52575b15611f1057600a5580f35b60405162461bcd60e51b815260206004820152601a6024820152792220a79d1034b73b30b634b2103830b93a34b1b4b830ba34b7b760311b6044820152606490fd5b506064811115611f05565b50346101eb57806003193601126101eb576020600a54604051908152f35b50346101eb5760203660031901126101eb5760043590611f99612950565b818152600c60205260408120600581019283546001600160401b038160481c16801580156123e6575b6110985742106123b95760ff8160881c161590816123aa575b501561237f576007546001600160a01b03168381612269575b5050600682015493600783015461200b818761277f565b60095411159586612258575b8661224e575b50506040805183815286151560208201527f82693b732f9696c8a914b820dd6c52544bd61b844bbd4c8707253df9340cf6b79190a16005546001600160a01b03169485612203575b84955061207457836001815580f35b60018060a01b0360025416906120d06020600186019560018060a01b038754169460028201958987549160405196879586948593636fe05b7360e11b855260048501526024840152606060448401526003606484019101612585565b03925af19081156121f85786916121a2575b50815460ff60901b1916600160901b179091556040805184815260208101929092527fa2f0de3df8492190d09725d44059c2aa2f98905ef69bb7aa2fdc97e85afff23691a16005546001600160a01b03169283612140575b50610e47565b549054926001600160a01b0390911690803b15610bc857849283606492604051968795869463e5b2f79b60e01b86526004860152602485015260448401525af161218d575b80808061213a565b8161219791612608565b6101eb578038612185565b90506020813d6020116121f0575b816121bd60209383612608565b810103126121ec57517fa2f0de3df8492190d09725d44059c2aa2f98905ef69bb7aa2fdc97e85afff2366120e2565b8580fd5b3d91506121b0565b6040513d88823e3d90fd5b853b15610bc85760405163717d8bc360e01b81526004810184905281151560248201529585908790604490829084905af115612065579390948161224691612608565b928490612065565b119450388061201d565b6008850154600a5411159650612017565b6024916040519283809263e0df05b960e01b82528660048301525afa90811561237457849085926122c9575b506122a05783611ff4565b60405163911b86e360e01b8152602060048201529081906122c5906024830190612662565b0390fd5b9150503d8085833e6122db8183612608565b810190604081830312610bc8576122f181612772565b906020810151906001600160401b038211610bc4570182601f820112156121ec578051906001600160401b038211612360576040519361233b601f8401601f191660200186612608565b82855260208383010111610bc4579061235a916020808601910161263f565b38612295565b634e487b7160e01b87526041600452602487fd5b6040513d86823e3d90fd5b606460405162461bcd60e51b8152602060048201526004602482015263646f6e6560e01b6044820152fd5b60ff915060901c161538611fdb565b60405162461bcd60e51b81526020600482015260056024820152646561726c7960d81b6044820152606490fd5b506001600160401b038260081c1615611fc2565b50346101eb57806003193601126101eb5760206001600160401b0360075460a01c16604051908152f35b82346101eb5760203660031901126101eb576004358152600c602052604090208054600182015460028301546001600160a01b03918216949290911692612479836124728160038501612585565b0384612608565b604051926124958461248e8160048601612585565b0385612608565b60ff6124e76005840154956124d960068601549460086007880154970154976040519b8c9b8c5260208c015260408b01526101a060608b01526101a08a0190612662565b9088820360808a0152612662565b946124f760a08801838316612687565b6001600160401b038160081c1660c08801526001600160401b038160481c1660e0880152818160881c16151561010088015260901c1615156101208601526101408501526101608401526101808301520390f35b90600182811c9216801561257b575b602083101461256557565b634e487b7160e01b600052602260045260246000fd5b91607f169161255a565b600092918154916125958361254b565b80835292600181169081156125eb57506001146125b157505050565b60009081526020812093945091925b8383106125d1575060209250010190565b6001816020929493945483858701015201910191906125c0565b915050602093945060ff929192191683830152151560051b010190565b90601f801991011681019081106001600160401b0382111761262957604052565b634e487b7160e01b600052604160045260246000fd5b60005b8381106126525750506000910152565b8181015183820152602001612642565b9060209161267b8151809281855285808601910161263f565b601f01601f1916010190565b9060048210156126945752565b634e487b7160e01b600052602160045260246000fd5b600435906001600160a01b03821682036126c057565b600080fd5b602435906001600160a01b03821682036126c057565b906020808351928381520192019060005b8181106126f95750505090565b82518452602093840193909201916001016126ec565b9181601f840112156126c0578235916001600160401b0383116126c057602083818601950101116126c057565b906020808351928381520192019060005b81811061275a5750505090565b8251151584526020938401939092019160010161274d565b519081151582036126c057565b9190820180921161278c57565b634e487b7160e01b600052601160045260246000fd5b9190820391821161278c57565b8181029291811591840414171561278c57565b600019811461278c5760010190565b6001600160401b0381116126295760051b60200190565b906127f2826127d1565b6127ff6040519182612608565b8281528092612810601f19916127d1565b0190602036910137565b805182101561282e5760209160051b010190565b634e487b7160e01b600052603260045260246000fd5b908060209392818452848401376000828201840152601f01601f1916010190565b1561286c57565b606460405162461bcd60e51b81526020600482015260046024820152637a65726f60e01b6044820152fd5b908160209103126126c0575161ffff811681036126c05790565b9081526001600160a01b039091166020820152901515604082015260600190565b8181106128dd575050565b600081556001016128d2565b9190601f81116128f857505050565b612924926000526020600020906020601f840160051c83019310612926575b601f0160051c01906128d2565b565b9091508190612917565b906001600160401b03809116911601906001600160401b03821161278c57565b600160005403612961576002600055565b60405162461bcd60e51b815260206004820152600a6024820152697265656e7472616e637960b01b6044820152606490fd5b6001546001600160a01b031633036129a757565b63b0c9b88560e01b60005260046000fd5b60048054604051630709df4560e01b81526001600160a01b03938416928101839052919260209183916024918391165afa908115612aa957600091612b53575b506001600160a01b031615612b13576007546001600160a01b031680612ada575b50600354604051630d47875d60e41b815260048101929092526001600160a01b0316602082602481845afa918215612aa957600092612ab5575b50602060049160405192838092634ccf04cf60e01b82525afa908115612aa95761ffff918291600091612a8a575b50169116101590565b612aa3915060203d602011610fb857610faa8183612608565b38612a81565b6040513d6000823e3d90fd5b6004919250612ad2602091823d8411610fb857610faa8183612608565b929150612a53565b602060249160405192838092633dbacb8f60e01b82528660048301525afa908115612aa957600091612b19575b5015612b135738612a19565b50600090565b90506020813d602011612b4b575b81612b3460209383612608565b810103126126c057612b4590612772565b38612b07565b3d9150612b27565b6020813d602011612b8d575b81612b6c60209383612608565b810103126109835751906001600160a01b03821682036101eb5750386129f8565b3d9150612b5f56fea2646970667358221220364de9165a0c9aff713014adfad8ab6e173c4b2715b81b26daa1274f78c1119e64736f6c634300081e0033",
  "linkReferences": {},
  "deployedLinkReferences": {}
}