{
  "_format": "hh-sol-artifact-1",
  "contractName": "VaultHub",
  "sourceName": "contracts/VaultHub.sol",
  "abi": [
    {
      "inputs": [
        {
          "internalType": "address",
          "name": "_vfideToken",
          "type": "address"
        },
        {
          "internalType": "address",
          "name": "_securityHub",
          "type": "address"
        },
        {
          "internalType": "address",
          "name": "_ledger",
          "type": "address"
        },
        {
          "internalType": "address",
          "name": "_dao",
          "type": "address"
        }
      ],
      "stateMutability": "nonpayable",
      "type": "constructor"
    },
    {
      "inputs": [],
      "name": "VH_NotDAO",
      "type": "error"
    },
    {
      "inputs": [],
      "name": "VH_Zero",
      "type": "error"
    },
    {
      "anonymous": false,
      "inputs": [
        {
          "indexed": false,
          "internalType": "address",
          "name": "dao",
          "type": "address"
        }
      ],
      "name": "DAOSet",
      "type": "event"
    },
    {
      "anonymous": false,
      "inputs": [
        {
          "indexed": true,
          "internalType": "address",
          "name": "vault",
          "type": "address"
        },
        {
          "indexed": true,
          "internalType": "address",
          "name": "newOwner",
          "type": "address"
        }
      ],
      "name": "ForcedRecovery",
      "type": "event"
    },
    {
      "anonymous": false,
      "inputs": [
        {
          "indexed": true,
          "internalType": "address",
          "name": "vault",
          "type": "address"
        },
        {
          "indexed": true,
          "internalType": "address",
          "name": "newOwner",
          "type": "address"
        },
        {
          "indexed": false,
          "internalType": "uint64",
          "name": "unlockTime",
          "type": "uint64"
        }
      ],
      "name": "ForcedRecoveryInitiated",
      "type": "event"
    },
    {
      "anonymous": false,
      "inputs": [
        {
          "indexed": false,
          "internalType": "address",
          "name": "vfide",
          "type": "address"
        },
        {
          "indexed": false,
          "internalType": "address",
          "name": "securityHub",
          "type": "address"
        },
        {
          "indexed": false,
          "internalType": "address",
          "name": "ledger",
          "type": "address"
        },
        {
          "indexed": false,
          "internalType": "address",
          "name": "dao",
          "type": "address"
        }
      ],
      "name": "ModulesSet",
      "type": "event"
    },
    {
      "anonymous": false,
      "inputs": [
        {
          "indexed": true,
          "internalType": "address",
          "name": "previousOwner",
          "type": "address"
        },
        {
          "indexed": true,
          "internalType": "address",
          "name": "newOwner",
          "type": "address"
        }
      ],
      "name": "OwnershipTransferStarted",
      "type": "event"
    },
    {
      "anonymous": false,
      "inputs": [
        {
          "indexed": true,
          "internalType": "address",
          "name": "previousOwner",
          "type": "address"
        },
        {
          "indexed": true,
          "internalType": "address",
          "name": "newOwner",
          "type": "address"
        }
      ],
      "name": "OwnershipTransferred",
      "type": "event"
    },
    {
      "anonymous": false,
      "inputs": [
        {
          "indexed": false,
          "internalType": "address",
          "name": "vfide",
          "type": "address"
        }
      ],
      "name": "VFIDESet",
      "type": "event"
    },
    {
      "anonymous": false,
      "inputs": [
        {
          "indexed": true,
          "internalType": "address",
          "name": "owner",
          "type": "address"
        },
        {
          "indexed": true,
          "internalType": "address",
          "name": "vault",
          "type": "address"
        }
      ],
      "name": "VaultCreated",
      "type": "event"
    },
    {
      "inputs": [],
      "name": "RECOVERY_APPROVALS_REQUIRED",
      "outputs": [
        {
          "internalType": "uint8",
          "name": "",
          "type": "uint8"
        }
      ],
      "stateMutability": "view",
      "type": "function"
    },
    {
      "inputs": [],
      "name": "RECOVERY_DELAY",
      "outputs": [
        {
          "internalType": "uint64",
          "name": "",
          "type": "uint64"
        }
      ],
      "stateMutability": "view",
      "type": "function"
    },
    {
      "inputs": [],
      "name": "acceptOwnership",
      "outputs": [],
      "stateMutability": "nonpayable",
      "type": "function"
    },
    {
      "inputs": [
        {
          "internalType": "address",
          "name": "vault",
          "type": "address"
        },
        {
          "internalType": "address",
          "name": "newOwner",
          "type": "address"
        }
      ],
      "name": "approveForceRecovery",
      "outputs": [],
      "stateMutability": "nonpayable",
      "type": "function"
    },
    {
      "inputs": [],
      "name": "cancelOwnershipTransfer",
      "outputs": [],
      "stateMutability": "nonpayable",
      "type": "function"
    },
    {
      "inputs": [
        {
          "internalType": "address",
          "name": "addr",
          "type": "address"
        }
      ],
      "name": "checkVaultStatus",
      "outputs": [
        {
          "internalType": "bool",
          "name": "hasVault",
          "type": "bool"
        },
        {
          "internalType": "address",
          "name": "vaultAddress",
          "type": "address"
        },
        {
          "internalType": "bool",
          "name": "isVaultContract",
          "type": "bool"
        }
      ],
      "stateMutability": "view",
      "type": "function"
    },
    {
      "inputs": [],
      "name": "createVault",
      "outputs": [
        {
          "internalType": "address",
          "name": "",
          "type": "address"
        }
      ],
      "stateMutability": "nonpayable",
      "type": "function"
    },
    {
      "inputs": [],
      "name": "dao",
      "outputs": [
        {
          "internalType": "address",
          "name": "",
          "type": "address"
        }
      ],
      "stateMutability": "view",
      "type": "function"
    },
    {
      "inputs": [
        {
          "internalType": "address",
          "name": "owner_",
          "type": "address"
        }
      ],
      "name": "ensureVault",
      "outputs": [
        {
          "internalType": "address",
          "name": "vault",
          "type": "address"
        }
      ],
      "stateMutability": "nonpayable",
      "type": "function"
    },
    {
      "inputs": [
        {
          "internalType": "address",
          "name": "vault",
          "type": "address"
        }
      ],
      "name": "finalizeForceRecovery",
      "outputs": [],
      "stateMutability": "nonpayable",
      "type": "function"
    },
    {
      "inputs": [
        {
          "internalType": "address",
          "name": "owner_",
          "type": "address"
        }
      ],
      "name": "getVault",
      "outputs": [
        {
          "internalType": "address",
          "name": "",
          "type": "address"
        }
      ],
      "stateMutability": "view",
      "type": "function"
    },
    {
      "inputs": [
        {
          "internalType": "address",
          "name": "vault",
          "type": "address"
        }
      ],
      "name": "getVaultInfo",
      "outputs": [
        {
          "internalType": "address",
          "name": "owner_",
          "type": "address"
        },
        {
          "internalType": "uint256",
          "name": "createdAt",
          "type": "uint256"
        },
        {
          "internalType": "bool",
          "name": "isLocked",
          "type": "bool"
        },
        {
          "internalType": "bool",
          "name": "exists",
          "type": "bool"
        }
      ],
      "stateMutability": "view",
      "type": "function"
    },
    {
      "inputs": [
        {
          "internalType": "address",
          "name": "vault",
          "type": "address"
        },
        {
          "internalType": "address",
          "name": "newOwner",
          "type": "address"
        }
      ],
      "name": "initiateForceRecovery",
      "outputs": [],
      "stateMutability": "nonpayable",
      "type": "function"
    },
    {
      "inputs": [
        {
          "internalType": "address",
          "name": "",
          "type": "address"
        }
      ],
      "name": "isRecoveryApprover",
      "outputs": [
        {
          "internalType": "bool",
          "name": "",
          "type": "bool"
        }
      ],
      "stateMutability": "view",
      "type": "function"
    },
    {
      "inputs": [
        {
          "internalType": "address",
          "name": "a",
          "type": "address"
        }
      ],
      "name": "isVault",
      "outputs": [
        {
          "internalType": "bool",
          "name": "",
          "type": "bool"
        }
      ],
      "stateMutability": "view",
      "type": "function"
    },
    {
      "inputs": [],
      "name": "ledger",
      "outputs": [
        {
          "internalType": "contract IProofLedger",
          "name": "",
          "type": "address"
        }
      ],
      "stateMutability": "view",
      "type": "function"
    },
    {
      "inputs": [],
      "name": "owner",
      "outputs": [
        {
          "internalType": "address",
          "name": "",
          "type": "address"
        }
      ],
      "stateMutability": "view",
      "type": "function"
    },
    {
      "inputs": [
        {
          "internalType": "address",
          "name": "",
          "type": "address"
        }
      ],
      "name": "ownerOfVault",
      "outputs": [
        {
          "internalType": "address",
          "name": "",
          "type": "address"
        }
      ],
      "stateMutability": "view",
      "type": "function"
    },
    {
      "inputs": [],
      "name": "pendingOwner",
      "outputs": [
        {
          "internalType": "address",
          "name": "",
          "type": "address"
        }
      ],
      "stateMutability": "view",
      "type": "function"
    },
    {
      "inputs": [
        {
          "internalType": "address",
          "name": "owner_",
          "type": "address"
        }
      ],
      "name": "predictVault",
      "outputs": [
        {
          "internalType": "address",
          "name": "predicted",
          "type": "address"
        }
      ],
      "stateMutability": "view",
      "type": "function"
    },
    {
      "inputs": [
        {
          "internalType": "address[]",
          "name": "owners",
          "type": "address[]"
        }
      ],
      "name": "predictVaultsBatch",
      "outputs": [
        {
          "internalType": "address[]",
          "name": "vaults",
          "type": "address[]"
        }
      ],
      "stateMutability": "view",
      "type": "function"
    },
    {
      "inputs": [
        {
          "internalType": "address",
          "name": "",
          "type": "address"
        }
      ],
      "name": "recoveryApprovalCount",
      "outputs": [
        {
          "internalType": "uint8",
          "name": "",
          "type": "uint8"
        }
      ],
      "stateMutability": "view",
      "type": "function"
    },
    {
      "inputs": [
        {
          "internalType": "address",
          "name": "",
          "type": "address"
        },
        {
          "internalType": "address",
          "name": "",
          "type": "address"
        },
        {
          "internalType": "uint256",
          "name": "",
          "type": "uint256"
        }
      ],
      "name": "recoveryApprovals",
      "outputs": [
        {
          "internalType": "bool",
          "name": "",
          "type": "bool"
        }
      ],
      "stateMutability": "view",
      "type": "function"
    },
    {
      "inputs": [
        {
          "internalType": "address",
          "name": "",
          "type": "address"
        }
      ],
      "name": "recoveryNonce",
      "outputs": [
        {
          "internalType": "uint256",
          "name": "",
          "type": "uint256"
        }
      ],
      "stateMutability": "view",
      "type": "function"
    },
    {
      "inputs": [
        {
          "internalType": "address",
          "name": "",
          "type": "address"
        }
      ],
      "name": "recoveryProposedOwner",
      "outputs": [
        {
          "internalType": "address",
          "name": "",
          "type": "address"
        }
      ],
      "stateMutability": "view",
      "type": "function"
    },
    {
      "inputs": [
        {
          "internalType": "address",
          "name": "",
          "type": "address"
        }
      ],
      "name": "recoveryUnlockTime",
      "outputs": [
        {
          "internalType": "uint64",
          "name": "",
          "type": "uint64"
        }
      ],
      "stateMutability": "view",
      "type": "function"
    },
    {
      "inputs": [],
      "name": "securityHub",
      "outputs": [
        {
          "internalType": "contract ISecurityHub",
          "name": "",
          "type": "address"
        }
      ],
      "stateMutability": "view",
      "type": "function"
    },
    {
      "inputs": [
        {
          "internalType": "address",
          "name": "_dao",
          "type": "address"
        }
      ],
      "name": "setDAO",
      "outputs": [],
      "stateMutability": "nonpayable",
      "type": "function"
    },
    {
      "inputs": [
        {
          "internalType": "address",
          "name": "_vfideToken",
          "type": "address"
        },
        {
          "internalType": "address",
          "name": "_securityHub",
          "type": "address"
        },
        {
          "internalType": "address",
          "name": "_ledger",
          "type": "address"
        },
        {
          "internalType": "address",
          "name": "_dao",
          "type": "address"
        }
      ],
      "name": "setModules",
      "outputs": [],
      "stateMutability": "nonpayable",
      "type": "function"
    },
    {
      "inputs": [
        {
          "internalType": "address",
          "name": "approver",
          "type": "address"
        },
        {
          "internalType": "bool",
          "name": "status",
          "type": "bool"
        }
      ],
      "name": "setRecoveryApprover",
      "outputs": [],
      "stateMutability": "nonpayable",
      "type": "function"
    },
    {
      "inputs": [
        {
          "internalType": "address",
          "name": "_vfide",
          "type": "address"
        }
      ],
      "name": "setVFIDE",
      "outputs": [],
      "stateMutability": "nonpayable",
      "type": "function"
    },
    {
      "inputs": [],
      "name": "totalVaults",
      "outputs": [
        {
          "internalType": "uint256",
          "name": "",
          "type": "uint256"
        }
      ],
      "stateMutability": "view",
      "type": "function"
    },
    {
      "inputs": [
        {
          "internalType": "address",
          "name": "newOwner",
          "type": "address"
        }
      ],
      "name": "transferOwnership",
      "outputs": [],
      "stateMutability": "nonpayable",
      "type": "function"
    },
    {
      "inputs": [
        {
          "internalType": "address",
          "name": "",
          "type": "address"
        }
      ],
      "name": "vaultCreatedAt",
      "outputs": [
        {
          "internalType": "uint256",
          "name": "",
          "type": "uint256"
        }
      ],
      "stateMutability": "view",
      "type": "function"
    },
    {
      "inputs": [
        {
          "internalType": "address",
          "name": "",
          "type": "address"
        }
      ],
      "name": "vaultOf",
      "outputs": [
        {
          "internalType": "address",
          "name": "",
          "type": "address"
        }
      ],
      "stateMutability": "view",
      "type": "function"
    },
    {
      "inputs": [],
      "name": "vfideToken",
      "outputs": [
        {
          "internalType": "address",
          "name": "",
          "type": "address"
        }
      ],
      "stateMutability": "view",
      "type": "function"
    }
  ],
  "bytecode": "0x60803461014357601f61524538819003918201601f19168301916001600160401b03831184841017610148578084926080946040528339810103126101435760808161006b7f2ad69807131f242e4c6b9e21338b8d7d7d5f32ab1dfaa1eddfa881c305c8f5e79361015e565b906100786020820161015e565b90610091606061008a6040840161015e565b920161015e565b600080546001600160a01b03191633908117825560405195929392917f8be0079c531659141344cd1fd0a4f28419497f9722a3daafe3b4186f6b6457e08180a3600280546001600160a01b039283166001600160a01b03199182168117909255600380549684169682168717905560048054948416948216851790556005805495909316941684179091558452602084019290925260408301919091526060820152a16040516150d290816101738239f35b600080fd5b634e487b7160e01b600052604160045260246000fd5b51906001600160a01b03821682036101435756fe6080604052600436101561001257600080fd5b60003560e01c806306d7d6cf146102525780630709df45146102485780630d6c4df31461024d5780630eb9af381461024857806317fd7bf6146102435780631a6568811461023e57806323452b9c146102395780632724fe091461023457806327a4e1ab1461022f5780633297992e1461022a578063360ca958146102255780634162169f14610220578063419d7a831461021b578063435c529b1461021657806347b456521461021157806349bcad0a1461020c57806356397c35146102075780635d12928b14610202578063652b9b41146101fd5780636a240a9c146101f857806379ba5097146101f35780638d654023146101ee5780638da5cb5b146101e957806390229af7146101e45780639f9a6508146101df578063b079fbff146101da578063b72d2943146101d5578063b8a71eec146101d0578063c5c82203146101cb578063c93883a5146101c6578063e01fd215146101c1578063e30c3978146101bc578063e73a914c146101b7578063f20ca7ed146101b2578063f2fde38b146101ad5763fa3fd3bc146101a857600080fd5b6113e1565b611336565b6112f0565b611254565b61122b565b611204565b611198565b610f74565b610f4b565b610f22565b610e32565b610ded565b610ce3565b610cba565b610c9c565b610be1565b610b2b565b610a9c565b610a80565b610a57565b610a1a565b6109fc565b6109ba565b61097a565b610951565b610882565b61085c565b610823565b6107de565b6107b3565b610536565b610478565b6103b4565b6103f9565b61026d565b6001600160a01b0381160361026857565b600080fd5b346102685760203660031901126102685760043561028a81610257565b6001600160a01b0390811660009081526006602090815260408083205460078352928190205481519385168015158552928401929092529216151591810191909152606090f35b6001600160a01b0316600090815260076020526040902090565b6001600160a01b0316600090815260066020526040902090565b6001600160a01b03166000908152600c6020526040902090565b6001600160a01b03166000908152600a6020526040902090565b6001600160a01b03166000908152600b6020526040902090565b6001600160a01b0316600090815260096020526040902090565b6001600160a01b0316600090815260086020526040902090565b6001600160a01b03166000908152600f6020526040902090565b6001600160a01b03909116815260200190565b34610268576020366003190112610268576004356103d181610257565b60018060a01b03166000526006602052602060018060a01b0360406000205416604051908152f35b346102685760603660031901126102685761045460043561041981610257565b6024359061042682610257565b6001600160a01b03166000908152600a602052604090209060018060a01b0316600052602052604060002090565b60443560005260205260ff6040600020541660405180916020820190151582520390f35b34610268576020366003190112610268577f77035913569424ed432f15a527aa4e0317cbefd28ce0fe9cdfe61acd77345c1760206004356104b881610257565b6104c0611a5c565b600280546001600160a01b0319166001600160a01b03929092169182179055604051908152a161050c6104f161145a565b6c1a1d5897dd999a591957dcd95d609a1b6020820152611aee565b005b60409060031901126102685760043561052681610257565b9060243561053381610257565b90565b34610268576105443661050e565b336000908152600d6020526040902090919061056b90610566905b5460ff1690565b6114ae565b6001600160a01b0381169182158015610797575b610786576105b56105ae6105a2610595856102d1565b546001600160a01b031690565b6001600160a01b031690565b15156114ec565b6105cd6105c76105a2610595846102eb565b15611528565b6105d682610305565b5461061861061461055f83610605336105ee8961031f565b9060018060a01b0316600052602052604060002090565b90600052602052604060002090565b1590565b610722575b50600360ff61062e61055f85610339565b16101561063757005b61050c926106678261064885610353565b80546001600160a01b0319166001600160a01b03909216919091179055565b6106a6610682610676426115c7565b6001600160401b031690565b61068b8561036d565b906001600160401b03166001600160401b0319825416179055565b7f4f6a320f55ac586fc5dbafc5a9d39bf84e088884ac86cb6391a2ced7e237c8316107096106e36106d68661036d565b546001600160401b031690565b6040516001600160401b0390911681526001600160a01b03909416939081906020820190565b0390a36107146115d7565b61071c61146f565b91611b65565b61073661074391610605336105ee8761031f565b805460ff19166001179055565b61077061074f83610339565b61076261075d825460ff1690565b61157d565b60ff1660ff19825416179055565b61078061077b611593565b611aee565b3861061d565b6306f32b4160e51b60005260046000fd5b506001600160a01b0381161561057f565b600091031261026857565b34610268576000366003190112610268576107cc611a5c565b600180546001600160a01b0319169055005b34610268576020366003190112610268576004356107fb81610257565b60018060a01b03166000526007602052602060018060a01b0360406000205416604051908152f35b3461026857602036600319011261026857602061084a60043561084581610257565b611607565b6040516001600160a01b039091168152f35b3461026857600036600319011261026857602060405160038152f35b8015150361026857565b346102685760403660031901126102685760043561089f81610257565b602435906108ac82610878565b6108b4611a5c565b6001600160a01b03166108c8811515611676565b600052600d6020526108ea8160406000209060ff801983541691151516179055565b1561091f5761050c6108fa611499565b761c9958dbdd995c9e57d85c1c1c9bdd995c97d859191959604a1b6020820152611aee565b61050c61092a611484565b781c9958dbdd995c9e57d85c1c1c9bdd995c97dc995b5bdd9959603a1b6020820152611aee565b34610268576000366003190112610268576005546040516001600160a01b039091168152602090f35b346102685760203660031901126102685760043561099781610257565b60018060a01b0316600052600b602052602060ff60406000205416604051908152f35b34610268576020366003190112610268576004356109d781610257565b60018060a01b0316600052600d602052602060ff604060002054166040519015158152f35b3461026857600036600319011261026857602060405162093a808152f35b3461026857602036600319011261026857600435610a3781610257565b60018060a01b0316600052600c6020526020604060002054604051908152f35b34610268576000366003190112610268576004546040516001600160a01b039091168152602090f35b3461026857600036600319011261026857602061084a336118fa565b3461026857602036600319011261026857610af5600435610abc81610257565b6001600160a01b0390811660008181526007602052604090205490911615159081610af9575b5060405190151581529081906020820190565b0390f35b6000818152600760209081526040808320546001600160a01b0390811684526006909252909120541614905038610ae2565b3461026857610b393661050e565b600554909190610b51906001600160a01b03166105a2565b3303610bd0576001600160a01b0381169182158015610bbf575b6107865761050c92610b856105ae6105a2610595866102d1565b610b976105c76105a2610595856102eb565b610bb2600360ff610baa61055f87610339565b1610156116ac565b6106678261064885610353565b506001600160a01b03811615610b6b565b6322671fad60e01b60005260046000fd5b34610268576000366003190112610268576001546001600160a01b03163303610c5e5760005433906001600160a01b03908116167f8be0079c531659141344cd1fd0a4f28419497f9722a3daafe3b4186f6b6457e0600080a3600080546001600160a01b03191633179055600180546001600160a01b0319169055005b60405162461bcd60e51b815260206004820152601660248201527527aba71d103737ba103832b73234b7339037bbb732b960511b6044820152606490fd5b34610268576000366003190112610268576020600e54604051908152f35b34610268576000366003190112610268576000546040516001600160a01b039091168152602090f35b3461026857602036600319011261026857600435610d0081610257565b610d0c610595826102d1565b610d1582610387565b54600354909190610d2e906001600160a01b03166105a2565b926001600160a01b03841615159384610d75575b5050604080516001600160a01b039290921680835260208301939093529215159281019290925215156060820152608090f35b610d9a929450906020916040518080958194631293efbb60e21b8352600483016103a1565b03915afa8015610de857610af591600091610db9575b50929038610d42565b610ddb915060203d602011610de1575b610dd38183611434565b8101906116f4565b38610db0565b503d610dc9565b611709565b3461026857602036600319011261026857600435610e0a81610257565b60018060a01b03166000526009602052602060018060a01b0360406000205416604051908152f35b34610268576080366003190112610268577f2ad69807131f242e4c6b9e21338b8d7d7d5f32ab1dfaa1eddfa881c305c8f5e7600435610e7081610257565b60243590610e7d82610257565b610f14604435610e8c81610257565b60643590610e9982610257565b610ea1611a5c565b600280546001600160a01b039586166001600160a01b03199182168117909255600380549787169782168817905560048054938716938216841790556005805494909616931683179094556040805194855260208501959095529383019390935260608201929092529081906080820190565b0390a161050c61077b611715565b34610268576000366003190112610268576003546040516001600160a01b039091168152602090f35b34610268576000366003190112610268576002546040516001600160a01b039091168152602090f35b3461026857602036600319011261026857600435610f9181610257565b600554610fa6906001600160a01b03166105a2565b3303610bd057610fcb6001600160401b03610fc36106d68461036d565b161515611742565b610fe5610fdd6106766106d68461036d565b42101561177a565b610ff161059582610353565b906001600160a01b038216611007811515611676565b6110196105c76105a2610595866102eb565b611025610595836102d1565b6001600160a01b038116611143575b5061104283610648846102d1565b61104f82610648856102eb565b6001600160a01b038216803b1561026857600061108094604051809681926324d89a6360e21b8352600483016103a1565b038183855af1938415610de85761050c94611128575b506110b36110a384610353565b80546001600160a01b0319169055565b6110d06110bf8461036d565b805467ffffffffffffffff19169055565b6110e66110dc84610339565b805460ff19169055565b6110ef83610305565b6110f981546117b4565b90557f95d14defab6a2b4ee4b7409bbb87adbfd28ae37e235f30d9a96198e6825dbc3b600080a36107146117c3565b80611137600061113d93611434565b806107a8565b38611096565b6110a361114f916102eb565b38611034565b602060408183019282815284518094520192019060005b8181106111795750505090565b82516001600160a01b031684526020938401939092019160010161116c565b34610268576020366003190112610268576004356001600160401b0381116102685736602382011215610268578060040135906001600160401b038211610268573660248360051b8301011161026857610af59160246111f8920161180b565b60405191829182611155565b3461026857602036600319011261026857602061084a60043561122681610257565b6118fa565b34610268576000366003190112610268576001546040516001600160a01b039091168152602090f35b34610268576020366003190112610268577f8aad84fcad50e723fa3bcf0fb32c5bea4c71078b77b9aedfa638f146f3a3f7b9602060043561129481610257565b61129c611a5c565b600580546001600160a01b0319166001600160a01b03929092169182179055604051908152a161050c6040516112d3604082611434565b600b81526a1a1d5897d9185bd7dcd95d60aa1b6020820152611aee565b346102685760203660031901126102685760043561130d81610257565b60018060a01b0316600052600860205260206001600160401b0360406000205416604051908152f35b346102685760203660031901126102685760043561135381610257565b61135b611a5c565b6001600160a01b031680156113b057600180546001600160a01b03191682179055600080546001600160a01b0316907f38d16b8cac22d99fc7c124b9cd0de2d3fa1faef420bfe791d8c362d765e227009080a3005b60405162461bcd60e51b81526020600482015260096024820152684f574e3a207a65726f60b81b6044820152606490fd5b34610268576020366003190112610268576004356113fe81610257565b60018060a01b0316600052600f6020526020604060002054604051908152f35b634e487b7160e01b600052604160045260246000fd5b90601f801991011681019081106001600160401b0382111761145557604052565b61141e565b60405190611469604083611434565b600d8252565b6040519061147e602083611434565b60008252565b60405190611493604083611434565b60198252565b604051906114a8604083611434565b60178252565b156114b557565b60405162461bcd60e51b815260206004820152600f60248201526e2b241d3737ba16b0b8383937bb32b960891b6044820152606490fd5b156114f357565b60405162461bcd60e51b815260206004820152600d60248201526c1d5b9adb9bdddb881d985d5b1d609a1b6044820152606490fd5b1561152f57565b60405162461bcd60e51b815260206004820152601060248201526f1d185c99d95d081a185cc81d985d5b1d60821b6044820152606490fd5b634e487b7160e01b600052601160045260246000fd5b60ff1660ff811461158e5760010190565b611567565b604051906115a2604083611434565b60168252751c9958dbdd995c9e57d85c1c1c9bdd985b17d8d85cdd60521b6020830152565b9062093a80820180921161158e57565b604051906115e6604083611434565b6012825271199bdc98d957dc9958dbdd995c97da5b9a5d60721b6020830152565b6001600160a01b038116156116705761162861162282611c0b565b91611c52565b6020815191012060405190602082019260ff60f81b84523060601b60218401526035830152605582015260558152611661607582611434565b5190206001600160a01b031690565b50600090565b1561167d57565b60405162461bcd60e51b815260206004820152600760248201526656483a7a65726f60c81b6044820152606490fd5b156116b357565b60405162461bcd60e51b815260206004820152601960248201527856483a696e73756666696369656e742d617070726f76616c7360381b6044820152606490fd5b90816020910312610268575161053381610878565b6040513d6000823e3d90fd5b60405190611724604083611434565b600f82526e1a1d5897db5bd91d5b195cd7dcd95d608a1b6020830152565b1561174957565b60405162461bcd60e51b815260206004820152600960248201526856483a6e6f2d72657160b81b6044820152606490fd5b1561178157565b60405162461bcd60e51b815260206004820152600b60248201526a56483a74696d656c6f636b60a81b6044820152606490fd5b600019811461158e5760010190565b604051906117d2604083611434565b6013825272199bdc98d957dc9958dbdd995c97d99a5b985b606a1b6020830152565b6001600160401b0381116114555760051b60200190565b611814826117f4565b926118226040519485611434565b828452601f19611831846117f4565b01366020860137839060005b848110156118945760008160051b61185b8187013561084581610257565b91885184101561188057506001600160a01b039091169087016020015260010161183d565b634e487b7160e01b81526032600452602490fd5b509250925050565b156118a357565b60405162461bcd60e51b815260206004820152600e60248201526d18dc99585d194c8819985a5b195960921b6044820152606490fd5b6118e161145a565b906c1d985d5b1d17d8dc99585d1959609a1b6020830152565b6001600160a01b0381169190821561078657600254611921906001600160a01b03166105a2565b1561078657611932610595826102eb565b6001600160a01b038116611a57575061194a81611c0b565b61195382611c52565b6020815191016000f5926001600160a01b0384169161198d9061197784151561189c565b61198486610648836102eb565b610648866102d1565b6119a061199b600e546117b4565b600e55565b426119aa85610387565b556003546119c0906001600160a01b03166105a2565b6001600160a01b038116611a11575b507f5d9c31ffa0fecffd7cf379989a3c7af252f0335e0d2a1320b55245912c781f53600080a3611a0f611a006118d9565b611a0861146f565b9084611b65565b565b803b1561026857600060405180926367ccd1cb60e01b8252818381611a398b600483016103a1565b03925af1156119cf57806111376000611a5193611434565b386119cf565b925050565b6000546001600160a01b03163303611a7057565b60405162461bcd60e51b815260206004820152600e60248201526d27aba71d103737ba1037bbb732b960911b6044820152606490fd5b60005b838110611ab95750506000910152565b8181015183820152602001611aa9565b90602091611ae281518092818552858086019101611aa6565b601f01601f1916010190565b6004546001600160a01b031680611b03575050565b803b1561026857604051633ddd61ab60e21b815230600482015260606024820152916000918391829084908290611b3e906064830190611ac9565b33604483015203925af1611b4f5750565b80611b5c60008093611434565b80031261026857565b60045460009391926001600160a01b039091169081611b86575b5050505050565b813b15611c0757604051630303c28760e61b81526001600160a01b0390941660048501908152608060248601528593859392849286928492611be6929190611bd2906084860190611ac9565b918560408201526060818403910152611ac9565b03925af1611bf7575b808080611b7f565b81611c0191611434565b38611bef565b8480fd5b60405160609190911b6001600160601b031916602082019081526014825290611c35603482611434565b51902090565b90611c4e60209282815194859201611aa6565b0190565b610533611d1091611cf26133869160405192611c716020820185611434565b808452611d176020850139600254600354611d00916001600160a01b0390811691611cf291611ca091166105a2565b600454611cb5906001600160a01b03166105a2565b604080513060208201526001600160a01b03958616918101919091529584166060870152908316608086015290911660a0840152829060c0820190565b03601f198101835282611434565b6040519485936020850190611c3b565b90611c3b56fe608080604052346102ba57600060a082613386803803809161002182856102bf565b8339810103126102b757610034826102f8565b610040602084016102f8565b61004c604085016102f8565b90610065608061005e606088016102f8565b96016102f8565b60018555926001600160a01b0316801515806102a5575b80610293575b1561026457600180546001600160a01b03199081169290921790556002805482166001600160a01b03938416179055600580548216938316938417905560038054821696831696909617909555600480549095169216918217909355600a80546001600160401b0319166201518017905569021e19e0c9bab2400000600b55600c8054600160401b600160801b031916690e100000000000000000179055670de0b6b3a7640000600d55690a968163f0a57b400000600f556010805461ffff191661138817905560408051919082016001600160401b0381118382101761025057604052600d82526c1d985d5b1d17d8dc99585d1959609a1b6020830152806101ba575b604051847f50146d0e3c60aa1d17a70635b05494f864e86144a2201275021014fbf08bafe28580a2613079908161030d8239f35b803b1561024c57908290604051928391633ddd61ab60e21b835230600484015260606024840152805190816064850152845b82811061023157505083608484838383839684010152336044830152601f801991011681010301925af1610221575b80610186565b8161022b916102bf565b3861021b565b602081830181015160848984010152889650879550016101ec565b8280fd5b634e487b7160e01b84526041600452602484fd5b60405162461bcd60e51b815260206004820152600760248201526655563a7a65726f60c81b6044820152606490fd5b506001600160a01b0383161515610082565b506001600160a01b038216151561007c565b80fd5b600080fd5b601f909101601f19168101906001600160401b038211908210176102e257604052565b634e487b7160e01b600052604160045260246000fd5b51906001600160a01b03821682036102ba5756fe6080604052600436101561001b575b361561001957600080fd5b005b6000803560e01c806302037822146126e2578063054f7d9c146126bf57806306603f8d146126965780630665f04b14612538578063091ea9dc146124e8578063092cc1fb146124ca5780630b6946da146123e05780630ba234d6146123355780630c68ba21146122f65780630fbd22b0146122d0578063118f117f146122a957806312065fe01461221d578063124f8d9c146121a05780631459457a14611fc55780631bed8c6e14611e9a5780631cff79cd14611c79578063269b54b114611c535780632b8a1c5a1461194857806334a014dc1461191e578063365a86fc146118f557806342e01e73146118b25780635132124c14611894578063518d0959146117a0578063536b801d1461171757806354387ad7146116f657806356397c35146116cd5780635f8983fd1461164c57806363a8374d146115df57806363f95a3b146115b1578063688aa6ce146113325780636a150981146112e55780636b1994ea146112575780636d68e53b14611239578063700c5e7d14611054578063713c6cb3146111b95780637e932d32146110f6578063835316c7146110595780638b2bc3e7146110545780638da5cb5b1461102b5780638e48d08214610fc75780638f252d3414610f055780639362698c14610e2c57806393bcd85814610e025780639a0dd14014610de4578063aa14cc6b14610d45578063b50ef71b14610b54578063b5354ce514610b36578063b72d294314610b0d578063b8a71eec14610ae4578063ba58db511461099e578063c60cd99c14610916578063d6c89c60146108ef578063e2158ee7146108cd578063e24ba26514610752578063e2ccb305146105e8578063e6536fc5146105ca578063e6dd89ca14610520578063f9773f9214610458578063fcae8d38146102db5763fd4fa981146102bb575061000e565b346102d857806003193601126102d8576020604051620151808152f35b80fd5b50346102d857806003193601126102d8576102f4612d0a565b338152600660205260ff604082205416156104495761031a6103153361299b565b61287c565b6014546001600160a01b0381161561043a5760a81c6001600160401b0316421161042b573381526016602052604081206015549081835260205260ff60408320541661041c5733825260166020526040822090825260205260408120600160ff1982541617905560145460ff60a01b61039860ff8360a01c166128b6565b60a01b1660ff60a01b19821617908160145560ff6040519260a01c16825260018060a01b0316907f93a8f3acc471767423e482b998d4f8d2dd61068cf066749b4d296f36bb64ad0060203392a36104196040516103f6604082612784565b60118152701c9958dbdd995c9e57d85c1c1c9bdd9959607a1b6020820152612daa565b80f35b63017a521b60e51b8252600482fd5b638d0fa13360e01b8152600490fd5b638d0fa13360e01b8252600482fd5b633321153560e21b8152600490fd5b50346102d85760203660031901126102d857600435610475612ccd565b80825260126020526040822080546001600160a01b03161561051157600201805460ff8160481c16610502576001600160401b036104b48183166128c7565b1642116104f35760ff60401b1916600160401b17905533907f924813d717e221b5f46dcd8a56da1679e4612584ab3237d55e5faabf6f6a30798380a380f35b634c8d442960e01b8452600484fd5b63446d277b60e11b8452600484fd5b634c8d442960e01b8352600483fd5b50346102d85760603660031901126102d85761053a612757565b602435906044359161ffff83168093036105c6577f2e02e19641dbae8d0ee7cf4656d3cc039f7adb684e447de0492c12fe349bc9d59260609261057b612ccd565b6105896127108311156127fc565b151591600e5461ff008460081b169061ff00191617600e5580600f558161ffff19601054161760105560405192835260208301526040820152a180f35b8380fd5b50346102d857806003193601126102d857602060405162093a808152f35b50346102d857806003193601126102d857610601612d0a565b6014546001600160a01b038116908115610743576001600160401b038160a81c1642116107435760ff8160e81c1690600282106107095760ff8061064d607f61065a9560011c1661286a565b169160a01c161015612a06565b601480546001600160e81b03191690556015546106769061285b565b601555600580546001600160a01b03191682179055807f9504e318c48c2d15540e6faaea014f2855c06fc4df211f5e26a8fb99a6be7fdf8380a27f50146d0e3c60aa1d17a70635b05494f864e86144a2201275021014fbf08bafe28280a26104196040516106e5604082612784565b60128152711c9958dbdd995c9e57d99a5b985b1a5e995960721b6020820152612daa565b60405162461bcd60e51b815260206004820152601260248201527155563a6d696e2d322d677561726469616e7360701b6044820152606490fd5b638d0fa13360e01b8352600483fd5b50346102d85760203660031901126102d85761076c6126fb565b610774612d0a565b338252600660205260ff604083205416156108be5761079c6107953361299b565b151561287c565b6001600160a01b031680156108af576014546001600160a81b0319168117600160a01b1767ffffffffffffffff60a81b6107d542612835565b60a81b1660ff60e81b60075460e81b1691600160a81b600160f01b031916171760145561080360155461285b565b8060155533835260166020526040832090835260205260408220600160ff19825416179055604051817f9cc0dc5a29a0ebc421ec879559ba990d29c1fb967a227ed69c9f4e33faa04bff8480a2600181527f93a8f3acc471767423e482b998d4f8d2dd61068cf066749b4d296f36bb64ad0060203392a361041960405161088b604082612784565b60128152711c9958dbdd995c9e57dc995c5d595cdd195960721b6020820152612daa565b630fd9d18960e41b8252600482fd5b633321153560e21b8252600482fd5b50346102d857806003193601126102d857602061ffff60105416604051908152f35b50346102d857806003193601126102d85760206001600160401b03600a5416604051908152f35b50346102d857806003193601126102d85760a060175460ff81169081610986575b60ff908161094e607f826007541660011c1661286a565b6040519415158552818360081c1660208601521660408401526001600160401b038160101c16606084015260501c1615156080820152f35b601081901c6001600160401b03164211159150610937565b50346102d857806003193601126102d8576109b7612d0a565b338152600660205260ff60408220541615610449576109d86103153361299b565b60175460ff811615610ad55760101c6001600160401b03164211610ac6573381526019602052604081206018549081835260205260ff60408320541661041c5733825260196020526040822090825260205260408120600160ff1982541617905560175461ff00610a4e60ff8360081c166128b6565b60081b169061ff001916178060175560ff6040519160081c1681527f0ea7dfe497d90adcfba43ccd872c922d16653039b5d89b207ba8554c2cff14cd60203392a2610419604051610aa0604082612784565b60148152731a5b9a195c9a5d185b98d957d85c1c1c9bdd995960621b6020820152612daa565b6324dcf66760e21b8152600490fd5b6324dcf66760e21b8252600482fd5b50346102d857806003193601126102d8576002546040516001600160a01b039091168152602090f35b50346102d857806003193601126102d8576003546040516001600160a01b039091168152602090f35b50346102d857806003193601126102d8576020600b54604051908152f35b50346102d85760203660031901126102d857600435610b71612ccd565b610b79612d0a565b610b81612e1d565b610b89612e3a565b80825260126020526040822080546001600160a01b0316156105115760028101805460ff8160481c16610d365760ff8160401c1615610d27576001600160401b03610bd58183166128c7565b164211610d275760ff60481b1916600160481b17905560098054600160a01b600160e01b0319164260a01b600160a01b600160e01b03161790556002548154600183018054909392610c33926001600160a01b039081169116612e7d565b60018060a01b039054169054917fda19024f6708ce28e75d9c0ec389fb05a8e5cc9dfe520f61239c10d51a11e59c6020604051858152a381604051610c79604082612784565b60138152721c195b991a5b99d7dd1e17d95e1958dd5d1959606a1b60208201526004546001600160a01b03169081610cb4575b826001815580f35b813b15610d23578291610ced918360206040519788958694630303c28760e61b8652306004870152608060248701526084860190612716565b9060448501528284820391600319830160648701525201925af1610d13575b8180610cac565b610d1c91612784565b3881610d0c565b8280fd5b634c8d442960e01b8552600485fd5b63446d277b60e11b8552600485fd5b50346102d857806003193601126102d857610d5e612ccd565b610d66612d0a565b60175460ff811615610ad55760ff1916601755610d8460185461285b565b601855337f577d80a92396a49283a298935287995fee74eceefc62c3edfdf8257ec85462968280a2610419604051610dbd604082612784565b60158152741a5b9a195c9a5d185b98d957d8d85b98d95b1b1959605a1b6020820152612daa565b50346102d857806003193601126102d8576020600d54604051908152f35b50346102d857806003193601126102d85760206001600160401b03600c5460401c16604051908152f35b50346102d85760203660031901126102d857610e466126fb565b6001546001600160a01b03163303610ed357600580546001600160a01b0319166001600160a01b0392909216918217905560408051610eac91610e899082612784565b60118152703b30bab63a2fb337b931b2afb7bbb732b960791b6020820152612daa565b7f50146d0e3c60aa1d17a70635b05494f864e86144a2201275021014fbf08bafe28280a280f35b60405162461bcd60e51b815260206004820152600a6024820152692aab1d37b7363ca43ab160b11b6044820152606490fd5b50346102d85760203660031901126102d857610f1f612757565b610f27612ccd565b6010805462ff00001916821515821b62ff000016179055610f455780f35b6002546040516370a0823160e01b815230600482015290602090829060249082906001600160a01b03165afa908115610fbc578291610f86575b5060115580f35b90506020813d602011610fb4575b81610fa160209383612784565b81010312610fb0575138610f7f565b5080fd5b3d9150610f94565b6040513d84823e3d90fd5b50346102d85760203660031901126102d8576004356001600160401b038116809103610fb057610ff5612ccd565b610e108110158061101e575b61100a906127fc565b6001600160401b0319600a541617600a5580f35b5062093a80811115611001565b50346102d857806003193601126102d8576005546040516001600160a01b039091168152602090f35b612766565b50346102d85760203660031901126102d8576110736126fb565b61107b612ccd565b611083612d0a565b600980546001600160a01b0319166001600160a01b039290921691821790557f5e5418a3c3d9e12cae95b949efcf26cfdffb4dbc73cd1d2532a97f656e634bf58280a26104196040516110d7604082612784565b600d81526c1b995e1d1bd99ada5b97dcd95d609a1b6020820152612daa565b50346102d85760203660031901126102d857611110612757565b611118612ccd565b7f18a225f450380fd39da2a8986c15805afce4eb7f6efbdfe1d0bb9df17c8e7923602082151560ff19600e541660ff821617600e55604051908152a1156111885761041960405161116a604082612784565b600c81526b3b30bab63a2fb33937bd32b760a11b6020820152612daa565b610419604051611199604082612784565b600e81526d3b30bab63a2fbab7333937bd32b760911b6020820152612daa565b50346102d85760203660031901126102d8576004356001600160401b038116808203610d23576111fe906111eb612ccd565b610e10811015908161122b575b506127fc565b600c8054600160401b600160801b03191660409290921b67ffffffffffffffff60401b1691909117905580f35b6201518091501115386111f8565b50346102d857806003193601126102d8576020601354604051908152f35b50346102d85760203660031901126102d857604060e091600435815260126020522060ff60018060a01b038254169160026001820154910154906001600160401b0382166001600160401b036112ac826128c7565b16916040519586526020860152604085015280606085015242116080840152818160401c16151560a084015260481c16151560c0820152f35b50346102d85760403660031901126102d85761132b6113026126fb565b61130a612ccd565b611312612d0a565b61131a612e1d565b611322612e3a565b60243590612a41565b6001815580f35b50346102d857806003193601126102d85761134b612d0a565b611353612e3a565b6009546001600160a01b0316338190036115a25760175460ff811615611593576001600160401b038160101c1642116115935760ff8160501c16611584576113b860ff6113a9607f826007541660011c1661286a565b1660ff8360081c161015612a06565b60ff19166017556113ca60185461285b565b6018556002546040516370a0823160e01b81523060048201526001600160a01b0390911691602082602481865afa918215611545578492611550575b50600154604051630709df4560e01b81526004810192909252602090829060249082906001600160a01b03165afa908115611545578491611503575b506001600160a01b0381169283156114d05761145f918391612e7d565b6009546040519182526001600160a01b0316907fcc9c89312a2ac19bfbb488a107aa51e50162fc6a2ad5dad80dbba85e2a9a936890602090a361132b6040516114a9604082612784565b60158152741a5b9a195c9a5d185b98d957d99a5b985b1a5e9959605a1b6020820152612daa565b60405162461bcd60e51b815260206004820152600b60248201526a15558e9b9bcb5d985d5b1d60aa1b6044820152606490fd5b90506020813d60201161153d575b8161151e60209383612784565b810103126105c657516001600160a01b03811681036105c65738611442565b3d9150611511565b6040513d86823e3d90fd5b9091506020813d60201161157c575b8161156c60209383612784565b810103126105c657519038611406565b3d915061155f565b63781b949d60e11b8352600483fd5b6324dcf66760e21b8352600483fd5b631a4f16b960e21b8252600482fd5b50346102d85760203660031901126102d85760206115d56115d06126fb565b61299b565b6040519015158152f35b50346102d85760203660031901126102d857604060a091600435815260126020522060ff600180841b0382541691600260018201549101549060405193845260208401526001600160401b0381166040840152818160401c161515606084015260481c1615156080820152f35b50346102d85760203660031901126102d857600435611669612ccd565b80825260126020526040822080546001600160a01b03161561051157600201805460ff8160481c166105025760ff60481b1916600160481b17905533907f12cd094e454538586035071c64eb69c206d65137212e7d5e9d32d738540435708380a380f35b50346102d857806003193601126102d8576004546040516001600160a01b039091168152602090f35b50346102d857806003193601126102d857602060ff60075416604051908152f35b50346102d857806003193601126102d857611730612ccd565b6017805460ff60ff60501b011916600160501b179055337fec32f6be1cfe5f271330570749895d0cdcb3324846ee37b8a6ac973b4a27cf578280a261041960405161177c604082612784565b60128152711a5b9a195c9a5d185b98d957d9195b9a595960721b6020820152612daa565b50346102d85760203660031901126102d857600435815260126020526040812080546001600160a01b03161561188557600201805460ff8160481c16611876576001600160401b036117f38183166128c7565b164211156118405760ff60481b1916600160481b179055604080516104199161181c9082612784565b6012815271195e1c1a5c995917dd1e17d8db19585b995960721b6020820152612daa565b60405162461bcd60e51b815260206004820152600e60248201526d15558e9b9bdd0b595e1c1a5c995960921b6044820152606490fd5b63446d277b60e11b8352600483fd5b634c8d442960e01b8252600482fd5b50346102d857806003193601126102d8576020601154604051908152f35b50346102d85760203660031901126102d8576020906001600160401b03906040906001600160a01b036118e36126fb565b168152601a8452205416604051908152f35b50346102d857806003193601126102d8576001546040516001600160a01b039091168152602090f35b50346102d857806003193601126102d85760206001600160401b0360095460a01c16604051908152f35b50346102d85760403660031901126102d8576119626126fb565b602435908115158083036105c657611978612ccd565b611980612d0a565b6001600160a01b038216918215611c44576014546001600160a01b0316611c355782855260066020528160ff6040872054161515036119bd578480f35b82855260066020526040852060ff1981541660ff841617905583600014611b045760075460ff6119ee8183166128b6565b60ff19909216911617600755600854600160401b811015611af05791611a53602092611a2f8560016000805160206130248339815191529701600855612980565b9080546001600160a01b0360039390931b83811b199091169290931690921b179055565b838652601a82526040862080546001600160401b031916426001600160401b03161790555b604051908152a215611abd57611ab5604051611a95604082612784565b600e81526d19dd585c991a585b97d85919195960921b6020820152612daa565b388080808480f35b611ab5604051611ace604082612784565b601081526f19dd585c991a585b97dc995b5bdd995960821b6020820152612daa565b634e487b7160e01b86526041600452602486fd5b50919060075460ff81168015611c065760ff9060001901169060ff191617600755835b60085480821015611c1a5782611b3c83612980565b905460039190911b1c6001600160a01b031614611b5c5750600101611b27565b929391926000198101908111611c065790611a2f611b7c611b9493612980565b905460039190911b1c6001600160a01b031691612980565b6008548015611bf2576000805160206130248339815191529160209160001901611bbd81612980565b81549060018060a01b039060031b1b191690556008555b838652601a82526040862080546001600160401b0319169055611a78565b634e487b7160e01b85526031600452602485fd5b634e487b7160e01b86526011600452602486fd5b50509091602060008051602061302483398151915291611bd4565b631b11469b60e11b8552600485fd5b630fd9d18960e41b8552600485fd5b50346102d857806003193601126102d857602060ff60105460101c166040519015158152f35b5060403660031901126102d857611c8e6126fb565b6024356001600160401b038111610d235736602382011215610d23578060040135916001600160401b0383116105c65736602484840101116105c657611cd2612ccd565b611cda612d0a565b611ce2612e1d565b611cea612e3a565b6002546001600160a01b0382811691168114611e67576001546001600160a01b031614611e3657600d543411611e065760248493928493600c54611d496001600160401b03611d40818460401c168285166128e7565b16421015612907565b6001600160401b031916426001600160401b031617600c5560405192839282910183378101848152039134905af1611d7f612941565b9015611dd057600182611dcc9350611db7604051611d9e604082612784565b60078152666578656375746560c81b6020820152612daa565b55604051918291602083526020830190612716565b0390f35b60405162461bcd60e51b815260206004820152600e60248201526d15558e98d85b1b0b59985a5b195960921b6044820152606490fd5b60405162461bcd60e51b815260206004820152600860248201526755563a76616c756560c01b6044820152606490fd5b60405162461bcd60e51b81526020600482015260096024820152682aab1d373796b43ab160b91b6044820152606490fd5b60405162461bcd60e51b815260206004820152600b60248201526a2aab1d373796ba37b5b2b760a91b6044820152606490fd5b50346102d857806003193601126102d857611eb3612d0a565b338152600660205260ff6040822054161561044957611ed46103153361299b565b60175460ff811615610ad557600754611ef29060011c607f1661286a565b9061ff00611f0560ff8360081c166128b6565b60081b169160ff808461ff00198516179283601755169160081c161015611f2a578280f35b61ffff19161780601755611f3f60185461285b565b60185560ff6040519160081c1681527f82a4e870a30fcdcdb7097dff3667437d1d8574e2766560bb07e1f1fb4a5b151860203392a2611fbf604051611f85606082612784565b602281527f696e6865726974616e63655f63616e63656c6c65645f62795f677561726469616020820152616e7360f01b6040820152612daa565b38808280f35b50346102d85760a03660031901126102d857611fdf6126fb565b6024356001600160a01b0381169190829003610d23576044356001600160a01b03811692908390036105c6576064356001600160a01b038116919082900361219c576084356001600160a01b038116939084900361219857601b549060ff8216612189576001600160a01b03169081151580612180575b80612177575b156121485760ff19166001908117601b5580546001600160a01b031990811692909217905560028054821692909217909155600580548216851790556003805482169290921790915560048054909116919091179055600a80546001600160401b0319166201518017905569021e19e0c9bab2400000600b55600c8054600160401b600160801b03191660e160441b179055670de0b6b3a7640000600d55690a968163f0a57b400000600f556010805461ffff191661138817905560408051610eac916121299082612784565b600d81526c1d985d5b1d17d8dc99585d1959609a1b6020820152612daa565b60405162461bcd60e51b815260206004820152600760248201526655563a7a65726f60c81b6044820152606490fd5b5085151561205c565b50821515612056565b63141fb2bf60e01b8752600487fd5b8580fd5b8480fd5b50346102d857806003193601126102d8575060145460a0906001600160a01b038116906121d360e982901c607f1661286a565b6001600160401b038260a81c16908315159283612212575b9060ff8092604051968752871c166020860152166040840152606083015215156080820152f35b4283101593506121eb565b50346102d857806003193601126102d8576002546040516370a0823160e01b815230600482015290602090829060249082906001600160a01b03165afa908115610fbc578291612273575b602082604051908152f35b90506020813d6020116122a1575b8161228e60209383612784565b81010312610fb057602091505138612268565b3d9150612281565b50346102d857806003193601126102d85760206001600160401b03600c5416604051908152f35b50346102d857806003193601126102d857602060ff600e5460081c166040519015158152f35b50346102d85760203660031901126102d85760209060ff906040906001600160a01b036123216126fb565b168152600684522054166040519015158152f35b50346102d857806003193601126102d85761234e612ccd565b612356612d0a565b6014546001600160a01b03161561042b57601480546001600160e81b03191690556015546123839061285b565b601555337f8154b6c5e1fc90d44b49808ef93f9739148d0821411890f8cd684385e24b9f1e8280a26104196040516123bc604082612784565b60128152711c9958dbdd995c9e57d8d85b98d95b1b195960721b6020820152612daa565b50346102d857806003193601126102d8576123f9612d0a565b6009546001600160a01b031633036124bb5760175460ff8160501c166124ac57600169ffffffffffffffff000061242f42612835565b60101b1691818060501b031916171760175561244c60185461285b565b601855337f45169f9a6369d811de455bb5ecdc25c684355abe2deaf2f8d9b81618754ba3b48280a2610419604051612485604082612784565b60158152741a5b9a195c9a5d185b98d957dc995c5d595cdd1959605a1b6020820152612daa565b63781b949d60e11b8252600482fd5b631a4f16b960e21b8152600490fd5b50346102d857806003193601126102d8576020600f54604051908152f35b50346102d85760203660031901126102d857600435612505612ccd565b67016345785d8a000081101580612526575b612520906127fc565b600d5580f35b50678ac7230489e80000811115612517565b50346102d857806003193601126102d857604051908160206008549182815201908382600885526020852092855b81811061267457505061257b92500384612784565b8251906125a061258a836127bb565b926125986040519485612784565b8084526127bb565b602083019190601f1901368337835b85518110156125ec576001906125d76001600160a01b036125d0838a6127d2565b511661299b565b6125e182876127d2565b9015159052016125af565b509083859260405194859460408601906040875251809152606086019290845b818110612652575050506020908583038287015251918281520192915b818110612637575050500390f35b82511515845285945060209384019390920191600101612629565b82516001600160a01b031685528897506020948501949092019160010161260c565b84546001600160a01b0316835260019485019488945060209093019201612566565b50346102d857806003193601126102d8576009546040516001600160a01b039091168152602090f35b50346102d857806003193601126102d857602060ff600e54166040519015158152f35b50346102d857806003193601126102d857610f45612ccd565b600435906001600160a01b038216820361271157565b600080fd5b919082519283825260005b848110612742575050826000602080949584010152601f8019910116010190565b80602080928401015182828601015201612721565b60043590811515820361271157565b3461271157600036600319011261271157602060405162278d008152f35b90601f801991011681019081106001600160401b038211176127a557604052565b634e487b7160e01b600052604160045260246000fd5b6001600160401b0381116127a55760051b60200190565b80518210156127e65760209160051b010190565b634e487b7160e01b600052603260045260246000fd5b1561280357565b60405162461bcd60e51b815260206004820152600a60248201526915558e9a5b9d985b1a5960b21b6044820152606490fd5b9062278d00820180921161284557565b634e487b7160e01b600052601160045260246000fd5b60001981146128455760010190565b60ff60019116019060ff821161284557565b1561288357565b60405162461bcd60e51b815260206004820152600b60248201526a55563a696d6d617475726560a81b6044820152606490fd5b60ff1660ff81146128455760010190565b6001600160401b0362015180911601906001600160401b03821161284557565b906001600160401b03809116911601906001600160401b03821161284557565b1561290e57565b60405162461bcd60e51b815260206004820152600b60248201526a2aab1d31b7b7b63237bbb760a91b6044820152606490fd5b3d1561297b573d906001600160401b0382116127a5576040519161296f601f8201601f191660200184612784565b82523d6000602084013e565b606090565b6008548110156127e657600860005260206000200190600090565b6001600160a01b031660008181526006602052604090205460ff1615612a0057600052601a6020526001600160401b036040600020541680156129fa5762093a80016001600160401b038111612845576001600160401b031642101590565b50600190565b50600090565b15612a0d57565b60405162461bcd60e51b815260206004820152600c60248201526b15558e9d1a1c995cda1bdb1960a21b6044820152606490fd5b600091906001600160a01b038116908115612cbe57612a776001600160401b03611d408160095460a01c1682600a5416906128e7565b612a8083612f4c565b612b945760098054600160a01b600160e01b0319164260a01b600160a01b600160e01b0316179055600254612abf9184916001600160a01b0316612e7d565b7f1f4e9075aadab47c6d1822e19226819c4482f4326012945c69bb143c6861982a6020604051848152a2604051612af7604082612784565b60088152673a3930b739b332b960c11b60208201526004546001600160a01b03169081612b25575b50505050565b813b156105c6578391612b5e918360206040519687958694630303c28760e61b8652306004870152608060248701526084860190612716565b9060448501528284820391600319830160648701525201925af1612b84575b8080612b1f565b81612b8e91612784565b38612b7d565b509060135490612ba38261285b565b60135560405160a081018181106001600160401b03821117611af057604090815284825260208083018481526001600160401b03428116858501908152606086018a8152608087018b8152898c5260128652868c20975188546001600160a01b039091166001600160a01b0319909116178855935160018801559051600290960180549151935160ff60481b90151560481b1660ff60401b941515871b94909416969092166001600160501b0319909116179490941717909255519182527f72c131e4f3fead122420dfa8d1a10e700e5e3badef6ea9b934ce82124515d1ce91a350612cbc604051612c96604082612784565b601481527318589b9bdc9b585b17dd1e17d9195d1958dd195960621b6020820152612daa565b565b630fd9d18960e41b8452600484fd5b6005546001600160a01b03163303612ce157565b63c0b06f0b60e01b60005260046000fd5b90816020910312612711575180151581036127115790565b6003546001600160a01b03168015159081612d38575b50612d2757565b63105aa7fb60e31b60005260046000fd5b604051631293efbb60e21b81523060048201529150602090829060249082905afa908115612d9e57600091612d6f575b5038612d20565b612d91915060203d602011612d97575b612d898183612784565b810190612cf2565b38612d68565b503d612d7f565b6040513d6000823e3d90fd5b6004546000916001600160a01b039091169081612dc657505050565b813b15610d2357612dfe83928392604051948580948193633ddd61ab60e21b8352306004840152606060248401526064830190612716565b33604483015203925af1612e10575050565b81612e1a91612784565b50565b60ff600e5416612e2957565b6357fa752160e01b60005260046000fd5b600160005403612e4b576002600055565b60405162461bcd60e51b815260206004820152600a6024820152697265656e7472616e637960b01b6044820152606490fd5b6000929183809360405190602082019363a9059cbb60e01b855260018060a01b03166024830152604482015260448152612eb8606482612784565b51926001600160a01b03165af1612ecd612941565b81612f1d575b5015612edb57565b60405162461bcd60e51b815260206004820152601a60248201527914d85999515490cc8c0e881d1c985b9cd9995c8819985a5b195960321b6044820152606490fd5b8051801592508215612f32575b505038612ed3565b612f459250602080918301019101612cf2565b3880612f2a565b600e5460081c60ff161561301c57601054600060ff8260101c16600014612f995750601154905b8115612f915761ffff16808202918204036128455761271090041090565b505050600090565b6002546040516370a0823160e01b815230600482015290602090829060249082906001600160a01b03165afa918215613010578092612fdb575b505090612f73565b9091506020823d602011613008575b81612ff760209383612784565b810103126102d85750513880612fd3565b3d9150612fea565b604051903d90823e3d90fd5b600f54109056fec4459d655e1efe034a75446f1f4db087f75d23bdfabccffafa6384cdb23a1544a26469706673582212206de04297cdd0be7f98afb5ea51b80c31ce00a88a57df3fc047dcb55bce0cb4ca64736f6c634300081e0033a26469706673582212201ec858fa4ab46aa35a4c8770352ab6bb31cb20fe6226f7e7d2b5e1775bebfeed64736f6c634300081e0033",
  "linkReferences": {},
  "deployedLinkReferences": {}
}