{
  "_format": "hh-sol-artifact-1",
  "contractName": "UserVault",
  "sourceName": "contracts/UserVault.sol",
  "abi": [
    {
      "inputs": [
        {
          "internalType": "address",
          "name": "_hub",
          "type": "address"
        },
        {
          "internalType": "address",
          "name": "_vfide",
          "type": "address"
        },
        {
          "internalType": "address",
          "name": "_owner",
          "type": "address"
        },
        {
          "internalType": "address",
          "name": "_securityHub",
          "type": "address"
        },
        {
          "internalType": "address",
          "name": "_ledger",
          "type": "address"
        }
      ],
      "stateMutability": "nonpayable",
      "type": "constructor"
    },
    {
      "inputs": [],
      "name": "UV_AlreadyInitialized",
      "type": "error"
    },
    {
      "inputs": [],
      "name": "UV_AlreadyVoted",
      "type": "error"
    },
    {
      "inputs": [],
      "name": "UV_Frozen",
      "type": "error"
    },
    {
      "inputs": [],
      "name": "UV_InheritanceDenied",
      "type": "error"
    },
    {
      "inputs": [],
      "name": "UV_Locked",
      "type": "error"
    },
    {
      "inputs": [],
      "name": "UV_NoInheritance",
      "type": "error"
    },
    {
      "inputs": [],
      "name": "UV_NoPendingTx",
      "type": "error"
    },
    {
      "inputs": [],
      "name": "UV_NoRecovery",
      "type": "error"
    },
    {
      "inputs": [],
      "name": "UV_NotGuardian",
      "type": "error"
    },
    {
      "inputs": [],
      "name": "UV_NotNextOfKin",
      "type": "error"
    },
    {
      "inputs": [],
      "name": "UV_NotOwner",
      "type": "error"
    },
    {
      "inputs": [],
      "name": "UV_RecoveryActive",
      "type": "error"
    },
    {
      "inputs": [],
      "name": "UV_TxAlreadyProcessed",
      "type": "error"
    },
    {
      "inputs": [],
      "name": "UV_Zero",
      "type": "error"
    },
    {
      "anonymous": false,
      "inputs": [
        {
          "indexed": false,
          "internalType": "bool",
          "name": "usePercentage",
          "type": "bool"
        },
        {
          "indexed": false,
          "internalType": "uint256",
          "name": "fixedAmount",
          "type": "uint256"
        },
        {
          "indexed": false,
          "internalType": "uint16",
          "name": "percentageBps",
          "type": "uint16"
        }
      ],
      "name": "AbnormalThresholdSet",
      "type": "event"
    },
    {
      "anonymous": false,
      "inputs": [
        {
          "indexed": true,
          "internalType": "uint256",
          "name": "txId",
          "type": "uint256"
        },
        {
          "indexed": true,
          "internalType": "address",
          "name": "toVault",
          "type": "address"
        },
        {
          "indexed": false,
          "internalType": "uint256",
          "name": "amount",
          "type": "uint256"
        }
      ],
      "name": "AbnormalTransactionDetected",
      "type": "event"
    },
    {
      "anonymous": false,
      "inputs": [
        {
          "indexed": true,
          "internalType": "address",
          "name": "guardian",
          "type": "address"
        },
        {
          "indexed": false,
          "internalType": "bool",
          "name": "active",
          "type": "bool"
        }
      ],
      "name": "GuardianSet",
      "type": "event"
    },
    {
      "anonymous": false,
      "inputs": [
        {
          "indexed": true,
          "internalType": "address",
          "name": "guardian",
          "type": "address"
        },
        {
          "indexed": false,
          "internalType": "uint8",
          "name": "approvals",
          "type": "uint8"
        }
      ],
      "name": "InheritanceApproved",
      "type": "event"
    },
    {
      "anonymous": false,
      "inputs": [
        {
          "indexed": true,
          "internalType": "address",
          "name": "cancelledBy",
          "type": "address"
        }
      ],
      "name": "InheritanceCancelled",
      "type": "event"
    },
    {
      "anonymous": false,
      "inputs": [
        {
          "indexed": true,
          "internalType": "address",
          "name": "cancelledBy",
          "type": "address"
        },
        {
          "indexed": false,
          "internalType": "uint8",
          "name": "approvals",
          "type": "uint8"
        }
      ],
      "name": "InheritanceCancelledByGuardians",
      "type": "event"
    },
    {
      "anonymous": false,
      "inputs": [
        {
          "indexed": true,
          "internalType": "address",
          "name": "owner",
          "type": "address"
        }
      ],
      "name": "InheritanceDenied",
      "type": "event"
    },
    {
      "anonymous": false,
      "inputs": [
        {
          "indexed": true,
          "internalType": "address",
          "name": "inheritor",
          "type": "address"
        },
        {
          "indexed": true,
          "internalType": "address",
          "name": "inheritorVault",
          "type": "address"
        },
        {
          "indexed": false,
          "internalType": "uint256",
          "name": "amount",
          "type": "uint256"
        }
      ],
      "name": "InheritanceFinalized",
      "type": "event"
    },
    {
      "anonymous": false,
      "inputs": [
        {
          "indexed": true,
          "internalType": "address",
          "name": "nextOfKin",
          "type": "address"
        }
      ],
      "name": "InheritanceRequested",
      "type": "event"
    },
    {
      "anonymous": false,
      "inputs": [
        {
          "indexed": true,
          "internalType": "address",
          "name": "kin",
          "type": "address"
        }
      ],
      "name": "NextOfKinSet",
      "type": "event"
    },
    {
      "anonymous": false,
      "inputs": [
        {
          "indexed": true,
          "internalType": "address",
          "name": "newOwner",
          "type": "address"
        }
      ],
      "name": "OwnerSet",
      "type": "event"
    },
    {
      "anonymous": false,
      "inputs": [
        {
          "indexed": true,
          "internalType": "address",
          "name": "guardian",
          "type": "address"
        },
        {
          "indexed": true,
          "internalType": "address",
          "name": "proposedOwner",
          "type": "address"
        },
        {
          "indexed": false,
          "internalType": "uint8",
          "name": "approvals",
          "type": "uint8"
        }
      ],
      "name": "RecoveryApproved",
      "type": "event"
    },
    {
      "anonymous": false,
      "inputs": [
        {
          "indexed": true,
          "internalType": "address",
          "name": "cancelledBy",
          "type": "address"
        }
      ],
      "name": "RecoveryCancelled",
      "type": "event"
    },
    {
      "anonymous": false,
      "inputs": [
        {
          "indexed": true,
          "internalType": "address",
          "name": "newOwner",
          "type": "address"
        }
      ],
      "name": "RecoveryFinalized",
      "type": "event"
    },
    {
      "anonymous": false,
      "inputs": [
        {
          "indexed": true,
          "internalType": "address",
          "name": "proposedOwner",
          "type": "address"
        }
      ],
      "name": "RecoveryRequested",
      "type": "event"
    },
    {
      "anonymous": false,
      "inputs": [
        {
          "indexed": true,
          "internalType": "uint256",
          "name": "txId",
          "type": "uint256"
        },
        {
          "indexed": true,
          "internalType": "address",
          "name": "by",
          "type": "address"
        }
      ],
      "name": "TransactionApproved",
      "type": "event"
    },
    {
      "anonymous": false,
      "inputs": [
        {
          "indexed": true,
          "internalType": "uint256",
          "name": "txId",
          "type": "uint256"
        },
        {
          "indexed": true,
          "internalType": "address",
          "name": "by",
          "type": "address"
        }
      ],
      "name": "TransactionDenied",
      "type": "event"
    },
    {
      "anonymous": false,
      "inputs": [
        {
          "indexed": true,
          "internalType": "uint256",
          "name": "txId",
          "type": "uint256"
        },
        {
          "indexed": true,
          "internalType": "address",
          "name": "toVault",
          "type": "address"
        },
        {
          "indexed": false,
          "internalType": "uint256",
          "name": "amount",
          "type": "uint256"
        }
      ],
      "name": "TransactionExecuted",
      "type": "event"
    },
    {
      "anonymous": false,
      "inputs": [
        {
          "indexed": true,
          "internalType": "address",
          "name": "spender",
          "type": "address"
        },
        {
          "indexed": false,
          "internalType": "uint256",
          "name": "amount",
          "type": "uint256"
        }
      ],
      "name": "VaultApprove",
      "type": "event"
    },
    {
      "anonymous": false,
      "inputs": [
        {
          "indexed": false,
          "internalType": "bool",
          "name": "frozen",
          "type": "bool"
        }
      ],
      "name": "VaultFrozen",
      "type": "event"
    },
    {
      "anonymous": false,
      "inputs": [
        {
          "indexed": true,
          "internalType": "address",
          "name": "toVault",
          "type": "address"
        },
        {
          "indexed": false,
          "internalType": "uint256",
          "name": "amount",
          "type": "uint256"
        }
      ],
      "name": "VaultTransfer",
      "type": "event"
    },
    {
      "inputs": [],
      "name": "GUARDIAN_MATURITY_PERIOD",
      "outputs": [
        {
          "internalType": "uint64",
          "name": "",
          "type": "uint64"
        }
      ],
      "stateMutability": "view",
      "type": "function"
    },
    {
      "inputs": [],
      "name": "INHERITANCE_EXPIRY",
      "outputs": [
        {
          "internalType": "uint64",
          "name": "",
          "type": "uint64"
        }
      ],
      "stateMutability": "view",
      "type": "function"
    },
    {
      "inputs": [],
      "name": "PENDING_TX_EXPIRY",
      "outputs": [
        {
          "internalType": "uint64",
          "name": "",
          "type": "uint64"
        }
      ],
      "stateMutability": "view",
      "type": "function"
    },
    {
      "inputs": [],
      "name": "RECOVERY_EXPIRY",
      "outputs": [
        {
          "internalType": "uint64",
          "name": "",
          "type": "uint64"
        }
      ],
      "stateMutability": "view",
      "type": "function"
    },
    {
      "inputs": [
        {
          "internalType": "address",
          "name": "newOwner",
          "type": "address"
        }
      ],
      "name": "__forceSetOwner",
      "outputs": [],
      "stateMutability": "nonpayable",
      "type": "function"
    },
    {
      "inputs": [],
      "name": "abnormalTransactionPercentageBps",
      "outputs": [
        {
          "internalType": "uint16",
          "name": "",
          "type": "uint16"
        }
      ],
      "stateMutability": "view",
      "type": "function"
    },
    {
      "inputs": [],
      "name": "abnormalTransactionThreshold",
      "outputs": [
        {
          "internalType": "uint256",
          "name": "",
          "type": "uint256"
        }
      ],
      "stateMutability": "view",
      "type": "function"
    },
    {
      "inputs": [],
      "name": "approveInheritance",
      "outputs": [],
      "stateMutability": "nonpayable",
      "type": "function"
    },
    {
      "inputs": [
        {
          "internalType": "uint256",
          "name": "txId",
          "type": "uint256"
        }
      ],
      "name": "approvePendingTransaction",
      "outputs": [],
      "stateMutability": "nonpayable",
      "type": "function"
    },
    {
      "inputs": [],
      "name": "approveRecovery",
      "outputs": [],
      "stateMutability": "nonpayable",
      "type": "function"
    },
    {
      "inputs": [],
      "name": "balanceSnapshot",
      "outputs": [
        {
          "internalType": "uint256",
          "name": "",
          "type": "uint256"
        }
      ],
      "stateMutability": "view",
      "type": "function"
    },
    {
      "inputs": [],
      "name": "cancelInheritance",
      "outputs": [],
      "stateMutability": "nonpayable",
      "type": "function"
    },
    {
      "inputs": [],
      "name": "cancelRecovery",
      "outputs": [],
      "stateMutability": "nonpayable",
      "type": "function"
    },
    {
      "inputs": [
        {
          "internalType": "uint256",
          "name": "txId",
          "type": "uint256"
        }
      ],
      "name": "cleanupExpiredTransaction",
      "outputs": [],
      "stateMutability": "nonpayable",
      "type": "function"
    },
    {
      "inputs": [],
      "name": "denyInheritance",
      "outputs": [],
      "stateMutability": "nonpayable",
      "type": "function"
    },
    {
      "inputs": [
        {
          "internalType": "uint256",
          "name": "txId",
          "type": "uint256"
        }
      ],
      "name": "denyPendingTransaction",
      "outputs": [],
      "stateMutability": "nonpayable",
      "type": "function"
    },
    {
      "inputs": [
        {
          "internalType": "address",
          "name": "target",
          "type": "address"
        },
        {
          "internalType": "bytes",
          "name": "data",
          "type": "bytes"
        }
      ],
      "name": "execute",
      "outputs": [
        {
          "internalType": "bytes",
          "name": "",
          "type": "bytes"
        }
      ],
      "stateMutability": "payable",
      "type": "function"
    },
    {
      "inputs": [],
      "name": "executeCooldown",
      "outputs": [
        {
          "internalType": "uint64",
          "name": "",
          "type": "uint64"
        }
      ],
      "stateMutability": "view",
      "type": "function"
    },
    {
      "inputs": [
        {
          "internalType": "uint256",
          "name": "txId",
          "type": "uint256"
        }
      ],
      "name": "executePendingTransaction",
      "outputs": [],
      "stateMutability": "nonpayable",
      "type": "function"
    },
    {
      "inputs": [],
      "name": "finalizeInheritance",
      "outputs": [],
      "stateMutability": "nonpayable",
      "type": "function"
    },
    {
      "inputs": [],
      "name": "finalizeRecovery",
      "outputs": [],
      "stateMutability": "nonpayable",
      "type": "function"
    },
    {
      "inputs": [],
      "name": "frozen",
      "outputs": [
        {
          "internalType": "bool",
          "name": "",
          "type": "bool"
        }
      ],
      "stateMutability": "view",
      "type": "function"
    },
    {
      "inputs": [],
      "name": "getBalance",
      "outputs": [
        {
          "internalType": "uint256",
          "name": "",
          "type": "uint256"
        }
      ],
      "stateMutability": "view",
      "type": "function"
    },
    {
      "inputs": [],
      "name": "getGuardians",
      "outputs": [
        {
          "internalType": "address[]",
          "name": "guardians",
          "type": "address[]"
        },
        {
          "internalType": "bool[]",
          "name": "mature",
          "type": "bool[]"
        }
      ],
      "stateMutability": "view",
      "type": "function"
    },
    {
      "inputs": [],
      "name": "getInheritanceStatus",
      "outputs": [
        {
          "internalType": "bool",
          "name": "active",
          "type": "bool"
        },
        {
          "internalType": "uint8",
          "name": "approvals",
          "type": "uint8"
        },
        {
          "internalType": "uint8",
          "name": "threshold",
          "type": "uint8"
        },
        {
          "internalType": "uint64",
          "name": "expiryTime",
          "type": "uint64"
        },
        {
          "internalType": "bool",
          "name": "denied",
          "type": "bool"
        }
      ],
      "stateMutability": "view",
      "type": "function"
    },
    {
      "inputs": [],
      "name": "getRecoveryStatus",
      "outputs": [
        {
          "internalType": "address",
          "name": "proposedOwner",
          "type": "address"
        },
        {
          "internalType": "uint8",
          "name": "approvals",
          "type": "uint8"
        },
        {
          "internalType": "uint8",
          "name": "threshold",
          "type": "uint8"
        },
        {
          "internalType": "uint64",
          "name": "expiryTime",
          "type": "uint64"
        },
        {
          "internalType": "bool",
          "name": "active",
          "type": "bool"
        }
      ],
      "stateMutability": "view",
      "type": "function"
    },
    {
      "inputs": [
        {
          "internalType": "uint256",
          "name": "txId",
          "type": "uint256"
        }
      ],
      "name": "getTransactionWithExpiry",
      "outputs": [
        {
          "internalType": "address",
          "name": "toVault",
          "type": "address"
        },
        {
          "internalType": "uint256",
          "name": "amount",
          "type": "uint256"
        },
        {
          "internalType": "uint64",
          "name": "requestTime",
          "type": "uint64"
        },
        {
          "internalType": "uint64",
          "name": "expiresAt",
          "type": "uint64"
        },
        {
          "internalType": "bool",
          "name": "isExpired",
          "type": "bool"
        },
        {
          "internalType": "bool",
          "name": "approved",
          "type": "bool"
        },
        {
          "internalType": "bool",
          "name": "executed",
          "type": "bool"
        }
      ],
      "stateMutability": "view",
      "type": "function"
    },
    {
      "inputs": [
        {
          "internalType": "address",
          "name": "",
          "type": "address"
        }
      ],
      "name": "guardianAddTime",
      "outputs": [
        {
          "internalType": "uint64",
          "name": "",
          "type": "uint64"
        }
      ],
      "stateMutability": "view",
      "type": "function"
    },
    {
      "inputs": [],
      "name": "guardianCancelInheritance",
      "outputs": [],
      "stateMutability": "nonpayable",
      "type": "function"
    },
    {
      "inputs": [],
      "name": "guardianCount",
      "outputs": [
        {
          "internalType": "uint8",
          "name": "",
          "type": "uint8"
        }
      ],
      "stateMutability": "view",
      "type": "function"
    },
    {
      "inputs": [],
      "name": "hub",
      "outputs": [
        {
          "internalType": "address",
          "name": "",
          "type": "address"
        }
      ],
      "stateMutability": "view",
      "type": "function"
    },
    {
      "inputs": [
        {
          "internalType": "address",
          "name": "_hub",
          "type": "address"
        },
        {
          "internalType": "address",
          "name": "_vfide",
          "type": "address"
        },
        {
          "internalType": "address",
          "name": "_owner",
          "type": "address"
        },
        {
          "internalType": "address",
          "name": "_securityHub",
          "type": "address"
        },
        {
          "internalType": "address",
          "name": "_ledger",
          "type": "address"
        }
      ],
      "name": "initialize",
      "outputs": [],
      "stateMutability": "nonpayable",
      "type": "function"
    },
    {
      "inputs": [
        {
          "internalType": "address",
          "name": "",
          "type": "address"
        }
      ],
      "name": "isGuardian",
      "outputs": [
        {
          "internalType": "bool",
          "name": "",
          "type": "bool"
        }
      ],
      "stateMutability": "view",
      "type": "function"
    },
    {
      "inputs": [
        {
          "internalType": "address",
          "name": "g",
          "type": "address"
        }
      ],
      "name": "isGuardianMature",
      "outputs": [
        {
          "internalType": "bool",
          "name": "",
          "type": "bool"
        }
      ],
      "stateMutability": "view",
      "type": "function"
    },
    {
      "inputs": [],
      "name": "largeTransferThreshold",
      "outputs": [
        {
          "internalType": "uint256",
          "name": "",
          "type": "uint256"
        }
      ],
      "stateMutability": "view",
      "type": "function"
    },
    {
      "inputs": [],
      "name": "lastExecuteTime",
      "outputs": [
        {
          "internalType": "uint64",
          "name": "",
          "type": "uint64"
        }
      ],
      "stateMutability": "view",
      "type": "function"
    },
    {
      "inputs": [],
      "name": "lastWithdrawalTime",
      "outputs": [
        {
          "internalType": "uint64",
          "name": "",
          "type": "uint64"
        }
      ],
      "stateMutability": "view",
      "type": "function"
    },
    {
      "inputs": [],
      "name": "ledger",
      "outputs": [
        {
          "internalType": "contract IProofLedger",
          "name": "",
          "type": "address"
        }
      ],
      "stateMutability": "view",
      "type": "function"
    },
    {
      "inputs": [],
      "name": "maxExecuteValue",
      "outputs": [
        {
          "internalType": "uint256",
          "name": "",
          "type": "uint256"
        }
      ],
      "stateMutability": "view",
      "type": "function"
    },
    {
      "inputs": [],
      "name": "nextOfKin",
      "outputs": [
        {
          "internalType": "address",
          "name": "",
          "type": "address"
        }
      ],
      "stateMutability": "view",
      "type": "function"
    },
    {
      "inputs": [],
      "name": "owner",
      "outputs": [
        {
          "internalType": "address",
          "name": "",
          "type": "address"
        }
      ],
      "stateMutability": "view",
      "type": "function"
    },
    {
      "inputs": [
        {
          "internalType": "uint256",
          "name": "",
          "type": "uint256"
        }
      ],
      "name": "pendingTransactions",
      "outputs": [
        {
          "internalType": "address",
          "name": "toVault",
          "type": "address"
        },
        {
          "internalType": "uint256",
          "name": "amount",
          "type": "uint256"
        },
        {
          "internalType": "uint64",
          "name": "requestTime",
          "type": "uint64"
        },
        {
          "internalType": "bool",
          "name": "approved",
          "type": "bool"
        },
        {
          "internalType": "bool",
          "name": "executed",
          "type": "bool"
        }
      ],
      "stateMutability": "view",
      "type": "function"
    },
    {
      "inputs": [],
      "name": "pendingTxCount",
      "outputs": [
        {
          "internalType": "uint256",
          "name": "",
          "type": "uint256"
        }
      ],
      "stateMutability": "view",
      "type": "function"
    },
    {
      "inputs": [],
      "name": "requestInheritance",
      "outputs": [],
      "stateMutability": "nonpayable",
      "type": "function"
    },
    {
      "inputs": [
        {
          "internalType": "address",
          "name": "proposed",
          "type": "address"
        }
      ],
      "name": "requestRecovery",
      "outputs": [],
      "stateMutability": "nonpayable",
      "type": "function"
    },
    {
      "inputs": [],
      "name": "securityHub",
      "outputs": [
        {
          "internalType": "contract ISecurityHub",
          "name": "",
          "type": "address"
        }
      ],
      "stateMutability": "view",
      "type": "function"
    },
    {
      "inputs": [
        {
          "internalType": "bool",
          "name": "_usePercentage",
          "type": "bool"
        },
        {
          "internalType": "uint256",
          "name": "_fixedAmount",
          "type": "uint256"
        },
        {
          "internalType": "uint16",
          "name": "_percentageBps",
          "type": "uint16"
        }
      ],
      "name": "setAbnormalThresholdMode",
      "outputs": [],
      "stateMutability": "nonpayable",
      "type": "function"
    },
    {
      "inputs": [
        {
          "internalType": "bool",
          "name": "_useSnapshot",
          "type": "bool"
        }
      ],
      "name": "setBalanceSnapshotMode",
      "outputs": [],
      "stateMutability": "nonpayable",
      "type": "function"
    },
    {
      "inputs": [
        {
          "internalType": "uint64",
          "name": "_cooldown",
          "type": "uint64"
        }
      ],
      "name": "setExecuteCooldown",
      "outputs": [],
      "stateMutability": "nonpayable",
      "type": "function"
    },
    {
      "inputs": [
        {
          "internalType": "bool",
          "name": "_frozen",
          "type": "bool"
        }
      ],
      "name": "setFrozen",
      "outputs": [],
      "stateMutability": "nonpayable",
      "type": "function"
    },
    {
      "inputs": [
        {
          "internalType": "address",
          "name": "g",
          "type": "address"
        },
        {
          "internalType": "bool",
          "name": "active",
          "type": "bool"
        }
      ],
      "name": "setGuardian",
      "outputs": [],
      "stateMutability": "nonpayable",
      "type": "function"
    },
    {
      "inputs": [
        {
          "internalType": "uint256",
          "name": "_max",
          "type": "uint256"
        }
      ],
      "name": "setMaxExecuteValue",
      "outputs": [],
      "stateMutability": "nonpayable",
      "type": "function"
    },
    {
      "inputs": [
        {
          "internalType": "address",
          "name": "kin",
          "type": "address"
        }
      ],
      "name": "setNextOfKin",
      "outputs": [],
      "stateMutability": "nonpayable",
      "type": "function"
    },
    {
      "inputs": [
        {
          "internalType": "uint64",
          "name": "_cooldown",
          "type": "uint64"
        }
      ],
      "name": "setWithdrawalCooldown",
      "outputs": [],
      "stateMutability": "nonpayable",
      "type": "function"
    },
    {
      "inputs": [
        {
          "internalType": "address",
          "name": "toVault",
          "type": "address"
        },
        {
          "internalType": "uint256",
          "name": "amount",
          "type": "uint256"
        }
      ],
      "name": "transferVFIDE",
      "outputs": [],
      "stateMutability": "nonpayable",
      "type": "function"
    },
    {
      "inputs": [],
      "name": "updateBalanceSnapshot",
      "outputs": [],
      "stateMutability": "nonpayable",
      "type": "function"
    },
    {
      "inputs": [],
      "name": "useBalanceSnapshot",
      "outputs": [
        {
          "internalType": "bool",
          "name": "",
          "type": "bool"
        }
      ],
      "stateMutability": "view",
      "type": "function"
    },
    {
      "inputs": [],
      "name": "usePercentageThreshold",
      "outputs": [
        {
          "internalType": "bool",
          "name": "",
          "type": "bool"
        }
      ],
      "stateMutability": "view",
      "type": "function"
    },
    {
      "inputs": [],
      "name": "vfideToken",
      "outputs": [
        {
          "internalType": "address",
          "name": "",
          "type": "address"
        }
      ],
      "stateMutability": "view",
      "type": "function"
    },
    {
      "inputs": [],
      "name": "withdrawalCooldown",
      "outputs": [
        {
          "internalType": "uint64",
          "name": "",
          "type": "uint64"
        }
      ],
      "stateMutability": "view",
      "type": "function"
    },
    {
      "stateMutability": "payable",
      "type": "receive"
    }
  ],
  "bytecode": "0x608080604052346102ba57600060a082613386803803809161002182856102bf565b8339810103126102b757610034826102f8565b610040602084016102f8565b61004c604085016102f8565b90610065608061005e606088016102f8565b96016102f8565b60018555926001600160a01b0316801515806102a5575b80610293575b1561026457600180546001600160a01b03199081169290921790556002805482166001600160a01b03938416179055600580548216938316938417905560038054821696831696909617909555600480549095169216918217909355600a80546001600160401b0319166201518017905569021e19e0c9bab2400000600b55600c8054600160401b600160801b031916690e100000000000000000179055670de0b6b3a7640000600d55690a968163f0a57b400000600f556010805461ffff191661138817905560408051919082016001600160401b0381118382101761025057604052600d82526c1d985d5b1d17d8dc99585d1959609a1b6020830152806101ba575b604051847f50146d0e3c60aa1d17a70635b05494f864e86144a2201275021014fbf08bafe28580a2613079908161030d8239f35b803b1561024c57908290604051928391633ddd61ab60e21b835230600484015260606024840152805190816064850152845b82811061023157505083608484838383839684010152336044830152601f801991011681010301925af1610221575b80610186565b8161022b916102bf565b3861021b565b602081830181015160848984010152889650879550016101ec565b8280fd5b634e487b7160e01b84526041600452602484fd5b60405162461bcd60e51b815260206004820152600760248201526655563a7a65726f60c81b6044820152606490fd5b506001600160a01b0383161515610082565b506001600160a01b038216151561007c565b80fd5b600080fd5b601f909101601f19168101906001600160401b038211908210176102e257604052565b634e487b7160e01b600052604160045260246000fd5b51906001600160a01b03821682036102ba5756fe6080604052600436101561001b575b361561001957600080fd5b005b6000803560e01c806302037822146126e2578063054f7d9c146126bf57806306603f8d146126965780630665f04b14612538578063091ea9dc146124e8578063092cc1fb146124ca5780630b6946da146123e05780630ba234d6146123355780630c68ba21146122f65780630fbd22b0146122d0578063118f117f146122a957806312065fe01461221d578063124f8d9c146121a05780631459457a14611fc55780631bed8c6e14611e9a5780631cff79cd14611c79578063269b54b114611c535780632b8a1c5a1461194857806334a014dc1461191e578063365a86fc146118f557806342e01e73146118b25780635132124c14611894578063518d0959146117a0578063536b801d1461171757806354387ad7146116f657806356397c35146116cd5780635f8983fd1461164c57806363a8374d146115df57806363f95a3b146115b1578063688aa6ce146113325780636a150981146112e55780636b1994ea146112575780636d68e53b14611239578063700c5e7d14611054578063713c6cb3146111b95780637e932d32146110f6578063835316c7146110595780638b2bc3e7146110545780638da5cb5b1461102b5780638e48d08214610fc75780638f252d3414610f055780639362698c14610e2c57806393bcd85814610e025780639a0dd14014610de4578063aa14cc6b14610d45578063b50ef71b14610b54578063b5354ce514610b36578063b72d294314610b0d578063b8a71eec14610ae4578063ba58db511461099e578063c60cd99c14610916578063d6c89c60146108ef578063e2158ee7146108cd578063e24ba26514610752578063e2ccb305146105e8578063e6536fc5146105ca578063e6dd89ca14610520578063f9773f9214610458578063fcae8d38146102db5763fd4fa981146102bb575061000e565b346102d857806003193601126102d8576020604051620151808152f35b80fd5b50346102d857806003193601126102d8576102f4612d0a565b338152600660205260ff604082205416156104495761031a6103153361299b565b61287c565b6014546001600160a01b0381161561043a5760a81c6001600160401b0316421161042b573381526016602052604081206015549081835260205260ff60408320541661041c5733825260166020526040822090825260205260408120600160ff1982541617905560145460ff60a01b61039860ff8360a01c166128b6565b60a01b1660ff60a01b19821617908160145560ff6040519260a01c16825260018060a01b0316907f93a8f3acc471767423e482b998d4f8d2dd61068cf066749b4d296f36bb64ad0060203392a36104196040516103f6604082612784565b60118152701c9958dbdd995c9e57d85c1c1c9bdd9959607a1b6020820152612daa565b80f35b63017a521b60e51b8252600482fd5b638d0fa13360e01b8152600490fd5b638d0fa13360e01b8252600482fd5b633321153560e21b8152600490fd5b50346102d85760203660031901126102d857600435610475612ccd565b80825260126020526040822080546001600160a01b03161561051157600201805460ff8160481c16610502576001600160401b036104b48183166128c7565b1642116104f35760ff60401b1916600160401b17905533907f924813d717e221b5f46dcd8a56da1679e4612584ab3237d55e5faabf6f6a30798380a380f35b634c8d442960e01b8452600484fd5b63446d277b60e11b8452600484fd5b634c8d442960e01b8352600483fd5b50346102d85760603660031901126102d85761053a612757565b602435906044359161ffff83168093036105c6577f2e02e19641dbae8d0ee7cf4656d3cc039f7adb684e447de0492c12fe349bc9d59260609261057b612ccd565b6105896127108311156127fc565b151591600e5461ff008460081b169061ff00191617600e5580600f558161ffff19601054161760105560405192835260208301526040820152a180f35b8380fd5b50346102d857806003193601126102d857602060405162093a808152f35b50346102d857806003193601126102d857610601612d0a565b6014546001600160a01b038116908115610743576001600160401b038160a81c1642116107435760ff8160e81c1690600282106107095760ff8061064d607f61065a9560011c1661286a565b169160a01c161015612a06565b601480546001600160e81b03191690556015546106769061285b565b601555600580546001600160a01b03191682179055807f9504e318c48c2d15540e6faaea014f2855c06fc4df211f5e26a8fb99a6be7fdf8380a27f50146d0e3c60aa1d17a70635b05494f864e86144a2201275021014fbf08bafe28280a26104196040516106e5604082612784565b60128152711c9958dbdd995c9e57d99a5b985b1a5e995960721b6020820152612daa565b60405162461bcd60e51b815260206004820152601260248201527155563a6d696e2d322d677561726469616e7360701b6044820152606490fd5b638d0fa13360e01b8352600483fd5b50346102d85760203660031901126102d85761076c6126fb565b610774612d0a565b338252600660205260ff604083205416156108be5761079c6107953361299b565b151561287c565b6001600160a01b031680156108af576014546001600160a81b0319168117600160a01b1767ffffffffffffffff60a81b6107d542612835565b60a81b1660ff60e81b60075460e81b1691600160a81b600160f01b031916171760145561080360155461285b565b8060155533835260166020526040832090835260205260408220600160ff19825416179055604051817f9cc0dc5a29a0ebc421ec879559ba990d29c1fb967a227ed69c9f4e33faa04bff8480a2600181527f93a8f3acc471767423e482b998d4f8d2dd61068cf066749b4d296f36bb64ad0060203392a361041960405161088b604082612784565b60128152711c9958dbdd995c9e57dc995c5d595cdd195960721b6020820152612daa565b630fd9d18960e41b8252600482fd5b633321153560e21b8252600482fd5b50346102d857806003193601126102d857602061ffff60105416604051908152f35b50346102d857806003193601126102d85760206001600160401b03600a5416604051908152f35b50346102d857806003193601126102d85760a060175460ff81169081610986575b60ff908161094e607f826007541660011c1661286a565b6040519415158552818360081c1660208601521660408401526001600160401b038160101c16606084015260501c1615156080820152f35b601081901c6001600160401b03164211159150610937565b50346102d857806003193601126102d8576109b7612d0a565b338152600660205260ff60408220541615610449576109d86103153361299b565b60175460ff811615610ad55760101c6001600160401b03164211610ac6573381526019602052604081206018549081835260205260ff60408320541661041c5733825260196020526040822090825260205260408120600160ff1982541617905560175461ff00610a4e60ff8360081c166128b6565b60081b169061ff001916178060175560ff6040519160081c1681527f0ea7dfe497d90adcfba43ccd872c922d16653039b5d89b207ba8554c2cff14cd60203392a2610419604051610aa0604082612784565b60148152731a5b9a195c9a5d185b98d957d85c1c1c9bdd995960621b6020820152612daa565b6324dcf66760e21b8152600490fd5b6324dcf66760e21b8252600482fd5b50346102d857806003193601126102d8576002546040516001600160a01b039091168152602090f35b50346102d857806003193601126102d8576003546040516001600160a01b039091168152602090f35b50346102d857806003193601126102d8576020600b54604051908152f35b50346102d85760203660031901126102d857600435610b71612ccd565b610b79612d0a565b610b81612e1d565b610b89612e3a565b80825260126020526040822080546001600160a01b0316156105115760028101805460ff8160481c16610d365760ff8160401c1615610d27576001600160401b03610bd58183166128c7565b164211610d275760ff60481b1916600160481b17905560098054600160a01b600160e01b0319164260a01b600160a01b600160e01b03161790556002548154600183018054909392610c33926001600160a01b039081169116612e7d565b60018060a01b039054169054917fda19024f6708ce28e75d9c0ec389fb05a8e5cc9dfe520f61239c10d51a11e59c6020604051858152a381604051610c79604082612784565b60138152721c195b991a5b99d7dd1e17d95e1958dd5d1959606a1b60208201526004546001600160a01b03169081610cb4575b826001815580f35b813b15610d23578291610ced918360206040519788958694630303c28760e61b8652306004870152608060248701526084860190612716565b9060448501528284820391600319830160648701525201925af1610d13575b8180610cac565b610d1c91612784565b3881610d0c565b8280fd5b634c8d442960e01b8552600485fd5b63446d277b60e11b8552600485fd5b50346102d857806003193601126102d857610d5e612ccd565b610d66612d0a565b60175460ff811615610ad55760ff1916601755610d8460185461285b565b601855337f577d80a92396a49283a298935287995fee74eceefc62c3edfdf8257ec85462968280a2610419604051610dbd604082612784565b60158152741a5b9a195c9a5d185b98d957d8d85b98d95b1b1959605a1b6020820152612daa565b50346102d857806003193601126102d8576020600d54604051908152f35b50346102d857806003193601126102d85760206001600160401b03600c5460401c16604051908152f35b50346102d85760203660031901126102d857610e466126fb565b6001546001600160a01b03163303610ed357600580546001600160a01b0319166001600160a01b0392909216918217905560408051610eac91610e899082612784565b60118152703b30bab63a2fb337b931b2afb7bbb732b960791b6020820152612daa565b7f50146d0e3c60aa1d17a70635b05494f864e86144a2201275021014fbf08bafe28280a280f35b60405162461bcd60e51b815260206004820152600a6024820152692aab1d37b7363ca43ab160b11b6044820152606490fd5b50346102d85760203660031901126102d857610f1f612757565b610f27612ccd565b6010805462ff00001916821515821b62ff000016179055610f455780f35b6002546040516370a0823160e01b815230600482015290602090829060249082906001600160a01b03165afa908115610fbc578291610f86575b5060115580f35b90506020813d602011610fb4575b81610fa160209383612784565b81010312610fb0575138610f7f565b5080fd5b3d9150610f94565b6040513d84823e3d90fd5b50346102d85760203660031901126102d8576004356001600160401b038116809103610fb057610ff5612ccd565b610e108110158061101e575b61100a906127fc565b6001600160401b0319600a541617600a5580f35b5062093a80811115611001565b50346102d857806003193601126102d8576005546040516001600160a01b039091168152602090f35b612766565b50346102d85760203660031901126102d8576110736126fb565b61107b612ccd565b611083612d0a565b600980546001600160a01b0319166001600160a01b039290921691821790557f5e5418a3c3d9e12cae95b949efcf26cfdffb4dbc73cd1d2532a97f656e634bf58280a26104196040516110d7604082612784565b600d81526c1b995e1d1bd99ada5b97dcd95d609a1b6020820152612daa565b50346102d85760203660031901126102d857611110612757565b611118612ccd565b7f18a225f450380fd39da2a8986c15805afce4eb7f6efbdfe1d0bb9df17c8e7923602082151560ff19600e541660ff821617600e55604051908152a1156111885761041960405161116a604082612784565b600c81526b3b30bab63a2fb33937bd32b760a11b6020820152612daa565b610419604051611199604082612784565b600e81526d3b30bab63a2fbab7333937bd32b760911b6020820152612daa565b50346102d85760203660031901126102d8576004356001600160401b038116808203610d23576111fe906111eb612ccd565b610e10811015908161122b575b506127fc565b600c8054600160401b600160801b03191660409290921b67ffffffffffffffff60401b1691909117905580f35b6201518091501115386111f8565b50346102d857806003193601126102d8576020601354604051908152f35b50346102d85760203660031901126102d857604060e091600435815260126020522060ff60018060a01b038254169160026001820154910154906001600160401b0382166001600160401b036112ac826128c7565b16916040519586526020860152604085015280606085015242116080840152818160401c16151560a084015260481c16151560c0820152f35b50346102d85760403660031901126102d85761132b6113026126fb565b61130a612ccd565b611312612d0a565b61131a612e1d565b611322612e3a565b60243590612a41565b6001815580f35b50346102d857806003193601126102d85761134b612d0a565b611353612e3a565b6009546001600160a01b0316338190036115a25760175460ff811615611593576001600160401b038160101c1642116115935760ff8160501c16611584576113b860ff6113a9607f826007541660011c1661286a565b1660ff8360081c161015612a06565b60ff19166017556113ca60185461285b565b6018556002546040516370a0823160e01b81523060048201526001600160a01b0390911691602082602481865afa918215611545578492611550575b50600154604051630709df4560e01b81526004810192909252602090829060249082906001600160a01b03165afa908115611545578491611503575b506001600160a01b0381169283156114d05761145f918391612e7d565b6009546040519182526001600160a01b0316907fcc9c89312a2ac19bfbb488a107aa51e50162fc6a2ad5dad80dbba85e2a9a936890602090a361132b6040516114a9604082612784565b60158152741a5b9a195c9a5d185b98d957d99a5b985b1a5e9959605a1b6020820152612daa565b60405162461bcd60e51b815260206004820152600b60248201526a15558e9b9bcb5d985d5b1d60aa1b6044820152606490fd5b90506020813d60201161153d575b8161151e60209383612784565b810103126105c657516001600160a01b03811681036105c65738611442565b3d9150611511565b6040513d86823e3d90fd5b9091506020813d60201161157c575b8161156c60209383612784565b810103126105c657519038611406565b3d915061155f565b63781b949d60e11b8352600483fd5b6324dcf66760e21b8352600483fd5b631a4f16b960e21b8252600482fd5b50346102d85760203660031901126102d85760206115d56115d06126fb565b61299b565b6040519015158152f35b50346102d85760203660031901126102d857604060a091600435815260126020522060ff600180841b0382541691600260018201549101549060405193845260208401526001600160401b0381166040840152818160401c161515606084015260481c1615156080820152f35b50346102d85760203660031901126102d857600435611669612ccd565b80825260126020526040822080546001600160a01b03161561051157600201805460ff8160481c166105025760ff60481b1916600160481b17905533907f12cd094e454538586035071c64eb69c206d65137212e7d5e9d32d738540435708380a380f35b50346102d857806003193601126102d8576004546040516001600160a01b039091168152602090f35b50346102d857806003193601126102d857602060ff60075416604051908152f35b50346102d857806003193601126102d857611730612ccd565b6017805460ff60ff60501b011916600160501b179055337fec32f6be1cfe5f271330570749895d0cdcb3324846ee37b8a6ac973b4a27cf578280a261041960405161177c604082612784565b60128152711a5b9a195c9a5d185b98d957d9195b9a595960721b6020820152612daa565b50346102d85760203660031901126102d857600435815260126020526040812080546001600160a01b03161561188557600201805460ff8160481c16611876576001600160401b036117f38183166128c7565b164211156118405760ff60481b1916600160481b179055604080516104199161181c9082612784565b6012815271195e1c1a5c995917dd1e17d8db19585b995960721b6020820152612daa565b60405162461bcd60e51b815260206004820152600e60248201526d15558e9b9bdd0b595e1c1a5c995960921b6044820152606490fd5b63446d277b60e11b8352600483fd5b634c8d442960e01b8252600482fd5b50346102d857806003193601126102d8576020601154604051908152f35b50346102d85760203660031901126102d8576020906001600160401b03906040906001600160a01b036118e36126fb565b168152601a8452205416604051908152f35b50346102d857806003193601126102d8576001546040516001600160a01b039091168152602090f35b50346102d857806003193601126102d85760206001600160401b0360095460a01c16604051908152f35b50346102d85760403660031901126102d8576119626126fb565b602435908115158083036105c657611978612ccd565b611980612d0a565b6001600160a01b038216918215611c44576014546001600160a01b0316611c355782855260066020528160ff6040872054161515036119bd578480f35b82855260066020526040852060ff1981541660ff841617905583600014611b045760075460ff6119ee8183166128b6565b60ff19909216911617600755600854600160401b811015611af05791611a53602092611a2f8560016000805160206130248339815191529701600855612980565b9080546001600160a01b0360039390931b83811b199091169290931690921b179055565b838652601a82526040862080546001600160401b031916426001600160401b03161790555b604051908152a215611abd57611ab5604051611a95604082612784565b600e81526d19dd585c991a585b97d85919195960921b6020820152612daa565b388080808480f35b611ab5604051611ace604082612784565b601081526f19dd585c991a585b97dc995b5bdd995960821b6020820152612daa565b634e487b7160e01b86526041600452602486fd5b50919060075460ff81168015611c065760ff9060001901169060ff191617600755835b60085480821015611c1a5782611b3c83612980565b905460039190911b1c6001600160a01b031614611b5c5750600101611b27565b929391926000198101908111611c065790611a2f611b7c611b9493612980565b905460039190911b1c6001600160a01b031691612980565b6008548015611bf2576000805160206130248339815191529160209160001901611bbd81612980565b81549060018060a01b039060031b1b191690556008555b838652601a82526040862080546001600160401b0319169055611a78565b634e487b7160e01b85526031600452602485fd5b634e487b7160e01b86526011600452602486fd5b50509091602060008051602061302483398151915291611bd4565b631b11469b60e11b8552600485fd5b630fd9d18960e41b8552600485fd5b50346102d857806003193601126102d857602060ff60105460101c166040519015158152f35b5060403660031901126102d857611c8e6126fb565b6024356001600160401b038111610d235736602382011215610d23578060040135916001600160401b0383116105c65736602484840101116105c657611cd2612ccd565b611cda612d0a565b611ce2612e1d565b611cea612e3a565b6002546001600160a01b0382811691168114611e67576001546001600160a01b031614611e3657600d543411611e065760248493928493600c54611d496001600160401b03611d40818460401c168285166128e7565b16421015612907565b6001600160401b031916426001600160401b031617600c5560405192839282910183378101848152039134905af1611d7f612941565b9015611dd057600182611dcc9350611db7604051611d9e604082612784565b60078152666578656375746560c81b6020820152612daa565b55604051918291602083526020830190612716565b0390f35b60405162461bcd60e51b815260206004820152600e60248201526d15558e98d85b1b0b59985a5b195960921b6044820152606490fd5b60405162461bcd60e51b815260206004820152600860248201526755563a76616c756560c01b6044820152606490fd5b60405162461bcd60e51b81526020600482015260096024820152682aab1d373796b43ab160b91b6044820152606490fd5b60405162461bcd60e51b815260206004820152600b60248201526a2aab1d373796ba37b5b2b760a91b6044820152606490fd5b50346102d857806003193601126102d857611eb3612d0a565b338152600660205260ff6040822054161561044957611ed46103153361299b565b60175460ff811615610ad557600754611ef29060011c607f1661286a565b9061ff00611f0560ff8360081c166128b6565b60081b169160ff808461ff00198516179283601755169160081c161015611f2a578280f35b61ffff19161780601755611f3f60185461285b565b60185560ff6040519160081c1681527f82a4e870a30fcdcdb7097dff3667437d1d8574e2766560bb07e1f1fb4a5b151860203392a2611fbf604051611f85606082612784565b602281527f696e6865726974616e63655f63616e63656c6c65645f62795f677561726469616020820152616e7360f01b6040820152612daa565b38808280f35b50346102d85760a03660031901126102d857611fdf6126fb565b6024356001600160a01b0381169190829003610d23576044356001600160a01b03811692908390036105c6576064356001600160a01b038116919082900361219c576084356001600160a01b038116939084900361219857601b549060ff8216612189576001600160a01b03169081151580612180575b80612177575b156121485760ff19166001908117601b5580546001600160a01b031990811692909217905560028054821692909217909155600580548216851790556003805482169290921790915560048054909116919091179055600a80546001600160401b0319166201518017905569021e19e0c9bab2400000600b55600c8054600160401b600160801b03191660e160441b179055670de0b6b3a7640000600d55690a968163f0a57b400000600f556010805461ffff191661138817905560408051610eac916121299082612784565b600d81526c1d985d5b1d17d8dc99585d1959609a1b6020820152612daa565b60405162461bcd60e51b815260206004820152600760248201526655563a7a65726f60c81b6044820152606490fd5b5085151561205c565b50821515612056565b63141fb2bf60e01b8752600487fd5b8580fd5b8480fd5b50346102d857806003193601126102d8575060145460a0906001600160a01b038116906121d360e982901c607f1661286a565b6001600160401b038260a81c16908315159283612212575b9060ff8092604051968752871c166020860152166040840152606083015215156080820152f35b4283101593506121eb565b50346102d857806003193601126102d8576002546040516370a0823160e01b815230600482015290602090829060249082906001600160a01b03165afa908115610fbc578291612273575b602082604051908152f35b90506020813d6020116122a1575b8161228e60209383612784565b81010312610fb057602091505138612268565b3d9150612281565b50346102d857806003193601126102d85760206001600160401b03600c5416604051908152f35b50346102d857806003193601126102d857602060ff600e5460081c166040519015158152f35b50346102d85760203660031901126102d85760209060ff906040906001600160a01b036123216126fb565b168152600684522054166040519015158152f35b50346102d857806003193601126102d85761234e612ccd565b612356612d0a565b6014546001600160a01b03161561042b57601480546001600160e81b03191690556015546123839061285b565b601555337f8154b6c5e1fc90d44b49808ef93f9739148d0821411890f8cd684385e24b9f1e8280a26104196040516123bc604082612784565b60128152711c9958dbdd995c9e57d8d85b98d95b1b195960721b6020820152612daa565b50346102d857806003193601126102d8576123f9612d0a565b6009546001600160a01b031633036124bb5760175460ff8160501c166124ac57600169ffffffffffffffff000061242f42612835565b60101b1691818060501b031916171760175561244c60185461285b565b601855337f45169f9a6369d811de455bb5ecdc25c684355abe2deaf2f8d9b81618754ba3b48280a2610419604051612485604082612784565b60158152741a5b9a195c9a5d185b98d957dc995c5d595cdd1959605a1b6020820152612daa565b63781b949d60e11b8252600482fd5b631a4f16b960e21b8152600490fd5b50346102d857806003193601126102d8576020600f54604051908152f35b50346102d85760203660031901126102d857600435612505612ccd565b67016345785d8a000081101580612526575b612520906127fc565b600d5580f35b50678ac7230489e80000811115612517565b50346102d857806003193601126102d857604051908160206008549182815201908382600885526020852092855b81811061267457505061257b92500384612784565b8251906125a061258a836127bb565b926125986040519485612784565b8084526127bb565b602083019190601f1901368337835b85518110156125ec576001906125d76001600160a01b036125d0838a6127d2565b511661299b565b6125e182876127d2565b9015159052016125af565b509083859260405194859460408601906040875251809152606086019290845b818110612652575050506020908583038287015251918281520192915b818110612637575050500390f35b82511515845285945060209384019390920191600101612629565b82516001600160a01b031685528897506020948501949092019160010161260c565b84546001600160a01b0316835260019485019488945060209093019201612566565b50346102d857806003193601126102d8576009546040516001600160a01b039091168152602090f35b50346102d857806003193601126102d857602060ff600e54166040519015158152f35b50346102d857806003193601126102d857610f45612ccd565b600435906001600160a01b038216820361271157565b600080fd5b919082519283825260005b848110612742575050826000602080949584010152601f8019910116010190565b80602080928401015182828601015201612721565b60043590811515820361271157565b3461271157600036600319011261271157602060405162278d008152f35b90601f801991011681019081106001600160401b038211176127a557604052565b634e487b7160e01b600052604160045260246000fd5b6001600160401b0381116127a55760051b60200190565b80518210156127e65760209160051b010190565b634e487b7160e01b600052603260045260246000fd5b1561280357565b60405162461bcd60e51b815260206004820152600a60248201526915558e9a5b9d985b1a5960b21b6044820152606490fd5b9062278d00820180921161284557565b634e487b7160e01b600052601160045260246000fd5b60001981146128455760010190565b60ff60019116019060ff821161284557565b1561288357565b60405162461bcd60e51b815260206004820152600b60248201526a55563a696d6d617475726560a81b6044820152606490fd5b60ff1660ff81146128455760010190565b6001600160401b0362015180911601906001600160401b03821161284557565b906001600160401b03809116911601906001600160401b03821161284557565b1561290e57565b60405162461bcd60e51b815260206004820152600b60248201526a2aab1d31b7b7b63237bbb760a91b6044820152606490fd5b3d1561297b573d906001600160401b0382116127a5576040519161296f601f8201601f191660200184612784565b82523d6000602084013e565b606090565b6008548110156127e657600860005260206000200190600090565b6001600160a01b031660008181526006602052604090205460ff1615612a0057600052601a6020526001600160401b036040600020541680156129fa5762093a80016001600160401b038111612845576001600160401b031642101590565b50600190565b50600090565b15612a0d57565b60405162461bcd60e51b815260206004820152600c60248201526b15558e9d1a1c995cda1bdb1960a21b6044820152606490fd5b600091906001600160a01b038116908115612cbe57612a776001600160401b03611d408160095460a01c1682600a5416906128e7565b612a8083612f4c565b612b945760098054600160a01b600160e01b0319164260a01b600160a01b600160e01b0316179055600254612abf9184916001600160a01b0316612e7d565b7f1f4e9075aadab47c6d1822e19226819c4482f4326012945c69bb143c6861982a6020604051848152a2604051612af7604082612784565b60088152673a3930b739b332b960c11b60208201526004546001600160a01b03169081612b25575b50505050565b813b156105c6578391612b5e918360206040519687958694630303c28760e61b8652306004870152608060248701526084860190612716565b9060448501528284820391600319830160648701525201925af1612b84575b8080612b1f565b81612b8e91612784565b38612b7d565b509060135490612ba38261285b565b60135560405160a081018181106001600160401b03821117611af057604090815284825260208083018481526001600160401b03428116858501908152606086018a8152608087018b8152898c5260128652868c20975188546001600160a01b039091166001600160a01b0319909116178855935160018801559051600290960180549151935160ff60481b90151560481b1660ff60401b941515871b94909416969092166001600160501b0319909116179490941717909255519182527f72c131e4f3fead122420dfa8d1a10e700e5e3badef6ea9b934ce82124515d1ce91a350612cbc604051612c96604082612784565b601481527318589b9bdc9b585b17dd1e17d9195d1958dd195960621b6020820152612daa565b565b630fd9d18960e41b8452600484fd5b6005546001600160a01b03163303612ce157565b63c0b06f0b60e01b60005260046000fd5b90816020910312612711575180151581036127115790565b6003546001600160a01b03168015159081612d38575b50612d2757565b63105aa7fb60e31b60005260046000fd5b604051631293efbb60e21b81523060048201529150602090829060249082905afa908115612d9e57600091612d6f575b5038612d20565b612d91915060203d602011612d97575b612d898183612784565b810190612cf2565b38612d68565b503d612d7f565b6040513d6000823e3d90fd5b6004546000916001600160a01b039091169081612dc657505050565b813b15610d2357612dfe83928392604051948580948193633ddd61ab60e21b8352306004840152606060248401526064830190612716565b33604483015203925af1612e10575050565b81612e1a91612784565b50565b60ff600e5416612e2957565b6357fa752160e01b60005260046000fd5b600160005403612e4b576002600055565b60405162461bcd60e51b815260206004820152600a6024820152697265656e7472616e637960b01b6044820152606490fd5b6000929183809360405190602082019363a9059cbb60e01b855260018060a01b03166024830152604482015260448152612eb8606482612784565b51926001600160a01b03165af1612ecd612941565b81612f1d575b5015612edb57565b60405162461bcd60e51b815260206004820152601a60248201527914d85999515490cc8c0e881d1c985b9cd9995c8819985a5b195960321b6044820152606490fd5b8051801592508215612f32575b505038612ed3565b612f459250602080918301019101612cf2565b3880612f2a565b600e5460081c60ff161561301c57601054600060ff8260101c16600014612f995750601154905b8115612f915761ffff16808202918204036128455761271090041090565b505050600090565b6002546040516370a0823160e01b815230600482015290602090829060249082906001600160a01b03165afa918215613010578092612fdb575b505090612f73565b9091506020823d602011613008575b81612ff760209383612784565b810103126102d85750513880612fd3565b3d9150612fea565b604051903d90823e3d90fd5b600f54109056fec4459d655e1efe034a75446f1f4db087f75d23bdfabccffafa6384cdb23a1544a26469706673582212206de04297cdd0be7f98afb5ea51b80c31ce00a88a57df3fc047dcb55bce0cb4ca64736f6c634300081e0033",
  "linkReferences": {},
  "deployedLinkReferences": {}
}