{
  "_format": "hh-sol-artifact-1",
  "contractName": "UserVault",
  "sourceName": "contracts/UserVault.sol",
  "abi": [
    {
      "inputs": [],
      "name": "AlreadyInitialized",
      "type": "error"
    },
    {
      "inputs": [
        {
          "internalType": "address",
          "name": "to",
          "type": "address"
        }
      ],
      "name": "NotRegisteredVault",
      "type": "error"
    },
    {
      "inputs": [],
      "name": "ZeroAddress",
      "type": "error"
    },
    {
      "anonymous": false,
      "inputs": [
        {
          "indexed": true,
          "internalType": "address",
          "name": "spender",
          "type": "address"
        },
        {
          "indexed": false,
          "internalType": "uint256",
          "name": "amount",
          "type": "uint256"
        }
      ],
      "name": "Approved",
      "type": "event"
    },
    {
      "anonymous": false,
      "inputs": [
        {
          "indexed": false,
          "internalType": "address",
          "name": "owner",
          "type": "address"
        },
        {
          "indexed": false,
          "internalType": "address",
          "name": "proof",
          "type": "address"
        },
        {
          "indexed": false,
          "internalType": "address",
          "name": "guardianLock",
          "type": "address"
        }
      ],
      "name": "Initialized",
      "type": "event"
    },
    {
      "anonymous": false,
      "inputs": [
        {
          "indexed": true,
          "internalType": "address",
          "name": "previousOwner",
          "type": "address"
        },
        {
          "indexed": true,
          "internalType": "address",
          "name": "newOwner",
          "type": "address"
        }
      ],
      "name": "OwnershipTransferStarted",
      "type": "event"
    },
    {
      "anonymous": false,
      "inputs": [
        {
          "indexed": true,
          "internalType": "address",
          "name": "previousOwner",
          "type": "address"
        },
        {
          "indexed": true,
          "internalType": "address",
          "name": "newOwner",
          "type": "address"
        }
      ],
      "name": "OwnershipTransferred",
      "type": "event"
    },
    {
      "anonymous": false,
      "inputs": [
        {
          "indexed": true,
          "internalType": "address",
          "name": "fromOwner",
          "type": "address"
        },
        {
          "indexed": false,
          "internalType": "uint256",
          "name": "amount",
          "type": "uint256"
        }
      ],
      "name": "Pulled",
      "type": "event"
    },
    {
      "anonymous": false,
      "inputs": [
        {
          "indexed": true,
          "internalType": "address",
          "name": "toVault",
          "type": "address"
        },
        {
          "indexed": false,
          "internalType": "uint256",
          "name": "amount",
          "type": "uint256"
        }
      ],
      "name": "SentToVault",
      "type": "event"
    },
    {
      "anonymous": false,
      "inputs": [
        {
          "indexed": false,
          "internalType": "address",
          "name": "token",
          "type": "address"
        }
      ],
      "name": "TokenSet",
      "type": "event"
    },
    {
      "inputs": [],
      "name": "acceptOwnership",
      "outputs": [],
      "stateMutability": "nonpayable",
      "type": "function"
    },
    {
      "inputs": [
        {
          "internalType": "address",
          "name": "spender",
          "type": "address"
        },
        {
          "internalType": "uint256",
          "name": "amount",
          "type": "uint256"
        }
      ],
      "name": "approveSpender",
      "outputs": [],
      "stateMutability": "nonpayable",
      "type": "function"
    },
    {
      "inputs": [],
      "name": "factory",
      "outputs": [
        {
          "internalType": "address",
          "name": "",
          "type": "address"
        }
      ],
      "stateMutability": "view",
      "type": "function"
    },
    {
      "inputs": [],
      "name": "guardianLock",
      "outputs": [
        {
          "internalType": "address",
          "name": "",
          "type": "address"
        }
      ],
      "stateMutability": "view",
      "type": "function"
    },
    {
      "inputs": [
        {
          "internalType": "address",
          "name": "owner_",
          "type": "address"
        },
        {
          "internalType": "address",
          "name": "proofLedger_",
          "type": "address"
        },
        {
          "internalType": "address",
          "name": "guardianLock_",
          "type": "address"
        }
      ],
      "name": "initialize",
      "outputs": [],
      "stateMutability": "nonpayable",
      "type": "function"
    },
    {
      "inputs": [],
      "name": "owner",
      "outputs": [
        {
          "internalType": "address",
          "name": "",
          "type": "address"
        }
      ],
      "stateMutability": "view",
      "type": "function"
    },
    {
      "inputs": [],
      "name": "pendingOwner",
      "outputs": [
        {
          "internalType": "address",
          "name": "",
          "type": "address"
        }
      ],
      "stateMutability": "view",
      "type": "function"
    },
    {
      "inputs": [],
      "name": "proof",
      "outputs": [
        {
          "internalType": "contract IProofLedgerUV",
          "name": "",
          "type": "address"
        }
      ],
      "stateMutability": "view",
      "type": "function"
    },
    {
      "inputs": [
        {
          "internalType": "uint256",
          "name": "amount",
          "type": "uint256"
        }
      ],
      "name": "pullFromOwner",
      "outputs": [],
      "stateMutability": "nonpayable",
      "type": "function"
    },
    {
      "inputs": [],
      "name": "renounceOwnership",
      "outputs": [],
      "stateMutability": "nonpayable",
      "type": "function"
    },
    {
      "inputs": [
        {
          "internalType": "address",
          "name": "token_",
          "type": "address"
        },
        {
          "internalType": "address",
          "name": "to",
          "type": "address"
        },
        {
          "internalType": "uint256",
          "name": "amount",
          "type": "uint256"
        }
      ],
      "name": "rescueERC20",
      "outputs": [],
      "stateMutability": "nonpayable",
      "type": "function"
    },
    {
      "inputs": [
        {
          "internalType": "address payable",
          "name": "to",
          "type": "address"
        },
        {
          "internalType": "uint256",
          "name": "amount",
          "type": "uint256"
        }
      ],
      "name": "rescueETH",
      "outputs": [],
      "stateMutability": "nonpayable",
      "type": "function"
    },
    {
      "inputs": [
        {
          "internalType": "address",
          "name": "toUser",
          "type": "address"
        },
        {
          "internalType": "uint256",
          "name": "amount",
          "type": "uint256"
        }
      ],
      "name": "sendToVault",
      "outputs": [],
      "stateMutability": "nonpayable",
      "type": "function"
    },
    {
      "inputs": [
        {
          "internalType": "address",
          "name": "vfide_",
          "type": "address"
        }
      ],
      "name": "setToken",
      "outputs": [],
      "stateMutability": "nonpayable",
      "type": "function"
    },
    {
      "inputs": [
        {
          "internalType": "address",
          "name": "newOwner",
          "type": "address"
        }
      ],
      "name": "transferOwnership",
      "outputs": [],
      "stateMutability": "nonpayable",
      "type": "function"
    },
    {
      "inputs": [],
      "name": "vfide",
      "outputs": [
        {
          "internalType": "contract IERC20",
          "name": "",
          "type": "address"
        }
      ],
      "stateMutability": "view",
      "type": "function"
    },
    {
      "stateMutability": "payable",
      "type": "receive"
    }
  ],
  "bytecode": "0x60808060405234606757600180546001600160a01b03199081169091556000805433928116831782556001600160a01b0316907f8be0079c531659141344cd1fd0a4f28419497f9722a3daafe3b4186f6b6457e09080a36001600255610fa1908161006d8239f35b600080fdfe6080604052600436101561001b575b361561001957600080fd5b005b6000803560e01c8063080d7c4d14610b74578063099a04e514610a95578063144fa6d7146109cf578063715018a61461096a57806372c8ae3b1461094157806379ba5097146108b95780638b0af384146108905780638da5cb5b146108695780639bca2ff01461058b578063b2118a8d1461049a578063c0487e9c146102e1578063c0c53b8b146101c1578063c45a015514610198578063e30c39781461016f578063f2fde38b146101025763faf924cf146100d7575061000e565b346100ff57806003193601126100ff576004546040516001600160a01b039091168152602090f35b80fd5b50346100ff5760203660031901126100ff5761011c610da7565b610124610e6a565b600180546001600160a01b0319166001600160a01b0392831690811790915582549091167f38d16b8cac22d99fc7c124b9cd0de2d3fa1faef420bfe791d8c362d765e227008380a380f35b50346100ff57806003193601126100ff576001546040516001600160a01b039091168152602090f35b50346100ff57806003193601126100ff576006546040516001600160a01b039091168152602090f35b50346100ff5760603660031901126100ff576101db610da7565b6101e3610dc2565b6044356001600160a01b03811691908290036102dd5760ff60065460a01c166102cf576001600160a01b03831692831580156102be575b6102af57917fad307780531f6353137c35adc50ad58d71b76e76aa891e729387f2e720f2de20939161024d606094610ec2565b600480546001600160a01b03199081166001600160a01b03939093169283179091556005805490911683179055600680546001600160a81b0319163360ff60a01b191617600160a01b179055604080519384526020840191909152820152a180f35b63d92e233d60e01b8552600485fd5b506001600160a01b0382161561021a565b62dc149f60e41b8452600484fd5b8380fd5b50346100ff5760203660031901126100ff576004356102fe610f17565b610306610e6a565b60035482906020906001600160a01b0316610322811515610dd8565b82546040516323b872dd60e01b81526001600160a01b0390911660048201523060248201526044810185905292839160649183915af190811561048f578391610460575b501561042f5781604051602081019083825260208152610387604082610e1a565b51902060045482546001600160a01b0391821692911690823b156102dd5760648492836040519586948593631250d57560e31b855260048501526001602485015260448401525af1610416575b505081546040519182526001600160a01b0316907f8f6dc746d2ddfc02adada7fa1b00410b478496d5fed7a2b9020322b3959fe9ee90602090a2600160025580f35b8161042091610e1a565b61042b5781386103d4565b5080fd5b60405162461bcd60e51b81526020600482015260096024820152681c1d5b1b0819985a5b60ba1b6044820152606490fd5b610482915060203d602011610488575b61047a8183610e1a565b810190610e52565b38610366565b503d610470565b6040513d85823e3d90fd5b50346100ff5760603660031901126100ff576104b4610da7565b6104bc610dc2565b6104c4610e6a565b6001600160a01b0381161561057c5760405163a9059cbb60e01b81526001600160a01b039182166004820152604480356024830152909260209284929183918791165af1908115610571578291610552575b501561051f5780f35b60405162461bcd60e51b815260206004820152600b60248201526a1c995cd8dd594819985a5b60aa1b6044820152606490fd5b61056b915060203d6020116104885761047a8183610e1a565b38610516565b6040513d84823e3d90fd5b63d92e233d60e01b8352600483fd5b50346100ff5760403660031901126100ff576105a5610da7565b6024356105b0610f17565b6105b8610e6a565b6003546001600160a01b03166105cf811515610dd8565b600654604051630709df4560e01b81526001600160a01b039485166004820152931692602081602481875afa90811561085e578591610818575b506001600160a01b0381169384159081156107b8575b506107a45760405163a9059cbb60e01b81526001600160a01b0391909116600482015260248101839052906020908290604490829088905af190811561079957849161077a575b50156107495760405160208101908282528360408201526040815261068c606082610e1a565b51902060045484546001600160a01b03918216928692909116833b1561074557606490836040519586948593631250d57560e31b855260048501526002602485015260448401525af161070e575b5060207f8b3e61c2616f8366fa16a938be6d901bc7f9397df22bae1b6aeb79dadd2be2f691604051908152a2600160025580f35b8361073d7f8b3e61c2616f8366fa16a938be6d901bc7f9397df22bae1b6aeb79dadd2be2f69395602093610e1a565b9391506106da565b8280fd5b60405162461bcd60e51b81526020600482015260096024820152681e19995c8819985a5b60ba1b6044820152606490fd5b610793915060203d6020116104885761047a8183610e1a565b38610666565b6040513d86823e3d90fd5b631a34dbfb60e11b85526004849052602485fd5b602491506020906040519283809263652b9b4160e01b82528960048301525afa90811561080d5786916107ee575b50153861061f565b610807915060203d6020116104885761047a8183610e1a565b386107e6565b6040513d88823e3d90fd5b90506020813d602011610856575b8161083360209383610e1a565b8101031261085257516001600160a01b03811681036108525738610609565b8480fd5b3d9150610826565b6040513d87823e3d90fd5b50346100ff57806003193601126100ff57546040516001600160a01b039091168152602090f35b50346100ff57806003193601126100ff576005546040516001600160a01b039091168152602090f35b50346100ff57806003193601126100ff57600154336001600160a01b03909116036108ea576108e733610ec2565b80f35b60405162461bcd60e51b815260206004820152602960248201527f4f776e61626c6532537465703a2063616c6c6572206973206e6f7420746865206044820152683732bb9037bbb732b960b91b6064820152608490fd5b50346100ff57806003193601126100ff576003546040516001600160a01b039091168152602090f35b50346100ff57806003193601126100ff57610983610e6a565b600180546001600160a01b03199081169091558154908116825581906001600160a01b03167f8be0079c531659141344cd1fd0a4f28419497f9722a3daafe3b4186f6b6457e08280a380f35b50346100ff5760203660031901126100ff576109e9610da7565b6109f1610e6a565b6006549060ff8260a81c16610a61576001600160a01b031690811561057c57600380546001600160a01b0319168317905560ff60a81b1916600160a81b176006556040519081527fa07c91c183e42229e705a9795a1c06d76528b673788b849597364528c96eefb790602090a180f35b60405162461bcd60e51b815260206004820152600c60248201526b1d1bdad95b881b1bd8dad95960a21b6044820152606490fd5b50346100ff5760403660031901126100ff576004356001600160a01b0381169081900361042b57610ac4610e6a565b8015610b65578180808093602435905af13d15610b60573d67ffffffffffffffff8111610b4c5760405190610b03601f8201601f191660200183610e1a565b81528260203d92013e5b15610b155780f35b60405162461bcd60e51b815260206004820152600f60248201526e195d1a081c995cd8dd594819985a5b608a1b6044820152606490fd5b634e487b7160e01b83526041600452602483fd5b610b0d565b63d92e233d60e01b8252600482fd5b50346100ff5760403660031901126100ff57610b8e610da7565b602435610b99610e6a565b6003546001600160a01b031691610bb1831515610dd8565b604051636eb1769f60e11b81523060048201526001600160a01b03821660248201819052938590602083604481845afa80156105715785938391610d72575b50151580610d69575b610cce575b505060035460405163095ea7b360e01b81526001600160a01b03938416600482015260248101929092529091602091839160449183918991165af1908115610799578491610caf575b5015610c7b5760207ff13bfe0b6ec5df39265dccb0a01a09aa4162489c7a083dc6670bde0255d02ca791604051908152a280f35b60405162461bcd60e51b815260206004820152600c60248201526b185c1c1c9bdd994819985a5b60a21b6044820152606490fd5b610cc8915060203d6020116104885761047a8183610e1a565b38610c47565b602091925060446040518094819363095ea7b360e01b83528960048401528160248401525af190811561085e578591610d4a575b5015610d1057818438610bfe565b60405162461bcd60e51b8152602060048201526012602482015271185c1c1c9bdd99481c995cd95d0819985a5b60721b6044820152606490fd5b610d63915060203d6020116104885761047a8183610e1a565b38610d02565b50821515610bf9565b9350506020833d602011610d9f575b81610d8e60209383610e1a565b8101031261042b5784925138610bf0565b3d9150610d81565b600435906001600160a01b0382168203610dbd57565b600080fd5b602435906001600160a01b0382168203610dbd57565b15610ddf57565b60405162461bcd60e51b81526020600482015260136024820152721591925111481d1bdad95b881b9bdd081cd95d606a1b6044820152606490fd5b90601f8019910116810190811067ffffffffffffffff821117610e3c57604052565b634e487b7160e01b600052604160045260246000fd5b90816020910312610dbd57518015158103610dbd5790565b6000546001600160a01b03163303610e7e57565b606460405162461bcd60e51b815260206004820152602060248201527f4f776e61626c653a2063616c6c6572206973206e6f7420746865206f776e65726044820152fd5b600180546001600160a01b0319908116909155600080549182166001600160a01b03938416908117825592909116907f8be0079c531659141344cd1fd0a4f28419497f9722a3daafe3b4186f6b6457e09080a3565b6002805414610f265760028055565b60405162461bcd60e51b815260206004820152601f60248201527f5265656e7472616e637947756172643a207265656e7472616e742063616c6c006044820152606490fdfea264697066735822122029eb74fc3820faeef3f573ae4524afc1e776578dcb99499e0561c56b1f9397bb64736f6c634300081e0033",
  "linkReferences": {},
  "deployedLinkReferences": {}
}