{
  "_format": "hh-sol-artifact-1",
  "contractName": "MerchantRegistry",
  "sourceName": "contracts/MerchantRegistry.sol",
  "abi": [
    {
      "inputs": [
        {
          "internalType": "address",
          "name": "initialOwner",
          "type": "address"
        }
      ],
      "stateMutability": "nonpayable",
      "type": "constructor"
    },
    {
      "inputs": [],
      "name": "AlreadyExists",
      "type": "error"
    },
    {
      "inputs": [],
      "name": "BadStatus",
      "type": "error"
    },
    {
      "inputs": [],
      "name": "FactoryUnset",
      "type": "error"
    },
    {
      "inputs": [],
      "name": "NotFound",
      "type": "error"
    },
    {
      "inputs": [],
      "name": "NotGov",
      "type": "error"
    },
    {
      "inputs": [],
      "name": "SeerUnset",
      "type": "error"
    },
    {
      "inputs": [],
      "name": "ZeroAddress",
      "type": "error"
    },
    {
      "anonymous": false,
      "inputs": [
        {
          "indexed": true,
          "internalType": "address",
          "name": "merchant",
          "type": "address"
        },
        {
          "indexed": false,
          "internalType": "bool",
          "name": "allowed",
          "type": "bool"
        }
      ],
      "name": "AllowMerchantSet",
      "type": "event"
    },
    {
      "anonymous": false,
      "inputs": [
        {
          "indexed": true,
          "internalType": "address",
          "name": "dao",
          "type": "address"
        }
      ],
      "name": "DAOUpdated",
      "type": "event"
    },
    {
      "anonymous": false,
      "inputs": [
        {
          "indexed": true,
          "internalType": "address",
          "name": "buyer",
          "type": "address"
        },
        {
          "indexed": false,
          "internalType": "bool",
          "name": "denied",
          "type": "bool"
        }
      ],
      "name": "DenyBuyerSet",
      "type": "event"
    },
    {
      "anonymous": false,
      "inputs": [
        {
          "indexed": true,
          "internalType": "address",
          "name": "merchant",
          "type": "address"
        },
        {
          "indexed": false,
          "internalType": "bool",
          "name": "denied",
          "type": "bool"
        }
      ],
      "name": "DenyMerchantSet",
      "type": "event"
    },
    {
      "anonymous": false,
      "inputs": [
        {
          "indexed": false,
          "internalType": "bool",
          "name": "blockIfBlocked",
          "type": "bool"
        },
        {
          "indexed": false,
          "internalType": "bool",
          "name": "enforceBuyerMin",
          "type": "bool"
        },
        {
          "indexed": false,
          "internalType": "bool",
          "name": "enforceMerchantMin",
          "type": "bool"
        },
        {
          "indexed": false,
          "internalType": "uint16",
          "name": "minBuyerScore",
          "type": "uint16"
        },
        {
          "indexed": false,
          "internalType": "uint16",
          "name": "minMerchantScore",
          "type": "uint16"
        },
        {
          "indexed": false,
          "internalType": "uint16",
          "name": "maintainMerchantScore",
          "type": "uint16"
        }
      ],
      "name": "EnforcementParamsUpdated",
      "type": "event"
    },
    {
      "anonymous": false,
      "inputs": [
        {
          "indexed": false,
          "internalType": "bool",
          "name": "enabled",
          "type": "bool"
        }
      ],
      "name": "EnforcementToggled",
      "type": "event"
    },
    {
      "anonymous": false,
      "inputs": [
        {
          "indexed": true,
          "internalType": "address",
          "name": "factory",
          "type": "address"
        }
      ],
      "name": "FactorySet",
      "type": "event"
    },
    {
      "anonymous": false,
      "inputs": [
        {
          "indexed": true,
          "internalType": "address",
          "name": "controller",
          "type": "address"
        },
        {
          "indexed": false,
          "internalType": "string",
          "name": "name",
          "type": "string"
        },
        {
          "indexed": false,
          "internalType": "bytes32",
          "name": "metaHash",
          "type": "bytes32"
        }
      ],
      "name": "MerchantApplied",
      "type": "event"
    },
    {
      "anonymous": false,
      "inputs": [
        {
          "indexed": true,
          "internalType": "address",
          "name": "controller",
          "type": "address"
        },
        {
          "indexed": false,
          "internalType": "address",
          "name": "payoutVault",
          "type": "address"
        }
      ],
      "name": "MerchantApproved",
      "type": "event"
    },
    {
      "anonymous": false,
      "inputs": [
        {
          "indexed": true,
          "internalType": "address",
          "name": "controller",
          "type": "address"
        },
        {
          "indexed": false,
          "internalType": "uint16",
          "name": "score",
          "type": "uint16"
        }
      ],
      "name": "MerchantReactivated",
      "type": "event"
    },
    {
      "anonymous": false,
      "inputs": [
        {
          "indexed": true,
          "internalType": "address",
          "name": "controller",
          "type": "address"
        },
        {
          "indexed": false,
          "internalType": "uint16",
          "name": "score",
          "type": "uint16"
        }
      ],
      "name": "MerchantRevoked",
      "type": "event"
    },
    {
      "anonymous": false,
      "inputs": [
        {
          "indexed": true,
          "internalType": "address",
          "name": "controller",
          "type": "address"
        },
        {
          "indexed": false,
          "internalType": "uint16",
          "name": "score",
          "type": "uint16"
        }
      ],
      "name": "MerchantSuspended",
      "type": "event"
    },
    {
      "anonymous": false,
      "inputs": [
        {
          "indexed": true,
          "internalType": "address",
          "name": "controller",
          "type": "address"
        },
        {
          "indexed": false,
          "internalType": "string",
          "name": "name",
          "type": "string"
        },
        {
          "indexed": false,
          "internalType": "bytes32",
          "name": "metaHash",
          "type": "bytes32"
        }
      ],
      "name": "MerchantUpdated",
      "type": "event"
    },
    {
      "anonymous": false,
      "inputs": [
        {
          "indexed": true,
          "internalType": "address",
          "name": "controller",
          "type": "address"
        },
        {
          "indexed": false,
          "internalType": "address",
          "name": "payoutVault",
          "type": "address"
        }
      ],
      "name": "MerchantVaultSynced",
      "type": "event"
    },
    {
      "anonymous": false,
      "inputs": [
        {
          "indexed": true,
          "internalType": "address",
          "name": "previousOwner",
          "type": "address"
        },
        {
          "indexed": true,
          "internalType": "address",
          "name": "newOwner",
          "type": "address"
        }
      ],
      "name": "OwnershipTransferStarted",
      "type": "event"
    },
    {
      "anonymous": false,
      "inputs": [
        {
          "indexed": true,
          "internalType": "address",
          "name": "previousOwner",
          "type": "address"
        },
        {
          "indexed": true,
          "internalType": "address",
          "name": "newOwner",
          "type": "address"
        }
      ],
      "name": "OwnershipTransferred",
      "type": "event"
    },
    {
      "anonymous": false,
      "inputs": [
        {
          "indexed": true,
          "internalType": "address",
          "name": "proof",
          "type": "address"
        }
      ],
      "name": "ProofSinkSet",
      "type": "event"
    },
    {
      "anonymous": false,
      "inputs": [
        {
          "indexed": true,
          "internalType": "address",
          "name": "seer",
          "type": "address"
        }
      ],
      "name": "SeerSet",
      "type": "event"
    },
    {
      "anonymous": false,
      "inputs": [
        {
          "indexed": true,
          "internalType": "address",
          "name": "user",
          "type": "address"
        },
        {
          "indexed": false,
          "internalType": "bool",
          "name": "exempt",
          "type": "bool"
        }
      ],
      "name": "SystemExemptSet",
      "type": "event"
    },
    {
      "inputs": [],
      "name": "acceptOwnership",
      "outputs": [],
      "stateMutability": "nonpayable",
      "type": "function"
    },
    {
      "inputs": [
        {
          "internalType": "uint256",
          "name": "index",
          "type": "uint256"
        }
      ],
      "name": "activeAt",
      "outputs": [
        {
          "internalType": "address",
          "name": "controller",
          "type": "address"
        },
        {
          "components": [
            {
              "internalType": "address",
              "name": "controller",
              "type": "address"
            },
            {
              "internalType": "address",
              "name": "payoutVault",
              "type": "address"
            },
            {
              "internalType": "enum MerchantRegistry.Status",
              "name": "status",
              "type": "uint8"
            },
            {
              "internalType": "uint64",
              "name": "appliedAt",
              "type": "uint64"
            },
            {
              "internalType": "uint64",
              "name": "approvedAt",
              "type": "uint64"
            },
            {
              "internalType": "uint64",
              "name": "lastCheckpoint",
              "type": "uint64"
            },
            {
              "internalType": "string",
              "name": "name",
              "type": "string"
            },
            {
              "internalType": "bytes32",
              "name": "metaHash",
              "type": "bytes32"
            }
          ],
          "internalType": "struct MerchantRegistry.Merchant",
          "name": "m",
          "type": "tuple"
        }
      ],
      "stateMutability": "view",
      "type": "function"
    },
    {
      "inputs": [],
      "name": "activeCount",
      "outputs": [
        {
          "internalType": "uint256",
          "name": "",
          "type": "uint256"
        }
      ],
      "stateMutability": "view",
      "type": "function"
    },
    {
      "inputs": [
        {
          "internalType": "address",
          "name": "",
          "type": "address"
        }
      ],
      "name": "allowMerchant",
      "outputs": [
        {
          "internalType": "bool",
          "name": "",
          "type": "bool"
        }
      ],
      "stateMutability": "view",
      "type": "function"
    },
    {
      "inputs": [
        {
          "internalType": "address",
          "name": "controller",
          "type": "address"
        }
      ],
      "name": "approve",
      "outputs": [],
      "stateMutability": "nonpayable",
      "type": "function"
    },
    {
      "inputs": [],
      "name": "blockIfBlocked",
      "outputs": [
        {
          "internalType": "bool",
          "name": "",
          "type": "bool"
        }
      ],
      "stateMutability": "view",
      "type": "function"
    },
    {
      "inputs": [
        {
          "internalType": "address",
          "name": "merchantController",
          "type": "address"
        },
        {
          "internalType": "address",
          "name": "buyerController",
          "type": "address"
        }
      ],
      "name": "canAcceptPayment",
      "outputs": [
        {
          "internalType": "bool",
          "name": "ok",
          "type": "bool"
        },
        {
          "internalType": "string",
          "name": "reason",
          "type": "string"
        }
      ],
      "stateMutability": "view",
      "type": "function"
    },
    {
      "inputs": [
        {
          "internalType": "address",
          "name": "controller",
          "type": "address"
        }
      ],
      "name": "checkpoint",
      "outputs": [],
      "stateMutability": "nonpayable",
      "type": "function"
    },
    {
      "inputs": [
        {
          "internalType": "address[]",
          "name": "controllers",
          "type": "address[]"
        }
      ],
      "name": "checkpointMany",
      "outputs": [],
      "stateMutability": "nonpayable",
      "type": "function"
    },
    {
      "inputs": [],
      "name": "dao",
      "outputs": [
        {
          "internalType": "address",
          "name": "",
          "type": "address"
        }
      ],
      "stateMutability": "view",
      "type": "function"
    },
    {
      "inputs": [
        {
          "internalType": "address",
          "name": "",
          "type": "address"
        }
      ],
      "name": "denyBuyer",
      "outputs": [
        {
          "internalType": "bool",
          "name": "",
          "type": "bool"
        }
      ],
      "stateMutability": "view",
      "type": "function"
    },
    {
      "inputs": [
        {
          "internalType": "address",
          "name": "",
          "type": "address"
        }
      ],
      "name": "denyMerchant",
      "outputs": [
        {
          "internalType": "bool",
          "name": "",
          "type": "bool"
        }
      ],
      "stateMutability": "view",
      "type": "function"
    },
    {
      "inputs": [],
      "name": "enforceBuyerMin",
      "outputs": [
        {
          "internalType": "bool",
          "name": "",
          "type": "bool"
        }
      ],
      "stateMutability": "view",
      "type": "function"
    },
    {
      "inputs": [],
      "name": "enforceMerchantMin",
      "outputs": [
        {
          "internalType": "bool",
          "name": "",
          "type": "bool"
        }
      ],
      "stateMutability": "view",
      "type": "function"
    },
    {
      "inputs": [],
      "name": "enforcementEnabled",
      "outputs": [
        {
          "internalType": "bool",
          "name": "",
          "type": "bool"
        }
      ],
      "stateMutability": "view",
      "type": "function"
    },
    {
      "inputs": [],
      "name": "factory",
      "outputs": [
        {
          "internalType": "contract IVaultFactoryView",
          "name": "",
          "type": "address"
        }
      ],
      "stateMutability": "view",
      "type": "function"
    },
    {
      "inputs": [],
      "name": "getActiveMerchants",
      "outputs": [
        {
          "internalType": "address[]",
          "name": "list",
          "type": "address[]"
        }
      ],
      "stateMutability": "view",
      "type": "function"
    },
    {
      "inputs": [],
      "name": "getAllMerchants",
      "outputs": [
        {
          "internalType": "address[]",
          "name": "list",
          "type": "address[]"
        }
      ],
      "stateMutability": "view",
      "type": "function"
    },
    {
      "inputs": [
        {
          "internalType": "address",
          "name": "controller",
          "type": "address"
        }
      ],
      "name": "isMerchant",
      "outputs": [
        {
          "internalType": "bool",
          "name": "",
          "type": "bool"
        }
      ],
      "stateMutability": "view",
      "type": "function"
    },
    {
      "inputs": [],
      "name": "maintainMerchantScore",
      "outputs": [
        {
          "internalType": "uint16",
          "name": "",
          "type": "uint16"
        }
      ],
      "stateMutability": "view",
      "type": "function"
    },
    {
      "inputs": [
        {
          "internalType": "string",
          "name": "name",
          "type": "string"
        },
        {
          "internalType": "bytes32",
          "name": "metaHash",
          "type": "bytes32"
        }
      ],
      "name": "merchantApply",
      "outputs": [],
      "stateMutability": "nonpayable",
      "type": "function"
    },
    {
      "inputs": [
        {
          "internalType": "uint256",
          "name": "index",
          "type": "uint256"
        }
      ],
      "name": "merchantAt",
      "outputs": [
        {
          "internalType": "address",
          "name": "controller",
          "type": "address"
        },
        {
          "components": [
            {
              "internalType": "address",
              "name": "controller",
              "type": "address"
            },
            {
              "internalType": "address",
              "name": "payoutVault",
              "type": "address"
            },
            {
              "internalType": "enum MerchantRegistry.Status",
              "name": "status",
              "type": "uint8"
            },
            {
              "internalType": "uint64",
              "name": "appliedAt",
              "type": "uint64"
            },
            {
              "internalType": "uint64",
              "name": "approvedAt",
              "type": "uint64"
            },
            {
              "internalType": "uint64",
              "name": "lastCheckpoint",
              "type": "uint64"
            },
            {
              "internalType": "string",
              "name": "name",
              "type": "string"
            },
            {
              "internalType": "bytes32",
              "name": "metaHash",
              "type": "bytes32"
            }
          ],
          "internalType": "struct MerchantRegistry.Merchant",
          "name": "m",
          "type": "tuple"
        }
      ],
      "stateMutability": "view",
      "type": "function"
    },
    {
      "inputs": [],
      "name": "merchantCount",
      "outputs": [
        {
          "internalType": "uint256",
          "name": "",
          "type": "uint256"
        }
      ],
      "stateMutability": "view",
      "type": "function"
    },
    {
      "inputs": [
        {
          "internalType": "address",
          "name": "controller",
          "type": "address"
        }
      ],
      "name": "merchantOf",
      "outputs": [
        {
          "components": [
            {
              "internalType": "address",
              "name": "controller",
              "type": "address"
            },
            {
              "internalType": "address",
              "name": "payoutVault",
              "type": "address"
            },
            {
              "internalType": "enum MerchantRegistry.Status",
              "name": "status",
              "type": "uint8"
            },
            {
              "internalType": "uint64",
              "name": "appliedAt",
              "type": "uint64"
            },
            {
              "internalType": "uint64",
              "name": "approvedAt",
              "type": "uint64"
            },
            {
              "internalType": "uint64",
              "name": "lastCheckpoint",
              "type": "uint64"
            },
            {
              "internalType": "string",
              "name": "name",
              "type": "string"
            },
            {
              "internalType": "bytes32",
              "name": "metaHash",
              "type": "bytes32"
            }
          ],
          "internalType": "struct MerchantRegistry.Merchant",
          "name": "",
          "type": "tuple"
        }
      ],
      "stateMutability": "view",
      "type": "function"
    },
    {
      "inputs": [],
      "name": "minBuyerScore",
      "outputs": [
        {
          "internalType": "uint16",
          "name": "",
          "type": "uint16"
        }
      ],
      "stateMutability": "view",
      "type": "function"
    },
    {
      "inputs": [],
      "name": "minMerchantScore",
      "outputs": [
        {
          "internalType": "uint16",
          "name": "",
          "type": "uint16"
        }
      ],
      "stateMutability": "view",
      "type": "function"
    },
    {
      "inputs": [],
      "name": "owner",
      "outputs": [
        {
          "internalType": "address",
          "name": "",
          "type": "address"
        }
      ],
      "stateMutability": "view",
      "type": "function"
    },
    {
      "inputs": [],
      "name": "pendingOwner",
      "outputs": [
        {
          "internalType": "address",
          "name": "",
          "type": "address"
        }
      ],
      "stateMutability": "view",
      "type": "function"
    },
    {
      "inputs": [],
      "name": "proof",
      "outputs": [
        {
          "internalType": "contract IProofLedger",
          "name": "",
          "type": "address"
        }
      ],
      "stateMutability": "view",
      "type": "function"
    },
    {
      "inputs": [],
      "name": "renounceOwnership",
      "outputs": [],
      "stateMutability": "nonpayable",
      "type": "function"
    },
    {
      "inputs": [
        {
          "internalType": "address",
          "name": "controller",
          "type": "address"
        },
        {
          "internalType": "string",
          "name": "reason",
          "type": "string"
        }
      ],
      "name": "revoke",
      "outputs": [],
      "stateMutability": "nonpayable",
      "type": "function"
    },
    {
      "inputs": [],
      "name": "seer",
      "outputs": [
        {
          "internalType": "contract ISeerView",
          "name": "",
          "type": "address"
        }
      ],
      "stateMutability": "view",
      "type": "function"
    },
    {
      "inputs": [
        {
          "internalType": "address",
          "name": "controller",
          "type": "address"
        },
        {
          "internalType": "bool",
          "name": "allowed",
          "type": "bool"
        }
      ],
      "name": "setAllowMerchant",
      "outputs": [],
      "stateMutability": "nonpayable",
      "type": "function"
    },
    {
      "inputs": [
        {
          "internalType": "address",
          "name": "dao_",
          "type": "address"
        }
      ],
      "name": "setDAO",
      "outputs": [],
      "stateMutability": "nonpayable",
      "type": "function"
    },
    {
      "inputs": [
        {
          "internalType": "address",
          "name": "buyer",
          "type": "address"
        },
        {
          "internalType": "bool",
          "name": "denied",
          "type": "bool"
        }
      ],
      "name": "setDenyBuyer",
      "outputs": [],
      "stateMutability": "nonpayable",
      "type": "function"
    },
    {
      "inputs": [
        {
          "internalType": "address",
          "name": "controller",
          "type": "address"
        },
        {
          "internalType": "bool",
          "name": "denied",
          "type": "bool"
        }
      ],
      "name": "setDenyMerchant",
      "outputs": [],
      "stateMutability": "nonpayable",
      "type": "function"
    },
    {
      "inputs": [
        {
          "internalType": "bool",
          "name": "blockIfBlocked_",
          "type": "bool"
        },
        {
          "internalType": "bool",
          "name": "enforceBuyerMin_",
          "type": "bool"
        },
        {
          "internalType": "bool",
          "name": "enforceMerchantMin_",
          "type": "bool"
        },
        {
          "internalType": "uint16",
          "name": "minBuyerScore_",
          "type": "uint16"
        },
        {
          "internalType": "uint16",
          "name": "minMerchantScore_",
          "type": "uint16"
        },
        {
          "internalType": "uint16",
          "name": "maintainMerchantScore_",
          "type": "uint16"
        }
      ],
      "name": "setEnforcementParams",
      "outputs": [],
      "stateMutability": "nonpayable",
      "type": "function"
    },
    {
      "inputs": [
        {
          "internalType": "address",
          "name": "factory_",
          "type": "address"
        }
      ],
      "name": "setFactory",
      "outputs": [],
      "stateMutability": "nonpayable",
      "type": "function"
    },
    {
      "inputs": [
        {
          "internalType": "address",
          "name": "proof_",
          "type": "address"
        }
      ],
      "name": "setProofSink",
      "outputs": [],
      "stateMutability": "nonpayable",
      "type": "function"
    },
    {
      "inputs": [
        {
          "internalType": "address",
          "name": "seer_",
          "type": "address"
        }
      ],
      "name": "setSeer",
      "outputs": [],
      "stateMutability": "nonpayable",
      "type": "function"
    },
    {
      "inputs": [
        {
          "internalType": "address",
          "name": "user",
          "type": "address"
        },
        {
          "internalType": "bool",
          "name": "exempt",
          "type": "bool"
        }
      ],
      "name": "setSystemExemptUser",
      "outputs": [],
      "stateMutability": "nonpayable",
      "type": "function"
    },
    {
      "inputs": [
        {
          "internalType": "address",
          "name": "controller",
          "type": "address"
        },
        {
          "internalType": "string",
          "name": "reason",
          "type": "string"
        }
      ],
      "name": "suspend",
      "outputs": [],
      "stateMutability": "nonpayable",
      "type": "function"
    },
    {
      "inputs": [
        {
          "internalType": "address",
          "name": "controller",
          "type": "address"
        }
      ],
      "name": "syncPayoutVault",
      "outputs": [
        {
          "internalType": "address",
          "name": "",
          "type": "address"
        }
      ],
      "stateMutability": "nonpayable",
      "type": "function"
    },
    {
      "inputs": [
        {
          "internalType": "address",
          "name": "",
          "type": "address"
        }
      ],
      "name": "systemExemptUser",
      "outputs": [
        {
          "internalType": "bool",
          "name": "",
          "type": "bool"
        }
      ],
      "stateMutability": "view",
      "type": "function"
    },
    {
      "inputs": [
        {
          "internalType": "bool",
          "name": "enabled",
          "type": "bool"
        }
      ],
      "name": "toggleEnforcement",
      "outputs": [],
      "stateMutability": "nonpayable",
      "type": "function"
    },
    {
      "inputs": [
        {
          "internalType": "address",
          "name": "newOwner",
          "type": "address"
        }
      ],
      "name": "transferOwnership",
      "outputs": [],
      "stateMutability": "nonpayable",
      "type": "function"
    },
    {
      "inputs": [
        {
          "internalType": "string",
          "name": "name",
          "type": "string"
        },
        {
          "internalType": "bytes32",
          "name": "metaHash",
          "type": "bytes32"
        }
      ],
      "name": "updateInfo",
      "outputs": [],
      "stateMutability": "nonpayable",
      "type": "function"
    }
  ],
  "bytecode": "0x6080346100a857601f6134fa38819003918201601f19168301916001600160401b038311848410176100ad578084926020946040528339810103126100a857516001600160a01b0381168082036100a857610059336100c3565b6001600255600c80546001600160501b031916690258028a012c010101011790551561009757610088906100c3565b6040516133e190816101198239f35b63d92e233d60e01b60005260046000fd5b600080fd5b634e487b7160e01b600052604160045260246000fd5b600180546001600160a01b0319908116909155600080546001600160a01b03938416928116831782559192909116907f8be0079c531659141344cd1fd0a4f28419497f9722a3daafe3b4186f6b6457e09080a356fe6080604052600436101561001257600080fd5b6000803560e01c80630b68fbc214611e7657806315d6f71a14611d255780631a2f716714611cc15780632711e26d14611c825780632d55ea3914611c595780634162169f14611c305780634331ed1f14611c1257806348ce238414611b8557806357a2712714611a265780635bb4780814611997578063600f36a014611972578063606b8e4b146118fd5780636633f4e814611777578063715018a61461171257806374511aaf1461167357806376fac5751461164e57806379ba5097146115855780637cf2d8f1146115465780638910518514611528578063896a30fb1461136e5780638ce2df51146112ed5780638da5cb5b146112c657806394ec7501146112405780639b7d4bc11461119c5780639cbf1a05146111765780639cc1ab32146111535780639e17d03c146110b4578063a6ade95d14611015578063a972985e14610ff0578063afd0224b14610e6a578063bb2037fe14610e13578063bb798a3714610dd4578063c3905a0514610d1e578063c45a015514610cf5578063c864d46014610cd1578063ccf45ded14610cab578063d5da83ea14610c6c578063d9d198bd14610c46578063daea85c51461086e578063e071c1c0146107df578063e0f3d9aa14610747578063e2e5a1e914610554578063e30c39781461052b578063e73a914c1461047e578063ed95ff84146102ba578063f2fde38b1461024d5763faf924cf1461022257600080fd5b3461024a578060031936011261024a576005546040516001600160a01b039091168152602090f35b80fd5b503461024a57602036600319011261024a576102676123d0565b61026f612f7f565b600180546001600160a01b0319166001600160a01b0392831690811790915582549091167f38d16b8cac22d99fc7c124b9cd0de2d3fa1faef420bfe791d8c362d765e227008380a380f35b503461024a57602036600319011261024a576004356102d761258e565b50600a5481101561046a577fc65a7bb8d6351c1cf70c95a316cc6a92839c986682d98bc35f958f4883f9d2a80154600382901b1c6001600160a01b0316808252600760205260408083209051919061032e8361253b565b80546001600160a01b0390811684526001820154908116602085015260a081901c60ff16600581101561045657906001600160401b0391604086015260a81c1660608401526001600160401b036002820154818116608086015260401c1660a08401526003810160405190858154916103a6836124c3565b808552926001811690811561042b57506001146103f0575b5050506103d1816004949596038261256d565b60c0850152015460e08301526103ec604051928392836123ab565b0390f35b908092975052602081205b8682106104155750810160200194506103d18160046103be565b60018160209254838587010152019101906103fb565b60ff191660208087019190915293151560051b850190930197506103d19250839150600490506103be565b634e487b7160e01b86526021600452602486fd5b634e487b7160e01b82526032600452602482fd5b503461024a57602036600319011261024a576104986123d0565b81546001600160a01b031633141580610516575b610507576001600160a01b031680156104f857600680546001600160a01b031916821790557f395c0f5a57accc3f0c20646b402f0845c448f3e4ac4a2ec56a3eaf26d15bf79a8280a280f35b63d92e233d60e01b8252600482fd5b63b577c1f760e01b8252600482fd5b506006546001600160a01b03163314156104ac565b503461024a578060031936011261024a576001546040516001600160a01b039091168152602090f35b503461024a5760c036600319011261024a5761056e61247b565b61057661246c565b90604435918215158093036107435760643561ffff81169384820361073f576084359161ffff831680840361073b5760a4359661ffff8816908189036107375789546001600160a01b031633141580610722575b610713576103e810159182610706575b50816106f9575b50156106c85765ffff0000000060c09567ffff0000000000009363ff0000007fb31f12b6f3f9b117934d0a078c2e1d723d3d776b6b3f413de5e04c63c52be08b9961ffff60401b600c549160401b169862ff000061ffff60401b199589199361ff00891992151560081b169063ffffff001916171691151560101b1617169160181b1617169160201b16179160301b16171780600c5561ffff6040519160ff8160081c161515835260ff8160101c161515602084015260ff8160181c1615156040840152818160201c166060840152818160301c16608084015260401c1660a0820152a180f35b60405162461bcd60e51b81526020600482015260096024820152680e6c6dee4ca7cdac2f60bb1b6044820152606490fd5b6103e891501115386105e1565b6103e810159150386105da565b63b577c1f760e01b8a5260048afd5b506006546001600160a01b03163314156105ca565b8980fd5b8780fd5b8580fd5b8380fd5b503461024a57602036600319011261024a576004356001600160401b0381116107db57366023820112156107db578060040135906001600160401b0382116107d7573660248360051b830101116107d757825b828110156107d357600581901b820160240135906001600160a01b03821682036107cf576107c9600192612620565b0161079a565b8480fd5b8380f35b8280fd5b5080fd5b503461024a57602036600319011261024a576107f96123d0565b81546001600160a01b031633141580610859575b610507576001600160a01b031680156104f857600480546001600160a01b031916821790557fc33c1a95c902d772578a793cd3d42b7d0a418863633ff3be7853c55a4d95388a8280a280f35b506006546001600160a01b031633141561080d565b503461024a57602036600319011261024a576108886123d0565b9060018060a01b0381541633141580610c31575b610c22576108a8612e08565b6003546001600160a01b031615610c14576004546001600160a01b03168015610c05576108d483612ecf565b926001840160ff815460a01c166005811015610bf15760018114159081610be5575b50610bd65783946040519263776f384360e01b845260018060a01b03811694856004860152602085602481845afa948515610bcb578795610b9a575b50600c549060ff8216610a7f575b50509061094f6109a092612ff6565b835460ff60a01b1916600160a11b1790935560020180546fffffffffffffffffffffffffffffffff1916426001600160401b0381169190911760409190911b67ffffffffffffffff60401b16179055565b6109a98361324f565b50827f3fbd84bae66038cb4f8b3304700af6df3123dd4f0e3bb4859cdbb19ae4b2e83c60206040519360018060a01b031693848152a26040519061ffff6020830193858552166040830152606082015260608152610a0860808261256d565b5190206005546001600160a01b0316919082610a28575b83600160025580f35b823b15610a7a5760648492836040519586948593631250d57560e31b85526004850152600b602485015260448401525af1610a65575b8080610a1f565b81610a6f9161256d565b61024a578038610a5e565b505050fd5b60ff8260081c16610af5575b5060ff8160181c16610a9e575b80610940565b61ffff9192965060301c1661ffff841610610abc5793859438610a98565b60405162461bcd60e51b815260206004820152601160248201527039b1b7b9329e36b2b931b430b73a26b4b760791b6044820152606490fd5b60249197506020906040519283809263fbac395160e01b82528a60048301525afa908115610b8f578891610b60575b50610b3157869538610a8b565b60405162461bcd60e51b8152602060048201526007602482015266189b1bd8dad95960ca1b6044820152606490fd5b610b82915060203d602011610b88575b610b7a818361256d565b810190612608565b38610b24565b503d610b70565b6040513d8a823e3d90fd5b610bbd91955060203d602011610bc4575b610bb5818361256d565b8101906125ee565b9338610932565b503d610bab565b6040513d89823e3d90fd5b632e4baded60e11b8452600484fd5b600391501415386108f6565b634e487b7160e01b85526021600452602485fd5b6314f2e90960e01b8252600482fd5b6230237760e91b8152600490fd5b63b577c1f760e01b8152600490fd5b506006546001600160a01b031633141561089c565b503461024a578060031936011261024a57602060ff600c5460101c166040519015158152f35b503461024a57602036600319011261024a5760209060ff906040906001600160a01b03610c976123d0565b168152600e84522054166040519015158152f35b503461024a578060031936011261024a57602060ff600c5460181c166040519015158152f35b503461024a578060031936011261024a57602061ffff600c54821c16604051908152f35b503461024a578060031936011261024a576003546040516001600160a01b039091168152602090f35b503461024a57604036600319011261024a57610d386123d0565b610d4061246c565b9060018060a01b0383541633141580610dbf575b610db0576001600160a01b0316808352600e602090815260408420805460ff191660ff8515151617905590917fc2c9ec7cbbc1e0439940c278c2ffc73bebf61a8d16ef0e10c051c400024c6aab91905b6040519015158152a280f35b63b577c1f760e01b8352600483fd5b506006546001600160a01b0316331415610d54565b503461024a57602036600319011261024a5760209060ff906040906001600160a01b03610dff6123d0565b168152600d84522054166040519015158152f35b503461024a57604036600319011261024a57610e2d6123d0565b602435906001600160a01b03821682036107d757610e4b925061292f565b906103ec604051928392151583526040602084015260408301906122c2565b503461024a57610e79366123e6565b929160018060a01b0383541633141580610fdb575b610db057610e9a612e08565b6001610ea582612ecf565b019360ff855460a01c1694600586101595866104565760028114968715610fce575b8715610fb9575b5050610eda859661248a565b805460ff60a01b1916600160a21b1790556001600160a01b03821692610f5e90610f03856132a4565b50847ff335b29be4bf9768f321cbf4433acc17b433d4e16b7453e1911130db4eb05c936020610f3187612f11565b61ffff60405191168152a2610f506040519384926020840196876125cc565b03601f19810183528261256d565b5190206005546001600160a01b0316919082610f7d5783600160025580f35b823b15610a7a5760648492836040519586948593631250d57560e31b85526004850152600d602485015260448401525af1610a65578080610a1f565b909650610bf157610eda600186971496610ece565b5060038114965085610ec7565b506006546001600160a01b0316331415610e8e565b503461024a57602036600319011261024a5761101261100d6123d0565b612620565b80f35b503461024a57604036600319011261024a5761102f6123d0565b61103761246c565b9060018060a01b038354163314158061109f575b610db0576001600160a01b0316808352600f602090815260408420805460ff191660ff8515151617905590917f34a0ffeba4cf26cc2870ee26f10b6c71f928a9a38aa3951473a624e01b7a16909190610da4565b506006546001600160a01b031633141561104b565b503461024a57604036600319011261024a576110ce6123d0565b6110d661246c565b9060018060a01b038354163314158061113e575b610db0576001600160a01b03168083526010602090815260408420805460ff191660ff8515151617905590917f45b3ba0336d2bc889b8a202a382b71146fa09bbad9850cc21924c7ceeedd72f59190610da4565b506006546001600160a01b03163314156110ea565b503461024a578060031936011261024a57602060ff600c54166040519015158152f35b503461024a578060031936011261024a57602060ff600c5460081c166040519015158152f35b503461024a57602036600319011261024a576111b66123d0565b906111bf612e08565b80546001600160a01b03163314158061122b575b610c22576020826111e381612ff6565b6040516001600160a01b0391821680825292909116907f9728f49d800754473ae173663efa3f3c16649e30cfd06d73335698ea75b2344d908490a26001600255604051908152f35b506006546001600160a01b03163314156111d3565b503461024a57602036600319011261024a5761125a61247b565b81546001600160a01b0316331415806112b1575b6105075760207fb75e259e6b45741122e6bdc4473777b8bded6be13b39c0765f6b0754f0b9679e91151560ff19600c541660ff821617600c55604051908152a180f35b506006546001600160a01b031633141561126e565b503461024a578060031936011261024a57546040516001600160a01b039091168152602090f35b503461024a578060031936011261024a5760405180916020600a54928381520191600a82527fc65a7bb8d6351c1cf70c95a316cc6a92839c986682d98bc35f958f4883f9d2a8915b818110611358576103ec8561134c8187038261256d565b60405191829182612429565b8254845260209093019260019283019201611335565b503461024a5761137d36612290565b61138993929193612e08565b61139233612ecf565b9360ff600186015460a01c166005811015610bf1578060026113bd921490811561151d575b5061248a565b60038501946001600160401b038211611509576113da86546124c3565b601f81116114c4575b508495601f831160011461144d57839160049184889960008051602061338c833981519152989991611442575b508560011b906000198760031b1c19161790555b015561143760405192839233968461251e565b0390a2600160025580f35b905088013538611410565b80865260208620601f198416875b8181106114ac57509185939160008051602061338c8339815191529798998660049510611492575b5050600185811b019055611424565b890135600019600388901b60f8161c191690553880611483565b878a013583556020998a01996001909301920161145b565b86865260208620601f840160051c810191602085106114ff575b601f0160051c01905b8181106114f457506113e3565b8681556001016114e7565b90915081906114de565b634e487b7160e01b85526041600452602485fd5b6003915014386113b7565b503461024a578060031936011261024a576020600a54604051908152f35b503461024a57602036600319011261024a5760209060ff906040906001600160a01b036115716123d0565b168152601084522054166040519015158152f35b503461024a578060031936011261024a57600154336001600160a01b03909116036115f757600180546001600160a01b0319908116909155815433918116821783556001600160a01b03167f8be0079c531659141344cd1fd0a4f28419497f9722a3daafe3b4186f6b6457e08380a380f35b60405162461bcd60e51b815260206004820152602960248201527f4f776e61626c6532537465703a2063616c6c6572206973206e6f7420746865206044820152683732bb9037bbb732b960b91b6064820152608490fd5b503461024a578060031936011261024a57602061ffff600c5460301c16604051908152f35b503461024a57604036600319011261024a5761168d6123d0565b61169561246c565b9060018060a01b03835416331415806116fd575b610db0576001600160a01b0316808352600d602090815260408420805460ff191660ff8515151617905590917f44f2eda14b8ba74d08291fccb7fe6e96b0188538fb528966e0d02a84713f290d9190610da4565b506006546001600160a01b03163314156116a9565b503461024a578060031936011261024a5761172b612f7f565b600180546001600160a01b03199081169091558154908116825581906001600160a01b03167f8be0079c531659141344cd1fd0a4f28419497f9722a3daafe3b4186f6b6457e08280a380f35b503461024a57602036600319011261024a576117916123d0565b61179961258e565b506001600160a01b0316815260076020526040808220905190916117bc8261253b565b82546001600160a01b0390811683526001840154908116602084015260a081901c60ff1660058110156118e957906001600160401b0391604085015260a81c1660608301526001600160401b036002840154818116608085015260401c1660a083015260038301906040519181815491611835836124c3565b80865292600181169081156118be5750600114611881575b6103ec8660048988611861818a038261256d565b60c0840152015460e0820152604051918291602083526020830190612303565b9080935052602082205b8183106118a4575050810160200181611861600461184d565b60018160209294939454838588010152019101919061188b565b60ff191660208088019190915293151560051b8601909301935084925061186191506004905061184d565b634e487b7160e01b83526021600452602483fd5b503461024a578060031936011261024a5760405180916020600854928381520191600882527ff3f7a9fe364faab93b216da50a3214154f22a0a2b415b23a84c8169e8b636ee3915b81811061195c576103ec8561134c8187038261256d565b8254845260209093019260019283019201611945565b503461024a578060031936011261024a57602061ffff600c5460401c16604051908152f35b503461024a57602036600319011261024a576119b16123d0565b81546001600160a01b031633141580611a11575b610507576001600160a01b031680156104f857600380546001600160a01b031916821790557f1edf3afd4ac789736e00d216cd88be164ddcef26a6eedcc30cdb0cb62f3741b18280a280f35b506006546001600160a01b03163314156119c5565b503461024a57611a35366123e6565b9160018060a01b0384541633141580611b70575b611b6157611a55612e08565b6001611a6082612ecf565b019260ff845460a01c16600581101561045657600203611b2f57835460ff60a01b1916600360a01b1790935583926001600160a01b03821692611ad490611aa6856132a4565b50847f2d8315e35c1c01bd300bf491d587c5808e1b895861624ff6751c26d74b6ffac16020610f3187612f11565b5190206005546001600160a01b0316919082611af35783600160025580f35b823b15610a7a5760648492836040519586948593631250d57560e31b85526004850152600c602485015260448401525af1610a65578080610a1f565b60405162461bcd60e51b815260206004820152600a6024820152696e6f742061637469766560b01b6044820152606490fd5b63b577c1f760e01b8452600484fd5b506006546001600160a01b0316331415611a49565b503461024a57602036600319011261024a57611b9f6123d0565b81546001600160a01b031633141580611bfd575b61050757600580546001600160a01b0319166001600160a01b039290921691821790557f672081dadde50e814bb62a7286e6c0cad07071fa40747b022649c85346bdbc848280a280f35b506006546001600160a01b0316331415611bb3565b503461024a578060031936011261024a576020600854604051908152f35b503461024a578060031936011261024a576006546040516001600160a01b039091168152602090f35b503461024a578060031936011261024a576004546040516001600160a01b039091168152602090f35b503461024a57602036600319011261024a5760209060ff906040906001600160a01b03611cad6123d0565b168152600f84522054166040519015158152f35b503461024a57602036600319011261024a576001600160a01b03611ce36123d0565b168152600760205260ff600160408320015460a01c16906005821015611d1157602082600260405191148152f35b634e487b7160e01b81526021600452602490fd5b503461024a57602036600319011261024a57600435611d4261258e565b5060085481101561046a577ff3f7a9fe364faab93b216da50a3214154f22a0a2b415b23a84c8169e8b636ee30154600382901b1c6001600160a01b03168082526007602052604080832090519190611d998361253b565b80546001600160a01b0390811684526001820154908116602085015260a081901c60ff16600581101561045657906001600160401b0391604086015260a81c1660608401526001600160401b036002820154818116608086015260401c1660a0840152600381016040519085815491611e11836124c3565b808552926001811690811561042b5750600114611e3b575050506103d1816004949596038261256d565b908092975052602081205b868210611e605750810160200194506103d18160046103be565b6001816020925483858701015201910190611e46565b503461024a57611e8536612290565b9291611e8f612e08565b338352600760205260408320936001850160ff815460a01c16600581101561045657806120fb575085546001600160a01b03191633178655805468ffffffffffffffffff60a01b19164260a81b67ffffffffffffffff60a81b1617600160a01b17905560038501946001600160401b03841161150957611f0f86546124c3565b601f81116120b6575b508495601f85116001146120465791806004611fb29593611fc695888a9b8b9161203b575b508960011b906000198b60031b1c19161790555b0155611f5c336131dd565b506040517f2f1faa3de47020f51270b7cc733b2325d10a801cc72e617cfa1fafd2fd3a58ea339180611f90858a888461251e565b0390a260405193849260208401963388526060604086015260808501916124fd565b90606083015203601f19810183528261256d565b5190206005546001600160a01b03169081611fe8575b5050505b600160025580f35b813b15612037578291606483926040519586938492631250d57560e31b8452336004850152600a602485015260448401525af1612027575b9080611fdc565b6120309161256d565b3881612020565b5050fd5b905086013538611f3d565b8086526020862096601f198616875b81811061209e5750611fb295938593899a611fc697948a60049510612084575b5050600189811b019055611f51565b87013560001960038c901b60f8161c191690553880612075565b868301358a5560019099019860209283019201612055565b86865260208620601f860160051c810191602087106120f1575b601f0160051c01905b8181106120e65750611f18565b8681556001016120d9565b90915081906120d0565b9293919261211591506001811490811561151d575061248a565b60038501946001600160401b0382116115095761213286546124c3565b601f8111612219575b508495601f83116001146121a257839160049184889960008051602061338c833981519152989991612197575b508560011b906000198760031b1c19161790555b015561218f60405192839233968461251e565b0390a2611fe0565b905088013538612168565b80865260208620601f198416875b81811061220157509185939160008051602061338c83398151915297989986600495106121e7575b5050600185811b01905561217c565b890135600019600388901b60f8161c1916905538806121d8565b878a013583556020998a0199600190930192016121b0565b86865260208620601f840160051c81019160208510612254575b601f0160051c01905b818110612249575061213b565b86815560010161223c565b9091508190612233565b9181601f8401121561228b578235916001600160401b03831161228b576020838186019501011161228b57565b600080fd5b604060031982011261228b57600435906001600160401b03821161228b576122ba9160040161225e565b909160243590565b919082519283825260005b8481106122ee575050826000602080949584010152601f8019910116010190565b806020809284010151828286010152016122cd565b80516001600160a01b03908116835260208083015190911690830152604081015190919060058110156123955760408201526001600160401b0360608301511660608201526001600160401b0360808301511660808201526001600160401b0360a08301511660a082015260e08061238c60c085015161010060c08601526101008501906122c2565b93015191015290565b634e487b7160e01b600052602160045260246000fd5b6001600160a01b0390911681526040602082018190526123cd92910190612303565b90565b600435906001600160a01b038216820361228b57565b90604060031983011261228b576004356001600160a01b038116810361228b5791602435906001600160401b03821161228b576124259160040161225e565b9091565b602060408183019282815284518094520192019060005b81811061244d5750505090565b82516001600160a01b0316845260209384019390920191600101612440565b60243590811515820361228b57565b60043590811515820361228b57565b1561249157565b60405162461bcd60e51b815260206004820152600a6024820152696261642073746174757360b01b6044820152606490fd5b90600182811c921680156124f3575b60208310146124dd57565b634e487b7160e01b600052602260045260246000fd5b91607f16916124d2565b908060209392818452848401376000828201840152601f01601f1916010190565b939291602091612536916040875260408701916124fd565b930152565b61010081019081106001600160401b0382111761255757604052565b634e487b7160e01b600052604160045260246000fd5b90601f801991011681019081106001600160401b0382111761255757604052565b6040519061259b8261253b565b600060e0838281528260208201528260408201528260608201528260808201528260a0820152606060c08201520152565b6001600160a01b0390911681526040602082018190526123cd939101916124fd565b9081602091031261228b575161ffff8116810361228b5790565b9081602091031261228b5751801515810361228b5790565b6004546001600160a01b031690811561291e5761263c81612ecf565b60405163776f384360e01b81526001600160a01b038316600482018190529193602090829060249082905afa908115612882576000916128ff575b506002840180546fffffffffffffffff000000000000000019164260401b67ffffffffffffffff60401b16179055600c549360ff8516156128f8576001019360ff855460a01c166005811015612395576002810361288e575060081c60ff1680612821575b6127925761ffff80600c5460401c1691169081106126fb575b50505050565b835460ff60a01b1916600360a01b179093556127899261271a826132a4565b50817f2d8315e35c1c01bd300bf491d587c5808e1b895861624ff6751c26d74b6ffac16020604051848152a26040519060208201928352604082015260608082015260056080820152641b585a5b9d60da1b60a082015260a0815261278060c08261256d565b51902090612e5c565b388080806126f5565b835460ff60a01b1916600360a01b1790935561281f926127b1826132a4565b50817f2d8315e35c1c01bd300bf491d587c5808e1b895861624ff6751c26d74b6ffac1602061ffff604051941693848152a26040519060208201928352604082015260608082015261278081610f50608082016040906007815266189b1bd8dad95960ca1b60208201520190565b565b506004805460405163fbac395160e01b8152918201849052602090829060249082906001600160a01b03165afa90811561288257600091612863575b506126dc565b61287c915060203d602011610b8857610b7a818361256d565b3861285d565b6040513d6000823e3d90fd5b92945092505060031461289f575050565b60081c60ff166128ad575b50565b602060018060a01b03600454169160246040518094819363fbac395160e01b835260048301525afa801561288257156128aa576128aa9060203d602011610b8857610b7a818361256d565b5050505050565b612918915060203d602011610bc457610bb5818361256d565b38612677565b6314f2e90960e01b60005260046000fd5b6001600160a01b031660008181526007602052604090206001015460a01c60ff1692916005841015612395578315612dd657600060018514612da4575060048414612d6f5781600052600f60205260ff60406000205416612d3b576001600160a01b031660008181526010602052604090205460ff16612d0a5760036000941480612cf3575b612cc157818452600d60205260ff6040852054168015612cab575b612c9857600c549060ff821615612a19576004546001600160a01b0316928315612c6c5760ff8360081c16612b6c575b60ff8360181c16612ad2575b5060ff8260101c16612a33575b50505060019160405190612a2e60208361256d565b815290565b60209060246040518095819363776f384360e01b835260048301525afa918215612ac7578492612aa0575b5061ffff809160201c16911610612a7757388080612a19565b604051612a8560408261256d565b600b81526a62757965723a73636f726560a81b602082015290565b61ffff919250612abf829160203d602011610bc457610bb5818361256d565b929150612a5e565b6040513d86823e3d90fd5b6040519063776f384360e01b82526004820152602081602481875afa908115612b61578691612b42575b5061ffff808460301c16911610612b135738612a0c565b505050604051612b2460408261256d565b600e81526d6d65726368616e743a73636f726560901b602082015290565b612b5b915060203d602011610bc457610bb5818361256d565b38612afc565b6040513d88823e3d90fd5b60405163fbac395160e01b815260048101829052602081602481885afa908115610bcb578791612c4d575b50612c1b5760405163fbac395160e01b815260048101839052602081602481885afa908115610bcb578791612bfc575b5015612a005750505050604051612bdf60408261256d565b600d81526c189d5e595c8e989b1bd8dad959609a1b602082015290565b612c15915060203d602011610b8857610b7a818361256d565b38612bc7565b50505050604051612c2d60408261256d565b601081526f1b595c98da185b9d0e989b1bd8dad95960821b602082015290565b612c66915060203d602011610b8857610b7a818361256d565b38612b97565b50505050604051612c7e60408261256d565b600a8152691cd9595c8e9d5b9cd95d60b21b602082015290565b5050604051600192612a2e60208361256d565b50808452600d60205260ff6040852054166129d0565b5050604051612cd160408261256d565b60128152711b595c98da185b9d0e9cdd5cdc195b99195960721b602082015290565b50818452600e60205260ff604085205416156129b5565b50509050600090604051612d1f60408261256d565b600c81526b189d5e595c8e99195b9a595960a21b602082015290565b50509050600090604051612d5060408261256d565b600f81526e1b595c98da185b9d0e99195b9a5959608a1b602082015290565b50509050600090604051612d8460408261256d565b601081526f1b595c98da185b9d0e9c995d9bdad95960821b602082015290565b93505050604051612db660408261256d565b601081526f6d65726368616e743a70656e64696e6760801b602082015290565b50509050600090604051612deb60408261256d565b600d81526c6d65726368616e743a6e6f6e6560981b602082015290565b6002805414612e175760028055565b60405162461bcd60e51b815260206004820152601f60248201527f5265656e7472616e637947756172643a207265656e7472616e742063616c6c006044820152606490fd5b6005546000926001600160a01b039091169182612e795750505050565b823b15610743579060648492836040519586948593631250d57560e31b855260018060a01b03166004850152600e602485015260448401525af1612ebf575b80806126f5565b81612ec99161256d565b38612eb8565b60018060a01b0316600052600760205260406000209060ff600183015460a01c1660058110156123955715612f0057565b63c5723b5160e01b60005260046000fd5b6004546001600160a01b03169081612f2a575050600090565b60405163776f384360e01b81526001600160a01b03909116600482015290602090829060249082905afa90811561288257600091612f66575090565b6123cd915060203d602011610bc457610bb5818361256d565b6000546001600160a01b03163303612f9357565b606460405162461bcd60e51b815260206004820152602060248201527f4f776e61626c653a2063616c6c6572206973206e6f7420746865206f776e65726044820152fd5b9081602091031261228b57516001600160a01b038116810361228b5790565b6003549091906001600160a01b0316801561319f5761301483612ecf565b604051630709df4560e01b81526001600160a01b0390941660048501819052909190602085602481855afa9485156128825760009561317e575b506001600160a01b03851615613113575b505060035460405163652b9b4160e01b81526001600160a01b038581166004830152909160209183916024918391165afa908115612882576000916130f4575b50156130c35760010180546001600160a01b0319166001600160a01b038416179055565b60405162461bcd60e51b81526020600482015260096024820152681b9bdd081d985d5b1d60ba1b6044820152606490fd5b61310d915060203d602011610b8857610b7a818361256d565b3861309f565b6000929450906024602092604051948593849263e01fd21560e01b845260048401525af19081156128825760009161314f575b5091388061305f565b613171915060203d602011613177575b613169818361256d565b810190612fd7565b38613146565b503d61315f565b61319891955060203d60201161317757613169818361256d565b933861304e565b6230237760e91b60005260046000fd5b80548210156131c75760005260206000200190600090565b634e487b7160e01b600052603260045260246000fd5b80600052600b6020526040600020541560001461324957600a54600160401b81101561255757613230613219826001859401600a55600a6131af565b819391549060031b91821b91600019901b19161790565b9055600a5490600052600b602052604060002055600190565b50600090565b8060005260096020526040600020541560001461324957600854600160401b8110156125575761328b61321982600185940160085560086131af565b9055600854906000526009602052604060002055600190565b600081815260096020526040902054801561338457600019810181811161336e5760085460001981019190821161336e57808203613334575b505050600854801561331e57600019016132f88160086131af565b8154906000199060031b1b19169055600855600052600960205260006040812055600190565b634e487b7160e01b600052603160045260246000fd5b6133566133456132199360086131af565b90549060031b1c92839260086131af565b905560005260096020526040600020553880806132dd565b634e487b7160e01b600052601160045260246000fd5b505060009056fe9c5836c08aceeff8d071b241baafca99c24f2ed01bcadcd893b458db18350acaa26469706673582212205eb19d4b644e5ec98f31dc643d0ef73d7ef47037cc01e751b281cebcb6d43c7164736f6c634300081e0033",
  "linkReferences": {},
  "deployedLinkReferences": {}
}