{
  "_format": "hh-sol-artifact-1",
  "contractName": "VFIDEToken",
  "sourceName": "contracts/VFIDEToken.sol",
  "abi": [
    {
      "inputs": [
        {
          "internalType": "address",
          "name": "genesisReceiver",
          "type": "address"
        },
        {
          "internalType": "address",
          "name": "vaultFactory_",
          "type": "address"
        },
        {
          "internalType": "address",
          "name": "ecoTreasury_",
          "type": "address"
        },
        {
          "internalType": "address",
          "name": "sanctum_",
          "type": "address"
        },
        {
          "internalType": "uint16",
          "name": "initBurnBps",
          "type": "uint16"
        },
        {
          "internalType": "uint16",
          "name": "initEcoBps",
          "type": "uint16"
        },
        {
          "internalType": "uint16",
          "name": "initSanctumBps",
          "type": "uint16"
        }
      ],
      "stateMutability": "nonpayable",
      "type": "constructor"
    },
    {
      "inputs": [],
      "name": "InvalidShortString",
      "type": "error"
    },
    {
      "inputs": [
        {
          "internalType": "string",
          "name": "str",
          "type": "string"
        }
      ],
      "name": "StringTooLong",
      "type": "error"
    },
    {
      "anonymous": false,
      "inputs": [
        {
          "indexed": true,
          "internalType": "address",
          "name": "owner",
          "type": "address"
        },
        {
          "indexed": true,
          "internalType": "address",
          "name": "spender",
          "type": "address"
        },
        {
          "indexed": false,
          "internalType": "uint256",
          "name": "value",
          "type": "uint256"
        }
      ],
      "name": "Approval",
      "type": "event"
    },
    {
      "anonymous": false,
      "inputs": [],
      "name": "EIP712DomainChanged",
      "type": "event"
    },
    {
      "anonymous": false,
      "inputs": [
        {
          "indexed": true,
          "internalType": "address",
          "name": "previousOwner",
          "type": "address"
        },
        {
          "indexed": true,
          "internalType": "address",
          "name": "newOwner",
          "type": "address"
        }
      ],
      "name": "OwnershipTransferStarted",
      "type": "event"
    },
    {
      "anonymous": false,
      "inputs": [
        {
          "indexed": true,
          "internalType": "address",
          "name": "previousOwner",
          "type": "address"
        },
        {
          "indexed": true,
          "internalType": "address",
          "name": "newOwner",
          "type": "address"
        }
      ],
      "name": "OwnershipTransferred",
      "type": "event"
    },
    {
      "anonymous": false,
      "inputs": [
        {
          "indexed": false,
          "internalType": "address",
          "name": "ecoTreasury",
          "type": "address"
        },
        {
          "indexed": false,
          "internalType": "address",
          "name": "sanctum",
          "type": "address"
        }
      ],
      "name": "SinksSet",
      "type": "event"
    },
    {
      "anonymous": false,
      "inputs": [
        {
          "indexed": false,
          "internalType": "uint16",
          "name": "burnBps",
          "type": "uint16"
        },
        {
          "indexed": false,
          "internalType": "uint16",
          "name": "ecoBps",
          "type": "uint16"
        },
        {
          "indexed": false,
          "internalType": "uint16",
          "name": "sanctumBps",
          "type": "uint16"
        }
      ],
      "name": "SplitActivated",
      "type": "event"
    },
    {
      "anonymous": false,
      "inputs": [
        {
          "indexed": false,
          "internalType": "uint16",
          "name": "burnBps",
          "type": "uint16"
        },
        {
          "indexed": false,
          "internalType": "uint16",
          "name": "ecoBps",
          "type": "uint16"
        },
        {
          "indexed": false,
          "internalType": "uint16",
          "name": "sanctumBps",
          "type": "uint16"
        },
        {
          "indexed": false,
          "internalType": "uint64",
          "name": "eta",
          "type": "uint64"
        }
      ],
      "name": "SplitProposed",
      "type": "event"
    },
    {
      "anonymous": false,
      "inputs": [
        {
          "indexed": true,
          "internalType": "address",
          "name": "who",
          "type": "address"
        },
        {
          "indexed": false,
          "internalType": "bool",
          "name": "enabled",
          "type": "bool"
        }
      ],
      "name": "SystemExemptSet",
      "type": "event"
    },
    {
      "anonymous": false,
      "inputs": [
        {
          "indexed": true,
          "internalType": "address",
          "name": "from",
          "type": "address"
        },
        {
          "indexed": true,
          "internalType": "address",
          "name": "to",
          "type": "address"
        },
        {
          "indexed": false,
          "internalType": "uint256",
          "name": "value",
          "type": "uint256"
        }
      ],
      "name": "Transfer",
      "type": "event"
    },
    {
      "anonymous": false,
      "inputs": [
        {
          "indexed": false,
          "internalType": "address",
          "name": "factory",
          "type": "address"
        }
      ],
      "name": "VaultFactorySet",
      "type": "event"
    },
    {
      "anonymous": false,
      "inputs": [
        {
          "indexed": false,
          "internalType": "bool",
          "name": "enabled",
          "type": "bool"
        }
      ],
      "name": "VaultPolicySet",
      "type": "event"
    },
    {
      "inputs": [],
      "name": "BPS_DENOM",
      "outputs": [
        {
          "internalType": "uint16",
          "name": "",
          "type": "uint16"
        }
      ],
      "stateMutability": "view",
      "type": "function"
    },
    {
      "inputs": [],
      "name": "DOMAIN_SEPARATOR",
      "outputs": [
        {
          "internalType": "bytes32",
          "name": "",
          "type": "bytes32"
        }
      ],
      "stateMutability": "view",
      "type": "function"
    },
    {
      "inputs": [],
      "name": "MAX_SPLIT_CHANGE_BPS",
      "outputs": [
        {
          "internalType": "uint16",
          "name": "",
          "type": "uint16"
        }
      ],
      "stateMutability": "view",
      "type": "function"
    },
    {
      "inputs": [],
      "name": "MAX_SUPPLY",
      "outputs": [
        {
          "internalType": "uint256",
          "name": "",
          "type": "uint256"
        }
      ],
      "stateMutability": "view",
      "type": "function"
    },
    {
      "inputs": [],
      "name": "SPLIT_CHANGE_DELAY",
      "outputs": [
        {
          "internalType": "uint64",
          "name": "",
          "type": "uint64"
        }
      ],
      "stateMutability": "view",
      "type": "function"
    },
    {
      "inputs": [],
      "name": "acceptOwnership",
      "outputs": [],
      "stateMutability": "nonpayable",
      "type": "function"
    },
    {
      "inputs": [],
      "name": "activateSplitChange",
      "outputs": [],
      "stateMutability": "nonpayable",
      "type": "function"
    },
    {
      "inputs": [
        {
          "internalType": "address",
          "name": "owner",
          "type": "address"
        },
        {
          "internalType": "address",
          "name": "spender",
          "type": "address"
        }
      ],
      "name": "allowance",
      "outputs": [
        {
          "internalType": "uint256",
          "name": "",
          "type": "uint256"
        }
      ],
      "stateMutability": "view",
      "type": "function"
    },
    {
      "inputs": [
        {
          "internalType": "address",
          "name": "spender",
          "type": "address"
        },
        {
          "internalType": "uint256",
          "name": "amount",
          "type": "uint256"
        }
      ],
      "name": "approve",
      "outputs": [
        {
          "internalType": "bool",
          "name": "",
          "type": "bool"
        }
      ],
      "stateMutability": "nonpayable",
      "type": "function"
    },
    {
      "inputs": [
        {
          "internalType": "address",
          "name": "account",
          "type": "address"
        }
      ],
      "name": "balanceOf",
      "outputs": [
        {
          "internalType": "uint256",
          "name": "",
          "type": "uint256"
        }
      ],
      "stateMutability": "view",
      "type": "function"
    },
    {
      "inputs": [
        {
          "internalType": "uint256",
          "name": "amount",
          "type": "uint256"
        }
      ],
      "name": "burn",
      "outputs": [],
      "stateMutability": "nonpayable",
      "type": "function"
    },
    {
      "inputs": [],
      "name": "burnBps",
      "outputs": [
        {
          "internalType": "uint16",
          "name": "",
          "type": "uint16"
        }
      ],
      "stateMutability": "view",
      "type": "function"
    },
    {
      "inputs": [
        {
          "internalType": "address",
          "name": "account",
          "type": "address"
        },
        {
          "internalType": "uint256",
          "name": "amount",
          "type": "uint256"
        }
      ],
      "name": "burnFrom",
      "outputs": [],
      "stateMutability": "nonpayable",
      "type": "function"
    },
    {
      "inputs": [
        {
          "internalType": "uint256",
          "name": "amount",
          "type": "uint256"
        }
      ],
      "name": "burnWithRouting",
      "outputs": [],
      "stateMutability": "nonpayable",
      "type": "function"
    },
    {
      "inputs": [],
      "name": "decimals",
      "outputs": [
        {
          "internalType": "uint8",
          "name": "",
          "type": "uint8"
        }
      ],
      "stateMutability": "view",
      "type": "function"
    },
    {
      "inputs": [
        {
          "internalType": "address",
          "name": "spender",
          "type": "address"
        },
        {
          "internalType": "uint256",
          "name": "subtractedValue",
          "type": "uint256"
        }
      ],
      "name": "decreaseAllowance",
      "outputs": [
        {
          "internalType": "bool",
          "name": "",
          "type": "bool"
        }
      ],
      "stateMutability": "nonpayable",
      "type": "function"
    },
    {
      "inputs": [],
      "name": "ecoBps",
      "outputs": [
        {
          "internalType": "uint16",
          "name": "",
          "type": "uint16"
        }
      ],
      "stateMutability": "view",
      "type": "function"
    },
    {
      "inputs": [],
      "name": "ecoTreasury",
      "outputs": [
        {
          "internalType": "address",
          "name": "",
          "type": "address"
        }
      ],
      "stateMutability": "view",
      "type": "function"
    },
    {
      "inputs": [],
      "name": "eip712Domain",
      "outputs": [
        {
          "internalType": "bytes1",
          "name": "fields",
          "type": "bytes1"
        },
        {
          "internalType": "string",
          "name": "name",
          "type": "string"
        },
        {
          "internalType": "string",
          "name": "version",
          "type": "string"
        },
        {
          "internalType": "uint256",
          "name": "chainId",
          "type": "uint256"
        },
        {
          "internalType": "address",
          "name": "verifyingContract",
          "type": "address"
        },
        {
          "internalType": "bytes32",
          "name": "salt",
          "type": "bytes32"
        },
        {
          "internalType": "uint256[]",
          "name": "extensions",
          "type": "uint256[]"
        }
      ],
      "stateMutability": "view",
      "type": "function"
    },
    {
      "inputs": [
        {
          "internalType": "address",
          "name": "spender",
          "type": "address"
        },
        {
          "internalType": "uint256",
          "name": "addedValue",
          "type": "uint256"
        }
      ],
      "name": "increaseAllowance",
      "outputs": [
        {
          "internalType": "bool",
          "name": "",
          "type": "bool"
        }
      ],
      "stateMutability": "nonpayable",
      "type": "function"
    },
    {
      "inputs": [],
      "name": "name",
      "outputs": [
        {
          "internalType": "string",
          "name": "",
          "type": "string"
        }
      ],
      "stateMutability": "view",
      "type": "function"
    },
    {
      "inputs": [
        {
          "internalType": "address",
          "name": "owner",
          "type": "address"
        }
      ],
      "name": "nonces",
      "outputs": [
        {
          "internalType": "uint256",
          "name": "",
          "type": "uint256"
        }
      ],
      "stateMutability": "view",
      "type": "function"
    },
    {
      "inputs": [],
      "name": "owner",
      "outputs": [
        {
          "internalType": "address",
          "name": "",
          "type": "address"
        }
      ],
      "stateMutability": "view",
      "type": "function"
    },
    {
      "inputs": [],
      "name": "pendingBurnBps",
      "outputs": [
        {
          "internalType": "uint16",
          "name": "",
          "type": "uint16"
        }
      ],
      "stateMutability": "view",
      "type": "function"
    },
    {
      "inputs": [],
      "name": "pendingEcoBps",
      "outputs": [
        {
          "internalType": "uint16",
          "name": "",
          "type": "uint16"
        }
      ],
      "stateMutability": "view",
      "type": "function"
    },
    {
      "inputs": [],
      "name": "pendingOwner",
      "outputs": [
        {
          "internalType": "address",
          "name": "",
          "type": "address"
        }
      ],
      "stateMutability": "view",
      "type": "function"
    },
    {
      "inputs": [],
      "name": "pendingSanctumBps",
      "outputs": [
        {
          "internalType": "uint16",
          "name": "",
          "type": "uint16"
        }
      ],
      "stateMutability": "view",
      "type": "function"
    },
    {
      "inputs": [
        {
          "internalType": "address",
          "name": "owner",
          "type": "address"
        },
        {
          "internalType": "address",
          "name": "spender",
          "type": "address"
        },
        {
          "internalType": "uint256",
          "name": "value",
          "type": "uint256"
        },
        {
          "internalType": "uint256",
          "name": "deadline",
          "type": "uint256"
        },
        {
          "internalType": "uint8",
          "name": "v",
          "type": "uint8"
        },
        {
          "internalType": "bytes32",
          "name": "r",
          "type": "bytes32"
        },
        {
          "internalType": "bytes32",
          "name": "s",
          "type": "bytes32"
        }
      ],
      "name": "permit",
      "outputs": [],
      "stateMutability": "nonpayable",
      "type": "function"
    },
    {
      "inputs": [
        {
          "internalType": "uint16",
          "name": "newBurnBps",
          "type": "uint16"
        },
        {
          "internalType": "uint16",
          "name": "newEcoBps",
          "type": "uint16"
        },
        {
          "internalType": "uint16",
          "name": "newSanctumBps",
          "type": "uint16"
        }
      ],
      "name": "proposeSplitChange",
      "outputs": [],
      "stateMutability": "nonpayable",
      "type": "function"
    },
    {
      "inputs": [],
      "name": "renounceOwnership",
      "outputs": [],
      "stateMutability": "nonpayable",
      "type": "function"
    },
    {
      "inputs": [],
      "name": "sanctum",
      "outputs": [
        {
          "internalType": "address",
          "name": "",
          "type": "address"
        }
      ],
      "stateMutability": "view",
      "type": "function"
    },
    {
      "inputs": [],
      "name": "sanctumBps",
      "outputs": [
        {
          "internalType": "uint16",
          "name": "",
          "type": "uint16"
        }
      ],
      "stateMutability": "view",
      "type": "function"
    },
    {
      "inputs": [
        {
          "internalType": "address",
          "name": "ecoTreasury_",
          "type": "address"
        },
        {
          "internalType": "address",
          "name": "sanctum_",
          "type": "address"
        }
      ],
      "name": "setSinks",
      "outputs": [],
      "stateMutability": "nonpayable",
      "type": "function"
    },
    {
      "inputs": [
        {
          "internalType": "address",
          "name": "who",
          "type": "address"
        },
        {
          "internalType": "bool",
          "name": "enabled",
          "type": "bool"
        }
      ],
      "name": "setSystemExempt",
      "outputs": [],
      "stateMutability": "nonpayable",
      "type": "function"
    },
    {
      "inputs": [
        {
          "internalType": "address",
          "name": "f",
          "type": "address"
        }
      ],
      "name": "setVaultFactory",
      "outputs": [],
      "stateMutability": "nonpayable",
      "type": "function"
    },
    {
      "inputs": [
        {
          "internalType": "bool",
          "name": "enabled",
          "type": "bool"
        }
      ],
      "name": "setVaultOnly",
      "outputs": [],
      "stateMutability": "nonpayable",
      "type": "function"
    },
    {
      "inputs": [],
      "name": "splitChangeEta",
      "outputs": [
        {
          "internalType": "uint64",
          "name": "",
          "type": "uint64"
        }
      ],
      "stateMutability": "view",
      "type": "function"
    },
    {
      "inputs": [],
      "name": "symbol",
      "outputs": [
        {
          "internalType": "string",
          "name": "",
          "type": "string"
        }
      ],
      "stateMutability": "view",
      "type": "function"
    },
    {
      "inputs": [
        {
          "internalType": "address",
          "name": "",
          "type": "address"
        }
      ],
      "name": "systemExempt",
      "outputs": [
        {
          "internalType": "bool",
          "name": "",
          "type": "bool"
        }
      ],
      "stateMutability": "view",
      "type": "function"
    },
    {
      "inputs": [],
      "name": "totalSupply",
      "outputs": [
        {
          "internalType": "uint256",
          "name": "",
          "type": "uint256"
        }
      ],
      "stateMutability": "view",
      "type": "function"
    },
    {
      "inputs": [
        {
          "internalType": "address",
          "name": "to",
          "type": "address"
        },
        {
          "internalType": "uint256",
          "name": "amount",
          "type": "uint256"
        }
      ],
      "name": "transfer",
      "outputs": [
        {
          "internalType": "bool",
          "name": "",
          "type": "bool"
        }
      ],
      "stateMutability": "nonpayable",
      "type": "function"
    },
    {
      "inputs": [
        {
          "internalType": "address",
          "name": "from",
          "type": "address"
        },
        {
          "internalType": "address",
          "name": "to",
          "type": "address"
        },
        {
          "internalType": "uint256",
          "name": "amount",
          "type": "uint256"
        }
      ],
      "name": "transferFrom",
      "outputs": [
        {
          "internalType": "bool",
          "name": "",
          "type": "bool"
        }
      ],
      "stateMutability": "nonpayable",
      "type": "function"
    },
    {
      "inputs": [
        {
          "internalType": "address",
          "name": "newOwner",
          "type": "address"
        }
      ],
      "name": "transferOwnership",
      "outputs": [],
      "stateMutability": "nonpayable",
      "type": "function"
    },
    {
      "inputs": [],
      "name": "vaultFactory",
      "outputs": [
        {
          "internalType": "contract IVaultFactoryToken",
          "name": "",
          "type": "address"
        }
      ],
      "stateMutability": "view",
      "type": "function"
    },
    {
      "inputs": [],
      "name": "vaultOnly",
      "outputs": [
        {
          "internalType": "bool",
          "name": "",
          "type": "bool"
        }
      ],
      "stateMutability": "view",
      "type": "function"
    }
  ],
  "bytecode": "0x61016080604052346107a95760e081612a41803803809161002082856107ae565b8339810103126107a957610033816107d1565b90610040602082016107d1565b9061004d604082016107d1565b610059606083016107d1565b610065608084016107e5565b9161007e60c061007760a087016107e5565b95016107e5565b9460405161008d6040826107ae565b600581526020810164564649444560d81b8152604051906100af6040836107ae565b6005825264564649444560d81b6020830152604051926100d06040856107ae565b6005845264564649444560d81b6020850152604051936100f16040866107ae565b60018552603160f81b60208601908152845190946001600160401b0382116106a65760035490600182811c9216801561079f575b60208310146106865781601f84931161072f575b50602090601f83116001146106c7576000926106bc575b50508160011b916000199060031b1c1916176003555b8051906001600160401b0382116106a65760045490600182811c9216801561069c575b60208310146106865781601f849311610616575b50602090601f83116001146105ae576000926105a3575b50508160011b916000199060031b1c1916176004555b6101d381610817565b610120526101e0846109c5565b61014052519020918260e05251902080610100524660a0526040519060208201927f8b73c3c69bb8fe3d512ecc4cf759cc79239f7b179b0ffacaa9a75d522b39400f8452604083015260608201524660808201523060a082015260a0815261024960c0826107ae565b5190206080523060c052600a5460098054336001600160a01b031982168117909255604051999291906001600160a01b03167f8be0079c531659141344cd1fd0a4f28419497f9722a3daafe3b4186f6b6457e0600080a36001600160a81b031916600160a01b17600a556001600160a01b031696871561056e57506001600160a01b03168015610536576127106102f66102eb61ffff881661ffff88166107f4565b61ffff8916906107f4565b036104f1576000966002546aa56fa5b99019a5c800000081018091116104dd5760609796959493927f57a7b93fb32405c4ce3505a4c1fbb4b06d58e4c10ebd4cfad8b948f2e5d5ffdf927f666124c1e613342755b63851dad18eeb7a368a2ac25f38b79f69f29edb1b918a9a602093600255818152808452604081206aa56fa5b99019a5c800000081540190557fddf252ad1be2c89b69c2b068fc378daa952ba7f163c4a11628f55a4df523b3ef846040516aa56fa5b99019a5c80000008152a3600b80546001600160a01b03191682179055604051908152a1600d80546001600160a01b0319166001600160a01b03928316908117909155600e546040805192835293909216602082018190529591927f7f55069d78ee5bc40caa8c20b206f2c66a5e0376942d46eee3a7423694c8bbd391a161ffff60c01b9060c01b169361ffff60c01b199160018060c01b03191617169061ffff60a01b9060a01b16179061ffff60b01b9060b01b16171780600e5561ffff60405191818160a01c168352818160b01c16602084015260c01c166040820152a1604051611edd9081610b6482396080518161197d015260a05181611a3a015260c05181611947015260e051816119cc015261010051816119f201526101205181610c8f01526101405181610cb80152f35b634e487b7160e01b89526011600452602489fd5b60405162461bcd60e51b815260206004820152601460248201527f56464944453a2073706c697420213d20313030250000000000000000000000006044820152606490fd5b60405162461bcd60e51b815260206004820152601060248201526f056464944453a20666163746f72793d360841b6044820152606490fd5b62461bcd60e51b815260206004820152601060248201526f056464944453a2067656e657369733d360841b6044820152606490fd5b0151905038806101b4565b600460009081528281209350601f198516905b8181106105fe57509084600195949392106105e5575b505050811b016004556101ca565b015160001960f88460031b161c191690553880806105d7565b929360206001819287860151815501950193016105c1565b60046000529091507f8a35acfbc15ff81a39ae7d344fd709f28e8600b4aa8c65c6b64bfe7fe36bd19b601f840160051c8101916020851061067c575b90601f859493920160051c01905b81811061066d575061019d565b60008155849350600101610660565b9091508190610652565b634e487b7160e01b600052602260045260246000fd5b91607f1691610189565b634e487b7160e01b600052604160045260246000fd5b015190503880610150565b600360009081528281209350601f198516905b81811061071757509084600195949392106106fe575b505050811b01600355610166565b015160001960f88460031b161c191690553880806106f0565b929360206001819287860151815501950193016106da565b60036000529091507fc2575a0e9e593c00f959f8c92f12db2869c3395a3b0502d05e2516446f71f85b601f840160051c81019160208510610795575b90601f859493920160051c01905b8181106107865750610139565b60008155849350600101610779565b909150819061076b565b91607f1691610125565b600080fd5b601f909101601f19168101906001600160401b038211908210176106a657604052565b51906001600160a01b03821682036107a957565b519061ffff821682036107a957565b9190820180921161080157565b634e487b7160e01b600052601160045260246000fd5b908151602081106000146108af575090601f815111610853576020815191015160208210610843571790565b6000198260200360031b1b161790565b6040519063305a27a960e01b8252602060048301528181519182602483015260005b8381106108975750508160006044809484010152601f80199101168101030190fd5b60208282018101516044878401015285935001610875565b6001600160401b0381116106a657600554600181811c911680156109bb575b602082101461068657601f8111610985575b50602092601f82116001146109205792819293600092610915575b50508160011b916000199060031b1c19161760055560ff90565b0151905038806108fb565b601f198216936005600052806000209160005b86811061096d5750836001959610610954575b505050811b0160055560ff90565b015160001960f88460031b161c19169055388080610946565b91926020600181928685015181550194019201610933565b6005600052601f6020600020910160051c810190601f830160051c015b8181106109af57506108e0565b600081556001016109a2565b90607f16906108ce565b90815160208110600014610a4d575090601f8151116109f1576020815191015160208210610843571790565b6040519063305a27a960e01b8252602060048301528181519182602483015260005b838110610a355750508160006044809484010152601f80199101168101030190fd5b60208282018101516044878401015285935001610a13565b6001600160401b0381116106a657600654600181811c91168015610b59575b602082101461068657601f8111610b23575b50602092601f8211600114610abe5792819293600092610ab3575b50508160011b916000199060031b1c19161760065560ff90565b015190503880610a99565b601f198216936006600052806000209160005b868110610b0b5750836001959610610af2575b505050811b0160065560ff90565b015160001960f88460031b161c19169055388080610ae4565b91926020600181928685015181550194019201610ad1565b6006600052601f6020600020910160051c810190601f830160051c015b818110610b4d5750610a7e565b60008155600101610b40565b90607f1690610a6c56fe608080604052600436101561001357600080fd5b60003560e01c90816306e0c52c1461147b5750806306fdde03146113d3578063095ea7b3146113ad57806318160ddd1461138f578063226a51c91461136757806323b872dd1461132f578063313ce5671461131357806332cb6b0c146112ed57806335c3b8f7146112c45780633644e515146112a1578063395093511461124f5780633ea7fbdb146111a657806342966c681461118957806353deb3d6146111645780635bb2416a146111435780635e4e0ae8146110345780636336f3ac14610fb55780636637e38c14610f98578063667a790614610f7357806370a0823114610f39578063715018a614610ed257806379ba509714610e0657806379cc679014610dd65780637ecebe0014610d9c578063823ac84214610d7357806384b0196e14610c765780638c5522d514610ad55780638da5cb5b14610aac57806395d89b41146109c7578063a457c2d714610920578063a9059cbb146108ef578063b6e906ea146108ca578063c458d0b7146108a5578063c4b740f514610839578063cee05135146106af578063d505accf1461050e578063d6b54735146104cf578063d8a06f73146104a6578063da2e028f1461035a578063dd62ed3e14610309578063e30c3978146102e0578063e78ba69d146102bb578063f2fde38b1461024e578063f709ca2e146102315763fa5f4e2e1461020e57600080fd5b3461022c57600036600319011261022c5760206040516202a3008152f35b600080fd5b3461022c57600036600319011261022c5760206040516103e88152f35b3461022c57602036600319011261022c576102676114df565b61026f611a60565b600a80546001600160a01b0319166001600160a01b039283169081179091556009549091167f38d16b8cac22d99fc7c124b9cd0de2d3fa1faef420bfe791d8c362d765e22700600080a3005b3461022c57600036600319011261022c57602061ffff600e5460d01c16604051908152f35b3461022c57600036600319011261022c57600a546040516001600160a01b039091168152602090f35b3461022c57604036600319011261022c576103226114df565b61032a6114f5565b6001600160a01b039182166000908152600160209081526040808320949093168252928352819020549051908152f35b3461022c57600036600319011261022c57610373611a60565b600f5467ffffffffffffffff8116801515908161049b575b501561045d57600e80546001600160a01b038116603082811c61ffff60a01b1691821761ffff60a01b1984168317821c61ffff60b01b1690811763ffffffff60a01b1985168417821790921c61ffff60c01b1691821790945567ffffffffffffffff19909416600f556040805167ffffffffffffffff60a01b1990931690911790921790921760a081901c61ffff908116845260b082901c8116602085015260c09190911c16908201527f666124c1e613342755b63851dad18eeb7a368a2ac25f38b79f69f29edb1b918a90606090a1005b60405162461bcd60e51b815260206004820152601660248201527556464944453a2073706c6974206e6f7420726561647960501b6044820152606490fd5b90504210158261038b565b3461022c57600036600319011261022c57600b546040516001600160a01b039091168152602090f35b3461022c57602036600319011261022c576001600160a01b036104f06114df565b16600052600c602052602060ff604060002054166040519015158152f35b3461022c5760e036600319011261022c576105276114df565b61052f6114f5565b6044359060643560843560ff8116810361022c5781421161066a5761060461060c9160018060a01b038716938460005260076020526040600020908154916001830190556040519060208201927f6e71edae12b1b97f4d1f60370fef10105fa2faae0126114a169c64845d6126c9845287604084015260018060a01b038916606084015289608084015260a083015260c082015260c081526105d260e0826115c8565b5190206105dd611944565b906040519161190160f01b83526002830152602282015260c43591604260a4359220611d01565b919091611d8d565b6001600160a01b0316036106255761062392611620565b005b60405162461bcd60e51b815260206004820152601e60248201527f45524332305065726d69743a20696e76616c6964207369676e617475726500006044820152606490fd5b60405162461bcd60e51b815260206004820152601d60248201527f45524332305065726d69743a206578706972656420646561646c696e650000006044820152606490fd5b3461022c57606036600319011261022c5760043561ffff81169081810361022c576024359161ffff83169182840361022c576044359361ffff85169485810361022c576106fa611a60565b6127106107108761070b8888611600565b611600565b036107fd57600e549061072a8461ffff8460a01c16611cc2565b61073b8361ffff8460b01c16611cc2565b61074c8161ffff8460c01c16611cc2565b61ffff60f01b9060f01b169261ffff60d01b9060d01b169060018060d01b0316179061ffff60e01b9060e01b161717600e556202a3004201918242116107e7577f82e84ec086778586431bffda4a0634bba8b270deae5487ba2ed4b1472ae0ae0b9367ffffffffffffffff60809416918267ffffffffffffffff19600f541617600f55604051938452602084015260408301526060820152a1005b634e487b7160e01b600052601160045260246000fd5b60405162461bcd60e51b815260206004820152601460248201527356464944453a2073706c697420213d203130302560601b6044820152606490fd5b3461022c57602036600319011261022c5760043580151580910361022c5760207fd14688a4d3199667ad1c5464afc4df4b094d4a87401378a2fab877f16d32c82491610883611a60565b600a805460ff60a01b191660a083901b60ff60a01b16179055604051908152a1005b3461022c57600036600319011261022c57602061ffff600e5460b01c16604051908152f35b3461022c57600036600319011261022c57602061ffff600e5460c01c16604051908152f35b3461022c57604036600319011261022c5761091561090b6114df565b60243590336117c5565b602060405160018152f35b3461022c57604036600319011261022c576109396114df565b60243590336000526001602052604060002060018060a01b038216600052602052604060002054918083106109745761091592039033611620565b60405162461bcd60e51b815260206004820152602560248201527f45524332303a2064656372656173656420616c6c6f77616e63652062656c6f77604482015264207a65726f60d81b6064820152608490fd5b3461022c57600036600319011261022c5760405160006004546109e98161150b565b8084529060018116908115610a885750600114610a29575b610a2583610a11818503826115c8565b60405191829160208352602083019061149e565b0390f35b600460009081527f8a35acfbc15ff81a39ae7d344fd709f28e8600b4aa8c65c6b64bfe7fe36bd19b939250905b808210610a6e57509091508101602001610a11610a01565b919260018160209254838588010152019101909291610a56565b60ff191660208086019190915291151560051b84019091019150610a119050610a01565b3461022c57600036600319011261022c576009546040516001600160a01b039091168152602090f35b3461022c57602036600319011261022c576004358015610c3f57600e54612710610b0661ffff8360a01c168461160d565b0480612710610b2d61ffff82610b21828860b01c168961160d565b049560c01c168661160d565b0493610b3d8561070b8685611600565b818110610c21575b50505080610c11575b5080610bb6575b5080610b5d57005b600e546001600160a01b0316908115610b7a5761062391336117c5565b60405162461bcd60e51b815260206004820152601460248201527315919251114e881cd85b98dd1d5b481d5b9cd95d60621b6044820152606490fd5b600d546001600160a01b0316908115610bd957610bd391336117c5565b81610b55565b60405162461bcd60e51b815260206004820152601060248201526f15919251114e881958dbc81d5b9cd95d60821b6044820152606490fd5b610c1b9033611ab8565b82610b4e565b9080929350039081116107e757610c3791611600565b838080610b45565b60405162461bcd60e51b815260206004820152600f60248201526e056464944453a20616d6f756e743d3608c1b6044820152606490fd5b3461022c57600036600319011261022c57610d15610cb37f0000000000000000000000000000000000000000000000000000000000000000611bc2565b610cdc7f0000000000000000000000000000000000000000000000000000000000000000611c29565b6020610d2360405192610cef83856115c8565b600084526000368137604051958695600f60f81b875260e08588015260e087019061149e565b90858203604087015261149e565b466060850152306080850152600060a085015283810360c085015281808451928381520193019160005b828110610d5c57505050500390f35b835185528695509381019392810192600101610d4d565b3461022c57600036600319011261022c57600e546040516001600160a01b039091168152602090f35b3461022c57602036600319011261022c576001600160a01b03610dbd6114df565b1660005260076020526020604060002054604051908152f35b3461022c57604036600319011261022c57610623610df26114df565b60243590610e01823383611728565b611ab8565b3461022c57600036600319011261022c57600a54336001600160a01b0390911603610e7b57600a80546001600160a01b0319908116909155600980543392811683179091556001600160a01b03167f8be0079c531659141344cd1fd0a4f28419497f9722a3daafe3b4186f6b6457e0600080a3005b60405162461bcd60e51b815260206004820152602960248201527f4f776e61626c6532537465703a2063616c6c6572206973206e6f7420746865206044820152683732bb9037bbb732b960b91b6064820152608490fd5b3461022c57600036600319011261022c57610eeb611a60565b600a80546001600160a01b03199081169091556009805491821690556000906001600160a01b03167f8be0079c531659141344cd1fd0a4f28419497f9722a3daafe3b4186f6b6457e08280a3005b3461022c57602036600319011261022c576001600160a01b03610f5a6114df565b1660005260006020526020604060002054604051908152f35b3461022c57600036600319011261022c57602061ffff600e5460e01c16604051908152f35b3461022c57600036600319011261022c5760206040516127108152f35b3461022c57604036600319011261022c57610fce6114df565b6024359081151580920361022c5760207f44f2eda14b8ba74d08291fccb7fe6e96b0188538fb528966e0d02a84713f290d91611008611a60565b60018060a01b03169283600052600c8252604060002060ff1981541660ff8316179055604051908152a2005b3461022c57604036600319011261022c5761104d6114df565b6110556114f5565b9061105e611a60565b6001600160a01b031690811561110f576001600160a01b031680156110d757816040917f7f55069d78ee5bc40caa8c20b206f2c66a5e0376942d46eee3a7423694c8bbd3936001600160601b0360a01b600d541617600d55806001600160601b0360a01b600e541617600e5582519182526020820152a1005b60405162461bcd60e51b815260206004820152601060248201526f056464944453a2073616e6374756d3d360841b6044820152606490fd5b60405162461bcd60e51b815260206004820152600c60248201526b056464944453a2065636f3d360a41b6044820152606490fd5b3461022c57600036600319011261022c576020600e5460f01c604051908152f35b3461022c57600036600319011261022c57602061ffff600e5460a01c16604051908152f35b3461022c57602036600319011261022c5761062360043533611ab8565b3461022c57602036600319011261022c576111bf6114df565b6111c7611a60565b6001600160a01b03168015611217576020817f57a7b93fb32405c4ce3505a4c1fbb4b06d58e4c10ebd4cfad8b948f2e5d5ffdf926001600160601b0360a01b600b541617600b55604051908152a1005b60405162461bcd60e51b815260206004820152601060248201526f056464944453a20666163746f72793d360841b6044820152606490fd5b3461022c57604036600319011261022c5761091561126b6114df565b336000526001602052604060002060018060a01b03821660005260205261129a60406000206024359054611600565b9033611620565b3461022c57600036600319011261022c5760206112bc611944565b604051908152f35b3461022c57600036600319011261022c57600d546040516001600160a01b039091168152602090f35b3461022c57600036600319011261022c5760206040516aa56fa5b99019a5c80000008152f35b3461022c57600036600319011261022c57602060405160128152f35b3461022c57606036600319011261022c5761091561134b6114df565b6113536114f5565b60443591611362833383611728565b6117c5565b3461022c57600036600319011261022c57602067ffffffffffffffff600f5416604051908152f35b3461022c57600036600319011261022c576020600254604051908152f35b3461022c57604036600319011261022c576109156113c96114df565b6024359033611620565b3461022c57600036600319011261022c5760405160006003546113f58161150b565b8084529060018116908115610a88575060011461141c57610a2583610a11818503826115c8565b600360009081527fc2575a0e9e593c00f959f8c92f12db2869c3395a3b0502d05e2516446f71f85b939250905b80821061146157509091508101602001610a11610a01565b919260018160209254838588010152019101909291611449565b3461022c57600036600319011261022c5760209060ff600a5460a01c1615158152f35b919082519283825260005b8481106114ca575050826000602080949584010152601f8019910116010190565b806020809284010151828286010152016114a9565b600435906001600160a01b038216820361022c57565b602435906001600160a01b038216820361022c57565b90600182811c9216801561153b575b602083101461152557565b634e487b7160e01b600052602260045260246000fd5b91607f169161151a565b600092918154916115558361150b565b80835292600181169081156115ab575060011461157157505050565b60009081526020812093945091925b838310611591575060209250010190565b600181602092949394548385870101520191019190611580565b915050602093945060ff929192191683830152151560051b010190565b90601f8019910116810190811067ffffffffffffffff8211176115ea57604052565b634e487b7160e01b600052604160045260246000fd5b919082018092116107e757565b818102929181159184041417156107e757565b6001600160a01b03169081156116d7576001600160a01b03169182156116875760207f8c5be1e5ebec7d5bd14f71427d1e84f3dd0314c0f7b2291e5b200ac8c7c3b925918360005260018252604060002085600052825280604060002055604051908152a3565b60405162461bcd60e51b815260206004820152602260248201527f45524332303a20617070726f766520746f20746865207a65726f206164647265604482015261737360f01b6064820152608490fd5b60405162461bcd60e51b8152602060048201526024808201527f45524332303a20617070726f76652066726f6d20746865207a65726f206164646044820152637265737360e01b6064820152608490fd5b9060018060a01b0382166000526001602052604060002060018060a01b038216600052602052604060002054926000198403611765575b50505050565b80841061178057611777930391611620565b3880808061175f565b60405162461bcd60e51b815260206004820152601d60248201527f45524332303a20696e73756666696369656e7420616c6c6f77616e63650000006044820152606490fd5b6001600160a01b03169081156118f1576001600160a01b03169182156118a05781600052600060205260406000205481811061184c57817fddf252ad1be2c89b69c2b068fc378daa952ba7f163c4a11628f55a4df523b3ef9260209285600052600084520360406000205584600052600082526040600020818154019055604051908152a3565b60405162461bcd60e51b815260206004820152602660248201527f45524332303a207472616e7366657220616d6f756e7420657863656564732062604482015265616c616e636560d01b6064820152608490fd5b60405162461bcd60e51b815260206004820152602360248201527f45524332303a207472616e7366657220746f20746865207a65726f206164647260448201526265737360e81b6064820152608490fd5b60405162461bcd60e51b815260206004820152602560248201527f45524332303a207472616e736665722066726f6d20746865207a65726f206164604482015264647265737360d81b6064820152608490fd5b307f00000000000000000000000000000000000000000000000000000000000000006001600160a01b03161480611a37575b1561199f577f000000000000000000000000000000000000000000000000000000000000000090565b60405160208101907f8b73c3c69bb8fe3d512ecc4cf759cc79239f7b179b0ffacaa9a75d522b39400f82527f000000000000000000000000000000000000000000000000000000000000000060408201527f000000000000000000000000000000000000000000000000000000000000000060608201524660808201523060a082015260a08152611a3160c0826115c8565b51902090565b507f00000000000000000000000000000000000000000000000000000000000000004614611976565b6009546001600160a01b03163303611a7457565b606460405162461bcd60e51b815260206004820152602060248201527f4f776e61626c653a2063616c6c6572206973206e6f7420746865206f776e65726044820152fd5b6001600160a01b03168015611b735780600052600060205260406000205491808310611b23576020817fddf252ad1be2c89b69c2b068fc378daa952ba7f163c4a11628f55a4df523b3ef926000958587528684520360408620558060025403600255604051908152a3565b60405162461bcd60e51b815260206004820152602260248201527f45524332303a206275726e20616d6f756e7420657863656564732062616c616e604482015261636560f01b6064820152608490fd5b60405162461bcd60e51b815260206004820152602160248201527f45524332303a206275726e2066726f6d20746865207a65726f206164647265736044820152607360f81b6064820152608490fd5b60ff8114611c0c5760ff811690601f8211611bfb576040805192611be682856115c8565b6020808552840191601f190136833783525290565b632cd44ac360e21b60005260046000fd5b50604051611c2681611c1f816005611545565b03826115c8565b90565b60ff8114611c4d5760ff811690601f8211611bfb576040805192611be682856115c8565b50604051611c2681611c1f816006611545565b9061ffff8091169116039061ffff82116107e757565b15611c7d57565b60405162461bcd60e51b815260206004820152601b60248201527f56464944453a2073706c69742064656c746120746f6f206869676800000000006044820152606490fd5b9061ffff80831690821610611cee5761ffff611ce4611cec936103e893611c60565b161115611c76565b565b61ffff611ce46103e892611cec94611c60565b7f7fffffffffffffffffffffffffffffff5d576e7357a4501ddfe92f46681b20a08411611d815760209360009360ff60809460405194855216868401526040830152606082015282805260015afa15611d75576000516001600160a01b03811615611d6c5790600090565b50600090600190565b6040513d6000823e3d90fd5b50505050600090600390565b6005811015611e915780611d9e5750565b60018103611deb5760405162461bcd60e51b815260206004820152601860248201527f45434453413a20696e76616c6964207369676e617475726500000000000000006044820152606490fd5b60028103611e385760405162461bcd60e51b815260206004820152601f60248201527f45434453413a20696e76616c6964207369676e6174757265206c656e677468006044820152606490fd5b600314611e4157565b60405162461bcd60e51b815260206004820152602260248201527f45434453413a20696e76616c6964207369676e6174757265202773272076616c604482015261756560f01b6064820152608490fd5b634e487b7160e01b600052602160045260246000fdfea2646970667358221220425d849e782bf117e40e525375bf8074db640fc47def2382cbf229480144ae3a64736f6c634300081e0033",
  "linkReferences": {},
  "deployedLinkReferences": {}
}