{
  "_format": "hh-sol-artifact-1",
  "contractName": "VFIDEToken",
  "sourceName": "contracts/VFIDEToken.sol",
  "abi": [
    {
      "inputs": [
        {
          "internalType": "address",
          "name": "devReserveVestingVault",
          "type": "address"
        },
        {
          "internalType": "address",
          "name": "_presaleContract",
          "type": "address"
        },
        {
          "internalType": "address",
          "name": "treasury",
          "type": "address"
        },
        {
          "internalType": "address",
          "name": "_vaultHub",
          "type": "address"
        },
        {
          "internalType": "address",
          "name": "_ledger",
          "type": "address"
        },
        {
          "internalType": "address",
          "name": "_treasurySink",
          "type": "address"
        }
      ],
      "stateMutability": "nonpayable",
      "type": "constructor"
    },
    {
      "inputs": [],
      "name": "Token_NotVault",
      "type": "error"
    },
    {
      "inputs": [],
      "name": "VF_CAP",
      "type": "error"
    },
    {
      "inputs": [],
      "name": "VF_DailyLimitExceeded",
      "type": "error"
    },
    {
      "inputs": [],
      "name": "VF_LOCKED",
      "type": "error"
    },
    {
      "inputs": [],
      "name": "VF_MaxTransferExceeded",
      "type": "error"
    },
    {
      "inputs": [],
      "name": "VF_MaxWalletExceeded",
      "type": "error"
    },
    {
      "inputs": [],
      "name": "VF_POLICY_LOCKED",
      "type": "error"
    },
    {
      "inputs": [],
      "name": "VF_TransferCooldown",
      "type": "error"
    },
    {
      "inputs": [],
      "name": "VF_ZERO",
      "type": "error"
    },
    {
      "anonymous": false,
      "inputs": [
        {
          "indexed": false,
          "internalType": "uint256",
          "name": "maxTransfer",
          "type": "uint256"
        },
        {
          "indexed": false,
          "internalType": "uint256",
          "name": "maxWallet",
          "type": "uint256"
        },
        {
          "indexed": false,
          "internalType": "uint256",
          "name": "dailyLimit",
          "type": "uint256"
        },
        {
          "indexed": false,
          "internalType": "uint256",
          "name": "cooldown",
          "type": "uint256"
        }
      ],
      "name": "AntiWhaleSet",
      "type": "event"
    },
    {
      "anonymous": false,
      "inputs": [
        {
          "indexed": true,
          "internalType": "address",
          "name": "owner",
          "type": "address"
        },
        {
          "indexed": true,
          "internalType": "address",
          "name": "spender",
          "type": "address"
        },
        {
          "indexed": false,
          "internalType": "uint256",
          "name": "value",
          "type": "uint256"
        }
      ],
      "name": "Approval",
      "type": "event"
    },
    {
      "anonymous": false,
      "inputs": [
        {
          "indexed": true,
          "internalType": "address",
          "name": "user",
          "type": "address"
        },
        {
          "indexed": false,
          "internalType": "bool",
          "name": "status",
          "type": "bool"
        },
        {
          "indexed": true,
          "internalType": "address",
          "name": "setBy",
          "type": "address"
        }
      ],
      "name": "BlacklistSet",
      "type": "event"
    },
    {
      "anonymous": false,
      "inputs": [
        {
          "indexed": true,
          "internalType": "address",
          "name": "router",
          "type": "address"
        }
      ],
      "name": "BurnRouterSet",
      "type": "event"
    },
    {
      "anonymous": false,
      "inputs": [
        {
          "indexed": false,
          "internalType": "bool",
          "name": "active",
          "type": "bool"
        },
        {
          "indexed": false,
          "internalType": "uint256",
          "name": "expiry",
          "type": "uint256"
        }
      ],
      "name": "CircuitBreakerSet",
      "type": "event"
    },
    {
      "anonymous": false,
      "inputs": [
        {
          "indexed": true,
          "internalType": "address",
          "name": "target",
          "type": "address"
        },
        {
          "indexed": false,
          "internalType": "bool",
          "name": "exempt",
          "type": "bool"
        }
      ],
      "name": "ExemptSet",
      "type": "event"
    },
    {
      "anonymous": false,
      "inputs": [
        {
          "indexed": true,
          "internalType": "address",
          "name": "from",
          "type": "address"
        },
        {
          "indexed": true,
          "internalType": "address",
          "name": "to",
          "type": "address"
        },
        {
          "indexed": false,
          "internalType": "uint256",
          "name": "burnAmount",
          "type": "uint256"
        },
        {
          "indexed": false,
          "internalType": "uint256",
          "name": "sanctumAmount",
          "type": "uint256"
        },
        {
          "indexed": false,
          "internalType": "uint256",
          "name": "ecosystemAmount",
          "type": "uint256"
        },
        {
          "indexed": true,
          "internalType": "address",
          "name": "sanctumSink",
          "type": "address"
        },
        {
          "indexed": false,
          "internalType": "address",
          "name": "ecosystemSink",
          "type": "address"
        }
      ],
      "name": "FeeApplied",
      "type": "event"
    },
    {
      "anonymous": false,
      "inputs": [
        {
          "indexed": true,
          "internalType": "address",
          "name": "user",
          "type": "address"
        },
        {
          "indexed": false,
          "internalType": "bool",
          "name": "frozen",
          "type": "bool"
        },
        {
          "indexed": true,
          "internalType": "address",
          "name": "setBy",
          "type": "address"
        }
      ],
      "name": "FrozenSet",
      "type": "event"
    },
    {
      "anonymous": false,
      "inputs": [
        {
          "indexed": true,
          "internalType": "address",
          "name": "ledger",
          "type": "address"
        }
      ],
      "name": "LedgerSet",
      "type": "event"
    },
    {
      "anonymous": false,
      "inputs": [
        {
          "indexed": true,
          "internalType": "address",
          "name": "previousOwner",
          "type": "address"
        },
        {
          "indexed": true,
          "internalType": "address",
          "name": "newOwner",
          "type": "address"
        }
      ],
      "name": "OwnershipTransferStarted",
      "type": "event"
    },
    {
      "anonymous": false,
      "inputs": [
        {
          "indexed": true,
          "internalType": "address",
          "name": "previousOwner",
          "type": "address"
        },
        {
          "indexed": true,
          "internalType": "address",
          "name": "newOwner",
          "type": "address"
        }
      ],
      "name": "OwnershipTransferred",
      "type": "event"
    },
    {
      "anonymous": false,
      "inputs": [],
      "name": "PolicyLocked",
      "type": "event"
    },
    {
      "anonymous": false,
      "inputs": [
        {
          "indexed": true,
          "internalType": "address",
          "name": "presale",
          "type": "address"
        }
      ],
      "name": "PresaleContractSet",
      "type": "event"
    },
    {
      "anonymous": false,
      "inputs": [
        {
          "indexed": true,
          "internalType": "address",
          "name": "sink",
          "type": "address"
        }
      ],
      "name": "SanctumSinkSet",
      "type": "event"
    },
    {
      "anonymous": false,
      "inputs": [
        {
          "indexed": true,
          "internalType": "address",
          "name": "hub",
          "type": "address"
        }
      ],
      "name": "SecurityHubSet",
      "type": "event"
    },
    {
      "anonymous": false,
      "inputs": [
        {
          "indexed": true,
          "internalType": "address",
          "name": "who",
          "type": "address"
        },
        {
          "indexed": false,
          "internalType": "bool",
          "name": "isExempt",
          "type": "bool"
        }
      ],
      "name": "SystemExemptSet",
      "type": "event"
    },
    {
      "anonymous": false,
      "inputs": [
        {
          "indexed": true,
          "internalType": "address",
          "name": "from",
          "type": "address"
        },
        {
          "indexed": true,
          "internalType": "address",
          "name": "to",
          "type": "address"
        },
        {
          "indexed": false,
          "internalType": "uint256",
          "name": "value",
          "type": "uint256"
        }
      ],
      "name": "Transfer",
      "type": "event"
    },
    {
      "anonymous": false,
      "inputs": [
        {
          "indexed": true,
          "internalType": "address",
          "name": "sink",
          "type": "address"
        }
      ],
      "name": "TreasurySinkSet",
      "type": "event"
    },
    {
      "anonymous": false,
      "inputs": [
        {
          "indexed": true,
          "internalType": "address",
          "name": "hub",
          "type": "address"
        }
      ],
      "name": "VaultHubSet",
      "type": "event"
    },
    {
      "anonymous": false,
      "inputs": [
        {
          "indexed": false,
          "internalType": "bool",
          "name": "enabled",
          "type": "bool"
        }
      ],
      "name": "VaultOnlySet",
      "type": "event"
    },
    {
      "anonymous": false,
      "inputs": [
        {
          "indexed": true,
          "internalType": "address",
          "name": "addr",
          "type": "address"
        },
        {
          "indexed": false,
          "internalType": "bool",
          "name": "exempt",
          "type": "bool"
        }
      ],
      "name": "WhaleLimitExemptSet",
      "type": "event"
    },
    {
      "anonymous": false,
      "inputs": [
        {
          "indexed": true,
          "internalType": "address",
          "name": "addr",
          "type": "address"
        },
        {
          "indexed": false,
          "internalType": "bool",
          "name": "status",
          "type": "bool"
        }
      ],
      "name": "Whitelisted",
      "type": "event"
    },
    {
      "inputs": [],
      "name": "DEV_RESERVE_SUPPLY",
      "outputs": [
        {
          "internalType": "uint256",
          "name": "",
          "type": "uint256"
        }
      ],
      "stateMutability": "view",
      "type": "function"
    },
    {
      "inputs": [],
      "name": "DOMAIN_SEPARATOR",
      "outputs": [
        {
          "internalType": "bytes32",
          "name": "",
          "type": "bytes32"
        }
      ],
      "stateMutability": "view",
      "type": "function"
    },
    {
      "inputs": [],
      "name": "FREEZE_DELAY",
      "outputs": [
        {
          "internalType": "uint64",
          "name": "",
          "type": "uint64"
        }
      ],
      "stateMutability": "view",
      "type": "function"
    },
    {
      "inputs": [],
      "name": "MAX_CIRCUIT_BREAKER_DURATION",
      "outputs": [
        {
          "internalType": "uint256",
          "name": "",
          "type": "uint256"
        }
      ],
      "stateMutability": "view",
      "type": "function"
    },
    {
      "inputs": [],
      "name": "MAX_SUPPLY",
      "outputs": [
        {
          "internalType": "uint256",
          "name": "",
          "type": "uint256"
        }
      ],
      "stateMutability": "view",
      "type": "function"
    },
    {
      "inputs": [],
      "name": "PERMIT_TYPEHASH",
      "outputs": [
        {
          "internalType": "bytes32",
          "name": "",
          "type": "bytes32"
        }
      ],
      "stateMutability": "view",
      "type": "function"
    },
    {
      "inputs": [],
      "name": "PRESALE_CAP",
      "outputs": [
        {
          "internalType": "uint256",
          "name": "",
          "type": "uint256"
        }
      ],
      "stateMutability": "view",
      "type": "function"
    },
    {
      "inputs": [],
      "name": "acceptOwnership",
      "outputs": [],
      "stateMutability": "nonpayable",
      "type": "function"
    },
    {
      "inputs": [
        {
          "internalType": "address",
          "name": "owner_",
          "type": "address"
        },
        {
          "internalType": "address",
          "name": "spender",
          "type": "address"
        }
      ],
      "name": "allowance",
      "outputs": [
        {
          "internalType": "uint256",
          "name": "",
          "type": "uint256"
        }
      ],
      "stateMutability": "view",
      "type": "function"
    },
    {
      "inputs": [
        {
          "internalType": "address",
          "name": "spender",
          "type": "address"
        },
        {
          "internalType": "uint256",
          "name": "amount",
          "type": "uint256"
        }
      ],
      "name": "approve",
      "outputs": [
        {
          "internalType": "bool",
          "name": "",
          "type": "bool"
        }
      ],
      "stateMutability": "nonpayable",
      "type": "function"
    },
    {
      "inputs": [
        {
          "internalType": "address",
          "name": "account",
          "type": "address"
        }
      ],
      "name": "balanceOf",
      "outputs": [
        {
          "internalType": "uint256",
          "name": "",
          "type": "uint256"
        }
      ],
      "stateMutability": "view",
      "type": "function"
    },
    {
      "inputs": [],
      "name": "burnRouter",
      "outputs": [
        {
          "internalType": "contract IProofScoreBurnRouterToken",
          "name": "",
          "type": "address"
        }
      ],
      "stateMutability": "view",
      "type": "function"
    },
    {
      "inputs": [
        {
          "internalType": "address",
          "name": "from",
          "type": "address"
        },
        {
          "internalType": "address",
          "name": "to",
          "type": "address"
        },
        {
          "internalType": "uint256",
          "name": "amount",
          "type": "uint256"
        }
      ],
      "name": "canTransfer",
      "outputs": [
        {
          "internalType": "bool",
          "name": "canDo",
          "type": "bool"
        },
        {
          "internalType": "string",
          "name": "reason",
          "type": "string"
        }
      ],
      "stateMutability": "view",
      "type": "function"
    },
    {
      "inputs": [],
      "name": "cancelOwnershipTransfer",
      "outputs": [],
      "stateMutability": "nonpayable",
      "type": "function"
    },
    {
      "inputs": [],
      "name": "circuitBreaker",
      "outputs": [
        {
          "internalType": "bool",
          "name": "",
          "type": "bool"
        }
      ],
      "stateMutability": "view",
      "type": "function"
    },
    {
      "inputs": [],
      "name": "circuitBreakerExpiry",
      "outputs": [
        {
          "internalType": "uint256",
          "name": "",
          "type": "uint256"
        }
      ],
      "stateMutability": "view",
      "type": "function"
    },
    {
      "inputs": [
        {
          "internalType": "address",
          "name": "account",
          "type": "address"
        }
      ],
      "name": "cooldownRemaining",
      "outputs": [
        {
          "internalType": "uint256",
          "name": "",
          "type": "uint256"
        }
      ],
      "stateMutability": "view",
      "type": "function"
    },
    {
      "inputs": [
        {
          "internalType": "address",
          "name": "",
          "type": "address"
        }
      ],
      "name": "dailyResetTime",
      "outputs": [
        {
          "internalType": "uint256",
          "name": "",
          "type": "uint256"
        }
      ],
      "stateMutability": "view",
      "type": "function"
    },
    {
      "inputs": [],
      "name": "dailyTransferLimit",
      "outputs": [
        {
          "internalType": "uint256",
          "name": "",
          "type": "uint256"
        }
      ],
      "stateMutability": "view",
      "type": "function"
    },
    {
      "inputs": [
        {
          "internalType": "address",
          "name": "",
          "type": "address"
        }
      ],
      "name": "dailyTransferred",
      "outputs": [
        {
          "internalType": "uint256",
          "name": "",
          "type": "uint256"
        }
      ],
      "stateMutability": "view",
      "type": "function"
    },
    {
      "inputs": [],
      "name": "decimals",
      "outputs": [
        {
          "internalType": "uint8",
          "name": "",
          "type": "uint8"
        }
      ],
      "stateMutability": "view",
      "type": "function"
    },
    {
      "inputs": [
        {
          "internalType": "address",
          "name": "spender",
          "type": "address"
        },
        {
          "internalType": "uint256",
          "name": "subtracted",
          "type": "uint256"
        }
      ],
      "name": "decreaseAllowance",
      "outputs": [
        {
          "internalType": "bool",
          "name": "",
          "type": "bool"
        }
      ],
      "stateMutability": "nonpayable",
      "type": "function"
    },
    {
      "inputs": [
        {
          "internalType": "address",
          "name": "",
          "type": "address"
        }
      ],
      "name": "freezeTime",
      "outputs": [
        {
          "internalType": "uint64",
          "name": "",
          "type": "uint64"
        }
      ],
      "stateMutability": "view",
      "type": "function"
    },
    {
      "inputs": [
        {
          "internalType": "address",
          "name": "user",
          "type": "address"
        }
      ],
      "name": "getDailyTransferStats",
      "outputs": [
        {
          "internalType": "uint256",
          "name": "transferred",
          "type": "uint256"
        },
        {
          "internalType": "uint256",
          "name": "limit",
          "type": "uint256"
        },
        {
          "internalType": "uint256",
          "name": "remaining",
          "type": "uint256"
        },
        {
          "internalType": "uint256",
          "name": "resetTime",
          "type": "uint256"
        },
        {
          "internalType": "uint256",
          "name": "nextResetTime",
          "type": "uint256"
        }
      ],
      "stateMutability": "view",
      "type": "function"
    },
    {
      "inputs": [
        {
          "internalType": "address",
          "name": "account",
          "type": "address"
        }
      ],
      "name": "getTransferLimitsFor",
      "outputs": [
        {
          "internalType": "uint256",
          "name": "maxPerTransfer",
          "type": "uint256"
        },
        {
          "internalType": "uint256",
          "name": "maxWallet",
          "type": "uint256"
        },
        {
          "internalType": "uint256",
          "name": "dailyLimit",
          "type": "uint256"
        },
        {
          "internalType": "uint256",
          "name": "dailyRemaining",
          "type": "uint256"
        },
        {
          "internalType": "uint256",
          "name": "cooldownSecs",
          "type": "uint256"
        },
        {
          "internalType": "uint256",
          "name": "cooldownRemain",
          "type": "uint256"
        },
        {
          "internalType": "bool",
          "name": "isExempt",
          "type": "bool"
        }
      ],
      "stateMutability": "view",
      "type": "function"
    },
    {
      "inputs": [
        {
          "internalType": "address",
          "name": "spender",
          "type": "address"
        },
        {
          "internalType": "uint256",
          "name": "added",
          "type": "uint256"
        }
      ],
      "name": "increaseAllowance",
      "outputs": [
        {
          "internalType": "bool",
          "name": "",
          "type": "bool"
        }
      ],
      "stateMutability": "nonpayable",
      "type": "function"
    },
    {
      "inputs": [
        {
          "internalType": "address",
          "name": "",
          "type": "address"
        }
      ],
      "name": "isBlacklisted",
      "outputs": [
        {
          "internalType": "bool",
          "name": "",
          "type": "bool"
        }
      ],
      "stateMutability": "view",
      "type": "function"
    },
    {
      "inputs": [],
      "name": "isCircuitBreakerActive",
      "outputs": [
        {
          "internalType": "bool",
          "name": "",
          "type": "bool"
        }
      ],
      "stateMutability": "view",
      "type": "function"
    },
    {
      "inputs": [
        {
          "internalType": "address",
          "name": "",
          "type": "address"
        }
      ],
      "name": "isFrozen",
      "outputs": [
        {
          "internalType": "bool",
          "name": "",
          "type": "bool"
        }
      ],
      "stateMutability": "view",
      "type": "function"
    },
    {
      "inputs": [
        {
          "internalType": "address",
          "name": "",
          "type": "address"
        }
      ],
      "name": "lastTransferTime",
      "outputs": [
        {
          "internalType": "uint256",
          "name": "",
          "type": "uint256"
        }
      ],
      "stateMutability": "view",
      "type": "function"
    },
    {
      "inputs": [],
      "name": "ledger",
      "outputs": [
        {
          "internalType": "contract IProofLedger",
          "name": "",
          "type": "address"
        }
      ],
      "stateMutability": "view",
      "type": "function"
    },
    {
      "inputs": [],
      "name": "lockPolicy",
      "outputs": [],
      "stateMutability": "nonpayable",
      "type": "function"
    },
    {
      "inputs": [],
      "name": "maxTransferAmount",
      "outputs": [
        {
          "internalType": "uint256",
          "name": "",
          "type": "uint256"
        }
      ],
      "stateMutability": "view",
      "type": "function"
    },
    {
      "inputs": [],
      "name": "maxWalletBalance",
      "outputs": [
        {
          "internalType": "uint256",
          "name": "",
          "type": "uint256"
        }
      ],
      "stateMutability": "view",
      "type": "function"
    },
    {
      "inputs": [],
      "name": "name",
      "outputs": [
        {
          "internalType": "string",
          "name": "",
          "type": "string"
        }
      ],
      "stateMutability": "view",
      "type": "function"
    },
    {
      "inputs": [
        {
          "internalType": "address",
          "name": "",
          "type": "address"
        }
      ],
      "name": "nonces",
      "outputs": [
        {
          "internalType": "uint256",
          "name": "",
          "type": "uint256"
        }
      ],
      "stateMutability": "view",
      "type": "function"
    },
    {
      "inputs": [],
      "name": "owner",
      "outputs": [
        {
          "internalType": "address",
          "name": "",
          "type": "address"
        }
      ],
      "stateMutability": "view",
      "type": "function"
    },
    {
      "inputs": [],
      "name": "pendingOwner",
      "outputs": [
        {
          "internalType": "address",
          "name": "",
          "type": "address"
        }
      ],
      "stateMutability": "view",
      "type": "function"
    },
    {
      "inputs": [
        {
          "internalType": "address",
          "name": "owner",
          "type": "address"
        },
        {
          "internalType": "address",
          "name": "spender",
          "type": "address"
        },
        {
          "internalType": "uint256",
          "name": "value",
          "type": "uint256"
        },
        {
          "internalType": "uint256",
          "name": "deadline",
          "type": "uint256"
        },
        {
          "internalType": "uint8",
          "name": "v",
          "type": "uint8"
        },
        {
          "internalType": "bytes32",
          "name": "r",
          "type": "bytes32"
        },
        {
          "internalType": "bytes32",
          "name": "s",
          "type": "bytes32"
        }
      ],
      "name": "permit",
      "outputs": [],
      "stateMutability": "nonpayable",
      "type": "function"
    },
    {
      "inputs": [],
      "name": "policyLocked",
      "outputs": [
        {
          "internalType": "bool",
          "name": "",
          "type": "bool"
        }
      ],
      "stateMutability": "view",
      "type": "function"
    },
    {
      "inputs": [],
      "name": "presaleContract",
      "outputs": [
        {
          "internalType": "address",
          "name": "",
          "type": "address"
        }
      ],
      "stateMutability": "view",
      "type": "function"
    },
    {
      "inputs": [
        {
          "internalType": "address",
          "name": "from",
          "type": "address"
        },
        {
          "internalType": "address",
          "name": "to",
          "type": "address"
        },
        {
          "internalType": "uint256",
          "name": "amount",
          "type": "uint256"
        }
      ],
      "name": "previewTransferFees",
      "outputs": [
        {
          "internalType": "uint256",
          "name": "burnAmount",
          "type": "uint256"
        },
        {
          "internalType": "uint256",
          "name": "sanctumAmount",
          "type": "uint256"
        },
        {
          "internalType": "uint256",
          "name": "ecosystemAmount",
          "type": "uint256"
        },
        {
          "internalType": "uint256",
          "name": "netReceived",
          "type": "uint256"
        }
      ],
      "stateMutability": "view",
      "type": "function"
    },
    {
      "inputs": [
        {
          "internalType": "address",
          "name": "account",
          "type": "address"
        }
      ],
      "name": "remainingDailyLimit",
      "outputs": [
        {
          "internalType": "uint256",
          "name": "",
          "type": "uint256"
        }
      ],
      "stateMutability": "view",
      "type": "function"
    },
    {
      "inputs": [],
      "name": "sanctumSink",
      "outputs": [
        {
          "internalType": "address",
          "name": "",
          "type": "address"
        }
      ],
      "stateMutability": "view",
      "type": "function"
    },
    {
      "inputs": [],
      "name": "securityHub",
      "outputs": [
        {
          "internalType": "contract ISecurityHub",
          "name": "",
          "type": "address"
        }
      ],
      "stateMutability": "view",
      "type": "function"
    },
    {
      "inputs": [
        {
          "internalType": "uint256",
          "name": "_maxTransfer",
          "type": "uint256"
        },
        {
          "internalType": "uint256",
          "name": "_maxWallet",
          "type": "uint256"
        },
        {
          "internalType": "uint256",
          "name": "_dailyLimit",
          "type": "uint256"
        },
        {
          "internalType": "uint256",
          "name": "_cooldown",
          "type": "uint256"
        }
      ],
      "name": "setAntiWhale",
      "outputs": [],
      "stateMutability": "nonpayable",
      "type": "function"
    },
    {
      "inputs": [
        {
          "internalType": "address",
          "name": "user",
          "type": "address"
        },
        {
          "internalType": "bool",
          "name": "status",
          "type": "bool"
        }
      ],
      "name": "setBlacklist",
      "outputs": [],
      "stateMutability": "nonpayable",
      "type": "function"
    },
    {
      "inputs": [
        {
          "internalType": "address",
          "name": "router",
          "type": "address"
        }
      ],
      "name": "setBurnRouter",
      "outputs": [],
      "stateMutability": "nonpayable",
      "type": "function"
    },
    {
      "inputs": [
        {
          "internalType": "bool",
          "name": "_active",
          "type": "bool"
        },
        {
          "internalType": "uint256",
          "name": "_duration",
          "type": "uint256"
        }
      ],
      "name": "setCircuitBreaker",
      "outputs": [],
      "stateMutability": "nonpayable",
      "type": "function"
    },
    {
      "inputs": [
        {
          "internalType": "address",
          "name": "user",
          "type": "address"
        },
        {
          "internalType": "bool",
          "name": "frozen",
          "type": "bool"
        }
      ],
      "name": "setFrozen",
      "outputs": [],
      "stateMutability": "nonpayable",
      "type": "function"
    },
    {
      "inputs": [
        {
          "internalType": "address",
          "name": "_ledger",
          "type": "address"
        }
      ],
      "name": "setLedger",
      "outputs": [],
      "stateMutability": "nonpayable",
      "type": "function"
    },
    {
      "inputs": [
        {
          "internalType": "address",
          "name": "_sanctum",
          "type": "address"
        }
      ],
      "name": "setSanctumSink",
      "outputs": [],
      "stateMutability": "nonpayable",
      "type": "function"
    },
    {
      "inputs": [
        {
          "internalType": "address",
          "name": "hub",
          "type": "address"
        }
      ],
      "name": "setSecurityHub",
      "outputs": [],
      "stateMutability": "nonpayable",
      "type": "function"
    },
    {
      "inputs": [
        {
          "internalType": "address",
          "name": "who",
          "type": "address"
        },
        {
          "internalType": "bool",
          "name": "isExempt",
          "type": "bool"
        }
      ],
      "name": "setSystemExempt",
      "outputs": [],
      "stateMutability": "nonpayable",
      "type": "function"
    },
    {
      "inputs": [
        {
          "internalType": "address",
          "name": "sink",
          "type": "address"
        }
      ],
      "name": "setTreasurySink",
      "outputs": [],
      "stateMutability": "nonpayable",
      "type": "function"
    },
    {
      "inputs": [
        {
          "internalType": "address",
          "name": "hub",
          "type": "address"
        }
      ],
      "name": "setVaultHub",
      "outputs": [],
      "stateMutability": "nonpayable",
      "type": "function"
    },
    {
      "inputs": [
        {
          "internalType": "bool",
          "name": "enabled",
          "type": "bool"
        }
      ],
      "name": "setVaultOnly",
      "outputs": [],
      "stateMutability": "nonpayable",
      "type": "function"
    },
    {
      "inputs": [
        {
          "internalType": "address",
          "name": "addr",
          "type": "address"
        },
        {
          "internalType": "bool",
          "name": "exempt",
          "type": "bool"
        }
      ],
      "name": "setWhaleLimitExempt",
      "outputs": [],
      "stateMutability": "nonpayable",
      "type": "function"
    },
    {
      "inputs": [
        {
          "internalType": "address",
          "name": "addr",
          "type": "address"
        },
        {
          "internalType": "bool",
          "name": "status",
          "type": "bool"
        }
      ],
      "name": "setWhitelist",
      "outputs": [],
      "stateMutability": "nonpayable",
      "type": "function"
    },
    {
      "inputs": [],
      "name": "symbol",
      "outputs": [
        {
          "internalType": "string",
          "name": "",
          "type": "string"
        }
      ],
      "stateMutability": "view",
      "type": "function"
    },
    {
      "inputs": [
        {
          "internalType": "address",
          "name": "",
          "type": "address"
        }
      ],
      "name": "systemExempt",
      "outputs": [
        {
          "internalType": "bool",
          "name": "",
          "type": "bool"
        }
      ],
      "stateMutability": "view",
      "type": "function"
    },
    {
      "inputs": [],
      "name": "totalSupply",
      "outputs": [
        {
          "internalType": "uint256",
          "name": "",
          "type": "uint256"
        }
      ],
      "stateMutability": "view",
      "type": "function"
    },
    {
      "inputs": [
        {
          "internalType": "address",
          "name": "to",
          "type": "address"
        },
        {
          "internalType": "uint256",
          "name": "amount",
          "type": "uint256"
        }
      ],
      "name": "transfer",
      "outputs": [
        {
          "internalType": "bool",
          "name": "",
          "type": "bool"
        }
      ],
      "stateMutability": "nonpayable",
      "type": "function"
    },
    {
      "inputs": [],
      "name": "transferCooldown",
      "outputs": [
        {
          "internalType": "uint256",
          "name": "",
          "type": "uint256"
        }
      ],
      "stateMutability": "view",
      "type": "function"
    },
    {
      "inputs": [
        {
          "internalType": "address",
          "name": "from",
          "type": "address"
        },
        {
          "internalType": "address",
          "name": "to",
          "type": "address"
        },
        {
          "internalType": "uint256",
          "name": "amount",
          "type": "uint256"
        }
      ],
      "name": "transferFrom",
      "outputs": [
        {
          "internalType": "bool",
          "name": "",
          "type": "bool"
        }
      ],
      "stateMutability": "nonpayable",
      "type": "function"
    },
    {
      "inputs": [
        {
          "internalType": "address",
          "name": "newOwner",
          "type": "address"
        }
      ],
      "name": "transferOwnership",
      "outputs": [],
      "stateMutability": "nonpayable",
      "type": "function"
    },
    {
      "inputs": [],
      "name": "treasurySink",
      "outputs": [
        {
          "internalType": "address",
          "name": "",
          "type": "address"
        }
      ],
      "stateMutability": "view",
      "type": "function"
    },
    {
      "inputs": [],
      "name": "vaultHub",
      "outputs": [
        {
          "internalType": "contract IVaultHub",
          "name": "",
          "type": "address"
        }
      ],
      "stateMutability": "view",
      "type": "function"
    },
    {
      "inputs": [],
      "name": "vaultOnly",
      "outputs": [
        {
          "internalType": "bool",
          "name": "",
          "type": "bool"
        }
      ],
      "stateMutability": "view",
      "type": "function"
    },
    {
      "inputs": [
        {
          "internalType": "address",
          "name": "",
          "type": "address"
        }
      ],
      "name": "whaleLimitExempt",
      "outputs": [
        {
          "internalType": "bool",
          "name": "",
          "type": "bool"
        }
      ],
      "stateMutability": "view",
      "type": "function"
    },
    {
      "inputs": [
        {
          "internalType": "address",
          "name": "",
          "type": "address"
        }
      ],
      "name": "whitelisted",
      "outputs": [
        {
          "internalType": "bool",
          "name": "",
          "type": "bool"
        }
      ],
      "stateMutability": "view",
      "type": "function"
    }
  ],
  "bytecode": "0x608080604052346106cc5760009060c0816145e8803803809161002282856106d1565b8339810103126106c8576100358161070a565b906100426020820161070a565b61004e6040830161070a565b61005a6060840161070a565b61007260a061006b6080870161070a565b950161070a565b86546001600160a01b031916339081178855604051969190887f8be0079c531659141344cd1fd0a4f28419497f9722a3daafe3b4186f6b6457e08180a360016002556a01a784379d99db420000006003556a034f086f3b33b6840000006004556a0422ca8b0a00a42500000060055560068890556011805462ffffff60a01b1916600160a01b17905560128890556001600160a01b0382169081156106b9576001600160a01b0386169485156106aa576001600160a01b03169788156106aa57833b156106735750853b1561063a57610440966103a9946001600160a01b0316806105fe575b506001600160a01b0316806105c2575b506001600160a01b031680610586575b50601580546001600160a01b03191685179055838852601360209081526040808a20805460ff191660011790555185917f44f2eda14b8ba74d08291fccb7fe6e96b0188538fb528966e0d02a84713f290d91837f7188527286b7c8f39703bf108a472dc431dec1ab5e61b363c3ebb1f35ef67af18d80a260018152a2808852600a60205260408820600160ff19825416179055838852600a60205260408820600160ff19825416179055868852600a60205260408820600160ff198254161790556040516102476040826106d1565b600b81526a2b2324a222902a37b5b2b760a91b602090910152604080517f4ce082c216934f45765aa52f1d82612cdb513a49760946798ca41165309f978c9161029090826106d1565b600181526020810190603160f81b82525190206040519060208201927f8b73c3c69bb8fe3d512ecc4cf759cc79239f7b179b0ffacaa9a75d522b39400f8452604083015260608201524660808201523060a082015260a081526102f460c0826106d1565b519020601b556aa56fa5b99019a5c8000000600b55808852600c6020526a295be96e640669720000006040892055876000805160206145c883398151915260206040516a295be96e640669720000008152a36040516103546040826106d1565b601381527f7072656d696e745f6465765f726573657276650000000000000000000000000060208201526040519161038d6040846106d1565b600a8352690d4c13481b1bd8dad95960b21b602084015261075f565b808552600c6020526a295be96e640669720000006040862055846000805160206145c883398151915260206040516a295be96e640669720000008152a36040516103f46040826106d1565b600f81526e7072656d696e745f70726573616c6560881b60208201526040519161041f6040846106d1565b600f83526e35304d20666f722070726573616c6560881b602084015261075f565b808252600c6020526a52b7d2dcc80cd2e4000000604083205580826000805160206145c883398151915260206040516a52b7d2dcc80cd2e40000008152a360405161048c6040826106d1565b601081526f7072656d696e745f747265617375727960801b6020820152604051916104b86040846106d1565b601383527f3130304d20666f72206f7065726174696f6e730000000000000000000000000060208401526010546001600160a01b031680610503575b604051613dbc908161080c8239f35b8492813b15610582578361053e9361056160405197889687958694630303c28760e61b8652600486015260806024860152608485019061071e565b6a52b7d2dcc80cd2e400000060448501528381036003190160648501529061071e565b03925af1610572575b8080806104f4565b8161057c916106d1565b3861056a565b8380fd5b601680546001600160a01b031916821790557f3f2254a28ba18b54180672b4e5f33b7cbe996e44be5c1ebe9057f49e894cde318980a238610178565b601080546001600160a01b031916821790557fbc62e69a31739e36d57d56991ac20e4e507a7edfff9070e6a11df5a37b8b4e6f8a80a238610168565b600e80546001600160a01b031916821790557fbb3d89b3025a50f5b3f9fc1bfe23194ad7fb05af4e31ab293af4a947960954d58b80a238610158565b60405162461bcd60e51b81526020600482015260116024820152701c1c995cd85b19480858dbdb9d1c9858dd607a1b6044820152606490fd5b62461bcd60e51b815260206004820152601260248201527119195d95985d5b1d080858dbdb9d1c9858dd60721b6044820152606490fd5b63ebeb59ad60e01b8a5260048afd5b63ebeb59ad60e01b8952600489fd5b5080fd5b600080fd5b601f909101601f19168101906001600160401b038211908210176106f457604052565b634e487b7160e01b600052604160045260246000fd5b51906001600160a01b03821682036106cc57565b919082519283825260005b84811061074a575050826000602080949584010152601f8019910116010190565b80602080928401015182828601015201610729565b601054600093926001600160a01b03909116918261077f575b5050505050565b823b1561080757916107c3918580946107e660405197889687958694630303c28760e61b865260018060a01b0316600486015260806024860152608485019061071e565b6a295be96e6406697200000060448501528381036003190160648501529061071e565b03925af16107f7575b808080610778565b81610801916106d1565b386107ef565b8480fdfe608080604052600436101561001357600080fd5b60003560e01c90816306e0c52c146120255750806306fdde0314611fd85780630741206e14611f3c578063095ea7b314611f165780630d2d8a3114611edc57806313d1ad0814611e65578063153b0d1e14611cd557806316efd94114611caf57806318160ddd14611c91578063198803b114611ae25780631dc4b09c14611a2957806322a7caf514611a0b57806323452b9c146119e057806323b872dd1461193957806330adf81f146118fe57806330e76684146118c4578063313ce567146118a85780633246887d1461181657806332941ecb146117f157806332cb6b0c146117cb5780633644e515146117ad57806339509351146117625780633c2f9fe4146115a057806350140c061461157657806353d6fd591461148157806355545fb0146113e957806356397c35146113c05780636336f3ac146112cb57806363d9df85146112a257806368f16293146112845780636c32b2ec1461125b5780636dd6e80b1461123257806370a08231146111f8578063748ada52146111d257806379036e901461119857806379ba5097146110ed5780637adc723d146110ae5780637ecebe00146110745780638bea4f2d1461104b5780638da5cb5b1461102257806395d89b4114610fdb57806399e793a014610ac65780639a03f22414610f5a5780639d82190f14610f375780639dac064114610ef4578063a34857cd14610e37578063a457c2d714610d9a578063a9059cbb14610d5c578063a9e7572314610d3e578063ac41d29914610cfb578063ac869cd814610c30578063b55e3f3a14610b30578063b692749714610b12578063b72d294314610ae9578063bbde77c114610acb578063bd94fafc14610ac6578063beeeb4ce14610a9d578063c4b740f51461099c578063d505accf14610753578063d6b5473514610714578063d7ae8942146106f7578063d936547e146106b8578063dd62ed3e14610667578063e30c39781461063e578063e46638e614610604578063e5839836146105c5578063f2fde38b1461051e578063f497e873146104f3578063f714af6f146104d5578063fa037766146103705763fe575a871461032c57600080fd5b3461036b57602036600319011261036b576001600160a01b0361034d6120c0565b166000526018602052602060ff604060002054166040519015158152f35b600080fd5b3461036b57604036600319011261036b576103896120fb565b602435610394612c4f565b81156104bd57801515806104b0575b15610474576011805460ff60b01b1916600160b01b1790556103c590426121e3565b6012555b7f04593f08e7dc4a4b3442a0009dff46944620bf6c71bde4a1fa3724b7d6bfe09e604060125481519084151582526020820152a16000901561043d575061043b604051610417604082612048565b601281527131b4b931bab4ba2fb13932b0b5b2b92fb7b760711b6020820152612c99565b005b5061043b60405161044f604082612048565b601381527231b4b931bab4ba2fb13932b0b5b2b92fb7b33360691b6020820152612c99565b60405162461bcd60e51b81526020600482015260146024820152732b231d1034b73b30b634b210323ab930ba34b7b760611b6044820152606490fd5b5062093a808111156103a3565b506011805460ff60b01b1916905560006012556103c9565b3461036b57600036600319011261036b576020600554604051908152f35b3461036b57602036600319011261036b5760206105166105116120c0565b612be2565b604051908152f35b3461036b57602036600319011261036b576105376120c0565b61053f612c4f565b6001600160a01b0316801561059457600180546001600160a01b03191682179055600080546001600160a01b0316907f38d16b8cac22d99fc7c124b9cd0de2d3fa1faef420bfe791d8c362d765e227009080a3005b60405162461bcd60e51b81526020600482015260096024820152684f574e3a207a65726f60b81b6044820152606490fd5b3461036b57602036600319011261036b576001600160a01b036105e66120c0565b166000526019602052602060ff604060002054166040519015158152f35b3461036b5761061b6106153661210a565b91612567565b9061063a6040519283921515835260406020840152604083019061207f565b0390f35b3461036b57600036600319011261036b576001546040516001600160a01b039091168152602090f35b3461036b57604036600319011261036b576106806120c0565b6106886120d6565b6001600160a01b039182166000908152600d60209081526040808320949093168252928352819020549051908152f35b3461036b57602036600319011261036b576001600160a01b036106d96120c0565b166000526014602052602060ff604060002054166040519015158152f35b3461036b57600036600319011261036b576020604051610e108152f35b3461036b57602036600319011261036b576001600160a01b036107356120c0565b166000526013602052602060ff604060002054166040519015158152f35b3461036b5760e036600319011261036b5761076c6120c0565b6107746120d6565b604435906064356084359060ff821680920361036b5780421161095d5762278d00420190814211610908571161091e576001600160a01b0384166000818152601c60205260409020805491929190600019821461090857602092826080926001600095019055604051858101917f6e71edae12b1b97f4d1f60370fef10105fa2faae0126114a169c64845d6126c9835287604083015260018060a01b0389166060830152898583015260a082015260a0815261083160c082612048565b519020601b5490604051908682019261190160f01b84526022830152604282015260428152610861606282612048565b519020906040519182528482015260a435604082015260c435606082015282805260015afa156108fc576000516001600160a01b03168015159190826108f2575b5050156108b25761043b92612d10565b60405162461bcd60e51b815260206004820152601860248201527756464944453a20696e76616c6964207369676e617475726560401b6044820152606490fd5b14905084806108a2565b6040513d6000823e3d90fd5b634e487b7160e01b600052601160045260246000fd5b60405162461bcd60e51b81526020600482015260176024820152762b2324a2229d103232b0b23634b732903a37b7903330b960491b6044820152606490fd5b60405162461bcd60e51b815260206004820152601760248201527656464944453a206578706972656420646561646c696e6560481b6044820152606490fd5b3461036b57602036600319011261036b576109b56120fb565b6109bd612c4f565b60115460ff8160a81c1680610a95575b610a845760ff60a01b191681151560a081901b60ff60a01b16919091176011556040519081527fc700a08714659bf8ab2121ea3f1f64e22835cf102ad9ba5d0816e55a23f6ea2c90602090a160009015610a52575061043b604051610a33604082612048565b600d81526c3b30bab63a2fb7b7363cafb7b760991b6020820152612c99565b5061043b604051610a64604082612048565b600e81526d3b30bab63a2fb7b7363cafb7b33360911b6020820152612c99565b63015c1ff360e51b60005260046000fd5b5081156109cd565b3461036b57600036600319011261036b576017546040516001600160a01b039091168152602090f35b612160565b3461036b57600036600319011261036b576020600454604051908152f35b3461036b57600036600319011261036b57600f546040516001600160a01b039091168152602090f35b3461036b57600036600319011261036b57602060405162093a808152f35b3461036b57602036600319011261036b57610b496120c0565b610b51612c4f565b60ff60115460a81c16610bdd575b6001600160a01b0316610b73811515612186565b601780546001600160a01b031916821790557fe99cdf96738a4659f820a0890f65abe82cce94da951e032d7abe61e5687ba252600080a261043b604051610bbb604082612048565b601081526f1cd85b98dd1d5b57dcda5b9ad7dcd95d60821b6020820152612c99565b6001600160a01b038116610b5f5760405162461bcd60e51b815260206004820152601f60248201527f56463a2063616e6e6f7420736574207a65726f207768656e206c6f636b6564006044820152606490fd5b3461036b57604036600319011261036b57610c496120c0565b610c516120ec565b90610c5a612c4f565b6001600160a01b03166000818152601960205260409020610c7c9083906121c5565b8115610cda5780600052601a60205260406000206001600160401b0342166001600160401b03198254161790555b60405191151582527f0a85b4f485f69ad2f3adfe863c3129f2ce56bc6437a23b0db9bb4de47475d06460203393a3005b80600052601a60205260406000206001600160401b03198154169055610caa565b3461036b57602036600319011261036b576001600160a01b03610d1c6120c0565b16600052601a60205260206001600160401b0360406000205416604051908152f35b3461036b57600036600319011261036b576020600354604051908152f35b3461036b57604036600319011261036b57610d8a610d786120c0565b610d80612dc3565b6024359033612e05565b6001600255602060405160018152f35b3461036b57604036600319011261036b57610db36120c0565b6024359033600052600d602052604060002060018060a01b038216600052602052604060002054828110610e0057610df592610dee916121d6565b9033612d10565b602060405160018152f35b60405162461bcd60e51b815260206004820152600f60248201526e616c6c6f7720756e646572666c6f7760881b6044820152606490fd5b3461036b57602036600319011261036b57610e506120c0565b610e58612c4f565b60ff60115460a81c1680610ee3575b610a8457601680546001600160a01b0319166001600160a01b039290921691821790557f3f2254a28ba18b54180672b4e5f33b7cbe996e44be5c1ebe9057f49e894cde31600080a261043b604051610ec0604082612048565b60118152701d1c99585cdd5c9e57dcda5b9ad7dcd95d607a1b6020820152612c99565b506001600160a01b03811615610e67565b3461036b57602036600319011261036b5760a0610f17610f126120c0565b61246c565b926040929192519485526020850152604084015260608301526080820152f35b3461036b57602036600319011261036b576020610516610f556120c0565b61240b565b3461036b57600036600319011261036b57610f73612c4f565b6011805460ff60a81b1916600160a81b1790557f3ce392d8aa0912d44ce27fbdd025b988ec76fd2b53f0ab8b479ed539069d2b34600080a161043b604051610fbc604082612048565b600d81526c1c1bdb1a58de57db1bd8dad959609a1b6020820152612c99565b3461036b57600036600319011261036b5761063a6040805190610ffe8183612048565b6005825264564649444560d81b60208301525191829160208352602083019061207f565b3461036b57600036600319011261036b576000546040516001600160a01b039091168152602090f35b3461036b57600036600319011261036b576016546040516001600160a01b039091168152602090f35b3461036b57602036600319011261036b576001600160a01b036110956120c0565b16600052601c6020526020604060002054604051908152f35b3461036b57602036600319011261036b576001600160a01b036110cf6120c0565b16600052600a602052602060ff604060002054166040519015158152f35b3461036b57600036600319011261036b576001546001600160a01b038116330361115a576000543360018060a01b0382167f8be0079c531659141344cd1fd0a4f28419497f9722a3daafe3b4186f6b6457e0600080a36001600160a01b0319908116331760005516600155005b60405162461bcd60e51b815260206004820152601660248201527527aba71d103737ba103832b73234b7339037bbb732b960511b6044820152606490fd5b3461036b57602036600319011261036b576001600160a01b036111b96120c0565b1660005260076020526020604060002054604051908152f35b3461036b57600036600319011261036b57602060ff60115460a81c166040519015158152f35b3461036b57602036600319011261036b576001600160a01b036112196120c0565b16600052600c6020526020604060002054604051908152f35b3461036b57600036600319011261036b57600e546040516001600160a01b039091168152602090f35b3461036b57600036600319011261036b576011546040516001600160a01b039091168152602090f35b3461036b57600036600319011261036b576020600654604051908152f35b3461036b57600036600319011261036b576015546040516001600160a01b039091168152602090f35b3461036b57604036600319011261036b5761043b6112e76120c0565b6112ef6120ec565b6112f7612c4f565b6001600160a01b03821661130c811515612186565b8060005260136020526113238260406000206121c5565b7f44f2eda14b8ba74d08291fccb7fe6e96b0188538fb528966e0d02a84713f290d60206040518415158152a2600090156113955750604051611366604082612048565b600981526832bc32b6b83a2fb7b760b91b60208201525b6040519161138c602084612048565b60008352613a65565b506040516113a4604082612048565b600a81526932bc32b6b83a2fb7b33360b11b602082015261137d565b3461036b57600036600319011261036b576010546040516001600160a01b039091168152602090f35b3461036b57602036600319011261036b576114026120c0565b61140a612c4f565b600f80546001600160a01b0319166001600160a01b039290921691821790557fd15414d216acba4fd6e41103922663a24e3ac895d383ad66e7be0c48115d5b1e600080a261043b60405161145f604082612048565b601081526f1cd958dd5c9a5d1e57da1d5897dcd95d60821b6020820152612c99565b3461036b57604036600319011261036b5761043b61149d6120c0565b6114a56120ec565b6114ad612c4f565b6001600160a01b0382166114c2811515612186565b8060005260146020526114d98260406000206121c5565b7fa54714518c5d275fdcd3d2a461e4858e4e8cb04fb93cd0bca9d6d34115f2644060206040518415158152a260009015611545575060405161151c604082612048565b600d81526c1dda1a5d195b1a5cdd17d85919609a1b60208201526040519161138c602084612048565b50604051611554604082612048565b601081526f77686974656c6973745f72656d6f766560801b602082015261137d565b3461036b5761063a61159061158a3661210a565b916122d7565b9060409492945194859485612144565b3461036b57608036600319011261036b576064356024356004356044356115c5612c4f565b81611720575b826116de575b8061169c575b83611657575b7fdd527915e4785ab4e44c56581b4895b2cf4ce1414470508ea4a3d00623fba9149361161f918360035584600455806005558160065560405194859485612144565b0390a161043b604051611633604082612048565b6012815271185b9d1a57ddda185b1957dd5c19185d195960721b6020820152612c99565b610e108411156115dd5760405162461bcd60e51b815260206004820152601360248201527236b0bc1018903437bab91031b7b7b63237bbb760691b6044820152606490fd5b6969e10de76676d08000008110156115d75760405162461bcd60e51b81526020600482015260086024820152676d696e203530306b60c01b6044820152606490fd5b692a5a058fc295ed0000008310156115d15760405162461bcd60e51b81526020600482015260086024820152676d696e203230306b60c01b6044820152606490fd5b69152d02c7e14af68000008210156115cb5760405162461bcd60e51b81526020600482015260086024820152676d696e203130306b60c01b6044820152606490fd5b3461036b57604036600319011261036b57610df561177e6120c0565b33600052600d602052604060002060018060a01b038216600052602052610dee604060002060243590546121e3565b3461036b57600036600319011261036b576020601b54604051908152f35b3461036b57600036600319011261036b5760206040516aa56fa5b99019a5c80000008152f35b3461036b57600036600319011261036b57602061180c612229565b6040519015158152f35b3461036b57602036600319011261036b5761182f6120c0565b611837612c4f565b601080546001600160a01b0319166001600160a01b039290921691821790557fbc62e69a31739e36d57d56991ac20e4e507a7edfff9070e6a11df5a37b8b4e6f600080a261043b60405161188c604082612048565b600a8152691b195919d95c97dcd95d60b21b6020820152612c99565b3461036b57600036600319011261036b57602060405160128152f35b3461036b57602036600319011261036b576001600160a01b036118e56120c0565b1660005260086020526020604060002054604051908152f35b3461036b57600036600319011261036b5760206040517f6e71edae12b1b97f4d1f60370fef10105fa2faae0126114a169c64845d6126c98152f35b3461036b576119473661210a565b90611950612dc3565b33600052601860205261196b60ff60406000205416156121f0565b6001600160a01b0383166000908152600d60209081526040808320338452909152902054928284106119b3576119ae6119a784610d8a966121d6565b3383612d10565b612e05565b60405162461bcd60e51b8152602060048201526005602482015264616c6c6f7760d81b6044820152606490fd5b3461036b57600036600319011261036b576119f9612c4f565b600180546001600160a01b0319169055005b3461036b57600036600319011261036b576020601254604051908152f35b3461036b57602036600319011261036b57611a426120c0565b611a4a612c4f565b6011549060ff8260a81c1680611ad1575b610a84576001600160a01b03166001600160a01b03199190911681176011557faf9b9a8ca16be293d721c9b992abdb79c8c7a18ed68c393cc10deeaf4b2f9977600080a261043b604051611ab0604082612048565b600f81526e189d5c9b97dc9bdd5d195c97dcd95d608a1b6020820152612c99565b506001600160a01b03811615611a5b565b3461036b57602036600319011261036b5760e0611afd6120c0565b6001600160a01b03166000818152600a602052604081205460ff16908115611c7a575b8115611b5b575060001991506000808380805b604051968752602087015260408601526060850152608084015260a0830152151560c0820152f35b506003548015611c71575b6004549092908015611c68575b906005548015159081600014611c6057805b9115611c5657826000526008602052620151806040600020540462015180420411600014611c1957905b6006549283151580611c02575b15611bf9576000526009602052611bd8836040600020546121e3565b428111611be9575060005b93611b33565b611bf49042906121d6565b611be3565b50600093611b33565b508060005260096020526040600020541515611bbc565b6000838152600760205260409020548111611c375750600090611baf565b611c5090836000526007602052604060002054906121d6565b90611baf565b5060001990611baf565b600019611b85565b50600019611b73565b50600019611b66565b8281526013602052604081205460ff169150611b20565b3461036b57600036600319011261036b576020600b54604051908152f35b3461036b57600036600319011261036b57602060ff60115460b01c166040519015158152f35b3461036b57604036600319011261036b57611cee6120c0565b611cf66120ec565b9081611d00612c4f565b611d8e575b60018060a01b031680600052601860205281611d258160406000206121c5565b611d5a575b60405191151582527f4edd9bb92fa41bc25fb64fc24645bea26691eff97f54d2db5362a3f986c188e960203393a3005b6000818152601960209081526040808320805460ff19169055601a9091529020805467ffffffffffffffff19169055611d2a565b6001600160a01b03811660008181526019602052604090205460ff1615611e2857600052601a602052610e106001600160401b0360406000205416016001600160401b038111610908576001600160401b0316421015611d055760405162461bcd60e51b815260206004820152601860248201527715918e88199c99595e994819195b185e481b9bdd081b595d60421b6044820152606490fd5b60405162461bcd60e51b815260206004820152601560248201527415918e881b5d5cdd08199c99595e9948199a5c9cdd605a1b6044820152606490fd5b3461036b57604036600319011261036b57611e7e6120c0565b7fe355751d29baf3bbcbfb4f9db660bfdf038ac8076722a3cb9ed1807250c1f7b06020611ea96120ec565b92611eb2612c4f565b60018060a01b03169283600052600a8252611ed18160406000206121c5565b6040519015158152a2005b3461036b57602036600319011261036b576001600160a01b03611efd6120c0565b1660005260096020526020604060002054604051908152f35b3461036b57604036600319011261036b57610df5611f326120c0565b6024359033612d10565b3461036b57602036600319011261036b57611f556120c0565b611f5d612c4f565b6001600160a01b0316611f71811515612186565b600e80546001600160a01b031916821790557fbb3d89b3025a50f5b3f9fc1bfe23194ad7fb05af4e31ab293af4a947960954d5600080a261043b604051611fb9604082612048565b600d81526c1d985d5b1d17da1d5897dcd95d609a1b6020820152612c99565b3461036b57600036600319011261036b5761063a6040805190611ffb8183612048565b600b82526a2b2324a222902a37b5b2b760a91b60208301525191829160208352602083019061207f565b3461036b57600036600319011261036b5760209060ff60115460a01c1615158152f35b90601f801991011681019081106001600160401b0382111761206957604052565b634e487b7160e01b600052604160045260246000fd5b919082519283825260005b8481106120ab575050826000602080949584010152601f8019910116010190565b8060208092840101518282860101520161208a565b600435906001600160a01b038216820361036b57565b602435906001600160a01b038216820361036b57565b60243590811515820361036b57565b60043590811515820361036b57565b606090600319011261036b576004356001600160a01b038116810361036b57906024356001600160a01b038116810361036b579060443590565b9094939260609260808301968352602083015260408201520152565b3461036b57600036600319011261036b5760206040516a295be96e640669720000008152f35b1561218d57565b60405162461bcd60e51b815260206004820152601060248201526f56463a207a65726f206164647265737360801b6044820152606490fd5b9060ff801983541691151516179055565b9190820391821161090857565b9190820180921161090857565b156121f757565b60405162461bcd60e51b815260206004820152600a60248201526914d85b98dd1a5bdb995960b21b6044820152606490fd5b60ff60115460b01c161561224e576012548015159081612253575b5061224e57600190565b600090565b905042101538612244565b51906001600160a01b038216820361036b57565b91908260c091031261036b578151916020810151916040820151916122996060820161225e565b916122b260a06122ab6080850161225e565b930161225e565b90565b6001600160a01b03918216815291166020820152604081019190915260600190565b9092919260018060a01b03821660005260136020528360ff6040600020541680156123e6575b80156123d3575b80156123c5575b6123b65760115460405163252f15f560e01b81529360c09385936001600160a01b0390931692849283926123439291600485016122b5565b03915afa9182156108fc57600092600092600091612377575b50806123726122b29294612372819780996121d6565b6121d6565b90506122b293506123a191925060c03d60c0116123af575b6123998183612048565b810190612272565b50505092919390929061235c565b503d61238f565b50505060009160009160009190565b506123ce612229565b61230b565b506011546001600160a01b031615612304565b50506001600160a01b038116600090815260136020526040902054849060ff166122fd565b600654908115612465576001600160a01b0316600081815260096020526040902054909190156124655761244c9160005260096020526040600020546121e3565b8042101561245f576122b29042906121d6565b50600090565b5050600090565b6001600160a01b03166000818152600a602052604090205490919060ff16801561254f575b61253f5760055490620151804204928060005260086020526201518060406000205404908185116000146124ed575050600092829162015180820291808304620151801490151715610908576201518082018083116109085790565b60009081526007602052604090205493508284106125305760005b9162015180820291808304620151801490151715610908576201518082018083116109085790565b61253a84846121d6565b612508565b6000915060001990819083908190565b5081600052601360205260ff60406000205416612491565b6001600160a01b0381166000818152601860205260409020549293919260ff16612bab576001600160a01b03841660008181526018602052604090205490929060ff16612b705781600052600c6020528060406000205410612b365781600052600a60205260ff604060002054161580612b1d575b80612b04575b80612aeb575b80612ae2575b80612ad9575b6128e7575b5060ff60115460a01c16806128d3575b61272e575b5050600f546001600160a01b031615158061271f575b612643575b505060019060405161263c602082612048565b6000815290565b61264f61265591613c37565b91613c37565b906001600160a01b0381161515908161270f575b506126d7576001600160a01b038116151590816126c7575b5061268d573880612629565b60009060405161269e604082612048565b6019815278149958da5c1a595b9d081d985d5b1d081a5cc81b1bd8dad959603a1b602082015290565b6126d19150613cba565b38612681565b506000906040516126e9604082612048565b601681527514d95b99195c881d985d5b1d081a5cc81b1bd8dad95960521b602082015290565b6127199150613cba565b38612669565b50612728612229565b15612624565b80159081156128b9575b81156128a0575b508015612891575b8015612882575b811591821561286d575b8215612858575b821561283e575b8215612823575b508115612812575b8115612801575b156127c8571561278d57388061260e565b50506000906040516127a0604082612048565b6018815277149958da5c1a595b9d081b5d5cdd081d5cd9481d985d5b1d60421b602082015290565b5050506000906040516127dc604082612048565b601581527414d95b99195c881b5d5cdd081d5cd9481d985d5b1d605a1b602082015290565b905061280c83613b9c565b9061277c565b905061281d83613b1a565b90612775565b909150600052601460205260ff60406000205416903861276d565b809250600052601360205260ff6040600020541691612766565b6017546001600160a01b03168114925061275f565b6016546001600160a01b031681149250612758565b5061288c82613b9c565b61274e565b5061289b82613b1a565b612747565b9050600052601460205260ff604060002054163861273f565b809150600052601360205260ff6040600020541690612738565b50600e546001600160a01b03161515612609565b6003548015159081612acf575b50612a8e576004548015159081612a6d575b50612a2d5760055490816129a0575b505060065480151580612989575b156125f957612940908260005260096020526040600020546121e3565b421061294c57386125f9565b50505050600090604051612961604082612048565b60188152775472616e7366657220636f6f6c646f776e2061637469766560401b602082015290565b508160005260096020526040600020541515612923565b826000526007602052604060002054908360005260086020526201518060406000205404620151804204146129d6575b50612915565b6129df916121e3565b116129ec573880806129d0565b50505050600090604051612a01604082612048565b601c81527b115e18d959591cc819185a5b1e481d1c985b9cd9995c881b1a5b5a5d60221b602082015290565b5050505050600090604051612a43604082612048565b601a81527945786365656473206d61782077616c6c65742062616c616e636560301b602082015290565b905083600052600c602052612a87826040600020546121e3565b1138612906565b5050505050600090604051612aa4604082612048565b601b81527a115e18d959591cc81b585e081d1c985b9cd9995c88185b5bdd5b9d602a1b602082015290565b90508111386128f4565b508215156125f4565b508115156125ee565b5082600052601360205260ff60406000205416156125e8565b5081600052601360205260ff60406000205416156125e2565b5082600052600a60205260ff60406000205416156125dc565b5050505050600090604051612b4c604082612048565b6014815273496e73756666696369656e742062616c616e636560601b602082015290565b5050505050600090604051612b86604082612048565b6015815274149958da5c1a595b9d08189b1858dadb1a5cdd1959605a1b602082015290565b50505050600090604051612bc0604082612048565b601281527114d95b99195c88189b1858dadb1a5cdd195960721b602082015290565b600554908115612c475760018060a01b031690816000526008602052620151806040600020540462015180420411612c4257816000526007602052806040600020541015612465576122b2916000526007602052604060002054906121d6565b905090565b505060001990565b6000546001600160a01b03163303612c6357565b60405162461bcd60e51b815260206004820152600e60248201526d27aba71d103737ba1037bbb732b960911b6044820152606490fd5b6010546000916001600160a01b039091169081612cb557505050565b813b15612d0c57612ced83928392604051948580948193633ddd61ab60e21b835230600484015260606024840152606483019061207f565b33604483015203925af1612cff575050565b81612d0991612048565b50565b8280fd5b6001600160a01b03169081151580612db1575b15612d805760207f8c5be1e5ebec7d5bd14f71427d1e84f3dd0314c0f7b2291e5b200ac8c7c3b9259183600052600d8252604060002060018060a01b03821660005282528460406000205560405194855260018060a01b031693a3565b60405162461bcd60e51b81526020600482015260096024820152680617070726f766520360bc1b6044820152606490fd5b506001600160a01b0381161515612d23565b600160025403612dd35760028055565b60405162461bcd60e51b815260206004820152600a6024820152697265656e7472616e637960b01b6044820152606490fd5b9160009260018060a01b03811692838552601860205260ff6040862054161580613a45575b612e33906121f0565b838552600a60205260ff6040862054161580613a25575b80613a0e575b806139ee575b806139e5575b806139d3575b613838575b60ff60115460a01c1680613824575b61358f575b8315801561357e575b61356f57821561356f57600f54859081906001600160a01b0316151580613553575b80613544575b6134d1575b5050838552600c60205260408520548381106134a2578390858752600c602052036040862055828092601154908660018060a01b03831692831590811580613493575b80613456575b156133e5575050509160c09184612f28946040519586948593849363252f15f560e01b8552600485016122b5565b03915afa9081156133da5786918790889089908a948b916133b0575b50851590811590816132cc575b508415158061323f575b8415159182613198575b92613190575b508115613188575b506130e6575b50506011546001600160a01b031692505050803b156130c3579085808087946024604051809481936329a7724f60e21b83528b60048401525af16130c7575b50506020600080516020613d67833981519152915b60018060a01b031693848852600c825260408820612fec8282546121e3565b9055604051908152a3604051613003604082612048565b60088152673a3930b739b332b960c11b602082015260405192613027602085612048565b8484526010546001600160a01b03169283613045575b505050505050565b833b156130c35791858094926130996130829560405198899788968795630303c28760e61b8752600487015260806024870152608486019061207f565b91604485015260031984830301606485015261207f565b03925af16130ab575b8080808061303d565b6130b6828092612048565b6130c057806130a2565b80fd5b8580fd5b81929350906130d591612048565b6130e25783908538612fb8565b8480fd5b6001600160a01b03811661318257506016546001600160a01b0316925b6001600160a01b03811661317c57506016546001600160a01b0316915b6040805195865260208601919091528401526001600160a01b039081166060840152908116919083169086907f83f1070d5154c1ec6e9f656f98b1b6761035814eeba41c9ace66fd53f501e35c90608090a43880808080612f79565b91613120565b92613103565b905038612f73565b915038612f6b565b996001600160a01b038816613239576016546001600160a01b03165b6001600160a01b0316801561320757613201918f918f604084838c9652600c602052206131e28582546121e3565b9055600080516020613d678339815191526020604051868152a36121d6565b99612f65565b60405162461bcd60e51b815260206004820152600a602482015269065636f2073696e6b3d360b41b6044820152606490fd5b876131b4565b986001600160a01b0384166132c6576016546001600160a01b03165b6001600160a01b031680156132905761328a91818f8f90808b9560409252600c602052206131e28582546121e3565b98612f5b565b60405162461bcd60e51b815260206004820152600e60248201526d073616e6374756d2073696e6b3d360941b6044820152606490fd5b8361325b565b9098506001600160a01b0381166133ab57508a5b6001600160a01b03168061337457506132fb86600b546121d6565b600b558a8a600080516020613d6783398151915260206040518a8152a35b613323868a6121d6565b6011549098906001600160a01b0316803b15613370578c8091602460405180948193631bc9354160e21b83528d60048401525af115612f51578c613369919d929d612048565b9a38612f51565b8c80fd5b808c52600c60205260408c2061338b8882546121e3565b90558a600080516020613d6783398151915260206040518a8152a3613319565b6132e0565b9450505050506133cf915060c03d60c0116123af576123998183612048565b939291909338612f44565b6040513d88823e3d90fd5b91959450925060ff915060a81c16613410575b506020600080516020613d6783398151915291612fcd565b90915061341f578390386133f8565b60405162461bcd60e51b815260206004820152600f60248201526e1c9bdd5d195c881c995c5d5a5c9959608a1b6044820152606490fd5b50828b52601360205260ff60408c2054168015613474575b15612efa565b506001600160a01b0387168b52601360205260408b205460ff1661346e565b5061349c612229565b15612ef4565b60405162461bcd60e51b815260206004820152600760248201526662616c616e636560c81b6044820152606490fd5b6001600160a01b03821615159182613532575b508115613507575b506134f8573880612eb1565b63b8e516c360e01b8552600485fd5b6001600160a01b0381161515915081613522575b50386134ec565b61352c9150613cba565b3861351b565b61353d919250613cba565b90386134e4565b5061354d612229565b15612eac565b91505061355f83613c37565b9061356983613c37565b90612ea6565b63ebeb59ad60e01b8552600485fd5b506001600160a01b03811615612e84565b803b1580613812575b806137f2575b806137d2575b6136eb575b831580156136d5575b80156136bf575b80156136b0575b80156136a1575b6001600160a01b03821680159190821561368c575b8215613677575b8215613660575b8215613649575b508115613638575b8115613627575b1561361857612e7b5763cd0d8b2160e01b8552600485fd5b63cd0d8b2160e01b8652600486fd5b905061363282613b9c565b90613600565b905061364382613b1a565b906135f9565b87526014602052604087205460ff169150386135f1565b8088526013602052604088205460ff1692506135ea565b6017546001600160a01b0316811492506135e3565b6016546001600160a01b0316811492506135dc565b506136ab82613b9c565b6135c7565b506136ba82613b1a565b6135c0565b50838552601460205260ff6040862054166135b9565b50838552601360205260ff6040862054166135b2565b6136f481613b9c565b6135a957600e5460405163e01fd21560e01b81526001600160a01b0383811660048301529091602091839160249183918b91165af1869181613792575b506137455763cd0d8b2160e01b8652600486fd5b61378d90604051613757604082612048565b60128152711d985d5b1d17d85d5d1bd7d8dc99585d195960721b602082015260405191613785602084612048565b888352613a65565b6135a9565b9091506020813d6020116137ca575b816137ae60209383612048565b810103126137c6576137bf9061225e565b9038613731565b8680fd5b3d91506137a1565b506001600160a01b03811685526014602052604085205460ff16156135a4565b506001600160a01b03811685526013602052604085205460ff161561359e565b506001600160a01b0381161515613598565b50600e546001600160a01b03161515612e76565b60035480151590816139c9575b506139ba576004548061397f575b506005546138c8575b6006548061386b575b50612e67565b84865260096020526040862054151590816138a9575b5061389a57838552600960205242604086205538613865565b6301249b7160e01b8552600485fd5b6138c09150858752600960205260408720546121e3565b421038613881565b6201518042048486526008602052620151806040872054048111613933575b5083855260076020526138fe8360408720546121e3565b600554106139245783855260076020526040852061391d8482546121e3565b905561385c565b639ad5c1c760e01b8552600485fd5b84865260076020528560408120556201518081029080820462015180149015171561396b5784865260086020526040862055386138e7565b634e487b7160e01b86526011600452602486fd5b6001600160a01b0382168652600c60205260408620546139a09085906121e3565b116139ab5738613853565b63f5cec06760e01b8552600485fd5b631ae2df0760e01b8552600485fd5b9050831138613845565b506001600160a01b0381161515612e62565b50831515612e5c565b506001600160a01b03811685526013602052604085205460ff1615612e56565b50838552601360205260ff60408620541615612e50565b506001600160a01b0381168552600a602052604085205460ff1615612e4a565b506001600160a01b03811685526018602052604085205460ff1615612e2a565b601054600093926001600160a01b039091169182613a85575b5050505050565b823b156130e25791613ac991858094613ae160405197889687958694630303c28760e61b865260018060a01b0316600486015260806024860152608485019061207f565b9084604485015260031984830301606485015261207f565b03925af1613af2575b808080613a7e565b81613afc91612048565b38613aea565b9081602091031261036b5751801515810361036b5790565b600e546001600160a01b03169081156124655760405163652b9b4160e01b81526001600160a01b03909116600482015290602090829060249082905afa60009181613b6b575b506122b25750600090565b613b8e91925060203d602011613b95575b613b868183612048565b810190613b02565b9038613b60565b503d613b7c565b600e546001600160a01b031690811561246557604051630709df4560e01b81526001600160a01b03909116600482015290602090829060249082905afa60009181613bfb575b50613bed5750600090565b6001600160a01b0316151590565b9091506020813d602011613c2f575b81613c1760209383612048565b8101031261036b57613c289061225e565b9038613be2565b3d9150613c0a565b600e546001600160a01b031690811561246557604051630709df4560e01b81526001600160a01b03909116600482015290602090829060249082905afa9081156108fc57600091613c86575090565b90506020813d602011613cb2575b81613ca160209383612048565b8101031261036b576122b29061225e565b3d9150613c94565b600f54604051631293efbb60e21b602082019081526001600160a01b03938416602480840191909152825260009384931691613cf7604482612048565b51915afa3d15613d5e573d906001600160401b0382116120695760405191613d29601f8201601f191660200184612048565b82523d6000602084013e5b158015613d53575b61245f57806020806122b293518301019101613b02565b506020815110613d3c565b606090613d3456feddf252ad1be2c89b69c2b068fc378daa952ba7f163c4a11628f55a4df523b3efa2646970667358221220f16f57beac151818eb26f98d254af00867f4fe67c30d08aba9fb12f50655ce0864736f6c634300081e0033ddf252ad1be2c89b69c2b068fc378daa952ba7f163c4a11628f55a4df523b3ef",
  "linkReferences": {},
  "deployedLinkReferences": {}
}