{
  "_format": "hh-sol-artifact-1",
  "contractName": "TempVault",
  "sourceName": "contracts/TempVault.sol",
  "abi": [
    {
      "inputs": [],
      "stateMutability": "nonpayable",
      "type": "constructor"
    },
    {
      "inputs": [],
      "name": "TV_NotOwner",
      "type": "error"
    },
    {
      "inputs": [],
      "name": "TV_NotPendingOwner",
      "type": "error"
    },
    {
      "inputs": [],
      "name": "TV_TransferFailed",
      "type": "error"
    },
    {
      "inputs": [],
      "name": "TV_ZeroAddress",
      "type": "error"
    },
    {
      "inputs": [],
      "name": "TV_ZeroAmount",
      "type": "error"
    },
    {
      "anonymous": false,
      "inputs": [
        {
          "indexed": true,
          "internalType": "address",
          "name": "token",
          "type": "address"
        },
        {
          "indexed": false,
          "internalType": "uint256",
          "name": "amount",
          "type": "uint256"
        }
      ],
      "name": "EmergencyWithdrawal",
      "type": "event"
    },
    {
      "anonymous": false,
      "inputs": [
        {
          "indexed": true,
          "internalType": "address",
          "name": "previousOwner",
          "type": "address"
        },
        {
          "indexed": true,
          "internalType": "address",
          "name": "newOwner",
          "type": "address"
        }
      ],
      "name": "OwnershipTransferStarted",
      "type": "event"
    },
    {
      "anonymous": false,
      "inputs": [
        {
          "indexed": true,
          "internalType": "address",
          "name": "previousOwner",
          "type": "address"
        },
        {
          "indexed": true,
          "internalType": "address",
          "name": "newOwner",
          "type": "address"
        }
      ],
      "name": "OwnershipTransferred",
      "type": "event"
    },
    {
      "anonymous": false,
      "inputs": [
        {
          "indexed": true,
          "internalType": "address",
          "name": "token",
          "type": "address"
        },
        {
          "indexed": true,
          "internalType": "address",
          "name": "to",
          "type": "address"
        },
        {
          "indexed": false,
          "internalType": "uint256",
          "name": "amount",
          "type": "uint256"
        },
        {
          "indexed": true,
          "internalType": "address",
          "name": "by",
          "type": "address"
        }
      ],
      "name": "Withdrawal",
      "type": "event"
    },
    {
      "inputs": [],
      "name": "acceptOwnership",
      "outputs": [],
      "stateMutability": "nonpayable",
      "type": "function"
    },
    {
      "inputs": [
        {
          "internalType": "address",
          "name": "token",
          "type": "address"
        }
      ],
      "name": "getBalance",
      "outputs": [
        {
          "internalType": "uint256",
          "name": "",
          "type": "uint256"
        }
      ],
      "stateMutability": "view",
      "type": "function"
    },
    {
      "inputs": [],
      "name": "owner",
      "outputs": [
        {
          "internalType": "address",
          "name": "",
          "type": "address"
        }
      ],
      "stateMutability": "view",
      "type": "function"
    },
    {
      "inputs": [],
      "name": "pendingOwner",
      "outputs": [
        {
          "internalType": "address",
          "name": "",
          "type": "address"
        }
      ],
      "stateMutability": "view",
      "type": "function"
    },
    {
      "inputs": [
        {
          "internalType": "address",
          "name": "newOwner",
          "type": "address"
        }
      ],
      "name": "transferOwnership",
      "outputs": [],
      "stateMutability": "nonpayable",
      "type": "function"
    },
    {
      "inputs": [
        {
          "internalType": "address",
          "name": "token",
          "type": "address"
        },
        {
          "internalType": "address",
          "name": "to",
          "type": "address"
        },
        {
          "internalType": "uint256",
          "name": "amount",
          "type": "uint256"
        }
      ],
      "name": "withdraw",
      "outputs": [],
      "stateMutability": "nonpayable",
      "type": "function"
    },
    {
      "stateMutability": "payable",
      "type": "receive"
    }
  ],
  "bytecode": "0x608080604052346053576001600081815581546001600160a01b031916339081179092557f8be0079c531659141344cd1fd0a4f28419497f9722a3daafe3b4186f6b6457e08180a361050590816100598239f35b600080fdfe6080604052600436101561005c575b361561001957600080fd5b60405162461bcd60e51b815260206004820152601b60248201527a15195b5c15985d5b1d0e88115512081b9bdd081858d8d95c1d1959602a1b6044820152606490fd5b60003560e01c806379ba5097146104195780638da5cb5b146103f0578063d9caed1214610201578063e30c3978146101d8578063f2fde38b1461013f5763f8b2cb4f0361000e573461012657602036600319011261012657602460206001600160a01b036100c8610498565b16604051928380926370a0823160e01b82523060048301525afa8015610133576000906100fb575b602090604051908152f35b506020813d60201161012b575b81610115602093836104ae565b8101031261012657602090516100f0565b600080fd5b3d9150610108565b6040513d6000823e3d90fd5b3461012657602036600319011261012657610158610498565b6001546001600160a01b031690338290036101c7576001600160a01b03169081156101b657600280546001600160a01b031916831790557f38d16b8cac22d99fc7c124b9cd0de2d3fa1faef420bfe791d8c362d765e22700600080a3005b63de35fa3d60e01b60005260046000fd5b63a303eb4d60e01b60005260046000fd5b34610126576000366003190112610126576002546040516001600160a01b039091168152602090f35b346101265760603660031901126101265761021a610498565b6024356001600160a01b038116908190036101265760015460443592906001600160a01b031633036101c7576001600054036103be57600260005581156101b65782156103ad5760018060a01b0316600080604051602081019063a9059cbb60e01b8252856024820152866044820152604481526102996064826104ae565b519082855af13d156103a6573d6001600160401b03811161039057604051906102cc601f8201601f1916602001836104ae565b81523d6000602083013e5b81610358575b5015610316576040519283527ff695acaf5d7d7346d00d5877a9b12de569a2d4957907b6dac09986f9070ddefd60203394a46001600055005b60405162461bcd60e51b815260206004820152601a60248201527914d85999515490cc8c0e881d1c985b9cd9995c8819985a5b195960321b6044820152606490fd5b805180159250821561036d575b5050846102dd565b819250906020918101031261012657602001518015158103610126578480610365565b634e487b7160e01b600052604160045260246000fd5b60606102d7565b6365d440c960e01b60005260046000fd5b60405162461bcd60e51b815260206004820152600a6024820152697265656e7472616e637960b01b6044820152606490fd5b34610126576000366003190112610126576001546040516001600160a01b039091168152602090f35b34610126576000366003190112610126576002546001600160a01b038116330361048757600154336001600160a01b0382167f8be0079c531659141344cd1fd0a4f28419497f9722a3daafe3b4186f6b6457e0600080a36001600160a01b0319908116331760015516600255005b630c08733960e11b60005260046000fd5b600435906001600160a01b038216820361012657565b90601f801991011681019081106001600160401b038211176103905760405256fea264697066735822122024999b837b9eee8d8365e01303766ce23f58c91c2c51bbfa1bb5dd94d13fef7864736f6c634300081e0033",
  "linkReferences": {},
  "deployedLinkReferences": {}
}