{
  "_format": "hh-sol-artifact-1",
  "contractName": "SeerAutonomous",
  "sourceName": "contracts/SeerAutonomous.sol",
  "abi": [
    {
      "inputs": [
        {
          "internalType": "address",
          "name": "_dao",
          "type": "address"
        },
        {
          "internalType": "address",
          "name": "_seer",
          "type": "address"
        },
        {
          "internalType": "address",
          "name": "_ledger",
          "type": "address"
        }
      ],
      "stateMutability": "nonpayable",
      "type": "constructor"
    },
    {
      "inputs": [],
      "name": "SA_NotAuthorized",
      "type": "error"
    },
    {
      "inputs": [],
      "name": "SA_Zero",
      "type": "error"
    },
    {
      "anonymous": false,
      "inputs": [
        {
          "indexed": true,
          "internalType": "address",
          "name": "subject",
          "type": "address"
        },
        {
          "indexed": false,
          "internalType": "enum SeerAutonomous.ActionType",
          "name": "action",
          "type": "uint8"
        },
        {
          "indexed": false,
          "internalType": "enum SeerAutonomous.EnforcementResult",
          "name": "result",
          "type": "uint8"
        }
      ],
      "name": "AutoEnforced",
      "type": "event"
    },
    {
      "anonymous": false,
      "inputs": [
        {
          "indexed": true,
          "internalType": "address",
          "name": "subject",
          "type": "address"
        },
        {
          "indexed": false,
          "internalType": "enum SeerAutonomous.RestrictionLevel",
          "name": "target",
          "type": "uint8"
        },
        {
          "indexed": false,
          "internalType": "uint64",
          "name": "deadline",
          "type": "uint64"
        },
        {
          "indexed": false,
          "internalType": "string",
          "name": "reason",
          "type": "string"
        }
      ],
      "name": "ChallengeCreated",
      "type": "event"
    },
    {
      "anonymous": false,
      "inputs": [
        {
          "indexed": true,
          "internalType": "address",
          "name": "subject",
          "type": "address"
        },
        {
          "indexed": false,
          "internalType": "bool",
          "name": "upheld",
          "type": "bool"
        },
        {
          "indexed": false,
          "internalType": "string",
          "name": "reason",
          "type": "string"
        }
      ],
      "name": "ChallengeResolved",
      "type": "event"
    },
    {
      "anonymous": false,
      "inputs": [
        {
          "indexed": true,
          "internalType": "address",
          "name": "subject",
          "type": "address"
        },
        {
          "indexed": false,
          "internalType": "string",
          "name": "reason",
          "type": "string"
        }
      ],
      "name": "DAOOverride",
      "type": "event"
    },
    {
      "anonymous": false,
      "inputs": [
        {
          "indexed": true,
          "internalType": "address",
          "name": "oldDAO",
          "type": "address"
        },
        {
          "indexed": true,
          "internalType": "address",
          "name": "newDAO",
          "type": "address"
        }
      ],
      "name": "DAOSet",
      "type": "event"
    },
    {
      "anonymous": false,
      "inputs": [
        {
          "indexed": false,
          "internalType": "enum SeerAutonomous.ThresholdType",
          "name": "ttype",
          "type": "uint8"
        },
        {
          "indexed": false,
          "internalType": "uint16",
          "name": "oldValue",
          "type": "uint16"
        },
        {
          "indexed": false,
          "internalType": "uint16",
          "name": "newValue",
          "type": "uint16"
        }
      ],
      "name": "DynamicThresholdAdjusted",
      "type": "event"
    },
    {
      "anonymous": false,
      "inputs": [
        {
          "indexed": false,
          "internalType": "address",
          "name": "seer",
          "type": "address"
        },
        {
          "indexed": false,
          "internalType": "address",
          "name": "dao",
          "type": "address"
        },
        {
          "indexed": false,
          "internalType": "address",
          "name": "ledger",
          "type": "address"
        }
      ],
      "name": "ModulesSet",
      "type": "event"
    },
    {
      "anonymous": false,
      "inputs": [
        {
          "indexed": true,
          "internalType": "address",
          "name": "operator",
          "type": "address"
        },
        {
          "indexed": false,
          "internalType": "bool",
          "name": "authorized",
          "type": "bool"
        }
      ],
      "name": "OperatorSet",
      "type": "event"
    },
    {
      "anonymous": false,
      "inputs": [
        {
          "indexed": true,
          "internalType": "address",
          "name": "subject",
          "type": "address"
        },
        {
          "indexed": false,
          "internalType": "enum SeerAutonomous.PatternType",
          "name": "pattern",
          "type": "uint8"
        },
        {
          "indexed": false,
          "internalType": "uint8",
          "name": "severity",
          "type": "uint8"
        }
      ],
      "name": "PatternDetected",
      "type": "event"
    },
    {
      "anonymous": false,
      "inputs": [
        {
          "indexed": true,
          "internalType": "address",
          "name": "subject",
          "type": "address"
        },
        {
          "indexed": false,
          "internalType": "int16",
          "name": "change",
          "type": "int16"
        },
        {
          "indexed": false,
          "internalType": "string",
          "name": "source",
          "type": "string"
        }
      ],
      "name": "ReputationCascade",
      "type": "event"
    },
    {
      "anonymous": false,
      "inputs": [
        {
          "indexed": true,
          "internalType": "address",
          "name": "subject",
          "type": "address"
        },
        {
          "indexed": false,
          "internalType": "enum SeerAutonomous.RestrictionLevel",
          "name": "level",
          "type": "uint8"
        },
        {
          "indexed": false,
          "internalType": "uint64",
          "name": "duration",
          "type": "uint64"
        },
        {
          "indexed": false,
          "internalType": "string",
          "name": "reason",
          "type": "string"
        }
      ],
      "name": "RestrictionApplied",
      "type": "event"
    },
    {
      "anonymous": false,
      "inputs": [
        {
          "indexed": true,
          "internalType": "address",
          "name": "subject",
          "type": "address"
        },
        {
          "indexed": false,
          "internalType": "enum SeerAutonomous.RestrictionLevel",
          "name": "oldLevel",
          "type": "uint8"
        }
      ],
      "name": "RestrictionLifted",
      "type": "event"
    },
    {
      "inputs": [],
      "name": "ADJUSTMENT_INTERVAL",
      "outputs": [
        {
          "internalType": "uint64",
          "name": "",
          "type": "uint64"
        }
      ],
      "stateMutability": "view",
      "type": "function"
    },
    {
      "inputs": [],
      "name": "WINDOW_DURATION",
      "outputs": [
        {
          "internalType": "uint64",
          "name": "",
          "type": "uint64"
        }
      ],
      "stateMutability": "view",
      "type": "function"
    },
    {
      "inputs": [
        {
          "internalType": "address",
          "name": "",
          "type": "address"
        },
        {
          "internalType": "enum SeerAutonomous.ActionType",
          "name": "",
          "type": "uint8"
        }
      ],
      "name": "actionCountToday",
      "outputs": [
        {
          "internalType": "uint16",
          "name": "",
          "type": "uint16"
        }
      ],
      "stateMutability": "view",
      "type": "function"
    },
    {
      "inputs": [
        {
          "internalType": "address",
          "name": "",
          "type": "address"
        }
      ],
      "name": "activityWindows",
      "outputs": [
        {
          "internalType": "uint64",
          "name": "windowStart",
          "type": "uint64"
        },
        {
          "internalType": "uint16",
          "name": "transferCount",
          "type": "uint16"
        },
        {
          "internalType": "uint16",
          "name": "voteCount",
          "type": "uint16"
        },
        {
          "internalType": "uint16",
          "name": "endorseCount",
          "type": "uint16"
        },
        {
          "internalType": "uint256",
          "name": "transferVolume",
          "type": "uint256"
        }
      ],
      "stateMutability": "view",
      "type": "function"
    },
    {
      "inputs": [],
      "name": "autoLiftThreshold",
      "outputs": [
        {
          "internalType": "uint16",
          "name": "",
          "type": "uint16"
        }
      ],
      "stateMutability": "view",
      "type": "function"
    },
    {
      "inputs": [],
      "name": "autoRestrictThreshold",
      "outputs": [
        {
          "internalType": "uint16",
          "name": "",
          "type": "uint16"
        }
      ],
      "stateMutability": "view",
      "type": "function"
    },
    {
      "inputs": [
        {
          "internalType": "address",
          "name": "subject",
          "type": "address"
        },
        {
          "internalType": "enum SeerAutonomous.ActionType",
          "name": "action",
          "type": "uint8"
        },
        {
          "internalType": "uint256",
          "name": "amount",
          "type": "uint256"
        },
        {
          "internalType": "address",
          "name": "counterparty",
          "type": "address"
        }
      ],
      "name": "beforeAction",
      "outputs": [
        {
          "internalType": "enum SeerAutonomous.EnforcementResult",
          "name": "result",
          "type": "uint8"
        }
      ],
      "stateMutability": "nonpayable",
      "type": "function"
    },
    {
      "inputs": [
        {
          "internalType": "address",
          "name": "subject",
          "type": "address"
        },
        {
          "internalType": "enum SeerAutonomous.ActionType",
          "name": "action",
          "type": "uint8"
        }
      ],
      "name": "canPerformAction",
      "outputs": [
        {
          "internalType": "bool",
          "name": "allowed",
          "type": "bool"
        },
        {
          "internalType": "string",
          "name": "reason",
          "type": "string"
        }
      ],
      "stateMutability": "view",
      "type": "function"
    },
    {
      "inputs": [],
      "name": "challengeWindow",
      "outputs": [
        {
          "internalType": "uint64",
          "name": "",
          "type": "uint64"
        }
      ],
      "stateMutability": "view",
      "type": "function"
    },
    {
      "inputs": [
        {
          "internalType": "address",
          "name": "",
          "type": "address"
        }
      ],
      "name": "dailyResetTime",
      "outputs": [
        {
          "internalType": "uint64",
          "name": "",
          "type": "uint64"
        }
      ],
      "stateMutability": "view",
      "type": "function"
    },
    {
      "inputs": [],
      "name": "dao",
      "outputs": [
        {
          "internalType": "address",
          "name": "",
          "type": "address"
        }
      ],
      "stateMutability": "view",
      "type": "function"
    },
    {
      "inputs": [
        {
          "internalType": "address",
          "name": "",
          "type": "address"
        }
      ],
      "name": "daoOverridden",
      "outputs": [
        {
          "internalType": "bool",
          "name": "",
          "type": "bool"
        }
      ],
      "stateMutability": "view",
      "type": "function"
    },
    {
      "inputs": [
        {
          "internalType": "address",
          "name": "subject",
          "type": "address"
        },
        {
          "internalType": "string",
          "name": "reason",
          "type": "string"
        }
      ],
      "name": "daoOverride",
      "outputs": [],
      "stateMutability": "nonpayable",
      "type": "function"
    },
    {
      "inputs": [
        {
          "internalType": "address",
          "name": "subject",
          "type": "address"
        }
      ],
      "name": "daoRemoveOverride",
      "outputs": [],
      "stateMutability": "nonpayable",
      "type": "function"
    },
    {
      "inputs": [
        {
          "internalType": "enum SeerAutonomous.RestrictionLevel",
          "name": "level",
          "type": "uint8"
        },
        {
          "internalType": "enum SeerAutonomous.ActionType",
          "name": "action",
          "type": "uint8"
        },
        {
          "internalType": "uint16",
          "name": "limit",
          "type": "uint16"
        }
      ],
      "name": "daoSetRateLimit",
      "outputs": [],
      "stateMutability": "nonpayable",
      "type": "function"
    },
    {
      "inputs": [
        {
          "internalType": "uint16",
          "name": "_autoRestrict",
          "type": "uint16"
        },
        {
          "internalType": "uint16",
          "name": "_autoLift",
          "type": "uint16"
        },
        {
          "internalType": "uint16",
          "name": "_rateLimit",
          "type": "uint16"
        },
        {
          "internalType": "uint16",
          "name": "_sensitivity",
          "type": "uint16"
        }
      ],
      "name": "daoSetThresholds",
      "outputs": [],
      "stateMutability": "nonpayable",
      "type": "function"
    },
    {
      "inputs": [
        {
          "internalType": "address",
          "name": "subject",
          "type": "address"
        }
      ],
      "name": "getActivitySummary",
      "outputs": [
        {
          "internalType": "uint16",
          "name": "transferCount",
          "type": "uint16"
        },
        {
          "internalType": "uint16",
          "name": "voteCount",
          "type": "uint16"
        },
        {
          "internalType": "uint16",
          "name": "endorseCount",
          "type": "uint16"
        },
        {
          "internalType": "uint256",
          "name": "transferVolume",
          "type": "uint256"
        },
        {
          "internalType": "uint64",
          "name": "windowStart",
          "type": "uint64"
        }
      ],
      "stateMutability": "view",
      "type": "function"
    },
    {
      "inputs": [],
      "name": "getNetworkHealth",
      "outputs": [
        {
          "internalType": "uint256",
          "name": "totalActions",
          "type": "uint256"
        },
        {
          "internalType": "uint256",
          "name": "totalViolations",
          "type": "uint256"
        },
        {
          "internalType": "uint256",
          "name": "violationRate",
          "type": "uint256"
        },
        {
          "internalType": "uint16",
          "name": "currentSensitivity",
          "type": "uint16"
        }
      ],
      "stateMutability": "view",
      "type": "function"
    },
    {
      "inputs": [
        {
          "internalType": "address",
          "name": "subject",
          "type": "address"
        }
      ],
      "name": "getRestrictionInfo",
      "outputs": [
        {
          "internalType": "enum SeerAutonomous.RestrictionLevel",
          "name": "level",
          "type": "uint8"
        },
        {
          "internalType": "uint64",
          "name": "expiry",
          "type": "uint64"
        },
        {
          "internalType": "bool",
          "name": "overridden",
          "type": "bool"
        },
        {
          "internalType": "string",
          "name": "reason",
          "type": "string"
        },
        {
          "internalType": "uint16",
          "name": "violationScore",
          "type": "uint16"
        }
      ],
      "stateMutability": "view",
      "type": "function"
    },
    {
      "inputs": [
        {
          "internalType": "address",
          "name": "subject",
          "type": "address"
        }
      ],
      "name": "getViolationScore",
      "outputs": [
        {
          "internalType": "uint16",
          "name": "",
          "type": "uint16"
        }
      ],
      "stateMutability": "view",
      "type": "function"
    },
    {
      "inputs": [
        {
          "internalType": "address",
          "name": "",
          "type": "address"
        },
        {
          "internalType": "enum SeerAutonomous.ActionType",
          "name": "",
          "type": "uint8"
        }
      ],
      "name": "lastActionTime",
      "outputs": [
        {
          "internalType": "uint64",
          "name": "",
          "type": "uint64"
        }
      ],
      "stateMutability": "view",
      "type": "function"
    },
    {
      "inputs": [],
      "name": "lastThresholdAdjustment",
      "outputs": [
        {
          "internalType": "uint64",
          "name": "",
          "type": "uint64"
        }
      ],
      "stateMutability": "view",
      "type": "function"
    },
    {
      "inputs": [
        {
          "internalType": "address",
          "name": "",
          "type": "address"
        }
      ],
      "name": "lastViolationTime",
      "outputs": [
        {
          "internalType": "uint64",
          "name": "",
          "type": "uint64"
        }
      ],
      "stateMutability": "view",
      "type": "function"
    },
    {
      "inputs": [],
      "name": "ledger",
      "outputs": [
        {
          "internalType": "contract IProofLedger_Auto",
          "name": "",
          "type": "address"
        }
      ],
      "stateMutability": "view",
      "type": "function"
    },
    {
      "inputs": [],
      "name": "networkActionCount",
      "outputs": [
        {
          "internalType": "uint256",
          "name": "",
          "type": "uint256"
        }
      ],
      "stateMutability": "view",
      "type": "function"
    },
    {
      "inputs": [],
      "name": "networkViolationCount",
      "outputs": [
        {
          "internalType": "uint256",
          "name": "",
          "type": "uint256"
        }
      ],
      "stateMutability": "view",
      "type": "function"
    },
    {
      "inputs": [
        {
          "internalType": "address",
          "name": "subject",
          "type": "address"
        },
        {
          "internalType": "uint16",
          "name": "oldScore",
          "type": "uint16"
        },
        {
          "internalType": "uint16",
          "name": "newScore",
          "type": "uint16"
        }
      ],
      "name": "onScoreChange",
      "outputs": [],
      "stateMutability": "nonpayable",
      "type": "function"
    },
    {
      "inputs": [
        {
          "internalType": "address",
          "name": "",
          "type": "address"
        }
      ],
      "name": "operators",
      "outputs": [
        {
          "internalType": "bool",
          "name": "",
          "type": "bool"
        }
      ],
      "stateMutability": "view",
      "type": "function"
    },
    {
      "inputs": [],
      "name": "patternSensitivity",
      "outputs": [
        {
          "internalType": "uint16",
          "name": "",
          "type": "uint16"
        }
      ],
      "stateMutability": "view",
      "type": "function"
    },
    {
      "inputs": [
        {
          "internalType": "address",
          "name": "",
          "type": "address"
        },
        {
          "internalType": "enum SeerAutonomous.PatternType",
          "name": "",
          "type": "uint8"
        }
      ],
      "name": "patternViolations",
      "outputs": [
        {
          "internalType": "uint8",
          "name": "",
          "type": "uint8"
        }
      ],
      "stateMutability": "view",
      "type": "function"
    },
    {
      "inputs": [
        {
          "internalType": "address",
          "name": "",
          "type": "address"
        }
      ],
      "name": "pendingChallenge",
      "outputs": [
        {
          "internalType": "uint64",
          "name": "deadline",
          "type": "uint64"
        },
        {
          "internalType": "enum SeerAutonomous.RestrictionLevel",
          "name": "targetLevel",
          "type": "uint8"
        },
        {
          "internalType": "string",
          "name": "reason",
          "type": "string"
        },
        {
          "internalType": "bool",
          "name": "exists",
          "type": "bool"
        }
      ],
      "stateMutability": "view",
      "type": "function"
    },
    {
      "inputs": [],
      "name": "rateLimitThreshold",
      "outputs": [
        {
          "internalType": "uint16",
          "name": "",
          "type": "uint16"
        }
      ],
      "stateMutability": "view",
      "type": "function"
    },
    {
      "inputs": [
        {
          "internalType": "enum SeerAutonomous.RestrictionLevel",
          "name": "",
          "type": "uint8"
        },
        {
          "internalType": "enum SeerAutonomous.ActionType",
          "name": "",
          "type": "uint8"
        }
      ],
      "name": "rateLimits",
      "outputs": [
        {
          "internalType": "uint16",
          "name": "",
          "type": "uint16"
        }
      ],
      "stateMutability": "view",
      "type": "function"
    },
    {
      "inputs": [
        {
          "internalType": "address",
          "name": "subject",
          "type": "address"
        },
        {
          "internalType": "bool",
          "name": "uphold",
          "type": "bool"
        }
      ],
      "name": "resolveChallenge",
      "outputs": [],
      "stateMutability": "nonpayable",
      "type": "function"
    },
    {
      "inputs": [
        {
          "internalType": "address",
          "name": "",
          "type": "address"
        }
      ],
      "name": "restrictionExpiry",
      "outputs": [
        {
          "internalType": "uint64",
          "name": "",
          "type": "uint64"
        }
      ],
      "stateMutability": "view",
      "type": "function"
    },
    {
      "inputs": [
        {
          "internalType": "address",
          "name": "",
          "type": "address"
        }
      ],
      "name": "restrictionLevel",
      "outputs": [
        {
          "internalType": "enum SeerAutonomous.RestrictionLevel",
          "name": "",
          "type": "uint8"
        }
      ],
      "stateMutability": "view",
      "type": "function"
    },
    {
      "inputs": [
        {
          "internalType": "address",
          "name": "",
          "type": "address"
        }
      ],
      "name": "restrictionReason",
      "outputs": [
        {
          "internalType": "string",
          "name": "",
          "type": "string"
        }
      ],
      "stateMutability": "view",
      "type": "function"
    },
    {
      "inputs": [],
      "name": "riskOracle",
      "outputs": [
        {
          "internalType": "contract IRiskOracle_Auto",
          "name": "",
          "type": "address"
        }
      ],
      "stateMutability": "view",
      "type": "function"
    },
    {
      "inputs": [],
      "name": "seer",
      "outputs": [
        {
          "internalType": "contract ISeer_Auto",
          "name": "",
          "type": "address"
        }
      ],
      "stateMutability": "view",
      "type": "function"
    },
    {
      "inputs": [
        {
          "internalType": "address",
          "name": "_newDAO",
          "type": "address"
        }
      ],
      "name": "setDAO",
      "outputs": [],
      "stateMutability": "nonpayable",
      "type": "function"
    },
    {
      "inputs": [
        {
          "internalType": "address",
          "name": "_seer",
          "type": "address"
        },
        {
          "internalType": "address",
          "name": "_ledger",
          "type": "address"
        }
      ],
      "name": "setModules",
      "outputs": [],
      "stateMutability": "nonpayable",
      "type": "function"
    },
    {
      "inputs": [
        {
          "internalType": "address",
          "name": "operator",
          "type": "address"
        },
        {
          "internalType": "bool",
          "name": "authorized",
          "type": "bool"
        }
      ],
      "name": "setOperator",
      "outputs": [],
      "stateMutability": "nonpayable",
      "type": "function"
    },
    {
      "inputs": [
        {
          "internalType": "address",
          "name": "_oracle",
          "type": "address"
        }
      ],
      "name": "setRiskOracle",
      "outputs": [],
      "stateMutability": "nonpayable",
      "type": "function"
    },
    {
      "inputs": [
        {
          "internalType": "address",
          "name": "",
          "type": "address"
        }
      ],
      "name": "totalViolationScore",
      "outputs": [
        {
          "internalType": "uint16",
          "name": "",
          "type": "uint16"
        }
      ],
      "stateMutability": "view",
      "type": "function"
    }
  ],
  "bytecode": "0x60803461036f57601f6144e438819003918201601f19168301916001600160401b038311848410176103745780849260609460405283398101031261036f576100478161038a565b9061006060406100596020840161038a565b920161038a565b600e80546001600160801b0319166a01518000320fa013880bb81790556001600160a01b0392909216918215801561035e575b61034d57600080546001600160a01b03199081168517909155600180546001600160a01b039485169216821790557f4ae14344aaed3962a7f6c6977dc689bd5108ebb211a205507f01ae2a95148ce99360609391929091169081610336575b7f194cd87e031e4fd73fe3a11a9bd90816aba32aecd536669d190b26f49291f90a805461ffff199081166103e8179091557f592e2aab4e6822a1d8dcbc6c1bce6213096669bd00030d9b12fd575456513a0e8054821660649081179091557f8d8eff775592616a92bc920a118d8eb1826094a14b05004c802c9f698ed5abca8054831690911790557f851a0ae32866f3ba472136632e9962290231674655f00b8346b09c48fab67ec18054821660321790557fb476f3914864b8fd0c7b4f5dcd8ace9e429a978828c262d68c841d452e4106888054821660141790557fd1b83e832f10bcdd4c1c0c96684676ed83fc61f78f783756a581884ea07a558380548216600a1790557f34eddfc2ae8f1de6408e8e6f56f6be1e459127f59342fb4acebb2afba3774edd8054821660051790557f44f94a0fbe2e05ba1283ee61a85f179b80c8dc7a97da15605107c647ffb989c48054821690557f3e07230f483c9ccf114cb48c2a9a636cc42847dfb357093bab0cf9ed84cdf8ac8054821660011790557fe21a2e78f3a921231b755a81b3c487c3fa571f206e382505b38bdc6a683c64028054821690557ff074968e6d6b5f50aec026208cac9bcffb25aae0f85778d8ca0bd4fc7b408f6e80548216905560036000527fbab719002e4be320868650dc7456e9a1d245e4d5dd64765588e2f21529d871d360209081527ff6501bc4e21b6628d57872f3c402c506ef7ee31e11f8d59465e9ce5196c5e6a580549092169091556040805194855290840191909152820152a1604051614145908161039f8239f35b600280546001600160a01b031916831790556100f2565b6318ed93d960e01b60005260046000fd5b506001600160a01b03821615610093565b600080fd5b634e487b7160e01b600052604160045260246000fd5b51906001600160a01b038216820361036f5756fe6080604052600436101561001257600080fd5b60003560e01c8063095071711461138057806309c94cee1461131a57806313e7c9d8146112db578063170b3b46146112b657806319e9cbb71461110d5780631b660d0b146102cc5780631b9cb052146110eb5780632d55ea39146110c257806330e766841461107f5780633711f69b1461103c57806339e32d31146110065780634162169f14610fdd578063456d105014610f5657806351818aa614610f17578063539f437414610ea6578063558a729714610e2f57806356397c3514610e065780635f6fc37814610de857806362c7f7fc14610c41578063653eed1214610c1c57806367cc71ea14610bd95780636a1330ea14610b8c578063861a141214610b625780638ad469f414610b445780638b2f832e14610b2657806394d51a0a1461096457806397ea0706146108ee5780639871d38f1461086d578063a0052b8e14610849578063a589bbac14610775578063ac92540814610650578063afc7de41146105b5578063bb08e4001461057d578063c55fdd1f14610560578063cfd0db631461050a578063d50507fd146104e1578063d6969813146104a1578063d74a5d00146103e7578063d757af22146103a3578063e73a914c1461030a578063e9560624146102cc578063e9a3b6ce1461028f578063f20938b31461022c5763faf3107b1461020057600080fd5b346102275760003660031901126102275760206001600160401b0360115416604051908152f35b600080fd5b34610227576020366003190112610227576001600160a01b0361024d6113c7565b16600052600860205261028b610270610277604060002060405192838092611520565b03826115a3565b60405191829160208352602083019061145c565b0390f35b3461022757602061ffff6102c26102a53661142d565b6001600160a01b03909116600090815260138552604090206115da565b5416604051908152f35b34610227576020366003190112610227576001600160a01b036102ed6113c7565b16600052600d602052602061ffff60406000205416604051908152f35b34610227576020366003190112610227576103236113c7565b600054906001600160a01b0382169033829003610392576001600160a01b0316918215610381576001600160a01b031916821760009081557f43cefe694890edd168d1075c3464baea1d7edcf0bc1a1648423ea65b5a2ac0919080a3005b6318ed93d960e01b60005260046000fd5b634f2141fd60e11b60005260046000fd5b34610227576020366003190112610227576001600160a01b036103c46113c7565b166000526005602052602060ff604060002054166103e560405180926114d9565bf35b34610227576040366003190112610227576104006113c7565b6024356001600160a01b0381169190829003610227576000546001600160a01b03169033829003610392576001600160a01b0316801561038157600180546001600160a01b031916821790557f4ae14344aaed3962a7f6c6977dc689bd5108ebb211a205507f01ae2a95148ce9926060928161048a575b60405192835260208301526040820152a1005b600280546001600160a01b03191683179055610477565b34610227576040366003190112610227576004356006811015610227576024356008811015610227576102c261ffff916104dc6020946115f2565b6115da565b34610227576000366003190112610227576003546040516001600160a01b039091168152602090f35b34610227576020366003190112610227576105236113c7565b6000546001600160a01b03163303610392576001600160a01b0381166000908152600760205260409020805460ff1916905561055e90611fca565b005b34610227576000366003190112610227576020604051610e108152f35b346102275760206001600160401b036102c26105983661142d565b6001600160a01b03909116600090815260128552604090206115da565b34610227576020366003190112610227576001600160a01b036105d66113c7565b166000526009602052610633604060002080549061064460ff60026040519361060d856106068160018501611520565b03866115a3565b0154169160405194846001600160401b03879616865260ff602087019160401c166114d9565b60806040850152608084019061145c565b90151560608301520390f35b346102275760803660031901126102275760043561ffff81168091036102275761067861141c565b61068061140b565b9060643561ffff8116808203610227576000546001600160a01b031633036103925761ffff8316851015610737576064106106fa5763ffff000090600e549061ffff60301b9060301b169461ffff60301b199165ffffffffffff191617169160101b16179061ffff60201b9060201b161717600e55600080f35b60405162461bcd60e51b8152602060048201526015602482015274053413a2073656e736974697669747920302d31303605c1b6044820152606490fd5b60405162461bcd60e51b815260206004820152601660248201527553413a20696e76616c6964207468726573686f6c647360501b6044820152606490fd5b34610227576020366003190112610227576108226001600160a01b036107996113c7565b1680600052600560205260ff604060002054169080600052600660205261083f61080f6001600160401b036040600020541683600052600760205260ff6040600020541690846000526008602052604060002094600052600d60205261081661ffff604060002054169560405194858092611520565b03846115a3565b604051968780976114d9565b60208601521515604085015260a0606085015260a084019061145c565b9060808301520390f35b3461022757600036600319011261022757602061ffff600e54821c16604051908152f35b3461022757600036600319011261022757601054600f549080156108e45761271082029180830461271014811517156108ce576108ac82608094611faa565b61ffff600e5460301c1691604051938452602084015260408301526060820152f35b634e487b7160e01b600052601160045260246000fd5b60809160006108ac565b34610227576020366003190112610227576001600160a01b0361090f6113c7565b16600052600a60205260a060406000206001600160401b0360018254920154916040519261ffff8260401c16845261ffff8260501c16602085015261ffff8260601c1660408501526060840152166080820152f35b346102275760403660031901126102275761097d6113c7565b6024356001600160401b0381116102275736602382011215610227578060040135906001600160401b038211610227573660248383010111610227576000546001600160a01b031633036103925760406024917f49b3c5fd27fa1ef818446f0957143caf1cab2ca270d27454338780299e9b203b93610a1c60018060a01b0387169687600052600760205284600020600160ff19825416179055613e6a565b6000868152600b6020818152858320600184528152858320805460ff199081169091558984528282528684206002855282528684208054821690558984528282528684206003855282528684208054821690558984528282528684206004855282528684208054821690558984528282528684206005855282528684208054821690558984529181528583206006845281528583208054909216909155878252600d815290849020805461ffff191690558351818152908101829052938492829101838501376000828201840152601f01601f19168101030190a261055e604051610b086040826115a3565b600c81526b64616f5f6f7665727269646560a01b6020820152613fb1565b34610227576000366003190112610227576020600f54604051908152f35b34610227576000366003190112610227576020604051620151808152f35b346102275760003660031901126102275760206001600160401b03600e5460401c16604051908152f35b3461022757602036600319011261022757610ba56113c7565b6000546001600160a01b0316330361039257600380546001600160a01b0319166001600160a01b0392909216919091179055005b34610227576020366003190112610227576001600160a01b03610bfa6113c7565b16600052600660205260206001600160401b0360406000205416604051908152f35b3461022757600036600319011261022757602061ffff600e5460301c16604051908152f35b3461022757610c4f366114aa565b6000549091906001600160a01b03163303610392576001600160a01b0316600081815260096020526040902060028101549192909160ff1615610db057829015610d645750610cb260ff825460401c168360005260056020526040600020611ddb565b62093a804201908142116108ce57610d316000805160206140908339815191529184938460005260066020526001600160401b038060406000209216166001600160401b0319825416179055610d4b60ff6001830192866000526008602052610d1f846040600020611e6f565b5460401c1691604051938480946114d9565b62093a806020840152606060408401526060830190611520565b0390a25b600052600960205261055e6040600020611f44565b90610da87f0e39054a059698b5e63ddbd64a6b87da56e745e9586cd828239d9d053c3ae1e09160405191829160008352604060208401526001604084019101611520565b0390a2610d4f565b60405162461bcd60e51b815260206004820152601060248201526f53413a206e6f206368616c6c656e676560801b6044820152606490fd5b34610227576000366003190112610227576020601054604051908152f35b34610227576000366003190112610227576002546040516001600160a01b039091168152602090f35b3461022757610e3d366114aa565b6000549091906001600160a01b031633036103925760207f1a594081ae893ab78e67d9b9e843547318164322d32c65369d78a96172d9dc8f9160018060a01b031692836000526004825260406000209015159060ff1981541660ff8316179055604051908152a2005b34610227576020366003190112610227576001600160a01b03610ec76113c7565b16600052600a60205260a060406000206001815491015461ffff604051926001600160401b0381168452818160401c166020850152818160501c16604085015260601c1660608301526080820152f35b34610227576020366003190112610227576001600160a01b03610f386113c7565b166000526007602052602060ff604060002054166040519015158152f35b3461022757608036600319011261022757610f6f6113c7565b6024356008811015610227576064356001600160a01b0381168103610227576000546001600160a01b031633141580610fc4575b61039257602092610fb79260443591611821565b6103e5604051809261149d565b5033600052600460205260ff6040600020541615610fa3565b34610227576000366003190112610227576000546040516001600160a01b039091168152602090f35b346102275761101d6110173661142d565b90611621565b9061028b6040519283921515835260406020840152604083019061145c565b34610227576020366003190112610227576001600160a01b0361105d6113c7565b16600052600c60205260206001600160401b0360406000205416604051908152f35b34610227576020366003190112610227576001600160a01b036110a06113c7565b16600052601460205260206001600160401b0360406000205416604051908152f35b34610227576000366003190112610227576001546040516001600160a01b039091168152602090f35b3461022757600036600319011261022757602061ffff600e5416604051908152f35b34610227576060366003190112610227576111266113c7565b61112e61141c565b61113661140b565b6000546001600160a01b03163314158061129d575b6103925761115883611fca565b61ffff811661ffff83168060010b8260010b03617fff8113617fff198212176108ce577f1135108551e5f8cd2e06903633534ce7f0ef8c554b2d348264fddd048798995d60809660018060a01b03169687926040519060010b815260406020820152600c60408201526b73636f72655f6368616e676560a01b6060820152a2119182611282575b50506111e757005b604051906111f66040836115a3565b601082526f072617069645f73636f72655f64726f760841b602083015280600052600c60205260406000206001600160401b03804216166001600160401b0319825416179055600052600d602052604060002090601461ffff835416019161ffff83116108ce5761ffff61055e931661ffff1982541617905561127a600f54611812565b600f55613fb1565b6101f4925061ffff916112949161160b565b161182806111df565b5033600052600460205260ff604060002054161561114b565b3461022757600036600319011261022757602061ffff600e5460101c16604051908152f35b34610227576020366003190112610227576001600160a01b036112fc6113c7565b166000526004602052602060ff604060002054166040519015158152f35b346102275760603660031901126102275760043560068110156102275760243560088110156102275761134b61140b565b6000549092906001600160a01b031633036103925761ffff916104dc611370926115f2565b805461ffff191691909216179055005b34610227576040366003190112610227576113996113c7565b6024356007811015610227576102c260ff9160209360018060a01b0316600052600b845260406000206113dd565b600435906001600160a01b038216820361022757565b9060078110156113f557600052602052604060002090565b634e487b7160e01b600052602160045260246000fd5b6044359061ffff8216820361022757565b6024359061ffff8216820361022757565b6040906003190112610227576004356001600160a01b0381168103610227579060243560088110156102275790565b919082519283825260005b848110611488575050826000602080949584010152601f8019910116010190565b80602080928401015182828601015201611467565b9060058210156113f55752565b6040906003190112610227576004356001600160a01b0381168103610227579060243580151581036102275790565b9060068210156113f55752565b90600182811c92168015611516575b602083101461150057565b634e487b7160e01b600052602260045260246000fd5b91607f16916114f5565b60009291815491611530836114e6565b8083529260018116908115611586575060011461154c57505050565b60009081526020812093945091925b83831061156c575060209250010190565b60018160209294939454838587010152019101919061155b565b915050602093945060ff929192191683830152151560051b010190565b90601f801991011681019081106001600160401b038211176115c457604052565b634e487b7160e01b600052604160045260246000fd5b9060088110156113f557600052602052604060002090565b60068110156113f5576000526015602052604060002090565b9061ffff8091169116039061ffff82116108ce57565b6001600160a01b031660008181526007602052604090205490919060ff166117a85781600052600560205260ff604060002054169160068310156113f55782151580611787575b61177e575b60068310156113f557600583146117545761ffff61168e836104dc866115f2565b54169283159081611748575b506117165761ffff916116b991600052601360205260406000206115da565b541610156116e9576001906040516116d26040826115a3565b6007815266185b1b1bddd95960ca1b602082015290565b6000906040516116fa6040826115a3565b600c81526b1c985d1957db1a5b5a5d195960a21b602082015290565b50505060009060405161172a6040826115a3565b600e81526d1858dd1a5bdb97d89b1bd8dad95960921b602082015290565b6003915010153861169a565b5050506000906040516117686040826115a3565b6006815265333937bd32b760d11b602082015290565b6000925061166d565b508060005260066020526001600160401b0360406000205416421015611668565b50506001906040516117bb6040826115a3565b600c81526b64616f5f6f7665727269646560a01b602082015290565b909291604082019360088110156113f55782526117f7916020019061149d565b565b90816020910312610227575160ff811681036102275790565b60001981146108ce5760010190565b6001600160a01b03811660008181526007602052604090205490939060ff16611dd15761184d8261228c565b6118578383612369565b9460058610156113f5578560038114611dae575084600052600a602052604060002091610e106001600160401b03845416016001600160401b0381116108ce576001600160401b0316421015611d59575b60088510156113f55784611ce8576118c761ffff845460401c16612499565b835461ffff60401b191660409190911b61ffff60401b1617835560018301805490916118f291611df3565b90555b6001600160a01b0381169182151580611cda575b611c90575b5061191b915083836124da565b60078110156113f55780611c30575b506003546001600160a01b031680611ab4575b506000805160206140b0833981519152916119588592611fca565b8360005260146020526001600160401b036119798160406000205416612459565b16421015611a0e575b8360005260136020526119998160406000206115da565b61ffff6119a881835416612499565b1661ffff198254161790558360005260126020526119ca8160406000206115da565b80546001600160401b031916426001600160401b03161790556119eb613be2565b6119f6601054611812565b601055611a08604051928392836117d7565b0390a290565b600084815260146020908152604080832080546001600160401b031916426001600160401b031617905560138252808320838052909152808220805461ffff1990811690915560018352818320805482169055600283528183208054821690556003835281832080548216905560048352818320805482169055600583528183208054821690556006835281832080548216905560078352912080549091169055611982565b60206024916040969396519283809263dc08706d60e01b82528860048301525afa8015611c245760ff91600091611bf5575b50166050811115611b4a575050611958926000805160206140b083398151915291611b3b604051611b186040826115a3565b601081526f6f7261636c655f686967685f7269736b60801b602082015283612cba565b60029485925b9250509161193d565b93603282951180611bcc575b611b74575b916119586000805160206140b083398151915293611b41565b9050611bac604051611b876040826115a3565b60128152716f7261636c655f6d656469756d5f7269736b60701b602082015282612afb565b60058410156113f5578315611bc3575b8390611b5b565b60019350611bbc565b50905082600052600560205260ff604060002054169060068210156113f5576002859210611b56565b611c17915060203d602011611c1d575b611c0f81836115a3565b8101906117f9565b38611ae6565b503d611c05565b6040513d6000823e3d90fd5b9350611c3c848261266b565b9383600052600560205260ff604060002054169060068210156113f55760407fd2e33092e965b98e12fbe5c5c0aa2b7ced756e773932a5ab0c49671b0839606991869382519182526020820152a23861192a565b60020180549290600160401b8410156115c45783611cb691600161191b960181556124ac565b81546001600160a01b0360039290921b91821b191692901b9190911790553861190e565b506014600282015410611909565b5060038403611d2157611d0261ffff835460501c16612499565b825461ffff60501b191660509190911b61ffff60501b161782556118f5565b600584036118f557611d3a61ffff835460601c16612499565b825461ffff60601b191660609190911b61ffff60601b161782556118f5565b82546001600160701b031916426001600160401b03161783556000600184018190556002840180549181559080611d92575b50506118a8565b611da791600052602060002090810190611e00565b3880611d8b565b925050506000805160206140b083398151915291611a08604051928392836117d7565b5050505050600090565b9060068110156113f55760ff80198354169116179055565b919082018092116108ce57565b818110611e0b575050565b60008155600101611e00565b9190601f8111611e2657505050565b6117f7926000526020600020906020601f840160051c83019310611e52575b601f0160051c0190611e00565b9091508190611e45565b8160011b916000199060031b1c19161790565b919091828114611f3f57611e8383546114e6565b6001600160401b0381116115c457611ea581611e9f84546114e6565b84611e17565b600093601f8211600114611ed957611eca9293948291600092611ece575b5050611e5c565b9055565b015490503880611ec3565b845260208085208386529085209094601f198316815b818110611f2757509583600195969710611f0e575b505050811b019055565b015460001960f88460031b161c19169055388080611f04565b9192600180602092868b015481550194019201611eef565b509050565b600260009182815560018101611f5a81546114e6565b9081611f67575b50500155565b81601f869311600114611f7e5750555b3880611f61565b81835260208320611f9a91601f0160051c810190600101611e00565b8082528160208120915555611f77565b8115611fb4570490565b634e487b7160e01b600052601260045260246000fd5b6001600160a01b03811660008181526007602052604090205460ff1661227257600154604051630d47875d60e41b81526004810183905290602090829060249082906001600160a01b03165afa908115611c245760009161222e575b5081600052600560205260ff604060002054169160068310156113f557821515908161220c575b506121f9575b61ffff166103e88110806121e6575b1561209c5750506117f7906040519061207c6040836115a3565b600e82526d637269746963616c5f73636f726560901b60208301526134c5565b6107d08110806121d3575b156120e15750506117f790604051906120c16040836115a3565b600e82526d766572795f6c6f775f73636f726560901b6020830152613179565b600e5461ffff81168210806121c0575b15612127575050506117f7906040519061210c6040836115a3565b60098252686c6f775f73636f726560b81b6020830152612ff6565b61ffff8160201c168210806121ad575b15612178575050506117f790604051906121526040836115a3565b601482527318995b1bddd7dc985d1957dd1a1c995cda1bdb1960621b6020830152612e71565b60101c61ffff161115908161219a575b50612191575b50565b6117f790613e6a565b905060068110156113f557151538612188565b5060068310156113f55760028310612137565b5060068310156113f557600383106120f1565b5060068210156113f557600482106120a7565b5060068210156113f55760058210612062565b905061220482613e6a565b600090612053565b905060005260066020526001600160401b03604060002054164210153861204d565b6020813d60201161226a575b81612247602093836115a3565b8101031261226657519061ffff82168203612263575038612026565b80fd5b5080fd5b3d915061223a565b5050565b9061ffff8091169116019061ffff82116108ce57565b6001600160a01b03166000818152600960205260409020600281015460ff16156122725780546001600160401b03811642106123645760ff6122df9184600052600560205260401c166040600020611ddb565b62093a804201908142116108ce57610d316000805160206140908339815191529184938460005260066020526001600160401b038060406000209216166001600160401b031982541617905561234c60ff6001830192866000526008602052610d1f846040600020611e6f565b0390a260005260096020526117f76040600020611f44565b505050565b6001600160a01b031660008181526005602052604090205460ff16919060068310156113f55782151580612438575b61242f575b600683101591826113f557600584146124265761ffff6123c0826104dc876115f2565b541691821580612417575b61240d5761ffff916123e991600052601360205260406000206115da565b54161015612406576113f55760041461240157600090565b600190565b5050600390565b5050505050600390565b506000935060038510156123cb565b50505050600390565b6000925061239d565b508060005260066020526001600160401b0360406000205416421015612398565b6001600160401b0362015180911601906001600160401b0382116108ce57565b906001600160401b03809116911601906001600160401b0382116108ce57565b61ffff1661ffff81146108ce5760010190565b80548210156124c45760005260206000200190600090565b634e487b7160e01b600052603260045260246000fd5b6001600160a01b03166000908152600a60205260409020600e549092603082901c61ffff16929060088210156113f557811561262b575b6001600160a01b0316806125d3575b5060009160058214612580575b50600391501461253f575b5050600090565b600a0261ffff81169081036108ce57606461ffff910416600f039061ffff82116108ce5761ffff80915460501c1691161061257b573880612538565b600490565b602d1c61fff88116906207fff81681036125bf57606461ffff910416600a0361ffff81116125bf5761ffff80865460601c16911610612426573861252d565b634e487b7160e01b83526011600452602483fd5b600090600286018054925b8381106125ed57505050612520565b826125f882846124ac565b905460039190911b1c6001600160a01b031614612618575b6001016125de565b8015612610575050505050505050600290565b600f840261ffff81169081036108ce57606461ffff91041660140361ffff81116108ce5761ffff80875460401c1691161015612511575050505050600190565b9060009160018060a01b03811691828452600b60205261268e81604086206113dd565b60ff81541660ff8114612ae757600160ff91011660ff19825416179055828452600b60205260ff6126c282604087206113dd565b541690838552600c602052604085206001600160401b03804216166001600160401b03198254161790556126f7600f54611812565b600f5584906007811015612ad35760018103612a7f575050600a5b838552600d6020526040852061ffff61272e8382845416612276565b825461ffff191691161790556003546001600160a01b0316806129ce575b5050600581106128405750612796906040519061276a6040836115a3565b601a8252793932b832b0ba32b22fb830ba3a32b9372fbb34b7b630ba34b7b760311b6020830152613933565b604051906127a56040836115a3565b601a8252793932b832b0ba32b22fb830ba3a32b9372fbb34b7b630ba34b7b760311b60208301526001546001600160a01b031690813b1561283c57918391612818938360405180968195829463031879a760e21b8452600484015260c8602484015260606044840152606483019061145c565b03925af1612827575050600390565b6128328280926115a3565b6122635780612406565b8380fd5b60038110612917575061287f906040519061285c6040836115a3565b60118252703830ba3a32b9372fbb34b7b630ba34b7b760791b6020830152612cba565b6040519061288e6040836115a3565b60118252703830ba3a32b9372fbb34b7b630ba34b7b760791b60208301526001546001600160a01b031690813b1561283c579183916128f8938360405180968195829463031879a760e21b845260048401526064602484015260606044840152606483019061145c565b03925af1612907575050600390565b81612911916115a3565b38612406565b9091506002116129965781612991925061295d6040516129386040826115a3565b601281527139bab9b834b1b4b7bab9afb830ba3a32b93760711b602082015283612afb565b506040519061296d6040836115a3565b601282527139bab9b834b1b4b7bab9afb830ba3a32b93760711b6020830152614025565b600290565b81612401925050604051906129ac6040836115a3565b601082526f1c185d1d195c9b97d9195d1958dd195960821b60208301526137b0565b60206024916040519283809263dc08706d60e01b82528960048301525afa908115612a74579060ff918791612a55575b501690811561274c576032612a4792868852600d6020526040882061ffff612a298382845416612276565b825461ffff191691161790551115612a4d5760ff60145b1690612276565b3861274c565b60ff86612a40565b612a6e915060203d602011611c1d57611c0f81836115a3565b386129fe565b6040513d88823e3d90fd5b60028103612a91575050601e5b612712565b60038103612aa25750506032612712565b60048103612ab35750506046612712565b60058103612ac45750506050612712565b600603612a8c57506064612712565b634e487b7160e01b86526021600452602486fd5b634e487b7160e01b86526011600452602486fd5b6001600160a01b031660008181526005602052604081205460ff16906006821015612ca6575060021115612272576000818152600560205260408120909290612b4690600290611ddb565b612b5c620151806001600160401b034216612479565b82845260066020526001600160401b036040852091166001600160401b031982541617905581835260086020526040832081516001600160401b038111612c9257612bab81611e9f84546114e6565b6020601f8211600114612c1e5791612bdf826000805160206140908339815191529593612c0d958991612c13575b50611e5c565b90555b604051918291612bf38360026114d9565b62015180602084015260606040840181905283019061145c565b0390a250565b905084015138612bd9565b82865280862090601f198316875b818110612c7a575092612c0d949260019282600080516020614090833981519152989610612c61575b5050811b019055612be2565b85015160001960f88460031b161c191690553880612c55565b9192602060018192868a015181550194019201612c2c565b634e487b7160e01b85526041600452602485fd5b634e487b7160e01b81526021600452602490fd5b6001600160a01b038116600081815260056020526040812054919493929160ff16906006821015612ca6575060031115612e6b576000848152600560205260408120612d0890600390611ddb565b612d1e6203f4806001600160401b034216612479565b85825260066020526001600160401b036040832091166001600160401b0319825416179055848152600860205260408120948351956001600160401b038711612e5757612d7587612d6f83546114e6565b83611e17565b602096601f8111600114612df45780612d99916117f798998691612de95750611e5c565b90555b600080516020614090833981519152604051612db98160036114d9565b6001600160401b036203f4801660208201526060604082015280612de0606082018861145c565b0390a250614025565b905087015138612bd9565b818452878420601f198216855b818110612e3f5750906117f79899836001949310612e26575b5050811b019055612d9c565b88015160001960f88460031b161c191690553880612e1a565b888b0151835560209a8b019a60019093019201612e01565b634e487b7160e01b83526041600452602483fd5b50509050565b6001600160a01b031660008181526005602052604081205460ff16906006821015612ca6575060021115612272576000818152600560205260408120909290612ebc90600290611ddb565b612ed26203f4806001600160401b034216612479565b82845260066020526001600160401b036040852091166001600160401b031982541617905581835260086020526040832081516001600160401b038111612c9257612f2181611e9f84546114e6565b6020601f8211600114612f825791612f54826000805160206140908339815191529593612c0d958991612c135750611e5c565b90555b604051918291612f688360026114d9565b6203f480602084015260606040840181905283019061145c565b82865280862090601f198316875b818110612fde575092612c0d949260019282600080516020614090833981519152989610612fc5575b5050811b019055612f57565b85015160001960f88460031b161c191690553880612fb9565b9192602060018192868a015181550194019201612f90565b6001600160a01b038116600081815260056020526040812054919493929160ff16906006821015612ca6575060031115612e6b57600084815260056020526040812061304490600390611ddb565b61305a62093a806001600160401b034216612479565b85825260066020526001600160401b036040832091166001600160401b0319825416179055848152600860205260408120948351956001600160401b038711612e57576130ab87612d6f83546114e6565b602096601f811160011461311657806130cf916117f798998691612de95750611e5c565b90555b6000805160206140908339815191526040516130ef8160036114d9565b6001600160401b0362093a801660208201526060604082015280612de0606082018861145c565b818452878420601f198216855b8181106131615750906117f79899836001949310613148575b5050811b0190556130d2565b88015160001960f88460031b161c19169055388061313c565b888b0151835560209a8b019a60019093019201613123565b6001600160a01b038116600081815260056020526040812054919493929160ff16906006821015612ca6575060041115612e6b57600084815260096020526040812060028101805492969260ff161561335057505080855260056020526131e4600460408720611ddb565b6131fa621275006001600160401b034216612479565b81865260066020526001600160401b036040872091166001600160401b031982541617905580855260086020526040852083516001600160401b03811161333c57908161324d889493611e9f84546114e6565b6020601f82116001146132d957908061326c928691612de95750611e5c565b90555b60008051602061409083398151915260405161328c8160046114d9565b6001600160401b036212750016602082015260606040820152806132b3606082018861145c565b0390a26132c5576117f7929350614025565b634e487b7160e01b84526021600452602484fd5b82855280852090601f198316865b81811061332157509083600194939210613308575b5050811b01905561326f565b88015160001960f88460031b161c1916905538806132fc565b8983015184558b9750600190930192602092830192016132e7565b634e487b7160e01b87526041600452602487fd5b815460ff60401b1916600160421b178255600e5495965091949092506001600160401b039081906133869060401c821642611df3565b16166001600160401b03198354161782556001820183516001600160401b0381116115c4576133b981611e9f84546114e6565b6020601f821160011461344257936000805160206140f08339815191529593613432936133f9846001600160401b03989589966000916134375750611e5c565b90555b600160ff1982541617905554169160405193849361341b8560046114d9565b16602084015260606040840152606083019061145c565b0390a2565b905088015138612bd9565b601f1982169083600052806000209160005b8181106134ad5750936001846001600160401b0398946000805160206140f08339815191529a98948a976134329910613494575b5050811b0190556133fc565b89015160001960f88460031b161c191690553880613488565b9192602060018192868c015181550194019201613454565b6001600160a01b038116600081815260056020526040812054919493929160ff16906006821015612ca6575060051115612e6b57600084815260096020526040812060028101805492969260ff16156136625750508085526005602052613530600560408720611ddb565b61354662278d006001600160401b034216612479565b81865260066020526001600160401b036040872091166001600160401b031982541617905580855260086020526040852083516001600160401b03811161333c579081613599889493611e9f84546114e6565b6020601f82116001146135ff5790806135b8928691612de95750611e5c565b90555b6000805160206140908339815191526040516135d88160056114d9565b6001600160401b0362278d0016602082015260606040820152806132b3606082018861145c565b82855280852090601f198316865b8181106136475750908360019493921061362e575b5050811b0190556135bb565b88015160001960f88460031b161c191690553880613622565b8983015184558b97506001909301926020928301920161360d565b815460ff60401b1916600560401b178255600e5495965091949092506001600160401b039081906136989060401c821642611df3565b16166001600160401b03198354161782556001820183516001600160401b0381116115c4576136cb81611e9f84546114e6565b6020601f821160011461372d57936000805160206140f083398151915295936134329361370b846001600160401b03989589966000916134375750611e5c565b90555b600160ff1982541617905554169160405193849361341b8560056114d9565b601f1982169083600052806000209160005b8181106137985750936001846001600160401b0398946000805160206140f08339815191529a98948a97613432991061377f575b5050811b01905561370e565b89015160001960f88460031b161c191690553880613773565b9192602060018192868c01518155019401920161373f565b6001600160a01b031660008181526005602052604081205460ff16906006821015612ca65750600111156122725760008181526005602052604081209092906137fb90600190611ddb565b6138106154606001600160401b034216612479565b82845260066020526001600160401b036040852091166001600160401b031982541617905581835260086020526040832081516001600160401b038111612c925761385f81611e9f84546114e6565b6020601f82116001146138bf5791613892826000805160206140908339815191529593612c0d958991612c135750611e5c565b90555b6040519182916138a68360016114d9565b615460602084015260606040840181905283019061145c565b82865280862090601f198316875b81811061391b575092612c0d949260019282600080516020614090833981519152989610613902575b5050811b019055613895565b85015160001960f88460031b161c1916905538806138f6565b9192602060018192868a0151815501940192016138cd565b6001600160a01b038116600081815260056020526040812054919493929160ff16906006821015612ca6575060041115612e6b57600084815260096020526040812060028101805492969260ff1615613ad0575050808552600560205261399e600460408720611ddb565b6139b462093a806001600160401b034216612479565b81865260066020526001600160401b036040872091166001600160401b031982541617905580855260086020526040852083516001600160401b03811161333c579081613a07889493611e9f84546114e6565b6020601f8211600114613a6d579080613a26928691612de95750611e5c565b90555b600080516020614090833981519152604051613a468160046114d9565b6001600160401b0362093a8016602082015260606040820152806132b3606082018861145c565b82855280852090601f198316865b818110613ab557509083600194939210613a9c575b5050811b019055613a29565b88015160001960f88460031b161c191690553880613a90565b8983015184558b975060019093019260209283019201613a7b565b815460ff60401b1916600160421b178255600e5495965091949092506001600160401b03908190613b069060401c821642611df3565b16166001600160401b03198354161782556001820183516001600160401b0381116115c457613b3981611e9f84546114e6565b6020601f8211600114613b7957936000805160206140f08339815191529593613432936133f9846001600160401b03989589966000916134375750611e5c565b601f1982169083600052806000209160005b818110613bca5750936001846001600160401b0398946000805160206140f08339815191529a98948a976134329910613494575050811b0190556133fc565b9192602060018192868c015181550194019201613b8b565b6011546000906001600160401b03613bfb818316612459565b164210612272576001600160401b031916426001600160401b031617601155601054801561227257600f5461271081029080820461271014901517156125bf5790613c4591611faa565b6101f4811115613d69575080600e5461ffff811661138861ffff613c6a60c884612276565b161115613d565761ffff6113885b16809261ffff191617600e55818103613d24575b50505080600e5461ffff808260301c1691606482613cab600a86612276565b161115613d13576064905b8260301b8260301b16908360301b191617600e551690818103613ce1575b5050505b80600f55601055565b604051926132c55760038352602083015260408201526000805160206140d083398151915290606090a1803880613cd4565b613d1e600a84612276565b90613cb6565b604051926132c55760008352602083015260408201526000805160206140d083398151915290606090a1803880613c8c565b61ffff613d6460c883612276565b613c78565b60641115613cd857600e5461ffff81169061044c821015613e575761ffff6103e85b16809161ffff191617600e55808203613e26575b505080600e5461ffff808260301c169160058310600014613e155783905b8260301b8260301b16908360301b191617600e551690818103613de3575b505050613cd8565b604051926132c55760038352602083015260408201526000805160206140d083398151915290606090a1803880613ddb565b613e2060058461160b565b90613dbd565b6000805160206140d08339815191529192506060906040519060009485835260208301526040820152a13880613d9f565b61ffff613e6560648461160b565b613d8b565b6001600160a01b031660008181526005602052604090205460ff1660068110156113f5578015612272576000190160ff81116108ce5760ff1660068110156113f557816000526005602052613ec3816040600020611ddb565b6201518042018042116108ce576000805160206140908339815191529160a0918460005260066020526001600160401b038060406000209216166001600160401b03198254161790558360005260086020526040600020613f2481546114e6565b601f8111613f8f575b5060287370726f67726573736976655f756e667265657a6560601b019055613f5860405180926114d9565b62015180602082015260606040820152601460608201527370726f67726573736976655f756e667265657a6560601b6080820152a2565b613fab9082600052601f6020600020910160051c810190611e00565b38613f2d565b6002546000916001600160a01b039091169081613fcd57505050565b813b156140215761400583928392604051948580948193633ddd61ab60e21b835230600484015260606024840152606483019061145c565b33604483015203925af1614017575050565b8161218e916115a3565b8280fd5b600154600092916001600160a01b0390911690813b1561283c5760405163031879a760e21b81526001600160a01b0390911660048201526032602482015260606044820152918391839182908490829061408390606483019061145c565b03925af161401757505056fe22c85b3d94a1ba3a9322c4e04ad1813525375dae45698eb5957f18c0812cf7e44909085539de9923a8e0454222710f93be48039aa8bfc0a9e6d37f8236e42c9239d1b5740c8a1efded3c1de1f89851b6dad657de063bd31c547ab61320fc6ea5fa428e264ac18cd0f4803a0e6fe7fba2d7dbdc42f17aa6d52a89b34c0fdfe1dba26469706673582212203b6331b1a69524c913c059ebfae175f3f545516860c4429814077ceaa572a97c64736f6c634300081e0033",
  "linkReferences": {},
  "deployedLinkReferences": {}
}