{
  "_format": "hh-sol-artifact-1",
  "contractName": "MerchantRegistryMock",
  "sourceName": "contracts/mocks/MerchantRegistryMock.sol",
  "abi": [
    {
      "inputs": [
        {
          "internalType": "address",
          "name": "owner_",
          "type": "address"
        },
        {
          "internalType": "address",
          "name": "vault_",
          "type": "address"
        },
        {
          "internalType": "uint8",
          "name": "status_",
          "type": "uint8"
        }
      ],
      "stateMutability": "nonpayable",
      "type": "constructor"
    },
    {
      "inputs": [
        {
          "internalType": "address",
          "name": "",
          "type": "address"
        }
      ],
      "name": "info",
      "outputs": [
        {
          "components": [
            {
              "internalType": "address",
              "name": "owner",
              "type": "address"
            },
            {
              "internalType": "address",
              "name": "vault",
              "type": "address"
            },
            {
              "internalType": "enum MerchantRegistryMock.Status",
              "name": "status",
              "type": "uint8"
            },
            {
              "internalType": "uint32",
              "name": "refunds",
              "type": "uint32"
            },
            {
              "internalType": "uint32",
              "name": "disputes",
              "type": "uint32"
            },
            {
              "internalType": "bytes32",
              "name": "metaHash",
              "type": "bytes32"
            }
          ],
          "internalType": "struct MerchantRegistryMock.Merchant",
          "name": "",
          "type": "tuple"
        }
      ],
      "stateMutability": "view",
      "type": "function"
    },
    {
      "inputs": [],
      "name": "m",
      "outputs": [
        {
          "internalType": "address",
          "name": "owner",
          "type": "address"
        },
        {
          "internalType": "address",
          "name": "vault",
          "type": "address"
        },
        {
          "internalType": "enum MerchantRegistryMock.Status",
          "name": "status",
          "type": "uint8"
        },
        {
          "internalType": "uint32",
          "name": "refunds",
          "type": "uint32"
        },
        {
          "internalType": "uint32",
          "name": "disputes",
          "type": "uint32"
        },
        {
          "internalType": "bytes32",
          "name": "metaHash",
          "type": "bytes32"
        }
      ],
      "stateMutability": "view",
      "type": "function"
    },
    {
      "inputs": [
        {
          "internalType": "address",
          "name": "owner_",
          "type": "address"
        },
        {
          "internalType": "address",
          "name": "vault_",
          "type": "address"
        },
        {
          "internalType": "uint8",
          "name": "status_",
          "type": "uint8"
        }
      ],
      "name": "setMerchant",
      "outputs": [],
      "stateMutability": "nonpayable",
      "type": "function"
    }
  ],
  "bytecode": "0x6080346100e457601f6103e138819003918201601f19168301916001600160401b038311848410176100e9578084926060946040528339810103126100e457610047816100ff565b906040610056602083016100ff565b9101519160ff8316908184036100e457600080546001600160a01b0319166001600160a01b039290921691909117905560015490600411156100ce5760a09290921b60ff60a01b166001600160e81b03199092166001600160a01b03909116171760015560006002556040516102cd90816101148239f35b634e487b7160e01b600052602160045260246000fd5b600080fd5b634e487b7160e01b600052604160045260246000fd5b51906001600160a01b03821682036100e45756fe6080604052600436101561001257600080fd5b60003560e01c80630aae7a6b1461014b5780635a2ee019146100e05763dcfb0a321461003d57600080fd5b346100db5760603660031901126100db5761005661023e565b6024356001600160a01b038116908190036100db5760443560ff8116928382036100db57600080546001600160a01b0319166001600160a01b039290921691909117905560015492600411156100c5576001600160a81b03199092161760a09190911b60ff60a01b1617600155005b634e487b7160e01b600052602160045260246000fd5b600080fd5b346100db5760003660031901126100db57600054600154600254604080516001600160a01b039485168152938316602085015260c0939263ffffffff9161013090850160a083901c60ff16610254565b818160a81c16606085015260c81c16608083015260a0820152f35b346100db5760203660031901126100db5761016461023e565b50600060a0610171610261565b8281528260208201528260408201528260608201528260808201520152610196610261565b6000546001600160a01b0390811682526001549081166020830190815260a082901c60ff169291604083019060048510156100c55763ffffffff8260c0968294526102286060870191838560a81c16835283608089019560c81c1685526002549660a089019788526040519860018060a01b03905116895260018060a01b039051166020890152516040880190610254565b51166060850152511660808301525160a0820152f35b600435906001600160a01b03821682036100db57565b9060048210156100c55752565b6040519060c0820182811067ffffffffffffffff82111761028157604052565b634e487b7160e01b600052604160045260246000fdfea2646970667358221220f01d22f63d112631dbb5e6291e2569c97b6ab863acdc3bc39f98ca6978c3c9db64736f6c634300081e0033",
  "linkReferences": {},
  "deployedLinkReferences": {}
}