{
  "_format": "hh-sol-artifact-1",
  "contractName": "HandoverGate",
  "sourceName": "contracts/HandoverGate.sol",
  "abi": [
    {
      "inputs": [
        {
          "internalType": "address",
          "name": "initialOwner",
          "type": "address"
        }
      ],
      "stateMutability": "nonpayable",
      "type": "constructor"
    },
    {
      "inputs": [],
      "name": "AlreadyFinalized",
      "type": "error"
    },
    {
      "inputs": [],
      "name": "AlreadySignaled",
      "type": "error"
    },
    {
      "inputs": [],
      "name": "NotEligible",
      "type": "error"
    },
    {
      "inputs": [],
      "name": "NotGov",
      "type": "error"
    },
    {
      "inputs": [],
      "name": "PostponeOnlyOnce",
      "type": "error"
    },
    {
      "inputs": [],
      "name": "ThresholdTooHigh",
      "type": "error"
    },
    {
      "inputs": [],
      "name": "ZeroAddress",
      "type": "error"
    },
    {
      "anonymous": false,
      "inputs": [
        {
          "indexed": true,
          "internalType": "address",
          "name": "dao",
          "type": "address"
        }
      ],
      "name": "DAOExecutorSet",
      "type": "event"
    },
    {
      "anonymous": false,
      "inputs": [
        {
          "indexed": false,
          "internalType": "uint64",
          "name": "addedSeconds",
          "type": "uint64"
        }
      ],
      "name": "EmergencyPostpone",
      "type": "event"
    },
    {
      "anonymous": false,
      "inputs": [
        {
          "indexed": true,
          "internalType": "address",
          "name": "dao",
          "type": "address"
        },
        {
          "indexed": false,
          "internalType": "uint64",
          "name": "timestamp",
          "type": "uint64"
        }
      ],
      "name": "Finalized",
      "type": "event"
    },
    {
      "anonymous": false,
      "inputs": [
        {
          "indexed": false,
          "internalType": "address[]",
          "name": "modules",
          "type": "address[]"
        }
      ],
      "name": "GovernablesSet",
      "type": "event"
    },
    {
      "anonymous": false,
      "inputs": [
        {
          "indexed": false,
          "internalType": "uint64",
          "name": "startTs",
          "type": "uint64"
        }
      ],
      "name": "HandoverStartSet",
      "type": "event"
    },
    {
      "anonymous": false,
      "inputs": [
        {
          "indexed": false,
          "internalType": "uint16",
          "name": "score",
          "type": "uint16"
        }
      ],
      "name": "MinDAOScoreSet",
      "type": "event"
    },
    {
      "anonymous": false,
      "inputs": [
        {
          "indexed": false,
          "internalType": "uint64",
          "name": "seconds_",
          "type": "uint64"
        }
      ],
      "name": "MinDelaySet",
      "type": "event"
    },
    {
      "anonymous": false,
      "inputs": [
        {
          "indexed": true,
          "internalType": "address",
          "name": "multisig",
          "type": "address"
        }
      ],
      "name": "MultisigSet",
      "type": "event"
    },
    {
      "anonymous": false,
      "inputs": [
        {
          "indexed": true,
          "internalType": "address",
          "name": "previousOwner",
          "type": "address"
        },
        {
          "indexed": true,
          "internalType": "address",
          "name": "newOwner",
          "type": "address"
        }
      ],
      "name": "OwnershipTransferStarted",
      "type": "event"
    },
    {
      "anonymous": false,
      "inputs": [
        {
          "indexed": true,
          "internalType": "address",
          "name": "previousOwner",
          "type": "address"
        },
        {
          "indexed": true,
          "internalType": "address",
          "name": "newOwner",
          "type": "address"
        }
      ],
      "name": "OwnershipTransferred",
      "type": "event"
    },
    {
      "anonymous": false,
      "inputs": [
        {
          "indexed": true,
          "internalType": "address",
          "name": "proof",
          "type": "address"
        }
      ],
      "name": "ProofSinkSet",
      "type": "event"
    },
    {
      "anonymous": false,
      "inputs": [
        {
          "indexed": true,
          "internalType": "address",
          "name": "signer",
          "type": "address"
        }
      ],
      "name": "ReadySignaled",
      "type": "event"
    },
    {
      "anonymous": false,
      "inputs": [
        {
          "indexed": true,
          "internalType": "address",
          "name": "signer",
          "type": "address"
        }
      ],
      "name": "ReadySignerAdded",
      "type": "event"
    },
    {
      "anonymous": false,
      "inputs": [
        {
          "indexed": true,
          "internalType": "address",
          "name": "signer",
          "type": "address"
        }
      ],
      "name": "ReadySignerRemoved",
      "type": "event"
    },
    {
      "anonymous": false,
      "inputs": [
        {
          "indexed": false,
          "internalType": "uint16",
          "name": "threshold",
          "type": "uint16"
        }
      ],
      "name": "ReadySignerThresholdSet",
      "type": "event"
    },
    {
      "anonymous": false,
      "inputs": [
        {
          "indexed": true,
          "internalType": "address",
          "name": "seer",
          "type": "address"
        }
      ],
      "name": "SeerSet",
      "type": "event"
    },
    {
      "inputs": [],
      "name": "acceptOwnership",
      "outputs": [],
      "stateMutability": "nonpayable",
      "type": "function"
    },
    {
      "inputs": [
        {
          "internalType": "address",
          "name": "a",
          "type": "address"
        }
      ],
      "name": "addReadySigner",
      "outputs": [],
      "stateMutability": "nonpayable",
      "type": "function"
    },
    {
      "inputs": [],
      "name": "dao",
      "outputs": [
        {
          "internalType": "address",
          "name": "",
          "type": "address"
        }
      ],
      "stateMutability": "view",
      "type": "function"
    },
    {
      "inputs": [],
      "name": "daoExecutor",
      "outputs": [
        {
          "internalType": "address",
          "name": "",
          "type": "address"
        }
      ],
      "stateMutability": "view",
      "type": "function"
    },
    {
      "inputs": [],
      "name": "eligibleAt",
      "outputs": [
        {
          "internalType": "uint64",
          "name": "",
          "type": "uint64"
        }
      ],
      "stateMutability": "view",
      "type": "function"
    },
    {
      "inputs": [
        {
          "internalType": "uint64",
          "name": "addSeconds",
          "type": "uint64"
        }
      ],
      "name": "emergencyPostpone",
      "outputs": [],
      "stateMutability": "nonpayable",
      "type": "function"
    },
    {
      "inputs": [],
      "name": "finalizeHandover",
      "outputs": [],
      "stateMutability": "nonpayable",
      "type": "function"
    },
    {
      "inputs": [],
      "name": "finalized",
      "outputs": [
        {
          "internalType": "bool",
          "name": "",
          "type": "bool"
        }
      ],
      "stateMutability": "view",
      "type": "function"
    },
    {
      "inputs": [
        {
          "internalType": "uint256",
          "name": "",
          "type": "uint256"
        }
      ],
      "name": "governables",
      "outputs": [
        {
          "internalType": "address",
          "name": "",
          "type": "address"
        }
      ],
      "stateMutability": "view",
      "type": "function"
    },
    {
      "inputs": [],
      "name": "governablesCount",
      "outputs": [
        {
          "internalType": "uint256",
          "name": "",
          "type": "uint256"
        }
      ],
      "stateMutability": "view",
      "type": "function"
    },
    {
      "inputs": [],
      "name": "handoverStart",
      "outputs": [
        {
          "internalType": "uint64",
          "name": "",
          "type": "uint64"
        }
      ],
      "stateMutability": "view",
      "type": "function"
    },
    {
      "inputs": [],
      "name": "isDAOScoreReady",
      "outputs": [
        {
          "internalType": "bool",
          "name": "",
          "type": "bool"
        }
      ],
      "stateMutability": "view",
      "type": "function"
    },
    {
      "inputs": [],
      "name": "isQuorumReady",
      "outputs": [
        {
          "internalType": "bool",
          "name": "",
          "type": "bool"
        }
      ],
      "stateMutability": "view",
      "type": "function"
    },
    {
      "inputs": [
        {
          "internalType": "address",
          "name": "",
          "type": "address"
        }
      ],
      "name": "isReadySigner",
      "outputs": [
        {
          "internalType": "bool",
          "name": "",
          "type": "bool"
        }
      ],
      "stateMutability": "view",
      "type": "function"
    },
    {
      "inputs": [],
      "name": "isTimeReady",
      "outputs": [
        {
          "internalType": "bool",
          "name": "",
          "type": "bool"
        }
      ],
      "stateMutability": "view",
      "type": "function"
    },
    {
      "inputs": [],
      "name": "minDAOScore",
      "outputs": [
        {
          "internalType": "uint16",
          "name": "",
          "type": "uint16"
        }
      ],
      "stateMutability": "view",
      "type": "function"
    },
    {
      "inputs": [],
      "name": "minDelay",
      "outputs": [
        {
          "internalType": "uint64",
          "name": "",
          "type": "uint64"
        }
      ],
      "stateMutability": "view",
      "type": "function"
    },
    {
      "inputs": [],
      "name": "multisig",
      "outputs": [
        {
          "internalType": "contract IMultiSigDeveloperControl",
          "name": "",
          "type": "address"
        }
      ],
      "stateMutability": "view",
      "type": "function"
    },
    {
      "inputs": [],
      "name": "owner",
      "outputs": [
        {
          "internalType": "address",
          "name": "",
          "type": "address"
        }
      ],
      "stateMutability": "view",
      "type": "function"
    },
    {
      "inputs": [],
      "name": "pendingOwner",
      "outputs": [
        {
          "internalType": "address",
          "name": "",
          "type": "address"
        }
      ],
      "stateMutability": "view",
      "type": "function"
    },
    {
      "inputs": [],
      "name": "postponedOnce",
      "outputs": [
        {
          "internalType": "bool",
          "name": "",
          "type": "bool"
        }
      ],
      "stateMutability": "view",
      "type": "function"
    },
    {
      "inputs": [],
      "name": "previewEligibility",
      "outputs": [
        {
          "internalType": "bool",
          "name": "timeReady",
          "type": "bool"
        },
        {
          "internalType": "bool",
          "name": "scoreReady",
          "type": "bool"
        },
        {
          "internalType": "bool",
          "name": "quorumReady",
          "type": "bool"
        },
        {
          "internalType": "uint64",
          "name": "eligibleTimestamp",
          "type": "uint64"
        }
      ],
      "stateMutability": "view",
      "type": "function"
    },
    {
      "inputs": [],
      "name": "proof",
      "outputs": [
        {
          "internalType": "contract IProofLedger",
          "name": "",
          "type": "address"
        }
      ],
      "stateMutability": "view",
      "type": "function"
    },
    {
      "inputs": [],
      "name": "readySignals",
      "outputs": [
        {
          "internalType": "uint16",
          "name": "",
          "type": "uint16"
        }
      ],
      "stateMutability": "view",
      "type": "function"
    },
    {
      "inputs": [],
      "name": "readySignerThreshold",
      "outputs": [
        {
          "internalType": "uint16",
          "name": "",
          "type": "uint16"
        }
      ],
      "stateMutability": "view",
      "type": "function"
    },
    {
      "inputs": [
        {
          "internalType": "address",
          "name": "a",
          "type": "address"
        }
      ],
      "name": "removeReadySigner",
      "outputs": [],
      "stateMutability": "nonpayable",
      "type": "function"
    },
    {
      "inputs": [],
      "name": "renounceOwnership",
      "outputs": [],
      "stateMutability": "nonpayable",
      "type": "function"
    },
    {
      "inputs": [],
      "name": "seer",
      "outputs": [
        {
          "internalType": "contract ISeerView",
          "name": "",
          "type": "address"
        }
      ],
      "stateMutability": "view",
      "type": "function"
    },
    {
      "inputs": [
        {
          "internalType": "address",
          "name": "dao_",
          "type": "address"
        }
      ],
      "name": "setDAOExecutor",
      "outputs": [],
      "stateMutability": "nonpayable",
      "type": "function"
    },
    {
      "inputs": [
        {
          "internalType": "address[]",
          "name": "modules",
          "type": "address[]"
        }
      ],
      "name": "setGovernables",
      "outputs": [],
      "stateMutability": "nonpayable",
      "type": "function"
    },
    {
      "inputs": [
        {
          "internalType": "uint64",
          "name": "startTs",
          "type": "uint64"
        }
      ],
      "name": "setHandoverStart",
      "outputs": [],
      "stateMutability": "nonpayable",
      "type": "function"
    },
    {
      "inputs": [
        {
          "internalType": "uint16",
          "name": "score",
          "type": "uint16"
        }
      ],
      "name": "setMinDAOScore",
      "outputs": [],
      "stateMutability": "nonpayable",
      "type": "function"
    },
    {
      "inputs": [
        {
          "internalType": "uint64",
          "name": "seconds_",
          "type": "uint64"
        }
      ],
      "name": "setMinDelay",
      "outputs": [],
      "stateMutability": "nonpayable",
      "type": "function"
    },
    {
      "inputs": [
        {
          "internalType": "address",
          "name": "ms_",
          "type": "address"
        }
      ],
      "name": "setMultisig",
      "outputs": [],
      "stateMutability": "nonpayable",
      "type": "function"
    },
    {
      "inputs": [
        {
          "internalType": "address",
          "name": "proof_",
          "type": "address"
        }
      ],
      "name": "setProofSink",
      "outputs": [],
      "stateMutability": "nonpayable",
      "type": "function"
    },
    {
      "inputs": [
        {
          "internalType": "uint16",
          "name": "t",
          "type": "uint16"
        }
      ],
      "name": "setReadySignerThreshold",
      "outputs": [],
      "stateMutability": "nonpayable",
      "type": "function"
    },
    {
      "inputs": [
        {
          "internalType": "address",
          "name": "seer_",
          "type": "address"
        }
      ],
      "name": "setSeer",
      "outputs": [],
      "stateMutability": "nonpayable",
      "type": "function"
    },
    {
      "inputs": [],
      "name": "signalDAOReady",
      "outputs": [],
      "stateMutability": "nonpayable",
      "type": "function"
    },
    {
      "inputs": [
        {
          "internalType": "address",
          "name": "",
          "type": "address"
        }
      ],
      "name": "signerHasSignaled",
      "outputs": [
        {
          "internalType": "bool",
          "name": "",
          "type": "bool"
        }
      ],
      "stateMutability": "view",
      "type": "function"
    },
    {
      "inputs": [
        {
          "internalType": "address",
          "name": "newOwner",
          "type": "address"
        }
      ],
      "name": "transferOwnership",
      "outputs": [],
      "stateMutability": "nonpayable",
      "type": "function"
    }
  ],
  "bytecode": "0x60803461010057601f611a3c38819003918201601f19168301916001600160401b038311848410176101055780849260209460405283398101031261010057516001600160a01b038116808203610100576100593361011b565b600160025560088054600160401b62ffff0160801b031916720258000000000000ed4e000000000000000000179055156100ef576100969061011b565b600880546001600160401b031916426001600160401b03169081179091556040519081527f547f57d44885a56c3ebb29688312718973a9af4b301f5a9b3d7b14f5278f1e7f90602090a16040516118cb90816101718239f35b63d92e233d60e01b60005260046000fd5b600080fd5b634e487b7160e01b600052604160045260246000fd5b600180546001600160a01b0319908116909155600080546001600160a01b03938416928116831782559192909116907f8be0079c531659141344cd1fd0a4f28419497f9722a3daafe3b4186f6b6457e09080a356fe6080604052600436101561001257600080fd5b6000803560e01c80630be1174d146114d75780630fd16b161461132c57806315e3378f146112ed578063170d2586146112ae578063170eae9214611288578063230edf57146111ef5780632d55ea39146111c6578063314d41cc146110e9578063406194c5146110c05780634162169f146110935780634783c35b1461106a57806348ce238414610fd75780635394f9d314610f3d57806363e8745014610f11578063715018a614610eac57806375710a9214610e1757806379ba509714610d4e57806379cccdef14610d335780637d7b165914610c805780638b68347714610c5e5780638c2040d614610c435780638da5cb5b14610c1c5780638dd1cd1314610bf55780639be01d5a14610afa578063a02a7a5714610ad5578063a372d76114610ab7578063a8b540cf14610a10578063b3f05b97146109eb578063c63c4e9b146109c1578063ccd5bb0c1461099c578063d719eb9f14610942578063d7cd2f001461091d578063dbde10c2146108d9578063e071c1c014610835578063e30c39781461080c578063e7251a4114610510578063e9941dfa1461030f578063f2fde38b146102a2578063f3283fba146102005763faf924cf146101d557600080fd5b346101fd57806003193601126101fd576005546040516001600160a01b039091168152602090f35b80fd5b50346101fd5760203660031901126101fd5761021a6115e8565b81546001600160a01b031633141580610287575b61027857600680546001600160a01b0319166001600160a01b039290921691821790557ff2a068f9de5c16d8cfc486ef064153275cef08f1aee2e6d946ee343cb1471ff88280a280f35b63b577c1f760e01b8252600482fd5b50600b543360289190911c6001600160a01b0316141561022e565b50346101fd5760203660031901126101fd576102bc6115e8565b6102c461183d565b600180546001600160a01b0319166001600160a01b0392831690811790915582549091167f38d16b8cac22d99fc7c124b9cd0de2d3fa1faef420bfe791d8c362d765e227008380a380f35b50346101fd5760203660031901126101fd576004356001600160401b03811161050c573660238201121561050c578060040135906001600160401b038211610508576024810190602436918460051b0101116105085782546001600160a01b0316331415806104ed575b6104de576801000000000000000082116104ca576007548260075580831061046c575b506007835282815b838210610423575050604051918060208401602085525260408301919084905b8082106103f557857f61ac1c0c719671ede3866bd99253d0141d92b7b01e7cfadc7e92903c59b3d65a86860387a180f35b90919283359060018060a01b03821680920361041f576020816001938293520194019201906103c4565b8680fd5b8035916001600160a01b03831683036104685760206001920192817fa66cc928b5edb82af9bd49922954155ab7b0942694bea4ce44661d9a8736c688015501906103a4565b8580fd5b7fa66cc928b5edb82af9bd49922954155ab7b0942694bea4ce44661d9a8736c68801827fa66cc928b5edb82af9bd49922954155ab7b0942694bea4ce44661d9a8736c688015b8181106104bf575061039c565b8481556001016104b2565b634e487b7160e01b83526041600452602483fd5b63b577c1f760e01b8352600483fd5b50600b543360289190911c6001600160a01b03161415610379565b8280fd5b5080fd5b50346101fd57806003193601126101fd5760028054146107c7576002805560ff600b5460201c166107b8576105436117fb565b1580156107a9575b801561079a575b61078b576003546001600160a01b03811691805b6007548110156105f35761057981611603565b905460039190911b1c6001600160a01b03168061059a575b50600101610566565b803b15610508578280916024604051809481936339cea45360e21b83528a60048401525af180156105e8579083916105d3575b50610591565b816105dd9161166a565b61050c5781386105cd565b6040513d85823e3d90fd5b506006549092839290916001600160a01b03168061072e575b50600b8054640100000000600160c81b03191660289290921b65010000000000600160c81b0316919091176401000000001790819055604051426001600160401b0316815282907f7467a715f32543bd5642431f2d9bade07364a3e8a5d974d8b025e838e5885eaf90602090a26106816116a1565b9061ffff604051916001600160401b03602084019486865216604084015260101c166060820152606081526106b760808261166a565b5190206005546001600160a01b03169190826106d7575b83600160025580f35b823b156107295760648492836040519586948593631250d57560e31b855260048501526047602485015260448401525af1610714575b80806106ce565b8161071e9161166a565b6101fd57803861070d565b505050fd5b803b15610729578380916024604051809481936358a7e75960e11b83528860048401525af1908115610780578491610767575b5061060c565b816107719161166a565b61077c578238610761565b5050fd5b6040513d86823e3d90fd5b637c75aa6f60e11b8152600490fd5b506107a361181b565b15610552565b506107b26116bf565b1561054b565b63475a253560e01b8152600490fd5b60405162461bcd60e51b815260206004820152601f60248201527f5265656e7472616e637947756172643a207265656e7472616e742063616c6c006044820152606490fd5b50346101fd57806003193601126101fd576001546040516001600160a01b039091168152602090f35b50346101fd5760203660031901126101fd5761084f6115e8565b81546001600160a01b0316331415806108be575b610278576001600160a01b031680156108af57600480546001600160a01b031916821790557fc33c1a95c902d772578a793cd3d42b7d0a418863633ff3be7853c55a4d95388a8280a280f35b63d92e233d60e01b8252600482fd5b50600b543360289190911c6001600160a01b03161415610863565b50346101fd5760203660031901126101fd57600435906007548210156101fd57602061090483611603565b905460405160039290921b1c6001600160a01b03168152f35b50346101fd57806003193601126101fd57602061ffff60085460881c16604051908152f35b50346101fd57806003193601126101fd57608061095d6117fb565b6001600160401b0361096d6116bf565b61097561181b565b61097d6116a1565b9160405194151585521515602085015215156040840152166060820152f35b50346101fd57806003193601126101fd57602061ffff600b5460101c16604051908152f35b50346101fd57806003193601126101fd5760206001600160401b0360085460401c16604051908152f35b50346101fd57806003193601126101fd57602060ff600b54821c166040519015158152f35b50346101fd5760203660031901126101fd5760043561ffff811680910361050c5781546001600160a01b031633141580610a9c575b610278576103e88111610a8d576020817faf140dce538f6ee9add203be87e8e418ff8c96e17382e12c19a96afc1d38dc0f9261ffff19600b541617600b55604051908152a180f35b63e56d58cf60e01b8252600482fd5b50600b543360289190911c6001600160a01b03161415610a45565b50346101fd57806003193601126101fd576020600754604051908152f35b50346101fd57806003193601126101fd576020610af061181b565b6040519015158152f35b50346101fd57806003193601126101fd57338152600960205260ff60408220541615610bc357338152600a60205260ff604082205416610bb457338152600a60205260408120600160ff19825416179055600b54600161ffff8260101c160161ffff8111610ba05763ffff00009060101b169063ffff0000191617600b55337f84ec99d204a18ed443f318976f821d2fce0b39d29472f90b1bb2cd4644191f718280a280f35b634e487b7160e01b83526011600452602483fd5b6366abe2a360e01b8152600490fd5b60405162461bcd60e51b815260206004820152600a6024820152693737ba1039b4b3b732b960b11b6044820152606490fd5b50346101fd57806003193601126101fd5760206001600160401b0360085416604051908152f35b50346101fd57806003193601126101fd57546040516001600160a01b039091168152602090f35b50346101fd57806003193601126101fd576020610af06117fb565b50346101fd57806003193601126101fd57602061ffff600b5416604051908152f35b50346101fd5760203660031901126101fd576004356001600160401b038116908181036105085782546001600160a01b031633141580610d18575b6104de57600880546fffffffffffffffff00000000000000001916604092831b67ffffffffffffffff60401b16179055519081527f70039cb58b14da5e058a783ba3a019aab48789db2ce1b344dbfcc0c1a95e36a990602090a180f35b50600b543360289190911c6001600160a01b03161415610cbb565b50346101fd57806003193601126101fd576020610af06116bf565b50346101fd57806003193601126101fd57600154336001600160a01b0390911603610dc057600180546001600160a01b0319908116909155815433918116821783556001600160a01b03167f8be0079c531659141344cd1fd0a4f28419497f9722a3daafe3b4186f6b6457e08380a380f35b60405162461bcd60e51b815260206004820152602960248201527f4f776e61626c6532537465703a2063616c6c6572206973206e6f7420746865206044820152683732bb9037bbb732b960b91b6064820152608490fd5b50346101fd5760203660031901126101fd57610e316115e8565b81546001600160a01b031633141580610e91575b610278576001600160a01b031680156108af57600380546001600160a01b031916821790557f16d61a8ae20f45aed7c5f705859e84b0292aabf52ce61496c63db9ab14c228b48280a280f35b50600b543360289190911c6001600160a01b03161415610e45565b50346101fd57806003193601126101fd57610ec561183d565b600180546001600160a01b03199081169091558154908116825581906001600160a01b03167f8be0079c531659141344cd1fd0a4f28419497f9722a3daafe3b4186f6b6457e08280a380f35b50346101fd57806003193601126101fd576020610f2c6116a1565b6001600160401b0360405191168152f35b50346101fd5760203660031901126101fd57610f576115e8565b81546001600160a01b031633141580610fbc575b610278576001600160a01b031680156108af57808252600960205260408220805460ff191660011790557f5800cc3e6fe3671c3313a56a82df85ecc152ce0ae89782eb102ba05c64c75e4e8280a280f35b50600b543360289190911c6001600160a01b03161415610f6b565b50346101fd5760203660031901126101fd57610ff16115e8565b81546001600160a01b03163314158061104f575b61027857600580546001600160a01b0319166001600160a01b039290921691821790557f672081dadde50e814bb62a7286e6c0cad07071fa40747b022649c85346bdbc848280a280f35b50600b543360289190911c6001600160a01b03161415611005565b50346101fd57806003193601126101fd576006546040516001600160a01b039091168152602090f35b50346101fd57806003193601126101fd57600b5460405160289190911c6001600160a01b03168152602090f35b50346101fd57806003193601126101fd576003546040516001600160a01b039091168152602090f35b50346101fd5760203660031901126101fd5760043561ffff8116908181036105085782546001600160a01b0316331415806111ab575b6104de576103e8821161117a576008805461ffff60881b191660889290921b61ffff60881b169190911790556040519081527f08e04ff0243d8a40442127bb7fded1a2f8f7421a57a1e2579141d6256f9f38b690602090a180f35b60405162461bcd60e51b81526020600482015260096024820152680e6c6dee4ca7cdac2f60bb1b6044820152606490fd5b50600b543360289190911c6001600160a01b0316141561111f565b50346101fd57806003193601126101fd576004546040516001600160a01b039091168152602090f35b50346101fd5760203660031901126101fd576004356001600160401b03811680910361050c5781546001600160a01b03163314158061126d575b610278576020817f547f57d44885a56c3ebb29688312718973a9af4b301f5a9b3d7b14f5278f1e7f926001600160401b03196008541617600855604051908152a180f35b50600b543360289190911c6001600160a01b03161415611229565b50346101fd57806003193601126101fd57602060ff60085460801c166040519015158152f35b50346101fd5760203660031901126101fd5760209060ff906040906001600160a01b036112d96115e8565b168152600a84522054166040519015158152f35b50346101fd5760203660031901126101fd5760209060ff906040906001600160a01b036113186115e8565b168152600984522054166040519015158152f35b50346101fd5760203660031901126101fd57600435906001600160401b03821680830361050c5781546001600160a01b0316331415806114bc575b610278576008549260ff8460801c166114ad576001600160401b0361138a6116a1565b16426001600160401b0316101561149e5791928392600160801b919067ffffffffffffffff60401b906113d29060ff60801b198416851760401c6001600160401b0316611634565b60401b169070ffffffffffffffffff0000000000000000191617176008557ffae8c16b608fe3331c56049c2090bc8df414ec2cef21fd1b372deecdc9984e746020604051838152a1604051602081019182526020815261143360408261166a565b5190206005546001600160a01b0316908161144f575b50505080f35b813b1561077c578291606483926040519586938492631250d57560e31b84523360048501526046602485015260448401525af161148e575b9080611449565b6114979161166a565b3881611487565b637c75aa6f60e11b8352600483fd5b635b39f26160e01b8352600483fd5b50600b543360289190911c6001600160a01b03161415611367565b50346101fd5760203660031901126101fd576114f16115e8565b81546001600160a01b0316331415806115cd575b610278576001600160a01b0316808252600960209081526040808420805460ff19169055828452600a90915282205460ff16611563575b7f17be303a60ec7893ebf179fc79d906b9d6a8df5ccbfb779a70e635f7ce2089248280a280f35b808252600a6020526040822060ff198154169055600b5461ffff8160101c168061158f575b505061153c565b6000190161ffff81116115b95763ffff00009060101b169063ffff0000191617600b553880611588565b634e487b7160e01b84526011600452602484fd5b50600b543360289190911c6001600160a01b03161415611505565b600435906001600160a01b03821682036115fe57565b600080fd5b60075481101561161e57600760005260206000200190600090565b634e487b7160e01b600052603260045260246000fd5b906001600160401b03809116911601906001600160401b03821161165457565b634e487b7160e01b600052601160045260246000fd5b90601f801991011681019081106001600160401b0382111761168b57604052565b634e487b7160e01b600052604160045260246000fd5b6116bc6008546001600160401b03808260401c169116611634565b90565b6004546001600160a01b0316801580156117e8575b6117e25760035460405163fbac395160e01b81526001600160a01b039091166004820181905290602081602481865afa908115611794576000916117a7575b506117a05760209060246040518094819363776f384360e01b835260048301525afa90811561179457600091611757575b5061ffff8060085460881c169116101590565b6020813d60201161178c575b816117706020938361166a565b8101031261050c57519061ffff821682036101fd575038611744565b3d9150611763565b6040513d6000823e3d90fd5b5050600090565b6020813d6020116117da575b816117c06020938361166a565b8101031261050c57519081151582036101fd575038611713565b3d91506117b3565b50600090565b506003546001600160a01b0316156116d4565b6001600160401b0361180b6116a1565b166001600160401b034216101590565b600b5461ffff81169081156118365760101c61ffff16101590565b5050600190565b6000546001600160a01b0316330361185157565b606460405162461bcd60e51b815260206004820152602060248201527f4f776e61626c653a2063616c6c6572206973206e6f7420746865206f776e65726044820152fdfea2646970667358221220a7377075dd3b65ed077699b09cb3a1108e45e98bd57b1a148bc4cfd4c310c36b64736f6c634300081e0033",
  "linkReferences": {},
  "deployedLinkReferences": {}
}