{"abi":[{"type":"constructor","inputs":[{"name":"_vfide","type":"address","internalType":"address"},{"name":"_seer","type":"address","internalType":"address"},{"name":"_disputeResolver","type":"address","internalType":"address"},{"name":"_dao","type":"address","internalType":"address"}],"stateMutability":"nonpayable"},{"type":"function","name":"CLAIM_COOLDOWN","inputs":[],"outputs":[{"name":"","type":"uint256","internalType":"uint256"}],"stateMutability":"view"},{"type":"function","name":"MAX_CLAIM_RATIO","inputs":[],"outputs":[{"name":"","type":"uint256","internalType":"uint256"}],"stateMutability":"view"},{"type":"function","name":"MAX_COVERAGE_RATIO","inputs":[],"outputs":[{"name":"","type":"uint256","internalType":"uint256"}],"stateMutability":"view"},{"type":"function","name":"MIN_SCORE_FOR_INSURANCE","inputs":[],"outputs":[{"name":"","type":"uint256","internalType":"uint256"}],"stateMutability":"view"},{"type":"function","name":"PREMIUM_RATE_BP","inputs":[],"outputs":[{"name":"","type":"uint256","internalType":"uint256"}],"stateMutability":"view"},{"type":"function","name":"UNSTAKE_DELAY","inputs":[],"outputs":[{"name":"","type":"uint256","internalType":"uint256"}],"stateMutability":"view"},{"type":"function","name":"approveClaim","inputs":[{"name":"claimId","type":"uint256","internalType":"uint256"}],"outputs":[],"stateMutability":"nonpayable"},{"type":"function","name":"blacklisted","inputs":[{"name":"","type":"address","internalType":"address"}],"outputs":[{"name":"","type":"bool","internalType":"bool"}],"stateMutability":"view"},{"type":"function","name":"calculatePremium","inputs":[{"name":"user","type":"address","internalType":"address"},{"name":"coverageAmount","type":"uint256","internalType":"uint256"},{"name":"durationMonths","type":"uint256","internalType":"uint256"}],"outputs":[{"name":"premium","type":"uint256","internalType":"uint256"},{"name":"eligible","type":"bool","internalType":"bool"}],"stateMutability":"view"},{"type":"function","name":"cancelInsurance","inputs":[],"outputs":[],"stateMutability":"nonpayable"},{"type":"function","name":"claimNonce","inputs":[],"outputs":[{"name":"","type":"uint256","internalType":"uint256"}],"stateMutability":"view"},{"type":"function","name":"claimPremiums","inputs":[],"outputs":[],"stateMutability":"nonpayable"},{"type":"function","name":"claims","inputs":[{"name":"","type":"uint256","internalType":"uint256"}],"outputs":[{"name":"claimant","type":"address","internalType":"address"},{"name":"amount","type":"uint256","internalType":"uint256"},{"name":"createdAt","type":"uint256","internalType":"uint256"},{"name":"approved","type":"bool","internalType":"bool"},{"name":"rejected","type":"bool","internalType":"bool"},{"name":"disputeId","type":"bytes32","internalType":"bytes32"}],"stateMutability":"view"},{"type":"function","name":"completeUnstake","inputs":[],"outputs":[],"stateMutability":"nonpayable"},{"type":"function","name":"dao","inputs":[],"outputs":[{"name":"","type":"address","internalType":"address"}],"stateMutability":"view"},{"type":"function","name":"disputeResolver","inputs":[],"outputs":[{"name":"","type":"address","internalType":"address"}],"stateMutability":"view"},{"type":"function","name":"emergencyWithdraw","inputs":[{"name":"to","type":"address","internalType":"address"}],"outputs":[],"stateMutability":"nonpayable"},{"type":"function","name":"fileClaim","inputs":[{"name":"amount","type":"uint256","internalType":"uint256"},{"name":"disputeId","type":"bytes32","internalType":"bytes32"}],"outputs":[],"stateMutability":"nonpayable"},{"type":"function","name":"getInsured","inputs":[{"name":"coverageAmount","type":"uint256","internalType":"uint256"},{"name":"durationMonths","type":"uint256","internalType":"uint256"}],"outputs":[],"stateMutability":"nonpayable"},{"type":"function","name":"getInsuredInfo","inputs":[{"name":"addr","type":"address","internalType":"address"}],"outputs":[{"name":"isInsured","type":"bool","internalType":"bool"},{"name":"coverageAmount","type":"uint256","internalType":"uint256"},{"name":"premiumPaidUntil","type":"uint256","internalType":"uint256"},{"name":"totalClaimsPaid","type":"uint256","internalType":"uint256"},{"name":"isEligibleForClaim","type":"bool","internalType":"bool"}],"stateMutability":"view"},{"type":"function","name":"getInsurerInfo","inputs":[{"name":"addr","type":"address","internalType":"address"}],"outputs":[{"name":"stakedAmount","type":"uint256","internalType":"uint256"},{"name":"accumulatedPremiums","type":"uint256","internalType":"uint256"},{"name":"pendingUnstake","type":"uint256","internalType":"uint256"},{"name":"canUnstakeAt","type":"uint256","internalType":"uint256"}],"stateMutability":"view"},{"type":"function","name":"getPoolStats","inputs":[],"outputs":[{"name":"_totalStaked","type":"uint256","internalType":"uint256"},{"name":"_totalCoverage","type":"uint256","internalType":"uint256"},{"name":"_utilizationRatio","type":"uint256","internalType":"uint256"},{"name":"_insurerCount","type":"uint256","internalType":"uint256"},{"name":"_premiumsCollected","type":"uint256","internalType":"uint256"}],"stateMutability":"view"},{"type":"function","name":"insuredUsers","inputs":[{"name":"","type":"address","internalType":"address"}],"outputs":[{"name":"isInsured","type":"bool","internalType":"bool"},{"name":"coverageAmount","type":"uint256","internalType":"uint256"},{"name":"premiumPaidUntil","type":"uint256","internalType":"uint256"},{"name":"lastClaimAt","type":"uint256","internalType":"uint256"},{"name":"totalClaimsPaid","type":"uint256","internalType":"uint256"}],"stateMutability":"view"},{"type":"function","name":"insurerList","inputs":[{"name":"","type":"uint256","internalType":"uint256"}],"outputs":[{"name":"","type":"address","internalType":"address"}],"stateMutability":"view"},{"type":"function","name":"insurers","inputs":[{"name":"","type":"address","internalType":"address"}],"outputs":[{"name":"stakedAmount","type":"uint256","internalType":"uint256"},{"name":"stakingTimestamp","type":"uint256","internalType":"uint256"},{"name":"accumulatedPremiums","type":"uint256","internalType":"uint256"},{"name":"lastClaimTimestamp","type":"uint256","internalType":"uint256"},{"name":"pendingUnstake","type":"uint256","internalType":"uint256"},{"name":"unstakeRequestTime","type":"uint256","internalType":"uint256"}],"stateMutability":"view"},{"type":"function","name":"rejectClaim","inputs":[{"name":"claimId","type":"uint256","internalType":"uint256"}],"outputs":[],"stateMutability":"nonpayable"},{"type":"function","name":"removeFromBlacklist","inputs":[{"name":"user","type":"address","internalType":"address"}],"outputs":[],"stateMutability":"nonpayable"},{"type":"function","name":"requestUnstake","inputs":[{"name":"amount","type":"uint256","internalType":"uint256"}],"outputs":[],"stateMutability":"nonpayable"},{"type":"function","name":"seer","inputs":[],"outputs":[{"name":"","type":"address","internalType":"contract ISeerScore"}],"stateMutability":"view"},{"type":"function","name":"setDisputeResolver","inputs":[{"name":"_resolver","type":"address","internalType":"address"}],"outputs":[],"stateMutability":"nonpayable"},{"type":"function","name":"stake","inputs":[{"name":"amount","type":"uint256","internalType":"uint256"}],"outputs":[],"stateMutability":"nonpayable"},{"type":"function","name":"totalCoverage","inputs":[],"outputs":[{"name":"","type":"uint256","internalType":"uint256"}],"stateMutability":"view"},{"type":"function","name":"totalPremiumsCollected","inputs":[],"outputs":[{"name":"","type":"uint256","internalType":"uint256"}],"stateMutability":"view"},{"type":"function","name":"totalStaked","inputs":[],"outputs":[{"name":"","type":"uint256","internalType":"uint256"}],"stateMutability":"view"},{"type":"function","name":"vfide","inputs":[],"outputs":[{"name":"","type":"address","internalType":"contract IERC20Minimal"}],"stateMutability":"view"},{"type":"event","name":"ClaimApproved","inputs":[{"name":"claimId","type":"uint256","indexed":true,"internalType":"uint256"},{"name":"paidAmount","type":"uint256","indexed":false,"internalType":"uint256"}],"anonymous":false},{"type":"event","name":"ClaimFiled","inputs":[{"name":"claimId","type":"uint256","indexed":true,"internalType":"uint256"},{"name":"claimant","type":"address","indexed":true,"internalType":"address"},{"name":"amount","type":"uint256","indexed":false,"internalType":"uint256"}],"anonymous":false},{"type":"event","name":"ClaimRejected","inputs":[{"name":"claimId","type":"uint256","indexed":true,"internalType":"uint256"}],"anonymous":false},{"type":"event","name":"CoverageActivated","inputs":[{"name":"user","type":"address","indexed":true,"internalType":"address"},{"name":"coverageAmount","type":"uint256","indexed":false,"internalType":"uint256"},{"name":"premiumPaid","type":"uint256","indexed":false,"internalType":"uint256"}],"anonymous":false},{"type":"event","name":"CoverageCancelled","inputs":[{"name":"user","type":"address","indexed":true,"internalType":"address"}],"anonymous":false},{"type":"event","name":"PremiumsDistributed","inputs":[{"name":"totalAmount","type":"uint256","indexed":false,"internalType":"uint256"},{"name":"insurerCount","type":"uint256","indexed":false,"internalType":"uint256"}],"anonymous":false},{"type":"event","name":"Staked","inputs":[{"name":"insurer","type":"address","indexed":true,"internalType":"address"},{"name":"amount","type":"uint256","indexed":false,"internalType":"uint256"},{"name":"totalStaked","type":"uint256","indexed":false,"internalType":"uint256"}],"anonymous":false},{"type":"event","name":"UnstakeRequested","inputs":[{"name":"insurer","type":"address","indexed":true,"internalType":"address"},{"name":"amount","type":"uint256","indexed":false,"internalType":"uint256"}],"anonymous":false},{"type":"event","name":"Unstaked","inputs":[{"name":"insurer","type":"address","indexed":true,"internalType":"address"},{"name":"amount","type":"uint256","indexed":false,"internalType":"uint256"}],"anonymous":false},{"type":"event","name":"UserBlacklisted","inputs":[{"name":"user","type":"address","indexed":true,"internalType":"address"},{"name":"reason","type":"string","indexed":false,"internalType":"string"}],"anonymous":false},{"type":"error","name":"CIP_AlreadyInsured","inputs":[]},{"type":"error","name":"CIP_BlacklistedUser","inputs":[]},{"type":"error","name":"CIP_ClaimNotEligible","inputs":[]},{"type":"error","name":"CIP_CooldownActive","inputs":[]},{"type":"error","name":"CIP_InvalidAmount","inputs":[]},{"type":"error","name":"CIP_NotInsurable","inputs":[]},{"type":"error","name":"CIP_NotInsured","inputs":[]},{"type":"error","name":"CIP_PoolInsolvent","inputs":[]},{"type":"error","name":"CIP_Unauthorized","inputs":[]}],"bytecode":{"object":"0x6080346100e157601f611af338819003918201601f19168301916001600160401b03831184841017610109578084926080946040528339810103126100e1576100478161011d565b906100546020820161011d565b61006c60606100656040850161011d565b930161011d565b926001600160a01b0316801515806100f7575b806100e5575b156100e1575f80546001600160a01b03199081169290921790556001805482166001600160a01b03938416179055600380548216938316939093179092556002805490921692169190911790556040516119c190816101328239f35b5f80fd5b506001600160a01b0384161515610085565b506001600160a01b038216151561007f565b634e487b7160e01b5f52604160045260245ffd5b51906001600160a01b03821682036100e15756fe6080806040526004361015610012575f80fd5b5f3560e01c90816303cda19b1461148e57508063074a29bb14611455578063171f7ae41461139c578063203411011461125a57806323095721146111e95780632d55ea39146111c157806331dc4ae614610ec957806337c909ec14610eac57806339908e6c14610e915780633a0132c714610e155780633dadde2014610df85780634162169f14610dd057806346e3013514610bab578063537df3b614610b6057806363803b23146109765780636ff1c9bc1461082f578063701513f31461081457806372c8ae3b146107ed57806378ffb292146107ab578063817b1cd21461078e5780638267098614610773578063919c2f3c14610757578063924e63f6146106fb578063a0e6d84a14610680578063a5212d9a14610663578063a694fc3a146104dd578063a888c2cd1461046d578063bbb85188146103db578063d51942e2146103be578063dbac26e914610381578063de45aeef14610312578063e35e5d84146102f5578063f426a0ff14610232578063f5a3f4af1461020a5763fa1d01a41461019d575f80fd5b34610206576020366003190112610206576001600160a01b036101be6115f1565b165f52600960205260a060405f2060ff815416906001810154906002810154600460038301549201549260405194151585526020850152604084015260608301526080820152f35b5f80fd5b34610206575f366003190112610206576003546040516001600160a01b039091168152602090f35b34610206575f36600319011261020657335f526008602052600260405f2001805480156102e6575f91829055815460405163a9059cbb60e01b81523360048201526024810192909252909160209183916044918391906001600160a01b03165af180156102db576102aa915f916102ac575b50611809565b005b6102ce915060203d6020116102d4575b6102c68183611640565b8101906117e4565b826102a4565b503d6102bc565b6040513d5f823e3d90fd5b63fdad75cb60e01b5f5260045ffd5b34610206575f36600319011261020657602060405162093a808152f35b34610206576020366003190112610206576001600160a01b036103336115f1565b165f52600860205260c060405f2080549060018101549060028101546003820154906005600484015493015493604051958652602086015260408501526060840152608083015260a0820152f35b34610206576020366003190112610206576001600160a01b036103a26115f1565b165f52600b602052602060ff60405f2054166040519015158152f35b34610206575f366003190112610206576020600554604051908152f35b34610206575f366003190112610206576004546005548115919082610463576127108102818104612710148215171561044f576005830293838504600514171561044f5760a09361042b91611675565b600c5490600654926040519485526020850152604084015260608301526080820152f35b634e487b7160e01b5f52601160045260245ffd5b60a092505f61042b565b34610206576020366003190112610206576004355f52600a60205260c060405f2060018060a01b038154169060ff60018201549160028101546004600383015492015493604051958652602086015260408501528181161515606085015260081c161515608083015260a0820152f35b3461020657602036600319011261020657600435335f52600b60205260ff60405f2054166106545780156102e657335f52600860205260405f208054156105e8575b61052a828254611633565b815560014291015561053e81600454611633565b60049081555f80546040516323b872dd60e01b8152339381019390935230602484015260448301849052602091839160649183916001600160a01b03165af180156102db57610593915f916105c95750611809565b60045460405191825260208201527f1449c6dd7851abc30abf37f57715f492010519147cc2652fbc38202c18a6ee9060403392a2005b6105e2915060203d6020116102d4576102c68183611640565b836102a4565b600c54335f52600d6020528060405f2055680100000000000000008110156106405761061d81600161063b9301600c55611607565b81546001600160a01b0360039290921b91821b19163390911b179055565b61051f565b634e487b7160e01b5f52604160045260245ffd5b63296ff27960e01b5f5260045ffd5b34610206575f366003190112610206576020600754604051908152f35b34610206576020366003190112610206576001600160a01b036106a16115f1565b165f9081526008602052604090208054600282015460048301549283156106f057600501549262093a80840180941161044f57608093915b604051938452602084015260408301526060820152f35b506080925f916106d9565b34610206576020366003190112610206576107146115f1565b6002546001600160a01b0316330361074857600380546001600160a01b0319166001600160a01b0392909216919091179055005b633edea98d60e21b5f5260045ffd5b34610206575f3660031901126102065760206040516117708152f35b34610206575f36600319011261020657602060405160058152f35b34610206575f366003190112610206576020600454604051908152f35b3461020657602036600319011261020657600435600c54811015610206576107d4602091611607565b905460405160039290921b1c6001600160a01b03168152f35b34610206575f366003190112610206575f546040516001600160a01b039091168152602090f35b34610206575f36600319011261020657602060405160648152f35b34610206576020366003190112610206576108486115f1565b6002546001600160a01b031633036107485760045461093b575f546040516370a0823160e01b81523060048201526001600160a01b039091169190602081602481865afa9081156102db575f91610909575b50806108a257005b60405163a9059cbb60e01b81526001600160a01b03929092166004830152602482015290602090829060449082905f905af19081156102db575f916108ea575b501561020657005b610903915060203d6020116102d4576102c68183611640565b816108e2565b90506020813d602011610933575b8161092460209383611640565b8101031261020657518361089a565b3d9150610917565b60405162461bcd60e51b81526020600482015260136024820152724349503a20706f6f6c206e6f7420656d70747960681b6044820152606490fd5b34610206575f36600319011261020657335f52600860205260405f20600481019081549182156102e657600582015462093a80810180911161044f574210610b51576109c4836004546117fc565b600580540411610b42575f906109db8484546117fc565b8355556109ea826004546117fc565b6004555415610a6c575b5f805460405163a9059cbb60e01b8152336004820152602481018490529160209183916044918391906001600160a01b03165af180156102db57610a3e915f916105c95750611809565b6040519081527f0f5bb82176feb1b5e747e28471aa92156a04d9f3ab9f45f28e2d704232b93f7560203392a2005b335f52600d60205260405f2054600c545f19810190811161044f57808203610ae3575b5050600c548015610acf575f1901610aa681611607565b81549060018060a01b039060031b1b19169055600c55335f52600d6020525f60408120556109f4565b634e487b7160e01b5f52603160045260245ffd5b610aec90611607565b905460039190911b1c6001600160a01b0316610b2f81610b0b84611607565b81546001600160a01b0393841660039290921b91821b9390911b1916919091179055565b5f52600d60205260405f20558180610a8f565b63937fd5b360e01b5f5260045ffd5b638a47251d60e01b5f5260045ffd5b3461020657602036600319011261020657610b796115f1565b6002546001600160a01b03163303610748576001600160a01b03165f908152600b60205260409020805460ff19169055005b3461020657602036600319011261020657600354600435906001600160a01b03163303610748575f818152600a6020526040902080546001600160a01b031680158015610dc2575b8015610db1575b610da2575f52600960205260405f2060045460508102908082046050149015171561044f57610cda9160646020920460018501548181115f14610d9857509384915b60038201600160ff1982541617905542600382015560048101610c60848254611633565b90556001810190838254808210155f14610d78575050905f9160ff198154169055610c8e81546005546117fc565b600555555b610c9c826118fb565b5f8054915460405163a9059cbb60e01b81526001600160a01b0391821660048201526024810194909452929485939092169183919082906044820190565b03925af19081156102db575f91610d59575b5015610d1f5760207f638d892b8630b775fea5d7a52b209e8bfa1d90c32b57cd37208ac84d4bcd6dcb91604051908152a2005b60405162461bcd60e51b815260206004820152601260248201527110d2540e881c185e5bdd5d0819985a5b195960721b6044820152606490fd5b610d72915060203d6020116102d4576102c68183611640565b83610cec565b610d8292506117fc565b9055610d90826005546117fc565b600555610c93565b9050938491610c3c565b631b3d5ee760e01b5f5260045ffd5b5060ff600383015460081c16610bfa565b5060ff600383015416610bf3565b34610206575f366003190112610206576002546040516001600160a01b039091168152602090f35b34610206575f366003190112610206576020600654604051908152f35b34610206575f36600319011261020657335f52600960205260405f2060ff81541615610e82578060015f920190610e4f82546005546117fc565b600555805460ff1916905555337f323f726ae2398897edaf524c0bbb5d888c8501785c898787b8bfcaf2157c1e005f80a2005b63f259d23760e01b5f5260045ffd5b34610206575f36600319011261020657602060405160508152f35b34610206575f36600319011261020657602060405162278d008152f35b3461020657604036600319011261020657600435602435335f52600b60205260ff60405f205416610654578115908180156111b9575b80156111af575b6102e657600154604051630d47875d60e41b81523360048201529190602090839060249082906001600160a01b03165afa9182156102db575f9261117b575b50611770821061116c57610f5b84600554611633565b6004549060058202918083046005149015171561044f5711610b4257335f52600960205260405f209182549360ff85168061115f575b611150576064860290868204606414171561044f57610fb683612710600c9304611662565b0490612328811061111c575060468102908082046046149015171561044f57606460019104935b60ff191617825583600183015562278d0081029080820462278d00149015171561044f5761100d60029142611633565b91015561101c82600554611633565b60055561102b81600654611633565b6006555f80546040516323b872dd60e01b8152336004820152306024820152604481018490529160209183916064918391906001600160a01b03165af19081156102db575f916110fd575b50156110b8576110858161184c565b60405191825260208201527f1ef949d62f0a54531b21dbd5716ef1823d6fbcaab5a98812cb937a21e246c26960403392a2005b60405162461bcd60e51b815260206004820152601c60248201527f4349503a207072656d69756d207472616e73666572206661696c6564000000006044820152606490fd5b611116915060203d6020116102d4576102c68183611640565b83611076565b611f40909491941015611132575b600190610fdd565b9260558102908082046055149015171561044f57606490049261112a565b633442d5f360e01b5f5260045ffd5b5060028401544210610f91565b631ff9ee3960e31b5f5260045ffd5b9091506020813d6020116111a7575b8161119760209383611640565b8101031261020657519084610f45565b3d915061118a565b50600c8111610f06565b508015610eff565b34610206575f366003190112610206576001546040516001600160a01b039091168152602090f35b3461020657602036600319011261020657600435335f52600860205260405f2081158015611250575b6102e6578160048201556005429101556040519081527f828764c21e74c28710e19919735825aba966621c95cbd913f8ed65a2d298f48c60203392a2005b5080548211611212565b3461020657602036600319011261020657600354600435906001600160a01b03163303610748575f818152600a6020526040902080546001600160a01b03168015801561138e575b801561137d575b610da2578160609160037fcc1cf21b75158e751a071cc4770b92cde8bb2bc34f9187eedd0592b874a55669940161010061ff00198254161790555f52600b60205260405f20600160ff1982541617905560018060a01b038154165f52600960205260405f2060ff198154169055604051937f2aa44a1bb19392ef6a2fd220d2b1649a6dc1bebbfa2a6f2c496e2d39a3339d0e5f80a2546020808552601a908501527f4672617564756c656e7420696e737572616e636520636c61696d00000000000060408501526001600160a01b031692a2005b5060ff600383015460081c166112a9565b5060ff6003830154166112a2565b34610206576020366003190112610206576001600160a01b036113bd6115f1565b165f52600960205260405f2060ff81541680611447575b8060018301549260028101549360048201549183611412575b509360a094604051941515855260208501526040840152606083015215156080820152f35b60039193500154938415801561142e575b9094509160a06113ed565b5062278d00850180951161044f5760a094421015611423565b5060028101544211156113d4565b346102065760603660031901126102065760406114806114736115f1565b6044359060243590611693565b825191825215156020820152f35b346102065760403660031901126102065760043590335f52600960205260405f2060ff8154161580156115e4575b610e8257600181015483116102e6576003015480151590816115cd575b50610b5157600754905f19821461044f576001820160075560c0810181811067ffffffffffffffff821117610640576040523381526004602082018481526040830142815260608401905f825260808501905f825260a08601936024358552875f52600a60205260405f209660018060a01b039051166bffffffffffffffffffffffff60a01b885416178755516001870155516002860155600385019151151560ff8019845416911617825551151561ff0082549160081b169061ff001916179055519101556040519182527f4da691d72ff2d837d51477b0b23e1fcde537dc9bf3181e20249086f024b348bd60203393a3005b905062278d00810180911161044f574210836114d9565b50600281015442116114bc565b600435906001600160a01b038216820361020657565b600c5481101561161f57600c5f5260205f2001905f90565b634e487b7160e01b5f52603260045260245ffd5b9190820180921161044f57565b90601f8019910116810190811067ffffffffffffffff82111761064057604052565b8181029291811591840414171561044f57565b811561167f570490565b634e487b7160e01b5f52601260045260245ffd5b600154604051630d47875d60e41b81526001600160a01b039283166004820181905293959490939092909160209185916024918391165afa9283156102db575f936117b0575b506117708310908115611799575b5061178f57606484028481046064148515171561044f57600c9161271061170e9204611662565b0490612328811061175a575060468102908082046046149015171561044f57606461173e9104925b600554611633565b6004549060058202918083046005149015171561044f57111590565b611f40909391931015611771575b61173e90611736565b9160558102908082046055149015171561044f576064900491611768565b505090505f905f90565b90505f52600b60205260ff60405f2054165f6116e7565b9092506020813d6020116117dc575b816117cc60209383611640565b810103126102065751915f6116d9565b3d91506117bf565b90816020910312610206575180151581036102065790565b9190820391821161044f57565b1561181057565b60405162461bcd60e51b815260206004820152601460248201527310d2540e881d1c985b9cd9995c8819985a5b195960621b6044820152606490fd5b600454156118f8575f5b600c548110156118c3578061186c600192611607565b838060a01b0391549060031b1c165f52600860205260405f20805480611895575b505001611856565b60026118b06118a76118ba9388611662565b60045490611675565b9201918254611633565b90555f8061188d565b5060407f348bf65553e8e2b0ad4a44c7952f7db07c57bfb13b7fa4f5101a078d22e02fcc91600c5482519182526020820152a1565b50565b600454156118f8575f5b600c54811015611979578061191b600192611607565b838060a01b0391549060031b1c165f52600860205260405f20805480611944575b505001611905565b806119556118a76119629388611662565b90808211611971576117fc565b81556003429101555f8061193c565b9050806117fc565b50611986906004546117fc565b60045556fea2646970667358221220b577b1d52ede77fbb105024feb02ac3bac6bb75fdacb05f4174265677084314764736f6c634300081e0033","linkReferences":{}},"methodIdentifiers":{"CLAIM_COOLDOWN()":"37c909ec","MAX_CLAIM_RATIO()":"39908e6c","MAX_COVERAGE_RATIO()":"82670986","MIN_SCORE_FOR_INSURANCE()":"919c2f3c","PREMIUM_RATE_BP()":"701513f3","UNSTAKE_DELAY()":"e35e5d84","approveClaim(uint256)":"46e30135","blacklisted(address)":"dbac26e9","calculatePremium(address,uint256,uint256)":"074a29bb","cancelInsurance()":"3a0132c7","claimNonce()":"a5212d9a","claimPremiums()":"f426a0ff","claims(uint256)":"a888c2cd","completeUnstake()":"63803b23","dao()":"4162169f","disputeResolver()":"f5a3f4af","emergencyWithdraw(address)":"6ff1c9bc","fileClaim(uint256,bytes32)":"03cda19b","getInsured(uint256,uint256)":"31dc4ae6","getInsuredInfo(address)":"171f7ae4","getInsurerInfo(address)":"a0e6d84a","getPoolStats()":"bbb85188","insuredUsers(address)":"fa1d01a4","insurerList(uint256)":"78ffb292","insurers(address)":"de45aeef","rejectClaim(uint256)":"20341101","removeFromBlacklist(address)":"537df3b6","requestUnstake(uint256)":"23095721","seer()":"2d55ea39","setDisputeResolver(address)":"924e63f6","stake(uint256)":"a694fc3a","totalCoverage()":"d51942e2","totalPremiumsCollected()":"3dadde20","totalStaked()":"817b1cd2","vfide()":"72c8ae3b"},"id":1}