{
  "_format": "hh-sol-artifact-1",
  "contractName": "Seer",
  "sourceName": "contracts/VFIDETrust.sol",
  "abi": [
    {
      "inputs": [
        {
          "internalType": "address",
          "name": "_dao",
          "type": "address"
        },
        {
          "internalType": "address",
          "name": "_ledger",
          "type": "address"
        },
        {
          "internalType": "address",
          "name": "_hub",
          "type": "address"
        }
      ],
      "stateMutability": "nonpayable",
      "type": "constructor"
    },
    {
      "inputs": [],
      "name": "TRUST_Bounds",
      "type": "error"
    },
    {
      "inputs": [],
      "name": "TRUST_EndorseExists",
      "type": "error"
    },
    {
      "inputs": [],
      "name": "TRUST_EndorseLimit",
      "type": "error"
    },
    {
      "inputs": [],
      "name": "TRUST_InvalidEndorse",
      "type": "error"
    },
    {
      "inputs": [],
      "name": "TRUST_NotDAO",
      "type": "error"
    },
    {
      "inputs": [],
      "name": "TRUST_NotOperator",
      "type": "error"
    },
    {
      "inputs": [],
      "name": "TRUST_Paused",
      "type": "error"
    },
    {
      "inputs": [],
      "name": "TRUST_Zero",
      "type": "error"
    },
    {
      "anonymous": false,
      "inputs": [
        {
          "indexed": true,
          "internalType": "address",
          "name": "subject",
          "type": "address"
        },
        {
          "indexed": false,
          "internalType": "string",
          "name": "reason",
          "type": "string"
        }
      ],
      "name": "AppealFiled",
      "type": "event"
    },
    {
      "anonymous": false,
      "inputs": [
        {
          "indexed": true,
          "internalType": "address",
          "name": "subject",
          "type": "address"
        },
        {
          "indexed": false,
          "internalType": "bool",
          "name": "approved",
          "type": "bool"
        },
        {
          "indexed": false,
          "internalType": "string",
          "name": "resolution",
          "type": "string"
        }
      ],
      "name": "AppealResolved",
      "type": "event"
    },
    {
      "anonymous": false,
      "inputs": [
        {
          "indexed": true,
          "internalType": "address",
          "name": "oldDAO",
          "type": "address"
        },
        {
          "indexed": true,
          "internalType": "address",
          "name": "newDAO",
          "type": "address"
        }
      ],
      "name": "DAOSet",
      "type": "event"
    },
    {
      "anonymous": false,
      "inputs": [
        {
          "indexed": true,
          "internalType": "address",
          "name": "subject",
          "type": "address"
        },
        {
          "indexed": false,
          "internalType": "uint16",
          "name": "oldScore",
          "type": "uint16"
        },
        {
          "indexed": false,
          "internalType": "uint16",
          "name": "newScore",
          "type": "uint16"
        },
        {
          "indexed": false,
          "internalType": "uint256",
          "name": "inactiveDays",
          "type": "uint256"
        }
      ],
      "name": "DecayApplied",
      "type": "event"
    },
    {
      "anonymous": false,
      "inputs": [
        {
          "indexed": false,
          "internalType": "uint8",
          "name": "daoWeight",
          "type": "uint8"
        },
        {
          "indexed": false,
          "internalType": "uint8",
          "name": "onChainWeight",
          "type": "uint8"
        }
      ],
      "name": "DecentralizationUpdated",
      "type": "event"
    },
    {
      "anonymous": false,
      "inputs": [
        {
          "indexed": false,
          "internalType": "address",
          "name": "vaultHub",
          "type": "address"
        }
      ],
      "name": "HubSet",
      "type": "event"
    },
    {
      "anonymous": false,
      "inputs": [
        {
          "indexed": false,
          "internalType": "address",
          "name": "ledger",
          "type": "address"
        }
      ],
      "name": "LedgerSet",
      "type": "event"
    },
    {
      "anonymous": false,
      "inputs": [
        {
          "indexed": true,
          "internalType": "address",
          "name": "mentor",
          "type": "address"
        },
        {
          "indexed": true,
          "internalType": "address",
          "name": "mentee",
          "type": "address"
        }
      ],
      "name": "MenteeRemoved",
      "type": "event"
    },
    {
      "anonymous": false,
      "inputs": [
        {
          "indexed": true,
          "internalType": "address",
          "name": "mentor",
          "type": "address"
        },
        {
          "indexed": true,
          "internalType": "address",
          "name": "mentee",
          "type": "address"
        }
      ],
      "name": "MenteeSponsored",
      "type": "event"
    },
    {
      "anonymous": false,
      "inputs": [
        {
          "indexed": false,
          "internalType": "uint16",
          "name": "minScore",
          "type": "uint16"
        },
        {
          "indexed": false,
          "internalType": "uint16",
          "name": "maxMentees",
          "type": "uint16"
        }
      ],
      "name": "MentorConfigUpdated",
      "type": "event"
    },
    {
      "anonymous": false,
      "inputs": [
        {
          "indexed": true,
          "internalType": "address",
          "name": "mentor",
          "type": "address"
        }
      ],
      "name": "MentorRegistered",
      "type": "event"
    },
    {
      "anonymous": false,
      "inputs": [
        {
          "indexed": true,
          "internalType": "address",
          "name": "mentor",
          "type": "address"
        }
      ],
      "name": "MentorRevoked",
      "type": "event"
    },
    {
      "anonymous": false,
      "inputs": [
        {
          "indexed": true,
          "internalType": "address",
          "name": "operator",
          "type": "address"
        },
        {
          "indexed": false,
          "internalType": "bool",
          "name": "authorized",
          "type": "bool"
        }
      ],
      "name": "OperatorSet",
      "type": "event"
    },
    {
      "anonymous": false,
      "inputs": [
        {
          "indexed": false,
          "internalType": "bool",
          "name": "isPaused",
          "type": "bool"
        }
      ],
      "name": "Paused",
      "type": "event"
    },
    {
      "anonymous": false,
      "inputs": [
        {
          "indexed": true,
          "internalType": "address",
          "name": "subject",
          "type": "address"
        },
        {
          "indexed": false,
          "internalType": "string",
          "name": "reason",
          "type": "string"
        }
      ],
      "name": "ScoreDisputeRequested",
      "type": "event"
    },
    {
      "anonymous": false,
      "inputs": [
        {
          "indexed": true,
          "internalType": "address",
          "name": "subject",
          "type": "address"
        },
        {
          "indexed": false,
          "internalType": "bool",
          "name": "approved",
          "type": "bool"
        },
        {
          "indexed": false,
          "internalType": "int256",
          "name": "adjustment",
          "type": "int256"
        }
      ],
      "name": "ScoreDisputeResolved",
      "type": "event"
    },
    {
      "anonymous": false,
      "inputs": [
        {
          "indexed": true,
          "internalType": "address",
          "name": "subject",
          "type": "address"
        },
        {
          "indexed": false,
          "internalType": "uint16",
          "name": "oldScore",
          "type": "uint16"
        },
        {
          "indexed": false,
          "internalType": "uint16",
          "name": "newScore",
          "type": "uint16"
        },
        {
          "indexed": false,
          "internalType": "string",
          "name": "reason",
          "type": "string"
        }
      ],
      "name": "ScoreSet",
      "type": "event"
    },
    {
      "anonymous": false,
      "inputs": [
        {
          "indexed": true,
          "internalType": "address",
          "name": "source",
          "type": "address"
        },
        {
          "indexed": false,
          "internalType": "string",
          "name": "name",
          "type": "string"
        },
        {
          "indexed": false,
          "internalType": "uint8",
          "name": "weight",
          "type": "uint8"
        }
      ],
      "name": "ScoreSourceAdded",
      "type": "event"
    },
    {
      "anonymous": false,
      "inputs": [
        {
          "indexed": true,
          "internalType": "address",
          "name": "source",
          "type": "address"
        }
      ],
      "name": "ScoreSourceRemoved",
      "type": "event"
    },
    {
      "anonymous": false,
      "inputs": [
        {
          "indexed": true,
          "internalType": "address",
          "name": "seerAutonomous",
          "type": "address"
        }
      ],
      "name": "SeerAutonomousSet",
      "type": "event"
    },
    {
      "anonymous": false,
      "inputs": [
        {
          "indexed": true,
          "internalType": "address",
          "name": "seerSocial",
          "type": "address"
        }
      ],
      "name": "SeerSocialSet",
      "type": "event"
    },
    {
      "anonymous": false,
      "inputs": [
        {
          "indexed": false,
          "internalType": "uint16",
          "name": "low",
          "type": "uint16"
        },
        {
          "indexed": false,
          "internalType": "uint16",
          "name": "high",
          "type": "uint16"
        },
        {
          "indexed": false,
          "internalType": "uint16",
          "name": "minForGov",
          "type": "uint16"
        },
        {
          "indexed": false,
          "internalType": "uint16",
          "name": "minForMerchant",
          "type": "uint16"
        }
      ],
      "name": "ThresholdsSet",
      "type": "event"
    },
    {
      "anonymous": false,
      "inputs": [
        {
          "indexed": true,
          "internalType": "address",
          "name": "endorser",
          "type": "address"
        },
        {
          "indexed": true,
          "internalType": "address",
          "name": "subject",
          "type": "address"
        },
        {
          "indexed": false,
          "internalType": "uint16",
          "name": "weight",
          "type": "uint16"
        },
        {
          "indexed": false,
          "internalType": "uint64",
          "name": "expiry",
          "type": "uint64"
        },
        {
          "indexed": false,
          "internalType": "string",
          "name": "reason",
          "type": "string"
        }
      ],
      "name": "UserEndorsed",
      "type": "event"
    },
    {
      "inputs": [],
      "name": "MAX_HISTORY_PER_USER",
      "outputs": [
        {
          "internalType": "uint8",
          "name": "",
          "type": "uint8"
        }
      ],
      "stateMutability": "view",
      "type": "function"
    },
    {
      "inputs": [],
      "name": "MAX_SCORE",
      "outputs": [
        {
          "internalType": "uint16",
          "name": "",
          "type": "uint16"
        }
      ],
      "stateMutability": "view",
      "type": "function"
    },
    {
      "inputs": [],
      "name": "MIN_SCORE",
      "outputs": [
        {
          "internalType": "uint16",
          "name": "",
          "type": "uint16"
        }
      ],
      "stateMutability": "view",
      "type": "function"
    },
    {
      "inputs": [],
      "name": "NEUTRAL",
      "outputs": [
        {
          "internalType": "uint16",
          "name": "",
          "type": "uint16"
        }
      ],
      "stateMutability": "view",
      "type": "function"
    },
    {
      "inputs": [
        {
          "internalType": "address",
          "name": "source",
          "type": "address"
        },
        {
          "internalType": "string",
          "name": "name",
          "type": "string"
        },
        {
          "internalType": "uint8",
          "name": "weight",
          "type": "uint8"
        }
      ],
      "name": "addScoreSource",
      "outputs": [],
      "stateMutability": "nonpayable",
      "type": "function"
    },
    {
      "inputs": [
        {
          "internalType": "address",
          "name": "",
          "type": "address"
        }
      ],
      "name": "appeals",
      "outputs": [
        {
          "internalType": "address",
          "name": "requester",
          "type": "address"
        },
        {
          "internalType": "string",
          "name": "reason",
          "type": "string"
        },
        {
          "internalType": "uint64",
          "name": "timestamp",
          "type": "uint64"
        },
        {
          "internalType": "bool",
          "name": "resolved",
          "type": "bool"
        },
        {
          "internalType": "bool",
          "name": "approved",
          "type": "bool"
        },
        {
          "internalType": "string",
          "name": "resolution",
          "type": "string"
        }
      ],
      "stateMutability": "view",
      "type": "function"
    },
    {
      "inputs": [
        {
          "internalType": "address",
          "name": "subject",
          "type": "address"
        }
      ],
      "name": "applyDecay",
      "outputs": [],
      "stateMutability": "nonpayable",
      "type": "function"
    },
    {
      "inputs": [
        {
          "internalType": "address[]",
          "name": "subjects",
          "type": "address[]"
        }
      ],
      "name": "applyDecayBatch",
      "outputs": [],
      "stateMutability": "nonpayable",
      "type": "function"
    },
    {
      "inputs": [
        {
          "internalType": "address",
          "name": "",
          "type": "address"
        },
        {
          "internalType": "bytes32",
          "name": "",
          "type": "bytes32"
        }
      ],
      "name": "badgeExpiry",
      "outputs": [
        {
          "internalType": "uint256",
          "name": "",
          "type": "uint256"
        }
      ],
      "stateMutability": "view",
      "type": "function"
    },
    {
      "inputs": [],
      "name": "becomeMentor",
      "outputs": [],
      "stateMutability": "nonpayable",
      "type": "function"
    },
    {
      "inputs": [
        {
          "internalType": "address",
          "name": "subject",
          "type": "address"
        }
      ],
      "name": "calculateAutomatedScore",
      "outputs": [
        {
          "internalType": "uint16",
          "name": "",
          "type": "uint16"
        }
      ],
      "stateMutability": "view",
      "type": "function"
    },
    {
      "inputs": [
        {
          "internalType": "address",
          "name": "subject",
          "type": "address"
        }
      ],
      "name": "calculateOnChainScore",
      "outputs": [
        {
          "internalType": "uint16",
          "name": "",
          "type": "uint16"
        }
      ],
      "stateMutability": "view",
      "type": "function"
    },
    {
      "inputs": [
        {
          "internalType": "address",
          "name": "",
          "type": "address"
        },
        {
          "internalType": "address",
          "name": "",
          "type": "address"
        }
      ],
      "name": "dailyOperatorRewardTotal",
      "outputs": [
        {
          "internalType": "uint16",
          "name": "",
          "type": "uint16"
        }
      ],
      "stateMutability": "view",
      "type": "function"
    },
    {
      "inputs": [],
      "name": "dao",
      "outputs": [
        {
          "internalType": "address",
          "name": "",
          "type": "address"
        }
      ],
      "stateMutability": "view",
      "type": "function"
    },
    {
      "inputs": [],
      "name": "daoScoreWeight",
      "outputs": [
        {
          "internalType": "uint8",
          "name": "",
          "type": "uint8"
        }
      ],
      "stateMutability": "view",
      "type": "function"
    },
    {
      "inputs": [],
      "name": "decayEnabled",
      "outputs": [
        {
          "internalType": "bool",
          "name": "",
          "type": "bool"
        }
      ],
      "stateMutability": "view",
      "type": "function"
    },
    {
      "inputs": [],
      "name": "decayPerMonth",
      "outputs": [
        {
          "internalType": "uint16",
          "name": "",
          "type": "uint16"
        }
      ],
      "stateMutability": "view",
      "type": "function"
    },
    {
      "inputs": [],
      "name": "decayStartDays",
      "outputs": [
        {
          "internalType": "uint64",
          "name": "",
          "type": "uint64"
        }
      ],
      "stateMutability": "view",
      "type": "function"
    },
    {
      "inputs": [
        {
          "internalType": "address",
          "name": "subject",
          "type": "address"
        },
        {
          "internalType": "string",
          "name": "reason",
          "type": "string"
        }
      ],
      "name": "endorse",
      "outputs": [],
      "stateMutability": "nonpayable",
      "type": "function"
    },
    {
      "inputs": [],
      "name": "endorsementBaseValue",
      "outputs": [
        {
          "internalType": "uint16",
          "name": "",
          "type": "uint16"
        }
      ],
      "stateMutability": "view",
      "type": "function"
    },
    {
      "inputs": [],
      "name": "endorsementBonusCap",
      "outputs": [
        {
          "internalType": "uint16",
          "name": "",
          "type": "uint16"
        }
      ],
      "stateMutability": "view",
      "type": "function"
    },
    {
      "inputs": [],
      "name": "endorsementCooldown",
      "outputs": [
        {
          "internalType": "uint64",
          "name": "",
          "type": "uint64"
        }
      ],
      "stateMutability": "view",
      "type": "function"
    },
    {
      "inputs": [],
      "name": "endorsementMaxPerEndorser",
      "outputs": [
        {
          "internalType": "uint16",
          "name": "",
          "type": "uint16"
        }
      ],
      "stateMutability": "view",
      "type": "function"
    },
    {
      "inputs": [],
      "name": "endorsementValidity",
      "outputs": [
        {
          "internalType": "uint64",
          "name": "",
          "type": "uint64"
        }
      ],
      "stateMutability": "view",
      "type": "function"
    },
    {
      "inputs": [
        {
          "internalType": "address",
          "name": "",
          "type": "address"
        },
        {
          "internalType": "address",
          "name": "",
          "type": "address"
        }
      ],
      "name": "endorsements",
      "outputs": [
        {
          "internalType": "uint64",
          "name": "expiry",
          "type": "uint64"
        },
        {
          "internalType": "uint16",
          "name": "weight",
          "type": "uint16"
        },
        {
          "internalType": "uint64",
          "name": "timestamp",
          "type": "uint64"
        }
      ],
      "stateMutability": "view",
      "type": "function"
    },
    {
      "inputs": [
        {
          "internalType": "address",
          "name": "",
          "type": "address"
        }
      ],
      "name": "endorsementsGiven",
      "outputs": [
        {
          "internalType": "uint16",
          "name": "",
          "type": "uint16"
        }
      ],
      "stateMutability": "view",
      "type": "function"
    },
    {
      "inputs": [
        {
          "internalType": "address",
          "name": "",
          "type": "address"
        }
      ],
      "name": "endorsementsReceived",
      "outputs": [
        {
          "internalType": "uint16",
          "name": "",
          "type": "uint16"
        }
      ],
      "stateMutability": "view",
      "type": "function"
    },
    {
      "inputs": [
        {
          "internalType": "string",
          "name": "reason",
          "type": "string"
        }
      ],
      "name": "fileAppeal",
      "outputs": [],
      "stateMutability": "nonpayable",
      "type": "function"
    },
    {
      "inputs": [
        {
          "internalType": "address",
          "name": "subject",
          "type": "address"
        },
        {
          "internalType": "string",
          "name": "reason",
          "type": "string"
        }
      ],
      "name": "findReasonInHistory",
      "outputs": [
        {
          "internalType": "bool",
          "name": "found",
          "type": "bool"
        },
        {
          "internalType": "uint64",
          "name": "timestamp",
          "type": "uint64"
        }
      ],
      "stateMutability": "view",
      "type": "function"
    },
    {
      "inputs": [
        {
          "internalType": "address",
          "name": "subject",
          "type": "address"
        }
      ],
      "name": "getActiveEndorsements",
      "outputs": [
        {
          "internalType": "address[]",
          "name": "endorsers",
          "type": "address[]"
        },
        {
          "internalType": "uint16[]",
          "name": "weights",
          "type": "uint16[]"
        },
        {
          "internalType": "uint64[]",
          "name": "expiries",
          "type": "uint64[]"
        },
        {
          "internalType": "uint64[]",
          "name": "timestamps",
          "type": "uint64[]"
        }
      ],
      "stateMutability": "view",
      "type": "function"
    },
    {
      "inputs": [
        {
          "internalType": "address",
          "name": "subject",
          "type": "address"
        }
      ],
      "name": "getDecayAdjustedScore",
      "outputs": [
        {
          "internalType": "uint16",
          "name": "adjustedScore",
          "type": "uint16"
        },
        {
          "internalType": "uint64",
          "name": "daysInactive",
          "type": "uint64"
        },
        {
          "internalType": "uint16",
          "name": "decayAmount",
          "type": "uint16"
        }
      ],
      "stateMutability": "view",
      "type": "function"
    },
    {
      "inputs": [
        {
          "internalType": "address",
          "name": "subject",
          "type": "address"
        }
      ],
      "name": "getEndorsementStats",
      "outputs": [
        {
          "internalType": "uint16",
          "name": "activeEndorsers",
          "type": "uint16"
        },
        {
          "internalType": "uint16",
          "name": "activeBonus",
          "type": "uint16"
        },
        {
          "internalType": "uint16",
          "name": "endorsementsYouGave",
          "type": "uint16"
        }
      ],
      "stateMutability": "view",
      "type": "function"
    },
    {
      "inputs": [
        {
          "internalType": "address",
          "name": "mentor",
          "type": "address"
        }
      ],
      "name": "getMentees",
      "outputs": [
        {
          "internalType": "address[]",
          "name": "",
          "type": "address[]"
        }
      ],
      "stateMutability": "view",
      "type": "function"
    },
    {
      "inputs": [
        {
          "internalType": "address",
          "name": "subject",
          "type": "address"
        }
      ],
      "name": "getMentorInfo",
      "outputs": [
        {
          "internalType": "bool",
          "name": "isMentorUser",
          "type": "bool"
        },
        {
          "internalType": "address",
          "name": "mentor",
          "type": "address"
        },
        {
          "internalType": "uint16",
          "name": "menteeCount",
          "type": "uint16"
        },
        {
          "internalType": "bool",
          "name": "hasMentor",
          "type": "bool"
        },
        {
          "internalType": "bool",
          "name": "canBecome",
          "type": "bool"
        },
        {
          "internalType": "uint16",
          "name": "minScore",
          "type": "uint16"
        },
        {
          "internalType": "uint16",
          "name": "currentScore",
          "type": "uint16"
        }
      ],
      "stateMutability": "view",
      "type": "function"
    },
    {
      "inputs": [
        {
          "internalType": "address",
          "name": "subject",
          "type": "address"
        }
      ],
      "name": "getScore",
      "outputs": [
        {
          "internalType": "uint16",
          "name": "",
          "type": "uint16"
        }
      ],
      "stateMutability": "view",
      "type": "function"
    },
    {
      "inputs": [
        {
          "internalType": "address",
          "name": "subject",
          "type": "address"
        }
      ],
      "name": "getScoreBreakdown",
      "outputs": [
        {
          "internalType": "uint16",
          "name": "daoSetScore",
          "type": "uint16"
        },
        {
          "internalType": "uint16",
          "name": "onChainScore",
          "type": "uint16"
        },
        {
          "internalType": "uint16",
          "name": "finalScore",
          "type": "uint16"
        },
        {
          "internalType": "uint8",
          "name": "daoWeight",
          "type": "uint8"
        },
        {
          "internalType": "uint8",
          "name": "onChainWeight",
          "type": "uint8"
        },
        {
          "internalType": "bool",
          "name": "hasVault",
          "type": "bool"
        }
      ],
      "stateMutability": "view",
      "type": "function"
    },
    {
      "inputs": [
        {
          "internalType": "address",
          "name": "subject",
          "type": "address"
        }
      ],
      "name": "getScoreHistory",
      "outputs": [
        {
          "internalType": "uint256",
          "name": "count",
          "type": "uint256"
        },
        {
          "components": [
            {
              "internalType": "uint16",
              "name": "oldScore",
              "type": "uint16"
            },
            {
              "internalType": "uint16",
              "name": "newScore",
              "type": "uint16"
            },
            {
              "internalType": "uint64",
              "name": "timestamp",
              "type": "uint64"
            },
            {
              "internalType": "bytes32",
              "name": "reasonHash",
              "type": "bytes32"
            }
          ],
          "internalType": "struct Seer.ScoreChange[]",
          "name": "recentChanges",
          "type": "tuple[]"
        }
      ],
      "stateMutability": "view",
      "type": "function"
    },
    {
      "inputs": [],
      "name": "getScoreSourceCount",
      "outputs": [
        {
          "internalType": "uint256",
          "name": "total",
          "type": "uint256"
        },
        {
          "internalType": "uint256",
          "name": "active",
          "type": "uint256"
        }
      ],
      "stateMutability": "view",
      "type": "function"
    },
    {
      "inputs": [
        {
          "internalType": "address[]",
          "name": "subjects",
          "type": "address[]"
        }
      ],
      "name": "getScores",
      "outputs": [
        {
          "internalType": "uint16[]",
          "name": "scores",
          "type": "uint16[]"
        }
      ],
      "stateMutability": "view",
      "type": "function"
    },
    {
      "inputs": [
        {
          "internalType": "address[]",
          "name": "subjects",
          "type": "address[]"
        }
      ],
      "name": "getScoresBatch",
      "outputs": [
        {
          "internalType": "uint16[]",
          "name": "scores",
          "type": "uint16[]"
        }
      ],
      "stateMutability": "view",
      "type": "function"
    },
    {
      "inputs": [
        {
          "internalType": "address",
          "name": "subject",
          "type": "address"
        }
      ],
      "name": "getTrustLevel",
      "outputs": [
        {
          "internalType": "uint8",
          "name": "level",
          "type": "uint8"
        },
        {
          "internalType": "string",
          "name": "levelName",
          "type": "string"
        },
        {
          "internalType": "bool",
          "name": "canVote",
          "type": "bool"
        },
        {
          "internalType": "bool",
          "name": "canBeMerchant",
          "type": "bool"
        }
      ],
      "stateMutability": "view",
      "type": "function"
    },
    {
      "inputs": [
        {
          "internalType": "address",
          "name": "subject",
          "type": "address"
        }
      ],
      "name": "getUserStatus",
      "outputs": [
        {
          "internalType": "uint16",
          "name": "currentScore",
          "type": "uint16"
        },
        {
          "internalType": "uint16",
          "name": "decayAdjustedScore",
          "type": "uint16"
        },
        {
          "internalType": "uint64",
          "name": "daysInactive",
          "type": "uint64"
        },
        {
          "internalType": "uint64",
          "name": "lastActivityTime",
          "type": "uint64"
        },
        {
          "internalType": "uint256",
          "name": "historyCount",
          "type": "uint256"
        },
        {
          "internalType": "bool",
          "name": "hasPendingDispute",
          "type": "bool"
        },
        {
          "internalType": "bool",
          "name": "isOperator",
          "type": "bool"
        }
      ],
      "stateMutability": "view",
      "type": "function"
    },
    {
      "inputs": [
        {
          "internalType": "address",
          "name": "",
          "type": "address"
        },
        {
          "internalType": "bytes32",
          "name": "",
          "type": "bytes32"
        }
      ],
      "name": "hasBadge",
      "outputs": [
        {
          "internalType": "bool",
          "name": "",
          "type": "bool"
        }
      ],
      "stateMutability": "view",
      "type": "function"
    },
    {
      "inputs": [],
      "name": "highTrustThreshold",
      "outputs": [
        {
          "internalType": "uint16",
          "name": "",
          "type": "uint16"
        }
      ],
      "stateMutability": "view",
      "type": "function"
    },
    {
      "inputs": [
        {
          "internalType": "address",
          "name": "subject",
          "type": "address"
        },
        {
          "internalType": "bytes32",
          "name": "badge",
          "type": "bytes32"
        }
      ],
      "name": "isBadgeValid",
      "outputs": [
        {
          "internalType": "bool",
          "name": "",
          "type": "bool"
        }
      ],
      "stateMutability": "view",
      "type": "function"
    },
    {
      "inputs": [
        {
          "internalType": "address",
          "name": "",
          "type": "address"
        }
      ],
      "name": "lastActivity",
      "outputs": [
        {
          "internalType": "uint64",
          "name": "",
          "type": "uint64"
        }
      ],
      "stateMutability": "view",
      "type": "function"
    },
    {
      "inputs": [
        {
          "internalType": "address",
          "name": "",
          "type": "address"
        }
      ],
      "name": "lastEndorseTime",
      "outputs": [
        {
          "internalType": "uint64",
          "name": "",
          "type": "uint64"
        }
      ],
      "stateMutability": "view",
      "type": "function"
    },
    {
      "inputs": [
        {
          "internalType": "address",
          "name": "",
          "type": "address"
        },
        {
          "internalType": "address",
          "name": "",
          "type": "address"
        }
      ],
      "name": "lastOperatorRewardTime",
      "outputs": [
        {
          "internalType": "uint64",
          "name": "",
          "type": "uint64"
        }
      ],
      "stateMutability": "view",
      "type": "function"
    },
    {
      "inputs": [],
      "name": "ledger",
      "outputs": [
        {
          "internalType": "contract ProofLedger",
          "name": "",
          "type": "address"
        }
      ],
      "stateMutability": "view",
      "type": "function"
    },
    {
      "inputs": [],
      "name": "lowTrustThreshold",
      "outputs": [
        {
          "internalType": "uint16",
          "name": "",
          "type": "uint16"
        }
      ],
      "stateMutability": "view",
      "type": "function"
    },
    {
      "inputs": [],
      "name": "maxActiveGivenPerUser",
      "outputs": [
        {
          "internalType": "uint16",
          "name": "",
          "type": "uint16"
        }
      ],
      "stateMutability": "view",
      "type": "function"
    },
    {
      "inputs": [],
      "name": "maxDailyOperatorReward",
      "outputs": [
        {
          "internalType": "uint16",
          "name": "",
          "type": "uint16"
        }
      ],
      "stateMutability": "view",
      "type": "function"
    },
    {
      "inputs": [],
      "name": "maxEndorsersPerSubject",
      "outputs": [
        {
          "internalType": "uint16",
          "name": "",
          "type": "uint16"
        }
      ],
      "stateMutability": "view",
      "type": "function"
    },
    {
      "inputs": [],
      "name": "maxMenteesPerMentor",
      "outputs": [
        {
          "internalType": "uint16",
          "name": "",
          "type": "uint16"
        }
      ],
      "stateMutability": "view",
      "type": "function"
    },
    {
      "inputs": [],
      "name": "maxSingleReward",
      "outputs": [
        {
          "internalType": "uint16",
          "name": "",
          "type": "uint16"
        }
      ],
      "stateMutability": "view",
      "type": "function"
    },
    {
      "inputs": [
        {
          "internalType": "address",
          "name": "",
          "type": "address"
        }
      ],
      "name": "mentorOf",
      "outputs": [
        {
          "internalType": "address",
          "name": "",
          "type": "address"
        }
      ],
      "stateMutability": "view",
      "type": "function"
    },
    {
      "inputs": [
        {
          "internalType": "address",
          "name": "",
          "type": "address"
        }
      ],
      "name": "mentors",
      "outputs": [
        {
          "internalType": "bool",
          "name": "",
          "type": "bool"
        }
      ],
      "stateMutability": "view",
      "type": "function"
    },
    {
      "inputs": [],
      "name": "minForGovernance",
      "outputs": [
        {
          "internalType": "uint16",
          "name": "",
          "type": "uint16"
        }
      ],
      "stateMutability": "view",
      "type": "function"
    },
    {
      "inputs": [],
      "name": "minForMerchant",
      "outputs": [
        {
          "internalType": "uint16",
          "name": "",
          "type": "uint16"
        }
      ],
      "stateMutability": "view",
      "type": "function"
    },
    {
      "inputs": [],
      "name": "minScoreToEndorse",
      "outputs": [
        {
          "internalType": "uint16",
          "name": "",
          "type": "uint16"
        }
      ],
      "stateMutability": "view",
      "type": "function"
    },
    {
      "inputs": [],
      "name": "minScoreToMentor",
      "outputs": [
        {
          "internalType": "uint16",
          "name": "",
          "type": "uint16"
        }
      ],
      "stateMutability": "view",
      "type": "function"
    },
    {
      "inputs": [],
      "name": "onChainScoreWeight",
      "outputs": [
        {
          "internalType": "uint8",
          "name": "",
          "type": "uint8"
        }
      ],
      "stateMutability": "view",
      "type": "function"
    },
    {
      "inputs": [
        {
          "internalType": "address",
          "name": "",
          "type": "address"
        }
      ],
      "name": "operatorRewardDayStart",
      "outputs": [
        {
          "internalType": "uint64",
          "name": "",
          "type": "uint64"
        }
      ],
      "stateMutability": "view",
      "type": "function"
    },
    {
      "inputs": [
        {
          "internalType": "address",
          "name": "",
          "type": "address"
        }
      ],
      "name": "operators",
      "outputs": [
        {
          "internalType": "bool",
          "name": "",
          "type": "bool"
        }
      ],
      "stateMutability": "view",
      "type": "function"
    },
    {
      "inputs": [],
      "name": "paused",
      "outputs": [
        {
          "internalType": "bool",
          "name": "",
          "type": "bool"
        }
      ],
      "stateMutability": "view",
      "type": "function"
    },
    {
      "inputs": [],
      "name": "pendingAppealCount",
      "outputs": [
        {
          "internalType": "uint256",
          "name": "",
          "type": "uint256"
        }
      ],
      "stateMutability": "view",
      "type": "function"
    },
    {
      "inputs": [],
      "name": "pendingDisputeCount",
      "outputs": [
        {
          "internalType": "uint256",
          "name": "",
          "type": "uint256"
        }
      ],
      "stateMutability": "view",
      "type": "function"
    },
    {
      "inputs": [
        {
          "internalType": "address",
          "name": "subject",
          "type": "address"
        }
      ],
      "name": "pruneEndorsements",
      "outputs": [],
      "stateMutability": "nonpayable",
      "type": "function"
    },
    {
      "inputs": [
        {
          "internalType": "address",
          "name": "subject",
          "type": "address"
        },
        {
          "internalType": "uint16",
          "name": "delta",
          "type": "uint16"
        },
        {
          "internalType": "string",
          "name": "reason",
          "type": "string"
        }
      ],
      "name": "punish",
      "outputs": [],
      "stateMutability": "nonpayable",
      "type": "function"
    },
    {
      "inputs": [
        {
          "internalType": "address",
          "name": "mentee",
          "type": "address"
        }
      ],
      "name": "removeMentee",
      "outputs": [],
      "stateMutability": "nonpayable",
      "type": "function"
    },
    {
      "inputs": [
        {
          "internalType": "address",
          "name": "source",
          "type": "address"
        }
      ],
      "name": "removeScoreSource",
      "outputs": [],
      "stateMutability": "nonpayable",
      "type": "function"
    },
    {
      "inputs": [
        {
          "internalType": "string",
          "name": "reason",
          "type": "string"
        }
      ],
      "name": "requestScoreReview",
      "outputs": [],
      "stateMutability": "nonpayable",
      "type": "function"
    },
    {
      "inputs": [
        {
          "internalType": "address",
          "name": "subject",
          "type": "address"
        },
        {
          "internalType": "bool",
          "name": "approved",
          "type": "bool"
        },
        {
          "internalType": "string",
          "name": "resolution",
          "type": "string"
        }
      ],
      "name": "resolveAppeal",
      "outputs": [],
      "stateMutability": "nonpayable",
      "type": "function"
    },
    {
      "inputs": [
        {
          "internalType": "address",
          "name": "subject",
          "type": "address"
        },
        {
          "internalType": "bool",
          "name": "approved",
          "type": "bool"
        },
        {
          "internalType": "int16",
          "name": "adjustment",
          "type": "int16"
        }
      ],
      "name": "resolveScoreDispute",
      "outputs": [],
      "stateMutability": "nonpayable",
      "type": "function"
    },
    {
      "inputs": [
        {
          "internalType": "address",
          "name": "mentor",
          "type": "address"
        }
      ],
      "name": "revokeMentor",
      "outputs": [],
      "stateMutability": "nonpayable",
      "type": "function"
    },
    {
      "inputs": [
        {
          "internalType": "address",
          "name": "subject",
          "type": "address"
        },
        {
          "internalType": "uint16",
          "name": "delta",
          "type": "uint16"
        },
        {
          "internalType": "string",
          "name": "reason",
          "type": "string"
        }
      ],
      "name": "reward",
      "outputs": [],
      "stateMutability": "nonpayable",
      "type": "function"
    },
    {
      "inputs": [
        {
          "internalType": "address",
          "name": "",
          "type": "address"
        }
      ],
      "name": "scoreDisputes",
      "outputs": [
        {
          "internalType": "address",
          "name": "requester",
          "type": "address"
        },
        {
          "internalType": "string",
          "name": "reason",
          "type": "string"
        },
        {
          "internalType": "uint64",
          "name": "timestamp",
          "type": "uint64"
        },
        {
          "internalType": "bool",
          "name": "resolved",
          "type": "bool"
        },
        {
          "internalType": "bool",
          "name": "approved",
          "type": "bool"
        }
      ],
      "stateMutability": "view",
      "type": "function"
    },
    {
      "inputs": [
        {
          "internalType": "address",
          "name": "",
          "type": "address"
        },
        {
          "internalType": "uint256",
          "name": "",
          "type": "uint256"
        }
      ],
      "name": "scoreHistory",
      "outputs": [
        {
          "internalType": "uint16",
          "name": "oldScore",
          "type": "uint16"
        },
        {
          "internalType": "uint16",
          "name": "newScore",
          "type": "uint16"
        },
        {
          "internalType": "uint64",
          "name": "timestamp",
          "type": "uint64"
        },
        {
          "internalType": "bytes32",
          "name": "reasonHash",
          "type": "bytes32"
        }
      ],
      "stateMutability": "view",
      "type": "function"
    },
    {
      "inputs": [
        {
          "internalType": "address",
          "name": "",
          "type": "address"
        }
      ],
      "name": "scoreSourceIndex",
      "outputs": [
        {
          "internalType": "uint256",
          "name": "",
          "type": "uint256"
        }
      ],
      "stateMutability": "view",
      "type": "function"
    },
    {
      "inputs": [
        {
          "internalType": "uint256",
          "name": "",
          "type": "uint256"
        }
      ],
      "name": "scoreSources",
      "outputs": [
        {
          "internalType": "address",
          "name": "source",
          "type": "address"
        },
        {
          "internalType": "string",
          "name": "name",
          "type": "string"
        },
        {
          "internalType": "uint8",
          "name": "weight",
          "type": "uint8"
        },
        {
          "internalType": "bool",
          "name": "active",
          "type": "bool"
        }
      ],
      "stateMutability": "view",
      "type": "function"
    },
    {
      "inputs": [],
      "name": "seerAutonomous",
      "outputs": [
        {
          "internalType": "address",
          "name": "",
          "type": "address"
        }
      ],
      "stateMutability": "view",
      "type": "function"
    },
    {
      "inputs": [],
      "name": "seerSocial",
      "outputs": [
        {
          "internalType": "address",
          "name": "",
          "type": "address"
        }
      ],
      "stateMutability": "view",
      "type": "function"
    },
    {
      "inputs": [
        {
          "internalType": "address",
          "name": "subject",
          "type": "address"
        },
        {
          "internalType": "bytes32",
          "name": "badge",
          "type": "bytes32"
        },
        {
          "internalType": "bool",
          "name": "active",
          "type": "bool"
        },
        {
          "internalType": "uint256",
          "name": "expiry",
          "type": "uint256"
        }
      ],
      "name": "setBadge",
      "outputs": [],
      "stateMutability": "nonpayable",
      "type": "function"
    },
    {
      "inputs": [
        {
          "internalType": "address[]",
          "name": "subjects",
          "type": "address[]"
        },
        {
          "internalType": "bytes32",
          "name": "badge",
          "type": "bytes32"
        },
        {
          "internalType": "bool",
          "name": "active",
          "type": "bool"
        },
        {
          "internalType": "uint256",
          "name": "expiry",
          "type": "uint256"
        }
      ],
      "name": "setBadgeBatch",
      "outputs": [],
      "stateMutability": "nonpayable",
      "type": "function"
    },
    {
      "inputs": [
        {
          "internalType": "address",
          "name": "newDAO",
          "type": "address"
        }
      ],
      "name": "setDAO",
      "outputs": [],
      "stateMutability": "nonpayable",
      "type": "function"
    },
    {
      "inputs": [
        {
          "internalType": "bool",
          "name": "enabled",
          "type": "bool"
        },
        {
          "internalType": "uint64",
          "name": "startDays",
          "type": "uint64"
        },
        {
          "internalType": "uint16",
          "name": "perMonth",
          "type": "uint16"
        }
      ],
      "name": "setDecayConfig",
      "outputs": [],
      "stateMutability": "nonpayable",
      "type": "function"
    },
    {
      "inputs": [
        {
          "internalType": "uint8",
          "name": "daoWeight",
          "type": "uint8"
        },
        {
          "internalType": "uint8",
          "name": "onChainWeight",
          "type": "uint8"
        }
      ],
      "name": "setDecentralizationWeights",
      "outputs": [],
      "stateMutability": "nonpayable",
      "type": "function"
    },
    {
      "inputs": [
        {
          "internalType": "uint16",
          "name": "baseValue",
          "type": "uint16"
        },
        {
          "internalType": "uint16",
          "name": "maxPerEndorser",
          "type": "uint16"
        },
        {
          "internalType": "uint16",
          "name": "bonusCap",
          "type": "uint16"
        },
        {
          "internalType": "uint16",
          "name": "maxPerSubject",
          "type": "uint16"
        },
        {
          "internalType": "uint16",
          "name": "maxGiven",
          "type": "uint16"
        },
        {
          "internalType": "uint64",
          "name": "validity",
          "type": "uint64"
        },
        {
          "internalType": "uint64",
          "name": "cooldown",
          "type": "uint64"
        },
        {
          "internalType": "uint16",
          "name": "minScore",
          "type": "uint16"
        }
      ],
      "name": "setEndorsementPolicy",
      "outputs": [],
      "stateMutability": "nonpayable",
      "type": "function"
    },
    {
      "inputs": [
        {
          "internalType": "uint16",
          "name": "minScore",
          "type": "uint16"
        },
        {
          "internalType": "uint16",
          "name": "maxMentees",
          "type": "uint16"
        }
      ],
      "name": "setMentorConfig",
      "outputs": [],
      "stateMutability": "nonpayable",
      "type": "function"
    },
    {
      "inputs": [
        {
          "internalType": "address",
          "name": "_ledger",
          "type": "address"
        },
        {
          "internalType": "address",
          "name": "_hub",
          "type": "address"
        }
      ],
      "name": "setModules",
      "outputs": [],
      "stateMutability": "nonpayable",
      "type": "function"
    },
    {
      "inputs": [
        {
          "internalType": "address",
          "name": "operator",
          "type": "address"
        },
        {
          "internalType": "bool",
          "name": "authorized",
          "type": "bool"
        }
      ],
      "name": "setOperator",
      "outputs": [],
      "stateMutability": "nonpayable",
      "type": "function"
    },
    {
      "inputs": [
        {
          "internalType": "uint16",
          "name": "_maxSingle",
          "type": "uint16"
        },
        {
          "internalType": "uint16",
          "name": "_maxDaily",
          "type": "uint16"
        }
      ],
      "name": "setOperatorLimits",
      "outputs": [],
      "stateMutability": "nonpayable",
      "type": "function"
    },
    {
      "inputs": [
        {
          "internalType": "bool",
          "name": "_paused",
          "type": "bool"
        }
      ],
      "name": "setPaused",
      "outputs": [],
      "stateMutability": "nonpayable",
      "type": "function"
    },
    {
      "inputs": [
        {
          "internalType": "address",
          "name": "subject",
          "type": "address"
        },
        {
          "internalType": "uint16",
          "name": "newScore",
          "type": "uint16"
        },
        {
          "internalType": "string",
          "name": "reason",
          "type": "string"
        }
      ],
      "name": "setScore",
      "outputs": [],
      "stateMutability": "nonpayable",
      "type": "function"
    },
    {
      "inputs": [
        {
          "internalType": "address",
          "name": "_seerAutonomous",
          "type": "address"
        }
      ],
      "name": "setSeerAutonomous",
      "outputs": [],
      "stateMutability": "nonpayable",
      "type": "function"
    },
    {
      "inputs": [
        {
          "internalType": "address",
          "name": "_seerSocial",
          "type": "address"
        }
      ],
      "name": "setSeerSocial",
      "outputs": [],
      "stateMutability": "nonpayable",
      "type": "function"
    },
    {
      "inputs": [
        {
          "internalType": "uint16",
          "name": "low",
          "type": "uint16"
        },
        {
          "internalType": "uint16",
          "name": "high",
          "type": "uint16"
        },
        {
          "internalType": "uint16",
          "name": "minGov",
          "type": "uint16"
        },
        {
          "internalType": "uint16",
          "name": "minMerch",
          "type": "uint16"
        }
      ],
      "name": "setThresholds",
      "outputs": [],
      "stateMutability": "nonpayable",
      "type": "function"
    },
    {
      "inputs": [
        {
          "internalType": "address",
          "name": "mentee",
          "type": "address"
        }
      ],
      "name": "sponsorMentee",
      "outputs": [],
      "stateMutability": "nonpayable",
      "type": "function"
    },
    {
      "inputs": [],
      "name": "vaultHub",
      "outputs": [
        {
          "internalType": "contract IVaultHub_Trust",
          "name": "",
          "type": "address"
        }
      ],
      "stateMutability": "view",
      "type": "function"
    }
  ],
  "bytecode": "0x60803461018457601f6175d038819003918201601f19168301916001600160401b0383118484101761018957808492606094604052833981010312610184576100478161019f565b9061006060406100596020840161019f565b920161019f565b600d80547b1b580000000000015180000000000076a7000032001905dc005000286001600160e01b03199091161790556011805463ffffffff1990811662321c201790915560178054909116626400c8179055601a80546001600160581b0319166964000000000000005a00179055601d80546915e015181f400fa000646001600160501b0319909116179055916001600160a01b0316801561017357600080546001600160a01b0319169190911790556001600160a01b031680610159575b506001600160a01b03168061013f575b60405161741c90816101b48239f35b600280546001600160a01b03191691909117905538610130565b600180546001600160a01b03191691909117905538610120565b630409728b60e41b60005260046000fd5b600080fd5b634e487b7160e01b600052604160045260246000fd5b51906001600160a01b03821682036101845756fe608080604052600436101561001357600080fd5b60003560e01c908163024caec714614fe7575080630494dada14614ea55780630ba2d87214614e5e5780630c61e69c14614da85780630f39c94014614d855780630f83a99c14614b245780631017817c146149e0578063103f88291461494a5780631121834f1461466357806313e7c9d81461462457806316c38b3c1461455f5780631d997a6a14614347578063246683ce14614323578063257076dd146142f757806327758b17146142b957806327ff62231461429c57806329c07cf91461427b5780632b7ffc95146142595780632c27750a14614118578063327d8bfc14613fd5578063362d9b4814613f705780633817975414613f235780633909b9de14613f075780633f4d10be14613e5057806340b8927014613e345780634162169f14613e0b57806345f5cc1f14613da4578063460da41b14613d7f5780634a33fb7214613d5b5780634b9707c414613ae55780634cbb2f2214613abb5780634ccf04cf14613a965780634d4efe8e1461366a5780634e3ac713146133175780635037fc7d1461326957806351c131f5146130ad57806352a67c5d1461308857806353a4257814613064578063558a729714612f6e57806356397c3514612f4557806359f827ad14612f0357806359f8661114612d5a5780635abfe2cf146129055780635bed5604146127565780635c975abb146127335780635ed2ed9c146126d957806362238e8a146125ce57806366101d511461258b57806366bb7b7814612568578063691845e4146124e65780636a4b783d146123d55780636b1cdab1146122c25780636c0100951461221f5780636dd6e80b146121f657806372f557ee146121d157806375055c53146121ae5780637b1f12a8146121915780638101d30014611fc25780638437f7cc14611f995780638e20a25814611f6f578063900acd8014611f5157806394c30e1a14611f1357806399f68ac714611eee5780639beeb53414611e445780639d30f8d014611e125780639e5f4e9d14611ded578063a1d51dcc14611dbc578063a5d4e06314611ca9578063a61ff4e114611c2f578063a8a89dc014611998578063af216861146115d1578063b25e4cf1146115af578063b2746eed1461158a578063b291d01114611550578063b3a5df9e14611532578063b3cc5642146114d3578063b7be2d2a1461146c578063b7e2bf2f14611429578063bfda4181146111a6578063c1c4462114611181578063c4a2db651461106c578063d47875d014611042578063d5b37a7f14610ffa578063d74a5d0014610f22578063dc99e34114610ce5578063e0511fa014610cbc578063e29d04a214610c14578063e3bf0aff14610b9d578063e710c92b14610b78578063e7244bbd14610ae4578063e73a914c14610a30578063e7cce5d614610a0b578063ea0d5dcd14610917578063edfcc43714610707578063eed4ea8f146106c8578063f07e96b314610685578063f6c97ed1146105cc578063f9c4f4d9146104875763fa41d56a1461046057600080fd5b3461048257600036600319011261048257602061ffff60115416604051908152f35b600080fd5b346104825760003660031901126104825760ff601354166105bc5733600052600e60205260ff60406000205416610580576104c133616873565b61ffff80601154169116106105455733600052600e6020526040600020600160ff19825416179055337f900045c2cd74602d2cc377fa4ab9861abb55c4333c29ac3866c52d2bcb3f09a7600080a261054360405161052060408261517e565b60118152701b595b9d1bdc97dc9959da5cdd195c9959607a1b6020820152616e0e565b005b60405162461bcd60e51b8152602060048201526013602482015272534545523a2073636f726520746f6f206c6f7760681b6044820152606490fd5b60405162461bcd60e51b815260206004820152601460248201527329a2a2a91d1030b63932b0b23c9036b2b73a37b960611b6044820152606490fd5b621e909d60ea1b60005260046000fd5b34610482576020366003190112610482576004356001600160401b038111610482576105fc903690600401615284565b61060581616907565b9160005b82811061062a576040516020808252819061062690820187615381565b0390f35b6001906001600160a01b036106486106438387876157ea565b6157fa565b16600052600560205261ffff60406000205416801560001461068057506113885b61ffff610676838861586d565b9116905201610609565b610669565b34610482576020366003190112610482576001600160a01b036106a661500e565b16600052601960205260206001600160401b0360406000205416604051908152f35b34610482576020366003190112610482576001600160a01b036106e961500e565b16600052600e602052602060ff604060002054166040519015158152f35b346104825760203660031901126104825761072061500e565b60ff601354166105bc57601a549061073a60ff8316615d62565b6001600160a01b0381166000818152601960205260409020546001600160401b0316929083156108d5576001600160401b03620151808161077e81421697886153f6565b16049260081c166001600160401b038316106108965761ffff916107a184615454565b949094169350836107ae57005b6105439561083b7f6f31909d6110ef8da858cbb62b280e06f6073e5ef7c13784cbbd52d4d0a12f0a9385600052600560205261ffff6040600020541692866000526005602052604060002061ffff861661ffff198254161790558660005260196020526001600160401b03604060002091166001600160401b031982541617905560405193849384615da5565b0390a260409182519061084e848361517e565b60138252721cd8dbdc9957d91958d85e57d85c1c1b1a5959606a1b602083015261087a8451948561517e565b600a845269696e616374697669747960b01b60208501526169ff565b60405162461bcd60e51b8152602060048201526017602482015276534545523a206e6f742079657420646563617961626c6560481b6044820152606490fd5b60405162461bcd60e51b815260206004820152601a602482015279534545523a206e6f20616374697669747920746f20646563617960301b6044820152606490fd5b346104825760203660031901126104825760e061093261500e565b61093b81616873565b9061094581615454565b50909160018060a01b0316908160005260196020526001600160401b03604060002054168260005260186020526040600020549183600052601e6020526001600160401b0360026040600020015416151593846109ea575b906001600160401b0391600052601260205261ffff60ff6040600020541696816040519916895216602088015216604086015260608501526080840152151560a0830152151560c0820152f35b6000818152601e60205260409081902060020154901c60ff1615945061099d565b3461048257600036600319011261048257602061ffff60115460101c16604051908152f35b3461048257602036600319011261048257610a4961500e565b610a51616939565b6001600160a01b03168015610ad357600080546001600160a01b03198116831782556001600160a01b0316907f43cefe694890edd168d1075c3464baea1d7edcf0bc1a1648423ea65b5a2ac0919080a3610543604051610ab260408261517e565b600f81526e19185bd7dd1c985b9cd9995c9c9959608a1b6020820152616e0e565b630409728b60e41b60005260046000fd5b34610482576020366003190112610482576001600160a01b03610b0561500e565b166000526010602052604060002060405190816020825491828152019160005260206000209060005b818110610b595761062685610b458187038261517e565b604051918291602083526020830190615344565b82546001600160a01b0316845260209093019260019283019201610b2e565b3461048257600036600319011261048257602061ffff601d5460401c16604051908152f35b3461048257604036600319011261048257610bb661500e565b610bbe615024565b9060018060a01b0316600052600860205260406000209060018060a01b031660005260205260606040600020546001600160401b0360405191818116835261ffff8160401c16602084015260501c166040820152f35b34610482576020366003190112610482576004356001600160401b03811161048257610c44903690600401615284565b9081151580610cb1575b610c57906157a3565b610c6082616907565b9160005b818110610c81576040516020808252819061062690820187615381565b80610c9a610c9561064360019486886157ea565b616873565b61ffff610ca7838861586d565b9116905201610c64565b506064821115610c4e565b34610482576000366003190112610482576003546040516001600160a01b039091168152602090f35b34610482576020366003190112610482576001600160a01b03610d0661500e565b16806000526009602052604060002080549160009060005b848110610ea45750610d2f82615856565b93610d3d604051958661517e565b828552601f19610d4c84615856565b01366020870137610d5c83616907565b91610d6f610d6985616907565b94616907565b9460009160005b848110610dcb57610da1896106268a610dbd8b610daf8c604051978897608089526080890190615344565b908782036020890152615381565b9085820360408701526153b9565b9083820360608501526153b9565b816000526008602052604080600020610de4838661581b565b905460039190911b1c6001600160a01b0316600090815260209190915220546001600160401b03811642811180610e94575b610e25575b5050600101610d76565b946001600160401b03610e8c9284978d610e5985610e456001998c61581b565b8a8060a01b0391549060031b1c169261586d565b5261ffff8260401c16610e6c858d61586d565b52610e77848d61586d565b5260501c16610e86828c61586d565b52615706565b93908a610e1b565b5061ffff8260401c161515610e16565b816000526008602052604080600020610ebd838761581b565b905460039190911b1c6001600160a01b031660009081526020919091522054426001600160401b038216119081610f11575b50610efd575b600101610d1e565b91610f09600191615706565b929050610ef5565b61ffff915060401c16151586610eef565b3461048257604036600319011261048257610f3b61500e565b610f43615024565b90610f4c616939565b6001600160a01b03169081158015610fe9575b610ad357600180546001600160a01b03199081168417909155600280549091166001600160a01b0390921691821790556040519182527f15e04fee0c1335178e78e4dc6a8b0dcade867d1aea65418bf1200bc322ab7c2191602091907fbc62e69a31739e36d57d56991ac20e4e507a7edfff9070e6a11df5a37b8b4e6f908390a1604051908152a1005b506001600160a01b03811615610f5f565b34610482576040366003190112610482576001600160a01b0361101b61500e565b16600052600760205260406000206024356000526020526020604060002054604051908152f35b34610482576020366003190112610482576020611060610c9561500e565b61ffff60405191168152f35b3461048257604036600319011261048257611085615067565b61108d615078565b611095616939565b6101f461ffff8316116111405761ffff16906103e882116111005763ffff00006017549160101b169063ffffffff191617176017556105436040516110db60408261517e565b60138152721bdc195c985d1bdc97db1a5b5a5d1cd7dcd95d606a1b6020820152616e0e565b60405162461bcd60e51b81526020600482015260186024820152770a68a8aa47440dac2f040c8c2d2d8f240e8dede40d0d2ced60431b6044820152606490fd5b60405162461bcd60e51b81526020600482015260196024820152780a68a8aa47440dac2f040e6d2dcced8ca40e8dede40d0d2ced603b1b6044820152606490fd5b3461048257600036600319011261048257602061ffff600d5460d01c16604051908152f35b34610482576020366003190112610482576111bf61500e565b60ff601354166105bc5733600052600e60205260ff60406000205416156113f1576001600160a01b03811690811515806113e7575b156113ab576000828152600f60205260409020546001600160a01b031661136c573360005260106020526040600020546011549061ffff8260101c1611156113335761ffff8061124333616873565b92169116106112f1576000828152600f6020908152604080832080546001600160a01b031916339081179091558352601090915290206105439290611289908390615833565b337f1bf74c66f4733e451868185ff432d08e19f3e4bc28fd5bcc2670180c6da92e99600080a360408051906112be818361517e565b601082526f1b595b9d195957dcdc1bdb9cdbdc995960821b602083015251916112e860208461517e565b6000835261695e565b60405162461bcd60e51b815260206004820152601a602482015279534545523a206d656e746f722073636f726520746f6f206c6f7760301b6044820152606490fd5b60405162461bcd60e51b8152602060048201526011602482015270534545523a206d6178206d656e7465657360781b6044820152606490fd5b60405162461bcd60e51b815260206004820152601760248201527629a2a2a91d1036b2b73a32b2903430b99036b2b73a37b960491b6044820152606490fd5b60405162461bcd60e51b8152602060048201526014602482015273534545523a20696e76616c6964206d656e74656560601b6044820152606490fd5b50338214156111f4565b60405162461bcd60e51b815260206004820152601060248201526f29a2a2a91d103737ba1036b2b73a37b960811b6044820152606490fd5b34610482576020366003190112610482576001600160a01b0361144a61500e565b16600052600c60205260206001600160401b0360406000205416604051908152f35b346104825760203660031901126104825761148561500e565b61148d616939565b600380546001600160a01b0319166001600160a01b039290921691821790557f77f7b83d6373c1af6ae71265155348a0c6fea12c006fef945c4f8954e61087c2600080a2005b34610482576040366003190112610482576114ec61500e565b6114f4615024565b9060018060a01b0316600052601460205260406000209060018060a01b031660005260205260206001600160401b0360406000205416604051908152f35b34610482576000366003190112610482576020602154604051908152f35b34610482576020366003190112610482576001600160a01b0361157161500e565b16600052601c6020526020604060002054604051908152f35b3461048257600036600319011261048257602061ffff600d5460401c16604051908152f35b3461048257600036600319011261048257602061ffff60175416604051908152f35b34610482576020366003190112610482576004356001600160401b038111610482576116019036906004016150ab565b908115158061198c575b611614906155d7565b33600052602080526002604060002001546001600160401b0381161590811561197e575b5015611942576040519160c083018381106001600160401b038211176118ad57604052338352611669368284615621565b6020840190815260408401936001600160401b03421685526060810194600086526080820160008152602096604051946116a3898761517e565b600080875260a0860196875233815289805260409020945185546001600160a01b0319166001600160a01b039190911617855551805160018601916001600160401b0382116118ad57611700826116fa8554615129565b85615667565b8a90601f83116001146118ce57926117308361175c9460039a99979461176599976000926118c3575b50506156b9565b90555b6001600160401b038060028801955116166001600160401b0319855416178455511515836156cc565b511515906156e9565b0190518051906001600160401b0382116118ad57611787826116fa8554615129565b8590601f831160011461183d578261182b9593610543989795936117b3936000926118325750506156b9565b90555b6117c1602154615706565b6021556040518481527f847065330edb730c1ec21ebbf03603a63880d25a2480c3b9852d0551ad80756d3391806117fb8882018688615715565b0390a26b185c1c19585b17d99a5b195960a21b6040519461181d60408761517e565b600c86528501523691615621565b903361695e565b015190508980611729565b90601f1983169184600052876000209260005b818110611896575092600192859261182b98966105439b9a98961061187d575b505050811b0190556117b6565b015160001960f88460031b161c19169055888080611870565b929389600181928786015181550195019301611850565b634e487b7160e01b600052604160045260246000fd5b015190508f80611729565b60008481528c8120929190601f198516908e5b82821061192a575050936003999896936117659896936001938361175c9810611912575b505050811b019055611733565b0151600019838d1b60f8161c191690558e8080611905565b806001869782949787015181550196019401906118e1565b60405162461bcd60e51b8152602060048201526014602482015273534545523a2061707065616c2070656e64696e6760601b6044820152606490fd5b60ff915060401c1683611638565b506101f482111561160b565b34610482576060366003190112610482576119b161500e565b6119b9615058565b906044356001600160401b038111610482576119d99036906004016150ab565b906119e2616939565b6001600160a01b0383166000818152602080526040902060028101805491906001600160401b03831615611bf85760ff8360401c16611bbb5760ff60401b19909216600160401b178255600391611a3a9088906156e9565b01946001600160401b0384116118ad57611a5e84611a588854615129565b88615667565b600095601f8511600114611b2e57611b0b9392917fec5cb6b9077be93ff2307b61c4b6793dd8a820336c6f61327ef42adf8592977a91611aab87806105439b600091611b23575b506156b9565b90555b60215480611b11575b5060405190151581526040602082015280611ad6604082018887615715565b0390a260405192611ae860408561517e565b600f84526e185c1c19585b17dc995cdbdb1d9959608a1b60208501523691615621565b9161695e565b611b1a90615796565b60215588611ab7565b90508701358c611aa5565b8087526020872096601f198616815b818110611ba357509161054398611b0b96959492887fec5cb6b9077be93ff2307b61c4b6793dd8a820336c6f61327ef42adf8592977a9510611b89575b5050600187811b019055611aae565b86013560001960038a901b60f8161c191690558980611b7a565b868301358a5560019099019860209283019201611b3d565b60405162461bcd60e51b815260206004820152601560248201527414d151548e88185c1c19585b081c995cdbdb1d9959605a1b6044820152606490fd5b60405162461bcd60e51b815260206004820152600f60248201526e14d151548e881b9bc8185c1c19585b608a1b6044820152606490fd5b3461048257602036600319011261048257600435601b5481101561048257611c5690615325565b5080546001600160a01b03166002611c706001840161519f565b92015460ff611c916040519485948552608060208601526080850190615243565b91818116604085015260081c16151560608301520390f35b3461048257602036600319011261048257611cc261500e565b6001600160a01b0381166000818152600960205260408120805491929190835b828110611d255750505061ffff611cfa606094617081565b1690600052600b60205261ffff604060002054169061ffff6040519316835260208301526040820152f35b836000526008602052604080600020611d3e838561581b565b905460039190911b1c6001600160a01b031660009081526020919091522054426001600160401b038216119081611dab575b50611d7e575b600101611ce2565b9361ffff1661ffff8114611d955760010193611d76565b634e487b7160e01b600052601160045260246000fd5b61ffff915060401c16151587611d70565b34610482576040366003190112610482576020611de3611dda61500e565b6024359061681a565b6040519015158152f35b3461048257600036600319011261048257602061ffff60175460101c16604051908152f35b346104825760406001600160401b03611e33611e2d366152b4565b91615dca565b835191151582529091166020820152f35b346104825760203660031901126104825760e0611e5f61500e565b61ffff611e6b82616873565b6011546001600160a01b039384166000908152600e6020908152604080832054600f835281842054601090935292205460ff9092161595928516928692911690851682611ee0575b604051961587528160208801526040870152151560608601521515608085015260a08401521660c0820152f35b915082858516101591611eb3565b3461048257600036600319011261048257602061ffff600d5460101c16604051908152f35b34610482576020366003190112610482576001600160a01b03611f3461500e565b16600052600b602052602061ffff60406000205416604051908152f35b34610482576000366003190112610482576020601f54604051908152f35b346104825760003660031901126104825760206001600160401b03601a5460081c16604051908152f35b34610482576000366003190112610482576004546040516001600160a01b039091168152602090f35b34610482576020366003190112610482576004356001600160401b03811161048257611ff2903690600401615284565b9060ff601354166105bc5761200b60ff601a5416615d62565b81151580612186575b1561214b57426001600160401b031660005b83811061202f57005b8061204061064360019387876157ea565b828060a01b038116908160005260196020526001600160401b03604060002054168015612143576001600160401b0361207d6201518092886153f6565b1604906001600160401b03601a5460081c166001600160401b03831610612143576120aa61ffff91615454565b9050919091166120bf575b5050505b01612026565b6000838152600560209081526040808320805461ffff86811661ffff1983161790925560199093529281902080546001600160401b038b166001600160401b0319909116179055517f6f31909d6110ef8da858cbb62b280e06f6073e5ef7c13784cbbd52d4d0a12f0a9490938493612138931684615da5565b0390a28580806120b5565b5050506120b9565b60405162461bcd60e51b81526020600482015260136024820152720a68a8aa47440d2dcecc2d8d2c840c4c2e8c6d606b1b6044820152606490fd5b506032821115612014565b346104825760003660031901126104825760206040516113888152f35b346104825760203660031901126104825760206110606121cc61500e565b615ba2565b3461048257600036600319011261048257602061ffff600d5460301c16604051908152f35b34610482576000366003190112610482576002546040516001600160a01b039091168152602090f35b34610482576020366003190112610482576001600160a01b0361224061500e565b168033036122b5575b80600052600e602052604060002060ff1981541690557f5808667fab0acf73544191fca46e124794dcc62e60b174ac3f5c88b7b5299425600080a261054360405161229560408261517e565b600e81526d1b595b9d1bdc97dc995d9bdad95960921b6020820152616e0e565b6122bd616939565b612249565b346104825760403660031901126104825760043560ff81168091036104825760243560ff811691828203610482576122f8616939565b82810160ff8111611d955760ff6064911603612390577fdc0c1a85c25b1a7535e6884d4ffc9fc836d9897f70e1a7f1c36c97eef3bcdf9c926040928261ff00601d549260081b169161ffff19161717601d5582519182526020820152a161054360405161236660408261517e565b6018815277191958d95b9d1c985b1a5e985d1a5bdb97dd5c19185d195960421b6020820152616e0e565b60405162461bcd60e51b815260206004820152601d60248201527f534545523a2077656967687473206d7573742073756d20746f203130300000006044820152606490fd5b346104825760203660031901126104825760ff6123f3610c9561500e565b601d5461ffff91821691601082901c16821161246f5760009161ffff61245160405161242060408261517e565b6009815268131bddc8151c9d5cdd60ba1b60208201525b604051968796168652608060208701526080860190615243565b92818160301c16831015604086015260401c16111560608301520390f35b602081901c61ffff1682106124b15760029161ffff61245160405161249560408261517e565b600a815269121a59da08151c9d5cdd60b21b6020820152612437565b60019161ffff6124516040516124c860408261517e565b600c81526b1359591a5d5b48151c9d5cdd60a21b6020820152612437565b34610482576040366003190112610482576124ff61500e565b6001600160a01b031660009081526018602052604090208054602435919082101561048257608091612530916152f3565b50600181549101546001600160401b036040519261ffff8116845261ffff8160101c16602085015260201c1660408301526060820152f35b3461048257602036600319011261048257602061106061258661500e565b615881565b34610482576020366003190112610482576001600160a01b036125ac61500e565b16600052601660205260206001600160401b0360406000205416604051908152f35b34610482576020366003190112610482576125e761500e565b6125ef616939565b6001600160a01b03166000818152601c6020526040902054801561269b576000198101908111611d9557612624600291615325565b500161ff0019815416905580600052601c602052600060408120557f826628d8ed5b5660f5dcbab7a54b068dec5e76bbbe84185612d70605652b3a01600080a261054360405161267560408261517e565b60148152731cd8dbdc9957dcdbdd5c98d957dc995b5bdd995960621b6020820152616e0e565b60405162461bcd60e51b815260206004820152601660248201527514d151548e881cdbdd5c98d9481b9bdd08199bdd5b9960521b6044820152606490fd5b34610482576040366003190112610482576126f261500e565b6126fa615024565b9060018060a01b0316600052601560205260406000209060018060a01b0316600052602052602061ffff60406000205416604051908152f35b3461048257600036600319011261048257602060ff601354166040519015158152f35b34610482576020366003190112610482576001600160a01b0361277761500e565b1660005260186020526040600020805490600a82116000146128ff57600a5b61279f81615856565b916127ad604051938461517e565b818352601f196127bc83615856565b0160005b8181106128cc57505060005b8281106128535783856040519182916040830190835260406020840152815180915260206060840192019060005b818110612808575050500390f35b91935091602060806001926060875161ffff815116835261ffff8582015116858401526001600160401b036040820151166040840152015160608201520194019101918493926127fa565b82850390858211611d955761287361286d8260019461580e565b846152f3565b50826040519161288283615163565b6001600160401b03815461ffff8116855261ffff8160101c16602086015260201c166040840152015460608201526128ba828761586d565b526128c5818661586d565b50016127cc565b6020906040516128db81615163565b600081526000838201526000604082015260006060820152828288010152016127c0565b81612796565b3461048257612913366152b4565b60ff601393929354166105bc576001600160a01b0382169081158015612d51575b612d405760a08111612d2f57600d54916001600160401b038360901c1680612cb5575b5061ffff8061296533616873565b169360d01c168310612c935761297a84616ed5565b60008181526008602090815260408083203384529091529020546001600160401b03164210612ca45780600052600960205261ffff6040600020541694600d5461ffff8160301c16871015612c935733600052600b60205261ffff6040600020541661ffff8260401c161115612c935761ffff81169461ffff601d5460201c161115612c83575b612a0a33615e5b565b612c73575b61ffff8160101c168061ffff871611612c6b575b50612a3c61ffff612a3388617081565b9616809661580e565b61ffff8260201c1610612c2e57612a606001600160401b03809260501c164261580e565b16916001600160401b0342169260405193606085018581106001600160401b038211176118ad5760409081528286526020808701898152828801848152600087815260088452848120338083529085528582209a518b54945193516001600160901b03199095166001600160401b03919091161792861b61ffff60401b169290921760509390931b600160501b600160901b03169290921790985585815260099091522061054399612c2896612b1f92612b1a9190615833565b61542a565b83600052600a60205261ffff6040600020911661ffff1982541617905533600052600b602052604060002061ffff612b598183541661542a565b1661ffff1982541617905533600052600c60205260406000206001600160401b0382166001600160401b03198254161790558260005260196020526001600160401b03604060002091166001600160401b0319825416179055604051908682526020820152606060408201527fd7b6373d0cc8185cacb0cd7341ab8a20f17ea855f4ff4b8199ff544d5335b5af339180612bf7606082018988615715565b0390a360405192612c0960408561517e565b600b84526a195b991bdc9cd95b595b9d60aa1b60208501523691615621565b926169ff565b60405162461bcd60e51b81526020600482015260156024820152740534545523a20656e646f7273656d656e742063617605c1b6044820152606490fd5b945087612a23565b93612c7d90615416565b93612a0f565b93612c8d90615416565b93612a01565b63cb450d2360e01b60005260046000fd5b635361ab1760e01b60005260046000fd5b33600052600c6020526001600160401b0360406000205416016001600160401b038111611d95576001600160401b03164210612cf15785612957565b60405162461bcd60e51b815260206004820152601660248201527529a2a2a91d1032b73237b939b29031b7b7b63237bbb760511b6044820152606490fd5b6302f9198160e51b60005260046000fd5b63f973482560e01b60005260046000fd5b50338214612934565b34610482576080366003190112610482576004356001600160401b03811161048257612d8a903690600401615284565b60243591612d9661503a565b9260643590612da3616939565b83151580612ef8575b612db5906157a3565b60005b848110612e4a576105438560008815612e155750604051612dda60408261517e565b601381527218985919d957d8985d18da17d9dc985b9d1959606a1b6020820152905b60405191612e0b60208461517e565b60008352306169ff565b50604051612e2460408261517e565b601381527218985919d957d8985d18da17dc995d9bdad959606a1b602082015290612dfc565b6001906001600160a01b03612e636106438389896157ea565b16806000526006602052604060002084600052602052612e938860406000209060ff801983541691151516179055565b8780612eef575b15612ec1576000526007602052604060002083600052602052836040600020555b01612db8565b8715612ece575b50612ebb565b60005260076020526040600020836000526020526000604081205587612ec8565b50841515612e9a565b506064841115612dac565b34610482576020366003190112610482576001600160a01b03612f2461500e565b16600052600f602052602060018060a01b0360406000205416604051908152f35b34610482576000366003190112610482576001546040516001600160a01b039091168152602090f35b3461048257604036600319011261048257612f8761500e565b612f8f615058565b90612f98616939565b6001600160a01b03168015610ad357806000526012602052612fca8260406000209060ff801983541691151516179055565b7f1a594081ae893ab78e67d9b9e843547318164322d32c65369d78a96172d9dc8f60206040518415158152a260009015613030575061054360405161301060408261517e565b600e81526d1bdc195c985d1bdc97d85919195960921b6020820152616e0e565b5061054360405161304260408261517e565b601081526f1bdc195c985d1bdc97dc995b5bdd995960821b6020820152616e0e565b3461048257600036600319011261048257602060ff601d5460081c16604051908152f35b3461048257600036600319011261048257602061ffff601d5460101c16604051908152f35b34610482576020366003190112610482576130c661500e565b6001600160a01b038181166000818152600f60205260409020549091169190821561323257823303613225575b82600052601060205260406000209283549360005b85811061318e575b50506000828152600f6020526040812080546001600160a01b031916905561054394507fc890e92b7f9c8c46c61cd0ac0d88ba6817effe750591001f30845df0f3645fd89080a36040805190613166818361517e565b600e82526d1b595b9d195957dc995b5bdd995960921b602083015251916112e860208461517e565b83613199828461581b565b905460039190911b1c6001600160a01b0316146131b857600101613108565b906000198601958611611d955761321961321e926131f56131dc610543998561581b565b905460039190911b1c6001600160a01b0316918461581b565b9080546001600160a01b0360039390931b83811b199091169290931690921b179055565b616e92565b8480613110565b61322d616939565b6130f3565b60405162461bcd60e51b815260206004820152600f60248201526e29a2a2a91d1037379036b2b73a37b960891b6044820152606490fd5b34610482576020366003190112610482576001600160a01b0361328a61500e565b166000908152602080526040902080546001600160a01b03166106266132b26001840161519f565b926132c460036002830154920161519f565b60ff6132e2604051968796875260c0602088015260c0870190615243565b926001600160401b0381166040870152818160401c161515606087015260481c161515608085015283820360a0850152615243565b346104825760603660031901126104825761333061500e565b6024356001600160401b0381116104825761334f9036906004016150ab565b906044359260ff841680940361048257613367616939565b6001600160a01b031691821561363157606484116135f75782600052601c6020526040600020546135bc576040519361339f85615163565b8385526133ad368385615621565b94602081019586526040810190828252606081019060018252601b54600160401b8110156118ad578060016133e59201601b55615325565b9190916135a6575181546001600160a01b0319166001600160a01b03919091161781559651805190979060018201906001600160401b0381116118ad57613436816134308454615129565b84615667565b6020601f821160011461351857916134808260ff95936002957f28074cc836ee3f9b71c5f19669ad560de5d34c8d7b0cfcd86301093fba4908ed9d9e60009261350d5750506156b9565b90555b0192511660ff1983541617825551151561ff0082549160081b169061ff001916179055601b5485600052601c6020526040600020556134cf604051938493604085526040850191615715565b9060208301520390a26105436040516134e960408261517e565b60128152711cd8dbdc9957dcdbdd5c98d957d85919195960721b6020820152616e0e565b015190508e80611729565b601f1982169a83600052816000209b60005b81811061358e5750927f28074cc836ee3f9b71c5f19669ad560de5d34c8d7b0cfcd86301093fba4908ed9b9c600295936001938360ff999710613575575b505050811b019055613483565b015160001960f88460031b161c191690558d8080613568565b838301518e556001909d019c6020938401930161352a565b634e487b7160e01b600052600060045260246000fd5b60405162461bcd60e51b8152602060048201526013602482015272534545523a20736f757263652065786973747360681b6044820152606490fd5b60405162461bcd60e51b81526020600482015260126024820152710534545523a20776569676874203e203130360741b6044820152606490fd5b60405162461bcd60e51b8152602060048201526011602482015270534545523a207a65726f20736f7572636560781b6044820152606490fd5b346104825761010036600319011261048257613684615067565b61368c615078565b90613695615089565b9161369e61509a565b9060843561ffff8116918282036104825760a435936001600160401b0385168086036104825760c435966001600160401b0388168089036104825760e4359261ffff8416928385036104825761ffff906136f6616939565b169788151580613a8b575b15613a4c5761ffff8716898110159081613a3f575b5015613a01578861ffff8d16106139c65761ffff861680151590816139ba575b5015613981578015159081613975575b501561393e5762093a80811015908161392f575b50156138f35761025881101590816138e5575b50156138a957600a811015908161389c575b501561385f57600d805460909890981b67ffffffffffffffff60901b1660509790971b600160501b600160901b0316600160301b600160e01b03199096166001600160e01b03199098169790971760109390931b63ffff0000169290921760209790971b61ffff60201b169690961760309690961b61ffff60301b1695909517604091821b61ffff60401b1617919091179190911760d09390931b61ffff60d01b16929092179055805161054391613837908261517e565b6016815275195b991bdc9cd95b595b9d17dc1bdb1a58de57dcd95d60521b6020820152616e0e565b60405162461bcd60e51b8152602060048201526015602482015274534545523a206d696e2073636f72652072616e676560581b6044820152606490fd5b612710915011158961377f565b60405162461bcd60e51b8152602060048201526014602482015273534545523a20636f6f6c646f776e2072616e676560601b6044820152606490fd5b62093a80915011158a61376d565b60405162461bcd60e51b8152602060048201526014602482015273534545523a2076616c69646974792072616e676560601b6044820152606490fd5b6301e13380915011158b61375a565b60405162461bcd60e51b815260206004820152600f60248201526e0534545523a20676976656e2063617608c1b6044820152606490fd5b60c8915011158c613746565b60405162461bcd60e51b81526020600482015260116024820152700534545523a207375626a6563742063617607c1b6044820152606490fd5b6032915011158d613736565b60405162461bcd60e51b8152602060048201526013602482015272534545523a20626f6e757320636170206c6f7760681b6044820152606490fd5b60405162461bcd60e51b815260206004820152601660248201527529a2a2a91d1036b0bc103832b91032b73237b939b2b960511b6044820152606490fd5b61012c915011158d613716565b60405162461bcd60e51b8152602060048201526017602482015276534545523a2062617365206f7574206f662072616e676560481b6044820152606490fd5b5060c8891115613701565b3461048257600036600319011261048257602061ffff601d5460301c16604051908152f35b346104825760003660031901126104825760206001600160401b03600d5460501c16604051908152f35b3461048257606036600319011261048257613afe61500e565b613b06615058565b90604435918260010b80930361048257613b1e616939565b6001600160a01b0382166000818152601e6020526040902060020180546001600160401b03811615613d1d5760ff8160401c16613cdf5760ff60401b1916600160401b178155610543947f2eec6b0a78eba6860ae5bb6579b36b4b751ba52ee7d16723279b46572c96469d9160409190613b999086906156e9565b8480613cd6575b613c2c575b601f5480613c1a575b5081519085151582526020820152a215613c12576001905b604060ff815191613bd7818461517e565b60168352751cd8dbdc9957d91a5cdc1d5d1957dc995cdbdb1d995960521b60208401525193613c0760208661517e565b6000855216916169ff565b600090613bc6565b613c2390615796565b601f5587613bae565b836000805160206173c783398151915260a061ffff613c4a8a616873565b16613c55858261577a565b600a8112613cce575b6127108113613cc5575b600085815260056020908152888220805461ffff191661ffff948516179055908890205488519384529091169082015260608187018190526010908201526f191a5cdc1d5d1957dc995cdbdb1d995960821b6080820152a2613ba5565b50612710613c68565b50600a613c5e565b50801515613ba0565b60405162461bcd60e51b815260206004820152601660248201527514d151548e88185b1c9958591e481c995cdbdb1d995960521b6044820152606490fd5b60405162461bcd60e51b815260206004820152601660248201527514d151548e881b9bc8191a5cdc1d5d1948199bdd5b9960521b6044820152606490fd5b3461048257600036600319011261048257602061ffff601d54821c16604051908152f35b3461048257600036600319011261048257602061ffff601a5460481c16604051908152f35b3461048257602036600319011261048257613dbd61500e565b613dc5616939565b600480546001600160a01b0319166001600160a01b039290921691821790557fe4684f339ba56463e5cadcd26648b097a048a5f17251bfea9591d8c6a6081318600080a2005b34610482576000366003190112610482576000546040516001600160a01b039091168152602090f35b34610482576000366003190112610482576020604051600a8152f35b3461048257613e5e366150d8565b613e69939293616939565b6001600160a01b038316938415610ad35761ffff8116926127108411612d2f57610543956000805160206173c7833981519152612c2893613ea988616873565b83600052600560205260406000208861ffff19825416179055613ed3878660405194859485615755565b0390a260405192613ee560408561517e565b600e84526d1cd9595c97dcd8dbdc9957dcd95d60921b60208501523691615621565b3461048257600036600319011261048257602060405160328152f35b34610482576040366003190112610482576001600160a01b03613f4461500e565b1660005260066020526040600020602435600052602052602060ff604060002054166040519015158152f35b34610482576000366003190112610482576000601b5460005b818110613fa0575060409182519182526020820152f35b60ff6002613fad83615325565b50015460081c16613fc1575b600101613f89565b91613fcd600191615706565b929050613fb9565b3461048257606036600319011261048257613fee615049565b6024356001600160401b03811680820361048257601e61400c615089565b91614015616939565b106140d5576101f461ffff8216116140935768ffffffffffffffff009060ff601a549161ffff60481b9060481b16941515169060018060581b031916179160081b161717601a5561054360405161406d60408261517e565b6014815273191958d85e57d8dbdb999a59d7dd5c19185d195960621b6020820152616e0e565b60405162461bcd60e51b815260206004820152601a602482015279534545523a20646563617920746f6f206167677265737369766560301b6044820152606490fd5b60405162461bcd60e51b815260206004820152601b60248201527a14d151548e88191958d85e481cdd185c9d081d1bdbc81cda1bdc9d602a1b6044820152606490fd5b346104825760203660031901126104825761413161500e565b6001600160a01b03811660008181526005602052604090205461ffff16908115614248575b61416861416284615ba2565b93616873565b92601d549060018060a01b036002541680151593846141bd575b50509061ffff60c0958160ff948160405198168852166020870152166040850152818116606085015260081c166080830152151560a0820152f35b60209193929450602460405180958193630709df4560e01b835260048301525afa801561423c5760c09561ffff809260ff9560009161420d575b5060018060a01b03161515959394505095614182565b61422f915060203d602011614235575b614227818361517e565b810190615736565b896141f7565b503d61421d565b6040513d6000823e3d90fd5b905061425382615881565b90614156565b3461048257600036600319011261048257602061ffff600d5416604051908152f35b3461048257600036600319011261048257602060ff601d5416604051908152f35b346104825760003660031901126104825760206040516127108152f35b34610482576020366003190112610482576001600160a01b036142da61500e565b16600052600a602052602061ffff60406000205416604051908152f35b346104825760203660031901126104825761431061500e565b60ff601354166105bc5761054390616ed5565b3461048257600036600319011261048257602061ffff600d54821c16604051908152f35b3461048257614355366150d8565b919260018060a01b036000541633141580614546575b6145355760ff601354166105bc5761ffff60175460101c169061ffff85169182116144f057336000526016602052620151806001600160401b0360406000205416016001600160401b038111611d95576001600160401b031642101561449f575b336000526015602052604060002060018060a01b0382166000526020526143fc8561ffff6040600020541661543e565b61ffff8060175416911611614450576105439433600052601560205261ffff61444060408060002060009060018060a01b038716825260205220928284541661543e565b1661ffff19825416179055616aa4565b60405162461bcd60e51b815260206004820152602160248201527f534545523a206461696c7920726577617264206c696d697420657863656564656044820152601960fa1b6064820152608490fd5b33600090815260166020908152604080832080546001600160401b031916426001600160401b0316179055601582528083206001600160a01b03851684529091529020805461ffff191690556143cc565b60405162461bcd60e51b815260206004820152601f60248201527f534545523a207265776172642065786365656473206d61782073696e676c65006044820152606490fd5b634c87459760e11b60005260046000fd5b5033600052601260205260ff604060002054161561436b565b3461048257602036600319011261048257614578615049565b614580616939565b7f0e2fb031ee032dc02d8011dc50b816eb450cf856abd8261680dac74f72165bd2602082151560ff196013541660ff821617601355604051908152a1600090156145f357506105436040516145d660408261517e565b600b81526a1cd9595c97dc185d5cd95960aa1b6020820152616e0e565b5061054360405161460560408261517e565b600d81526c1cd9595c97dd5b9c185d5cd959609a1b6020820152616e0e565b34610482576020366003190112610482576001600160a01b0361464561500e565b166000526012602052602060ff604060002054166040519015158152f35b34610482576020366003190112610482576004356001600160401b038111610482576146939036906004016150ab565b8015158061493e575b6146a5906155d7565b33600052601e6020526001600160401b0360026040600020015416158015614920575b156148e35760405160a081018181106001600160401b038211176118ad576040523381526146f7368385615621565b6020828101918252426001600160401b03908116604080860191825260006060870181815260808801828152338352601e909652919020955186546001600160a01b0319166001600160a01b0391909116178655935180519195939493926001840192919082116118ad57614770826116fa8554615129565b602090601f831160011461485f576001600160401b03600261182b99966105439c99966147b08761175c986147d09c9887986000926148545750506156b9565b90555b01955116166001600160401b0319855416178455511515836156cc565b6147db601f54615706565b601f55604051602081527fb23ac579e6192f602dcd9cb4739d7aac62bf98df815a123ea748071d25b80875339180614817602082018887615715565b0390a26040519261482960408561517e565b60178452761cd8dbdc9957d91a5cdc1d5d1957dc995c5d595cdd1959604a1b60208501523691615621565b015190503880611729565b90601f1983169184600052816000209260005b8181106148cb575061182b99966105439c99966001876147d09b976001600160401b0397889761175c9b600298106148b2575b505050811b0190556147b3565b015160001960f88460031b161c191690553880806148a5565b92936020600181928786015181550195019301614872565b60405162461bcd60e51b8152602060048201526015602482015274534545523a20646973707574652070656e64696e6760581b6044820152606490fd5b5033600052601e60205260ff60026040600020015460401c166146c8565b506101f481111561469c565b34610482576020366003190112610482576001600160a01b0361496b61500e565b166000908152601e6020526040902080546001600160a01b031660026149936001840161519f565b92015460ff6149b4604051948594855260a0602086015260a0850190615243565b916001600160401b0381166040850152818160401c161515606085015260481c16151560808301520390f35b34610482576040366003190112610482576149f9615067565b61ffff614a04615078565b91614a0d616939565b169061138882101580614b18575b15614ad35761ffff811691600183101580614ac8575b15614a83577f273cee8c4dd4641fdf7f817df77d9ad070ab040ab68b2b923bf6a49c6ec673ee926040928263ffff00006011549260101b169163ffffffff1916171760115582519182526020820152a1005b60405162461bcd60e51b815260206004820152601d60248201527f534545523a206d656e746f72206d6178206f7574206f662072616e67650000006044820152606490fd5b5060c8831115614a31565b60405162461bcd60e51b815260206004820152601d60248201527f534545523a206d656e746f72206d696e206f7574206f662072616e67650000006044820152606490fd5b50612710821115614a1b565b3461048257608036600319011261048257614b3d615067565b614b45615078565b90614b4e615089565b614b5661509a565b90614b5f616939565b61ffff84169161ffff841692808411612d2f576127108111612d2f576103e88410614d425761251c8111614cfd5761ffff831691610bb88310614cad5761ffff811693610bb88510614c69577f41bc9bed7ea81d63e5ff2964100fd598eb19876ddea235344dab5ef7c0af0c8997608097601d549361ffff60401b9060401b169363ffff000061ffff60401b199260101b169067ffffffffffff0000191617169061ffff60201b9060201b16179061ffff60301b9060301b161717601d55604051938452602084015260408301526060820152a1610543604051614c4460408261517e565b60138152721cd9595c97dd1a1c995cda1bdb191cd7dcd95d606a1b6020820152616e0e565b606460405162461bcd60e51b815260206004820152602060248201527f534545523a206d65726368616e74207468726573686f6c6420746f6f206c6f776044820152fd5b60405162461bcd60e51b815260206004820152602260248201527f534545523a20676f7665726e616e6365207468726573686f6c6420746f6f206c6044820152616f7760f01b6064820152608490fd5b60405162461bcd60e51b815260206004820152601d60248201527f534545523a2068696768207468726573686f6c6420746f6f20686967680000006044820152606490fd5b60405162461bcd60e51b815260206004820152601b60248201527a534545523a206c6f77207468726573686f6c6420746f6f206c6f7760281b6044820152606490fd5b3461048257600036600319011261048257602060ff601a54166040519015158152f35b3461048257614db6366150d8565b919260018060a01b036000541633141580614e45575b6145355760ff601354166105bc5761ffff8060175460101c169416938411614e0057614dfa610543946155ac565b90616aa4565b60405162461bcd60e51b815260206004820152601f60248201527f534545523a2070756e6973682065786365656473206d61782073696e676c65006044820152606490fd5b5033600052601260205260ff6040600020541615614dcc565b346104825760203660031901126104825760606001600160401b0361ffff614e8c614e8761500e565b615454565b9193908360405195168552166020840152166040820152f35b3461048257608036600319011261048257610543614ec161500e565b602435614ecc61503a565b606435614ed7616939565b60018060a01b038416806000526006602052604060002084600052602052614f0f8360406000209060ff801983541691151516179055565b8280614fde575b15614fae5760005260076020526040600020836000526020526040600020555b60009015614f805750604051614f4d60408261517e565b600d81526c18985919d957d9dc985b9d1959609a1b60208201525b60405192614f7760208561517e565b600084526169ff565b50604051614f8f60408261517e565b600d81526c18985919d957dc995d9bdad959609a1b6020820152614f68565b90508115614fbd575b50614f36565b60005260076020526040600020826000526020526000604081205584614fb7565b50811515614f16565b34610482576000366003190112610482576020906001600160401b03600d5460901c168152f35b600435906001600160a01b038216820361048257565b602435906001600160a01b038216820361048257565b60443590811515820361048257565b60043590811515820361048257565b60243590811515820361048257565b6004359061ffff8216820361048257565b6024359061ffff8216820361048257565b6044359061ffff8216820361048257565b6064359061ffff8216820361048257565b9181601f84011215610482578235916001600160401b038311610482576020838186019501011161048257565b6060600319820112610482576004356001600160a01b0381168103610482579160243561ffff811681036104825791604435906001600160401b03821161048257615125916004016150ab565b9091565b90600182811c92168015615159575b602083101461514357565b634e487b7160e01b600052602260045260246000fd5b91607f1691615138565b608081019081106001600160401b038211176118ad57604052565b90601f801991011681019081106001600160401b038211176118ad57604052565b90604051918260008254926151b384615129565b808452936001811690811561522157506001146151da575b506151d89250038361517e565b565b90506000929192526020600020906000915b8183106152055750509060206151d892820101386151cb565b60209193508060019154838589010152019101909184926151ec565b9050602092506151d894915060ff191682840152151560051b820101386151cb565b919082519283825260005b84811061526f575050826000602080949584010152601f8019910116010190565b8060208092840101518282860101520161524e565b9181601f84011215610482578235916001600160401b038311610482576020808501948460051b01011161048257565b906040600319830112610482576004356001600160a01b03811681036104825791602435906001600160401b03821161048257615125916004016150ab565b805482101561530f5760005260206000209060011b0190600090565b634e487b7160e01b600052603260045260246000fd5b601b5481101561530f57601b6000526003602060002091020190600090565b906020808351928381520192019060005b8181106153625750505090565b82516001600160a01b0316845260209384019390920191600101615355565b906020808351928381520192019060005b81811061539f5750505090565b825161ffff16845260209384019390920191600101615392565b906020808351928381520192019060005b8181106153d75750505090565b82516001600160401b03168452602093840193909201916001016153ca565b906001600160401b03809116911603906001600160401b038211611d9557565b61ffff600a9116019061ffff8211611d9557565b61ffff60019116019061ffff8211611d9557565b9061ffff8091169116019061ffff8211611d9557565b61545d81616873565b6001600160a01b039091166000908152601960205260409020546001600160401b03168015801561559f575b615595576001600160401b036154a562015180928242166153f6565b16049081601a54906001600160401b038260081c1690816001600160401b03821610615589575061ffff601e6001600160401b036154e48194886153f6565b16049260481c16911602806001600160401b03811603611d955761ffff169061ffff811690611388821160001461554857506113871981019061ffff8211611d9557829161ffff1682111561553b57505061138892565b0361ffff8111611d955792565b90611388811015615581576113880361ffff8111611d9557829061ffff1681111561557557505061138892565b61557e9161543e565b92565b505061138892565b94935050509190600090565b5090600090600090565b5060ff601a541615615489565b600160ff1b8114611d955760000390565b9063ffff000082549160101b169063ffff00001916179055565b156155de57565b60405162461bcd60e51b815260206004820152601b60248201527a0a68a8aa47440d2dcecc2d8d2c840e4cac2e6dedc40d8cadccee8d602b1b6044820152606490fd5b9291926001600160401b0382116118ad576040519161564a601f8201601f19166020018461517e565b829481845281830111610482578281602093846000960137010152565b601f821161567457505050565b6000526020600020906020601f840160051c830193106156af575b601f0160051c01905b8181106156a3575050565b60008155600101615698565b909150819061568f565b8160011b916000199060031b1c19161790565b805460ff60401b191691151560401b60ff60401b16919091179055565b805460ff60481b191691151560481b60ff60481b16919091179055565b6000198114611d955760010190565b908060209392818452848401376000828201840152601f01601f1916010190565b9081602091031261048257516001600160a01b03811681036104825790565b61ffff6157779593816060941683521660208201528160408201520191615715565b90565b91909160008382019384129112908015821691151617611d9557565b8015611d95576000190190565b156157aa57565b60405162461bcd60e51b8152602060048201526018602482015277534545523a20696e76616c69642062617463682073697a6560401b6044820152606490fd5b919081101561530f5760051b0190565b356001600160a01b03811681036104825790565b91908201809211611d9557565b805482101561530f5760005260206000200190600090565b80549190600160401b8310156118ad57826131f59160016151d89501815561581b565b6001600160401b0381116118ad5760051b60200190565b805182101561530f5760209160051b010190565b6001600160a01b038116908115615b7857600254611388926001600160a01b039091169081615b0d575b50506000916158b982615efa565b615b04575b6158c782615f8c565b615af2575b6158d58261601e565b615ae0575b6158e3826160b0565b615ace575b6158f182616142565b615abc575b6158ff826161d4565b615aaa575b61590d82616266565b615a98575b61591b82615e5b565b615a86575b615929826162f8565b615a74575b6159378261638a565b615a62575b6159458261641c565b615a50575b615953826164ae565b615a3e575b61596182616540565b615a2c575b61596f826165d2565b615a1a575b61597d82616664565b615a08575b61598b826166f6565b6159f6575b61599982616788565b6159d4575b6159ae6159ba936159b49261580e565b91617081565b9061580e565b61271081116159cb575b61ffff1690565b506127106159c4565b601e83018093111561599e57634e487b7160e01b600052601160045260246000fd5b9160288101809111611d955791615990565b9160148101809111611d955791615982565b9160288101809111611d955791615974565b9160328101809111611d955791615966565b9160328101809111611d955791615958565b91603c8101809111611d95579161594a565b9160288101809111611d95579161593c565b9160238101809111611d95579161592e565b91601e8101809111611d955791615920565b9160288101809111611d955791615912565b9160198101809111611d955791615904565b9160148101809111611d9557916158f6565b9160198101809111611d9557916158e8565b9160328101809111611d9557916158da565b9160288101809111611d9557916158cc565b601e92506158be565b602090602460405180948193630709df4560e01b835260048301525afa90811561423c57600091615b59575b506001600160a01b0316615b4f575b38806158ab565b61157c9150615b48565b615b72915060203d60201161423557614227818361517e565b38615b39565b505061138890565b519061ffff8216820361048257565b81810292918115918404141715611d9557565b6001600160a01b0381168015615b785760009182918390601b54915b828110615c3d57505050615bd190615881565b826064039060648211611d955783606403615c1a575b50508115615b7857046127108111615c11575b600a8110615c095761ffff1690565b50600a6159c4565b50612710615bfa565b615c35926159b48361ffff615c2f9416615b8f565b9261580e565b903880615be7565b60ff6002615c4a83615325565b50015460081c1615615d5a5760246040615c6383615325565b5054815163bc0824a360e01b81526004810186905292839182906001600160a01b03165afa806000928392615d06575b50615ca5575b50506001905b01615bbe565b60ff169081151580615cf6575b15615c995761ffff9097969192971691600a830292808404600a1490151715611d9557615ce8615cee926159b483600196615b8f565b9661580e565b959038615c99565b506103e861ffff82161115615cb2565b9091506040813d8211615d52575b81615d216040938361517e565b81010312615d4e576020615d3482615b80565b9101519260ff84168403615d4b5750919038615c93565b80fd5b8280fd5b3d9150615d14565b600190615c9f565b15615d6957565b60405162461bcd60e51b815260206004820152601460248201527314d151548e88191958d85e48191a5cd8589b195960621b6044820152606490fd5b61ffff9182168152911660208201526001600160401b03909116604082015260600190565b9190615dd7913691615621565b602081519101209060018060a01b031660005260186020526040600020908154805b615e0857505050600090600090565b6000198101818111611d9557826001615e2183876152f3565b50015414615e395750615e3390615796565b80615df9565b9050615e4e91506001600160401b03926152f3565b505460201c169060019190565b60018060a01b031680600052600660205260406000207ff4f1880c72d8dbafc9805eb1c4bcefcb30af90b0ae932e0f050c81b49112585760005260205260ff6040600020541615615ef457600052600760205260406000207ff4f1880c72d8dbafc9805eb1c4bcefcb30af90b0ae932e0f050c81b4911258576000526020526040600020548015908115615eed575090565b9050421090565b50600090565b60018060a01b031680600052600660205260406000207fa03d1a4a2c4366d3db0c7243a29eef9c5e849fe7328823e0b7288dab59d5231060005260205260ff6040600020541615615ef457600052600760205260406000207fa03d1a4a2c4366d3db0c7243a29eef9c5e849fe7328823e0b7288dab59d523106000526020526040600020548015908115615eed575090565b60018060a01b031680600052600660205260406000207f7866cd9bf5624adbb572bdf0ef2c6611719c1bd1dd881d077900477122585f5160005260205260ff6040600020541615615ef457600052600760205260406000207f7866cd9bf5624adbb572bdf0ef2c6611719c1bd1dd881d077900477122585f516000526020526040600020548015908115615eed575090565b60018060a01b031680600052600660205260406000207fcd25a284806e0931bbfbd59e48ca09094f95cc8a54899ac7cf670a7bc084e4c860005260205260ff6040600020541615615ef457600052600760205260406000207fcd25a284806e0931bbfbd59e48ca09094f95cc8a54899ac7cf670a7bc084e4c86000526020526040600020548015908115615eed575090565b60018060a01b031680600052600660205260406000207f0320a6eadcaf07ad703766ce2aae1e5a2302fd7b9236ecdacdc6089d556ee66160005260205260ff6040600020541615615ef457600052600760205260406000207f0320a6eadcaf07ad703766ce2aae1e5a2302fd7b9236ecdacdc6089d556ee6616000526020526040600020548015908115615eed575090565b60018060a01b031680600052600660205260406000207ffe3c33b66e28f14b3d890787766ee667031d474e01f41afd2282c6ddd242b13460005260205260ff6040600020541615615ef457600052600760205260406000207ffe3c33b66e28f14b3d890787766ee667031d474e01f41afd2282c6ddd242b1346000526020526040600020548015908115615eed575090565b60018060a01b031680600052600660205260406000207f1b4e571958fba4ea5c92407500c44c03a913f7a3c4f5746fc318ba401831b4e560005260205260ff6040600020541615615ef457600052600760205260406000207f1b4e571958fba4ea5c92407500c44c03a913f7a3c4f5746fc318ba401831b4e56000526020526040600020548015908115615eed575090565b60018060a01b031680600052600660205260406000207fa96fb0ea3366184fa9ef274bb2b523bb1410c5597f5b73e284bcc8d9c27caf8160005260205260ff6040600020541615615ef457600052600760205260406000207fa96fb0ea3366184fa9ef274bb2b523bb1410c5597f5b73e284bcc8d9c27caf816000526020526040600020548015908115615eed575090565b60018060a01b031680600052600660205260406000207ffe29986656bd77a1f0da32c9315bed40455567f6060bea388c123d4bafff845a60005260205260ff6040600020541615615ef457600052600760205260406000207ffe29986656bd77a1f0da32c9315bed40455567f6060bea388c123d4bafff845a6000526020526040600020548015908115615eed575090565b60018060a01b031680600052600660205260406000207fc4f6113bf43fb59dba21ffee106d9126a16fd7ef738a99e9f98f3366a7bcd62860005260205260ff6040600020541615615ef457600052600760205260406000207fc4f6113bf43fb59dba21ffee106d9126a16fd7ef738a99e9f98f3366a7bcd6286000526020526040600020548015908115615eed575090565b60018060a01b031680600052600660205260406000207fde4df86a0cfbc1ca19c1967d53b4f9d906c2f3e5f0b5637ff74d60111ad48d7460005260205260ff6040600020541615615ef457600052600760205260406000207fde4df86a0cfbc1ca19c1967d53b4f9d906c2f3e5f0b5637ff74d60111ad48d746000526020526040600020548015908115615eed575090565b60018060a01b031680600052600660205260406000207fe426caaf9f537d800bdc663bd466690f26963dfd7bb0ed1ed5f323a945377dfc60005260205260ff6040600020541615615ef457600052600760205260406000207fe426caaf9f537d800bdc663bd466690f26963dfd7bb0ed1ed5f323a945377dfc6000526020526040600020548015908115615eed575090565b60018060a01b031680600052600660205260406000207f22d441acdd22f4ae7f00407a46293dd53140dc9fa6beeef35e22cb018b26434460005260205260ff6040600020541615615ef457600052600760205260406000207f22d441acdd22f4ae7f00407a46293dd53140dc9fa6beeef35e22cb018b2643446000526020526040600020548015908115615eed575090565b60018060a01b031680600052600660205260406000207f8b5b16d04624687fcf0d0228f19993c9157c1ed07b41d8d430fd9100eb099fe860005260205260ff6040600020541615615ef457600052600760205260406000207f8b5b16d04624687fcf0d0228f19993c9157c1ed07b41d8d430fd9100eb099fe86000526020526040600020548015908115615eed575090565b60018060a01b031680600052600660205260406000207f8f1a39279a10a884ddf0b6a95d0e46f341a5809f447de8f39f0c29e43a91427260005260205260ff6040600020541615615ef457600052600760205260406000207f8f1a39279a10a884ddf0b6a95d0e46f341a5809f447de8f39f0c29e43a9142726000526020526040600020548015908115615eed575090565b60018060a01b031680600052600660205260406000207fa0bb1af1c90aa52ed052b92714ff0087008cc720049bf1af77cca2600b31e80c60005260205260ff6040600020541615615ef457600052600760205260406000207fa0bb1af1c90aa52ed052b92714ff0087008cc720049bf1af77cca2600b31e80c6000526020526040600020548015908115615eed575090565b60018060a01b031680600052600660205260406000207f9f56690334c710be9812966692e10c040bde4927265518b422c82505f65961ec60005260205260ff6040600020541615615ef457600052600760205260406000207f9f56690334c710be9812966692e10c040bde4927265518b422c82505f65961ec6000526020526040600020548015908115615eed575090565b60018060a01b031680600052600660205260406000208260005260205260ff604060002054161561686c5760005260076020526040600020906000526020526040600020548015908115615eed575090565b5050600090565b6001600160a01b03811660009081526005602052604090205461ffff169081156168f6575b601d549060ff8260081c169081156168f0576168d7929161ffff6168d06064968260ff6168c76159b497615ba2565b97169116615b8f565b9316615b8f565b046127108111615c1157600a8110615c095761ffff1690565b50505090565b905061690181615881565b90616898565b9061691182615856565b61691e604051918261517e565b828152809261692f601f1991615856565b0190602036910137565b6000546001600160a01b0316330361694d57565b63483e517d60e01b60005260046000fd5b600154600093926001600160a01b03909116918261697e575b5050505050565b823b156169fb57916169c2918580946169da60405197889687958694630303c28760e61b865260018060a01b03166004860152608060248601526084850190615243565b90846044850152600319848303016064850152615243565b03925af16169eb575b808080616977565b816169f59161517e565b386169e3565b8480fd5b600154600094936001600160a01b0390911692919083616a22575b505050505050565b833b15616aa0579185809492616a7e616a679560405198899788968795630303c28760e61b875260018060a01b03166004870152608060248701526084860190615243565b916044850152600319848303016064850152615243565b03925af1616a90575b80808080616a1a565b81616a9a9161517e565b38616a87565b8580fd5b92919092616ab181616873565b9061ffff821692616ac2868561577a565b600a8112616e06575b6127108113616dfd575b61ffff169460009660018060a01b0384169485895260056020526040892061ffff891661ffff19825416179055858952601860205260408920603281541015616cd9575b6001600160401b03421690616b2f368688615621565b6020815191012060405191616b4383615163565b8a8352602083018c8152604084018581526060850193845282549092600160401b821015616cc45790616b7b916001820181556152f3565b949094616cb057946001600160401b038f8f94908e976001616c559f9e9d9c9a98616bdd86604096612c289f9a61ffff616bd5916000805160206173c78339815191529f82809151161682198a54161789555116876155bd565b51168461739b565b5191015587815260196020522091166001600160401b0319825416179055616c0c878960405194859485615755565b0390a289811215616caa57616c20906155ac565b925b60405192616c3160408561517e565b601084526f736565725f73636f72655f64656c746160801b60208501523691615621565b6004546001600160a01b031680616c6d575050505050565b803b156169fb578492918360649260405196879586946319e9cbb760e01b86526004860152602485015260448401525af16169eb57808080616977565b92616c22565b634e487b7160e01b8f5260048f905260248ffd5b50634e487b7160e01b8f52604160045260248ffd5b9795939160019a97959391999a5b8954811015616d9f57616cfa818b6152f3565b506000198201828111616d8b57616d11908c6152f3565b919091616d77579081600193928203616d2d575b505001616ce7565b838161ffff80839454161661ffff19855416178455616d5461ffff825460101c16856155bd565b616d6b6001600160401b03825460201c168561739b565b01549101553880616d25565b634e487b7160e01b8e5260048e905260248efd5b634e487b7160e01b8e52601160045260248efd5b50919395979998909294969980548015616de95760001901616dc181836152f3565b616dd5576001818d80935501558155616b19565b634e487b7160e01b8c5260048c905260248cfd5b634e487b7160e01b8b52603160045260248bfd5b50612710616ad5565b50600a616acb565b6001546000916001600160a01b039091169081616e2a57505050565b813b15615d4e57616e6283928392604051948580948193633ddd61ab60e21b8352306004840152606060248401526064830190615243565b33604483015203925af1616e74575050565b81616e7e9161517e565b50565b61ffff168015611d95576000190190565b80548015616ebf576000190190616ea9828261581b565b81549060018060a01b039060031b1b1916905555565b634e487b7160e01b600052603160045260246000fd5b6001600160a01b0316600081815260096020526040812091905b825481101561705a57616f02818461581b565b9054600084815260086020908152604080832060039590951b9390931c6001600160a01b031680835293905220546001600160401b0316801515908161704f575b50616f5a5750616f5290615706565b925b92616eef565b82600095929552600860205260006040808220829060018060a01b0385168252602052205582600052600a60205261ffff60406000205416617022575b80600052600b60205261ffff60406000205416616ff5575b5082546000198101908111611d9557616fcb616fe7918561581b565b905460039190911b1c6001600160a01b03166131f5868661581b565b616ff083616e92565b616f54565b600052600b602052604060002061ffff61701181835416616e81565b1661ffff1982541617905538616faf565b82600052600a602052604060002061ffff61703f81835416616e81565b1661ffff19825416179055616f97565b905042101538616f43565b509061ffff90541690600052600a60205261ffff6040600020911661ffff19825416179055565b600354600091906001600160a01b031680617329575b506001600160a01b039081166000818152600960205260408120805460045492949093921680151592836172ac575b60005b85811061713d5750505050505080151580617134575b6170fe575b509061ffff600d5460201c168083116170fa5750565b9150565b61032081111561712f57506103205b6103e803906103e88211611d95576103e89161712891615b8f565b04386170e4565b61710d565b508115156170df565b816000526008602052604080600020617156838761581b565b905460039190911b1c6001600160a01b031660009081526020919091522054604081901c61ffff16908115159081617298575b50617198575b506001016170c9565b90979080866171b6575b506171af9060019261580e565b979061718f565b6171c08a8761581b565b9054604051631b660d0b60e01b815260039290921b1c6001600160a01b03166004820152602081602481895afa6000918161725d575b50617202575b506171a2565b61ffff811680617213575b506171fc565b6101f49192935011600014617254575061ffff6101f45b166103e803916103e88311611d95576103e861724b6001946171af94615b8f565b0491819361720d565b61ffff9061722a565b90916020823d8211617290575b816172776020938361517e565b81010312615d4b575061728990615b80565b90386171f6565b3d915061726a565b90506001600160401b034291161138617189565b604051631b660d0b60e01b815260048101829052602081602481865afa8791816172e9575b506172dd575b506170c6565b61ffff169550386172d7565b9091506020813d602011617321575b816173056020938361517e565b8101031261731d5761731690615b80565b90386172d1565b8780fd5b3d91506172f8565b604051633af2cac760e01b81526001600160a01b038316600482015290602090829060249082905afa60009181617367575b50156170975791505090565b9091506020813d602011617393575b816173836020938361517e565b810103126104825751903861735b565b3d9150617376565b805467ffffffffffffffff60201b191660209290921b67ffffffffffffffff60201b1691909117905556fe97bd20c77df683df83db0a97dc89f48199a8ab88197522acbc07667bd9cb815ba26469706673582212204ea5fd9a50859625e17f74b9cae9199d37f132d5fef1cbb7f1ce81679c66e45c64736f6c634300081e0033",
  "linkReferences": {},
  "deployedLinkReferences": {}
}