{"abi":[{"type":"function","name":"ACTIVE_TRADER","inputs":[],"outputs":[{"name":"","type":"bytes32","internalType":"bytes32"}],"stateMutability":"view"},{"type":"function","name":"BUG_BOUNTY","inputs":[],"outputs":[{"name":"","type":"bytes32","internalType":"bytes32"}],"stateMutability":"view"},{"type":"function","name":"CENTURY_ENDORSER","inputs":[],"outputs":[{"name":"","type":"bytes32","internalType":"bytes32"}],"stateMutability":"view"},{"type":"function","name":"CLEAN_RECORD","inputs":[],"outputs":[{"name":"","type":"bytes32","internalType":"bytes32"}],"stateMutability":"view"},{"type":"function","name":"COMMUNITY_BUILDER","inputs":[],"outputs":[{"name":"","type":"bytes32","internalType":"bytes32"}],"stateMutability":"view"},{"type":"function","name":"CONTRIBUTOR","inputs":[],"outputs":[{"name":"","type":"bytes32","internalType":"bytes32"}],"stateMutability":"view"},{"type":"function","name":"DAILY_CHAMPION","inputs":[],"outputs":[{"name":"","type":"bytes32","internalType":"bytes32"}],"stateMutability":"view"},{"type":"function","name":"DIVERSIFICATION_MASTER","inputs":[],"outputs":[{"name":"","type":"bytes32","internalType":"bytes32"}],"stateMutability":"view"},{"type":"function","name":"EDUCATOR","inputs":[],"outputs":[{"name":"","type":"bytes32","internalType":"bytes32"}],"stateMutability":"view"},{"type":"function","name":"ELITE_ACHIEVER","inputs":[],"outputs":[{"name":"","type":"bytes32","internalType":"bytes32"}],"stateMutability":"view"},{"type":"function","name":"ELITE_MERCHANT","inputs":[],"outputs":[{"name":"","type":"bytes32","internalType":"bytes32"}],"stateMutability":"view"},{"type":"function","name":"FOUNDING_MEMBER","inputs":[],"outputs":[{"name":"","type":"bytes32","internalType":"bytes32"}],"stateMutability":"view"},{"type":"function","name":"FRAUD_HUNTER","inputs":[],"outputs":[{"name":"","type":"bytes32","internalType":"bytes32"}],"stateMutability":"view"},{"type":"function","name":"GENESIS_PRESALE","inputs":[],"outputs":[{"name":"","type":"bytes32","internalType":"bytes32"}],"stateMutability":"view"},{"type":"function","name":"GOVERNANCE_VOTER","inputs":[],"outputs":[{"name":"","type":"bytes32","internalType":"bytes32"}],"stateMutability":"view"},{"type":"function","name":"GUARDIAN","inputs":[],"outputs":[{"name":"","type":"bytes32","internalType":"bytes32"}],"stateMutability":"view"},{"type":"function","name":"INSTANT_SETTLEMENT","inputs":[],"outputs":[{"name":"","type":"bytes32","internalType":"bytes32"}],"stateMutability":"view"},{"type":"function","name":"MENTOR","inputs":[],"outputs":[{"name":"","type":"bytes32","internalType":"bytes32"}],"stateMutability":"view"},{"type":"function","name":"PEACEMAKER","inputs":[],"outputs":[{"name":"","type":"bytes32","internalType":"bytes32"}],"stateMutability":"view"},{"type":"function","name":"PIONEER","inputs":[],"outputs":[{"name":"","type":"bytes32","internalType":"bytes32"}],"stateMutability":"view"},{"type":"function","name":"POWER_USER","inputs":[],"outputs":[{"name":"","type":"bytes32","internalType":"bytes32"}],"stateMutability":"view"},{"type":"function","name":"REDEMPTION","inputs":[],"outputs":[{"name":"","type":"bytes32","internalType":"bytes32"}],"stateMutability":"view"},{"type":"function","name":"TRANSLATOR","inputs":[],"outputs":[{"name":"","type":"bytes32","internalType":"bytes32"}],"stateMutability":"view"},{"type":"function","name":"TRUSTED_ENDORSER","inputs":[],"outputs":[{"name":"","type":"bytes32","internalType":"bytes32"}],"stateMutability":"view"},{"type":"function","name":"VERIFIED_MERCHANT","inputs":[],"outputs":[{"name":"","type":"bytes32","internalType":"bytes32"}],"stateMutability":"view"},{"type":"function","name":"WHALE_SLAYER","inputs":[],"outputs":[{"name":"","type":"bytes32","internalType":"bytes32"}],"stateMutability":"view"},{"type":"function","name":"ZERO_DISPUTE","inputs":[],"outputs":[{"name":"","type":"bytes32","internalType":"bytes32"}],"stateMutability":"view"},{"type":"function","name":"getCategory","inputs":[{"name":"badge","type":"bytes32","internalType":"bytes32"}],"outputs":[{"name":"","type":"string","internalType":"string"}],"stateMutability":"pure"},{"type":"function","name":"getName","inputs":[{"name":"badge","type":"bytes32","internalType":"bytes32"}],"outputs":[{"name":"","type":"string","internalType":"string"}],"stateMutability":"pure"},{"type":"function","name":"getRecommendedDuration","inputs":[{"name":"badge","type":"bytes32","internalType":"bytes32"}],"outputs":[{"name":"","type":"uint256","internalType":"uint256"}],"stateMutability":"pure"},{"type":"function","name":"getRecommendedWeight","inputs":[{"name":"badge","type":"bytes32","internalType":"bytes32"}],"outputs":[{"name":"","type":"uint16","internalType":"uint16"}],"stateMutability":"pure"},{"type":"function","name":"isPermanent","inputs":[{"name":"badge","type":"bytes32","internalType":"bytes32"}],"outputs":[{"name":"","type":"bool","internalType":"bool"}],"stateMutability":"pure"},{"type":"function","name":"isValidBadge","inputs":[{"name":"badge","type":"bytes32","internalType":"bytes32"}],"outputs":[{"name":"","type":"bool","internalType":"bool"}],"stateMutability":"pure"}],"bytecode":{"object":"0x60808060405234601957611da1908161001e823930815050f35b5f80fdfe6080806040526004361015610012575f80fd5b5f3560e01c9081630fd8995414610a685750806315a64adf14610a465780631d6b9a4014610a245780631d7ee0a914610a0257806324aa8e51146109e05780632a0a0578146109be578063368f30181461099c5780633b58bc811461097a5780633d5aeb15146109585780633e20135914610936578063403c792c14610914578063473b084c146108fa57806347c60465146108d857806354b8d5e3146108ae57806355f9ab441461070857806361fa40dc146106e657806363a3a31a146106c45780636f143be1146106a3578063724c184c14610681578063737fee101461065c57806375ff8bcf1461063a578063770cc2d6146106185780637c91e544146105f6578063a27a14a0146105d4578063a8fb88ae146105b2578063aa7ca98e14610590578063adbeb22a1461056e578063b8e3de031461054c578063bb15466d1461052a578063d1ef0abe146101f1578063dbc6a871146101cf578063f88d10ee146101ad5763f8e7813a14610187575f80fd5b5f3660031901126101a95760206040515f516020611c6c5f395f51905f528152f35b5f80fd5b5f3660031901126101a95760206040515f516020611b6c5f395f51905f528152f35b5f3660031901126101a95760206040515f516020611aec5f395f51905f528152f35b60203660031901126101a95760206004355f516020611cec5f395f51905f528114908115610513575b81156104fc575b81156104e5575b81156104ce575b81156104b7575b81156104a0575b8115610489575b8115610472575b811561045b575b8115610444575b811561042d575b8115610416575b81156103ff575b81156103e8575b81156103d1575b81156103ba575b81156103a3575b811561038c575b8115610375575b811561035e575b8115610347575b8115610330575b8115610319575b8115610302575b81156102eb575b81156102d4575b506040519015158152f35b5f516020611c4c5f395f51905f52915014826102c9565b5f516020611d0c5f395f51905f52811491506102c2565b5f516020611a6c5f395f51905f52811491506102bb565b5f516020611a8c5f395f51905f52811491506102b4565b5f516020611ccc5f395f51905f52811491506102ad565b5f516020611a4c5f395f51905f52811491506102a6565b5f516020611b4c5f395f51905f528114915061029f565b5f516020611cac5f395f51905f5281149150610298565b5f516020611acc5f395f51905f5281149150610291565b5f516020611d4c5f395f51905f528114915061028a565b5f516020611c8c5f395f51905f5281149150610283565b5f516020611c0c5f395f51905f528114915061027c565b5f516020611aec5f395f51905f5281149150610275565b5f516020611d2c5f395f51905f528114915061026e565b5f516020611b8c5f395f51905f5281149150610267565b5f516020611bcc5f395f51905f5281149150610260565b5f516020611c6c5f395f51905f5281149150610259565b5f516020611bec5f395f51905f5281149150610252565b5f516020611bac5f395f51905f528114915061024b565b5f516020611b2c5f395f51905f5281149150610244565b5f516020611c2c5f395f51905f528114915061023d565b5f516020611b6c5f395f51905f5281149150610236565b5f516020611b0c5f395f51905f528114915061022f565b5f516020611a2c5f395f51905f5281149150610228565b5f516020611a0c5f395f51905f5281149150610221565b5f516020611aac5f395f51905f528114915061021a565b5f3660031901126101a95760206040515f516020611b4c5f395f51905f528152f35b5f3660031901126101a95760206040515f516020611c2c5f395f51905f528152f35b5f3660031901126101a95760206040515f516020611d4c5f395f51905f528152f35b5f3660031901126101a95760206040515f516020611c8c5f395f51905f528152f35b5f3660031901126101a95760206040515f516020611d0c5f395f51905f528152f35b5f3660031901126101a95760206040515f516020611ccc5f395f51905f528152f35b5f3660031901126101a95760206040515f516020611a2c5f395f51905f528152f35b5f3660031901126101a95760206040515f516020611cec5f395f51905f528152f35b5f3660031901126101a95760206040515f516020611bec5f395f51905f528152f35b60203660031901126101a95760206106756004356117b7565b61ffff60405191168152f35b5f3660031901126101a95760206040515f516020611acc5f395f51905f528152f35b60203660031901126101a95760206106bc6004356116b0565b604051908152f35b5f3660031901126101a95760206040515f516020611bac5f395f51905f528152f35b5f3660031901126101a95760206040515f516020611a6c5f395f51905f528152f35b60203660031901126101a95760206004355f516020611cec5f395f51905f528114908115610897575b8115610880575b8115610869575b8115610852575b811561083b575b8115610824575b811561080d575b81156107f6575b81156107df575b81156107c8575b81156107b1575b811561079a5781156103025781156102eb5781156102d457506040519015158152f35b5f516020611ccc5f395f51905f52811491506102b4565b5f516020611a4c5f395f51905f5281149150610777565b5f516020611b4c5f395f51905f5281149150610770565b5f516020611cac5f395f51905f5281149150610769565b5f516020611acc5f395f51905f5281149150610762565b5f516020611d4c5f395f51905f528114915061075b565b5f516020611c0c5f395f51905f5281149150610754565b5f516020611bec5f395f51905f528114915061074d565b5f516020611bac5f395f51905f5281149150610746565b5f516020611b2c5f395f51905f528114915061073f565b5f516020611a0c5f395f51905f5281149150610738565b5f516020611aac5f395f51905f5281149150610731565b60203660031901126101a9576108d46108c8600435611085565b60405191829182610a88565b0390f35b5f3660031901126101a95760206040515f516020611d2c5f395f51905f528152f35b60203660031901126101a9576108d46108c8600435610c47565b5f3660031901126101a95760206040515f516020611b8c5f395f51905f528152f35b5f3660031901126101a95760206040515f516020611c4c5f395f51905f528152f35b5f3660031901126101a95760206040515f516020611cac5f395f51905f528152f35b5f3660031901126101a95760206040515f516020611b0c5f395f51905f528152f35b5f3660031901126101a95760206040515f516020611a0c5f395f51905f528152f35b5f3660031901126101a95760206040515f516020611b2c5f395f51905f528152f35b5f3660031901126101a95760206040515f516020611a8c5f395f51905f528152f35b5f3660031901126101a95760206040515f516020611a4c5f395f51905f528152f35b5f3660031901126101a95760206040515f516020611aac5f395f51905f528152f35b5f3660031901126101a95760206040515f516020611bcc5f395f51905f528152f35b5f3660031901126101a957805f516020611c0c5f395f51905f5260209252f35b602060409281835280519182918282860152018484015e5f828201840152601f01601f1916010190565b60405190604082018281106001600160401b03821117610ad55760405260148252565b634e487b7160e01b5f52604160045260245ffd5b60405190604082018281106001600160401b03821117610ad55760405260188252565b60405190604082018281106001600160401b03821117610ad55760405260118252565b60405190604082018281106001600160401b03821117610ad55760405260078252565b60405190604082018281106001600160401b03821117610ad557604052600f8252565b60405190604082018281106001600160401b03821117610ad557604052600d8252565b60405190604082018281106001600160401b03821117610ad55760405260108252565b60405190604082018281106001600160401b03821117610ad557604052600a8252565b60405190604082018281106001600160401b03821117610ad557604052600e8252565b60405190604082018281106001600160401b03821117610ad557604052600c8252565b60405190604082018281106001600160401b03821117610ad55760405260088252565b5f516020611cec5f395f51905f528114801561106f575b8015611059575b611030575f516020611a2c5f395f51905f528114801561101a575b8015611004575b8015610fee575b610fbc575f516020611b2c5f395f51905f5281148015610fa6575b8015610f90575b8015610f7a575b610f54575f516020611bcc5f395f51905f5281148015610f3e575b8015610f28575b8015610f12575b610ee9575f516020611c0c5f395f51905f5281148015610ed3575b8015610ebd575b8015610ea7575b610e7e575f516020611cac5f395f51905f5281148015610e68575b8015610e52575b8015610e3c575b610df2575f516020611a8c5f395f51905f528114908115610ddb575b8115610dc4575b8115610dad575b50610d7c57610d69610b2f565b662ab735b737bbb760c91b602082015290565b610d84610ae9565b7f456475636174696f6e202620436f6e747269627574696f6e0000000000000000602082015290565b5f516020611c4c5f395f51905f529150145f610d5c565b5f516020611d0c5f395f51905f5281149150610d55565b5f516020611a6c5f395f51905f5281149150610d4e565b50604051604081018181106001600160401b03821117610ad557604052601981527f416368696576656d656e74732026204d696c6573746f6e657300000000000000602082015290565b505f516020611ccc5f395f51905f528114610d32565b505f516020611a4c5f395f51905f528114610d2b565b505f516020611b4c5f395f51905f528114610d24565b50610e87610ab2565b735365637572697479202620496e7465677269747960601b602082015290565b505f516020611acc5f395f51905f528114610d09565b505f516020611d4c5f395f51905f528114610d02565b505f516020611c8c5f395f51905f528114610cfb565b50610ef2610ab2565b73436f6d6d657263652026204d65726368616e747360601b602082015290565b505f516020611aec5f395f51905f528114610ce0565b505f516020611d2c5f395f51905f528114610cd9565b505f516020611b8c5f395f51905f528114610cd2565b50610f5d610b0c565b705472757374202620436f6d6d756e69747960781b602082015290565b505f516020611c6c5f395f51905f528114610cb7565b505f516020611bec5f395f51905f528114610cb0565b505f516020611bac5f395f51905f528114610ca9565b50610fc5610ae9565b7f416374697669747920262050617274696369706174696f6e0000000000000000602082015290565b505f516020611c2c5f395f51905f528114610c8e565b505f516020611b6c5f395f51905f528114610c87565b505f516020611b0c5f395f51905f528114610c80565b50611039610ab2565b732834b7b732b2b91013102337bab73230ba34b7b760611b602082015290565b505f516020611a0c5f395f51905f528114610c65565b505f516020611aac5f395f51905f528114610c5e565b5f516020611cec5f395f51905f528114611694575f516020611aac5f395f51905f528114611670575f516020611a0c5f395f51905f52811461164c575f516020611a2c5f395f51905f52811461162a575f516020611b0c5f395f51905f528114611605575f516020611b6c5f395f51905f5281146115e6575f516020611c2c5f395f51905f5281146115c3575f516020611b2c5f395f51905f52811461159e575f516020611bac5f395f51905f528114611578575f516020611bec5f395f51905f528114611559575f516020611c6c5f395f51905f528114611526575f516020611bcc5f395f51905f528114611500575f516020611b8c5f395f51905f5281146114dd575f516020611d2c5f395f51905f52811461149e575f516020611aec5f395f51905f52811461147d575f516020611c0c5f395f51905f52811461145c575f516020611c8c5f395f51905f52811461143b575f516020611d4c5f395f51905f52811461141c575f516020611acc5f395f51905f5281146113ff575f516020611cac5f395f51905f5281146113dc575f516020611b4c5f395f51905f5281146113b7575f516020611a4c5f395f51905f528114611396575f516020611ccc5f395f51905f528114611353575f516020611a8c5f395f51905f528114611336575f516020611a6c5f395f51905f5281146112fe575f516020611d0c5f395f51905f5281146112df575f516020611c4c5f395f51905f52146112c1576112a8610b75565b6c556e6b6e6f776e20426164676560981b602082015290565b6112c9610bbb565b692a3930b739b630ba37b960b11b602082015290565b506112e8610bbb565b6942756720426f756e747960b01b602082015290565b50604051604081018181106001600160401b03821117610ad557604052600b81526a21b7b73a3934b13aba37b960a91b602082015290565b5061133f610c24565b6722b23ab1b0ba37b960c11b602082015290565b50604051604081018181106001600160401b03821117610ad55760405260168152752234bb32b939b4b334b1b0ba34b7b71026b0b9ba32b960511b602082015290565b5061139f610c01565b6b2bb430b6329029b630bcb2b960a11b602082015290565b506113c0610b98565b6f21b2b73a3ab93c9022b73237b939b2b960811b602082015290565b506113e5610bde565b6d22b634ba329020b1b434b2bb32b960911b602082015290565b50611408610c24565b6723bab0b93234b0b760c11b602082015290565b50611425610bbb565b692932b232b6b83a34b7b760b11b602082015290565b50611444610c01565b6b10db19585b88149958dbdc9960a21b602082015290565b50611465610c01565b6b233930bab210243ab73a32b960a11b602082015290565b50611486610c01565b6b5a65726f204469737075746560a01b602082015290565b50604051604081018181106001600160401b03821117610ad5576040526012815271125b9cdd185b9d0814d95d1d1b195b595b9d60721b602082015290565b506114e6610bde565b6d115b1a5d194813595c98da185b9d60921b602082015290565b50611509610b0c565b7015995c9a599a59590813595c98da185b9d607a1b602082015290565b50604051604081018181106001600160401b03821117610ad557604052600681526526b2b73a37b960d11b602082015290565b50611562610bbb565b692832b0b1b2b6b0b5b2b960b11b602082015290565b50611581610b0c565b7021b7b6b6bab734ba3c90213ab4b63232b960791b602082015290565b506115a7610b98565b6f2a393ab9ba32b21022b73237b939b2b960811b602082015290565b506115cc610bde565b6d2230b4b63c9021b430b6b834b7b760911b602082015290565b506115ef610bbb565b692837bbb2b9102ab9b2b960b11b602082015290565b5061160e610b98565b6f23b7bb32b93730b731b2902b37ba32b960811b602082015290565b50611633610b75565b6c20b1ba34bb32902a3930b232b960991b602082015290565b50611655610b52565b6e2337bab73234b7339026b2b6b132b960891b602082015290565b50611679610b52565b6e47656e657369732050726573616c6560881b602082015290565b5061169d610b2f565b662834b7b732b2b960c91b602082015290565b5f516020611a2c5f395f51905f5281146117a7575f516020611b0c5f395f51905f52811461179f575f516020611b6c5f395f51905f5281146117a7575f516020611c2c5f395f51905f5281146117af575f516020611c6c5f395f51905f528114611796575f516020611bcc5f395f51905f528114611796575f516020611b8c5f395f51905f52811461179f575f516020611d2c5f395f51905f5281146117a7575f516020611aec5f395f51905f52811461179f575f516020611c8c5f395f51905f528114611796575f516020611a8c5f395f51905f521461178f575f90565b62ed4e0090565b506301e1338090565b5062ed4e0090565b506276a70090565b5062278d0090565b5f516020611cec5f395f51905f5281146119e7575f516020611aac5f395f51905f5281146119e1575f516020611a0c5f395f51905f5281146119db575f516020611a2c5f395f51905f5281146119f9575f516020611b0c5f395f51905f5281146119ed575f516020611b6c5f395f51905f5281146119e1575f516020611c2c5f395f51905f528114611a05575f516020611b2c5f395f51905f5281146119e7575f516020611bac5f395f51905f5281146119f3575f516020611bec5f395f51905f5281146119ed575f516020611c6c5f395f51905f5281146119e7575f516020611bcc5f395f51905f5281146119e1575f516020611b8c5f395f51905f5281146119ff575f516020611d2c5f395f51905f5281146119f9575f516020611aec5f395f51905f5281146119ed575f516020611c0c5f395f51905f5281146119db575f516020611c8c5f395f51905f5281146119f9575f516020611d4c5f395f51905f5281146119e7575f516020611acc5f395f51905f5281146119e1575f516020611cac5f395f51905f5281146119db575f516020611b4c5f395f51905f5281146119f3575f516020611a4c5f395f51905f5281146119ed575f516020611ccc5f395f51905f5281146119e7575f516020611a8c5f395f51905f5281146119e7575f516020611a6c5f395f51905f5281146119e1575f516020611d0c5f395f51905f5281146119db575f516020611c4c5f395f51905f52146119d6575f90565b601990565b50603290565b50602890565b50601e90565b50601990565b50602390565b50601490565b50603c90565b50600f9056fecd25a284806e0931bbfbd59e48ca09094f95cc8a54899ac7cf670a7bc084e4c8fe3c33b66e28f14b3d890787766ee667031d474e01f41afd2282c6ddd242b13427b035d29cbd235e68f8e722fb80b6f9a31122fb2c3bce79340725e804fc9992a0bb1af1c90aa52ed052b92714ff0087008cc720049bf1af77cca2600b31e80c9f56690334c710be9812966692e10c040bde4927265518b422c82505f65961ec7866cd9bf5624adbb572bdf0ef2c6611719c1bd1dd881d077900477122585f518b5b16d04624687fcf0d0228f19993c9157c1ed07b41d8d430fd9100eb099fe88cd7ae4080d5a7057c8858e5c9e0a698fbc88b319a304fbaaae0f5c2be2423491b4e571958fba4ea5c92407500c44c03a913f7a3c4f5746fc318ba401831b4e5f4f1880c72d8dbafc9805eb1c4bcefcb30af90b0ae932e0f050c81b49112585766071085b8de5ddfb56be1bbf93230fbaa1b5a4a7ed21f7ca2ec8b760127b082a96fb0ea3366184fa9ef274bb2b523bb1410c5597f5b73e284bcc8d9c27caf81de4df86a0cfbc1ca19c1967d53b4f9d906c2f3e5f0b5637ff74d60111ad48d74fe29986656bd77a1f0da32c9315bed40455567f6060bea388c123d4bafff845ac4f6113bf43fb59dba21ffee106d9126a16fd7ef738a99e9f98f3366a7bcd628acf4336c61c8a8031abec411f918f29aa8a8d0d7d07ae250391d186289fb499922d441acdd22f4ae7f00407a46293dd53140dc9fa6beeef35e22cb018b264344d33d23312f0938ef21668aa46fd5bd7b72db718fcdd7e30d1e9db0ea46420720372cedd1d27b066a923b896eea7904ca9ef57e79d18aa00ae08d276de72c77b14ad701a62eb4bddf2c4f992ebf56952b66972847c21daeab6931b6b4aa89a4eb8f1a39279a10a884ddf0b6a95d0e46f341a5809f447de8f39f0c29e43a914272e426caaf9f537d800bdc663bd466690f26963dfd7bb0ed1ed5f323a945377dfc7c3d6722688d7e04217fd02beb9ee0abaf5dd8c4c65c6ad4846a80aae94ca27da03d1a4a2c4366d3db0c7243a29eef9c5e849fe7328823e0b7288dab59d523105c96081090ee4a64cc21b4a34b2247212174b7b9afec075a3d09fd229b01e550e2a717c0595726a19d429ba65a7be318c309e2bbfbe0d178266ba0266404b280f55c3c85690d0abf93de8c24ececede3ee62e529020683594957b8e0c109ace1a26469706673582212205a1f4840a53c0330d73afccad813e995e9f8fe8d1f7d9b8c18e5468ba985d24964736f6c634300081e0033","linkReferences":{}},"methodIdentifiers":{"ACTIVE_TRADER()":"7c91e544","BUG_BOUNTY()":"a8fb88ae","CENTURY_ENDORSER()":"bb15466d","CLEAN_RECORD()":"aa7ca98e","COMMUNITY_BUILDER()":"63a3a31a","CONTRIBUTOR()":"61fa40dc","DAILY_CHAMPION()":"b8e3de03","DIVERSIFICATION_MASTER()":"a27a14a0","EDUCATOR()":"24aa8e51","ELITE_ACHIEVER()":"3d5aeb15","ELITE_MERCHANT()":"403c792c","FOUNDING_MEMBER()":"368f3018","FRAUD_HUNTER()":"0fd89954","GENESIS_PRESALE()":"1d6b9a40","GOVERNANCE_VOTER()":"3b58bc81","GUARDIAN()":"724c184c","INSTANT_SETTLEMENT()":"47c60465","MENTOR()":"f8e7813a","PEACEMAKER()":"75ff8bcf","PIONEER()":"770cc2d6","POWER_USER()":"f88d10ee","REDEMPTION()":"adbeb22a","TRANSLATOR()":"3e201359","TRUSTED_ENDORSER()":"2a0a0578","VERIFIED_MERCHANT()":"15a64adf","WHALE_SLAYER()":"1d7ee0a9","ZERO_DISPUTE()":"dbc6a871","getCategory(bytes32)":"473b084c","getName(bytes32)":"54b8d5e3","getRecommendedDuration(bytes32)":"6f143be1","getRecommendedWeight(bytes32)":"737fee10","isPermanent(bytes32)":"55f9ab44","isValidBadge(bytes32)":"d1ef0abe"},"id":1}