{"abi":[{"type":"function","name":"TEST_checkAllowance","inputs":[{"name":"from","type":"address","internalType":"address"},{"name":"spender","type":"address","internalType":"address"},{"name":"value","type":"uint256","internalType":"uint256"}],"outputs":[{"name":"","type":"bool","internalType":"bool"}],"stateMutability":"view"},{"type":"function","name":"allowance","inputs":[{"name":"","type":"address","internalType":"address"},{"name":"","type":"address","internalType":"address"}],"outputs":[{"name":"","type":"uint256","internalType":"uint256"}],"stateMutability":"view"},{"type":"function","name":"approve","inputs":[{"name":"spender","type":"address","internalType":"address"},{"name":"value","type":"uint256","internalType":"uint256"}],"outputs":[{"name":"","type":"bool","internalType":"bool"}],"stateMutability":"nonpayable"},{"type":"function","name":"balanceOf","inputs":[{"name":"","type":"address","internalType":"address"}],"outputs":[{"name":"","type":"uint256","internalType":"uint256"}],"stateMutability":"view"},{"type":"function","name":"decimals","inputs":[],"outputs":[{"name":"","type":"uint8","internalType":"uint8"}],"stateMutability":"view"},{"type":"function","name":"mint","inputs":[{"name":"to","type":"address","internalType":"address"},{"name":"amount","type":"uint256","internalType":"uint256"}],"outputs":[],"stateMutability":"nonpayable"},{"type":"function","name":"name","inputs":[],"outputs":[{"name":"","type":"string","internalType":"string"}],"stateMutability":"view"},{"type":"function","name":"symbol","inputs":[],"outputs":[{"name":"","type":"string","internalType":"string"}],"stateMutability":"view"},{"type":"function","name":"transfer","inputs":[{"name":"to","type":"address","internalType":"address"},{"name":"value","type":"uint256","internalType":"uint256"}],"outputs":[{"name":"","type":"bool","internalType":"bool"}],"stateMutability":"nonpayable"},{"type":"function","name":"transferFrom","inputs":[{"name":"from","type":"address","internalType":"address"},{"name":"to","type":"address","internalType":"address"},{"name":"value","type":"uint256","internalType":"uint256"}],"outputs":[{"name":"","type":"bool","internalType":"bool"}],"stateMutability":"nonpayable"}],"bytecode":{"object":"0x60806040523461010d576100135f54610111565b601f81116100c6575b507f476173447261696e6572000000000000000000000000000000000000000000145f5560015461004c90610111565b601f811161007e575b60066247415360e81b016001556002805460ff191660121790556040516106ad908161014a8239f35b60015f52601f0160051c7fb10e2d527612073b26eecdfd717e6a320cf44b4afac2b0732d9fcbe2b7fa0cf6908101905b8181106100bb5750610055565b5f81556001016100ae565b5f8052601f0160051c7f290decd9548b62a8d60345a988386fc84ba6bc95484008f6362f93160ef3e563908101905b818110610102575061001c565b5f81556001016100f5565b5f80fd5b90600182811c9216801561013f575b602083101461012b57565b634e487b7160e01b5f52602260045260245ffd5b91607f169161012056fe60806040526004361015610011575f80fd5b5f3560e01c806306fdde0314610491578063095ea7b31461044a57806323b872dd1461034b578063313ce5671461032b57806340c10f19146102ed57806370a08231146102b557806395d89b4114610197578063a9059cbb1461010b578063dd62ed3e146100ae5763f81f790914610087575f80fd5b346100aa5760206100a061009a366105a3565b91610641565b6040519015158152f35b5f80fd5b346100aa5760403660031901126100aa576100c761058d565b602435906001600160a01b03821682036100aa5760018060a01b03165f52600460205260405f209060018060a01b03165f52602052602060405f2054604051908152f35b346100aa5760403660031901126100aa5761012461058d565b60243590335f5260036020526101408260405f205410156105dd565b335f52600360205260405f20610157838254610613565b905560018060a01b03165f52600360205261017760405f20918254610634565b90555f5b6107d0811061018f57602060405160018152f35b60010161017b565b346100aa575f3660031901126100aa576040515f6001548060011c906001811680156102ab575b6020831081146102975782855290811561027b5750600114610225575b50819003601f01601f191681019067ffffffffffffffff821181831017610211576040829052819061020d9082610563565b0390f35b634e487b7160e01b5f52604160045260245ffd5b60015f9081529091507fb10e2d527612073b26eecdfd717e6a320cf44b4afac2b0732d9fcbe2b7fa0cf65b828210610265575060209150820101826101db565b6001816020925483858801015201910190610250565b90506020925060ff191682840152151560051b820101826101db565b634e487b7160e01b5f52602260045260245ffd5b91607f16916101be565b346100aa5760203660031901126100aa576001600160a01b036102d661058d565b165f526003602052602060405f2054604051908152f35b346100aa5760403660031901126100aa576001600160a01b0361030e61058d565b165f52600360205260405f206103276024358254610634565b9055005b346100aa575f3660031901126100aa57602060ff60025416604051908152f35b346100aa57610359366105a3565b9160018060a01b0316805f52600360205261037a8360405f205410156105dd565b5f81815260046020908152604080832033845290915290205483811061041957836103a491610613565b815f52600460205260405f2060018060a01b0333165f5260205260405f20555f52600360205260405f206103d9838254610613565b905560018060a01b03165f5260036020526103f960405f20918254610634565b90555f5b6107d0811061041157602060405160018152f35b6001016103fd565b60405162461bcd60e51b8152602060048201526009602482015268616c6c6f77616e636560b81b6044820152606490fd5b346100aa5760403660031901126100aa5761046361058d565b335f52600460205260405f209060018060a01b03165f5260205260405f206024359055602060405160018152f35b346100aa575f3660031901126100aa576040515f5f548060011c90600181168015610559575b6020831081146102975782855290811561027b57506001146105055750819003601f01601f191681019067ffffffffffffffff821181831017610211576040829052819061020d9082610563565b5f8080529091507f290decd9548b62a8d60345a988386fc84ba6bc95484008f6362f93160ef3e5635b828210610543575060209150820101826101db565b600181602092548385880101520191019061052e565b91607f16916104b7565b602060409281835280519182918282860152018484015e5f828201840152601f01601f1916010190565b600435906001600160a01b03821682036100aa57565b60609060031901126100aa576004356001600160a01b03811681036100aa57906024356001600160a01b03811681036100aa579060443590565b156105e457565b60405162461bcd60e51b815260206004820152600760248201526662616c616e636560c81b6044820152606490fd5b9190820391821161062057565b634e487b7160e01b5f52601160045260245ffd5b9190820180921161062057565b6001600160a01b039081165f908152600460209081526040808320949093168252929092529020541061067357600190565b5f9056fea264697066735822122064aa4ff4a98ee357bb44327789d5baffb7e9af40946d9dbc59c7ba5e9086c0d564736f6c634300081e0033","linkReferences":{}},"methodIdentifiers":{"TEST_checkAllowance(address,address,uint256)":"f81f7909","allowance(address,address)":"dd62ed3e","approve(address,uint256)":"095ea7b3","balanceOf(address)":"70a08231","decimals()":"313ce567","mint(address,uint256)":"40c10f19","name()":"06fdde03","symbol()":"95d89b41","transfer(address,uint256)":"a9059cbb","transferFrom(address,address,uint256)":"23b872dd"},"id":73}