{"abi":[{"type":"constructor","inputs":[],"stateMutability":"nonpayable"},{"type":"function","name":"acceptOwnership","inputs":[],"outputs":[],"stateMutability":"nonpayable"},{"type":"function","name":"addStablecoin","inputs":[{"name":"token","type":"address","internalType":"address"},{"name":"decimals","type":"uint8","internalType":"uint8"},{"name":"symbol","type":"string","internalType":"string"}],"outputs":[],"stateMutability":"nonpayable"},{"type":"function","name":"allowedCount","inputs":[],"outputs":[{"name":"count","type":"uint256","internalType":"uint256"}],"stateMutability":"view"},{"type":"function","name":"cancelOwnershipTransfer","inputs":[],"outputs":[],"stateMutability":"nonpayable"},{"type":"function","name":"decimalsOf","inputs":[{"name":"stable","type":"address","internalType":"address"}],"outputs":[{"name":"","type":"uint8","internalType":"uint8"}],"stateMutability":"view"},{"type":"function","name":"getAllStablecoins","inputs":[],"outputs":[{"name":"addresses","type":"address[]","internalType":"address[]"},{"name":"infos","type":"tuple[]","internalType":"struct StablecoinRegistry.StablecoinInfo[]","components":[{"name":"allowed","type":"bool","internalType":"bool"},{"name":"decimals","type":"uint8","internalType":"uint8"},{"name":"symbol","type":"string","internalType":"string"}]}],"stateMutability":"view"},{"type":"function","name":"isAllowed","inputs":[{"name":"stable","type":"address","internalType":"address"}],"outputs":[{"name":"","type":"bool","internalType":"bool"}],"stateMutability":"view"},{"type":"function","name":"isWhitelisted","inputs":[{"name":"token","type":"address","internalType":"address"}],"outputs":[{"name":"","type":"bool","internalType":"bool"}],"stateMutability":"view"},{"type":"function","name":"owner","inputs":[],"outputs":[{"name":"","type":"address","internalType":"address"}],"stateMutability":"view"},{"type":"function","name":"pendingOwner","inputs":[],"outputs":[{"name":"","type":"address","internalType":"address"}],"stateMutability":"view"},{"type":"function","name":"removeStablecoin","inputs":[{"name":"token","type":"address","internalType":"address"}],"outputs":[],"stateMutability":"nonpayable"},{"type":"function","name":"setAllowed","inputs":[{"name":"token","type":"address","internalType":"address"},{"name":"allowed","type":"bool","internalType":"bool"}],"outputs":[],"stateMutability":"nonpayable"},{"type":"function","name":"setTreasury","inputs":[{"name":"_treasury","type":"address","internalType":"address"}],"outputs":[],"stateMutability":"nonpayable"},{"type":"function","name":"stablecoinList","inputs":[{"name":"","type":"uint256","internalType":"uint256"}],"outputs":[{"name":"","type":"address","internalType":"address"}],"stateMutability":"view"},{"type":"function","name":"stablecoins","inputs":[{"name":"","type":"address","internalType":"address"}],"outputs":[{"name":"allowed","type":"bool","internalType":"bool"},{"name":"decimals","type":"uint8","internalType":"uint8"},{"name":"symbol","type":"string","internalType":"string"}],"stateMutability":"view"},{"type":"function","name":"tokenDecimals","inputs":[{"name":"token","type":"address","internalType":"address"}],"outputs":[{"name":"","type":"uint8","internalType":"uint8"}],"stateMutability":"view"},{"type":"function","name":"transferOwnership","inputs":[{"name":"newOwner","type":"address","internalType":"address"}],"outputs":[],"stateMutability":"nonpayable"},{"type":"function","name":"treasury","inputs":[],"outputs":[{"name":"","type":"address","internalType":"address"}],"stateMutability":"view"},{"type":"event","name":"OwnershipTransferStarted","inputs":[{"name":"previousOwner","type":"address","indexed":true,"internalType":"address"},{"name":"newOwner","type":"address","indexed":true,"internalType":"address"}],"anonymous":false},{"type":"event","name":"OwnershipTransferred","inputs":[{"name":"previousOwner","type":"address","indexed":true,"internalType":"address"},{"name":"newOwner","type":"address","indexed":true,"internalType":"address"}],"anonymous":false},{"type":"event","name":"StablecoinAdded","inputs":[{"name":"token","type":"address","indexed":true,"internalType":"address"},{"name":"decimals","type":"uint8","indexed":false,"internalType":"uint8"},{"name":"symbol","type":"string","indexed":false,"internalType":"string"}],"anonymous":false},{"type":"event","name":"StablecoinRemoved","inputs":[{"name":"token","type":"address","indexed":true,"internalType":"address"}],"anonymous":false},{"type":"event","name":"StablecoinUpdated","inputs":[{"name":"token","type":"address","indexed":true,"internalType":"address"},{"name":"allowed","type":"bool","indexed":false,"internalType":"bool"}],"anonymous":false},{"type":"error","name":"SR_AlreadyAdded","inputs":[]},{"type":"error","name":"SR_NotFound","inputs":[]},{"type":"error","name":"SR_Zero","inputs":[]}],"bytecode":{"object":"0x60808060405234604d575f80546001600160a01b031916339081178255907f8be0079c531659141344cd1fd0a4f28419497f9722a3daafe3b4186f6b6457e08180a3610d0c90816100528239f35b5f80fdfe60806040526004361015610011575f80fd5b5f3560e01c806323452b9c14610a435780633af32abf146105465780633b947d2b146109c95780634450b472146109875780634697f05d146108d65780635e2d74331461054b57806361d027b3146108ae57806379ba50971461080757806389d34e4b146107845780638b45bd09146105775780638da5cb5b146105505780638ee573ac1461054b578063babcc53914610546578063e30c39781461051e578063e5adc95514610237578063f0f44260146101f4578063f2fde38b1461014e5763fa847836146100df575f80fd5b3461014a57602036600319011261014a576001600160a01b03610100610a6d565b165f52600260205260ff60405f2061014661011f600183549301610bc2565b6040519383818695161515855260081c166020840152606060408401526060830190610b28565b0390f35b5f80fd5b3461014a57602036600319011261014a57610167610a6d565b61016f610c8d565b6001600160a01b031680156101c357600180546001600160a01b031916821790555f80546001600160a01b0316907f38d16b8cac22d99fc7c124b9cd0de2d3fa1faef420bfe791d8c362d765e227009080a3005b60405162461bcd60e51b81526020600482015260096024820152684f574e3a207a65726f60b81b6044820152606490fd5b3461014a57602036600319011261014a5761020d610a6d565b610215610c8d565b600480546001600160a01b0319166001600160a01b0392909216919091179055005b3461014a57606036600319011261014a57610250610a6d565b6024359060ff821680920361014a576044356001600160401b03811161014a573660238201121561014a576004810135916001600160401b03831161014a576024820191602484369201011161014a576102a8610c8d565b6001600160a01b031692831561050f57835f52600260205260ff60405f20541661050057604051906102d982610b84565b60018252602082018181526001601f19601f87011693604051926103006020870185610b9f565b878452878760208601375f6020898601015260408201938452885f52600260205261033e60405f2092511515839060ff801983541691151516179055565b51815461ff00191660089190911b61ff00161781559151805191909201916001600160401b03821161042e5781906103768454610b4c565b601f81116104b0575b50602090601f831160011461044d575f92610442575b50508160011b915f199060031b1c19161790555b60035491600160401b83101561042e575f60607f88cd02e00196cbce712e20b6a0b21d447c5f7381f972c1ac3fd1bc502e2b536d966103ef866001849801600355610abf565b81549060031b908b821b9160018060a01b03901b19161790558060405197889687526040602088015281604088015283870137840101528101030190a2005b634e487b7160e01b5f52604160045260245ffd5b015190508880610395565b5f8581528281209350601f198516905b8181106104985750908460019594939210610480575b505050811b0190556103a9565b01515f1960f88460031b161c19169055888080610473565b9293602060018192878601518155019501930161045d565b909150835f5260205f20601f840160051c810191602085106104f6575b90601f859493920160051c01905b8181106104e8575061037f565b5f81558493506001016104db565b90915081906104cd565b63bc59c13560e01b5f5260045ffd5b632d5f99e360e21b5f5260045ffd5b3461014a575f36600319011261014a576001546040516001600160a01b039091168152602090f35b610a83565b610aeb565b3461014a575f36600319011261014a575f546040516001600160a01b039091168152602090f35b3461014a575f36600319011261014a576040518060206003549283815201918260035f5260205f205f5b838110610765575050826105b6910383610b9f565b6105bf81610c62565b906105cd6040519283610b9f565b808252601f196105dc82610c62565b015f5b8181106107335750505f5b8181106106ba575050604051928392604084019060408552518091526060840191905f5b818110610698575050508281036020840152815180825260208201916020808360051b8301019401925f915b8383106106475786860387f35b919395509193602080610686600193601f19868203018752606060408b5180511515845260ff8682015116868501520151918160408201520190610b28565b9701930193019092869594929361063a565b82516001600160a01b031684528695506020938401939092019160010161060e565b806106ca60019296949596610abf565b838060a01b0391549060031b1c165f52600260205260405f2061070e83604051926106f484610b84565b60ff81548181161515865260081c16602085015201610bc2565b604082015261071d8287610c79565b526107288186610c79565b5001939291936105ea565b6020906040969495965161074681610b84565b5f81525f838201526060604082015282828801015201949392946105df565b81546001600160a01b03168352602090920191600191820191016105a1565b3461014a575f36600319011261014a575f5f600354905b8181106107ad57602083604051908152f35b6107b681610abf565b60018060a01b0391549060031b1c165f52600260205260ff60405f2054166107e1575b60010161079b565b915f1981146107f357600101916107d9565b634e487b7160e01b5f52601160045260245ffd5b3461014a575f36600319011261014a576001546001600160a01b0381163303610870575f543360018060a01b0382167f8be0079c531659141344cd1fd0a4f28419497f9722a3daafe3b4186f6b6457e05f80a36001600160a01b031990811633175f5516600155005b60405162461bcd60e51b815260206004820152601660248201527527aba71d103737ba103832b73234b7339037bbb732b960511b6044820152606490fd5b3461014a575f36600319011261014a576004546040516001600160a01b039091168152602090f35b3461014a57604036600319011261014a576108ef610a6d565b602435908115159081830361014a57610906610c8d565b6001600160a01b03165f8181526002602052604090205490929060081c60ff1615610978577f855c900f27c6636569173ceb716d3cfc1a9f951524e822fc3b3f597010a057a39161096f602092855f526002845260405f209060ff801983541691151516179055565b604051908152a2005b6358f822db60e11b5f5260045ffd5b3461014a57602036600319011261014a5760043560035481101561014a576109b0602091610abf565b905460405160039290921b1c6001600160a01b03168152f35b3461014a57602036600319011261014a576109e2610a6d565b6109ea610c8d565b6001600160a01b03165f8181526002602052604090205460ff161561097857805f52600260205260405f2060ff1981541690557f3302a1b37f04242bb55603f5449e7ecd690a35eef08ba1353c48c20e2aae9cda5f80a2005b3461014a575f36600319011261014a57610a5b610c8d565b600180546001600160a01b0319169055005b600435906001600160a01b038216820361014a57565b3461014a57602036600319011261014a57610a9c610a6d565b60018060a01b03165f526002602052602060ff60405f2054166040519015158152f35b600354811015610ad75760035f5260205f2001905f90565b634e487b7160e01b5f52603260045260245ffd5b3461014a57602036600319011261014a57610b04610a6d565b60018060a01b03165f526002602052602060ff60405f205460081c16604051908152f35b805180835260209291819084018484015e5f828201840152601f01601f1916010190565b90600182811c92168015610b7a575b6020831014610b6657565b634e487b7160e01b5f52602260045260245ffd5b91607f1691610b5b565b606081019081106001600160401b0382111761042e57604052565b601f909101601f19168101906001600160401b0382119082101761042e57604052565b9060405191825f825492610bd584610b4c565b8084529360018116908115610c405750600114610bfc575b50610bfa92500383610b9f565b565b90505f9291925260205f20905f915b818310610c24575050906020610bfa928201015f610bed565b6020919350806001915483858901015201910190918492610c0b565b905060209250610bfa94915060ff191682840152151560051b8201015f610bed565b6001600160401b03811161042e5760051b60200190565b8051821015610ad75760209160051b010190565b5f546001600160a01b03163303610ca057565b60405162461bcd60e51b815260206004820152600e60248201526d27aba71d103737ba1037bbb732b960911b6044820152606490fdfea264697066735822122055551aab82710b9900e1c78f56f4c88b2a32a7ab62400ff858dea4eace22c15564736f6c634300081e0033","linkReferences":{}},"methodIdentifiers":{"acceptOwnership()":"79ba5097","addStablecoin(address,uint8,string)":"e5adc955","allowedCount()":"89d34e4b","cancelOwnershipTransfer()":"23452b9c","decimalsOf(address)":"5e2d7433","getAllStablecoins()":"8b45bd09","isAllowed(address)":"babcc539","isWhitelisted(address)":"3af32abf","owner()":"8da5cb5b","pendingOwner()":"e30c3978","removeStablecoin(address)":"3b947d2b","setAllowed(address,bool)":"4697f05d","setTreasury(address)":"f0f44260","stablecoinList(uint256)":"4450b472","stablecoins(address)":"fa847836","tokenDecimals(address)":"8ee573ac","transferOwnership(address)":"f2fde38b","treasury()":"61d027b3"},"id":26}