{
  "_format": "hh-sol-artifact-1",
  "contractName": "DevReserveVestingVault",
  "sourceName": "contracts/DevReserveVestingVault.sol",
  "abi": [
    {
      "inputs": [
        {
          "internalType": "address",
          "name": "initialOwner",
          "type": "address"
        },
        {
          "internalType": "address",
          "name": "token",
          "type": "address"
        }
      ],
      "stateMutability": "nonpayable",
      "type": "constructor"
    },
    {
      "inputs": [],
      "name": "BadParams",
      "type": "error"
    },
    {
      "inputs": [],
      "name": "Locked",
      "type": "error"
    },
    {
      "inputs": [],
      "name": "NotEnoughBalance",
      "type": "error"
    },
    {
      "inputs": [],
      "name": "NotGov",
      "type": "error"
    },
    {
      "inputs": [],
      "name": "NothingToClaim",
      "type": "error"
    },
    {
      "inputs": [],
      "name": "Paused",
      "type": "error"
    },
    {
      "inputs": [],
      "name": "ZeroAddress",
      "type": "error"
    },
    {
      "anonymous": false,
      "inputs": [
        {
          "indexed": false,
          "internalType": "uint256",
          "name": "newAllocation",
          "type": "uint256"
        }
      ],
      "name": "AllocationIncreased",
      "type": "event"
    },
    {
      "anonymous": false,
      "inputs": [
        {
          "indexed": false,
          "internalType": "uint256",
          "name": "totalAllocation",
          "type": "uint256"
        }
      ],
      "name": "AllocationSet",
      "type": "event"
    },
    {
      "anonymous": false,
      "inputs": [],
      "name": "BeneficiaryLocked",
      "type": "event"
    },
    {
      "anonymous": false,
      "inputs": [
        {
          "indexed": true,
          "internalType": "address",
          "name": "beneficiary",
          "type": "address"
        }
      ],
      "name": "BeneficiarySet",
      "type": "event"
    },
    {
      "anonymous": false,
      "inputs": [
        {
          "indexed": false,
          "internalType": "address",
          "name": "breaker",
          "type": "address"
        }
      ],
      "name": "BreakerSet",
      "type": "event"
    },
    {
      "anonymous": false,
      "inputs": [
        {
          "indexed": true,
          "internalType": "address",
          "name": "beneficiary",
          "type": "address"
        },
        {
          "indexed": false,
          "internalType": "uint256",
          "name": "amount",
          "type": "uint256"
        },
        {
          "indexed": false,
          "internalType": "uint256",
          "name": "cumulativeReleased",
          "type": "uint256"
        }
      ],
      "name": "Claimed",
      "type": "event"
    },
    {
      "anonymous": false,
      "inputs": [
        {
          "indexed": false,
          "internalType": "address",
          "name": "dao",
          "type": "address"
        }
      ],
      "name": "DAOUpdated",
      "type": "event"
    },
    {
      "anonymous": false,
      "inputs": [
        {
          "indexed": true,
          "internalType": "address",
          "name": "previousOwner",
          "type": "address"
        },
        {
          "indexed": true,
          "internalType": "address",
          "name": "newOwner",
          "type": "address"
        }
      ],
      "name": "OwnershipTransferStarted",
      "type": "event"
    },
    {
      "anonymous": false,
      "inputs": [
        {
          "indexed": true,
          "internalType": "address",
          "name": "previousOwner",
          "type": "address"
        },
        {
          "indexed": true,
          "internalType": "address",
          "name": "newOwner",
          "type": "address"
        }
      ],
      "name": "OwnershipTransferred",
      "type": "event"
    },
    {
      "anonymous": false,
      "inputs": [
        {
          "indexed": false,
          "internalType": "address",
          "name": "proof",
          "type": "address"
        }
      ],
      "name": "ProofSinkSet",
      "type": "event"
    },
    {
      "anonymous": false,
      "inputs": [],
      "name": "ScheduleLocked",
      "type": "event"
    },
    {
      "anonymous": false,
      "inputs": [
        {
          "indexed": false,
          "internalType": "uint64",
          "name": "startTs",
          "type": "uint64"
        },
        {
          "indexed": false,
          "internalType": "uint64",
          "name": "cliffSecs",
          "type": "uint64"
        },
        {
          "indexed": false,
          "internalType": "uint64",
          "name": "durationSecs",
          "type": "uint64"
        }
      ],
      "name": "ScheduleSet",
      "type": "event"
    },
    {
      "anonymous": false,
      "inputs": [
        {
          "indexed": true,
          "internalType": "address",
          "name": "to",
          "type": "address"
        },
        {
          "indexed": false,
          "internalType": "uint256",
          "name": "amount",
          "type": "uint256"
        }
      ],
      "name": "SweptExcess",
      "type": "event"
    },
    {
      "anonymous": false,
      "inputs": [
        {
          "indexed": false,
          "internalType": "address",
          "name": "token",
          "type": "address"
        }
      ],
      "name": "VFIDESet",
      "type": "event"
    },
    {
      "inputs": [],
      "name": "DEFAULT_CLIFF_SECS",
      "outputs": [
        {
          "internalType": "uint64",
          "name": "",
          "type": "uint64"
        }
      ],
      "stateMutability": "view",
      "type": "function"
    },
    {
      "inputs": [],
      "name": "DEFAULT_TOTAL_DURATION_SECS",
      "outputs": [
        {
          "internalType": "uint64",
          "name": "",
          "type": "uint64"
        }
      ],
      "stateMutability": "view",
      "type": "function"
    },
    {
      "inputs": [],
      "name": "acceptOwnership",
      "outputs": [],
      "stateMutability": "nonpayable",
      "type": "function"
    },
    {
      "inputs": [
        {
          "internalType": "uint256",
          "name": "newAmount",
          "type": "uint256"
        }
      ],
      "name": "adjustTotalAllocation",
      "outputs": [],
      "stateMutability": "nonpayable",
      "type": "function"
    },
    {
      "inputs": [],
      "name": "beneficiary",
      "outputs": [
        {
          "internalType": "address",
          "name": "",
          "type": "address"
        }
      ],
      "stateMutability": "view",
      "type": "function"
    },
    {
      "inputs": [],
      "name": "beneficiaryLocked",
      "outputs": [
        {
          "internalType": "bool",
          "name": "",
          "type": "bool"
        }
      ],
      "stateMutability": "view",
      "type": "function"
    },
    {
      "inputs": [],
      "name": "breaker",
      "outputs": [
        {
          "internalType": "contract IEmergencyBreaker",
          "name": "",
          "type": "address"
        }
      ],
      "stateMutability": "view",
      "type": "function"
    },
    {
      "inputs": [],
      "name": "claim",
      "outputs": [],
      "stateMutability": "nonpayable",
      "type": "function"
    },
    {
      "inputs": [],
      "name": "claimableNow",
      "outputs": [
        {
          "internalType": "uint256",
          "name": "",
          "type": "uint256"
        }
      ],
      "stateMutability": "view",
      "type": "function"
    },
    {
      "inputs": [],
      "name": "cliffSecs",
      "outputs": [
        {
          "internalType": "uint64",
          "name": "",
          "type": "uint64"
        }
      ],
      "stateMutability": "view",
      "type": "function"
    },
    {
      "inputs": [],
      "name": "dao",
      "outputs": [
        {
          "internalType": "address",
          "name": "",
          "type": "address"
        }
      ],
      "stateMutability": "view",
      "type": "function"
    },
    {
      "inputs": [],
      "name": "durationSecs",
      "outputs": [
        {
          "internalType": "uint64",
          "name": "",
          "type": "uint64"
        }
      ],
      "stateMutability": "view",
      "type": "function"
    },
    {
      "inputs": [],
      "name": "lockBeneficiary",
      "outputs": [],
      "stateMutability": "nonpayable",
      "type": "function"
    },
    {
      "inputs": [],
      "name": "lockSchedule",
      "outputs": [],
      "stateMutability": "nonpayable",
      "type": "function"
    },
    {
      "inputs": [],
      "name": "owner",
      "outputs": [
        {
          "internalType": "address",
          "name": "",
          "type": "address"
        }
      ],
      "stateMutability": "view",
      "type": "function"
    },
    {
      "inputs": [],
      "name": "pendingOwner",
      "outputs": [
        {
          "internalType": "address",
          "name": "",
          "type": "address"
        }
      ],
      "stateMutability": "view",
      "type": "function"
    },
    {
      "inputs": [],
      "name": "proof",
      "outputs": [
        {
          "internalType": "contract IProofLedger",
          "name": "",
          "type": "address"
        }
      ],
      "stateMutability": "view",
      "type": "function"
    },
    {
      "inputs": [],
      "name": "released",
      "outputs": [
        {
          "internalType": "uint256",
          "name": "",
          "type": "uint256"
        }
      ],
      "stateMutability": "view",
      "type": "function"
    },
    {
      "inputs": [],
      "name": "renounceOwnership",
      "outputs": [],
      "stateMutability": "nonpayable",
      "type": "function"
    },
    {
      "inputs": [],
      "name": "scheduleLocked",
      "outputs": [
        {
          "internalType": "bool",
          "name": "",
          "type": "bool"
        }
      ],
      "stateMutability": "view",
      "type": "function"
    },
    {
      "inputs": [
        {
          "internalType": "address",
          "name": "b",
          "type": "address"
        }
      ],
      "name": "setBeneficiary",
      "outputs": [],
      "stateMutability": "nonpayable",
      "type": "function"
    },
    {
      "inputs": [
        {
          "internalType": "address",
          "name": "b_",
          "type": "address"
        }
      ],
      "name": "setBreaker",
      "outputs": [],
      "stateMutability": "nonpayable",
      "type": "function"
    },
    {
      "inputs": [
        {
          "internalType": "address",
          "name": "dao_",
          "type": "address"
        }
      ],
      "name": "setDAO",
      "outputs": [],
      "stateMutability": "nonpayable",
      "type": "function"
    },
    {
      "inputs": [
        {
          "internalType": "address",
          "name": "p_",
          "type": "address"
        }
      ],
      "name": "setProofSink",
      "outputs": [],
      "stateMutability": "nonpayable",
      "type": "function"
    },
    {
      "inputs": [
        {
          "internalType": "uint64",
          "name": "start_",
          "type": "uint64"
        },
        {
          "internalType": "uint64",
          "name": "cliff_",
          "type": "uint64"
        },
        {
          "internalType": "uint64",
          "name": "duration_",
          "type": "uint64"
        }
      ],
      "name": "setSchedule",
      "outputs": [],
      "stateMutability": "nonpayable",
      "type": "function"
    },
    {
      "inputs": [
        {
          "internalType": "uint64",
          "name": "presaleStartTs",
          "type": "uint64"
        }
      ],
      "name": "setScheduleToPresale",
      "outputs": [],
      "stateMutability": "nonpayable",
      "type": "function"
    },
    {
      "inputs": [
        {
          "internalType": "uint256",
          "name": "amount",
          "type": "uint256"
        }
      ],
      "name": "setTotalAllocation",
      "outputs": [],
      "stateMutability": "nonpayable",
      "type": "function"
    },
    {
      "inputs": [
        {
          "internalType": "address",
          "name": "token",
          "type": "address"
        }
      ],
      "name": "setVFIDE",
      "outputs": [],
      "stateMutability": "nonpayable",
      "type": "function"
    },
    {
      "inputs": [],
      "name": "startTs",
      "outputs": [
        {
          "internalType": "uint64",
          "name": "",
          "type": "uint64"
        }
      ],
      "stateMutability": "view",
      "type": "function"
    },
    {
      "inputs": [
        {
          "internalType": "address",
          "name": "to",
          "type": "address"
        }
      ],
      "name": "sweepExcess",
      "outputs": [],
      "stateMutability": "nonpayable",
      "type": "function"
    },
    {
      "inputs": [],
      "name": "totalAllocation",
      "outputs": [
        {
          "internalType": "uint256",
          "name": "",
          "type": "uint256"
        }
      ],
      "stateMutability": "view",
      "type": "function"
    },
    {
      "inputs": [
        {
          "internalType": "address",
          "name": "newOwner",
          "type": "address"
        }
      ],
      "name": "transferOwnership",
      "outputs": [],
      "stateMutability": "nonpayable",
      "type": "function"
    },
    {
      "inputs": [
        {
          "internalType": "uint64",
          "name": "ts",
          "type": "uint64"
        }
      ],
      "name": "vestedAt",
      "outputs": [
        {
          "internalType": "uint256",
          "name": "",
          "type": "uint256"
        }
      ],
      "stateMutability": "view",
      "type": "function"
    },
    {
      "inputs": [],
      "name": "vestedNow",
      "outputs": [
        {
          "internalType": "uint256",
          "name": "",
          "type": "uint256"
        }
      ],
      "stateMutability": "view",
      "type": "function"
    },
    {
      "inputs": [],
      "name": "vfide",
      "outputs": [
        {
          "internalType": "contract IVFIDE",
          "name": "",
          "type": "address"
        }
      ],
      "stateMutability": "view",
      "type": "function"
    }
  ],
  "bytecode": "0x6080346100fb57601f611bf238819003918201601f19168301916001600160401b038311848410176101005780849260409485528339810103126100fb57610052602061004b83610116565b9201610116565b9061005c3361012a565b60016002556001600160a01b0381161580156100ea575b6100d9577f77035913569424ed432f15a527aa4e0317cbefd28ce0fe9cdfe61acd77345c17916100a460209261012a565b600380546001600160a01b0319166001600160a01b03929092169182179055604051908152a1604051611a7290816101808239f35b63d92e233d60e01b60005260046000fd5b506001600160a01b03821615610073565b600080fd5b634e487b7160e01b600052604160045260246000fd5b51906001600160a01b03821682036100fb57565b600180546001600160a01b0319908116909155600080546001600160a01b03938416928116831782559192909116907f8be0079c531659141344cd1fd0a4f28419497f9722a3daafe3b4186f6b6457e09080a356fe608080604052600436101561001357600080fd5b600090813560e01c908162b67b1814611468575080630f41e0d21461143f57806317fd7bf6146113a35780631c31f7101461128b5780631f942d81146112685780632350151e14611242578063254092f01461105c57806325677e4f1461103257806338af3eed146110095780634162169f14610fe057806347c3c6b414610e1757806348ce238414610d815780634e71d92d14610b2d57806357f73a5214610abb57806365c85fd514610a3857806368b68bd5146109cd578063710b0cc314610836578063715018a6146107d157806372c8ae3b146107a8578063790504e91461077e57806379203dc41461076057806379ba5097146106975780638da5cb5b146106705780639613252114610652578063bbf7d09114610465578063c28d5bb514610440578063c467160814610425578063d1f53d4b14610407578063d2e156ea146103e8578063e30c3978146103bf578063e4c57bd714610329578063e73a914c1461026f578063eb71157f14610243578063f2fde38b146101cc5763faf924cf146101a157600080fd5b346101c957806003193601126101c9576004546040516001600160a01b039091168152602090f35b80fd5b50346101c95760203660031901126101c9576004356001600160a01b0381169081900361023f576101fb6119e4565b600180546001600160a01b0319168217905581546001600160a01b03167f38d16b8cac22d99fc7c124b9cd0de2d3fa1faef420bfe791d8c362d765e227008380a380f35b5080fd5b50346101c95760203660031901126101c957602061026761026261148d565b61183d565b604051908152f35b50346101c95760203660031901126101c9576004356001600160a01b0381169081900361023f5781546001600160a01b031633141580610314575b6103055780156102f6576020817f395c0f5a57accc3f0c20646b402f0845c448f3e4ac4a2ec56a3eaf26d15bf79a926001600160601b0360a01b6006541617600655604051908152a180f35b63d92e233d60e01b8252600482fd5b63b577c1f760e01b8252600482fd5b506006546001600160a01b03163314156102aa565b50346101c95760203660031901126101c9576004356001600160a01b0381169081900361023f5781546001600160a01b0316331415806103aa575b610305576020817fba232e444ed39bb946759480b350063ea9926d008864ec84e64c61308c51e9e9926001600160601b0360a01b6005541617600555604051908152a180f35b506006546001600160a01b0316331415610364565b50346101c957806003193601126101c9576001546040516001600160a01b039091168152602090f35b50346101c957806003193601126101c95760206040516306067b008152f35b50346101c957806003193601126101c95760206040516276a7008152f35b50346101c957806003193601126101c9576020610267611750565b50346101c957806003193601126101c95760206102676001600160401b03421661183d565b50346101c95760203660031901126101c95760043560018060a01b038254163314158061063d575b610305576009548110610606576003546040516370a0823160e01b815230600482015290602090829060249082906001600160a01b03165afa80156105fb57829184916105c1575b501061058c578082916009557fe7df89eb84fdc891ee30f911793c84023dcd9549a52acfb8964e67682bbe54586020604051838152a160405160208101918252602081526105246040826114a3565b5190206004546001600160a01b0316908161053d575050f35b813b15610588578291606483926040519485938492631250d57560e31b845230600485015260cc602485015260448401525af16105775750f35b81610581916114a3565b6101c95780f35b5050fd5b60405162461bcd60e51b815260206004820152600d60248201526c62616c616e6365203c206e657760981b6044820152606490fd5b9150506020813d6020116105f3575b816105dd602093836114a3565b810103126105ee57819051386104d5565b600080fd5b3d91506105d0565b6040513d85823e3d90fd5b60405162461bcd60e51b815260206004820152600f60248201526e63616e6e6f7420646563726561736560881b6044820152606490fd5b506006546001600160a01b031633141561048d565b50346101c957806003193601126101c9576020600a54604051908152f35b50346101c957806003193601126101c957546040516001600160a01b039091168152602090f35b50346101c957806003193601126101c957600154336001600160a01b039091160361070957600180546001600160a01b0319908116909155815433918116821783556001600160a01b03167f8be0079c531659141344cd1fd0a4f28419497f9722a3daafe3b4186f6b6457e08380a380f35b60405162461bcd60e51b815260206004820152602960248201527f4f776e61626c6532537465703a2063616c6c6572206973206e6f7420746865206044820152683732bb9037bbb732b960b91b6064820152608490fd5b50346101c957806003193601126101c9576020600954604051908152f35b50346101c957806003193601126101c95760206001600160401b0360085460401c16604051908152f35b50346101c957806003193601126101c9576003546040516001600160a01b039091168152602090f35b50346101c957806003193601126101c9576107ea6119e4565b600180546001600160a01b03199081169091558154908116825581906001600160a01b03167f8be0079c531659141344cd1fd0a4f28419497f9722a3daafe3b4186f6b6457e08280a380f35b50346101c95760203660031901126101c95761085061148d565b81546001600160a01b031633141580806109b8575b6109a95780610994575b6103055760ff600b5416610985576001600160401b03811615610976576007805467ffffffffffffffff60a01b191660a083901b67ffffffffffffffff60a01b16179055600880546001600160801b0319166b06067b00000000000076a700179055604080516001600160401b03831681526276a70060208201526306067b009181019190915261097391907f85ae683b4cad68fccc974e2921f1d56ab9573745877175dd7163f7edf0a574179080606081010390a160405161096b8161095d60208201948560406306067b00919392936001600160401b0360608201951681526276a70060208201520152565b03601f1981018352826114a3565b519020611939565b80f35b63019af63760e01b8252600482fd5b6303cb96db60e21b8252600482fd5b506006546001600160a01b031633141561086f565b63b577c1f760e01b8352600483fd5b506006546001600160a01b0316331415610865565b50346101c95760203660031901126101c9576004356001600160a01b038116810361023f5781546001600160a01b031633141580610a23575b61030557610a1b90610a16611990565b611530565b600160025580f35b506006546001600160a01b0316331415610a06565b50346101c957806003193601126101c95780546001600160a01b031633141580610aa6575b610a975761010061ff0019600b541617600b557f109285b540ac62350c74ef9b8ec286e13ed775366c4b8da73c62a7b6d1601de88180a180f35b63b577c1f760e01b8152600490fd5b506006546001600160a01b0316331415610a5d565b50346101c957806003193601126101c95780546001600160a01b031633141580610b18575b610a9757600160ff19600b541617600b557fa8c3bc80d76dd9bc28ee29c47f0a96253d85b15f958bfbb2644888cd837f4bd08180a180f35b506006546001600160a01b0316331415610ae0565b50346101c957806003193601126101c957610b46611990565b6005546001600160a01b031680610d17575b506007546001600160a01b0316908115610d0857610b74611750565b918215610cf957600a5492808401809411610ce557600a9390935560035460405163a9059cbb60e01b81526001600160a01b03838116600483015260248201869052939485949092602091839160449183918991165af18015610cda57610be2918591610cab575b506114f2565b600a54827f987d620f307ff6b94d58743cb7a7509f24071586a77759b77c2d4e29f75a2f9a60408051858152846020820152a260405191602083019384526040830152606082015260608152610c396080826114a3565b5190206004546001600160a01b03169081610c58575b82600160025580f35b813b15610588578291606483926040519485938492631250d57560e31b845230600485015260cd602485015260448401525af1610c96575b80610c4f565b81610ca0916114a3565b6101c9578038610c90565b610ccd915060203d602011610cd3575b610cc581836114a3565b8101906114da565b38610bdc565b503d610cbb565b6040513d86823e3d90fd5b634e487b7160e01b83526011600452602483fd5b6312d37ee560e31b8252600482fd5b63d92e233d60e01b8152600490fd5b602060049160405192838092631da4712b60e21b82525afa908115610d76578291610d57575b50610d485738610b58565b6313d0ff5960e31b8152600490fd5b610d70915060203d602011610cd357610cc581836114a3565b38610d3d565b6040513d84823e3d90fd5b50346101c95760203660031901126101c9576004356001600160a01b0381169081900361023f5781546001600160a01b031633141580610e02575b610305576020817f672081dadde50e814bb62a7286e6c0cad07071fa40747b022649c85346bdbc84926001600160601b0360a01b6004541617600455604051908152a180f35b506006546001600160a01b0316331415610dbc565b50346101c95760203660031901126101c95760043560018060a01b0382541633141580610fcb575b61030557600a54610f94576003546040516370a0823160e01b815230600482015290602090829060249082906001600160a01b03165afa80156105fb5782918491610f5f575b5010610f27578082916009557fb1a1e1f2c9df12b47643e23f339aeee5dab327cdae111e764988d3c011bfd8426020604051838152a16040516020810191825260208152610ed46040826114a3565b5190206004546001600160a01b03169081610eed575050f35b813b15610588578291606483926040519485938492631250d57560e31b845230600485015260cb602485015260448401525af16105775750f35b60405162461bcd60e51b815260206004820152601060248201526f18985b185b98d9480f08185b5bdd5b9d60821b6044820152606490fd5b9150506020813d602011610f8c575b81610f7b602093836114a3565b810103126105ee5781905138610e85565b3d9150610f6e565b60405162461bcd60e51b815260206004820152600f60248201526e185b1c9958591e481cdd185c9d1959608a1b6044820152606490fd5b506006546001600160a01b0316331415610e3f565b50346101c957806003193601126101c9576006546040516001600160a01b039091168152602090f35b50346101c957806003193601126101c9576007546040516001600160a01b039091168152602090f35b50346101c957806003193601126101c95760206001600160401b0360075460a01c16604051908152f35b50346101c95760603660031901126101c95761107661148d565b602435906001600160401b03821680830361123e57604435906001600160401b03821680830361123a5785546001600160a01b031633141580611225575b6112165760ff600b541661120757801580156111f6575b6111e75781116111b1576007805467ffffffffffffffff60a01b191660a085901b67ffffffffffffffff60a01b16179055600880546001600160801b031916909117604083811b6fffffffffffffffff0000000000000000169190911790915580516001600160401b03848116825280861660208301528316918101919091526109739361096b917f85ae683b4cad68fccc974e2921f1d56ab9573745877175dd7163f7edf0a574179080606081010390a161095d6040519384926020840196879160409194936001600160401b03809281606087019816865216602085015216910152565b60405162461bcd60e51b815260206004820152600e60248201526d31b634b3331f323ab930ba34b7b760911b6044820152606490fd5b63019af63760e01b8652600486fd5b506001600160401b038416156110cb565b6303cb96db60e21b8652600486fd5b63b577c1f760e01b8652600486fd5b506006546001600160a01b03163314156110b4565b8580fd5b8380fd5b50346101c957806003193601126101c957602060ff600b5460081c166040519015158152f35b50346101c957806003193601126101c957602060ff600b54166040519015158152f35b50346101c95760203660031901126101c9576004356001600160a01b0381169081900361023f5781546001600160a01b03163314158061138e575b6103055760ff600b5460081c166109855780156102f6578082916001600160601b0360a01b6007541617600755604051817f04d55a8be181fb8d75b76f2d48aa0b2ee40f47e53d6e61763eeeec46feea8a248480a260208101918252602081526113316040826114a3565b5190206004546001600160a01b0316908161134a575050f35b813b15610588578291606483926040519586938492631250d57560e31b845230600485015260c9602485015260448401525af1611385579050f35b610973916114a3565b506006546001600160a01b03163314156112c6565b50346101c95760203660031901126101c9576004356001600160a01b0381169081900361023f5781546001600160a01b03163314158061142a575b6103055780156102f6576020817f77035913569424ed432f15a527aa4e0317cbefd28ce0fe9cdfe61acd77345c17926001600160601b0360a01b6003541617600355604051908152a180f35b506006546001600160a01b03163314156113de565b50346101c957806003193601126101c9576005546040516001600160a01b039091168152602090f35b90503461023f578160031936011261023f576020906001600160401b03600854168152f35b600435906001600160401b03821682036105ee57565b90601f801991011681019081106001600160401b038211176114c457604052565b634e487b7160e01b600052604160045260246000fd5b908160209103126105ee575180151581036105ee5790565b156114f957565b60405162461bcd60e51b815260206004820152600f60248201526e1d1c985b9cd9995c8819985a5b1959608a1b6044820152606490fd5b6000906001600160a01b0381168015611741576115556001600160401b03421661183d565b6009548091149081611735575b50156116fb576003546040516370a0823160e01b815230600482015291906001600160a01b0316602083602481845afa9283156116b15785936116c3575b5082156116bc5760405163a9059cbb60e01b81526001600160a01b038516600482015260248101849052906020908290604490829089905af19081156116b157916115f961095d949261164b948891610cab57506114f2565b7f6b2decb9d0c928ccb65fe19382da83bf92f8690b1ed1ff05e931021c6a6e0d516020604051848152a2604080516001600160a01b039095166020860190815290850191909152929182906060820190565b5190206004546001600160a01b0316908161166557505050565b813b156116ad578291606483926040519485938492631250d57560e31b845230600485015260ce602485015260448401525af16116a0575050565b816116aa916114a3565b50565b8280fd5b6040513d87823e3d90fd5b5050505050565b9092506020813d6020116116f3575b816116df602093836114a3565b810103126116ef575191386115a0565b8480fd5b3d91506116d2565b60405162461bcd60e51b81526020600482015260126024820152711b9bdd08199d5b1b1e481c995b19585cd95960721b6044820152606490fd5b9050600a541438611562565b63d92e233d60e01b8352600483fd5b6117626001600160401b03421661183d565b600a5480821115611816578103908111611800576003546040516370a0823160e01b815230600482015290602090829060249082906001600160a01b03165afa9081156117f4576000916117c2575b508082116117bd575090565b905090565b906020823d6020116117ec575b816117dc602093836114a3565b810103126101c9575051386117b1565b3d91506117cf565b6040513d6000823e3d90fd5b634e487b7160e01b600052601160045260246000fd5b5050600090565b906001600160401b03809116911601906001600160401b03821161180057565b6009548015808015611923575b801561190d575b611905576001600160401b0360075460a01c166008546001600160401b038061187c8184168561181d565b1695169485106118fb576001600160401b039060401c16936001600160401b036118a6868461181d565b168110156118f357036001600160401b038111611800576001600160401b03168083029283041417156118005781156118dd570490565b634e487b7160e01b600052601260045260246000fd5b505050905090565b5050505050600090565b505050600090565b506001600160401b0360085460401c1615611851565b506001600160401b0360075460a01c161561184a565b6004546000916001600160a01b03909116908161195557505050565b813b156116ad578291606483926040519485938492631250d57560e31b845230600485015260ca602485015260448401525af16116a0575050565b600280541461199f5760028055565b60405162461bcd60e51b815260206004820152601f60248201527f5265656e7472616e637947756172643a207265656e7472616e742063616c6c006044820152606490fd5b6000546001600160a01b031633036119f857565b606460405162461bcd60e51b815260206004820152602060248201527f4f776e61626c653a2063616c6c6572206973206e6f7420746865206f776e65726044820152fdfea264697066735822122010683c1355db94cd11ad755517852580174a7197c179ea9c3e23763944a7e75d64736f6c634300081e0033",
  "linkReferences": {},
  "deployedLinkReferences": {}
}