{
  "_format": "hh-sol-artifact-1",
  "contractName": "ReenteringERC20",
  "sourceName": "contracts/mocks/ReenteringERC20.sol",
  "abi": [
    {
      "inputs": [
        {
          "internalType": "address",
          "name": "from",
          "type": "address"
        },
        {
          "internalType": "address",
          "name": "spender",
          "type": "address"
        },
        {
          "internalType": "uint256",
          "name": "value",
          "type": "uint256"
        }
      ],
      "name": "TEST_checkAllowance",
      "outputs": [
        {
          "internalType": "bool",
          "name": "",
          "type": "bool"
        }
      ],
      "stateMutability": "view",
      "type": "function"
    },
    {
      "inputs": [
        {
          "internalType": "address",
          "name": "",
          "type": "address"
        },
        {
          "internalType": "address",
          "name": "",
          "type": "address"
        }
      ],
      "name": "allowance",
      "outputs": [
        {
          "internalType": "uint256",
          "name": "",
          "type": "uint256"
        }
      ],
      "stateMutability": "view",
      "type": "function"
    },
    {
      "inputs": [
        {
          "internalType": "address",
          "name": "spender",
          "type": "address"
        },
        {
          "internalType": "uint256",
          "name": "value",
          "type": "uint256"
        }
      ],
      "name": "approve",
      "outputs": [
        {
          "internalType": "bool",
          "name": "",
          "type": "bool"
        }
      ],
      "stateMutability": "nonpayable",
      "type": "function"
    },
    {
      "inputs": [
        {
          "internalType": "address",
          "name": "",
          "type": "address"
        }
      ],
      "name": "balanceOf",
      "outputs": [
        {
          "internalType": "uint256",
          "name": "",
          "type": "uint256"
        }
      ],
      "stateMutability": "view",
      "type": "function"
    },
    {
      "inputs": [],
      "name": "decimals",
      "outputs": [
        {
          "internalType": "uint8",
          "name": "",
          "type": "uint8"
        }
      ],
      "stateMutability": "view",
      "type": "function"
    },
    {
      "inputs": [
        {
          "internalType": "address",
          "name": "to",
          "type": "address"
        },
        {
          "internalType": "uint256",
          "name": "amount",
          "type": "uint256"
        }
      ],
      "name": "mint",
      "outputs": [],
      "stateMutability": "nonpayable",
      "type": "function"
    },
    {
      "inputs": [],
      "name": "name",
      "outputs": [
        {
          "internalType": "string",
          "name": "",
          "type": "string"
        }
      ],
      "stateMutability": "view",
      "type": "function"
    },
    {
      "inputs": [],
      "name": "reenterId",
      "outputs": [
        {
          "internalType": "uint256",
          "name": "",
          "type": "uint256"
        }
      ],
      "stateMutability": "view",
      "type": "function"
    },
    {
      "inputs": [],
      "name": "reenterTarget",
      "outputs": [
        {
          "internalType": "address",
          "name": "",
          "type": "address"
        }
      ],
      "stateMutability": "view",
      "type": "function"
    },
    {
      "inputs": [
        {
          "internalType": "address",
          "name": "target",
          "type": "address"
        },
        {
          "internalType": "uint256",
          "name": "id",
          "type": "uint256"
        }
      ],
      "name": "setReenter",
      "outputs": [],
      "stateMutability": "nonpayable",
      "type": "function"
    },
    {
      "inputs": [],
      "name": "symbol",
      "outputs": [
        {
          "internalType": "string",
          "name": "",
          "type": "string"
        }
      ],
      "stateMutability": "view",
      "type": "function"
    },
    {
      "inputs": [
        {
          "internalType": "address",
          "name": "to",
          "type": "address"
        },
        {
          "internalType": "uint256",
          "name": "value",
          "type": "uint256"
        }
      ],
      "name": "transfer",
      "outputs": [
        {
          "internalType": "bool",
          "name": "",
          "type": "bool"
        }
      ],
      "stateMutability": "nonpayable",
      "type": "function"
    },
    {
      "inputs": [
        {
          "internalType": "address",
          "name": "from",
          "type": "address"
        },
        {
          "internalType": "address",
          "name": "to",
          "type": "address"
        },
        {
          "internalType": "uint256",
          "name": "value",
          "type": "uint256"
        }
      ],
      "name": "transferFrom",
      "outputs": [
        {
          "internalType": "bool",
          "name": "",
          "type": "bool"
        }
      ],
      "stateMutability": "nonpayable",
      "type": "function"
    }
  ],
  "bytecode": "0x60806040523461010057610014600054610105565b601f81116100b7575b50600e662932b2b73a32b960c91b0160005560015461003b90610105565b601f811161006d575b60066214939560ea1b016001556002805460ff191660121790556040516107be90816101408239f35b6001600052601f0160051c7fb10e2d527612073b26eecdfd717e6a320cf44b4afac2b0732d9fcbe2b7fa0cf6908101905b8181106100ab5750610044565b6000815560010161009e565b60008052601f0160051c7f290decd9548b62a8d60345a988386fc84ba6bc95484008f6362f93160ef3e563908101905b8181106100f4575061001d565b600081556001016100e7565b600080fd5b90600182811c92168015610135575b602083101461011f57565b634e487b7160e01b600052602260045260246000fd5b91607f169161011456fe6080604052600436101561001257600080fd5b6000803560e01c806306fdde0314610576578063095ea7b31461052f57806323b872dd14610440578063313ce5671461041f57806340c10f19146103df57806370a08231146103a657806395d89b411461029d578063a9059cbb146101bb578063c283914c1461019d578063c438e18914610161578063cc6e845414610138578063dd62ed3e146100d25763f81f7909146100ac57600080fd5b346100cf5760206100c56100bf366106b0565b91610750565b6040519015158152f35b80fd5b50346100cf5760403660031901126100cf576100ec610695565b60243591906001600160a01b0383168303610134579060409160018060a01b031681526004602052209060018060a01b03166000526020526020604060002054604051908152f35b5080fd5b50346100cf57806003193601126100cf576005546040516001600160a01b039091168152602090f35b50346100cf5760403660031901126100cf576001600160a01b03610183610695565b1660018060a01b0319600554161760055560243560065580f35b50346100cf57806003193601126100cf576020600654604051908152f35b50346100cf5760403660031901126100cf576101d5610695565b6024359033835260036020526101f182604085205410156106ea565b338352600360205260408320610208838254610720565b90556001600160a01b031682526003602052604082208054909161022b91610743565b90556005546001600160a01b03168061024a575b602060405160018152f35b6006548291803b15610299576024839260405194859384926337bdc99b60e01b845260048401525af1801561028e571561023f578161028891610614565b3861023f565b6040513d84823e3d90fd5b5050fd5b50346100cf57806003193601126100cf576040519080600154908160011c9160018116801561039c575b602084108114610388578386529081156103615750600114610304575b610300846102f481860382610614565b6040519182918261064c565b0390f35b600181527fb10e2d527612073b26eecdfd717e6a320cf44b4afac2b0732d9fcbe2b7fa0cf6939250905b808210610347575090915081016020016102f4826102e4565b91926001816020925483858801015201910190929161032e565b60ff191660208087019190915292151560051b850190920192506102f491508390506102e4565b634e487b7160e01b83526022600452602483fd5b92607f16926102c7565b50346100cf5760203660031901126100cf576020906040906001600160a01b036103ce610695565b168152600383522054604051908152f35b50346100cf5760403660031901126100cf576001600160a01b03610401610695565b16815260036020526040812061041a6024358254610743565b905580f35b50346100cf57806003193601126100cf57602060ff60025416604051908152f35b50346100cf5761044f366106b0565b929160018060a01b031691828152600360205261047284604083205410156106ea565b828152600460209081526040808320338452909152812054918483106104fe576104f1936104a286604095610720565b818452600460205284842060018060a01b033316855260205284842055825260036020528282206104d4868254610720565b90556001600160a01b031681526003602052208054909290610743565b9055602060405160018152f35b60405162461bcd60e51b8152602060048201526009602482015268616c6c6f77616e636560b81b6044820152606490fd5b50346100cf5760403660031901126100cf5760409061054c610695565b33825260046020528282209060018060a01b03168252602052206024359055602060405160018152f35b50346100cf57806003193601126100cf5760405190808054908160011c9160018116801561060a575b6020841081146103885783865290811561036157506001146105cb57610300846102f481860382610614565b80805260208120939250905b8082106105f0575090915081016020016102f4826102e4565b9192600181602092548385880101520191019092916105d7565b92607f169261059f565b90601f8019910116810190811067ffffffffffffffff82111761063657604052565b634e487b7160e01b600052604160045260246000fd5b91909160208152825180602083015260005b81811061067f575060409293506000838284010152601f8019910116010190565b806020809287010151604082860101520161065e565b600435906001600160a01b03821682036106ab57565b600080fd5b60609060031901126106ab576004356001600160a01b03811681036106ab57906024356001600160a01b03811681036106ab579060443590565b156106f157565b60405162461bcd60e51b815260206004820152600760248201526662616c616e636560c81b6044820152606490fd5b9190820391821161072d57565b634e487b7160e01b600052601160045260246000fd5b9190820180921161072d57565b6001600160a01b039081166000908152600460209081526040808320949093168252929092529020541061078357600190565b60009056fea2646970667358221220939a3ed45b918baa8201b0d4d0c334bb765ac8c1a3ccd3959a2d836b77fc010c64736f6c634300081e0033",
  "linkReferences": {},
  "deployedLinkReferences": {}
}