{"abi":[{"type":"constructor","inputs":[{"name":"_dao","type":"address","internalType":"address"},{"name":"_ledger","type":"address","internalType":"address"}],"stateMutability":"nonpayable"},{"type":"function","name":"GRACE_PERIOD","inputs":[],"outputs":[{"name":"","type":"uint256","internalType":"uint256"}],"stateMutability":"view"},{"type":"function","name":"cancelTransaction","inputs":[{"name":"target","type":"address","internalType":"address"},{"name":"value","type":"uint256","internalType":"uint256"},{"name":"signature","type":"string","internalType":"string"},{"name":"data","type":"bytes","internalType":"bytes"},{"name":"txNonce","type":"uint256","internalType":"uint256"}],"outputs":[],"stateMutability":"nonpayable"},{"type":"function","name":"dao","inputs":[],"outputs":[{"name":"","type":"address","internalType":"address"}],"stateMutability":"view"},{"type":"function","name":"delay","inputs":[],"outputs":[{"name":"","type":"uint256","internalType":"uint256"}],"stateMutability":"view"},{"type":"function","name":"eta","inputs":[{"name":"","type":"bytes32","internalType":"bytes32"}],"outputs":[{"name":"","type":"uint256","internalType":"uint256"}],"stateMutability":"view"},{"type":"function","name":"executeTransaction","inputs":[{"name":"target","type":"address","internalType":"address"},{"name":"value","type":"uint256","internalType":"uint256"},{"name":"signature","type":"string","internalType":"string"},{"name":"data","type":"bytes","internalType":"bytes"},{"name":"txNonce","type":"uint256","internalType":"uint256"}],"outputs":[{"name":"","type":"bytes","internalType":"bytes"}],"stateMutability":"payable"},{"type":"function","name":"getEta","inputs":[{"name":"target","type":"address","internalType":"address"},{"name":"value","type":"uint256","internalType":"uint256"},{"name":"signature","type":"string","internalType":"string"},{"name":"data","type":"bytes","internalType":"bytes"},{"name":"txNonce","type":"uint256","internalType":"uint256"}],"outputs":[{"name":"","type":"uint256","internalType":"uint256"}],"stateMutability":"view"},{"type":"function","name":"isReady","inputs":[{"name":"target","type":"address","internalType":"address"},{"name":"value","type":"uint256","internalType":"uint256"},{"name":"signature","type":"string","internalType":"string"},{"name":"data","type":"bytes","internalType":"bytes"},{"name":"txNonce","type":"uint256","internalType":"uint256"}],"outputs":[{"name":"","type":"bool","internalType":"bool"}],"stateMutability":"view"},{"type":"function","name":"ledger","inputs":[],"outputs":[{"name":"","type":"address","internalType":"contract IProofLedger"}],"stateMutability":"view"},{"type":"function","name":"nonce","inputs":[],"outputs":[{"name":"","type":"uint256","internalType":"uint256"}],"stateMutability":"view"},{"type":"function","name":"queueTransaction","inputs":[{"name":"target","type":"address","internalType":"address"},{"name":"value","type":"uint256","internalType":"uint256"},{"name":"signature","type":"string","internalType":"string"},{"name":"data","type":"bytes","internalType":"bytes"}],"outputs":[{"name":"","type":"bytes32","internalType":"bytes32"},{"name":"","type":"uint256","internalType":"uint256"}],"stateMutability":"nonpayable"},{"type":"function","name":"queuedTx","inputs":[{"name":"","type":"bytes32","internalType":"bytes32"}],"outputs":[{"name":"","type":"bool","internalType":"bool"}],"stateMutability":"view"},{"type":"function","name":"setDAO","inputs":[{"name":"_dao","type":"address","internalType":"address"}],"outputs":[],"stateMutability":"nonpayable"},{"type":"function","name":"setDelay","inputs":[{"name":"_delay","type":"uint256","internalType":"uint256"}],"outputs":[],"stateMutability":"nonpayable"},{"type":"function","name":"setLedger","inputs":[{"name":"_ledger","type":"address","internalType":"address"}],"outputs":[],"stateMutability":"nonpayable"},{"type":"event","name":"DAOSet","inputs":[{"name":"newDAO","type":"address","indexed":true,"internalType":"address"}],"anonymous":false},{"type":"event","name":"DelaySet","inputs":[{"name":"newDelay","type":"uint256","indexed":false,"internalType":"uint256"}],"anonymous":false},{"type":"event","name":"TransactionCancelled","inputs":[{"name":"txId","type":"bytes32","indexed":true,"internalType":"bytes32"}],"anonymous":false},{"type":"event","name":"TransactionExecuted","inputs":[{"name":"txId","type":"bytes32","indexed":true,"internalType":"bytes32"},{"name":"target","type":"address","indexed":true,"internalType":"address"},{"name":"value","type":"uint256","indexed":false,"internalType":"uint256"},{"name":"data","type":"bytes","indexed":false,"internalType":"bytes"}],"anonymous":false},{"type":"event","name":"TransactionQueued","inputs":[{"name":"txId","type":"bytes32","indexed":true,"internalType":"bytes32"},{"name":"target","type":"address","indexed":true,"internalType":"address"},{"name":"value","type":"uint256","indexed":false,"internalType":"uint256"},{"name":"data","type":"bytes","indexed":false,"internalType":"bytes"},{"name":"eta","type":"uint256","indexed":false,"internalType":"uint256"}],"anonymous":false},{"type":"error","name":"TIMELOCK_Expired","inputs":[]},{"type":"error","name":"TIMELOCK_NotDAO","inputs":[]},{"type":"error","name":"TIMELOCK_NotQueued","inputs":[]},{"type":"error","name":"TIMELOCK_NotReady","inputs":[]},{"type":"error","name":"TIMELOCK_Zero","inputs":[]}],"bytecode":{"object":"0x60803460a557601f610cd238819003918201601f19168301916001600160401b0383118484101760a957808492604094855283398101031260a557604b602060458360bd565b920160bd565b6202a300600255906001600160a01b0316801560965760018060a01b03195f5416175f5560018060a01b031660018060a01b03196001541617600155604051610c0190816100d18239f35b63600ba19b60e01b5f5260045ffd5b5f80fd5b634e487b7160e01b5f52604160045260245ffd5b51906001600160a01b038216820360a55756fe60806040526004361015610011575f80fd5b5f5f3560e01c80630825f38f146106c0578063088775a3146106965780633246887d146106535780633275cf4d146104ed5780634162169f146104c657806356397c351461049e578063591fcdfe1461034b5780636a42b8f81461032d578063a96d5f9b146102d6578063affed0e0146102b8578063c1a287e21461029a578063d681960f1461026b578063e177246e14610190578063e73a914c146100e65763ea1cc666146100bf575f80fd5b346100e35760206100db6100d236610935565b939290926109c4565b604051908152f35b80fd5b50346100e35760203660031901126100e357610100610889565b6101086109fa565b6001600160a01b031680156101815781546001600160a01b031916811782557f8aad84fcad50e723fa3bcf0fb32c5bea4c71078b77b9aedfa638f146f3a3f7b98280a261017e60405161015c60408261089f565b601081526f1d1a5b595b1bd8dad7d9185bd7dcd95d60821b6020820152610b5f565b80f35b63600ba19b60e01b8252600482fd5b50346100e35760203660031901126100e3576004356101ad6109fa565b620151808110158061025e575b15610223576020817f63e09f16584208fba1fc7ff64c62b00f07bec177c0d97ca6689891b1e77a35c792600255604051908152a161017e6040516101ff60408261089f565b60128152711d1a5b595b1bd8dad7d9195b185e57dcd95d60721b6020820152610b5f565b60405162461bcd60e51b815260206004820152601360248201527264656c6179206f7574206f6620626f756e647360681b6044820152606490fd5b5062278d008111156101ba565b50346100e35760203660031901126100e35760ff60406020926004358152600384522054166040519015158152f35b50346100e357806003193601126100e357602060405162093a808152f35b50346100e357806003193601126100e3576020600554604051908152f35b50346100e3576020906102f46102eb36610935565b93929092610a1c565b908181526003835260ff6040822054169182610317575b50506040519015158152f35b6040925081526004835220544210155f8061030b565b50346100e357806003193601126100e3576020600254604051908152f35b503461048b5761036f61035d36610935565b918095936103696109fa565b85610a1c565b805f52600360205260ff60405f2054161561048f57805f52600360205260405f2060ff198154169055805f5260046020525f60408120557f0891e6c675e964cf1e5982f60fda276ad06301a9221b2f1d7bf2b2a42fbd69a15f80a2604051906103d960408361089f565b60128252711d1a5b595b1bd8dad7d8d85b98d95b1b195960721b60208301526001546001600160a01b03168061040d578480f35b803b1561048b575f92836104509361046860405197889687958694630303c28760e61b865260018060a01b031660048601526080602486015260848501906109a0565b908460448501526003198483030160648501526109a0565b03925af1610478575b8080808480f35b61048491505f9061089f565b5f5f610471565b5f80fd5b630d4d7b4d60e01b5f5260045ffd5b3461048b575f36600319011261048b576001546040516001600160a01b039091168152602090f35b3461048b575f36600319011261048b575f546040516001600160a01b039091168152602090f35b3461048b57608036600319011261048b57610506610889565b6024359060443567ffffffffffffffff811161048b5761052a9036906004016108f1565b60643567ffffffffffffffff811161048b5761054a9036906004016108f1565b6105526109fa565b600554915f19831461063f57600183016005556105728383838888610a1c565b9360025442019081421161063f57604096867f4efebf40a8244d219085e74f928a18e8c9d17adc6b39270b8706cca0a92b648d6105ee6105d861063398845f5260036020528c5f20600160ff19825416179055845f526004602052878d5f205588610a7f565b8b519485526060602086015260608501906109a0565b8a84018690526001600160a01b038516939081900390a3865190610612888361089f565b600f82526e1d1a5b595b1bd8dad7dc5d595d5959608a1b6020830152610ac5565b82519182526020820152f35b634e487b7160e01b5f52601160045260245ffd5b3461048b57602036600319011261048b5761066c610889565b6106746109fa565b600180546001600160a01b0319166001600160a01b0392909216919091179055005b3461048b57602036600319011261048b576004355f526004602052602060405f2054604051908152f35b6106e16106cc36610935565b6106d8959193956109fa565b83838787610a1c565b91825f52600360205260ff60405f2054161561048f57825f52600460205260405f2054421061087a57825f52600460205260405f205462093a80810180911161063f57421161086b575f838152600360209081526040808320805460ff1916905560049091528120556107549082610a7f565b935f8086516020880184885af1933d15610863573d94610773866108d5565b95610781604051978861089f565b86523d5f602088013e5b1561082b5761082795610813947f8b7b712167f6dc65bddd7d9a42eec3ed7de70db3ffda6e8fbb166195a0fa10cb60405185815260406020820152806107de60018060a01b0387169560408301906109a0565b0390a3604051906107f060408361089f565b60118252701d1a5b595b1bd8dad7d95e1958dd5d1959607a1b6020830152610ac5565b6040519182916020835260208301906109a0565b0390f35b60405162461bcd60e51b815260206004820152601060248201526f195e1958dd5d1a5bdb8819985a5b195960821b6044820152606490fd5b60609461078b565b6304e905c960e41b5f5260045ffd5b6306929d8760e01b5f5260045ffd5b600435906001600160a01b038216820361048b57565b90601f8019910116810190811067ffffffffffffffff8211176108c157604052565b634e487b7160e01b5f52604160045260245ffd5b67ffffffffffffffff81116108c157601f01601f191660200190565b81601f8201121561048b5760208135910161090b826108d5565b92610919604051948561089f565b8284528282011161048b57815f92602092838601378301015290565b9060a060031983011261048b576004356001600160a01b038116810361048b57916024359160443567ffffffffffffffff811161048b5782610979916004016108f1565b916064359067ffffffffffffffff821161048b57610999916004016108f1565b9060843590565b805180835260209291819084018484015e5f828201840152601f01601f1916010190565b906109d194939291610a1c565b805f52600360205260ff60405f205416156109f5575f52600460205260405f205490565b505f90565b5f546001600160a01b03163303610a0d57565b63178d635760e31b5f5260045ffd5b93610a65610a799394610a53604051968795602087019960018060a01b03168a52604087015260a0606087015260c08601906109a0565b848103601f19016080860152906109a0565b9060a083015203601f19810183528261089f565b51902090565b6024610ac29163ffffffff60e01b9060208151910120166020604051948592828401528051918291018484015e81015f838201520301601f19810183528261089f565b90565b60015490916001600160a01b039091169081610ae3575b5050505050565b813b1561048b575f610b2693610b3d829660405198899788968795630303c28760e61b875260018060a01b031660048701526080602487015260848601906109a0565b9160448501526003198483030160648501526109a0565b03925af1610b4f575b80808080610adc565b5f610b599161089f565b5f610b46565b6001546001600160a01b031680610b74575050565b803b1561048b57604051633ddd61ab60e21b815230600482015260606024820152915f918391829084908290610bae9060648301906109a0565b33604483015203925af1610bbf5750565b5f610bc99161089f565b56fea264697066735822122062e4fabdabe9adac29ee43d21cd44f89603961b8817cda5332c45c12294ad58064736f6c634300081e0033","linkReferences":{}},"methodIdentifiers":{"GRACE_PERIOD()":"c1a287e2","cancelTransaction(address,uint256,string,bytes,uint256)":"591fcdfe","dao()":"4162169f","delay()":"6a42b8f8","eta(bytes32)":"088775a3","executeTransaction(address,uint256,string,bytes,uint256)":"0825f38f","getEta(address,uint256,string,bytes,uint256)":"ea1cc666","isReady(address,uint256,string,bytes,uint256)":"a96d5f9b","ledger()":"56397c35","nonce()":"affed0e0","queueTransaction(address,uint256,string,bytes)":"3275cf4d","queuedTx(bytes32)":"d681960f","setDAO(address)":"e73a914c","setDelay(uint256)":"e177246e","setLedger(address)":"3246887d"},"id":7}