{
  "_format": "hh-sol-artifact-1",
  "contractName": "EmergencyBreaker",
  "sourceName": "contracts/VFIDESecurity.sol",
  "abi": [
    {
      "inputs": [
        {
          "internalType": "address",
          "name": "_dao",
          "type": "address"
        },
        {
          "internalType": "address",
          "name": "_ledger",
          "type": "address"
        }
      ],
      "stateMutability": "nonpayable",
      "type": "constructor"
    },
    {
      "inputs": [],
      "name": "SEC_NotDAO",
      "type": "error"
    },
    {
      "inputs": [],
      "name": "SEC_Zero",
      "type": "error"
    },
    {
      "anonymous": false,
      "inputs": [
        {
          "indexed": false,
          "internalType": "uint64",
          "name": "cooldown",
          "type": "uint64"
        }
      ],
      "name": "CooldownSet",
      "type": "event"
    },
    {
      "anonymous": false,
      "inputs": [
        {
          "indexed": false,
          "internalType": "address",
          "name": "dao",
          "type": "address"
        }
      ],
      "name": "DAOSet",
      "type": "event"
    },
    {
      "anonymous": false,
      "inputs": [
        {
          "indexed": false,
          "internalType": "address",
          "name": "ledger",
          "type": "address"
        }
      ],
      "name": "LedgerSet",
      "type": "event"
    },
    {
      "anonymous": false,
      "inputs": [
        {
          "indexed": false,
          "internalType": "bool",
          "name": "on",
          "type": "bool"
        },
        {
          "indexed": false,
          "internalType": "string",
          "name": "reason",
          "type": "string"
        }
      ],
      "name": "Toggled",
      "type": "event"
    },
    {
      "inputs": [],
      "name": "dao",
      "outputs": [
        {
          "internalType": "address",
          "name": "",
          "type": "address"
        }
      ],
      "stateMutability": "view",
      "type": "function"
    },
    {
      "inputs": [],
      "name": "halted",
      "outputs": [
        {
          "internalType": "bool",
          "name": "",
          "type": "bool"
        }
      ],
      "stateMutability": "view",
      "type": "function"
    },
    {
      "inputs": [],
      "name": "lastToggleTime",
      "outputs": [
        {
          "internalType": "uint64",
          "name": "",
          "type": "uint64"
        }
      ],
      "stateMutability": "view",
      "type": "function"
    },
    {
      "inputs": [],
      "name": "ledger",
      "outputs": [
        {
          "internalType": "contract IProofLedger",
          "name": "",
          "type": "address"
        }
      ],
      "stateMutability": "view",
      "type": "function"
    },
    {
      "inputs": [
        {
          "internalType": "address",
          "name": "_dao",
          "type": "address"
        }
      ],
      "name": "setDAO",
      "outputs": [],
      "stateMutability": "nonpayable",
      "type": "function"
    },
    {
      "inputs": [
        {
          "internalType": "address",
          "name": "_ledger",
          "type": "address"
        }
      ],
      "name": "setLedger",
      "outputs": [],
      "stateMutability": "nonpayable",
      "type": "function"
    },
    {
      "inputs": [
        {
          "internalType": "uint64",
          "name": "_cooldown",
          "type": "uint64"
        }
      ],
      "name": "setToggleCooldown",
      "outputs": [],
      "stateMutability": "nonpayable",
      "type": "function"
    },
    {
      "inputs": [
        {
          "internalType": "bool",
          "name": "on",
          "type": "bool"
        },
        {
          "internalType": "string",
          "name": "reason",
          "type": "string"
        }
      ],
      "name": "toggle",
      "outputs": [],
      "stateMutability": "nonpayable",
      "type": "function"
    },
    {
      "inputs": [],
      "name": "toggleCooldown",
      "outputs": [
        {
          "internalType": "uint64",
          "name": "",
          "type": "uint64"
        }
      ],
      "stateMutability": "view",
      "type": "function"
    }
  ],
  "bytecode": "0x60803460b657601f6108be38819003918201601f19168301916001600160401b0383118484101760bb57808492604094855283398101031260b657604b602060458360d1565b920160d1565b600280546001600160401b031916610e10179055906001600160a01b0316801560a55760018060a01b0319600054161760005560018060a01b031660018060a01b031960015416176001556040516107d990816100e58239f35b630f1ee1d360e41b60005260046000fd5b600080fd5b634e487b7160e01b600052604160045260246000fd5b51906001600160a01b038216820360b65756fe6080604052600436101561001257600080fd5b6000803560e01c80633246887d146105eb578063337d1d5b146102a25780633b9f3e8b1461027b5780634162169f1461025457806356397c351461022b57806377a6595b146101895780639d9772051461015f578063b9b8af0b146101395763e73a914c1461008057600080fd5b34610136576020366003190112610136576004356001600160a01b03811690819003610134576100ae6106e6565b80156101255781546001600160a01b031916811782556040519081527f8aad84fcad50e723fa3bcf0fb32c5bea4c71078b77b9aedfa638f146f3a3f7b990602090a161012260405161010160408261068c565b600f81526e189c99585ad95c97d9185bd7dcd95d608a1b6020820152610730565b80f35b630f1ee1d360e41b8252600482fd5b505b80fd5b5034610136578060031936011261013657602060ff60015460a01c166040519015158152f35b503461013657806003193601126101365760206001600160401b0360015460a81c16604051908152f35b5034610136576020366003190112610136576004356001600160401b0381168091036101345760207fd3c86bd8150fcc5f376375097a2a9b313bf89addc501ee368c9eebe117328497916101db6106e6565b806001600160401b03196002541617600255604051908152a161012260405161020560408261068c565b6014815273189c99585ad95c97d8dbdbdb191bdddb97dcd95d60621b6020820152610730565b50346101365780600319360112610136576001546040516001600160a01b039091168152602090f35b5034610136578060031936011261013657546040516001600160a01b039091168152602090f35b503461013657806003193601126101365760206001600160401b0360025416604051908152f35b5034610136576040366003190112610136576004358181158015908184036105e757602435936001600160401b0385116105005736602386011215610500578460040135916001600160401b0383116105e357602486019560248436920101116105e35761030e6106e6565b6001600160401b03600254169081151590816105cb575b816105c3575b50610534575b5060018054600160a01b600160e81b03191660a085901b60ff60a01b16174260a81b67ffffffffffffffff60a81b16179055604080519384526020840181905283018290528185606085013783606083850101527fcecabc0d177ad16d218b48cf49d81d8af631fe5978a2d42c492b3e5bec598e24601f19601f84011693606081868101030190a1801561050e576104246040516103d060408261068c565b600281526137b760f11b60208201525b61041f6028604051809367627265616b65725f60c01b602083015261040e81518092602086860191016106c3565b81010301601f19810183528261068c565b610730565b15610504578260206001925b80826040519661044160408961068c565b600e88526d627265616b65725f746f67676c6560901b82890152019761046a604051998a61068c565b81895283890137860101526001546001600160a01b03168061048a578380f35b803b15610500576104c88480946104e060ff95604051998a9788968795630303c28760e61b875230600488015260806024880152608487019061070b565b9216604485015283820360031901606485015261070b565b03925af16104f0575b8180808380f35b6104f99161068c565b38816104e9565b8380fd5b8260208192610430565b61042460405161051f60408261068c565b600381526237b33360e91b60208201526103e0565b9093506001600160401b0360015460a81c16016001600160401b0381116105af576001600160401b0316421061056c57849238610331565b60405162461bcd60e51b815260206004820152601b60248201527a5345433a20746f67676c6520636f6f6c646f776e2061637469766560281b6044820152606490fd5b634e487b7160e01b86526011600452602486fd5b90503861032b565b60015460a81c6001600160401b031615159150610325565b8480fd5b8280fd5b5034610136576020366003190112610136576004356001600160a01b038116908190036101345760207fbc62e69a31739e36d57d56991ac20e4e507a7edfff9070e6a11df5a37b8b4e6f9161063e6106e6565b600180546001600160a01b03191682179055604051908152a161012260405161066860408261068c565b6012815271189c99585ad95c97db195919d95c97dcd95d60721b6020820152610730565b90601f801991011681019081106001600160401b038211176106ad57604052565b634e487b7160e01b600052604160045260246000fd5b60005b8381106106d65750506000910152565b81810151838201526020016106c6565b6000546001600160a01b031633036106fa57565b63457cf6fd60e11b60005260046000fd5b90602091610724815180928185528580860191016106c3565b601f01601f1916010190565b6001546000916001600160a01b03909116908161074c57505050565b813b156105e75761078483928392604051948580948193633ddd61ab60e21b835230600484015260606024840152606483019061070b565b33604483015203925af1610796575050565b816107a09161068c565b5056fea264697066735822122050801a8300527ecfa3bf865ef8afaa0e7314ff591ad4aaa18776a49a060ee75f64736f6c634300081e0033",
  "linkReferences": {},
  "deployedLinkReferences": {}
}