{
  "_format": "hh-sol-artifact-1",
  "contractName": "GuardianRegistry",
  "sourceName": "contracts/VFIDESecurity.sol",
  "abi": [
    {
      "inputs": [
        {
          "internalType": "address",
          "name": "_dao",
          "type": "address"
        }
      ],
      "stateMutability": "nonpayable",
      "type": "constructor"
    },
    {
      "inputs": [],
      "name": "SEC_AlreadyMember",
      "type": "error"
    },
    {
      "inputs": [],
      "name": "SEC_BadThreshold",
      "type": "error"
    },
    {
      "inputs": [],
      "name": "SEC_NotDAO",
      "type": "error"
    },
    {
      "inputs": [],
      "name": "SEC_NotMember",
      "type": "error"
    },
    {
      "inputs": [],
      "name": "SEC_Zero",
      "type": "error"
    },
    {
      "anonymous": false,
      "inputs": [
        {
          "indexed": false,
          "internalType": "address",
          "name": "dao",
          "type": "address"
        }
      ],
      "name": "DAOSet",
      "type": "event"
    },
    {
      "anonymous": false,
      "inputs": [
        {
          "indexed": true,
          "internalType": "address",
          "name": "vault",
          "type": "address"
        },
        {
          "indexed": true,
          "internalType": "address",
          "name": "guardian",
          "type": "address"
        }
      ],
      "name": "GuardianAdded",
      "type": "event"
    },
    {
      "anonymous": false,
      "inputs": [
        {
          "indexed": true,
          "internalType": "address",
          "name": "vault",
          "type": "address"
        },
        {
          "indexed": true,
          "internalType": "address",
          "name": "guardian",
          "type": "address"
        }
      ],
      "name": "GuardianRemoved",
      "type": "event"
    },
    {
      "anonymous": false,
      "inputs": [
        {
          "indexed": true,
          "internalType": "address",
          "name": "vault",
          "type": "address"
        },
        {
          "indexed": false,
          "internalType": "uint8",
          "name": "mOfN",
          "type": "uint8"
        }
      ],
      "name": "ThresholdSet",
      "type": "event"
    },
    {
      "inputs": [
        {
          "internalType": "address",
          "name": "vault",
          "type": "address"
        },
        {
          "internalType": "address",
          "name": "guardian",
          "type": "address"
        }
      ],
      "name": "addGuardian",
      "outputs": [],
      "stateMutability": "nonpayable",
      "type": "function"
    },
    {
      "inputs": [
        {
          "internalType": "address",
          "name": "vault",
          "type": "address"
        },
        {
          "internalType": "address",
          "name": "guardian",
          "type": "address"
        }
      ],
      "name": "canRemoveGuardian",
      "outputs": [
        {
          "internalType": "bool",
          "name": "canRemove",
          "type": "bool"
        }
      ],
      "stateMutability": "view",
      "type": "function"
    },
    {
      "inputs": [],
      "name": "dao",
      "outputs": [
        {
          "internalType": "address",
          "name": "",
          "type": "address"
        }
      ],
      "stateMutability": "view",
      "type": "function"
    },
    {
      "inputs": [
        {
          "internalType": "address",
          "name": "",
          "type": "address"
        }
      ],
      "name": "guardianCount",
      "outputs": [
        {
          "internalType": "uint8",
          "name": "",
          "type": "uint8"
        }
      ],
      "stateMutability": "view",
      "type": "function"
    },
    {
      "inputs": [
        {
          "internalType": "address",
          "name": "vault",
          "type": "address"
        }
      ],
      "name": "guardiansNeeded",
      "outputs": [
        {
          "internalType": "uint8",
          "name": "needed",
          "type": "uint8"
        }
      ],
      "stateMutability": "view",
      "type": "function"
    },
    {
      "inputs": [
        {
          "internalType": "address",
          "name": "",
          "type": "address"
        },
        {
          "internalType": "address",
          "name": "",
          "type": "address"
        }
      ],
      "name": "isGuardian",
      "outputs": [
        {
          "internalType": "bool",
          "name": "",
          "type": "bool"
        }
      ],
      "stateMutability": "view",
      "type": "function"
    },
    {
      "inputs": [
        {
          "internalType": "address",
          "name": "vault",
          "type": "address"
        },
        {
          "internalType": "address",
          "name": "guardian",
          "type": "address"
        }
      ],
      "name": "isGuardianOf",
      "outputs": [
        {
          "internalType": "bool",
          "name": "",
          "type": "bool"
        }
      ],
      "stateMutability": "view",
      "type": "function"
    },
    {
      "inputs": [
        {
          "internalType": "address",
          "name": "vault",
          "type": "address"
        },
        {
          "internalType": "address",
          "name": "guardian",
          "type": "address"
        }
      ],
      "name": "removeGuardian",
      "outputs": [],
      "stateMutability": "nonpayable",
      "type": "function"
    },
    {
      "inputs": [
        {
          "internalType": "address",
          "name": "_dao",
          "type": "address"
        }
      ],
      "name": "setDAO",
      "outputs": [],
      "stateMutability": "nonpayable",
      "type": "function"
    },
    {
      "inputs": [
        {
          "internalType": "address",
          "name": "vault",
          "type": "address"
        },
        {
          "internalType": "uint8",
          "name": "mOfN",
          "type": "uint8"
        }
      ],
      "name": "setThreshold",
      "outputs": [],
      "stateMutability": "nonpayable",
      "type": "function"
    },
    {
      "inputs": [
        {
          "internalType": "address",
          "name": "",
          "type": "address"
        }
      ],
      "name": "threshold",
      "outputs": [
        {
          "internalType": "uint8",
          "name": "",
          "type": "uint8"
        }
      ],
      "stateMutability": "view",
      "type": "function"
    }
  ],
  "bytecode": "0x608034608657601f61079538819003918201601f19168301916001600160401b03831184841017608b57808492602094604052833981010312608657516001600160a01b038116908190036086578015607557600080546001600160a01b0319169190911790556040516106f390816100a28239f35b630f1ee1d360e41b60005260046000fd5b600080fd5b634e487b7160e01b600052604160045260246000fdfe6080604052600436101561001257600080fd5b60003560e01c80631dc42198146105b05780634162169f146105875780635040fb761461054a57806356366b0714610468578063769e54df146101365780639b27a90e1461034d578063b508365f1461031f578063c6845210146101ce578063c86ec2bf14610191578063d4ee9734146101365763e73a914c1461009557600080fd5b34610131576020366003190112610131576100ae6105e6565b600054906001600160a01b0382163303610120576001600160a01b031690811561010f576001600160a01b03191681176000556040519081527f8aad84fcad50e723fa3bcf0fb32c5bea4c71078b77b9aedfa638f146f3a3f7b990602090a1005b630f1ee1d360e41b60005260046000fd5b63457cf6fd60e11b60005260046000fd5b600080fd5b346101315760403660031901126101315761014f6105e6565b6101576105fc565b9060018060a01b0316600052600160205260406000209060018060a01b0316600052602052602060ff604060002054166040519015158152f35b34610131576020366003190112610131576001600160a01b036101b26105e6565b166000526003602052602060ff60406000205416604051908152f35b34610131576040366003190112610131576101e76105e6565b6101ef6105fc565b9060018060a01b03600054163314158061030c575b610120576001600160a01b031690811580156102fb575b61010f57816000526001602052604060002060018060a01b03821660005260205260ff604060002054166102ea57816000526001602052604060002060018060a01b0382166000526020526040600020600160ff198254161790558160005260026020526040600020600160ff8254160160ff81116102d457815460ff191660ff919091161790556001600160a01b0316907fbc3292102fa77e083913064b282926717cdfaede4d35f553d66366c0a3da755a600080a3005b634e487b7160e01b600052601160045260246000fd5b635567f27160e11b60005260046000fd5b506001600160a01b0381161561021b565b50336001600160a01b0382161415610204565b3461013157602036600319011261013157602061034261033d6105e6565b61064e565b60ff60405191168152f35b34610131576040366003190112610131576103666105e6565b61036e6105fc565b9060018060a01b036000541633141580610455575b6101205760018060a01b031690816000526001602052604060002060018060a01b03821660005260205260ff604060002054161561044457816000526001602052604060002060018060a01b038216600052602052604060002060ff198154169055816000526002602052604060002060001960ff8254160160ff81116102d457815460ff191660ff919091161790556001600160a01b0316907fee943cdb81826d5909c559c6b1ae6908fcaf2dbc16c4b730346736b486283e8b600080a3005b63acaa05b560e01b60005260046000fd5b50336001600160a01b0382161415610383565b34610131576040366003190112610131576104816105e6565b6024359060ff8216809203610131576000546001600160a01b031633141580610537575b610120576001600160a01b031660008181526002602052604090205490919060ff1680158061052e575b61051d57811161051d5760207f71d1e68103a122a6bf3ccd593baed5289c4ea40093696e1b72dc6d3024f5bc0991836000526003825260406000208160ff19825416179055604051908152a2005b63410151f960e11b60005260046000fd5b508115156104cf565b50336001600160a01b03821614156104a5565b34610131576020366003190112610131576001600160a01b0361056b6105e6565b166000526002602052602060ff60406000205416604051908152f35b34610131576000366003190112610131576000546040516001600160a01b039091168152602090f35b346101315760403660031901126101315760206105dc6105ce6105e6565b6105d66105fc565b90610612565b6040519015158152f35b600435906001600160a01b038216820361013157565b602435906001600160a01b038216820361013157565b60018060a01b0316600052600160205260406000209060018060a01b031660005260205260ff604060002054161561064957600190565b600190565b6001600160a01b031660008181526002602052604090205460ff16919082156106b657600052600360205260ff6040600020541680156000146106b05750600182018083116102d45760011c60ff16915b8060ff8416116106ac5750565b9150565b9161069f565b506000915056fea2646970667358221220777706e5bdbdd8d32d08ce34cb26de0f89702a24b609b61830e0e2226da6991c64736f6c634300081e0033",
  "linkReferences": {},
  "deployedLinkReferences": {}
}