{
  "_format": "hh-sol-artifact-1",
  "contractName": "GuardianLock",
  "sourceName": "contracts/VFIDESecurity.sol",
  "abi": [
    {
      "inputs": [
        {
          "internalType": "address",
          "name": "_dao",
          "type": "address"
        },
        {
          "internalType": "address",
          "name": "_registry",
          "type": "address"
        },
        {
          "internalType": "address",
          "name": "_ledger",
          "type": "address"
        }
      ],
      "stateMutability": "nonpayable",
      "type": "constructor"
    },
    {
      "inputs": [],
      "name": "SEC_AlreadyLocked",
      "type": "error"
    },
    {
      "inputs": [],
      "name": "SEC_NoEffect",
      "type": "error"
    },
    {
      "inputs": [],
      "name": "SEC_NotDAO",
      "type": "error"
    },
    {
      "inputs": [],
      "name": "SEC_NotGuardian",
      "type": "error"
    },
    {
      "inputs": [],
      "name": "SEC_NotLocked",
      "type": "error"
    },
    {
      "inputs": [],
      "name": "SEC_Zero",
      "type": "error"
    },
    {
      "anonymous": false,
      "inputs": [
        {
          "indexed": true,
          "internalType": "address",
          "name": "vault",
          "type": "address"
        },
        {
          "indexed": true,
          "internalType": "address",
          "name": "by",
          "type": "address"
        }
      ],
      "name": "Cancelled",
      "type": "event"
    },
    {
      "anonymous": false,
      "inputs": [
        {
          "indexed": true,
          "internalType": "address",
          "name": "vault",
          "type": "address"
        },
        {
          "indexed": true,
          "internalType": "address",
          "name": "guardian",
          "type": "address"
        },
        {
          "indexed": false,
          "internalType": "uint8",
          "name": "remainingApprovals",
          "type": "uint8"
        }
      ],
      "name": "GuardianRemovedDuringVote",
      "type": "event"
    },
    {
      "anonymous": false,
      "inputs": [
        {
          "indexed": true,
          "internalType": "address",
          "name": "vault",
          "type": "address"
        },
        {
          "indexed": true,
          "internalType": "address",
          "name": "byGuardian",
          "type": "address"
        },
        {
          "indexed": false,
          "internalType": "uint8",
          "name": "approvals",
          "type": "uint8"
        },
        {
          "indexed": false,
          "internalType": "string",
          "name": "reason",
          "type": "string"
        }
      ],
      "name": "Locked",
      "type": "event"
    },
    {
      "anonymous": false,
      "inputs": [
        {
          "indexed": false,
          "internalType": "address",
          "name": "registry",
          "type": "address"
        },
        {
          "indexed": false,
          "internalType": "address",
          "name": "ledger",
          "type": "address"
        }
      ],
      "name": "ModulesSet",
      "type": "event"
    },
    {
      "anonymous": false,
      "inputs": [
        {
          "indexed": true,
          "internalType": "address",
          "name": "vault",
          "type": "address"
        },
        {
          "indexed": true,
          "internalType": "address",
          "name": "by",
          "type": "address"
        },
        {
          "indexed": false,
          "internalType": "string",
          "name": "reason",
          "type": "string"
        }
      ],
      "name": "Unlocked",
      "type": "event"
    },
    {
      "anonymous": false,
      "inputs": [
        {
          "indexed": true,
          "internalType": "address",
          "name": "vault",
          "type": "address"
        },
        {
          "indexed": false,
          "internalType": "uint256",
          "name": "oldNonce",
          "type": "uint256"
        },
        {
          "indexed": false,
          "internalType": "uint256",
          "name": "newNonce",
          "type": "uint256"
        },
        {
          "indexed": false,
          "internalType": "string",
          "name": "reason",
          "type": "string"
        }
      ],
      "name": "VotesInvalidated",
      "type": "event"
    },
    {
      "inputs": [
        {
          "internalType": "address",
          "name": "",
          "type": "address"
        }
      ],
      "name": "approvals",
      "outputs": [
        {
          "internalType": "uint8",
          "name": "",
          "type": "uint8"
        }
      ],
      "stateMutability": "view",
      "type": "function"
    },
    {
      "inputs": [
        {
          "internalType": "address",
          "name": "vault",
          "type": "address"
        }
      ],
      "name": "cancel",
      "outputs": [],
      "stateMutability": "nonpayable",
      "type": "function"
    },
    {
      "inputs": [
        {
          "internalType": "address",
          "name": "vault",
          "type": "address"
        },
        {
          "internalType": "string",
          "name": "reason",
          "type": "string"
        }
      ],
      "name": "castLock",
      "outputs": [],
      "stateMutability": "nonpayable",
      "type": "function"
    },
    {
      "inputs": [],
      "name": "dao",
      "outputs": [
        {
          "internalType": "address",
          "name": "",
          "type": "address"
        }
      ],
      "stateMutability": "view",
      "type": "function"
    },
    {
      "inputs": [],
      "name": "ledger",
      "outputs": [
        {
          "internalType": "contract IProofLedger",
          "name": "",
          "type": "address"
        }
      ],
      "stateMutability": "view",
      "type": "function"
    },
    {
      "inputs": [
        {
          "internalType": "address",
          "name": "",
          "type": "address"
        }
      ],
      "name": "lockNonce",
      "outputs": [
        {
          "internalType": "uint256",
          "name": "",
          "type": "uint256"
        }
      ],
      "stateMutability": "view",
      "type": "function"
    },
    {
      "inputs": [
        {
          "internalType": "address",
          "name": "",
          "type": "address"
        }
      ],
      "name": "locked",
      "outputs": [
        {
          "internalType": "bool",
          "name": "",
          "type": "bool"
        }
      ],
      "stateMutability": "view",
      "type": "function"
    },
    {
      "inputs": [],
      "name": "registry",
      "outputs": [
        {
          "internalType": "contract GuardianRegistry",
          "name": "",
          "type": "address"
        }
      ],
      "stateMutability": "view",
      "type": "function"
    },
    {
      "inputs": [
        {
          "internalType": "address",
          "name": "_registry",
          "type": "address"
        },
        {
          "internalType": "address",
          "name": "_ledger",
          "type": "address"
        }
      ],
      "name": "setModules",
      "outputs": [],
      "stateMutability": "nonpayable",
      "type": "function"
    },
    {
      "inputs": [
        {
          "internalType": "address",
          "name": "vault",
          "type": "address"
        },
        {
          "internalType": "string",
          "name": "reason",
          "type": "string"
        }
      ],
      "name": "unlock",
      "outputs": [],
      "stateMutability": "nonpayable",
      "type": "function"
    },
    {
      "inputs": [
        {
          "internalType": "address",
          "name": "",
          "type": "address"
        },
        {
          "internalType": "uint256",
          "name": "",
          "type": "uint256"
        },
        {
          "internalType": "address",
          "name": "",
          "type": "address"
        }
      ],
      "name": "voted",
      "outputs": [
        {
          "internalType": "bool",
          "name": "",
          "type": "bool"
        }
      ],
      "stateMutability": "view",
      "type": "function"
    },
    {
      "inputs": [
        {
          "internalType": "address",
          "name": "vault",
          "type": "address"
        },
        {
          "internalType": "address",
          "name": "guardian",
          "type": "address"
        }
      ],
      "name": "wasGuardianRemovedDuringVote",
      "outputs": [
        {
          "internalType": "bool",
          "name": "",
          "type": "bool"
        }
      ],
      "stateMutability": "view",
      "type": "function"
    }
  ],
  "bytecode": "0x6080346100e357601f610e0e38819003918201601f19168301916001600160401b038311848410176100e8578084926060946040528339810103126100e357610047816100fe565b906100606040610059602084016100fe565b92016100fe565b916001600160a01b0316801580156100d2575b6100c157600080546001600160a01b03199081169290921790556001805482166001600160a01b039384161790556002805490911692909116919091179055604051610cfb90816101138239f35b630f1ee1d360e41b60005260046000fd5b506001600160a01b03821615610073565b600080fd5b634e487b7160e01b600052604160045260246000fd5b51906001600160a01b03821682036100e35756fe608080604052600436101561001357600080fd5b600090813560e01c908163106b390614610672575080631db0bd48146105755780633ead71cb146104515780634162169f1461042a5780634c33fe941461036657806356397c351461033d5780635d0341ba146103005780637b103999146102d7578063cbf9fe5f14610298578063d74a5d0014610154578063d945d51a1461011b5763f2874165146100a557600080fd5b34610118576060366003190112610118576100be610991565b60443591906001600160a01b0383168303610116579060409160018060a01b0316815260046020528181206024358252602052209060018060a01b0316600052602052602060ff604060002054166040519015158152f35b505b80fd5b5034610118576020366003190112610118576020906040906001600160a01b03610143610991565b168152600583522054604051908152f35b50346101185760403660031901126101185761016e610991565b906101776109ac565b91610180610ca0565b6001600160a01b03811680156102895782937fe7836f4c1585572e73ac1ebd237c17348e5b453da767958b34b22bd170f6e52f9160018060a01b0319600154161760015560018060a01b038116928360018060a01b031960025416176002556101ee60405192839283610a73565b0390a160405190610200604083610a24565b601882527719dd585c991a585b9b1bd8dad7db5bd91d5b195cd7dcd95d60421b60208301528061022e575050f35b803b15610285576102678392918392604051958680948193633ddd61ab60e21b8352306004840152606060248401526064830190610b19565b33604483015203925af1610279579050f35b61028291610a24565b80f35b5050fd5b630f1ee1d360e41b8352600483fd5b50346101185760203660031901126101185760209060ff906040906001600160a01b036102c3610991565b168152600684522054166040519015158152f35b50346101185780600319360112610118576001546040516001600160a01b039091168152602090f35b50346101185760203660031901126101185760209060ff906040906001600160a01b0361032b610991565b16815260038452205416604051908152f35b50346101185780600319360112610118576002546040516001600160a01b039091168152602090f35b503461011857602036600319011261011857610282610383610991565b61038b610ca0565b6001600160a01b038116808452600360209081526040808620805460ff191690558286526005909152842080546103c190610af4565b905533907ff91f011c087a627ca425b0ca8a8859a2ae764d033f94c53b18359b02b374726f8580a36040516103f7604082610a24565b600f81526e19dd585c991a585b97d8d85b98d95b608a1b602082015260405191610422602084610a24565b848352610b5a565b5034610118578060031936011261011857546040516001600160a01b039091168152602090f35b503461011857610460366109c2565b61046c93929193610ca0565b6001600160a01b0382168084526006602052604084205460ff16158061055e575b61054f5783948161054992610282965260066020526040872060ff19815416905580875260036020526040872060ff1981541690558087526005602052604087206104d88154610af4565b905560405190602082527f2d03dd0d35f652006acb65aaf29d60ad958d5db729a7c3c648d75c96b6352dad339280610514602082018988610ad3565b0390a360405192610526604085610a24565b600f84526e677561726469616e5f756e6c6f636b60881b60208501523691610a8d565b91610b5a565b6301e7baf360e71b8452600484fd5b50808452600360205260ff6040852054161561048d565b50346101185760403660031901126101185761058f610991565b6105976109ac565b6001600160a01b03828116808552600560209081526040808720549287526004825280872092875291815281862092841686529190915283205460ff1691826105e8575b6020836040519015158152f35b60015460405163353ba5cd60e21b8152935060209284926001600160a01b03909216918391829161061d919060048401610a73565b03915afa908115610667576020929161063a575b501538806105db565b61065a9150823d8411610660575b6106528183610a24565b810190610a5b565b38610631565b503d610648565b6040513d84823e3d90fd5b90503461011657610682366109c2565b60015463353ba5cd60e21b855290939060209082906001600160a01b031681806106b0338960048401610a73565b03915afa908115610986578591610967575b5015610958576001600160a01b0382168085526006602052604085205490939060ff16610949578385526005602090815260408087205486885260048352818820818952835281882033895290925286205460ff1661093a578486526004602052604086209086526020526040852060018060a01b033316865260205260408520600160ff198254161790558385526003602052600160ff604087205416019160ff831161092657848652600360205260ff604087209316928360ff198254161790556024602060018060a01b03600154166040519283809263b508365f60e01b82528a60048301525afa801561091b5787906108da575b60ff16808510159150816108d0575b50156108975790610863610869949392868852600660205260408820600160ff1982541617905560405184815260406020820152877f498daff812cdc691a0273414712a0136a4c71a58fd4768c1420147b9b2c853b2339280610830604082018988610ad3565b0390a360405192610842604085610a24565b600d84526c677561726469616e5f6c6f636b60981b60208501523691610a8d565b92610bfb565b80825260036020526040822060ff19815416905581526005602052604081206108928154610af4565b905580f35b610282945061086390604051926108af604085610a24565b600d84526c677561726469616e5f766f746560981b60208501523691610a8d565b90501515386107c9565b506020813d602011610913575b816108f460209383610a24565b8101031261090f575160ff8116810361090f5760ff906107ba565b8680fd5b3d91506108e7565b6040513d89823e3d90fd5b634e487b7160e01b86526011600452602486fd5b634229ed8f60e01b8652600486fd5b63f245e0a360e01b8552600485fd5b63ab67227b60e01b8452600484fd5b610980915060203d602011610660576106528183610a24565b386106c2565b6040513d87823e3d90fd5b600435906001600160a01b03821682036109a757565b600080fd5b602435906001600160a01b03821682036109a757565b60406003198201126109a7576004356001600160a01b03811681036109a757916024356001600160401b0381116109a757826023820112156109a7578060040135926001600160401b0384116109a757602484830101116109a7576024019190565b90601f801991011681019081106001600160401b03821117610a4557604052565b634e487b7160e01b600052604160045260246000fd5b908160209103126109a7575180151581036109a75790565b6001600160a01b0391821681529116602082015260400190565b9291926001600160401b038211610a455760405191610ab6601f8201601f191660200184610a24565b8294818452818301116109a7578281602093846000960137010152565b908060209392818452848401376000828201840152601f01601f1916010190565b6000198114610b035760010190565b634e487b7160e01b600052601160045260246000fd5b919082519283825260005b848110610b45575050826000602080949584010152601f8019910116010190565b80602080928401015182828601015201610b24565b600254600093926001600160a01b039091169182610b7a575b5050505050565b823b15610bf75791610bbe91858094610bd660405197889687958694630303c28760e61b865260018060a01b03166004860152608060248601526084850190610b19565b90846044850152600319848303016064850152610b19565b03925af1610be7575b808080610b73565b81610bf191610a24565b38610bdf565b8480fd5b600254600094936001600160a01b0390911692919083610c1e575b505050505050565b833b15610c9c579185809492610c7a610c639560405198899788968795630303c28760e61b875260018060a01b03166004870152608060248701526084860190610b19565b916044850152600319848303016064850152610b19565b03925af1610c8c575b80808080610c16565b81610c9691610a24565b38610c83565b8580fd5b6000546001600160a01b03163303610cb457565b63457cf6fd60e11b60005260046000fdfea264697066735822122022d497f04368b0f92d8d0b33c324d4e78a9c2c4435508f6cb0f1944a834c3c1364736f6c634300081e0033",
  "linkReferences": {},
  "deployedLinkReferences": {}
}