{
  "_format": "hh-sol-artifact-1",
  "contractName": "PanicGuard",
  "sourceName": "contracts/VFIDESecurity.sol",
  "abi": [
    {
      "inputs": [
        {
          "internalType": "address",
          "name": "_dao",
          "type": "address"
        },
        {
          "internalType": "address",
          "name": "_ledger",
          "type": "address"
        },
        {
          "internalType": "address",
          "name": "_hub",
          "type": "address"
        }
      ],
      "stateMutability": "nonpayable",
      "type": "constructor"
    },
    {
      "inputs": [],
      "name": "SEC_ExpiryTooShort",
      "type": "error"
    },
    {
      "inputs": [],
      "name": "SEC_NotDAO",
      "type": "error"
    },
    {
      "inputs": [],
      "name": "SEC_Zero",
      "type": "error"
    },
    {
      "anonymous": false,
      "inputs": [
        {
          "indexed": true,
          "internalType": "address",
          "name": "vault",
          "type": "address"
        },
        {
          "indexed": false,
          "internalType": "string",
          "name": "reason",
          "type": "string"
        }
      ],
      "name": "Cleared",
      "type": "event"
    },
    {
      "anonymous": false,
      "inputs": [
        {
          "indexed": false,
          "internalType": "bool",
          "name": "on",
          "type": "bool"
        },
        {
          "indexed": false,
          "internalType": "string",
          "name": "reason",
          "type": "string"
        }
      ],
      "name": "GlobalRiskSet",
      "type": "event"
    },
    {
      "anonymous": false,
      "inputs": [
        {
          "indexed": false,
          "internalType": "address",
          "name": "hub",
          "type": "address"
        }
      ],
      "name": "HubSet",
      "type": "event"
    },
    {
      "anonymous": false,
      "inputs": [
        {
          "indexed": false,
          "internalType": "address",
          "name": "ledger",
          "type": "address"
        }
      ],
      "name": "LedgerSet",
      "type": "event"
    },
    {
      "anonymous": false,
      "inputs": [
        {
          "indexed": false,
          "internalType": "uint64",
          "name": "minDuration",
          "type": "uint64"
        },
        {
          "indexed": false,
          "internalType": "uint64",
          "name": "maxDuration",
          "type": "uint64"
        }
      ],
      "name": "PolicySet",
      "type": "event"
    },
    {
      "anonymous": false,
      "inputs": [
        {
          "indexed": true,
          "internalType": "address",
          "name": "vault",
          "type": "address"
        },
        {
          "indexed": false,
          "internalType": "uint64",
          "name": "untilTs",
          "type": "uint64"
        },
        {
          "indexed": false,
          "internalType": "string",
          "name": "reason",
          "type": "string"
        },
        {
          "indexed": false,
          "internalType": "uint8",
          "name": "severity",
          "type": "uint8"
        }
      ],
      "name": "Quarantined",
      "type": "event"
    },
    {
      "inputs": [],
      "name": "MIN_VAULT_AGE_FOR_PANIC",
      "outputs": [
        {
          "internalType": "uint256",
          "name": "",
          "type": "uint256"
        }
      ],
      "stateMutability": "view",
      "type": "function"
    },
    {
      "inputs": [],
      "name": "SELF_PANIC_COOLDOWN",
      "outputs": [
        {
          "internalType": "uint256",
          "name": "",
          "type": "uint256"
        }
      ],
      "stateMutability": "view",
      "type": "function"
    },
    {
      "inputs": [
        {
          "internalType": "address",
          "name": "vault",
          "type": "address"
        },
        {
          "internalType": "string",
          "name": "reason",
          "type": "string"
        }
      ],
      "name": "clear",
      "outputs": [],
      "stateMutability": "nonpayable",
      "type": "function"
    },
    {
      "inputs": [],
      "name": "dao",
      "outputs": [
        {
          "internalType": "address",
          "name": "",
          "type": "address"
        }
      ],
      "stateMutability": "view",
      "type": "function"
    },
    {
      "inputs": [],
      "name": "globalRisk",
      "outputs": [
        {
          "internalType": "bool",
          "name": "",
          "type": "bool"
        }
      ],
      "stateMutability": "view",
      "type": "function"
    },
    {
      "inputs": [
        {
          "internalType": "address",
          "name": "vault",
          "type": "address"
        }
      ],
      "name": "isQuarantined",
      "outputs": [
        {
          "internalType": "bool",
          "name": "",
          "type": "bool"
        }
      ],
      "stateMutability": "view",
      "type": "function"
    },
    {
      "inputs": [
        {
          "internalType": "address",
          "name": "vault",
          "type": "address"
        }
      ],
      "name": "isRestricted",
      "outputs": [
        {
          "internalType": "bool",
          "name": "",
          "type": "bool"
        }
      ],
      "stateMutability": "view",
      "type": "function"
    },
    {
      "inputs": [
        {
          "internalType": "address",
          "name": "",
          "type": "address"
        }
      ],
      "name": "lastSelfPanic",
      "outputs": [
        {
          "internalType": "uint256",
          "name": "",
          "type": "uint256"
        }
      ],
      "stateMutability": "view",
      "type": "function"
    },
    {
      "inputs": [],
      "name": "ledger",
      "outputs": [
        {
          "internalType": "contract IProofLedger",
          "name": "",
          "type": "address"
        }
      ],
      "stateMutability": "view",
      "type": "function"
    },
    {
      "inputs": [],
      "name": "maxDuration",
      "outputs": [
        {
          "internalType": "uint64",
          "name": "",
          "type": "uint64"
        }
      ],
      "stateMutability": "view",
      "type": "function"
    },
    {
      "inputs": [],
      "name": "minDuration",
      "outputs": [
        {
          "internalType": "uint64",
          "name": "",
          "type": "uint64"
        }
      ],
      "stateMutability": "view",
      "type": "function"
    },
    {
      "inputs": [
        {
          "internalType": "address",
          "name": "",
          "type": "address"
        }
      ],
      "name": "quarantineUntil",
      "outputs": [
        {
          "internalType": "uint64",
          "name": "",
          "type": "uint64"
        }
      ],
      "stateMutability": "view",
      "type": "function"
    },
    {
      "inputs": [
        {
          "internalType": "address",
          "name": "vault",
          "type": "address"
        }
      ],
      "name": "registerVault",
      "outputs": [],
      "stateMutability": "nonpayable",
      "type": "function"
    },
    {
      "inputs": [
        {
          "internalType": "address",
          "name": "vault",
          "type": "address"
        },
        {
          "internalType": "uint64",
          "name": "duration",
          "type": "uint64"
        },
        {
          "internalType": "uint8",
          "name": "severity",
          "type": "uint8"
        },
        {
          "internalType": "string",
          "name": "reason",
          "type": "string"
        }
      ],
      "name": "reportRisk",
      "outputs": [],
      "stateMutability": "nonpayable",
      "type": "function"
    },
    {
      "inputs": [
        {
          "internalType": "uint64",
          "name": "duration",
          "type": "uint64"
        }
      ],
      "name": "selfPanic",
      "outputs": [],
      "stateMutability": "nonpayable",
      "type": "function"
    },
    {
      "inputs": [
        {
          "internalType": "bool",
          "name": "on",
          "type": "bool"
        },
        {
          "internalType": "string",
          "name": "reason",
          "type": "string"
        }
      ],
      "name": "setGlobalRisk",
      "outputs": [],
      "stateMutability": "nonpayable",
      "type": "function"
    },
    {
      "inputs": [
        {
          "internalType": "address",
          "name": "_hub",
          "type": "address"
        }
      ],
      "name": "setHub",
      "outputs": [],
      "stateMutability": "nonpayable",
      "type": "function"
    },
    {
      "inputs": [
        {
          "internalType": "address",
          "name": "_ledger",
          "type": "address"
        }
      ],
      "name": "setLedger",
      "outputs": [],
      "stateMutability": "nonpayable",
      "type": "function"
    },
    {
      "inputs": [
        {
          "internalType": "uint64",
          "name": "_minDuration",
          "type": "uint64"
        },
        {
          "internalType": "uint64",
          "name": "_maxDuration",
          "type": "uint64"
        }
      ],
      "name": "setPolicy",
      "outputs": [],
      "stateMutability": "nonpayable",
      "type": "function"
    },
    {
      "inputs": [
        {
          "internalType": "address",
          "name": "",
          "type": "address"
        }
      ],
      "name": "vaultCreationTime",
      "outputs": [
        {
          "internalType": "uint256",
          "name": "",
          "type": "uint256"
        }
      ],
      "stateMutability": "view",
      "type": "function"
    },
    {
      "inputs": [],
      "name": "vaultHub",
      "outputs": [
        {
          "internalType": "contract IVaultHub",
          "name": "",
          "type": "address"
        }
      ],
      "stateMutability": "view",
      "type": "function"
    }
  ],
  "bytecode": "0x6080346100fb57601f61121738819003918201601f19168301916001600160401b03831184841017610100578084926060946040528339810103126100fb5761004781610116565b90610060604061005960208401610116565b9201610116565b60068054610100600160881b0319166b278d000000000000000e1000179055916001600160a01b031680156100ea57600080546001600160a01b0319908116929092179055600180549091166001600160a01b0392831617905516806100d0575b6040516110ec908161012b8239f35b600280546001600160a01b031916919091179055386100c1565b630f1ee1d360e41b60005260046000fd5b600080fd5b634e487b7160e01b600052604160045260246000fd5b51906001600160a01b03821682036100fb5756fe608080604052600436101561001357600080fd5b600090813560e01c90816314c52d7914610dcd575080631735739b14610c6857806319f115491461095f57806323db535b146107d757806331372da4146106d657806331962cdc146106365780633246887d146105905780634162169f14610569578063485d6ef81461053b57806356397c351461051257806356715761146104e857806367ccd1cb146104585780636b943da5146104355780636db5c8fd1461040b5780636dd6e80b146103e25780639e059b201461039f578063a511a11614610366578063aeafc6451461032d578063b18c3d361461016c578063c01bc982146101275763cd4e716f1461010857600080fd5b346101245780600319360112610124576020604051610e108152f35b80fd5b5034610124576020366003190112610124576020610143610dea565b60ff6006541690811561015c575b506040519015158152f35b6101669150610f1f565b82610151565b503461012457608036600319011261012457610186610dea565b61018e610e48565b906044359160ff8316809303610329576064356001600160401b038111610325576101c06101cf913690600401610e05565b6101c8610f54565b3691610eb6565b916001600160a01b0381169180831561031657906001600160401b03918260065491818360081c16918291161061030e575b50829060481c168083831611610306575b50166001600160401b03421601916001600160401b0383116102f25780865260036020526001600160401b03806040882054169316928311610252578580f35b7f7226f8395c8b0511ad87c6d1f39c5c57f6d5d10a26d51fd0d0c233fc66f6e6a86102e995828852600360205260408820856001600160401b03198254161790556040518091868252606060208301526102af6060830189610f79565b9060408301520390a2604051906102c7604083610e7f565b601082526f70616e69635f71756172616e74696e6560801b6020830152610f9e565b38808080808580f35b634e487b7160e01b86526011600452602486fd5b905038610212565b915082610201565b630f1ee1d360e41b8752600487fd5b8480fd5b8380fd5b5034610124576020366003190112610124576020906040906001600160a01b03610355610dea565b168152600483522054604051908152f35b5034610124576020366003190112610124576020906040906001600160a01b0361038e610dea565b168152600583522054604051908152f35b5034610124576020366003190112610124576020906001600160401b03906040906001600160a01b036103d0610dea565b16815260038452205416604051908152f35b50346101245780600319360112610124576002546040516001600160a01b039091168152602090f35b503461012457806003193601126101245760206001600160401b0360065460481c16604051908152f35b5034610124578060031936011261012457602060ff600654166040519015158152f35b503461012457602036600319011261012457610472610dea565b6002546001600160a01b031633036104b3576001600160a01b031680825260056020526040822054156104a3575080f35b8152600560205242604082205580f35b60405162461bcd60e51b815260206004820152600d60248201526c37b7363c902b30bab63a243ab160991b6044820152606490fd5b503461012457806003193601126101245760206001600160401b0360065460081c16604051908152f35b50346101245780600319360112610124576001546040516001600160a01b039091168152602090f35b503461012457602036600319011261012457602061055f61055a610dea565b610f1f565b6040519015158152f35b5034610124578060031936011261012457546040516001600160a01b039091168152602090f35b5034610124576020366003190112610124577fbc62e69a31739e36d57d56991ac20e4e507a7edfff9070e6a11df5a37b8b4e6f60206105cd610dea565b6105d5610f54565b600180546001600160a01b0319166001600160a01b03929092169182179055604051908152a161063360405161060c604082610e7f565b60158152741c185b9a58d9dd585c9917db195919d95c97dcd95d605a1b6020820152611043565b80f35b5034610124576020366003190112610124577f15e04fee0c1335178e78e4dc6a8b0dcade867d1aea65418bf1200bc322ab7c216020610673610dea565b61067b610f54565b600280546001600160a01b0319166001600160a01b03929092169182179055604051908152a16106336040516106b2604082610e7f565b60128152711c185b9a58d9dd585c9917da1d5897dcd95d60721b6020820152611043565b5034610124576040366003190112610124576106f0610e32565b6106f8610e48565b610700610f54565b6001600160401b03821691821580156107c5575b6107b657916001600160401b036040927fcf26df94ed7b978941a80c18cdccc658ab2bf58d4402f04655ac929fccdabfb69460065468ffffffffffffffff008460481b8460481b169260081b1690610100600160881b03191617176006558351928352166020820152a161063360405161078f604082610e7f565b60158152741c185b9a58d9dd585c9917dc1bdb1a58de57dcd95d605a1b6020820152611043565b63d106fbb160e01b8452600484fd5b50826001600160401b03831610610714565b50346101245760403660031901126101245760043580151580820361095b576024356001600160401b038111610329576106339261083a7fe28c90465d6c78a7ad63ccb547b5bb8f0ae9bf4e9b2503c098c9a6ab5719347b923690600401610e05565b929093610845610f54565b60ff196006541660ff8216176006556040519081526040602082015280610870604082018688610e5e565b0390a18015610935576108e360405161088a604082610e7f565b600281526137b760f11b60208201525b6108de602d60405180936c70616e69635f676c6f62616c5f60981b60208301526108cd8151809260208686019101610efc565b81010301601f198101835282610e7f565b611043565b156109295760ff6109206001935b60405193610900604086610e7f565b600c85526b1c185b9a58d7d9db1bd8985b60a21b60208601523691610eb6565b92169030610f9e565b60ff61092085936108f1565b6108e3604051610946604082610e7f565b600381526237b33360e91b602082015261089a565b8280fd5b503461012457602036600319011261012457610979610e32565b6002546001600160a01b03168015610c595790602060249260405193848092630709df4560e01b82523360048301525afa918215610c4e578392610c0a575b506001600160a01b038216918215610bda5733845260046020526040842054620151808101809111610b84574210610b98578284526005602052604084205480610b1d575b50338452600460205242604085205560406001600160401b03815193610a238386610e7f565b600a85526973656c665f70616e696360b01b6020860152600654600881901c83168383168111610b15575b50829060481c168083831611610b0d575b50166001600160401b03421601916001600160401b0383116102f25784865260036020526001600160401b038083882054169316928311610a9e578580f35b846102e99587526003602052828720846001600160401b03198254161790557f7226f8395c8b0511ad87c6d1f39c5c57f6d5d10a26d51fd0d0c233fc66f6e6a883518581526060602082015280610af86060820189610f79565b6064878301520390a26102c782519283610e7f565b905038610a5f565b915082610a4e565b610e108101809111610b84574210610b3557386109fd565b60405162461bcd60e51b815260206004820152602160248201527f5345433a207661756c7420746f6f206e657720666f722073656c662d70616e696044820152606360f81b6064820152608490fd5b634e487b7160e01b85526011600452602485fd5b60405162461bcd60e51b815260206004820152601a6024820152795345433a2070616e696320636f6f6c646f776e2061637469766560301b6044820152606490fd5b60405162461bcd60e51b81526020600482015260086024820152671b9bc81d985d5b1d60c21b6044820152606490fd5b9091506020813d602011610c46575b81610c2660209383610e7f565b8101031261095b57516001600160a01b038116810361095b5790386109b8565b3d9150610c19565b6040513d85823e3d90fd5b630f1ee1d360e41b8352600483fd5b503461012457604036600319011261012457610c82610dea565b816024356001600160401b038111610dc957610ca5610d3e913690600401610e05565b919093610cb0610f54565b60018060a01b0316938484526003602052604084206001600160401b03198154169055847fc7b2fd602a9c1fd0bb21d74d2d04c9d817d5138a9f01f9317167e274fe5d93fc6040516020815280610d0b602082018887610e5e565b0390a260405192610d1d604085610e7f565b600d84526c1c185b9a58d7d8db19585c9959609a1b60208501523691610eb6565b6001549093906001600160a01b031680610d56578380f35b803b1561032957839283610d9193610da960405198899687958694630303c28760e61b86526004860152608060248601526084850190610f79565b90846044850152600319848303016064850152610f79565b03925af1610db9575b8180808380f35b610dc291610e7f565b3881610db2565b5080fd5b905034610dc95781600319360112610dc957806201518060209252f35b600435906001600160a01b0382168203610e0057565b600080fd5b9181601f84011215610e00578235916001600160401b038311610e005760208381860195010111610e0057565b600435906001600160401b0382168203610e0057565b602435906001600160401b0382168203610e0057565b908060209392818452848401376000828201840152601f01601f1916010190565b90601f801991011681019081106001600160401b03821117610ea057604052565b634e487b7160e01b600052604160045260246000fd5b9291926001600160401b038211610ea05760405191610edf601f8201601f191660200184610e7f565b829481845281830111610e00578281602093846000960137010152565b60005b838110610f0f5750506000910152565b8181015183820152602001610eff565b6001600160a01b03166000908152600360205260409020546001600160401b03168015159081610f4d575090565b9050421090565b6000546001600160a01b03163303610f6857565b63457cf6fd60e11b60005260046000fd5b90602091610f9281518092818552858086019101610efc565b601f01601f1916010190565b600154600094936001600160a01b0390911692919083610fc1575b505050505050565b833b1561103f57918580949261101d6110069560405198899788968795630303c28760e61b875260018060a01b03166004870152608060248701526084860190610f79565b916044850152600319848303016064850152610f79565b03925af161102f575b80808080610fb9565b8161103991610e7f565b38611026565b8580fd5b6001546000916001600160a01b03909116908161105f57505050565b813b1561095b5761109783928392604051948580948193633ddd61ab60e21b8352306004840152606060248401526064830190610f79565b33604483015203925af16110a9575050565b816110b391610e7f565b5056fea2646970667358221220f95b3cdb5135082dfa41ab31752737478112c72024059605fd9225595bde514164736f6c634300081e0033",
  "linkReferences": {},
  "deployedLinkReferences": {}
}