{"abi":[{"type":"function","name":"isLocked","inputs":[{"name":"vault","type":"address","internalType":"address"}],"outputs":[{"name":"","type":"bool","internalType":"bool"}],"stateMutability":"view"},{"type":"function","name":"locked","inputs":[{"name":"","type":"address","internalType":"address"}],"outputs":[{"name":"","type":"bool","internalType":"bool"}],"stateMutability":"view"},{"type":"function","name":"setLocked","inputs":[{"name":"vault","type":"address","internalType":"address"},{"name":"v","type":"bool","internalType":"bool"}],"outputs":[],"stateMutability":"nonpayable"}],"bytecode":{"object":"0x6080806040523460155761014b908161001a8239f35b5f80fdfe6080806040526004361015610012575f80fd5b5f3560e01c9081634a4fbeec146100c75750806389ad0a341461007d5763cbf9fe5f1461003d575f80fd5b34610079576020366003190112610079576001600160a01b0361005e6100ff565b165f525f602052602060ff60405f2054166040519015158152f35b5f80fd5b34610079576040366003190112610079576100966100ff565b602435908115158092036100795760018060a01b03165f525f60205260405f209060ff801983541691161790555f80f35b34610079576020366003190112610079576020906001600160a01b036100eb6100ff565b165f525f825260ff60405f20541615158152f35b600435906001600160a01b03821682036100795756fea2646970667358221220ed71c9e31b1368621989c20cb3221aaba4518a1fde61256405e36b8d483fa8ff64736f6c634300081e0033","linkReferences":{}},"methodIdentifiers":{"isLocked(address)":"4a4fbeec","locked(address)":"cbf9fe5f","setLocked(address,bool)":"89ad0a34"},"id":87}