{"abi":[{"type":"constructor","inputs":[{"name":"_vfide","type":"address","internalType":"address"}],"stateMutability":"nonpayable"},{"type":"function","name":"isManager","inputs":[{"name":"","type":"address","internalType":"address"}],"outputs":[{"name":"","type":"bool","internalType":"bool"}],"stateMutability":"view"},{"type":"function","name":"payRebate","inputs":[{"name":"to","type":"address","internalType":"address"},{"name":"amount","type":"uint256","internalType":"uint256"},{"name":"reason","type":"string","internalType":"string"}],"outputs":[],"stateMutability":"nonpayable"},{"type":"function","name":"setManager","inputs":[{"name":"manager","type":"address","internalType":"address"},{"name":"active","type":"bool","internalType":"bool"}],"outputs":[],"stateMutability":"nonpayable"},{"type":"function","name":"vfide","inputs":[],"outputs":[{"name":"","type":"address","internalType":"address"}],"stateMutability":"view"}],"bytecode":{"object":"0x608034606f57601f61022038819003918201601f19168301916001600160401b03831184841017607357808492602094604052833981010312606f57516001600160a01b03811690819003606f575f80546001600160a01b03191691909117905560405161019890816100888239f35b5f80fd5b634e487b7160e01b5f52604160045260245ffdfe6080806040526004361015610012575f80fd5b5f3560e01c90816372c8ae3b1461012a57508063a5e90eee146100df578063f3ae2415146100a25763fec4acb114610048575f80fd5b3461009e57606036600319011261009e5761006161014c565b506044356001600160401b03811161009e573660238201121561009e5760048101356001600160401b03811161009e573691016024011161009e57005b5f80fd5b3461009e57602036600319011261009e576001600160a01b036100c361014c565b165f526001602052602060ff60405f2054166040519015158152f35b3461009e57604036600319011261009e576100f861014c565b6024359081151580920361009e5760018060a01b03165f52600160205260405f209060ff801983541691161790555f80f35b3461009e575f36600319011261009e575f546001600160a01b03168152602090f35b600435906001600160a01b038216820361009e5756fea26469706673582212207374dd756de6c3e3e84b372e7784563528eadb44cfdb9d7ca0405a21da027b7d64736f6c634300081e0033","linkReferences":{}},"methodIdentifiers":{"isManager(address)":"f3ae2415","payRebate(address,uint256,string)":"fec4acb1","setManager(address,bool)":"a5e90eee","vfide()":"72c8ae3b"},"id":86}