{"abi":[{"type":"constructor","inputs":[{"name":"_vfide","type":"address","internalType":"address"}],"stateMutability":"nonpayable"},{"type":"function","name":"isManager","inputs":[{"name":"","type":"address","internalType":"address"}],"outputs":[{"name":"","type":"bool","internalType":"bool"}],"stateMutability":"view"},{"type":"function","name":"payRebate","inputs":[{"name":"to","type":"address","internalType":"address"},{"name":"amount","type":"uint256","internalType":"uint256"},{"name":"reason","type":"string","internalType":"string"}],"outputs":[],"stateMutability":"nonpayable"},{"type":"function","name":"setManager","inputs":[{"name":"manager","type":"address","internalType":"address"},{"name":"active","type":"bool","internalType":"bool"}],"outputs":[],"stateMutability":"nonpayable"},{"type":"function","name":"vfide","inputs":[],"outputs":[{"name":"","type":"address","internalType":"address"}],"stateMutability":"view"}],"bytecode":{"object":"0x608034606f57601f61022238819003918201601f19168301916001600160401b03831184841017607357808492602094604052833981010312606f57516001600160a01b03811690819003606f575f80546001600160a01b03191691909117905560405161019a90816100888239f35b5f80fd5b634e487b7160e01b5f52604160045260245ffdfe6080806040526004361015610012575f80fd5b5f3560e01c90816372c8ae3b1461012c57508063a5e90eee146100e1578063f3ae2415146100a45763fec4acb114610048575f80fd5b346100a05760603660031901126100a05761006161014e565b5060443567ffffffffffffffff81116100a057366023820112156100a057806004013567ffffffffffffffff81116100a057369101602401116100a057005b5f80fd5b346100a05760203660031901126100a0576001600160a01b036100c561014e565b165f526001602052602060ff60405f2054166040519015158152f35b346100a05760403660031901126100a0576100fa61014e565b602435908115158092036100a05760018060a01b03165f52600160205260405f209060ff801983541691161790555f80f35b346100a0575f3660031901126100a0575f546001600160a01b03168152602090f35b600435906001600160a01b03821682036100a05756fea2646970667358221220831114f5e2c0a2903bfefca6c7ed09bedf70702c75046b7ea1a65e15cb71250e64736f6c634300081e0033","linkReferences":{}},"methodIdentifiers":{"isManager(address)":"f3ae2415","payRebate(address,uint256,string)":"fec4acb1","setManager(address,bool)":"a5e90eee","vfide()":"72c8ae3b"},"id":78}