{"abi":[{"type":"constructor","inputs":[{"name":"_hub","type":"address","internalType":"address"},{"name":"_vfide","type":"address","internalType":"address"},{"name":"_owner","type":"address","internalType":"address"},{"name":"_securityHub","type":"address","internalType":"address"},{"name":"_ledger","type":"address","internalType":"address"}],"stateMutability":"nonpayable"},{"type":"receive","stateMutability":"payable"},{"type":"function","name":"GUARDIAN_MATURITY_PERIOD","inputs":[],"outputs":[{"name":"","type":"uint64","internalType":"uint64"}],"stateMutability":"view"},{"type":"function","name":"INHERITANCE_EXPIRY","inputs":[],"outputs":[{"name":"","type":"uint64","internalType":"uint64"}],"stateMutability":"view"},{"type":"function","name":"PENDING_TX_EXPIRY","inputs":[],"outputs":[{"name":"","type":"uint64","internalType":"uint64"}],"stateMutability":"view"},{"type":"function","name":"RECOVERY_EXPIRY","inputs":[],"outputs":[{"name":"","type":"uint64","internalType":"uint64"}],"stateMutability":"view"},{"type":"function","name":"__forceSetOwner","inputs":[{"name":"newOwner","type":"address","internalType":"address"}],"outputs":[],"stateMutability":"nonpayable"},{"type":"function","name":"abnormalTransactionPercentageBps","inputs":[],"outputs":[{"name":"","type":"uint16","internalType":"uint16"}],"stateMutability":"view"},{"type":"function","name":"abnormalTransactionThreshold","inputs":[],"outputs":[{"name":"","type":"uint256","internalType":"uint256"}],"stateMutability":"view"},{"type":"function","name":"approveInheritance","inputs":[],"outputs":[],"stateMutability":"nonpayable"},{"type":"function","name":"approvePendingTransaction","inputs":[{"name":"txId","type":"uint256","internalType":"uint256"}],"outputs":[],"stateMutability":"nonpayable"},{"type":"function","name":"approveRecovery","inputs":[],"outputs":[],"stateMutability":"nonpayable"},{"type":"function","name":"balanceSnapshot","inputs":[],"outputs":[{"name":"","type":"uint256","internalType":"uint256"}],"stateMutability":"view"},{"type":"function","name":"cancelInheritance","inputs":[],"outputs":[],"stateMutability":"nonpayable"},{"type":"function","name":"cancelRecovery","inputs":[],"outputs":[],"stateMutability":"nonpayable"},{"type":"function","name":"cleanupExpiredTransaction","inputs":[{"name":"txId","type":"uint256","internalType":"uint256"}],"outputs":[],"stateMutability":"nonpayable"},{"type":"function","name":"denyInheritance","inputs":[],"outputs":[],"stateMutability":"nonpayable"},{"type":"function","name":"denyPendingTransaction","inputs":[{"name":"txId","type":"uint256","internalType":"uint256"}],"outputs":[],"stateMutability":"nonpayable"},{"type":"function","name":"execute","inputs":[{"name":"target","type":"address","internalType":"address"},{"name":"data","type":"bytes","internalType":"bytes"}],"outputs":[{"name":"","type":"bytes","internalType":"bytes"}],"stateMutability":"payable"},{"type":"function","name":"executeCooldown","inputs":[],"outputs":[{"name":"","type":"uint64","internalType":"uint64"}],"stateMutability":"view"},{"type":"function","name":"executePendingTransaction","inputs":[{"name":"txId","type":"uint256","internalType":"uint256"}],"outputs":[],"stateMutability":"nonpayable"},{"type":"function","name":"finalizeInheritance","inputs":[],"outputs":[],"stateMutability":"nonpayable"},{"type":"function","name":"finalizeRecovery","inputs":[],"outputs":[],"stateMutability":"nonpayable"},{"type":"function","name":"frozen","inputs":[],"outputs":[{"name":"","type":"bool","internalType":"bool"}],"stateMutability":"view"},{"type":"function","name":"getBalance","inputs":[],"outputs":[{"name":"","type":"uint256","internalType":"uint256"}],"stateMutability":"view"},{"type":"function","name":"getGuardians","inputs":[],"outputs":[{"name":"guardians","type":"address[]","internalType":"address[]"},{"name":"mature","type":"bool[]","internalType":"bool[]"}],"stateMutability":"view"},{"type":"function","name":"getInheritanceStatus","inputs":[],"outputs":[{"name":"active","type":"bool","internalType":"bool"},{"name":"approvals","type":"uint8","internalType":"uint8"},{"name":"threshold","type":"uint8","internalType":"uint8"},{"name":"expiryTime","type":"uint64","internalType":"uint64"},{"name":"denied","type":"bool","internalType":"bool"}],"stateMutability":"view"},{"type":"function","name":"getRecoveryStatus","inputs":[],"outputs":[{"name":"proposedOwner","type":"address","internalType":"address"},{"name":"approvals","type":"uint8","internalType":"uint8"},{"name":"threshold","type":"uint8","internalType":"uint8"},{"name":"expiryTime","type":"uint64","internalType":"uint64"},{"name":"active","type":"bool","internalType":"bool"}],"stateMutability":"view"},{"type":"function","name":"getTransactionWithExpiry","inputs":[{"name":"txId","type":"uint256","internalType":"uint256"}],"outputs":[{"name":"toVault","type":"address","internalType":"address"},{"name":"amount","type":"uint256","internalType":"uint256"},{"name":"requestTime","type":"uint64","internalType":"uint64"},{"name":"expiresAt","type":"uint64","internalType":"uint64"},{"name":"isExpired","type":"bool","internalType":"bool"},{"name":"approved","type":"bool","internalType":"bool"},{"name":"executed","type":"bool","internalType":"bool"}],"stateMutability":"view"},{"type":"function","name":"guardianAddTime","inputs":[{"name":"","type":"address","internalType":"address"}],"outputs":[{"name":"","type":"uint64","internalType":"uint64"}],"stateMutability":"view"},{"type":"function","name":"guardianCancelInheritance","inputs":[],"outputs":[],"stateMutability":"nonpayable"},{"type":"function","name":"guardianCount","inputs":[],"outputs":[{"name":"","type":"uint8","internalType":"uint8"}],"stateMutability":"view"},{"type":"function","name":"hub","inputs":[],"outputs":[{"name":"","type":"address","internalType":"address"}],"stateMutability":"view"},{"type":"function","name":"initialize","inputs":[{"name":"_hub","type":"address","internalType":"address"},{"name":"_vfide","type":"address","internalType":"address"},{"name":"_owner","type":"address","internalType":"address"},{"name":"_securityHub","type":"address","internalType":"address"},{"name":"_ledger","type":"address","internalType":"address"}],"outputs":[],"stateMutability":"nonpayable"},{"type":"function","name":"isGuardian","inputs":[{"name":"","type":"address","internalType":"address"}],"outputs":[{"name":"","type":"bool","internalType":"bool"}],"stateMutability":"view"},{"type":"function","name":"isGuardianMature","inputs":[{"name":"g","type":"address","internalType":"address"}],"outputs":[{"name":"","type":"bool","internalType":"bool"}],"stateMutability":"view"},{"type":"function","name":"largeTransferThreshold","inputs":[],"outputs":[{"name":"","type":"uint256","internalType":"uint256"}],"stateMutability":"view"},{"type":"function","name":"lastExecuteTime","inputs":[],"outputs":[{"name":"","type":"uint64","internalType":"uint64"}],"stateMutability":"view"},{"type":"function","name":"lastWithdrawalTime","inputs":[],"outputs":[{"name":"","type":"uint64","internalType":"uint64"}],"stateMutability":"view"},{"type":"function","name":"ledger","inputs":[],"outputs":[{"name":"","type":"address","internalType":"contract IProofLedger"}],"stateMutability":"view"},{"type":"function","name":"maxExecuteValue","inputs":[],"outputs":[{"name":"","type":"uint256","internalType":"uint256"}],"stateMutability":"view"},{"type":"function","name":"nextOfKin","inputs":[],"outputs":[{"name":"","type":"address","internalType":"address"}],"stateMutability":"view"},{"type":"function","name":"owner","inputs":[],"outputs":[{"name":"","type":"address","internalType":"address"}],"stateMutability":"view"},{"type":"function","name":"pendingTransactions","inputs":[{"name":"","type":"uint256","internalType":"uint256"}],"outputs":[{"name":"toVault","type":"address","internalType":"address"},{"name":"amount","type":"uint256","internalType":"uint256"},{"name":"requestTime","type":"uint64","internalType":"uint64"},{"name":"approved","type":"bool","internalType":"bool"},{"name":"executed","type":"bool","internalType":"bool"}],"stateMutability":"view"},{"type":"function","name":"pendingTxCount","inputs":[],"outputs":[{"name":"","type":"uint256","internalType":"uint256"}],"stateMutability":"view"},{"type":"function","name":"requestInheritance","inputs":[],"outputs":[],"stateMutability":"nonpayable"},{"type":"function","name":"requestRecovery","inputs":[{"name":"proposed","type":"address","internalType":"address"}],"outputs":[],"stateMutability":"nonpayable"},{"type":"function","name":"securityHub","inputs":[],"outputs":[{"name":"","type":"address","internalType":"contract ISecurityHub"}],"stateMutability":"view"},{"type":"function","name":"setAbnormalThresholdMode","inputs":[{"name":"_usePercentage","type":"bool","internalType":"bool"},{"name":"_fixedAmount","type":"uint256","internalType":"uint256"},{"name":"_percentageBps","type":"uint16","internalType":"uint16"}],"outputs":[],"stateMutability":"nonpayable"},{"type":"function","name":"setBalanceSnapshotMode","inputs":[{"name":"_useSnapshot","type":"bool","internalType":"bool"}],"outputs":[],"stateMutability":"nonpayable"},{"type":"function","name":"setExecuteCooldown","inputs":[{"name":"_cooldown","type":"uint64","internalType":"uint64"}],"outputs":[],"stateMutability":"nonpayable"},{"type":"function","name":"setFrozen","inputs":[{"name":"_frozen","type":"bool","internalType":"bool"}],"outputs":[],"stateMutability":"nonpayable"},{"type":"function","name":"setGuardian","inputs":[{"name":"g","type":"address","internalType":"address"},{"name":"active","type":"bool","internalType":"bool"}],"outputs":[],"stateMutability":"nonpayable"},{"type":"function","name":"setMaxExecuteValue","inputs":[{"name":"_max","type":"uint256","internalType":"uint256"}],"outputs":[],"stateMutability":"nonpayable"},{"type":"function","name":"setNextOfKin","inputs":[{"name":"kin","type":"address","internalType":"address"}],"outputs":[],"stateMutability":"nonpayable"},{"type":"function","name":"setWithdrawalCooldown","inputs":[{"name":"_cooldown","type":"uint64","internalType":"uint64"}],"outputs":[],"stateMutability":"nonpayable"},{"type":"function","name":"transferVFIDE","inputs":[{"name":"toVault","type":"address","internalType":"address"},{"name":"amount","type":"uint256","internalType":"uint256"}],"outputs":[],"stateMutability":"nonpayable"},{"type":"function","name":"updateBalanceSnapshot","inputs":[],"outputs":[],"stateMutability":"nonpayable"},{"type":"function","name":"useBalanceSnapshot","inputs":[],"outputs":[{"name":"","type":"bool","internalType":"bool"}],"stateMutability":"view"},{"type":"function","name":"usePercentageThreshold","inputs":[],"outputs":[{"name":"","type":"bool","internalType":"bool"}],"stateMutability":"view"},{"type":"function","name":"vfideToken","inputs":[],"outputs":[{"name":"","type":"address","internalType":"address"}],"stateMutability":"view"},{"type":"function","name":"withdrawalCooldown","inputs":[],"outputs":[{"name":"","type":"uint64","internalType":"uint64"}],"stateMutability":"view"},{"type":"event","name":"AbnormalThresholdSet","inputs":[{"name":"usePercentage","type":"bool","indexed":false,"internalType":"bool"},{"name":"fixedAmount","type":"uint256","indexed":false,"internalType":"uint256"},{"name":"percentageBps","type":"uint16","indexed":false,"internalType":"uint16"}],"anonymous":false},{"type":"event","name":"AbnormalTransactionDetected","inputs":[{"name":"txId","type":"uint256","indexed":true,"internalType":"uint256"},{"name":"toVault","type":"address","indexed":true,"internalType":"address"},{"name":"amount","type":"uint256","indexed":false,"internalType":"uint256"}],"anonymous":false},{"type":"event","name":"GuardianSet","inputs":[{"name":"guardian","type":"address","indexed":true,"internalType":"address"},{"name":"active","type":"bool","indexed":false,"internalType":"bool"}],"anonymous":false},{"type":"event","name":"InheritanceApproved","inputs":[{"name":"guardian","type":"address","indexed":true,"internalType":"address"},{"name":"approvals","type":"uint8","indexed":false,"internalType":"uint8"}],"anonymous":false},{"type":"event","name":"InheritanceCancelled","inputs":[{"name":"cancelledBy","type":"address","indexed":true,"internalType":"address"}],"anonymous":false},{"type":"event","name":"InheritanceCancelledByGuardians","inputs":[{"name":"cancelledBy","type":"address","indexed":true,"internalType":"address"},{"name":"approvals","type":"uint8","indexed":false,"internalType":"uint8"}],"anonymous":false},{"type":"event","name":"InheritanceDenied","inputs":[{"name":"owner","type":"address","indexed":true,"internalType":"address"}],"anonymous":false},{"type":"event","name":"InheritanceFinalized","inputs":[{"name":"inheritor","type":"address","indexed":true,"internalType":"address"},{"name":"inheritorVault","type":"address","indexed":true,"internalType":"address"},{"name":"amount","type":"uint256","indexed":false,"internalType":"uint256"}],"anonymous":false},{"type":"event","name":"InheritanceRequested","inputs":[{"name":"nextOfKin","type":"address","indexed":true,"internalType":"address"}],"anonymous":false},{"type":"event","name":"NextOfKinSet","inputs":[{"name":"kin","type":"address","indexed":true,"internalType":"address"}],"anonymous":false},{"type":"event","name":"OwnerSet","inputs":[{"name":"newOwner","type":"address","indexed":true,"internalType":"address"}],"anonymous":false},{"type":"event","name":"RecoveryApproved","inputs":[{"name":"guardian","type":"address","indexed":true,"internalType":"address"},{"name":"proposedOwner","type":"address","indexed":true,"internalType":"address"},{"name":"approvals","type":"uint8","indexed":false,"internalType":"uint8"}],"anonymous":false},{"type":"event","name":"RecoveryCancelled","inputs":[{"name":"cancelledBy","type":"address","indexed":true,"internalType":"address"}],"anonymous":false},{"type":"event","name":"RecoveryFinalized","inputs":[{"name":"newOwner","type":"address","indexed":true,"internalType":"address"}],"anonymous":false},{"type":"event","name":"RecoveryRequested","inputs":[{"name":"proposedOwner","type":"address","indexed":true,"internalType":"address"}],"anonymous":false},{"type":"event","name":"TransactionApproved","inputs":[{"name":"txId","type":"uint256","indexed":true,"internalType":"uint256"},{"name":"by","type":"address","indexed":true,"internalType":"address"}],"anonymous":false},{"type":"event","name":"TransactionDenied","inputs":[{"name":"txId","type":"uint256","indexed":true,"internalType":"uint256"},{"name":"by","type":"address","indexed":true,"internalType":"address"}],"anonymous":false},{"type":"event","name":"TransactionExecuted","inputs":[{"name":"txId","type":"uint256","indexed":true,"internalType":"uint256"},{"name":"toVault","type":"address","indexed":true,"internalType":"address"},{"name":"amount","type":"uint256","indexed":false,"internalType":"uint256"}],"anonymous":false},{"type":"event","name":"VaultApprove","inputs":[{"name":"spender","type":"address","indexed":true,"internalType":"address"},{"name":"amount","type":"uint256","indexed":false,"internalType":"uint256"}],"anonymous":false},{"type":"event","name":"VaultFrozen","inputs":[{"name":"frozen","type":"bool","indexed":false,"internalType":"bool"}],"anonymous":false},{"type":"event","name":"VaultTransfer","inputs":[{"name":"toVault","type":"address","indexed":true,"internalType":"address"},{"name":"amount","type":"uint256","indexed":false,"internalType":"uint256"}],"anonymous":false},{"type":"error","name":"UV_AlreadyInitialized","inputs":[]},{"type":"error","name":"UV_AlreadyVoted","inputs":[]},{"type":"error","name":"UV_Frozen","inputs":[]},{"type":"error","name":"UV_InheritanceDenied","inputs":[]},{"type":"error","name":"UV_Locked","inputs":[]},{"type":"error","name":"UV_NoInheritance","inputs":[]},{"type":"error","name":"UV_NoPendingTx","inputs":[]},{"type":"error","name":"UV_NoRecovery","inputs":[]},{"type":"error","name":"UV_NotGuardian","inputs":[]},{"type":"error","name":"UV_NotNextOfKin","inputs":[]},{"type":"error","name":"UV_NotOwner","inputs":[]},{"type":"error","name":"UV_RecoveryActive","inputs":[]},{"type":"error","name":"UV_TxAlreadyProcessed","inputs":[]},{"type":"error","name":"UV_Zero","inputs":[]}],"bytecode":{"object":"0x60808060405234610233575f9060a0816132138038038091610021828561029e565b83398101031261023357610034816102c1565b610040602083016102c1565b61004c604084016102c1565b90610065608061005e606087016102c1565b95016102c1565b60015f55926001600160a01b03168015158061028c575b8061027a575b1561024b57600180546001600160a01b03199081169290921790556002805482166001600160a01b03938416179055600580548216938316938417905560038054821695831695909517909455600480549094169216918217909255600a80546001600160401b0319166201518017905569021e19e0c9bab2400000600b55600c8054600160401b600160801b031916690e100000000000000000179055670de0b6b3a7640000600d55690a968163f0a57b400000600f556010805461ffff1916611388179055604080519081016001600160401b0381118282101761023757604052600d8152602081016c1d985d5b1d17d8dc99585d1959609a1b8152826101bc575b5050507f50146d0e3c60aa1d17a70635b05494f864e86144a2201275021014fbf08bafe26040519280a2612f3d90816102d68239f35b823b15610233576084925f9283604051958680958194633ddd61ab60e21b8352306004840152606060248401525180918160648501528484015e8181018301849052336044830152601f01601f191681010301925af161021e575b8080610186565b61022b9192505f9061029e565b5f905f610217565b5f80fd5b634e487b7160e01b5f52604160045260245ffd5b60405162461bcd60e51b815260206004820152600760248201526655563a7a65726f60c81b6044820152606490fd5b506001600160a01b0383161515610082565b506001600160a01b038216151561007c565b601f909101601f19168101906001600160401b0382119082101761023757604052565b51906001600160a01b03821682036102335756fe6080604052600436101561001a575b3615610018575f80fd5b005b5f5f3560e01c8063020378221461261e578063054f7d9c146125fc57806306603f8d146125d45780630665f04b1461247a578063091ea9dc1461242c578063092cc1fb1461240f5780630b6946da146123455780630ba234d61461228c5780630c68ba211461224f5780630fbd22b01461222a578063118f117f1461220257806312065fe01461217b578063124f8d9c146120fe5780631459457a14611f2c5780631bed8c6e14611dfb5780631cff79cd14611bd8578063269b54b114611bb35780632b8a1c5a146118bb57806334a014dc1461188f578063365a86fc1461186757806342e01e73146118275780635132124c1461180a578063518d095914611733578063536b801d146116ab57806354387ad71461168b57806356397c35146116635780635f8983fd146115e357806363a8374d1461157857806363f95a3b1461154b578063688aa6ce146112e65780636a1509811461129b5780636b1994ea1461120c5780636d68e53b146111ef578063700c5e7d1461100f578063713c6cb3146111725780637e932d32146110b0578063835316c7146110145780638b2bc3e71461100f5780638da5cb5b14610fe75780638e48d08214610f815780638f252d3414610ec65780639362698c14610e0257806393bcd85814610dd85780639a0dd14014610dbb578063aa14cc6b14610d0e578063b50ef71b14610b1a578063b5354ce514610afc578063b72d294314610ad3578063b8a71eec14610aaa578063ba58db5114610964578063c60cd99c146108dd578063d6c89c60146108b4578063e2158ee714610892578063e24ba2651461072b578063e2ccb305146105d3578063e6536fc5146105b5578063e6dd89ca1461050b578063f9773f9214610443578063fcae8d38146102d95763fd4fa981146102b9575061000e565b346102d657806003193601126102d6576020604051620151808152f35b80fd5b50346102d657806003193601126102d6576102f2612bca565b338152600660205260ff604082205416156104345761031861031333612875565b612767565b6014546001600160a01b038116156104255760a81c6001600160401b03164211610416573381526016602052604081206015549081835260205260ff6040832054166104075733825260166020526040822090825260205260408120600160ff1982541617905560145460ff60a01b61039660ff8360a01c166127a1565b60a01b1660ff60a01b19821617908160145560ff6040519260a01c16825260018060a01b0316905f516020612ec85f395f51905f5260203392a36104046040516103e160408261269c565b60118152701c9958dbdd995c9e57d85c1c1c9bdd9959607a1b6020820152612c5b565b80f35b63017a521b60e51b8252600482fd5b638d0fa13360e01b8152600490fd5b638d0fa13360e01b8252600482fd5b633321153560e21b8152600490fd5b50346102d65760203660031901126102d657600435610460612b8f565b80825260126020526040822080546001600160a01b0316156104fc57600201805460ff8160481c166104ed576001600160401b0361049f8282166127b2565b1642116104de5760ff60401b1916600160401b17905533907f924813d717e221b5f46dcd8a56da1679e4612584ab3237d55e5faabf6f6a30798380a380f35b634c8d442960e01b8452600484fd5b63446d277b60e11b8452600484fd5b634c8d442960e01b8352600483fd5b50346102d65760603660031901126102d657610525612670565b602435906044359161ffff83168093036105b1577f2e02e19641dbae8d0ee7cf4656d3cc039f7adb684e447de0492c12fe349bc9d592606092610566612b8f565b6105746127108311156126fe565b151591600e5461ff008460081b169061ff00191617600e5580600f558161ffff19601054161760105560405192835260208301526040820152a180f35b8380fd5b50346102d657806003193601126102d657602060405162093a808152f35b50346102d657806003193601126102d6576105ec612bca565b6014546001600160a01b03811690811561071c5760a881901c6001600160401b0316421161071c5760ff8160e81c1690600282106106e25760ff80610639607f6106469560011c16612755565b169160a01c1610156128de565b601480546001600160e81b031916905560155461066290612747565b601555600580546001600160a01b03191682179055807f9504e318c48c2d15540e6faaea014f2855c06fc4df211f5e26a8fb99a6be7fdf8380a25f516020612ea85f395f51905f528280a26104046040516106be60408261269c565b60128152711c9958dbdd995c9e57d99a5b985b1a5e995960721b6020820152612c5b565b60405162461bcd60e51b815260206004820152601260248201527155563a6d696e2d322d677561726469616e7360701b6044820152606490fd5b638d0fa13360e01b8352600483fd5b50346102d65760203660031901126102d657610745612636565b61074d612bca565b338252600660205260ff604083205416156108835761077561076e33612875565b1515612767565b6001600160a01b03168015610874576014546001600160a81b0319168117600160a01b17600160a81b600160e81b036107ad42612737565b60a81b1660ff60e81b60075460e81b1691600160a81b600160f01b03191617176014556107db601554612747565b8060155533835260166020526040832090835260205260408220600160ff19825416179055604051817f9cc0dc5a29a0ebc421ec879559ba990d29c1fb967a227ed69c9f4e33faa04bff8480a2600181525f516020612ec85f395f51905f5260203392a361040460405161085060408261269c565b60128152711c9958dbdd995c9e57dc995c5d595cdd195960721b6020820152612c5b565b630fd9d18960e41b8252600482fd5b633321153560e21b8252600482fd5b50346102d657806003193601126102d657602061ffff60105416604051908152f35b50346102d657806003193601126102d657600a546040516001600160401b039091168152602090f35b50346102d657806003193601126102d65760a060175460ff8116908161094c575b60ff9081610915607f826007541660011c16612755565b6040519415158552818360081c16602086015216604084015260018060401b038160101c16606084015260501c1615156080820152f35b601081901c6001600160401b031642111591506108fe565b50346102d657806003193601126102d65761097d612bca565b338152600660205260ff604082205416156104345761099e61031333612875565b60175460ff811615610a9b5760101c6001600160401b03164211610a8c573381526019602052604081206018549081835260205260ff6040832054166104075733825260196020526040822090825260205260408120600160ff1982541617905560175461ff00610a1460ff8360081c166127a1565b60081b169061ff001916178060175560ff6040519160081c1681527f0ea7dfe497d90adcfba43ccd872c922d16653039b5d89b207ba8554c2cff14cd60203392a2610404604051610a6660408261269c565b60148152731a5b9a195c9a5d185b98d957d85c1c1c9bdd995960621b6020820152612c5b565b6324dcf66760e21b8152600490fd5b6324dcf66760e21b8252600482fd5b50346102d657806003193601126102d6576002546040516001600160a01b039091168152602090f35b50346102d657806003193601126102d6576003546040516001600160a01b039091168152602090f35b50346102d657806003193601126102d6576020600b54604051908152f35b5034610cec576020366003190112610cec57600435610b37612b8f565b610b3f612bca565b610b47612cbb565b610b4f612cd6565b5f81815260126020526040902080546001600160a01b031615610cf05760028101805460ff8160481c16610cff5760ff8160401c1615610cf0576001600160401b03610b9c8282166127b2565b164211610cf05760ff60481b1916600160481b17905560098054600160a01b600160e01b0319164260a01b600160a01b600160e01b03161790556002548154600183018054909392610bfa926001600160a01b039081169116612d17565b60018060a01b039054169054917fda19024f6708ce28e75d9c0ec389fb05a8e5cc9dfe520f61239c10d51a11e59c6020604051858152a3604051610c3f60408261269c565b60138152721c195b991a5b99d7dd1e17d95e1958dd5d1959606a1b60208201526004546001600160a01b03169081610c7a575b836001815580f35b813b15610cec575f91610cb3918360206040519687958694630303c28760e61b865230600487015260806024870152608486019061264c565b9060448501528284820391600319830160648701525201925af1610cd9575b8080610c72565b610ce591505f9061269c565b5f5f610cd2565b5f80fd5b634c8d442960e01b5f5260045ffd5b63446d277b60e11b5f5260045ffd5b34610cec575f366003190112610cec57610d26612b8f565b610d2e612bca565b60175460ff811615610dac5760ff1916601755610d4c601854612747565b601855337f577d80a92396a49283a298935287995fee74eceefc62c3edfdf8257ec85462965f80a2610018604051610d8560408261269c565b60158152741a5b9a195c9a5d185b98d957d8d85b98d95b1b1959605a1b6020820152612c5b565b6324dcf66760e21b5f5260045ffd5b34610cec575f366003190112610cec576020600d54604051908152f35b34610cec575f366003190112610cec57600c546040805191901c6001600160401b03168152602090f35b34610cec576020366003190112610cec57610e1b612636565b6001546001600160a01b03163303610e9457600580546001600160a01b0319166001600160a01b0392909216918217905560408051610e8191610e5e908261269c565b60118152703b30bab63a2fb337b931b2afb7bbb732b960791b6020820152612c5b565b5f516020612ea85f395f51905f525f80a2005b60405162461bcd60e51b815260206004820152600a6024820152692aab1d37b7363ca43ab160b11b6044820152606490fd5b34610cec576020366003190112610cec57610edf612670565b610ee7612b8f565b6010805462ff00001916821515821b62ff000016179055610f0457005b6002546040516370a0823160e01b815230600482015290602090829060249082906001600160a01b03165afa908115610f76575f91610f44575b50601155005b90506020813d602011610f6e575b81610f5f6020938361269c565b81010312610cec575181610f3e565b3d9150610f52565b6040513d5f823e3d90fd5b34610cec576020366003190112610cec576004356001600160401b03811690819003610cec57610faf612b8f565b610e1081101580610fda575b610fc4906126fe565b600a80546001600160401b031916919091179055005b5062093a80811115610fbb565b34610cec575f366003190112610cec576005546040516001600160a01b039091168152602090f35b61267f565b34610cec576020366003190112610cec5761102d612636565b611035612b8f565b61103d612bca565b600980546001600160a01b0319166001600160a01b039290921691821790557f5e5418a3c3d9e12cae95b949efcf26cfdffb4dbc73cd1d2532a97f656e634bf55f80a261001860405161109160408261269c565b600d81526c1b995e1d1bd99ada5b97dcd95d609a1b6020820152612c5b565b34610cec576020366003190112610cec576110c9612670565b6110d1612b8f565b7f18a225f450380fd39da2a8986c15805afce4eb7f6efbdfe1d0bb9df17c8e7923602082151560ff19600e541660ff821617600e55604051908152a1156111415761001860405161112360408261269c565b600c81526b3b30bab63a2fb33937bd32b760a11b6020820152612c5b565b61001860405161115260408261269c565b600e81526d3b30bab63a2fbab7333937bd32b760911b6020820152612c5b565b34610cec576020366003190112610cec576004356001600160401b038116808203610cec576111b6906111a3612b8f565b610e1081101590816111e1575b506126fe565b600c8054600160401b600160801b03191660409290921b600160401b600160801b0316919091179055005b6201518091501115836111b0565b34610cec575f366003190112610cec576020601354604051908152f35b34610cec576020366003190112610cec576004355f9081526012602052604090208054600182015460029092015460e0926001600160a01b039092169160ff91906001600160401b0380831690611262826127b2565b16916040519586526020860152604085015280606085015242116080840152818160401c16151560a084015260481c16151560c0820152f35b34610cec576040366003190112610cec576112e06112b7612636565b6112bf612b8f565b6112c7612bca565b6112cf612cbb565b6112d7612cd6565b60243590612919565b60015f55005b34610cec575f366003190112610cec576112fe612bca565b611306612cd6565b6009546001600160a01b03163381900361153c5760175460ff811615610dac57601081901c6001600160401b03164211610dac5760ff8160501c1661152d5761136c60ff61135d607f826007541660011c16612755565b1660ff8360081c1610156128de565b60ff191660175561137e601854612747565b6018556002546040516370a0823160e01b81523060048201526001600160a01b0390911691602082602481865afa918215610f76575f926114f9575b50600154604051630709df4560e01b81526004810192909252602090829060249082906001600160a01b03165afa908115610f76575f916114b7575b506001600160a01b03811692831561148457611413918391612d17565b6009546040519182526001600160a01b0316907fcc9c89312a2ac19bfbb488a107aa51e50162fc6a2ad5dad80dbba85e2a9a936890602090a36112e060405161145d60408261269c565b60158152741a5b9a195c9a5d185b98d957d99a5b985b1a5e9959605a1b6020820152612c5b565b60405162461bcd60e51b815260206004820152600b60248201526a15558e9b9bcb5d985d5b1d60aa1b6044820152606490fd5b90506020813d6020116114f1575b816114d26020938361269c565b81010312610cec57516001600160a01b0381168103610cec57836113f6565b3d91506114c5565b9091506020813d602011611525575b816115156020938361269c565b81010312610cec575190836113ba565b3d9150611508565b63781b949d60e11b5f5260045ffd5b631a4f16b960e21b5f5260045ffd5b34610cec576020366003190112610cec57602061156e611569612636565b612875565b6040519015158152f35b34610cec576020366003190112610cec576004355f52601260205260a060405f2060ff600180841b03825416916002600182015491015490604051938452602084015260018060401b0381166040840152818160401c161515606084015260481c1615156080820152f35b34610cec576020366003190112610cec576004356115ff612b8f565b5f81815260126020526040902080546001600160a01b031615610cf057600201805460ff8160481c16610cff5760ff60481b1916600160481b17905533907f12cd094e454538586035071c64eb69c206d65137212e7d5e9d32d738540435705f80a3005b34610cec575f366003190112610cec576004546040516001600160a01b039091168152602090f35b34610cec575f366003190112610cec57602060ff60075416604051908152f35b34610cec575f366003190112610cec576116c3612b8f565b6017805460ff60ff60501b011916600160501b179055337fec32f6be1cfe5f271330570749895d0cdcb3324846ee37b8a6ac973b4a27cf575f80a261001860405161170f60408261269c565b60128152711a5b9a195c9a5d185b98d957d9195b9a595960721b6020820152612c5b565b34610cec576020366003190112610cec576004355f90815260126020526040902080546001600160a01b031615610cf057600201805460ff8160481c16610cff576001600160401b036117878282166127b2565b164211156117d45760ff60481b1916600160481b17905560408051610018916117b0908261269c565b6012815271195e1c1a5c995917dd1e17d8db19585b995960721b6020820152612c5b565b60405162461bcd60e51b815260206004820152600e60248201526d15558e9b9bdd0b595e1c1a5c995960921b6044820152606490fd5b34610cec575f366003190112610cec576020601154604051908152f35b34610cec576020366003190112610cec576001600160a01b03611848612636565b165f52601a602052602060018060401b0360405f205416604051908152f35b34610cec575f366003190112610cec576001546040516001600160a01b039091168152602090f35b34610cec575f366003190112610cec5760095460405160a09190911c6001600160401b03168152602090f35b34610cec576040366003190112610cec576118d4612636565b60243590811515808303610cec576118ea612b8f565b6118f2612bca565b6001600160a01b038216918215611ba4576014546001600160a01b0316611b9557825f5260066020528160ff60405f20541615150361192d57005b825f52600660205260405f2060ff1981541660ff8416179055835f14611a6b5760075460ff61195d8183166127a1565b60ff1990921691161760075560085491600160401b831015611a57576119c160209261199d8560015f516020612ee85f395f51905f52970160085561285d565b9080546001600160a01b0360039390931b83811b199091169290931690921b179055565b5f848152601a83526040902080546001600160401b031916426001600160401b03161790555b604051908152a215611a2457610018604051611a0460408261269c565b600e81526d19dd585c991a585b97d85919195960921b6020820152612c5b565b610018604051611a3560408261269c565b601081526f19dd585c991a585b97dc995b5bdd995960821b6020820152612c5b565b634e487b7160e01b5f52604160045260245ffd5b509060075460ff81168015611b685760ff905f1901169060ff1916176007555f5b60085480821015611b7c5782611aa18361285d565b905460039190911b1c6001600160a01b031614611ac15750600101611a8c565b9192915f19810191908211611b685761199d611adf611af79361285d565b905460039190911b1c6001600160a01b03169161285d565b6008548015611b54575f516020612ee85f395f51905f52916020915f1901611b1e8161285d565b81549060018060a01b039060031b1b191690556008555b5f848152601a83526040902080546001600160401b03191690556119e7565b634e487b7160e01b5f52603160045260245ffd5b634e487b7160e01b5f52601160045260245ffd5b50509060205f516020612ee85f395f51905f5291611b35565b631b11469b60e11b5f5260045ffd5b630fd9d18960e41b5f5260045ffd5b34610cec575f366003190112610cec57602060ff60105460101c166040519015158152f35b6040366003190112610cec57611bec612636565b6024356001600160401b038111610cec5736602382011215610cec576004810135916001600160401b038311610cec573660248484010111610cec57611c30612b8f565b611c38612bca565b611c40612cbb565b611c48612cd6565b6002546001600160a01b0382811691168114611dc8576001546001600160a01b031614611d9757600d543411611d6757600c545f938493602492909190611cab6001600160401b03611ca2604084901c82168285166127cc565b164210156127e5565b6001600160401b031916426001600160401b031617600c5560405192839282910183378101848152039134905af1611ce161281f565b9015611d3157611d2d90611d15604051611cfc60408261269c565b60078152666578656375746560c81b6020820152612c5b565b60015f5560405191829160208352602083019061264c565b0390f35b60405162461bcd60e51b815260206004820152600e60248201526d15558e98d85b1b0b59985a5b195960921b6044820152606490fd5b60405162461bcd60e51b815260206004820152600860248201526755563a76616c756560c01b6044820152606490fd5b60405162461bcd60e51b81526020600482015260096024820152682aab1d373796b43ab160b91b6044820152606490fd5b60405162461bcd60e51b815260206004820152600b60248201526a2aab1d373796ba37b5b2b760a91b6044820152606490fd5b34610cec575f366003190112610cec57611e13612bca565b335f52600660205260ff60405f20541615611f1d57611e3461031333612875565b60175460ff811615610dac57600754611e529060011c607f16612755565b9061ff00611e6560ff8360081c166127a1565b60081b169160ff808461ff00198516179283601755169160081c161015611e8857005b61ffff19161780601755611e9d601854612747565b60185560ff6040519160081c1681527f82a4e870a30fcdcdb7097dff3667437d1d8574e2766560bb07e1f1fb4a5b151860203392a2610018604051611ee360608261269c565b602281527f696e6865726974616e63655f63616e63656c6c65645f62795f677561726469616020820152616e7360f01b6040820152612c5b565b633321153560e21b5f5260045ffd5b34610cec5760a0366003190112610cec57611f45612636565b6024356001600160a01b0381169190829003610cec576044356001600160a01b0381169290839003610cec576064356001600160a01b0381169190829003610cec576084356001600160a01b0381169390849003610cec57601b549060ff82166120ef576001600160a01b031690811515806120e6575b806120dd575b156120ae5760ff19166001908117601b5580546001600160a01b031990811692909217905560028054821692909217909155600580548216851790556003805482169290921790915560048054909116919091179055600a80546001600160401b0319166201518017905569021e19e0c9bab2400000600b55600c8054600160401b600160801b03191660e160441b179055670de0b6b3a7640000600d55690a968163f0a57b400000600f556010805461ffff191661138817905560408051610e819161208f908261269c565b600d81526c1d985d5b1d17d8dc99585d1959609a1b6020820152612c5b565b60405162461bcd60e51b815260206004820152600760248201526655563a7a65726f60c81b6044820152606490fd5b50851515611fc2565b50821515611fbc565b63141fb2bf60e01b5f5260045ffd5b34610cec575f366003190112610cec5760145460a0906001600160a01b0381169061212f60e982901c607f16612755565b8215159160a881901c6001600160401b0316919083612170575b9060ff8092604051968752871c166020860152166040840152606083015215156080820152f35b428310159350612149565b34610cec575f366003190112610cec576002546040516370a0823160e01b815230600482015290602090829060249082906001600160a01b03165afa8015610f76575f906121cf575b602090604051908152f35b506020813d6020116121fa575b816121e96020938361269c565b81010312610cec57602090516121c4565b3d91506121dc565b34610cec575f366003190112610cec57600c546040516001600160401b039091168152602090f35b34610cec575f366003190112610cec57602060ff600e5460081c166040519015158152f35b34610cec576020366003190112610cec576001600160a01b03612270612636565b165f526006602052602060ff60405f2054166040519015158152f35b34610cec575f366003190112610cec576122a4612b8f565b6122ac612bca565b6014546001600160a01b03161561233657601480546001600160e81b03191690556015546122d990612747565b601555337f8154b6c5e1fc90d44b49808ef93f9739148d0821411890f8cd684385e24b9f1e5f80a261001860405161231260408261269c565b60128152711c9958dbdd995c9e57d8d85b98d95b1b195960721b6020820152612c5b565b638d0fa13360e01b5f5260045ffd5b34610cec575f366003190112610cec5761235d612bca565b6009546001600160a01b0316330361153c5760175460ff8160501c1661152d57600162010000600160501b0361239242612737565b60101b1691818060501b03191617176017556123af601854612747565b601855337f45169f9a6369d811de455bb5ecdc25c684355abe2deaf2f8d9b81618754ba3b45f80a26100186040516123e860408261269c565b60158152741a5b9a195c9a5d185b98d957dc995c5d595cdd1959605a1b6020820152612c5b565b34610cec575f366003190112610cec576020600f54604051908152f35b34610cec576020366003190112610cec57600435612448612b8f565b67016345785d8a000081101580612468575b612463906126fe565b600d55005b50678ac7230489e8000081111561245a565b34610cec575f366003190112610cec57604051806020600854918281520190828260085f5260205f20925f5b8181106125b25750506124bb9250038361269c565b81516124df6124c9826126bf565b916124d7604051938461269c565b8083526126bf565b6020820190601f19013682375f5b845181101561252a576001906125156001600160a01b0361250e83896126d6565b5116612875565b61251f82866126d6565b9015159052016124ed565b50909291604051938493604085019060408652518091526060850192905f5b818110612590575050506020908483038286015251918281520191905f5b818110612575575050500390f35b82511515845285945060209384019390920191600101612567565b82516001600160a01b0316855287965060209485019490920191600101612549565b84546001600160a01b03168352600194850194879450602090930192016124a6565b34610cec575f366003190112610cec576009546040516001600160a01b039091168152602090f35b34610cec575f366003190112610cec57602060ff600e54166040519015158152f35b34610cec575f366003190112610cec57610f04612b8f565b600435906001600160a01b0382168203610cec57565b805180835260209291819084018484015e5f828201840152601f01601f1916010190565b600435908115158203610cec57565b34610cec575f366003190112610cec57602060405162278d008152f35b601f909101601f19168101906001600160401b03821190821017611a5757604052565b6001600160401b038111611a575760051b60200190565b80518210156126ea5760209160051b010190565b634e487b7160e01b5f52603260045260245ffd5b1561270557565b60405162461bcd60e51b815260206004820152600a60248201526915558e9a5b9d985b1a5960b21b6044820152606490fd5b9062278d008201809211611b6857565b5f198114611b685760010190565b60ff60019116019060ff8211611b6857565b1561276e57565b60405162461bcd60e51b815260206004820152600b60248201526a55563a696d6d617475726560a81b6044820152606490fd5b60ff1660ff8114611b685760010190565b6001600160401b03908116620151800191908211611b6857565b6001600160401b039182169082160191908211611b6857565b156127ec57565b60405162461bcd60e51b815260206004820152600b60248201526a2aab1d31b7b7b63237bbb760a91b6044820152606490fd5b3d15612858573d906001600160401b038211611a57576040519161284d601f8201601f19166020018461269c565b82523d5f602084013e565b606090565b6008548110156126ea5760085f5260205f2001905f90565b6001600160a01b03165f8181526006602052604090205460ff16156128d9575f908152601a60205260409020546001600160401b031680156128d35762093a80016001600160401b038111611b68576001600160401b031642101590565b50600190565b505f90565b156128e557565b60405162461bcd60e51b815260206004820152600c60248201526b15558e9d1a1c995cda1bdb1960a21b6044820152606490fd5b6001600160a01b038116908115611ba457600954600a5461294f916001600160401b0391611ca2919083169060a01c83166127cc565b61295883612de5565b612a615760098054600160a01b600160e01b0319164260a01b600160a01b600160e01b03161790556002546129979184916001600160a01b0316612d17565b7f1f4e9075aadab47c6d1822e19226819c4482f4326012945c69bb143c6861982a6020604051848152a26040516129cf60408261269c565b60088152673a3930b739b332b960c11b60208201526004546001600160a01b031690816129fb57505050565b813b15610cec575f91612a34918360206040519687958694630303c28760e61b865230600487015260806024870152608486019061264c565b9060448501528284820391600319830160648701525201925af1612a555750565b5f612a5f9161269c565b565b509060135490612a7082612747565b6013556040519060a08201906001600160401b03821183831017611a575760409182528483526020808401828152426001600160401b039081168587019081525f60608801818152608089018281528a83526012875291889020985189546001600160a01b0319166001600160a01b03919091161789559351600189015590516002979097018054935191516001600160501b03199094169790921696909617951515851b60ff60401b169590951790151560481b60ff60481b161790935590519081527f72c131e4f3fead122420dfa8d1a10e700e5e3badef6ea9b934ce82124515d1ce9190a3612a5f604051612b6960408261269c565b601481527318589b9bdc9b585b17dd1e17d9195d1958dd195960621b6020820152612c5b565b6005546001600160a01b03163303612ba357565b63c0b06f0b60e01b5f5260045ffd5b90816020910312610cec57518015158103610cec5790565b6003546001600160a01b03168015159081612bf6575b50612be757565b63105aa7fb60e31b5f5260045ffd5b604051631293efbb60e21b81523060048201529150602090829060249082905afa908115610f76575f91612c2c575b505f612be0565b612c4e915060203d602011612c54575b612c46818361269c565b810190612bb2565b5f612c25565b503d612c3c565b6004546001600160a01b031680612c70575050565b803b15610cec57604051633ddd61ab60e21b815230600482015260606024820152915f918391829084908290612caa90606483019061264c565b33604483015203925af1612a555750565b60ff600e5416612cc757565b6357fa752160e01b5f5260045ffd5b60015f5403612ce55760025f55565b60405162461bcd60e51b815260206004820152600a6024820152697265656e7472616e637960b01b6044820152606490fd5b5f929183809360405190602082019363a9059cbb60e01b855260018060a01b03166024830152604482015260448152612d5160648261269c565b51926001600160a01b03165af1612d6661281f565b81612db6575b5015612d7457565b60405162461bcd60e51b815260206004820152601a60248201527914d85999515490cc8c0e881d1c985b9cd9995c8819985a5b195960321b6044820152606490fd5b8051801592508215612dcb575b50505f612d6c565b612dde9250602080918301019101612bb2565b5f80612dc3565b600e5460081c60ff1615612ea05760105460ff8160101c165f14612e2d57601154905b8115612e265761ffff1680820291820403611b685761271090041090565b5050505f90565b6002546040516370a0823160e01b815230600482015290602090829060249082906001600160a01b03165afa908115610f76575f91612e6e575b5090612e08565b90506020813d602011612e98575b81612e896020938361269c565b81010312610cec57515f612e67565b3d9150612e7c565b600f54109056fe50146d0e3c60aa1d17a70635b05494f864e86144a2201275021014fbf08bafe293a8f3acc471767423e482b998d4f8d2dd61068cf066749b4d296f36bb64ad00c4459d655e1efe034a75446f1f4db087f75d23bdfabccffafa6384cdb23a1544a2646970667358221220e552a50c51a800447192b264f48c27c10142868d017aff2e9d10d2765b4dd53364736f6c634300081e0033","linkReferences":{}},"methodIdentifiers":{"GUARDIAN_MATURITY_PERIOD()":"e6536fc5","INHERITANCE_EXPIRY()":"8b2bc3e7","PENDING_TX_EXPIRY()":"fd4fa981","RECOVERY_EXPIRY()":"700c5e7d","__forceSetOwner(address)":"9362698c","abnormalTransactionPercentageBps()":"e2158ee7","abnormalTransactionThreshold()":"092cc1fb","approveInheritance()":"ba58db51","approvePendingTransaction(uint256)":"f9773f92","approveRecovery()":"fcae8d38","balanceSnapshot()":"5132124c","cancelInheritance()":"aa14cc6b","cancelRecovery()":"0ba234d6","cleanupExpiredTransaction(uint256)":"518d0959","denyInheritance()":"536b801d","denyPendingTransaction(uint256)":"5f8983fd","execute(address,bytes)":"1cff79cd","executeCooldown()":"93bcd858","executePendingTransaction(uint256)":"b50ef71b","finalizeInheritance()":"688aa6ce","finalizeRecovery()":"e2ccb305","frozen()":"054f7d9c","getBalance()":"12065fe0","getGuardians()":"0665f04b","getInheritanceStatus()":"c60cd99c","getRecoveryStatus()":"124f8d9c","getTransactionWithExpiry(uint256)":"6b1994ea","guardianAddTime(address)":"42e01e73","guardianCancelInheritance()":"1bed8c6e","guardianCount()":"54387ad7","hub()":"365a86fc","initialize(address,address,address,address,address)":"1459457a","isGuardian(address)":"0c68ba21","isGuardianMature(address)":"63f95a3b","largeTransferThreshold()":"b5354ce5","lastExecuteTime()":"118f117f","lastWithdrawalTime()":"34a014dc","ledger()":"56397c35","maxExecuteValue()":"9a0dd140","nextOfKin()":"06603f8d","owner()":"8da5cb5b","pendingTransactions(uint256)":"63a8374d","pendingTxCount()":"6d68e53b","requestInheritance()":"0b6946da","requestRecovery(address)":"e24ba265","securityHub()":"b72d2943","setAbnormalThresholdMode(bool,uint256,uint16)":"e6dd89ca","setBalanceSnapshotMode(bool)":"8f252d34","setExecuteCooldown(uint64)":"713c6cb3","setFrozen(bool)":"7e932d32","setGuardian(address,bool)":"2b8a1c5a","setMaxExecuteValue(uint256)":"091ea9dc","setNextOfKin(address)":"835316c7","setWithdrawalCooldown(uint64)":"8e48d082","transferVFIDE(address,uint256)":"6a150981","updateBalanceSnapshot()":"02037822","useBalanceSnapshot()":"269b54b1","usePercentageThreshold()":"0fbd22b0","vfideToken()":"b8a71eec","withdrawalCooldown()":"d6c89c60"},"id":30}