{"abi":[{"type":"constructor","inputs":[{"name":"devReserveVestingVault","type":"address","internalType":"address"},{"name":"_presaleContract","type":"address","internalType":"address"},{"name":"treasury","type":"address","internalType":"address"},{"name":"_vaultHub","type":"address","internalType":"address"},{"name":"_ledger","type":"address","internalType":"address"},{"name":"_treasurySink","type":"address","internalType":"address"}],"stateMutability":"nonpayable"},{"type":"function","name":"DEV_RESERVE_SUPPLY","inputs":[],"outputs":[{"name":"","type":"uint256","internalType":"uint256"}],"stateMutability":"view"},{"type":"function","name":"DOMAIN_SEPARATOR","inputs":[],"outputs":[{"name":"","type":"bytes32","internalType":"bytes32"}],"stateMutability":"view"},{"type":"function","name":"MAX_CIRCUIT_BREAKER_DURATION","inputs":[],"outputs":[{"name":"","type":"uint256","internalType":"uint256"}],"stateMutability":"view"},{"type":"function","name":"MAX_SUPPLY","inputs":[],"outputs":[{"name":"","type":"uint256","internalType":"uint256"}],"stateMutability":"view"},{"type":"function","name":"PERMIT_TYPEHASH","inputs":[],"outputs":[{"name":"","type":"bytes32","internalType":"bytes32"}],"stateMutability":"view"},{"type":"function","name":"PRESALE_CAP","inputs":[],"outputs":[{"name":"","type":"uint256","internalType":"uint256"}],"stateMutability":"view"},{"type":"function","name":"acceptOwnership","inputs":[],"outputs":[],"stateMutability":"nonpayable"},{"type":"function","name":"allowance","inputs":[{"name":"owner_","type":"address","internalType":"address"},{"name":"spender","type":"address","internalType":"address"}],"outputs":[{"name":"","type":"uint256","internalType":"uint256"}],"stateMutability":"view"},{"type":"function","name":"approve","inputs":[{"name":"spender","type":"address","internalType":"address"},{"name":"amount","type":"uint256","internalType":"uint256"}],"outputs":[{"name":"","type":"bool","internalType":"bool"}],"stateMutability":"nonpayable"},{"type":"function","name":"balanceOf","inputs":[{"name":"account","type":"address","internalType":"address"}],"outputs":[{"name":"","type":"uint256","internalType":"uint256"}],"stateMutability":"view"},{"type":"function","name":"burnRouter","inputs":[],"outputs":[{"name":"","type":"address","internalType":"contract IProofScoreBurnRouterToken"}],"stateMutability":"view"},{"type":"function","name":"canTransfer","inputs":[{"name":"from","type":"address","internalType":"address"},{"name":"to","type":"address","internalType":"address"},{"name":"amount","type":"uint256","internalType":"uint256"}],"outputs":[{"name":"canDo","type":"bool","internalType":"bool"},{"name":"reason","type":"string","internalType":"string"}],"stateMutability":"view"},{"type":"function","name":"cancelOwnershipTransfer","inputs":[],"outputs":[],"stateMutability":"nonpayable"},{"type":"function","name":"circuitBreaker","inputs":[],"outputs":[{"name":"","type":"bool","internalType":"bool"}],"stateMutability":"view"},{"type":"function","name":"circuitBreakerExpiry","inputs":[],"outputs":[{"name":"","type":"uint256","internalType":"uint256"}],"stateMutability":"view"},{"type":"function","name":"cooldownRemaining","inputs":[{"name":"account","type":"address","internalType":"address"}],"outputs":[{"name":"","type":"uint256","internalType":"uint256"}],"stateMutability":"view"},{"type":"function","name":"dailyResetTime","inputs":[{"name":"","type":"address","internalType":"address"}],"outputs":[{"name":"","type":"uint256","internalType":"uint256"}],"stateMutability":"view"},{"type":"function","name":"dailyTransferLimit","inputs":[],"outputs":[{"name":"","type":"uint256","internalType":"uint256"}],"stateMutability":"view"},{"type":"function","name":"dailyTransferred","inputs":[{"name":"","type":"address","internalType":"address"}],"outputs":[{"name":"","type":"uint256","internalType":"uint256"}],"stateMutability":"view"},{"type":"function","name":"decimals","inputs":[],"outputs":[{"name":"","type":"uint8","internalType":"uint8"}],"stateMutability":"view"},{"type":"function","name":"decreaseAllowance","inputs":[{"name":"spender","type":"address","internalType":"address"},{"name":"subtracted","type":"uint256","internalType":"uint256"}],"outputs":[{"name":"","type":"bool","internalType":"bool"}],"stateMutability":"nonpayable"},{"type":"function","name":"getDailyTransferStats","inputs":[{"name":"user","type":"address","internalType":"address"}],"outputs":[{"name":"transferred","type":"uint256","internalType":"uint256"},{"name":"limit","type":"uint256","internalType":"uint256"},{"name":"remaining","type":"uint256","internalType":"uint256"},{"name":"resetTime","type":"uint256","internalType":"uint256"},{"name":"nextResetTime","type":"uint256","internalType":"uint256"}],"stateMutability":"view"},{"type":"function","name":"getTransferLimitsFor","inputs":[{"name":"account","type":"address","internalType":"address"}],"outputs":[{"name":"maxPerTransfer","type":"uint256","internalType":"uint256"},{"name":"maxWallet","type":"uint256","internalType":"uint256"},{"name":"dailyLimit","type":"uint256","internalType":"uint256"},{"name":"dailyRemaining","type":"uint256","internalType":"uint256"},{"name":"cooldownSecs","type":"uint256","internalType":"uint256"},{"name":"cooldownRemain","type":"uint256","internalType":"uint256"},{"name":"isExempt","type":"bool","internalType":"bool"}],"stateMutability":"view"},{"type":"function","name":"increaseAllowance","inputs":[{"name":"spender","type":"address","internalType":"address"},{"name":"added","type":"uint256","internalType":"uint256"}],"outputs":[{"name":"","type":"bool","internalType":"bool"}],"stateMutability":"nonpayable"},{"type":"function","name":"isBlacklisted","inputs":[{"name":"","type":"address","internalType":"address"}],"outputs":[{"name":"","type":"bool","internalType":"bool"}],"stateMutability":"view"},{"type":"function","name":"isCircuitBreakerActive","inputs":[],"outputs":[{"name":"","type":"bool","internalType":"bool"}],"stateMutability":"view"},{"type":"function","name":"lastTransferTime","inputs":[{"name":"","type":"address","internalType":"address"}],"outputs":[{"name":"","type":"uint256","internalType":"uint256"}],"stateMutability":"view"},{"type":"function","name":"ledger","inputs":[],"outputs":[{"name":"","type":"address","internalType":"contract IProofLedger"}],"stateMutability":"view"},{"type":"function","name":"lockPolicy","inputs":[],"outputs":[],"stateMutability":"nonpayable"},{"type":"function","name":"maxTransferAmount","inputs":[],"outputs":[{"name":"","type":"uint256","internalType":"uint256"}],"stateMutability":"view"},{"type":"function","name":"maxWalletBalance","inputs":[],"outputs":[{"name":"","type":"uint256","internalType":"uint256"}],"stateMutability":"view"},{"type":"function","name":"name","inputs":[],"outputs":[{"name":"","type":"string","internalType":"string"}],"stateMutability":"view"},{"type":"function","name":"nonces","inputs":[{"name":"","type":"address","internalType":"address"}],"outputs":[{"name":"","type":"uint256","internalType":"uint256"}],"stateMutability":"view"},{"type":"function","name":"owner","inputs":[],"outputs":[{"name":"","type":"address","internalType":"address"}],"stateMutability":"view"},{"type":"function","name":"pendingOwner","inputs":[],"outputs":[{"name":"","type":"address","internalType":"address"}],"stateMutability":"view"},{"type":"function","name":"permit","inputs":[{"name":"owner","type":"address","internalType":"address"},{"name":"spender","type":"address","internalType":"address"},{"name":"value","type":"uint256","internalType":"uint256"},{"name":"deadline","type":"uint256","internalType":"uint256"},{"name":"v","type":"uint8","internalType":"uint8"},{"name":"r","type":"bytes32","internalType":"bytes32"},{"name":"s","type":"bytes32","internalType":"bytes32"}],"outputs":[],"stateMutability":"nonpayable"},{"type":"function","name":"policyLocked","inputs":[],"outputs":[{"name":"","type":"bool","internalType":"bool"}],"stateMutability":"view"},{"type":"function","name":"presaleContract","inputs":[],"outputs":[{"name":"","type":"address","internalType":"address"}],"stateMutability":"view"},{"type":"function","name":"previewTransferFees","inputs":[{"name":"from","type":"address","internalType":"address"},{"name":"to","type":"address","internalType":"address"},{"name":"amount","type":"uint256","internalType":"uint256"}],"outputs":[{"name":"burnAmount","type":"uint256","internalType":"uint256"},{"name":"sanctumAmount","type":"uint256","internalType":"uint256"},{"name":"ecosystemAmount","type":"uint256","internalType":"uint256"},{"name":"netReceived","type":"uint256","internalType":"uint256"}],"stateMutability":"view"},{"type":"function","name":"remainingDailyLimit","inputs":[{"name":"account","type":"address","internalType":"address"}],"outputs":[{"name":"","type":"uint256","internalType":"uint256"}],"stateMutability":"view"},{"type":"function","name":"sanctumSink","inputs":[],"outputs":[{"name":"","type":"address","internalType":"address"}],"stateMutability":"view"},{"type":"function","name":"securityHub","inputs":[],"outputs":[{"name":"","type":"address","internalType":"contract ISecurityHub"}],"stateMutability":"view"},{"type":"function","name":"setAntiWhale","inputs":[{"name":"_maxTransfer","type":"uint256","internalType":"uint256"},{"name":"_maxWallet","type":"uint256","internalType":"uint256"},{"name":"_dailyLimit","type":"uint256","internalType":"uint256"},{"name":"_cooldown","type":"uint256","internalType":"uint256"}],"outputs":[],"stateMutability":"nonpayable"},{"type":"function","name":"setBlacklist","inputs":[{"name":"user","type":"address","internalType":"address"},{"name":"status","type":"bool","internalType":"bool"}],"outputs":[],"stateMutability":"nonpayable"},{"type":"function","name":"setBurnRouter","inputs":[{"name":"router","type":"address","internalType":"address"}],"outputs":[],"stateMutability":"nonpayable"},{"type":"function","name":"setCircuitBreaker","inputs":[{"name":"_active","type":"bool","internalType":"bool"},{"name":"_duration","type":"uint256","internalType":"uint256"}],"outputs":[],"stateMutability":"nonpayable"},{"type":"function","name":"setLedger","inputs":[{"name":"_ledger","type":"address","internalType":"address"}],"outputs":[],"stateMutability":"nonpayable"},{"type":"function","name":"setSanctumSink","inputs":[{"name":"_sanctum","type":"address","internalType":"address"}],"outputs":[],"stateMutability":"nonpayable"},{"type":"function","name":"setSecurityHub","inputs":[{"name":"hub","type":"address","internalType":"address"}],"outputs":[],"stateMutability":"nonpayable"},{"type":"function","name":"setSystemExempt","inputs":[{"name":"who","type":"address","internalType":"address"},{"name":"isExempt","type":"bool","internalType":"bool"}],"outputs":[],"stateMutability":"nonpayable"},{"type":"function","name":"setTreasurySink","inputs":[{"name":"sink","type":"address","internalType":"address"}],"outputs":[],"stateMutability":"nonpayable"},{"type":"function","name":"setVaultHub","inputs":[{"name":"hub","type":"address","internalType":"address"}],"outputs":[],"stateMutability":"nonpayable"},{"type":"function","name":"setVaultOnly","inputs":[{"name":"enabled","type":"bool","internalType":"bool"}],"outputs":[],"stateMutability":"nonpayable"},{"type":"function","name":"setWhaleLimitExempt","inputs":[{"name":"addr","type":"address","internalType":"address"},{"name":"exempt","type":"bool","internalType":"bool"}],"outputs":[],"stateMutability":"nonpayable"},{"type":"function","name":"setWhitelist","inputs":[{"name":"addr","type":"address","internalType":"address"},{"name":"status","type":"bool","internalType":"bool"}],"outputs":[],"stateMutability":"nonpayable"},{"type":"function","name":"symbol","inputs":[],"outputs":[{"name":"","type":"string","internalType":"string"}],"stateMutability":"view"},{"type":"function","name":"systemExempt","inputs":[{"name":"","type":"address","internalType":"address"}],"outputs":[{"name":"","type":"bool","internalType":"bool"}],"stateMutability":"view"},{"type":"function","name":"totalSupply","inputs":[],"outputs":[{"name":"","type":"uint256","internalType":"uint256"}],"stateMutability":"view"},{"type":"function","name":"transfer","inputs":[{"name":"to","type":"address","internalType":"address"},{"name":"amount","type":"uint256","internalType":"uint256"}],"outputs":[{"name":"","type":"bool","internalType":"bool"}],"stateMutability":"nonpayable"},{"type":"function","name":"transferCooldown","inputs":[],"outputs":[{"name":"","type":"uint256","internalType":"uint256"}],"stateMutability":"view"},{"type":"function","name":"transferFrom","inputs":[{"name":"from","type":"address","internalType":"address"},{"name":"to","type":"address","internalType":"address"},{"name":"amount","type":"uint256","internalType":"uint256"}],"outputs":[{"name":"","type":"bool","internalType":"bool"}],"stateMutability":"nonpayable"},{"type":"function","name":"transferOwnership","inputs":[{"name":"newOwner","type":"address","internalType":"address"}],"outputs":[],"stateMutability":"nonpayable"},{"type":"function","name":"treasurySink","inputs":[],"outputs":[{"name":"","type":"address","internalType":"address"}],"stateMutability":"view"},{"type":"function","name":"vaultHub","inputs":[],"outputs":[{"name":"","type":"address","internalType":"contract IVaultHub"}],"stateMutability":"view"},{"type":"function","name":"vaultOnly","inputs":[],"outputs":[{"name":"","type":"bool","internalType":"bool"}],"stateMutability":"view"},{"type":"function","name":"whaleLimitExempt","inputs":[{"name":"","type":"address","internalType":"address"}],"outputs":[{"name":"","type":"bool","internalType":"bool"}],"stateMutability":"view"},{"type":"function","name":"whitelisted","inputs":[{"name":"","type":"address","internalType":"address"}],"outputs":[{"name":"","type":"bool","internalType":"bool"}],"stateMutability":"view"},{"type":"event","name":"AntiWhaleSet","inputs":[{"name":"maxTransfer","type":"uint256","indexed":false,"internalType":"uint256"},{"name":"maxWallet","type":"uint256","indexed":false,"internalType":"uint256"},{"name":"dailyLimit","type":"uint256","indexed":false,"internalType":"uint256"},{"name":"cooldown","type":"uint256","indexed":false,"internalType":"uint256"}],"anonymous":false},{"type":"event","name":"Approval","inputs":[{"name":"owner","type":"address","indexed":true,"internalType":"address"},{"name":"spender","type":"address","indexed":true,"internalType":"address"},{"name":"value","type":"uint256","indexed":false,"internalType":"uint256"}],"anonymous":false},{"type":"event","name":"BlacklistSet","inputs":[{"name":"user","type":"address","indexed":true,"internalType":"address"},{"name":"status","type":"bool","indexed":false,"internalType":"bool"},{"name":"setBy","type":"address","indexed":true,"internalType":"address"}],"anonymous":false},{"type":"event","name":"BurnRouterSet","inputs":[{"name":"router","type":"address","indexed":true,"internalType":"address"}],"anonymous":false},{"type":"event","name":"CircuitBreakerSet","inputs":[{"name":"active","type":"bool","indexed":false,"internalType":"bool"},{"name":"expiry","type":"uint256","indexed":false,"internalType":"uint256"}],"anonymous":false},{"type":"event","name":"ExemptSet","inputs":[{"name":"target","type":"address","indexed":true,"internalType":"address"},{"name":"exempt","type":"bool","indexed":false,"internalType":"bool"}],"anonymous":false},{"type":"event","name":"FeeApplied","inputs":[{"name":"from","type":"address","indexed":true,"internalType":"address"},{"name":"to","type":"address","indexed":true,"internalType":"address"},{"name":"burnAmount","type":"uint256","indexed":false,"internalType":"uint256"},{"name":"sanctumAmount","type":"uint256","indexed":false,"internalType":"uint256"},{"name":"ecosystemAmount","type":"uint256","indexed":false,"internalType":"uint256"},{"name":"sanctumSink","type":"address","indexed":true,"internalType":"address"},{"name":"ecosystemSink","type":"address","indexed":false,"internalType":"address"}],"anonymous":false},{"type":"event","name":"LedgerSet","inputs":[{"name":"ledger","type":"address","indexed":true,"internalType":"address"}],"anonymous":false},{"type":"event","name":"OwnershipTransferStarted","inputs":[{"name":"previousOwner","type":"address","indexed":true,"internalType":"address"},{"name":"newOwner","type":"address","indexed":true,"internalType":"address"}],"anonymous":false},{"type":"event","name":"OwnershipTransferred","inputs":[{"name":"previousOwner","type":"address","indexed":true,"internalType":"address"},{"name":"newOwner","type":"address","indexed":true,"internalType":"address"}],"anonymous":false},{"type":"event","name":"PolicyLocked","inputs":[],"anonymous":false},{"type":"event","name":"PresaleContractSet","inputs":[{"name":"presale","type":"address","indexed":true,"internalType":"address"}],"anonymous":false},{"type":"event","name":"SanctumSinkSet","inputs":[{"name":"sink","type":"address","indexed":true,"internalType":"address"}],"anonymous":false},{"type":"event","name":"SecurityHubSet","inputs":[{"name":"hub","type":"address","indexed":true,"internalType":"address"}],"anonymous":false},{"type":"event","name":"SystemExemptSet","inputs":[{"name":"who","type":"address","indexed":true,"internalType":"address"},{"name":"isExempt","type":"bool","indexed":false,"internalType":"bool"}],"anonymous":false},{"type":"event","name":"Transfer","inputs":[{"name":"from","type":"address","indexed":true,"internalType":"address"},{"name":"to","type":"address","indexed":true,"internalType":"address"},{"name":"value","type":"uint256","indexed":false,"internalType":"uint256"}],"anonymous":false},{"type":"event","name":"TreasurySinkSet","inputs":[{"name":"sink","type":"address","indexed":true,"internalType":"address"}],"anonymous":false},{"type":"event","name":"VaultHubSet","inputs":[{"name":"hub","type":"address","indexed":true,"internalType":"address"}],"anonymous":false},{"type":"event","name":"VaultOnlySet","inputs":[{"name":"enabled","type":"bool","indexed":false,"internalType":"bool"}],"anonymous":false},{"type":"event","name":"WhaleLimitExemptSet","inputs":[{"name":"addr","type":"address","indexed":true,"internalType":"address"},{"name":"exempt","type":"bool","indexed":false,"internalType":"bool"}],"anonymous":false},{"type":"event","name":"Whitelisted","inputs":[{"name":"addr","type":"address","indexed":true,"internalType":"address"},{"name":"status","type":"bool","indexed":false,"internalType":"bool"}],"anonymous":false},{"type":"error","name":"Token_NotVault","inputs":[]},{"type":"error","name":"VF_CAP","inputs":[]},{"type":"error","name":"VF_DailyLimitExceeded","inputs":[]},{"type":"error","name":"VF_LOCKED","inputs":[]},{"type":"error","name":"VF_MaxTransferExceeded","inputs":[]},{"type":"error","name":"VF_MaxWalletExceeded","inputs":[]},{"type":"error","name":"VF_POLICY_LOCKED","inputs":[]},{"type":"error","name":"VF_TransferCooldown","inputs":[]},{"type":"error","name":"VF_ZERO","inputs":[]}],"bytecode":{"object":"0x608080604052346105795760c0816141c4803803809161001f82856106b0565b83398101031261057957610032816106e7565b9061003f602082016106e7565b61004b604083016106e7565b610057606084016106e7565b61006f60a0610068608087016106e7565b95016106e7565b5f80546001600160a01b0319163390811782556040519792917f8be0079c531659141344cd1fd0a4f28419497f9722a3daafe3b4186f6b6457e08180a360016002556a01a784379d99db420000006003556a034f086f3b33b6840000006004556a0422ca8b0a00a4250000006005555f60068190556011805462ffffff60a01b1916600160a01b1790556012556001600160a01b0382169081156106a1576001600160a01b0386169485156106a1576001600160a01b03169788156106a157833b1561066a5750853b1561063157610438966103a2946001600160a01b0316806105f5575b506001600160a01b0316806105b9575b506001600160a01b03168061057d575b508360018060a01b03196015541617601555835f52601360205260405f20600160ff19825416179055837f44f2eda14b8ba74d08291fccb7fe6e96b0188538fb528966e0d02a84713f290d6020604051837f7188527286b7c8f39703bf108a472dc431dec1ab5e61b363c3ebb1f35ef67af15f80a260018152a2805f52600a60205260405f20600160ff19825416179055835f52600a60205260405f20600160ff19825416179055865f52600a60205260405f20600160ff198254161790556040516102416040826106b0565b600b81526a2b2324a222902a37b5b2b760a91b602090910152604080517f4ce082c216934f45765aa52f1d82612cdb513a49760946798ca41165309f978c9161028a90826106b0565b600181526020810190603160f81b82525190206040519060208201927f8b73c3c69bb8fe3d512ecc4cf759cc79239f7b179b0ffacaa9a75d522b39400f8452604083015260608201524660808201523060a082015260a081526102ee60c0826106b0565b5190206019556aa56fa5b99019a5c8000000600b55805f52600c6020526a295be96e6406697200000060405f20555f5f5160206141a45f395f51905f5260206040516a295be96e640669720000008152a360405161034d6040826106b0565b601381527f7072656d696e745f6465765f72657365727665000000000000000000000000006020820152604051916103866040846106b0565b600a8352690d4c13481b1bd8dad95960b21b602084015261071f565b805f52600c6020526a295be96e6406697200000060405f20555f5f5160206141a45f395f51905f5260206040516a295be96e640669720000008152a36040516103ec6040826106b0565b600f81526e7072656d696e745f70726573616c6560881b6020820152604051916104176040846106b0565b600f83526e35304d20666f722070726573616c6560881b602084015261071f565b805f52600c6020526a52b7d2dcc80cd2e400000060405f2055805f5f5160206141a45f395f51905f5260206040516a52b7d2dcc80cd2e40000008152a36040516104836040826106b0565b601081526f7072656d696e745f747265617375727960801b6020820152604051916104af6040846106b0565b601383527f3130304d20666f72206f7065726174696f6e730000000000000000000000000060208401526010546001600160a01b0316806104fa575b6040516139e590816107bf8239f35b803b15610579575f92836105359361055860405197889687958694630303c28760e61b865260048601526080602486015260848501906106fb565b6a52b7d2dcc80cd2e40000006044850152838103600319016064850152906106fb565b03925af1610569575b8080806104eb565b5f610573916106b0565b5f610561565b5f80fd5b601680546001600160a01b031916821790557f3f2254a28ba18b54180672b4e5f33b7cbe996e44be5c1ebe9057f49e894cde315f80a25f610174565b601080546001600160a01b031916821790557fbc62e69a31739e36d57d56991ac20e4e507a7edfff9070e6a11df5a37b8b4e6f5f80a25f610164565b600e80546001600160a01b031916821790557fbb3d89b3025a50f5b3f9fc1bfe23194ad7fb05af4e31ab293af4a947960954d55f80a25f610154565b60405162461bcd60e51b81526020600482015260116024820152701c1c995cd85b19480858dbdb9d1c9858dd607a1b6044820152606490fd5b62461bcd60e51b815260206004820152601260248201527119195d95985d5b1d080858dbdb9d1c9858dd60721b6044820152606490fd5b63ebeb59ad60e01b5f5260045ffd5b601f909101601f19168101906001600160401b038211908210176106d357604052565b634e487b7160e01b5f52604160045260245ffd5b51906001600160a01b038216820361057957565b805180835260209291819084018484015e5f828201840152601f01601f1916010190565b6010546001600160a01b031680610737575b50505050565b803b15610579575f928361077a9361079d60405197889687958694630303c28760e61b865260018060a01b031660048601526080602486015260848501906106fb565b6a295be96e640669720000006044850152838103600319016064850152906106fb565b03925af16107ae575b808080610731565b5f6107b8916106b0565b5f6107a656fe6080806040526004361015610012575f80fd5b5f3560e01c90816306e0c52c14611d595750806306fdde0314611d0c5780630741206e14611c71578063095ea7b314611c4b5780630d2d8a3114611c1357806313d1ad0814611b96578063153b0d1e14611b1757806316efd94114611af257806318160ddd14611ad5578063198803b1146119385780631dc4b09c1461188057806322a7caf51461186357806323452b9c1461183957806323b872dd1461179557806330adf81f1461175b57806330e7668414611723578063313ce567146117085780633246887d1461167757806332941ecb1461165357806332cb6b0c1461162e5780633644e5151461161157806339509351146115ca5780633c2f9fe4146113f157806350140c06146113b557806353d6fd59146112bb57806355545fb01461122457806356397c35146111fc5780636336f3ac1461110357806363d9df85146110db57806368f16293146110be5780636c32b2ec146110965780636dd6e80b1461106e57806370a0823114611036578063748ada521461101157806379036e9014610fd957806379ba509714610f325780637adc723d14610ef55780637ecebe0014610ebd5780638bea4f2d14610e955780638da5cb5b14610e6e57806395d89b4114610e2757806399e793a014610a2c5780639a03f22414610da85780639d82190f14610d855780639dac064114610d42578063a34857cd14610c86578063a457c2d714610bed578063a9059cbb14610baf578063a9e7572314610b92578063b55e3f3a14610a93578063b692749714610a76578063b72d294314610a4e578063bbde77c114610a31578063bd94fafc14610a2c578063beeeb4ce14610a04578063c4b740f51461090a578063d505accf146106b7578063d6b547351461067a578063d936547e1461063d578063dd62ed3e146105ed578063e30c3978146105c5578063e46638e61461058b578063f2fde38b146104e5578063f497e873146104ba578063f714af6f1461049d578063fa0377661461033e5763fe575a87146102fd575f80fd5b3461033a57602036600319011261033a576001600160a01b0361031e611dd5565b165f526018602052602060ff60405f2054166040519015158152f35b5f80fd5b3461033a57604036600319011261033a57610357611e10565b6024356103626128aa565b81156104865780151580610479575b1561043d576011805460ff60b01b1916600160b01b1790556103939042611ebd565b6012555b7f04593f08e7dc4a4b3442a0009dff46944620bf6c71bde4a1fa3724b7d6bfe09e604060125481519084151582526020820152a115610407576104056040516103e1604082611d7b565b601281527131b4b931bab4ba2fb13932b0b5b2b92fb7b760711b60208201526128f3565b005b610405604051610418604082611d7b565b601381527231b4b931bab4ba2fb13932b0b5b2b92fb7b33360691b60208201526128f3565b60405162461bcd60e51b81526020600482015260146024820152732b231d1034b73b30b634b210323ab930ba34b7b760611b6044820152606490fd5b5062093a80811115610371565b506011805460ff60b01b191690555f601255610397565b3461033a575f36600319011261033a576020600554604051908152f35b3461033a57602036600319011261033a5760206104dd6104d8611dd5565b612840565b604051908152f35b3461033a57602036600319011261033a576104fe611dd5565b6105066128aa565b6001600160a01b0316801561055a57600180546001600160a01b031916821790555f80546001600160a01b0316907f38d16b8cac22d99fc7c124b9cd0de2d3fa1faef420bfe791d8c362d765e227009080a3005b60405162461bcd60e51b81526020600482015260096024820152684f574e3a207a65726f60b81b6044820152606490fd5b3461033a576105a261059c36611e1f565b916121d9565b906105c160405192839215158352604060208401526040830190611db1565b0390f35b3461033a575f36600319011261033a576001546040516001600160a01b039091168152602090f35b3461033a57604036600319011261033a57610606611dd5565b61060e611deb565b6001600160a01b039182165f908152600d60209081526040808320949093168252928352819020549051908152f35b3461033a57602036600319011261033a576001600160a01b0361065e611dd5565b165f526014602052602060ff60405f2054166040519015158152f35b3461033a57602036600319011261033a576001600160a01b0361069b611dd5565b165f526013602052602060ff60405f2054166040519015158152f35b3461033a5760e036600319011261033a576106d0611dd5565b6106d8611deb565b604435906064356084359060ff821680920361033a578042116108c55762278d0042019081421161086c5711610880576001600160a01b0384165f818152601a602052604090208054919291905f19821461086c576020928260809260015f95019055604051858101917f6e71edae12b1b97f4d1f60370fef10105fa2faae0126114a169c64845d6126c9835287604083015260018060a01b0389166060830152898583015260a082015260a0815261079260c082611d7b565b51902060195490604051908682019261190160f01b845260228301526042820152604281526107c2606282611d7b565b519020906040519182528482015260a435604082015260c435606082015282805260015afa15610861575f516001600160a01b0316801515919082610857575b505015610812576104059261295f565b60405162461bcd60e51b815260206004820152601860248201527f56464944453a20696e76616c6964207369676e617475726500000000000000006044820152606490fd5b1490508480610802565b6040513d5f823e3d90fd5b634e487b7160e01b5f52601160045260245ffd5b60405162461bcd60e51b815260206004820152601760248201527f56464944453a20646561646c696e6520746f6f206661720000000000000000006044820152606490fd5b60405162461bcd60e51b815260206004820152601760248201527f56464944453a206578706972656420646561646c696e650000000000000000006044820152606490fd5b3461033a57602036600319011261033a57610923611e10565b61092b6128aa565b60115460ff8160a81c16806109fc575b6109ed5760ff60a01b191681151560a081901b60ff60a01b16919091176011556040519081527fc700a08714659bf8ab2121ea3f1f64e22835cf102ad9ba5d0816e55a23f6ea2c90602090a1156109bc5761040560405161099d604082611d7b565b600d81526c3b30bab63a2fb7b7363cafb7b760991b60208201526128f3565b6104056040516109cd604082611d7b565b600e81526d3b30bab63a2fb7b7363cafb7b33360911b60208201526128f3565b63015c1ff360e51b5f5260045ffd5b50811561093b565b3461033a575f36600319011261033a576017546040516001600160a01b039091168152602090f35b611e59565b3461033a575f36600319011261033a576020600454604051908152f35b3461033a575f36600319011261033a57600f546040516001600160a01b039091168152602090f35b3461033a575f36600319011261033a57602060405162093a808152f35b3461033a57602036600319011261033a57610aac611dd5565b610ab46128aa565b60ff60115460a81c16610b3f575b6001600160a01b0316610ad6811515611e7e565b601780546001600160a01b031916821790557fe99cdf96738a4659f820a0890f65abe82cce94da951e032d7abe61e5687ba2525f80a2610405604051610b1d604082611d7b565b601081526f1cd85b98dd1d5b57dcda5b9ad7dcd95d60821b60208201526128f3565b6001600160a01b038116610ac25760405162461bcd60e51b815260206004820152601f60248201527f56463a2063616e6e6f7420736574207a65726f207768656e206c6f636b6564006044820152606490fd5b3461033a575f36600319011261033a576020600354604051908152f35b3461033a57604036600319011261033a57610bdd610bcb611dd5565b610bd3612a0e565b6024359033612a50565b6001600255602060405160018152f35b3461033a57604036600319011261033a57610c06611dd5565b60243590335f52600d60205260405f2060018060a01b0382165f5260205260405f2054828110610c4f57610c4492610c3d91611eca565b903361295f565b602060405160018152f35b60405162461bcd60e51b815260206004820152600f60248201526e616c6c6f7720756e646572666c6f7760881b6044820152606490fd5b3461033a57602036600319011261033a57610c9f611dd5565b610ca76128aa565b60ff60115460a81c1680610d31575b6109ed57601680546001600160a01b0319166001600160a01b039290921691821790557f3f2254a28ba18b54180672b4e5f33b7cbe996e44be5c1ebe9057f49e894cde315f80a2610405604051610d0e604082611d7b565b60118152701d1c99585cdd5c9e57dcda5b9ad7dcd95d607a1b60208201526128f3565b506001600160a01b03811615610cb6565b3461033a57602036600319011261033a5760a0610d65610d60611dd5565b612129565b926040929192519485526020850152604084015260608301526080820152f35b3461033a57602036600319011261033a5760206104dd610da3611dd5565b6120cd565b3461033a575f36600319011261033a57610dc06128aa565b6011805460ff60a81b1916600160a81b1790557f3ce392d8aa0912d44ce27fbdd025b988ec76fd2b53f0ab8b479ed539069d2b345f80a1610405604051610e08604082611d7b565b600d81526c1c1bdb1a58de57db1bd8dad959609a1b60208201526128f3565b3461033a575f36600319011261033a576105c1604051610e48604082611d7b565b6005815264564649444560d81b6020820152604051918291602083526020830190611db1565b3461033a575f36600319011261033a575f546040516001600160a01b039091168152602090f35b3461033a575f36600319011261033a576016546040516001600160a01b039091168152602090f35b3461033a57602036600319011261033a576001600160a01b03610ede611dd5565b165f52601a602052602060405f2054604051908152f35b3461033a57602036600319011261033a576001600160a01b03610f16611dd5565b165f52600a602052602060ff60405f2054166040519015158152f35b3461033a575f36600319011261033a576001546001600160a01b0381163303610f9b575f543360018060a01b0382167f8be0079c531659141344cd1fd0a4f28419497f9722a3daafe3b4186f6b6457e05f80a36001600160a01b031990811633175f5516600155005b60405162461bcd60e51b815260206004820152601660248201527527aba71d103737ba103832b73234b7339037bbb732b960511b6044820152606490fd5b3461033a57602036600319011261033a576001600160a01b03610ffa611dd5565b165f526007602052602060405f2054604051908152f35b3461033a575f36600319011261033a57602060ff60115460a81c166040519015158152f35b3461033a57602036600319011261033a576001600160a01b03611057611dd5565b165f52600c602052602060405f2054604051908152f35b3461033a575f36600319011261033a57600e546040516001600160a01b039091168152602090f35b3461033a575f36600319011261033a576011546040516001600160a01b039091168152602090f35b3461033a575f36600319011261033a576020600654604051908152f35b3461033a575f36600319011261033a576015546040516001600160a01b039091168152602090f35b3461033a57604036600319011261033a5761040561111f611dd5565b611127611e01565b61112f6128aa565b6001600160a01b038216611144811515611e7e565b805f5260136020526111658260405f209060ff801983541691151516179055565b7f44f2eda14b8ba74d08291fccb7fe6e96b0188538fb528966e0d02a84713f290d60206040518415158152a2156111d2576040516111a4604082611d7b565b600981526832bc32b6b83a2fb7b760b91b60208201525b604051916111ca602084611d7b565b5f835261369d565b6040516111e0604082611d7b565b600a81526932bc32b6b83a2fb7b33360b11b60208201526111bb565b3461033a575f36600319011261033a576010546040516001600160a01b039091168152602090f35b3461033a57602036600319011261033a5761123d611dd5565b6112456128aa565b600f80546001600160a01b0319166001600160a01b039290921691821790557fd15414d216acba4fd6e41103922663a24e3ac895d383ad66e7be0c48115d5b1e5f80a2610405604051611299604082611d7b565b601081526f1cd958dd5c9a5d1e57da1d5897dcd95d60821b60208201526128f3565b3461033a57604036600319011261033a576104056112d7611dd5565b6112df611e01565b6112e76128aa565b6001600160a01b0382166112fc811515611e7e565b805f52601460205261131d8260405f209060ff801983541691151516179055565b7fa54714518c5d275fdcd3d2a461e4858e4e8cb04fb93cd0bca9d6d34115f2644060206040518415158152a2156113855760405161135c604082611d7b565b600d81526c1dda1a5d195b1a5cdd17d85919609a1b6020820152604051916111ca602084611d7b565b604051611393604082611d7b565b601081526f77686974656c6973745f72656d6f766560801b60208201526111bb565b3461033a576105c16113cf6113c936611e1f565b91611f9b565b6040805194855260208501939093529183015260608201529081906080820190565b3461033a57608036600319011261033a576064356024356004356044356114166128aa565b81611588575b82611546575b80611504575b836114bf575b7fdd527915e4785ab4e44c56581b4895b2cf4ce1414470508ea4a3d00623fba914936114879183600355846004558060055581600655604051948594859094939260609260808301968352602083015260408201520152565b0390a161040560405161149b604082611d7b565b6012815271185b9d1a57ddda185b1957dd5c19185d195960721b60208201526128f3565b610e1084111561142e5760405162461bcd60e51b815260206004820152601360248201527236b0bc1018903437bab91031b7b7b63237bbb760691b6044820152606490fd5b6969e10de76676d08000008110156114285760405162461bcd60e51b81526020600482015260086024820152676d696e203530306b60c01b6044820152606490fd5b692a5a058fc295ed0000008310156114225760405162461bcd60e51b81526020600482015260086024820152676d696e203230306b60c01b6044820152606490fd5b69152d02c7e14af680000082101561141c5760405162461bcd60e51b81526020600482015260086024820152676d696e203130306b60c01b6044820152606490fd5b3461033a57604036600319011261033a57610c446115e6611dd5565b335f52600d60205260405f2060018060a01b0382165f52602052610c3d60405f206024359054611ebd565b3461033a575f36600319011261033a576020601954604051908152f35b3461033a575f36600319011261033a5760206040516aa56fa5b99019a5c80000008152f35b3461033a575f36600319011261033a57602061166d611f10565b6040519015158152f35b3461033a57602036600319011261033a57611690611dd5565b6116986128aa565b601080546001600160a01b0319166001600160a01b039290921691821790557fbc62e69a31739e36d57d56991ac20e4e507a7edfff9070e6a11df5a37b8b4e6f5f80a26104056040516116ec604082611d7b565b600a8152691b195919d95c97dcd95d60b21b60208201526128f3565b3461033a575f36600319011261033a57602060405160128152f35b3461033a57602036600319011261033a576001600160a01b03611744611dd5565b165f526008602052602060405f2054604051908152f35b3461033a575f36600319011261033a5760206040517f6e71edae12b1b97f4d1f60370fef10105fa2faae0126114a169c64845d6126c98152f35b3461033a576117a336611e1f565b906117ac612a0e565b335f5260186020526117c560ff60405f20541615611ed7565b6001600160a01b0383165f908152600d602090815260408083203384529091529020549282841061180c5761180761180084610bdd96611eca565b338361295f565b612a50565b60405162461bcd60e51b8152602060048201526005602482015264616c6c6f7760d81b6044820152606490fd5b3461033a575f36600319011261033a576118516128aa565b600180546001600160a01b0319169055005b3461033a575f36600319011261033a576020601254604051908152f35b3461033a57602036600319011261033a57611899611dd5565b6118a16128aa565b6011549060ff8260a81c1680611927575b6109ed576001600160a01b03166001600160a01b03199190911681176011557faf9b9a8ca16be293d721c9b992abdb79c8c7a18ed68c393cc10deeaf4b2f99775f80a2610405604051611906604082611d7b565b600f81526e189d5c9b97dc9bdd5d195c97dcd95d608a1b60208201526128f3565b506001600160a01b038116156118b2565b3461033a57602036600319011261033a57611951611dd5565b6001600160a01b03165f818152600a602052604090205460ff168015611abf575b80156119ad5760e091505f19905f808380805b604051968752602087015260408601526060850152608084015260a0830152151560c0820152f35b6003548015611ab7575b6004549091908015611aaf575b600554938415801590611aa857855b9015611a9c57815f52600860205260405f20549562015180870180971161086c5760e0964210611a6357905b6006549283151580611a4e575b15611a46575f526009602052611a268360405f2054611ebd565b428111611a3657505f5b93611985565b611a41904290611eca565b611a30565b505f93611985565b50805f52600960205260405f20541515611a0c565b5f838152600760205260409020548111611a7f57505f906119ff565b611a9690835f52600760205260405f205490611eca565b906119ff565b60e095505f19906119ff565b5f196119d3565b505f196119c4565b505f196119b7565b50805f52601360205260ff60405f205416611972565b3461033a575f36600319011261033a576020600b54604051908152f35b3461033a575f36600319011261033a57602060ff60115460b01c166040519015158152f35b3461033a57604036600319011261033a57611b30611dd5565b611b38611e01565b90611b416128aa565b6001600160a01b03165f818152601860205260409020805460ff191660ff8415151617905560405191151582527f4edd9bb92fa41bc25fb64fc24645bea26691eff97f54d2db5362a3f986c188e960203393a3005b3461033a57604036600319011261033a57611baf611dd5565b7fe355751d29baf3bbcbfb4f9db660bfdf038ac8076722a3cb9ed1807250c1f7b06020611bda611e01565b92611be36128aa565b6001600160a01b03165f818152600a835260409020805460ff191660ff86151516179055926040519015158152a2005b3461033a57602036600319011261033a576001600160a01b03611c34611dd5565b165f526009602052602060405f2054604051908152f35b3461033a57604036600319011261033a57610c44611c67611dd5565b602435903361295f565b3461033a57602036600319011261033a57611c8a611dd5565b611c926128aa565b6001600160a01b0316611ca6811515611e7e565b600e80546001600160a01b031916821790557fbb3d89b3025a50f5b3f9fc1bfe23194ad7fb05af4e31ab293af4a947960954d55f80a2610405604051611ced604082611d7b565b600d81526c1d985d5b1d17da1d5897dcd95d609a1b60208201526128f3565b3461033a575f36600319011261033a576105c1604051611d2d604082611d7b565b600b81526a2b2324a222902a37b5b2b760a91b6020820152604051918291602083526020830190611db1565b3461033a575f36600319011261033a5760209060ff60115460a01c1615158152f35b90601f8019910116810190811067ffffffffffffffff821117611d9d57604052565b634e487b7160e01b5f52604160045260245ffd5b805180835260209291819084018484015e5f828201840152601f01601f1916010190565b600435906001600160a01b038216820361033a57565b602435906001600160a01b038216820361033a57565b60243590811515820361033a57565b60043590811515820361033a57565b606090600319011261033a576004356001600160a01b038116810361033a57906024356001600160a01b038116810361033a579060443590565b3461033a575f36600319011261033a5760206040516a295be96e640669720000008152f35b15611e8557565b60405162461bcd60e51b815260206004820152601060248201526f56463a207a65726f206164647265737360801b6044820152606490fd5b9190820180921161086c57565b9190820391821161086c57565b15611ede57565b60405162461bcd60e51b815260206004820152600a60248201526914d85b98dd1a5bdb995960b21b6044820152606490fd5b60ff60115460b01c1615611f35576012548015159081611f39575b50611f3557600190565b5f90565b90504210155f611f2b565b51906001600160a01b038216820361033a57565b91908260c091031261033a57815191602081015191604082015191611f7f60608201611f44565b91611f9860a0611f9160808501611f44565b9301611f44565b90565b9092919260018060a01b0382165f5260136020528360ff60405f20541680156120a9575b8015612096575b8015612088575b61207c5760115460405163252f15f560e01b81526001600160a01b03948516600482015292841660248401526044830191909152909160c09183916064918391165afa918215610861575f925f925f9161203d575b5080612038611f98929461203881978099611eca565b611eca565b9050611f98935061206791925060c03d60c011612075575b61205f8183611d7b565b810190611f58565b505050929193909290612022565b503d612055565b5050505f915f915f9190565b50612091611f10565b611fcd565b506011546001600160a01b031615611fc6565b50506001600160a01b0381165f90815260136020526040902054849060ff16611fbf565b600654908115612123576001600160a01b03165f81815260096020526040902054909190156121235761210b915f52600960205260405f2054611ebd565b8042101561211e57611f98904290611eca565b505f90565b50505f90565b6001600160a01b03165f818152600a602052604090205460ff1680156121c3575b6121b55760055490805f52600860205260405f20546201518081019182821161086c5742831161218d575050505f918190429062015180420180421161086c5790565b5f9081526007602052604090205493918385106121a8575f92565b6121b28585611eca565b92565b505f905f1990819083908190565b50805f52601360205260ff60405f20541661214a565b6001600160a01b0381165f818152601860205260409020549293919260ff1661280a576001600160a01b0384165f8181526018602052604090205490929060ff166127d057815f52600c6020528060405f20541061279757815f52600a60205260ff60405f2054161580612780575b80612769575b80612752575b80612749575b80612740575b61254e575b5060ff60115460a01c168061253a575b61239b575b5050600f546001600160a01b031615158061238c575b6122ae575b50506001906040516122a8602082611d7b565b5f815290565b6122ba6122c091613862565b91613862565b906001600160a01b0381161515908161237c575b50612345576001600160a01b03811615159081612335575b506122f8575f80612295565b5f90604051612308604082611d7b565b601981527f526563697069656e74207661756c74206973206c6f636b656400000000000000602082015290565b61233f91506138e4565b5f6122ec565b505f90604051612356604082611d7b565b601681527514d95b99195c881d985d5b1d081a5cc81b1bd8dad95960521b602082015290565b61238691506138e4565b5f6122d4565b50612395611f10565b15612290565b8015908115612522575b811561250b575b5080156124fc575b80156124ed575b81159182156124d8575b82156124c3575b82156124ab575b8215612493575b508115612482575b8115612471575b1561243957156123fa575f8061227a565b50505f9060405161240c604082611d7b565b601881527f526563697069656e74206d75737420757365207661756c740000000000000000602082015290565b5050505f9060405161244c604082611d7b565b601581527414d95b99195c881b5d5cdd081d5cd9481d985d5b1d605a1b602082015290565b905061247c836137c9565b906123e9565b905061248d83613749565b906123e2565b5f9081526014602052604081205460ff1692506123da565b8092505f52601360205260ff60405f205416916123d3565b6017546001600160a01b0316811492506123cc565b6016546001600160a01b0316811492506123c5565b506124f7826137c9565b6123bb565b5061250682613749565b6123b4565b90505f52601460205260ff60405f2054165f6123ac565b8091505f52601360205260ff60405f205416906123a5565b50600e546001600160a01b03161515612275565b6003548015159081612736575b506126f45760045480151590816126d5575b50612693576005549081612607575b5050600654801515806125f2575b15612265576125a590825f52600960205260405f2054611ebd565b42106125b1575f612265565b505050505f906040516125c5604082611d7b565b601881527f5472616e7366657220636f6f6c646f776e206163746976650000000000000000602082015290565b50815f52600960205260405f2054151561258a565b825f52600760205260405f205490835f52600860205260405f205462015180810180911161086c57421061263c575b5061257c565b61264591611ebd565b11612652575f8080612636565b505050505f90604051612666604082611d7b565b601c81527f45786365656473206461696c79207472616e73666572206c696d697400000000602082015290565b50505050505f906040516126a8604082611d7b565b601a81527f45786365656473206d61782077616c6c65742062616c616e6365000000000000602082015290565b9050835f52600c6020526126ed8260405f2054611ebd565b115f61256d565b50505050505f90604051612709604082611d7b565b601b81527f45786365656473206d6178207472616e7366657220616d6f756e740000000000602082015290565b905081115f61255b565b50821515612260565b5081151561225a565b50825f52601360205260ff60405f20541615612254565b50815f52601360205260ff60405f2054161561224e565b50825f52600a60205260ff60405f20541615612248565b50505050505f906040516127ac604082611d7b565b6014815273496e73756666696369656e742062616c616e636560601b602082015290565b50505050505f906040516127e5604082611d7b565b6015815274149958da5c1a595b9d08189b1858dadb1a5cdd1959605a1b602082015290565b505050505f9060405161281e604082611d7b565b601281527114d95b99195c88189b1858dadb1a5cdd195960721b602082015290565b6005549081156128a35760018060a01b031690815f52600860205260405f205462015180810180911161086c5742101561289e57815f5260076020528060405f2054101561212357611f98915f52600760205260405f205490611eca565b905090565b50505f1990565b5f546001600160a01b031633036128bd57565b60405162461bcd60e51b815260206004820152600e60248201526d27aba71d103737ba1037bbb732b960911b6044820152606490fd5b6010546001600160a01b031680612908575050565b803b1561033a57604051633ddd61ab60e21b815230600482015260606024820152915f918391829084908290612942906064830190611db1565b33604483015203925af16129535750565b5f61295d91611d7b565b565b6001600160a01b031690811515806129fc575b156129cb5760207f8c5be1e5ebec7d5bd14f71427d1e84f3dd0314c0f7b2291e5b200ac8c7c3b92591835f52600d825260405f2060018060a01b0382165f5282528460405f205560405194855260018060a01b031693a3565b60405162461bcd60e51b81526020600482015260096024820152680617070726f766520360bc1b6044820152606490fd5b506001600160a01b0381161515612972565b600160025403612a1e5760028055565b60405162461bcd60e51b815260206004820152600a6024820152697265656e7472616e637960b01b6044820152606490fd5b915f9260018060a01b03811692835f52601860205260ff60405f205416158061367b575b612a7d90611ed7565b835f52600a60205260ff60405f2054161580613659575b80613642575b80613620575b80613617575b80613605575b613496575b60ff60115460a01c1680613482575b613201575b831580156131f0575b6131e15782156131b757600f545f9081906001600160a01b031615158061319b575b8061318c575b613119575b5050835f52600c60205260405f20548381106130ea578390855f52600c6020520360405f2055828092601154908660018060a01b038316928315908115806130db575b8061309c575b1561302c57505060405163252f15f560e01b81526001600160a01b039283166004820152918516602483015250604481019290925260c090829060649082905afa908115610861575f915f905f905f905f945f91613002575b5085159081159081612f23575b5084151580612e96575b8415159182612df0575b92612de8575b508115612de0575b50612d3e575b50506011546001600160a01b031692505050803b15612d1b579085808087946024604051809481936329a7724f60e21b83528b60048401525af1612d1f575b505060205f5160206139905f395f51905f52915b60018060a01b031693848852600c825260408820612c44828254611ebd565b9055604051908152a3604051612c5b604082611d7b565b60088152673a3930b739b332b960c11b602082015260405192612c7f602085611d7b565b8484526010546001600160a01b03169283612c9d575b505050505050565b833b15612d1b579185809492612cf1612cda9560405198899788968795630303c28760e61b87526004870152608060248701526084860190611db1565b916044850152600319848303016064850152611db1565b03925af1612d03575b80808080612c95565b612d0e828092611d7b565b612d185780612cfa565b80fd5b8580fd5b8192935090612d2d91611d7b565b612d3a578390855f612c11565b8480fd5b6001600160a01b038116612dda57506016546001600160a01b0316925b6001600160a01b038116612dd457506016546001600160a01b0316915b6040805195865260208601919091528401526001600160a01b039081166060840152908116919083169086907f83f1070d5154c1ec6e9f656f98b1b6761035814eeba41c9ace66fd53f501e35c90608090a45f80808080612bd2565b91612d78565b92612d5b565b90505f612bcc565b91505f612bc4565b996001600160a01b038816612e90576016546001600160a01b03165b6001600160a01b03168015612e5e57612e58918f918f604084838c9652600c60205220612e3a858254611ebd565b90555f5160206139905f395f51905f526020604051868152a3611eca565b99612bbe565b60405162461bcd60e51b815260206004820152600a602482015269065636f2073696e6b3d360b41b6044820152606490fd5b87612e0c565b986001600160a01b038416612f1d576016546001600160a01b03165b6001600160a01b03168015612ee757612ee191818f8f90808b9560409252600c60205220612e3a858254611ebd565b98612bb4565b60405162461bcd60e51b815260206004820152600e60248201526d073616e6374756d2073696e6b3d360941b6044820152606490fd5b83612eb2565b9098506001600160a01b038116612ffd57505f5b6001600160a01b031680612fc75750612f5286600b54611eca565b600b555f8a5f5160206139905f395f51905f5260206040518a8152a35b612f79868a611eca565b6011549098906001600160a01b0316803b1561033a575f8091602460405180948193631bc9354160e21b83528d60048401525af115612baa57612fbf919c505f90611d7b565b5f9a5f612baa565b805f52600c60205260405f20612fde888254611ebd565b90558a5f5160206139905f395f51905f5260206040518a8152a3612f6f565b612f37565b945050505050613021915060c03d60c0116120755761205f8183611d7b565b93929190935f612b9d565b91959450925060ff915060a81c16613056575b5060205f5160206139905f395f51905f5291612c25565b9091506130655783905f61303f565b60405162461bcd60e51b815260206004820152600f60248201526e1c9bdd5d195c881c995c5d5a5c9959608a1b6044820152606490fd5b50825f52601360205260ff60405f20541680156130ba575b15612b44565b506001600160a01b0387165f9081526013602052604090205460ff166130b4565b506130e4611f10565b15612b3e565b60405162461bcd60e51b815260206004820152600760248201526662616c616e636560c81b6044820152606490fd5b6001600160a01b0382161515918261317a575b50811561314f575b50613140575f80612afb565b63b8e516c360e01b5f5260045ffd5b6001600160a01b038116151591508161316a575b505f613134565b61317491506138e4565b5f613163565b6131859192506138e4565b905f61312c565b50613195611f10565b15612af6565b9150506131a783613862565b906131b183613862565b90612af0565b6040515f81526001600160a01b0390911694505f5160206139905f395f51905f52925060209150a3565b63ebeb59ad60e01b5f5260045ffd5b506001600160a01b03811615612ace565b803b1580613470575b8061344e575b8061342c575b613351575b8315801561333b575b8015613325575b8015613316575b8015613307575b6001600160a01b0382168015919082156132f2575b82156132dd575b82156132c5575b82156132ad575b50811561329c575b811561328b575b1561327c57612ac5575b63cd0d8b2160e01b5f5260045ffd5b9050613296826137c9565b90613272565b90506132a782613749565b9061326b565b5f9081526014602052604081205460ff169250613263565b8092505f52601360205260ff60405f2054169161325c565b6017546001600160a01b031681149250613255565b6016546001600160a01b03168114925061324e565b50613311826137c9565b613239565b5061332082613749565b613232565b50835f52601460205260ff60405f20541661322b565b50835f52601360205260ff60405f205416613224565b61335a816137c9565b61321b57600e5460405163e01fd21560e01b81526001600160a01b0383811660048301529091602091839160249183915f91165af15f91816133f0575b506133ab5763cd0d8b2160e01b5f5260045ffd5b6133eb906040516133bd604082611d7b565b60128152711d985d5b1d17d85d5d1bd7d8dc99585d195960721b6020820152604051916111ca602084611d7b565b61321b565b9091506020813d602011613424575b8161340c60209383611d7b565b8101031261033a5761341d90611f44565b905f613397565b3d91506133ff565b506001600160a01b0381165f9081526014602052604090205460ff1615613216565b506001600160a01b0381165f9081526013602052604090205460ff1615613210565b506001600160a01b038116151561320a565b50600e546001600160a01b03161515612ac0565b60035480151590816135fb575b506135ec57600454806135b4575b50600554613526575b600654806134c9575b50612ab1565b845f52600960205260405f205415159081613507575b506134f857835f5260096020524260405f20555f6134c3565b6301249b7160e01b5f5260045ffd5b61351e9150855f52600960205260405f2054611ebd565b42105f6134df565b835f52600860205260405f205462015180810180911161086c57421015613593575b835f52600760205261355e8360405f2054611ebd565b6005541061358457835f52600760205260405f2061357d848254611ebd565b90556134ba565b639ad5c1c760e01b5f5260045ffd5b835f5260076020525f6040812055835f5260086020524260405f2055613548565b60018060a01b0382165f52600c6020526135d28460405f2054611ebd565b116135dd575f6134b1565b63f5cec06760e01b5f5260045ffd5b631ae2df0760e01b5f5260045ffd5b905083115f6134a3565b506001600160a01b0381161515612aac565b50831515612aa6565b506001600160a01b0381165f9081526013602052604090205460ff1615612aa0565b50835f52601360205260ff60405f20541615612a9a565b506001600160a01b0381165f908152600a602052604090205460ff1615612a94565b506001600160a01b0381165f9081526018602052604090205460ff1615612a74565b6010546001600160a01b0316806136b5575b50505050565b803b1561033a575f92836136f89361371060405197889687958694630303c28760e61b865260018060a01b03166004860152608060248601526084850190611db1565b90846044850152600319848303016064850152611db1565b03925af1613721575b8080806136af565b5f61372b91611d7b565b5f613719565b9081602091031261033a5751801515810361033a5790565b600e546001600160a01b03169081156121235760405163652b9b4160e01b81526001600160a01b03909116600482015290602090829060249082905afa5f9181613798575b50611f9857505f90565b6137bb91925060203d6020116137c2575b6137b38183611d7b565b810190613731565b905f61378e565b503d6137a9565b600e546001600160a01b031690811561212357604051630709df4560e01b81526001600160a01b03909116600482015290602090829060249082905afa5f9181613826575b5061381857505f90565b6001600160a01b0316151590565b9091506020813d60201161385a575b8161384260209383611d7b565b8101031261033a5761385390611f44565b905f61380e565b3d9150613835565b600e546001600160a01b031690811561212357604051630709df4560e01b81526001600160a01b03909116600482015290602090829060249082905afa908115610861575f916138b0575090565b90506020813d6020116138dc575b816138cb60209383611d7b565b8101031261033a57611f9890611f44565b3d91506138be565b600f54604051631293efbb60e21b602082019081526001600160a01b0393841660248084019190915282525f9384931691613920604482611d7b565b51915afa3d15613987573d9067ffffffffffffffff8211611d9d5760405191613953601f8201601f191660200184611d7b565b82523d5f602084013e5b15801561397c575b61211e5780602080611f9893518301019101613731565b506020815110613965565b60609061395d56feddf252ad1be2c89b69c2b068fc378daa952ba7f163c4a11628f55a4df523b3efa2646970667358221220ac314f91f0331a01df098b18bb2f60c0bc093c5ed5c6cfc26ba9c6f43ffa944d64736f6c634300081e0033ddf252ad1be2c89b69c2b068fc378daa952ba7f163c4a11628f55a4df523b3ef","linkReferences":{}},"methodIdentifiers":{"DEV_RESERVE_SUPPLY()":"99e793a0","DOMAIN_SEPARATOR()":"3644e515","MAX_CIRCUIT_BREAKER_DURATION()":"b6927497","MAX_SUPPLY()":"32cb6b0c","PERMIT_TYPEHASH()":"30adf81f","PRESALE_CAP()":"bd94fafc","acceptOwnership()":"79ba5097","allowance(address,address)":"dd62ed3e","approve(address,uint256)":"095ea7b3","balanceOf(address)":"70a08231","burnRouter()":"6c32b2ec","canTransfer(address,address,uint256)":"e46638e6","cancelOwnershipTransfer()":"23452b9c","circuitBreaker()":"16efd941","circuitBreakerExpiry()":"22a7caf5","cooldownRemaining(address)":"9d82190f","dailyResetTime(address)":"30e76684","dailyTransferLimit()":"f714af6f","dailyTransferred(address)":"79036e90","decimals()":"313ce567","decreaseAllowance(address,uint256)":"a457c2d7","getDailyTransferStats(address)":"9dac0641","getTransferLimitsFor(address)":"198803b1","increaseAllowance(address,uint256)":"39509351","isBlacklisted(address)":"fe575a87","isCircuitBreakerActive()":"32941ecb","lastTransferTime(address)":"0d2d8a31","ledger()":"56397c35","lockPolicy()":"9a03f224","maxTransferAmount()":"a9e75723","maxWalletBalance()":"bbde77c1","name()":"06fdde03","nonces(address)":"7ecebe00","owner()":"8da5cb5b","pendingOwner()":"e30c3978","permit(address,address,uint256,uint256,uint8,bytes32,bytes32)":"d505accf","policyLocked()":"748ada52","presaleContract()":"63d9df85","previewTransferFees(address,address,uint256)":"50140c06","remainingDailyLimit(address)":"f497e873","sanctumSink()":"beeeb4ce","securityHub()":"b72d2943","setAntiWhale(uint256,uint256,uint256,uint256)":"3c2f9fe4","setBlacklist(address,bool)":"153b0d1e","setBurnRouter(address)":"1dc4b09c","setCircuitBreaker(bool,uint256)":"fa037766","setLedger(address)":"3246887d","setSanctumSink(address)":"b55e3f3a","setSecurityHub(address)":"55545fb0","setSystemExempt(address,bool)":"6336f3ac","setTreasurySink(address)":"a34857cd","setVaultHub(address)":"0741206e","setVaultOnly(bool)":"c4b740f5","setWhaleLimitExempt(address,bool)":"13d1ad08","setWhitelist(address,bool)":"53d6fd59","symbol()":"95d89b41","systemExempt(address)":"d6b54735","totalSupply()":"18160ddd","transfer(address,uint256)":"a9059cbb","transferCooldown()":"68f16293","transferFrom(address,address,uint256)":"23b872dd","transferOwnership(address)":"f2fde38b","treasurySink()":"8bea4f2d","vaultHub()":"6dd6e80b","vaultOnly()":"06e0c52c","whaleLimitExempt(address)":"7adc723d","whitelisted(address)":"d936547e"},"id":35}