{"abi":[{"type":"constructor","inputs":[{"name":"devReserveVestingVault","type":"address","internalType":"address"},{"name":"_presaleContract","type":"address","internalType":"address"},{"name":"treasury","type":"address","internalType":"address"},{"name":"_vaultHub","type":"address","internalType":"address"},{"name":"_ledger","type":"address","internalType":"address"},{"name":"_treasurySink","type":"address","internalType":"address"}],"stateMutability":"nonpayable"},{"type":"function","name":"DEV_RESERVE_SUPPLY","inputs":[],"outputs":[{"name":"","type":"uint256","internalType":"uint256"}],"stateMutability":"view"},{"type":"function","name":"DOMAIN_SEPARATOR","inputs":[],"outputs":[{"name":"","type":"bytes32","internalType":"bytes32"}],"stateMutability":"view"},{"type":"function","name":"MAX_CIRCUIT_BREAKER_DURATION","inputs":[],"outputs":[{"name":"","type":"uint256","internalType":"uint256"}],"stateMutability":"view"},{"type":"function","name":"MAX_SUPPLY","inputs":[],"outputs":[{"name":"","type":"uint256","internalType":"uint256"}],"stateMutability":"view"},{"type":"function","name":"PERMIT_TYPEHASH","inputs":[],"outputs":[{"name":"","type":"bytes32","internalType":"bytes32"}],"stateMutability":"view"},{"type":"function","name":"PRESALE_CAP","inputs":[],"outputs":[{"name":"","type":"uint256","internalType":"uint256"}],"stateMutability":"view"},{"type":"function","name":"acceptOwnership","inputs":[],"outputs":[],"stateMutability":"nonpayable"},{"type":"function","name":"allowance","inputs":[{"name":"owner_","type":"address","internalType":"address"},{"name":"spender","type":"address","internalType":"address"}],"outputs":[{"name":"","type":"uint256","internalType":"uint256"}],"stateMutability":"view"},{"type":"function","name":"approve","inputs":[{"name":"spender","type":"address","internalType":"address"},{"name":"amount","type":"uint256","internalType":"uint256"}],"outputs":[{"name":"","type":"bool","internalType":"bool"}],"stateMutability":"nonpayable"},{"type":"function","name":"balanceOf","inputs":[{"name":"account","type":"address","internalType":"address"}],"outputs":[{"name":"","type":"uint256","internalType":"uint256"}],"stateMutability":"view"},{"type":"function","name":"burnRouter","inputs":[],"outputs":[{"name":"","type":"address","internalType":"contract IProofScoreBurnRouterToken"}],"stateMutability":"view"},{"type":"function","name":"canTransfer","inputs":[{"name":"from","type":"address","internalType":"address"},{"name":"to","type":"address","internalType":"address"},{"name":"amount","type":"uint256","internalType":"uint256"}],"outputs":[{"name":"canDo","type":"bool","internalType":"bool"},{"name":"reason","type":"string","internalType":"string"}],"stateMutability":"view"},{"type":"function","name":"cancelOwnershipTransfer","inputs":[],"outputs":[],"stateMutability":"nonpayable"},{"type":"function","name":"circuitBreaker","inputs":[],"outputs":[{"name":"","type":"bool","internalType":"bool"}],"stateMutability":"view"},{"type":"function","name":"circuitBreakerExpiry","inputs":[],"outputs":[{"name":"","type":"uint256","internalType":"uint256"}],"stateMutability":"view"},{"type":"function","name":"cooldownRemaining","inputs":[{"name":"account","type":"address","internalType":"address"}],"outputs":[{"name":"","type":"uint256","internalType":"uint256"}],"stateMutability":"view"},{"type":"function","name":"dailyResetTime","inputs":[{"name":"","type":"address","internalType":"address"}],"outputs":[{"name":"","type":"uint256","internalType":"uint256"}],"stateMutability":"view"},{"type":"function","name":"dailyTransferLimit","inputs":[],"outputs":[{"name":"","type":"uint256","internalType":"uint256"}],"stateMutability":"view"},{"type":"function","name":"dailyTransferred","inputs":[{"name":"","type":"address","internalType":"address"}],"outputs":[{"name":"","type":"uint256","internalType":"uint256"}],"stateMutability":"view"},{"type":"function","name":"decimals","inputs":[],"outputs":[{"name":"","type":"uint8","internalType":"uint8"}],"stateMutability":"view"},{"type":"function","name":"decreaseAllowance","inputs":[{"name":"spender","type":"address","internalType":"address"},{"name":"subtracted","type":"uint256","internalType":"uint256"}],"outputs":[{"name":"","type":"bool","internalType":"bool"}],"stateMutability":"nonpayable"},{"type":"function","name":"getDailyTransferStats","inputs":[{"name":"user","type":"address","internalType":"address"}],"outputs":[{"name":"transferred","type":"uint256","internalType":"uint256"},{"name":"limit","type":"uint256","internalType":"uint256"},{"name":"remaining","type":"uint256","internalType":"uint256"},{"name":"resetTime","type":"uint256","internalType":"uint256"},{"name":"nextResetTime","type":"uint256","internalType":"uint256"}],"stateMutability":"view"},{"type":"function","name":"getTransferLimitsFor","inputs":[{"name":"account","type":"address","internalType":"address"}],"outputs":[{"name":"maxPerTransfer","type":"uint256","internalType":"uint256"},{"name":"maxWallet","type":"uint256","internalType":"uint256"},{"name":"dailyLimit","type":"uint256","internalType":"uint256"},{"name":"dailyRemaining","type":"uint256","internalType":"uint256"},{"name":"cooldownSecs","type":"uint256","internalType":"uint256"},{"name":"cooldownRemain","type":"uint256","internalType":"uint256"},{"name":"isExempt","type":"bool","internalType":"bool"}],"stateMutability":"view"},{"type":"function","name":"increaseAllowance","inputs":[{"name":"spender","type":"address","internalType":"address"},{"name":"added","type":"uint256","internalType":"uint256"}],"outputs":[{"name":"","type":"bool","internalType":"bool"}],"stateMutability":"nonpayable"},{"type":"function","name":"isBlacklisted","inputs":[{"name":"","type":"address","internalType":"address"}],"outputs":[{"name":"","type":"bool","internalType":"bool"}],"stateMutability":"view"},{"type":"function","name":"isCircuitBreakerActive","inputs":[],"outputs":[{"name":"","type":"bool","internalType":"bool"}],"stateMutability":"view"},{"type":"function","name":"lastTransferTime","inputs":[{"name":"","type":"address","internalType":"address"}],"outputs":[{"name":"","type":"uint256","internalType":"uint256"}],"stateMutability":"view"},{"type":"function","name":"ledger","inputs":[],"outputs":[{"name":"","type":"address","internalType":"contract IProofLedger"}],"stateMutability":"view"},{"type":"function","name":"lockPolicy","inputs":[],"outputs":[],"stateMutability":"nonpayable"},{"type":"function","name":"maxTransferAmount","inputs":[],"outputs":[{"name":"","type":"uint256","internalType":"uint256"}],"stateMutability":"view"},{"type":"function","name":"maxWalletBalance","inputs":[],"outputs":[{"name":"","type":"uint256","internalType":"uint256"}],"stateMutability":"view"},{"type":"function","name":"name","inputs":[],"outputs":[{"name":"","type":"string","internalType":"string"}],"stateMutability":"view"},{"type":"function","name":"nonces","inputs":[{"name":"","type":"address","internalType":"address"}],"outputs":[{"name":"","type":"uint256","internalType":"uint256"}],"stateMutability":"view"},{"type":"function","name":"owner","inputs":[],"outputs":[{"name":"","type":"address","internalType":"address"}],"stateMutability":"view"},{"type":"function","name":"pendingOwner","inputs":[],"outputs":[{"name":"","type":"address","internalType":"address"}],"stateMutability":"view"},{"type":"function","name":"permit","inputs":[{"name":"owner","type":"address","internalType":"address"},{"name":"spender","type":"address","internalType":"address"},{"name":"value","type":"uint256","internalType":"uint256"},{"name":"deadline","type":"uint256","internalType":"uint256"},{"name":"v","type":"uint8","internalType":"uint8"},{"name":"r","type":"bytes32","internalType":"bytes32"},{"name":"s","type":"bytes32","internalType":"bytes32"}],"outputs":[],"stateMutability":"nonpayable"},{"type":"function","name":"policyLocked","inputs":[],"outputs":[{"name":"","type":"bool","internalType":"bool"}],"stateMutability":"view"},{"type":"function","name":"presaleContract","inputs":[],"outputs":[{"name":"","type":"address","internalType":"address"}],"stateMutability":"view"},{"type":"function","name":"previewTransferFees","inputs":[{"name":"from","type":"address","internalType":"address"},{"name":"to","type":"address","internalType":"address"},{"name":"amount","type":"uint256","internalType":"uint256"}],"outputs":[{"name":"burnAmount","type":"uint256","internalType":"uint256"},{"name":"sanctumAmount","type":"uint256","internalType":"uint256"},{"name":"ecosystemAmount","type":"uint256","internalType":"uint256"},{"name":"netReceived","type":"uint256","internalType":"uint256"}],"stateMutability":"view"},{"type":"function","name":"remainingDailyLimit","inputs":[{"name":"account","type":"address","internalType":"address"}],"outputs":[{"name":"","type":"uint256","internalType":"uint256"}],"stateMutability":"view"},{"type":"function","name":"sanctumSink","inputs":[],"outputs":[{"name":"","type":"address","internalType":"address"}],"stateMutability":"view"},{"type":"function","name":"securityHub","inputs":[],"outputs":[{"name":"","type":"address","internalType":"contract ISecurityHub"}],"stateMutability":"view"},{"type":"function","name":"setAntiWhale","inputs":[{"name":"_maxTransfer","type":"uint256","internalType":"uint256"},{"name":"_maxWallet","type":"uint256","internalType":"uint256"},{"name":"_dailyLimit","type":"uint256","internalType":"uint256"},{"name":"_cooldown","type":"uint256","internalType":"uint256"}],"outputs":[],"stateMutability":"nonpayable"},{"type":"function","name":"setBlacklist","inputs":[{"name":"user","type":"address","internalType":"address"},{"name":"status","type":"bool","internalType":"bool"}],"outputs":[],"stateMutability":"nonpayable"},{"type":"function","name":"setBurnRouter","inputs":[{"name":"router","type":"address","internalType":"address"}],"outputs":[],"stateMutability":"nonpayable"},{"type":"function","name":"setCircuitBreaker","inputs":[{"name":"_active","type":"bool","internalType":"bool"},{"name":"_duration","type":"uint256","internalType":"uint256"}],"outputs":[],"stateMutability":"nonpayable"},{"type":"function","name":"setLedger","inputs":[{"name":"_ledger","type":"address","internalType":"address"}],"outputs":[],"stateMutability":"nonpayable"},{"type":"function","name":"setSanctumSink","inputs":[{"name":"_sanctum","type":"address","internalType":"address"}],"outputs":[],"stateMutability":"nonpayable"},{"type":"function","name":"setSecurityHub","inputs":[{"name":"hub","type":"address","internalType":"address"}],"outputs":[],"stateMutability":"nonpayable"},{"type":"function","name":"setSystemExempt","inputs":[{"name":"who","type":"address","internalType":"address"},{"name":"isExempt","type":"bool","internalType":"bool"}],"outputs":[],"stateMutability":"nonpayable"},{"type":"function","name":"setTreasurySink","inputs":[{"name":"sink","type":"address","internalType":"address"}],"outputs":[],"stateMutability":"nonpayable"},{"type":"function","name":"setVaultHub","inputs":[{"name":"hub","type":"address","internalType":"address"}],"outputs":[],"stateMutability":"nonpayable"},{"type":"function","name":"setVaultOnly","inputs":[{"name":"enabled","type":"bool","internalType":"bool"}],"outputs":[],"stateMutability":"nonpayable"},{"type":"function","name":"setWhaleLimitExempt","inputs":[{"name":"addr","type":"address","internalType":"address"},{"name":"exempt","type":"bool","internalType":"bool"}],"outputs":[],"stateMutability":"nonpayable"},{"type":"function","name":"setWhitelist","inputs":[{"name":"addr","type":"address","internalType":"address"},{"name":"status","type":"bool","internalType":"bool"}],"outputs":[],"stateMutability":"nonpayable"},{"type":"function","name":"symbol","inputs":[],"outputs":[{"name":"","type":"string","internalType":"string"}],"stateMutability":"view"},{"type":"function","name":"systemExempt","inputs":[{"name":"","type":"address","internalType":"address"}],"outputs":[{"name":"","type":"bool","internalType":"bool"}],"stateMutability":"view"},{"type":"function","name":"totalSupply","inputs":[],"outputs":[{"name":"","type":"uint256","internalType":"uint256"}],"stateMutability":"view"},{"type":"function","name":"transfer","inputs":[{"name":"to","type":"address","internalType":"address"},{"name":"amount","type":"uint256","internalType":"uint256"}],"outputs":[{"name":"","type":"bool","internalType":"bool"}],"stateMutability":"nonpayable"},{"type":"function","name":"transferCooldown","inputs":[],"outputs":[{"name":"","type":"uint256","internalType":"uint256"}],"stateMutability":"view"},{"type":"function","name":"transferFrom","inputs":[{"name":"from","type":"address","internalType":"address"},{"name":"to","type":"address","internalType":"address"},{"name":"amount","type":"uint256","internalType":"uint256"}],"outputs":[{"name":"","type":"bool","internalType":"bool"}],"stateMutability":"nonpayable"},{"type":"function","name":"transferOwnership","inputs":[{"name":"newOwner","type":"address","internalType":"address"}],"outputs":[],"stateMutability":"nonpayable"},{"type":"function","name":"treasurySink","inputs":[],"outputs":[{"name":"","type":"address","internalType":"address"}],"stateMutability":"view"},{"type":"function","name":"vaultHub","inputs":[],"outputs":[{"name":"","type":"address","internalType":"contract IVaultHub"}],"stateMutability":"view"},{"type":"function","name":"vaultOnly","inputs":[],"outputs":[{"name":"","type":"bool","internalType":"bool"}],"stateMutability":"view"},{"type":"function","name":"whaleLimitExempt","inputs":[{"name":"","type":"address","internalType":"address"}],"outputs":[{"name":"","type":"bool","internalType":"bool"}],"stateMutability":"view"},{"type":"function","name":"whitelisted","inputs":[{"name":"","type":"address","internalType":"address"}],"outputs":[{"name":"","type":"bool","internalType":"bool"}],"stateMutability":"view"},{"type":"event","name":"AntiWhaleSet","inputs":[{"name":"maxTransfer","type":"uint256","indexed":false,"internalType":"uint256"},{"name":"maxWallet","type":"uint256","indexed":false,"internalType":"uint256"},{"name":"dailyLimit","type":"uint256","indexed":false,"internalType":"uint256"},{"name":"cooldown","type":"uint256","indexed":false,"internalType":"uint256"}],"anonymous":false},{"type":"event","name":"Approval","inputs":[{"name":"owner","type":"address","indexed":true,"internalType":"address"},{"name":"spender","type":"address","indexed":true,"internalType":"address"},{"name":"value","type":"uint256","indexed":false,"internalType":"uint256"}],"anonymous":false},{"type":"event","name":"BlacklistSet","inputs":[{"name":"user","type":"address","indexed":true,"internalType":"address"},{"name":"status","type":"bool","indexed":false,"internalType":"bool"},{"name":"setBy","type":"address","indexed":true,"internalType":"address"}],"anonymous":false},{"type":"event","name":"BurnRouterSet","inputs":[{"name":"router","type":"address","indexed":true,"internalType":"address"}],"anonymous":false},{"type":"event","name":"CircuitBreakerSet","inputs":[{"name":"active","type":"bool","indexed":false,"internalType":"bool"},{"name":"expiry","type":"uint256","indexed":false,"internalType":"uint256"}],"anonymous":false},{"type":"event","name":"ExemptSet","inputs":[{"name":"target","type":"address","indexed":true,"internalType":"address"},{"name":"exempt","type":"bool","indexed":false,"internalType":"bool"}],"anonymous":false},{"type":"event","name":"FeeApplied","inputs":[{"name":"from","type":"address","indexed":true,"internalType":"address"},{"name":"to","type":"address","indexed":true,"internalType":"address"},{"name":"burnAmount","type":"uint256","indexed":false,"internalType":"uint256"},{"name":"sanctumAmount","type":"uint256","indexed":false,"internalType":"uint256"},{"name":"ecosystemAmount","type":"uint256","indexed":false,"internalType":"uint256"},{"name":"sanctumSink","type":"address","indexed":true,"internalType":"address"},{"name":"ecosystemSink","type":"address","indexed":false,"internalType":"address"}],"anonymous":false},{"type":"event","name":"LedgerSet","inputs":[{"name":"ledger","type":"address","indexed":true,"internalType":"address"}],"anonymous":false},{"type":"event","name":"OwnershipTransferStarted","inputs":[{"name":"previousOwner","type":"address","indexed":true,"internalType":"address"},{"name":"newOwner","type":"address","indexed":true,"internalType":"address"}],"anonymous":false},{"type":"event","name":"OwnershipTransferred","inputs":[{"name":"previousOwner","type":"address","indexed":true,"internalType":"address"},{"name":"newOwner","type":"address","indexed":true,"internalType":"address"}],"anonymous":false},{"type":"event","name":"PolicyLocked","inputs":[],"anonymous":false},{"type":"event","name":"PresaleContractSet","inputs":[{"name":"presale","type":"address","indexed":true,"internalType":"address"}],"anonymous":false},{"type":"event","name":"SanctumSinkSet","inputs":[{"name":"sink","type":"address","indexed":true,"internalType":"address"}],"anonymous":false},{"type":"event","name":"SecurityHubSet","inputs":[{"name":"hub","type":"address","indexed":true,"internalType":"address"}],"anonymous":false},{"type":"event","name":"SystemExemptSet","inputs":[{"name":"who","type":"address","indexed":true,"internalType":"address"},{"name":"isExempt","type":"bool","indexed":false,"internalType":"bool"}],"anonymous":false},{"type":"event","name":"Transfer","inputs":[{"name":"from","type":"address","indexed":true,"internalType":"address"},{"name":"to","type":"address","indexed":true,"internalType":"address"},{"name":"value","type":"uint256","indexed":false,"internalType":"uint256"}],"anonymous":false},{"type":"event","name":"TreasurySinkSet","inputs":[{"name":"sink","type":"address","indexed":true,"internalType":"address"}],"anonymous":false},{"type":"event","name":"VaultHubSet","inputs":[{"name":"hub","type":"address","indexed":true,"internalType":"address"}],"anonymous":false},{"type":"event","name":"VaultOnlySet","inputs":[{"name":"enabled","type":"bool","indexed":false,"internalType":"bool"}],"anonymous":false},{"type":"event","name":"WhaleLimitExemptSet","inputs":[{"name":"addr","type":"address","indexed":true,"internalType":"address"},{"name":"exempt","type":"bool","indexed":false,"internalType":"bool"}],"anonymous":false},{"type":"event","name":"Whitelisted","inputs":[{"name":"addr","type":"address","indexed":true,"internalType":"address"},{"name":"status","type":"bool","indexed":false,"internalType":"bool"}],"anonymous":false},{"type":"error","name":"Token_NotVault","inputs":[]},{"type":"error","name":"VF_CAP","inputs":[]},{"type":"error","name":"VF_DailyLimitExceeded","inputs":[]},{"type":"error","name":"VF_LOCKED","inputs":[]},{"type":"error","name":"VF_MaxTransferExceeded","inputs":[]},{"type":"error","name":"VF_MaxWalletExceeded","inputs":[]},{"type":"error","name":"VF_POLICY_LOCKED","inputs":[]},{"type":"error","name":"VF_TransferCooldown","inputs":[]},{"type":"error","name":"VF_ZERO","inputs":[]}],"bytecode":{"object":"0x608080604052346105795760c0816141e7803803809161001f82856106b0565b83398101031261057957610032816106e7565b9061003f602082016106e7565b61004b604083016106e7565b610057606084016106e7565b61006f60a0610068608087016106e7565b95016106e7565b5f80546001600160a01b0319163390811782556040519792917f8be0079c531659141344cd1fd0a4f28419497f9722a3daafe3b4186f6b6457e08180a360016002556a01a784379d99db420000006003556a034f086f3b33b6840000006004556a0422ca8b0a00a4250000006005555f60068190556011805462ffffff60a01b1916600160a01b1790556012556001600160a01b0382169081156106a1576001600160a01b0386169485156106a1576001600160a01b03169788156106a157833b1561066a5750853b1561063157610438966103a2946001600160a01b0316806105f5575b506001600160a01b0316806105b9575b506001600160a01b03168061057d575b508360018060a01b03196015541617601555835f52601360205260405f20600160ff19825416179055837f44f2eda14b8ba74d08291fccb7fe6e96b0188538fb528966e0d02a84713f290d6020604051837f7188527286b7c8f39703bf108a472dc431dec1ab5e61b363c3ebb1f35ef67af15f80a260018152a2805f52600a60205260405f20600160ff19825416179055835f52600a60205260405f20600160ff19825416179055865f52600a60205260405f20600160ff198254161790556040516102416040826106b0565b600b81526a2b2324a222902a37b5b2b760a91b602090910152604080517f4ce082c216934f45765aa52f1d82612cdb513a49760946798ca41165309f978c9161028a90826106b0565b600181526020810190603160f81b82525190206040519060208201927f8b73c3c69bb8fe3d512ecc4cf759cc79239f7b179b0ffacaa9a75d522b39400f8452604083015260608201524660808201523060a082015260a081526102ee60c0826106b0565b5190206019556aa56fa5b99019a5c8000000600b55805f52600c6020526a295be96e6406697200000060405f20555f5f5160206141c75f395f51905f5260206040516a295be96e640669720000008152a360405161034d6040826106b0565b601381527f7072656d696e745f6465765f72657365727665000000000000000000000000006020820152604051916103866040846106b0565b600a8352690d4c13481b1bd8dad95960b21b602084015261071f565b805f52600c6020526a295be96e6406697200000060405f20555f5f5160206141c75f395f51905f5260206040516a295be96e640669720000008152a36040516103ec6040826106b0565b600f81526e7072656d696e745f70726573616c6560881b6020820152604051916104176040846106b0565b600f83526e35304d20666f722070726573616c6560881b602084015261071f565b805f52600c6020526a52b7d2dcc80cd2e400000060405f2055805f5f5160206141c75f395f51905f5260206040516a52b7d2dcc80cd2e40000008152a36040516104836040826106b0565b601081526f7072656d696e745f747265617375727960801b6020820152604051916104af6040846106b0565b601383527f3130304d20666f72206f7065726174696f6e730000000000000000000000000060208401526010546001600160a01b0316806104fa575b604051613a0890816107bf8239f35b803b15610579575f92836105359361055860405197889687958694630303c28760e61b865260048601526080602486015260848501906106fb565b6a52b7d2dcc80cd2e40000006044850152838103600319016064850152906106fb565b03925af1610569575b8080806104eb565b5f610573916106b0565b5f610561565b5f80fd5b601680546001600160a01b031916821790557f3f2254a28ba18b54180672b4e5f33b7cbe996e44be5c1ebe9057f49e894cde315f80a25f610174565b601080546001600160a01b031916821790557fbc62e69a31739e36d57d56991ac20e4e507a7edfff9070e6a11df5a37b8b4e6f5f80a25f610164565b600e80546001600160a01b031916821790557fbb3d89b3025a50f5b3f9fc1bfe23194ad7fb05af4e31ab293af4a947960954d55f80a25f610154565b60405162461bcd60e51b81526020600482015260116024820152701c1c995cd85b19480858dbdb9d1c9858dd607a1b6044820152606490fd5b62461bcd60e51b815260206004820152601260248201527119195d95985d5b1d080858dbdb9d1c9858dd60721b6044820152606490fd5b63ebeb59ad60e01b5f5260045ffd5b601f909101601f19168101906001600160401b038211908210176106d357604052565b634e487b7160e01b5f52604160045260245ffd5b51906001600160a01b038216820361057957565b805180835260209291819084018484015e5f828201840152601f01601f1916010190565b6010546001600160a01b031680610737575b50505050565b803b15610579575f928361077a9361079d60405197889687958694630303c28760e61b865260018060a01b031660048601526080602486015260848501906106fb565b6a295be96e640669720000006044850152838103600319016064850152906106fb565b03925af16107ae575b808080610731565b5f6107b8916106b0565b5f6107a656fe6080806040526004361015610012575f80fd5b5f3560e01c90816306e0c52c14611d585750806306fdde0314611d0b5780630741206e14611c70578063095ea7b314611c4a5780630d2d8a3114611c1257806313d1ad0814611b95578063153b0d1e14611b1657806316efd94114611af157806318160ddd14611ad4578063198803b1146119385780631dc4b09c1461188057806322a7caf51461186357806323452b9c1461183957806323b872dd1461179557806330adf81f1461175b57806330e7668414611723578063313ce567146117085780633246887d1461167757806332941ecb1461165357806332cb6b0c1461162e5780633644e5151461161157806339509351146115ca5780633c2f9fe4146113f157806350140c06146113b557806353d6fd59146112bb57806355545fb01461122457806356397c35146111fc5780636336f3ac1461110357806363d9df85146110db57806368f16293146110be5780636c32b2ec146110965780636dd6e80b1461106e57806370a0823114611036578063748ada521461101157806379036e9014610fd957806379ba509714610f325780637adc723d14610ef55780637ecebe0014610ebd5780638bea4f2d14610e955780638da5cb5b14610e6e57806395d89b4114610e2757806399e793a014610a2c5780639a03f22414610da85780639d82190f14610d855780639dac064114610d42578063a34857cd14610c86578063a457c2d714610bed578063a9059cbb14610baf578063a9e7572314610b92578063b55e3f3a14610a93578063b692749714610a76578063b72d294314610a4e578063bbde77c114610a31578063bd94fafc14610a2c578063beeeb4ce14610a04578063c4b740f51461090a578063d505accf146106b7578063d6b547351461067a578063d936547e1461063d578063dd62ed3e146105ed578063e30c3978146105c5578063e46638e61461058b578063f2fde38b146104e5578063f497e873146104ba578063f714af6f1461049d578063fa0377661461033e5763fe575a87146102fd575f80fd5b3461033a57602036600319011261033a576001600160a01b0361031e611dd4565b165f526018602052602060ff60405f2054166040519015158152f35b5f80fd5b3461033a57604036600319011261033a57610357611e0f565b6024356103626128e2565b81156104865780151580610479575b1561043d576011805460ff60b01b1916600160b01b1790556103939042611ec9565b6012555b7f04593f08e7dc4a4b3442a0009dff46944620bf6c71bde4a1fa3724b7d6bfe09e604060125481519084151582526020820152a115610407576104056040516103e1604082611d7a565b601281527131b4b931bab4ba2fb13932b0b5b2b92fb7b760711b602082015261292b565b005b610405604051610418604082611d7a565b601381527231b4b931bab4ba2fb13932b0b5b2b92fb7b33360691b602082015261292b565b60405162461bcd60e51b81526020600482015260146024820152732b231d1034b73b30b634b210323ab930ba34b7b760611b6044820152606490fd5b5062093a80811115610371565b506011805460ff60b01b191690555f601255610397565b3461033a575f36600319011261033a576020600554604051908152f35b3461033a57602036600319011261033a5760206104dd6104d8611dd4565b61287c565b604051908152f35b3461033a57602036600319011261033a576104fe611dd4565b6105066128e2565b6001600160a01b0316801561055a57600180546001600160a01b031916821790555f80546001600160a01b0316907f38d16b8cac22d99fc7c124b9cd0de2d3fa1faef420bfe791d8c362d765e227009080a3005b60405162461bcd60e51b81526020600482015260096024820152684f574e3a207a65726f60b81b6044820152606490fd5b3461033a576105a261059c36611e1e565b91612218565b906105c160405192839215158352604060208401526040830190611db0565b0390f35b3461033a575f36600319011261033a576001546040516001600160a01b039091168152602090f35b3461033a57604036600319011261033a57610606611dd4565b61060e611dea565b6001600160a01b039182165f908152600d60209081526040808320949093168252928352819020549051908152f35b3461033a57602036600319011261033a576001600160a01b0361065e611dd4565b165f526014602052602060ff60405f2054166040519015158152f35b3461033a57602036600319011261033a576001600160a01b0361069b611dd4565b165f526013602052602060ff60405f2054166040519015158152f35b3461033a5760e036600319011261033a576106d0611dd4565b6106d8611dea565b604435906064356084359060ff821680920361033a578042116108c55762278d0042019081421161086c5711610880576001600160a01b0384165f818152601a602052604090208054919291905f19821461086c576020928260809260015f95019055604051858101917f6e71edae12b1b97f4d1f60370fef10105fa2faae0126114a169c64845d6126c9835287604083015260018060a01b0389166060830152898583015260a082015260a0815261079260c082611d7a565b51902060195490604051908682019261190160f01b845260228301526042820152604281526107c2606282611d7a565b519020906040519182528482015260a435604082015260c435606082015282805260015afa15610861575f516001600160a01b0316801515919082610857575b5050156108125761040592612997565b60405162461bcd60e51b815260206004820152601860248201527f56464944453a20696e76616c6964207369676e617475726500000000000000006044820152606490fd5b1490508480610802565b6040513d5f823e3d90fd5b634e487b7160e01b5f52601160045260245ffd5b60405162461bcd60e51b815260206004820152601760248201527f56464944453a20646561646c696e6520746f6f206661720000000000000000006044820152606490fd5b60405162461bcd60e51b815260206004820152601760248201527f56464944453a206578706972656420646561646c696e650000000000000000006044820152606490fd5b3461033a57602036600319011261033a57610923611e0f565b61092b6128e2565b60115460ff8160a81c16806109fc575b6109ed5760ff60a01b191681151560a081901b60ff60a01b16919091176011556040519081527fc700a08714659bf8ab2121ea3f1f64e22835cf102ad9ba5d0816e55a23f6ea2c90602090a1156109bc5761040560405161099d604082611d7a565b600d81526c3b30bab63a2fb7b7363cafb7b760991b602082015261292b565b6104056040516109cd604082611d7a565b600e81526d3b30bab63a2fb7b7363cafb7b33360911b602082015261292b565b63015c1ff360e51b5f5260045ffd5b50811561093b565b3461033a575f36600319011261033a576017546040516001600160a01b039091168152602090f35b611e58565b3461033a575f36600319011261033a576020600454604051908152f35b3461033a575f36600319011261033a57600f546040516001600160a01b039091168152602090f35b3461033a575f36600319011261033a57602060405162093a808152f35b3461033a57602036600319011261033a57610aac611dd4565b610ab46128e2565b60ff60115460a81c16610b3f575b6001600160a01b0316610ad6811515611e7d565b601780546001600160a01b031916821790557fe99cdf96738a4659f820a0890f65abe82cce94da951e032d7abe61e5687ba2525f80a2610405604051610b1d604082611d7a565b601081526f1cd85b98dd1d5b57dcda5b9ad7dcd95d60821b602082015261292b565b6001600160a01b038116610ac25760405162461bcd60e51b815260206004820152601f60248201527f56463a2063616e6e6f7420736574207a65726f207768656e206c6f636b6564006044820152606490fd5b3461033a575f36600319011261033a576020600354604051908152f35b3461033a57604036600319011261033a57610bdd610bcb611dd4565b610bd3612a46565b6024359033612a88565b6001600255602060405160018152f35b3461033a57604036600319011261033a57610c06611dd4565b60243590335f52600d60205260405f2060018060a01b0382165f5260205260405f2054828110610c4f57610c4492610c3d91611ebc565b9033612997565b602060405160018152f35b60405162461bcd60e51b815260206004820152600f60248201526e616c6c6f7720756e646572666c6f7760881b6044820152606490fd5b3461033a57602036600319011261033a57610c9f611dd4565b610ca76128e2565b60ff60115460a81c1680610d31575b6109ed57601680546001600160a01b0319166001600160a01b039290921691821790557f3f2254a28ba18b54180672b4e5f33b7cbe996e44be5c1ebe9057f49e894cde315f80a2610405604051610d0e604082611d7a565b60118152701d1c99585cdd5c9e57dcda5b9ad7dcd95d607a1b602082015261292b565b506001600160a01b03811615610cb6565b3461033a57602036600319011261033a5760a0610d65610d60611dd4565b612128565b926040929192519485526020850152604084015260608301526080820152f35b3461033a57602036600319011261033a5760206104dd610da3611dd4565b6120cc565b3461033a575f36600319011261033a57610dc06128e2565b6011805460ff60a81b1916600160a81b1790557f3ce392d8aa0912d44ce27fbdd025b988ec76fd2b53f0ab8b479ed539069d2b345f80a1610405604051610e08604082611d7a565b600d81526c1c1bdb1a58de57db1bd8dad959609a1b602082015261292b565b3461033a575f36600319011261033a576105c1604051610e48604082611d7a565b6005815264564649444560d81b6020820152604051918291602083526020830190611db0565b3461033a575f36600319011261033a575f546040516001600160a01b039091168152602090f35b3461033a575f36600319011261033a576016546040516001600160a01b039091168152602090f35b3461033a57602036600319011261033a576001600160a01b03610ede611dd4565b165f52601a602052602060405f2054604051908152f35b3461033a57602036600319011261033a576001600160a01b03610f16611dd4565b165f52600a602052602060ff60405f2054166040519015158152f35b3461033a575f36600319011261033a576001546001600160a01b0381163303610f9b575f543360018060a01b0382167f8be0079c531659141344cd1fd0a4f28419497f9722a3daafe3b4186f6b6457e05f80a36001600160a01b031990811633175f5516600155005b60405162461bcd60e51b815260206004820152601660248201527527aba71d103737ba103832b73234b7339037bbb732b960511b6044820152606490fd5b3461033a57602036600319011261033a576001600160a01b03610ffa611dd4565b165f526007602052602060405f2054604051908152f35b3461033a575f36600319011261033a57602060ff60115460a81c166040519015158152f35b3461033a57602036600319011261033a576001600160a01b03611057611dd4565b165f52600c602052602060405f2054604051908152f35b3461033a575f36600319011261033a57600e546040516001600160a01b039091168152602090f35b3461033a575f36600319011261033a576011546040516001600160a01b039091168152602090f35b3461033a575f36600319011261033a576020600654604051908152f35b3461033a575f36600319011261033a576015546040516001600160a01b039091168152602090f35b3461033a57604036600319011261033a5761040561111f611dd4565b611127611e00565b61112f6128e2565b6001600160a01b038216611144811515611e7d565b805f5260136020526111658260405f209060ff801983541691151516179055565b7f44f2eda14b8ba74d08291fccb7fe6e96b0188538fb528966e0d02a84713f290d60206040518415158152a2156111d2576040516111a4604082611d7a565b600981526832bc32b6b83a2fb7b760b91b60208201525b604051916111ca602084611d7a565b5f83526136c0565b6040516111e0604082611d7a565b600a81526932bc32b6b83a2fb7b33360b11b60208201526111bb565b3461033a575f36600319011261033a576010546040516001600160a01b039091168152602090f35b3461033a57602036600319011261033a5761123d611dd4565b6112456128e2565b600f80546001600160a01b0319166001600160a01b039290921691821790557fd15414d216acba4fd6e41103922663a24e3ac895d383ad66e7be0c48115d5b1e5f80a2610405604051611299604082611d7a565b601081526f1cd958dd5c9a5d1e57da1d5897dcd95d60821b602082015261292b565b3461033a57604036600319011261033a576104056112d7611dd4565b6112df611e00565b6112e76128e2565b6001600160a01b0382166112fc811515611e7d565b805f52601460205261131d8260405f209060ff801983541691151516179055565b7fa54714518c5d275fdcd3d2a461e4858e4e8cb04fb93cd0bca9d6d34115f2644060206040518415158152a2156113855760405161135c604082611d7a565b600d81526c1dda1a5d195b1a5cdd17d85919609a1b6020820152604051916111ca602084611d7a565b604051611393604082611d7a565b601081526f77686974656c6973745f72656d6f766560801b60208201526111bb565b3461033a576105c16113cf6113c936611e1e565b91611f9a565b6040805194855260208501939093529183015260608201529081906080820190565b3461033a57608036600319011261033a576064356024356004356044356114166128e2565b81611588575b82611546575b80611504575b836114bf575b7fdd527915e4785ab4e44c56581b4895b2cf4ce1414470508ea4a3d00623fba914936114879183600355846004558060055581600655604051948594859094939260609260808301968352602083015260408201520152565b0390a161040560405161149b604082611d7a565b6012815271185b9d1a57ddda185b1957dd5c19185d195960721b602082015261292b565b610e1084111561142e5760405162461bcd60e51b815260206004820152601360248201527236b0bc1018903437bab91031b7b7b63237bbb760691b6044820152606490fd5b6969e10de76676d08000008110156114285760405162461bcd60e51b81526020600482015260086024820152676d696e203530306b60c01b6044820152606490fd5b692a5a058fc295ed0000008310156114225760405162461bcd60e51b81526020600482015260086024820152676d696e203230306b60c01b6044820152606490fd5b69152d02c7e14af680000082101561141c5760405162461bcd60e51b81526020600482015260086024820152676d696e203130306b60c01b6044820152606490fd5b3461033a57604036600319011261033a57610c446115e6611dd4565b335f52600d60205260405f2060018060a01b0382165f52602052610c3d60405f206024359054611ec9565b3461033a575f36600319011261033a576020601954604051908152f35b3461033a575f36600319011261033a5760206040516aa56fa5b99019a5c80000008152f35b3461033a575f36600319011261033a57602061166d611f0f565b6040519015158152f35b3461033a57602036600319011261033a57611690611dd4565b6116986128e2565b601080546001600160a01b0319166001600160a01b039290921691821790557fbc62e69a31739e36d57d56991ac20e4e507a7edfff9070e6a11df5a37b8b4e6f5f80a26104056040516116ec604082611d7a565b600a8152691b195919d95c97dcd95d60b21b602082015261292b565b3461033a575f36600319011261033a57602060405160128152f35b3461033a57602036600319011261033a576001600160a01b03611744611dd4565b165f526008602052602060405f2054604051908152f35b3461033a575f36600319011261033a5760206040517f6e71edae12b1b97f4d1f60370fef10105fa2faae0126114a169c64845d6126c98152f35b3461033a576117a336611e1e565b906117ac612a46565b335f5260186020526117c560ff60405f20541615611ed6565b6001600160a01b0383165f908152600d602090815260408083203384529091529020549282841061180c5761180761180084610bdd96611ebc565b3383612997565b612a88565b60405162461bcd60e51b8152602060048201526005602482015264616c6c6f7760d81b6044820152606490fd5b3461033a575f36600319011261033a576118516128e2565b600180546001600160a01b0319169055005b3461033a575f36600319011261033a576020601254604051908152f35b3461033a57602036600319011261033a57611899611dd4565b6118a16128e2565b6011549060ff8260a81c1680611927575b6109ed576001600160a01b03166001600160a01b03199190911681176011557faf9b9a8ca16be293d721c9b992abdb79c8c7a18ed68c393cc10deeaf4b2f99775f80a2610405604051611906604082611d7a565b600f81526e189d5c9b97dc9bdd5d195c97dcd95d608a1b602082015261292b565b506001600160a01b038116156118b2565b3461033a57602036600319011261033a5760e0611953611dd4565b6001600160a01b03165f818152600a602052604090205460ff16908115611abc575b81156119ad57505f19905f808380805b604051968752602087015260408601526060850152608084015260a0830152151560c0820152f35b6003549091908015611ab4575b6004549092908015611aac575b9060055480151590815f14611aa557805b9115611a9c57825f5260086020526201518060405f205404620151804204115f14611a6357905b6006549283151580611a4e575b15611a46575f526009602052611a268360405f2054611ec9565b428111611a3657505f5b93611985565b611a41904290611ebc565b611a30565b505f93611985565b50805f52600960205260405f20541515611a0c565b5f838152600760205260409020548111611a7f57505f906119ff565b611a9690835f52600760205260405f205490611ebc565b906119ff565b505f19906119ff565b5f196119d8565b505f196119c7565b505f196119ba565b8091505f52601360205260ff60405f20541690611975565b3461033a575f36600319011261033a576020600b54604051908152f35b3461033a575f36600319011261033a57602060ff60115460b01c166040519015158152f35b3461033a57604036600319011261033a57611b2f611dd4565b611b37611e00565b90611b406128e2565b6001600160a01b03165f818152601860205260409020805460ff191660ff8415151617905560405191151582527f4edd9bb92fa41bc25fb64fc24645bea26691eff97f54d2db5362a3f986c188e960203393a3005b3461033a57604036600319011261033a57611bae611dd4565b7fe355751d29baf3bbcbfb4f9db660bfdf038ac8076722a3cb9ed1807250c1f7b06020611bd9611e00565b92611be26128e2565b6001600160a01b03165f818152600a835260409020805460ff191660ff86151516179055926040519015158152a2005b3461033a57602036600319011261033a576001600160a01b03611c33611dd4565b165f526009602052602060405f2054604051908152f35b3461033a57604036600319011261033a57610c44611c66611dd4565b6024359033612997565b3461033a57602036600319011261033a57611c89611dd4565b611c916128e2565b6001600160a01b0316611ca5811515611e7d565b600e80546001600160a01b031916821790557fbb3d89b3025a50f5b3f9fc1bfe23194ad7fb05af4e31ab293af4a947960954d55f80a2610405604051611cec604082611d7a565b600d81526c1d985d5b1d17da1d5897dcd95d609a1b602082015261292b565b3461033a575f36600319011261033a576105c1604051611d2c604082611d7a565b600b81526a2b2324a222902a37b5b2b760a91b6020820152604051918291602083526020830190611db0565b3461033a575f36600319011261033a5760209060ff60115460a01c1615158152f35b90601f8019910116810190811067ffffffffffffffff821117611d9c57604052565b634e487b7160e01b5f52604160045260245ffd5b805180835260209291819084018484015e5f828201840152601f01601f1916010190565b600435906001600160a01b038216820361033a57565b602435906001600160a01b038216820361033a57565b60243590811515820361033a57565b60043590811515820361033a57565b606090600319011261033a576004356001600160a01b038116810361033a57906024356001600160a01b038116810361033a579060443590565b3461033a575f36600319011261033a5760206040516a295be96e640669720000008152f35b15611e8457565b60405162461bcd60e51b815260206004820152601060248201526f56463a207a65726f206164647265737360801b6044820152606490fd5b9190820391821161086c57565b9190820180921161086c57565b15611edd57565b60405162461bcd60e51b815260206004820152600a60248201526914d85b98dd1a5bdb995960b21b6044820152606490fd5b60ff60115460b01c1615611f34576012548015159081611f38575b50611f3457600190565b5f90565b90504210155f611f2a565b51906001600160a01b038216820361033a57565b91908260c091031261033a57815191602081015191604082015191611f7e60608201611f43565b91611f9760a0611f9060808501611f43565b9301611f43565b90565b9092919260018060a01b0382165f5260136020528360ff60405f20541680156120a8575b8015612095575b8015612087575b61207b5760115460405163252f15f560e01b81526001600160a01b03948516600482015292841660248401526044830191909152909160c09183916064918391165afa918215610861575f925f925f9161203c575b5080612037611f97929461203781978099611ebc565b611ebc565b9050611f97935061206691925060c03d60c011612074575b61205e8183611d7a565b810190611f57565b505050929193909290612021565b503d612054565b5050505f915f915f9190565b50612090611f0f565b611fcc565b506011546001600160a01b031615611fc5565b50506001600160a01b0381165f90815260136020526040902054849060ff16611fbe565b600654908115612122576001600160a01b03165f81815260096020526040902054909190156121225761210a915f52600960205260405f2054611ec9565b8042101561211d57611f97904290611ebc565b505f90565b50505f90565b6001600160a01b03165f818152600a602052604090205490919060ff168015612202575b6121f4576005549062015180420492805f5260086020526201518060405f205404908185115f146121a45750505f9282916201518082029180830462015180149015171561086c5762015180820180831161086c5790565b5f9081526007602052604090205493508284106121e5575f5b916201518082029180830462015180149015171561086c5762015180820180831161086c5790565b6121ef8484611ebc565b6121bd565b5f91505f1990819083908190565b50815f52601360205260ff60405f20541661214c565b6001600160a01b0381165f818152601860205260409020549293919260ff16612846576001600160a01b0384165f8181526018602052604090205490929060ff1661280c57815f52600c6020528060405f2054106127d357815f52600a60205260ff60405f20541615806127bc575b806127a5575b8061278e575b80612785575b8061277c575b61258d575b5060ff60115460a01c1680612579575b6123da575b5050600f546001600160a01b03161515806123cb575b6122ed575b50506001906040516122e7602082611d7a565b5f815290565b6122f96122ff91613885565b91613885565b906001600160a01b038116151590816123bb575b50612384576001600160a01b03811615159081612374575b50612337575f806122d4565b5f90604051612347604082611d7a565b601981527f526563697069656e74207661756c74206973206c6f636b656400000000000000602082015290565b61237e9150613907565b5f61232b565b505f90604051612395604082611d7a565b601681527514d95b99195c881d985d5b1d081a5cc81b1bd8dad95960521b602082015290565b6123c59150613907565b5f612313565b506123d4611f0f565b156122cf565b8015908115612561575b811561254a575b50801561253b575b801561252c575b8115918215612517575b8215612502575b82156124ea575b82156124d2575b5081156124c1575b81156124b0575b156124785715612439575f806122b9565b50505f9060405161244b604082611d7a565b601881527f526563697069656e74206d75737420757365207661756c740000000000000000602082015290565b5050505f9060405161248b604082611d7a565b601581527414d95b99195c881b5d5cdd081d5cd9481d985d5b1d605a1b602082015290565b90506124bb836137ec565b90612428565b90506124cc8361376c565b90612421565b5f9081526014602052604081205460ff169250612419565b8092505f52601360205260ff60405f20541691612412565b6017546001600160a01b03168114925061240b565b6016546001600160a01b031681149250612404565b50612536826137ec565b6123fa565b506125458261376c565b6123f3565b90505f52601460205260ff60405f2054165f6123eb565b8091505f52601360205260ff60405f205416906123e4565b50600e546001600160a01b031615156122b4565b6003548015159081612772575b50612730576004548015159081612711575b506126cf576005549081612646575b505060065480151580612631575b156122a4576125e490825f52600960205260405f2054611ec9565b42106125f0575f6122a4565b505050505f90604051612604604082611d7a565b601881527f5472616e7366657220636f6f6c646f776e206163746976650000000000000000602082015290565b50815f52600960205260405f205415156125c9565b825f52600760205260405f205490835f5260086020526201518060405f20540462015180420414612678575b506125bb565b61268191611ec9565b1161268e575f8080612672565b505050505f906040516126a2604082611d7a565b601c81527f45786365656473206461696c79207472616e73666572206c696d697400000000602082015290565b50505050505f906040516126e4604082611d7a565b601a81527f45786365656473206d61782077616c6c65742062616c616e6365000000000000602082015290565b9050835f52600c6020526127298260405f2054611ec9565b115f6125ac565b50505050505f90604051612745604082611d7a565b601b81527f45786365656473206d6178207472616e7366657220616d6f756e740000000000602082015290565b905081115f61259a565b5082151561229f565b50811515612299565b50825f52601360205260ff60405f20541615612293565b50815f52601360205260ff60405f2054161561228d565b50825f52600a60205260ff60405f20541615612287565b50505050505f906040516127e8604082611d7a565b6014815273496e73756666696369656e742062616c616e636560601b602082015290565b50505050505f90604051612821604082611d7a565b6015815274149958da5c1a595b9d08189b1858dadb1a5cdd1959605a1b602082015290565b505050505f9060405161285a604082611d7a565b601281527114d95b99195c88189b1858dadb1a5cdd195960721b602082015290565b6005549081156128db5760018060a01b031690815f5260086020526201518060405f205404620151804204116128d657815f5260076020528060405f2054101561212257611f97915f52600760205260405f205490611ebc565b905090565b50505f1990565b5f546001600160a01b031633036128f557565b60405162461bcd60e51b815260206004820152600e60248201526d27aba71d103737ba1037bbb732b960911b6044820152606490fd5b6010546001600160a01b031680612940575050565b803b1561033a57604051633ddd61ab60e21b815230600482015260606024820152915f91839182908490829061297a906064830190611db0565b33604483015203925af161298b5750565b5f61299591611d7a565b565b6001600160a01b03169081151580612a34575b15612a035760207f8c5be1e5ebec7d5bd14f71427d1e84f3dd0314c0f7b2291e5b200ac8c7c3b92591835f52600d825260405f2060018060a01b0382165f5282528460405f205560405194855260018060a01b031693a3565b60405162461bcd60e51b81526020600482015260096024820152680617070726f766520360bc1b6044820152606490fd5b506001600160a01b03811615156129aa565b600160025403612a565760028055565b60405162461bcd60e51b815260206004820152600a6024820152697265656e7472616e637960b01b6044820152606490fd5b915f9260018060a01b03811692835f52601860205260ff60405f205416158061369e575b612ab590611ed6565b835f52600a60205260ff60405f205416158061367c575b80613665575b80613643575b8061363a575b80613628575b6134a4575b60ff60115460a01c1680613490575b61320f575b831580156131fe575b6131ef5782156131ef57600f545f9081906001600160a01b03161515806131d3575b806131c4575b613151575b5050835f52600c60205260405f2054838110613122578390855f52600c6020520360405f2055828092601154908660018060a01b03831692831590811580613113575b806130d4575b1561306457505060405163252f15f560e01b81526001600160a01b039283166004820152918516602483015250604481019290925260c090829060649082905afa908115610861575f915f905f905f905f945f9161303a575b5085159081159081612f5b575b5084151580612ece575b8415159182612e28575b92612e20575b508115612e18575b50612d76575b50506011546001600160a01b031692505050803b15612d53579085808087946024604051809481936329a7724f60e21b83528b60048401525af1612d57575b505060205f5160206139b35f395f51905f52915b60018060a01b031693848852600c825260408820612c7c828254611ec9565b9055604051908152a3604051612c93604082611d7a565b60088152673a3930b739b332b960c11b602082015260405192612cb7602085611d7a565b8484526010546001600160a01b03169283612cd5575b505050505050565b833b15612d53579185809492612d29612d129560405198899788968795630303c28760e61b87526004870152608060248701526084860190611db0565b916044850152600319848303016064850152611db0565b03925af1612d3b575b80808080612ccd565b612d46828092611d7a565b612d505780612d32565b80fd5b8580fd5b8192935090612d6591611d7a565b612d72578390855f612c49565b8480fd5b6001600160a01b038116612e1257506016546001600160a01b0316925b6001600160a01b038116612e0c57506016546001600160a01b0316915b6040805195865260208601919091528401526001600160a01b039081166060840152908116919083169086907f83f1070d5154c1ec6e9f656f98b1b6761035814eeba41c9ace66fd53f501e35c90608090a45f80808080612c0a565b91612db0565b92612d93565b90505f612c04565b91505f612bfc565b996001600160a01b038816612ec8576016546001600160a01b03165b6001600160a01b03168015612e9657612e90918f918f604084838c9652600c60205220612e72858254611ec9565b90555f5160206139b35f395f51905f526020604051868152a3611ebc565b99612bf6565b60405162461bcd60e51b815260206004820152600a602482015269065636f2073696e6b3d360b41b6044820152606490fd5b87612e44565b986001600160a01b038416612f55576016546001600160a01b03165b6001600160a01b03168015612f1f57612f1991818f8f90808b9560409252600c60205220612e72858254611ec9565b98612bec565b60405162461bcd60e51b815260206004820152600e60248201526d073616e6374756d2073696e6b3d360941b6044820152606490fd5b83612eea565b9098506001600160a01b03811661303557505f5b6001600160a01b031680612fff5750612f8a86600b54611ebc565b600b555f8a5f5160206139b35f395f51905f5260206040518a8152a35b612fb1868a611ebc565b6011549098906001600160a01b0316803b1561033a575f8091602460405180948193631bc9354160e21b83528d60048401525af115612be257612ff7919c505f90611d7a565b5f9a5f612be2565b805f52600c60205260405f20613016888254611ec9565b90558a5f5160206139b35f395f51905f5260206040518a8152a3612fa7565b612f6f565b945050505050613059915060c03d60c0116120745761205e8183611d7a565b93929190935f612bd5565b91959450925060ff915060a81c1661308e575b5060205f5160206139b35f395f51905f5291612c5d565b90915061309d5783905f613077565b60405162461bcd60e51b815260206004820152600f60248201526e1c9bdd5d195c881c995c5d5a5c9959608a1b6044820152606490fd5b50825f52601360205260ff60405f20541680156130f2575b15612b7c565b506001600160a01b0387165f9081526013602052604090205460ff166130ec565b5061311c611f0f565b15612b76565b60405162461bcd60e51b815260206004820152600760248201526662616c616e636560c81b6044820152606490fd5b6001600160a01b038216151591826131b2575b508115613187575b50613178575f80612b33565b63b8e516c360e01b5f5260045ffd5b6001600160a01b03811615159150816131a2575b505f61316c565b6131ac9150613907565b5f61319b565b6131bd919250613907565b905f613164565b506131cd611f0f565b15612b2e565b9150506131df83613885565b906131e983613885565b90612b28565b63ebeb59ad60e01b5f5260045ffd5b506001600160a01b03811615612b06565b803b158061347e575b8061345c575b8061343a575b61335f575b83158015613349575b8015613333575b8015613324575b8015613315575b6001600160a01b038216801591908215613300575b82156132eb575b82156132d3575b82156132bb575b5081156132aa575b8115613299575b1561328a57612afd575b63cd0d8b2160e01b5f5260045ffd5b90506132a4826137ec565b90613280565b90506132b58261376c565b90613279565b5f9081526014602052604081205460ff169250613271565b8092505f52601360205260ff60405f2054169161326a565b6017546001600160a01b031681149250613263565b6016546001600160a01b03168114925061325c565b5061331f826137ec565b613247565b5061332e8261376c565b613240565b50835f52601460205260ff60405f205416613239565b50835f52601360205260ff60405f205416613232565b613368816137ec565b61322957600e5460405163e01fd21560e01b81526001600160a01b0383811660048301529091602091839160249183915f91165af15f91816133fe575b506133b95763cd0d8b2160e01b5f5260045ffd5b6133f9906040516133cb604082611d7a565b60128152711d985d5b1d17d85d5d1bd7d8dc99585d195960721b6020820152604051916111ca602084611d7a565b613229565b9091506020813d602011613432575b8161341a60209383611d7a565b8101031261033a5761342b90611f43565b905f6133a5565b3d915061340d565b506001600160a01b0381165f9081526014602052604090205460ff1615613224565b506001600160a01b0381165f9081526013602052604090205460ff161561321e565b506001600160a01b0381161515613218565b50600e546001600160a01b03161515612af8565b600354801515908161361e575b5061360f57600454806135d7575b50600554613534575b600654806134d7575b50612ae9565b845f52600960205260405f205415159081613515575b5061350657835f5260096020524260405f20555f6134d1565b6301249b7160e01b5f5260045ffd5b61352c9150855f52600960205260405f2054611ec9565b42105f6134ed565b620151804204845f5260086020526201518060405f205404811161359f575b50835f52600760205261356a8360405f2054611ec9565b6005541061359057835f52600760205260405f20613589848254611ec9565b90556134c8565b639ad5c1c760e01b5f5260045ffd5b845f5260076020525f60408120556201518081029080820462015180149015171561086c57845f52600860205260405f20555f613553565b60018060a01b0382165f52600c6020526135f58460405f2054611ec9565b11613600575f6134bf565b63f5cec06760e01b5f5260045ffd5b631ae2df0760e01b5f5260045ffd5b905083115f6134b1565b506001600160a01b0381161515612ae4565b50831515612ade565b506001600160a01b0381165f9081526013602052604090205460ff1615612ad8565b50835f52601360205260ff60405f20541615612ad2565b506001600160a01b0381165f908152600a602052604090205460ff1615612acc565b506001600160a01b0381165f9081526018602052604090205460ff1615612aac565b6010546001600160a01b0316806136d8575b50505050565b803b1561033a575f928361371b9361373360405197889687958694630303c28760e61b865260018060a01b03166004860152608060248601526084850190611db0565b90846044850152600319848303016064850152611db0565b03925af1613744575b8080806136d2565b5f61374e91611d7a565b5f61373c565b9081602091031261033a5751801515810361033a5790565b600e546001600160a01b03169081156121225760405163652b9b4160e01b81526001600160a01b03909116600482015290602090829060249082905afa5f91816137bb575b50611f9757505f90565b6137de91925060203d6020116137e5575b6137d68183611d7a565b810190613754565b905f6137b1565b503d6137cc565b600e546001600160a01b031690811561212257604051630709df4560e01b81526001600160a01b03909116600482015290602090829060249082905afa5f9181613849575b5061383b57505f90565b6001600160a01b0316151590565b9091506020813d60201161387d575b8161386560209383611d7a565b8101031261033a5761387690611f43565b905f613831565b3d9150613858565b600e546001600160a01b031690811561212257604051630709df4560e01b81526001600160a01b03909116600482015290602090829060249082905afa908115610861575f916138d3575090565b90506020813d6020116138ff575b816138ee60209383611d7a565b8101031261033a57611f9790611f43565b3d91506138e1565b600f54604051631293efbb60e21b602082019081526001600160a01b0393841660248084019190915282525f9384931691613943604482611d7a565b51915afa3d156139aa573d9067ffffffffffffffff8211611d9c5760405191613976601f8201601f191660200184611d7a565b82523d5f602084013e5b15801561399f575b61211d5780602080611f9793518301019101613754565b506020815110613988565b60609061398056feddf252ad1be2c89b69c2b068fc378daa952ba7f163c4a11628f55a4df523b3efa2646970667358221220ee8256e73011c3b8b7fc0b477d48eb5d292c0261857078871d7d4e9f6de8f3a164736f6c634300081e0033ddf252ad1be2c89b69c2b068fc378daa952ba7f163c4a11628f55a4df523b3ef","linkReferences":{}},"methodIdentifiers":{"DEV_RESERVE_SUPPLY()":"99e793a0","DOMAIN_SEPARATOR()":"3644e515","MAX_CIRCUIT_BREAKER_DURATION()":"b6927497","MAX_SUPPLY()":"32cb6b0c","PERMIT_TYPEHASH()":"30adf81f","PRESALE_CAP()":"bd94fafc","acceptOwnership()":"79ba5097","allowance(address,address)":"dd62ed3e","approve(address,uint256)":"095ea7b3","balanceOf(address)":"70a08231","burnRouter()":"6c32b2ec","canTransfer(address,address,uint256)":"e46638e6","cancelOwnershipTransfer()":"23452b9c","circuitBreaker()":"16efd941","circuitBreakerExpiry()":"22a7caf5","cooldownRemaining(address)":"9d82190f","dailyResetTime(address)":"30e76684","dailyTransferLimit()":"f714af6f","dailyTransferred(address)":"79036e90","decimals()":"313ce567","decreaseAllowance(address,uint256)":"a457c2d7","getDailyTransferStats(address)":"9dac0641","getTransferLimitsFor(address)":"198803b1","increaseAllowance(address,uint256)":"39509351","isBlacklisted(address)":"fe575a87","isCircuitBreakerActive()":"32941ecb","lastTransferTime(address)":"0d2d8a31","ledger()":"56397c35","lockPolicy()":"9a03f224","maxTransferAmount()":"a9e75723","maxWalletBalance()":"bbde77c1","name()":"06fdde03","nonces(address)":"7ecebe00","owner()":"8da5cb5b","pendingOwner()":"e30c3978","permit(address,address,uint256,uint256,uint8,bytes32,bytes32)":"d505accf","policyLocked()":"748ada52","presaleContract()":"63d9df85","previewTransferFees(address,address,uint256)":"50140c06","remainingDailyLimit(address)":"f497e873","sanctumSink()":"beeeb4ce","securityHub()":"b72d2943","setAntiWhale(uint256,uint256,uint256,uint256)":"3c2f9fe4","setBlacklist(address,bool)":"153b0d1e","setBurnRouter(address)":"1dc4b09c","setCircuitBreaker(bool,uint256)":"fa037766","setLedger(address)":"3246887d","setSanctumSink(address)":"b55e3f3a","setSecurityHub(address)":"55545fb0","setSystemExempt(address,bool)":"6336f3ac","setTreasurySink(address)":"a34857cd","setVaultHub(address)":"0741206e","setVaultOnly(bool)":"c4b740f5","setWhaleLimitExempt(address,bool)":"13d1ad08","setWhitelist(address,bool)":"53d6fd59","symbol()":"95d89b41","systemExempt(address)":"d6b54735","totalSupply()":"18160ddd","transfer(address,uint256)":"a9059cbb","transferCooldown()":"68f16293","transferFrom(address,address,uint256)":"23b872dd","transferOwnership(address)":"f2fde38b","treasurySink()":"8bea4f2d","vaultHub()":"6dd6e80b","vaultOnly()":"06e0c52c","whaleLimitExempt(address)":"7adc723d","whitelisted(address)":"d936547e"},"id":35}