{"abi":[{"type":"constructor","inputs":[{"name":"devReserveVestingVault","type":"address","internalType":"address"},{"name":"_presaleContract","type":"address","internalType":"address"},{"name":"treasury","type":"address","internalType":"address"},{"name":"_vaultHub","type":"address","internalType":"address"},{"name":"_ledger","type":"address","internalType":"address"},{"name":"_treasurySink","type":"address","internalType":"address"}],"stateMutability":"nonpayable"},{"type":"function","name":"DEV_RESERVE_SUPPLY","inputs":[],"outputs":[{"name":"","type":"uint256","internalType":"uint256"}],"stateMutability":"view"},{"type":"function","name":"DOMAIN_SEPARATOR","inputs":[],"outputs":[{"name":"","type":"bytes32","internalType":"bytes32"}],"stateMutability":"view"},{"type":"function","name":"FREEZE_DELAY","inputs":[],"outputs":[{"name":"","type":"uint64","internalType":"uint64"}],"stateMutability":"view"},{"type":"function","name":"MAX_CIRCUIT_BREAKER_DURATION","inputs":[],"outputs":[{"name":"","type":"uint256","internalType":"uint256"}],"stateMutability":"view"},{"type":"function","name":"MAX_SUPPLY","inputs":[],"outputs":[{"name":"","type":"uint256","internalType":"uint256"}],"stateMutability":"view"},{"type":"function","name":"PERMIT_TYPEHASH","inputs":[],"outputs":[{"name":"","type":"bytes32","internalType":"bytes32"}],"stateMutability":"view"},{"type":"function","name":"PRESALE_CAP","inputs":[],"outputs":[{"name":"","type":"uint256","internalType":"uint256"}],"stateMutability":"view"},{"type":"function","name":"acceptOwnership","inputs":[],"outputs":[],"stateMutability":"nonpayable"},{"type":"function","name":"allowance","inputs":[{"name":"owner_","type":"address","internalType":"address"},{"name":"spender","type":"address","internalType":"address"}],"outputs":[{"name":"","type":"uint256","internalType":"uint256"}],"stateMutability":"view"},{"type":"function","name":"approve","inputs":[{"name":"spender","type":"address","internalType":"address"},{"name":"amount","type":"uint256","internalType":"uint256"}],"outputs":[{"name":"","type":"bool","internalType":"bool"}],"stateMutability":"nonpayable"},{"type":"function","name":"balanceOf","inputs":[{"name":"account","type":"address","internalType":"address"}],"outputs":[{"name":"","type":"uint256","internalType":"uint256"}],"stateMutability":"view"},{"type":"function","name":"burnRouter","inputs":[],"outputs":[{"name":"","type":"address","internalType":"contract IProofScoreBurnRouterToken"}],"stateMutability":"view"},{"type":"function","name":"canTransfer","inputs":[{"name":"from","type":"address","internalType":"address"},{"name":"to","type":"address","internalType":"address"},{"name":"amount","type":"uint256","internalType":"uint256"}],"outputs":[{"name":"canDo","type":"bool","internalType":"bool"},{"name":"reason","type":"string","internalType":"string"}],"stateMutability":"view"},{"type":"function","name":"cancelOwnershipTransfer","inputs":[],"outputs":[],"stateMutability":"nonpayable"},{"type":"function","name":"circuitBreaker","inputs":[],"outputs":[{"name":"","type":"bool","internalType":"bool"}],"stateMutability":"view"},{"type":"function","name":"circuitBreakerExpiry","inputs":[],"outputs":[{"name":"","type":"uint256","internalType":"uint256"}],"stateMutability":"view"},{"type":"function","name":"cooldownRemaining","inputs":[{"name":"account","type":"address","internalType":"address"}],"outputs":[{"name":"","type":"uint256","internalType":"uint256"}],"stateMutability":"view"},{"type":"function","name":"dailyResetTime","inputs":[{"name":"","type":"address","internalType":"address"}],"outputs":[{"name":"","type":"uint256","internalType":"uint256"}],"stateMutability":"view"},{"type":"function","name":"dailyTransferLimit","inputs":[],"outputs":[{"name":"","type":"uint256","internalType":"uint256"}],"stateMutability":"view"},{"type":"function","name":"dailyTransferred","inputs":[{"name":"","type":"address","internalType":"address"}],"outputs":[{"name":"","type":"uint256","internalType":"uint256"}],"stateMutability":"view"},{"type":"function","name":"decimals","inputs":[],"outputs":[{"name":"","type":"uint8","internalType":"uint8"}],"stateMutability":"view"},{"type":"function","name":"decreaseAllowance","inputs":[{"name":"spender","type":"address","internalType":"address"},{"name":"subtracted","type":"uint256","internalType":"uint256"}],"outputs":[{"name":"","type":"bool","internalType":"bool"}],"stateMutability":"nonpayable"},{"type":"function","name":"freezeTime","inputs":[{"name":"","type":"address","internalType":"address"}],"outputs":[{"name":"","type":"uint64","internalType":"uint64"}],"stateMutability":"view"},{"type":"function","name":"getDailyTransferStats","inputs":[{"name":"user","type":"address","internalType":"address"}],"outputs":[{"name":"transferred","type":"uint256","internalType":"uint256"},{"name":"limit","type":"uint256","internalType":"uint256"},{"name":"remaining","type":"uint256","internalType":"uint256"},{"name":"resetTime","type":"uint256","internalType":"uint256"},{"name":"nextResetTime","type":"uint256","internalType":"uint256"}],"stateMutability":"view"},{"type":"function","name":"getTransferLimitsFor","inputs":[{"name":"account","type":"address","internalType":"address"}],"outputs":[{"name":"maxPerTransfer","type":"uint256","internalType":"uint256"},{"name":"maxWallet","type":"uint256","internalType":"uint256"},{"name":"dailyLimit","type":"uint256","internalType":"uint256"},{"name":"dailyRemaining","type":"uint256","internalType":"uint256"},{"name":"cooldownSecs","type":"uint256","internalType":"uint256"},{"name":"cooldownRemain","type":"uint256","internalType":"uint256"},{"name":"isExempt","type":"bool","internalType":"bool"}],"stateMutability":"view"},{"type":"function","name":"increaseAllowance","inputs":[{"name":"spender","type":"address","internalType":"address"},{"name":"added","type":"uint256","internalType":"uint256"}],"outputs":[{"name":"","type":"bool","internalType":"bool"}],"stateMutability":"nonpayable"},{"type":"function","name":"isBlacklisted","inputs":[{"name":"","type":"address","internalType":"address"}],"outputs":[{"name":"","type":"bool","internalType":"bool"}],"stateMutability":"view"},{"type":"function","name":"isCircuitBreakerActive","inputs":[],"outputs":[{"name":"","type":"bool","internalType":"bool"}],"stateMutability":"view"},{"type":"function","name":"isFrozen","inputs":[{"name":"","type":"address","internalType":"address"}],"outputs":[{"name":"","type":"bool","internalType":"bool"}],"stateMutability":"view"},{"type":"function","name":"lastTransferTime","inputs":[{"name":"","type":"address","internalType":"address"}],"outputs":[{"name":"","type":"uint256","internalType":"uint256"}],"stateMutability":"view"},{"type":"function","name":"ledger","inputs":[],"outputs":[{"name":"","type":"address","internalType":"contract IProofLedger"}],"stateMutability":"view"},{"type":"function","name":"lockPolicy","inputs":[],"outputs":[],"stateMutability":"nonpayable"},{"type":"function","name":"maxTransferAmount","inputs":[],"outputs":[{"name":"","type":"uint256","internalType":"uint256"}],"stateMutability":"view"},{"type":"function","name":"maxWalletBalance","inputs":[],"outputs":[{"name":"","type":"uint256","internalType":"uint256"}],"stateMutability":"view"},{"type":"function","name":"name","inputs":[],"outputs":[{"name":"","type":"string","internalType":"string"}],"stateMutability":"view"},{"type":"function","name":"nonces","inputs":[{"name":"","type":"address","internalType":"address"}],"outputs":[{"name":"","type":"uint256","internalType":"uint256"}],"stateMutability":"view"},{"type":"function","name":"owner","inputs":[],"outputs":[{"name":"","type":"address","internalType":"address"}],"stateMutability":"view"},{"type":"function","name":"pendingOwner","inputs":[],"outputs":[{"name":"","type":"address","internalType":"address"}],"stateMutability":"view"},{"type":"function","name":"permit","inputs":[{"name":"owner","type":"address","internalType":"address"},{"name":"spender","type":"address","internalType":"address"},{"name":"value","type":"uint256","internalType":"uint256"},{"name":"deadline","type":"uint256","internalType":"uint256"},{"name":"v","type":"uint8","internalType":"uint8"},{"name":"r","type":"bytes32","internalType":"bytes32"},{"name":"s","type":"bytes32","internalType":"bytes32"}],"outputs":[],"stateMutability":"nonpayable"},{"type":"function","name":"policyLocked","inputs":[],"outputs":[{"name":"","type":"bool","internalType":"bool"}],"stateMutability":"view"},{"type":"function","name":"presaleContract","inputs":[],"outputs":[{"name":"","type":"address","internalType":"address"}],"stateMutability":"view"},{"type":"function","name":"previewTransferFees","inputs":[{"name":"from","type":"address","internalType":"address"},{"name":"to","type":"address","internalType":"address"},{"name":"amount","type":"uint256","internalType":"uint256"}],"outputs":[{"name":"burnAmount","type":"uint256","internalType":"uint256"},{"name":"sanctumAmount","type":"uint256","internalType":"uint256"},{"name":"ecosystemAmount","type":"uint256","internalType":"uint256"},{"name":"netReceived","type":"uint256","internalType":"uint256"}],"stateMutability":"view"},{"type":"function","name":"remainingDailyLimit","inputs":[{"name":"account","type":"address","internalType":"address"}],"outputs":[{"name":"","type":"uint256","internalType":"uint256"}],"stateMutability":"view"},{"type":"function","name":"sanctumSink","inputs":[],"outputs":[{"name":"","type":"address","internalType":"address"}],"stateMutability":"view"},{"type":"function","name":"securityHub","inputs":[],"outputs":[{"name":"","type":"address","internalType":"contract ISecurityHub"}],"stateMutability":"view"},{"type":"function","name":"setAntiWhale","inputs":[{"name":"_maxTransfer","type":"uint256","internalType":"uint256"},{"name":"_maxWallet","type":"uint256","internalType":"uint256"},{"name":"_dailyLimit","type":"uint256","internalType":"uint256"},{"name":"_cooldown","type":"uint256","internalType":"uint256"}],"outputs":[],"stateMutability":"nonpayable"},{"type":"function","name":"setBlacklist","inputs":[{"name":"user","type":"address","internalType":"address"},{"name":"status","type":"bool","internalType":"bool"}],"outputs":[],"stateMutability":"nonpayable"},{"type":"function","name":"setBurnRouter","inputs":[{"name":"router","type":"address","internalType":"address"}],"outputs":[],"stateMutability":"nonpayable"},{"type":"function","name":"setCircuitBreaker","inputs":[{"name":"_active","type":"bool","internalType":"bool"},{"name":"_duration","type":"uint256","internalType":"uint256"}],"outputs":[],"stateMutability":"nonpayable"},{"type":"function","name":"setFrozen","inputs":[{"name":"user","type":"address","internalType":"address"},{"name":"frozen","type":"bool","internalType":"bool"}],"outputs":[],"stateMutability":"nonpayable"},{"type":"function","name":"setLedger","inputs":[{"name":"_ledger","type":"address","internalType":"address"}],"outputs":[],"stateMutability":"nonpayable"},{"type":"function","name":"setSanctumSink","inputs":[{"name":"_sanctum","type":"address","internalType":"address"}],"outputs":[],"stateMutability":"nonpayable"},{"type":"function","name":"setSecurityHub","inputs":[{"name":"hub","type":"address","internalType":"address"}],"outputs":[],"stateMutability":"nonpayable"},{"type":"function","name":"setSystemExempt","inputs":[{"name":"who","type":"address","internalType":"address"},{"name":"isExempt","type":"bool","internalType":"bool"}],"outputs":[],"stateMutability":"nonpayable"},{"type":"function","name":"setTreasurySink","inputs":[{"name":"sink","type":"address","internalType":"address"}],"outputs":[],"stateMutability":"nonpayable"},{"type":"function","name":"setVaultHub","inputs":[{"name":"hub","type":"address","internalType":"address"}],"outputs":[],"stateMutability":"nonpayable"},{"type":"function","name":"setVaultOnly","inputs":[{"name":"enabled","type":"bool","internalType":"bool"}],"outputs":[],"stateMutability":"nonpayable"},{"type":"function","name":"setWhaleLimitExempt","inputs":[{"name":"addr","type":"address","internalType":"address"},{"name":"exempt","type":"bool","internalType":"bool"}],"outputs":[],"stateMutability":"nonpayable"},{"type":"function","name":"setWhitelist","inputs":[{"name":"addr","type":"address","internalType":"address"},{"name":"status","type":"bool","internalType":"bool"}],"outputs":[],"stateMutability":"nonpayable"},{"type":"function","name":"symbol","inputs":[],"outputs":[{"name":"","type":"string","internalType":"string"}],"stateMutability":"view"},{"type":"function","name":"systemExempt","inputs":[{"name":"","type":"address","internalType":"address"}],"outputs":[{"name":"","type":"bool","internalType":"bool"}],"stateMutability":"view"},{"type":"function","name":"totalSupply","inputs":[],"outputs":[{"name":"","type":"uint256","internalType":"uint256"}],"stateMutability":"view"},{"type":"function","name":"transfer","inputs":[{"name":"to","type":"address","internalType":"address"},{"name":"amount","type":"uint256","internalType":"uint256"}],"outputs":[{"name":"","type":"bool","internalType":"bool"}],"stateMutability":"nonpayable"},{"type":"function","name":"transferCooldown","inputs":[],"outputs":[{"name":"","type":"uint256","internalType":"uint256"}],"stateMutability":"view"},{"type":"function","name":"transferFrom","inputs":[{"name":"from","type":"address","internalType":"address"},{"name":"to","type":"address","internalType":"address"},{"name":"amount","type":"uint256","internalType":"uint256"}],"outputs":[{"name":"","type":"bool","internalType":"bool"}],"stateMutability":"nonpayable"},{"type":"function","name":"transferOwnership","inputs":[{"name":"newOwner","type":"address","internalType":"address"}],"outputs":[],"stateMutability":"nonpayable"},{"type":"function","name":"treasurySink","inputs":[],"outputs":[{"name":"","type":"address","internalType":"address"}],"stateMutability":"view"},{"type":"function","name":"vaultHub","inputs":[],"outputs":[{"name":"","type":"address","internalType":"contract IVaultHub"}],"stateMutability":"view"},{"type":"function","name":"vaultOnly","inputs":[],"outputs":[{"name":"","type":"bool","internalType":"bool"}],"stateMutability":"view"},{"type":"function","name":"whaleLimitExempt","inputs":[{"name":"","type":"address","internalType":"address"}],"outputs":[{"name":"","type":"bool","internalType":"bool"}],"stateMutability":"view"},{"type":"function","name":"whitelisted","inputs":[{"name":"","type":"address","internalType":"address"}],"outputs":[{"name":"","type":"bool","internalType":"bool"}],"stateMutability":"view"},{"type":"event","name":"AntiWhaleSet","inputs":[{"name":"maxTransfer","type":"uint256","indexed":false,"internalType":"uint256"},{"name":"maxWallet","type":"uint256","indexed":false,"internalType":"uint256"},{"name":"dailyLimit","type":"uint256","indexed":false,"internalType":"uint256"},{"name":"cooldown","type":"uint256","indexed":false,"internalType":"uint256"}],"anonymous":false},{"type":"event","name":"Approval","inputs":[{"name":"owner","type":"address","indexed":true,"internalType":"address"},{"name":"spender","type":"address","indexed":true,"internalType":"address"},{"name":"value","type":"uint256","indexed":false,"internalType":"uint256"}],"anonymous":false},{"type":"event","name":"BlacklistSet","inputs":[{"name":"user","type":"address","indexed":true,"internalType":"address"},{"name":"status","type":"bool","indexed":false,"internalType":"bool"},{"name":"setBy","type":"address","indexed":true,"internalType":"address"}],"anonymous":false},{"type":"event","name":"BurnRouterSet","inputs":[{"name":"router","type":"address","indexed":true,"internalType":"address"}],"anonymous":false},{"type":"event","name":"CircuitBreakerSet","inputs":[{"name":"active","type":"bool","indexed":false,"internalType":"bool"},{"name":"expiry","type":"uint256","indexed":false,"internalType":"uint256"}],"anonymous":false},{"type":"event","name":"ExemptSet","inputs":[{"name":"target","type":"address","indexed":true,"internalType":"address"},{"name":"exempt","type":"bool","indexed":false,"internalType":"bool"}],"anonymous":false},{"type":"event","name":"FeeApplied","inputs":[{"name":"from","type":"address","indexed":true,"internalType":"address"},{"name":"to","type":"address","indexed":true,"internalType":"address"},{"name":"burnAmount","type":"uint256","indexed":false,"internalType":"uint256"},{"name":"sanctumAmount","type":"uint256","indexed":false,"internalType":"uint256"},{"name":"ecosystemAmount","type":"uint256","indexed":false,"internalType":"uint256"},{"name":"sanctumSink","type":"address","indexed":true,"internalType":"address"},{"name":"ecosystemSink","type":"address","indexed":false,"internalType":"address"}],"anonymous":false},{"type":"event","name":"FrozenSet","inputs":[{"name":"user","type":"address","indexed":true,"internalType":"address"},{"name":"frozen","type":"bool","indexed":false,"internalType":"bool"},{"name":"setBy","type":"address","indexed":true,"internalType":"address"}],"anonymous":false},{"type":"event","name":"LedgerSet","inputs":[{"name":"ledger","type":"address","indexed":true,"internalType":"address"}],"anonymous":false},{"type":"event","name":"OwnershipTransferStarted","inputs":[{"name":"previousOwner","type":"address","indexed":true,"internalType":"address"},{"name":"newOwner","type":"address","indexed":true,"internalType":"address"}],"anonymous":false},{"type":"event","name":"OwnershipTransferred","inputs":[{"name":"previousOwner","type":"address","indexed":true,"internalType":"address"},{"name":"newOwner","type":"address","indexed":true,"internalType":"address"}],"anonymous":false},{"type":"event","name":"PolicyLocked","inputs":[],"anonymous":false},{"type":"event","name":"PresaleContractSet","inputs":[{"name":"presale","type":"address","indexed":true,"internalType":"address"}],"anonymous":false},{"type":"event","name":"SanctumSinkSet","inputs":[{"name":"sink","type":"address","indexed":true,"internalType":"address"}],"anonymous":false},{"type":"event","name":"SecurityHubSet","inputs":[{"name":"hub","type":"address","indexed":true,"internalType":"address"}],"anonymous":false},{"type":"event","name":"SystemExemptSet","inputs":[{"name":"who","type":"address","indexed":true,"internalType":"address"},{"name":"isExempt","type":"bool","indexed":false,"internalType":"bool"}],"anonymous":false},{"type":"event","name":"Transfer","inputs":[{"name":"from","type":"address","indexed":true,"internalType":"address"},{"name":"to","type":"address","indexed":true,"internalType":"address"},{"name":"value","type":"uint256","indexed":false,"internalType":"uint256"}],"anonymous":false},{"type":"event","name":"TreasurySinkSet","inputs":[{"name":"sink","type":"address","indexed":true,"internalType":"address"}],"anonymous":false},{"type":"event","name":"VaultHubSet","inputs":[{"name":"hub","type":"address","indexed":true,"internalType":"address"}],"anonymous":false},{"type":"event","name":"VaultOnlySet","inputs":[{"name":"enabled","type":"bool","indexed":false,"internalType":"bool"}],"anonymous":false},{"type":"event","name":"WhaleLimitExemptSet","inputs":[{"name":"addr","type":"address","indexed":true,"internalType":"address"},{"name":"exempt","type":"bool","indexed":false,"internalType":"bool"}],"anonymous":false},{"type":"event","name":"Whitelisted","inputs":[{"name":"addr","type":"address","indexed":true,"internalType":"address"},{"name":"status","type":"bool","indexed":false,"internalType":"bool"}],"anonymous":false},{"type":"error","name":"Token_NotVault","inputs":[]},{"type":"error","name":"VF_CAP","inputs":[]},{"type":"error","name":"VF_DailyLimitExceeded","inputs":[]},{"type":"error","name":"VF_LOCKED","inputs":[]},{"type":"error","name":"VF_MaxTransferExceeded","inputs":[]},{"type":"error","name":"VF_MaxWalletExceeded","inputs":[]},{"type":"error","name":"VF_POLICY_LOCKED","inputs":[]},{"type":"error","name":"VF_TransferCooldown","inputs":[]},{"type":"error","name":"VF_ZERO","inputs":[]}],"bytecode":{"object":"0x608080604052346105795760c081614440803803809161001f82856106b0565b83398101031261057957610032816106e7565b9061003f602082016106e7565b61004b604083016106e7565b610057606084016106e7565b61006f60a0610068608087016106e7565b95016106e7565b5f80546001600160a01b0319163390811782556040519792917f8be0079c531659141344cd1fd0a4f28419497f9722a3daafe3b4186f6b6457e08180a360016002556a01a784379d99db420000006003556a034f086f3b33b6840000006004556a0422ca8b0a00a4250000006005555f60068190556011805462ffffff60a01b1916600160a01b1790556012556001600160a01b0382169081156106a1576001600160a01b0386169485156106a1576001600160a01b03169788156106a157833b1561066a5750853b1561063157610438966103a2946001600160a01b0316806105f5575b506001600160a01b0316806105b9575b506001600160a01b03168061057d575b508360018060a01b03196015541617601555835f52601360205260405f20600160ff19825416179055837f44f2eda14b8ba74d08291fccb7fe6e96b0188538fb528966e0d02a84713f290d6020604051837f7188527286b7c8f39703bf108a472dc431dec1ab5e61b363c3ebb1f35ef67af15f80a260018152a2805f52600a60205260405f20600160ff19825416179055835f52600a60205260405f20600160ff19825416179055865f52600a60205260405f20600160ff198254161790556040516102416040826106b0565b600b81526a2b2324a222902a37b5b2b760a91b602090910152604080517f4ce082c216934f45765aa52f1d82612cdb513a49760946798ca41165309f978c9161028a90826106b0565b600181526020810190603160f81b82525190206040519060208201927f8b73c3c69bb8fe3d512ecc4cf759cc79239f7b179b0ffacaa9a75d522b39400f8452604083015260608201524660808201523060a082015260a081526102ee60c0826106b0565b519020601b556aa56fa5b99019a5c8000000600b55805f52600c6020526a295be96e6406697200000060405f20555f5f5160206144205f395f51905f5260206040516a295be96e640669720000008152a360405161034d6040826106b0565b601381527f7072656d696e745f6465765f72657365727665000000000000000000000000006020820152604051916103866040846106b0565b600a8352690d4c13481b1bd8dad95960b21b602084015261071f565b805f52600c6020526a295be96e6406697200000060405f20555f5f5160206144205f395f51905f5260206040516a295be96e640669720000008152a36040516103ec6040826106b0565b600f81526e7072656d696e745f70726573616c6560881b6020820152604051916104176040846106b0565b600f83526e35304d20666f722070726573616c6560881b602084015261071f565b805f52600c6020526a52b7d2dcc80cd2e400000060405f2055805f5f5160206144205f395f51905f5260206040516a52b7d2dcc80cd2e40000008152a36040516104836040826106b0565b601081526f7072656d696e745f747265617375727960801b6020820152604051916104af6040846106b0565b601383527f3130304d20666f72206f7065726174696f6e730000000000000000000000000060208401526010546001600160a01b0316806104fa575b604051613c6190816107bf8239f35b803b15610579575f92836105359361055860405197889687958694630303c28760e61b865260048601526080602486015260848501906106fb565b6a52b7d2dcc80cd2e40000006044850152838103600319016064850152906106fb565b03925af1610569575b8080806104eb565b5f610573916106b0565b5f610561565b5f80fd5b601680546001600160a01b031916821790557f3f2254a28ba18b54180672b4e5f33b7cbe996e44be5c1ebe9057f49e894cde315f80a25f610174565b601080546001600160a01b031916821790557fbc62e69a31739e36d57d56991ac20e4e507a7edfff9070e6a11df5a37b8b4e6f5f80a25f610164565b600e80546001600160a01b031916821790557fbb3d89b3025a50f5b3f9fc1bfe23194ad7fb05af4e31ab293af4a947960954d55f80a25f610154565b60405162461bcd60e51b81526020600482015260116024820152701c1c995cd85b19480858dbdb9d1c9858dd607a1b6044820152606490fd5b62461bcd60e51b815260206004820152601260248201527119195d95985d5b1d080858dbdb9d1c9858dd60721b6044820152606490fd5b63ebeb59ad60e01b5f5260045ffd5b601f909101601f19168101906001600160401b038211908210176106d357604052565b634e487b7160e01b5f52604160045260245ffd5b51906001600160a01b038216820361057957565b805180835260209291819084018484015e5f828201840152601f01601f1916010190565b6010546001600160a01b031680610737575b50505050565b803b15610579575f928361077a9361079d60405197889687958694630303c28760e61b865260018060a01b031660048601526080602486015260848501906106fb565b6a295be96e640669720000006044850152838103600319016064850152906106fb565b03925af16107ae575b808080610731565b5f6107b8916106b0565b5f6107a656fe6080806040526004361015610012575f80fd5b5f3560e01c90816306e0c52c14611f6c5750806306fdde0314611f1f5780630741206e14611e84578063095ea7b314611e5e5780630d2d8a3114611e2657806313d1ad0814611db1578063153b0d1e14611c2b57806316efd94114611c0657806318160ddd14611be9578063198803b114611a4d5780631dc4b09c1461199557806322a7caf51461197857806323452b9c1461194e57806323b872dd146118aa57806330adf81f1461188357806330e766841461184b578063313ce567146118305780633246887d1461179f57806332941ecb1461177b57806332cb6b0c146117565780633644e5151461173957806339509351146116f25780633c2f9fe41461153057806350140c061461150657806353d6fd591461141857806355545fb01461138157806356397c35146113595780636336f3ac1461126c57806363d9df851461124457806368f16293146112275780636c32b2ec146111ff5780636dd6e80b146111d757806370a082311461119f578063748ada521461117a57806379036e901461114257806379ba50971461109b5780637adc723d1461105e5780637ecebe00146110265780638bea4f2d14610ffe5780638da5cb5b14610fd757806395d89b4114610f9057806399e793a014610a8d5780639a03f22414610f115780639d82190f14610eee5780639dac064114610eab578063a34857cd14610def578063a457c2d714610d56578063a9059cbb14610d18578063a9e7572314610cfb578063ac41d29914610cbb578063ac869cd814610bf3578063b55e3f3a14610af4578063b692749714610ad7578063b72d294314610aaf578063bbde77c114610a92578063bd94fafc14610a8d578063beeeb4ce14610a65578063c4b740f51461096b578063d505accf1461073c578063d6b54735146106ff578063d7ae8942146106e3578063d936547e146106a6578063dd62ed3e14610656578063e30c39781461062e578063e46638e6146105f4578063e5839836146105b7578063f2fde38b14610511578063f497e873146104e6578063f714af6f146104c9578063fa0377661461036a5763fe575a8714610329575f80fd5b34610366576020366003190112610366576001600160a01b0361034a611fe9565b165f526018602052602060ff60405f2054166040519015158152f35b5f80fd5b3461036657604036600319011261036657610383612024565b60243561038e612b2b565b81156104b257801515806104a5575b15610469576011805460ff60b01b1916600160b01b1790556103bf904261210b565b6012555b7f04593f08e7dc4a4b3442a0009dff46944620bf6c71bde4a1fa3724b7d6bfe09e604060125481519084151582526020820152a1156104335761043160405161040d604082611f8e565b601281527131b4b931bab4ba2fb13932b0b5b2b92fb7b760711b6020820152612b74565b005b610431604051610444604082611f8e565b601381527231b4b931bab4ba2fb13932b0b5b2b92fb7b33360691b6020820152612b74565b60405162461bcd60e51b81526020600482015260146024820152732b231d1034b73b30b634b210323ab930ba34b7b760611b6044820152606490fd5b5062093a8081111561039d565b506011805460ff60b01b191690555f6012556103c3565b34610366575f366003190112610366576020600554604051908152f35b34610366576020366003190112610366576020610509610504611fe9565b612ac5565b604051908152f35b346103665760203660031901126103665761052a611fe9565b610532612b2b565b6001600160a01b0316801561058657600180546001600160a01b031916821790555f80546001600160a01b0316907f38d16b8cac22d99fc7c124b9cd0de2d3fa1faef420bfe791d8c362d765e227009080a3005b60405162461bcd60e51b81526020600482015260096024820152684f574e3a207a65726f60b81b6044820152606490fd5b34610366576020366003190112610366576001600160a01b036105d8611fe9565b165f526019602052602060ff60405f2054166040519015158152f35b346103665761060b61060536612033565b91612475565b9061062a60405192839215158352604060208401526040830190611fc5565b0390f35b34610366575f366003190112610366576001546040516001600160a01b039091168152602090f35b346103665760403660031901126103665761066f611fe9565b610677611fff565b6001600160a01b039182165f908152600d60209081526040808320949093168252928352819020549051908152f35b34610366576020366003190112610366576001600160a01b036106c7611fe9565b165f526014602052602060ff60405f2054166040519015158152f35b34610366575f366003190112610366576020604051610e108152f35b34610366576020366003190112610366576001600160a01b03610720611fe9565b165f526013602052602060ff60405f2054166040519015158152f35b346103665760e036600319011261036657610755611fe9565b61075d611fff565b604435906064356084359060ff82168092036103665780421161092c5762278d004201908142116108d957116108ed576001600160a01b0384165f818152601c602052604090208054919291905f1982146108d9576020928260809260015f95019055604051858101915f516020613c0c5f395f51905f52835287604083015260018060a01b0389166060830152898583015260a082015260a0815261080460c082611f8e565b519020601b5490604051908682019261190160f01b84526022830152604282015260428152610834606282611f8e565b519020906040519182528482015260a435604082015260c435606082015282805260015afa156108ce575f516001600160a01b03168015159190826108c4575b5050156108845761043192612be0565b60405162461bcd60e51b815260206004820152601860248201527756464944453a20696e76616c6964207369676e617475726560401b6044820152606490fd5b1490508480610874565b6040513d5f823e3d90fd5b634e487b7160e01b5f52601160045260245ffd5b60405162461bcd60e51b81526020600482015260176024820152762b2324a2229d103232b0b23634b732903a37b7903330b960491b6044820152606490fd5b60405162461bcd60e51b815260206004820152601760248201527656464944453a206578706972656420646561646c696e6560481b6044820152606490fd5b3461036657602036600319011261036657610984612024565b61098c612b2b565b60115460ff8160a81c1680610a5d575b610a4e5760ff60a01b191681151560a081901b60ff60a01b16919091176011556040519081527fc700a08714659bf8ab2121ea3f1f64e22835cf102ad9ba5d0816e55a23f6ea2c90602090a115610a1d576104316040516109fe604082611f8e565b600d81526c3b30bab63a2fb7b7363cafb7b760991b6020820152612b74565b610431604051610a2e604082611f8e565b600e81526d3b30bab63a2fb7b7363cafb7b33360911b6020820152612b74565b63015c1ff360e51b5f5260045ffd5b50811561099c565b34610366575f366003190112610366576017546040516001600160a01b039091168152602090f35b612089565b34610366575f366003190112610366576020600454604051908152f35b34610366575f36600319011261036657600f546040516001600160a01b039091168152602090f35b34610366575f36600319011261036657602060405162093a808152f35b3461036657602036600319011261036657610b0d611fe9565b610b15612b2b565b60ff60115460a81c16610ba0575b6001600160a01b0316610b378115156120ae565b601780546001600160a01b031916821790557fe99cdf96738a4659f820a0890f65abe82cce94da951e032d7abe61e5687ba2525f80a2610431604051610b7e604082611f8e565b601081526f1cd85b98dd1d5b57dcda5b9ad7dcd95d60821b6020820152612b74565b6001600160a01b038116610b235760405162461bcd60e51b815260206004820152601f60248201527f56463a2063616e6e6f7420736574207a65726f207768656e206c6f636b6564006044820152606490fd5b3461036657604036600319011261036657610c0c611fe9565b610c14612015565b90610c1d612b2b565b6001600160a01b03165f818152601960205260409020610c3e9083906120ed565b8115610c9b575f818152601a6020526040902080546001600160401b031916426001600160401b03161790555b60405191151582527f0a85b4f485f69ad2f3adfe863c3129f2ce56bc6437a23b0db9bb4de47475d06460203393a3005b5f818152601a6020526040902080546001600160401b0319169055610c6b565b34610366576020366003190112610366576001600160a01b03610cdc611fe9565b165f52601a602052602060018060401b0360405f205416604051908152f35b34610366575f366003190112610366576020600354604051908152f35b3461036657604036600319011261036657610d46610d34611fe9565b610d3c612c8f565b6024359033612cd1565b6001600255602060405160018152f35b3461036657604036600319011261036657610d6f611fe9565b60243590335f52600d60205260405f2060018060a01b0382165f5260205260405f2054828110610db857610dad92610da6916120fe565b9033612be0565b602060405160018152f35b60405162461bcd60e51b815260206004820152600f60248201526e616c6c6f7720756e646572666c6f7760881b6044820152606490fd5b3461036657602036600319011261036657610e08611fe9565b610e10612b2b565b60ff60115460a81c1680610e9a575b610a4e57601680546001600160a01b0319166001600160a01b039290921691821790557f3f2254a28ba18b54180672b4e5f33b7cbe996e44be5c1ebe9057f49e894cde315f80a2610431604051610e77604082611f8e565b60118152701d1c99585cdd5c9e57dcda5b9ad7dcd95d607a1b6020820152612b74565b506001600160a01b03811615610e1f565b346103665760203660031901126103665760a0610ece610ec9611fe9565b612385565b926040929192519485526020850152604084015260608301526080820152f35b34610366576020366003190112610366576020610509610f0c611fe9565b612329565b34610366575f36600319011261036657610f29612b2b565b6011805460ff60a81b1916600160a81b1790557f3ce392d8aa0912d44ce27fbdd025b988ec76fd2b53f0ab8b479ed539069d2b345f80a1610431604051610f71604082611f8e565b600d81526c1c1bdb1a58de57db1bd8dad959609a1b6020820152612b74565b34610366575f3660031901126103665761062a604051610fb1604082611f8e565b6005815264564649444560d81b6020820152604051918291602083526020830190611fc5565b34610366575f366003190112610366575f546040516001600160a01b039091168152602090f35b34610366575f366003190112610366576016546040516001600160a01b039091168152602090f35b34610366576020366003190112610366576001600160a01b03611047611fe9565b165f52601c602052602060405f2054604051908152f35b34610366576020366003190112610366576001600160a01b0361107f611fe9565b165f52600a602052602060ff60405f2054166040519015158152f35b34610366575f366003190112610366576001546001600160a01b0381163303611104575f543360018060a01b0382167f8be0079c531659141344cd1fd0a4f28419497f9722a3daafe3b4186f6b6457e05f80a36001600160a01b031990811633175f5516600155005b60405162461bcd60e51b815260206004820152601660248201527527aba71d103737ba103832b73234b7339037bbb732b960511b6044820152606490fd5b34610366576020366003190112610366576001600160a01b03611163611fe9565b165f526007602052602060405f2054604051908152f35b34610366575f36600319011261036657602060ff60115460a81c166040519015158152f35b34610366576020366003190112610366576001600160a01b036111c0611fe9565b165f52600c602052602060405f2054604051908152f35b34610366575f36600319011261036657600e546040516001600160a01b039091168152602090f35b34610366575f366003190112610366576011546040516001600160a01b039091168152602090f35b34610366575f366003190112610366576020600654604051908152f35b34610366575f366003190112610366576015546040516001600160a01b039091168152602090f35b3461036657604036600319011261036657610431611288611fe9565b611290612015565b611298612b2b565b6001600160a01b0382166112ad8115156120ae565b805f5260136020526112c28260405f206120ed565b7f44f2eda14b8ba74d08291fccb7fe6e96b0188538fb528966e0d02a84713f290d60206040518415158152a21561132f57604051611301604082611f8e565b600981526832bc32b6b83a2fb7b760b91b60208201525b60405191611327602084611f8e565b5f83526138fa565b60405161133d604082611f8e565b600a81526932bc32b6b83a2fb7b33360b11b6020820152611318565b34610366575f366003190112610366576010546040516001600160a01b039091168152602090f35b346103665760203660031901126103665761139a611fe9565b6113a2612b2b565b600f80546001600160a01b0319166001600160a01b039290921691821790557fd15414d216acba4fd6e41103922663a24e3ac895d383ad66e7be0c48115d5b1e5f80a26104316040516113f6604082611f8e565b601081526f1cd958dd5c9a5d1e57da1d5897dcd95d60821b6020820152612b74565b3461036657604036600319011261036657610431611434611fe9565b61143c612015565b611444612b2b565b6001600160a01b0382166114598115156120ae565b805f52601460205261146e8260405f206120ed565b7fa54714518c5d275fdcd3d2a461e4858e4e8cb04fb93cd0bca9d6d34115f2644060206040518415158152a2156114d6576040516114ad604082611f8e565b600d81526c1dda1a5d195b1a5cdd17d85919609a1b602082015260405191611327602084611f8e565b6040516114e4604082611f8e565b601081526f77686974656c6973745f72656d6f766560801b6020820152611318565b346103665761062a61152061151a36612033565b916121fe565b906040949294519485948561206d565b3461036657608036600319011261036657606435602435600435604435611555612b2b565b816116b0575b8261166e575b8061162c575b836115e7575b7fdd527915e4785ab4e44c56581b4895b2cf4ce1414470508ea4a3d00623fba914936115af91836003558460045580600555816006556040519485948561206d565b0390a16104316040516115c3604082611f8e565b6012815271185b9d1a57ddda185b1957dd5c19185d195960721b6020820152612b74565b610e1084111561156d5760405162461bcd60e51b815260206004820152601360248201527236b0bc1018903437bab91031b7b7b63237bbb760691b6044820152606490fd5b6969e10de76676d08000008110156115675760405162461bcd60e51b81526020600482015260086024820152676d696e203530306b60c01b6044820152606490fd5b692a5a058fc295ed0000008310156115615760405162461bcd60e51b81526020600482015260086024820152676d696e203230306b60c01b6044820152606490fd5b69152d02c7e14af680000082101561155b5760405162461bcd60e51b81526020600482015260086024820152676d696e203130306b60c01b6044820152606490fd5b3461036657604036600319011261036657610dad61170e611fe9565b335f52600d60205260405f2060018060a01b0382165f52602052610da660405f20602435905461210b565b34610366575f366003190112610366576020601b54604051908152f35b34610366575f3660031901126103665760206040516aa56fa5b99019a5c80000008152f35b34610366575f366003190112610366576020611795612151565b6040519015158152f35b34610366576020366003190112610366576117b8611fe9565b6117c0612b2b565b601080546001600160a01b0319166001600160a01b039290921691821790557fbc62e69a31739e36d57d56991ac20e4e507a7edfff9070e6a11df5a37b8b4e6f5f80a2610431604051611814604082611f8e565b600a8152691b195919d95c97dcd95d60b21b6020820152612b74565b34610366575f36600319011261036657602060405160128152f35b34610366576020366003190112610366576001600160a01b0361186c611fe9565b165f526008602052602060405f2054604051908152f35b34610366575f3660031901126103665760206040515f516020613c0c5f395f51905f528152f35b34610366576118b836612033565b906118c1612c8f565b335f5260186020526118da60ff60405f20541615612118565b6001600160a01b0383165f908152600d60209081526040808320338452909152902054928284106119215761191c61191584610d46966120fe565b3383612be0565b612cd1565b60405162461bcd60e51b8152602060048201526005602482015264616c6c6f7760d81b6044820152606490fd5b34610366575f36600319011261036657611966612b2b565b600180546001600160a01b0319169055005b34610366575f366003190112610366576020601254604051908152f35b34610366576020366003190112610366576119ae611fe9565b6119b6612b2b565b6011549060ff8260a81c1680611a3c575b610a4e576001600160a01b03166001600160a01b03199190911681176011557faf9b9a8ca16be293d721c9b992abdb79c8c7a18ed68c393cc10deeaf4b2f99775f80a2610431604051611a1b604082611f8e565b600f81526e189d5c9b97dc9bdd5d195c97dcd95d608a1b6020820152612b74565b506001600160a01b038116156119c7565b346103665760203660031901126103665760e0611a68611fe9565b6001600160a01b03165f818152600a602052604090205460ff16908115611bd1575b8115611ac257505f19905f808380805b604051968752602087015260408601526060850152608084015260a0830152151560c0820152f35b6003549091908015611bc9575b6004549092908015611bc1575b9060055480151590815f14611bba57805b9115611bb157825f5260086020526201518060405f205404620151804204115f14611b7857905b6006549283151580611b63575b15611b5b575f526009602052611b3b8360405f205461210b565b428111611b4b57505f5b93611a9a565b611b569042906120fe565b611b45565b505f93611a9a565b50805f52600960205260405f20541515611b21565b5f838152600760205260409020548111611b9457505f90611b14565b611bab90835f52600760205260405f2054906120fe565b90611b14565b505f1990611b14565b5f19611aed565b505f19611adc565b505f19611acf565b8091505f52601360205260ff60405f20541690611a8a565b34610366575f366003190112610366576020600b54604051908152f35b34610366575f36600319011261036657602060ff60115460b01c166040519015158152f35b3461036657604036600319011261036657611c44611fe9565b611c4c612015565b9081611c56612b2b565b611ce0575b60018060a01b0316805f52601860205281611c798160405f206120ed565b611cae575b60405191151582527f4edd9bb92fa41bc25fb64fc24645bea26691eff97f54d2db5362a3f986c188e960203393a3005b5f818152601960209081526040808320805460ff19169055601a909152902080546001600160401b0319169055611c7e565b6001600160a01b0381165f8181526019602052604090205460ff1615611d74575f908152601a60205260409020546001600160401b03908116610e10019081116108d9576001600160401b0316421015611c5b5760405162461bcd60e51b815260206004820152601860248201527715918e88199c99595e994819195b185e481b9bdd081b595d60421b6044820152606490fd5b60405162461bcd60e51b815260206004820152601560248201527415918e881b5d5cdd08199c99595e9948199a5c9cdd605a1b6044820152606490fd5b3461036657604036600319011261036657611dca611fe9565b7fe355751d29baf3bbcbfb4f9db660bfdf038ac8076722a3cb9ed1807250c1f7b06020611df5612015565b92611dfe612b2b565b60018060a01b031692835f52600a8252611e1b8160405f206120ed565b6040519015158152a2005b34610366576020366003190112610366576001600160a01b03611e47611fe9565b165f526009602052602060405f2054604051908152f35b3461036657604036600319011261036657610dad611e7a611fe9565b6024359033612be0565b3461036657602036600319011261036657611e9d611fe9565b611ea5612b2b565b6001600160a01b0316611eb98115156120ae565b600e80546001600160a01b031916821790557fbb3d89b3025a50f5b3f9fc1bfe23194ad7fb05af4e31ab293af4a947960954d55f80a2610431604051611f00604082611f8e565b600d81526c1d985d5b1d17da1d5897dcd95d609a1b6020820152612b74565b34610366575f3660031901126103665761062a604051611f40604082611f8e565b600b81526a2b2324a222902a37b5b2b760a91b6020820152604051918291602083526020830190611fc5565b34610366575f3660031901126103665760209060ff60115460a01c1615158152f35b601f909101601f19168101906001600160401b03821190821017611fb157604052565b634e487b7160e01b5f52604160045260245ffd5b805180835260209291819084018484015e5f828201840152601f01601f1916010190565b600435906001600160a01b038216820361036657565b602435906001600160a01b038216820361036657565b60243590811515820361036657565b60043590811515820361036657565b6060906003190112610366576004356001600160a01b038116810361036657906024356001600160a01b0381168103610366579060443590565b9094939260609260808301968352602083015260408201520152565b34610366575f3660031901126103665760206040516a295be96e640669720000008152f35b156120b557565b60405162461bcd60e51b815260206004820152601060248201526f56463a207a65726f206164647265737360801b6044820152606490fd5b9060ff801983541691151516179055565b919082039182116108d957565b919082018092116108d957565b1561211f57565b60405162461bcd60e51b815260206004820152600a60248201526914d85b98dd1a5bdb995960b21b6044820152606490fd5b60ff60115460b01c161561217657601254801515908161217a575b5061217657600190565b5f90565b90504210155f61216c565b51906001600160a01b038216820361036657565b91908260c0910312610366578151916020810151916040820151916121c060608201612185565b916121d960a06121d260808501612185565b9301612185565b90565b6001600160a01b03918216815291166020820152604081019190915260600190565b9092919260018060a01b0382165f5260136020528360ff60405f2054168015612305575b80156122f2575b80156122e4575b6122d85760115460405163252f15f560e01b81529360c09385936001600160a01b0390931692849283926122689291600485016121dc565b03915afa9182156108ce575f925f925f91612299575b50806122946121d99294612294819780996120fe565b6120fe565b90506121d993506122c391925060c03d60c0116122d1575b6122bb8183611f8e565b810190612199565b50505092919390929061227e565b503d6122b1565b5050505f915f915f9190565b506122ed612151565b612230565b506011546001600160a01b031615612229565b50506001600160a01b0381165f90815260136020526040902054849060ff16612222565b60065490811561237f576001600160a01b03165f818152600960205260409020549091901561237f57612367915f52600960205260405f205461210b565b8042101561237a576121d99042906120fe565b505f90565b50505f90565b6001600160a01b03165f818152600a602052604090205490919060ff16801561245f575b612451576005549062015180420492805f5260086020526201518060405f205404908185115f146124015750505f928291620151808202918083046201518014901517156108d9576201518082018083116108d95790565b5f908152600760205260409020549350828410612442575f5b91620151808202918083046201518014901517156108d9576201518082018083116108d95790565b61244c84846120fe565b61241a565b5f91505f1990819083908190565b50815f52601360205260ff60405f2054166123a9565b6001600160a01b0381165f818152601860205260409020549293919260ff16612a8f576001600160a01b0384165f8181526018602052604090205490929060ff16612a5557815f52600c6020528060405f205410612a1c57815f52600a60205260ff60405f2054161580612a05575b806129ee575b806129d7575b806129ce575b806129c5575b6127e1575b5060ff60115460a01c16806127cd575b612633575b5050600f546001600160a01b0316151580612624575b61254a575b5050600190604051612544602082611f8e565b5f815290565b61255661255c91613abf565b91613abf565b906001600160a01b03811615159081612614575b506125dd576001600160a01b038116151590816125cd575b50612594575f80612531565b5f906040516125a4604082611f8e565b6019815278149958da5c1a595b9d081d985d5b1d081a5cc81b1bd8dad959603a1b602082015290565b6125d79150613b41565b5f612588565b505f906040516125ee604082611f8e565b601681527514d95b99195c881d985d5b1d081a5cc81b1bd8dad95960521b602082015290565b61261e9150613b41565b5f612570565b5061262d612151565b1561252c565b80159081156127b5575b811561279e575b50801561278f575b8015612780575b811591821561276b575b8215612756575b821561273e575b8215612726575b508115612715575b8115612704575b156126cc5715612692575f80612516565b50505f906040516126a4604082611f8e565b6018815277149958da5c1a595b9d081b5d5cdd081d5cd9481d985d5b1d60421b602082015290565b5050505f906040516126df604082611f8e565b601581527414d95b99195c881b5d5cdd081d5cd9481d985d5b1d605a1b602082015290565b905061270f83613a26565b90612681565b9050612720836139a6565b9061267a565b5f9081526014602052604081205460ff169250612672565b8092505f52601360205260ff60405f2054169161266b565b6017546001600160a01b031681149250612664565b6016546001600160a01b03168114925061265d565b5061278a82613a26565b612653565b50612799826139a6565b61264c565b90505f52601460205260ff60405f2054165f612644565b8091505f52601360205260ff60405f2054169061263d565b50600e546001600160a01b03161515612511565b60035480151590816129bb575b5061297b57600454801515908161295c575b5061291d576005549081612895575b505060065480151580612880575b156125015761283890825f52600960205260405f205461210b565b4210612844575f612501565b505050505f90604051612858604082611f8e565b60188152775472616e7366657220636f6f6c646f776e2061637469766560401b602082015290565b50815f52600960205260405f2054151561281d565b825f52600760205260405f205490835f5260086020526201518060405f205404620151804204146128c7575b5061280f565b6128d09161210b565b116128dd575f80806128c1565b505050505f906040516128f1604082611f8e565b601c81527b115e18d959591cc819185a5b1e481d1c985b9cd9995c881b1a5b5a5d60221b602082015290565b50505050505f90604051612932604082611f8e565b601a81527945786365656473206d61782077616c6c65742062616c616e636560301b602082015290565b9050835f52600c6020526129748260405f205461210b565b115f612800565b50505050505f90604051612990604082611f8e565b601b81527a115e18d959591cc81b585e081d1c985b9cd9995c88185b5bdd5b9d602a1b602082015290565b905081115f6127ee565b508215156124fc565b508115156124f6565b50825f52601360205260ff60405f205416156124f0565b50815f52601360205260ff60405f205416156124ea565b50825f52600a60205260ff60405f205416156124e4565b50505050505f90604051612a31604082611f8e565b6014815273496e73756666696369656e742062616c616e636560601b602082015290565b50505050505f90604051612a6a604082611f8e565b6015815274149958da5c1a595b9d08189b1858dadb1a5cdd1959605a1b602082015290565b505050505f90604051612aa3604082611f8e565b601281527114d95b99195c88189b1858dadb1a5cdd195960721b602082015290565b600554908115612b245760018060a01b031690815f5260086020526201518060405f20540462015180420411612b1f57815f5260076020528060405f2054101561237f576121d9915f52600760205260405f2054906120fe565b905090565b50505f1990565b5f546001600160a01b03163303612b3e57565b60405162461bcd60e51b815260206004820152600e60248201526d27aba71d103737ba1037bbb732b960911b6044820152606490fd5b6010546001600160a01b031680612b89575050565b803b1561036657604051633ddd61ab60e21b815230600482015260606024820152915f918391829084908290612bc3906064830190611fc5565b33604483015203925af1612bd45750565b5f612bde91611f8e565b565b6001600160a01b03169081151580612c7d575b15612c4c5760207f8c5be1e5ebec7d5bd14f71427d1e84f3dd0314c0f7b2291e5b200ac8c7c3b92591835f52600d825260405f2060018060a01b0382165f5282528460405f205560405194855260018060a01b031693a3565b60405162461bcd60e51b81526020600482015260096024820152680617070726f766520360bc1b6044820152606490fd5b506001600160a01b0381161515612bf3565b600160025403612c9f5760028055565b60405162461bcd60e51b815260206004820152600a6024820152697265656e7472616e637960b01b6044820152606490fd5b915f9260018060a01b03811692835f52601860205260ff60405f20541615806138d8575b612cfe90612118565b835f52600a60205260ff60405f20541615806138b6575b8061389f575b8061387d575b80613874575b80613862575b6136de575b60ff60115460a01c16806136ca575b613449575b83158015613438575b61342957821561342957600f545f9081906001600160a01b031615158061340d575b806133fe575b61338b575b5050835f52600c60205260405f205483811061335c578390855f52600c6020520360405f2055828092601154908660018060a01b0383169283159081158061334d575b8061330e575b1561329e575050509160c09184612df3946040519586948593849363252f15f560e01b8552600485016121dc565b03915afa9081156108ce575f915f905f905f905f945f91613274575b5085159081159081613195575b5084151580613108575b8415159182613062575b9261305a575b508115613052575b50612fb0575b50506011546001600160a01b031692505050803b15612f8d579085808087946024604051809481936329a7724f60e21b83528b60048401525af1612f91575b505060205f516020613bec5f395f51905f52915b60018060a01b031693848852600c825260408820612eb682825461210b565b9055604051908152a3604051612ecd604082611f8e565b60088152673a3930b739b332b960c11b602082015260405192612ef1602085611f8e565b8484526010546001600160a01b03169283612f0f575b505050505050565b833b15612f8d579185809492612f63612f4c9560405198899788968795630303c28760e61b87526004870152608060248701526084860190611fc5565b916044850152600319848303016064850152611fc5565b03925af1612f75575b80808080612f07565b612f80828092611f8e565b612f8a5780612f6c565b80fd5b8580fd5b8192935090612f9f91611f8e565b612fac578390855f612e83565b8480fd5b6001600160a01b03811661304c57506016546001600160a01b0316925b6001600160a01b03811661304657506016546001600160a01b0316915b6040805195865260208601919091528401526001600160a01b039081166060840152908116919083169086907f83f1070d5154c1ec6e9f656f98b1b6761035814eeba41c9ace66fd53f501e35c90608090a45f80808080612e44565b91612fea565b92612fcd565b90505f612e3e565b91505f612e36565b996001600160a01b038816613102576016546001600160a01b03165b6001600160a01b031680156130d0576130ca918f918f604084838c9652600c602052206130ac85825461210b565b90555f516020613bec5f395f51905f526020604051868152a36120fe565b99612e30565b60405162461bcd60e51b815260206004820152600a602482015269065636f2073696e6b3d360b41b6044820152606490fd5b8761307e565b986001600160a01b03841661318f576016546001600160a01b03165b6001600160a01b031680156131595761315391818f8f90808b9560409252600c602052206130ac85825461210b565b98612e26565b60405162461bcd60e51b815260206004820152600e60248201526d073616e6374756d2073696e6b3d360941b6044820152606490fd5b83613124565b9098506001600160a01b03811661326f57505f5b6001600160a01b03168061323957506131c486600b546120fe565b600b555f8a5f516020613bec5f395f51905f5260206040518a8152a35b6131eb868a6120fe565b6011549098906001600160a01b0316803b15610366575f8091602460405180948193631bc9354160e21b83528d60048401525af115612e1c57613231919c505f90611f8e565b5f9a5f612e1c565b805f52600c60205260405f2061325088825461210b565b90558a5f516020613bec5f395f51905f5260206040518a8152a36131e1565b6131a9565b945050505050613293915060c03d60c0116122d1576122bb8183611f8e565b93929190935f612e0f565b91959450925060ff915060a81c166132c8575b5060205f516020613bec5f395f51905f5291612e97565b9091506132d75783905f6132b1565b60405162461bcd60e51b815260206004820152600f60248201526e1c9bdd5d195c881c995c5d5a5c9959608a1b6044820152606490fd5b50825f52601360205260ff60405f205416801561332c575b15612dc5565b506001600160a01b0387165f9081526013602052604090205460ff16613326565b50613356612151565b15612dbf565b60405162461bcd60e51b815260206004820152600760248201526662616c616e636560c81b6044820152606490fd5b6001600160a01b038216151591826133ec575b5081156133c1575b506133b2575f80612d7c565b63b8e516c360e01b5f5260045ffd5b6001600160a01b03811615159150816133dc575b505f6133a6565b6133e69150613b41565b5f6133d5565b6133f7919250613b41565b905f61339e565b50613407612151565b15612d77565b91505061341983613abf565b9061342383613abf565b90612d71565b63ebeb59ad60e01b5f5260045ffd5b506001600160a01b03811615612d4f565b803b15806136b8575b80613696575b80613674575b613599575b83158015613583575b801561356d575b801561355e575b801561354f575b6001600160a01b03821680159190821561353a575b8215613525575b821561350d575b82156134f5575b5081156134e4575b81156134d3575b156134c457612d46575b63cd0d8b2160e01b5f5260045ffd5b90506134de82613a26565b906134ba565b90506134ef826139a6565b906134b3565b5f9081526014602052604081205460ff1692506134ab565b8092505f52601360205260ff60405f205416916134a4565b6017546001600160a01b03168114925061349d565b6016546001600160a01b031681149250613496565b5061355982613a26565b613481565b50613568826139a6565b61347a565b50835f52601460205260ff60405f205416613473565b50835f52601360205260ff60405f20541661346c565b6135a281613a26565b61346357600e5460405163e01fd21560e01b81526001600160a01b0383811660048301529091602091839160249183915f91165af15f9181613638575b506135f35763cd0d8b2160e01b5f5260045ffd5b61363390604051613605604082611f8e565b60128152711d985d5b1d17d85d5d1bd7d8dc99585d195960721b602082015260405191611327602084611f8e565b613463565b9091506020813d60201161366c575b8161365460209383611f8e565b810103126103665761366590612185565b905f6135df565b3d9150613647565b506001600160a01b0381165f9081526014602052604090205460ff161561345e565b506001600160a01b0381165f9081526013602052604090205460ff1615613458565b506001600160a01b0381161515613452565b50600e546001600160a01b03161515612d41565b6003548015159081613858575b506138495760045480613811575b5060055461376e575b60065480613711575b50612d32565b845f52600960205260405f20541515908161374f575b5061374057835f5260096020524260405f20555f61370b565b6301249b7160e01b5f5260045ffd5b6137669150855f52600960205260405f205461210b565b42105f613727565b620151804204845f5260086020526201518060405f20540481116137d9575b50835f5260076020526137a48360405f205461210b565b600554106137ca57835f52600760205260405f206137c384825461210b565b9055613702565b639ad5c1c760e01b5f5260045ffd5b845f5260076020525f6040812055620151808102908082046201518014901517156108d957845f52600860205260405f20555f61378d565b60018060a01b0382165f52600c60205261382f8460405f205461210b565b1161383a575f6136f9565b63f5cec06760e01b5f5260045ffd5b631ae2df0760e01b5f5260045ffd5b905083115f6136eb565b506001600160a01b0381161515612d2d565b50831515612d27565b506001600160a01b0381165f9081526013602052604090205460ff1615612d21565b50835f52601360205260ff60405f20541615612d1b565b506001600160a01b0381165f908152600a602052604090205460ff1615612d15565b506001600160a01b0381165f9081526018602052604090205460ff1615612cf5565b6010546001600160a01b031680613912575b50505050565b803b15610366575f92836139559361396d60405197889687958694630303c28760e61b865260018060a01b03166004860152608060248601526084850190611fc5565b90846044850152600319848303016064850152611fc5565b03925af161397e575b80808061390c565b5f61398891611f8e565b5f613976565b90816020910312610366575180151581036103665790565b600e546001600160a01b031690811561237f5760405163652b9b4160e01b81526001600160a01b03909116600482015290602090829060249082905afa5f91816139f5575b506121d957505f90565b613a1891925060203d602011613a1f575b613a108183611f8e565b81019061398e565b905f6139eb565b503d613a06565b600e546001600160a01b031690811561237f57604051630709df4560e01b81526001600160a01b03909116600482015290602090829060249082905afa5f9181613a83575b50613a7557505f90565b6001600160a01b0316151590565b9091506020813d602011613ab7575b81613a9f60209383611f8e565b8101031261036657613ab090612185565b905f613a6b565b3d9150613a92565b600e546001600160a01b031690811561237f57604051630709df4560e01b81526001600160a01b03909116600482015290602090829060249082905afa9081156108ce575f91613b0d575090565b90506020813d602011613b39575b81613b2860209383611f8e565b81010312610366576121d990612185565b3d9150613b1b565b600f54604051631293efbb60e21b602082019081526001600160a01b0393841660248084019190915282525f9384931691613b7d604482611f8e565b51915afa3d15613be3573d906001600160401b038211611fb15760405191613baf601f8201601f191660200184611f8e565b82523d5f602084013e5b158015613bd8575b61237a57806020806121d99351830101910161398e565b506020815110613bc1565b606090613bb956feddf252ad1be2c89b69c2b068fc378daa952ba7f163c4a11628f55a4df523b3ef6e71edae12b1b97f4d1f60370fef10105fa2faae0126114a169c64845d6126c9a2646970667358221220f96a30c1078337fb55faa5bfb00be7df89552e86f577888a96a31f4bc83242cd64736f6c634300081e0033ddf252ad1be2c89b69c2b068fc378daa952ba7f163c4a11628f55a4df523b3ef","linkReferences":{}},"methodIdentifiers":{"DEV_RESERVE_SUPPLY()":"99e793a0","DOMAIN_SEPARATOR()":"3644e515","FREEZE_DELAY()":"d7ae8942","MAX_CIRCUIT_BREAKER_DURATION()":"b6927497","MAX_SUPPLY()":"32cb6b0c","PERMIT_TYPEHASH()":"30adf81f","PRESALE_CAP()":"bd94fafc","acceptOwnership()":"79ba5097","allowance(address,address)":"dd62ed3e","approve(address,uint256)":"095ea7b3","balanceOf(address)":"70a08231","burnRouter()":"6c32b2ec","canTransfer(address,address,uint256)":"e46638e6","cancelOwnershipTransfer()":"23452b9c","circuitBreaker()":"16efd941","circuitBreakerExpiry()":"22a7caf5","cooldownRemaining(address)":"9d82190f","dailyResetTime(address)":"30e76684","dailyTransferLimit()":"f714af6f","dailyTransferred(address)":"79036e90","decimals()":"313ce567","decreaseAllowance(address,uint256)":"a457c2d7","freezeTime(address)":"ac41d299","getDailyTransferStats(address)":"9dac0641","getTransferLimitsFor(address)":"198803b1","increaseAllowance(address,uint256)":"39509351","isBlacklisted(address)":"fe575a87","isCircuitBreakerActive()":"32941ecb","isFrozen(address)":"e5839836","lastTransferTime(address)":"0d2d8a31","ledger()":"56397c35","lockPolicy()":"9a03f224","maxTransferAmount()":"a9e75723","maxWalletBalance()":"bbde77c1","name()":"06fdde03","nonces(address)":"7ecebe00","owner()":"8da5cb5b","pendingOwner()":"e30c3978","permit(address,address,uint256,uint256,uint8,bytes32,bytes32)":"d505accf","policyLocked()":"748ada52","presaleContract()":"63d9df85","previewTransferFees(address,address,uint256)":"50140c06","remainingDailyLimit(address)":"f497e873","sanctumSink()":"beeeb4ce","securityHub()":"b72d2943","setAntiWhale(uint256,uint256,uint256,uint256)":"3c2f9fe4","setBlacklist(address,bool)":"153b0d1e","setBurnRouter(address)":"1dc4b09c","setCircuitBreaker(bool,uint256)":"fa037766","setFrozen(address,bool)":"ac869cd8","setLedger(address)":"3246887d","setSanctumSink(address)":"b55e3f3a","setSecurityHub(address)":"55545fb0","setSystemExempt(address,bool)":"6336f3ac","setTreasurySink(address)":"a34857cd","setVaultHub(address)":"0741206e","setVaultOnly(bool)":"c4b740f5","setWhaleLimitExempt(address,bool)":"13d1ad08","setWhitelist(address,bool)":"53d6fd59","symbol()":"95d89b41","systemExempt(address)":"d6b54735","totalSupply()":"18160ddd","transfer(address,uint256)":"a9059cbb","transferCooldown()":"68f16293","transferFrom(address,address,uint256)":"23b872dd","transferOwnership(address)":"f2fde38b","treasurySink()":"8bea4f2d","vaultHub()":"6dd6e80b","vaultOnly()":"06e0c52c","whaleLimitExempt(address)":"7adc723d","whitelisted(address)":"d936547e"},"id":38}