{
  "_format": "hh-sol-artifact-1",
  "contractName": "VaultInfrastructureLite",
  "sourceName": "contracts/VaultInfrastructureLite.sol",
  "abi": [
    {
      "inputs": [
        {
          "internalType": "address",
          "name": "_implementation",
          "type": "address"
        },
        {
          "internalType": "address",
          "name": "_vfideToken",
          "type": "address"
        },
        {
          "internalType": "address",
          "name": "_securityHub",
          "type": "address"
        },
        {
          "internalType": "address",
          "name": "_ledger",
          "type": "address"
        },
        {
          "internalType": "address",
          "name": "_dao",
          "type": "address"
        }
      ],
      "stateMutability": "nonpayable",
      "type": "constructor"
    },
    {
      "inputs": [],
      "name": "VI_NoImplementation",
      "type": "error"
    },
    {
      "inputs": [],
      "name": "VI_NotDAO",
      "type": "error"
    },
    {
      "inputs": [],
      "name": "VI_Zero",
      "type": "error"
    },
    {
      "anonymous": false,
      "inputs": [
        {
          "indexed": false,
          "internalType": "address",
          "name": "dao",
          "type": "address"
        }
      ],
      "name": "DAOSet",
      "type": "event"
    },
    {
      "anonymous": false,
      "inputs": [
        {
          "indexed": true,
          "internalType": "address",
          "name": "vault",
          "type": "address"
        },
        {
          "indexed": true,
          "internalType": "address",
          "name": "newOwner",
          "type": "address"
        }
      ],
      "name": "ForcedRecovery",
      "type": "event"
    },
    {
      "anonymous": false,
      "inputs": [
        {
          "indexed": true,
          "internalType": "address",
          "name": "vault",
          "type": "address"
        },
        {
          "indexed": true,
          "internalType": "address",
          "name": "newOwner",
          "type": "address"
        },
        {
          "indexed": false,
          "internalType": "uint64",
          "name": "unlockTime",
          "type": "uint64"
        }
      ],
      "name": "ForcedRecoveryInitiated",
      "type": "event"
    },
    {
      "anonymous": false,
      "inputs": [
        {
          "indexed": true,
          "internalType": "address",
          "name": "implementation",
          "type": "address"
        }
      ],
      "name": "ImplementationSet",
      "type": "event"
    },
    {
      "anonymous": false,
      "inputs": [
        {
          "indexed": false,
          "internalType": "address",
          "name": "vfide",
          "type": "address"
        },
        {
          "indexed": false,
          "internalType": "address",
          "name": "securityHub",
          "type": "address"
        },
        {
          "indexed": false,
          "internalType": "address",
          "name": "ledger",
          "type": "address"
        },
        {
          "indexed": false,
          "internalType": "address",
          "name": "dao",
          "type": "address"
        }
      ],
      "name": "ModulesSet",
      "type": "event"
    },
    {
      "anonymous": false,
      "inputs": [
        {
          "indexed": true,
          "internalType": "address",
          "name": "previousOwner",
          "type": "address"
        },
        {
          "indexed": true,
          "internalType": "address",
          "name": "newOwner",
          "type": "address"
        }
      ],
      "name": "OwnershipTransferStarted",
      "type": "event"
    },
    {
      "anonymous": false,
      "inputs": [
        {
          "indexed": true,
          "internalType": "address",
          "name": "previousOwner",
          "type": "address"
        },
        {
          "indexed": true,
          "internalType": "address",
          "name": "newOwner",
          "type": "address"
        }
      ],
      "name": "OwnershipTransferred",
      "type": "event"
    },
    {
      "anonymous": false,
      "inputs": [
        {
          "indexed": false,
          "internalType": "address",
          "name": "vfide",
          "type": "address"
        }
      ],
      "name": "VFIDESet",
      "type": "event"
    },
    {
      "anonymous": false,
      "inputs": [
        {
          "indexed": true,
          "internalType": "address",
          "name": "owner",
          "type": "address"
        },
        {
          "indexed": true,
          "internalType": "address",
          "name": "vault",
          "type": "address"
        }
      ],
      "name": "VaultCreated",
      "type": "event"
    },
    {
      "inputs": [],
      "name": "RECOVERY_APPROVALS_REQUIRED",
      "outputs": [
        {
          "internalType": "uint8",
          "name": "",
          "type": "uint8"
        }
      ],
      "stateMutability": "view",
      "type": "function"
    },
    {
      "inputs": [],
      "name": "RECOVERY_DELAY",
      "outputs": [
        {
          "internalType": "uint64",
          "name": "",
          "type": "uint64"
        }
      ],
      "stateMutability": "view",
      "type": "function"
    },
    {
      "inputs": [],
      "name": "acceptOwnership",
      "outputs": [],
      "stateMutability": "nonpayable",
      "type": "function"
    },
    {
      "inputs": [
        {
          "internalType": "address",
          "name": "vault",
          "type": "address"
        },
        {
          "internalType": "address",
          "name": "newOwner",
          "type": "address"
        }
      ],
      "name": "approveForceRecovery",
      "outputs": [],
      "stateMutability": "nonpayable",
      "type": "function"
    },
    {
      "inputs": [],
      "name": "cancelOwnershipTransfer",
      "outputs": [],
      "stateMutability": "nonpayable",
      "type": "function"
    },
    {
      "inputs": [
        {
          "internalType": "address",
          "name": "addr",
          "type": "address"
        }
      ],
      "name": "checkVaultStatus",
      "outputs": [
        {
          "internalType": "bool",
          "name": "hasVault",
          "type": "bool"
        },
        {
          "internalType": "address",
          "name": "vaultAddress",
          "type": "address"
        },
        {
          "internalType": "bool",
          "name": "isVaultContract",
          "type": "bool"
        }
      ],
      "stateMutability": "view",
      "type": "function"
    },
    {
      "inputs": [],
      "name": "dao",
      "outputs": [
        {
          "internalType": "address",
          "name": "",
          "type": "address"
        }
      ],
      "stateMutability": "view",
      "type": "function"
    },
    {
      "inputs": [
        {
          "internalType": "address",
          "name": "owner_",
          "type": "address"
        }
      ],
      "name": "ensureVault",
      "outputs": [
        {
          "internalType": "address",
          "name": "vault",
          "type": "address"
        }
      ],
      "stateMutability": "nonpayable",
      "type": "function"
    },
    {
      "inputs": [
        {
          "internalType": "address",
          "name": "vault",
          "type": "address"
        }
      ],
      "name": "finalizeForceRecovery",
      "outputs": [],
      "stateMutability": "nonpayable",
      "type": "function"
    },
    {
      "inputs": [
        {
          "internalType": "address",
          "name": "vault",
          "type": "address"
        }
      ],
      "name": "getVaultInfo",
      "outputs": [
        {
          "internalType": "address",
          "name": "owner_",
          "type": "address"
        },
        {
          "internalType": "uint256",
          "name": "createdAt",
          "type": "uint256"
        },
        {
          "internalType": "bool",
          "name": "isLocked",
          "type": "bool"
        },
        {
          "internalType": "bool",
          "name": "exists",
          "type": "bool"
        }
      ],
      "stateMutability": "view",
      "type": "function"
    },
    {
      "inputs": [],
      "name": "implementation",
      "outputs": [
        {
          "internalType": "address",
          "name": "",
          "type": "address"
        }
      ],
      "stateMutability": "view",
      "type": "function"
    },
    {
      "inputs": [
        {
          "internalType": "address",
          "name": "vault",
          "type": "address"
        },
        {
          "internalType": "address",
          "name": "newOwner",
          "type": "address"
        }
      ],
      "name": "initiateForceRecovery",
      "outputs": [],
      "stateMutability": "nonpayable",
      "type": "function"
    },
    {
      "inputs": [
        {
          "internalType": "address",
          "name": "",
          "type": "address"
        }
      ],
      "name": "isRecoveryApprover",
      "outputs": [
        {
          "internalType": "bool",
          "name": "",
          "type": "bool"
        }
      ],
      "stateMutability": "view",
      "type": "function"
    },
    {
      "inputs": [
        {
          "internalType": "address",
          "name": "a",
          "type": "address"
        }
      ],
      "name": "isVault",
      "outputs": [
        {
          "internalType": "bool",
          "name": "",
          "type": "bool"
        }
      ],
      "stateMutability": "view",
      "type": "function"
    },
    {
      "inputs": [],
      "name": "ledger",
      "outputs": [
        {
          "internalType": "contract IProofLedger",
          "name": "",
          "type": "address"
        }
      ],
      "stateMutability": "view",
      "type": "function"
    },
    {
      "inputs": [],
      "name": "owner",
      "outputs": [
        {
          "internalType": "address",
          "name": "",
          "type": "address"
        }
      ],
      "stateMutability": "view",
      "type": "function"
    },
    {
      "inputs": [
        {
          "internalType": "address",
          "name": "",
          "type": "address"
        }
      ],
      "name": "ownerOfVault",
      "outputs": [
        {
          "internalType": "address",
          "name": "",
          "type": "address"
        }
      ],
      "stateMutability": "view",
      "type": "function"
    },
    {
      "inputs": [],
      "name": "pendingOwner",
      "outputs": [
        {
          "internalType": "address",
          "name": "",
          "type": "address"
        }
      ],
      "stateMutability": "view",
      "type": "function"
    },
    {
      "inputs": [
        {
          "internalType": "address",
          "name": "owner_",
          "type": "address"
        }
      ],
      "name": "predictVault",
      "outputs": [
        {
          "internalType": "address",
          "name": "predicted",
          "type": "address"
        }
      ],
      "stateMutability": "view",
      "type": "function"
    },
    {
      "inputs": [
        {
          "internalType": "address[]",
          "name": "owners",
          "type": "address[]"
        }
      ],
      "name": "predictVaultsBatch",
      "outputs": [
        {
          "internalType": "address[]",
          "name": "vaults",
          "type": "address[]"
        }
      ],
      "stateMutability": "view",
      "type": "function"
    },
    {
      "inputs": [
        {
          "internalType": "address",
          "name": "",
          "type": "address"
        }
      ],
      "name": "recoveryApprovalCount",
      "outputs": [
        {
          "internalType": "uint8",
          "name": "",
          "type": "uint8"
        }
      ],
      "stateMutability": "view",
      "type": "function"
    },
    {
      "inputs": [
        {
          "internalType": "address",
          "name": "",
          "type": "address"
        },
        {
          "internalType": "address",
          "name": "",
          "type": "address"
        }
      ],
      "name": "recoveryApprovals",
      "outputs": [
        {
          "internalType": "bool",
          "name": "",
          "type": "bool"
        }
      ],
      "stateMutability": "view",
      "type": "function"
    },
    {
      "inputs": [
        {
          "internalType": "address",
          "name": "",
          "type": "address"
        }
      ],
      "name": "recoveryProposedOwner",
      "outputs": [
        {
          "internalType": "address",
          "name": "",
          "type": "address"
        }
      ],
      "stateMutability": "view",
      "type": "function"
    },
    {
      "inputs": [
        {
          "internalType": "address",
          "name": "",
          "type": "address"
        }
      ],
      "name": "recoveryUnlockTime",
      "outputs": [
        {
          "internalType": "uint64",
          "name": "",
          "type": "uint64"
        }
      ],
      "stateMutability": "view",
      "type": "function"
    },
    {
      "inputs": [],
      "name": "securityHub",
      "outputs": [
        {
          "internalType": "contract ISecurityHub",
          "name": "",
          "type": "address"
        }
      ],
      "stateMutability": "view",
      "type": "function"
    },
    {
      "inputs": [
        {
          "internalType": "address",
          "name": "_dao",
          "type": "address"
        }
      ],
      "name": "setDAO",
      "outputs": [],
      "stateMutability": "nonpayable",
      "type": "function"
    },
    {
      "inputs": [
        {
          "internalType": "address",
          "name": "_implementation",
          "type": "address"
        }
      ],
      "name": "setImplementation",
      "outputs": [],
      "stateMutability": "nonpayable",
      "type": "function"
    },
    {
      "inputs": [
        {
          "internalType": "address",
          "name": "_vfideToken",
          "type": "address"
        },
        {
          "internalType": "address",
          "name": "_securityHub",
          "type": "address"
        },
        {
          "internalType": "address",
          "name": "_ledger",
          "type": "address"
        },
        {
          "internalType": "address",
          "name": "_dao",
          "type": "address"
        }
      ],
      "name": "setModules",
      "outputs": [],
      "stateMutability": "nonpayable",
      "type": "function"
    },
    {
      "inputs": [
        {
          "internalType": "address",
          "name": "approver",
          "type": "address"
        },
        {
          "internalType": "bool",
          "name": "status",
          "type": "bool"
        }
      ],
      "name": "setRecoveryApprover",
      "outputs": [],
      "stateMutability": "nonpayable",
      "type": "function"
    },
    {
      "inputs": [
        {
          "internalType": "address",
          "name": "_vfide",
          "type": "address"
        }
      ],
      "name": "setVFIDE",
      "outputs": [],
      "stateMutability": "nonpayable",
      "type": "function"
    },
    {
      "inputs": [],
      "name": "totalVaults",
      "outputs": [
        {
          "internalType": "uint256",
          "name": "",
          "type": "uint256"
        }
      ],
      "stateMutability": "view",
      "type": "function"
    },
    {
      "inputs": [
        {
          "internalType": "address",
          "name": "newOwner",
          "type": "address"
        }
      ],
      "name": "transferOwnership",
      "outputs": [],
      "stateMutability": "nonpayable",
      "type": "function"
    },
    {
      "inputs": [
        {
          "internalType": "address",
          "name": "",
          "type": "address"
        }
      ],
      "name": "vaultCreatedAt",
      "outputs": [
        {
          "internalType": "uint256",
          "name": "",
          "type": "uint256"
        }
      ],
      "stateMutability": "view",
      "type": "function"
    },
    {
      "inputs": [
        {
          "internalType": "address",
          "name": "",
          "type": "address"
        }
      ],
      "name": "vaultOf",
      "outputs": [
        {
          "internalType": "address",
          "name": "",
          "type": "address"
        }
      ],
      "stateMutability": "view",
      "type": "function"
    },
    {
      "inputs": [],
      "name": "vfideToken",
      "outputs": [
        {
          "internalType": "address",
          "name": "",
          "type": "address"
        }
      ],
      "stateMutability": "view",
      "type": "function"
    }
  ],
  "bytecode": "0x6080346101c957601f611fb338819003918201601f19168301916001600160401b038311848410176101ce5780849260a0946040528339810103126101c957610047816101e4565b90610054602082016101e4565b610060604083016101e4565b916100796080610072606084016101e4565b92016101e4565b600080546001600160a01b03191633908117825560405196929492917f8be0079c531659141344cd1fd0a4f28419497f9722a3daafe3b4186f6b6457e08180a36001600160a01b031694851561019857600280546001600160a01b031990811688179091556003805482166001600160a01b03808616918217909255600480548416838a16908117909155600580548516848916908117909155600680549095169389169384179094556040517f2ad69807131f242e4c6b9e21338b8d7d7d5f32ab1dfaa1eddfa881c305c8f5e7946080949193919290918c7fab64f92ab780ecbf4f3866f57cee465ff36c89450dcce20237ca7a8d81fb7d13600080a28452602084015260408301526060820152a1604051611dba90816101f98239f35b62461bcd60e51b815260206004820152600c60248201526b15924e9e995c9bcb5a5b5c1b60a21b6044820152606490fd5b600080fd5b634e487b7160e01b600052604160045260246000fd5b51906001600160a01b03821682036101c95756fe6080604052600436101561001257600080fd5b60003560e01c806306d7d6cf146102475780630709df451461024257806317fd7bf61461023d5780631a6568811461023857806323452b9c146102335780632724fe091461022e57806327a4e1ab146102295780633297992e14610224578063360ca9581461021f5780634162169f1461021a578063419d7a8314610215578063435c529b1461021057806347b456521461020b57806356397c35146102065780635c60da1b14610201578063652b9b41146101fc5780636a240a9c146101f757806379ba5097146101f25780638d654023146101ed5780638da5cb5b146101e857806390229af7146101e35780639f2b8b54146101de5780639f9a6508146101d9578063b079fbff146101d4578063b72d2943146101cf578063b8a71eec146101ca578063c5c82203146101c5578063c93883a5146101c0578063d784d426146101bb578063e01fd215146101b6578063e30c3978146101b1578063e73a914c146101ac578063f20ca7ed146101a7578063f2fde38b146101a25763fa3fd3bc1461019d57600080fd5b6113ba565b61130f565b6112c9565b61122d565b611204565b6111dd565b611142565b6110d6565b610ec7565b610e9e565b610e75565b610d85565b610d40565b610cf6565b610bec565b610bc3565b610ba5565b610aea565b610a34565b6109a5565b61097c565b610953565b610935565b6108f3565b6108b3565b61088a565b6107bb565b610795565b61075c565b610717565b6106ec565b610492565b6103d4565b61038f565b610262565b6001600160a01b0381160361025d57565b600080fd5b3461025d57602036600319011261025d5760043561027f8161024c565b6001600160a01b0390811660009081526007602090815260408083205460088352928190205481519385168015158552928401929092529216151591810191909152606090f35b6001600160a01b0316600090815260086020526040902090565b6001600160a01b0316600090815260076020526040902090565b6001600160a01b03166000908152600d6020526040902090565b6001600160a01b03166000908152600e6020526040902090565b6001600160a01b03166000908152600c6020526040902090565b6001600160a01b03166000908152600b6020526040902090565b6001600160a01b03166000908152600a6020526040902090565b6001600160a01b03909116815260200190565b3461025d57602036600319011261025d576004356103ac8161024c565b60018060a01b03166000526007602052602060018060a01b0360406000205416604051908152f35b3461025d57602036600319011261025d577f77035913569424ed432f15a527aa4e0317cbefd28ce0fe9cdfe61acd77345c1760206004356104148161024c565b61041c611b1f565b600380546001600160a01b0319166001600160a01b03929092169182179055604051908152a161046861044d611433565b6c1a1d5897dd999a591957dcd95d609a1b6020820152611baa565b005b604090600319011261025d576004356104828161024c565b9060243561048f8161024c565b90565b3461025d576104a03661046a565b336000908152600f602052604090209091906104c7906104c2905b5460ff1690565b61149c565b6001600160a01b03811691821580156106d0575b6106bf5761051161050a6104fe6104f1856102c6565b546001600160a01b031690565b6001600160a01b031690565b15156114da565b6105296105236104fe6104f1846102e0565b15611516565b6105576105536104bb3361053c866102fa565b9060018060a01b0316600052602052604060002090565b1590565b610660575b600360ff61056c6104bb85610314565b16101561057557005b610468926105a5826105868561032e565b80546001600160a01b0319166001600160a01b03909216919091179055565b6105e46105c06105b4426115b5565b6001600160401b031690565b6105c985610348565b906001600160401b03166001600160401b0319825416179055565b7f4f6a320f55ac586fc5dbafc5a9d39bf84e088884ac86cb6391a2ced7e237c83161064761062161061486610348565b546001600160401b031690565b6040516001600160401b0390911681526001600160a01b03909416939081906020820190565b0390a36106526115c5565b61065a611448565b91611c21565b61067d6106703361053c856102fa565b805460ff19166001179055565b6106aa61068983610314565b61069c610697825460ff1690565b61156b565b60ff1660ff19825416179055565b6106ba6106b5611581565b611baa565b61055c565b630f0f611b60e01b60005260046000fd5b506001600160a01b038116156104db565b600091031261025d57565b3461025d57600036600319011261025d57610705611b1f565b600180546001600160a01b0319169055005b3461025d57602036600319011261025d576004356107348161024c565b60018060a01b03166000526008602052602060018060a01b0360406000205416604051908152f35b3461025d57602036600319011261025d57602061078360043561077e8161024c565b6115eb565b6040516001600160a01b039091168152f35b3461025d57600036600319011261025d57602060405160038152f35b8015150361025d57565b3461025d57604036600319011261025d576004356107d88161024c565b602435906107e5826107b1565b6107ed611b1f565b6001600160a01b0316610801811515611677565b600052600f6020526108238160406000209060ff801983541691151516179055565b1561085857610468610833611472565b761c9958dbdd995c9e57d85c1c1c9bdd995c97d859191959604a1b6020820152611baa565b61046861086361145d565b781c9958dbdd995c9e57d85c1c1c9bdd995c97dc995b5bdd9959603a1b6020820152611baa565b3461025d57600036600319011261025d576006546040516001600160a01b039091168152602090f35b3461025d57602036600319011261025d576004356108d08161024c565b60018060a01b0316600052600e602052602060ff60406000205416604051908152f35b3461025d57602036600319011261025d576004356109108161024c565b60018060a01b0316600052600f602052602060ff604060002054166040519015158152f35b3461025d57600036600319011261025d57602060405162093a808152f35b3461025d57600036600319011261025d576005546040516001600160a01b039091168152602090f35b3461025d57600036600319011261025d576002546040516001600160a01b039091168152602090f35b3461025d57602036600319011261025d576109fe6004356109c58161024c565b6001600160a01b0390811660008181526008602052604090205490911615159081610a02575b5060405190151581529081906020820190565b0390f35b6000818152600860209081526040808320546001600160a01b03908116845260079092529091205416149050386109eb565b3461025d57610a423661046a565b600654909190610a5a906001600160a01b03166104fe565b3303610ad9576001600160a01b0381169182158015610ac8575b6106bf5761046892610a8e61050a6104fe6104f1866102c6565b610aa06105236104fe6104f1856102e0565b610abb600360ff610ab36104bb87610314565b1610156116ad565b6105a5826105868561032e565b506001600160a01b03811615610a74565b6369a473cf60e11b60005260046000fd5b3461025d57600036600319011261025d576001546001600160a01b03163303610b675760005433906001600160a01b03908116167f8be0079c531659141344cd1fd0a4f28419497f9722a3daafe3b4186f6b6457e0600080a3600080546001600160a01b03191633179055600180546001600160a01b0319169055005b60405162461bcd60e51b815260206004820152601660248201527527aba71d103737ba103832b73234b7339037bbb732b960511b6044820152606490fd5b3461025d57600036600319011261025d576020600954604051908152f35b3461025d57600036600319011261025d576000546040516001600160a01b039091168152602090f35b3461025d57602036600319011261025d57600435610c098161024c565b610c156104f1826102c6565b610c1e82610362565b54600454909190610c37906001600160a01b03166104fe565b926001600160a01b03841615159384610c7e575b5050604080516001600160a01b039290921680835260208301939093529215159281019290925215156060820152608090f35b610ca3929450906020916040518080958194631293efbb60e21b83526004830161037c565b03915afa8015610cf1576109fe91600091610cc2575b50929038610c4b565b610ce4915060203d602011610cea575b610cdc818361140d565b8101906116f5565b38610cb9565b503d610cd2565b61170a565b3461025d57602060ff610d34610d0b3661046a565b6001600160a01b039182166000908152600d865260408082209290931681526020919091522090565b54166040519015158152f35b3461025d57602036600319011261025d57600435610d5d8161024c565b60018060a01b0316600052600c602052602060018060a01b0360406000205416604051908152f35b3461025d57608036600319011261025d577f2ad69807131f242e4c6b9e21338b8d7d7d5f32ab1dfaa1eddfa881c305c8f5e7600435610dc38161024c565b60243590610dd08261024c565b610e67604435610ddf8161024c565b60643590610dec8261024c565b610df4611b1f565b600380546001600160a01b039586166001600160a01b03199182168117909255600480549787169782168817905560058054938716938216841790556006805494909616931683179094556040805194855260208501959095529383019390935260608201929092529081906080820190565b0390a16104686106b5611716565b3461025d57600036600319011261025d576004546040516001600160a01b039091168152602090f35b3461025d57600036600319011261025d576003546040516001600160a01b039091168152602090f35b3461025d57602036600319011261025d57600435610ee48161024c565b600654610ef9906001600160a01b03166104fe565b3303610ad957610f1e6001600160401b03610f1661061484610348565b161515611743565b610f38610f306105b461061484610348565b42101561177b565b610f446104f18261032e565b906001600160a01b038216610f5a811515611677565b610f6c6105236104fe6104f1866102e0565b610f786104f1836102c6565b6001600160a01b038116611081575b50610f9583610586846102c6565b610fa282610586856102e0565b6001600160a01b038216803b1561025d576000610fd394604051809681926324d89a6360e21b83526004830161037c565b038183855af1938415610cf15761046894611066575b50611006610ff68461032e565b80546001600160a01b0319169055565b61102361101284610348565b805467ffffffffffffffff19169055565b61103961102f84610314565b805460ff19169055565b7f95d14defab6a2b4ee4b7409bbb87adbfd28ae37e235f30d9a96198e6825dbc3b600080a36106526117b5565b80611075600061107b9361140d565b806106e1565b38610fe9565b610ff661108d916102e0565b38610f87565b602060408183019282815284518094520192019060005b8181106110b75750505090565b82516001600160a01b03168452602093840193909201916001016110aa565b3461025d57602036600319011261025d576004356001600160401b03811161025d573660238201121561025d578060040135906001600160401b03821161025d573660248360051b8301011161025d576109fe91602461113692016117fd565b60405191829182611093565b3461025d57602036600319011261025d5760043561115f8161024c565b611167611b1f565b6001600160a01b031661117b811515611677565b600280546001600160a01b031916821790557fab64f92ab780ecbf4f3866f57cee465ff36c89450dcce20237ca7a8d81fb7d13600080a26104686111bd611487565b711a5b5c1b195b595b9d185d1a5bdb97dcd95d60721b6020820152611baa565b3461025d57602036600319011261025d5760206107836004356111ff8161024c565b6118f9565b3461025d57600036600319011261025d576001546040516001600160a01b039091168152602090f35b3461025d57602036600319011261025d577f8aad84fcad50e723fa3bcf0fb32c5bea4c71078b77b9aedfa638f146f3a3f7b9602060043561126d8161024c565b611275611b1f565b600680546001600160a01b0319166001600160a01b03929092169182179055604051908152a16104686040516112ac60408261140d565b600b81526a1a1d5897d9185bd7dcd95d60aa1b6020820152611baa565b3461025d57602036600319011261025d576004356112e68161024c565b60018060a01b0316600052600b60205260206001600160401b0360406000205416604051908152f35b3461025d57602036600319011261025d5760043561132c8161024c565b611334611b1f565b6001600160a01b0316801561138957600180546001600160a01b03191682179055600080546001600160a01b0316907f38d16b8cac22d99fc7c124b9cd0de2d3fa1faef420bfe791d8c362d765e227009080a3005b60405162461bcd60e51b81526020600482015260096024820152684f574e3a207a65726f60b81b6044820152606490fd5b3461025d57602036600319011261025d576004356113d78161024c565b60018060a01b0316600052600a6020526020604060002054604051908152f35b634e487b7160e01b600052604160045260246000fd5b90601f801991011681019081106001600160401b0382111761142e57604052565b6113f7565b6040519061144260408361140d565b600d8252565b6040519061145760208361140d565b60008252565b6040519061146c60408361140d565b60198252565b6040519061148160408361140d565b60178252565b6040519061149660408361140d565b60128252565b156114a357565b60405162461bcd60e51b815260206004820152600f60248201526e2b249d3737ba16b0b8383937bb32b960891b6044820152606490fd5b156114e157565b60405162461bcd60e51b815260206004820152600d60248201526c1d5b9adb9bdddb881d985d5b1d609a1b6044820152606490fd5b1561151d57565b60405162461bcd60e51b815260206004820152601060248201526f1d185c99d95d081a185cc81d985d5b1d60821b6044820152606490fd5b634e487b7160e01b600052601160045260246000fd5b60ff1660ff811461157c5760010190565b611555565b6040519061159060408361140d565b60168252751c9958dbdd995c9e57d85c1c1c9bdd985b17d8d85cdd60521b6020830152565b9062093a80820180921161157c57565b6115cd611487565b9071199bdc98d957dc9958dbdd995c97da5b9a5d60721b6020830152565b6001600160a01b03811615611671576043611607605592611cc6565b60025460405130606090811b60388301526f5af43d82803e903d91602b57fd5bf3ff60248301529190911b6001600160601b0319166014820152733d602d80600a3d3981f3363d3d373d3d3d363d73815260588101919091526037600c8201206078820152012090565b50600090565b1561167e57565b60405162461bcd60e51b815260206004820152600760248201526656493a7a65726f60c81b6044820152606490fd5b156116b457565b60405162461bcd60e51b815260206004820152601960248201527856493a696e73756666696369656e742d617070726f76616c7360381b6044820152606490fd5b9081602091031261025d575161048f816107b1565b6040513d6000823e3d90fd5b6040519061172560408361140d565b600f82526e1a1d5897db5bd91d5b195cd7dcd95d608a1b6020830152565b1561174a57565b60405162461bcd60e51b815260206004820152600960248201526856493a6e6f2d72657160b81b6044820152606490fd5b1561178257565b60405162461bcd60e51b815260206004820152600b60248201526a56493a74696d656c6f636b60a81b6044820152606490fd5b604051906117c460408361140d565b6013825272199bdc98d957dc9958dbdd995c97d99a5b985b606a1b6020830152565b6001600160401b03811161142e5760051b60200190565b611806826117e6565b92611814604051948561140d565b828452601f19611823846117e6565b01366020860137839060005b848110156118865760008160051b61184d8187013561077e8161024c565b91885184101561187257506001600160a01b039091169087016020015260010161182f565b634e487b7160e01b81526032600452602490fd5b509250925050565b1561189557565b60405162461bcd60e51b815260206004820152600c60248201526b18db1bdb994819985a5b195960a21b6044820152606490fd5b600019811461157c5760010190565b6118e0611433565b906c1d985d5b1d17d8dc99585d1959609a1b6020830152565b6001600160a01b038116919082156106bf57600354611920906001600160a01b03166104fe565b156106bf576002546001600160a01b03168015611b0e576119436104f1836102e0565b6001600160a01b038116611b0857506119659061195f83611cc6565b90611cf6565b926001600160a01b0384169161197c83151561188e565b6003546001600160a01b03166004549091906119a0906001600160a01b03166104fe565b6005549092906119b8906001600160a01b03166104fe565b853b1561025d57604051630a2ca2bd60e11b81523060048201526001600160a01b0392831660248201528383166044820152938216606485015216608483015260008260a48183885af1918215610cf157611a2992611af3575b50611a2086610586836102e0565b610586866102c6565b611a3c611a376009546118c9565b600955565b42611a4685610362565b55600454611a5c906001600160a01b03166104fe565b6001600160a01b038116611aad575b507f5d9c31ffa0fecffd7cf379989a3c7af252f0335e0d2a1320b55245912c781f53600080a3611aab611a9c6118d8565b611aa4611448565b9084611c21565b565b803b1561025d57600060405180926367ccd1cb60e01b8252818381611ad58b6004830161037c565b03925af115611a6b57806110756000611aed9361140d565b38611a6b565b806110756000611b029361140d565b38611a12565b93505050565b63f186fd8760e01b60005260046000fd5b6000546001600160a01b03163303611b3357565b60405162461bcd60e51b815260206004820152600e60248201526d27aba71d103737ba1037bbb732b960911b6044820152606490fd5b919082519283825260005b848110611b95575050826000602080949584010152601f8019910116010190565b80602080928401015182828601015201611b74565b6005546001600160a01b031680611bbf575050565b803b1561025d57604051633ddd61ab60e21b815230600482015260606024820152916000918391829084908290611bfa906064830190611b69565b33604483015203925af1611c0b5750565b80611c186000809361140d565b80031261025d57565b6005549092906001600160a01b031680611c3c575b50505050565b803b1561025d57604051630303c28760e61b81526001600160a01b0390941660048501908152608060248601526000938593849286928492611c9b9291611c87906084860190611b69565b918560408201526060818403910152611b69565b03925af1611cac575b808080611c36565b80611cb96000809361140d565b80031261025d5738611ca4565b60405160609190911b6001600160601b031916602082019081526014825290611cf060348261140d565b51902090565b733d602d80600a3d3981f3363d3d373d3d3d363d7360601b60005260601b6014526e5af43d82803e903d91602b57fd5bf360881b6028526037600080f5906001600160a01b03821615611d4557565b60405162461bcd60e51b8152602060048201526017602482015276115490cc4c4d8dce8818dc99585d194c8819985a5b1959604a1b6044820152606490fdfea2646970667358221220020e3a0fcc9c850acd3fb841e9581193825e05715f88a11bc0f79afe9d080ddd64736f6c634300081e0033",
  "linkReferences": {},
  "deployedLinkReferences": {}
}