{
  "_format": "hh-sol-artifact-1",
  "contractName": "VaultRecoveryClaim",
  "sourceName": "contracts/VaultRecoveryClaim.sol",
  "abi": [
    {
      "inputs": [
        {
          "internalType": "address",
          "name": "_vaultHub",
          "type": "address"
        },
        {
          "internalType": "address",
          "name": "_vaultRegistry",
          "type": "address"
        }
      ],
      "stateMutability": "nonpayable",
      "type": "constructor"
    },
    {
      "inputs": [],
      "name": "AlreadyVoted",
      "type": "error"
    },
    {
      "inputs": [],
      "name": "ChallengePeriodActive",
      "type": "error"
    },
    {
      "inputs": [],
      "name": "ChallengePeriodEnded",
      "type": "error"
    },
    {
      "inputs": [],
      "name": "ClaimAlreadyExists",
      "type": "error"
    },
    {
      "inputs": [],
      "name": "ClaimHasExpired",
      "type": "error"
    },
    {
      "inputs": [],
      "name": "ClaimNotPending",
      "type": "error"
    },
    {
      "inputs": [],
      "name": "ClaimantAlreadyHasVault",
      "type": "error"
    },
    {
      "inputs": [],
      "name": "InsufficientApprovals",
      "type": "error"
    },
    {
      "inputs": [],
      "name": "InvalidVault",
      "type": "error"
    },
    {
      "inputs": [],
      "name": "NoActiveClaim",
      "type": "error"
    },
    {
      "inputs": [],
      "name": "NotClaimant",
      "type": "error"
    },
    {
      "inputs": [],
      "name": "NotGuardian",
      "type": "error"
    },
    {
      "inputs": [],
      "name": "NotOriginalOwner",
      "type": "error"
    },
    {
      "inputs": [],
      "name": "NotTrustedVerifier",
      "type": "error"
    },
    {
      "inputs": [
        {
          "internalType": "address",
          "name": "owner",
          "type": "address"
        }
      ],
      "name": "OwnableInvalidOwner",
      "type": "error"
    },
    {
      "inputs": [
        {
          "internalType": "address",
          "name": "account",
          "type": "address"
        }
      ],
      "name": "OwnableUnauthorizedAccount",
      "type": "error"
    },
    {
      "inputs": [],
      "name": "ReentrancyGuardReentrantCall",
      "type": "error"
    },
    {
      "inputs": [],
      "name": "VaultHasNoClaim",
      "type": "error"
    },
    {
      "inputs": [],
      "name": "ZeroAddress",
      "type": "error"
    },
    {
      "anonymous": false,
      "inputs": [
        {
          "indexed": true,
          "internalType": "uint256",
          "name": "claimId",
          "type": "uint256"
        },
        {
          "indexed": true,
          "internalType": "address",
          "name": "vault",
          "type": "address"
        },
        {
          "indexed": true,
          "internalType": "address",
          "name": "newOwner",
          "type": "address"
        }
      ],
      "name": "ClaimApproved",
      "type": "event"
    },
    {
      "anonymous": false,
      "inputs": [
        {
          "indexed": true,
          "internalType": "uint256",
          "name": "claimId",
          "type": "uint256"
        },
        {
          "indexed": true,
          "internalType": "address",
          "name": "challenger",
          "type": "address"
        },
        {
          "indexed": false,
          "internalType": "string",
          "name": "reason",
          "type": "string"
        }
      ],
      "name": "ClaimChallenged",
      "type": "event"
    },
    {
      "anonymous": false,
      "inputs": [
        {
          "indexed": true,
          "internalType": "uint256",
          "name": "claimId",
          "type": "uint256"
        },
        {
          "indexed": true,
          "internalType": "address",
          "name": "vault",
          "type": "address"
        },
        {
          "indexed": true,
          "internalType": "address",
          "name": "newOwner",
          "type": "address"
        },
        {
          "indexed": false,
          "internalType": "address",
          "name": "previousOwner",
          "type": "address"
        }
      ],
      "name": "ClaimExecuted",
      "type": "event"
    },
    {
      "anonymous": false,
      "inputs": [
        {
          "indexed": true,
          "internalType": "uint256",
          "name": "claimId",
          "type": "uint256"
        },
        {
          "indexed": true,
          "internalType": "address",
          "name": "vault",
          "type": "address"
        }
      ],
      "name": "ClaimExpired",
      "type": "event"
    },
    {
      "anonymous": false,
      "inputs": [
        {
          "indexed": true,
          "internalType": "uint256",
          "name": "claimId",
          "type": "uint256"
        },
        {
          "indexed": true,
          "internalType": "address",
          "name": "vault",
          "type": "address"
        },
        {
          "indexed": true,
          "internalType": "address",
          "name": "claimant",
          "type": "address"
        },
        {
          "indexed": false,
          "internalType": "address",
          "name": "originalOwner",
          "type": "address"
        },
        {
          "indexed": false,
          "internalType": "uint64",
          "name": "expiresAt",
          "type": "uint64"
        }
      ],
      "name": "ClaimInitiated",
      "type": "event"
    },
    {
      "anonymous": false,
      "inputs": [
        {
          "indexed": true,
          "internalType": "uint256",
          "name": "claimId",
          "type": "uint256"
        },
        {
          "indexed": true,
          "internalType": "address",
          "name": "vault",
          "type": "address"
        },
        {
          "indexed": false,
          "internalType": "string",
          "name": "reason",
          "type": "string"
        }
      ],
      "name": "ClaimRejected",
      "type": "event"
    },
    {
      "anonymous": false,
      "inputs": [
        {
          "indexed": true,
          "internalType": "uint256",
          "name": "claimId",
          "type": "uint256"
        },
        {
          "indexed": true,
          "internalType": "address",
          "name": "guardian",
          "type": "address"
        },
        {
          "indexed": false,
          "internalType": "bool",
          "name": "approved",
          "type": "bool"
        },
        {
          "indexed": false,
          "internalType": "uint8",
          "name": "totalApprovals",
          "type": "uint8"
        }
      ],
      "name": "GuardianVoteCast",
      "type": "event"
    },
    {
      "anonymous": false,
      "inputs": [
        {
          "indexed": true,
          "internalType": "address",
          "name": "previousOwner",
          "type": "address"
        },
        {
          "indexed": true,
          "internalType": "address",
          "name": "newOwner",
          "type": "address"
        }
      ],
      "name": "OwnershipTransferred",
      "type": "event"
    },
    {
      "anonymous": false,
      "inputs": [
        {
          "indexed": true,
          "internalType": "address",
          "name": "verifier",
          "type": "address"
        },
        {
          "indexed": false,
          "internalType": "bool",
          "name": "trusted",
          "type": "bool"
        }
      ],
      "name": "VerifierSet",
      "type": "event"
    },
    {
      "anonymous": false,
      "inputs": [
        {
          "indexed": true,
          "internalType": "uint256",
          "name": "claimId",
          "type": "uint256"
        },
        {
          "indexed": true,
          "internalType": "address",
          "name": "verifier",
          "type": "address"
        },
        {
          "indexed": false,
          "internalType": "bool",
          "name": "approved",
          "type": "bool"
        },
        {
          "indexed": false,
          "internalType": "uint8",
          "name": "totalVotes",
          "type": "uint8"
        }
      ],
      "name": "VerifierVoteCast",
      "type": "event"
    },
    {
      "inputs": [],
      "name": "CHALLENGE_PERIOD",
      "outputs": [
        {
          "internalType": "uint64",
          "name": "",
          "type": "uint64"
        }
      ],
      "stateMutability": "view",
      "type": "function"
    },
    {
      "inputs": [],
      "name": "CLAIM_EXPIRY",
      "outputs": [
        {
          "internalType": "uint64",
          "name": "",
          "type": "uint64"
        }
      ],
      "stateMutability": "view",
      "type": "function"
    },
    {
      "inputs": [],
      "name": "GUARDIAN_VOTE_WINDOW",
      "outputs": [
        {
          "internalType": "uint64",
          "name": "",
          "type": "uint64"
        }
      ],
      "stateMutability": "view",
      "type": "function"
    },
    {
      "inputs": [],
      "name": "MIN_GUARDIAN_APPROVALS",
      "outputs": [
        {
          "internalType": "uint8",
          "name": "",
          "type": "uint8"
        }
      ],
      "stateMutability": "view",
      "type": "function"
    },
    {
      "inputs": [],
      "name": "MIN_VERIFIER_VOTES",
      "outputs": [
        {
          "internalType": "uint8",
          "name": "",
          "type": "uint8"
        }
      ],
      "stateMutability": "view",
      "type": "function"
    },
    {
      "inputs": [
        {
          "internalType": "address",
          "name": "",
          "type": "address"
        }
      ],
      "name": "activeClaimForVault",
      "outputs": [
        {
          "internalType": "uint256",
          "name": "",
          "type": "uint256"
        }
      ],
      "stateMutability": "view",
      "type": "function"
    },
    {
      "inputs": [
        {
          "internalType": "uint256",
          "name": "claimId",
          "type": "uint256"
        }
      ],
      "name": "canFinalize",
      "outputs": [
        {
          "internalType": "bool",
          "name": "",
          "type": "bool"
        },
        {
          "internalType": "string",
          "name": "reason",
          "type": "string"
        }
      ],
      "stateMutability": "view",
      "type": "function"
    },
    {
      "inputs": [
        {
          "internalType": "uint256",
          "name": "claimId",
          "type": "uint256"
        },
        {
          "internalType": "string",
          "name": "reason",
          "type": "string"
        }
      ],
      "name": "challengeClaim",
      "outputs": [],
      "stateMutability": "nonpayable",
      "type": "function"
    },
    {
      "inputs": [
        {
          "internalType": "uint256",
          "name": "claimId",
          "type": "uint256"
        }
      ],
      "name": "challengeTimeRemaining",
      "outputs": [
        {
          "internalType": "uint256",
          "name": "",
          "type": "uint256"
        }
      ],
      "stateMutability": "view",
      "type": "function"
    },
    {
      "inputs": [],
      "name": "claimCounter",
      "outputs": [
        {
          "internalType": "uint256",
          "name": "",
          "type": "uint256"
        }
      ],
      "stateMutability": "view",
      "type": "function"
    },
    {
      "inputs": [
        {
          "internalType": "uint256",
          "name": "",
          "type": "uint256"
        }
      ],
      "name": "claims",
      "outputs": [
        {
          "internalType": "address",
          "name": "vault",
          "type": "address"
        },
        {
          "internalType": "address",
          "name": "claimant",
          "type": "address"
        },
        {
          "internalType": "address",
          "name": "originalOwner",
          "type": "address"
        },
        {
          "internalType": "uint64",
          "name": "initiatedAt",
          "type": "uint64"
        },
        {
          "internalType": "uint64",
          "name": "challengeEndsAt",
          "type": "uint64"
        },
        {
          "internalType": "uint64",
          "name": "expiresAt",
          "type": "uint64"
        },
        {
          "internalType": "enum VaultRecoveryClaim.ClaimStatus",
          "name": "status",
          "type": "uint8"
        },
        {
          "internalType": "uint8",
          "name": "guardianApprovals",
          "type": "uint8"
        },
        {
          "internalType": "uint8",
          "name": "verifierVotes",
          "type": "uint8"
        },
        {
          "internalType": "bytes32",
          "name": "evidenceHash",
          "type": "bytes32"
        },
        {
          "internalType": "string",
          "name": "claimReason",
          "type": "string"
        }
      ],
      "stateMutability": "view",
      "type": "function"
    },
    {
      "inputs": [
        {
          "internalType": "uint256",
          "name": "claimId",
          "type": "uint256"
        }
      ],
      "name": "expireClaim",
      "outputs": [],
      "stateMutability": "nonpayable",
      "type": "function"
    },
    {
      "inputs": [
        {
          "internalType": "uint256",
          "name": "claimId",
          "type": "uint256"
        }
      ],
      "name": "finalizeClaim",
      "outputs": [],
      "stateMutability": "nonpayable",
      "type": "function"
    },
    {
      "inputs": [
        {
          "internalType": "uint256",
          "name": "claimId",
          "type": "uint256"
        }
      ],
      "name": "finalizeExecution",
      "outputs": [],
      "stateMutability": "nonpayable",
      "type": "function"
    },
    {
      "inputs": [
        {
          "internalType": "address",
          "name": "vault",
          "type": "address"
        }
      ],
      "name": "getActiveClaimForVault",
      "outputs": [
        {
          "internalType": "uint256",
          "name": "claimId",
          "type": "uint256"
        },
        {
          "components": [
            {
              "internalType": "address",
              "name": "vault",
              "type": "address"
            },
            {
              "internalType": "address",
              "name": "claimant",
              "type": "address"
            },
            {
              "internalType": "address",
              "name": "originalOwner",
              "type": "address"
            },
            {
              "internalType": "uint64",
              "name": "initiatedAt",
              "type": "uint64"
            },
            {
              "internalType": "uint64",
              "name": "challengeEndsAt",
              "type": "uint64"
            },
            {
              "internalType": "uint64",
              "name": "expiresAt",
              "type": "uint64"
            },
            {
              "internalType": "enum VaultRecoveryClaim.ClaimStatus",
              "name": "status",
              "type": "uint8"
            },
            {
              "internalType": "uint8",
              "name": "guardianApprovals",
              "type": "uint8"
            },
            {
              "internalType": "uint8",
              "name": "verifierVotes",
              "type": "uint8"
            },
            {
              "internalType": "bytes32",
              "name": "evidenceHash",
              "type": "bytes32"
            },
            {
              "internalType": "string",
              "name": "claimReason",
              "type": "string"
            }
          ],
          "internalType": "struct VaultRecoveryClaim.RecoveryClaim",
          "name": "claim",
          "type": "tuple"
        }
      ],
      "stateMutability": "view",
      "type": "function"
    },
    {
      "inputs": [
        {
          "internalType": "uint256",
          "name": "claimId",
          "type": "uint256"
        }
      ],
      "name": "getClaim",
      "outputs": [
        {
          "components": [
            {
              "internalType": "address",
              "name": "vault",
              "type": "address"
            },
            {
              "internalType": "address",
              "name": "claimant",
              "type": "address"
            },
            {
              "internalType": "address",
              "name": "originalOwner",
              "type": "address"
            },
            {
              "internalType": "uint64",
              "name": "initiatedAt",
              "type": "uint64"
            },
            {
              "internalType": "uint64",
              "name": "challengeEndsAt",
              "type": "uint64"
            },
            {
              "internalType": "uint64",
              "name": "expiresAt",
              "type": "uint64"
            },
            {
              "internalType": "enum VaultRecoveryClaim.ClaimStatus",
              "name": "status",
              "type": "uint8"
            },
            {
              "internalType": "uint8",
              "name": "guardianApprovals",
              "type": "uint8"
            },
            {
              "internalType": "uint8",
              "name": "verifierVotes",
              "type": "uint8"
            },
            {
              "internalType": "bytes32",
              "name": "evidenceHash",
              "type": "bytes32"
            },
            {
              "internalType": "string",
              "name": "claimReason",
              "type": "string"
            }
          ],
          "internalType": "struct VaultRecoveryClaim.RecoveryClaim",
          "name": "",
          "type": "tuple"
        }
      ],
      "stateMutability": "view",
      "type": "function"
    },
    {
      "inputs": [
        {
          "internalType": "uint256",
          "name": "",
          "type": "uint256"
        },
        {
          "internalType": "address",
          "name": "",
          "type": "address"
        }
      ],
      "name": "guardianApproval",
      "outputs": [
        {
          "internalType": "bool",
          "name": "",
          "type": "bool"
        }
      ],
      "stateMutability": "view",
      "type": "function"
    },
    {
      "inputs": [
        {
          "internalType": "uint256",
          "name": "claimId",
          "type": "uint256"
        },
        {
          "internalType": "bool",
          "name": "approve",
          "type": "bool"
        }
      ],
      "name": "guardianVote",
      "outputs": [],
      "stateMutability": "nonpayable",
      "type": "function"
    },
    {
      "inputs": [
        {
          "internalType": "uint256",
          "name": "",
          "type": "uint256"
        },
        {
          "internalType": "address",
          "name": "",
          "type": "address"
        }
      ],
      "name": "guardianVoted",
      "outputs": [
        {
          "internalType": "bool",
          "name": "",
          "type": "bool"
        }
      ],
      "stateMutability": "view",
      "type": "function"
    },
    {
      "inputs": [
        {
          "internalType": "address",
          "name": "vault",
          "type": "address"
        },
        {
          "internalType": "string",
          "name": "recoveryId",
          "type": "string"
        },
        {
          "internalType": "bytes32",
          "name": "evidenceHash",
          "type": "bytes32"
        },
        {
          "internalType": "string",
          "name": "reason",
          "type": "string"
        }
      ],
      "name": "initiateClaim",
      "outputs": [
        {
          "internalType": "uint256",
          "name": "claimId",
          "type": "uint256"
        }
      ],
      "stateMutability": "nonpayable",
      "type": "function"
    },
    {
      "inputs": [
        {
          "internalType": "string",
          "name": "recoveryId",
          "type": "string"
        },
        {
          "internalType": "string",
          "name": "reason",
          "type": "string"
        }
      ],
      "name": "initiateClaimByRecoveryId",
      "outputs": [
        {
          "internalType": "uint256",
          "name": "claimId",
          "type": "uint256"
        }
      ],
      "stateMutability": "nonpayable",
      "type": "function"
    },
    {
      "inputs": [],
      "name": "owner",
      "outputs": [
        {
          "internalType": "address",
          "name": "",
          "type": "address"
        }
      ],
      "stateMutability": "view",
      "type": "function"
    },
    {
      "inputs": [],
      "name": "renounceOwnership",
      "outputs": [],
      "stateMutability": "nonpayable",
      "type": "function"
    },
    {
      "inputs": [
        {
          "internalType": "address",
          "name": "verifier",
          "type": "address"
        },
        {
          "internalType": "bool",
          "name": "trusted",
          "type": "bool"
        }
      ],
      "name": "setTrustedVerifier",
      "outputs": [],
      "stateMutability": "nonpayable",
      "type": "function"
    },
    {
      "inputs": [
        {
          "internalType": "address",
          "name": "_vaultHub",
          "type": "address"
        }
      ],
      "name": "setVaultHub",
      "outputs": [],
      "stateMutability": "nonpayable",
      "type": "function"
    },
    {
      "inputs": [
        {
          "internalType": "address",
          "name": "_vaultRegistry",
          "type": "address"
        }
      ],
      "name": "setVaultRegistry",
      "outputs": [],
      "stateMutability": "nonpayable",
      "type": "function"
    },
    {
      "inputs": [
        {
          "internalType": "address",
          "name": "newOwner",
          "type": "address"
        }
      ],
      "name": "transferOwnership",
      "outputs": [],
      "stateMutability": "nonpayable",
      "type": "function"
    },
    {
      "inputs": [
        {
          "internalType": "address",
          "name": "",
          "type": "address"
        }
      ],
      "name": "trustedVerifier",
      "outputs": [
        {
          "internalType": "bool",
          "name": "",
          "type": "bool"
        }
      ],
      "stateMutability": "view",
      "type": "function"
    },
    {
      "inputs": [],
      "name": "vaultHub",
      "outputs": [
        {
          "internalType": "contract IVaultInfrastructure",
          "name": "",
          "type": "address"
        }
      ],
      "stateMutability": "view",
      "type": "function"
    },
    {
      "inputs": [],
      "name": "vaultRegistry",
      "outputs": [
        {
          "internalType": "contract IVaultRegistry",
          "name": "",
          "type": "address"
        }
      ],
      "stateMutability": "view",
      "type": "function"
    },
    {
      "inputs": [
        {
          "internalType": "uint256",
          "name": "claimId",
          "type": "uint256"
        },
        {
          "internalType": "bool",
          "name": "approve",
          "type": "bool"
        }
      ],
      "name": "verifierVote",
      "outputs": [],
      "stateMutability": "nonpayable",
      "type": "function"
    },
    {
      "inputs": [
        {
          "internalType": "uint256",
          "name": "",
          "type": "uint256"
        },
        {
          "internalType": "address",
          "name": "",
          "type": "address"
        }
      ],
      "name": "verifierVoted",
      "outputs": [
        {
          "internalType": "bool",
          "name": "",
          "type": "bool"
        }
      ],
      "stateMutability": "view",
      "type": "function"
    }
  ],
  "bytecode": "0x60803461010f57601f612ea338819003918201601f19168301916001600160401b0383118484101761011457808492604094855283398101031261010f57610052602061004b8361012a565b920161012a565b33156100f95760008054336001600160a01b0319821681178355604051949290916001600160a01b0316907f8be0079c531659141344cd1fd0a4f28419497f9722a3daafe3b4186f6b6457e09080a3600180556001600160a01b031680156100e85760018060a01b0319600254161760025560018060a01b031660018060a01b03196003541617600355612d64908161013f8239f35b63d92e233d60e01b60005260046000fd5b631e4fbdf760e01b600052600060045260246000fd5b600080fd5b634e487b7160e01b600052604160045260246000fd5b51906001600160a01b038216820361010f5756fe6080604052600436101561001257600080fd5b6000803560e01c80630741206e1461254857806314907bfd1461250f57806315d31806146124455780632941f9df1461242957806338d86bcf146121af5780633b74b77a14611fec5780633f1db3ea14611e2357806342b8af6c14611b2e57806349d5787414611b105780634d94b96f14611ad15780634e75624d14611a855780634efa8f1714611a6757806354f93e2e146119e95780635aef2447146119915780636dd6e80b14611968578063715018a61461190e5780637167d427146118e7578063791e95c01461189b5780637a9711141461155e5780638da5cb5b14611537578063a888c2cd1461144f578063b4cd85af14611431578063bd5e95ba14611304578063c3a079ed146112e6578063cb91dd7b146112a1578063cdd7b38a14611278578063e2dfce331461122c578063e4e2bfe4146111ec578063e9fcf4dd14610b29578063f2fde38b14610aa3578063fb3fff9d14610a875763fdec26091461017d57600080fd5b34610a84576040366003190112610a84576004356001600160401b038111610a82576101ad9036906004016125d0565b906024356001600160401b0381116106c2576101cd9036906004016125d0565b9290936101d8612ca5565b6003546001600160a01b0316928315610a4a57602060405180956328cc671160e01b8252818061020c8887600484016128a6565b03915afa938415610a3f578294610a1e575b506001600160a01b038416156109e75760025460405163652b9b4160e01b81526001600160a01b038681166004830152909160209183916024918391165afa9081156109dc5783916109ad575b501561099e576001600160a01b038416825260066020526040822054610837575b600254604051630709df4560e01b81523360048201526001600160a01b039091169390602081602481885afa9081156107fe578491610818575b506001600160a01b0316610809576003546001600160a01b031680610718575b5050604051632724fe0960e01b81526001600160a01b03851660048201529260209150839060249082905afa91821561070b5781926106da575b506005549360001985146106c657600185016005556001600160401b036103464261292b565b16906001600160401b036103594261293b565b16604051926103678461276c565b6001600160a01b03878116855233602086015286166040850152426001600160401b03166060850152608084015260a0830152600160c083015260e08201839052610100820183905261012082018390526103c181612a1c565b966103cf604051988961279e565b81885236828201116106c257818492602092838b013788010152610140810195865260018581018352600460209081526040808520845181546001600160a01b03199081166001600160a01b03928316178355938601519482018054909416948116949094179092558084015160028301805460608701516001600160e01b0319909116929095169190911760a094851b600160a01b600160e01b03161790556080840151600383018054948601516001600160801b03199095166001600160401b0392909216919091179390911b600160401b600160801b031692909217825560c08301519092919060088110156106ae57916104f7826104d76005969561012095612863565b6104e860ff60e08501511682612963565b60ff61010084015116906128f5565b015160048201550194519485516001600160401b03811161069a5761051c8254612732565b601f8111610655575b506020968790601f83116001146105e657928260409386936003966001600160401b0398926105db575b50508160011b9160001990871b1c19161790555b6001600160a01b0395861680825260068952828220600189019081905580835260048a5292909120929092015460408051959096168552851c9290921683870152339390927f0148a0de706530411746da9dd7cce6e287476743bd7f912d62c75552f251b59b9190a460018055600160405191018152f35b01519050388061054f565b8385528185209190601f198416865b81811061063e5750936001600160401b039693600396936001938360409810610626575b505050811b019055610563565b015160001983891b60f8161c19169055388080610619565b92938b6001819287860151815501950193016105f5565b82845260208420601f830160051c81019160208410610690575b601f0160051c01905b8181106106855750610525565b848155600101610678565b909150819061066f565b634e487b7160e01b83526041600452602483fd5b634e487b7160e01b85526021600452602485fd5b8380fd5b634e487b7160e01b82526011600452602482fd5b6106fd91925060203d602011610704575b6106f5818361279e565b810190612c5d565b9038610320565b503d6106eb565b50604051903d90823e3d90fd5b60405163032997db60e31b81526001600160a01b0387166004820152929190602090849060249082905afa9283156107fe5784936107ca575b5082156102e65761077f6020604051838194838301968737810187838201520301601f19810183528261279e565b5190200361078f573880806102e6565b60405162461bcd60e51b8152602060048201526013602482015272125b9d985b1a59081c9958dbdd995c9e481251606a1b6044820152606490fd5b9092506020813d6020116107f6575b816107e66020938361279e565b810103126106c257519138610751565b3d91506107d9565b6040513d86823e3d90fd5b634657e50360e01b8352600483fd5b610831915060203d602011610704576106f5818361279e565b386102c6565b60018060a01b038416825260066020526040822054825260046020526003604083200180546001600160401b038160401c1642118061093f575b156108a55750805460ff60801b1916600760801b1790556001600160a01b038416825260066020526040822082905561028c565b60ff915060801c166008811015908161091e5760018114918215610932575b821561090d575b82156108e8575b50501561028c576380497e3b60e01b8252600482fd5b9091506108f95760031438806108d2565b634e487b7160e01b83526021600452602483fd5b80925061091e5760048114916108cb565b634e487b7160e01b84526021600452602484fd5b50600281149150836108c4565b5060ff8160801c166008811015908161098a576001811491821561097d575b821561096c575b5050610871565b9091506106ae576003143880610965565b506002811491508561095e565b634e487b7160e01b86526021600452602486fd5b630681d31960e51b8252600482fd5b6109cf915060203d6020116109d5575b6109c7818361279e565b81019061294b565b3861026b565b503d6109bd565b6040513d85823e3d90fd5b60405162461bcd60e51b815260206004820152600f60248201526e15985d5b1d081b9bdd08199bdd5b99608a1b6044820152606490fd5b610a3891945060203d602011610704576106f5818361279e565b923861021e565b6040513d84823e3d90fd5b60405162461bcd60e51b815260206004820152601060248201526f149959da5cdd1c9e481b9bdd081cd95d60821b6044820152606490fd5b505b80fd5b5034610a845780600319360112610a8457602060405160038152f35b5034610a84576020366003190112610a8457610abd61259f565b610ac5612c7c565b6001600160a01b03168015610b155781546001600160a01b03198116821783556001600160a01b03167f8be0079c531659141344cd1fd0a4f28419497f9722a3daafe3b4186f6b6457e08380a380f35b631e4fbdf760e01b82526004829052602482fd5b5034610a84576080366003190112610a8457610b4361259f565b906024356001600160401b038111610a8257610b639036906004016125d0565b6064939193356001600160401b0381116106c257610b859036906004016125d0565b939094610b90612ca5565b60025460405163652b9b4160e01b81526001600160a01b038681166004830152909160209183916024918391165afa9081156109dc5783916111cd575b501561099e576001600160a01b0384168252600660205260408220546110a2575b600254604051630709df4560e01b81523360048201526001600160a01b039091169390602081602481885afa9081156107fe578491611083575b506001600160a01b0316610809576003546001600160a01b031680610fd8575b5050604051632724fe0960e01b81526001600160a01b03851660048201529260209150839060249082905afa91821561070b578192610fb7575b506005549360001985146106c657600185016005556001600160401b03610ca84261292b565b16906001600160401b03610cbb4261293b565b1660405192610cc98461276c565b6001600160a01b03878116855233602086015286166040850152426001600160401b03166060850152608084015260a0830152600160c083015260e082018390526101008201839052604435610120830152610d2481612a1c565b96610d32604051988961279e565b81885236828201116106c257818492602092838b013788010152610140810195865260018581018352600460209081526040808520845181546001600160a01b03199081166001600160a01b03928316178355938601519482018054909416948116949094179092558084015160028301805460608701516001600160e01b0319909116929095169190911760a094851b600160a01b600160e01b03161790556080840151600383018054948601516001600160801b03199095166001600160401b0392909216919091179390911b600160401b600160801b031692909217825560c08301519092919060088110156106ae5791610e3a826104d76005969561012095612863565b015160048201550194519485516001600160401b03811161069a57610e5f8254612732565b601f8111610f72575b506020968790601f8311600114610f1c57928260409386936003966001600160401b0398926105db5750508160011b9160001990871b1c19161790556001600160a01b0395861680825260068952828220600189019081905580835260048a5292909120929092015460408051959096168552851c9290921683870152339390927f0148a0de706530411746da9dd7cce6e287476743bd7f912d62c75552f251b59b9190a460018055600160405191018152f35b8385528185209190601f198416865b818110610f5b5750936001600160401b03969360039693600193836040981061062657505050811b019055610563565b92938b600181928786015181550195019301610f2b565b82845260208420601f830160051c81019160208410610fad575b601f0160051c01905b818110610fa25750610e68565b848155600101610f95565b9091508190610f8c565b610fd191925060203d602011610704576106f5818361279e565b9038610c82565b60405163032997db60e31b81526001600160a01b0387166004820152929190602090849060249082905afa9283156107fe57849361104f575b508215610c485761103f6020604051838194838301968737810187838201520301601f19810183528261279e565b5190200361078f57388080610c48565b9092506020813d60201161107b575b8161106b6020938361279e565b810103126106c257519138611011565b3d915061105e565b61109c915060203d602011610704576106f5818361279e565b38610c28565b60018060a01b038416825260066020526040822054825260046020526003604083200180546001600160401b038160401c16421180611182575b156111105750805460ff60801b1916600760801b1790556001600160a01b0384168252600660205260408220829055610bee565b60ff915060801c166008811015908161091e5760018114918215611175575b8215611164575b8215611153575b505015610bee576380497e3b60e01b8252600482fd5b9091506108f957600314388061113d565b80925061091e576004811491611136565b506002811491508361112f565b5060ff8160801c166008811015908161098a57600181149182156111c0575b82156111af575b50506110dc565b9091506106ae5760031438806111a8565b50600281149150856111a1565b6111e6915060203d6020116109d5576109c7818361279e565b38610bcd565b5034610a84576020366003190112610a8457611209600435612a37565b906112286040519283921515835260406020840152604083019061262f565b0390f35b5034610a84576040366003190112610a845760406112486125ba565b9160043581526008602052209060018060a01b0316600052602052602060ff604060002054166040519015158152f35b5034610a845780600319360112610a84576003546040516001600160a01b039091168152602090f35b5034610a84576020366003190112610a84576112bb61259f565b6112c3612c7c565b600380546001600160a01b0319166001600160a01b039290921691909117905580f35b5034610a845780600319360112610a8457602060405162093a808152f35b5034610a84576020366003190112610a845761131e61259f565b90611327612980565b6001600160a01b039092168152600660205260408120549081611362575b506112286040519283928352604060208401526040830190612670565b81604092935081526004602052206114246005604051926113828461276c565b60018060a01b03815416845260018060a01b0360018201541660208501526001600160401b03600282015460018060a01b038116604087015260a01c16606085015260ff60038201546001600160401b03811660808701526001600160401b038160401c1660a08701526113fe828260801c1660c088016129db565b818160881c1660e087015260901c166101008501526004810154610120850152016127bf565b6101408201529038611345565b5034610a845780600319360112610a84576020604051621275008152f35b5034610a84576020366003190112610a8457604090600435815260046020522060018060a01b0381541661122860018060a01b036001840154169260028101549060ff60038201546001600160401b036114b06005600486015495016127bf565b946040519889988952602089015260018060a01b038116604089015260a01c1660608701526001600160401b03811660808701526001600160401b038160401c1660a087015261150860c08701838360801c1661260c565b818160881c1660e087015260901c1661010085015261012084015261016061014084015261016083019061262f565b5034610a845780600319360112610a8457546040516001600160a01b039091168152602090f35b5034610a84576020366003190112610a845760043561157b612ca5565b80825260046020526040822060038101805460ff8160801c16600881101561098a576002811415908161188f575b506118805760401c6001600160401b0316421161181b5780546001600160401b038116421061180c5760801c60ff1660088110156106ae576002146117b9575b5050808252600460205260408220600254815460018301805493949093909286926001600160a01b03918216929082169116823b156106c25760448492836040519586948593631a65688160e01b8552600485015260248401525af18015610a3f576117a4575b5050600254835460405163f20ca7ed60e01b81526001600160a01b0391821660048201529160209183916024918391165afa8015611799576001600160401b0391869161176a575b50168015158091819261175f575b5015611726575060038301805460ff60801b1916600560801b1790555b82546001600160a01b03908116855260066020908152604080872087905585549454600290960154905190831681529482169493909116927f02f15fccddc354e2331b022195b2ab6306ce04a22561521ebe0e8913c5fb8a5e9190a46001805580f35b156117455760038301805460ff60801b1916600160821b1790556116c3565b60038301805460ff60801b1916600160821b1790556116c3565b9050421015386116a6565b61178c915060203d602011611792575b611784818361279e565b810190612887565b38611698565b503d61177a565b6040513d87823e3d90fd5b816117ae9161279e565b6106c2578338611650565b805460ff60801b1916600160821b1790558054600191909101546001600160a01b039081169116827f35cc46be3cd6c522a5c476fd967d23d863f0012d507dcabc9037ec99a91482d88580a438806115e9565b6364b81b1960e11b8552600485fd5b805460ff60801b1916600760801b17905580546001600160a01b0390811684526006602052604084208490559054600493929116907fa01f4580d13af8b2fcc988b3e0d01a43aa7310fe0474086214978fab1175ecdf8380a36378e090f760e01b8152fd5b638af69cf160e01b8552600485fd5b600491501415386115a9565b5034610a84576040366003190112610a845760406118b76125ba565b9160043581526009602052209060018060a01b0316600052602052602060ff604060002054166040519015158152f35b5034610a84576020366003190112610a845760206119066004356129e7565b604051908152f35b5034610a845780600319360112610a8457611927612c7c565b80546001600160a01b03198116825581906001600160a01b03167f8be0079c531659141344cd1fd0a4f28419497f9722a3daafe3b4186f6b6457e08280a380f35b5034610a845780600319360112610a84576002546040516001600160a01b039091168152602090f35b5034610a84576020366003190112610a84576040611228916119b1612980565b5060043581526004602052206119cf6005604051926113828461276c565b610140820152604051918291602083526020830190612670565b5034610a84576040366003190112610a8457611a0361259f565b7f7a6dd775b9b6aa6ebde6f0c51172ef328eb9658e095364751705f28234e7257c6020611a2e6125fd565b92611a37612c7c565b6001600160a01b0316808552600a825260408520805460ff191660ff86151516179055926040519015158152a280f35b5034610a845780600319360112610a84576020600554604051908152f35b5034610a84576040366003190112610a84576040611aa16125ba565b9160043581526007602052209060018060a01b0316600052602052602060ff604060002054166040519015158152f35b5034610a84576020366003190112610a845760209060ff906040906001600160a01b03611afc61259f565b168152600a84522054166040519015158152f35b5034610a845780600319360112610a8457602060405162278d008152f35b5034610a84576040366003190112610a8457600435611b4b6125fd565b90611b54612ca5565b808352600460205260408320916003830192835460ff8160801c166008811015611e0f57600103611e005760401c6001600160401b03164211611df157828552600760209081526040808720336000908152925290205460ff16611de25754604051630c68ba2160e01b81523360048201526001600160a01b039091169190602081602481865afa908115611db8578691611dc3575b5015611d8a576040516363f95a3b60e01b8152336004820152602081602481865afa908115611db8578691611d99575b5015611d8a578285526007602090815260408087203360008181529184528282208054600160ff1991821617909155878a5260098552838a20918352908452919020805490911660ff84151516179055600492909180611d6c575b60ff865460881c16947f6591fafddb662528da3bece8a0e1a4681e32f5b19a9996e28a15f8e93f9aa8a460405180611cc18933968390929160ff60209160408401951515845216910152565b0390a36040516354387ad760e01b815292839182905afa9081156107fe5760ff91611cf3918691611d3d575b50612cc7565b161115611d03575b506001805580f35b805460ff60801b1916600160811b1781556001600160401b0380611d264261292b565b16166001600160401b031982541617905538611cfb565b611d5f915060203d602011611d65575b611d57818361279e565b810190612912565b38611ced565b503d611d4d565b611d85611d7f60ff885460881c166128ce565b87612963565b611c75565b6377b6878160e11b8552600485fd5b611db2915060203d6020116109d5576109c7818361279e565b38611c1a565b6040513d88823e3d90fd5b611ddc915060203d6020116109d5576109c7818361279e565b38611bea565b637c9a1cf960e01b8552600485fd5b6378e090f760e01b8552600485fd5b6348f8d3b160e01b8652600486fd5b634e487b7160e01b87526021600452602487fd5b5034610a84576040366003190112610a8457600435611e406125fd565b90611e49612ca5565b8083526004602052604083206003810192835460ff8160801c166008811015611e0f5760018114159081611fe0575b50611e005760401c6001600160401b03164211611df157828552600860209081526040808720336000908152925290205460ff16611de257338552600a60205260ff60408620541615611fd15782855260086020908152604080872033600090815290835220805460ff19166001179055600492909180611fb3575b60ff865460901c16947fe86a1c59d9e847c0662205957722396068e768d0bbc52ab9553b9896af7e131260405180611f408933968390929160ff60209160408401951515845216910152565b0390a3546040516354387ad760e01b815292839182906001600160a01b03165afa80156107fe5760ff918591611f94575b5016159081611f88575b50611d0357506001805580f35b60039150101538611f7b565b611fad915060203d602011611d6557611d57818361279e565b38611f71565b611fcc611fc660ff885460901c166128ce565b876128f5565b611ef4565b630ee24e3760e11b8552600485fd5b60029150141538611e78565b5034610a84576040366003190112610a84576004356024356001600160401b0381116121ab576120209036906004016125d0565b90612029612ca5565b828452600460205260408420916003830160ff815460801c166008811015908161218a57801591821561219e575b8215612179575b8215612168575b50506121595760028401546001600160a01b0316330361214a57805460ff60801b1916600360811b17905582546001600160a01b031685526006602052604080862086905551339285927f19f658ff9b34c9fd1b45c96134524129191b422b932e9de6a236c952da5b9c50929182916120de91836128a6565b0390a360018060a01b03905416907f4682ef87b3db3f66192d1dc1efd5d2a314cdd9c61e14219f671c03e6f507823a606060405160208152601c60208201527b21b430b63632b733b2b210313c9037b934b3b4b730b61037bbb732b960211b6040820152a36001805580f35b6323a7681d60e01b8652600486fd5b63dc3d406360e01b8652600486fd5b909150611e0f576007143880612065565b80925061218a57600681149161205e565b634e487b7160e01b88526021600452602488fd5b5060058114915087612057565b8280fd5b5034610a84576020366003190112610a84576004356121cc612ca5565b808252600460205260408220906003820160ff815460801c1660088110156106ae576004811490811561241e575b50156123ea57600254835460405163f20ca7ed60e01b81526001600160a01b03918216600482018190529190921691602081602481865afa80156123df576001600160401b039188916123c0575b5016801561237b574210612340578186923b156121ab5760248392604051948593849263c5c8220360e01b845260048401525af1908161232c575b506122cb575081546001909201546001600160a01b039081169216907f35cc46be3cd6c522a5c476fd967d23d863f0012d507dcabc9037ec99a91482d88480a45b6001805580f35b805460ff60801b1916600560801b179055815460018301546002909301546040516001600160a01b03918216815293811693911691907f02f15fccddc354e2331b022195b2ab6306ce04a22561521ebe0e8913c5fb8a5e90602090a46122c4565b856123399196929661279e565b9338612283565b60405162461bcd60e51b81526020600482015260136024820152721d1a5b595b1bd8dac81b9bdd081c185cdcd959606a1b6044820152606490fd5b60405162461bcd60e51b815260206004820152601d60248201527f7265636f76657279206e6f7420696e69746961746564206f6e206875620000006044820152606490fd5b6123d9915060203d60201161179257611784818361279e565b38612248565b6040513d89823e3d90fd5b60405162461bcd60e51b815260206004820152600c60248201526b1b9bdd08185c1c1c9bdd995960a21b6044820152606490fd5b6005915014386121fa565b5034610a845780600319360112610a8457602060405160028152f35b5034610a84576020366003190112610a845760043580825260046020526040822060038101805460ff8160801c16600881101561098a5760018114908115612504575b50612491578480f35b60401c6001600160401b031642116124a857808480f35b805460ff60801b1916600760801b17905580546001600160a01b039081168452600660205260408420849055905416907fa01f4580d13af8b2fcc988b3e0d01a43aa7310fe0474086214978fab1175ecdf8380a3388080808480f35b600291501438612488565b5034610a84576020366003190112610a84576020906040906001600160a01b0361253761259f565b168152600683522054604051908152f35b5034610a84576020366003190112610a845761256261259f565b61256a612c7c565b6001600160a01b0316801561259057600280546001600160a01b03191691909117905580f35b63d92e233d60e01b8252600482fd5b600435906001600160a01b03821682036125b557565b600080fd5b602435906001600160a01b03821682036125b557565b9181601f840112156125b5578235916001600160401b0383116125b557602083818601950101116125b557565b6024359081151582036125b557565b9060088210156126195752565b634e487b7160e01b600052602160045260246000fd5b919082519283825260005b84811061265b575050826000602080949584010152601f8019910116010190565b8060208092840101518282860101520161263a565b9061016061014061272f9360018060a01b03815116845260018060a01b03602082015116602085015260018060a01b0360408201511660408501526001600160401b0360608201511660608501526001600160401b0360808201511660808501526001600160401b0360a08201511660a08501526126f660c082015160c086019061260c565b60ff60e08201511660e085015260ff6101008201511661010085015261012081015161012085015201519181610140820152019061262f565b90565b90600182811c92168015612762575b602083101461274c57565b634e487b7160e01b600052602260045260246000fd5b91607f1691612741565b61016081019081106001600160401b0382111761278857604052565b634e487b7160e01b600052604160045260246000fd5b90601f801991011681019081106001600160401b0382111761278857604052565b90604051918260008254926127d384612732565b808452936001811690811561284157506001146127fa575b506127f89250038361279e565b565b90506000929192526020600020906000915b8183106128255750509060206127f892820101386127eb565b602091935080600191548385890101520191019091849261280c565b9050602092506127f894915060ff191682840152151560051b820101386127eb565b90600881101561261957815460ff60801b191660809190911b60ff60801b16179055565b908160209103126125b557516001600160401b03811681036125b55790565b90918060409360208452816020850152848401376000828201840152601f01601f1916010190565b60ff1660ff81146128df5760010190565b634e487b7160e01b600052601160045260246000fd5b805460ff60901b191660909290921b60ff60901b16919091179055565b908160209103126125b5575160ff811681036125b55790565b9062093a8082018092116128df57565b9062278d0082018092116128df57565b908160209103126125b5575180151581036125b55790565b805460ff60881b191660889290921b60ff60881b16919091179055565b6040519061298d8261276c565b60606101408360008152600060208201526000604082015260008382015260006080820152600060a0820152600060c0820152600060e0820152600061010082015260006101208201520152565b60088210156126195752565b60005260046020526001600160401b036003604060002001541680421015612a16574281039081116128df5790565b50600090565b6001600160401b03811161278857601f01601f191660200190565b60005260046020526003604060002001549060ff8260801c16916008831015612619578215612c2557600060058414612bee575060068314612bb85760009260078114612b8b576001600160401b038260401c164211612b5a5760019192935014612b1b576001600160401b03164210612add57600190604051612abc60408261279e565b6011815270526561647920746f2066696e616c697a6560781b602082015290565b600090604051612aee60408261279e565b601d81527f4368616c6c656e676520706572696f64207374696c6c20616374697665000000602082015290565b50600090604051612b2d60408261279e565b601d81527f57616974696e6720666f7220677561726469616e20617070726f76616c000000602082015290565b5050604051612b6a60408261279e565b601181527010db185a5b481a185cc8195e1c1a5c9959607a1b602082015290565b5050604051612b9b60408261279e565b600d81526c10db185a5b48195e1c1a5c9959609a1b602082015290565b509050600090604051612bcc60408261279e565b601281527110db185a5b481dd85cc81c995a9958dd195960721b602082015290565b925050604051612bff60408261279e565b601681527510db185a5b48185b1c9958591e48195e1958dd5d195960521b602082015290565b509050600090604051612c3960408261279e565b601481527310db185a5b48191bd95cc81b9bdd08195e1a5cdd60621b602082015290565b908160209103126125b557516001600160a01b03811681036125b55790565b6000546001600160a01b03163303612c9057565b63118cdaa760e01b6000523360045260246000fd5b600260015414612cb6576002600155565b633ee5aeb560e01b60005260046000fd5b60ff81168015612d275760018114612d205760028114612d195760038114612d195760048114612d1257600514612d0c57607f600191821c160160ff81116128df5790565b50600390565b5050600390565b5050600290565b5050600190565b505060009056fea26469706673582212208afa7b4e69638fb423b4ff44c02caef2769e092a1d7899e37540549999e9342464736f6c634300081e0033",
  "linkReferences": {},
  "deployedLinkReferences": {}
}