{
  "_format": "hh-sol-artifact-1",
  "contractName": "EmergencyBreaker",
  "sourceName": "contracts/EmergencyBreaker.sol",
  "abi": [
    {
      "inputs": [
        {
          "internalType": "address",
          "name": "initialOwner",
          "type": "address"
        }
      ],
      "stateMutability": "nonpayable",
      "type": "constructor"
    },
    {
      "inputs": [],
      "name": "NotGov",
      "type": "error"
    },
    {
      "inputs": [],
      "name": "NotTrusted",
      "type": "error"
    },
    {
      "inputs": [],
      "name": "ZeroAddress",
      "type": "error"
    },
    {
      "anonymous": false,
      "inputs": [
        {
          "indexed": true,
          "internalType": "address",
          "name": "trigger",
          "type": "address"
        },
        {
          "indexed": false,
          "internalType": "uint8",
          "name": "severity",
          "type": "uint8"
        },
        {
          "indexed": false,
          "internalType": "uint8",
          "name": "reason",
          "type": "uint8"
        },
        {
          "indexed": false,
          "internalType": "uint8",
          "name": "module",
          "type": "uint8"
        },
        {
          "indexed": false,
          "internalType": "bytes32",
          "name": "ctx",
          "type": "bytes32"
        }
      ],
      "name": "AutoTrigger",
      "type": "event"
    },
    {
      "anonymous": false,
      "inputs": [
        {
          "indexed": false,
          "internalType": "uint64",
          "name": "seconds_",
          "type": "uint64"
        }
      ],
      "name": "CooldownSet",
      "type": "event"
    },
    {
      "anonymous": false,
      "inputs": [
        {
          "indexed": true,
          "internalType": "address",
          "name": "dao",
          "type": "address"
        }
      ],
      "name": "DAOUpdated",
      "type": "event"
    },
    {
      "anonymous": false,
      "inputs": [
        {
          "indexed": false,
          "internalType": "uint8",
          "name": "reason",
          "type": "uint8"
        },
        {
          "indexed": true,
          "internalType": "address",
          "name": "by",
          "type": "address"
        },
        {
          "indexed": false,
          "internalType": "bytes32",
          "name": "ctx",
          "type": "bytes32"
        }
      ],
      "name": "GlobalPaused",
      "type": "event"
    },
    {
      "anonymous": false,
      "inputs": [
        {
          "indexed": true,
          "internalType": "address",
          "name": "by",
          "type": "address"
        }
      ],
      "name": "GlobalResumed",
      "type": "event"
    },
    {
      "anonymous": false,
      "inputs": [
        {
          "indexed": false,
          "internalType": "uint16",
          "name": "score",
          "type": "uint16"
        }
      ],
      "name": "MinResumeScoreSet",
      "type": "event"
    },
    {
      "anonymous": false,
      "inputs": [
        {
          "indexed": true,
          "internalType": "uint8",
          "name": "module",
          "type": "uint8"
        },
        {
          "indexed": false,
          "internalType": "uint8",
          "name": "reason",
          "type": "uint8"
        },
        {
          "indexed": true,
          "internalType": "address",
          "name": "by",
          "type": "address"
        },
        {
          "indexed": false,
          "internalType": "bytes32",
          "name": "ctx",
          "type": "bytes32"
        }
      ],
      "name": "ModulePaused",
      "type": "event"
    },
    {
      "anonymous": false,
      "inputs": [
        {
          "indexed": true,
          "internalType": "uint8",
          "name": "module",
          "type": "uint8"
        },
        {
          "indexed": true,
          "internalType": "address",
          "name": "by",
          "type": "address"
        }
      ],
      "name": "ModuleResumed",
      "type": "event"
    },
    {
      "anonymous": false,
      "inputs": [
        {
          "indexed": true,
          "internalType": "address",
          "name": "previousOwner",
          "type": "address"
        },
        {
          "indexed": true,
          "internalType": "address",
          "name": "newOwner",
          "type": "address"
        }
      ],
      "name": "OwnershipTransferStarted",
      "type": "event"
    },
    {
      "anonymous": false,
      "inputs": [
        {
          "indexed": true,
          "internalType": "address",
          "name": "previousOwner",
          "type": "address"
        },
        {
          "indexed": true,
          "internalType": "address",
          "name": "newOwner",
          "type": "address"
        }
      ],
      "name": "OwnershipTransferred",
      "type": "event"
    },
    {
      "anonymous": false,
      "inputs": [
        {
          "indexed": true,
          "internalType": "address",
          "name": "proof",
          "type": "address"
        }
      ],
      "name": "ProofSinkSet",
      "type": "event"
    },
    {
      "anonymous": false,
      "inputs": [
        {
          "indexed": true,
          "internalType": "address",
          "name": "seer",
          "type": "address"
        }
      ],
      "name": "SeerSet",
      "type": "event"
    },
    {
      "anonymous": false,
      "inputs": [
        {
          "indexed": true,
          "internalType": "address",
          "name": "trigger",
          "type": "address"
        },
        {
          "indexed": false,
          "internalType": "bool",
          "name": "trusted",
          "type": "bool"
        }
      ],
      "name": "TrustedTriggerSet",
      "type": "event"
    },
    {
      "inputs": [],
      "name": "acceptOwnership",
      "outputs": [],
      "stateMutability": "nonpayable",
      "type": "function"
    },
    {
      "inputs": [
        {
          "internalType": "uint8",
          "name": "severity",
          "type": "uint8"
        },
        {
          "internalType": "uint8",
          "name": "reason",
          "type": "uint8"
        },
        {
          "internalType": "enum EmergencyBreaker.Module",
          "name": "mod",
          "type": "uint8"
        },
        {
          "internalType": "bytes32",
          "name": "ctx",
          "type": "bytes32"
        }
      ],
      "name": "autoTrip",
      "outputs": [],
      "stateMutability": "nonpayable",
      "type": "function"
    },
    {
      "inputs": [],
      "name": "canResumeNow",
      "outputs": [
        {
          "internalType": "bool",
          "name": "ok",
          "type": "bool"
        },
        {
          "internalType": "string",
          "name": "why",
          "type": "string"
        }
      ],
      "stateMutability": "view",
      "type": "function"
    },
    {
      "inputs": [],
      "name": "cooldownSecs",
      "outputs": [
        {
          "internalType": "uint64",
          "name": "",
          "type": "uint64"
        }
      ],
      "stateMutability": "view",
      "type": "function"
    },
    {
      "inputs": [],
      "name": "dao",
      "outputs": [
        {
          "internalType": "address",
          "name": "",
          "type": "address"
        }
      ],
      "stateMutability": "view",
      "type": "function"
    },
    {
      "inputs": [],
      "name": "globalPaused",
      "outputs": [
        {
          "internalType": "bool",
          "name": "",
          "type": "bool"
        }
      ],
      "stateMutability": "view",
      "type": "function"
    },
    {
      "inputs": [
        {
          "internalType": "enum EmergencyBreaker.Module",
          "name": "m",
          "type": "uint8"
        }
      ],
      "name": "isModulePaused",
      "outputs": [
        {
          "internalType": "bool",
          "name": "",
          "type": "bool"
        }
      ],
      "stateMutability": "view",
      "type": "function"
    },
    {
      "inputs": [],
      "name": "isSystemPaused",
      "outputs": [
        {
          "internalType": "bool",
          "name": "",
          "type": "bool"
        }
      ],
      "stateMutability": "view",
      "type": "function"
    },
    {
      "inputs": [
        {
          "internalType": "address",
          "name": "",
          "type": "address"
        }
      ],
      "name": "isTrustedTrigger",
      "outputs": [
        {
          "internalType": "bool",
          "name": "",
          "type": "bool"
        }
      ],
      "stateMutability": "view",
      "type": "function"
    },
    {
      "inputs": [],
      "name": "lastTripAt",
      "outputs": [
        {
          "internalType": "uint64",
          "name": "",
          "type": "uint64"
        }
      ],
      "stateMutability": "view",
      "type": "function"
    },
    {
      "inputs": [],
      "name": "lastTripBy",
      "outputs": [
        {
          "internalType": "address",
          "name": "",
          "type": "address"
        }
      ],
      "stateMutability": "view",
      "type": "function"
    },
    {
      "inputs": [],
      "name": "lastTripCtx",
      "outputs": [
        {
          "internalType": "bytes32",
          "name": "",
          "type": "bytes32"
        }
      ],
      "stateMutability": "view",
      "type": "function"
    },
    {
      "inputs": [],
      "name": "lastTripReason",
      "outputs": [
        {
          "internalType": "uint8",
          "name": "",
          "type": "uint8"
        }
      ],
      "stateMutability": "view",
      "type": "function"
    },
    {
      "inputs": [],
      "name": "minResumeScore",
      "outputs": [
        {
          "internalType": "uint16",
          "name": "",
          "type": "uint16"
        }
      ],
      "stateMutability": "view",
      "type": "function"
    },
    {
      "inputs": [
        {
          "internalType": "uint8",
          "name": "",
          "type": "uint8"
        }
      ],
      "name": "modulePaused",
      "outputs": [
        {
          "internalType": "bool",
          "name": "",
          "type": "bool"
        }
      ],
      "stateMutability": "view",
      "type": "function"
    },
    {
      "inputs": [],
      "name": "owner",
      "outputs": [
        {
          "internalType": "address",
          "name": "",
          "type": "address"
        }
      ],
      "stateMutability": "view",
      "type": "function"
    },
    {
      "inputs": [
        {
          "internalType": "uint8",
          "name": "reason",
          "type": "uint8"
        },
        {
          "internalType": "bytes32",
          "name": "ctx",
          "type": "bytes32"
        }
      ],
      "name": "pauseGlobal",
      "outputs": [],
      "stateMutability": "nonpayable",
      "type": "function"
    },
    {
      "inputs": [
        {
          "internalType": "enum EmergencyBreaker.Module",
          "name": "m",
          "type": "uint8"
        },
        {
          "internalType": "uint8",
          "name": "reason",
          "type": "uint8"
        },
        {
          "internalType": "bytes32",
          "name": "ctx",
          "type": "bytes32"
        }
      ],
      "name": "pauseModule",
      "outputs": [],
      "stateMutability": "nonpayable",
      "type": "function"
    },
    {
      "inputs": [],
      "name": "pendingOwner",
      "outputs": [
        {
          "internalType": "address",
          "name": "",
          "type": "address"
        }
      ],
      "stateMutability": "view",
      "type": "function"
    },
    {
      "inputs": [],
      "name": "proof",
      "outputs": [
        {
          "internalType": "contract IProofLedger",
          "name": "",
          "type": "address"
        }
      ],
      "stateMutability": "view",
      "type": "function"
    },
    {
      "inputs": [],
      "name": "renounceOwnership",
      "outputs": [],
      "stateMutability": "nonpayable",
      "type": "function"
    },
    {
      "inputs": [],
      "name": "resumeGlobal",
      "outputs": [],
      "stateMutability": "nonpayable",
      "type": "function"
    },
    {
      "inputs": [
        {
          "internalType": "enum EmergencyBreaker.Module",
          "name": "m",
          "type": "uint8"
        }
      ],
      "name": "resumeModule",
      "outputs": [],
      "stateMutability": "nonpayable",
      "type": "function"
    },
    {
      "inputs": [],
      "name": "seer",
      "outputs": [
        {
          "internalType": "contract ISeerHealth",
          "name": "",
          "type": "address"
        }
      ],
      "stateMutability": "view",
      "type": "function"
    },
    {
      "inputs": [
        {
          "internalType": "uint64",
          "name": "seconds_",
          "type": "uint64"
        }
      ],
      "name": "setCooldown",
      "outputs": [],
      "stateMutability": "nonpayable",
      "type": "function"
    },
    {
      "inputs": [
        {
          "internalType": "address",
          "name": "dao_",
          "type": "address"
        }
      ],
      "name": "setDAO",
      "outputs": [],
      "stateMutability": "nonpayable",
      "type": "function"
    },
    {
      "inputs": [
        {
          "internalType": "uint16",
          "name": "score",
          "type": "uint16"
        }
      ],
      "name": "setMinResumeScore",
      "outputs": [],
      "stateMutability": "nonpayable",
      "type": "function"
    },
    {
      "inputs": [
        {
          "internalType": "address",
          "name": "p_",
          "type": "address"
        }
      ],
      "name": "setProofSink",
      "outputs": [],
      "stateMutability": "nonpayable",
      "type": "function"
    },
    {
      "inputs": [
        {
          "internalType": "address",
          "name": "s_",
          "type": "address"
        }
      ],
      "name": "setSeer",
      "outputs": [],
      "stateMutability": "nonpayable",
      "type": "function"
    },
    {
      "inputs": [
        {
          "internalType": "address",
          "name": "trigger",
          "type": "address"
        },
        {
          "internalType": "bool",
          "name": "trusted",
          "type": "bool"
        }
      ],
      "name": "setTrustedTrigger",
      "outputs": [],
      "stateMutability": "nonpayable",
      "type": "function"
    },
    {
      "inputs": [
        {
          "internalType": "address",
          "name": "newOwner",
          "type": "address"
        }
      ],
      "name": "transferOwnership",
      "outputs": [],
      "stateMutability": "nonpayable",
      "type": "function"
    }
  ],
  "bytecode": "0x6080346100a857601f61173b38819003918201601f19168301916001600160401b038311848410176100ad578084926020946040528339810103126100a857516001600160a01b0381168082036100a857610059336100c3565b6001600255600a80546001600160501b03191669025800000000000054601790551561009757610088906100c3565b60405161162290816101198239f35b63d92e233d60e01b60005260046000fd5b600080fd5b634e487b7160e01b600052604160045260246000fd5b600180546001600160a01b0319908116909155600080546001600160a01b03938416928116831782559192909116907f8be0079c531659141344cd1fd0a4f28419497f9722a3daafe3b4186f6b6457e09080a356fe608080604052600436101561001357600080fd5b600090813560e01c9081630c804ce614610e0157508063147008f714610dd45780631876922814610dac578063269179cd14610d645780632d55ea3914610d3b5780634162169f14610d1257806348ce238414610c855780634b11982e14610bad5780635d87112514610af357806361a552dc146107df57806366a6e6e1146109d3578063675f54891461086a578063715018a6146108055780637691c4ac146107df57806377adafe7146107bb57806379ba5097146106f257806381a8a2d5146106ca5780638c9e0087146106a55780638da5cb5b1461067e5780639fd6ebc614610622578063a1e977cc146105ec578063a1f7c95e146105ab578063c10001b3146104b9578063c30fc4991461049b578063e071c1c01461040e578063e30c3978146103e5578063e73a914c14610338578063f00a030b146102fc578063f2fde38b1461028f578063f61d3c09146101a15763faf924cf1461017657600080fd5b3461019e578060031936011261019e576004546040516001600160a01b039091168152602090f35b80fd5b503461019e57602036600319011261019e5760043561ffff81169081810361028b5782546001600160a01b031633141580610276575b610267576103e8821161023657600a805469ffff00000000000000001916604092831b69ffff000000000000000016179055519081527fc200e3521794e33730e1697d2a94e11005cbddb65da39853d4c7b2f05685138990602090a180f35b60405162461bcd60e51b81526020600482015260096024820152680e6c6dee4ca7cdac2f60bb1b6044820152606490fd5b63b577c1f760e01b8352600483fd5b506003546001600160a01b03163314156101d7565b8280fd5b503461019e57602036600319011261019e576102a9610e3d565b6102b1611594565b600180546001600160a01b0319166001600160a01b0392831690811790915582549091167f38d16b8cac22d99fc7c124b9cd0de2d3fa1faef420bfe791d8c362d765e227008380a380f35b503461019e578060031936011261019e57610315611104565b9061033460405192839215158352604060208401526040830190610e78565b0390f35b503461019e57602036600319011261019e57610352610e3d565b81546001600160a01b0316331415806103d0575b6103c1576001600160a01b031680156103b257600380546001600160a01b031916821790557f395c0f5a57accc3f0c20646b402f0845c448f3e4ac4a2ec56a3eaf26d15bf79a8280a280f35b63d92e233d60e01b8252600482fd5b63b577c1f760e01b8252600482fd5b506003546001600160a01b0316331415610366565b503461019e578060031936011261019e576001546040516001600160a01b039091168152602090f35b503461019e57602036600319011261019e57610428610e3d565b81546001600160a01b031633141580610486575b6103c157600580546001600160a01b0319166001600160a01b039290921691821790557fc33c1a95c902d772578a793cd3d42b7d0a418863633ff3be7853c55a4d95388a8280a280f35b506003546001600160a01b031633141561043c565b503461019e578060031936011261019e576020600954604051908152f35b503461019e57606036600319011261019e5760043590600b82101561019e576104e0610e68565b9160443560018060a01b0383541633141580610596575b6102675761058561058e939461050b61139c565b60ff848116808852600660209081526040808a20805460ff191660011790558051938516845290830186905233927fe50337190ae5553d71c4920f1ae42edb0271e19e7452277c1b1e9347087c76e991819081015b0390a3610577604051938492602084019687610f14565b03601f198101835282610edc565b519020336113f0565b600160025580f35b506003546001600160a01b03163314156104f7565b503461019e57602036600319011261019e57600435600b8110156105e85760408260ff809360209550168152600684522054166040519015158152f35b5080fd5b503461019e57602036600319011261019e5760ff60406020928261060e610e58565b168152600684522054166040519015158152f35b503461019e57604036600319011261019e5761063c610e58565b81546001600160a01b031633141580610669575b6103c15761058e9061066061139c565b60243590611464565b506003546001600160a01b0316331415610650565b503461019e578060031936011261019e57546040516001600160a01b039091168152602090f35b503461019e578060031936011261019e57602061ffff600a5460401c16604051908152f35b503461019e578060031936011261019e57602067ffffffffffffffff60085416604051908152f35b503461019e578060031936011261019e57600154336001600160a01b039091160361076457600180546001600160a01b0319908116909155815433918116821783556001600160a01b03167f8be0079c531659141344cd1fd0a4f28419497f9722a3daafe3b4186f6b6457e08380a380f35b60405162461bcd60e51b815260206004820152602960248201527f4f776e61626c6532537465703a2063616c6c6572206973206e6f7420746865206044820152683732bb9037bbb732b960b91b6064820152608490fd5b503461019e578060031936011261019e57602060ff60085460401c16604051908152f35b503461019e578060031936011261019e57602060ff60055460a01c166040519015158152f35b503461019e578060031936011261019e5761081e611594565b600180546001600160a01b03199081169091558154908116825581906001600160a01b03167f8be0079c531659141344cd1fd0a4f28419497f9722a3daafe3b4186f6b6457e08280a380f35b503461019e578060031936011261019e5780546001600160a01b0316331415806109be575b6109af5761089b61139c565b6108a3611104565b901561098757506005805460ff60a01b191690556040518190337ffede5cda09a84869cbe3b54495f7c59dada3b0987223c8df11a458891eecce7e8380a26008549060ff602082019267ffffffffffffffff8116845260401c16604082015260408152610911606082610edc565b5190206004546001600160a01b03169081610930575b82600160025580f35b813b15610983578291606483926040519485938492631250d57560e31b84523360048501526068602485015260448401525af161096e575b80610927565b8161097891610edc565b61019e578038610968565b5050fd5b60405162461bcd60e51b8152602060048201529081906109ab906024830190610e78565b0390fd5b63b577c1f760e01b8152600490fd5b506003546001600160a01b031633141561088f565b503461019e57602036600319011261019e57600435600b8110156105e85781546001600160a01b031633141580610ade575b6103c1578190610a1361139c565b60ff811680835260066020526040808420805460ff19169055519033907f0efca03cb28cc628ebfb4dfdc81ebc69cfbd2e489241d66940ce88b0ce01c6328580a3610a62602082018093610eb9565b60208152610a71604082610edc565b5190206004546001600160a01b03169081610a8f5782600160025580f35b813b15610983578291606483926040519586938492631250d57560e31b84523360048501526066602485015260448401525af1610ace575b9080610927565b610ad791610edc565b3881610ac7565b506003546001600160a01b0316331415610a05565b503461019e57604036600319011261019e57610b0d610e3d565b6024359081151580920361028b5782546001600160a01b031633141580610b98575b610267576001600160a01b0316908115610b895760207fdbd667a01c7f24cd482593d253ea49eb6c49d94836d31eccdc3cc13e30fa47d391838552600782526040852060ff1981541660ff8316179055604051908152a280f35b63d92e233d60e01b8352600483fd5b506003546001600160a01b0316331415610b2f565b503461019e57602036600319011261019e5760043567ffffffffffffffff81168091036105e85781546001600160a01b031633141580610c70575b6103c15761012c8110610c36576020817fd3c86bd8150fcc5f376375097a2a9b313bf89addc501ee368c9eebe1173284979267ffffffffffffffff19600a541617600a55604051908152a180f35b60405162461bcd60e51b815260206004820152601260248201527118dbdbdb191bdddb881d1bdbc81cdb585b1b60721b6044820152606490fd5b506003546001600160a01b0316331415610be8565b503461019e57602036600319011261019e57610c9f610e3d565b81546001600160a01b031633141580610cfd575b6103c157600480546001600160a01b0319166001600160a01b039290921691821790557f672081dadde50e814bb62a7286e6c0cad07071fa40747b022649c85346bdbc848280a280f35b506003546001600160a01b0316331415610cb3565b503461019e578060031936011261019e576003546040516001600160a01b039091168152602090f35b503461019e578060031936011261019e576005546040516001600160a01b039091168152602090f35b503461019e57608036600319011261019e57610d7e610e58565b610d86610e68565b90604435600b811015610da85761058e92610d9f61139c565b60643592610f34565b8380fd5b503461019e578060031936011261019e57602067ffffffffffffffff600a5416604051908152f35b503461019e578060031936011261019e5760085460405160489190911c6001600160a01b03168152602090f35b9050346105e85760203660031901126105e85760209160ff906040906001600160a01b03610e2d610e3d565b1681526007855220541615158152f35b600435906001600160a01b0382168203610e5357565b600080fd5b6004359060ff82168203610e5357565b6024359060ff82168203610e5357565b919082519283825260005b848110610ea4575050826000602080949584010152601f8019910116010190565b80602080928401015182828601015201610e83565b90600b821015610ec65752565b634e487b7160e01b600052602160045260246000fd5b90601f8019910116810190811067ffffffffffffffff821117610efe57604052565b634e487b7160e01b600052604160045260246000fd5b60ff604092959493610f2a836060810198610eb9565b1660208201520152565b9290926000338152600760205260ff604082205416156110dd57600b8410156110c95760ff60405192169081835260ff861680602085015260ff8616938460408201528560608201527f7944c034fe2632fb3d01274062b483a7af5cb82ddb02c422cf86c989165d173460803392a260405160208101913383528460408301526060820152610fc66080820188610eb9565b8560a082015260a08152610fdb60c082610edc565b5190206004546001600160a01b0316908161107b575b505090801560001461100557505050505050565b60010361106e5781815260066020908152604091829020805460ff19166001179055815160ff8716815290810184905261106c9561058593909233927fe50337190ae5553d71c4920f1ae42edb0271e19e7452277c1b1e9347087c76e99181908101610560565b565b5050905061106c91611464565b813b1561028b578291606483926040519485938492631250d57560e31b84523260048501526067602485015260448401525af16110b9575b80610ff1565b816110c391610edc565b386110b3565b634e487b7160e01b81526021600452602490fd5b636115324760e11b8152600490fd5b90816020910312610e5357518015158103610e535790565b60055460ff8160a01c16156113705767ffffffffffffffff6008541690600a549167ffffffffffffffff83160167ffffffffffffffff811161135a5767ffffffffffffffff16421061132f576001600160a01b0316908161117a575b5050600190604051611173602082610edc565b6000815290565b60405163c43873db60e01b8152602081600481865afa6000918161130e575b50611309575060005b611160576003546001600160a01b0316806111be575b50611160565b60405163fbac395160e01b815260048101829052602081602481875afa600091816112d8575b5061129f575b5060209060246040518095819363776f384360e01b835260048301525afa6000928161125e575b5061121d575b806111b8565b61ffff809160401c16911610611234573880611217565b600090604051611245604082610edc565b600981526864616f2073636f726560b81b602082015290565b6020939193813d602011611297575b8161127a60209383610edc565b810103126105e857519061ffff8216820361019e57509138611211565b3d915061126d565b6112a957386111ea565b5050506000906040516112bd604082610edc565b600b81526a19185bc8189b1bd8dad95960aa1b602082015290565b6112fb91925060203d602011611302575b6112f38183610edc565b8101906110ec565b90386111e4565b503d6112e9565b6111a2565b61132891925060203d602011611302576112f38183610edc565b9038611199565b5050600090604051611342604082610edc565b600881526731b7b7b63237bbb760c11b602082015290565b634e487b7160e01b600052601160045260246000fd5b50600190604051611382604082610edc565b600a8152691b9bdd081c185d5cd95960b21b602082015290565b60028054146113ab5760028055565b60405162461bcd60e51b815260206004820152601f60248201527f5265656e7472616e637947756172643a207265656e7472616e742063616c6c006044820152606490fd5b6004546000926001600160a01b03909116918261140e575b50505050565b823b15610da8579060648492836040519586948593631250d57560e31b855260018060a01b031660048501526065602485015260448401525af1611454575b8080611408565b8161145e91610edc565b3861144d565b6005805460ff60a01b1916600160a01b17905560088054604083811b68ff0000000000000000166001600160e81b03199092164267ffffffffffffffff16179190911733604881901b6901000000000000000000600160e81b0316919091179092556009849055805160ff84168152602081018590529293927f1a5d648be10547aa5f70a806f4ee48cce94002a47bc31824ca79f66aaccf734a91819081010390a26040519060ff602083019316835233604083015260608201526060815261152e608082610edc565b5190206004546000916001600160a01b03909116908161154d57505050565b813b1561028b578291606483926040519485938492631250d57560e31b845233600485015284602485015260448401525af1611587575050565b8161159191610edc565b50565b6000546001600160a01b031633036115a857565b606460405162461bcd60e51b815260206004820152602060248201527f4f776e61626c653a2063616c6c6572206973206e6f7420746865206f776e65726044820152fdfea26469706673582212203c3fd54294254bab222ea4c656ced5c41daf70649a1c0ebcc0b702f4732ce03f64736f6c634300081e0033",
  "linkReferences": {},
  "deployedLinkReferences": {}
}