{
  "_format": "hh-sol-artifact-1",
  "contractName": "DutyDistributor",
  "sourceName": "contracts/DutyDistributor.sol",
  "abi": [
    {
      "inputs": [
        {
          "internalType": "address",
          "name": "_ecosystemVault",
          "type": "address"
        },
        {
          "internalType": "address",
          "name": "_dao",
          "type": "address"
        }
      ],
      "stateMutability": "nonpayable",
      "type": "constructor"
    },
    {
      "anonymous": false,
      "inputs": [
        {
          "indexed": true,
          "internalType": "address",
          "name": "user",
          "type": "address"
        },
        {
          "indexed": false,
          "internalType": "uint256",
          "name": "points",
          "type": "uint256"
        },
        {
          "indexed": false,
          "internalType": "string",
          "name": "reason",
          "type": "string"
        }
      ],
      "name": "DutyPointsEarned",
      "type": "event"
    },
    {
      "anonymous": false,
      "inputs": [
        {
          "indexed": false,
          "internalType": "uint256",
          "name": "epochId",
          "type": "uint256"
        },
        {
          "indexed": false,
          "internalType": "uint256",
          "name": "totalPoints",
          "type": "uint256"
        }
      ],
      "name": "EpochClosed",
      "type": "event"
    },
    {
      "anonymous": false,
      "inputs": [
        {
          "indexed": true,
          "internalType": "address",
          "name": "previousOwner",
          "type": "address"
        },
        {
          "indexed": true,
          "internalType": "address",
          "name": "newOwner",
          "type": "address"
        }
      ],
      "name": "OwnershipTransferStarted",
      "type": "event"
    },
    {
      "anonymous": false,
      "inputs": [
        {
          "indexed": true,
          "internalType": "address",
          "name": "previousOwner",
          "type": "address"
        },
        {
          "indexed": true,
          "internalType": "address",
          "name": "newOwner",
          "type": "address"
        }
      ],
      "name": "OwnershipTransferred",
      "type": "event"
    },
    {
      "anonymous": false,
      "inputs": [
        {
          "indexed": true,
          "internalType": "address",
          "name": "user",
          "type": "address"
        },
        {
          "indexed": false,
          "internalType": "uint256",
          "name": "amount",
          "type": "uint256"
        }
      ],
      "name": "RewardsClaimed",
      "type": "event"
    },
    {
      "inputs": [],
      "name": "acceptOwnership",
      "outputs": [],
      "stateMutability": "nonpayable",
      "type": "function"
    },
    {
      "inputs": [],
      "name": "cancelOwnershipTransfer",
      "outputs": [],
      "stateMutability": "nonpayable",
      "type": "function"
    },
    {
      "inputs": [],
      "name": "claimRewards",
      "outputs": [],
      "stateMutability": "nonpayable",
      "type": "function"
    },
    {
      "inputs": [],
      "name": "dailyRewardCap",
      "outputs": [
        {
          "internalType": "uint256",
          "name": "",
          "type": "uint256"
        }
      ],
      "stateMutability": "view",
      "type": "function"
    },
    {
      "inputs": [],
      "name": "dailyRewardsPaid",
      "outputs": [
        {
          "internalType": "uint256",
          "name": "",
          "type": "uint256"
        }
      ],
      "stateMutability": "view",
      "type": "function"
    },
    {
      "inputs": [],
      "name": "dao",
      "outputs": [
        {
          "internalType": "address",
          "name": "",
          "type": "address"
        }
      ],
      "stateMutability": "view",
      "type": "function"
    },
    {
      "inputs": [],
      "name": "ecosystemVault",
      "outputs": [
        {
          "internalType": "contract IEcosystemVault",
          "name": "",
          "type": "address"
        }
      ],
      "stateMutability": "view",
      "type": "function"
    },
    {
      "inputs": [],
      "name": "lastRewardResetDay",
      "outputs": [
        {
          "internalType": "uint256",
          "name": "",
          "type": "uint256"
        }
      ],
      "stateMutability": "view",
      "type": "function"
    },
    {
      "inputs": [],
      "name": "maxPointsPerUser",
      "outputs": [
        {
          "internalType": "uint256",
          "name": "",
          "type": "uint256"
        }
      ],
      "stateMutability": "view",
      "type": "function"
    },
    {
      "inputs": [],
      "name": "maxRewardPerClaim",
      "outputs": [
        {
          "internalType": "uint256",
          "name": "",
          "type": "uint256"
        }
      ],
      "stateMutability": "view",
      "type": "function"
    },
    {
      "inputs": [
        {
          "internalType": "uint256",
          "name": "",
          "type": "uint256"
        },
        {
          "internalType": "bool",
          "name": "",
          "type": "bool"
        }
      ],
      "name": "onFinalized",
      "outputs": [],
      "stateMutability": "nonpayable",
      "type": "function"
    },
    {
      "inputs": [
        {
          "internalType": "uint256",
          "name": "",
          "type": "uint256"
        },
        {
          "internalType": "address",
          "name": "",
          "type": "address"
        },
        {
          "internalType": "uint256",
          "name": "",
          "type": "uint256"
        }
      ],
      "name": "onProposalQueued",
      "outputs": [],
      "stateMutability": "nonpayable",
      "type": "function"
    },
    {
      "inputs": [
        {
          "internalType": "uint256",
          "name": "",
          "type": "uint256"
        },
        {
          "internalType": "address",
          "name": "voter",
          "type": "address"
        },
        {
          "internalType": "bool",
          "name": "",
          "type": "bool"
        }
      ],
      "name": "onVoteCast",
      "outputs": [],
      "stateMutability": "nonpayable",
      "type": "function"
    },
    {
      "inputs": [],
      "name": "owner",
      "outputs": [
        {
          "internalType": "address",
          "name": "",
          "type": "address"
        }
      ],
      "stateMutability": "view",
      "type": "function"
    },
    {
      "inputs": [],
      "name": "pendingOwner",
      "outputs": [
        {
          "internalType": "address",
          "name": "",
          "type": "address"
        }
      ],
      "stateMutability": "view",
      "type": "function"
    },
    {
      "inputs": [],
      "name": "pointsPerVote",
      "outputs": [
        {
          "internalType": "uint256",
          "name": "",
          "type": "uint256"
        }
      ],
      "stateMutability": "view",
      "type": "function"
    },
    {
      "inputs": [],
      "name": "rewardPerPoint",
      "outputs": [
        {
          "internalType": "uint256",
          "name": "",
          "type": "uint256"
        }
      ],
      "stateMutability": "view",
      "type": "function"
    },
    {
      "inputs": [
        {
          "internalType": "uint256",
          "name": "_pointsPerVote",
          "type": "uint256"
        },
        {
          "internalType": "uint256",
          "name": "_rewardPerPoint",
          "type": "uint256"
        }
      ],
      "name": "setParams",
      "outputs": [],
      "stateMutability": "nonpayable",
      "type": "function"
    },
    {
      "inputs": [
        {
          "internalType": "uint256",
          "name": "_maxPerClaim",
          "type": "uint256"
        },
        {
          "internalType": "uint256",
          "name": "_maxPointsPerUser",
          "type": "uint256"
        },
        {
          "internalType": "uint256",
          "name": "_dailyCap",
          "type": "uint256"
        }
      ],
      "name": "setRewardCaps",
      "outputs": [],
      "stateMutability": "nonpayable",
      "type": "function"
    },
    {
      "inputs": [],
      "name": "totalPoints",
      "outputs": [
        {
          "internalType": "uint256",
          "name": "",
          "type": "uint256"
        }
      ],
      "stateMutability": "view",
      "type": "function"
    },
    {
      "inputs": [
        {
          "internalType": "address",
          "name": "newOwner",
          "type": "address"
        }
      ],
      "name": "transferOwnership",
      "outputs": [],
      "stateMutability": "nonpayable",
      "type": "function"
    },
    {
      "inputs": [
        {
          "internalType": "address",
          "name": "",
          "type": "address"
        }
      ],
      "name": "userPoints",
      "outputs": [
        {
          "internalType": "uint256",
          "name": "",
          "type": "uint256"
        }
      ],
      "stateMutability": "view",
      "type": "function"
    }
  ],
  "bytecode": "0x6080346100fe57601f610aba38819003918201601f19168301916001600160401b038311848410176101035780849260409485528339810103126100fe57610052602061004b83610119565b9201610119565b600080546001600160a01b03191633908117825560405193917f8be0079c531659141344cd1fd0a4f28419497f9722a3daafe3b4186f6b6457e08180a3600a6006819055670de0b6b3a764000060075569021e19e0c9bab240000060085561271060095569152d02c7e14af68000009055600280546001600160a01b039283166001600160a01b0319918216179091556003805493909216921691909117905561098c908161012e8239f35b600080fd5b634e487b7160e01b600052604160045260246000fd5b51906001600160a01b03821682036100fe5756fe608080604052600436101561001357600080fd5b600090813560e01c908162a9cb1b1461080e5750806323452b9c146107e25780632be94e4a146107c4578063372500ab1461055e578063386f97d4146105355780634162169f1461050c578063567142be146104ee578063717d8bc3146104d457806379ba50971461042a5780638da5cb5b146104035780638f2dabfb146103e55780639c2bf4b2146103b6578063a954aa3014610398578063b1d0b22f1461037a578063b6876dd6146102a7578063c0324c771461027e578063ce0c6abe14610260578063d312c4e814610242578063e30c397814610219578063e5b2f79b146101f3578063f2fde38b1461014d5763f50ddbc71461011257600080fd5b3461014a57602036600319011261014a576020906040906001600160a01b03610139610863565b168152600483522054604051908152f35b80fd5b503461014a57602036600319011261014a57610167610863565b61016f6108c9565b6001600160a01b031680156101c257600180546001600160a01b0319168217905581546001600160a01b03167f38d16b8cac22d99fc7c124b9cd0de2d3fa1faef420bfe791d8c362d765e227008380a380f35b60405162461bcd60e51b81526020600482015260096024820152684f574e3a207a65726f60b81b6044820152606490fd5b503461014a57606036600319011261014a5761020d61084d565b50610216610913565b80f35b503461014a578060031936011261014a576001546040516001600160a01b039091168152602090f35b503461014a578060031936011261014a576020600854604051908152f35b503461014a578060031936011261014a576020600754604051908152f35b503461014a57604036600319011261014a576102986108c9565b60043560065560243560075580f35b503461014a57606036600319011261014a576102c161084d565b6102c961083e565b506102d2610913565b6001600160a01b031680825260046020526040822054600654906102f7908290610899565b6009541015610304578280f35b818352600460205261031b60408420918254610899565b90557f24329b66edc08a5399c895e6279d52d598d6780c66b960acd7d1755722a24006608060065461034f81600554610899565b600555604051908152604060208201526004604082015263766f746560e01b6060820152a238808280f35b503461014a578060031936011261014a576020600a54604051908152f35b503461014a578060031936011261014a576020600b54604051908152f35b503461014a57606036600319011261014a576103d06108c9565b600435600855602435600955604435600a5580f35b503461014a578060031936011261014a576020600c54604051908152f35b503461014a578060031936011261014a57546040516001600160a01b039091168152602090f35b503461014a578060031936011261014a576001546001600160a01b0381163303610496578154336001600160a01b0382167f8be0079c531659141344cd1fd0a4f28419497f9722a3daafe3b4186f6b6457e08580a36001600160a01b0319908116331783551660015580f35b60405162461bcd60e51b815260206004820152601660248201527527aba71d103737ba103832b73234b7339037bbb732b960511b6044820152606490fd5b503461014a57604036600319011261014a5761020d61082a565b503461014a578060031936011261014a576020600554604051908152f35b503461014a578060031936011261014a576003546040516001600160a01b039091168152602090f35b503461014a578060031936011261014a576002546040516001600160a01b039091168152602090f35b503461014a578060031936011261014a57338152600460205260408120549081156107935760075480830290838204810361077f5781939160085480911161075a575b50620151804204600c54811161074d575b50600b54906105c18583610899565b600a548091116106d3575b5050906105dc8461060093610899565b600b553383526004602052604083206105f68282546108bc565b90556005546108bc565b6005556002546001600160a01b0316803b156106cf5781809160a46040518094819363633a109f60e01b835233600484015288602484015260606044840152600b60648401526a191d5d1e57dc995dd85c9960aa1b60848401525af180156106c457610698575b50906040519081527ffc30cddea38e2bf4d6ea7d3f9ed3b6ad7f176419f4963bd81318067a4aee73fe60203392a280f35b67ffffffffffffffff81116106b05760405238610667565b634e487b7160e01b82526041600452602482fd5b6040513d84823e3d90fd5b5080fd5b8295506106e2929193506108bc565b92831561070f576106f66106009285610879565b848115610706575b8193506105cc565b600191506106fe565b60405162461bcd60e51b815260206004820152601660248201527511110e8819185a5b1e4818d85c08195e18d95959195960521b6044820152606490fd5b83600b55600c55386105b2565b935090506107688184610879565b908115610776575b386105a1565b60019150610770565b634e487b7160e01b83526011600452602483fd5b60405162461bcd60e51b81526020600482015260096024820152686e6f20706f696e747360b81b6044820152606490fd5b503461014a578060031936011261014a576020600654604051908152f35b503461014a578060031936011261014a576107fb6108c9565b600180546001600160a01b031916905580f35b9050346106cf57816003193601126106cf576020906009548152f35b60243590811515820361083957565b600080fd5b60443590811515820361083957565b602435906001600160a01b038216820361083957565b600435906001600160a01b038216820361083957565b8115610883570490565b634e487b7160e01b600052601260045260246000fd5b919082018092116108a657565b634e487b7160e01b600052601160045260246000fd5b919082039182116108a657565b6000546001600160a01b031633036108dd57565b60405162461bcd60e51b815260206004820152600e60248201526d27aba71d103737ba1037bbb732b960911b6044820152606490fd5b6003546001600160a01b0316330361092757565b60405162461bcd60e51b81526020600482015260076024820152666e6f742064616f60c81b6044820152606490fdfea264697066735822122017fdb8c441372f88671a30d94800ab52cb2cfb36c95636d14eb0f3019fa5004f64736f6c634300081e0033",
  "linkReferences": {},
  "deployedLinkReferences": {}
}