{"abi":[{"type":"constructor","inputs":[{"name":"_dao","type":"address","internalType":"address"},{"name":"_seer","type":"address","internalType":"address"},{"name":"_ledger","type":"address","internalType":"address"}],"stateMutability":"nonpayable"},{"type":"function","name":"MAX_SCORE_PER_TX","inputs":[],"outputs":[{"name":"","type":"uint16","internalType":"uint16"}],"stateMutability":"view"},{"type":"function","name":"authorizedCallers","inputs":[{"name":"","type":"address","internalType":"address"}],"outputs":[{"name":"","type":"bool","internalType":"bool"}],"stateMutability":"view"},{"type":"function","name":"buyerScorePerTx","inputs":[],"outputs":[{"name":"","type":"uint16","internalType":"uint16"}],"stateMutability":"view"},{"type":"function","name":"dao","inputs":[],"outputs":[{"name":"","type":"address","internalType":"address"}],"stateMutability":"view"},{"type":"function","name":"ecosystemVault","inputs":[],"outputs":[{"name":"","type":"address","internalType":"contract IEcosystemVault"}],"stateMutability":"view"},{"type":"function","name":"getUserStats","inputs":[{"name":"user","type":"address","internalType":"address"}],"outputs":[{"name":"transactionCount","type":"uint256","internalType":"uint256"},{"name":"currentScore","type":"uint16","internalType":"uint16"}],"stateMutability":"view"},{"type":"function","name":"ledger","inputs":[],"outputs":[{"name":"","type":"address","internalType":"contract IProofLedger"}],"stateMutability":"view"},{"type":"function","name":"merchantScorePerTx","inputs":[],"outputs":[{"name":"","type":"uint16","internalType":"uint16"}],"stateMutability":"view"},{"type":"function","name":"previewRewards","inputs":[],"outputs":[{"name":"buyerScore","type":"uint16","internalType":"uint16"},{"name":"merchantScore","type":"uint16","internalType":"uint16"}],"stateMutability":"view"},{"type":"function","name":"rewardTransaction","inputs":[{"name":"buyer","type":"address","internalType":"address"},{"name":"merchant","type":"address","internalType":"address"},{"name":"amount","type":"uint256","internalType":"uint256"}],"outputs":[],"stateMutability":"nonpayable"},{"type":"function","name":"seer","inputs":[],"outputs":[{"name":"","type":"address","internalType":"contract ISeer"}],"stateMutability":"view"},{"type":"function","name":"setAuthorizedCaller","inputs":[{"name":"caller","type":"address","internalType":"address"},{"name":"authorized","type":"bool","internalType":"bool"}],"outputs":[],"stateMutability":"nonpayable"},{"type":"function","name":"setBenefitRates","inputs":[{"name":"_buyerScore","type":"uint16","internalType":"uint16"},{"name":"_merchantScore","type":"uint16","internalType":"uint16"}],"outputs":[],"stateMutability":"nonpayable"},{"type":"function","name":"setEcosystemVault","inputs":[{"name":"_ecosystemVault","type":"address","internalType":"address"}],"outputs":[],"stateMutability":"nonpayable"},{"type":"function","name":"totalTransactionsRewarded","inputs":[],"outputs":[{"name":"","type":"uint256","internalType":"uint256"}],"stateMutability":"view"},{"type":"function","name":"userTransactionCount","inputs":[{"name":"","type":"address","internalType":"address"}],"outputs":[{"name":"","type":"uint256","internalType":"uint256"}],"stateMutability":"view"},{"type":"event","name":"AuthorizedCallerSet","inputs":[{"name":"caller","type":"address","indexed":true,"internalType":"address"},{"name":"authorized","type":"bool","indexed":false,"internalType":"bool"}],"anonymous":false},{"type":"event","name":"BenefitConfigured","inputs":[{"name":"buyerScorePerTx","type":"uint16","indexed":false,"internalType":"uint16"},{"name":"merchantScorePerTx","type":"uint16","indexed":false,"internalType":"uint16"}],"anonymous":false},{"type":"event","name":"ProofScoreAwarded","inputs":[{"name":"user","type":"address","indexed":true,"internalType":"address"},{"name":"points","type":"uint16","indexed":false,"internalType":"uint16"},{"name":"reason","type":"string","indexed":false,"internalType":"string"}],"anonymous":false},{"type":"error","name":"BEN_InvalidRate","inputs":[]},{"type":"error","name":"BEN_NotAuthorized","inputs":[]},{"type":"error","name":"BEN_NotDAO","inputs":[]},{"type":"error","name":"BEN_Zero","inputs":[]}],"bytecode":{"object":"0x60e03461011757601f610c4238819003918201601f19168301916001600160401b0383118484101761011b57808492606094604052833981010312610117576100478161012f565b9061006060406100596020840161012f565b920161012f565b5f805463ffffffff60a01b19166202800160a11b179055916001600160a01b038116158015610106575b6100f7576080526001600160a01b0390811660a0521660c052604051610afe9081610144823960805181818161043f015281816109500152610a89015260a05181818161030e015281816104ab015281816107070152610827015260c05181818161025001526105a70152f35b63c56c4e0f60e01b5f5260045ffd5b506001600160a01b0382161561008a565b5f80fd5b634e487b7160e01b5f52604160045260245ffd5b51906001600160a01b03821682036101175756fe6080806040526004361015610012575f80fd5b5f905f3560e01c9081631255fa0f146109f95750806315ae40b8146109c157806318de297a1461097f5780631c53214b146104da5780632d55ea3914610495578063386f97d41461046e5780634162169f14610429578063454bbd29146103aa5780634e43603a146102be578063536fff6c1461027f57806356397c351461023a57806363e13cca1461021e57806394d74d7814610145578063d57dbdba14610121578063e0d801dd146100ee5763e241bafb146100ce575f80fd5b346100eb57806003193601126100eb576020600254604051908152f35b80fd5b50346100eb57806003193601126100eb57546040805161ffff60a084901c8116825260b09390931c909216602083015290f35b50346100eb57806003193601126100eb5761ffff6020915460a01c16604051908152f35b50346100eb5760403660031901126100eb5760043561ffff81169081810361021a576024359161ffff83169081840361021657603290610183610a87565b11610207576032106101f857825463ffffffff60a01b191660a082901b61ffff60a01b161760b083901b61ffff60b01b161783556040805161ffff92831681529190921660208201527fd290c8d846446c8bca355f0a9b04daac9e9cf9aa40b36893440e2a0f31a4081c91819081010390a180f35b632e5bf4db60e11b8352600483fd5b632e5bf4db60e11b8452600484fd5b8480fd5b8280fd5b50346100eb57806003193601126100eb57602060405160328152f35b50346100eb57806003193601126100eb576040517f00000000000000000000000000000000000000000000000000000000000000006001600160a01b03168152602090f35b50346100eb5760203660031901126100eb5760209060ff906040906001600160a01b036102aa610a19565b168152600184522054166040519015158152f35b50346100eb5760203660031901126100eb576001600160a01b036102e0610a19565b16808252600360209081526040808420549051630d47875d60e41b81526004810193909352919290836024817f00000000000000000000000000000000000000000000000000000000000000006001600160a01b03165afa92831561039d578193610359575b6040805184815261ffff86166020820152f35b9092506020813d602011610395575b8161037560209383610a51565b8101031261021a57519161ffff831683036100eb575061ffff6040610346565b3d9150610368565b50604051903d90823e3d90fd5b50346100eb5760403660031901126100eb576103c4610a19565b6024359081151580920361021a5760207f1eff62a53441c7d0125c22f2a9a324e206b34efa41e19469d7efb9bb703d21a3916103fe610a87565b6001600160a01b0316808552600182526040808620805460ff191660ff87161790555193845292a280f35b50346100eb57806003193601126100eb576040517f00000000000000000000000000000000000000000000000000000000000000006001600160a01b03168152602090f35b50346100eb57806003193601126100eb57546040516001600160a01b039091168152602090f35b50346100eb57806003193601126100eb576040517f00000000000000000000000000000000000000000000000000000000000000006001600160a01b03168152602090f35b5034610939576060366003190112610939576104f4610a19565b6024356001600160a01b03811692919083900361093957335f52600160205260ff60405f205416158061094c575b61093d57610531600254610a2f565b6002556001600160a01b03165f818152600360205260409020805461055590610a2f565b9055825f52600360205260405f2061056d8154610a2f565b905561ffff5f5460a01c169283610825575b82935061ffff835460b01c1680610705575b5082546001600160a01b03168061066f575b50507f00000000000000000000000000000000000000000000000000000000000000006001600160a01b031690816105d9575050f35b813b1561066b57829161010483926040519485938492630303c28760e61b8452600484015260806024840152600e60848401526d10dbdb5b595c98d954995dd85c9960921b60a4840152604435604484015260c06064840152600f60c48401526e657363726f775f636f6d706c65746560881b60e48401525af161065a5750f35b8161066491610a51565b6100eb5780f35b5050fd5b803b156106eb578380809260246040518094819363777ab9df60e11b83528860048401525af16106f0575b505082546001600160a01b0316803b156106eb578380929160248293604051948593849262bbfc6b60e51b845260048401525af1156105a357816106dd91610a51565b6106e857815f6105a3565b50fd5b505050fd5b816106fa91610a51565b61066b57825f61069a565b7f00000000000000000000000000000000000000000000000000000000000000006001600160a01b031690813b1561021657848091604051938491630eccbd3560e11b835286600484015260248301526060604483015281838161078b60648201604090601181527018dbdb5b595c98d957db595c98da185b9d607a1b60208201520190565b03925af19182610810575b50506107a3575b5f610591565b807f32e37c1196888801fd646974c4d2327f7eb1011cc33c195bba431448cd3dbdda61ffff855460b01c16604051908152604060208201528061080860408201604090601181527018dbdb5b595c98d957db595c98da185b9d607a1b60208201520190565b0390a261079d565b8161081a91610a51565b6106eb57835f610796565b7f00000000000000000000000000000000000000000000000000000000000000006001600160a01b031693843b15610939575f90604051958691630eccbd3560e11b83528560048401526024830152606060448301528183816108a760648201604090600e81526d31b7b6b6b2b931b2afb13abcb2b960911b60208201520190565b03925af180610923575b8394501561057f57817f32e37c1196888801fd646974c4d2327f7eb1011cc33c195bba431448cd3dbdda61ffff855460a01c16604051908152604060208201528061091b60408201604090600e81526d31b7b6b6b2b931b2afb13abcb2b960911b60208201520190565b0390a261057f565b9250925f61093091610a51565b5f9183906108b1565b5f80fd5b632bc9e02b60e21b5f5260045ffd5b50337f00000000000000000000000000000000000000000000000000000000000000006001600160a01b03161415610522565b3461093957602036600319011261093957610998610a19565b6109a0610a87565b5f80546001600160a01b0319166001600160a01b0392909216919091179055005b34610939576020366003190112610939576001600160a01b036109e2610a19565b165f526003602052602060405f2054604051908152f35b34610939575f3660031901126109395760209061ffff5f5460b01c168152f35b600435906001600160a01b038216820361093957565b5f198114610a3d5760010190565b634e487b7160e01b5f52601160045260245ffd5b90601f8019910116810190811067ffffffffffffffff821117610a7357604052565b634e487b7160e01b5f52604160045260245ffd5b7f00000000000000000000000000000000000000000000000000000000000000006001600160a01b03163303610ab957565b63580027d360e01b5f5260045ffdfea2646970667358221220de169c2c34091ad93d81724c668768688796ee7b5db380126acd5c98949bcb4264736f6c634300081e0033","linkReferences":{}},"methodIdentifiers":{"MAX_SCORE_PER_TX()":"63e13cca","authorizedCallers(address)":"536fff6c","buyerScorePerTx()":"d57dbdba","dao()":"4162169f","ecosystemVault()":"386f97d4","getUserStats(address)":"4e43603a","ledger()":"56397c35","merchantScorePerTx()":"1255fa0f","previewRewards()":"e0d801dd","rewardTransaction(address,address,uint256)":"1c53214b","seer()":"2d55ea39","setAuthorizedCaller(address,bool)":"454bbd29","setBenefitRates(uint16,uint16)":"94d74d78","setEcosystemVault(address)":"18de297a","totalTransactionsRewarded()":"e241bafb","userTransactionCount(address)":"15ae40b8"},"id":29}