{
  "_format": "hh-sol-artifact-1",
  "contractName": "CouncilElection",
  "sourceName": "contracts/CouncilElection.sol",
  "abi": [
    {
      "inputs": [
        {
          "internalType": "address",
          "name": "initialOwner",
          "type": "address"
        }
      ],
      "stateMutability": "nonpayable",
      "type": "constructor"
    },
    {
      "inputs": [],
      "name": "AlreadyCandidate",
      "type": "error"
    },
    {
      "inputs": [],
      "name": "AlreadyVoted",
      "type": "error"
    },
    {
      "inputs": [],
      "name": "FinalizedError",
      "type": "error"
    },
    {
      "inputs": [],
      "name": "Gate",
      "type": "error"
    },
    {
      "inputs": [],
      "name": "NotCandidate",
      "type": "error"
    },
    {
      "inputs": [],
      "name": "Paused",
      "type": "error"
    },
    {
      "inputs": [],
      "name": "TooManyCandidates",
      "type": "error"
    },
    {
      "inputs": [],
      "name": "Window",
      "type": "error"
    },
    {
      "inputs": [],
      "name": "ZeroAddress",
      "type": "error"
    },
    {
      "anonymous": false,
      "inputs": [
        {
          "indexed": false,
          "internalType": "uint64",
          "name": "termLength",
          "type": "uint64"
        },
        {
          "indexed": false,
          "internalType": "uint8",
          "name": "councilSize",
          "type": "uint8"
        },
        {
          "indexed": false,
          "internalType": "uint8",
          "name": "maxCandidates",
          "type": "uint8"
        },
        {
          "indexed": false,
          "internalType": "uint256",
          "name": "minVoterBalance",
          "type": "uint256"
        },
        {
          "indexed": false,
          "internalType": "uint16",
          "name": "minCandidateScore",
          "type": "uint16"
        }
      ],
      "name": "ConfigUpdated",
      "type": "event"
    },
    {
      "anonymous": false,
      "inputs": [
        {
          "indexed": false,
          "internalType": "address[]",
          "name": "winners",
          "type": "address[]"
        },
        {
          "indexed": false,
          "internalType": "uint64",
          "name": "termStart",
          "type": "uint64"
        },
        {
          "indexed": false,
          "internalType": "uint64",
          "name": "termEnd",
          "type": "uint64"
        }
      ],
      "name": "Finalized",
      "type": "event"
    },
    {
      "anonymous": false,
      "inputs": [
        {
          "indexed": true,
          "internalType": "address",
          "name": "candidate",
          "type": "address"
        }
      ],
      "name": "Nominated",
      "type": "event"
    },
    {
      "anonymous": false,
      "inputs": [
        {
          "indexed": true,
          "internalType": "address",
          "name": "previousOwner",
          "type": "address"
        },
        {
          "indexed": true,
          "internalType": "address",
          "name": "newOwner",
          "type": "address"
        }
      ],
      "name": "OwnershipTransferStarted",
      "type": "event"
    },
    {
      "anonymous": false,
      "inputs": [
        {
          "indexed": true,
          "internalType": "address",
          "name": "previousOwner",
          "type": "address"
        },
        {
          "indexed": true,
          "internalType": "address",
          "name": "newOwner",
          "type": "address"
        }
      ],
      "name": "OwnershipTransferred",
      "type": "event"
    },
    {
      "anonymous": false,
      "inputs": [
        {
          "indexed": true,
          "internalType": "address",
          "name": "voter",
          "type": "address"
        },
        {
          "indexed": true,
          "internalType": "address",
          "name": "candidate",
          "type": "address"
        },
        {
          "indexed": false,
          "internalType": "uint256",
          "name": "weight",
          "type": "uint256"
        }
      ],
      "name": "VoteCast",
      "type": "event"
    },
    {
      "anonymous": false,
      "inputs": [
        {
          "indexed": false,
          "internalType": "uint64",
          "name": "nomOpen",
          "type": "uint64"
        },
        {
          "indexed": false,
          "internalType": "uint64",
          "name": "nomClose",
          "type": "uint64"
        },
        {
          "indexed": false,
          "internalType": "uint64",
          "name": "voteOpen",
          "type": "uint64"
        },
        {
          "indexed": false,
          "internalType": "uint64",
          "name": "voteClose",
          "type": "uint64"
        }
      ],
      "name": "WindowSet",
      "type": "event"
    },
    {
      "anonymous": false,
      "inputs": [
        {
          "indexed": false,
          "internalType": "address",
          "name": "seer",
          "type": "address"
        },
        {
          "indexed": false,
          "internalType": "address",
          "name": "factory",
          "type": "address"
        },
        {
          "indexed": false,
          "internalType": "address",
          "name": "vfide",
          "type": "address"
        },
        {
          "indexed": false,
          "internalType": "address",
          "name": "breaker",
          "type": "address"
        },
        {
          "indexed": false,
          "internalType": "address",
          "name": "proof",
          "type": "address"
        }
      ],
      "name": "WiringSet",
      "type": "event"
    },
    {
      "inputs": [],
      "name": "acceptOwnership",
      "outputs": [],
      "stateMutability": "nonpayable",
      "type": "function"
    },
    {
      "inputs": [],
      "name": "breaker",
      "outputs": [
        {
          "internalType": "contract IEmergencyBreaker",
          "name": "",
          "type": "address"
        }
      ],
      "stateMutability": "view",
      "type": "function"
    },
    {
      "inputs": [
        {
          "internalType": "uint256",
          "name": "idx",
          "type": "uint256"
        }
      ],
      "name": "candidateAt",
      "outputs": [
        {
          "internalType": "address",
          "name": "",
          "type": "address"
        }
      ],
      "stateMutability": "view",
      "type": "function"
    },
    {
      "inputs": [],
      "name": "candidateCount",
      "outputs": [
        {
          "internalType": "uint256",
          "name": "",
          "type": "uint256"
        }
      ],
      "stateMutability": "view",
      "type": "function"
    },
    {
      "inputs": [
        {
          "internalType": "uint256",
          "name": "",
          "type": "uint256"
        }
      ],
      "name": "candidates",
      "outputs": [
        {
          "internalType": "address",
          "name": "",
          "type": "address"
        }
      ],
      "stateMutability": "view",
      "type": "function"
    },
    {
      "inputs": [
        {
          "internalType": "uint256",
          "name": "",
          "type": "uint256"
        }
      ],
      "name": "council",
      "outputs": [
        {
          "internalType": "address",
          "name": "",
          "type": "address"
        }
      ],
      "stateMutability": "view",
      "type": "function"
    },
    {
      "inputs": [],
      "name": "councilMembers",
      "outputs": [
        {
          "internalType": "address[]",
          "name": "",
          "type": "address[]"
        }
      ],
      "stateMutability": "view",
      "type": "function"
    },
    {
      "inputs": [],
      "name": "councilSize",
      "outputs": [
        {
          "internalType": "uint8",
          "name": "",
          "type": "uint8"
        }
      ],
      "stateMutability": "view",
      "type": "function"
    },
    {
      "inputs": [],
      "name": "councilTermStart",
      "outputs": [
        {
          "internalType": "uint64",
          "name": "",
          "type": "uint64"
        }
      ],
      "stateMutability": "view",
      "type": "function"
    },
    {
      "inputs": [],
      "name": "factory",
      "outputs": [
        {
          "internalType": "contract IVaultFactoryView",
          "name": "",
          "type": "address"
        }
      ],
      "stateMutability": "view",
      "type": "function"
    },
    {
      "inputs": [],
      "name": "finalize",
      "outputs": [],
      "stateMutability": "nonpayable",
      "type": "function"
    },
    {
      "inputs": [],
      "name": "finalized",
      "outputs": [
        {
          "internalType": "bool",
          "name": "",
          "type": "bool"
        }
      ],
      "stateMutability": "view",
      "type": "function"
    },
    {
      "inputs": [
        {
          "internalType": "address",
          "name": "",
          "type": "address"
        }
      ],
      "name": "hasVoted",
      "outputs": [
        {
          "internalType": "bool",
          "name": "",
          "type": "bool"
        }
      ],
      "stateMutability": "view",
      "type": "function"
    },
    {
      "inputs": [
        {
          "internalType": "address",
          "name": "",
          "type": "address"
        }
      ],
      "name": "ineligibleUntilTermEnd",
      "outputs": [
        {
          "internalType": "uint64",
          "name": "",
          "type": "uint64"
        }
      ],
      "stateMutability": "view",
      "type": "function"
    },
    {
      "inputs": [
        {
          "internalType": "address",
          "name": "",
          "type": "address"
        }
      ],
      "name": "isCandidate",
      "outputs": [
        {
          "internalType": "bool",
          "name": "",
          "type": "bool"
        }
      ],
      "stateMutability": "view",
      "type": "function"
    },
    {
      "inputs": [],
      "name": "maxCandidates",
      "outputs": [
        {
          "internalType": "uint8",
          "name": "",
          "type": "uint8"
        }
      ],
      "stateMutability": "view",
      "type": "function"
    },
    {
      "inputs": [],
      "name": "minCandidateScore",
      "outputs": [
        {
          "internalType": "uint16",
          "name": "",
          "type": "uint16"
        }
      ],
      "stateMutability": "view",
      "type": "function"
    },
    {
      "inputs": [],
      "name": "minVoterBalance",
      "outputs": [
        {
          "internalType": "uint256",
          "name": "",
          "type": "uint256"
        }
      ],
      "stateMutability": "view",
      "type": "function"
    },
    {
      "inputs": [],
      "name": "nominate",
      "outputs": [],
      "stateMutability": "nonpayable",
      "type": "function"
    },
    {
      "inputs": [],
      "name": "nominationsCloseAt",
      "outputs": [
        {
          "internalType": "uint64",
          "name": "",
          "type": "uint64"
        }
      ],
      "stateMutability": "view",
      "type": "function"
    },
    {
      "inputs": [],
      "name": "nominationsOpenAt",
      "outputs": [
        {
          "internalType": "uint64",
          "name": "",
          "type": "uint64"
        }
      ],
      "stateMutability": "view",
      "type": "function"
    },
    {
      "inputs": [],
      "name": "owner",
      "outputs": [
        {
          "internalType": "address",
          "name": "",
          "type": "address"
        }
      ],
      "stateMutability": "view",
      "type": "function"
    },
    {
      "inputs": [],
      "name": "pendingOwner",
      "outputs": [
        {
          "internalType": "address",
          "name": "",
          "type": "address"
        }
      ],
      "stateMutability": "view",
      "type": "function"
    },
    {
      "inputs": [],
      "name": "proof",
      "outputs": [
        {
          "internalType": "contract IProofLedger",
          "name": "",
          "type": "address"
        }
      ],
      "stateMutability": "view",
      "type": "function"
    },
    {
      "inputs": [],
      "name": "renounceOwnership",
      "outputs": [],
      "stateMutability": "nonpayable",
      "type": "function"
    },
    {
      "inputs": [],
      "name": "requireActiveVaultForCandidate",
      "outputs": [
        {
          "internalType": "bool",
          "name": "",
          "type": "bool"
        }
      ],
      "stateMutability": "view",
      "type": "function"
    },
    {
      "inputs": [],
      "name": "seer",
      "outputs": [
        {
          "internalType": "contract ISeerView",
          "name": "",
          "type": "address"
        }
      ],
      "stateMutability": "view",
      "type": "function"
    },
    {
      "inputs": [
        {
          "internalType": "uint64",
          "name": "termLength_",
          "type": "uint64"
        },
        {
          "internalType": "uint8",
          "name": "councilSize_",
          "type": "uint8"
        },
        {
          "internalType": "uint8",
          "name": "maxCandidates_",
          "type": "uint8"
        },
        {
          "internalType": "uint256",
          "name": "minVoterBalance_",
          "type": "uint256"
        },
        {
          "internalType": "uint16",
          "name": "minCandidateScore_",
          "type": "uint16"
        },
        {
          "internalType": "bool",
          "name": "requireActiveVaultForCandidate_",
          "type": "bool"
        }
      ],
      "name": "setConfig",
      "outputs": [],
      "stateMutability": "nonpayable",
      "type": "function"
    },
    {
      "inputs": [
        {
          "internalType": "uint64",
          "name": "nomOpen",
          "type": "uint64"
        },
        {
          "internalType": "uint64",
          "name": "nomClose",
          "type": "uint64"
        },
        {
          "internalType": "uint64",
          "name": "voteOpen",
          "type": "uint64"
        },
        {
          "internalType": "uint64",
          "name": "voteClose",
          "type": "uint64"
        }
      ],
      "name": "setWindow",
      "outputs": [],
      "stateMutability": "nonpayable",
      "type": "function"
    },
    {
      "inputs": [
        {
          "internalType": "address",
          "name": "seer_",
          "type": "address"
        },
        {
          "internalType": "address",
          "name": "factory_",
          "type": "address"
        },
        {
          "internalType": "address",
          "name": "vfide_",
          "type": "address"
        },
        {
          "internalType": "address",
          "name": "breaker_",
          "type": "address"
        },
        {
          "internalType": "address",
          "name": "proof_",
          "type": "address"
        }
      ],
      "name": "setWiring",
      "outputs": [],
      "stateMutability": "nonpayable",
      "type": "function"
    },
    {
      "inputs": [],
      "name": "termLength",
      "outputs": [
        {
          "internalType": "uint64",
          "name": "",
          "type": "uint64"
        }
      ],
      "stateMutability": "view",
      "type": "function"
    },
    {
      "inputs": [
        {
          "internalType": "address",
          "name": "newOwner",
          "type": "address"
        }
      ],
      "name": "transferOwnership",
      "outputs": [],
      "stateMutability": "nonpayable",
      "type": "function"
    },
    {
      "inputs": [],
      "name": "vfide",
      "outputs": [
        {
          "internalType": "contract IVFIDE",
          "name": "",
          "type": "address"
        }
      ],
      "stateMutability": "view",
      "type": "function"
    },
    {
      "inputs": [
        {
          "internalType": "address",
          "name": "candidate",
          "type": "address"
        }
      ],
      "name": "vote",
      "outputs": [],
      "stateMutability": "nonpayable",
      "type": "function"
    },
    {
      "inputs": [
        {
          "internalType": "address",
          "name": "",
          "type": "address"
        }
      ],
      "name": "votesFor",
      "outputs": [
        {
          "internalType": "uint256",
          "name": "",
          "type": "uint256"
        }
      ],
      "stateMutability": "view",
      "type": "function"
    },
    {
      "inputs": [],
      "name": "votingCloseAt",
      "outputs": [
        {
          "internalType": "uint64",
          "name": "",
          "type": "uint64"
        }
      ],
      "stateMutability": "view",
      "type": "function"
    },
    {
      "inputs": [],
      "name": "votingOpenAt",
      "outputs": [
        {
          "internalType": "uint64",
          "name": "",
          "type": "uint64"
        }
      ],
      "stateMutability": "view",
      "type": "function"
    }
  ],
  "bytecode": "0x6080346100de57601f611f0e38819003918201601f19168301916001600160401b038311848410176100e3578084926020946040528339810103126100de57516001600160a01b0381168082036100de57610059336100f9565b600160025560078054600160a01b600160f01b0319167dc8090000000001e133800000000000000000000000000000000000000000179055670de0b6b3a7640000600855600980546201025862ffffff19909116179055156100cd576100be906100f9565b604051611dbf908161014f8239f35b63d92e233d60e01b60005260046000fd5b600080fd5b634e487b7160e01b600052604160045260246000fd5b600180546001600160a01b0319908116909155600080546001600160a01b03938416928116831782559192909116907f8be0079c531659141344cd1fd0a4f28419497f9722a3daafe3b4186f6b6457e09080a356fe608080604052600436101561001357600080fd5b600090813560e01c90816309eef43e146119a6575080630f41e0d21461197d5780632d55ea391461195457806333da0263146119325780633477ee2e1461190757806337e9564a146118dd5780634bb278f31461134457806357b319621461120357806360a6b02b146111d957806365af2ac8146111b55780636c79b495146111915780636dd7d8ea14610e4f5780636f1d9dd714610c58578063715018a614610bf357806372c8ae3b14610bca57806379b18cd114610ba057806379ba509714610ad75780638da5cb5b14610ab0578063935cb1d514610a895780639c7e843914610a51578063a2b34cd314610a33578063a49d2fd614610a09578063a50cd8e7146109d0578063a9a981a3146109b2578063b3f05b971461098f578063b43f61f31461094c578063c2c26a6814610922578063c45a0155146108f9578063d51b9e93146108ba578063e30c397814610891578063e671dc001461081b578063e71132ca146107f5578063e825bd521461067d578063f2fde38b14610610578063f4de6da61461058f578063faf924cf146105665763fcd7e1d7146101b857600080fd5b346103e157806003193601126103e1576006546001600160a01b0316801515908161050c575b506104fd576101eb611bb0565b6001600160401b0342166009546001600160401b038160181c16821080156104e8575b6104d957338352600e60205260ff6040842054166104ca5760035460405163fbac395160e01b81523360048201526001600160a01b0390911690602081602481855afa9081156104bf578591610490575b506104815760206024916040519283809263776f384360e01b82523360048301525afa908115610476578491610447575b5061ffff8083169116106104385760101c60ff1661041a575b338252600c6020526001600160401b036040832054161161040b57600d5460ff60075460e81c1611156103fc57338152600e60205260408120805460ff19166001179055600d54600160401b8110156103e85761031181600161032f9301600d55600d611a32565b81546001600160a01b0360039290921b91821b19163390911b179055565b80604051337f89515d93a327af3912e1b598717f99e3c0d0fb3b6995e45a4cacfd86ff32b3e88380a260208101903382526020815261036f604082611a60565b5190206007546001600160a01b0316908161038e575b82600160025580f35b813b156103e4578291606483926040519485938492631250d57560e31b845230600485015260f0602485015260448401525af16103cc575b80610385565b816103d691611a60565b6103e15780386103c6565b80fd5b5050fd5b634e487b7160e01b82526041600452602482fd5b63e411cb2760e01b8152600490fd5b631d3f4a8760e31b8152600490fd5b61042333611c5c565b506102a9575b631d3f4a8760e31b8252600482fd5b631d3f4a8760e31b8352600483fd5b610469915060203d60201161046f575b6104618183611a60565b810190611b96565b38610290565b503d610457565b6040513d86823e3d90fd5b631d3f4a8760e31b8452600484fd5b6104b2915060203d6020116104b8575b6104aa8183611a60565b810190611a97565b3861025f565b503d6104a0565b6040513d87823e3d90fd5b6316e4488760e01b8352600483fd5b6386997fcd60e01b8352600483fd5b506001600160401b038160581c16821161020e565b6313d0ff5960e31b8152600490fd5b604051631da4712b60e21b81529150602090829060049082905afa90811561055b57829161053c575b50386101de565b610555915060203d6020116104b8576104aa8183611a60565b38610535565b6040513d84823e3d90fd5b50346103e157806003193601126103e1576007546040516001600160a01b039091168152602090f35b50346103e15760203660031901126103e15760043590600b548210156103e157600b548210156105fc57600b81527f0175b7a638427703f0dbe7bb9bbf987a2551717b34e79f33b5b1008d1fa01db99091015460405160039290921b1c6001600160a01b03168152602090f35b634e487b7160e01b81526032600452602490fd5b50346103e15760203660031901126103e15761062a6119e6565b610632611c04565b600180546001600160a01b0319166001600160a01b0392831690811790915582549091167f38d16b8cac22d99fc7c124b9cd0de2d3fa1faef420bfe791d8c362d765e227008380a380f35b50346103e15760803660031901126103e157610697611a4a565b602435906001600160401b038216908183036107f157604435916001600160401b0383168084036107ed57606435916001600160401b0383168093036107e9576106df611c04565b6001600160401b03841693818510806107e0575b806107d6575b156107a4577f88737f89e3f094b5a54ec57a3ef864d3bcc91da686201cb7822a282525f0d141966080966affffffffffffffff000000600954916001600160401b0360981b9060981b169360181b169062ffffff64ffffffffff60d81b011617906001600160401b0360581b9060581b161717600955826001600160401b0319600a541617600a5560ff1960115416601155604051938452602084015260408301526060820152a180f35b60405162461bcd60e51b815260206004820152600a6024820152696261642077696e646f7760b01b6044820152606490fd5b50828211156106f9565b508383106106f3565b8680fd5b8580fd5b8380fd5b50346103e157806003193601126103e157602060ff60095460101c166040519015158152f35b50346103e157806003193601126103e157604051906108448261083d81611b51565b0383611a60565b604051918291602083016020845282518091526020604085019301915b81811061086f575050500390f35b82516001600160a01b0316845285945060209384019390920191600101610861565b50346103e157806003193601126103e1576001546040516001600160a01b039091168152602090f35b50346103e15760203660031901126103e15760209060ff906040906001600160a01b036108e56119e6565b168152600e84522054166040519015158152f35b50346103e157806003193601126103e1576004546040516001600160a01b039091168152602090f35b50346103e157806003193601126103e15760206001600160401b0360115460081c16604051908152f35b50346103e15760203660031901126103e1576020906001600160401b03906040906001600160a01b0361097d6119e6565b168152600c8452205416604051908152f35b50346103e157806003193601126103e157602060ff601154166040519015158152f35b50346103e157806003193601126103e1576020600d54604051908152f35b50346103e15760203660031901126103e1576020906040906001600160a01b036109f86119e6565b168152600f83522054604051908152f35b50346103e157806003193601126103e15760206001600160401b0360095460981c16604051908152f35b50346103e157806003193601126103e1576020600854604051908152f35b50346103e15760203660031901126103e1576020610a70600435611a01565b905460405160039290921b1c6001600160a01b03168152f35b50346103e157806003193601126103e15760206001600160401b03600a5416604051908152f35b50346103e157806003193601126103e157546040516001600160a01b039091168152602090f35b50346103e157806003193601126103e157600154336001600160a01b0390911603610b4957600180546001600160a01b0319908116909155815433918116821783556001600160a01b03167f8be0079c531659141344cd1fd0a4f28419497f9722a3daafe3b4186f6b6457e08380a380f35b60405162461bcd60e51b815260206004820152602960248201527f4f776e61626c6532537465703a2063616c6c6572206973206e6f7420746865206044820152683732bb9037bbb732b960b91b6064820152608490fd5b50346103e157806003193601126103e15760206001600160401b0360075460a01c16604051908152f35b50346103e157806003193601126103e1576005546040516001600160a01b039091168152602090f35b50346103e157806003193601126103e157610c0c611c04565b600180546001600160a01b03199081169091558154908116825581906001600160a01b03167f8be0079c531659141344cd1fd0a4f28419497f9722a3daafe3b4186f6b6457e08280a380f35b50346103e15760c03660031901126103e157610c72611a4a565b60243560ff81168082036107f15760443560ff8116908181036107ed57606435926084359261ffff8416809403610e4b5760a43591821515809303610e4757610cb9611c04565b600381101580610e3c575b15610e0c578110159081610dff575b5015610dd0576103e88311610d9e577fbc2cb890546b214344bbd6d6683ac5dd1bec06d0c5655483310bb31c8a53b7479560a09588936007549060ff60e81b9060e81b16926001600160401b03891b90891b169069ffffffffffffffffffff891b1916179060ff60e01b9060e01b16171793846007558060085562ff00006009549260101b168462ffffff198416171760095560ff604051956001600160401b0381891c168752818160e01c16602088015260e81c166040860152606085015216176080820152a180f35b60405162461bcd60e51b815260206004820152600a602482015269073636f72653e313030360b41b6044820152606490fd5b60405162461bcd60e51b81526020600482015260076024820152660c4c2c840dac2f60cb1b6044820152606490fd5b6101f49150111538610cd3565b60405162461bcd60e51b81526020600482015260086024820152676261642073697a6560c01b6044820152606490fd5b506019811115610cc4565b8880fd5b8780fd5b50346103e15760203660031901126103e157610e696119e6565b6006546001600160a01b03168015159081611142575b5061113357610e8c611bb0565b6001600160401b0342166001600160401b0360095460981c16811090811561111e575b5061110f57338252601060205260ff604083205416611100576001600160a01b0316808252600e602052604082205490919060ff16156110f157610ef233611c5c565b501561040b57610f0133611cfb565b6008541161040b5760035460405163fbac395160e01b81523360048201526001600160a01b0390911690602081602481855afa9081156110e65783916110c7575b506104295760206024916040519283809263776f384360e01b82523360048301525afa90811561055b579061ffff9183916110a8575b501691821561107557338252601060205260408220600160ff19825416179055808252600f6020526040822092835481810180911161106157839455816040518281527f484413c33463e7d976e3ded2a85b0c31610d0906977df2cd9cbd6d12a6872a8460203392a36040519060208201923384526040830152606082015260608152611006608082611a60565b5190206007546001600160a01b031690816110245782600160025580f35b813b156103e4578291606483926040519485938492631250d57560e31b845230600485015260f1602485015260448401525af16103cc5780610385565b634e487b7160e01b84526011600452602484fd5b60405162461bcd60e51b815260206004820152600b60248201526a1e995c9bc81dd95a59da1d60aa1b6044820152606490fd5b6110c1915060203d60201161046f576104618183611a60565b38610f78565b6110e0915060203d6020116104b8576104aa8183611a60565b38610f42565b6040513d85823e3d90fd5b634f32a51b60e01b8152600490fd5b637c9a1cf960e01b8252600482fd5b6386997fcd60e01b8252600482fd5b90506001600160401b03600a54161038610eaf565b6313d0ff5960e31b8252600482fd5b604051631da4712b60e21b81529150602090829060049082905afa9081156110e6578391611172575b5038610e7f565b61118b915060203d6020116104b8576104aa8183611a60565b3861116b565b50346103e157806003193601126103e157602060ff60075460e01c16604051908152f35b50346103e157806003193601126103e157602060ff60075460e81c16604051908152f35b50346103e157806003193601126103e15760206001600160401b0360095460581c16604051908152f35b50346103e15760a03660031901126103e15761121d6119e6565b6024356001600160a01b0381169190829003611340576044356001600160a01b038116908190036107f1576064356001600160a01b038116919082900361133c576084356001600160a01b03811693908490036107ed5761127c611c04565b6001600160a01b03169384158015611334575b801561132c575b61131d57600380546001600160a01b031990811687179091556004805482168317905560058054821684179055600680548216851790556007805490911685179055604080519586526020860191909152840152606083015260808201527fe7a4a15517bc221fb0d31cd29a936b19b9359ed2c2569e2dfc89e250002092a99060a090a180f35b63d92e233d60e01b8652600486fd5b508115611296565b50801561128f565b8480fd5b8280fd5b50346103e157806003193601126103e1576006546001600160a01b0316801515908161188e575b506104fd57611378611bb0565b6001600160401b0342166001600160401b03600a541681111561110f5760ff6011541661187f57600d54801561184a57906113b282611ac6565b835b8381106118195750835b838110611757575060ff60075460e01c16916113d983611ac6565b6003546001600160a01b031693909286929091835b8781108061174e575b15611491576001600160a01b0361140e8286611af8565b5116906040519163fbac395160e01b83528060048401526020836024818c5afa80156114865761145d938c91611468575b506114625761145761145088611b0c565b9789611af8565b52611b0c565b6113ee565b50611b0c565b611480915060203d81116104b8576104aa8183611a60565b3861143f565b6040513d8d823e3d90fd5b5087949250830361171257600b5484600b55806116b2575b50835b8381106115eb5784806001600160401b03600160115468ffffffffffffffff004260081b169068ffffffffffffffffff191617178060115560081c167f1ddb28675d57e8cddd6b381e02d51be87a2f531248391532fe4bc174eb854e0e6115216001600160401b0360075460a01c1683611b31565b6040518091606082526001600160401b0361153e60608401611b51565b918660208501521660408301520390a160405161157e8160208101936040855261156a60608301611b51565b90604083015203601f198101835282611a60565b5190206007546001600160a01b0316908161159c5782600160025580f35b813b156103e4578291606483926040519586938492631250d57560e31b845230600485015260f2602485015260448401525af16115db575b9080610385565b6115e491611a60565b81816115d4565b6001600160a01b036115fd8285611af8565b5116600b54600160401b81101561169e5760019291611626828561164a9401600b55600b611a32565b81546001600160a01b0393841660039290921b91821b9390911b1916919091179055565b6116626001600160401b0360075460a01c1684611b31565b828060a01b036116728387611af8565b51168752600c6020526001600160401b036040882091166001600160401b0319825416179055016114ac565b634e487b7160e01b87526041600452602487fd5b600b85527f0175b7a638427703f0dbe7bb9bbf987a2551717b34e79f33b5b1008d1fa01db9017f0175b7a638427703f0dbe7bb9bbf987a2551717b34e79f33b5b1008d1fa01db95b81811061170757506114a9565b8581556001016116fa565b60405162461bcd60e51b8152602060048201526014602482015273696e73756666696369656e742077696e6e65727360601b6044820152606490fd5b508185106113f7565b60018194939401808211611805575b83811061177957506001019291926113be565b6001906001600160a01b0361178e8286611af8565b51168752600f6020526040872054828060a01b036117ac8587611af8565b51168852600f6020526040882054106117c6575b01611766565b818060a01b036117d68486611af8565b5116828060a01b036117e88387611af8565b51166117f48587611af8565b526117ff8286611af8565b526117c0565b634e487b7160e01b86526011600452602486fd5b80611828600192959495611a01565b838060a01b0391549060031b1c166118408285611af8565b52019291926113b4565b60405162461bcd60e51b815260206004820152600d60248201526c6e6f2063616e6469646174657360981b6044820152606490fd5b6368687b8560e11b8252600482fd5b604051631da4712b60e21b81529150602090829060049082905afa90811561055b5782916118be575b503861136b565b6118d7915060203d6020116104b8576104aa8183611a60565b386118b7565b50346103e157806003193601126103e15760206001600160401b0360095460181c16604051908152f35b50346103e15760203660031901126103e15760043590600d548210156103e1576020610a7083611a01565b50346103e157806003193601126103e157602061ffff60095416604051908152f35b50346103e157806003193601126103e1576003546040516001600160a01b039091168152602090f35b50346103e157806003193601126103e1576006546040516001600160a01b039091168152602090f35b9050346119e25760203660031901126119e25760209160ff906040906001600160a01b036119d26119e6565b1681526010855220541615158152f35b5080fd5b600435906001600160a01b03821682036119fc57565b600080fd5b600d54811015611a1c57600d60005260206000200190600090565b634e487b7160e01b600052603260045260246000fd5b8054821015611a1c5760005260206000200190600090565b600435906001600160401b03821682036119fc57565b90601f801991011681019081106001600160401b03821117611a8157604052565b634e487b7160e01b600052604160045260246000fd5b908160209103126119fc575180151581036119fc5790565b6001600160401b038111611a815760051b60200190565b90611ad082611aaf565b611add6040519182611a60565b8281528092611aee601f1991611aaf565b0190602036910137565b8051821015611a1c5760209160051b010190565b6000198114611b1b5760010190565b634e487b7160e01b600052601160045260246000fd5b906001600160401b03809116911601906001600160401b038211611b1b57565b6020600b54918281520190600b60005260206000209060005b818110611b775750505090565b82546001600160a01b0316845260209093019260019283019201611b6a565b908160209103126119fc575161ffff811681036119fc5790565b6002805414611bbf5760028055565b60405162461bcd60e51b815260206004820152601f60248201527f5265656e7472616e637947756172643a207265656e7472616e742063616c6c006044820152606490fd5b6000546001600160a01b03163303611c1857565b606460405162461bcd60e51b815260206004820152602060248201527f4f776e61626c653a2063616c6c6572206973206e6f7420746865206f776e65726044820152fd5b60048054604051630709df4560e01b81526001600160a01b0393841692810192909252909160209183916024918391165afa908115611cef57600091611cad575b506001600160a01b038116151591565b6020813d602011611ce7575b81611cc660209383611a60565b810103126119e25751906001600160a01b03821682036103e1575038611c9d565b3d9150611cb9565b6040513d6000823e3d90fd5b611d0490611c5c565b6001600160a01b031690508015611d83576005546040516370a0823160e01b81526004810192909252602090829060249082906001600160a01b03165afa908115611cef57600091611d54575090565b90506020813d602011611d7b575b81611d6f60209383611a60565b810103126119fc575190565b3d9150611d62565b5060009056fea2646970667358221220fa6f3d247909f66d8ead0895df3d2b815ee0bf2adce57ffc578ab7103a1805a364736f6c634300081e0033",
  "linkReferences": {},
  "deployedLinkReferences": {}
}