{"abi":[{"type":"function","name":"refund","inputs":[{"name":"id","type":"uint256","internalType":"uint256"}],"outputs":[],"stateMutability":"nonpayable"},{"type":"function","name":"release","inputs":[{"name":"id","type":"uint256","internalType":"uint256"}],"outputs":[],"stateMutability":"nonpayable"},{"type":"function","name":"setRevert","inputs":[{"name":"v","type":"bool","internalType":"bool"}],"outputs":[],"stateMutability":"nonpayable"},{"type":"function","name":"shouldRevert","inputs":[],"outputs":[{"name":"","type":"bool","internalType":"bool"}],"stateMutability":"view"},{"type":"event","name":"Refunded","inputs":[{"name":"id","type":"uint256","indexed":false,"internalType":"uint256"}],"anonymous":false},{"type":"event","name":"Released","inputs":[{"name":"id","type":"uint256","indexed":false,"internalType":"uint256"}],"anonymous":false}],"bytecode":{"object":"0x608080604052346015576101c9908161001a8239f35b5f80fdfe6080806040526004361015610012575f80fd5b5f3560e01c908163278ecde1146101195750806337bdc99b1461009b5780638fb5f1711461006d5763d3072d8214610048575f80fd5b34610069575f36600319011261006957602060ff5f54166040519015158152f35b5f80fd5b34610069576020366003190112610069576004358015158091036100695760ff80195f54169116175f555f80f35b346100695760203660031901126100695760ff5f54166100e3577ffb81f9b30d73d830c3544b34d827c08142579ee75710b490bab0b3995468c56560206040516004358152a1005b60405162461bcd60e51b815260206004820152600e60248201526d7265766572742d72656c6561736560901b6044820152606490fd5b346100695760203660031901126100695760ff5f5416610161577f3d2a04f53164bedf9a8a46353305d6b2d2261410406df3b41f99ce6489dc003c60206040516004358152a1005b62461bcd60e51b815260206004820152600d60248201526c1c995d995c9d0b5c99599d5b99609a1b6044820152606490fdfea264697066735822122035cb5d52ab23cb3517a8f3b6c0d697984997f2acfb2bd854a549a2a550b92d7964736f6c634300081e0033","linkReferences":{}},"methodIdentifiers":{"refund(uint256)":"278ecde1","release(uint256)":"37bdc99b","setRevert(bool)":"8fb5f171","shouldRevert()":"d3072d82"},"id":87}