{"abi":[{"type":"constructor","inputs":[{"name":"reg","type":"address","internalType":"address"}],"stateMutability":"nonpayable"},{"type":"function","name":"echidna_fresh_merchant_not_suspended","inputs":[],"outputs":[{"name":"","type":"bool","internalType":"bool"}],"stateMutability":"view"},{"type":"function","name":"registry","inputs":[],"outputs":[{"name":"","type":"address","internalType":"contract IMerchantRegistry_H"}],"stateMutability":"view"},{"type":"function","name":"sampleMerchant","inputs":[],"outputs":[{"name":"","type":"address","internalType":"address"}],"stateMutability":"view"},{"type":"function","name":"threshold","inputs":[],"outputs":[{"name":"","type":"uint32","internalType":"uint32"}],"stateMutability":"view"}],"bytecode":{"object":"0x60808060405234610106576020816103f0803803809161001f828561014c565b83398101031261010657516001600160a01b03811690819003610106575f80546001600160a01b03198116831790915560405163db3c0c6d60e01b8152602081600481865afa80156100fb5783915f9161010a575b506001600160c01b03199092161760a09190911b63ffffffff60a01b16175f55600180546001600160a01b031916620a11ce179055803b15610106575f809160246040518094819363bf76c0ef60e01b8352620a11ce60048401525af180156100fb576100eb575b60405161026c90816101848239f35b5f6100f59161014c565b5f6100dc565b6040513d5f823e3d90fd5b5f80fd5b9150506020813d602011610144575b816101266020938361014c565b81010312610106575163ffffffff811681036101065782905f610074565b3d9150610119565b601f909101601f19168101906001600160401b0382119082101761016f57604052565b634e487b7160e01b5f52604160045260245ffdfe6080806040526004361015610012575f80fd5b5f3560e01c90816342cde4e8146101f5575080637b103999146101ce578063ea995112146100745763ed81771b14610048575f80fd5b34610070575f366003190112610070576001546040516001600160a01b039091168152602090f35b5f80fd5b34610070575f366003190112610070575f5460015460405163ee14e93960e01b81526001600160a01b0391821660048201529060a0908290602490829086165afa9081156101c3575f905f905f93610122575b5063ffffffff80911691160163ffffffff811161010e5763ffffffff8060209460a01c169116109081610100575b506040519015158152f35b6001915060ff1614826100f5565b634e487b7160e01b5f52601160045260245ffd5b9250505060a03d60a0116101bc575b601f8101601f1916820167ffffffffffffffff8111838210176101a85760a0918391604052810103126100705761016781610217565b5061017460208201610225565b63ffffffff8061018660408501610225565b9261019f608061019860608801610217565b9601610225565b509291506100c7565b634e487b7160e01b5f52604160045260245ffd5b503d610131565b6040513d5f823e3d90fd5b34610070575f366003190112610070575f546040516001600160a01b039091168152602090f35b34610070575f3660031901126100705760209063ffffffff5f5460a01c168152f35b519060ff8216820361007057565b519063ffffffff821682036100705756fea2646970667358221220c2e37caa0275c5362ff923a48b75bc51ca7967a221878662def431d975a2cc3164736f6c634300081e0033","linkReferences":{}},"methodIdentifiers":{"echidna_fresh_merchant_not_suspended()":"ea995112","registry()":"7b103999","sampleMerchant()":"ed81771b","threshold()":"42cde4e8"},"id":38}