{"abi":[{"type":"constructor","inputs":[{"name":"_dao","type":"address","internalType":"address"},{"name":"_token","type":"address","internalType":"address"},{"name":"_seer","type":"address","internalType":"address"},{"name":"_vaultHub","type":"address","internalType":"address"},{"name":"_oracle","type":"address","internalType":"address"},{"name":"_merchantWallet","type":"address","internalType":"address"}],"stateMutability":"nonpayable"},{"type":"function","name":"configureStableSettlement","inputs":[{"name":"_router","type":"address","internalType":"address"},{"name":"_stablecoin","type":"address","internalType":"address"},{"name":"_enabled","type":"bool","internalType":"bool"},{"name":"_maxSlippageBps","type":"uint16","internalType":"uint16"}],"outputs":[],"stateMutability":"nonpayable"},{"type":"function","name":"createOrder","inputs":[{"name":"orderId","type":"bytes32","internalType":"bytes32"},{"name":"amount","type":"uint256","internalType":"uint256"},{"name":"meta","type":"string","internalType":"string"}],"outputs":[],"stateMutability":"nonpayable"},{"type":"function","name":"dao","inputs":[],"outputs":[{"name":"","type":"address","internalType":"address"}],"stateMutability":"view"},{"type":"function","name":"maxSlippageBps","inputs":[],"outputs":[{"name":"","type":"uint16","internalType":"uint16"}],"stateMutability":"view"},{"type":"function","name":"merchantWallet","inputs":[],"outputs":[{"name":"","type":"address","internalType":"address"}],"stateMutability":"view"},{"type":"function","name":"oracle","inputs":[],"outputs":[{"name":"","type":"address","internalType":"address"}],"stateMutability":"view"},{"type":"function","name":"orders","inputs":[{"name":"","type":"bytes32","internalType":"bytes32"}],"outputs":[{"name":"buyer","type":"address","internalType":"address"},{"name":"amount","type":"uint256","internalType":"uint256"},{"name":"status","type":"uint8","internalType":"enum VFIDEEnterpriseGateway.Status"},{"name":"timestamp","type":"uint256","internalType":"uint256"}],"stateMutability":"view"},{"type":"function","name":"refundOrder","inputs":[{"name":"orderId","type":"bytes32","internalType":"bytes32"},{"name":"reason","type":"string","internalType":"string"}],"outputs":[],"stateMutability":"nonpayable"},{"type":"function","name":"rescueFunds","inputs":[{"name":"_token","type":"address","internalType":"address"},{"name":"_amount","type":"uint256","internalType":"uint256"},{"name":"_to","type":"address","internalType":"address"}],"outputs":[],"stateMutability":"nonpayable"},{"type":"function","name":"seer","inputs":[],"outputs":[{"name":"","type":"address","internalType":"contract ISeer"}],"stateMutability":"view"},{"type":"function","name":"setMerchantWallet","inputs":[{"name":"_wallet","type":"address","internalType":"address"}],"outputs":[],"stateMutability":"nonpayable"},{"type":"function","name":"setOracle","inputs":[{"name":"_oracle","type":"address","internalType":"address"}],"outputs":[],"stateMutability":"nonpayable"},{"type":"function","name":"settleBatch","inputs":[{"name":"orderIds","type":"bytes32[]","internalType":"bytes32[]"}],"outputs":[],"stateMutability":"nonpayable"},{"type":"function","name":"settleOrder","inputs":[{"name":"orderId","type":"bytes32","internalType":"bytes32"}],"outputs":[],"stateMutability":"nonpayable"},{"type":"function","name":"settlementStablecoin","inputs":[],"outputs":[{"name":"","type":"address","internalType":"address"}],"stateMutability":"view"},{"type":"function","name":"stableSettlementEnabled","inputs":[],"outputs":[{"name":"","type":"bool","internalType":"bool"}],"stateMutability":"view"},{"type":"function","name":"swapRouter","inputs":[],"outputs":[{"name":"","type":"address","internalType":"address"}],"stateMutability":"view"},{"type":"function","name":"token","inputs":[],"outputs":[{"name":"","type":"address","internalType":"contract IERC20"}],"stateMutability":"view"},{"type":"function","name":"vaultHub","inputs":[],"outputs":[{"name":"","type":"address","internalType":"contract IVaultHub"}],"stateMutability":"view"},{"type":"event","name":"MerchantWalletSet","inputs":[{"name":"merchantWallet","type":"address","indexed":true,"internalType":"address"}],"anonymous":false},{"type":"event","name":"OracleSet","inputs":[{"name":"oracle","type":"address","indexed":true,"internalType":"address"}],"anonymous":false},{"type":"event","name":"OrderCreated","inputs":[{"name":"orderId","type":"bytes32","indexed":true,"internalType":"bytes32"},{"name":"buyer","type":"address","indexed":true,"internalType":"address"},{"name":"amount","type":"uint256","indexed":false,"internalType":"uint256"},{"name":"meta","type":"string","indexed":false,"internalType":"string"}],"anonymous":false},{"type":"event","name":"OrderRefunded","inputs":[{"name":"orderId","type":"bytes32","indexed":true,"internalType":"bytes32"},{"name":"buyer","type":"address","indexed":true,"internalType":"address"},{"name":"amount","type":"uint256","indexed":false,"internalType":"uint256"},{"name":"reason","type":"string","indexed":false,"internalType":"string"}],"anonymous":false},{"type":"event","name":"OrderSettled","inputs":[{"name":"orderId","type":"bytes32","indexed":true,"internalType":"bytes32"},{"name":"buyer","type":"address","indexed":true,"internalType":"address"},{"name":"amount","type":"uint256","indexed":false,"internalType":"uint256"}],"anonymous":false},{"type":"event","name":"OrderSettledToStable","inputs":[{"name":"orderId","type":"bytes32","indexed":true,"internalType":"bytes32"},{"name":"buyer","type":"address","indexed":true,"internalType":"address"},{"name":"vfideAmount","type":"uint256","indexed":false,"internalType":"uint256"},{"name":"stableAmount","type":"uint256","indexed":false,"internalType":"uint256"}],"anonymous":false},{"type":"event","name":"StableSettlementConfigured","inputs":[{"name":"swapRouter","type":"address","indexed":false,"internalType":"address"},{"name":"stablecoin","type":"address","indexed":false,"internalType":"address"},{"name":"enabled","type":"bool","indexed":false,"internalType":"bool"}],"anonymous":false},{"type":"error","name":"ENT_NotDAO","inputs":[]},{"type":"error","name":"ENT_NotOracle","inputs":[]},{"type":"error","name":"ENT_NotPending","inputs":[]},{"type":"error","name":"ENT_OrderExists","inputs":[]},{"type":"error","name":"ENT_TransferFailed","inputs":[]},{"type":"error","name":"ENT_Zero","inputs":[]}],"bytecode":{"object":"0x60803461015f57601f6112d538819003918201601f19168301916001600160401b038311848410176101635780849260c09460405283398101031261015f5761004781610177565b9061005460208201610177565b61006060408301610177565b61006c60608401610177565b9161008560a061007e60808701610177565b9501610177565b6008805461ffff60a81b1916601960aa1b179055946001600160a01b03168015801561014e575b801561013d575b61012e575f80546001600160a01b03199081169290921790556003805482166001600160a01b03938416179055600480548216938316939093179092556005805483169382169390931790925560018054821693831693909317909255600280549092169216919091179055604051611149908161018c8239f35b63dc3b752360e01b5f5260045ffd5b506001600160a01b038316156100b3565b506001600160a01b038216156100ac565b5f80fd5b634e487b7160e01b5f52604160045260245ffd5b51906001600160a01b038216820361015f5756fe60806040526004361015610011575f80fd5b5f3560e01c80630ba3f7f5146109125780630e1df93c146108ed5780632d55ea39146108c55780634162169f1461089e57806349085d8c1461087a5780634d10bc38146107fc5780636dd6e80b146107d45780637adbf9731461076e5780637dc0d1d01461074657806380271ea1146103f95780639c3f1e901461039a578063bc85e06414610372578063c31c9c071461034a578063c4aa739514610326578063c6b9dd15146102fe578063d018ebeb146101c9578063ddda66db14610163578063e83aa3a8146101165763fc0c546a146100ea575f80fd5b34610112575f366003190112610112576003546040516001600160a01b039091168152602090f35b5f80fd5b346101125760603660031901126101125761012f610a36565b604435906001600160a01b0382168203610112576101619161014f610ae1565b602435916001600160a01b0316610cfd565b005b346101125760203660031901126101125761017c610a36565b610184610ae1565b600280546001600160a01b0319166001600160a01b039290921691821790557fbc2b06479ebb867eb6bd85b7a12d339bba9cd7cc96b76f43aa64c40e35c9dc1d5f80a2005b346101125760403660031901126101125760043560243567ffffffffffffffff8111610112576101fd903690600401610a4c565b6001549192916001600160a01b0316331415806102ea575b6102db57815f52600660205260405f2092600284019160ff83541660048110156102c7576001036102b8577f8378143047e5416141bff1416f3b11da6380c6814ba2824fcbfe190911b477dc92600360ff198254161790556102b360018060a01b03600354169561029760018060a01b03825416976001830198895491610cfd565b5495546040516001600160a01b03909716969384939184610ab4565b0390a3005b63ae85362760e01b5f5260045ffd5b634e487b7160e01b5f52602160045260245ffd5b63dd4726a360e01b5f5260045ffd5b505f546001600160a01b0316331415610215565b34610112575f366003190112610112576008546040516001600160a01b039091168152602090f35b34610112575f36600319011261011257602061ffff60085460a81c16604051908152f35b34610112575f366003190112610112576007546040516001600160a01b039091168152602090f35b34610112575f366003190112610112576002546040516001600160a01b039091168152602090f35b34610112576020366003190112610112576004355f52600660205260405f2060018060a01b038154166001820154600360ff60028501541693015490604051928352602083015260048310156102c75760809260408301526060820152f35b346101125760603660031901126101125760243560043560443567ffffffffffffffff811161011257610430903690600401610a4c565b825f52600660205260ff600260405f2001541660048110156102c75761073757831561072857600554604051630709df4560e01b815233600482015290602090829060249082906001600160a01b03165afa801561066d576106ea575b506003546040516370a0823160e01b8152306004820152946001600160a01b0390911690602086602481855afa95861561066d575f966106b6575b505f91606460209260405194859384926323b872dd60e01b845233600485015230602485015260448401525af190811561066d575f91610687575b5015610678576003546040516370a0823160e01b81523060048201529490602090869060249082906001600160a01b03165afa94851561066d575f95610639575b50840393841161062557604051916080830183811067ffffffffffffffff8211176106115760405233835260208301928584526040810193600185526060820190428252865f52600660205260405f209260018060a01b039051166bffffffffffffffffffffffff60a01b8454161783555160018301556002820194519060048210156102c7577fc106e84045ade85205b8aefb30dc94fb759cb35e111c66d438da7113afbc97ab9560039260ff80198354169116179055519101556102b3604051928392339784610ab4565b634e487b7160e01b5f52604160045260245ffd5b634e487b7160e01b5f52601160045260245ffd5b9094506020813d602011610665575b8161065560209383610a7a565b8101031261011257519385610544565b3d9150610648565b6040513d5f823e3d90fd5b632c11f15b60e11b5f5260045ffd5b6106a9915060203d6020116106af575b6106a18183610a7a565b810190610a9c565b85610503565b503d610697565b9095506020813d6020116106e2575b816106d260209383610a7a565b810103126101125751945f6104c8565b3d91506106c5565b6020813d602011610720575b8161070360209383610a7a565b8101031261011257516001600160a01b038116811461048d575f80fd5b3d91506106f6565b63dc3b752360e01b5f5260045ffd5b633891bd1360e11b5f5260045ffd5b34610112575f366003190112610112576001546040516001600160a01b039091168152602090f35b3461011257602036600319011261011257610787610a36565b61078f610ae1565b600180546001600160a01b0319166001600160a01b039290921691821790557f3f32684a32a11dabdbb8c0177de80aa3ae36a004d75210335b49e544e48cd0aa5f80a2005b34610112575f366003190112610112576005546040516001600160a01b039091168152602090f35b346101125760203660031901126101125760043567ffffffffffffffff8111610112573660238201121561011257806004013567ffffffffffffffff8111610112573660248260051b8401011161011257610855610b03565b5f5b818110156101615760019061087460248260051b86010135610b17565b01610857565b3461011257602036600319011261011257610893610b03565b610161600435610b17565b34610112575f366003190112610112575f546040516001600160a01b039091168152602090f35b34610112575f366003190112610112576004546040516001600160a01b039091168152602090f35b34610112575f36600319011261011257602060ff60085460a01c166040519015158152f35b346101125760803660031901126101125761092b610a36565b6024356001600160a01b038116919082900361011257604435801515809103610112576064359061ffff8216808303610112576101f49061096a610ae1565b116109f8577fb16fc46c548b96a20140cf3453fec21846396a732d33d9211ddc8431111d14049360609360018060a01b031692836bffffffffffffffffffffffff60a01b6007541617600755816008549161ffff60a81b9060a81b169168ffffffffffffffffff60b81b161760ff60a01b8460a01b16171760085560405192835260208301526040820152a1005b60405162461bcd60e51b815260206004820152601660248201527508a9ca87440e6d8d2e0e0c2ceca40e8dede40d0d2ced60531b6044820152606490fd5b600435906001600160a01b038216820361011257565b9181601f840112156101125782359167ffffffffffffffff8311610112576020838186019501011161011257565b90601f8019910116810190811067ffffffffffffffff82111761061157604052565b90816020910312610112575180151581036101125790565b91926060938192845260406020850152816040850152848401375f828201840152601f01601f1916010190565b5f546001600160a01b03163303610af457565b6345c3e95b60e11b5f5260045ffd5b6001546001600160a01b031633036102db57565b805f52600660205260405f20906002820160ff81541660048110156102c7576001036102b857600260ff1982541617905560085460ff8160a01c169081610ce8575b81610cd5575b5015610cb0576001820190610b748254610ef6565b8015610c54576008546002547fe95ec9f26c18d433f47664a775754ea2a2c220455648d348b4933f7966292c85926040929091610bbf9183916001600160a01b039081169116610cfd565b60018060a01b0386541694549082519182526020820152a35b60045490546001600160a01b039182169116813b15610112575f9160a483926040519485938492630eccbd3560e11b84526004840152600a6024840152606060448401526013606484015272656e74657270726973655f707572636861736560681b60848401525af1610c485750565b5f610c5291610a7a565b565b506003546002548354610c759290916001600160a01b039081169116610cfd565b7f68e713d60e84c8b6b6860d62e99941708dcbaf7ecfdc28739e3986e1a2399914602060018060a01b038554169354604051908152a3610bd8565b600354600254600184018054909392610c75926001600160a01b039081169116610cfd565b6001600160a01b0316151590505f610b5f565b6007546001600160a01b031615159150610b59565b60405163a9059cbb60e01b602082019081526001600160a01b039390931660248201526044808201949094529283525f928392908390610d3e606482610a7a565b51926001600160a01b03165af13d15610e05573d67ffffffffffffffff81116106115760405190610d79601f8201601f191660200183610a7a565b81523d5f602083013e5b81610dd6575b5015610d9157565b60405162461bcd60e51b815260206004820152601a60248201527f5361666545524332303a207472616e73666572206661696c65640000000000006044820152606490fd5b8051801592508215610deb575b50505f610d89565b610dfe9250602080918301019101610a9c565b5f80610de3565b6060610d83565b6020818303126101125780519067ffffffffffffffff821161011257019080601f830112156101125781519167ffffffffffffffff8311610611578260051b906020820193610e5e6040519586610a7a565b845260208085019282010192831161011257602001905b828210610e825750505090565b8151815260209182019101610e75565b90602080835192838152019201905f5b818110610eaf5750505090565b82516001600160a01b0316845260209384019390920191600101610ea2565b8051821015610ee25760209160051b010190565b634e487b7160e01b5f52603260045260245ffd5b80156110c25760035460075460405163095ea7b360e01b81526001600160a01b0391821660048201526024810184905291602091839160449183915f91165af1801561066d576110a5575b506007546001600160a01b031690610f835f610f5b6110c7565b6040518093819263d06ca61f60e01b8352866004840152604060248401526044830190610e92565b0381865afa90811561066d575f9161108b575b5080515f19810190811161062557610fad91610ece565b519061ffff60085460a81c166127100361ffff81116106255761ffff169182810292818404149015171561062557610fe36110c7565b9261012c420192834211610625575f61271093819561102b604051988997889687956338ed173960e01b8752600487015204602485015260a0604485015260a4840190610e92565b90306064840152608483015203925af15f9181611067575b5061104d57505f90565b80515f1981019081116106255761106391610ece565b5190565b6110849192503d805f833e61107c8183610a7a565b810190610e0c565b905f611043565b61109f91503d805f833e61107c8183610a7a565b5f610f96565b6110bd9060203d6020116106af576106a18183610a7a565b610f41565b505f90565b6040516110d5606082610a7a565b6002815260208101604036823760018060a01b036003541690825115610ee2575260018060a01b0360085416815160011015610ee25760408201529056fea264697066735822122022f0a18adebd474d5c2dda89497caeb4ae709817d229aed0463918a5fd3cac6564736f6c634300081e0033","linkReferences":{}},"methodIdentifiers":{"configureStableSettlement(address,address,bool,uint16)":"0ba3f7f5","createOrder(bytes32,uint256,string)":"80271ea1","dao()":"4162169f","maxSlippageBps()":"c4aa7395","merchantWallet()":"bc85e064","oracle()":"7dc0d1d0","orders(bytes32)":"9c3f1e90","refundOrder(bytes32,string)":"d018ebeb","rescueFunds(address,uint256,address)":"e83aa3a8","seer()":"2d55ea39","setMerchantWallet(address)":"ddda66db","setOracle(address)":"7adbf973","settleBatch(bytes32[])":"4d10bc38","settleOrder(bytes32)":"49085d8c","settlementStablecoin()":"c6b9dd15","stableSettlementEnabled()":"0e1df93c","swapRouter()":"c31c9c07","token()":"fc0c546a","vaultHub()":"6dd6e80b"},"id":1}