{"abi":[{"type":"constructor","inputs":[{"name":"_dao","type":"address","internalType":"address"},{"name":"_token","type":"address","internalType":"address"},{"name":"_seer","type":"address","internalType":"address"},{"name":"_vaultHub","type":"address","internalType":"address"},{"name":"_oracle","type":"address","internalType":"address"},{"name":"_merchantWallet","type":"address","internalType":"address"}],"stateMutability":"nonpayable"},{"type":"function","name":"configureStableSettlement","inputs":[{"name":"_router","type":"address","internalType":"address"},{"name":"_stablecoin","type":"address","internalType":"address"},{"name":"_enabled","type":"bool","internalType":"bool"},{"name":"_maxSlippageBps","type":"uint16","internalType":"uint16"}],"outputs":[],"stateMutability":"nonpayable"},{"type":"function","name":"createOrder","inputs":[{"name":"orderId","type":"bytes32","internalType":"bytes32"},{"name":"amount","type":"uint256","internalType":"uint256"},{"name":"meta","type":"string","internalType":"string"}],"outputs":[],"stateMutability":"nonpayable"},{"type":"function","name":"dao","inputs":[],"outputs":[{"name":"","type":"address","internalType":"address"}],"stateMutability":"view"},{"type":"function","name":"maxSlippageBps","inputs":[],"outputs":[{"name":"","type":"uint16","internalType":"uint16"}],"stateMutability":"view"},{"type":"function","name":"merchantWallet","inputs":[],"outputs":[{"name":"","type":"address","internalType":"address"}],"stateMutability":"view"},{"type":"function","name":"oracle","inputs":[],"outputs":[{"name":"","type":"address","internalType":"address"}],"stateMutability":"view"},{"type":"function","name":"orders","inputs":[{"name":"","type":"bytes32","internalType":"bytes32"}],"outputs":[{"name":"buyer","type":"address","internalType":"address"},{"name":"amount","type":"uint256","internalType":"uint256"},{"name":"status","type":"uint8","internalType":"enum VFIDEEnterpriseGateway.Status"},{"name":"timestamp","type":"uint256","internalType":"uint256"}],"stateMutability":"view"},{"type":"function","name":"refundOrder","inputs":[{"name":"orderId","type":"bytes32","internalType":"bytes32"},{"name":"reason","type":"string","internalType":"string"}],"outputs":[],"stateMutability":"nonpayable"},{"type":"function","name":"rescueFunds","inputs":[{"name":"_token","type":"address","internalType":"address"},{"name":"_amount","type":"uint256","internalType":"uint256"},{"name":"_to","type":"address","internalType":"address"}],"outputs":[],"stateMutability":"nonpayable"},{"type":"function","name":"seer","inputs":[],"outputs":[{"name":"","type":"address","internalType":"contract ISeer"}],"stateMutability":"view"},{"type":"function","name":"setMerchantWallet","inputs":[{"name":"_wallet","type":"address","internalType":"address"}],"outputs":[],"stateMutability":"nonpayable"},{"type":"function","name":"setOracle","inputs":[{"name":"_oracle","type":"address","internalType":"address"}],"outputs":[],"stateMutability":"nonpayable"},{"type":"function","name":"settleBatch","inputs":[{"name":"orderIds","type":"bytes32[]","internalType":"bytes32[]"}],"outputs":[],"stateMutability":"nonpayable"},{"type":"function","name":"settleOrder","inputs":[{"name":"orderId","type":"bytes32","internalType":"bytes32"}],"outputs":[],"stateMutability":"nonpayable"},{"type":"function","name":"settlementStablecoin","inputs":[],"outputs":[{"name":"","type":"address","internalType":"address"}],"stateMutability":"view"},{"type":"function","name":"stableSettlementEnabled","inputs":[],"outputs":[{"name":"","type":"bool","internalType":"bool"}],"stateMutability":"view"},{"type":"function","name":"swapRouter","inputs":[],"outputs":[{"name":"","type":"address","internalType":"address"}],"stateMutability":"view"},{"type":"function","name":"token","inputs":[],"outputs":[{"name":"","type":"address","internalType":"contract IERC20"}],"stateMutability":"view"},{"type":"function","name":"vaultHub","inputs":[],"outputs":[{"name":"","type":"address","internalType":"contract IVaultHub"}],"stateMutability":"view"},{"type":"event","name":"MerchantWalletSet","inputs":[{"name":"merchantWallet","type":"address","indexed":true,"internalType":"address"}],"anonymous":false},{"type":"event","name":"OracleSet","inputs":[{"name":"oracle","type":"address","indexed":true,"internalType":"address"}],"anonymous":false},{"type":"event","name":"OrderCreated","inputs":[{"name":"orderId","type":"bytes32","indexed":true,"internalType":"bytes32"},{"name":"buyer","type":"address","indexed":true,"internalType":"address"},{"name":"amount","type":"uint256","indexed":false,"internalType":"uint256"},{"name":"meta","type":"string","indexed":false,"internalType":"string"}],"anonymous":false},{"type":"event","name":"OrderRefunded","inputs":[{"name":"orderId","type":"bytes32","indexed":true,"internalType":"bytes32"},{"name":"buyer","type":"address","indexed":true,"internalType":"address"},{"name":"amount","type":"uint256","indexed":false,"internalType":"uint256"},{"name":"reason","type":"string","indexed":false,"internalType":"string"}],"anonymous":false},{"type":"event","name":"OrderSettled","inputs":[{"name":"orderId","type":"bytes32","indexed":true,"internalType":"bytes32"},{"name":"buyer","type":"address","indexed":true,"internalType":"address"},{"name":"amount","type":"uint256","indexed":false,"internalType":"uint256"}],"anonymous":false},{"type":"event","name":"OrderSettledToStable","inputs":[{"name":"orderId","type":"bytes32","indexed":true,"internalType":"bytes32"},{"name":"buyer","type":"address","indexed":true,"internalType":"address"},{"name":"vfideAmount","type":"uint256","indexed":false,"internalType":"uint256"},{"name":"stableAmount","type":"uint256","indexed":false,"internalType":"uint256"}],"anonymous":false},{"type":"event","name":"StableSettlementConfigured","inputs":[{"name":"swapRouter","type":"address","indexed":false,"internalType":"address"},{"name":"stablecoin","type":"address","indexed":false,"internalType":"address"},{"name":"enabled","type":"bool","indexed":false,"internalType":"bool"}],"anonymous":false},{"type":"error","name":"ENT_NotDAO","inputs":[]},{"type":"error","name":"ENT_NotOracle","inputs":[]},{"type":"error","name":"ENT_NotPending","inputs":[]},{"type":"error","name":"ENT_OrderExists","inputs":[]},{"type":"error","name":"ENT_TransferFailed","inputs":[]},{"type":"error","name":"ENT_Zero","inputs":[]}],"bytecode":{"object":"0x60803461015f57601f61139238819003918201601f19168301916001600160401b038311848410176101635780849260c09460405283398101031261015f5761004781610177565b9061005460208201610177565b61006060408301610177565b61006c60608401610177565b9161008560a061007e60808701610177565b9501610177565b6008805461ffff60a81b1916601960aa1b179055946001600160a01b03168015801561014e575b801561013d575b61012e575f80546001600160a01b03199081169290921790556003805482166001600160a01b03938416179055600480548216938316939093179092556005805483169382169390931790925560018054821693831693909317909255600280549092169216919091179055604051611206908161018c8239f35b63dc3b752360e01b5f5260045ffd5b506001600160a01b038316156100b3565b506001600160a01b038216156100ac565b5f80fd5b634e487b7160e01b5f52604160045260245ffd5b51906001600160a01b038216820361015f5756fe60806040526004361015610011575f80fd5b5f3560e01c80630ba3f7f51461090b5780630e1df93c146108e65780632d55ea39146108be5780634162169f1461089757806349085d8c146108735780634d10bc38146107f75780636dd6e80b146107cf5780637adbf973146107695780637dc0d1d01461074157806380271ea1146103f85780639c3f1e9014610399578063bc85e06414610371578063c31c9c0714610349578063c4aa739514610325578063c6b9dd15146102fd578063d018ebeb146101c9578063ddda66db14610163578063e83aa3a8146101165763fc0c546a146100ea575f80fd5b34610112575f366003190112610112576003546040516001600160a01b039091168152602090f35b5f80fd5b346101125760603660031901126101125761012f610a22565b604435906001600160a01b0382168203610112576101619161014f610acd565b602435916001600160a01b0316610d04565b005b346101125760203660031901126101125761017c610a22565b610184610acd565b600280546001600160a01b0319166001600160a01b039290921691821790557fbc2b06479ebb867eb6bd85b7a12d339bba9cd7cc96b76f43aa64c40e35c9dc1d5f80a2005b34610112576040366003190112610112576004356024356001600160401b038111610112576101fc903690600401610a38565b6001549192916001600160a01b0316331415806102e9575b6102da57815f52600660205260405f2092600284019160ff83541660048110156102c6576001036102b7577f8378143047e5416141bff1416f3b11da6380c6814ba2824fcbfe190911b477dc92600360ff198254161790556102b260018060a01b03600354169561029660018060a01b03825416976001830198895491610d04565b5495546040516001600160a01b03909716969384939184610aa0565b0390a3005b63ae85362760e01b5f5260045ffd5b634e487b7160e01b5f52602160045260245ffd5b63dd4726a360e01b5f5260045ffd5b505f546001600160a01b0316331415610214565b34610112575f366003190112610112576008546040516001600160a01b039091168152602090f35b34610112575f36600319011261011257602061ffff60085460a81c16604051908152f35b34610112575f366003190112610112576007546040516001600160a01b039091168152602090f35b34610112575f366003190112610112576002546040516001600160a01b039091168152602090f35b34610112576020366003190112610112576004355f52600660205260405f2060018060a01b038154166001820154600360ff60028501541693015490604051928352602083015260048310156102c65760809260408301526060820152f35b34610112576060366003190112610112576024356004356044356001600160401b0381116101125761042e903690600401610a38565b825f52600660205260ff600260405f2001541660048110156102c65761073257831561072357600554604051630709df4560e01b815233600482015290602090829060249082906001600160a01b03165afa8015610668576106e5575b506003546040516370a0823160e01b8152306004820152946001600160a01b0390911690602086602481855afa958615610668575f966106b1575b505f91606460209260405194859384926323b872dd60e01b845233600485015230602485015260448401525af1908115610668575f91610682575b5015610673576003546040516370a0823160e01b81523060048201529490602090869060249082906001600160a01b03165afa948515610668575f95610634575b5084039384116106205760405191608083016001600160401b0381118482101761060c5760409081523384526020808501878152600186840181815242606089019081525f8a8152600690955294909320965187546001600160a01b0319166001600160a01b03919091161787559051908601555160028501949160048210156102c6577fc106e84045ade85205b8aefb30dc94fb759cb35e111c66d438da7113afbc97ab9560039260ff80198354169116179055519101556102b2604051928392339784610aa0565b634e487b7160e01b5f52604160045260245ffd5b634e487b7160e01b5f52601160045260245ffd5b9094506020813d602011610660575b8161065060209383610a65565b8101031261011257519385610542565b3d9150610643565b6040513d5f823e3d90fd5b632c11f15b60e11b5f5260045ffd5b6106a4915060203d6020116106aa575b61069c8183610a65565b810190610a88565b85610501565b503d610692565b9095506020813d6020116106dd575b816106cd60209383610a65565b810103126101125751945f6104c6565b3d91506106c0565b6020813d60201161071b575b816106fe60209383610a65565b8101031261011257516001600160a01b038116811461048b575f80fd5b3d91506106f1565b63dc3b752360e01b5f5260045ffd5b633891bd1360e11b5f5260045ffd5b34610112575f366003190112610112576001546040516001600160a01b039091168152602090f35b3461011257602036600319011261011257610782610a22565b61078a610acd565b600180546001600160a01b0319166001600160a01b039290921691821790557f3f32684a32a11dabdbb8c0177de80aa3ae36a004d75210335b49e544e48cd0aa5f80a2005b34610112575f366003190112610112576005546040516001600160a01b039091168152602090f35b34610112576020366003190112610112576004356001600160401b03811161011257366023820112156101125760048101356001600160401b038111610112573660248260051b840101116101125761084e610aef565b5f5b818110156101615760019061086d60248260051b86010135610b03565b01610850565b346101125760203660031901126101125761088c610aef565b610161600435610b03565b34610112575f366003190112610112575f546040516001600160a01b039091168152602090f35b34610112575f366003190112610112576004546040516001600160a01b039091168152602090f35b34610112575f36600319011261011257602060ff60085460a01c166040519015158152f35b3461011257608036600319011261011257610924610a22565b6024356001600160a01b038116919082900361011257604435801515809103610112576064359061ffff8216808303610112576101f490610963610acd565b116109e4577fb16fc46c548b96a20140cf3453fec21846396a732d33d9211ddc8431111d14049360609360018060a01b0316928360018060a01b03196007541617600755816008549161ffff60a81b9060a81b169160018060b81b0319161760ff60a01b8460a01b16171760085560405192835260208301526040820152a1005b60405162461bcd60e51b815260206004820152601660248201527508a9ca87440e6d8d2e0e0c2ceca40e8dede40d0d2ced60531b6044820152606490fd5b600435906001600160a01b038216820361011257565b9181601f84011215610112578235916001600160401b038311610112576020838186019501011161011257565b601f909101601f19168101906001600160401b0382119082101761060c57604052565b90816020910312610112575180151581036101125790565b91926060938192845260406020850152816040850152848401375f828201840152601f01601f1916010190565b5f546001600160a01b03163303610ae057565b6345c3e95b60e11b5f5260045ffd5b6001546001600160a01b031633036102da57565b805f52600660205260405f20906002820160ff81541660048110156102c6576001036102b757600260ff1982541617905560085460ff8160a01c169081610cd4575b81610cc1575b5015610c9c576001820190610b608254610eee565b8015610c40576008546002547fe95ec9f26c18d433f47664a775754ea2a2c220455648d348b4933f7966292c85926040929091610bab9183916001600160a01b039081169116610d04565b60018060a01b0386541694549082519182526020820152a35b60045490546001600160a01b039182169116813b15610112575f9160a483926040519485938492630eccbd3560e11b84526004840152600a6024840152606060448401526013606484015272656e74657270726973655f707572636861736560681b60848401525af1610c345750565b5f610c3e91610a65565b565b506003546002548354610c619290916001600160a01b039081169116610d04565b7f68e713d60e84c8b6b6860d62e99941708dcbaf7ecfdc28739e3986e1a2399914602060018060a01b038554169354604051908152a3610bc4565b600354600254600184018054909392610c61926001600160a01b039081169116610d04565b6001600160a01b0316151590505f610b4b565b6007546001600160a01b031615159150610b45565b6001600160a01b039091168152602081019190915260400190565b5f929183610d2e610d3c8295604051928391602083019663a9059cbb60e01b885260248401610ce9565b03601f198101835282610a65565b51926001600160a01b03165af13d15610dff573d6001600160401b03811161060c5760405190610d76601f8201601f191660200183610a65565b81523d5f602083013e5b81610dd0575b5015610d8e57565b60405162461bcd60e51b815260206004820152601a60248201527914d85999515490cc8c0e881d1c985b9cd9995c8819985a5b195960321b6044820152606490fd5b8051801592508215610de5575b50505f610d86565b610df89250602080918301019101610a88565b5f80610ddd565b6060610d80565b602081830312610112578051906001600160401b03821161011257019080601f83011215610112578151916001600160401b03831161060c578260051b906020820193610e566040519586610a65565b845260208085019282010192831161011257602001905b828210610e7a5750505090565b8151815260209182019101610e6d565b90602080835192838152019201905f5b818110610ea75750505090565b82516001600160a01b0316845260209384019390920191600101610e9a565b8051821015610eda5760209160051b010190565b634e487b7160e01b5f52603260045260245ffd5b80156110a75760035460075460405163095ea7b360e01b81529160209183916001600160a01b039081169183915f918391610f2f918a911660048401610ce9565b03925af1801561066857611167575b506007546001600160a01b031690610f805f610f58611184565b6040518093819263d06ca61f60e01b8352866004840152604060248401526044830190610e8a565b0381865afa908115610668575f9161114d575b5080515f19810190811161062057610faa91610ec6565b519061ffff60085460a81c166127100361ffff81116106205761ffff169182810292818404149015171561062057610fe0611184565b9261012c420192834211610620575f612710938195611028604051988997889687956338ed173960e01b8752600487015204602485015260a0604485015260a4840190610e8a565b90306064840152608483015203925af15f9181611129575b506110ac575060035460075460405163095ea7b360e01b81526001600160a01b0391821660048201525f60248201819052909260209284926044928492165af180156106685761108f57505f90565b6110a79060203d6020116106aa5761069c8183610a65565b505f90565b60035460075460405163095ea7b360e01b81526001600160a01b0391821660048201525f60248201819052909260209284926044928492165af180156106685761110c575b5080515f1981019081116106205761110891610ec6565b5190565b6111249060203d6020116106aa5761069c8183610a65565b6110f1565b6111469192503d805f833e61113e8183610a65565b810190610e06565b905f611040565b61116191503d805f833e61113e8183610a65565b5f610f93565b61117f9060203d6020116106aa5761069c8183610a65565b610f3e565b604051611192606082610a65565b6002815260208101604036823760018060a01b036003541690825115610eda575260018060a01b0360085416815160011015610eda5760408201529056fea2646970667358221220553163605c057eae99df7b71e4f02b83495b7d47b7f84b84e57e917b8b0e4a2364736f6c634300081e0033","linkReferences":{}},"methodIdentifiers":{"configureStableSettlement(address,address,bool,uint16)":"0ba3f7f5","createOrder(bytes32,uint256,string)":"80271ea1","dao()":"4162169f","maxSlippageBps()":"c4aa7395","merchantWallet()":"bc85e064","oracle()":"7dc0d1d0","orders(bytes32)":"9c3f1e90","refundOrder(bytes32,string)":"d018ebeb","rescueFunds(address,uint256,address)":"e83aa3a8","seer()":"2d55ea39","setMerchantWallet(address)":"ddda66db","setOracle(address)":"7adbf973","settleBatch(bytes32[])":"4d10bc38","settleOrder(bytes32)":"49085d8c","settlementStablecoin()":"c6b9dd15","stableSettlementEnabled()":"0e1df93c","swapRouter()":"c31c9c07","token()":"fc0c546a","vaultHub()":"6dd6e80b"},"id":34}