{"abi":[{"type":"constructor","inputs":[{"name":"_seer","type":"address","internalType":"address"},{"name":"_dao","type":"address","internalType":"address"}],"stateMutability":"nonpayable"},{"type":"function","name":"COMMITMENT_VALIDITY","inputs":[],"outputs":[{"name":"","type":"uint256","internalType":"uint256"}],"stateMutability":"view"},{"type":"function","name":"PROOF_VALIDITY_PERIOD","inputs":[],"outputs":[{"name":"","type":"uint256","internalType":"uint256"}],"stateMutability":"view"},{"type":"function","name":"addTrustedVerifier","inputs":[{"name":"verifier","type":"address","internalType":"address"}],"outputs":[],"stateMutability":"nonpayable"},{"type":"function","name":"canProve","inputs":[{"name":"user","type":"address","internalType":"address"},{"name":"proofType","type":"uint8","internalType":"enum ZKReputationProofs.ProofType"},{"name":"threshold","type":"uint256","internalType":"uint256"}],"outputs":[{"name":"","type":"bool","internalType":"bool"}],"stateMutability":"view"},{"type":"function","name":"commitments","inputs":[{"name":"","type":"address","internalType":"address"},{"name":"","type":"bytes32","internalType":"bytes32"}],"outputs":[{"name":"commitmentHash","type":"bytes32","internalType":"bytes32"},{"name":"createdAt","type":"uint256","internalType":"uint256"},{"name":"expiresAt","type":"uint256","internalType":"uint256"},{"name":"revealed","type":"bool","internalType":"bool"}],"stateMutability":"view"},{"type":"function","name":"createCommitment","inputs":[{"name":"proofType","type":"uint8","internalType":"enum ZKReputationProofs.ProofType"},{"name":"salt","type":"bytes32","internalType":"bytes32"}],"outputs":[{"name":"commitmentId","type":"bytes32","internalType":"bytes32"}],"stateMutability":"nonpayable"},{"type":"function","name":"dao","inputs":[],"outputs":[{"name":"","type":"address","internalType":"address"}],"stateMutability":"view"},{"type":"function","name":"proofRequests","inputs":[{"name":"","type":"bytes32","internalType":"bytes32"}],"outputs":[{"name":"proofType","type":"uint8","internalType":"enum ZKReputationProofs.ProofType"},{"name":"threshold","type":"uint256","internalType":"uint256"},{"name":"minValue","type":"uint256","internalType":"uint256"},{"name":"maxValue","type":"uint256","internalType":"uint256"},{"name":"timestamp","type":"uint256","internalType":"uint256"},{"name":"expiresAt","type":"uint256","internalType":"uint256"},{"name":"verified","type":"bool","internalType":"bool"}],"stateMutability":"view"},{"type":"function","name":"proveEndorsementCount","inputs":[{"name":"minEndorsements","type":"uint256","internalType":"uint256"},{"name":"nonce","type":"bytes32","internalType":"bytes32"}],"outputs":[{"name":"proofId","type":"bytes32","internalType":"bytes32"},{"name":"success","type":"bool","internalType":"bool"}],"stateMutability":"nonpayable"},{"type":"function","name":"proveNoDisputeLosses","inputs":[{"name":"nonce","type":"bytes32","internalType":"bytes32"}],"outputs":[{"name":"proofId","type":"bytes32","internalType":"bytes32"},{"name":"success","type":"bool","internalType":"bool"}],"stateMutability":"nonpayable"},{"type":"function","name":"proveScoreAbove","inputs":[{"name":"threshold","type":"uint256","internalType":"uint256"},{"name":"nonce","type":"bytes32","internalType":"bytes32"}],"outputs":[{"name":"proofId","type":"bytes32","internalType":"bytes32"},{"name":"success","type":"bool","internalType":"bool"}],"stateMutability":"nonpayable"},{"type":"function","name":"proveScoreInRange","inputs":[{"name":"minScore","type":"uint256","internalType":"uint256"},{"name":"maxScore","type":"uint256","internalType":"uint256"},{"name":"nonce","type":"bytes32","internalType":"bytes32"}],"outputs":[{"name":"proofId","type":"bytes32","internalType":"bytes32"},{"name":"success","type":"bool","internalType":"bool"}],"stateMutability":"nonpayable"},{"type":"function","name":"proveTrustTier","inputs":[{"name":"tier","type":"uint8","internalType":"uint8"},{"name":"nonce","type":"bytes32","internalType":"bytes32"}],"outputs":[{"name":"proofId","type":"bytes32","internalType":"bytes32"},{"name":"success","type":"bool","internalType":"bool"}],"stateMutability":"nonpayable"},{"type":"function","name":"removeTrustedVerifier","inputs":[{"name":"verifier","type":"address","internalType":"address"}],"outputs":[],"stateMutability":"nonpayable"},{"type":"function","name":"seer","inputs":[],"outputs":[{"name":"","type":"address","internalType":"contract ISeerView"}],"stateMutability":"view"},{"type":"function","name":"setSeer","inputs":[{"name":"_seer","type":"address","internalType":"address"}],"outputs":[],"stateMutability":"nonpayable"},{"type":"function","name":"submitZKProof","inputs":[{"name":"proofData","type":"bytes","internalType":"bytes"},{"name":"publicInputs","type":"bytes32[]","internalType":"bytes32[]"}],"outputs":[{"name":"proofId","type":"bytes32","internalType":"bytes32"}],"stateMutability":"nonpayable"},{"type":"function","name":"trustedVerifiers","inputs":[{"name":"","type":"address","internalType":"address"}],"outputs":[{"name":"","type":"bool","internalType":"bool"}],"stateMutability":"view"},{"type":"function","name":"usedNonces","inputs":[{"name":"","type":"bytes32","internalType":"bytes32"}],"outputs":[{"name":"","type":"bool","internalType":"bool"}],"stateMutability":"view"},{"type":"function","name":"verifyProof","inputs":[{"name":"proofId","type":"bytes32","internalType":"bytes32"}],"outputs":[{"name":"valid","type":"bool","internalType":"bool"},{"name":"proofType","type":"uint8","internalType":"enum ZKReputationProofs.ProofType"},{"name":"threshold","type":"uint256","internalType":"uint256"},{"name":"expiresAt","type":"uint256","internalType":"uint256"}],"stateMutability":"view"},{"type":"event","name":"CommitmentCreated","inputs":[{"name":"user","type":"address","indexed":true,"internalType":"address"},{"name":"commitmentId","type":"bytes32","indexed":true,"internalType":"bytes32"},{"name":"proofType","type":"uint8","indexed":false,"internalType":"enum ZKReputationProofs.ProofType"}],"anonymous":false},{"type":"event","name":"ProofGenerated","inputs":[{"name":"proofId","type":"bytes32","indexed":true,"internalType":"bytes32"},{"name":"prover","type":"address","indexed":true,"internalType":"address"},{"name":"proofType","type":"uint8","indexed":false,"internalType":"enum ZKReputationProofs.ProofType"},{"name":"result","type":"bool","indexed":false,"internalType":"bool"}],"anonymous":false},{"type":"event","name":"ProofVerified","inputs":[{"name":"proofId","type":"bytes32","indexed":true,"internalType":"bytes32"},{"name":"verifier","type":"address","indexed":true,"internalType":"address"}],"anonymous":false},{"type":"event","name":"VerifierAdded","inputs":[{"name":"verifier","type":"address","indexed":true,"internalType":"address"}],"anonymous":false},{"type":"event","name":"VerifierRemoved","inputs":[{"name":"verifier","type":"address","indexed":true,"internalType":"address"}],"anonymous":false},{"type":"error","name":"ZKR_AlreadyUsed","inputs":[]},{"type":"error","name":"ZKR_NotAuthorized","inputs":[]}],"bytecode":{"object":"0x608034609657601f61170d38819003918201601f19168301916001600160401b0383118484101760ab578084926040948552833981010312609657604b602060458360bf565b920160bf565b906001600160a01b031680151580609a575b1560965760018060a01b03195f5416175f5560018060a01b031660018060a01b0319600154161760015560405161163a90816100d38239f35b5f80fd5b506001600160a01b0382161515605d565b634e487b7160e01b5f52604160045260245ffd5b51906001600160a01b038216820360965756fe6080806040526004361015610012575f80fd5b5f3560e01c9081625331101461111b5750806308920aeb14610f1c5780632631983314610edf5780632d55ea3914610eb85780632fe0b02214610cd85780634162169f14610cb057806350a053cd14610c3e5780635bc9ab5614610c2257806367d8599114610a5e57806372fc3b46146108a7578063801d2cf114610838578063837ae7c11461081b5780638b1592b5146107b0578063b142b4ec1461076d578063bfe9edbf1461072e578063c34cf5c7146106b4578063e071c1c014610651578063e25da4171461032d578063ef9deb081461012a5763feb61724146100f7575f80fd5b34610126576020366003190112610126576004355f526002602052602060ff60405f2054166040519015158152f35b5f80fd5b346101265761013836611313565b90815f52600260205260ff60405f20541661031e575f828152600260209081526040808320805460ff1916600117905591549151630d47875d60e41b815233600482015291829060249082906001600160a01b03165afa80156103135782915f916102de575b5060405133602082019081529290911015935f60408301526060820184905260808201524260a08083019190915281526101d960c082611352565b51902090610e1042018042116102ca57604051906101f682611336565b5f82526020820192835260408201905f825260608301905f82526080840142815260a0850191825260c0850192888452875f52600460205260405f2095519460088610156102b6576102859760069660ff80198a5416911617885551600188015551600287015551600386015551600485015551600584015551151591019060ff801983541691151516179055565b6040515f8152826020820152815f5160206115e55f395f51905f5260403393a3604080519182529115156020820152f35b634e487b7160e01b5f52602160045260245ffd5b634e487b7160e01b5f52601160045260245ffd5b9150506020813d60201161030b575b816102fa60209383611352565b81010312610126578190518461019e565b3d91506102ed565b6040513d5f823e3d90fd5b6371c036bb60e01b5f5260045ffd5b346101265760403660031901126101265760043560088110156101265760243560405160208101903382526103656040820185611329565b6060810183905242608080830191909152815261038360a082611352565b5190205f54604051630d47875d60e41b8152336004820152919291906001600160a01b0316602082602481845afa918215610313575f9261061d575b506040516370be957360e11b815233600482015290602082602481845afa918215610313575f926105e9575b5060405163e899648560e01b815233600482015290602082602481845afa918215610313575f926105b4575b50906020602492604051938480926311e5066960e11b82523360048301525afa918215610313575f92610580575b5060405192602084019485526040840152606083015260808201526080815261046f60a082611352565b5190209060405190602082019233845261048c6040840187611329565b60608301526080820152608081526104a560a082611352565b51902091620151804201908142116102ca5760405193608085019480861067ffffffffffffffff87111761056c5760038594610532936020986040528352878301904282526040840190815260608401915f8352335f52838a5260405f20885f528a5260405f209451855551600185015551600284015551151591019060ff801983541691151516179055565b61053f6040518092611329565b7f9c5ac35ae20091d141bdeb697ebcbd6800e7eaa7671a0e5e5086951b0ea305cf843392a3604051908152f35b634e487b7160e01b5f52604160045260245ffd5b9091506020813d6020116105ac575b8161059c60209383611352565b8101031261012657519087610445565b3d915061058f565b91506020823d6020116105e1575b816105cf60209383611352565b81010312610126579051906020610417565b3d91506105c2565b9091506020813d602011610615575b8161060560209383611352565b81010312610126575190866103eb565b3d91506105f8565b9091506020813d602011610649575b8161063960209383611352565b81010312610126575190856103bf565b3d915061062c565b346101265760203660031901126101265761066a6112fd565b6001546001600160a01b031633036106a5576001600160a01b03168015610126576bffffffffffffffffffffffff60a01b5f5416175f555f80f35b6310a9c86760e11b5f5260045ffd5b34610126576020366003190112610126576004355f52600460205260e060405f2060ff815416906001810154906002810154600382015460048301549160ff60066005860154950154169461070c6040518098611329565b602087015260408601526060850152608084015260a0830152151560c0820152f35b34610126576060366003190112610126576107476112fd565b60243560088110156101265760209161076391604435916113dd565b6040519015158152f35b346101265760203660031901126101265760806107a461078e600435611374565b9293909160405194151585526020850190611329565b60408301526060820152f35b34610126576040366003190112610126576001600160a01b036107d16112fd565b165f52600360205260405f206024355f52602052608060405f2080549060018101549060ff6003600283015492015416916040519384526020840152604083015215156060820152f35b34610126575f366003190112610126576020604051620151808152f35b34610126576020366003190112610126576108516112fd565b6001546001600160a01b031633036106a5576001600160a01b03165f818152600560205260408120805460ff191690557f44a3cd4eb5cc5748f6169df057b1cb2ae4c383e87cd94663c430e095d4cba4249080a2005b3461012657602036600319011261012657600435805f52600260205260ff60405f20541661031e575f818152600260209081526040808320805460ff191660011790559154915163e899648560e01b815233600482015291829060249082906001600160a01b03165afa908115610313575f91610a2c575b50159060405160208101913383526004604083015260608201524260808201526080815261094e60a082611352565b519020610e1042018042116102ca5760405161096981611336565b6004815260208101915f835260408201905f825260608301905f82526080840142815260a0850191825260c0850192888452875f52600460205260405f2095519460088610156102b6576109fa9760069660ff80198a5416911617885551600188015551600287015551600386015551600485015551600584015551151591019060ff801983541691151516179055565b60405160048152826020820152815f5160206115e55f395f51905f5260403393a3604080519182529115156020820152f35b90506020813d602011610a56575b81610a4760209383611352565b8101031261012657518261091f565b3d9150610a3a565b3461012657610a6c36611313565b90815f52600260205260ff60405f20541661031e575f828152600260209081526040808320805460ff19166001179055915491516370be957360e11b815233600482015291829060249082906001600160a01b03165afa80156103135782915f91610bed575b506040513360208201908152929091101593600360408301526060820184905260808201524260a0808301919091528152610b0e60c082611352565b51902090610e1042018042116102ca5760405190610b2b82611336565b600382526020820192835260408201905f825260608301905f82526080840142815260a0850191825260c0850192888452875f52600460205260405f2095519460088610156102b657610bbb9760069660ff80198a5416911617885551600188015551600287015551600386015551600485015551600584015551151591019060ff801983541691151516179055565b60405160038152826020820152815f5160206115e55f395f51905f5260403393a3604080519182529115156020820152f35b9150506020813d602011610c1a575b81610c0960209383611352565b810103126101265781905184610ad2565b3d9150610bfc565b34610126575f366003190112610126576020604051610e108152f35b3461012657602036600319011261012657610c576112fd565b6001546001600160a01b031633036106a5576001600160a01b03165f818152600560205260408120805460ff191660011790557f6d05492139c5ea989514a5d2150c028041e5c087e2a39967f67dc7d2655adb819080a2005b34610126575f366003190112610126576001546040516001600160a01b039091168152602090f35b346101265760403660031901126101265760043560ff81168091036101265760243590815f52600260205260ff60405f20541661031e575f828152600260209081526040808320805460ff1916600117905591549151630d47875d60e41b815233600482015291829060249082906001600160a01b03165afa80156103135782915f91610e81575b50610d6c60ff916115b1565b1610159160405160208101913383526006604083015283606083015260808201524260a082015260a08152610da260c082611352565b51902090610e1042018042116102ca5760405190610dbf82611336565b600682526020820192835260408201905f825260608301905f82526080840142815260a0850191825260c0850192888452875f52600460205260405f2095519460088610156102b657610e4f9760069660ff80198a5416911617885551600188015551600287015551600386015551600485015551600584015551151591019060ff801983541691151516179055565b60405160068152826020820152815f5160206115e55f395f51905f5260403393a3604080519182529115156020820152f35b9150506020813d602011610eb0575b81610e9d60209383611352565b8101031261012657518190610d6c610d60565b3d9150610e90565b34610126575f366003190112610126575f546040516001600160a01b039091168152602090f35b34610126576020366003190112610126576001600160a01b03610f006112fd565b165f526005602052602060ff60405f2054166040519015158152f35b346101265760403660031901126101265760043567ffffffffffffffff8111610126573660238201121561012657806004013567ffffffffffffffff81116101265736602482840101116101265760243567ffffffffffffffff8111610126573660238201121561012657806004013567ffffffffffffffff8111610126578060051b90366024838501011161012657335f52600560205260ff60405f205416156106a557604051938060246020870197606089528260808901520160a08701375f60a08287010152601f8019910116840190601f1960a0868403010160408601528060a083015260018060fb1b03106101265760a0828592602094602461103b970160c083013742606085015201010301601f198101835282611352565b519020610e104201908142116102ca5760405161105781611336565b6007815260208101905f825260408101935f855260608201905f8252608083019042825260a0840190815260c084019160018352865f52600460205260405f2094519360088510156102b6576020986110ed9760069660ff80198a5416911617885551600188015551600287015551600386015551600485015551600584015551151591019060ff801983541691151516179055565b6040519033817f60d9367e24cc6f7fa9630b6542cd57edc20576d1a1169ff87a9eb34680a56acf5f80a38152f35b3461012657606036600319011261012657600435602435604435805f52600260205260ff60405f20541661031e575f8181526002602090815260408220805460ff191660011790559054630d47875d60e41b8652336004870152859060249082906001600160a01b03165afa938415610313575f946112c9575b508284101593846112be575b5060405160208101913383526002604083015284606083015283608083015260a08201524260c082015260c081526111da60e082611352565b51902091610e104201908142116102ca57604051906111f882611336565b6002825260208201925f84526040830191825260608301948552608083019042825260a0840190815260c084019188151596878452885f52600460205260405f2095519460088610156102b65761128c9760069660ff80198a5416911617885551600188015551600287015551600386015551600485015551600584015551151591019060ff801983541691151516179055565b60405190600282526020820152815f5160206115e55f395f51905f5260403393a3604080519182529115156020820152f35b8210159350846111a1565b9093506020813d6020116112f5575b816112e560209383611352565b8101031261012657519284611195565b3d91506112d8565b600435906001600160a01b038216820361012657565b6040906003190112610126576004359060243590565b9060088210156102b65752565b60e0810190811067ffffffffffffffff82111761056c57604052565b90601f8019910116810190811067ffffffffffffffff82111761056c57604052565b5f52600460205260405f20906004820154156113d25760ff600683015416806113c4575b9160ff8154169160018201548015155f146113b7576005905b92015490565b50600560028301546113b1565b506005820154421115611398565b5f9150819081908190565b9060088110156102b657801561157057600381146114fc576004811461148b5760061461140a5750505f90565b5f54604051630d47875d60e41b81526001600160a01b0392831660048201529160209183916024918391165afa908115610313575f91611457575b5061145160ff916115b1565b16101590565b90506020813d602011611483575b8161147260209383611352565b810103126101265751611451611445565b3d9150611465565b505f5460405163e899648560e01b81526001600160a01b039283166004820152925060209183916024918391165afa908115610313575f916114cc57501590565b90506020813d6020116114f4575b816114e760209383611352565b8101031261012657511590565b3d91506114da565b505f546040516370be957360e11b81526001600160a01b0392831660048201529160209183916024918391165afa908115610313575f9161153e575b50101590565b90506020813d602011611568575b8161155960209383611352565b8101031261012657515f611538565b3d915061154c565b505f54604051630d47875d60e41b81526001600160a01b0392831660048201529160209183916024918391165afa908115610313575f9161153e5750101590565b611d4c8110156115de576113888110156115d8576109c411156115d357600190565b600290565b50600390565b5060049056fe2aaaa3b782e9309331a4f512abe7f5178ee10d9d9c7f9970c97571184753277aa2646970667358221220df670044a646d6c291eaf6a2cdecd962141c5a0c7f850b9f808311a697397c3e64736f6c634300081e0033","linkReferences":{}},"methodIdentifiers":{"COMMITMENT_VALIDITY()":"837ae7c1","PROOF_VALIDITY_PERIOD()":"5bc9ab56","addTrustedVerifier(address)":"50a053cd","canProve(address,uint8,uint256)":"bfe9edbf","commitments(address,bytes32)":"8b1592b5","createCommitment(uint8,bytes32)":"e25da417","dao()":"4162169f","proofRequests(bytes32)":"c34cf5c7","proveEndorsementCount(uint256,bytes32)":"67d85991","proveNoDisputeLosses(bytes32)":"72fc3b46","proveScoreAbove(uint256,bytes32)":"ef9deb08","proveScoreInRange(uint256,uint256,bytes32)":"00533110","proveTrustTier(uint8,bytes32)":"2fe0b022","removeTrustedVerifier(address)":"801d2cf1","seer()":"2d55ea39","setSeer(address)":"e071c1c0","submitZKProof(bytes,bytes32[])":"08920aeb","trustedVerifiers(address)":"26319833","usedNonces(bytes32)":"feb61724","verifyProof(bytes32)":"b142b4ec"},"id":5}