{
  "_format": "hh-sol-artifact-1",
  "contractName": "UserVaultLite",
  "sourceName": "contracts/VaultHubLite.sol",
  "abi": [
    {
      "inputs": [
        {
          "internalType": "address",
          "name": "_hub",
          "type": "address"
        },
        {
          "internalType": "address",
          "name": "_vfide",
          "type": "address"
        },
        {
          "internalType": "address",
          "name": "_owner",
          "type": "address"
        }
      ],
      "stateMutability": "nonpayable",
      "type": "constructor"
    },
    {
      "inputs": [],
      "name": "AlreadyApproved",
      "type": "error"
    },
    {
      "inputs": [],
      "name": "CooldownActive",
      "type": "error"
    },
    {
      "inputs": [],
      "name": "InvalidAddress",
      "type": "error"
    },
    {
      "inputs": [],
      "name": "NoRecovery",
      "type": "error"
    },
    {
      "inputs": [],
      "name": "NotGuardian",
      "type": "error"
    },
    {
      "inputs": [],
      "name": "NotHub",
      "type": "error"
    },
    {
      "inputs": [],
      "name": "NotOwner",
      "type": "error"
    },
    {
      "inputs": [],
      "name": "RecoveryExpired",
      "type": "error"
    },
    {
      "inputs": [],
      "name": "ReentrancyGuardReentrantCall",
      "type": "error"
    },
    {
      "inputs": [
        {
          "internalType": "address",
          "name": "token",
          "type": "address"
        }
      ],
      "name": "SafeERC20FailedOperation",
      "type": "error"
    },
    {
      "anonymous": false,
      "inputs": [
        {
          "indexed": true,
          "internalType": "address",
          "name": "guardian",
          "type": "address"
        },
        {
          "indexed": false,
          "internalType": "uint8",
          "name": "slot",
          "type": "uint8"
        },
        {
          "indexed": false,
          "internalType": "bool",
          "name": "active",
          "type": "bool"
        }
      ],
      "name": "GuardianSet",
      "type": "event"
    },
    {
      "anonymous": false,
      "inputs": [
        {
          "indexed": true,
          "internalType": "address",
          "name": "newOwner",
          "type": "address"
        }
      ],
      "name": "OwnerChanged",
      "type": "event"
    },
    {
      "anonymous": false,
      "inputs": [
        {
          "indexed": true,
          "internalType": "address",
          "name": "guardian",
          "type": "address"
        }
      ],
      "name": "RecoveryApproved",
      "type": "event"
    },
    {
      "anonymous": false,
      "inputs": [
        {
          "indexed": true,
          "internalType": "address",
          "name": "newOwner",
          "type": "address"
        }
      ],
      "name": "RecoveryExecuted",
      "type": "event"
    },
    {
      "anonymous": false,
      "inputs": [
        {
          "indexed": true,
          "internalType": "address",
          "name": "candidate",
          "type": "address"
        }
      ],
      "name": "RecoveryStarted",
      "type": "event"
    },
    {
      "anonymous": false,
      "inputs": [
        {
          "indexed": true,
          "internalType": "address",
          "name": "to",
          "type": "address"
        },
        {
          "indexed": false,
          "internalType": "uint256",
          "name": "amount",
          "type": "uint256"
        }
      ],
      "name": "Transfer",
      "type": "event"
    },
    {
      "inputs": [],
      "name": "COOLDOWN",
      "outputs": [
        {
          "internalType": "uint64",
          "name": "",
          "type": "uint64"
        }
      ],
      "stateMutability": "view",
      "type": "function"
    },
    {
      "inputs": [],
      "name": "approveRecovery",
      "outputs": [],
      "stateMutability": "nonpayable",
      "type": "function"
    },
    {
      "inputs": [],
      "name": "balance",
      "outputs": [
        {
          "internalType": "uint256",
          "name": "",
          "type": "uint256"
        }
      ],
      "stateMutability": "view",
      "type": "function"
    },
    {
      "inputs": [],
      "name": "cancelRecovery",
      "outputs": [],
      "stateMutability": "nonpayable",
      "type": "function"
    },
    {
      "inputs": [],
      "name": "executeRecovery",
      "outputs": [],
      "stateMutability": "nonpayable",
      "type": "function"
    },
    {
      "inputs": [],
      "name": "guardianCount",
      "outputs": [
        {
          "internalType": "uint8",
          "name": "",
          "type": "uint8"
        }
      ],
      "stateMutability": "view",
      "type": "function"
    },
    {
      "inputs": [
        {
          "internalType": "uint256",
          "name": "",
          "type": "uint256"
        }
      ],
      "name": "guardians",
      "outputs": [
        {
          "internalType": "address",
          "name": "",
          "type": "address"
        }
      ],
      "stateMutability": "view",
      "type": "function"
    },
    {
      "inputs": [
        {
          "internalType": "address",
          "name": "",
          "type": "address"
        }
      ],
      "name": "hasApprovedRecovery",
      "outputs": [
        {
          "internalType": "bool",
          "name": "",
          "type": "bool"
        }
      ],
      "stateMutability": "view",
      "type": "function"
    },
    {
      "inputs": [],
      "name": "hub",
      "outputs": [
        {
          "internalType": "address",
          "name": "",
          "type": "address"
        }
      ],
      "stateMutability": "view",
      "type": "function"
    },
    {
      "inputs": [
        {
          "internalType": "address",
          "name": "addr",
          "type": "address"
        }
      ],
      "name": "isGuardian",
      "outputs": [
        {
          "internalType": "bool",
          "name": "",
          "type": "bool"
        }
      ],
      "stateMutability": "view",
      "type": "function"
    },
    {
      "inputs": [],
      "name": "lastWithdrawTime",
      "outputs": [
        {
          "internalType": "uint64",
          "name": "",
          "type": "uint64"
        }
      ],
      "stateMutability": "view",
      "type": "function"
    },
    {
      "inputs": [],
      "name": "owner",
      "outputs": [
        {
          "internalType": "address",
          "name": "",
          "type": "address"
        }
      ],
      "stateMutability": "view",
      "type": "function"
    },
    {
      "inputs": [],
      "name": "recoveryApprovals",
      "outputs": [
        {
          "internalType": "uint8",
          "name": "",
          "type": "uint8"
        }
      ],
      "stateMutability": "view",
      "type": "function"
    },
    {
      "inputs": [],
      "name": "recoveryCandidate",
      "outputs": [
        {
          "internalType": "address",
          "name": "",
          "type": "address"
        }
      ],
      "stateMutability": "view",
      "type": "function"
    },
    {
      "inputs": [],
      "name": "recoveryExpiry",
      "outputs": [
        {
          "internalType": "uint64",
          "name": "",
          "type": "uint64"
        }
      ],
      "stateMutability": "view",
      "type": "function"
    },
    {
      "inputs": [
        {
          "internalType": "uint8",
          "name": "slot",
          "type": "uint8"
        },
        {
          "internalType": "address",
          "name": "guardian",
          "type": "address"
        }
      ],
      "name": "setGuardian",
      "outputs": [],
      "stateMutability": "nonpayable",
      "type": "function"
    },
    {
      "inputs": [
        {
          "internalType": "address",
          "name": "candidate",
          "type": "address"
        }
      ],
      "name": "startRecovery",
      "outputs": [],
      "stateMutability": "nonpayable",
      "type": "function"
    },
    {
      "inputs": [
        {
          "internalType": "address",
          "name": "toVault",
          "type": "address"
        },
        {
          "internalType": "uint256",
          "name": "amount",
          "type": "uint256"
        }
      ],
      "name": "transfer",
      "outputs": [],
      "stateMutability": "nonpayable",
      "type": "function"
    },
    {
      "inputs": [],
      "name": "vfideToken",
      "outputs": [
        {
          "internalType": "address",
          "name": "",
          "type": "address"
        }
      ],
      "stateMutability": "view",
      "type": "function"
    },
    {
      "inputs": [
        {
          "internalType": "address payable",
          "name": "to",
          "type": "address"
        },
        {
          "internalType": "uint256",
          "name": "amount",
          "type": "uint256"
        }
      ],
      "name": "withdrawETH",
      "outputs": [],
      "stateMutability": "nonpayable",
      "type": "function"
    },
    {
      "stateMutability": "payable",
      "type": "receive"
    }
  ],
  "bytecode": "0x60c0346100da57601f610d8638819003918201601f19168301916001600160401b038311848410176100df578084926060946040528339810103126100da57610047816100f5565b906100606040610059602084016100f5565b92016100f5565b91600160005560805260a05260018060a01b03168060018060a01b03196001541617600155604051907fa2ea9883a321a3e97b8266c2b078bfeec6d50c711ed71f874a90d500ae2eaf36600080a2610c7c908161010a8239608051816109b9015260a051818181610464015281816104bf01526106300152f35b600080fd5b634e487b7160e01b600052604160045260246000fd5b51906001600160a01b03821682036100da5756fe608080604052600436101561001d575b50361561001b57600080fd5b005b60003560e01c9081630b6cb27114610aee575080630ba234d614610ab85780630c68ba2114610a8b57806320c5a3e1146109e8578063365a86fc146109a35780633e720c6e146109765780634782f7791461088a57806354387ad7146108695780638da5cb5b146108405780639eb548f314610714578063a2724a4d146106f7578063a9059cbb1461056b578063ab23151114610541578063b69ef8a814610493578063b8a71eec1461044e578063bd5021af146102d9578063c2dbba8e146102b2578063f560c7341461027c578063fbdd99901461023d5763fcae8d3814610106573861000f565b346102385760003660031901126102385761012033610b25565b156102275760055460081c6001600160a01b031615610216576001600160401b036007541642116102055733600052600660205260ff604060002054166101f4573360005260066020526040600020600160ff19825416179055600554600260ff8060a81b610193828560a81c16610b91565b60a81b168160a81b1984161780600555337f47032c9dbd3001ab3b46aa359314884f3f192d251eda3b26f0be4cffd76d39c5600080a260a81c16101590816101e5575b506101dd57005b61001b610ba2565b6002915060ff161015386101d6565b63080fc0bd60e11b60005260046000fd5b63d3c92b0d60e01b60005260046000fd5b63c993b99360e01b60005260046000fd5b6377b6878160e11b60005260046000fd5b600080fd5b34610238576020366003190112610238576001600160a01b0361025e610b0f565b166000526006602052602060ff604060002054166040519015158152f35b3461023857602036600319011261023857600435600381101561023857600201546040516001600160a01b039091168152602090f35b346102385760003660031901126102385760206001600160401b0360075416604051908152f35b34610238576020366003190112610238576102f2610b0f565b6102fb33610b25565b15610227576001600160a01b03811690811561043d5760058054610100600160b01b03191660089290921b610100600160a81b031691909117600160a81b1790554262093a808101908110610427576001600160401b03166001600160401b0319600754161760075560005b600360ff8216106103d957503360005260066020526040600020600160ff198254161790557fcd4e9df2b0a742bc5628c20baf55859f839c034aa76a32f600d6b085c4de4829600080a2337f47032c9dbd3001ab3b46aa359314884f3f192d251eda3b26f0be4cffd76d39c5600080a2005b60038110156104115760028101546001600160a01b03166000908152600660205260409020805460ff1916905560010160ff16610367565b634e487b7160e01b600052603260045260246000fd5b634e487b7160e01b600052601160045260246000fd5b63e6c4247b60e01b60005260046000fd5b34610238576000366003190112610238576040517f00000000000000000000000000000000000000000000000000000000000000006001600160a01b03168152602090f35b34610238576000366003190112610238576040516370a0823160e01b81523060048201526020816024817f00000000000000000000000000000000000000000000000000000000000000006001600160a01b03165afa801561053557600090610502575b602090604051908152f35b506020813d60201161052d575b8161051c60209383610b70565b8101031261023857602090516104f7565b3d915061050f565b6040513d6000823e3d90fd5b346102385760003660031901126102385760206001600160401b0360075460401c16604051908152f35b3461023857604036600319011261023857610584610b0f565b60015460243591906001600160a01b031633036106e6576105a3610c24565b6001600160a01b031690811561043d57600754610e106001600160401b038260401c16016001600160401b038111610427576001600160401b031642106106d55767ffffffffffffffff60401b191642604090811b67ffffffffffffffff60401b16919091176007555163a9059cbb60e01b602082810191825260248301859052604480840185905283527f00000000000000000000000000000000000000000000000000000000000000006001600160a01b0316929091600091610669606482610b70565b519082855af115610535576000513d6106cc5750803b155b6106b8575060207f69ca02dd4edd7bf0a4abb9ed3b7af3f14778db5d61921c7dc7cd545266326de291604051908152a26001600055005b635274afe760e01b60005260045260246000fd5b60011415610681565b63aa9a98df60e01b60005260046000fd5b6330cd747160e01b60005260046000fd5b34610238576000366003190112610238576020604051610e108152f35b346102385760403660031901126102385760043560ff8116808203610238576024356001600160a01b0381169290839003610238576001546001600160a01b031633036106e6576002821161043d5760038110156104115760020180546001600160a01b0316151580610838575b61080d575b80547fb5d1b8ac7ce189fd5a604959b3f88580ad7e6c67d1a12238b1aec90785dc39da9260409290916001600160a01b03161580610804575b6107e5575b80546001600160a01b0319168517905581519081528315156020820152a2005b60055460ff6107f5818316610b91565b169060ff1916176005556107c5565b508415156107c0565b6005549160ff83169182156104275760ff1990931660001990920160ff169190911760055590610787565b508215610782565b34610238576000366003190112610238576001546040516001600160a01b039091168152602090f35b3461023857600036600319011261023857602060ff60055416604051908152f35b34610238576040366003190112610238576004356001600160a01b03811690819003610238576001546001600160a01b031633036106e6576108ca610c24565b801561043d57600080808093602435905af13d15610971573d6001600160401b03811161095b5760405190610909601f8201601f191660200183610b70565b8152600060203d92013e5b15610920576001600055005b60405162461bcd60e51b8152602060048201526013602482015272115512081d1c985b9cd9995c8819985a5b1959606a1b6044820152606490fd5b634e487b7160e01b600052604160045260246000fd5b610914565b346102385760003660031901126102385760055460405160089190911c6001600160a01b03168152602090f35b34610238576000366003190112610238576040517f00000000000000000000000000000000000000000000000000000000000000006001600160a01b03168152602090f35b3461023857600036600319011261023857600554600881901c6001600160a01b031615610216576001600160401b0360075416421161020557600260ff821610610a815760ff8060025b169160a81c1610610a455761001b610ba2565b60405162461bcd60e51b81526020600482015260146024820152734e6f7420656e6f75676820617070726f76616c7360601b6044820152606490fd5b60ff806001610a32565b34610238576020366003190112610238576020610aae610aa9610b0f565b610b25565b6040519015158152f35b34610238576000366003190112610238576001546001600160a01b031633036106e65760058054610100600160b01b0319169055005b346102385760003660031901126102385760209060ff60055460a81c168152f35b600435906001600160a01b038216820361023857565b6002546001600160a01b0391821691168114908115610b5b575b8115610b49575090565b6004546001600160a01b031614919050565b6003546001600160a01b031681149150610b3f565b90601f801991011681019081106001600160401b0382111761095b57604052565b60ff1660ff81146104275760010190565b60058054610100600160b01b03198116909155600180546001600160a01b03191660089290921c6001600160a01b03169182179055807ffcd2de31341801b7fd80895c780aae50c1505fd674ff1b9b9764c56c633434d6600080a27fa2ea9883a321a3e97b8266c2b078bfeec6d50c711ed71f874a90d500ae2eaf36600080a2565b600260005414610c35576002600055565b633ee5aeb560e01b60005260046000fdfea2646970667358221220052caeb22bd089b90826712633775042547927e530c95e5182e7ae80673e7ccb64736f6c634300081e0033",
  "linkReferences": {},
  "deployedLinkReferences": {}
}