{
  "_format": "hh-sol-artifact-1",
  "contractName": "CouncilManager",
  "sourceName": "contracts/CouncilManager.sol",
  "abi": [
    {
      "inputs": [
        {
          "internalType": "address",
          "name": "_dao",
          "type": "address"
        },
        {
          "internalType": "address",
          "name": "_election",
          "type": "address"
        },
        {
          "internalType": "address",
          "name": "_seer",
          "type": "address"
        },
        {
          "internalType": "address",
          "name": "_ecosystemVault",
          "type": "address"
        },
        {
          "internalType": "address",
          "name": "_councilSalary",
          "type": "address"
        },
        {
          "internalType": "address",
          "name": "_token",
          "type": "address"
        }
      ],
      "stateMutability": "nonpayable",
      "type": "constructor"
    },
    {
      "inputs": [],
      "name": "CM_NotDAO",
      "type": "error"
    },
    {
      "inputs": [],
      "name": "CM_NotKeeper",
      "type": "error"
    },
    {
      "inputs": [],
      "name": "CM_Zero",
      "type": "error"
    },
    {
      "anonymous": false,
      "inputs": [
        {
          "indexed": true,
          "internalType": "address",
          "name": "keeper",
          "type": "address"
        },
        {
          "indexed": false,
          "internalType": "bool",
          "name": "authorized",
          "type": "bool"
        }
      ],
      "name": "KeeperSet",
      "type": "event"
    },
    {
      "anonymous": false,
      "inputs": [
        {
          "indexed": true,
          "internalType": "address",
          "name": "member",
          "type": "address"
        },
        {
          "indexed": false,
          "internalType": "uint256",
          "name": "daysBelow",
          "type": "uint256"
        },
        {
          "indexed": false,
          "internalType": "uint16",
          "name": "finalScore",
          "type": "uint16"
        }
      ],
      "name": "MemberAutoRemoved",
      "type": "event"
    },
    {
      "anonymous": false,
      "inputs": [
        {
          "indexed": true,
          "internalType": "address",
          "name": "member",
          "type": "address"
        },
        {
          "indexed": false,
          "internalType": "uint256",
          "name": "daysBelow",
          "type": "uint256"
        },
        {
          "indexed": false,
          "internalType": "uint16",
          "name": "currentScore",
          "type": "uint16"
        }
      ],
      "name": "MemberGracePeriod",
      "type": "event"
    },
    {
      "anonymous": false,
      "inputs": [
        {
          "indexed": false,
          "internalType": "address",
          "name": "election",
          "type": "address"
        },
        {
          "indexed": false,
          "internalType": "address",
          "name": "seer",
          "type": "address"
        },
        {
          "indexed": false,
          "internalType": "address",
          "name": "ecosystemVault",
          "type": "address"
        },
        {
          "indexed": false,
          "internalType": "address",
          "name": "councilSalary",
          "type": "address"
        }
      ],
      "name": "ModulesSet",
      "type": "event"
    },
    {
      "anonymous": false,
      "inputs": [
        {
          "indexed": false,
          "internalType": "uint256",
          "name": "opsAmount",
          "type": "uint256"
        },
        {
          "indexed": false,
          "internalType": "uint256",
          "name": "councilAmount",
          "type": "uint256"
        },
        {
          "indexed": false,
          "internalType": "uint256",
          "name": "timestamp",
          "type": "uint256"
        }
      ],
      "name": "PaymentDistributed",
      "type": "event"
    },
    {
      "anonymous": false,
      "inputs": [
        {
          "indexed": false,
          "internalType": "uint256",
          "name": "membersChecked",
          "type": "uint256"
        },
        {
          "indexed": false,
          "internalType": "uint256",
          "name": "membersRemoved",
          "type": "uint256"
        },
        {
          "indexed": false,
          "internalType": "uint256",
          "name": "timestamp",
          "type": "uint256"
        }
      ],
      "name": "ScoreCheckPerformed",
      "type": "event"
    },
    {
      "inputs": [],
      "name": "CHECK_INTERVAL",
      "outputs": [
        {
          "internalType": "uint256",
          "name": "",
          "type": "uint256"
        }
      ],
      "stateMutability": "view",
      "type": "function"
    },
    {
      "inputs": [],
      "name": "COUNCIL_MIN_SCORE",
      "outputs": [
        {
          "internalType": "uint16",
          "name": "",
          "type": "uint16"
        }
      ],
      "stateMutability": "view",
      "type": "function"
    },
    {
      "inputs": [],
      "name": "COUNCIL_PERCENTAGE",
      "outputs": [
        {
          "internalType": "uint256",
          "name": "",
          "type": "uint256"
        }
      ],
      "stateMutability": "view",
      "type": "function"
    },
    {
      "inputs": [],
      "name": "GRACE_PERIOD",
      "outputs": [
        {
          "internalType": "uint256",
          "name": "",
          "type": "uint256"
        }
      ],
      "stateMutability": "view",
      "type": "function"
    },
    {
      "inputs": [],
      "name": "OPS_PERCENTAGE",
      "outputs": [
        {
          "internalType": "uint256",
          "name": "",
          "type": "uint256"
        }
      ],
      "stateMutability": "view",
      "type": "function"
    },
    {
      "inputs": [],
      "name": "checkDailyScores",
      "outputs": [],
      "stateMutability": "nonpayable",
      "type": "function"
    },
    {
      "inputs": [
        {
          "internalType": "address",
          "name": "member",
          "type": "address"
        }
      ],
      "name": "checkMemberScore",
      "outputs": [],
      "stateMutability": "nonpayable",
      "type": "function"
    },
    {
      "inputs": [],
      "name": "councilSalary",
      "outputs": [
        {
          "internalType": "address",
          "name": "",
          "type": "address"
        }
      ],
      "stateMutability": "view",
      "type": "function"
    },
    {
      "inputs": [],
      "name": "dao",
      "outputs": [
        {
          "internalType": "address",
          "name": "",
          "type": "address"
        }
      ],
      "stateMutability": "view",
      "type": "function"
    },
    {
      "inputs": [
        {
          "internalType": "address",
          "name": "",
          "type": "address"
        }
      ],
      "name": "daysBelow700",
      "outputs": [
        {
          "internalType": "uint256",
          "name": "",
          "type": "uint256"
        }
      ],
      "stateMutability": "view",
      "type": "function"
    },
    {
      "inputs": [],
      "name": "distributePayments",
      "outputs": [],
      "stateMutability": "nonpayable",
      "type": "function"
    },
    {
      "inputs": [],
      "name": "ecosystemVault",
      "outputs": [
        {
          "internalType": "address",
          "name": "",
          "type": "address"
        }
      ],
      "stateMutability": "view",
      "type": "function"
    },
    {
      "inputs": [],
      "name": "election",
      "outputs": [
        {
          "internalType": "contract ICouncilElection",
          "name": "",
          "type": "address"
        }
      ],
      "stateMutability": "view",
      "type": "function"
    },
    {
      "inputs": [],
      "name": "forcePaymentDistribution",
      "outputs": [],
      "stateMutability": "nonpayable",
      "type": "function"
    },
    {
      "inputs": [
        {
          "internalType": "address",
          "name": "member",
          "type": "address"
        }
      ],
      "name": "getGracePeriodStatus",
      "outputs": [
        {
          "internalType": "uint256",
          "name": "daysBelow",
          "type": "uint256"
        },
        {
          "internalType": "uint256",
          "name": "lastCheck",
          "type": "uint256"
        },
        {
          "internalType": "uint16",
          "name": "currentScore",
          "type": "uint16"
        }
      ],
      "stateMutability": "view",
      "type": "function"
    },
    {
      "inputs": [],
      "name": "getMembersAtRisk",
      "outputs": [
        {
          "internalType": "address[]",
          "name": "membersAtRisk",
          "type": "address[]"
        },
        {
          "internalType": "uint256[]",
          "name": "daysBelowArray",
          "type": "uint256[]"
        },
        {
          "internalType": "uint16[]",
          "name": "scores",
          "type": "uint16[]"
        }
      ],
      "stateMutability": "view",
      "type": "function"
    },
    {
      "inputs": [],
      "name": "getPaymentPreview",
      "outputs": [
        {
          "internalType": "uint256",
          "name": "opsAmount",
          "type": "uint256"
        },
        {
          "internalType": "uint256",
          "name": "councilAmount",
          "type": "uint256"
        },
        {
          "internalType": "uint256",
          "name": "vaultBalance",
          "type": "uint256"
        }
      ],
      "stateMutability": "view",
      "type": "function"
    },
    {
      "inputs": [
        {
          "internalType": "address",
          "name": "",
          "type": "address"
        }
      ],
      "name": "isKeeper",
      "outputs": [
        {
          "internalType": "bool",
          "name": "",
          "type": "bool"
        }
      ],
      "stateMutability": "view",
      "type": "function"
    },
    {
      "inputs": [],
      "name": "isPaymentDue",
      "outputs": [
        {
          "internalType": "bool",
          "name": "isDue",
          "type": "bool"
        },
        {
          "internalType": "uint256",
          "name": "timeUntilNext",
          "type": "uint256"
        }
      ],
      "stateMutability": "view",
      "type": "function"
    },
    {
      "inputs": [
        {
          "internalType": "address",
          "name": "",
          "type": "address"
        }
      ],
      "name": "lastCheckTime",
      "outputs": [
        {
          "internalType": "uint256",
          "name": "",
          "type": "uint256"
        }
      ],
      "stateMutability": "view",
      "type": "function"
    },
    {
      "inputs": [],
      "name": "lastPaymentTime",
      "outputs": [
        {
          "internalType": "uint256",
          "name": "",
          "type": "uint256"
        }
      ],
      "stateMutability": "view",
      "type": "function"
    },
    {
      "inputs": [],
      "name": "paymentInterval",
      "outputs": [
        {
          "internalType": "uint256",
          "name": "",
          "type": "uint256"
        }
      ],
      "stateMutability": "view",
      "type": "function"
    },
    {
      "inputs": [
        {
          "internalType": "address",
          "name": "member",
          "type": "address"
        }
      ],
      "name": "resetGracePeriod",
      "outputs": [],
      "stateMutability": "nonpayable",
      "type": "function"
    },
    {
      "inputs": [],
      "name": "seer",
      "outputs": [
        {
          "internalType": "contract ISeer",
          "name": "",
          "type": "address"
        }
      ],
      "stateMutability": "view",
      "type": "function"
    },
    {
      "inputs": [
        {
          "internalType": "address",
          "name": "keeper",
          "type": "address"
        },
        {
          "internalType": "bool",
          "name": "authorized",
          "type": "bool"
        }
      ],
      "name": "setKeeper",
      "outputs": [],
      "stateMutability": "nonpayable",
      "type": "function"
    },
    {
      "inputs": [
        {
          "internalType": "address",
          "name": "_election",
          "type": "address"
        },
        {
          "internalType": "address",
          "name": "_seer",
          "type": "address"
        },
        {
          "internalType": "address",
          "name": "_ecosystemVault",
          "type": "address"
        },
        {
          "internalType": "address",
          "name": "_councilSalary",
          "type": "address"
        },
        {
          "internalType": "address",
          "name": "_token",
          "type": "address"
        }
      ],
      "name": "setModules",
      "outputs": [],
      "stateMutability": "nonpayable",
      "type": "function"
    },
    {
      "inputs": [
        {
          "internalType": "uint256",
          "name": "_interval",
          "type": "uint256"
        }
      ],
      "name": "setPaymentInterval",
      "outputs": [],
      "stateMutability": "nonpayable",
      "type": "function"
    },
    {
      "inputs": [],
      "name": "token",
      "outputs": [
        {
          "internalType": "contract IERC20",
          "name": "",
          "type": "address"
        }
      ],
      "stateMutability": "view",
      "type": "function"
    }
  ],
  "bytecode": "0x6080346101c657601f611b1a38819003918201601f19168301916001600160401b038311848410176101cb5780849260c0946040528339810103126101c657610047816101e1565b90610054602082016101e1565b91610061604083016101e1565b9061006e606084016101e1565b9261008760a0610080608084016101e1565b92016101e1565b600160005562278d00600b556001600160a01b0390921693841580156101b5575b80156101a4575b610182576001600160a01b03169081158015610193575b61018257600180546001600160a01b031990811690961790556002805486166001600160a01b03978816908117909155600380548716958816958617905560048054871684179055600580548716928816928317905560068054909616939096169290921790935542600a556040805194855260208501929092529083019190915260608201527f2ad69807131f242e4c6b9e21338b8d7d7d5f32ab1dfaa1eddfa881c305c8f5e790608090a160405161192490816101f68239f35b6369a9768560e11b60005260046000fd5b506001600160a01b038116156100c6565b506001600160a01b038416156100af565b506001600160a01b038616156100a8565b600080fd5b634e487b7160e01b600052604160045260246000fd5b51906001600160a01b03821682036101c65756fe6080604052600436101561001257600080fd5b6000803560e01c80631497b6c61461128e5780631a72a939146112725780631cc1cf46146112545780632d55ea391461122b578063386f97d4146112025780633d3b16d3146110705780634162169f146110475780634827f86f1461100e5780634b1d3ede14610fe55780636ba42aaa14610fa65780636ea33ceb14610f88578063753e2b7f14610e275780637f2dd05b14610d46578063840f21f214610a5e57806399c3c365146109a25780639a882e0f146109795780639e84500f14610940578063b2dbff9114610924578063b9f2c94d14610900578063c1a287e2146108e2578063d157f64514610863578063d1b9e853146107ca578063dd84b5f61461058e578063dfe607f914610570578063e9b2613c146101f0578063ef93e426146101d3578063fa6e67d31461017c5763fc0c546a1461015157600080fd5b346101795780600319360112610179576006546040516001600160a01b039091168152602090f35b80fd5b5034610179578060031936011261017957600a54600b54604092916101a18282611491565b42106101bb5750506001905b825191151582526020820152f35b6101c96101ce924292611491565b611374565b6101ad565b50346101795780600319360112610179576020604051611b588152f35b50346101795780600319360112610179576002546040516302b553e960e41b815291906001600160a01b0316602083600481845afa92831561056557829361052c575b509061023e83611416565b9061024884611416565b9361025281611416565b938291839160018060a01b0360035416925b8281106103c0575050505061027881611416565b9361028282611416565b9561028c83611416565b94845b84811061036057505050505060405193849360608501606086528151809152602060808701920190845b81811061033e57505050848103602086015260208083519283815201920190835b818110610325575050508381036040850152602080845192838152019301915b818110610308575050500390f35b825161ffff168452859450602093840193909201916001016102fa565b82518452879650602093840193909201916001016102da565b82516001600160a01b03168452889750602093840193909201916001016102b9565b969795966001906001600160a01b036103798285611467565b5116610385828c611467565b526103908185611467565b5161039b828a611467565b5261ffff6103a98287611467565b51166103b5828b611467565b52019796959761028f565b604051630def1ea960e31b81526004810182905297989697602081602481865afa9081156105215787916104f3575b506001600160a01b031680156104ea57604051630d47875d60e41b815260048101829052602081602481895afa9081156104df579061ffff9189916104b1575b50169089611b588310801561049a575b610455575b5050506001905b0197969597610264565b918188926104696001969a61049196611467565b52895260086020526040892054610480838c611467565b5261048b828d611467565b526113f0565b94903889610444565b50508088526008602052896040892054151561043f565b6104d2915060203d81116104d8575b6104ca8183611302565b8101906113d6565b3861042f565b503d6104c0565b6040513d8a823e3d90fd5b5060019061044b565b610514915060203d811161051a575b61050c8183611302565b810190611448565b386103ef565b503d610502565b6040513d89823e3d90fd5b9092506020813d60201161055d575b8161054860209383611302565b8101031261055857519138610233565b600080fd5b3d915061053b565b6040513d84823e3d90fd5b50346101795780600319360112610179576020600a54604051908152f35b50346101795780600319360112610179576105a7611889565b600181540361079857600281556105c3600a54600b5490611491565b421061076457600654600480546040516370a0823160e01b81526001600160a01b0391821692810183905291939260209183916024918391165afa908115610565578291610732575b5080159261061a8415611339565b603c820293828504603c14171561071e578261065c60647f0eb31d25061a658c1e8dfc8b152f209fd33a99d76fc7f163c0c0dd31110792b79596048094611374565b918215610700578190604051826020820191631e68b66560e21b835260406024820152600e60648201526d636f756e63696c5f73616c61727960901b6084820152866044820152608481526106b260a482611302565b51925af16106be611397565b50156106e4576106d56040519283924291846112ec565b0390a15b42600a556001815580f35b50606090604051908152836020820152426040820152a16106d9565b505050606090604051908152836020820152426040820152a16106d9565b634e487b7160e01b83526011600452602483fd5b90506020813d60201161075c575b8161074d60209383611302565b8101031261055857513861060c565b3d9150610740565b60405162461bcd60e51b815260206004820152600c60248201526b21a69d103a37b79039b7b7b760a11b6044820152606490fd5b60405162461bcd60e51b815260206004820152600a6024820152697265656e7472616e637960b01b6044820152606490fd5b5034610179576040366003190112610179576107e46112d6565b6024359081151580920361085f576107fa611864565b6001600160a01b03169081156108505760207f8dd62d4e1f60b96148552898e743aa2b571686baa26f4f1b647565dc3996c1a791838552600782526040852060ff1981541660ff8316179055604051908152a280f35b6369a9768560e11b8352600483fd5b8280fd5b503461017957602036600319011261017957600435610880611864565b62093a80811015806108d4575b1561089857600b5580f35b60405162461bcd60e51b815260206004820152601460248201527310d34e881a5b9d985b1a59081a5b9d195c9d985b60621b6044820152606490fd5b506301e1338081111561088d565b5034610179578060031936011261017957602060405162093a808152f35b5034610179578060031936011261017957610919611889565b61092161149e565b80f35b50346101795780600319360112610179576020604051603c8152f35b5034610179576020366003190112610179576020906040906001600160a01b036109686112d6565b168152600983522054604051908152f35b50346101795780600319360112610179576005546040516001600160a01b039091168152602090f35b5034610179576020366003190112610179576001600160a01b036109c46112d6565b16808252600860205260408220549080835260096020526040832054602060018060a01b036003541692602460405180958193630d47875d60e41b835260048301525afa918215610a53579061ffff929160609592610a32575b506040519384526020840152166040820152f35b610a4c91925060203d6020116104d8576104ca8183611302565b9038610a1e565b6040513d86823e3d90fd5b503461017957602036600319011261017957610a786112d6565b610a80611864565b6002546040516326a8d83b60e21b81526001600160a01b039283166004820181905292909160209183916024918391165afa908115610cc2578391610d0b575b5015610ccd57600354604051630d47875d60e41b81526004810183905290602090829060249082906001600160a01b03165afa908115610cc2578391610ca3575b508161ffff821691611b588310600014610c83577f77ccff14aca39331ad7b9ad54ee508da63c4b1ffe70c88b6b1aae3ff3f2f2f6890828652600860205260408620610b4d81546113f0565b9055828652600960205242604087205582865260086020526040862054610b8a6040519283928390929161ffff6020916040840195845216910152565b0390a28183526008602052600760408420541015610ba757505080f35b60025483906001600160a01b0316803b15610c7f57819060a4604051809481936302151fed60e51b835288600484015260406024840152602960448401527f4d616e75616c20636865636b3a2073636f72652062656c6f772037303020666f6064840152687220372b206461797360b81b60848401525af18015610a5357610c5a575b5060406000805160206118cf8339815191529183855260086020528482812055815190600782526020820152a280f35b83610c776000805160206118cf8339815191529395604093611302565b939150610c2a565b5080fd5b509050825260086020528160408120558152600960205242604082205580f35b610cbc915060203d6020116104d8576104ca8183611302565b38610b01565b6040513d85823e3d90fd5b60405162461bcd60e51b815260206004820152601660248201527521a69d103737ba1031b7bab731b4b61036b2b6b132b960511b6044820152606490fd5b90506020813d602011610d3e575b81610d2660209383611302565b8101031261085f5751801515810361085f5738610ac0565b3d9150610d19565b5034610179578060031936011261017957600654600480546040516370a0823160e01b81526001600160a01b039182169281019290925290929160209184916024918391165afa918215610e1a578192610de6575b50603c820290828204603c1483151715610dd2575060649004610dce610dc18284611374565b92604051938493846112ec565b0390f35b634e487b7160e01b81526011600452602490fd5b9091506020813d602011610e12575b81610e0260209383611302565b81010312610c7f57519038610d9b565b3d9150610df5565b50604051903d90823e3d90fd5b50346101795760a036600319011261017957610e416112d6565b6024356001600160a01b038116919082900361085f576044356001600160a01b03811690819003610f84576064356001600160a01b03811690819003610f80576084356001600160a01b0381169290839003610f7c577f2ad69807131f242e4c6b9e21338b8d7d7d5f32ab1dfaa1eddfa881c305c8f5e794608094610ec4611864565b6001600160a01b03169384610f65575b81610f4e575b82610f37575b83610f20575b80610f06575b50604051938452602084015260408301526060820152a180f35b600680546001600160a01b03191691909117905538610eec565b600580546001600160a01b03191685179055610ee6565b600480546001600160a01b03191684179055610ee0565b600380546001600160a01b03191683179055610eda565b600280546001600160a01b03191686179055610ed4565b8580fd5b8480fd5b8380fd5b50346101795780600319360112610179576020604051620151808152f35b50346101795760203660031901126101795760209060ff906040906001600160a01b03610fd16112d6565b168152600784522054166040519015158152f35b50346101795780600319360112610179576002546040516001600160a01b039091168152602090f35b5034610179576020366003190112610179576020906040906001600160a01b036110366112d6565b168152600883522054604051908152f35b50346101795780600319360112610179576001546040516001600160a01b039091168152602090f35b5034610179578060031936011261017957611089611864565b600654600480546040516370a0823160e01b81526001600160a01b0391821692810183905291939260209183916024918391165afa9081156105655782916111d0575b508015926110da8415611339565b603c820293828504603c14171561071e578261111c60647f0eb31d25061a658c1e8dfc8b152f209fd33a99d76fc7f163c0c0dd31110792b79596048094611374565b9182156111b2578190604051826020820191631e68b66560e21b8352604060248201526018606482015277636f756e63696c5f73616c6172795f656d657267656e637960401b60848201528660448201526084815261117c60a482611302565b51925af1611188611397565b50156111ab575b6111a06040519283924291846112ec565b0390a15b42600a5580f35b508261118f565b505050606090604051908152836020820152426040820152a16111a4565b90506020813d6020116111fa575b816111eb60209383611302565b81010312610c7f5751386110cc565b3d91506111de565b50346101795780600319360112610179576004546040516001600160a01b039091168152602090f35b50346101795780600319360112610179576003546040516001600160a01b039091168152602090f35b50346101795780600319360112610179576020600b54604051908152f35b5034610179578060031936011261017957602060405160288152f35b5034610179576020366003190112610179576112a86112d6565b6112b0611864565b60018060a01b031680825260086020528160408120558152600960205242604082205580f35b600435906001600160a01b038216820361055857565b6040919493926060820195825260208201520152565b90601f801991011681019081106001600160401b0382111761132357604052565b634e487b7160e01b600052604160045260246000fd5b1561134057565b60405162461bcd60e51b815260206004820152600c60248201526b434d3a206e6f2066756e647360a01b6044820152606490fd5b9190820391821161138157565b634e487b7160e01b600052601160045260246000fd5b3d156113d1573d906001600160401b03821161132357604051916113c5601f8201601f191660200184611302565b82523d6000602084013e565b606090565b90816020910312610558575161ffff811681036105585790565b60001981146113815760010190565b6001600160401b0381116113235760051b60200190565b90611420826113ff565b61142d6040519182611302565b828152809261143e601f19916113ff565b0190602036910137565b9081602091031261055857516001600160a01b03811681036105585790565b805182101561147b5760209160051b010190565b634e487b7160e01b600052603260045260246000fd5b9190820180921161138157565b6002546040516302b553e960e41b81526001600160a01b039091169190602081600481865afa9081156117a357600091611832575b50801561182d5760009081936114e882611416565b90835b8381106117b9575050825b828110611539575050507f47171435c3294a432fde24a20309a16914989c15ae0fd650617b880b3b1bd44e91926115346040519283924291846112ec565b0390a1565b6001600160a01b0361154b8284611467565b51169384156117af578460005260096020526040600020546201518081018091116113815742106117af5761157f906113f0565b936024602060018060a01b036003541660405192838092630d47875d60e41b82528660048301525afa9081156117a357600091611785575b5061ffff811690611b58821015611742577f77ccff14aca39331ad7b9ad54ee508da63c4b1ffe70c88b6b1aae3ff3f2f2f688391826000526008602052604060002061160381546113f0565b90556000838152600960209081526040808320429055600882529182902054825190815261ffff939093169083015290a281600052600860205260076040600020541015611658575b50506001905b016114f6565b6002546001600160a01b0316803b15610558576000809160a4604051809481936302151fed60e51b835288600484015260406024840152603060448401527f50726f6f6653636f72652062656c6f77203730303020666f7220372b2064617960648401526f7320286175746f2d72656d6f76616c2960801b60848401525af19081611731575b506116fc575b5060009081526008602052604081205560013861164c565b9690806000805160206118cf833981519152604061171c600196956113f0565b9a815190600782526020820152a290916116e4565b600061173c91611302565b386116de565b505090816001926000526008602052604060002054611770575b600052600960205242604060002055611652565b8060005260086020526000604081205561175c565b61179d915060203d81116104d8576104ca8183611302565b386115b7565b6040513d6000823e3d90fd5b9350600190611652565b604051630def1ea960e31b815260048101829052602081602481865afa9081156118225790600192918791611804575b506117f48286611467565b90838060a01b03169052016114eb565b61181c915060203d811161051a5761050c8183611302565b386117e9565b6040513d88823e3d90fd5b509050565b906020823d60201161185c575b8161184c60209383611302565b81010312610179575051386114d3565b3d915061183f565b6001546001600160a01b0316330361187857565b631700faff60e01b60005260046000fd5b33600052600760205260ff6040600020541615806118b9575b6118a857565b63693a3a7760e01b60005260046000fd5b506001546001600160a01b03163314156118a256fe02ea5c2e20d20fed01018d7171f336ad7533d0f253e76d04639e378afd02b6e5a264697066735822122075e66eeadd4fcd8ff04fe4c66d1c5b9390f826a4bf9259b051eeddf6b6595c2564736f6c634300081e0033",
  "linkReferences": {},
  "deployedLinkReferences": {}
}