{"abi":[{"type":"constructor","inputs":[{"name":"_ecosystemVault","type":"address","internalType":"address"},{"name":"_dao","type":"address","internalType":"address"}],"stateMutability":"nonpayable"},{"type":"function","name":"acceptOwnership","inputs":[],"outputs":[],"stateMutability":"nonpayable"},{"type":"function","name":"cancelOwnershipTransfer","inputs":[],"outputs":[],"stateMutability":"nonpayable"},{"type":"function","name":"claimRewards","inputs":[],"outputs":[],"stateMutability":"nonpayable"},{"type":"function","name":"dao","inputs":[],"outputs":[{"name":"","type":"address","internalType":"address"}],"stateMutability":"view"},{"type":"function","name":"ecosystemVault","inputs":[],"outputs":[{"name":"","type":"address","internalType":"contract IEcosystemVault"}],"stateMutability":"view"},{"type":"function","name":"onFinalized","inputs":[{"name":"","type":"uint256","internalType":"uint256"},{"name":"","type":"bool","internalType":"bool"}],"outputs":[],"stateMutability":"nonpayable"},{"type":"function","name":"onProposalQueued","inputs":[{"name":"","type":"uint256","internalType":"uint256"},{"name":"","type":"address","internalType":"address"},{"name":"","type":"uint256","internalType":"uint256"}],"outputs":[],"stateMutability":"nonpayable"},{"type":"function","name":"onVoteCast","inputs":[{"name":"","type":"uint256","internalType":"uint256"},{"name":"voter","type":"address","internalType":"address"},{"name":"","type":"bool","internalType":"bool"}],"outputs":[],"stateMutability":"nonpayable"},{"type":"function","name":"owner","inputs":[],"outputs":[{"name":"","type":"address","internalType":"address"}],"stateMutability":"view"},{"type":"function","name":"pendingOwner","inputs":[],"outputs":[{"name":"","type":"address","internalType":"address"}],"stateMutability":"view"},{"type":"function","name":"pointsPerVote","inputs":[],"outputs":[{"name":"","type":"uint256","internalType":"uint256"}],"stateMutability":"view"},{"type":"function","name":"rewardPerPoint","inputs":[],"outputs":[{"name":"","type":"uint256","internalType":"uint256"}],"stateMutability":"view"},{"type":"function","name":"setParams","inputs":[{"name":"_pointsPerVote","type":"uint256","internalType":"uint256"},{"name":"_rewardPerPoint","type":"uint256","internalType":"uint256"}],"outputs":[],"stateMutability":"nonpayable"},{"type":"function","name":"totalPoints","inputs":[],"outputs":[{"name":"","type":"uint256","internalType":"uint256"}],"stateMutability":"view"},{"type":"function","name":"transferOwnership","inputs":[{"name":"newOwner","type":"address","internalType":"address"}],"outputs":[],"stateMutability":"nonpayable"},{"type":"function","name":"userPoints","inputs":[{"name":"","type":"address","internalType":"address"}],"outputs":[{"name":"","type":"uint256","internalType":"uint256"}],"stateMutability":"view"},{"type":"event","name":"DutyPointsEarned","inputs":[{"name":"user","type":"address","indexed":true,"internalType":"address"},{"name":"points","type":"uint256","indexed":false,"internalType":"uint256"},{"name":"reason","type":"string","indexed":false,"internalType":"string"}],"anonymous":false},{"type":"event","name":"EpochClosed","inputs":[{"name":"epochId","type":"uint256","indexed":false,"internalType":"uint256"},{"name":"totalPoints","type":"uint256","indexed":false,"internalType":"uint256"}],"anonymous":false},{"type":"event","name":"OwnershipTransferStarted","inputs":[{"name":"previousOwner","type":"address","indexed":true,"internalType":"address"},{"name":"newOwner","type":"address","indexed":true,"internalType":"address"}],"anonymous":false},{"type":"event","name":"OwnershipTransferred","inputs":[{"name":"previousOwner","type":"address","indexed":true,"internalType":"address"},{"name":"newOwner","type":"address","indexed":true,"internalType":"address"}],"anonymous":false},{"type":"event","name":"RewardsClaimed","inputs":[{"name":"user","type":"address","indexed":true,"internalType":"address"},{"name":"amount","type":"uint256","indexed":false,"internalType":"uint256"}],"anonymous":false}],"bytecode":{"object":"0x6080346100da57601f61081938819003918201601f19168301916001600160401b038311848410176100de5780849260409485528339810103126100da57610052602061004b836100f2565b92016100f2565b5f80546001600160a01b03191633908117825560405193917f8be0079c531659141344cd1fd0a4f28419497f9722a3daafe3b4186f6b6457e08180a3600a600655670de0b6b3a7640000600755600280546001600160a01b039283166001600160a01b0319918216179091556003805493909216921691909117905561071290816101078239f35b5f80fd5b634e487b7160e01b5f52604160045260245ffd5b51906001600160a01b03821682036100da5756fe60806040526004361015610011575f80fd5b5f5f3560e01c806323452b9c146105cf5780632be94e4a146105b2578063372500ab14610447578063386f97d41461041e5780634162169f146103f5578063567142be146103d7578063717d8bc3146103bd57806379ba5097146103135780638da5cb5b146102ec578063b6876dd614610241578063c0324c7714610218578063ce0c6abe146101fa578063e30c3978146101d1578063e5b2f79b146101ab578063f2fde38b146101055763f50ddbc7146100ca575f80fd5b34610102576020366003190112610102576020906040906001600160a01b036100f161062d565b168152600483522054604051908152f35b80fd5b50346101025760203660031901126101025761011f61062d565b610127610650565b6001600160a01b0316801561017a57600180546001600160a01b0319168217905581546001600160a01b03167f38d16b8cac22d99fc7c124b9cd0de2d3fa1faef420bfe791d8c362d765e227008380a380f35b60405162461bcd60e51b81526020600482015260096024820152684f574e3a207a65726f60b81b6044820152606490fd5b5034610102576060366003190112610102576101c5610617565b506101ce610699565b80f35b50346101025780600319360112610102576001546040516001600160a01b039091168152602090f35b50346101025780600319360112610102576020600754604051908152f35b503461010257604036600319011261010257610232610650565b60043560065560243560075580f35b50346101025760603660031901126101025761025b610617565b610263610608565b5061026c610699565b6006549060018060a01b031690818352600460205261029060408420918254610643565b90557f24329b66edc08a5399c895e6279d52d598d6780c66b960acd7d1755722a2400660806006546102c481600554610643565b600555604051908152604060208201526004604082015263766f746560e01b6060820152a280f35b5034610102578060031936011261010257546040516001600160a01b039091168152602090f35b50346101025780600319360112610102576001546001600160a01b038116330361037f578154336001600160a01b0382167f8be0079c531659141344cd1fd0a4f28419497f9722a3daafe3b4186f6b6457e08580a36001600160a01b0319908116331783551660015580f35b60405162461bcd60e51b815260206004820152601660248201527527aba71d103737ba103832b73234b7339037bbb732b960511b6044820152606490fd5b5034610102576040366003190112610102576101c56105f9565b50346101025780600319360112610102576020600554604051908152f35b50346101025780600319360112610102576003546040516001600160a01b039091168152602090f35b50346101025780600319360112610102576002546040516001600160a01b039091168152602090f35b5034610569575f36600319011261056957335f52600460205260405f205480156105815760075490818102918183040361056d57335f5260046020525f604081205560055490810390811161056d576005556002546001600160a01b0316803b15610569575f809160a46040518094819363633a109f60e01b835233600484015287602484015260606044840152600b60648401526a191d5d1e57dc995dd85c9960aa1b60848401525af1801561055e5761052d575b506040519081527ffc30cddea38e2bf4d6ea7d3f9ed3b6ad7f176419f4963bd81318067a4aee73fe60203392a280f35b90915067ffffffffffffffff811161054a576040525f905f6104fd565b634e487b7160e01b5f52604160045260245ffd5b6040513d5f823e3d90fd5b5f80fd5b634e487b7160e01b5f52601160045260245ffd5b60405162461bcd60e51b81526020600482015260096024820152686e6f20706f696e747360b81b6044820152606490fd5b34610569575f366003190112610569576020600654604051908152f35b34610569575f366003190112610569576105e7610650565b600180546001600160a01b0319169055005b60243590811515820361056957565b60443590811515820361056957565b602435906001600160a01b038216820361056957565b600435906001600160a01b038216820361056957565b9190820180921161056d57565b5f546001600160a01b0316330361066357565b60405162461bcd60e51b815260206004820152600e60248201526d27aba71d103737ba1037bbb732b960911b6044820152606490fd5b6003546001600160a01b031633036106ad57565b60405162461bcd60e51b81526020600482015260076024820152666e6f742064616f60c81b6044820152606490fdfea2646970667358221220452f2d770c01bd22140dfe10c1754d4d352aaf5ee97cf7b95459f8e21a55c2eb64736f6c634300081e0033","linkReferences":{}},"methodIdentifiers":{"acceptOwnership()":"79ba5097","cancelOwnershipTransfer()":"23452b9c","claimRewards()":"372500ab","dao()":"4162169f","ecosystemVault()":"386f97d4","onFinalized(uint256,bool)":"717d8bc3","onProposalQueued(uint256,address,uint256)":"e5b2f79b","onVoteCast(uint256,address,bool)":"b6876dd6","owner()":"8da5cb5b","pendingOwner()":"e30c3978","pointsPerVote()":"2be94e4a","rewardPerPoint()":"ce0c6abe","setParams(uint256,uint256)":"c0324c77","totalPoints()":"567142be","transferOwnership(address)":"f2fde38b","userPoints(address)":"f50ddbc7"},"id":9}