{"abi":[{"type":"constructor","inputs":[{"name":"_ecosystemVault","type":"address","internalType":"address"},{"name":"_dao","type":"address","internalType":"address"}],"stateMutability":"nonpayable"},{"type":"function","name":"acceptOwnership","inputs":[],"outputs":[],"stateMutability":"nonpayable"},{"type":"function","name":"cancelOwnershipTransfer","inputs":[],"outputs":[],"stateMutability":"nonpayable"},{"type":"function","name":"claimRewards","inputs":[],"outputs":[],"stateMutability":"nonpayable"},{"type":"function","name":"dailyRewardCap","inputs":[],"outputs":[{"name":"","type":"uint256","internalType":"uint256"}],"stateMutability":"view"},{"type":"function","name":"dailyRewardsPaid","inputs":[],"outputs":[{"name":"","type":"uint256","internalType":"uint256"}],"stateMutability":"view"},{"type":"function","name":"dao","inputs":[],"outputs":[{"name":"","type":"address","internalType":"address"}],"stateMutability":"view"},{"type":"function","name":"ecosystemVault","inputs":[],"outputs":[{"name":"","type":"address","internalType":"contract IEcosystemVault"}],"stateMutability":"view"},{"type":"function","name":"lastRewardResetDay","inputs":[],"outputs":[{"name":"","type":"uint256","internalType":"uint256"}],"stateMutability":"view"},{"type":"function","name":"maxPointsPerUser","inputs":[],"outputs":[{"name":"","type":"uint256","internalType":"uint256"}],"stateMutability":"view"},{"type":"function","name":"maxRewardPerClaim","inputs":[],"outputs":[{"name":"","type":"uint256","internalType":"uint256"}],"stateMutability":"view"},{"type":"function","name":"onFinalized","inputs":[{"name":"","type":"uint256","internalType":"uint256"},{"name":"","type":"bool","internalType":"bool"}],"outputs":[],"stateMutability":"nonpayable"},{"type":"function","name":"onProposalQueued","inputs":[{"name":"","type":"uint256","internalType":"uint256"},{"name":"","type":"address","internalType":"address"},{"name":"","type":"uint256","internalType":"uint256"}],"outputs":[],"stateMutability":"nonpayable"},{"type":"function","name":"onVoteCast","inputs":[{"name":"","type":"uint256","internalType":"uint256"},{"name":"voter","type":"address","internalType":"address"},{"name":"","type":"bool","internalType":"bool"}],"outputs":[],"stateMutability":"nonpayable"},{"type":"function","name":"owner","inputs":[],"outputs":[{"name":"","type":"address","internalType":"address"}],"stateMutability":"view"},{"type":"function","name":"pendingOwner","inputs":[],"outputs":[{"name":"","type":"address","internalType":"address"}],"stateMutability":"view"},{"type":"function","name":"pointsPerVote","inputs":[],"outputs":[{"name":"","type":"uint256","internalType":"uint256"}],"stateMutability":"view"},{"type":"function","name":"rewardPerPoint","inputs":[],"outputs":[{"name":"","type":"uint256","internalType":"uint256"}],"stateMutability":"view"},{"type":"function","name":"setParams","inputs":[{"name":"_pointsPerVote","type":"uint256","internalType":"uint256"},{"name":"_rewardPerPoint","type":"uint256","internalType":"uint256"}],"outputs":[],"stateMutability":"nonpayable"},{"type":"function","name":"setRewardCaps","inputs":[{"name":"_maxPerClaim","type":"uint256","internalType":"uint256"},{"name":"_maxPointsPerUser","type":"uint256","internalType":"uint256"},{"name":"_dailyCap","type":"uint256","internalType":"uint256"}],"outputs":[],"stateMutability":"nonpayable"},{"type":"function","name":"totalPoints","inputs":[],"outputs":[{"name":"","type":"uint256","internalType":"uint256"}],"stateMutability":"view"},{"type":"function","name":"transferOwnership","inputs":[{"name":"newOwner","type":"address","internalType":"address"}],"outputs":[],"stateMutability":"nonpayable"},{"type":"function","name":"userPoints","inputs":[{"name":"","type":"address","internalType":"address"}],"outputs":[{"name":"","type":"uint256","internalType":"uint256"}],"stateMutability":"view"},{"type":"event","name":"DutyPointsEarned","inputs":[{"name":"user","type":"address","indexed":true,"internalType":"address"},{"name":"points","type":"uint256","indexed":false,"internalType":"uint256"},{"name":"reason","type":"string","indexed":false,"internalType":"string"}],"anonymous":false},{"type":"event","name":"EpochClosed","inputs":[{"name":"epochId","type":"uint256","indexed":false,"internalType":"uint256"},{"name":"totalPoints","type":"uint256","indexed":false,"internalType":"uint256"}],"anonymous":false},{"type":"event","name":"OwnershipTransferStarted","inputs":[{"name":"previousOwner","type":"address","indexed":true,"internalType":"address"},{"name":"newOwner","type":"address","indexed":true,"internalType":"address"}],"anonymous":false},{"type":"event","name":"OwnershipTransferred","inputs":[{"name":"previousOwner","type":"address","indexed":true,"internalType":"address"},{"name":"newOwner","type":"address","indexed":true,"internalType":"address"}],"anonymous":false},{"type":"event","name":"RewardsClaimed","inputs":[{"name":"user","type":"address","indexed":true,"internalType":"address"},{"name":"amount","type":"uint256","indexed":false,"internalType":"uint256"}],"anonymous":false}],"bytecode":{"object":"0x6080346100fd57601f610a9038819003918201601f19168301916001600160401b038311848410176101015780849260409485528339810103126100fd57610052602061004b83610115565b9201610115565b5f80546001600160a01b03191633908117825560405193917f8be0079c531659141344cd1fd0a4f28419497f9722a3daafe3b4186f6b6457e08180a3600a6006819055670de0b6b3a764000060075569021e19e0c9bab240000060085561271060095569152d02c7e14af68000009055600280546001600160a01b039283166001600160a01b03199182161790915560038054939092169216919091179055610966908161012a8239f35b5f80fd5b634e487b7160e01b5f52604160045260245ffd5b51906001600160a01b03821682036100fd5756fe6080806040526004361015610012575f80fd5b5f905f3560e01c908162a9cb1b146108085750806323452b9c146107de5780632be94e4a146107c1578063372500ab1461055b578063386f97d4146105325780634162169f14610509578063567142be146104eb578063717d8bc3146104d157806379ba5097146104275780638da5cb5b146104005780638f2dabfb146103e25780639c2bf4b2146103b3578063a954aa3014610395578063b1d0b22f14610377578063b6876dd6146102a4578063c0324c771461027b578063ce0c6abe1461025d578063d312c4e81461023f578063e30c397814610216578063e5b2f79b146101f0578063f2fde38b1461014a5763f50ddbc71461010f575f80fd5b34610147576020366003190112610147576020906040906001600160a01b03610136610856565b168152600483522054604051908152f35b80fd5b503461014757602036600319011261014757610164610856565b61016c6108a4565b6001600160a01b031680156101bf57600180546001600160a01b0319168217905581546001600160a01b03167f38d16b8cac22d99fc7c124b9cd0de2d3fa1faef420bfe791d8c362d765e227008380a380f35b60405162461bcd60e51b81526020600482015260096024820152684f574e3a207a65726f60b81b6044820152606490fd5b50346101475760603660031901126101475761020a610840565b506102136108ed565b80f35b50346101475780600319360112610147576001546040516001600160a01b039091168152602090f35b50346101475780600319360112610147576020600854604051908152f35b50346101475780600319360112610147576020600754604051908152f35b5034610147576040366003190112610147576102956108a4565b60043560065560243560075580f35b5034610147576060366003190112610147576102be610840565b6102c6610831565b506102cf6108ed565b6001600160a01b031680825260046020526040822054600654906102f490829061088a565b6009541015610301578280f35b81835260046020526103186040842091825461088a565b90557f24329b66edc08a5399c895e6279d52d598d6780c66b960acd7d1755722a24006608060065461034c8160055461088a565b600555604051908152604060208201526004604082015263766f746560e01b6060820152a25f808280f35b50346101475780600319360112610147576020600a54604051908152f35b50346101475780600319360112610147576020600b54604051908152f35b5034610147576060366003190112610147576103cd6108a4565b600435600855602435600955604435600a5580f35b50346101475780600319360112610147576020600c54604051908152f35b5034610147578060031936011261014757546040516001600160a01b039091168152602090f35b50346101475780600319360112610147576001546001600160a01b0381163303610493578154336001600160a01b0382167f8be0079c531659141344cd1fd0a4f28419497f9722a3daafe3b4186f6b6457e08580a36001600160a01b0319908116331783551660015580f35b60405162461bcd60e51b815260206004820152601660248201527527aba71d103737ba103832b73234b7339037bbb732b960511b6044820152606490fd5b50346101475760403660031901126101475761020a610822565b50346101475780600319360112610147576020600554604051908152f35b50346101475780600319360112610147576003546040516001600160a01b039091168152602090f35b50346101475780600319360112610147576002546040516001600160a01b039091168152602090f35b50346106ce575f3660031901126106ce57335f52600460205260405f205480156107905760075490818102818104830361077c5780919060085480911161075a575b50620151804204600c54811161074d575b50600b54926105bd838561088a565b600a548091116106d2575b50506105d8826105fc939461088a565b600b55335f52600460205260405f206105f2828254610897565b9055600554610897565b6005556002546001600160a01b0316803b156106ce575f809160a46040518094819363633a109f60e01b835233600484015287602484015260606044840152600b60648401526a191d5d1e57dc995dd85c9960aa1b60848401525af180156106c357610693575b506040519081527ffc30cddea38e2bf4d6ea7d3f9ed3b6ad7f176419f4963bd81318067a4aee73fe60203392a280f35b9091506001600160401b0381116106af576040525f905f610663565b634e487b7160e01b5f52604160045260245ffd5b6040513d5f823e3d90fd5b5f80fd5b849193506106e09250610897565b91821561070f576106f46105fc928461086c565b838115610706575b92819294506105c8565b600191506106fc565b60405162461bcd60e51b815260206004820152601660248201527511110e8819185a5b1e4818d85c08195e18d95959195960521b6044820152606490fd5b5f600b55600c555f6105ae565b915050610767828261086c565b8015610774575b5f61059d565b50600161076e565b634e487b7160e01b5f52601160045260245ffd5b60405162461bcd60e51b81526020600482015260096024820152686e6f20706f696e747360b81b6044820152606490fd5b346106ce575f3660031901126106ce576020600654604051908152f35b346106ce575f3660031901126106ce576107f66108a4565b600180546001600160a01b0319169055005b346106ce575f3660031901126106ce576020906009548152f35b6024359081151582036106ce57565b6044359081151582036106ce57565b602435906001600160a01b03821682036106ce57565b600435906001600160a01b03821682036106ce57565b8115610876570490565b634e487b7160e01b5f52601260045260245ffd5b9190820180921161077c57565b9190820391821161077c57565b5f546001600160a01b031633036108b757565b60405162461bcd60e51b815260206004820152600e60248201526d27aba71d103737ba1037bbb732b960911b6044820152606490fd5b6003546001600160a01b0316330361090157565b60405162461bcd60e51b81526020600482015260076024820152666e6f742064616f60c81b6044820152606490fdfea2646970667358221220d549317d44dbc89b9c6eaa756cb489f2e3a957ea76b87967bcda8b719c77d1eb64736f6c634300081e0033","linkReferences":{}},"methodIdentifiers":{"acceptOwnership()":"79ba5097","cancelOwnershipTransfer()":"23452b9c","claimRewards()":"372500ab","dailyRewardCap()":"b1d0b22f","dailyRewardsPaid()":"a954aa30","dao()":"4162169f","ecosystemVault()":"386f97d4","lastRewardResetDay()":"8f2dabfb","maxPointsPerUser()":"00a9cb1b","maxRewardPerClaim()":"d312c4e8","onFinalized(uint256,bool)":"717d8bc3","onProposalQueued(uint256,address,uint256)":"e5b2f79b","onVoteCast(uint256,address,bool)":"b6876dd6","owner()":"8da5cb5b","pendingOwner()":"e30c3978","pointsPerVote()":"2be94e4a","rewardPerPoint()":"ce0c6abe","setParams(uint256,uint256)":"c0324c77","setRewardCaps(uint256,uint256,uint256)":"9c2bf4b2","totalPoints()":"567142be","transferOwnership(address)":"f2fde38b","userPoints(address)":"f50ddbc7"},"id":10}