{"abi":[{"type":"constructor","inputs":[{"name":"_dao","type":"address","internalType":"address"}],"stateMutability":"nonpayable"},{"type":"function","name":"dao","inputs":[],"outputs":[{"name":"","type":"address","internalType":"address"}],"stateMutability":"view"},{"type":"function","name":"logEvent","inputs":[{"name":"who","type":"address","internalType":"address"},{"name":"action","type":"string","internalType":"string"},{"name":"amount","type":"uint256","internalType":"uint256"},{"name":"note","type":"string","internalType":"string"}],"outputs":[],"stateMutability":"nonpayable"},{"type":"function","name":"logSystemEvent","inputs":[{"name":"who","type":"address","internalType":"address"},{"name":"action","type":"string","internalType":"string"},{"name":"by","type":"address","internalType":"address"}],"outputs":[],"stateMutability":"nonpayable"},{"type":"function","name":"logTransfer","inputs":[{"name":"from","type":"address","internalType":"address"},{"name":"to","type":"address","internalType":"address"},{"name":"amount","type":"uint256","internalType":"uint256"},{"name":"context","type":"string","internalType":"string"}],"outputs":[],"stateMutability":"nonpayable"},{"type":"function","name":"setDAO","inputs":[{"name":"_dao","type":"address","internalType":"address"}],"outputs":[],"stateMutability":"nonpayable"},{"type":"event","name":"EventLog","inputs":[{"name":"who","type":"address","indexed":true,"internalType":"address"},{"name":"action","type":"string","indexed":false,"internalType":"string"},{"name":"amount","type":"uint256","indexed":false,"internalType":"uint256"},{"name":"note","type":"string","indexed":false,"internalType":"string"}],"anonymous":false},{"type":"event","name":"SystemEvent","inputs":[{"name":"who","type":"address","indexed":true,"internalType":"address"},{"name":"action","type":"string","indexed":false,"internalType":"string"},{"name":"by","type":"address","indexed":true,"internalType":"address"}],"anonymous":false},{"type":"event","name":"TransferLog","inputs":[{"name":"from","type":"address","indexed":true,"internalType":"address"},{"name":"to","type":"address","indexed":true,"internalType":"address"},{"name":"amount","type":"uint256","indexed":false,"internalType":"uint256"},{"name":"context","type":"string","indexed":false,"internalType":"string"}],"anonymous":false},{"type":"error","name":"TRUST_NotDAO","inputs":[]},{"type":"error","name":"TRUST_Zero","inputs":[]}],"bytecode":{"object":"0x608034608357601f61040638819003918201601f19168301916001600160401b03831184841017608757808492602094604052833981010312608357516001600160a01b0381169081900360835780156074575f80546001600160a01b03191691909117905560405161036a908161009c8239f35b630409728b60e41b5f5260045ffd5b5f80fd5b634e487b7160e01b5f52604160045260245ffdfe6080806040526004361015610012575f80fd5b5f3560e01c908163276106f51461023b575080634162169f14610214578063c0f0a1c014610157578063e73a914c146100ee5763f77586ac14610053575f80fd5b346100ea5760603660031901126100ea5761006c6102d1565b6024356001600160401b0381116100ea5761008b9036906004016102e7565b6044356001600160a01b038116939192908490036100ea577f1a254b95291997071a4582bee323d047f414a3f618cb146768b2e38b85109a3d916100e56040519283926020845260018060a01b0316956020840191610314565b0390a3005b5f80fd5b346100ea5760203660031901126100ea576101076102d1565b5f54906001600160a01b0382163303610148576001600160a01b0316908115610139576001600160a01b031916175f55005b630409728b60e41b5f5260045ffd5b63483e517d60e01b5f5260045ffd5b346100ea5760803660031901126100ea576101706102d1565b6024356001600160401b0381116100ea5761018f9036906004016102e7565b90606435916001600160401b0383116100ea5761020f6101d47f689f31f83a7057622aa12f7a5dedc955f8286fc84b4fa19f18f2c2ffdeaebbf19436906004016102e7565b6101ee604097929751958695606087526060870191610314565b604435602086015284810360408601526001600160a01b0390921696610314565b0390a2005b346100ea575f3660031901126100ea575f546040516001600160a01b039091168152602090f35b346100ea5760803660031901126100ea576102546102d1565b6024356001600160a01b03811692908390036100ea57606435906001600160401b0382116100ea57806100e56102af7f2a366b3ee4078bd080547790edaeb9845dd2ead11992f34718a8b8fb6a5699ee9436906004016102e7565b60443584526040602085018190526001600160a01b0390971696840191610314565b600435906001600160a01b03821682036100ea57565b9181601f840112156100ea578235916001600160401b0383116100ea57602083818601950101116100ea57565b908060209392818452848401375f828201840152601f01601f191601019056fea2646970667358221220e07503fb50ca53b5388f247f38260b764be5bce0e5445844bd57ccbeb47530e964736f6c634300081e0033","linkReferences":{}},"methodIdentifiers":{"dao()":"4162169f","logEvent(address,string,uint256,string)":"c0f0a1c0","logSystemEvent(address,string,address)":"f77586ac","logTransfer(address,address,uint256,string)":"276106f5","setDAO(address)":"e73a914c"},"id":38}