{"abi":[{"type":"constructor","inputs":[{"name":"_dao","type":"address","internalType":"address"},{"name":"_seer","type":"address","internalType":"address"},{"name":"_treasury","type":"address","internalType":"address"}],"stateMutability":"nonpayable"},{"type":"function","name":"baseBurnBps","inputs":[],"outputs":[{"name":"","type":"uint16","internalType":"uint16"}],"stateMutability":"view"},{"type":"function","name":"baseRewardBps","inputs":[],"outputs":[{"name":"","type":"uint16","internalType":"uint16"}],"stateMutability":"view"},{"type":"function","name":"dao","inputs":[],"outputs":[{"name":"","type":"address","internalType":"address"}],"stateMutability":"view"},{"type":"function","name":"highBoostBps","inputs":[],"outputs":[{"name":"","type":"uint16","internalType":"uint16"}],"stateMutability":"view"},{"type":"function","name":"lowPenaltyBps","inputs":[],"outputs":[{"name":"","type":"uint16","internalType":"uint16"}],"stateMutability":"view"},{"type":"function","name":"maxTotalBps","inputs":[],"outputs":[{"name":"","type":"uint16","internalType":"uint16"}],"stateMutability":"view"},{"type":"function","name":"routeFor","inputs":[{"name":"subject","type":"address","internalType":"address"}],"outputs":[{"name":"r","type":"tuple","internalType":"struct ProofScoreBurnRouterPlus.Route","components":[{"name":"burnBps","type":"uint16","internalType":"uint16"},{"name":"rewardBps","type":"uint16","internalType":"uint16"},{"name":"treasuryBps","type":"uint16","internalType":"uint16"}]}],"stateMutability":"view"},{"type":"function","name":"seer","inputs":[],"outputs":[{"name":"","type":"address","internalType":"contract Seer"}],"stateMutability":"view"},{"type":"function","name":"setModules","inputs":[{"name":"_seer","type":"address","internalType":"address"},{"name":"_treasury","type":"address","internalType":"address"}],"outputs":[],"stateMutability":"nonpayable"},{"type":"function","name":"setPolicy","inputs":[{"name":"_baseBurnBps","type":"uint16","internalType":"uint16"},{"name":"_baseRewardBps","type":"uint16","internalType":"uint16"},{"name":"_highBoostBps","type":"uint16","internalType":"uint16"},{"name":"_lowPenaltyBps","type":"uint16","internalType":"uint16"},{"name":"_maxTotalBps","type":"uint16","internalType":"uint16"},{"name":"_treasury","type":"address","internalType":"address"}],"outputs":[],"stateMutability":"nonpayable"},{"type":"function","name":"treasury","inputs":[],"outputs":[{"name":"","type":"address","internalType":"address"}],"stateMutability":"view"},{"type":"event","name":"PolicySet","inputs":[{"name":"baseBurnBps","type":"uint16","indexed":false,"internalType":"uint16"},{"name":"baseRewardBps","type":"uint16","indexed":false,"internalType":"uint16"},{"name":"highBoostBps","type":"uint16","indexed":false,"internalType":"uint16"},{"name":"lowPenaltyBps","type":"uint16","indexed":false,"internalType":"uint16"},{"name":"maxTotalBps","type":"uint16","indexed":false,"internalType":"uint16"},{"name":"treasury","type":"address","indexed":false,"internalType":"address"}],"anonymous":false},{"type":"event","name":"SeerSet","inputs":[{"name":"seer","type":"address","indexed":false,"internalType":"address"}],"anonymous":false},{"type":"error","name":"TRUST_Bounds","inputs":[]},{"type":"error","name":"TRUST_NotDAO","inputs":[]},{"type":"error","name":"TRUST_Zero","inputs":[]}],"bytecode":{"object":"0x60803461016257601f61086538819003918201601f19168301916001600160401b0383118484101761016657808492606094604052833981010312610162576100478161017a565b61005f60406100586020850161017a565b930161017a565b60018054600160a01b600160f01b031981167d03e800960032003200c80000000000000000000000000000000000000000179091559092600160a01b600160e01b03199091167a960032003200c8000000000000000000000000000000000000000017916001600160a01b03168015610153575f80546001600160a01b0319169190911790556001600160a01b03168061011e575b600280546001600160a01b0319166001600160a01b0385161790556040516106d6908161018f8239f35b7fffff0000ffffffffffffffff000000000000000000000000000000000000000090911617607d60e31b176001555f806100f4565b630409728b60e41b5f5260045ffd5b5f80fd5b634e487b7160e01b5f52604160045260245ffd5b51906001600160a01b03821682036101625756fe6080806040526004361015610012575f80fd5b5f3560e01c90816318c3d4ac146105ce575080632d55ea39146105a65780634162169f1461057f5780634547c6761461055b5780635af1a143146105375780635f31bce51461051357806361d027b3146104eb57806399388df4146104c7578063d74a5d0014610422578063e8c6df01146102bf5763f9b5c4ce14610095575f80fd5b346102bb5760203660031901126102bb576100ae6105ef565b5f604080516100bc81610605565b8281526020808201849052910191909152600154604051630d47875d60e41b81526001600160a01b0393841660048201529281169183602481855afa928315610268575f9361029a575b5061ffff8160a01c169261ffff8260b01c169260405191632519fdb960e11b8352602083600481855afa928315610268575f93610273575b5061ffff908116921682106101f0575050906101629061ffff8360c01c1690610671565b905b61ffff6101718385610671565b60e09290921c16908181106101c457505061ffff60609281805f925b1693816040805161019d81610605565b87815282602082019416845201931683526040519485525116602084015251166040820152f35b81039081116101dc5760609261ffff8080939261018d565b634e487b7160e01b5f52601160045260245ffd5b6020600491604051928380926352a67c5d60e01b82525afa80156102685761ffff915f91610239575b50161061016457916102339061ffff8460d01c1690610671565b91610164565b61025b915060203d602011610261575b6102538183610634565b810190610657565b5f610219565b503d610249565b6040513d5f823e3d90fd5b61ffff919350610292829160203d602011610261576102538183610634565b93915061013e565b6102b491935060203d602011610261576102538183610634565b915f610106565b5f80fd5b346102bb5760c03660031901126102bb5760043561ffff811681036102bb5760243561ffff811681036102bb5760443561ffff811681036102bb576064359261ffff841684036102bb576084359361ffff8516928386036102bb5760a4356001600160a01b03811694908590036102bb57610fa09061033c61067e565b11610413576001805460d093841b61ffff60d01b1660c093841b61ffff60c01b16600160a01b600160f01b031990921660a096871b61ffff60a01b161760b098891b61ffff60b01b1617919091171760e097881b61ffff60e01b161790819055600280546001600160a01b031916861790556040805182861c61ffff90811682529783901c8816602082015282841c8816918101919091529281901c8616606084015290951c90931660808401528201527fad85ea8bd62a800d47d98d22f8b8af72e1744a61b7f4d23863d8806fac0ef98e9190a1005b6302f9198160e51b5f5260045ffd5b346102bb5760403660031901126102bb5761043b6105ef565b6024356001600160a01b03811691908290036102bb5761045961067e565b6001600160a01b03169081156104b857600180546001600160a01b031990811684179091556002805490911690911790556040519081527fc33c1a95c902d772578a793cd3d42b7d0a418863633ff3be7853c55a4d95388a90602090a1005b630409728b60e41b5f5260045ffd5b346102bb575f3660031901126102bb57602061ffff60015460c01c16604051908152f35b346102bb575f3660031901126102bb576002546040516001600160a01b039091168152602090f35b346102bb575f3660031901126102bb57602061ffff60015460e01c16604051908152f35b346102bb575f3660031901126102bb57602061ffff60015460b01c16604051908152f35b346102bb575f3660031901126102bb57602061ffff60015460d01c16604051908152f35b346102bb575f3660031901126102bb575f546040516001600160a01b039091168152602090f35b346102bb575f3660031901126102bb576001546040516001600160a01b039091168152602090f35b346102bb575f3660031901126102bb5760209061ffff60015460a01c168152f35b600435906001600160a01b03821682036102bb57565b606081019081106001600160401b0382111761062057604052565b634e487b7160e01b5f52604160045260245ffd5b601f909101601f19168101906001600160401b0382119082101761062057604052565b908160209103126102bb575161ffff811681036102bb5790565b919082018092116101dc57565b5f546001600160a01b0316330361069157565b63483e517d60e01b5f5260045ffdfea2646970667358221220b2f0f1ba4f21fd6e3b517cd1d0782aedd3fbca21f519cd8c96d76cd4c6559d6164736f6c634300081e0033","linkReferences":{}},"methodIdentifiers":{"baseBurnBps()":"18c3d4ac","baseRewardBps()":"5af1a143","dao()":"4162169f","highBoostBps()":"99388df4","lowPenaltyBps()":"4547c676","maxTotalBps()":"5f31bce5","routeFor(address)":"f9b5c4ce","seer()":"2d55ea39","setModules(address,address)":"d74a5d00","setPolicy(uint16,uint16,uint16,uint16,uint16,address)":"e8c6df01","treasury()":"61d027b3"},"id":23}