{"abi":[{"type":"constructor","inputs":[{"name":"_dao","type":"address","internalType":"address"},{"name":"_ledger","type":"address","internalType":"address"},{"name":"_hub","type":"address","internalType":"address"}],"stateMutability":"nonpayable"},{"type":"function","name":"MAX_HISTORY_PER_USER","inputs":[],"outputs":[{"name":"","type":"uint8","internalType":"uint8"}],"stateMutability":"view"},{"type":"function","name":"MAX_SCORE","inputs":[],"outputs":[{"name":"","type":"uint16","internalType":"uint16"}],"stateMutability":"view"},{"type":"function","name":"MIN_SCORE","inputs":[],"outputs":[{"name":"","type":"uint16","internalType":"uint16"}],"stateMutability":"view"},{"type":"function","name":"NEUTRAL","inputs":[],"outputs":[{"name":"","type":"uint16","internalType":"uint16"}],"stateMutability":"view"},{"type":"function","name":"addScoreSource","inputs":[{"name":"source","type":"address","internalType":"address"},{"name":"name","type":"string","internalType":"string"},{"name":"weight","type":"uint8","internalType":"uint8"}],"outputs":[],"stateMutability":"nonpayable"},{"type":"function","name":"appeals","inputs":[{"name":"","type":"address","internalType":"address"}],"outputs":[{"name":"requester","type":"address","internalType":"address"},{"name":"reason","type":"string","internalType":"string"},{"name":"timestamp","type":"uint64","internalType":"uint64"},{"name":"resolved","type":"bool","internalType":"bool"},{"name":"approved","type":"bool","internalType":"bool"},{"name":"resolution","type":"string","internalType":"string"}],"stateMutability":"view"},{"type":"function","name":"applyDecay","inputs":[{"name":"subject","type":"address","internalType":"address"}],"outputs":[],"stateMutability":"nonpayable"},{"type":"function","name":"applyDecayBatch","inputs":[{"name":"subjects","type":"address[]","internalType":"address[]"}],"outputs":[],"stateMutability":"nonpayable"},{"type":"function","name":"badgeExpiry","inputs":[{"name":"","type":"address","internalType":"address"},{"name":"","type":"bytes32","internalType":"bytes32"}],"outputs":[{"name":"","type":"uint256","internalType":"uint256"}],"stateMutability":"view"},{"type":"function","name":"becomeMentor","inputs":[],"outputs":[],"stateMutability":"nonpayable"},{"type":"function","name":"calculateAutomatedScore","inputs":[{"name":"subject","type":"address","internalType":"address"}],"outputs":[{"name":"","type":"uint16","internalType":"uint16"}],"stateMutability":"view"},{"type":"function","name":"calculateOnChainScore","inputs":[{"name":"subject","type":"address","internalType":"address"}],"outputs":[{"name":"","type":"uint16","internalType":"uint16"}],"stateMutability":"view"},{"type":"function","name":"dailyOperatorRewardTotal","inputs":[{"name":"","type":"address","internalType":"address"},{"name":"","type":"address","internalType":"address"}],"outputs":[{"name":"","type":"uint16","internalType":"uint16"}],"stateMutability":"view"},{"type":"function","name":"dao","inputs":[],"outputs":[{"name":"","type":"address","internalType":"address"}],"stateMutability":"view"},{"type":"function","name":"daoScoreWeight","inputs":[],"outputs":[{"name":"","type":"uint8","internalType":"uint8"}],"stateMutability":"view"},{"type":"function","name":"decayEnabled","inputs":[],"outputs":[{"name":"","type":"bool","internalType":"bool"}],"stateMutability":"view"},{"type":"function","name":"decayPerMonth","inputs":[],"outputs":[{"name":"","type":"uint16","internalType":"uint16"}],"stateMutability":"view"},{"type":"function","name":"decayStartDays","inputs":[],"outputs":[{"name":"","type":"uint64","internalType":"uint64"}],"stateMutability":"view"},{"type":"function","name":"endorse","inputs":[{"name":"subject","type":"address","internalType":"address"},{"name":"reason","type":"string","internalType":"string"}],"outputs":[],"stateMutability":"nonpayable"},{"type":"function","name":"endorsementBaseValue","inputs":[],"outputs":[{"name":"","type":"uint16","internalType":"uint16"}],"stateMutability":"view"},{"type":"function","name":"endorsementBonusCap","inputs":[],"outputs":[{"name":"","type":"uint16","internalType":"uint16"}],"stateMutability":"view"},{"type":"function","name":"endorsementCooldown","inputs":[],"outputs":[{"name":"","type":"uint64","internalType":"uint64"}],"stateMutability":"view"},{"type":"function","name":"endorsementMaxPerEndorser","inputs":[],"outputs":[{"name":"","type":"uint16","internalType":"uint16"}],"stateMutability":"view"},{"type":"function","name":"endorsementValidity","inputs":[],"outputs":[{"name":"","type":"uint64","internalType":"uint64"}],"stateMutability":"view"},{"type":"function","name":"endorsements","inputs":[{"name":"","type":"address","internalType":"address"},{"name":"","type":"address","internalType":"address"}],"outputs":[{"name":"expiry","type":"uint64","internalType":"uint64"},{"name":"weight","type":"uint16","internalType":"uint16"},{"name":"timestamp","type":"uint64","internalType":"uint64"}],"stateMutability":"view"},{"type":"function","name":"endorsementsGiven","inputs":[{"name":"","type":"address","internalType":"address"}],"outputs":[{"name":"","type":"uint16","internalType":"uint16"}],"stateMutability":"view"},{"type":"function","name":"endorsementsReceived","inputs":[{"name":"","type":"address","internalType":"address"}],"outputs":[{"name":"","type":"uint16","internalType":"uint16"}],"stateMutability":"view"},{"type":"function","name":"fileAppeal","inputs":[{"name":"reason","type":"string","internalType":"string"}],"outputs":[],"stateMutability":"nonpayable"},{"type":"function","name":"findReasonInHistory","inputs":[{"name":"subject","type":"address","internalType":"address"},{"name":"reason","type":"string","internalType":"string"}],"outputs":[{"name":"found","type":"bool","internalType":"bool"},{"name":"timestamp","type":"uint64","internalType":"uint64"}],"stateMutability":"view"},{"type":"function","name":"getActiveEndorsements","inputs":[{"name":"subject","type":"address","internalType":"address"}],"outputs":[{"name":"endorsers","type":"address[]","internalType":"address[]"},{"name":"weights","type":"uint16[]","internalType":"uint16[]"},{"name":"expiries","type":"uint64[]","internalType":"uint64[]"},{"name":"timestamps","type":"uint64[]","internalType":"uint64[]"}],"stateMutability":"view"},{"type":"function","name":"getDecayAdjustedScore","inputs":[{"name":"subject","type":"address","internalType":"address"}],"outputs":[{"name":"adjustedScore","type":"uint16","internalType":"uint16"},{"name":"daysInactive","type":"uint64","internalType":"uint64"},{"name":"decayAmount","type":"uint16","internalType":"uint16"}],"stateMutability":"view"},{"type":"function","name":"getEndorsementStats","inputs":[{"name":"subject","type":"address","internalType":"address"}],"outputs":[{"name":"activeEndorsers","type":"uint16","internalType":"uint16"},{"name":"activeBonus","type":"uint16","internalType":"uint16"},{"name":"endorsementsYouGave","type":"uint16","internalType":"uint16"}],"stateMutability":"view"},{"type":"function","name":"getMentees","inputs":[{"name":"mentor","type":"address","internalType":"address"}],"outputs":[{"name":"","type":"address[]","internalType":"address[]"}],"stateMutability":"view"},{"type":"function","name":"getMentorInfo","inputs":[{"name":"subject","type":"address","internalType":"address"}],"outputs":[{"name":"isMentorUser","type":"bool","internalType":"bool"},{"name":"mentor","type":"address","internalType":"address"},{"name":"menteeCount","type":"uint16","internalType":"uint16"},{"name":"hasMentor","type":"bool","internalType":"bool"},{"name":"canBecome","type":"bool","internalType":"bool"},{"name":"minScore","type":"uint16","internalType":"uint16"},{"name":"currentScore","type":"uint16","internalType":"uint16"}],"stateMutability":"view"},{"type":"function","name":"getScore","inputs":[{"name":"subject","type":"address","internalType":"address"}],"outputs":[{"name":"","type":"uint16","internalType":"uint16"}],"stateMutability":"view"},{"type":"function","name":"getScoreBreakdown","inputs":[{"name":"subject","type":"address","internalType":"address"}],"outputs":[{"name":"daoSetScore","type":"uint16","internalType":"uint16"},{"name":"onChainScore","type":"uint16","internalType":"uint16"},{"name":"finalScore","type":"uint16","internalType":"uint16"},{"name":"daoWeight","type":"uint8","internalType":"uint8"},{"name":"onChainWeight","type":"uint8","internalType":"uint8"},{"name":"hasVault","type":"bool","internalType":"bool"}],"stateMutability":"view"},{"type":"function","name":"getScoreHistory","inputs":[{"name":"subject","type":"address","internalType":"address"}],"outputs":[{"name":"count","type":"uint256","internalType":"uint256"},{"name":"recentChanges","type":"tuple[]","internalType":"struct Seer.ScoreChange[]","components":[{"name":"oldScore","type":"uint16","internalType":"uint16"},{"name":"newScore","type":"uint16","internalType":"uint16"},{"name":"timestamp","type":"uint64","internalType":"uint64"},{"name":"reasonHash","type":"bytes32","internalType":"bytes32"}]}],"stateMutability":"view"},{"type":"function","name":"getScoreSourceCount","inputs":[],"outputs":[{"name":"total","type":"uint256","internalType":"uint256"},{"name":"active","type":"uint256","internalType":"uint256"}],"stateMutability":"view"},{"type":"function","name":"getScores","inputs":[{"name":"subjects","type":"address[]","internalType":"address[]"}],"outputs":[{"name":"scores","type":"uint16[]","internalType":"uint16[]"}],"stateMutability":"view"},{"type":"function","name":"getScoresBatch","inputs":[{"name":"subjects","type":"address[]","internalType":"address[]"}],"outputs":[{"name":"scores","type":"uint16[]","internalType":"uint16[]"}],"stateMutability":"view"},{"type":"function","name":"getTrustLevel","inputs":[{"name":"subject","type":"address","internalType":"address"}],"outputs":[{"name":"level","type":"uint8","internalType":"uint8"},{"name":"levelName","type":"string","internalType":"string"},{"name":"canVote","type":"bool","internalType":"bool"},{"name":"canBeMerchant","type":"bool","internalType":"bool"}],"stateMutability":"view"},{"type":"function","name":"getUserStatus","inputs":[{"name":"subject","type":"address","internalType":"address"}],"outputs":[{"name":"currentScore","type":"uint16","internalType":"uint16"},{"name":"decayAdjustedScore","type":"uint16","internalType":"uint16"},{"name":"daysInactive","type":"uint64","internalType":"uint64"},{"name":"lastActivityTime","type":"uint64","internalType":"uint64"},{"name":"historyCount","type":"uint256","internalType":"uint256"},{"name":"hasPendingDispute","type":"bool","internalType":"bool"},{"name":"isOperator","type":"bool","internalType":"bool"}],"stateMutability":"view"},{"type":"function","name":"hasBadge","inputs":[{"name":"","type":"address","internalType":"address"},{"name":"","type":"bytes32","internalType":"bytes32"}],"outputs":[{"name":"","type":"bool","internalType":"bool"}],"stateMutability":"view"},{"type":"function","name":"highTrustThreshold","inputs":[],"outputs":[{"name":"","type":"uint16","internalType":"uint16"}],"stateMutability":"view"},{"type":"function","name":"isBadgeValid","inputs":[{"name":"subject","type":"address","internalType":"address"},{"name":"badge","type":"bytes32","internalType":"bytes32"}],"outputs":[{"name":"","type":"bool","internalType":"bool"}],"stateMutability":"view"},{"type":"function","name":"lastActivity","inputs":[{"name":"","type":"address","internalType":"address"}],"outputs":[{"name":"","type":"uint64","internalType":"uint64"}],"stateMutability":"view"},{"type":"function","name":"lastEndorseTime","inputs":[{"name":"","type":"address","internalType":"address"}],"outputs":[{"name":"","type":"uint64","internalType":"uint64"}],"stateMutability":"view"},{"type":"function","name":"lastOperatorRewardTime","inputs":[{"name":"","type":"address","internalType":"address"},{"name":"","type":"address","internalType":"address"}],"outputs":[{"name":"","type":"uint64","internalType":"uint64"}],"stateMutability":"view"},{"type":"function","name":"ledger","inputs":[],"outputs":[{"name":"","type":"address","internalType":"contract ProofLedger"}],"stateMutability":"view"},{"type":"function","name":"lowTrustThreshold","inputs":[],"outputs":[{"name":"","type":"uint16","internalType":"uint16"}],"stateMutability":"view"},{"type":"function","name":"maxActiveGivenPerUser","inputs":[],"outputs":[{"name":"","type":"uint16","internalType":"uint16"}],"stateMutability":"view"},{"type":"function","name":"maxDailyOperatorReward","inputs":[],"outputs":[{"name":"","type":"uint16","internalType":"uint16"}],"stateMutability":"view"},{"type":"function","name":"maxEndorsersPerSubject","inputs":[],"outputs":[{"name":"","type":"uint16","internalType":"uint16"}],"stateMutability":"view"},{"type":"function","name":"maxMenteesPerMentor","inputs":[],"outputs":[{"name":"","type":"uint16","internalType":"uint16"}],"stateMutability":"view"},{"type":"function","name":"maxSingleReward","inputs":[],"outputs":[{"name":"","type":"uint16","internalType":"uint16"}],"stateMutability":"view"},{"type":"function","name":"mentorOf","inputs":[{"name":"","type":"address","internalType":"address"}],"outputs":[{"name":"","type":"address","internalType":"address"}],"stateMutability":"view"},{"type":"function","name":"mentors","inputs":[{"name":"","type":"address","internalType":"address"}],"outputs":[{"name":"","type":"bool","internalType":"bool"}],"stateMutability":"view"},{"type":"function","name":"minForGovernance","inputs":[],"outputs":[{"name":"","type":"uint16","internalType":"uint16"}],"stateMutability":"view"},{"type":"function","name":"minForMerchant","inputs":[],"outputs":[{"name":"","type":"uint16","internalType":"uint16"}],"stateMutability":"view"},{"type":"function","name":"minScoreToEndorse","inputs":[],"outputs":[{"name":"","type":"uint16","internalType":"uint16"}],"stateMutability":"view"},{"type":"function","name":"minScoreToMentor","inputs":[],"outputs":[{"name":"","type":"uint16","internalType":"uint16"}],"stateMutability":"view"},{"type":"function","name":"onChainScoreWeight","inputs":[],"outputs":[{"name":"","type":"uint8","internalType":"uint8"}],"stateMutability":"view"},{"type":"function","name":"operatorRewardDayStart","inputs":[{"name":"","type":"address","internalType":"address"}],"outputs":[{"name":"","type":"uint64","internalType":"uint64"}],"stateMutability":"view"},{"type":"function","name":"operators","inputs":[{"name":"","type":"address","internalType":"address"}],"outputs":[{"name":"","type":"bool","internalType":"bool"}],"stateMutability":"view"},{"type":"function","name":"paused","inputs":[],"outputs":[{"name":"","type":"bool","internalType":"bool"}],"stateMutability":"view"},{"type":"function","name":"pendingAppealCount","inputs":[],"outputs":[{"name":"","type":"uint256","internalType":"uint256"}],"stateMutability":"view"},{"type":"function","name":"pendingDisputeCount","inputs":[],"outputs":[{"name":"","type":"uint256","internalType":"uint256"}],"stateMutability":"view"},{"type":"function","name":"pruneEndorsements","inputs":[{"name":"subject","type":"address","internalType":"address"}],"outputs":[],"stateMutability":"nonpayable"},{"type":"function","name":"punish","inputs":[{"name":"subject","type":"address","internalType":"address"},{"name":"delta","type":"uint16","internalType":"uint16"},{"name":"reason","type":"string","internalType":"string"}],"outputs":[],"stateMutability":"nonpayable"},{"type":"function","name":"removeMentee","inputs":[{"name":"mentee","type":"address","internalType":"address"}],"outputs":[],"stateMutability":"nonpayable"},{"type":"function","name":"removeScoreSource","inputs":[{"name":"source","type":"address","internalType":"address"}],"outputs":[],"stateMutability":"nonpayable"},{"type":"function","name":"requestScoreReview","inputs":[{"name":"reason","type":"string","internalType":"string"}],"outputs":[],"stateMutability":"nonpayable"},{"type":"function","name":"resolveAppeal","inputs":[{"name":"subject","type":"address","internalType":"address"},{"name":"approved","type":"bool","internalType":"bool"},{"name":"resolution","type":"string","internalType":"string"}],"outputs":[],"stateMutability":"nonpayable"},{"type":"function","name":"resolveScoreDispute","inputs":[{"name":"subject","type":"address","internalType":"address"},{"name":"approved","type":"bool","internalType":"bool"},{"name":"adjustment","type":"int16","internalType":"int16"}],"outputs":[],"stateMutability":"nonpayable"},{"type":"function","name":"revokeMentor","inputs":[{"name":"mentor","type":"address","internalType":"address"}],"outputs":[],"stateMutability":"nonpayable"},{"type":"function","name":"reward","inputs":[{"name":"subject","type":"address","internalType":"address"},{"name":"delta","type":"uint16","internalType":"uint16"},{"name":"reason","type":"string","internalType":"string"}],"outputs":[],"stateMutability":"nonpayable"},{"type":"function","name":"scoreDisputes","inputs":[{"name":"","type":"address","internalType":"address"}],"outputs":[{"name":"requester","type":"address","internalType":"address"},{"name":"reason","type":"string","internalType":"string"},{"name":"timestamp","type":"uint64","internalType":"uint64"},{"name":"resolved","type":"bool","internalType":"bool"},{"name":"approved","type":"bool","internalType":"bool"}],"stateMutability":"view"},{"type":"function","name":"scoreHistory","inputs":[{"name":"","type":"address","internalType":"address"},{"name":"","type":"uint256","internalType":"uint256"}],"outputs":[{"name":"oldScore","type":"uint16","internalType":"uint16"},{"name":"newScore","type":"uint16","internalType":"uint16"},{"name":"timestamp","type":"uint64","internalType":"uint64"},{"name":"reasonHash","type":"bytes32","internalType":"bytes32"}],"stateMutability":"view"},{"type":"function","name":"scoreSourceIndex","inputs":[{"name":"","type":"address","internalType":"address"}],"outputs":[{"name":"","type":"uint256","internalType":"uint256"}],"stateMutability":"view"},{"type":"function","name":"scoreSources","inputs":[{"name":"","type":"uint256","internalType":"uint256"}],"outputs":[{"name":"source","type":"address","internalType":"address"},{"name":"name","type":"string","internalType":"string"},{"name":"weight","type":"uint8","internalType":"uint8"},{"name":"active","type":"bool","internalType":"bool"}],"stateMutability":"view"},{"type":"function","name":"setBadge","inputs":[{"name":"subject","type":"address","internalType":"address"},{"name":"badge","type":"bytes32","internalType":"bytes32"},{"name":"active","type":"bool","internalType":"bool"},{"name":"expiry","type":"uint256","internalType":"uint256"}],"outputs":[],"stateMutability":"nonpayable"},{"type":"function","name":"setBadgeBatch","inputs":[{"name":"subjects","type":"address[]","internalType":"address[]"},{"name":"badge","type":"bytes32","internalType":"bytes32"},{"name":"active","type":"bool","internalType":"bool"},{"name":"expiry","type":"uint256","internalType":"uint256"}],"outputs":[],"stateMutability":"nonpayable"},{"type":"function","name":"setDAO","inputs":[{"name":"newDAO","type":"address","internalType":"address"}],"outputs":[],"stateMutability":"nonpayable"},{"type":"function","name":"setDecayConfig","inputs":[{"name":"enabled","type":"bool","internalType":"bool"},{"name":"startDays","type":"uint64","internalType":"uint64"},{"name":"perMonth","type":"uint16","internalType":"uint16"}],"outputs":[],"stateMutability":"nonpayable"},{"type":"function","name":"setDecentralizationWeights","inputs":[{"name":"daoWeight","type":"uint8","internalType":"uint8"},{"name":"onChainWeight","type":"uint8","internalType":"uint8"}],"outputs":[],"stateMutability":"nonpayable"},{"type":"function","name":"setEndorsementPolicy","inputs":[{"name":"baseValue","type":"uint16","internalType":"uint16"},{"name":"maxPerEndorser","type":"uint16","internalType":"uint16"},{"name":"bonusCap","type":"uint16","internalType":"uint16"},{"name":"maxPerSubject","type":"uint16","internalType":"uint16"},{"name":"maxGiven","type":"uint16","internalType":"uint16"},{"name":"validity","type":"uint64","internalType":"uint64"},{"name":"cooldown","type":"uint64","internalType":"uint64"},{"name":"minScore","type":"uint16","internalType":"uint16"}],"outputs":[],"stateMutability":"nonpayable"},{"type":"function","name":"setMentorConfig","inputs":[{"name":"minScore","type":"uint16","internalType":"uint16"},{"name":"maxMentees","type":"uint16","internalType":"uint16"}],"outputs":[],"stateMutability":"nonpayable"},{"type":"function","name":"setModules","inputs":[{"name":"_ledger","type":"address","internalType":"address"},{"name":"_hub","type":"address","internalType":"address"}],"outputs":[],"stateMutability":"nonpayable"},{"type":"function","name":"setOperator","inputs":[{"name":"operator","type":"address","internalType":"address"},{"name":"authorized","type":"bool","internalType":"bool"}],"outputs":[],"stateMutability":"nonpayable"},{"type":"function","name":"setOperatorLimits","inputs":[{"name":"_maxSingle","type":"uint16","internalType":"uint16"},{"name":"_maxDaily","type":"uint16","internalType":"uint16"}],"outputs":[],"stateMutability":"nonpayable"},{"type":"function","name":"setPaused","inputs":[{"name":"_paused","type":"bool","internalType":"bool"}],"outputs":[],"stateMutability":"nonpayable"},{"type":"function","name":"setScore","inputs":[{"name":"subject","type":"address","internalType":"address"},{"name":"newScore","type":"uint16","internalType":"uint16"},{"name":"reason","type":"string","internalType":"string"}],"outputs":[],"stateMutability":"nonpayable"},{"type":"function","name":"setThresholds","inputs":[{"name":"low","type":"uint16","internalType":"uint16"},{"name":"high","type":"uint16","internalType":"uint16"},{"name":"minGov","type":"uint16","internalType":"uint16"},{"name":"minMerch","type":"uint16","internalType":"uint16"}],"outputs":[],"stateMutability":"nonpayable"},{"type":"function","name":"sponsorMentee","inputs":[{"name":"mentee","type":"address","internalType":"address"}],"outputs":[],"stateMutability":"nonpayable"},{"type":"function","name":"vaultHub","inputs":[],"outputs":[{"name":"","type":"address","internalType":"contract IVaultHub_Trust"}],"stateMutability":"view"},{"type":"event","name":"AppealFiled","inputs":[{"name":"subject","type":"address","indexed":true,"internalType":"address"},{"name":"reason","type":"string","indexed":false,"internalType":"string"}],"anonymous":false},{"type":"event","name":"AppealResolved","inputs":[{"name":"subject","type":"address","indexed":true,"internalType":"address"},{"name":"approved","type":"bool","indexed":false,"internalType":"bool"},{"name":"resolution","type":"string","indexed":false,"internalType":"string"}],"anonymous":false},{"type":"event","name":"DAOSet","inputs":[{"name":"oldDAO","type":"address","indexed":true,"internalType":"address"},{"name":"newDAO","type":"address","indexed":true,"internalType":"address"}],"anonymous":false},{"type":"event","name":"DecayApplied","inputs":[{"name":"subject","type":"address","indexed":true,"internalType":"address"},{"name":"oldScore","type":"uint16","indexed":false,"internalType":"uint16"},{"name":"newScore","type":"uint16","indexed":false,"internalType":"uint16"},{"name":"inactiveDays","type":"uint256","indexed":false,"internalType":"uint256"}],"anonymous":false},{"type":"event","name":"DecentralizationUpdated","inputs":[{"name":"daoWeight","type":"uint8","indexed":false,"internalType":"uint8"},{"name":"onChainWeight","type":"uint8","indexed":false,"internalType":"uint8"}],"anonymous":false},{"type":"event","name":"HubSet","inputs":[{"name":"vaultHub","type":"address","indexed":false,"internalType":"address"}],"anonymous":false},{"type":"event","name":"LedgerSet","inputs":[{"name":"ledger","type":"address","indexed":false,"internalType":"address"}],"anonymous":false},{"type":"event","name":"MenteeRemoved","inputs":[{"name":"mentor","type":"address","indexed":true,"internalType":"address"},{"name":"mentee","type":"address","indexed":true,"internalType":"address"}],"anonymous":false},{"type":"event","name":"MenteeSponsored","inputs":[{"name":"mentor","type":"address","indexed":true,"internalType":"address"},{"name":"mentee","type":"address","indexed":true,"internalType":"address"}],"anonymous":false},{"type":"event","name":"MentorConfigUpdated","inputs":[{"name":"minScore","type":"uint16","indexed":false,"internalType":"uint16"},{"name":"maxMentees","type":"uint16","indexed":false,"internalType":"uint16"}],"anonymous":false},{"type":"event","name":"MentorRegistered","inputs":[{"name":"mentor","type":"address","indexed":true,"internalType":"address"}],"anonymous":false},{"type":"event","name":"MentorRevoked","inputs":[{"name":"mentor","type":"address","indexed":true,"internalType":"address"}],"anonymous":false},{"type":"event","name":"OperatorSet","inputs":[{"name":"operator","type":"address","indexed":true,"internalType":"address"},{"name":"authorized","type":"bool","indexed":false,"internalType":"bool"}],"anonymous":false},{"type":"event","name":"Paused","inputs":[{"name":"isPaused","type":"bool","indexed":false,"internalType":"bool"}],"anonymous":false},{"type":"event","name":"ScoreDisputeRequested","inputs":[{"name":"subject","type":"address","indexed":true,"internalType":"address"},{"name":"reason","type":"string","indexed":false,"internalType":"string"}],"anonymous":false},{"type":"event","name":"ScoreDisputeResolved","inputs":[{"name":"subject","type":"address","indexed":true,"internalType":"address"},{"name":"approved","type":"bool","indexed":false,"internalType":"bool"},{"name":"adjustment","type":"int256","indexed":false,"internalType":"int256"}],"anonymous":false},{"type":"event","name":"ScoreSet","inputs":[{"name":"subject","type":"address","indexed":true,"internalType":"address"},{"name":"oldScore","type":"uint16","indexed":false,"internalType":"uint16"},{"name":"newScore","type":"uint16","indexed":false,"internalType":"uint16"},{"name":"reason","type":"string","indexed":false,"internalType":"string"}],"anonymous":false},{"type":"event","name":"ScoreSourceAdded","inputs":[{"name":"source","type":"address","indexed":true,"internalType":"address"},{"name":"name","type":"string","indexed":false,"internalType":"string"},{"name":"weight","type":"uint8","indexed":false,"internalType":"uint8"}],"anonymous":false},{"type":"event","name":"ScoreSourceRemoved","inputs":[{"name":"source","type":"address","indexed":true,"internalType":"address"}],"anonymous":false},{"type":"event","name":"ThresholdsSet","inputs":[{"name":"low","type":"uint16","indexed":false,"internalType":"uint16"},{"name":"high","type":"uint16","indexed":false,"internalType":"uint16"},{"name":"minForGov","type":"uint16","indexed":false,"internalType":"uint16"},{"name":"minForMerchant","type":"uint16","indexed":false,"internalType":"uint16"}],"anonymous":false},{"type":"event","name":"UserEndorsed","inputs":[{"name":"endorser","type":"address","indexed":true,"internalType":"address"},{"name":"subject","type":"address","indexed":true,"internalType":"address"},{"name":"weight","type":"uint16","indexed":false,"internalType":"uint16"},{"name":"expiry","type":"uint64","indexed":false,"internalType":"uint64"},{"name":"reason","type":"string","indexed":false,"internalType":"string"}],"anonymous":false},{"type":"error","name":"TRUST_Bounds","inputs":[]},{"type":"error","name":"TRUST_EndorseExists","inputs":[]},{"type":"error","name":"TRUST_EndorseLimit","inputs":[]},{"type":"error","name":"TRUST_InvalidEndorse","inputs":[]},{"type":"error","name":"TRUST_NotDAO","inputs":[]},{"type":"error","name":"TRUST_NotOperator","inputs":[]},{"type":"error","name":"TRUST_Paused","inputs":[]},{"type":"error","name":"TRUST_Zero","inputs":[]}],"bytecode":{"object":"0x60803461018157601f616e7338819003918201601f19168301916001600160401b03831184841017610185578084926060946040528339810103126101815761004781610199565b90610060604061005960208401610199565b9201610199565b600b80547b1b580000000000015180000000000076a7000032001905dc005000286001600160e01b0319909116179055600f805463ffffffff1990811662321c201790915560158054909116626400c8179055601880546001600160581b0319166964000000000000005a00179055601b80546915e015181f400fa000646001600160501b0319909116179055916001600160a01b03168015610172575f80546001600160a01b0319169190911790556001600160a01b031680610158575b506001600160a01b03168061013e575b604051616cc590816101ae8239f35b600280546001600160a01b0319169190911790555f61012f565b600180546001600160a01b0319169190911790555f61011f565b630409728b60e41b5f5260045ffd5b5f80fd5b634e487b7160e01b5f52604160045260245ffd5b51906001600160a01b03821682036101815756fe6080806040526004361015610012575f80fd5b5f3560e01c908163024caec714614cfb575080630494dada14614bcb5780630ba2d87214614b845780630c61e69c14614ad15780630f39c94014614aaf5780630f83a99c1461484e5780631017817c1461470a578063103f8829146146755780631121834f1461439857806313e7c9d81461435b57806316c38b3c1461429b5780631d997a6a14614092578063246683ce1461406f578063257076dd1461404357806327758b171461400757806327ff622314613feb57806329c07cf914613fcb5780632b7ffc9514613faa5780632c27750a14613e6c578063327d8bfc14613d29578063362d9b4814613cc75780633817975414613c7e5780633909b9de14613c635780633f4d10be14613baf57806340b8927014613b945780634162169f14613b6d578063460da41b14613b495780634a33fb7214613b265780634b9707c4146138b45780634cbb2f221461388b5780634ccf04cf146138675780634d4efe8e1461343b5780634e3ac7131461311a5780635037fc7d1461306c57806351c131f514612eb557806352a67c5d14612e9157806353a4257814612e6e578063558a729714612d7f57806356397c3514612d5757806359f827ad14612d1757806359f8661114612b805780635abfe2cf146127435780635bed56041461259e5780635c975abb1461257c5780635ed2ed9c1461252657806362238e8a1461242057806366101d51146123df57806366bb7b78146123bc578063691845e41461233b5780636a4b783d1461222b5780636b1cdab1146121185780636c010095146120785780636dd6e80b1461205057806372f557ee1461202c57806375055c53146120095780637b1f12a814611fed5780638101d30014611e355780638e20a25814611e0c578063900acd8014611def57806394c30e1a14611db357806399f68ac714611d8f5780639beeb53414611ce65780639d30f8d014611cb45780639e5f4e9d14611c90578063a1d51dcc14611c5f578063a5d4e06314611b52578063a61ff4e114611ad8578063a8a89dc014611869578063af216861146114af578063b25e4cf11461148e578063b2746eed1461146a578063b291d01114611432578063b3a5df9e14611415578063b3cc5642146113ba578063b7e2bf2f14611379578063bfda4181146110fd578063c1c44621146110d9578063c4a2db6514610fc4578063d47875d014610f9a578063d5b37a7f14610f56578063d74a5d0014610e7e578063dc99e34114610c49578063e29d04a214610ba2578063e3bf0aff14610b2f578063e710c92b14610b0b578063e7244bbd14610a7c578063e73a914c146109cb578063e7cce5d6146109a7578063ea0d5dcd146108bc578063edfcc437146106c6578063eed4ea8f14610689578063f07e96b314610648578063f6c97ed114610593578063f9c4f4d9146104565763fa41d56a14610431575f80fd5b34610452575f36600319011261045257602061ffff600f5416604051908152f35b5f80fd5b34610452575f3660031901126104525760ff6011541661058557335f52600c60205260ff60405f2054166105495761048d33616211565b61ffff80600f541691161061050e57335f52600c60205260405f20600160ff19825416179055337f900045c2cd74602d2cc377fa4ab9861abb55c4333c29ac3866c52d2bcb3f09a75f80a261050c6040516104e9604082614e8f565b60118152701b595b9d1bdc97dc9959da5cdd195c9959607a1b60208201526166c0565b005b60405162461bcd60e51b8152602060048201526013602482015272534545523a2073636f726520746f6f206c6f7760681b6044820152606490fd5b60405162461bcd60e51b815260206004820152601460248201527329a2a2a91d1030b63932b0b23c9036b2b73a37b960611b6044820152606490fd5b621e909d60ea1b5f5260045ffd5b34610452576020366003190112610452576004356001600160401b038111610452576105c3903690600401614f74565b6105cc816162a4565b915f5b8281106105f057604051602080825281906105ec90820187615068565b0390f35b6001906001600160a01b0361060e6106098387876154c0565b6154d0565b165f52600360205261ffff60405f20541680155f1461064357506113885b61ffff6106398388615540565b91169052016105cf565b61062c565b34610452576020366003190112610452576001600160a01b03610669614d21565b165f52601760205260206001600160401b0360405f205416604051908152f35b34610452576020366003190112610452576001600160a01b036106aa614d21565b165f52600c602052602060ff60405f2054166040519015158152f35b34610452576020366003190112610452576106df614d21565b60ff6011541661058557601854906106f960ff8316615a1d565b6001600160a01b0381165f818152601760205260409020546001600160401b03169290831561087a576001600160401b03620151808161073c81421697886150db565b16049260081c166001600160401b0383161061083b5761ffff9161075f84615139565b9490941693508361076c57005b61050c956107e05f516020616af05f395f51905f5293855f52600360205261ffff60405f20541692865f52600360205260405f2061ffff861661ffff19825416179055865f5260176020526001600160401b0360405f2091166001600160401b031982541617905560405193849384615a60565b0390a26040918251906107f38483614e8f565b60138252721cd8dbdc9957d91958d85e57d85c1c1b1a5959606a1b602083015261081f84519485614e8f565b600a845269696e616374697669747960b01b602085015261638c565b60405162461bcd60e51b8152602060048201526017602482015276534545523a206e6f742079657420646563617961626c6560481b6044820152606490fd5b60405162461bcd60e51b815260206004820152601a602482015279534545523a206e6f20616374697669747920746f20646563617960301b6044820152606490fd5b346104525760203660031901126104525760e06108d7614d21565b6108e081616211565b906108ea81615139565b50909160018060a01b031690815f5260176020526001600160401b0360405f205416825f52601660205260405f205491835f52601c6020526001600160401b03600260405f2001541615159384610987575b906001600160401b03915f52601060205261ffff60ff60405f20541696816040519916895216602088015216604086015260608501526080840152151560a0830152151560c0820152f35b5f818152601c60205260409081902060020154901c60ff1615945061093c565b34610452575f36600319011261045257602061ffff600f5460101c16604051908152f35b34610452576020366003190112610452576109e4614d21565b6109ec6162d6565b6001600160a01b03168015610a6d575f80546001600160a01b03198116831782556001600160a01b0316907f43cefe694890edd168d1075c3464baea1d7edcf0bc1a1648423ea65b5a2ac0919080a361050c604051610a4c604082614e8f565b600f81526e19185bd7dd1c985b9cd9995c9c9959608a1b60208201526166c0565b630409728b60e41b5f5260045ffd5b34610452576020366003190112610452576001600160a01b03610a9d614d21565b165f52600e60205260405f206040519081602082549182815201915f5260205f20905f5b818110610aec576105ec85610ad881870382614e8f565b60405191829160208352602083019061502c565b82546001600160a01b0316845260209093019260019283019201610ac1565b34610452575f36600319011261045257602061ffff601b5460401c16604051908152f35b3461045257604036600319011261045257610b48614d21565b610b50614d37565b9060018060a01b03165f52600660205260405f209060018060a01b03165f52602052606060405f20546001600160401b0360405191818116835261ffff8160401c16602084015260501c166040820152f35b34610452576020366003190112610452576004356001600160401b03811161045257610bd2903690600401614f74565b9081151580610c3e575b610be590615479565b610bee826162a4565b915f5b818110610c0e57604051602080825281906105ec90820187615068565b80610c27610c2261060960019486886154c0565b616211565b61ffff610c348388615540565b9116905201610bf1565b506064821115610bdc565b34610452576020366003190112610452576001600160a01b03610c6a614d21565b16805f52600760205260405f208054915f905f5b848110610e015750610c8f82615529565b93610c9d6040519586614e8f565b828552601f19610cac84615529565b01366020870137610cbc836162a4565b91610ccf610cc9856162a4565b946162a4565b945f915f5b848110610d2957610cff896105ec8a610d1b8b610d0d8c60405197889760808952608089019061502c565b908782036020890152615068565b90858203604087015261509f565b90838203606085015261509f565b815f52600660205260405f20610d3f82856154f1565b905460039190911b1c6001600160a01b03165f90815260209190915260409020546001600160401b03811642811180610df1575b610d82575b5050600101610cd4565b946001600160401b03610de99284978d610db685610da26001998c6154f1565b8a8060a01b0391549060031b1c1692615540565b5261ffff8260401c16610dc9858d615540565b52610dd4848d615540565b5260501c16610de3828c615540565b526153e0565b93908a610d78565b5061ffff8260401c161515610d73565b815f52600660205260405f20610e1782866154f1565b905460039190911b1c6001600160a01b03165f9081526020919091526040902054426001600160401b038216119081610e6d575b50610e59575b600101610c7e565b91610e656001916153e0565b929050610e51565b61ffff915060401c16151586610e4b565b3461045257604036600319011261045257610e97614d21565b610e9f614d37565b90610ea86162d6565b6001600160a01b03169081158015610f45575b610a6d57600180546001600160a01b03199081168417909155600280549091166001600160a01b0390921691821790556040519182527f15e04fee0c1335178e78e4dc6a8b0dcade867d1aea65418bf1200bc322ab7c2191602091907fbc62e69a31739e36d57d56991ac20e4e507a7edfff9070e6a11df5a37b8b4e6f908390a1604051908152a1005b506001600160a01b03811615610ebb565b34610452576040366003190112610452576001600160a01b03610f77614d21565b165f52600560205260405f206024355f52602052602060405f2054604051908152f35b34610452576020366003190112610452576020610fb8610c22614d21565b61ffff60405191168152f35b3461045257604036600319011261045257610fdd614d7a565b610fe5614d8b565b610fed6162d6565b6101f461ffff8316116110985761ffff16906103e882116110585763ffff00006015549160101b169063ffffffff1916171760155561050c604051611033604082614e8f565b60138152721bdc195c985d1bdc97db1a5b5a5d1cd7dcd95d606a1b60208201526166c0565b60405162461bcd60e51b81526020600482015260186024820152770a68a8aa47440dac2f040c8c2d2d8f240e8dede40d0d2ced60431b6044820152606490fd5b60405162461bcd60e51b81526020600482015260196024820152780a68a8aa47440dac2f040e6d2dcced8ca40e8dede40d0d2ced603b1b6044820152606490fd5b34610452575f36600319011261045257602061ffff600b5460d01c16604051908152f35b3461045257602036600319011261045257611116614d21565b60ff6011541661058557335f52600c60205260ff60405f20541615611341576001600160a01b0381169081151580611337575b156112fb575f828152600d60205260409020546001600160a01b03166112bc57335f52600e60205260405f2054600f549061ffff8260101c1611156112835761ffff8061119533616211565b9216911610611241575f828152600d6020908152604080832080546001600160a01b031916339081179091558352600e909152902061050c92906111da908390615506565b337f1bf74c66f4733e451868185ff432d08e19f3e4bc28fd5bcc2670180c6da92e995f80a360405161120d604082614e8f565b601081526f1b595b9d195957dcdc1bdb9cdbdc995960821b602082015260405191611239602084614e8f565b5f83526162f8565b60405162461bcd60e51b815260206004820152601a602482015279534545523a206d656e746f722073636f726520746f6f206c6f7760301b6044820152606490fd5b60405162461bcd60e51b8152602060048201526011602482015270534545523a206d6178206d656e7465657360781b6044820152606490fd5b60405162461bcd60e51b815260206004820152601760248201527629a2a2a91d1036b2b73a32b2903430b99036b2b73a37b960491b6044820152606490fd5b60405162461bcd60e51b8152602060048201526014602482015273534545523a20696e76616c6964206d656e74656560601b6044820152606490fd5b5033821415611149565b60405162461bcd60e51b815260206004820152601060248201526f29a2a2a91d103737ba1036b2b73a37b960811b6044820152606490fd5b34610452576020366003190112610452576001600160a01b0361139a614d21565b165f52600a60205260206001600160401b0360405f205416604051908152f35b34610452576040366003190112610452576113d3614d21565b6113db614d37565b9060018060a01b03165f52601260205260405f209060018060a01b03165f5260205260206001600160401b0360405f205416604051908152f35b34610452575f366003190112610452576020601f54604051908152f35b34610452576020366003190112610452576001600160a01b03611453614d21565b165f52601a602052602060405f2054604051908152f35b34610452575f36600319011261045257602061ffff600b5460401c16604051908152f35b34610452575f36600319011261045257602061ffff60155416604051908152f35b34610452576020366003190112610452576004356001600160401b038111610452576114df903690600401614dbe565b908115158061185d575b6114f2906152b6565b335f52601e602052600260405f2001546001600160401b0381161590811561184f575b5015611813576040519160c083018381106001600160401b0382111761178257604052338352611546368284615300565b6020840190815260408401936001600160401b034216855260608101945f8652608082015f81526020966040519461157e8987614e8f565b5f80875260a08601968752338152601e8a5260409020945185546001600160a01b0319166001600160a01b039190911617855551805160018601916001600160401b038211611782576115db826115d58554614e3c565b85615345565b8a90601f83116001146117a1579261160a836116369460039a99979461163f99975f92611796575b5050615394565b90555b6001600160401b038060028801955116166001600160401b0319855416178455511515836153a6565b511515906153c3565b0190518051906001600160401b03821161178257611661826115d58554614e3c565b8590601f83116001146117165782611704959361050c9897959361168c935f9261170b575050615394565b90555b61169a601f546153e0565b601f556040518481527f847065330edb730c1ec21ebbf03603a63880d25a2480c3b9852d0551ad80756d3391806116d488820186886153ee565b0390a26b185c1c19585b17d99a5b195960a21b604051946116f6604087614e8f565b600c86528501523691615300565b90336162f8565b015190508980611603565b90601f19831691845f52875f20925f5b81811061176b5750926001928592611704989661050c9b9a989610611753575b505050811b01905561168f565b01515f1960f88460031b161c19169055888080611746565b929389600181928786015181550195019301611726565b634e487b7160e01b5f52604160045260245ffd5b015190508f80611603565b5f8481528c8120929190601f198516908e5b8282106117fb5750509360039998969361163f9896936001938361163698106117e4575b505050811b01905561160d565b01515f19838d1b60f8161c191690558e80806117d7565b806001869782949787015181550196019401906117b3565b60405162461bcd60e51b8152602060048201526014602482015273534545523a2061707065616c2070656e64696e6760601b6044820152606490fd5b60ff915060401c1683611515565b506101f48211156114e9565b3461045257606036600319011261045257611882614d21565b61188a614d6b565b906044356001600160401b038111610452576118aa903690600401614dbe565b906118b36162d6565b6001600160a01b0383165f818152601e6020526040902060028101805491906001600160401b03831615611aa15760ff8360401c16611a645760ff60401b19909216600160401b17825560039161190b9088906153c3565b01946001600160401b0384116117825761192f846119298854614e3c565b88615345565b5f95601f85116001146119ea576119c79392915f516020616a305f395f51905f5291611967878061050c9b5f916119df575b50615394565b90555b601f54806119cd575b50604051901515815260406020820152806119926040820188876153ee565b0390a2604051926119a4604085614e8f565b600f84526e185c1c19585b17dc995cdbdb1d9959608a1b60208501523691615300565b916162f8565b6119d69061546d565b601f5588611973565b90508701358c611961565b601f19851696815f5260205f20975f5b818110611a4c57509161050c986119c796959492885f516020616a305f395f51905f529510611a33575b5050600187811b01905561196a565b8601355f1960038a901b60f8161c191690558980611a24565b868301358a55600190990198602092830192016119fa565b60405162461bcd60e51b815260206004820152601560248201527414d151548e88185c1c19585b081c995cdbdb1d9959605a1b6044820152606490fd5b60405162461bcd60e51b815260206004820152600f60248201526e14d151548e881b9bc8185c1c19585b608a1b6044820152606490fd5b346104525760203660031901126104525760043560195481101561045257611aff90615010565b5080546001600160a01b03166002611b1960018401614eb0565b92015460ff611b3a6040519485948552608060208601526080850190614f50565b91818116604085015260081c16151560608301520390f35b3461045257602036600319011261045257611b6b614d21565b6001600160a01b0381165f81815260076020526040812080549293919290835b828110611bcb576060858761ffff611ba288616903565b16905f52600960205261ffff60405f2054169061ffff6040519316835260208301526040820152f35b855f52600660205260405f20611be182846154f1565b905460039190911b1c6001600160a01b03165f9081526020919091526040902054426001600160401b038216119081611c4e575b50611c23575b600101611b8b565b9361ffff1661ffff8114611c3a5760010193611c1b565b634e487b7160e01b5f52601160045260245ffd5b61ffff915060401c16151587611c15565b34610452576040366003190112610452576020611c86611c7d614d21565b602435906161c1565b6040519015158152f35b34610452575f36600319011261045257602061ffff60155460101c16604051908152f35b346104525760406001600160401b03611cd5611ccf36614fa4565b91615a85565b835191151582529091166020820152f35b346104525760203660031901126104525760e0611d01614d21565b61ffff611d0d82616211565b600f546001600160a01b039384165f908152600c6020908152604080832054600d835281842054600e90935292205460ff9092161595928516928692911690851682611d81575b604051961587528160208801526040870152151560608601521515608085015260a08401521660c0820152f35b915082858516101591611d54565b34610452575f36600319011261045257602061ffff600b5460101c16604051908152f35b34610452576020366003190112610452576001600160a01b03611dd4614d21565b165f526009602052602061ffff60405f205416604051908152f35b34610452575f366003190112610452576020601d54604051908152f35b34610452575f3660031901126104525760206001600160401b0360185460081c16604051908152f35b34610452576020366003190112610452576004356001600160401b03811161045257611e65903690600401614f74565b9060ff6011541661058557611e7e60ff60185416615a1d565b81151580611fe2575b15611fa757426001600160401b03165f5b838110611ea157005b80611eb261060960019387876154c0565b828060a01b03811690815f5260176020526001600160401b0360405f2054168015611f9f576001600160401b03611eed6201518092886150db565b1604906001600160401b0360185460081c166001600160401b03831610611f9f57611f1a61ffff91615139565b905091909116611f2f575b5050505b01611e98565b5f838152600360209081526040808320805461ffff86811661ffff1983161790925560179093529281902080546001600160401b038b166001600160401b0319909116179055515f516020616af05f395f51905f529490938493611f94931684615a60565b0390a2858080611f25565b505050611f29565b60405162461bcd60e51b81526020600482015260136024820152720a68a8aa47440d2dcecc2d8d2c840c4c2e8c6d606b1b6044820152606490fd5b506032821115611e87565b34610452575f3660031901126104525760206040516113888152f35b34610452576020366003190112610452576020610fb8612027614d21565b615862565b34610452575f36600319011261045257602061ffff600b5460301c16604051908152f35b34610452575f366003190112610452576002546040516001600160a01b039091168152602090f35b34610452576020366003190112610452576001600160a01b03612099614d21565b1680330361210b575b805f52600c60205260405f2060ff1981541690557f5808667fab0acf73544191fca46e124794dcc62e60b174ac3f5c88b7b52994255f80a261050c6040516120eb604082614e8f565b600e81526d1b595b9d1bdc97dc995d9bdad95960921b60208201526166c0565b6121136162d6565b6120a2565b346104525760403660031901126104525760043560ff81168091036104525760243560ff8116918282036104525761214e6162d6565b82810160ff8111611c3a5760ff60649116036121e6577fdc0c1a85c25b1a7535e6884d4ffc9fc836d9897f70e1a7f1c36c97eef3bcdf9c926040928261ff00601b549260081b169161ffff19161717601b5582519182526020820152a161050c6040516121bc604082614e8f565b6018815277191958d95b9d1c985b1a5e985d1a5bdb97dd5c19185d195960421b60208201526166c0565b60405162461bcd60e51b815260206004820152601d60248201527f534545523a2077656967687473206d7573742073756d20746f203130300000006044820152606490fd5b346104525760203660031901126104525760ff612249610c22614d21565b601b5461ffff91821691601082901c1682116122c4575f9161ffff6122a6604051612275604082614e8f565b6009815268131bddc8151c9d5cdd60ba1b60208201525b604051968796168652608060208701526080860190614f50565b92818160301c16831015604086015260401c16111560608301520390f35b602081901c61ffff1682106123065760029161ffff6122a66040516122ea604082614e8f565b600a815269121a59da08151c9d5cdd60b21b602082015261228c565b60019161ffff6122a660405161231d604082614e8f565b600c81526b1359591a5d5b48151c9d5cdd60a21b602082015261228c565b3461045257604036600319011261045257612354614d21565b6001600160a01b03165f908152601660205260409020805460243591908210156104525760809161238491614fe3565b50600181549101546001600160401b036040519261ffff8116845261ffff8160101c16602085015260201c1660408301526060820152f35b34610452576020366003190112610452576020610fb86123da614d21565b615554565b34610452576020366003190112610452576001600160a01b03612400614d21565b165f52601460205260206001600160401b0360405f205416604051908152f35b3461045257602036600319011261045257612439614d21565b6124416162d6565b6001600160a01b03165f818152601a602052604090205480156124e8575f198101908111611c3a57612474600291615010565b500161ff00198154169055805f52601a6020525f60408120557f826628d8ed5b5660f5dcbab7a54b068dec5e76bbbe84185612d70605652b3a015f80a261050c6040516124c2604082614e8f565b60148152731cd8dbdc9957dcdbdd5c98d957dc995b5bdd995960621b60208201526166c0565b60405162461bcd60e51b815260206004820152601660248201527514d151548e881cdbdd5c98d9481b9bdd08199bdd5b9960521b6044820152606490fd5b346104525760403660031901126104525761253f614d21565b612547614d37565b9060018060a01b03165f52601360205260405f209060018060a01b03165f52602052602061ffff60405f205416604051908152f35b34610452575f36600319011261045257602060ff601154166040519015158152f35b34610452576020366003190112610452576001600160a01b036125bf614d21565b165f52601660205260405f20805490600a82115f1461273d57600a5b6125e481615529565b916125f26040519384614e8f565b818352601f1961260183615529565b015f5b81811061270e5750505f5b828110612695578385604051918291604083019083526040602084015281518091526020606084019201905f5b81811061264a575050500390f35b91935091602060806001926060875161ffff815116835261ffff8582015116858401526001600160401b0360408201511660408401520151606082015201940191019184939261263c565b82850390858211611c3a576126b56126af826001946154e4565b84614fe3565b5082604051916126c483614e74565b6001600160401b03815461ffff8116855261ffff8160101c16602086015260201c166040840152015460608201526126fc8287615540565b526127078186615540565b500161260f565b60209060405161271d81614e74565b5f81525f838201525f60408201525f606082015282828801015201612604565b816125db565b346104525761275136614fa4565b60ff60119392935416610585576001600160a01b0382169081158015612b77575b612b685760a08111612b5957600b54916001600160401b038360901c1680612ae1575b5061ffff806127a333616211565b169360d01c168310612ac3576127b884616766565b5f8181526006602090815260408083203384529091529020546001600160401b03164210612ad257805f52600760205261ffff60405f20541694600b5461ffff8160301c16871015612ac357335f52600960205261ffff60405f20541661ffff8260401c161115612ac35761ffff81169461ffff601b5460201c161115612ab3575b61284333615b11565b612aa3575b61ffff8160101c168061ffff871611612a9b575b5061287561ffff61286c88616903565b961680966154e4565b61ffff8260201c1610612a5e576128996001600160401b03809260501c16426154e4565b16916001600160401b0342169260405193606085018581106001600160401b0382111761178257604090815282865260208087018981528288018481525f87815260068452848120338083529085528582209a518b54945193516001600160901b03199095166001600160401b03919091161792861b61ffff60401b169290921760509390931b600160501b600160901b03169290921790985585815260079091522061050c99612a5896612957926129529190615506565b61510f565b835f52600860205261ffff60405f20911661ffff19825416179055335f52600960205260405f2061ffff61298d8183541661510f565b1661ffff19825416179055335f52600a60205260405f206001600160401b0382166001600160401b0319825416179055825f5260176020526001600160401b0360405f2091166001600160401b0319825416179055604051908682526020820152606060408201527fd7b6373d0cc8185cacb0cd7341ab8a20f17ea855f4ff4b8199ff544d5335b5af339180612a276060820189886153ee565b0390a360405192612a39604085614e8f565b600b84526a195b991bdc9cd95b595b9d60aa1b60208501523691615300565b9261638c565b60405162461bcd60e51b81526020600482015260156024820152740534545523a20656e646f7273656d656e742063617605c1b6044820152606490fd5b94508761285c565b93612aad906150fb565b93612848565b93612abd906150fb565b9361283a565b63cb450d2360e01b5f5260045ffd5b635361ab1760e01b5f5260045ffd5b335f52600a6020526001600160401b0360405f205416016001600160401b038111611c3a576001600160401b03164210612b1b5785612795565b60405162461bcd60e51b815260206004820152601660248201527529a2a2a91d1032b73237b939b29031b7b7b63237bbb760511b6044820152606490fd5b6302f9198160e51b5f5260045ffd5b63f973482560e01b5f5260045ffd5b50338214612772565b34610452576080366003190112610452576004356001600160401b03811161045257612bb0903690600401614f74565b60243591612bbc614d4d565b9260643590612bc96162d6565b83151580612d0c575b612bdb90615479565b5f5b848110612c6a5761050c858715612c3657604051612bfc604082614e8f565b601381527218985919d957d8985d18da17d9dc985b9d1959606a1b6020820152905b60405191612c2d602084614e8f565b5f83523061638c565b604051612c44604082614e8f565b601381527218985919d957d8985d18da17dc995d9bdad959606a1b602082015290612c1e565b6001906001600160a01b03612c836106098389896154c0565b16805f52600460205260405f20845f52602052612caf8860405f209060ff801983541691151516179055565b8780612d03575b15612cd9575f52600560205260405f20835f526020528360405f20555b01612bdd565b8715612ce6575b50612cd3565b5f52600560205260405f20835f526020525f604081205587612ce0565b50841515612cb6565b506064841115612bd2565b34610452576020366003190112610452576001600160a01b03612d38614d21565b165f52600d602052602060018060a01b0360405f205416604051908152f35b34610452575f366003190112610452576001546040516001600160a01b039091168152602090f35b3461045257604036600319011261045257612d98614d21565b612da0614d6b565b90612da96162d6565b6001600160a01b03168015610a6d57805f526010602052612dd98260405f209060ff801983541691151516179055565b7f1a594081ae893ab78e67d9b9e843547318164322d32c65369d78a96172d9dc8f60206040518415158152a215612e3b5761050c604051612e1b604082614e8f565b600e81526d1bdc195c985d1bdc97d85919195960921b60208201526166c0565b61050c604051612e4c604082614e8f565b601081526f1bdc195c985d1bdc97dc995b5bdd995960821b60208201526166c0565b34610452575f36600319011261045257602060ff601b5460081c16604051908152f35b34610452575f36600319011261045257602061ffff601b5460101c16604051908152f35b3461045257602036600319011261045257612ece614d21565b6001600160a01b038181165f818152600d60205260409020549091169190821561303557823303613028575b825f52600e60205260405f20928354935f5b858110612f92575b50505f828152600d6020526040812080546001600160a01b031916905561050c94507fc890e92b7f9c8c46c61cd0ac0d88ba6817effe750591001f30845df0f3645fd89080a3604051612f68604082614e8f565b600e81526d1b595b9d195957dc995b5bdd995960921b602082015260405191611239602084614e8f565b83612f9d82846154f1565b905460039190911b1c6001600160a01b031614612fbc57600101612f0c565b905f198601958611611c3a5761301c61302192612ff8612fdf61050c99856154f1565b905460039190911b1c6001600160a01b031691846154f1565b9080546001600160a01b0360039390931b83811b199091169290931690921b179055565b61673a565b8480612f14565b6130306162d6565b612efa565b60405162461bcd60e51b815260206004820152600f60248201526e29a2a2a91d1037379036b2b73a37b960891b6044820152606490fd5b34610452576020366003190112610452576001600160a01b0361308d614d21565b165f908152601e6020526040902080546001600160a01b03166105ec6130b560018401614eb0565b926130c7600360028301549201614eb0565b60ff6130e5604051968796875260c0602088015260c0870190614f50565b926001600160401b0381166040870152818160401c161515606087015260481c161515608085015283820360a0850152614f50565b3461045257606036600319011261045257613133614d21565b6024356001600160401b03811161045257613152903690600401614dbe565b906044359260ff84168094036104525761316a6162d6565b6001600160a01b031691821561340257606484116133c857825f52601a60205260405f205461338d57604051936131a085614e74565b8385526131ae368385615300565b94602081019586526040810190828252606081019060018252601954600160401b811015611782578060016131e69201601955615010565b91909161337a575181546001600160a01b0319166001600160a01b03919091161781559651805190979060018201906001600160401b03811161178257613237816132318454614e3c565b84615345565b6020601f8211600114613303579161326d8260ff95936002955f516020616c305f395f51905f529d9e5f926132f8575050615394565b90555b0192511660ff1983541617825551151561ff0082549160081b169061ff001916179055601954855f52601a60205260405f20556132ba6040519384936040855260408501916153ee565b9060208301520390a261050c6040516132d4604082614e8f565b60128152711cd8dbdc9957dcdbdd5c98d957d85919195960721b60208201526166c0565b015190508e80611603565b601f1982169a835f52815f209b5f5b8181106133625750925f516020616c305f395f51905f529b9c600295936001938360ff99971061334a575b505050811b019055613270565b01515f1960f88460031b161c191690558d808061333d565b838301518e556001909d019c60209384019301613312565b634e487b7160e01b5f525f60045260245ffd5b60405162461bcd60e51b8152602060048201526013602482015272534545523a20736f757263652065786973747360681b6044820152606490fd5b60405162461bcd60e51b81526020600482015260126024820152710534545523a20776569676874203e203130360741b6044820152606490fd5b60405162461bcd60e51b8152602060048201526011602482015270534545523a207a65726f20736f7572636560781b6044820152606490fd5b346104525761010036600319011261045257613455614d7a565b61345d614d8b565b90613466614d9c565b9161346f614dad565b9060843561ffff8116918282036104525760a435936001600160401b0385168086036104525760c435966001600160401b0388168089036104525760e4359261ffff8416928385036104525761ffff906134c76162d6565b16978815158061385c575b1561381d5761ffff8716898110159081613810575b50156137d2578861ffff8d16106137975761ffff8616801515908161378b575b5015613752578015159081613746575b501561370f5762093a808110159081613700575b50156136c45761025881101590816136b6575b501561367a57600a811015908161366d575b501561363057600b805460909890981b67ffffffffffffffff60901b1660509790971b600160501b600160901b0316600160301b600160e01b03199096166001600160e01b03199098169790971760109390931b63ffff0000169290921760209790971b61ffff60201b169690961760309690961b61ffff60301b1695909517604091821b61ffff60401b1617919091179190911760d09390931b61ffff60d01b16929092179055805161050c916136089082614e8f565b6016815275195b991bdc9cd95b595b9d17dc1bdb1a58de57dcd95d60521b60208201526166c0565b60405162461bcd60e51b8152602060048201526015602482015274534545523a206d696e2073636f72652072616e676560581b6044820152606490fd5b6127109150111589613550565b60405162461bcd60e51b8152602060048201526014602482015273534545523a20636f6f6c646f776e2072616e676560601b6044820152606490fd5b62093a80915011158a61353e565b60405162461bcd60e51b8152602060048201526014602482015273534545523a2076616c69646974792072616e676560601b6044820152606490fd5b6301e13380915011158b61352b565b60405162461bcd60e51b815260206004820152600f60248201526e0534545523a20676976656e2063617608c1b6044820152606490fd5b60c8915011158c613517565b60405162461bcd60e51b81526020600482015260116024820152700534545523a207375626a6563742063617607c1b6044820152606490fd5b6032915011158d613507565b60405162461bcd60e51b8152602060048201526013602482015272534545523a20626f6e757320636170206c6f7760681b6044820152606490fd5b60405162461bcd60e51b815260206004820152601660248201527529a2a2a91d1036b0bc103832b91032b73237b939b2b960511b6044820152606490fd5b61012c915011158d6134e7565b60405162461bcd60e51b8152602060048201526017602482015276534545523a2062617365206f7574206f662072616e676560481b6044820152606490fd5b5060c88911156134d2565b34610452575f36600319011261045257602061ffff601b5460301c16604051908152f35b34610452575f3660031901126104525760206001600160401b03600b5460501c16604051908152f35b34610452576060366003190112610452576138cd614d21565b6138d5614d6b565b90604435918260010b809303610452576138ed6162d6565b6001600160a01b0382165f818152601c6020526040902060020180546001600160401b03811615613ae85760ff8160401c16613aaa5760ff60401b1916600160401b17815561050c947f2eec6b0a78eba6860ae5bb6579b36b4b751ba52ee7d16723279b46572c96469d91604091906139679086906153c3565b8480613aa1575b6139f9575b601d54806139e7575b5081519085151582526020820152a2156139e0576001905b6040516139a2604082614e8f565b60168152751cd8dbdc9957d91a5cdc1d5d1957dc995cdbdb1d995960521b602082015260ff604051936139d6602086614e8f565b5f8552169161638c565b5f90613994565b6139f09061546d565b601d558761397c565b835f516020616a505f395f51905f5260a061ffff613a168a616211565b16613a218582615452565b600a8112613a99575b6127108113613a90575b5f85815260036020908152888220805461ffff191661ffff948516179055908890205488519384529091169082015260608187018190526010908201526f191a5cdc1d5d1957dc995cdbdb1d995960821b6080820152a2613973565b50612710613a34565b50600a613a2a565b5080151561396e565b60405162461bcd60e51b815260206004820152601660248201527514d151548e88185b1c9958591e481c995cdbdb1d995960521b6044820152606490fd5b60405162461bcd60e51b815260206004820152601660248201527514d151548e881b9bc8191a5cdc1d5d1948199bdd5b9960521b6044820152606490fd5b34610452575f36600319011261045257602061ffff601b54821c16604051908152f35b34610452575f36600319011261045257602061ffff60185460481c16604051908152f35b34610452575f366003190112610452575f546040516001600160a01b039091168152602090f35b34610452575f366003190112610452576020604051600a8152f35b3461045257613bbd36614deb565b613bc89392936162d6565b6001600160a01b038316938415610a6d5761ffff8116926127108411612b595761050c955f516020616a505f395f51905f52612a5893613c0788616211565b835f52600360205260405f208861ffff19825416179055613c2f87866040519485948561542d565b0390a260405192613c41604085614e8f565b600e84526d1cd9595c97dcd8dbdc9957dcd95d60921b60208501523691615300565b34610452575f36600319011261045257602060405160328152f35b34610452576040366003190112610452576001600160a01b03613c9f614d21565b165f52600460205260405f206024355f52602052602060ff60405f2054166040519015158152f35b34610452575f366003190112610452575f6019545f5b818110613cf4575060409182519182526020820152f35b60ff6002613d0183615010565b50015460081c16613d15575b600101613cdd565b91613d216001916153e0565b929050613d0d565b3461045257606036600319011261045257613d42614d5c565b6024356001600160401b03811680820361045257601e613d60614d9c565b91613d696162d6565b10613e29576101f461ffff821611613de75768ffffffffffffffff009060ff6018549161ffff60481b9060481b16941515169060018060581b031916179160081b16171760185561050c604051613dc1604082614e8f565b6014815273191958d85e57d8dbdb999a59d7dd5c19185d195960621b60208201526166c0565b60405162461bcd60e51b815260206004820152601a602482015279534545523a20646563617920746f6f206167677265737369766560301b6044820152606490fd5b60405162461bcd60e51b815260206004820152601b60248201527a14d151548e88191958d85e481cdd185c9d081d1bdbc81cda1bdc9d602a1b6044820152606490fd5b3461045257602036600319011261045257613e85614d21565b6001600160a01b0381165f8181526003602052604090205461ffff16908115613f99575b613ebb613eb584615862565b93616211565b92601b549060018060a01b03600254168015159384613f10575b50509061ffff60c0958160ff948160405198168852166020870152166040850152818116606085015260081c166080830152151560a0820152f35b60209193929450602460405180958193630709df4560e01b835260048301525afa8015613f8e5760c09561ffff809260ff955f91613f5f575b5060018060a01b03161515959394505095613ed5565b613f81915060203d602011613f87575b613f798183614e8f565b81019061540e565b89613f49565b503d613f6f565b6040513d5f823e3d90fd5b9050613fa482615554565b90613ea9565b34610452575f36600319011261045257602061ffff600b5416604051908152f35b34610452575f36600319011261045257602060ff601b5416604051908152f35b34610452575f3660031901126104525760206040516127108152f35b34610452576020366003190112610452576001600160a01b03614028614d21565b165f526008602052602061ffff60405f205416604051908152f35b346104525760203660031901126104525761405c614d21565b60ff601154166105855761050c90616766565b34610452575f36600319011261045257602061ffff600b54821c16604051908152f35b34610452576140a036614deb565b919260018060a01b035f541633141580614284575b6142755760ff601154166105855761ffff60155460101c169061ffff851691821161423057335f526014602052620151806001600160401b0360405f205416016001600160401b038111611c3a576001600160401b03164210156141e0575b335f52601360205260405f2060018060a01b0382165f526020526141408561ffff60405f205416615123565b61ffff80601554169116116141915761050c94335f52601360205260405f2060018060a01b0383165f5260205261ffff61418160405f209282845416615123565b1661ffff19825416179055616426565b60405162461bcd60e51b815260206004820152602160248201527f534545523a206461696c7920726577617264206c696d697420657863656564656044820152601960fa1b6064820152608490fd5b335f90815260146020908152604080832080546001600160401b031916426001600160401b0316179055601382528083206001600160a01b03851684529091529020805461ffff19169055614114565b60405162461bcd60e51b815260206004820152601f60248201527f534545523a207265776172642065786365656473206d61782073696e676c65006044820152606490fd5b634c87459760e11b5f5260045ffd5b50335f52601060205260ff60405f205416156140b5565b34610452576020366003190112610452576142b4614d5c565b6142bc6162d6565b7f0e2fb031ee032dc02d8011dc50b816eb450cf856abd8261680dac74f72165bd2602082151560ff196011541660ff821617601155604051908152a11561432b5761050c60405161430e604082614e8f565b600b81526a1cd9595c97dc185d5cd95960aa1b60208201526166c0565b61050c60405161433c604082614e8f565b600d81526c1cd9595c97dd5b9c185d5cd959609a1b60208201526166c0565b34610452576020366003190112610452576001600160a01b0361437c614d21565b165f526010602052602060ff60405f2054166040519015158152f35b34610452576020366003190112610452576004356001600160401b038111610452576143c8903690600401614dbe565b80151580614669575b6143da906152b6565b335f52601c6020526001600160401b03600260405f2001541615801561464d575b156146105760405160a081018181106001600160401b038211176117825760405233815261442a368385615300565b6020828101918252426001600160401b0390811660408086019182525f6060870181815260808801828152338352601c909652919020955186546001600160a01b0319166001600160a01b039190911617865593518051919593949392600184019291908211611782576144a2826115d58554614e3c565b602090601f8311600114614590576001600160401b036002611704999661050c9c99966144e187611636986145019c9887985f92614585575050615394565b90555b01955116166001600160401b0319855416178455511515836153a6565b61450c601d546153e0565b601d55604051602081527fb23ac579e6192f602dcd9cb4739d7aac62bf98df815a123ea748071d25b808753391806145486020820188876153ee565b0390a26040519261455a604085614e8f565b60178452761cd8dbdc9957d91a5cdc1d5d1957dc995c5d595cdd1959604a1b60208501523691615300565b015190505f80611603565b90601f19831691845f52815f20925f5b8181106145f85750611704999661050c9c99966001876145019b976001600160401b039788976116369b600298106145e0575b505050811b0190556144e4565b01515f1960f88460031b161c191690555f80806145d3565b929360206001819287860151815501950193016145a0565b60405162461bcd60e51b8152602060048201526015602482015274534545523a20646973707574652070656e64696e6760581b6044820152606490fd5b50335f52601c60205260ff600260405f20015460401c166143fb565b506101f48111156143d1565b34610452576020366003190112610452576001600160a01b03614696614d21565b165f908152601c6020526040902080546001600160a01b031660026146bd60018401614eb0565b92015460ff6146de604051948594855260a0602086015260a0850190614f50565b916001600160401b0381166040850152818160401c161515606085015260481c16151560808301520390f35b3461045257604036600319011261045257614723614d7a565b61ffff61472e614d8b565b916147376162d6565b169061138882101580614842575b156147fd5761ffff8116916001831015806147f2575b156147ad577f273cee8c4dd4641fdf7f817df77d9ad070ab040ab68b2b923bf6a49c6ec673ee926040928263ffff0000600f549260101b169163ffffffff19161717600f5582519182526020820152a1005b60405162461bcd60e51b815260206004820152601d60248201527f534545523a206d656e746f72206d6178206f7574206f662072616e67650000006044820152606490fd5b5060c883111561475b565b60405162461bcd60e51b815260206004820152601d60248201527f534545523a206d656e746f72206d696e206f7574206f662072616e67650000006044820152606490fd5b50612710821115614745565b3461045257608036600319011261045257614867614d7a565b61486f614d8b565b90614878614d9c565b614880614dad565b906148896162d6565b61ffff84169161ffff841692808411612b59576127108111612b59576103e88410614a6c5761251c8111614a275761ffff831691610bb883106149d75761ffff811693610bb88510614993577f41bc9bed7ea81d63e5ff2964100fd598eb19876ddea235344dab5ef7c0af0c8997608097601b549361ffff60401b9060401b169363ffff000061ffff60401b199260101b169067ffffffffffff0000191617169061ffff60201b9060201b16179061ffff60301b9060301b161717601b55604051938452602084015260408301526060820152a161050c60405161496e604082614e8f565b60138152721cd9595c97dd1a1c995cda1bdb191cd7dcd95d606a1b60208201526166c0565b606460405162461bcd60e51b815260206004820152602060248201527f534545523a206d65726368616e74207468726573686f6c6420746f6f206c6f776044820152fd5b60405162461bcd60e51b815260206004820152602260248201527f534545523a20676f7665726e616e6365207468726573686f6c6420746f6f206c6044820152616f7760f01b6064820152608490fd5b60405162461bcd60e51b815260206004820152601d60248201527f534545523a2068696768207468726573686f6c6420746f6f20686967680000006044820152606490fd5b60405162461bcd60e51b815260206004820152601b60248201527a534545523a206c6f77207468726573686f6c6420746f6f206c6f7760281b6044820152606490fd5b34610452575f36600319011261045257602060ff601854166040519015158152f35b3461045257614adf36614deb565b919260018060a01b035f541633141580614b6d575b6142755760ff601154166105855761ffff8060155460101c169416938411614b2857614b2261050c9461528c565b90616426565b60405162461bcd60e51b815260206004820152601f60248201527f534545523a2070756e6973682065786365656473206d61782073696e676c65006044820152606490fd5b50335f52601060205260ff60405f20541615614af4565b346104525760203660031901126104525760606001600160401b0361ffff614bb2614bad614d21565b615139565b9193908360405195168552166020840152166040820152f35b346104525760803660031901126104525761050c614be7614d21565b602435614bf2614d4d565b606435614bfd6162d6565b60018060a01b038416805f52600460205260405f20845f52602052614c318360405f209060ff801983541691151516179055565b8280614cf2575b15614cc6575f52600560205260405f20835f5260205260405f20555b15614c9957604051614c67604082614e8f565b600d81526c18985919d957d9dc985b9d1959609a1b60208201525b60405192614c91602085614e8f565b5f845261638c565b604051614ca7604082614e8f565b600d81526c18985919d957dc995d9bdad959609a1b6020820152614c82565b90508115614cd5575b50614c54565b5f52600560205260405f20825f526020525f604081205584614ccf565b50811515614c38565b34610452575f366003190112610452576020906001600160401b03600b5460901c168152f35b600435906001600160a01b038216820361045257565b602435906001600160a01b038216820361045257565b60443590811515820361045257565b60043590811515820361045257565b60243590811515820361045257565b6004359061ffff8216820361045257565b6024359061ffff8216820361045257565b6044359061ffff8216820361045257565b6064359061ffff8216820361045257565b9181601f84011215610452578235916001600160401b038311610452576020838186019501011161045257565b6060600319820112610452576004356001600160a01b0381168103610452579160243561ffff811681036104525791604435906001600160401b03821161045257614e3891600401614dbe565b9091565b90600182811c92168015614e6a575b6020831014614e5657565b634e487b7160e01b5f52602260045260245ffd5b91607f1691614e4b565b608081019081106001600160401b0382111761178257604052565b90601f801991011681019081106001600160401b0382111761178257604052565b9060405191825f825492614ec384614e3c565b8084529360018116908115614f2e5750600114614eea575b50614ee892500383614e8f565b565b90505f9291925260205f20905f915b818310614f12575050906020614ee8928201015f614edb565b6020919350806001915483858901015201910190918492614ef9565b905060209250614ee894915060ff191682840152151560051b8201015f614edb565b805180835260209291819084018484015e5f828201840152601f01601f1916010190565b9181601f84011215610452578235916001600160401b038311610452576020808501948460051b01011161045257565b906040600319830112610452576004356001600160a01b03811681036104525791602435906001600160401b03821161045257614e3891600401614dbe565b8054821015614ffc575f5260205f209060011b01905f90565b634e487b7160e01b5f52603260045260245ffd5b601954811015614ffc5760195f52600360205f20910201905f90565b90602080835192838152019201905f5b8181106150495750505090565b82516001600160a01b031684526020938401939092019160010161503c565b90602080835192838152019201905f5b8181106150855750505090565b825161ffff16845260209384019390920191600101615078565b90602080835192838152019201905f5b8181106150bc5750505090565b82516001600160401b03168452602093840193909201916001016150af565b906001600160401b03809116911603906001600160401b038211611c3a57565b61ffff600a9116019061ffff8211611c3a57565b61ffff60019116019061ffff8211611c3a57565b9061ffff8091169116019061ffff8211611c3a57565b61514281616211565b6001600160a01b039091165f908152601760205260409020546001600160401b03168015801561527f575b615277576001600160401b0361518962015180928242166150db565b16049081601854906001600160401b038260081c1690816001600160401b0382161061526c575061ffff601e6001600160401b036151c88194886150db565b16049260481c16911602806001600160401b03811603611c3a5761ffff169061ffff81169061138882115f1461522b57506113871981019061ffff8211611c3a57829161ffff1682111561521e57505061138892565b0361ffff8111611c3a5792565b90611388811015615264576113880361ffff8111611c3a57829061ffff1681111561525857505061138892565b61526191615123565b92565b505061138892565b949350505091905f90565b50905f905f90565b5060ff601854161561516d565b600160ff1b8114611c3a575f0390565b9063ffff000082549160101b169063ffff00001916179055565b156152bd57565b60405162461bcd60e51b815260206004820152601b60248201527a0a68a8aa47440d2dcecc2d8d2c840e4cac2e6dedc40d8cadccee8d602b1b6044820152606490fd5b9291926001600160401b0382116117825760405191615329601f8201601f191660200184614e8f565b829481845281830111610452578281602093845f960137010152565b601f821161535257505050565b5f5260205f20906020601f840160051c8301931061538a575b601f0160051c01905b81811061537f575050565b5f8155600101615374565b909150819061536b565b8160011b915f199060031b1c19161790565b805460ff60401b191691151560401b60ff60401b16919091179055565b805460ff60481b191691151560481b60ff60481b16919091179055565b5f198114611c3a5760010190565b908060209392818452848401375f828201840152601f01601f1916010190565b9081602091031261045257516001600160a01b03811681036104525790565b61ffff61544f95938160609416835216602082015281604082015201916153ee565b90565b9190915f8382019384129112908015821691151617611c3a57565b8015611c3a575f190190565b1561548057565b60405162461bcd60e51b8152602060048201526018602482015277534545523a20696e76616c69642062617463682073697a6560401b6044820152606490fd5b9190811015614ffc5760051b0190565b356001600160a01b03811681036104525790565b91908201809211611c3a57565b8054821015614ffc575f5260205f2001905f90565b80549190600160401b8310156117825782612ff8916001614ee8950181556154f1565b6001600160401b0381116117825760051b60200190565b8051821015614ffc5760209160051b010190565b6001600160a01b03811690811561584757600254611388926001600160a01b0390911690816157dd575b50505f9161558b82615b81565b6157d4575b61559982615be5565b6157c2575b6155a782615c49565b6157b0575b6155b582615cad565b61579e575b6155c382615d11565b61578c575b6155d182615d75565b61577a575b6155df82615dd9565b615768575b6155ed82615b11565b615756575b6155fb82615e3d565b615744575b61560982615ea1565b615732575b61561782615f05565b615720575b61562582615f69565b61570e575b61563382615fcd565b6156fc575b61564182616031565b6156ea575b61564f82616095565b6156d8575b61565d826160f9565b6156c6575b61566b8261615d565b6156a6575b61568061568c93615686926154e4565b91616903565b906154e4565b612710811161569d575b61ffff1690565b50612710615696565b601e83018093111561567057634e487b7160e01b5f52601160045260245ffd5b9160288101809111611c3a5791615662565b9160148101809111611c3a5791615654565b9160288101809111611c3a5791615646565b9160328101809111611c3a5791615638565b9160328101809111611c3a579161562a565b91603c8101809111611c3a579161561c565b9160288101809111611c3a579161560e565b9160238101809111611c3a5791615600565b91601e8101809111611c3a57916155f2565b9160288101809111611c3a57916155e4565b9160198101809111611c3a57916155d6565b9160148101809111611c3a57916155c8565b9160198101809111611c3a57916155ba565b9160328101809111611c3a57916155ac565b9160288101809111611c3a579161559e565b601e9250615590565b602090602460405180948193630709df4560e01b835260048301525afa908115613f8e575f91615828575b506001600160a01b031661581e575b5f8061557e565b61157c9150615817565b615841915060203d602011613f8757613f798183614e8f565b5f615808565b505061138890565b81810292918115918404141715611c3a57565b6001600160a01b0381168015615847575f915f915f90601954915b8281106158fc5750505061589090615554565b826064039060648211611c3a57836064036158d9575b50508115615847570461271081116158d0575b600a81106158c85761ffff1690565b50600a615696565b506127106158b9565b6158f4926156868361ffff6158ee941661584f565b926154e4565b905f806158a6565b60ff600261590983615010565b50015460081c1615615a15576024604061592283615010565b5054815163bc0824a360e01b81526004810186905292839182906001600160a01b03165afa805f925f926159c4575b50615963575b50506001905b0161587d565b60ff1690811515806159b4575b156159575761ffff9097969192971691600a830292808404600a1490151715611c3a576159a66159ac926156868360019661584f565b966154e4565b95905f615957565b506103e861ffff82161115615970565b925090506040823d8211615a0d575b816159e060409383614e8f565b810103126104525781519161ffff8316830361045257602001519160ff831683036104525791905f615951565b3d91506159d3565b60019061595d565b15615a2457565b60405162461bcd60e51b815260206004820152601460248201527314d151548e88191958d85e48191a5cd8589b195960621b6044820152606490fd5b61ffff9182168152911660208201526001600160401b03909116604082015260600190565b9190615a92913691615300565b602081519101209060018060a01b03165f52601660205260405f20908154805b615abf575050505f905f90565b5f198101818111611c3a57826001615ad78387614fe3565b50015414615aef5750615ae99061546d565b80615ab2565b9050615b0491506001600160401b0392614fe3565b505460201c169060019190565b60018060a01b0316805f52600460205260405f205f516020616b505f395f51905f525f5260205260ff60405f20541615615b7c575f52600560205260405f205f516020616b505f395f51905f525f5260205260405f20548015908115615b75575090565b9050421090565b505f90565b60018060a01b0316805f52600460205260405f205f516020616c705f395f51905f525f5260205260ff60405f20541615615b7c575f52600560205260405f205f516020616c705f395f51905f525f5260205260405f20548015908115615b75575090565b60018060a01b0316805f52600460205260405f205f516020616ab05f395f51905f525f5260205260ff60405f20541615615b7c575f52600560205260405f205f516020616ab05f395f51905f525f5260205260405f20548015908115615b75575090565b60018060a01b0316805f52600460205260405f205f5160206169f05f395f51905f525f5260205260ff60405f20541615615b7c575f52600560205260405f205f5160206169f05f395f51905f525f5260205260405f20548015908115615b75575090565b60018060a01b0316805f52600460205260405f205f516020616b105f395f51905f525f5260205260ff60405f20541615615b7c575f52600560205260405f205f516020616b105f395f51905f525f5260205260405f20548015908115615b75575090565b60018060a01b0316805f52600460205260405f205f516020616a105f395f51905f525f5260205260ff60405f20541615615b7c575f52600560205260405f205f516020616a105f395f51905f525f5260205260405f20548015908115615b75575090565b60018060a01b0316805f52600460205260405f205f516020616b305f395f51905f525f5260205260ff60405f20541615615b7c575f52600560205260405f205f516020616b305f395f51905f525f5260205260405f20548015908115615b75575090565b60018060a01b0316805f52600460205260405f205f516020616b705f395f51905f525f5260205260ff60405f20541615615b7c575f52600560205260405f205f516020616b705f395f51905f525f5260205260405f20548015908115615b75575090565b60018060a01b0316805f52600460205260405f205f516020616bb05f395f51905f525f5260205260ff60405f20541615615b7c575f52600560205260405f205f516020616bb05f395f51905f525f5260205260405f20548015908115615b75575090565b60018060a01b0316805f52600460205260405f205f516020616bd05f395f51905f525f5260205260ff60405f20541615615b7c575f52600560205260405f205f516020616bd05f395f51905f525f5260205260405f20548015908115615b75575090565b60018060a01b0316805f52600460205260405f205f516020616b905f395f51905f525f5260205260ff60405f20541615615b7c575f52600560205260405f205f516020616b905f395f51905f525f5260205260405f20548015908115615b75575090565b60018060a01b0316805f52600460205260405f205f516020616c505f395f51905f525f5260205260ff60405f20541615615b7c575f52600560205260405f205f516020616c505f395f51905f525f5260205260405f20548015908115615b75575090565b60018060a01b0316805f52600460205260405f205f516020616bf05f395f51905f525f5260205260ff60405f20541615615b7c575f52600560205260405f205f516020616bf05f395f51905f525f5260205260405f20548015908115615b75575090565b60018060a01b0316805f52600460205260405f205f516020616ad05f395f51905f525f5260205260ff60405f20541615615b7c575f52600560205260405f205f516020616ad05f395f51905f525f5260205260405f20548015908115615b75575090565b60018060a01b0316805f52600460205260405f205f516020616c105f395f51905f525f5260205260ff60405f20541615615b7c575f52600560205260405f205f516020616c105f395f51905f525f5260205260405f20548015908115615b75575090565b60018060a01b0316805f52600460205260405f205f516020616a705f395f51905f525f5260205260ff60405f20541615615b7c575f52600560205260405f205f516020616a705f395f51905f525f5260205260405f20548015908115615b75575090565b60018060a01b0316805f52600460205260405f205f516020616a905f395f51905f525f5260205260ff60405f20541615615b7c575f52600560205260405f205f516020616a905f395f51905f525f5260205260405f20548015908115615b75575090565b60018060a01b0316805f52600460205260405f20825f5260205260ff60405f2054161561620b575f52600560205260405f20905f5260205260405f20548015908115615b75575090565b50505f90565b6001600160a01b0381165f9081526003602052604090205461ffff16908115616293575b601b549060ff8260081c1690811561628d57616274929161ffff61626d6064968260ff61626461568697615862565b9716911661584f565b931661584f565b0461271081116158d057600a81106158c85761ffff1690565b50505090565b905061629e81615554565b90616235565b906162ae82615529565b6162bb6040519182614e8f565b82815280926162cc601f1991615529565b0190602036910137565b5f546001600160a01b031633036162e957565b63483e517d60e01b5f5260045ffd5b6001546001600160a01b031680616310575b50505050565b803b15610452575f92836163539361636b60405197889687958694630303c28760e61b865260018060a01b03166004860152608060248601526084850190614f50565b90846044850152600319848303016064850152614f50565b03925af161637c575b80808061630a565b5f61638691614e8f565b5f616374565b60015490916001600160a01b0390911690816163aa575b5050505050565b813b15610452575f6163ed93616404829660405198899788968795630303c28760e61b875260018060a01b03166004870152608060248701526084860190614f50565b916044850152600319848303016064850152614f50565b03925af1616416575b808080806163a3565b5f61642091614e8f565b5f61640d565b91909261643283616211565b9361ffff8516906164438183615452565b600a81126166b8575b61271081136166af575b61ffff169160018060a01b03861690815f52600360205260405f2061ffff851661ffff19825416179055815f52601660205260405f20936032855410156165d1575b6001600160401b034216986164ae36888a615300565b6020815191012099604051936164c385614e74565b845260208401968388526040850190828252606086019c8d528054600160401b811015611782576164f991600182018155614fe3565b91909161337a57614ee89c6165486001600160401b0360019361654061ffff612a589e81805f516020616a505f395f51905f529e51161682198a541617895551168761529c565b5116846169c4565b51910155845f5260176020526001600160401b0360405f2091166001600160401b031982541617905561658287896040519485948561542d565b0390a25f8112156165cb576165969061528c565b925b604051926165a7604085614e8f565b601084526f736565725f73636f72655f64656c746160801b60208501523691615300565b92616598565b97959398969492919060015b8a54811015616668576165f0818c614fe3565b50905f198101818111611c3a57616607908d614fe3565b61337a5782600193820361661e575b5050016165dd565b838161ffff80839454161661ffff1985541617845561664561ffff825460101c168561529c565b61665c6001600160401b03825460201c16856169c4565b01549101555f80616616565b509091929496989395978454801561669b575f19016166878187614fe3565b61337a576001815f80935501558555616498565b634e487b7160e01b5f52603160045260245ffd5b50612710616456565b50600a61644c565b6001546001600160a01b0316806166d5575050565b803b1561045257604051633ddd61ab60e21b815230600482015260606024820152915f91839182908490829061670f906064830190614f50565b33604483015203925af16167205750565b5f614ee891614e8f565b61ffff168015611c3a575f190190565b8054801561669b575f19019061675082826154f1565b81549060018060a01b039060031b1b1916905555565b6001600160a01b03165f81815260076020526040812091905b82548110156168de5761679281846154f1565b90545f84815260066020908152604080832060039590951b9390931c6001600160a01b031680835293905220546001600160401b031680151590816168d3575b506167e957506167e1906153e0565b925b9261677f565b825f95929552600660205260405f2060018060a01b0382165f526020525f6040812055825f52600860205261ffff60405f2054166168a8575b805f52600960205261ffff60405f20541661687d575b5082545f198101908111611c3a5761685361686f91856154f1565b905460039190911b1c6001600160a01b0316612ff886866154f1565b6168788361673a565b6167e3565b5f52600960205260405f2061ffff6168978183541661672a565b1661ffff198254161790555f616838565b825f52600860205260405f2061ffff6168c38183541661672a565b1661ffff19825416179055616822565b90504210155f6167d2565b509061ffff905416905f52600860205261ffff60405f20911661ffff19825416179055565b6001600160a01b03165f8181526007602052604081208054919392845b838110616943575050505061ffff600b5460201c1680831161693f5750565b9150565b815f52600660205260405f2061695982856154f1565b60018060a01b0391549060031b1c1660018060a01b03165f5260205260405f205461ffff8160401c169081151590816169b0575b5061699c575b50600101616920565b6169a990600192976154e4565b9590616993565b90506001600160401b03429116115f61698d565b805467ffffffffffffffff60201b191660209290921b67ffffffffffffffff60201b1691909117905556fecd25a284806e0931bbfbd59e48ca09094f95cc8a54899ac7cf670a7bc084e4c8fe3c33b66e28f14b3d890787766ee667031d474e01f41afd2282c6ddd242b134ec5cb6b9077be93ff2307b61c4b6793dd8a820336c6f61327ef42adf8592977a97bd20c77df683df83db0a97dc89f48199a8ab88197522acbc07667bd9cb815ba0bb1af1c90aa52ed052b92714ff0087008cc720049bf1af77cca2600b31e80c9f56690334c710be9812966692e10c040bde4927265518b422c82505f65961ec7866cd9bf5624adbb572bdf0ef2c6611719c1bd1dd881d077900477122585f518b5b16d04624687fcf0d0228f19993c9157c1ed07b41d8d430fd9100eb099fe86f31909d6110ef8da858cbb62b280e06f6073e5ef7c13784cbbd52d4d0a12f0a0320a6eadcaf07ad703766ce2aae1e5a2302fd7b9236ecdacdc6089d556ee6611b4e571958fba4ea5c92407500c44c03a913f7a3c4f5746fc318ba401831b4e5f4f1880c72d8dbafc9805eb1c4bcefcb30af90b0ae932e0f050c81b491125857a96fb0ea3366184fa9ef274bb2b523bb1410c5597f5b73e284bcc8d9c27caf81de4df86a0cfbc1ca19c1967d53b4f9d906c2f3e5f0b5637ff74d60111ad48d74fe29986656bd77a1f0da32c9315bed40455567f6060bea388c123d4bafff845ac4f6113bf43fb59dba21ffee106d9126a16fd7ef738a99e9f98f3366a7bcd62822d441acdd22f4ae7f00407a46293dd53140dc9fa6beeef35e22cb018b2643448f1a39279a10a884ddf0b6a95d0e46f341a5809f447de8f39f0c29e43a91427228074cc836ee3f9b71c5f19669ad560de5d34c8d7b0cfcd86301093fba4908ede426caaf9f537d800bdc663bd466690f26963dfd7bb0ed1ed5f323a945377dfca03d1a4a2c4366d3db0c7243a29eef9c5e849fe7328823e0b7288dab59d52310a26469706673582212204368cd8ef37384e7f99326c0a9b1a5c1d0c57e24cb06a8ffa03dd66100041d2864736f6c634300081e0033","linkReferences":{}},"methodIdentifiers":{"MAX_HISTORY_PER_USER()":"3909b9de","MAX_SCORE()":"27ff6223","MIN_SCORE()":"40b89270","NEUTRAL()":"7b1f12a8","addScoreSource(address,string,uint8)":"4e3ac713","appeals(address)":"5037fc7d","applyDecay(address)":"edfcc437","applyDecayBatch(address[])":"8101d300","badgeExpiry(address,bytes32)":"d5b37a7f","becomeMentor()":"f9c4f4d9","calculateAutomatedScore(address)":"66bb7b78","calculateOnChainScore(address)":"75055c53","dailyOperatorRewardTotal(address,address)":"5ed2ed9c","dao()":"4162169f","daoScoreWeight()":"29c07cf9","decayEnabled()":"0f39c940","decayPerMonth()":"460da41b","decayStartDays()":"8e20a258","endorse(address,string)":"5abfe2cf","endorsementBaseValue()":"2b7ffc95","endorsementBonusCap()":"246683ce","endorsementCooldown()":"024caec7","endorsementMaxPerEndorser()":"99f68ac7","endorsementValidity()":"4cbb2f22","endorsements(address,address)":"e3bf0aff","endorsementsGiven(address)":"94c30e1a","endorsementsReceived(address)":"27758b17","fileAppeal(string)":"af216861","findReasonInHistory(address,string)":"9d30f8d0","getActiveEndorsements(address)":"dc99e341","getDecayAdjustedScore(address)":"0ba2d872","getEndorsementStats(address)":"a5d4e063","getMentees(address)":"e7244bbd","getMentorInfo(address)":"9beeb534","getScore(address)":"d47875d0","getScoreBreakdown(address)":"2c27750a","getScoreHistory(address)":"5bed5604","getScoreSourceCount()":"362d9b48","getScores(address[])":"f6c97ed1","getScoresBatch(address[])":"e29d04a2","getTrustLevel(address)":"6a4b783d","getUserStatus(address)":"ea0d5dcd","hasBadge(address,bytes32)":"38179754","highTrustThreshold()":"4a33fb72","isBadgeValid(address,bytes32)":"a1d51dcc","lastActivity(address)":"f07e96b3","lastEndorseTime(address)":"b7e2bf2f","lastOperatorRewardTime(address,address)":"b3cc5642","ledger()":"56397c35","lowTrustThreshold()":"52a67c5d","maxActiveGivenPerUser()":"b2746eed","maxDailyOperatorReward()":"b25e4cf1","maxEndorsersPerSubject()":"72f557ee","maxMenteesPerMentor()":"e7cce5d6","maxSingleReward()":"9e5f4e9d","mentorOf(address)":"59f827ad","mentors(address)":"eed4ea8f","minForGovernance()":"4ccf04cf","minForMerchant()":"e710c92b","minScoreToEndorse()":"c1c44621","minScoreToMentor()":"fa41d56a","onChainScoreWeight()":"53a42578","operatorRewardDayStart(address)":"66101d51","operators(address)":"13e7c9d8","paused()":"5c975abb","pendingAppealCount()":"b3a5df9e","pendingDisputeCount()":"900acd80","pruneEndorsements(address)":"257076dd","punish(address,uint16,string)":"0c61e69c","removeMentee(address)":"51c131f5","removeScoreSource(address)":"62238e8a","requestScoreReview(string)":"1121834f","resolveAppeal(address,bool,string)":"a8a89dc0","resolveScoreDispute(address,bool,int16)":"4b9707c4","revokeMentor(address)":"6c010095","reward(address,uint16,string)":"1d997a6a","scoreDisputes(address)":"103f8829","scoreHistory(address,uint256)":"691845e4","scoreSourceIndex(address)":"b291d011","scoreSources(uint256)":"a61ff4e1","setBadge(address,bytes32,bool,uint256)":"0494dada","setBadgeBatch(address[],bytes32,bool,uint256)":"59f86611","setDAO(address)":"e73a914c","setDecayConfig(bool,uint64,uint16)":"327d8bfc","setDecentralizationWeights(uint8,uint8)":"6b1cdab1","setEndorsementPolicy(uint16,uint16,uint16,uint16,uint16,uint64,uint64,uint16)":"4d4efe8e","setMentorConfig(uint16,uint16)":"1017817c","setModules(address,address)":"d74a5d00","setOperator(address,bool)":"558a7297","setOperatorLimits(uint16,uint16)":"c4a2db65","setPaused(bool)":"16c38b3c","setScore(address,uint16,string)":"3f4d10be","setThresholds(uint16,uint16,uint16,uint16)":"0f83a99c","sponsorMentee(address)":"bfda4181","vaultHub()":"6dd6e80b"},"id":38}