{"abi":[{"type":"constructor","inputs":[{"name":"_dao","type":"address","internalType":"address"},{"name":"_ledger","type":"address","internalType":"address"},{"name":"_hub","type":"address","internalType":"address"}],"stateMutability":"nonpayable"},{"type":"function","name":"MAX_HISTORY_PER_USER","inputs":[],"outputs":[{"name":"","type":"uint8","internalType":"uint8"}],"stateMutability":"view"},{"type":"function","name":"MAX_SCORE","inputs":[],"outputs":[{"name":"","type":"uint16","internalType":"uint16"}],"stateMutability":"view"},{"type":"function","name":"MIN_SCORE","inputs":[],"outputs":[{"name":"","type":"uint16","internalType":"uint16"}],"stateMutability":"view"},{"type":"function","name":"NEUTRAL","inputs":[],"outputs":[{"name":"","type":"uint16","internalType":"uint16"}],"stateMutability":"view"},{"type":"function","name":"addScoreSource","inputs":[{"name":"source","type":"address","internalType":"address"},{"name":"name","type":"string","internalType":"string"},{"name":"weight","type":"uint8","internalType":"uint8"}],"outputs":[],"stateMutability":"nonpayable"},{"type":"function","name":"applyDecay","inputs":[{"name":"subject","type":"address","internalType":"address"}],"outputs":[],"stateMutability":"nonpayable"},{"type":"function","name":"applyDecayBatch","inputs":[{"name":"subjects","type":"address[]","internalType":"address[]"}],"outputs":[],"stateMutability":"nonpayable"},{"type":"function","name":"badgeExpiry","inputs":[{"name":"","type":"address","internalType":"address"},{"name":"","type":"bytes32","internalType":"bytes32"}],"outputs":[{"name":"","type":"uint256","internalType":"uint256"}],"stateMutability":"view"},{"type":"function","name":"calculateAutomatedScore","inputs":[{"name":"subject","type":"address","internalType":"address"}],"outputs":[{"name":"","type":"uint16","internalType":"uint16"}],"stateMutability":"view"},{"type":"function","name":"calculateOnChainScore","inputs":[{"name":"subject","type":"address","internalType":"address"}],"outputs":[{"name":"","type":"uint16","internalType":"uint16"}],"stateMutability":"view"},{"type":"function","name":"dailyOperatorRewardTotal","inputs":[{"name":"","type":"address","internalType":"address"},{"name":"","type":"address","internalType":"address"}],"outputs":[{"name":"","type":"uint16","internalType":"uint16"}],"stateMutability":"view"},{"type":"function","name":"dao","inputs":[],"outputs":[{"name":"","type":"address","internalType":"address"}],"stateMutability":"view"},{"type":"function","name":"daoScoreWeight","inputs":[],"outputs":[{"name":"","type":"uint8","internalType":"uint8"}],"stateMutability":"view"},{"type":"function","name":"decayEnabled","inputs":[],"outputs":[{"name":"","type":"bool","internalType":"bool"}],"stateMutability":"view"},{"type":"function","name":"decayPerMonth","inputs":[],"outputs":[{"name":"","type":"uint16","internalType":"uint16"}],"stateMutability":"view"},{"type":"function","name":"decayStartDays","inputs":[],"outputs":[{"name":"","type":"uint64","internalType":"uint64"}],"stateMutability":"view"},{"type":"function","name":"findReasonInHistory","inputs":[{"name":"subject","type":"address","internalType":"address"},{"name":"reason","type":"string","internalType":"string"}],"outputs":[{"name":"found","type":"bool","internalType":"bool"},{"name":"timestamp","type":"uint64","internalType":"uint64"}],"stateMutability":"view"},{"type":"function","name":"getDecayAdjustedScore","inputs":[{"name":"subject","type":"address","internalType":"address"}],"outputs":[{"name":"adjustedScore","type":"uint16","internalType":"uint16"},{"name":"daysInactive","type":"uint64","internalType":"uint64"},{"name":"decayAmount","type":"uint16","internalType":"uint16"}],"stateMutability":"view"},{"type":"function","name":"getScore","inputs":[{"name":"subject","type":"address","internalType":"address"}],"outputs":[{"name":"","type":"uint16","internalType":"uint16"}],"stateMutability":"view"},{"type":"function","name":"getScoreBreakdown","inputs":[{"name":"subject","type":"address","internalType":"address"}],"outputs":[{"name":"daoSetScore","type":"uint16","internalType":"uint16"},{"name":"onChainScore","type":"uint16","internalType":"uint16"},{"name":"finalScore","type":"uint16","internalType":"uint16"},{"name":"daoWeight","type":"uint8","internalType":"uint8"},{"name":"onChainWeight","type":"uint8","internalType":"uint8"},{"name":"hasVault","type":"bool","internalType":"bool"}],"stateMutability":"view"},{"type":"function","name":"getScoreHistory","inputs":[{"name":"subject","type":"address","internalType":"address"}],"outputs":[{"name":"count","type":"uint256","internalType":"uint256"},{"name":"recentChanges","type":"tuple[]","internalType":"struct Seer.ScoreChange[]","components":[{"name":"oldScore","type":"uint16","internalType":"uint16"},{"name":"newScore","type":"uint16","internalType":"uint16"},{"name":"timestamp","type":"uint64","internalType":"uint64"},{"name":"reasonHash","type":"bytes32","internalType":"bytes32"}]}],"stateMutability":"view"},{"type":"function","name":"getScoreSourceCount","inputs":[],"outputs":[{"name":"total","type":"uint256","internalType":"uint256"},{"name":"active","type":"uint256","internalType":"uint256"}],"stateMutability":"view"},{"type":"function","name":"getScoresBatch","inputs":[{"name":"subjects","type":"address[]","internalType":"address[]"}],"outputs":[{"name":"scores","type":"uint16[]","internalType":"uint16[]"}],"stateMutability":"view"},{"type":"function","name":"getTrustLevel","inputs":[{"name":"subject","type":"address","internalType":"address"}],"outputs":[{"name":"level","type":"uint8","internalType":"uint8"},{"name":"levelName","type":"string","internalType":"string"},{"name":"canVote","type":"bool","internalType":"bool"},{"name":"canBeMerchant","type":"bool","internalType":"bool"}],"stateMutability":"view"},{"type":"function","name":"getUserStatus","inputs":[{"name":"subject","type":"address","internalType":"address"}],"outputs":[{"name":"currentScore","type":"uint16","internalType":"uint16"},{"name":"decayAdjustedScore","type":"uint16","internalType":"uint16"},{"name":"daysInactive","type":"uint64","internalType":"uint64"},{"name":"lastActivityTime","type":"uint64","internalType":"uint64"},{"name":"historyCount","type":"uint256","internalType":"uint256"},{"name":"hasPendingDispute","type":"bool","internalType":"bool"},{"name":"isOperator","type":"bool","internalType":"bool"}],"stateMutability":"view"},{"type":"function","name":"hasBadge","inputs":[{"name":"","type":"address","internalType":"address"},{"name":"","type":"bytes32","internalType":"bytes32"}],"outputs":[{"name":"","type":"bool","internalType":"bool"}],"stateMutability":"view"},{"type":"function","name":"highTrustThreshold","inputs":[],"outputs":[{"name":"","type":"uint16","internalType":"uint16"}],"stateMutability":"view"},{"type":"function","name":"isBadgeValid","inputs":[{"name":"subject","type":"address","internalType":"address"},{"name":"badge","type":"bytes32","internalType":"bytes32"}],"outputs":[{"name":"","type":"bool","internalType":"bool"}],"stateMutability":"view"},{"type":"function","name":"lastActivity","inputs":[{"name":"","type":"address","internalType":"address"}],"outputs":[{"name":"","type":"uint64","internalType":"uint64"}],"stateMutability":"view"},{"type":"function","name":"lastOperatorRewardTime","inputs":[{"name":"","type":"address","internalType":"address"},{"name":"","type":"address","internalType":"address"}],"outputs":[{"name":"","type":"uint64","internalType":"uint64"}],"stateMutability":"view"},{"type":"function","name":"ledger","inputs":[],"outputs":[{"name":"","type":"address","internalType":"contract ProofLedger"}],"stateMutability":"view"},{"type":"function","name":"lowTrustThreshold","inputs":[],"outputs":[{"name":"","type":"uint16","internalType":"uint16"}],"stateMutability":"view"},{"type":"function","name":"maxDailyOperatorReward","inputs":[],"outputs":[{"name":"","type":"uint16","internalType":"uint16"}],"stateMutability":"view"},{"type":"function","name":"maxSingleReward","inputs":[],"outputs":[{"name":"","type":"uint16","internalType":"uint16"}],"stateMutability":"view"},{"type":"function","name":"minForGovernance","inputs":[],"outputs":[{"name":"","type":"uint16","internalType":"uint16"}],"stateMutability":"view"},{"type":"function","name":"minForMerchant","inputs":[],"outputs":[{"name":"","type":"uint16","internalType":"uint16"}],"stateMutability":"view"},{"type":"function","name":"onChainScoreWeight","inputs":[],"outputs":[{"name":"","type":"uint8","internalType":"uint8"}],"stateMutability":"view"},{"type":"function","name":"operatorRewardDayStart","inputs":[{"name":"","type":"address","internalType":"address"}],"outputs":[{"name":"","type":"uint64","internalType":"uint64"}],"stateMutability":"view"},{"type":"function","name":"operators","inputs":[{"name":"","type":"address","internalType":"address"}],"outputs":[{"name":"","type":"bool","internalType":"bool"}],"stateMutability":"view"},{"type":"function","name":"paused","inputs":[],"outputs":[{"name":"","type":"bool","internalType":"bool"}],"stateMutability":"view"},{"type":"function","name":"pendingDisputeCount","inputs":[],"outputs":[{"name":"","type":"uint256","internalType":"uint256"}],"stateMutability":"view"},{"type":"function","name":"punish","inputs":[{"name":"subject","type":"address","internalType":"address"},{"name":"delta","type":"uint16","internalType":"uint16"},{"name":"reason","type":"string","internalType":"string"}],"outputs":[],"stateMutability":"nonpayable"},{"type":"function","name":"removeScoreSource","inputs":[{"name":"source","type":"address","internalType":"address"}],"outputs":[],"stateMutability":"nonpayable"},{"type":"function","name":"requestScoreReview","inputs":[{"name":"reason","type":"string","internalType":"string"}],"outputs":[],"stateMutability":"nonpayable"},{"type":"function","name":"resolveScoreDispute","inputs":[{"name":"subject","type":"address","internalType":"address"},{"name":"approved","type":"bool","internalType":"bool"},{"name":"adjustment","type":"int16","internalType":"int16"}],"outputs":[],"stateMutability":"nonpayable"},{"type":"function","name":"reward","inputs":[{"name":"subject","type":"address","internalType":"address"},{"name":"delta","type":"uint16","internalType":"uint16"},{"name":"reason","type":"string","internalType":"string"}],"outputs":[],"stateMutability":"nonpayable"},{"type":"function","name":"scoreDisputes","inputs":[{"name":"","type":"address","internalType":"address"}],"outputs":[{"name":"requester","type":"address","internalType":"address"},{"name":"reason","type":"string","internalType":"string"},{"name":"timestamp","type":"uint64","internalType":"uint64"},{"name":"resolved","type":"bool","internalType":"bool"},{"name":"approved","type":"bool","internalType":"bool"}],"stateMutability":"view"},{"type":"function","name":"scoreHistory","inputs":[{"name":"","type":"address","internalType":"address"},{"name":"","type":"uint256","internalType":"uint256"}],"outputs":[{"name":"oldScore","type":"uint16","internalType":"uint16"},{"name":"newScore","type":"uint16","internalType":"uint16"},{"name":"timestamp","type":"uint64","internalType":"uint64"},{"name":"reasonHash","type":"bytes32","internalType":"bytes32"}],"stateMutability":"view"},{"type":"function","name":"scoreSourceIndex","inputs":[{"name":"","type":"address","internalType":"address"}],"outputs":[{"name":"","type":"uint256","internalType":"uint256"}],"stateMutability":"view"},{"type":"function","name":"scoreSources","inputs":[{"name":"","type":"uint256","internalType":"uint256"}],"outputs":[{"name":"source","type":"address","internalType":"address"},{"name":"name","type":"string","internalType":"string"},{"name":"weight","type":"uint8","internalType":"uint8"},{"name":"active","type":"bool","internalType":"bool"}],"stateMutability":"view"},{"type":"function","name":"setBadge","inputs":[{"name":"subject","type":"address","internalType":"address"},{"name":"badge","type":"bytes32","internalType":"bytes32"},{"name":"active","type":"bool","internalType":"bool"},{"name":"expiry","type":"uint256","internalType":"uint256"}],"outputs":[],"stateMutability":"nonpayable"},{"type":"function","name":"setBadgeBatch","inputs":[{"name":"subjects","type":"address[]","internalType":"address[]"},{"name":"badge","type":"bytes32","internalType":"bytes32"},{"name":"active","type":"bool","internalType":"bool"},{"name":"expiry","type":"uint256","internalType":"uint256"}],"outputs":[],"stateMutability":"nonpayable"},{"type":"function","name":"setDAO","inputs":[{"name":"newDAO","type":"address","internalType":"address"}],"outputs":[],"stateMutability":"nonpayable"},{"type":"function","name":"setDecayConfig","inputs":[{"name":"enabled","type":"bool","internalType":"bool"},{"name":"startDays","type":"uint64","internalType":"uint64"},{"name":"perMonth","type":"uint16","internalType":"uint16"}],"outputs":[],"stateMutability":"nonpayable"},{"type":"function","name":"setDecentralizationWeights","inputs":[{"name":"daoWeight","type":"uint8","internalType":"uint8"},{"name":"onChainWeight","type":"uint8","internalType":"uint8"}],"outputs":[],"stateMutability":"nonpayable"},{"type":"function","name":"setModules","inputs":[{"name":"_ledger","type":"address","internalType":"address"},{"name":"_hub","type":"address","internalType":"address"}],"outputs":[],"stateMutability":"nonpayable"},{"type":"function","name":"setOperator","inputs":[{"name":"operator","type":"address","internalType":"address"},{"name":"authorized","type":"bool","internalType":"bool"}],"outputs":[],"stateMutability":"nonpayable"},{"type":"function","name":"setOperatorLimits","inputs":[{"name":"_maxSingle","type":"uint16","internalType":"uint16"},{"name":"_maxDaily","type":"uint16","internalType":"uint16"}],"outputs":[],"stateMutability":"nonpayable"},{"type":"function","name":"setPaused","inputs":[{"name":"_paused","type":"bool","internalType":"bool"}],"outputs":[],"stateMutability":"nonpayable"},{"type":"function","name":"setScore","inputs":[{"name":"subject","type":"address","internalType":"address"},{"name":"newScore","type":"uint16","internalType":"uint16"},{"name":"reason","type":"string","internalType":"string"}],"outputs":[],"stateMutability":"nonpayable"},{"type":"function","name":"setThresholds","inputs":[{"name":"low","type":"uint16","internalType":"uint16"},{"name":"high","type":"uint16","internalType":"uint16"},{"name":"minGov","type":"uint16","internalType":"uint16"},{"name":"minMerch","type":"uint16","internalType":"uint16"}],"outputs":[],"stateMutability":"nonpayable"},{"type":"function","name":"vaultHub","inputs":[],"outputs":[{"name":"","type":"address","internalType":"contract IVaultHub_Trust"}],"stateMutability":"view"},{"type":"event","name":"DAOSet","inputs":[{"name":"oldDAO","type":"address","indexed":true,"internalType":"address"},{"name":"newDAO","type":"address","indexed":true,"internalType":"address"}],"anonymous":false},{"type":"event","name":"DecayApplied","inputs":[{"name":"subject","type":"address","indexed":true,"internalType":"address"},{"name":"oldScore","type":"uint16","indexed":false,"internalType":"uint16"},{"name":"newScore","type":"uint16","indexed":false,"internalType":"uint16"},{"name":"inactiveDays","type":"uint256","indexed":false,"internalType":"uint256"}],"anonymous":false},{"type":"event","name":"DecentralizationUpdated","inputs":[{"name":"daoWeight","type":"uint8","indexed":false,"internalType":"uint8"},{"name":"onChainWeight","type":"uint8","indexed":false,"internalType":"uint8"}],"anonymous":false},{"type":"event","name":"HubSet","inputs":[{"name":"vaultHub","type":"address","indexed":false,"internalType":"address"}],"anonymous":false},{"type":"event","name":"LedgerSet","inputs":[{"name":"ledger","type":"address","indexed":false,"internalType":"address"}],"anonymous":false},{"type":"event","name":"OperatorSet","inputs":[{"name":"operator","type":"address","indexed":true,"internalType":"address"},{"name":"authorized","type":"bool","indexed":false,"internalType":"bool"}],"anonymous":false},{"type":"event","name":"Paused","inputs":[{"name":"isPaused","type":"bool","indexed":false,"internalType":"bool"}],"anonymous":false},{"type":"event","name":"ScoreDisputeRequested","inputs":[{"name":"subject","type":"address","indexed":true,"internalType":"address"},{"name":"reason","type":"string","indexed":false,"internalType":"string"}],"anonymous":false},{"type":"event","name":"ScoreDisputeResolved","inputs":[{"name":"subject","type":"address","indexed":true,"internalType":"address"},{"name":"approved","type":"bool","indexed":false,"internalType":"bool"},{"name":"adjustment","type":"int256","indexed":false,"internalType":"int256"}],"anonymous":false},{"type":"event","name":"ScoreSet","inputs":[{"name":"subject","type":"address","indexed":true,"internalType":"address"},{"name":"oldScore","type":"uint16","indexed":false,"internalType":"uint16"},{"name":"newScore","type":"uint16","indexed":false,"internalType":"uint16"},{"name":"reason","type":"string","indexed":false,"internalType":"string"}],"anonymous":false},{"type":"event","name":"ScoreSourceAdded","inputs":[{"name":"source","type":"address","indexed":true,"internalType":"address"},{"name":"name","type":"string","indexed":false,"internalType":"string"},{"name":"weight","type":"uint8","indexed":false,"internalType":"uint8"}],"anonymous":false},{"type":"event","name":"ScoreSourceRemoved","inputs":[{"name":"source","type":"address","indexed":true,"internalType":"address"}],"anonymous":false},{"type":"event","name":"ThresholdsSet","inputs":[{"name":"low","type":"uint16","indexed":false,"internalType":"uint16"},{"name":"high","type":"uint16","indexed":false,"internalType":"uint16"},{"name":"minForGov","type":"uint16","indexed":false,"internalType":"uint16"},{"name":"minForMerchant","type":"uint16","indexed":false,"internalType":"uint16"}],"anonymous":false},{"type":"error","name":"TRUST_Bounds","inputs":[]},{"type":"error","name":"TRUST_NotDAO","inputs":[]},{"type":"error","name":"TRUST_NotOperator","inputs":[]},{"type":"error","name":"TRUST_Paused","inputs":[]},{"type":"error","name":"TRUST_Zero","inputs":[]}],"bytecode":{"object":"0x60803461014057601f614c7938819003918201601f19168301916001600160401b03831184841017610144578084926060946040528339810103126101405761004781610158565b90610060604061005960208401610158565b9201610158565b600b805463ffffffff1916626400c8179055600e80546001600160581b0319166964000000000000005a00179055601180546915e015181f400fa000646001600160501b0319909116179055916001600160a01b03168015610131575f80546001600160a01b0319169190911790556001600160a01b031680610117575b506001600160a01b0316806100fd575b604051614b0c908161016d8239f35b600280546001600160a01b0319169190911790555f6100ee565b600180546001600160a01b0319169190911790555f6100de565b630409728b60e41b5f5260045ffd5b5f80fd5b634e487b7160e01b5f52604160045260245ffd5b51906001600160a01b03821682036101405756fe60806040526004361015610011575f80fd5b5f5f3560e01c80630494dada14612fd85780630ba2d87214612f915780630c61e69c14612ec15780630f39c94014612e9f5780630f83a99c14612c2a578063103f882914612b955780631121834f1461274c57806313e7c9d81461270d57806316c38b3c1461264c5780631d997a6a1461243157806327ff62231461241457806329c07cf9146123f35780632c27750a146122af578063327d8bfc1461215c578063362d9b48146120fa57806338179754146120b15780633909b9de146120955780633f4d10be14611fa657806340b8927014611f8a5780634162169f14611f63578063460da41b14611f3e5780634a33fb7214611f1a5780634b9707c414611c865780634ccf04cf14611c615780634e3ac713146118a157806352a67c5d1461187c57806353a4257814611858578063558a72971461176857806356397c351461173f57806359f86611146115a55780635bed5604146113ec5780635c975abb146113c95780635ed2ed9c1461137257806362238e8a1461125857806366101d511461121557806366bb7b78146111f1578063691845e4146111715780636a4b783d1461105a5780636b1cdab114610f295780636dd6e80b14610f0057806375055c5314610edc5780637b1f12a814610ebf5780638101d30014610cb45780638e20a25814610c8a578063900acd8014610c6c5780639d30f8d014610c0d5780639e5f4e9d14610be8578063a1d51dcc14610bb6578063a61ff4e114610b3b578063b25e4cf114610b19578063b291d01114610ae0578063b3cc564214610a84578063c4a2db6514610965578063d47875d01461093a578063d5b37a7f146108f7578063d74a5d001461080c578063e29d04a214610702578063e710c92b146106dd578063e73a914c1461062a578063ea0d5dcd1461053d578063edfcc437146103095763f07e96b3146102c4575f80fd5b34610306576020366003190112610306576020906001600160401b03906040906001600160a01b036102f4613108565b168152600d8452205416604051908152f35b80fd5b503461030657602036600319011261030657610323613108565b60ff6007541661052f57600e549061033d60ff8316613bbc565b6001600160a01b038116808452600d60205260408420546001600160401b0316929083156104ea576001600160401b03620151808161037f81421697886133c3565b16049260081c166001600160401b038316106104a55761ffff916103a28461340d565b949094169350836103b1578680f35b828752600360208181526040808a2054868b52928252808a20805461ffff191661ffff958616908117909155868b52600d8352818b20805467ffffffffffffffff19166001600160401b039b8c16179055815194909316845290830191909152919095169085015261049b937f6f31909d6110ef8da858cbb62b280e06f6073e5ef7c13784cbbd52d4d0a12f0a90606090a26040918251906104538483613265565b60138252721cd8dbdc9957d91958d85e57d85c1c1b1a5959606a1b602083015261047f84519485613265565b600a845269696e616374697669747960b01b60208501526146c6565b5f80808080808680f35b60405162461bcd60e51b815260206004820152601760248201527f534545523a206e6f742079657420646563617961626c650000000000000000006044820152606490fd5b60405162461bcd60e51b815260206004820152601a60248201527f534545523a206e6f20616374697669747920746f2064656361790000000000006044820152606490fd5b621e909d60ea1b8252600482fd5b50346103065760203660031901126103065760e09061055a613108565b61056381614611565b9161056d8261340d565b5091909260018060a01b031691828252600d6020526001600160401b0360408320541690838352600c60205260408320549284815260126020526001600160401b036002604083200154161515948561060c575b60ff60408361ffff936001600160401b03969552600660205220541696816040519916895216602088015216604086015260608501526080840152151560a0830152151560c0820152f35b8082526012602052604080832060020154901c60ff161595506105c1565b503461030657602036600319011261030657610644613108565b61064c6146a4565b6001600160a01b031680156106ce5781546001600160a01b03198116821783556001600160a01b03167f43cefe694890edd168d1075c3464baea1d7edcf0bc1a1648423ea65b5a2ac0918380a36106cb6040516106aa604082613265565b600f81526e19185bd7dd1c985b9cd9995c9c9959608a1b6020820152614a6c565b80f35b630409728b60e41b8252600482fd5b5034610306578060031936011261030657602061ffff60115460401c16604051908152f35b5034610306576020366003190112610306576004356001600160401b0381116108085761073390369060040161334a565b90811515806107fd575b6107469061364e565b61074f826136be565b9061075d6040519283613265565b828252610769836136be565b602083019390601f1901368537845b8181106107c85750505090604051928392602084019060208552518091526040840192915b8181106107ab575050500390f35b825161ffff1684528594506020938401939092019160010161079d565b806107e66107e16107dc600194868861369a565b6136aa565b614611565b61ffff6107f383886136e2565b9116905201610778565b50606482111561073d565b5080fd5b503461030657604036600319011261030657610826613108565b61082e61311e565b906108376146a4565b6001600160a01b031690811580156108e6575b6108d757817fbc62e69a31739e36d57d56991ac20e4e507a7edfff9070e6a11df5a37b8b4e6f602080937f15e04fee0c1335178e78e4dc6a8b0dcade867d1aea65418bf1200bc322ab7c21956001600160601b0360a01b600154161760015560018060a01b031692836001600160601b0360a01b6002541617600255604051908152a1604051908152a180f35b630409728b60e41b8352600483fd5b506001600160a01b0381161561084a565b5034610306576040366003190112610306576020906040906001600160a01b0361091f613108565b16815260058352818120602435825283522054604051908152f35b50346103065760203660031901126103065760206109596107e1613108565b61ffff60405191168152f35b50346103065760403660031901126103065761097f613161565b610987613172565b61098f6146a4565b6101f461ffff831611610a3f5761ffff16906103e882116109fa5763ffff0000600b549160101b169063ffffffff19161717600b556106cb6040516109d5604082613265565b60138152721bdc195c985d1bdc97db1a5b5a5d1cd7dcd95d606a1b6020820152614a6c565b60405162461bcd60e51b815260206004820152601860248201527f534545523a206d6178206461696c7920746f6f206869676800000000000000006044820152606490fd5b60405162461bcd60e51b815260206004820152601960248201527f534545523a206d61782073696e676c6520746f6f2068696768000000000000006044820152606490fd5b5034610306576040366003190112610306576040610aa0613108565b91610aa961311e565b9260018060a01b031681526008602052209060018060a01b03165f5260205260206001600160401b0360405f205416604051908152f35b5034610306576020366003190112610306576020906040906001600160a01b03610b08613108565b168152601083522054604051908152f35b5034610306578060031936011261030657602061ffff600b5416604051908152f35b503461030657602036600319011261030657600435600f5481101561080857610b63906133a7565b5080546001600160a01b03166002610b7d60018401613286565b92015460ff610b9e6040519485948552608060208601526080850190613326565b91818116604085015260081c16151560608301520390f35b5034610306576040366003190112610306576020610bde610bd5613108565b602435906145c1565b6040519015158152f35b5034610306578060031936011261030657602061ffff600b5460101c16604051908152f35b503461030657604036600319011261030657610c27613108565b90602435906001600160401b0382116103065760406001600160401b03610c5b85610c553660048801613194565b91613bff565b835191151582529091166020820152f35b50346103065780600319360112610306576020601354604051908152f35b503461030657806003193601126103065760206001600160401b03600e5460081c16604051908152f35b5034610306576020366003190112610306576004356001600160401b03811161080857610ce590369060040161334a565b9060ff60075416610eb157610cfe60ff600e5416613bbc565b81151580610ea6575b15610e6b5790426001600160401b031690835b818110610d25578480f35b80610d366107dc600193858861369a565b828060a01b03811690818852600d6020526001600160401b036040892054168015610e63576001600160401b03610d716201518092896133c3565b1604906001600160401b03600e5460081c166001600160401b03831610610e6357610d9e61ffff9161340d565b905091909116610db3575b5050505b01610d1a565b7f6f31909d6110ef8da858cbb62b280e06f6073e5ef7c13784cbbd52d4d0a12f0a91838a526003602052610e5861ffff60408c20541691858c52600360205260408c2061ffff851661ffff19825416179055858c52600d60205260408c206001600160401b038b166001600160401b03198254161790556040519384938491604091949361ffff6001600160401b039281606087019816865216602085015216910152565b0390a25f8080610da9565b505050610dad565b60405162461bcd60e51b81526020600482015260136024820152720a68a8aa47440d2dcecc2d8d2c840c4c2e8c6d606b1b6044820152606490fd5b506032821115610d07565b621e909d60ea1b8352600483fd5b503461030657806003193601126103065760206040516113888152f35b5034610306576020366003190112610306576020610959610efb613108565b6139fb565b50346103065780600319360112610306576002546040516001600160a01b039091168152602090f35b50346103065760403660031901126103065760043560ff81168091036108085760243560ff81169182820361105657610f606146a4565b82810160ff81116110425760ff6064911603610ffd577fdc0c1a85c25b1a7535e6884d4ffc9fc836d9897f70e1a7f1c36c97eef3bcdf9c926040928261ff006011549260081b169161ffff1916171760115582519182526020820152a16106cb604051610fce604082613265565b601881527f646563656e7472616c697a6174696f6e5f7570646174656400000000000000006020820152614a6c565b60405162461bcd60e51b815260206004820152601d60248201527f534545523a2077656967687473206d7573742073756d20746f203130300000006044820152606490fd5b634e487b7160e01b85526011600452602485fd5b8380fd5b50346103065760203660031901126103065760ff9061107a6107e1613108565b61ffff601154911661ffff8260101c168111155f146110f65761ffff6110d86040516110a7604082613265565b6009815268131bddc8151c9d5cdd60ba1b60208201525b604051968796168652608060208701526080860190613326565b92818160301c16831015604086015260401c16111560608301520390f35b91602082901c61ffff16831061113a575060029161ffff6110d860405161111e604082613265565b600a815269121a59da08151c9d5cdd60b21b60208201526110be565b916001925061ffff6110d8604051611153604082613265565b600c81526b1359591a5d5b48151c9d5cdd60a21b60208201526110be565b50346103065760403660031901126103065761118b613108565b6001600160a01b03168152600c60205260408120805460243592908310156103065760806111b9848461337a565b50600181549101546001600160401b036040519261ffff8116845261ffff8160101c16602085015260201c1660408301526060820152f35b5034610306576020366003190112610306576020610959611210613108565b6136f6565b5034610306576020366003190112610306576020906001600160401b03906040906001600160a01b03611246613108565b168152600a8452205416604051908152f35b503461030657602036600319011261030657611272613108565b61127a6146a4565b6001600160a01b0316808252601060205260408220548015611334575f198101908111611320576112ac6002916133a7565b500161ff0019815416905580825260106020528160408120557f826628d8ed5b5660f5dcbab7a54b068dec5e76bbbe84185612d70605652b3a018280a26106cb6040516112fa604082613265565b60148152731cd8dbdc9957dcdbdd5c98d957dc995b5bdd995960621b6020820152614a6c565b634e487b7160e01b83526011600452602483fd5b60405162461bcd60e51b815260206004820152601660248201527514d151548e881cdbdd5c98d9481b9bdd08199bdd5b9960521b6044820152606490fd5b503461030657604036600319011261030657604061138e613108565b9161139761311e565b9260018060a01b031681526009602052209060018060a01b03165f52602052602061ffff60405f205416604051908152f35b5034610306578060031936011261030657602060ff600754166040519015158152f35b5034610306576020366003190112610306576001600160a01b0361140e613108565b168152600c602052604081208054600a81111561159f57600a5b611431816136be565b9261143f6040519485613265565b818452601f1961144e836136be565b01855b818110611570575050845b8281106114e35750505090604051928392604084019084526040602085015282518091526020606085019301915b818110611498575050500390f35b91935091602060806001926060875161ffff815116835261ffff8582015116858401526001600160401b0360408201511660408401520151606082015201940191019184939261148a565b82840384811161155c57906115036114fd826001946136d5565b8461337a565b5082604051916115128361324a565b6001600160401b03815461ffff8116855261ffff8160101c16602086015260201c1660408401520154606082015261154a82886136e2565b5261155581876136e2565b500161145c565b634e487b7160e01b87526011600452602487fd5b60209060405161157f8161324a565b888152888382015288604082015288606082015282828901015201611451565b80611428565b5034610306576080366003190112610306576004356001600160401b038111610808576115d690369060040161334a565b90602435906115e3613134565b91606435906115f06146a4565b84151580611734575b6116029061364e565b855b85811061169257866106cb87871561165e57604051611624604082613265565b601381527218985919d957d8985d18da17d9dc985b9d1959606a1b6020820152905b60405191611655602084613265565b848352306146c6565b60405161166c604082613265565b601381527218985919d957d8985d18da17dc995d9bdad959606a1b602082015290611646565b6001906001600160a01b036116ab6107dc838a8961369a565b16808952600460205260408920848a526020526116d78760408b209060ff801983541691151516179055565b868061172b575b156117015788526005602052604088208389526020528360408920555b01611604565b861561170e575b506116fb565b88526005602052604088208389526020528760408120555f611708565b508415156116de565b5060648511156115f9565b50346103065780600319360112610306576001546040516001600160a01b039091168152602090f35b503461030657604036600319011261030657611782613108565b61178a613152565b906117936146a4565b6001600160a01b031680156108d75780835260066020526117c382604085209060ff801983541691151516179055565b7f1a594081ae893ab78e67d9b9e843547318164322d32c65369d78a96172d9dc8f60206040518415158152a215611825576106cb604051611805604082613265565b600e81526d1bdc195c985d1bdc97d85919195960921b6020820152614a6c565b6106cb604051611836604082613265565b601081526f1bdc195c985d1bdc97dc995b5bdd995960821b6020820152614a6c565b5034610306578060031936011261030657602060ff60115460081c16604051908152f35b5034610306578060031936011261030657602061ffff60115460101c16604051908152f35b5034610306576060366003190112610306576118bb613108565b906024356001600160401b038111610808576118db903690600401613194565b906044359360ff8516809503611056576118f36146a4565b6001600160a01b0316918215611c285760648511611bee5782845260106020526040842054611bb357604051946119298661324a565b838652611937368385613570565b95602081019687526040810190828252606081019060018252600f54600160401b811015611b9f5780600161196f9201600f556133a7565b919091611b8b575181546001600160a01b0319166001600160a01b03919091161781559751805190989060018201906001600160401b038111611b77576119b68254613212565b601f8111611b32575b506020601f8211600114611aa857918160ff94926002948d9e7f28074cc836ee3f9b71c5f19669ad560de5d34c8d7b0cfcd86301093fba4908ed9d9e92611a9d575b50508160011b915f199060031b1c19161790555b0192511660ff1983541617825551151561ff0082549160081b169061ff001916179055600f5485875260106020526040872055611a5f6040519384936040855260408501916135c3565b9060208301520390a26106cb604051611a79604082613265565b60128152711cd8dbdc9957dcdbdd5c98d957d85919195960721b6020820152614a6c565b015190505f80611a01565b828b52808b209b601f1983168c5b818110611b1a5750927f28074cc836ee3f9b71c5f19669ad560de5d34c8d7b0cfcd86301093fba4908ed9b9c9d600295936001938360ff999710611b02575b505050811b019055611a15565b01515f1960f88460031b161c191690555f8080611af5565b838301518f556001909e019d60209384019301611ab6565b828b5260208b20601f830160051c81019160208410611b6d575b601f0160051c01905b818110611b6257506119bf565b8b8155600101611b55565b9091508190611b4c565b634e487b7160e01b8a52604160045260248afd5b634e487b7160e01b89526004899052602489fd5b634e487b7160e01b89526041600452602489fd5b60405162461bcd60e51b8152602060048201526013602482015272534545523a20736f757263652065786973747360681b6044820152606490fd5b60405162461bcd60e51b81526020600482015260126024820152710534545523a20776569676874203e203130360741b6044820152606490fd5b60405162461bcd60e51b8152602060048201526011602482015270534545523a207a65726f20736f7572636560781b6044820152606490fd5b5034610306578060031936011261030657602061ffff60115460301c16604051908152f35b503461030657606036600319011261030657611ca0613108565b611ca8613152565b90604435918260010b80930361105657611cc06146a4565b6001600160a01b03821680855260126020526040852060020180546001600160401b03811615611edc5760ff8160401c16611e9e5769ffff0000000000000000191683151560481b60ff60481b1617600160401b1790556106cb937f2eec6b0a78eba6860ae5bb6579b36b4b751ba52ee7d16723279b46572c96469d906040908480611e95575b611dd2575b60135480611dc0575b5081519085151582526020820152a215611db9576001905b604051611d7b604082613265565b60168152751cd8dbdc9957d91a5cdc1d5d1957dc995cdbdb1d995960521b602082015260ff60405193611daf602086613265565b86855216916146c6565b8290611d6d565b611dc990613642565b6013555f611d55565b837f97bd20c77df683df83db0a97dc89f48199a8ab88197522acbc07667bd9cb815b60a061ffff611e028a614611565b16611e0d8582613627565b600a8112611e8d575b8c6127108213611e83575b61ffff88828883945260036020522092161661ffff19825416179055838c52600360205261ffff868d20541686519182526020820152606086820152601060608201526f191a5cdc1d5d1957dc995cdbdb1d995960821b6080820152a2611d4c565b6127109150611e21565b50600a611e16565b50801515611d47565b60405162461bcd60e51b815260206004820152601660248201527514d151548e88185b1c9958591e481c995cdbdb1d995960521b6044820152606490fd5b60405162461bcd60e51b815260206004820152601660248201527514d151548e881b9bc8191a5cdc1d5d1948199bdd5b9960521b6044820152606490fd5b5034610306578060031936011261030657602061ffff601154821c16604051908152f35b5034610306578060031936011261030657602061ffff600e5460481c16604051908152f35b5034610306578060031936011261030657546040516001600160a01b039091168152602090f35b50346103065780600319360112610306576020604051600a8152f35b503461030657611fb5366131c1565b611fc294939291946146a4565b6001600160a01b03831680156120865761ffff83169261271084116120775795612071917f97bd20c77df683df83db0a97dc89f48199a8ab88197522acbc07667bd9cb815b6106cb979861201588614611565b838b52600360205260408b208861ffff1982541617905561203d878660405194859485613602565b0390a26040519261204f604085613265565b600e84526d1cd9595c97dcd8dbdc9957dcd95d60921b60208501523691613570565b926146c6565b6302f9198160e51b8652600486fd5b630409728b60e41b8552600485fd5b5034610306578060031936011261030657602060405160328152f35b50346103065760403660031901126103065760209060ff906040906001600160a01b036120dc613108565b16815260048452818120602435825284522054166040519015158152f35b5034610306578060031936011261030657600f54815b818110612127575060409182519182526020820152f35b60ff6002612134836133a7565b50015460081c16612148575b600101612110565b916121546001916135b5565b929050612140565b503461030657606036600319011261030657612176613143565b6024356001600160401b03811680820361105657601e612194613183565b9161219d6146a4565b1061226a576101f461ffff8216116122255768ffffffffffffffff009060ff6affff000000000000000000600e549260481b1694151516906affffffffffffffffffffff1916179160081b161717600e556106cb6040516121ff604082613265565b6014815273191958d85e57d8dbdb999a59d7dd5c19185d195960621b6020820152614a6c565b60405162461bcd60e51b815260206004820152601a60248201527f534545523a20646563617920746f6f20616767726573736976650000000000006044820152606490fd5b60405162461bcd60e51b815260206004820152601b60248201527f534545523a20646563617920737461727420746f6f2073686f727400000000006044820152606490fd5b5034610306576020366003190112610306576122c9613108565b9060018060a01b038216808252600360205261ffff6040832054169182156123e2575b6122fe6122f8856139fb565b94614611565b6011546002546001600160a01b03168015159491939185612356575b5050509061ffff60ff928160c0978160405198168852166020870152166040850152818116606085015260081c166080830152151560a0820152f35b60209192979550602460405180948193630709df4560e01b835260048301525afa9081156123d7579161ffff809260ff959460c099916123a8575b5060018060a01b031615159597508193945061231a565b6123ca915060203d6020116123d0575b6123c28183613265565b8101906135e3565b5f612391565b503d6123b8565b6040513d88823e3d90fd5b91506123ed836136f6565b916122ec565b5034610306578060031936011261030657602060ff60115416604051908152f35b503461030657806003193601126103065760206040516127108152f35b503461030657612440366131c1565b919260018060a01b0385541633141580612635575b6126265760ff600754166126185761ffff600b5460101c169061ffff85169182116125d357338652600a602052620151806001600160401b03604088205416016001600160401b03811161155c576001600160401b0316421015612580575b33865260096020526040862060018060a01b0382165f526020526124e08561ffff60405f2054166133f7565b61ffff80600b5416911611612531576106cb9433875260096020526040872060018060a01b0383165f5260205261ffff61252160405f2092828454166133f7565b1661ffff19825416179055614760565b60405162461bcd60e51b815260206004820152602160248201527f534545523a206461696c7920726577617264206c696d697420657863656564656044820152601960fa1b6064820152608490fd5b33808752600a60209081526040808920805467ffffffffffffffff1916426001600160401b0316179055918852600981528188206001600160a01b0384165f908152915220805461ffff191690556124b4565b60405162461bcd60e51b815260206004820152601f60248201527f534545523a207265776172642065786365656473206d61782073696e676c65006044820152606490fd5b621e909d60ea1b8552600485fd5b634c87459760e11b8552600485fd5b50338552600660205260ff60408620541615612455565b503461030657602036600319011261030657612666613143565b61266e6146a4565b7f0e2fb031ee032dc02d8011dc50b816eb450cf856abd8261680dac74f72165bd2602082151560ff196007541660ff821617600755604051908152a1156126dd576106cb6040516126c0604082613265565b600b81526a1cd9595c97dc185d5cd95960aa1b6020820152614a6c565b6106cb6040516126ee604082613265565b600d81526c1cd9595c97dd5b9c185d5cd959609a1b6020820152614a6c565b50346103065760203660031901126103065760209060ff906040906001600160a01b03612738613108565b168152600684522054166040519015158152f35b5034612a07576020366003190112612a07576004356001600160401b038111612a075761277d903690600401613194565b9081151580612b89575b15612b4457335f5260126020526001600160401b03600260405f20015416158015612b28575b15612aeb5760405160a081018181106001600160401b03821117612ad7576040523381526127dc368484613570565b6020820190815260408201916001600160401b034216835260608101905f825260808101925f8452335f52601260205260405f209160018060a01b039060018060a01b03905116166001600160601b0360a01b8354161782556001820190518051906001600160401b038211612ad7576128568354613212565b601f8111612a92575b50602090601f8311600114612a16576128f0969461297a99989694846001600160401b039586956002955f92612a0b575b50508160011b915f199060031b1c19161790555b01945116166001600160401b031984541617835551151560ff60401b83549160401b169060ff60401b191617825551151560ff60481b825491151560481b169060ff60481b1916179055565b6128fb6013546135b5565b601355604051602081527fb23ac579e6192f602dcd9cb4739d7aac62bf98df815a123ea748071d25b808753391806129376020820188876135c3565b0390a260405192612949604085613265565b601784527f73636f72655f646973707574655f72657175657374656400000000000000000060208501523691613570565b6001546001600160a01b0316919082612991578380f35b823b15612a07576129e5926129cd5f809460405196879586948593630303c28760e61b8552336004860152608060248601526084850190613326565b90846044850152600319848303016064850152613326565b03925af16129f4575b80808380f35b612a0091505f90613265565b5f5f6129ee565b5f80fd5b015190505f80612890565b90601f19831691845f52815f20925f5b818110612a7a5750946001856001600160401b0396956002956128f09c9a9561297a9f9e9c9a988a9910612a62575b505050811b0190556128a4565b01515f1960f88460031b161c191690555f8080612a55565b92936020600181928786015181550195019301612a26565b835f5260205f20601f840160051c81019160208510612acd575b601f0160051c01905b818110612ac2575061285f565b5f8155600101612ab5565b9091508190612aac565b634e487b7160e01b5f52604160045260245ffd5b60405162461bcd60e51b8152602060048201526015602482015274534545523a20646973707574652070656e64696e6760581b6044820152606490fd5b50335f52601260205260ff600260405f20015460401c166127ad565b60405162461bcd60e51b815260206004820152601b60248201527f534545523a20696e76616c696420726561736f6e206c656e67746800000000006044820152606490fd5b506101f4821115612787565b34612a07576020366003190112612a07576001600160a01b03612bb6613108565b165f90815260126020526040902080546001600160a01b03166002612bdd60018401613286565b92015460ff612bfe604051948594855260a0602086015260a0850190613326565b916001600160401b0381166040850152818160401c161515606085015260481c16151560808301520390f35b34612a07576080366003190112612a0757612c43613161565b612c4b613172565b612c53613183565b6064359061ffff821690818303612a0757612c6c6146a4565b61ffff841661ffff861693818511612e90576127108211612e90576103e88510612e4b5761251c8211612e065761ffff831692610bb88410612db657610bb88510612d725767ffff00000000000060809765ffff000000007f41bc9bed7ea81d63e5ff2964100fd598eb19876ddea235344dab5ef7c0af0c899a61ffff60401b6011549660401b169563ffff000061ffff60401b199260101b169067ffffffffffff0000191617169160201b16179160301b161717601155604051938452602084015260408301526060820152a1612d70604051612d4b604082613265565b60138152721cd9595c97dd1a1c995cda1bdb191cd7dcd95d606a1b6020820152614a6c565b005b606460405162461bcd60e51b815260206004820152602060248201527f534545523a206d65726368616e74207468726573686f6c6420746f6f206c6f776044820152fd5b60405162461bcd60e51b815260206004820152602260248201527f534545523a20676f7665726e616e6365207468726573686f6c6420746f6f206c6044820152616f7760f01b6064820152608490fd5b60405162461bcd60e51b815260206004820152601d60248201527f534545523a2068696768207468726573686f6c6420746f6f20686967680000006044820152606490fd5b60405162461bcd60e51b815260206004820152601b60248201527f534545523a206c6f77207468726573686f6c6420746f6f206c6f7700000000006044820152606490fd5b6302f9198160e51b5f5260045ffd5b34612a07575f366003190112612a0757602060ff600e54166040519015158152f35b34612a0757612ecf366131c1565b919260018060a01b035f541633141580612f7a575b612f6b5760ff60075416612f5d5761ffff80600b5460101c169416938411612f1857612f12612d7094613560565b90614760565b60405162461bcd60e51b815260206004820152601f60248201527f534545523a2070756e6973682065786365656473206d61782073696e676c65006044820152606490fd5b621e909d60ea1b5f5260045ffd5b634c87459760e11b5f5260045ffd5b50335f52600660205260ff60405f20541615612ee4565b34612a07576020366003190112612a075760606001600160401b0361ffff612fbf612fba613108565b61340d565b9193908360405195168552166020840152166040820152f35b34612a07576080366003190112612a0757612d70612ff4613108565b602435612fff613134565b60643561300a6146a4565b60018060a01b038416805f52600460205260405f20845f5260205261303e8360405f209060ff801983541691151516179055565b82806130ff575b156130d3575f52600560205260405f20835f5260205260405f20555b156130a657604051613074604082613265565b600d81526c18985919d957d9dc985b9d1959609a1b60208201525b6040519261309e602085613265565b5f84526146c6565b6040516130b4604082613265565b600d81526c18985919d957dc995d9bdad959609a1b602082015261308f565b905081156130e2575b50613061565b5f52600560205260405f20825f526020525f6040812055846130dc565b50811515613045565b600435906001600160a01b0382168203612a0757565b602435906001600160a01b0382168203612a0757565b604435908115158203612a0757565b600435908115158203612a0757565b602435908115158203612a0757565b6004359061ffff82168203612a0757565b6024359061ffff82168203612a0757565b6044359061ffff82168203612a0757565b9181601f84011215612a07578235916001600160401b038311612a075760208381860195010111612a0757565b6060600319820112612a07576004356001600160a01b0381168103612a07579160243561ffff81168103612a075791604435906001600160401b038211612a075761320e91600401613194565b9091565b90600182811c92168015613240575b602083101461322c57565b634e487b7160e01b5f52602260045260245ffd5b91607f1691613221565b608081019081106001600160401b03821117612ad757604052565b90601f801991011681019081106001600160401b03821117612ad757604052565b9060405191825f82549261329984613212565b808452936001811690811561330457506001146132c0575b506132be92500383613265565b565b90505f9291925260205f20905f915b8183106132e85750509060206132be928201015f6132b1565b60209193508060019154838589010152019101909184926132cf565b9050602092506132be94915060ff191682840152151560051b8201015f6132b1565b805180835260209291819084018484015e5f828201840152601f01601f1916010190565b9181601f84011215612a07578235916001600160401b038311612a07576020808501948460051b010111612a0757565b8054821015613393575f5260205f209060011b01905f90565b634e487b7160e01b5f52603260045260245ffd5b600f5481101561339357600f5f52600360205f20910201905f90565b906001600160401b03809116911603906001600160401b0382116133e357565b634e487b7160e01b5f52601160045260245ffd5b9061ffff8091169116019061ffff82116133e357565b61341681614611565b6001600160a01b039091165f908152600d60205260409020546001600160401b031680158015613553575b61354b576001600160401b0361345d62015180928242166133c3565b16049081600e54906001600160401b038260081c1690816001600160401b03821610613540575061ffff601e6001600160401b0361349c8194886133c3565b16049260481c16911602806001600160401b038116036133e35761ffff169061ffff81169061138882115f146134ff57506113871981019061ffff82116133e357829161ffff168211156134f257505061138892565b0361ffff81116133e35792565b90611388811015613538576113880361ffff81116133e357829061ffff1681111561352c57505061138892565b613535916133f7565b92565b505061138892565b949350505091905f90565b50905f905f90565b5060ff600e541615613441565b600160ff1b81146133e3575f0390565b9291926001600160401b038211612ad75760405191613599601f8201601f191660200184613265565b829481845281830111612a07578281602093845f960137010152565b5f1981146133e35760010190565b908060209392818452848401375f828201840152601f01601f1916010190565b90816020910312612a0757516001600160a01b0381168103612a075790565b61ffff61362495938160609416835216602082015281604082015201916135c3565b90565b9190915f83820193841291129080158216911516176133e357565b80156133e3575f190190565b1561365557565b60405162461bcd60e51b815260206004820152601860248201527f534545523a20696e76616c69642062617463682073697a6500000000000000006044820152606490fd5b91908110156133935760051b0190565b356001600160a01b0381168103612a075790565b6001600160401b038111612ad75760051b60200190565b919082018092116133e357565b80518210156133935760209160051b010190565b6001600160a01b03811680156139e057600254611388916001600160a01b03909116908161396c575b50505f9161372c81613c8b565b613963575b61373a81613d21565b613951575b61374881613dab565b61393f575b61375681613e35565b61392d575b61376481613ebf565b61391b575b61377281613f49565b613909575b61378081613fd3565b6138f7575b61378e8161405d565b6138e5575b61379c816140e7565b6138d3575b6137aa81614171565b6138c1575b6137b8816141fb565b6138af575b6137c681614285565b61389d575b6137d48161430f565b61388b575b6137e281614399565b613879575b6137f081614423565b613867575b6137fe816144ad565b613855575b61380c90614537565b613835575b9061381b916136d5565b612710811161382c575b61ffff1690565b50612710613825565b601e82018092111561381157634e487b7160e01b5f52601160045260245ffd5b91602881018091116133e35791613803565b91601481018091116133e357916137f5565b91602881018091116133e357916137e7565b91603281018091116133e357916137d9565b91603281018091116133e357916137cb565b91603c81018091116133e357916137bd565b91602881018091116133e357916137af565b91602381018091116133e357916137a1565b91601e81018091116133e35791613793565b91602881018091116133e35791613785565b91601981018091116133e35791613777565b91601481018091116133e35791613769565b91601981018091116133e3579161375b565b91603281018091116133e3579161374d565b91602881018091116133e3579161373f565b601e9250613731565b602090602460405180948193630709df4560e01b835260048301525afa9081156139d5575f916139b6575b506001600160a01b03166139ad575b5f8061371f565b5061157c6139a6565b6139cf915060203d6020116123d0576123c28183613265565b5f613997565b6040513d5f823e3d90fd5b505061138890565b818102929181159184041417156133e357565b6001600160a01b03811680156139e0575f915f915f90600f54915b828110613a9b57505050613a29906136f6565b8260640390606482116133e35783606403613a72575b505081156139e057046127108111613a69575b600a8110613a615761ffff1690565b50600a613825565b50612710613a52565b613a9392613a878361ffff613a8d94166139e8565b906136d5565b926136d5565b905f80613a3f565b60ff6002613aa8836133a7565b50015460081c1615613bb45760246040613ac1836133a7565b5054815163bc0824a360e01b81526004810186905292839182906001600160a01b03165afa805f925f92613b63575b50613b02575b50506001905b01613a16565b60ff169081151580613b53575b15613af65761ffff9097969192971691600a830292808404600a14901517156133e357613b45613b4b92613a87836001966139e8565b966136d5565b95905f613af6565b506103e861ffff82161115613b0f565b925090506040823d8211613bac575b81613b7f60409383613265565b81010312612a075781519161ffff83168303612a0757602001519160ff83168303612a075791905f613af0565b3d9150613b72565b600190613afc565b15613bc357565b60405162461bcd60e51b815260206004820152601460248201527314d151548e88191958d85e48191a5cd8589b195960621b6044820152606490fd5b9190613c0c913691613570565b602081519101209060018060a01b03165f52600c60205260405f20908154805b613c39575050505f905f90565b5f1981018181116133e357826001613c51838761337a565b50015414613c695750613c6390613642565b80613c2c565b9050613c7e91506001600160401b039261337a565b505460201c169060019190565b60018060a01b0316805f52600460205260405f207fa03d1a4a2c4366d3db0c7243a29eef9c5e849fe7328823e0b7288dab59d523105f5260205260ff60405f20541615613d1c575f52600560205260405f207fa03d1a4a2c4366d3db0c7243a29eef9c5e849fe7328823e0b7288dab59d523105f5260205260405f20548015908115613d15575090565b9050421090565b505f90565b60018060a01b0316805f52600460205260405f207f7866cd9bf5624adbb572bdf0ef2c6611719c1bd1dd881d077900477122585f515f5260205260ff60405f20541615613d1c575f52600560205260405f207f7866cd9bf5624adbb572bdf0ef2c6611719c1bd1dd881d077900477122585f515f5260205260405f20548015908115613d15575090565b60018060a01b0316805f52600460205260405f207fcd25a284806e0931bbfbd59e48ca09094f95cc8a54899ac7cf670a7bc084e4c85f5260205260ff60405f20541615613d1c575f52600560205260405f207fcd25a284806e0931bbfbd59e48ca09094f95cc8a54899ac7cf670a7bc084e4c85f5260205260405f20548015908115613d15575090565b60018060a01b0316805f52600460205260405f207f0320a6eadcaf07ad703766ce2aae1e5a2302fd7b9236ecdacdc6089d556ee6615f5260205260ff60405f20541615613d1c575f52600560205260405f207f0320a6eadcaf07ad703766ce2aae1e5a2302fd7b9236ecdacdc6089d556ee6615f5260205260405f20548015908115613d15575090565b60018060a01b0316805f52600460205260405f207ffe3c33b66e28f14b3d890787766ee667031d474e01f41afd2282c6ddd242b1345f5260205260ff60405f20541615613d1c575f52600560205260405f207ffe3c33b66e28f14b3d890787766ee667031d474e01f41afd2282c6ddd242b1345f5260205260405f20548015908115613d15575090565b60018060a01b0316805f52600460205260405f207f1b4e571958fba4ea5c92407500c44c03a913f7a3c4f5746fc318ba401831b4e55f5260205260ff60405f20541615613d1c575f52600560205260405f207f1b4e571958fba4ea5c92407500c44c03a913f7a3c4f5746fc318ba401831b4e55f5260205260405f20548015908115613d15575090565b60018060a01b0316805f52600460205260405f207fa96fb0ea3366184fa9ef274bb2b523bb1410c5597f5b73e284bcc8d9c27caf815f5260205260ff60405f20541615613d1c575f52600560205260405f207fa96fb0ea3366184fa9ef274bb2b523bb1410c5597f5b73e284bcc8d9c27caf815f5260205260405f20548015908115613d15575090565b60018060a01b0316805f52600460205260405f207ff4f1880c72d8dbafc9805eb1c4bcefcb30af90b0ae932e0f050c81b4911258575f5260205260ff60405f20541615613d1c575f52600560205260405f207ff4f1880c72d8dbafc9805eb1c4bcefcb30af90b0ae932e0f050c81b4911258575f5260205260405f20548015908115613d15575090565b60018060a01b0316805f52600460205260405f207ffe29986656bd77a1f0da32c9315bed40455567f6060bea388c123d4bafff845a5f5260205260ff60405f20541615613d1c575f52600560205260405f207ffe29986656bd77a1f0da32c9315bed40455567f6060bea388c123d4bafff845a5f5260205260405f20548015908115613d15575090565b60018060a01b0316805f52600460205260405f207fc4f6113bf43fb59dba21ffee106d9126a16fd7ef738a99e9f98f3366a7bcd6285f5260205260ff60405f20541615613d1c575f52600560205260405f207fc4f6113bf43fb59dba21ffee106d9126a16fd7ef738a99e9f98f3366a7bcd6285f5260205260405f20548015908115613d15575090565b60018060a01b0316805f52600460205260405f207fde4df86a0cfbc1ca19c1967d53b4f9d906c2f3e5f0b5637ff74d60111ad48d745f5260205260ff60405f20541615613d1c575f52600560205260405f207fde4df86a0cfbc1ca19c1967d53b4f9d906c2f3e5f0b5637ff74d60111ad48d745f5260205260405f20548015908115613d15575090565b60018060a01b0316805f52600460205260405f207fe426caaf9f537d800bdc663bd466690f26963dfd7bb0ed1ed5f323a945377dfc5f5260205260ff60405f20541615613d1c575f52600560205260405f207fe426caaf9f537d800bdc663bd466690f26963dfd7bb0ed1ed5f323a945377dfc5f5260205260405f20548015908115613d15575090565b60018060a01b0316805f52600460205260405f207f22d441acdd22f4ae7f00407a46293dd53140dc9fa6beeef35e22cb018b2643445f5260205260ff60405f20541615613d1c575f52600560205260405f207f22d441acdd22f4ae7f00407a46293dd53140dc9fa6beeef35e22cb018b2643445f5260205260405f20548015908115613d15575090565b60018060a01b0316805f52600460205260405f207f8b5b16d04624687fcf0d0228f19993c9157c1ed07b41d8d430fd9100eb099fe85f5260205260ff60405f20541615613d1c575f52600560205260405f207f8b5b16d04624687fcf0d0228f19993c9157c1ed07b41d8d430fd9100eb099fe85f5260205260405f20548015908115613d15575090565b60018060a01b0316805f52600460205260405f207f8f1a39279a10a884ddf0b6a95d0e46f341a5809f447de8f39f0c29e43a9142725f5260205260ff60405f20541615613d1c575f52600560205260405f207f8f1a39279a10a884ddf0b6a95d0e46f341a5809f447de8f39f0c29e43a9142725f5260205260405f20548015908115613d15575090565b60018060a01b0316805f52600460205260405f207fa0bb1af1c90aa52ed052b92714ff0087008cc720049bf1af77cca2600b31e80c5f5260205260ff60405f20541615613d1c575f52600560205260405f207fa0bb1af1c90aa52ed052b92714ff0087008cc720049bf1af77cca2600b31e80c5f5260205260405f20548015908115613d15575090565b60018060a01b0316805f52600460205260405f207f9f56690334c710be9812966692e10c040bde4927265518b422c82505f65961ec5f5260205260ff60405f20541615613d1c575f52600560205260405f207f9f56690334c710be9812966692e10c040bde4927265518b422c82505f65961ec5f5260205260405f20548015908115613d15575090565b60018060a01b0316805f52600460205260405f20825f5260205260ff60405f2054161561460b575f52600560205260405f20905f5260205260405f20548015908115613d15575090565b50505f90565b6001600160a01b0381165f9081526003602052604090205461ffff16908115614693575b6011549060ff8260081c1690811561468d57614674929161ffff61466d6064968260ff614664613a87976139fb565b971691166139e8565b93166139e8565b046127108111613a6957600a8110613a615761ffff1690565b50505090565b905061469e816136f6565b90614635565b5f546001600160a01b031633036146b757565b63483e517d60e01b5f5260045ffd5b60015490916001600160a01b0390911690816146e4575b5050505050565b813b15612a07575f6147279361473e829660405198899788968795630303c28760e61b875260018060a01b03166004870152608060248701526084860190613326565b916044850152600319848303016064850152613326565b03925af1614750575b808080806146dd565b5f61475a91613265565b5f614747565b91909261476c83614611565b9361ffff85169061477d8183613627565b600a8112614a64575b6127108113614a5b575b61ffff169160018060a01b03861690815f52600360205260405f2061ffff851661ffff19825416179055815f52600c60205260405f2093603285541015614968575b6001600160401b034216986147e836888a613570565b6020815191012099604051936147fd8561324a565b845260208401968388526040850190828252606086019c8d528054600160401b811015612ad7576148339160018201815561337a565b919091614955576132be9c6148cc6001600160401b036001936148a261ffff6120719e81807f97bd20c77df683df83db0a97dc89f48199a8ab88197522acbc07667bd9cb815b9e51161682198a54161789555116879063ffff000082549160101b169063ffff00001916179055565b5185546bffffffffffffffff000000001916911660201b6bffffffffffffffff0000000016178455565b51910155845f52600d6020526001600160401b0360405f2091166001600160401b0319825416179055614906878960405194859485613602565b0390a25f81121561494f5761491a90613560565b925b6040519261492b604085613265565b601084526f736565725f73636f72655f64656c746160801b60208501523691613570565b9261491c565b634e487b7160e01b5f525f60045260245ffd5b97959398969492919060015b8a54811015614a1457614987818c61337a565b50905f1981018181116133e35761499e908d61337a565b614955578260019382036149b5575b505001614974565b8054825461ffff90911661ffff19821681178455825463ffff00001663ffffffff199092161717825583908190805484546bffffffffffffffff0000000019166bffffffffffffffff0000000090911617845501549101555f806149ad565b5090919294969893959784548015614a47575f1901614a33818761337a565b614955576001815f809355015585556147d2565b634e487b7160e01b5f52603160045260245ffd5b50612710614790565b50600a614786565b6001546001600160a01b031680614a81575050565b803b15612a0757604051633ddd61ab60e21b815230600482015260606024820152915f918391829084908290614abb906064830190613326565b33604483015203925af1614acc5750565b5f6132be9161326556fea26469706673582212200fb36b0fb84bef075b769e4d42f43421f396f35509ff3c0cccbc18d5ec978f3464736f6c634300081e0033","linkReferences":{}},"methodIdentifiers":{"MAX_HISTORY_PER_USER()":"3909b9de","MAX_SCORE()":"27ff6223","MIN_SCORE()":"40b89270","NEUTRAL()":"7b1f12a8","addScoreSource(address,string,uint8)":"4e3ac713","applyDecay(address)":"edfcc437","applyDecayBatch(address[])":"8101d300","badgeExpiry(address,bytes32)":"d5b37a7f","calculateAutomatedScore(address)":"66bb7b78","calculateOnChainScore(address)":"75055c53","dailyOperatorRewardTotal(address,address)":"5ed2ed9c","dao()":"4162169f","daoScoreWeight()":"29c07cf9","decayEnabled()":"0f39c940","decayPerMonth()":"460da41b","decayStartDays()":"8e20a258","findReasonInHistory(address,string)":"9d30f8d0","getDecayAdjustedScore(address)":"0ba2d872","getScore(address)":"d47875d0","getScoreBreakdown(address)":"2c27750a","getScoreHistory(address)":"5bed5604","getScoreSourceCount()":"362d9b48","getScoresBatch(address[])":"e29d04a2","getTrustLevel(address)":"6a4b783d","getUserStatus(address)":"ea0d5dcd","hasBadge(address,bytes32)":"38179754","highTrustThreshold()":"4a33fb72","isBadgeValid(address,bytes32)":"a1d51dcc","lastActivity(address)":"f07e96b3","lastOperatorRewardTime(address,address)":"b3cc5642","ledger()":"56397c35","lowTrustThreshold()":"52a67c5d","maxDailyOperatorReward()":"b25e4cf1","maxSingleReward()":"9e5f4e9d","minForGovernance()":"4ccf04cf","minForMerchant()":"e710c92b","onChainScoreWeight()":"53a42578","operatorRewardDayStart(address)":"66101d51","operators(address)":"13e7c9d8","paused()":"5c975abb","pendingDisputeCount()":"900acd80","punish(address,uint16,string)":"0c61e69c","removeScoreSource(address)":"62238e8a","requestScoreReview(string)":"1121834f","resolveScoreDispute(address,bool,int16)":"4b9707c4","reward(address,uint16,string)":"1d997a6a","scoreDisputes(address)":"103f8829","scoreHistory(address,uint256)":"691845e4","scoreSourceIndex(address)":"b291d011","scoreSources(uint256)":"a61ff4e1","setBadge(address,bytes32,bool,uint256)":"0494dada","setBadgeBatch(address[],bytes32,bool,uint256)":"59f86611","setDAO(address)":"e73a914c","setDecayConfig(bool,uint64,uint16)":"327d8bfc","setDecentralizationWeights(uint8,uint8)":"6b1cdab1","setModules(address,address)":"d74a5d00","setOperator(address,bool)":"558a7297","setOperatorLimits(uint16,uint16)":"c4a2db65","setPaused(bool)":"16c38b3c","setScore(address,uint16,string)":"3f4d10be","setThresholds(uint16,uint16,uint16,uint16)":"0f83a99c","vaultHub()":"6dd6e80b"},"id":36}