{"abi":[{"type":"constructor","inputs":[{"name":"_dao","type":"address","internalType":"address"},{"name":"_ledger","type":"address","internalType":"address"},{"name":"_hub","type":"address","internalType":"address"}],"stateMutability":"nonpayable"},{"type":"function","name":"MAX_HISTORY_PER_USER","inputs":[],"outputs":[{"name":"","type":"uint8","internalType":"uint8"}],"stateMutability":"view"},{"type":"function","name":"MAX_SCORE","inputs":[],"outputs":[{"name":"","type":"uint16","internalType":"uint16"}],"stateMutability":"view"},{"type":"function","name":"MIN_SCORE","inputs":[],"outputs":[{"name":"","type":"uint16","internalType":"uint16"}],"stateMutability":"view"},{"type":"function","name":"NEUTRAL","inputs":[],"outputs":[{"name":"","type":"uint16","internalType":"uint16"}],"stateMutability":"view"},{"type":"function","name":"addScoreSource","inputs":[{"name":"source","type":"address","internalType":"address"},{"name":"name","type":"string","internalType":"string"},{"name":"weight","type":"uint8","internalType":"uint8"}],"outputs":[],"stateMutability":"nonpayable"},{"type":"function","name":"applyDecay","inputs":[{"name":"subject","type":"address","internalType":"address"}],"outputs":[],"stateMutability":"nonpayable"},{"type":"function","name":"applyDecayBatch","inputs":[{"name":"subjects","type":"address[]","internalType":"address[]"}],"outputs":[],"stateMutability":"nonpayable"},{"type":"function","name":"badgeExpiry","inputs":[{"name":"","type":"address","internalType":"address"},{"name":"","type":"bytes32","internalType":"bytes32"}],"outputs":[{"name":"","type":"uint256","internalType":"uint256"}],"stateMutability":"view"},{"type":"function","name":"calculateAutomatedScore","inputs":[{"name":"subject","type":"address","internalType":"address"}],"outputs":[{"name":"","type":"uint16","internalType":"uint16"}],"stateMutability":"view"},{"type":"function","name":"calculateOnChainScore","inputs":[{"name":"subject","type":"address","internalType":"address"}],"outputs":[{"name":"","type":"uint16","internalType":"uint16"}],"stateMutability":"view"},{"type":"function","name":"dao","inputs":[],"outputs":[{"name":"","type":"address","internalType":"address"}],"stateMutability":"view"},{"type":"function","name":"daoScoreWeight","inputs":[],"outputs":[{"name":"","type":"uint8","internalType":"uint8"}],"stateMutability":"view"},{"type":"function","name":"decayEnabled","inputs":[],"outputs":[{"name":"","type":"bool","internalType":"bool"}],"stateMutability":"view"},{"type":"function","name":"decayPerMonth","inputs":[],"outputs":[{"name":"","type":"uint16","internalType":"uint16"}],"stateMutability":"view"},{"type":"function","name":"decayStartDays","inputs":[],"outputs":[{"name":"","type":"uint64","internalType":"uint64"}],"stateMutability":"view"},{"type":"function","name":"findReasonInHistory","inputs":[{"name":"subject","type":"address","internalType":"address"},{"name":"reason","type":"string","internalType":"string"}],"outputs":[{"name":"found","type":"bool","internalType":"bool"},{"name":"timestamp","type":"uint64","internalType":"uint64"}],"stateMutability":"view"},{"type":"function","name":"getDecayAdjustedScore","inputs":[{"name":"subject","type":"address","internalType":"address"}],"outputs":[{"name":"adjustedScore","type":"uint16","internalType":"uint16"},{"name":"daysInactive","type":"uint64","internalType":"uint64"},{"name":"decayAmount","type":"uint16","internalType":"uint16"}],"stateMutability":"view"},{"type":"function","name":"getScore","inputs":[{"name":"subject","type":"address","internalType":"address"}],"outputs":[{"name":"","type":"uint16","internalType":"uint16"}],"stateMutability":"view"},{"type":"function","name":"getScoreBreakdown","inputs":[{"name":"subject","type":"address","internalType":"address"}],"outputs":[{"name":"daoSetScore","type":"uint16","internalType":"uint16"},{"name":"onChainScore","type":"uint16","internalType":"uint16"},{"name":"finalScore","type":"uint16","internalType":"uint16"},{"name":"daoWeight","type":"uint8","internalType":"uint8"},{"name":"onChainWeight","type":"uint8","internalType":"uint8"},{"name":"hasVault","type":"bool","internalType":"bool"}],"stateMutability":"view"},{"type":"function","name":"getScoreHistory","inputs":[{"name":"subject","type":"address","internalType":"address"}],"outputs":[{"name":"count","type":"uint256","internalType":"uint256"},{"name":"recentChanges","type":"tuple[]","internalType":"struct Seer.ScoreChange[]","components":[{"name":"oldScore","type":"uint16","internalType":"uint16"},{"name":"newScore","type":"uint16","internalType":"uint16"},{"name":"timestamp","type":"uint64","internalType":"uint64"},{"name":"reasonHash","type":"bytes32","internalType":"bytes32"}]}],"stateMutability":"view"},{"type":"function","name":"getScoreSourceCount","inputs":[],"outputs":[{"name":"total","type":"uint256","internalType":"uint256"},{"name":"active","type":"uint256","internalType":"uint256"}],"stateMutability":"view"},{"type":"function","name":"getScoresBatch","inputs":[{"name":"subjects","type":"address[]","internalType":"address[]"}],"outputs":[{"name":"scores","type":"uint16[]","internalType":"uint16[]"}],"stateMutability":"view"},{"type":"function","name":"getTrustLevel","inputs":[{"name":"subject","type":"address","internalType":"address"}],"outputs":[{"name":"level","type":"uint8","internalType":"uint8"},{"name":"levelName","type":"string","internalType":"string"},{"name":"canVote","type":"bool","internalType":"bool"},{"name":"canBeMerchant","type":"bool","internalType":"bool"}],"stateMutability":"view"},{"type":"function","name":"getUserStatus","inputs":[{"name":"subject","type":"address","internalType":"address"}],"outputs":[{"name":"currentScore","type":"uint16","internalType":"uint16"},{"name":"decayAdjustedScore","type":"uint16","internalType":"uint16"},{"name":"daysInactive","type":"uint64","internalType":"uint64"},{"name":"lastActivityTime","type":"uint64","internalType":"uint64"},{"name":"historyCount","type":"uint256","internalType":"uint256"},{"name":"hasPendingDispute","type":"bool","internalType":"bool"},{"name":"isOperator","type":"bool","internalType":"bool"}],"stateMutability":"view"},{"type":"function","name":"hasBadge","inputs":[{"name":"","type":"address","internalType":"address"},{"name":"","type":"bytes32","internalType":"bytes32"}],"outputs":[{"name":"","type":"bool","internalType":"bool"}],"stateMutability":"view"},{"type":"function","name":"highTrustThreshold","inputs":[],"outputs":[{"name":"","type":"uint16","internalType":"uint16"}],"stateMutability":"view"},{"type":"function","name":"isBadgeValid","inputs":[{"name":"subject","type":"address","internalType":"address"},{"name":"badge","type":"bytes32","internalType":"bytes32"}],"outputs":[{"name":"","type":"bool","internalType":"bool"}],"stateMutability":"view"},{"type":"function","name":"lastActivity","inputs":[{"name":"","type":"address","internalType":"address"}],"outputs":[{"name":"","type":"uint64","internalType":"uint64"}],"stateMutability":"view"},{"type":"function","name":"ledger","inputs":[],"outputs":[{"name":"","type":"address","internalType":"contract ProofLedger"}],"stateMutability":"view"},{"type":"function","name":"lowTrustThreshold","inputs":[],"outputs":[{"name":"","type":"uint16","internalType":"uint16"}],"stateMutability":"view"},{"type":"function","name":"minForGovernance","inputs":[],"outputs":[{"name":"","type":"uint16","internalType":"uint16"}],"stateMutability":"view"},{"type":"function","name":"minForMerchant","inputs":[],"outputs":[{"name":"","type":"uint16","internalType":"uint16"}],"stateMutability":"view"},{"type":"function","name":"onChainScoreWeight","inputs":[],"outputs":[{"name":"","type":"uint8","internalType":"uint8"}],"stateMutability":"view"},{"type":"function","name":"operators","inputs":[{"name":"","type":"address","internalType":"address"}],"outputs":[{"name":"","type":"bool","internalType":"bool"}],"stateMutability":"view"},{"type":"function","name":"paused","inputs":[],"outputs":[{"name":"","type":"bool","internalType":"bool"}],"stateMutability":"view"},{"type":"function","name":"pendingDisputeCount","inputs":[],"outputs":[{"name":"","type":"uint256","internalType":"uint256"}],"stateMutability":"view"},{"type":"function","name":"punish","inputs":[{"name":"subject","type":"address","internalType":"address"},{"name":"delta","type":"uint16","internalType":"uint16"},{"name":"reason","type":"string","internalType":"string"}],"outputs":[],"stateMutability":"nonpayable"},{"type":"function","name":"removeScoreSource","inputs":[{"name":"source","type":"address","internalType":"address"}],"outputs":[],"stateMutability":"nonpayable"},{"type":"function","name":"requestScoreReview","inputs":[{"name":"reason","type":"string","internalType":"string"}],"outputs":[],"stateMutability":"nonpayable"},{"type":"function","name":"resolveScoreDispute","inputs":[{"name":"subject","type":"address","internalType":"address"},{"name":"approved","type":"bool","internalType":"bool"},{"name":"adjustment","type":"int16","internalType":"int16"}],"outputs":[],"stateMutability":"nonpayable"},{"type":"function","name":"reward","inputs":[{"name":"subject","type":"address","internalType":"address"},{"name":"delta","type":"uint16","internalType":"uint16"},{"name":"reason","type":"string","internalType":"string"}],"outputs":[],"stateMutability":"nonpayable"},{"type":"function","name":"scoreDisputes","inputs":[{"name":"","type":"address","internalType":"address"}],"outputs":[{"name":"requester","type":"address","internalType":"address"},{"name":"reason","type":"string","internalType":"string"},{"name":"timestamp","type":"uint64","internalType":"uint64"},{"name":"resolved","type":"bool","internalType":"bool"},{"name":"approved","type":"bool","internalType":"bool"}],"stateMutability":"view"},{"type":"function","name":"scoreHistory","inputs":[{"name":"","type":"address","internalType":"address"},{"name":"","type":"uint256","internalType":"uint256"}],"outputs":[{"name":"oldScore","type":"uint16","internalType":"uint16"},{"name":"newScore","type":"uint16","internalType":"uint16"},{"name":"timestamp","type":"uint64","internalType":"uint64"},{"name":"reasonHash","type":"bytes32","internalType":"bytes32"}],"stateMutability":"view"},{"type":"function","name":"scoreSourceIndex","inputs":[{"name":"","type":"address","internalType":"address"}],"outputs":[{"name":"","type":"uint256","internalType":"uint256"}],"stateMutability":"view"},{"type":"function","name":"scoreSources","inputs":[{"name":"","type":"uint256","internalType":"uint256"}],"outputs":[{"name":"source","type":"address","internalType":"address"},{"name":"name","type":"string","internalType":"string"},{"name":"weight","type":"uint8","internalType":"uint8"},{"name":"active","type":"bool","internalType":"bool"}],"stateMutability":"view"},{"type":"function","name":"setBadge","inputs":[{"name":"subject","type":"address","internalType":"address"},{"name":"badge","type":"bytes32","internalType":"bytes32"},{"name":"active","type":"bool","internalType":"bool"},{"name":"expiry","type":"uint256","internalType":"uint256"}],"outputs":[],"stateMutability":"nonpayable"},{"type":"function","name":"setBadgeBatch","inputs":[{"name":"subjects","type":"address[]","internalType":"address[]"},{"name":"badge","type":"bytes32","internalType":"bytes32"},{"name":"active","type":"bool","internalType":"bool"},{"name":"expiry","type":"uint256","internalType":"uint256"}],"outputs":[],"stateMutability":"nonpayable"},{"type":"function","name":"setDAO","inputs":[{"name":"newDAO","type":"address","internalType":"address"}],"outputs":[],"stateMutability":"nonpayable"},{"type":"function","name":"setDecayConfig","inputs":[{"name":"enabled","type":"bool","internalType":"bool"},{"name":"startDays","type":"uint64","internalType":"uint64"},{"name":"perMonth","type":"uint16","internalType":"uint16"}],"outputs":[],"stateMutability":"nonpayable"},{"type":"function","name":"setDecentralizationWeights","inputs":[{"name":"daoWeight","type":"uint8","internalType":"uint8"},{"name":"onChainWeight","type":"uint8","internalType":"uint8"}],"outputs":[],"stateMutability":"nonpayable"},{"type":"function","name":"setModules","inputs":[{"name":"_ledger","type":"address","internalType":"address"},{"name":"_hub","type":"address","internalType":"address"}],"outputs":[],"stateMutability":"nonpayable"},{"type":"function","name":"setOperator","inputs":[{"name":"operator","type":"address","internalType":"address"},{"name":"authorized","type":"bool","internalType":"bool"}],"outputs":[],"stateMutability":"nonpayable"},{"type":"function","name":"setPaused","inputs":[{"name":"_paused","type":"bool","internalType":"bool"}],"outputs":[],"stateMutability":"nonpayable"},{"type":"function","name":"setScore","inputs":[{"name":"subject","type":"address","internalType":"address"},{"name":"newScore","type":"uint16","internalType":"uint16"},{"name":"reason","type":"string","internalType":"string"}],"outputs":[],"stateMutability":"nonpayable"},{"type":"function","name":"setThresholds","inputs":[{"name":"low","type":"uint16","internalType":"uint16"},{"name":"high","type":"uint16","internalType":"uint16"},{"name":"minGov","type":"uint16","internalType":"uint16"},{"name":"minMerch","type":"uint16","internalType":"uint16"}],"outputs":[],"stateMutability":"nonpayable"},{"type":"function","name":"vaultHub","inputs":[],"outputs":[{"name":"","type":"address","internalType":"contract IVaultHub_Trust"}],"stateMutability":"view"},{"type":"event","name":"DAOSet","inputs":[{"name":"oldDAO","type":"address","indexed":true,"internalType":"address"},{"name":"newDAO","type":"address","indexed":true,"internalType":"address"}],"anonymous":false},{"type":"event","name":"DecayApplied","inputs":[{"name":"subject","type":"address","indexed":true,"internalType":"address"},{"name":"oldScore","type":"uint16","indexed":false,"internalType":"uint16"},{"name":"newScore","type":"uint16","indexed":false,"internalType":"uint16"},{"name":"inactiveDays","type":"uint256","indexed":false,"internalType":"uint256"}],"anonymous":false},{"type":"event","name":"DecentralizationUpdated","inputs":[{"name":"daoWeight","type":"uint8","indexed":false,"internalType":"uint8"},{"name":"onChainWeight","type":"uint8","indexed":false,"internalType":"uint8"}],"anonymous":false},{"type":"event","name":"HubSet","inputs":[{"name":"vaultHub","type":"address","indexed":false,"internalType":"address"}],"anonymous":false},{"type":"event","name":"LedgerSet","inputs":[{"name":"ledger","type":"address","indexed":false,"internalType":"address"}],"anonymous":false},{"type":"event","name":"OperatorSet","inputs":[{"name":"operator","type":"address","indexed":true,"internalType":"address"},{"name":"authorized","type":"bool","indexed":false,"internalType":"bool"}],"anonymous":false},{"type":"event","name":"Paused","inputs":[{"name":"isPaused","type":"bool","indexed":false,"internalType":"bool"}],"anonymous":false},{"type":"event","name":"ScoreDisputeRequested","inputs":[{"name":"subject","type":"address","indexed":true,"internalType":"address"},{"name":"reason","type":"string","indexed":false,"internalType":"string"}],"anonymous":false},{"type":"event","name":"ScoreDisputeResolved","inputs":[{"name":"subject","type":"address","indexed":true,"internalType":"address"},{"name":"approved","type":"bool","indexed":false,"internalType":"bool"},{"name":"adjustment","type":"int256","indexed":false,"internalType":"int256"}],"anonymous":false},{"type":"event","name":"ScoreSet","inputs":[{"name":"subject","type":"address","indexed":true,"internalType":"address"},{"name":"oldScore","type":"uint16","indexed":false,"internalType":"uint16"},{"name":"newScore","type":"uint16","indexed":false,"internalType":"uint16"},{"name":"reason","type":"string","indexed":false,"internalType":"string"}],"anonymous":false},{"type":"event","name":"ScoreSourceAdded","inputs":[{"name":"source","type":"address","indexed":true,"internalType":"address"},{"name":"name","type":"string","indexed":false,"internalType":"string"},{"name":"weight","type":"uint8","indexed":false,"internalType":"uint8"}],"anonymous":false},{"type":"event","name":"ScoreSourceRemoved","inputs":[{"name":"source","type":"address","indexed":true,"internalType":"address"}],"anonymous":false},{"type":"event","name":"ThresholdsSet","inputs":[{"name":"low","type":"uint16","indexed":false,"internalType":"uint16"},{"name":"high","type":"uint16","indexed":false,"internalType":"uint16"},{"name":"minForGov","type":"uint16","indexed":false,"internalType":"uint16"},{"name":"minForMerchant","type":"uint16","indexed":false,"internalType":"uint16"}],"anonymous":false},{"type":"error","name":"TRUST_Bounds","inputs":[]},{"type":"error","name":"TRUST_NotDAO","inputs":[]},{"type":"error","name":"TRUST_NotOperator","inputs":[]},{"type":"error","name":"TRUST_Paused","inputs":[]},{"type":"error","name":"TRUST_Zero","inputs":[]}],"bytecode":{"object":"0x60803461012e57601f61459338819003918201601f19168301916001600160401b038311848410176101325780849260609460405283398101031261012e5761004781610146565b90610060604061005960208401610146565b9201610146565b600a80546001600160581b0319166964000000000000005a00179055600d80546915e015181f400fa000646001600160501b0319909116179055916001600160a01b0316801561011f575f80546001600160a01b0319169190911790556001600160a01b031680610105575b506001600160a01b0316806100eb575b604051614438908161015b8239f35b600280546001600160a01b0319169190911790555f6100dc565b600180546001600160a01b0319169190911790555f6100cc565b630409728b60e41b5f5260045ffd5b5f80fd5b634e487b7160e01b5f52604160045260245ffd5b51906001600160a01b038216820361012e5756fe60806040526004361015610011575f80fd5b5f5f3560e01c80630494dada14612a005780630ba2d872146129b95780630c61e69c1461293e5780630f39c9401461291c5780630f83a99c146127e5578063103f8829146127505780631121834f1461230757806313e7c9d8146122c857806316c38b3c146122075780631d997a6a1461219157806327ff62231461217457806329c07cf9146121535780632c27750a1461200f578063327d8bfc14611ebc578063362d9b4814611e5a5780633817975414611e115780633909b9de14611df55780633f4d10be14611d0657806340b8927014611cea5780634162169f14611cc3578063460da41b14611c9e5780634a33fb7214611c7a5780634b9707c4146119e65780634ccf04cf146119c15780634e3ac7131461160157806352a67c5d146115dc57806353a42578146115b8578063558a7297146114c857806356397c351461149f57806359f86611146113055780635bed56041461114c5780635c975abb1461112957806362238e8a1461100f57806366bb7b7814610feb578063691845e414610f6b5780636a4b783d14610e545780636b1cdab114610d235780636dd6e80b14610cfa57806375055c5314610cd65780637b1f12a814610cb95780638101d30014610aae5780638e20a25814610a84578063900acd8014610a665780639d30f8d014610a07578063a1d51dcc146109d5578063a61ff4e11461095a578063b291d01114610921578063d47875d0146108f6578063d5b37a7f146108b3578063d74a5d00146107ca578063e29d04a2146106c0578063e710c92b1461069b578063e73a914c146105e8578063ea0d5dcd146104fb578063edfcc437146102c75763f07e96b314610282575f80fd5b346102c45760203660031901126102c4576020906001600160401b03906040906001600160a01b036102b2612b30565b16815260098452205416604051908152f35b80fd5b50346102c45760203660031901126102c4576102e1612b30565b60ff600754166104ed57600a54906102fb60ff8316613572565b6001600160a01b038116808452600960205260408420546001600160401b0316929083156104a8576001600160401b03620151808161033d8142169788612db3565b16049260081c166001600160401b038316106104635761ffff9161036084612de7565b9490941693508361036f578680f35b828752600360208181526040808a2054868b52928252808a20805461ffff191661ffff958616908117909155868b5260098352818b20805467ffffffffffffffff19166001600160401b039b8c161790558151949093168452908301919091529190951690850152610459937f6f31909d6110ef8da858cbb62b280e06f6073e5ef7c13784cbbd52d4d0a12f0a90606090a26040918251906104118483612c55565b60138252721cd8dbdc9957d91958d85e57d85c1c1b1a5959606a1b602083015261043d84519485612c55565b600a845269696e616374697669747960b01b6020850152613ff2565b5f80808080808680f35b60405162461bcd60e51b815260206004820152601760248201527f534545523a206e6f742079657420646563617961626c650000000000000000006044820152606490fd5b60405162461bcd60e51b815260206004820152601a60248201527f534545523a206e6f20616374697669747920746f2064656361790000000000006044820152606490fd5b621e909d60ea1b8252600482fd5b50346102c45760203660031901126102c45760e090610518612b30565b61052181613f3d565b9161052b82612de7565b5091909260018060a01b03169182825260096020526001600160401b03604083205416908383526008602052604083205492848152600e6020526001600160401b03600260408320015416151594856105ca575b60ff60408361ffff936001600160401b03969552600660205220541696816040519916895216602088015216604086015260608501526080840152151560a0830152151560c0820152f35b808252600e602052604080832060020154901c60ff1615955061057f565b50346102c45760203660031901126102c457610602612b30565b61060a613fd0565b6001600160a01b0316801561068c5781546001600160a01b03198116821783556001600160a01b03167f43cefe694890edd168d1075c3464baea1d7edcf0bc1a1648423ea65b5a2ac0918380a3610689604051610668604082612c55565b600f81526e19185bd7dd1c985b9cd9995c9c9959608a1b6020820152614398565b80f35b630409728b60e41b8252600482fd5b50346102c457806003193601126102c457602061ffff600d5460401c16604051908152f35b50346102c45760203660031901126102c4576004356001600160401b0381116107c6576106f1903690600401612d3a565b90811515806107bb575b61070490613024565b61070d82613094565b9061071b6040519283612c55565b82825261072783613094565b602083019390601f1901368537845b8181106107865750505090604051928392602084019060208552518091526040840192915b818110610769575050500390f35b825161ffff1684528594506020938401939092019160010161075b565b806107a461079f61079a6001948688613070565b613080565b613f3d565b61ffff6107b183886130b8565b9116905201610736565b5060648211156106fb565b5080fd5b50346102c45760403660031901126102c4576107e4612b30565b6024356001600160a01b03811691908290036108af57610802613fd0565b6001600160a01b0316801580156108a7575b610898577f15e04fee0c1335178e78e4dc6a8b0dcade867d1aea65418bf1200bc322ab7c21917fbc62e69a31739e36d57d56991ac20e4e507a7edfff9070e6a11df5a37b8b4e6f60208381946001600160601b0360a01b6001541617600155836001600160601b0360a01b6002541617600255604051908152a1604051908152a180f35b630409728b60e41b8352600483fd5b508115610814565b8280fd5b50346102c45760403660031901126102c4576020906040906001600160a01b036108db612b30565b16815260058352818120602435825283522054604051908152f35b50346102c45760203660031901126102c457602061091561079f612b30565b61ffff60405191168152f35b50346102c45760203660031901126102c4576020906040906001600160a01b03610949612b30565b168152600c83522054604051908152f35b50346102c45760203660031901126102c457600435600b548110156107c65761098290612d97565b5080546001600160a01b0316600261099c60018401612c76565b92015460ff6109bd6040519485948552608060208601526080850190612d16565b91818116604085015260081c16151560608301520390f35b50346102c45760403660031901126102c45760206109fd6109f4612b30565b60243590613eed565b6040519015158152f35b50346102c45760403660031901126102c457610a21612b30565b90602435906001600160401b0382116102c45760406001600160401b03610a5585610a4f3660048801612b84565b916135b5565b835191151582529091166020820152f35b50346102c457806003193601126102c4576020600f54604051908152f35b50346102c457806003193601126102c45760206001600160401b03600a5460081c16604051908152f35b50346102c45760203660031901126102c4576004356001600160401b0381116107c657610adf903690600401612d3a565b9060ff60075416610cab57610af860ff600a5416613572565b81151580610ca0575b15610c655790426001600160401b031690835b818110610b1f578480f35b80610b3061079a6001938588613070565b828060a01b0381169081885260096020526001600160401b036040892054168015610c5d576001600160401b03610b6b620151809289612db3565b1604906001600160401b03600a5460081c166001600160401b03831610610c5d57610b9861ffff91612de7565b905091909116610bad575b5050505b01610b14565b7f6f31909d6110ef8da858cbb62b280e06f6073e5ef7c13784cbbd52d4d0a12f0a91838a526003602052610c5261ffff60408c20541691858c52600360205260408c2061ffff851661ffff19825416179055858c52600960205260408c206001600160401b038b166001600160401b03198254161790556040519384938491604091949361ffff6001600160401b039281606087019816865216602085015216910152565b0390a25f8080610ba3565b505050610ba7565b60405162461bcd60e51b81526020600482015260136024820152720a68a8aa47440d2dcecc2d8d2c840c4c2e8c6d606b1b6044820152606490fd5b506032821115610b01565b621e909d60ea1b8352600483fd5b50346102c457806003193601126102c45760206040516113888152f35b50346102c45760203660031901126102c4576020610915610cf5612b30565b6133b1565b50346102c457806003193601126102c4576002546040516001600160a01b039091168152602090f35b50346102c45760403660031901126102c45760043560ff81168091036107c65760243560ff811691828203610e5057610d5a613fd0565b82810160ff8111610e3c5760ff6064911603610df7577fdc0c1a85c25b1a7535e6884d4ffc9fc836d9897f70e1a7f1c36c97eef3bcdf9c926040928261ff00600d549260081b169161ffff19161717600d5582519182526020820152a1610689604051610dc8604082612c55565b601881527f646563656e7472616c697a6174696f6e5f7570646174656400000000000000006020820152614398565b60405162461bcd60e51b815260206004820152601d60248201527f534545523a2077656967687473206d7573742073756d20746f203130300000006044820152606490fd5b634e487b7160e01b85526011600452602485fd5b8380fd5b50346102c45760203660031901126102c45760ff90610e7461079f612b30565b61ffff600d54911661ffff8260101c168111155f14610ef05761ffff610ed2604051610ea1604082612c55565b6009815268131bddc8151c9d5cdd60ba1b60208201525b604051968796168652608060208701526080860190612d16565b92818160301c16831015604086015260401c16111560608301520390f35b91602082901c61ffff168310610f34575060029161ffff610ed2604051610f18604082612c55565b600a815269121a59da08151c9d5cdd60b21b6020820152610eb8565b916001925061ffff610ed2604051610f4d604082612c55565b600c81526b1359591a5d5b48151c9d5cdd60a21b6020820152610eb8565b50346102c45760403660031901126102c457610f85612b30565b6001600160a01b03168152600860205260408120805460243592908310156102c4576080610fb38484612d6a565b50600181549101546001600160401b036040519261ffff8116845261ffff8160101c16602085015260201c1660408301526060820152f35b50346102c45760203660031901126102c457602061091561100a612b30565b6130cc565b50346102c45760203660031901126102c457611029612b30565b611031613fd0565b6001600160a01b0316808252600c602052604082205480156110eb575f1981019081116110d757611063600291612d97565b500161ff00198154169055808252600c6020528160408120557f826628d8ed5b5660f5dcbab7a54b068dec5e76bbbe84185612d70605652b3a018280a26106896040516110b1604082612c55565b60148152731cd8dbdc9957dcdbdd5c98d957dc995b5bdd995960621b6020820152614398565b634e487b7160e01b83526011600452602483fd5b60405162461bcd60e51b815260206004820152601660248201527514d151548e881cdbdd5c98d9481b9bdd08199bdd5b9960521b6044820152606490fd5b50346102c457806003193601126102c457602060ff600754166040519015158152f35b50346102c45760203660031901126102c4576001600160a01b0361116e612b30565b1681526008602052604081208054600a8111156112ff57600a5b61119181613094565b9261119f6040519485612c55565b818452601f196111ae83613094565b01855b8181106112d0575050845b8281106112435750505090604051928392604084019084526040602085015282518091526020606085019301915b8181106111f8575050500390f35b91935091602060806001926060875161ffff815116835261ffff8582015116858401526001600160401b036040820151166040840152015160608201520194019101918493926111ea565b8284038481116112bc579061126361125d826001946130ab565b84612d6a565b50826040519161127283612c3a565b6001600160401b03815461ffff8116855261ffff8160101c16602086015260201c166040840152015460608201526112aa82886130b8565b526112b581876130b8565b50016111bc565b634e487b7160e01b87526011600452602487fd5b6020906040516112df81612c3a565b8881528883820152886040820152886060820152828289010152016111b1565b80611188565b50346102c45760803660031901126102c4576004356001600160401b0381116107c657611336903690600401612d3a565b9060243590611343612b46565b9160643590611350613fd0565b84151580611494575b61136290613024565b855b8581106113f257866106898787156113be57604051611384604082612c55565b601381527218985919d957d8985d18da17d9dc985b9d1959606a1b6020820152905b604051916113b5602084612c55565b84835230613ff2565b6040516113cc604082612c55565b601381527218985919d957d8985d18da17dc995d9bdad959606a1b6020820152906113a6565b6001906001600160a01b0361140b61079a838a89613070565b16808952600460205260408920848a526020526114378760408b209060ff801983541691151516179055565b868061148b575b156114615788526005602052604088208389526020528360408920555b01611364565b861561146e575b5061145b565b88526005602052604088208389526020528760408120555f611468565b5084151561143e565b506064851115611359565b50346102c457806003193601126102c4576001546040516001600160a01b039091168152602090f35b50346102c45760403660031901126102c4576114e2612b30565b6114ea612b64565b906114f3613fd0565b6001600160a01b0316801561089857808352600660205261152382604085209060ff801983541691151516179055565b7f1a594081ae893ab78e67d9b9e843547318164322d32c65369d78a96172d9dc8f60206040518415158152a21561158557610689604051611565604082612c55565b600e81526d1bdc195c985d1bdc97d85919195960921b6020820152614398565b610689604051611596604082612c55565b601081526f1bdc195c985d1bdc97dc995b5bdd995960821b6020820152614398565b50346102c457806003193601126102c457602060ff600d5460081c16604051908152f35b50346102c457806003193601126102c457602061ffff600d5460101c16604051908152f35b50346102c45760603660031901126102c45761161b612b30565b906024356001600160401b0381116107c65761163b903690600401612b84565b906044359360ff8516809503610e5057611653613fd0565b6001600160a01b0316918215611988576064851161194e57828452600c6020526040842054611913576040519461168986612c3a565b838652611697368385612f46565b95602081019687526040810190828252606081019060018252600b54600160401b8110156118ff578060016116cf9201600b55612d97565b9190916118eb575181546001600160a01b0319166001600160a01b03919091161781559751805190989060018201906001600160401b0381116118d7576117168254612c02565b601f8111611892575b506020601f821160011461180857918160ff94926002948d9e7f28074cc836ee3f9b71c5f19669ad560de5d34c8d7b0cfcd86301093fba4908ed9d9e926117fd575b50508160011b915f199060031b1c19161790555b0192511660ff1983541617825551151561ff0082549160081b169061ff001916179055600b54858752600c60205260408720556117bf604051938493604085526040850191612f99565b9060208301520390a26106896040516117d9604082612c55565b60128152711cd8dbdc9957dcdbdd5c98d957d85919195960721b6020820152614398565b015190505f80611761565b828b52808b209b601f1983168c5b81811061187a5750927f28074cc836ee3f9b71c5f19669ad560de5d34c8d7b0cfcd86301093fba4908ed9b9c9d600295936001938360ff999710611862575b505050811b019055611775565b01515f1960f88460031b161c191690555f8080611855565b838301518f556001909e019d60209384019301611816565b828b5260208b20601f830160051c810191602084106118cd575b601f0160051c01905b8181106118c2575061171f565b8b81556001016118b5565b90915081906118ac565b634e487b7160e01b8a52604160045260248afd5b634e487b7160e01b89526004899052602489fd5b634e487b7160e01b89526041600452602489fd5b60405162461bcd60e51b8152602060048201526013602482015272534545523a20736f757263652065786973747360681b6044820152606490fd5b60405162461bcd60e51b81526020600482015260126024820152710534545523a20776569676874203e203130360741b6044820152606490fd5b60405162461bcd60e51b8152602060048201526011602482015270534545523a207a65726f20736f7572636560781b6044820152606490fd5b50346102c457806003193601126102c457602061ffff600d5460301c16604051908152f35b50346102c45760603660031901126102c457611a00612b30565b611a08612b64565b90604435918260010b809303610e5057611a20613fd0565b6001600160a01b038216808552600e6020526040852060020180546001600160401b03811615611c3c5760ff8160401c16611bfe5769ffff0000000000000000191683151560481b60ff60481b1617600160401b179055610689937f2eec6b0a78eba6860ae5bb6579b36b4b751ba52ee7d16723279b46572c96469d906040908480611bf5575b611b32575b600f5480611b20575b5081519085151582526020820152a215611b19576001905b604051611adb604082612c55565b60168152751cd8dbdc9957d91a5cdc1d5d1957dc995cdbdb1d995960521b602082015260ff60405193611b0f602086612c55565b8685521691613ff2565b8290611acd565b611b2990613018565b600f555f611ab5565b837f97bd20c77df683df83db0a97dc89f48199a8ab88197522acbc07667bd9cb815b60a061ffff611b628a613f3d565b16611b6d8582612ffd565b600a8112611bed575b8c6127108213611be3575b61ffff88828883945260036020522092161661ffff19825416179055838c52600360205261ffff868d20541686519182526020820152606086820152601060608201526f191a5cdc1d5d1957dc995cdbdb1d995960821b6080820152a2611aac565b6127109150611b81565b50600a611b76565b50801515611aa7565b60405162461bcd60e51b815260206004820152601660248201527514d151548e88185b1c9958591e481c995cdbdb1d995960521b6044820152606490fd5b60405162461bcd60e51b815260206004820152601660248201527514d151548e881b9bc8191a5cdc1d5d1948199bdd5b9960521b6044820152606490fd5b50346102c457806003193601126102c457602061ffff600d54821c16604051908152f35b50346102c457806003193601126102c457602061ffff600a5460481c16604051908152f35b50346102c457806003193601126102c457546040516001600160a01b039091168152602090f35b50346102c457806003193601126102c4576020604051600a8152f35b50346102c457611d1536612bb1565b611d229493929194613fd0565b6001600160a01b0383168015611de65761ffff8316926127108411611dd75795611dd1917f97bd20c77df683df83db0a97dc89f48199a8ab88197522acbc07667bd9cb815b6106899798611d7588613f3d565b838b52600360205260408b208861ffff19825416179055611d9d878660405194859485612fd8565b0390a260405192611daf604085612c55565b600e84526d1cd9595c97dcd8dbdc9957dcd95d60921b60208501523691612f46565b92613ff2565b6302f9198160e51b8652600486fd5b630409728b60e41b8552600485fd5b50346102c457806003193601126102c457602060405160328152f35b50346102c45760403660031901126102c45760209060ff906040906001600160a01b03611e3c612b30565b16815260048452818120602435825284522054166040519015158152f35b50346102c457806003193601126102c457600b54815b818110611e87575060409182519182526020820152f35b60ff6002611e9483612d97565b50015460081c16611ea8575b600101611e70565b91611eb4600191612f8b565b929050611ea0565b50346102c45760603660031901126102c457611ed6612b55565b6024356001600160401b038116808203610e5057601e611ef4612b73565b91611efd613fd0565b10611fca576101f461ffff821611611f855768ffffffffffffffff009060ff6affff000000000000000000600a549260481b1694151516906affffffffffffffffffffff1916179160081b161717600a55610689604051611f5f604082612c55565b6014815273191958d85e57d8dbdb999a59d7dd5c19185d195960621b6020820152614398565b60405162461bcd60e51b815260206004820152601a60248201527f534545523a20646563617920746f6f20616767726573736976650000000000006044820152606490fd5b60405162461bcd60e51b815260206004820152601b60248201527f534545523a20646563617920737461727420746f6f2073686f727400000000006044820152606490fd5b50346102c45760203660031901126102c457612029612b30565b9060018060a01b038216808252600360205261ffff604083205416918215612142575b61205e612058856133b1565b94613f3d565b600d546002546001600160a01b031680151594919391856120b6575b5050509061ffff60ff928160c0978160405198168852166020870152166040850152818116606085015260081c166080830152151560a0820152f35b60209192979550602460405180948193630709df4560e01b835260048301525afa908115612137579161ffff809260ff959460c09991612108575b5060018060a01b031615159597508193945061207a565b61212a915060203d602011612130575b6121228183612c55565b810190612fb9565b5f6120f1565b503d612118565b6040513d88823e3d90fd5b915061214d836130cc565b9161204c565b50346102c457806003193601126102c457602060ff600d5416604051908152f35b50346102c457806003193601126102c45760206040516127108152f35b50346102c4576121a036612bb1565b91939260018060a01b03845416331415806121f0575b6121e15760ff600754166121d35761ffff6106899495169061408c565b621e909d60ea1b8452600484fd5b634c87459760e11b8452600484fd5b50338452600660205260ff604085205416156121b6565b50346102c45760203660031901126102c457612221612b55565b612229613fd0565b7f0e2fb031ee032dc02d8011dc50b816eb450cf856abd8261680dac74f72165bd2602082151560ff196007541660ff821617600755604051908152a1156122985761068960405161227b604082612c55565b600b81526a1cd9595c97dc185d5cd95960aa1b6020820152614398565b6106896040516122a9604082612c55565b600d81526c1cd9595c97dd5b9c185d5cd959609a1b6020820152614398565b50346102c45760203660031901126102c45760209060ff906040906001600160a01b036122f3612b30565b168152600684522054166040519015158152f35b50346125c25760203660031901126125c2576004356001600160401b0381116125c257612338903690600401612b84565b9081151580612744575b156126ff57335f52600e6020526001600160401b03600260405f200154161580156126e3575b156126a65760405160a081018181106001600160401b0382111761269257604052338152612397368484612f46565b6020820190815260408201916001600160401b034216835260608101905f825260808101925f8452335f52600e60205260405f209160018060a01b039060018060a01b03905116166001600160601b0360a01b8354161782556001820190518051906001600160401b038211612692576124118354612c02565b601f811161264d575b50602090601f83116001146125d1576124ab969461253599989694846001600160401b039586956002955f926125c6575b50508160011b915f199060031b1c19161790555b01945116166001600160401b031984541617835551151560ff60401b83549160401b169060ff60401b191617825551151560ff60481b825491151560481b169060ff60481b1916179055565b6124b6600f54612f8b565b600f55604051602081527fb23ac579e6192f602dcd9cb4739d7aac62bf98df815a123ea748071d25b808753391806124f2602082018887612f99565b0390a260405192612504604085612c55565b601784527f73636f72655f646973707574655f72657175657374656400000000000000000060208501523691612f46565b6001546001600160a01b031691908261254c578380f35b823b156125c2576125a0926125885f809460405196879586948593630303c28760e61b8552336004860152608060248601526084850190612d16565b90846044850152600319848303016064850152612d16565b03925af16125af575b80808380f35b6125bb91505f90612c55565b5f5f6125a9565b5f80fd5b015190505f8061244b565b90601f19831691845f52815f20925f5b8181106126355750946001856001600160401b0396956002956124ab9c9a956125359f9e9c9a988a991061261d575b505050811b01905561245f565b01515f1960f88460031b161c191690555f8080612610565b929360206001819287860151815501950193016125e1565b835f5260205f20601f840160051c81019160208510612688575b601f0160051c01905b81811061267d575061241a565b5f8155600101612670565b9091508190612667565b634e487b7160e01b5f52604160045260245ffd5b60405162461bcd60e51b8152602060048201526015602482015274534545523a20646973707574652070656e64696e6760581b6044820152606490fd5b50335f52600e60205260ff600260405f20015460401c16612368565b60405162461bcd60e51b815260206004820152601b60248201527f534545523a20696e76616c696420726561736f6e206c656e67746800000000006044820152606490fd5b506101f4821115612342565b346125c25760203660031901126125c2576001600160a01b03612771612b30565b165f908152600e6020526040902080546001600160a01b0316600261279860018401612c76565b92015460ff6127b9604051948594855260a0602086015260a0850190612d16565b916001600160401b0381166040850152818160401c161515606085015260481c16151560808301520390f35b346125c25760803660031901126125c25760043561ffff81168082036125c2576024359061ffff82168083036125c25761281d612b73565b936064359461ffff8616928387036125c257612837613fd0565b80851161290d57612710811161290d577f41bc9bed7ea81d63e5ff2964100fd598eb19876ddea235344dab5ef7c0af0c899660809665ffff0000000061ffff9561ffff60401b600d549460401b169363ffff000061ffff60401b199260101b169067ffffffffffff0000191617169160201b161767ffff0000000000008460301b161717600d5560405194855260208501521660408301526060820152a161290b6040516128e6604082612c55565b60138152721cd9595c97dd1a1c995cda1bdb191cd7dcd95d606a1b6020820152614398565b005b6302f9198160e51b5f5260045ffd5b346125c2575f3660031901126125c257602060ff600a54166040519015158152f35b346125c25761294c36612bb1565b919260018060a01b035f5416331415806129a2575b6129935760ff600754166129855761297f61ffff61290b9516612f36565b9061408c565b621e909d60ea1b5f5260045ffd5b634c87459760e11b5f5260045ffd5b50335f52600660205260ff60405f20541615612961565b346125c25760203660031901126125c25760606001600160401b0361ffff6129e76129e2612b30565b612de7565b9193908360405195168552166020840152166040820152f35b346125c25760803660031901126125c25761290b612a1c612b30565b602435612a27612b46565b606435612a32613fd0565b60018060a01b038416805f52600460205260405f20845f52602052612a668360405f209060ff801983541691151516179055565b8280612b27575b15612afb575f52600560205260405f20835f5260205260405f20555b15612ace57604051612a9c604082612c55565b600d81526c18985919d957d9dc985b9d1959609a1b60208201525b60405192612ac6602085612c55565b5f8452613ff2565b604051612adc604082612c55565b600d81526c18985919d957dc995d9bdad959609a1b6020820152612ab7565b90508115612b0a575b50612a89565b5f52600560205260405f20825f526020525f604081205584612b04565b50811515612a6d565b600435906001600160a01b03821682036125c257565b6044359081151582036125c257565b6004359081151582036125c257565b6024359081151582036125c257565b6044359061ffff821682036125c257565b9181601f840112156125c2578235916001600160401b0383116125c257602083818601950101116125c257565b60606003198201126125c2576004356001600160a01b03811681036125c2579160243561ffff811681036125c25791604435906001600160401b0382116125c257612bfe91600401612b84565b9091565b90600182811c92168015612c30575b6020831014612c1c57565b634e487b7160e01b5f52602260045260245ffd5b91607f1691612c11565b608081019081106001600160401b0382111761269257604052565b90601f801991011681019081106001600160401b0382111761269257604052565b9060405191825f825492612c8984612c02565b8084529360018116908115612cf45750600114612cb0575b50612cae92500383612c55565b565b90505f9291925260205f20905f915b818310612cd8575050906020612cae928201015f612ca1565b6020919350806001915483858901015201910190918492612cbf565b905060209250612cae94915060ff191682840152151560051b8201015f612ca1565b805180835260209291819084018484015e5f828201840152601f01601f1916010190565b9181601f840112156125c2578235916001600160401b0383116125c2576020808501948460051b0101116125c257565b8054821015612d83575f5260205f209060011b01905f90565b634e487b7160e01b5f52603260045260245ffd5b600b54811015612d8357600b5f52600360205f20910201905f90565b906001600160401b03809116911603906001600160401b038211612dd357565b634e487b7160e01b5f52601160045260245ffd5b612df081613f3d565b6001600160a01b039091165f908152600960205260409020546001600160401b031680158015612f29575b612f21576001600160401b03612e376201518092824216612db3565b16049081600a54906001600160401b038260081c1690816001600160401b03821610612f16575061ffff601e6001600160401b03612e76819488612db3565b16049260481c16911602806001600160401b03811603612dd35761ffff9081169116611388811115612ed4576113871981019061ffff8211612dd357829161ffff16821115612ec757505061138892565b0361ffff8111612dd35792565b611388811015612f0f5780611388039061ffff8211612dd357829161ffff16821115612f0257505061138892565b0161ffff8111612dd35792565b5061138892565b949350505091905f90565b50905f905f90565b5060ff600a541615612e1b565b600160ff1b8114612dd3575f0390565b9291926001600160401b0382116126925760405191612f6f601f8201601f191660200184612c55565b8294818452818301116125c2578281602093845f960137010152565b5f198114612dd35760010190565b908060209392818452848401375f828201840152601f01601f1916010190565b908160209103126125c257516001600160a01b03811681036125c25790565b61ffff612ffa9593816060941683521660208201528160408201520191612f99565b90565b9190915f8382019384129112908015821691151617612dd357565b8015612dd3575f190190565b1561302b57565b60405162461bcd60e51b815260206004820152601860248201527f534545523a20696e76616c69642062617463682073697a6500000000000000006044820152606490fd5b9190811015612d835760051b0190565b356001600160a01b03811681036125c25790565b6001600160401b0381116126925760051b60200190565b91908201809211612dd357565b8051821015612d835760209160051b010190565b6001600160a01b038116801561339657600254611388916001600160a01b039091169081613322575b50505f9161310281613641565b613319575b613110816136d7565b613307575b61311e81613761565b6132f5575b61312c816137eb565b6132e3575b61313a81613875565b6132d1575b613148816138ff565b6132bf575b61315681613989565b6132ad575b61316481613a13565b61329b575b61317281613a9d565b613289575b61318081613b27565b613277575b61318e81613bb1565b613265575b61319c81613c3b565b613253575b6131aa81613cc5565b613241575b6131b881613d4f565b61322f575b6131c681613dd9565b61321d575b6131d490613e63565b6131fd575b906131e3916130ab565b61271081116131f4575b61ffff1690565b506127106131ed565b601e8201809211156131d957634e487b7160e01b5f52601160045260245ffd5b9160288101809111612dd357916131cb565b9160148101809111612dd357916131bd565b9160288101809111612dd357916131af565b9160328101809111612dd357916131a1565b9160328101809111612dd35791613193565b91603c8101809111612dd35791613185565b9160288101809111612dd35791613177565b9160238101809111612dd35791613169565b91601e8101809111612dd3579161315b565b9160288101809111612dd3579161314d565b9160198101809111612dd3579161313f565b9160148101809111612dd35791613131565b9160328101809111612dd35791613123565b9160288101809111612dd35791613115565b601e9250613107565b602090602460405180948193630709df4560e01b835260048301525afa90811561338b575f9161336c575b506001600160a01b0316613363575b5f806130f5565b5061157c61335c565b613385915060203d602011612130576121228183612c55565b5f61334d565b6040513d5f823e3d90fd5b505061138890565b81810292918115918404141715612dd357565b6001600160a01b0381168015613396575f915f915f90600b54915b828110613451575050506133df906130cc565b826064039060648211612dd35783606403613428575b505081156133965704612710811161341f575b600a81106134175761ffff1690565b50600a6131ed565b50612710613408565b6134499261343d8361ffff613443941661339e565b906130ab565b926130ab565b905f806133f5565b60ff600261345e83612d97565b50015460081c161561356a576024604061347783612d97565b5054815163bc0824a360e01b81526004810186905292839182906001600160a01b03165afa805f925f92613519575b506134b8575b50506001905b016133cc565b60ff169081151580613509575b156134ac5761ffff9097969192971691600a830292808404600a1490151715612dd3576134fb6135019261343d8360019661339e565b966130ab565b95905f6134ac565b506103e861ffff821611156134c5565b925090506040823d8211613562575b8161353560409383612c55565b810103126125c25781519161ffff831683036125c257602001519160ff831683036125c25791905f6134a6565b3d9150613528565b6001906134b2565b1561357957565b60405162461bcd60e51b815260206004820152601460248201527314d151548e88191958d85e48191a5cd8589b195960621b6044820152606490fd5b91906135c2913691612f46565b602081519101209060018060a01b03165f52600860205260405f20908154805b6135ef575050505f905f90565b5f198101818111612dd3578260016136078387612d6a565b5001541461361f575061361990613018565b806135e2565b905061363491506001600160401b0392612d6a565b505460201c169060019190565b60018060a01b0316805f52600460205260405f207fa03d1a4a2c4366d3db0c7243a29eef9c5e849fe7328823e0b7288dab59d523105f5260205260ff60405f205416156136d2575f52600560205260405f207fa03d1a4a2c4366d3db0c7243a29eef9c5e849fe7328823e0b7288dab59d523105f5260205260405f205480159081156136cb575090565b9050421090565b505f90565b60018060a01b0316805f52600460205260405f207f7866cd9bf5624adbb572bdf0ef2c6611719c1bd1dd881d077900477122585f515f5260205260ff60405f205416156136d2575f52600560205260405f207f7866cd9bf5624adbb572bdf0ef2c6611719c1bd1dd881d077900477122585f515f5260205260405f205480159081156136cb575090565b60018060a01b0316805f52600460205260405f207fcd25a284806e0931bbfbd59e48ca09094f95cc8a54899ac7cf670a7bc084e4c85f5260205260ff60405f205416156136d2575f52600560205260405f207fcd25a284806e0931bbfbd59e48ca09094f95cc8a54899ac7cf670a7bc084e4c85f5260205260405f205480159081156136cb575090565b60018060a01b0316805f52600460205260405f207ffe3c33b66e28f14b3d890787766ee667031d474e01f41afd2282c6ddd242b1345f5260205260ff60405f205416156136d2575f52600560205260405f207ffe3c33b66e28f14b3d890787766ee667031d474e01f41afd2282c6ddd242b1345f5260205260405f205480159081156136cb575090565b60018060a01b0316805f52600460205260405f207f1b4e571958fba4ea5c92407500c44c03a913f7a3c4f5746fc318ba401831b4e55f5260205260ff60405f205416156136d2575f52600560205260405f207f1b4e571958fba4ea5c92407500c44c03a913f7a3c4f5746fc318ba401831b4e55f5260205260405f205480159081156136cb575090565b60018060a01b0316805f52600460205260405f207fa96fb0ea3366184fa9ef274bb2b523bb1410c5597f5b73e284bcc8d9c27caf815f5260205260ff60405f205416156136d2575f52600560205260405f207fa96fb0ea3366184fa9ef274bb2b523bb1410c5597f5b73e284bcc8d9c27caf815f5260205260405f205480159081156136cb575090565b60018060a01b0316805f52600460205260405f207ff4f1880c72d8dbafc9805eb1c4bcefcb30af90b0ae932e0f050c81b4911258575f5260205260ff60405f205416156136d2575f52600560205260405f207ff4f1880c72d8dbafc9805eb1c4bcefcb30af90b0ae932e0f050c81b4911258575f5260205260405f205480159081156136cb575090565b60018060a01b0316805f52600460205260405f207ffe29986656bd77a1f0da32c9315bed40455567f6060bea388c123d4bafff845a5f5260205260ff60405f205416156136d2575f52600560205260405f207ffe29986656bd77a1f0da32c9315bed40455567f6060bea388c123d4bafff845a5f5260205260405f205480159081156136cb575090565b60018060a01b0316805f52600460205260405f207fc4f6113bf43fb59dba21ffee106d9126a16fd7ef738a99e9f98f3366a7bcd6285f5260205260ff60405f205416156136d2575f52600560205260405f207fc4f6113bf43fb59dba21ffee106d9126a16fd7ef738a99e9f98f3366a7bcd6285f5260205260405f205480159081156136cb575090565b60018060a01b0316805f52600460205260405f207fde4df86a0cfbc1ca19c1967d53b4f9d906c2f3e5f0b5637ff74d60111ad48d745f5260205260ff60405f205416156136d2575f52600560205260405f207fde4df86a0cfbc1ca19c1967d53b4f9d906c2f3e5f0b5637ff74d60111ad48d745f5260205260405f205480159081156136cb575090565b60018060a01b0316805f52600460205260405f207fe426caaf9f537d800bdc663bd466690f26963dfd7bb0ed1ed5f323a945377dfc5f5260205260ff60405f205416156136d2575f52600560205260405f207fe426caaf9f537d800bdc663bd466690f26963dfd7bb0ed1ed5f323a945377dfc5f5260205260405f205480159081156136cb575090565b60018060a01b0316805f52600460205260405f207f22d441acdd22f4ae7f00407a46293dd53140dc9fa6beeef35e22cb018b2643445f5260205260ff60405f205416156136d2575f52600560205260405f207f22d441acdd22f4ae7f00407a46293dd53140dc9fa6beeef35e22cb018b2643445f5260205260405f205480159081156136cb575090565b60018060a01b0316805f52600460205260405f207f8b5b16d04624687fcf0d0228f19993c9157c1ed07b41d8d430fd9100eb099fe85f5260205260ff60405f205416156136d2575f52600560205260405f207f8b5b16d04624687fcf0d0228f19993c9157c1ed07b41d8d430fd9100eb099fe85f5260205260405f205480159081156136cb575090565b60018060a01b0316805f52600460205260405f207f8f1a39279a10a884ddf0b6a95d0e46f341a5809f447de8f39f0c29e43a9142725f5260205260ff60405f205416156136d2575f52600560205260405f207f8f1a39279a10a884ddf0b6a95d0e46f341a5809f447de8f39f0c29e43a9142725f5260205260405f205480159081156136cb575090565b60018060a01b0316805f52600460205260405f207fa0bb1af1c90aa52ed052b92714ff0087008cc720049bf1af77cca2600b31e80c5f5260205260ff60405f205416156136d2575f52600560205260405f207fa0bb1af1c90aa52ed052b92714ff0087008cc720049bf1af77cca2600b31e80c5f5260205260405f205480159081156136cb575090565b60018060a01b0316805f52600460205260405f207f9f56690334c710be9812966692e10c040bde4927265518b422c82505f65961ec5f5260205260ff60405f205416156136d2575f52600560205260405f207f9f56690334c710be9812966692e10c040bde4927265518b422c82505f65961ec5f5260205260405f205480159081156136cb575090565b60018060a01b0316805f52600460205260405f20825f5260205260ff60405f20541615613f37575f52600560205260405f20905f5260205260405f205480159081156136cb575090565b50505f90565b6001600160a01b0381165f9081526003602052604090205461ffff16908115613fbf575b600d549060ff8260081c16908115613fb957613fa0929161ffff613f996064968260ff613f9061343d976133b1565b9716911661339e565b931661339e565b04612710811161341f57600a81106134175761ffff1690565b50505090565b9050613fca816130cc565b90613f61565b5f546001600160a01b03163303613fe357565b63483e517d60e01b5f5260045ffd5b60015490916001600160a01b039091169081614010575b5050505050565b813b156125c2575f6140539361406a829660405198899788968795630303c28760e61b875260018060a01b03166004870152608060248701526084860190612d16565b916044850152600319848303016064850152612d16565b03925af161407c575b80808080614009565b5f61408691612c55565b5f614073565b91909261409883613f3d565b9361ffff8516906140a98183612ffd565b600a8112614390575b6127108113614387575b61ffff169160018060a01b03861690815f52600360205260405f2061ffff851661ffff19825416179055815f52600860205260405f2093603285541015614294575b6001600160401b0342169861411436888a612f46565b60208151910120996040519361412985612c3a565b845260208401968388526040850190828252606086019c8d528054600160401b8110156126925761415f91600182018155612d6a565b91909161428157612cae9c6141f86001600160401b036001936141ce61ffff611dd19e81807f97bd20c77df683df83db0a97dc89f48199a8ab88197522acbc07667bd9cb815b9e51161682198a54161789555116879063ffff000082549160101b169063ffff00001916179055565b5185546bffffffffffffffff000000001916911660201b6bffffffffffffffff0000000016178455565b51910155845f5260096020526001600160401b0360405f2091166001600160401b0319825416179055614232878960405194859485612fd8565b0390a25f81121561427b5761424690612f36565b925b60405192614257604085612c55565b601084526f736565725f73636f72655f64656c746160801b60208501523691612f46565b92614248565b634e487b7160e01b5f525f60045260245ffd5b97959398969492919060015b8a54811015614340576142b3818c612d6a565b50905f198101818111612dd3576142ca908d612d6a565b614281578260019382036142e1575b5050016142a0565b8054825461ffff90911661ffff19821681178455825463ffff00001663ffffffff199092161717825583908190805484546bffffffffffffffff0000000019166bffffffffffffffff0000000090911617845501549101555f806142d9565b5090919294969893959784548015614373575f190161435f8187612d6a565b614281576001815f809355015585556140fe565b634e487b7160e01b5f52603160045260245ffd5b506127106140bc565b50600a6140b2565b6001546001600160a01b0316806143ad575050565b803b156125c257604051633ddd61ab60e21b815230600482015260606024820152915f9183918290849082906143e7906064830190612d16565b33604483015203925af16143f85750565b5f612cae91612c5556fea264697066735822122043d813a80fa270f201b8a6dcd28471f2e854f1bb576720a32ab483d41ea8fa3664736f6c634300081e0033","linkReferences":{}},"methodIdentifiers":{"MAX_HISTORY_PER_USER()":"3909b9de","MAX_SCORE()":"27ff6223","MIN_SCORE()":"40b89270","NEUTRAL()":"7b1f12a8","addScoreSource(address,string,uint8)":"4e3ac713","applyDecay(address)":"edfcc437","applyDecayBatch(address[])":"8101d300","badgeExpiry(address,bytes32)":"d5b37a7f","calculateAutomatedScore(address)":"66bb7b78","calculateOnChainScore(address)":"75055c53","dao()":"4162169f","daoScoreWeight()":"29c07cf9","decayEnabled()":"0f39c940","decayPerMonth()":"460da41b","decayStartDays()":"8e20a258","findReasonInHistory(address,string)":"9d30f8d0","getDecayAdjustedScore(address)":"0ba2d872","getScore(address)":"d47875d0","getScoreBreakdown(address)":"2c27750a","getScoreHistory(address)":"5bed5604","getScoreSourceCount()":"362d9b48","getScoresBatch(address[])":"e29d04a2","getTrustLevel(address)":"6a4b783d","getUserStatus(address)":"ea0d5dcd","hasBadge(address,bytes32)":"38179754","highTrustThreshold()":"4a33fb72","isBadgeValid(address,bytes32)":"a1d51dcc","lastActivity(address)":"f07e96b3","ledger()":"56397c35","lowTrustThreshold()":"52a67c5d","minForGovernance()":"4ccf04cf","minForMerchant()":"e710c92b","onChainScoreWeight()":"53a42578","operators(address)":"13e7c9d8","paused()":"5c975abb","pendingDisputeCount()":"900acd80","punish(address,uint16,string)":"0c61e69c","removeScoreSource(address)":"62238e8a","requestScoreReview(string)":"1121834f","resolveScoreDispute(address,bool,int16)":"4b9707c4","reward(address,uint16,string)":"1d997a6a","scoreDisputes(address)":"103f8829","scoreHistory(address,uint256)":"691845e4","scoreSourceIndex(address)":"b291d011","scoreSources(uint256)":"a61ff4e1","setBadge(address,bytes32,bool,uint256)":"0494dada","setBadgeBatch(address[],bytes32,bool,uint256)":"59f86611","setDAO(address)":"e73a914c","setDecayConfig(bool,uint64,uint16)":"327d8bfc","setDecentralizationWeights(uint8,uint8)":"6b1cdab1","setModules(address,address)":"d74a5d00","setOperator(address,bool)":"558a7297","setPaused(bool)":"16c38b3c","setScore(address,uint16,string)":"3f4d10be","setThresholds(uint16,uint16,uint16,uint16)":"0f83a99c","vaultHub()":"6dd6e80b"},"id":24}