{"abi":[{"type":"function","name":"getScore","inputs":[{"name":"who","type":"address","internalType":"address"}],"outputs":[{"name":"","type":"uint16","internalType":"uint16"}],"stateMutability":"view"},{"type":"function","name":"highTrustThreshold","inputs":[],"outputs":[{"name":"","type":"uint16","internalType":"uint16"}],"stateMutability":"view"},{"type":"function","name":"lowTrustThreshold","inputs":[],"outputs":[{"name":"","type":"uint16","internalType":"uint16"}],"stateMutability":"view"},{"type":"function","name":"minForGovernance","inputs":[],"outputs":[{"name":"","type":"uint16","internalType":"uint16"}],"stateMutability":"view"},{"type":"function","name":"minForMerchant","inputs":[],"outputs":[{"name":"","type":"uint16","internalType":"uint16"}],"stateMutability":"view"},{"type":"function","name":"minScore","inputs":[],"outputs":[{"name":"","type":"uint16","internalType":"uint16"}],"stateMutability":"view"},{"type":"function","name":"scores","inputs":[{"name":"","type":"address","internalType":"address"}],"outputs":[{"name":"","type":"uint16","internalType":"uint16"}],"stateMutability":"view"},{"type":"function","name":"setMin","inputs":[{"name":"m","type":"uint16","internalType":"uint16"}],"outputs":[],"stateMutability":"nonpayable"},{"type":"function","name":"setScore","inputs":[{"name":"who","type":"address","internalType":"address"},{"name":"score","type":"uint16","internalType":"uint16"}],"outputs":[],"stateMutability":"nonpayable"},{"type":"function","name":"setThresholds","inputs":[{"name":"high","type":"uint16","internalType":"uint16"},{"name":"low","type":"uint16","internalType":"uint16"}],"outputs":[],"stateMutability":"nonpayable"}],"bytecode":{"object":"0x60808060405234602c57650fa01f40000065ffffffffffff1960015416176001556102eb90816100318239f35b5f80fdfe6080806040526004361015610012575f80fd5b5f3560e01c90816311a8a5fc146101f657816313c2bedc146101d85750806328dd9b39146101915780634a33fb721461016d5780634ccf04cf1461008a57806352a67c5d1461014a57806376dd110f1461010f578063d47875d0146100e0578063df1224e21461008f5763e710c92b1461008a575f80fd5b61025b565b346100dc5760403660031901126100dc576100a8610223565b6100b0610234565b63ffff000065ffff000000006001549260201b169260101b169065ffffffff0000191617176001555f80f35b5f80fd5b346100dc5760203660031901126100dc5760206101036100fe610245565b61027c565b61ffff60405191168152f35b346100dc5760203660031901126100dc576001600160a01b03610130610245565b165f525f602052602061ffff60405f205416604051908152f35b346100dc575f3660031901126100dc57602061ffff600154821c16604051908152f35b346100dc575f3660031901126100dc57602061ffff60015460101c16604051908152f35b346100dc5760403660031901126100dc576101aa610245565b6101b2610234565b9060018060a01b03165f525f60205261ffff60405f20911661ffff198254161790555f80f35b346100dc575f3660031901126100dc5760209061ffff600154168152f35b346100dc5760203660031901126100dc5761ffff610212610223565b1661ffff1960015416176001555f80f35b6004359061ffff821682036100dc57565b6024359061ffff821682036100dc57565b600435906001600160a01b03821682036100dc57565b346100dc575f3660031901126100dc57602061ffff60015416604051908152f35b6001600160a01b03165f8181526020819052604090205461ffff16156102ae575f525f60205261ffff60405f20541690565b506113889056fea264697066735822122051e363f7ffe185296453814d19774bb6d934e6b173ecf75e2d90e34e29f5c90664736f6c634300081e0033","linkReferences":{}},"methodIdentifiers":{"getScore(address)":"d47875d0","highTrustThreshold()":"4a33fb72","lowTrustThreshold()":"52a67c5d","minForGovernance()":"4ccf04cf","minForMerchant()":"e710c92b","minScore()":"13c2bedc","scores(address)":"76dd110f","setMin(uint16)":"11a8a5fc","setScore(address,uint16)":"28dd9b39","setThresholds(uint16,uint16)":"df1224e2"},"id":91}