{
  "_format": "hh-sol-artifact-1",
  "contractName": "VaultFactory",
  "sourceName": "contracts/VaultFactory.sol",
  "abi": [
    {
      "inputs": [
        {
          "internalType": "address",
          "name": "vaultImpl_",
          "type": "address"
        },
        {
          "internalType": "address",
          "name": "proofLedger_",
          "type": "address"
        },
        {
          "internalType": "address",
          "name": "guardianLock_",
          "type": "address"
        }
      ],
      "stateMutability": "nonpayable",
      "type": "constructor"
    },
    {
      "inputs": [],
      "name": "ImplementationUnset",
      "type": "error"
    },
    {
      "inputs": [],
      "name": "ZeroAddress",
      "type": "error"
    },
    {
      "anonymous": false,
      "inputs": [
        {
          "indexed": false,
          "internalType": "address",
          "name": "guardian",
          "type": "address"
        }
      ],
      "name": "GuardianLockSet",
      "type": "event"
    },
    {
      "anonymous": false,
      "inputs": [
        {
          "indexed": false,
          "internalType": "address",
          "name": "impl",
          "type": "address"
        }
      ],
      "name": "ImplementationSet",
      "type": "event"
    },
    {
      "anonymous": false,
      "inputs": [
        {
          "indexed": true,
          "internalType": "address",
          "name": "previousOwner",
          "type": "address"
        },
        {
          "indexed": true,
          "internalType": "address",
          "name": "newOwner",
          "type": "address"
        }
      ],
      "name": "OwnershipTransferStarted",
      "type": "event"
    },
    {
      "anonymous": false,
      "inputs": [
        {
          "indexed": true,
          "internalType": "address",
          "name": "previousOwner",
          "type": "address"
        },
        {
          "indexed": true,
          "internalType": "address",
          "name": "newOwner",
          "type": "address"
        }
      ],
      "name": "OwnershipTransferred",
      "type": "event"
    },
    {
      "anonymous": false,
      "inputs": [
        {
          "indexed": false,
          "internalType": "address",
          "name": "proof",
          "type": "address"
        }
      ],
      "name": "ProofLedgerSet",
      "type": "event"
    },
    {
      "anonymous": false,
      "inputs": [
        {
          "indexed": true,
          "internalType": "address",
          "name": "user",
          "type": "address"
        },
        {
          "indexed": true,
          "internalType": "address",
          "name": "vault",
          "type": "address"
        }
      ],
      "name": "VaultCreated",
      "type": "event"
    },
    {
      "inputs": [],
      "name": "acceptOwnership",
      "outputs": [],
      "stateMutability": "nonpayable",
      "type": "function"
    },
    {
      "inputs": [
        {
          "internalType": "uint256",
          "name": "",
          "type": "uint256"
        }
      ],
      "name": "allVaults",
      "outputs": [
        {
          "internalType": "address",
          "name": "",
          "type": "address"
        }
      ],
      "stateMutability": "view",
      "type": "function"
    },
    {
      "inputs": [],
      "name": "createMyVault",
      "outputs": [
        {
          "internalType": "address",
          "name": "",
          "type": "address"
        }
      ],
      "stateMutability": "nonpayable",
      "type": "function"
    },
    {
      "inputs": [
        {
          "internalType": "address",
          "name": "user",
          "type": "address"
        }
      ],
      "name": "ensureVault",
      "outputs": [
        {
          "internalType": "address",
          "name": "",
          "type": "address"
        }
      ],
      "stateMutability": "nonpayable",
      "type": "function"
    },
    {
      "inputs": [],
      "name": "guardianLock",
      "outputs": [
        {
          "internalType": "address",
          "name": "",
          "type": "address"
        }
      ],
      "stateMutability": "view",
      "type": "function"
    },
    {
      "inputs": [
        {
          "internalType": "address",
          "name": "",
          "type": "address"
        }
      ],
      "name": "isVault",
      "outputs": [
        {
          "internalType": "bool",
          "name": "",
          "type": "bool"
        }
      ],
      "stateMutability": "view",
      "type": "function"
    },
    {
      "inputs": [],
      "name": "owner",
      "outputs": [
        {
          "internalType": "address",
          "name": "",
          "type": "address"
        }
      ],
      "stateMutability": "view",
      "type": "function"
    },
    {
      "inputs": [],
      "name": "pendingOwner",
      "outputs": [
        {
          "internalType": "address",
          "name": "",
          "type": "address"
        }
      ],
      "stateMutability": "view",
      "type": "function"
    },
    {
      "inputs": [],
      "name": "proofLedger",
      "outputs": [
        {
          "internalType": "address",
          "name": "",
          "type": "address"
        }
      ],
      "stateMutability": "view",
      "type": "function"
    },
    {
      "inputs": [],
      "name": "renounceOwnership",
      "outputs": [],
      "stateMutability": "nonpayable",
      "type": "function"
    },
    {
      "inputs": [
        {
          "internalType": "address",
          "name": "guardian",
          "type": "address"
        }
      ],
      "name": "setGuardianLock",
      "outputs": [],
      "stateMutability": "nonpayable",
      "type": "function"
    },
    {
      "inputs": [
        {
          "internalType": "address",
          "name": "impl",
          "type": "address"
        }
      ],
      "name": "setImplementation",
      "outputs": [],
      "stateMutability": "nonpayable",
      "type": "function"
    },
    {
      "inputs": [
        {
          "internalType": "address",
          "name": "proof",
          "type": "address"
        }
      ],
      "name": "setProofLedger",
      "outputs": [],
      "stateMutability": "nonpayable",
      "type": "function"
    },
    {
      "inputs": [],
      "name": "totalVaults",
      "outputs": [
        {
          "internalType": "uint256",
          "name": "",
          "type": "uint256"
        }
      ],
      "stateMutability": "view",
      "type": "function"
    },
    {
      "inputs": [
        {
          "internalType": "address",
          "name": "newOwner",
          "type": "address"
        }
      ],
      "name": "transferOwnership",
      "outputs": [],
      "stateMutability": "nonpayable",
      "type": "function"
    },
    {
      "inputs": [],
      "name": "vaultImplementation",
      "outputs": [
        {
          "internalType": "address",
          "name": "",
          "type": "address"
        }
      ],
      "stateMutability": "view",
      "type": "function"
    },
    {
      "inputs": [
        {
          "internalType": "address",
          "name": "",
          "type": "address"
        }
      ],
      "name": "vaultOf",
      "outputs": [
        {
          "internalType": "address",
          "name": "",
          "type": "address"
        }
      ],
      "stateMutability": "view",
      "type": "function"
    }
  ],
  "bytecode": "0x6080346101f857601f610bd838819003918201601f19168301916001600160401b038311848410176101fd578084926060946040528339810103126101f85761004781610213565b90610060604061005960208401610213565b9201610213565b600180546001600160a01b031990811690915560008054339281168317825560405193949392916001600160a01b03909116907f8be0079c531659141344cd1fd0a4f28419497f9722a3daafe3b4186f6b6457e09080a36001600160a01b03841693841580156101e7575b6101d6573b156101a357600280546001600160a01b031990811686179091556003805482166001600160a01b03808616918217909255600480549093169186169182179092556040518681527f1d8e376e44ab8afa7cca10d602d2f35350674b1d835b086ea86711161f62efa292602092917fc67aeca4ae51ec8f0dcec79f620f0fe366273b66a268d3f3702da704e875ea6b9184917fab64f92ab780ecbf4f3866f57cee465ff36c89450dcce20237ca7a8d81fb7d13908390a1604051908152a1604051908152a16040516109b090816102288239f35b62461bcd60e51b815260206004820152600e60248201526d1a5b5c1b080858dbdb9d1c9858dd60921b6044820152606490fd5b63d92e233d60e01b60005260046000fd5b506001600160a01b038316156100cb565b600080fd5b634e487b7160e01b600052604160045260246000fd5b51906001600160a01b03821682036101f85756fe6080604052600436101561001257600080fd5b60003560e01c80630709df45146101275780630bd77b36146101225780630f6bab391461011d578063652b9b4114610118578063715018a61461011357806379ba50971461010e57806380dc77fc146101095780638b0af384146101045780638d654023146100ff5780638da5cb5b146100fa5780639094a91e146100f5578063acbb1415146100f0578063bba48a90146100eb578063d784d426146100e6578063e01fd215146100e1578063e30c3978146100dc5763f2fde38b146100d757600080fd5b61061d565b6105f4565b6105dc565b61052d565b610504565b6104db565b610480565b610457565b610439565b610410565b6103af565b6102dc565b610273565b61023f565b6101c3565b610195565b610153565b602090600319011261014e576004356001600160a01b038116810361014e5790565b600080fd5b3461014e576001600160a01b036101693661012c565b166000526005602052602060018060a01b0360406000205416604051908152f35b600091031261014e57565b3461014e57600036600319011261014e5760206101b13361074f565b6040516001600160a01b039091168152f35b3461014e576101d13661012c565b6101d96108a8565b6001600160a01b0316801561022e576020817fc67aeca4ae51ec8f0dcec79f620f0fe366273b66a268d3f3702da704e875ea6b926bffffffffffffffffffffffff60a01b6003541617600355604051908152a1005b63d92e233d60e01b60005260046000fd5b3461014e576001600160a01b036102553661012c565b166000526006602052602060ff604060002054166040519015158152f35b3461014e57600036600319011261014e5761028c6108a8565b600180546001600160a01b0319169055600080546001600160a01b0319811682556001600160a01b03167f8be0079c531659141344cd1fd0a4f28419497f9722a3daafe3b4186f6b6457e08280a3005b3461014e57600036600319011261014e57600154336001600160a01b039091160361035857600180546001600160a01b031916905560008054336001600160a01b0319821681178355916001600160a01b03909116907f8be0079c531659141344cd1fd0a4f28419497f9722a3daafe3b4186f6b6457e09080a3005b60405162461bcd60e51b815260206004820152602960248201527f4f776e61626c6532537465703a2063616c6c6572206973206e6f7420746865206044820152683732bb9037bbb732b960b91b6064820152608490fd5b3461014e577f1d8e376e44ab8afa7cca10d602d2f35350674b1d835b086ea86711161f62efa260206103e03661012c565b6103e86108a8565b600480546001600160a01b0319166001600160a01b03929092169182179055604051908152a1005b3461014e57600036600319011261014e576004546040516001600160a01b039091168152602090f35b3461014e57600036600319011261014e576020600754604051908152f35b3461014e57600036600319011261014e576000546040516001600160a01b039091168152602090f35b3461014e57602036600319011261014e5760043560075481101561014e5760076000527fa66cc928b5edb82af9bd49922954155ab7b0942694bea4ce44661d9a8736c68801546040516001600160a01b039091168152602090f35b3461014e57600036600319011261014e576003546040516001600160a01b039091168152602090f35b3461014e57600036600319011261014e576002546040516001600160a01b039091168152602090f35b3461014e5761053b3661012c565b6105436108a8565b6001600160a01b0381161561022e57803b156105a657600280546001600160a01b0319166001600160a01b039290921691821790556040519081527fab64f92ab780ecbf4f3866f57cee465ff36c89450dcce20237ca7a8d81fb7d1390602090a1005b60405162461bcd60e51b815260206004820152600e60248201526d1a5b5c1b080858dbdb9d1c9858dd60921b6044820152606490fd5b3461014e5760206101b16105ef3661012c565b61074f565b3461014e57600036600319011261014e576001546040516001600160a01b039091168152602090f35b3461014e5761062b3661012c565b6106336108a8565b60018060a01b0316806bffffffffffffffffffffffff60a01b600154161760015560018060a01b03600054167f38d16b8cac22d99fc7c124b9cd0de2d3fa1faef420bfe791d8c362d765e22700600080a3005b634e487b7160e01b600052604160045260246000fd5b90601f8019910116810190811067ffffffffffffffff8211176106be57604052565b610686565b6040513d6000823e3d90fd5b600754680100000000000000008110156106be5760018101600755600060075482101561073b57600790527fa66cc928b5edb82af9bd49922954155ab7b0942694bea4ce44661d9a8736c6880180546001600160a01b0319166001600160a01b03909216919091179055565b634e487b7160e01b81526032600452602490fd5b6002549091906001600160a01b03168015610897576001600160a01b038381166000908152600560205260409020541680610892575061078e90610900565b60035490926001600160a01b0380851692166004546001600160a01b031690833b1561014e5760405163c0c53b8b60e01b81526001600160a01b03848116600483015291821660248201529116604482015260008160648183875af1801561088d57610872575b506001600160a01b03818116600090815260056020908152604080832080546001600160a01b03191694891694851790559282526006905220805460ff19166001179055610842846106cf565b6001600160a01b03167f5d9c31ffa0fecffd7cf379989a3c7af252f0335e0d2a1320b55245912c781f53600080a3565b8061088160006108879361069c565b8061018a565b386107f5565b6106c3565b925050565b6348fc217f60e01b60005260046000fd5b6000546001600160a01b031633036108bc57565b606460405162461bcd60e51b815260206004820152602060248201527f4f776e61626c653a2063616c6c6572206973206e6f7420746865206f776e65726044820152fd5b60379060405190693d602d80600a3d3981f3825260601b60148201526e5af43d82803e903d91602b57fd5bf360288201526000f0906001600160a01b0382161561094657565b60405162461bcd60e51b815260206004820152600c60248201526b18db1bdb994819985a5b195960a21b6044820152606490fdfea26469706673582212203f78782e76a6f15566ae8472ba256cf51224c6ceabc201201c9154f7db47c1c264736f6c634300081e0033",
  "linkReferences": {},
  "deployedLinkReferences": {}
}