{"abi":[{"type":"constructor","inputs":[{"name":"_dao","type":"address","internalType":"address"},{"name":"_election","type":"address","internalType":"address"},{"name":"_seer","type":"address","internalType":"address"},{"name":"_ecosystemVault","type":"address","internalType":"address"},{"name":"_councilSalary","type":"address","internalType":"address"},{"name":"_token","type":"address","internalType":"address"}],"stateMutability":"nonpayable"},{"type":"function","name":"CHECK_INTERVAL","inputs":[],"outputs":[{"name":"","type":"uint256","internalType":"uint256"}],"stateMutability":"view"},{"type":"function","name":"COUNCIL_MIN_SCORE","inputs":[],"outputs":[{"name":"","type":"uint16","internalType":"uint16"}],"stateMutability":"view"},{"type":"function","name":"COUNCIL_PERCENTAGE","inputs":[],"outputs":[{"name":"","type":"uint256","internalType":"uint256"}],"stateMutability":"view"},{"type":"function","name":"GRACE_PERIOD","inputs":[],"outputs":[{"name":"","type":"uint256","internalType":"uint256"}],"stateMutability":"view"},{"type":"function","name":"OPS_PERCENTAGE","inputs":[],"outputs":[{"name":"","type":"uint256","internalType":"uint256"}],"stateMutability":"view"},{"type":"function","name":"checkDailyScores","inputs":[],"outputs":[],"stateMutability":"nonpayable"},{"type":"function","name":"checkMemberScore","inputs":[{"name":"member","type":"address","internalType":"address"}],"outputs":[],"stateMutability":"nonpayable"},{"type":"function","name":"councilSalary","inputs":[],"outputs":[{"name":"","type":"address","internalType":"address"}],"stateMutability":"view"},{"type":"function","name":"dao","inputs":[],"outputs":[{"name":"","type":"address","internalType":"address"}],"stateMutability":"view"},{"type":"function","name":"daysBelow700","inputs":[{"name":"","type":"address","internalType":"address"}],"outputs":[{"name":"","type":"uint256","internalType":"uint256"}],"stateMutability":"view"},{"type":"function","name":"distributePayments","inputs":[],"outputs":[],"stateMutability":"nonpayable"},{"type":"function","name":"ecosystemVault","inputs":[],"outputs":[{"name":"","type":"address","internalType":"address"}],"stateMutability":"view"},{"type":"function","name":"election","inputs":[],"outputs":[{"name":"","type":"address","internalType":"contract ICouncilElection"}],"stateMutability":"view"},{"type":"function","name":"forcePaymentDistribution","inputs":[],"outputs":[],"stateMutability":"nonpayable"},{"type":"function","name":"getGracePeriodStatus","inputs":[{"name":"member","type":"address","internalType":"address"}],"outputs":[{"name":"daysBelow","type":"uint256","internalType":"uint256"},{"name":"lastCheck","type":"uint256","internalType":"uint256"},{"name":"currentScore","type":"uint16","internalType":"uint16"}],"stateMutability":"view"},{"type":"function","name":"getMembersAtRisk","inputs":[],"outputs":[{"name":"membersAtRisk","type":"address[]","internalType":"address[]"},{"name":"daysBelowArray","type":"uint256[]","internalType":"uint256[]"},{"name":"scores","type":"uint16[]","internalType":"uint16[]"}],"stateMutability":"view"},{"type":"function","name":"getPaymentPreview","inputs":[],"outputs":[{"name":"opsAmount","type":"uint256","internalType":"uint256"},{"name":"councilAmount","type":"uint256","internalType":"uint256"},{"name":"vaultBalance","type":"uint256","internalType":"uint256"}],"stateMutability":"view"},{"type":"function","name":"isKeeper","inputs":[{"name":"","type":"address","internalType":"address"}],"outputs":[{"name":"","type":"bool","internalType":"bool"}],"stateMutability":"view"},{"type":"function","name":"isPaymentDue","inputs":[],"outputs":[{"name":"isDue","type":"bool","internalType":"bool"},{"name":"timeUntilNext","type":"uint256","internalType":"uint256"}],"stateMutability":"view"},{"type":"function","name":"lastCheckTime","inputs":[{"name":"","type":"address","internalType":"address"}],"outputs":[{"name":"","type":"uint256","internalType":"uint256"}],"stateMutability":"view"},{"type":"function","name":"lastPaymentTime","inputs":[],"outputs":[{"name":"","type":"uint256","internalType":"uint256"}],"stateMutability":"view"},{"type":"function","name":"paymentInterval","inputs":[],"outputs":[{"name":"","type":"uint256","internalType":"uint256"}],"stateMutability":"view"},{"type":"function","name":"resetGracePeriod","inputs":[{"name":"member","type":"address","internalType":"address"}],"outputs":[],"stateMutability":"nonpayable"},{"type":"function","name":"seer","inputs":[],"outputs":[{"name":"","type":"address","internalType":"contract ISeer"}],"stateMutability":"view"},{"type":"function","name":"setKeeper","inputs":[{"name":"keeper","type":"address","internalType":"address"},{"name":"authorized","type":"bool","internalType":"bool"}],"outputs":[],"stateMutability":"nonpayable"},{"type":"function","name":"setModules","inputs":[{"name":"_election","type":"address","internalType":"address"},{"name":"_seer","type":"address","internalType":"address"},{"name":"_ecosystemVault","type":"address","internalType":"address"},{"name":"_councilSalary","type":"address","internalType":"address"},{"name":"_token","type":"address","internalType":"address"}],"outputs":[],"stateMutability":"nonpayable"},{"type":"function","name":"setPaymentInterval","inputs":[{"name":"_interval","type":"uint256","internalType":"uint256"}],"outputs":[],"stateMutability":"nonpayable"},{"type":"function","name":"token","inputs":[],"outputs":[{"name":"","type":"address","internalType":"contract IERC20"}],"stateMutability":"view"},{"type":"event","name":"KeeperSet","inputs":[{"name":"keeper","type":"address","indexed":true,"internalType":"address"},{"name":"authorized","type":"bool","indexed":false,"internalType":"bool"}],"anonymous":false},{"type":"event","name":"MemberAutoRemoved","inputs":[{"name":"member","type":"address","indexed":true,"internalType":"address"},{"name":"daysBelow","type":"uint256","indexed":false,"internalType":"uint256"},{"name":"finalScore","type":"uint16","indexed":false,"internalType":"uint16"}],"anonymous":false},{"type":"event","name":"MemberGracePeriod","inputs":[{"name":"member","type":"address","indexed":true,"internalType":"address"},{"name":"daysBelow","type":"uint256","indexed":false,"internalType":"uint256"},{"name":"currentScore","type":"uint16","indexed":false,"internalType":"uint16"}],"anonymous":false},{"type":"event","name":"ModulesSet","inputs":[{"name":"election","type":"address","indexed":false,"internalType":"address"},{"name":"seer","type":"address","indexed":false,"internalType":"address"},{"name":"ecosystemVault","type":"address","indexed":false,"internalType":"address"},{"name":"councilSalary","type":"address","indexed":false,"internalType":"address"}],"anonymous":false},{"type":"event","name":"PaymentDistributed","inputs":[{"name":"opsAmount","type":"uint256","indexed":false,"internalType":"uint256"},{"name":"councilAmount","type":"uint256","indexed":false,"internalType":"uint256"},{"name":"timestamp","type":"uint256","indexed":false,"internalType":"uint256"}],"anonymous":false},{"type":"event","name":"ScoreCheckPerformed","inputs":[{"name":"membersChecked","type":"uint256","indexed":false,"internalType":"uint256"},{"name":"membersRemoved","type":"uint256","indexed":false,"internalType":"uint256"},{"name":"timestamp","type":"uint256","indexed":false,"internalType":"uint256"}],"anonymous":false},{"type":"error","name":"CM_NotDAO","inputs":[]},{"type":"error","name":"CM_NotKeeper","inputs":[]},{"type":"error","name":"CM_Zero","inputs":[]}],"bytecode":{"object":"0x6080346101c357601f611a9438819003918201601f19168301916001600160401b038311848410176101c75780849260c0946040528339810103126101c357610047816101db565b90610054602082016101db565b91610061604083016101db565b9061006e606084016101db565b9261008760a0610080608084016101db565b92016101db565b60015f5562278d00600b556001600160a01b0390921693841580156101b2575b80156101a1575b610181576001600160a01b03169081158015610190575b61018157600180546001600160a01b031990811690961790556002805486166001600160a01b03978816908117909155600380548716958816958617905560048054871684179055600580548716928816928317905560068054909616939096169290921790935542600a556040805194855260208501929092529083019190915260608201527f2ad69807131f242e4c6b9e21338b8d7d7d5f32ab1dfaa1eddfa881c305c8f5e790608090a16040516118a490816101f08239f35b6369a9768560e11b5f5260045ffd5b506001600160a01b038116156100c5565b506001600160a01b038416156100ae565b506001600160a01b038616156100a7565b5f80fd5b634e487b7160e01b5f52604160045260245ffd5b51906001600160a01b03821682036101c35756fe60806040526004361015610011575f80fd5b5f5f3560e01c80631497b6c6146112695780631a72a9391461124e5780631cc1cf46146112315780632d55ea3914611209578063386f97d4146111e15780633d3b16d31461104b5780634162169f146110235780634827f86f14610feb5780634b1d3ede14610fc35780636ba42aaa14610f865780636ea33ceb14610f69578063753e2b7f14610e125780637f2dd05b14610d33578063840f21f214610a5e57806399c3c365146109a25780639a882e0f146109795780639e84500f14610940578063b2dbff9114610924578063b9f2c94d14610900578063c1a287e2146108e2578063d157f64514610863578063d1b9e853146107ca578063dd84b5f61461058a578063dfe607f91461056c578063e9b2613c146101ed578063ef93e426146101d0578063fa6e67d3146101795763fc0c546a1461014e575f80fd5b346101765780600319360112610176576006546040516001600160a01b039091168152602090f35b80fd5b5034610176578060031936011261017657600a54600b546040929161019e828261143e565b42106101b85750506001905b825191151582526020820152f35b6101c66101cb92429261143e565b611339565b6101aa565b50346101765780600319360112610176576020604051611b588152f35b50346101765780600319360112610176576002546040516302b553e960e41b815291906001600160a01b0316602083600481845afa928315610561578293610529575b509061023b836113c5565b90610245846113c5565b9361024f816113c5565b938291839160018060a01b0360035416925b8281106103bd5750505050610275816113c5565b9361027f826113c5565b95610289836113c5565b94845b84811061035d57505050505060405193849360608501606086528151809152602060808701920190845b81811061033b57505050848103602086015260208083519283815201920190835b818110610322575050508381036040850152602080845192838152019301915b818110610305575050500390f35b825161ffff168452859450602093840193909201916001016102f7565b82518452879650602093840193909201916001016102d7565b82516001600160a01b03168452889750602093840193909201916001016102b6565b969795966001906001600160a01b036103768285611416565b5116610382828c611416565b5261038d8185611416565b51610398828a611416565b5261ffff6103a68287611416565b51166103b2828b611416565b52019796959761028c565b604051630def1ea960e31b81526004810182905297989697602081602481865afa90811561051e5787916104f0575b506001600160a01b031680156104e757604051630d47875d60e41b815260048101829052602081602481895afa9081156104dc579061ffff9189916104ae575b50169089611b5883108015610497575b610452575b5050506001905b0197969597610261565b918188926104666001969a61048e96611416565b5289526008602052604089205461047d838c611416565b52610488828d611416565b5261139f565b94905f89610441565b50508088526008602052896040892054151561043c565b6104cf915060203d81116104d5575b6104c781836112c8565b810190611385565b5f61042c565b503d6104bd565b6040513d8a823e3d90fd5b50600190610448565b610511915060203d8111610517575b61050981836112c8565b8101906113f7565b5f6103ec565b503d6104ff565b6040513d89823e3d90fd5b9092506020813d602011610559575b81610545602093836112c8565b810103126105555751915f610230565b5f80fd5b3d9150610538565b6040513d84823e3d90fd5b50346101765780600319360112610176576020600a54604051908152f35b50346101765780600319360112610176576105a361182d565b600181540361079857600281556105bf600a54600b549061143e565b421061076457600654600480546040516370a0823160e01b81526001600160a01b0391821692810183905291939260209183916024918391165afa908115610561578291610732575b5080159261061684156112fe565b603c820293828504603c14171561071e578261065860647f0eb31d25061a658c1e8dfc8b152f209fd33a99d76fc7f163c0c0dd31110792b79596048094611339565b918215610700578190604051826020820191631e68b66560e21b835260406024820152600e60648201526d636f756e63696c5f73616c61727960901b6084820152866044820152608481526106ae60a4826112c8565b51925af16106ba611346565b50156106e4576040805192835260208301919091524290820152606090a15b42600a556001815580f35b50606090604051908152836020820152426040820152a16106d9565b505050606090604051908152836020820152426040820152a16106d9565b634e487b7160e01b83526011600452602483fd5b90506020813d60201161075c575b8161074d602093836112c8565b8101031261055557515f610608565b3d9150610740565b60405162461bcd60e51b815260206004820152600c60248201526b21a69d103a37b79039b7b7b760a11b6044820152606490fd5b60405162461bcd60e51b815260206004820152600a6024820152697265656e7472616e637960b01b6044820152606490fd5b5034610176576040366003190112610176576107e46112b2565b6024359081151580920361085f576107fa61180a565b6001600160a01b03169081156108505760207f8dd62d4e1f60b96148552898e743aa2b571686baa26f4f1b647565dc3996c1a791838552600782526040852060ff1981541660ff8316179055604051908152a280f35b6369a9768560e11b8352600483fd5b8280fd5b50346101765760203660031901126101765760043561088061180a565b62093a80811015806108d4575b1561089857600b5580f35b60405162461bcd60e51b815260206004820152601460248201527310d34e881a5b9d985b1a59081a5b9d195c9d985b60621b6044820152606490fd5b506301e1338081111561088d565b5034610176578060031936011261017657602060405162093a808152f35b503461017657806003193601126101765761091961182d565b61092161144b565b80f35b50346101765780600319360112610176576020604051603c8152f35b5034610176576020366003190112610176576020906040906001600160a01b036109686112b2565b168152600983522054604051908152f35b50346101765780600319360112610176576005546040516001600160a01b039091168152602090f35b5034610176576020366003190112610176576001600160a01b036109c46112b2565b16808252600860205260408220549080835260096020526040832054602060018060a01b036003541692602460405180958193630d47875d60e41b835260048301525afa918215610a53579061ffff929160609592610a32575b506040519384526020840152166040820152f35b610a4c91925060203d6020116104d5576104c781836112c8565b905f610a1e565b6040513d86823e3d90fd5b503461055557602036600319011261055557610a786112b2565b610a8061180a565b6002546040516326a8d83b60e21b81526001600160a01b039283166004820181905292909160209183916024918391165afa908115610c70575f91610cf8575b5015610cba57600354604051630d47875d60e41b81526004810183905290602090829060249082906001600160a01b03165afa908115610c70575f91610c9b575b508161ffff821691611b5883105f14610c7b577f77ccff14aca39331ad7b9ad54ee508da63c4b1ffe70c88b6b1aae3ff3f2f2f6890825f52600860205260405f20610b4c815461139f565b90555f838152600960209081526040808320429055600882529182902054825190815261ffff939093169083015290a2815f526008602052600760405f20541015610b9657505080f35b6002546001600160a01b0316803b15610555575f809160a4604051809481936302151fed60e51b835288600484015260406024840152602960448401527f4d616e75616c20636865636b3a2073636f72652062656c6f772037303020666f6064840152687220372b206461797360b81b60848401525af18015610c7057610c5a575b5060407f02ea5c2e20d20fed01018d7171f336ad7533d0f253e76d04639e378afd02b6e59183855260086020528482812055815190600782526020820152a280f35b610c679193505f906112c8565b5f916040610c18565b6040513d5f823e3d90fd5b5090505f5260086020525f60408120555f5260096020524260405f205580f35b610cb4915060203d6020116104d5576104c781836112c8565b5f610b01565b60405162461bcd60e51b815260206004820152601660248201527521a69d103737ba1031b7bab731b4b61036b2b6b132b960511b6044820152606490fd5b90506020813d602011610d2b575b81610d13602093836112c8565b8101031261055557518015158103610555575f610ac0565b3d9150610d06565b34610555575f36600319011261055557600654600480546040516370a0823160e01b81526001600160a01b0391821692810192909252909160209183916024918391165afa908115610c70575f91610de0575b50603c8102818104603c1482151715610dcc5760649004610dc8610daa8284611339565b92604051938493846040919493926060820195825260208201520152565b0390f35b634e487b7160e01b5f52601160045260245ffd5b90506020813d602011610e0a575b81610dfb602093836112c8565b81010312610555575181610d86565b3d9150610dee565b346105555760a036600319011261055557610e2b6112b2565b6024356001600160a01b0381169190829003610555576044356001600160a01b03811690819003610555576064356001600160a01b03811690819003610555576084356001600160a01b0381169290839003610555577f2ad69807131f242e4c6b9e21338b8d7d7d5f32ab1dfaa1eddfa881c305c8f5e794608094610eae61180a565b6001600160a01b03169384610f52575b81610f3b575b82610f24575b83610f0d575b80610eef575b50604051938452602084015260408301526060820152a1005b6bffffffffffffffffffffffff60a01b600654161760065586610ed6565b600580546001600160a01b03191685179055610ed0565b600480546001600160a01b03191684179055610eca565b600380546001600160a01b03191683179055610ec4565b600280546001600160a01b03191686179055610ebe565b34610555575f366003190112610555576020604051620151808152f35b34610555576020366003190112610555576001600160a01b03610fa76112b2565b165f526007602052602060ff60405f2054166040519015158152f35b34610555575f366003190112610555576002546040516001600160a01b039091168152602090f35b34610555576020366003190112610555576001600160a01b0361100c6112b2565b165f526008602052602060405f2054604051908152f35b34610555575f366003190112610555576001546040516001600160a01b039091168152602090f35b34610555575f3660031901126105555761106361180a565b600654600480546040516370a0823160e01b81526001600160a01b03918216928101839052919260209183916024918391165afa908115610c70575f916111af575b508015916110b383156112fe565b603c820292828404603c141715610dcc576110f360647f0eb31d25061a658c1e8dfc8b152f209fd33a99d76fc7f163c0c0dd31110792b794048093611339565b908115611192575f8091604051826020820191631e68b66560e21b835260406024820152601860648201527f636f756e63696c5f73616c6172795f656d657267656e6379000000000000000060848201528660448201526084815261115960a4826112c8565b51925af1611165611346565b501561118b575b6040805192835260208301919091524290820152606090a15b42600a55005b505f61116c565b50506060906040519081525f6020820152426040820152a1611185565b90506020813d6020116111d9575b816111ca602093836112c8565b810103126105555751826110a5565b3d91506111bd565b34610555575f366003190112610555576004546040516001600160a01b039091168152602090f35b34610555575f366003190112610555576003546040516001600160a01b039091168152602090f35b34610555575f366003190112610555576020600b54604051908152f35b34610555575f36600319011261055557602060405160288152f35b34610555576020366003190112610555576112826112b2565b61128a61180a565b6001600160a01b03165f90815260086020908152604080832083905560099091529020429055005b600435906001600160a01b038216820361055557565b90601f8019910116810190811067ffffffffffffffff8211176112ea57604052565b634e487b7160e01b5f52604160045260245ffd5b1561130557565b60405162461bcd60e51b815260206004820152600c60248201526b434d3a206e6f2066756e647360a01b6044820152606490fd5b91908203918211610dcc57565b3d15611380573d9067ffffffffffffffff82116112ea5760405191611375601f8201601f1916602001846112c8565b82523d5f602084013e565b606090565b90816020910312610555575161ffff811681036105555790565b5f198114610dcc5760010190565b67ffffffffffffffff81116112ea5760051b60200190565b906113cf826113ad565b6113dc60405191826112c8565b82815280926113ed601f19916113ad565b0190602036910137565b9081602091031261055557516001600160a01b03811681036105555790565b805182101561142a5760209160051b010190565b634e487b7160e01b5f52603260045260245ffd5b91908201809211610dcc57565b6002546040516302b553e960e41b81526001600160a01b039091169190602081600481865afa908115610c70575f916117d8575b5080156117d3575f905f93611493826113c5565b905f5b83811061176c5750505f5b8281106114f5575050507f47171435c3294a432fde24a20309a16914989c15ae0fd650617b880b3b1bd44e91926114f06040519283924291846040919493926060820195825260208201520152565b0390a1565b6001600160a01b036115078284611416565b511693841561176257845f52600960205260405f2054620151808101809111610dcc574210611762576115399061139f565b936024602060018060a01b036003541660405192838092630d47875d60e41b82528660048301525afa908115610c70575f91611744575b5061ffff811690611b58821015611707577f77ccff14aca39331ad7b9ad54ee508da63c4b1ffe70c88b6b1aae3ff3f2f2f688391825f52600860205260405f206115ba815461139f565b90555f838152600960209081526040808320429055600882529182902054825190815261ffff939093169083015290a2815f526008602052600760405f2054101561160c575b50506001905b016114a1565b6002546001600160a01b0316803b15610555575f809160a4604051809481936302151fed60e51b835288600484015260406024840152603060448401527f50726f6f6653636f72652062656c6f77203730303020666f7220372b2064617960648401526f7320286175746f2d72656d6f76616c2960801b60848401525af190816116f7575b506116b0575b50906001915f5260086020525f6040812055905f611600565b9690807f02ea5c2e20d20fed01018d7171f336ad7533d0f253e76d04639e378afd02b6e560406116e26001969561139f565b9a815190600782526020820152a29091611697565b5f611701916112c8565b5f611691565b505090816001925f52600860205260405f2054611731575b5f5260096020524260405f2055611606565b805f5260086020525f604081205561171f565b61175c915060203d81116104d5576104c781836112c8565b5f611570565b9350600190611606565b604051630def1ea960e31b81526004810182905290602082602481865afa8015610c70576001925f916117b5575b506117a58286611416565b90838060a01b0316905201611496565b6117cd915060203d81116105175761050981836112c8565b5f61179a565b509050565b90506020813d602011611802575b816117f3602093836112c8565b8101031261055557515f61147f565b3d91506117e6565b6001546001600160a01b0316330361181e57565b631700faff60e01b5f5260045ffd5b335f52600760205260ff60405f2054161580611859575b61184a57565b63693a3a7760e01b5f5260045ffd5b506001546001600160a01b031633141561184456fea26469706673582212204882de0e07376f302fea804232b08f3ea38c3cc23589b6af72595d7098d2558964736f6c634300081e0033","linkReferences":{}},"methodIdentifiers":{"CHECK_INTERVAL()":"6ea33ceb","COUNCIL_MIN_SCORE()":"ef93e426","COUNCIL_PERCENTAGE()":"1a72a939","GRACE_PERIOD()":"c1a287e2","OPS_PERCENTAGE()":"b2dbff91","checkDailyScores()":"b9f2c94d","checkMemberScore(address)":"840f21f2","councilSalary()":"9a882e0f","dao()":"4162169f","daysBelow700(address)":"4827f86f","distributePayments()":"dd84b5f6","ecosystemVault()":"386f97d4","election()":"4b1d3ede","forcePaymentDistribution()":"3d3b16d3","getGracePeriodStatus(address)":"99c3c365","getMembersAtRisk()":"e9b2613c","getPaymentPreview()":"7f2dd05b","isKeeper(address)":"6ba42aaa","isPaymentDue()":"fa6e67d3","lastCheckTime(address)":"9e84500f","lastPaymentTime()":"dfe607f9","paymentInterval()":"1cc1cf46","resetGracePeriod(address)":"1497b6c6","seer()":"2d55ea39","setKeeper(address,bool)":"d1b9e853","setModules(address,address,address,address,address)":"753e2b7f","setPaymentInterval(uint256)":"d157f645","token()":"fc0c546a"},"id":0}