{"abi":[{"type":"constructor","inputs":[{"name":"_dev","type":"address","internalType":"address"},{"name":"_dao","type":"address","internalType":"address"},{"name":"_timelock","type":"address","internalType":"address"},{"name":"_seer","type":"address","internalType":"address"},{"name":"_ledger","type":"address","internalType":"address"}],"stateMutability":"nonpayable"},{"type":"function","name":"armFromPresale","inputs":[{"name":"presale","type":"address","internalType":"address"}],"outputs":[],"stateMutability":"nonpayable"},{"type":"function","name":"dao","inputs":[],"outputs":[{"name":"","type":"address","internalType":"contract IDAO_SH"}],"stateMutability":"view"},{"type":"function","name":"devMultisig","inputs":[],"outputs":[{"name":"","type":"address","internalType":"address"}],"stateMutability":"view"},{"type":"function","name":"executeHandover","inputs":[{"name":"newAdmin","type":"address","internalType":"address"}],"outputs":[],"stateMutability":"nonpayable"},{"type":"function","name":"extendOnceIfNeeded","inputs":[{"name":"networkAvgScore","type":"uint16","internalType":"uint16"}],"outputs":[],"stateMutability":"nonpayable"},{"type":"function","name":"extensionSpan","inputs":[],"outputs":[{"name":"","type":"uint64","internalType":"uint64"}],"stateMutability":"view"},{"type":"function","name":"extensionsUsed","inputs":[],"outputs":[{"name":"","type":"uint8","internalType":"uint8"}],"stateMutability":"view"},{"type":"function","name":"handoverAt","inputs":[],"outputs":[{"name":"","type":"uint64","internalType":"uint64"}],"stateMutability":"view"},{"type":"function","name":"ledger","inputs":[],"outputs":[{"name":"","type":"address","internalType":"contract IProofLedger_SH"}],"stateMutability":"view"},{"type":"function","name":"maxExtensions","inputs":[],"outputs":[{"name":"","type":"uint8","internalType":"uint8"}],"stateMutability":"view"},{"type":"function","name":"minAvgCouncilScore","inputs":[],"outputs":[{"name":"","type":"uint16","internalType":"uint16"}],"stateMutability":"view"},{"type":"function","name":"monthsDelay","inputs":[],"outputs":[{"name":"","type":"uint64","internalType":"uint64"}],"stateMutability":"view"},{"type":"function","name":"seer","inputs":[],"outputs":[{"name":"","type":"address","internalType":"contract ISeer_SH"}],"stateMutability":"view"},{"type":"function","name":"setLedger","inputs":[{"name":"_ledger","type":"address","internalType":"address"}],"outputs":[],"stateMutability":"nonpayable"},{"type":"function","name":"setParams","inputs":[{"name":"_monthsDelay","type":"uint64","internalType":"uint64"},{"name":"_minAvg","type":"uint16","internalType":"uint16"},{"name":"_maxExt","type":"uint8","internalType":"uint8"},{"name":"_extSpan","type":"uint64","internalType":"uint64"}],"outputs":[],"stateMutability":"nonpayable"},{"type":"function","name":"start","inputs":[],"outputs":[{"name":"","type":"uint64","internalType":"uint64"}],"stateMutability":"view"},{"type":"function","name":"timelock","inputs":[],"outputs":[{"name":"","type":"address","internalType":"contract IDAOTimelock_SH"}],"stateMutability":"view"},{"type":"event","name":"Armed","inputs":[{"name":"start","type":"uint64","indexed":false,"internalType":"uint64"},{"name":"handoverAt","type":"uint64","indexed":false,"internalType":"uint64"}],"anonymous":false},{"type":"event","name":"Executed","inputs":[{"name":"dao","type":"address","indexed":false,"internalType":"address"},{"name":"timelock","type":"address","indexed":false,"internalType":"address"},{"name":"newAdmin","type":"address","indexed":false,"internalType":"address"},{"name":"extensionsUsed","type":"uint8","indexed":false,"internalType":"uint8"}],"anonymous":false},{"type":"event","name":"LedgerSet","inputs":[{"name":"ledger","type":"address","indexed":false,"internalType":"address"}],"anonymous":false},{"type":"event","name":"ParamsSet","inputs":[{"name":"monthsDelay","type":"uint64","indexed":false,"internalType":"uint64"},{"name":"minAvgCouncilScore","type":"uint16","indexed":false,"internalType":"uint16"},{"name":"maxExtensions","type":"uint8","indexed":false,"internalType":"uint8"},{"name":"extensionSpan","type":"uint64","indexed":false,"internalType":"uint64"}],"anonymous":false},{"type":"error","name":"SH_NotDev","inputs":[]},{"type":"error","name":"SH_TooEarly","inputs":[]},{"type":"error","name":"SH_Zero","inputs":[]}],"bytecode":{"object":"0x608080604052346101e05760a081610d3d803803809161001f8285610239565b8339810103126101e05761003281610270565b61003e60208301610270565b9161004b60408201610270565b90610064608061005d60608401610270565b9201610270565b60058054764f1a00000100000000000000ed4e0000000000000000007fffffffff0000000000000000ff00ffff0000000000000000ffffffffffffffff821617909155936001600160a01b03169290919083158015610228575b8015610217575b8015610206575b6101f7575f80546001600160a01b031990811690951790556001805485166001600160a01b0397881617905560028054851691871691909117905560038054841691861691821790556004805490931691909416178155604051634ccf04cf60e01b815292602091849182905afa9182156101ec575f926101a9575b50764f1a00000100000000000000ed4e0000000000000000007fffffffff0000000000000000ff0000000000000000000000ffffffffffffffff90911660809290921b61ffff60801b169190911717600555604051610ab890816102858239f35b9091506020813d6020116101e4575b816101c560209383610239565b810103126101e0575161ffff811681036101e057905f610148565b5f80fd5b3d91506101b8565b6040513d5f823e3d90fd5b63023a8de560e11b5f5260045ffd5b506001600160a01b038216156100cc565b506001600160a01b038116156100c5565b506001600160a01b038616156100be565b601f909101601f19168101906001600160401b0382119082101761025c57604052565b634e487b7160e01b5f52604160045260245ffd5b51906001600160a01b03821682036101e05756fe6080806040526004361015610012575f80fd5b5f905f3560e01c9081632d55ea39146107f5575080632ef478e8146107c857806330d3ae9c1461079c5780633246887d1461072f5780633573fc87146107075780634162169f146106df5780635380f7ed146106bc57806353f1bb87146104fd5780635475786d146103d357806356397c35146103ab5780635d9d56ad146103845780635f255697146101a557806385c6181c1461017a578063983bec1214610155578063be9a655514610128578063d33219b4146100ff5763e49dcd67146100d9575f80fd5b346100fc57806003193601126100fc57602060ff60055460981c16604051908152f35b80fd5b50346100fc57806003193601126100fc576002546040516001600160a01b039091168152602090f35b50346100fc57806003193601126100fc5760045460405160a09190911c6001600160401b03168152602090f35b50346100fc57806003193601126100fc57602061ffff60055460801c16604051908152f35b50346100fc57806003193601126100fc576005546040805191901c6001600160401b03168152602090f35b503461035f57602036600319011261035f576004356001600160a01b0381169081810361035f576101d4610a60565b6005549091906001600160401b031642106103755715610363575b6001546001600160a01b031690813b1561035f57604051633825b60160e11b81526001600160a01b0390911660048201819052915f908290602490829084905af180156103545761033f575b5060025460015483916001600160a01b039081169116813b1561033b578291602483926040519485938492633825b60160e11b845260048401525af1801561033057610317575b50600154600254600554604080516001600160a01b03948516815292909316602083015291810184905260989190911c60ff1660608201527f58bdda02f0926659311d39b24ced441c6b55e66159f673e54a4fe5f369d8130a90608090a16103146040516102f1604082610818565b60118152701a185b991bdd995c97d95e1958dd5d1959607a1b60208201526109df565b80f35b8161032191610818565b61032c57815f610282565b5080fd5b6040513d84823e3d90fd5b8280fd5b61034c9192505f90610818565b5f905f61023b565b6040513d5f823e3d90fd5b5f80fd5b506001546001600160a01b03166101ef565b630ba1574d60e31b5f5260045ffd5b3461035f575f36600319011261035f575f546040516001600160a01b039091168152602090f35b3461035f575f36600319011261035f576004546040516001600160a01b039091168152602090f35b3461035f57602036600319011261035f5760043561ffff811680910361035f576103fb610a60565b6005549060ff8260901c1660ff8360981c1610156104ca5761ffff8260801c161161042257005b6001600160401b0361043c60a083901c821683831661084f565b166001600160401b03198216811760981c60ff9081166001019081116104b6576001600160401b0360ff60981b01199092161760989190911b60ff60981b1617600555604080516104b4916104919082610818565b60118152701a185b991bdd995c97d95e1d195b991959607a1b60208201526109df565b005b634e487b7160e01b5f52601160045260245ffd5b60405162461bcd60e51b815260206004820152600b60248201526a1b9bd7d95e1d17db19599d60aa1b6044820152606490fd5b3461035f57608036600319011261035f576004356001600160401b03811680820361035f5760243561ffff8116810361035f576044359160ff8316830361035f57606435936001600160401b038516850361035f576276a7009061055f610a60565b91106106b2575b6005805460809390931b61ffff60801b16600160401b60ff60981b01600160e01b031990931660409290921b600160401b600160801b0316919091179190911760909290921b60ff60901b1682811760a094851b600160a01b600160e01b03169081179283905560045493949093919291901c6001600160401b03168061067c575b7f5b176ab4e1ce28504e20271e02c551e6835b4685129f3f909b1a7155db3a11f660806005546040519060018060401b038160401c16825261ffff81841c16602083015260ff8160901c16604083015260018060401b039060a01c166060820152a16104b460405161065b604082610818565b600f81526e68616e646f7665725f706172616d7360881b60208201526109df565b6001600160401b03916106979160409190911c83169061084f565b169260018060401b03191617171760055580808080806105e8565b506276a700610566565b3461035f575f36600319011261035f57602060ff60055460901c16604051908152f35b3461035f575f36600319011261035f576001546040516001600160a01b039091168152602090f35b3461035f575f36600319011261035f576005546040516001600160401b039091168152602090f35b3461035f57602036600319011261035f576004356001600160a01b0381169081900361035f5760207fbc62e69a31739e36d57d56991ac20e4e507a7edfff9070e6a11df5a37b8b4e6f91610781610a60565b600480546001600160a01b03191682179055604051908152a1005b3461035f575f36600319011261035f5760055460405160a09190911c6001600160401b03168152602090f35b3461035f57602036600319011261035f576004356001600160a01b038116810361035f576104b490610868565b3461035f575f36600319011261035f576003546001600160a01b03168152602090f35b601f909101601f19168101906001600160401b0382119082101761083b57604052565b634e487b7160e01b5f52604160045260245ffd5b6001600160401b0391821690821601919082116104b657565b6004549060a082901c6001600160401b03166109db57604051635412925960e11b815290602090829060049082906001600160a01b03165afa908115610354575f916109a9575b50801561096e57600160a01b600160e01b031990911660a091821b600160a01b600160e01b03161760048190556005547f63ce59f2bf371751ace7a9661e0ae24de2bb38ba3912224223bc5dd52d732e7692604092901c6001600160401b03908116919061092182851c82168461084f565b168091600180861b0319161760055582519182526020820152a161096c60405161094c604082610818565b600e81526d1a185b991bdd995c97d85c9b595960921b60208201526109df565b565b60405162461bcd60e51b81526020600482015260136024820152721c1c995cd85b19481b9bdd081cdd185c9d1959606a1b6044820152606490fd5b90506020813d6020116109d3575b816109c460209383610818565b8101031261035f57515f6108af565b3d91506109b7565b5050565b6004546001600160a01b0316806109f4575050565b803b1561035f5760205f9160849383604051958680958194633ddd61ab60e21b8352306004840152606060248401528051918291826064860152018484015e8181018301849052336044830152601f01601f191681010301925af1610a565750565b5f61096c91610818565b5f546001600160a01b03163303610a7357565b630fff504d60e21b5f5260045ffdfea26469706673582212209d5d90fece07963ccfe02e40edb57e8123547a45424ce970ea5dbdd84d527e9464736f6c634300081e0033","linkReferences":{}},"methodIdentifiers":{"armFromPresale(address)":"2ef478e8","dao()":"4162169f","devMultisig()":"5d9d56ad","executeHandover(address)":"5f255697","extendOnceIfNeeded(uint16)":"5475786d","extensionSpan()":"30d3ae9c","extensionsUsed()":"e49dcd67","handoverAt()":"3573fc87","ledger()":"56397c35","maxExtensions()":"5380f7ed","minAvgCouncilScore()":"983bec12","monthsDelay()":"85c6181c","seer()":"2d55ea39","setLedger(address)":"3246887d","setParams(uint64,uint16,uint8,uint64)":"53f1bb87","start()":"be9a6555","timelock()":"d33219b4"},"id":28}