{
  "_format": "hh-sol-artifact-1",
  "contractName": "ReverterEscrow",
  "sourceName": "contracts/mocks/ReverterEscrow.sol",
  "abi": [
    {
      "anonymous": false,
      "inputs": [
        {
          "indexed": false,
          "internalType": "uint256",
          "name": "id",
          "type": "uint256"
        }
      ],
      "name": "Refunded",
      "type": "event"
    },
    {
      "anonymous": false,
      "inputs": [
        {
          "indexed": false,
          "internalType": "uint256",
          "name": "id",
          "type": "uint256"
        }
      ],
      "name": "Released",
      "type": "event"
    },
    {
      "inputs": [
        {
          "internalType": "uint256",
          "name": "id",
          "type": "uint256"
        }
      ],
      "name": "refund",
      "outputs": [],
      "stateMutability": "nonpayable",
      "type": "function"
    },
    {
      "inputs": [
        {
          "internalType": "uint256",
          "name": "id",
          "type": "uint256"
        }
      ],
      "name": "release",
      "outputs": [],
      "stateMutability": "nonpayable",
      "type": "function"
    },
    {
      "inputs": [
        {
          "internalType": "bool",
          "name": "v",
          "type": "bool"
        }
      ],
      "name": "setRevert",
      "outputs": [],
      "stateMutability": "nonpayable",
      "type": "function"
    },
    {
      "inputs": [],
      "name": "shouldRevert",
      "outputs": [
        {
          "internalType": "bool",
          "name": "",
          "type": "bool"
        }
      ],
      "stateMutability": "view",
      "type": "function"
    }
  ],
  "bytecode": "0x608080604052346015576101d4908161001b8239f35b600080fdfe608080604052600436101561001357600080fd5b60003560e01c908163278ecde1146101235750806337bdc99b146100a45780638fb5f171146100735763d3072d821461004b57600080fd5b3461006e57600036600319011261006e57602060ff600054166040519015158152f35b600080fd5b3461006e57602036600319011261006e5760043580151580910361006e5760ff801960005416911617600055600080f35b3461006e57602036600319011261006e5760ff600054166100ed577ffb81f9b30d73d830c3544b34d827c08142579ee75710b490bab0b3995468c56560206040516004358152a1005b60405162461bcd60e51b815260206004820152600e60248201526d7265766572742d72656c6561736560901b6044820152606490fd5b3461006e57602036600319011261006e5760ff6000541661016c577f3d2a04f53164bedf9a8a46353305d6b2d2261410406df3b41f99ce6489dc003c60206040516004358152a1005b62461bcd60e51b815260206004820152600d60248201526c1c995d995c9d0b5c99599d5b99609a1b6044820152606490fdfea26469706673582212207722098fdf39b46b35cd9591d78b1ab3dbe366022baff4176d788da802ae2e9464736f6c634300081e0033",
  "linkReferences": {},
  "deployedLinkReferences": {}
}