{
  "_format": "hh-sol-artifact-1",
  "contractName": "EcoTreasuryVaultMock",
  "sourceName": "contracts/mocks/VFIDEFinanceMocks.sol",
  "abi": [
    {
      "inputs": [
        {
          "internalType": "address",
          "name": "_dao",
          "type": "address"
        }
      ],
      "stateMutability": "nonpayable",
      "type": "constructor"
    },
    {
      "inputs": [
        {
          "internalType": "address",
          "name": "token",
          "type": "address"
        }
      ],
      "name": "balanceOf",
      "outputs": [
        {
          "internalType": "uint256",
          "name": "",
          "type": "uint256"
        }
      ],
      "stateMutability": "view",
      "type": "function"
    },
    {
      "inputs": [
        {
          "internalType": "address",
          "name": "",
          "type": "address"
        }
      ],
      "name": "balances",
      "outputs": [
        {
          "internalType": "uint256",
          "name": "",
          "type": "uint256"
        }
      ],
      "stateMutability": "view",
      "type": "function"
    },
    {
      "inputs": [],
      "name": "dao",
      "outputs": [
        {
          "internalType": "address",
          "name": "",
          "type": "address"
        }
      ],
      "stateMutability": "view",
      "type": "function"
    },
    {
      "inputs": [
        {
          "internalType": "address",
          "name": "token",
          "type": "address"
        },
        {
          "internalType": "uint256",
          "name": "amount",
          "type": "uint256"
        }
      ],
      "name": "depositStable",
      "outputs": [],
      "stateMutability": "nonpayable",
      "type": "function"
    },
    {
      "inputs": [
        {
          "internalType": "address",
          "name": "token",
          "type": "address"
        },
        {
          "internalType": "address",
          "name": "",
          "type": "address"
        },
        {
          "internalType": "uint256",
          "name": "amount",
          "type": "uint256"
        },
        {
          "internalType": "string",
          "name": "",
          "type": "string"
        }
      ],
      "name": "send",
      "outputs": [],
      "stateMutability": "nonpayable",
      "type": "function"
    }
  ],
  "bytecode": "0x608034607057601f6102be38819003918201601f19168301916001600160401b03831184841017607557808492602094604052833981010312607057516001600160a01b03811690819003607057600080546001600160a01b031916919091179055604051610232908161008c8239f35b600080fd5b634e487b7160e01b600052604160045260246000fdfe608080604052600436101561001357600080fd5b60003560e01c90816327e235e31461019a5750806336762067146101595780634162169f1461013057806370a08231146100f657639a67edad1461005657600080fd5b346100f15760803660031901126100f15761006f6101d0565b6100776101e6565b506064356001600160401b0381116100f157366023820112156100f15780600401356001600160401b0381116100f157369101602401116100f1576001600160a01b0316600090815260016020526040902080546044358103919082116100db5755005b634e487b7160e01b600052601160045260246000fd5b600080fd5b346100f15760203660031901126100f1576001600160a01b036101176101d0565b1660005260016020526020604060002054604051908152f35b346100f15760003660031901126100f1576000546040516001600160a01b039091168152602090f35b346100f15760403660031901126100f1576001600160a01b0361017a6101d0565b166000526001602052604060002080549060243582018092116100db5755005b346100f15760203660031901126100f1576020906001600160a01b036101be6101d0565b16600052600182526040600020548152f35b600435906001600160a01b03821682036100f157565b602435906001600160a01b03821682036100f15756fea2646970667358221220e31e795a774dd8c87f0e07864d2757bf055b0ebdf8615c8f084132f312a466fd64736f6c634300081e0033",
  "linkReferences": {},
  "deployedLinkReferences": {}
}