{
  "_format": "hh-sol-artifact-1",
  "contractName": "MockEscrow",
  "sourceName": "contracts/MockEscrow.sol",
  "abi": [
    {
      "inputs": [
        {
          "internalType": "uint256",
          "name": "id",
          "type": "uint256"
        }
      ],
      "name": "orders",
      "outputs": [
        {
          "internalType": "address",
          "name": "",
          "type": "address"
        },
        {
          "internalType": "address",
          "name": "",
          "type": "address"
        },
        {
          "internalType": "uint256",
          "name": "",
          "type": "uint256"
        },
        {
          "internalType": "enum MockEscrow.State",
          "name": "",
          "type": "uint8"
        },
        {
          "internalType": "uint64",
          "name": "",
          "type": "uint64"
        },
        {
          "internalType": "uint64",
          "name": "",
          "type": "uint64"
        },
        {
          "internalType": "uint64",
          "name": "",
          "type": "uint64"
        },
        {
          "internalType": "uint64",
          "name": "",
          "type": "uint64"
        },
        {
          "internalType": "string",
          "name": "",
          "type": "string"
        }
      ],
      "stateMutability": "view",
      "type": "function"
    },
    {
      "inputs": [
        {
          "internalType": "uint256",
          "name": "id",
          "type": "uint256"
        },
        {
          "internalType": "address",
          "name": "buyer",
          "type": "address"
        },
        {
          "internalType": "address",
          "name": "merchant",
          "type": "address"
        },
        {
          "internalType": "uint256",
          "name": "amount",
          "type": "uint256"
        },
        {
          "internalType": "uint8",
          "name": "state",
          "type": "uint8"
        }
      ],
      "name": "setOrder",
      "outputs": [],
      "stateMutability": "nonpayable",
      "type": "function"
    }
  ],
  "bytecode": "0x60808060405234601557610577908161001b8239f35b600080fdfe608080604052600436101561001357600080fd5b60003560e01c9081634ba28ddc1461020a575063a85c38ef1461003557600080fd5b34610205576020366003190112610205576004356000526000602052604060002060018060a01b038154169060018060a01b03600182015416906002810154600382015460ff811691600567ffffffffffffffff600486015416940194604051956000908054906100a582610507565b808a5291600181169081156101e757506001146101ac575b5050869003601f01601f1916860167ffffffffffffffff811187821017610196576040526040519687526020870152604086015260078210156101805767ffffffffffffffff916060860152818160081c166080860152818160481c1660a086015260881c1660c084015260e0830152610120610100830152818151918261012083015260005b838110610167575050816000610140809484010152601f80199101168101030190f35b6020828201810151610140878401015285935001610144565b634e487b7160e01b600052602160045260246000fd5b634e487b7160e01b600052604160045260246000fd5b90915060005260206000206000905b8282106101d157506020915087010138806100bd565b6001816020925483858d010152019101906101bb565b9150506020925060ff191682890152151560051b87010138806100bd565b600080fd5b346102055760a0366003190112610205576024356001600160a01b03811690819003610205576044356001600160a01b0381169190829003610205576084359060ff821680920361020557600782101561018057610120840184811067ffffffffffffffff821117610196576040528352602083019182526040830192606435845260608101936000928552608082019483865260a083019584875260c0840185815260e0850193868552604051976020890189811067ffffffffffffffff8211176104f3576040908152888a526101008801998a52600435895260208990528820965187546001600160a01b03199081166001600160a01b039283161789559151600189018054909316911617905551600286015591519660038501929060078910156104df578697986005975070ffffffffffffffff00000000000000000068ffffffffffffffff008654955160081b16925160481b169267ffffffffffffffff60881b905160881b169360ff67ffffffffffffffff60881b1992169070ffffffffffffffffffffffffffffffffff19161716171717905567ffffffffffffffff6004830191511667ffffffffffffffff1982541617905501915191825167ffffffffffffffff81116104cb576103e38254610507565b601f8111610486575b506020601f82116001146104275783948293949261041c575b50508160011b916000199060031b1c191617905580f35b015190508480610405565b82845280842090601f198316855b81811061046e57509583600195969710610455575b505050811b01905580f35b015160001960f88460031b161c1916905584808061044a565b9192602060018192868b015181550194019201610435565b82845260208420601f830160051c810191602084106104c1575b601f0160051c01905b8181106104b657506103ec565b8481556001016104a9565b90915081906104a0565b634e487b7160e01b83526041600452602483fd5b634e487b7160e01b87526021600452602487fd5b634e487b7160e01b89526041600452602489fd5b90600182811c92168015610537575b602083101461052157565b634e487b7160e01b600052602260045260246000fd5b91607f169161051656fea264697066735822122010621b592ec3e1c92964e291220bb95dac4f8c6056382fd8ebdffc812798bff364736f6c634300081e0033",
  "linkReferences": {},
  "deployedLinkReferences": {}
}