{
  "_format": "hh-sol-artifact-1",
  "contractName": "ERC20FailTransfer",
  "sourceName": "contracts/mocks/ERC20FailTransfer.sol",
  "abi": [
    {
      "anonymous": false,
      "inputs": [
        {
          "indexed": true,
          "internalType": "address",
          "name": "owner",
          "type": "address"
        },
        {
          "indexed": true,
          "internalType": "address",
          "name": "spender",
          "type": "address"
        },
        {
          "indexed": false,
          "internalType": "uint256",
          "name": "value",
          "type": "uint256"
        }
      ],
      "name": "Approval",
      "type": "event"
    },
    {
      "anonymous": false,
      "inputs": [
        {
          "indexed": true,
          "internalType": "address",
          "name": "from",
          "type": "address"
        },
        {
          "indexed": true,
          "internalType": "address",
          "name": "to",
          "type": "address"
        },
        {
          "indexed": false,
          "internalType": "uint256",
          "name": "value",
          "type": "uint256"
        }
      ],
      "name": "Transfer",
      "type": "event"
    },
    {
      "inputs": [
        {
          "internalType": "address",
          "name": "",
          "type": "address"
        },
        {
          "internalType": "address",
          "name": "",
          "type": "address"
        }
      ],
      "name": "allowance",
      "outputs": [
        {
          "internalType": "uint256",
          "name": "",
          "type": "uint256"
        }
      ],
      "stateMutability": "view",
      "type": "function"
    },
    {
      "inputs": [
        {
          "internalType": "address",
          "name": "spender",
          "type": "address"
        },
        {
          "internalType": "uint256",
          "name": "value",
          "type": "uint256"
        }
      ],
      "name": "approve",
      "outputs": [
        {
          "internalType": "bool",
          "name": "",
          "type": "bool"
        }
      ],
      "stateMutability": "nonpayable",
      "type": "function"
    },
    {
      "inputs": [
        {
          "internalType": "address",
          "name": "",
          "type": "address"
        }
      ],
      "name": "balanceOf",
      "outputs": [
        {
          "internalType": "uint256",
          "name": "",
          "type": "uint256"
        }
      ],
      "stateMutability": "view",
      "type": "function"
    },
    {
      "inputs": [],
      "name": "decimals",
      "outputs": [
        {
          "internalType": "uint8",
          "name": "",
          "type": "uint8"
        }
      ],
      "stateMutability": "view",
      "type": "function"
    },
    {
      "inputs": [
        {
          "internalType": "address",
          "name": "to",
          "type": "address"
        },
        {
          "internalType": "uint256",
          "name": "amount",
          "type": "uint256"
        }
      ],
      "name": "mint",
      "outputs": [],
      "stateMutability": "nonpayable",
      "type": "function"
    },
    {
      "inputs": [],
      "name": "name",
      "outputs": [
        {
          "internalType": "string",
          "name": "",
          "type": "string"
        }
      ],
      "stateMutability": "view",
      "type": "function"
    },
    {
      "inputs": [],
      "name": "symbol",
      "outputs": [
        {
          "internalType": "string",
          "name": "",
          "type": "string"
        }
      ],
      "stateMutability": "view",
      "type": "function"
    },
    {
      "inputs": [
        {
          "internalType": "address",
          "name": "",
          "type": "address"
        },
        {
          "internalType": "uint256",
          "name": "",
          "type": "uint256"
        }
      ],
      "name": "transfer",
      "outputs": [
        {
          "internalType": "bool",
          "name": "",
          "type": "bool"
        }
      ],
      "stateMutability": "pure",
      "type": "function"
    },
    {
      "inputs": [
        {
          "internalType": "address",
          "name": "",
          "type": "address"
        },
        {
          "internalType": "address",
          "name": "",
          "type": "address"
        },
        {
          "internalType": "uint256",
          "name": "",
          "type": "uint256"
        }
      ],
      "name": "transferFrom",
      "outputs": [
        {
          "internalType": "bool",
          "name": "",
          "type": "bool"
        }
      ],
      "stateMutability": "pure",
      "type": "function"
    }
  ],
  "bytecode": "0x60806040523461011357610014600054610118565b601f81116100ca575b507f4661696c5472616e73666572000000000000000000000000000000000000001860005560015461004e90610118565b601f8111610080575b600662232a2360e91b016001556002805460ff191660121790556040516104fd90816101538239f35b6001600052601f0160051c7fb10e2d527612073b26eecdfd717e6a320cf44b4afac2b0732d9fcbe2b7fa0cf6908101905b8181106100be5750610057565b600081556001016100b1565b60008052601f0160051c7f290decd9548b62a8d60345a988386fc84ba6bc95484008f6362f93160ef3e563908101905b818110610107575061001d565b600081556001016100fa565b600080fd5b90600182811c92168015610148575b602083101461013257565b634e487b7160e01b600052602260045260246000fd5b91607f169161012756fe6080604052600436101561001257600080fd5b60003560e01c806306fdde0314610399578063095ea7b31461031f57806323b872dd146102fd578063313ce567146102dc57806340c10f191461025457806370a082311461021a57806395d89b41146100fa578063a9059cbb146100d55763dd62ed3e1461007f57600080fd5b346100d05760403660031901126100d05761009861049b565b6100a06104b1565b6001600160a01b039182166000908152600460209081526040808320949093168252928352819020549051908152f35b600080fd5b346100d05760403660031901126100d0576100ee61049b565b50602060405160008152f35b346100d05760003660031901126100d0576000604051816001548060011c90600181168015610210575b6020831081146101fc578285529081156101e0575060011461018c575b50819003601f01601f191681016001600160401b0381118282101761017857610174925060405260405191829182610452565b0390f35b634e487b7160e01b83526041600452602483fd5b600184529050827fb10e2d527612073b26eecdfd717e6a320cf44b4afac2b0732d9fcbe2b7fa0cf65b8282106101ca57506020915082010183610141565b60018160209254838588010152019101906101b5565b90506020925060ff191682840152151560051b82010183610141565b634e487b7160e01b86526022600452602486fd5b91607f1691610124565b346100d05760203660031901126100d0576001600160a01b0361023b61049b565b1660005260036020526020604060002054604051908152f35b346100d05760403660031901126100d05761026d61049b565b6001600160a01b031660008181526003602052604090208054602435918183019182106102c6576000927fddf252ad1be2c89b69c2b068fc378daa952ba7f163c4a11628f55a4df523b3ef9260209255604051908152a3005b634e487b7160e01b600052601160045260246000fd5b346100d05760003660031901126100d057602060ff60025416604051908152f35b346100d05760603660031901126100d05761031661049b565b506100ee6104b1565b346100d05760403660031901126100d05761033861049b565b3360008181526004602090815260408083206001600160a01b03909516808452948252918290206024359081905591519182527f8c5be1e5ebec7d5bd14f71427d1e84f3dd0314c0f7b2291e5b200ac8c7c3b92591a3602060405160018152f35b346100d05760003660031901126100d05760006040518182548060011c90600181168015610448575b6020831081146101fc578285529081156101e057506001146104115750819003601f01601f191681016001600160401b0381118282101761017857610174925060405260405191829182610452565b90508280526020832083905b82821061043257506020915082010183610141565b600181602092548385880101520191019061041d565b91607f16916103c2565b91909160208152825180602083015260005b818110610485575060409293506000838284010152601f8019910116010190565b8060208092870101516040828601015201610464565b600435906001600160a01b03821682036100d057565b602435906001600160a01b03821682036100d05756fea26469706673582212201bc5b16a58847d22f35c2b4cef50daae2f3817432d707b5a707805c89875327064736f6c634300081e0033",
  "linkReferences": {},
  "deployedLinkReferences": {}
}