{
  "_format": "hh-sol-artifact-1",
  "contractName": "GuardianLock",
  "sourceName": "contracts/GuardianLock.sol",
  "abi": [
    {
      "inputs": [
        {
          "internalType": "address",
          "name": "initialOwner",
          "type": "address"
        }
      ],
      "stateMutability": "nonpayable",
      "type": "constructor"
    },
    {
      "inputs": [],
      "name": "FactoryUnset",
      "type": "error"
    },
    {
      "inputs": [],
      "name": "NotGov",
      "type": "error"
    },
    {
      "inputs": [],
      "name": "NotTrusted",
      "type": "error"
    },
    {
      "inputs": [],
      "name": "ZeroAddress",
      "type": "error"
    },
    {
      "anonymous": false,
      "inputs": [
        {
          "indexed": false,
          "internalType": "address",
          "name": "dao",
          "type": "address"
        }
      ],
      "name": "DAOUpdated",
      "type": "event"
    },
    {
      "anonymous": false,
      "inputs": [
        {
          "indexed": true,
          "internalType": "address",
          "name": "dest",
          "type": "address"
        },
        {
          "indexed": false,
          "internalType": "bool",
          "name": "allowed",
          "type": "bool"
        }
      ],
      "name": "DestinationAllowSet",
      "type": "event"
    },
    {
      "anonymous": false,
      "inputs": [
        {
          "indexed": true,
          "internalType": "address",
          "name": "dest",
          "type": "address"
        },
        {
          "indexed": false,
          "internalType": "bool",
          "name": "denied",
          "type": "bool"
        }
      ],
      "name": "DestinationDenySet",
      "type": "event"
    },
    {
      "anonymous": false,
      "inputs": [
        {
          "indexed": false,
          "internalType": "address",
          "name": "factory",
          "type": "address"
        }
      ],
      "name": "FactorySet",
      "type": "event"
    },
    {
      "anonymous": false,
      "inputs": [
        {
          "indexed": true,
          "internalType": "address",
          "name": "user",
          "type": "address"
        },
        {
          "indexed": false,
          "internalType": "bool",
          "name": "isFrozen",
          "type": "bool"
        }
      ],
      "name": "FrozenSet",
      "type": "event"
    },
    {
      "anonymous": false,
      "inputs": [
        {
          "indexed": false,
          "internalType": "bool",
          "name": "paused",
          "type": "bool"
        }
      ],
      "name": "GlobalPauseSet",
      "type": "event"
    },
    {
      "anonymous": false,
      "inputs": [
        {
          "indexed": true,
          "internalType": "address",
          "name": "previousOwner",
          "type": "address"
        },
        {
          "indexed": true,
          "internalType": "address",
          "name": "newOwner",
          "type": "address"
        }
      ],
      "name": "OwnershipTransferStarted",
      "type": "event"
    },
    {
      "anonymous": false,
      "inputs": [
        {
          "indexed": true,
          "internalType": "address",
          "name": "previousOwner",
          "type": "address"
        },
        {
          "indexed": true,
          "internalType": "address",
          "name": "newOwner",
          "type": "address"
        }
      ],
      "name": "OwnershipTransferred",
      "type": "event"
    },
    {
      "anonymous": false,
      "inputs": [
        {
          "indexed": false,
          "internalType": "address",
          "name": "proof",
          "type": "address"
        }
      ],
      "name": "ProofSinkSet",
      "type": "event"
    },
    {
      "anonymous": false,
      "inputs": [
        {
          "indexed": true,
          "internalType": "address",
          "name": "user",
          "type": "address"
        },
        {
          "indexed": false,
          "internalType": "uint64",
          "name": "untilTs",
          "type": "uint64"
        }
      ],
      "name": "Quarantined",
      "type": "event"
    },
    {
      "anonymous": false,
      "inputs": [
        {
          "indexed": true,
          "internalType": "address",
          "name": "user",
          "type": "address"
        }
      ],
      "name": "Released",
      "type": "event"
    },
    {
      "anonymous": false,
      "inputs": [
        {
          "indexed": false,
          "internalType": "bool",
          "name": "enabled",
          "type": "bool"
        },
        {
          "indexed": false,
          "internalType": "bool",
          "name": "blockIfBlocked",
          "type": "bool"
        },
        {
          "indexed": false,
          "internalType": "bool",
          "name": "enforceMinScore",
          "type": "bool"
        },
        {
          "indexed": false,
          "internalType": "uint16",
          "name": "minScore",
          "type": "uint16"
        }
      ],
      "name": "SeerGatesToggled",
      "type": "event"
    },
    {
      "anonymous": false,
      "inputs": [
        {
          "indexed": false,
          "internalType": "address",
          "name": "seer",
          "type": "address"
        }
      ],
      "name": "SeerSet",
      "type": "event"
    },
    {
      "anonymous": false,
      "inputs": [
        {
          "indexed": true,
          "internalType": "address",
          "name": "user",
          "type": "address"
        },
        {
          "indexed": false,
          "internalType": "bool",
          "name": "exempt",
          "type": "bool"
        }
      ],
      "name": "SystemExemptSet",
      "type": "event"
    },
    {
      "anonymous": false,
      "inputs": [
        {
          "indexed": true,
          "internalType": "address",
          "name": "module",
          "type": "address"
        },
        {
          "indexed": false,
          "internalType": "bool",
          "name": "trusted",
          "type": "bool"
        }
      ],
      "name": "TrustedSetterSet",
      "type": "event"
    },
    {
      "inputs": [],
      "name": "acceptOwnership",
      "outputs": [],
      "stateMutability": "nonpayable",
      "type": "function"
    },
    {
      "inputs": [
        {
          "internalType": "address",
          "name": "",
          "type": "address"
        }
      ],
      "name": "allowDestination",
      "outputs": [
        {
          "internalType": "bool",
          "name": "",
          "type": "bool"
        }
      ],
      "stateMutability": "view",
      "type": "function"
    },
    {
      "inputs": [],
      "name": "blockIfBlocked",
      "outputs": [
        {
          "internalType": "bool",
          "name": "",
          "type": "bool"
        }
      ],
      "stateMutability": "view",
      "type": "function"
    },
    {
      "inputs": [
        {
          "internalType": "address",
          "name": "owner",
          "type": "address"
        },
        {
          "internalType": "address",
          "name": "to",
          "type": "address"
        },
        {
          "internalType": "uint256",
          "name": "",
          "type": "uint256"
        }
      ],
      "name": "canTransfer",
      "outputs": [
        {
          "internalType": "bool",
          "name": "",
          "type": "bool"
        }
      ],
      "stateMutability": "view",
      "type": "function"
    },
    {
      "inputs": [
        {
          "internalType": "address",
          "name": "to",
          "type": "address"
        },
        {
          "internalType": "uint256",
          "name": "amount",
          "type": "uint256"
        }
      ],
      "name": "canVaultSend",
      "outputs": [
        {
          "internalType": "bool",
          "name": "",
          "type": "bool"
        }
      ],
      "stateMutability": "view",
      "type": "function"
    },
    {
      "inputs": [],
      "name": "dao",
      "outputs": [
        {
          "internalType": "address",
          "name": "",
          "type": "address"
        }
      ],
      "stateMutability": "view",
      "type": "function"
    },
    {
      "inputs": [
        {
          "internalType": "address",
          "name": "",
          "type": "address"
        }
      ],
      "name": "denyDestination",
      "outputs": [
        {
          "internalType": "bool",
          "name": "",
          "type": "bool"
        }
      ],
      "stateMutability": "view",
      "type": "function"
    },
    {
      "inputs": [],
      "name": "enforceMinScore",
      "outputs": [
        {
          "internalType": "bool",
          "name": "",
          "type": "bool"
        }
      ],
      "stateMutability": "view",
      "type": "function"
    },
    {
      "inputs": [],
      "name": "factory",
      "outputs": [
        {
          "internalType": "contract IVaultFactoryView",
          "name": "",
          "type": "address"
        }
      ],
      "stateMutability": "view",
      "type": "function"
    },
    {
      "inputs": [
        {
          "internalType": "address",
          "name": "",
          "type": "address"
        }
      ],
      "name": "frozen",
      "outputs": [
        {
          "internalType": "bool",
          "name": "",
          "type": "bool"
        }
      ],
      "stateMutability": "view",
      "type": "function"
    },
    {
      "inputs": [],
      "name": "globalPause",
      "outputs": [
        {
          "internalType": "bool",
          "name": "",
          "type": "bool"
        }
      ],
      "stateMutability": "view",
      "type": "function"
    },
    {
      "inputs": [
        {
          "internalType": "address",
          "name": "user",
          "type": "address"
        }
      ],
      "name": "isQuarantined",
      "outputs": [
        {
          "internalType": "bool",
          "name": "active",
          "type": "bool"
        },
        {
          "internalType": "uint64",
          "name": "untilTs",
          "type": "uint64"
        }
      ],
      "stateMutability": "view",
      "type": "function"
    },
    {
      "inputs": [
        {
          "internalType": "address",
          "name": "",
          "type": "address"
        }
      ],
      "name": "isTrustedSetter",
      "outputs": [
        {
          "internalType": "bool",
          "name": "",
          "type": "bool"
        }
      ],
      "stateMutability": "view",
      "type": "function"
    },
    {
      "inputs": [],
      "name": "minScore",
      "outputs": [
        {
          "internalType": "uint16",
          "name": "",
          "type": "uint16"
        }
      ],
      "stateMutability": "view",
      "type": "function"
    },
    {
      "inputs": [],
      "name": "owner",
      "outputs": [
        {
          "internalType": "address",
          "name": "",
          "type": "address"
        }
      ],
      "stateMutability": "view",
      "type": "function"
    },
    {
      "inputs": [],
      "name": "pendingOwner",
      "outputs": [
        {
          "internalType": "address",
          "name": "",
          "type": "address"
        }
      ],
      "stateMutability": "view",
      "type": "function"
    },
    {
      "inputs": [],
      "name": "proof",
      "outputs": [
        {
          "internalType": "contract IProofLedger",
          "name": "",
          "type": "address"
        }
      ],
      "stateMutability": "view",
      "type": "function"
    },
    {
      "inputs": [
        {
          "internalType": "address",
          "name": "",
          "type": "address"
        }
      ],
      "name": "quarantineUntil",
      "outputs": [
        {
          "internalType": "uint64",
          "name": "",
          "type": "uint64"
        }
      ],
      "stateMutability": "view",
      "type": "function"
    },
    {
      "inputs": [
        {
          "internalType": "address",
          "name": "user",
          "type": "address"
        }
      ],
      "name": "release",
      "outputs": [],
      "stateMutability": "nonpayable",
      "type": "function"
    },
    {
      "inputs": [],
      "name": "renounceOwnership",
      "outputs": [],
      "stateMutability": "nonpayable",
      "type": "function"
    },
    {
      "inputs": [],
      "name": "seer",
      "outputs": [
        {
          "internalType": "contract ISeerView",
          "name": "",
          "type": "address"
        }
      ],
      "stateMutability": "view",
      "type": "function"
    },
    {
      "inputs": [],
      "name": "seerGatesEnabled",
      "outputs": [
        {
          "internalType": "bool",
          "name": "",
          "type": "bool"
        }
      ],
      "stateMutability": "view",
      "type": "function"
    },
    {
      "inputs": [
        {
          "internalType": "address",
          "name": "dest",
          "type": "address"
        },
        {
          "internalType": "bool",
          "name": "allowed",
          "type": "bool"
        }
      ],
      "name": "setAllowDestination",
      "outputs": [],
      "stateMutability": "nonpayable",
      "type": "function"
    },
    {
      "inputs": [
        {
          "internalType": "address",
          "name": "dao_",
          "type": "address"
        }
      ],
      "name": "setDAO",
      "outputs": [],
      "stateMutability": "nonpayable",
      "type": "function"
    },
    {
      "inputs": [
        {
          "internalType": "address",
          "name": "dest",
          "type": "address"
        },
        {
          "internalType": "bool",
          "name": "denied",
          "type": "bool"
        }
      ],
      "name": "setDenyDestination",
      "outputs": [],
      "stateMutability": "nonpayable",
      "type": "function"
    },
    {
      "inputs": [
        {
          "internalType": "address",
          "name": "factory_",
          "type": "address"
        }
      ],
      "name": "setFactory",
      "outputs": [],
      "stateMutability": "nonpayable",
      "type": "function"
    },
    {
      "inputs": [
        {
          "internalType": "address",
          "name": "user",
          "type": "address"
        },
        {
          "internalType": "bool",
          "name": "isFrozen",
          "type": "bool"
        }
      ],
      "name": "setFrozen",
      "outputs": [],
      "stateMutability": "nonpayable",
      "type": "function"
    },
    {
      "inputs": [
        {
          "internalType": "bool",
          "name": "paused",
          "type": "bool"
        }
      ],
      "name": "setGlobalPause",
      "outputs": [],
      "stateMutability": "nonpayable",
      "type": "function"
    },
    {
      "inputs": [
        {
          "internalType": "address",
          "name": "proof_",
          "type": "address"
        }
      ],
      "name": "setProofSink",
      "outputs": [],
      "stateMutability": "nonpayable",
      "type": "function"
    },
    {
      "inputs": [
        {
          "internalType": "address",
          "name": "user",
          "type": "address"
        },
        {
          "internalType": "uint64",
          "name": "untilTs",
          "type": "uint64"
        }
      ],
      "name": "setQuarantine",
      "outputs": [],
      "stateMutability": "nonpayable",
      "type": "function"
    },
    {
      "inputs": [
        {
          "internalType": "address",
          "name": "seer_",
          "type": "address"
        }
      ],
      "name": "setSeer",
      "outputs": [],
      "stateMutability": "nonpayable",
      "type": "function"
    },
    {
      "inputs": [
        {
          "internalType": "address",
          "name": "who",
          "type": "address"
        },
        {
          "internalType": "bool",
          "name": "exempt",
          "type": "bool"
        }
      ],
      "name": "setSystemExempt",
      "outputs": [],
      "stateMutability": "nonpayable",
      "type": "function"
    },
    {
      "inputs": [
        {
          "internalType": "address",
          "name": "module",
          "type": "address"
        },
        {
          "internalType": "bool",
          "name": "trusted",
          "type": "bool"
        }
      ],
      "name": "setTrustedSetter",
      "outputs": [],
      "stateMutability": "nonpayable",
      "type": "function"
    },
    {
      "inputs": [
        {
          "internalType": "address",
          "name": "",
          "type": "address"
        }
      ],
      "name": "systemExemptUser",
      "outputs": [
        {
          "internalType": "bool",
          "name": "",
          "type": "bool"
        }
      ],
      "stateMutability": "view",
      "type": "function"
    },
    {
      "inputs": [
        {
          "internalType": "bool",
          "name": "enabled",
          "type": "bool"
        },
        {
          "internalType": "bool",
          "name": "blockBlocked",
          "type": "bool"
        },
        {
          "internalType": "bool",
          "name": "enforceMin",
          "type": "bool"
        },
        {
          "internalType": "uint16",
          "name": "minScore_",
          "type": "uint16"
        }
      ],
      "name": "toggleSeerGates",
      "outputs": [],
      "stateMutability": "nonpayable",
      "type": "function"
    },
    {
      "inputs": [
        {
          "internalType": "address",
          "name": "newOwner",
          "type": "address"
        }
      ],
      "name": "transferOwnership",
      "outputs": [],
      "stateMutability": "nonpayable",
      "type": "function"
    }
  ],
  "bytecode": "0x6080346100ae57601f611b4038819003918201601f19168301916001600160401b038311848410176100b3578084926020946040528339810103126100ae57516001600160a01b0381168082036100ae57610059336100c9565b60016002556006805460ff60a01b19169055600a805464ffffffffff191664012c0001011790551561009d5761008e906100c9565b604051611a21908161011f8239f35b63d92e233d60e01b60005260046000fd5b600080fd5b634e487b7160e01b600052604160045260246000fd5b600180546001600160a01b0319908116909155600080546001600160a01b03938416928116831782559192909116907f8be0079c531659141344cd1fd0a4f28419497f9722a3daafe3b4186f6b6457e09080a356fe608080604052600436101561001357600080fd5b600090813560e01c9081630828bf301461117c5750806313c2bedc146111575780631916558714610fa05780632d55ea3914610f775780634162169f14610f4e578063462fd46c14610eaf578063485d6ef814610e5057806348ce238414610dbc5780634d90160514610d7d5780635bb4780814610ce55780636336f3ac14610c4657806369a6b3db14610bb6578063715018a614610b5157806379ba509714610a885780637f04ecb714610a625780637fb93b5a146109c457806382cdcb551461091257806384781dd9146108d35780638da5cb5b146108ac5780639cbf1a05146108865780639e059b20146108425780639ecef1dd1461081f578063ac869cd8146105ea578063b721bd1614610534578063bb798a37146104f5578063bcfe644e146104cd578063c45a0155146104a4578063ce6901d114610465578063d051665014610426578063e071c1c01461038e578063e30c397814610365578063e46638e614610321578063e73a914c1461026b578063f12d54d814610245578063f2fde38b146101d85763faf924cf146101ad57600080fd5b346101d557806003193601126101d5576006546040516001600160a01b039091168152602090f35b80fd5b50346101d55760203660031901126101d5576101f26112e5565b6101fa611993565b600180546001600160a01b0319166001600160a01b0392831690811790915582549091167f38d16b8cac22d99fc7c124b9cd0de2d3fa1faef420bfe791d8c362d765e227008380a380f35b50346101d557806003193601126101d557602060ff60065460a01c166040519015158152f35b50346101d55760203660031901126101d5576102856112e5565b81546001600160a01b03163314158061030c575b6102fd576001600160a01b031680156102ee576020817f395c0f5a57accc3f0c20646b402f0845c448f3e4ac4a2ec56a3eaf26d15bf79a926001600160601b0360a01b6003541617600355604051908152a180f35b63d92e233d60e01b8252600482fd5b63b577c1f760e01b8252600482fd5b506003546001600160a01b0316331415610299565b50346101d55760603660031901126101d55761033b6112e5565b602435916001600160a01b03831683036101d557602061035b848461167f565b6040519015158152f35b50346101d557806003193601126101d5576001546040516001600160a01b039091168152602090f35b50346101d55760203660031901126101d5576103a86112e5565b81546001600160a01b031633141580610411575b6102fd576001600160a01b031680156102ee576020817fc33c1a95c902d772578a793cd3d42b7d0a418863633ff3be7853c55a4d95388a926001600160601b0360a01b6005541617600555604051908152a180f35b506003546001600160a01b03163314156103bc565b50346101d55760203660031901126101d55760209060ff906040906001600160a01b036104516112e5565b168152600784522054166040519015158152f35b50346101d55760203660031901126101d55760209060ff906040906001600160a01b036104906112e5565b168152600b84522054166040519015158152f35b50346101d557806003193601126101d5576004546040516001600160a01b039091168152602090f35b50346101d55760403660031901126101d557602061035b6104ec6112e5565b60243590611509565b50346101d55760203660031901126101d55760209060ff906040906001600160a01b036105206112e5565b168152600984522054166040519015158152f35b50346101d55760403660031901126101d55761054e6112e5565b6105566112d6565b9060018060a01b03835416331415806105d5575b6105c6576001600160a01b0316808352600c602090815260408420805460ff191660ff8515151617905590917f229b7baa214f06b4bf9092eb2d5e2ab4282f32ddf21bd451b7c22ce07e76592e91905b6040519015158152a280f35b63b577c1f760e01b8352600483fd5b506003546001600160a01b031633141561056a565b50346101d55760403660031901126101d5576106046112e5565b9061060d6112d6565b81546001600160a01b03163314158061080a575b806107f3575b6107e457819261063561193f565b6001600160a01b0316808352600760205260408320805460ff191660ff84151516179055901561072757807fef79f5ec4d2ab65ea4668433504946087afa3662c03b5f51a10a57a0030a60a6602060405160018152a2604051602081019082825260016040820152604081526106ac6060826112fb565b5190206006546001600160a01b03169190826106d0575b505050505b600160025580f35b823b156107225760648492836040519586948593631250d57560e31b85526004850152600a602485015260448401525af161070d575b80806106c3565b81610717916112fb565b6101d5578038610706565b505050fd5b807fef79f5ec4d2ab65ea4668433504946087afa3662c03b5f51a10a57a0030a60a66020604051858152a26040516020810190828252836040820152604081526107726060826112fb565b5190206006546001600160a01b0316919082610792575b505050506106c8565b823b156107225760648492836040519586948593631250d57560e31b85526004850152600b602485015260448401525af16107cf575b8080610789565b816107d9916112fb565b6101d55780386107c8565b636115324760e11b8252600482fd5b50338252600d60205260ff60408320541615610627565b506003546001600160a01b0316331415610621565b50346101d557806003193601126101d557602060ff600a54166040519015158152f35b50346101d55760203660031901126101d55760209067ffffffffffffffff906040906001600160a01b036108746112e5565b16815260088452205416604051908152f35b50346101d557806003193601126101d557602060ff600a5460081c166040519015158152f35b50346101d557806003193601126101d557546040516001600160a01b039091168152602090f35b50346101d55760203660031901126101d55760209060ff906040906001600160a01b036108fe6112e5565b168152600d84522054166040519015158152f35b50346101d55760403660031901126101d55761092c6112e5565b6109346112d6565b9060018060a01b03835416331415806109af575b6105c6576001600160a01b03169081156109a05760207f0fef610b87bc376ed380a6c8905b3149555fd003e3122b63d41fa8ce68cb394691838552600d82526105ba81604087209060ff801983541691151516179055565b63d92e233d60e01b8352600483fd5b506003546001600160a01b0316331415610948565b50346101d55760403660031901126101d5576109de6112e5565b6024359067ffffffffffffffff82168203610a5e5782546001600160a01b031633141580610a49575b80610a32575b610a2357906106c891610a1e61193f565b611333565b636115324760e11b8352600483fd5b50338352600d60205260ff60408420541615610a0d565b506003546001600160a01b0316331415610a07565b8280fd5b50346101d557806003193601126101d557602060ff600a5460101c166040519015158152f35b50346101d557806003193601126101d557600154336001600160a01b0390911603610afa57600180546001600160a01b0319908116909155815433918116821783556001600160a01b03167f8be0079c531659141344cd1fd0a4f28419497f9722a3daafe3b4186f6b6457e08380a380f35b60405162461bcd60e51b815260206004820152602960248201527f4f776e61626c6532537465703a2063616c6c6572206973206e6f7420746865206044820152683732bb9037bbb732b960b91b6064820152608490fd5b50346101d557806003193601126101d557610b6a611993565b600180546001600160a01b03199081169091558154908116825581906001600160a01b03167f8be0079c531659141344cd1fd0a4f28419497f9722a3daafe3b4186f6b6457e08280a380f35b50346101d55760203660031901126101d557610bd06112c2565b81546001600160a01b031633141580610c31575b6102fd5760207f971be26fcde2df81b2b63dfb7fa1d2294b524eb1896b10e5228d9c154a30af0991151560065460ff60a01b8260a01b169060ff60a01b191617600655604051908152a180f35b506003546001600160a01b0316331415610be4565b50346101d55760403660031901126101d557610c606112e5565b610c686112d6565b9060018060a01b0383541633141580610cd0575b6105c6576001600160a01b03168083526009602090815260408420805460ff191660ff8515151617905590917f44f2eda14b8ba74d08291fccb7fe6e96b0188538fb528966e0d02a84713f290d91906105ba565b506003546001600160a01b0316331415610c7c565b50346101d55760203660031901126101d557610cff6112e5565b81546001600160a01b031633141580610d68575b6102fd576001600160a01b031680156102ee576020817f1edf3afd4ac789736e00d216cd88be164ddcef26a6eedcc30cdb0cb62f3741b1926001600160601b0360a01b6004541617600455604051908152a180f35b506003546001600160a01b0316331415610d13565b50346101d55760203660031901126101d55760209060ff906040906001600160a01b03610da86112e5565b168152600c84522054166040519015158152f35b50346101d55760203660031901126101d557610dd66112e5565b81546001600160a01b031633141580610e3b575b6102fd57600680546001600160a01b0319166001600160a01b0390921691821790556040519081527f672081dadde50e814bb62a7286e6c0cad07071fa40747b022649c85346bdbc8490602090a180f35b506003546001600160a01b0316331415610dea565b50346101d55760203660031901126101d55760409067ffffffffffffffff9082906001600160a01b03610e816112e5565b16815260086020522054168015159081610ea4575b825191151582526020820152f35b809150421090610e96565b50346101d55760403660031901126101d557610ec96112e5565b610ed16112d6565b9060018060a01b0383541633141580610f39575b6105c6576001600160a01b0316808352600b602090815260408420805460ff191660ff8515151617905590917f8eb37a584e56f7bc20831631f9bb2dc9376a3b868769f76d90ba0ee0bb7147ee91906105ba565b506003546001600160a01b0316331415610ee5565b50346101d557806003193601126101d5576003546040516001600160a01b039091168152602090f35b50346101d557806003193601126101d5576005546040516001600160a01b039091168152602090f35b50346101d55760203660031901126101d557610fba6112e5565b81546001600160a01b031633141580611142575b8061112b575b6107e457610fe061193f565b6001600160a01b03168082526007602052604082205460ff166110e7575b808252600860205267ffffffffffffffff6040832054166110a2575b816040516020810190838252602081526110356040826112fb565b5190206006546001600160a01b0316929083611055575b82600160025580f35b833b15610a5e5760648392836040519687948593631250d57560e31b85526004850152600e602485015260448401525af1611092575b818061104c565b61109b916112fb565b388161108b565b808252600860205260408220805467ffffffffffffffff19169055807f8273fa3eb0bea439f1dccc317946ca11fb3e2d61a66620969b86039bc4fe79da8380a261101a565b80825260076020526040822060ff198154169055807fef79f5ec4d2ab65ea4668433504946087afa3662c03b5f51a10a57a0030a60a66020604051858152a2610ffe565b50338252600d60205260ff60408320541615610fd4565b506003546001600160a01b0316331415610fce565b50346101d557806003193601126101d557602061ffff600a5460181c16604051908152f35b9050346112be5760803660031901126112be576111976112c2565b906111a06112d6565b91604435908115158092036112ba576064359061ffff8216938483036112b65786546001600160a01b0316331415806112a1575b611292576103e88511611264575091608093917fab3798ffc8ea0ac4ec3c54e45db8b1bc1d57c16a8b4ea5e3cb2c33781de0ee3f959315159364ffff000000600a549115159260181b169064ffff000000199060ff87169062ffffff1916171661ff008360081b161762ff00008460101b161717600a55604051938452602084015260408301526060820152a180f35b62461bcd60e51b81526020600482015260096024820152680e6c6dee4ca7cdac2f60bb1b6044820152606490fd5b63b577c1f760e01b8752600487fd5b506003546001600160a01b03163314156111d4565b8680fd5b8480fd5b5080fd5b6004359081151582036112d157565b600080fd5b6024359081151582036112d157565b600435906001600160a01b03821682036112d157565b90601f8019910116810190811067ffffffffffffffff82111761131d57604052565b634e487b7160e01b600052604160045260246000fd5b9067ffffffffffffffff1667ffffffffffffffff42168111156114315760009160018060a01b0316908183526008602052604083208167ffffffffffffffff19825416179055817ff417980937519426456b730c27963df660c2f7a28816666fc0ce2ebe0c457b456020604051848152a260405160208101918383526040820152604081526113c36060826112fb565b5190206006546001600160a01b031691826113df575b50505050565b823b1561142d579060648492836040519586948593631250d57560e31b85526004850152600c602485015260448401525af161141d575b80806113d9565b81611427916112fb565b38611416565b8380fd5b506001600160a01b0316600081815260086020526040808220805467ffffffffffffffff1916905551909190817f8273fa3eb0bea439f1dccc317946ca11fb3e2d61a66620969b86039bc4fe79da8480a26020810190828252602081526114996040826112fb565b5190206006546001600160a01b031691826114b45750505050565b823b1561142d579060648492836040519586948593631250d57560e31b85526004850152600d602485015260448401525af161141d5780806113d9565b908160209103126112d1575180151581036112d15790565b6004546001600160a01b03169190821561163e5760405163652b9b4160e01b8152336004820152602081602481875afa9081156115ec57600091611646575b501561163e57602060249360405194858092632724fe0960e01b82523360048301525afa9283156115ec576000936115f8575b506040516372331c7360e11b81526001600160a01b039384166004820152921660248301526044820152602081606481305afa9081156115ec576000916115c0575090565b6115e2915060203d6020116115e5575b6115da81836112fb565b8101906114f1565b90565b503d6115d0565b6040513d6000823e3d90fd5b6020939193813d602011611636575b81611614602093836112fb565b810103126112be5751906001600160a01b03821682036101d55750913861157b565b3d9150611607565b505050600090565b61165f915060203d6020116115e5576115da81836112fb565b38611548565b908160209103126112d1575161ffff811681036112d15790565b6001600160a01b031660008181526009602052604090205490919060ff16801561191d575b6119165760ff60065460a01c16611905576001600160a01b03166000818152600c602052604090205460ff166119055781600052600760205260ff604060002054166119055781600052600860205267ffffffffffffffff60406000205416801515908161190c575b5061190557600a549060ff8216806118ec575b61172d575b505050600190565b6005546001600160a01b03169182156118e35760ff8160081c168061183f575b6118365760ff8160101c16611763575b50611725565b6040519363776f384360e01b85526004850152602084602481865afa9081156115ec5761ffff94600092611813575b5060181c84169316831161163e5760209060246040518094819363776f384360e01b835260048301525afa80156115ec5761ffff916000916117e4575b5016106117df573880808061175d565b600090565b611806915060203d60201161180c575b6117fe81836112fb565b810190611665565b386117cf565b503d6117f4565b8591925061182f9060203d60201161180c576117fe81836112fb565b9190611792565b50505050600090565b5060405163fbac395160e01b815260048101859052602081602481875afa9081156115ec576000916118c4575b508061174d575060405163fbac395160e01b815260048101839052602081602481875afa9081156115ec576000916118a5575b5061174d565b6118be915060203d6020116115e5576115da81836112fb565b3861189f565b6118dd915060203d6020116115e5576115da81836112fb565b3861186c565b50505050600190565b5080600052600b60205260ff6040600020541615611720565b5050600090565b905042103861170d565b5050600190565b506001600160a01b03811660009081526009602052604090205460ff166116a4565b600280541461194e5760028055565b60405162461bcd60e51b815260206004820152601f60248201527f5265656e7472616e637947756172643a207265656e7472616e742063616c6c006044820152606490fd5b6000546001600160a01b031633036119a757565b606460405162461bcd60e51b815260206004820152602060248201527f4f776e61626c653a2063616c6c6572206973206e6f7420746865206f776e65726044820152fdfea264697066735822122092474e5d64adc009fb0cdb70255e6887fa6e5222012e0150989c7858e3f664be64736f6c634300081e0033",
  "linkReferences": {},
  "deployedLinkReferences": {}
}