{"abi":[{"type":"constructor","inputs":[{"name":"_dao","type":"address","internalType":"address"},{"name":"_seer","type":"address","internalType":"address"},{"name":"_hub","type":"address","internalType":"address"},{"name":"_ledger","type":"address","internalType":"address"}],"stateMutability":"nonpayable"},{"type":"function","name":"canRegister","inputs":[{"name":"user","type":"address","internalType":"address"}],"outputs":[{"name":"eligible","type":"bool","internalType":"bool"},{"name":"hasVault","type":"bool","internalType":"bool"},{"name":"currentScore","type":"uint16","internalType":"uint16"},{"name":"requiredScore","type":"uint16","internalType":"uint16"},{"name":"canServe","type":"bool","internalType":"bool"}],"stateMutability":"view"},{"type":"function","name":"canServeNextTerm","inputs":[{"name":"member","type":"address","internalType":"address"}],"outputs":[{"name":"eligible","type":"bool","internalType":"bool"},{"name":"termsServed","type":"uint8","internalType":"uint8"},{"name":"cooldownEnds","type":"uint64","internalType":"uint64"}],"stateMutability":"view"},{"type":"function","name":"consecutiveTermsServed","inputs":[{"name":"","type":"address","internalType":"address"}],"outputs":[{"name":"","type":"uint8","internalType":"uint8"}],"stateMutability":"view"},{"type":"function","name":"cooldownPeriod","inputs":[],"outputs":[{"name":"","type":"uint64","internalType":"uint64"}],"stateMutability":"view"},{"type":"function","name":"councilSize","inputs":[],"outputs":[{"name":"","type":"uint8","internalType":"uint8"}],"stateMutability":"view"},{"type":"function","name":"currentCouncil","inputs":[{"name":"","type":"uint256","internalType":"uint256"}],"outputs":[{"name":"","type":"address","internalType":"address"}],"stateMutability":"view"},{"type":"function","name":"dao","inputs":[],"outputs":[{"name":"","type":"address","internalType":"address"}],"stateMutability":"view"},{"type":"function","name":"getActualCouncilSize","inputs":[],"outputs":[{"name":"","type":"uint256","internalType":"uint256"}],"stateMutability":"view"},{"type":"function","name":"getCandidates","inputs":[],"outputs":[{"name":"candidates","type":"address[]","internalType":"address[]"}],"stateMutability":"view"},{"type":"function","name":"getCouncilMember","inputs":[{"name":"index","type":"uint256","internalType":"uint256"}],"outputs":[{"name":"","type":"address","internalType":"address"}],"stateMutability":"view"},{"type":"function","name":"getCouncilMembers","inputs":[],"outputs":[{"name":"","type":"address[]","internalType":"address[]"}],"stateMutability":"view"},{"type":"function","name":"getElectionStatus","inputs":[],"outputs":[{"name":"currentCouncilSize","type":"uint256","internalType":"uint256"},{"name":"maxCouncilSize","type":"uint256","internalType":"uint256"},{"name":"termEndTime","type":"uint64","internalType":"uint64"},{"name":"daysRemaining","type":"uint256","internalType":"uint256"},{"name":"candidateCount","type":"uint256","internalType":"uint256"},{"name":"eligibleCandidateCount","type":"uint256","internalType":"uint256"}],"stateMutability":"view"},{"type":"function","name":"isCandidate","inputs":[{"name":"","type":"address","internalType":"address"}],"outputs":[{"name":"","type":"bool","internalType":"bool"}],"stateMutability":"view"},{"type":"function","name":"isCouncil","inputs":[{"name":"","type":"address","internalType":"address"}],"outputs":[{"name":"","type":"bool","internalType":"bool"}],"stateMutability":"view"},{"type":"function","name":"lastTermEndDate","inputs":[{"name":"","type":"address","internalType":"address"}],"outputs":[{"name":"","type":"uint64","internalType":"uint64"}],"stateMutability":"view"},{"type":"function","name":"ledger","inputs":[],"outputs":[{"name":"","type":"address","internalType":"contract IProofLedger"}],"stateMutability":"view"},{"type":"function","name":"maxConsecutiveTerms","inputs":[],"outputs":[{"name":"","type":"uint8","internalType":"uint8"}],"stateMutability":"view"},{"type":"function","name":"minCouncilScore","inputs":[],"outputs":[{"name":"","type":"uint16","internalType":"uint16"}],"stateMutability":"view"},{"type":"function","name":"refreshCouncil","inputs":[{"name":"current","type":"address[]","internalType":"address[]"}],"outputs":[],"stateMutability":"nonpayable"},{"type":"function","name":"refreshInterval","inputs":[],"outputs":[{"name":"","type":"uint64","internalType":"uint64"}],"stateMutability":"view"},{"type":"function","name":"register","inputs":[],"outputs":[],"stateMutability":"nonpayable"},{"type":"function","name":"removeCouncilMember","inputs":[{"name":"member","type":"address","internalType":"address"},{"name":"reason","type":"string","internalType":"string"}],"outputs":[],"stateMutability":"nonpayable"},{"type":"function","name":"seer","inputs":[],"outputs":[{"name":"","type":"address","internalType":"contract ISeer"}],"stateMutability":"view"},{"type":"function","name":"setCouncil","inputs":[{"name":"members","type":"address[]","internalType":"address[]"}],"outputs":[],"stateMutability":"nonpayable"},{"type":"function","name":"setModules","inputs":[{"name":"_dao","type":"address","internalType":"address"},{"name":"_seer","type":"address","internalType":"address"},{"name":"_hub","type":"address","internalType":"address"},{"name":"_ledger","type":"address","internalType":"address"}],"outputs":[],"stateMutability":"nonpayable"},{"type":"function","name":"setParams","inputs":[{"name":"_size","type":"uint8","internalType":"uint8"},{"name":"_minScore","type":"uint16","internalType":"uint16"},{"name":"_term","type":"uint64","internalType":"uint64"},{"name":"_refresh","type":"uint64","internalType":"uint64"}],"outputs":[],"stateMutability":"nonpayable"},{"type":"function","name":"setTermLimits","inputs":[{"name":"_maxConsecutive","type":"uint8","internalType":"uint8"},{"name":"_cooldown","type":"uint64","internalType":"uint64"}],"outputs":[],"stateMutability":"nonpayable"},{"type":"function","name":"termEnd","inputs":[],"outputs":[{"name":"","type":"uint64","internalType":"uint64"}],"stateMutability":"view"},{"type":"function","name":"termSeconds","inputs":[],"outputs":[{"name":"","type":"uint64","internalType":"uint64"}],"stateMutability":"view"},{"type":"function","name":"unregister","inputs":[],"outputs":[],"stateMutability":"nonpayable"},{"type":"function","name":"vaultHub","inputs":[],"outputs":[{"name":"","type":"address","internalType":"contract IVaultHub"}],"stateMutability":"view"},{"type":"event","name":"CandidateRegistered","inputs":[{"name":"who","type":"address","indexed":true,"internalType":"address"}],"anonymous":false},{"type":"event","name":"CandidateUnregistered","inputs":[{"name":"who","type":"address","indexed":true,"internalType":"address"}],"anonymous":false},{"type":"event","name":"CouncilSet","inputs":[{"name":"members","type":"address[]","indexed":false,"internalType":"address[]"},{"name":"termEnd","type":"uint64","indexed":false,"internalType":"uint64"}],"anonymous":false},{"type":"event","name":"ModulesSet","inputs":[{"name":"dao","type":"address","indexed":false,"internalType":"address"},{"name":"seer","type":"address","indexed":false,"internalType":"address"},{"name":"hub","type":"address","indexed":false,"internalType":"address"},{"name":"ledger","type":"address","indexed":false,"internalType":"address"}],"anonymous":false},{"type":"event","name":"ParamsSet","inputs":[{"name":"councilSize","type":"uint8","indexed":false,"internalType":"uint8"},{"name":"minScore","type":"uint16","indexed":false,"internalType":"uint16"},{"name":"termSeconds","type":"uint64","indexed":false,"internalType":"uint64"},{"name":"refreshInterval","type":"uint64","indexed":false,"internalType":"uint64"}],"anonymous":false},{"type":"event","name":"TermLimitsSet","inputs":[{"name":"maxConsecutiveTerms","type":"uint8","indexed":false,"internalType":"uint8"},{"name":"cooldownPeriod","type":"uint64","indexed":false,"internalType":"uint64"}],"anonymous":false},{"type":"error","name":"CE_ArrayMismatch","inputs":[]},{"type":"error","name":"CE_BadSize","inputs":[]},{"type":"error","name":"CE_NotDAO","inputs":[]},{"type":"error","name":"CE_NotEligible","inputs":[]},{"type":"error","name":"CE_TermLimitReached","inputs":[]},{"type":"error","name":"CE_Zero","inputs":[]}],"bytecode":{"object":"0x6080346101b057601f611ef338819003918201601f19168301916001600160401b038311848410176101b4578084926080946040528339810103126101b057610047816101c8565b610053602083016101c8565b9061006c6060610065604086016101c8565b94016101c8565b6009546001600160a01b039290921691600161ffff60501b01600160a01b0319166f01e1338000000c0000000001e133800117908215801561019f575b801561018e575b61017f575f80546001600160a01b031990811685179091556001805482166001600160a01b0396871690811790915560028054831697871697881790556003805490921692909516918217905561ffff60501b600160a01b03600160e01b03199091167612750000000000000000001b5800000000000000000000176009556040805192835260208301939093529181019290925260608201527f2ad69807131f242e4c6b9e21338b8d7d7d5f32ab1dfaa1eddfa881c305c8f5e790608090a1604051611d1690816101dd8239f35b636b9c6bd960e11b5f5260045ffd5b506001600160a01b038516156100b0565b506001600160a01b038416156100a9565b5f80fd5b634e487b7160e01b5f52604160045260245ffd5b51906001600160a01b03821682036101b05756fe6080806040526004361015610012575f80fd5b5f905f3560e01c90816304646a49146117555750806306a49fce1461161e578063122902a61461151b5780631aa3a008146114115780632b553e90146113f45780632d55ea39146113cc578063320d46d4146112615780634162169f1461123a57806342a3fda01461106357806348f1cd7b1461103657806356397c351461100d578063606a6b7614610f925780636c79b49514610f6e5780636dd6e80b14610f455780636f78f54814610f145780637fcab09c14610e565780639aa360ec14610e17578063a1fb43b414610df2578063b079fbff14610cab578063c3e730c414610c82578063c47a9dc714610c3e578063d124b06f14610bfe578063d2ff0d3014610a96578063d51b9e9314610a57578063dcfebe5114610a2a578063de73d24d146105d6578063e79a198f1461046e578063edb04b9f14610431578063f7a67dec14610410578063fa255dec146103665763fc7a9f8814610173575f80fd5b346103635760803660031901126103635761018c61186a565b6024359061ffff821680830361036157604435906001600160401b03821680830361035d576064356001600160401b0381169290838103610359576101cf611bd9565b60ff861694851561034a576115e08310158061033e575b156103015762278d0084106102c75760098054606092831b600160601b600160a01b031660509a909a1b61ffff60501b16600160481b600160e01b031990911660489990991b60ff60481b1698909817979097179790971760a09190911b600160a01b600160e01b03161790945560408051938452602084019490945292820192909252918201527fe808972b8e65a38bf8b3cb407a8c44f06ae212a0c0e8214f5dcb6cc012c0b86a90608090a16102c46040516102a560408261189c565b600d81526c18d957dc185c985b5cd7dcd95d609a1b6020820152611b56565b80f35b60405162461bcd60e51b815260206004820152601260248201527110d14e881d195c9b481d1bdbc81cda1bdc9d60721b6044820152606490fd5b60405162461bcd60e51b815260206004820152601560248201527443453a20696e76616c6964206d696e2073636f726560581b6044820152606490fd5b506127108311156101e6565b637ddb365d60e01b8952600489fd5b8780fd5b8580fd5b835b80fd5b5034610363576020366003190112610363576060906103836117bd565b9061038d826119a9565b91826103fa575b6001600160a01b0316808252600760209081526040808420549284526008918290529092205460095460ff909216926103da926001600160401b03911c81169116611990565b60408051931515845260208401929092526001600160401b031690820152f35b91506103da61040883611a8e565b929050610394565b5034610363578060031936011261036357602060ff60095416604051908152f35b50346103635760203660031901126103635760209060ff906040906001600160a01b0361045c6117bd565b16815260078452205416604051908152f35b503461036357806003193601126103635733815260046020526040812060ff198154169055338152600c60205260ff6040822054166104ea575b335f516020611ca15f395f51905f528280a26102c46040516104cb60408261189c565b600d81526c31b2afbab73932b3b4b9ba32b960991b6020820152611b56565b600b54815b818110610512575b5050338152600c60205260408120805460ff191690556104a8565b61051b81611825565b905460039190911b1c6001600160a01b0316331461053b576001016104ef565b905f1981019081116105c2579061056f61055761057593611825565b905460039190911b1c6001600160a01b031691611825565b906118e3565b600b5480156105ae575f19016105a461058f82600b611855565b81549060018060a01b039060031b1b19169055565b600b555f806104f7565b634e487b7160e01b82526031600452602482fd5b634e487b7160e01b83526011600452602483fd5b5034610363576105e5366117d3565b906105ee611bd9565b81158015610a19575b610a0a57600654835b8181106109d757505060065483600655806109a8575b506009546106346001600160401b03606083901c8116904216611990565b6001600160401b03169060611c60016001603f1b0316845b84811061070e575050600a80546001600160401b03191682179055604080518181529081018490529260608401929085905b8082106106e457867f880b99685a81f5af8e301272643739339c424d182e1ed5503b6e9be6c987b5698780888860208301520390a16102c46040516106c460408261189c565b600e81526d18d957d8dbdd5b98da5b17dcd95d60921b6020820152611b56565b90919384359060018060a01b0382168092036103595760208160019382935201950192019061067e565b61072161071c82878761196c565b61197c565b61072a816119a9565b15610999576001600160a01b038116875b8381106109245750808852600860205260408820546001600160401b03161515806108fc575b1561085e57808852600760205260ff60408920541660ff60095416111561083b5780885260076020526040882060ff81541660ff811461084a57600160ff91011660ff198254161790555b808852600760205260ff60408920541660ff600954161061083b57808852600860209081526040808a2080546001600160401b03191688179055918952600590528720805460ff19166001179055600654600160401b811015610827576001929161056f828561082194016006556006611855565b0161064c565b634e487b7160e01b88526041600452602488fd5b6372f13e9d60e11b8852600488fd5b634e487b7160e01b8a52601160045260248afd5b808852600860205260408820546001600160401b03161515806108c7575b156108ab57808852600760205260ff60408920541660ff60095416116107ac576372f13e9d60e11b8852600488fd5b808852600760205260408820805460ff191660011790556107ac565b508088526008602081905260408920546009546001600160401b03926108f49291901c8316908316611990565b16421061087c565b50808852600860205260408820546001600160401b031661091d85426118d6565b1115610761565b9197929692959094939291856001600160a01b0361094661071c84878761196c565b161461095d5760010197919692939490959761073b565b60405162461bcd60e51b815260206004820152601460248201527321a29d10323ab83634b1b0ba329036b2b6b132b960611b6044820152606490fd5b630a136cef60e01b8752600487fd5b600684525f516020611cc15f395f51905f52908101905b8181106109cc5750610616565b8481556001016109bf565b806109e360019261183d565b838060a01b0391549060031b1c16865260056020526040862060ff19815416905501610600565b6361eee37f60e11b8352600483fd5b5060ff60095460481c1682116105f7565b503461036357806003193601126103635760095460405160a09190911c6001600160401b03168152602090f35b50346103635760203660031901126103635760209060ff906040906001600160a01b03610a826117bd565b168152600484522054166040519015158152f35b503461036357604036600319011261036357610ab061186a565b6024356001600160401b038116918282036103615760ff90610ad0611bd9565b1680151580610bf3575b15610bb6576276a7008310610b7857600980546001600160481b031916821760089390931b610100600160481b0316929092179091556040805191825260208201929092527f6a5654f37e42a25ec9cbe0b5ee09c94c3d02e98734eea797ba5fdb8c08e8c46b9190a16102c4604051610b5460408261189c565b601281527118d957dd195c9b57db1a5b5a5d1cd7dcd95d60721b6020820152611b56565b60405162461bcd60e51b815260206004820152601660248201527510d14e8818dbdbdb191bdddb881d1bdbc81cda1bdc9d60521b6044820152606490fd5b60405162461bcd60e51b815260206004820152601560248201527443453a20696e76616c6964206d6178207465726d7360581b6044820152606490fd5b50600a811115610ada565b5034610363576020366003190112610363576020906001600160a01b03610c236117bd565b168152600882526040600180821b0391205416604051908152f35b50346103635760203660031901126103635760043590600654821015610363576020610c698361183d565b905460405160039290921b1c6001600160a01b03168152f35b5034610363578060031936011261036357600a546040516001600160401b039091168152602090f35b503461036357608036600319011261036357610cc56117bd565b6024356001600160a01b0381169190829003610dee576044356001600160a01b03811690819003610361576064356001600160a01b0381169290839003610dea57610d0e611bd9565b6001600160a01b03169283158015610de2575b8015610dda575b610dcb5784546001600160a01b0319908116851786556001805482168317905560028054821684179055600380549091168417905560408051948552602085019190915283015260608201527f2ad69807131f242e4c6b9e21338b8d7d7d5f32ab1dfaa1eddfa881c305c8f5e790608090a16102c4604051610dab60408261189c565b600e81526d18d957db5bd91d5b195cd7dcd95d60921b6020820152611b56565b636b9c6bd960e11b8552600485fd5b508115610d28565b508015610d21565b8480fd5b8280fd5b5034610363578060031936011261036357602061ffff60095460501c16604051908152f35b50346103635760203660031901126103635760209060ff906040906001600160a01b03610e426117bd565b168152600584522054166040519015158152f35b503461036357610e65366117d3565b610e6d611bd9565b825b818110610ea457836102c4604051610e8860408261189c565b600a8152690c6cabee4cacce4cae6d60b31b6020820152611b56565b80610eb561071c600193858761196c565b828060a01b03811690818752600560205260ff60408820541680610f04575b610ee1575b505001610e6f565b610efd91875260056020526040872060ff198154169055611bfb565b5f80610ed9565b50610f0e816119a9565b15610ed4565b5034610363576020366003190112610363576020610f3360043561193f565b6040516001600160a01b039091168152f35b50346103635780600319360112610363576002546040516001600160a01b039091168152602090f35b5034610363578060031936011261036357602060ff60095460481c16604051908152f35b503461036357806003193601126103635760405160068054808352908352909160208301915f516020611cc15f395f51905f52915b818110610fee57610fea85610fde8187038261189c565b6040519182918261177b565b0390f35b82546001600160a01b0316845260209093019260019283019201610fc7565b50346103635780600319360112610363576003546040516001600160a01b039091168152602090f35b503461036357806003193601126103635760095460405160609190911c6001600160401b03168152602090f35b50346111f85760403660031901126111f85761107d6117bd565b6024356001600160401b0381116111f857366023820112156111f8576004810135916001600160401b0383116111f85736602484840101116111f8576110c1611bd9565b6001600160a01b0381165f8181526005602052604090205490919060ff16156111fc5761110190825f52600560205260405f2060ff198154169055611bfb565b5f81815260086020526040812080546001600160401b031916426001600160401b031617905581905f516020611ca15f395f51905f529080a261116e60405161114b60408261189c565b601181527018d957db595b58995c97dc995b5bdd9959607a1b6020820152611b56565b6003546001600160a01b031680611183578480f35b803b156111f8575f928360846024948760405198899788968794633ddd61ab60e21b8652600486015260608286015282606486015201848401378181018301849052336044830152601f01601f191681010301925af16111e5575b8080808480f35b6111f191505f9061189c565b5f5f6111de565b5f80fd5b60405162461bcd60e51b815260206004820152601660248201527521a29d103737ba1031b7bab731b4b61036b2b6b132b960511b6044820152606490fd5b346111f8575f3660031901126111f8575f546040516001600160a01b039091168152602090f35b346111f85760203660031901126111f85761127a6117bd565b600254604051630709df4560e01b81526001600160a01b0383811660048301819052939260209183916024918391165afa908115611392575f9161139d575b50600154604051630d47875d60e41b815260048101949094526001600160a01b039182161515929160209185916024918391165afa9081156113925760a0935f92611361575b5061131361ffff60095460501c1691611a8e565b918380611351575b84611347575b9061ffff9160405195151586526020860152166040840152606083015215156080820152f35b9293508392611321565b93508161ffff821610159361131b565b61138491925060203d60201161138b575b61137c818361189c565b810190611925565b90846112ff565b503d611372565b6040513d5f823e3d90fd5b6113bf915060203d6020116113c5575b6113b7818361189c565b810190611906565b836112b9565b503d6113ad565b346111f8575f3660031901126111f8576001546040516001600160a01b039091168152602090f35b346111f8575f3660031901126111f8576020600654604051908152f35b346111f8575f3660031901126111f85761142a336119a9565b1561150c57335f52600460205260405f20600160ff19825416179055335f52600c60205260ff60405f205416156114b1575b337fa0ac4f59dabb0ddc4b8b883adda9e055e02c796b2cde2ed80fdb11a38f77e5c95f80a26114af60405161149260408261189c565b600b81526a31b2afb932b3b4b9ba32b960a91b6020820152611b56565b005b600b54600160401b8110156114f8576114d58160016114dc9301600b55600b611855565b33916118e3565b335f52600c60205260405f20600160ff1982541617905561145c565b634e487b7160e01b5f52604160045260245ffd5b630a136cef60e01b5f5260045ffd5b346111f8575f3660031901126111f8575f5f6006549060ff60095460481c169260018060401b03600a54164281115f14611617576201518061155d42836118d6565b04905b600b545f5b81811061159257505060c095604051958652602086015260408501526060840152608083015260a0820152f35b61159b81611825565b905460039190911b1c6001600160a01b03165f8181526004602052604090205460ff166115cc575b50600101611565565b946115d69061187a565b946115e0816119a9565b9081611607575b506115f3575b886115c3565b946115ff60019161187a565b9590506115ed565b6116119150611a8e565b896115e7565b5f90611560565b346111f8575f3660031901126111f8575f5f600b54905b81811061170d5750611646826118bf565b91611654604051938461189c565b808352611663601f19916118bf565b013660208401375f5f5b8281106116825760405180610fea868261177b565b61168b81611825565b60018060a01b0391549060031b1c165f52600460205260ff60405f2054166116b6575b60010161166d565b906116c082611825565b905460039190911b1c6001600160a01b0316916116dc8261187a565b9285518310156116f957602060019360051b8701015290506116ae565b634e487b7160e01b5f52603260045260245ffd5b61171681611825565b60018060a01b0391549060031b1c165f52600460205260ff60405f205416611741575b600101611635565b9161174d60019161187a565b929050611739565b346111f8575f3660031901126111f85760095460081c6001600160401b03168152602090f35b60206040818301928281528451809452019201905f5b81811061179e5750505090565b82516001600160a01b0316845260209384019390920191600101611791565b600435906001600160a01b03821682036111f857565b9060206003198301126111f8576004356001600160401b0381116111f857826023820112156111f8576004810135926001600160401b0384116111f85760248460051b830101116111f8576024019190565b600b548110156116f957600b5f5260205f2001905f90565b6006548110156116f95760065f5260205f2001905f90565b80548210156116f9575f5260205f2001905f90565b6004359060ff821682036111f857565b5f1981146118885760010190565b634e487b7160e01b5f52601160045260245ffd5b601f909101601f19168101906001600160401b038211908210176114f857604052565b6001600160401b0381116114f85760051b60200190565b9190820391821161188857565b80546001600160a01b0360039390931b83811b199091169290931690921b179055565b908160209103126111f857516001600160a01b03811681036111f85790565b908160209103126111f8575161ffff811681036111f85790565b600654811015611967576119529061183d565b905460039190911b1c6001600160a01b031690565b505f90565b91908110156116f95760051b0190565b356001600160a01b03811681036111f85790565b6001600160401b03918216908216019190821161188857565b6001600160a01b0316801561196757600254604051630709df4560e01b81526004810183905290602090829060249082906001600160a01b03165afa908115611392575f91611a6f575b506001600160a01b03161561196757600154604051630d47875d60e41b81526004810192909252602090829060249082906001600160a01b03165afa908115611392575f91611a50575b5061ffff8060095460501c169116101590565b611a69915060203d60201161138b5761137c818361189c565b5f611a3d565b611a88915060203d6020116113c5576113b7818361189c565b5f6119f3565b6001600160a01b03165f8181526007602052604090205460ff1615611add57805f52600560205260ff60405f20541680611b38575b61196757805f52600560205260ff60405f20541615611ae3575b50600190565b805f52600760205260ff60405f205416906009549160ff83161115611b085750611add565b5f908152600860208190526040909120546001600160401b0392611b31921c8316908316611990565b1642101590565b50805f52600760205260ff60405f20541660ff600954161115611ac3565b6003546001600160a01b031680611b6b575050565b803b156111f85760205f9160849383604051958680958194633ddd61ab60e21b8352306004840152606060248401528051918291826064860152018484015e8181018301849052336044830152601f01601f191681010301925af1611bcd5750565b5f611bd79161189c565b565b5f546001600160a01b03163303611bec57565b63bdaa6e1360e01b5f5260045ffd5b6006545f5b818110611c0c57505050565b611c158161183d565b905460039190911b1c6001600160a01b0390811690841614611c3957600101611c00565b5f19820192509082116118885761056f611c55611c6d9361183d565b905460039190911b1c6001600160a01b03169161183d565b6006548015611c8c575f1901611c8761058f826006611855565b600655565b634e487b7160e01b5f52603160045260245ffdfe3cdadb93586528af5dca44184ba3e5366cd7b3e36d66e4daa3f9b184d56611c6f652222313e28459528d920b65115c16c04f3efc82aaedc97be59f3f377c0d3fa2646970667358221220ab7e278b4479c34a7d43fff5526f26b5f217e4fb8601e5c4ce92f2785242c2cb64736f6c634300081e0033","linkReferences":{}},"methodIdentifiers":{"canRegister(address)":"320d46d4","canServeNextTerm(address)":"fa255dec","consecutiveTermsServed(address)":"edb04b9f","cooldownPeriod()":"04646a49","councilSize()":"6c79b495","currentCouncil(uint256)":"c47a9dc7","dao()":"4162169f","getActualCouncilSize()":"2b553e90","getCandidates()":"06a49fce","getCouncilMember(uint256)":"6f78f548","getCouncilMembers()":"606a6b76","getElectionStatus()":"122902a6","isCandidate(address)":"d51b9e93","isCouncil(address)":"9aa360ec","lastTermEndDate(address)":"d124b06f","ledger()":"56397c35","maxConsecutiveTerms()":"f7a67dec","minCouncilScore()":"a1fb43b4","refreshCouncil(address[])":"7fcab09c","refreshInterval()":"dcfebe51","register()":"1aa3a008","removeCouncilMember(address,string)":"42a3fda0","seer()":"2d55ea39","setCouncil(address[])":"de73d24d","setModules(address,address,address,address)":"b079fbff","setParams(uint8,uint16,uint64,uint64)":"fc7a9f88","setTermLimits(uint8,uint64)":"d2ff0d30","termEnd()":"c3e730c4","termSeconds()":"48f1cd7b","unregister()":"e79a198f","vaultHub()":"6dd6e80b"},"id":3}