{"abi":[{"type":"constructor","inputs":[{"name":"_dao","type":"address","internalType":"address"},{"name":"_seer","type":"address","internalType":"address"},{"name":"_hub","type":"address","internalType":"address"},{"name":"_ledger","type":"address","internalType":"address"}],"stateMutability":"nonpayable"},{"type":"function","name":"canRegister","inputs":[{"name":"user","type":"address","internalType":"address"}],"outputs":[{"name":"eligible","type":"bool","internalType":"bool"},{"name":"hasVault","type":"bool","internalType":"bool"},{"name":"currentScore","type":"uint16","internalType":"uint16"},{"name":"requiredScore","type":"uint16","internalType":"uint16"},{"name":"canServe","type":"bool","internalType":"bool"}],"stateMutability":"view"},{"type":"function","name":"canServeNextTerm","inputs":[{"name":"member","type":"address","internalType":"address"}],"outputs":[{"name":"eligible","type":"bool","internalType":"bool"},{"name":"termsServed","type":"uint8","internalType":"uint8"},{"name":"cooldownEnds","type":"uint64","internalType":"uint64"}],"stateMutability":"view"},{"type":"function","name":"consecutiveTermsServed","inputs":[{"name":"","type":"address","internalType":"address"}],"outputs":[{"name":"","type":"uint8","internalType":"uint8"}],"stateMutability":"view"},{"type":"function","name":"cooldownPeriod","inputs":[],"outputs":[{"name":"","type":"uint64","internalType":"uint64"}],"stateMutability":"view"},{"type":"function","name":"councilSize","inputs":[],"outputs":[{"name":"","type":"uint8","internalType":"uint8"}],"stateMutability":"view"},{"type":"function","name":"currentCouncil","inputs":[{"name":"","type":"uint256","internalType":"uint256"}],"outputs":[{"name":"","type":"address","internalType":"address"}],"stateMutability":"view"},{"type":"function","name":"dao","inputs":[],"outputs":[{"name":"","type":"address","internalType":"address"}],"stateMutability":"view"},{"type":"function","name":"getActualCouncilSize","inputs":[],"outputs":[{"name":"","type":"uint256","internalType":"uint256"}],"stateMutability":"view"},{"type":"function","name":"getCandidates","inputs":[],"outputs":[{"name":"candidates","type":"address[]","internalType":"address[]"}],"stateMutability":"view"},{"type":"function","name":"getCouncilMember","inputs":[{"name":"index","type":"uint256","internalType":"uint256"}],"outputs":[{"name":"","type":"address","internalType":"address"}],"stateMutability":"view"},{"type":"function","name":"getCouncilMembers","inputs":[],"outputs":[{"name":"","type":"address[]","internalType":"address[]"}],"stateMutability":"view"},{"type":"function","name":"getElectionStatus","inputs":[],"outputs":[{"name":"currentCouncilSize","type":"uint256","internalType":"uint256"},{"name":"maxCouncilSize","type":"uint256","internalType":"uint256"},{"name":"termEndTime","type":"uint64","internalType":"uint64"},{"name":"daysRemaining","type":"uint256","internalType":"uint256"},{"name":"candidateCount","type":"uint256","internalType":"uint256"},{"name":"eligibleCandidateCount","type":"uint256","internalType":"uint256"}],"stateMutability":"view"},{"type":"function","name":"isCandidate","inputs":[{"name":"","type":"address","internalType":"address"}],"outputs":[{"name":"","type":"bool","internalType":"bool"}],"stateMutability":"view"},{"type":"function","name":"isCouncil","inputs":[{"name":"","type":"address","internalType":"address"}],"outputs":[{"name":"","type":"bool","internalType":"bool"}],"stateMutability":"view"},{"type":"function","name":"lastTermEndDate","inputs":[{"name":"","type":"address","internalType":"address"}],"outputs":[{"name":"","type":"uint64","internalType":"uint64"}],"stateMutability":"view"},{"type":"function","name":"ledger","inputs":[],"outputs":[{"name":"","type":"address","internalType":"contract IProofLedger"}],"stateMutability":"view"},{"type":"function","name":"maxConsecutiveTerms","inputs":[],"outputs":[{"name":"","type":"uint8","internalType":"uint8"}],"stateMutability":"view"},{"type":"function","name":"minCouncilScore","inputs":[],"outputs":[{"name":"","type":"uint16","internalType":"uint16"}],"stateMutability":"view"},{"type":"function","name":"refreshCouncil","inputs":[{"name":"current","type":"address[]","internalType":"address[]"}],"outputs":[],"stateMutability":"nonpayable"},{"type":"function","name":"refreshInterval","inputs":[],"outputs":[{"name":"","type":"uint64","internalType":"uint64"}],"stateMutability":"view"},{"type":"function","name":"register","inputs":[],"outputs":[],"stateMutability":"nonpayable"},{"type":"function","name":"removeCouncilMember","inputs":[{"name":"member","type":"address","internalType":"address"},{"name":"reason","type":"string","internalType":"string"}],"outputs":[],"stateMutability":"nonpayable"},{"type":"function","name":"seer","inputs":[],"outputs":[{"name":"","type":"address","internalType":"contract ISeer"}],"stateMutability":"view"},{"type":"function","name":"setCouncil","inputs":[{"name":"members","type":"address[]","internalType":"address[]"}],"outputs":[],"stateMutability":"nonpayable"},{"type":"function","name":"setModules","inputs":[{"name":"_dao","type":"address","internalType":"address"},{"name":"_seer","type":"address","internalType":"address"},{"name":"_hub","type":"address","internalType":"address"},{"name":"_ledger","type":"address","internalType":"address"}],"outputs":[],"stateMutability":"nonpayable"},{"type":"function","name":"setParams","inputs":[{"name":"_size","type":"uint8","internalType":"uint8"},{"name":"_minScore","type":"uint16","internalType":"uint16"},{"name":"_term","type":"uint64","internalType":"uint64"},{"name":"_refresh","type":"uint64","internalType":"uint64"}],"outputs":[],"stateMutability":"nonpayable"},{"type":"function","name":"setTermLimits","inputs":[{"name":"_maxConsecutive","type":"uint8","internalType":"uint8"},{"name":"_cooldown","type":"uint64","internalType":"uint64"}],"outputs":[],"stateMutability":"nonpayable"},{"type":"function","name":"termEnd","inputs":[],"outputs":[{"name":"","type":"uint64","internalType":"uint64"}],"stateMutability":"view"},{"type":"function","name":"termSeconds","inputs":[],"outputs":[{"name":"","type":"uint64","internalType":"uint64"}],"stateMutability":"view"},{"type":"function","name":"unregister","inputs":[],"outputs":[],"stateMutability":"nonpayable"},{"type":"function","name":"vaultHub","inputs":[],"outputs":[{"name":"","type":"address","internalType":"contract IVaultHub"}],"stateMutability":"view"},{"type":"event","name":"CandidateRegistered","inputs":[{"name":"who","type":"address","indexed":true,"internalType":"address"}],"anonymous":false},{"type":"event","name":"CandidateUnregistered","inputs":[{"name":"who","type":"address","indexed":true,"internalType":"address"}],"anonymous":false},{"type":"event","name":"CouncilSet","inputs":[{"name":"members","type":"address[]","indexed":false,"internalType":"address[]"},{"name":"termEnd","type":"uint64","indexed":false,"internalType":"uint64"}],"anonymous":false},{"type":"event","name":"ModulesSet","inputs":[{"name":"dao","type":"address","indexed":false,"internalType":"address"},{"name":"seer","type":"address","indexed":false,"internalType":"address"},{"name":"hub","type":"address","indexed":false,"internalType":"address"},{"name":"ledger","type":"address","indexed":false,"internalType":"address"}],"anonymous":false},{"type":"event","name":"ParamsSet","inputs":[{"name":"councilSize","type":"uint8","indexed":false,"internalType":"uint8"},{"name":"minScore","type":"uint16","indexed":false,"internalType":"uint16"},{"name":"termSeconds","type":"uint64","indexed":false,"internalType":"uint64"},{"name":"refreshInterval","type":"uint64","indexed":false,"internalType":"uint64"}],"anonymous":false},{"type":"event","name":"TermLimitsSet","inputs":[{"name":"maxConsecutiveTerms","type":"uint8","indexed":false,"internalType":"uint8"},{"name":"cooldownPeriod","type":"uint64","indexed":false,"internalType":"uint64"}],"anonymous":false},{"type":"error","name":"CE_ArrayMismatch","inputs":[]},{"type":"error","name":"CE_BadSize","inputs":[]},{"type":"error","name":"CE_NotDAO","inputs":[]},{"type":"error","name":"CE_NotEligible","inputs":[]},{"type":"error","name":"CE_TermLimitReached","inputs":[]},{"type":"error","name":"CE_Zero","inputs":[]}],"bytecode":{"object":"0x6080346101b057601f611ee538819003918201601f19168301916001600160401b038311848410176101b4578084926080946040528339810103126101b057610047816101c8565b610053602083016101c8565b9061006c6060610065604086016101c8565b94016101c8565b6009546001600160a01b039290921691600161ffff60501b01600160a01b0319166f01e1338000000c0000000001e133800117908215801561019f575b801561018e575b61017f575f80546001600160a01b031990811685179091556001805482166001600160a01b0396871690811790915560028054831697871697881790556003805490921692909516918217905561ffff60501b600160a01b03600160e01b03199091167612750000000000000000001b5800000000000000000000176009556040805192835260208301939093529181019290925260608201527f2ad69807131f242e4c6b9e21338b8d7d7d5f32ab1dfaa1eddfa881c305c8f5e790608090a1604051611d0890816101dd8239f35b636b9c6bd960e11b5f5260045ffd5b506001600160a01b038516156100b0565b506001600160a01b038416156100a9565b5f80fd5b634e487b7160e01b5f52604160045260245ffd5b51906001600160a01b03821682036101b05756fe6080806040526004361015610012575f80fd5b5f905f3560e01c90816304646a49146117445750806306a49fce1461160d578063122902a6146115095780631aa3a008146113ff5780632b553e90146113e25780632d55ea39146113ba578063320d46d41461124f5780634162169f1461122857806342a3fda01461105157806348f1cd7b1461102757806356397c3514610ffe578063606a6b7614610f835780636c79b49514610f5f5780636dd6e80b14610f365780636f78f54814610f055780637fcab09c14610e475780639aa360ec14610e08578063a1fb43b414610de3578063b079fbff14610c9c578063c3e730c414610c75578063c47a9dc714610c31578063d124b06f14610bee578063d2ff0d3014610a8e578063d51b9e9314610a4f578063dcfebe5114610a25578063de73d24d146105cf578063e79a198f14610467578063edb04b9f1461042a578063f7a67dec14610409578063fa255dec146103615763fc7a9f8814610173575f80fd5b3461035e57608036600319011261035e5761018c611859565b6024359061ffff821680830361035c57604435906001600160401b03821680830361035857606435916001600160401b03831692838103610354576101cf611bcb565b60ff8616948515610345576115e083101580610339575b156102fc5762278d0084106102c2577fe808972b8e65a38bf8b3cb407a8c44f06ae212a0c0e8214f5dcb6cc012c0b86a97608097600954936001600160401b0360a01b9060a01b16936001600160401b0360a01b199160ff60481b9060481b1690600160481b600160a01b03191617169061ffff60501b9060501b1617906001600160401b0360601b9060601b161717600955604051938452602084015260408301526060820152a16102bf6040516102a060408261188b565b600d81526c18d957dc185c985b5cd7dcd95d609a1b6020820152611b48565b80f35b60405162461bcd60e51b815260206004820152601260248201527110d14e881d195c9b481d1bdbc81cda1bdc9d60721b6044820152606490fd5b60405162461bcd60e51b815260206004820152601560248201527443453a20696e76616c6964206d696e2073636f726560581b6044820152606490fd5b506127108311156101e6565b637ddb365d60e01b8952600489fd5b8780fd5b8580fd5b835b80fd5b503461035e57602036600319011261035e5760609061037e6117ac565b906103888261199d565b90816103e6575b6103d06001600160401b03604081949560018060a01b031693848152600760205260ff828220541694815260086020522054168360095460081c169061197d565b9060405193151584526020840152166040820152f35b6001600160401b0391506103d08260406103ff86611a82565b945050505061038f565b503461035e578060031936011261035e57602060ff60095416604051908152f35b503461035e57602036600319011261035e5760209060ff906040906001600160a01b036104556117ac565b16815260078452205416604051908152f35b503461035e578060031936011261035e5733815260046020526040812060ff198154169055338152600c60205260ff6040822054166104e3575b335f516020611c935f395f51905f528280a26102bf6040516104c460408261188b565b600d81526c31b2afbab73932b3b4b9ba32b960991b6020820152611b48565b600b54815b81811061050b575b5050338152600c60205260408120805460ff191690556104a1565b61051481611814565b905460039190911b1c6001600160a01b03163314610534576001016104e8565b905f1981019081116105bb579061056861055061056e93611814565b905460039190911b1c6001600160a01b031691611814565b906118d0565b600b5480156105a7575f190161059d61058882600b611844565b81549060018060a01b039060031b1b19169055565b600b555f806104f0565b634e487b7160e01b82526031600452602482fd5b634e487b7160e01b83526011600452602483fd5b503461035e576105de366117c2565b906105e7611bcb565b81158015610a14575b610a0557600654835b8181106109d257505060065483600655806109a3575b50600954677fffffffffffffff61063b6001600160401b038360601c166001600160401b03421661197d565b6001600160401b03169160611c16845b84811061070d575050806001600160401b0319600a541617600a55604051928060408501604086525260608401929085905b8082106106e357867f880b99685a81f5af8e301272643739339c424d182e1ed5503b6e9be6c987b5698780888860208301520390a16102bf6040516106c360408261188b565b600e81526d18d957d8dbdd5b98da5b17dcd95d60921b6020820152611b48565b90919384359060018060a01b0382168092036103545760208160019382935201950192019061067d565b61072061071b828787611959565b611969565b6107298161199d565b15610994576001600160a01b038116875b83811061091f575080885260086020526001600160401b036040892054161515806108f7575b1561085d57808852600760205260ff60408920541660ff60095416111561083a5780885260076020526040882060ff81541660ff811461084957600160ff91011660ff198254161790555b808852600760205260ff60408920541660ff600954161061083a57808852600860209081526040808a2080546001600160401b03191688179055918952600590528720805460ff19166001179055600654600160401b8110156108265760019291610568828561082094016006556006611844565b0161064b565b634e487b7160e01b88526041600452602488fd5b6372f13e9d60e11b8852600488fd5b634e487b7160e01b8a52601160045260248afd5b80885260086020526001600160401b036040892054161515806108c6575b156108aa57808852600760205260ff60408920541660ff60095416116107ab576372f13e9d60e11b8852600488fd5b808852600760205260408820805460ff191660011790556107ab565b5080885260086020526001600160401b036108ef8160408b2054168260095460081c169061197d565b16421061087b565b5080885260086020526001600160401b0360408920541661091885426118c3565b1115610760565b9197929692959094939291856001600160a01b0361094161071b848787611959565b16146109585760010197919692939490959761073a565b60405162461bcd60e51b815260206004820152601460248201527321a29d10323ab83634b1b0ba329036b2b6b132b960611b6044820152606490fd5b630a136cef60e01b8752600487fd5b600684525f516020611cb35f395f51905f52908101905b8181106109c7575061060f565b8481556001016109ba565b806109de60019261182c565b838060a01b0391549060031b1c16865260056020526040862060ff198154169055016105f9565b6361eee37f60e11b8352600483fd5b5060ff60095460481c1682116105f0565b503461035e578060031936011261035e5760206001600160401b0360095460a01c16604051908152f35b503461035e57602036600319011261035e5760209060ff906040906001600160a01b03610a7a6117ac565b168152600484522054166040519015158152f35b503461035e57604036600319011261035e57610aa8611859565b6024356001600160401b0381169182820361035c5760ff90610ac8611bcb565b1680151580610be3575b15610ba6576276a7008310610b68577f6a5654f37e42a25ec9cbe0b5ee09c94c3d02e98734eea797ba5fdb8c08e8c46b926040928268ffffffffffffffff006009549260081b169160018060481b031916171760095582519182526020820152a16102bf604051610b4460408261188b565b601281527118d957dd195c9b57db1a5b5a5d1cd7dcd95d60721b6020820152611b48565b60405162461bcd60e51b815260206004820152601660248201527510d14e8818dbdbdb191bdddb881d1bdbc81cda1bdc9d60521b6044820152606490fd5b60405162461bcd60e51b815260206004820152601560248201527443453a20696e76616c6964206d6178207465726d7360581b6044820152606490fd5b50600a811115610ad2565b503461035e57602036600319011261035e576020906001600160401b03906040906001600160a01b03610c1f6117ac565b16815260088452205416604051908152f35b503461035e57602036600319011261035e576004359060065482101561035e576020610c5c8361182c565b905460405160039290921b1c6001600160a01b03168152f35b503461035e578060031936011261035e5760206001600160401b03600a5416604051908152f35b503461035e57608036600319011261035e57610cb66117ac565b6024356001600160a01b0381169190829003610ddf576044356001600160a01b0381169081900361035c576064356001600160a01b0381169290839003610ddb57610cff611bcb565b6001600160a01b03169283158015610dd3575b8015610dcb575b610dbc5784546001600160a01b0319908116851786556001805482168317905560028054821684179055600380549091168417905560408051948552602085019190915283015260608201527f2ad69807131f242e4c6b9e21338b8d7d7d5f32ab1dfaa1eddfa881c305c8f5e790608090a16102bf604051610d9c60408261188b565b600e81526d18d957db5bd91d5b195cd7dcd95d60921b6020820152611b48565b636b9c6bd960e11b8552600485fd5b508115610d19565b508015610d12565b8480fd5b8280fd5b503461035e578060031936011261035e57602061ffff60095460501c16604051908152f35b503461035e57602036600319011261035e5760209060ff906040906001600160a01b03610e336117ac565b168152600584522054166040519015158152f35b503461035e57610e56366117c2565b610e5e611bcb565b825b818110610e9557836102bf604051610e7960408261188b565b600a8152690c6cabee4cacce4cae6d60b31b6020820152611b48565b80610ea661071b6001938587611959565b828060a01b03811690818752600560205260ff60408820541680610ef5575b610ed2575b505001610e60565b610eee91875260056020526040872060ff198154169055611bed565b5f80610eca565b50610eff8161199d565b15610ec5565b503461035e57602036600319011261035e576020610f2460043561192c565b6040516001600160a01b039091168152f35b503461035e578060031936011261035e576002546040516001600160a01b039091168152602090f35b503461035e578060031936011261035e57602060ff60095460481c16604051908152f35b503461035e578060031936011261035e5760405160068054808352908352909160208301915f516020611cb35f395f51905f52915b818110610fdf57610fdb85610fcf8187038261188b565b6040519182918261176a565b0390f35b82546001600160a01b0316845260209093019260019283019201610fb8565b503461035e578060031936011261035e576003546040516001600160a01b039091168152602090f35b503461035e578060031936011261035e5760206001600160401b0360095460601c16604051908152f35b50346111e65760403660031901126111e65761106b6117ac565b6024356001600160401b0381116111e657366023820112156111e6578060040135916001600160401b0383116111e65736602484840101116111e6576110af611bcb565b6001600160a01b0381165f8181526005602052604090205490919060ff16156111ea576110ef90825f52600560205260405f2060ff198154169055611bed565b5f81815260086020526040812080546001600160401b031916426001600160401b031617905581905f516020611c935f395f51905f529080a261115c60405161113960408261188b565b601181527018d957db595b58995c97dc995b5bdd9959607a1b6020820152611b48565b6003546001600160a01b031680611171578480f35b803b156111e6575f928360846024948760405198899788968794633ddd61ab60e21b8652600486015260608286015282606486015201848401378181018301849052336044830152601f01601f191681010301925af16111d3575b8080808480f35b6111df91505f9061188b565b5f5f6111cc565b5f80fd5b60405162461bcd60e51b815260206004820152601660248201527521a29d103737ba1031b7bab731b4b61036b2b6b132b960511b6044820152606490fd5b346111e6575f3660031901126111e6575f546040516001600160a01b039091168152602090f35b346111e65760203660031901126111e6576112686117ac565b600254604051630709df4560e01b81526001600160a01b0383811660048301819052939260209183916024918391165afa908115611380575f9161138b575b50600154604051630d47875d60e41b815260048101949094526001600160a01b039182161515929160209185916024918391165afa9081156113805760a0935f9261134f575b5061130161ffff60095460501c1691611a82565b91838061133f575b84611335575b9061ffff9160405195151586526020860152166040840152606083015215156080820152f35b929350839261130f565b93508161ffff8216101593611309565b61137291925060203d602011611379575b61136a818361188b565b810190611912565b90846112ed565b503d611360565b6040513d5f823e3d90fd5b6113ad915060203d6020116113b3575b6113a5818361188b565b8101906118f3565b836112a7565b503d61139b565b346111e6575f3660031901126111e6576001546040516001600160a01b039091168152602090f35b346111e6575f3660031901126111e6576020600654604051908152f35b346111e6575f3660031901126111e6576114183361199d565b156114fa57335f52600460205260405f20600160ff19825416179055335f52600c60205260ff60405f2054161561149f575b337fa0ac4f59dabb0ddc4b8b883adda9e055e02c796b2cde2ed80fdb11a38f77e5c95f80a261149d60405161148060408261188b565b600b81526a31b2afb932b3b4b9ba32b960a91b6020820152611b48565b005b600b54600160401b8110156114e6576114c38160016114ca9301600b55600b611844565b33916118d0565b335f52600c60205260405f20600160ff1982541617905561144a565b634e487b7160e01b5f52604160045260245ffd5b630a136cef60e01b5f5260045ffd5b346111e6575f3660031901126111e6575f5f6006549060ff60095460481c16926001600160401b03600a54164281115f14611606576201518061154c42836118c3565b04905b600b545f5b81811061158157505060c095604051958652602086015260408501526060840152608083015260a0820152f35b61158a81611814565b905460039190911b1c6001600160a01b03165f8181526004602052604090205460ff166115bb575b50600101611554565b946115c590611869565b946115cf8161199d565b90816115f6575b506115e2575b886115b2565b946115ee600191611869565b9590506115dc565b6116009150611a82565b896115d6565b5f9061154f565b346111e6575f3660031901126111e6575f5f600b54905b8181106116fc5750611635826118ac565b91611643604051938461188b565b808352611652601f19916118ac565b013660208401375f5f5b8281106116715760405180610fdb868261176a565b61167a81611814565b60018060a01b0391549060031b1c165f52600460205260ff60405f2054166116a5575b60010161165c565b906116af82611814565b905460039190911b1c6001600160a01b0316916116cb82611869565b9285518310156116e857602060019360051b87010152905061169d565b634e487b7160e01b5f52603260045260245ffd5b61170581611814565b60018060a01b0391549060031b1c165f52600460205260ff60405f205416611730575b600101611624565b9161173c600191611869565b929050611728565b346111e6575f3660031901126111e6576020906001600160401b0360095460081c168152f35b60206040818301928281528451809452019201905f5b81811061178d5750505090565b82516001600160a01b0316845260209384019390920191600101611780565b600435906001600160a01b03821682036111e657565b9060206003198301126111e6576004356001600160401b0381116111e657826023820112156111e6578060040135926001600160401b0384116111e65760248460051b830101116111e6576024019190565b600b548110156116e857600b5f5260205f2001905f90565b6006548110156116e85760065f5260205f2001905f90565b80548210156116e8575f5260205f2001905f90565b6004359060ff821682036111e657565b5f1981146118775760010190565b634e487b7160e01b5f52601160045260245ffd5b90601f801991011681019081106001600160401b038211176114e657604052565b6001600160401b0381116114e65760051b60200190565b9190820391821161187757565b80546001600160a01b0360039390931b83811b199091169290931690921b179055565b908160209103126111e657516001600160a01b03811681036111e65790565b908160209103126111e6575161ffff811681036111e65790565b6006548110156119545761193f9061182c565b905460039190911b1c6001600160a01b031690565b505f90565b91908110156116e85760051b0190565b356001600160a01b03811681036111e65790565b906001600160401b03809116911601906001600160401b03821161187757565b6001600160a01b0316801561195457600254604051630709df4560e01b81526004810183905290602090829060249082906001600160a01b03165afa908115611380575f91611a63575b506001600160a01b03161561195457600154604051630d47875d60e41b81526004810192909252602090829060249082906001600160a01b03165afa908115611380575f91611a44575b5061ffff8060095460501c169116101590565b611a5d915060203d6020116113795761136a818361188b565b5f611a31565b611a7c915060203d6020116113b3576113a5818361188b565b5f6119e7565b6001600160a01b03165f8181526007602052604090205460ff1615611ad157805f52600560205260ff60405f20541680611b2a575b61195457805f52600560205260ff60405f20541615611ad7575b50600190565b805f52600760205260ff60405f205416906009549160ff83161115611afc5750611ad1565b6001600160401b0391611b23915f526008602052828060405f2054169160081c169061197d565b1642101590565b50805f52600760205260ff60405f20541660ff600954161115611ab7565b6003546001600160a01b031680611b5d575050565b803b156111e65760205f9160849383604051958680958194633ddd61ab60e21b8352306004840152606060248401528051918291826064860152018484015e8181018301849052336044830152601f01601f191681010301925af1611bbf5750565b5f611bc99161188b565b565b5f546001600160a01b03163303611bde57565b63bdaa6e1360e01b5f5260045ffd5b6006545f5b818110611bfe57505050565b611c078161182c565b905460039190911b1c6001600160a01b0390811690841614611c2b57600101611bf2565b5f198201925090821161187757610568611c47611c5f9361182c565b905460039190911b1c6001600160a01b03169161182c565b6006548015611c7e575f1901611c79610588826006611844565b600655565b634e487b7160e01b5f52603160045260245ffdfe3cdadb93586528af5dca44184ba3e5366cd7b3e36d66e4daa3f9b184d56611c6f652222313e28459528d920b65115c16c04f3efc82aaedc97be59f3f377c0d3fa264697066735822122075996b1fab5a7a4e9f958f44e8ee5063edfd3bb9019ba3b6bce8ff827644f2a664736f6c634300081e0033","linkReferences":{}},"methodIdentifiers":{"canRegister(address)":"320d46d4","canServeNextTerm(address)":"fa255dec","consecutiveTermsServed(address)":"edb04b9f","cooldownPeriod()":"04646a49","councilSize()":"6c79b495","currentCouncil(uint256)":"c47a9dc7","dao()":"4162169f","getActualCouncilSize()":"2b553e90","getCandidates()":"06a49fce","getCouncilMember(uint256)":"6f78f548","getCouncilMembers()":"606a6b76","getElectionStatus()":"122902a6","isCandidate(address)":"d51b9e93","isCouncil(address)":"9aa360ec","lastTermEndDate(address)":"d124b06f","ledger()":"56397c35","maxConsecutiveTerms()":"f7a67dec","minCouncilScore()":"a1fb43b4","refreshCouncil(address[])":"7fcab09c","refreshInterval()":"dcfebe51","register()":"1aa3a008","removeCouncilMember(address,string)":"42a3fda0","seer()":"2d55ea39","setCouncil(address[])":"de73d24d","setModules(address,address,address,address)":"b079fbff","setParams(uint8,uint16,uint64,uint64)":"fc7a9f88","setTermLimits(uint8,uint64)":"d2ff0d30","termEnd()":"c3e730c4","termSeconds()":"48f1cd7b","unregister()":"e79a198f","vaultHub()":"6dd6e80b"},"id":3}