{"abi":[{"type":"function","name":"globalRisk","inputs":[],"outputs":[{"name":"","type":"bool","internalType":"bool"}],"stateMutability":"view"},{"type":"function","name":"isQuarantined","inputs":[{"name":"vault","type":"address","internalType":"address"}],"outputs":[{"name":"","type":"bool","internalType":"bool"}],"stateMutability":"view"},{"type":"function","name":"setGlobalRisk","inputs":[{"name":"r","type":"bool","internalType":"bool"}],"outputs":[],"stateMutability":"nonpayable"},{"type":"function","name":"setQuarantined","inputs":[{"name":"vault","type":"address","internalType":"address"},{"name":"q","type":"bool","internalType":"bool"}],"outputs":[],"stateMutability":"nonpayable"}],"bytecode":{"object":"0x6080806040523460155761016c908161001a8239f35b5f80fdfe6080806040526004361015610012575f80fd5b5f3560e01c908163485d6ef8146100e857508063498977ee146100b85780636b943da514610096576381c0bfc614610048575f80fd5b3461009257604036600319011261009257610061610120565b602435908115158092036100925760018060a01b03165f525f60205260405f209060ff801983541691161790555f80f35b5f80fd5b34610092575f36600319011261009257602060ff600154166040519015158152f35b34610092576020366003190112610092576004358015158091036100925760ff8019600154169116176001555f80f35b34610092576020366003190112610092576020906001600160a01b0361010c610120565b165f525f825260ff60405f20541615158152f35b600435906001600160a01b03821682036100925756fea26469706673582212204ab402d462eff6523679b9ea08b44d3b51eb78ff26f0b34d57ca60d9bb9f201864736f6c634300081e0033","linkReferences":{}},"methodIdentifiers":{"globalRisk()":"6b943da5","isQuarantined(address)":"485d6ef8","setGlobalRisk(bool)":"498977ee","setQuarantined(address,bool)":"81c0bfc6"},"id":80}