{
  "_format": "hh-sol-artifact-1",
  "contractName": "SystemHandover",
  "sourceName": "contracts/SystemHandover.sol",
  "abi": [
    {
      "inputs": [
        {
          "internalType": "address",
          "name": "proof_",
          "type": "address"
        },
        {
          "internalType": "uint16",
          "name": "minDAOScore_",
          "type": "uint16"
        }
      ],
      "stateMutability": "nonpayable",
      "type": "constructor"
    },
    {
      "inputs": [],
      "name": "AlreadyExecuted",
      "type": "error"
    },
    {
      "inputs": [],
      "name": "AlreadyFinalized",
      "type": "error"
    },
    {
      "inputs": [],
      "name": "AlreadyTarget",
      "type": "error"
    },
    {
      "inputs": [
        {
          "internalType": "uint16",
          "name": "have",
          "type": "uint16"
        },
        {
          "internalType": "uint16",
          "name": "need",
          "type": "uint16"
        }
      ],
      "name": "LowProofScore",
      "type": "error"
    },
    {
      "inputs": [],
      "name": "NotFinalized",
      "type": "error"
    },
    {
      "inputs": [],
      "name": "NotTarget",
      "type": "error"
    },
    {
      "inputs": [],
      "name": "Sealed",
      "type": "error"
    },
    {
      "inputs": [],
      "name": "TooSoon",
      "type": "error"
    },
    {
      "inputs": [],
      "name": "ZeroAddress",
      "type": "error"
    },
    {
      "anonymous": false,
      "inputs": [
        {
          "indexed": true,
          "internalType": "address",
          "name": "daoExecutor",
          "type": "address"
        },
        {
          "indexed": true,
          "internalType": "address",
          "name": "daoOperator",
          "type": "address"
        },
        {
          "indexed": false,
          "internalType": "bytes32",
          "name": "electionHash",
          "type": "bytes32"
        }
      ],
      "name": "ElectionFinalized",
      "type": "event"
    },
    {
      "anonymous": false,
      "inputs": [
        {
          "indexed": true,
          "internalType": "address",
          "name": "daoExecutor",
          "type": "address"
        },
        {
          "indexed": false,
          "internalType": "uint256",
          "name": "count",
          "type": "uint256"
        }
      ],
      "name": "HandoverExecuted",
      "type": "event"
    },
    {
      "anonymous": false,
      "inputs": [
        {
          "indexed": false,
          "internalType": "uint16",
          "name": "minScore",
          "type": "uint16"
        }
      ],
      "name": "MinDAOScoreSet",
      "type": "event"
    },
    {
      "anonymous": false,
      "inputs": [
        {
          "indexed": true,
          "internalType": "address",
          "name": "previousOwner",
          "type": "address"
        },
        {
          "indexed": true,
          "internalType": "address",
          "name": "newOwner",
          "type": "address"
        }
      ],
      "name": "OwnershipTransferStarted",
      "type": "event"
    },
    {
      "anonymous": false,
      "inputs": [
        {
          "indexed": true,
          "internalType": "address",
          "name": "previousOwner",
          "type": "address"
        },
        {
          "indexed": true,
          "internalType": "address",
          "name": "newOwner",
          "type": "address"
        }
      ],
      "name": "OwnershipTransferred",
      "type": "event"
    },
    {
      "anonymous": false,
      "inputs": [
        {
          "indexed": true,
          "internalType": "address",
          "name": "target",
          "type": "address"
        }
      ],
      "name": "TargetAdded",
      "type": "event"
    },
    {
      "anonymous": false,
      "inputs": [
        {
          "indexed": true,
          "internalType": "address",
          "name": "target",
          "type": "address"
        }
      ],
      "name": "TargetRemoved",
      "type": "event"
    },
    {
      "anonymous": false,
      "inputs": [
        {
          "indexed": false,
          "internalType": "uint256",
          "name": "count",
          "type": "uint256"
        }
      ],
      "name": "TargetsSealed",
      "type": "event"
    },
    {
      "inputs": [],
      "name": "HANDOVER_DELAY",
      "outputs": [
        {
          "internalType": "uint256",
          "name": "",
          "type": "uint256"
        }
      ],
      "stateMutability": "view",
      "type": "function"
    },
    {
      "inputs": [],
      "name": "acceptOwnership",
      "outputs": [],
      "stateMutability": "nonpayable",
      "type": "function"
    },
    {
      "inputs": [
        {
          "internalType": "address",
          "name": "target",
          "type": "address"
        }
      ],
      "name": "addTarget",
      "outputs": [],
      "stateMutability": "nonpayable",
      "type": "function"
    },
    {
      "inputs": [],
      "name": "daoExecutor",
      "outputs": [
        {
          "internalType": "address",
          "name": "",
          "type": "address"
        }
      ],
      "stateMutability": "view",
      "type": "function"
    },
    {
      "inputs": [],
      "name": "daoOperator",
      "outputs": [
        {
          "internalType": "address",
          "name": "",
          "type": "address"
        }
      ],
      "stateMutability": "view",
      "type": "function"
    },
    {
      "inputs": [],
      "name": "electionFinalized",
      "outputs": [
        {
          "internalType": "bool",
          "name": "",
          "type": "bool"
        }
      ],
      "stateMutability": "view",
      "type": "function"
    },
    {
      "inputs": [],
      "name": "electionHash",
      "outputs": [
        {
          "internalType": "bytes32",
          "name": "",
          "type": "bytes32"
        }
      ],
      "stateMutability": "view",
      "type": "function"
    },
    {
      "inputs": [],
      "name": "executeHandover",
      "outputs": [],
      "stateMutability": "nonpayable",
      "type": "function"
    },
    {
      "inputs": [
        {
          "internalType": "address",
          "name": "daoExecutor_",
          "type": "address"
        },
        {
          "internalType": "address",
          "name": "daoOperator_",
          "type": "address"
        },
        {
          "internalType": "bytes32",
          "name": "electionHash_",
          "type": "bytes32"
        }
      ],
      "name": "finalizeElection",
      "outputs": [],
      "stateMutability": "nonpayable",
      "type": "function"
    },
    {
      "inputs": [],
      "name": "handoverExecuted",
      "outputs": [
        {
          "internalType": "bool",
          "name": "",
          "type": "bool"
        }
      ],
      "stateMutability": "view",
      "type": "function"
    },
    {
      "inputs": [],
      "name": "handoverReadyAt",
      "outputs": [
        {
          "internalType": "uint64",
          "name": "",
          "type": "uint64"
        }
      ],
      "stateMutability": "view",
      "type": "function"
    },
    {
      "inputs": [],
      "name": "isHandoverReady",
      "outputs": [
        {
          "internalType": "bool",
          "name": "",
          "type": "bool"
        }
      ],
      "stateMutability": "view",
      "type": "function"
    },
    {
      "inputs": [
        {
          "internalType": "address",
          "name": "",
          "type": "address"
        }
      ],
      "name": "isTarget",
      "outputs": [
        {
          "internalType": "bool",
          "name": "",
          "type": "bool"
        }
      ],
      "stateMutability": "view",
      "type": "function"
    },
    {
      "inputs": [],
      "name": "minDAOScore",
      "outputs": [
        {
          "internalType": "uint16",
          "name": "",
          "type": "uint16"
        }
      ],
      "stateMutability": "view",
      "type": "function"
    },
    {
      "inputs": [],
      "name": "owner",
      "outputs": [
        {
          "internalType": "address",
          "name": "",
          "type": "address"
        }
      ],
      "stateMutability": "view",
      "type": "function"
    },
    {
      "inputs": [],
      "name": "pendingOwner",
      "outputs": [
        {
          "internalType": "address",
          "name": "",
          "type": "address"
        }
      ],
      "stateMutability": "view",
      "type": "function"
    },
    {
      "inputs": [],
      "name": "proof",
      "outputs": [
        {
          "internalType": "contract IProofLedger",
          "name": "",
          "type": "address"
        }
      ],
      "stateMutability": "view",
      "type": "function"
    },
    {
      "inputs": [
        {
          "internalType": "address",
          "name": "target",
          "type": "address"
        }
      ],
      "name": "removeTarget",
      "outputs": [],
      "stateMutability": "nonpayable",
      "type": "function"
    },
    {
      "inputs": [],
      "name": "renounceOwnership",
      "outputs": [],
      "stateMutability": "nonpayable",
      "type": "function"
    },
    {
      "inputs": [
        {
          "internalType": "uint16",
          "name": "minDAOScore_",
          "type": "uint16"
        }
      ],
      "name": "setMinDAOScore",
      "outputs": [],
      "stateMutability": "nonpayable",
      "type": "function"
    },
    {
      "inputs": [],
      "name": "startTs",
      "outputs": [
        {
          "internalType": "uint64",
          "name": "",
          "type": "uint64"
        }
      ],
      "stateMutability": "view",
      "type": "function"
    },
    {
      "inputs": [],
      "name": "targets",
      "outputs": [
        {
          "internalType": "address[]",
          "name": "",
          "type": "address[]"
        }
      ],
      "stateMutability": "view",
      "type": "function"
    },
    {
      "inputs": [
        {
          "internalType": "address",
          "name": "newOwner",
          "type": "address"
        }
      ],
      "name": "transferOwnership",
      "outputs": [],
      "stateMutability": "nonpayable",
      "type": "function"
    }
  ],
  "bytecode": "0x60c03461014d57601f610fcd38819003918201601f19168301916001600160401b0383118484101761015257808492604094855283398101031261014d5780516001600160a01b038116919082900361014d57602001519061ffff821680920361014d57600180546001600160a01b031990811690915560008054339281168317825560405192916001600160a01b03909116907f8be0079c531659141344cd1fd0a4f28419497f9722a3daafe3b4186f6b6457e09080a36001600255811561013c577f08e04ff0243d8a40442127bb7fded1a2f8f7421a57a1e2579141d6256f9f38b69260209260805260018060401b03421660a0528061ffff1960035416176003558152a1604051610e649081610169823960805181818161015c015281816102c90152610d6c015260a051818181610c2e0152610cc60152f35b63d92e233d60e01b60005260046000fd5b600080fd5b634e487b7160e01b600052604160045260246000fdfe608080604052600436101561001357600080fd5b60003560e01c90816325677e4f14610c0f5750806326d60fb414610b43578063314d41cc14610ad7578063406194c514610aaa5780636de45dee146109c9578063715018a61461096457806379ba5097146108995780638c9bc208146108705780638da5cb5b14610847578063902e6a261461081a578063a4df4c83146107fc578063aa642274146107bd578063adcf4fb31461079f578063d5d7ff3c14610618578063d7cd2f00146105f6578063db14d302146104c9578063de2c95bc146104a6578063e107d9b71461024e578063e30c397814610225578063ed8b626c146101ff578063f2fde38b1461018b578063faf924cf146101465763fd2399d51461011c57600080fd5b34610141576000366003190112610141576020610137610d1a565b6040519015158152f35b600080fd5b34610141576000366003190112610141576040517f00000000000000000000000000000000000000000000000000000000000000006001600160a01b03168152602090f35b34610141576020366003190112610141576101a4610c52565b6101ac610dd6565b60018060a01b0316806bffffffffffffffffffffffff60a01b600154161760015560018060a01b03600054167f38d16b8cac22d99fc7c124b9cd0de2d3fa1faef420bfe791d8c362d765e22700600080a3005b3461014157600036600319011261014157602060ff60065460081c166040519015158152f35b34610141576000366003190112610141576001546040516001600160a01b039091168152602090f35b34610141576000366003190112610141576002805414610461576002805560065460ff8160081c166104505760ff161561043f5767ffffffffffffffff610293610cbb565b16421061042e576004805460405163099d7a2b60e11b81526001600160a01b0391821692810192909252602090829060249082907f0000000000000000000000000000000000000000000000000000000000000000165afa90811561038b576000916103ff575b5061ffff806003541691168181106103e85760005b6007548110156103975761032281610c8a565b90546003805492901b1c6001600160a01b03908116929160101c16823b156101415760009260248492604051958693849263f2fde38b60e01b845260048401525af191821561038b5760019261037a575b500161030f565b600061038591610c68565b82610373565b6040513d6000823e3d90fd5b61010061ff0019600654161760065560018060a01b0360035460101c167fdf1b5f01d715e60d7dfe928d67b3980524def01e181715cf3dc4eaeaf3b5f33a6020600754604051908152a26001600255005b6392acf22560e01b60005260045260245260446000fd5b610421915060203d602011610427575b6104198183610c68565b810190610d00565b816102fa565b503d61040f565b636fed7d8560e01b60005260046000fd5b630df706ad60e11b60005260046000fd5b630dc1019760e01b60005260046000fd5b60405162461bcd60e51b815260206004820152601f60248201527f5265656e7472616e637947756172643a207265656e7472616e742063616c6c006044820152606490fd5b3461014157600036600319011261014157602060ff600654166040519015158152f35b34610141576060366003190112610141576104e2610c52565b6024356001600160a01b03811691908290036101415760443590610504610dd6565b60065460ff81166105e5576001600160a01b03821692831580156105dd575b6105cc576003805462010000600160b01b03191660109490941b62010000600160b01b031693909317909255600480546001600160a01b03191685179055600582905560ff19166001176006556007546040519081527f20f1f6c76c857f0eb930a6b23fd045d6e260cac890149a26414840cc806355d9916020917f073ed00fdea19bb416f7b2a799d8988a281c4c30731a187378caefdbdedc65d1908390a1604051908152a3005b63d92e233d60e01b60005260046000fd5b508415610523565b631b2d71eb60e01b60005260046000fd5b3461014157600036600319011261014157602061ffff60035416604051908152f35b3461014157602036600319011261014157610631610c52565b610639610dd6565b60ff600654166105e5576001600160a01b031660008181526008602052604090205460ff161561078e57806000526008602052604060002060ff19815416905560075460005b8181106106af575b827fe553c8d5c5394d64d3220f3548c51ee149f9d77f3052d1e18ce62f0926a16080600080a2005b826106b982610c8a565b905460039190911b1c6001600160a01b0316146106d85760010161067f565b60001982019182116107785761070b6106f361072f93610c8a565b905460039190911b1c6001600160a01b031691610c8a565b81546001600160a01b0393841660039290921b91821b9390911b1916919091179055565b6007548015610762576000190161074581610c8a565b81549060018060a01b039060031b1b191690556007558180610687565b634e487b7160e01b600052603160045260246000fd5b634e487b7160e01b600052601160045260246000fd5b6332f602d160e11b60005260046000fd5b3461014157600036600319011261014157602060405162ed4e008152f35b34610141576020366003190112610141576001600160a01b036107de610c52565b166000526008602052602060ff604060002054166040519015158152f35b34610141576000366003190112610141576020600554604051908152f35b34610141576000366003190112610141576020610835610cbb565b67ffffffffffffffff60405191168152f35b34610141576000366003190112610141576000546040516001600160a01b039091168152602090f35b34610141576000366003190112610141576004546040516001600160a01b039091168152602090f35b3461014157600036600319011261014157600154336001600160a01b039091160361090d57600180546001600160a01b03199081169091556000805433928116831782556001600160a01b0316907f8be0079c531659141344cd1fd0a4f28419497f9722a3daafe3b4186f6b6457e09080a3005b60405162461bcd60e51b815260206004820152602960248201527f4f776e61626c6532537465703a2063616c6c6572206973206e6f7420746865206044820152683732bb9037bbb732b960b91b6064820152608490fd5b346101415760003660031901126101415761097d610dd6565b600180546001600160a01b0319908116909155600080549182168155906001600160a01b03167f8be0079c531659141344cd1fd0a4f28419497f9722a3daafe3b4186f6b6457e08280a3005b34610141576020366003190112610141576109e2610c52565b6109ea610dd6565b60ff600654166105e5576001600160a01b0381169081156105cc5781600052600860205260ff60406000205416610a99578160005260086020526040600020600160ff198254161790556007549068010000000000000000821015610a835761070b826001610a5c9401600755610c8a565b7f2124916666eafb28928bfe4bad7d911dc792fa4c41427d6b7e28112e992e5a1a600080a2005b634e487b7160e01b600052604160045260246000fd5b63d613bf1760e01b60005260046000fd5b346101415760003660031901126101415760035460405160109190911c6001600160a01b03168152602090f35b346101415760203660031901126101415760043561ffff811680910361014157610aff610dd6565b60ff600654166105e5576020817f08e04ff0243d8a40442127bb7fded1a2f8f7421a57a1e2579141d6256f9f38b69261ffff196003541617600355604051908152a1005b34610141576000366003190112610141576040518060206007549283815201809260076000527fa66cc928b5edb82af9bd49922954155ab7b0942694bea4ce44661d9a8736c6889060005b818110610bf05750505081610ba4910382610c68565b6040519182916020830190602084525180915260408301919060005b818110610bce575050500390f35b82516001600160a01b0316845285945060209384019390920191600101610bc0565b82546001600160a01b0316845260209093019260019283019201610b8e565b346101415760003660031901126101415760209067ffffffffffffffff7f0000000000000000000000000000000000000000000000000000000000000000168152f35b600435906001600160a01b038216820361014157565b90601f8019910116810190811067ffffffffffffffff821117610a8357604052565b600754811015610ca557600760005260206000200190600090565b634e487b7160e01b600052603260045260246000fd5b67ffffffffffffffff7f00000000000000000000000000000000000000000000000000000000000000001662ed4e0081018091116107785767ffffffffffffffff1690565b90816020910312610141575161ffff811681036101415790565b60ff6006541615610db25767ffffffffffffffff610d36610cbb565b164210610db2576004805460405163099d7a2b60e11b81526001600160a01b0391821692810192909252602090829060249082907f0000000000000000000000000000000000000000000000000000000000000000165afa90811561038b57600091610db7575b5061ffff8060035416911610610db257600190565b600090565b610dd0915060203d602011610427576104198183610c68565b38610d9d565b6000546001600160a01b03163303610dea57565b606460405162461bcd60e51b815260206004820152602060248201527f4f776e61626c653a2063616c6c6572206973206e6f7420746865206f776e65726044820152fdfea2646970667358221220914c2710ac1f0466b3dbc59eaf7f2a4bcf9feaef89b98438f1085ff4e03b974464736f6c634300081e0033",
  "linkReferences": {},
  "deployedLinkReferences": {}
}