{
  "_format": "hh-sol-artifact-1",
  "contractName": "SystemHandover",
  "sourceName": "contracts/SystemHandover.sol",
  "abi": [
    {
      "inputs": [
        {
          "internalType": "address",
          "name": "_dev",
          "type": "address"
        },
        {
          "internalType": "address",
          "name": "_dao",
          "type": "address"
        },
        {
          "internalType": "address",
          "name": "_timelock",
          "type": "address"
        },
        {
          "internalType": "address",
          "name": "_seer",
          "type": "address"
        },
        {
          "internalType": "address",
          "name": "_ledger",
          "type": "address"
        }
      ],
      "stateMutability": "nonpayable",
      "type": "constructor"
    },
    {
      "inputs": [],
      "name": "SH_NotDev",
      "type": "error"
    },
    {
      "inputs": [],
      "name": "SH_TooEarly",
      "type": "error"
    },
    {
      "inputs": [],
      "name": "SH_Zero",
      "type": "error"
    },
    {
      "anonymous": false,
      "inputs": [
        {
          "indexed": false,
          "internalType": "uint64",
          "name": "start",
          "type": "uint64"
        },
        {
          "indexed": false,
          "internalType": "uint64",
          "name": "handoverAt",
          "type": "uint64"
        }
      ],
      "name": "Armed",
      "type": "event"
    },
    {
      "anonymous": false,
      "inputs": [
        {
          "indexed": false,
          "internalType": "address",
          "name": "dao",
          "type": "address"
        },
        {
          "indexed": false,
          "internalType": "address",
          "name": "timelock",
          "type": "address"
        },
        {
          "indexed": false,
          "internalType": "address",
          "name": "newAdmin",
          "type": "address"
        },
        {
          "indexed": false,
          "internalType": "uint8",
          "name": "extensionsUsed",
          "type": "uint8"
        }
      ],
      "name": "Executed",
      "type": "event"
    },
    {
      "anonymous": false,
      "inputs": [
        {
          "indexed": false,
          "internalType": "address",
          "name": "ledger",
          "type": "address"
        }
      ],
      "name": "LedgerSet",
      "type": "event"
    },
    {
      "anonymous": false,
      "inputs": [
        {
          "indexed": false,
          "internalType": "uint64",
          "name": "monthsDelay",
          "type": "uint64"
        },
        {
          "indexed": false,
          "internalType": "uint16",
          "name": "minAvgCouncilScore",
          "type": "uint16"
        },
        {
          "indexed": false,
          "internalType": "uint8",
          "name": "maxExtensions",
          "type": "uint8"
        },
        {
          "indexed": false,
          "internalType": "uint64",
          "name": "extensionSpan",
          "type": "uint64"
        }
      ],
      "name": "ParamsSet",
      "type": "event"
    },
    {
      "inputs": [
        {
          "internalType": "address",
          "name": "presale",
          "type": "address"
        }
      ],
      "name": "armFromPresale",
      "outputs": [],
      "stateMutability": "nonpayable",
      "type": "function"
    },
    {
      "inputs": [],
      "name": "dao",
      "outputs": [
        {
          "internalType": "contract IDAO_SH",
          "name": "",
          "type": "address"
        }
      ],
      "stateMutability": "view",
      "type": "function"
    },
    {
      "inputs": [],
      "name": "devMultisig",
      "outputs": [
        {
          "internalType": "address",
          "name": "",
          "type": "address"
        }
      ],
      "stateMutability": "view",
      "type": "function"
    },
    {
      "inputs": [
        {
          "internalType": "address",
          "name": "newAdmin",
          "type": "address"
        }
      ],
      "name": "executeHandover",
      "outputs": [],
      "stateMutability": "nonpayable",
      "type": "function"
    },
    {
      "inputs": [
        {
          "internalType": "uint16",
          "name": "networkAvgScore",
          "type": "uint16"
        }
      ],
      "name": "extendOnceIfNeeded",
      "outputs": [],
      "stateMutability": "nonpayable",
      "type": "function"
    },
    {
      "inputs": [],
      "name": "extensionSpan",
      "outputs": [
        {
          "internalType": "uint64",
          "name": "",
          "type": "uint64"
        }
      ],
      "stateMutability": "view",
      "type": "function"
    },
    {
      "inputs": [],
      "name": "extensionsUsed",
      "outputs": [
        {
          "internalType": "uint8",
          "name": "",
          "type": "uint8"
        }
      ],
      "stateMutability": "view",
      "type": "function"
    },
    {
      "inputs": [],
      "name": "handoverAt",
      "outputs": [
        {
          "internalType": "uint64",
          "name": "",
          "type": "uint64"
        }
      ],
      "stateMutability": "view",
      "type": "function"
    },
    {
      "inputs": [],
      "name": "ledger",
      "outputs": [
        {
          "internalType": "contract IProofLedger_SH",
          "name": "",
          "type": "address"
        }
      ],
      "stateMutability": "view",
      "type": "function"
    },
    {
      "inputs": [],
      "name": "maxExtensions",
      "outputs": [
        {
          "internalType": "uint8",
          "name": "",
          "type": "uint8"
        }
      ],
      "stateMutability": "view",
      "type": "function"
    },
    {
      "inputs": [],
      "name": "minAvgCouncilScore",
      "outputs": [
        {
          "internalType": "uint16",
          "name": "",
          "type": "uint16"
        }
      ],
      "stateMutability": "view",
      "type": "function"
    },
    {
      "inputs": [],
      "name": "monthsDelay",
      "outputs": [
        {
          "internalType": "uint64",
          "name": "",
          "type": "uint64"
        }
      ],
      "stateMutability": "view",
      "type": "function"
    },
    {
      "inputs": [],
      "name": "seer",
      "outputs": [
        {
          "internalType": "contract ISeer_SH",
          "name": "",
          "type": "address"
        }
      ],
      "stateMutability": "view",
      "type": "function"
    },
    {
      "inputs": [
        {
          "internalType": "address",
          "name": "_ledger",
          "type": "address"
        }
      ],
      "name": "setLedger",
      "outputs": [],
      "stateMutability": "nonpayable",
      "type": "function"
    },
    {
      "inputs": [
        {
          "internalType": "uint64",
          "name": "_monthsDelay",
          "type": "uint64"
        },
        {
          "internalType": "uint16",
          "name": "_minAvg",
          "type": "uint16"
        },
        {
          "internalType": "uint8",
          "name": "_maxExt",
          "type": "uint8"
        },
        {
          "internalType": "uint64",
          "name": "_extSpan",
          "type": "uint64"
        }
      ],
      "name": "setParams",
      "outputs": [],
      "stateMutability": "nonpayable",
      "type": "function"
    },
    {
      "inputs": [],
      "name": "start",
      "outputs": [
        {
          "internalType": "uint64",
          "name": "",
          "type": "uint64"
        }
      ],
      "stateMutability": "view",
      "type": "function"
    },
    {
      "inputs": [],
      "name": "timelock",
      "outputs": [
        {
          "internalType": "contract IDAOTimelock_SH",
          "name": "",
          "type": "address"
        }
      ],
      "stateMutability": "view",
      "type": "function"
    }
  ],
  "bytecode": "0x6080806040523461023d5760a081610d9b803803809161001f8285610242565b83398101031261023d576100328161027b565b9061003f6020820161027b565b9061004c6040820161027b565b90610065608061005e6060840161027b565b920161027b565b60058054764f1a00000100000000000000ed4e0000000000000000007fffffffff0000000000000000ff00ffff0000000000000000ffffffffffffffff821617909155946001600160a01b0316929091908315801561022c575b801561021b575b801561020a575b6101f957600080546001600160a01b031990811690951790556001805485166001600160a01b0396871617905560028054851691861691909117905560038054841691851691821790556004805490931691909316178155604051634ccf04cf60e01b815291602091839182905afa9081156101ed576000916101a9575b50764f1a00000100000000000000ed4e0000000000000000007fffffffff0000000000000000ff0000000000000000000000ffffffffffffffff90921660809190911b61ffff60801b161717600555604051610b0b90816102908239f35b6020813d6020116101e5575b816101c260209383610242565b810103126101e157519061ffff821682036101de57503861014b565b80fd5b5080fd5b3d91506101b5565b6040513d6000823e3d90fd5b63023a8de560e11b60005260046000fd5b506001600160a01b038216156100cd565b506001600160a01b038116156100c6565b506001600160a01b038516156100bf565b600080fd5b601f909101601f19168101906001600160401b0382119082101761026557604052565b634e487b7160e01b600052604160045260246000fd5b51906001600160a01b038216820361023d5756fe608080604052600436101561001357600080fd5b600090813560e01c9081632d55ea39146107ee575080632ef478e8146107c057806330d3ae9c146107965780633246887d146107275780633573fc87146107005780634162169f146106d75780635380f7ed146106b357806353f1bb87146104ec5780635475786d146103c257806356397c35146103995780635d9d56ad146103725780635f255697146101a457806385c6181c1461017a578063983bec1214610155578063be9a65551461012b578063d33219b4146101025763e49dcd67146100dc57600080fd5b346100ff57806003193601126100ff57602060ff60055460981c16604051908152f35b80fd5b50346100ff57806003193601126100ff576002546040516001600160a01b039091168152602090f35b50346100ff57806003193601126100ff5760206001600160401b0360045460a01c16604051908152f35b50346100ff57806003193601126100ff57602061ffff60055460801c16604051908152f35b50346100ff57806003193601126100ff5760206001600160401b0360055460401c16604051908152f35b50346100ff5760203660031901126100ff576004356001600160a01b038116919082810361032d576101d4610ab0565b916001600160401b036005541642106103635715610350575b6001546001600160a01b031691823b1561032d57604051633825b60160e11b81526001600160a01b03909116600482018190529282908290602490829084905af1801561033157610340575b5060025460015491929183916001600160a01b039081169116813b1561033c578291602483926040519485938492633825b60160e11b845260048401525af1801561033157610318575b50600154600254600554604080516001600160a01b03948516815292909316602083015291810184905260989190911c60ff1660608201527f58bdda02f0926659311d39b24ced441c6b55e66159f673e54a4fe5f369d8130a90608090a16103156040516102f2604082610813565b60118152701a185b991bdd995c97d95e1958dd5d1959607a1b6020820152610a0a565b80f35b8161032291610813565b61032d578138610283565b5080fd5b6040513d84823e3d90fd5b8280fd5b8161034a91610813565b38610239565b6001546001600160a01b031691506101ed565b630ba1574d60e31b8252600482fd5b50346100ff57806003193601126100ff57546040516001600160a01b039091168152602090f35b50346100ff57806003193601126100ff576004546040516001600160a01b039091168152602090f35b50346100ff5760203660031901126100ff5760043561ffff811680910361032d576103eb610ab0565b6005549060ff8260901c1660ff8360981c1610156104b95761ffff8260801c1611610414575080f35b6001600160401b0361042d818360a01c1682841661084a565b16600160ff826001600160401b031985161760981c160160ff81116104a55767ffffffffffffffff60ff60981b01199092161760989190911b60ff60981b161760055560408051610315916104829082610813565b60118152701a185b991bdd995c97d95e1d195b991959607a1b6020820152610a0a565b634e487b7160e01b84526011600452602484fd5b60405162461bcd60e51b815260206004820152600b60248201526a1b9bd7d95e1d17db19599d60aa1b6044820152606490fd5b50346100ff5760803660031901126100ff576004356001600160401b03811680820361033c5760243561ffff811681036106af576044359160ff831683036106ab57606435936001600160401b03851685036106a7576276a7009061054f610ab0565b911061069d575b6005805460809390931b61ffff60801b16600160401b60ff60981b01600160e01b031990931660409290921b67ffffffffffffffff60401b16919091179190911760909290921b60ff60901b1682811760a094851b600160a01b600160e01b03169081179283905560045493949093919291901c6001600160401b03169081610669575b857f5b176ab4e1ce28504e20271e02c551e6835b4685129f3f909b1a7155db3a11f660806005546001600160401b0360405191818160401c16835261ffff81851c16602084015260ff8160901c16604084015260a01c166060820152a1610315604051610648604082610813565b600f81526e68616e646f7665725f706172616d7360881b6020820152610a0a565b6001600160401b0391826106819260401c169061084a565b16926001600160401b03191617171760055538808080806105da565b506276a700610556565b8580fd5b8480fd5b8380fd5b50346100ff57806003193601126100ff57602060ff60055460901c16604051908152f35b50346100ff57806003193601126100ff576001546040516001600160a01b039091168152602090f35b50346100ff57806003193601126100ff5760206001600160401b0360055416604051908152f35b50346100ff5760203660031901126100ff576004356001600160a01b0381169081900361032d5760207fbc62e69a31739e36d57d56991ac20e4e507a7edfff9070e6a11df5a37b8b4e6f9161077a610ab0565b600480546001600160a01b03191682179055604051908152a180f35b50346100ff57806003193601126100ff5760206001600160401b0360055460a01c16604051908152f35b50346100ff5760203660031901126100ff576004356001600160a01b038116810361032d5761031590610880565b90503461032d578160031936011261032d576003546001600160a01b03168152602090f35b90601f801991011681019081106001600160401b0382111761083457604052565b634e487b7160e01b600052604160045260246000fd5b906001600160401b03809116911601906001600160401b03821161086a57565b634e487b7160e01b600052601160045260246000fd5b6004546001600160401b038160a01c16610a0657604051635412925960e11b815291602090839060049082906001600160a01b03165afa9182156109fa576000926109c1575b5081156109865767ffffffffffffffff60a01b191660a091821b600160a01b600160e01b03161760048190556005547f63ce59f2bf371751ace7a9661e0ae24de2bb38ba3912224223bc5dd52d732e7692604092901c6001600160401b03908116919061093782851c82168461084a565b1680916001600160401b0319161760055582519182526020820152a1610984604051610964604082610813565b600e81526d1a185b991bdd995c97d85c9b595960921b6020820152610a0a565b565b60405162461bcd60e51b81526020600482015260136024820152721c1c995cd85b19481b9bdd081cdd185c9d1959606a1b6044820152606490fd5b9091506020813d6020116109f2575b816109dd60209383610813565b810103126109ed575190386108c6565b600080fd5b3d91506109d0565b6040513d6000823e3d90fd5b5050565b600454600091906001600160a01b031680610a2457505050565b803b1561033c57908290604051928391633ddd61ab60e21b835230600484015260606024840152805190816064850152845b828110610a9557505083608484838383839684010152336044830152601f801991011681010301925af1610a88575050565b81610a9291610813565b50565b60208183018101516084898401015288965087955001610a56565b6000546001600160a01b03163303610ac457565b630fff504d60e21b60005260046000fdfea26469706673582212209bdb0a2cdb6e33df2872e03582cf71d18bb95d9893fc1e3183ec3863a61094ea64736f6c634300081e0033",
  "linkReferences": {},
  "deployedLinkReferences": {}
}