{"abi":[{"type":"constructor","inputs":[{"name":"_dao","type":"address","internalType":"address"},{"name":"_token","type":"address","internalType":"address"},{"name":"_hub","type":"address","internalType":"address"},{"name":"_merchants","type":"address","internalType":"address"},{"name":"_sec","type":"address","internalType":"address"},{"name":"","type":"address","internalType":"address"}],"stateMutability":"nonpayable"},{"type":"function","name":"dao","inputs":[],"outputs":[{"name":"","type":"address","internalType":"address"}],"stateMutability":"view"},{"type":"function","name":"dispute","inputs":[{"name":"id","type":"uint256","internalType":"uint256"},{"name":"reason","type":"string","internalType":"string"}],"outputs":[],"stateMutability":"nonpayable"},{"type":"function","name":"escrowCount","inputs":[],"outputs":[{"name":"","type":"uint256","internalType":"uint256"}],"stateMutability":"view"},{"type":"function","name":"escrows","inputs":[{"name":"","type":"uint256","internalType":"uint256"}],"outputs":[{"name":"buyerOwner","type":"address","internalType":"address"},{"name":"merchantOwner","type":"address","internalType":"address"},{"name":"buyerVault","type":"address","internalType":"address"},{"name":"sellerVault","type":"address","internalType":"address"},{"name":"amount","type":"uint256","internalType":"uint256"},{"name":"state","type":"uint8","internalType":"enum CommerceEscrow.State"},{"name":"metaHash","type":"bytes32","internalType":"bytes32"}],"stateMutability":"view"},{"type":"function","name":"markFunded","inputs":[{"name":"id","type":"uint256","internalType":"uint256"}],"outputs":[],"stateMutability":"nonpayable"},{"type":"function","name":"merchants","inputs":[],"outputs":[{"name":"","type":"address","internalType":"contract MerchantRegistry"}],"stateMutability":"view"},{"type":"function","name":"open","inputs":[{"name":"merchantOwner","type":"address","internalType":"address"},{"name":"amount","type":"uint256","internalType":"uint256"},{"name":"metaHash","type":"bytes32","internalType":"bytes32"}],"outputs":[{"name":"id","type":"uint256","internalType":"uint256"}],"stateMutability":"nonpayable"},{"type":"function","name":"refund","inputs":[{"name":"id","type":"uint256","internalType":"uint256"}],"outputs":[],"stateMutability":"nonpayable"},{"type":"function","name":"release","inputs":[{"name":"id","type":"uint256","internalType":"uint256"}],"outputs":[],"stateMutability":"nonpayable"},{"type":"function","name":"resolve","inputs":[{"name":"id","type":"uint256","internalType":"uint256"},{"name":"buyerWins","type":"bool","internalType":"bool"}],"outputs":[],"stateMutability":"nonpayable"},{"type":"function","name":"security","inputs":[],"outputs":[{"name":"","type":"address","internalType":"contract ISecurityHub_COM"}],"stateMutability":"view"},{"type":"function","name":"token","inputs":[],"outputs":[{"name":"","type":"address","internalType":"contract IERC20_COM"}],"stateMutability":"view"},{"type":"function","name":"vaultHub","inputs":[],"outputs":[{"name":"","type":"address","internalType":"contract IVaultHub_COM"}],"stateMutability":"view"},{"type":"error","name":"COM_BadAmount","inputs":[]},{"type":"error","name":"COM_BadState","inputs":[]},{"type":"error","name":"COM_Delisted","inputs":[]},{"type":"error","name":"COM_NotAllowed","inputs":[]},{"type":"error","name":"COM_NotBuyer","inputs":[]},{"type":"error","name":"COM_NotDAO","inputs":[]},{"type":"error","name":"COM_NotFunded","inputs":[]},{"type":"error","name":"COM_NotMerchant","inputs":[]},{"type":"error","name":"COM_Suspended","inputs":[]},{"type":"error","name":"COM_Zero","inputs":[]}],"bytecode":{"object":"0x60803461015557601f610e2c38819003918201601f19168301916001600160401b038311848410176101595780849260c094604052833981010312610155576100478161016d565b6100536020830161016d565b61005f6040840161016d565b9061006c6060850161016d565b9261008560a061007e6080880161016d565b960161016d565b506001600160a01b031680158015610144575b8015610133575b8015610122575b610113575f80546001600160a01b03199081169290921790556001805482166001600160a01b0393841617905560028054821693831693909317909255600380548316938216939093179092556004805490911692909116919091179055604051610caa90816101828239f35b63417bf3f760e01b5f5260045ffd5b506001600160a01b038416156100a6565b506001600160a01b0383161561009f565b506001600160a01b03821615610098565b5f80fd5b634e487b7160e01b5f52604160045260245ffd5b51906001600160a01b03821682036101555756fe6080806040526004361015610012575f80fd5b5f905f3560e01c908163012f52ee14610a7457508063278ecde11461092857806337bdc99b146108815780634162169f1461085a57806352a34b0514610772578063548799181461074957806366c85dee14610616578063675ac67a146105f85780636dd6e80b146105cf5780638bcc8801146105a6578063c5666eb2146104a3578063fc0c546a1461047a5763fc6466b1146100ad575f80fd5b34610477576060366003190112610477576004356001600160a01b0381169081900361032757602435801561046857600354604051630aae7a6b60e01b81526004810184905292939060c090849060249082906001600160a01b03165afa92831561045b578193610393575b50604083018051600481101561037057156103845780516004811015610370576002146103615751600481101561034d5760031461033e57600254604051630709df4560e01b815233600482015290602090829060249082906001600160a01b03165afa9081156103335782916102f5575b506001600160a01b03169081156102e6576005545f1981146102d257600101600581905560209094015160405193906001600160a01b031660e0850167ffffffffffffffff8111868210176102be57604090815233865260208087019889528682019586526060870192835260808701938452600160a0880181815260443560c08a019081528a88526006909352928620975188546001600160a01b03199081166001600160a01b03928316178a559a5191890180548c169282169290921790915595516002880180548b1691881691909117905591516003870180549099169516949094179096555160048401559051600583019160078210156102aa57509360069160209560ff8019835416911617905551910155604051908152f35b634e487b7160e01b81526021600452602490fd5b634e487b7160e01b84526041600452602484fd5b634e487b7160e01b82526011600452602482fd5b631f328f5360e31b8152600490fd5b90506020813d60201161032b575b8161031060209383610b08565b810103126103275761032190610b3e565b5f61018b565b5080fd5b3d9150610303565b6040513d84823e3d90fd5b635cbf2ca960e01b8152600490fd5b634e487b7160e01b82526021600452602482fd5b6311f5ae5760e01b8252600482fd5b634e487b7160e01b83526021600452602483fd5b636483e60360e01b8252600482fd5b90925060c0813d60c011610453575b816103af60c09383610b08565b8101031261044f576040519060c0820182811067ffffffffffffffff82111761043b576040526103de81610b3e565b82526103ec60208201610b3e565b60208301526040810151600481101561043757604083015260a09061041360608201610b52565b606084015261042460808201610b52565b6080840152015160a0820152915f610119565b8480fd5b634e487b7160e01b85526041600452602485fd5b8280fd5b3d91506103a2565b50604051903d90823e3d90fd5b63085fb83d60e21b8352600483fd5b80fd5b50346104775780600319360112610477576001546040516001600160a01b039091168152602090f35b5034610477576020366003190112610477576004358152600660205260408120600581019060ff825416600781101561059257600103610583576001546040516370a0823160e01b81523060048201529190602090839060249082906001600160a01b03165afa91821561057857849261053f575b50600401541161053057805460ff1916600217905580f35b633c634ed960e01b8252600482fd5b9091506020813d602011610570575b8161055b60209383610b08565b8101031261056c5751906004610518565b8380fd5b3d915061054e565b6040513d86823e3d90fd5b63e04e563560e01b8352600483fd5b634e487b7160e01b84526021600452602484fd5b50346104775780600319360112610477576003546040516001600160a01b039091168152602090f35b50346104775780600319360112610477576002546040516001600160a01b039091168152602090f35b50346104775780600319360112610477576020600554604051908152f35b50346104775760403660031901126104775760243567ffffffffffffffff8111610327573660238201121561032757806004013567ffffffffffffffff811161044f573691016024011161047757600435815260066020526040812090600582019160ff83541660078110156103705760020361073a5780546001600160a01b031633141580610723575b61071457825460ff191660051790925560035460019290920154909182916001600160a01b039182169116813b156107105782916024839260405194859384926331fbb97d60e11b845260048401525af18015610333576106ff5750f35b8161070991610b08565b6104775780f35b5050fd5b6312a2a7e560e31b8252600482fd5b5060018101546001600160a01b03163314156106a1565b63e04e563560e01b8252600482fd5b50346104775780600319360112610477576004546040516001600160a01b039091168152602090f35b50346104775760403660031901126104775760243580151581036103275781546001600160a01b0316330361084b576004358252600660205260408220906005820160ff81541660078110156108375760050361082857805460ff19166006179055156108025760015460028201546004909201546107ff9290916001600160a01b039182169116610b63565b80f35b60015460038201546004909201546107ff9290916001600160a01b039182169116610b63565b63e04e563560e01b8452600484fd5b634e487b7160e01b85526021600452602485fd5b63064eaf8960e51b8252600482fd5b5034610477578060031936011261047757546040516001600160a01b039091168152602090f35b50346104775760203660031901126104775760043581526006602052604081206005810160ff8154166007811015610592576002036105835781546001600160a01b031633141580610914575b61090557805460ff19166003908117909155600154908201546004909201546107ff9290916001600160a01b039182169116610b63565b6312a2a7e560e31b8352600483fd5b5082546001600160a01b03163314156108ce565b5034610a1e576020366003190112610a1e576004355f52600660205260405f206005810160ff8154166007811015610a605760028114159081610a54575b50610a4557600182019060018060a01b0382541633141580610a31575b610a2257805460ff1916600417905560035490546001600160a01b039182169116813b15610a1e575f91602483926040519485938492630a5a6bc760e41b845260048401525af18015610a13576109fc575b5060015460028201546004909201546107ff9290916001600160a01b039182169116610b63565b610a099192505f90610b08565b5f906107ff6109d5565b6040513d5f823e3d90fd5b5f80fd5b6312a2a7e560e31b5f5260045ffd5b505f546001600160a01b0316331415610983565b63e04e563560e01b5f5260045ffd5b6005915014155f610966565b634e487b7160e01b5f52602160045260245ffd5b34610a1e576020366003190112610a1e576004355f52600660205260405f209060018060a01b0382541660018060a01b0360018401541660018060a01b0360028501541660018060a01b0360038601541690600486015492600660ff60058901541697015494865260208601526040850152606084015260808301526007831015610a605760e09260a083015260c0820152f35b90601f8019910116810190811067ffffffffffffffff821117610b2a57604052565b634e487b7160e01b5f52604160045260245ffd5b51906001600160a01b0382168203610a1e57565b519063ffffffff82168203610a1e57565b5f929183809360405190602082019363a9059cbb60e01b855260018060a01b03166024830152604482015260448152610b9d606482610b08565b51926001600160a01b03165af13d15610c6d573d67ffffffffffffffff8111610b2a5760405190610bd8601f8201601f191660200183610b08565b81523d5f602083013e5b81610c35575b5015610bf057565b60405162461bcd60e51b815260206004820152601a60248201527f5361666545524332303a207472616e73666572206661696c65640000000000006044820152606490fd5b8051801592508215610c4a575b50505f610be8565b8192509060209181010312610a1e57602001518015158103610a1e575f80610c42565b6060610be256fea26469706673582212206efbb6f1978a1d58b22e7a8ad653ef775482027603ccefdb031d3d399594679464736f6c634300081e0033","linkReferences":{}},"methodIdentifiers":{"dao()":"4162169f","dispute(uint256,string)":"66c85dee","escrowCount()":"675ac67a","escrows(uint256)":"012f52ee","markFunded(uint256)":"c5666eb2","merchants()":"8bcc8801","open(address,uint256,bytes32)":"fc6466b1","refund(uint256)":"278ecde1","release(uint256)":"37bdc99b","resolve(uint256,bool)":"52a34b05","security()":"54879918","token()":"fc0c546a","vaultHub()":"6dd6e80b"},"id":16}