{"abi":[{"type":"constructor","inputs":[{"name":"_dao","type":"address","internalType":"address"},{"name":"_token","type":"address","internalType":"address"},{"name":"_hub","type":"address","internalType":"address"},{"name":"_merchants","type":"address","internalType":"address"},{"name":"_sec","type":"address","internalType":"address"},{"name":"","type":"address","internalType":"address"}],"stateMutability":"nonpayable"},{"type":"function","name":"dao","inputs":[],"outputs":[{"name":"","type":"address","internalType":"address"}],"stateMutability":"view"},{"type":"function","name":"dispute","inputs":[{"name":"id","type":"uint256","internalType":"uint256"},{"name":"reason","type":"string","internalType":"string"}],"outputs":[],"stateMutability":"nonpayable"},{"type":"function","name":"escrowCount","inputs":[],"outputs":[{"name":"","type":"uint256","internalType":"uint256"}],"stateMutability":"view"},{"type":"function","name":"escrows","inputs":[{"name":"","type":"uint256","internalType":"uint256"}],"outputs":[{"name":"buyerOwner","type":"address","internalType":"address"},{"name":"merchantOwner","type":"address","internalType":"address"},{"name":"buyerVault","type":"address","internalType":"address"},{"name":"sellerVault","type":"address","internalType":"address"},{"name":"amount","type":"uint256","internalType":"uint256"},{"name":"state","type":"uint8","internalType":"enum CommerceEscrow.State"},{"name":"metaHash","type":"bytes32","internalType":"bytes32"}],"stateMutability":"view"},{"type":"function","name":"markFunded","inputs":[{"name":"id","type":"uint256","internalType":"uint256"}],"outputs":[],"stateMutability":"nonpayable"},{"type":"function","name":"merchants","inputs":[],"outputs":[{"name":"","type":"address","internalType":"contract MerchantRegistry"}],"stateMutability":"view"},{"type":"function","name":"open","inputs":[{"name":"merchantOwner","type":"address","internalType":"address"},{"name":"amount","type":"uint256","internalType":"uint256"},{"name":"metaHash","type":"bytes32","internalType":"bytes32"}],"outputs":[{"name":"id","type":"uint256","internalType":"uint256"}],"stateMutability":"nonpayable"},{"type":"function","name":"refund","inputs":[{"name":"id","type":"uint256","internalType":"uint256"}],"outputs":[],"stateMutability":"nonpayable"},{"type":"function","name":"release","inputs":[{"name":"id","type":"uint256","internalType":"uint256"}],"outputs":[],"stateMutability":"nonpayable"},{"type":"function","name":"resolve","inputs":[{"name":"id","type":"uint256","internalType":"uint256"},{"name":"buyerWins","type":"bool","internalType":"bool"}],"outputs":[],"stateMutability":"nonpayable"},{"type":"function","name":"security","inputs":[],"outputs":[{"name":"","type":"address","internalType":"contract ISecurityHub_COM"}],"stateMutability":"view"},{"type":"function","name":"token","inputs":[],"outputs":[{"name":"","type":"address","internalType":"contract IERC20_COM"}],"stateMutability":"view"},{"type":"function","name":"vaultHub","inputs":[],"outputs":[{"name":"","type":"address","internalType":"contract IVaultHub_COM"}],"stateMutability":"view"},{"type":"error","name":"COM_BadAmount","inputs":[]},{"type":"error","name":"COM_BadState","inputs":[]},{"type":"error","name":"COM_Delisted","inputs":[]},{"type":"error","name":"COM_NotAllowed","inputs":[]},{"type":"error","name":"COM_NotBuyer","inputs":[]},{"type":"error","name":"COM_NotDAO","inputs":[]},{"type":"error","name":"COM_NotFunded","inputs":[]},{"type":"error","name":"COM_NotMerchant","inputs":[]},{"type":"error","name":"COM_Suspended","inputs":[]},{"type":"error","name":"COM_Zero","inputs":[]}],"bytecode":{"object":"0x60803461015557601f610e2338819003918201601f19168301916001600160401b038311848410176101595780849260c094604052833981010312610155576100478161016d565b6100536020830161016d565b61005f6040840161016d565b9061006c6060850161016d565b9261008560a061007e6080880161016d565b960161016d565b506001600160a01b031680158015610144575b8015610133575b8015610122575b610113575f80546001600160a01b03199081169290921790556001805482166001600160a01b0393841617905560028054821693831693909317909255600380548316938216939093179092556004805490911692909116919091179055604051610ca190816101828239f35b63417bf3f760e01b5f5260045ffd5b506001600160a01b038416156100a6565b506001600160a01b0383161561009f565b506001600160a01b03821615610098565b5f80fd5b634e487b7160e01b5f52604160045260245ffd5b51906001600160a01b03821682036101555756fe6080806040526004361015610012575f80fd5b5f905f3560e01c908163012f52ee14610a7057508063278ecde11461092457806337bdc99b1461087d5780634162169f1461085657806352a34b051461076e578063548799181461074557806366c85dee14610614578063675ac67a146105f65780636dd6e80b146105cd5780638bcc8801146105a4578063c5666eb2146104a1578063fc0c546a146104785763fc6466b1146100ad575f80fd5b34610475576060366003190112610475576004356001600160a01b0381169081900361032657602435801561046657600354604051630aae7a6b60e01b81526004810184905292939060c090849060249082906001600160a01b03165afa928315610459578193610392575b50604083018051600481101561036f5715610383578051600481101561036f576002146103605751600481101561034c5760031461033d57600254604051630709df4560e01b815233600482015290602090829060249082906001600160a01b03165afa9081156103325782916102f4575b506001600160a01b03169081156102e5576005545f1981146102d157600101600581905560209094015160405193906001600160a01b031660e085016001600160401b038111868210176102bd57604090815233865260208087019889528682019586526060870192835260808701938452600160a0880181815260443560c08a019081528a88526006909352928620975188546001600160a01b03199081166001600160a01b03928316178a559a5191890180548c169282169290921790915595516002880180548b1691881691909117905591516003870180549099169516949094179096555160048401559051600583019160078210156102a957509360069160209560ff8019835416911617905551910155604051908152f35b634e487b7160e01b81526021600452602490fd5b634e487b7160e01b84526041600452602484fd5b634e487b7160e01b82526011600452602482fd5b631f328f5360e31b8152600490fd5b90506020813d60201161032a575b8161030f60209383610b04565b810103126103265761032090610b39565b5f61018b565b5080fd5b3d9150610302565b6040513d84823e3d90fd5b635cbf2ca960e01b8152600490fd5b634e487b7160e01b82526021600452602482fd5b6311f5ae5760e01b8252600482fd5b634e487b7160e01b83526021600452602483fd5b636483e60360e01b8252600482fd5b90925060c0813d60c011610451575b816103ae60c09383610b04565b8101031261044d576040519060c082018281106001600160401b03821117610439576040526103dc81610b39565b82526103ea60208201610b39565b60208301526040810151600481101561043557604083015260a09061041160608201610b4d565b606084015261042260808201610b4d565b6080840152015160a0820152915f610119565b8480fd5b634e487b7160e01b85526041600452602485fd5b8280fd5b3d91506103a1565b50604051903d90823e3d90fd5b63085fb83d60e21b8352600483fd5b80fd5b50346104755780600319360112610475576001546040516001600160a01b039091168152602090f35b5034610475576020366003190112610475576004358152600660205260408120600581019060ff825416600781101561059057600103610581576001546040516370a0823160e01b81523060048201529190602090839060249082906001600160a01b03165afa91821561057657849261053d575b50600401541161052e57805460ff1916600217905580f35b633c634ed960e01b8252600482fd5b9091506020813d60201161056e575b8161055960209383610b04565b8101031261056a5751906004610516565b8380fd5b3d915061054c565b6040513d86823e3d90fd5b63e04e563560e01b8352600483fd5b634e487b7160e01b84526021600452602484fd5b50346104755780600319360112610475576003546040516001600160a01b039091168152602090f35b50346104755780600319360112610475576002546040516001600160a01b039091168152602090f35b50346104755780600319360112610475576020600554604051908152f35b5034610475576040366003190112610475576024356001600160401b03811161032657366023820112156103265780600401356001600160401b03811161044d573691016024011161047557600435815260066020526040812090600582019160ff835416600781101561036f576002036107365780546001600160a01b03163314158061071f575b61071057825460ff191660051790925560035460019290920154909182916001600160a01b039182169116813b1561070c5782916024839260405194859384926331fbb97d60e11b845260048401525af18015610332576106fb5750f35b8161070591610b04565b6104755780f35b5050fd5b6312a2a7e560e31b8252600482fd5b5060018101546001600160a01b031633141561069d565b63e04e563560e01b8252600482fd5b50346104755780600319360112610475576004546040516001600160a01b039091168152602090f35b50346104755760403660031901126104755760243580151581036103265781546001600160a01b03163303610847576004358252600660205260408220906005820160ff81541660078110156108335760050361082457805460ff19166006179055156107fe5760015460028201546004909201546107fb9290916001600160a01b039182169116610b5e565b80f35b60015460038201546004909201546107fb9290916001600160a01b039182169116610b5e565b63e04e563560e01b8452600484fd5b634e487b7160e01b85526021600452602485fd5b63064eaf8960e51b8252600482fd5b5034610475578060031936011261047557546040516001600160a01b039091168152602090f35b50346104755760203660031901126104755760043581526006602052604081206005810160ff8154166007811015610590576002036105815781546001600160a01b031633141580610910575b61090157805460ff19166003908117909155600154908201546004909201546107fb9290916001600160a01b039182169116610b5e565b6312a2a7e560e31b8352600483fd5b5082546001600160a01b03163314156108ca565b5034610a1a576020366003190112610a1a576004355f52600660205260405f206005810160ff8154166007811015610a5c5760028114159081610a50575b50610a4157600182019060018060a01b0382541633141580610a2d575b610a1e57805460ff1916600417905560035490546001600160a01b039182169116813b15610a1a575f91602483926040519485938492630a5a6bc760e41b845260048401525af18015610a0f576109f8575b5060015460028201546004909201546107fb9290916001600160a01b039182169116610b5e565b610a059192505f90610b04565b5f906107fb6109d1565b6040513d5f823e3d90fd5b5f80fd5b6312a2a7e560e31b5f5260045ffd5b505f546001600160a01b031633141561097f565b63e04e563560e01b5f5260045ffd5b6005915014155f610962565b634e487b7160e01b5f52602160045260245ffd5b34610a1a576020366003190112610a1a576004355f52600660205260405f209060018060a01b0382541660018060a01b0360018401541660018060a01b0360028501541660018060a01b0360038601541690600486015492600660ff60058901541697015494865260208601526040850152606084015260808301526007831015610a5c5760e09260a083015260c0820152f35b90601f801991011681019081106001600160401b03821117610b2557604052565b634e487b7160e01b5f52604160045260245ffd5b51906001600160a01b0382168203610a1a57565b519063ffffffff82168203610a1a57565b5f929183809360405190602082019363a9059cbb60e01b855260018060a01b03166024830152604482015260448152610b98606482610b04565b51926001600160a01b03165af13d15610c64573d6001600160401b038111610b255760405190610bd2601f8201601f191660200183610b04565b81523d5f602083013e5b81610c2c575b5015610bea57565b60405162461bcd60e51b815260206004820152601a60248201527914d85999515490cc8c0e881d1c985b9cd9995c8819985a5b195960321b6044820152606490fd5b8051801592508215610c41575b50505f610be2565b8192509060209181010312610a1a57602001518015158103610a1a575f80610c39565b6060610bdc56fea2646970667358221220c4502c5aaa631a0d7859849cf3c736ea7f39b0865d66073c2195d54110a67c9364736f6c634300081e0033","linkReferences":{}},"methodIdentifiers":{"dao()":"4162169f","dispute(uint256,string)":"66c85dee","escrowCount()":"675ac67a","escrows(uint256)":"012f52ee","markFunded(uint256)":"c5666eb2","merchants()":"8bcc8801","open(address,uint256,bytes32)":"fc6466b1","refund(uint256)":"278ecde1","release(uint256)":"37bdc99b","resolve(uint256,bool)":"52a34b05","security()":"54879918","token()":"fc0c546a","vaultHub()":"6dd6e80b"},"id":32}