{"abi":[{"type":"constructor","inputs":[{"name":"_dao","type":"address","internalType":"address"},{"name":"_token","type":"address","internalType":"address"},{"name":"_hub","type":"address","internalType":"address"},{"name":"_seer","type":"address","internalType":"address"},{"name":"_sec","type":"address","internalType":"address"},{"name":"_ledger","type":"address","internalType":"address"}],"stateMutability":"nonpayable"},{"type":"function","name":"_noteDispute","inputs":[{"name":"owner","type":"address","internalType":"address"}],"outputs":[],"stateMutability":"nonpayable"},{"type":"function","name":"_noteRefund","inputs":[{"name":"owner","type":"address","internalType":"address"}],"outputs":[],"stateMutability":"nonpayable"},{"type":"function","name":"addMerchant","inputs":[{"name":"metaHash","type":"bytes32","internalType":"bytes32"}],"outputs":[],"stateMutability":"nonpayable"},{"type":"function","name":"authorizedEscrow","inputs":[],"outputs":[{"name":"","type":"address","internalType":"address"}],"stateMutability":"view"},{"type":"function","name":"autoSuspendDisputes","inputs":[],"outputs":[{"name":"","type":"uint8","internalType":"uint8"}],"stateMutability":"view"},{"type":"function","name":"autoSuspendRefunds","inputs":[],"outputs":[{"name":"","type":"uint8","internalType":"uint8"}],"stateMutability":"view"},{"type":"function","name":"dao","inputs":[],"outputs":[{"name":"","type":"address","internalType":"address"}],"stateMutability":"view"},{"type":"function","name":"info","inputs":[{"name":"owner","type":"address","internalType":"address"}],"outputs":[{"name":"","type":"tuple","internalType":"struct MerchantRegistry.Merchant","components":[{"name":"owner","type":"address","internalType":"address"},{"name":"vault","type":"address","internalType":"address"},{"name":"status","type":"uint8","internalType":"enum MerchantRegistry.Status"},{"name":"refunds","type":"uint32","internalType":"uint32"},{"name":"disputes","type":"uint32","internalType":"uint32"},{"name":"metaHash","type":"bytes32","internalType":"bytes32"}]}],"stateMutability":"view"},{"type":"function","name":"ledger","inputs":[],"outputs":[{"name":"","type":"address","internalType":"contract IProofLedger_COM"}],"stateMutability":"view"},{"type":"function","name":"merchants","inputs":[{"name":"","type":"address","internalType":"address"}],"outputs":[{"name":"owner","type":"address","internalType":"address"},{"name":"vault","type":"address","internalType":"address"},{"name":"status","type":"uint8","internalType":"enum MerchantRegistry.Status"},{"name":"refunds","type":"uint32","internalType":"uint32"},{"name":"disputes","type":"uint32","internalType":"uint32"},{"name":"metaHash","type":"bytes32","internalType":"bytes32"}],"stateMutability":"view"},{"type":"function","name":"minScore","inputs":[],"outputs":[{"name":"","type":"uint16","internalType":"uint16"}],"stateMutability":"view"},{"type":"function","name":"security","inputs":[],"outputs":[{"name":"","type":"address","internalType":"contract ISecurityHub_COM"}],"stateMutability":"view"},{"type":"function","name":"seer","inputs":[],"outputs":[{"name":"","type":"address","internalType":"contract ISeer_COM"}],"stateMutability":"view"},{"type":"function","name":"setAuthorizedEscrow","inputs":[{"name":"_escrow","type":"address","internalType":"address"}],"outputs":[],"stateMutability":"nonpayable"},{"type":"function","name":"token","inputs":[],"outputs":[{"name":"","type":"address","internalType":"contract IERC20_COM"}],"stateMutability":"view"},{"type":"function","name":"vaultHub","inputs":[],"outputs":[{"name":"","type":"address","internalType":"contract IVaultHub_COM"}],"stateMutability":"view"},{"type":"event","name":"AutoFlagged","inputs":[{"name":"owner","type":"address","indexed":true,"internalType":"address"},{"name":"reason","type":"string","indexed":false,"internalType":"string"}],"anonymous":false},{"type":"event","name":"MerchantAdded","inputs":[{"name":"owner","type":"address","indexed":true,"internalType":"address"},{"name":"vault","type":"address","indexed":true,"internalType":"address"},{"name":"metaHash","type":"bytes32","indexed":false,"internalType":"bytes32"}],"anonymous":false},{"type":"event","name":"MerchantStatus","inputs":[{"name":"owner","type":"address","indexed":true,"internalType":"address"},{"name":"status","type":"uint8","indexed":false,"internalType":"enum MerchantRegistry.Status"},{"name":"reason","type":"string","indexed":false,"internalType":"string"}],"anonymous":false},{"type":"event","name":"ModulesSet","inputs":[{"name":"dao","type":"address","indexed":false,"internalType":"address"},{"name":"token","type":"address","indexed":false,"internalType":"address"},{"name":"hub","type":"address","indexed":false,"internalType":"address"},{"name":"seer","type":"address","indexed":false,"internalType":"address"},{"name":"sec","type":"address","indexed":false,"internalType":"address"},{"name":"ledger","type":"address","indexed":false,"internalType":"address"}],"anonymous":false},{"type":"event","name":"PolicySet","inputs":[{"name":"minScore","type":"uint16","indexed":false,"internalType":"uint16"},{"name":"autoSuspendRefunds","type":"uint8","indexed":false,"internalType":"uint8"},{"name":"autoSuspendDisputes","type":"uint8","indexed":false,"internalType":"uint8"}],"anonymous":false},{"type":"error","name":"COM_AlreadyMerchant","inputs":[]},{"type":"error","name":"COM_NotAllowed","inputs":[]},{"type":"error","name":"COM_NotDAO","inputs":[]},{"type":"error","name":"COM_NotMerchant","inputs":[]},{"type":"error","name":"COM_Zero","inputs":[]}],"bytecode":{"object":"0x610140806040523461021f5760c081610f0f80380380916100208285610278565b83398101031261021f57610033816102af565b61003f602083016102af565b9161004c604082016102af565b90610059606082016102af565b9061007260a061006b608084016102af565b92016102af565b6001805463ffff0000198116630305000017909155956001600160a01b0386169591939186158015610267575b8015610256575b8015610245575b610236576080526001600160a01b0390811660a081905294811660c081905291811660e0819052928116610100819052931661012081905260405163e710c92b60e01b8152909490602081600481875afa90811561022b575f916101cb575b50905f516020610eef5f395f51905f5297630305000061ffff60c0999897969594169163ffffffff19161717600155604051958652602086015260408501526060840152608083015260a0820152a1604051610c2b90816102c482396080518181816101d10152818161037c0152818161050d01526105ff015260a0518160e3015260c0518181816103c00152610734015260e0518181816106440152610798015261010051816105ba01526101205181818161057501526108bc0152f35b9050602096959493929196813d602011610223575b816101ed60209383610278565b8101031261021f57519561ffff8716870361021f57949593949293919290915f516020610eef5f395f51905f5261010c565b5f80fd5b3d91506101e0565b6040513d5f823e3d90fd5b63417bf3f760e01b5f5260045ffd5b506001600160a01b038316156100ad565b506001600160a01b038616156100a6565b506001600160a01b0382161561009f565b601f909101601f19168101906001600160401b0382119082101761029b57604052565b634e487b7160e01b5f52604160045260245ffd5b51906001600160a01b038216820361021f5756fe6080806040526004361015610012575f80fd5b5f905f3560e01c9081630aae7a6b14610a43575080630d38434f146106e257806313c2bedc146106c05780631e33763a14610697578063230ebff5146106735780632d55ea391461062e5780634162169f146105e957806354879918146105a457806356397c351461055f5780635faddc741461053b57806363f772fa146103ef5780636dd6e80b146103aa578063a5a6bc701461023c578063e9856f90146101aa578063ee14e939146101155763fc0c546a146100ce575f80fd5b346101125780600319360112610112576040517f00000000000000000000000000000000000000000000000000000000000000006001600160a01b03168152602090f35b80fd5b5034610112576020366003190112610112576004356001600160a01b038116908190036101a6578160409160c09352806020522060018060a01b038154169063ffffffff600260018301549201549160405193845260018060a01b038116602085015261018b6040850160ff8360a01c16610b54565b818160a81c16606085015260c81c16608083015260a0820152f35b5080fd5b5034610112576020366003190112610112576004356001600160a01b03811681036101a6577f00000000000000000000000000000000000000000000000000000000000000006001600160a01b0316330361022d5760018054640100000000600160c01b03191660209290921b640100000000600160c01b031691909117905580f35b63064eaf8960e51b8252600482fd5b5034610112576020366003190112610112576004356001600160a01b038116908190036101a6576001543360209190911c6001600160a01b0316148015610378575b61028790610bb3565b8082528160205260016040832001805460ff8160a01c166004811015610364571561035557815463ffffffff60a81b191660a891821c63ffffffff1660010190911b63ffffffff60a81b1617815563ffffffff815460a81c1660ff60015460101c1611156102f3578280f35b600160a11b60ff60a01b198254161790557f43a90d98c063905fdd4f2cc8b6da01061d7fd4a042aafe2a9eb368edb461c258606060405160208152601060208201526f1c99599d5b9917dd1a1c995cda1bdb1960821b6040820152a25f808280f35b636483e60360e01b8452600484fd5b634e487b7160e01b85526021600452602485fd5b50337f00000000000000000000000000000000000000000000000000000000000000006001600160a01b03161461027e565b50346101125780600319360112610112576040517f00000000000000000000000000000000000000000000000000000000000000006001600160a01b03168152602090f35b5034610112576020366003190112610112576004356001600160a01b038116908190036101a6576001543360209190911c6001600160a01b0316148015610509575b61043a90610bb3565b8082528160205260016040832001805460ff8160a01c166004811015610364571561035557815463ffffffff60c81b191660c891821c63ffffffff1660010190911b63ffffffff60c81b1617815563ffffffff815460c81c1660ff60015460181c1611156104a6578280f35b600160a11b60ff60a01b198254161790557f43a90d98c063905fdd4f2cc8b6da01061d7fd4a042aafe2a9eb368edb461c2586060604051602081526011602082015270191a5cdc1d5d1957dd1a1c995cda1bdb19607a1b6040820152a25f808280f35b50337f00000000000000000000000000000000000000000000000000000000000000006001600160a01b031614610431565b5034610112578060031936011261011257602060ff60015460181c16604051908152f35b50346101125780600319360112610112576040517f00000000000000000000000000000000000000000000000000000000000000006001600160a01b03168152602090f35b50346101125780600319360112610112576040517f00000000000000000000000000000000000000000000000000000000000000006001600160a01b03168152602090f35b50346101125780600319360112610112576040517f00000000000000000000000000000000000000000000000000000000000000006001600160a01b03168152602090f35b50346101125780600319360112610112576040517f00000000000000000000000000000000000000000000000000000000000000006001600160a01b03168152602090f35b5034610112578060031936011261011257602060ff60015460101c16604051908152f35b5034610112578060031936011261011257600154604051602091821c6001600160a01b03168152f35b5034610112578060031936011261011257602061ffff60015416604051908152f35b503461098e57602036600319011261098e57600435335f525f60205260ff600160405f20015460a01c16600481101561099257610a3457604051630709df4560e01b81523360048201526020816024817f00000000000000000000000000000000000000000000000000000000000000006001600160a01b03165afa908115610983575f916109f2575b506001600160a01b03169081156109a657604051630d47875d60e41b81523360048201526020816024817f00000000000000000000000000000000000000000000000000000000000000006001600160a01b03165afa908115610983575f916109b5575b5061ffff80600154169116106109a6576040516107ec81610b61565b338082526020808301858152600160408086018281525f606088018181526080890182815260a08a018b815298835296829052929020965187546001600160a01b03199081166001600160a01b03928316178955945193880180549095169316929092178355905192939290919060048110156109925781549251945163ffffffff60c81b60c89190911b1668ffffffffffffffffff60a01b1990931660ff60a01b60a09290921b919091161763ffffffff60a81b60a89590951b949094169390931717909155600290519101557f00000000000000000000000000000000000000000000000000000000000000006001600160a01b0316803b1561098e575f809160a460405180948193633ddd61ab60e21b835233600484015260606024840152600d60648401526c13595c98da185b9d1059191959609a1b60848401523360448401525af180156109835761096e575b506040519081527f1609ad0904581124d080230a81972911df349ec00897ff67a50b644564c8ec2260203392a380f35b61097b9193505f90610b91565b5f915f61093e565b6040513d5f823e3d90fd5b5f80fd5b634e487b7160e01b5f52602160045260245ffd5b6312a2a7e560e31b5f5260045ffd5b90506020813d6020116109ea575b816109d060209383610b91565b8101031261098e575161ffff8116810361098e575f6107d0565b3d91506109c3565b90506020813d602011610a2c575b81610a0d60209383610b91565b8101031261098e57516001600160a01b038116810361098e575f61076c565b3d9150610a00565b63271e56eb60e01b5f5260045ffd5b3461098e57602036600319011261098e576004356001600160a01b038116919082900361098e5760a081610a775f93610b61565b82815282602082015282604082015282606082015282608082015201525f525f60205260405f20604051610aaa81610b61565b81546001600160a01b0390811682526001830154908116602083019081529060a081901c60ff16906040840160048310156109925760c095610b3e8263ffffffff9586945260026060890193858760a81c1685528560808b019760c81c16875201549660a089019788526040519860018060a01b03905116895260018060a01b039051166020890152516040880190610b54565b51166060850152511660808301525160a0820152f35b9060048210156109925752565b60c0810190811067ffffffffffffffff821117610b7d57604052565b634e487b7160e01b5f52604160045260245ffd5b90601f8019910116810190811067ffffffffffffffff821117610b7d57604052565b15610bba57565b60405162461bcd60e51b815260206004820152601360248201527210d3d34e881b9bdd08185d5d1a1bdc9a5e9959606a1b6044820152606490fdfea26469706673582212201dd937e8121dadd886edab76d780e1a548436d332a28605cd48cc11c582914d064736f6c634300081e003352286c1f6776073dabe8dfcad8b462596b05fff8827c8c35d3b8c3909860371e","linkReferences":{}},"methodIdentifiers":{"_noteDispute(address)":"63f772fa","_noteRefund(address)":"a5a6bc70","addMerchant(bytes32)":"0d38434f","authorizedEscrow()":"1e33763a","autoSuspendDisputes()":"5faddc74","autoSuspendRefunds()":"230ebff5","dao()":"4162169f","info(address)":"0aae7a6b","ledger()":"56397c35","merchants(address)":"ee14e939","minScore()":"13c2bedc","security()":"54879918","seer()":"2d55ea39","setAuthorizedEscrow(address)":"e9856f90","token()":"fc0c546a","vaultHub()":"6dd6e80b"},"id":16}