{
  "_format": "hh-sol-artifact-1",
  "contractName": "FiatRampRegistry",
  "sourceName": "contracts/MainstreamPayments.sol",
  "abi": [
    {
      "inputs": [
        {
          "internalType": "address",
          "name": "_dao",
          "type": "address"
        },
        {
          "internalType": "address",
          "name": "_seer",
          "type": "address"
        },
        {
          "internalType": "address",
          "name": "_ledger",
          "type": "address"
        }
      ],
      "stateMutability": "nonpayable",
      "type": "constructor"
    },
    {
      "anonymous": false,
      "inputs": [
        {
          "indexed": true,
          "internalType": "address",
          "name": "provider",
          "type": "address"
        },
        {
          "indexed": false,
          "internalType": "string",
          "name": "name",
          "type": "string"
        },
        {
          "indexed": false,
          "internalType": "string",
          "name": "licenseInfo",
          "type": "string"
        }
      ],
      "name": "RampProviderRegistered",
      "type": "event"
    },
    {
      "anonymous": false,
      "inputs": [
        {
          "indexed": true,
          "internalType": "address",
          "name": "provider",
          "type": "address"
        }
      ],
      "name": "RampProviderRemoved",
      "type": "event"
    },
    {
      "anonymous": false,
      "inputs": [
        {
          "indexed": true,
          "internalType": "address",
          "name": "user",
          "type": "address"
        },
        {
          "indexed": true,
          "internalType": "address",
          "name": "provider",
          "type": "address"
        },
        {
          "indexed": false,
          "internalType": "bytes32",
          "name": "txHash",
          "type": "bytes32"
        },
        {
          "indexed": false,
          "internalType": "bool",
          "name": "isOnRamp",
          "type": "bool"
        }
      ],
      "name": "RampTransactionRecorded",
      "type": "event"
    },
    {
      "inputs": [],
      "name": "FIRST_RAMP_BONUS",
      "outputs": [
        {
          "internalType": "uint16",
          "name": "",
          "type": "uint16"
        }
      ],
      "stateMutability": "view",
      "type": "function"
    },
    {
      "inputs": [],
      "name": "RAMP_TX_BONUS",
      "outputs": [
        {
          "internalType": "uint16",
          "name": "",
          "type": "uint16"
        }
      ],
      "stateMutability": "view",
      "type": "function"
    },
    {
      "inputs": [],
      "name": "dao",
      "outputs": [
        {
          "internalType": "address",
          "name": "",
          "type": "address"
        }
      ],
      "stateMutability": "view",
      "type": "function"
    },
    {
      "inputs": [],
      "name": "getActiveProviders",
      "outputs": [
        {
          "internalType": "address[]",
          "name": "addresses",
          "type": "address[]"
        },
        {
          "internalType": "string[]",
          "name": "names",
          "type": "string[]"
        },
        {
          "internalType": "string[]",
          "name": "widgetUrls",
          "type": "string[]"
        }
      ],
      "stateMutability": "view",
      "type": "function"
    },
    {
      "inputs": [],
      "name": "getProviderCount",
      "outputs": [
        {
          "internalType": "uint256",
          "name": "",
          "type": "uint256"
        }
      ],
      "stateMutability": "view",
      "type": "function"
    },
    {
      "inputs": [
        {
          "internalType": "address",
          "name": "user",
          "type": "address"
        }
      ],
      "name": "getUserRampCount",
      "outputs": [
        {
          "internalType": "uint256",
          "name": "onRamps",
          "type": "uint256"
        },
        {
          "internalType": "uint256",
          "name": "offRamps",
          "type": "uint256"
        }
      ],
      "stateMutability": "view",
      "type": "function"
    },
    {
      "inputs": [
        {
          "internalType": "address",
          "name": "user",
          "type": "address"
        }
      ],
      "name": "getUserRampHistory",
      "outputs": [
        {
          "internalType": "bytes32[]",
          "name": "",
          "type": "bytes32[]"
        }
      ],
      "stateMutability": "view",
      "type": "function"
    },
    {
      "inputs": [],
      "name": "ledger",
      "outputs": [
        {
          "internalType": "contract IProofLedger",
          "name": "",
          "type": "address"
        }
      ],
      "stateMutability": "view",
      "type": "function"
    },
    {
      "inputs": [
        {
          "internalType": "uint256",
          "name": "",
          "type": "uint256"
        }
      ],
      "name": "providerList",
      "outputs": [
        {
          "internalType": "address",
          "name": "",
          "type": "address"
        }
      ],
      "stateMutability": "view",
      "type": "function"
    },
    {
      "inputs": [
        {
          "internalType": "address",
          "name": "",
          "type": "address"
        }
      ],
      "name": "providers",
      "outputs": [
        {
          "internalType": "bool",
          "name": "registered",
          "type": "bool"
        },
        {
          "internalType": "string",
          "name": "name",
          "type": "string"
        },
        {
          "internalType": "string",
          "name": "licenseInfo",
          "type": "string"
        },
        {
          "internalType": "string",
          "name": "widgetUrl",
          "type": "string"
        },
        {
          "internalType": "uint256",
          "name": "txCount",
          "type": "uint256"
        },
        {
          "internalType": "uint64",
          "name": "registeredAt",
          "type": "uint64"
        }
      ],
      "stateMutability": "view",
      "type": "function"
    },
    {
      "inputs": [
        {
          "internalType": "bytes32",
          "name": "",
          "type": "bytes32"
        }
      ],
      "name": "rampRecords",
      "outputs": [
        {
          "internalType": "address",
          "name": "user",
          "type": "address"
        },
        {
          "internalType": "address",
          "name": "provider",
          "type": "address"
        },
        {
          "internalType": "bytes32",
          "name": "externalTxHash",
          "type": "bytes32"
        },
        {
          "internalType": "bool",
          "name": "isOnRamp",
          "type": "bool"
        },
        {
          "internalType": "uint64",
          "name": "timestamp",
          "type": "uint64"
        }
      ],
      "stateMutability": "view",
      "type": "function"
    },
    {
      "inputs": [
        {
          "internalType": "address",
          "name": "user",
          "type": "address"
        },
        {
          "internalType": "bytes32",
          "name": "externalTxHash",
          "type": "bytes32"
        },
        {
          "internalType": "bool",
          "name": "isOnRamp",
          "type": "bool"
        }
      ],
      "name": "recordRampTransaction",
      "outputs": [],
      "stateMutability": "nonpayable",
      "type": "function"
    },
    {
      "inputs": [
        {
          "internalType": "address",
          "name": "provider",
          "type": "address"
        },
        {
          "internalType": "string",
          "name": "name",
          "type": "string"
        },
        {
          "internalType": "string",
          "name": "licenseInfo",
          "type": "string"
        },
        {
          "internalType": "string",
          "name": "widgetUrl",
          "type": "string"
        }
      ],
      "name": "registerProvider",
      "outputs": [],
      "stateMutability": "nonpayable",
      "type": "function"
    },
    {
      "inputs": [
        {
          "internalType": "address",
          "name": "provider",
          "type": "address"
        }
      ],
      "name": "removeProvider",
      "outputs": [],
      "stateMutability": "nonpayable",
      "type": "function"
    },
    {
      "inputs": [],
      "name": "seer",
      "outputs": [
        {
          "internalType": "contract ISeer",
          "name": "",
          "type": "address"
        }
      ],
      "stateMutability": "view",
      "type": "function"
    },
    {
      "inputs": [
        {
          "internalType": "address",
          "name": "",
          "type": "address"
        },
        {
          "internalType": "uint256",
          "name": "",
          "type": "uint256"
        }
      ],
      "name": "userRampHistory",
      "outputs": [
        {
          "internalType": "bytes32",
          "name": "",
          "type": "bytes32"
        }
      ],
      "stateMutability": "view",
      "type": "function"
    }
  ],
  "bytecode": "0x6080346100ef57601f6116c138819003918201601f19168301916001600160401b038311848410176100f4578084926060946040528339810103126100ef576100478161010a565b9061006060406100596020840161010a565b920161010a565b916001600160a01b031680156100ba57600080546001600160a01b03199081169290921790556001805482166001600160a01b0393841617905560028054909116929091169190911790556040516115a2908161011f8239f35b60405162461bcd60e51b815260206004820152600d60248201526c4652523a207a65726f2044414f60981b6044820152606490fd5b600080fd5b634e487b7160e01b600052604160045260246000fd5b51906001600160a01b03821682036100ef5756fe608080604052600436101561001357600080fd5b60003560e01c9081630349edff14610fc0575080630787bc2714610f045780631e9fab7a14610ee85780632d55ea3914610ebf578063390bfd3c14610e7d5780634162169f14610e5457806346ce417514610e365780634c89114c1461086b57806356397c35146108425780636e2edf87146108265780638a355a5714610760578063a25ea74a146106ed578063c397307f14610439578063d522693a14610357578063fb0e9ec11461012d5763fef1bb72146100cf57600080fd5b34610128576040366003190112610128576100e8611077565b6001600160a01b031660009081526006602052604090208054602435919082101561012857602091610119916111fe565b90549060031b1c604051908152f35b600080fd5b3461012857600036600319011261012857600080600454905b81811061030d575061015782611377565b9061016560405192836110c7565b82825261017183611377565b6020830190601f190136823761018f6101898561138e565b9461138e565b916000805b82811061020e575050506040519384936060850190606086525180915260808501929060005b8181106101ec57505050816101da91856101e89594036020870152611243565b908382036040850152611243565b0390f35b82516001600160a01b03168552879650602094850194909201916001016101ba565b61021c8197949596976111cd565b60018060a01b0391549060031b1c16600052600360205260ff6040600020541661024e575b6001019594939295610194565b9061030560019161025e846111cd565b848060a01b0391549060031b1c16610276828b611363565b52610280846111cd565b848060a01b0391549060031b1c1660005260036020526102a5836040600020016110e8565b6102af8288611363565b526102ba8187611363565b506102c4846111cd565b848060a01b0391549060031b1c1660005260036020526102ea60036040600020016110e8565b6102f4828a611363565b526102ff8189611363565b5061133e565b919050610241565b610316816111cd565b60018060a01b0391549060031b1c16600052600360205260ff60406000205416610343575b600101610146565b9161034f60019161133e565b92905061033b565b3461012857602036600319011261012857610370611077565b6001600160a01b0316600090815260066020908152604080832090518154808252918452828420909284928491820190845b8181106104205750506103b7925003836110c7565b82905b8251821015610410576103cd8284611363565b51600052600560205260ff600360406000200154166000146103fd576103f460019161133e565b915b01906103ba565b909261040a60019161133e565b936103f6565b6040908482519182526020820152f35b84548352600194850194879450602090930192016103a2565b3461012857606036600319011261012857610452611077565b602435906044358015158091036101285733600052600360205260ff60406000205416156106b4576001600160a01b03821691821561067e576040516020810190338252856040820152604081526104ab6060826110c7565b519020908160005260056020526001600160401b0360036040600020015460081c166106415760405160a081018181106001600160401b0382111761062b57604090815285825233602080840191825283830189815260608501888152426001600160401b031660808701908152600089815260058552868120975188546001600160a01b03199081166001600160a01b03928316178a55965160018a018054909816911617909555915160028701555160039095018054915168ffffffffffffffff0060089190911b166001600160481b031990921660ff9615159690961695909517179093558681526006909252902080549290600160401b84101561062b57836105c09160016105f8960181556111fe565b819291549060031b91821b91600019901b191617905533600052600360205260046040600020016105f1815461133e565b90556113d8565b60405192835260208301527f6c83d7adede8cea4b6d2bd193f4f8236fa77c40a964fef0e3a51e90b2ef3f17d60403393a3005b634e487b7160e01b600052604160045260246000fd5b60405162461bcd60e51b81526020600482015260156024820152741194948e88185b1c9958591e481c9958dbdc991959605a1b6044820152606490fd5b60405162461bcd60e51b815260206004820152600e60248201526d2329291d103d32b937903ab9b2b960911b6044820152606490fd5b60405162461bcd60e51b81526020600482015260116024820152702329291d103737ba10383937bb34b232b960791b6044820152606490fd5b3461012857602036600319011261012857600435600052600560205260a060406000206001600160401b03600180841b0382541691600180851b036001820154169060036002820154910154916040519485526020850152604084015260ff81161515606084015260081c166080820152f35b3461012857602036600319011261012857610779611077565b61078e60018060a01b0360005416331461129c565b6001600160a01b031660008181526003602052604090205460ff16156107eb57806000526003602052604060002060ff1981541690557f543c458a528a1e48671d7dae2755b7573a8d4148c333b68b4207a36e68940afd600080a2005b60405162461bcd60e51b81526020600482015260136024820152721194948e881b9bdd081c9959da5cdd195c9959606a1b6044820152606490fd5b3461012857600036600319011261012857602060405160058152f35b34610128576000366003190112610128576002546040516001600160a01b039091168152602090f35b3461012857608036600319011261012857610884611077565b6024356001600160401b038111610128576108a3903690600401611216565b906044356001600160401b038111610128576108c3903690600401611216565b92906064356001600160401b038111610128576108e4903690600401611216565b956108fa60018060a01b0360005416331461129c565b6001600160a01b0316958615610dfc5786600052600360205260ff60406000205416610dbd576040519060c082018281106001600160401b0382111761062b576040526001825261097161094f3687896112d7565b9360208401948552610962368a886112d7565b926040850193845236916112d7565b6060830190815260808301916000835260a08401946001600160401b03421686528a60005260036020526109b9604060002095511515869060ff801983541691151516179055565b51805160018601916001600160401b03821161062b5781906109db845461108d565b601f8111610d6a575b50602090601f8311600114610d0557600092610cfa575b50508160011b916000199060031b1c19161790555b51805160028501916001600160401b03821161062b578190610a32845461108d565b601f8111610ca7575b50602090601f8311600114610c4257600092610c37575b50508160011b916000199060031b1c19161790555b51805160038401916001600160401b03821161062b57610a87835461108d565b601f8111610bef575b50602090601f8311600114610b7b5791806001600160401b0396949260059694600092610b70575b50508160011b916000199060031b1c19161790555b516004820155019151166001600160401b031982541617905560045490600160401b82101561062b577ffb8e4be5634aae67f76e59371dd38570ae7db8f62ac4cb418fed945056c3a52094610b2b836001610b6b95016004556111cd565b81546001600160a01b0360039290921b91821b19169089901b17905560408051818152958695610b5d9287019161131d565b91848303602086015261131d565b0390a2005b015190508d80610ab8565b90601f1983169184600052816000209260005b818110610bd75750926001928592600598966001600160401b039a989610610bbe575b505050811b019055610acd565b015160001960f88460031b161c191690558d8080610bb1565b92936020600181928786015181550195019301610b8e565b836000526020600020601f840160051c81019160208510610c2d575b601f0160051c01905b818110610c215750610a90565b60008155600101610c14565b9091508190610c0b565b015190508c80610a52565b60008581528281209350601f198516905b818110610c8f5750908460019594939210610c76575b505050811b019055610a67565b015160001960f88460031b161c191690558c8080610c69565b92936020600181928786015181550195019301610c53565b909150836000526020600020601f840160051c81019160208510610cf0575b90601f859493920160051c01905b818110610ce15750610a3b565b60008155849350600101610cd4565b9091508190610cc6565b015190508d806109fb565b60008581528281209350601f198516905b818110610d525750908460019594939210610d39575b505050811b019055610a10565b015160001960f88460031b161c191690558d8080610d2c565b92936020600181928786015181550195019301610d16565b909150836000526020600020601f840160051c81019160208510610db3575b90601f859493920160051c01905b818110610da457506109e4565b60008155849350600101610d97565b9091508190610d89565b60405162461bcd60e51b81526020600482015260176024820152761194948e88185b1c9958591e481c9959da5cdd195c9959604a1b6044820152606490fd5b60405162461bcd60e51b81526020600482015260126024820152712329291d103d32b93790383937bb34b232b960711b6044820152606490fd5b34610128576000366003190112610128576020600454604051908152f35b34610128576000366003190112610128576000546040516001600160a01b039091168152602090f35b346101285760203660031901126101285760043560045481101561012857610ea66020916111cd565b905460405160039290921b1c6001600160a01b03168152f35b34610128576000366003190112610128576001546040516001600160a01b039091168152602090f35b3461012857600036600319011261012857602060405160328152f35b34610128576020366003190112610128576001600160a01b03610f25611077565b166000526003602052604060002060ff815416610f44600183016110e8565b91610f51600282016110e8565b610fb1610f60600384016110e8565b610fa36001600160401b03600560048701549601541693610f956040519889981515895260c060208a015260c089019061118c565b90878203604089015261118c565b90858203606087015261118c565b91608084015260a08301520390f35b34610128576020366003190112610128576001600160a01b03610fe1611077565b16600052600660205260406000209081548082526020820190819360005260206000209060005b818110611061575050508161101e9103826110c7565b6040519182916020830190602084525180915260408301919060005b818110611048575050500390f35b825184528594506020938401939092019160010161103a565b8254845260209093019260019283019201611008565b600435906001600160a01b038216820361012857565b90600182811c921680156110bd575b60208310146110a757565b634e487b7160e01b600052602260045260246000fd5b91607f169161109c565b90601f801991011681019081106001600160401b0382111761062b57604052565b90604051918260008254926110fc8461108d565b808452936001811690811561116a5750600114611123575b50611121925003836110c7565b565b90506000929192526020600020906000915b81831061114e5750509060206111219282010138611114565b6020919350806001915483858901015201910190918492611135565b90506020925061112194915060ff191682840152151560051b82010138611114565b919082519283825260005b8481106111b8575050826000602080949584010152601f8019910116010190565b80602080928401015182828601015201611197565b6004548110156111e857600460005260206000200190600090565b634e487b7160e01b600052603260045260246000fd5b80548210156111e85760005260206000200190600090565b9181601f84011215610128578235916001600160401b038311610128576020838186019501011161012857565b9080602083519182815201916020808360051b8301019401926000915b83831061126f57505050505090565b909192939460208061128d600193601f19868203018752895161118c565b97019301930191939290611260565b156112a357565b60405162461bcd60e51b815260206004820152600c60248201526b4652523a206e6f742044414f60a01b6044820152606490fd5b9291926001600160401b03821161062b5760405191611300601f8201601f1916602001846110c7565b829481845281830111610128578281602093846000960137010152565b908060209392818452848401376000828201840152601f01601f1916010190565b600019811461134d5760010190565b634e487b7160e01b600052601160045260246000fd5b80518210156111e85760209160051b010190565b6001600160401b03811161062b5760051b60200190565b9061139882611377565b6113a560405191826110c7565b82815280926113b6601f1991611377565b019060005b8281106113c757505050565b8060606020809385010152016113bb565b600154600091906001600160a01b0316801561156757604051630d47875d60e41b81526001600160a01b039092166004830181905291602081602481855afa90811561155c578491611519575b5061ffff60649116106000146114b257506001546001600160a01b031690813b156114ae57829160a483926040519485938492630eccbd3560e11b845260048401526032602484015260606044840152600a606484015269066697273745f72616d760b41b60848401525af1611499575050565b6114a48280926110c7565b6114ab5750565b80fd5b8280fd5b90813b156114ae57829160a483926040519485938492630eccbd3560e11b845260048401526005602484015260606044840152600d60648401526c72616d705f636f6d706c65746560981b60848401525af161150c575050565b81611516916110c7565b50565b90506020813d602011611554575b81611534602093836110c7565b81010312611550575161ffff811681036115505761ffff611425565b8380fd5b3d9150611527565b6040513d86823e3d90fd5b50505056fea264697066735822122024d08b6a9b850fafb3ad5956dad4b216d2b88f9b92262749fe2902c494a3ff3164736f6c634300081e0033",
  "linkReferences": {},
  "deployedLinkReferences": {}
}