{
  "_format": "hh-sol-artifact-1",
  "contractName": "MultiCurrencyRouter",
  "sourceName": "contracts/MainstreamPayments.sol",
  "abi": [
    {
      "inputs": [
        {
          "internalType": "address",
          "name": "_dao",
          "type": "address"
        },
        {
          "internalType": "address",
          "name": "_vfide",
          "type": "address"
        },
        {
          "internalType": "address",
          "name": "_priceOracle",
          "type": "address"
        },
        {
          "internalType": "address",
          "name": "_recommendedRouter",
          "type": "address"
        }
      ],
      "stateMutability": "nonpayable",
      "type": "constructor"
    },
    {
      "anonymous": false,
      "inputs": [
        {
          "indexed": true,
          "internalType": "address",
          "name": "customer",
          "type": "address"
        },
        {
          "indexed": true,
          "internalType": "address",
          "name": "merchant",
          "type": "address"
        },
        {
          "indexed": false,
          "internalType": "address",
          "name": "paymentToken",
          "type": "address"
        },
        {
          "indexed": false,
          "internalType": "uint256",
          "name": "paymentAmount",
          "type": "uint256"
        },
        {
          "indexed": false,
          "internalType": "string",
          "name": "orderId",
          "type": "string"
        }
      ],
      "name": "DirectPaymentRecorded",
      "type": "event"
    },
    {
      "anonymous": false,
      "inputs": [
        {
          "indexed": true,
          "internalType": "address",
          "name": "oldRouter",
          "type": "address"
        },
        {
          "indexed": true,
          "internalType": "address",
          "name": "newRouter",
          "type": "address"
        }
      ],
      "name": "SwapRouterUpdated",
      "type": "event"
    },
    {
      "anonymous": false,
      "inputs": [
        {
          "indexed": true,
          "internalType": "address",
          "name": "token",
          "type": "address"
        },
        {
          "indexed": false,
          "internalType": "string",
          "name": "symbol",
          "type": "string"
        },
        {
          "indexed": false,
          "internalType": "address[]",
          "name": "path",
          "type": "address[]"
        }
      ],
      "name": "TokenRouteAdded",
      "type": "event"
    },
    {
      "anonymous": false,
      "inputs": [
        {
          "indexed": true,
          "internalType": "address",
          "name": "token",
          "type": "address"
        }
      ],
      "name": "TokenRouteRemoved",
      "type": "event"
    },
    {
      "inputs": [
        {
          "internalType": "address",
          "name": "token",
          "type": "address"
        },
        {
          "internalType": "string",
          "name": "symbol",
          "type": "string"
        },
        {
          "internalType": "uint8",
          "name": "decimals",
          "type": "uint8"
        },
        {
          "internalType": "address[]",
          "name": "path",
          "type": "address[]"
        }
      ],
      "name": "addTokenRoute",
      "outputs": [],
      "stateMutability": "nonpayable",
      "type": "function"
    },
    {
      "inputs": [
        {
          "internalType": "address",
          "name": "tokenIn",
          "type": "address"
        },
        {
          "internalType": "uint256",
          "name": "amountIn",
          "type": "uint256"
        },
        {
          "internalType": "uint256",
          "name": "minAmountOut",
          "type": "uint256"
        },
        {
          "internalType": "address",
          "name": "recipient",
          "type": "address"
        }
      ],
      "name": "buildSwapCalldata",
      "outputs": [
        {
          "internalType": "address",
          "name": "routerAddress",
          "type": "address"
        },
        {
          "internalType": "bytes",
          "name": "callData",
          "type": "bytes"
        }
      ],
      "stateMutability": "view",
      "type": "function"
    },
    {
      "inputs": [],
      "name": "dao",
      "outputs": [
        {
          "internalType": "address",
          "name": "",
          "type": "address"
        }
      ],
      "stateMutability": "view",
      "type": "function"
    },
    {
      "inputs": [],
      "name": "getSupportedTokens",
      "outputs": [
        {
          "internalType": "address[]",
          "name": "addresses",
          "type": "address[]"
        },
        {
          "internalType": "string[]",
          "name": "symbols",
          "type": "string[]"
        },
        {
          "internalType": "bool[]",
          "name": "needsSwap",
          "type": "bool[]"
        }
      ],
      "stateMutability": "view",
      "type": "function"
    },
    {
      "inputs": [
        {
          "internalType": "address",
          "name": "tokenIn",
          "type": "address"
        }
      ],
      "name": "getSwapRoute",
      "outputs": [
        {
          "internalType": "address[]",
          "name": "path",
          "type": "address[]"
        },
        {
          "internalType": "address",
          "name": "router",
          "type": "address"
        }
      ],
      "stateMutability": "view",
      "type": "function"
    },
    {
      "inputs": [
        {
          "internalType": "address",
          "name": "tokenIn",
          "type": "address"
        },
        {
          "internalType": "uint256",
          "name": "amountIn",
          "type": "uint256"
        }
      ],
      "name": "previewSwap",
      "outputs": [
        {
          "internalType": "uint256",
          "name": "estimatedVfide",
          "type": "uint256"
        },
        {
          "internalType": "uint256",
          "name": "usdValue",
          "type": "uint256"
        },
        {
          "internalType": "address[]",
          "name": "path",
          "type": "address[]"
        }
      ],
      "stateMutability": "view",
      "type": "function"
    },
    {
      "inputs": [],
      "name": "priceOracle",
      "outputs": [
        {
          "internalType": "contract VFIDEPriceOracle",
          "name": "",
          "type": "address"
        }
      ],
      "stateMutability": "view",
      "type": "function"
    },
    {
      "inputs": [],
      "name": "recommendedRouter",
      "outputs": [
        {
          "internalType": "address",
          "name": "",
          "type": "address"
        }
      ],
      "stateMutability": "view",
      "type": "function"
    },
    {
      "inputs": [
        {
          "internalType": "address",
          "name": "merchant",
          "type": "address"
        },
        {
          "internalType": "address",
          "name": "paymentToken",
          "type": "address"
        },
        {
          "internalType": "uint256",
          "name": "paymentAmount",
          "type": "uint256"
        },
        {
          "internalType": "string",
          "name": "orderId",
          "type": "string"
        }
      ],
      "name": "recordDirectPayment",
      "outputs": [],
      "stateMutability": "nonpayable",
      "type": "function"
    },
    {
      "inputs": [
        {
          "internalType": "address",
          "name": "token",
          "type": "address"
        }
      ],
      "name": "removeTokenRoute",
      "outputs": [],
      "stateMutability": "nonpayable",
      "type": "function"
    },
    {
      "inputs": [
        {
          "internalType": "address",
          "name": "",
          "type": "address"
        }
      ],
      "name": "routes",
      "outputs": [
        {
          "internalType": "bool",
          "name": "supported",
          "type": "bool"
        },
        {
          "internalType": "string",
          "name": "symbol",
          "type": "string"
        },
        {
          "internalType": "uint8",
          "name": "decimals",
          "type": "uint8"
        }
      ],
      "stateMutability": "view",
      "type": "function"
    },
    {
      "inputs": [
        {
          "internalType": "address",
          "name": "router",
          "type": "address"
        }
      ],
      "name": "setRecommendedRouter",
      "outputs": [],
      "stateMutability": "nonpayable",
      "type": "function"
    },
    {
      "inputs": [
        {
          "internalType": "uint256",
          "name": "",
          "type": "uint256"
        }
      ],
      "name": "supportedTokens",
      "outputs": [
        {
          "internalType": "address",
          "name": "",
          "type": "address"
        }
      ],
      "stateMutability": "view",
      "type": "function"
    },
    {
      "inputs": [],
      "name": "vfideToken",
      "outputs": [
        {
          "internalType": "address",
          "name": "",
          "type": "address"
        }
      ],
      "stateMutability": "view",
      "type": "function"
    }
  ],
  "bytecode": "0x6080604052346103d9576115786080813803918261001c816103de565b9384928339810103126103d95761003281610403565b61003e60208301610403565b610056606061004f60408601610403565b9401610403565b916001600160a01b0316801515806103c7575b1561039657600080546001600160a01b03199081169290921790556001805482166001600160a01b039384169081179091556002805483169584169590951790945560038054909116929091169190911790556020906100c8826103de565b9160008352600036813760405192608084016001600160401b03811185821017610279576040908152600185528051949085016001600160401b03811186821017610279576040526005855264564649444560d81b83860152828101948552604081016012815260608201928352846000526004845260406000209151151560ff8019845416911617825560018201955195865160018060401b038111610279578154600181811c9116801561038c575b8782101461037657601f811161033b575b5085601f82116001146102d25781906003969798996000926102c7575b50508160011b9160001990871b1c19161790555b60ff6002830191511660ff198254161790550190519081519160018060401b0383116102795768010000000000000000831161027957839082548484558085106102aa575b5001906000528260002060005b83811061028f57858560055490680100000000000000008210156102795760018201806005558210156102635760056000908152200180546001600160a01b0319169091179055604051611149908161042f8239f35b634e487b7160e01b600052603260045260246000fd5b634e487b7160e01b600052604160045260246000fd5b82516001600160a01b0316828201559184019160010161020d565b6102c1908460005285846000209182019101610417565b38610200565b0151905038806101a7565b601f1982169883600052876000209960005b81811061032457509160039798999a9184600195941061030c575b505050811b0190556101bb565b015160001983891b60f8161c191690553880806102ff565b838301518c556001909b019a9289019289016102e4565b610366908360005287600020601f840160051c81019189851061036c575b601f0160051c0190610417565b3861018a565b9091508190610359565b634e487b7160e01b600052602260045260246000fd5b90607f1690610179565b60405162461bcd60e51b81526020600482015260096024820152684d43523a207a65726f60b81b6044820152606490fd5b506001600160a01b0382161515610069565b600080fd5b6040519190601f01601f191682016001600160401b0381118382101761027957604052565b51906001600160a01b03821682036103d957565b818110610422575050565b6000815560010161041756fe608080604052600436101561001357600080fd5b60003560e01c9081632630c12f14610db357508063295f36de14610d2f5780634162169f14610d065780636b7edcc714610c6057806390d728aa14610b57578063a98683cd14610ae4578063b5e7a7611461062e578063b8a71eec14610605578063c5a0fd74146105dc578063c62556261461059a578063d3c7c2c7146102e1578063d740965914610271578063dfae8ae8146101355763f07a34ef146100b957600080fd5b34610130576020366003190112610130576100d2610dd7565b6100e760018060a01b03600054163314611087565b600380546001600160a01b039283166001600160a01b0319821681179092559091167fca394f95d8dbf1e8b2e76b9a8da90cacce1da85181a65508dab13212dc1df53b600080a3005b600080fd5b346101305760803660031901126101305761014e610dd7565b6064356001600160a01b03811691908290036101305760018060a01b031660005260046020526003604060002061018860ff825416610fdc565b01805415610236576003546001600160a01b0316904261012c810191908210610220576101e793610200926040519586936338ed173960e01b60208601526024356024860152604435604486015260a0606486015260c4850190611023565b91608484015260a483015203601f198101845283610f17565b61021c6040519283928352604060208401526040830190610e9c565b0390f35b634e487b7160e01b600052601160045260246000fd5b60405162461bcd60e51b81526020600482015260136024820152721350d48e881b9bc81cddd85c081b9959591959606a1b6044820152606490fd5b34610130576020366003190112610130576001600160a01b03610292610dd7565b166000526004602052604060002060ff81541660ff60026102b560018501610f38565b930154166102d760405193849315158452606060208501526060840190610e9c565b9060408301520390f35b3461013057600036600319011261013057600080600554905b818110610550575061030b826110c2565b916103196040519384610f17565b808352601f19610328826110c2565b01366020850137610338816110c2565b906103466040519283610f17565b808252601f19610355826110c2565b0160005b81811061053f57505061038461036e826110c2565b9161037c6040519384610f17565b8083526110c2565b602082019390601f19013685376000805b82811061045a576103b787878787604051948594606086526060860190610e01565b8481036020860152825180825260208201916020808360051b8301019501926000915b8383106104255750505050506020908483036040860152519182815201919060005b81811061040a575050500390f35b825115158452859450602093840193909201916001016103fc565b9193969750919394602080610446600193601f198682030187528a51610e9c565b9801930193019092889796959492936103da565b61046381610e6b565b60018060a01b0391549060031b1c16600052600460205260ff60406000205416610490575b600101610395565b906105376001916104a084610e6b565b848060a01b0391549060031b1c166104b8828b6110ff565b526104c284610e6b565b848060a01b0391549060031b1c1660005260046020526104e783604060002001610f38565b6104f182896110ff565b526104fc81886110ff565b5061050684610e6b565b848060a01b0391549060031b1c166000526004602052600360406000200154151561053182886110ff565b526110f0565b919050610488565b806060602080938701015201610359565b61055981610e6b565b60018060a01b0391549060031b1c16600052600460205260ff60406000205416610586575b6001016102fa565b916105926001916110f0565b92905061057e565b3461013057602036600319011261013057600435600554811015610130576105c3602091610e6b565b905460405160039290921b1c6001600160a01b03168152f35b34610130576000366003190112610130576003546040516001600160a01b039091168152602090f35b34610130576000366003190112610130576001546040516001600160a01b039091168152602090f35b3461013057608036600319011261013057610647610dd7565b6024356001600160401b03811161013057610666903690600401610e3e565b6044359160ff831680930361013057606435906001600160401b0382116101305736602383011215610130578160040135906001600160401b038211610130576024808401938360051b010195368711610130576106cf60018060a01b03600054163314611087565b6001600160a01b0316948515610aad5785600052600460205260ff60406000205416610a7357604051608081018181106001600160401b03821117610a5d57604052600181526001600160401b038611610a5d576040519061073b601f8801601f191660200183610f17565b86825236878501116101305786846020840137600060208884010152602081019182526040810192835261076e856110c2565b9261077c6040519485610f17565b85845260009987602086015b828210610a455750505060608201938452888a52600460205260408a209151151560ff801984541691161782556001820192519283516001600160401b038111610a31578b6107d78354610edd565b601f81116109f6575b505060208c601f831160011461098c579060039683610981575b50508160011b9160001990871b1c19161790555b60ff6002830191511660ff19825416179055019051908151916001600160401b03831161096d57600160401b831161096d576020908254848455808510610953575b500190885260208820885b838110610936575050600554915050600160401b8110156109225760209161088c8260016108b99401600555610e6b565b81546001600160a01b0360039290921b91821b19169089901b179055604080518181529690870191611066565b84810382860152828152019190855b8181106108fc5750505090807f13b3b436880dd9c89b3666de62d74448b273c5395e582d6ff837d443d294d932920390a280f35b909192602080600192838060a01b0361091488610ded565b1681520194019291016108c8565b634e487b7160e01b87526041600452602487fd5b82516001600160a01b03168183015560209092019160010161085b565b838b52828b206109679181019086016110d9565b8a610850565b634e487b7160e01b89526041600452602489fd5b015190508d806107fa565b9192939495601f198416858452828420935b8181106109de575091600193918560039998979694106109c6575b505050811b01905561080e565b015160001983891b60f8161c191690558d80806109b9565b9293602060018192878601518155019501930161099e565b60208285610a20945220601f840160051c81019160208510610a27575b601f0160051c01906110d9565b8b8d6107e0565b9091508190610a13565b634e487b7160e01b8c52604160045260248cfd5b60208091610a5284610ded565b815201910190610788565b634e487b7160e01b600052604160045260246000fd5b60405162461bcd60e51b81526020600482015260126024820152711350d48e88185b1c9958591e48185919195960721b6044820152606490fd5b60405162461bcd60e51b815260206004820152600f60248201526e26a1a91d103d32b937903a37b5b2b760891b6044820152606490fd5b3461013057602036600319011261013057610afd610dd7565b610b1260018060a01b03600054163314611087565b6001600160a01b03166000818152600460205260408120805460ff191690557fa829e9aaf7de261483d4977e8756635372a7a3d9654b9443a77386ea8884e36c9080a2005b346101305760403660031901126101305760246003610b74610dd7565b82359060018060a01b03166000526004602052610bb36040600020610b9c60ff825416610fdc565b610bac6040518095819301611023565b0383610f17565b8151610c5a57905b60025460405163d3e5aeb760e01b8152600481018490529360209185919082906001600160a01b03165afa928315610c4e57600093610c18575b5061021c9060405193849384526020840152606060408401526060830190610e01565b9092506020813d602011610c46575b81610c3460209383610f17565b8101031261013057519161021c610bf5565b3d9150610c27565b6040513d6000823e3d90fd5b90610bbb565b3461013057608036600319011261013057610c79610dd7565b6024356001600160a01b0381169190829003610130576064356001600160401b03811161013057610ccf7f5cd213fc772ec2b1f1e46c71dabb4735ca4a4e8d431dbf9c37485e95537a38e6913690600401610e3e565b929093610d01604051928392835260443560208401526060604084015260018060a01b03169533956060840191611066565b0390a3005b34610130576000366003190112610130576000546040516001600160a01b039091168152602090f35b34610130576020366003190112610130576001600160a01b03610d50610dd7565b166000526004602052610da96003610d8a6040600020610d7360ff825416610fdc565b610d836040518094819301611023565b0382610f17565b60018060a01b0360035416604051928392604084526040840190610e01565b9060208301520390f35b34610130576000366003190112610130576002546001600160a01b03168152602090f35b600435906001600160a01b038216820361013057565b35906001600160a01b038216820361013057565b906020808351928381520192019060005b818110610e1f5750505090565b82516001600160a01b0316845260209384019390920191600101610e12565b9181601f84011215610130578235916001600160401b038311610130576020838186019501011161013057565b600554811015610e8657600560005260206000200190600090565b634e487b7160e01b600052603260045260246000fd5b919082519283825260005b848110610ec8575050826000602080949584010152601f8019910116010190565b80602080928401015182828601015201610ea7565b90600182811c92168015610f0d575b6020831014610ef757565b634e487b7160e01b600052602260045260246000fd5b91607f1691610eec565b90601f801991011681019081106001600160401b03821117610a5d57604052565b9060405191826000825492610f4c84610edd565b8084529360018116908115610fba5750600114610f73575b50610f7192500383610f17565b565b90506000929192526020600020906000915b818310610f9e575050906020610f719282010138610f64565b6020919350806001915483858901015201910190918492610f85565b905060209250610f7194915060ff191682840152151560051b82010138610f64565b15610fe357565b60405162461bcd60e51b81526020600482015260186024820152771350d48e881d1bdad95b881b9bdd081cdd5c1c1bdc9d195960421b6044820152606490fd5b906020825491828152019160005260206000209060005b8181106110475750505090565b82546001600160a01b031684526020909301926001928301920161103a565b908060209392818452848401376000828201840152601f01601f1916010190565b1561108e57565b60405162461bcd60e51b815260206004820152600c60248201526b4d43523a206e6f742044414f60a01b6044820152606490fd5b6001600160401b038111610a5d5760051b60200190565b8181106110e4575050565b600081556001016110d9565b60001981146102205760010190565b8051821015610e865760209160051b01019056fea2646970667358221220af4f56b2568dee72c08e6b035acc2312e5ee713ca6e36813631ad2679b2c954d64736f6c634300081e0033",
  "linkReferences": {},
  "deployedLinkReferences": {}
}