{
  "_format": "hh-sol-artifact-1",
  "contractName": "SessionKeyManager",
  "sourceName": "contracts/MainstreamPayments.sol",
  "abi": [
    {
      "inputs": [
        {
          "internalType": "address",
          "name": "_dao",
          "type": "address"
        },
        {
          "internalType": "address",
          "name": "_vaultHub",
          "type": "address"
        }
      ],
      "stateMutability": "nonpayable",
      "type": "constructor"
    },
    {
      "anonymous": false,
      "inputs": [
        {
          "indexed": false,
          "internalType": "uint256",
          "name": "spendLimit",
          "type": "uint256"
        },
        {
          "indexed": false,
          "internalType": "uint64",
          "name": "duration",
          "type": "uint64"
        }
      ],
      "name": "DefaultLimitsUpdated",
      "type": "event"
    },
    {
      "anonymous": false,
      "inputs": [
        {
          "indexed": true,
          "internalType": "address",
          "name": "owner",
          "type": "address"
        },
        {
          "indexed": true,
          "internalType": "address",
          "name": "sessionKey",
          "type": "address"
        },
        {
          "indexed": false,
          "internalType": "uint256",
          "name": "spendLimit",
          "type": "uint256"
        },
        {
          "indexed": false,
          "internalType": "uint64",
          "name": "expiry",
          "type": "uint64"
        }
      ],
      "name": "SessionCreated",
      "type": "event"
    },
    {
      "anonymous": false,
      "inputs": [
        {
          "indexed": true,
          "internalType": "address",
          "name": "owner",
          "type": "address"
        },
        {
          "indexed": true,
          "internalType": "address",
          "name": "sessionKey",
          "type": "address"
        }
      ],
      "name": "SessionRevoked",
      "type": "event"
    },
    {
      "anonymous": false,
      "inputs": [
        {
          "indexed": true,
          "internalType": "address",
          "name": "owner",
          "type": "address"
        },
        {
          "indexed": true,
          "internalType": "address",
          "name": "sessionKey",
          "type": "address"
        },
        {
          "indexed": false,
          "internalType": "uint256",
          "name": "amount",
          "type": "uint256"
        },
        {
          "indexed": false,
          "internalType": "uint256",
          "name": "remaining",
          "type": "uint256"
        }
      ],
      "name": "SessionUsed",
      "type": "event"
    },
    {
      "inputs": [
        {
          "internalType": "address",
          "name": "",
          "type": "address"
        }
      ],
      "name": "authorizedSpendRecorders",
      "outputs": [
        {
          "internalType": "bool",
          "name": "",
          "type": "bool"
        }
      ],
      "stateMutability": "view",
      "type": "function"
    },
    {
      "inputs": [
        {
          "internalType": "address",
          "name": "sessionKey",
          "type": "address"
        },
        {
          "internalType": "uint256",
          "name": "amount",
          "type": "uint256"
        }
      ],
      "name": "canSpend",
      "outputs": [
        {
          "internalType": "bool",
          "name": "allowed",
          "type": "bool"
        },
        {
          "internalType": "string",
          "name": "reason",
          "type": "string"
        }
      ],
      "stateMutability": "view",
      "type": "function"
    },
    {
      "inputs": [
        {
          "internalType": "address",
          "name": "sessionKey",
          "type": "address"
        }
      ],
      "name": "createQuickSession",
      "outputs": [
        {
          "internalType": "uint64",
          "name": "expiry",
          "type": "uint64"
        }
      ],
      "stateMutability": "nonpayable",
      "type": "function"
    },
    {
      "inputs": [
        {
          "internalType": "address",
          "name": "sessionKey",
          "type": "address"
        },
        {
          "internalType": "uint256",
          "name": "spendLimit",
          "type": "uint256"
        },
        {
          "internalType": "uint64",
          "name": "duration",
          "type": "uint64"
        },
        {
          "internalType": "uint256",
          "name": "maxPerTx",
          "type": "uint256"
        }
      ],
      "name": "createSession",
      "outputs": [
        {
          "internalType": "uint64",
          "name": "expiry",
          "type": "uint64"
        }
      ],
      "stateMutability": "nonpayable",
      "type": "function"
    },
    {
      "inputs": [],
      "name": "dao",
      "outputs": [
        {
          "internalType": "address",
          "name": "",
          "type": "address"
        }
      ],
      "stateMutability": "view",
      "type": "function"
    },
    {
      "inputs": [],
      "name": "defaultDuration",
      "outputs": [
        {
          "internalType": "uint64",
          "name": "",
          "type": "uint64"
        }
      ],
      "stateMutability": "view",
      "type": "function"
    },
    {
      "inputs": [],
      "name": "defaultMaxPerTx",
      "outputs": [
        {
          "internalType": "uint256",
          "name": "",
          "type": "uint256"
        }
      ],
      "stateMutability": "view",
      "type": "function"
    },
    {
      "inputs": [],
      "name": "defaultSpendLimit",
      "outputs": [
        {
          "internalType": "uint256",
          "name": "",
          "type": "uint256"
        }
      ],
      "stateMutability": "view",
      "type": "function"
    },
    {
      "inputs": [
        {
          "internalType": "address",
          "name": "owner",
          "type": "address"
        }
      ],
      "name": "getOwnerSessions",
      "outputs": [
        {
          "internalType": "address[]",
          "name": "keys",
          "type": "address[]"
        },
        {
          "internalType": "uint256[]",
          "name": "spendLimits",
          "type": "uint256[]"
        },
        {
          "internalType": "uint256[]",
          "name": "spent",
          "type": "uint256[]"
        },
        {
          "internalType": "uint64[]",
          "name": "expiries",
          "type": "uint64[]"
        },
        {
          "internalType": "bool[]",
          "name": "active",
          "type": "bool[]"
        }
      ],
      "stateMutability": "view",
      "type": "function"
    },
    {
      "inputs": [
        {
          "internalType": "address",
          "name": "sessionKey",
          "type": "address"
        }
      ],
      "name": "getSessionOwner",
      "outputs": [
        {
          "internalType": "address",
          "name": "",
          "type": "address"
        }
      ],
      "stateMutability": "view",
      "type": "function"
    },
    {
      "inputs": [
        {
          "internalType": "address",
          "name": "sessionKey",
          "type": "address"
        }
      ],
      "name": "getSessionStatus",
      "outputs": [
        {
          "internalType": "address",
          "name": "owner",
          "type": "address"
        },
        {
          "internalType": "uint256",
          "name": "remaining",
          "type": "uint256"
        },
        {
          "internalType": "uint256",
          "name": "maxPerTransaction",
          "type": "uint256"
        },
        {
          "internalType": "uint64",
          "name": "expiresAt",
          "type": "uint64"
        },
        {
          "internalType": "bool",
          "name": "isActive",
          "type": "bool"
        }
      ],
      "stateMutability": "view",
      "type": "function"
    },
    {
      "inputs": [
        {
          "internalType": "address",
          "name": "sessionKey",
          "type": "address"
        },
        {
          "internalType": "uint256",
          "name": "amount",
          "type": "uint256"
        }
      ],
      "name": "recordSpend",
      "outputs": [
        {
          "internalType": "bool",
          "name": "",
          "type": "bool"
        }
      ],
      "stateMutability": "nonpayable",
      "type": "function"
    },
    {
      "inputs": [],
      "name": "revokeAllSessions",
      "outputs": [],
      "stateMutability": "nonpayable",
      "type": "function"
    },
    {
      "inputs": [
        {
          "internalType": "address",
          "name": "sessionKey",
          "type": "address"
        }
      ],
      "name": "revokeSession",
      "outputs": [],
      "stateMutability": "nonpayable",
      "type": "function"
    },
    {
      "inputs": [
        {
          "internalType": "address",
          "name": "",
          "type": "address"
        }
      ],
      "name": "sessions",
      "outputs": [
        {
          "internalType": "address",
          "name": "owner",
          "type": "address"
        },
        {
          "internalType": "uint256",
          "name": "spendLimit",
          "type": "uint256"
        },
        {
          "internalType": "uint256",
          "name": "spent",
          "type": "uint256"
        },
        {
          "internalType": "uint64",
          "name": "expiry",
          "type": "uint64"
        },
        {
          "internalType": "bool",
          "name": "revoked",
          "type": "bool"
        },
        {
          "internalType": "uint256",
          "name": "maxPerTx",
          "type": "uint256"
        }
      ],
      "stateMutability": "view",
      "type": "function"
    },
    {
      "inputs": [
        {
          "internalType": "address",
          "name": "recorder",
          "type": "address"
        },
        {
          "internalType": "bool",
          "name": "authorized",
          "type": "bool"
        }
      ],
      "name": "setAuthorizedRecorder",
      "outputs": [],
      "stateMutability": "nonpayable",
      "type": "function"
    },
    {
      "inputs": [
        {
          "internalType": "uint256",
          "name": "spendLimit",
          "type": "uint256"
        },
        {
          "internalType": "uint64",
          "name": "duration",
          "type": "uint64"
        },
        {
          "internalType": "uint256",
          "name": "maxPerTx",
          "type": "uint256"
        }
      ],
      "name": "setDefaultLimits",
      "outputs": [],
      "stateMutability": "nonpayable",
      "type": "function"
    },
    {
      "inputs": [],
      "name": "vaultHub",
      "outputs": [
        {
          "internalType": "contract IVaultHub",
          "name": "",
          "type": "address"
        }
      ],
      "stateMutability": "view",
      "type": "function"
    }
  ],
  "bytecode": "0x60803461011357601f61162d38819003918201601f19168301916001600160401b0383118484101761011857808492604094855283398101031261011357610052602061004b8361012e565b920161012e565b683635c9adc5dea00000600555600680546001600160401b0319166201518017905568056bc75e2d63100000600755906001600160a01b031680151580610101575b156100d05760018060a01b0319600054161760005560018060a01b031660018060a01b031960015416176001556040516114ea90816101438239f35b60405162461bcd60e51b8152602060048201526009602482015268534b4d3a207a65726f60b81b6044820152606490fd5b506001600160a01b0382161515610094565b600080fd5b634e487b7160e01b600052604160045260246000fd5b51906001600160a01b03821682036101135756fe6080604052600436101561001257600080fd5b60003560e01c80631881656b146110ee5780631c82fb6314610d055780631cfd8ded14610a965780631fa5d6a41461099c578063272d023a146108f95780632af7e2ea146108d257806330d2cb7c14610890578063378b8dea146107cb5780634162169f146107a2578063431a1b971461071d5780636dd6e80b146106f4578063869c1990146106b55780638b2b4272146105da5780639848d02514610526578063a7a7d3bc14610508578063eba3220c146103df578063f2511b78146103c15763ffefdf3b146100e257600080fd5b346103bc5760203660031901126103bc576001600160a01b03610103611169565b16600052600360205260406000206040518082602082945493848152019060005260206000209260005b81811061039a575050610142925003826111b3565b80519061014e8261146b565b9061015c60405192836111b3565b8282526101688361146b565b6020830190601f190136823761017d84611482565b9361018781611482565b6101908261146b565b9061019e60405192836111b3565b8282526101aa8361146b565b602083019490601f19013686376101c08461146b565b936101ce60405195866111b3565b8085526101da8161146b565b602086019790601f190136893760005b8281106102e05750505060405197889760a089019060a08a525180915260c08901929060005b8181106102be5750505091610231826020948a61023f9503868c015261117f565b9088820360408a015261117f565b918683036060880152519182815201929060005b81811061029c575050506020908483036080860152519182815201919060005b818110610281575050500390f35b82511515845285945060209384019390920191600101610273565b82516001600160401b0316855287965060209485019490920191600101610253565b82516001600160a01b031685528b9a5060209485019490920191600101610210565b600190818060a09d969798999a9b9c9d1b036102fc8285611457565b51166000526002602052600360406000208d61032a84868060a01b03610322828a611457565b511692611457565b52838101546103398489611457565b526002810154610349848b611457565b52015460ff6001600160401b0382169182610364858d611457565b5260401c16159081610390575b5061037c828b611457565b9015159052019998979695949392996101ea565b9050421038610371565b84546001600160a01b031683526001948501948694506020909301920161012d565b600080fd5b346103bc5760003660031901126103bc576020600754604051908152f35b346103bc5760003660031901126103bc5733600052600360205260406000206040518082602082945493848152019060005260206000209260005b8181106104e657505061042f925003826111b3565b60005b81518110156104e4576001906001600160a01b036104508285611457565b5116600052600260205260ff60036040600020015460401c1615610475575b01610432565b818060a01b036104858285611457565b5116600052600260205260036040600020018260401b60ff60401b19825416179055818060a01b036104b78285611457565b5116337f9a20fd73f3c4985be44f081964b55d63f69ed94995474740c82bfbff9d6ab5c4600080a361046f565b005b84546001600160a01b031683526001948501948694506020909301920161041a565b346103bc5760003660031901126103bc576020600554604051908152f35b346103bc5760603660031901126103bc576004356024356001600160401b038116918282036103bc577f2b8fc12291a1f1168218e46885b4b54c3ce3f2ab61fd3c21e26cdac03ad4721e9261058660018060a01b0360005416331461141c565b61059c69021e19e0c9bab24000008311156113b4565b6105ab62093a8082111561136f565b816005556001600160401b031960065416176006556044356007556105d5604051928392836113f6565b0390a1005b346103bc5760203660031901126103bc576105f3611169565b600554600654600754604051631c82fb6360e01b81526001600160a01b03909416600485015260248401929092526001600160401b0316604483015260648201526020816084816000305af19081156106a957600091610662575b6020826001600160401b0360405191168152f35b6020813d6020116106a1575b8161067b602093836111b3565b8101031261069d57516001600160401b038116810361069d579050602061064e565b5080fd5b3d915061066e565b6040513d6000823e3d90fd5b346103bc5760203660031901126103bc576001600160a01b036106d6611169565b166000526004602052602060ff604060002054166040519015158152f35b346103bc5760003660031901126103bc576001546040516001600160a01b039091168152602090f35b346103bc5760203660031901126103bc576001600160a01b0361073e611169565b16600052600260205260c0604060002060018060a01b038154169060ff60018201549160028101546004600383015492015493604051958652602086015260408501526001600160401b038116606085015260401c161515608083015260a0820152f35b346103bc5760003660031901126103bc576000546040516001600160a01b039091168152602090f35b346103bc5760203660031901126103bc576001600160a01b036107ec611169565b166000908152600260208190526040909120805491810154600182015460a0936001600160a01b031692918181106108815750506000905b600360048201549101549060ff6001600160401b0383169260401c16159283610876575b8361086c575b60405194855260208501526040840152606083015215156080820152f35b841515935061084e565b925081421092610848565b61088a9161140f565b90610824565b346103bc5760203660031901126103bc576001600160a01b036108b1611169565b166000526002602052602060018060a01b0360406000205416604051908152f35b346103bc5760003660031901126103bc5760206001600160401b0360065416604051908152f35b346103bc5760403660031901126103bc57610912611169565b602435908115158092036103bc5761093560018060a01b0360005416331461141c565b6001600160a01b0316801561096357600052600460205260406000209060ff80198354169116179055600080f35b60405162461bcd60e51b8152602060048201526011602482015270534b4d3a207a65726f206164647265737360781b6044820152606490fd5b346103bc5760203660031901126103bc576001600160a01b036109bd611169565b16600081815260026020526040902080546001600160a01b03163303610a6057600301805460ff8160401c16610a245760ff60401b1916600160401b179055337f9a20fd73f3c4985be44f081964b55d63f69ed94995474740c82bfbff9d6ab5c4600080a3005b60405162461bcd60e51b815260206004820152601460248201527314d2d34e88185b1c9958591e481c995d9bdad95960621b6044820152606490fd5b60405162461bcd60e51b815260206004820152600e60248201526d29a5a69d103737ba1037bbb732b960911b6044820152606490fd5b346103bc5760403660031901126103bc57610aaf611169565b6024359033600052600460205260ff6040600020541615610cc1576001600160a01b0390811660008181526002602052604090208054919391909216918215610c8357600381015460ff8160401c16610c47576001600160401b0316421015610c0b5760048101548211610bca57600281019182546001610b3083836111d4565b930154809311610b8a577f5d960612c7c55d293c0a44e9a992edf11e7d881d0d05412f3dc07de50782c32193604093610b6c84610b74946111d4565b80925561140f565b82519182526020820152a3602060405160018152f35b60405162461bcd60e51b815260206004820152601860248201527714d2d34e88195e18d959591cc81cdc195b99081b1a5b5a5d60421b6044820152606490fd5b60405162461bcd60e51b815260206004820152601960248201527814d2d34e88195e18d959591cc81c195c8b5d1e081b1a5b5a5d603a1b6044820152606490fd5b60405162461bcd60e51b815260206004820152601460248201527314d2d34e881cd95cdcda5bdb88195e1c1a5c995960621b6044820152606490fd5b60405162461bcd60e51b815260206004820152601460248201527314d2d34e881cd95cdcda5bdb881c995d9bdad95960621b6044820152606490fd5b60405162461bcd60e51b815260206004820152601660248201527514d2d34e881cd95cdcda5bdb881b9bdd08199bdd5b9960521b6044820152606490fd5b60405162461bcd60e51b815260206004820152601c60248201527b29a5a69d103737ba1030baba3437b934bd32b2103932b1b7b93232b960211b6044820152606490fd5b346103bc5760803660031901126103bc57610d1e611169565b6044356024356001600160401b0382168083036103bc579092606435926001600160a01b03909116918483156110b95733841461107e576000848152600260205260409020546001600160a01b031661104157600154604051630709df4560e01b815233600482015290602090829060249082906001600160a01b03165afa9081156106a957600091610ffc575b506001600160a01b031615610fc75715610fbd575b15610fab575b8215610fa1575b6001600160401b0316610de662093a8082111561136f565b610dfc69021e19e0c9bab24000008511156113b4565b6001600160401b03421601926001600160401b038411610f8b5760405160c081018181106001600160401b03821117610f75576040523381526004602082019483865260408301956000875260608401906001600160401b0389169788835260808601916000835260a0870194855288600052600260205260406000209660018060a01b0390511660018060a01b03198854161787555160018701555160028601556001600160401b03600386019251166001600160401b031983541617825551151581549060ff60401b9060401b169060ff60401b1916179055519101553360005260036020526040600020805490600160401b821015610f755760018201808255821015610f5f576020957ff5b9963b0cc7447cc023101661d14d324925cd589c57db590e19490d4e503a9092610f549260005287600020018560018060a01b03198254161790556040519182913395836113f6565b0390a3604051908152f35b634e487b7160e01b600052603260045260246000fd5b634e487b7160e01b600052604160045260246000fd5b634e487b7160e01b600052601160045260246000fd5b6007549250610dce565b506001600160401b0360065416610dc7565b6005549450610dc1565b60405162461bcd60e51b815260206004820152600d60248201526c14d2d34e881b9bc81d985d5b1d609a1b6044820152606490fd5b6020813d602011611039575b81611015602093836111b3565b8101031261069d5751906001600160a01b0382168203611036575087610dac565b80fd5b3d9150611008565b60405162461bcd60e51b815260206004820152601560248201527414d2d34e881ad95e48185b1c9958591e481d5cd959605a1b6044820152606490fd5b60405162461bcd60e51b815260206004820152601360248201527229a5a69d1031b0b73737ba1031329039b2b63360691b6044820152606490fd5b60405162461bcd60e51b815260206004820152600d60248201526c534b4d3a207a65726f206b657960981b6044820152606490fd5b346103bc5760403660031901126103bc5761111361110a611169565b602435906111e1565b6040519115158252604060208301528181519182604083015260005b8381106111515750508160006060809484010152601f80199101168101030190f35b6020828201810151606087840101528593500161112f565b600435906001600160a01b03821682036103bc57565b906020808351928381520192019060005b81811061119d5750505090565b8251845260209384019390920191600101611190565b90601f801991011681019081106001600160401b03821117610f7557604052565b91908201809211610f8b57565b6001600160a01b0390811660009081526002602052604090208054909291161561133b57600382015460ff8160401c16611308576001600160401b03164210156112d6576004820154811161129f5761124060019160028401546111d4565b9101541061126b576001906040516112596040826111b3565b60028152616f6b60f01b602082015290565b60009060405161127c6040826111b3565b6013815272195e18d959591cc81cdc195b99081b1a5b5a5d606a1b602082015290565b50506000906040516112b26040826111b3565b6014815273195e18d959591cc81c195c8b5d1e081b1a5b5a5d60621b602082015290565b50506000906040516112e96040826111b3565b600f81526e1cd95cdcda5bdb88195e1c1a5c9959608a1b602082015290565b50505060009060405161131c6040826111b3565b600f81526e1cd95cdcda5bdb881c995d9bdad959608a1b602082015290565b505060009060405161134e6040826111b3565b60118152701cd95cdcda5bdb881b9bdd08199bdd5b99607a1b602082015290565b1561137657565b60405162461bcd60e51b8152602060048201526016602482015275534b4d3a206475726174696f6e20746f6f206c6f6e6760501b6044820152606490fd5b156113bb57565b60405162461bcd60e51b81526020600482015260136024820152720a6969a7440d8d2dad2e840e8dede40d0d2ced606b1b6044820152606490fd5b9081526001600160401b03909116602082015260400190565b91908203918211610f8b57565b1561142357565b60405162461bcd60e51b815260206004820152600c60248201526b534b4d3a206e6f742044414f60a01b6044820152606490fd5b8051821015610f5f5760209160051b010190565b6001600160401b038111610f755760051b60200190565b9061148c8261146b565b61149960405191826111b3565b82815280926114aa601f199161146b565b019060203691013756fea2646970667358221220a95c63e7692e359edc604fdf6b6f9a378021d402cc1109715f2610a171ba05cc64736f6c634300081e0033",
  "linkReferences": {},
  "deployedLinkReferences": {}
}