{"abi":[{"type":"constructor","inputs":[{"name":"_vaultHub","type":"address","internalType":"address"},{"name":"_dao","type":"address","internalType":"address"}],"stateMutability":"nonpayable"},{"type":"function","name":"GRACE_PERIOD","inputs":[],"outputs":[{"name":"","type":"uint256","internalType":"uint256"}],"stateMutability":"view"},{"type":"function","name":"MAX_FAILED_PAYMENTS","inputs":[],"outputs":[{"name":"","type":"uint256","internalType":"uint256"}],"stateMutability":"view"},{"type":"function","name":"batchProcessPayments","inputs":[{"name":"subIds","type":"uint256[]","internalType":"uint256[]"}],"outputs":[{"name":"processed","type":"uint256","internalType":"uint256"},{"name":"failed","type":"uint256","internalType":"uint256"}],"stateMutability":"nonpayable"},{"type":"function","name":"canProcess","inputs":[{"name":"subId","type":"uint256","internalType":"uint256"}],"outputs":[{"name":"processable","type":"bool","internalType":"bool"},{"name":"reason","type":"string","internalType":"string"}],"stateMutability":"view"},{"type":"function","name":"cancelSubscription","inputs":[{"name":"subId","type":"uint256","internalType":"uint256"}],"outputs":[],"stateMutability":"nonpayable"},{"type":"function","name":"createSubscription","inputs":[{"name":"merchant","type":"address","internalType":"address"},{"name":"token","type":"address","internalType":"address"},{"name":"amount","type":"uint256","internalType":"uint256"},{"name":"interval","type":"uint256","internalType":"uint256"},{"name":"memo","type":"string","internalType":"string"}],"outputs":[{"name":"subId","type":"uint256","internalType":"uint256"}],"stateMutability":"nonpayable"},{"type":"function","name":"dao","inputs":[],"outputs":[{"name":"","type":"address","internalType":"address"}],"stateMutability":"view"},{"type":"function","name":"emergencyCancel","inputs":[{"name":"subId","type":"uint256","internalType":"uint256"}],"outputs":[],"stateMutability":"nonpayable"},{"type":"function","name":"getMerchantStats","inputs":[{"name":"merchant","type":"address","internalType":"address"}],"outputs":[{"name":"totalSubscriptions","type":"uint256","internalType":"uint256"},{"name":"activeCount","type":"uint256","internalType":"uint256"},{"name":"pausedCount","type":"uint256","internalType":"uint256"},{"name":"totalMRR","type":"uint256","internalType":"uint256"},{"name":"totalValuePerInterval","type":"uint256","internalType":"uint256"}],"stateMutability":"view"},{"type":"function","name":"getMerchantSubscriptions","inputs":[{"name":"merchant","type":"address","internalType":"address"}],"outputs":[{"name":"","type":"uint256[]","internalType":"uint256[]"}],"stateMutability":"view"},{"type":"function","name":"getNextPaymentInfo","inputs":[{"name":"subId","type":"uint256","internalType":"uint256"}],"outputs":[{"name":"nextPaymentTime","type":"uint256","internalType":"uint256"},{"name":"amount","type":"uint256","internalType":"uint256"},{"name":"isPaused","type":"bool","internalType":"bool"},{"name":"isInGracePeriod","type":"bool","internalType":"bool"},{"name":"graceTimeRemaining","type":"uint256","internalType":"uint256"},{"name":"failedPaymentCount","type":"uint256","internalType":"uint256"}],"stateMutability":"view"},{"type":"function","name":"getReadyForProcessing","inputs":[],"outputs":[{"name":"ready","type":"uint256[]","internalType":"uint256[]"}],"stateMutability":"view"},{"type":"function","name":"getSubscription","inputs":[{"name":"subId","type":"uint256","internalType":"uint256"}],"outputs":[{"name":"","type":"tuple","internalType":"struct SubscriptionManager.Subscription","components":[{"name":"subscriber","type":"address","internalType":"address"},{"name":"merchant","type":"address","internalType":"address"},{"name":"token","type":"address","internalType":"address"},{"name":"amount","type":"uint256","internalType":"uint256"},{"name":"interval","type":"uint256","internalType":"uint256"},{"name":"nextPayment","type":"uint256","internalType":"uint256"},{"name":"active","type":"bool","internalType":"bool"},{"name":"paused","type":"bool","internalType":"bool"},{"name":"pausedAt","type":"uint256","internalType":"uint256"},{"name":"graceEndTime","type":"uint256","internalType":"uint256"},{"name":"failedPayments","type":"uint256","internalType":"uint256"},{"name":"memo","type":"string","internalType":"string"}]}],"stateMutability":"view"},{"type":"function","name":"getSubscriptionsBatch","inputs":[{"name":"subIds","type":"uint256[]","internalType":"uint256[]"}],"outputs":[{"name":"results","type":"tuple[]","internalType":"struct SubscriptionManager.Subscription[]","components":[{"name":"subscriber","type":"address","internalType":"address"},{"name":"merchant","type":"address","internalType":"address"},{"name":"token","type":"address","internalType":"address"},{"name":"amount","type":"uint256","internalType":"uint256"},{"name":"interval","type":"uint256","internalType":"uint256"},{"name":"nextPayment","type":"uint256","internalType":"uint256"},{"name":"active","type":"bool","internalType":"bool"},{"name":"paused","type":"bool","internalType":"bool"},{"name":"pausedAt","type":"uint256","internalType":"uint256"},{"name":"graceEndTime","type":"uint256","internalType":"uint256"},{"name":"failedPayments","type":"uint256","internalType":"uint256"},{"name":"memo","type":"string","internalType":"string"}]}],"stateMutability":"view"},{"type":"function","name":"getUserSubscriptions","inputs":[{"name":"user","type":"address","internalType":"address"}],"outputs":[{"name":"","type":"uint256[]","internalType":"uint256[]"}],"stateMutability":"view"},{"type":"function","name":"modifySubscription","inputs":[{"name":"subId","type":"uint256","internalType":"uint256"},{"name":"newAmount","type":"uint256","internalType":"uint256"},{"name":"newInterval","type":"uint256","internalType":"uint256"}],"outputs":[],"stateMutability":"nonpayable"},{"type":"function","name":"pauseSubscription","inputs":[{"name":"subId","type":"uint256","internalType":"uint256"}],"outputs":[],"stateMutability":"nonpayable"},{"type":"function","name":"processPayment","inputs":[{"name":"subId","type":"uint256","internalType":"uint256"}],"outputs":[],"stateMutability":"nonpayable"},{"type":"function","name":"resumeSubscription","inputs":[{"name":"subId","type":"uint256","internalType":"uint256"}],"outputs":[],"stateMutability":"nonpayable"},{"type":"function","name":"setDAO","inputs":[{"name":"_dao","type":"address","internalType":"address"}],"outputs":[],"stateMutability":"nonpayable"},{"type":"function","name":"subCount","inputs":[],"outputs":[{"name":"","type":"uint256","internalType":"uint256"}],"stateMutability":"view"},{"type":"function","name":"subscriptions","inputs":[{"name":"","type":"uint256","internalType":"uint256"}],"outputs":[{"name":"subscriber","type":"address","internalType":"address"},{"name":"merchant","type":"address","internalType":"address"},{"name":"token","type":"address","internalType":"address"},{"name":"amount","type":"uint256","internalType":"uint256"},{"name":"interval","type":"uint256","internalType":"uint256"},{"name":"nextPayment","type":"uint256","internalType":"uint256"},{"name":"active","type":"bool","internalType":"bool"},{"name":"paused","type":"bool","internalType":"bool"},{"name":"pausedAt","type":"uint256","internalType":"uint256"},{"name":"graceEndTime","type":"uint256","internalType":"uint256"},{"name":"failedPayments","type":"uint256","internalType":"uint256"},{"name":"memo","type":"string","internalType":"string"}],"stateMutability":"view"},{"type":"function","name":"vaultHub","inputs":[],"outputs":[{"name":"","type":"address","internalType":"contract IVaultHub"}],"stateMutability":"view"},{"type":"event","name":"EmergencyCancelled","inputs":[{"name":"subId","type":"uint256","indexed":true,"internalType":"uint256"},{"name":"cancelledBy","type":"address","indexed":true,"internalType":"address"}],"anonymous":false},{"type":"event","name":"GracePeriodStarted","inputs":[{"name":"subId","type":"uint256","indexed":true,"internalType":"uint256"},{"name":"graceEndTime","type":"uint256","indexed":false,"internalType":"uint256"}],"anonymous":false},{"type":"event","name":"PaymentFailed","inputs":[{"name":"subId","type":"uint256","indexed":true,"internalType":"uint256"},{"name":"timestamp","type":"uint256","indexed":false,"internalType":"uint256"},{"name":"reason","type":"string","indexed":false,"internalType":"string"}],"anonymous":false},{"type":"event","name":"PaymentProcessed","inputs":[{"name":"subId","type":"uint256","indexed":true,"internalType":"uint256"},{"name":"timestamp","type":"uint256","indexed":false,"internalType":"uint256"}],"anonymous":false},{"type":"event","name":"SubscriptionCancelled","inputs":[{"name":"subId","type":"uint256","indexed":true,"internalType":"uint256"}],"anonymous":false},{"type":"event","name":"SubscriptionCreated","inputs":[{"name":"subId","type":"uint256","indexed":true,"internalType":"uint256"},{"name":"subscriber","type":"address","indexed":true,"internalType":"address"},{"name":"merchant","type":"address","indexed":true,"internalType":"address"},{"name":"amount","type":"uint256","indexed":false,"internalType":"uint256"},{"name":"interval","type":"uint256","indexed":false,"internalType":"uint256"}],"anonymous":false},{"type":"event","name":"SubscriptionModified","inputs":[{"name":"subId","type":"uint256","indexed":true,"internalType":"uint256"},{"name":"oldAmount","type":"uint256","indexed":false,"internalType":"uint256"},{"name":"newAmount","type":"uint256","indexed":false,"internalType":"uint256"},{"name":"oldInterval","type":"uint256","indexed":false,"internalType":"uint256"},{"name":"newInterval","type":"uint256","indexed":false,"internalType":"uint256"}],"anonymous":false},{"type":"event","name":"SubscriptionPaused","inputs":[{"name":"subId","type":"uint256","indexed":true,"internalType":"uint256"},{"name":"pausedBy","type":"address","indexed":true,"internalType":"address"}],"anonymous":false},{"type":"event","name":"SubscriptionResumed","inputs":[{"name":"subId","type":"uint256","indexed":true,"internalType":"uint256"},{"name":"resumedBy","type":"address","indexed":true,"internalType":"address"}],"anonymous":false},{"type":"error","name":"SM_AlreadyPaused","inputs":[]},{"type":"error","name":"SM_GracePeriodExpired","inputs":[]},{"type":"error","name":"SM_InactiveSubscription","inputs":[]},{"type":"error","name":"SM_InvalidAmount","inputs":[]},{"type":"error","name":"SM_InvalidInterval","inputs":[]},{"type":"error","name":"SM_InvalidMerchant","inputs":[]},{"type":"error","name":"SM_NotAuthorized","inputs":[]},{"type":"error","name":"SM_NotPaused","inputs":[]},{"type":"error","name":"SM_NotSubscriber","inputs":[]},{"type":"error","name":"SM_PaymentTooEarly","inputs":[]},{"type":"error","name":"SM_SubscriptionPaused","inputs":[]}],"bytecode":{"object":"0x6080346100d657601f6120ed38819003918201601f19168301916001600160401b038311848410176100da5780849260409485528339810103126100d657610052602061004b836100ee565b92016100ee565b60015f55906001600160a01b0316801561009d5760018060a01b0319600454161760045560018060a01b031660018060a01b03196003541617600355604051611fea90816101038239f35b60405162461bcd60e51b815260206004820152601160248201527029a69d103d32b937903b30bab63a243ab160791b6044820152606490fd5b5f80fd5b634e487b7160e01b5f52604160045260245ffd5b51906001600160a01b03821682036100d65756fe60806040526004361015610011575f80fd5b5f3560e01c8063023a584e1461123f5780631df0065c146111a057806321235083146111325780632d5bbf60146110595780632e6ca58814610f915780633026eca314610f765780633a2f848514610f155780634162169f14610eed57806341f23f0a14610e2c578063507e1c8014610a9d57806357742d141461093657806358798ca7146108555780636331f36e146107b55780636dd6e80b1461078d57806395ce367e14610752578063a0586416146105b5578063a5dbc2fe146104cd578063b435dee114610368578063c1a287e21461034b578063dc311dd314610269578063dd75cd9b146101bc578063e73a914c146101375763e74ae15b14610116575f80fd5b34610133575f366003190112610133576020600154604051908152f35b5f80fd5b346101335760203660031901126101335761015061141d565b60035490610168336001600160a01b03841614611f7a565b6001600160a01b0316908115610188576001600160a01b03191617600355005b60405162461bcd60e51b815260206004820152600c60248201526b534d3a207a65726f2044414f60a01b6044820152606490fd5b34610133576020366003190112610133576004356101e560018060a01b03600354163314611f7a565b805f526002602052600660405f2001805460ff81161561022d5760ff1916905533907f22a59c1ce58993fad7087722f6e3a34993f0bc6a33cb36765eeda54d24d3ea605f80a3005b60405162461bcd60e51b8152602060048201526014602482015273534d3a20616c726561647920696e61637469766560601b6044820152606490fd5b3461013357602036600319011261013357610282611f22565b506004355f52600260205261034760405f2061032d600a604051926102a68461131a565b80546001600160a01b03908116855260018201548116602086015260028201541660408501526003810154606085015260048101546080850152600581015460a0850152600681015460ff818116151560c0870152600891821c16151560e08601526007820154610100860152810154610120850152600981015461014085015201611359565b6101608201526040519182916020835260208301906114c0565b0390f35b34610133575f3660031901126101335760206040516203f4808152f35b346101335760203660031901126101335761038161141d565b5f5f5f5f905f92600180549660018060a01b0316905b878111156103c157505060a095506040519485526020850152604084015260608301526080820152f35b5f81815260026020526040902060018101546001600160a01b031683146103f2575b506103ed90611569565b610397565b966103fc90611569565b96600681015460ff8116610411575b506103e3565b91949160081c60ff1615610435575061042c6103ed91611569565b935b908961040b565b959261044390949194611569565b92600461045560038901548093611608565b970154908115801561046e575b5050506103ed9061042e565b62278d008293949892029280840462278d0014901517156104b9576104a5576103ed9261049c920490611608565b94908980610462565b634e487b7160e01b5f52601260045260245ffd5b634e487b7160e01b5f52601160045260245ffd5b34610133576020366003190112610133576104e661141d565b600180546001600160a01b0390921691905f905b82811115610571575061050c9061158f565b915f9060015b8381111561052857604051806103478782611433565b5f8181526002602052604090206001015461055291906001600160a01b0316831461055757611569565b610512565b8061056b61056486611569565b95886115c1565b52611569565b5f818152600260205260409020600101546001600160a01b031684146105a0575b61059b90611569565b6104fa565b906105ad61059b91611569565b919050610592565b34610133576105c33661146c565b906105cd82611577565b916105db6040519384611337565b808352601f196105ea82611577565b015f5b81811061073b5750505f5b81811061066657836040518091602082016020835281518091526040830190602060408260051b8601019301915f905b82821061063757505050500390f35b919360019193955060206106568192603f198a820301865288516114c0565b9601920192018594939192610628565b806106746001928486611c5b565b355f52600260205260405f20610719600a604051926106928461131a565b805460a087811b88900391821686528288015482166020870152600283015490911660408601526003820154606086015260048201546080860152600582015490850152600681015460ff818116151560c0870152600891821c16151560e08601526007820154610100860152810154610120850152600981015461014085015201611359565b61016082015261072982876115c1565b5261073481866115c1565b50016105f8565b602090610746611f22565b828288010152016105ed565b346101335760203660031901126101335761076e600435611c6b565b90610347604051928392151583526040602084015260408301906113f9565b34610133575f366003190112610133576004546040516001600160a01b039091168152602090f35b34610133576107c33661146c565b5f905f905f905b8082106107e1576040848482519182526020820152f35b90916107ee838387611c5b565b35303b156101335760405190633a2f848560e01b825260048201525f8160248183305af19081610845575b5061083257610829600191611569565b925b01906107ca565b919261083f600191611569565b9361082b565b5f61084f91611337565b86610819565b34610133576060366003190112610133576004355f818152600260205260409020805460443591602435916001600160a01b031633036109275760ff6006820154161561091857811561090957610e1083106108fa577fca78c63a3225ad2649c64696b31c29ccfa026dd484df49c2fdd2af059fe9064e92608092600383019082600483549501828154945555604051938452602084015260408301526060820152a2005b63767b6e2160e11b5f5260045ffd5b63ffcc0bfd60e01b5f5260045ffd5b639ac51c2f60e01b5f5260045ffd5b635ad3091560e11b5f5260045ffd5b34610133575f366003190112610133575f600190600154915b82811115610a0f57506109619061158f565b905f60015b8281111561097c57604051806103478682611433565b806109ae915f52600260205260405f20600681015460ff81169081610a00575b50806109f2575b6109b3575b50611569565b610966565b6008015480159081156109e7575b506109cd575b856109a8565b806109e16109da85611569565b94876115c1565b526109c7565b9050421115866109c1565b5060058101544210156109a3565b60ff915060081c16158761099c565b805f52600260205260405f20600681015460ff81169081610a8e575b5080610a80575b610a46575b50610a4190611569565b61094f565b600801548015908115610a75575b50610a60575b83610a37565b90610a6d610a4191611569565b919050610a5a565b905042111584610a54565b506005810154421015610a32565b60ff915060081c161585610a2b565b346101335760a036600319011261013357610ab661141d565b6024356001600160a01b03811691908290036101335767ffffffffffffffff60843511610133573660236084350112156101335767ffffffffffffffff60843560040135116101335736602460843560040135608435010111610133576001600160a01b03811615610e1d576044351561090957610e10606435106108fa57610b40600154611569565b908160015560405192610b528461131a565b3384526001600160a01b03821660208501526040840152604435606084015260643560808401524260a0840152600160c08401525f60e0840181905261010084018190526101208401819052610140840152610bb360046084350135611615565b610bc06040519182611337565b60843560048101358083529060240160208301375f60046084358101358301602090810183905261016087019384528583526002808252604093849020885181546001600160a01b03199081166001600160a01b03928316178355938a01516001830180548616918316919091179055948901519181018054909316919094161790556060860151600383015560808601519082015560a0850151600582015560c085015160068201805460e088015161ffff1990911660ff9315159390931692909217911515600890811b61ff00169290921790556101008601516007830155610120860151908201556101409094015160098501555180519093600a019067ffffffffffffffff8111610e0957610cd982546112e2565b601f8111610dc4575b50806020958690601f8311600114610d62575f92610d57575b50508160011b915f199060031b1c19161790555b6040519060443582526064358483015260018060a01b031690827f11a7acdb40f12388db0682ce7cdb5ffb4d01939a9b0cf653f7c1af7c2f238ad860403393a4604051908152f35b015190508680610cfb565b5f8581528281209350601f198516905b818110610dad5750908460019594939210610d95575b505050811b019055610d0f565b01515f1960f88460031b161c19169055868080610d88565b929389600181928786015181550195019301610d72565b825f5260205f20601f830160051c81019160208410610dff575b601f0160051c01905b818110610df45750610ce2565b5f8155600101610de7565b9091508190610dde565b634e487b7160e01b5f52604160045260245ffd5b63272dc68d60e01b5f5260045ffd5b3461013357602036600319011261013357600435805f52600260205260405f2060068101805460ff8116156109185760ff8160081c16610ede5782546001600160a01b031633141580610ec7575b610eb8576101009061ff00191617905560074291015533907f25a87732c0536735f3ab7dd339abd21dd0ef78059a500c3927a6cfeb98f906945f80a3005b6328dedf5360e21b5f5260045ffd5b5060018301546001600160a01b0316331415610e7a565b63784d815760e01b5f5260045ffd5b34610133575f366003190112610133576003546040516001600160a01b039091168152602090f35b346101335760203660031901126101335760015f5403610f445760025f55610f3e600435611697565b60015f55005b60405162461bcd60e51b815260206004820152600a6024820152697265656e7472616e637960b01b6044820152606490fd5b34610133575f36600319011261013357602060405160038152f35b3461013357602036600319011261013357610faa61141d565b600180546001600160a01b0390921691905f905b828111156110185750610fd09061158f565b915f9060015b83811115610fec57604051806103478782611433565b5f8181526002602052604090205461101391906001600160a01b0316831461055757611569565b610fd6565b5f818152600260205260409020546001600160a01b03168414611044575b61103f90611569565b610fbe565b9061105161103f91611569565b919050611036565b34610133576020366003190112610133576004355f52600260205260405f2060018060a01b0381541661034760018060a01b036001840154169260018060a01b03600282015416906003810154600482015460ff60058401546006850154906007860154936008870154956110d5600a60098a01549901611359565b986040519c8d9c8d5260208d015260408c015260608b015260808a015260a0890152818116151560c089015260081c16151560e08701526101008601526101208501526101408401526101806101608401526101808301906113f9565b34610133576020366003190112610133576004355f818152600260205260409020546001600160a01b0316330361092757805f526002602052600660405f200160ff1981541690557fbd2bcea75d16a85f005cd83447e0de57341bf926fe7419e6d553663e91ab4da75f80a2005b34610133576020366003190112610133576004355f52600260205260405f206005810154600382015460ff600684015460081c16926008810154938415159081611233575b42861115611226574286039586116104b957600960c096935b01549360405195865260208601521515604085015215156060840152608083015260a0820152f35b60c0955060095f936111fe565b905084421115906111e5565b3461013357602036600319011261013357600435805f52600260205260405f20600681019081549160ff8316156109185760ff8360081c16156112d35781546001600160a01b031633036109275760059261ff001916905501805442116112ca575b5033907fd13b5f8d2e4901890b0c4487e78268b05e17db24ed2b23450caa809f66b245855f80a3005b429055816112a1565b63aab6c7ff60e01b5f5260045ffd5b90600182811c92168015611310575b60208310146112fc57565b634e487b7160e01b5f52602260045260245ffd5b91607f16916112f1565b610180810190811067ffffffffffffffff821117610e0957604052565b90601f8019910116810190811067ffffffffffffffff821117610e0957604052565b9060405191825f82549261136c846112e2565b80845293600181169081156113d75750600114611393575b5061139192500383611337565b565b90505f9291925260205f20905f915b8183106113bb575050906020611391928201015f611384565b60209193508060019154838589010152019101909184926113a2565b90506020925061139194915060ff191682840152151560051b8201015f611384565b805180835260209291819084018484015e5f828201840152601f01601f1916010190565b600435906001600160a01b038216820361013357565b60206040818301928281528451809452019201905f5b8181106114565750505090565b8251845260209384019390920191600101611449565b9060206003198301126101335760043567ffffffffffffffff811161013357826023820112156101335780600401359267ffffffffffffffff84116101335760248460051b83010111610133576024019190565b906101806101606115669360018060a01b03815116845260018060a01b03602082015116602085015260018060a01b036040820151166040850152606081015160608501526080810151608085015260a081015160a085015260c0810151151560c085015260e0810151151560e08501526101008101516101008501526101208101516101208501526101408101516101408501520151918161016082015201906113f9565b90565b5f1981146104b95760010190565b67ffffffffffffffff8111610e095760051b60200190565b9061159982611577565b6115a66040519182611337565b82815280926115b7601f1991611577565b0190602036910137565b80518210156115d55760209160051b010190565b634e487b7160e01b5f52603260045260245ffd5b9081602091031261013357516001600160a01b03811681036101335790565b919082018092116104b957565b67ffffffffffffffff8111610e0957601f01601f191660200190565b60405190611640604083611337565b6014825273696e73756666696369656e742062616c616e636560601b6020830152565b60405190611672604083611337565b6016825275696e73756666696369656e7420616c6c6f77616e636560501b6020830152565b805f52600260205260405f206006810190815460ff8116156109185760081c60ff16611c4c576005810191825490814210611c3d57600883019384549283159384159081611c33575b50611bff57600480548654604051630709df4560e01b81526001600160a01b03918216938101939093529197911695906020886024818a5afa978815611afd575f98611bde575b50602060018060a01b036001840154166024604051809a8193630709df4560e01b835260048301525afa968715611afd575f97611bad575b506001600160a01b038816968715611b78576001600160a01b0316958615611b3f576002830154604051636eb1769f60e11b81526001600160a01b039a8b166004820152306024820152991698906020826044818d5afa968715611afd578a925f98611b08575b5060208a6024604051809681936370a0823160e01b835260048301525afa928315611afd575f93611ac9575b5060038501548098108881948215611abf575b5050611949575050509261182e5f98969360048a9997948a809855876009820155015490611608565b90556040519160208301946323b872dd60e01b865260248401526044830152606482015260648152611861608482611337565b51925af13d15611942573d61187581611615565b906118836040519283611337565b81523d5f602083013e5b8161190a575b50156118c5577feee6595b95458aeb5d6b0f0f282dcb44a1378b4547bfe73681dfc0b012985e906020604051428152a2565b60405162461bcd60e51b815260206004820152601e60248201527f5361666545524332303a207472616e7366657246726f6d206661696c656400006044820152606490fd5b805180159250821561191f575b50505f611893565b819250906020918101031261013357602001518015158103610133575f80611917565b606061188d565b96509650975095506003925060099150016119648154611569565b8091551015611a3757506119f5575b50156119c4577f9ed3f3d1b1caea0fc65cc599a37dd011736043d69e24ce1e335102ce14a9a5c06119bf6119a5611663565b6040519182914283526040602084015260408301906113f9565b0390a2565b7f9ed3f3d1b1caea0fc65cc599a37dd011736043d69e24ce1e335102ce14a9a5c06119bf6119f0611631565b6119a5565b6203f48042018042116104b9576020817f850e821388cbf246fb93b12357651e23887c72f848742c21dbff137031b1356b92869455604051908152a25f611973565b9250505060ff198154169055807f9ed3f3d1b1caea0fc65cc599a37dd011736043d69e24ce1e335102ce14a9a5c060806040514281526040602082015260146040820152731b585e0819985a5b1d5c995cc81c995858da195960621b6060820152a27fbd2bcea75d16a85f005cd83447e0de57341bf926fe7419e6d553663e91ab4da75f80a2565b109050885f611805565b9092506020813d602011611af5575b81611ae560209383611337565b810103126101335751915f6117f2565b3d9150611ad8565b6040513d5f823e3d90fd5b925096506020823d602011611b37575b81611b2560209383611337565b8101031261013357899151965f6117c6565b3d9150611b18565b60405162461bcd60e51b81526020600482015260116024820152701b9bc81b595c98da185b9d081d985d5b1d607a1b6044820152606490fd5b60405162461bcd60e51b815260206004820152600d60248201526c1b9bc81d5cd95c881d985d5b1d609a1b6044820152606490fd5b611bd091975060203d602011611bd7575b611bc88183611337565b8101906115e9565b955f61175f565b503d611bbe565b611bf891985060203d602011611bd757611bc88183611337565b965f611727565b867fbd2bcea75d16a85f005cd83447e0de57341bf926fe7419e6d553663e91ab4da75f80a2630fb7e4c160e31b5f5260045ffd5b905042115f6116e0565b631773760360e01b5f5260045ffd5b6375e0ef7360e11b5f5260045ffd5b91908110156115d55760051b0190565b5f52600260205260405f20600681015460ff811615611ef85760081c60ff16611ed15760058101544210611ea75760088101548015159081611e9d575b50611e6f57600480548254604051630709df4560e01b81526001600160a01b039182169381019390935260209183916024918391165afa908115611afd575f91611e50575b506001600160a01b038116918215611e25576002810154604051636eb1769f60e11b81526001600160a01b03938416600482015230602482015293921691602084604481865afa938415611afd575f94611df0575b506020906024604051809581936370a0823160e01b835260048301525afa918215611afd575f92611dbb575b5060030154809210611daf5710611da557600190604051611d90604082611337565b6005815264726561647960d81b602082015290565b5f90611566611631565b50505f90611566611663565b9091506020813d602011611de8575b81611dd760209383611337565b810103126101335751906003611d6e565b3d9150611dca565b9093506020813d602011611e1d575b81611e0c60209383611337565b810103126101335751926020611d42565b3d9150611dff565b5050505f90604051611e38604082611337565b60088152671b9bc81d985d5b1d60c21b602082015290565b611e69915060203d602011611bd757611bc88183611337565b5f611ced565b505f90604051611e80604082611337565b600d81526c19dc9858d948195e1c1a5c9959609a1b602082015290565b905042115f611ca8565b505f90604051611eb8604082611337565b6009815268746f6f206561726c7960b81b602082015290565b505f90604051611ee2604082611337565b60068152651c185d5cd95960d21b602082015290565b50505f90604051611f0a604082611337565b6008815267696e61637469766560c01b602082015290565b60405190611f2f8261131a565b6060610160835f81525f60208201525f60408201525f838201525f60808201525f60a08201525f60c08201525f60e08201525f6101008201525f6101208201525f6101408201520152565b15611f8157565b60405162461bcd60e51b815260206004820152600b60248201526a534d3a206e6f742044414f60a81b6044820152606490fdfea2646970667358221220a29a5612b61a2bbebbd27feea0c65736c2a5a9c8e75e21f85e35f790d2169c4264736f6c634300081e0033","linkReferences":{}},"methodIdentifiers":{"GRACE_PERIOD()":"c1a287e2","MAX_FAILED_PAYMENTS()":"3026eca3","batchProcessPayments(uint256[])":"6331f36e","canProcess(uint256)":"95ce367e","cancelSubscription(uint256)":"21235083","createSubscription(address,address,uint256,uint256,string)":"507e1c80","dao()":"4162169f","emergencyCancel(uint256)":"dd75cd9b","getMerchantStats(address)":"b435dee1","getMerchantSubscriptions(address)":"a5dbc2fe","getNextPaymentInfo(uint256)":"1df0065c","getReadyForProcessing()":"57742d14","getSubscription(uint256)":"dc311dd3","getSubscriptionsBatch(uint256[])":"a0586416","getUserSubscriptions(address)":"2e6ca588","modifySubscription(uint256,uint256,uint256)":"58798ca7","pauseSubscription(uint256)":"41f23f0a","processPayment(uint256)":"3a2f8485","resumeSubscription(uint256)":"023a584e","setDAO(address)":"e73a914c","subCount()":"e74ae15b","subscriptions(uint256)":"2d5bbf60","vaultHub()":"6dd6e80b"},"id":25}