{"abi":[{"type":"constructor","inputs":[{"name":"_vaultHub","type":"address","internalType":"address"},{"name":"_dao","type":"address","internalType":"address"},{"name":"_seer","type":"address","internalType":"address"}],"stateMutability":"nonpayable"},{"type":"function","name":"GRACE_PERIOD","inputs":[],"outputs":[{"name":"","type":"uint256","internalType":"uint256"}],"stateMutability":"view"},{"type":"function","name":"MAX_FAILED_PAYMENTS","inputs":[],"outputs":[{"name":"","type":"uint256","internalType":"uint256"}],"stateMutability":"view"},{"type":"function","name":"SUBSCRIPTION_MERCHANT_REWARD","inputs":[],"outputs":[{"name":"","type":"uint16","internalType":"uint16"}],"stateMutability":"view"},{"type":"function","name":"SUBSCRIPTION_PAYER_REWARD","inputs":[],"outputs":[{"name":"","type":"uint16","internalType":"uint16"}],"stateMutability":"view"},{"type":"function","name":"batchProcessPayments","inputs":[{"name":"subIds","type":"uint256[]","internalType":"uint256[]"}],"outputs":[{"name":"processed","type":"uint256","internalType":"uint256"},{"name":"failed","type":"uint256","internalType":"uint256"}],"stateMutability":"nonpayable"},{"type":"function","name":"canProcess","inputs":[{"name":"subId","type":"uint256","internalType":"uint256"}],"outputs":[{"name":"processable","type":"bool","internalType":"bool"},{"name":"reason","type":"string","internalType":"string"}],"stateMutability":"view"},{"type":"function","name":"cancelSubscription","inputs":[{"name":"subId","type":"uint256","internalType":"uint256"}],"outputs":[],"stateMutability":"nonpayable"},{"type":"function","name":"createSubscription","inputs":[{"name":"merchant","type":"address","internalType":"address"},{"name":"token","type":"address","internalType":"address"},{"name":"amount","type":"uint256","internalType":"uint256"},{"name":"interval","type":"uint256","internalType":"uint256"},{"name":"memo","type":"string","internalType":"string"}],"outputs":[{"name":"subId","type":"uint256","internalType":"uint256"}],"stateMutability":"nonpayable"},{"type":"function","name":"dao","inputs":[],"outputs":[{"name":"","type":"address","internalType":"address"}],"stateMutability":"view"},{"type":"function","name":"emergencyCancel","inputs":[{"name":"subId","type":"uint256","internalType":"uint256"}],"outputs":[],"stateMutability":"nonpayable"},{"type":"function","name":"getMerchantStats","inputs":[{"name":"merchant","type":"address","internalType":"address"}],"outputs":[{"name":"totalSubscriptions","type":"uint256","internalType":"uint256"},{"name":"activeCount","type":"uint256","internalType":"uint256"},{"name":"pausedCount","type":"uint256","internalType":"uint256"},{"name":"totalMRR","type":"uint256","internalType":"uint256"},{"name":"totalValuePerInterval","type":"uint256","internalType":"uint256"}],"stateMutability":"view"},{"type":"function","name":"getMerchantSubscriptions","inputs":[{"name":"merchant","type":"address","internalType":"address"}],"outputs":[{"name":"","type":"uint256[]","internalType":"uint256[]"}],"stateMutability":"view"},{"type":"function","name":"getNextPaymentInfo","inputs":[{"name":"subId","type":"uint256","internalType":"uint256"}],"outputs":[{"name":"nextPaymentTime","type":"uint256","internalType":"uint256"},{"name":"amount","type":"uint256","internalType":"uint256"},{"name":"isPaused","type":"bool","internalType":"bool"},{"name":"isInGracePeriod","type":"bool","internalType":"bool"},{"name":"graceTimeRemaining","type":"uint256","internalType":"uint256"},{"name":"failedPaymentCount","type":"uint256","internalType":"uint256"}],"stateMutability":"view"},{"type":"function","name":"getReadyForProcessing","inputs":[],"outputs":[{"name":"ready","type":"uint256[]","internalType":"uint256[]"}],"stateMutability":"view"},{"type":"function","name":"getSubscription","inputs":[{"name":"subId","type":"uint256","internalType":"uint256"}],"outputs":[{"name":"","type":"tuple","internalType":"struct SubscriptionManager.Subscription","components":[{"name":"subscriber","type":"address","internalType":"address"},{"name":"merchant","type":"address","internalType":"address"},{"name":"token","type":"address","internalType":"address"},{"name":"amount","type":"uint256","internalType":"uint256"},{"name":"interval","type":"uint256","internalType":"uint256"},{"name":"nextPayment","type":"uint256","internalType":"uint256"},{"name":"active","type":"bool","internalType":"bool"},{"name":"paused","type":"bool","internalType":"bool"},{"name":"pausedAt","type":"uint256","internalType":"uint256"},{"name":"graceEndTime","type":"uint256","internalType":"uint256"},{"name":"failedPayments","type":"uint256","internalType":"uint256"},{"name":"memo","type":"string","internalType":"string"}]}],"stateMutability":"view"},{"type":"function","name":"getSubscriptionsBatch","inputs":[{"name":"subIds","type":"uint256[]","internalType":"uint256[]"}],"outputs":[{"name":"results","type":"tuple[]","internalType":"struct SubscriptionManager.Subscription[]","components":[{"name":"subscriber","type":"address","internalType":"address"},{"name":"merchant","type":"address","internalType":"address"},{"name":"token","type":"address","internalType":"address"},{"name":"amount","type":"uint256","internalType":"uint256"},{"name":"interval","type":"uint256","internalType":"uint256"},{"name":"nextPayment","type":"uint256","internalType":"uint256"},{"name":"active","type":"bool","internalType":"bool"},{"name":"paused","type":"bool","internalType":"bool"},{"name":"pausedAt","type":"uint256","internalType":"uint256"},{"name":"graceEndTime","type":"uint256","internalType":"uint256"},{"name":"failedPayments","type":"uint256","internalType":"uint256"},{"name":"memo","type":"string","internalType":"string"}]}],"stateMutability":"view"},{"type":"function","name":"getUserSubscriptions","inputs":[{"name":"user","type":"address","internalType":"address"}],"outputs":[{"name":"","type":"uint256[]","internalType":"uint256[]"}],"stateMutability":"view"},{"type":"function","name":"modifySubscription","inputs":[{"name":"subId","type":"uint256","internalType":"uint256"},{"name":"newAmount","type":"uint256","internalType":"uint256"},{"name":"newInterval","type":"uint256","internalType":"uint256"}],"outputs":[],"stateMutability":"nonpayable"},{"type":"function","name":"pauseSubscription","inputs":[{"name":"subId","type":"uint256","internalType":"uint256"}],"outputs":[],"stateMutability":"nonpayable"},{"type":"function","name":"processPayment","inputs":[{"name":"subId","type":"uint256","internalType":"uint256"}],"outputs":[],"stateMutability":"nonpayable"},{"type":"function","name":"resumeSubscription","inputs":[{"name":"subId","type":"uint256","internalType":"uint256"}],"outputs":[],"stateMutability":"nonpayable"},{"type":"function","name":"seer","inputs":[],"outputs":[{"name":"","type":"address","internalType":"contract ISeer_SM"}],"stateMutability":"view"},{"type":"function","name":"setDAO","inputs":[{"name":"_dao","type":"address","internalType":"address"}],"outputs":[],"stateMutability":"nonpayable"},{"type":"function","name":"setSeer","inputs":[{"name":"_seer","type":"address","internalType":"address"}],"outputs":[],"stateMutability":"nonpayable"},{"type":"function","name":"subCount","inputs":[],"outputs":[{"name":"","type":"uint256","internalType":"uint256"}],"stateMutability":"view"},{"type":"function","name":"subscriptions","inputs":[{"name":"","type":"uint256","internalType":"uint256"}],"outputs":[{"name":"subscriber","type":"address","internalType":"address"},{"name":"merchant","type":"address","internalType":"address"},{"name":"token","type":"address","internalType":"address"},{"name":"amount","type":"uint256","internalType":"uint256"},{"name":"interval","type":"uint256","internalType":"uint256"},{"name":"nextPayment","type":"uint256","internalType":"uint256"},{"name":"active","type":"bool","internalType":"bool"},{"name":"paused","type":"bool","internalType":"bool"},{"name":"pausedAt","type":"uint256","internalType":"uint256"},{"name":"graceEndTime","type":"uint256","internalType":"uint256"},{"name":"failedPayments","type":"uint256","internalType":"uint256"},{"name":"memo","type":"string","internalType":"string"}],"stateMutability":"view"},{"type":"function","name":"vaultHub","inputs":[],"outputs":[{"name":"","type":"address","internalType":"contract IVaultHub"}],"stateMutability":"view"},{"type":"event","name":"EmergencyCancelled","inputs":[{"name":"subId","type":"uint256","indexed":true,"internalType":"uint256"},{"name":"cancelledBy","type":"address","indexed":true,"internalType":"address"}],"anonymous":false},{"type":"event","name":"GracePeriodStarted","inputs":[{"name":"subId","type":"uint256","indexed":true,"internalType":"uint256"},{"name":"graceEndTime","type":"uint256","indexed":false,"internalType":"uint256"}],"anonymous":false},{"type":"event","name":"PaymentFailed","inputs":[{"name":"subId","type":"uint256","indexed":true,"internalType":"uint256"},{"name":"timestamp","type":"uint256","indexed":false,"internalType":"uint256"},{"name":"reason","type":"string","indexed":false,"internalType":"string"}],"anonymous":false},{"type":"event","name":"PaymentProcessed","inputs":[{"name":"subId","type":"uint256","indexed":true,"internalType":"uint256"},{"name":"timestamp","type":"uint256","indexed":false,"internalType":"uint256"}],"anonymous":false},{"type":"event","name":"SubscriptionCancelled","inputs":[{"name":"subId","type":"uint256","indexed":true,"internalType":"uint256"}],"anonymous":false},{"type":"event","name":"SubscriptionCreated","inputs":[{"name":"subId","type":"uint256","indexed":true,"internalType":"uint256"},{"name":"subscriber","type":"address","indexed":true,"internalType":"address"},{"name":"merchant","type":"address","indexed":true,"internalType":"address"},{"name":"amount","type":"uint256","indexed":false,"internalType":"uint256"},{"name":"interval","type":"uint256","indexed":false,"internalType":"uint256"}],"anonymous":false},{"type":"event","name":"SubscriptionModified","inputs":[{"name":"subId","type":"uint256","indexed":true,"internalType":"uint256"},{"name":"oldAmount","type":"uint256","indexed":false,"internalType":"uint256"},{"name":"newAmount","type":"uint256","indexed":false,"internalType":"uint256"},{"name":"oldInterval","type":"uint256","indexed":false,"internalType":"uint256"},{"name":"newInterval","type":"uint256","indexed":false,"internalType":"uint256"}],"anonymous":false},{"type":"event","name":"SubscriptionPaused","inputs":[{"name":"subId","type":"uint256","indexed":true,"internalType":"uint256"},{"name":"pausedBy","type":"address","indexed":true,"internalType":"address"}],"anonymous":false},{"type":"event","name":"SubscriptionResumed","inputs":[{"name":"subId","type":"uint256","indexed":true,"internalType":"uint256"},{"name":"resumedBy","type":"address","indexed":true,"internalType":"address"}],"anonymous":false},{"type":"error","name":"SM_AlreadyPaused","inputs":[]},{"type":"error","name":"SM_GracePeriodExpired","inputs":[]},{"type":"error","name":"SM_InactiveSubscription","inputs":[]},{"type":"error","name":"SM_InvalidAmount","inputs":[]},{"type":"error","name":"SM_InvalidInterval","inputs":[]},{"type":"error","name":"SM_InvalidMerchant","inputs":[]},{"type":"error","name":"SM_NotAuthorized","inputs":[]},{"type":"error","name":"SM_NotPaused","inputs":[]},{"type":"error","name":"SM_NotSubscriber","inputs":[]},{"type":"error","name":"SM_PaymentTooEarly","inputs":[]},{"type":"error","name":"SM_SubscriptionPaused","inputs":[]}],"bytecode":{"object":"0x60803461010857601f6122ed38819003918201601f19168301916001600160401b0383118484101761010c578084926060946040528339810103126101085761004781610120565b90610060604061005960208401610120565b9201610120565b60015f55916001600160a01b031680156100cf57600480546001600160a01b0319908116929092179055600380549091166001600160a01b0392831617905516806100b5575b6040516121b890816101358239f35b600580546001600160a01b0319169190911790555f6100a6565b60405162461bcd60e51b815260206004820152601160248201527029a69d103d32b937903b30bab63a243ab160791b6044820152606490fd5b5f80fd5b634e487b7160e01b5f52604160045260245ffd5b51906001600160a01b03821682036101085756fe60806040526004361015610011575f80fd5b5f3560e01c8063023a584e146112e85780631df0065c1461124957806321235083146111ee5780632d55ea39146111c65780632d5bbf60146110ed5780632e6ca588146110255780633026eca3146105645780633a2f848514610fc45780634162169f14610f9c57806341f23f0a14610edb578063507e1c8014610b4f57806357742d14146109e857806358798ca7146109075780636331f36e146108675780636dd6e80b1461083f57806395ce367e14610804578063a058641614610667578063a5dbc2fe1461057f578063b2e6202714610564578063b435dee1146103ff578063bbb7747d146103e4578063c1a287e2146103c7578063dc311dd3146102e5578063dd75cd9b14610238578063e071c1c0146101e8578063e73a914c146101635763e74ae15b14610142575f80fd5b3461015f575f36600319011261015f576020600154604051908152f35b5f80fd5b3461015f57602036600319011261015f5761017c6114c6565b60035490610194336001600160a01b03841614612108565b6001600160a01b03169081156101b4576001600160a01b03191617600355005b60405162461bcd60e51b815260206004820152600c60248201526b534d3a207a65726f2044414f60a01b6044820152606490fd5b3461015f57602036600319011261015f576102016114c6565b61021660018060a01b03600354163314612108565b600580546001600160a01b0319166001600160a01b0392909216919091179055005b3461015f57602036600319011261015f5760043561026160018060a01b03600354163314612108565b805f526002602052600660405f2001805460ff8116156102a95760ff1916905533907f22a59c1ce58993fad7087722f6e3a34993f0bc6a33cb36765eeda54d24d3ea605f80a3005b60405162461bcd60e51b8152602060048201526014602482015273534d3a20616c726561647920696e61637469766560601b6044820152606490fd5b3461015f57602036600319011261015f576102fe6120b0565b506004355f5260026020526103c360405f206103a9600a60405192610322846113c3565b80546001600160a01b03908116855260018201548116602086015260028201541660408501526003810154606085015260048101546080850152600581015460a0850152600681015460ff818116151560c0870152600891821c16151560e08601526007820154610100860152810154610120850152600981015461014085015201611402565b610160820152604051918291602083526020830190611567565b0390f35b3461015f575f36600319011261015f5760206040516203f4808152f35b3461015f575f36600319011261015f57602060405160028152f35b3461015f57602036600319011261015f576104186114c6565b5f5f5f5f905f92600180549660018060a01b0316905b8781111561045857505060a095506040519485526020850152604084015260608301526080820152f35b5f81815260026020526040902060018101546001600160a01b03168314610489575b5061048490611610565b61042e565b9661049390611610565b96600681015460ff81166104a8575b5061047a565b91949160081c60ff16156104cc57506104c361048491611610565b935b90896104a2565b95926104da90949194611610565b9260046104ec600389015480936116c8565b9701549081158015610505575b505050610484906104c5565b62278d008293949892029280840462278d0014901517156105505761053c57610484926105339204906116c8565b949089806104f9565b634e487b7160e01b5f52601260045260245ffd5b634e487b7160e01b5f52601160045260245ffd5b3461015f575f36600319011261015f57602060405160038152f35b3461015f57602036600319011261015f576105986114c6565b600180546001600160a01b0390921691905f905b8281111561062357506105be90611635565b915f9060015b838111156105da57604051806103c387826114dc565b5f8181526002602052604090206001015461060491906001600160a01b0316831461060957611610565b6105c4565b8061061d61061686611610565b9588611667565b52611610565b5f818152600260205260409020600101546001600160a01b03168414610652575b61064d90611610565b6105ac565b9061065f61064d91611610565b919050610644565b3461015f5761067536611515565b9061067f8261161e565b9161068d60405193846113df565b808352601f1961069c8261161e565b015f5b8181106107ed5750505f5b81811061071857836040518091602082016020835281518091526040830190602060408260051b8601019301915f905b8282106106e957505050500390f35b919360019193955060206107088192603f198a82030186528851611567565b96019201920185949391926106da565b806107266001928486611de4565b355f52600260205260405f206107cb600a60405192610744846113c3565b805460a087811b88900391821686528288015482166020870152600283015490911660408601526003820154606086015260048201546080860152600582015490850152600681015460ff818116151560c0870152600891821c16151560e08601526007820154610100860152810154610120850152600981015461014085015201611402565b6101608201526107db8287611667565b526107e68186611667565b50016106aa565b6020906107f86120b0565b8282880101520161069f565b3461015f57602036600319011261015f57610820600435611df4565b906103c3604051928392151583526040602084015260408301906114a2565b3461015f575f36600319011261015f576004546040516001600160a01b039091168152602090f35b3461015f5761087536611515565b5f905f905f905b808210610893576040848482519182526020820152f35b90916108a0838387611de4565b35303b1561015f5760405190633a2f848560e01b825260048201525f8160248183305af190816108f7575b506108e4576108db600191611610565b925b019061087c565b91926108f1600191611610565b936108dd565b5f610901916113df565b866108cb565b3461015f57606036600319011261015f576004355f818152600260205260409020805460443591602435916001600160a01b031633036109d95760ff600682015416156109ca5781156109bb57610e1083106109ac577fca78c63a3225ad2649c64696b31c29ccfa026dd484df49c2fdd2af059fe9064e92608092600383019082600483549501828154945555604051938452602084015260408301526060820152a2005b63767b6e2160e11b5f5260045ffd5b63ffcc0bfd60e01b5f5260045ffd5b639ac51c2f60e01b5f5260045ffd5b635ad3091560e11b5f5260045ffd5b3461015f575f36600319011261015f575f600190600154915b82811115610ac15750610a1390611635565b905f60015b82811115610a2e57604051806103c386826114dc565b80610a60915f52600260205260405f20600681015460ff81169081610ab2575b5080610aa4575b610a65575b50611610565b610a18565b600801548015908115610a99575b50610a7f575b85610a5a565b80610a93610a8c85611610565b9487611667565b52610a79565b905042111586610a73565b506005810154421015610a55565b60ff915060081c161587610a4e565b805f52600260205260405f20600681015460ff81169081610b40575b5080610b32575b610af8575b50610af390611610565b610a01565b600801548015908115610b27575b50610b12575b83610ae9565b90610b1f610af391611610565b919050610b0c565b905042111584610b06565b506005810154421015610ae4565b60ff915060081c161585610add565b3461015f5760a036600319011261015f57610b686114c6565b6024356001600160a01b038116919082900361015f576001600160401b036084351161015f5736602360843501121561015f576001600160401b03600460843501351161015f573660246084356004013560843501011161015f576001600160a01b03811615610ecc57604435156109bb57610e10606435106109ac57610bf0600154611610565b908160015560405192610c02846113c3565b3384526001600160a01b03821660208501526040840152604435606084015260643560808401524260a0840152600160c08401525f60e0840181905261010084018190526101208401819052610140840152610c63600460843501356116d5565b610c7060405191826113df565b60843560048101358083529060240160208301375f60046084358101358301602090810183905261016087019384528583526002808252604093849020885181546001600160a01b03199081166001600160a01b03928316178355938a01516001830180548616918316919091179055948901519181018054909316919094161790556060860151600383015560808601519082015560a0850151600582015560c085015160068201805460e088015161ffff1990911660ff9315159390931692909217911515600890811b61ff00169290921790556101008601516007830155610120860151908201556101409094015160098501555180519093600a01906001600160401b038111610eb857610d88825461138b565b601f8111610e73575b50806020958690601f8311600114610e11575f92610e06575b50508160011b915f199060031b1c19161790555b6040519060443582526064358483015260018060a01b031690827f11a7acdb40f12388db0682ce7cdb5ffb4d01939a9b0cf653f7c1af7c2f238ad860403393a4604051908152f35b015190508680610daa565b5f8581528281209350601f198516905b818110610e5c5750908460019594939210610e44575b505050811b019055610dbe565b01515f1960f88460031b161c19169055868080610e37565b929389600181928786015181550195019301610e21565b825f5260205f20601f830160051c81019160208410610eae575b601f0160051c01905b818110610ea35750610d91565b5f8155600101610e96565b9091508190610e8d565b634e487b7160e01b5f52604160045260245ffd5b63272dc68d60e01b5f5260045ffd5b3461015f57602036600319011261015f57600435805f52600260205260405f2060068101805460ff8116156109ca5760ff8160081c16610f8d5782546001600160a01b031633141580610f76575b610f67576101009061ff00191617905560074291015533907f25a87732c0536735f3ab7dd339abd21dd0ef78059a500c3927a6cfeb98f906945f80a3005b6328dedf5360e21b5f5260045ffd5b5060018301546001600160a01b0316331415610f29565b63784d815760e01b5f5260045ffd5b3461015f575f36600319011261015f576003546040516001600160a01b039091168152602090f35b3461015f57602036600319011261015f5760015f5403610ff35760025f55610fed600435611756565b60015f55005b60405162461bcd60e51b815260206004820152600a6024820152697265656e7472616e637960b01b6044820152606490fd5b3461015f57602036600319011261015f5761103e6114c6565b600180546001600160a01b0390921691905f905b828111156110ac575061106490611635565b915f9060015b8381111561108057604051806103c387826114dc565b5f818152600260205260409020546110a791906001600160a01b0316831461060957611610565b61106a565b5f818152600260205260409020546001600160a01b031684146110d8575b6110d390611610565b611052565b906110e56110d391611610565b9190506110ca565b3461015f57602036600319011261015f576004355f52600260205260405f2060018060a01b038154166103c360018060a01b036001840154169260018060a01b03600282015416906003810154600482015460ff6005840154600685015490600786015493600887015495611169600a60098a01549901611402565b986040519c8d9c8d5260208d015260408c015260608b015260808a015260a0890152818116151560c089015260081c16151560e08701526101008601526101208501526101408401526101806101608401526101808301906114a2565b3461015f575f36600319011261015f576005546040516001600160a01b039091168152602090f35b3461015f57602036600319011261015f576004355f818152600260205260409020546001600160a01b031633036109d957805f526002602052600660405f200160ff1981541690555f5160206121435f395f51905f525f80a2005b3461015f57602036600319011261015f576004355f52600260205260405f206005810154600382015460ff600684015460081c169260088101549384151590816112dc575b428611156112cf5742860395861161055057600960c096935b01549360405195865260208601521515604085015215156060840152608083015260a0820152f35b60c0955060095f936112a7565b9050844211159061128e565b3461015f57602036600319011261015f57600435805f52600260205260405f20600681019081549160ff8316156109ca5760ff8360081c161561137c5781546001600160a01b031633036109d95760059261ff00191690550180544211611373575b5033907fd13b5f8d2e4901890b0c4487e78268b05e17db24ed2b23450caa809f66b245855f80a3005b4290558161134a565b63aab6c7ff60e01b5f5260045ffd5b90600182811c921680156113b9575b60208310146113a557565b634e487b7160e01b5f52602260045260245ffd5b91607f169161139a565b61018081019081106001600160401b03821117610eb857604052565b601f909101601f19168101906001600160401b03821190821017610eb857604052565b9060405191825f8254926114158461138b565b8084529360018116908115611480575060011461143c575b5061143a925003836113df565b565b90505f9291925260205f20905f915b81831061146457505090602061143a928201015f61142d565b602091935080600191548385890101520191019091849261144b565b90506020925061143a94915060ff191682840152151560051b8201015f61142d565b805180835260209291819084018484015e5f828201840152601f01601f1916010190565b600435906001600160a01b038216820361015f57565b60206040818301928281528451809452019201905f5b8181106114ff5750505090565b82518452602093840193909201916001016114f2565b90602060031983011261015f576004356001600160401b03811161015f578260238201121561015f576004810135926001600160401b03841161015f5760248460051b8301011161015f576024019190565b9061018061016061160d9360018060a01b03815116845260018060a01b03602082015116602085015260018060a01b036040820151166040850152606081015160608501526080810151608085015260a081015160a085015260c0810151151560c085015260e0810151151560e08501526101008101516101008501526101208101516101208501526101408101516101408501520151918161016082015201906114a2565b90565b5f1981146105505760010190565b6001600160401b038111610eb85760051b60200190565b9061163f8261161e565b61164c60405191826113df565b828152809261165d601f199161161e565b0190602036910137565b805182101561167b5760209160051b010190565b634e487b7160e01b5f52603260045260245ffd5b9081602091031261015f57516001600160a01b038116810361015f5790565b6001600160a01b0391821681529116602082015260400190565b9190820180921161055057565b6001600160401b038111610eb857601f01601f191660200190565b604051906116ff6040836113df565b6014825273696e73756666696369656e742062616c616e636560601b6020830152565b604051906117316040836113df565b6016825275696e73756666696369656e7420616c6c6f77616e636560501b6020830152565b5f815f52600260205260405f206006810190815460ff8116156109ca5760081c60ff16611dd55760058101805490814210611dc6576008830193845480159081159081611dbc575b50611d9b57600480548654604051630709df4560e01b81526001600160a01b0391821693810193909352919591169390602086602481885afa958615611c9c575f96611d7a575b506001870197602060018060a01b038a5416602460405180998193630709df4560e01b835260048301525afa958615611c9c575f96611d49575b506001600160a01b038716958615611d14576001600160a01b0316948515611cdb5761187194602060018060a01b0360028c0154169960405180988192636eb1769f60e11b83523090600484016116ae565b03818c5afa958615611c9c575f96611ca7575b506040516370a0823160e01b815260048101899052916020836024818d5afa928315611c9c575f93611c68575b5060038b01548097108781948215611c5e575b5050611b3157505050925f969491926118ef88979594888096558560098c015560048b0154906116c8565b90556040519160208301946323b872dd60e01b8652602484015260448301526064820152606481526119226084826113df565b51925af13d15611b2a573d611936816116d5565b9061194460405192836113df565b81523d5f602083013e5b81611af2575b5015611aad576005546001600160a01b0316908161199d575b505050507feee6595b95458aeb5d6b0f0f282dcb44a1378b4547bfe73681dfc0b012985e906020604051428152a2565b546001600160a01b0316813b1561015f575f9160a483926040519485938492630eccbd3560e11b84526004840152600260248401526060604484015260146064840152731cdd589cd8dc9a5c1d1a5bdb97dc185e5b595b9d60621b60848401525af1611a98575b5060055490546001600160a01b039182169116813b15611a9457829160a483926040519485938492630eccbd3560e11b84526004840152600360248401526060604484015260156064840152741cdd589cd8dc9a5c1d1a5bdb97dc9958d95a5d9959605a1b60848401525af1611a7c575b808061196d565b611a878280926113df565b611a915780611a75565b80fd5b8280fd5b611aa59192505f906113df565b5f905f611a04565b60405162461bcd60e51b815260206004820152601e60248201527f5361666545524332303a207472616e7366657246726f6d206661696c656400006044820152606490fd5b8051801592508215611b07575b50505f611954565b819250906020918101031261015f5760200151801515810361015f575f80611aff565b606061194e565b9850989450995097505050600392506009915001611b4f8154611610565b8091551015611bfc5750611bba575b5015611b9c575f5160206121635f395f51905f52611b97611b7d611722565b6040519182914283526040602084015260408301906114a2565b0390a2565b5f5160206121635f395f51905f52611b97611bb56116f0565b611b7d565b6203f4804201804211610550576020817f850e821388cbf246fb93b12357651e23887c72f848742c21dbff137031b1356b92869455604051908152a25f611b5e565b9250505060ff198154169055805f5160206121635f395f51905f5260806040514281526040602082015260146040820152731b585e0819985a5b1d5c995cc81c995858da195960621b6060820152a25f5160206121435f395f51905f525f80a2565b109050875f6118c4565b9092506020813d602011611c94575b81611c84602093836113df565b8101031261015f5751915f6118b1565b3d9150611c77565b6040513d5f823e3d90fd5b9095506020813d602011611cd3575b81611cc3602093836113df565b8101031261015f5751945f611884565b3d9150611cb6565b60405162461bcd60e51b81526020600482015260116024820152701b9bc81b595c98da185b9d081d985d5b1d607a1b6044820152606490fd5b60405162461bcd60e51b815260206004820152600d60248201526c1b9bc81d5cd95c881d985d5b1d609a1b6044820152606490fd5b611d6c91965060203d602011611d73575b611d6481836113df565b81019061168f565b945f61181f565b503d611d5a565b611d9491965060203d602011611d7357611d6481836113df565b945f6117e5565b875f5160206121435f395f51905f525f80a2630fb7e4c160e31b5f5260045ffd5b905042115f61179e565b631773760360e01b5f5260045ffd5b6375e0ef7360e11b5f5260045ffd5b919081101561167b5760051b0190565b5f52600260205260405f20600681015460ff8116156120865760081c60ff1661205f5760058101544210612035576008810154801515908161202b575b50611ffd57600480548254604051630709df4560e01b81526001600160a01b039182169381019390935260209183916024918391165afa908115611c9c575f91611fde575b506001600160a01b038116918215611fb3576002810154604051636eb1769f60e11b8152936001600160a01b039091169260209085908190611ebd903090600484016116ae565b0381865afa938415611c9c575f94611f7e575b506020906024604051809581936370a0823160e01b835260048301525afa918215611c9c575f92611f49575b5060030154809210611f3d5710611f3357600190604051611f1e6040826113df565b6005815264726561647960d81b602082015290565b5f9061160d6116f0565b50505f9061160d611722565b9091506020813d602011611f76575b81611f65602093836113df565b8101031261015f5751906003611efc565b3d9150611f58565b9093506020813d602011611fab575b81611f9a602093836113df565b8101031261015f5751926020611ed0565b3d9150611f8d565b5050505f90604051611fc66040826113df565b60088152671b9bc81d985d5b1d60c21b602082015290565b611ff7915060203d602011611d7357611d6481836113df565b5f611e76565b505f9060405161200e6040826113df565b600d81526c19dc9858d948195e1c1a5c9959609a1b602082015290565b905042115f611e31565b505f906040516120466040826113df565b6009815268746f6f206561726c7960b81b602082015290565b505f906040516120706040826113df565b60068152651c185d5cd95960d21b602082015290565b50505f906040516120986040826113df565b6008815267696e61637469766560c01b602082015290565b604051906120bd826113c3565b6060610160835f81525f60208201525f60408201525f838201525f60808201525f60a08201525f60c08201525f60e08201525f6101008201525f6101208201525f6101408201520152565b1561210f57565b60405162461bcd60e51b815260206004820152600b60248201526a534d3a206e6f742044414f60a81b6044820152606490fdfebd2bcea75d16a85f005cd83447e0de57341bf926fe7419e6d553663e91ab4da79ed3f3d1b1caea0fc65cc599a37dd011736043d69e24ce1e335102ce14a9a5c0a26469706673582212202a448812a5814f6ffb75fc21ebeaa3d81e27ff04ff4c84a1043dd910cd4e593264736f6c634300081e0033","linkReferences":{}},"methodIdentifiers":{"GRACE_PERIOD()":"c1a287e2","MAX_FAILED_PAYMENTS()":"3026eca3","SUBSCRIPTION_MERCHANT_REWARD()":"b2e62027","SUBSCRIPTION_PAYER_REWARD()":"bbb7747d","batchProcessPayments(uint256[])":"6331f36e","canProcess(uint256)":"95ce367e","cancelSubscription(uint256)":"21235083","createSubscription(address,address,uint256,uint256,string)":"507e1c80","dao()":"4162169f","emergencyCancel(uint256)":"dd75cd9b","getMerchantStats(address)":"b435dee1","getMerchantSubscriptions(address)":"a5dbc2fe","getNextPaymentInfo(uint256)":"1df0065c","getReadyForProcessing()":"57742d14","getSubscription(uint256)":"dc311dd3","getSubscriptionsBatch(uint256[])":"a0586416","getUserSubscriptions(address)":"2e6ca588","modifySubscription(uint256,uint256,uint256)":"58798ca7","pauseSubscription(uint256)":"41f23f0a","processPayment(uint256)":"3a2f8485","resumeSubscription(uint256)":"023a584e","seer()":"2d55ea39","setDAO(address)":"e73a914c","setSeer(address)":"e071c1c0","subCount()":"e74ae15b","subscriptions(uint256)":"2d5bbf60","vaultHub()":"6dd6e80b"},"id":27}