{"abi":[{"type":"constructor","inputs":[{"name":"_vfideToken","type":"address","internalType":"address"},{"name":"_securityHub","type":"address","internalType":"address"},{"name":"_ledger","type":"address","internalType":"address"},{"name":"_dao","type":"address","internalType":"address"}],"stateMutability":"nonpayable"},{"type":"function","name":"RECOVERY_APPROVALS_REQUIRED","inputs":[],"outputs":[{"name":"","type":"uint8","internalType":"uint8"}],"stateMutability":"view"},{"type":"function","name":"RECOVERY_DELAY","inputs":[],"outputs":[{"name":"","type":"uint64","internalType":"uint64"}],"stateMutability":"view"},{"type":"function","name":"acceptOwnership","inputs":[],"outputs":[],"stateMutability":"nonpayable"},{"type":"function","name":"approveForceRecovery","inputs":[{"name":"vault","type":"address","internalType":"address"},{"name":"newOwner","type":"address","internalType":"address"}],"outputs":[],"stateMutability":"nonpayable"},{"type":"function","name":"cancelOwnershipTransfer","inputs":[],"outputs":[],"stateMutability":"nonpayable"},{"type":"function","name":"checkVaultStatus","inputs":[{"name":"addr","type":"address","internalType":"address"}],"outputs":[{"name":"hasVault","type":"bool","internalType":"bool"},{"name":"vaultAddress","type":"address","internalType":"address"},{"name":"isVaultContract","type":"bool","internalType":"bool"}],"stateMutability":"view"},{"type":"function","name":"dao","inputs":[],"outputs":[{"name":"","type":"address","internalType":"address"}],"stateMutability":"view"},{"type":"function","name":"ensureVault","inputs":[{"name":"owner_","type":"address","internalType":"address"}],"outputs":[{"name":"vault","type":"address","internalType":"address"}],"stateMutability":"nonpayable"},{"type":"function","name":"finalizeForceRecovery","inputs":[{"name":"vault","type":"address","internalType":"address"}],"outputs":[],"stateMutability":"nonpayable"},{"type":"function","name":"getVaultInfo","inputs":[{"name":"vault","type":"address","internalType":"address"}],"outputs":[{"name":"owner_","type":"address","internalType":"address"},{"name":"createdAt","type":"uint256","internalType":"uint256"},{"name":"isLocked","type":"bool","internalType":"bool"},{"name":"exists","type":"bool","internalType":"bool"}],"stateMutability":"view"},{"type":"function","name":"initiateForceRecovery","inputs":[{"name":"vault","type":"address","internalType":"address"},{"name":"newOwner","type":"address","internalType":"address"}],"outputs":[],"stateMutability":"nonpayable"},{"type":"function","name":"isRecoveryApprover","inputs":[{"name":"","type":"address","internalType":"address"}],"outputs":[{"name":"","type":"bool","internalType":"bool"}],"stateMutability":"view"},{"type":"function","name":"isVault","inputs":[{"name":"a","type":"address","internalType":"address"}],"outputs":[{"name":"","type":"bool","internalType":"bool"}],"stateMutability":"view"},{"type":"function","name":"ledger","inputs":[],"outputs":[{"name":"","type":"address","internalType":"contract IProofLedger"}],"stateMutability":"view"},{"type":"function","name":"owner","inputs":[],"outputs":[{"name":"","type":"address","internalType":"address"}],"stateMutability":"view"},{"type":"function","name":"ownerOfVault","inputs":[{"name":"","type":"address","internalType":"address"}],"outputs":[{"name":"","type":"address","internalType":"address"}],"stateMutability":"view"},{"type":"function","name":"pendingOwner","inputs":[],"outputs":[{"name":"","type":"address","internalType":"address"}],"stateMutability":"view"},{"type":"function","name":"predictVault","inputs":[{"name":"owner_","type":"address","internalType":"address"}],"outputs":[{"name":"predicted","type":"address","internalType":"address"}],"stateMutability":"view"},{"type":"function","name":"predictVaultsBatch","inputs":[{"name":"owners","type":"address[]","internalType":"address[]"}],"outputs":[{"name":"vaults","type":"address[]","internalType":"address[]"}],"stateMutability":"view"},{"type":"function","name":"recoveryApprovalCount","inputs":[{"name":"","type":"address","internalType":"address"}],"outputs":[{"name":"","type":"uint8","internalType":"uint8"}],"stateMutability":"view"},{"type":"function","name":"recoveryApprovals","inputs":[{"name":"","type":"address","internalType":"address"},{"name":"","type":"address","internalType":"address"}],"outputs":[{"name":"","type":"bool","internalType":"bool"}],"stateMutability":"view"},{"type":"function","name":"recoveryProposedOwner","inputs":[{"name":"","type":"address","internalType":"address"}],"outputs":[{"name":"","type":"address","internalType":"address"}],"stateMutability":"view"},{"type":"function","name":"recoveryUnlockTime","inputs":[{"name":"","type":"address","internalType":"address"}],"outputs":[{"name":"","type":"uint64","internalType":"uint64"}],"stateMutability":"view"},{"type":"function","name":"securityHub","inputs":[],"outputs":[{"name":"","type":"address","internalType":"contract ISecurityHub"}],"stateMutability":"view"},{"type":"function","name":"setDAO","inputs":[{"name":"_dao","type":"address","internalType":"address"}],"outputs":[],"stateMutability":"nonpayable"},{"type":"function","name":"setModules","inputs":[{"name":"_vfideToken","type":"address","internalType":"address"},{"name":"_securityHub","type":"address","internalType":"address"},{"name":"_ledger","type":"address","internalType":"address"},{"name":"_dao","type":"address","internalType":"address"}],"outputs":[],"stateMutability":"nonpayable"},{"type":"function","name":"setRecoveryApprover","inputs":[{"name":"approver","type":"address","internalType":"address"},{"name":"status","type":"bool","internalType":"bool"}],"outputs":[],"stateMutability":"nonpayable"},{"type":"function","name":"setVFIDE","inputs":[{"name":"_vfide","type":"address","internalType":"address"}],"outputs":[],"stateMutability":"nonpayable"},{"type":"function","name":"totalVaults","inputs":[],"outputs":[{"name":"","type":"uint256","internalType":"uint256"}],"stateMutability":"view"},{"type":"function","name":"transferOwnership","inputs":[{"name":"newOwner","type":"address","internalType":"address"}],"outputs":[],"stateMutability":"nonpayable"},{"type":"function","name":"vaultCreatedAt","inputs":[{"name":"","type":"address","internalType":"address"}],"outputs":[{"name":"","type":"uint256","internalType":"uint256"}],"stateMutability":"view"},{"type":"function","name":"vaultOf","inputs":[{"name":"","type":"address","internalType":"address"}],"outputs":[{"name":"","type":"address","internalType":"address"}],"stateMutability":"view"},{"type":"function","name":"vfideToken","inputs":[],"outputs":[{"name":"","type":"address","internalType":"address"}],"stateMutability":"view"},{"type":"event","name":"DAOSet","inputs":[{"name":"dao","type":"address","indexed":false,"internalType":"address"}],"anonymous":false},{"type":"event","name":"ForcedRecovery","inputs":[{"name":"vault","type":"address","indexed":true,"internalType":"address"},{"name":"newOwner","type":"address","indexed":true,"internalType":"address"}],"anonymous":false},{"type":"event","name":"ForcedRecoveryInitiated","inputs":[{"name":"vault","type":"address","indexed":true,"internalType":"address"},{"name":"newOwner","type":"address","indexed":true,"internalType":"address"},{"name":"unlockTime","type":"uint64","indexed":false,"internalType":"uint64"}],"anonymous":false},{"type":"event","name":"ModulesSet","inputs":[{"name":"vfide","type":"address","indexed":false,"internalType":"address"},{"name":"securityHub","type":"address","indexed":false,"internalType":"address"},{"name":"ledger","type":"address","indexed":false,"internalType":"address"},{"name":"dao","type":"address","indexed":false,"internalType":"address"}],"anonymous":false},{"type":"event","name":"OwnershipTransferStarted","inputs":[{"name":"previousOwner","type":"address","indexed":true,"internalType":"address"},{"name":"newOwner","type":"address","indexed":true,"internalType":"address"}],"anonymous":false},{"type":"event","name":"OwnershipTransferred","inputs":[{"name":"previousOwner","type":"address","indexed":true,"internalType":"address"},{"name":"newOwner","type":"address","indexed":true,"internalType":"address"}],"anonymous":false},{"type":"event","name":"VFIDESet","inputs":[{"name":"vfide","type":"address","indexed":false,"internalType":"address"}],"anonymous":false},{"type":"event","name":"VaultCreated","inputs":[{"name":"owner","type":"address","indexed":true,"internalType":"address"},{"name":"vault","type":"address","indexed":true,"internalType":"address"}],"anonymous":false},{"type":"error","name":"VI_NotDAO","inputs":[]},{"type":"error","name":"VI_Zero","inputs":[]}],"bytecode":{"object":"0x60803461014257601f6172b738819003918201601f19168301916001600160401b03831184841017610146578084926080946040528339810103126101425760808161006b7f2ad69807131f242e4c6b9e21338b8d7d7d5f32ab1dfaa1eddfa881c305c8f5e79361015a565b906100786020820161015a565b90610091606061008a6040840161015a565b920161015a565b5f80546001600160a01b03191633908117825560405195929392917f8be0079c531659141344cd1fd0a4f28419497f9722a3daafe3b4186f6b6457e08180a3600280546001600160a01b039283166001600160a01b03199182168117909255600380549684169682168717905560048054948416948216851790556005805495909316941684179091558452602084019290925260408301919091526060820152a1604051617148908161016f8239f35b5f80fd5b634e487b7160e01b5f52604160045260245ffd5b51906001600160a01b03821682036101425756fe60806040526004361015610011575f80fd5b5f3560e01c806306d7d6cf146102245780630709df451461021f57806317fd7bf61461021a5780631a6568811461021557806323452b9c146102105780632724fe091461020b57806327a4e1ab146102065780633297992e14610201578063360ca958146101fc5780634162169f146101f7578063419d7a83146101f2578063435c529b146101ed57806347b45652146101e857806356397c35146101e3578063652b9b41146101de5780636a240a9c146101d957806379ba5097146101d45780638d654023146101cf5780638da5cb5b146101ca57806390229af7146101c55780639f2b8b54146101c05780639f9a6508146101bb578063b079fbff146101b6578063b72d2943146101b1578063b8a71eec146101ac578063c5c82203146101a7578063c93883a5146101a2578063e01fd2151461019d578063e30c397814610198578063e73a914c14610193578063f20ca7ed1461018e578063f2fde38b146101895763fa3fd3bc14610184575f80fd5b61139f565b6112f5565b6112b0565b611214565b6111ec565b6111c5565b611157565b610e9c565b610e74565b610e4c565b610d5c565b610d19565b610cd0565b610ba0565b610b79565b610b5c565b610aa5565b6109a9565b61091c565b6108f4565b6108d7565b610897565b610859565b610831565b61075a565b610735565b6106fc565b6106b9565b61068f565b6103a2565b6102e4565b6102a1565b61023e565b6001600160a01b0381160361023a57565b5f80fd5b3461023a57602036600319011261023a5760043561025b81610229565b6001600160a01b039081165f9081526006602090815260408083205460078352928190205481519385168015158552928401929092529216151591810191909152606090f35b3461023a57602036600319011261023a576004356102be81610229565b60018060a01b03165f526006602052602060018060a01b0360405f205416604051908152f35b3461023a57602036600319011261023a577f77035913569424ed432f15a527aa4e0317cbefd28ce0fe9cdfe61acd77345c17602060043561032481610229565b61032c611a63565b600280546001600160a01b0319166001600160a01b03929092169182179055604051908152a161037861035d611415565b6c1a1d5897dd999a591957dcd95d609a1b6020820152611ad0565b005b604090600319011261023a5760043561039281610229565b9060243561039f81610229565b90565b3461023a576103b03661037a565b335f908152600c602052604090209091906103d6906103d1905b5460ff1690565b611468565b6001600160a01b0381169182158015610674575b6106655761043161042a61041e6104118560018060a01b03165f52600760205260405f2090565b546001600160a01b031690565b6001600160a01b031690565b15156114a6565b61045a61045461041e6104118460018060a01b03165f52600660205260405f2090565b156114e2565b6104976104936103ca3361047e8660018060a01b03165f52600a60205260405f2090565b9060018060a01b03165f5260205260405f2090565b1590565b6105e6575b600360ff6104bd6103ca8560018060a01b03165f52600b60205260405f2090565b1610156104c657005b61037892610507826104e88560018060a01b03165f52600960205260405f2090565b80546001600160a01b0319166001600160a01b03909216919091179055565b6105576105236105164261157f565b67ffffffffffffffff1690565b6001600160a01b0385165f9081526008602052604090209067ffffffffffffffff1667ffffffffffffffff19825416179055565b7f4f6a320f55ac586fc5dbafc5a9d39bf84e088884ac86cb6391a2ced7e237c8316105cd6105a66105988660018060a01b03165f52600860205260405f2090565b5467ffffffffffffffff1690565b60405167ffffffffffffffff90911681526001600160a01b03909416939081906020820190565b0390a36105d861158f565b6105e061142a565b91611b45565b6106146106073361047e8560018060a01b03165f52600a60205260405f2090565b805460ff19166001179055565b6001600160a01b0382165f908152600b602052604090206106509061064261063d825460ff1690565b611535565b60ff1660ff19825416179055565b61066061065b61154b565b611ad0565b61049c565b630f0f611b60e01b5f5260045ffd5b506001600160a01b038116156103ea565b5f91031261023a57565b3461023a575f36600319011261023a576106a7611a63565b600180546001600160a01b0319169055005b3461023a57602036600319011261023a576004356106d681610229565b60018060a01b03165f526007602052602060018060a01b0360405f205416604051908152f35b3461023a57602036600319011261023a57602061072360043561071e81610229565b6115bf565b6040516001600160a01b039091168152f35b3461023a575f36600319011261023a57602060405160038152f35b8015150361023a57565b3461023a57604036600319011261023a5760043561077781610229565b6024359061078482610750565b61078c611a63565b6001600160a01b03166107a081151561162d565b5f52600c6020526107c08160405f209060ff801983541691151516179055565b156107fb576103786107d0611453565b7f7265636f766572795f617070726f7665725f61646465640000000000000000006020820152611ad0565b61037861080661143e565b7f7265636f766572795f617070726f7665725f72656d6f766564000000000000006020820152611ad0565b3461023a575f36600319011261023a576005546040516001600160a01b039091168152602090f35b3461023a57602036600319011261023a5760043561087681610229565b60018060a01b03165f52600b602052602060ff60405f205416604051908152f35b3461023a57602036600319011261023a576004356108b481610229565b60018060a01b03165f52600c602052602060ff60405f2054166040519015158152f35b3461023a575f36600319011261023a57602060405162093a808152f35b3461023a575f36600319011261023a576004546040516001600160a01b039091168152602090f35b3461023a57602036600319011261023a5761097460043561093c81610229565b6001600160a01b039081165f8181526007602052604090205490911615159081610978575b5060405190151581529081906020820190565b0390f35b5f818152600760209081526040808320546001600160a01b0390811684526006909252822054169091149150610961565b3461023a576109b73661037a565b6005549091906109cf906001600160a01b031661041e565b3303610a96576001600160a01b0381169182158015610a85575b6106655761037892610a1461042a61041e6104118660018060a01b03165f52600760205260405f2090565b610a3761045461041e6104118560018060a01b03165f52600660205260405f2090565b610a63600360ff610a5b6103ca8760018060a01b03165f52600b60205260405f2090565b161015611663565b6001600160a01b0383165f9081526009602052604090206105079083906104e8565b506001600160a01b038116156109e9565b6369a473cf60e11b5f5260045ffd5b3461023a575f36600319011261023a576001546001600160a01b03163303610b1e575f5433906001600160a01b03908116167f8be0079c531659141344cd1fd0a4f28419497f9722a3daafe3b4186f6b6457e05f80a35f80546001600160a01b03191633179055600180546001600160a01b0319169055005b60405162461bcd60e51b815260206004820152601660248201527527aba71d103737ba103832b73234b7339037bbb732b960511b6044820152606490fd5b3461023a575f36600319011261023a576020600d54604051908152f35b3461023a575f36600319011261023a575f546040516001600160a01b039091168152602090f35b3461023a57602036600319011261023a57600435610bbd81610229565b6001600160a01b0381165f908152600760205260409020610bdd90610411565b6001600160a01b0382165f908152600e6020526040902054600354909190610c0d906001600160a01b031661041e565b926001600160a01b03841615159384610c54575b5050604080516001600160a01b039290921680835260208301939093529215159281019290925215156060820152608090f35b604051631293efbb60e21b81526001600160a01b0392909216600483015291935090602090829060249082905afa8015610ccb57610974915f91610c9c575b5092905f610c21565b610cbe915060203d602011610cc4575b610cb681836113ee565b8101906116af565b5f610c93565b503d610cac565b6116c4565b3461023a57602060ff610d0d610ce53661037a565b6001600160a01b039182165f908152600a865260408082209290931681526020919091522090565b54166040519015158152f35b3461023a57602036600319011261023a57600435610d3681610229565b60018060a01b03165f526009602052602060018060a01b0360405f205416604051908152f35b3461023a57608036600319011261023a577f2ad69807131f242e4c6b9e21338b8d7d7d5f32ab1dfaa1eddfa881c305c8f5e7600435610d9a81610229565b60243590610da782610229565b610e3e604435610db681610229565b60643590610dc382610229565b610dcb611a63565b600280546001600160a01b039586166001600160a01b03199182168117909255600380549787169782168817905560048054938716938216841790556005805494909616931683179094556040805194855260208501959095529383019390935260608201929092529081906080820190565b0390a161037861065b6116cf565b3461023a575f36600319011261023a576003546040516001600160a01b039091168152602090f35b3461023a575f36600319011261023a576002546040516001600160a01b039091168152602090f35b3461023a57602036600319011261023a57600435610eb981610229565b600554610ece906001600160a01b031661041e565b3303610a9657610f0567ffffffffffffffff610efd6105988460018060a01b03165f52600860205260405f2090565b1615156116fc565b610f30610f286105166105988460018060a01b03165f52600860205260405f2090565b421015611734565b6001600160a01b0381165f908152600960205260409020610f5090610411565b906001600160a01b038216610f6681151561162d565b610f8961045461041e6104118660018060a01b03165f52600660205260405f2090565b6001600160a01b0382165f908152600760205260409020610fa990610411565b6001600160a01b0381166110f0575b506001600160a01b0382165f908152600760205260409020610fdb9084906104e8565b6001600160a01b0383165f908152600660205260409020610ffd9083906104e8565b6001600160a01b038216803b1561023a576040516324d89a6360e21b81526001600160a01b039490941660048501525f8460248183855af1938415610ccb57610378946110d6575b506001600160a01b0383165f908152600960205260409020611072905b80546001600160a01b0319169055565b6001600160a01b0383165f908152600860209081526040808320805467ffffffffffffffff19169055600b9091528120805460ff191690557f95d14defab6a2b4ee4b7409bbb87adbfd28ae37e235f30d9a96198e6825dbc3b9080a36105d861176e565b806110e45f6110ea936113ee565b80610685565b5f611045565b6001600160a01b03165f90815260066020526040902061110f90611062565b5f610fb8565b60206040818301928281528451809452019201905f5b8181106111385750505090565b82516001600160a01b031684526020938401939092019160010161112b565b3461023a57602036600319011261023a5760043567ffffffffffffffff811161023a573660238201121561023a5780600401359067ffffffffffffffff821161023a573660248360051b8301011161023a576109749160246111b992016117b7565b60405191829182611115565b3461023a57602036600319011261023a5760206107236004356111e781610229565b6118b4565b3461023a575f36600319011261023a576001546040516001600160a01b039091168152602090f35b3461023a57602036600319011261023a577f8aad84fcad50e723fa3bcf0fb32c5bea4c71078b77b9aedfa638f146f3a3f7b9602060043561125481610229565b61125c611a63565b600580546001600160a01b0319166001600160a01b03929092169182179055604051908152a16103786040516112936040826113ee565b600b81526a1a1d5897d9185bd7dcd95d60aa1b6020820152611ad0565b3461023a57602036600319011261023a576004356112cd81610229565b60018060a01b03165f526008602052602067ffffffffffffffff60405f205416604051908152f35b3461023a57602036600319011261023a5760043561131281610229565b61131a611a63565b6001600160a01b0316801561136e57600180546001600160a01b031916821790555f80546001600160a01b0316907f38d16b8cac22d99fc7c124b9cd0de2d3fa1faef420bfe791d8c362d765e227009080a3005b60405162461bcd60e51b81526020600482015260096024820152684f574e3a207a65726f60b81b6044820152606490fd5b3461023a57602036600319011261023a576004356113bc81610229565b60018060a01b03165f52600e602052602060405f2054604051908152f35b634e487b7160e01b5f52604160045260245ffd5b90601f8019910116810190811067ffffffffffffffff82111761141057604052565b6113da565b604051906114246040836113ee565b600d8252565b604051906114396020836113ee565b5f8252565b6040519061144d6040836113ee565b60198252565b604051906114626040836113ee565b60178252565b1561146f57565b60405162461bcd60e51b815260206004820152600f60248201526e2b249d3737ba16b0b8383937bb32b960891b6044820152606490fd5b156114ad57565b60405162461bcd60e51b815260206004820152600d60248201526c1d5b9adb9bdddb881d985d5b1d609a1b6044820152606490fd5b156114e957565b60405162461bcd60e51b815260206004820152601060248201526f1d185c99d95d081a185cc81d985d5b1d60821b6044820152606490fd5b634e487b7160e01b5f52601160045260245ffd5b60ff1660ff81146115465760010190565b611521565b6040519061155a6040836113ee565b60168252751c9958dbdd995c9e57d85c1c1c9bdd985b17d8d85cdd60521b6020830152565b9062093a80820180921161154657565b6040519061159e6040836113ee565b6012825271199bdc98d957dc9958dbdd995c97da5b9a5d60721b6020830152565b6001600160a01b03811615611628576115e06115da82611bdf565b91611c23565b6020815191012060405190602082019260ff60f81b84523060601b602184015260358301526055820152605581526116196075826113ee565b5190206001600160a01b031690565b505f90565b1561163457565b60405162461bcd60e51b815260206004820152600760248201526656493a7a65726f60c81b6044820152606490fd5b1561166a57565b60405162461bcd60e51b815260206004820152601960248201527f56493a696e73756666696369656e742d617070726f76616c73000000000000006044820152606490fd5b9081602091031261023a575161039f81610750565b6040513d5f823e3d90fd5b604051906116de6040836113ee565b600f82526e1a1d5897db5bd91d5b195cd7dcd95d608a1b6020830152565b1561170357565b60405162461bcd60e51b815260206004820152600960248201526856493a6e6f2d72657160b81b6044820152606490fd5b1561173b57565b60405162461bcd60e51b815260206004820152600b60248201526a56493a74696d656c6f636b60a81b6044820152606490fd5b6040519061177d6040836113ee565b6013825272199bdc98d957dc9958dbdd995c97d99a5b985b606a1b6020830152565b67ffffffffffffffff81116114105760051b60200190565b6117c08261179f565b926117ce60405194856113ee565b828452601f196117dd8461179f565b0136602086013783905f5b84811015611840578060051b906118058286013561071e81610229565b91875182101561182c576001600160a01b03909216918701602001919091526001016117e8565b634e487b7160e01b5f52603260045260245ffd5b509250925050565b1561184f57565b60405162461bcd60e51b815260206004820152600e60248201526d18dc99585d194c8819985a5b195960921b6044820152606490fd5b5f1981146115465760010190565b61189b611415565b906c1d985d5b1d17d8dc99585d1959609a1b6020830152565b6001600160a01b03811691908215610665576002546118db906001600160a01b031661041e565b15610665576001600160a01b0381165f90815260066020526040902061190090610411565b6001600160a01b038116611a5e575061191881611bdf565b61192182611c23565b6020815191015ff5926001600160a01b0384169161198290611944841515611848565b6001600160a01b0381165f9081526006602052604090206119669087906104e8565b6001600160a01b0386165f9081526007602052604090206104e8565b611995611990600d54611885565b600d55565b6001600160a01b0384165f908152600e602052604090204290556003546119c4906001600160a01b031661041e565b6001600160a01b038116611a14575b507f5d9c31ffa0fecffd7cf379989a3c7af252f0335e0d2a1320b55245912c781f535f80a3611a12611a03611893565b611a0b61142a565b9084611b45565b565b803b1561023a576040516367ccd1cb60e01b81526001600160a01b0386166004820152905f908290602490829084905af1156119d357806110e45f611a58936113ee565b5f6119d3565b925050565b5f546001600160a01b03163303611a7657565b60405162461bcd60e51b815260206004820152600e60248201526d27aba71d103737ba1037bbb732b960911b6044820152606490fd5b805180835260209291819084018484015e5f828201840152601f01601f1916010190565b6004546001600160a01b031680611ae5575050565b803b1561023a57604051633ddd61ab60e21b815230600482015260606024820152915f918391829084908290611b1f906064830190611aac565b33604483015203925af1611b305750565b80611b3c5f80936113ee565b80031261023a57565b6004549092906001600160a01b031680611b60575b50505050565b803b1561023a57604051630303c28760e61b81526001600160a01b0390941660048501908152608060248601525f938593849286928492611bbe9291611baa906084860190611aac565b918560408201526060818403910152611aac565b03925af1611bcf575b808080611b5a565b5f611bd9916113ee565b5f611bc7565b60405160208101916bffffffffffffffffffffffff199060601b16825260148152611c0b6034826113ee565b51902090565b805191908290602001825e015f815290565b61039f611ce191611cc361542b9160405192611c4260208201856113ee565b808452611ce86020850139600254600354611cd1916001600160a01b0390811691611cc391611c71911661041e565b600454611c86906001600160a01b031661041e565b604080513060208201526001600160a01b03958616918101919091529584166060870152908316608086015290911660a0840152829060c0820190565b03601f1981018352826113ee565b6040519485936020850190611c11565b90611c1156fe61010080604052346102af575f9060a08161542b8038038091610022828561031a565b8339810103126102af576100358161033d565b6100416020830161033d565b61004d6040840161033d565b90610066608061005f6060870161033d565b950161033d565b60015f55600680546001600160401b0319166201518017905569021e19e0c9bab240000060075560088054600160401b600160801b031916690e100000000000000000179055670de0b6b3a7640000600955690a968163f0a57b400000600b55600c805461ffff1916611388179055926001600160a01b038116151580610308575b806102f6575b156102c75760805260a052600180546001600160a01b0319166001600160a01b0392831690811790915592811660c0521660e052604080519081016001600160401b038111828210176102b357604052600d81526c1d985d5b1d17d8dc99585d1959609a1b6020820190815260e0516001600160a01b0316919082610238575b5050507f50146d0e3c60aa1d17a70635b05494f864e86144a2201275021014fbf08bafe26040519280a26150d9908161035282396080518181816112ca015281816119b70152612752015260a05181818161047c0152818161119201528181611a2301528181611bf3015281816126d90152818161291d01528181612b4901528181612ce60152818161326201526146ff015260c051818181612b0501528181612d2e0152614be2015260e05181818161178201528181614c8101528181614d3e01526150120152f35b823b156102af576084925f9283604051958680958194633ddd61ab60e21b8352306004840152606060248401525180918160648501528484015e8181018301849052336044830152601f01601f191681010301925af161029a575b808061016e565b6102a79192505f9061031a565b5f905f610293565b5f80fd5b634e487b7160e01b5f52604160045260245ffd5b60405162461bcd60e51b815260206004820152600760248201526655563a7a65726f60c81b6044820152606490fd5b506001600160a01b03831615156100ee565b506001600160a01b03821615156100e8565b601f909101601f19168101906001600160401b038211908210176102b357604052565b51906001600160a01b03821682036102af5756fe6080604052600436101561001a575b3615610018575f80fd5b005b5f3560e01c8063020378221461041457806304824e701461040f578063054f7d9c1461040a57806306603f8d146104055780630665f04b14610400578063092cc1fb146103fb5780630b6946da146103f65780630ba234d6146103f15780630c68ba21146103ec5780630fbd22b0146103e7578063118f117f146103e2578063124f8d9c146103dd5780631bed8c6e146103d85780631f180de8146103d3578063269b54b1146103ce5780632b8a1c5a146103c957806331d559f8146103c457806334a014dc146103bf578063365a86fc146103ba57806342e01e73146103b557806347e1da2a146103b05780634ddb926a146103ab5780635132124c146103a6578063518d0959146103a1578063536b801d1461039c57806354387ad71461039757806356397c35146103925780635f8983fd1461038d57806363a8374d1461038857806363f95a3b14610383578063688aa6ce1461037e5780636a150981146103795780636b1994ea146103745780636b6fe5e91461036f5780636d68e53b1461036a578063700c5e7d1461035657806372890ca2146103655780637e932d3214610360578063835316c71461035b5780638b2bc3e7146103565780638da5cb5b146103515780638e48d0821461034c5780638f252d34146103475780639362698c1461034257806393bcd8581461033d5780639a0dd14014610338578063b50ef71b14610333578063b5354ce51461032e578063b61d27f614610329578063b72d294314610324578063b8a71eec1461031f578063ba58db511461031a578063c55e4a0e14610315578063c60cd99c14610310578063cd1492d41461030b578063d25a918914610306578063d6c89c6014610301578063e2158ee7146102fc578063e24ba265146102f7578063e2ccb305146102f2578063e5711e8b146102ed578063e6536fc5146102e8578063f9773f92146102e35763fd4fa9810361000e576133b1565b613301565b6132e4565b6131f4565b613110565b6130e3565b6130c2565b61309c565b612f0b565b612ee9565b612e6f565b612caa565b612b78565b612b34565b612af0565b612a75565b612a47565b61284d565b612830565b612807565b612733565b61266c565b612566565b61253e565b612082565b612481565b6123b8565b612149565b612065565b611f90565b611ee6565b611b7a565b6118dd565b6118b1565b611845565b6117b1565b61176d565b61174d565b6116ab565b6115df565b6115c2565b61147d565b6113f0565b6112f9565b6112b5565b61128c565b611120565b610eb9565b610e8a565b610d03565b610b3e565b610aba565b610a94565b610a6f565b610a2f565b610977565b610827565b61080a565b610717565b610608565b6105e6565b610518565b610427565b5f91031261042357565b5f80fd5b34610423575f3660031901126104235761043f614bbd565b610447614be0565b600c546104599060101c60ff166133ce565b6040516370a0823160e01b81523060048201526020816024816001600160a01b037f0000000000000000000000000000000000000000000000000000000000000000165afa8015610502576104b5915f916104d3575b50600d55565b610018600d546104c36134ae565b906104cc61349a565b9133614d3b565b6104f5915060203d6020116104fb575b6104ed818361342e565b810190613454565b5f6104af565b503d6104e3565b613463565b6001600160a01b0381160361042357565b346104235760203660031901126104235760043561053581610507565b61053d614bbd565b610545614be0565b61054d614df4565b610555614e0f565b6001600160a01b031680156105ac576105a390476105748115156134e9565b61058d5f80808085875af161058761352c565b5061355b565b6105956135a7565b61059d61349a565b92614d3b565b61001860015f55565b60405162461bcd60e51b815260206004820152601260248201527115558e881e995c9bc81c9958da5c1a595b9d60721b6044820152606490fd5b34610423575f36600319011261042357602060ff600a54166040519015158152f35b34610423575f366003190112610423576005546040516001600160a01b039091168152602090f35b90602080835192838152019201905f5b81811061064d5750505090565b82516001600160a01b0316845260209384019390920191600101610640565b90602080835192838152019201905f5b8181106106895750505090565b82516001600160401b031684526020938401939092019160010161067c565b90602080835192838152019201905f5b8181106106c55750505090565b825115158452602093840193909201916001016106b8565b91610706906106f86107149593606086526060860190610630565b90848203602086015261066c565b9160408184039101526106a8565b90565b34610423575f36600319011261042357600454610733816135e7565b9061073d816135e7565b91610747826135e7565b905f5b838110156107f45760045f527f8a35acfbc15ff81a39ae7d344fd709f28e8600b4aa8c65c6b64bfe7fe36bd19b810154600191906107ee906107dd906001600160a01b03168061079a858861364a565b526001600160a01b0381165f908152601660205260409020546107d8906001600160401b03166107ca868c61364a565b906001600160401b03169052565b613f0a565b6107e7838761364a565b9015159052565b0161074a565b506108068492604051938493846106dd565b0390f35b34610423575f366003190112610423576020600b54604051908152f35b34610423575f3660031901126104235761083f614be0565b6005546001600160a01b031633819003610968576001600160a01b0316156109595761089461088f61087d60135461088661088161087d8360ff1690565b1590565b61365e565b60501c60ff1690565b6136aa565b6108a76108a260145461370a565b601455565b6108b9600160ff196013541617601355565b6108c960135461ff001916601355565b61090b6108e46108d84261371d565b6001600160401b031690565b69ffffffffffffffff00006013549160101b169069ffffffffffffffff0000191617601355565b6013805460ff60501b1916905561093261092361373b565b61092b61349a565b9033614c7f565b337f45169f9a6369d811de455bb5ecdc25c684355abe2deaf2f8d9b81618754ba3b45f80a2005b630fd9d18960e41b5f5260045ffd5b631a4f16b960e21b5f5260045ffd5b34610423575f3660031901126104235761098f614bbd565b610997614be0565b6010546001600160a01b0381168015610a20576001600160f01b0319909116601055604080516109f992916109cc908261342e565b60128152711c9958dbdd995c9e57d8d85b98d95b1b195960721b60208201526109f361349a565b91614c7f565b337f8154b6c5e1fc90d44b49808ef93f9739148d0821411890f8cd684385e24b9f1e5f80a2005b638d0fa13360e01b5f5260045ffd5b3461042357602036600319011261042357600435610a4c81610507565b60018060a01b03165f526002602052602060ff60405f2054166040519015158152f35b34610423575f36600319011261042357602060ff600a5460081c166040519015158152f35b34610423575f3660031901126104235760206001600160401b0360085416604051908152f35b34610423575f366003190112610423576010546001600160401b03906001600160a01b038116600260e883901c60ff1610610b355760ff60025b6040805184151581526001600160a01b03909416602085015260a085811c84169185019190915260a89490941c909416606083015292909216608083015290f35b60ff6001610af4565b34610423575f36600319011261042357610b56614be0565b335f908152600260205260409020610b749061087d905b5460ff1690565b610cf457610b8761087d60135460ff1690565b610ce557335f908152601760205260409020610ba290610b6d565b610cd657335f908152601760205260409020610bc6905b805460ff19166001179055565b610bed610bdd610bd860185460ff1690565b61376e565b60ff1660ff196018541617601855565b600260ff610bfd60035460ff1690565b1610610ccd5760ff60025b1660ff610c1760185460ff1690565b16818110610cc05750610c2f60ff1960135416601355565b610c3f60135461ff001916601355565b610c5769ffffffffffffffff00001960135416601355565b6013805460ff60501b19169055610c7360ff1960185416601855565b610c87610c7e6137ba565b826104cc61349a565b60405160ff909116815233907f82a4e870a30fcdcdb7097dff3667437d1d8574e2766560bb07e1f1fb4a5b15189080602081015b0390a2005b61001891506104c361377f565b60ff6001610c08565b63017a521b60e51b5f5260045ffd5b6324dcf66760e21b5f5260045ffd5b633321153560e21b5f5260045ffd5b34610423575f36600319011261042357610d1b614be0565b335f908152600260205260409020610d369061087d90610b6d565b610cf457610d4b610d4633613f0a565b613800565b6010546001600160a01b03811615610a2057610d7e90610d769060a81c6001600160401b03166108d8565b42111561384c565b335f908152601260205260409020610da4610b6d6011548093905f5260205260405f2090565b610cd657335f908152601260205260409020610dcc91610bb9915b905f5260205260405f2090565b610e06610de7610de260105460ff9060a01c1690565b61388f565b6010805460ff60a01b191660a09290921b60ff60a01b16919091179055565b601054610e2e9060a01c60ff16610e1b6138a1565b60ff610e2561349a565b92169033614d3b565b601054610e486001600160a01b0382169160a01c60ff1690565b60405160ff9190911681526001600160a01b03919091169033907f93a8f3acc471767423e482b998d4f8d2dd61068cf066749b4d296f36bb64ad0090602090a3005b34610423575f36600319011261042357602060ff600c5460101c166040519015158152f35b8015150361042357565b3461042357604036600319011261042357600435610ed681610507565b60243590610ee382610eaf565b610eeb614bbd565b610ef3614be0565b6001600160a01b03811691821561095957601054610f21906001600160a01b03165b6001600160a01b031690565b611111576001600160a01b0382165f908152600260205260409020610f4590610b6d565b81151590151503610f5257005b6001600160a01b0382165f908152600260205260409020610f7e908260ff801983541691151516179055565b80156110345761001892610faa610f9a610bd860035460ff1690565b60ff1660ff196003541617600355565b6001600160a01b0383165f908152601660205260409020805467ffffffffffffffff19166001600160401b034216179055610fe483613961565b60405182151581527fc4459d655e1efe034a75446f1f4db087f75d23bdfabccffafa6384cdb23a154490602090a2156110275761101f6139f6565b6109f361349a565b61102f6139c9565b61101f565b61104b610f9a61104660035460ff1690565b6138d0565b6001600160a01b0382165f908152601660205260408120805467ffffffffffffffff191690555b6004548082101561110657846110a2610f1561108d8561362d565b905460039190911b1c6001600160a01b031690565b146110b05750600101611072565b61001894916110d56110cf61108d6110ca6110f9956138df565b61362d565b9161362d565b81546001600160a01b0393841660039290921b91821b9390911b1916919091179055565b6111016138fa565b610fe4565b505061001892610fe4565b631b11469b60e11b5f5260045ffd5b346104235760403660031901126104235760043561113d81610507565b60243590611149614bbd565b611151614be0565b6001600160a01b03811680156109595760405163095ea7b360e01b81526001600160a01b03831660048201526024810184905292602084806044810103815f7f00000000000000000000000000000000000000000000000000000000000000006001600160a01b03165af192831561050257610806945f9461122f575b507fdbb7105d7dc41668df230e5be9d018b32b76fa24d02376890ee40fef045332499161120a61121a9261120187613a35565b82610595613a75565b6040519081529081906020820190565b0390a260405190151581529081906020820190565b61121a9194509161120a61127b7fdbb7105d7dc41668df230e5be9d018b32b76fa24d02376890ee40fef045332499460203d602011611285575b611273818361342e565b810190613a20565b95925050916111ce565b503d611269565b34610423575f3660031901126104235760206001600160401b0360055460a01c16604051908152f35b34610423575f366003190112610423576040517f00000000000000000000000000000000000000000000000000000000000000006001600160a01b03168152602090f35b346104235760203660031901126104235760043561131681610507565b60018060a01b03165f52601660205260206001600160401b0360405f205416604051908152f35b9181601f84011215610423578235916001600160401b038311610423576020808501948460051b01011161042357565b805180835260209291819084018484015e5f828201840152601f01601f1916010190565b602081016020825282518091526040820191602060408360051b8301019401925f915b8383106113c357505050505090565b90919293946020806113e1600193603f19868203018752895161136d565b970193019301919392906113b4565b34610423576060366003190112610423576004356001600160401b0381116104235761142090369060040161133d565b6024356001600160401b0381116104235761143f90369060040161133d565b919092604435926001600160401b038411610423576108069461146961147195369060040161133d565b949093613aa0565b60405191829182611391565b34610423575f366003190112610423575f5f906114a26006546001600160401b031690565b6001600160401b0381161515806115a2575b61155d575b506008546001600160401b03604082901c1680151580611543575b6114f8575b5050604080516001600160401b03928316815292909116602083015290f35b61150f916001600160401b0316613cbf565b613cbf565b6001600160401b0381164210611526575b806114d9565b61153c9192506001600160401b03421690613e8b565b905f611520565b506115566001600160401b0383166108d8565b15156114d4565b600554611576919060a01c6001600160401b0316613cbf565b6001600160401b0381164210156114b95761159c91506001600160401b03421690613e8b565b5f6114b9565b506005546115bb9060a01c6001600160401b03166108d8565b15156114b4565b34610423575f366003190112610423576020600d54604051908152f35b34610423576020366003190112610423576004356115fb614bbd565b805f52600e60205260405f2060018101541561169c576116286001600160401b0360028193015416613c9f565b16421115611662578061165a611649610018935f52600e60205260405f2090565b60025f918281558260018201550155565b6104c3613eab565b60405162461bcd60e51b815260206004820152601260248201527115558e881d1e081b9bdd08195e1c1a5c995960721b6044820152606490fd5b634c8d442960e01b5f5260045ffd5b34610423575f366003190112610423576116c3614bbd565b6116cb614be0565b60135460ff811615610ce5576affffffffffffffffffffff1916600160501b176013556117266040516116ff60408261342e565b60128152711a5b9a195c9a5d185b98d957d9195b9a595960721b602082015261092b61349a565b337fec32f6be1cfe5f271330570749895d0cdcb3324846ee37b8a6ac973b4a27cf575f80a2005b34610423575f36600319011261042357602060ff60035416604051908152f35b34610423575f366003190112610423576040517f00000000000000000000000000000000000000000000000000000000000000006001600160a01b03168152602090f35b34610423576020366003190112610423576004356117cd614bbd565b805f52600e60205260405f2060018101541561169c576002019081549160ff8360481c1661183657600160481b6100189360ff60481b191617905533817f12cd094e454538586035071c64eb69c206d65137212e7d5e9d32d738540435705f80a36104c3613edb565b63446d277b60e11b5f5260045ffd5b34610423576020366003190112610423576004355f52600e60205260a060405f2060ff600180841b0382541691600260018201549101549060405193845260208401526001600160401b0381166040840152818160401c161515606084015260481c1615156080820152f35b346104235760203660031901126104235760206118d36004356107d881610507565b6040519015158152f35b34610423575f366003190112610423576118f5614be0565b6118fd614e0f565b60135460ff811615610ce557605081901c60ff16611b6b5761196c9061193a611932601083901c6001600160401b03166108d8565b421115613f65565b600260ff61194a60035460ff1690565b1610611b5e5760ff6119648160025b169260081c60ff1690565b161015613fb1565b6005546119b3906001600160a01b031660208161198a811515613ffd565b604051630709df4560e01b81526001600160a01b03909116600482015292839081906024820190565b03817f00000000000000000000000000000000000000000000000000000000000000006001600160a01b03165afa918215610502575f92611b2d575b506001600160a01b03821691611a06831515614053565b6040516370a0823160e01b81523060048201526001600160a01b037f000000000000000000000000000000000000000000000000000000000000000016602082602481845afa8015610502577fcc9c89312a2ac19bfbb488a107aa51e50162fc6a2ad5dad80dbba85e2a9a936893611af6935f92611b02575b50611a9a82828195611a9561120a9615156140ae565b614e50565b611aa960ff1960135416601355565b611ab960135461ff001916601355565b611ad169ffffffffffffffff00001960135416601355565b6013805460ff60501b19169055611aed60ff1960185416601855565b826105956140fa565b0390a361001860015f55565b61120a92508193611b24611a9a9260203d6020116104fb576104ed818361342e565b93509350611a7f565b611b5091925060203d602011611b57575b611b48818361342e565b81019061403e565b905f6119ef565b503d611b3e565b60ff611964816001611959565b63781b949d60e11b5f5260045ffd5b3461042357604036600319011261042357600435611b9781610507565b602435611ba2614bbd565b611baa614be0565b611bb2614df4565b611bba614e0f565b6001600160a01b03821691821561095957611bd682151561412d565b6040516370a0823160e01b81523060048201526001600160a01b037f00000000000000000000000000000000000000000000000000000000000000001690602081602481855afa90811561050257611c399185915f91611ec7575b50101561416b565b611c41614692565b8015159081611ebc575b50611d7a579161120a82611cc083611cef957f1f4e9075aadab47c6d1822e19226819c4482f4326012945c69bb143c6861982a97611c916006546001600160401b031690565b6001600160401b038116151580611d5a575b611d2c575b506007548084119081611d22575b50611d0757614e50565b6005805467ffffffffffffffff60a01b19164260a01b67ffffffffffffffff60a01b1617905582610595614307565b0390a2611cfb60015f55565b60405160018152602090f35b611a95611d126142d3565b84611d1b61349a565b9185614d3b565b905015155f611cb6565b611d4c6108d8611d549261150a6005546001600160401b039060a01c1690565b421015614292565b5f611ca8565b50600554611d739060a01c6001600160401b03166108d8565b1515611ca3565b611eb8611e92611ea0611e6587611e608789600f5493611da1611d9c8661370a565b600f55565b611df1611dac61346e565b6001600160a01b038516815260208101849052426001600160401b031660408201525f60608201525f6080820152611dec875f52600e60205260405f2090565b6141b7565b80857f72c131e4f3fead122420dfa8d1a10e700e5e3badef6ea9b934ce82124515d1ce60405180611e2787829190602083019252565b0390a360405182815285907f01f061fd4833af7536ad6a70ec12a9dc6288023456766753aae7ff9197ecfc1090602090a361059561424e565b614f5e565b604051732aab1d3832b73234b73396b0b8383937bb30b61d60611b60208201529283916034830190614280565b03601f19810183528261342e565b60405162461bcd60e51b815291829160048301612a64565b0390fd5b90508310155f611c4b565b611ee0915060203d6020116104fb576104ed818361342e565b5f611c31565b34610423576020366003190112610423576004355f52600e60205260405f2060018060a01b0381541690610806600260018301549201546001600160401b03811692611f3184613c9f565b604080516001600160a01b0397909716875260208701929092526001600160401b0394851686830152909316606085018190524211608085015260ff9281901c8316151560a085015260481c909116151560c0830152819060e0820190565b3461042357602036600319011261042357600435611fac614bbd565b611fb4614be0565b68056bc75e2d6310000081106120285769d3c21bcecceda10000008111611fea5780611fe261001892600755565b6104c3614333565b60405162461bcd60e51b81526020600482015260166024820152750aaac7440e8d0e4cae6d0ded8c840e8dede40d0d2ced60531b6044820152606490fd5b60405162461bcd60e51b815260206004820152601560248201527455563a207468726573686f6c6420746f6f206c6f7760581b6044820152606490fd5b34610423575f366003190112610423576020600f54604051908152f35b34610423575f36600319011261042357602060405162278d008152f35b90602080835192838152019201905f5b8181106120bc5750505090565b82518452602093840193909201916001016120af565b979695926121449461211a6121289261210c8c612136976120fe60c09c9860e0845260e084019061209f565b916020818403910152610630565b8c810360408e01529061209f565b908a820360608c015261066c565b9088820360808a01526106a8565b9086820360a08801526106a8565b930152565b346104235760403660031901126104235760243560043581156123af575b606482116123a6575b600f54905f805b83811061233c5750818111156123355761219182826138ed565b935b80851161232d575b506121a5846135e7565b6121ae856135e7565b946121b8816135e7565b916121c2826135e7565b6121cb836135e7565b906121d5846135e7565b915f965f955f5b8b811080612324575b1561230e576121fc815f52600e60205260405f2090565b60018101548e8d821515806122f5575b612223575b5050505061221e9061370a565b6121dc565b90848d928f969f101561224c575b505050505061224261221e9161370a565b99905f8e8d612211565b6002612242956122eb9561221e989f958f6122a49161229f6122e6986122dc986122778c809661364a565b5286546122909085906001600160a01b03165b9261364a565b6001600160a01b039091169052565b61364a565b5201546122be8b6107ca866001600160401b03851661228a565b6122d3604082901c60ff166107e7868d61364a565b60481c60ff1690565b6107e7838c61364a565b61370a565b98918a8f8d612231565b5060028401546123099060481c60ff161590565b61220c565b8c876108068589888a8f604051978897886120d2565b508188106121e5565b93505f61219b565b5f93612193565b6001612350825f52600e60205260405f2090565b015415158061237b575b612367575b600101612177565b9061237360019161370a565b91905061235f565b506123a161087d6002612396845f52600e60205260405f2090565b015460481c60ff1690565b61235a565b60649150612170565b60329150612167565b34610423576020366003190112610423576004356123d581610eaf565b6123dd614bbd565b7f18a225f450380fd39da2a8986c15805afce4eb7f6efbdfe1d0bb9df17c8e7923602082151560ff19600a541660ff821617600a55604051908152a1156124505761001860405161242f60408261342e565b600c81526b3b30bab63a2fb33937bd32b760a11b602082015261092b61349a565b61001860405161246160408261342e565b600e81526d3b30bab63a2fbab7333937bd32b760911b6020820152610923565b346104235760203660031901126104235760043561249e81610507565b6124a6614bbd565b6124ae614be0565b6001600160a01b0381169081156109595761251890826001600160601b0360a01b60055416176005556040516124e560408261342e565b600f81526e1b995e1d17dbd997dada5b97dcd95d608a1b60208201526040519161251060208461342e565b5f8352614c7f565b7f5e5418a3c3d9e12cae95b949efcf26cfdffb4dbc73cd1d2532a97f656e634bf55f80a2005b34610423575f366003190112610423576001546040516001600160a01b039091168152602090f35b34610423576020366003190112610423576004356001600160401b03811680820361042357612593614bbd565b61259b614be0565b62093a808111612630577f8cda612ae0c82a8cb2d30ebddc4e01a65f44d092f2d1537454f126f009974f1661261d61001893610e108410801590612628575b6125e39061435e565b612603816001600160401b03166001600160401b03196006541617600655565b6040516001600160401b0390911681529081906020820190565b0390a16104c36143a2565b5083156125da565b60405162461bcd60e51b815260206004820152601460248201527355563a636f6f6c646f776e2d746f6f2d6c6f6e6760601b6044820152606490fd5b346104235760203660031901126104235760043561268981610eaf565b612691614bbd565b612699614be0565b600c805462ff0000191682151560101b62ff0000161790551561271f576040516370a0823160e01b81523060048201526020816024816001600160a01b037f0000000000000000000000000000000000000000000000000000000000000000165afa801561050257612711915f916104d35750600d55565b610018600d546104c3614407565b6127285f600d55565b6100186109236143cc565b346104235760203660031901126104235760043561275081610507565b7f00000000000000000000000000000000000000000000000000000000000000006001600160a01b031633036127d557600180546001600160a01b0319166001600160a01b039290921691821790556127af6127aa614442565b615010565b7f50146d0e3c60aa1d17a70635b05494f864e86144a2201275021014fbf08bafe25f80a2005b60405162461bcd60e51b815260206004820152600a6024820152692aab1d37b7363ca43ab160b11b6044820152606490fd5b34610423575f3660031901126104235760206001600160401b0360085460401c16604051908152f35b34610423575f366003190112610423576020600954604051908152f35b3461042357602036600319011261042357600435612869614bbd565b612871614be0565b612879614df4565b612881614e0f565b612893815f52600e60205260405f2090565b90600182019081541561169c5760028301805490604882901c60ff16611836576128e66128de6108d86128d9856108d86128d46128ff9860ff9060401c1690565b614471565b613c9f565b4211156144b3565b805469ff0000000000000000001916600160481b179055565b6040516370a0823160e01b8152306004820152926001600160a01b037f00000000000000000000000000000000000000000000000000000000000000001690602085602481855afa948515610502576105a3956129b493612981925f92612a26575b5061297087548093101561416b565b83546001600160a01b031690614e50565b6005805467ffffffffffffffff60a01b19164260a01b67ffffffffffffffff60a01b16179055546001600160a01b031690565b915460405181815290916001600160a01b038416918291907fda19024f6708ce28e75d9c0ec389fb05a8e5cc9dfe520f61239c10d51a11e59c90602090a36040518281527f1f4e9075aadab47c6d1822e19226819c4482f4326012945c69bb143c6861982a90602090a26105956144f8565b612a4091925060203d6020116104fb576104ed818361342e565b905f612961565b34610423575f366003190112610423576020600754604051908152f35b90602061071492818152019061136d565b3461042357606036600319011261042357600435612a9281610507565b60243590604435906001600160401b0382116104235736602383011215610423578160040135906001600160401b03821161042357366024838501011161042357610806936024612ae4940191614529565b60405191829182612a64565b34610423575f366003190112610423576040517f00000000000000000000000000000000000000000000000000000000000000006001600160a01b03168152602090f35b34610423575f366003190112610423576040517f00000000000000000000000000000000000000000000000000000000000000006001600160a01b03168152602090f35b34610423575f36600319011261042357612b90614be0565b335f908152600260205260409020612bab9061087d90610b6d565b610cf45760135460ff811615610ce557605081901c60ff16611b6b57335f90815260156020526040902090612bee610b6d6014548094905f5260205260405f2090565b610cd657612c2691612c136119326108d8610bb9946001600160401b039060101c1690565b335f908152601560205260409020610dbf565b612c54612c3c610bd860135460ff9060081c1690565b60135461ff00191660089190911b61ff001617601355565b601354612c699060081c60ff16610e1b614646565b60135460081c60ff1660405160ff909116815233907f0ea7dfe497d90adcfba43ccd872c922d16653039b5d89b207ba8554c2cff14cd908060208101610cbb565b34610423575f366003190112610423576001546001600160a01b03166040516370a0823160e01b815230600482015290602082806024810103817f00000000000000000000000000000000000000000000000000000000000000006001600160a01b03165afa918215610502575f92612e4e575b5047612d2c600a5460ff1690565b7f00000000000000000000000000000000000000000000000000000000000000006001600160a01b0316919082151580612df7575b600354610806945060ff166005546001600160a01b0316601054909290612d90906001600160a01b0316610f15565b151593612d9f60135460ff1690565b604080516001600160a01b039a8b168152602081019b909b528a0196909652151560608901521515608088015260ff1660a087015290931660c085015291151560e08401529015156101008301528190610120820190565b50604051631293efbb60e21b815230600482015292602090849060249082905afa801561050257610806935f91612e2f575b50612d61565b612e48915060203d60201161128557611273818361342e565b5f612e29565b612e6891925060203d6020116104fb576104ed818361342e565b905f612d1e565b34610423575f36600319011261042357601354600260ff6003541610155f14612ee1576002905b6040805160ff83811615158252600884901c811660208301526001600160401b03601085901c169282019290925260509290921c81161515606083015291909116608082015260a090f35b600190612e96565b34610423575f366003190112610423576020612f03614692565b604051908152f35b3461042357606036600319011261042357600435612f2881610eaf565b602435906044359161ffff83169182840361042357612f45614bbd565b612f4d614be0565b8015613008577f2e02e19641dbae8d0ee7cf4656d3cc039f7adb684e447de0492c12fe349bc9d5612fe36100189585151580612ffc575b612f8d90614776565b612fa38161ffff1661ffff19600c541617600c55565b612fbf84600a5461ff00191690151560081b61ff001617600a55565b6040805185151581526020810187905261ffff909216908201529081906060820190565b0390a115612ff557505b6104c36147ce565b9050612fed565b50612710861115612f84565b6007548210613047577f2e02e19641dbae8d0ee7cf4656d3cc039f7adb684e447de0492c12fe349bc9d5612fe36100189561304285600b55565b612fa3565b60405162461bcd60e51b815260206004820152602760248201527f55563a206d757374206265203e3d206c61726765207472616e736665722074686044820152661c995cda1bdb1960ca1b6064820152608490fd5b34610423575f3660031901126104235760206001600160401b0360065416604051908152f35b34610423575f36600319011261042357602061ffff600c5416604051908152f35b346104235760203660031901126104235761001860043561310381610507565b61310b614be0565b61486b565b34610423575f36600319011261042357613128614be0565b6010546001600160a01b03811690818015610a20576131898261315e610d766108d86131a6966001600160401b039060a81c1690565b600260e882901c60ff16106131e75760ff6131818160025b169260a01c60ff1690565b161015614a99565b60018060a01b03166001600160601b0360a01b6001541617600155565b601080546001600160f01b03191690556131c16127aa614ae5565b7f9504e318c48c2d15540e6faaea014f2855c06fc4df211f5e26a8fb99a6be7fdf5f80a2005b60ff613181816001613176565b346104235760603660031901126104235760043561321181610507565b60243561321d81610507565b60443591613229614bbd565b613231614be0565b613239614df4565b6001600160a01b031691821515806132d2575b1561329a57610018926132929082908490611a957f00000000000000000000000000000000000000000000000000000000000000006001600160a01b0316821415614b15565b610595614b61565b60405162461bcd60e51b815260206004820152601060248201526f55563a207a65726f206164647265737360801b6044820152606490fd5b506001600160a01b038216151561324c565b34610423575f36600319011261042357602060405162093a808152f35b346104235760203660031901126104235760043561331d614bbd565b805f52600e60205260405f2060018101541561169c576002019081546133478160ff9060481c1690565b611836576100189261336b6128de6108d86128d9613383956001600160401b031690565b805468ff00000000000000001916600160401b179055565b33817f924813d717e221b5f46dcd8a56da1679e4612584ab3237d55e5faabf6f6a30795f80a36104c3614b8c565b34610423575f366003190112610423576020604051620151808152f35b156133d557565b60405162461bcd60e51b815260206004820152601d60248201527f55563a20736e617073686f74206d6f6465206e6f7420656e61626c65640000006044820152606490fd5b634e487b7160e01b5f52604160045260245ffd5b90601f801991011681019081106001600160401b0382111761344f57604052565b61341a565b90816020910312610423575190565b6040513d5f823e3d90fd5b6040519061347d60a08361342e565b565b6001600160401b03811161344f57601f01601f191660200190565b604051906134a960208361342e565b5f8252565b604051906134bd60408361342e565b601882527f62616c616e63655f736e617073686f745f7570646174656400000000000000006020830152565b156134f057565b60405162461bcd60e51b815260206004820152601460248201527355563a206e6f2045544820746f2072657363756560601b6044820152606490fd5b3d15613556573d9061353d8261347f565b9161354b604051938461342e565b82523d5f602084013e565b606090565b1561356257565b60405162461bcd60e51b815260206004820152601760248201527f55563a20455448207472616e73666572206661696c65640000000000000000006044820152606490fd5b604051906135b660408361342e565b600b82526a195d1a17dc995cd8dd595960aa1b6020830152565b6001600160401b03811161344f5760051b60200190565b906135f1826135d0565b6135fe604051918261342e565b828152809261360f601f19916135d0565b0190602036910137565b634e487b7160e01b5f52603260045260245ffd5b6004548110156136455760045f5260205f2001905f90565b613619565b80518210156136455760209160051b010190565b1561366557565b60405162461bcd60e51b815260206004820152601e60248201527f55563a20696e6865726974616e636520616c72656164792061637469766500006044820152606490fd5b156136b157565b60405162461bcd60e51b815260206004820152601c60248201527f55563a206f776e65722064656e69656420696e6865726974616e6365000000006044820152606490fd5b634e487b7160e01b5f52601160045260245ffd5b5f1981146137185760010190565b6136f6565b9062278d00820180921161371857565b603001908160301161371857565b6040519061374a60408361342e565b60158252741a5b9a195c9a5d185b98d957dc995c5d595cdd1959605a1b6020830152565b60ff1660ff81146137185760010190565b6040519061378e60408361342e565b601782527f696e6865726974616e63655f63616e63656c5f766f74650000000000000000006020830152565b604051906137c960608361342e565b60228252616e7360f01b6040837f696e6865726974616e63655f63616e63656c6c65645f62795f6775617264696160208201520152565b1561380757565b60405162461bcd60e51b815260206004820152601760248201527f55563a20677561726469616e206e6f74206d61747572650000000000000000006044820152606490fd5b1561385357565b60405162461bcd60e51b815260206004820152601460248201527315558e881c9958dbdd995c9e48195e1c1a5c995960621b6044820152606490fd5b60ff60019116019060ff821161371857565b604051906138b060408361342e565b60118252701c9958dbdd995c9e57d85c1c1c9bdd985b607a1b6020830152565b60ff168015613718575f190190565b5f1981019190821161371857565b9190820391821161371857565b600454801561394d575f198101906004548210156136455760045f8190527f8a35acfbc15ff81a39ae7d344fd709f28e8600b4aa8c65c6b64bfe7fe36bd19a90910180546001600160a01b031916905555565b634e487b7160e01b5f52603160045260245ffd5b60045490600160401b82101561344f57600182016004556004548210156136455760045f527f8a35acfbc15ff81a39ae7d344fd709f28e8600b4aa8c65c6b64bfe7fe36bd19b90910180546001600160a01b0319166001600160a01b03909216919091179055565b604051906139d860408361342e565b600f82526e677561726469616e5f72656d6f766560881b6020830152565b60405190613a0560408361342e565b600c82526b19dd585c991a585b97d8591960a21b6020830152565b90816020910312610423575161071481610eaf565b15613a3c57565b60405162461bcd60e51b815260206004820152601160248201527015558e985c1c1c9bdd994b59985a5b1959607a1b6044820152606490fd5b60405190613a8460408361342e565b600d82526c7661756c745f617070726f766560981b6020830152565b939290613aab614bbd565b613ab3614be0565b613abb614e0f565b81811480613c55575b613acd90613c5e565b6008546001600160401b03604082901c1680151580613c3b575b613c12575b5050613af781613d2b565b955f5b828110613b335750506008805467ffffffffffffffff1916426001600160401b031617905550613b2a9350505050565b61071460015f55565b613b49610f15613b4483868b613d74565b613d84565b1561095957613b6a30613b63610f15613b4485888d613d74565b1415613d8e565b613b83613b78828688613d74565b356009541015613dc9565b5f80613b93613b4484878c613d74565b613b9e84888a613d74565b35613baa85878c613e0c565b9190613bbb60405180948193613e4d565b03925af190613bc861352c565b911561346357600191613bdb828b61364a565b52613be6818a61364a565b50613c0c613bf8613b4483878c613d74565b613c0383888a613d74565b35610595613e5a565b01613afa565b6108d8613c2c9161150a613c34946001600160401b031690565b421015613cdf565b5f80613aec565b50613c4e6001600160401b0383166108d8565b1515613ae7565b50818614613ac4565b15613c6557565b60405162461bcd60e51b81526020600482015260126024820152710aaac74d8cadccee8d05adad2e6dac2e8c6d60731b6044820152606490fd5b6001600160401b0362015180911601906001600160401b03821161371857565b906001600160401b03809116911601906001600160401b03821161371857565b15613ce657565b60405162461bcd60e51b815260206004820152601a60248201527f55563a657865637574652d636f6f6c646f776e2d6163746976650000000000006044820152606490fd5b90613d35826135d0565b613d42604051918261342e565b8281528092613d53601f19916135d0565b01905f5b828110613d6357505050565b806060602080938501015201613d57565b91908110156136455760051b0190565b3561071481610507565b15613d9557565b60405162461bcd60e51b815260206004820152600c60248201526b15558e9cd95b198b58d85b1b60a21b6044820152606490fd5b15613dd057565b60405162461bcd60e51b81526020600482015260146024820152730aaac74ecc2d8eaca5acaf0c6cacac8e65adac2f60631b6044820152606490fd5b91908110156136455760051b81013590601e19813603018212156104235701908135916001600160401b038311610423576020018236038113610423579190565b908092918237015f815290565b60405190613e6960408361342e565b60138252720ecc2ead8e8becaf0cac6eae8cabec4c2e8c6d606b1b6020830152565b906001600160401b03809116911603906001600160401b03821161371857565b60405190613eba60408361342e565b6012825271070656e64696e675f74785f636c65616e75760741b6020830152565b60405190613eea60408361342e565b60118252701c195b991a5b99d7dd1e17d9195b9a5959607a1b6020830152565b6001600160a01b03165f8181526002602052604090205460ff1615613f60575f52601660205262093a806001600160401b0360405f205416016001600160401b038111613718576001600160401b031642101590565b505f90565b15613f6c57565b60405162461bcd60e51b815260206004820152601760248201527f55563a20696e6865726974616e636520657870697265640000000000000000006044820152606490fd5b15613fb857565b60405162461bcd60e51b815260206004820152601a60248201527f55563a20696e73756666696369656e7420617070726f76616c730000000000006044820152606490fd5b1561400457565b60405162461bcd60e51b81526020600482015260126024820152712aab1d103737903732bc3a1037b31035b4b760711b6044820152606490fd5b90816020910312610423575161071481610507565b1561405a57565b60405162461bcd60e51b815260206004820152602660248201527f55563a20696e68657269746f72206d7573742068617665206578697374696e67604482015265081d985d5b1d60d21b6064820152608490fd5b156140b557565b60405162461bcd60e51b815260206004820152601760248201527f55563a206e6f2066756e647320746f20696e68657269740000000000000000006044820152606490fd5b6040519061410960408361342e565b60158252741a5b9a195c9a5d185b98d957d99a5b985b1a5e9959605a1b6020830152565b1561413457565b60405162461bcd60e51b815260206004820152600f60248201526e15558e881e995c9bc8185b5bdd5b9d608a1b6044820152606490fd5b1561417257565b60405162461bcd60e51b815260206004820152601860248201527f55563a20696e73756666696369656e742062616c616e636500000000000000006044820152606490fd5b600260809160018060a01b038451166001600160601b0360a01b8254161781556020840151600182015501916142106001600160401b0360408301511684906001600160401b03166001600160401b0319825416179055565b60608101518354929091015169ffff00000000000000001990921690151560401b68ff0000000000000000161790151560481b60ff60481b16179055565b6040519061425d60408361342e565b601482527318589b9bdc9b585b17dd1e17d9195d1958dd195960621b6020830152565b805191908290602001825e015f815290565b1561429957565b60405162461bcd60e51b815260206004820152601260248201527155563a636f6f6c646f776e2d61637469766560701b6044820152606490fd5b604051906142e260408361342e565b60168252751b185c99d957dd1c985b9cd9995c97d85d1d195b5c1d60521b6020830152565b6040519061431660408361342e565b600e82526d3b30bab63a2fba3930b739b332b960911b6020830152565b6040519061434260408361342e565b600d82526c1d1a1c995cda1bdb1917dcd95d609a1b6020830152565b1561436557565b60405162461bcd60e51b815260206004820152601560248201527415558e98dbdbdb191bdddb8b5d1bdbcb5cda1bdc9d605a1b6044820152606490fd5b604051906143b160408361342e565b600c82526b18dbdbdb191bdddb97dcd95d60a21b6020830152565b604051906143db60408361342e565b601982527f62616c616e63655f736e617073686f745f64697361626c6564000000000000006020830152565b6040519061441660408361342e565b601882527f62616c616e63655f736e617073686f745f656e61626c656400000000000000006020830152565b6040519061445160408361342e565b60118252703b30bab63a2fb337b931b2afb7bbb732b960791b6020830152565b1561447857565b60405162461bcd60e51b815260206004820152601360248201527215558e881d1e081b9bdd08185c1c1c9bdd9959606a1b6044820152606490fd5b156144ba57565b60405162461bcd60e51b815260206004820152601660248201527515558e881c195b991a5b99c81d1e08195e1c1a5c995960521b6044820152606490fd5b6040519061450760408361342e565b60138252721c195b991a5b99d7dd1e17d95e1958dd5d1959606a1b6020830152565b92919091614535614bbd565b61453d614be0565b614545614e0f565b6001600160a01b038416908115610959575f92614594849361456b600954881115613dc9565b6008546001600160401b03604082901c1680151580614601575b6145e0575b5050301415613d8e565b6145a360405180938193613e4d565b039084865af1916145b261352c565b9215613463576008805467ffffffffffffffff1916426001600160401b0316179055613b2a9161059561461b565b6108d8613c2c9161150a6145fa946001600160401b031690565b5f8061458a565b506146146001600160401b0383166108d8565b1515614585565b6040519061462a60408361342e565b600d82526c7661756c745f6578656375746560981b6020830152565b6040519061465560408361342e565b60148252731a5b9a195c9a5d185b98d957d85c1c1c9bdd995960621b6020830152565b61ffff1690565b8181029291811591840414171561371857565b600a5460081c60ff161561477057600c54601081901c60ff1680614765575b156146dc576146d4610714916146ce614678600d549261ffff1690565b9061467f565b612710900490565b6040516370a0823160e01b81523060048201526020816024816001600160a01b037f0000000000000000000000000000000000000000000000000000000000000000165afa918215610502576146ce614678610714946146d4945f91614746575b509261ffff1690565b61475f915060203d6020116104fb576104ed818361342e565b5f61473d565b50600d5415156146b1565b600b5490565b1561477d57565b60405162461bcd60e51b8152602060048201526024808201527f55563a20696e76616c69642070657263656e746167652028302d3130303030206044820152636270732960e01b6064820152608490fd5b604051906147dd60408361342e565b601982527f61626e6f726d616c5f74785f7468726573686f6c645f736574000000000000006020830152565b6040519061481860408361342e565b60148252733932b1b7bb32b93cafb4b739ba30b73a2fb5b4b760611b6020830152565b6040519061484a60408361342e565b60128252711c9958dbdd995c9e57dc995c5d595cdd195960721b6020830152565b600154614880906001600160a01b0316610f15565b33148015614a7c575b8015614a5f575b15610cf4576001600160a01b038116908115610959576005546148bb906001600160a01b0316610f15565b331480614a49575b6149ea57614987906148de6148d960115461370a565b601155565b601080546001600160a81b0319166001600160a01b0383161790556149356149086108d84261371d565b6010805467ffffffffffffffff60a81b191660a89290921b67ffffffffffffffff60a81b16919091179055565b61496361494460035460ff1690565b6010805460ff60e81b191660e89290921b60ff60e81b16919091179055565b335f90815260026020526040902061497a90610b6d565b6149ad575b61101f61483b565b7f9cc0dc5a29a0ebc421ec879559ba990d29c1fb967a227ed69c9f4e33faa04bff5f80a2565b335f9081526012602052604090206149d290610bb9906011545f5260205260405f2090565b6010805460ff60a01b1916600160a01b17905561497f565b614a0c915060018060a01b03166001600160601b0360a01b6001541617600155565b614a176127aa614809565b6001546001600160a01b03167f9504e318c48c2d15540e6faaea014f2855c06fc4df211f5e26a8fb99a6be7fdf5f80a2565b5060ff614a5860035460ff1690565b16156148c3565b50600554614a75906001600160a01b0316610f15565b3314614890565b50335f908152600260205260409020614a9490610b6d565b614889565b15614aa057565b60405162461bcd60e51b815260206004820152601960248201527f55563a696e73756666696369656e742d617070726f76616c73000000000000006044820152606490fd5b60405190614af460408361342e565b60128252711c9958dbdd995c9e57d99a5b985b1a5e995960721b6020830152565b15614b1c57565b60405162461bcd60e51b815260206004820152601f60248201527f55563a20757365207472616e73666572564649444520666f72205646494445006044820152606490fd5b60405190614b7060408361342e565b600d82526c1d1bdad95b97dc995cd8dd5959609a1b6020830152565b60405190614b9b60408361342e565b60138252721c195b991a5b99d7dd1e17d85c1c1c9bdd9959606a1b6020830152565b6001546001600160a01b03163303614bd157565b63c0b06f0b60e01b5f5260045ffd5b7f00000000000000000000000000000000000000000000000000000000000000006001600160a01b03168015159081614c2a575b50614c1b57565b63105aa7fb60e31b5f5260045ffd5b604051631293efbb60e21b81523060048201529150602090829060249082905afa908115610502575f91614c60575b505f614c14565b614c79915060203d60201161128557611273818361342e565b5f614c59565b7f00000000000000000000000000000000000000000000000000000000000000006001600160a01b031680614cb5575b50505050565b803b15610423575f9283614cf893614d1060405197889687958694630303c28760e61b865260018060a01b0316600486015260806024860152608485019061136d565b9084604485015260031984830301606485015261136d565b03925af1614d21575b808080614caf565b80614d2f5f614d359361342e565b80610419565b5f614d19565b907f00000000000000000000000000000000000000000000000000000000000000006001600160a01b03169081614d74575b5050505050565b813b15610423575f614db793614dce829660405198899788968795630303c28760e61b875260018060a01b0316600487015260806024870152608486019061136d565b91604485015260031984830301606485015261136d565b03925af1614de0575b80808080614d6d565b80614d2f5f614dee9361342e565b5f614dd7565b60ff600a5416614e0057565b6357fa752160e01b5f5260045ffd5b60015f5403614e1e5760025f55565b60405162461bcd60e51b815260206004820152600a6024820152697265656e7472616e637960b01b6044820152606490fd5b60405163a9059cbb60e01b602082019081526001600160a01b03909316602482015260448101939093525f928392908390614e8e8160648101611e92565b51926001600160a01b03165af1614ea361352c565b81614ef6575b5015614eb157565b60405162461bcd60e51b815260206004820152601a60248201527f5361666545524332303a207472616e73666572206661696c65640000000000006044820152606490fd5b8051801592508215614f0b575b50505f614ea9565b614f1e9250602080918301019101613a20565b5f80614f03565b90614f2f8261347f565b614f3c604051918261342e565b828152809261360f601f199161347f565b908151811015613645570160200190565b908115614fef575f82805b614fd4575082614f7882614f25565b91905b614f8457509150565b614f90614fcd916138df565b93614fb9614fa9614fa3600a840661372d565b60ff1690565b60f81b6001600160f81b03191690565b5f1a614fc58685614f4d565b53600a900490565b9283614f7b565b90614fe1614fe99161370a565b91600a900490565b80614f69565b9050604051614fff60408261342e565b60018152600360fc1b602082015290565b7f00000000000000000000000000000000000000000000000000000000000000006001600160a01b031680615043575050565b803b1561042357604051633ddd61ab60e21b815230600482015260606024820152915f91839182908490829061507d90606483019061136d565b33604483015203925af161508e5750565b8061509a5f809361342e565b8003126104235756fea26469706673582212204b07efedc31bf860b7d552d27ff8f3b83a0087408c5dcbd4ca77cfefb6bd89c264736f6c634300081e0033a2646970667358221220ff3215d1ba29352c276dfd88b66c83784fdee314ec3a963cf6d3d1b60156151164736f6c634300081e0033","linkReferences":{}},"methodIdentifiers":{"RECOVERY_APPROVALS_REQUIRED()":"3297992e","RECOVERY_DELAY()":"47b45652","acceptOwnership()":"79ba5097","approveForceRecovery(address,address)":"1a656881","cancelOwnershipTransfer()":"23452b9c","checkVaultStatus(address)":"06d7d6cf","dao()":"4162169f","ensureVault(address)":"e01fd215","finalizeForceRecovery(address)":"c5c82203","getVaultInfo(address)":"90229af7","initiateForceRecovery(address,address)":"6a240a9c","isRecoveryApprover(address)":"435c529b","isVault(address)":"652b9b41","ledger()":"56397c35","owner()":"8da5cb5b","ownerOfVault(address)":"2724fe09","pendingOwner()":"e30c3978","predictVault(address)":"27a4e1ab","predictVaultsBatch(address[])":"c93883a5","recoveryApprovalCount(address)":"419d7a83","recoveryApprovals(address,address)":"9f2b8b54","recoveryProposedOwner(address)":"9f9a6508","recoveryUnlockTime(address)":"f20ca7ed","securityHub()":"b72d2943","setDAO(address)":"e73a914c","setModules(address,address,address,address)":"b079fbff","setRecoveryApprover(address,bool)":"360ca958","setVFIDE(address)":"17fd7bf6","totalVaults()":"8d654023","transferOwnership(address)":"f2fde38b","vaultCreatedAt(address)":"fa3fd3bc","vaultOf(address)":"0709df45","vfideToken()":"b8a71eec"},"id":37}