{"abi":[{"type":"constructor","inputs":[{"name":"_vfideToken","type":"address","internalType":"address"},{"name":"_securityHub","type":"address","internalType":"address"},{"name":"_ledger","type":"address","internalType":"address"},{"name":"_dao","type":"address","internalType":"address"}],"stateMutability":"nonpayable"},{"type":"function","name":"RECOVERY_APPROVALS_REQUIRED","inputs":[],"outputs":[{"name":"","type":"uint8","internalType":"uint8"}],"stateMutability":"view"},{"type":"function","name":"RECOVERY_DELAY","inputs":[],"outputs":[{"name":"","type":"uint64","internalType":"uint64"}],"stateMutability":"view"},{"type":"function","name":"acceptOwnership","inputs":[],"outputs":[],"stateMutability":"nonpayable"},{"type":"function","name":"approveForceRecovery","inputs":[{"name":"vault","type":"address","internalType":"address"},{"name":"newOwner","type":"address","internalType":"address"}],"outputs":[],"stateMutability":"nonpayable"},{"type":"function","name":"cancelOwnershipTransfer","inputs":[],"outputs":[],"stateMutability":"nonpayable"},{"type":"function","name":"checkVaultStatus","inputs":[{"name":"addr","type":"address","internalType":"address"}],"outputs":[{"name":"hasVault","type":"bool","internalType":"bool"},{"name":"vaultAddress","type":"address","internalType":"address"},{"name":"isVaultContract","type":"bool","internalType":"bool"}],"stateMutability":"view"},{"type":"function","name":"dao","inputs":[],"outputs":[{"name":"","type":"address","internalType":"address"}],"stateMutability":"view"},{"type":"function","name":"ensureVault","inputs":[{"name":"owner_","type":"address","internalType":"address"}],"outputs":[{"name":"vault","type":"address","internalType":"address"}],"stateMutability":"nonpayable"},{"type":"function","name":"finalizeForceRecovery","inputs":[{"name":"vault","type":"address","internalType":"address"}],"outputs":[],"stateMutability":"nonpayable"},{"type":"function","name":"getVaultInfo","inputs":[{"name":"vault","type":"address","internalType":"address"}],"outputs":[{"name":"owner_","type":"address","internalType":"address"},{"name":"createdAt","type":"uint256","internalType":"uint256"},{"name":"isLocked","type":"bool","internalType":"bool"},{"name":"exists","type":"bool","internalType":"bool"}],"stateMutability":"view"},{"type":"function","name":"initiateForceRecovery","inputs":[{"name":"vault","type":"address","internalType":"address"},{"name":"newOwner","type":"address","internalType":"address"}],"outputs":[],"stateMutability":"nonpayable"},{"type":"function","name":"isRecoveryApprover","inputs":[{"name":"","type":"address","internalType":"address"}],"outputs":[{"name":"","type":"bool","internalType":"bool"}],"stateMutability":"view"},{"type":"function","name":"isVault","inputs":[{"name":"a","type":"address","internalType":"address"}],"outputs":[{"name":"","type":"bool","internalType":"bool"}],"stateMutability":"view"},{"type":"function","name":"ledger","inputs":[],"outputs":[{"name":"","type":"address","internalType":"contract IProofLedger"}],"stateMutability":"view"},{"type":"function","name":"owner","inputs":[],"outputs":[{"name":"","type":"address","internalType":"address"}],"stateMutability":"view"},{"type":"function","name":"ownerOfVault","inputs":[{"name":"","type":"address","internalType":"address"}],"outputs":[{"name":"","type":"address","internalType":"address"}],"stateMutability":"view"},{"type":"function","name":"pendingOwner","inputs":[],"outputs":[{"name":"","type":"address","internalType":"address"}],"stateMutability":"view"},{"type":"function","name":"predictVault","inputs":[{"name":"owner_","type":"address","internalType":"address"}],"outputs":[{"name":"predicted","type":"address","internalType":"address"}],"stateMutability":"view"},{"type":"function","name":"predictVaultsBatch","inputs":[{"name":"owners","type":"address[]","internalType":"address[]"}],"outputs":[{"name":"vaults","type":"address[]","internalType":"address[]"}],"stateMutability":"view"},{"type":"function","name":"recoveryApprovalCount","inputs":[{"name":"","type":"address","internalType":"address"}],"outputs":[{"name":"","type":"uint8","internalType":"uint8"}],"stateMutability":"view"},{"type":"function","name":"recoveryApprovals","inputs":[{"name":"","type":"address","internalType":"address"},{"name":"","type":"address","internalType":"address"},{"name":"","type":"uint256","internalType":"uint256"}],"outputs":[{"name":"","type":"bool","internalType":"bool"}],"stateMutability":"view"},{"type":"function","name":"recoveryNonce","inputs":[{"name":"","type":"address","internalType":"address"}],"outputs":[{"name":"","type":"uint256","internalType":"uint256"}],"stateMutability":"view"},{"type":"function","name":"recoveryProposedOwner","inputs":[{"name":"","type":"address","internalType":"address"}],"outputs":[{"name":"","type":"address","internalType":"address"}],"stateMutability":"view"},{"type":"function","name":"recoveryUnlockTime","inputs":[{"name":"","type":"address","internalType":"address"}],"outputs":[{"name":"","type":"uint64","internalType":"uint64"}],"stateMutability":"view"},{"type":"function","name":"securityHub","inputs":[],"outputs":[{"name":"","type":"address","internalType":"contract ISecurityHub"}],"stateMutability":"view"},{"type":"function","name":"setDAO","inputs":[{"name":"_dao","type":"address","internalType":"address"}],"outputs":[],"stateMutability":"nonpayable"},{"type":"function","name":"setModules","inputs":[{"name":"_vfideToken","type":"address","internalType":"address"},{"name":"_securityHub","type":"address","internalType":"address"},{"name":"_ledger","type":"address","internalType":"address"},{"name":"_dao","type":"address","internalType":"address"}],"outputs":[],"stateMutability":"nonpayable"},{"type":"function","name":"setRecoveryApprover","inputs":[{"name":"approver","type":"address","internalType":"address"},{"name":"status","type":"bool","internalType":"bool"}],"outputs":[],"stateMutability":"nonpayable"},{"type":"function","name":"setVFIDE","inputs":[{"name":"_vfide","type":"address","internalType":"address"}],"outputs":[],"stateMutability":"nonpayable"},{"type":"function","name":"totalVaults","inputs":[],"outputs":[{"name":"","type":"uint256","internalType":"uint256"}],"stateMutability":"view"},{"type":"function","name":"transferOwnership","inputs":[{"name":"newOwner","type":"address","internalType":"address"}],"outputs":[],"stateMutability":"nonpayable"},{"type":"function","name":"vaultCreatedAt","inputs":[{"name":"","type":"address","internalType":"address"}],"outputs":[{"name":"","type":"uint256","internalType":"uint256"}],"stateMutability":"view"},{"type":"function","name":"vaultOf","inputs":[{"name":"","type":"address","internalType":"address"}],"outputs":[{"name":"","type":"address","internalType":"address"}],"stateMutability":"view"},{"type":"function","name":"vfideToken","inputs":[],"outputs":[{"name":"","type":"address","internalType":"address"}],"stateMutability":"view"},{"type":"event","name":"DAOSet","inputs":[{"name":"dao","type":"address","indexed":false,"internalType":"address"}],"anonymous":false},{"type":"event","name":"ForcedRecovery","inputs":[{"name":"vault","type":"address","indexed":true,"internalType":"address"},{"name":"newOwner","type":"address","indexed":true,"internalType":"address"}],"anonymous":false},{"type":"event","name":"ForcedRecoveryInitiated","inputs":[{"name":"vault","type":"address","indexed":true,"internalType":"address"},{"name":"newOwner","type":"address","indexed":true,"internalType":"address"},{"name":"unlockTime","type":"uint64","indexed":false,"internalType":"uint64"}],"anonymous":false},{"type":"event","name":"ModulesSet","inputs":[{"name":"vfide","type":"address","indexed":false,"internalType":"address"},{"name":"securityHub","type":"address","indexed":false,"internalType":"address"},{"name":"ledger","type":"address","indexed":false,"internalType":"address"},{"name":"dao","type":"address","indexed":false,"internalType":"address"}],"anonymous":false},{"type":"event","name":"OwnershipTransferStarted","inputs":[{"name":"previousOwner","type":"address","indexed":true,"internalType":"address"},{"name":"newOwner","type":"address","indexed":true,"internalType":"address"}],"anonymous":false},{"type":"event","name":"OwnershipTransferred","inputs":[{"name":"previousOwner","type":"address","indexed":true,"internalType":"address"},{"name":"newOwner","type":"address","indexed":true,"internalType":"address"}],"anonymous":false},{"type":"event","name":"VFIDESet","inputs":[{"name":"vfide","type":"address","indexed":false,"internalType":"address"}],"anonymous":false},{"type":"event","name":"VaultCreated","inputs":[{"name":"owner","type":"address","indexed":true,"internalType":"address"},{"name":"vault","type":"address","indexed":true,"internalType":"address"}],"anonymous":false},{"type":"error","name":"VI_NotDAO","inputs":[]},{"type":"error","name":"VI_Zero","inputs":[]}],"bytecode":{"object":"0x60803461014257601f61722c38819003918201601f19168301916001600160401b03831184841017610146578084926080946040528339810103126101425760808161006b7f2ad69807131f242e4c6b9e21338b8d7d7d5f32ab1dfaa1eddfa881c305c8f5e79361015a565b906100786020820161015a565b90610091606061008a6040840161015a565b920161015a565b5f80546001600160a01b03191633908117825560405195929392917f8be0079c531659141344cd1fd0a4f28419497f9722a3daafe3b4186f6b6457e08180a3600280546001600160a01b039283166001600160a01b03199182168117909255600380549684169682168717905560048054948416948216851790556005805495909316941684179091558452602084019290925260408301919091526060820152a16040516170bd908161016f8239f35b5f80fd5b634e487b7160e01b5f52604160045260245ffd5b51906001600160a01b03821682036101425756fe60806040526004361015610011575f80fd5b5f3560e01c806306d7d6cf146102345780630709df451461022f5780630d6c4df31461022a57806317fd7bf6146102255780631a6568811461022057806323452b9c1461021b5780632724fe091461021657806327a4e1ab146102115780633297992e1461020c578063360ca958146102075780634162169f14610202578063419d7a83146101fd578063435c529b146101f857806347b45652146101f357806349bcad0a146101ee57806356397c35146101e9578063652b9b41146101e45780636a240a9c146101df57806379ba5097146101da5780638d654023146101d55780638da5cb5b146101d057806390229af7146101cb5780639f9a6508146101c6578063b079fbff146101c1578063b72d2943146101bc578063b8a71eec146101b7578063c5c82203146101b2578063c93883a5146101ad578063e01fd215146101a8578063e30c3978146101a3578063e73a914c1461019e578063f20ca7ed14610199578063f2fde38b146101945763fa3fd3bc1461018f575f80fd5b611368565b6112be565b61127a565b6111de565b6111b6565b61118f565b611123565b610ef5565b610ecd565b610ea5565b610db5565b610d72565b610c5b565b610c34565b610c17565b610b60565b610aac565b610a1f565b6109f7565b6109bc565b61099f565b61095f565b610921565b6108f9565b61082c565b610807565b6107ce565b61078b565b610761565b6104bc565b6103fe565b610384565b610341565b61024e565b6001600160a01b0381160361024a57565b5f80fd5b3461024a57602036600319011261024a5760043561026b81610239565b6001600160a01b039081165f9081526006602090815260408083205460078352928190205481519385168015158552928401929092529216151591810191909152606090f35b6001600160a01b03165f90815260076020526040902090565b6001600160a01b03165f90815260066020526040902090565b6001600160a01b03165f908152600b6020526040902090565b6001600160a01b03165f90815260096020526040902090565b6001600160a01b03165f90815260086020526040902090565b6001600160a01b03909116815260200190565b3461024a57602036600319011261024a5760043561035e81610239565b60018060a01b03165f526006602052602060018060a01b0360405f205416604051908152f35b3461024a57606036600319011261024a576103dc6004356103a481610239565b602435906103b182610239565b6001600160a01b03165f908152600a602052604090209060018060a01b03165f5260205260405f2090565b6044355f5260205260ff60405f20541660405180916020820190151582520390f35b3461024a57602036600319011261024a577f77035913569424ed432f15a527aa4e0317cbefd28ce0fe9cdfe61acd77345c17602060043561043e81610239565b6104466119e4565b600280546001600160a01b0319166001600160a01b03929092169182179055604051908152a16104926104776113dd565b6c1a1d5897dd999a591957dcd95d609a1b6020820152611a51565b005b604090600319011261024a576004356104ac81610239565b906024356104b981610239565b90565b3461024a576104ca36610494565b335f908152600d602052604090209091906104f0906104eb905b5460ff1690565b611430565b6001600160a01b0381169182158015610746575b6107375761053a61053361052761051a856102b1565b546001600160a01b031690565b6001600160a01b031690565b151561146e565b61055261054c61052761051a846102ca565b156114aa565b6001600160a01b0382165f908152600c60205260409020546105b86105b46104e4836105a7336105928960018060a01b03165f52600a60205260405f2090565b9060018060a01b03165f5260205260405f2090565b905f5260205260405f2090565b1590565b6106c2575b50600360ff6105ce6104e4856102e3565b1610156105d757005b61049292610607826105e8856102fc565b80546001600160a01b0319166001600160a01b03909216919091179055565b61064661062261061642611547565b6001600160401b031690565b61062b85610315565b906001600160401b03166001600160401b0319825416179055565b7f4f6a320f55ac586fc5dbafc5a9d39bf84e088884ac86cb6391a2ced7e237c8316106a961068361067686610315565b546001600160401b031690565b6040516001600160401b0390911681526001600160a01b03909416939081906020820190565b0390a36106b4611557565b6106bc6113f2565b91611ac6565b6106e76106f4916105a7336105928760018060a01b03165f52600a60205260405f2090565b805460ff19166001179055565b610721610700836102e3565b61071361070e825460ff1690565b6114fd565b60ff1660ff19825416179055565b61073161072c611513565b611a51565b5f6105bd565b630f0f611b60e01b5f5260045ffd5b506001600160a01b03811615610504565b5f91031261024a57565b3461024a575f36600319011261024a576107796119e4565b600180546001600160a01b0319169055005b3461024a57602036600319011261024a576004356107a881610239565b60018060a01b03165f526007602052602060018060a01b0360405f205416604051908152f35b3461024a57602036600319011261024a5760206107f56004356107f081610239565b611587565b6040516001600160a01b039091168152f35b3461024a575f36600319011261024a57602060405160038152f35b8015150361024a57565b3461024a57604036600319011261024a5760043561084981610239565b6024359061085682610822565b61085e6119e4565b6001600160a01b03166108728115156115f5565b5f52600d6020526108928160405f209060ff801983541691151516179055565b156108c7576104926108a261141b565b761c9958dbdd995c9e57d85c1c1c9bdd995c97d859191959604a1b6020820152611a51565b6104926108d2611406565b781c9958dbdd995c9e57d85c1c1c9bdd995c97dc995b5bdd9959603a1b6020820152611a51565b3461024a575f36600319011261024a576005546040516001600160a01b039091168152602090f35b3461024a57602036600319011261024a5760043561093e81610239565b60018060a01b03165f52600b602052602060ff60405f205416604051908152f35b3461024a57602036600319011261024a5760043561097c81610239565b60018060a01b03165f52600d602052602060ff60405f2054166040519015158152f35b3461024a575f36600319011261024a57602060405162093a808152f35b3461024a57602036600319011261024a576004356109d981610239565b60018060a01b03165f52600c602052602060405f2054604051908152f35b3461024a575f36600319011261024a576004546040516001600160a01b039091168152602090f35b3461024a57602036600319011261024a57610a77600435610a3f81610239565b6001600160a01b039081165f8181526007602052604090205490911615159081610a7b575b5060405190151581529081906020820190565b0390f35b5f818152600760209081526040808320546001600160a01b0390811684526006909252822054169091149150610a64565b3461024a57610aba36610494565b600554909190610ad2906001600160a01b0316610527565b3303610b51576001600160a01b0381169182158015610b40575b6107375761049292610b0661053361052761051a866102b1565b610b1861054c61052761051a856102ca565b610b33600360ff610b2b6104e4876102e3565b16101561162b565b610607826105e8856102fc565b506001600160a01b03811615610aec565b6369a473cf60e11b5f5260045ffd5b3461024a575f36600319011261024a576001546001600160a01b03163303610bd9575f5433906001600160a01b03908116167f8be0079c531659141344cd1fd0a4f28419497f9722a3daafe3b4186f6b6457e05f80a35f80546001600160a01b03191633179055600180546001600160a01b0319169055005b60405162461bcd60e51b815260206004820152601660248201527527aba71d103737ba103832b73234b7339037bbb732b960511b6044820152606490fd5b3461024a575f36600319011261024a576020600e54604051908152f35b3461024a575f36600319011261024a575f546040516001600160a01b039091168152602090f35b3461024a57602036600319011261024a57600435610c7881610239565b610c8461051a826102b1565b6001600160a01b0382165f908152600f6020526040902054600354909190610cb4906001600160a01b0316610527565b926001600160a01b03841615159384610cfb575b5050604080516001600160a01b039290921680835260208301939093529215159281019290925215156060820152608090f35b610d20929450906020916040518080958194631293efbb60e21b83526004830161032e565b03915afa8015610d6d57610a77915f91610d3e575b5092905f610cc8565b610d60915060203d602011610d66575b610d5881836113b7565b810190611673565b5f610d35565b503d610d4e565b611688565b3461024a57602036600319011261024a57600435610d8f81610239565b60018060a01b03165f526009602052602060018060a01b0360405f205416604051908152f35b3461024a57608036600319011261024a577f2ad69807131f242e4c6b9e21338b8d7d7d5f32ab1dfaa1eddfa881c305c8f5e7600435610df381610239565b60243590610e0082610239565b610e97604435610e0f81610239565b60643590610e1c82610239565b610e246119e4565b600280546001600160a01b039586166001600160a01b03199182168117909255600380549787169782168817905560048054938716938216841790556005805494909616931683179094556040805194855260208501959095529383019390935260608201929092529081906080820190565b0390a161049261072c611693565b3461024a575f36600319011261024a576003546040516001600160a01b039091168152602090f35b3461024a575f36600319011261024a576002546040516001600160a01b039091168152602090f35b3461024a57602036600319011261024a57600435610f1281610239565b600554610f27906001600160a01b0316610527565b3303610b5157610f4c6001600160401b03610f4461067684610315565b1615156116c0565b610f66610f5e61061661067684610315565b4210156116f8565b610f7261051a826102fc565b906001600160a01b038216610f888115156115f5565b610f9a61054c61052761051a866102ca565b610fa661051a836102b1565b6001600160a01b0381166110cf575b50610fc3836105e8846102b1565b610fd0826105e8856102ca565b6001600160a01b038216803b1561024a575f61100094604051809681926324d89a6360e21b83526004830161032e565b038183855af1938415610d6d57610492946110b5575b50611033611023846102fc565b80546001600160a01b0319169055565b61105061103f84610315565b805467ffffffffffffffff19169055565b61106661105c846102e3565b805460ff19169055565b6001600160a01b0383165f908152600c602052604090206110878154611732565b90557f95d14defab6a2b4ee4b7409bbb87adbfd28ae37e235f30d9a96198e6825dbc3b5f80a36106b4611740565b806110c35f6110c9936113b7565b80610757565b5f611016565b6110236110db916102ca565b5f610fb5565b60206040818301928281528451809452019201905f5b8181106111045750505090565b82516001600160a01b03168452602093840193909201916001016110f7565b3461024a57602036600319011261024a576004356001600160401b03811161024a573660238201121561024a578060040135906001600160401b03821161024a573660248360051b8301011161024a57610a779160246111839201611788565b604051918291826110e1565b3461024a57602036600319011261024a5760206107f56004356111b181610239565b611877565b3461024a575f36600319011261024a576001546040516001600160a01b039091168152602090f35b3461024a57602036600319011261024a577f8aad84fcad50e723fa3bcf0fb32c5bea4c71078b77b9aedfa638f146f3a3f7b9602060043561121e81610239565b6112266119e4565b600580546001600160a01b0319166001600160a01b03929092169182179055604051908152a161049260405161125d6040826113b7565b600b81526a1a1d5897d9185bd7dcd95d60aa1b6020820152611a51565b3461024a57602036600319011261024a5760043561129781610239565b60018060a01b03165f52600860205260206001600160401b0360405f205416604051908152f35b3461024a57602036600319011261024a576004356112db81610239565b6112e36119e4565b6001600160a01b0316801561133757600180546001600160a01b031916821790555f80546001600160a01b0316907f38d16b8cac22d99fc7c124b9cd0de2d3fa1faef420bfe791d8c362d765e227009080a3005b60405162461bcd60e51b81526020600482015260096024820152684f574e3a207a65726f60b81b6044820152606490fd5b3461024a57602036600319011261024a5760043561138581610239565b60018060a01b03165f52600f602052602060405f2054604051908152f35b634e487b7160e01b5f52604160045260245ffd5b90601f801991011681019081106001600160401b038211176113d857604052565b6113a3565b604051906113ec6040836113b7565b600d8252565b604051906114016020836113b7565b5f8252565b604051906114156040836113b7565b60198252565b6040519061142a6040836113b7565b60178252565b1561143757565b60405162461bcd60e51b815260206004820152600f60248201526e2b249d3737ba16b0b8383937bb32b960891b6044820152606490fd5b1561147557565b60405162461bcd60e51b815260206004820152600d60248201526c1d5b9adb9bdddb881d985d5b1d609a1b6044820152606490fd5b156114b157565b60405162461bcd60e51b815260206004820152601060248201526f1d185c99d95d081a185cc81d985d5b1d60821b6044820152606490fd5b634e487b7160e01b5f52601160045260245ffd5b60ff1660ff811461150e5760010190565b6114e9565b604051906115226040836113b7565b60168252751c9958dbdd995c9e57d85c1c1c9bdd985b17d8d85cdd60521b6020830152565b9062093a80820180921161150e57565b604051906115666040836113b7565b6012825271199bdc98d957dc9958dbdd995c97da5b9a5d60721b6020830152565b6001600160a01b038116156115f0576115a86115a282611b60565b91611ba2565b6020815191012060405190602082019260ff60f81b84523060601b602184015260358301526055820152605581526115e16075826113b7565b5190206001600160a01b031690565b505f90565b156115fc57565b60405162461bcd60e51b815260206004820152600760248201526656493a7a65726f60c81b6044820152606490fd5b1561163257565b60405162461bcd60e51b815260206004820152601960248201527856493a696e73756666696369656e742d617070726f76616c7360381b6044820152606490fd5b9081602091031261024a57516104b981610822565b6040513d5f823e3d90fd5b604051906116a26040836113b7565b600f82526e1a1d5897db5bd91d5b195cd7dcd95d608a1b6020830152565b156116c757565b60405162461bcd60e51b815260206004820152600960248201526856493a6e6f2d72657160b81b6044820152606490fd5b156116ff57565b60405162461bcd60e51b815260206004820152600b60248201526a56493a74696d656c6f636b60a81b6044820152606490fd5b5f19811461150e5760010190565b6040519061174f6040836113b7565b6013825272199bdc98d957dc9958dbdd995c97d99a5b985b606a1b6020830152565b6001600160401b0381116113d85760051b60200190565b61179182611771565b9261179f60405194856113b7565b828452601f196117ae84611771565b0136602086013783905f5b84811015611811578060051b906117d6828601356107f081610239565b9187518210156117fd576001600160a01b03909216918701602001919091526001016117b9565b634e487b7160e01b5f52603260045260245ffd5b509250925050565b1561182057565b60405162461bcd60e51b815260206004820152600e60248201526d18dc99585d194c8819985a5b195960921b6044820152606490fd5b61185e6113dd565b906c1d985d5b1d17d8dc99585d1959609a1b6020830152565b6001600160a01b038116919082156107375760025461189e906001600160a01b0316610527565b15610737576118af61051a826102ca565b6001600160a01b0381166119df57506118c781611b60565b6118d082611ba2565b6020815191015ff5926001600160a01b03841691611909906118f3841515611819565b611900866105e8836102ca565b6105e8866102b1565b61191c611917600e54611732565b600e55565b6001600160a01b0384165f908152600f6020526040902042905560035461194b906001600160a01b0316610527565b6001600160a01b03811661199b575b507f5d9c31ffa0fecffd7cf379989a3c7af252f0335e0d2a1320b55245912c781f535f80a361199961198a611856565b6119926113f2565b9084611ac6565b565b803b1561024a575f60405180926367ccd1cb60e01b82528183816119c28b6004830161032e565b03925af11561195a57806110c35f6119d9936113b7565b5f61195a565b925050565b5f546001600160a01b031633036119f757565b60405162461bcd60e51b815260206004820152600e60248201526d27aba71d103737ba1037bbb732b960911b6044820152606490fd5b805180835260209291819084018484015e5f828201840152601f01601f1916010190565b6004546001600160a01b031680611a66575050565b803b1561024a57604051633ddd61ab60e21b815230600482015260606024820152915f918391829084908290611aa0906064830190611a2d565b33604483015203925af1611ab15750565b80611abd5f80936113b7565b80031261024a57565b6004549092906001600160a01b031680611ae1575b50505050565b803b1561024a57604051630303c28760e61b81526001600160a01b0390941660048501908152608060248601525f938593849286928492611b3f9291611b2b906084860190611a2d565b918560408201526060818403910152611a2d565b03925af1611b50575b808080611adb565b5f611b5a916113b7565b5f611b48565b60405160609190911b6001600160601b031916602082019081526014825290611b8a6034826113b7565b51902090565b805191908290602001825e015f815290565b6104b9611c6091611c426154219160405192611bc160208201856113b7565b808452611c676020850139600254600354611c50916001600160a01b0390811691611c4291611bf09116610527565b600454611c05906001600160a01b0316610527565b604080513060208201526001600160a01b03958616918101919091529584166060870152908316608086015290911660a0840152829060c0820190565b03601f1981018352826113b7565b6040519485936020850190611b90565b90611b9056fe61010080604052346102af575f9060a0816154218038038091610022828561031a565b8339810103126102af576100358161033d565b6100416020830161033d565b61004d6040840161033d565b90610066608061005f6060870161033d565b950161033d565b60015f55600680546001600160401b0319166201518017905569021e19e0c9bab240000060075560088054600160401b600160801b031916690e100000000000000000179055670de0b6b3a7640000600955690a968163f0a57b400000600b55600c805461ffff1916611388179055926001600160a01b038116151580610308575b806102f6575b156102c75760805260a052600180546001600160a01b0319166001600160a01b0392831690811790915592811660c0521660e052604080519081016001600160401b038111828210176102b357604052600d81526c1d985d5b1d17d8dc99585d1959609a1b6020820190815260e0516001600160a01b0316919082610238575b5050507f50146d0e3c60aa1d17a70635b05494f864e86144a2201275021014fbf08bafe26040519280a26150cf908161035282396080518181816112920152818161197101526126e8015260a05181818161047b01528181611180015281816119cf01528181611b96015281816126670152818161289f01528181612ab901528181612c4d015281816131ac0152614686015260c051818181612a7501528181612c950152614b6f015260e05181818161174f01528181614c0e01528181614ccb0152614f880152f35b823b156102af576084925f9283604051958680958194633ddd61ab60e21b8352306004840152606060248401525180918160648501528484015e8181018301849052336044830152601f01601f191681010301925af161029a575b808061016e565b6102a79192505f9061031a565b5f905f610293565b5f80fd5b634e487b7160e01b5f52604160045260245ffd5b60405162461bcd60e51b815260206004820152600760248201526655563a7a65726f60c81b6044820152606490fd5b506001600160a01b03831615156100ee565b506001600160a01b03821615156100e8565b601f909101601f19168101906001600160401b038211908210176102b357604052565b51906001600160a01b03821682036102af5756fe6080604052600436101561001a575b3615610018575f80fd5b005b5f3560e01c8063020378221461041457806304824e701461040f578063054f7d9c1461040a57806306603f8d146104055780630665f04b14610400578063092cc1fb146103fb5780630b6946da146103f65780630ba234d6146103f15780630c68ba21146103ec5780630fbd22b0146103e7578063118f117f146103e2578063124f8d9c146103dd5780631bed8c6e146103d85780631f180de8146103d3578063269b54b1146103ce5780632b8a1c5a146103c957806331d559f8146103c457806334a014dc146103bf578063365a86fc146103ba57806342e01e73146103b557806347e1da2a146103b05780634ddb926a146103ab5780635132124c146103a6578063518d0959146103a1578063536b801d1461039c57806354387ad71461039757806356397c35146103925780635f8983fd1461038d57806363a8374d1461038857806363f95a3b14610383578063688aa6ce1461037e5780636a150981146103795780636b1994ea146103745780636b6fe5e91461036f5780636d68e53b1461036a578063700c5e7d1461035657806372890ca2146103655780637e932d3214610360578063835316c71461035b5780638b2bc3e7146103565780638da5cb5b146103515780638e48d0821461034c5780638f252d34146103475780639362698c1461034257806393bcd8581461033d5780639a0dd14014610338578063b50ef71b14610333578063b5354ce51461032e578063b61d27f614610329578063b72d294314610324578063b8a71eec1461031f578063ba58db511461031a578063c55e4a0e14610315578063c60cd99c14610310578063cd1492d41461030b578063d25a918914610306578063d6c89c6014610301578063e2158ee7146102fc578063e24ba265146102f7578063e2ccb305146102f2578063e5711e8b146102ed578063e6536fc5146102e8578063f9773f92146102e35763fd4fa9810361000e576132f6565b61324b565b61322e565b61313e565b613055565b613028565b613007565b612fe1565b612e76565b612e54565b612dda565b612c0e565b612ae8565b612aa4565b612a60565b6129e5565b6129b7565b6127e3565b6127c6565b61279d565b6126c9565b6125fb565b6124f5565b6124cd565b612012565b612411565b612348565b6120d9565b611ff5565b611f20565b611e76565b611b2b565b6118ad565b611881565b611815565b61177e565b61173a565b61171a565b611673565b6115a7565b61158a565b611445565b6113b8565b6112c1565b61127d565b611254565b61111a565b610f11565b610ee2565b610d88565b610b85565b610b01565b610adb565b610ab6565b610a76565b610973565b610825565b610808565b610731565b610622565b6105ed565b61051f565b610427565b5f91031261042357565b5f80fd5b34610423575f3660031901126104235761043f614b4a565b610447614b6d565b600c546104599060101c60ff16613313565b6040516370a0823160e01b815260208180610477306004830161060f565b03817f00000000000000000000000000000000000000000000000000000000000000006001600160a01b03165afa8015610509576104bc915f916104da575b50600d55565b610018600d546104ca6133f3565b906104d36133df565b9133614cc8565b6104fc915060203d602011610502575b6104f48183613373565b810190613399565b5f6104b6565b503d6104ea565b6133a8565b6001600160a01b0381160361042357565b346104235760203660031901126104235760043561053c8161050e565b610544614b4a565b61054c614b6d565b610554614d81565b61055c614d9c565b6001600160a01b031680156105b3576105aa904761057b811515613429565b6105945f80808085875af161058e61346c565b5061349b565b61059c6134e1565b6105a46133df565b92614cc8565b61001860015f55565b60405162461bcd60e51b815260206004820152601260248201527115558e881e995c9bc81c9958da5c1a595b9d60721b6044820152606490fd5b34610423575f36600319011261042357602060ff600a54166040519015158152f35b6001600160a01b03909116815260200190565b34610423575f366003190112610423576005546040516001600160a01b039091168152602090f35b90602080835192838152019201905f5b8181106106675750505090565b82516001600160a01b031684526020938401939092019160010161065a565b90602080835192838152019201905f5b8181106106a35750505090565b82516001600160401b0316845260209384019390920191600101610696565b90602080835192838152019201905f5b8181106106df5750505090565b825115158452602093840193909201916001016106d2565b916107209061071261072e959360608652606086019061064a565b908482036020860152610686565b9160408184039101526106c2565b90565b34610423575f3660031901126104235760045461074d81613521565b9061075781613521565b9161076182613521565b905f5b838110156107f25760045f525f51602061505a5f395f51905f52810154600191906107ec906107db906001600160a01b0316806107a18588613584565b526107d66107be6107b183610a2b565b546001600160401b031690565b6107c8868c613584565b906001600160401b03169052565b613ea6565b6107e58387613584565b9015159052565b01610764565b506108048492604051938493846106f7565b0390f35b34610423575f366003190112610423576020600b54604051908152f35b34610423575f3660031901126104235761083d614b6d565b6005546001600160a01b031633819003610964576001600160a01b0316156109555761089261088d61087b60135461088461087f61087b8360ff1690565b1590565b613598565b60501c60ff1690565b6135e4565b6108a56108a0601454613643565b601455565b6108b7600160ff196013541617601355565b6108c760135461ff001916601355565b6109076108e26108d642613656565b6001600160401b031690565b62010000600160501b036013549160101b169062010000600160501b03191617601355565b6013805460ff60501b1916905561092e61091f613688565b6109276133df565b9033614c0c565b337f45169f9a6369d811de455bb5ecdc25c684355abe2deaf2f8d9b81618754ba3b45f80a2005b630fd9d18960e41b5f5260045ffd5b631a4f16b960e21b5f5260045ffd5b34610423575f3660031901126104235761098b614b4a565b610993614b6d565b6010546001600160a01b0381168015610a1c576001600160f01b0319909116601055604080516109f592916109c89082613373565b60128152711c9958dbdd995c9e57d8d85b98d95b1b195960721b60208201526109ef6133df565b91614c0c565b337f8154b6c5e1fc90d44b49808ef93f9739148d0821411890f8cd684385e24b9f1e5f80a2005b638d0fa13360e01b5f5260045ffd5b6001600160a01b03165f90815260166020526040902090565b6001600160a01b03165f90815260026020526040902090565b6001600160a01b03165f90815260126020526040902090565b3461042357602036600319011261042357600435610a938161050e565b60018060a01b03165f526002602052602060ff60405f2054166040519015158152f35b34610423575f36600319011261042357602060ff600a5460081c166040519015158152f35b34610423575f3660031901126104235760206001600160401b0360085416604051908152f35b34610423575f366003190112610423576010546001600160401b03906001600160a01b038116600260e883901c60ff1610610b7c5760ff60025b6040805184151581526001600160a01b03909416602085015260a085811c84169185019190915260a89490941c909416606083015292909216608083015290f35b60ff6001610b3b565b34610423575f36600319011261042357610b9d614b6d565b610bb361087b610bac33610a44565b5460ff1690565b610d7957610bc661087b60135460ff1690565b610d6a57335f908152601760205260409020610bf0610bac6019548093905f5260205260405f2090565b610d5b57335f908152601760205260409020610c2591610c18915b905f5260205260405f2090565b805460ff19166001179055565b610c4c610c3c610c3760185460ff1690565b6136dd565b60ff1660ff196018541617601855565b60135460081c60ff1615610d4657600260ff610c6a60035460ff1690565b1610610d3d5760ff60025b1660ff610c8460185460ff1690565b16818110610d305750610c9c60ff1960135416601355565b610cac60135461ff001916601355565b610cb4613674565b6013805460ff60501b19169055610cd4610ccf601954613643565b601955565b610ce360ff1960185416601855565b610cf7610cee613723565b826104d36133df565b60405160ff909116815233907f82a4e870a30fcdcdb7097dff3667437d1d8574e2766560bb07e1f1fb4a5b15189080602081015b0390a2005b61001891506104ca6136ee565b60ff6001610c75565b600260ff610d5660035460ff1690565b610c6a565b63017a521b60e51b5f5260045ffd5b6324dcf66760e21b5f5260045ffd5b633321153560e21b5f5260045ffd5b34610423575f36600319011261042357610da0614b6d565b610daf61087b610bac33610a44565b610d7957610dc4610dbf33613ea6565b613769565b6010546001600160a01b03811615610a1c57610def9060a81c6001600160401b03165b4211156137af565b610df833610a5d565b610e10610bac6011548093905f5260205260405f2090565b610d5b57610c18610e2491610c0b33610a5d565b610e5e610e3f610e3a60105460ff9060a01c1690565b6137f2565b6010805460ff60a01b191660a09290921b60ff60a01b16919091179055565b601054610e869060a01c60ff16610e73613804565b60ff610e7d6133df565b92169033614cc8565b601054610ea06001600160a01b0382169160a01c60ff1690565b60405160ff9190911681526001600160a01b03919091169033907f93a8f3acc471767423e482b998d4f8d2dd61068cf066749b4d296f36bb64ad0090602090a3005b34610423575f36600319011261042357602060ff600c5460101c166040519015158152f35b8015150361042357565b3461042357604036600319011261042357600435610f2e8161050e565b60243590610f3b82610f07565b610f43614b4a565b610f4b614b6d565b6001600160a01b03811691821561095557601054610f79906001600160a01b03165b6001600160a01b031690565b61110b57610f89610bac83610a44565b81151590151503610f9657005b610fb481610fa384610a44565b9060ff801983541691151516179055565b80156110545761001892610fe0610fd0610c3760035460ff1690565b60ff1660ff196003541617600355565b610ffb6001600160401b034216610ff685610a2b565b613903565b6110048361391e565b60405182151581527fc4459d655e1efe034a75446f1f4db087f75d23bdfabccffafa6384cdb23a154490602090a2156110475761103f61398a565b6109ef6133df565b61104f61395d565b61103f565b61106b610fd061106660035460ff1690565b613833565b61108861107783610a2b565b805467ffffffffffffffff19169055565b5f5b6004548082101561110057846110ba610f6d6110a585613567565b905460039190911b1c6001600160a01b031690565b146110c8575060010161108a565b61001894916110ed6110e76110a56110e26110f395613842565b613567565b91613567565b9061385d565b6110fb613880565b611004565b505061001892611004565b631b11469b60e11b5f5260045ffd5b34610423576040366003190112610423576004356111378161050e565b60243590611143614b4a565b61114b614b6d565b6001600160a01b03811680156109555760405163095ea7b360e01b8152926020848061117b8487600484016139c9565b03815f7f00000000000000000000000000000000000000000000000000000000000000006001600160a01b03165af192831561050957610804945f9461120a575b505f51602061501a5f395f51905f52916111e56111f5926111dc876139e4565b8261059c613a24565b6040519081529081906020820190565b0390a260405190151581529081906020820190565b6111f5919450916111e56112435f51602061501a5f395f51905f529460203d60201161124d575b61123b8183613373565b8101906139b4565b95925050916111bc565b503d611231565b34610423575f3660031901126104235760206001600160401b0360055460a01c16604051908152f35b34610423575f366003190112610423576040517f00000000000000000000000000000000000000000000000000000000000000006001600160a01b03168152602090f35b34610423576020366003190112610423576004356112de8161050e565b60018060a01b03165f52601660205260206001600160401b0360405f205416604051908152f35b9181601f84011215610423578235916001600160401b038311610423576020808501948460051b01011161042357565b805180835260209291819084018484015e5f828201840152601f01601f1916010190565b602081016020825282518091526040820191602060408360051b8301019401925f915b83831061138b57505050505090565b90919293946020806113a9600193603f198682030187528951611335565b9701930193019193929061137c565b34610423576060366003190112610423576004356001600160401b038111610423576113e8903690600401611305565b6024356001600160401b03811161042357611407903690600401611305565b919092604435926001600160401b0384116104235761080494611431611439953690600401611305565b949093613a4f565b60405191829182611359565b34610423575f366003190112610423575f5f9061146a6006546001600160401b031690565b6001600160401b03811615158061156a575b611525575b506008546001600160401b03604082901c168015158061150b575b6114c0575b5050604080516001600160401b03928316815292909116602083015290f35b6114d7916001600160401b0316613c5e565b613c5e565b6001600160401b03811642106114ee575b806114a1565b6115049192506001600160401b03421690613e27565b905f6114e8565b5061151e6001600160401b0383166108d6565b151561149c565b61153e906114d260055460a01c6001600160401b031690565b6001600160401b0381164210156114815761156491506001600160401b03421690613e27565b5f611481565b506115836108d660055460a01c6001600160401b031690565b151561147c565b34610423575f366003190112610423576020600d54604051908152f35b34610423576020366003190112610423576004356115c3614b4a565b805f52600e60205260405f20600181015415611664576115f06001600160401b0360028193015416613c3e565b1642111561162a5780611622611611610018935f52600e60205260405f2090565b60025f918281558260018201550155565b6104ca613e47565b60405162461bcd60e51b815260206004820152601260248201527115558e881d1e081b9bdd08195e1c1a5c995960721b6044820152606490fd5b634c8d442960e01b5f5260045ffd5b34610423575f3660031901126104235761168b614b4a565b611693614b6d565b60135460ff811615610d6a5761ffff60ff60501b011916600160501b176013556116bb613674565b6116f36040516116cc604082613373565b60128152711a5b9a195c9a5d185b98d957d9195b9a595960721b60208201526109276133df565b337fec32f6be1cfe5f271330570749895d0cdcb3324846ee37b8a6ac973b4a27cf575f80a2005b34610423575f36600319011261042357602060ff60035416604051908152f35b34610423575f366003190112610423576040517f00000000000000000000000000000000000000000000000000000000000000006001600160a01b03168152602090f35b346104235760203660031901126104235760043561179a614b4a565b805f52600e60205260405f20600181015415611664576002019081549160ff8360481c166118065760ff60481b19909216600160481b179091556100189033817f12cd094e454538586035071c64eb69c206d65137212e7d5e9d32d738540435705f80a36104ca613e77565b63446d277b60e11b5f5260045ffd5b34610423576020366003190112610423576004355f52600e60205260a060405f2060ff600180841b0382541691600260018201549101549060405193845260208401526001600160401b0381166040840152818160401c161515606084015260481c1615156080820152f35b346104235760203660031901126104235760206118a36004356107d68161050e565b6040519015158152f35b34610423575f366003190112610423576118c5614b6d565b6118cd614d9c565b60135460ff811615610d6a57605081901c60ff16611b1c57611935906119036001600160401b03601083901c165b421115613f01565b600260ff61191360035460ff1690565b1610611b0f5760ff61192d8160025b169260081c60ff1690565b161015613f47565b60055461196d906001600160a01b0316602081611953811515613f90565b60405180948192630709df4560e01b83526004830161060f565b03817f00000000000000000000000000000000000000000000000000000000000000006001600160a01b03165afa918215610509575f92611ade575b506001600160a01b038216916119c0831515613fe6565b6040516370a0823160e01b81527f00000000000000000000000000000000000000000000000000000000000000006001600160a01b031660208280611a08306004830161060f565b0381845afa8015610509577fcc9c89312a2ac19bfbb488a107aa51e50162fc6a2ad5dad80dbba85e2a9a936893611aa7935f92611ab3575b50611a5b82828195611a566111e5961515614041565b614ddd565b611a6a60ff1960135416601355565b611a7a60135461ff001916601355565b611a82613674565b6013805460ff60501b19169055611a9e60ff1960185416601855565b8261059c614087565b0390a361001860015f55565b6111e592508193611ad5611a5b9260203d602011610502576104f48183613373565b93509350611a40565b611b0191925060203d602011611b08575b611af98183613373565b810190613fd1565b905f6119a9565b503d611aef565b60ff61192d816001611922565b63781b949d60e11b5f5260045ffd5b3461042357604036600319011261042357600435611b488161050e565b602435611b53614b4a565b611b5b614b6d565b611b63614d81565b611b6b614d9c565b6001600160a01b03821691821561095557611b878215156140ba565b6040516370a0823160e01b81527f00000000000000000000000000000000000000000000000000000000000000006001600160a01b03169060208180611bd0306004830161060f565b0381855afa90811561050957611bf19185915f91611e57575b5010156140f8565b611bf961461a565b8015159081611e4c575b50611d0a57916111e582611c6583611c80955f51602061503a5f395f51905f5297611c366006546001600160401b031690565b6001600160401b038116151580611cea575b611cbd575b506007548084119081611cb3575b50611c9857614ddd565b611c776001600160401b034216614275565b8261059c6142a2565b0390a2611c8c60015f55565b60405160018152602090f35b611a56611ca3614241565b84611cac6133df565b9185614cc8565b905015155f611c5b565b611cdc6108d6611ce4926114d260055460a01c6001600160401b031690565b421015614200565b5f611c4d565b50611d036108d660055460a01c6001600160401b031690565b1515611c48565b611e48611e22611e30611df587611df08789600f5493611d31611d2c86613643565b600f55565b611d81611d3c6133b3565b6001600160a01b038516815260208101849052426001600160401b031660408201525f60608201525f6080820152611d7c875f52600e60205260405f2090565b61413f565b80857f72c131e4f3fead122420dfa8d1a10e700e5e3badef6ea9b934ce82124515d1ce60405180611db787829190602083019252565b0390a360405182815285907f01f061fd4833af7536ad6a70ec12a9dc6288023456766753aae7ff9197ecfc1090602090a361059c6141bc565b614ed4565b604051732aab1d3832b73234b73396b0b8383937bb30b61d60611b602082015292839160348301906141ee565b03601f198101835282613373565b60405162461bcd60e51b8152918291600483016129d4565b0390fd5b90508310155f611c03565b611e70915060203d602011610502576104f48183613373565b5f611be9565b34610423576020366003190112610423576004355f52600e60205260405f2060018060a01b0381541690610804600260018301549201546001600160401b03811692611ec184613c3e565b604080516001600160a01b0397909716875260208701929092526001600160401b0394851686830152909316606085018190524211608085015260ff9281901c8316151560a085015260481c909116151560c0830152819060e0820190565b3461042357602036600319011261042357600435611f3c614b4a565b611f44614b6d565b68056bc75e2d631000008110611fb85769d3c21bcecceda10000008111611f7a5780611f7261001892600755565b6104ca6142ce565b60405162461bcd60e51b81526020600482015260166024820152750aaac7440e8d0e4cae6d0ded8c840e8dede40d0d2ced60531b6044820152606490fd5b60405162461bcd60e51b815260206004820152601560248201527455563a207468726573686f6c6420746f6f206c6f7760581b6044820152606490fd5b34610423575f366003190112610423576020600f54604051908152f35b34610423575f36600319011261042357602060405162278d008152f35b90602080835192838152019201905f5b81811061204c5750505090565b825184526020938401939092019160010161203f565b979695926120d4946120aa6120b89261209c8c6120c69761208e60c09c9860e0845260e084019061202f565b91602081840391015261064a565b8c810360408e01529061202f565b908a820360608c0152610686565b9088820360808a01526106c2565b9086820360a08801526106c2565b930152565b3461042357604036600319011261042357602435600435811561233f575b60648211612336575b600f54905f805b8381106122cc5750818111156122c5576121218282613850565b935b8085116122bd575b5061213584613521565b61213e85613521565b9461214881613521565b9161215282613521565b61215b83613521565b9061216584613521565b915f965f955f5b8b8110806122b4575b1561229e5761218c815f52600e60205260405f2090565b60018101548e8d82151580612285575b6121b3575b505050506121ae90613643565b61216c565b90848d928f969f10156121dc575b50505050506121d26121ae91613643565b99905f8e8d6121a1565b60026121d29561227b956121ae989f958f6122349161222f6122769861226c986122078c8096613584565b5286546122209085906001600160a01b03165b92613584565b6001600160a01b039091169052565b613584565b52015461224e8b6107c8866001600160401b03851661221a565b612263604082901c60ff166107e5868d613584565b60481c60ff1690565b6107e5838c613584565b613643565b98918a8f8d6121c1565b5060028401546122999060481c60ff161590565b61219c565b8c876108048589888a8f60405197889788612062565b50818810612175565b93505f61212b565b5f93612123565b60016122e0825f52600e60205260405f2090565b015415158061230b575b6122f7575b600101612107565b90612303600191613643565b9190506122ef565b5061233161087b6002612326845f52600e60205260405f2090565b015460481c60ff1690565b6122ea565b60649150612100565b603291506120f7565b346104235760203660031901126104235760043561236581610f07565b61236d614b4a565b7f18a225f450380fd39da2a8986c15805afce4eb7f6efbdfe1d0bb9df17c8e7923602082151560ff19600a541660ff821617600a55604051908152a1156123e0576100186040516123bf604082613373565b600c81526b3b30bab63a2fb33937bd32b760a11b60208201526109276133df565b6100186040516123f1604082613373565b600e81526d3b30bab63a2fbab7333937bd32b760911b602082015261091f565b346104235760203660031901126104235760043561242e8161050e565b612436614b4a565b61243e614b6d565b6001600160a01b03811690811561095557600580546001600160a01b03191683179055604080516124a792916124749082613373565b600f81526e1b995e1d17dbd997dada5b97dcd95d608a1b60208201526040519161249f602084613373565b5f8352614c0c565b7f5e5418a3c3d9e12cae95b949efcf26cfdffb4dbc73cd1d2532a97f656e634bf55f80a2005b34610423575f366003190112610423576001546040516001600160a01b039091168152602090f35b34610423576020366003190112610423576004356001600160401b03811680820361042357612522614b4a565b61252a614b6d565b62093a8081116125bf577f8cda612ae0c82a8cb2d30ebddc4e01a65f44d092f2d1537454f126f009974f166125ac61001893610e1084108015906125b7575b612572906142f9565b612592816001600160401b03166001600160401b03196006541617600655565b6040516001600160401b0390911681529081906020820190565b0390a16104ca61433d565b508315612569565b60405162461bcd60e51b815260206004820152601460248201527355563a636f6f6c646f776e2d746f6f2d6c6f6e6760601b6044820152606490fd5b346104235760203660031901126104235760043561261881610f07565b612620614b4a565b612628614b6d565b600c805462ff0000191682151560101b62ff000016179055156126b5576040516370a0823160e01b815260208180612663306004830161060f565b03817f00000000000000000000000000000000000000000000000000000000000000006001600160a01b03165afa8015610509576126a7915f916104da5750600d55565b610018600d546104ca61439e565b6126be5f600d55565b61001861091f614367565b34610423576020366003190112610423576004356126e68161050e565b7f00000000000000000000000000000000000000000000000000000000000000006001600160a01b0316330361276b57600180546001600160a01b0319166001600160a01b039290921691821790556127456127406143d4565b614f86565b7f50146d0e3c60aa1d17a70635b05494f864e86144a2201275021014fbf08bafe25f80a2005b60405162461bcd60e51b815260206004820152600a6024820152692aab1d37b7363ca43ab160b11b6044820152606490fd5b34610423575f3660031901126104235760206001600160401b0360085460401c16604051908152f35b34610423575f366003190112610423576020600954604051908152f35b34610423576020366003190112610423576004356127ff614b4a565b612807614b6d565b61280f614d81565b612817614d9c565b612829815f52600e60205260405f2090565b9060018201908154156116645760028301805490604882901c60ff166118065761287c6128746108d661286f856108d661286a61288f9860ff9060401c1690565b614403565b613c3e565b421115614445565b805460ff60481b1916600160481b179055565b6040516370a0823160e01b8152927f00000000000000000000000000000000000000000000000000000000000000006001600160a01b031690602085806128d9306004830161060f565b0381855afa948515610509576105aa9561293793612918925f92612996575b506129078754809310156140f8565b83546001600160a01b031690614ddd565b61292a6001600160401b034216614275565b546001600160a01b031690565b915460405181815290916001600160a01b038416918291907fda19024f6708ce28e75d9c0ec389fb05a8e5cc9dfe520f61239c10d51a11e59c90602090a36040518281525f51602061503a5f395f51905f5290602090a261059c61448a565b6129b091925060203d602011610502576104f48183613373565b905f6128f8565b34610423575f366003190112610423576020600754604051908152f35b90602061072e928181520190611335565b3461042357606036600319011261042357600435612a028161050e565b60243590604435906001600160401b0382116104235736602383011215610423578160040135906001600160401b03821161042357366024838501011161042357610804936024612a549401916144bb565b604051918291826129d4565b34610423575f366003190112610423576040517f00000000000000000000000000000000000000000000000000000000000000006001600160a01b03168152602090f35b34610423575f366003190112610423576040517f00000000000000000000000000000000000000000000000000000000000000006001600160a01b03168152602090f35b34610423575f36600319011261042357612b00614b6d565b612b0f61087b610bac33610a44565b610d795760135460ff811615610d6a57605081901c60ff16611b1c57335f90815260156020526040902090612b52610bac6014548094905f5260205260405f2090565b610d5b57612b8a91612b776118fb6108d6610c18946001600160401b039060101c1690565b335f908152601560205260409020610c0b565b612bb8612ba0610c3760135460ff9060081c1690565b60135461ff00191660089190911b61ff001617601355565b601354612bcd9060081c60ff16610e736145ce565b60135460081c60ff1660405160ff909116815233907f0ea7dfe497d90adcfba43ccd872c922d16653039b5d89b207ba8554c2cff14cd908060208101610d2b565b34610423575f366003190112610423576001546001600160a01b03166040516370a0823160e01b81529060208280612c49306004830161060f565b03817f00000000000000000000000000000000000000000000000000000000000000006001600160a01b03165afa918215610509575f92612db9575b5047612c93600a5460ff1690565b7f00000000000000000000000000000000000000000000000000000000000000006001600160a01b0316919082151580612d5e575b600354610804945060ff166005546001600160a01b0316601054909290612cf7906001600160a01b0316610f6d565b151593612d0660135460ff1690565b604080516001600160a01b039a8b168152602081019b909b528a0196909652151560608901521515608088015260ff1660a087015290931660c085015291151560e08401529015156101008301528190610120820190565b5060206040518094631293efbb60e21b82528180612d7f306004830161060f565b03915afa801561050957610804935f91612d9a575b50612cc8565b612db3915060203d60201161124d5761123b8183613373565b5f612d94565b612dd391925060203d602011610502576104f48183613373565b905f612c85565b34610423575f36600319011261042357601354600260ff6003541610155f14612e4c576002905b6040805160ff83811615158252600884901c811660208301526001600160401b03601085901c169282019290925260509290921c81161515606083015291909116608082015260a090f35b600190612e01565b34610423575f366003190112610423576020612e6e61461a565b604051908152f35b3461042357606036600319011261042357600435612e9381610f07565b602435906044359161ffff83169182840361042357612eb0614b4a565b612eb8614b6d565b8015612f60575f51602061507a5f395f51905f52612f3b6100189585151580612f54575b612ee590614705565b612efb8161ffff1661ffff19600c541617600c55565b612f1784600a5461ff00191690151560081b61ff001617600a55565b6040805185151581526020810187905261ffff909216908201529081906060820190565b0390a115612f4d57505b6104ca61475d565b9050612f45565b50612710861115612edc565b6007548210612f8c575f51602061507a5f395f51905f52612f3b61001895612f8785600b55565b612efb565b60405162461bcd60e51b815260206004820152602760248201527f55563a206d757374206265203e3d206c61726765207472616e736665722074686044820152661c995cda1bdb1960ca1b6064820152608490fd5b34610423575f3660031901126104235760206001600160401b0360065416604051908152f35b34610423575f36600319011261042357602061ffff600c5416604051908152f35b34610423576020366003190112610423576100186004356130488161050e565b613050614b6d565b614829565b34610423575f3660031901126104235761306d614b6d565b6010546001600160a01b03811690818015610a1c576130ce826130a3610de76108d66130f0966001600160401b039060a81c1690565b600260e882901c60ff16106131315760ff6130c68160025b169260a01c60ff1690565b161015614a2a565b600180546001600160a01b0319166001600160a01b0392909216919091179055565b601080546001600160f01b031916905561310b612740614a72565b7f9504e318c48c2d15540e6faaea014f2855c06fc4df211f5e26a8fb99a6be7fdf5f80a2005b60ff6130c68160016130bb565b346104235760603660031901126104235760043561315b8161050e565b6024356131678161050e565b60443591613173614b4a565b61317b614b6d565b613183614d81565b6001600160a01b0316918215158061321c575b156131e457610018926131dc9082908490611a567f00000000000000000000000000000000000000000000000000000000000000006001600160a01b0316821415614aa2565b61059c614aee565b60405162461bcd60e51b815260206004820152601060248201526f55563a207a65726f206164647265737360801b6044820152606490fd5b506001600160a01b0382161515613196565b34610423575f36600319011261042357602060405162093a808152f35b3461042357602036600319011261042357600435613267614b4a565b805f52600e60205260405f20600181015415611664576002019081546132918160ff9060481c1690565b61180657610018926132b56128746108d661286f6132c8956001600160401b031690565b805460ff60401b1916600160401b179055565b33817f924813d717e221b5f46dcd8a56da1679e4612584ab3237d55e5faabf6f6a30795f80a36104ca614b19565b34610423575f366003190112610423576020604051620151808152f35b1561331a57565b60405162461bcd60e51b815260206004820152601d60248201527f55563a20736e617073686f74206d6f6465206e6f7420656e61626c65640000006044820152606490fd5b634e487b7160e01b5f52604160045260245ffd5b90601f801991011681019081106001600160401b0382111761339457604052565b61335f565b90816020910312610423575190565b6040513d5f823e3d90fd5b604051906133c260a083613373565b565b6001600160401b03811161339457601f01601f191660200190565b604051906133ee602083613373565b5f8252565b60405190613402604083613373565b601882527718985b185b98d957dcdb985c1cda1bdd17dd5c19185d195960421b6020830152565b1561343057565b60405162461bcd60e51b815260206004820152601460248201527355563a206e6f2045544820746f2072657363756560601b6044820152606490fd5b3d15613496573d9061347d826133c4565b9161348b6040519384613373565b82523d5f602084013e565b606090565b156134a257565b60405162461bcd60e51b815260206004820152601760248201527615558e88115512081d1c985b9cd9995c8819985a5b1959604a1b6044820152606490fd5b604051906134f0604083613373565b600b82526a195d1a17dc995cd8dd595960aa1b6020830152565b6001600160401b0381116133945760051b60200190565b9061352b8261350a565b6135386040519182613373565b8281528092613549601f199161350a565b0190602036910137565b634e487b7160e01b5f52603260045260245ffd5b60045481101561357f5760045f5260205f2001905f90565b613553565b805182101561357f5760209160051b010190565b1561359f57565b60405162461bcd60e51b815260206004820152601e60248201527f55563a20696e6865726974616e636520616c72656164792061637469766500006044820152606490fd5b156135eb57565b60405162461bcd60e51b815260206004820152601c60248201527b55563a206f776e65722064656e69656420696e6865726974616e636560201b6044820152606490fd5b634e487b7160e01b5f52601160045260245ffd5b5f1981146136515760010190565b61362f565b9062278d00820180921161365157565b603001908160301161365157565b62010000600160501b031960135416601355565b60405190613697604083613373565b60158252741a5b9a195c9a5d185b98d957dc995c5d595cdd1959605a1b6020830152565b601080546001600160a01b0319166001600160a01b0392909216919091179055565b60ff1660ff81146136515760010190565b604051906136fd604083613373565b6017825276696e6865726974616e63655f63616e63656c5f766f746560481b6020830152565b60405190613732606083613373565b60228252616e7360f01b6040837f696e6865726974616e63655f63616e63656c6c65645f62795f6775617264696160208201520152565b1561377057565b60405162461bcd60e51b815260206004820152601760248201527655563a20677561726469616e206e6f74206d617475726560481b6044820152606490fd5b156137b657565b60405162461bcd60e51b815260206004820152601460248201527315558e881c9958dbdd995c9e48195e1c1a5c995960621b6044820152606490fd5b60ff60019116019060ff821161365157565b60405190613813604083613373565b60118252701c9958dbdd995c9e57d85c1c1c9bdd985b607a1b6020830152565b60ff168015613651575f190190565b5f1981019190821161365157565b9190820391821161365157565b80546001600160a01b0360039390931b83811b199091169290931690921b179055565b60045480156138d3575f1981019060045482101561357f5760045f8190527f8a35acfbc15ff81a39ae7d344fd709f28e8600b4aa8c65c6b64bfe7fe36bd19a90910180546001600160a01b031916905555565b634e487b7160e01b5f52603160045260245ffd5b6001600160401b03166001600160401b03196008541617600855565b906001600160401b03166001600160401b0319825416179055565b60045490600160401b821015613394576001820160045560045482101561357f5760045f9081526133c2925f51602061505a5f395f51905f520161385d565b6040519061396c604083613373565b600f82526e677561726469616e5f72656d6f766560881b6020830152565b60405190613999604083613373565b600c82526b19dd585c991a585b97d8591960a21b6020830152565b90816020910312610423575161072e81610f07565b6001600160a01b039091168152602081019190915260400190565b156139eb57565b60405162461bcd60e51b815260206004820152601160248201527015558e985c1c1c9bdd994b59985a5b1959607a1b6044820152606490fd5b60405190613a33604083613373565b600d82526c7661756c745f617070726f766560981b6020830152565b939290613a5a614b4a565b613a62614b6d565b613a6a614d9c565b81811480613bf4575b613a7c90613bfd565b6008546001600160401b03604082901c1680151580613bda575b613bb1575b5050613aa681613cc7565b955f5b828110613ad25750505050505050613ac96001600160401b0342166138e7565b61072e60015f55565b613ae8610f6d613ae383868b613d10565b613d20565b1561095557613b0930613b02610f6d613ae385888d613d10565b1415613d2a565b613b22613b17828688613d10565b356009541015613d65565b5f80613b32613ae384878c613d10565b613b3d84888a613d10565b35613b4985878c613da8565b9190613b5a60405180948193613de9565b03925af190613b6761346c565b91156133a857600191613b7a828b613584565b52613b85818a613584565b50613bab613b97613ae383878c613d10565b613ba283888a613d10565b3561059c613df6565b01613aa9565b6108d6613bcb916114d2613bd3946001600160401b031690565b421015613c7e565b5f80613a9b565b50613bed6001600160401b0383166108d6565b1515613a96565b50818614613a73565b15613c0457565b60405162461bcd60e51b81526020600482015260126024820152710aaac74d8cadccee8d05adad2e6dac2e8c6d60731b6044820152606490fd5b6001600160401b0362015180911601906001600160401b03821161365157565b906001600160401b03809116911601906001600160401b03821161365157565b15613c8557565b60405162461bcd60e51b815260206004820152601a60248201527955563a657865637574652d636f6f6c646f776e2d61637469766560301b6044820152606490fd5b90613cd18261350a565b613cde6040519182613373565b8281528092613cef601f199161350a565b01905f5b828110613cff57505050565b806060602080938501015201613cf3565b919081101561357f5760051b0190565b3561072e8161050e565b15613d3157565b60405162461bcd60e51b815260206004820152600c60248201526b15558e9cd95b198b58d85b1b60a21b6044820152606490fd5b15613d6c57565b60405162461bcd60e51b81526020600482015260146024820152730aaac74ecc2d8eaca5acaf0c6cacac8e65adac2f60631b6044820152606490fd5b919081101561357f5760051b81013590601e19813603018212156104235701908135916001600160401b038311610423576020018236038113610423579190565b908092918237015f815290565b60405190613e05604083613373565b60138252720ecc2ead8e8becaf0cac6eae8cabec4c2e8c6d606b1b6020830152565b906001600160401b03809116911603906001600160401b03821161365157565b60405190613e56604083613373565b6012825271070656e64696e675f74785f636c65616e75760741b6020830152565b60405190613e86604083613373565b60118252701c195b991a5b99d7dd1e17d9195b9a5959607a1b6020830152565b6001600160a01b03165f8181526002602052604090205460ff1615613efc575f52601660205262093a806001600160401b0360405f205416016001600160401b038111613651576001600160401b031642101590565b505f90565b15613f0857565b60405162461bcd60e51b815260206004820152601760248201527615558e881a5b9a195c9a5d185b98d948195e1c1a5c9959604a1b6044820152606490fd5b15613f4e57565b60405162461bcd60e51b815260206004820152601a60248201527955563a20696e73756666696369656e7420617070726f76616c7360301b6044820152606490fd5b15613f9757565b60405162461bcd60e51b81526020600482015260126024820152712aab1d103737903732bc3a1037b31035b4b760711b6044820152606490fd5b90816020910312610423575161072e8161050e565b15613fed57565b60405162461bcd60e51b815260206004820152602660248201527f55563a20696e68657269746f72206d7573742068617665206578697374696e67604482015265081d985d5b1d60d21b6064820152608490fd5b1561404857565b60405162461bcd60e51b815260206004820152601760248201527615558e881b9bc8199d5b991cc81d1bc81a5b9a195c9a5d604a1b6044820152606490fd5b60405190614096604083613373565b60158252741a5b9a195c9a5d185b98d957d99a5b985b1a5e9959605a1b6020830152565b156140c157565b60405162461bcd60e51b815260206004820152600f60248201526e15558e881e995c9bc8185b5bdd5b9d608a1b6044820152606490fd5b156140ff57565b60405162461bcd60e51b815260206004820152601860248201527755563a20696e73756666696369656e742062616c616e636560401b6044820152606490fd5b815181546001600160a01b0319166001600160a01b039190911617815560208201516001820155604082015160029190910191608091614188906001600160401b031684613903565b60608101518354929091015161ffff60401b1990921690151560401b60ff60401b161790151560481b60ff60481b16179055565b604051906141cb604083613373565b601482527318589b9bdc9b585b17dd1e17d9195d1958dd195960621b6020830152565b805191908290602001825e015f815290565b1561420757565b60405162461bcd60e51b815260206004820152601260248201527155563a636f6f6c646f776e2d61637469766560701b6044820152606490fd5b60405190614250604083613373565b60168252751b185c99d957dd1c985b9cd9995c97d85d1d195b5c1d60521b6020830152565b6005805467ffffffffffffffff60a01b191660a09290921b67ffffffffffffffff60a01b16919091179055565b604051906142b1604083613373565b600e82526d3b30bab63a2fba3930b739b332b960911b6020830152565b604051906142dd604083613373565b600d82526c1d1a1c995cda1bdb1917dcd95d609a1b6020830152565b1561430057565b60405162461bcd60e51b815260206004820152601560248201527415558e98dbdbdb191bdddb8b5d1bdbcb5cda1bdc9d605a1b6044820152606490fd5b6040519061434c604083613373565b600c82526b18dbdbdb191bdddb97dcd95d60a21b6020830152565b60405190614376604083613373565b601982527818985b185b98d957dcdb985c1cda1bdd17d91a5cd8589b1959603a1b6020830152565b604051906143ad604083613373565b601882527718985b185b98d957dcdb985c1cda1bdd17d95b98589b195960421b6020830152565b604051906143e3604083613373565b60118252703b30bab63a2fb337b931b2afb7bbb732b960791b6020830152565b1561440a57565b60405162461bcd60e51b815260206004820152601360248201527215558e881d1e081b9bdd08185c1c1c9bdd9959606a1b6044820152606490fd5b1561444c57565b60405162461bcd60e51b815260206004820152601660248201527515558e881c195b991a5b99c81d1e08195e1c1a5c995960521b6044820152606490fd5b60405190614499604083613373565b60138252721c195b991a5b99d7dd1e17d95e1958dd5d1959606a1b6020830152565b929190916144c7614b4a565b6144cf614b6d565b6144d7614d9c565b6001600160a01b038416908115610955575f9261452684936144fd600954881115613d65565b6008546001600160401b03604082901c1680151580614589575b614568575b5050301415613d2a565b61453560405180938193613de9565b039084865af19161454461346c565b92156133a857613ac9916145606001600160401b0342166138e7565b61059c6145a3565b6108d6613bcb916114d2614582946001600160401b031690565b5f8061451c565b5061459c6001600160401b0383166108d6565b1515614517565b604051906145b2604083613373565b600d82526c7661756c745f6578656375746560981b6020830152565b604051906145dd604083613373565b60148252731a5b9a195c9a5d185b98d957d85c1c1c9bdd995960621b6020830152565b61ffff1690565b8181029291811591840414171561365157565b600a5460081c60ff16156146ff57600c54601081901c60ff16806146f4575b156146645761465c61072e91614656614600600d549261ffff1690565b90614607565b612710900490565b6040516370a0823160e01b815260208180614682306004830161060f565b03817f00000000000000000000000000000000000000000000000000000000000000006001600160a01b03165afa9182156105095761465661460061072e9461465c945f916146d5575b509261ffff1690565b6146ee915060203d602011610502576104f48183613373565b5f6146cc565b50600d541515614639565b600b5490565b1561470c57565b60405162461bcd60e51b8152602060048201526024808201527f55563a20696e76616c69642070657263656e746167652028302d3130303030206044820152636270732960e01b6064820152608490fd5b6040519061476c604083613373565b601982527818589b9bdc9b585b17dd1e17dd1a1c995cda1bdb1917dcd95d603a1b6020830152565b604051906147a3604083613373565b60168252753932b1b7bb32b93cafb932b8bab2b9ba32b22fb5b4b760511b6020830152565b604051906147d7604083613373565b60138252720dcb59185e481dd85a5d081c995c5d5a5c9959606a1b6020830152565b60405190614808604083613373565b60128252711c9958dbdd995c9e57dc995c5d595cdd195960721b6020830152565b60015461483e906001600160a01b0316610f6d565b33148015614a18575b80156149fb575b15610d79576001600160a01b03811690811561095557600554614879906001600160a01b0316610f6d565b3314806149e5575b614991576149359061489c614897601154613643565b601155565b6148a5816136bb565b6010805460ff60a01b191690556148ee6148c16108d642613656565b6010805467ffffffffffffffff60a81b191660a89290921b67ffffffffffffffff60a81b16919091179055565b61491c6148fd60035460ff1690565b6010805460ff60e81b191660e89290921b60ff60e81b16919091179055565b614928610bac33610a44565b61495b575b61103f6147f9565b7f9cc0dc5a29a0ebc421ec879559ba990d29c1fb967a227ed69c9f4e33faa04bff5f80a2565b614979610c1861496a33610a5d565b6011545f5260205260405f2090565b6010805460ff60a01b1916600160a01b17905561492d565b614935906149a3614897601154613643565b6149ac816136bb565b6010805460ff60a01b191690556149c86148c16108d642613656565b6010805460ff60e81b191690556149dd614794565b6109ef6147c8565b5060ff6149f460035460ff1690565b1615614881565b50600554614a11906001600160a01b0316610f6d565b331461484e565b50614a25610bac33610a44565b614847565b15614a3157565b60405162461bcd60e51b815260206004820152601960248201527855563a696e73756666696369656e742d617070726f76616c7360381b6044820152606490fd5b60405190614a81604083613373565b60128252711c9958dbdd995c9e57d99a5b985b1a5e995960721b6020830152565b15614aa957565b60405162461bcd60e51b815260206004820152601f60248201527f55563a20757365207472616e73666572564649444520666f72205646494445006044820152606490fd5b60405190614afd604083613373565b600d82526c1d1bdad95b97dc995cd8dd5959609a1b6020830152565b60405190614b28604083613373565b60138252721c195b991a5b99d7dd1e17d85c1c1c9bdd9959606a1b6020830152565b6001546001600160a01b03163303614b5e57565b63c0b06f0b60e01b5f5260045ffd5b7f00000000000000000000000000000000000000000000000000000000000000006001600160a01b03168015159081614bb7575b50614ba857565b63105aa7fb60e31b5f5260045ffd5b604051631293efbb60e21b81523060048201529150602090829060249082905afa908115610509575f91614bed575b505f614ba1565b614c06915060203d60201161124d5761123b8183613373565b5f614be6565b7f00000000000000000000000000000000000000000000000000000000000000006001600160a01b031680614c42575b50505050565b803b15610423575f9283614c8593614c9d60405197889687958694630303c28760e61b865260018060a01b03166004860152608060248601526084850190611335565b90846044850152600319848303016064850152611335565b03925af1614cae575b808080614c3c565b80614cbc5f614cc293613373565b80610419565b5f614ca6565b907f00000000000000000000000000000000000000000000000000000000000000006001600160a01b03169081614d01575b5050505050565b813b15610423575f614d4493614d5b829660405198899788968795630303c28760e61b875260018060a01b03166004870152608060248701526084860190611335565b916044850152600319848303016064850152611335565b03925af1614d6d575b80808080614cfa565b80614cbc5f614d7b93613373565b5f614d64565b60ff600a5416614d8d57565b6357fa752160e01b5f5260045ffd5b60015f5403614dab5760025f55565b60405162461bcd60e51b815260206004820152600a6024820152697265656e7472616e637960b01b6044820152606490fd5b5f929183611e22614e078295604051928391602083019663a9059cbb60e01b8852602484016139c9565b51926001600160a01b03165af1614e1c61346c565b81614e6c575b5015614e2a57565b60405162461bcd60e51b815260206004820152601a60248201527914d85999515490cc8c0e881d1c985b9cd9995c8819985a5b195960321b6044820152606490fd5b8051801592508215614e81575b50505f614e22565b614e9492506020809183010191016139b4565b5f80614e79565b90614ea5826133c4565b614eb26040519182613373565b8281528092613549601f19916133c4565b90815181101561357f570160200190565b908115614f65575f82805b614f4a575082614eee82614e9b565b91905b614efa57509150565b614f06614f4391613842565b93614f2f614f1f614f19600a8406613666565b60ff1690565b60f81b6001600160f81b03191690565b5f1a614f3b8685614ec3565b53600a900490565b9283614ef1565b90614f57614f5f91613643565b91600a900490565b80614edf565b9050604051614f75604082613373565b60018152600360fc1b602082015290565b7f00000000000000000000000000000000000000000000000000000000000000006001600160a01b031680614fb9575050565b803b1561042357604051633ddd61ab60e21b815230600482015260606024820152915f918391829084908290614ff3906064830190611335565b33604483015203925af16150045750565b806150105f8093613373565b8003126104235756fedbb7105d7dc41668df230e5be9d018b32b76fa24d02376890ee40fef045332491f4e9075aadab47c6d1822e19226819c4482f4326012945c69bb143c6861982a8a35acfbc15ff81a39ae7d344fd709f28e8600b4aa8c65c6b64bfe7fe36bd19b2e02e19641dbae8d0ee7cf4656d3cc039f7adb684e447de0492c12fe349bc9d5a2646970667358221220e8637993f2495829dce870f94520199c2a2ccf5bef6c99f14709032fbe31c31964736f6c634300081e0033a264697066735822122012b8737d4144da77a6395e3e4b3cee77c7ffabd223c02ffb7743b6a1df6c4a7a64736f6c634300081e0033","linkReferences":{}},"methodIdentifiers":{"RECOVERY_APPROVALS_REQUIRED()":"3297992e","RECOVERY_DELAY()":"47b45652","acceptOwnership()":"79ba5097","approveForceRecovery(address,address)":"1a656881","cancelOwnershipTransfer()":"23452b9c","checkVaultStatus(address)":"06d7d6cf","dao()":"4162169f","ensureVault(address)":"e01fd215","finalizeForceRecovery(address)":"c5c82203","getVaultInfo(address)":"90229af7","initiateForceRecovery(address,address)":"6a240a9c","isRecoveryApprover(address)":"435c529b","isVault(address)":"652b9b41","ledger()":"56397c35","owner()":"8da5cb5b","ownerOfVault(address)":"2724fe09","pendingOwner()":"e30c3978","predictVault(address)":"27a4e1ab","predictVaultsBatch(address[])":"c93883a5","recoveryApprovalCount(address)":"419d7a83","recoveryApprovals(address,address,uint256)":"0d6c4df3","recoveryNonce(address)":"49bcad0a","recoveryProposedOwner(address)":"9f9a6508","recoveryUnlockTime(address)":"f20ca7ed","securityHub()":"b72d2943","setDAO(address)":"e73a914c","setModules(address,address,address,address)":"b079fbff","setRecoveryApprover(address,bool)":"360ca958","setVFIDE(address)":"17fd7bf6","totalVaults()":"8d654023","transferOwnership(address)":"f2fde38b","vaultCreatedAt(address)":"fa3fd3bc","vaultOf(address)":"0709df45","vfideToken()":"b8a71eec"},"id":40}