{"abi":[{"type":"constructor","inputs":[{"name":"_vfideToken","type":"address","internalType":"address"},{"name":"_securityHub","type":"address","internalType":"address"},{"name":"_ledger","type":"address","internalType":"address"},{"name":"_dao","type":"address","internalType":"address"}],"stateMutability":"nonpayable"},{"type":"function","name":"RECOVERY_APPROVALS_REQUIRED","inputs":[],"outputs":[{"name":"","type":"uint8","internalType":"uint8"}],"stateMutability":"view"},{"type":"function","name":"RECOVERY_DELAY","inputs":[],"outputs":[{"name":"","type":"uint64","internalType":"uint64"}],"stateMutability":"view"},{"type":"function","name":"acceptOwnership","inputs":[],"outputs":[],"stateMutability":"nonpayable"},{"type":"function","name":"approveForceRecovery","inputs":[{"name":"vault","type":"address","internalType":"address"},{"name":"newOwner","type":"address","internalType":"address"}],"outputs":[],"stateMutability":"nonpayable"},{"type":"function","name":"cancelOwnershipTransfer","inputs":[],"outputs":[],"stateMutability":"nonpayable"},{"type":"function","name":"checkVaultStatus","inputs":[{"name":"addr","type":"address","internalType":"address"}],"outputs":[{"name":"hasVault","type":"bool","internalType":"bool"},{"name":"vaultAddress","type":"address","internalType":"address"},{"name":"isVaultContract","type":"bool","internalType":"bool"}],"stateMutability":"view"},{"type":"function","name":"dao","inputs":[],"outputs":[{"name":"","type":"address","internalType":"address"}],"stateMutability":"view"},{"type":"function","name":"ensureVault","inputs":[{"name":"owner_","type":"address","internalType":"address"}],"outputs":[{"name":"vault","type":"address","internalType":"address"}],"stateMutability":"nonpayable"},{"type":"function","name":"finalizeForceRecovery","inputs":[{"name":"vault","type":"address","internalType":"address"}],"outputs":[],"stateMutability":"nonpayable"},{"type":"function","name":"getVaultInfo","inputs":[{"name":"vault","type":"address","internalType":"address"}],"outputs":[{"name":"owner_","type":"address","internalType":"address"},{"name":"createdAt","type":"uint256","internalType":"uint256"},{"name":"isLocked","type":"bool","internalType":"bool"},{"name":"exists","type":"bool","internalType":"bool"}],"stateMutability":"view"},{"type":"function","name":"initiateForceRecovery","inputs":[{"name":"vault","type":"address","internalType":"address"},{"name":"newOwner","type":"address","internalType":"address"}],"outputs":[],"stateMutability":"nonpayable"},{"type":"function","name":"isRecoveryApprover","inputs":[{"name":"","type":"address","internalType":"address"}],"outputs":[{"name":"","type":"bool","internalType":"bool"}],"stateMutability":"view"},{"type":"function","name":"isVault","inputs":[{"name":"a","type":"address","internalType":"address"}],"outputs":[{"name":"","type":"bool","internalType":"bool"}],"stateMutability":"view"},{"type":"function","name":"ledger","inputs":[],"outputs":[{"name":"","type":"address","internalType":"contract IProofLedger"}],"stateMutability":"view"},{"type":"function","name":"owner","inputs":[],"outputs":[{"name":"","type":"address","internalType":"address"}],"stateMutability":"view"},{"type":"function","name":"ownerOfVault","inputs":[{"name":"","type":"address","internalType":"address"}],"outputs":[{"name":"","type":"address","internalType":"address"}],"stateMutability":"view"},{"type":"function","name":"pendingOwner","inputs":[],"outputs":[{"name":"","type":"address","internalType":"address"}],"stateMutability":"view"},{"type":"function","name":"predictVault","inputs":[{"name":"owner_","type":"address","internalType":"address"}],"outputs":[{"name":"predicted","type":"address","internalType":"address"}],"stateMutability":"view"},{"type":"function","name":"predictVaultsBatch","inputs":[{"name":"owners","type":"address[]","internalType":"address[]"}],"outputs":[{"name":"vaults","type":"address[]","internalType":"address[]"}],"stateMutability":"view"},{"type":"function","name":"recoveryApprovalCount","inputs":[{"name":"","type":"address","internalType":"address"}],"outputs":[{"name":"","type":"uint8","internalType":"uint8"}],"stateMutability":"view"},{"type":"function","name":"recoveryApprovals","inputs":[{"name":"","type":"address","internalType":"address"},{"name":"","type":"address","internalType":"address"}],"outputs":[{"name":"","type":"bool","internalType":"bool"}],"stateMutability":"view"},{"type":"function","name":"recoveryProposedOwner","inputs":[{"name":"","type":"address","internalType":"address"}],"outputs":[{"name":"","type":"address","internalType":"address"}],"stateMutability":"view"},{"type":"function","name":"recoveryUnlockTime","inputs":[{"name":"","type":"address","internalType":"address"}],"outputs":[{"name":"","type":"uint64","internalType":"uint64"}],"stateMutability":"view"},{"type":"function","name":"securityHub","inputs":[],"outputs":[{"name":"","type":"address","internalType":"contract ISecurityHub"}],"stateMutability":"view"},{"type":"function","name":"setDAO","inputs":[{"name":"_dao","type":"address","internalType":"address"}],"outputs":[],"stateMutability":"nonpayable"},{"type":"function","name":"setModules","inputs":[{"name":"_vfideToken","type":"address","internalType":"address"},{"name":"_securityHub","type":"address","internalType":"address"},{"name":"_ledger","type":"address","internalType":"address"},{"name":"_dao","type":"address","internalType":"address"}],"outputs":[],"stateMutability":"nonpayable"},{"type":"function","name":"setRecoveryApprover","inputs":[{"name":"approver","type":"address","internalType":"address"},{"name":"status","type":"bool","internalType":"bool"}],"outputs":[],"stateMutability":"nonpayable"},{"type":"function","name":"setVFIDE","inputs":[{"name":"_vfide","type":"address","internalType":"address"}],"outputs":[],"stateMutability":"nonpayable"},{"type":"function","name":"totalVaults","inputs":[],"outputs":[{"name":"","type":"uint256","internalType":"uint256"}],"stateMutability":"view"},{"type":"function","name":"transferOwnership","inputs":[{"name":"newOwner","type":"address","internalType":"address"}],"outputs":[],"stateMutability":"nonpayable"},{"type":"function","name":"vaultCreatedAt","inputs":[{"name":"","type":"address","internalType":"address"}],"outputs":[{"name":"","type":"uint256","internalType":"uint256"}],"stateMutability":"view"},{"type":"function","name":"vaultOf","inputs":[{"name":"","type":"address","internalType":"address"}],"outputs":[{"name":"","type":"address","internalType":"address"}],"stateMutability":"view"},{"type":"function","name":"vfideToken","inputs":[],"outputs":[{"name":"","type":"address","internalType":"address"}],"stateMutability":"view"},{"type":"event","name":"DAOSet","inputs":[{"name":"dao","type":"address","indexed":false,"internalType":"address"}],"anonymous":false},{"type":"event","name":"ForcedRecovery","inputs":[{"name":"vault","type":"address","indexed":true,"internalType":"address"},{"name":"newOwner","type":"address","indexed":true,"internalType":"address"}],"anonymous":false},{"type":"event","name":"ForcedRecoveryInitiated","inputs":[{"name":"vault","type":"address","indexed":true,"internalType":"address"},{"name":"newOwner","type":"address","indexed":true,"internalType":"address"},{"name":"unlockTime","type":"uint64","indexed":false,"internalType":"uint64"}],"anonymous":false},{"type":"event","name":"ModulesSet","inputs":[{"name":"vfide","type":"address","indexed":false,"internalType":"address"},{"name":"securityHub","type":"address","indexed":false,"internalType":"address"},{"name":"ledger","type":"address","indexed":false,"internalType":"address"},{"name":"dao","type":"address","indexed":false,"internalType":"address"}],"anonymous":false},{"type":"event","name":"OwnershipTransferStarted","inputs":[{"name":"previousOwner","type":"address","indexed":true,"internalType":"address"},{"name":"newOwner","type":"address","indexed":true,"internalType":"address"}],"anonymous":false},{"type":"event","name":"OwnershipTransferred","inputs":[{"name":"previousOwner","type":"address","indexed":true,"internalType":"address"},{"name":"newOwner","type":"address","indexed":true,"internalType":"address"}],"anonymous":false},{"type":"event","name":"VFIDESet","inputs":[{"name":"vfide","type":"address","indexed":false,"internalType":"address"}],"anonymous":false},{"type":"event","name":"VaultCreated","inputs":[{"name":"owner","type":"address","indexed":true,"internalType":"address"},{"name":"vault","type":"address","indexed":true,"internalType":"address"}],"anonymous":false},{"type":"error","name":"VI_NotDAO","inputs":[]},{"type":"error","name":"VI_Zero","inputs":[]}],"bytecode":{"object":"0x60803461014257601f61733138819003918201601f19168301916001600160401b03831184841017610146578084926080946040528339810103126101425760808161006b7f2ad69807131f242e4c6b9e21338b8d7d7d5f32ab1dfaa1eddfa881c305c8f5e79361015a565b906100786020820161015a565b90610091606061008a6040840161015a565b920161015a565b5f80546001600160a01b03191633908117825560405195929392917f8be0079c531659141344cd1fd0a4f28419497f9722a3daafe3b4186f6b6457e08180a3600280546001600160a01b039283166001600160a01b03199182168117909255600380549684169682168717905560048054948416948216851790556005805495909316941684179091558452602084019290925260408301919091526060820152a16040516171c2908161016f8239f35b5f80fd5b634e487b7160e01b5f52604160045260245ffd5b51906001600160a01b03821682036101425756fe60806040526004361015610011575f80fd5b5f3560e01c806306d7d6cf146102245780630709df451461021f57806317fd7bf61461021a5780631a6568811461021557806323452b9c146102105780632724fe091461020b57806327a4e1ab146102065780633297992e14610201578063360ca958146101fc5780634162169f146101f7578063419d7a83146101f2578063435c529b146101ed57806347b45652146101e857806356397c35146101e3578063652b9b41146101de5780636a240a9c146101d957806379ba5097146101d45780638d654023146101cf5780638da5cb5b146101ca57806390229af7146101c55780639f2b8b54146101c05780639f9a6508146101bb578063b079fbff146101b6578063b72d2943146101b1578063b8a71eec146101ac578063c5c82203146101a7578063c93883a5146101a2578063e01fd2151461019d578063e30c397814610198578063e73a914c14610193578063f20ca7ed1461018e578063f2fde38b146101895763fa3fd3bc14610184575f80fd5b61139f565b6112f5565b6112b0565b611214565b6111ec565b6111c5565b611157565b610e9c565b610e74565b610e4c565b610d5c565b610d19565b610cd0565b610ba0565b610b79565b610b5c565b610aa5565b6109a9565b61091c565b6108f4565b6108d7565b610897565b610859565b610831565b61075a565b610735565b6106fc565b6106b9565b61068f565b6103a2565b6102e4565b6102a1565b61023e565b6001600160a01b0381160361023a57565b5f80fd5b3461023a57602036600319011261023a5760043561025b81610229565b6001600160a01b039081165f9081526006602090815260408083205460078352928190205481519385168015158552928401929092529216151591810191909152606090f35b3461023a57602036600319011261023a576004356102be81610229565b60018060a01b03165f526006602052602060018060a01b0360405f205416604051908152f35b3461023a57602036600319011261023a577f77035913569424ed432f15a527aa4e0317cbefd28ce0fe9cdfe61acd77345c17602060043561032481610229565b61032c611a63565b600280546001600160a01b0319166001600160a01b03929092169182179055604051908152a161037861035d611415565b6c1a1d5897dd999a591957dcd95d609a1b6020820152611ad0565b005b604090600319011261023a5760043561039281610229565b9060243561039f81610229565b90565b3461023a576103b03661037a565b335f908152600c602052604090209091906103d6906103d1905b5460ff1690565b611468565b6001600160a01b0381169182158015610674575b6106655761043161042a61041e6104118560018060a01b03165f52600760205260405f2090565b546001600160a01b031690565b6001600160a01b031690565b15156114a6565b61045a61045461041e6104118460018060a01b03165f52600660205260405f2090565b156114e2565b6104976104936103ca3361047e8660018060a01b03165f52600a60205260405f2090565b9060018060a01b03165f5260205260405f2090565b1590565b6105e6575b600360ff6104bd6103ca8560018060a01b03165f52600b60205260405f2090565b1610156104c657005b61037892610507826104e88560018060a01b03165f52600960205260405f2090565b80546001600160a01b0319166001600160a01b03909216919091179055565b6105576105236105164261157f565b67ffffffffffffffff1690565b6001600160a01b0385165f9081526008602052604090209067ffffffffffffffff1667ffffffffffffffff19825416179055565b7f4f6a320f55ac586fc5dbafc5a9d39bf84e088884ac86cb6391a2ced7e237c8316105cd6105a66105988660018060a01b03165f52600860205260405f2090565b5467ffffffffffffffff1690565b60405167ffffffffffffffff90911681526001600160a01b03909416939081906020820190565b0390a36105d861158f565b6105e061142a565b91611b45565b6106146106073361047e8560018060a01b03165f52600a60205260405f2090565b805460ff19166001179055565b6001600160a01b0382165f908152600b602052604090206106509061064261063d825460ff1690565b611535565b60ff1660ff19825416179055565b61066061065b61154b565b611ad0565b61049c565b630f0f611b60e01b5f5260045ffd5b506001600160a01b038116156103ea565b5f91031261023a57565b3461023a575f36600319011261023a576106a7611a63565b600180546001600160a01b0319169055005b3461023a57602036600319011261023a576004356106d681610229565b60018060a01b03165f526007602052602060018060a01b0360405f205416604051908152f35b3461023a57602036600319011261023a57602061072360043561071e81610229565b6115bf565b6040516001600160a01b039091168152f35b3461023a575f36600319011261023a57602060405160038152f35b8015150361023a57565b3461023a57604036600319011261023a5760043561077781610229565b6024359061078482610750565b61078c611a63565b6001600160a01b03166107a081151561162d565b5f52600c6020526107c08160405f209060ff801983541691151516179055565b156107fb576103786107d0611453565b7f7265636f766572795f617070726f7665725f61646465640000000000000000006020820152611ad0565b61037861080661143e565b7f7265636f766572795f617070726f7665725f72656d6f766564000000000000006020820152611ad0565b3461023a575f36600319011261023a576005546040516001600160a01b039091168152602090f35b3461023a57602036600319011261023a5760043561087681610229565b60018060a01b03165f52600b602052602060ff60405f205416604051908152f35b3461023a57602036600319011261023a576004356108b481610229565b60018060a01b03165f52600c602052602060ff60405f2054166040519015158152f35b3461023a575f36600319011261023a57602060405162093a808152f35b3461023a575f36600319011261023a576004546040516001600160a01b039091168152602090f35b3461023a57602036600319011261023a5761097460043561093c81610229565b6001600160a01b039081165f8181526007602052604090205490911615159081610978575b5060405190151581529081906020820190565b0390f35b5f818152600760209081526040808320546001600160a01b0390811684526006909252822054169091149150610961565b3461023a576109b73661037a565b6005549091906109cf906001600160a01b031661041e565b3303610a96576001600160a01b0381169182158015610a85575b6106655761037892610a1461042a61041e6104118660018060a01b03165f52600760205260405f2090565b610a3761045461041e6104118560018060a01b03165f52600660205260405f2090565b610a63600360ff610a5b6103ca8760018060a01b03165f52600b60205260405f2090565b161015611663565b6001600160a01b0383165f9081526009602052604090206105079083906104e8565b506001600160a01b038116156109e9565b6369a473cf60e11b5f5260045ffd5b3461023a575f36600319011261023a576001546001600160a01b03163303610b1e575f5433906001600160a01b03908116167f8be0079c531659141344cd1fd0a4f28419497f9722a3daafe3b4186f6b6457e05f80a35f80546001600160a01b03191633179055600180546001600160a01b0319169055005b60405162461bcd60e51b815260206004820152601660248201527527aba71d103737ba103832b73234b7339037bbb732b960511b6044820152606490fd5b3461023a575f36600319011261023a576020600d54604051908152f35b3461023a575f36600319011261023a575f546040516001600160a01b039091168152602090f35b3461023a57602036600319011261023a57600435610bbd81610229565b6001600160a01b0381165f908152600760205260409020610bdd90610411565b6001600160a01b0382165f908152600e6020526040902054600354909190610c0d906001600160a01b031661041e565b926001600160a01b03841615159384610c54575b5050604080516001600160a01b039290921680835260208301939093529215159281019290925215156060820152608090f35b604051631293efbb60e21b81526001600160a01b0392909216600483015291935090602090829060249082905afa8015610ccb57610974915f91610c9c575b5092905f610c21565b610cbe915060203d602011610cc4575b610cb681836113ee565b8101906116af565b5f610c93565b503d610cac565b6116c4565b3461023a57602060ff610d0d610ce53661037a565b6001600160a01b039182165f908152600a865260408082209290931681526020919091522090565b54166040519015158152f35b3461023a57602036600319011261023a57600435610d3681610229565b60018060a01b03165f526009602052602060018060a01b0360405f205416604051908152f35b3461023a57608036600319011261023a577f2ad69807131f242e4c6b9e21338b8d7d7d5f32ab1dfaa1eddfa881c305c8f5e7600435610d9a81610229565b60243590610da782610229565b610e3e604435610db681610229565b60643590610dc382610229565b610dcb611a63565b600280546001600160a01b039586166001600160a01b03199182168117909255600380549787169782168817905560048054938716938216841790556005805494909616931683179094556040805194855260208501959095529383019390935260608201929092529081906080820190565b0390a161037861065b6116cf565b3461023a575f36600319011261023a576003546040516001600160a01b039091168152602090f35b3461023a575f36600319011261023a576002546040516001600160a01b039091168152602090f35b3461023a57602036600319011261023a57600435610eb981610229565b600554610ece906001600160a01b031661041e565b3303610a9657610f0567ffffffffffffffff610efd6105988460018060a01b03165f52600860205260405f2090565b1615156116fc565b610f30610f286105166105988460018060a01b03165f52600860205260405f2090565b421015611734565b6001600160a01b0381165f908152600960205260409020610f5090610411565b906001600160a01b038216610f6681151561162d565b610f8961045461041e6104118660018060a01b03165f52600660205260405f2090565b6001600160a01b0382165f908152600760205260409020610fa990610411565b6001600160a01b0381166110f0575b506001600160a01b0382165f908152600760205260409020610fdb9084906104e8565b6001600160a01b0383165f908152600660205260409020610ffd9083906104e8565b6001600160a01b038216803b1561023a576040516324d89a6360e21b81526001600160a01b039490941660048501525f8460248183855af1938415610ccb57610378946110d6575b506001600160a01b0383165f908152600960205260409020611072905b80546001600160a01b0319169055565b6001600160a01b0383165f908152600860209081526040808320805467ffffffffffffffff19169055600b9091528120805460ff191690557f95d14defab6a2b4ee4b7409bbb87adbfd28ae37e235f30d9a96198e6825dbc3b9080a36105d861176e565b806110e45f6110ea936113ee565b80610685565b5f611045565b6001600160a01b03165f90815260066020526040902061110f90611062565b5f610fb8565b60206040818301928281528451809452019201905f5b8181106111385750505090565b82516001600160a01b031684526020938401939092019160010161112b565b3461023a57602036600319011261023a5760043567ffffffffffffffff811161023a573660238201121561023a5780600401359067ffffffffffffffff821161023a573660248360051b8301011161023a576109749160246111b992016117b7565b60405191829182611115565b3461023a57602036600319011261023a5760206107236004356111e781610229565b6118b4565b3461023a575f36600319011261023a576001546040516001600160a01b039091168152602090f35b3461023a57602036600319011261023a577f8aad84fcad50e723fa3bcf0fb32c5bea4c71078b77b9aedfa638f146f3a3f7b9602060043561125481610229565b61125c611a63565b600580546001600160a01b0319166001600160a01b03929092169182179055604051908152a16103786040516112936040826113ee565b600b81526a1a1d5897d9185bd7dcd95d60aa1b6020820152611ad0565b3461023a57602036600319011261023a576004356112cd81610229565b60018060a01b03165f526008602052602067ffffffffffffffff60405f205416604051908152f35b3461023a57602036600319011261023a5760043561131281610229565b61131a611a63565b6001600160a01b0316801561136e57600180546001600160a01b031916821790555f80546001600160a01b0316907f38d16b8cac22d99fc7c124b9cd0de2d3fa1faef420bfe791d8c362d765e227009080a3005b60405162461bcd60e51b81526020600482015260096024820152684f574e3a207a65726f60b81b6044820152606490fd5b3461023a57602036600319011261023a576004356113bc81610229565b60018060a01b03165f52600e602052602060405f2054604051908152f35b634e487b7160e01b5f52604160045260245ffd5b90601f8019910116810190811067ffffffffffffffff82111761141057604052565b6113da565b604051906114246040836113ee565b600d8252565b604051906114396020836113ee565b5f8252565b6040519061144d6040836113ee565b60198252565b604051906114626040836113ee565b60178252565b1561146f57565b60405162461bcd60e51b815260206004820152600f60248201526e2b249d3737ba16b0b8383937bb32b960891b6044820152606490fd5b156114ad57565b60405162461bcd60e51b815260206004820152600d60248201526c1d5b9adb9bdddb881d985d5b1d609a1b6044820152606490fd5b156114e957565b60405162461bcd60e51b815260206004820152601060248201526f1d185c99d95d081a185cc81d985d5b1d60821b6044820152606490fd5b634e487b7160e01b5f52601160045260245ffd5b60ff1660ff81146115465760010190565b611521565b6040519061155a6040836113ee565b60168252751c9958dbdd995c9e57d85c1c1c9bdd985b17d8d85cdd60521b6020830152565b9062093a80820180921161154657565b6040519061159e6040836113ee565b6012825271199bdc98d957dc9958dbdd995c97da5b9a5d60721b6020830152565b6001600160a01b03811615611628576115e06115da82611bdf565b91611c23565b6020815191012060405190602082019260ff60f81b84523060601b602184015260358301526055820152605581526116196075826113ee565b5190206001600160a01b031690565b505f90565b1561163457565b60405162461bcd60e51b815260206004820152600760248201526656493a7a65726f60c81b6044820152606490fd5b1561166a57565b60405162461bcd60e51b815260206004820152601960248201527f56493a696e73756666696369656e742d617070726f76616c73000000000000006044820152606490fd5b9081602091031261023a575161039f81610750565b6040513d5f823e3d90fd5b604051906116de6040836113ee565b600f82526e1a1d5897db5bd91d5b195cd7dcd95d608a1b6020830152565b1561170357565b60405162461bcd60e51b815260206004820152600960248201526856493a6e6f2d72657160b81b6044820152606490fd5b1561173b57565b60405162461bcd60e51b815260206004820152600b60248201526a56493a74696d656c6f636b60a81b6044820152606490fd5b6040519061177d6040836113ee565b6013825272199bdc98d957dc9958dbdd995c97d99a5b985b606a1b6020830152565b67ffffffffffffffff81116114105760051b60200190565b6117c08261179f565b926117ce60405194856113ee565b828452601f196117dd8461179f565b0136602086013783905f5b84811015611840578060051b906118058286013561071e81610229565b91875182101561182c576001600160a01b03909216918701602001919091526001016117e8565b634e487b7160e01b5f52603260045260245ffd5b509250925050565b1561184f57565b60405162461bcd60e51b815260206004820152600e60248201526d18dc99585d194c8819985a5b195960921b6044820152606490fd5b5f1981146115465760010190565b61189b611415565b906c1d985d5b1d17d8dc99585d1959609a1b6020830152565b6001600160a01b03811691908215610665576002546118db906001600160a01b031661041e565b15610665576001600160a01b0381165f90815260066020526040902061190090610411565b6001600160a01b038116611a5e575061191881611bdf565b61192182611c23565b6020815191015ff5926001600160a01b0384169161198290611944841515611848565b6001600160a01b0381165f9081526006602052604090206119669087906104e8565b6001600160a01b0386165f9081526007602052604090206104e8565b611995611990600d54611885565b600d55565b6001600160a01b0384165f908152600e602052604090204290556003546119c4906001600160a01b031661041e565b6001600160a01b038116611a14575b507f5d9c31ffa0fecffd7cf379989a3c7af252f0335e0d2a1320b55245912c781f535f80a3611a12611a03611893565b611a0b61142a565b9084611b45565b565b803b1561023a576040516367ccd1cb60e01b81526001600160a01b0386166004820152905f908290602490829084905af1156119d357806110e45f611a58936113ee565b5f6119d3565b925050565b5f546001600160a01b03163303611a7657565b60405162461bcd60e51b815260206004820152600e60248201526d27aba71d103737ba1037bbb732b960911b6044820152606490fd5b805180835260209291819084018484015e5f828201840152601f01601f1916010190565b6004546001600160a01b031680611ae5575050565b803b1561023a57604051633ddd61ab60e21b815230600482015260606024820152915f918391829084908290611b1f906064830190611aac565b33604483015203925af1611b305750565b80611b3c5f80936113ee565b80031261023a57565b6004549092906001600160a01b031680611b60575b50505050565b803b1561023a57604051630303c28760e61b81526001600160a01b0390941660048501908152608060248601525f938593849286928492611bbe9291611baa906084860190611aac565b918560408201526060818403910152611aac565b03925af1611bcf575b808080611b5a565b5f611bd9916113ee565b5f611bc7565b60405160208101916bffffffffffffffffffffffff199060601b16825260148152611c0b6034826113ee565b51902090565b805191908290602001825e015f815290565b61039f611ce191611cc36154a59160405192611c4260208201856113ee565b808452611ce86020850139600254600354611cd1916001600160a01b0390811691611cc391611c71911661041e565b600454611c86906001600160a01b031661041e565b604080513060208201526001600160a01b03958616918101919091529584166060870152908316608086015290911660a0840152829060c0820190565b03601f1981018352826113ee565b6040519485936020850190611c11565b90611c1156fe61010080604052346102af575f9060a0816154a58038038091610022828561031a565b8339810103126102af576100358161033d565b6100416020830161033d565b61004d6040840161033d565b90610066608061005f6060870161033d565b950161033d565b60015f55600680546001600160401b0319166201518017905569021e19e0c9bab240000060075560088054600160401b600160801b031916690e100000000000000000179055670de0b6b3a7640000600955690a968163f0a57b400000600b55600c805461ffff1916611388179055926001600160a01b038116151580610308575b806102f6575b156102c75760805260a052600180546001600160a01b0319166001600160a01b0392831690811790915592811660c0521660e052604080519081016001600160401b038111828210176102b357604052600d81526c1d985d5b1d17d8dc99585d1959609a1b6020820190815260e0516001600160a01b0316919082610238575b5050507f50146d0e3c60aa1d17a70635b05494f864e86144a2201275021014fbf08bafe26040519280a26151539081610352823960805181818161131701528181611a04015261279f015260a05181818161047c015281816111df01528181611a7001528181611c40015281816127260152818161296a01528181612b9601528181612d33015281816132af015261474c015260c051818181612b5201528181612d7b0152614c5c015260e0518181816117cf01528181614cfb01528181614db8015261508c0152f35b823b156102af576084925f9283604051958680958194633ddd61ab60e21b8352306004840152606060248401525180918160648501528484015e8181018301849052336044830152601f01601f191681010301925af161029a575b808061016e565b6102a79192505f9061031a565b5f905f610293565b5f80fd5b634e487b7160e01b5f52604160045260245ffd5b60405162461bcd60e51b815260206004820152600760248201526655563a7a65726f60c81b6044820152606490fd5b506001600160a01b03831615156100ee565b506001600160a01b03821615156100e8565b601f909101601f19168101906001600160401b038211908210176102b357604052565b51906001600160a01b03821682036102af5756fe6080604052600436101561001a575b3615610018575f80fd5b005b5f3560e01c8063020378221461041457806304824e701461040f578063054f7d9c1461040a57806306603f8d146104055780630665f04b14610400578063092cc1fb146103fb5780630b6946da146103f65780630ba234d6146103f15780630c68ba21146103ec5780630fbd22b0146103e7578063118f117f146103e2578063124f8d9c146103dd5780631bed8c6e146103d85780631f180de8146103d3578063269b54b1146103ce5780632b8a1c5a146103c957806331d559f8146103c457806334a014dc146103bf578063365a86fc146103ba57806342e01e73146103b557806347e1da2a146103b05780634ddb926a146103ab5780635132124c146103a6578063518d0959146103a1578063536b801d1461039c57806354387ad71461039757806356397c35146103925780635f8983fd1461038d57806363a8374d1461038857806363f95a3b14610383578063688aa6ce1461037e5780636a150981146103795780636b1994ea146103745780636b6fe5e91461036f5780636d68e53b1461036a578063700c5e7d1461035657806372890ca2146103655780637e932d3214610360578063835316c71461035b5780638b2bc3e7146103565780638da5cb5b146103515780638e48d0821461034c5780638f252d34146103475780639362698c1461034257806393bcd8581461033d5780639a0dd14014610338578063b50ef71b14610333578063b5354ce51461032e578063b61d27f614610329578063b72d294314610324578063b8a71eec1461031f578063ba58db511461031a578063c55e4a0e14610315578063c60cd99c14610310578063cd1492d41461030b578063d25a918914610306578063d6c89c6014610301578063e2158ee7146102fc578063e24ba265146102f7578063e2ccb305146102f2578063e5711e8b146102ed578063e6536fc5146102e8578063f9773f92146102e35763fd4fa9810361000e576133fe565b61334e565b613331565b613241565b61315d565b613130565b61310f565b6130e9565b612f58565b612f36565b612ebc565b612cf7565b612bc5565b612b81565b612b3d565b612ac2565b612a94565b61289a565b61287d565b612854565b612780565b6126b9565b6125b3565b61258b565b6120cf565b6124ce565b612405565b612196565b6120b2565b611fdd565b611f33565b611bc7565b61192a565b6118fe565b611892565b6117fe565b6117ba565b61179a565b6116f8565b61162c565b61160f565b6114ca565b61143d565b611346565b611302565b6112d9565b61116d565b610f06565b610ed7565b610d59565b610b3e565b610aba565b610a94565b610a6f565b610a2f565b610977565b610827565b61080a565b610717565b610608565b6105e6565b610518565b610427565b5f91031261042357565b5f80fd5b34610423575f3660031901126104235761043f614c37565b610447614c5a565b600c546104599060101c60ff1661341b565b6040516370a0823160e01b81523060048201526020816024816001600160a01b037f0000000000000000000000000000000000000000000000000000000000000000165afa8015610502576104b5915f916104d3575b50600d55565b610018600d546104c36134fb565b906104cc6134e7565b9133614db5565b6104f5915060203d6020116104fb575b6104ed818361347b565b8101906134a1565b5f6104af565b503d6104e3565b6134b0565b6001600160a01b0381160361042357565b346104235760203660031901126104235760043561053581610507565b61053d614c37565b610545614c5a565b61054d614e6e565b610555614e89565b6001600160a01b031680156105ac576105a39047610574811515613536565b61058d5f80808085875af1610587613579565b506135a8565b6105956135f4565b61059d6134e7565b92614db5565b61001860015f55565b60405162461bcd60e51b815260206004820152601260248201527115558e881e995c9bc81c9958da5c1a595b9d60721b6044820152606490fd5b34610423575f36600319011261042357602060ff600a54166040519015158152f35b34610423575f366003190112610423576005546040516001600160a01b039091168152602090f35b90602080835192838152019201905f5b81811061064d5750505090565b82516001600160a01b0316845260209384019390920191600101610640565b90602080835192838152019201905f5b8181106106895750505090565b82516001600160401b031684526020938401939092019160010161067c565b90602080835192838152019201905f5b8181106106c55750505090565b825115158452602093840193909201916001016106b8565b91610706906106f86107149593606086526060860190610630565b90848203602086015261066c565b9160408184039101526106a8565b90565b34610423575f3660031901126104235760045461073381613634565b9061073d81613634565b9161074782613634565b905f5b838110156107f45760045f527f8a35acfbc15ff81a39ae7d344fd709f28e8600b4aa8c65c6b64bfe7fe36bd19b810154600191906107ee906107dd906001600160a01b03168061079a8588613697565b526001600160a01b0381165f908152601660205260409020546107d8906001600160401b03166107ca868c613697565b906001600160401b03169052565b613f57565b6107e78387613697565b9015159052565b0161074a565b506108068492604051938493846106dd565b0390f35b34610423575f366003190112610423576020600b54604051908152f35b34610423575f3660031901126104235761083f614c5a565b6005546001600160a01b031633819003610968576001600160a01b0316156109595761089461088f61087d60135461088661088161087d8360ff1690565b1590565b6136ab565b60501c60ff1690565b6136f7565b6108a76108a2601454613757565b601455565b6108b9600160ff196013541617601355565b6108c960135461ff001916601355565b61090b6108e46108d84261376a565b6001600160401b031690565b69ffffffffffffffff00006013549160101b169069ffffffffffffffff0000191617601355565b6013805460ff60501b19169055610932610923613788565b61092b6134e7565b9033614cf9565b337f45169f9a6369d811de455bb5ecdc25c684355abe2deaf2f8d9b81618754ba3b45f80a2005b630fd9d18960e41b5f5260045ffd5b631a4f16b960e21b5f5260045ffd5b34610423575f3660031901126104235761098f614c37565b610997614c5a565b6010546001600160a01b0381168015610a20576001600160f01b0319909116601055604080516109f992916109cc908261347b565b60128152711c9958dbdd995c9e57d8d85b98d95b1b195960721b60208201526109f36134e7565b91614cf9565b337f8154b6c5e1fc90d44b49808ef93f9739148d0821411890f8cd684385e24b9f1e5f80a2005b638d0fa13360e01b5f5260045ffd5b3461042357602036600319011261042357600435610a4c81610507565b60018060a01b03165f526002602052602060ff60405f2054166040519015158152f35b34610423575f36600319011261042357602060ff600a5460081c166040519015158152f35b34610423575f3660031901126104235760206001600160401b0360085416604051908152f35b34610423575f366003190112610423576010546001600160401b03906001600160a01b038116600260e883901c60ff1610610b355760ff60025b6040805184151581526001600160a01b03909416602085015260a085811c84169185019190915260a89490941c909416606083015292909216608083015290f35b60ff6001610af4565b34610423575f36600319011261042357610b56614c5a565b335f908152600260205260409020610b749061087d905b5460ff1690565b610d4a57610b8761087d60135460ff1690565b610d3b57335f908152601760205260409020610bb1610b6d6019548093905f5260205260405f2090565b610d2c57335f908152601760205260409020610be691610bd9915b905f5260205260405f2090565b805460ff19166001179055565b610c0d610bfd610bf860185460ff1690565b6137bb565b60ff1660ff196018541617601855565b60135460081c60ff1615610d1757600260ff610c2b60035460ff1690565b1610610d0e5760ff60025b1660ff610c4560185460ff1690565b16818110610d015750610c5d60ff1960135416601355565b610c6d60135461ff001916601355565b610c8569ffffffffffffffff00001960135416601355565b6013805460ff60501b19169055610ca5610ca0601954613757565b601955565b610cb460ff1960185416601855565b610cc8610cbf613807565b826104cc6134e7565b60405160ff909116815233907f82a4e870a30fcdcdb7097dff3667437d1d8574e2766560bb07e1f1fb4a5b15189080602081015b0390a2005b61001891506104c36137cc565b60ff6001610c36565b600260ff610d2760035460ff1690565b610c2b565b63017a521b60e51b5f5260045ffd5b6324dcf66760e21b5f5260045ffd5b633321153560e21b5f5260045ffd5b34610423575f36600319011261042357610d71614c5a565b335f908152600260205260409020610d8c9061087d90610b6d565b610d4a57610da1610d9c33613f57565b61384d565b6010546001600160a01b03811615610a2057610dd490610dcc9060a81c6001600160401b03166108d8565b421115613899565b335f908152601260205260409020610dfa610b6d6011548093905f5260205260405f2090565b610d2c57335f908152601260205260409020610e1991610bd991610bcc565b610e53610e34610e2f60105460ff9060a01c1690565b6138dc565b6010805460ff60a01b191660a09290921b60ff60a01b16919091179055565b601054610e7b9060a01c60ff16610e686138ee565b60ff610e726134e7565b92169033614db5565b601054610e956001600160a01b0382169160a01c60ff1690565b60405160ff9190911681526001600160a01b03919091169033907f93a8f3acc471767423e482b998d4f8d2dd61068cf066749b4d296f36bb64ad0090602090a3005b34610423575f36600319011261042357602060ff600c5460101c166040519015158152f35b8015150361042357565b3461042357604036600319011261042357600435610f2381610507565b60243590610f3082610efc565b610f38614c37565b610f40614c5a565b6001600160a01b03811691821561095957601054610f6e906001600160a01b03165b6001600160a01b031690565b61115e576001600160a01b0382165f908152600260205260409020610f9290610b6d565b81151590151503610f9f57005b6001600160a01b0382165f908152600260205260409020610fcb908260ff801983541691151516179055565b80156110815761001892610ff7610fe7610bf860035460ff1690565b60ff1660ff196003541617600355565b6001600160a01b0383165f908152601660205260409020805467ffffffffffffffff19166001600160401b034216179055611031836139ae565b60405182151581527fc4459d655e1efe034a75446f1f4db087f75d23bdfabccffafa6384cdb23a154490602090a2156110745761106c613a43565b6109f36134e7565b61107c613a16565b61106c565b611098610fe761109360035460ff1690565b61391d565b6001600160a01b0382165f908152601660205260408120805467ffffffffffffffff191690555b6004548082101561115357846110ef610f626110da8561367a565b905460039190911b1c6001600160a01b031690565b146110fd57506001016110bf565b610018949161112261111c6110da6111176111469561392c565b61367a565b9161367a565b81546001600160a01b0393841660039290921b91821b9390911b1916919091179055565b61114e613947565b611031565b505061001892611031565b631b11469b60e11b5f5260045ffd5b346104235760403660031901126104235760043561118a81610507565b60243590611196614c37565b61119e614c5a565b6001600160a01b03811680156109595760405163095ea7b360e01b81526001600160a01b03831660048201526024810184905292602084806044810103815f7f00000000000000000000000000000000000000000000000000000000000000006001600160a01b03165af192831561050257610806945f9461127c575b507fdbb7105d7dc41668df230e5be9d018b32b76fa24d02376890ee40fef04533249916112576112679261124e87613a82565b82610595613ac2565b6040519081529081906020820190565b0390a260405190151581529081906020820190565b611267919450916112576112c87fdbb7105d7dc41668df230e5be9d018b32b76fa24d02376890ee40fef045332499460203d6020116112d2575b6112c0818361347b565b810190613a6d565b959250509161121b565b503d6112b6565b34610423575f3660031901126104235760206001600160401b0360055460a01c16604051908152f35b34610423575f366003190112610423576040517f00000000000000000000000000000000000000000000000000000000000000006001600160a01b03168152602090f35b346104235760203660031901126104235760043561136381610507565b60018060a01b03165f52601660205260206001600160401b0360405f205416604051908152f35b9181601f84011215610423578235916001600160401b038311610423576020808501948460051b01011161042357565b805180835260209291819084018484015e5f828201840152601f01601f1916010190565b602081016020825282518091526040820191602060408360051b8301019401925f915b83831061141057505050505090565b909192939460208061142e600193603f1986820301875289516113ba565b97019301930191939290611401565b34610423576060366003190112610423576004356001600160401b0381116104235761146d90369060040161138a565b6024356001600160401b0381116104235761148c90369060040161138a565b919092604435926001600160401b03841161042357610806946114b66114be95369060040161138a565b949093613aed565b604051918291826113de565b34610423575f366003190112610423575f5f906114ef6006546001600160401b031690565b6001600160401b0381161515806115ef575b6115aa575b506008546001600160401b03604082901c1680151580611590575b611545575b5050604080516001600160401b03928316815292909116602083015290f35b61155c916001600160401b0316613d0c565b613d0c565b6001600160401b0381164210611573575b80611526565b6115899192506001600160401b03421690613ed8565b905f61156d565b506115a36001600160401b0383166108d8565b1515611521565b6005546115c3919060a01c6001600160401b0316613d0c565b6001600160401b038116421015611506576115e991506001600160401b03421690613ed8565b5f611506565b506005546116089060a01c6001600160401b03166108d8565b1515611501565b34610423575f366003190112610423576020600d54604051908152f35b3461042357602036600319011261042357600435611648614c37565b805f52600e60205260405f206001810154156116e9576116756001600160401b0360028193015416613cec565b164211156116af57806116a7611696610018935f52600e60205260405f2090565b60025f918281558260018201550155565b6104c3613ef8565b60405162461bcd60e51b815260206004820152601260248201527115558e881d1e081b9bdd08195e1c1a5c995960721b6044820152606490fd5b634c8d442960e01b5f5260045ffd5b34610423575f36600319011261042357611710614c37565b611718614c5a565b60135460ff811615610d3b576affffffffffffffffffffff1916600160501b1760135561177360405161174c60408261347b565b60128152711a5b9a195c9a5d185b98d957d9195b9a595960721b602082015261092b6134e7565b337fec32f6be1cfe5f271330570749895d0cdcb3324846ee37b8a6ac973b4a27cf575f80a2005b34610423575f36600319011261042357602060ff60035416604051908152f35b34610423575f366003190112610423576040517f00000000000000000000000000000000000000000000000000000000000000006001600160a01b03168152602090f35b346104235760203660031901126104235760043561181a614c37565b805f52600e60205260405f206001810154156116e9576002019081549160ff8360481c1661188357600160481b6100189360ff60481b191617905533817f12cd094e454538586035071c64eb69c206d65137212e7d5e9d32d738540435705f80a36104c3613f28565b63446d277b60e11b5f5260045ffd5b34610423576020366003190112610423576004355f52600e60205260a060405f2060ff600180841b0382541691600260018201549101549060405193845260208401526001600160401b0381166040840152818160401c161515606084015260481c1615156080820152f35b346104235760203660031901126104235760206119206004356107d881610507565b6040519015158152f35b34610423575f36600319011261042357611942614c5a565b61194a614e89565b60135460ff811615610d3b57605081901c60ff16611bb8576119b99061198761197f601083901c6001600160401b03166108d8565b421115613fb2565b600260ff61199760035460ff1690565b1610611bab5760ff6119b18160025b169260081c60ff1690565b161015613ffe565b600554611a00906001600160a01b03166020816119d781151561404a565b604051630709df4560e01b81526001600160a01b03909116600482015292839081906024820190565b03817f00000000000000000000000000000000000000000000000000000000000000006001600160a01b03165afa918215610502575f92611b7a575b506001600160a01b03821691611a538315156140a0565b6040516370a0823160e01b81523060048201526001600160a01b037f000000000000000000000000000000000000000000000000000000000000000016602082602481845afa8015610502577fcc9c89312a2ac19bfbb488a107aa51e50162fc6a2ad5dad80dbba85e2a9a936893611b43935f92611b4f575b50611ae782828195611ae26112579615156140fb565b614eca565b611af660ff1960135416601355565b611b0660135461ff001916601355565b611b1e69ffffffffffffffff00001960135416601355565b6013805460ff60501b19169055611b3a60ff1960185416601855565b82610595614147565b0390a361001860015f55565b61125792508193611b71611ae79260203d6020116104fb576104ed818361347b565b93509350611acc565b611b9d91925060203d602011611ba4575b611b95818361347b565b81019061408b565b905f611a3c565b503d611b8b565b60ff6119b18160016119a6565b63781b949d60e11b5f5260045ffd5b3461042357604036600319011261042357600435611be481610507565b602435611bef614c37565b611bf7614c5a565b611bff614e6e565b611c07614e89565b6001600160a01b03821691821561095957611c2382151561417a565b6040516370a0823160e01b81523060048201526001600160a01b037f00000000000000000000000000000000000000000000000000000000000000001690602081602481855afa90811561050257611c869185915f91611f14575b5010156141b8565b611c8e6146df565b8015159081611f09575b50611dc7579161125782611d0d83611d3c957f1f4e9075aadab47c6d1822e19226819c4482f4326012945c69bb143c6861982a97611cde6006546001600160401b031690565b6001600160401b038116151580611da7575b611d79575b506007548084119081611d6f575b50611d5457614eca565b6005805467ffffffffffffffff60a01b19164260a01b67ffffffffffffffff60a01b1617905582610595614354565b0390a2611d4860015f55565b60405160018152602090f35b611ae2611d5f614320565b84611d686134e7565b9185614db5565b905015155f611d03565b611d996108d8611da1926115576005546001600160401b039060a01c1690565b4210156142df565b5f611cf5565b50600554611dc09060a01c6001600160401b03166108d8565b1515611cf0565b611f05611edf611eed611eb287611ead8789600f5493611dee611de986613757565b600f55565b611e3e611df96134bb565b6001600160a01b038516815260208101849052426001600160401b031660408201525f60608201525f6080820152611e39875f52600e60205260405f2090565b614204565b80857f72c131e4f3fead122420dfa8d1a10e700e5e3badef6ea9b934ce82124515d1ce60405180611e7487829190602083019252565b0390a360405182815285907f01f061fd4833af7536ad6a70ec12a9dc6288023456766753aae7ff9197ecfc1090602090a361059561429b565b614fd8565b604051732aab1d3832b73234b73396b0b8383937bb30b61d60611b602082015292839160348301906142cd565b03601f19810183528261347b565b60405162461bcd60e51b815291829160048301612ab1565b0390fd5b90508310155f611c98565b611f2d915060203d6020116104fb576104ed818361347b565b5f611c7e565b34610423576020366003190112610423576004355f52600e60205260405f2060018060a01b0381541690610806600260018301549201546001600160401b03811692611f7e84613cec565b604080516001600160a01b0397909716875260208701929092526001600160401b0394851686830152909316606085018190524211608085015260ff9281901c8316151560a085015260481c909116151560c0830152819060e0820190565b3461042357602036600319011261042357600435611ff9614c37565b612001614c5a565b68056bc75e2d6310000081106120755769d3c21bcecceda10000008111612037578061202f61001892600755565b6104c3614380565b60405162461bcd60e51b81526020600482015260166024820152750aaac7440e8d0e4cae6d0ded8c840e8dede40d0d2ced60531b6044820152606490fd5b60405162461bcd60e51b815260206004820152601560248201527455563a207468726573686f6c6420746f6f206c6f7760581b6044820152606490fd5b34610423575f366003190112610423576020600f54604051908152f35b34610423575f36600319011261042357602060405162278d008152f35b90602080835192838152019201905f5b8181106121095750505090565b82518452602093840193909201916001016120fc565b9796959261219194612167612175926121598c6121839761214b60c09c9860e0845260e08401906120ec565b916020818403910152610630565b8c810360408e0152906120ec565b908a820360608c015261066c565b9088820360808a01526106a8565b9086820360a08801526106a8565b930152565b346104235760403660031901126104235760243560043581156123fc575b606482116123f3575b600f54905f805b838110612389575081811115612382576121de828261393a565b935b80851161237a575b506121f284613634565b6121fb85613634565b9461220581613634565b9161220f82613634565b61221883613634565b9061222284613634565b915f965f955f5b8b811080612371575b1561235b57612249815f52600e60205260405f2090565b60018101548e8d82151580612342575b612270575b5050505061226b90613757565b612229565b90848d928f969f1015612299575b505050505061228f61226b91613757565b99905f8e8d61225e565b600261228f956123389561226b989f958f6122f1916122ec61233398612329986122c48c8096613697565b5286546122dd9085906001600160a01b03165b92613697565b6001600160a01b039091169052565b613697565b52015461230b8b6107ca866001600160401b0385166122d7565b612320604082901c60ff166107e7868d613697565b60481c60ff1690565b6107e7838c613697565b613757565b98918a8f8d61227e565b5060028401546123569060481c60ff161590565b612259565b8c876108068589888a8f6040519788978861211f565b50818810612232565b93505f6121e8565b5f936121e0565b600161239d825f52600e60205260405f2090565b01541515806123c8575b6123b4575b6001016121c4565b906123c0600191613757565b9190506123ac565b506123ee61087d60026123e3845f52600e60205260405f2090565b015460481c60ff1690565b6123a7565b606491506121bd565b603291506121b4565b346104235760203660031901126104235760043561242281610efc565b61242a614c37565b7f18a225f450380fd39da2a8986c15805afce4eb7f6efbdfe1d0bb9df17c8e7923602082151560ff19600a541660ff821617600a55604051908152a11561249d5761001860405161247c60408261347b565b600c81526b3b30bab63a2fb33937bd32b760a11b602082015261092b6134e7565b6100186040516124ae60408261347b565b600e81526d3b30bab63a2fbab7333937bd32b760911b6020820152610923565b34610423576020366003190112610423576004356124eb81610507565b6124f3614c37565b6124fb614c5a565b6001600160a01b0381169081156109595761256590826001600160601b0360a01b600554161760055560405161253260408261347b565b600f81526e1b995e1d17dbd997dada5b97dcd95d608a1b60208201526040519161255d60208461347b565b5f8352614cf9565b7f5e5418a3c3d9e12cae95b949efcf26cfdffb4dbc73cd1d2532a97f656e634bf55f80a2005b34610423575f366003190112610423576001546040516001600160a01b039091168152602090f35b34610423576020366003190112610423576004356001600160401b038116808203610423576125e0614c37565b6125e8614c5a565b62093a80811161267d577f8cda612ae0c82a8cb2d30ebddc4e01a65f44d092f2d1537454f126f009974f1661266a61001893610e108410801590612675575b612630906143ab565b612650816001600160401b03166001600160401b03196006541617600655565b6040516001600160401b0390911681529081906020820190565b0390a16104c36143ef565b508315612627565b60405162461bcd60e51b815260206004820152601460248201527355563a636f6f6c646f776e2d746f6f2d6c6f6e6760601b6044820152606490fd5b34610423576020366003190112610423576004356126d681610efc565b6126de614c37565b6126e6614c5a565b600c805462ff0000191682151560101b62ff0000161790551561276c576040516370a0823160e01b81523060048201526020816024816001600160a01b037f0000000000000000000000000000000000000000000000000000000000000000165afa80156105025761275e915f916104d35750600d55565b610018600d546104c3614454565b6127755f600d55565b610018610923614419565b346104235760203660031901126104235760043561279d81610507565b7f00000000000000000000000000000000000000000000000000000000000000006001600160a01b0316330361282257600180546001600160a01b0319166001600160a01b039290921691821790556127fc6127f761448f565b61508a565b7f50146d0e3c60aa1d17a70635b05494f864e86144a2201275021014fbf08bafe25f80a2005b60405162461bcd60e51b815260206004820152600a6024820152692aab1d37b7363ca43ab160b11b6044820152606490fd5b34610423575f3660031901126104235760206001600160401b0360085460401c16604051908152f35b34610423575f366003190112610423576020600954604051908152f35b34610423576020366003190112610423576004356128b6614c37565b6128be614c5a565b6128c6614e6e565b6128ce614e89565b6128e0815f52600e60205260405f2090565b9060018201908154156116e95760028301805490604882901c60ff166118835761293361292b6108d8612926856108d861292161294c9860ff9060401c1690565b6144be565b613cec565b421115614500565b805469ff0000000000000000001916600160481b179055565b6040516370a0823160e01b8152306004820152926001600160a01b037f00000000000000000000000000000000000000000000000000000000000000001690602085602481855afa948515610502576105a395612a01936129ce925f92612a73575b506129bd8754809310156141b8565b83546001600160a01b031690614eca565b6005805467ffffffffffffffff60a01b19164260a01b67ffffffffffffffff60a01b16179055546001600160a01b031690565b915460405181815290916001600160a01b038416918291907fda19024f6708ce28e75d9c0ec389fb05a8e5cc9dfe520f61239c10d51a11e59c90602090a36040518281527f1f4e9075aadab47c6d1822e19226819c4482f4326012945c69bb143c6861982a90602090a2610595614545565b612a8d91925060203d6020116104fb576104ed818361347b565b905f6129ae565b34610423575f366003190112610423576020600754604051908152f35b9060206107149281815201906113ba565b3461042357606036600319011261042357600435612adf81610507565b60243590604435906001600160401b0382116104235736602383011215610423578160040135906001600160401b03821161042357366024838501011161042357610806936024612b31940191614576565b60405191829182612ab1565b34610423575f366003190112610423576040517f00000000000000000000000000000000000000000000000000000000000000006001600160a01b03168152602090f35b34610423575f366003190112610423576040517f00000000000000000000000000000000000000000000000000000000000000006001600160a01b03168152602090f35b34610423575f36600319011261042357612bdd614c5a565b335f908152600260205260409020612bf89061087d90610b6d565b610d4a5760135460ff811615610d3b57605081901c60ff16611bb857335f90815260156020526040902090612c3b610b6d6014548094905f5260205260405f2090565b610d2c57612c7391612c6061197f6108d8610bd9946001600160401b039060101c1690565b335f908152601560205260409020610bcc565b612ca1612c89610bf860135460ff9060081c1690565b60135461ff00191660089190911b61ff001617601355565b601354612cb69060081c60ff16610e68614693565b60135460081c60ff1660405160ff909116815233907f0ea7dfe497d90adcfba43ccd872c922d16653039b5d89b207ba8554c2cff14cd908060208101610cfc565b34610423575f366003190112610423576001546001600160a01b03166040516370a0823160e01b815230600482015290602082806024810103817f00000000000000000000000000000000000000000000000000000000000000006001600160a01b03165afa918215610502575f92612e9b575b5047612d79600a5460ff1690565b7f00000000000000000000000000000000000000000000000000000000000000006001600160a01b0316919082151580612e44575b600354610806945060ff166005546001600160a01b0316601054909290612ddd906001600160a01b0316610f62565b151593612dec60135460ff1690565b604080516001600160a01b039a8b168152602081019b909b528a0196909652151560608901521515608088015260ff1660a087015290931660c085015291151560e08401529015156101008301528190610120820190565b50604051631293efbb60e21b815230600482015292602090849060249082905afa801561050257610806935f91612e7c575b50612dae565b612e95915060203d6020116112d2576112c0818361347b565b5f612e76565b612eb591925060203d6020116104fb576104ed818361347b565b905f612d6b565b34610423575f36600319011261042357601354600260ff6003541610155f14612f2e576002905b6040805160ff83811615158252600884901c811660208301526001600160401b03601085901c169282019290925260509290921c81161515606083015291909116608082015260a090f35b600190612ee3565b34610423575f366003190112610423576020612f506146df565b604051908152f35b3461042357606036600319011261042357600435612f7581610efc565b602435906044359161ffff83169182840361042357612f92614c37565b612f9a614c5a565b8015613055577f2e02e19641dbae8d0ee7cf4656d3cc039f7adb684e447de0492c12fe349bc9d56130306100189585151580613049575b612fda906147c3565b612ff08161ffff1661ffff19600c541617600c55565b61300c84600a5461ff00191690151560081b61ff001617600a55565b6040805185151581526020810187905261ffff909216908201529081906060820190565b0390a11561304257505b6104c361481b565b905061303a565b50612710861115612fd1565b6007548210613094577f2e02e19641dbae8d0ee7cf4656d3cc039f7adb684e447de0492c12fe349bc9d56130306100189561308f85600b55565b612ff0565b60405162461bcd60e51b815260206004820152602760248201527f55563a206d757374206265203e3d206c61726765207472616e736665722074686044820152661c995cda1bdb1960ca1b6064820152608490fd5b34610423575f3660031901126104235760206001600160401b0360065416604051908152f35b34610423575f36600319011261042357602061ffff600c5416604051908152f35b346104235760203660031901126104235761001860043561315081610507565b613158614c5a565b6148eb565b34610423575f36600319011261042357613175614c5a565b6010546001600160a01b03811690818015610a20576131d6826131ab610dcc6108d86131f3966001600160401b039060a81c1690565b600260e882901c60ff16106132345760ff6131ce8160025b169260a01c60ff1690565b161015614b13565b60018060a01b03166001600160601b0360a01b6001541617600155565b601080546001600160f01b031916905561320e6127f7614b5f565b7f9504e318c48c2d15540e6faaea014f2855c06fc4df211f5e26a8fb99a6be7fdf5f80a2005b60ff6131ce8160016131c3565b346104235760603660031901126104235760043561325e81610507565b60243561326a81610507565b60443591613276614c37565b61327e614c5a565b613286614e6e565b6001600160a01b0316918215158061331f575b156132e757610018926132df9082908490611ae27f00000000000000000000000000000000000000000000000000000000000000006001600160a01b0316821415614b8f565b610595614bdb565b60405162461bcd60e51b815260206004820152601060248201526f55563a207a65726f206164647265737360801b6044820152606490fd5b506001600160a01b0382161515613299565b34610423575f36600319011261042357602060405162093a808152f35b346104235760203660031901126104235760043561336a614c37565b805f52600e60205260405f206001810154156116e9576002019081546133948160ff9060481c1690565b61188357610018926133b861292b6108d86129266133d0956001600160401b031690565b805468ff00000000000000001916600160401b179055565b33817f924813d717e221b5f46dcd8a56da1679e4612584ab3237d55e5faabf6f6a30795f80a36104c3614c06565b34610423575f366003190112610423576020604051620151808152f35b1561342257565b60405162461bcd60e51b815260206004820152601d60248201527f55563a20736e617073686f74206d6f6465206e6f7420656e61626c65640000006044820152606490fd5b634e487b7160e01b5f52604160045260245ffd5b90601f801991011681019081106001600160401b0382111761349c57604052565b613467565b90816020910312610423575190565b6040513d5f823e3d90fd5b604051906134ca60a08361347b565b565b6001600160401b03811161349c57601f01601f191660200190565b604051906134f660208361347b565b5f8252565b6040519061350a60408361347b565b601882527f62616c616e63655f736e617073686f745f7570646174656400000000000000006020830152565b1561353d57565b60405162461bcd60e51b815260206004820152601460248201527355563a206e6f2045544820746f2072657363756560601b6044820152606490fd5b3d156135a3573d9061358a826134cc565b91613598604051938461347b565b82523d5f602084013e565b606090565b156135af57565b60405162461bcd60e51b815260206004820152601760248201527f55563a20455448207472616e73666572206661696c65640000000000000000006044820152606490fd5b6040519061360360408361347b565b600b82526a195d1a17dc995cd8dd595960aa1b6020830152565b6001600160401b03811161349c5760051b60200190565b9061363e8261361d565b61364b604051918261347b565b828152809261365c601f199161361d565b0190602036910137565b634e487b7160e01b5f52603260045260245ffd5b6004548110156136925760045f5260205f2001905f90565b613666565b80518210156136925760209160051b010190565b156136b257565b60405162461bcd60e51b815260206004820152601e60248201527f55563a20696e6865726974616e636520616c72656164792061637469766500006044820152606490fd5b156136fe57565b60405162461bcd60e51b815260206004820152601c60248201527f55563a206f776e65722064656e69656420696e6865726974616e6365000000006044820152606490fd5b634e487b7160e01b5f52601160045260245ffd5b5f1981146137655760010190565b613743565b9062278d00820180921161376557565b603001908160301161376557565b6040519061379760408361347b565b60158252741a5b9a195c9a5d185b98d957dc995c5d595cdd1959605a1b6020830152565b60ff1660ff81146137655760010190565b604051906137db60408361347b565b601782527f696e6865726974616e63655f63616e63656c5f766f74650000000000000000006020830152565b6040519061381660608361347b565b60228252616e7360f01b6040837f696e6865726974616e63655f63616e63656c6c65645f62795f6775617264696160208201520152565b1561385457565b60405162461bcd60e51b815260206004820152601760248201527f55563a20677561726469616e206e6f74206d61747572650000000000000000006044820152606490fd5b156138a057565b60405162461bcd60e51b815260206004820152601460248201527315558e881c9958dbdd995c9e48195e1c1a5c995960621b6044820152606490fd5b60ff60019116019060ff821161376557565b604051906138fd60408361347b565b60118252701c9958dbdd995c9e57d85c1c1c9bdd985b607a1b6020830152565b60ff168015613765575f190190565b5f1981019190821161376557565b9190820391821161376557565b600454801561399a575f198101906004548210156136925760045f8190527f8a35acfbc15ff81a39ae7d344fd709f28e8600b4aa8c65c6b64bfe7fe36bd19a90910180546001600160a01b031916905555565b634e487b7160e01b5f52603160045260245ffd5b60045490600160401b82101561349c57600182016004556004548210156136925760045f527f8a35acfbc15ff81a39ae7d344fd709f28e8600b4aa8c65c6b64bfe7fe36bd19b90910180546001600160a01b0319166001600160a01b03909216919091179055565b60405190613a2560408361347b565b600f82526e677561726469616e5f72656d6f766560881b6020830152565b60405190613a5260408361347b565b600c82526b19dd585c991a585b97d8591960a21b6020830152565b90816020910312610423575161071481610efc565b15613a8957565b60405162461bcd60e51b815260206004820152601160248201527015558e985c1c1c9bdd994b59985a5b1959607a1b6044820152606490fd5b60405190613ad160408361347b565b600d82526c7661756c745f617070726f766560981b6020830152565b939290613af8614c37565b613b00614c5a565b613b08614e89565b81811480613ca2575b613b1a90613cab565b6008546001600160401b03604082901c1680151580613c88575b613c5f575b5050613b4481613d78565b955f5b828110613b805750506008805467ffffffffffffffff1916426001600160401b031617905550613b779350505050565b61071460015f55565b613b96610f62613b9183868b613dc1565b613dd1565b1561095957613bb730613bb0610f62613b9185888d613dc1565b1415613ddb565b613bd0613bc5828688613dc1565b356009541015613e16565b5f80613be0613b9184878c613dc1565b613beb84888a613dc1565b35613bf785878c613e59565b9190613c0860405180948193613e9a565b03925af190613c15613579565b91156134b057600191613c28828b613697565b52613c33818a613697565b50613c59613c45613b9183878c613dc1565b613c5083888a613dc1565b35610595613ea7565b01613b47565b6108d8613c7991611557613c81946001600160401b031690565b421015613d2c565b5f80613b39565b50613c9b6001600160401b0383166108d8565b1515613b34565b50818614613b11565b15613cb257565b60405162461bcd60e51b81526020600482015260126024820152710aaac74d8cadccee8d05adad2e6dac2e8c6d60731b6044820152606490fd5b6001600160401b0362015180911601906001600160401b03821161376557565b906001600160401b03809116911601906001600160401b03821161376557565b15613d3357565b60405162461bcd60e51b815260206004820152601a60248201527f55563a657865637574652d636f6f6c646f776e2d6163746976650000000000006044820152606490fd5b90613d828261361d565b613d8f604051918261347b565b8281528092613da0601f199161361d565b01905f5b828110613db057505050565b806060602080938501015201613da4565b91908110156136925760051b0190565b3561071481610507565b15613de257565b60405162461bcd60e51b815260206004820152600c60248201526b15558e9cd95b198b58d85b1b60a21b6044820152606490fd5b15613e1d57565b60405162461bcd60e51b81526020600482015260146024820152730aaac74ecc2d8eaca5acaf0c6cacac8e65adac2f60631b6044820152606490fd5b91908110156136925760051b81013590601e19813603018212156104235701908135916001600160401b038311610423576020018236038113610423579190565b908092918237015f815290565b60405190613eb660408361347b565b60138252720ecc2ead8e8becaf0cac6eae8cabec4c2e8c6d606b1b6020830152565b906001600160401b03809116911603906001600160401b03821161376557565b60405190613f0760408361347b565b6012825271070656e64696e675f74785f636c65616e75760741b6020830152565b60405190613f3760408361347b565b60118252701c195b991a5b99d7dd1e17d9195b9a5959607a1b6020830152565b6001600160a01b03165f8181526002602052604090205460ff1615613fad575f52601660205262093a806001600160401b0360405f205416016001600160401b038111613765576001600160401b031642101590565b505f90565b15613fb957565b60405162461bcd60e51b815260206004820152601760248201527f55563a20696e6865726974616e636520657870697265640000000000000000006044820152606490fd5b1561400557565b60405162461bcd60e51b815260206004820152601a60248201527f55563a20696e73756666696369656e7420617070726f76616c730000000000006044820152606490fd5b1561405157565b60405162461bcd60e51b81526020600482015260126024820152712aab1d103737903732bc3a1037b31035b4b760711b6044820152606490fd5b90816020910312610423575161071481610507565b156140a757565b60405162461bcd60e51b815260206004820152602660248201527f55563a20696e68657269746f72206d7573742068617665206578697374696e67604482015265081d985d5b1d60d21b6064820152608490fd5b1561410257565b60405162461bcd60e51b815260206004820152601760248201527f55563a206e6f2066756e647320746f20696e68657269740000000000000000006044820152606490fd5b6040519061415660408361347b565b60158252741a5b9a195c9a5d185b98d957d99a5b985b1a5e9959605a1b6020830152565b1561418157565b60405162461bcd60e51b815260206004820152600f60248201526e15558e881e995c9bc8185b5bdd5b9d608a1b6044820152606490fd5b156141bf57565b60405162461bcd60e51b815260206004820152601860248201527f55563a20696e73756666696369656e742062616c616e636500000000000000006044820152606490fd5b600260809160018060a01b038451166001600160601b0360a01b82541617815560208401516001820155019161425d6001600160401b0360408301511684906001600160401b03166001600160401b0319825416179055565b60608101518354929091015169ffff00000000000000001990921690151560401b68ff0000000000000000161790151560481b60ff60481b16179055565b604051906142aa60408361347b565b601482527318589b9bdc9b585b17dd1e17d9195d1958dd195960621b6020830152565b805191908290602001825e015f815290565b156142e657565b60405162461bcd60e51b815260206004820152601260248201527155563a636f6f6c646f776e2d61637469766560701b6044820152606490fd5b6040519061432f60408361347b565b60168252751b185c99d957dd1c985b9cd9995c97d85d1d195b5c1d60521b6020830152565b6040519061436360408361347b565b600e82526d3b30bab63a2fba3930b739b332b960911b6020830152565b6040519061438f60408361347b565b600d82526c1d1a1c995cda1bdb1917dcd95d609a1b6020830152565b156143b257565b60405162461bcd60e51b815260206004820152601560248201527415558e98dbdbdb191bdddb8b5d1bdbcb5cda1bdc9d605a1b6044820152606490fd5b604051906143fe60408361347b565b600c82526b18dbdbdb191bdddb97dcd95d60a21b6020830152565b6040519061442860408361347b565b601982527f62616c616e63655f736e617073686f745f64697361626c6564000000000000006020830152565b6040519061446360408361347b565b601882527f62616c616e63655f736e617073686f745f656e61626c656400000000000000006020830152565b6040519061449e60408361347b565b60118252703b30bab63a2fb337b931b2afb7bbb732b960791b6020830152565b156144c557565b60405162461bcd60e51b815260206004820152601360248201527215558e881d1e081b9bdd08185c1c1c9bdd9959606a1b6044820152606490fd5b1561450757565b60405162461bcd60e51b815260206004820152601660248201527515558e881c195b991a5b99c81d1e08195e1c1a5c995960521b6044820152606490fd5b6040519061455460408361347b565b60138252721c195b991a5b99d7dd1e17d95e1958dd5d1959606a1b6020830152565b92919091614582614c37565b61458a614c5a565b614592614e89565b6001600160a01b038416908115610959575f926145e184936145b8600954881115613e16565b6008546001600160401b03604082901c168015158061464e575b61462d575b5050301415613ddb565b6145f060405180938193613e9a565b039084865af1916145ff613579565b92156134b0576008805467ffffffffffffffff1916426001600160401b0316179055613b7791610595614668565b6108d8613c7991611557614647946001600160401b031690565b5f806145d7565b506146616001600160401b0383166108d8565b15156145d2565b6040519061467760408361347b565b600d82526c7661756c745f6578656375746560981b6020830152565b604051906146a260408361347b565b60148252731a5b9a195c9a5d185b98d957d85c1c1c9bdd995960621b6020830152565b61ffff1690565b8181029291811591840414171561376557565b600a5460081c60ff16156147bd57600c54601081901c60ff16806147b2575b15614729576147216107149161471b6146c5600d549261ffff1690565b906146cc565b612710900490565b6040516370a0823160e01b81523060048201526020816024816001600160a01b037f0000000000000000000000000000000000000000000000000000000000000000165afa9182156105025761471b6146c561071494614721945f91614793575b509261ffff1690565b6147ac915060203d6020116104fb576104ed818361347b565b5f61478a565b50600d5415156146fe565b600b5490565b156147ca57565b60405162461bcd60e51b8152602060048201526024808201527f55563a20696e76616c69642070657263656e746167652028302d3130303030206044820152636270732960e01b6064820152608490fd5b6040519061482a60408361347b565b601982527f61626e6f726d616c5f74785f7468726573686f6c645f736574000000000000006020830152565b6040519061486560408361347b565b60168252753932b1b7bb32b93cafb932b8bab2b9ba32b22fb5b4b760511b6020830152565b6040519061489960408361347b565b60138252720dcb59185e481dd85a5d081c995c5d5a5c9959606a1b6020830152565b604051906148ca60408361347b565b60128252711c9958dbdd995c9e57dc995c5d595cdd195960721b6020830152565b600154614900906001600160a01b0316610f62565b33148015614af6575b8015614ad9575b15610d4a576001600160a01b0381169081156109595760055461493b906001600160a01b0316610f62565b331480614ac3575b614a6a57614a079061495e614959601154613757565b601155565b601080546001600160a81b0319166001600160a01b0383161790556149b56149886108d84261376a565b6010805467ffffffffffffffff60a81b191660a89290921b67ffffffffffffffff60a81b16919091179055565b6149e36149c460035460ff1690565b6010805460ff60e81b191660e89290921b60ff60e81b16919091179055565b335f9081526002602052604090206149fa90610b6d565b614a2d575b61106c6148bb565b7f9cc0dc5a29a0ebc421ec879559ba990d29c1fb967a227ed69c9f4e33faa04bff5f80a2565b335f908152601260205260409020614a5290610bd9906011545f5260205260405f2090565b6010805460ff60a01b1916600160a01b1790556149ff565b614a0790614a7c614959601154613757565b601080546001600160a81b0319166001600160a01b038316179055614aa66149886108d84261376a565b6010805460ff60e81b19169055614abb614856565b6109f361488a565b5060ff614ad260035460ff1690565b1615614943565b50600554614aef906001600160a01b0316610f62565b3314614910565b50335f908152600260205260409020614b0e90610b6d565b614909565b15614b1a57565b60405162461bcd60e51b815260206004820152601960248201527f55563a696e73756666696369656e742d617070726f76616c73000000000000006044820152606490fd5b60405190614b6e60408361347b565b60128252711c9958dbdd995c9e57d99a5b985b1a5e995960721b6020830152565b15614b9657565b60405162461bcd60e51b815260206004820152601f60248201527f55563a20757365207472616e73666572564649444520666f72205646494445006044820152606490fd5b60405190614bea60408361347b565b600d82526c1d1bdad95b97dc995cd8dd5959609a1b6020830152565b60405190614c1560408361347b565b60138252721c195b991a5b99d7dd1e17d85c1c1c9bdd9959606a1b6020830152565b6001546001600160a01b03163303614c4b57565b63c0b06f0b60e01b5f5260045ffd5b7f00000000000000000000000000000000000000000000000000000000000000006001600160a01b03168015159081614ca4575b50614c9557565b63105aa7fb60e31b5f5260045ffd5b604051631293efbb60e21b81523060048201529150602090829060249082905afa908115610502575f91614cda575b505f614c8e565b614cf3915060203d6020116112d2576112c0818361347b565b5f614cd3565b7f00000000000000000000000000000000000000000000000000000000000000006001600160a01b031680614d2f575b50505050565b803b15610423575f9283614d7293614d8a60405197889687958694630303c28760e61b865260018060a01b031660048601526080602486015260848501906113ba565b908460448501526003198483030160648501526113ba565b03925af1614d9b575b808080614d29565b80614da95f614daf9361347b565b80610419565b5f614d93565b907f00000000000000000000000000000000000000000000000000000000000000006001600160a01b03169081614dee575b5050505050565b813b15610423575f614e3193614e48829660405198899788968795630303c28760e61b875260018060a01b031660048701526080602487015260848601906113ba565b9160448501526003198483030160648501526113ba565b03925af1614e5a575b80808080614de7565b80614da95f614e689361347b565b5f614e51565b60ff600a5416614e7a57565b6357fa752160e01b5f5260045ffd5b60015f5403614e985760025f55565b60405162461bcd60e51b815260206004820152600a6024820152697265656e7472616e637960b01b6044820152606490fd5b60405163a9059cbb60e01b602082019081526001600160a01b03909316602482015260448101939093525f928392908390614f088160648101611edf565b51926001600160a01b03165af1614f1d613579565b81614f70575b5015614f2b57565b60405162461bcd60e51b815260206004820152601a60248201527f5361666545524332303a207472616e73666572206661696c65640000000000006044820152606490fd5b8051801592508215614f85575b50505f614f23565b614f989250602080918301019101613a6d565b5f80614f7d565b90614fa9826134cc565b614fb6604051918261347b565b828152809261365c601f19916134cc565b908151811015613692570160200190565b908115615069575f82805b61504e575082614ff282614f9f565b91905b614ffe57509150565b61500a6150479161392c565b9361503361502361501d600a840661377a565b60ff1690565b60f81b6001600160f81b03191690565b5f1a61503f8685614fc7565b53600a900490565b9283614ff5565b9061505b61506391613757565b91600a900490565b80614fe3565b905060405161507960408261347b565b60018152600360fc1b602082015290565b7f00000000000000000000000000000000000000000000000000000000000000006001600160a01b0316806150bd575050565b803b1561042357604051633ddd61ab60e21b815230600482015260606024820152915f9183918290849082906150f79060648301906113ba565b33604483015203925af16151085750565b806151145f809361347b565b8003126104235756fea26469706673582212207fb9fe61eca0c0e946b1996cd029f17eaea247904fe845077e5b2832a5e62ea164736f6c634300081e0033a2646970667358221220c309f7cd9448862203ded6e1df02e1f25a4fb22b6c75047f3341c22e36d9e2d564736f6c634300081e0033","linkReferences":{}},"methodIdentifiers":{"RECOVERY_APPROVALS_REQUIRED()":"3297992e","RECOVERY_DELAY()":"47b45652","acceptOwnership()":"79ba5097","approveForceRecovery(address,address)":"1a656881","cancelOwnershipTransfer()":"23452b9c","checkVaultStatus(address)":"06d7d6cf","dao()":"4162169f","ensureVault(address)":"e01fd215","finalizeForceRecovery(address)":"c5c82203","getVaultInfo(address)":"90229af7","initiateForceRecovery(address,address)":"6a240a9c","isRecoveryApprover(address)":"435c529b","isVault(address)":"652b9b41","ledger()":"56397c35","owner()":"8da5cb5b","ownerOfVault(address)":"2724fe09","pendingOwner()":"e30c3978","predictVault(address)":"27a4e1ab","predictVaultsBatch(address[])":"c93883a5","recoveryApprovalCount(address)":"419d7a83","recoveryApprovals(address,address)":"9f2b8b54","recoveryProposedOwner(address)":"9f9a6508","recoveryUnlockTime(address)":"f20ca7ed","securityHub()":"b72d2943","setDAO(address)":"e73a914c","setModules(address,address,address,address)":"b079fbff","setRecoveryApprover(address,bool)":"360ca958","setVFIDE(address)":"17fd7bf6","totalVaults()":"8d654023","transferOwnership(address)":"f2fde38b","vaultCreatedAt(address)":"fa3fd3bc","vaultOf(address)":"0709df45","vfideToken()":"b8a71eec"},"id":26}