{"abi":[{"type":"constructor","inputs":[{"name":"_ledger","type":"address","internalType":"address"},{"name":"_seer","type":"address","internalType":"address"},{"name":"_dao","type":"address","internalType":"address"}],"stateMutability":"nonpayable"},{"type":"function","name":"dao","inputs":[],"outputs":[{"name":"","type":"address","internalType":"address"}],"stateMutability":"view"},{"type":"function","name":"ledger","inputs":[],"outputs":[{"name":"","type":"address","internalType":"contract IProofLedger_GH"}],"stateMutability":"view"},{"type":"function","name":"onFinalized","inputs":[{"name":"id","type":"uint256","internalType":"uint256"},{"name":"passed","type":"bool","internalType":"bool"}],"outputs":[],"stateMutability":"nonpayable"},{"type":"function","name":"onProposalQueued","inputs":[{"name":"id","type":"uint256","internalType":"uint256"},{"name":"target","type":"address","internalType":"address"},{"name":"value","type":"uint256","internalType":"uint256"}],"outputs":[],"stateMutability":"nonpayable"},{"type":"function","name":"onVoteCast","inputs":[{"name":"id","type":"uint256","internalType":"uint256"},{"name":"voter","type":"address","internalType":"address"},{"name":"support","type":"bool","internalType":"bool"}],"outputs":[],"stateMutability":"nonpayable"},{"type":"function","name":"owner","inputs":[],"outputs":[{"name":"","type":"address","internalType":"address"}],"stateMutability":"view"},{"type":"function","name":"seer","inputs":[],"outputs":[{"name":"","type":"address","internalType":"contract ISeer_GH"}],"stateMutability":"view"},{"type":"function","name":"setDAO","inputs":[{"name":"_dao","type":"address","internalType":"address"}],"outputs":[],"stateMutability":"nonpayable"},{"type":"function","name":"setModules","inputs":[{"name":"_ledger","type":"address","internalType":"address"},{"name":"_seer","type":"address","internalType":"address"}],"outputs":[],"stateMutability":"nonpayable"},{"type":"function","name":"transferOwnership","inputs":[{"name":"newOwner","type":"address","internalType":"address"}],"outputs":[],"stateMutability":"nonpayable"},{"type":"event","name":"DAOSet","inputs":[{"name":"dao","type":"address","indexed":true,"internalType":"address"}],"anonymous":false},{"type":"event","name":"ModulesSet","inputs":[{"name":"ledger","type":"address","indexed":false,"internalType":"address"},{"name":"seer","type":"address","indexed":false,"internalType":"address"}],"anonymous":false},{"type":"event","name":"OwnershipTransferred","inputs":[{"name":"previousOwner","type":"address","indexed":true,"internalType":"address"},{"name":"newOwner","type":"address","indexed":true,"internalType":"address"}],"anonymous":false},{"type":"error","name":"GH_NotAuthorized","inputs":[]}],"bytecode":{"object":"0x60803461013457601f61074c38819003918201601f19168301916001600160401b0383118484101761013857808492606094604052833981010312610134577fe7836f4c1585572e73ac1ebd237c17348e5b453da767958b34b22bd170f6e52f604061006a8361014c565b926100828261007b6020840161014c565b920161014c565b5f80546001600160a01b031990811633179091556001805482166001600160a01b039384169081179091556002805483169784169788179055600380549092169390921692831790558251948552602085019190915292a1604051907f8aad84fcad50e723fa3bcf0fb32c5bea4c71078b77b9aedfa638f146f3a3f7b95f80a2335f7f8be0079c531659141344cd1fd0a4f28419497f9722a3daafe3b4186f6b6457e08180a36105eb90816101618239f35b5f80fd5b634e487b7160e01b5f52604160045260245ffd5b51906001600160a01b03821682036101345756fe6080806040526004361015610012575f80fd5b5f3560e01c9081632d55ea3914610466575080634162169f1461043e57806356397c3514610416578063717d8bc31461036f5780638da5cb5b14610348578063b6876dd6146102ce578063d74a5d0014610225578063e5b2f79b146101a1578063e73a914c1461012f5763f2fde38b1461008a575f80fd5b3461012b57602036600319011261012b576100a36104ae565b5f546001600160a01b038116916100bb3384146104fa565b6001600160a01b03169182156101005782907f8be0079c531659141344cd1fd0a4f28419497f9722a3daafe3b4186f6b6457e05f80a36001600160a01b031916175f55005b606460405162461bcd60e51b81526020600482015260046024820152637a65726f60e01b6044820152fd5b5f80fd5b3461012b57602036600319011261012b576101486104ae565b61015c60018060a01b035f541633146104fa565b600180546001600160a01b0319166001600160a01b039290921691821790557f8aad84fcad50e723fa3bcf0fb32c5bea4c71078b77b9aedfa638f146f3a3f7b95f80a2005b3461012b57606036600319011261012b576101ba610498565b506001546001600160a01b031633141580610211575b610202576102006040516101e56040826104c4565b600981526819da17dc5d595d595960ba1b6020820152610532565b005b63277ab60b60e11b5f5260045ffd5b505f546001600160a01b03163314156101d0565b3461012b57604036600319011261012b577fe7836f4c1585572e73ac1ebd237c17348e5b453da767958b34b22bd170f6e52f60406102616104ae565b610269610498565b9061027e60018060a01b035f541633146104fa565b60018060a01b031690816bffffffffffffffffffffffff60a01b600254161760025560018060a01b0316806bffffffffffffffffffffffff60a01b600354161760035582519182526020820152a1005b3461012b57606036600319011261012b576102e7610498565b506102f0610489565b506001546001600160a01b031633141580610334575b6102025761020060405161031b6040826104c4565b600781526667685f766f746560c81b6020820152610532565b505f546001600160a01b0316331415610306565b3461012b575f36600319011261012b575f546040516001600160a01b039091168152602090f35b3461012b57604036600319011261012b57602435801515810361012b576001546001600160a01b031633141580610402575b61020257156103d6576102006040516103bb6040826104c4565b600981526819da17dc185cdcd95960ba1b6020820152610532565b6102006040516103e76040826104c4565b600981526819da17d9985a5b195960ba1b6020820152610532565b505f546001600160a01b03163314156103a1565b3461012b575f36600319011261012b576002546040516001600160a01b039091168152602090f35b3461012b575f36600319011261012b576001546040516001600160a01b039091168152602090f35b3461012b575f36600319011261012b576003546001600160a01b03168152602090f35b60443590811515820361012b57565b602435906001600160a01b038216820361012b57565b600435906001600160a01b038216820361012b57565b90601f8019910116810190811067ffffffffffffffff8211176104e657604052565b634e487b7160e01b5f52604160045260245ffd5b1561050157565b60405162461bcd60e51b81526020600482015260096024820152683737ba1037bbb732b960b91b6044820152606490fd5b6002546001600160a01b031680610547575050565b803b1561012b5760205f9160849383604051958680958194633ddd61ab60e21b8352306004840152606060248401528051918291826064860152018484015e8181018301849052336044830152601f01601f191681010301925af16105a95750565b5f6105b3916104c4565b56fea2646970667358221220b31d724f7cf1ff752dc432809e2d78facd2a060c3e0c8a2bfa66da7bfa87dd7764736f6c634300081e0033","linkReferences":{}},"methodIdentifiers":{"dao()":"4162169f","ledger()":"56397c35","onFinalized(uint256,bool)":"717d8bc3","onProposalQueued(uint256,address,uint256)":"e5b2f79b","onVoteCast(uint256,address,bool)":"b6876dd6","owner()":"8da5cb5b","seer()":"2d55ea39","setDAO(address)":"e73a914c","setModules(address,address)":"d74a5d00","transferOwnership(address)":"f2fde38b"},"id":8}