{"abi":[{"type":"constructor","inputs":[{"name":"_ledger","type":"address","internalType":"address"},{"name":"_seer","type":"address","internalType":"address"},{"name":"_dao","type":"address","internalType":"address"}],"stateMutability":"nonpayable"},{"type":"function","name":"dao","inputs":[],"outputs":[{"name":"","type":"address","internalType":"address"}],"stateMutability":"view"},{"type":"function","name":"guardian","inputs":[],"outputs":[{"name":"","type":"address","internalType":"contract ISeerGuardian_GH"}],"stateMutability":"view"},{"type":"function","name":"ledger","inputs":[],"outputs":[{"name":"","type":"address","internalType":"contract IProofLedger_GH"}],"stateMutability":"view"},{"type":"function","name":"onFinalized","inputs":[{"name":"id","type":"uint256","internalType":"uint256"},{"name":"passed","type":"bool","internalType":"bool"}],"outputs":[],"stateMutability":"nonpayable"},{"type":"function","name":"onProposalCreated","inputs":[{"name":"id","type":"uint256","internalType":"uint256"},{"name":"proposer","type":"address","internalType":"address"}],"outputs":[],"stateMutability":"nonpayable"},{"type":"function","name":"onProposalQueued","inputs":[{"name":"id","type":"uint256","internalType":"uint256"},{"name":"target","type":"address","internalType":"address"},{"name":"value","type":"uint256","internalType":"uint256"}],"outputs":[],"stateMutability":"nonpayable"},{"type":"function","name":"onVoteCast","inputs":[{"name":"id","type":"uint256","internalType":"uint256"},{"name":"voter","type":"address","internalType":"address"},{"name":"support","type":"bool","internalType":"bool"}],"outputs":[],"stateMutability":"nonpayable"},{"type":"function","name":"owner","inputs":[],"outputs":[{"name":"","type":"address","internalType":"address"}],"stateMutability":"view"},{"type":"function","name":"reportGovernanceAbuse","inputs":[{"name":"user","type":"address","internalType":"address"},{"name":"description","type":"string","internalType":"string"}],"outputs":[],"stateMutability":"nonpayable"},{"type":"function","name":"seer","inputs":[],"outputs":[{"name":"","type":"address","internalType":"contract ISeer_GH"}],"stateMutability":"view"},{"type":"function","name":"setDAO","inputs":[{"name":"_dao","type":"address","internalType":"address"}],"outputs":[],"stateMutability":"nonpayable"},{"type":"function","name":"setModules","inputs":[{"name":"_ledger","type":"address","internalType":"address"},{"name":"_seer","type":"address","internalType":"address"},{"name":"_guardian","type":"address","internalType":"address"}],"outputs":[],"stateMutability":"nonpayable"},{"type":"function","name":"transferOwnership","inputs":[{"name":"newOwner","type":"address","internalType":"address"}],"outputs":[],"stateMutability":"nonpayable"},{"type":"event","name":"DAOSet","inputs":[{"name":"dao","type":"address","indexed":true,"internalType":"address"}],"anonymous":false},{"type":"event","name":"GovernanceViolation","inputs":[{"name":"user","type":"address","indexed":true,"internalType":"address"},{"name":"violation","type":"string","indexed":false,"internalType":"string"}],"anonymous":false},{"type":"event","name":"ModulesSet","inputs":[{"name":"ledger","type":"address","indexed":false,"internalType":"address"},{"name":"seer","type":"address","indexed":false,"internalType":"address"},{"name":"guardian","type":"address","indexed":false,"internalType":"address"}],"anonymous":false},{"type":"event","name":"OwnershipTransferred","inputs":[{"name":"previousOwner","type":"address","indexed":true,"internalType":"address"},{"name":"newOwner","type":"address","indexed":true,"internalType":"address"}],"anonymous":false},{"type":"event","name":"ProposalAutoChecked","inputs":[{"name":"proposalId","type":"uint256","indexed":true,"internalType":"uint256"},{"name":"proposer","type":"address","indexed":true,"internalType":"address"},{"name":"flagged","type":"bool","indexed":false,"internalType":"bool"}],"anonymous":false},{"type":"event","name":"VoterRestricted","inputs":[{"name":"voter","type":"address","indexed":true,"internalType":"address"},{"name":"reason","type":"string","indexed":false,"internalType":"string"}],"anonymous":false},{"type":"error","name":"GH_NotAuthorized","inputs":[]},{"type":"error","name":"GH_ProposalBlocked","inputs":[{"name":"reason","type":"string","internalType":"string"}]},{"type":"error","name":"GH_VoterRestricted","inputs":[]}],"bytecode":{"object":"0x60803461013d57601f610e3638819003918201601f19168301916001600160401b038311848410176101415780849260609460405283398101031261013d577f4ae14344aaed3962a7f6c6977dc689bd5108ebb211a205507f01ae2a95148ce9606061006a83610155565b92610083604061007c60208401610155565b9201610155565b5f80546001600160a01b0319908116331782556001805482166001600160a01b039485169081179091556002805483169885169889179055600380549092169490931693841790556040805196875260208701939093529185019190915292a1604051907f8aad84fcad50e723fa3bcf0fb32c5bea4c71078b77b9aedfa638f146f3a3f7b95f80a2335f7f8be0079c531659141344cd1fd0a4f28419497f9722a3daafe3b4186f6b6457e08180a3610ccc908161016a8239f35b5f80fd5b634e487b7160e01b5f52604160045260245ffd5b51906001600160a01b038216820361013d5756fe60806040526004361015610011575f80fd5b5f5f3560e01c8063298d1677146109d45780632d55ea39146109ab5780634162169f14610982578063452a9320146109595780634db931831461075257806356397c3514610729578063717d8bc31461066b5780638da5cb5b14610644578063a8336a061461057f578063b6876dd61461037c578063e5b2f79b146101c2578063e73a914c1461014e5763f2fde38b146100a9575f80fd5b3461014b57602036600319011261014b576100c2610b25565b81546001600160a01b038116916100da338414610ba1565b6001600160a01b03169182156101205782907f8be0079c531659141344cd1fd0a4f28419497f9722a3daafe3b4186f6b6457e08580a36001600160a01b03191617815580f35b606460405162461bcd60e51b81526020600482015260046024820152637a65726f60e01b6044820152fd5b80fd5b503461014b57602036600319011261014b57610168610b25565b61017c60018060a01b038354163314610ba1565b600180546001600160a01b0319166001600160a01b039290921691821790557f8aad84fcad50e723fa3bcf0fb32c5bea4c71078b77b9aedfa638f146f3a3f7b98280a280f35b503461014b57606036600319011261014b576101dc610b0f565b506001546001600160a01b031633141580610368575b61035957604061022281516102078382610b4a565b600981526819da17dc5d595d595960ba1b6020820152610c0a565b6004546001600160a01b03169082826102385780f35b60249282519384809263e0df05b960e01b825260043560048301525afa91821561034f5783908493610296575b5061026e578280f35b51631aa5f4e760e11b81526020600482015291508190610292906024830190610be6565b0390fd5b9250503d8084843e6102a88184610b4a565b820191818184031261034b576102bd81610bd9565b602082015190916001600160401b038211610347570183601f820112156103435780516001600160401b03811161032f5783519486929190610309601f8301601f191660200188610b4a565b8187526020828401011161032b578060208093018388015e850101525f610265565b8280fd5b634e487b7160e01b86526041600452602486fd5b8480fd5b8580fd5b8380fd5b81513d85823e3d90fd5b63277ab60b60e11b8152600490fd5b5080546001600160a01b03163314156101f2565b503461014b57606036600319011261014b57610396610b0f565b9061039f610b3b565b506001546001600160a01b03163314158061056b575b6103595760406103e381516103ca8382610b4a565b600781526667685f766f746560c81b6020820152610c0a565b6004546001600160a01b0316928361048c575b60035492935083926001600160a01b03168061041157505050f35b803b15610487579151630eccbd3560e11b81526001600160a01b0390911660048201526005602482015260606044820152600f60648201526e676f7665726e616e63655f766f746560881b6084820152908290829060a490829084905af16104765750f35b8161048091610b4a565b61014b5780f35b505050fd5b8151633dbacb8f60e01b81526001600160a01b0382166004820181905294602090829060249082905afa90811561055e578491610524575b506103f65750917f24ba9de3d69c3166649d798ea60f8b5f30cbf19a6af11ff9f63ec6b3a32256da6060847019dbdd995c9b985b98d957d8985b9b9959607a1b60049651916020835260116020840152820152a2630fcb49f760e11b8152fd5b90506020813d602011610556575b8161053f60209383610b4a565b8101031261034b5761055090610bd9565b5f6104c4565b3d9150610532565b50505051903d90823e3d90fd5b5080546001600160a01b03163314156103b5565b503461014b57606036600319011261014b57610599610b25565b6105a1610b0f565b6044356001600160a01b03811692919083900361034b577f4ae14344aaed3962a7f6c6977dc689bd5108ebb211a205507f01ae2a95148ce9926060926105f160018060a01b038754163314610ba1565b600280546001600160a01b039283166001600160a01b031991821681179092556003805495909316948116851790925560048054909216831790915560408051918252602082019390935291820152a180f35b503461014b578060031936011261014b57546040516001600160a01b039091168152602090f35b503461014b57604036600319011261014b576024358015158103610725576001546001600160a01b031633141580610711575b61070257156106d6576106d36040516106b8604082610b4a565b600981526819da17dc185cdcd95960ba1b6020820152610c0a565b80f35b6106d36040516106e7604082610b4a565b600981526819da17d9985a5b195960ba1b6020820152610c0a565b63277ab60b60e11b8252600482fd5b5081546001600160a01b031633141561069e565b5080fd5b503461014b578060031936011261014b576002546040516001600160a01b039091168152602090f35b503461014b57604036600319011261014b5761076c610b25565b906024356001600160401b0381116107255736602382011215610725576004810135906001600160401b03821161032b576024810190602483369201011161032b576001546001600160a01b031633141580610945575b61093657829360018060a01b031690817fe9bfd24579726634ab67564c68800e0745829235c1f8ea8497b20b73812e4ef4604051602081528061080a602082018887610b81565b0390a26004546001600160a01b0316806108d4575b506003546001600160a01b03168061086f575b846106d3604051610844604082610b4a565b601981527819dbdd995c9b985b98d957d8589d5cd957dc995c1bdc9d1959603a1b6020820152610c0a565b803b15610343576108ae938580946040519687958694859363031879a760e21b8552600485015260326024850152606060448501526064840191610b81565b03925af16108bf575b808080610832565b816108c991610b4a565b61014b57805f6108b7565b803b15610343578490816040518092631bf2f4a360e31b82528660048301526005602483015260606044830152818381610912606482018c8b610b81565b03925af1610921575b5061081f565b8161092b91610b4a565b61048757835f61091b565b63277ab60b60e11b8352600483fd5b5082546001600160a01b03163314156107c3565b503461014b578060031936011261014b576004546040516001600160a01b039091168152602090f35b503461014b578060031936011261014b576001546040516001600160a01b039091168152602090f35b503461014b578060031936011261014b576003546040516001600160a01b039091168152602090f35b5034610ae8576040366003190112610ae8576004356109f1610b0f565b9060018060a01b036001541633141580610afb575b610aec576040610a408151610a1b8382610b4a565b601381527219da17dc1c9bdc1bdcd85b17d8dc99585d1959606a1b6020820152610c0a565b6004546001600160a01b03169283610a56578480f35b833b15610ae8575f8091604484518094819363e148e51360e01b835288600484015260018060a01b0316988960248401525af19081610ac0575b505f516020610c775f395f51905f5291602091610ab55751858152a35b5f8080808480f35b5160018152a3610aad565b602091955091610ade5f5f516020610c775f395f51905f5294610b4a565b5f95915091610a90565b5f80fd5b63277ab60b60e11b5f5260045ffd5b505f546001600160a01b0316331415610a06565b602435906001600160a01b0382168203610ae857565b600435906001600160a01b0382168203610ae857565b604435908115158203610ae857565b601f909101601f19168101906001600160401b03821190821017610b6d57604052565b634e487b7160e01b5f52604160045260245ffd5b908060209392818452848401375f828201840152601f01601f1916010190565b15610ba857565b60405162461bcd60e51b81526020600482015260096024820152683737ba1037bbb732b960b91b6044820152606490fd5b51908115158203610ae857565b805180835260209291819084018484015e5f828201840152601f01601f1916010190565b6002546001600160a01b031680610c1f575050565b803b15610ae857604051633ddd61ab60e21b815230600482015260606024820152915f918391829084908290610c59906064830190610be6565b33604483015203925af1610c6a5750565b5f610c7491610b4a565b56fea7cb32669c48ba563dea178463d240a891f8be3b2e544919691df2b2cf0c0686a2646970667358221220e59da78d11bd94d65f1ec06c74196d942f1068d2ad639b3f9b6f140ea99dd77764736f6c634300081e0033","linkReferences":{}},"methodIdentifiers":{"dao()":"4162169f","guardian()":"452a9320","ledger()":"56397c35","onFinalized(uint256,bool)":"717d8bc3","onProposalCreated(uint256,address)":"298d1677","onProposalQueued(uint256,address,uint256)":"e5b2f79b","onVoteCast(uint256,address,bool)":"b6876dd6","owner()":"8da5cb5b","reportGovernanceAbuse(address,string)":"4db93183","seer()":"2d55ea39","setDAO(address)":"e73a914c","setModules(address,address,address)":"a8336a06","transferOwnership(address)":"f2fde38b"},"id":6}