{"abi":[{"type":"function","name":"allowance","inputs":[{"name":"","type":"address","internalType":"address"},{"name":"","type":"address","internalType":"address"}],"outputs":[{"name":"","type":"uint256","internalType":"uint256"}],"stateMutability":"view"},{"type":"function","name":"approve","inputs":[{"name":"spender","type":"address","internalType":"address"},{"name":"value","type":"uint256","internalType":"uint256"}],"outputs":[{"name":"","type":"bool","internalType":"bool"}],"stateMutability":"nonpayable"},{"type":"function","name":"balanceOf","inputs":[{"name":"","type":"address","internalType":"address"}],"outputs":[{"name":"","type":"uint256","internalType":"uint256"}],"stateMutability":"view"},{"type":"function","name":"decimals","inputs":[],"outputs":[{"name":"","type":"uint8","internalType":"uint8"}],"stateMutability":"view"},{"type":"function","name":"mint","inputs":[{"name":"to","type":"address","internalType":"address"},{"name":"amount","type":"uint256","internalType":"uint256"}],"outputs":[],"stateMutability":"nonpayable"},{"type":"function","name":"name","inputs":[],"outputs":[{"name":"","type":"string","internalType":"string"}],"stateMutability":"view"},{"type":"function","name":"symbol","inputs":[],"outputs":[{"name":"","type":"string","internalType":"string"}],"stateMutability":"view"},{"type":"function","name":"transfer","inputs":[{"name":"","type":"address","internalType":"address"},{"name":"","type":"uint256","internalType":"uint256"}],"outputs":[{"name":"","type":"bool","internalType":"bool"}],"stateMutability":"pure"},{"type":"function","name":"transferFrom","inputs":[{"name":"","type":"address","internalType":"address"},{"name":"","type":"address","internalType":"address"},{"name":"","type":"uint256","internalType":"uint256"}],"outputs":[{"name":"","type":"bool","internalType":"bool"}],"stateMutability":"pure"},{"type":"event","name":"Approval","inputs":[{"name":"owner","type":"address","indexed":true,"internalType":"address"},{"name":"spender","type":"address","indexed":true,"internalType":"address"},{"name":"value","type":"uint256","indexed":false,"internalType":"uint256"}],"anonymous":false},{"type":"event","name":"Transfer","inputs":[{"name":"from","type":"address","indexed":true,"internalType":"address"},{"name":"to","type":"address","indexed":true,"internalType":"address"},{"name":"value","type":"uint256","indexed":false,"internalType":"uint256"}],"anonymous":false}],"bytecode":{"object":"0x60806040523461010d576100135f54610111565b601f81116100c6575b507f4661696c5472616e7366657200000000000000000000000000000000000000185f5560015461004c90610111565b601f811161007e575b600662232a2360e91b016001556002805460ff191660121790556040516104e7908161014a8239f35b60015f52601f0160051c7fb10e2d527612073b26eecdfd717e6a320cf44b4afac2b0732d9fcbe2b7fa0cf6908101905b8181106100bb5750610055565b5f81556001016100ae565b5f8052601f0160051c7f290decd9548b62a8d60345a988386fc84ba6bc95484008f6362f93160ef3e563908101905b818110610102575061001c565b5f81556001016100f5565b5f80fd5b90600182811c9216801561013f575b602083101461012b57565b634e487b7160e01b5f52602260045260245ffd5b91607f169161012056fe60806040526004361015610011575f80fd5b5f3560e01c806306fdde0314610389578063095ea7b31461031057806323b872dd146102ee578063313ce567146102ce57806340c10f191461024a57806370a082311461021257806395d89b41146100f4578063a9059cbb146100d05763dd62ed3e1461007c575f80fd5b346100cc5760403660031901126100cc57610095610485565b61009d61049b565b6001600160a01b039182165f908152600460209081526040808320949093168252928352819020549051908152f35b5f80fd5b346100cc5760403660031901126100cc576100e9610485565b5060206040515f8152f35b346100cc575f3660031901126100cc576040515f6001548060011c90600181168015610208575b6020831081146101f4578285529081156101d85750600114610182575b50819003601f01601f191681019067ffffffffffffffff82118183101761016e576040829052819061016a908261045b565b0390f35b634e487b7160e01b5f52604160045260245ffd5b60015f9081529091507fb10e2d527612073b26eecdfd717e6a320cf44b4afac2b0732d9fcbe2b7fa0cf65b8282106101c257506020915082010182610138565b60018160209254838588010152019101906101ad565b90506020925060ff191682840152151560051b82010182610138565b634e487b7160e01b5f52602260045260245ffd5b91607f169161011b565b346100cc5760203660031901126100cc576001600160a01b03610233610485565b165f526003602052602060405f2054604051908152f35b346100cc5760403660031901126100cc57610263610485565b6001600160a01b03165f8181526003602052604090208054602435918183019182106102ba575f927fddf252ad1be2c89b69c2b068fc378daa952ba7f163c4a11628f55a4df523b3ef9260209255604051908152a3005b634e487b7160e01b5f52601160045260245ffd5b346100cc575f3660031901126100cc57602060ff60025416604051908152f35b346100cc5760603660031901126100cc57610307610485565b506100e961049b565b346100cc5760403660031901126100cc57610329610485565b335f8181526004602090815260408083206001600160a01b03909516808452948252918290206024359081905591519182527f8c5be1e5ebec7d5bd14f71427d1e84f3dd0314c0f7b2291e5b200ac8c7c3b92591a3602060405160018152f35b346100cc575f3660031901126100cc576040515f5f548060011c90600181168015610451575b6020831081146101f4578285529081156101d857506001146103fd5750819003601f01601f191681019067ffffffffffffffff82118183101761016e576040829052819061016a908261045b565b5f8080529091507f290decd9548b62a8d60345a988386fc84ba6bc95484008f6362f93160ef3e5635b82821061043b57506020915082010182610138565b6001816020925483858801015201910190610426565b91607f16916103af565b602060409281835280519182918282860152018484015e5f828201840152601f01601f1916010190565b600435906001600160a01b03821682036100cc57565b602435906001600160a01b03821682036100cc5756fea2646970667358221220e88fa58c7d231be68f148748a17b6ff697e9d585bf5ed5dbabd46536ecbc6c4964736f6c634300081e0033","linkReferences":{}},"methodIdentifiers":{"allowance(address,address)":"dd62ed3e","approve(address,uint256)":"095ea7b3","balanceOf(address)":"70a08231","decimals()":"313ce567","mint(address,uint256)":"40c10f19","name()":"06fdde03","symbol()":"95d89b41","transfer(address,uint256)":"a9059cbb","transferFrom(address,address,uint256)":"23b872dd"},"id":70}