{
  "_format": "hh-sol-artifact-1",
  "contractName": "SanctumFund",
  "sourceName": "contracts/SanctumFund.sol",
  "abi": [
    {
      "inputs": [
        {
          "internalType": "address",
          "name": "token_",
          "type": "address"
        },
        {
          "internalType": "address",
          "name": "initialOwner",
          "type": "address"
        }
      ],
      "stateMutability": "nonpayable",
      "type": "constructor"
    },
    {
      "inputs": [],
      "name": "NotApprovedRecipient",
      "type": "error"
    },
    {
      "inputs": [
        {
          "internalType": "string",
          "name": "reason",
          "type": "string"
        }
      ],
      "name": "RiskRejected",
      "type": "error"
    },
    {
      "inputs": [],
      "name": "ZeroAddress",
      "type": "error"
    },
    {
      "anonymous": false,
      "inputs": [
        {
          "indexed": true,
          "internalType": "address",
          "name": "toVault",
          "type": "address"
        },
        {
          "indexed": true,
          "internalType": "address",
          "name": "toUser",
          "type": "address"
        },
        {
          "indexed": false,
          "internalType": "uint256",
          "name": "amount",
          "type": "uint256"
        },
        {
          "indexed": false,
          "internalType": "string",
          "name": "memo",
          "type": "string"
        }
      ],
      "name": "CharityDisbursement",
      "type": "event"
    },
    {
      "anonymous": false,
      "inputs": [
        {
          "indexed": true,
          "internalType": "address",
          "name": "dao",
          "type": "address"
        }
      ],
      "name": "DAOUpdated",
      "type": "event"
    },
    {
      "anonymous": false,
      "inputs": [
        {
          "indexed": true,
          "internalType": "address",
          "name": "factory",
          "type": "address"
        }
      ],
      "name": "FactorySet",
      "type": "event"
    },
    {
      "anonymous": false,
      "inputs": [
        {
          "indexed": true,
          "internalType": "address",
          "name": "previousOwner",
          "type": "address"
        },
        {
          "indexed": true,
          "internalType": "address",
          "name": "newOwner",
          "type": "address"
        }
      ],
      "name": "OwnershipTransferStarted",
      "type": "event"
    },
    {
      "anonymous": false,
      "inputs": [
        {
          "indexed": true,
          "internalType": "address",
          "name": "previousOwner",
          "type": "address"
        },
        {
          "indexed": true,
          "internalType": "address",
          "name": "newOwner",
          "type": "address"
        }
      ],
      "name": "OwnershipTransferred",
      "type": "event"
    },
    {
      "anonymous": false,
      "inputs": [
        {
          "indexed": true,
          "internalType": "address",
          "name": "proof",
          "type": "address"
        }
      ],
      "name": "ProofSinkUpdated",
      "type": "event"
    },
    {
      "anonymous": false,
      "inputs": [
        {
          "indexed": true,
          "internalType": "address",
          "name": "recipient",
          "type": "address"
        },
        {
          "indexed": false,
          "internalType": "bool",
          "name": "approved",
          "type": "bool"
        }
      ],
      "name": "RecipientApproved",
      "type": "event"
    },
    {
      "anonymous": false,
      "inputs": [
        {
          "indexed": false,
          "internalType": "address[]",
          "name": "recipients",
          "type": "address[]"
        },
        {
          "indexed": false,
          "internalType": "bool",
          "name": "approved",
          "type": "bool"
        }
      ],
      "name": "RecipientsApproved",
      "type": "event"
    },
    {
      "anonymous": false,
      "inputs": [
        {
          "indexed": true,
          "internalType": "address",
          "name": "vault",
          "type": "address"
        },
        {
          "indexed": false,
          "internalType": "bool",
          "name": "exempt",
          "type": "bool"
        }
      ],
      "name": "RiskExemptVaultSet",
      "type": "event"
    },
    {
      "anonymous": false,
      "inputs": [
        {
          "indexed": false,
          "internalType": "bool",
          "name": "enabled",
          "type": "bool"
        }
      ],
      "name": "RiskGateToggled",
      "type": "event"
    },
    {
      "anonymous": false,
      "inputs": [
        {
          "indexed": false,
          "internalType": "bool",
          "name": "blockIfBlocked",
          "type": "bool"
        },
        {
          "indexed": false,
          "internalType": "uint16",
          "name": "minReceiverScore",
          "type": "uint16"
        }
      ],
      "name": "RiskParamsUpdated",
      "type": "event"
    },
    {
      "anonymous": false,
      "inputs": [
        {
          "indexed": true,
          "internalType": "address",
          "name": "seer",
          "type": "address"
        }
      ],
      "name": "SeerSet",
      "type": "event"
    },
    {
      "inputs": [],
      "name": "acceptOwnership",
      "outputs": [],
      "stateMutability": "nonpayable",
      "type": "function"
    },
    {
      "inputs": [
        {
          "internalType": "address",
          "name": "",
          "type": "address"
        }
      ],
      "name": "approvedRecipient",
      "outputs": [
        {
          "internalType": "bool",
          "name": "",
          "type": "bool"
        }
      ],
      "stateMutability": "view",
      "type": "function"
    },
    {
      "inputs": [],
      "name": "balance",
      "outputs": [
        {
          "internalType": "uint256",
          "name": "",
          "type": "uint256"
        }
      ],
      "stateMutability": "view",
      "type": "function"
    },
    {
      "inputs": [],
      "name": "blockIfBlocked",
      "outputs": [
        {
          "internalType": "bool",
          "name": "",
          "type": "bool"
        }
      ],
      "stateMutability": "view",
      "type": "function"
    },
    {
      "inputs": [],
      "name": "dao",
      "outputs": [
        {
          "internalType": "address",
          "name": "",
          "type": "address"
        }
      ],
      "stateMutability": "view",
      "type": "function"
    },
    {
      "inputs": [
        {
          "internalType": "address",
          "name": "toUser",
          "type": "address"
        },
        {
          "internalType": "uint256",
          "name": "amount",
          "type": "uint256"
        },
        {
          "internalType": "string",
          "name": "memo",
          "type": "string"
        }
      ],
      "name": "disburse",
      "outputs": [],
      "stateMutability": "nonpayable",
      "type": "function"
    },
    {
      "inputs": [],
      "name": "factory",
      "outputs": [
        {
          "internalType": "contract IVaultFactoryView",
          "name": "",
          "type": "address"
        }
      ],
      "stateMutability": "view",
      "type": "function"
    },
    {
      "inputs": [],
      "name": "minReceiverScore",
      "outputs": [
        {
          "internalType": "uint16",
          "name": "",
          "type": "uint16"
        }
      ],
      "stateMutability": "view",
      "type": "function"
    },
    {
      "inputs": [],
      "name": "owner",
      "outputs": [
        {
          "internalType": "address",
          "name": "",
          "type": "address"
        }
      ],
      "stateMutability": "view",
      "type": "function"
    },
    {
      "inputs": [],
      "name": "pendingOwner",
      "outputs": [
        {
          "internalType": "address",
          "name": "",
          "type": "address"
        }
      ],
      "stateMutability": "view",
      "type": "function"
    },
    {
      "inputs": [],
      "name": "proof",
      "outputs": [
        {
          "internalType": "contract IProofLedger",
          "name": "",
          "type": "address"
        }
      ],
      "stateMutability": "view",
      "type": "function"
    },
    {
      "inputs": [],
      "name": "renounceOwnership",
      "outputs": [],
      "stateMutability": "nonpayable",
      "type": "function"
    },
    {
      "inputs": [
        {
          "internalType": "address",
          "name": "",
          "type": "address"
        }
      ],
      "name": "riskExemptVault",
      "outputs": [
        {
          "internalType": "bool",
          "name": "",
          "type": "bool"
        }
      ],
      "stateMutability": "view",
      "type": "function"
    },
    {
      "inputs": [],
      "name": "riskGateEnabled",
      "outputs": [
        {
          "internalType": "bool",
          "name": "",
          "type": "bool"
        }
      ],
      "stateMutability": "view",
      "type": "function"
    },
    {
      "inputs": [],
      "name": "seer",
      "outputs": [
        {
          "internalType": "contract ISeerView",
          "name": "",
          "type": "address"
        }
      ],
      "stateMutability": "view",
      "type": "function"
    },
    {
      "inputs": [
        {
          "internalType": "address",
          "name": "recipient",
          "type": "address"
        },
        {
          "internalType": "bool",
          "name": "approved",
          "type": "bool"
        }
      ],
      "name": "setApprovedRecipient",
      "outputs": [],
      "stateMutability": "nonpayable",
      "type": "function"
    },
    {
      "inputs": [
        {
          "internalType": "address[]",
          "name": "recipients",
          "type": "address[]"
        },
        {
          "internalType": "bool",
          "name": "approved",
          "type": "bool"
        }
      ],
      "name": "setApprovedRecipients",
      "outputs": [],
      "stateMutability": "nonpayable",
      "type": "function"
    },
    {
      "inputs": [
        {
          "internalType": "address",
          "name": "dao_",
          "type": "address"
        }
      ],
      "name": "setDAO",
      "outputs": [],
      "stateMutability": "nonpayable",
      "type": "function"
    },
    {
      "inputs": [
        {
          "internalType": "address",
          "name": "factory_",
          "type": "address"
        }
      ],
      "name": "setFactory",
      "outputs": [],
      "stateMutability": "nonpayable",
      "type": "function"
    },
    {
      "inputs": [
        {
          "internalType": "address",
          "name": "proof_",
          "type": "address"
        }
      ],
      "name": "setProofSink",
      "outputs": [],
      "stateMutability": "nonpayable",
      "type": "function"
    },
    {
      "inputs": [
        {
          "internalType": "address",
          "name": "vault",
          "type": "address"
        },
        {
          "internalType": "bool",
          "name": "exempt",
          "type": "bool"
        }
      ],
      "name": "setRiskExemptVault",
      "outputs": [],
      "stateMutability": "nonpayable",
      "type": "function"
    },
    {
      "inputs": [
        {
          "internalType": "bool",
          "name": "blockIfBlocked_",
          "type": "bool"
        },
        {
          "internalType": "uint16",
          "name": "minReceiverScore_",
          "type": "uint16"
        }
      ],
      "name": "setRiskParams",
      "outputs": [],
      "stateMutability": "nonpayable",
      "type": "function"
    },
    {
      "inputs": [
        {
          "internalType": "address",
          "name": "seer_",
          "type": "address"
        }
      ],
      "name": "setSeer",
      "outputs": [],
      "stateMutability": "nonpayable",
      "type": "function"
    },
    {
      "inputs": [
        {
          "internalType": "bool",
          "name": "enabled",
          "type": "bool"
        }
      ],
      "name": "toggleRiskGate",
      "outputs": [],
      "stateMutability": "nonpayable",
      "type": "function"
    },
    {
      "inputs": [],
      "name": "token",
      "outputs": [
        {
          "internalType": "address",
          "name": "",
          "type": "address"
        }
      ],
      "stateMutability": "view",
      "type": "function"
    },
    {
      "inputs": [
        {
          "internalType": "address",
          "name": "newOwner",
          "type": "address"
        }
      ],
      "name": "transferOwnership",
      "outputs": [],
      "stateMutability": "nonpayable",
      "type": "function"
    }
  ],
  "bytecode": "0x60a0346100dd57601f61156138819003918201601f19168301916001600160401b038311848410176100e25780849260409485528339810103126100dd57610052602061004b836100f8565b92016100f8565b61005b3361010c565b60016002556008805463ffffffff191663012c01011790556001600160a01b0382161580156100cc575b6100bb576100959160805261010c565b6040516113ff908161016282396080518181816101500152818161063e0152610d000152f35b63d92e233d60e01b60005260046000fd5b506001600160a01b03811615610085565b600080fd5b634e487b7160e01b600052604160045260246000fd5b51906001600160a01b03821682036100dd57565b600180546001600160a01b0319908116909155600080546001600160a01b03938416928116831782559192909116907f8be0079c531659141344cd1fd0a4f28419497f9722a3daafe3b4186f6b6457e09080a356fe6080604052600436101561001257600080fd5b6000803560e01c80631ebb029e146111ea57806326d79ce514610b8b5780632a45693914610b025780632b9f39f614610ac35780632d55ea3914610a9a5780632d7c3e3c14610a775780634162169f14610a4e57806348ce2384146109bd5780635bb478081461092a5780635ffc7c6314610905578063715018a6146108a057806375d7217e146107dc57806379ba5097146107135780638da5cb5b146106ec5780639cbf1a05146106c6578063b69ef8a814610612578063c45a0155146105e9578063ca9257a514610477578063d7d0a094146103b5578063e071c1c014610322578063e30c3978146102f9578063e6128cb4146102ba578063e73a914c14610218578063f2fde38b146101ab578063faf924cf146101825763fc0c546a1461013b57600080fd5b3461017f578060031936011261017f576040517f00000000000000000000000000000000000000000000000000000000000000006001600160a01b03168152602090f35b80fd5b503461017f578060031936011261017f576005546040516001600160a01b039091168152602090f35b503461017f57602036600319011261017f576101c5611289565b6101cd611371565b600180546001600160a01b0319166001600160a01b0392831690811790915582549091167f38d16b8cac22d99fc7c124b9cd0de2d3fa1faef420bfe791d8c362d765e227008380a380f35b503461017f57602036600319011261017f57610232611289565b81546001600160a01b0316331480156102a6575b61024f906112c2565b6001600160a01b0316801561029757600680546001600160a01b031916821790557f395c0f5a57accc3f0c20646b402f0845c448f3e4ac4a2ec56a3eaf26d15bf79a8280a280f35b63d92e233d60e01b8252600482fd5b506006546001600160a01b03163314610246565b503461017f57602036600319011261017f5760209060ff906040906001600160a01b036102e5611289565b168152600984522054166040519015158152f35b503461017f578060031936011261017f576001546040516001600160a01b039091168152602090f35b503461017f57602036600319011261017f5761033c611289565b81546001600160a01b0316331480156103a1575b610359906112c2565b6001600160a01b0316801561029757600480546001600160a01b031916821790557fc33c1a95c902d772578a793cd3d42b7d0a418863633ff3be7853c55a4d95388a8280a280f35b506006546001600160a01b03163314610350565b503461017f57604036600319011261017f576103cf611289565b6103d76112a4565b9060018060a01b0383541633148015610463575b6103f4906112c2565b6001600160a01b03169081156104545760207fd97c575fbf73d29b227ba4a00e8072cfc43588a3263adb45d032c486485db9b0918385526007825261044881604087209060ff801983541691151516179055565b6040519015158152a280f35b63d92e233d60e01b8352600483fd5b506006546001600160a01b031633146103eb565b503461017f57604036600319011261017f576004359067ffffffffffffffff821161017f573660238301121561017f5781600401359067ffffffffffffffff821161017f573660248360051b8501011161017f576104d36112a4565b9260018060a01b03825416331480156105d5575b6104f0906112c2565b815b83811015610551576024600582901b830101356001600160a01b0381169081900361054d57908160019215610547578452600760205261054186604086209060ff801983541691151516179055565b016104f2565b50610541565b8380fd5b509092604051928060408501604086525260246060850193019085905b8082106105a7578315156020870152867f3aa8474449f719aeaac03dbf5aa30f8b3cae5ddc09b212c1208814d5323bc93787870388a180f35b90919384359060018060a01b0382168092036105d15760208160019382935201950192019061056e565b8780fd5b506006546001600160a01b031633146104e7565b503461017f578060031936011261017f576003546040516001600160a01b039091168152602090f35b503461017f578060031936011261017f576040516370a0823160e01b81523060048201526020816024817f00000000000000000000000000000000000000000000000000000000000000006001600160a01b03165afa9081156106bb578291610681575b602082604051908152f35b90506020813d6020116106b3575b8161069c60209383611300565b810103126106af57602091505138610676565b5080fd5b3d915061068f565b6040513d84823e3d90fd5b503461017f578060031936011261017f57602060ff60085460081c166040519015158152f35b503461017f578060031936011261017f57546040516001600160a01b039091168152602090f35b503461017f578060031936011261017f57600154336001600160a01b039091160361078557600180546001600160a01b0319908116909155815433918116821783556001600160a01b03167f8be0079c531659141344cd1fd0a4f28419497f9722a3daafe3b4186f6b6457e08380a380f35b60405162461bcd60e51b815260206004820152602960248201527f4f776e61626c6532537465703a2063616c6c6572206973206e6f7420746865206044820152683732bb9037bbb732b960b91b6064820152608490fd5b503461017f57604036600319011261017f576107f66112b3565b60243561ffff8116810361089c577f6770293283cc56501ff82918df293c8cfab0f48642950c4ac800c4c3e0ff86329160409160018060a01b0385541633148015610888575b610845906112c2565b61ff0063ffff00006008549260101b1692151560081b169063ffffff00191617178060085561ffff82519160ff8160081c161515835260101c166020820152a180f35b506006546001600160a01b0316331461083c565b8280fd5b503461017f578060031936011261017f576108b9611371565b600180546001600160a01b03199081169091558154908116825581906001600160a01b03167f8be0079c531659141344cd1fd0a4f28419497f9722a3daafe3b4186f6b6457e08280a380f35b503461017f578060031936011261017f57602061ffff60085460101c16604051908152f35b503461017f57602036600319011261017f57610944611289565b81546001600160a01b0316331480156109a9575b610961906112c2565b6001600160a01b0316801561029757600380546001600160a01b031916821790557f1edf3afd4ac789736e00d216cd88be164ddcef26a6eedcc30cdb0cb62f3741b18280a280f35b506006546001600160a01b03163314610958565b503461017f57602036600319011261017f576109d7611289565b81546001600160a01b031633148015610a3a575b6109f4906112c2565b600580546001600160a01b0319166001600160a01b039290921691821790557f2cfe962c4e6a6787d31e58765c620ee630d92ea94b78478c3614c2cad81204538280a280f35b506006546001600160a01b031633146109eb565b503461017f578060031936011261017f576006546040516001600160a01b039091168152602090f35b503461017f578060031936011261017f57602060ff600854166040519015158152f35b503461017f578060031936011261017f576004546040516001600160a01b039091168152602090f35b503461017f57602036600319011261017f5760209060ff906040906001600160a01b03610aee611289565b168152600784522054166040519015158152f35b503461017f57602036600319011261017f577f7797b8b57a768540a157b63d01a8d26d3219d317d79f104b1cfd8575eadd45e06020610b3f6112b3565b83546001600160a01b031633148015610b77575b610b5c906112c2565b151560ff196008541660ff821617600855604051908152a180f35b506006546001600160a01b03163314610b53565b503461017f57606036600319011261017f57610ba5611289565b60443560243567ffffffffffffffff821161054d573660238301121561054d5781600401359267ffffffffffffffff84116111e657602483019260248536920101116111e65760028054146111a1576002805584546001600160a01b03163314801561118d575b610c15906112c2565b6001600160a01b031691821561117e57811561114b576003546001600160a01b0316801561111657838652600760205260ff60408720541615611107579060208694939260246040518097819363e01fd21560e01b83528860048401525af19384156110fc5786946110b4575b5060035460405163652b9b4160e01b81526001600160a01b039586166004820181905295909160209183916024918391165afa908115610e8c578791611095575b501561105f5760085460ff811680611048575b610e97575b5060405163a9059cbb60e01b815260048101859052602481018390526020816044818a7f00000000000000000000000000000000000000000000000000000000000000006001600160a01b03165af1908115610e8c578791610e5d575b5015610e26578286947f8d601f1596ec05643c4c2432d5679a81a35c51d988509c471e58d002008536266040518581526040602082015280610d7e604082018b88611350565b0390a36005546001600160a01b03169485610d9d575b84600160025580f35b610dd590610dc7604051938492602084019688885260408501526060808501526080840191611350565b03601f198101835282611300565b519020833b1561089c5760648392836040519687948593631250d57560e31b8552600485015282602485015260448401525af1610e16575b81808080610d94565b610e1f91611300565b3881610e0d565b60405162461bcd60e51b815260206004820152600f60248201526e1d1c985b9cd9995c8819985a5b1959608a1b6044820152606490fd5b610e7f915060203d602011610e85575b610e778183611300565b810190611338565b38610d38565b503d610e6d565b6040513d89823e3d90fd5b6004546001600160a01b03169081156110165760ff8160081c1680610fba575b610f815760206024926040519384809263776f384360e01b82528960048301525afa918215610f76578892610f35575b5061ffff809160101c16911610610efe5738610cdb565b60405163d280005760e01b815260206004820152600e60248201526d72656365697665722073636f726560901b6044820152606490fd5b9091506020813d602011610f6e575b81610f5160209383611300565b810103126105d1575161ffff811681036105d1579061ffff610ee7565b3d9150610f44565b6040513d8a823e3d90fd5b60405163d280005760e01b815260206004820152601060248201526f1c9958d95a5d995c88189b1bd8dad95960821b6044820152606490fd5b5060405163fbac395160e01b815260048101869052602081602481865afa90811561100b578991610fec575b50610eb7565b611005915060203d602011610e8557610e778183611300565b38610fe6565b6040513d8b823e3d90fd5b60405162461bcd60e51b815260206004820152600a6024820152691cd9595c881d5b9cd95d60b21b6044820152606490fd5b50848752600960205260ff60408820541615610cd6565b60405162461bcd60e51b815260206004820152600e60248201526d19195cdd081b9bdd081d985d5b1d60921b6044820152606490fd5b6110ae915060203d602011610e8557610e778183611300565b38610cc3565b9093506020813d6020116110f4575b816110d060209383611300565b810103126110f057516001600160a01b03811681036110f0579238610c82565b8580fd5b3d91506110c3565b6040513d88823e3d90fd5b632f3f9c1760e01b8652600486fd5b60405162461bcd60e51b815260206004820152600d60248201526c199858dd1bdc9e481d5b9cd95d609a1b6044820152606490fd5b60405162461bcd60e51b815260206004820152600b60248201526a1e995c9bc8185b5bdd5b9d60aa1b6044820152606490fd5b63d92e233d60e01b8552600485fd5b506006546001600160a01b03163314610c0c565b60405162461bcd60e51b815260206004820152601f60248201527f5265656e7472616e637947756172643a207265656e7472616e742063616c6c006044820152606490fd5b8480fd5b503461017f57604036600319011261017f57611204611289565b7fbc09a6e4bb005d6bdeb0a9ba198f7e7b85a48842ec304a89a921b5296f5a5ece602061122f6112a4565b9260018060a01b0385541633148015611275575b61124c906112c2565b6001600160a01b03168085526009825260408520805460ff191660ff8615151617905592610448565b506006546001600160a01b03163314611243565b600435906001600160a01b038216820361129f57565b600080fd5b60243590811515820361129f57565b60043590811515820361129f57565b156112c957565b60405162461bcd60e51b815260206004820152600f60248201526e29a0a721aa2aa69d3737ba16b3b7bb60891b6044820152606490fd5b90601f8019910116810190811067ffffffffffffffff82111761132257604052565b634e487b7160e01b600052604160045260246000fd5b9081602091031261129f5751801515810361129f5790565b908060209392818452848401376000828201840152601f01601f1916010190565b6000546001600160a01b0316330361138557565b606460405162461bcd60e51b815260206004820152602060248201527f4f776e61626c653a2063616c6c6572206973206e6f7420746865206f776e65726044820152fdfea2646970667358221220c6705065731e7105cd3034b5f86215e8d69a7947e9f4513a6045ac14e1f4dbd964736f6c634300081e0033",
  "linkReferences": {},
  "deployedLinkReferences": {}
}