{
  "_format": "hh-sol-artifact-1",
  "contractName": "VFIDEStaking",
  "sourceName": "contracts/VFIDEStaking.sol",
  "abi": [
    {
      "inputs": [
        {
          "internalType": "address",
          "name": "vfide_",
          "type": "address"
        },
        {
          "internalType": "address",
          "name": "ecoTreasury_",
          "type": "address"
        },
        {
          "internalType": "address",
          "name": "proof_",
          "type": "address"
        },
        {
          "internalType": "address",
          "name": "factory_",
          "type": "address"
        }
      ],
      "stateMutability": "nonpayable",
      "type": "constructor"
    },
    {
      "inputs": [],
      "name": "BadBounds",
      "type": "error"
    },
    {
      "inputs": [],
      "name": "CapExceeded",
      "type": "error"
    },
    {
      "inputs": [],
      "name": "ZeroAddress",
      "type": "error"
    },
    {
      "inputs": [],
      "name": "ZeroAmount",
      "type": "error"
    },
    {
      "anonymous": false,
      "inputs": [
        {
          "indexed": false,
          "internalType": "address",
          "name": "eco",
          "type": "address"
        }
      ],
      "name": "EcoTreasurySet",
      "type": "event"
    },
    {
      "anonymous": false,
      "inputs": [
        {
          "indexed": false,
          "internalType": "address",
          "name": "factory",
          "type": "address"
        }
      ],
      "name": "FactorySet",
      "type": "event"
    },
    {
      "anonymous": false,
      "inputs": [
        {
          "indexed": false,
          "internalType": "uint256",
          "name": "amount",
          "type": "uint256"
        },
        {
          "indexed": false,
          "internalType": "uint64",
          "name": "duration",
          "type": "uint64"
        },
        {
          "indexed": false,
          "internalType": "uint256",
          "name": "newRate",
          "type": "uint256"
        },
        {
          "indexed": false,
          "internalType": "uint64",
          "name": "finish",
          "type": "uint64"
        }
      ],
      "name": "Funded",
      "type": "event"
    },
    {
      "anonymous": false,
      "inputs": [
        {
          "indexed": false,
          "internalType": "uint256",
          "name": "cap",
          "type": "uint256"
        }
      ],
      "name": "MaxStakePerAddressSet",
      "type": "event"
    },
    {
      "anonymous": false,
      "inputs": [
        {
          "indexed": false,
          "internalType": "uint16",
          "name": "minBps",
          "type": "uint16"
        },
        {
          "indexed": false,
          "internalType": "uint16",
          "name": "maxBps",
          "type": "uint16"
        }
      ],
      "name": "MultiplierBoundsSet",
      "type": "event"
    },
    {
      "anonymous": false,
      "inputs": [
        {
          "indexed": true,
          "internalType": "address",
          "name": "previousOwner",
          "type": "address"
        },
        {
          "indexed": true,
          "internalType": "address",
          "name": "newOwner",
          "type": "address"
        }
      ],
      "name": "OwnershipTransferStarted",
      "type": "event"
    },
    {
      "anonymous": false,
      "inputs": [
        {
          "indexed": true,
          "internalType": "address",
          "name": "previousOwner",
          "type": "address"
        },
        {
          "indexed": true,
          "internalType": "address",
          "name": "newOwner",
          "type": "address"
        }
      ],
      "name": "OwnershipTransferred",
      "type": "event"
    },
    {
      "anonymous": false,
      "inputs": [
        {
          "indexed": false,
          "internalType": "address",
          "name": "proof",
          "type": "address"
        }
      ],
      "name": "ProofLedgerSet",
      "type": "event"
    },
    {
      "anonymous": false,
      "inputs": [
        {
          "indexed": true,
          "internalType": "address",
          "name": "user",
          "type": "address"
        },
        {
          "indexed": true,
          "internalType": "address",
          "name": "vault",
          "type": "address"
        },
        {
          "indexed": false,
          "internalType": "uint256",
          "name": "reward",
          "type": "uint256"
        }
      ],
      "name": "RewardPaid",
      "type": "event"
    },
    {
      "anonymous": false,
      "inputs": [
        {
          "indexed": true,
          "internalType": "address",
          "name": "user",
          "type": "address"
        },
        {
          "indexed": true,
          "internalType": "address",
          "name": "vault",
          "type": "address"
        },
        {
          "indexed": false,
          "internalType": "uint256",
          "name": "amount",
          "type": "uint256"
        }
      ],
      "name": "Staked",
      "type": "event"
    },
    {
      "anonymous": false,
      "inputs": [
        {
          "indexed": true,
          "internalType": "address",
          "name": "user",
          "type": "address"
        },
        {
          "indexed": true,
          "internalType": "address",
          "name": "vault",
          "type": "address"
        },
        {
          "indexed": false,
          "internalType": "uint256",
          "name": "amount",
          "type": "uint256"
        }
      ],
      "name": "Withdrawn",
      "type": "event"
    },
    {
      "inputs": [],
      "name": "acceptOwnership",
      "outputs": [],
      "stateMutability": "nonpayable",
      "type": "function"
    },
    {
      "inputs": [
        {
          "internalType": "address",
          "name": "user",
          "type": "address"
        }
      ],
      "name": "currentMultiplierBps",
      "outputs": [
        {
          "internalType": "uint16",
          "name": "",
          "type": "uint16"
        }
      ],
      "stateMutability": "view",
      "type": "function"
    },
    {
      "inputs": [
        {
          "internalType": "address",
          "name": "account",
          "type": "address"
        }
      ],
      "name": "earned",
      "outputs": [
        {
          "internalType": "uint256",
          "name": "",
          "type": "uint256"
        }
      ],
      "stateMutability": "view",
      "type": "function"
    },
    {
      "inputs": [],
      "name": "ecoTreasury",
      "outputs": [
        {
          "internalType": "address",
          "name": "",
          "type": "address"
        }
      ],
      "stateMutability": "view",
      "type": "function"
    },
    {
      "inputs": [],
      "name": "exit",
      "outputs": [],
      "stateMutability": "nonpayable",
      "type": "function"
    },
    {
      "inputs": [],
      "name": "factory",
      "outputs": [
        {
          "internalType": "contract IVaultFactoryST",
          "name": "",
          "type": "address"
        }
      ],
      "stateMutability": "view",
      "type": "function"
    },
    {
      "inputs": [
        {
          "internalType": "uint256",
          "name": "amount",
          "type": "uint256"
        },
        {
          "internalType": "uint64",
          "name": "duration",
          "type": "uint64"
        }
      ],
      "name": "fundRewards",
      "outputs": [],
      "stateMutability": "nonpayable",
      "type": "function"
    },
    {
      "inputs": [],
      "name": "getReward",
      "outputs": [],
      "stateMutability": "nonpayable",
      "type": "function"
    },
    {
      "inputs": [],
      "name": "lastTimeRewardApplicable",
      "outputs": [
        {
          "internalType": "uint64",
          "name": "",
          "type": "uint64"
        }
      ],
      "stateMutability": "view",
      "type": "function"
    },
    {
      "inputs": [],
      "name": "lastUpdateTime",
      "outputs": [
        {
          "internalType": "uint64",
          "name": "",
          "type": "uint64"
        }
      ],
      "stateMutability": "view",
      "type": "function"
    },
    {
      "inputs": [],
      "name": "maxMultiplierBps",
      "outputs": [
        {
          "internalType": "uint16",
          "name": "",
          "type": "uint16"
        }
      ],
      "stateMutability": "view",
      "type": "function"
    },
    {
      "inputs": [],
      "name": "maxStakePerAddress",
      "outputs": [
        {
          "internalType": "uint256",
          "name": "",
          "type": "uint256"
        }
      ],
      "stateMutability": "view",
      "type": "function"
    },
    {
      "inputs": [],
      "name": "minMultiplierBps",
      "outputs": [
        {
          "internalType": "uint16",
          "name": "",
          "type": "uint16"
        }
      ],
      "stateMutability": "view",
      "type": "function"
    },
    {
      "inputs": [],
      "name": "owner",
      "outputs": [
        {
          "internalType": "address",
          "name": "",
          "type": "address"
        }
      ],
      "stateMutability": "view",
      "type": "function"
    },
    {
      "inputs": [],
      "name": "pendingOwner",
      "outputs": [
        {
          "internalType": "address",
          "name": "",
          "type": "address"
        }
      ],
      "stateMutability": "view",
      "type": "function"
    },
    {
      "inputs": [],
      "name": "periodFinish",
      "outputs": [
        {
          "internalType": "uint64",
          "name": "",
          "type": "uint64"
        }
      ],
      "stateMutability": "view",
      "type": "function"
    },
    {
      "inputs": [],
      "name": "proof",
      "outputs": [
        {
          "internalType": "contract IProofLedgerST",
          "name": "",
          "type": "address"
        }
      ],
      "stateMutability": "view",
      "type": "function"
    },
    {
      "inputs": [],
      "name": "renounceOwnership",
      "outputs": [],
      "stateMutability": "nonpayable",
      "type": "function"
    },
    {
      "inputs": [],
      "name": "rewardPerShare",
      "outputs": [
        {
          "internalType": "uint256",
          "name": "",
          "type": "uint256"
        }
      ],
      "stateMutability": "view",
      "type": "function"
    },
    {
      "inputs": [],
      "name": "rewardPerShareStored",
      "outputs": [
        {
          "internalType": "uint256",
          "name": "",
          "type": "uint256"
        }
      ],
      "stateMutability": "view",
      "type": "function"
    },
    {
      "inputs": [],
      "name": "rewardRate",
      "outputs": [
        {
          "internalType": "uint256",
          "name": "",
          "type": "uint256"
        }
      ],
      "stateMutability": "view",
      "type": "function"
    },
    {
      "inputs": [
        {
          "internalType": "address",
          "name": "eco_",
          "type": "address"
        }
      ],
      "name": "setEcoTreasury",
      "outputs": [],
      "stateMutability": "nonpayable",
      "type": "function"
    },
    {
      "inputs": [
        {
          "internalType": "address",
          "name": "f_",
          "type": "address"
        }
      ],
      "name": "setFactory",
      "outputs": [],
      "stateMutability": "nonpayable",
      "type": "function"
    },
    {
      "inputs": [
        {
          "internalType": "uint256",
          "name": "cap",
          "type": "uint256"
        }
      ],
      "name": "setMaxStakePerAddress",
      "outputs": [],
      "stateMutability": "nonpayable",
      "type": "function"
    },
    {
      "inputs": [
        {
          "internalType": "uint16",
          "name": "minBps",
          "type": "uint16"
        },
        {
          "internalType": "uint16",
          "name": "maxBps",
          "type": "uint16"
        }
      ],
      "name": "setMultiplierBounds",
      "outputs": [],
      "stateMutability": "nonpayable",
      "type": "function"
    },
    {
      "inputs": [
        {
          "internalType": "address",
          "name": "p_",
          "type": "address"
        }
      ],
      "name": "setProofLedger",
      "outputs": [],
      "stateMutability": "nonpayable",
      "type": "function"
    },
    {
      "inputs": [
        {
          "internalType": "address",
          "name": "user",
          "type": "address"
        }
      ],
      "name": "sharesOf",
      "outputs": [
        {
          "internalType": "uint256",
          "name": "",
          "type": "uint256"
        }
      ],
      "stateMutability": "view",
      "type": "function"
    },
    {
      "inputs": [
        {
          "internalType": "uint256",
          "name": "amount",
          "type": "uint256"
        }
      ],
      "name": "stake",
      "outputs": [],
      "stateMutability": "nonpayable",
      "type": "function"
    },
    {
      "inputs": [],
      "name": "totalShares",
      "outputs": [
        {
          "internalType": "uint256",
          "name": "",
          "type": "uint256"
        }
      ],
      "stateMutability": "view",
      "type": "function"
    },
    {
      "inputs": [],
      "name": "totalStaked",
      "outputs": [
        {
          "internalType": "uint256",
          "name": "",
          "type": "uint256"
        }
      ],
      "stateMutability": "view",
      "type": "function"
    },
    {
      "inputs": [
        {
          "internalType": "address",
          "name": "newOwner",
          "type": "address"
        }
      ],
      "name": "transferOwnership",
      "outputs": [],
      "stateMutability": "nonpayable",
      "type": "function"
    },
    {
      "inputs": [
        {
          "internalType": "address",
          "name": "",
          "type": "address"
        }
      ],
      "name": "users",
      "outputs": [
        {
          "internalType": "uint256",
          "name": "balance",
          "type": "uint256"
        },
        {
          "internalType": "uint256",
          "name": "shares",
          "type": "uint256"
        },
        {
          "internalType": "uint256",
          "name": "rewards",
          "type": "uint256"
        },
        {
          "internalType": "uint256",
          "name": "userRPSPaid",
          "type": "uint256"
        }
      ],
      "stateMutability": "view",
      "type": "function"
    },
    {
      "inputs": [],
      "name": "vfide",
      "outputs": [
        {
          "internalType": "contract IERC20",
          "name": "",
          "type": "address"
        }
      ],
      "stateMutability": "view",
      "type": "function"
    },
    {
      "inputs": [
        {
          "internalType": "uint256",
          "name": "amount",
          "type": "uint256"
        }
      ],
      "name": "withdraw",
      "outputs": [],
      "stateMutability": "nonpayable",
      "type": "function"
    }
  ],
  "bytecode": "0x60a03461027557601f611e7438819003918201601f19168301916001600160401b0383118484101761027a578084926080946040528339810103126102755761004781610290565b9061005460208201610290565b9061006d606061006660408401610290565b9201610290565b600180546001600160a01b0319908116909155600080543392811683178255604051939692916001600160a01b03909116907f8be0079c531659141344cd1fd0a4f28419497f9722a3daafe3b4186f6b6457e09080a360016002556009805463ffffffff1916633a9813881790556000600a556001600160a01b03169081158015610264575b8015610253575b8015610242575b61023157608091909152600580546001600160a01b03199081166001600160a01b039586169081179092556003805482169486169485179055600480549091169490951693841790945560078054600160401b600160801b0319164260401b6fffffffffffffffff0000000000000000161790559283527f1edf3afd4ac789736e00d216cd88be164ddcef26a6eedcc30cdb0cb62f3741b192602092917fc67aeca4ae51ec8f0dcec79f620f0fe366273b66a268d3f3702da704e875ea6b918491907f06eb8019ebe0fec196f4db424df98e3d68680e936296e4159f6dbb766c8d18ff908390a1604051908152a1604051908152a1604051611bcf90816102a5823960805181818161034b015281816105d301528181610c18015281816110000152818161123f015261151c0152f35b63d92e233d60e01b60005260046000fd5b506001600160a01b03851615610101565b506001600160a01b038316156100fa565b506001600160a01b038416156100f3565b600080fd5b634e487b7160e01b600052604160045260246000fd5b51906001600160a01b03821682036102755756fe608080604052600436101561001357600080fd5b60003560e01c9081628cc262146116d1575080630ab747f0146116b35780630f6bab391461163e5780632e1a7d4d14611413578063330f15e8146113f157806335c3b8f7146113c857806336a424251461137c5780633a98ef391461135e5780633d18b9121461114a578063446a2ec81461112757806357559cf2146111095780635bb4780814611094578063715018a61461102f57806372c8ae3b14610fea57806379ba509714610f1f5780637b0a47ee14610f015780637ff9781f14610ec657806380faa57d14610e9a578063817b1cd214610e7c57806387931cdb14610dba5780638da5cb5b14610d915780639731384114610d6c578063a694fc3a14610b00578063a7c1768014610a7a578063a87430ba14610a1a578063c45a0155146109f1578063c8f33c91146109c7578063e30c39781461099e578063e9fad8ee146104c4578063ebe2b12b1461049d578063efb1367714610277578063f2fde38b14610203578063f5eb42dc146101c25763faf924cf1461019457600080fd5b346101bd5760003660031901126101bd576003546040516001600160a01b039091168152602090f35b600080fd5b346101bd5760203660031901126101bd576004356001600160a01b038116908190036101bd57600052600d6020526020600160406000200154604051908152f35b346101bd5760203660031901126101bd576004356001600160a01b038116908190036101bd576102316119dd565b600180546001600160a01b03191682179055600080546001600160a01b0316907f38d16b8cac22d99fc7c124b9cd0de2d3fa1faef420bfe791d8c362d765e227009080a3005b346101bd5760403660031901126101bd57600435602435906001600160401b0382168092036101bd576102a86119dd565b6102b0611a35565b6102b8611841565b6008556102c3611975565b600160401b600160801b036007549160401b1690600160401b600160801b0319161760075580158015610495575b610484576000906001600160401b0360075416804210610462575b506005546040516323b872dd60e01b81526001600160a01b03909116600482015230602482015260448101829052919260208380606481015b038160007f00000000000000000000000000000000000000000000000000000000000000006001600160a01b03165af1801561045657816103bf847f22ee4241892ffe85821951e4c5026ad8575857fad9b7f79ec20e80d6650137f5976103ba6103c495608099600091610427575b506119a5565b6117fd565b6117dd565b80600655600754916001600160401b036103de82426117fd565b168093600160401b600160801b034260401b16906fffffffffffffffffffffffffffffffff19161717600755604051938452602084015260408301526060820152a16001600255005b610449915060203d60201161044f575b6104418183611786565b810190611829565b8b6103b4565b503d610437565b6040513d6000823e3d90fd5b610345925061047561047e9142906117a7565b600654906117ca565b9161030c565b631f2a200560e01b60005260046000fd5b5081156102f1565b346101bd5760003660031901126101bd5760206001600160401b0360075416604051908152f35b346101bd5760003660031901126101bd5733600052600d6020526040600020546104ec611a35565b6104f4611841565b80600855610500611975565b600160401b600160801b036007549160401b1690600160401b600160801b031916176007553315159081610957575b5081156104845733600052600d6020526040600020918083541061092357600092602060018060a01b036004541660246040518097819363e01fd21560e01b83523360048401525af193841561045657600094610902575b5061059482600b546117a7565b600b556105a28282546117a7565b90556105ad33611a89565b60405163a9059cbb60e01b81526001600160a01b038481166004830152602482018390527f00000000000000000000000000000000000000000000000000000000000000001693906020816044816000895af1908115610456576000916108e3575b50156108b05761063b604051602081019084825260208152610632604082611786565b51902033611ae6565b6040519182526001600160a01b03169033907fd1c19fbcd4551a5edfb66d43d2e337c04837afda3482b42bdf569a8fccdae5fb90602090a36001600255610680611a35565b610688611841565b9081600855610695611975565b600160401b600160801b036007549160401b1690600160401b600160801b0319161760075561085c575b5033600052600d60205260026040600020015490816106e0575b6001600255005b600090338252600d602052816002604082200155602060018060a01b036004541660246040518095819363e01fd21560e01b83523360048401525af19182156104565760009261082b575b5060405163a9059cbb60e01b81526001600160a01b03831660048201526024810184905290602090829060449082906000905af19081156104565760009161080c575b50156107d95761079a604051602081019084825260208152610791604082611786565b51902033611b46565b6040519182526001600160a01b03169033907f540798df468d7b23d11f156fdb954cb19ad414d150722a7b6d55ba369dea792e90602090a380806106d9565b60405162461bcd60e51b815260206004820152600b60248201526a3932bbb0b932103c3332b960a91b6044820152606490fd5b610825915060203d60201161044f576104418183611786565b8361076e565b61084e91925060203d602011610855575b6108468183611786565b81019061180a565b908361072b565b503d61083c565b33600052600d60205260406000206108a36002820191670de0b6b3a764000061089c845492610896600360018301549201978854906117a7565b906117ca565b04906117fd565b90556008549055816106bf565b60405162461bcd60e51b815260206004820152600b60248201526a1c995d1d5c9b8819985a5b60aa1b6044820152606490fd5b6108fc915060203d60201161044f576104418183611786565b8561060f565b61091c91945060203d602011610855576108468183611786565b9284610587565b60405162461bcd60e51b815260206004820152600c60248201526b1a5b9cdd59999a58da595b9d60a21b6044820152606490fd5b33600052600d60205260406000206109916002820191670de0b6b3a764000061089c845492610896600360018301549201978854906117a7565b905560085490558261052f565b346101bd5760003660031901126101bd576001546040516001600160a01b039091168152602090f35b346101bd5760003660031901126101bd5760206001600160401b0360075460401c16604051908152f35b346101bd5760003660031901126101bd576004546040516001600160a01b039091168152602090f35b346101bd5760203660031901126101bd576004356001600160a01b038116908190036101bd57600052600d602052608060406000208054906001810154906003600282015491015491604051938452602084015260408301526060820152f35b346101bd5760203660031901126101bd576004356001600160a01b038116908190036101bd57610aa86119dd565b8015610aef576020817f06eb8019ebe0fec196f4db424df98e3d68680e936296e4159f6dbb766c8d18ff926001600160601b0360a01b6005541617600555604051908152a1005b63d92e233d60e01b60005260046000fd5b346101bd5760203660031901126101bd57600435610b1c611a35565b610b24611841565b80600855610b30611975565b600160401b600160801b036007549160401b1690600160401b600160801b0319161760075533610d25575b508015610484576000602060018060a01b036004541660246040518094819363e01fd21560e01b83523360048401525af190811561045657600091610d06575b50600a548015159081610ce5575b50610cd457610bba82600b546117fd565b600b5533600052600d6020526040600020610bd68382546117fd565b9055610be133611a89565b6040516323b872dd60e01b81526001600160a01b0382166004820152306024820152604481018390526020818060648101038160007f00000000000000000000000000000000000000000000000000000000000000006001600160a01b03165af1801561045657610c5991600091610cb557506119a5565b610c76604051602081019084825260208152610791604082611786565b6040519182526001600160a01b03169033907f5dac0c1b1112564a045ba943c9d50270893e8e826c49be8e7073adc713ab7bd790602090a36001600255005b610cce915060203d60201161044f576104418183611786565b846103b4565b63a4875a4960e01b60005260046000fd5b905033600052600d602052610cff836040600020546117fd565b1183610ba9565b610d1f915060203d602011610855576108468183611786565b82610b9b565b33600052600d6020526040600020610d5f6002820191670de0b6b3a764000061089c845492610896600360018301549201978854906117a7565b9055600854905581610b5b565b346101bd5760003660031901126101bd57602061ffff60095460101c16604051908152f35b346101bd5760003660031901126101bd576000546040516001600160a01b039091168152602090f35b346101bd5760403660031901126101bd5760043561ffff81168091036101bd5760243561ffff8116918282036101bd57610df26119dd565b6103e881108015610e71575b8015610e67575b610e56577f751f239156503563670ad4d1806fead21db5662910512f3ea25a3bc156489783926040928263ffff00006009549260101b169163ffffffff1916171760095582519182526020820152a1005b63f75d8a9360e01b60005260046000fd5b5082811015610e05565b50614e208311610dfe565b346101bd5760003660031901126101bd576020600b54604051908152f35b346101bd5760003660031901126101bd576020610eb5611975565b6001600160401b0360405191168152f35b346101bd5760203660031901126101bd576004356001600160a01b03811681036101bd57610ef56020916118c1565b61ffff60405191168152f35b346101bd5760003660031901126101bd576020600654604051908152f35b346101bd5760003660031901126101bd57600154336001600160a01b0390911603610f9357600180546001600160a01b03199081169091556000805433928116831782556001600160a01b0316907f8be0079c531659141344cd1fd0a4f28419497f9722a3daafe3b4186f6b6457e09080a3005b60405162461bcd60e51b815260206004820152602960248201527f4f776e61626c6532537465703a2063616c6c6572206973206e6f7420746865206044820152683732bb9037bbb732b960b91b6064820152608490fd5b346101bd5760003660031901126101bd576040517f00000000000000000000000000000000000000000000000000000000000000006001600160a01b03168152602090f35b346101bd5760003660031901126101bd576110486119dd565b600180546001600160a01b0319908116909155600080549182168155906001600160a01b03167f8be0079c531659141344cd1fd0a4f28419497f9722a3daafe3b4186f6b6457e08280a3005b346101bd5760203660031901126101bd576004356001600160a01b038116908190036101bd576110c26119dd565b8015610aef576020817f1edf3afd4ac789736e00d216cd88be164ddcef26a6eedcc30cdb0cb62f3741b1926001600160601b0360a01b6004541617600455604051908152a1005b346101bd5760003660031901126101bd576020600a54604051908152f35b346101bd5760003660031901126101bd576020611142611841565b604051908152f35b346101bd5760003660031901126101bd57611163611a35565b61116b611841565b80600855611177611975565b600160401b600160801b036007549160401b1690600160401b600160801b0319161760075533611317575b5033600052600d602052600260406000200154806111c1576001600255005b33600052600d602052600060026040822001556000602060018060a01b036004541660246040518094819363e01fd21560e01b83523360048401525af1908115610456576000916112f8575b5060405163a9059cbb60e01b81526001600160a01b0382166004820152602481018390526020818060448101038160007f00000000000000000000000000000000000000000000000000000000000000006001600160a01b03165af1908115610456576000916112d9575b50156107d95761129b604051602081019084825260208152610791604082611786565b6040519182526001600160a01b03169033907f540798df468d7b23d11f156fdb954cb19ad414d150722a7b6d55ba369dea792e90602090a3806106d9565b6112f2915060203d60201161044f576104418183611786565b83611278565b611311915060203d602011610855576108468183611786565b8261120d565b33600052600d60205260406000206113516002820191670de0b6b3a764000061089c845492610896600360018301549201978854906117a7565b90556008549055806111a2565b346101bd5760003660031901126101bd576020600c54604051908152f35b346101bd5760203660031901126101bd577f43dda60f87ec2ffb8641fca7b5c9ef09a11e532a1cb2e63be476694b8fcfea3260206004356113bb6119dd565b80600a55604051908152a1005b346101bd5760003660031901126101bd576005546040516001600160a01b039091168152602090f35b346101bd5760003660031901126101bd57602061ffff60095416604051908152f35b346101bd5760203660031901126101bd5760043561142f611a35565b611437611841565b80600855611443611975565b600160401b600160801b036007549160401b1690600160401b600160801b03191617600755336115f7575b5080156104845733600052600d60205260406000208181541061092357600090602060018060a01b036004541660246040518095819363e01fd21560e01b83523360048401525af1918215610456576000926115d6575b506114d283600b546117a7565b600b556114e08382546117a7565b90556114eb33611a89565b60405163a9059cbb60e01b81526001600160a01b0382166004820152602481018390526020818060448101038160007f00000000000000000000000000000000000000000000000000000000000000006001600160a01b03165af1908115610456576000916115b7575b50156108b057611578604051602081019084825260208152610632604082611786565b6040519182526001600160a01b03169033907fd1c19fbcd4551a5edfb66d43d2e337c04837afda3482b42bdf569a8fccdae5fb90602090a36001600255005b6115d0915060203d60201161044f576104418183611786565b83611555565b6115f091925060203d602011610855576108468183611786565b90836114c5565b33600052600d60205260406000206116316002820191670de0b6b3a764000061089c845492610896600360018301549201978854906117a7565b905560085490558161146e565b346101bd5760203660031901126101bd576004356001600160a01b038116908190036101bd5761166c6119dd565b8015610aef576020817fc67aeca4ae51ec8f0dcec79f620f0fe366273b66a268d3f3702da704e875ea6b926001600160601b0360a01b6003541617600355604051908152a1005b346101bd5760003660031901126101bd576020600854604051908152f35b346101bd5760203660031901126101bd576004356001600160a01b038116908190036101bd57600052600d602052604060002060808201908282106001600160401b0383111761177057670de0b6b3a764000061089c6020946111429460405283548152610896600185015494878301958652606060036002830154926040860193845201549301928352611764611841565b905195519251906117a7565b634e487b7160e01b600052604160045260246000fd5b90601f801991011681019081106001600160401b0382111761177057604052565b919082039182116117b457565b634e487b7160e01b600052601160045260246000fd5b818102929181159184041417156117b457565b81156117e7570490565b634e487b7160e01b600052601260045260246000fd5b919082018092116117b457565b908160209103126101bd57516001600160a01b03811681036101bd5790565b908160209103126101bd575180151581036101bd5790565b600c5480156118ba576118736001600160401b0361185d611975565b166001600160401b0360075460401c16906117a7565b61188360085491600654906117ca565b670de0b6b3a7640000810290808204670de0b6b3a764000014901517156117b4576118b7926118b1916117dd565b906117fd565b90565b5060085490565b60035460405163099d7a2b60e11b81526001600160a01b0392831660048201529160209183916024918391165afa9081156104565760009161192f575b5061192b61ffff6103e861089c82948361192360095482811696879160101c166117a7565b9116906117ca565b1690565b6020813d60201161196d575b8161194860209383611786565b8101031261196957519061ffff82168203611966575061192b6118fe565b80fd5b5080fd5b3d915061193b565b6001600160401b036007541680421060001461199957506001600160401b03421690565b6001600160401b031690565b156119ac57565b60405162461bcd60e51b81526020600482015260096024820152681c1d5b1b0819985a5b60ba1b6044820152606490fd5b6000546001600160a01b031633036119f157565b606460405162461bcd60e51b815260206004820152602060248201527f4f776e61626c653a2063616c6c6572206973206e6f7420746865206f776e65726044820152fd5b6002805414611a445760028055565b60405162461bcd60e51b815260206004820152601f60248201527f5265656e7472616e637947756172643a207265656e7472616e742063616c6c006044820152606490fd5b611ae19060018060a01b038116600052600d602052612710611ad5604060002061ffff611acb600c5495611ac360018501978854906117a7565b600c556118c1565b91549116906117ca565b04809155600c546117fd565b600c55565b6003546001600160a01b031691823b156101bd57604051631250d57560e31b81526001600160a01b039092166004830152600260248301526044820152906000908290606490829084905af1611b395750565b6000611b4491611786565b565b6003546001600160a01b031691823b156101bd57604051631250d57560e31b81526001600160a01b039092166004830152600160248301526044820152906000908290606490829084905af1611b39575056fea264697066735822122002b8c8aebfcb2ad5a601aa213bd87837c4fbfdce79ca36439f3646fc25c8b95364736f6c634300081e0033",
  "linkReferences": {},
  "deployedLinkReferences": {}
}