{
  "_format": "hh-sol-artifact-1",
  "contractName": "MerchantRegistryTestable",
  "sourceName": "contracts/mocks/VFIDECommerceTestable.sol",
  "abi": [
    {
      "inputs": [
        {
          "internalType": "address",
          "name": "_dao",
          "type": "address"
        },
        {
          "internalType": "address",
          "name": "_token",
          "type": "address"
        },
        {
          "internalType": "address",
          "name": "_hub",
          "type": "address"
        },
        {
          "internalType": "address",
          "name": "_seer",
          "type": "address"
        },
        {
          "internalType": "address",
          "name": "_sec",
          "type": "address"
        },
        {
          "internalType": "address",
          "name": "_ledger",
          "type": "address"
        }
      ],
      "stateMutability": "nonpayable",
      "type": "constructor"
    },
    {
      "inputs": [],
      "name": "COM_AlreadyMerchant",
      "type": "error"
    },
    {
      "inputs": [],
      "name": "COM_BadRating",
      "type": "error"
    },
    {
      "inputs": [],
      "name": "COM_NotAllowed",
      "type": "error"
    },
    {
      "inputs": [],
      "name": "COM_NotDAO",
      "type": "error"
    },
    {
      "inputs": [],
      "name": "COM_NotMerchant",
      "type": "error"
    },
    {
      "inputs": [],
      "name": "COM_Zero",
      "type": "error"
    },
    {
      "anonymous": false,
      "inputs": [
        {
          "indexed": true,
          "internalType": "address",
          "name": "owner",
          "type": "address"
        },
        {
          "indexed": false,
          "internalType": "string",
          "name": "reason",
          "type": "string"
        }
      ],
      "name": "AutoFlagged",
      "type": "event"
    },
    {
      "anonymous": false,
      "inputs": [
        {
          "indexed": true,
          "internalType": "address",
          "name": "owner",
          "type": "address"
        },
        {
          "indexed": true,
          "internalType": "address",
          "name": "vault",
          "type": "address"
        },
        {
          "indexed": false,
          "internalType": "bytes32",
          "name": "metaHash",
          "type": "bytes32"
        }
      ],
      "name": "MerchantAdded",
      "type": "event"
    },
    {
      "anonymous": false,
      "inputs": [
        {
          "indexed": true,
          "internalType": "address",
          "name": "owner",
          "type": "address"
        },
        {
          "indexed": false,
          "internalType": "enum MerchantRegistryTestable.Status",
          "name": "status",
          "type": "uint8"
        },
        {
          "indexed": false,
          "internalType": "string",
          "name": "reason",
          "type": "string"
        }
      ],
      "name": "MerchantStatus",
      "type": "event"
    },
    {
      "anonymous": false,
      "inputs": [
        {
          "indexed": false,
          "internalType": "address",
          "name": "dao",
          "type": "address"
        },
        {
          "indexed": false,
          "internalType": "address",
          "name": "token",
          "type": "address"
        },
        {
          "indexed": false,
          "internalType": "address",
          "name": "hub",
          "type": "address"
        },
        {
          "indexed": false,
          "internalType": "address",
          "name": "seer",
          "type": "address"
        },
        {
          "indexed": false,
          "internalType": "address",
          "name": "sec",
          "type": "address"
        },
        {
          "indexed": false,
          "internalType": "address",
          "name": "ledger",
          "type": "address"
        }
      ],
      "name": "ModulesSet",
      "type": "event"
    },
    {
      "anonymous": false,
      "inputs": [
        {
          "indexed": false,
          "internalType": "uint16",
          "name": "minScore",
          "type": "uint16"
        },
        {
          "indexed": false,
          "internalType": "uint8",
          "name": "autoSuspendRefunds",
          "type": "uint8"
        },
        {
          "indexed": false,
          "internalType": "uint8",
          "name": "autoSuspendDisputes",
          "type": "uint8"
        }
      ],
      "name": "PolicySet",
      "type": "event"
    },
    {
      "inputs": [
        {
          "internalType": "bool",
          "name": "v",
          "type": "bool"
        }
      ],
      "name": "TEST_setForceAlreadyMerchant",
      "outputs": [],
      "stateMutability": "nonpayable",
      "type": "function"
    },
    {
      "inputs": [
        {
          "internalType": "bool",
          "name": "v",
          "type": "bool"
        }
      ],
      "name": "TEST_setForceLowScore",
      "outputs": [],
      "stateMutability": "nonpayable",
      "type": "function"
    },
    {
      "inputs": [
        {
          "internalType": "bool",
          "name": "v",
          "type": "bool"
        }
      ],
      "name": "TEST_setForceNoVault",
      "outputs": [],
      "stateMutability": "nonpayable",
      "type": "function"
    },
    {
      "inputs": [
        {
          "internalType": "bool",
          "name": "v",
          "type": "bool"
        }
      ],
      "name": "TEST_setForceZeroSenderDispute",
      "outputs": [],
      "stateMutability": "nonpayable",
      "type": "function"
    },
    {
      "inputs": [
        {
          "internalType": "bool",
          "name": "v",
          "type": "bool"
        }
      ],
      "name": "TEST_setForceZeroSenderRefund",
      "outputs": [],
      "stateMutability": "nonpayable",
      "type": "function"
    },
    {
      "inputs": [
        {
          "internalType": "bool",
          "name": "v",
          "type": "bool"
        }
      ],
      "name": "TEST_setOnlyDAOOff",
      "outputs": [],
      "stateMutability": "nonpayable",
      "type": "function"
    },
    {
      "inputs": [],
      "name": "_test_forceAlreadyMerchant",
      "outputs": [
        {
          "internalType": "bool",
          "name": "",
          "type": "bool"
        }
      ],
      "stateMutability": "view",
      "type": "function"
    },
    {
      "inputs": [],
      "name": "_test_forceLowScore",
      "outputs": [
        {
          "internalType": "bool",
          "name": "",
          "type": "bool"
        }
      ],
      "stateMutability": "view",
      "type": "function"
    },
    {
      "inputs": [],
      "name": "_test_forceNoVault",
      "outputs": [
        {
          "internalType": "bool",
          "name": "",
          "type": "bool"
        }
      ],
      "stateMutability": "view",
      "type": "function"
    },
    {
      "inputs": [],
      "name": "_test_forceZeroSenderDispute",
      "outputs": [
        {
          "internalType": "bool",
          "name": "",
          "type": "bool"
        }
      ],
      "stateMutability": "view",
      "type": "function"
    },
    {
      "inputs": [],
      "name": "_test_forceZeroSenderRefund",
      "outputs": [
        {
          "internalType": "bool",
          "name": "",
          "type": "bool"
        }
      ],
      "stateMutability": "view",
      "type": "function"
    },
    {
      "inputs": [],
      "name": "_test_onlyDAOOff",
      "outputs": [
        {
          "internalType": "bool",
          "name": "",
          "type": "bool"
        }
      ],
      "stateMutability": "view",
      "type": "function"
    },
    {
      "inputs": [
        {
          "internalType": "bytes32",
          "name": "metaHash",
          "type": "bytes32"
        }
      ],
      "name": "addMerchant",
      "outputs": [],
      "stateMutability": "nonpayable",
      "type": "function"
    },
    {
      "inputs": [],
      "name": "autoSuspendDisputes",
      "outputs": [
        {
          "internalType": "uint8",
          "name": "",
          "type": "uint8"
        }
      ],
      "stateMutability": "view",
      "type": "function"
    },
    {
      "inputs": [],
      "name": "autoSuspendRefunds",
      "outputs": [
        {
          "internalType": "uint8",
          "name": "",
          "type": "uint8"
        }
      ],
      "stateMutability": "view",
      "type": "function"
    },
    {
      "inputs": [],
      "name": "dao",
      "outputs": [
        {
          "internalType": "address",
          "name": "",
          "type": "address"
        }
      ],
      "stateMutability": "view",
      "type": "function"
    },
    {
      "inputs": [
        {
          "internalType": "address",
          "name": "owner",
          "type": "address"
        }
      ],
      "name": "info",
      "outputs": [
        {
          "components": [
            {
              "internalType": "address",
              "name": "owner",
              "type": "address"
            },
            {
              "internalType": "address",
              "name": "vault",
              "type": "address"
            },
            {
              "internalType": "enum MerchantRegistryTestable.Status",
              "name": "status",
              "type": "uint8"
            },
            {
              "internalType": "uint32",
              "name": "refunds",
              "type": "uint32"
            },
            {
              "internalType": "uint32",
              "name": "disputes",
              "type": "uint32"
            },
            {
              "internalType": "bytes32",
              "name": "metaHash",
              "type": "bytes32"
            }
          ],
          "internalType": "struct MerchantRegistryTestable.Merchant",
          "name": "",
          "type": "tuple"
        }
      ],
      "stateMutability": "view",
      "type": "function"
    },
    {
      "inputs": [],
      "name": "ledger",
      "outputs": [
        {
          "internalType": "contract IProofLedger",
          "name": "",
          "type": "address"
        }
      ],
      "stateMutability": "view",
      "type": "function"
    },
    {
      "inputs": [
        {
          "internalType": "address",
          "name": "",
          "type": "address"
        }
      ],
      "name": "merchants",
      "outputs": [
        {
          "internalType": "address",
          "name": "owner",
          "type": "address"
        },
        {
          "internalType": "address",
          "name": "vault",
          "type": "address"
        },
        {
          "internalType": "enum MerchantRegistryTestable.Status",
          "name": "status",
          "type": "uint8"
        },
        {
          "internalType": "uint32",
          "name": "refunds",
          "type": "uint32"
        },
        {
          "internalType": "uint32",
          "name": "disputes",
          "type": "uint32"
        },
        {
          "internalType": "bytes32",
          "name": "metaHash",
          "type": "bytes32"
        }
      ],
      "stateMutability": "view",
      "type": "function"
    },
    {
      "inputs": [],
      "name": "minScore",
      "outputs": [
        {
          "internalType": "uint16",
          "name": "",
          "type": "uint16"
        }
      ],
      "stateMutability": "view",
      "type": "function"
    },
    {
      "inputs": [
        {
          "internalType": "address",
          "name": "owner",
          "type": "address"
        }
      ],
      "name": "reportDispute",
      "outputs": [],
      "stateMutability": "nonpayable",
      "type": "function"
    },
    {
      "inputs": [
        {
          "internalType": "address",
          "name": "owner",
          "type": "address"
        }
      ],
      "name": "reportRefund",
      "outputs": [],
      "stateMutability": "nonpayable",
      "type": "function"
    },
    {
      "inputs": [],
      "name": "security",
      "outputs": [
        {
          "internalType": "contract ISecurityHub",
          "name": "",
          "type": "address"
        }
      ],
      "stateMutability": "view",
      "type": "function"
    },
    {
      "inputs": [],
      "name": "seer",
      "outputs": [
        {
          "internalType": "contract ISeer",
          "name": "",
          "type": "address"
        }
      ],
      "stateMutability": "view",
      "type": "function"
    },
    {
      "inputs": [
        {
          "internalType": "uint16",
          "name": "_minScore",
          "type": "uint16"
        },
        {
          "internalType": "uint8",
          "name": "_autoSuspendRefunds",
          "type": "uint8"
        },
        {
          "internalType": "uint8",
          "name": "_autoSuspendDisputes",
          "type": "uint8"
        }
      ],
      "name": "setPolicy",
      "outputs": [],
      "stateMutability": "nonpayable",
      "type": "function"
    },
    {
      "inputs": [],
      "name": "token",
      "outputs": [
        {
          "internalType": "contract IERC20",
          "name": "",
          "type": "address"
        }
      ],
      "stateMutability": "view",
      "type": "function"
    },
    {
      "inputs": [],
      "name": "vaultHub",
      "outputs": [
        {
          "internalType": "contract IVaultHub",
          "name": "",
          "type": "address"
        }
      ],
      "stateMutability": "view",
      "type": "function"
    }
  ],
  "bytecode": "0x610140346101ec57601f61115038819003918201601f19168301916001600160401b038311848410176101f15780849260c0946040528339810103126101ec5761004881610207565b61005460208301610207565b9161006160408201610207565b61006d60608301610207565b9161008660a061007f60808401610207565b9201610207565b6001805463ffff0000191663030500001790556001600160a01b03851693909190841580156101db575b80156101ca575b80156101b9575b6101a85760809586526001600160a01b0396871660a081815294881660c081815292891660e081905293891661010081905294909816610120819052604080519788526020880192909252908601979097526060850191909152938301528101929092527f52286c1f6776073dabe8dfcad8b462596b05fff8827c8c35d3b8c3909860371e91a1604051610f34908161021c82396080518181816105d60152610788015260a0518161015b015260c05181818161064901526108ae015260e0518181816107f3015261091e0152610100518161071d0152610120518181816106d80152610a350152f35b63417bf3f760e01b60005260046000fd5b506001600160a01b038116156100be565b506001600160a01b038416156100b7565b506001600160a01b038716156100b0565b600080fd5b634e487b7160e01b600052604160045260246000fd5b51906001600160a01b03821682036101ec5756fe6080604052600436101561001257600080fd5b6000803560e01c8063073d319914610d4c5780630aae7a6b14610c1d5780630d38434f1461086857806313c2bedc14610846578063230ebff5146108225780632d55ea39146107dd5780633a8838af146107b75780634162169f1461077257806344a6f1491461074c578063548799181461070757806356397c35146106c25780635c8159ef1461069c5780635faddc74146106785780636dd6e80b146106335780636e4e374e1461060d578063727bda9c1461051157806372f8a804146104d257806378983da71461049357806385e6bf6c146104545780639983dd39146104155780639b98c0bf146103d6578063be33e92e146102ac578063e3cc5a4314610286578063ee14e939146101f5578063f684220b146101d0578063fa7669c11461018d5763fc0c546a1461014657600080fd5b3461018a578060031936011261018a576040517f00000000000000000000000000000000000000000000000000000000000000006001600160a01b03168152602090f35b80fd5b503461018a57602036600319011261018a576004358015158091036101cc576001805460ff60481b191660489290921b60ff60481b1691909117905580f35b5080fd5b503461018a578060031936011261018a57602060ff600154821c166040519015158152f35b503461018a57602036600319011261018a576004356001600160a01b038116908190036101cc578160409160c09352806020522060018060a01b038154169063ffffffff600260018301549201549160405193845260018060a01b038116602085015261026b6040850160ff8360a01c16610e43565b818160a81c16606085015260c81c16608083015260a0820152f35b503461018a578060031936011261018a57602060ff60015460401c166040519015158152f35b503461018a57602036600319011261018a576004356001600160a01b038116908190036101cc5760ff60015460481c166103c75733156103c7578082528160205260016040832001805460ff8160a01c1660048110156103b357156103a45763ffffffff6001816103239360c81c16011682610edb565b63ffffffff815460c81c1660ff60015460181c161115610341578280f35b600160a11b60ff60a01b198254161790557f43a90d98c063905fdd4f2cc8b6da01061d7fd4a042aafe2a9eb368edb461c2586060604051602081526011602082015270191a5cdc1d5d1957dd1a1c995cda1bdb19607a1b6040820152a238808280f35b636483e60360e01b8452600484fd5b634e487b7160e01b85526021600452602485fd5b63417bf3f760e01b8252600482fd5b503461018a57602036600319011261018a576004358015158091036101cc576001805460ff60301b191660309290921b60ff60301b1691909117905580f35b503461018a57602036600319011261018a576004358015158091036101cc576001805460ff60381b191660389290921b60ff60381b1691909117905580f35b503461018a57602036600319011261018a576004358015158091036101cc576001805460ff60281b191660289290921b60ff60281b1691909117905580f35b503461018a57602036600319011261018a576004358015158091036101cc576001805460ff60201b191660209290921b60ff60201b1691909117905580f35b503461018a57602036600319011261018a576004358015158091036101cc576001805460ff60401b191660409290921b60ff60401b1691909117905580f35b503461018a57606036600319011261018a5760043561ffff81168091036101cc5760243560ff81168082036106095760443560ff811692838203610605576001549160ff8360201c1615806105d2575b6105c3579185939162ff00007fc586d2832d1f8635100a918a951aaa03822ab8895b3dc87e94a51c7e329a689e9763ff0000006060989660181b169363ffffffff1916179160101b16171760015560405192835260208301526040820152a180f35b63064eaf8960e51b8752600487fd5b50337f00000000000000000000000000000000000000000000000000000000000000006001600160a01b03161415610561565b8580fd5b8380fd5b503461018a578060031936011261018a57602060ff60015460481c166040519015158152f35b503461018a578060031936011261018a576040517f00000000000000000000000000000000000000000000000000000000000000006001600160a01b03168152602090f35b503461018a578060031936011261018a57602060ff60015460181c16604051908152f35b503461018a578060031936011261018a57602060ff60015460381c166040519015158152f35b503461018a578060031936011261018a576040517f00000000000000000000000000000000000000000000000000000000000000006001600160a01b03168152602090f35b503461018a578060031936011261018a576040517f00000000000000000000000000000000000000000000000000000000000000006001600160a01b03168152602090f35b503461018a578060031936011261018a57602060ff60015460281c166040519015158152f35b503461018a578060031936011261018a576040517f00000000000000000000000000000000000000000000000000000000000000006001600160a01b03168152602090f35b503461018a578060031936011261018a57602060ff60015460301c166040519015158152f35b503461018a578060031936011261018a576040517f00000000000000000000000000000000000000000000000000000000000000006001600160a01b03168152602090f35b503461018a578060031936011261018a57602060ff60015460101c16604051908152f35b503461018a578060031936011261018a57602061ffff60015416604051908152f35b503461018a57602036600319011261018a576004356001549060ff8260281c168015610be3575b610bd457604051630709df4560e01b81523360048201526020816024817f00000000000000000000000000000000000000000000000000000000000000006001600160a01b03165afa908115610afa578491610b92575b5060ff8360301c16610b8b575b6001600160a01b0316918215610b7c57604051630d47875d60e41b81523360048201526020816024817f00000000000000000000000000000000000000000000000000000000000000006001600160a01b03165afa908115610b71578591610b30575b509060ff8160381c16610b28575b61ffff809116911610610b195760405161097d81610e89565b33808252602080830185815260016040808601828152606087018a8152608088018b815260a089018a8152978c52958b9052918a20965187546001600160a01b03199081166001600160a01b0392831617895594519388018054909516931692909217835590519192916004811015610b0557835460ff60a01b191660a09190911b60ff60a01b161783555160029392610a2e92909163ffffffff9190610a2690831684610e66565b511690610edb565b51910155827f00000000000000000000000000000000000000000000000000000000000000006001600160a01b0316803b156101cc57819060a460405180948193633ddd61ab60e21b835233600484015260606024840152600d60648401526c13595c98da185b9d1059191959609a1b60848401523360448401525af18015610afa57610ae6575b506040519081527f1609ad0904581124d080230a81972911df349ec00897ff67a50b644564c8ec2260203392a380f35b83610af391949294610eba565b9138610ab6565b6040513d86823e3d90fd5b634e487b7160e01b89526021600452602489fd5b63b67dcfe360e01b8352600483fd5b849150610964565b90506020813d602011610b69575b81610b4b60209383610eba565b81010312610b65575161ffff81168103610b655738610956565b8480fd5b3d9150610b3e565b6040513d87823e3d90fd5b6312a2a7e560e31b8452600484fd5b50826108f3565b90506020813d602011610bcc575b81610bad60209383610eba565b8101031261060957516001600160a01b038116810361060957386108e6565b3d9150610ba0565b63271e56eb60e01b8352600483fd5b503383528260205260ff600160408520015460a01c166004811015610c0957151561088f565b634e487b7160e01b84526021600452602484fd5b503461018a57602036600319011261018a576004356001600160a01b038116908190036101cc578160a0604051610c5381610e89565b8281528260208201528260408201528260608201528260808201520152815280602052604081209060405190610c8882610e89565b82546001600160a01b03908116835260018401549081166020840190815290939091604084019060a086901c60ff16906004821015610d38575063ffffffff92610d2283859360c099955260026060890193858760a81c1685528560808b019760c81c16875201549660a089019788526040519860018060a01b03905116895260018060a01b039051166020890152516040880190610e43565b51166060850152511660808301525160a0820152f35b634e487b7160e01b81526021600452602490fd5b503461018a57602036600319011261018a576004356001600160a01b038116908190036101cc5760ff60015460401c166103c75733156103c7578082528160205260016040832001805460ff8160a01c1660048110156103b357156103a45763ffffffff600181610dc39360a81c16011682610e66565b63ffffffff815460a81c1660ff60015460101c161115610de1578280f35b600160a11b60ff60a01b198254161790557f43a90d98c063905fdd4f2cc8b6da01061d7fd4a042aafe2a9eb368edb461c258606060405160208152601060208201526f1c99599d5b9917dd1a1c995cda1bdb1960821b6040820152a238808280f35b906004821015610e505752565b634e487b7160e01b600052602160045260246000fd5b805463ffffffff60a81b191660a89290921b63ffffffff60a81b16919091179055565b60c081019081106001600160401b03821117610ea457604052565b634e487b7160e01b600052604160045260246000fd5b90601f801991011681019081106001600160401b03821117610ea457604052565b805463ffffffff60c81b191660c89290921b63ffffffff60c81b1691909117905556fea26469706673582212201315c0bb00f501b19d34f8cc7dc64213df74fa026cdfc82885a9d57df95bf16d64736f6c634300081e0033",
  "linkReferences": {},
  "deployedLinkReferences": {}
}