{"abi":[{"type":"constructor","inputs":[{"name":"_vfide","type":"address","internalType":"address"},{"name":"_beneficiary","type":"address","internalType":"address"},{"name":"_vaultHub","type":"address","internalType":"address"},{"name":"_securityHub","type":"address","internalType":"address"},{"name":"_ledger","type":"address","internalType":"address"},{"name":"_presale","type":"address","internalType":"address"},{"name":"_allocation","type":"uint256","internalType":"uint256"}],"stateMutability":"nonpayable"},{"type":"function","name":"ALLOCATION","inputs":[],"outputs":[{"name":"","type":"uint256","internalType":"uint256"}],"stateMutability":"view"},{"type":"function","name":"BENEFICIARY","inputs":[],"outputs":[{"name":"","type":"address","internalType":"address"}],"stateMutability":"view"},{"type":"function","name":"CLIFF","inputs":[],"outputs":[{"name":"","type":"uint64","internalType":"uint64"}],"stateMutability":"view"},{"type":"function","name":"LEDGER","inputs":[],"outputs":[{"name":"","type":"address","internalType":"address"}],"stateMutability":"view"},{"type":"function","name":"PRESALE","inputs":[],"outputs":[{"name":"","type":"address","internalType":"address"}],"stateMutability":"view"},{"type":"function","name":"SECURITY_HUB","inputs":[],"outputs":[{"name":"","type":"address","internalType":"address"}],"stateMutability":"view"},{"type":"function","name":"TOTAL_UNLOCKS","inputs":[],"outputs":[{"name":"","type":"uint256","internalType":"uint256"}],"stateMutability":"view"},{"type":"function","name":"UNLOCK_AMOUNT","inputs":[],"outputs":[{"name":"","type":"uint256","internalType":"uint256"}],"stateMutability":"view"},{"type":"function","name":"UNLOCK_INTERVAL","inputs":[],"outputs":[{"name":"","type":"uint64","internalType":"uint64"}],"stateMutability":"view"},{"type":"function","name":"VAULT_HUB","inputs":[],"outputs":[{"name":"","type":"address","internalType":"address"}],"stateMutability":"view"},{"type":"function","name":"VESTING","inputs":[],"outputs":[{"name":"","type":"uint64","internalType":"uint64"}],"stateMutability":"view"},{"type":"function","name":"VFIDE","inputs":[],"outputs":[{"name":"","type":"address","internalType":"address"}],"stateMutability":"view"},{"type":"function","name":"beneficiaryVault","inputs":[],"outputs":[{"name":"","type":"address","internalType":"address"}],"stateMutability":"nonpayable"},{"type":"function","name":"claim","inputs":[],"outputs":[],"stateMutability":"nonpayable"},{"type":"function","name":"claimable","inputs":[],"outputs":[{"name":"","type":"uint256","internalType":"uint256"}],"stateMutability":"view"},{"type":"function","name":"claimsPaused","inputs":[],"outputs":[{"name":"","type":"bool","internalType":"bool"}],"stateMutability":"view"},{"type":"function","name":"cliffTimestamp","inputs":[],"outputs":[{"name":"","type":"uint64","internalType":"uint64"}],"stateMutability":"view"},{"type":"function","name":"endTimestamp","inputs":[],"outputs":[{"name":"","type":"uint64","internalType":"uint64"}],"stateMutability":"view"},{"type":"function","name":"getVestingSchedule","inputs":[],"outputs":[{"name":"milestones","type":"tuple[]","internalType":"struct DevReserveVestingVault.UnlockMilestone[]","components":[{"name":"unlockTime","type":"uint64","internalType":"uint64"},{"name":"amount","type":"uint256","internalType":"uint256"},{"name":"claimed","type":"bool","internalType":"bool"}]}],"stateMutability":"view"},{"type":"function","name":"getVestingStatus","inputs":[],"outputs":[{"name":"vestingStart","type":"uint64","internalType":"uint64"},{"name":"cliffEnd","type":"uint64","internalType":"uint64"},{"name":"vestingEnd","type":"uint64","internalType":"uint64"},{"name":"totalVested","type":"uint256","internalType":"uint256"},{"name":"totalClaimedAmount","type":"uint256","internalType":"uint256"},{"name":"claimableNow","type":"uint256","internalType":"uint256"},{"name":"remaining","type":"uint256","internalType":"uint256"},{"name":"unlocksCompleted","type":"uint256","internalType":"uint256"},{"name":"nextUnlockTime","type":"uint256","internalType":"uint256"},{"name":"nextUnlockAmount","type":"uint256","internalType":"uint256"},{"name":"isPaused","type":"bool","internalType":"bool"}],"stateMutability":"view"},{"type":"function","name":"pauseClaims","inputs":[{"name":"paused","type":"bool","internalType":"bool"}],"outputs":[],"stateMutability":"nonpayable"},{"type":"function","name":"startTimestamp","inputs":[],"outputs":[{"name":"","type":"uint64","internalType":"uint64"}],"stateMutability":"view"},{"type":"function","name":"totalClaimed","inputs":[],"outputs":[{"name":"","type":"uint256","internalType":"uint256"}],"stateMutability":"view"},{"type":"function","name":"vested","inputs":[],"outputs":[{"name":"","type":"uint256","internalType":"uint256"}],"stateMutability":"view"},{"type":"event","name":"Claimed","inputs":[{"name":"beneficiary","type":"address","indexed":true,"internalType":"address"},{"name":"vault","type":"address","indexed":true,"internalType":"address"},{"name":"amount","type":"uint256","indexed":false,"internalType":"uint256"}],"anonymous":false},{"type":"event","name":"ModulesSet","inputs":[{"name":"vfide","type":"address","indexed":false,"internalType":"address"},{"name":"beneficiary","type":"address","indexed":false,"internalType":"address"},{"name":"vaultHub","type":"address","indexed":false,"internalType":"address"},{"name":"securityHub","type":"address","indexed":false,"internalType":"address"},{"name":"ledger","type":"address","indexed":false,"internalType":"address"},{"name":"presale","type":"address","indexed":false,"internalType":"address"}],"anonymous":false},{"type":"event","name":"PauseSet","inputs":[{"name":"paused","type":"bool","indexed":false,"internalType":"bool"}],"anonymous":false},{"type":"event","name":"SyncedStart","inputs":[{"name":"start","type":"uint64","indexed":false,"internalType":"uint64"},{"name":"cliff","type":"uint64","indexed":false,"internalType":"uint64"},{"name":"end","type":"uint64","indexed":false,"internalType":"uint64"}],"anonymous":false},{"type":"error","name":"DV_NotBeneficiary","inputs":[]},{"type":"error","name":"DV_NotStarted","inputs":[]},{"type":"error","name":"DV_NothingToClaim","inputs":[]},{"type":"error","name":"DV_Paused","inputs":[]},{"type":"error","name":"DV_VaultLocked","inputs":[]},{"type":"error","name":"DV_Zero","inputs":[]}],"bytecode":{"object":"0x61016080604052346102a55760e0816117d4803803809161002082856102f6565b8339810103126102a55761003381610319565b61003f60208301610319565b61004b60408401610319565b9261005860608201610319565b61006460808301610319565b9060c061007360a08501610319565b93015160015f55956001600160a01b03861694851580156102e5575b80156102d4575b80156102cc575b6102bd577f52286c1f6776073dabe8dfcad8b462596b05fff8827c8c35d3b8c3909860371e9760c0976080528160a0528288528360e052846101005285610120526101405260405195865260018060a01b0316602086015260018060a01b0316604085015260018060a01b0316606084015260018060a01b0316608083015260018060a01b031660a0820152a1604080519081016001600160401b038111828210176102a957604052601481527f6465765f76657374696e675f6465706c6f79656400000000000000000000000060208201908152610100516001600160a01b0316919082610233575b6040516114a6908161032e823960805181818161039a015261074e015260a0518181816104dc0152818161066f01528181610afb0152610e58015260c051818181610b3f0152610e8c015260e0518181816103fd01526106bc0152610100518181816107cb01528181610a1701526111ed015261012051818181610447015261127701526101405181818161018c015281816105d901528181610dba01528181610fa90152610fdd0152f35b823b156102a5576084925f9283604051958680958194633ddd61ab60e21b8352306004840152606060248401525180918160648501528484015e8181018301849052336044830152601f01601f191681010301925af1610295575b8080610187565b5f61029f916102f6565b5f61028e565b5f80fd5b634e487b7160e01b5f52604160045260245ffd5b6375202b4960e11b5f5260045ffd5b50871561009d565b506001600160a01b03821615610096565b506001600160a01b0381161561008f565b601f909101601f19168101906001600160401b038211908210176102a957604052565b51906001600160a01b03821682036102a55756fe6080806040526004361015610012575f80fd5b5f905f3560e01c908163156ca89414610b895750806316dbe94214610b6e578063196b9e0614610b2a5780632f99c6cc14610ae65780633a05f0d814610a685780634a2ae30514610a465780634b66041914610a025780634e71d92d1461064f5780635ae18744146106295780635ce105211461042c57806370bec6c2146105fc578063889646ea146105c157806393e6aca6146104bb578063a85adeab14610491578063af38d75714610476578063b4cf564814610431578063b87592f21461042c578063c7772304146103e7578063d54ad2a1146103c9578063ddf3101514610384578063e07edfdc1461035a578063e6fd48bc14610333578063ee4a745c1461014b5763fea5657c14610126575f80fd5b346101485780600319360112610148576020610140610f23565b604051908152f35b80fd5b5034610148578060031936011261014857808180610167611011565b95919390610173610f23565b6002548082111561032c576101888183610c8e565b915b7f00000000000000000000000000000000000000000000000000000000000000008280821115610323576101bd91610c8e565b935b6001600160401b0360ff600354169916998a1515808091610310575b156102c65750506001600160401b038116624f1a006101fa8242610c8e565b0496601288116102bd575b60128810610260575b50506101609a6001600160401b0380925b6040519c8d521660208c01521660408a01526060890152608088015260a087015260c086015260e08501526101008401526101208301521515610140820152f35b9198509a965060018601908187116102a957506102916101609b61028b6001600160401b0393610c33565b90610c12565b969a506a024c3797c88eb30424000097908b9061020e565b634e487b7160e01b81526011600452602490fd5b60129750610205565b6101609c929197506102e3575b906001600160401b03809261021f565b975095506001600160401b03806102f989610c4d565b6a024c3797c88eb3042400009991169791506102d3565b506001600160401b0383164210156101db565b505084936101bf565b839161018a565b503461014857806003193601126101485760206001600160401b0360015416604051908152f35b503461014857806003193601126101485760206001600160401b0360015460401c16604051908152f35b50346101485780600319360112610148576040517f00000000000000000000000000000000000000000000000000000000000000006001600160a01b03168152602090f35b50346101485780600319360112610148576020600254604051908152f35b50346101485780600319360112610148576040517f00000000000000000000000000000000000000000000000000000000000000006001600160a01b03168152602090f35b610ba5565b50346101485780600319360112610148576040517f00000000000000000000000000000000000000000000000000000000000000006001600160a01b03168152602090f35b50346101485780600319360112610148576020610140610efe565b503461014857806003193601126101485760206001600160401b0360015460801c16604051908152f35b5034610148576020366003190112610148576004358015158082036105bd577f00000000000000000000000000000000000000000000000000000000000000006001600160a01b031633036105ae5760207f878ac8a2ca79520471f8f3c8494fa802c03ce3bf034252aad7f22318984fdbdb9160ff196003541660ff821617600355604051908152a11561057c5761057960405161055a604082610bf1565b600d81526c18db185a5b5cd7dc185d5cd959609a1b60208201526111eb565b80f35b61057960405161058d604082610bf1565b600f81526e18db185a5b5cd7dd5b9c185d5cd959608a1b60208201526111eb565b6376c27fdf60e11b8352600483fd5b8280fd5b503461014857806003193601126101485760206040517f00000000000000000000000000000000000000000000000000000000000000008152f35b50346101485780600319360112610148576020610617610e41565b6040516001600160a01b039091168152f35b503461014857806003193601126101485760206040516a024c3797c88eb3042400008152f35b50346108a6575f3660031901126108a65760015f54036109d05760025f557f00000000000000000000000000000000000000000000000000000000000000006001600160a01b0316338190036109c15760ff600354166109b2576106b1611073565b6106b9610e41565b907f00000000000000000000000000000000000000000000000000000000000000006001600160a01b03168015159081610939575b5061092a576106fb610efe565b801561091b5761070d81600254610c12565b6002555f8060405194602086019063a9059cbb60e01b825260018060a01b03169586602482015284604482015260448152610749606482610bf1565b5190827f00000000000000000000000000000000000000000000000000000000000000006001600160a01b03165af1610780611189565b816108ec575b50156108aa576040805161079a8282610bf1565b60118152706465765f76657374696e675f636c61696d60781b60208201528151906107c6602083610bf1565b5f82527f00000000000000000000000000000000000000000000000000000000000000006001600160a01b0316918261081b575b5050505f5160206114515f395f51905f529160209151908152a36001815580f35b823b156108a65761086e926108565f8094875196879586948593630303c28760e61b85528d60048601526080602486015260848501906111c7565b908b60448501526003198483030160648501526111c7565b03925af161087e575b80806107fa565b60209195509161089c5f5f5160206114515f395f51905f5294610bf1565b5f95915091610877565b5f80fd5b60405162461bcd60e51b815260206004820152601a60248201527914d85999515490cc8c0e881d1c985b9cd9995c8819985a5b195960321b6044820152606490fd5b8051801592508215610901575b50505f610786565b6109149250602080918301019101610e29565b5f806108f9565b630df2ae1360e41b5f5260045ffd5b63b4db52f960e01b5f5260045ffd5b604051631293efbb60e21b81526001600160a01b03851660048201529150602090829060249082905afa9081156109a7575f91610978575b505f6106ee565b61099a915060203d6020116109a0575b6109928183610bf1565b810190610e29565b5f610971565b503d610988565b6040513d5f823e3d90fd5b63a270313b60e01b5f5260045ffd5b6376c27fdf60e11b5f5260045ffd5b60405162461bcd60e51b815260206004820152600a6024820152697265656e7472616e637960b01b6044820152606490fd5b346108a6575f3660031901126108a6576040517f00000000000000000000000000000000000000000000000000000000000000006001600160a01b03168152602090f35b346108a6575f3660031901126108a657602060ff600354166040519015158152f35b346108a6575f3660031901126108a657610a80610cc3565b6040518091602082016020835281518091526020604084019201905f5b818110610aab575050500390f35b9193509160206060600192604087516001600160401b0381511683528481015185840152015115156040820152019401910191849392610a9d565b346108a6575f3660031901126108a6576040517f00000000000000000000000000000000000000000000000000000000000000006001600160a01b03168152602090f35b346108a6575f3660031901126108a6576040517f00000000000000000000000000000000000000000000000000000000000000006001600160a01b03168152602090f35b346108a6575f3660031901126108a657602060405160128152f35b346108a6575f3660031901126108a6578063058fd40060209252f35b346108a6575f3660031901126108a6576020604051624f1a008152f35b606081019081106001600160401b03821117610bdd57604052565b634e487b7160e01b5f52604160045260245ffd5b90601f801991011681019081106001600160401b03821117610bdd57604052565b91908201809211610c1f57565b634e487b7160e01b5f52601160045260245ffd5b90624f1a00820291808304624f1a001490151715610c1f57565b6001600160401b03624f1a00911601906001600160401b038211610c1f57565b6001600160401b0363058fd400911601906001600160401b038211610c1f57565b91908203918211610c1f57565b8051821015610caf5760209160051b010190565b634e487b7160e01b5f52603260045260245ffd5b6001600160401b0390610cd4611011565b50921615610e2357604051610260610cec8183610bf1565b60128252601f19015f5b818110610dfa57505080925f915f600254905b60128110610d18575050505050565b60018101808211610c1f57610d346001600160401b0391610c33565b166001600160401b038516016001600160401b038111610c1f576a024c3797c88eb3042400009560118314610db5575b90610d728760019493610c12565b966001600160401b0360405192610d8884610bc2565b1682526020820152868410156040820152610da38286610c9b565b52610dae8185610c9b565b5001610d09565b9550907f0000000000000000000000000000000000000000000000000000000000000000916a270fb1145179e34663ffff198301928311610c1f579195909190610d64565b602090604051610e0981610bc2565b5f81525f838201525f604082015282828601015201610cf6565b60609150565b908160209103126108a6575180151581036108a65790565b60405163e01fd21560e01b81526001600160a01b037f000000000000000000000000000000000000000000000000000000000000000081166004830152602090829060249082905f907f0000000000000000000000000000000000000000000000000000000000000000165af19081156109a7575f91610ebf575090565b90506020813d602011610ef6575b81610eda60209383610bf1565b810103126108a657516001600160a01b03811681036108a65790565b3d9150610ecd565b610f06610f23565b60025480821115610f1d57610f1a91610c8e565b90565b50505f90565b6001600160401b03610f33611011565b9192909216158015610fff575b610f1d576001600160401b0316421015610fda57610f6b6001600160401b03624f1a00921642610c8e565b0460018101809111610c1f576012811015610fda576a024c3797c88eb3042400008102908082046a024c3797c88eb3042400001490151715610c1f577f00000000000000000000000000000000000000000000000000000000000000009081811115610fd5575090565b905090565b507f000000000000000000000000000000000000000000000000000000000000000090565b506001600160401b0382164210610f40565b5f5f6001600160401b036001541692831561104d575b6001600160401b03841661103757565b91505061104382610c4d565b90610f1a82610c6d565b9250611057611275565b8061106557505f5b92611027565b6001600160401b031661105f565b6001546001600160401b0381166111865761108c611275565b8015611177576001600160401b031667ffffffffffffffff60401b6110b082610c4d565b60401b16906001600160401b0360801b6110e26001600160401b03848460018060801b03198816171760401c16610c6d565b60801b169260018060c01b0319161717176001557ff9f40f65db5e49018d44a051ff5bef8c6229f49fb55b0d60f0b195b3af4214786060604061114e815161112a8382610bf1565b601281527119195d97dd995cdd1a5b99d7dcde5b98d95960721b60208201526111eb565b600154906001600160401b0381519281811684528181841c16602085015260801c1690820152a1565b631b0ae91360e01b5f5260045ffd5b50565b3d156111c2573d906001600160401b038211610bdd57604051916111b7601f8201601f191660200184610bf1565b82523d5f602084013e565b606090565b805180835260209291819084018484015e5f828201840152601f01601f1916010190565b7f00000000000000000000000000000000000000000000000000000000000000006001600160a01b03168061121e575050565b803b156108a657604051633ddd61ab60e21b815230600482015260606024820152915f9183918290849082906112589060648301906111c7565b33604483015203925af16112695750565b5f61127391610bf1565b565b7f00000000000000000000000000000000000000000000000000000000000000006001600160a01b0381161561144b575f806040516020810190631cbaee2d60e01b8252600481526112c8602482610bf1565b5190845afa6112d5611189565b908061143f575b61141f575b505f806040516020810190635412925960e11b825260048152611305602482610bf1565b5190845afa611312611189565b9080611413575b6113f3575b505f8060405160208101906365cf7c9b60e01b825260048152611342602482610bf1565b5190845afa61134f611189565b90806113e7575b6113c7575b505f809160405160208101906378e9792560e01b825260048152611380602482610bf1565b51915afa61138c611189565b90806113bb575b61139c57505f90565b602081519181808201938492010103126108a6575180610f1a57505f90565b50602081511015611393565b602081519181808201938492010103126108a65751801561135b57905090565b50602081511015611356565b602081519181808201938492010103126108a65751801561131e57905090565b50602081511015611319565b602081519181808201938492010103126108a6575180156112e157905090565b506020815110156112dc565b505f9056fef7a40077ff7a04c7e61f6f26fb13774259ddf1b6bce9ecf26a8276cdd3992683a264697066735822122022d3c6149dbb5bfa45ab821b96621c6fc1a6bfee9729fefb759bf6b8f575547c64736f6c634300081e0033","linkReferences":{}},"methodIdentifiers":{"ALLOCATION()":"889646ea","BENEFICIARY()":"2f99c6cc","CLIFF()":"b87592f2","LEDGER()":"4b660419","PRESALE()":"b4cf5648","SECURITY_HUB()":"c7772304","TOTAL_UNLOCKS()":"16dbe942","UNLOCK_AMOUNT()":"5ae18744","UNLOCK_INTERVAL()":"5ce10521","VAULT_HUB()":"196b9e06","VESTING()":"156ca894","VFIDE()":"ddf31015","beneficiaryVault()":"70bec6c2","claim()":"4e71d92d","claimable()":"af38d757","claimsPaused()":"4a2ae305","cliffTimestamp()":"e07edfdc","endTimestamp()":"a85adeab","getVestingSchedule()":"3a05f0d8","getVestingStatus()":"ee4a745c","pauseClaims(bool)":"93e6aca6","startTimestamp()":"e6fd48bc","totalClaimed()":"d54ad2a1","vested()":"fea5657c"},"id":9}