{"abi":[{"type":"constructor","inputs":[{"name":"_vfide","type":"address","internalType":"address"},{"name":"_beneficiary","type":"address","internalType":"address"},{"name":"_vaultHub","type":"address","internalType":"address"},{"name":"_securityHub","type":"address","internalType":"address"},{"name":"_ledger","type":"address","internalType":"address"},{"name":"_presale","type":"address","internalType":"address"},{"name":"_allocation","type":"uint256","internalType":"uint256"}],"stateMutability":"nonpayable"},{"type":"function","name":"ALLOCATION","inputs":[],"outputs":[{"name":"","type":"uint256","internalType":"uint256"}],"stateMutability":"view"},{"type":"function","name":"BENEFICIARY","inputs":[],"outputs":[{"name":"","type":"address","internalType":"address"}],"stateMutability":"view"},{"type":"function","name":"CLIFF","inputs":[],"outputs":[{"name":"","type":"uint64","internalType":"uint64"}],"stateMutability":"view"},{"type":"function","name":"LEDGER","inputs":[],"outputs":[{"name":"","type":"address","internalType":"address"}],"stateMutability":"view"},{"type":"function","name":"PRESALE","inputs":[],"outputs":[{"name":"","type":"address","internalType":"address"}],"stateMutability":"view"},{"type":"function","name":"SECURITY_HUB","inputs":[],"outputs":[{"name":"","type":"address","internalType":"address"}],"stateMutability":"view"},{"type":"function","name":"TOTAL_UNLOCKS","inputs":[],"outputs":[{"name":"","type":"uint256","internalType":"uint256"}],"stateMutability":"view"},{"type":"function","name":"UNLOCK_AMOUNT","inputs":[],"outputs":[{"name":"","type":"uint256","internalType":"uint256"}],"stateMutability":"view"},{"type":"function","name":"UNLOCK_INTERVAL","inputs":[],"outputs":[{"name":"","type":"uint64","internalType":"uint64"}],"stateMutability":"view"},{"type":"function","name":"VAULT_HUB","inputs":[],"outputs":[{"name":"","type":"address","internalType":"address"}],"stateMutability":"view"},{"type":"function","name":"VESTING","inputs":[],"outputs":[{"name":"","type":"uint64","internalType":"uint64"}],"stateMutability":"view"},{"type":"function","name":"VFIDE","inputs":[],"outputs":[{"name":"","type":"address","internalType":"address"}],"stateMutability":"view"},{"type":"function","name":"beneficiaryVault","inputs":[],"outputs":[{"name":"","type":"address","internalType":"address"}],"stateMutability":"nonpayable"},{"type":"function","name":"claim","inputs":[],"outputs":[],"stateMutability":"nonpayable"},{"type":"function","name":"claimable","inputs":[],"outputs":[{"name":"","type":"uint256","internalType":"uint256"}],"stateMutability":"view"},{"type":"function","name":"claimsPaused","inputs":[],"outputs":[{"name":"","type":"bool","internalType":"bool"}],"stateMutability":"view"},{"type":"function","name":"cliffTimestamp","inputs":[],"outputs":[{"name":"","type":"uint64","internalType":"uint64"}],"stateMutability":"view"},{"type":"function","name":"endTimestamp","inputs":[],"outputs":[{"name":"","type":"uint64","internalType":"uint64"}],"stateMutability":"view"},{"type":"function","name":"getVestingSchedule","inputs":[],"outputs":[{"name":"milestones","type":"tuple[]","internalType":"struct DevReserveVestingVault.UnlockMilestone[]","components":[{"name":"unlockTime","type":"uint64","internalType":"uint64"},{"name":"amount","type":"uint256","internalType":"uint256"},{"name":"claimed","type":"bool","internalType":"bool"}]}],"stateMutability":"view"},{"type":"function","name":"getVestingStatus","inputs":[],"outputs":[{"name":"vestingStart","type":"uint64","internalType":"uint64"},{"name":"cliffEnd","type":"uint64","internalType":"uint64"},{"name":"vestingEnd","type":"uint64","internalType":"uint64"},{"name":"totalVested","type":"uint256","internalType":"uint256"},{"name":"totalClaimedAmount","type":"uint256","internalType":"uint256"},{"name":"claimableNow","type":"uint256","internalType":"uint256"},{"name":"remaining","type":"uint256","internalType":"uint256"},{"name":"unlocksCompleted","type":"uint256","internalType":"uint256"},{"name":"nextUnlockTime","type":"uint256","internalType":"uint256"},{"name":"nextUnlockAmount","type":"uint256","internalType":"uint256"},{"name":"isPaused","type":"bool","internalType":"bool"}],"stateMutability":"view"},{"type":"function","name":"pauseClaims","inputs":[{"name":"paused","type":"bool","internalType":"bool"}],"outputs":[],"stateMutability":"nonpayable"},{"type":"function","name":"startTimestamp","inputs":[],"outputs":[{"name":"","type":"uint64","internalType":"uint64"}],"stateMutability":"view"},{"type":"function","name":"totalClaimed","inputs":[],"outputs":[{"name":"","type":"uint256","internalType":"uint256"}],"stateMutability":"view"},{"type":"function","name":"vested","inputs":[],"outputs":[{"name":"","type":"uint256","internalType":"uint256"}],"stateMutability":"view"},{"type":"event","name":"Claimed","inputs":[{"name":"beneficiary","type":"address","indexed":true,"internalType":"address"},{"name":"vault","type":"address","indexed":true,"internalType":"address"},{"name":"amount","type":"uint256","indexed":false,"internalType":"uint256"}],"anonymous":false},{"type":"event","name":"ModulesSet","inputs":[{"name":"vfide","type":"address","indexed":false,"internalType":"address"},{"name":"beneficiary","type":"address","indexed":false,"internalType":"address"},{"name":"vaultHub","type":"address","indexed":false,"internalType":"address"},{"name":"securityHub","type":"address","indexed":false,"internalType":"address"},{"name":"ledger","type":"address","indexed":false,"internalType":"address"},{"name":"presale","type":"address","indexed":false,"internalType":"address"}],"anonymous":false},{"type":"event","name":"PauseSet","inputs":[{"name":"paused","type":"bool","indexed":false,"internalType":"bool"}],"anonymous":false},{"type":"event","name":"SyncedStart","inputs":[{"name":"start","type":"uint64","indexed":false,"internalType":"uint64"},{"name":"cliff","type":"uint64","indexed":false,"internalType":"uint64"},{"name":"end","type":"uint64","indexed":false,"internalType":"uint64"}],"anonymous":false},{"type":"error","name":"DV_NotBeneficiary","inputs":[]},{"type":"error","name":"DV_NotStarted","inputs":[]},{"type":"error","name":"DV_NothingToClaim","inputs":[]},{"type":"error","name":"DV_Paused","inputs":[]},{"type":"error","name":"DV_VaultLocked","inputs":[]},{"type":"error","name":"DV_Zero","inputs":[]}],"bytecode":{"object":"0x61016080604052346102a55760e0816117bc803803809161002082856102f6565b8339810103126102a55761003381610319565b61003f60208301610319565b61004b60408401610319565b9261005860608201610319565b61006460808301610319565b9060c061007360a08501610319565b93015160015f55956001600160a01b03861694851580156102e5575b80156102d4575b80156102cc575b6102bd577f52286c1f6776073dabe8dfcad8b462596b05fff8827c8c35d3b8c3909860371e9760c0976080528160a0528288528360e052846101005285610120526101405260405195865260018060a01b0316602086015260018060a01b0316604085015260018060a01b0316606084015260018060a01b0316608083015260018060a01b031660a0820152a1604080519081016001600160401b038111828210176102a957604052601481527f6465765f76657374696e675f6465706c6f79656400000000000000000000000060208201908152610100516001600160a01b0316919082610233575b60405161148e908161032e823960805181818161037d0152610734015260a0518181816104c20152818161065501528181610ae30152610e32015260c051818181610b270152610e66015260e0518181816103e001526106a20152610100518181816107b1015281816109fd01526111d501526101205181818161042a015261125f01526101405181818161018d015281816105bf01528181610d9401528181610f820152610fb60152f35b823b156102a5576084925f9283604051958680958194633ddd61ab60e21b8352306004840152606060248401525180918160648501528484015e8181018301849052336044830152601f01601f191681010301925af1610295575b8080610187565b5f61029f916102f6565b5f61028e565b5f80fd5b634e487b7160e01b5f52604160045260245ffd5b6375202b4960e11b5f5260045ffd5b50871561009d565b506001600160a01b03821615610096565b506001600160a01b0381161561008f565b601f909101601f19168101906001600160401b038211908210176102a957604052565b51906001600160a01b03821682036102a55756fe6080806040526004361015610012575f80fd5b5f905f3560e01c908163156ca89414610b715750806316dbe94214610b56578063196b9e0614610b125780632f99c6cc14610ace5780633a05f0d814610a4e5780634a2ae30514610a2c5780634b660419146109e85780634e71d92d146106355780635ae187441461060f5780635ce105211461040f57806370bec6c2146105e2578063889646ea146105a757806393e6aca6146104a1578063a85adeab14610474578063af38d75714610459578063b4cf564814610414578063b87592f21461040f578063c7772304146103ca578063d54ad2a1146103ac578063ddf3101514610367578063e07edfdc1461033c578063e6fd48bc14610313578063ee4a745c1461014b5763fea5657c14610126575f80fd5b346101485780600319360112610148576020610140610efd565b604051908152f35b80fd5b5034610148578060031936011261014857808180610167610fea565b6101749692949196610efd565b6002548082111561030c576101898183610c6c565b915b7f00000000000000000000000000000000000000000000000000000000000000008280821115610303576101be91610c6c565b935b60ff600354169860018060401b0316998a15158080916102f0575b156102bb5750506001600160401b038b169a624f1a006101fb8d42610c6c565b0496601288116102b2575b60128810610262575b506101609b505b604080519b8c526001600160401b0391821660208d01529116908a01526060890152608088015260a087015260c086015260e08501526101008401526101208301521515610140820152f35b9197509750600186019081871161029e57506101609a61028461028a92610c1d565b90610bfc565b956a024c3797c88eb304240000975f61020f565b634e487b7160e01b81526011600452602490fd5b60129750610206565b6101609c9197501561021657975095506001600160401b036102dc88610c37565b16956a024c3797c88eb30424000097610216565b506001600160401b038d164210156101db565b505084936101c0565b839161018b565b50346101485780600319360112610148576001546040516001600160401b039091168152602090f35b50346101485780600319360112610148576001546040805191901c6001600160401b03168152602090f35b50346101485780600319360112610148576040517f00000000000000000000000000000000000000000000000000000000000000006001600160a01b03168152602090f35b50346101485780600319360112610148576020600254604051908152f35b50346101485780600319360112610148576040517f00000000000000000000000000000000000000000000000000000000000000006001600160a01b03168152602090f35b610b8d565b50346101485780600319360112610148576040517f00000000000000000000000000000000000000000000000000000000000000006001600160a01b03168152602090f35b50346101485780600319360112610148576020610140610ed8565b503461014857806003193601126101485760015460405160809190911c6001600160401b03168152602090f35b5034610148576020366003190112610148576004358015158082036105a3577f00000000000000000000000000000000000000000000000000000000000000006001600160a01b031633036105945760207f878ac8a2ca79520471f8f3c8494fa802c03ce3bf034252aad7f22318984fdbdb9160ff196003541660ff821617600355604051908152a1156105625761055f604051610540604082610bd9565b600d81526c18db185a5b5cd7dc185d5cd959609a1b60208201526111d3565b80f35b61055f604051610573604082610bd9565b600f81526e18db185a5b5cd7dd5b9c185d5cd959608a1b60208201526111d3565b6376c27fdf60e11b8352600483fd5b8280fd5b503461014857806003193601126101485760206040517f00000000000000000000000000000000000000000000000000000000000000008152f35b503461014857806003193601126101485760206105fd610e1b565b6040516001600160a01b039091168152f35b503461014857806003193601126101485760206040516a024c3797c88eb3042400008152f35b503461088c575f36600319011261088c5760015f54036109b65760025f557f00000000000000000000000000000000000000000000000000000000000000006001600160a01b0316338190036109a75760ff600354166109985761069761104e565b61069f610e1b565b907f00000000000000000000000000000000000000000000000000000000000000006001600160a01b0316801515908161091f575b50610910576106e1610ed8565b8015610901576106f381600254610bfc565b6002555f8060405194602086019063a9059cbb60e01b825260018060a01b0316958660248201528460448201526044815261072f606482610bd9565b5190827f00000000000000000000000000000000000000000000000000000000000000006001600160a01b03165af1610766611171565b816108d2575b501561089057604080516107808282610bd9565b60118152706465765f76657374696e675f636c61696d60781b60208201528151906107ac602083610bd9565b5f82527f00000000000000000000000000000000000000000000000000000000000000006001600160a01b03169182610801575b5050505f5160206114395f395f51905f529160209151908152a36001815580f35b823b1561088c576108549261083c5f8094875196879586948593630303c28760e61b85528d60048601526080602486015260848501906111af565b908b60448501526003198483030160648501526111af565b03925af1610864575b80806107e0565b6020919550916108825f5f5160206114395f395f51905f5294610bd9565b5f9591509161085d565b5f80fd5b60405162461bcd60e51b815260206004820152601a60248201527914d85999515490cc8c0e881d1c985b9cd9995c8819985a5b195960321b6044820152606490fd5b80518015925082156108e7575b50505f61076c565b6108fa9250602080918301019101610e03565b5f806108df565b630df2ae1360e41b5f5260045ffd5b63b4db52f960e01b5f5260045ffd5b604051631293efbb60e21b81526001600160a01b03851660048201529150602090829060249082905afa90811561098d575f9161095e575b505f6106d4565b610980915060203d602011610986575b6109788183610bd9565b810190610e03565b5f610957565b503d61096e565b6040513d5f823e3d90fd5b63a270313b60e01b5f5260045ffd5b6376c27fdf60e11b5f5260045ffd5b60405162461bcd60e51b815260206004820152600a6024820152697265656e7472616e637960b01b6044820152606490fd5b3461088c575f36600319011261088c576040517f00000000000000000000000000000000000000000000000000000000000000006001600160a01b03168152602090f35b3461088c575f36600319011261088c57602060ff600354166040519015158152f35b3461088c575f36600319011261088c57610a66610ca1565b6040518091602082016020835281518091526020604084019201905f5b818110610a91575050500390f35b825180516001600160401b031685526020818101518187015260409182015115159186019190915286955060609094019390920191600101610a83565b3461088c575f36600319011261088c576040517f00000000000000000000000000000000000000000000000000000000000000006001600160a01b03168152602090f35b3461088c575f36600319011261088c576040517f00000000000000000000000000000000000000000000000000000000000000006001600160a01b03168152602090f35b3461088c575f36600319011261088c57602060405160128152f35b3461088c575f36600319011261088c578063058fd40060209252f35b3461088c575f36600319011261088c576020604051624f1a008152f35b606081019081106001600160401b03821117610bc557604052565b634e487b7160e01b5f52604160045260245ffd5b601f909101601f19168101906001600160401b03821190821017610bc557604052565b91908201809211610c0957565b634e487b7160e01b5f52601160045260245ffd5b90624f1a00820291808304624f1a001490151715610c0957565b6001600160401b03908116624f1a000191908211610c0957565b6001600160401b0390811663058fd4000191908211610c0957565b91908203918211610c0957565b8051821015610c8d5760209160051b010190565b634e487b7160e01b5f52603260045260245ffd5b610ca9610fea565b5091906001600160401b031615610dfd57604051610260610cca8183610bd9565b60128252601f19015f5b818110610dd457505080925f915f600254905b60128110610cf6575050505050565b60018101808211610c09576001600160401b0390610d1390610c1d565b166001600160401b0385811691909101908111610c09576a024c3797c88eb3042400009560118314610d8f575b90610d4e8760019493610bfc565b9660405191610d5c83610baa565b848060401b031682526020820152868410156040820152610d7d8286610c79565b52610d888185610c79565b5001610ce7565b9550907f0000000000000000000000000000000000000000000000000000000000000000916a270fb1145179e34663ffff198301928311610c09579195909190610d40565b602090604051610de381610baa565b5f81525f838201525f604082015282828601015201610cd4565b60609150565b9081602091031261088c5751801515810361088c5790565b60405163e01fd21560e01b81526001600160a01b037f000000000000000000000000000000000000000000000000000000000000000081166004830152602090829060249082905f907f0000000000000000000000000000000000000000000000000000000000000000165af190811561098d575f91610e99575090565b90506020813d602011610ed0575b81610eb460209383610bd9565b8101031261088c57516001600160a01b038116810361088c5790565b3d9150610ea7565b610ee0610efd565b60025480821115610ef757610ef491610c6c565b90565b50505f90565b610f05610fea565b90916001600160401b0316158015610fd8575b610ef7576001600160401b0316421015610fb357624f1a0090610f44906001600160401b031642610c6c565b0460018101809111610c09576012811015610fb3576a024c3797c88eb3042400008102908082046a024c3797c88eb3042400001490151715610c09577f00000000000000000000000000000000000000000000000000000000000000009081811115610fae575090565b905090565b507f000000000000000000000000000000000000000000000000000000000000000090565b506001600160401b0382164210610f18565b6001546001600160401b0316905f9081908315611028575b6001600160401b03841661101257565b91505061101e82610c37565b90610ef482610c51565b925061103261125d565b8061104057505f5b92611002565b6001600160401b031661103a565b6001546001600160401b03811661116e5761106761125d565b801561115f576001600160401b0316600160401b600160801b0361108a82610c37565b604090811b919091169190600160801b600160c01b03906110c4906001600160801b0319861684178517901c6001600160401b0316610c51565b60801b169260018060c01b0319161717176001557ff9f40f65db5e49018d44a051ff5bef8c6229f49fb55b0d60f0b195b3af42147860606040611130815161110c8382610bd9565b601281527119195d97dd995cdd1a5b99d7dcde5b98d95960721b60208201526111d3565b60015481516001600160401b03808316825282841c8116602083015260809290921c90911691810191909152a1565b631b0ae91360e01b5f5260045ffd5b50565b3d156111aa573d906001600160401b038211610bc5576040519161119f601f8201601f191660200184610bd9565b82523d5f602084013e565b606090565b805180835260209291819084018484015e5f828201840152601f01601f1916010190565b7f00000000000000000000000000000000000000000000000000000000000000006001600160a01b031680611206575050565b803b1561088c57604051633ddd61ab60e21b815230600482015260606024820152915f9183918290849082906112409060648301906111af565b33604483015203925af16112515750565b5f61125b91610bd9565b565b7f00000000000000000000000000000000000000000000000000000000000000006001600160a01b03811615611433575f806040516020810190631cbaee2d60e01b8252600481526112b0602482610bd9565b5190845afa6112bd611171565b9080611427575b611407575b505f806040516020810190635412925960e11b8252600481526112ed602482610bd9565b5190845afa6112fa611171565b90806113fb575b6113db575b505f8060405160208101906365cf7c9b60e01b82526004815261132a602482610bd9565b5190845afa611337611171565b90806113cf575b6113af575b505f809160405160208101906378e9792560e01b825260048152611368602482610bd9565b51915afa611374611171565b90806113a3575b61138457505f90565b6020815191818082019384920101031261088c575180610ef457505f90565b5060208151101561137b565b6020815191818082019384920101031261088c5751801561134357905090565b5060208151101561133e565b6020815191818082019384920101031261088c5751801561130657905090565b50602081511015611301565b6020815191818082019384920101031261088c575180156112c957905090565b506020815110156112c4565b505f9056fef7a40077ff7a04c7e61f6f26fb13774259ddf1b6bce9ecf26a8276cdd3992683a26469706673582212203a74ee393215fb7233003176bd27db672d6a2981989209f24b7d6211fc16aa3564736f6c634300081e0033","linkReferences":{}},"methodIdentifiers":{"ALLOCATION()":"889646ea","BENEFICIARY()":"2f99c6cc","CLIFF()":"b87592f2","LEDGER()":"4b660419","PRESALE()":"b4cf5648","SECURITY_HUB()":"c7772304","TOTAL_UNLOCKS()":"16dbe942","UNLOCK_AMOUNT()":"5ae18744","UNLOCK_INTERVAL()":"5ce10521","VAULT_HUB()":"196b9e06","VESTING()":"156ca894","VFIDE()":"ddf31015","beneficiaryVault()":"70bec6c2","claim()":"4e71d92d","claimable()":"af38d757","claimsPaused()":"4a2ae305","cliffTimestamp()":"e07edfdc","endTimestamp()":"a85adeab","getVestingSchedule()":"3a05f0d8","getVestingStatus()":"ee4a745c","pauseClaims(bool)":"93e6aca6","startTimestamp()":"e6fd48bc","totalClaimed()":"d54ad2a1","vested()":"fea5657c"},"id":9}