{
  "_format": "hh-sol-artifact-1",
  "contractName": "EcoTreasuryVault",
  "sourceName": "contracts/VFIDEFinance.sol",
  "abi": [
    {
      "inputs": [
        {
          "internalType": "address",
          "name": "_dao",
          "type": "address"
        },
        {
          "internalType": "address",
          "name": "_ledger",
          "type": "address"
        },
        {
          "internalType": "address",
          "name": "_vfide",
          "type": "address"
        }
      ],
      "stateMutability": "nonpayable",
      "type": "constructor"
    },
    {
      "inputs": [],
      "name": "FI_Insufficient",
      "type": "error"
    },
    {
      "inputs": [],
      "name": "FI_NotDAO",
      "type": "error"
    },
    {
      "inputs": [],
      "name": "FI_Zero",
      "type": "error"
    },
    {
      "anonymous": false,
      "inputs": [
        {
          "indexed": false,
          "internalType": "address",
          "name": "dao",
          "type": "address"
        },
        {
          "indexed": false,
          "internalType": "address",
          "name": "ledger",
          "type": "address"
        },
        {
          "indexed": false,
          "internalType": "address",
          "name": "vfideToken",
          "type": "address"
        }
      ],
      "name": "ModulesSet",
      "type": "event"
    },
    {
      "anonymous": false,
      "inputs": [
        {
          "indexed": true,
          "internalType": "address",
          "name": "notifier",
          "type": "address"
        },
        {
          "indexed": false,
          "internalType": "bool",
          "name": "authorized",
          "type": "bool"
        }
      ],
      "name": "NotifierAuthorized",
      "type": "event"
    },
    {
      "anonymous": false,
      "inputs": [
        {
          "indexed": false,
          "internalType": "uint256",
          "name": "amount",
          "type": "uint256"
        },
        {
          "indexed": false,
          "internalType": "address",
          "name": "from",
          "type": "address"
        }
      ],
      "name": "ReceivedVFIDE",
      "type": "event"
    },
    {
      "anonymous": false,
      "inputs": [
        {
          "indexed": true,
          "internalType": "address",
          "name": "token",
          "type": "address"
        },
        {
          "indexed": false,
          "internalType": "address",
          "name": "to",
          "type": "address"
        },
        {
          "indexed": false,
          "internalType": "uint256",
          "name": "amount",
          "type": "uint256"
        },
        {
          "indexed": false,
          "internalType": "string",
          "name": "reason",
          "type": "string"
        }
      ],
      "name": "Sent",
      "type": "event"
    },
    {
      "inputs": [
        {
          "internalType": "address",
          "name": "",
          "type": "address"
        }
      ],
      "name": "authorizedNotifiers",
      "outputs": [
        {
          "internalType": "bool",
          "name": "",
          "type": "bool"
        }
      ],
      "stateMutability": "view",
      "type": "function"
    },
    {
      "inputs": [
        {
          "internalType": "address",
          "name": "token",
          "type": "address"
        }
      ],
      "name": "balanceOf",
      "outputs": [
        {
          "internalType": "uint256",
          "name": "",
          "type": "uint256"
        }
      ],
      "stateMutability": "view",
      "type": "function"
    },
    {
      "inputs": [],
      "name": "dao",
      "outputs": [
        {
          "internalType": "address",
          "name": "",
          "type": "address"
        }
      ],
      "stateMutability": "view",
      "type": "function"
    },
    {
      "inputs": [
        {
          "internalType": "address[]",
          "name": "tokens",
          "type": "address[]"
        }
      ],
      "name": "getMultiTokenBalances",
      "outputs": [
        {
          "internalType": "uint256[]",
          "name": "balances",
          "type": "uint256[]"
        }
      ],
      "stateMutability": "view",
      "type": "function"
    },
    {
      "inputs": [],
      "name": "getTreasurySummary",
      "outputs": [
        {
          "internalType": "uint256",
          "name": "currentBalance",
          "type": "uint256"
        },
        {
          "internalType": "uint256",
          "name": "totalIn",
          "type": "uint256"
        },
        {
          "internalType": "uint256",
          "name": "totalOut",
          "type": "uint256"
        },
        {
          "internalType": "uint256",
          "name": "netPosition",
          "type": "uint256"
        }
      ],
      "stateMutability": "view",
      "type": "function"
    },
    {
      "inputs": [],
      "name": "ledger",
      "outputs": [
        {
          "internalType": "contract IProofLedger",
          "name": "",
          "type": "address"
        }
      ],
      "stateMutability": "view",
      "type": "function"
    },
    {
      "inputs": [
        {
          "internalType": "uint256",
          "name": "amount",
          "type": "uint256"
        },
        {
          "internalType": "address",
          "name": "from",
          "type": "address"
        }
      ],
      "name": "noteVFIDE",
      "outputs": [],
      "stateMutability": "nonpayable",
      "type": "function"
    },
    {
      "inputs": [
        {
          "internalType": "address",
          "name": "token",
          "type": "address"
        },
        {
          "internalType": "address",
          "name": "to",
          "type": "address"
        },
        {
          "internalType": "uint256",
          "name": "amount",
          "type": "uint256"
        }
      ],
      "name": "rescueToken",
      "outputs": [],
      "stateMutability": "nonpayable",
      "type": "function"
    },
    {
      "inputs": [
        {
          "internalType": "address",
          "name": "to",
          "type": "address"
        },
        {
          "internalType": "uint256",
          "name": "amount",
          "type": "uint256"
        },
        {
          "internalType": "string",
          "name": "reason",
          "type": "string"
        }
      ],
      "name": "sendVFIDE",
      "outputs": [],
      "stateMutability": "nonpayable",
      "type": "function"
    },
    {
      "inputs": [
        {
          "internalType": "address",
          "name": "_dao",
          "type": "address"
        },
        {
          "internalType": "address",
          "name": "_ledger",
          "type": "address"
        },
        {
          "internalType": "address",
          "name": "_vfide",
          "type": "address"
        }
      ],
      "name": "setModules",
      "outputs": [],
      "stateMutability": "nonpayable",
      "type": "function"
    },
    {
      "inputs": [
        {
          "internalType": "address",
          "name": "notifier",
          "type": "address"
        },
        {
          "internalType": "bool",
          "name": "authorized",
          "type": "bool"
        }
      ],
      "name": "setNotifier",
      "outputs": [],
      "stateMutability": "nonpayable",
      "type": "function"
    },
    {
      "inputs": [],
      "name": "totalDisbursed",
      "outputs": [
        {
          "internalType": "uint256",
          "name": "",
          "type": "uint256"
        }
      ],
      "stateMutability": "view",
      "type": "function"
    },
    {
      "inputs": [],
      "name": "totalReceived",
      "outputs": [
        {
          "internalType": "uint256",
          "name": "",
          "type": "uint256"
        }
      ],
      "stateMutability": "view",
      "type": "function"
    },
    {
      "inputs": [],
      "name": "vfideBalance",
      "outputs": [
        {
          "internalType": "uint256",
          "name": "",
          "type": "uint256"
        }
      ],
      "stateMutability": "view",
      "type": "function"
    },
    {
      "inputs": [],
      "name": "vfideToken",
      "outputs": [
        {
          "internalType": "contract IERC20",
          "name": "",
          "type": "address"
        }
      ],
      "stateMutability": "view",
      "type": "function"
    }
  ],
  "bytecode": "0x60803461011d57601f610f5138819003918201601f19168301916001600160401b038311848410176101225780849260609460405283398101031261011d5761004781610138565b90610060604061005960208401610138565b9201610138565b916001600160a01b03168015801561010c575b6100fb57600080546001600160a01b031990811683179091556001805482166001600160a01b0394851690811790915560028054909216939094169283179055604080519182526020820193909352918201527f4ae14344aaed3962a7f6c6977dc689bd5108ebb211a205507f01ae2a95148ce990606090a1604051610e04908161014d8239f35b633de5b7e360e11b60005260046000fd5b506001600160a01b03831615610073565b600080fd5b634e487b7160e01b600052604160045260246000fd5b51906001600160a01b038216820361011d5756fe6080604052600436101561001257600080fd5b6000803560e01c80632e47fe8314610a855780634162169f14610a5e57806356397c3514610a355780636ed4190e146109655780636f24b1e41461091057806370a08231146108725780637f6b78a414610775578063a3c2c46214610757578063a71efa3514610718578063a8336a06146105a5578063b8a71eec1461057c578063bf95c78d1461055e578063cbc8478414610353578063cc7fc6b3146101c95763e5711e8b146100c257600080fd5b346101c65760603660031901126101c6576100db610b0b565b906100e4610b21565b6044356100ef610bc3565b6001600160a01b038216801580156101be575b6101af577f02605d54d67ccbe0064a8ce6c39465102dd02b85ad8709391c5953a27083964b60a06101ac9596600180831b031692610141858786610cce565b60405190815284602082015260606040820152600660608201526572657363756560d01b6080820152a2604051610179604082610b37565b600f81526e74726561737572795f72657363756560881b6020820152604051926101a4602085610b37565b858452610c29565b80f35b633de5b7e360e11b8452600484fd5b508115610102565b80fd5b50346101c65760203660031901126101c657600435906001600160401b0382116101c657366023830112156101c6578160040135906001600160401b0382116101c6573660248360051b850101116101c65761022482610bac565b906102326040519283610b37565b82825261023e83610bac565b6020830190601f1901368237815b8481101561030f57600581901b602487820101356001600160a01b0381169081900361030b57906020602492604051938480926370a0823160e01b82523060048301525afa9182156103005785926102cb575b5085518310156102b75785016020015260010161024c565b634e487b7160e01b85526032600452602485fd5b90915060203d81116102f9575b6102e28183610b37565b602082600092810103126101c6575051903861029f565b503d6102d8565b6040513d87823e3d90fd5b8480fd5b508290604051928392602084019060208552518091526040840192915b81811061033a575050500390f35b825184528594506020938401939092019160010161032c565b50346101c65760603660031901126101c65761036d610b0b565b906044356024356001600160401b03821161055a573660238301121561055a5781600401356001600160401b0381116105565760248301926024823692010111610556576103b9610bc3565b6001600160a01b038516948515801561054e575b61053f576002546040516370a0823160e01b81523060048201526001600160a01b0390911696906020816024818b5afa9081156105345790859188916104fa575b50106104eb5761042384836101ac9899610cce565b61042f84600454610b6e565b6004557f02605d54d67ccbe0064a8ce6c39465102dd02b85ad8709391c5953a27083964b60018060a01b03600254169160405190815285602082015260606040820152846060820152848760808301378860808683010152608081601f19601f8801168101030190a2856020604051936104aa604086610b37565b600d85526c1d1c99585cdd5c9e57dcd95b99609a1b82860152806104cd81610b91565b976104db604051998a610b37565b8189528389013786010152610c29565b6333f086ed60e21b8652600486fd5b9150506020813d60201161052c575b8161051660209383610b37565b81010312610527578490513861040e565b600080fd5b3d9150610509565b6040513d89823e3d90fd5b633de5b7e360e11b8552600485fd5b5082156103cd565b8380fd5b8280fd5b50346101c657806003193601126101c6576020600454604051908152f35b50346101c657806003193601126101c6576002546040516001600160a01b039091168152602090f35b50346101c65760603660031901126101c6576105bf610b0b565b906105c8610b21565b916044356001600160a01b038116919082900361055a576105e7610bc3565b6001600160a01b03169283158015610710575b6107015782546001600160a01b0319908116851784556001805482166001600160a01b0390931692831790556002805490911683179055604080519485526020850182905284019190915290918291907f4ae14344aaed3962a7f6c6977dc689bd5108ebb211a205507f01ae2a95148ce990606090a16040519061067f604083610b37565b60148252731d1c99585cdd5c9e57db5bd91d5b195cd7dcd95d60621b6020830152806106a9575050f35b803b156106fd576106e28392918392604051958680948193633ddd61ab60e21b8352306004840152606060248401526064830190610be8565b33604483015203925af16106f4579050f35b6101ac91610b37565b5050fd5b633de5b7e360e11b8352600483fd5b5081156105fa565b50346101c65760203660031901126101c65760209060ff906040906001600160a01b03610743610b0b565b168152600584522054166040519015158152f35b50346101c657806003193601126101c6576020600354604051908152f35b50346101c65760403660031901126101c657600435610792610b21565b338352600560205260ff6040842054161561082f57816107b76101ac93600354610b6e565b600355604080518281526001600160a01b03841660208201527f2dc5d0a0a5a1df3abf2c1589e1b698f1f48a1c29279af34533bb194c2c53fdaf9190a1604051610802604082610b37565b60118152703a3932b0b9bab93cafbb3334b232afb4b760791b6020820152604051926101a4602085610b37565b60405162461bcd60e51b815260206004820152601b60248201527a23249d103737ba1030baba3437b934bd32b2103737ba34b334b2b960291b6044820152606490fd5b50346101c65760203660031901126101c657602460206001600160a01b03610898610b0b565b16604051928380926370a0823160e01b82523060048301525afa9081156109055782916108cb575b602082604051908152f35b90506020813d6020116108fd575b816108e660209383610b37565b810103126108f9576020915051386108c0565b5080fd5b3d91506108d9565b6040513d84823e3d90fd5b50346101c657806003193601126101c6576002546040516370a0823160e01b815230600482015290602090829060249082906001600160a01b03165afa9081156109055782916108cb57602082604051908152f35b50346101c657806003193601126101c6576002546040516370a0823160e01b815230600482015290602090829060249082906001600160a01b03165afa908115610905578291610a03575b50600354600454808211156109fa578082038281116109e65760809450915b604051938452602084015260408301526060820152f35b634e487b7160e01b85526011600452602485fd5b608093916109cf565b90506020813d602011610a2d575b81610a1e60209383610b37565b810103126108f95751386109b0565b3d9150610a11565b50346101c657806003193601126101c6576001546040516001600160a01b039091168152602090f35b50346101c657806003193601126101c657546040516001600160a01b039091168152602090f35b50346101c65760403660031901126101c657610a9f610b0b565b6024359081151580920361055a57610ab5610bc3565b6001600160a01b03169081156107015760207f296722f60a131c96b55c8251d5e83f4f4a3f56fc4cb77cd3d1393bd2bdc714cd91838552600582526040852060ff1981541660ff8316179055604051908152a280f35b600435906001600160a01b038216820361052757565b602435906001600160a01b038216820361052757565b90601f801991011681019081106001600160401b03821117610b5857604052565b634e487b7160e01b600052604160045260246000fd5b91908201809211610b7b57565b634e487b7160e01b600052601160045260246000fd5b6001600160401b038111610b5857601f01601f191660200190565b6001600160401b038111610b585760051b60200190565b6000546001600160a01b03163303610bd757565b6395863f6560e01b60005260046000fd5b919082519283825260005b848110610c14575050826000602080949584010152601f8019910116010190565b80602080928401015182828601015201610bf3565b600154600094936001600160a01b0390911692919083610c4c575b505050505050565b833b15610cca579185809492610ca8610c919560405198899788968795630303c28760e61b875260018060a01b03166004870152608060248701526084860190610be8565b916044850152600319848303016064850152610be8565b03925af1610cba575b80808080610c44565b81610cc491610b37565b38610cb1565b8580fd5b6000929183809360405190602082019363a9059cbb60e01b855260018060a01b03166024830152604482015260448152610d09606482610b37565b51926001600160a01b03165af13d15610dc7573d610d2681610b91565b90610d346040519283610b37565b81523d6000602083013e5b81610d8f575b5015610d4d57565b60405162461bcd60e51b815260206004820152601a60248201527914d85999515490cc8c0e881d1c985b9cd9995c8819985a5b195960321b6044820152606490fd5b8051801592508215610da4575b505038610d45565b819250906020918101031261052757602001518015158103610527573880610d9c565b6060610d3f56fea2646970667358221220dff1c7798cb0fa1b2d6a5a5e6de08f1897590b1e5c0a4dbb0eb39e142df2f61464736f6c634300081e0033",
  "linkReferences": {},
  "deployedLinkReferences": {}
}