{"abi":[{"type":"constructor","inputs":[{"name":"_dao","type":"address","internalType":"address"},{"name":"_seer","type":"address","internalType":"address"},{"name":"_ledger","type":"address","internalType":"address"}],"stateMutability":"nonpayable"},{"type":"function","name":"FIRST_RAMP_BONUS","inputs":[],"outputs":[{"name":"","type":"uint16","internalType":"uint16"}],"stateMutability":"view"},{"type":"function","name":"RAMP_TX_BONUS","inputs":[],"outputs":[{"name":"","type":"uint16","internalType":"uint16"}],"stateMutability":"view"},{"type":"function","name":"dao","inputs":[],"outputs":[{"name":"","type":"address","internalType":"address"}],"stateMutability":"view"},{"type":"function","name":"getActiveProviders","inputs":[],"outputs":[{"name":"addresses","type":"address[]","internalType":"address[]"},{"name":"names","type":"string[]","internalType":"string[]"},{"name":"widgetUrls","type":"string[]","internalType":"string[]"}],"stateMutability":"view"},{"type":"function","name":"getProviderCount","inputs":[],"outputs":[{"name":"","type":"uint256","internalType":"uint256"}],"stateMutability":"view"},{"type":"function","name":"getUserRampCount","inputs":[{"name":"user","type":"address","internalType":"address"}],"outputs":[{"name":"onRamps","type":"uint256","internalType":"uint256"},{"name":"offRamps","type":"uint256","internalType":"uint256"}],"stateMutability":"view"},{"type":"function","name":"getUserRampHistory","inputs":[{"name":"user","type":"address","internalType":"address"}],"outputs":[{"name":"","type":"bytes32[]","internalType":"bytes32[]"}],"stateMutability":"view"},{"type":"function","name":"ledger","inputs":[],"outputs":[{"name":"","type":"address","internalType":"contract IProofLedger"}],"stateMutability":"view"},{"type":"function","name":"providerList","inputs":[{"name":"","type":"uint256","internalType":"uint256"}],"outputs":[{"name":"","type":"address","internalType":"address"}],"stateMutability":"view"},{"type":"function","name":"providers","inputs":[{"name":"","type":"address","internalType":"address"}],"outputs":[{"name":"registered","type":"bool","internalType":"bool"},{"name":"name","type":"string","internalType":"string"},{"name":"licenseInfo","type":"string","internalType":"string"},{"name":"widgetUrl","type":"string","internalType":"string"},{"name":"txCount","type":"uint256","internalType":"uint256"},{"name":"registeredAt","type":"uint64","internalType":"uint64"}],"stateMutability":"view"},{"type":"function","name":"rampRecords","inputs":[{"name":"","type":"bytes32","internalType":"bytes32"}],"outputs":[{"name":"user","type":"address","internalType":"address"},{"name":"provider","type":"address","internalType":"address"},{"name":"externalTxHash","type":"bytes32","internalType":"bytes32"},{"name":"isOnRamp","type":"bool","internalType":"bool"},{"name":"timestamp","type":"uint64","internalType":"uint64"}],"stateMutability":"view"},{"type":"function","name":"recordRampTransaction","inputs":[{"name":"user","type":"address","internalType":"address"},{"name":"externalTxHash","type":"bytes32","internalType":"bytes32"},{"name":"isOnRamp","type":"bool","internalType":"bool"}],"outputs":[],"stateMutability":"nonpayable"},{"type":"function","name":"registerProvider","inputs":[{"name":"provider","type":"address","internalType":"address"},{"name":"name","type":"string","internalType":"string"},{"name":"licenseInfo","type":"string","internalType":"string"},{"name":"widgetUrl","type":"string","internalType":"string"}],"outputs":[],"stateMutability":"nonpayable"},{"type":"function","name":"removeProvider","inputs":[{"name":"provider","type":"address","internalType":"address"}],"outputs":[],"stateMutability":"nonpayable"},{"type":"function","name":"seer","inputs":[],"outputs":[{"name":"","type":"address","internalType":"contract ISeer"}],"stateMutability":"view"},{"type":"function","name":"userRampHistory","inputs":[{"name":"","type":"address","internalType":"address"},{"name":"","type":"uint256","internalType":"uint256"}],"outputs":[{"name":"","type":"bytes32","internalType":"bytes32"}],"stateMutability":"view"},{"type":"event","name":"RampProviderRegistered","inputs":[{"name":"provider","type":"address","indexed":true,"internalType":"address"},{"name":"name","type":"string","indexed":false,"internalType":"string"},{"name":"licenseInfo","type":"string","indexed":false,"internalType":"string"}],"anonymous":false},{"type":"event","name":"RampProviderRemoved","inputs":[{"name":"provider","type":"address","indexed":true,"internalType":"address"}],"anonymous":false},{"type":"event","name":"RampTransactionRecorded","inputs":[{"name":"user","type":"address","indexed":true,"internalType":"address"},{"name":"provider","type":"address","indexed":true,"internalType":"address"},{"name":"txHash","type":"bytes32","indexed":false,"internalType":"bytes32"},{"name":"isOnRamp","type":"bool","indexed":false,"internalType":"bool"}],"anonymous":false}],"bytecode":{"object":"0x6080346100ee57601f61163038819003918201601f19168301916001600160401b038311848410176100f2578084926060946040528339810103126100ee5761004781610106565b90610060604061005960208401610106565b9201610106565b916001600160a01b031680156100b9575f80546001600160a01b03199081169290921790556001805482166001600160a01b039384161790556002805490911692909116919091179055604051611515908161011b8239f35b60405162461bcd60e51b815260206004820152600d60248201526c4652523a207a65726f2044414f60981b6044820152606490fd5b5f80fd5b634e487b7160e01b5f52604160045260245ffd5b51906001600160a01b03821682036100ee5756fe6080806040526004361015610012575f80fd5b5f3560e01c9081630349edff14610f74575080630787bc2714610eba5780631e9fab7a14610e9f5780632d55ea3914610e77578063390bfd3c14610e355780634162169f14610e0e57806346ce417514610df15780634c89114c1461084357806356397c351461081b5780636e2edf87146108005780638a355a571461073f578063a25ea74a146106ce578063c397307f14610424578063d522693a14610346578063fb0e9ec1146101285763fef1bb72146100cc575f80fd5b34610124576040366003190112610124576100e5611025565b6001600160a01b03165f908152600660205260409020805460243591908210156101245760209161011591611184565b90549060031b1c604051908152f35b5f80fd5b34610124575f366003190112610124575f5f600454905b8181106102fe5750610150826112f4565b9061015e6040519283611073565b82825261016a836112f4565b6020830190601f19013682376101886101828561130b565b9461130b565b915f5f5b82811061020557505050604051938493606085019060608652518091526080850192905f5b8181106101e357505050816101d191856101df95940360208701526111c6565b9083820360408501526111c6565b0390f35b82516001600160a01b03168552879650602094850194909201916001016101b1565b610213819794959697611158565b60018060a01b0391549060031b1c165f52600360205260ff60405f205416610243575b600101959493929561018c565b906102f660019161025384611158565b848060a01b0391549060031b1c1661026b828b6112e0565b5261027584611158565b848060a01b0391549060031b1c165f5260036020526102988360405f2001611094565b6102a282886112e0565b526102ad81876112e0565b506102b784611158565b848060a01b0391549060031b1c165f5260036020526102db600360405f2001611094565b6102e5828a6112e0565b526102f081896112e0565b506112be565b919050610236565b61030781611158565b60018060a01b0391549060031b1c165f52600360205260ff60405f205416610332575b60010161013f565b9161033e6001916112be565b92905061032a565b346101245760203660031901126101245761035f611025565b6001600160a01b03165f90815260066020908152604080832090518154808252918452828420909284928491820190845b81811061040b5750506103a592500383611073565b5f905b82518210156103fb576103bb82846112e0565b515f52600560205260ff600360405f200154165f146103e8576103df6001916112be565b915b01906103a8565b90926103f56001916112be565b936103e1565b6040908482519182526020820152f35b8454835260019485019487945060209093019201610390565b346101245760603660031901126101245761043d611025565b6024359060443580151580910361012457335f52600360205260ff60405f20541615610695576001600160a01b03821691821561065f57604051602081019033825285604082015260408152610494606082611073565b51902090815f5260056020526001600160401b03600360405f20015460081c166106225760405160a081018181106001600160401b0382111761060e57604090815285825233602080840191825283830189815260608501888152426001600160401b0316608087019081525f89815260058552868120975188546001600160a01b03199081166001600160a01b03928316178a55965160018a018054909816911617909555915160028701555160039095018054915168ffffffffffffffff0060089190911b166001600160481b031990921660ff9615159690961695909517179093558681526006909252902080549290600160401b84101561060e57836105a69160016105db96018155611184565b819291549060031b91821b915f19901b1916179055335f526003602052600460405f20016105d481546112be565b9055611354565b60405192835260208301527f6c83d7adede8cea4b6d2bd193f4f8236fa77c40a964fef0e3a51e90b2ef3f17d60403393a3005b634e487b7160e01b5f52604160045260245ffd5b60405162461bcd60e51b81526020600482015260156024820152741194948e88185b1c9958591e481c9958dbdc991959605a1b6044820152606490fd5b60405162461bcd60e51b815260206004820152600e60248201526d2329291d103d32b937903ab9b2b960911b6044820152606490fd5b60405162461bcd60e51b81526020600482015260116024820152702329291d103737ba10383937bb34b232b960791b6044820152606490fd5b34610124576020366003190112610124576004355f52600560205260a060405f206001600160401b03600180841b0382541691600180851b036001820154169060036002820154910154916040519485526020850152604084015260ff81161515606084015260081c166080820152f35b3461012457602036600319011261012457610758611025565b61076c60018060a01b035f5416331461121e565b6001600160a01b03165f8181526003602052604090205460ff16156107c557805f52600360205260405f2060ff1981541690557f543c458a528a1e48671d7dae2755b7573a8d4148c333b68b4207a36e68940afd5f80a2005b60405162461bcd60e51b81526020600482015260136024820152721194948e881b9bdd081c9959da5cdd195c9959606a1b6044820152606490fd5b34610124575f36600319011261012457602060405160058152f35b34610124575f366003190112610124576002546040516001600160a01b039091168152602090f35b346101245760803660031901126101245761085c611025565b6024356001600160401b0381116101245761087b903690600401611199565b906044356001600160401b0381116101245761089b903690600401611199565b92906064356001600160401b038111610124576108bc903690600401611199565b956108d160018060a01b035f5416331461121e565b6001600160a01b0316958615610db757865f52600360205260ff60405f205416610d78576040519060c082018281106001600160401b0382111761060e5760405260018252610946610924368789611259565b9360208401948552610937368a88611259565b92604085019384523691611259565b6060830190815260808301915f835260a08401946001600160401b03421686528a5f52600360205261098b60405f2095511515869060ff801983541691151516179055565b51805160018601916001600160401b03821161060e5781906109ad845461103b565b601f8111610d28575b50602090601f8311600114610cc5575f92610cba575b50508160011b915f199060031b1c19161790555b51805160028501916001600160401b03821161060e578190610a02845461103b565b601f8111610c6a575b50602090601f8311600114610c07575f92610bfc575b50508160011b915f199060031b1c19161790555b51805160038401916001600160401b03821161060e57610a55835461103b565b601f8111610bb7575b50602090601f8311600114610b475791806001600160401b03969492600596945f92610b3c575b50508160011b915f199060031b1c19161790555b516004820155019151166001600160401b031982541617905560045490600160401b82101561060e577ffb8e4be5634aae67f76e59371dd38570ae7db8f62ac4cb418fed945056c3a52094610af7836001610b379501600455611158565b81546001600160a01b0360039290921b91821b19169089901b17905560408051818152958695610b299287019161129e565b91848303602086015261129e565b0390a2005b015190508d80610a85565b90601f19831691845f52815f20925f5b818110610b9f5750926001928592600598966001600160401b039a989610610b87575b505050811b019055610a99565b01515f1960f88460031b161c191690558d8080610b7a565b92936020600181928786015181550195019301610b57565b835f5260205f20601f840160051c81019160208510610bf2575b601f0160051c01905b818110610be75750610a5e565b5f8155600101610bda565b9091508190610bd1565b015190508c80610a21565b5f8581528281209350601f198516905b818110610c525750908460019594939210610c3a575b505050811b019055610a35565b01515f1960f88460031b161c191690558c8080610c2d565b92936020600181928786015181550195019301610c17565b909150835f5260205f20601f840160051c81019160208510610cb0575b90601f859493920160051c01905b818110610ca25750610a0b565b5f8155849350600101610c95565b9091508190610c87565b015190508d806109cc565b5f8581528281209350601f198516905b818110610d105750908460019594939210610cf8575b505050811b0190556109e0565b01515f1960f88460031b161c191690558d8080610ceb565b92936020600181928786015181550195019301610cd5565b909150835f5260205f20601f840160051c81019160208510610d6e575b90601f859493920160051c01905b818110610d6057506109b6565b5f8155849350600101610d53565b9091508190610d45565b60405162461bcd60e51b81526020600482015260176024820152761194948e88185b1c9958591e481c9959da5cdd195c9959604a1b6044820152606490fd5b60405162461bcd60e51b81526020600482015260126024820152712329291d103d32b93790383937bb34b232b960711b6044820152606490fd5b34610124575f366003190112610124576020600454604051908152f35b34610124575f366003190112610124575f546040516001600160a01b039091168152602090f35b346101245760203660031901126101245760043560045481101561012457610e5e602091611158565b905460405160039290921b1c6001600160a01b03168152f35b34610124575f366003190112610124576001546040516001600160a01b039091168152602090f35b34610124575f36600319011261012457602060405160328152f35b34610124576020366003190112610124576001600160a01b03610edb611025565b165f52600360205260405f2060ff815416610ef860018301611094565b91610f0560028201611094565b610f65610f1460038401611094565b610f576001600160401b03600560048701549601541693610f496040519889981515895260c060208a015260c0890190611134565b908782036040890152611134565b908582036060870152611134565b91608084015260a08301520390f35b34610124576020366003190112610124576001600160a01b03610f95611025565b165f52600660205260405f20908154808252602082019081935f5260205f20905f5b81811061100f5750505081610fcd910382611073565b604051918291602083019060208452518091526040830191905f5b818110610ff6575050500390f35b8251845285945060209384019390920191600101610fe8565b8254845260209093019260019283019201610fb7565b600435906001600160a01b038216820361012457565b90600182811c92168015611069575b602083101461105557565b634e487b7160e01b5f52602260045260245ffd5b91607f169161104a565b90601f801991011681019081106001600160401b0382111761060e57604052565b9060405191825f8254926110a78461103b565b808452936001811690811561111257506001146110ce575b506110cc92500383611073565b565b90505f9291925260205f20905f915b8183106110f65750509060206110cc928201015f6110bf565b60209193508060019154838589010152019101909184926110dd565b9050602092506110cc94915060ff191682840152151560051b8201015f6110bf565b805180835260209291819084018484015e5f828201840152601f01601f1916010190565b6004548110156111705760045f5260205f2001905f90565b634e487b7160e01b5f52603260045260245ffd5b8054821015611170575f5260205f2001905f90565b9181601f84011215610124578235916001600160401b038311610124576020838186019501011161012457565b9080602083519182815201916020808360051b8301019401925f915b8383106111f157505050505090565b909192939460208061120f600193601f198682030187528951611134565b970193019301919392906111e2565b1561122557565b60405162461bcd60e51b815260206004820152600c60248201526b4652523a206e6f742044414f60a01b6044820152606490fd5b9291926001600160401b03821161060e5760405191611282601f8201601f191660200184611073565b829481845281830111610124578281602093845f960137010152565b908060209392818452848401375f828201840152601f01601f1916010190565b5f1981146112cc5760010190565b634e487b7160e01b5f52601160045260245ffd5b80518210156111705760209160051b010190565b6001600160401b03811161060e5760051b60200190565b90611315826112f4565b6113226040519182611073565b8281528092611333601f19916112f4565b01905f5b82811061134357505050565b806060602080938501015201611337565b6001545f91906001600160a01b031680156114da57604051630d47875d60e41b81526001600160a01b039092166004830181905291602081602481855afa9081156114cf575f91611490575b5061ffff60649116105f1461142c57506001546001600160a01b031690813b1561142857829160a483926040519485938492630eccbd3560e11b845260048401526032602484015260606044840152600a606484015269066697273745f72616d760b41b60848401525af1611413575050565b61141e828092611073565b6114255750565b80fd5b8280fd5b8092503b15610124575f9160a483926040519485938492630eccbd3560e11b845260048401526005602484015260606044840152600d60648401526c72616d705f636f6d706c65746560981b60848401525af16114865750565b5f6110cc91611073565b90506020813d6020116114c7575b816114ab60209383611073565b81010312610124575161ffff811681036101245761ffff6113a0565b3d915061149e565b6040513d5f823e3d90fd5b50505056fea2646970667358221220639fc8da6073f937d6e8647d35ee17afac612aa9df036b360cdff3433687dc3d64736f6c634300081e0033","linkReferences":{}},"methodIdentifiers":{"FIRST_RAMP_BONUS()":"1e9fab7a","RAMP_TX_BONUS()":"6e2edf87","dao()":"4162169f","getActiveProviders()":"fb0e9ec1","getProviderCount()":"46ce4175","getUserRampCount(address)":"d522693a","getUserRampHistory(address)":"0349edff","ledger()":"56397c35","providerList(uint256)":"390bfd3c","providers(address)":"0787bc27","rampRecords(bytes32)":"a25ea74a","recordRampTransaction(address,bytes32,bool)":"c397307f","registerProvider(address,string,string,string)":"4c89114c","removeProvider(address)":"8a355a57","seer()":"2d55ea39","userRampHistory(address,uint256)":"fef1bb72"},"id":16}