{"abi":[{"type":"constructor","inputs":[{"name":"_dao","type":"address","internalType":"address"},{"name":"_vfide","type":"address","internalType":"address"},{"name":"_priceOracle","type":"address","internalType":"address"},{"name":"_recommendedRouter","type":"address","internalType":"address"}],"stateMutability":"nonpayable"},{"type":"function","name":"addTokenRoute","inputs":[{"name":"token","type":"address","internalType":"address"},{"name":"symbol","type":"string","internalType":"string"},{"name":"decimals","type":"uint8","internalType":"uint8"},{"name":"path","type":"address[]","internalType":"address[]"}],"outputs":[],"stateMutability":"nonpayable"},{"type":"function","name":"buildSwapCalldata","inputs":[{"name":"tokenIn","type":"address","internalType":"address"},{"name":"amountIn","type":"uint256","internalType":"uint256"},{"name":"minAmountOut","type":"uint256","internalType":"uint256"},{"name":"recipient","type":"address","internalType":"address"}],"outputs":[{"name":"routerAddress","type":"address","internalType":"address"},{"name":"callData","type":"bytes","internalType":"bytes"}],"stateMutability":"view"},{"type":"function","name":"dao","inputs":[],"outputs":[{"name":"","type":"address","internalType":"address"}],"stateMutability":"view"},{"type":"function","name":"getSupportedTokens","inputs":[],"outputs":[{"name":"addresses","type":"address[]","internalType":"address[]"},{"name":"symbols","type":"string[]","internalType":"string[]"},{"name":"needsSwap","type":"bool[]","internalType":"bool[]"}],"stateMutability":"view"},{"type":"function","name":"getSwapRoute","inputs":[{"name":"tokenIn","type":"address","internalType":"address"}],"outputs":[{"name":"path","type":"address[]","internalType":"address[]"},{"name":"router","type":"address","internalType":"address"}],"stateMutability":"view"},{"type":"function","name":"previewSwap","inputs":[{"name":"tokenIn","type":"address","internalType":"address"},{"name":"amountIn","type":"uint256","internalType":"uint256"}],"outputs":[{"name":"estimatedVfide","type":"uint256","internalType":"uint256"},{"name":"usdValue","type":"uint256","internalType":"uint256"},{"name":"path","type":"address[]","internalType":"address[]"}],"stateMutability":"view"},{"type":"function","name":"priceOracle","inputs":[],"outputs":[{"name":"","type":"address","internalType":"contract VFIDEPriceOracle"}],"stateMutability":"view"},{"type":"function","name":"recommendedRouter","inputs":[],"outputs":[{"name":"","type":"address","internalType":"address"}],"stateMutability":"view"},{"type":"function","name":"recordDirectPayment","inputs":[{"name":"merchant","type":"address","internalType":"address"},{"name":"paymentToken","type":"address","internalType":"address"},{"name":"paymentAmount","type":"uint256","internalType":"uint256"},{"name":"orderId","type":"string","internalType":"string"}],"outputs":[],"stateMutability":"nonpayable"},{"type":"function","name":"removeTokenRoute","inputs":[{"name":"token","type":"address","internalType":"address"}],"outputs":[],"stateMutability":"nonpayable"},{"type":"function","name":"routes","inputs":[{"name":"","type":"address","internalType":"address"}],"outputs":[{"name":"supported","type":"bool","internalType":"bool"},{"name":"symbol","type":"string","internalType":"string"},{"name":"decimals","type":"uint8","internalType":"uint8"}],"stateMutability":"view"},{"type":"function","name":"setRecommendedRouter","inputs":[{"name":"router","type":"address","internalType":"address"}],"outputs":[],"stateMutability":"nonpayable"},{"type":"function","name":"supportedTokens","inputs":[{"name":"","type":"uint256","internalType":"uint256"}],"outputs":[{"name":"","type":"address","internalType":"address"}],"stateMutability":"view"},{"type":"function","name":"vfideToken","inputs":[],"outputs":[{"name":"","type":"address","internalType":"address"}],"stateMutability":"view"},{"type":"event","name":"DirectPaymentRecorded","inputs":[{"name":"customer","type":"address","indexed":true,"internalType":"address"},{"name":"merchant","type":"address","indexed":true,"internalType":"address"},{"name":"paymentToken","type":"address","indexed":false,"internalType":"address"},{"name":"paymentAmount","type":"uint256","indexed":false,"internalType":"uint256"},{"name":"orderId","type":"string","indexed":false,"internalType":"string"}],"anonymous":false},{"type":"event","name":"SwapRouterUpdated","inputs":[{"name":"oldRouter","type":"address","indexed":true,"internalType":"address"},{"name":"newRouter","type":"address","indexed":true,"internalType":"address"}],"anonymous":false},{"type":"event","name":"TokenRouteAdded","inputs":[{"name":"token","type":"address","indexed":true,"internalType":"address"},{"name":"symbol","type":"string","indexed":false,"internalType":"string"},{"name":"path","type":"address[]","indexed":false,"internalType":"address[]"}],"anonymous":false},{"type":"event","name":"TokenRouteRemoved","inputs":[{"name":"token","type":"address","indexed":true,"internalType":"address"}],"anonymous":false}],"bytecode":{"object":"0x6080604052346103c0576114bf6080813803918261001c816103c4565b9384928339810103126103c057610032816103e9565b61003e602083016103e9565b610056606061004f604086016103e9565b94016103e9565b916001600160a01b0316801515806103ae575b1561037d575f80546001600160a01b03199081169290921790556001805482166001600160a01b039384169081179091556002805483169584169590951790945560038054909116929091169190911790556020906100c7826103c4565b915f83525f36813760405192608084016001600160401b0381118582101761026c576040908152600185528051949085016001600160401b0381118682101761026c576040526005855264564649444560d81b83860152828101948552604081016012815260608201928352845f526004845260405f209151151560ff8019845416911617825560018201955195865160018060401b03811161026c578154600181811c91168015610373575b8782101461035f57601f8111610326575b5085601f82116001146102c15781906003969798995f926102b6575b50508160011b915f1990871b1c19161790555b60ff6002830191511660ff198254161790550190519081519160018060401b03831161026c5768010000000000000000831161026c578390825484845580851061029b575b5001905f52825f205f5b838110610280578585600554906801000000000000000082101561026c5760018201806005558210156102585760055f908152200180546001600160a01b03191690911790556040516110ab90816104148239f35b634e487b7160e01b5f52603260045260245ffd5b634e487b7160e01b5f52604160045260245ffd5b82516001600160a01b03168282015591840191600101610203565b6102b090845f5285845f2091820191016103fd565b5f6101f9565b015190505f806101a1565b601f19821698835f52875f20995f5b81811061030f57509160039798999a918460019594106102f8575b505050811b0190556101b4565b01515f1983891b60f8161c191690555f80806102eb565b838301518c556001909b019a9289019289016102d0565b61034f90835f52875f20601f840160051c810191898510610355575b601f0160051c01906103fd565b5f610185565b9091508190610342565b634e487b7160e01b5f52602260045260245ffd5b90607f1690610174565b60405162461bcd60e51b81526020600482015260096024820152684d43523a207a65726f60b81b6044820152606490fd5b506001600160a01b0382161515610069565b5f80fd5b6040519190601f01601f191682016001600160401b0381118382101761026c57604052565b51906001600160a01b03821682036103c057565b818110610408575050565b5f81556001016103fd56fe6080806040526004361015610012575f80fd5b5f3560e01c9081632630c12f14610d4557508063295f36de14610cc35780634162169f14610c9c5780636b7edcc714610bf657806390d728aa14610af1578063a98683cd14610a80578063b5e7a76114610612578063b8a71eec146105ea578063c5a0fd74146105c2578063c625562614610580578063d3c7c2c7146102d5578063d740965914610267578063dfae8ae81461012f5763f07a34ef146100b6575f80fd5b3461012b57602036600319011261012b576100cf610d68565b6100e360018060a01b035f54163314610feb565b600380546001600160a01b039283166001600160a01b0319821681179092559091167fca394f95d8dbf1e8b2e76b9a8da90cacce1da85181a65508dab13212dc1df53b5f80a3005b5f80fd5b3461012b57608036600319011261012b57610148610d68565b6064356001600160a01b038116919082900361012b5760018060a01b03165f526004602052600360405f2061018060ff825416610f44565b0180541561022c576003546001600160a01b0316904261012c810191908210610218576101df936101f8926040519586936338ed173960e01b60208601526024356024860152604435604486015260a0606486015260c4850190610f8b565b91608484015260a483015203601f198101845283610e83565b6102146040519283928352604060208401526040830190610e27565b0390f35b634e487b7160e01b5f52601160045260245ffd5b60405162461bcd60e51b81526020600482015260136024820152721350d48e881b9bc81cddd85c081b9959591959606a1b6044820152606490fd5b3461012b57602036600319011261012b576001600160a01b03610288610d68565b165f52600460205260405f2060ff81541660ff60026102a960018501610ea4565b930154166102cb60405193849315158452606060208501526060840190610e27565b9060408301520390f35b3461012b575f36600319011261012b575f5f600554905b81811061053857506102fd82611026565b9161030b6040519384610e83565b808352601f1961031a82611026565b0136602085013761032a81611026565b906103386040519283610e83565b808252601f1961034782611026565b015f5b81811061052757505061037561035f82611026565b9161036d6040519384610e83565b808352611026565b602082019390601f19013685375f5f5b828110610448576103a787878787604051948594606086526060860190610d92565b8481036020860152825180825260208201916020808360051b8301019501925f915b838310610413575050505050602090848303604086015251918281520191905f5b8181106103f8575050500390f35b825115158452859450602093840193909201916001016103ea565b9193969750919394602080610434600193601f198682030187528a51610e27565b9801930193019092889796959492936103c9565b61045181610dfb565b60018060a01b0391549060031b1c165f52600460205260ff60405f20541661047c575b600101610385565b9061051f60019161048c84610dfb565b848060a01b0391549060031b1c166104a4828b611061565b526104ae84610dfb565b848060a01b0391549060031b1c165f5260046020526104d18360405f2001610ea4565b6104db8289611061565b526104e68188611061565b506104f084610dfb565b848060a01b0391549060031b1c165f526004602052600360405f20015415156105198288611061565b52611053565b919050610474565b80606060208093870101520161034a565b61054181610dfb565b60018060a01b0391549060031b1c165f52600460205260ff60405f20541661056c575b6001016102ec565b91610578600191611053565b929050610564565b3461012b57602036600319011261012b5760043560055481101561012b576105a9602091610dfb565b905460405160039290921b1c6001600160a01b03168152f35b3461012b575f36600319011261012b576003546040516001600160a01b039091168152602090f35b3461012b575f36600319011261012b576001546040516001600160a01b039091168152602090f35b3461012b57608036600319011261012b5761062b610d68565b6024356001600160401b03811161012b5761064a903690600401610dce565b906044359260ff841680940361012b57606435916001600160401b03831161012b573660238401121561012b578260040135916001600160401b03831161012b576024808501948460051b01019036821161012b576106b360018060a01b035f54163314610feb565b6001600160a01b0316958615610a4957865f52600460205260ff60405f205416610a0f5760405190608082018281106001600160401b038211176108fe57604052600182526001600160401b0387116108fe5760405161071d601f8901601f191660200182610e83565b878152368886011161012b57878560208301375f60208983010152602083019081526040830191825261074f86611026565b9361075d6040519586610e83565b86855287602086015b8282106109f75750505060608301938452885f52600460205260405f209251151560ff801985541691161783556001830190518051906001600160401b0382116108fe576107b48354610e4b565b601f81116109bc575b50602090601f831160011461095557600395949392915f918361094a575b50508160011b915f1990871b1c19161790555b60ff6002830191511660ff19825416179055019051908151916001600160401b0383116108fe57600160401b83116108fe57602090825484845580851061092f575b5001905f5260205f205f5b838110610912575050600554915050600160401b8110156108fe5760209161086c8260016108999401600555610dfb565b81546001600160a01b0360039290921b91821b19169089901b179055604080518181529690870191610fcb565b848103828601528281520191905f5b8181106108d857857f13b3b436880dd9c89b3666de62d74448b273c5395e582d6ff837d443d294d93286860387a2005b909192602080600192838060a01b036108f088610d7e565b1681520194019291016108a8565b634e487b7160e01b5f52604160045260245ffd5b82516001600160a01b03168183015560209092019160010161083b565b61094490845f5285845f20918201910161103d565b89610830565b015190508c806107db565b90601f19831691845f52815f20925f5b8181106109a45750916001939185600399989796941061098d575b505050811b0190556107ee565b01515f1983891b60f8161c191690558c8080610980565b92936020600181928786015181550195019301610965565b6109e790845f5260205f20601f850160051c810191602086106109ed575b601f0160051c019061103d565b8b6107bd565b90915081906109da565b60208091610a0484610d7e565b815201910190610766565b60405162461bcd60e51b81526020600482015260126024820152711350d48e88185b1c9958591e48185919195960721b6044820152606490fd5b60405162461bcd60e51b815260206004820152600f60248201526e26a1a91d103d32b937903a37b5b2b760891b6044820152606490fd5b3461012b57602036600319011261012b57610a99610d68565b610aad60018060a01b035f54163314610feb565b6001600160a01b03165f818152600460205260408120805460ff191690557fa829e9aaf7de261483d4977e8756635372a7a3d9654b9443a77386ea8884e36c9080a2005b3461012b57604036600319011261012b5760246003610b0e610d68565b82359060018060a01b03165f526004602052610b4b60405f20610b3460ff825416610f44565b610b446040518095819301610f8b565b0383610e83565b8151610bf057905b60025460405163d3e5aeb760e01b8152600481018490529360209185919082906001600160a01b03165afa928315610be5575f93610baf575b506102149060405193849384526020840152606060408401526060830190610d92565b9092506020813d602011610bdd575b81610bcb60209383610e83565b8101031261012b575191610214610b8c565b3d9150610bbe565b6040513d5f823e3d90fd5b90610b53565b3461012b57608036600319011261012b57610c0f610d68565b6024356001600160a01b038116919082900361012b576064356001600160401b03811161012b57610c657f5cd213fc772ec2b1f1e46c71dabb4735ca4a4e8d431dbf9c37485e95537a38e6913690600401610dce565b929093610c97604051928392835260443560208401526060604084015260018060a01b03169533956060840191610fcb565b0390a3005b3461012b575f36600319011261012b575f546040516001600160a01b039091168152602090f35b3461012b57602036600319011261012b576001600160a01b03610ce4610d68565b165f526004602052610d3b6003610d1c60405f20610d0560ff825416610f44565b610d156040518094819301610f8b565b0382610e83565b60018060a01b0360035416604051928392604084526040840190610d92565b9060208301520390f35b3461012b575f36600319011261012b576002546001600160a01b03168152602090f35b600435906001600160a01b038216820361012b57565b35906001600160a01b038216820361012b57565b90602080835192838152019201905f5b818110610daf5750505090565b82516001600160a01b0316845260209384019390920191600101610da2565b9181601f8401121561012b578235916001600160401b03831161012b576020838186019501011161012b57565b600554811015610e135760055f5260205f2001905f90565b634e487b7160e01b5f52603260045260245ffd5b805180835260209291819084018484015e5f828201840152601f01601f1916010190565b90600182811c92168015610e79575b6020831014610e6557565b634e487b7160e01b5f52602260045260245ffd5b91607f1691610e5a565b90601f801991011681019081106001600160401b038211176108fe57604052565b9060405191825f825492610eb784610e4b565b8084529360018116908115610f225750600114610ede575b50610edc92500383610e83565b565b90505f9291925260205f20905f915b818310610f06575050906020610edc928201015f610ecf565b6020919350806001915483858901015201910190918492610eed565b905060209250610edc94915060ff191682840152151560051b8201015f610ecf565b15610f4b57565b60405162461bcd60e51b81526020600482015260186024820152771350d48e881d1bdad95b881b9bdd081cdd5c1c1bdc9d195960421b6044820152606490fd5b90602082549182815201915f5260205f20905f5b818110610fac5750505090565b82546001600160a01b0316845260209093019260019283019201610f9f565b908060209392818452848401375f828201840152601f01601f1916010190565b15610ff257565b60405162461bcd60e51b815260206004820152600c60248201526b4d43523a206e6f742044414f60a01b6044820152606490fd5b6001600160401b0381116108fe5760051b60200190565b818110611048575050565b5f815560010161103d565b5f1981146102185760010190565b8051821015610e135760209160051b01019056fea264697066735822122023b28d35180a11947ce1863ad6c6489a7d0aa897b4089080834ecfa70c93830264736f6c634300081e0033","linkReferences":{}},"methodIdentifiers":{"addTokenRoute(address,string,uint8,address[])":"b5e7a761","buildSwapCalldata(address,uint256,uint256,address)":"dfae8ae8","dao()":"4162169f","getSupportedTokens()":"d3c7c2c7","getSwapRoute(address)":"295f36de","previewSwap(address,uint256)":"90d728aa","priceOracle()":"2630c12f","recommendedRouter()":"c5a0fd74","recordDirectPayment(address,address,uint256,string)":"6b7edcc7","removeTokenRoute(address)":"a98683cd","routes(address)":"d7409659","setRecommendedRouter(address)":"f07a34ef","supportedTokens(uint256)":"c6255626","vfideToken()":"b8a71eec"},"id":16}