{"abi":[{"type":"constructor","inputs":[{"name":"_dao","type":"address","internalType":"address"},{"name":"_vaultHub","type":"address","internalType":"address"}],"stateMutability":"nonpayable"},{"type":"function","name":"authorizedSpendRecorders","inputs":[{"name":"","type":"address","internalType":"address"}],"outputs":[{"name":"","type":"bool","internalType":"bool"}],"stateMutability":"view"},{"type":"function","name":"canSpend","inputs":[{"name":"sessionKey","type":"address","internalType":"address"},{"name":"amount","type":"uint256","internalType":"uint256"}],"outputs":[{"name":"allowed","type":"bool","internalType":"bool"},{"name":"reason","type":"string","internalType":"string"}],"stateMutability":"view"},{"type":"function","name":"createQuickSession","inputs":[{"name":"sessionKey","type":"address","internalType":"address"}],"outputs":[{"name":"expiry","type":"uint64","internalType":"uint64"}],"stateMutability":"nonpayable"},{"type":"function","name":"createSession","inputs":[{"name":"sessionKey","type":"address","internalType":"address"},{"name":"spendLimit","type":"uint256","internalType":"uint256"},{"name":"duration","type":"uint64","internalType":"uint64"},{"name":"maxPerTx","type":"uint256","internalType":"uint256"}],"outputs":[{"name":"expiry","type":"uint64","internalType":"uint64"}],"stateMutability":"nonpayable"},{"type":"function","name":"dao","inputs":[],"outputs":[{"name":"","type":"address","internalType":"address"}],"stateMutability":"view"},{"type":"function","name":"defaultDuration","inputs":[],"outputs":[{"name":"","type":"uint64","internalType":"uint64"}],"stateMutability":"view"},{"type":"function","name":"defaultMaxPerTx","inputs":[],"outputs":[{"name":"","type":"uint256","internalType":"uint256"}],"stateMutability":"view"},{"type":"function","name":"defaultSpendLimit","inputs":[],"outputs":[{"name":"","type":"uint256","internalType":"uint256"}],"stateMutability":"view"},{"type":"function","name":"getOwnerSessions","inputs":[{"name":"owner","type":"address","internalType":"address"}],"outputs":[{"name":"keys","type":"address[]","internalType":"address[]"},{"name":"spendLimits","type":"uint256[]","internalType":"uint256[]"},{"name":"spent","type":"uint256[]","internalType":"uint256[]"},{"name":"expiries","type":"uint64[]","internalType":"uint64[]"},{"name":"active","type":"bool[]","internalType":"bool[]"}],"stateMutability":"view"},{"type":"function","name":"getSessionOwner","inputs":[{"name":"sessionKey","type":"address","internalType":"address"}],"outputs":[{"name":"","type":"address","internalType":"address"}],"stateMutability":"view"},{"type":"function","name":"getSessionStatus","inputs":[{"name":"sessionKey","type":"address","internalType":"address"}],"outputs":[{"name":"owner","type":"address","internalType":"address"},{"name":"remaining","type":"uint256","internalType":"uint256"},{"name":"maxPerTransaction","type":"uint256","internalType":"uint256"},{"name":"expiresAt","type":"uint64","internalType":"uint64"},{"name":"isActive","type":"bool","internalType":"bool"}],"stateMutability":"view"},{"type":"function","name":"recordSpend","inputs":[{"name":"sessionKey","type":"address","internalType":"address"},{"name":"amount","type":"uint256","internalType":"uint256"}],"outputs":[{"name":"","type":"bool","internalType":"bool"}],"stateMutability":"nonpayable"},{"type":"function","name":"revokeAllSessions","inputs":[],"outputs":[],"stateMutability":"nonpayable"},{"type":"function","name":"revokeSession","inputs":[{"name":"sessionKey","type":"address","internalType":"address"}],"outputs":[],"stateMutability":"nonpayable"},{"type":"function","name":"sessions","inputs":[{"name":"","type":"address","internalType":"address"}],"outputs":[{"name":"owner","type":"address","internalType":"address"},{"name":"spendLimit","type":"uint256","internalType":"uint256"},{"name":"spent","type":"uint256","internalType":"uint256"},{"name":"expiry","type":"uint64","internalType":"uint64"},{"name":"revoked","type":"bool","internalType":"bool"},{"name":"maxPerTx","type":"uint256","internalType":"uint256"}],"stateMutability":"view"},{"type":"function","name":"setAuthorizedRecorder","inputs":[{"name":"recorder","type":"address","internalType":"address"},{"name":"authorized","type":"bool","internalType":"bool"}],"outputs":[],"stateMutability":"nonpayable"},{"type":"function","name":"setDefaultLimits","inputs":[{"name":"spendLimit","type":"uint256","internalType":"uint256"},{"name":"duration","type":"uint64","internalType":"uint64"},{"name":"maxPerTx","type":"uint256","internalType":"uint256"}],"outputs":[],"stateMutability":"nonpayable"},{"type":"function","name":"vaultHub","inputs":[],"outputs":[{"name":"","type":"address","internalType":"contract IVaultHub"}],"stateMutability":"view"},{"type":"event","name":"DefaultLimitsUpdated","inputs":[{"name":"spendLimit","type":"uint256","indexed":false,"internalType":"uint256"},{"name":"duration","type":"uint64","indexed":false,"internalType":"uint64"}],"anonymous":false},{"type":"event","name":"SessionCreated","inputs":[{"name":"owner","type":"address","indexed":true,"internalType":"address"},{"name":"sessionKey","type":"address","indexed":true,"internalType":"address"},{"name":"spendLimit","type":"uint256","indexed":false,"internalType":"uint256"},{"name":"expiry","type":"uint64","indexed":false,"internalType":"uint64"}],"anonymous":false},{"type":"event","name":"SessionRevoked","inputs":[{"name":"owner","type":"address","indexed":true,"internalType":"address"},{"name":"sessionKey","type":"address","indexed":true,"internalType":"address"}],"anonymous":false},{"type":"event","name":"SessionUsed","inputs":[{"name":"owner","type":"address","indexed":true,"internalType":"address"},{"name":"sessionKey","type":"address","indexed":true,"internalType":"address"},{"name":"amount","type":"uint256","indexed":false,"internalType":"uint256"},{"name":"remaining","type":"uint256","indexed":false,"internalType":"uint256"}],"anonymous":false}],"bytecode":{"object":"0x60803461011157601f6115ad38819003918201601f19168301916001600160401b0383118484101761011557808492604094855283398101031261011157610052602061004b83610129565b9201610129565b683635c9adc5dea00000600555600680546001600160401b0319166201518017905568056bc75e2d63100000600755906001600160a01b0316801515806100ff575b156100ce5760018060a01b03195f5416175f5560018060a01b031660018060a01b0319600154161760015560405161146f908161013e8239f35b60405162461bcd60e51b8152602060048201526009602482015268534b4d3a207a65726f60b81b6044820152606490fd5b506001600160a01b0382161515610094565b5f80fd5b634e487b7160e01b5f52604160045260245ffd5b51906001600160a01b03821682036101115756fe60806040526004361015610011575f80fd5b5f3560e01c80631881656b146110735780631c82fb6314610ca25780631cfd8ded14610a365780631fa5d6a414610951578063272d023a146108b25780632af7e2ea1461088a57806330d2cb7c1461084a578063378b8dea146107885780634162169f14610761578063431a1b97146106df5780636dd6e80b146106b7578063869c19901461067a5780638b2b4272146105a65780639848d025146104f4578063a7a7d3bc146104d7578063eba3220c146103cd578063f2511b78146103b05763ffefdf3b146100df575f80fd5b346103ac5760203660031901126103ac576001600160a01b036101006110d3565b165f52600360205260405f20604051808260208294549384815201905f5260205f20925f5b81811061038a57505061013a9250038261111c565b805190610146826113d0565b90610154604051928361111c565b828252610160836113d0565b6020830190601f1901368237610175846113e7565b9361017f816113e7565b610188826113d0565b90610196604051928361111c565b8282526101a2836113d0565b602083019490601f19013686376101b8846113d0565b936101c6604051958661111c565b8085526101d2816113d0565b602086019790601f19013689375f5b8281106102d45750505060405197889760a089019060a08a525180915260c0890192905f5b8181106102b25750505091610227826020948a6102359503868c01526110e9565b9088820360408a01526110e9565b91868303606088015251918281520192905f5b81811061029057505050602090848303608086015251918281520191905f5b818110610275575050500390f35b82511515845285945060209384019390920191600101610267565b82516001600160401b0316855287965060209485019490920191600101610248565b82516001600160a01b031685528b9a5060209485019490920191600101610206565b600190818060a09d969798999a9b9c9d1b036102f082856113bc565b51165f526002602052600360405f208d61031c84868060a01b03610314828a6113bc565b5116926113bc565b528381015461032b84896113bc565b52600281015461033b848b6113bc565b52015460ff838060401b0382169182610354858d6113bc565b5260401c16159081610380575b5061036c828b6113bc565b9015159052019998979695949392996101e1565b905042105f610361565b84546001600160a01b0316835260019485019486945060209093019201610125565b5f80fd5b346103ac575f3660031901126103ac576020600754604051908152f35b346103ac575f3660031901126103ac57335f52600360205260405f20604051808260208294549384815201905f5260205f20925f5b8181106104b55750506104179250038261111c565b5f5b81518110156104b3576001906001600160a01b0361043782856113bc565b51165f52600260205260ff600360405f20015460401c161561045a575b01610419565b818060a01b0361046a82856113bc565b51165f526002602052600360405f20018260401b60ff60401b19825416179055818060a01b0361049a82856113bc565b5116335f51602061141a5f395f51905f525f80a3610454565b005b84546001600160a01b0316835260019485019486945060209093019201610402565b346103ac575f3660031901126103ac576020600554604051908152f35b346103ac5760603660031901126103ac576024356001600160401b038116906004358282036103ac577f2b8fc12291a1f1168218e46885b4b54c3ce3f2ab61fd3c21e26cdac03ad4721e9261055360018060a01b035f54163314611381565b61056969021e19e0c9bab2400000831115611319565b61057862093a808211156112d4565b8160055560018060401b031960065416176006556044356007556105a16040519283928361135b565b0390a1005b346103ac5760203660031901126103ac576105bf6110d3565b600554600654600754604051631c82fb6360e01b81526001600160a01b03909416600485015260248401929092526001600160401b0316604483015260648201526020816084815f305af1801561066f575f9061062c575b6040516001600160401b039091168152602090f35b506020813d602011610667575b816106466020938361111c565b810103126103ac57516001600160401b03811681036103ac57602090610617565b3d9150610639565b6040513d5f823e3d90fd5b346103ac5760203660031901126103ac576001600160a01b0361069b6110d3565b165f526004602052602060ff60405f2054166040519015158152f35b346103ac575f3660031901126103ac576001546040516001600160a01b039091168152602090f35b346103ac5760203660031901126103ac576001600160a01b036107006110d3565b165f52600260205260c060405f2060018060a01b038154169060ff600182015491600281015460046003830154920154936040519586526020860152604085015260018060401b038116606085015260401c161515608083015260a0820152f35b346103ac575f3660031901126103ac575f546040516001600160a01b039091168152602090f35b346103ac5760203660031901126103ac576001600160a01b036107a96110d3565b165f908152600260208190526040909120805491810154600182015460a0936001600160a01b0316929181811061083b5750505f905b600360048201549101549060ff60018060401b0383169260401c16159283610830575b83610826575b60405194855260208501526040840152606083015215156080820152f35b8415159350610808565b925081421092610802565b61084491611374565b906107df565b346103ac5760203660031901126103ac576001600160a01b0361086b6110d3565b165f526002602052602060018060a01b0360405f205416604051908152f35b346103ac575f3660031901126103ac576006546040516001600160401b039091168152602090f35b346103ac5760403660031901126103ac576108cb6110d3565b602435908115158092036103ac576108ed60018060a01b035f54163314611381565b6001600160a01b03168015610918575f52600460205260405f209060ff801983541691161790555f80f35b60405162461bcd60e51b8152602060048201526011602482015270534b4d3a207a65726f206164647265737360781b6044820152606490fd5b346103ac5760203660031901126103ac576001600160a01b036109726110d3565b165f81815260026020526040902080546001600160a01b03163303610a0057600301805460ff8160401c166109c45760ff60401b1916600160401b179055335f51602061141a5f395f51905f525f80a3005b60405162461bcd60e51b815260206004820152601460248201527314d2d34e88185b1c9958591e481c995d9bdad95960621b6044820152606490fd5b60405162461bcd60e51b815260206004820152600e60248201526d29a5a69d103737ba1037bbb732b960911b6044820152606490fd5b346103ac5760403660031901126103ac57610a4f6110d3565b60243590335f52600460205260ff60405f20541615610c5e576001600160a01b039081165f8181526002602052604090208054919391909216918215610c2057600381015460ff8160401c16610be4576001600160401b0316421015610ba85760048101548211610b6757600281019182546001610acd838361113f565b930154809311610b27577f5d960612c7c55d293c0a44e9a992edf11e7d881d0d05412f3dc07de50782c32193604093610b0984610b119461113f565b809255611374565b82519182526020820152a3602060405160018152f35b60405162461bcd60e51b815260206004820152601860248201527714d2d34e88195e18d959591cc81cdc195b99081b1a5b5a5d60421b6044820152606490fd5b60405162461bcd60e51b815260206004820152601960248201527814d2d34e88195e18d959591cc81c195c8b5d1e081b1a5b5a5d603a1b6044820152606490fd5b60405162461bcd60e51b815260206004820152601460248201527314d2d34e881cd95cdcda5bdb88195e1c1a5c995960621b6044820152606490fd5b60405162461bcd60e51b815260206004820152601460248201527314d2d34e881cd95cdcda5bdb881c995d9bdad95960621b6044820152606490fd5b60405162461bcd60e51b815260206004820152601660248201527514d2d34e881cd95cdcda5bdb881b9bdd08199bdd5b9960521b6044820152606490fd5b60405162461bcd60e51b815260206004820152601c60248201527b29a5a69d103737ba1030baba3437b934bd32b2103932b1b7b93232b960211b6044820152606490fd5b346103ac5760803660031901126103ac57610cbb6110d3565b6044356024356001600160401b0382168083036103ac579092606435926001600160a01b039091169184831561103e57338414611003575f848152600260205260409020546001600160a01b0316610fc657600154604051630709df4560e01b815233600482015290602090829060249082906001600160a01b03165afa90811561066f575f91610f84575b506001600160a01b031615610f4f5715610f45575b15610f33575b8215610f29575b6001600160401b0316610d8162093a808211156112d4565b610d9769021e19e0c9bab2400000851115611319565b6001600160401b034281169190910193908411610f155760405160c081016001600160401b03811182821017610f015760409081523380835260208084018581525f8585018181526001600160401b038b81166060890181815260808a0185815260a08b019d8e528c865260028089528a87209b518c546001600160a01b039091166001600160a01b0319909116178c55965160018c01559351958a019590955593516003808a018054945160ff60401b9015158b1b16929093166001600160481b0319909416939093171790559851600490960195909555918452959095529020805490600160401b821015610f015760018201808255821015610eed576020957ff5b9963b0cc7447cc023101661d14d324925cd589c57db590e19490d4e503a9092610ee2925f52875f20018560018060a01b031982541617905560405191829133958361135b565b0390a3604051908152f35b634e487b7160e01b5f52603260045260245ffd5b634e487b7160e01b5f52604160045260245ffd5b634e487b7160e01b5f52601160045260245ffd5b6007549250610d69565b506006546001600160401b0316610d62565b6005549450610d5c565b60405162461bcd60e51b815260206004820152600d60248201526c14d2d34e881b9bc81d985d5b1d609a1b6044820152606490fd5b90506020813d602011610fbe575b81610f9f6020938361111c565b810103126103ac57516001600160a01b03811681036103ac5787610d47565b3d9150610f92565b60405162461bcd60e51b815260206004820152601560248201527414d2d34e881ad95e48185b1c9958591e481d5cd959605a1b6044820152606490fd5b60405162461bcd60e51b815260206004820152601360248201527229a5a69d1031b0b73737ba1031329039b2b63360691b6044820152606490fd5b60405162461bcd60e51b815260206004820152600d60248201526c534b4d3a207a65726f206b657960981b6044820152606490fd5b346103ac5760403660031901126103ac57606061109a6110916110d3565b6024359061114c565b91906020604051938492151583526040828401528051918291826040860152018484015e5f828201840152601f01601f19168101030190f35b600435906001600160a01b03821682036103ac57565b90602080835192838152019201905f5b8181106111065750505090565b82518452602093840193909201916001016110f9565b601f909101601f19168101906001600160401b03821190821017610f0157604052565b91908201809211610f1557565b6001600160a01b039081165f908152600260205260409020805490929116156112a157600382015460ff8160401c1661126f576001600160401b031642101561123e5760048201548111611208576111aa600191600284015461113f565b910154106111d5576001906040516111c360408261111c565b60028152616f6b60f01b602082015290565b5f906040516111e560408261111c565b6013815272195e18d959591cc81cdc195b99081b1a5b5a5d606a1b602082015290565b50505f9060405161121a60408261111c565b6014815273195e18d959591cc81c195c8b5d1e081b1a5b5a5d60621b602082015290565b50505f9060405161125060408261111c565b600f81526e1cd95cdcda5bdb88195e1c1a5c9959608a1b602082015290565b5050505f9060405161128260408261111c565b600f81526e1cd95cdcda5bdb881c995d9bdad959608a1b602082015290565b50505f906040516112b360408261111c565b60118152701cd95cdcda5bdb881b9bdd08199bdd5b99607a1b602082015290565b156112db57565b60405162461bcd60e51b8152602060048201526016602482015275534b4d3a206475726174696f6e20746f6f206c6f6e6760501b6044820152606490fd5b1561132057565b60405162461bcd60e51b81526020600482015260136024820152720a6969a7440d8d2dad2e840e8dede40d0d2ced606b1b6044820152606490fd5b9081526001600160401b03909116602082015260400190565b91908203918211610f1557565b1561138857565b60405162461bcd60e51b815260206004820152600c60248201526b534b4d3a206e6f742044414f60a01b6044820152606490fd5b8051821015610eed5760209160051b010190565b6001600160401b038111610f015760051b60200190565b906113f1826113d0565b6113fe604051918261111c565b828152809261140f601f19916113d0565b019060203691013756fe9a20fd73f3c4985be44f081964b55d63f69ed94995474740c82bfbff9d6ab5c4a26469706673582212209ac0f28c2048218c7de6b292058c0a33c1cb30004a6dc270fa59dc9e73aee3d564736f6c634300081e0033","linkReferences":{}},"methodIdentifiers":{"authorizedSpendRecorders(address)":"869c1990","canSpend(address,uint256)":"1881656b","createQuickSession(address)":"8b2b4272","createSession(address,uint256,uint64,uint256)":"1c82fb63","dao()":"4162169f","defaultDuration()":"2af7e2ea","defaultMaxPerTx()":"f2511b78","defaultSpendLimit()":"a7a7d3bc","getOwnerSessions(address)":"ffefdf3b","getSessionOwner(address)":"30d2cb7c","getSessionStatus(address)":"378b8dea","recordSpend(address,uint256)":"1cfd8ded","revokeAllSessions()":"eba3220c","revokeSession(address)":"1fa5d6a4","sessions(address)":"431a1b97","setAuthorizedRecorder(address,bool)":"272d023a","setDefaultLimits(uint256,uint64,uint256)":"9848d025","vaultHub()":"6dd6e80b"},"id":16}