{"abi":[{"type":"constructor","inputs":[{"name":"_dao","type":"address","internalType":"address"},{"name":"_vaultHub","type":"address","internalType":"address"}],"stateMutability":"nonpayable"},{"type":"function","name":"dao","inputs":[],"outputs":[{"name":"","type":"address","internalType":"address"}],"stateMutability":"view"},{"type":"function","name":"deactivateTerminal","inputs":[{"name":"terminalId","type":"bytes32","internalType":"bytes32"}],"outputs":[],"stateMutability":"nonpayable"},{"type":"function","name":"getMerchantTerminals","inputs":[{"name":"merchant","type":"address","internalType":"address"}],"outputs":[{"name":"terminalIds","type":"bytes32[]","internalType":"bytes32[]"},{"name":"activeStatus","type":"bool[]","internalType":"bool[]"},{"name":"volumes","type":"uint256[]","internalType":"uint256[]"}],"stateMutability":"view"},{"type":"function","name":"getTerminalStats","inputs":[{"name":"terminalId","type":"bytes32","internalType":"bytes32"}],"outputs":[{"name":"merchant","type":"address","internalType":"address"},{"name":"active","type":"bool","internalType":"bool"},{"name":"location","type":"string","internalType":"string"},{"name":"txCount","type":"uint256","internalType":"uint256"},{"name":"totalVolume","type":"uint256","internalType":"uint256"},{"name":"registeredAt","type":"uint64","internalType":"uint64"},{"name":"lastTxTime","type":"uint64","internalType":"uint64"}],"stateMutability":"view"},{"type":"function","name":"isTapEligible","inputs":[{"name":"amount","type":"uint256","internalType":"uint256"}],"outputs":[{"name":"","type":"bool","internalType":"bool"}],"stateMutability":"view"},{"type":"function","name":"isValidTerminal","inputs":[{"name":"terminalId","type":"bytes32","internalType":"bytes32"}],"outputs":[{"name":"valid","type":"bool","internalType":"bool"},{"name":"merchant","type":"address","internalType":"address"}],"stateMutability":"view"},{"type":"function","name":"reactivateTerminal","inputs":[{"name":"terminalId","type":"bytes32","internalType":"bytes32"}],"outputs":[],"stateMutability":"nonpayable"},{"type":"function","name":"recordPayment","inputs":[{"name":"terminalId","type":"bytes32","internalType":"bytes32"},{"name":"customer","type":"address","internalType":"address"},{"name":"amount","type":"uint256","internalType":"uint256"}],"outputs":[],"stateMutability":"nonpayable"},{"type":"function","name":"registerTerminal","inputs":[{"name":"terminalId","type":"bytes32","internalType":"bytes32"},{"name":"location","type":"string","internalType":"string"}],"outputs":[],"stateMutability":"nonpayable"},{"type":"function","name":"setTapLimit","inputs":[{"name":"newLimit","type":"uint256","internalType":"uint256"}],"outputs":[],"stateMutability":"nonpayable"},{"type":"function","name":"tapLimit","inputs":[],"outputs":[{"name":"","type":"uint256","internalType":"uint256"}],"stateMutability":"view"},{"type":"function","name":"terminals","inputs":[{"name":"","type":"bytes32","internalType":"bytes32"}],"outputs":[{"name":"merchant","type":"address","internalType":"address"},{"name":"active","type":"bool","internalType":"bool"},{"name":"location","type":"string","internalType":"string"},{"name":"txCount","type":"uint256","internalType":"uint256"},{"name":"totalVolume","type":"uint256","internalType":"uint256"},{"name":"registeredAt","type":"uint64","internalType":"uint64"},{"name":"lastTxTime","type":"uint64","internalType":"uint64"}],"stateMutability":"view"},{"type":"function","name":"updateLocation","inputs":[{"name":"terminalId","type":"bytes32","internalType":"bytes32"},{"name":"newLocation","type":"string","internalType":"string"}],"outputs":[],"stateMutability":"nonpayable"},{"type":"function","name":"vaultHub","inputs":[],"outputs":[{"name":"","type":"address","internalType":"contract IVaultHub"}],"stateMutability":"view"},{"type":"event","name":"TerminalDeactivated","inputs":[{"name":"terminalId","type":"bytes32","indexed":true,"internalType":"bytes32"}],"anonymous":false},{"type":"event","name":"TerminalLocationUpdated","inputs":[{"name":"terminalId","type":"bytes32","indexed":true,"internalType":"bytes32"},{"name":"newLocation","type":"string","indexed":false,"internalType":"string"}],"anonymous":false},{"type":"event","name":"TerminalPayment","inputs":[{"name":"terminalId","type":"bytes32","indexed":true,"internalType":"bytes32"},{"name":"customer","type":"address","indexed":true,"internalType":"address"},{"name":"amount","type":"uint256","indexed":false,"internalType":"uint256"}],"anonymous":false},{"type":"event","name":"TerminalRegistered","inputs":[{"name":"terminalId","type":"bytes32","indexed":true,"internalType":"bytes32"},{"name":"merchant","type":"address","indexed":true,"internalType":"address"},{"name":"location","type":"string","indexed":false,"internalType":"string"}],"anonymous":false}],"bytecode":{"object":"0x6080346100ee57601f6110d738819003918201601f19168301916001600160401b038311848410176100f25780849260409485528339810103126100ee57610052602061004b83610106565b9201610106565b6802b5e3af16b1880000600455906001600160a01b0316801515806100dc575b156100ac5760018060a01b03195f5416175f5560018060a01b031660018060a01b03196001541617600155604051610fbc908161011b8239f35b60405162461bcd60e51b815260206004820152600860248201526754523a207a65726f60c01b6044820152606490fd5b506001600160a01b0382161515610072565b5f80fd5b634e487b7160e01b5f52604160045260245ffd5b51906001600160a01b03821682036100ee5756fe6080806040526004361015610012575f80fd5b5f3560e01c908163099f7acf14610b13575080630f212c2c14610aba5780631025ed78146106ae578063134af1be1461068b5780632082bc5e1461061c5780634162169f146105f5578063534b1efb146105ad5780635a628cee146104505780636dd6e80b1461042857806370c2893f1461040b578063846fa34d146102ee578063aea26ee31461022d578063dd7766f8146101b95763e8e3a367146100b6575f80fd5b346101b55760203660031901126101b5576004355f81815260026020526040902080546001600160a01b038116331480156101a2575b156101685760ff8160a01c161561012c5760ff60a01b191690557f6e2bc6099614e7f1b090bb92f415fcaee0f9c15f30e7b9faec0cb5d8270a09855f80a2005b60405162461bcd60e51b815260206004820152601460248201527354523a20616c726561647920696e61637469766560601b6044820152606490fd5b60405162461bcd60e51b815260206004820152601260248201527115148e881b9bdd08185d5d1a1bdc9a5e995960721b6044820152606490fd5b505f546001600160a01b031633146100ec565b5f80fd5b346101b55760203660031901126101b5576004355f52600260205260405f208054906102296101ea60018301610e06565b9160028101549360046003830154920154916040519586956001600160401b03808660401c1695169360ff8160a01c169060018060a01b031688610d45565b0390f35b346101b55760203660031901126101b5575f54600435906001600160a01b031633036102bb57678ac7230489e80000811015806102a8575b1561026f57600455005b60405162461bcd60e51b815260206004820152601160248201527015148e881a5b9d985b1a59081b1a5b5a5d607a1b6044820152606490fd5b50681b1ae4d6e2ef500000811115610265565b60405162461bcd60e51b815260206004820152600b60248201526a54523a206e6f742044414f60a81b6044820152606490fd5b346101b55760603660031901126101b5576024356001600160a01b03811690600435908290036101b557604435815f52600260205260405f209060ff825460a01c16156103ce576002820180545f1981146103ba57600101905560038201908154918183018093116103ba5791909155600490910180546fffffffffffffffff000000000000000019164260401b67ffffffffffffffff60401b161790557f46902366f51c298ac824cbd217397fc09d6bb6c7fd361c1d856dee614faa5b9e90602090604051908152a3005b634e487b7160e01b5f52601160045260245ffd5b60405162461bcd60e51b815260206004820152601560248201527454523a207465726d696e616c20696e61637469766560581b6044820152606490fd5b346101b5575f3660031901126101b5576020600454604051908152f35b346101b5575f3660031901126101b5576001546040516001600160a01b039091168152602090f35b346101b55761045e36610cf3565b825f939293526002602052600160405f20610482828060a01b038254163314610f47565b01926001600160401b038211610599576104a6826104a08654610dad565b86610ed1565b5f93601f8311600114610517576104f583807ff9344ad32f80f24be3e867be58815a59e588787bf4db0e0ebcc766bfb4bf127796975f9161050c575b508160011b915f199060031b1c19161790565b90555b61050760405192839283610f20565b0390a2005b9050840135886104e2565b601f19831694815f5260205f20905f5b8781106105815750847ff9344ad32f80f24be3e867be58815a59e588787bf4db0e0ebcc766bfb4bf1277969710610568575b5050600183811b0190556104f8565b8301355f19600386901b60f8161c191690558580610559565b90916020600181928588013581550193019101610527565b634e487b7160e01b5f52604160045260245ffd5b346101b55760203660031901126101b5576004355f90815260026020526040902080546105e46001600160a01b0382163314610f47565b60ff60a01b1916600160a01b179055005b346101b5575f3660031901126101b5575f546040516001600160a01b039091168152602090f35b346101b55760203660031901126101b5576004355f52600260205260405f20805461022960028301549260038101549261065d600160048401549301610e06565b936040519586956001600160401b03808660401c1695169360ff8160a01c169060018060a01b031688610d45565b346101b55760203660031901126101b55760206004546004351115604051908152f35b346101b5576106bc36610cf3565b82919215610a7e575f828152600260205260409020546001600160a01b0316610a4357600154604051630709df4560e01b815233600482015290602090829060249082906001600160a01b03165afa908115610a38575f916109f6575b506001600160a01b0316156109c25760405160e081018181106001600160401b038211176105995760405233815260208101600181526001600160401b0383116105995760405191610775601f8501601f191660200184610de5565b83835236848701116101b557838660208501375f6020858501015260408101928352606081015f815260808201905f825260a08301946001600160401b034216865260c08401945f8652885f52600260205260405f209460018060a01b039051166bffffffffffffffffffffffff60a01b86541617855551151584549060ff60a01b9060a01b169060ff60a01b19161784556001840190518051906001600160401b038211610599576108328261082c8554610dad565b85610ed1565b602090601f831160011461094a5793600493610876846001600160401b0399956108ba9c9b99958b995f9261093f575b50508160011b915f199060031b1c19161790565b90555b516002830155516003820155019351168219845416178355511667ffffffffffffffff60401b82549160401b169067ffffffffffffffff60401b1916179055565b335f52600360205260405f209081549068010000000000000000821015610599576001820180845582101561092b5783610926927fa4add211704954bb53f9811b4b9dd72db7813e114eeab2cffcefb757c0dd7394945f5260205f200155604051918291339683610f20565b0390a3005b634e487b7160e01b5f52603260045260245ffd5b015190505f80610862565b90601f19831691845f52815f20925f5b8181106109aa5750846108ba9b9a98946001600160401b039a9694600498948c9a9660019510610992575b505050811b019055610879565b01515f1960f88460031b161c191690558f8080610985565b9293602060018192878601518155019501930161095a565b60405162461bcd60e51b815260206004820152600c60248201526b15148e881b9bc81d985d5b1d60a21b6044820152606490fd5b90506020813d602011610a30575b81610a1160209383610de5565b810103126101b557516001600160a01b03811681036101b55784610719565b3d9150610a04565b6040513d5f823e3d90fd5b60405162461bcd60e51b815260206004820152601360248201527254523a207465726d696e616c2065786973747360681b6044820152606490fd5b60405162461bcd60e51b815260206004820152601460248201527315148e881e995c9bc81d195c9b5a5b985b08125160621b6044820152606490fd5b346101b55760203660031901126101b5576004355f5260026020526040805f205460ff8160a01c169081610b00575b825191151582526001600160a01b03166020820152f35b6001600160a01b03811615159150610ae9565b346101b55760203660031901126101b5576004356001600160a01b038116908190036101b5575f52600360205260405f208054808352826020810180935f5260205f20925f5b818110610cda575050610b6e92500383610de5565b8151610b92610b7c82610ea6565b91610b8a6040519384610de5565b808352610ea6565b602082019190601f1901368337835191610bc4610bae84610ea6565b93610bbc6040519586610de5565b808552610ea6565b602084019190601f19013683375f5b8651811015610c215780610be960019289610ebd565b515f526002602052600360405f2060ff815460a01c16610c098489610ebd565b90151590520154610c1a8288610ebd565b5201610bd3565b509085918486604051958695606087019060608852518091526080870192905f5b818110610cc1575050506020908683038288015251918281520192905f5b818110610ca657505050602090848303604086015251918281520191905f5b818110610c8d575050500390f35b8251845285945060209384019390920191600101610c7f565b82511515855287965060209485019490920191600101610c60565b8251855289985060209485019490920191600101610c42565b8454835260019485019487945060209093019201610b59565b60406003198201126101b557600435916024356001600160401b0381116101b557826023820112156101b5578060040135926001600160401b0384116101b557602484830101116101b5576024019190565b95909461010060206001600160401b03969a9995879560c09960018060a01b03168b521515828b015260e060408b015280519182918260e08d015201838b015e5f82828b010152601f801991011688010198606088015260808701521660a085015216910152565b90600182811c92168015610ddb575b6020831014610dc757565b634e487b7160e01b5f52602260045260245ffd5b91607f1691610dbc565b90601f801991011681019081106001600160401b0382111761059957604052565b9060405191825f825492610e1984610dad565b8084529360018116908115610e845750600114610e40575b50610e3e92500383610de5565b565b90505f9291925260205f20905f915b818310610e68575050906020610e3e928201015f610e31565b6020919350806001915483858901015201910190918492610e4f565b905060209250610e3e94915060ff191682840152151560051b8201015f610e31565b6001600160401b0381116105995760051b60200190565b805182101561092b5760209160051b010190565b601f8211610ede57505050565b5f5260205f20906020601f840160051c83019310610f16575b601f0160051c01905b818110610f0b575050565b5f8155600101610f00565b9091508190610ef7565b90918060409360208452816020850152848401375f828201840152601f01601f1916010190565b15610f4e57565b60405162461bcd60e51b815260206004820152601060248201526f15148e881b9bdd081b595c98da185b9d60821b6044820152606490fdfea2646970667358221220ab5cf93779dc379b7b79e5c746dcf87f5afe1563fd424af100f8391813de0bbb64736f6c634300081e0033","linkReferences":{}},"methodIdentifiers":{"dao()":"4162169f","deactivateTerminal(bytes32)":"e8e3a367","getMerchantTerminals(address)":"099f7acf","getTerminalStats(bytes32)":"2082bc5e","isTapEligible(uint256)":"134af1be","isValidTerminal(bytes32)":"0f212c2c","reactivateTerminal(bytes32)":"534b1efb","recordPayment(bytes32,address,uint256)":"846fa34d","registerTerminal(bytes32,string)":"1025ed78","setTapLimit(uint256)":"aea26ee3","tapLimit()":"70c2893f","terminals(bytes32)":"dd7766f8","updateLocation(bytes32,string)":"5a628cee","vaultHub()":"6dd6e80b"},"id":15}