{"abi":[{"type":"constructor","inputs":[{"name":"_dao","type":"address","internalType":"address"},{"name":"initialPrice","type":"uint256","internalType":"uint256"}],"stateMutability":"nonpayable"},{"type":"function","name":"dao","inputs":[],"outputs":[{"name":"","type":"address","internalType":"address"}],"stateMutability":"view"},{"type":"function","name":"forceSetPrice","inputs":[{"name":"newPrice","type":"uint256","internalType":"uint256"}],"outputs":[],"stateMutability":"nonpayable"},{"type":"function","name":"getPrice","inputs":[],"outputs":[{"name":"price","type":"uint256","internalType":"uint256"},{"name":"lastUpdate","type":"uint256","internalType":"uint256"},{"name":"isStale","type":"bool","internalType":"bool"}],"stateMutability":"view"},{"type":"function","name":"getVfidePriceUsd","inputs":[],"outputs":[{"name":"priceUsd","type":"uint256","internalType":"uint256"}],"stateMutability":"view"},{"type":"function","name":"isUpdater","inputs":[{"name":"","type":"address","internalType":"address"}],"outputs":[{"name":"","type":"bool","internalType":"bool"}],"stateMutability":"view"},{"type":"function","name":"lastUpdateTime","inputs":[],"outputs":[{"name":"","type":"uint256","internalType":"uint256"}],"stateMutability":"view"},{"type":"function","name":"previewCheckoutPrice","inputs":[{"name":"usdPrice","type":"uint256","internalType":"uint256"}],"outputs":[{"name":"vfidePrice","type":"uint256","internalType":"uint256"},{"name":"usdDisplay","type":"uint256","internalType":"uint256"},{"name":"vfideFormatted","type":"uint256","internalType":"uint256"}],"stateMutability":"view"},{"type":"function","name":"priceSources","inputs":[{"name":"","type":"address","internalType":"address"}],"outputs":[{"name":"active","type":"bool","internalType":"bool"},{"name":"name","type":"string","internalType":"string"},{"name":"priority","type":"uint8","internalType":"uint8"},{"name":"lastPrice","type":"uint256","internalType":"uint256"},{"name":"lastUpdate","type":"uint256","internalType":"uint256"}],"stateMutability":"view"},{"type":"function","name":"removePriceSource","inputs":[{"name":"source","type":"address","internalType":"address"}],"outputs":[],"stateMutability":"nonpayable"},{"type":"function","name":"setPriceSource","inputs":[{"name":"source","type":"address","internalType":"address"},{"name":"name","type":"string","internalType":"string"},{"name":"priority","type":"uint8","internalType":"uint8"}],"outputs":[],"stateMutability":"nonpayable"},{"type":"function","name":"setStalenessThreshold","inputs":[{"name":"threshold","type":"uint256","internalType":"uint256"}],"outputs":[],"stateMutability":"nonpayable"},{"type":"function","name":"setUpdater","inputs":[{"name":"updater","type":"address","internalType":"address"},{"name":"status","type":"bool","internalType":"bool"}],"outputs":[],"stateMutability":"nonpayable"},{"type":"function","name":"sourceList","inputs":[{"name":"","type":"uint256","internalType":"uint256"}],"outputs":[{"name":"","type":"address","internalType":"address"}],"stateMutability":"view"},{"type":"function","name":"stalenessThreshold","inputs":[],"outputs":[{"name":"","type":"uint256","internalType":"uint256"}],"stateMutability":"view"},{"type":"function","name":"updatePrice","inputs":[{"name":"newPrice","type":"uint256","internalType":"uint256"}],"outputs":[],"stateMutability":"nonpayable"},{"type":"function","name":"usdToVfide","inputs":[{"name":"usdAmount","type":"uint256","internalType":"uint256"}],"outputs":[{"name":"vfideAmount","type":"uint256","internalType":"uint256"}],"stateMutability":"view"},{"type":"function","name":"vfidePerUsd","inputs":[],"outputs":[{"name":"","type":"uint256","internalType":"uint256"}],"stateMutability":"view"},{"type":"function","name":"vfideToUsd","inputs":[{"name":"vfideAmount","type":"uint256","internalType":"uint256"}],"outputs":[{"name":"usdAmount","type":"uint256","internalType":"uint256"}],"stateMutability":"view"},{"type":"event","name":"PriceSourceAdded","inputs":[{"name":"source","type":"address","indexed":true,"internalType":"address"},{"name":"name","type":"string","indexed":false,"internalType":"string"},{"name":"priority","type":"uint8","indexed":false,"internalType":"uint8"}],"anonymous":false},{"type":"event","name":"PriceSourceRemoved","inputs":[{"name":"source","type":"address","indexed":true,"internalType":"address"}],"anonymous":false},{"type":"event","name":"PriceUpdated","inputs":[{"name":"vfidePerUsd","type":"uint256","indexed":false,"internalType":"uint256"},{"name":"timestamp","type":"uint256","indexed":false,"internalType":"uint256"},{"name":"updater","type":"address","indexed":true,"internalType":"address"}],"anonymous":false},{"type":"event","name":"StalenessThresholdUpdated","inputs":[{"name":"oldThreshold","type":"uint256","indexed":false,"internalType":"uint256"},{"name":"newThreshold","type":"uint256","indexed":false,"internalType":"uint256"}],"anonymous":false}],"bytecode":{"object":"0x60803461010d57601f610ddc38819003918201601f19168301916001600160401b0383118484101761011157808492604094855283398101031261010d5780516001600160a01b038116919082900361010d5760200151610e1060035581156100d95780156100a3578160018060a01b03195f5416175f55600155426002555f52600660205260405f20600160ff19825416179055604051610cb690816101268239f35b60405162461bcd60e51b815260206004820152600e60248201526d504f3a207a65726f20707269636560901b6044820152606490fd5b60405162461bcd60e51b815260206004820152600c60248201526b504f3a207a65726f2044414f60a01b6044820152606490fd5b5f80fd5b634e487b7160e01b5f52604160045260245ffdfe60806040526004361015610011575f80fd5b5f3560e01c806314e45a9414610aa05780631a15339114610a3d5780632e17b8d6146109185780634162169f146108f15780634fdfb086146108b457806356cf6b651461085b578063623b6549146107ea5780638d6cc56d146106ba5780639370161b1461069d57806398d5fdca14610664578063a84f6ebb14610647578063aec0be1314610605578063bcfc916e146102c4578063c8f33c91146102a7578063d3e5aeb714610249578063e0d5db1b146101fb578063e2290bd01461019f5763fb01e7f2146100df575f80fd5b3461019b57602036600319011261019b5760043561010760018060a01b035f54163314610b7c565b61012c8110158061018e575b156101515760407f2cfed7ac4be4a0009ef1af32ea2de149e0122938cb9aa4b3f7df3be6da1055e991600354908060035582519182526020820152a1005b60405162461bcd60e51b81526020600482015260156024820152741413ce881a5b9d985b1a59081d1a1c995cda1bdb19605a1b6044820152606490fd5b5062015180811115610113565b5f80fd5b3461019b57602036600319011261019b576004356101c760018060a01b035f54163314610b7c565b6101d2811515610bb6565b80600155426002556040519081524260208201525f516020610c615f395f51905f5260403392a2005b3461019b575f36600319011261019b57600154801561021a8115610c00565b610235576020906040519069d3c21bcecceda1000000048152f35b634e487b7160e01b5f52601260045260245ffd5b3461019b57602036600319011261019b57600435600154801561026c8115610c00565b620f4240830292808404620f42401490151715610293576102355760209104604051908152f35b634e487b7160e01b5f52601160045260245ffd5b3461019b575f36600319011261019b576020600254604051908152f35b3461019b57606036600319011261019b576102dd610ace565b6024356001600160401b03811161019b573660238201121561019b578060040135906001600160401b03821161019b576024810190602483369201011161019b576044359260ff841680940361019b5761034160018060a01b035f54163314610b7c565b6001600160a01b03169283156105ce57835f52600460205260ff60405f2054161561058e575b6040519060a082018281106001600160401b0382111761057a5760405260018252601f19601f850116916040516103a16020850182610b1c565b858152858560208301375f60208783010152602082019081526040820183815260608301905f825260808401925f8452895f5260046020526103f660405f2095511515869060ff801983541691151516179055565b51805160018601916001600160401b03821161057a576104168354610ae4565b601f8111610535575b50602090601f83116001146104b757928260609a989693600496935f516020610c415f395f51905f529e9d9b99965f926104ac575b50508160011b915f199060031b1c19161790555b60ff6002860191511660ff19825416179055516003840155519101555f848660405197889660408852816040890152838801378501015260208301528101030190a2005b015190508f80610454565b90601f19831691845f52815f20925f5b81811061051d575093600496935f516020610c415f395f51905f529e9d9b9996936001938360609f9d9b9810610505575b505050811b019055610468565b01515f1960f88460031b161c191690558f80806104f8565b929360206001819287860151815501950193016104c7565b835f5260205f20601f840160051c81019160208510610570575b601f0160051c01905b818110610565575061041f565b5f8155600101610558565b909150819061054f565b634e487b7160e01b5f52604160045260245ffd5b600554600160401b81101561057a578060016105ad9201600555610b3d565b81546001600160a01b0360039290921b91821b19169086901b179055610367565b60405162461bcd60e51b815260206004820152600f60248201526e504f3a207a65726f20736f7572636560881b6044820152606490fd5b3461019b57602036600319011261019b5760043560055481101561019b5761062e602091610b3d565b905460405160039290921b1c6001600160a01b03168152f35b3461019b575f36600319011261019b576020600354604051908152f35b3461019b575f36600319011261019b57606060015460025461068860035482610bf3565b42119060405192835260208301526040820152f35b3461019b575f36600319011261019b576020600154604051908152f35b3461019b57602036600319011261019b57600435335f52600660205260ff60405f20541680156107d7575b156107a0576106f5811515610bb6565b6001548060011c808203828111610293578310159182610782575b5050156107405780600155426002556040519081524260208201525f516020610c615f395f51905f5260403392a2005b60405162461bcd60e51b815260206004820152601a602482015279504f3a207072696365206368616e676520746f6f206c6172676560301b6044820152606490fd5b61079692508161079191610bf3565b610bf3565b8111158280610710565b60405162461bcd60e51b815260206004820152600f60248201526e28279d103737ba103ab83230ba32b960891b6044820152606490fd5b505f546001600160a01b031633146106e5565b3461019b57602036600319011261019b57610803610ace565b61081760018060a01b035f54163314610b7c565b6001600160a01b03165f818152600460205260408120805460ff191690557ff69636ef86ccf39d9112c4d859e1fef11f85e37c0bca4f5dd5d343bd2556882e9080a2005b3461019b57602036600319011261019b57600435612710810290808204612710149015171561029357606090662386f26fc10000620f424061089f60015484610b69565b04604051928184526020840152046040820152f35b3461019b57602036600319011261019b576001600160a01b036108d5610ace565b165f526006602052602060ff60405f2054166040519015158152f35b3461019b575f36600319011261019b575f546040516001600160a01b039091168152602090f35b3461019b57602036600319011261019b576001600160a01b03610939610ace565b165f52600460205260405f2060ff8154166001820190604051915f9381549161096183610ae4565b9081865260208601936001811690815f14610a2057506001146109e6575b50506109908460c095960386610b1c565b60ff6002820154169060046003820154910154916040519687951515865260a060208701525180948160a08801528787015e5f858501870152604085015260608401526080830152601f01601f19168101030190f35b9095505f5260205f205f905b868210610a0a5750840160200194506109908461097f565b6001816020925483858a010152019101906109f2565b60ff191685525050151560051b840160200194506109908461097f565b3461019b57604036600319011261019b57610a56610ace565b602435801515810361019b57610a9e91610a7a60018060a01b035f54163314610b7c565b60018060a01b03165f52600660205260405f209060ff801983541691151516179055565b005b3461019b57602036600319011261019b576020620f4240610ac5600154600435610b69565b04604051908152f35b600435906001600160a01b038216820361019b57565b90600182811c92168015610b12575b6020831014610afe57565b634e487b7160e01b5f52602260045260245ffd5b91607f1691610af3565b90601f801991011681019081106001600160401b0382111761057a57604052565b600554811015610b555760055f5260205f2001905f90565b634e487b7160e01b5f52603260045260245ffd5b8181029291811591840414171561029357565b15610b8357565b60405162461bcd60e51b815260206004820152600b60248201526a504f3a206e6f742044414f60a81b6044820152606490fd5b15610bbd57565b60405162461bcd60e51b815260206004820152600e60248201526d504f3a207a65726f20707269636560901b6044820152606490fd5b9190820180921161029357565b15610c0757565b60405162461bcd60e51b81526020600482015260116024820152701413ce881c1c9a58d9481b9bdd081cd95d607a1b6044820152606490fdfef29d12894e4ff2d0e5ef481fe5e73678020f2b82a9de2f0a70a400005715a987378b09391f49d01e482ba75312341912ad0652cb8aa8799b6b33b624bd65d9f2a2646970667358221220dcf2a605fa298b305dc0c3a51ee0d49cf2aa3fa84d8686a5b7793f9f4a714dcd64736f6c634300081e0033","linkReferences":{}},"methodIdentifiers":{"dao()":"4162169f","forceSetPrice(uint256)":"e2290bd0","getPrice()":"98d5fdca","getVfidePriceUsd()":"e0d5db1b","isUpdater(address)":"4fdfb086","lastUpdateTime()":"c8f33c91","previewCheckoutPrice(uint256)":"56cf6b65","priceSources(address)":"2e17b8d6","removePriceSource(address)":"623b6549","setPriceSource(address,string,uint8)":"bcfc916e","setStalenessThreshold(uint256)":"fb01e7f2","setUpdater(address,bool)":"1a153391","sourceList(uint256)":"aec0be13","stalenessThreshold()":"a84f6ebb","updatePrice(uint256)":"8d6cc56d","usdToVfide(uint256)":"14e45a94","vfidePerUsd()":"9370161b","vfideToUsd(uint256)":"d3e5aeb7"},"id":16}