{"abi":[{"type":"constructor","inputs":[{"name":"_dao","type":"address","internalType":"address"},{"name":"initialPrice","type":"uint256","internalType":"uint256"}],"stateMutability":"nonpayable"},{"type":"function","name":"dao","inputs":[],"outputs":[{"name":"","type":"address","internalType":"address"}],"stateMutability":"view"},{"type":"function","name":"forceSetPrice","inputs":[{"name":"newPrice","type":"uint256","internalType":"uint256"}],"outputs":[],"stateMutability":"nonpayable"},{"type":"function","name":"getPrice","inputs":[],"outputs":[{"name":"price","type":"uint256","internalType":"uint256"},{"name":"lastUpdate","type":"uint256","internalType":"uint256"},{"name":"isStale","type":"bool","internalType":"bool"}],"stateMutability":"view"},{"type":"function","name":"getVfidePriceUsd","inputs":[],"outputs":[{"name":"priceUsd","type":"uint256","internalType":"uint256"}],"stateMutability":"view"},{"type":"function","name":"isUpdater","inputs":[{"name":"","type":"address","internalType":"address"}],"outputs":[{"name":"","type":"bool","internalType":"bool"}],"stateMutability":"view"},{"type":"function","name":"lastUpdateTime","inputs":[],"outputs":[{"name":"","type":"uint256","internalType":"uint256"}],"stateMutability":"view"},{"type":"function","name":"previewCheckoutPrice","inputs":[{"name":"usdPrice","type":"uint256","internalType":"uint256"}],"outputs":[{"name":"vfidePrice","type":"uint256","internalType":"uint256"},{"name":"usdDisplay","type":"uint256","internalType":"uint256"},{"name":"vfideFormatted","type":"uint256","internalType":"uint256"}],"stateMutability":"view"},{"type":"function","name":"priceSources","inputs":[{"name":"","type":"address","internalType":"address"}],"outputs":[{"name":"active","type":"bool","internalType":"bool"},{"name":"name","type":"string","internalType":"string"},{"name":"priority","type":"uint8","internalType":"uint8"},{"name":"lastPrice","type":"uint256","internalType":"uint256"},{"name":"lastUpdate","type":"uint256","internalType":"uint256"}],"stateMutability":"view"},{"type":"function","name":"removePriceSource","inputs":[{"name":"source","type":"address","internalType":"address"}],"outputs":[],"stateMutability":"nonpayable"},{"type":"function","name":"setPriceSource","inputs":[{"name":"source","type":"address","internalType":"address"},{"name":"name","type":"string","internalType":"string"},{"name":"priority","type":"uint8","internalType":"uint8"}],"outputs":[],"stateMutability":"nonpayable"},{"type":"function","name":"setStalenessThreshold","inputs":[{"name":"threshold","type":"uint256","internalType":"uint256"}],"outputs":[],"stateMutability":"nonpayable"},{"type":"function","name":"setUpdater","inputs":[{"name":"updater","type":"address","internalType":"address"},{"name":"status","type":"bool","internalType":"bool"}],"outputs":[],"stateMutability":"nonpayable"},{"type":"function","name":"sourceList","inputs":[{"name":"","type":"uint256","internalType":"uint256"}],"outputs":[{"name":"","type":"address","internalType":"address"}],"stateMutability":"view"},{"type":"function","name":"stalenessThreshold","inputs":[],"outputs":[{"name":"","type":"uint256","internalType":"uint256"}],"stateMutability":"view"},{"type":"function","name":"updatePrice","inputs":[{"name":"newPrice","type":"uint256","internalType":"uint256"}],"outputs":[],"stateMutability":"nonpayable"},{"type":"function","name":"usdToVfide","inputs":[{"name":"usdAmount","type":"uint256","internalType":"uint256"}],"outputs":[{"name":"vfideAmount","type":"uint256","internalType":"uint256"}],"stateMutability":"view"},{"type":"function","name":"vfidePerUsd","inputs":[],"outputs":[{"name":"","type":"uint256","internalType":"uint256"}],"stateMutability":"view"},{"type":"function","name":"vfideToUsd","inputs":[{"name":"vfideAmount","type":"uint256","internalType":"uint256"}],"outputs":[{"name":"usdAmount","type":"uint256","internalType":"uint256"}],"stateMutability":"view"},{"type":"event","name":"PriceSourceAdded","inputs":[{"name":"source","type":"address","indexed":true,"internalType":"address"},{"name":"name","type":"string","indexed":false,"internalType":"string"},{"name":"priority","type":"uint8","indexed":false,"internalType":"uint8"}],"anonymous":false},{"type":"event","name":"PriceSourceRemoved","inputs":[{"name":"source","type":"address","indexed":true,"internalType":"address"}],"anonymous":false},{"type":"event","name":"PriceUpdated","inputs":[{"name":"vfidePerUsd","type":"uint256","indexed":false,"internalType":"uint256"},{"name":"timestamp","type":"uint256","indexed":false,"internalType":"uint256"},{"name":"updater","type":"address","indexed":true,"internalType":"address"}],"anonymous":false},{"type":"event","name":"StalenessThresholdUpdated","inputs":[{"name":"oldThreshold","type":"uint256","indexed":false,"internalType":"uint256"},{"name":"newThreshold","type":"uint256","indexed":false,"internalType":"uint256"}],"anonymous":false}],"bytecode":{"object":"0x60803461010d57601f610df538819003918201601f19168301916001600160401b0383118484101761011157808492604094855283398101031261010d5780516001600160a01b038116919082900361010d5760200151610e1060035581156100d95780156100a3578160018060a01b03195f5416175f55600155426002555f52600660205260405f20600160ff19825416179055604051610ccf90816101268239f35b60405162461bcd60e51b815260206004820152600e60248201526d504f3a207a65726f20707269636560901b6044820152606490fd5b60405162461bcd60e51b815260206004820152600c60248201526b504f3a207a65726f2044414f60a01b6044820152606490fd5b5f80fd5b634e487b7160e01b5f52604160045260245ffdfe60806040526004361015610011575f80fd5b5f3560e01c806314e45a9414610af85780631a15339114610a955780632e17b8d6146109705780634162169f146109495780634fdfb0861461090c57806356cf6b65146108b3578063623b6549146108425780638d6cc56d146106fc5780639370161b146106df57806398d5fdca146106a6578063a84f6ebb14610689578063aec0be1314610647578063bcfc916e146102d7578063c8f33c91146102ba578063d3e5aeb71461025c578063e0d5db1b1461020e578063e2290bd01461019f5763fb01e7f2146100df575f80fd5b3461019b57602036600319011261019b5760043561010760018060a01b035f54163314610bd5565b61012c8110158061018e575b156101515760407f2cfed7ac4be4a0009ef1af32ea2de149e0122938cb9aa4b3f7df3be6da1055e991600354908060035582519182526020820152a1005b60405162461bcd60e51b81526020600482015260156024820152741413ce881a5b9d985b1a59081d1a1c995cda1bdb19605a1b6044820152606490fd5b5062015180811115610113565b5f80fd5b3461019b57602036600319011261019b576004356101c760018060a01b035f54163314610bd5565b6101d2811515610c0f565b80600155426002556040519081524260208201527f378b09391f49d01e482ba75312341912ad0652cb8aa8799b6b33b624bd65d9f260403392a2005b3461019b575f36600319011261019b57600154801561022d8115610c59565b610248576020906040519069d3c21bcecceda1000000048152f35b634e487b7160e01b5f52601260045260245ffd5b3461019b57602036600319011261019b57600435600154801561027f8115610c59565b620f4240830292808404620f424014901517156102a6576102485760209104604051908152f35b634e487b7160e01b5f52601160045260245ffd5b3461019b575f36600319011261019b576020600254604051908152f35b3461019b57606036600319011261019b576102f0610b26565b60243567ffffffffffffffff811161019b573660238201121561019b5780600401359067ffffffffffffffff821161019b576024810190602483369201011161019b576044359260ff841680940361019b5761035660018060a01b035f54163314610bd5565b6001600160a01b031692831561061057835f52600460205260ff60405f205416156105cb575b6040519060a0820182811067ffffffffffffffff8211176105b75760405260018252601f19601f850116916040516103b76020850182610b74565b858152858560208301375f60208783010152602082019081526040820183815260608301905f825260808401925f8452895f52600460205261040c60405f2095511515869060ff801983541691151516179055565b518051600186019167ffffffffffffffff82116105b75761042d8354610b3c565b601f8111610572575b50602090601f83116001146104e157928260609a989693600496937ff29d12894e4ff2d0e5ef481fe5e73678020f2b82a9de2f0a70a400005715a9879e9d9b99965f926104d6575b50508160011b915f199060031b1c19161790555b60ff6002860191511660ff19825416179055516003840155519101555f848660405197889660408852816040890152838801378501015260208301528101030190a2005b015190508f8061047e565b90601f19831691845f52815f20925f5b81811061055a575093600496937ff29d12894e4ff2d0e5ef481fe5e73678020f2b82a9de2f0a70a400005715a9879e9d9b9996936001938360609f9d9b9810610542575b505050811b019055610492565b01515f1960f88460031b161c191690558f8080610535565b929360206001819287860151815501950193016104f1565b835f5260205f20601f840160051c810191602085106105ad575b601f0160051c01905b8181106105a25750610436565b5f8155600101610595565b909150819061058c565b634e487b7160e01b5f52604160045260245ffd5b600554680100000000000000008110156105b7578060016105ef9201600555610b96565b81546001600160a01b0360039290921b91821b19169086901b17905561037c565b60405162461bcd60e51b815260206004820152600f60248201526e504f3a207a65726f20736f7572636560881b6044820152606490fd5b3461019b57602036600319011261019b5760043560055481101561019b57610670602091610b96565b905460405160039290921b1c6001600160a01b03168152f35b3461019b575f36600319011261019b576020600354604051908152f35b3461019b575f36600319011261019b5760606001546002546106ca60035482610c4c565b42119060405192835260208301526040820152f35b3461019b575f36600319011261019b576020600154604051908152f35b3461019b57602036600319011261019b57600435335f52600660205260ff60405f205416801561082f575b156107f857610737811515610c0f565b6001548060011c8082038281116102a65783101591826107da575b5050156107955780600155426002556040519081524260208201527f378b09391f49d01e482ba75312341912ad0652cb8aa8799b6b33b624bd65d9f260403392a2005b60405162461bcd60e51b815260206004820152601a60248201527f504f3a207072696365206368616e676520746f6f206c617267650000000000006044820152606490fd5b6107ee9250816107e991610c4c565b610c4c565b8111158280610752565b60405162461bcd60e51b815260206004820152600f60248201526e28279d103737ba103ab83230ba32b960891b6044820152606490fd5b505f546001600160a01b03163314610727565b3461019b57602036600319011261019b5761085b610b26565b61086f60018060a01b035f54163314610bd5565b6001600160a01b03165f818152600460205260408120805460ff191690557ff69636ef86ccf39d9112c4d859e1fef11f85e37c0bca4f5dd5d343bd2556882e9080a2005b3461019b57602036600319011261019b5760043561271081029080820461271014901517156102a657606090662386f26fc10000620f42406108f760015484610bc2565b04604051928184526020840152046040820152f35b3461019b57602036600319011261019b576001600160a01b0361092d610b26565b165f526006602052602060ff60405f2054166040519015158152f35b3461019b575f36600319011261019b575f546040516001600160a01b039091168152602090f35b3461019b57602036600319011261019b576001600160a01b03610991610b26565b165f52600460205260405f2060ff8154166001820190604051915f938154916109b983610b3c565b9081865260208601936001811690815f14610a785750600114610a3e575b50506109e88460c095960386610b74565b60ff6002820154169060046003820154910154916040519687951515865260a060208701525180948160a08801528787015e5f858501870152604085015260608401526080830152601f01601f19168101030190f35b9095505f5260205f205f905b868210610a625750840160200194506109e8846109d7565b6001816020925483858a01015201910190610a4a565b60ff191685525050151560051b840160200194506109e8846109d7565b3461019b57604036600319011261019b57610aae610b26565b602435801515810361019b57610af691610ad260018060a01b035f54163314610bd5565b60018060a01b03165f52600660205260405f209060ff801983541691151516179055565b005b3461019b57602036600319011261019b576020620f4240610b1d600154600435610bc2565b04604051908152f35b600435906001600160a01b038216820361019b57565b90600182811c92168015610b6a575b6020831014610b5657565b634e487b7160e01b5f52602260045260245ffd5b91607f1691610b4b565b90601f8019910116810190811067ffffffffffffffff8211176105b757604052565b600554811015610bae5760055f5260205f2001905f90565b634e487b7160e01b5f52603260045260245ffd5b818102929181159184041417156102a657565b15610bdc57565b60405162461bcd60e51b815260206004820152600b60248201526a504f3a206e6f742044414f60a81b6044820152606490fd5b15610c1657565b60405162461bcd60e51b815260206004820152600e60248201526d504f3a207a65726f20707269636560901b6044820152606490fd5b919082018092116102a657565b15610c6057565b60405162461bcd60e51b81526020600482015260116024820152701413ce881c1c9a58d9481b9bdd081cd95d607a1b6044820152606490fdfea26469706673582212207d73a42f55ec5c5518bb84f177736d9fea8c294a5a421ea27a0373a8ab9e2dfd64736f6c634300081e0033","linkReferences":{}},"methodIdentifiers":{"dao()":"4162169f","forceSetPrice(uint256)":"e2290bd0","getPrice()":"98d5fdca","getVfidePriceUsd()":"e0d5db1b","isUpdater(address)":"4fdfb086","lastUpdateTime()":"c8f33c91","previewCheckoutPrice(uint256)":"56cf6b65","priceSources(address)":"2e17b8d6","removePriceSource(address)":"623b6549","setPriceSource(address,string,uint8)":"bcfc916e","setStalenessThreshold(uint256)":"fb01e7f2","setUpdater(address,bool)":"1a153391","sourceList(uint256)":"aec0be13","stalenessThreshold()":"a84f6ebb","updatePrice(uint256)":"8d6cc56d","usdToVfide(uint256)":"14e45a94","vfidePerUsd()":"9370161b","vfideToUsd(uint256)":"d3e5aeb7"},"id":15}