{"abi":[{"type":"constructor","inputs":[{"name":"_owner","type":"address","internalType":"address"}],"stateMutability":"nonpayable"},{"type":"function","name":"burn","inputs":[{"name":"","type":"uint256","internalType":"uint256"}],"outputs":[],"stateMutability":"nonpayable"},{"type":"function","name":"hasBadgeNFT","inputs":[{"name":"user","type":"address","internalType":"address"},{"name":"badgeId","type":"bytes32","internalType":"bytes32"}],"outputs":[{"name":"","type":"bool","internalType":"bool"}],"stateMutability":"view"},{"type":"function","name":"mint","inputs":[{"name":"to","type":"address","internalType":"address"},{"name":"badgeId","type":"bytes32","internalType":"bytes32"},{"name":"","type":"string","internalType":"string"}],"outputs":[{"name":"","type":"uint256","internalType":"uint256"}],"stateMutability":"nonpayable"},{"type":"function","name":"minters","inputs":[{"name":"","type":"address","internalType":"address"}],"outputs":[{"name":"","type":"bool","internalType":"bool"}],"stateMutability":"view"},{"type":"function","name":"owner","inputs":[],"outputs":[{"name":"","type":"address","internalType":"address"}],"stateMutability":"view"},{"type":"function","name":"setMinter","inputs":[{"name":"minter","type":"address","internalType":"address"},{"name":"allowed","type":"bool","internalType":"bool"}],"outputs":[],"stateMutability":"nonpayable"},{"type":"function","name":"tokenCounter","inputs":[],"outputs":[{"name":"","type":"uint256","internalType":"uint256"}],"stateMutability":"view"},{"type":"function","name":"userBadges","inputs":[{"name":"","type":"address","internalType":"address"},{"name":"","type":"bytes32","internalType":"bytes32"}],"outputs":[{"name":"","type":"bool","internalType":"bool"}],"stateMutability":"view"}],"bytecode":{"object":"0x608034607057601f6103f338819003918201601f19168301916001600160401b03831184841017607457808492602094604052833981010312607057516001600160a01b03811690819003607057600180546001600160a01b03191691909117905560405161036a90816100898239f35b5f80fd5b634e487b7160e01b5f52604160045260245ffdfe6080806040526004361015610012575f80fd5b5f3560e01c908163265e3a34146102da5750806342966c68146102c7578063517e7514146101d05780638da5cb5b146101a8578063cf456ae71461011a578063d082e381146100fd578063f0dc58b9146100b45763f46eccc414610074575f80fd5b346100b05760203660031901126100b0576001600160a01b0361009561031e565b165f525f602052602060ff60405f2054166040519015158152f35b5f80fd5b346100b05760403660031901126100b0576001600160a01b036100d561031e565b165f52600360205260405f206024355f52602052602060ff60405f2054166040519015158152f35b346100b0575f3660031901126100b0576020600254604051908152f35b346100b05760403660031901126100b05761013361031e565b602435908115158092036100b0576001546001600160a01b031633036101765760018060a01b03165f525f60205260405f209060ff801983541691161790555f80f35b60405162461bcd60e51b815260206004820152600a60248201526937b7363c9037bbb732b960b11b6044820152606490fd5b346100b0575f3660031901126100b0576001546040516001600160a01b039091168152602090f35b346100b05760603660031901126100b0576101e961031e565b60443567ffffffffffffffff81116100b057366023820112156100b057806004013567ffffffffffffffff81116100b057369101602401116100b057335f525f60205260ff60405f20541615610295576002545f1981146102815760010160025560018060a01b03165f52600360205260405f206024355f5260205260405f20600160ff198254161790556020600254604051908152f35b634e487b7160e01b5f52601160045260245ffd5b60405162461bcd60e51b815260206004820152600a6024820152693737ba1036b4b73a32b960b11b6044820152606490fd5b346100b05760203660031901126100b057005b346100b05760403660031901126100b0576020906001600160a01b036102fe61031e565b165f526003825260405f206024355f52825260ff60405f20541615158152f35b600435906001600160a01b03821682036100b05756fea2646970667358221220d064362966da9e1190e8bb54494df62c1b65a369e4dfd2e6799ae8c3a7bed1b764736f6c634300081e0033","linkReferences":{}},"methodIdentifiers":{"burn(uint256)":"42966c68","hasBadgeNFT(address,bytes32)":"265e3a34","mint(address,bytes32,string)":"517e7514","minters(address)":"f46eccc4","owner()":"8da5cb5b","setMinter(address,bool)":"cf456ae7","tokenCounter()":"d082e381","userBadges(address,bytes32)":"f0dc58b9"},"id":67}