{"abi":[{"type":"constructor","inputs":[],"stateMutability":"nonpayable"},{"type":"function","name":"allow","inputs":[{"name":"token","type":"address","internalType":"address"}],"outputs":[],"stateMutability":"nonpayable"},{"type":"function","name":"allowed","inputs":[{"name":"","type":"address","internalType":"address"}],"outputs":[{"name":"","type":"bool","internalType":"bool"}],"stateMutability":"view"},{"type":"function","name":"decimalsOf","inputs":[{"name":"","type":"address","internalType":"address"}],"outputs":[{"name":"","type":"uint8","internalType":"uint8"}],"stateMutability":"pure"},{"type":"function","name":"isAllowed","inputs":[{"name":"token","type":"address","internalType":"address"}],"outputs":[{"name":"","type":"bool","internalType":"bool"}],"stateMutability":"view"},{"type":"function","name":"setAllowed","inputs":[{"name":"token","type":"address","internalType":"address"},{"name":"_allowed","type":"bool","internalType":"bool"}],"outputs":[],"stateMutability":"nonpayable"},{"type":"function","name":"treasury","inputs":[],"outputs":[{"name":"","type":"address","internalType":"address"}],"stateMutability":"view"}],"bytecode":{"object":"0x60808060405234602757600180546001600160a01b031916331790556101b9908161002c8239f35b5f80fdfe60806040526004361015610011575f80fd5b5f3560e01c80634697f05d146101235780635e2d7433146100fe57806361d027b3146100d6578063babcc5391461009a578063d63a8e111461009a5763ff9913e81461005b575f80fd5b34610096576020366003190112610096576001600160a01b0361007c61016d565b165f525f60205260405f20600160ff198254161790555f80f35b5f80fd5b34610096576020366003190112610096576001600160a01b036100bb61016d565b165f525f602052602060ff60405f2054166040519015158152f35b34610096575f366003190112610096576001546040516001600160a01b039091168152602090f35b346100965760203660031901126100965761011761016d565b50602060405160068152f35b346100965760403660031901126100965761013c61016d565b602435908115158092036100965760018060a01b03165f525f60205260405f209060ff801983541691161790555f80f35b600435906001600160a01b03821682036100965756fea2646970667358221220cc43822f3159ed7b3c3951e0afef17ab36b06d0162f270280a9214718f69870b64736f6c634300081e0033","linkReferences":{}},"methodIdentifiers":{"allow(address)":"ff9913e8","allowed(address)":"d63a8e11","decimalsOf(address)":"5e2d7433","isAllowed(address)":"babcc539","setAllowed(address,bool)":"4697f05d","treasury()":"61d027b3"},"id":91}