{"abi":[{"type":"constructor","inputs":[{"name":"_seer","type":"address","internalType":"address"},{"name":"_guardianRegistry","type":"address","internalType":"address"},{"name":"_dao","type":"address","internalType":"address"}],"stateMutability":"nonpayable"},{"type":"function","name":"BASE_THRESHOLD","inputs":[],"outputs":[{"name":"","type":"uint256","internalType":"uint256"}],"stateMutability":"view"},{"type":"function","name":"COOLDOWN_PERIOD","inputs":[],"outputs":[{"name":"","type":"uint256","internalType":"uint256"}],"stateMutability":"view"},{"type":"function","name":"HIGH_TRUST_THRESHOLD","inputs":[],"outputs":[{"name":"","type":"uint256","internalType":"uint256"}],"stateMutability":"view"},{"type":"function","name":"MIN_ENDORSERS","inputs":[],"outputs":[{"name":"","type":"uint256","internalType":"uint256"}],"stateMutability":"view"},{"type":"function","name":"RECOVERY_WINDOW","inputs":[],"outputs":[{"name":"","type":"uint256","internalType":"uint256"}],"stateMutability":"view"},{"type":"function","name":"SCORE_SCALE","inputs":[],"outputs":[{"name":"","type":"uint256","internalType":"uint256"}],"stateMutability":"view"},{"type":"function","name":"VOUCH_PENALTY","inputs":[],"outputs":[{"name":"","type":"uint256","internalType":"uint256"}],"stateMutability":"view"},{"type":"function","name":"activeRecoveries","inputs":[{"name":"","type":"address","internalType":"address"}],"outputs":[{"name":"oldAddress","type":"address","internalType":"address"},{"name":"newAddress","type":"address","internalType":"address"},{"name":"vouchWeight","type":"uint256","internalType":"uint256"},{"name":"createdAt","type":"uint256","internalType":"uint256"},{"name":"requiredWeight","type":"uint256","internalType":"uint256"},{"name":"executed","type":"bool","internalType":"bool"},{"name":"contested","type":"bool","internalType":"bool"}],"stateMutability":"view"},{"type":"function","name":"contestRecovery","inputs":[],"outputs":[],"stateMutability":"nonpayable"},{"type":"function","name":"dao","inputs":[],"outputs":[{"name":"","type":"address","internalType":"address"}],"stateMutability":"view"},{"type":"function","name":"disableSocialRecovery","inputs":[],"outputs":[],"stateMutability":"nonpayable"},{"type":"function","name":"enableSocialRecovery","inputs":[{"name":"customThreshold","type":"uint256","internalType":"uint256"},{"name":"trustedVouchers","type":"address[]","internalType":"address[]"}],"outputs":[],"stateMutability":"nonpayable"},{"type":"function","name":"executeRecovery","inputs":[{"name":"oldAddress","type":"address","internalType":"address"}],"outputs":[],"stateMutability":"nonpayable"},{"type":"function","name":"getRecoveryStatus","inputs":[{"name":"oldAddress","type":"address","internalType":"address"}],"outputs":[{"name":"active","type":"bool","internalType":"bool"},{"name":"newAddress","type":"address","internalType":"address"},{"name":"vouchWeight","type":"uint256","internalType":"uint256"},{"name":"requiredWeight","type":"uint256","internalType":"uint256"},{"name":"voucherCount","type":"uint256","internalType":"uint256"},{"name":"expiresAt","type":"uint256","internalType":"uint256"},{"name":"canExecute","type":"bool","internalType":"bool"}],"stateMutability":"view"},{"type":"function","name":"getUserConfig","inputs":[{"name":"user","type":"address","internalType":"address"}],"outputs":[{"name":"optedIn","type":"bool","internalType":"bool"},{"name":"lastRecoveryAt","type":"uint256","internalType":"uint256"},{"name":"customThreshold","type":"uint256","internalType":"uint256"},{"name":"trustedVouchers","type":"address[]","internalType":"address[]"}],"stateMutability":"view"},{"type":"function","name":"guardianRegistry","inputs":[],"outputs":[{"name":"","type":"address","internalType":"contract IGuardianRegistry"}],"stateMutability":"view"},{"type":"function","name":"hasUserVouched","inputs":[{"name":"oldAddress","type":"address","internalType":"address"},{"name":"voucher","type":"address","internalType":"address"}],"outputs":[{"name":"","type":"bool","internalType":"bool"}],"stateMutability":"view"},{"type":"function","name":"initiateRecovery","inputs":[{"name":"oldAddress","type":"address","internalType":"address"},{"name":"newAddress","type":"address","internalType":"address"}],"outputs":[],"stateMutability":"nonpayable"},{"type":"function","name":"seer","inputs":[],"outputs":[{"name":"","type":"address","internalType":"contract ISeerFull"}],"stateMutability":"view"},{"type":"function","name":"setGuardianRegistry","inputs":[{"name":"_registry","type":"address","internalType":"address"}],"outputs":[],"stateMutability":"nonpayable"},{"type":"function","name":"setSeer","inputs":[{"name":"_seer","type":"address","internalType":"address"}],"outputs":[],"stateMutability":"nonpayable"},{"type":"function","name":"userConfigs","inputs":[{"name":"","type":"address","internalType":"address"}],"outputs":[{"name":"optedIn","type":"bool","internalType":"bool"},{"name":"lastRecoveryAt","type":"uint256","internalType":"uint256"},{"name":"customThreshold","type":"uint256","internalType":"uint256"}],"stateMutability":"view"},{"type":"function","name":"vouchForRecovery","inputs":[{"name":"oldAddress","type":"address","internalType":"address"}],"outputs":[],"stateMutability":"nonpayable"},{"type":"event","name":"FraudulentVouchPenalized","inputs":[{"name":"voucher","type":"address","indexed":true,"internalType":"address"},{"name":"recoveredUser","type":"address","indexed":true,"internalType":"address"}],"anonymous":false},{"type":"event","name":"RecoveryCancelled","inputs":[{"name":"oldAddress","type":"address","indexed":true,"internalType":"address"}],"anonymous":false},{"type":"event","name":"RecoveryContested","inputs":[{"name":"oldAddress","type":"address","indexed":true,"internalType":"address"},{"name":"contester","type":"address","indexed":true,"internalType":"address"}],"anonymous":false},{"type":"event","name":"RecoveryExecuted","inputs":[{"name":"oldAddress","type":"address","indexed":true,"internalType":"address"},{"name":"newAddress","type":"address","indexed":true,"internalType":"address"}],"anonymous":false},{"type":"event","name":"RecoveryInitiated","inputs":[{"name":"oldAddress","type":"address","indexed":true,"internalType":"address"},{"name":"newAddress","type":"address","indexed":true,"internalType":"address"},{"name":"requiredWeight","type":"uint256","indexed":false,"internalType":"uint256"}],"anonymous":false},{"type":"event","name":"SocialRecoveryDisabled","inputs":[{"name":"user","type":"address","indexed":true,"internalType":"address"}],"anonymous":false},{"type":"event","name":"SocialRecoveryEnabled","inputs":[{"name":"user","type":"address","indexed":true,"internalType":"address"}],"anonymous":false},{"type":"event","name":"VouchReceived","inputs":[{"name":"oldAddress","type":"address","indexed":true,"internalType":"address"},{"name":"voucher","type":"address","indexed":true,"internalType":"address"},{"name":"weight","type":"uint256","indexed":false,"internalType":"uint256"},{"name":"totalWeight","type":"uint256","indexed":false,"internalType":"uint256"}],"anonymous":false},{"type":"error","name":"SGR_AlreadyVouched","inputs":[]},{"type":"error","name":"SGR_CooldownActive","inputs":[]},{"type":"error","name":"SGR_NewAddressInvalid","inputs":[]},{"type":"error","name":"SGR_NoActiveRecovery","inputs":[]},{"type":"error","name":"SGR_NotEndorser","inputs":[]},{"type":"error","name":"SGR_NotEnoughVouchWeight","inputs":[]},{"type":"error","name":"SGR_RecoveryExpired","inputs":[]},{"type":"error","name":"SGR_RecoveryLocked","inputs":[]},{"type":"error","name":"SGR_SelfVouchNotAllowed","inputs":[]},{"type":"error","name":"SGR_Unauthorized","inputs":[]}],"bytecode":{"object":"0x6080346100c757601f6114d438819003918201601f19168301916001600160401b038311848410176100ef578084926060946040528339810103126100c75761004781610103565b90610060604061005960208401610103565b9201610103565b916001600160a01b0316801515806100dd575b806100cb575b156100c7575f80546001600160a01b03199081169290921790556001805482166001600160a01b0393841617905560028054909116929091169190911790556040516113bc90816101188239f35b5f80fd5b506001600160a01b0383161515610079565b506001600160a01b0382161515610073565b634e487b7160e01b5f52604160045260245ffd5b51906001600160a01b03821682036100c75756fe6080806040526004361015610012575f80fd5b5f905f3560e01c90816307c73d3414611175575080630a4636b21461115857806314933df51461110157806316626ab9146110155780632b36585914610fb05780632d55ea3914610f8957806330a84f5114610f6d578063374f5d7a14610f515780633bc2c4a714610d5d5780634162169f14610d345780634232a3c314610d0b57806342b5847114610cbe578063593a31dc14610af85780636e99d52f14610ada57806384a478e41461099e5780639629238b146106c6578063a52d92cf146102bc578063ac3c61ab146102a0578063ac44da5214610283578063bb63f1ef146101f0578063c2200e3c1461019a578063d44686fd1461017d5763e071c1c01461011b575f80fd5b3461017a57602036600319011261017a57610134611266565b6002546001600160a01b0316330361016b576001600160a01b031680156101675781546001600160a01b03191617815580f35b5080fd5b636289d76160e01b8252600482fd5b80fd5b503461017a578060031936011261017a576020604051610bb88152f35b503461017a57602036600319011261017a576060906040906001600160a01b036101c2611266565b16815260046020522060ff815416906002600182015491015490604051921515835260208301526040820152f35b503461017a57602036600319011261017a5760e0906040906001600160a01b03610218611266565b16815260036020522060ff60018060a01b038254169160018060a01b0360018201541690600281015460038201549060066004840154930154936040519687526020870152604086015260608501526080840152818116151560a084015260081c16151560c0820152f35b503461017a578060031936011261017a5760206040516127108152f35b503461017a578060031936011261017a57602060405160038152f35b503461017a57604036600319011261017a576102d6611266565b6001600160a01b036102e661127c565b1690811580156106b4575b6106a5576001600160a01b0316808352600460205260408320805460ff16156106965781845260036020526003604085200154610663575b60018101548015159081610638575b50610629578354604051630d47875d60e41b8152600481018490529190602090839060249082906001600160a01b03165afa91821561061e5785926105e5575b506002015480156105dc575b908190611f408110610589575050603c810290808204603c149015171561057557606490045b6020906040516103ba8382611292565b8581525f368137604051610100810181811067ffffffffffffffff82111761056157604090815285825284820187815282820189815242606085019081526080850187815260a0860196875260c086018c815260e087018d81528b8e526003808c52968e20975188546001600160a01b03199081166001600160a01b03928316178a55965160018a0180549098169116179095559251600287015590519385019390935591516004840155925180519193929190600583019067ffffffffffffffff831161054d57600160401b831161054d5787908254848455808510610525575b5001908a52868a208a5b83811061050a57505050509060067fe290ea2cc3cfeb5114f992dc8be9e503de30042c13b9298644a2679b09e17a0495949392019151151560ff8019845416911617825551151561ff0082549160081b169061ff001916179055604051908152a380f35b82516001600160a01b031682820155918801916001016104a6565b84838e8681522091820191015b81811061053f575061049c565b8d81558a9350600101610532565b634e487b7160e01b8b52604160045260248bfd5b634e487b7160e01b88526041600452602488fd5b634e487b7160e01b84526011600452602484fd5b61177081106105b057505060508102908082046050149015171561057557606490046103aa565b610fa0116105bf575b506103aa565b60968082029250811591830414171561057557606490045f6105b9565b50611388610384565b9091506020813d602011610616575b8161060160209383611292565b810103126106125751906002610378565b5f80fd5b3d91506105f4565b6040513d87823e3d90fd5b63913c7a0960e01b8452600484fd5b905062278d00810180911161064f5742105f610338565b634e487b7160e01b85526011600452602485fd5b8184526003602052600360408520015462093a80810180911161064f574210156103295763285a019960e11b8452600484fd5b636289d76160e01b8452600484fd5b631d18c98360e11b8352600483fd5b506001600160a01b03811682146102f1565b503461017a57602036600319011261017a576106e0611266565b60018060a01b038116808352600360205260408320916003830154801561098f5762093a80810180911161064f57421161098057813314801561096a575b61095b57818452600560209081526040808620335f908152925290205460ff1661094c578354604051631edd910d60e01b81523360048201526001600160a01b0392831660248201529160209183916044918391165afa9081156108f357849161090d575b50156108fe57808352600560209081526040808520335f81815291845290829020805460ff1916600117905585549151630d47875d60e41b815260048101919091529190829060249082906001600160a01b03165afa9081156108f35784916108c1575b509181845260046020526040842060038591018054915b828110610873575b5050506002810190815484810180911161085f57825561082a903390600501611345565b5460405192835260208301527fdaa4f53ff142ae5532338b0c908bdd028ef145e92e104c7e6f4fbc74bffab75e60403393a380f35b634e487b7160e01b86526011600452602486fd5b61087d81836112c8565b905460039190911b1c6001600160a01b0316331461089d576001016107fe565b505050916096810290808204609614901517156105755760649004915f8080610806565b90506020813d6020116108eb575b816108dc60209383611292565b8101031261061257515f6107e7565b3d91506108cf565b6040513d86823e3d90fd5b6309ba9cc960e21b8352600483fd5b90506020813d602011610944575b8161092860209383611292565b8101031261094057518015158103610940575f610783565b8380fd5b3d915061091b565b6328a853d960e11b8452600484fd5b6378c77c9160e11b8452600484fd5b5060018301546001600160a01b0316331461071e565b63772cf23560e11b8452600484fd5b630eb82cbf60e01b8552600485fd5b503461017a57604036600319011261017a576024359067ffffffffffffffff821161017a573660238301121561017a57816004013567ffffffffffffffff8111610167576024830192602436918360051b010111610167573382526004602052600360408320600160ff1982541617815560043560028201550190610a22826112f1565b825b81811080610ad0575b15610aa7576001600160a01b03610a4d610a48838589611321565b611331565b16151580610a87575b610a6b575b5f19811461057557600101610a24565b610a82610a7c610a48838589611321565b84611345565b610a5b565b50336001600160a01b03610a9f610a4884868a611321565b161415610a56565b83337fce16731ec122df6a0926b2af93ede6c056e0113e42a41c39032895d293d8c2a78280a280f35b50600a8110610a2d565b503461017a578060031936011261017a57602060405162278d008152f35b503461017a578060031936011261017a57338152600360205260408120600381015415610caf5760068101805460ff81166109805761ff001916610100179055600501815b8154811015610c4d57610b5081836112c8565b9054845460039290921b1c6001600160a01b039081169291859116803b156101675781809160a46040518094819363c274326d60e01b83528960048401526101f4602484015260606044840152601960648401527f4672617564756c656e74207265636f7665727920766f7563680000000000000060848401525af18015610c4257610c2d575b505060019133817fba7cca649aac777cc34165d3ee0424ec273a586c5c980a00f9dc3d76637fffa78780a333855260056020526040852090838060a01b03165f5260205260405f2060ff19815416905501610b3d565b81610c3791611292565b61094057835f610bd7565b6040513d84823e3d90fd5b8233337f081a61927405b033f1628a7b3de607244ebd2dc52e661a7dbf23b58c3577206a8380a3338152600360205280600660408220828155826001820155826002820155826003820155826004820155610caa600582016112f1565b015580f35b630eb82cbf60e01b8252600482fd5b503461017a578060031936011261017a5733808252600460205260408220805460ff191690557f8261561f39827a5411a198e672eae01b6e9ec37c9f5cdbac8ed26e8bc567b3718280a280f35b503461017a578060031936011261017a576001546040516001600160a01b039091168152602090f35b503461017a578060031936011261017a576002546040516001600160a01b039091168152602090f35b503461061257602036600319011261061257610d77611266565b60018060a01b03811690815f52600360205260405f209060038201548015610f425762093a808101809111610f2e574211610f1f57600682019182549260ff8416610f1f5760ff8460081c16610f105760058201936003855410610f01576002830154600484015411610f015760ff191660019081179091555f858152600460205260409020429082015580549101805490926001600160a01b0392831692909116823b156106125760405163014c691960e71b81526001600160a01b03928316600482015291166024820152905f908290604490829084905af18015610ef657610ee1575b50546001600160a01b0316827f60f9f98be64687700419cfa6fdd7877bc88c6daeb10bc664a2be9fdd6b0c79218580a3825b8154811015610edd57600190838552600560205260408520610eb182856112c8565b848060a01b0391549060031b1c16838060a01b03165f5260205260405f2060ff19815416905501610e8f565b8380f35b610eee9194505f90611292565b5f925f610e5d565b6040513d5f823e3d90fd5b63c03c756f60e01b5f5260045ffd5b63285a019960e11b5f5260045ffd5b63772cf23560e11b5f5260045ffd5b634e487b7160e01b5f52601160045260245ffd5b630eb82cbf60e01b5f5260045ffd5b34610612575f3660031901126106125760206040516101f48152f35b34610612575f3660031901126106125760206040516113888152f35b34610612575f366003190112610612575f546040516001600160a01b039091168152602090f35b3461061257602036600319011261061257610fc9611266565b6002546001600160a01b03163303611006576001600160a01b03168015610612576bffffffffffffffffffffffff60a01b60015416176001555f80f35b636289d76160e01b5f5260045ffd5b34610612576020366003190112610612576001600160a01b03611036611266565b165f52600460205260405f2060ff81541660018201549060036002840154930190604051806020845491828152019081945f5260205f20905f5b8181106110e25750505081611086910382611292565b60405194859460808601931515865260208601526040850152608060608501525180915260a0830191905f5b8181106110c0575050500390f35b82516001600160a01b03168452859450602093840193909201916001016110b2565b82546001600160a01b0316845260209093019260019283019201611070565b346106125760403660031901126106125761111a611266565b61112261127c565b9060018060a01b03165f52600560205260405f209060018060a01b03165f52602052602060ff60405f2054166040519015158152f35b34610612575f36600319011261061257602060405162093a808152f35b34610612576020366003190112610612576001600160a01b03611196611266565b165f52600360205260405f209060038201548015159081611256575b81611243575b60018060a01b0360018501541693600281015490600560048201549101549162093a808401809411610f2e5760e0968580611238575b8661122c575b86611220575b15158752602087015260408601526060850152608084015260a0830152151560c0820152f35b955084421115956111fa565b600385101596506111f4565b8383101596506111ee565b600684015460081c60ff161591506111b8565b600684015460ff161591506111b2565b600435906001600160a01b038216820361061257565b602435906001600160a01b038216820361061257565b90601f8019910116810190811067ffffffffffffffff8211176112b457604052565b634e487b7160e01b5f52604160045260245ffd5b80548210156112dd575f5260205f2001905f90565b634e487b7160e01b5f52603260045260245ffd5b8054905f815581611300575050565b5f5260205f20908101905b818110611316575050565b5f815560010161130b565b91908110156112dd5760051b0190565b356001600160a01b03811681036106125790565b8054600160401b8110156112b457611362916001820181556112c8565b81546001600160a01b0393841660039290921b91821b9390911b191691909117905556fea264697066735822122060dd79322885350198a9bba28ec03563f680a2878a0b9bdc12bd1d1db5e9200a64736f6c634300081e0033","linkReferences":{}},"methodIdentifiers":{"BASE_THRESHOLD()":"30a84f51","COOLDOWN_PERIOD()":"6e99d52f","HIGH_TRUST_THRESHOLD()":"d44686fd","MIN_ENDORSERS()":"ac3c61ab","RECOVERY_WINDOW()":"0a4636b2","SCORE_SCALE()":"ac44da52","VOUCH_PENALTY()":"374f5d7a","activeRecoveries(address)":"bb63f1ef","contestRecovery()":"593a31dc","dao()":"4162169f","disableSocialRecovery()":"42b58471","enableSocialRecovery(uint256,address[])":"84a478e4","executeRecovery(address)":"3bc2c4a7","getRecoveryStatus(address)":"07c73d34","getUserConfig(address)":"16626ab9","guardianRegistry()":"4232a3c3","hasUserVouched(address,address)":"14933df5","initiateRecovery(address,address)":"a52d92cf","seer()":"2d55ea39","setGuardianRegistry(address)":"2b365859","setSeer(address)":"e071c1c0","userConfigs(address)":"c2200e3c","vouchForRecovery(address)":"9629238b"},"id":4}