{
  "_format": "hh-sol-artifact-1",
  "contractName": "VaultRegistry",
  "sourceName": "contracts/VaultRegistry.sol",
  "abi": [
    {
      "inputs": [
        {
          "internalType": "address",
          "name": "_vaultHub",
          "type": "address"
        },
        {
          "internalType": "address",
          "name": "_badgeManager",
          "type": "address"
        },
        {
          "internalType": "address",
          "name": "_proofScoreManager",
          "type": "address"
        }
      ],
      "stateMutability": "nonpayable",
      "type": "constructor"
    },
    {
      "inputs": [],
      "name": "InvalidVault",
      "type": "error"
    },
    {
      "inputs": [],
      "name": "NotVaultOwner",
      "type": "error"
    },
    {
      "inputs": [
        {
          "internalType": "address",
          "name": "owner",
          "type": "address"
        }
      ],
      "name": "OwnableInvalidOwner",
      "type": "error"
    },
    {
      "inputs": [
        {
          "internalType": "address",
          "name": "account",
          "type": "address"
        }
      ],
      "name": "OwnableUnauthorizedAccount",
      "type": "error"
    },
    {
      "inputs": [],
      "name": "RecoveryIdAlreadyTaken",
      "type": "error"
    },
    {
      "inputs": [],
      "name": "ReentrancyGuardReentrantCall",
      "type": "error"
    },
    {
      "inputs": [],
      "name": "UsernameAlreadyTaken",
      "type": "error"
    },
    {
      "inputs": [],
      "name": "VaultNotFound",
      "type": "error"
    },
    {
      "inputs": [],
      "name": "ZeroAddress",
      "type": "error"
    },
    {
      "anonymous": false,
      "inputs": [
        {
          "indexed": true,
          "internalType": "address",
          "name": "vault",
          "type": "address"
        },
        {
          "indexed": true,
          "internalType": "bytes32",
          "name": "fingerprint",
          "type": "bytes32"
        }
      ],
      "name": "BadgeFingerprintUpdated",
      "type": "event"
    },
    {
      "anonymous": false,
      "inputs": [
        {
          "indexed": true,
          "internalType": "address",
          "name": "vault",
          "type": "address"
        },
        {
          "indexed": true,
          "internalType": "bytes32",
          "name": "emailHash",
          "type": "bytes32"
        }
      ],
      "name": "EmailRecoverySet",
      "type": "event"
    },
    {
      "anonymous": false,
      "inputs": [
        {
          "indexed": true,
          "internalType": "address",
          "name": "vault",
          "type": "address"
        },
        {
          "indexed": true,
          "internalType": "address",
          "name": "guardian",
          "type": "address"
        }
      ],
      "name": "GuardianRegistered",
      "type": "event"
    },
    {
      "anonymous": false,
      "inputs": [
        {
          "indexed": true,
          "internalType": "address",
          "name": "vault",
          "type": "address"
        },
        {
          "indexed": true,
          "internalType": "address",
          "name": "guardian",
          "type": "address"
        }
      ],
      "name": "GuardianRemoved",
      "type": "event"
    },
    {
      "anonymous": false,
      "inputs": [
        {
          "indexed": true,
          "internalType": "address",
          "name": "previousOwner",
          "type": "address"
        },
        {
          "indexed": true,
          "internalType": "address",
          "name": "newOwner",
          "type": "address"
        }
      ],
      "name": "OwnershipTransferred",
      "type": "event"
    },
    {
      "anonymous": false,
      "inputs": [
        {
          "indexed": true,
          "internalType": "address",
          "name": "vault",
          "type": "address"
        },
        {
          "indexed": true,
          "internalType": "bytes32",
          "name": "phoneHash",
          "type": "bytes32"
        }
      ],
      "name": "PhoneRecoverySet",
      "type": "event"
    },
    {
      "anonymous": false,
      "inputs": [
        {
          "indexed": true,
          "internalType": "address",
          "name": "vault",
          "type": "address"
        },
        {
          "indexed": true,
          "internalType": "bytes32",
          "name": "recoveryIdHash",
          "type": "bytes32"
        }
      ],
      "name": "RecoveryIdSet",
      "type": "event"
    },
    {
      "anonymous": false,
      "inputs": [
        {
          "indexed": true,
          "internalType": "address",
          "name": "vault",
          "type": "address"
        },
        {
          "indexed": true,
          "internalType": "bytes32",
          "name": "usernameHash",
          "type": "bytes32"
        }
      ],
      "name": "UsernameSet",
      "type": "event"
    },
    {
      "anonymous": false,
      "inputs": [
        {
          "indexed": true,
          "internalType": "address",
          "name": "vault",
          "type": "address"
        },
        {
          "indexed": false,
          "internalType": "uint256",
          "name": "timestamp",
          "type": "uint256"
        }
      ],
      "name": "VaultActivityUpdated",
      "type": "event"
    },
    {
      "anonymous": false,
      "inputs": [
        {
          "indexed": true,
          "internalType": "address",
          "name": "vault",
          "type": "address"
        },
        {
          "indexed": true,
          "internalType": "address",
          "name": "owner",
          "type": "address"
        },
        {
          "indexed": false,
          "internalType": "uint256",
          "name": "timestamp",
          "type": "uint256"
        }
      ],
      "name": "VaultRegistered",
      "type": "event"
    },
    {
      "inputs": [
        {
          "internalType": "uint256",
          "name": "",
          "type": "uint256"
        }
      ],
      "name": "allVaults",
      "outputs": [
        {
          "internalType": "address",
          "name": "",
          "type": "address"
        }
      ],
      "stateMutability": "view",
      "type": "function"
    },
    {
      "inputs": [],
      "name": "badgeManager",
      "outputs": [
        {
          "internalType": "contract IBadgeManager",
          "name": "",
          "type": "address"
        }
      ],
      "stateMutability": "view",
      "type": "function"
    },
    {
      "inputs": [],
      "name": "getTotalVaults",
      "outputs": [
        {
          "internalType": "uint256",
          "name": "",
          "type": "uint256"
        }
      ],
      "stateMutability": "view",
      "type": "function"
    },
    {
      "inputs": [
        {
          "internalType": "uint256",
          "name": "index",
          "type": "uint256"
        }
      ],
      "name": "getVaultByIndex",
      "outputs": [
        {
          "internalType": "address",
          "name": "vault",
          "type": "address"
        },
        {
          "components": [
            {
              "internalType": "address",
              "name": "vault",
              "type": "address"
            },
            {
              "internalType": "address",
              "name": "originalOwner",
              "type": "address"
            },
            {
              "internalType": "uint256",
              "name": "createdAt",
              "type": "uint256"
            },
            {
              "internalType": "uint256",
              "name": "lastActiveAt",
              "type": "uint256"
            },
            {
              "internalType": "uint256",
              "name": "proofScore",
              "type": "uint256"
            },
            {
              "internalType": "uint256",
              "name": "badgeCount",
              "type": "uint256"
            },
            {
              "internalType": "bool",
              "name": "hasGuardians",
              "type": "bool"
            },
            {
              "internalType": "bool",
              "name": "hasRecoveryId",
              "type": "bool"
            },
            {
              "internalType": "bool",
              "name": "isRecoverable",
              "type": "bool"
            }
          ],
          "internalType": "struct VaultRegistry.VaultInfo",
          "name": "info",
          "type": "tuple"
        }
      ],
      "stateMutability": "view",
      "type": "function"
    },
    {
      "inputs": [
        {
          "internalType": "address",
          "name": "vault",
          "type": "address"
        }
      ],
      "name": "getVaultInfo",
      "outputs": [
        {
          "components": [
            {
              "internalType": "address",
              "name": "vault",
              "type": "address"
            },
            {
              "internalType": "address",
              "name": "originalOwner",
              "type": "address"
            },
            {
              "internalType": "uint256",
              "name": "createdAt",
              "type": "uint256"
            },
            {
              "internalType": "uint256",
              "name": "lastActiveAt",
              "type": "uint256"
            },
            {
              "internalType": "uint256",
              "name": "proofScore",
              "type": "uint256"
            },
            {
              "internalType": "uint256",
              "name": "badgeCount",
              "type": "uint256"
            },
            {
              "internalType": "bool",
              "name": "hasGuardians",
              "type": "bool"
            },
            {
              "internalType": "bool",
              "name": "hasRecoveryId",
              "type": "bool"
            },
            {
              "internalType": "bool",
              "name": "isRecoverable",
              "type": "bool"
            }
          ],
          "internalType": "struct VaultRegistry.VaultInfo",
          "name": "info",
          "type": "tuple"
        }
      ],
      "stateMutability": "view",
      "type": "function"
    },
    {
      "inputs": [
        {
          "internalType": "address",
          "name": "vault",
          "type": "address"
        }
      ],
      "name": "isRecoverable",
      "outputs": [
        {
          "internalType": "bool",
          "name": "",
          "type": "bool"
        }
      ],
      "stateMutability": "view",
      "type": "function"
    },
    {
      "inputs": [
        {
          "internalType": "string",
          "name": "recoveryId",
          "type": "string"
        }
      ],
      "name": "isRecoveryIdAvailable",
      "outputs": [
        {
          "internalType": "bool",
          "name": "",
          "type": "bool"
        }
      ],
      "stateMutability": "view",
      "type": "function"
    },
    {
      "inputs": [
        {
          "internalType": "string",
          "name": "username",
          "type": "string"
        }
      ],
      "name": "isUsernameAvailable",
      "outputs": [
        {
          "internalType": "bool",
          "name": "",
          "type": "bool"
        }
      ],
      "stateMutability": "view",
      "type": "function"
    },
    {
      "inputs": [],
      "name": "owner",
      "outputs": [
        {
          "internalType": "address",
          "name": "",
          "type": "address"
        }
      ],
      "stateMutability": "view",
      "type": "function"
    },
    {
      "inputs": [],
      "name": "proofScoreManager",
      "outputs": [
        {
          "internalType": "contract IProofScoreManager",
          "name": "",
          "type": "address"
        }
      ],
      "stateMutability": "view",
      "type": "function"
    },
    {
      "inputs": [
        {
          "internalType": "address",
          "name": "",
          "type": "address"
        }
      ],
      "name": "recoveryIdOfVault",
      "outputs": [
        {
          "internalType": "bytes32",
          "name": "",
          "type": "bytes32"
        }
      ],
      "stateMutability": "view",
      "type": "function"
    },
    {
      "inputs": [
        {
          "internalType": "address",
          "name": "vault",
          "type": "address"
        },
        {
          "internalType": "address",
          "name": "guardian",
          "type": "address"
        }
      ],
      "name": "registerGuardian",
      "outputs": [],
      "stateMutability": "nonpayable",
      "type": "function"
    },
    {
      "inputs": [
        {
          "internalType": "address",
          "name": "vault",
          "type": "address"
        }
      ],
      "name": "registerVault",
      "outputs": [],
      "stateMutability": "nonpayable",
      "type": "function"
    },
    {
      "inputs": [
        {
          "internalType": "address",
          "name": "vault",
          "type": "address"
        },
        {
          "internalType": "address",
          "name": "guardian",
          "type": "address"
        }
      ],
      "name": "removeGuardian",
      "outputs": [],
      "stateMutability": "nonpayable",
      "type": "function"
    },
    {
      "inputs": [],
      "name": "renounceOwnership",
      "outputs": [],
      "stateMutability": "nonpayable",
      "type": "function"
    },
    {
      "inputs": [
        {
          "internalType": "bytes4",
          "name": "addressPrefix",
          "type": "bytes4"
        },
        {
          "internalType": "uint256",
          "name": "limit",
          "type": "uint256"
        }
      ],
      "name": "searchByAddressPrefix",
      "outputs": [
        {
          "components": [
            {
              "internalType": "address",
              "name": "vault",
              "type": "address"
            },
            {
              "internalType": "address",
              "name": "originalOwner",
              "type": "address"
            },
            {
              "internalType": "uint256",
              "name": "createdAt",
              "type": "uint256"
            },
            {
              "internalType": "uint256",
              "name": "lastActiveAt",
              "type": "uint256"
            },
            {
              "internalType": "uint256",
              "name": "proofScore",
              "type": "uint256"
            },
            {
              "internalType": "uint256",
              "name": "badgeCount",
              "type": "uint256"
            },
            {
              "internalType": "bool",
              "name": "hasGuardians",
              "type": "bool"
            },
            {
              "internalType": "bool",
              "name": "hasRecoveryId",
              "type": "bool"
            },
            {
              "internalType": "bool",
              "name": "isRecoverable",
              "type": "bool"
            }
          ],
          "internalType": "struct VaultRegistry.VaultInfo[]",
          "name": "matches",
          "type": "tuple[]"
        }
      ],
      "stateMutability": "view",
      "type": "function"
    },
    {
      "inputs": [
        {
          "internalType": "uint256[]",
          "name": "badgeIds",
          "type": "uint256[]"
        }
      ],
      "name": "searchByBadges",
      "outputs": [
        {
          "internalType": "address",
          "name": "vault",
          "type": "address"
        }
      ],
      "stateMutability": "view",
      "type": "function"
    },
    {
      "inputs": [
        {
          "internalType": "uint256",
          "name": "startTime",
          "type": "uint256"
        },
        {
          "internalType": "uint256",
          "name": "endTime",
          "type": "uint256"
        },
        {
          "internalType": "uint256",
          "name": "limit",
          "type": "uint256"
        }
      ],
      "name": "searchByCreationTime",
      "outputs": [
        {
          "components": [
            {
              "internalType": "address",
              "name": "vault",
              "type": "address"
            },
            {
              "internalType": "address",
              "name": "originalOwner",
              "type": "address"
            },
            {
              "internalType": "uint256",
              "name": "createdAt",
              "type": "uint256"
            },
            {
              "internalType": "uint256",
              "name": "lastActiveAt",
              "type": "uint256"
            },
            {
              "internalType": "uint256",
              "name": "proofScore",
              "type": "uint256"
            },
            {
              "internalType": "uint256",
              "name": "badgeCount",
              "type": "uint256"
            },
            {
              "internalType": "bool",
              "name": "hasGuardians",
              "type": "bool"
            },
            {
              "internalType": "bool",
              "name": "hasRecoveryId",
              "type": "bool"
            },
            {
              "internalType": "bool",
              "name": "isRecoverable",
              "type": "bool"
            }
          ],
          "internalType": "struct VaultRegistry.VaultInfo[]",
          "name": "matches",
          "type": "tuple[]"
        }
      ],
      "stateMutability": "view",
      "type": "function"
    },
    {
      "inputs": [
        {
          "internalType": "bytes32",
          "name": "emailHash",
          "type": "bytes32"
        }
      ],
      "name": "searchByEmail",
      "outputs": [
        {
          "internalType": "address",
          "name": "vault",
          "type": "address"
        }
      ],
      "stateMutability": "view",
      "type": "function"
    },
    {
      "inputs": [
        {
          "internalType": "address",
          "name": "guardian",
          "type": "address"
        }
      ],
      "name": "searchByGuardian",
      "outputs": [
        {
          "internalType": "address[]",
          "name": "vaults",
          "type": "address[]"
        }
      ],
      "stateMutability": "view",
      "type": "function"
    },
    {
      "inputs": [
        {
          "internalType": "bytes32",
          "name": "phoneHash",
          "type": "bytes32"
        }
      ],
      "name": "searchByPhone",
      "outputs": [
        {
          "internalType": "address",
          "name": "vault",
          "type": "address"
        }
      ],
      "stateMutability": "view",
      "type": "function"
    },
    {
      "inputs": [
        {
          "internalType": "string",
          "name": "recoveryId",
          "type": "string"
        }
      ],
      "name": "searchByRecoveryId",
      "outputs": [
        {
          "internalType": "address",
          "name": "vault",
          "type": "address"
        }
      ],
      "stateMutability": "view",
      "type": "function"
    },
    {
      "inputs": [
        {
          "internalType": "string",
          "name": "username",
          "type": "string"
        }
      ],
      "name": "searchByUsername",
      "outputs": [
        {
          "internalType": "address",
          "name": "vault",
          "type": "address"
        }
      ],
      "stateMutability": "view",
      "type": "function"
    },
    {
      "inputs": [
        {
          "internalType": "address",
          "name": "vaultAddress",
          "type": "address"
        }
      ],
      "name": "searchByVaultAddress",
      "outputs": [
        {
          "components": [
            {
              "internalType": "address",
              "name": "vault",
              "type": "address"
            },
            {
              "internalType": "address",
              "name": "originalOwner",
              "type": "address"
            },
            {
              "internalType": "uint256",
              "name": "createdAt",
              "type": "uint256"
            },
            {
              "internalType": "uint256",
              "name": "lastActiveAt",
              "type": "uint256"
            },
            {
              "internalType": "uint256",
              "name": "proofScore",
              "type": "uint256"
            },
            {
              "internalType": "uint256",
              "name": "badgeCount",
              "type": "uint256"
            },
            {
              "internalType": "bool",
              "name": "hasGuardians",
              "type": "bool"
            },
            {
              "internalType": "bool",
              "name": "hasRecoveryId",
              "type": "bool"
            },
            {
              "internalType": "bool",
              "name": "isRecoverable",
              "type": "bool"
            }
          ],
          "internalType": "struct VaultRegistry.VaultInfo",
          "name": "info",
          "type": "tuple"
        }
      ],
      "stateMutability": "view",
      "type": "function"
    },
    {
      "inputs": [
        {
          "internalType": "address",
          "name": "oldWallet",
          "type": "address"
        }
      ],
      "name": "searchByWalletAddress",
      "outputs": [
        {
          "internalType": "address",
          "name": "vault",
          "type": "address"
        },
        {
          "components": [
            {
              "internalType": "address",
              "name": "vault",
              "type": "address"
            },
            {
              "internalType": "address",
              "name": "originalOwner",
              "type": "address"
            },
            {
              "internalType": "uint256",
              "name": "createdAt",
              "type": "uint256"
            },
            {
              "internalType": "uint256",
              "name": "lastActiveAt",
              "type": "uint256"
            },
            {
              "internalType": "uint256",
              "name": "proofScore",
              "type": "uint256"
            },
            {
              "internalType": "uint256",
              "name": "badgeCount",
              "type": "uint256"
            },
            {
              "internalType": "bool",
              "name": "hasGuardians",
              "type": "bool"
            },
            {
              "internalType": "bool",
              "name": "hasRecoveryId",
              "type": "bool"
            },
            {
              "internalType": "bool",
              "name": "isRecoverable",
              "type": "bool"
            }
          ],
          "internalType": "struct VaultRegistry.VaultInfo",
          "name": "info",
          "type": "tuple"
        }
      ],
      "stateMutability": "view",
      "type": "function"
    },
    {
      "inputs": [
        {
          "internalType": "address",
          "name": "_badgeManager",
          "type": "address"
        }
      ],
      "name": "setBadgeManager",
      "outputs": [],
      "stateMutability": "nonpayable",
      "type": "function"
    },
    {
      "inputs": [
        {
          "internalType": "address",
          "name": "vault",
          "type": "address"
        },
        {
          "internalType": "bytes32",
          "name": "emailHash",
          "type": "bytes32"
        }
      ],
      "name": "setEmailRecovery",
      "outputs": [],
      "stateMutability": "nonpayable",
      "type": "function"
    },
    {
      "inputs": [
        {
          "internalType": "address",
          "name": "vault",
          "type": "address"
        },
        {
          "internalType": "bytes32",
          "name": "phoneHash",
          "type": "bytes32"
        }
      ],
      "name": "setPhoneRecovery",
      "outputs": [],
      "stateMutability": "nonpayable",
      "type": "function"
    },
    {
      "inputs": [
        {
          "internalType": "address",
          "name": "_proofScoreManager",
          "type": "address"
        }
      ],
      "name": "setProofScoreManager",
      "outputs": [],
      "stateMutability": "nonpayable",
      "type": "function"
    },
    {
      "inputs": [
        {
          "internalType": "address",
          "name": "vault",
          "type": "address"
        },
        {
          "internalType": "string",
          "name": "recoveryId",
          "type": "string"
        }
      ],
      "name": "setRecoveryId",
      "outputs": [],
      "stateMutability": "nonpayable",
      "type": "function"
    },
    {
      "inputs": [
        {
          "internalType": "address",
          "name": "vault",
          "type": "address"
        },
        {
          "internalType": "string",
          "name": "username",
          "type": "string"
        }
      ],
      "name": "setUsername",
      "outputs": [],
      "stateMutability": "nonpayable",
      "type": "function"
    },
    {
      "inputs": [
        {
          "internalType": "address",
          "name": "_vaultHub",
          "type": "address"
        }
      ],
      "name": "setVaultHub",
      "outputs": [],
      "stateMutability": "nonpayable",
      "type": "function"
    },
    {
      "inputs": [],
      "name": "totalVaults",
      "outputs": [
        {
          "internalType": "uint256",
          "name": "",
          "type": "uint256"
        }
      ],
      "stateMutability": "view",
      "type": "function"
    },
    {
      "inputs": [
        {
          "internalType": "address",
          "name": "newOwner",
          "type": "address"
        }
      ],
      "name": "transferOwnership",
      "outputs": [],
      "stateMutability": "nonpayable",
      "type": "function"
    },
    {
      "inputs": [
        {
          "internalType": "address",
          "name": "vault",
          "type": "address"
        }
      ],
      "name": "updateActivity",
      "outputs": [],
      "stateMutability": "nonpayable",
      "type": "function"
    },
    {
      "inputs": [
        {
          "internalType": "address",
          "name": "vault",
          "type": "address"
        }
      ],
      "name": "updateBadgeFingerprint",
      "outputs": [],
      "stateMutability": "nonpayable",
      "type": "function"
    },
    {
      "inputs": [
        {
          "internalType": "bytes32",
          "name": "",
          "type": "bytes32"
        }
      ],
      "name": "usernameTaken",
      "outputs": [
        {
          "internalType": "bool",
          "name": "",
          "type": "bool"
        }
      ],
      "stateMutability": "view",
      "type": "function"
    },
    {
      "inputs": [
        {
          "internalType": "bytes32",
          "name": "",
          "type": "bytes32"
        }
      ],
      "name": "vaultByBadgeFingerprint",
      "outputs": [
        {
          "internalType": "address",
          "name": "",
          "type": "address"
        }
      ],
      "stateMutability": "view",
      "type": "function"
    },
    {
      "inputs": [
        {
          "internalType": "bytes32",
          "name": "",
          "type": "bytes32"
        }
      ],
      "name": "vaultByEmailHash",
      "outputs": [
        {
          "internalType": "address",
          "name": "",
          "type": "address"
        }
      ],
      "stateMutability": "view",
      "type": "function"
    },
    {
      "inputs": [
        {
          "internalType": "bytes32",
          "name": "",
          "type": "bytes32"
        }
      ],
      "name": "vaultByPhoneHash",
      "outputs": [
        {
          "internalType": "address",
          "name": "",
          "type": "address"
        }
      ],
      "stateMutability": "view",
      "type": "function"
    },
    {
      "inputs": [
        {
          "internalType": "bytes32",
          "name": "",
          "type": "bytes32"
        }
      ],
      "name": "vaultByRecoveryId",
      "outputs": [
        {
          "internalType": "address",
          "name": "",
          "type": "address"
        }
      ],
      "stateMutability": "view",
      "type": "function"
    },
    {
      "inputs": [
        {
          "internalType": "bytes32",
          "name": "",
          "type": "bytes32"
        }
      ],
      "name": "vaultByUsernameHash",
      "outputs": [
        {
          "internalType": "address",
          "name": "",
          "type": "address"
        }
      ],
      "stateMutability": "view",
      "type": "function"
    },
    {
      "inputs": [
        {
          "internalType": "address",
          "name": "",
          "type": "address"
        }
      ],
      "name": "vaultCreatedAt",
      "outputs": [
        {
          "internalType": "uint256",
          "name": "",
          "type": "uint256"
        }
      ],
      "stateMutability": "view",
      "type": "function"
    },
    {
      "inputs": [],
      "name": "vaultHub",
      "outputs": [
        {
          "internalType": "contract IVaultInfrastructure",
          "name": "",
          "type": "address"
        }
      ],
      "stateMutability": "view",
      "type": "function"
    },
    {
      "inputs": [
        {
          "internalType": "address",
          "name": "",
          "type": "address"
        }
      ],
      "name": "vaultIndex",
      "outputs": [
        {
          "internalType": "uint256",
          "name": "",
          "type": "uint256"
        }
      ],
      "stateMutability": "view",
      "type": "function"
    },
    {
      "inputs": [
        {
          "internalType": "address",
          "name": "",
          "type": "address"
        }
      ],
      "name": "vaultLastActiveAt",
      "outputs": [
        {
          "internalType": "uint256",
          "name": "",
          "type": "uint256"
        }
      ],
      "stateMutability": "view",
      "type": "function"
    },
    {
      "inputs": [
        {
          "internalType": "address",
          "name": "",
          "type": "address"
        },
        {
          "internalType": "uint256",
          "name": "",
          "type": "uint256"
        }
      ],
      "name": "vaultsGuardedBy",
      "outputs": [
        {
          "internalType": "address",
          "name": "",
          "type": "address"
        }
      ],
      "stateMutability": "view",
      "type": "function"
    }
  ],
  "bytecode": "0x60803461013157601f6128e738819003918201601f19168301916001600160401b0383118484101761013657808492606094604052833981010312610131576100478161014c565b9061006060406100596020840161014c565b920161014c565b90331561011b5760008054336001600160a01b0319821681178355604051959290916001600160a01b0316907f8be0079c531659141344cd1fd0a4f28419497f9722a3daafe3b4186f6b6457e09080a3600180556001600160a01b0316801561010a57600280546001600160a01b03199081169290921790556003805482166001600160a01b03938416179055600480549091169290911691909117905561278690816101618239f35b63d92e233d60e01b60005260046000fd5b631e4fbdf760e01b600052600060045260246000fd5b600080fd5b634e487b7160e01b600052604160045260246000fd5b51906001600160a01b03821682036101315756fe608080604052600436101561001357600080fd5b60003560e01c90816279175114611f37575080630741206e14611ee057806309b71c5c14611e9d578063194cbed814611e635780631d246de714611cd65780631f3f5ed114611c2f57806322e64d25146105fe57806327cbf63c14611b095780632851bbc914611abb57806328cbfb7c14611a9257806328cc671114611a175780632c1e1c8c146118435780632fcfbf40146117d557806332c2b0c7146117095780633458d11f146116cf57806335a88aad146116535780633c208f611461161f5780633ce022fe1461032057806341e4728c1461144757806349f6e72c146112d957806352bf358e146112b05780635486f10014610c815780636353c3b41461126657806367ccd1cb1461108f5780636b04847714610eaf5780636dd6e80b14610e865780636fcdca7214610e55578063715018a614610dfc57806372ff242f14610d50578063890cbcf514610d1c5780638c3d609014610c865780638d65402314610c815780638da5cb5b14610c5857806390229af714610c255780639094a91e14610be3578063946f6d52146109e65780639b27a90e14610788578063ba573c3c14610675578063c886212814610632578063cff30200146105fe578063e204545214610411578063ee675cf9146103dd578063f2fde38b14610354578063f359496214610320578063f69c6dec1461029c578063fa3fd3bc146102625763fcfa4c071461022357600080fd5b3461025d57602036600319011261025d576001600160a01b03610244611fef565b16600052600f6020526020604060002054604051908152f35b600080fd5b3461025d57602036600319011261025d576001600160a01b03610283611fef565b1660005260106020526020604060002054604051908152f35b3461025d57602036600319011261025d576004356001600160401b03811161025d576102d96102d26102de923690600401612087565b3691612323565b612670565b604051610301816102f360208201809561235a565b03601f1981018352826121e2565b519020600052600a602052602060ff6040600020541615604051908152f35b3461025d57602036600319011261025d576004356000526007602052602060018060a01b0360406000205416604051908152f35b3461025d57602036600319011261025d5761036d611fef565b610375612636565b6001600160a01b031680156103c757600080546001600160a01b03198116831782556001600160a01b0316907f8be0079c531659141344cd1fd0a4f28419497f9722a3daafe3b4186f6b6457e09080a3005b631e4fbdf760e01b600052600060045260246000fd5b3461025d57602036600319011261025d576004356000526005602052602060018060a01b0360406000205416604051908152f35b3461025d5761041f36612160565b600254604051632724fe0960e01b81526001600160a01b03948516600482018190529490911690602081602481855afa9081156105b2576000916105cf575b50336001600160a01b03909116036105be5760206024916040519283809263652b9b4160e01b82528860048301525afa9081156105b257600091610583575b5015610572576104b2916102d9913691612323565b6040516104c7816102f360208201809561235a565b5190209081600052600a60205260ff6040600020541680610551575b61054057600082815260096020908152604080832080546001600160a01b03191685179055600a9091528120805460ff191660011790557fecfe7c0967bd11938c97b0ca7b35cebf4f1b6b0fa5185576f9562c57d42e0cf29080a3005b639e9987d960e01b60005260046000fd5b506000828152600960205260409020546001600160a01b03168114156104e3565b630681d31960e51b60005260046000fd5b6105a5915060203d6020116105ab575b61059d81836121e2565b810190612203565b8461049d565b503d610593565b6040513d6000823e3d90fd5b630e7fea9d60e01b60005260046000fd5b6105f1915060203d6020116105f7575b6105e981836121e2565b81019061221b565b8561045e565b503d6105df565b3461025d57602036600319011261025d576004356000526008602052602060018060a01b0360406000205416604051908152f35b3461025d57602036600319011261025d5761064b611fef565b610653612636565b600380546001600160a01b0319166001600160a01b0392909216919091179055005b3461025d57602036600319011261025d5761068e611fef565b61069661223a565b600254604051630709df4560e01b81526001600160a01b039384166004820152919216602082602481845afa9182156105b257600092610767575b506001600160a01b038216801515919082610712575b5050610701575b6106fd604051928392836121a3565b0390f35b905061070c816123fe565b906106ee565b602091925060246040518094819363652b9b4160e01b835260048301525afa9081156105b257600091610748575b5083806106e7565b610761915060203d6020116105ab5761059d81836121e2565b83610740565b61078191925060203d6020116105f7576105e981836121e2565b90836106d1565b3461025d57604036600319011261025d576107a1611fef565b6107a9612005565b600254604051632724fe0960e01b81526001600160a01b03938416600482018190529390911690602081602481855afa9081156105b2576000916109c7575b50336001600160a01b03909116036105be5760206024916040519283809263652b9b4160e01b82528760048301525afa9081156105b2576000916109a8575b50156105725760018060a01b03169081600052600d60205260406000208160005260205260ff6040600020541661085a57005b81600052600d602052604060002081600052602052604060002060ff19815416905581600052600c60205260406000209060005b82548082101561099f57826108a38386612148565b905460039190911b1c6001600160a01b0316146108c3575060010161088e565b919291600019810191908211610989576108fc6108e36109209385612148565b905460039190911b1c6001600160a01b03169184612148565b9080546001600160a01b0360039390931b83811b199091169290931690921b179055565b805480156109735760001901906109378282612148565b81549060018060a01b039060031b1b19169055555b7fee943cdb81826d5909c559c6b1ae6908fcaf2dbc16c4b730346736b486283e8b600080a3005b634e487b7160e01b600052603160045260246000fd5b634e487b7160e01b600052601160045260246000fd5b5050905061094c565b6109c1915060203d6020116105ab5761059d81836121e2565b83610827565b6109e0915060203d6020116105f7576105e981836121e2565b846107e8565b3461025d57604036600319011261025d5760043563ffffffff60e01b811680910361025d57602435906000600e546103e88111600014610bdc57506103e892915b6002546001600160a01b031693825b81811080610bd3575b15610adf57610a4d81612117565b9054604051632724fe0960e01b815260039290921b1c6001600160a01b031660048201526020816024818a5afa80156105b2578491600091610ac1575b5060601b6001600160e01b03191614610aac575b610aa79061227e565b610a36565b92610ab9610aa79161227e565b939050610a9e565b610ad9915060203d81116105f7576105e981836121e2565b88610a8a565b508483610aeb816122a4565b93600091825b85811080610bca575b15610bbc57610b0881612117565b9054604051632724fe0960e01b815260039290921b1c6001600160a01b031660048201819052906020816024818a5afa80156105b2578591600091610b9e575b5060601b6001600160e01b03191614610b6b575b50610b669061227e565b610af1565b610b669194610b7c610b97926123fe565b610b86828b6122f4565b52610b91818a6122f4565b5061227e565b9390610b5c565b610bb6915060203d81116105f7576105e981836121e2565b8a610b48565b604051806106fd89826120b4565b50818410610afa565b50848410610a3f565b9291610a27565b3461025d57602036600319011261025d57600435600e5481101561025d57610c0c602091612117565b905460405160039290921b1c6001600160a01b03168152f35b3461025d57602036600319011261025d57610120610c49610c44611fef565b6123fe565b610c56604051809261201b565bf35b3461025d57600036600319011261025d576000546040516001600160a01b039091168152602090f35b6120f9565b3461025d57602036600319011261025d57600435610ca261223a565b50600e54811015610ce157610cb690612117565b905460039190911b1c6001600160a01b0316610cd1816123fe565b906106fd604051928392836121a3565b60405162461bcd60e51b8152602060048201526013602482015272696e646578206f7574206f6620626f756e647360681b6044820152606490fd5b3461025d57602036600319011261025d57600435600052600b602052602060018060a01b0360406000205416604051908152f35b3461025d57602036600319011261025d576004356001600160401b03811161025d573660238201121561025d578060040135906001600160401b03821161025d578160051b90366024838301011161025d5760405160208101939092906001600160fb1b031061025d5782816020926024610dd99501873781010301601f1981018352826121e2565b519020600052600b602052602060018060a01b0360406000205416604051908152f35b3461025d57600036600319011261025d57610e15612636565b600080546001600160a01b0319811682556001600160a01b03167f8be0079c531659141344cd1fd0a4f28419497f9722a3daafe3b4186f6b6457e08280a3005b3461025d57602036600319011261025d57600435600052600a602052602060ff604060002054166040519015158152f35b3461025d57600036600319011261025d576002546040516001600160a01b039091168152602090f35b3461025d57610ebd36612160565b600254604051632724fe0960e01b81526001600160a01b03948516600482018190529490911690602081602481855afa9081156105b257600091611070575b50336001600160a01b03909116036105be5760206024916040519283809263652b9b4160e01b82528860048301525afa9081156105b257600091611051575b501561057257610f69602060405183819483830196873781016000838201520301601f1981018352826121e2565b5190206000818152600560205260409020549091906001600160a01b0316151580611030575b61101f5780600052600660205260406000205480610ffd575b5081600052600560205260406000208160018060a01b0319825416179055806000526006602052816040600020557ffc7d1b6c9bf9e0f70a7514a9c70bcc5f4adff774149af5406e27b89285d3af0d600080a3005b600090815260056020526040902080546001600160a01b031916905582610fa8565b63bd24441b60e01b60005260046000fd5b506000828152600560205260409020546001600160a01b0316811415610f8f565b61106a915060203d6020116105ab5761059d81836121e2565b84610f3b565b611089915060203d6020116105f7576105e981836121e2565b85610efc565b3461025d57602036600319011261025d576110a8611fef565b60025460405163652b9b4160e01b81526001600160a01b038381166004830181905292169290602081602481875afa9081156105b257600091611247575b501561057257604051632724fe0960e01b815260048101839052602081602481875afa9081156105b257600091611228575b506001600160a01b03169233841490811561121e575b50156111e85781600052601060205260406000205415611186575b50806000526011602052426040600020557fbdf39c8e4504706c3ee61ab487623ef56ab40afa1c9bd55cc1732562ab38114a6020604051428152a3005b600e546000838152600f6020526040902081905590600160401b8210156111d2576108fc8260016111bc9401600e55600e612148565b8060005260106020524260406000205582611149565b634e487b7160e01b600052604160045260246000fd5b60405162461bcd60e51b815260206004820152600e60248201526d1b9bdd08185d5d1a1bdc9a5e995960921b6044820152606490fd5b905033148461112e565b611241915060203d6020116105f7576105e981836121e2565b84611118565b611260915060203d6020116105ab5761059d81836121e2565b846110e6565b3461025d57604036600319011261025d5761127f611fef565b6001600160a01b03166000908152600c602052604090208054602435919082101561025d57602091610c0c91612148565b3461025d57600036600319011261025d576003546040516001600160a01b039091168152602090f35b3461025d57604036600319011261025d576112f2611fef565b600254604051632724fe0960e01b81526001600160a01b0392831660048201819052602480359491939091169190602090829081855afa9081156105b257600091611428575b50336001600160a01b03909116036105be5760206024916040519283809263652b9b4160e01b82528660048301525afa9081156105b257600091611409575b501561057257806000526012602052604060002054806113e7575b5081600052600760205260406000208160018060a01b0319825416179055806000526012602052816040600020557fc765f881c6369f3b21bebf43cf6ccc975879f0d2d36882e92f0e683a51266256600080a3005b600090815260076020526040902080546001600160a01b031916905582611392565b611422915060203d6020116105ab5761059d81836121e2565b83611377565b611441915060203d6020116105f7576105e981836121e2565b84611338565b3461025d57602036600319011261025d57611460611fef565b60025460405163652b9b4160e01b81526001600160a01b03928316600482018190529290911690602081602481855afa9081156105b257600091611600575b501561057257602060249160405192838092632724fe0960e01b82528660048301525afa9081156105b2576000916115e1575b506003546001600160a01b031690816114e757005b604051631be122ff60e11b81526001600160a01b03909116600482015290600090829060249082905afa9081156105b2576000916115be575b508051908161152b57005b906040519081602081019360208591019260005b8181106115a557505061155b925003601f1981018352826121e2565b5190206000818152600b6020526040812080546001600160a01b031916841790559091907f0d6ab26868ee08c8468752de3c7acfc1a6c53450926b8eef8d39f84e39f72a289080a3005b845183526020948501948694509092019160010161153f565b6115db91503d806000833e6115d381836121e2565b810190612385565b82611520565b6115fa915060203d6020116105f7576105e981836121e2565b826114d2565b611619915060203d6020116105ab5761059d81836121e2565b8361149f565b3461025d57602036600319011261025d576004356000526009602052602060018060a01b0360406000205416604051908152f35b3461025d57602036600319011261025d576004356001600160401b03811161025d57611683903690600401612087565b6116ab602060405183819483830196873781016000838201520301601f1981018352826121e2565b5190206000526005602052602060018060a01b036040600020541615604051908152f35b3461025d57602036600319011261025d576001600160a01b036116f0611fef565b1660005260116020526020604060002054604051908152f35b3461025d57602036600319011261025d576001600160a01b0361172a611fef565b16600052600c60205260406000206040518060208354918281520190819360005260206000209060005b8181106117b6575050508161176a9103826121e2565b6040519182916020830190602084525180915260408301919060005b818110611794575050500390f35b82516001600160a01b0316845285945060209384019390920191600101611786565b82546001600160a01b0316845260209093019260019283019201611754565b3461025d57602036600319011261025d576004356001600160401b03811161025d576102d96102d261180b923690600401612087565b604051611820816102f360208201809561235a565b5190206000526009602052602060018060a01b0360406000205416604051908152f35b3461025d57606036600319011261025d57600435604435602435808310156119e257811515806119d7575b156119a557600090600e546103e881116000146119a057506103e85b825b81811080611997575b15611901576118a381612117565b60018060a01b0391549060031b1c166000526010602052604060002054838782101591826118f6575b50506118e1575b6118dc9061227e565b61188c565b926118ee6118dc9161227e565b9390506118d3565b1115905083886118cc565b5092509061190e816122a4565b93600091825b8581108061198e575b15610bbc5761192b81612117565b60018060a01b0391549060031b1c1680600052601060205260406000205486858210159182611983575b505061196b575b506119669061227e565b611914565b6119669194610b7c61197c926123fe565b939061195c565b11159050868a611955565b5081841061191d565b50848410611895565b61188a565b60405162461bcd60e51b815260206004820152600a60248201526906c696d697420312d35360b41b6044820152606490fd5b50603282111561186e565b60405162461bcd60e51b815260206004820152600d60248201526c696e76616c69642072616e676560981b6044820152606490fd5b3461025d57602036600319011261025d576004356001600160401b03811161025d57611a47903690600401612087565b611a6f602060405183819483830196873781016000838201520301601f1981018352826121e2565b5190206000526005602052602060018060a01b0360406000205416604051908152f35b3461025d57600036600319011261025d576004546040516001600160a01b039091168152602090f35b3461025d57602036600319011261025d576001600160a01b03611adc611fef565b16600052600660205260406000205415801590611b01575b6020906040519015158152f35b506001611af4565b3461025d57604036600319011261025d57611b22611fef565b600254604051632724fe0960e01b81526001600160a01b0392831660048201819052602480359491939091169190602090829081855afa9081156105b257600091611c10575b50336001600160a01b03909116036105be5760206024916040519283809263652b9b4160e01b82528660048301525afa9081156105b257600091611bf1575b501561057257600082815260086020526040812080546001600160a01b031916831790557f7cd06e2799342945ea12da511b88817b1139c59a36388b3f33e478b40b71e6999080a3005b611c0a915060203d6020116105ab5761059d81836121e2565b83611ba7565b611c29915060203d6020116105f7576105e981836121e2565b84611b68565b3461025d57602036600319011261025d576024611c4a611fef565b611c5261223a565b60025460405163652b9b4160e01b81526001600160a01b038085166004830152909492939260209286928391165afa80156105b25761012093600091611cb7575b50611ca7575b50610c56604051809261201b565b611cb191506123fe565b82611c99565b611cd0915060203d6020116105ab5761059d81836121e2565b84611c93565b3461025d57604036600319011261025d57611cef611fef565b611cf7612005565b600254604051632724fe0960e01b81526001600160a01b038481166004830181905293921690602081602481855afa9081156105b257600091611e44575b50336001600160a01b03909116036105be5760206024916040519283809263652b9b4160e01b82528760048301525afa9081156105b257600091611e25575b50156105725760018060a01b03169182600052600d60205260406000208260005260205260ff6040600020541615611da857005b82600052600d6020526040600020826000526020526040600020600160ff1982541617905582600052600c602052604060002090815491600160401b8310156111d257826108fc916001611dfe95018155612148565b7f08ae6bc280c01a35af7dc83dc36ad004116f33b8819281ff9f4405c121a97b89600080a3005b611e3e915060203d6020116105ab5761059d81836121e2565b84611d74565b611e5d915060203d6020116105f7576105e981836121e2565b85611d35565b3461025d57602036600319011261025d576001600160a01b03611e84611fef565b1660005260066020526020604060002054604051908152f35b3461025d57602036600319011261025d57611eb6611fef565b611ebe612636565b600480546001600160a01b0319166001600160a01b0392909216919091179055005b3461025d57602036600319011261025d57611ef9611fef565b611f01612636565b6001600160a01b03168015611f2657600280546001600160a01b031916919091179055005b63d92e233d60e01b60005260046000fd5b3461025d57602036600319011261025d57611f50611fef565b60025463652b9b4160e01b83526001600160a01b0391821660048401819052929160209183916024918391165afa9081156105b257600091611fd0575b50611f9457005b806000526011602052426040600020557fd55d88bafaa873a710f1fe42d94fbcf49941d3591757d56c66ef01e9c1c5568d6020604051428152a2005b611fe9915060203d6020116105ab5761059d81836121e2565b82611f8d565b600435906001600160a01b038216820361025d57565b602435906001600160a01b038216820361025d57565b610100809160018060a01b03815116845260018060a01b03602082015116602085015260408101516040850152606081015160608501526080810151608085015260a081015160a085015260c0810151151560c085015260e0810151151560e085015201511515910152565b9181601f8401121561025d578235916001600160401b03831161025d576020838186019501011161025d57565b602060408183019282815284518094520192019060005b8181106120d85750505090565b9091926020610120826120ee600194885161201b565b0194019291016120cb565b3461025d57600036600319011261025d576020600e54604051908152f35b600e5481101561213257600e60005260206000200190600090565b634e487b7160e01b600052603260045260246000fd5b80548210156121325760005260206000200190600090565b90604060031983011261025d576004356001600160a01b038116810361025d5791602435906001600160401b03821161025d5761219f91600401612087565b9091565b6001600160a01b039091168152610140810192916121c4916020019061201b565b565b61012081019081106001600160401b038211176111d257604052565b90601f801991011681019081106001600160401b038211176111d257604052565b9081602091031261025d5751801515810361025d5790565b9081602091031261025d57516001600160a01b038116810361025d5790565b60405190612247826121c6565b6000610100838281528260208201528260408201528260608201528260808201528260a08201528260c08201528260e08201520152565b60001981146109895760010190565b6001600160401b0381116111d25760051b60200190565b906122ae8261228d565b6122bb60405191826121e2565b82815280926122cc601f199161228d565b019060005b8281106122dd57505050565b6020906122e861223a565b828285010152016122d1565b80518210156121325760209160051b010190565b6001600160401b0381116111d257601f01601f191660200190565b92919261232f82612308565b9161233d60405193846121e2565b82948184528183011161025d578281602093846000960137010152565b9081519160005b838110612372575050016000815290565b8060208092840101518185015201612361565b60208183031261025d578051906001600160401b03821161025d57019080601f8301121561025d5781516123b88161228d565b926123c660405194856121e2565b81845260208085019260051b82010192831161025d57602001905b8282106123ee5750505090565b81518152602091820191016123e1565b61240661223a565b5060025460405163652b9b4160e01b81526001600160a01b03928316600482018190529290911690602081602481855afa9081156105b257600091612617575b501561057257602060249160405192838092632724fe0960e01b82528660048301525afa9081156105b2576000916125f8575b506004546000906001600160a01b031680612584575b506003546000906001600160a01b031680612526575b5060008481526010602090815260408083205460118352818420546006909352922054158015958695939161251d575b604051976124e2896121c6565b88526001600160a01b0316602088015260408701526060860152608085015260a0840152600160c084015260e0830152151561010082015290565b600196506124d5565b604051631be122ff60e11b81526001600160a01b038516600482015290600090829060249082905afa60009181612567575b50156124a557905051386124a5565b61257d9192503d806000833e6115d381836121e2565b9038612558565b604051639cd965ad60e01b81526001600160a01b038416600482015290602090829060249082905afa600091816125c4575b501561248f5790503861248f565b9091506020813d6020116125f0575b816125e0602093836121e2565b8101031261025d575190386125b6565b3d91506125d3565b612611915060203d6020116105f7576105e981836121e2565b38612479565b612630915060203d6020116105ab5761059d81836121e2565b38612446565b6000546001600160a01b0316330361264a57565b63118cdaa760e01b6000523360045260246000fd5b908151811015612132570160200190565b9081519161267d83612308565b9261268b60405194856121e2565b80845261269a601f1991612308565b0136602085013760005b815181101561274c5760416126b9828461265f565b5160f81c101580612734575b156127095760206126d6828461265f565b5160f81c019060ff82116109895760019160f81b6001600160f81b03191660001a612701828761265f565b535b016126a4565b6001906001600160f81b031961271f828561265f565b511660001a61272e828761265f565b53612703565b50605a612741828461265f565b5160f81c11156126c5565b505056fea26469706673582212202afb0caad1b4e8158c5a87981aa25a6ab46a0ff336d4a2dd0a1aefd67b9a87e264736f6c634300081e0033",
  "linkReferences": {},
  "deployedLinkReferences": {}
}