{
  "_format": "hh-sol-artifact-1",
  "contractName": "LiquidityIncentives",
  "sourceName": "contracts/LiquidityIncentives.sol",
  "abi": [
    {
      "inputs": [
        {
          "internalType": "address",
          "name": "_dao",
          "type": "address"
        },
        {
          "internalType": "address",
          "name": "_vfideToken",
          "type": "address"
        },
        {
          "internalType": "address",
          "name": "_seer",
          "type": "address"
        }
      ],
      "stateMutability": "nonpayable",
      "type": "constructor"
    },
    {
      "inputs": [],
      "name": "LP_Cooldown",
      "type": "error"
    },
    {
      "inputs": [],
      "name": "LP_InsufficientBalance",
      "type": "error"
    },
    {
      "inputs": [],
      "name": "LP_NotActive",
      "type": "error"
    },
    {
      "inputs": [],
      "name": "LP_NotDAO",
      "type": "error"
    },
    {
      "inputs": [],
      "name": "LP_Zero",
      "type": "error"
    },
    {
      "anonymous": false,
      "inputs": [
        {
          "indexed": true,
          "internalType": "address",
          "name": "lpToken",
          "type": "address"
        },
        {
          "indexed": false,
          "internalType": "uint256",
          "name": "rewardRate",
          "type": "uint256"
        },
        {
          "indexed": false,
          "internalType": "string",
          "name": "name",
          "type": "string"
        }
      ],
      "name": "PoolAdded",
      "type": "event"
    },
    {
      "anonymous": false,
      "inputs": [
        {
          "indexed": true,
          "internalType": "address",
          "name": "lpToken",
          "type": "address"
        },
        {
          "indexed": false,
          "internalType": "uint256",
          "name": "rewardRate",
          "type": "uint256"
        },
        {
          "indexed": false,
          "internalType": "bool",
          "name": "active",
          "type": "bool"
        }
      ],
      "name": "PoolUpdated",
      "type": "event"
    },
    {
      "anonymous": false,
      "inputs": [
        {
          "indexed": false,
          "internalType": "uint16",
          "name": "minScore",
          "type": "uint16"
        },
        {
          "indexed": false,
          "internalType": "uint16",
          "name": "bonusBps",
          "type": "uint16"
        }
      ],
      "name": "ProofScoreBonusSet",
      "type": "event"
    },
    {
      "anonymous": false,
      "inputs": [
        {
          "indexed": true,
          "internalType": "address",
          "name": "user",
          "type": "address"
        },
        {
          "indexed": true,
          "internalType": "address",
          "name": "lpToken",
          "type": "address"
        },
        {
          "indexed": false,
          "internalType": "uint256",
          "name": "amount",
          "type": "uint256"
        }
      ],
      "name": "RewardsClaimed",
      "type": "event"
    },
    {
      "anonymous": false,
      "inputs": [
        {
          "indexed": true,
          "internalType": "address",
          "name": "user",
          "type": "address"
        },
        {
          "indexed": true,
          "internalType": "address",
          "name": "lpToken",
          "type": "address"
        },
        {
          "indexed": false,
          "internalType": "uint256",
          "name": "amount",
          "type": "uint256"
        }
      ],
      "name": "Staked",
      "type": "event"
    },
    {
      "anonymous": false,
      "inputs": [
        {
          "indexed": true,
          "internalType": "address",
          "name": "user",
          "type": "address"
        },
        {
          "indexed": true,
          "internalType": "address",
          "name": "lpToken",
          "type": "address"
        },
        {
          "indexed": false,
          "internalType": "uint256",
          "name": "amount",
          "type": "uint256"
        }
      ],
      "name": "Unstaked",
      "type": "event"
    },
    {
      "inputs": [],
      "name": "MAX_TIME_BONUS_BPS",
      "outputs": [
        {
          "internalType": "uint16",
          "name": "",
          "type": "uint16"
        }
      ],
      "stateMutability": "view",
      "type": "function"
    },
    {
      "inputs": [],
      "name": "STAKE_BONUS_PERIOD",
      "outputs": [
        {
          "internalType": "uint256",
          "name": "",
          "type": "uint256"
        }
      ],
      "stateMutability": "view",
      "type": "function"
    },
    {
      "inputs": [
        {
          "internalType": "address",
          "name": "lpToken",
          "type": "address"
        },
        {
          "internalType": "string",
          "name": "name",
          "type": "string"
        },
        {
          "internalType": "uint256",
          "name": "rewardRate",
          "type": "uint256"
        }
      ],
      "name": "addPool",
      "outputs": [],
      "stateMutability": "nonpayable",
      "type": "function"
    },
    {
      "inputs": [
        {
          "internalType": "address",
          "name": "lpToken",
          "type": "address"
        }
      ],
      "name": "claimRewards",
      "outputs": [],
      "stateMutability": "nonpayable",
      "type": "function"
    },
    {
      "inputs": [
        {
          "internalType": "address",
          "name": "lpToken",
          "type": "address"
        }
      ],
      "name": "compound",
      "outputs": [],
      "stateMutability": "nonpayable",
      "type": "function"
    },
    {
      "inputs": [],
      "name": "dao",
      "outputs": [
        {
          "internalType": "address",
          "name": "",
          "type": "address"
        }
      ],
      "stateMutability": "view",
      "type": "function"
    },
    {
      "inputs": [],
      "name": "getAllPools",
      "outputs": [
        {
          "internalType": "address[]",
          "name": "",
          "type": "address[]"
        }
      ],
      "stateMutability": "view",
      "type": "function"
    },
    {
      "inputs": [
        {
          "internalType": "address",
          "name": "lpToken",
          "type": "address"
        }
      ],
      "name": "getPoolInfo",
      "outputs": [
        {
          "internalType": "string",
          "name": "name",
          "type": "string"
        },
        {
          "internalType": "uint256",
          "name": "totalStaked",
          "type": "uint256"
        },
        {
          "internalType": "uint256",
          "name": "rewardRate",
          "type": "uint256"
        },
        {
          "internalType": "bool",
          "name": "active",
          "type": "bool"
        },
        {
          "internalType": "uint256",
          "name": "apr",
          "type": "uint256"
        }
      ],
      "stateMutability": "view",
      "type": "function"
    },
    {
      "inputs": [
        {
          "internalType": "address",
          "name": "lpToken",
          "type": "address"
        },
        {
          "internalType": "address",
          "name": "user",
          "type": "address"
        }
      ],
      "name": "getUserStake",
      "outputs": [
        {
          "internalType": "uint256",
          "name": "amount",
          "type": "uint256"
        },
        {
          "internalType": "uint256",
          "name": "stakedAt",
          "type": "uint256"
        },
        {
          "internalType": "uint256",
          "name": "stakeDuration",
          "type": "uint256"
        },
        {
          "internalType": "uint256",
          "name": "timeBonus",
          "type": "uint256"
        },
        {
          "internalType": "uint256",
          "name": "proofScoreBonus",
          "type": "uint256"
        }
      ],
      "stateMutability": "view",
      "type": "function"
    },
    {
      "inputs": [
        {
          "internalType": "address",
          "name": "lpToken",
          "type": "address"
        },
        {
          "internalType": "address",
          "name": "user",
          "type": "address"
        }
      ],
      "name": "pendingRewards",
      "outputs": [
        {
          "internalType": "uint256",
          "name": "base",
          "type": "uint256"
        },
        {
          "internalType": "uint256",
          "name": "withBonus",
          "type": "uint256"
        }
      ],
      "stateMutability": "view",
      "type": "function"
    },
    {
      "inputs": [
        {
          "internalType": "uint256",
          "name": "",
          "type": "uint256"
        }
      ],
      "name": "poolList",
      "outputs": [
        {
          "internalType": "address",
          "name": "",
          "type": "address"
        }
      ],
      "stateMutability": "view",
      "type": "function"
    },
    {
      "inputs": [
        {
          "internalType": "address",
          "name": "",
          "type": "address"
        }
      ],
      "name": "pools",
      "outputs": [
        {
          "internalType": "address",
          "name": "lpToken",
          "type": "address"
        },
        {
          "internalType": "string",
          "name": "name",
          "type": "string"
        },
        {
          "internalType": "uint256",
          "name": "rewardRate",
          "type": "uint256"
        },
        {
          "internalType": "uint256",
          "name": "totalStaked",
          "type": "uint256"
        },
        {
          "internalType": "uint256",
          "name": "lastUpdateTime",
          "type": "uint256"
        },
        {
          "internalType": "uint256",
          "name": "rewardPerTokenStored",
          "type": "uint256"
        },
        {
          "internalType": "bool",
          "name": "active",
          "type": "bool"
        }
      ],
      "stateMutability": "view",
      "type": "function"
    },
    {
      "inputs": [],
      "name": "proofScoreBonusBps",
      "outputs": [
        {
          "internalType": "uint16",
          "name": "",
          "type": "uint16"
        }
      ],
      "stateMutability": "view",
      "type": "function"
    },
    {
      "inputs": [],
      "name": "proofScoreBonusMinScore",
      "outputs": [
        {
          "internalType": "uint16",
          "name": "",
          "type": "uint16"
        }
      ],
      "stateMutability": "view",
      "type": "function"
    },
    {
      "inputs": [],
      "name": "seer",
      "outputs": [
        {
          "internalType": "contract ISeer",
          "name": "",
          "type": "address"
        }
      ],
      "stateMutability": "view",
      "type": "function"
    },
    {
      "inputs": [
        {
          "internalType": "uint16",
          "name": "minScore",
          "type": "uint16"
        },
        {
          "internalType": "uint16",
          "name": "bonusBps",
          "type": "uint16"
        }
      ],
      "name": "setProofScoreBonus",
      "outputs": [],
      "stateMutability": "nonpayable",
      "type": "function"
    },
    {
      "inputs": [
        {
          "internalType": "address",
          "name": "_seer",
          "type": "address"
        }
      ],
      "name": "setSeer",
      "outputs": [],
      "stateMutability": "nonpayable",
      "type": "function"
    },
    {
      "inputs": [
        {
          "internalType": "uint256",
          "name": "cooldown",
          "type": "uint256"
        }
      ],
      "name": "setUnstakeCooldown",
      "outputs": [],
      "stateMutability": "nonpayable",
      "type": "function"
    },
    {
      "inputs": [
        {
          "internalType": "address",
          "name": "lpToken",
          "type": "address"
        },
        {
          "internalType": "uint256",
          "name": "amount",
          "type": "uint256"
        }
      ],
      "name": "stake",
      "outputs": [],
      "stateMutability": "nonpayable",
      "type": "function"
    },
    {
      "inputs": [
        {
          "internalType": "address",
          "name": "lpToken",
          "type": "address"
        },
        {
          "internalType": "uint256",
          "name": "amount",
          "type": "uint256"
        }
      ],
      "name": "unstake",
      "outputs": [],
      "stateMutability": "nonpayable",
      "type": "function"
    },
    {
      "inputs": [],
      "name": "unstakeCooldown",
      "outputs": [
        {
          "internalType": "uint256",
          "name": "",
          "type": "uint256"
        }
      ],
      "stateMutability": "view",
      "type": "function"
    },
    {
      "inputs": [
        {
          "internalType": "address",
          "name": "lpToken",
          "type": "address"
        },
        {
          "internalType": "uint256",
          "name": "rewardRate",
          "type": "uint256"
        },
        {
          "internalType": "bool",
          "name": "active",
          "type": "bool"
        }
      ],
      "name": "updatePool",
      "outputs": [],
      "stateMutability": "nonpayable",
      "type": "function"
    },
    {
      "inputs": [
        {
          "internalType": "address",
          "name": "",
          "type": "address"
        },
        {
          "internalType": "address",
          "name": "",
          "type": "address"
        }
      ],
      "name": "userStakes",
      "outputs": [
        {
          "internalType": "uint256",
          "name": "amount",
          "type": "uint256"
        },
        {
          "internalType": "uint256",
          "name": "stakedAt",
          "type": "uint256"
        },
        {
          "internalType": "uint256",
          "name": "rewardPerTokenPaid",
          "type": "uint256"
        },
        {
          "internalType": "uint256",
          "name": "pendingRewards",
          "type": "uint256"
        }
      ],
      "stateMutability": "view",
      "type": "function"
    },
    {
      "inputs": [],
      "name": "vfideToken",
      "outputs": [
        {
          "internalType": "contract IVFIDEToken",
          "name": "",
          "type": "address"
        }
      ],
      "stateMutability": "view",
      "type": "function"
    }
  ],
  "bytecode": "0x60803461011357601f611bde38819003918201601f19168301916001600160401b0383118484101761011857808492606094604052833981010312610113576100478161012e565b9061006060406100596020840161012e565b920161012e565b60016000556007805463ffffffff19166307d01b5817905562015180600855916001600160a01b031680158015610102575b6100f157600180546001600160a01b0319908116929092179055600280549091166001600160a01b0392831617905516806100d7575b604051611a9b90816101438239f35b600380546001600160a01b031916919091179055386100c8565b63a1d1aeeb60e01b60005260046000fd5b506001600160a01b03821615610092565b600080fd5b634e487b7160e01b600052604160045260246000fd5b51906001600160a01b03821682036101135756fe6080604052600436101561001257600080fd5b6000803560e01c806306bfa93814611388578063284dac23146112d15780632950dfb3146112b45780632a48235b146112705780632d55ea39146112475780633710d4c7146110f55780634162169f146110cc5780635eb83fca146110aa578063646ed1141461108557806376d2847f14610f595780637eefd5ae14610f3b57806380ac822814610dfc578063862d2d7c14610d885780638e352a3814610d6a578063a3158b5314610cf5578063a4063dbc14610c54578063adc9772e14610aac578063b8a71eec14610a83578063c2a672e014610975578063d88ff1f4146108ad578063dd3ef4441461046a578063e071c1c0146103d4578063ef5cfb8c146102515763fe92874a1461012557600080fd5b3461024e57604036600319011261024e5760043561ffff811680910361024c5760243561ffff811691828203610248576001546001600160a01b031633036102395761271081116102005761271083116101c7577f2d0c1b66165b218ba85f62b21e7db91efa9e610804670cc6bc6f473684757de5926040928263ffff00006007549260101b169163ffffffff1916171760075582519182526020820152a180f35b60405162461bcd60e51b81526020600482015260116024820152704c503a20696e76616c696420626f6e757360781b6044820152606490fd5b60405162461bcd60e51b81526020600482015260116024820152704c503a20696e76616c69642073636f726560781b6044820152606490fd5b6323f78ceb60e11b8452600484fd5b8380fd5b505b80fd5b503461024e57602036600319011261024e5761026b61145a565b6102736119af565b61027d33826116da565b6001600160a01b0316808252600660209081526040808420336000908152925290206003810180548492909190826102b8575b836001815580f35b6102c9936001925501549033611795565b6002546040516370a0823160e01b81523060048201526001600160a01b0390911690602081602481855afa80156103c95783918691610390575b501061034b57816103159133906118b8565b6040519081527f9310ccfcb8de723f578a9e4282ea9f521f05ae40dc08f3068dfad528a65ee3c760203392a338818180806102b0565b60405162461bcd60e51b815260206004820152601f60248201527f4c503a20696e73756666696369656e74207265776172642062616c616e6365006044820152606490fd5b9150506020813d6020116103c1575b816103ac60209383611537565b810103126103bd5782905138610303565b8480fd5b3d915061039f565b6040513d87823e3d90fd5b503461024e57602036600319011261024e576103ee61145a565b6001546001600160a01b0316330361045b576001600160a01b0316801561042657600380546001600160a01b03191691909117905580f35b60405162461bcd60e51b815260206004820152600d60248201526c26281d103d32b9379039b2b2b960991b6044820152606490fd5b6323f78ceb60e11b8252600482fd5b503461024e57606036600319011261024e5761048461145a565b602435906001600160401b0382116108a957366023830112156108a9578160040135906001600160401b0382116102485760248301926024833692010111610248576001546001600160a01b03163303610239576001600160a01b031691821561087357828452600460205260408420546001600160a01b031661083c5760405160e081018181106001600160401b038211176108285760405283815261052a836116bf565b6105376040519182611537565b8381528383602083013785602085830101526020820190815260408201604435815260608301878152608084019042825260a085019289845260c086019460018652898b52600460205260408b209660018060a01b0390511660018060a01b03198854161787556001870190518051906001600160401b038211610814576105bf83546114fd565b8d601f82116107cb575b9050506020908d601f841160011461075c579260069896949281926106359c9b99979592610751575b50508160011b916000199060031b1c19161790555b51600287015551600386015551600485015551600584015551151591019060ff801983541691151516179055565b600554600160401b81101561073d5780600161065492016005556114cc565b81546001600160a01b0360039290921b82811b199091169086901b17909155600254859116803b1561024c57819060446040518094819363027a35a160e31b8352896004840152600160248401525af1610704575b509060607fef06b6924aace84574dff72a6addcafcba1a2728dd504a3766c37730868f59249282604051938492604435845260406020850152816040850152848401378181018301879052601f01601f19168101030190a280f35b846107347fef06b6924aace84574dff72a6addcafcba1a2728dd504a3766c37730868f5924949396606093611537565b949192506106a9565b634e487b7160e01b85526041600452602485fd5b0151905038806105f2565b9190601f198416858452828420935b8181106107b357509260019285926106359d9c9a989660069c9a98961061079a575b505050811b019055610607565b015160001960f88460031b161c1916905538808061078d565b9293602060018192878601518155019501930161076b565b80856020925220601f840160051c8101916020851061080a575b601f0160051c01908e905b8281106107fd57506105c9565b6001918155018e906107f0565b90915081906107e5565b634e487b7160e01b8d52604160045260248dfd5b634e487b7160e01b86526041600452602486fd5b60405162461bcd60e51b815260206004820152600f60248201526e4c503a20706f6f6c2065786973747360881b6044820152606490fd5b60405162461bcd60e51b815260206004820152600e60248201526d26281d103d32b937903a37b5b2b760911b6044820152606490fd5b8280fd5b503461024e578060031936011261024e5760405160058054808352908352602082019081907f036b6384b5eca791c62761152d0c79bb0604c104a5fb6f4eb0703f3154bb3db090855b818110610956575050508261090c910383611537565b604051928392602084019060208552518091526040840192915b818110610934575050500390f35b82516001600160a01b0316845285945060209384019390920191600101610926565b82546001600160a01b03168452602090930192600192830192016108f6565b503461024e57604036600319011261024e5761098f61145a565b60243561099a6119af565b6001600160a01b038216808452600660209081526040808620338752909152842080549193918311610a745760018101916109d983546008549061169a565b4210610a6557906109ed86939233906116da565b6109f8848254611673565b8155848352600460205260036040842001610a14858254611673565b90555415610a5d575b5050610a2a8133846118b8565b6040519081527fd8654fcc8cf5b36d30b3f5e4688fc78118e6d68de60b9994e09902268b57c3e360203392a36001815580f35b558238610a1d565b6314f7d1b160e01b8652600486fd5b6369379de760e11b8552600485fd5b503461024e578060031936011261024e576002546040516001600160a01b039091168152602090f35b503461024e57604036600319011261024e57610ac661145a565b602435610ad16119af565b6001600160a01b03821680845260046020526040842060068101549193909160ff1615610c45578215610c3657610b099033906116da565b6040516323b872dd60e01b81523360048201523060248201526044810183905260208160648188885af19081156103c9578591610c07575b5015610bcc5760039083855260066020526040852060018060a01b03331686526020526040852060018101805415610bc3575b50610b8084825461169a565b905501610b8e82825461169a565b90556040519081527f5dac0c1b1112564a045ba943c9d50270893e8e826c49be8e7073adc713ab7bd760203392a36001815580f35b42905538610b74565b60405162461bcd60e51b815260206004820152601360248201527213140e881d1c985b9cd9995c8819985a5b1959606a1b6044820152606490fd5b610c29915060203d602011610c2f575b610c218183611537565b8101906116a7565b38610b41565b503d610c17565b63a1d1aeeb60e01b8552600485fd5b6318ec34d960e01b8552600485fd5b503461024e57602036600319011261024e576040906001600160a01b03610c7961145a565b16815260046020522080546001600160a01b0316610c996001830161156e565b91600281015490600381015490600481015460ff600660058401549301541692610cd5604051978897885260e0602089015260e088019061148b565b9460408701526060860152608085015260a0840152151560c08301520390f35b503461024e57602036600319011261024e57600154600435906001600160a01b0316330361045b5762093a808111610d2d5760085580f35b60405162461bcd60e51b81526020600482015260156024820152744c503a20636f6f6c646f776e20746f6f206c6f6e6760581b6044820152606490fd5b503461024e578060031936011261024e57602060405162278d008152f35b503461024e57604036600319011261024e576040608091610da761145a565b610daf611475565b9060018060a01b0316825260066020528282209060018060a01b03168252602052208054906001810154906003600282015491015491604051938452602084015260408301526060820152f35b503461024e57604036600319011261024e57610e1661145a565b90610e1f611475565b9160018060a01b03169081815260046020526040812091815260066020526040812060018060a01b0384168252602052604081209160058101549160038201549182610eba575b60406001610eae8888610ea389670de0b6b3a7640000610e9c600385015492610e96865491600288015490611673565b90611640565b049061169a565b938491015491611795565b82519182526020820152f35b806002610ece6004610ed794015442611673565b91015490611640565b90670de0b6b3a7640000820291808304670de0b6b3a76400001490151715610f27575092610ea3610f1a610eae94610f1460409895600198611653565b9061169a565b9350829550819450610e66565b634e487b7160e01b81526011600452602490fd5b503461024e578060031936011261024e576020600854604051908152f35b503461024e57606036600319011261024e57610f7361145a565b60243590604435801515928382036103bd576001546001600160a01b03163303611076576001600160a01b0383811680875260046020526040872054909591161561103c5761102e6040937fb58834628de8844e54737a7b3dee073e838fe9596e8e74c2698344f5c421ce89958789526004602052610ff4868a20916119f2565b60058201556004429101558688526004602052836002868a20015586885260046020526006858920019060ff801983541691151516179055565b82519182526020820152a280f35b60405162461bcd60e51b815260206004820152601260248201527113140e881c1bdbdb081b9bdd08199bdd5b9960721b6044820152606490fd5b6323f78ceb60e11b8552600485fd5b503461024e578060031936011261024e57602061ffff60075460101c16604051908152f35b503461024e578060031936011261024e57602061ffff60075416604051908152f35b503461024e578060031936011261024e576001546040516001600160a01b039091168152602090f35b503461024e57604036600319011261024e5761110f61145a565b611117611475565b90829060018060a01b0316835260066020526040832060018060a01b03831684526020526040832091600183549301546111518142611673565b9062278d00821061123357611388925b6003546001600160a01b03169081611196575b505060a095506040519485526020850152604084015260608301526080820152f35b604051630d47875d60e41b81526001600160a01b03909116600482015290602090829060249082905afa9081156112285760a097916111f9575b506007549061ffff808316911610156111ea575b80611174565b60101c61ffff169350386111e4565b61121b915060203d602011611221575b6112138183611537565b810190611680565b386111d0565b503d611209565b6040513d89823e3d90fd5b62278d0061124083611612565b0492611161565b503461024e578060031936011261024e576003546040516001600160a01b039091168152602090f35b503461024e57602036600319011261024e576004359060055482101561024e57602061129b836114cc565b905460405160039290921b1c6001600160a01b03168152f35b503461024e578060031936011261024e5760206040516113888152f35b503461024e57602036600319011261024e576112eb61145a565b6112f533826116da565b6001600160a01b03168082526006602090815260408084203385529091528220600381018054849290919082611329578380f35b61133a936001925501549033611795565b60025461135390829033906001600160a01b03166118b8565b6040519081527f9310ccfcb8de723f578a9e4282ea9f521f05ae40dc08f3068dfad528a65ee3c760203392a338818180808380f35b503461024e57602036600319011261024e576113a261145a565b6001600160a01b0316815260046020526040812081906113c46001820161156e565b9160038201549160ff60066002830154920154169083611413575b6113f8955060405195869560a0875260a087019061148b565b93602086015260408501521515606084015260808301520390f35b91506301e133808202948286046301e133801483151715610f275764496cebb8008302958087046127101490151715610f275750611454836113f896611653565b916113df565b600435906001600160a01b038216820361147057565b600080fd5b602435906001600160a01b038216820361147057565b919082519283825260005b8481106114b7575050826000602080949584010152601f8019910116010190565b80602080928401015182828601015201611496565b6005548110156114e757600560005260206000200190600090565b634e487b7160e01b600052603260045260246000fd5b90600182811c9216801561152d575b602083101461151757565b634e487b7160e01b600052602260045260246000fd5b91607f169161150c565b90601f801991011681019081106001600160401b0382111761155857604052565b634e487b7160e01b600052604160045260246000fd5b9060405191826000825492611582846114fd565b80845293600181169081156115f057506001146115a9575b506115a792500383611537565b565b90506000929192526020600020906000915b8183106115d45750509060206115a7928201013861159a565b60209193508060019154838589010152019101909184926115bb565b9050602092506115a794915060ff191682840152151560051b8201013861159a565b90611388820291808304611388149015171561162a57565b634e487b7160e01b600052601160045260246000fd5b8181029291811591840414171561162a57565b811561165d570490565b634e487b7160e01b600052601260045260246000fd5b9190820391821161162a57565b90816020910312611470575161ffff811681036114705790565b9190820180921161162a57565b90816020910312611470575180151581036114705790565b6001600160401b03811161155857601f01601f191660200190565b6001600160a01b038116600081815260046020526040902090926116fd836119f2565b60058301908155426004909301929092556001600160a01b038116611723575b50505050565b60009384526006602090815260408086206001600160a01b03909316808752838352908620955252600383015483546002936117839291670de0b6b3a764000091610e9c9190610e96908990899061177a906119f2565b91015490611673565b6003840155549101553880808061171d565b91811580156118b0575b6118aa576117af60009142611673565b62278d0081106118945750611388810180911161162a57915b6003546001600160a01b031690816117f0575b5050612710610e9c6117ed9383611640565b90565b604051630d47875d60e41b81526001600160a01b03909116600482015290602090829060249082905afa908115611888576117ed9361271092610e9c92600091611869575b506007549061ffff80831691161015611851575b5093506117db565b9061ffff6118639260101c169061169a565b38611849565b611882915060203d602011611221576112138183611537565b38611835565b6040513d6000823e3d90fd5b62278d0091506118a390611612565b04916117c8565b50905090565b50801561179f565b6000929183809360405190602082019363a9059cbb60e01b855260018060a01b031660248301526044820152604481526118f3606482611537565b51926001600160a01b03165af13d156119a8573d611910816116bf565b9061191e6040519283611537565b81523d6000602083013e5b81611979575b501561193757565b60405162461bcd60e51b815260206004820152601a60248201527914d85999515490cc8c0e881d1c985b9cd9995c8819985a5b195960321b6044820152606490fd5b805180159250821561198e575b50503861192f565b6119a192506020809183010191016116a7565b3880611986565b6060611929565b6001600054036119c0576002600055565b60405162461bcd60e51b815260206004820152600a6024820152697265656e7472616e637960b01b6044820152606490fd5b6001600160a01b031660009081526004602052604090206003810154908115611a5c57611a2e6005820154916002610ece600483015442611673565b670de0b6b3a7640000810290808204670de0b6b3a7640000149015171561162a576117ed92610f1491611653565b6005915001549056fea2646970667358221220e3645f223ed2a97a59ddfbbe02c47edeb84fab5ea0395db63ffacd3296e2b61364736f6c634300081e0033",
  "linkReferences": {},
  "deployedLinkReferences": {}
}