{
  "_format": "hh-sol-artifact-1",
  "contractName": "MockSwapRouter",
  "sourceName": "contracts/mocks/MockSwapRouter.sol",
  "abi": [
    {
      "inputs": [
        {
          "internalType": "address",
          "name": "_stable",
          "type": "address"
        }
      ],
      "stateMutability": "nonpayable",
      "type": "constructor"
    },
    {
      "inputs": [],
      "name": "stablecoin",
      "outputs": [
        {
          "internalType": "address",
          "name": "",
          "type": "address"
        }
      ],
      "stateMutability": "view",
      "type": "function"
    },
    {
      "inputs": [
        {
          "internalType": "uint256",
          "name": "amountIn",
          "type": "uint256"
        },
        {
          "internalType": "uint256",
          "name": "amountOutMin",
          "type": "uint256"
        },
        {
          "internalType": "address[]",
          "name": "path",
          "type": "address[]"
        },
        {
          "internalType": "address",
          "name": "to",
          "type": "address"
        },
        {
          "internalType": "uint256",
          "name": "deadline",
          "type": "uint256"
        }
      ],
      "name": "swapExactTokensForTokens",
      "outputs": [
        {
          "internalType": "uint256[]",
          "name": "amounts",
          "type": "uint256[]"
        }
      ],
      "stateMutability": "nonpayable",
      "type": "function"
    }
  ],
  "bytecode": "0x608034607057601f61039e38819003918201601f19168301916001600160401b03831184841017607557808492602094604052833981010312607057516001600160a01b03811690819003607057600080546001600160a01b031916919091179055604051610312908161008c8239f35b600080fd5b634e487b7160e01b600052604160045260246000fdfe608080604052600436101561001357600080fd5b60003560e01c90816338ed173914610063575063e9cbd8221461003557600080fd5b3461005e57600036600319011261005e576000546040516001600160a01b039091168152602090f35b600080fd5b3461005e5760a036600319011261005e5760043590604435906001600160401b03821161005e573660238301121561005e578160040135906001600160401b03821161005e573660248360051b8501011161005e576064356001600160a01b038116919082900361005e5782156101f75760208160648160006001600160a01b036100f060248b01610279565b6323b872dd60e01b8452336004850152306024850152604484018c9052165af1801561023a5761025c575b50600019820191808311610246578210156101f7576044602460009460209460051b010161014f60018060a01b0391610279565b1691604051948593849263a9059cbb60e01b845260048401528760248401525af1801561023a5761020d575b506040519061018b60608361028d565b60028252602082019060403683378251156101f7578082528251600110156101f757604083929301526040519182916020830190602084525180915260408301919060005b8181106101de575050500390f35b82518452859450602093840193909201916001016101d0565b634e487b7160e01b600052603260045260246000fd5b61022e9060203d602011610233575b610226818361028d565b8101906102c4565b61017b565b503d61021c565b6040513d6000823e3d90fd5b634e487b7160e01b600052601160045260246000fd5b6102749060203d60201161023357610226818361028d565b61011b565b356001600160a01b038116810361005e5790565b90601f801991011681019081106001600160401b038211176102ae57604052565b634e487b7160e01b600052604160045260246000fd5b9081602091031261005e5751801515810361005e579056fea26469706673582212200b2bf2db247ff500adb50d0e6ce5888f3db3574b6d163784d48813bba5d0caea64736f6c634300081e0033",
  "linkReferences": {},
  "deployedLinkReferences": {}
}