{"abi":[{"type":"function","name":"release","inputs":[{"name":"id","type":"uint256","internalType":"uint256"}],"outputs":[],"stateMutability":"nonpayable"},{"type":"event","name":"Released","inputs":[{"name":"id","type":"uint256","indexed":false,"internalType":"uint256"},{"name":"caller","type":"address","indexed":false,"internalType":"address"}],"anonymous":false}],"bytecode":{"object":"0x60808060405234601357609e908160188239f35b5f80fdfe60808060405260043610156011575f80fd5b5f3560e01c6337bdc99b146023575f80fd5b34606457602036600319011260645760407f4d436de77f1139fda664b657c73ad6c3bde4a1984d3aabeab7c3998556b93b63916004358152336020820152a1005b5f80fdfea264697066735822122063be5111a501b69a6af0525e23e83834b27a8a23c44a4e083b7fb5dc334b983364736f6c634300081e0033","linkReferences":{}},"methodIdentifiers":{"release(uint256)":"37bdc99b"},"id":82}