{
  "_format": "hh-sol-artifact-1",
  "contractName": "LedgerMock",
  "sourceName": "contracts/mocks/LedgerMock.sol",
  "abi": [
    {
      "inputs": [
        {
          "internalType": "bool",
          "name": "_revert",
          "type": "bool"
        }
      ],
      "stateMutability": "nonpayable",
      "type": "constructor"
    },
    {
      "anonymous": false,
      "inputs": [
        {
          "indexed": false,
          "internalType": "address",
          "name": "who",
          "type": "address"
        },
        {
          "indexed": false,
          "internalType": "string",
          "name": "action",
          "type": "string"
        },
        {
          "indexed": false,
          "internalType": "uint256",
          "name": "amount",
          "type": "uint256"
        },
        {
          "indexed": false,
          "internalType": "string",
          "name": "note",
          "type": "string"
        }
      ],
      "name": "Logged",
      "type": "event"
    },
    {
      "anonymous": false,
      "inputs": [
        {
          "indexed": false,
          "internalType": "address",
          "name": "who",
          "type": "address"
        },
        {
          "indexed": false,
          "internalType": "string",
          "name": "action",
          "type": "string"
        },
        {
          "indexed": false,
          "internalType": "address",
          "name": "by",
          "type": "address"
        }
      ],
      "name": "LoggedSystem",
      "type": "event"
    },
    {
      "inputs": [
        {
          "internalType": "address",
          "name": "who",
          "type": "address"
        },
        {
          "internalType": "string",
          "name": "action",
          "type": "string"
        },
        {
          "internalType": "uint256",
          "name": "amount",
          "type": "uint256"
        },
        {
          "internalType": "string",
          "name": "note",
          "type": "string"
        }
      ],
      "name": "logEvent",
      "outputs": [],
      "stateMutability": "nonpayable",
      "type": "function"
    },
    {
      "inputs": [
        {
          "internalType": "address",
          "name": "who",
          "type": "address"
        },
        {
          "internalType": "string",
          "name": "action",
          "type": "string"
        },
        {
          "internalType": "address",
          "name": "by",
          "type": "address"
        }
      ],
      "name": "logSystemEvent",
      "outputs": [],
      "stateMutability": "nonpayable",
      "type": "function"
    },
    {
      "inputs": [
        {
          "internalType": "bool",
          "name": "v",
          "type": "bool"
        }
      ],
      "name": "setRevert",
      "outputs": [],
      "stateMutability": "nonpayable",
      "type": "function"
    },
    {
      "inputs": [],
      "name": "willRevert",
      "outputs": [
        {
          "internalType": "bool",
          "name": "",
          "type": "bool"
        }
      ],
      "stateMutability": "view",
      "type": "function"
    }
  ],
  "bytecode": "0x608034606257601f61036238819003918201601f19168301916001600160401b038311848410176067578084926020946040528339810103126062575180151580910360625760ff8019600054169116176000556040516102e4908161007e8239f35b600080fd5b634e487b7160e01b600052604160045260246000fdfe608080604052600436101561001357600080fd5b60003560e01c90816373ee93b31461022a575080638fb5f171146101f9578063c0f0a1c01461012f5763f77586ac1461004b57600080fd5b3461012a57606036600319011261012a5761006461024a565b6024356001600160401b03811161012a57610083903690600401610260565b90916044356001600160a01b0381169081900361012a5760ff600054166100f5576100ea7faf31fee314bdfe3c5aff0fc8c9dcc6ef992809a54c0329ad97c1d9ff78a652129460405194859460018060a01b0316855260606020860152606085019161028d565b9060408301520390a1005b60405162461bcd60e51b815260206004820152600d60248201526c1b195919d95c881c995d995c9d609a1b6044820152606490fd5b600080fd5b3461012a57608036600319011261012a5761014861024a565b6024356001600160401b03811161012a57610167903690600401610260565b90916064356001600160401b03811161012a57610188903690600401610260565b939060ff600054166100f5577f5fe34677c587614384b8d09d87daff4621857247c39f517fb8a5e40c142bb731946101de6101f49360405196879660018060a01b0316875260806020880152608087019161028d565b916044356040860152848303606086015261028d565b0390a1005b3461012a57602036600319011261012a5760043580151580910361012a5760ff801960005416911617600055600080f35b3461012a57600036600319011261012a5760209060ff6000541615158152f35b600435906001600160a01b038216820361012a57565b9181601f8401121561012a578235916001600160401b03831161012a576020838186019501011161012a57565b908060209392818452848401376000828201840152601f01601f191601019056fea2646970667358221220e3c0d8fec89748e85f7eb5105c4662acc3a6cbf815062865385207b721ca735164736f6c634300081e0033",
  "linkReferences": {},
  "deployedLinkReferences": {}
}