{"abi":[{"type":"constructor","inputs":[{"name":"_dao","type":"address","internalType":"address"},{"name":"_ledger","type":"address","internalType":"address"}],"stateMutability":"nonpayable"},{"type":"function","name":"dao","inputs":[],"outputs":[{"name":"","type":"address","internalType":"address"}],"stateMutability":"view"},{"type":"function","name":"halted","inputs":[],"outputs":[{"name":"","type":"bool","internalType":"bool"}],"stateMutability":"view"},{"type":"function","name":"lastToggleTime","inputs":[],"outputs":[{"name":"","type":"uint64","internalType":"uint64"}],"stateMutability":"view"},{"type":"function","name":"ledger","inputs":[],"outputs":[{"name":"","type":"address","internalType":"contract IProofLedger"}],"stateMutability":"view"},{"type":"function","name":"setDAO","inputs":[{"name":"_dao","type":"address","internalType":"address"}],"outputs":[],"stateMutability":"nonpayable"},{"type":"function","name":"setLedger","inputs":[{"name":"_ledger","type":"address","internalType":"address"}],"outputs":[],"stateMutability":"nonpayable"},{"type":"function","name":"setToggleCooldown","inputs":[{"name":"_cooldown","type":"uint64","internalType":"uint64"}],"outputs":[],"stateMutability":"nonpayable"},{"type":"function","name":"toggle","inputs":[{"name":"on","type":"bool","internalType":"bool"},{"name":"reason","type":"string","internalType":"string"}],"outputs":[],"stateMutability":"nonpayable"},{"type":"function","name":"toggleCooldown","inputs":[],"outputs":[{"name":"","type":"uint64","internalType":"uint64"}],"stateMutability":"view"},{"type":"event","name":"CooldownSet","inputs":[{"name":"cooldown","type":"uint64","indexed":false,"internalType":"uint64"}],"anonymous":false},{"type":"event","name":"DAOSet","inputs":[{"name":"dao","type":"address","indexed":false,"internalType":"address"}],"anonymous":false},{"type":"event","name":"LedgerSet","inputs":[{"name":"ledger","type":"address","indexed":false,"internalType":"address"}],"anonymous":false},{"type":"event","name":"Toggled","inputs":[{"name":"on","type":"bool","indexed":false,"internalType":"bool"},{"name":"reason","type":"string","indexed":false,"internalType":"string"}],"anonymous":false},{"type":"error","name":"SEC_NotDAO","inputs":[]},{"type":"error","name":"SEC_Zero","inputs":[]}],"bytecode":{"object":"0x60803460b257601f61088d38819003918201601f19168301916001600160401b0383118484101760b657808492604094855283398101031260b257604b602060458360ca565b920160ca565b600280546001600160401b031916610e10179055906001600160a01b0316801560a35760018060a01b03195f5416175f5560018060a01b031660018060a01b031960015416176001556040516107af90816100de8239f35b630f1ee1d360e41b5f5260045ffd5b5f80fd5b634e487b7160e01b5f52604160045260245ffd5b51906001600160a01b038216820360b25756fe60806040526004361015610011575f80fd5b5f5f3560e01c80633246887d146105ef578063337d1d5b146102a35780633b9f3e8b1461027b5780634162169f1461025457806356397c351461022b57806377a6595b146101875780639d9772051461015c578063b9b8af0b146101365763e73a914c1461007d575f80fd5b34610133576020366003190112610133576004356001600160a01b03811690819003610131576100ab6106c7565b80156101225781546001600160a01b031916811782556040519081527f8aad84fcad50e723fa3bcf0fb32c5bea4c71078b77b9aedfa638f146f3a3f7b990602090a161011f6040516100fe604082610691565b600f81526e189c99585ad95c97d9185bd7dcd95d608a1b602082015261070d565b80f35b630f1ee1d360e41b8252600482fd5b505b80fd5b5034610133578060031936011261013357602060ff60015460a01c166040519015158152f35b5034610133578060031936011261013357602067ffffffffffffffff60015460a81c16604051908152f35b50346101335760203660031901126101335760043567ffffffffffffffff81168091036101315760207fd3c86bd8150fcc5f376375097a2a9b313bf89addc501ee368c9eebe117328497916101da6106c7565b8067ffffffffffffffff196002541617600255604051908152a161011f604051610205604082610691565b6014815273189c99585ad95c97d8dbdbdb191bdddb97dcd95d60621b602082015261070d565b50346101335780600319360112610133576001546040516001600160a01b039091168152602090f35b5034610133578060031936011261013357546040516001600160a01b039091168152602090f35b5034610133578060031936011261013357602067ffffffffffffffff60025416604051908152f35b5034610505576040366003190112610505576004358015801590818303610505576024359267ffffffffffffffff841161050557366023850112156105055783600401359167ffffffffffffffff83116105055760248501946024843692010111610505576103106106c7565b67ffffffffffffffff600254169081151590816105d6575b816105ce575b5061053f575b506001805468ffffffffffffffffff60a01b191660a085901b60ff60a01b16174260a81b67ffffffffffffffff60a81b1617905560408051938452602084018190528301829052818460608501375f606083850101527fcecabc0d177ad16d218b48cf49d81d8af631fe5978a2d42c492b3e5bec598e24601f19601f84011693606081868101030190a1801561051357610426602061042160286040516103dc604082610691565b600281526137b760f11b848201525b60405193849167627265616b65725f60c01b828401528051918291018484015e81015f838201520301601f198101835282610691565b61070d565b15610509575f60206001925b808260405196610443604089610691565b600e88526d627265616b65725f746f67676c6560901b82890152019661046c6040519889610691565b81885283880137850101526001546001600160a01b03168061048c578480f35b803b15610505576104ca5f80946104e260ff9560405198899788968795630303c28760e61b87523060048801526080602488015260848701906106e9565b921660448501528382036003190160648501526106e9565b03925af16104f2575b8080808480f35b6104fe91505f90610691565b5f5f6104eb565b5f80fd5b5f60208192610432565b6104266020610421602860405161052b604082610691565b600381526237b33360e91b848201526103eb565b67ffffffffffffffff60015460a81c160167ffffffffffffffff81116105ba5767ffffffffffffffff164210610575575f610334565b60405162461bcd60e51b815260206004820152601b60248201527f5345433a20746f67676c6520636f6f6c646f776e2061637469766500000000006044820152606490fd5b634e487b7160e01b5f52601160045260245ffd5b90505f61032e565b60015460a81c67ffffffffffffffff1615159150610328565b34610505576020366003190112610505576004356001600160a01b038116908190036105055760207fbc62e69a31739e36d57d56991ac20e4e507a7edfff9070e6a11df5a37b8b4e6f916106416106c7565b600180546001600160a01b03191682179055604051908152a161068f60405161066b604082610691565b6012815271189c99585ad95c97db195919d95c97dcd95d60721b602082015261070d565b005b90601f8019910116810190811067ffffffffffffffff8211176106b357604052565b634e487b7160e01b5f52604160045260245ffd5b5f546001600160a01b031633036106da57565b63457cf6fd60e11b5f5260045ffd5b805180835260209291819084018484015e5f828201840152601f01601f1916010190565b6001546001600160a01b031680610722575050565b803b1561050557604051633ddd61ab60e21b815230600482015260606024820152915f91839182908490829061075c9060648301906106e9565b33604483015203925af161076d5750565b5f61077791610691565b56fea2646970667358221220d78bd8718cb8965e675574a88743b27cead2273e4a6faa38ae8b2599cd197fae64736f6c634300081e0033","linkReferences":{}},"methodIdentifiers":{"dao()":"4162169f","halted()":"b9b8af0b","lastToggleTime()":"9d977205","ledger()":"56397c35","setDAO(address)":"e73a914c","setLedger(address)":"3246887d","setToggleCooldown(uint64)":"77a6595b","toggle(bool,string)":"337d1d5b","toggleCooldown()":"3b9f3e8b"},"id":34}