{"abi":[{"type":"constructor","inputs":[{"name":"_dao","type":"address","internalType":"address"}],"stateMutability":"nonpayable"},{"type":"function","name":"addGuardian","inputs":[{"name":"vault","type":"address","internalType":"address"},{"name":"guardian","type":"address","internalType":"address"}],"outputs":[],"stateMutability":"nonpayable"},{"type":"function","name":"canRemoveGuardian","inputs":[{"name":"vault","type":"address","internalType":"address"},{"name":"guardian","type":"address","internalType":"address"}],"outputs":[{"name":"canRemove","type":"bool","internalType":"bool"}],"stateMutability":"view"},{"type":"function","name":"dao","inputs":[],"outputs":[{"name":"","type":"address","internalType":"address"}],"stateMutability":"view"},{"type":"function","name":"guardianCount","inputs":[{"name":"","type":"address","internalType":"address"}],"outputs":[{"name":"","type":"uint8","internalType":"uint8"}],"stateMutability":"view"},{"type":"function","name":"guardiansNeeded","inputs":[{"name":"vault","type":"address","internalType":"address"}],"outputs":[{"name":"needed","type":"uint8","internalType":"uint8"}],"stateMutability":"view"},{"type":"function","name":"isGuardian","inputs":[{"name":"","type":"address","internalType":"address"},{"name":"","type":"address","internalType":"address"}],"outputs":[{"name":"","type":"bool","internalType":"bool"}],"stateMutability":"view"},{"type":"function","name":"isGuardianOf","inputs":[{"name":"vault","type":"address","internalType":"address"},{"name":"guardian","type":"address","internalType":"address"}],"outputs":[{"name":"","type":"bool","internalType":"bool"}],"stateMutability":"view"},{"type":"function","name":"removeGuardian","inputs":[{"name":"vault","type":"address","internalType":"address"},{"name":"guardian","type":"address","internalType":"address"}],"outputs":[],"stateMutability":"nonpayable"},{"type":"function","name":"setDAO","inputs":[{"name":"_dao","type":"address","internalType":"address"}],"outputs":[],"stateMutability":"nonpayable"},{"type":"function","name":"setThreshold","inputs":[{"name":"vault","type":"address","internalType":"address"},{"name":"mOfN","type":"uint8","internalType":"uint8"}],"outputs":[],"stateMutability":"nonpayable"},{"type":"function","name":"threshold","inputs":[{"name":"","type":"address","internalType":"address"}],"outputs":[{"name":"","type":"uint8","internalType":"uint8"}],"stateMutability":"view"},{"type":"event","name":"DAOSet","inputs":[{"name":"dao","type":"address","indexed":false,"internalType":"address"}],"anonymous":false},{"type":"event","name":"GuardianAdded","inputs":[{"name":"vault","type":"address","indexed":true,"internalType":"address"},{"name":"guardian","type":"address","indexed":true,"internalType":"address"}],"anonymous":false},{"type":"event","name":"GuardianRemoved","inputs":[{"name":"vault","type":"address","indexed":true,"internalType":"address"},{"name":"guardian","type":"address","indexed":true,"internalType":"address"}],"anonymous":false},{"type":"event","name":"ThresholdSet","inputs":[{"name":"vault","type":"address","indexed":true,"internalType":"address"},{"name":"mOfN","type":"uint8","indexed":false,"internalType":"uint8"}],"anonymous":false},{"type":"error","name":"SEC_AlreadyMember","inputs":[]},{"type":"error","name":"SEC_BadThreshold","inputs":[]},{"type":"error","name":"SEC_NotDAO","inputs":[]},{"type":"error","name":"SEC_NotMember","inputs":[]},{"type":"error","name":"SEC_Zero","inputs":[]}],"bytecode":{"object":"0x608034608357601f61074d38819003918201601f19168301916001600160401b03831184841017608757808492602094604052833981010312608357516001600160a01b0381169081900360835780156074575f80546001600160a01b0319169190911790556040516106b1908161009c8239f35b630f1ee1d360e41b5f5260045ffd5b5f80fd5b634e487b7160e01b5f52604160045260245ffdfe60806040526004361015610011575f80fd5b5f3560e01c80631dc42198146105775780634162169f146105505780635040fb761461051557806356366b0714610439578063769e54df1461012c5780639b27a90e1461032d578063b508365f146102ff578063c6845210146101be578063c86ec2bf14610183578063d4ee97341461012c5763e73a914c14610092575f80fd5b34610128576020366003190112610128576100ab6105ad565b5f54906001600160a01b0382163303610119576001600160a01b031690811561010a576001600160a01b03191681175f556040519081527f8aad84fcad50e723fa3bcf0fb32c5bea4c71078b77b9aedfa638f146f3a3f7b990602090a1005b630f1ee1d360e41b5f5260045ffd5b63457cf6fd60e11b5f5260045ffd5b5f80fd5b34610128576040366003190112610128576101456105ad565b61014d6105c3565b9060018060a01b03165f52600160205260405f209060018060a01b03165f52602052602060ff60405f2054166040519015158152f35b34610128576020366003190112610128576001600160a01b036101a46105ad565b165f526003602052602060ff60405f205416604051908152f35b34610128576040366003190112610128576101d76105ad565b6101df6105c3565b9060018060a01b035f5416331415806102ec575b610119576001600160a01b031690811580156102db575b61010a57815f52600160205260405f2060018060a01b0382165f5260205260ff60405f2054166102cc57815f52600160205260405f2060018060a01b0382165f5260205260405f20600160ff19825416179055815f52600260205260405f20600160ff8254160160ff81116102b857815460ff191660ff919091161790556001600160a01b0316907fbc3292102fa77e083913064b282926717cdfaede4d35f553d66366c0a3da755a5f80a3005b634e487b7160e01b5f52601160045260245ffd5b635567f27160e11b5f5260045ffd5b506001600160a01b0381161561020a565b50336001600160a01b03821614156101f3565b3461012857602036600319011261012857602061032261031d6105ad565b610611565b60ff60405191168152f35b34610128576040366003190112610128576103466105ad565b61034e6105c3565b9060018060a01b035f541633141580610426575b6101195760018060a01b031690815f52600160205260405f2060018060a01b0382165f5260205260ff60405f2054161561041757815f52600160205260405f2060018060a01b0382165f5260205260405f2060ff198154169055815f52600260205260405f205f1960ff8254160160ff81116102b857815460ff191660ff919091161790556001600160a01b0316907fee943cdb81826d5909c559c6b1ae6908fcaf2dbc16c4b730346736b486283e8b5f80a3005b63acaa05b560e01b5f5260045ffd5b50336001600160a01b0382161415610362565b34610128576040366003190112610128576104526105ad565b6024359060ff8216809203610128575f546001600160a01b031633141580610502575b610119576001600160a01b03165f8181526002602052604090205490919060ff168015806104f9575b6104ea5781116104ea5760207f71d1e68103a122a6bf3ccd593baed5289c4ea40093696e1b72dc6d3024f5bc0991835f526003825260405f208160ff19825416179055604051908152a2005b63410151f960e11b5f5260045ffd5b5081151561049e565b50336001600160a01b0382161415610475565b34610128576020366003190112610128576001600160a01b036105366105ad565b165f526002602052602060ff60405f205416604051908152f35b34610128575f366003190112610128575f546040516001600160a01b039091168152602090f35b346101285760403660031901126101285760206105a36105956105ad565b61059d6105c3565b906105d9565b6040519015158152f35b600435906001600160a01b038216820361012857565b602435906001600160a01b038216820361012857565b60018060a01b03165f52600160205260405f209060018060a01b03165f5260205260ff60405f2054161561060c57600190565b600190565b6001600160a01b03165f8181526002602052604090205460ff1691908215610675575f52600360205260ff60405f20541680155f1461066f5750600182018083116102b85760011c60ff16915b8060ff84161161066b5750565b9150565b9161065e565b505f915056fea2646970667358221220bf1b5126b697fa0b320093331358a8c2659354a726556121775ce293265dcdbd64736f6c634300081e0033","linkReferences":{}},"methodIdentifiers":{"addGuardian(address,address)":"c6845210","canRemoveGuardian(address,address)":"1dc42198","dao()":"4162169f","guardianCount(address)":"5040fb76","guardiansNeeded(address)":"b508365f","isGuardian(address,address)":"d4ee9734","isGuardianOf(address,address)":"769e54df","removeGuardian(address,address)":"9b27a90e","setDAO(address)":"e73a914c","setThreshold(address,uint8)":"56366b07","threshold(address)":"c86ec2bf"},"id":34}