{"abi":[{"type":"constructor","inputs":[{"name":"_dao","type":"address","internalType":"address"},{"name":"_registry","type":"address","internalType":"address"},{"name":"_ledger","type":"address","internalType":"address"}],"stateMutability":"nonpayable"},{"type":"function","name":"approvals","inputs":[{"name":"","type":"address","internalType":"address"}],"outputs":[{"name":"","type":"uint8","internalType":"uint8"}],"stateMutability":"view"},{"type":"function","name":"cancel","inputs":[{"name":"vault","type":"address","internalType":"address"}],"outputs":[],"stateMutability":"nonpayable"},{"type":"function","name":"castLock","inputs":[{"name":"vault","type":"address","internalType":"address"},{"name":"reason","type":"string","internalType":"string"}],"outputs":[],"stateMutability":"nonpayable"},{"type":"function","name":"dao","inputs":[],"outputs":[{"name":"","type":"address","internalType":"address"}],"stateMutability":"view"},{"type":"function","name":"ledger","inputs":[],"outputs":[{"name":"","type":"address","internalType":"contract IProofLedger"}],"stateMutability":"view"},{"type":"function","name":"lockNonce","inputs":[{"name":"","type":"address","internalType":"address"}],"outputs":[{"name":"","type":"uint256","internalType":"uint256"}],"stateMutability":"view"},{"type":"function","name":"locked","inputs":[{"name":"","type":"address","internalType":"address"}],"outputs":[{"name":"","type":"bool","internalType":"bool"}],"stateMutability":"view"},{"type":"function","name":"registry","inputs":[],"outputs":[{"name":"","type":"address","internalType":"contract GuardianRegistry"}],"stateMutability":"view"},{"type":"function","name":"setModules","inputs":[{"name":"_registry","type":"address","internalType":"address"},{"name":"_ledger","type":"address","internalType":"address"}],"outputs":[],"stateMutability":"nonpayable"},{"type":"function","name":"unlock","inputs":[{"name":"vault","type":"address","internalType":"address"},{"name":"reason","type":"string","internalType":"string"}],"outputs":[],"stateMutability":"nonpayable"},{"type":"function","name":"voted","inputs":[{"name":"","type":"address","internalType":"address"},{"name":"","type":"uint256","internalType":"uint256"},{"name":"","type":"address","internalType":"address"}],"outputs":[{"name":"","type":"bool","internalType":"bool"}],"stateMutability":"view"},{"type":"function","name":"wasGuardianRemovedDuringVote","inputs":[{"name":"vault","type":"address","internalType":"address"},{"name":"guardian","type":"address","internalType":"address"}],"outputs":[{"name":"","type":"bool","internalType":"bool"}],"stateMutability":"view"},{"type":"event","name":"Cancelled","inputs":[{"name":"vault","type":"address","indexed":true,"internalType":"address"},{"name":"by","type":"address","indexed":true,"internalType":"address"}],"anonymous":false},{"type":"event","name":"GuardianRemovedDuringVote","inputs":[{"name":"vault","type":"address","indexed":true,"internalType":"address"},{"name":"guardian","type":"address","indexed":true,"internalType":"address"},{"name":"remainingApprovals","type":"uint8","indexed":false,"internalType":"uint8"}],"anonymous":false},{"type":"event","name":"Locked","inputs":[{"name":"vault","type":"address","indexed":true,"internalType":"address"},{"name":"byGuardian","type":"address","indexed":true,"internalType":"address"},{"name":"approvals","type":"uint8","indexed":false,"internalType":"uint8"},{"name":"reason","type":"string","indexed":false,"internalType":"string"}],"anonymous":false},{"type":"event","name":"ModulesSet","inputs":[{"name":"registry","type":"address","indexed":false,"internalType":"address"},{"name":"ledger","type":"address","indexed":false,"internalType":"address"}],"anonymous":false},{"type":"event","name":"Unlocked","inputs":[{"name":"vault","type":"address","indexed":true,"internalType":"address"},{"name":"by","type":"address","indexed":true,"internalType":"address"},{"name":"reason","type":"string","indexed":false,"internalType":"string"}],"anonymous":false},{"type":"event","name":"VotesInvalidated","inputs":[{"name":"vault","type":"address","indexed":true,"internalType":"address"},{"name":"oldNonce","type":"uint256","indexed":false,"internalType":"uint256"},{"name":"newNonce","type":"uint256","indexed":false,"internalType":"uint256"},{"name":"reason","type":"string","indexed":false,"internalType":"string"}],"anonymous":false},{"type":"error","name":"SEC_AlreadyLocked","inputs":[]},{"type":"error","name":"SEC_NoEffect","inputs":[]},{"type":"error","name":"SEC_NotDAO","inputs":[]},{"type":"error","name":"SEC_NotGuardian","inputs":[]},{"type":"error","name":"SEC_NotLocked","inputs":[]},{"type":"error","name":"SEC_Zero","inputs":[]}],"bytecode":{"object":"0x6080346100e057601f610d8138819003918201601f19168301916001600160401b038311848410176100e4578084926060946040528339810103126100e057610047816100f8565b906100606040610059602084016100f8565b92016100f8565b916001600160a01b0316801580156100cf575b6100c0575f80546001600160a01b03199081169290921790556001805482166001600160a01b039384161790556002805490911692909116919091179055604051610c74908161010d8239f35b630f1ee1d360e41b5f5260045ffd5b506001600160a01b03821615610073565b5f80fd5b634e487b7160e01b5f52604160045260245ffd5b51906001600160a01b03821682036100e05756fe6080806040526004361015610012575f80fd5b5f905f3560e01c908163106b39061461065e575080631db0bd48146105695780633ead71cb146104475780634162169f146104205780634c33fe941461035f57806356397c35146103375780635d0341ba146102fc5780637b103999146102d4578063cbf9fe5f14610297578063d74a5d001461014f578063d945d51a146101165763f2874165146100a2575f80fd5b34610113576060366003190112610113576100bb610960565b60443591906001600160a01b0383168303610111579060409160018060a01b0316815260046020528181206024358252602052209060018060a01b03165f52602052602060ff60405f2054166040519015158152f35b505b80fd5b5034610113576020366003190112610113576020906040906001600160a01b0361013e610960565b168152600583522054604051908152f35b503461028457604036600319011261028457610169610960565b610171610976565b610179610c1c565b6001600160a01b03821690811561028857600180546001600160a01b0319908116939093179055600280546001600160a01b03831693168317905560405191927fe7836f4c1585572e73ac1ebd237c17348e5b453da767958b34b22bd170f6e52f929182916101e9919083610a3d565b0390a1604051906101fb6040836109ee565b601882527719dd585c991a585b9b1bd8dad7db5bd91d5b195cd7dcd95d60421b602083015280610229578280f35b803b1561028457604051633ddd61ab60e21b815230600482015260606024820152915f918391829084908290610263906064830190610aca565b33604483015203925af161027657808280f35b61028291505f906109ee565b005b5f80fd5b630f1ee1d360e41b5f5260045ffd5b34610284576020366003190112610284576001600160a01b036102b8610960565b165f526006602052602060ff60405f2054166040519015158152f35b34610284575f366003190112610284576001546040516001600160a01b039091168152602090f35b34610284576020366003190112610284576001600160a01b0361031d610960565b165f526003602052602060ff60405f205416604051908152f35b34610284575f366003190112610284576002546040516001600160a01b039091168152602090f35b346102845760203660031901126102845761028261037b610960565b610383610c1c565b6001600160a01b0381165f818152600360209081526040808320805460ff191690556005909152902080546103b790610abc565b905533907ff91f011c087a627ca425b0ca8a8859a2ae764d033f94c53b18359b02b374726f5f80a36040516103ed6040826109ee565b600f81526e19dd585c991a585b97d8d85b98d95b608a1b6020820152604051916104186020846109ee565b5f8352610aee565b34610284575f366003190112610284575f546040516001600160a01b039091168152602090f35b34610284576104553661098c565b610460929192610c1c565b6001600160a01b0382165f8181526006602052604090205460ff161580610552575b61054357610282938161053d925f52600660205260405f2060ff198154169055805f52600360205260405f2060ff198154169055805f52600560205260405f206104cc8154610abc565b905560405190602082527f2d03dd0d35f652006acb65aaf29d60ad958d5db729a7c3c648d75c96b6352dad339280610508602082018988610a9c565b0390a36040519261051a6040856109ee565b600f84526e677561726469616e5f756e6c6f636b60881b60208501523691610a57565b91610aee565b6301e7baf360e71b5f5260045ffd5b50805f52600360205260ff60405f20541615610482565b3461028457604036600319011261028457610582610960565b61058a610976565b6001600160a01b038281165f908152600560209081526040808320546004835281842090845282528083209385168352929052205460ff1690816105d6575b6020826040519015158152f35b60015460405163353ba5cd60e21b8152936020935084926001600160a01b03909216918391829161060a9160048401610a3d565b03915afa8015610653576020915f91610626575b5015826105c9565b6106469150823d841161064c575b61063e81836109ee565b810190610a25565b8261061e565b503d610634565b6040513d5f823e3d90fd5b346102845761066c3661098c565b60015463353ba5cd60e21b855290939060209082906001600160a01b0316818061069a338960048401610a3d565b03915afa908115610653575f91610941575b5015610932576001600160a01b0382165f8181526006602052604090205490939060ff16610923575f848152600560209081526040808320546004835281842081855283528184203385529092529091205460ff1661091457845f52600460205260405f20905f5260205260405f2060018060a01b0333165f5260205260405f20600160ff19825416179055835f526003602052600160ff60405f205416019160ff831161090057845f52600360205260ff60405f209316928360ff198254161790556024602060018060a01b03600154166040519283809263b508365f60e01b82528a60048301525afa8015610653575f906108c3575b60ff16808510159150816108b9575b5015610880579061084d610853949392865f52600660205260405f20600160ff1982541617905560405184815260406020820152877f498daff812cdc691a0273414712a0136a4c71a58fd4768c1420147b9b2c853b233928061081a604082018988610a9c565b0390a36040519261082c6040856109ee565b600d84526c677561726469616e5f6c6f636b60981b60208501523691610a57565b92610b82565b805f52600360205260405f2060ff1981541690555f52600560205260405f2061087c8154610abc565b9055005b610282945061084d90604051926108986040856109ee565b600d84526c677561726469616e5f766f746560981b60208501523691610a57565b90501515866107b3565b506020813d6020116108f8575b816108dd602093836109ee565b81010312610284575160ff811681036102845760ff906107a4565b3d91506108d0565b634e487b7160e01b5f52601160045260245ffd5b634229ed8f60e01b5f5260045ffd5b63f245e0a360e01b5f5260045ffd5b63ab67227b60e01b5f5260045ffd5b61095a915060203d60201161064c5761063e81836109ee565b846106ac565b600435906001600160a01b038216820361028457565b602435906001600160a01b038216820361028457565b6040600319820112610284576004356001600160a01b038116810361028457916024356001600160401b0381116102845782602382011215610284576004810135926001600160401b0384116102845760248483010111610284576024019190565b601f909101601f19168101906001600160401b03821190821017610a1157604052565b634e487b7160e01b5f52604160045260245ffd5b90816020910312610284575180151581036102845790565b6001600160a01b0391821681529116602082015260400190565b9192916001600160401b038211610a115760405191610a80601f8201601f1916602001846109ee565b829481845281830111610284578281602093845f960137010152565b908060209392818452848401375f828201840152601f01601f1916010190565b5f1981146109005760010190565b805180835260209291819084018484015e5f828201840152601f01601f1916010190565b6002546001600160a01b031680610b06575b50505050565b803b15610284575f9283610b4993610b6160405197889687958694630303c28760e61b865260018060a01b03166004860152608060248601526084850190610aca565b90846044850152600319848303016064850152610aca565b03925af1610b72575b808080610b00565b5f610b7c916109ee565b5f610b6a565b60025490916001600160a01b039091169081610ba0575b5050505050565b813b15610284575f610be393610bfa829660405198899788968795630303c28760e61b875260018060a01b03166004870152608060248701526084860190610aca565b916044850152600319848303016064850152610aca565b03925af1610c0c575b80808080610b99565b5f610c16916109ee565b5f610c03565b5f546001600160a01b03163303610c2f57565b63457cf6fd60e11b5f5260045ffdfea26469706673582212206973a216ad2545cf6c37d84c9aa21d7ed8df8ea858898e72f2069fb2bf684ce964736f6c634300081e0033","linkReferences":{}},"methodIdentifiers":{"approvals(address)":"5d0341ba","cancel(address)":"4c33fe94","castLock(address,string)":"106b3906","dao()":"4162169f","ledger()":"56397c35","lockNonce(address)":"d945d51a","locked(address)":"cbf9fe5f","registry()":"7b103999","setModules(address,address)":"d74a5d00","unlock(address,string)":"3ead71cb","voted(address,uint256,address)":"f2874165","wasGuardianRemovedDuringVote(address,address)":"1db0bd48"},"id":37}