{"abi":[{"type":"constructor","inputs":[{"name":"_dao","type":"address","internalType":"address"},{"name":"_ledger","type":"address","internalType":"address"},{"name":"_hub","type":"address","internalType":"address"}],"stateMutability":"nonpayable"},{"type":"function","name":"MIN_VAULT_AGE_FOR_PANIC","inputs":[],"outputs":[{"name":"","type":"uint256","internalType":"uint256"}],"stateMutability":"view"},{"type":"function","name":"SELF_PANIC_COOLDOWN","inputs":[],"outputs":[{"name":"","type":"uint256","internalType":"uint256"}],"stateMutability":"view"},{"type":"function","name":"clear","inputs":[{"name":"vault","type":"address","internalType":"address"},{"name":"reason","type":"string","internalType":"string"}],"outputs":[],"stateMutability":"nonpayable"},{"type":"function","name":"dao","inputs":[],"outputs":[{"name":"","type":"address","internalType":"address"}],"stateMutability":"view"},{"type":"function","name":"globalRisk","inputs":[],"outputs":[{"name":"","type":"bool","internalType":"bool"}],"stateMutability":"view"},{"type":"function","name":"isQuarantined","inputs":[{"name":"vault","type":"address","internalType":"address"}],"outputs":[{"name":"","type":"bool","internalType":"bool"}],"stateMutability":"view"},{"type":"function","name":"isRestricted","inputs":[{"name":"vault","type":"address","internalType":"address"}],"outputs":[{"name":"","type":"bool","internalType":"bool"}],"stateMutability":"view"},{"type":"function","name":"lastSelfPanic","inputs":[{"name":"","type":"address","internalType":"address"}],"outputs":[{"name":"","type":"uint256","internalType":"uint256"}],"stateMutability":"view"},{"type":"function","name":"ledger","inputs":[],"outputs":[{"name":"","type":"address","internalType":"contract IProofLedger"}],"stateMutability":"view"},{"type":"function","name":"maxDuration","inputs":[],"outputs":[{"name":"","type":"uint64","internalType":"uint64"}],"stateMutability":"view"},{"type":"function","name":"minDuration","inputs":[],"outputs":[{"name":"","type":"uint64","internalType":"uint64"}],"stateMutability":"view"},{"type":"function","name":"quarantineUntil","inputs":[{"name":"","type":"address","internalType":"address"}],"outputs":[{"name":"","type":"uint64","internalType":"uint64"}],"stateMutability":"view"},{"type":"function","name":"registerVault","inputs":[{"name":"vault","type":"address","internalType":"address"}],"outputs":[],"stateMutability":"nonpayable"},{"type":"function","name":"reportRisk","inputs":[{"name":"vault","type":"address","internalType":"address"},{"name":"duration","type":"uint64","internalType":"uint64"},{"name":"severity","type":"uint8","internalType":"uint8"},{"name":"reason","type":"string","internalType":"string"}],"outputs":[],"stateMutability":"nonpayable"},{"type":"function","name":"selfPanic","inputs":[{"name":"duration","type":"uint64","internalType":"uint64"}],"outputs":[],"stateMutability":"nonpayable"},{"type":"function","name":"setGlobalRisk","inputs":[{"name":"on","type":"bool","internalType":"bool"},{"name":"reason","type":"string","internalType":"string"}],"outputs":[],"stateMutability":"nonpayable"},{"type":"function","name":"setHub","inputs":[{"name":"_hub","type":"address","internalType":"address"}],"outputs":[],"stateMutability":"nonpayable"},{"type":"function","name":"setLedger","inputs":[{"name":"_ledger","type":"address","internalType":"address"}],"outputs":[],"stateMutability":"nonpayable"},{"type":"function","name":"setPolicy","inputs":[{"name":"_minDuration","type":"uint64","internalType":"uint64"},{"name":"_maxDuration","type":"uint64","internalType":"uint64"}],"outputs":[],"stateMutability":"nonpayable"},{"type":"function","name":"vaultCreationTime","inputs":[{"name":"","type":"address","internalType":"address"}],"outputs":[{"name":"","type":"uint256","internalType":"uint256"}],"stateMutability":"view"},{"type":"function","name":"vaultHub","inputs":[],"outputs":[{"name":"","type":"address","internalType":"contract IVaultHub"}],"stateMutability":"view"},{"type":"event","name":"Cleared","inputs":[{"name":"vault","type":"address","indexed":true,"internalType":"address"},{"name":"reason","type":"string","indexed":false,"internalType":"string"}],"anonymous":false},{"type":"event","name":"GlobalRiskSet","inputs":[{"name":"on","type":"bool","indexed":false,"internalType":"bool"},{"name":"reason","type":"string","indexed":false,"internalType":"string"}],"anonymous":false},{"type":"event","name":"HubSet","inputs":[{"name":"hub","type":"address","indexed":false,"internalType":"address"}],"anonymous":false},{"type":"event","name":"LedgerSet","inputs":[{"name":"ledger","type":"address","indexed":false,"internalType":"address"}],"anonymous":false},{"type":"event","name":"PolicySet","inputs":[{"name":"minDuration","type":"uint64","indexed":false,"internalType":"uint64"},{"name":"maxDuration","type":"uint64","indexed":false,"internalType":"uint64"}],"anonymous":false},{"type":"event","name":"Quarantined","inputs":[{"name":"vault","type":"address","indexed":true,"internalType":"address"},{"name":"untilTs","type":"uint64","indexed":false,"internalType":"uint64"},{"name":"reason","type":"string","indexed":false,"internalType":"string"},{"name":"severity","type":"uint8","indexed":false,"internalType":"uint8"}],"anonymous":false},{"type":"error","name":"SEC_ExpiryTooShort","inputs":[]},{"type":"error","name":"SEC_NotDAO","inputs":[]},{"type":"error","name":"SEC_Zero","inputs":[]}],"bytecode":{"object":"0x6080346100f857601f6111da38819003918201601f19168301916001600160401b038311848410176100fc578084926060946040528339810103126100f85761004781610110565b90610060604061005960208401610110565b9201610110565b60068054610100600160881b0319166b278d000000000000000e1000179055916001600160a01b031680156100e9575f80546001600160a01b0319908116929092179055600180549091166001600160a01b0392831617905516806100cf575b6040516110b590816101258239f35b600280546001600160a01b0319169190911790555f6100c0565b630f1ee1d360e41b5f5260045ffd5b5f80fd5b634e487b7160e01b5f52604160045260245ffd5b51906001600160a01b03821682036100f85756fe6080806040526004361015610012575f80fd5b5f905f3560e01c90816314c52d7914610db9575080631735739b14610c5357806319f115491461095a57806323db535b146107cf57806331372da4146106c357806331962cdc146106235780633246887d1461057d5780634162169f14610556578063485d6ef81461052857806356397c35146104ff57806356715761146104d257806367ccd1cb146104425780636b943da51461041f5780636db5c8fd146103f25780636dd6e80b146103c95780639e059b2014610389578063a511a11614610350578063aeafc64514610317578063b18c3d3614610169578063c01bc982146101245763cd4e716f14610105575f80fd5b346101215780600319360112610121576020604051610e108152f35b80fd5b5034610121576020366003190112610121576020610140610dd4565b60ff60065416908115610159575b506040519015158152f35b6101639150610edf565b8261014e565b503461012157608036600319011261012157610183610dd4565b61018b610e2d565b906044359160ff8316809303610313576064356001600160401b03811161030f576101bd6101cc913690600401610dea565b6101c5610f13565b3691610e9a565b916001600160a01b0381169180831561030057600654906001600160401b03600883901c8116911681116102f8575b5060481c6001600160401b0390811690821681106102f0575b506001600160401b0390811642821601929083116102dc57808652600360205260408620546001600160401b0393841693168311610250578580f35b5f5160206110605f395f51905f526102d3958288526003602052604088208560018060401b03198254161790556040518091868252606060208301526102996060830189610f35565b9060408301520390a2604051906102b1604083610e63565b601082526f70616e69635f71756172616e74696e6560801b6020830152610f59565b5f808080808580f35b634e487b7160e01b86526011600452602486fd5b90505f610214565b91505f6101fb565b630f1ee1d360e41b8752600487fd5b8480fd5b8380fd5b5034610121576020366003190112610121576020906040906001600160a01b0361033f610dd4565b168152600483522054604051908152f35b5034610121576020366003190112610121576020906040906001600160a01b03610378610dd4565b168152600583522054604051908152f35b5034610121576020366003190112610121576020906001600160a01b036103ae610dd4565b168152600382526040600180821b0391205416604051908152f35b50346101215780600319360112610121576002546040516001600160a01b039091168152602090f35b503461012157806003193601126101215760065460405160489190911c6001600160401b03168152602090f35b5034610121578060031936011261012157602060ff600654166040519015158152f35b50346101215760203660031901126101215761045c610dd4565b6002546001600160a01b0316330361049d576001600160a01b0316808252600560205260408220541561048d575080f35b8152600560205242604082205580f35b60405162461bcd60e51b815260206004820152600d60248201526c37b7363c902b30bab63a243ab160991b6044820152606490fd5b503461012157806003193601126101215760065460405160089190911c6001600160401b03168152602090f35b50346101215780600319360112610121576001546040516001600160a01b039091168152602090f35b503461012157602036600319011261012157602061054c610547610dd4565b610edf565b6040519015158152f35b5034610121578060031936011261012157546040516001600160a01b039091168152602090f35b5034610121576020366003190112610121577fbc62e69a31739e36d57d56991ac20e4e507a7edfff9070e6a11df5a37b8b4e6f60206105ba610dd4565b6105c2610f13565b600180546001600160a01b0319166001600160a01b03929092169182179055604051908152a16106206040516105f9604082610e63565b60158152741c185b9a58d9dd585c9917db195919d95c97dcd95d605a1b6020820152610ff3565b80f35b5034610121576020366003190112610121577f15e04fee0c1335178e78e4dc6a8b0dcade867d1aea65418bf1200bc322ab7c216020610660610dd4565b610668610f13565b600280546001600160a01b0319166001600160a01b03929092169182179055604051908152a161062060405161069f604082610e63565b60128152711c185b9a58d9dd585c9917da1d5897dcd95d60721b6020820152610ff3565b5034610121576040366003190112610121576106dd610e17565b6106e5610e2d565b6106ed610f13565b6001600160401b03821691821580156107bd575b6107ae5760068054610100600160881b03191660089290921b610100600160481b031691909117604883901b600160481b600160881b0316179055604080519283526001600160401b0390911660208301527fcf26df94ed7b978941a80c18cdccc658ab2bf58d4402f04655ac929fccdabfb691a1610620604051610787604082610e63565b60158152741c185b9a58d9dd585c9917dc1bdb1a58de57dcd95d605a1b6020820152610ff3565b63d106fbb160e01b8452600484fd5b506001600160401b0382168311610701565b503461012157604036600319011261012157600435801515808203610956576024356001600160401b03811161031357610620926108327fe28c90465d6c78a7ad63ccb547b5bb8f0ae9bf4e9b2503c098c9a6ab5719347b923690600401610dea565b92909361083d610f13565b60ff196006541660ff8216176006556040519081526040602082015280610868604082018688610e43565b0390a1801561092a576108d860206108d3602d604051610889604082610e63565b600281526137b760f11b848201525b6040519384916c70616e69635f676c6f62616c5f60981b828401528051918291018484015e81018a838201520301601f198101835282610e63565b610ff3565b1561091e5760ff6109156001935b604051936108f5604086610e63565b600c85526b1c185b9a58d7d9db1bd8985b60a21b60208601523691610e9a565b92169030610f59565b60ff61091585936108e6565b6108d860206108d3602d604051610942604082610e63565b600381526237b33360e91b84820152610898565b8280fd5b503461012157602036600319011261012157610974610e17565b6002546001600160a01b03168015610c445790602060249260405193848092630709df4560e01b82523360048301525afa918215610c39578392610bf5575b506001600160a01b038216918215610bc55733845260046020526040842054620151808101809111610b6f574210610b83578284526005602052604084205480610b08575b5033845260046020524260408520556040805192610a168285610e63565b600a84526973656c665f70616e696360b01b60208501526006546001600160401b03600882901c81169083168111610b00575b5060481c6001600160401b039081169082168110610af8575b506001600160401b0390811642821601929083116102dc578486526003602052818620546001600160401b0393841693168311610a9d578580f35b846102d395875260036020528287208460018060401b03198254161790555f5160206110605f395f51905f5283518581526060602082015280610ae36060820189610f35565b6064878301520390a26102b182519283610e63565b90505f610a62565b91505f610a49565b610e108101809111610b6f574210610b20575f6109f8565b60405162461bcd60e51b815260206004820152602160248201527f5345433a207661756c7420746f6f206e657720666f722073656c662d70616e696044820152606360f81b6064820152608490fd5b634e487b7160e01b85526011600452602485fd5b60405162461bcd60e51b815260206004820152601a6024820152795345433a2070616e696320636f6f6c646f776e2061637469766560301b6044820152606490fd5b60405162461bcd60e51b81526020600482015260086024820152671b9bc81d985d5b1d60c21b6044820152606490fd5b9091506020813d602011610c31575b81610c1160209383610e63565b8101031261095657516001600160a01b038116810361095657905f6109b3565b3d9150610c04565b6040513d85823e3d90fd5b630f1ee1d360e41b8352600483fd5b5034610db5576040366003190112610db557610c6d610dd4565b6024356001600160401b038111610db557610c8f610d27913690600401610dea565b919092610c9a610f13565b60018060a01b031692835f52600360205260405f2060018060401b03198154169055837fc7b2fd602a9c1fd0bb21d74d2d04c9d817d5138a9f01f9317167e274fe5d93fc6040516020815280610cf4602082018887610e43565b0390a260405192610d06604085610e63565b600d84526c1c185b9a58d7d8db19585c9959609a1b60208501523691610e9a565b6001549092906001600160a01b031680610d3f578480f35b803b15610db5575f9283610d7a93610d9260405197889687958694630303c28760e61b86526004860152608060248601526084850190610f35565b90846044850152600319848303016064850152610f35565b03925af1610da2575b8080808480f35b610dae91505f90610e63565b5f5f610d9b565b5f80fd5b34610db5575f366003190112610db557806201518060209252f35b600435906001600160a01b0382168203610db557565b9181601f84011215610db5578235916001600160401b038311610db55760208381860195010111610db557565b600435906001600160401b0382168203610db557565b602435906001600160401b0382168203610db557565b908060209392818452848401375f828201840152601f01601f1916010190565b601f909101601f19168101906001600160401b03821190821017610e8657604052565b634e487b7160e01b5f52604160045260245ffd5b9192916001600160401b038211610e865760405191610ec3601f8201601f191660200184610e63565b829481845281830111610db5578281602093845f960137010152565b6001600160a01b03165f908152600360205260409020546001600160401b03168015159081610f0c575090565b9050421090565b5f546001600160a01b03163303610f2657565b63457cf6fd60e11b5f5260045ffd5b805180835260209291819084018484015e5f828201840152601f01601f1916010190565b60015490916001600160a01b039091169081610f77575b5050505050565b813b15610db5575f610fba93610fd1829660405198899788968795630303c28760e61b875260018060a01b03166004870152608060248701526084860190610f35565b916044850152600319848303016064850152610f35565b03925af1610fe3575b80808080610f70565b5f610fed91610e63565b5f610fda565b6001546001600160a01b031680611008575050565b803b15610db557604051633ddd61ab60e21b815230600482015260606024820152915f918391829084908290611042906064830190610f35565b33604483015203925af16110535750565b5f61105d91610e63565b56fe7226f8395c8b0511ad87c6d1f39c5c57f6d5d10a26d51fd0d0c233fc66f6e6a8a26469706673582212208cdd6ad5b9ad668ffee9a1d7e2d2695c207de7716dd613d13a39ad6c2743456264736f6c634300081e0033","linkReferences":{}},"methodIdentifiers":{"MIN_VAULT_AGE_FOR_PANIC()":"cd4e716f","SELF_PANIC_COOLDOWN()":"14c52d79","clear(address,string)":"1735739b","dao()":"4162169f","globalRisk()":"6b943da5","isQuarantined(address)":"485d6ef8","isRestricted(address)":"c01bc982","lastSelfPanic(address)":"aeafc645","ledger()":"56397c35","maxDuration()":"6db5c8fd","minDuration()":"56715761","quarantineUntil(address)":"9e059b20","registerVault(address)":"67ccd1cb","reportRisk(address,uint64,uint8,string)":"b18c3d36","selfPanic(uint64)":"19f11549","setGlobalRisk(bool,string)":"23db535b","setHub(address)":"31962cdc","setLedger(address)":"3246887d","setPolicy(uint64,uint64)":"31372da4","vaultCreationTime(address)":"a511a116","vaultHub()":"6dd6e80b"},"id":37}