{"abi":[{"type":"constructor","inputs":[{"name":"_dao","type":"address","internalType":"address"},{"name":"_guardianLock","type":"address","internalType":"address"},{"name":"_panicGuard","type":"address","internalType":"address"},{"name":"_breaker","type":"address","internalType":"address"},{"name":"_ledger","type":"address","internalType":"address"}],"stateMutability":"nonpayable"},{"type":"function","name":"breaker","inputs":[],"outputs":[{"name":"","type":"address","internalType":"contract EmergencyBreaker"}],"stateMutability":"view"},{"type":"function","name":"dao","inputs":[],"outputs":[{"name":"","type":"address","internalType":"address"}],"stateMutability":"view"},{"type":"function","name":"guardianLock","inputs":[],"outputs":[{"name":"","type":"address","internalType":"contract GuardianLock"}],"stateMutability":"view"},{"type":"function","name":"isLocked","inputs":[{"name":"vault","type":"address","internalType":"address"}],"outputs":[{"name":"","type":"bool","internalType":"bool"}],"stateMutability":"view"},{"type":"function","name":"ledger","inputs":[],"outputs":[{"name":"","type":"address","internalType":"contract IProofLedger"}],"stateMutability":"view"},{"type":"function","name":"panicGuard","inputs":[],"outputs":[{"name":"","type":"address","internalType":"contract PanicGuard"}],"stateMutability":"view"},{"type":"function","name":"setDAO","inputs":[{"name":"_dao","type":"address","internalType":"address"}],"outputs":[],"stateMutability":"nonpayable"},{"type":"function","name":"setModules","inputs":[{"name":"_guardianLock","type":"address","internalType":"address"},{"name":"_panicGuard","type":"address","internalType":"address"},{"name":"_breaker","type":"address","internalType":"address"},{"name":"_ledger","type":"address","internalType":"address"}],"outputs":[],"stateMutability":"nonpayable"},{"type":"event","name":"DAOSet","inputs":[{"name":"dao","type":"address","indexed":false,"internalType":"address"}],"anonymous":false},{"type":"event","name":"ModulesSet","inputs":[{"name":"guardianLock","type":"address","indexed":false,"internalType":"address"},{"name":"panicGuard","type":"address","indexed":false,"internalType":"address"},{"name":"breaker","type":"address","indexed":false,"internalType":"address"},{"name":"ledger","type":"address","indexed":false,"internalType":"address"}],"anonymous":false},{"type":"error","name":"SEC_NotDAO","inputs":[]},{"type":"error","name":"SEC_Zero","inputs":[]}],"bytecode":{"object":"0x60803461010157601f61072338819003918201601f19168301916001600160401b038311848410176101055780849260a0946040528339810103126101015761004781610119565b9061005460208201610119565b61006060408301610119565b90610079608061007260608601610119565b9401610119565b936001600160a01b031680156100f2575f80546001600160a01b03199081169290921790556001805482166001600160a01b03938416179055600280548216938316939093179092556003805483169382169390931790925560048054909116929091169190911790556040516105f5908161012e8239f35b630f1ee1d360e41b5f5260045ffd5b5f80fd5b634e487b7160e01b5f52604160045260245ffd5b51906001600160a01b03821682036101015756fe6080806040526004361015610012575f80fd5b5f3560e01c9081630f41e0d214610309575080634162169f146102e25780634a4fbeec146102b557806356397c351461028d5780638b0af3841461026557806397caceda1461023d578063b079fbff146101275763e73a914c14610074575f80fd5b346101235760203660031901126101235761008d61032c565b61009561051a565b6001600160a01b03168015610114575f80546001600160a01b031916821790556040519081527f8aad84fcad50e723fa3bcf0fb32c5bea4c71078b77b9aedfa638f146f3a3f7b990602090a16101126040516100f2604082610342565b600e81526d1cd958da1d5897d9185bd7dcd95d60921b602082015261053c565b005b630f1ee1d360e41b5f5260045ffd5b5f80fd5b346101235760803660031901126101235761014061032c565b6024356001600160a01b0381169190829003610123576044356001600160a01b0381169290839003610123576064356001600160a01b03811690819003610123577f2ad69807131f242e4c6b9e21338b8d7d7d5f32ab1dfaa1eddfa881c305c8f5e7936080936101ae61051a565b600180546001600160a01b03199081166001600160a01b039390931692831790915560028054821686179055600380548216841790556004805490911684179055604080519182526020820194909452928301526060820152a1610112604051610219604082610342565b60128152711cd958da1d5897db5bd91d5b195cd7dcd95d60721b602082015261053c565b34610123575f366003190112610123576002546040516001600160a01b039091168152602090f35b34610123575f366003190112610123576001546040516001600160a01b039091168152602090f35b34610123575f366003190112610123576004546040516001600160a01b039091168152602090f35b346101235760203660031901126101235760206102d86102d361032c565b610391565b6040519015158152f35b34610123575f366003190112610123575f546040516001600160a01b039091168152602090f35b34610123575f366003190112610123576003546001600160a01b03168152602090f35b600435906001600160a01b038216820361012357565b601f909101601f19168101906001600160401b0382119082101761036557604052565b634e487b7160e01b5f52604160045260245ffd5b90816020910312610123575180151581036101235790565b6003546001600160a01b031680151590816104cb575b50610467576001546001600160a01b0316801515908161046d575b50610467576002546001600160a01b031680151591826103ec575b50506103e7575f90565b600190565b60405163600de4c160e11b81526001600160a01b0390911660048201529150602090829060249082905afa90811561045c575f9161042d575b505f806103dd565b61044f915060203d602011610455575b6104478183610342565b810190610379565b5f610425565b503d61043d565b6040513d5f823e3d90fd5b50600190565b60405163cbf9fe5f60e01b81526001600160a01b03841660048201529150602090829060249082905afa90811561045c575f916104ac575b505f6103c2565b6104c5915060203d602011610455576104478183610342565b5f6104a5565b60405163b9b8af0b60e01b81529150602090829060049082905afa90811561045c575f916104fb575b505f6103a7565b610514915060203d602011610455576104478183610342565b5f6104f4565b5f546001600160a01b0316330361052d57565b63457cf6fd60e11b5f5260045ffd5b6004546001600160a01b031680610551575050565b803b156101235760205f9160849383604051958680958194633ddd61ab60e21b8352306004840152606060248401528051918291826064860152018484015e8181018301849052336044830152601f01601f191681010301925af16105b35750565b5f6105bd91610342565b56fea264697066735822122077304a08ff6b66a577534d59ab502b1889103031b6e26fa70f19b163a7a5fea964736f6c634300081e0033","linkReferences":{}},"methodIdentifiers":{"breaker()":"0f41e0d2","dao()":"4162169f","guardianLock()":"8b0af384","isLocked(address)":"4a4fbeec","ledger()":"56397c35","panicGuard()":"97caceda","setDAO(address)":"e73a914c","setModules(address,address,address,address)":"b079fbff"},"id":37}