{"abi":[{"type":"constructor","inputs":[{"name":"_dao","type":"address","internalType":"address"},{"name":"_guardianLock","type":"address","internalType":"address"},{"name":"_panicGuard","type":"address","internalType":"address"},{"name":"_breaker","type":"address","internalType":"address"},{"name":"_ledger","type":"address","internalType":"address"}],"stateMutability":"nonpayable"},{"type":"function","name":"breaker","inputs":[],"outputs":[{"name":"","type":"address","internalType":"contract EmergencyBreaker"}],"stateMutability":"view"},{"type":"function","name":"dao","inputs":[],"outputs":[{"name":"","type":"address","internalType":"address"}],"stateMutability":"view"},{"type":"function","name":"guardianLock","inputs":[],"outputs":[{"name":"","type":"address","internalType":"contract GuardianLock"}],"stateMutability":"view"},{"type":"function","name":"isLocked","inputs":[{"name":"vault","type":"address","internalType":"address"}],"outputs":[{"name":"","type":"bool","internalType":"bool"}],"stateMutability":"view"},{"type":"function","name":"ledger","inputs":[],"outputs":[{"name":"","type":"address","internalType":"contract IProofLedger"}],"stateMutability":"view"},{"type":"function","name":"panicGuard","inputs":[],"outputs":[{"name":"","type":"address","internalType":"contract PanicGuard"}],"stateMutability":"view"},{"type":"function","name":"setDAO","inputs":[{"name":"_dao","type":"address","internalType":"address"}],"outputs":[],"stateMutability":"nonpayable"},{"type":"function","name":"setModules","inputs":[{"name":"_guardianLock","type":"address","internalType":"address"},{"name":"_panicGuard","type":"address","internalType":"address"},{"name":"_breaker","type":"address","internalType":"address"},{"name":"_ledger","type":"address","internalType":"address"}],"outputs":[],"stateMutability":"nonpayable"},{"type":"event","name":"DAOSet","inputs":[{"name":"dao","type":"address","indexed":false,"internalType":"address"}],"anonymous":false},{"type":"event","name":"ModulesSet","inputs":[{"name":"guardianLock","type":"address","indexed":false,"internalType":"address"},{"name":"panicGuard","type":"address","indexed":false,"internalType":"address"},{"name":"breaker","type":"address","indexed":false,"internalType":"address"},{"name":"ledger","type":"address","indexed":false,"internalType":"address"}],"anonymous":false},{"type":"error","name":"SEC_NotDAO","inputs":[]},{"type":"error","name":"SEC_Zero","inputs":[]}],"bytecode":{"object":"0x60803461010157601f61073738819003918201601f19168301916001600160401b038311848410176101055780849260a0946040528339810103126101015761004781610119565b9061005460208201610119565b61006060408301610119565b90610079608061007260608601610119565b9401610119565b936001600160a01b031680156100f2575f80546001600160a01b03199081169290921790556001805482166001600160a01b0393841617905560028054821693831693909317909255600380548316938216939093179092556004805490911692909116919091179055604051610609908161012e8239f35b630f1ee1d360e41b5f5260045ffd5b5f80fd5b634e487b7160e01b5f52604160045260245ffd5b51906001600160a01b03821682036101015756fe6080806040526004361015610012575f80fd5b5f3560e01c9081630f41e0d21461031e575080634162169f146102f75780634a4fbeec146102ca57806356397c35146102a25780638b0af3841461027a57806397caceda14610252578063b079fbff146101275763e73a914c14610074575f80fd5b346101235760203660031901126101235761008d610341565b61009561052e565b6001600160a01b03168015610114576020817f8aad84fcad50e723fa3bcf0fb32c5bea4c71078b77b9aedfa638f146f3a3f7b9926001600160601b0360a01b5f5416175f55604051908152a16101126040516100f2604082610357565b600e81526d1cd958da1d5897d9185bd7dcd95d60921b6020820152610550565b005b630f1ee1d360e41b5f5260045ffd5b5f80fd5b3461012357608036600319011261012357610140610341565b6024356001600160a01b0381169190829003610123576044356001600160a01b0381169290839003610123576064356001600160a01b03811690819003610123577f2ad69807131f242e4c6b9e21338b8d7d7d5f32ab1dfaa1eddfa881c305c8f5e7936080936101ae61052e565b60018060a01b031692836001600160601b0360a01b6001541617600155806001600160601b0360a01b6002541617600255816001600160601b0360a01b6003541617600355826001600160601b0360a01b6004541617600455604051938452602084015260408301526060820152a161011260405161022e604082610357565b60128152711cd958da1d5897db5bd91d5b195cd7dcd95d60721b6020820152610550565b34610123575f366003190112610123576002546040516001600160a01b039091168152602090f35b34610123575f366003190112610123576001546040516001600160a01b039091168152602090f35b34610123575f366003190112610123576004546040516001600160a01b039091168152602090f35b346101235760203660031901126101235760206102ed6102e8610341565b6103a5565b6040519015158152f35b34610123575f366003190112610123575f546040516001600160a01b039091168152602090f35b34610123575f366003190112610123576003546001600160a01b03168152602090f35b600435906001600160a01b038216820361012357565b90601f8019910116810190811067ffffffffffffffff82111761037957604052565b634e487b7160e01b5f52604160045260245ffd5b90816020910312610123575180151581036101235790565b6003546001600160a01b031680151590816104df575b5061047b576001546001600160a01b03168015159081610481575b5061047b576002546001600160a01b03168015159182610400575b50506103fb575f90565b600190565b60405163600de4c160e11b81526001600160a01b0390911660048201529150602090829060249082905afa908115610470575f91610441575b505f806103f1565b610463915060203d602011610469575b61045b8183610357565b81019061038d565b5f610439565b503d610451565b6040513d5f823e3d90fd5b50600190565b60405163cbf9fe5f60e01b81526001600160a01b03841660048201529150602090829060249082905afa908115610470575f916104c0575b505f6103d6565b6104d9915060203d6020116104695761045b8183610357565b5f6104b9565b60405163b9b8af0b60e01b81529150602090829060049082905afa908115610470575f9161050f575b505f6103bb565b610528915060203d6020116104695761045b8183610357565b5f610508565b5f546001600160a01b0316330361054157565b63457cf6fd60e11b5f5260045ffd5b6004546001600160a01b031680610565575050565b803b156101235760205f9160849383604051958680958194633ddd61ab60e21b8352306004840152606060248401528051918291826064860152018484015e8181018301849052336044830152601f01601f191681010301925af16105c75750565b5f6105d191610357565b56fea26469706673582212209413edf34be6541c143eefb9592df36501abd525030c29671ac5dd5439fbd34a64736f6c634300081e0033","linkReferences":{}},"methodIdentifiers":{"breaker()":"0f41e0d2","dao()":"4162169f","guardianLock()":"8b0af384","isLocked(address)":"4a4fbeec","ledger()":"56397c35","panicGuard()":"97caceda","setDAO(address)":"e73a914c","setModules(address,address,address,address)":"b079fbff"},"id":34}