{
  "_format": "hh-sol-artifact-1",
  "contractName": "MockERC20",
  "sourceName": "contracts/mocks/MockERC20.sol",
  "abi": [
    {
      "inputs": [
        {
          "internalType": "address",
          "name": "",
          "type": "address"
        },
        {
          "internalType": "address",
          "name": "",
          "type": "address"
        }
      ],
      "name": "allowance",
      "outputs": [
        {
          "internalType": "uint256",
          "name": "",
          "type": "uint256"
        }
      ],
      "stateMutability": "view",
      "type": "function"
    },
    {
      "inputs": [
        {
          "internalType": "address",
          "name": "spender",
          "type": "address"
        },
        {
          "internalType": "uint256",
          "name": "amount",
          "type": "uint256"
        }
      ],
      "name": "approve",
      "outputs": [
        {
          "internalType": "bool",
          "name": "",
          "type": "bool"
        }
      ],
      "stateMutability": "nonpayable",
      "type": "function"
    },
    {
      "inputs": [
        {
          "internalType": "address",
          "name": "",
          "type": "address"
        }
      ],
      "name": "balanceOf",
      "outputs": [
        {
          "internalType": "uint256",
          "name": "",
          "type": "uint256"
        }
      ],
      "stateMutability": "view",
      "type": "function"
    },
    {
      "inputs": [
        {
          "internalType": "address",
          "name": "from",
          "type": "address"
        },
        {
          "internalType": "uint256",
          "name": "amount",
          "type": "uint256"
        }
      ],
      "name": "burn",
      "outputs": [],
      "stateMutability": "nonpayable",
      "type": "function"
    },
    {
      "inputs": [
        {
          "internalType": "address",
          "name": "to",
          "type": "address"
        },
        {
          "internalType": "uint256",
          "name": "amount",
          "type": "uint256"
        }
      ],
      "name": "mint",
      "outputs": [],
      "stateMutability": "nonpayable",
      "type": "function"
    },
    {
      "inputs": [
        {
          "internalType": "address",
          "name": "to",
          "type": "address"
        },
        {
          "internalType": "uint256",
          "name": "amount",
          "type": "uint256"
        }
      ],
      "name": "transfer",
      "outputs": [
        {
          "internalType": "bool",
          "name": "",
          "type": "bool"
        }
      ],
      "stateMutability": "nonpayable",
      "type": "function"
    },
    {
      "inputs": [
        {
          "internalType": "address",
          "name": "from",
          "type": "address"
        },
        {
          "internalType": "address",
          "name": "to",
          "type": "address"
        },
        {
          "internalType": "uint256",
          "name": "amount",
          "type": "uint256"
        }
      ],
      "name": "transferFrom",
      "outputs": [
        {
          "internalType": "bool",
          "name": "",
          "type": "bool"
        }
      ],
      "stateMutability": "nonpayable",
      "type": "function"
    }
  ],
  "bytecode": "0x6080806040523460155761032b908161001b8239f35b600080fdfe6080604052600436101561001257600080fd5b60003560e01c8063095ea7b31461024e57806323b872dd146101da57806340c10f191461019e57806370a08231146101645780639dc29fac14610124578063a9059cbb146100bf5763dd62ed3e1461006957600080fd5b346100ba5760403660031901126100ba57610082610299565b61008a6102af565b6001600160a01b039182166000908152600160209081526040808320949093168252928352819020549051908152f35b600080fd5b346100ba5760403660031901126100ba576100d8610299565b6024359033600052600060205260406000206100f58382546102c5565b905560018060a01b0316600052600060205261011760406000209182546102e8565b9055602060405160018152f35b346100ba5760403660031901126100ba576001600160a01b03610145610299565b166000526000602052604060002061016060243582546102c5565b9055005b346100ba5760203660031901126100ba576001600160a01b03610185610299565b1660005260006020526020604060002054604051908152f35b346100ba5760403660031901126100ba576001600160a01b036101bf610299565b166000526000602052604060002061016060243582546102e8565b346100ba5760603660031901126100ba576101f3610299565b6101fb6102af565b6044359160018060a01b0316806000526001602052604060002060018060a01b03331660005260205260406000206102348482546102c5565b9055600052600060205260406000206100f58382546102c5565b346100ba5760403660031901126100ba57610267610299565b33600052600160205260406000209060018060a01b031660005260205260406000206024359055602060405160018152f35b600435906001600160a01b03821682036100ba57565b602435906001600160a01b03821682036100ba57565b919082039182116102d257565b634e487b7160e01b600052601160045260246000fd5b919082018092116102d25756fea264697066735822122041437db6b02ab719cf688849f8f05f151708e779a5e99eaf5b55d11d485b0a1864736f6c634300081e0033",
  "linkReferences": {},
  "deployedLinkReferences": {}
}