{"abi":[{"type":"constructor","inputs":[{"name":"_dao","type":"address","internalType":"address"}],"stateMutability":"nonpayable"},{"type":"function","name":"cancelStream","inputs":[{"name":"streamId","type":"uint256","internalType":"uint256"}],"outputs":[],"stateMutability":"nonpayable"},{"type":"function","name":"claimable","inputs":[{"name":"streamId","type":"uint256","internalType":"uint256"}],"outputs":[{"name":"","type":"uint256","internalType":"uint256"}],"stateMutability":"view"},{"type":"function","name":"createStream","inputs":[{"name":"payee","type":"address","internalType":"address"},{"name":"token","type":"address","internalType":"address"},{"name":"rate","type":"uint256","internalType":"uint256"},{"name":"initialDeposit","type":"uint256","internalType":"uint256"}],"outputs":[{"name":"","type":"uint256","internalType":"uint256"}],"stateMutability":"nonpayable"},{"type":"function","name":"dao","inputs":[],"outputs":[{"name":"","type":"address","internalType":"address"}],"stateMutability":"view"},{"type":"function","name":"emergencyWithdraw","inputs":[{"name":"streamId","type":"uint256","internalType":"uint256"},{"name":"to","type":"address","internalType":"address"}],"outputs":[],"stateMutability":"nonpayable"},{"type":"function","name":"estimateEndTime","inputs":[{"name":"streamId","type":"uint256","internalType":"uint256"}],"outputs":[{"name":"","type":"uint256","internalType":"uint256"}],"stateMutability":"view"},{"type":"function","name":"getPayeeStreams","inputs":[{"name":"payee","type":"address","internalType":"address"}],"outputs":[{"name":"","type":"uint256[]","internalType":"uint256[]"}],"stateMutability":"view"},{"type":"function","name":"getPayerStreams","inputs":[{"name":"payer","type":"address","internalType":"address"}],"outputs":[{"name":"","type":"uint256[]","internalType":"uint256[]"}],"stateMutability":"view"},{"type":"function","name":"getStream","inputs":[{"name":"streamId","type":"uint256","internalType":"uint256"}],"outputs":[{"name":"","type":"tuple","internalType":"struct PayrollManager.Stream","components":[{"name":"payer","type":"address","internalType":"address"},{"name":"payee","type":"address","internalType":"address"},{"name":"token","type":"address","internalType":"address"},{"name":"ratePerSecond","type":"uint256","internalType":"uint256"},{"name":"startTime","type":"uint256","internalType":"uint256"},{"name":"lastWithdrawTime","type":"uint256","internalType":"uint256"},{"name":"depositBalance","type":"uint256","internalType":"uint256"},{"name":"active","type":"bool","internalType":"bool"},{"name":"paused","type":"bool","internalType":"bool"},{"name":"pausedAt","type":"uint256","internalType":"uint256"},{"name":"pausedAccrued","type":"uint256","internalType":"uint256"}]}],"stateMutability":"view"},{"type":"function","name":"getStreamStatus","inputs":[{"name":"streamId","type":"uint256","internalType":"uint256"}],"outputs":[{"name":"active","type":"bool","internalType":"bool"},{"name":"paused","type":"bool","internalType":"bool"},{"name":"currentClaimable","type":"uint256","internalType":"uint256"},{"name":"remainingBalance","type":"uint256","internalType":"uint256"},{"name":"ratePerSecond","type":"uint256","internalType":"uint256"},{"name":"runwaySeconds","type":"uint256","internalType":"uint256"}],"stateMutability":"view"},{"type":"function","name":"getStreamsBatch","inputs":[{"name":"streamIds","type":"uint256[]","internalType":"uint256[]"}],"outputs":[{"name":"results","type":"tuple[]","internalType":"struct PayrollManager.Stream[]","components":[{"name":"payer","type":"address","internalType":"address"},{"name":"payee","type":"address","internalType":"address"},{"name":"token","type":"address","internalType":"address"},{"name":"ratePerSecond","type":"uint256","internalType":"uint256"},{"name":"startTime","type":"uint256","internalType":"uint256"},{"name":"lastWithdrawTime","type":"uint256","internalType":"uint256"},{"name":"depositBalance","type":"uint256","internalType":"uint256"},{"name":"active","type":"bool","internalType":"bool"},{"name":"paused","type":"bool","internalType":"bool"},{"name":"pausedAt","type":"uint256","internalType":"uint256"},{"name":"pausedAccrued","type":"uint256","internalType":"uint256"}]}],"stateMutability":"view"},{"type":"function","name":"getTotalEarnings","inputs":[{"name":"payee","type":"address","internalType":"address"}],"outputs":[{"name":"activeStreamCount","type":"uint256","internalType":"uint256"},{"name":"totalRatePerSecond","type":"uint256","internalType":"uint256"},{"name":"totalClaimable","type":"uint256","internalType":"uint256"}],"stateMutability":"view"},{"type":"function","name":"getTotalObligations","inputs":[{"name":"payer","type":"address","internalType":"address"}],"outputs":[{"name":"activeStreamCount","type":"uint256","internalType":"uint256"},{"name":"totalRatePerSecond","type":"uint256","internalType":"uint256"},{"name":"totalDeposited","type":"uint256","internalType":"uint256"},{"name":"totalClaimable","type":"uint256","internalType":"uint256"}],"stateMutability":"view"},{"type":"function","name":"nextStreamId","inputs":[],"outputs":[{"name":"","type":"uint256","internalType":"uint256"}],"stateMutability":"view"},{"type":"function","name":"pauseStream","inputs":[{"name":"streamId","type":"uint256","internalType":"uint256"}],"outputs":[],"stateMutability":"nonpayable"},{"type":"function","name":"resumeStream","inputs":[{"name":"streamId","type":"uint256","internalType":"uint256"}],"outputs":[],"stateMutability":"nonpayable"},{"type":"function","name":"setDAO","inputs":[{"name":"_dao","type":"address","internalType":"address"}],"outputs":[],"stateMutability":"nonpayable"},{"type":"function","name":"setRate","inputs":[{"name":"streamId","type":"uint256","internalType":"uint256"},{"name":"newRate","type":"uint256","internalType":"uint256"}],"outputs":[],"stateMutability":"nonpayable"},{"type":"function","name":"streams","inputs":[{"name":"","type":"uint256","internalType":"uint256"}],"outputs":[{"name":"payer","type":"address","internalType":"address"},{"name":"payee","type":"address","internalType":"address"},{"name":"token","type":"address","internalType":"address"},{"name":"ratePerSecond","type":"uint256","internalType":"uint256"},{"name":"startTime","type":"uint256","internalType":"uint256"},{"name":"lastWithdrawTime","type":"uint256","internalType":"uint256"},{"name":"depositBalance","type":"uint256","internalType":"uint256"},{"name":"active","type":"bool","internalType":"bool"},{"name":"paused","type":"bool","internalType":"bool"},{"name":"pausedAt","type":"uint256","internalType":"uint256"},{"name":"pausedAccrued","type":"uint256","internalType":"uint256"}],"stateMutability":"view"},{"type":"function","name":"topUp","inputs":[{"name":"streamId","type":"uint256","internalType":"uint256"},{"name":"amount","type":"uint256","internalType":"uint256"}],"outputs":[],"stateMutability":"nonpayable"},{"type":"function","name":"updatePayee","inputs":[{"name":"streamId","type":"uint256","internalType":"uint256"},{"name":"newPayee","type":"address","internalType":"address"}],"outputs":[],"stateMutability":"nonpayable"},{"type":"function","name":"withdraw","inputs":[{"name":"streamId","type":"uint256","internalType":"uint256"}],"outputs":[],"stateMutability":"nonpayable"},{"type":"event","name":"EmergencyWithdraw","inputs":[{"name":"streamId","type":"uint256","indexed":true,"internalType":"uint256"},{"name":"to","type":"address","indexed":true,"internalType":"address"},{"name":"amount","type":"uint256","indexed":false,"internalType":"uint256"}],"anonymous":false},{"type":"event","name":"PayeeUpdated","inputs":[{"name":"streamId","type":"uint256","indexed":true,"internalType":"uint256"},{"name":"oldPayee","type":"address","indexed":true,"internalType":"address"},{"name":"newPayee","type":"address","indexed":true,"internalType":"address"}],"anonymous":false},{"type":"event","name":"RateModified","inputs":[{"name":"streamId","type":"uint256","indexed":true,"internalType":"uint256"},{"name":"oldRate","type":"uint256","indexed":false,"internalType":"uint256"},{"name":"newRate","type":"uint256","indexed":false,"internalType":"uint256"}],"anonymous":false},{"type":"event","name":"StreamCancelled","inputs":[{"name":"streamId","type":"uint256","indexed":true,"internalType":"uint256"}],"anonymous":false},{"type":"event","name":"StreamCreated","inputs":[{"name":"streamId","type":"uint256","indexed":true,"internalType":"uint256"},{"name":"payer","type":"address","indexed":true,"internalType":"address"},{"name":"payee","type":"address","indexed":true,"internalType":"address"},{"name":"rate","type":"uint256","indexed":false,"internalType":"uint256"}],"anonymous":false},{"type":"event","name":"StreamPaused","inputs":[{"name":"streamId","type":"uint256","indexed":true,"internalType":"uint256"},{"name":"pausedBy","type":"address","indexed":true,"internalType":"address"}],"anonymous":false},{"type":"event","name":"StreamResumed","inputs":[{"name":"streamId","type":"uint256","indexed":true,"internalType":"uint256"},{"name":"resumedBy","type":"address","indexed":true,"internalType":"address"}],"anonymous":false},{"type":"event","name":"TopUp","inputs":[{"name":"streamId","type":"uint256","indexed":true,"internalType":"uint256"},{"name":"amount","type":"uint256","indexed":false,"internalType":"uint256"}],"anonymous":false},{"type":"event","name":"Withdraw","inputs":[{"name":"streamId","type":"uint256","indexed":true,"internalType":"uint256"},{"name":"payee","type":"address","indexed":true,"internalType":"address"},{"name":"amount","type":"uint256","indexed":false,"internalType":"uint256"}],"anonymous":false},{"type":"error","name":"PM_InvalidDeposit","inputs":[]},{"type":"error","name":"PM_InvalidPayee","inputs":[]},{"type":"error","name":"PM_InvalidRate","inputs":[]},{"type":"error","name":"PM_NotAuthorized","inputs":[]},{"type":"error","name":"PM_NotPayee","inputs":[]},{"type":"error","name":"PM_NotPayer","inputs":[]},{"type":"error","name":"PM_NothingDue","inputs":[]},{"type":"error","name":"PM_StreamInactive","inputs":[]},{"type":"error","name":"PM_StreamNotPaused","inputs":[]},{"type":"error","name":"PM_StreamPaused","inputs":[]}],"bytecode":{"object":"0x608034607557601f61197338819003918201601f19168301916001600160401b03831184841017607957808492602094604052833981010312607557516001600160a01b0381169081900360755760015f55600160025560018060a01b031960035416176003556040516118e5908161008e8239f35b5f80fd5b634e487b7160e01b5f52604160045260245ffdfe60806040526004361015610011575f80fd5b5f3560e01c8063117a7a45146111c65780631e99d569146111a95780632e1a7d4d1461109d5780632f940c7014610f705780634162169f14610f4857806346df2ccb14610e185780635588eabe14610da65780636438f89c14610c8957806364d60d9114610bd0578063668148ea14610b4e5780636db9241b14610a30578063746ff13d146109705780638307ccf314610952578063894e9a0d146108865780638f62447014610802578063b61b6ce214610593578063be47a9ee14610448578063d1d58b2514610422578063de643a711461030f578063e73a914c1461028a578063ea6be166146101db5763fb6a984e1461010b575f80fd5b346101d75760203660031901126101d757600435805f52600160205260405f20600781019081549060ff8216156101c85760ff8260081c16156101b95780546001600160a01b0316331415806101a4575b6101955760054291015561ff001916905533907f0dbfa51df8b0b3b2d196641ff6e01b8ad3a3bfea169bbd41f321c0391a3e89735f80a3005b632bb02ac160e11b5f5260045ffd5b506003546001600160a01b031633141561015c565b63582590d160e01b5f5260045ffd5b6339e9120560e01b5f5260045ffd5b5f80fd5b346101d75760403660031901126101d7576004356101f7611405565b815f52600160205260405f2060ff600782015416156101c8576001019160018060a01b038354169182330361027b576001600160a01b031692831561026c5780546001600160a01b031916841790557fe9d9a28672a33f2da4e22d235fddf12a83aed52873ddfb504cdc21b498cdb4005f80a4005b63562e8b3d60e01b5f5260045ffd5b63108d649d60e01b5f5260045ffd5b346101d75760203660031901126101d7576102a361141b565b600354906102bb336001600160a01b03841614611585565b6001600160a01b03169081156102db576001600160a01b03191617600355005b60405162461bcd60e51b815260206004820152600c60248201526b504d3a207a65726f2044414f60a01b6044820152606490fd5b346101d75761031d36611431565b815f52600160205260405f209060ff600783015416156101c85781546001600160a01b031633036104135760028201546040516323b872dd60e01b8152336004820152306024820152604481018390529190602090839060649082905f906001600160a01b03165af18015610408577f9580ef1bd2c88526f7c878185e323d2bef5d3f0f9471577f3e3a2bfdb87763ef936103c46006926020955f916103db575b5061169d565b016103d08282546115cd565b9055604051908152a2005b6103fb9150863d8811610401575b6103f381836114b1565b810190611685565b886103be565b503d6103e9565b6040513d5f823e3d90fd5b637a03df0760e11b5f5260045ffd5b346101d75760203660031901126101d7576020610440600435611707565b604051908152f35b346101d75760203660031901126101d75761046161141b565b5f5f915f905f9060018060a01b03165f52600460205260405f2092604051808560208297549384815201905f5260205f20925f5b81811061057a5750506104aa925003856114b1565b5f5b845181101561055d576104bf818661153c565b515f52600160205260405f2060078101549060ff82166104e4575b50506001016104ac565b90926104f560ff91969395966115bf565b9360081c1615610536575b610514600192600661052e930154906115cd565b94610528610522868961153c565b51611707565b906115cd565b9290876104da565b95610514600192600661055161052e9460038c0154906115cd565b99935050925050610500565b509060809285604051938452602084015260408301526060820152f35b8454835260019485019489945060209093019201610495565b346101d75760803660031901126101d7576105ac61141b565b6105b4611405565b60643591604435916001600160a01b0390911690811561026c5782156107f45783156107e5576040516323b872dd60e01b815233600482015230602482015260448101859052936001600160a01b039190911692906020856064815f885af19485156104085760209561062d915f916107c8575061169d565b6009600254809561063d826115bf565b6002556040519361064d85611480565b338552888501918783526040860190815260608601918783526080870142815260a088019042825260c0890192835260e0890194600186526101008a01945f86526101208b01975f89526101408c01995f8b525f528f6001905260405f209b60018060a01b039060018060a01b03905116166001600160601b0360a01b8d5416178c5560018060a01b0390511660018c019060018060a01b03166001600160601b0360a01b82541617905560018060a01b0390511660028b019060018060a01b03166001600160601b0360a01b8254161790555160038a0155516004890155516005880155516006870155600786019151151560ff8019845416911617825551151561ff0082549160081b169061ff00191617905551600884015551910155335f52600484526107808360405f206116db565b815f52600584526107948360405f206116db565b604051908152827f4396d7c3edc1447dac8dd2b7143af95840c926a210524a0d3198012c7fdf37c7853393a4604051908152f35b6107df9150873d8911610401576103f381836114b1565b876103be565b63ab02e66360e01b5f5260045ffd5b624ec27160e71b5f5260045ffd5b346101d75760203660031901126101d75760c0600435805f52600160205260405f20610832600782015492611707565b60068201546003909201549091811561087f5761084f82826115da565b925b60ff604051958181161515875260081c161515602086015260408501526060840152608083015260a0820152f35b5f92610851565b346101d75760203660031901126101d75761089f6114eb565b506004355f52600160205261016060405f206009604051916108c083611480565b80546001600160a01b0390811684526001820154811660208501526002820154166040808501919091526003820154606085015260048201546080850152600582015460a0850152600682015460c0850152600782015460ff818116151560e0870152600891821c161515610100860152820154610120850152910154610140830152519061095090829061137b565bf35b346101d75760203660031901126101d75760206104406004356115f8565b346101d75760203660031901126101d757600435805f52600160205260405f2060078101805460ff8116156101c85760ff8160081c16610a215782546001600160a01b031633141580610a0a575b61019557610100906109cf85611707565b600985015561ff00191617905560084291015533907fff71f52d9d3ad4ae0959691a14ef1d1478d482ca10ac8be29c8e7d88cf3baba65f80a3005b5060018301546001600160a01b03163314156109be565b632bd7def960e01b5f5260045ffd5b346101d75760203660031901126101d757600435610a4c611779565b805f52600160205260405f2060018060a01b0381541633141580610b37575b61019557600781019060ff825416156101c857610a8783611707565b80610afa575b50600681019081549081610ad1575b50505060ff1981541690557f75b8c91e46f219f2164d6bce576e7cebd2d3ff8749726009fcafdf04e2e1eb7b5f80a260015f55005b5f90925560028201549154610af2926001600160a01b0391821691166117ba565b828080610a9c565b610b319060068301610b0d828254611564565b90555f6009840155600283015460018401546001600160a01b0390811691166117ba565b83610a8d565b5060018101546001600160a01b0316331415610a6b565b346101d75760203660031901126101d7576001600160a01b03610b6f61141b565b165f52600460205260405f206040519081602082549182815201915f5260205f20905f5b818110610bba57610bb685610baa818703826114b1565b60405191829182611447565b0390f35b8254845260209093019260019283019201610b93565b346101d75760203660031901126101d7576004355f52600160205261016060405f2060018060a01b038154169060018060a01b036001820154169060ff60018060a01b036002830154166003830154600484015460058501549060068601549260078701549460096008890154980154986040519a8b5260208b015260408a01526060890152608088015260a087015260c0860152818116151560e086015260081c161515610100840152610120830152610140820152f35b346101d75760203660031901126101d757610ca261141b565b5f5f5f9260018060a01b03165f52600560205260405f2092604051808560208297549384815201905f5260205f20925f5b818110610d8d575050610ce8925003856114b1565b5f5b8451811015610d7657610cfd818661153c565b515f52600160205260405f2060078101549060ff8216610d22575b5050600101610cea565b9094610d3260ff919493946115bf565b9560081c1615610d59575b50610d51600191610528610522858961153c565b919086610d18565b610d6e600192946003610d51930154906115cd565b939150610d3d565b506060929160405192835260208301526040820152f35b8454835260019485019489945060209093019201610cd3565b346101d75760203660031901126101d7576001600160a01b03610dc761141b565b165f52600560205260405f206040519081602082549182815201915f5260205f20905f5b818110610e0257610bb685610baa818703826114b1565b8254845260209093019260019283019201610deb565b346101d757610e2636611431565b815f52600160205260405f2060078101549160ff8316156101c85781546001600160a01b031633036104135780156107f45760036040927f5ff336526ec3daccf85a7032a5367977be366164c16254f032cb3a0f5d3c27d194610e8887611707565b908115159081610f39575b50610eae575b500190808254925582519182526020820152a2005b600682018054808311610f31575b82610ec691611564565b9055426005830155600282015460018301805489927f9da6493a92039daf47d1f2d7a782299c5994c6323eb1e972f69c432089ec52bf926020929091610f1a9187916001600160a01b0391821691166117ba565b5488519485526001600160a01b031693a386610e99565b915081610ebc565b60ff915060081c161588610e93565b346101d7575f3660031901126101d7576003546040516001600160a01b039091168152602090f35b346101d75760403660031901126101d757600435610f8c611405565b90610fa260018060a01b03600354163314611585565b805f52600160205260405f20600781019283549160ff831615611062576001600160a01b03821694851561102a576006820180545f90915560ff199094169055600201547f947a9dc0c5e62cc9756634ec0a89afea37eb0305933925040b9bda82004400209260209290916110219183916001600160a01b03166117ba565b604051908152a3005b60405162461bcd60e51b815260206004820152601060248201526f504d3a207a65726f206164647265737360801b6044820152606490fd5b60405162461bcd60e51b8152602060048201526013602482015272504d3a2073747265616d20696e61637469766560681b6044820152606490fd5b346101d75760203660031901126101d7576004356110b9611779565b805f52600160205260405f209060078201549160ff8316156101c8576110de82611707565b92831561119a57600682018054808611611192575b6020927f9da6493a92039daf47d1f2d7a782299c5994c6323eb1e972f69c432089ec52bf94926111258860ff94611564565b905542600584015560081c1680611185575b61117a575b60028101546001909101805490916111629187916001600160a01b0391821691166117ba565b546040519485526001600160a01b031693a360015f55005b5f600982015561113c565b5060098101541515611137565b9450846110f3565b63de82509360e01b5f5260045ffd5b346101d7575f3660031901126101d7576020600254604051908152f35b346101d75760203660031901126101d75760043567ffffffffffffffff81116101d757366023820112156101d757806004013567ffffffffffffffff81116101d7573660248260051b840101116101d757611220816114d3565b9161122e60405193846114b1565b818352601f1961123d836114d3565b015f5b8181106113645750505f5b828110156113135760019060248160051b840101355f528160205260405f2060096040519161127983611480565b805460a086811b87900391821685528287015482166020860152600283015490911660408501526003820154606085015260048201546080850152600582015490840152600681015460c0840152600781015460ff818116151560e0860152600891821c1615156101008501528101546101208401520154610140820152611301828761153c565b5261130c818661153c565b500161124b565b836040518091602082016020835281518091526020604084019201905f5b81811061133f575050500390f35b91935091602061016082611356600194885161137b565b019401910191849392611331565b60209061136f6114eb565b82828801015201611240565b610140809160018060a01b03815116845260018060a01b03602082015116602085015260018060a01b036040820151166040850152606081015160608501526080810151608085015260a081015160a085015260c081015160c085015260e0810151151560e085015261010081015115156101008501526101208101516101208501520151910152565b602435906001600160a01b03821682036101d757565b600435906001600160a01b03821682036101d757565b60409060031901126101d7576004359060243590565b60206040818301928281528451809452019201905f5b81811061146a5750505090565b825184526020938401939092019160010161145d565b610160810190811067ffffffffffffffff82111761149d57604052565b634e487b7160e01b5f52604160045260245ffd5b90601f8019910116810190811067ffffffffffffffff82111761149d57604052565b67ffffffffffffffff811161149d5760051b60200190565b604051906114f882611480565b5f610140838281528260208201528260408201528260608201528260808201528260a08201528260c08201528260e082015282610100820152826101208201520152565b80518210156115505760209160051b010190565b634e487b7160e01b5f52603260045260245ffd5b9190820391821161157157565b634e487b7160e01b5f52601160045260245ffd5b1561158c57565b60405162461bcd60e51b815260206004820152600b60248201526a504d3a206e6f742044414f60a81b6044820152606490fd5b5f1981146115715760010190565b9190820180921161157157565b81156115e4570490565b634e487b7160e01b5f52601260045260245ffd5b805f52600160205260405f2090600782015460ff811615908115611677575b50801561166b575b61166557611631600683015491611707565b918183101561165e57600361164c61165b9461165594611564565b910154906115da565b426115cd565b90565b5050504290565b50505f90565b5060038201541561161f565b60ff915060081c165f611617565b908160209103126101d7575180151581036101d75790565b156116a457565b60405162461bcd60e51b815260206004820152600f60248201526e1d1c985b9cd9995c8819985a5b1959608a1b6044820152606490fd5b8054906801000000000000000082101561149d5760018201808255821015611550575f5260205f200155565b5f52600160205260405f20600781015460ff8116156116655760081c60ff1661177257611738600582015442611564565b6003820154908181029181830414901517156115715761175f6006916009840154906115cd565b91015480821161176d575090565b905090565b6009015490565b60015f54036117885760025f55565b60405162461bcd60e51b815260206004820152600a6024820152697265656e7472616e637960b01b6044820152606490fd5b5f929183809360405190602082019363a9059cbb60e01b855260018060a01b031660248301526044820152604481526117f46064826114b1565b51925af13d156118a8573d67ffffffffffffffff811161149d5760405190611826601f8201601f1916602001836114b1565b81523d5f602083013e5b81611879575b501561183e57565b60405162461bcd60e51b815260206004820152601360248201527214134e881d1c985b9cd9995c8819985a5b1959606a1b6044820152606490fd5b805180159250821561188e575b50505f611836565b6118a19250602080918301019101611685565b5f80611886565b606061183056fea26469706673582212205327f586e053dd08c36bd901844732193686fdaae4af33d84dbedd5fc40a714064736f6c634300081e0033","linkReferences":{}},"methodIdentifiers":{"cancelStream(uint256)":"6db9241b","claimable(uint256)":"d1d58b25","createStream(address,address,uint256,uint256)":"b61b6ce2","dao()":"4162169f","emergencyWithdraw(uint256,address)":"2f940c70","estimateEndTime(uint256)":"8307ccf3","getPayeeStreams(address)":"5588eabe","getPayerStreams(address)":"668148ea","getStream(uint256)":"894e9a0d","getStreamStatus(uint256)":"8f624470","getStreamsBatch(uint256[])":"117a7a45","getTotalEarnings(address)":"6438f89c","getTotalObligations(address)":"be47a9ee","nextStreamId()":"1e99d569","pauseStream(uint256)":"746ff13d","resumeStream(uint256)":"fb6a984e","setDAO(address)":"e73a914c","setRate(uint256,uint256)":"46df2ccb","streams(uint256)":"64d60d91","topUp(uint256,uint256)":"de643a71","updatePayee(uint256,address)":"ea6be166","withdraw(uint256)":"2e1a7d4d"},"id":18}