{"abi":[{"type":"constructor","inputs":[{"name":"_dao","type":"address","internalType":"address"},{"name":"_seer","type":"address","internalType":"address"}],"stateMutability":"nonpayable"},{"type":"function","name":"PAYROLL_CREATE_REWARD","inputs":[],"outputs":[{"name":"","type":"uint16","internalType":"uint16"}],"stateMutability":"view"},{"type":"function","name":"PAYROLL_WITHDRAW_REWARD","inputs":[],"outputs":[{"name":"","type":"uint16","internalType":"uint16"}],"stateMutability":"view"},{"type":"function","name":"cancelStream","inputs":[{"name":"streamId","type":"uint256","internalType":"uint256"}],"outputs":[],"stateMutability":"nonpayable"},{"type":"function","name":"claimable","inputs":[{"name":"streamId","type":"uint256","internalType":"uint256"}],"outputs":[{"name":"","type":"uint256","internalType":"uint256"}],"stateMutability":"view"},{"type":"function","name":"createStream","inputs":[{"name":"payee","type":"address","internalType":"address"},{"name":"token","type":"address","internalType":"address"},{"name":"rate","type":"uint256","internalType":"uint256"},{"name":"initialDeposit","type":"uint256","internalType":"uint256"}],"outputs":[{"name":"","type":"uint256","internalType":"uint256"}],"stateMutability":"nonpayable"},{"type":"function","name":"dao","inputs":[],"outputs":[{"name":"","type":"address","internalType":"address"}],"stateMutability":"view"},{"type":"function","name":"emergencyWithdraw","inputs":[{"name":"streamId","type":"uint256","internalType":"uint256"},{"name":"to","type":"address","internalType":"address"}],"outputs":[],"stateMutability":"nonpayable"},{"type":"function","name":"estimateEndTime","inputs":[{"name":"streamId","type":"uint256","internalType":"uint256"}],"outputs":[{"name":"","type":"uint256","internalType":"uint256"}],"stateMutability":"view"},{"type":"function","name":"getPayeeStreams","inputs":[{"name":"payee","type":"address","internalType":"address"}],"outputs":[{"name":"","type":"uint256[]","internalType":"uint256[]"}],"stateMutability":"view"},{"type":"function","name":"getPayerStreams","inputs":[{"name":"payer","type":"address","internalType":"address"}],"outputs":[{"name":"","type":"uint256[]","internalType":"uint256[]"}],"stateMutability":"view"},{"type":"function","name":"getStream","inputs":[{"name":"streamId","type":"uint256","internalType":"uint256"}],"outputs":[{"name":"","type":"tuple","internalType":"struct PayrollManager.Stream","components":[{"name":"payer","type":"address","internalType":"address"},{"name":"payee","type":"address","internalType":"address"},{"name":"token","type":"address","internalType":"address"},{"name":"ratePerSecond","type":"uint256","internalType":"uint256"},{"name":"startTime","type":"uint256","internalType":"uint256"},{"name":"lastWithdrawTime","type":"uint256","internalType":"uint256"},{"name":"depositBalance","type":"uint256","internalType":"uint256"},{"name":"active","type":"bool","internalType":"bool"},{"name":"paused","type":"bool","internalType":"bool"},{"name":"pausedAt","type":"uint256","internalType":"uint256"},{"name":"pausedAccrued","type":"uint256","internalType":"uint256"}]}],"stateMutability":"view"},{"type":"function","name":"getStreamStatus","inputs":[{"name":"streamId","type":"uint256","internalType":"uint256"}],"outputs":[{"name":"active","type":"bool","internalType":"bool"},{"name":"paused","type":"bool","internalType":"bool"},{"name":"currentClaimable","type":"uint256","internalType":"uint256"},{"name":"remainingBalance","type":"uint256","internalType":"uint256"},{"name":"ratePerSecond","type":"uint256","internalType":"uint256"},{"name":"runwaySeconds","type":"uint256","internalType":"uint256"}],"stateMutability":"view"},{"type":"function","name":"getStreamsBatch","inputs":[{"name":"streamIds","type":"uint256[]","internalType":"uint256[]"}],"outputs":[{"name":"results","type":"tuple[]","internalType":"struct PayrollManager.Stream[]","components":[{"name":"payer","type":"address","internalType":"address"},{"name":"payee","type":"address","internalType":"address"},{"name":"token","type":"address","internalType":"address"},{"name":"ratePerSecond","type":"uint256","internalType":"uint256"},{"name":"startTime","type":"uint256","internalType":"uint256"},{"name":"lastWithdrawTime","type":"uint256","internalType":"uint256"},{"name":"depositBalance","type":"uint256","internalType":"uint256"},{"name":"active","type":"bool","internalType":"bool"},{"name":"paused","type":"bool","internalType":"bool"},{"name":"pausedAt","type":"uint256","internalType":"uint256"},{"name":"pausedAccrued","type":"uint256","internalType":"uint256"}]}],"stateMutability":"view"},{"type":"function","name":"getTotalEarnings","inputs":[{"name":"payee","type":"address","internalType":"address"}],"outputs":[{"name":"activeStreamCount","type":"uint256","internalType":"uint256"},{"name":"totalRatePerSecond","type":"uint256","internalType":"uint256"},{"name":"totalClaimable","type":"uint256","internalType":"uint256"}],"stateMutability":"view"},{"type":"function","name":"getTotalObligations","inputs":[{"name":"payer","type":"address","internalType":"address"}],"outputs":[{"name":"activeStreamCount","type":"uint256","internalType":"uint256"},{"name":"totalRatePerSecond","type":"uint256","internalType":"uint256"},{"name":"totalDeposited","type":"uint256","internalType":"uint256"},{"name":"totalClaimable","type":"uint256","internalType":"uint256"}],"stateMutability":"view"},{"type":"function","name":"nextStreamId","inputs":[],"outputs":[{"name":"","type":"uint256","internalType":"uint256"}],"stateMutability":"view"},{"type":"function","name":"pauseStream","inputs":[{"name":"streamId","type":"uint256","internalType":"uint256"}],"outputs":[],"stateMutability":"nonpayable"},{"type":"function","name":"resumeStream","inputs":[{"name":"streamId","type":"uint256","internalType":"uint256"}],"outputs":[],"stateMutability":"nonpayable"},{"type":"function","name":"seer","inputs":[],"outputs":[{"name":"","type":"address","internalType":"contract ISeer_PM"}],"stateMutability":"view"},{"type":"function","name":"setDAO","inputs":[{"name":"_dao","type":"address","internalType":"address"}],"outputs":[],"stateMutability":"nonpayable"},{"type":"function","name":"setRate","inputs":[{"name":"streamId","type":"uint256","internalType":"uint256"},{"name":"newRate","type":"uint256","internalType":"uint256"}],"outputs":[],"stateMutability":"nonpayable"},{"type":"function","name":"setSeer","inputs":[{"name":"_seer","type":"address","internalType":"address"}],"outputs":[],"stateMutability":"nonpayable"},{"type":"function","name":"streams","inputs":[{"name":"","type":"uint256","internalType":"uint256"}],"outputs":[{"name":"payer","type":"address","internalType":"address"},{"name":"payee","type":"address","internalType":"address"},{"name":"token","type":"address","internalType":"address"},{"name":"ratePerSecond","type":"uint256","internalType":"uint256"},{"name":"startTime","type":"uint256","internalType":"uint256"},{"name":"lastWithdrawTime","type":"uint256","internalType":"uint256"},{"name":"depositBalance","type":"uint256","internalType":"uint256"},{"name":"active","type":"bool","internalType":"bool"},{"name":"paused","type":"bool","internalType":"bool"},{"name":"pausedAt","type":"uint256","internalType":"uint256"},{"name":"pausedAccrued","type":"uint256","internalType":"uint256"}],"stateMutability":"view"},{"type":"function","name":"topUp","inputs":[{"name":"streamId","type":"uint256","internalType":"uint256"},{"name":"amount","type":"uint256","internalType":"uint256"}],"outputs":[],"stateMutability":"nonpayable"},{"type":"function","name":"updatePayee","inputs":[{"name":"streamId","type":"uint256","internalType":"uint256"},{"name":"newPayee","type":"address","internalType":"address"}],"outputs":[],"stateMutability":"nonpayable"},{"type":"function","name":"withdraw","inputs":[{"name":"streamId","type":"uint256","internalType":"uint256"}],"outputs":[],"stateMutability":"nonpayable"},{"type":"event","name":"EmergencyWithdraw","inputs":[{"name":"streamId","type":"uint256","indexed":true,"internalType":"uint256"},{"name":"to","type":"address","indexed":true,"internalType":"address"},{"name":"amount","type":"uint256","indexed":false,"internalType":"uint256"}],"anonymous":false},{"type":"event","name":"PayeeUpdated","inputs":[{"name":"streamId","type":"uint256","indexed":true,"internalType":"uint256"},{"name":"oldPayee","type":"address","indexed":true,"internalType":"address"},{"name":"newPayee","type":"address","indexed":true,"internalType":"address"}],"anonymous":false},{"type":"event","name":"RateModified","inputs":[{"name":"streamId","type":"uint256","indexed":true,"internalType":"uint256"},{"name":"oldRate","type":"uint256","indexed":false,"internalType":"uint256"},{"name":"newRate","type":"uint256","indexed":false,"internalType":"uint256"}],"anonymous":false},{"type":"event","name":"StreamCancelled","inputs":[{"name":"streamId","type":"uint256","indexed":true,"internalType":"uint256"}],"anonymous":false},{"type":"event","name":"StreamCreated","inputs":[{"name":"streamId","type":"uint256","indexed":true,"internalType":"uint256"},{"name":"payer","type":"address","indexed":true,"internalType":"address"},{"name":"payee","type":"address","indexed":true,"internalType":"address"},{"name":"rate","type":"uint256","indexed":false,"internalType":"uint256"}],"anonymous":false},{"type":"event","name":"StreamPaused","inputs":[{"name":"streamId","type":"uint256","indexed":true,"internalType":"uint256"},{"name":"pausedBy","type":"address","indexed":true,"internalType":"address"}],"anonymous":false},{"type":"event","name":"StreamResumed","inputs":[{"name":"streamId","type":"uint256","indexed":true,"internalType":"uint256"},{"name":"resumedBy","type":"address","indexed":true,"internalType":"address"}],"anonymous":false},{"type":"event","name":"TopUp","inputs":[{"name":"streamId","type":"uint256","indexed":true,"internalType":"uint256"},{"name":"amount","type":"uint256","indexed":false,"internalType":"uint256"}],"anonymous":false},{"type":"event","name":"Withdraw","inputs":[{"name":"streamId","type":"uint256","indexed":true,"internalType":"uint256"},{"name":"payee","type":"address","indexed":true,"internalType":"address"},{"name":"amount","type":"uint256","indexed":false,"internalType":"uint256"}],"anonymous":false},{"type":"error","name":"PM_InvalidDeposit","inputs":[]},{"type":"error","name":"PM_InvalidPayee","inputs":[]},{"type":"error","name":"PM_InvalidRate","inputs":[]},{"type":"error","name":"PM_NotAuthorized","inputs":[]},{"type":"error","name":"PM_NotPayee","inputs":[]},{"type":"error","name":"PM_NotPayer","inputs":[]},{"type":"error","name":"PM_NothingDue","inputs":[]},{"type":"error","name":"PM_StreamInactive","inputs":[]},{"type":"error","name":"PM_StreamNotPaused","inputs":[]},{"type":"error","name":"PM_StreamPaused","inputs":[]}],"bytecode":{"object":"0x608034609e57601f611bee38819003918201601f19168301916001600160401b0383118484101760a2578084926040948552833981010312609e57604b602060458360b6565b920160b6565b60015f819055600255600380546001600160a01b0319166001600160a01b0393841617905516806085575b604051611b2490816100ca8239f35b600480546001600160a01b0319169190911790555f6076565b5f80fd5b634e487b7160e01b5f52604160045260245ffd5b51906001600160a01b0382168203609e5756fe60806040526004361015610011575f80fd5b5f5f3560e01c8063117a7a45146114055780631e99d569146113e857806322dabc20146113cd5780632d55ea39146113a55780632e1a7d4d1461120e5780632f940c70146110df5780634162169f146110b657806346df2ccb14610f755780635588eabe14610f035780636438f89c14610de357806364d60d9114610d29578063668148ea14610ca75780636db9241b14610b77578063746ff13d14610ab55780638307ccf314610a96578063894e9a0d146109c95780638f6244701461093f578063b61b6ce214610640578063be47a9ee146104f4578063d1d58b25146104cd578063dd6ef8cc146104b1578063de643a711461039c578063e071c1c01461034f578063e73a914c146102c8578063ea6be166146102085763fb6a984e14610138575f80fd5b3461020557602036600319011261020557600435808252600160205260408220600781019081549060ff8216156101f65760ff8260081c16156101e75780546001600160a01b0316331415806101d2575b6101c35760054291015561ff001916905533907f0dbfa51df8b0b3b2d196641ff6e01b8ad3a3bfea169bbd41f321c0391a3e89738380a380f35b632bb02ac160e11b8552600485fd5b506003546001600160a01b0316331415610189565b63582590d160e01b8552600485fd5b6339e9120560e01b8552600485fd5b80fd5b503461020557604036600319011261020557600435610225611644565b81835260016020526040832060ff600782015416156102b9576001019160018060a01b03835416918233036102aa576001600160a01b031692831561029b5780546001600160a01b031916841790557fe9d9a28672a33f2da4e22d235fddf12a83aed52873ddfb504cdc21b498cdb4008480a480f35b63562e8b3d60e01b8552600485fd5b63108d649d60e01b8552600485fd5b6339e9120560e01b8452600484fd5b5034610205576020366003190112610205576102e261165a565b600354906102fa336001600160a01b038416146117c4565b6001600160a01b031690811561031b576001600160a01b0319161760035580f35b60405162461bcd60e51b815260206004820152600c60248201526b504d3a207a65726f2044414f60a01b6044820152606490fd5b50346102055760203660031901126102055761036961165a565b61037e60018060a01b036003541633146117c4565b60018060a01b03166001600160601b0360a01b600454161760045580f35b5034610205576103ab36611670565b8183526001602052604083209060ff600783015416156102b95781546001600160a01b031633036104a25760028201546040516323b872dd60e01b81523360048201523060248201526044810183905291906020908390606490829089906001600160a01b03165af18015610497577f9580ef1bd2c88526f7c878185e323d2bef5d3f0f9471577f3e3a2bfdb87763ef93610452600692602095899161046a575b506118dc565b0161045e82825461180c565b9055604051908152a280f35b61048a9150863d8811610490575b61048281836116f0565b8101906118c4565b5f61044c565b503d610478565b6040513d87823e3d90fd5b637a03df0760e11b8452600484fd5b5034610205578060031936011261020557602060405160018152f35b50346102055760203660031901126102055760206104ec600435611946565b604051908152f35b50346102055760203660031901126102055761050e61165a565b908081928291839160018060a01b031684526005602052604084206040518082602082945493848152019088526020882092885b818110610627575050610557925003826116f0565b845b815181101561060a5761056c818361177b565b51865260016020526040862060078101549060ff8216610591575b5050600101610559565b90936105a260ff91979396976117fe565b9460081c16156105e3575b6105c160019260066105db9301549061180c565b956105d56105cf878661177b565b51611946565b9061180c565b93905f610587565b966105c160019260066105fe6105db9460038d01549061180c565b9a9350509250506105ad565b60808385878a604051938452602084015260408301526060820152f35b8454835260019485019486945060209093019201610542565b50346102055760803660031901126102055761065a61165a565b610662611644565b606435916001600160a01b03169060443590821561029b578115610931578315610922576040516323b872dd60e01b81523360048201523060248201526044810185905285916001600160a01b031660208260648186855af1918215610917576009926106d59185916108fe57506118dc565b6002549586916106e4836117fe565b6002556040519485926106f6846116bf565b33845260208401928984526040850190815260608501898152608086019042825260a087019242845260c0880194855260e08801966001885260406101008a01978089526101406101208c019b828d52019b818d5281526001602052209b60018060a01b039060018060a01b03905116166001600160601b0360a01b8d5416178c5560018060a01b0390511660018c019060018060a01b03166001600160601b0360a01b82541617905560018060a01b0390511660028b019060018060a01b03166001600160601b0360a01b8254161790555160038a0155516004890155516005880155516006870155600786019151151560ff8019845416911617825551151561ff0082549160081b169061ff001916179055516008840155519101553384526005602052610829836040862061191a565b818452600660205261083e836040862061191a565b6004546001600160a01b031680610889575b5060209350604051908152827f4396d7c3edc1447dac8dd2b7143af95840c926a210524a0d3198012c7fdf37c7853393a4604051908152f35b8085913b156108fa57819060a460405180948193630eccbd3560e11b83523360048401526005602484015260606044840152600f60648401526e1c185e5c9bdb1b17d8dc99585d1959608a1b60848401525af115610850576108ec8580926116f0565b6108f65783610850565b8380fd5b5080fd5b61048a915060203d6020116104905761048281836116f0565b6040513d85823e3d90fd5b63ab02e66360e01b8552600485fd5b624ec27160e71b8552600485fd5b50346102055760203660031901126102055760c0906004359081815260016020526040812090610973600783015493611946565b9160036006820154910154918215155f146109c357506109938282611819565b925b60ff604051958181161515875260081c161515602086015260408501526060840152608083015260a0820152f35b92610995565b5034610205576020366003190112610205576040610160916109e961172a565b506004358152600160205220600960405191610a04836116bf565b80546001600160a01b0390811684526001820154811660208501526002820154166040808501919091526003820154606085015260048201546080850152600582015460a0850152600682015460c0850152600782015460ff818116151560e0870152600891821c1615156101008601528201546101208501529101546101408301525190610a949082906115ba565bf35b50346102055760203660031901126102055760206104ec600435611837565b50346102055760203660031901126102055760043580825260016020526040822060078101805460ff8116156101f65760ff8160081c16610b685782546001600160a01b031633141580610b51575b6101c35761010090610b1585611946565b600985015561ff00191617905560084291015533907fff71f52d9d3ad4ae0959691a14ef1d1478d482ca10ac8be29c8e7d88cf3baba68380a380f35b5060018301546001600160a01b0316331415610b04565b632bd7def960e01b8552600485fd5b503461020557602036600319011261020557600435610b946119b8565b80825260016020526040822080546001600160a01b031633141580610c90575b610c8157600781019060ff825416156102b957610bd083611946565b80610c43575b5060068101908154908582610c1a575b845460ff19168555857f75b8c91e46f219f2164d6bce576e7cebd2d3ff8749726009fcafdf04e2e1eb7b8280a26001815580f35b90925560028201549154610c3a926001600160a01b0391821691166119f9565b5f808085610be6565b610c7b9060068301610c568282546117a3565b905560098301869055600283015460018401546001600160a01b0390811691166119f9565b5f610bd6565b632bb02ac160e11b8352600483fd5b5060018101546001600160a01b0316331415610bb4565b5034610205576020366003190112610205576001600160a01b03610cc961165a565b168152600560205260408120604051918260208354918281520192825260208220915b818110610d1357610d0f85610d03818703826116f0565b60405191829182611686565b0390f35b8254845260209093019260019283019201610cec565b503461020557602036600319011261020557604061016091600435815260016020522060018060a01b038154169060018060a01b036001820154169060ff60018060a01b036002830154166003830154600484015460058501549060068601549260078701549460096008890154980154986040519a8b5260208b015260408a01526060890152608088015260a087015260c0860152818116151560e086015260081c161515610100840152610120830152610140820152f35b503461020557602036600319011261020557610dfd61165a565b81908290839060018060a01b03168452600660205260408420926040518085602082975493848152019088526020882092885b818110610eea575050610e45925003856116f0565b845b8451811015610ed357610e5a818661177b565b51865260016020526040862060078101549060ff8216610e7f575b5050600101610e47565b9092610e8f60ff919593956117fe565b9360081c1615610eb6575b50610eae6001916105d56105cf868961177b565b92905f610e75565b610ecb600192956003610eae9301549061180c565b949150610e9a565b509060609260405192835260208301526040820152f35b8454835260019485019489945060209093019201610e30565b5034610205576020366003190112610205576001600160a01b03610f2561165a565b168152600660205260408120604051918260208354918281520192825260208220915b818110610f5f57610d0f85610d03818703826116f0565b8254845260209093019260019283019201610f48565b503461020557610f8436611670565b818352600160205260408320600781015460ff8116156101f65781546001600160a01b031633036110a7578215610931579160036040927f5ff336526ec3daccf85a7032a5367977be366164c16254f032cb3a0f5d3c27d194610fe687611946565b908115159081611098575b5061100d575b500190808254925582519182526020820152a280f35b600682018054808311611090575b82611025916117a3565b9055426005830155600282015460018301805489927f9da6493a92039daf47d1f2d7a782299c5994c6323eb1e972f69c432089ec52bf9260209290916110799187916001600160a01b0391821691166119f9565b5488519485526001600160a01b031693a35f610ff7565b91508161101b565b60ff915060081c16155f610ff1565b637a03df0760e11b8552600485fd5b50346102055780600319360112610205576003546040516001600160a01b039091168152602090f35b5034610205576040366003190112610205576004356110fc611644565b9061111260018060a01b036003541633146117c4565b808352600160205260408320600781019283549160ff8316156111d3576001600160a01b03821694851561119b576006820180549088905560ff199094169055600201547f947a9dc0c5e62cc9756634ec0a89afea37eb0305933925040b9bda82004400209260209290916111919183916001600160a01b03166119f9565b604051908152a380f35b60405162461bcd60e51b815260206004820152601060248201526f504d3a207a65726f206164647265737360801b6044820152606490fd5b60405162461bcd60e51b8152602060048201526013602482015272504d3a2073747265616d20696e61637469766560681b6044820152606490fd5b50346113725760203660031901126113725760043561122b6119b8565b805f52600160205260405f209060ff600783015416156113965761124e81611946565b9182156113875760068101805480851161137f575b8461126d916117a3565b9055426005820155600981018054611376575b5060028101546001909101805490916112a79185916001600160a01b0391821691166119f9565b6004546001600160a01b0316806112f8575b50546040519283526001600160a01b0316917f9da6493a92039daf47d1f2d7a782299c5994c6323eb1e972f69c432089ec52bf90602090a36001815580f35b81546001600160a01b0316813b15611372575f9160a483926040519485938492630eccbd3560e11b845260048401526001602484015260606044840152601060648401526f1c185e5c9bdb1b17dc9958d95a5d995960821b60848401525af1156112b9576113699194505f906116f0565b5f9260206112b9565b5f80fd5b5f90555f611280565b935083611263565b63de82509360e01b5f5260045ffd5b6339e9120560e01b5f5260045ffd5b34611372575f366003190112611372576004546040516001600160a01b039091168152602090f35b34611372575f36600319011261137257602060405160058152f35b34611372575f366003190112611372576020600254604051908152f35b346113725760203660031901126113725760043567ffffffffffffffff8111611372573660238201121561137257806004013567ffffffffffffffff8111611372573660248260051b840101116113725761145f81611712565b9161146d60405193846116f0565b818352601f1961147c83611712565b015f5b8181106115a35750505f5b828110156115525760019060248160051b840101355f528160205260405f206009604051916114b8836116bf565b805460a086811b87900391821685528287015482166020860152600283015490911660408501526003820154606085015260048201546080850152600582015490840152600681015460c0840152600781015460ff818116151560e0860152600891821c1615156101008501528101546101208401520154610140820152611540828761177b565b5261154b818661177b565b500161148a565b836040518091602082016020835281518091526020604084019201905f5b81811061157e575050500390f35b9193509160206101608261159560019488516115ba565b019401910191849392611570565b6020906115ae61172a565b8282880101520161147f565b610140809160018060a01b03815116845260018060a01b03602082015116602085015260018060a01b036040820151166040850152606081015160608501526080810151608085015260a081015160a085015260c081015160c085015260e0810151151560e085015261010081015115156101008501526101208101516101208501520151910152565b602435906001600160a01b038216820361137257565b600435906001600160a01b038216820361137257565b6040906003190112611372576004359060243590565b60206040818301928281528451809452019201905f5b8181106116a95750505090565b825184526020938401939092019160010161169c565b610160810190811067ffffffffffffffff8211176116dc57604052565b634e487b7160e01b5f52604160045260245ffd5b90601f8019910116810190811067ffffffffffffffff8211176116dc57604052565b67ffffffffffffffff81116116dc5760051b60200190565b60405190611737826116bf565b5f610140838281528260208201528260408201528260608201528260808201528260a08201528260c08201528260e082015282610100820152826101208201520152565b805182101561178f5760209160051b010190565b634e487b7160e01b5f52603260045260245ffd5b919082039182116117b057565b634e487b7160e01b5f52601160045260245ffd5b156117cb57565b60405162461bcd60e51b815260206004820152600b60248201526a504d3a206e6f742044414f60a81b6044820152606490fd5b5f1981146117b05760010190565b919082018092116117b057565b8115611823570490565b634e487b7160e01b5f52601260045260245ffd5b805f52600160205260405f2090600782015460ff8116159081156118b6575b5080156118aa575b6118a457611870600683015491611946565b918183101561189d57600361188b61189a94611894946117a3565b91015490611819565b4261180c565b90565b5050504290565b50505f90565b5060038201541561185e565b60ff915060081c165f611856565b90816020910312611372575180151581036113725790565b156118e357565b60405162461bcd60e51b815260206004820152600f60248201526e1d1c985b9cd9995c8819985a5b1959608a1b6044820152606490fd5b805490680100000000000000008210156116dc576001820180825582101561178f575f5260205f200155565b5f52600160205260405f20600781015460ff8116156118a45760081c60ff166119b1576119776005820154426117a3565b6003820154908181029181830414901517156117b05761199e60069160098401549061180c565b9101548082116119ac575090565b905090565b6009015490565b60015f54036119c75760025f55565b60405162461bcd60e51b815260206004820152600a6024820152697265656e7472616e637960b01b6044820152606490fd5b5f929183809360405190602082019363a9059cbb60e01b855260018060a01b03166024830152604482015260448152611a336064826116f0565b51925af13d15611ae7573d67ffffffffffffffff81116116dc5760405190611a65601f8201601f1916602001836116f0565b81523d5f602083013e5b81611ab8575b5015611a7d57565b60405162461bcd60e51b815260206004820152601360248201527214134e881d1c985b9cd9995c8819985a5b1959606a1b6044820152606490fd5b8051801592508215611acd575b50505f611a75565b611ae092506020809183010191016118c4565b5f80611ac5565b6060611a6f56fea264697066735822122037c143009737a69701a6f26eb26a58573d2e0682cc0156d4b4b2bc40bd5b3da264736f6c634300081e0033","linkReferences":{}},"methodIdentifiers":{"PAYROLL_CREATE_REWARD()":"22dabc20","PAYROLL_WITHDRAW_REWARD()":"dd6ef8cc","cancelStream(uint256)":"6db9241b","claimable(uint256)":"d1d58b25","createStream(address,address,uint256,uint256)":"b61b6ce2","dao()":"4162169f","emergencyWithdraw(uint256,address)":"2f940c70","estimateEndTime(uint256)":"8307ccf3","getPayeeStreams(address)":"5588eabe","getPayerStreams(address)":"668148ea","getStream(uint256)":"894e9a0d","getStreamStatus(uint256)":"8f624470","getStreamsBatch(uint256[])":"117a7a45","getTotalEarnings(address)":"6438f89c","getTotalObligations(address)":"be47a9ee","nextStreamId()":"1e99d569","pauseStream(uint256)":"746ff13d","resumeStream(uint256)":"fb6a984e","seer()":"2d55ea39","setDAO(address)":"e73a914c","setRate(uint256,uint256)":"46df2ccb","setSeer(address)":"e071c1c0","streams(uint256)":"64d60d91","topUp(uint256,uint256)":"de643a71","updatePayee(uint256,address)":"ea6be166","withdraw(uint256)":"2e1a7d4d"},"id":10}