{"abi":[{"type":"constructor","inputs":[{"name":"_vaultHub","type":"address","internalType":"address"},{"name":"_vaultRegistry","type":"address","internalType":"address"}],"stateMutability":"nonpayable"},{"type":"function","name":"CHALLENGE_PERIOD","inputs":[],"outputs":[{"name":"","type":"uint64","internalType":"uint64"}],"stateMutability":"view"},{"type":"function","name":"CLAIM_EXPIRY","inputs":[],"outputs":[{"name":"","type":"uint64","internalType":"uint64"}],"stateMutability":"view"},{"type":"function","name":"GUARDIAN_VOTE_WINDOW","inputs":[],"outputs":[{"name":"","type":"uint64","internalType":"uint64"}],"stateMutability":"view"},{"type":"function","name":"MIN_GUARDIAN_APPROVALS","inputs":[],"outputs":[{"name":"","type":"uint8","internalType":"uint8"}],"stateMutability":"view"},{"type":"function","name":"MIN_VERIFIER_VOTES","inputs":[],"outputs":[{"name":"","type":"uint8","internalType":"uint8"}],"stateMutability":"view"},{"type":"function","name":"activeClaimForVault","inputs":[{"name":"","type":"address","internalType":"address"}],"outputs":[{"name":"","type":"uint256","internalType":"uint256"}],"stateMutability":"view"},{"type":"function","name":"canFinalize","inputs":[{"name":"claimId","type":"uint256","internalType":"uint256"}],"outputs":[{"name":"","type":"bool","internalType":"bool"},{"name":"reason","type":"string","internalType":"string"}],"stateMutability":"view"},{"type":"function","name":"challengeClaim","inputs":[{"name":"claimId","type":"uint256","internalType":"uint256"},{"name":"reason","type":"string","internalType":"string"}],"outputs":[],"stateMutability":"nonpayable"},{"type":"function","name":"challengeTimeRemaining","inputs":[{"name":"claimId","type":"uint256","internalType":"uint256"}],"outputs":[{"name":"","type":"uint256","internalType":"uint256"}],"stateMutability":"view"},{"type":"function","name":"claimCounter","inputs":[],"outputs":[{"name":"","type":"uint256","internalType":"uint256"}],"stateMutability":"view"},{"type":"function","name":"claims","inputs":[{"name":"","type":"uint256","internalType":"uint256"}],"outputs":[{"name":"vault","type":"address","internalType":"address"},{"name":"claimant","type":"address","internalType":"address"},{"name":"originalOwner","type":"address","internalType":"address"},{"name":"initiatedAt","type":"uint64","internalType":"uint64"},{"name":"challengeEndsAt","type":"uint64","internalType":"uint64"},{"name":"expiresAt","type":"uint64","internalType":"uint64"},{"name":"status","type":"uint8","internalType":"enum VaultRecoveryClaim.ClaimStatus"},{"name":"guardianApprovals","type":"uint8","internalType":"uint8"},{"name":"verifierVotes","type":"uint8","internalType":"uint8"},{"name":"evidenceHash","type":"bytes32","internalType":"bytes32"},{"name":"claimReason","type":"string","internalType":"string"}],"stateMutability":"view"},{"type":"function","name":"expireClaim","inputs":[{"name":"claimId","type":"uint256","internalType":"uint256"}],"outputs":[],"stateMutability":"nonpayable"},{"type":"function","name":"finalizeClaim","inputs":[{"name":"claimId","type":"uint256","internalType":"uint256"}],"outputs":[],"stateMutability":"nonpayable"},{"type":"function","name":"finalizeExecution","inputs":[{"name":"claimId","type":"uint256","internalType":"uint256"}],"outputs":[],"stateMutability":"nonpayable"},{"type":"function","name":"getActiveClaimForVault","inputs":[{"name":"vault","type":"address","internalType":"address"}],"outputs":[{"name":"claimId","type":"uint256","internalType":"uint256"},{"name":"claim","type":"tuple","internalType":"struct VaultRecoveryClaim.RecoveryClaim","components":[{"name":"vault","type":"address","internalType":"address"},{"name":"claimant","type":"address","internalType":"address"},{"name":"originalOwner","type":"address","internalType":"address"},{"name":"initiatedAt","type":"uint64","internalType":"uint64"},{"name":"challengeEndsAt","type":"uint64","internalType":"uint64"},{"name":"expiresAt","type":"uint64","internalType":"uint64"},{"name":"status","type":"uint8","internalType":"enum VaultRecoveryClaim.ClaimStatus"},{"name":"guardianApprovals","type":"uint8","internalType":"uint8"},{"name":"verifierVotes","type":"uint8","internalType":"uint8"},{"name":"evidenceHash","type":"bytes32","internalType":"bytes32"},{"name":"claimReason","type":"string","internalType":"string"}]}],"stateMutability":"view"},{"type":"function","name":"getClaim","inputs":[{"name":"claimId","type":"uint256","internalType":"uint256"}],"outputs":[{"name":"","type":"tuple","internalType":"struct VaultRecoveryClaim.RecoveryClaim","components":[{"name":"vault","type":"address","internalType":"address"},{"name":"claimant","type":"address","internalType":"address"},{"name":"originalOwner","type":"address","internalType":"address"},{"name":"initiatedAt","type":"uint64","internalType":"uint64"},{"name":"challengeEndsAt","type":"uint64","internalType":"uint64"},{"name":"expiresAt","type":"uint64","internalType":"uint64"},{"name":"status","type":"uint8","internalType":"enum VaultRecoveryClaim.ClaimStatus"},{"name":"guardianApprovals","type":"uint8","internalType":"uint8"},{"name":"verifierVotes","type":"uint8","internalType":"uint8"},{"name":"evidenceHash","type":"bytes32","internalType":"bytes32"},{"name":"claimReason","type":"string","internalType":"string"}]}],"stateMutability":"view"},{"type":"function","name":"guardianApproval","inputs":[{"name":"","type":"uint256","internalType":"uint256"},{"name":"","type":"address","internalType":"address"}],"outputs":[{"name":"","type":"bool","internalType":"bool"}],"stateMutability":"view"},{"type":"function","name":"guardianVote","inputs":[{"name":"claimId","type":"uint256","internalType":"uint256"},{"name":"approve","type":"bool","internalType":"bool"}],"outputs":[],"stateMutability":"nonpayable"},{"type":"function","name":"guardianVoted","inputs":[{"name":"","type":"uint256","internalType":"uint256"},{"name":"","type":"address","internalType":"address"}],"outputs":[{"name":"","type":"bool","internalType":"bool"}],"stateMutability":"view"},{"type":"function","name":"initiateClaim","inputs":[{"name":"vault","type":"address","internalType":"address"},{"name":"recoveryId","type":"string","internalType":"string"},{"name":"evidenceHash","type":"bytes32","internalType":"bytes32"},{"name":"reason","type":"string","internalType":"string"}],"outputs":[{"name":"claimId","type":"uint256","internalType":"uint256"}],"stateMutability":"nonpayable"},{"type":"function","name":"initiateClaimByRecoveryId","inputs":[{"name":"recoveryId","type":"string","internalType":"string"},{"name":"reason","type":"string","internalType":"string"}],"outputs":[{"name":"claimId","type":"uint256","internalType":"uint256"}],"stateMutability":"nonpayable"},{"type":"function","name":"owner","inputs":[],"outputs":[{"name":"","type":"address","internalType":"address"}],"stateMutability":"view"},{"type":"function","name":"renounceOwnership","inputs":[],"outputs":[],"stateMutability":"nonpayable"},{"type":"function","name":"setTrustedVerifier","inputs":[{"name":"verifier","type":"address","internalType":"address"},{"name":"trusted","type":"bool","internalType":"bool"}],"outputs":[],"stateMutability":"nonpayable"},{"type":"function","name":"setVaultHub","inputs":[{"name":"_vaultHub","type":"address","internalType":"address"}],"outputs":[],"stateMutability":"nonpayable"},{"type":"function","name":"setVaultRegistry","inputs":[{"name":"_vaultRegistry","type":"address","internalType":"address"}],"outputs":[],"stateMutability":"nonpayable"},{"type":"function","name":"transferOwnership","inputs":[{"name":"newOwner","type":"address","internalType":"address"}],"outputs":[],"stateMutability":"nonpayable"},{"type":"function","name":"trustedVerifier","inputs":[{"name":"","type":"address","internalType":"address"}],"outputs":[{"name":"","type":"bool","internalType":"bool"}],"stateMutability":"view"},{"type":"function","name":"vaultHub","inputs":[],"outputs":[{"name":"","type":"address","internalType":"contract IVaultInfrastructure"}],"stateMutability":"view"},{"type":"function","name":"vaultRegistry","inputs":[],"outputs":[{"name":"","type":"address","internalType":"contract IVaultRegistry"}],"stateMutability":"view"},{"type":"function","name":"verifierVote","inputs":[{"name":"claimId","type":"uint256","internalType":"uint256"},{"name":"approve","type":"bool","internalType":"bool"}],"outputs":[],"stateMutability":"nonpayable"},{"type":"function","name":"verifierVoted","inputs":[{"name":"","type":"uint256","internalType":"uint256"},{"name":"","type":"address","internalType":"address"}],"outputs":[{"name":"","type":"bool","internalType":"bool"}],"stateMutability":"view"},{"type":"event","name":"ClaimApproved","inputs":[{"name":"claimId","type":"uint256","indexed":true,"internalType":"uint256"},{"name":"vault","type":"address","indexed":true,"internalType":"address"},{"name":"newOwner","type":"address","indexed":true,"internalType":"address"}],"anonymous":false},{"type":"event","name":"ClaimChallenged","inputs":[{"name":"claimId","type":"uint256","indexed":true,"internalType":"uint256"},{"name":"challenger","type":"address","indexed":true,"internalType":"address"},{"name":"reason","type":"string","indexed":false,"internalType":"string"}],"anonymous":false},{"type":"event","name":"ClaimExecuted","inputs":[{"name":"claimId","type":"uint256","indexed":true,"internalType":"uint256"},{"name":"vault","type":"address","indexed":true,"internalType":"address"},{"name":"newOwner","type":"address","indexed":true,"internalType":"address"},{"name":"previousOwner","type":"address","indexed":false,"internalType":"address"}],"anonymous":false},{"type":"event","name":"ClaimExpired","inputs":[{"name":"claimId","type":"uint256","indexed":true,"internalType":"uint256"},{"name":"vault","type":"address","indexed":true,"internalType":"address"}],"anonymous":false},{"type":"event","name":"ClaimInitiated","inputs":[{"name":"claimId","type":"uint256","indexed":true,"internalType":"uint256"},{"name":"vault","type":"address","indexed":true,"internalType":"address"},{"name":"claimant","type":"address","indexed":true,"internalType":"address"},{"name":"originalOwner","type":"address","indexed":false,"internalType":"address"},{"name":"expiresAt","type":"uint64","indexed":false,"internalType":"uint64"}],"anonymous":false},{"type":"event","name":"ClaimRejected","inputs":[{"name":"claimId","type":"uint256","indexed":true,"internalType":"uint256"},{"name":"vault","type":"address","indexed":true,"internalType":"address"},{"name":"reason","type":"string","indexed":false,"internalType":"string"}],"anonymous":false},{"type":"event","name":"GuardianVoteCast","inputs":[{"name":"claimId","type":"uint256","indexed":true,"internalType":"uint256"},{"name":"guardian","type":"address","indexed":true,"internalType":"address"},{"name":"approved","type":"bool","indexed":false,"internalType":"bool"},{"name":"totalApprovals","type":"uint8","indexed":false,"internalType":"uint8"}],"anonymous":false},{"type":"event","name":"OwnershipTransferred","inputs":[{"name":"previousOwner","type":"address","indexed":true,"internalType":"address"},{"name":"newOwner","type":"address","indexed":true,"internalType":"address"}],"anonymous":false},{"type":"event","name":"VerifierSet","inputs":[{"name":"verifier","type":"address","indexed":true,"internalType":"address"},{"name":"trusted","type":"bool","indexed":false,"internalType":"bool"}],"anonymous":false},{"type":"event","name":"VerifierVoteCast","inputs":[{"name":"claimId","type":"uint256","indexed":true,"internalType":"uint256"},{"name":"verifier","type":"address","indexed":true,"internalType":"address"},{"name":"approved","type":"bool","indexed":false,"internalType":"bool"},{"name":"totalVotes","type":"uint8","indexed":false,"internalType":"uint8"}],"anonymous":false},{"type":"error","name":"AlreadyVoted","inputs":[]},{"type":"error","name":"ChallengePeriodActive","inputs":[]},{"type":"error","name":"ChallengePeriodEnded","inputs":[]},{"type":"error","name":"ClaimAlreadyExists","inputs":[]},{"type":"error","name":"ClaimHasExpired","inputs":[]},{"type":"error","name":"ClaimNotPending","inputs":[]},{"type":"error","name":"ClaimantAlreadyHasVault","inputs":[]},{"type":"error","name":"InsufficientApprovals","inputs":[]},{"type":"error","name":"InvalidVault","inputs":[]},{"type":"error","name":"NoActiveClaim","inputs":[]},{"type":"error","name":"NotClaimant","inputs":[]},{"type":"error","name":"NotGuardian","inputs":[]},{"type":"error","name":"NotOriginalOwner","inputs":[]},{"type":"error","name":"NotTrustedVerifier","inputs":[]},{"type":"error","name":"OwnableInvalidOwner","inputs":[{"name":"owner","type":"address","internalType":"address"}]},{"type":"error","name":"OwnableUnauthorizedAccount","inputs":[{"name":"account","type":"address","internalType":"address"}]},{"type":"error","name":"ReentrancyGuardReentrantCall","inputs":[]},{"type":"error","name":"VaultHasNoClaim","inputs":[]},{"type":"error","name":"ZeroAddress","inputs":[]}],"bytecode":{"object":"0x60803461010957601f612e1138819003918201601f19168301916001600160401b0383118484101761010d57808492604094855283398101031261010957610052602061004b83610121565b9201610121565b33156100f6575f8054336001600160a01b0319821681178355604051949290916001600160a01b0316907f8be0079c531659141344cd1fd0a4f28419497f9722a3daafe3b4186f6b6457e09080a3600180556001600160a01b031680156100e75760018060a01b0319600254161760025560018060a01b031660018060a01b03196003541617600355612cdb90816101368239f35b63d92e233d60e01b5f5260045ffd5b631e4fbdf760e01b5f525f60045260245ffd5b5f80fd5b634e487b7160e01b5f52604160045260245ffd5b51906001600160a01b03821682036101095756fe60806040526004361015610011575f80fd5b5f5f3560e01c80630741206e1461248657806314907bfd1461244e57806315d31806146123a05780632941f9df1461238557806338d86bcf146121185780633b74b77a14611f555780633f1db3ea14611d8e57806342b8af6c14611a9b57806349d5787414611a7d5780634d94b96f14611a3e5780634e75624d146119f45780634efa8f17146119d657806354f93e2e146119585780635aef2447146119005780636dd6e80b146118d7578063715018a6146118905780637167d42714611869578063791e95c01461181f5780637a9711141461151b5780638da5cb5b146114f4578063a888c2cd1461140c578063b4cd85af146113ee578063bd5e95ba146112c1578063c3a079ed146112a3578063cb91dd7b1461125e578063cdd7b38a14611235578063e2dfce33146111eb578063e4e2bfe4146111ab578063e9fcf4dd14610afd578063f2fde38b14610a8a578063fb3fff9d14610a6e5763fdec26091461017a575f80fd5b34610a6b576040366003190112610a6b576004356001600160401b038111610a69576101aa903690600401612507565b906024356001600160401b0381116106a9576101ca903690600401612507565b9290936101d5612b7f565b6003546001600160a01b0316928315610a3157602060405180956328cc671160e01b825281806102098887600484016127a2565b03915afa938415610a26578294610a05575b506001600160a01b038416156109ce5760025460405163652b9b4160e01b81526001600160a01b038681166004830152909160209183916024918391165afa9081156109c3578391610994575b5015610985576001600160a01b03841682526006602052604082205461081e575b600254604051630709df4560e01b81523360048201526001600160a01b039091169390602081602481885afa9081156107e55784916107ff575b506001600160a01b03166107f0576003546001600160a01b0316806106ff575b5050604051632724fe0960e01b81526001600160a01b03851660048201529260209150839060249082905afa9182156106f25781926106c1575b50600554935f1985146106ad57600185016005556001600160401b0361034242612824565b16906001600160401b0361035542612834565b16604051926103638461266e565b6001600160a01b03878116855233602086015286166040850152426001600160401b03166060850152608084015260a0830152600160c083015260e08201839052610100820183905261012082018390526103bd81612908565b966103cb604051988961269e565b81885236828201116106a957818492602092838b013788010152610140810195865260018581018352600460209081526040808520845181546001600160a01b03199081166001600160a01b03928316178355938601519482018054909416948116949094179092558084015160028301805460608701516001600160e01b0319909116929095169190911760a094851b600160a01b600160e01b03161790556080840151600383018054948601516001600160801b03199095166001600160401b0392909216919091179390911b600160401b600160801b031692909217825560c083015190929190600881101561069557916104f3826104d3600596956101209561275f565b6104e460ff60e0850151168261285c565b60ff61010084015116906127ee565b015160048201550194519485516001600160401b038111610681576105188254612636565b601f811161063c575b506020968790601f83116001146105ce57928260409386936003966001600160401b0398926105c3575b50508160011b915f1990871b1c19161790555b6001600160a01b0395861680825260068952828220600189019081905580835260048a5292909120929092015460408051959096168552851c9290921683870152339390925f516020612c665f395f51905f529190a460018055600160405191018152f35b015190505f8061054b565b8385528185209190601f198416865b8181106106255750936001600160401b03969360039693600193836040981061060e575b505050811b01905561055e565b01515f1983891b60f8161c191690555f8080610601565b92938b6001819287860151815501950193016105dd565b82845260208420601f830160051c81019160208410610677575b601f0160051c01905b81811061066c5750610521565b84815560010161065f565b9091508190610656565b634e487b7160e01b83526041600452602483fd5b634e487b7160e01b85526021600452602485fd5b8380fd5b634e487b7160e01b82526011600452602482fd5b6106e491925060203d6020116106eb575b6106dc818361269e565b810190612b3a565b905f61031d565b503d6106d2565b50604051903d90823e3d90fd5b60405163032997db60e31b81526001600160a01b0387166004820152929190602090849060249082905afa9283156107e55784936107b1575b5082156102e3576107666020604051838194838301968737810187838201520301601f19810183528261269e565b51902003610776575f80806102e3565b60405162461bcd60e51b8152602060048201526013602482015272125b9d985b1a59081c9958dbdd995c9e481251606a1b6044820152606490fd5b9092506020813d6020116107dd575b816107cd6020938361269e565b810103126106a95751915f610738565b3d91506107c0565b6040513d86823e3d90fd5b634657e50360e01b8352600483fd5b610818915060203d6020116106eb576106dc818361269e565b5f6102c3565b60018060a01b038416825260066020526040822054825260046020526003604083200180546001600160401b038160401c16421180610926575b1561088c5750805460ff60801b1916600760801b1790556001600160a01b0384168252600660205260408220829055610289565b60ff915060801c16600881101590816109055760018114918215610919575b82156108f4575b82156108cf575b505015610289576380497e3b60e01b8252600482fd5b9091506108e0576003145f806108b9565b634e487b7160e01b83526021600452602483fd5b8092506109055760048114916108b2565b634e487b7160e01b84526021600452602484fd5b50600281149150836108ab565b5060ff8160801c16600881101590816109715760018114918215610964575b8215610953575b5050610858565b909150610695576003145f8061094c565b5060028114915085610945565b634e487b7160e01b86526021600452602486fd5b630681d31960e51b8252600482fd5b6109b6915060203d6020116109bc575b6109ae818361269e565b810190612844565b5f610268565b503d6109a4565b6040513d85823e3d90fd5b60405162461bcd60e51b815260206004820152600f60248201526e15985d5b1d081b9bdd08199bdd5b99608a1b6044820152606490fd5b610a1f91945060203d6020116106eb576106dc818361269e565b925f61021b565b6040513d84823e3d90fd5b60405162461bcd60e51b815260206004820152601060248201526f149959da5cdd1c9e481b9bdd081cd95d60821b6044820152606490fd5b505b80fd5b5034610a6b5780600319360112610a6b57602060405160038152f35b5034610a6b576020366003190112610a6b57610aa46124db565b610aac612b59565b6001600160a01b03168015610ae95781546001600160a01b03198116821783556001600160a01b03165f516020612c865f395f51905f528380a380f35b631e4fbdf760e01b82526004829052602482fd5b5034610a6b576080366003190112610a6b57610b176124db565b906024356001600160401b038111610a6957610b37903690600401612507565b6064939193356001600160401b0381116106a957610b59903690600401612507565b939094610b64612b7f565b60025460405163652b9b4160e01b81526001600160a01b038681166004830152909160209183916024918391165afa9081156109c357839161118c575b5015610985576001600160a01b038416825260066020526040822054611061575b600254604051630709df4560e01b81523360048201526001600160a01b039091169390602081602481885afa9081156107e5578491611042575b506001600160a01b03166107f0576003546001600160a01b031680610f97575b5050604051632724fe0960e01b81526001600160a01b03851660048201529260209150839060249082905afa9182156106f2578192610f76575b50600554935f1985146106ad57600185016005556001600160401b03610c7b42612824565b16906001600160401b03610c8e42612834565b1660405192610c9c8461266e565b6001600160a01b03878116855233602086015286166040850152426001600160401b03166060850152608084015260a0830152600160c083015260e082018390526101008201839052604435610120830152610cf781612908565b96610d05604051988961269e565b81885236828201116106a957818492602092838b013788010152610140810195865260018581018352600460209081526040808520845181546001600160a01b03199081166001600160a01b03928316178355938601519482018054909416948116949094179092558084015160028301805460608701516001600160e01b0319909116929095169190911760a094851b600160a01b600160e01b03161790556080840151600383018054948601516001600160801b03199095166001600160401b0392909216919091179390911b600160401b600160801b031692909217825560c08301519092919060088110156106955791610e0d826104d3600596956101209561275f565b015160048201550194519485516001600160401b03811161068157610e328254612636565b601f8111610f31575b506020968790601f8311600114610edb57928260409386936003966001600160401b0398926105c35750508160011b915f1990871b1c19161790556001600160a01b0395861680825260068952828220600189019081905580835260048a5292909120929092015460408051959096168552851c9290921683870152339390925f516020612c665f395f51905f529190a460018055600160405191018152f35b8385528185209190601f198416865b818110610f1a5750936001600160401b03969360039693600193836040981061060e57505050811b01905561055e565b92938b600181928786015181550195019301610eea565b82845260208420601f830160051c81019160208410610f6c575b601f0160051c01905b818110610f615750610e3b565b848155600101610f54565b9091508190610f4b565b610f9091925060203d6020116106eb576106dc818361269e565b905f610c56565b60405163032997db60e31b81526001600160a01b0387166004820152929190602090849060249082905afa9283156107e557849361100e575b508215610c1c57610ffe6020604051838194838301968737810187838201520301601f19810183528261269e565b51902003610776575f8080610c1c565b9092506020813d60201161103a575b8161102a6020938361269e565b810103126106a95751915f610fd0565b3d915061101d565b61105b915060203d6020116106eb576106dc818361269e565b5f610bfc565b60018060a01b038416825260066020526040822054825260046020526003604083200180546001600160401b038160401c16421180611141575b156110cf5750805460ff60801b1916600760801b1790556001600160a01b0384168252600660205260408220829055610bc2565b60ff915060801c16600881101590816109055760018114918215611134575b8215611123575b8215611112575b505015610bc2576380497e3b60e01b8252600482fd5b9091506108e0576003145f806110fc565b8092506109055760048114916110f5565b50600281149150836110ee565b5060ff8160801c1660088110159081610971576001811491821561117f575b821561116e575b505061109b565b909150610695576003145f80611167565b5060028114915085611160565b6111a5915060203d6020116109bc576109ae818361269e565b5f610ba1565b5034610a6b576020366003190112610a6b576111c8600435612923565b906111e760405192839215158352604060208401526040830190612550565b0390f35b5034610a6b576040366003190112610a6b5760406112076124f1565b9160043581526008602052209060018060a01b03165f52602052602060ff60405f2054166040519015158152f35b5034610a6b5780600319360112610a6b576003546040516001600160a01b039091168152602090f35b5034610a6b576020366003190112610a6b576112786124db565b611280612b59565b600380546001600160a01b0319166001600160a01b039290921691909117905580f35b5034610a6b5780600319360112610a6b57602060405162093a808152f35b5034610a6b576020366003190112610a6b576112db6124db565b906112e4612879565b6001600160a01b03909216815260066020526040812054908161131f575b506111e76040519283928352604060208401526040830190612574565b81604092935081526004602052206113e160056040519261133f8461266e565b60018060a01b03815416845260018060a01b0360018201541660208501526001600160401b03600282015460018060a01b038116604087015260a01c16606085015260ff60038201546001600160401b03811660808701526001600160401b038160401c1660a08701526113bb828260801c1660c088016128ca565b818160881c1660e087015260901c166101008501526004810154610120850152016126bf565b610140820152905f611302565b5034610a6b5780600319360112610a6b576020604051621275008152f35b5034610a6b576020366003190112610a6b57604090600435815260046020522060018060a01b038154166111e760018060a01b036001840154169260028101549060ff60038201546001600160401b0361146d6005600486015495016126bf565b946040519889988952602089015260018060a01b038116604089015260a01c1660608701526001600160401b03811660808701526001600160401b038160401c1660a08701526114c560c08701838360801c16612543565b818160881c1660e087015260901c16610100850152610120840152610160610140840152610160830190612550565b5034610a6b5780600319360112610a6b57546040516001600160a01b039091168152602090f35b5034610a6b576020366003190112610a6b57600435611538612b7f565b80825260046020526040822060038101805460ff8160801c1660088110156109715760028114159081611813575b506118045760401c6001600160401b031642116117b25780546001600160401b03811642106117a35760801c60ff16600881101561069557600214611763575b5050808252600460205260408220600254815460018301805493949093909286926001600160a01b03918216929082169116823b156106a95760448492836040519586948593631a65688160e01b8552600485015260248401525af18015610a265761174e575b5050600254835460405163f20ca7ed60e01b81526001600160a01b0391821660048201529160209183916024918391165afa8015611743576001600160401b03918691611714575b501680151580918192611709575b50156116d0575060038301805460ff60801b1916600560801b1790555b82546001600160a01b03908116855260066020908152604080872087905585549454600290960154905190831681529482169493909116925f516020612c265f395f51905f529190a46001805580f35b156116ef5760038301805460ff60801b1916600160821b179055611680565b60038301805460ff60801b1916600160821b179055611680565b90504210155f611663565b611736915060203d60201161173c575b61172e818361269e565b810190612783565b5f611655565b503d611724565b6040513d87823e3d90fd5b816117589161269e565b6106a957835f61160d565b805460ff60801b1916600160821b1790558054600191909101546001600160a01b039081169116825f516020612c065f395f51905f528580a45f806115a6565b6364b81b1960e11b8552600485fd5b805460ff60801b1916600760801b17905580546001600160a01b0390811684526006602052604084208490559054600493929116905f516020612c465f395f51905f528380a36378e090f760e01b8152fd5b638af69cf160e01b8552600485fd5b6004915014155f611566565b5034610a6b576040366003190112610a6b57604061183b6124f1565b9160043581526009602052209060018060a01b03165f52602052602060ff60405f2054166040519015158152f35b5034610a6b576020366003190112610a6b5760206118886004356128d6565b604051908152f35b5034610a6b5780600319360112610a6b576118a9612b59565b80546001600160a01b03198116825581906001600160a01b03165f516020612c865f395f51905f528280a380f35b5034610a6b5780600319360112610a6b576002546040516001600160a01b039091168152602090f35b5034610a6b576020366003190112610a6b5760406111e791611920612879565b50600435815260046020522061193e60056040519261133f8461266e565b610140820152604051918291602083526020830190612574565b5034610a6b576040366003190112610a6b576119726124db565b7f7a6dd775b9b6aa6ebde6f0c51172ef328eb9658e095364751705f28234e7257c602061199d612534565b926119a6612b59565b6001600160a01b0316808552600a825260408520805460ff191660ff86151516179055926040519015158152a280f35b5034610a6b5780600319360112610a6b576020600554604051908152f35b5034610a6b576040366003190112610a6b576040611a106124f1565b9160043581526007602052209060018060a01b03165f52602052602060ff60405f2054166040519015158152f35b5034610a6b576020366003190112610a6b5760209060ff906040906001600160a01b03611a696124db565b168152600a84522054166040519015158152f35b5034610a6b5780600319360112610a6b57602060405162278d008152f35b5034610a6b576040366003190112610a6b57600435611ab8612534565b90611ac1612b7f565b808352600460205260408320916003830192835460ff8160801c166008811015611d7a57600103611d6b5760401c6001600160401b03164211611d5c57828552600760209081526040808720335f908152925290205460ff16611d4d5754604051630c68ba2160e01b81523360048201526001600160a01b039091169190602081602481865afa908115611d23578691611d2e575b5015611cf5576040516363f95a3b60e01b8152336004820152602081602481865afa908115611d23578691611d04575b5015611cf557828552600760209081526040808720335f8181529184528282208054600160ff1991821617909155878a5260098552838a20918352908452919020805490911660ff84151516179055600492909180611cd7575b60ff865460881c16947f6591fafddb662528da3bece8a0e1a4681e32f5b19a9996e28a15f8e93f9aa8a460405180611c2c8933968390929160ff60209160408401951515845216910152565b0390a36040516354387ad760e01b815292839182905afa9081156107e55760ff91611c5e918691611ca8575b50612b9f565b161115611c6e575b506001805580f35b805460ff60801b1916600160811b1781556001600160401b0380611c9142612824565b16166001600160401b03198254161790555f611c66565b611cca915060203d602011611cd0575b611cc2818361269e565b81019061280b565b5f611c58565b503d611cb8565b611cf0611cea60ff885460881c166127c9565b8761285c565b611be0565b6377b6878160e11b8552600485fd5b611d1d915060203d6020116109bc576109ae818361269e565b5f611b86565b6040513d88823e3d90fd5b611d47915060203d6020116109bc576109ae818361269e565b5f611b56565b637c9a1cf960e01b8552600485fd5b6378e090f760e01b8552600485fd5b6348f8d3b160e01b8652600486fd5b634e487b7160e01b87526021600452602487fd5b5034610a6b576040366003190112610a6b57600435611dab612534565b90611db4612b7f565b8083526004602052604083206003810192835460ff8160801c166008811015611d7a5760018114159081611f49575b50611d6b5760401c6001600160401b03164211611d5c57828552600860209081526040808720335f908152925290205460ff16611d4d57338552600a60205260ff60408620541615611f3a57828552600860209081526040808720335f90815290835220805460ff19166001179055600492909180611f1c575b60ff865460901c16947fe86a1c59d9e847c0662205957722396068e768d0bbc52ab9553b9896af7e131260405180611ea98933968390929160ff60209160408401951515845216910152565b0390a3546040516354387ad760e01b815292839182906001600160a01b03165afa80156107e55760ff918591611efd575b5016159081611ef1575b50611c6e57506001805580f35b6003915010155f611ee4565b611f16915060203d602011611cd057611cc2818361269e565b5f611eda565b611f35611f2f60ff885460901c166127c9565b876127ee565b611e5d565b630ee24e3760e11b8552600485fd5b6002915014155f611de3565b5034610a6b576040366003190112610a6b576004356024356001600160401b03811161211457611f89903690600401612507565b90611f92612b7f565b828452600460205260408420916003830160ff815460801c16600881101590816120f3578015918215612107575b82156120e2575b82156120d1575b50506120c25760028401546001600160a01b031633036120b357805460ff60801b1916600360811b17905582546001600160a01b031685526006602052604080862086905551339285927f19f658ff9b34c9fd1b45c96134524129191b422b932e9de6a236c952da5b9c509291829161204791836127a2565b0390a360018060a01b03905416907f4682ef87b3db3f66192d1dc1efd5d2a314cdd9c61e14219f671c03e6f507823a606060405160208152601c60208201527b21b430b63632b733b2b210313c9037b934b3b4b730b61037bbb732b960211b6040820152a36001805580f35b6323a7681d60e01b8652600486fd5b63dc3d406360e01b8652600486fd5b909150611d7a576007145f80611fce565b8092506120f3576006811491611fc7565b634e487b7160e01b88526021600452602488fd5b5060058114915087611fc0565b8280fd5b503461228457602036600319011261228457600435612135612b7f565b805f52600460205260405f20906003820160ff815460801c1660088110156123715760048114908115612366575b501561233257600254835460405163f20ca7ed60e01b81526001600160a01b03918216600482018190529190921691602081602481865afa8015612327576001600160401b03915f91612308575b501680156122c357421061228857813b15612284575f9160248392604051948593849263c5c8220360e01b845260048401525af1908161226f575b50612221575081546001909201546001600160a01b039081169216905f516020612c065f395f51905f528480a45b6001805580f35b805460ff60801b1916600560801b179055815460018301546002909301546040516001600160a01b03918216815293811693911691905f516020612c265f395f51905f5290602090a461221a565b61227c9195505f9061269e565b5f935f6121ec565b5f80fd5b60405162461bcd60e51b81526020600482015260136024820152721d1a5b595b1bd8dac81b9bdd081c185cdcd959606a1b6044820152606490fd5b60405162461bcd60e51b815260206004820152601d60248201527f7265636f76657279206e6f7420696e69746961746564206f6e206875620000006044820152606490fd5b612321915060203d60201161173c5761172e818361269e565b5f6121b1565b6040513d5f823e3d90fd5b60405162461bcd60e51b815260206004820152600c60248201526b1b9bdd08185c1c1c9bdd995960a21b6044820152606490fd5b60059150145f612163565b634e487b7160e01b5f52602160045260245ffd5b34612284575f36600319011261228457602060405160028152f35b3461228457602036600319011261228457600435805f52600460205260405f2060038101805460ff8160801c1660088110156123715760018114908115612443575b506123e957005b60401c6001600160401b031642116123fd57005b805460ff60801b1916600760801b17905580546001600160a01b039081165f90815260066020526040812081905591541691905f516020612c465f395f51905f529080a3005b6002915014856123e2565b34612284576020366003190112612284576001600160a01b0361246f6124db565b165f526006602052602060405f2054604051908152f35b346122845760203660031901126122845761249f6124db565b6124a7612b59565b6001600160a01b031680156124cc57600280546001600160a01b031916919091179055005b63d92e233d60e01b5f5260045ffd5b600435906001600160a01b038216820361228457565b602435906001600160a01b038216820361228457565b9181601f84011215612284578235916001600160401b038311612284576020838186019501011161228457565b60243590811515820361228457565b9060088210156123715752565b805180835260209291819084018484015e5f828201840152601f01601f1916010190565b906101606101406126339360018060a01b03815116845260018060a01b03602082015116602085015260018060a01b0360408201511660408501526001600160401b0360608201511660608501526001600160401b0360808201511660808501526001600160401b0360a08201511660a08501526125fa60c082015160c0860190612543565b60ff60e08201511660e085015260ff61010082015116610100850152610120810151610120850152015191816101408201520190612550565b90565b90600182811c92168015612664575b602083101461265057565b634e487b7160e01b5f52602260045260245ffd5b91607f1691612645565b61016081019081106001600160401b0382111761268a57604052565b634e487b7160e01b5f52604160045260245ffd5b90601f801991011681019081106001600160401b0382111761268a57604052565b9060405191825f8254926126d284612636565b808452936001811690811561273d57506001146126f9575b506126f79250038361269e565b565b90505f9291925260205f20905f915b8183106127215750509060206126f7928201015f6126ea565b6020919350806001915483858901015201910190918492612708565b9050602092506126f794915060ff191682840152151560051b8201015f6126ea565b90600881101561237157815460ff60801b191660809190911b60ff60801b16179055565b9081602091031261228457516001600160401b03811681036122845790565b90918060409360208452816020850152848401375f828201840152601f01601f1916010190565b60ff1660ff81146127da5760010190565b634e487b7160e01b5f52601160045260245ffd5b805460ff60901b191660909290921b60ff60901b16919091179055565b90816020910312612284575160ff811681036122845790565b9062093a8082018092116127da57565b9062278d0082018092116127da57565b90816020910312612284575180151581036122845790565b805460ff60881b191660889290921b60ff60881b16919091179055565b604051906128868261266e565b6060610140835f81525f60208201525f60408201525f838201525f60808201525f60a08201525f60c08201525f60e08201525f6101008201525f6101208201520152565b60088210156123715752565b5f5260046020526001600160401b03600360405f2001541680421015612903574281039081116127da5790565b505f90565b6001600160401b03811161268a57601f01601f191660200190565b5f526004602052600360405f20015460ff8160801c166008811015612371578015612b045760058114612acc5760068114612a985760078114612a69576001600160401b038260401c164211612a36576001146129f8576001600160401b031642106129bb5760019060405161299a60408261269e565b6011815270526561647920746f2066696e616c697a6560781b602082015290565b5f906040516129cb60408261269e565b601d81527f4368616c6c656e676520706572696f64207374696c6c20616374697665000000602082015290565b505f90604051612a0960408261269e565b601d81527f57616974696e6720666f7220677561726469616e20617070726f76616c000000602082015290565b50505f90604051612a4860408261269e565b601181527010db185a5b481a185cc8195e1c1a5c9959607a1b602082015290565b50505f90604051612a7b60408261269e565b600d81526c10db185a5b48195e1c1a5c9959609a1b602082015290565b50505f90604051612aaa60408261269e565b601281527110db185a5b481dd85cc81c995a9958dd195960721b602082015290565b50505f90604051612ade60408261269e565b601681527510db185a5b48185b1c9958591e48195e1958dd5d195960521b602082015290565b50505f90604051612b1660408261269e565b601481527310db185a5b48191bd95cc81b9bdd08195e1a5cdd60621b602082015290565b9081602091031261228457516001600160a01b03811681036122845790565b5f546001600160a01b03163303612b6c57565b63118cdaa760e01b5f523360045260245ffd5b600260015414612b90576002600155565b633ee5aeb560e01b5f5260045ffd5b60ff81168015612bff5760018114612bf85760028114612bf15760038114612bf15760048114612bea57600514612be457607f600191821c160160ff81116127da5790565b50600390565b5050600390565b5050600290565b5050600190565b50505f9056fe35cc46be3cd6c522a5c476fd967d23d863f0012d507dcabc9037ec99a91482d802f15fccddc354e2331b022195b2ab6306ce04a22561521ebe0e8913c5fb8a5ea01f4580d13af8b2fcc988b3e0d01a43aa7310fe0474086214978fab1175ecdf0148a0de706530411746da9dd7cce6e287476743bd7f912d62c75552f251b59b8be0079c531659141344cd1fd0a4f28419497f9722a3daafe3b4186f6b6457e0a26469706673582212205ced7e680f93243d9a6de298b05cae5ada67348c742b8c7f506a61d5e3e2e8c464736f6c634300081e0033","linkReferences":{}},"methodIdentifiers":{"CHALLENGE_PERIOD()":"c3a079ed","CLAIM_EXPIRY()":"49d57874","GUARDIAN_VOTE_WINDOW()":"b4cd85af","MIN_GUARDIAN_APPROVALS()":"2941f9df","MIN_VERIFIER_VOTES()":"fb3fff9d","activeClaimForVault(address)":"14907bfd","canFinalize(uint256)":"e4e2bfe4","challengeClaim(uint256,string)":"3b74b77a","challengeTimeRemaining(uint256)":"7167d427","claimCounter()":"4efa8f17","claims(uint256)":"a888c2cd","expireClaim(uint256)":"15d31806","finalizeClaim(uint256)":"7a971114","finalizeExecution(uint256)":"38d86bcf","getActiveClaimForVault(address)":"bd5e95ba","getClaim(uint256)":"5aef2447","guardianApproval(uint256,address)":"791e95c0","guardianVote(uint256,bool)":"42b8af6c","guardianVoted(uint256,address)":"4e75624d","initiateClaim(address,string,bytes32,string)":"e9fcf4dd","initiateClaimByRecoveryId(string,string)":"fdec2609","owner()":"8da5cb5b","renounceOwnership()":"715018a6","setTrustedVerifier(address,bool)":"54f93e2e","setVaultHub(address)":"0741206e","setVaultRegistry(address)":"cb91dd7b","transferOwnership(address)":"f2fde38b","trustedVerifier(address)":"4d94b96f","vaultHub()":"6dd6e80b","vaultRegistry()":"cdd7b38a","verifierVote(uint256,bool)":"3f1db3ea","verifierVoted(uint256,address)":"e2dfce33"},"id":42}