{"abi":[{"type":"constructor","inputs":[{"name":"_vaultHub","type":"address","internalType":"address"},{"name":"_vaultRegistry","type":"address","internalType":"address"},{"name":"_guardianNodeManager","type":"address","internalType":"address"}],"stateMutability":"nonpayable"},{"type":"function","name":"CHALLENGE_PERIOD","inputs":[],"outputs":[{"name":"","type":"uint64","internalType":"uint64"}],"stateMutability":"view"},{"type":"function","name":"CLAIM_EXPIRY","inputs":[],"outputs":[{"name":"","type":"uint64","internalType":"uint64"}],"stateMutability":"view"},{"type":"function","name":"GUARDIAN_VOTE_WINDOW","inputs":[],"outputs":[{"name":"","type":"uint64","internalType":"uint64"}],"stateMutability":"view"},{"type":"function","name":"MIN_GUARDIAN_APPROVALS","inputs":[],"outputs":[{"name":"","type":"uint8","internalType":"uint8"}],"stateMutability":"view"},{"type":"function","name":"MIN_NODE_VOTES","inputs":[],"outputs":[{"name":"","type":"uint8","internalType":"uint8"}],"stateMutability":"view"},{"type":"function","name":"activeClaimForVault","inputs":[{"name":"","type":"address","internalType":"address"}],"outputs":[{"name":"","type":"uint256","internalType":"uint256"}],"stateMutability":"view"},{"type":"function","name":"canFinalize","inputs":[{"name":"claimId","type":"uint256","internalType":"uint256"}],"outputs":[{"name":"","type":"bool","internalType":"bool"},{"name":"reason","type":"string","internalType":"string"}],"stateMutability":"view"},{"type":"function","name":"challengeClaim","inputs":[{"name":"claimId","type":"uint256","internalType":"uint256"},{"name":"reason","type":"string","internalType":"string"}],"outputs":[],"stateMutability":"nonpayable"},{"type":"function","name":"challengeTimeRemaining","inputs":[{"name":"claimId","type":"uint256","internalType":"uint256"}],"outputs":[{"name":"","type":"uint256","internalType":"uint256"}],"stateMutability":"view"},{"type":"function","name":"claimCounter","inputs":[],"outputs":[{"name":"","type":"uint256","internalType":"uint256"}],"stateMutability":"view"},{"type":"function","name":"claims","inputs":[{"name":"","type":"uint256","internalType":"uint256"}],"outputs":[{"name":"vault","type":"address","internalType":"address"},{"name":"claimant","type":"address","internalType":"address"},{"name":"originalOwner","type":"address","internalType":"address"},{"name":"initiatedAt","type":"uint64","internalType":"uint64"},{"name":"challengeEndsAt","type":"uint64","internalType":"uint64"},{"name":"expiresAt","type":"uint64","internalType":"uint64"},{"name":"status","type":"uint8","internalType":"enum VaultRecoveryClaim.ClaimStatus"},{"name":"guardianApprovals","type":"uint8","internalType":"uint8"},{"name":"nodeVotes","type":"uint8","internalType":"uint8"},{"name":"evidenceHash","type":"bytes32","internalType":"bytes32"},{"name":"claimReason","type":"string","internalType":"string"}],"stateMutability":"view"},{"type":"function","name":"expireClaim","inputs":[{"name":"claimId","type":"uint256","internalType":"uint256"}],"outputs":[],"stateMutability":"nonpayable"},{"type":"function","name":"finalizeClaim","inputs":[{"name":"claimId","type":"uint256","internalType":"uint256"}],"outputs":[],"stateMutability":"nonpayable"},{"type":"function","name":"finalizeExecution","inputs":[{"name":"claimId","type":"uint256","internalType":"uint256"}],"outputs":[],"stateMutability":"nonpayable"},{"type":"function","name":"getActiveClaimForVault","inputs":[{"name":"vault","type":"address","internalType":"address"}],"outputs":[{"name":"claimId","type":"uint256","internalType":"uint256"},{"name":"claim","type":"tuple","internalType":"struct VaultRecoveryClaim.RecoveryClaim","components":[{"name":"vault","type":"address","internalType":"address"},{"name":"claimant","type":"address","internalType":"address"},{"name":"originalOwner","type":"address","internalType":"address"},{"name":"initiatedAt","type":"uint64","internalType":"uint64"},{"name":"challengeEndsAt","type":"uint64","internalType":"uint64"},{"name":"expiresAt","type":"uint64","internalType":"uint64"},{"name":"status","type":"uint8","internalType":"enum VaultRecoveryClaim.ClaimStatus"},{"name":"guardianApprovals","type":"uint8","internalType":"uint8"},{"name":"nodeVotes","type":"uint8","internalType":"uint8"},{"name":"evidenceHash","type":"bytes32","internalType":"bytes32"},{"name":"claimReason","type":"string","internalType":"string"}]}],"stateMutability":"view"},{"type":"function","name":"getClaim","inputs":[{"name":"claimId","type":"uint256","internalType":"uint256"}],"outputs":[{"name":"","type":"tuple","internalType":"struct VaultRecoveryClaim.RecoveryClaim","components":[{"name":"vault","type":"address","internalType":"address"},{"name":"claimant","type":"address","internalType":"address"},{"name":"originalOwner","type":"address","internalType":"address"},{"name":"initiatedAt","type":"uint64","internalType":"uint64"},{"name":"challengeEndsAt","type":"uint64","internalType":"uint64"},{"name":"expiresAt","type":"uint64","internalType":"uint64"},{"name":"status","type":"uint8","internalType":"enum VaultRecoveryClaim.ClaimStatus"},{"name":"guardianApprovals","type":"uint8","internalType":"uint8"},{"name":"nodeVotes","type":"uint8","internalType":"uint8"},{"name":"evidenceHash","type":"bytes32","internalType":"bytes32"},{"name":"claimReason","type":"string","internalType":"string"}]}],"stateMutability":"view"},{"type":"function","name":"guardianApproval","inputs":[{"name":"","type":"uint256","internalType":"uint256"},{"name":"","type":"address","internalType":"address"}],"outputs":[{"name":"","type":"bool","internalType":"bool"}],"stateMutability":"view"},{"type":"function","name":"guardianNodeManager","inputs":[],"outputs":[{"name":"","type":"address","internalType":"contract IGuardianNodeManager"}],"stateMutability":"view"},{"type":"function","name":"guardianVote","inputs":[{"name":"claimId","type":"uint256","internalType":"uint256"},{"name":"approve","type":"bool","internalType":"bool"}],"outputs":[],"stateMutability":"nonpayable"},{"type":"function","name":"guardianVoted","inputs":[{"name":"","type":"uint256","internalType":"uint256"},{"name":"","type":"address","internalType":"address"}],"outputs":[{"name":"","type":"bool","internalType":"bool"}],"stateMutability":"view"},{"type":"function","name":"initiateClaim","inputs":[{"name":"vault","type":"address","internalType":"address"},{"name":"recoveryId","type":"string","internalType":"string"},{"name":"evidenceHash","type":"bytes32","internalType":"bytes32"},{"name":"reason","type":"string","internalType":"string"}],"outputs":[{"name":"claimId","type":"uint256","internalType":"uint256"}],"stateMutability":"nonpayable"},{"type":"function","name":"initiateClaimByRecoveryId","inputs":[{"name":"recoveryId","type":"string","internalType":"string"},{"name":"reason","type":"string","internalType":"string"}],"outputs":[{"name":"claimId","type":"uint256","internalType":"uint256"}],"stateMutability":"nonpayable"},{"type":"function","name":"nodeVote","inputs":[{"name":"claimId","type":"uint256","internalType":"uint256"},{"name":"approve","type":"bool","internalType":"bool"}],"outputs":[],"stateMutability":"nonpayable"},{"type":"function","name":"nodeVoted","inputs":[{"name":"","type":"uint256","internalType":"uint256"},{"name":"","type":"address","internalType":"address"}],"outputs":[{"name":"","type":"bool","internalType":"bool"}],"stateMutability":"view"},{"type":"function","name":"owner","inputs":[],"outputs":[{"name":"","type":"address","internalType":"address"}],"stateMutability":"view"},{"type":"function","name":"renounceOwnership","inputs":[],"outputs":[],"stateMutability":"nonpayable"},{"type":"function","name":"setGuardianNodeManager","inputs":[{"name":"_guardianNodeManager","type":"address","internalType":"address"}],"outputs":[],"stateMutability":"nonpayable"},{"type":"function","name":"setTrustedVerifier","inputs":[{"name":"verifier","type":"address","internalType":"address"},{"name":"trusted","type":"bool","internalType":"bool"}],"outputs":[],"stateMutability":"nonpayable"},{"type":"function","name":"setVaultHub","inputs":[{"name":"_vaultHub","type":"address","internalType":"address"}],"outputs":[],"stateMutability":"nonpayable"},{"type":"function","name":"setVaultRegistry","inputs":[{"name":"_vaultRegistry","type":"address","internalType":"address"}],"outputs":[],"stateMutability":"nonpayable"},{"type":"function","name":"transferOwnership","inputs":[{"name":"newOwner","type":"address","internalType":"address"}],"outputs":[],"stateMutability":"nonpayable"},{"type":"function","name":"trustedVerifier","inputs":[{"name":"","type":"address","internalType":"address"}],"outputs":[{"name":"","type":"bool","internalType":"bool"}],"stateMutability":"view"},{"type":"function","name":"vaultHub","inputs":[],"outputs":[{"name":"","type":"address","internalType":"contract IVaultInfrastructure"}],"stateMutability":"view"},{"type":"function","name":"vaultRegistry","inputs":[],"outputs":[{"name":"","type":"address","internalType":"contract IVaultRegistry"}],"stateMutability":"view"},{"type":"event","name":"ClaimApproved","inputs":[{"name":"claimId","type":"uint256","indexed":true,"internalType":"uint256"},{"name":"vault","type":"address","indexed":true,"internalType":"address"},{"name":"newOwner","type":"address","indexed":true,"internalType":"address"}],"anonymous":false},{"type":"event","name":"ClaimChallenged","inputs":[{"name":"claimId","type":"uint256","indexed":true,"internalType":"uint256"},{"name":"challenger","type":"address","indexed":true,"internalType":"address"},{"name":"reason","type":"string","indexed":false,"internalType":"string"}],"anonymous":false},{"type":"event","name":"ClaimExecuted","inputs":[{"name":"claimId","type":"uint256","indexed":true,"internalType":"uint256"},{"name":"vault","type":"address","indexed":true,"internalType":"address"},{"name":"newOwner","type":"address","indexed":true,"internalType":"address"},{"name":"previousOwner","type":"address","indexed":false,"internalType":"address"}],"anonymous":false},{"type":"event","name":"ClaimExpired","inputs":[{"name":"claimId","type":"uint256","indexed":true,"internalType":"uint256"},{"name":"vault","type":"address","indexed":true,"internalType":"address"}],"anonymous":false},{"type":"event","name":"ClaimInitiated","inputs":[{"name":"claimId","type":"uint256","indexed":true,"internalType":"uint256"},{"name":"vault","type":"address","indexed":true,"internalType":"address"},{"name":"claimant","type":"address","indexed":true,"internalType":"address"},{"name":"originalOwner","type":"address","indexed":false,"internalType":"address"},{"name":"expiresAt","type":"uint64","indexed":false,"internalType":"uint64"}],"anonymous":false},{"type":"event","name":"ClaimRejected","inputs":[{"name":"claimId","type":"uint256","indexed":true,"internalType":"uint256"},{"name":"vault","type":"address","indexed":true,"internalType":"address"},{"name":"reason","type":"string","indexed":false,"internalType":"string"}],"anonymous":false},{"type":"event","name":"GuardianVoteCast","inputs":[{"name":"claimId","type":"uint256","indexed":true,"internalType":"uint256"},{"name":"guardian","type":"address","indexed":true,"internalType":"address"},{"name":"approved","type":"bool","indexed":false,"internalType":"bool"},{"name":"totalApprovals","type":"uint8","indexed":false,"internalType":"uint8"}],"anonymous":false},{"type":"event","name":"NodeVoteCast","inputs":[{"name":"claimId","type":"uint256","indexed":true,"internalType":"uint256"},{"name":"node","type":"address","indexed":true,"internalType":"address"},{"name":"approved","type":"bool","indexed":false,"internalType":"bool"},{"name":"totalVotes","type":"uint8","indexed":false,"internalType":"uint8"}],"anonymous":false},{"type":"event","name":"OwnershipTransferred","inputs":[{"name":"previousOwner","type":"address","indexed":true,"internalType":"address"},{"name":"newOwner","type":"address","indexed":true,"internalType":"address"}],"anonymous":false},{"type":"event","name":"VerifierSet","inputs":[{"name":"verifier","type":"address","indexed":true,"internalType":"address"},{"name":"trusted","type":"bool","indexed":false,"internalType":"bool"}],"anonymous":false},{"type":"error","name":"AlreadyVoted","inputs":[]},{"type":"error","name":"ChallengePeriodActive","inputs":[]},{"type":"error","name":"ChallengePeriodEnded","inputs":[]},{"type":"error","name":"ClaimAlreadyExists","inputs":[]},{"type":"error","name":"ClaimHasExpired","inputs":[]},{"type":"error","name":"ClaimNotPending","inputs":[]},{"type":"error","name":"ClaimantAlreadyHasVault","inputs":[]},{"type":"error","name":"InsufficientApprovals","inputs":[]},{"type":"error","name":"InvalidVault","inputs":[]},{"type":"error","name":"NoActiveClaim","inputs":[]},{"type":"error","name":"NotClaimant","inputs":[]},{"type":"error","name":"NotGuardian","inputs":[]},{"type":"error","name":"NotGuardianNode","inputs":[]},{"type":"error","name":"NotOriginalOwner","inputs":[]},{"type":"error","name":"OwnableInvalidOwner","inputs":[{"name":"owner","type":"address","internalType":"address"}]},{"type":"error","name":"OwnableUnauthorizedAccount","inputs":[{"name":"account","type":"address","internalType":"address"}]},{"type":"error","name":"ReentrancyGuardReentrantCall","inputs":[]},{"type":"error","name":"VaultHasNoClaim","inputs":[]},{"type":"error","name":"ZeroAddress","inputs":[]}],"bytecode":{"object":"0x60803461012b57601f612df738819003918201601f19168301916001600160401b0383118484101761012f5780849260609460405283398101031261012b5761004781610143565b90610060604061005960208401610143565b9201610143565b903315610118575f8054336001600160a01b0319821681178355604051959290916001600160a01b0316907f8be0079c531659141344cd1fd0a4f28419497f9722a3daafe3b4186f6b6457e09080a3600180556001600160a01b0316801561010957600280546001600160a01b03199081169290921790556003805482166001600160a01b039384161790556004805490911692909116919091179055612c9f90816101588239f35b63d92e233d60e01b5f5260045ffd5b631e4fbdf760e01b5f525f60045260245ffd5b5f80fd5b634e487b7160e01b5f52604160045260245ffd5b51906001600160a01b038216820361012b5756fe60806040526004361015610011575f80fd5b5f5f3560e01c80630741206e146125235780630746efc21461228e57806314907bfd1461225657806315d31806146121955780632941f9df1461217a57806338d86bcf14611ee75780633b74b77a14611d2357806342b8af6c14611a1c57806349d57874146119fe5780634d94b96f146119bf5780634e75624d146119755780634efa8f171461195757806354f93e2e146118d95780635aef2447146118815780636dd6e80b14611858578063715018a6146117fe5780637167d427146117d7578063791e95c01461178d5780637a9711141461143c5780638da5cb5b14611415578063a32e86bb146113cb578063a888c2cd146112e3578063b4cd85af146112c5578063bd5e95ba14611198578063c3a079ed1461117a578063cb91dd7b1461113a578063cd4eb9f81461111e578063cdd7b38a146110f5578063e36b6693146110b5578063e4e2bfe414611075578063e9fcf4dd14610a72578063eb8ee9e814610a49578063f2fde38b146109c35763fdec260914610190575f80fd5b346109c05760403660031901126109c0576004356001600160401b0381116109be576101c09036906004016125b4565b906024356001600160401b0381116106e0576101e09036906004016125b4565b9290936101eb612be3565b6003546001600160a01b031692831561098657602060405180956328cc671160e01b8252818061021f8887600484016128b6565b03915afa93841561097b57829461095a575b506001600160a01b038416156109235760025460405163652b9b4160e01b81526001600160a01b0386811660048301529091169390602081602481885afa90811561081c5784916108f4575b50156108e5576001600160a01b038516835260076020526040832054610855575b604051630709df4560e01b8152336004820152602081602481885afa90811561081c578491610836575b506001600160a01b0316610827576003546001600160a01b031680610736575b5050604051632724fe0960e01b81526001600160a01b03851660048201529260209150839060249082905afa9182156107295781926106f8575b50600654935f1985146106e457600185016006556001600160401b0361034742612877565b16906001600160401b0361035a42612887565b16604051926103688461270c565b6001600160a01b03878116855233602086015286166040850152426001600160401b03166060850152608084015260a0830152600160c083015260e08201839052610100820183905261012082018390526103c28161296c565b966103d0604051988961273c565b81885236828201116106e057818492602092838b013788010152610140810195865260018581018352600560209081526040808520845181546001600160a01b03199081166001600160a01b03928316178355938601519482018054909416948116949094179092558084015160028301805460608701516001600160e01b0319909116929095169190911760a094851b67ffffffffffffffff60a01b161790556080840151600383018054948601516001600160801b03199095166001600160401b0392909216919091179390911b67ffffffffffffffff60401b1692909217825560c08301519092919060088110156106cc5791610517826104da6005969561012095612853565b60e0830151815460ff60881b191660889190911b60ff60881b16178155610100830151815460ff60901b191660909190911b60ff60901b16179055565b015160048201550194519485516001600160401b0381116106b85761053c82546126d4565b601f8111610673575b506020968790601f831160011461060557928260409386936003966001600160401b0398926105fa575b50508160011b915f1990871b1c19161790555b6001600160a01b0395861680825260078952828220600189019081905580835260058a5292909120929092015460408051959096168552851c9290921683870152339390927f0148a0de706530411746da9dd7cce6e287476743bd7f912d62c75552f251b59b9190a460018055600160405191018152f35b015190505f8061056f565b8385528185209190601f198416865b81811061065c5750936001600160401b039693600396936001938360409810610645575b505050811b019055610582565b01515f1983891b60f8161c191690555f8080610638565b92938b600181928786015181550195019301610614565b82845260208420601f830160051c810191602084106106ae575b601f0160051c01905b8181106106a35750610545565b848155600101610696565b909150819061068d565b634e487b7160e01b83526041600452602483fd5b634e487b7160e01b85526021600452602485fd5b8380fd5b634e487b7160e01b82526011600452602482fd5b61071b91925060203d602011610722575b610713818361273c565b810190612b9e565b905f610322565b503d610709565b50604051903d90823e3d90fd5b60405163032997db60e31b81526001600160a01b0387166004820152929190602090849060249082905afa92831561081c5784936107e8575b5082156102e85761079d6020604051838194838301968737810187838201520301601f19810183528261273c565b519020036107ad575f80806102e8565b60405162461bcd60e51b8152602060048201526013602482015272125b9d985b1a59081c9958dbdd995c9e481251606a1b6044820152606490fd5b9092506020813d602011610814575b816108046020938361273c565b810103126106e05751915f61076f565b3d91506107f7565b6040513d86823e3d90fd5b634657e50360e01b8352600483fd5b61084f915060203d60201161072257610713818361273c565b5f6102c8565b60018060a01b0385168352600760205260408320548352600560205260ff600360408520015460801c16600881101590816106cc57600181149182156108d8575b82156108b3575b50501561029e576380497e3b60e01b8352600483fd5b9091506108c4576004145f8061089d565b634e487b7160e01b84526021600452602484fd5b5060028114915084610896565b630681d31960e51b8352600483fd5b610916915060203d60201161091c575b61090e818361273c565b8101906127fd565b5f61027d565b503d610904565b60405162461bcd60e51b815260206004820152600f60248201526e15985d5b1d081b9bdd08199bdd5b99608a1b6044820152606490fd5b61097491945060203d60201161072257610713818361273c565b925f610231565b6040513d84823e3d90fd5b60405162461bcd60e51b815260206004820152601060248201526f149959da5cdd1c9e481b9bdd081cd95d60821b6044820152606490fd5b505b80fd5b50346109c05760203660031901126109c0576109dd612579565b6109e5612bbd565b6001600160a01b03168015610a355781546001600160a01b03198116821783556001600160a01b03167f8be0079c531659141344cd1fd0a4f28419497f9722a3daafe3b4186f6b6457e08380a380f35b631e4fbdf760e01b82526004829052602482fd5b50346109c057806003193601126109c0576004546040516001600160a01b039091168152602090f35b50346109c05760803660031901126109c057610a8c612579565b906024356001600160401b0381116109be57610aac9036906004016125b4565b6064939193356001600160401b0381116106e057610ace9036906004016125b4565b939094610ad9612be3565b60025460405163652b9b4160e01b81526001600160a01b0386811660048301529091169390602081602481885afa90811561081c578491611056575b50156108e5576001600160a01b038516835260076020526040832054610fda575b604051630709df4560e01b8152336004820152602081602481885afa90811561081c578491610fbb575b506001600160a01b0316610827576003546001600160a01b031680610f10575b5050604051632724fe0960e01b81526001600160a01b03851660048201529260209150839060249082905afa918215610729578192610eef575b50600654935f1985146106e457600185016006556001600160401b03610bdf42612877565b16906001600160401b03610bf242612887565b1660405192610c008461270c565b6001600160a01b03878116855233602086015286166040850152426001600160401b03166060850152608084015260a0830152600160c083015260e082018390526101008201839052604435610120830152610c5b8161296c565b96610c69604051988961273c565b81885236828201116106e057818492602092838b013788010152610140810195865260018581018352600560209081526040808520845181546001600160a01b03199081166001600160a01b03928316178355938601519482018054909416948116949094179092558084015160028301805460608701516001600160e01b0319909116929095169190911760a094851b67ffffffffffffffff60a01b161790556080840151600383018054948601516001600160801b03199095166001600160401b0392909216919091179390911b67ffffffffffffffff60401b1692909217825560c08301519092919060088110156106cc5791610d73826104da6005969561012095612853565b015160048201550194519485516001600160401b0381116106b857610d9882546126d4565b601f8111610eaa575b506020968790601f8311600114610e5457928260409386936003966001600160401b0398926105fa5750508160011b915f1990871b1c19161790556001600160a01b0395861680825260078952828220600189019081905580835260058a5292909120929092015460408051959096168552851c9290921683870152339390927f0148a0de706530411746da9dd7cce6e287476743bd7f912d62c75552f251b59b9190a460018055600160405191018152f35b8385528185209190601f198416865b818110610e935750936001600160401b03969360039693600193836040981061064557505050811b019055610582565b92938b600181928786015181550195019301610e63565b82845260208420601f830160051c81019160208410610ee5575b601f0160051c01905b818110610eda5750610da1565b848155600101610ecd565b9091508190610ec4565b610f0991925060203d60201161072257610713818361273c565b905f610bba565b60405163032997db60e31b81526001600160a01b0387166004820152929190602090849060249082905afa92831561081c578493610f87575b508215610b8057610f776020604051838194838301968737810187838201520301601f19810183528261273c565b519020036107ad575f8080610b80565b9092506020813d602011610fb3575b81610fa36020938361273c565b810103126106e05751915f610f49565b3d9150610f96565b610fd4915060203d60201161072257610713818361273c565b5f610b60565b60018060a01b0385168352600760205260408320548352600560205260ff600360408520015460801c16600881101590816106cc5760018114918215611049575b8215611038575b505015610b36576380497e3b60e01b8352600483fd5b9091506108c4576004145f80611022565b506002811491508461101b565b61106f915060203d60201161091c5761090e818361273c565b5f610b15565b50346109c05760203660031901126109c057611092600435612987565b906110b1604051928392151583526040602084015260408301906125ee565b0390f35b50346109c05760203660031901126109c0576110cf612579565b6110d7612bbd565b60018060a01b03166001600160601b0360a01b600454161760045580f35b50346109c057806003193601126109c0576003546040516001600160a01b039091168152602090f35b50346109c057806003193601126109c057602060405160038152f35b50346109c05760203660031901126109c057611154612579565b61115c612bbd565b60018060a01b03166001600160601b0360a01b600354161760035580f35b50346109c057806003193601126109c057602060405162093a808152f35b50346109c05760203660031901126109c0576111b2612579565b906111bb6128dd565b6001600160a01b0390921681526007602052604081205490816111f6575b506110b16040519283928352604060208401526040830190612612565b81604092935081526005602052206112b86005604051926112168461270c565b60018060a01b03815416845260018060a01b0360018201541660208501526001600160401b03600282015460018060a01b038116604087015260a01c16606085015260ff60038201546001600160401b03811660808701526001600160401b038160401c1660a0870152611292828260801c1660c0880161292e565b818160881c1660e087015260901c1661010085015260048101546101208501520161275d565b610140820152905f6111d9565b50346109c057806003193601126109c0576020604051621275008152f35b50346109c05760203660031901126109c057604090600435815260056020522060018060a01b038154166110b160018060a01b036001840154169260028101549060ff60038201546001600160401b0361134460056004860154950161275d565b946040519889988952602089015260018060a01b038116604089015260a01c1660608701526001600160401b03811660808701526001600160401b038160401c1660a087015261139c60c08701838360801c166125e1565b818160881c1660e087015260901c166101008501526101208401526101606101408401526101608301906125ee565b50346109c05760403660031901126109c05760406113e761258f565b9160043581526009602052209060018060a01b03165f52602052602060ff60405f2054166040519015158152f35b50346109c057806003193601126109c057546040516001600160a01b039091168152602090f35b50346109c05760203660031901126109c057600435611459612be3565b80825260056020526040822060038101805460ff8160801c166008811015611779576002811415908161176d575b5061175e5760401c6001600160401b031642116116f95780546001600160401b03811642106116ea5760801c60ff1660088110156106cc57600214611697575b5050808252600560205260408220600254815460018301805493949093909286926001600160a01b03918216929082169116823b156106e05760448492836040519586948593631a65688160e01b8552600485015260248401525af1801561097b57611682575b5050600254835460405163f20ca7ed60e01b81526001600160a01b0391821660048201529160209183916024918391165afa8015611677576001600160401b03918691611648575b50168015158091819261163d575b5015611604575060038301805460ff60801b1916600560801b1790555b82546001600160a01b03908116855260076020908152604080872087905585549454600290960154905190831681529482169493909116927f02f15fccddc354e2331b022195b2ab6306ce04a22561521ebe0e8913c5fb8a5e9190a46001805580f35b156116235760038301805460ff60801b1916600160821b1790556115a1565b60038301805460ff60801b1916600160821b1790556115a1565b90504210155f611584565b61166a915060203d602011611670575b611662818361273c565b810190612897565b5f611576565b503d611658565b6040513d87823e3d90fd5b8161168c9161273c565b6106e057835f61152e565b805460ff60801b1916600160821b1790558054600191909101546001600160a01b039081169116827f35cc46be3cd6c522a5c476fd967d23d863f0012d507dcabc9037ec99a91482d88580a45f806114c7565b6364b81b1960e11b8552600485fd5b805460ff60801b1916600760801b17905580546001600160a01b0390811684526007602052604084208490559054600493929116907fa01f4580d13af8b2fcc988b3e0d01a43aa7310fe0474086214978fab1175ecdf8380a36378e090f760e01b8152fd5b638af69cf160e01b8552600485fd5b6004915014155f611487565b634e487b7160e01b86526021600452602486fd5b50346109c05760403660031901126109c05760406117a961258f565b916004358152600a602052209060018060a01b03165f52602052602060ff60405f2054166040519015158152f35b50346109c05760203660031901126109c05760206117f660043561293a565b604051908152f35b50346109c057806003193601126109c057611817612bbd565b80546001600160a01b03198116825581906001600160a01b03167f8be0079c531659141344cd1fd0a4f28419497f9722a3daafe3b4186f6b6457e08280a380f35b50346109c057806003193601126109c0576002546040516001600160a01b039091168152602090f35b50346109c05760203660031901126109c05760406110b1916118a16128dd565b5060043581526005602052206118bf6005604051926112168461270c565b610140820152604051918291602083526020830190612612565b50346109c05760403660031901126109c0576118f3612579565b7f7a6dd775b9b6aa6ebde6f0c51172ef328eb9658e095364751705f28234e7257c602061191e6125a5565b92611927612bbd565b6001600160a01b0316808552600b825260408520805460ff191660ff86151516179055926040519015158152a280f35b50346109c057806003193601126109c0576020600654604051908152f35b50346109c05760403660031901126109c057604061199161258f565b9160043581526008602052209060018060a01b03165f52602052602060ff60405f2054166040519015158152f35b50346109c05760203660031901126109c05760209060ff906040906001600160a01b036119ea612579565b168152600b84522054166040519015158152f35b50346109c057806003193601126109c057602060405162278d008152f35b50346109c05760403660031901126109c057600435611a396125a5565b90611a42612be3565b808352600560205260408320916003830192835460ff8160801c166008811015611d0f57600103611d005760401c6001600160401b03164211611cf157828552600860209081526040808720335f908152925290205460ff16611ce25754604051630c68ba2160e01b81523360048201526001600160a01b039091169190602081602481865afa908115611cb8578691611cc3575b5015611c8a576040516363f95a3b60e01b8152336004820152602081602481865afa908115611cb8578691611c99575b5015611c8a57828552600860209081526040808720335f8181529184528282208054600160ff1991821617909155878a52600a8552838a20918352908452919020805490911660ff84151516179055600492909180611c58575b60ff865460881c16947f6591fafddb662528da3bece8a0e1a4681e32f5b19a9996e28a15f8e93f9aa8a460405180611bad8933968390929160ff60209160408401951515845216910152565b0390a36040516354387ad760e01b815292839182905afa90811561081c5760ff91611bdf918691611c29575b50612c03565b161115611bef575b506001805580f35b805460ff60801b1916600160811b1781556001600160401b0380611c1242612877565b16166001600160401b03198254161790555f611be7565b611c4b915060203d602011611c51575b611c43818361273c565b81019061283a565b5f611bd9565b503d611c39565b611c85611c6b60ff885460881c16612815565b875460ff60881b191660889190911b60ff60881b16178755565b611b61565b6377b6878160e11b8552600485fd5b611cb2915060203d60201161091c5761090e818361273c565b5f611b07565b6040513d88823e3d90fd5b611cdc915060203d60201161091c5761090e818361273c565b5f611ad7565b637c9a1cf960e01b8552600485fd5b6378e090f760e01b8552600485fd5b6348f8d3b160e01b8652600486fd5b634e487b7160e01b87526021600452602487fd5b50346109c05760403660031901126109c0576004356024356001600160401b038111611ee357611d579036906004016125b4565b90611d60612be3565b828452600560205260408420916003830160ff815460801c1660088110159081611ec2578015918215611ed6575b8215611eb1575b8215611ea0575b5050611e915760028401546001600160a01b03163303611e8257805460ff60801b1916600360811b17905582546001600160a01b031685526007602052604080862086905551339285927f19f658ff9b34c9fd1b45c96134524129191b422b932e9de6a236c952da5b9c5092918291611e1591836128b6565b0390a360018060a01b03905416907f4682ef87b3db3f66192d1dc1efd5d2a314cdd9c61e14219f671c03e6f507823a606060405160208152601c60208201527f4368616c6c656e676564206279206f726967696e616c206f776e6572000000006040820152a36001805580f35b6323a7681d60e01b8652600486fd5b63dc3d406360e01b8652600486fd5b909150611d0f576007145f80611d9c565b809250611ec2576006811491611d95565b634e487b7160e01b88526021600452602488fd5b5060058114915087611d8e565b8280fd5b503461207957602036600319011261207957600435611f04612be3565b805f52600560205260405f20906003820160ff815460801c166008811015612166576004811490811561215b575b501561212757600254835460405163f20ca7ed60e01b81526001600160a01b03918216600482018190529190921691602081602481865afa801561211c576001600160401b03915f916120fd575b501680156120b857421061207d57813b15612079575f9160248392604051948593849263c5c8220360e01b845260048401525af19081612064575b50612003575081546001909201546001600160a01b039081169216907f35cc46be3cd6c522a5c476fd967d23d863f0012d507dcabc9037ec99a91482d88480a45b6001805580f35b805460ff60801b1916600560801b179055815460018301546002909301546040516001600160a01b03918216815293811693911691907f02f15fccddc354e2331b022195b2ab6306ce04a22561521ebe0e8913c5fb8a5e90602090a4611ffc565b6120719195505f9061273c565b5f935f611fbb565b5f80fd5b60405162461bcd60e51b81526020600482015260136024820152721d1a5b595b1bd8dac81b9bdd081c185cdcd959606a1b6044820152606490fd5b60405162461bcd60e51b815260206004820152601d60248201527f7265636f76657279206e6f7420696e69746961746564206f6e206875620000006044820152606490fd5b612116915060203d60201161167057611662818361273c565b5f611f80565b6040513d5f823e3d90fd5b60405162461bcd60e51b815260206004820152600c60248201526b1b9bdd08185c1c1c9bdd995960a21b6044820152606490fd5b60059150145f611f32565b634e487b7160e01b5f52602160045260245ffd5b34612079575f36600319011261207957602060405160028152f35b3461207957602036600319011261207957600435805f52600560205260405f2060038101805460ff8160801c166008811015612166576001811490811561224b575b506121de57005b60401c6001600160401b031642116121f257005b805460ff60801b1916600760801b17905580546001600160a01b039081165f90815260076020526040812081905591541691907fa01f4580d13af8b2fcc988b3e0d01a43aa7310fe0474086214978fab1175ecdf9080a3005b6002915014856121d7565b34612079576020366003190112612079576001600160a01b03612277612579565b165f526007602052602060405f2054604051908152f35b34612079576040366003190112612079576004356122aa6125a5565b906122b3612be3565b805f52600560205260405f206003810192835460ff8160801c1660088110156121665760018114159081612517575b506125085760401c6001600160401b031642116124f9575f83815260096020908152604080832033845290915290205460ff166124ea576004546001600160a01b031680612484575b505f8381526009602090815260408083203384528252909120805460ff19166001179055600492909180612452575b60ff865460901c16947fa4ecbbd4047bd071be58045de89ab2a074bc3d1d10c9cf78d68a5fe784ae2964604051806123a68933968390929160ff60209160408401951515845216910152565b0390a3546040516354387ad760e01b815292839182906001600160a01b03165afa801561211c5760ff915f91612433575b5016159081612427575b506123ed575b60018055005b805460ff60801b1916600160811b1781556001600160401b038061241042612877565b16166001600160401b0319825416179055806123e7565b600391501015826123e1565b61244c915060203d602011611c5157611c43818361273c565b846123d7565b61247f61246560ff885460901c16612815565b875460ff60901b191660909190911b60ff60901b16178755565b61235a565b602060249160405192838092631f33573f60e31b82523360048301525afa90811561211c575f916124cb575b50156124bc578461232b565b63294a492760e01b5f5260045ffd5b6124e4915060203d60201161091c5761090e818361273c565b856124b0565b637c9a1cf960e01b5f5260045ffd5b6378e090f760e01b5f5260045ffd5b6348f8d3b160e01b5f5260045ffd5b600291501415866122e2565b346120795760203660031901126120795761253c612579565b612544612bbd565b6001600160a01b0316801561256a576001600160601b0360a01b60025416176002555f80f35b63d92e233d60e01b5f5260045ffd5b600435906001600160a01b038216820361207957565b602435906001600160a01b038216820361207957565b60243590811515820361207957565b9181601f84011215612079578235916001600160401b038311612079576020838186019501011161207957565b9060088210156121665752565b805180835260209291819084018484015e5f828201840152601f01601f1916010190565b906101606101406126d19360018060a01b03815116845260018060a01b03602082015116602085015260018060a01b0360408201511660408501526001600160401b0360608201511660608501526001600160401b0360808201511660808501526001600160401b0360a08201511660a085015261269860c082015160c08601906125e1565b60ff60e08201511660e085015260ff610100820151166101008501526101208101516101208501520151918161014082015201906125ee565b90565b90600182811c92168015612702575b60208310146126ee57565b634e487b7160e01b5f52602260045260245ffd5b91607f16916126e3565b61016081019081106001600160401b0382111761272857604052565b634e487b7160e01b5f52604160045260245ffd5b90601f801991011681019081106001600160401b0382111761272857604052565b9060405191825f825492612770846126d4565b80845293600181169081156127db5750600114612797575b506127959250038361273c565b565b90505f9291925260205f20905f915b8183106127bf575050906020612795928201015f612788565b60209193508060019154838589010152019101909184926127a6565b90506020925061279594915060ff191682840152151560051b8201015f612788565b90816020910312612079575180151581036120795790565b60ff1660ff81146128265760010190565b634e487b7160e01b5f52601160045260245ffd5b90816020910312612079575160ff811681036120795790565b90600881101561216657815460ff60801b191660809190911b60ff60801b16179055565b9062093a80820180921161282657565b9062278d00820180921161282657565b9081602091031261207957516001600160401b03811681036120795790565b90918060409360208452816020850152848401375f828201840152601f01601f1916010190565b604051906128ea8261270c565b6060610140835f81525f60208201525f60408201525f838201525f60808201525f60a08201525f60c08201525f60e08201525f6101008201525f6101208201520152565b60088210156121665752565b5f5260056020526001600160401b03600360405f2001541680421015612967574281039081116128265790565b505f90565b6001600160401b03811161272857601f01601f191660200190565b5f526005602052600360405f20015460ff8160801c166008811015612166578015612b685760058114612b305760068114612afc5760078114612acd576001600160401b038260401c164211612a9a57600114612a5c576001600160401b03164210612a1f576001906040516129fe60408261273c565b6011815270526561647920746f2066696e616c697a6560781b602082015290565b5f90604051612a2f60408261273c565b601d81527f4368616c6c656e676520706572696f64207374696c6c20616374697665000000602082015290565b505f90604051612a6d60408261273c565b601d81527f57616974696e6720666f7220677561726469616e20617070726f76616c000000602082015290565b50505f90604051612aac60408261273c565b601181527010db185a5b481a185cc8195e1c1a5c9959607a1b602082015290565b50505f90604051612adf60408261273c565b600d81526c10db185a5b48195e1c1a5c9959609a1b602082015290565b50505f90604051612b0e60408261273c565b601281527110db185a5b481dd85cc81c995a9958dd195960721b602082015290565b50505f90604051612b4260408261273c565b601681527510db185a5b48185b1c9958591e48195e1958dd5d195960521b602082015290565b50505f90604051612b7a60408261273c565b601481527310db185a5b48191bd95cc81b9bdd08195e1a5cdd60621b602082015290565b9081602091031261207957516001600160a01b03811681036120795790565b5f546001600160a01b03163303612bd057565b63118cdaa760e01b5f523360045260245ffd5b600260015414612bf4576002600155565b633ee5aeb560e01b5f5260045ffd5b60ff81168015612c635760018114612c5c5760028114612c555760038114612c555760048114612c4e57600514612c4857607f600191821c160160ff81116128265790565b50600390565b5050600390565b5050600290565b5050600190565b50505f9056fea2646970667358221220f1a4461c31332205b2e748bbb4c7ac723998f2ce3ef7cf35a705032ff5d413a664736f6c634300081e0033","linkReferences":{}},"methodIdentifiers":{"CHALLENGE_PERIOD()":"c3a079ed","CLAIM_EXPIRY()":"49d57874","GUARDIAN_VOTE_WINDOW()":"b4cd85af","MIN_GUARDIAN_APPROVALS()":"2941f9df","MIN_NODE_VOTES()":"cd4eb9f8","activeClaimForVault(address)":"14907bfd","canFinalize(uint256)":"e4e2bfe4","challengeClaim(uint256,string)":"3b74b77a","challengeTimeRemaining(uint256)":"7167d427","claimCounter()":"4efa8f17","claims(uint256)":"a888c2cd","expireClaim(uint256)":"15d31806","finalizeClaim(uint256)":"7a971114","finalizeExecution(uint256)":"38d86bcf","getActiveClaimForVault(address)":"bd5e95ba","getClaim(uint256)":"5aef2447","guardianApproval(uint256,address)":"791e95c0","guardianNodeManager()":"eb8ee9e8","guardianVote(uint256,bool)":"42b8af6c","guardianVoted(uint256,address)":"4e75624d","initiateClaim(address,string,bytes32,string)":"e9fcf4dd","initiateClaimByRecoveryId(string,string)":"fdec2609","nodeVote(uint256,bool)":"0746efc2","nodeVoted(uint256,address)":"a32e86bb","owner()":"8da5cb5b","renounceOwnership()":"715018a6","setGuardianNodeManager(address)":"e36b6693","setTrustedVerifier(address,bool)":"54f93e2e","setVaultHub(address)":"0741206e","setVaultRegistry(address)":"cb91dd7b","transferOwnership(address)":"f2fde38b","trustedVerifier(address)":"4d94b96f","vaultHub()":"6dd6e80b","vaultRegistry()":"cdd7b38a"},"id":23}