{"abi":[{"type":"constructor","inputs":[{"name":"_vaultHub","type":"address","internalType":"address"},{"name":"_vaultRegistry","type":"address","internalType":"address"},{"name":"_guardianNodeManager","type":"address","internalType":"address"}],"stateMutability":"nonpayable"},{"type":"function","name":"CHALLENGE_PERIOD","inputs":[],"outputs":[{"name":"","type":"uint64","internalType":"uint64"}],"stateMutability":"view"},{"type":"function","name":"CLAIM_EXPIRY","inputs":[],"outputs":[{"name":"","type":"uint64","internalType":"uint64"}],"stateMutability":"view"},{"type":"function","name":"GUARDIAN_VOTE_WINDOW","inputs":[],"outputs":[{"name":"","type":"uint64","internalType":"uint64"}],"stateMutability":"view"},{"type":"function","name":"MIN_GUARDIAN_APPROVALS","inputs":[],"outputs":[{"name":"","type":"uint8","internalType":"uint8"}],"stateMutability":"view"},{"type":"function","name":"MIN_NODE_VOTES","inputs":[],"outputs":[{"name":"","type":"uint8","internalType":"uint8"}],"stateMutability":"view"},{"type":"function","name":"activeClaimForVault","inputs":[{"name":"","type":"address","internalType":"address"}],"outputs":[{"name":"","type":"uint256","internalType":"uint256"}],"stateMutability":"view"},{"type":"function","name":"canFinalize","inputs":[{"name":"claimId","type":"uint256","internalType":"uint256"}],"outputs":[{"name":"","type":"bool","internalType":"bool"},{"name":"reason","type":"string","internalType":"string"}],"stateMutability":"view"},{"type":"function","name":"challengeClaim","inputs":[{"name":"claimId","type":"uint256","internalType":"uint256"},{"name":"reason","type":"string","internalType":"string"}],"outputs":[],"stateMutability":"nonpayable"},{"type":"function","name":"challengeTimeRemaining","inputs":[{"name":"claimId","type":"uint256","internalType":"uint256"}],"outputs":[{"name":"","type":"uint256","internalType":"uint256"}],"stateMutability":"view"},{"type":"function","name":"claimCounter","inputs":[],"outputs":[{"name":"","type":"uint256","internalType":"uint256"}],"stateMutability":"view"},{"type":"function","name":"claims","inputs":[{"name":"","type":"uint256","internalType":"uint256"}],"outputs":[{"name":"vault","type":"address","internalType":"address"},{"name":"claimant","type":"address","internalType":"address"},{"name":"originalOwner","type":"address","internalType":"address"},{"name":"initiatedAt","type":"uint64","internalType":"uint64"},{"name":"challengeEndsAt","type":"uint64","internalType":"uint64"},{"name":"expiresAt","type":"uint64","internalType":"uint64"},{"name":"status","type":"uint8","internalType":"enum VaultRecoveryClaim.ClaimStatus"},{"name":"guardianApprovals","type":"uint8","internalType":"uint8"},{"name":"nodeVotes","type":"uint8","internalType":"uint8"},{"name":"evidenceHash","type":"bytes32","internalType":"bytes32"},{"name":"claimReason","type":"string","internalType":"string"}],"stateMutability":"view"},{"type":"function","name":"expireClaim","inputs":[{"name":"claimId","type":"uint256","internalType":"uint256"}],"outputs":[],"stateMutability":"nonpayable"},{"type":"function","name":"finalizeClaim","inputs":[{"name":"claimId","type":"uint256","internalType":"uint256"}],"outputs":[],"stateMutability":"nonpayable"},{"type":"function","name":"finalizeExecution","inputs":[{"name":"claimId","type":"uint256","internalType":"uint256"}],"outputs":[],"stateMutability":"nonpayable"},{"type":"function","name":"getActiveClaimForVault","inputs":[{"name":"vault","type":"address","internalType":"address"}],"outputs":[{"name":"claimId","type":"uint256","internalType":"uint256"},{"name":"claim","type":"tuple","internalType":"struct VaultRecoveryClaim.RecoveryClaim","components":[{"name":"vault","type":"address","internalType":"address"},{"name":"claimant","type":"address","internalType":"address"},{"name":"originalOwner","type":"address","internalType":"address"},{"name":"initiatedAt","type":"uint64","internalType":"uint64"},{"name":"challengeEndsAt","type":"uint64","internalType":"uint64"},{"name":"expiresAt","type":"uint64","internalType":"uint64"},{"name":"status","type":"uint8","internalType":"enum VaultRecoveryClaim.ClaimStatus"},{"name":"guardianApprovals","type":"uint8","internalType":"uint8"},{"name":"nodeVotes","type":"uint8","internalType":"uint8"},{"name":"evidenceHash","type":"bytes32","internalType":"bytes32"},{"name":"claimReason","type":"string","internalType":"string"}]}],"stateMutability":"view"},{"type":"function","name":"getClaim","inputs":[{"name":"claimId","type":"uint256","internalType":"uint256"}],"outputs":[{"name":"","type":"tuple","internalType":"struct VaultRecoveryClaim.RecoveryClaim","components":[{"name":"vault","type":"address","internalType":"address"},{"name":"claimant","type":"address","internalType":"address"},{"name":"originalOwner","type":"address","internalType":"address"},{"name":"initiatedAt","type":"uint64","internalType":"uint64"},{"name":"challengeEndsAt","type":"uint64","internalType":"uint64"},{"name":"expiresAt","type":"uint64","internalType":"uint64"},{"name":"status","type":"uint8","internalType":"enum VaultRecoveryClaim.ClaimStatus"},{"name":"guardianApprovals","type":"uint8","internalType":"uint8"},{"name":"nodeVotes","type":"uint8","internalType":"uint8"},{"name":"evidenceHash","type":"bytes32","internalType":"bytes32"},{"name":"claimReason","type":"string","internalType":"string"}]}],"stateMutability":"view"},{"type":"function","name":"guardianApproval","inputs":[{"name":"","type":"uint256","internalType":"uint256"},{"name":"","type":"address","internalType":"address"}],"outputs":[{"name":"","type":"bool","internalType":"bool"}],"stateMutability":"view"},{"type":"function","name":"guardianNodeManager","inputs":[],"outputs":[{"name":"","type":"address","internalType":"contract IGuardianNodeManager"}],"stateMutability":"view"},{"type":"function","name":"guardianVote","inputs":[{"name":"claimId","type":"uint256","internalType":"uint256"},{"name":"approve","type":"bool","internalType":"bool"}],"outputs":[],"stateMutability":"nonpayable"},{"type":"function","name":"guardianVoted","inputs":[{"name":"","type":"uint256","internalType":"uint256"},{"name":"","type":"address","internalType":"address"}],"outputs":[{"name":"","type":"bool","internalType":"bool"}],"stateMutability":"view"},{"type":"function","name":"initiateClaim","inputs":[{"name":"vault","type":"address","internalType":"address"},{"name":"recoveryId","type":"string","internalType":"string"},{"name":"evidenceHash","type":"bytes32","internalType":"bytes32"},{"name":"reason","type":"string","internalType":"string"}],"outputs":[{"name":"claimId","type":"uint256","internalType":"uint256"}],"stateMutability":"nonpayable"},{"type":"function","name":"initiateClaimByRecoveryId","inputs":[{"name":"recoveryId","type":"string","internalType":"string"},{"name":"reason","type":"string","internalType":"string"}],"outputs":[{"name":"claimId","type":"uint256","internalType":"uint256"}],"stateMutability":"nonpayable"},{"type":"function","name":"nodeVote","inputs":[{"name":"claimId","type":"uint256","internalType":"uint256"},{"name":"approve","type":"bool","internalType":"bool"}],"outputs":[],"stateMutability":"nonpayable"},{"type":"function","name":"nodeVoted","inputs":[{"name":"","type":"uint256","internalType":"uint256"},{"name":"","type":"address","internalType":"address"}],"outputs":[{"name":"","type":"bool","internalType":"bool"}],"stateMutability":"view"},{"type":"function","name":"owner","inputs":[],"outputs":[{"name":"","type":"address","internalType":"address"}],"stateMutability":"view"},{"type":"function","name":"renounceOwnership","inputs":[],"outputs":[],"stateMutability":"nonpayable"},{"type":"function","name":"setGuardianNodeManager","inputs":[{"name":"_guardianNodeManager","type":"address","internalType":"address"}],"outputs":[],"stateMutability":"nonpayable"},{"type":"function","name":"setTrustedVerifier","inputs":[{"name":"verifier","type":"address","internalType":"address"},{"name":"trusted","type":"bool","internalType":"bool"}],"outputs":[],"stateMutability":"nonpayable"},{"type":"function","name":"setVaultHub","inputs":[{"name":"_vaultHub","type":"address","internalType":"address"}],"outputs":[],"stateMutability":"nonpayable"},{"type":"function","name":"setVaultRegistry","inputs":[{"name":"_vaultRegistry","type":"address","internalType":"address"}],"outputs":[],"stateMutability":"nonpayable"},{"type":"function","name":"transferOwnership","inputs":[{"name":"newOwner","type":"address","internalType":"address"}],"outputs":[],"stateMutability":"nonpayable"},{"type":"function","name":"trustedVerifier","inputs":[{"name":"","type":"address","internalType":"address"}],"outputs":[{"name":"","type":"bool","internalType":"bool"}],"stateMutability":"view"},{"type":"function","name":"vaultHub","inputs":[],"outputs":[{"name":"","type":"address","internalType":"contract IVaultInfrastructure"}],"stateMutability":"view"},{"type":"function","name":"vaultRegistry","inputs":[],"outputs":[{"name":"","type":"address","internalType":"contract IVaultRegistry"}],"stateMutability":"view"},{"type":"event","name":"ClaimApproved","inputs":[{"name":"claimId","type":"uint256","indexed":true,"internalType":"uint256"},{"name":"vault","type":"address","indexed":true,"internalType":"address"},{"name":"newOwner","type":"address","indexed":true,"internalType":"address"}],"anonymous":false},{"type":"event","name":"ClaimChallenged","inputs":[{"name":"claimId","type":"uint256","indexed":true,"internalType":"uint256"},{"name":"challenger","type":"address","indexed":true,"internalType":"address"},{"name":"reason","type":"string","indexed":false,"internalType":"string"}],"anonymous":false},{"type":"event","name":"ClaimExecuted","inputs":[{"name":"claimId","type":"uint256","indexed":true,"internalType":"uint256"},{"name":"vault","type":"address","indexed":true,"internalType":"address"},{"name":"newOwner","type":"address","indexed":true,"internalType":"address"},{"name":"previousOwner","type":"address","indexed":false,"internalType":"address"}],"anonymous":false},{"type":"event","name":"ClaimExpired","inputs":[{"name":"claimId","type":"uint256","indexed":true,"internalType":"uint256"},{"name":"vault","type":"address","indexed":true,"internalType":"address"}],"anonymous":false},{"type":"event","name":"ClaimInitiated","inputs":[{"name":"claimId","type":"uint256","indexed":true,"internalType":"uint256"},{"name":"vault","type":"address","indexed":true,"internalType":"address"},{"name":"claimant","type":"address","indexed":true,"internalType":"address"},{"name":"originalOwner","type":"address","indexed":false,"internalType":"address"},{"name":"expiresAt","type":"uint64","indexed":false,"internalType":"uint64"}],"anonymous":false},{"type":"event","name":"ClaimRejected","inputs":[{"name":"claimId","type":"uint256","indexed":true,"internalType":"uint256"},{"name":"vault","type":"address","indexed":true,"internalType":"address"},{"name":"reason","type":"string","indexed":false,"internalType":"string"}],"anonymous":false},{"type":"event","name":"GuardianVoteCast","inputs":[{"name":"claimId","type":"uint256","indexed":true,"internalType":"uint256"},{"name":"guardian","type":"address","indexed":true,"internalType":"address"},{"name":"approved","type":"bool","indexed":false,"internalType":"bool"},{"name":"totalApprovals","type":"uint8","indexed":false,"internalType":"uint8"}],"anonymous":false},{"type":"event","name":"NodeVoteCast","inputs":[{"name":"claimId","type":"uint256","indexed":true,"internalType":"uint256"},{"name":"node","type":"address","indexed":true,"internalType":"address"},{"name":"approved","type":"bool","indexed":false,"internalType":"bool"},{"name":"totalVotes","type":"uint8","indexed":false,"internalType":"uint8"}],"anonymous":false},{"type":"event","name":"OwnershipTransferred","inputs":[{"name":"previousOwner","type":"address","indexed":true,"internalType":"address"},{"name":"newOwner","type":"address","indexed":true,"internalType":"address"}],"anonymous":false},{"type":"event","name":"VerifierSet","inputs":[{"name":"verifier","type":"address","indexed":true,"internalType":"address"},{"name":"trusted","type":"bool","indexed":false,"internalType":"bool"}],"anonymous":false},{"type":"error","name":"AlreadyVoted","inputs":[]},{"type":"error","name":"ChallengePeriodActive","inputs":[]},{"type":"error","name":"ChallengePeriodEnded","inputs":[]},{"type":"error","name":"ClaimAlreadyExists","inputs":[]},{"type":"error","name":"ClaimHasExpired","inputs":[]},{"type":"error","name":"ClaimNotPending","inputs":[]},{"type":"error","name":"ClaimantAlreadyHasVault","inputs":[]},{"type":"error","name":"InsufficientApprovals","inputs":[]},{"type":"error","name":"InvalidVault","inputs":[]},{"type":"error","name":"NoActiveClaim","inputs":[]},{"type":"error","name":"NotClaimant","inputs":[]},{"type":"error","name":"NotGuardian","inputs":[]},{"type":"error","name":"NotGuardianNode","inputs":[]},{"type":"error","name":"NotOriginalOwner","inputs":[]},{"type":"error","name":"OwnableInvalidOwner","inputs":[{"name":"owner","type":"address","internalType":"address"}]},{"type":"error","name":"OwnableUnauthorizedAccount","inputs":[{"name":"account","type":"address","internalType":"address"}]},{"type":"error","name":"ReentrancyGuardReentrantCall","inputs":[]},{"type":"error","name":"VaultHasNoClaim","inputs":[]},{"type":"error","name":"ZeroAddress","inputs":[]}],"bytecode":{"object":"0x60803461012b57601f612fd438819003918201601f19168301916001600160401b0383118484101761012f5780849260609460405283398101031261012b5761004781610143565b90610060604061005960208401610143565b9201610143565b903315610118575f8054336001600160a01b0319821681178355604051959290916001600160a01b0316907f8be0079c531659141344cd1fd0a4f28419497f9722a3daafe3b4186f6b6457e09080a3600180556001600160a01b0316801561010957600280546001600160a01b03199081169290921790556003805482166001600160a01b039384161790556004805490911692909116919091179055612e7c90816101588239f35b63d92e233d60e01b5f5260045ffd5b631e4fbdf760e01b5f525f60045260245ffd5b5f80fd5b634e487b7160e01b5f52604160045260245ffd5b51906001600160a01b038216820361012b5756fe60806040526004361015610011575f80fd5b5f5f3560e01c80630741206e146127005780630746efc21461242d57806314907bfd146123f557806315d31806146123345780632941f9df1461231957806338d86bcf146120865780633b74b77a14611ec257806342b8af6c14611bbb57806349d5787414611b9d5780634d94b96f14611b5e5780634e75624d14611b145780634efa8f1714611af657806354f93e2e14611a785780635aef244714611a205780636dd6e80b146119f7578063715018a61461199d5780637167d42714611976578063791e95c01461192c5780637a971114146115ef5780638da5cb5b146115c8578063a32e86bb1461157e578063a888c2cd14611496578063b4cd85af14611478578063bd5e95ba1461134b578063c3a079ed1461132d578063cb91dd7b146112ed578063cd4eb9f8146112d1578063cdd7b38a146112a8578063e36b669314611268578063e4e2bfe414611228578063e9fcf4dd14610b65578063eb8ee9e814610b3c578063f2fde38b14610ab65763fdec260914610190575f80fd5b34610ab3576040366003190112610ab3576004356001600160401b038111610ab1576101c0903690600401612791565b906024356001600160401b0381116106f1576101e0903690600401612791565b9290936101eb612dc0565b6003546001600160a01b0316928315610a7957602060405180956328cc671160e01b8252818061021f888760048401612a93565b03915afa938415610a6e578294610a4d575b506001600160a01b03841615610a165760025460405163652b9b4160e01b81526001600160a01b038681166004830152909160209183916024918391165afa908115610a0b5783916109dc575b50156109cd576001600160a01b038416825260076020526040822054610866575b600254604051630709df4560e01b81523360048201526001600160a01b039091169390602081602481885afa90811561082d578491610847575b506001600160a01b0316610838576003546001600160a01b031680610747575b5050604051632724fe0960e01b81526001600160a01b03851660048201529260209150839060249082905afa91821561073a578192610709575b50600654935f1985146106f557600185016006556001600160401b0361035842612a54565b16906001600160401b0361036b42612a64565b1660405192610379846128e9565b6001600160a01b03878116855233602086015286166040850152426001600160401b03166060850152608084015260a0830152600160c083015260e08201839052610100820183905261012082018390526103d381612b49565b966103e16040519889612919565b81885236828201116106f157818492602092838b013788010152610140810195865260018581018352600560209081526040808520845181546001600160a01b03199081166001600160a01b03928316178355938601519482018054909416948116949094179092558084015160028301805460608701516001600160e01b0319909116929095169190911760a094851b67ffffffffffffffff60a01b161790556080840151600383018054948601516001600160801b03199095166001600160401b0392909216919091179390911b67ffffffffffffffff60401b1692909217825560c08301519092919060088110156106dd5791610528826104eb6005969561012095612a30565b60e0830151815460ff60881b191660889190911b60ff60881b16178155610100830151815460ff60901b191660909190911b60ff60901b16179055565b015160048201550194519485516001600160401b0381116106c95761054d82546128b1565b601f8111610684575b506020968790601f831160011461061657928260409386936003966001600160401b03989261060b575b50508160011b915f1990871b1c19161790555b6001600160a01b0395861680825260078952828220600189019081905580835260058a5292909120929092015460408051959096168552851c9290921683870152339390927f0148a0de706530411746da9dd7cce6e287476743bd7f912d62c75552f251b59b9190a460018055600160405191018152f35b015190505f80610580565b8385528185209190601f198416865b81811061066d5750936001600160401b039693600396936001938360409810610656575b505050811b019055610593565b01515f1983891b60f8161c191690555f8080610649565b92938b600181928786015181550195019301610625565b82845260208420601f830160051c810191602084106106bf575b601f0160051c01905b8181106106b45750610556565b8481556001016106a7565b909150819061069e565b634e487b7160e01b83526041600452602483fd5b634e487b7160e01b85526021600452602485fd5b8380fd5b634e487b7160e01b82526011600452602482fd5b61072c91925060203d602011610733575b6107248183612919565b810190612d7b565b905f610333565b503d61071a565b50604051903d90823e3d90fd5b60405163032997db60e31b81526001600160a01b0387166004820152929190602090849060249082905afa92831561082d5784936107f9575b5082156102f9576107ae6020604051838194838301968737810187838201520301601f198101835282612919565b519020036107be575f80806102f9565b60405162461bcd60e51b8152602060048201526013602482015272125b9d985b1a59081c9958dbdd995c9e481251606a1b6044820152606490fd5b9092506020813d602011610825575b8161081560209383612919565b810103126106f15751915f610780565b3d9150610808565b6040513d86823e3d90fd5b634657e50360e01b8352600483fd5b610860915060203d602011610733576107248183612919565b5f6102d9565b60018060a01b038416825260076020526040822054825260056020526003604083200180546001600160401b038160401c1642118061096e575b156108d45750805460ff60801b1916600760801b1790556001600160a01b038416825260076020526040822082905561029f565b60ff915060801c166008811015908161094d5760018114918215610961575b821561093c575b8215610917575b50501561029f576380497e3b60e01b8252600482fd5b909150610928576003145f80610901565b634e487b7160e01b83526021600452602483fd5b80925061094d5760048114916108fa565b634e487b7160e01b84526021600452602484fd5b50600281149150836108f3565b5060ff8160801c16600881101590816109b957600181149182156109ac575b821561099b575b50506108a0565b9091506106dd576003145f80610994565b506002811491508561098d565b634e487b7160e01b86526021600452602486fd5b630681d31960e51b8252600482fd5b6109fe915060203d602011610a04575b6109f68183612919565b8101906129da565b5f61027e565b503d6109ec565b6040513d85823e3d90fd5b60405162461bcd60e51b815260206004820152600f60248201526e15985d5b1d081b9bdd08199bdd5b99608a1b6044820152606490fd5b610a6791945060203d602011610733576107248183612919565b925f610231565b6040513d84823e3d90fd5b60405162461bcd60e51b815260206004820152601060248201526f149959da5cdd1c9e481b9bdd081cd95d60821b6044820152606490fd5b505b80fd5b5034610ab3576020366003190112610ab357610ad0612756565b610ad8612d9a565b6001600160a01b03168015610b285781546001600160a01b03198116821783556001600160a01b03167f8be0079c531659141344cd1fd0a4f28419497f9722a3daafe3b4186f6b6457e08380a380f35b631e4fbdf760e01b82526004829052602482fd5b5034610ab35780600319360112610ab3576004546040516001600160a01b039091168152602090f35b5034610ab3576080366003190112610ab357610b7f612756565b906024356001600160401b038111610ab157610b9f903690600401612791565b6064939193356001600160401b0381116106f157610bc1903690600401612791565b939094610bcc612dc0565b60025460405163652b9b4160e01b81526001600160a01b038681166004830152909160209183916024918391165afa908115610a0b578391611209575b50156109cd576001600160a01b0384168252600760205260408220546110de575b600254604051630709df4560e01b81523360048201526001600160a01b039091169390602081602481885afa90811561082d5784916110bf575b506001600160a01b0316610838576003546001600160a01b031680611014575b5050604051632724fe0960e01b81526001600160a01b03851660048201529260209150839060249082905afa91821561073a578192610ff3575b50600654935f1985146106f557600185016006556001600160401b03610ce342612a54565b16906001600160401b03610cf642612a64565b1660405192610d04846128e9565b6001600160a01b03878116855233602086015286166040850152426001600160401b03166060850152608084015260a0830152600160c083015260e082018390526101008201839052604435610120830152610d5f81612b49565b96610d6d6040519889612919565b81885236828201116106f157818492602092838b013788010152610140810195865260018581018352600560209081526040808520845181546001600160a01b03199081166001600160a01b03928316178355938601519482018054909416948116949094179092558084015160028301805460608701516001600160e01b0319909116929095169190911760a094851b67ffffffffffffffff60a01b161790556080840151600383018054948601516001600160801b03199095166001600160401b0392909216919091179390911b67ffffffffffffffff60401b1692909217825560c08301519092919060088110156106dd5791610e77826104eb6005969561012095612a30565b015160048201550194519485516001600160401b0381116106c957610e9c82546128b1565b601f8111610fae575b506020968790601f8311600114610f5857928260409386936003966001600160401b03989261060b5750508160011b915f1990871b1c19161790556001600160a01b0395861680825260078952828220600189019081905580835260058a5292909120929092015460408051959096168552851c9290921683870152339390927f0148a0de706530411746da9dd7cce6e287476743bd7f912d62c75552f251b59b9190a460018055600160405191018152f35b8385528185209190601f198416865b818110610f975750936001600160401b03969360039693600193836040981061065657505050811b019055610593565b92938b600181928786015181550195019301610f67565b82845260208420601f830160051c81019160208410610fe9575b601f0160051c01905b818110610fde5750610ea5565b848155600101610fd1565b9091508190610fc8565b61100d91925060203d602011610733576107248183612919565b905f610cbe565b60405163032997db60e31b81526001600160a01b0387166004820152929190602090849060249082905afa92831561082d57849361108b575b508215610c845761107b6020604051838194838301968737810187838201520301601f198101835282612919565b519020036107be575f8080610c84565b9092506020813d6020116110b7575b816110a760209383612919565b810103126106f15751915f61104d565b3d915061109a565b6110d8915060203d602011610733576107248183612919565b5f610c64565b60018060a01b038416825260076020526040822054825260056020526003604083200180546001600160401b038160401c164211806111be575b1561114c5750805460ff60801b1916600760801b1790556001600160a01b0384168252600760205260408220829055610c2a565b60ff915060801c166008811015908161094d57600181149182156111b1575b82156111a0575b821561118f575b505015610c2a576380497e3b60e01b8252600482fd5b909150610928576003145f80611179565b80925061094d576004811491611172565b506002811491508361116b565b5060ff8160801c16600881101590816109b957600181149182156111fc575b82156111eb575b5050611118565b9091506106dd576003145f806111e4565b50600281149150856111dd565b611222915060203d602011610a04576109f68183612919565b5f610c09565b5034610ab3576020366003190112610ab357611245600435612b64565b90611264604051928392151583526040602084015260408301906127cb565b0390f35b5034610ab3576020366003190112610ab357611282612756565b61128a612d9a565b60018060a01b03166001600160601b0360a01b600454161760045580f35b5034610ab35780600319360112610ab3576003546040516001600160a01b039091168152602090f35b5034610ab35780600319360112610ab357602060405160038152f35b5034610ab3576020366003190112610ab357611307612756565b61130f612d9a565b60018060a01b03166001600160601b0360a01b600354161760035580f35b5034610ab35780600319360112610ab357602060405162093a808152f35b5034610ab3576020366003190112610ab357611365612756565b9061136e612aba565b6001600160a01b0390921681526007602052604081205490816113a9575b5061126460405192839283526040602084015260408301906127ef565b816040929350815260056020522061146b6005604051926113c9846128e9565b60018060a01b03815416845260018060a01b0360018201541660208501526001600160401b03600282015460018060a01b038116604087015260a01c16606085015260ff60038201546001600160401b03811660808701526001600160401b038160401c1660a0870152611445828260801c1660c08801612b0b565b818160881c1660e087015260901c1661010085015260048101546101208501520161293a565b610140820152905f61138c565b5034610ab35780600319360112610ab3576020604051621275008152f35b5034610ab3576020366003190112610ab357604090600435815260056020522060018060a01b0381541661126460018060a01b036001840154169260028101549060ff60038201546001600160401b036114f760056004860154950161293a565b946040519889988952602089015260018060a01b038116604089015260a01c1660608701526001600160401b03811660808701526001600160401b038160401c1660a087015261154f60c08701838360801c166127be565b818160881c1660e087015260901c166101008501526101208401526101606101408401526101608301906127cb565b5034610ab3576040366003190112610ab357604061159a61276c565b9160043581526009602052209060018060a01b03165f52602052602060ff60405f2054166040519015158152f35b5034610ab35780600319360112610ab357546040516001600160a01b039091168152602090f35b5034610ab3576020366003190112610ab35760043561160c612dc0565b80825260056020526040822060038101805460ff8160801c1660088110156109b95760028114159081611920575b506119115760401c6001600160401b031642116118ac5780546001600160401b038116421061189d5760801c60ff1660088110156106dd5760021461184a575b5050808252600560205260408220600254815460018301805493949093909286926001600160a01b03918216929082169116823b156106f15760448492836040519586948593631a65688160e01b8552600485015260248401525af18015610a6e57611835575b5050600254835460405163f20ca7ed60e01b81526001600160a01b0391821660048201529160209183916024918391165afa801561182a576001600160401b039186916117fb575b5016801515809181926117f0575b50156117b7575060038301805460ff60801b1916600560801b1790555b82546001600160a01b03908116855260076020908152604080872087905585549454600290960154905190831681529482169493909116927f02f15fccddc354e2331b022195b2ab6306ce04a22561521ebe0e8913c5fb8a5e9190a46001805580f35b156117d65760038301805460ff60801b1916600160821b179055611754565b60038301805460ff60801b1916600160821b179055611754565b90504210155f611737565b61181d915060203d602011611823575b6118158183612919565b810190612a74565b5f611729565b503d61180b565b6040513d87823e3d90fd5b8161183f91612919565b6106f157835f6116e1565b805460ff60801b1916600160821b1790558054600191909101546001600160a01b039081169116827f35cc46be3cd6c522a5c476fd967d23d863f0012d507dcabc9037ec99a91482d88580a45f8061167a565b6364b81b1960e11b8552600485fd5b805460ff60801b1916600760801b17905580546001600160a01b0390811684526007602052604084208490559054600493929116907fa01f4580d13af8b2fcc988b3e0d01a43aa7310fe0474086214978fab1175ecdf8380a36378e090f760e01b8152fd5b638af69cf160e01b8552600485fd5b6004915014155f61163a565b5034610ab3576040366003190112610ab357604061194861276c565b916004358152600a602052209060018060a01b03165f52602052602060ff60405f2054166040519015158152f35b5034610ab3576020366003190112610ab3576020611995600435612b17565b604051908152f35b5034610ab35780600319360112610ab3576119b6612d9a565b80546001600160a01b03198116825581906001600160a01b03167f8be0079c531659141344cd1fd0a4f28419497f9722a3daafe3b4186f6b6457e08280a380f35b5034610ab35780600319360112610ab3576002546040516001600160a01b039091168152602090f35b5034610ab3576020366003190112610ab357604061126491611a40612aba565b506004358152600560205220611a5e6005604051926113c9846128e9565b6101408201526040519182916020835260208301906127ef565b5034610ab3576040366003190112610ab357611a92612756565b7f7a6dd775b9b6aa6ebde6f0c51172ef328eb9658e095364751705f28234e7257c6020611abd612782565b92611ac6612d9a565b6001600160a01b0316808552600b825260408520805460ff191660ff86151516179055926040519015158152a280f35b5034610ab35780600319360112610ab3576020600654604051908152f35b5034610ab3576040366003190112610ab3576040611b3061276c565b9160043581526008602052209060018060a01b03165f52602052602060ff60405f2054166040519015158152f35b5034610ab3576020366003190112610ab35760209060ff906040906001600160a01b03611b89612756565b168152600b84522054166040519015158152f35b5034610ab35780600319360112610ab357602060405162278d008152f35b5034610ab3576040366003190112610ab357600435611bd8612782565b90611be1612dc0565b808352600560205260408320916003830192835460ff8160801c166008811015611eae57600103611e9f5760401c6001600160401b03164211611e9057828552600860209081526040808720335f908152925290205460ff16611e815754604051630c68ba2160e01b81523360048201526001600160a01b039091169190602081602481865afa908115611e57578691611e62575b5015611e29576040516363f95a3b60e01b8152336004820152602081602481865afa908115611e57578691611e38575b5015611e2957828552600860209081526040808720335f8181529184528282208054600160ff1991821617909155878a52600a8552838a20918352908452919020805490911660ff84151516179055600492909180611df7575b60ff865460881c16947f6591fafddb662528da3bece8a0e1a4681e32f5b19a9996e28a15f8e93f9aa8a460405180611d4c8933968390929160ff60209160408401951515845216910152565b0390a36040516354387ad760e01b815292839182905afa90811561082d5760ff91611d7e918691611dc8575b50612de0565b161115611d8e575b506001805580f35b805460ff60801b1916600160811b1781556001600160401b0380611db142612a54565b16166001600160401b03198254161790555f611d86565b611dea915060203d602011611df0575b611de28183612919565b810190612a17565b5f611d78565b503d611dd8565b611e24611e0a60ff885460881c166129f2565b875460ff60881b191660889190911b60ff60881b16178755565b611d00565b6377b6878160e11b8552600485fd5b611e51915060203d602011610a04576109f68183612919565b5f611ca6565b6040513d88823e3d90fd5b611e7b915060203d602011610a04576109f68183612919565b5f611c76565b637c9a1cf960e01b8552600485fd5b6378e090f760e01b8552600485fd5b6348f8d3b160e01b8652600486fd5b634e487b7160e01b87526021600452602487fd5b5034610ab3576040366003190112610ab3576004356024356001600160401b03811161208257611ef6903690600401612791565b90611eff612dc0565b828452600560205260408420916003830160ff815460801c1660088110159081612061578015918215612075575b8215612050575b821561203f575b50506120305760028401546001600160a01b0316330361202157805460ff60801b1916600360811b17905582546001600160a01b031685526007602052604080862086905551339285927f19f658ff9b34c9fd1b45c96134524129191b422b932e9de6a236c952da5b9c5092918291611fb49183612a93565b0390a360018060a01b03905416907f4682ef87b3db3f66192d1dc1efd5d2a314cdd9c61e14219f671c03e6f507823a606060405160208152601c60208201527f4368616c6c656e676564206279206f726967696e616c206f776e6572000000006040820152a36001805580f35b6323a7681d60e01b8652600486fd5b63dc3d406360e01b8652600486fd5b909150611eae576007145f80611f3b565b809250612061576006811491611f34565b634e487b7160e01b88526021600452602488fd5b5060058114915087611f2d565b8280fd5b5034612218576020366003190112612218576004356120a3612dc0565b805f52600560205260405f20906003820160ff815460801c16600881101561230557600481149081156122fa575b50156122c657600254835460405163f20ca7ed60e01b81526001600160a01b03918216600482018190529190921691602081602481865afa80156122bb576001600160401b03915f9161229c575b5016801561225757421061221c57813b15612218575f9160248392604051948593849263c5c8220360e01b845260048401525af19081612203575b506121a2575081546001909201546001600160a01b039081169216907f35cc46be3cd6c522a5c476fd967d23d863f0012d507dcabc9037ec99a91482d88480a45b6001805580f35b805460ff60801b1916600560801b179055815460018301546002909301546040516001600160a01b03918216815293811693911691907f02f15fccddc354e2331b022195b2ab6306ce04a22561521ebe0e8913c5fb8a5e90602090a461219b565b6122109195505f90612919565b5f935f61215a565b5f80fd5b60405162461bcd60e51b81526020600482015260136024820152721d1a5b595b1bd8dac81b9bdd081c185cdcd959606a1b6044820152606490fd5b60405162461bcd60e51b815260206004820152601d60248201527f7265636f76657279206e6f7420696e69746961746564206f6e206875620000006044820152606490fd5b6122b5915060203d602011611823576118158183612919565b5f61211f565b6040513d5f823e3d90fd5b60405162461bcd60e51b815260206004820152600c60248201526b1b9bdd08185c1c1c9bdd995960a21b6044820152606490fd5b60059150145f6120d1565b634e487b7160e01b5f52602160045260245ffd5b34612218575f36600319011261221857602060405160028152f35b3461221857602036600319011261221857600435805f52600560205260405f2060038101805460ff8160801c16600881101561230557600181149081156123ea575b5061237d57005b60401c6001600160401b0316421161239157005b805460ff60801b1916600760801b17905580546001600160a01b039081165f90815260076020526040812081905591541691907fa01f4580d13af8b2fcc988b3e0d01a43aa7310fe0474086214978fab1175ecdf9080a3005b600291501485612376565b34612218576020366003190112612218576001600160a01b03612416612756565b165f526007602052602060405f2054604051908152f35b3461221857604036600319011261221857600435612449612782565b90612452612dc0565b805f52600560205260405f206003810192835460ff8160801c16600881101561230557600181141590816126f4575b506126e55760401c6001600160401b031642116126d6575f83815260096020908152604080832033845290915290205460ff166126c7576004546001600160a01b0316801561268257602060249160405192838092631f33573f60e31b82523360048301525afa9081156122bb575f91612663575b5015612654575f8381526009602090815260408083203384528252909120805460ff19166001179055600492909180612622575b60ff865460901c16947fa4ecbbd4047bd071be58045de89ab2a074bc3d1d10c9cf78d68a5fe784ae2964604051806125768933968390929160ff60209160408401951515845216910152565b0390a3546040516354387ad760e01b815292839182906001600160a01b03165afa80156122bb5760ff915f91612603575b50161590816125f7575b506125bd575b60018055005b805460ff60801b1916600160811b1781556001600160401b03806125e042612a54565b16166001600160401b0319825416179055806125b7565b600391501015826125b1565b61261c915060203d602011611df057611de28183612919565b846125a7565b61264f61263560ff885460901c166129f2565b875460ff60901b191660909190911b60ff60901b16178755565b61252a565b63294a492760e01b5f5260045ffd5b61267c915060203d602011610a04576109f68183612919565b856124f6565b60405162461bcd60e51b815260206004820152601d60248201527f477561726469616e206e6f6465206d616e61676572206e6f74207365740000006044820152606490fd5b637c9a1cf960e01b5f5260045ffd5b6378e090f760e01b5f5260045ffd5b6348f8d3b160e01b5f5260045ffd5b60029150141586612481565b3461221857602036600319011261221857612719612756565b612721612d9a565b6001600160a01b03168015612747576001600160601b0360a01b60025416176002555f80f35b63d92e233d60e01b5f5260045ffd5b600435906001600160a01b038216820361221857565b602435906001600160a01b038216820361221857565b60243590811515820361221857565b9181601f84011215612218578235916001600160401b038311612218576020838186019501011161221857565b9060088210156123055752565b805180835260209291819084018484015e5f828201840152601f01601f1916010190565b906101606101406128ae9360018060a01b03815116845260018060a01b03602082015116602085015260018060a01b0360408201511660408501526001600160401b0360608201511660608501526001600160401b0360808201511660808501526001600160401b0360a08201511660a085015261287560c082015160c08601906127be565b60ff60e08201511660e085015260ff610100820151166101008501526101208101516101208501520151918161014082015201906127cb565b90565b90600182811c921680156128df575b60208310146128cb57565b634e487b7160e01b5f52602260045260245ffd5b91607f16916128c0565b61016081019081106001600160401b0382111761290557604052565b634e487b7160e01b5f52604160045260245ffd5b90601f801991011681019081106001600160401b0382111761290557604052565b9060405191825f82549261294d846128b1565b80845293600181169081156129b85750600114612974575b5061297292500383612919565b565b90505f9291925260205f20905f915b81831061299c575050906020612972928201015f612965565b6020919350806001915483858901015201910190918492612983565b90506020925061297294915060ff191682840152151560051b8201015f612965565b90816020910312612218575180151581036122185790565b60ff1660ff8114612a035760010190565b634e487b7160e01b5f52601160045260245ffd5b90816020910312612218575160ff811681036122185790565b90600881101561230557815460ff60801b191660809190911b60ff60801b16179055565b9062093a808201809211612a0357565b9062278d008201809211612a0357565b9081602091031261221857516001600160401b03811681036122185790565b90918060409360208452816020850152848401375f828201840152601f01601f1916010190565b60405190612ac7826128e9565b6060610140835f81525f60208201525f60408201525f838201525f60808201525f60a08201525f60c08201525f60e08201525f6101008201525f6101208201520152565b60088210156123055752565b5f5260056020526001600160401b03600360405f2001541680421015612b4457428103908111612a035790565b505f90565b6001600160401b03811161290557601f01601f191660200190565b5f526005602052600360405f20015460ff8160801c166008811015612305578015612d455760058114612d0d5760068114612cd95760078114612caa576001600160401b038260401c164211612c7757600114612c39576001600160401b03164210612bfc57600190604051612bdb604082612919565b6011815270526561647920746f2066696e616c697a6560781b602082015290565b5f90604051612c0c604082612919565b601d81527f4368616c6c656e676520706572696f64207374696c6c20616374697665000000602082015290565b505f90604051612c4a604082612919565b601d81527f57616974696e6720666f7220677561726469616e20617070726f76616c000000602082015290565b50505f90604051612c89604082612919565b601181527010db185a5b481a185cc8195e1c1a5c9959607a1b602082015290565b50505f90604051612cbc604082612919565b600d81526c10db185a5b48195e1c1a5c9959609a1b602082015290565b50505f90604051612ceb604082612919565b601281527110db185a5b481dd85cc81c995a9958dd195960721b602082015290565b50505f90604051612d1f604082612919565b601681527510db185a5b48185b1c9958591e48195e1958dd5d195960521b602082015290565b50505f90604051612d57604082612919565b601481527310db185a5b48191bd95cc81b9bdd08195e1a5cdd60621b602082015290565b9081602091031261221857516001600160a01b03811681036122185790565b5f546001600160a01b03163303612dad57565b63118cdaa760e01b5f523360045260245ffd5b600260015414612dd1576002600155565b633ee5aeb560e01b5f5260045ffd5b60ff81168015612e405760018114612e395760028114612e325760038114612e325760048114612e2b57600514612e2557607f600191821c160160ff8111612a035790565b50600390565b5050600390565b5050600290565b5050600190565b50505f9056fea2646970667358221220dbe3bea9590345e4ad8d151e1f57b2d6a673f2617fe828521855a9fe9129339964736f6c634300081e0033","linkReferences":{}},"methodIdentifiers":{"CHALLENGE_PERIOD()":"c3a079ed","CLAIM_EXPIRY()":"49d57874","GUARDIAN_VOTE_WINDOW()":"b4cd85af","MIN_GUARDIAN_APPROVALS()":"2941f9df","MIN_NODE_VOTES()":"cd4eb9f8","activeClaimForVault(address)":"14907bfd","canFinalize(uint256)":"e4e2bfe4","challengeClaim(uint256,string)":"3b74b77a","challengeTimeRemaining(uint256)":"7167d427","claimCounter()":"4efa8f17","claims(uint256)":"a888c2cd","expireClaim(uint256)":"15d31806","finalizeClaim(uint256)":"7a971114","finalizeExecution(uint256)":"38d86bcf","getActiveClaimForVault(address)":"bd5e95ba","getClaim(uint256)":"5aef2447","guardianApproval(uint256,address)":"791e95c0","guardianNodeManager()":"eb8ee9e8","guardianVote(uint256,bool)":"42b8af6c","guardianVoted(uint256,address)":"4e75624d","initiateClaim(address,string,bytes32,string)":"e9fcf4dd","initiateClaimByRecoveryId(string,string)":"fdec2609","nodeVote(uint256,bool)":"0746efc2","nodeVoted(uint256,address)":"a32e86bb","owner()":"8da5cb5b","renounceOwnership()":"715018a6","setGuardianNodeManager(address)":"e36b6693","setTrustedVerifier(address,bool)":"54f93e2e","setVaultHub(address)":"0741206e","setVaultRegistry(address)":"cb91dd7b","transferOwnership(address)":"f2fde38b","trustedVerifier(address)":"4d94b96f","vaultHub()":"6dd6e80b","vaultRegistry()":"cdd7b38a"},"id":39}