{"abi":[{"type":"constructor","inputs":[{"name":"_vaultHub","type":"address","internalType":"address"},{"name":"_vaultRegistry","type":"address","internalType":"address"},{"name":"_guardianNodeManager","type":"address","internalType":"address"}],"stateMutability":"nonpayable"},{"type":"function","name":"CHALLENGE_PERIOD","inputs":[],"outputs":[{"name":"","type":"uint64","internalType":"uint64"}],"stateMutability":"view"},{"type":"function","name":"CLAIM_EXPIRY","inputs":[],"outputs":[{"name":"","type":"uint64","internalType":"uint64"}],"stateMutability":"view"},{"type":"function","name":"GUARDIAN_VOTE_WINDOW","inputs":[],"outputs":[{"name":"","type":"uint64","internalType":"uint64"}],"stateMutability":"view"},{"type":"function","name":"MIN_GUARDIAN_APPROVALS","inputs":[],"outputs":[{"name":"","type":"uint8","internalType":"uint8"}],"stateMutability":"view"},{"type":"function","name":"MIN_NODE_VOTES","inputs":[],"outputs":[{"name":"","type":"uint8","internalType":"uint8"}],"stateMutability":"view"},{"type":"function","name":"activeClaimForVault","inputs":[{"name":"","type":"address","internalType":"address"}],"outputs":[{"name":"","type":"uint256","internalType":"uint256"}],"stateMutability":"view"},{"type":"function","name":"canFinalize","inputs":[{"name":"claimId","type":"uint256","internalType":"uint256"}],"outputs":[{"name":"","type":"bool","internalType":"bool"},{"name":"reason","type":"string","internalType":"string"}],"stateMutability":"view"},{"type":"function","name":"challengeClaim","inputs":[{"name":"claimId","type":"uint256","internalType":"uint256"},{"name":"reason","type":"string","internalType":"string"}],"outputs":[],"stateMutability":"nonpayable"},{"type":"function","name":"challengeTimeRemaining","inputs":[{"name":"claimId","type":"uint256","internalType":"uint256"}],"outputs":[{"name":"","type":"uint256","internalType":"uint256"}],"stateMutability":"view"},{"type":"function","name":"claimCounter","inputs":[],"outputs":[{"name":"","type":"uint256","internalType":"uint256"}],"stateMutability":"view"},{"type":"function","name":"claims","inputs":[{"name":"","type":"uint256","internalType":"uint256"}],"outputs":[{"name":"vault","type":"address","internalType":"address"},{"name":"claimant","type":"address","internalType":"address"},{"name":"originalOwner","type":"address","internalType":"address"},{"name":"initiatedAt","type":"uint64","internalType":"uint64"},{"name":"challengeEndsAt","type":"uint64","internalType":"uint64"},{"name":"expiresAt","type":"uint64","internalType":"uint64"},{"name":"status","type":"uint8","internalType":"enum VaultRecoveryClaim.ClaimStatus"},{"name":"guardianApprovals","type":"uint8","internalType":"uint8"},{"name":"nodeVotes","type":"uint8","internalType":"uint8"},{"name":"evidenceHash","type":"bytes32","internalType":"bytes32"},{"name":"claimReason","type":"string","internalType":"string"}],"stateMutability":"view"},{"type":"function","name":"expireClaim","inputs":[{"name":"claimId","type":"uint256","internalType":"uint256"}],"outputs":[],"stateMutability":"nonpayable"},{"type":"function","name":"finalizeClaim","inputs":[{"name":"claimId","type":"uint256","internalType":"uint256"}],"outputs":[],"stateMutability":"nonpayable"},{"type":"function","name":"getActiveClaimForVault","inputs":[{"name":"vault","type":"address","internalType":"address"}],"outputs":[{"name":"claimId","type":"uint256","internalType":"uint256"},{"name":"claim","type":"tuple","internalType":"struct VaultRecoveryClaim.RecoveryClaim","components":[{"name":"vault","type":"address","internalType":"address"},{"name":"claimant","type":"address","internalType":"address"},{"name":"originalOwner","type":"address","internalType":"address"},{"name":"initiatedAt","type":"uint64","internalType":"uint64"},{"name":"challengeEndsAt","type":"uint64","internalType":"uint64"},{"name":"expiresAt","type":"uint64","internalType":"uint64"},{"name":"status","type":"uint8","internalType":"enum VaultRecoveryClaim.ClaimStatus"},{"name":"guardianApprovals","type":"uint8","internalType":"uint8"},{"name":"nodeVotes","type":"uint8","internalType":"uint8"},{"name":"evidenceHash","type":"bytes32","internalType":"bytes32"},{"name":"claimReason","type":"string","internalType":"string"}]}],"stateMutability":"view"},{"type":"function","name":"getClaim","inputs":[{"name":"claimId","type":"uint256","internalType":"uint256"}],"outputs":[{"name":"","type":"tuple","internalType":"struct VaultRecoveryClaim.RecoveryClaim","components":[{"name":"vault","type":"address","internalType":"address"},{"name":"claimant","type":"address","internalType":"address"},{"name":"originalOwner","type":"address","internalType":"address"},{"name":"initiatedAt","type":"uint64","internalType":"uint64"},{"name":"challengeEndsAt","type":"uint64","internalType":"uint64"},{"name":"expiresAt","type":"uint64","internalType":"uint64"},{"name":"status","type":"uint8","internalType":"enum VaultRecoveryClaim.ClaimStatus"},{"name":"guardianApprovals","type":"uint8","internalType":"uint8"},{"name":"nodeVotes","type":"uint8","internalType":"uint8"},{"name":"evidenceHash","type":"bytes32","internalType":"bytes32"},{"name":"claimReason","type":"string","internalType":"string"}]}],"stateMutability":"view"},{"type":"function","name":"guardianApproval","inputs":[{"name":"","type":"uint256","internalType":"uint256"},{"name":"","type":"address","internalType":"address"}],"outputs":[{"name":"","type":"bool","internalType":"bool"}],"stateMutability":"view"},{"type":"function","name":"guardianNodeManager","inputs":[],"outputs":[{"name":"","type":"address","internalType":"contract IGuardianNodeManager"}],"stateMutability":"view"},{"type":"function","name":"guardianVote","inputs":[{"name":"claimId","type":"uint256","internalType":"uint256"},{"name":"approve","type":"bool","internalType":"bool"}],"outputs":[],"stateMutability":"nonpayable"},{"type":"function","name":"guardianVoted","inputs":[{"name":"","type":"uint256","internalType":"uint256"},{"name":"","type":"address","internalType":"address"}],"outputs":[{"name":"","type":"bool","internalType":"bool"}],"stateMutability":"view"},{"type":"function","name":"initiateClaim","inputs":[{"name":"vault","type":"address","internalType":"address"},{"name":"recoveryId","type":"string","internalType":"string"},{"name":"evidenceHash","type":"bytes32","internalType":"bytes32"},{"name":"reason","type":"string","internalType":"string"}],"outputs":[{"name":"claimId","type":"uint256","internalType":"uint256"}],"stateMutability":"nonpayable"},{"type":"function","name":"initiateClaimByRecoveryId","inputs":[{"name":"recoveryId","type":"string","internalType":"string"},{"name":"reason","type":"string","internalType":"string"}],"outputs":[{"name":"claimId","type":"uint256","internalType":"uint256"}],"stateMutability":"nonpayable"},{"type":"function","name":"nodeVote","inputs":[{"name":"claimId","type":"uint256","internalType":"uint256"},{"name":"approve","type":"bool","internalType":"bool"}],"outputs":[],"stateMutability":"nonpayable"},{"type":"function","name":"nodeVoted","inputs":[{"name":"","type":"uint256","internalType":"uint256"},{"name":"","type":"address","internalType":"address"}],"outputs":[{"name":"","type":"bool","internalType":"bool"}],"stateMutability":"view"},{"type":"function","name":"owner","inputs":[],"outputs":[{"name":"","type":"address","internalType":"address"}],"stateMutability":"view"},{"type":"function","name":"renounceOwnership","inputs":[],"outputs":[],"stateMutability":"nonpayable"},{"type":"function","name":"setGuardianNodeManager","inputs":[{"name":"_guardianNodeManager","type":"address","internalType":"address"}],"outputs":[],"stateMutability":"nonpayable"},{"type":"function","name":"setTrustedVerifier","inputs":[{"name":"verifier","type":"address","internalType":"address"},{"name":"trusted","type":"bool","internalType":"bool"}],"outputs":[],"stateMutability":"nonpayable"},{"type":"function","name":"setVaultHub","inputs":[{"name":"_vaultHub","type":"address","internalType":"address"}],"outputs":[],"stateMutability":"nonpayable"},{"type":"function","name":"setVaultRegistry","inputs":[{"name":"_vaultRegistry","type":"address","internalType":"address"}],"outputs":[],"stateMutability":"nonpayable"},{"type":"function","name":"transferOwnership","inputs":[{"name":"newOwner","type":"address","internalType":"address"}],"outputs":[],"stateMutability":"nonpayable"},{"type":"function","name":"trustedVerifier","inputs":[{"name":"","type":"address","internalType":"address"}],"outputs":[{"name":"","type":"bool","internalType":"bool"}],"stateMutability":"view"},{"type":"function","name":"vaultHub","inputs":[],"outputs":[{"name":"","type":"address","internalType":"contract IVaultInfrastructure"}],"stateMutability":"view"},{"type":"function","name":"vaultRegistry","inputs":[],"outputs":[{"name":"","type":"address","internalType":"contract IVaultRegistry"}],"stateMutability":"view"},{"type":"event","name":"ClaimApproved","inputs":[{"name":"claimId","type":"uint256","indexed":true,"internalType":"uint256"},{"name":"vault","type":"address","indexed":true,"internalType":"address"},{"name":"newOwner","type":"address","indexed":true,"internalType":"address"}],"anonymous":false},{"type":"event","name":"ClaimChallenged","inputs":[{"name":"claimId","type":"uint256","indexed":true,"internalType":"uint256"},{"name":"challenger","type":"address","indexed":true,"internalType":"address"},{"name":"reason","type":"string","indexed":false,"internalType":"string"}],"anonymous":false},{"type":"event","name":"ClaimExecuted","inputs":[{"name":"claimId","type":"uint256","indexed":true,"internalType":"uint256"},{"name":"vault","type":"address","indexed":true,"internalType":"address"},{"name":"newOwner","type":"address","indexed":true,"internalType":"address"},{"name":"previousOwner","type":"address","indexed":false,"internalType":"address"}],"anonymous":false},{"type":"event","name":"ClaimExpired","inputs":[{"name":"claimId","type":"uint256","indexed":true,"internalType":"uint256"},{"name":"vault","type":"address","indexed":true,"internalType":"address"}],"anonymous":false},{"type":"event","name":"ClaimInitiated","inputs":[{"name":"claimId","type":"uint256","indexed":true,"internalType":"uint256"},{"name":"vault","type":"address","indexed":true,"internalType":"address"},{"name":"claimant","type":"address","indexed":true,"internalType":"address"},{"name":"originalOwner","type":"address","indexed":false,"internalType":"address"},{"name":"expiresAt","type":"uint64","indexed":false,"internalType":"uint64"}],"anonymous":false},{"type":"event","name":"ClaimRejected","inputs":[{"name":"claimId","type":"uint256","indexed":true,"internalType":"uint256"},{"name":"vault","type":"address","indexed":true,"internalType":"address"},{"name":"reason","type":"string","indexed":false,"internalType":"string"}],"anonymous":false},{"type":"event","name":"GuardianVoteCast","inputs":[{"name":"claimId","type":"uint256","indexed":true,"internalType":"uint256"},{"name":"guardian","type":"address","indexed":true,"internalType":"address"},{"name":"approved","type":"bool","indexed":false,"internalType":"bool"},{"name":"totalApprovals","type":"uint8","indexed":false,"internalType":"uint8"}],"anonymous":false},{"type":"event","name":"NodeVoteCast","inputs":[{"name":"claimId","type":"uint256","indexed":true,"internalType":"uint256"},{"name":"node","type":"address","indexed":true,"internalType":"address"},{"name":"approved","type":"bool","indexed":false,"internalType":"bool"},{"name":"totalVotes","type":"uint8","indexed":false,"internalType":"uint8"}],"anonymous":false},{"type":"event","name":"OwnershipTransferred","inputs":[{"name":"previousOwner","type":"address","indexed":true,"internalType":"address"},{"name":"newOwner","type":"address","indexed":true,"internalType":"address"}],"anonymous":false},{"type":"event","name":"VerifierSet","inputs":[{"name":"verifier","type":"address","indexed":true,"internalType":"address"},{"name":"trusted","type":"bool","indexed":false,"internalType":"bool"}],"anonymous":false},{"type":"error","name":"AlreadyVoted","inputs":[]},{"type":"error","name":"ChallengePeriodActive","inputs":[]},{"type":"error","name":"ChallengePeriodEnded","inputs":[]},{"type":"error","name":"ClaimAlreadyExists","inputs":[]},{"type":"error","name":"ClaimHasExpired","inputs":[]},{"type":"error","name":"ClaimNotPending","inputs":[]},{"type":"error","name":"ClaimantAlreadyHasVault","inputs":[]},{"type":"error","name":"InsufficientApprovals","inputs":[]},{"type":"error","name":"InvalidVault","inputs":[]},{"type":"error","name":"NoActiveClaim","inputs":[]},{"type":"error","name":"NotClaimant","inputs":[]},{"type":"error","name":"NotGuardian","inputs":[]},{"type":"error","name":"NotGuardianNode","inputs":[]},{"type":"error","name":"NotOriginalOwner","inputs":[]},{"type":"error","name":"OwnableInvalidOwner","inputs":[{"name":"owner","type":"address","internalType":"address"}]},{"type":"error","name":"OwnableUnauthorizedAccount","inputs":[{"name":"account","type":"address","internalType":"address"}]},{"type":"error","name":"ReentrancyGuardReentrantCall","inputs":[]},{"type":"error","name":"VaultHasNoClaim","inputs":[]},{"type":"error","name":"ZeroAddress","inputs":[]}],"bytecode":{"object":"0x60803461012b57601f61239a38819003918201601f19168301916001600160401b0383118484101761012f5780849260609460405283398101031261012b5761004781610143565b90610060604061005960208401610143565b9201610143565b903315610118575f8054336001600160a01b0319821681178355604051959290916001600160a01b0316907f8be0079c531659141344cd1fd0a4f28419497f9722a3daafe3b4186f6b6457e09080a3600180556001600160a01b0316801561010957600280546001600160a01b03199081169290921790556003805482166001600160a01b03938416179055600480549091169290911691909117905561224290816101588239f35b63d92e233d60e01b5f5260045ffd5b631e4fbdf760e01b5f525f60045260245ffd5b5f80fd5b634e487b7160e01b5f52604160045260245ffd5b51906001600160a01b038216820361012b5756fe60806040526004361015610011575f80fd5b5f3560e01c80630741206e14611b5e5780630746efc21461193157806314907bfd146118f957806315d31806146118385780632941f9df1461181d5780633b74b77a1461166757806342b8af6c1461138257806349d57874146113655780634d94b96f146113285780634e75624d146112df5780634efa8f17146112c257806354f93e2e146112455780635aef2447146111ee5780636dd6e80b146111c6578063715018a61461116f5780637167d42714611149578063791e95c0146111005780637a97111414610f0e5780638da5cb5b14610ee7578063a32e86bb14610e9e578063a888c2cd14610db7578063b4cd85af14610d9a578063bd5e95ba14610c70578063c3a079ed14610c53578063cb91dd7b14610c10578063cd4eb9f814610bf5578063cdd7b38a14610bcd578063e36b669314610b8a578063e4e2bfe414610b4b578063e9fcf4dd14610433578063eb8ee9e81461040b578063f2fde38b146103865763fdec260914610184575f80fd5b346102d15760403660031901126102d1576004356001600160401b0381116102d1576101b4903690600401611bf4565b6024356001600160401b0381116102d1576101d3903690600401611bf4565b6101de929192612186565b6003546001600160a01b0316801561034e57602060405180926328cc671160e01b8252826004830152818061021760248201898c611e7b565b03915afa9081156102dd575f9161031f575b506001600160a01b03169081156102e8576020936102849161026c604051978896879663e9fcf4dd60e01b88526004880152608060248801526084870191611e7b565b5f604486015284810360031901606486015291611e7b565b03815f305af180156102dd575f906102a6575b60209060018055604051908152f35b506020813d6020116102d5575b816102c060209383611d68565b810103126102d15760209051610297565b5f80fd5b3d91506102b3565b6040513d5f823e3d90fd5b60405162461bcd60e51b815260206004820152600f60248201526e15985d5b1d081b9bdd08199bdd5b99608a1b6044820152606490fd5b610341915060203d602011610347575b6103398183611d68565b810190612141565b5f610229565b503d61032f565b60405162461bcd60e51b815260206004820152601060248201526f149959da5cdd1c9e481b9bdd081cd95d60821b6044820152606490fd5b346102d15760203660031901126102d15761039f611bb9565b6103a7612160565b6001600160a01b031680156103f8575f80546001600160a01b03198116831782556001600160a01b0316907f8be0079c531659141344cd1fd0a4f28419497f9722a3daafe3b4186f6b6457e09080a3005b631e4fbdf760e01b5f525f60045260245ffd5b346102d1575f3660031901126102d1576004546040516001600160a01b039091168152602090f35b346102d15760803660031901126102d15761044c611bb9565b6024356001600160401b0381116102d15761046b903690600401611bf4565b90916064356001600160401b0381116102d15761048c903690600401611bf4565b929093610497612186565b60025460405163652b9b4160e01b81526001600160a01b0385811660048301529091169290602081602481875afa9081156102dd575f91610b1c575b5015610b0d576001600160a01b0384165f90815260076020526040902054610a91575b604051630709df4560e01b8152336004820152602081602481875afa9081156102dd575f91610a72575b506001600160a01b0316610a63576003546001600160a01b03168061097d575b5050604051632724fe0960e01b81526001600160a01b03841660048201529160209150829060249082905afa9081156102dd575f9161095e575b50600654925f19841461094a57600184016006556001600160401b0361059f42611e6b565b169062278d00420180421161094a576001600160401b0390604051936105c485611d4c565b6001600160a01b03878116865233602087015286166040860152428316606086015260808501521660a0830152600160c08301525f60e083018190526101008301526044356101208301526001600160401b0381116109225760405195610635601f8301601f191660200188611d68565b81875236828201116102d157815f92602092838a013787010152610140810194855260018481015f90815260056020908152604091829020845181546001600160a01b03199081166001600160a01b03928316178355928601519482018054909316948116949094179091558184015160028201805460608701516001600160e01b0319909116929095169190911760a094851b67ffffffffffffffff60a01b161790556080840151600382018054948601516fffffffffffffffffffffffffffffffff199095166001600160401b0392909216919091179390921b6fffffffffffffffff00000000000000001692909217815560c083015192600884101561093657815460e082015161ffff60801b1990911660809590951b60ff60801b169490941760889490941b60ff60881b169390931781556005926101209161079690610100830151815460ff60901b191660909190911b60ff60901b16179055565b015160048201550193519384516001600160401b038111610922576107bb8254611d14565b601f81116108dd575b50806020968790601f831160011461087b575f92610870575b50508160011b915f199060031b1c19161790555b6001600160a01b039182165f8181526007865260408082206001870190819055808352600588529181902060030154815194909516845293841c6001600160401b0316838701523393919290917f0148a0de706530411746da9dd7cce6e287476743bd7f912d62c75552f251b59b91a460018055600160405191018152f35b0151905087806107dd565b5f8581528281209350601f198516905b8181106108c657509084600195949392106108ae575b505050811b0190556107f1565b01515f1960f88460031b161c191690558780806108a1565b92938a60018192878601518155019501930161088b565b825f5260205f20601f830160051c81019160208410610918575b601f0160051c01905b81811061090d57506107c4565b5f8155600101610900565b90915081906108f7565b634e487b7160e01b5f52604160045260245ffd5b634e487b7160e01b5f52602160045260245ffd5b634e487b7160e01b5f52601160045260245ffd5b610977915060203d602011610347576103398183611d68565b8461057a565b60405163032997db60e31b81526001600160a01b0386166004820152929190602090849060249082905afa9283156102dd575f93610a2f575b508215610540576109e4602060405183819483830196873781015f838201520301601f198101835282611d68565b519020036109f457848080610540565b60405162461bcd60e51b8152602060048201526013602482015272125b9d985b1a59081c9958dbdd995c9e481251606a1b6044820152606490fd5b9092506020813d602011610a5b575b81610a4b60209383611d68565b810103126102d1575191876109b6565b3d9150610a3e565b634657e50360e01b5f5260045ffd5b610a8b915060203d602011610347576103398183611d68565b87610520565b60018060a01b0384165f52600760205260405f20545f52600560205260ff600360405f20015460801c16600881101590816109365760018114918215610b00575b8215610aef575b5050156104f6576380497e3b60e01b5f5260045ffd5b909150610936576004148780610ad9565b506002811491505f610ad2565b630681d31960e51b5f5260045ffd5b610b3e915060203d602011610b44575b610b368183611d68565b810190611e29565b876104d3565b503d610b2c565b346102d15760203660031901126102d157610b67600435611f2a565b90610b8660405192839215158352604060208401526040830190611c2e565b0390f35b346102d15760203660031901126102d157610ba3611bb9565b610bab612160565b600480546001600160a01b0319166001600160a01b0392909216919091179055005b346102d1575f3660031901126102d1576003546040516001600160a01b039091168152602090f35b346102d1575f3660031901126102d157602060405160038152f35b346102d15760203660031901126102d157610c29611bb9565b610c31612160565b600380546001600160a01b0319166001600160a01b0392909216919091179055005b346102d1575f3660031901126102d157602060405162093a808152f35b346102d15760203660031901126102d157610c89611bb9565b610c91611e9b565b6001600160a01b039091165f9081526007602052604090205480610ccc575b610b866040519283928352604060208401526040830190611c52565b8091505f52600560205260405f20610d8e600560405192610cec84611d4c565b60018060a01b03815416845260018060a01b0360018201541660208501526001600160401b03600282015460018060a01b038116604087015260a01c16606085015260ff60038201546001600160401b03811660808701526001600160401b038160401c1660a0870152610d68828260801c1660c08801611eec565b818160881c1660e087015260901c16610100850152600481015461012085015201611d89565b61014082015290610cb0565b346102d1575f3660031901126102d1576020604051621275008152f35b346102d15760203660031901126102d1576004355f52600560205260405f2060018060a01b03815416610b8660018060a01b036001840154169260028101549060ff60038201546001600160401b03610e17600560048601549501611d89565b946040519889988952602089015260018060a01b038116604089015260a01c1660608701526001600160401b03811660808701526001600160401b038160401c1660a0870152610e6f60c08701838360801c16611c21565b818160881c1660e087015260901c16610100850152610120840152610160610140840152610160830190611c2e565b346102d15760403660031901126102d157610eb7611bcf565b6004355f52600960205260405f209060018060a01b03165f52602052602060ff60405f2054166040519015158152f35b346102d1575f3660031901126102d1575f546040516001600160a01b039091168152602090f35b346102d15760203660031901126102d157600435610f2a612186565b805f52600560205260405f2060038101805460ff8160801c16600881101561093657600281141590816110f4575b506110e55760401c6001600160401b0316421161107f5780546001600160401b03811642106110705760801c60ff1660088110156109365760021461101d575b5f83815260056020908152604080832060038101805460ff60801b1916600560801b17905580546001600160a01b0390811685526007845282852094909455805460018201546002909201549251928516835290841693169186917f02f15fccddc354e2331b022195b2ab6306ce04a22561521ebe0e8913c5fb8a5e9190a460018055005b805460ff60801b1916600160821b1790558054600191909101546001600160a01b039081169116827f35cc46be3cd6c522a5c476fd967d23d863f0012d507dcabc9037ec99a91482d85f80a48180610f98565b6364b81b1960e11b5f5260045ffd5b805460ff60801b1916600760801b17905580546001600160a01b039081165f90815260076020526040812081905591541691907fa01f4580d13af8b2fcc988b3e0d01a43aa7310fe0474086214978fab1175ecdf9080a36378e090f760e01b5f5260045ffd5b638af69cf160e01b5f5260045ffd5b60049150141585610f58565b346102d15760403660031901126102d157611119611bcf565b6004355f52600a60205260405f209060018060a01b03165f52602052602060ff60405f2054166040519015158152f35b346102d15760203660031901126102d1576020611167600435611ef8565b604051908152f35b346102d1575f3660031901126102d157611187612160565b5f80546001600160a01b0319811682556001600160a01b03167f8be0079c531659141344cd1fd0a4f28419497f9722a3daafe3b4186f6b6457e08280a3005b346102d1575f3660031901126102d1576002546040516001600160a01b039091168152602090f35b346102d15760203660031901126102d157611207611e9b565b506004355f526005602052610b8660405f2061122b600560405192610cec84611d4c565b610140820152604051918291602083526020830190611c52565b346102d15760403660031901126102d15761125e611bb9565b7f7a6dd775b9b6aa6ebde6f0c51172ef328eb9658e095364751705f28234e7257c6020611289611be5565b92611292612160565b6001600160a01b03165f818152600b835260409020805460ff191660ff86151516179055926040519015158152a2005b346102d1575f3660031901126102d1576020600654604051908152f35b346102d15760403660031901126102d1576112f8611bcf565b6004355f52600860205260405f209060018060a01b03165f52602052602060ff60405f2054166040519015158152f35b346102d15760203660031901126102d1576001600160a01b03611349611bb9565b165f52600b602052602060ff60405f2054166040519015158152f35b346102d1575f3660031901126102d157602060405162278d008152f35b346102d15760403660031901126102d15760043561139e611be5565b906113a7612186565b805f52600560205260405f20916003830192835460ff8160801c166008811015610936576001036116585760401c6001600160401b03164211611649575f83815260086020908152604080832033845290915290205460ff1661163a5754604051630c68ba2160e01b81523360048201526001600160a01b039091169190602081602481865afa9081156102dd575f9161161b575b50156115ed576040516363f95a3b60e01b8152336004820152602081602481865afa9081156102dd575f916115fc575b50156115ed575f838152600860209081526040808320338085529083528184208054600160ff1991821617909155878552600a84528285209185529083529220805490921660ff84151516179091556004929091806115bb575b60ff865460881c16947f6591fafddb662528da3bece8a0e1a4681e32f5b19a9996e28a15f8e93f9aa8a4604051806115128933968390929160ff60209160408401951515845216910152565b0390a36040516354387ad760e01b815292839182905afa9081156102dd5760ff91611544915f9161158c575b506121a6565b161115611552575b60018055005b805460ff60801b1916600160811b1781556001600160401b038061157542611e6b565b16166001600160401b03198254161790558061154c565b6115ae915060203d6020116115b4575b6115a68183611d68565b810190611e52565b8561153e565b503d61159c565b6115e86115ce60ff885460881c16611e41565b875460ff60881b191660889190911b60ff60881b16178755565b6114c6565b6377b6878160e11b5f5260045ffd5b611615915060203d602011610b4457610b368183611d68565b8561146c565b611634915060203d602011610b4457610b368183611d68565b8561143c565b637c9a1cf960e01b5f5260045ffd5b6378e090f760e01b5f5260045ffd5b6348f8d3b160e01b5f5260045ffd5b346102d15760403660031901126102d1576004356024356001600160401b0381116102d15761169a903690600401611bf4565b6116a2612186565b825f52600560205260405f2091600383019060ff825460801c1660088110159081610936578015918215611810575b82156117ff575b82156117ee575b50506117df5760028401546001600160a01b031633036117d057815460ff60801b1916600360811b1790915582546001600160a01b03165f908152600760209081526040808320929092559051818152339386937f19f658ff9b34c9fd1b45c96134524129191b422b932e9de6a236c952da5b9c509383926117649291840191611e7b565b0390a360018060a01b03905416907f4682ef87b3db3f66192d1dc1efd5d2a314cdd9c61e14219f671c03e6f507823a606060405160208152601c60208201527f4368616c6c656e676564206279206f726967696e616c206f776e6572000000006040820152a360018055005b6323a7681d60e01b5f5260045ffd5b63dc3d406360e01b5f5260045ffd5b9091506109365760071486806116df565b8092506109365760068114916116d8565b506005811491505f6116d1565b346102d1575f3660031901126102d157602060405160028152f35b346102d15760203660031901126102d157600435805f52600560205260405f2060038101805460ff8160801c16600881101561093657600181149081156118ee575b5061188157005b60401c6001600160401b0316421161189557005b805460ff60801b1916600760801b17905580546001600160a01b039081165f90815260076020526040812081905591541691907fa01f4580d13af8b2fcc988b3e0d01a43aa7310fe0474086214978fab1175ecdf9080a3005b60029150148561187a565b346102d15760203660031901126102d1576001600160a01b0361191a611bb9565b165f526007602052602060405f2054604051908152f35b346102d15760403660031901126102d15760043561194d611be5565b90611956612186565b805f52600560205260405f206003810192835460ff8160801c1660088110156109365760018114159081611b52575b506116585760401c6001600160401b03164211611649575f83815260096020908152604080832033845290915290205460ff1661163a576004546001600160a01b031680611aec575b505f8381526009602090815260408083203384528252909120805460ff19166001179055600492909180611aba575b60ff865460901c16947fa4ecbbd4047bd071be58045de89ab2a074bc3d1d10c9cf78d68a5fe784ae296460405180611a498933968390929160ff60209160408401951515845216910152565b0390a3546040516354387ad760e01b815292839182906001600160a01b03165afa80156102dd5760ff915f91611a9b575b5016159081611a8f575b506115525760018055005b60039150101582611a84565b611ab4915060203d6020116115b4576115a68183611d68565b84611a7a565b611ae7611acd60ff885460901c16611e41565b875460ff60901b191660909190911b60ff60901b16178755565b6119fd565b602060249160405192838092631f33573f60e31b82523360048301525afa9081156102dd575f91611b33575b5015611b2457846119ce565b63294a492760e01b5f5260045ffd5b611b4c915060203d602011610b4457610b368183611d68565b85611b18565b60029150141586611985565b346102d15760203660031901126102d157611b77611bb9565b611b7f612160565b6001600160a01b03168015611baa576bffffffffffffffffffffffff60a01b60025416176002555f80f35b63d92e233d60e01b5f5260045ffd5b600435906001600160a01b03821682036102d157565b602435906001600160a01b03821682036102d157565b6024359081151582036102d157565b9181601f840112156102d1578235916001600160401b0383116102d157602083818601950101116102d157565b9060088210156109365752565b805180835260209291819084018484015e5f828201840152601f01601f1916010190565b90610160610140611d119360018060a01b03815116845260018060a01b03602082015116602085015260018060a01b0360408201511660408501526001600160401b0360608201511660608501526001600160401b0360808201511660808501526001600160401b0360a08201511660a0850152611cd860c082015160c0860190611c21565b60ff60e08201511660e085015260ff61010082015116610100850152610120810151610120850152015191816101408201520190611c2e565b90565b90600182811c92168015611d42575b6020831014611d2e57565b634e487b7160e01b5f52602260045260245ffd5b91607f1691611d23565b61016081019081106001600160401b0382111761092257604052565b90601f801991011681019081106001600160401b0382111761092257604052565b9060405191825f825492611d9c84611d14565b8084529360018116908115611e075750600114611dc3575b50611dc192500383611d68565b565b90505f9291925260205f20905f915b818310611deb575050906020611dc1928201015f611db4565b6020919350806001915483858901015201910190918492611dd2565b905060209250611dc194915060ff191682840152151560051b8201015f611db4565b908160209103126102d1575180151581036102d15790565b60ff1660ff811461094a5760010190565b908160209103126102d1575160ff811681036102d15790565b9062093a80820180921161094a57565b908060209392818452848401375f828201840152601f01601f1916010190565b60405190611ea882611d4c565b6060610140835f81525f60208201525f60408201525f838201525f60808201525f60a08201525f60c08201525f60e08201525f6101008201525f6101208201520152565b60088210156109365752565b5f5260056020526001600160401b03600360405f2001541680421015611f255742810390811161094a5790565b505f90565b5f526005602052600360405f20015460ff8160801c16600881101561093657801561210b57600581146120d3576006811461209f5760078114612070576001600160401b038260401c16421161203d57600114611fff576001600160401b03164210611fc257600190604051611fa1604082611d68565b6011815270526561647920746f2066696e616c697a6560781b602082015290565b5f90604051611fd2604082611d68565b601d81527f4368616c6c656e676520706572696f64207374696c6c20616374697665000000602082015290565b505f90604051612010604082611d68565b601d81527f57616974696e6720666f7220677561726469616e20617070726f76616c000000602082015290565b50505f9060405161204f604082611d68565b601181527010db185a5b481a185cc8195e1c1a5c9959607a1b602082015290565b50505f90604051612082604082611d68565b600d81526c10db185a5b48195e1c1a5c9959609a1b602082015290565b50505f906040516120b1604082611d68565b601281527110db185a5b481dd85cc81c995a9958dd195960721b602082015290565b50505f906040516120e5604082611d68565b601681527510db185a5b48185b1c9958591e48195e1958dd5d195960521b602082015290565b50505f9060405161211d604082611d68565b601481527310db185a5b48191bd95cc81b9bdd08195e1a5cdd60621b602082015290565b908160209103126102d157516001600160a01b03811681036102d15790565b5f546001600160a01b0316330361217357565b63118cdaa760e01b5f523360045260245ffd5b600260015414612197576002600155565b633ee5aeb560e01b5f5260045ffd5b60ff8116801561220657600181146121ff57600281146121f857600381146121f857600481146121f1576005146121eb57607f600191821c160160ff811161094a5790565b50600390565b5050600390565b5050600290565b5050600190565b50505f9056fea2646970667358221220c902bb374584eeb2419b310829895e998df4c99e9c8b11011a939bd277b94fa964736f6c634300081e0033","linkReferences":{}},"methodIdentifiers":{"CHALLENGE_PERIOD()":"c3a079ed","CLAIM_EXPIRY()":"49d57874","GUARDIAN_VOTE_WINDOW()":"b4cd85af","MIN_GUARDIAN_APPROVALS()":"2941f9df","MIN_NODE_VOTES()":"cd4eb9f8","activeClaimForVault(address)":"14907bfd","canFinalize(uint256)":"e4e2bfe4","challengeClaim(uint256,string)":"3b74b77a","challengeTimeRemaining(uint256)":"7167d427","claimCounter()":"4efa8f17","claims(uint256)":"a888c2cd","expireClaim(uint256)":"15d31806","finalizeClaim(uint256)":"7a971114","getActiveClaimForVault(address)":"bd5e95ba","getClaim(uint256)":"5aef2447","guardianApproval(uint256,address)":"791e95c0","guardianNodeManager()":"eb8ee9e8","guardianVote(uint256,bool)":"42b8af6c","guardianVoted(uint256,address)":"4e75624d","initiateClaim(address,string,bytes32,string)":"e9fcf4dd","initiateClaimByRecoveryId(string,string)":"fdec2609","nodeVote(uint256,bool)":"0746efc2","nodeVoted(uint256,address)":"a32e86bb","owner()":"8da5cb5b","renounceOwnership()":"715018a6","setGuardianNodeManager(address)":"e36b6693","setTrustedVerifier(address,bool)":"54f93e2e","setVaultHub(address)":"0741206e","setVaultRegistry(address)":"cb91dd7b","transferOwnership(address)":"f2fde38b","trustedVerifier(address)":"4d94b96f","vaultHub()":"6dd6e80b","vaultRegistry()":"cdd7b38a"},"id":39}