{"abi":[{"type":"function","name":"cancelDAORecovery","inputs":[{"name":"","type":"address","internalType":"address"}],"outputs":[],"stateMutability":"nonpayable"},{"type":"function","name":"ensureVault","inputs":[{"name":"owner_","type":"address","internalType":"address"}],"outputs":[{"name":"vault","type":"address","internalType":"address"}],"stateMutability":"nonpayable"},{"type":"function","name":"finalizeDAORecovery","inputs":[{"name":"","type":"address","internalType":"address"}],"outputs":[],"stateMutability":"nonpayable"},{"type":"function","name":"isVault","inputs":[{"name":"a","type":"address","internalType":"address"}],"outputs":[{"name":"","type":"bool","internalType":"bool"}],"stateMutability":"view"},{"type":"function","name":"requestDAORecovery","inputs":[{"name":"","type":"address","internalType":"address"},{"name":"","type":"address","internalType":"address"}],"outputs":[],"stateMutability":"nonpayable"},{"type":"function","name":"setDAORecoveryMultisig","inputs":[{"name":"","type":"address","internalType":"address"}],"outputs":[],"stateMutability":"nonpayable"},{"type":"function","name":"setProofLedger","inputs":[{"name":"","type":"address","internalType":"address"}],"outputs":[],"stateMutability":"nonpayable"},{"type":"function","name":"setRecoveryTimelock","inputs":[{"name":"","type":"uint256","internalType":"uint256"}],"outputs":[],"stateMutability":"nonpayable"},{"type":"function","name":"setSecurityHub","inputs":[{"name":"","type":"address","internalType":"address"}],"outputs":[],"stateMutability":"nonpayable"},{"type":"function","name":"setVFIDEToken","inputs":[{"name":"","type":"address","internalType":"address"}],"outputs":[],"stateMutability":"nonpayable"},{"type":"function","name":"setVault","inputs":[{"name":"owner","type":"address","internalType":"address"},{"name":"vault","type":"address","internalType":"address"}],"outputs":[],"stateMutability":"nonpayable"},{"type":"function","name":"totalVaultsCreated","inputs":[],"outputs":[{"name":"","type":"uint256","internalType":"uint256"}],"stateMutability":"view"},{"type":"function","name":"totalVaultsCreatedCount","inputs":[],"outputs":[{"name":"","type":"uint256","internalType":"uint256"}],"stateMutability":"view"},{"type":"function","name":"vaultOf","inputs":[{"name":"owner","type":"address","internalType":"address"}],"outputs":[{"name":"","type":"address","internalType":"address"}],"stateMutability":"view"},{"type":"function","name":"vaults","inputs":[{"name":"","type":"address","internalType":"address"}],"outputs":[{"name":"","type":"address","internalType":"address"}],"stateMutability":"view"}],"bytecode":{"object":"0x608080604052346015576103ab908161001a8239f35b5f80fdfe6080806040526004361015610012575f80fd5b5f3560e01c9081630709df45146102f257508063074a0608146102ce5780630f6bab391461020b57806312b818241461020b578063275eee54146102715780632f40b3301461020b57806340a600841461020b57806355545fb01461020b578063652b9b411461028e5780636b112afa14610271578063714ccf7b146102235780639ce492f114610210578063a2a78a7f1461020b578063a622ee7c146101cc5763e01fd215146100c1575f80fd5b346101c85760203660031901126101c8576100da610330565b6001600160a01b038181165f8181526020819052604090205490929116908115610113575b6040516001600160a01b0383168152602090f35b90506040519060208201906bffffffffffffffffffffffff199060601b168152426034830152603482526060820182811067ffffffffffffffff8211176101b4576040908152915190205f9283526020839052912080546001600160a01b0319166001600160a01b03929092169182179055600154905f1982146101a0576001602092016001555f6100ff565b634e487b7160e01b5f52601160045260245ffd5b634e487b7160e01b5f52604160045260245ffd5b5f80fd5b346101c85760203660031901126101c8576001600160a01b036101ed610330565b165f525f602052602060018060a01b0360405f205416604051908152f35b61035c565b346101c85760203660031901126101c857005b346101c85760403660031901126101c85761023c610330565b610244610346565b6001600160a01b039182165f90815260208190526040902080546001600160a01b03191691909216179055005b346101c8575f3660031901126101c8576020600154604051908152f35b346101c85760203660031901126101c85760206001600160a01b036102b1610330565b16805f525f825260018060a01b0360405f20541614604051908152f35b346101c85760403660031901126101c8576102e7610330565b506102f0610346565b005b346101c85760203660031901126101c8576020906001600160a01b03610316610330565b165f90815280835260409020546001600160a01b03168152f35b600435906001600160a01b03821682036101c857565b602435906001600160a01b03821682036101c857565b346101c85760203660031901126101c8576102f061033056fea26469706673582212205aaeaf4b7afc827037b97089e79d2517cbf4cac44ea0b4e1200bb4524a31a93764736f6c634300081e0033","linkReferences":{}},"methodIdentifiers":{"cancelDAORecovery(address)":"2f40b330","ensureVault(address)":"e01fd215","finalizeDAORecovery(address)":"a2a78a7f","isVault(address)":"652b9b41","requestDAORecovery(address,address)":"074a0608","setDAORecoveryMultisig(address)":"12b81824","setProofLedger(address)":"0f6bab39","setRecoveryTimelock(uint256)":"9ce492f1","setSecurityHub(address)":"55545fb0","setVFIDEToken(address)":"40a60084","setVault(address,address)":"714ccf7b","totalVaultsCreated()":"6b112afa","totalVaultsCreatedCount()":"275eee54","vaultOf(address)":"0709df45","vaults(address)":"a622ee7c"},"id":98}