{"abi":[{"type":"constructor","inputs":[{"name":"_vaultHub","type":"address","internalType":"address"},{"name":"_badgeManager","type":"address","internalType":"address"},{"name":"_proofScoreManager","type":"address","internalType":"address"}],"stateMutability":"nonpayable"},{"type":"function","name":"allVaults","inputs":[{"name":"","type":"uint256","internalType":"uint256"}],"outputs":[{"name":"","type":"address","internalType":"address"}],"stateMutability":"view"},{"type":"function","name":"badgeManager","inputs":[],"outputs":[{"name":"","type":"address","internalType":"contract IBadgeManager"}],"stateMutability":"view"},{"type":"function","name":"getTotalVaults","inputs":[],"outputs":[{"name":"","type":"uint256","internalType":"uint256"}],"stateMutability":"view"},{"type":"function","name":"getVaultByIndex","inputs":[{"name":"index","type":"uint256","internalType":"uint256"}],"outputs":[{"name":"vault","type":"address","internalType":"address"},{"name":"info","type":"tuple","internalType":"struct VaultRegistry.VaultInfo","components":[{"name":"vault","type":"address","internalType":"address"},{"name":"originalOwner","type":"address","internalType":"address"},{"name":"createdAt","type":"uint256","internalType":"uint256"},{"name":"lastActiveAt","type":"uint256","internalType":"uint256"},{"name":"proofScore","type":"uint256","internalType":"uint256"},{"name":"badgeCount","type":"uint256","internalType":"uint256"},{"name":"hasGuardians","type":"bool","internalType":"bool"},{"name":"hasRecoveryId","type":"bool","internalType":"bool"},{"name":"isRecoverable","type":"bool","internalType":"bool"}]}],"stateMutability":"view"},{"type":"function","name":"getVaultInfo","inputs":[{"name":"vault","type":"address","internalType":"address"}],"outputs":[{"name":"info","type":"tuple","internalType":"struct VaultRegistry.VaultInfo","components":[{"name":"vault","type":"address","internalType":"address"},{"name":"originalOwner","type":"address","internalType":"address"},{"name":"createdAt","type":"uint256","internalType":"uint256"},{"name":"lastActiveAt","type":"uint256","internalType":"uint256"},{"name":"proofScore","type":"uint256","internalType":"uint256"},{"name":"badgeCount","type":"uint256","internalType":"uint256"},{"name":"hasGuardians","type":"bool","internalType":"bool"},{"name":"hasRecoveryId","type":"bool","internalType":"bool"},{"name":"isRecoverable","type":"bool","internalType":"bool"}]}],"stateMutability":"view"},{"type":"function","name":"isRecoverable","inputs":[{"name":"vault","type":"address","internalType":"address"}],"outputs":[{"name":"","type":"bool","internalType":"bool"}],"stateMutability":"view"},{"type":"function","name":"isRecoveryIdAvailable","inputs":[{"name":"recoveryId","type":"string","internalType":"string"}],"outputs":[{"name":"","type":"bool","internalType":"bool"}],"stateMutability":"view"},{"type":"function","name":"isUsernameAvailable","inputs":[{"name":"username","type":"string","internalType":"string"}],"outputs":[{"name":"","type":"bool","internalType":"bool"}],"stateMutability":"view"},{"type":"function","name":"owner","inputs":[],"outputs":[{"name":"","type":"address","internalType":"address"}],"stateMutability":"view"},{"type":"function","name":"proofScoreManager","inputs":[],"outputs":[{"name":"","type":"address","internalType":"contract IProofScoreManager"}],"stateMutability":"view"},{"type":"function","name":"recoveryIdOfVault","inputs":[{"name":"","type":"address","internalType":"address"}],"outputs":[{"name":"","type":"bytes32","internalType":"bytes32"}],"stateMutability":"view"},{"type":"function","name":"registerGuardian","inputs":[{"name":"vault","type":"address","internalType":"address"},{"name":"guardian","type":"address","internalType":"address"}],"outputs":[],"stateMutability":"nonpayable"},{"type":"function","name":"registerVault","inputs":[{"name":"vault","type":"address","internalType":"address"}],"outputs":[],"stateMutability":"nonpayable"},{"type":"function","name":"removeGuardian","inputs":[{"name":"vault","type":"address","internalType":"address"},{"name":"guardian","type":"address","internalType":"address"}],"outputs":[],"stateMutability":"nonpayable"},{"type":"function","name":"renounceOwnership","inputs":[],"outputs":[],"stateMutability":"nonpayable"},{"type":"function","name":"searchByAddressPrefix","inputs":[{"name":"addressPrefix","type":"bytes4","internalType":"bytes4"},{"name":"limit","type":"uint256","internalType":"uint256"}],"outputs":[{"name":"matches","type":"tuple[]","internalType":"struct VaultRegistry.VaultInfo[]","components":[{"name":"vault","type":"address","internalType":"address"},{"name":"originalOwner","type":"address","internalType":"address"},{"name":"createdAt","type":"uint256","internalType":"uint256"},{"name":"lastActiveAt","type":"uint256","internalType":"uint256"},{"name":"proofScore","type":"uint256","internalType":"uint256"},{"name":"badgeCount","type":"uint256","internalType":"uint256"},{"name":"hasGuardians","type":"bool","internalType":"bool"},{"name":"hasRecoveryId","type":"bool","internalType":"bool"},{"name":"isRecoverable","type":"bool","internalType":"bool"}]}],"stateMutability":"view"},{"type":"function","name":"searchByBadges","inputs":[{"name":"badgeIds","type":"uint256[]","internalType":"uint256[]"}],"outputs":[{"name":"vault","type":"address","internalType":"address"}],"stateMutability":"view"},{"type":"function","name":"searchByCreationTime","inputs":[{"name":"startTime","type":"uint256","internalType":"uint256"},{"name":"endTime","type":"uint256","internalType":"uint256"},{"name":"limit","type":"uint256","internalType":"uint256"}],"outputs":[{"name":"matches","type":"tuple[]","internalType":"struct VaultRegistry.VaultInfo[]","components":[{"name":"vault","type":"address","internalType":"address"},{"name":"originalOwner","type":"address","internalType":"address"},{"name":"createdAt","type":"uint256","internalType":"uint256"},{"name":"lastActiveAt","type":"uint256","internalType":"uint256"},{"name":"proofScore","type":"uint256","internalType":"uint256"},{"name":"badgeCount","type":"uint256","internalType":"uint256"},{"name":"hasGuardians","type":"bool","internalType":"bool"},{"name":"hasRecoveryId","type":"bool","internalType":"bool"},{"name":"isRecoverable","type":"bool","internalType":"bool"}]}],"stateMutability":"view"},{"type":"function","name":"searchByEmail","inputs":[{"name":"emailHash","type":"bytes32","internalType":"bytes32"}],"outputs":[{"name":"vault","type":"address","internalType":"address"}],"stateMutability":"view"},{"type":"function","name":"searchByGuardian","inputs":[{"name":"guardian","type":"address","internalType":"address"}],"outputs":[{"name":"vaults","type":"address[]","internalType":"address[]"}],"stateMutability":"view"},{"type":"function","name":"searchByPhone","inputs":[{"name":"phoneHash","type":"bytes32","internalType":"bytes32"}],"outputs":[{"name":"vault","type":"address","internalType":"address"}],"stateMutability":"view"},{"type":"function","name":"searchByRecoveryId","inputs":[{"name":"recoveryId","type":"string","internalType":"string"}],"outputs":[{"name":"vault","type":"address","internalType":"address"}],"stateMutability":"view"},{"type":"function","name":"searchByUsername","inputs":[{"name":"username","type":"string","internalType":"string"}],"outputs":[{"name":"vault","type":"address","internalType":"address"}],"stateMutability":"view"},{"type":"function","name":"searchByVaultAddress","inputs":[{"name":"vaultAddress","type":"address","internalType":"address"}],"outputs":[{"name":"info","type":"tuple","internalType":"struct VaultRegistry.VaultInfo","components":[{"name":"vault","type":"address","internalType":"address"},{"name":"originalOwner","type":"address","internalType":"address"},{"name":"createdAt","type":"uint256","internalType":"uint256"},{"name":"lastActiveAt","type":"uint256","internalType":"uint256"},{"name":"proofScore","type":"uint256","internalType":"uint256"},{"name":"badgeCount","type":"uint256","internalType":"uint256"},{"name":"hasGuardians","type":"bool","internalType":"bool"},{"name":"hasRecoveryId","type":"bool","internalType":"bool"},{"name":"isRecoverable","type":"bool","internalType":"bool"}]}],"stateMutability":"view"},{"type":"function","name":"searchByWalletAddress","inputs":[{"name":"oldWallet","type":"address","internalType":"address"}],"outputs":[{"name":"vault","type":"address","internalType":"address"},{"name":"info","type":"tuple","internalType":"struct VaultRegistry.VaultInfo","components":[{"name":"vault","type":"address","internalType":"address"},{"name":"originalOwner","type":"address","internalType":"address"},{"name":"createdAt","type":"uint256","internalType":"uint256"},{"name":"lastActiveAt","type":"uint256","internalType":"uint256"},{"name":"proofScore","type":"uint256","internalType":"uint256"},{"name":"badgeCount","type":"uint256","internalType":"uint256"},{"name":"hasGuardians","type":"bool","internalType":"bool"},{"name":"hasRecoveryId","type":"bool","internalType":"bool"},{"name":"isRecoverable","type":"bool","internalType":"bool"}]}],"stateMutability":"view"},{"type":"function","name":"setBadgeManager","inputs":[{"name":"_badgeManager","type":"address","internalType":"address"}],"outputs":[],"stateMutability":"nonpayable"},{"type":"function","name":"setEmailRecovery","inputs":[{"name":"vault","type":"address","internalType":"address"},{"name":"emailHash","type":"bytes32","internalType":"bytes32"}],"outputs":[],"stateMutability":"nonpayable"},{"type":"function","name":"setPhoneRecovery","inputs":[{"name":"vault","type":"address","internalType":"address"},{"name":"phoneHash","type":"bytes32","internalType":"bytes32"}],"outputs":[],"stateMutability":"nonpayable"},{"type":"function","name":"setProofScoreManager","inputs":[{"name":"_proofScoreManager","type":"address","internalType":"address"}],"outputs":[],"stateMutability":"nonpayable"},{"type":"function","name":"setRecoveryId","inputs":[{"name":"vault","type":"address","internalType":"address"},{"name":"recoveryId","type":"string","internalType":"string"}],"outputs":[],"stateMutability":"nonpayable"},{"type":"function","name":"setUsername","inputs":[{"name":"vault","type":"address","internalType":"address"},{"name":"username","type":"string","internalType":"string"}],"outputs":[],"stateMutability":"nonpayable"},{"type":"function","name":"setVaultHub","inputs":[{"name":"_vaultHub","type":"address","internalType":"address"}],"outputs":[],"stateMutability":"nonpayable"},{"type":"function","name":"totalVaults","inputs":[],"outputs":[{"name":"","type":"uint256","internalType":"uint256"}],"stateMutability":"view"},{"type":"function","name":"transferOwnership","inputs":[{"name":"newOwner","type":"address","internalType":"address"}],"outputs":[],"stateMutability":"nonpayable"},{"type":"function","name":"updateActivity","inputs":[{"name":"vault","type":"address","internalType":"address"}],"outputs":[],"stateMutability":"nonpayable"},{"type":"function","name":"updateBadgeFingerprint","inputs":[{"name":"vault","type":"address","internalType":"address"}],"outputs":[],"stateMutability":"nonpayable"},{"type":"function","name":"usernameTaken","inputs":[{"name":"","type":"bytes32","internalType":"bytes32"}],"outputs":[{"name":"","type":"bool","internalType":"bool"}],"stateMutability":"view"},{"type":"function","name":"vaultByBadgeFingerprint","inputs":[{"name":"","type":"bytes32","internalType":"bytes32"}],"outputs":[{"name":"","type":"address","internalType":"address"}],"stateMutability":"view"},{"type":"function","name":"vaultByEmailHash","inputs":[{"name":"","type":"bytes32","internalType":"bytes32"}],"outputs":[{"name":"","type":"address","internalType":"address"}],"stateMutability":"view"},{"type":"function","name":"vaultByPhoneHash","inputs":[{"name":"","type":"bytes32","internalType":"bytes32"}],"outputs":[{"name":"","type":"address","internalType":"address"}],"stateMutability":"view"},{"type":"function","name":"vaultByRecoveryId","inputs":[{"name":"","type":"bytes32","internalType":"bytes32"}],"outputs":[{"name":"","type":"address","internalType":"address"}],"stateMutability":"view"},{"type":"function","name":"vaultByUsernameHash","inputs":[{"name":"","type":"bytes32","internalType":"bytes32"}],"outputs":[{"name":"","type":"address","internalType":"address"}],"stateMutability":"view"},{"type":"function","name":"vaultCreatedAt","inputs":[{"name":"","type":"address","internalType":"address"}],"outputs":[{"name":"","type":"uint256","internalType":"uint256"}],"stateMutability":"view"},{"type":"function","name":"vaultHub","inputs":[],"outputs":[{"name":"","type":"address","internalType":"contract IVaultInfrastructure"}],"stateMutability":"view"},{"type":"function","name":"vaultIndex","inputs":[{"name":"","type":"address","internalType":"address"}],"outputs":[{"name":"","type":"uint256","internalType":"uint256"}],"stateMutability":"view"},{"type":"function","name":"vaultLastActiveAt","inputs":[{"name":"","type":"address","internalType":"address"}],"outputs":[{"name":"","type":"uint256","internalType":"uint256"}],"stateMutability":"view"},{"type":"function","name":"vaultsGuardedBy","inputs":[{"name":"","type":"address","internalType":"address"},{"name":"","type":"uint256","internalType":"uint256"}],"outputs":[{"name":"","type":"address","internalType":"address"}],"stateMutability":"view"},{"type":"event","name":"BadgeFingerprintUpdated","inputs":[{"name":"vault","type":"address","indexed":true,"internalType":"address"},{"name":"fingerprint","type":"bytes32","indexed":true,"internalType":"bytes32"}],"anonymous":false},{"type":"event","name":"EmailRecoverySet","inputs":[{"name":"vault","type":"address","indexed":true,"internalType":"address"},{"name":"emailHash","type":"bytes32","indexed":true,"internalType":"bytes32"}],"anonymous":false},{"type":"event","name":"GuardianRegistered","inputs":[{"name":"vault","type":"address","indexed":true,"internalType":"address"},{"name":"guardian","type":"address","indexed":true,"internalType":"address"}],"anonymous":false},{"type":"event","name":"GuardianRemoved","inputs":[{"name":"vault","type":"address","indexed":true,"internalType":"address"},{"name":"guardian","type":"address","indexed":true,"internalType":"address"}],"anonymous":false},{"type":"event","name":"OwnershipTransferred","inputs":[{"name":"previousOwner","type":"address","indexed":true,"internalType":"address"},{"name":"newOwner","type":"address","indexed":true,"internalType":"address"}],"anonymous":false},{"type":"event","name":"PhoneRecoverySet","inputs":[{"name":"vault","type":"address","indexed":true,"internalType":"address"},{"name":"phoneHash","type":"bytes32","indexed":true,"internalType":"bytes32"}],"anonymous":false},{"type":"event","name":"RecoveryIdSet","inputs":[{"name":"vault","type":"address","indexed":true,"internalType":"address"},{"name":"recoveryIdHash","type":"bytes32","indexed":true,"internalType":"bytes32"}],"anonymous":false},{"type":"event","name":"UsernameSet","inputs":[{"name":"vault","type":"address","indexed":true,"internalType":"address"},{"name":"usernameHash","type":"bytes32","indexed":true,"internalType":"bytes32"}],"anonymous":false},{"type":"event","name":"VaultActivityUpdated","inputs":[{"name":"vault","type":"address","indexed":true,"internalType":"address"},{"name":"timestamp","type":"uint256","indexed":false,"internalType":"uint256"}],"anonymous":false},{"type":"event","name":"VaultRegistered","inputs":[{"name":"vault","type":"address","indexed":true,"internalType":"address"},{"name":"owner","type":"address","indexed":true,"internalType":"address"},{"name":"timestamp","type":"uint256","indexed":false,"internalType":"uint256"}],"anonymous":false},{"type":"error","name":"InvalidVault","inputs":[]},{"type":"error","name":"NotVaultOwner","inputs":[]},{"type":"error","name":"OwnableInvalidOwner","inputs":[{"name":"owner","type":"address","internalType":"address"}]},{"type":"error","name":"OwnableUnauthorizedAccount","inputs":[{"name":"account","type":"address","internalType":"address"}]},{"type":"error","name":"RecoveryIdAlreadyTaken","inputs":[]},{"type":"error","name":"ReentrancyGuardReentrantCall","inputs":[]},{"type":"error","name":"UsernameAlreadyTaken","inputs":[]},{"type":"error","name":"VaultNotFound","inputs":[]},{"type":"error","name":"ZeroAddress","inputs":[]}],"bytecode":{"object":"0x60803461012b57601f61282138819003918201601f19168301916001600160401b0383118484101761012f5780849260609460405283398101031261012b5761004781610143565b90610060604061005960208401610143565b9201610143565b903315610118575f8054336001600160a01b0319821681178355604051959290916001600160a01b0316907f8be0079c531659141344cd1fd0a4f28419497f9722a3daafe3b4186f6b6457e09080a3600180556001600160a01b0316801561010957600280546001600160a01b03199081169290921790556003805482166001600160a01b0393841617905560048054909116929091169190911790556126c990816101588239f35b63d92e233d60e01b5f5260045ffd5b631e4fbdf760e01b5f525f60045260245ffd5b5f80fd5b634e487b7160e01b5f52604160045260245ffd5b51906001600160a01b038216820361012b5756fe6080806040526004361015610012575f80fd5b5f3560e01c90816279175114611ea3575080630741206e14611e4e57806309b71c5c14611e0b578063194cbed814611dd35780631d246de714611c535780631f3f5ed114611bad57806322e64d25146105ec57806327cbf63c14611a8a5780632851bbc914611a3e57806328cbfb7c14611a1657806328cc67111461199e5780632c1e1c8c146117d15780632fcfbf401461174e57806332c2b0c7146116885780633458d11f1461165057806335a88aad146115d75780633c208f61146115a55780633ce022fe1461031f57806341e4728c146113d457806349f6e72c1461127057806352bf358e146112485780635486f10014610c505780636353c3b4146111ff57806367ccd1cb146110335780636b04847714610e625780636dd6e80b14610e3a5780636fcdca7214610e0b578063715018a614610dc757806372ff242f14610d1d578063890cbcf514610ceb5780638c3d609014610c555780638d65402314610c505780638da5cb5b14610c2957806390229af714610bf65780639094a91e14610bb4578063946f6d52146109bc5780639b27a90e14610772578063ba573c3c14610661578063c88621281461061e578063cff30200146105ec578063e2045452146103f5578063ee675cf9146103c3578063f2fde38b14610351578063f35949621461031f578063f69c6dec14610294578063fa3fd3bc1461025c5763fcfa4c0714610220575f80fd5b34610258576020366003190112610258576001600160a01b03610241611f58565b165f52600f602052602060405f2054604051908152f35b5f80fd5b34610258576020366003190112610258576001600160a01b0361027d611f58565b165f526010602052602060405f2054604051908152f35b34610258576020366003190112610258576004356001600160401b038111610258576102d16102ca6102d6923690600401611ff0565b3691612281565b612596565b6040516103026020828180820195805191829101875e81015f838201520301601f198101835282612141565b5190205f52600a602052602060ff60405f20541615604051908152f35b34610258576020366003190112610258576004355f526007602052602060018060a01b0360405f205416604051908152f35b346102585760203660031901126102585761036a611f58565b61037261255f565b6001600160a01b031680156103b0575f80546001600160a01b03198116831782556001600160a01b0316905f5160206126745f395f51905f529080a3005b631e4fbdf760e01b5f525f60045260245ffd5b34610258576020366003190112610258576004355f526005602052602060018060a01b0360405f205416604051908152f35b3461025857610403366120bf565b600254604051632724fe0960e01b81526001600160a01b03948516600482018190529490911690602081602481855afa9081156105a3575f916105bd575b50336001600160a01b03909116036105ae5760206024916040519283809263652b9b4160e01b82528860048301525afa9081156105a3575f91610574575b501561056557610494916102d1913691612281565b6040516104c06020828180820195805191829101875e81015f838201520301601f198101835282612141565b51902090815f52600a60205260ff60405f20541680610545575b610536575f82815260096020908152604080832080546001600160a01b03191685179055600a9091528120805460ff191660011790557fecfe7c0967bd11938c97b0ca7b35cebf4f1b6b0fa5185576f9562c57d42e0cf29080a3005b639e9987d960e01b5f5260045ffd5b505f828152600960205260409020546001600160a01b03168114156104da565b630681d31960e51b5f5260045ffd5b610596915060203d60201161059c575b61058e8183612141565b810190612164565b8461047f565b503d610584565b6040513d5f823e3d90fd5b630e7fea9d60e01b5f5260045ffd5b6105df915060203d6020116105e5575b6105d78183612141565b81019061217c565b85610441565b503d6105cd565b34610258576020366003190112610258576004355f526008602052602060018060a01b0360405f205416604051908152f35b3461025857602036600319011261025857610637611f58565b61063f61255f565b600380546001600160a01b0319166001600160a01b0392909216919091179055005b346102585760203660031901126102585761067a611f58565b61068261219b565b600254604051630709df4560e01b81526001600160a01b039384166004820152919216602082602481845afa9182156105a3575f92610751575b506001600160a01b0382168015159190826106fd575b50506106ec575b6106e860405192839283612102565b0390f35b90506106f781612330565b906106d9565b602091925060246040518094819363652b9b4160e01b835260048301525afa9081156105a3575f91610732575b5083806106d2565b61074b915060203d60201161059c5761058e8183612141565b8361072a565b61076b91925060203d6020116105e5576105d78183612141565b90836106bc565b346102585760403660031901126102585761078b611f58565b610793611f6e565b600254604051632724fe0960e01b81526001600160a01b03938416600482018190529390911690602081602481855afa9081156105a3575f9161099d575b50336001600160a01b03909116036105ae5760206024916040519283809263652b9b4160e01b82528760048301525afa9081156105a3575f9161097e575b50156105655760018060a01b031690815f52600d60205260405f20815f5260205260ff60405f20541661083e57005b815f52600d60205260405f20815f5260205260405f2060ff198154169055815f52600c60205260405f20905f5b825480821015610975578261088083866120aa565b905460039190911b1c6001600160a01b0316146108a0575060010161086b565b9192915f19810191908211610961576108d86108bf6108fc93856120aa565b905460039190911b1c6001600160a01b031691846120aa565b9080546001600160a01b0360039390931b83811b199091169290931690921b179055565b8054801561094d575f19019061091282826120aa565b81549060018060a01b039060031b1b19169055555b7fee943cdb81826d5909c559c6b1ae6908fcaf2dbc16c4b730346736b486283e8b5f80a3005b634e487b7160e01b5f52603160045260245ffd5b634e487b7160e01b5f52601160045260245ffd5b50509050610927565b610997915060203d60201161059c5761058e8183612141565b8361080f565b6109b6915060203d6020116105e5576105d78183612141565b846107d1565b346102585760403660031901126102585760043563ffffffff60e01b811680910361025857602435905f600e546103e881115f14610bad57506103e892915b6002546001600160a01b0316935f5b81811080610ba4575b15610ab257610a218161207e565b9054604051632724fe0960e01b815260039290921b1c6001600160a01b031660048201526020816024818a5afa80156105a35784915f91610a94575b5060601b6001600160e01b03191614610a7f575b610a7a906121de565b610a0a565b92610a8c610a7a916121de565b939050610a71565b610aac915060203d81116105e5576105d78183612141565b88610a5d565b508483610abe81612203565b935f915f5b85811080610b9b575b15610b8d57610ada8161207e565b9054604051632724fe0960e01b815260039290921b1c6001600160a01b031660048201819052906020816024818a5afa80156105a35785915f91610b6f575b5060601b6001600160e01b03191614610b3c575b50610b37906121de565b610ac3565b610b379194610b4d610b6892612330565b610b57828b612252565b52610b62818a612252565b506121de565b9390610b2d565b610b87915060203d81116105e5576105d78183612141565b8a610b19565b604051806106e8898261201d565b50818410610acc565b50848410610a13565b92916109fb565b3461025857602036600319011261025857600435600e5481101561025857610bdd60209161207e565b905460405160039290921b1c6001600160a01b03168152f35b3461025857602036600319011261025857610120610c1a610c15611f58565b612330565b610c276040518092611f84565bf35b34610258575f366003190112610258575f546040516001600160a01b039091168152602090f35b612061565b3461025857602036600319011261025857600435610c7161219b565b50600e54811015610cb057610c859061207e565b905460039190911b1c6001600160a01b0316610ca081612330565b906106e860405192839283612102565b60405162461bcd60e51b8152602060048201526013602482015272696e646578206f7574206f6620626f756e647360681b6044820152606490fd5b34610258576020366003190112610258576004355f52600b602052602060018060a01b0360405f205416604051908152f35b34610258576020366003190112610258576004356001600160401b0381116102585736602382011215610258576004810135906001600160401b038211610258578160051b9036602483830101116102585760405160208101939092906001600160fb1b03106102585782816020926024610da69501873781010301601f198101835282612141565b5190205f52600b602052602060018060a01b0360405f205416604051908152f35b34610258575f36600319011261025857610ddf61255f565b5f80546001600160a01b0319811682556001600160a01b03165f5160206126745f395f51905f528280a3005b34610258576020366003190112610258576004355f52600a602052602060ff60405f2054166040519015158152f35b34610258575f366003190112610258576002546040516001600160a01b039091168152602090f35b3461025857610e70366120bf565b600254604051632724fe0960e01b81526001600160a01b03948516600482018190529490911690602081602481855afa9081156105a3575f91611014575b50336001600160a01b03909116036105ae5760206024916040519283809263652b9b4160e01b82528860048301525afa9081156105a3575f91610ff5575b501561056557610f19602060405183819483830196873781015f838201520301601f198101835282612141565b5190205f818152600560205260409020549091906001600160a01b0316151580610fd5575b610fc657805f52600660205260405f205480610fa5575b50815f52600560205260405f208160018060a01b0319825416179055805f5260066020528160405f20557ffc7d1b6c9bf9e0f70a7514a9c70bcc5f4adff774149af5406e27b89285d3af0d5f80a3005b5f90815260056020526040902080546001600160a01b031916905582610f55565b63bd24441b60e01b5f5260045ffd5b505f828152600560205260409020546001600160a01b0316811415610f3e565b61100e915060203d60201161059c5761058e8183612141565b84610eec565b61102d915060203d6020116105e5576105d78183612141565b85610eae565b346102585760203660031901126102585761104c611f58565b60025460405163652b9b4160e01b81526001600160a01b038381166004830181905292169290602081602481875afa9081156105a3575f916111e0575b501561056557604051632724fe0960e01b815260048101839052602081602481875afa9081156105a3575f916111c1575b506001600160a01b0316923384149081156111b7575b501561118157815f52601060205260405f205415611124575b50805f5260116020524260405f20557fbdf39c8e4504706c3ee61ab487623ef56ab40afa1c9bd55cc1732562ab38114a6020604051428152a3005b600e545f838152600f6020526040902081905590600160401b82101561116d576108d88260016111599401600e55600e6120aa565b805f5260106020524260405f2055826110e9565b634e487b7160e01b5f52604160045260245ffd5b60405162461bcd60e51b815260206004820152600e60248201526d1b9bdd08185d5d1a1bdc9a5e995960921b6044820152606490fd5b90503314846110d0565b6111da915060203d6020116105e5576105d78183612141565b846110ba565b6111f9915060203d60201161059c5761058e8183612141565b84611089565b3461025857604036600319011261025857611218611f58565b6001600160a01b03165f908152600c602052604090208054602435919082101561025857602091610bdd916120aa565b34610258575f366003190112610258576003546040516001600160a01b039091168152602090f35b3461025857604036600319011261025857611289611f58565b600254604051632724fe0960e01b81526001600160a01b0392831660048201819052602480359491939091169190602090829081855afa9081156105a3575f916113b5575b50336001600160a01b03909116036105ae5760206024916040519283809263652b9b4160e01b82528660048301525afa9081156105a3575f91611396575b501561056557805f52601260205260405f205480611375575b50815f52600760205260405f208160018060a01b0319825416179055805f5260126020528160405f20557fc765f881c6369f3b21bebf43cf6ccc975879f0d2d36882e92f0e683a512662565f80a3005b5f90815260076020526040902080546001600160a01b031916905582611325565b6113af915060203d60201161059c5761058e8183612141565b8361130c565b6113ce915060203d6020116105e5576105d78183612141565b846112ce565b34610258576020366003190112610258576113ed611f58565b60025460405163652b9b4160e01b81526001600160a01b03928316600482018190529290911690602081602481855afa9081156105a3575f91611586575b501561056557602060249160405192838092632724fe0960e01b82528660048301525afa9081156105a3575f91611567575b506003546001600160a01b0316908161147257005b604051631be122ff60e11b81526001600160a01b039091166004820152905f90829060249082905afa9081156105a3575f91611545575b50805190816114b457005b90604051908160208101936020859101925f5b81811061152c5750506114e3925003601f198101835282612141565b5190205f818152600b6020526040812080546001600160a01b031916841790559091907f0d6ab26868ee08c8468752de3c7acfc1a6c53450926b8eef8d39f84e39f72a289080a3005b84518352602094850194869450909201916001016114c7565b61156191503d805f833e6115598183612141565b8101906122b7565b826114a9565b611580915060203d6020116105e5576105d78183612141565b8261145d565b61159f915060203d60201161059c5761058e8183612141565b8361142b565b34610258576020366003190112610258576004355f526009602052602060018060a01b0360405f205416604051908152f35b34610258576020366003190112610258576004356001600160401b03811161025857611607903690600401611ff0565b61162e602060405183819483830196873781015f838201520301601f198101835282612141565b5190205f526005602052602060018060a01b0360405f20541615604051908152f35b34610258576020366003190112610258576001600160a01b03611671611f58565b165f526011602052602060405f2054604051908152f35b34610258576020366003190112610258576001600160a01b036116a9611f58565b165f52600c60205260405f20604051806020835491828152019081935f5260205f20905f5b81811061172f57505050816116e4910382612141565b604051918291602083019060208452518091526040830191905f5b81811061170d575050500390f35b82516001600160a01b03168452859450602093840193909201916001016116ff565b82546001600160a01b03168452602090930192600192830192016116ce565b34610258576020366003190112610258576004356001600160401b038111610258576102d16102ca611784923690600401611ff0565b6040516117b06020828180820195805191829101875e81015f838201520301601f198101835282612141565b5190205f526009602052602060018060a01b0360405f205416604051908152f35b346102585760603660031901126102585760043560443560243580831015611969578115158061195e575b1561192c575f90600e546103e881115f1461192757506103e85b5f5b8181108061191e575b1561188b5761182f8161207e565b60018060a01b0391549060031b1c165f52601060205260405f205483878210159182611880575b505061186b575b611866906121de565b611818565b92611878611866916121de565b93905061185d565b111590508388611856565b5092509061189881612203565b935f915f5b85811080611915575b15610b8d576118b48161207e565b60018060a01b0391549060031b1c16805f52601060205260405f20548685821015918261190a575b50506118f2575b506118ed906121de565b61189d565b6118ed9194610b4d61190392612330565b93906118e3565b11159050868a6118dc565b508184106118a6565b50848410611821565b611816565b60405162461bcd60e51b815260206004820152600a60248201526906c696d697420312d35360b41b6044820152606490fd5b5060328211156117fc565b60405162461bcd60e51b815260206004820152600d60248201526c696e76616c69642072616e676560981b6044820152606490fd5b34610258576020366003190112610258576004356001600160401b038111610258576119ce903690600401611ff0565b6119f5602060405183819483830196873781015f838201520301601f198101835282612141565b5190205f526005602052602060018060a01b0360405f205416604051908152f35b34610258575f366003190112610258576004546040516001600160a01b039091168152602090f35b34610258576020366003190112610258576001600160a01b03611a5f611f58565b165f52600660205260405f205415801590611a82575b6020906040519015158152f35b506001611a75565b3461025857604036600319011261025857611aa3611f58565b600254604051632724fe0960e01b81526001600160a01b0392831660048201819052602480359491939091169190602090829081855afa9081156105a3575f91611b8e575b50336001600160a01b03909116036105ae5760206024916040519283809263652b9b4160e01b82528660048301525afa9081156105a3575f91611b6f575b5015610565575f82815260086020526040812080546001600160a01b031916831790557f7cd06e2799342945ea12da511b88817b1139c59a36388b3f33e478b40b71e6999080a3005b611b88915060203d60201161059c5761058e8183612141565b83611b26565b611ba7915060203d6020116105e5576105d78183612141565b84611ae8565b34610258576020366003190112610258576024611bc8611f58565b611bd061219b565b60025460405163652b9b4160e01b81526001600160a01b038085166004830152909492939260209286928391165afa80156105a357610120935f91611c34575b50611c24575b50610c276040518092611f84565b611c2e9150612330565b82611c16565b611c4d915060203d60201161059c5761058e8183612141565b84611c10565b3461025857604036600319011261025857611c6c611f58565b611c74611f6e565b600254604051632724fe0960e01b81526001600160a01b038481166004830181905293921690602081602481855afa9081156105a3575f91611db4575b50336001600160a01b03909116036105ae5760206024916040519283809263652b9b4160e01b82528760048301525afa9081156105a3575f91611d95575b50156105655760018060a01b031691825f52600d60205260405f20825f5260205260ff60405f20541615611d1f57005b825f52600d60205260405f20825f5260205260405f20600160ff19825416179055825f52600c60205260405f2090815491600160401b83101561116d57826108d8916001611d6f950181556120aa565b7f08ae6bc280c01a35af7dc83dc36ad004116f33b8819281ff9f4405c121a97b895f80a3005b611dae915060203d60201161059c5761058e8183612141565b84611cef565b611dcd915060203d6020116105e5576105d78183612141565b85611cb1565b34610258576020366003190112610258576001600160a01b03611df4611f58565b165f526006602052602060405f2054604051908152f35b3461025857602036600319011261025857611e24611f58565b611e2c61255f565b600480546001600160a01b0319166001600160a01b0392909216919091179055005b3461025857602036600319011261025857611e67611f58565b611e6f61255f565b6001600160a01b03168015611e9457600280546001600160a01b031916919091179055005b63d92e233d60e01b5f5260045ffd5b3461025857602036600319011261025857611ebc611f58565b60025463652b9b4160e01b83526001600160a01b0391821660048401819052929160209183916024918391165afa9081156105a3575f91611f39575b50611eff57005b805f5260116020524260405f20557fd55d88bafaa873a710f1fe42d94fbcf49941d3591757d56c66ef01e9c1c5568d6020604051428152a2005b611f52915060203d60201161059c5761058e8183612141565b82611ef8565b600435906001600160a01b038216820361025857565b602435906001600160a01b038216820361025857565b610100809160018060a01b03815116845260018060a01b03602082015116602085015260408101516040850152606081015160608501526080810151608085015260a081015160a085015260c0810151151560c085015260e0810151151560e085015201511515910152565b9181601f84011215610258578235916001600160401b038311610258576020838186019501011161025857565b60206040818301928281528451809452019201905f5b8181106120405750505090565b9091926020610120826120566001948851611f84565b019401929101612033565b34610258575f366003190112610258576020600e54604051908152f35b600e5481101561209657600e5f5260205f2001905f90565b634e487b7160e01b5f52603260045260245ffd5b8054821015612096575f5260205f2001905f90565b906040600319830112610258576004356001600160a01b03811681036102585791602435906001600160401b038211610258576120fe91600401611ff0565b9091565b6001600160a01b039091168152610140810192916121239160200190611f84565b565b61012081019081106001600160401b0382111761116d57604052565b601f909101601f19168101906001600160401b0382119082101761116d57604052565b90816020910312610258575180151581036102585790565b9081602091031261025857516001600160a01b03811681036102585790565b604051906121a882612125565b5f610100838281528260208201528260408201528260608201528260808201528260a08201528260c08201528260e08201520152565b5f1981146109615760010190565b6001600160401b03811161116d5760051b60200190565b9061220d826121ec565b61221a6040519182612141565b828152809261222b601f19916121ec565b01905f5b82811061223b57505050565b60209061224661219b565b8282850101520161222f565b80518210156120965760209160051b010190565b6001600160401b03811161116d57601f01601f191660200190565b92919261228d82612266565b9161229b6040519384612141565b829481845281830111610258578281602093845f960137010152565b602081830312610258578051906001600160401b03821161025857019080601f830112156102585781516122ea816121ec565b926122f86040519485612141565b81845260208085019260051b82010192831161025857602001905b8282106123205750505090565b8151815260209182019101612313565b61233861219b565b5060025460405163652b9b4160e01b81526001600160a01b03928316600482018190529290911690602081602481855afa9081156105a3575f91612540575b501561056557602060249160405192838092632724fe0960e01b82528660048301525afa9081156105a3575f91612521575b506004545f906001600160a01b0316806124ae575b506003545f906001600160a01b031680612453575b505f8481526010602090815260408083205460118352818420546006909352922054158015958695939161244a575b6040519761240f89612125565b88526001600160a01b0316602088015260408701526060860152608085015260a0840152600160c084015260e0830152151561010082015290565b60019650612402565b604051631be122ff60e11b81526001600160a01b0385166004820152905f90829060249082905afa5f9181612492575b50156123d3579050515f6123d3565b6124a79192503d805f833e6115598183612141565b905f612483565b604051639cd965ad60e01b81526001600160a01b038416600482015290602090829060249082905afa5f91816124ed575b50156123be5790505f6123be565b9091506020813d602011612519575b8161250960209383612141565b810103126102585751905f6124df565b3d91506124fc565b61253a915060203d6020116105e5576105d78183612141565b5f6123a9565b612559915060203d60201161059c5761058e8183612141565b5f612377565b5f546001600160a01b0316330361257257565b63118cdaa760e01b5f523360045260245ffd5b908151811015612096570160200190565b908151916125a383612266565b926125b16040519485612141565b8084526125c0601f1991612266565b013660208501375f5b815181101561266f5760416125de8284612585565b5160f81c101580612657575b1561262d5760206125fb8284612585565b5160f81c019060ff82116109615760019160f81b6001600160f81b0319165f1a6126258287612585565b535b016125c9565b6001906001600160f81b03196126438285612585565b51165f1a6126518287612585565b53612627565b50605a6126648284612585565b5160f81c11156125ea565b505056fe8be0079c531659141344cd1fd0a4f28419497f9722a3daafe3b4186f6b6457e0a2646970667358221220b26520aad62b579e3091f1f295384a6513e045b94af5f142842ee51a10fd4c9064736f6c634300081e0033","linkReferences":{}},"methodIdentifiers":{"allVaults(uint256)":"9094a91e","badgeManager()":"52bf358e","getTotalVaults()":"5486f100","getVaultByIndex(uint256)":"8c3d6090","getVaultInfo(address)":"90229af7","isRecoverable(address)":"2851bbc9","isRecoveryIdAvailable(string)":"35a88aad","isUsernameAvailable(string)":"f69c6dec","owner()":"8da5cb5b","proofScoreManager()":"28cbfb7c","recoveryIdOfVault(address)":"194cbed8","registerGuardian(address,address)":"1d246de7","registerVault(address)":"67ccd1cb","removeGuardian(address,address)":"9b27a90e","renounceOwnership()":"715018a6","searchByAddressPrefix(bytes4,uint256)":"946f6d52","searchByBadges(uint256[])":"72ff242f","searchByCreationTime(uint256,uint256,uint256)":"2c1e1c8c","searchByEmail(bytes32)":"3ce022fe","searchByGuardian(address)":"32c2b0c7","searchByPhone(bytes32)":"22e64d25","searchByRecoveryId(string)":"28cc6711","searchByUsername(string)":"2fcfbf40","searchByVaultAddress(address)":"1f3f5ed1","searchByWalletAddress(address)":"ba573c3c","setBadgeManager(address)":"c8862128","setEmailRecovery(address,bytes32)":"49f6e72c","setPhoneRecovery(address,bytes32)":"27cbf63c","setProofScoreManager(address)":"09b71c5c","setRecoveryId(address,string)":"6b048477","setUsername(address,string)":"e2045452","setVaultHub(address)":"0741206e","totalVaults()":"8d654023","transferOwnership(address)":"f2fde38b","updateActivity(address)":"00791751","updateBadgeFingerprint(address)":"41e4728c","usernameTaken(bytes32)":"6fcdca72","vaultByBadgeFingerprint(bytes32)":"890cbcf5","vaultByEmailHash(bytes32)":"f3594962","vaultByPhoneHash(bytes32)":"cff30200","vaultByRecoveryId(bytes32)":"ee675cf9","vaultByUsernameHash(bytes32)":"3c208f61","vaultCreatedAt(address)":"fa3fd3bc","vaultHub()":"6dd6e80b","vaultIndex(address)":"fcfa4c07","vaultLastActiveAt(address)":"3458d11f","vaultsGuardedBy(address,uint256)":"6353c3b4"},"id":45}