{"abi":[{"type":"constructor","inputs":[{"name":"_vaultHub","type":"address","internalType":"address"},{"name":"_badgeManager","type":"address","internalType":"address"},{"name":"_proofScoreManager","type":"address","internalType":"address"}],"stateMutability":"nonpayable"},{"type":"function","name":"allVaults","inputs":[{"name":"","type":"uint256","internalType":"uint256"}],"outputs":[{"name":"","type":"address","internalType":"address"}],"stateMutability":"view"},{"type":"function","name":"badgeManager","inputs":[],"outputs":[{"name":"","type":"address","internalType":"contract IBadgeManager"}],"stateMutability":"view"},{"type":"function","name":"getVaultInfo","inputs":[{"name":"vault","type":"address","internalType":"address"}],"outputs":[{"name":"info","type":"tuple","internalType":"struct VaultRegistry.VaultInfo","components":[{"name":"vault","type":"address","internalType":"address"},{"name":"originalOwner","type":"address","internalType":"address"},{"name":"createdAt","type":"uint256","internalType":"uint256"},{"name":"lastActiveAt","type":"uint256","internalType":"uint256"},{"name":"proofScore","type":"uint256","internalType":"uint256"},{"name":"badgeCount","type":"uint256","internalType":"uint256"},{"name":"hasGuardians","type":"bool","internalType":"bool"},{"name":"hasRecoveryId","type":"bool","internalType":"bool"},{"name":"isRecoverable","type":"bool","internalType":"bool"}]}],"stateMutability":"view"},{"type":"function","name":"isRecoverable","inputs":[{"name":"vault","type":"address","internalType":"address"}],"outputs":[{"name":"","type":"bool","internalType":"bool"}],"stateMutability":"view"},{"type":"function","name":"isRecoveryIdAvailable","inputs":[{"name":"recoveryId","type":"string","internalType":"string"}],"outputs":[{"name":"","type":"bool","internalType":"bool"}],"stateMutability":"view"},{"type":"function","name":"isUsernameAvailable","inputs":[{"name":"username","type":"string","internalType":"string"}],"outputs":[{"name":"","type":"bool","internalType":"bool"}],"stateMutability":"view"},{"type":"function","name":"owner","inputs":[],"outputs":[{"name":"","type":"address","internalType":"address"}],"stateMutability":"view"},{"type":"function","name":"proofScoreManager","inputs":[],"outputs":[{"name":"","type":"address","internalType":"contract IProofScoreManager"}],"stateMutability":"view"},{"type":"function","name":"recoveryIdOfVault","inputs":[{"name":"","type":"address","internalType":"address"}],"outputs":[{"name":"","type":"bytes32","internalType":"bytes32"}],"stateMutability":"view"},{"type":"function","name":"registerGuardian","inputs":[{"name":"vault","type":"address","internalType":"address"},{"name":"guardian","type":"address","internalType":"address"}],"outputs":[],"stateMutability":"nonpayable"},{"type":"function","name":"registerVault","inputs":[{"name":"vault","type":"address","internalType":"address"}],"outputs":[],"stateMutability":"nonpayable"},{"type":"function","name":"removeGuardian","inputs":[{"name":"vault","type":"address","internalType":"address"},{"name":"guardian","type":"address","internalType":"address"}],"outputs":[],"stateMutability":"nonpayable"},{"type":"function","name":"renounceOwnership","inputs":[],"outputs":[],"stateMutability":"nonpayable"},{"type":"function","name":"searchByAddressPrefix","inputs":[{"name":"addressPrefix","type":"bytes4","internalType":"bytes4"},{"name":"limit","type":"uint256","internalType":"uint256"}],"outputs":[{"name":"matches","type":"tuple[]","internalType":"struct VaultRegistry.VaultInfo[]","components":[{"name":"vault","type":"address","internalType":"address"},{"name":"originalOwner","type":"address","internalType":"address"},{"name":"createdAt","type":"uint256","internalType":"uint256"},{"name":"lastActiveAt","type":"uint256","internalType":"uint256"},{"name":"proofScore","type":"uint256","internalType":"uint256"},{"name":"badgeCount","type":"uint256","internalType":"uint256"},{"name":"hasGuardians","type":"bool","internalType":"bool"},{"name":"hasRecoveryId","type":"bool","internalType":"bool"},{"name":"isRecoverable","type":"bool","internalType":"bool"}]}],"stateMutability":"view"},{"type":"function","name":"searchByBadges","inputs":[{"name":"badgeIds","type":"uint256[]","internalType":"uint256[]"}],"outputs":[{"name":"vault","type":"address","internalType":"address"}],"stateMutability":"view"},{"type":"function","name":"searchByEmail","inputs":[{"name":"emailHash","type":"bytes32","internalType":"bytes32"}],"outputs":[{"name":"vault","type":"address","internalType":"address"}],"stateMutability":"view"},{"type":"function","name":"searchByGuardian","inputs":[{"name":"guardian","type":"address","internalType":"address"}],"outputs":[{"name":"vaults","type":"address[]","internalType":"address[]"}],"stateMutability":"view"},{"type":"function","name":"searchByPhone","inputs":[{"name":"phoneHash","type":"bytes32","internalType":"bytes32"}],"outputs":[{"name":"vault","type":"address","internalType":"address"}],"stateMutability":"view"},{"type":"function","name":"searchByRecoveryId","inputs":[{"name":"recoveryId","type":"string","internalType":"string"}],"outputs":[{"name":"vault","type":"address","internalType":"address"}],"stateMutability":"view"},{"type":"function","name":"searchByUsername","inputs":[{"name":"username","type":"string","internalType":"string"}],"outputs":[{"name":"vault","type":"address","internalType":"address"}],"stateMutability":"view"},{"type":"function","name":"setBadgeManager","inputs":[{"name":"_badgeManager","type":"address","internalType":"address"}],"outputs":[],"stateMutability":"nonpayable"},{"type":"function","name":"setEmailRecovery","inputs":[{"name":"vault","type":"address","internalType":"address"},{"name":"emailHash","type":"bytes32","internalType":"bytes32"}],"outputs":[],"stateMutability":"nonpayable"},{"type":"function","name":"setPhoneRecovery","inputs":[{"name":"vault","type":"address","internalType":"address"},{"name":"phoneHash","type":"bytes32","internalType":"bytes32"}],"outputs":[],"stateMutability":"nonpayable"},{"type":"function","name":"setProofScoreManager","inputs":[{"name":"_proofScoreManager","type":"address","internalType":"address"}],"outputs":[],"stateMutability":"nonpayable"},{"type":"function","name":"setRecoveryId","inputs":[{"name":"vault","type":"address","internalType":"address"},{"name":"recoveryId","type":"string","internalType":"string"}],"outputs":[],"stateMutability":"nonpayable"},{"type":"function","name":"setUsername","inputs":[{"name":"vault","type":"address","internalType":"address"},{"name":"username","type":"string","internalType":"string"}],"outputs":[],"stateMutability":"nonpayable"},{"type":"function","name":"setVaultHub","inputs":[{"name":"_vaultHub","type":"address","internalType":"address"}],"outputs":[],"stateMutability":"nonpayable"},{"type":"function","name":"totalVaults","inputs":[],"outputs":[{"name":"","type":"uint256","internalType":"uint256"}],"stateMutability":"view"},{"type":"function","name":"transferOwnership","inputs":[{"name":"newOwner","type":"address","internalType":"address"}],"outputs":[],"stateMutability":"nonpayable"},{"type":"function","name":"updateActivity","inputs":[{"name":"vault","type":"address","internalType":"address"}],"outputs":[],"stateMutability":"nonpayable"},{"type":"function","name":"updateBadgeFingerprint","inputs":[{"name":"vault","type":"address","internalType":"address"}],"outputs":[],"stateMutability":"nonpayable"},{"type":"function","name":"usernameTaken","inputs":[{"name":"","type":"bytes32","internalType":"bytes32"}],"outputs":[{"name":"","type":"bool","internalType":"bool"}],"stateMutability":"view"},{"type":"function","name":"vaultByBadgeFingerprint","inputs":[{"name":"","type":"bytes32","internalType":"bytes32"}],"outputs":[{"name":"","type":"address","internalType":"address"}],"stateMutability":"view"},{"type":"function","name":"vaultByEmailHash","inputs":[{"name":"","type":"bytes32","internalType":"bytes32"}],"outputs":[{"name":"","type":"address","internalType":"address"}],"stateMutability":"view"},{"type":"function","name":"vaultByPhoneHash","inputs":[{"name":"","type":"bytes32","internalType":"bytes32"}],"outputs":[{"name":"","type":"address","internalType":"address"}],"stateMutability":"view"},{"type":"function","name":"vaultByRecoveryId","inputs":[{"name":"","type":"bytes32","internalType":"bytes32"}],"outputs":[{"name":"","type":"address","internalType":"address"}],"stateMutability":"view"},{"type":"function","name":"vaultByUsernameHash","inputs":[{"name":"","type":"bytes32","internalType":"bytes32"}],"outputs":[{"name":"","type":"address","internalType":"address"}],"stateMutability":"view"},{"type":"function","name":"vaultCreatedAt","inputs":[{"name":"","type":"address","internalType":"address"}],"outputs":[{"name":"","type":"uint256","internalType":"uint256"}],"stateMutability":"view"},{"type":"function","name":"vaultHub","inputs":[],"outputs":[{"name":"","type":"address","internalType":"contract IVaultInfrastructure"}],"stateMutability":"view"},{"type":"function","name":"vaultIndex","inputs":[{"name":"","type":"address","internalType":"address"}],"outputs":[{"name":"","type":"uint256","internalType":"uint256"}],"stateMutability":"view"},{"type":"function","name":"vaultLastActiveAt","inputs":[{"name":"","type":"address","internalType":"address"}],"outputs":[{"name":"","type":"uint256","internalType":"uint256"}],"stateMutability":"view"},{"type":"function","name":"vaultsGuardedBy","inputs":[{"name":"","type":"address","internalType":"address"},{"name":"","type":"uint256","internalType":"uint256"}],"outputs":[{"name":"","type":"address","internalType":"address"}],"stateMutability":"view"},{"type":"event","name":"BadgeFingerprintUpdated","inputs":[{"name":"vault","type":"address","indexed":true,"internalType":"address"},{"name":"fingerprint","type":"bytes32","indexed":true,"internalType":"bytes32"}],"anonymous":false},{"type":"event","name":"EmailRecoverySet","inputs":[{"name":"vault","type":"address","indexed":true,"internalType":"address"},{"name":"emailHash","type":"bytes32","indexed":true,"internalType":"bytes32"}],"anonymous":false},{"type":"event","name":"GuardianRegistered","inputs":[{"name":"vault","type":"address","indexed":true,"internalType":"address"},{"name":"guardian","type":"address","indexed":true,"internalType":"address"}],"anonymous":false},{"type":"event","name":"GuardianRemoved","inputs":[{"name":"vault","type":"address","indexed":true,"internalType":"address"},{"name":"guardian","type":"address","indexed":true,"internalType":"address"}],"anonymous":false},{"type":"event","name":"OwnershipTransferred","inputs":[{"name":"previousOwner","type":"address","indexed":true,"internalType":"address"},{"name":"newOwner","type":"address","indexed":true,"internalType":"address"}],"anonymous":false},{"type":"event","name":"PhoneRecoverySet","inputs":[{"name":"vault","type":"address","indexed":true,"internalType":"address"},{"name":"phoneHash","type":"bytes32","indexed":true,"internalType":"bytes32"}],"anonymous":false},{"type":"event","name":"RecoveryIdSet","inputs":[{"name":"vault","type":"address","indexed":true,"internalType":"address"},{"name":"recoveryIdHash","type":"bytes32","indexed":true,"internalType":"bytes32"}],"anonymous":false},{"type":"event","name":"UsernameSet","inputs":[{"name":"vault","type":"address","indexed":true,"internalType":"address"},{"name":"usernameHash","type":"bytes32","indexed":true,"internalType":"bytes32"}],"anonymous":false},{"type":"event","name":"VaultActivityUpdated","inputs":[{"name":"vault","type":"address","indexed":true,"internalType":"address"},{"name":"timestamp","type":"uint256","indexed":false,"internalType":"uint256"}],"anonymous":false},{"type":"event","name":"VaultRegistered","inputs":[{"name":"vault","type":"address","indexed":true,"internalType":"address"},{"name":"owner","type":"address","indexed":true,"internalType":"address"},{"name":"timestamp","type":"uint256","indexed":false,"internalType":"uint256"}],"anonymous":false},{"type":"error","name":"InvalidVault","inputs":[]},{"type":"error","name":"NotVaultOwner","inputs":[]},{"type":"error","name":"OwnableInvalidOwner","inputs":[{"name":"owner","type":"address","internalType":"address"}]},{"type":"error","name":"OwnableUnauthorizedAccount","inputs":[{"name":"account","type":"address","internalType":"address"}]},{"type":"error","name":"RecoveryIdAlreadyTaken","inputs":[]},{"type":"error","name":"ReentrancyGuardReentrantCall","inputs":[]},{"type":"error","name":"UsernameAlreadyTaken","inputs":[]},{"type":"error","name":"VaultNotFound","inputs":[]},{"type":"error","name":"ZeroAddress","inputs":[]}],"bytecode":{"object":"0x60803461012b57601f6123a138819003918201601f19168301916001600160401b0383118484101761012f5780849260609460405283398101031261012b5761004781610143565b90610060604061005960208401610143565b9201610143565b903315610118575f8054336001600160a01b0319821681178355604051959290916001600160a01b0316907f8be0079c531659141344cd1fd0a4f28419497f9722a3daafe3b4186f6b6457e09080a3600180556001600160a01b0316801561010957600280546001600160a01b03199081169290921790556003805482166001600160a01b03938416179055600480549091169290911691909117905561224990816101588239f35b63d92e233d60e01b5f5260045ffd5b631e4fbdf760e01b5f525f60045260245ffd5b5f80fd5b634e487b7160e01b5f52604160045260245ffd5b51906001600160a01b038216820361012b5756fe6080806040526004361015610012575f80fd5b5f3560e01c90816279175114611b18575080630741206e14611ac257806309b71c5c14611a7f578063194cbed814611a475780631d246de7146118c757806322e64d25146105c857806327cbf63c146117a45780632851bbc91461175857806328cbfb7c1461173057806328cc6711146116b85780632fcfbf401461163557806332c2b0c71461156f5780633458d11f1461153757806335a88aad146114be5780633c208f611461148c5780633ce022fe146102e857806341e4728c146112bc57806349f6e72c1461115557806352bf358e1461112d5780636353c3b4146110e457806367ccd1cb14610f185780636b04847714610d445780636dd6e80b14610d1c5780636fcdca7214610ced578063715018a614610c9657806372ff242f14610bec578063890cbcf514610bba5780638d65402314610b9d5780638da5cb5b14610b7657806390229af714610b435780639094a91e14610b01578063946f6d52146108875780639b27a90e1461063d578063c8862128146105fa578063cff30200146105c8578063e2045452146103d1578063ee675cf91461039f578063f2fde38b1461031a578063f3594962146102e8578063f69c6dec1461025d578063fa3fd3bc146102255763fcfa4c07146101e9575f80fd5b34610221576020366003190112610221576001600160a01b0361020a611bcd565b165f52600f602052602060405f2054604051908152f35b5f80fd5b34610221576020366003190112610221576001600160a01b03610246611bcd565b165f526010602052602060405f2054604051908152f35b34610221576020366003190112610221576004356001600160401b0381116102215761029a61029361029f923690600401611bf9565b3691611da5565b612136565b6040516102cb6020828180820195805191829101875e81015f838201520301601f198101835282611d32565b5190205f52600a602052602060ff60405f20541615604051908152f35b34610221576020366003190112610221576004355f526007602052602060018060a01b0360405f205416604051908152f35b3461022157602036600319011261022157610333611bcd565b61033b6120ff565b6001600160a01b0316801561038c575f80546001600160a01b03198116831782556001600160a01b0316907f8be0079c531659141344cd1fd0a4f28419497f9722a3daafe3b4186f6b6457e09080a3005b631e4fbdf760e01b5f525f60045260245ffd5b34610221576020366003190112610221576004355f526005602052602060018060a01b0360405f205416604051908152f35b34610221576103df36611c67565b600254604051632724fe0960e01b81526001600160a01b03948516600482018190529490911690602081602481855afa90811561057f575f91610599575b50336001600160a01b039091160361058a5760206024916040519283809263652b9b4160e01b82528860048301525afa90811561057f575f91610550575b5015610541576104709161029a913691611da5565b60405161049c6020828180820195805191829101875e81015f838201520301601f198101835282611d32565b51902090815f52600a60205260ff60405f20541680610521575b610512575f82815260096020908152604080832080546001600160a01b03191685179055600a9091528120805460ff191660011790557fecfe7c0967bd11938c97b0ca7b35cebf4f1b6b0fa5185576f9562c57d42e0cf29080a3005b639e9987d960e01b5f5260045ffd5b505f828152600960205260409020546001600160a01b03168114156104b6565b630681d31960e51b5f5260045ffd5b610572915060203d602011610578575b61056a8183611d32565b810190611d53565b8461045b565b503d610560565b6040513d5f823e3d90fd5b630e7fea9d60e01b5f5260045ffd5b6105bb915060203d6020116105c1575b6105b38183611d32565b810190611d6b565b8561041d565b503d6105a9565b34610221576020366003190112610221576004355f526008602052602060018060a01b0360405f205416604051908152f35b3461022157602036600319011261022157610613611bcd565b61061b6120ff565b600380546001600160a01b0319166001600160a01b0392909216919091179055005b3461022157604036600319011261022157610656611bcd565b61065e611be3565b600254604051632724fe0960e01b81526001600160a01b03938416600482018190529390911690602081602481855afa90811561057f575f91610868575b50336001600160a01b039091160361058a5760206024916040519283809263652b9b4160e01b82528760048301525afa90811561057f575f91610849575b50156105415760018060a01b031690815f52600d60205260405f20815f5260205260ff60405f20541661070957005b815f52600d60205260405f20815f5260205260405f2060ff198154169055815f52600c60205260405f20905f5b825480821015610840578261074b8386611c52565b905460039190911b1c6001600160a01b03161461076b5750600101610736565b9192915f1981019190821161082c576107a361078a6107c79385611c52565b905460039190911b1c6001600160a01b03169184611c52565b81546001600160a01b0393841660039290921b91821b9390911b1916919091179055565b80548015610818575f1901906107dd8282611c52565b81549060018060a01b039060031b1b19169055555b7fee943cdb81826d5909c559c6b1ae6908fcaf2dbc16c4b730346736b486283e8b5f80a3005b634e487b7160e01b5f52603160045260245ffd5b634e487b7160e01b5f52601160045260245ffd5b505090506107f2565b610862915060203d6020116105785761056a8183611d32565b836106da565b610881915060203d6020116105c1576105b38183611d32565b8461069c565b346102215760403660031901126102215760043563ffffffff60e01b811680910361022157602435905f600e546103e881115f14610afa57506103e892915b6002546001600160a01b0316935f5b81811080610af1575b1561097d576108ec81611c26565b9054604051632724fe0960e01b815260039290921b1c6001600160a01b031660048201526020816024818a5afa801561057f5784915f9161095f575b5060601b6001600160e01b0319161461094a575b610945906120dd565b6108d5565b92610957610945916120dd565b93905061093c565b610977915060203d81116105c1576105b38183611d32565b88610928565b50848361098981611ddb565b936109976040519586611d32565b818552601f196109a683611ddb565b015f5b818110610ada5750505f915f5b85811080610ad1575b15610a80576109cd81611c26565b9054604051632724fe0960e01b815260039290921b1c6001600160a01b031660048201819052906020816024818a5afa801561057f5785915f91610a62575b5060601b6001600160e01b03191614610a2f575b50610a2a906120dd565b6109b6565b610a2a9194610a40610a5b92611eae565b610a4a828b6120eb565b52610a55818a6120eb565b506120dd565b9390610a20565b610a7a915060203d81116105c1576105b38183611d32565b8a610a0c565b866040518091602082016020835281518091526020604084019201905f5b818110610aac575050500390f35b91935091602061012082610ac36001948851611caa565b019401910191849392610a9e565b508184106109bf565b602090610ae5611e6b565b82828a010152016109a9565b508484106108de565b92916108c6565b3461022157602036600319011261022157600435600e5481101561022157610b2a602091611c26565b905460405160039290921b1c6001600160a01b03168152f35b3461022157602036600319011261022157610120610b67610b62611bcd565b611eae565b610b746040518092611caa565bf35b34610221575f366003190112610221575f546040516001600160a01b039091168152602090f35b34610221575f366003190112610221576020600e54604051908152f35b34610221576020366003190112610221576004355f52600b602052602060018060a01b0360405f205416604051908152f35b34610221576020366003190112610221576004356001600160401b0381116102215736602382011215610221578060040135906001600160401b038211610221578160051b9036602483830101116102215760405160208101939092906001600160fb1b03106102215782816020926024610c759501873781010301601f198101835282611d32565b5190205f52600b602052602060018060a01b0360405f205416604051908152f35b34610221575f36600319011261022157610cae6120ff565b5f80546001600160a01b0319811682556001600160a01b03167f8be0079c531659141344cd1fd0a4f28419497f9722a3daafe3b4186f6b6457e08280a3005b34610221576020366003190112610221576004355f52600a602052602060ff60405f2054166040519015158152f35b34610221575f366003190112610221576002546040516001600160a01b039091168152602090f35b3461022157610d5236611c67565b600254604051632724fe0960e01b81526001600160a01b03948516600482018190529490911690602081602481855afa90811561057f575f91610ef9575b50336001600160a01b039091160361058a5760206024916040519283809263652b9b4160e01b82528860048301525afa90811561057f575f91610eda575b501561054157610dfb602060405183819483830196873781015f838201520301601f198101835282611d32565b5190205f818152600560205260409020549091906001600160a01b0316151580610eba575b610eab57805f52600660205260405f205480610e8a575b50815f52600560205260405f20816001600160601b0360a01b825416179055805f5260066020528160405f20557ffc7d1b6c9bf9e0f70a7514a9c70bcc5f4adff774149af5406e27b89285d3af0d5f80a3005b5f52600560205260405f206001600160601b0360a01b815416905582610e37565b63bd24441b60e01b5f5260045ffd5b505f828152600560205260409020546001600160a01b0316811415610e20565b610ef3915060203d6020116105785761056a8183611d32565b84610dce565b610f12915060203d6020116105c1576105b38183611d32565b85610d90565b3461022157602036600319011261022157610f31611bcd565b60025460405163652b9b4160e01b81526001600160a01b038381166004830181905292169290602081602481875afa90811561057f575f916110c5575b501561054157604051632724fe0960e01b815260048101839052602081602481875afa90811561057f575f916110a6575b506001600160a01b03169233841490811561109c575b501561106657815f52601060205260405f205415611009575b50805f5260116020524260405f20557fbdf39c8e4504706c3ee61ab487623ef56ab40afa1c9bd55cc1732562ab38114a6020604051428152a3005b600e54825f52600f60205260405f2055600e5490600160401b821015611052576107a382600161103e9401600e55600e611c52565b805f5260106020524260405f205582610fce565b634e487b7160e01b5f52604160045260245ffd5b60405162461bcd60e51b815260206004820152600e60248201526d1b9bdd08185d5d1a1bdc9a5e995960921b6044820152606490fd5b9050331484610fb5565b6110bf915060203d6020116105c1576105b38183611d32565b84610f9f565b6110de915060203d6020116105785761056a8183611d32565b84610f6e565b34610221576040366003190112610221576110fd611bcd565b6001600160a01b03165f908152600c602052604090208054602435919082101561022157602091610b2a91611c52565b34610221575f366003190112610221576003546040516001600160a01b039091168152602090f35b346102215760403660031901126102215761116e611bcd565b600254604051632724fe0960e01b81526001600160a01b0392831660048201819052602480359491939091169190602090829081855afa90811561057f575f9161129d575b50336001600160a01b039091160361058a5760206024916040519283809263652b9b4160e01b82528660048301525afa90811561057f575f9161127e575b501561054157805f52601260205260405f20548061125d575b50815f52600760205260405f20816001600160601b0360a01b825416179055805f5260126020528160405f20557fc765f881c6369f3b21bebf43cf6ccc975879f0d2d36882e92f0e683a512662565f80a3005b5f52600760205260405f206001600160601b0360a01b81541690558261120a565b611297915060203d6020116105785761056a8183611d32565b836111f1565b6112b6915060203d6020116105c1576105b38183611d32565b846111b3565b34610221576020366003190112610221576112d5611bcd565b60025460405163652b9b4160e01b81526001600160a01b03928316600482018190529290911690602081602481855afa90811561057f575f9161146d575b501561054157602060249160405192838092632724fe0960e01b82528660048301525afa90811561057f575f9161144e575b506003546001600160a01b0316908161135a57005b604051631be122ff60e11b81526001600160a01b039091166004820152905f90829060249082905afa90811561057f575f9161142c575b508051908161139c57005b90604051908160208101936020859101925f5b8181106114135750506113cb925003601f198101835282611d32565b51902090815f52600b60205260405f20816001600160601b0360a01b8254161790557f0d6ab26868ee08c8468752de3c7acfc1a6c53450926b8eef8d39f84e39f72a285f80a3005b84518352602094850194869450909201916001016113af565b61144891503d805f833e6114408183611d32565b810190611df2565b82611391565b611467915060203d6020116105c1576105b38183611d32565b82611345565b611486915060203d6020116105785761056a8183611d32565b83611313565b34610221576020366003190112610221576004355f526009602052602060018060a01b0360405f205416604051908152f35b34610221576020366003190112610221576004356001600160401b038111610221576114ee903690600401611bf9565b611515602060405183819483830196873781015f838201520301601f198101835282611d32565b5190205f526005602052602060018060a01b0360405f20541615604051908152f35b34610221576020366003190112610221576001600160a01b03611558611bcd565b165f526011602052602060405f2054604051908152f35b34610221576020366003190112610221576001600160a01b03611590611bcd565b165f52600c60205260405f20604051806020835491828152019081935f5260205f20905f5b81811061161657505050816115cb910382611d32565b604051918291602083019060208452518091526040830191905f5b8181106115f4575050500390f35b82516001600160a01b03168452859450602093840193909201916001016115e6565b82546001600160a01b03168452602090930192600192830192016115b5565b34610221576020366003190112610221576004356001600160401b0381116102215761029a61029361166b923690600401611bf9565b6040516116976020828180820195805191829101875e81015f838201520301601f198101835282611d32565b5190205f526009602052602060018060a01b0360405f205416604051908152f35b34610221576020366003190112610221576004356001600160401b038111610221576116e8903690600401611bf9565b61170f602060405183819483830196873781015f838201520301601f198101835282611d32565b5190205f526005602052602060018060a01b0360405f205416604051908152f35b34610221575f366003190112610221576004546040516001600160a01b039091168152602090f35b34610221576020366003190112610221576001600160a01b03611779611bcd565b165f52600660205260405f20541580159061179c575b6020906040519015158152f35b50600161178f565b34610221576040366003190112610221576117bd611bcd565b600254604051632724fe0960e01b81526001600160a01b0392831660048201819052602480359491939091169190602090829081855afa90811561057f575f916118a8575b50336001600160a01b039091160361058a5760206024916040519283809263652b9b4160e01b82528660048301525afa90811561057f575f91611889575b5015610541575f82815260086020526040812080546001600160a01b031916831790557f7cd06e2799342945ea12da511b88817b1139c59a36388b3f33e478b40b71e6999080a3005b6118a2915060203d6020116105785761056a8183611d32565b83611840565b6118c1915060203d6020116105c1576105b38183611d32565b84611802565b34610221576040366003190112610221576118e0611bcd565b6118e8611be3565b600254604051632724fe0960e01b81526001600160a01b038481166004830181905293921690602081602481855afa90811561057f575f91611a28575b50336001600160a01b039091160361058a5760206024916040519283809263652b9b4160e01b82528760048301525afa90811561057f575f91611a09575b50156105415760018060a01b031691825f52600d60205260405f20825f5260205260ff60405f2054161561199357005b825f52600d60205260405f20825f5260205260405f20600160ff19825416179055825f52600c60205260405f2090815491600160401b83101561105257826107a39160016119e395018155611c52565b7f08ae6bc280c01a35af7dc83dc36ad004116f33b8819281ff9f4405c121a97b895f80a3005b611a22915060203d6020116105785761056a8183611d32565b84611963565b611a41915060203d6020116105c1576105b38183611d32565b85611925565b34610221576020366003190112610221576001600160a01b03611a68611bcd565b165f526006602052602060405f2054604051908152f35b3461022157602036600319011261022157611a98611bcd565b611aa06120ff565b600480546001600160a01b0319166001600160a01b0392909216919091179055005b3461022157602036600319011261022157611adb611bcd565b611ae36120ff565b6001600160a01b03168015611b09576001600160601b0360a01b60025416176002555f80f35b63d92e233d60e01b5f5260045ffd5b3461022157602036600319011261022157611b31611bcd565b60025463652b9b4160e01b83526001600160a01b0391821660048401819052929160209183916024918391165afa90811561057f575f91611bae575b50611b7457005b805f5260116020524260405f20557fd55d88bafaa873a710f1fe42d94fbcf49941d3591757d56c66ef01e9c1c5568d6020604051428152a2005b611bc7915060203d6020116105785761056a8183611d32565b82611b6d565b600435906001600160a01b038216820361022157565b602435906001600160a01b038216820361022157565b9181601f84011215610221578235916001600160401b038311610221576020838186019501011161022157565b600e54811015611c3e57600e5f5260205f2001905f90565b634e487b7160e01b5f52603260045260245ffd5b8054821015611c3e575f5260205f2001905f90565b906040600319830112610221576004356001600160a01b03811681036102215791602435906001600160401b03821161022157611ca691600401611bf9565b9091565b610100809160018060a01b03815116845260018060a01b03602082015116602085015260408101516040850152606081015160608501526080810151608085015260a081015160a085015260c0810151151560c085015260e0810151151560e085015201511515910152565b61012081019081106001600160401b0382111761105257604052565b90601f801991011681019081106001600160401b0382111761105257604052565b90816020910312610221575180151581036102215790565b9081602091031261022157516001600160a01b03811681036102215790565b6001600160401b03811161105257601f01601f191660200190565b929192611db182611d8a565b91611dbf6040519384611d32565b829481845281830111610221578281602093845f960137010152565b6001600160401b0381116110525760051b60200190565b602081830312610221578051906001600160401b03821161022157019080601f83011215610221578151611e2581611ddb565b92611e336040519485611d32565b81845260208085019260051b82010192831161022157602001905b828210611e5b5750505090565b8151815260209182019101611e4e565b60405190611e7882611d16565b5f610100838281528260208201528260408201528260608201528260808201528260a08201528260c08201528260e08201520152565b611eb6611e6b565b5060025460405163652b9b4160e01b81526001600160a01b03928316600482018190529290911690602081602481855afa90811561057f575f916120be575b501561054157602060249160405192838092632724fe0960e01b82528660048301525afa90811561057f575f9161209f575b506004545f906001600160a01b03168061202c575b506003545f906001600160a01b031680611fd1575b505f84815260106020908152604080832054601183528184205460069093529220541580159586959391611fc8575b60405197611f8d89611d16565b88526001600160a01b0316602088015260408701526060860152608085015260a0840152600160c084015260e0830152151561010082015290565b60019650611f80565b604051631be122ff60e11b81526001600160a01b0385166004820152905f90829060249082905afa5f9181612010575b5015611f51579050515f611f51565b6120259192503d805f833e6114408183611d32565b905f612001565b604051639cd965ad60e01b81526001600160a01b038416600482015290602090829060249082905afa5f918161206b575b5015611f3c5790505f611f3c565b9091506020813d602011612097575b8161208760209383611d32565b810103126102215751905f61205d565b3d915061207a565b6120b8915060203d6020116105c1576105b38183611d32565b5f611f27565b6120d7915060203d6020116105785761056a8183611d32565b5f611ef5565b5f19811461082c5760010190565b8051821015611c3e5760209160051b010190565b5f546001600160a01b0316330361211257565b63118cdaa760e01b5f523360045260245ffd5b908151811015611c3e570160200190565b9081519161214383611d8a565b926121516040519485611d32565b808452612160601f1991611d8a565b013660208501375f5b815181101561220f57604161217e8284612125565b5160f81c1015806121f7575b156121cd57602061219b8284612125565b5160f81c019060ff821161082c5760019160f81b6001600160f81b0319165f1a6121c58287612125565b535b01612169565b6001906001600160f81b03196121e38285612125565b51165f1a6121f18287612125565b536121c7565b50605a6122048284612125565b5160f81c111561218a565b505056fea2646970667358221220ffe4775085e170ef9c0d35c028a347c7b626f49bf2f4a8db61e21c8b95ecdf8d64736f6c634300081e0033","linkReferences":{}},"methodIdentifiers":{"allVaults(uint256)":"9094a91e","badgeManager()":"52bf358e","getVaultInfo(address)":"90229af7","isRecoverable(address)":"2851bbc9","isRecoveryIdAvailable(string)":"35a88aad","isUsernameAvailable(string)":"f69c6dec","owner()":"8da5cb5b","proofScoreManager()":"28cbfb7c","recoveryIdOfVault(address)":"194cbed8","registerGuardian(address,address)":"1d246de7","registerVault(address)":"67ccd1cb","removeGuardian(address,address)":"9b27a90e","renounceOwnership()":"715018a6","searchByAddressPrefix(bytes4,uint256)":"946f6d52","searchByBadges(uint256[])":"72ff242f","searchByEmail(bytes32)":"3ce022fe","searchByGuardian(address)":"32c2b0c7","searchByPhone(bytes32)":"22e64d25","searchByRecoveryId(string)":"28cc6711","searchByUsername(string)":"2fcfbf40","setBadgeManager(address)":"c8862128","setEmailRecovery(address,bytes32)":"49f6e72c","setPhoneRecovery(address,bytes32)":"27cbf63c","setProofScoreManager(address)":"09b71c5c","setRecoveryId(address,string)":"6b048477","setUsername(address,string)":"e2045452","setVaultHub(address)":"0741206e","totalVaults()":"8d654023","transferOwnership(address)":"f2fde38b","updateActivity(address)":"00791751","updateBadgeFingerprint(address)":"41e4728c","usernameTaken(bytes32)":"6fcdca72","vaultByBadgeFingerprint(bytes32)":"890cbcf5","vaultByEmailHash(bytes32)":"f3594962","vaultByPhoneHash(bytes32)":"cff30200","vaultByRecoveryId(bytes32)":"ee675cf9","vaultByUsernameHash(bytes32)":"3c208f61","vaultCreatedAt(address)":"fa3fd3bc","vaultHub()":"6dd6e80b","vaultIndex(address)":"fcfa4c07","vaultLastActiveAt(address)":"3458d11f","vaultsGuardedBy(address,uint256)":"6353c3b4"},"id":40}