{
  "_format": "hh-sol-artifact-1",
  "contractName": "CommerceEscrow",
  "sourceName": "contracts/CommerceEscrow.sol",
  "abi": [
    {
      "inputs": [
        {
          "internalType": "address",
          "name": "initialOwner",
          "type": "address"
        }
      ],
      "stateMutability": "nonpayable",
      "type": "constructor"
    },
    {
      "inputs": [],
      "name": "AlreadyDisputed",
      "type": "error"
    },
    {
      "inputs": [],
      "name": "Amount",
      "type": "error"
    },
    {
      "inputs": [],
      "name": "BadState",
      "type": "error"
    },
    {
      "inputs": [],
      "name": "Exists",
      "type": "error"
    },
    {
      "inputs": [],
      "name": "Missing",
      "type": "error"
    },
    {
      "inputs": [],
      "name": "NoAllowance",
      "type": "error"
    },
    {
      "inputs": [],
      "name": "NoDispute",
      "type": "error"
    },
    {
      "inputs": [],
      "name": "NotBuyer",
      "type": "error"
    },
    {
      "inputs": [],
      "name": "NotParty",
      "type": "error"
    },
    {
      "inputs": [],
      "name": "NotSeller",
      "type": "error"
    },
    {
      "inputs": [],
      "name": "Paused",
      "type": "error"
    },
    {
      "inputs": [],
      "name": "TimeRange",
      "type": "error"
    },
    {
      "inputs": [],
      "name": "TrustGate",
      "type": "error"
    },
    {
      "anonymous": false,
      "inputs": [
        {
          "indexed": false,
          "internalType": "uint8",
          "name": "moduleId",
          "type": "uint8"
        }
      ],
      "name": "BreakerModuleSet",
      "type": "event"
    },
    {
      "anonymous": false,
      "inputs": [
        {
          "indexed": true,
          "internalType": "bytes32",
          "name": "id",
          "type": "bytes32"
        }
      ],
      "name": "Canceled",
      "type": "event"
    },
    {
      "anonymous": false,
      "inputs": [
        {
          "indexed": true,
          "internalType": "bytes32",
          "name": "id",
          "type": "bytes32"
        }
      ],
      "name": "DisputeClosed",
      "type": "event"
    },
    {
      "anonymous": false,
      "inputs": [
        {
          "indexed": true,
          "internalType": "bytes32",
          "name": "id",
          "type": "bytes32"
        },
        {
          "indexed": false,
          "internalType": "address",
          "name": "by",
          "type": "address"
        },
        {
          "indexed": false,
          "internalType": "string",
          "name": "reason",
          "type": "string"
        }
      ],
      "name": "DisputeOpened",
      "type": "event"
    },
    {
      "anonymous": false,
      "inputs": [
        {
          "indexed": true,
          "internalType": "bytes32",
          "name": "id",
          "type": "bytes32"
        },
        {
          "indexed": false,
          "internalType": "address",
          "name": "fromVault",
          "type": "address"
        },
        {
          "indexed": false,
          "internalType": "uint256",
          "name": "amount",
          "type": "uint256"
        },
        {
          "indexed": false,
          "internalType": "uint256",
          "name": "totalFunded",
          "type": "uint256"
        }
      ],
      "name": "Funded",
      "type": "event"
    },
    {
      "anonymous": false,
      "inputs": [
        {
          "indexed": true,
          "internalType": "bytes32",
          "name": "id",
          "type": "bytes32"
        },
        {
          "indexed": true,
          "internalType": "address",
          "name": "buyer",
          "type": "address"
        },
        {
          "indexed": true,
          "internalType": "address",
          "name": "seller",
          "type": "address"
        },
        {
          "indexed": false,
          "internalType": "uint256",
          "name": "amount",
          "type": "uint256"
        },
        {
          "indexed": false,
          "internalType": "uint64",
          "name": "autoReleaseAt",
          "type": "uint64"
        },
        {
          "indexed": false,
          "internalType": "bool",
          "name": "autoRelease",
          "type": "bool"
        },
        {
          "indexed": false,
          "internalType": "string",
          "name": "memo",
          "type": "string"
        }
      ],
      "name": "Opened",
      "type": "event"
    },
    {
      "anonymous": false,
      "inputs": [
        {
          "indexed": true,
          "internalType": "address",
          "name": "previousOwner",
          "type": "address"
        },
        {
          "indexed": true,
          "internalType": "address",
          "name": "newOwner",
          "type": "address"
        }
      ],
      "name": "OwnershipTransferStarted",
      "type": "event"
    },
    {
      "anonymous": false,
      "inputs": [
        {
          "indexed": true,
          "internalType": "address",
          "name": "previousOwner",
          "type": "address"
        },
        {
          "indexed": true,
          "internalType": "address",
          "name": "newOwner",
          "type": "address"
        }
      ],
      "name": "OwnershipTransferred",
      "type": "event"
    },
    {
      "anonymous": false,
      "inputs": [
        {
          "indexed": false,
          "internalType": "uint16",
          "name": "minBuyerScore",
          "type": "uint16"
        },
        {
          "indexed": false,
          "internalType": "uint16",
          "name": "minSellerScoreOverride",
          "type": "uint16"
        },
        {
          "indexed": false,
          "internalType": "uint64",
          "name": "maxEscrowDur",
          "type": "uint64"
        },
        {
          "indexed": false,
          "internalType": "uint64",
          "name": "minEscrowDur",
          "type": "uint64"
        },
        {
          "indexed": false,
          "internalType": "uint64",
          "name": "disputeBuf",
          "type": "uint64"
        },
        {
          "indexed": false,
          "internalType": "int16",
          "name": "rewardSuccess",
          "type": "int16"
        },
        {
          "indexed": false,
          "internalType": "int16",
          "name": "penaltyRefund",
          "type": "int16"
        },
        {
          "indexed": false,
          "internalType": "int16",
          "name": "penaltyBadActor",
          "type": "int16"
        },
        {
          "indexed": false,
          "internalType": "uint64",
          "name": "quarantineSecs",
          "type": "uint64"
        }
      ],
      "name": "PolicySet",
      "type": "event"
    },
    {
      "anonymous": false,
      "inputs": [
        {
          "indexed": true,
          "internalType": "bytes32",
          "name": "id",
          "type": "bytes32"
        },
        {
          "indexed": false,
          "internalType": "address",
          "name": "toVault",
          "type": "address"
        },
        {
          "indexed": false,
          "internalType": "uint256",
          "name": "amount",
          "type": "uint256"
        }
      ],
      "name": "Refunded",
      "type": "event"
    },
    {
      "anonymous": false,
      "inputs": [
        {
          "indexed": true,
          "internalType": "bytes32",
          "name": "id",
          "type": "bytes32"
        },
        {
          "indexed": false,
          "internalType": "address",
          "name": "toVault",
          "type": "address"
        },
        {
          "indexed": false,
          "internalType": "uint256",
          "name": "amount",
          "type": "uint256"
        }
      ],
      "name": "Released",
      "type": "event"
    },
    {
      "anonymous": false,
      "inputs": [
        {
          "indexed": true,
          "internalType": "bytes32",
          "name": "id",
          "type": "bytes32"
        },
        {
          "indexed": false,
          "internalType": "uint256",
          "name": "toSeller",
          "type": "uint256"
        },
        {
          "indexed": false,
          "internalType": "uint256",
          "name": "toBuyer",
          "type": "uint256"
        },
        {
          "indexed": false,
          "internalType": "address",
          "name": "adjudicator",
          "type": "address"
        }
      ],
      "name": "Resolved",
      "type": "event"
    },
    {
      "anonymous": false,
      "inputs": [
        {
          "indexed": false,
          "internalType": "address",
          "name": "breaker",
          "type": "address"
        },
        {
          "indexed": false,
          "internalType": "address",
          "name": "proof",
          "type": "address"
        },
        {
          "indexed": false,
          "internalType": "address",
          "name": "seer",
          "type": "address"
        },
        {
          "indexed": false,
          "internalType": "address",
          "name": "seerTune",
          "type": "address"
        },
        {
          "indexed": false,
          "internalType": "address",
          "name": "guard",
          "type": "address"
        },
        {
          "indexed": false,
          "internalType": "address",
          "name": "factory",
          "type": "address"
        },
        {
          "indexed": false,
          "internalType": "address",
          "name": "merchants",
          "type": "address"
        },
        {
          "indexed": false,
          "internalType": "address",
          "name": "vfide",
          "type": "address"
        }
      ],
      "name": "WiringSet",
      "type": "event"
    },
    {
      "inputs": [],
      "name": "acceptOwnership",
      "outputs": [],
      "stateMutability": "nonpayable",
      "type": "function"
    },
    {
      "inputs": [
        {
          "internalType": "bytes32",
          "name": "id",
          "type": "bytes32"
        }
      ],
      "name": "autoRelease",
      "outputs": [],
      "stateMutability": "nonpayable",
      "type": "function"
    },
    {
      "inputs": [],
      "name": "breaker",
      "outputs": [
        {
          "internalType": "contract IEmergencyBreaker",
          "name": "",
          "type": "address"
        }
      ],
      "stateMutability": "view",
      "type": "function"
    },
    {
      "inputs": [],
      "name": "breakerModuleId",
      "outputs": [
        {
          "internalType": "uint8",
          "name": "",
          "type": "uint8"
        }
      ],
      "stateMutability": "view",
      "type": "function"
    },
    {
      "inputs": [
        {
          "internalType": "bytes32",
          "name": "id",
          "type": "bytes32"
        }
      ],
      "name": "cancel",
      "outputs": [],
      "stateMutability": "nonpayable",
      "type": "function"
    },
    {
      "inputs": [
        {
          "internalType": "bytes32",
          "name": "id",
          "type": "bytes32"
        }
      ],
      "name": "closeDispute",
      "outputs": [],
      "stateMutability": "nonpayable",
      "type": "function"
    },
    {
      "inputs": [],
      "name": "disputeWindowBuffer",
      "outputs": [
        {
          "internalType": "uint64",
          "name": "",
          "type": "uint64"
        }
      ],
      "stateMutability": "view",
      "type": "function"
    },
    {
      "inputs": [
        {
          "internalType": "bytes32",
          "name": "",
          "type": "bytes32"
        }
      ],
      "name": "disputes",
      "outputs": [
        {
          "internalType": "bool",
          "name": "open",
          "type": "bool"
        },
        {
          "internalType": "address",
          "name": "openedBy",
          "type": "address"
        },
        {
          "internalType": "uint64",
          "name": "openedAt",
          "type": "uint64"
        },
        {
          "internalType": "string",
          "name": "reason",
          "type": "string"
        }
      ],
      "stateMutability": "view",
      "type": "function"
    },
    {
      "inputs": [
        {
          "internalType": "address",
          "name": "buyer",
          "type": "address"
        },
        {
          "internalType": "address",
          "name": "seller",
          "type": "address"
        },
        {
          "internalType": "uint256",
          "name": "amount",
          "type": "uint256"
        },
        {
          "internalType": "string",
          "name": "memo",
          "type": "string"
        },
        {
          "internalType": "bytes32",
          "name": "salt",
          "type": "bytes32"
        }
      ],
      "name": "escrowId",
      "outputs": [
        {
          "internalType": "bytes32",
          "name": "",
          "type": "bytes32"
        }
      ],
      "stateMutability": "pure",
      "type": "function"
    },
    {
      "inputs": [
        {
          "internalType": "bytes32",
          "name": "",
          "type": "bytes32"
        }
      ],
      "name": "escrows",
      "outputs": [
        {
          "internalType": "address",
          "name": "buyer",
          "type": "address"
        },
        {
          "internalType": "address",
          "name": "seller",
          "type": "address"
        },
        {
          "internalType": "uint256",
          "name": "amount",
          "type": "uint256"
        },
        {
          "internalType": "uint64",
          "name": "createdAt",
          "type": "uint64"
        },
        {
          "internalType": "uint64",
          "name": "autoReleaseAt",
          "type": "uint64"
        },
        {
          "internalType": "enum CommerceEscrow.Status",
          "name": "status",
          "type": "uint8"
        },
        {
          "internalType": "bool",
          "name": "autoRelease",
          "type": "bool"
        },
        {
          "internalType": "string",
          "name": "memo",
          "type": "string"
        }
      ],
      "stateMutability": "view",
      "type": "function"
    },
    {
      "inputs": [],
      "name": "factory",
      "outputs": [
        {
          "internalType": "contract IVaultFactoryView",
          "name": "",
          "type": "address"
        }
      ],
      "stateMutability": "view",
      "type": "function"
    },
    {
      "inputs": [
        {
          "internalType": "bytes32",
          "name": "id",
          "type": "bytes32"
        }
      ],
      "name": "fund",
      "outputs": [],
      "stateMutability": "nonpayable",
      "type": "function"
    },
    {
      "inputs": [
        {
          "internalType": "bytes32",
          "name": "",
          "type": "bytes32"
        }
      ],
      "name": "fundedAmount",
      "outputs": [
        {
          "internalType": "uint256",
          "name": "",
          "type": "uint256"
        }
      ],
      "stateMutability": "view",
      "type": "function"
    },
    {
      "inputs": [],
      "name": "guard",
      "outputs": [
        {
          "internalType": "contract IPanicGuard",
          "name": "",
          "type": "address"
        }
      ],
      "stateMutability": "view",
      "type": "function"
    },
    {
      "inputs": [],
      "name": "maxEscrowDuration",
      "outputs": [
        {
          "internalType": "uint64",
          "name": "",
          "type": "uint64"
        }
      ],
      "stateMutability": "view",
      "type": "function"
    },
    {
      "inputs": [],
      "name": "merchants",
      "outputs": [
        {
          "internalType": "contract IMerchantRegistry",
          "name": "",
          "type": "address"
        }
      ],
      "stateMutability": "view",
      "type": "function"
    },
    {
      "inputs": [],
      "name": "minBuyerScore",
      "outputs": [
        {
          "internalType": "uint16",
          "name": "",
          "type": "uint16"
        }
      ],
      "stateMutability": "view",
      "type": "function"
    },
    {
      "inputs": [],
      "name": "minEscrowDuration",
      "outputs": [
        {
          "internalType": "uint64",
          "name": "",
          "type": "uint64"
        }
      ],
      "stateMutability": "view",
      "type": "function"
    },
    {
      "inputs": [],
      "name": "minSellerScoreOverride",
      "outputs": [
        {
          "internalType": "uint16",
          "name": "",
          "type": "uint16"
        }
      ],
      "stateMutability": "view",
      "type": "function"
    },
    {
      "inputs": [
        {
          "internalType": "address",
          "name": "buyer",
          "type": "address"
        },
        {
          "internalType": "address",
          "name": "seller",
          "type": "address"
        },
        {
          "internalType": "uint256",
          "name": "amount",
          "type": "uint256"
        },
        {
          "internalType": "uint64",
          "name": "autoReleaseAt",
          "type": "uint64"
        },
        {
          "internalType": "bool",
          "name": "autoReleaseFlag",
          "type": "bool"
        },
        {
          "internalType": "string",
          "name": "memo",
          "type": "string"
        },
        {
          "internalType": "bytes32",
          "name": "salt",
          "type": "bytes32"
        }
      ],
      "name": "open",
      "outputs": [
        {
          "internalType": "bytes32",
          "name": "id",
          "type": "bytes32"
        }
      ],
      "stateMutability": "nonpayable",
      "type": "function"
    },
    {
      "inputs": [
        {
          "internalType": "bytes32",
          "name": "id",
          "type": "bytes32"
        },
        {
          "internalType": "string",
          "name": "reason",
          "type": "string"
        }
      ],
      "name": "openDispute",
      "outputs": [],
      "stateMutability": "nonpayable",
      "type": "function"
    },
    {
      "inputs": [],
      "name": "owner",
      "outputs": [
        {
          "internalType": "address",
          "name": "",
          "type": "address"
        }
      ],
      "stateMutability": "view",
      "type": "function"
    },
    {
      "inputs": [],
      "name": "penaltyOnBadActor",
      "outputs": [
        {
          "internalType": "int16",
          "name": "",
          "type": "int16"
        }
      ],
      "stateMutability": "view",
      "type": "function"
    },
    {
      "inputs": [],
      "name": "penaltyOnRefund",
      "outputs": [
        {
          "internalType": "int16",
          "name": "",
          "type": "int16"
        }
      ],
      "stateMutability": "view",
      "type": "function"
    },
    {
      "inputs": [],
      "name": "pendingOwner",
      "outputs": [
        {
          "internalType": "address",
          "name": "",
          "type": "address"
        }
      ],
      "stateMutability": "view",
      "type": "function"
    },
    {
      "inputs": [
        {
          "internalType": "bytes32",
          "name": "id",
          "type": "bytes32"
        }
      ],
      "name": "preview",
      "outputs": [
        {
          "components": [
            {
              "internalType": "address",
              "name": "buyer",
              "type": "address"
            },
            {
              "internalType": "address",
              "name": "seller",
              "type": "address"
            },
            {
              "internalType": "uint256",
              "name": "amount",
              "type": "uint256"
            },
            {
              "internalType": "uint64",
              "name": "createdAt",
              "type": "uint64"
            },
            {
              "internalType": "uint64",
              "name": "autoReleaseAt",
              "type": "uint64"
            },
            {
              "internalType": "enum CommerceEscrow.Status",
              "name": "status",
              "type": "uint8"
            },
            {
              "internalType": "bool",
              "name": "autoRelease",
              "type": "bool"
            },
            {
              "internalType": "string",
              "name": "memo",
              "type": "string"
            }
          ],
          "internalType": "struct CommerceEscrow.Escrow",
          "name": "e",
          "type": "tuple"
        },
        {
          "components": [
            {
              "internalType": "bool",
              "name": "open",
              "type": "bool"
            },
            {
              "internalType": "address",
              "name": "openedBy",
              "type": "address"
            },
            {
              "internalType": "uint64",
              "name": "openedAt",
              "type": "uint64"
            },
            {
              "internalType": "string",
              "name": "reason",
              "type": "string"
            }
          ],
          "internalType": "struct CommerceEscrow.Dispute",
          "name": "d",
          "type": "tuple"
        },
        {
          "internalType": "uint256",
          "name": "balanceHere",
          "type": "uint256"
        }
      ],
      "stateMutability": "view",
      "type": "function"
    },
    {
      "inputs": [],
      "name": "proof",
      "outputs": [
        {
          "internalType": "contract IProofLedger",
          "name": "",
          "type": "address"
        }
      ],
      "stateMutability": "view",
      "type": "function"
    },
    {
      "inputs": [],
      "name": "quarantineSecs",
      "outputs": [
        {
          "internalType": "uint64",
          "name": "",
          "type": "uint64"
        }
      ],
      "stateMutability": "view",
      "type": "function"
    },
    {
      "inputs": [
        {
          "internalType": "bytes32",
          "name": "id",
          "type": "bytes32"
        }
      ],
      "name": "refund",
      "outputs": [],
      "stateMutability": "nonpayable",
      "type": "function"
    },
    {
      "inputs": [
        {
          "internalType": "bytes32",
          "name": "id",
          "type": "bytes32"
        }
      ],
      "name": "release",
      "outputs": [],
      "stateMutability": "nonpayable",
      "type": "function"
    },
    {
      "inputs": [],
      "name": "renounceOwnership",
      "outputs": [],
      "stateMutability": "nonpayable",
      "type": "function"
    },
    {
      "inputs": [
        {
          "internalType": "bytes32",
          "name": "id",
          "type": "bytes32"
        },
        {
          "internalType": "uint256",
          "name": "toSeller",
          "type": "uint256"
        },
        {
          "internalType": "uint256",
          "name": "toBuyer",
          "type": "uint256"
        },
        {
          "internalType": "bool",
          "name": "sellerAtFault",
          "type": "bool"
        }
      ],
      "name": "resolveDispute",
      "outputs": [],
      "stateMutability": "nonpayable",
      "type": "function"
    },
    {
      "inputs": [],
      "name": "rewardOnSuccess",
      "outputs": [
        {
          "internalType": "int16",
          "name": "",
          "type": "int16"
        }
      ],
      "stateMutability": "view",
      "type": "function"
    },
    {
      "inputs": [],
      "name": "seer",
      "outputs": [
        {
          "internalType": "contract ISeerView",
          "name": "",
          "type": "address"
        }
      ],
      "stateMutability": "view",
      "type": "function"
    },
    {
      "inputs": [],
      "name": "seerTune",
      "outputs": [
        {
          "internalType": "contract ISeerTuning",
          "name": "",
          "type": "address"
        }
      ],
      "stateMutability": "view",
      "type": "function"
    },
    {
      "inputs": [
        {
          "internalType": "uint8",
          "name": "moduleId",
          "type": "uint8"
        }
      ],
      "name": "setBreakerModule",
      "outputs": [],
      "stateMutability": "nonpayable",
      "type": "function"
    },
    {
      "inputs": [
        {
          "internalType": "uint16",
          "name": "minBuyerScore_",
          "type": "uint16"
        },
        {
          "internalType": "uint16",
          "name": "minSellerScoreOverride_",
          "type": "uint16"
        },
        {
          "internalType": "uint64",
          "name": "maxEscrowDur_",
          "type": "uint64"
        },
        {
          "internalType": "uint64",
          "name": "minEscrowDur_",
          "type": "uint64"
        },
        {
          "internalType": "uint64",
          "name": "disputeBuf_",
          "type": "uint64"
        },
        {
          "internalType": "int16",
          "name": "rewardSuccess_",
          "type": "int16"
        },
        {
          "internalType": "int16",
          "name": "penaltyRefund_",
          "type": "int16"
        },
        {
          "internalType": "int16",
          "name": "penaltyBadActor_",
          "type": "int16"
        },
        {
          "internalType": "uint64",
          "name": "quarantineSecs_",
          "type": "uint64"
        }
      ],
      "name": "setPolicy",
      "outputs": [],
      "stateMutability": "nonpayable",
      "type": "function"
    },
    {
      "inputs": [
        {
          "internalType": "address",
          "name": "breaker_",
          "type": "address"
        },
        {
          "internalType": "address",
          "name": "proof_",
          "type": "address"
        },
        {
          "internalType": "address",
          "name": "seer_",
          "type": "address"
        },
        {
          "internalType": "address",
          "name": "seerTune_",
          "type": "address"
        },
        {
          "internalType": "address",
          "name": "guard_",
          "type": "address"
        },
        {
          "internalType": "address",
          "name": "factory_",
          "type": "address"
        },
        {
          "internalType": "address",
          "name": "merchants_",
          "type": "address"
        },
        {
          "internalType": "address",
          "name": "vfide_",
          "type": "address"
        }
      ],
      "name": "setWiring",
      "outputs": [],
      "stateMutability": "nonpayable",
      "type": "function"
    },
    {
      "inputs": [
        {
          "internalType": "address",
          "name": "newOwner",
          "type": "address"
        }
      ],
      "name": "transferOwnership",
      "outputs": [],
      "stateMutability": "nonpayable",
      "type": "function"
    },
    {
      "inputs": [],
      "name": "vfide",
      "outputs": [
        {
          "internalType": "contract IVFIDE",
          "name": "",
          "type": "address"
        }
      ],
      "stateMutability": "view",
      "type": "function"
    }
  ],
  "bytecode": "0x60803461011f57601f613b4d38819003918201601f19168301916001600160401b038311848410176101245780849260209460405283398101031261011f57516001600160a01b03811680820361011f576100593361013a565b6001600255600a80546001600160a01b03167a4f1a00000001900000000000000000000000000000000000000000179055600b80547fff00000000000000000000000000000000000000000000000000000000000000167e040000000000015180fffafffe0002000000000003f4800000000000015180179055156100f0576100e19061013a565b6040516139bd90816101908239f35b60405162461bcd60e51b815260206004820152600760248201526606f776e65723d360cc1b6044820152606490fd5b600080fd5b634e487b7160e01b600052604160045260246000fd5b600180546001600160a01b0319908116909155600080546001600160a01b03938416928116831782559192909116907f8be0079c531659141344cd1fd0a4f28419497f9722a3daafe3b4186f6b6457e09080a356fe608080604052600436101561001357600080fd5b600090813560e01c9081630f41e0d21461309b5750806311be1997146130295780631990db0b146127af5780632d55ea39146127865780632d83549c146126ca57806331a30ea0146123f157806331ea559614611f2f57806332b9052014611cbd5780633cb6ea5f14611c995780633d580c0e14611c755780633f78ae9314611c005780634b32734314611bd6578063501390c414611bb25780635d799698146119da57806367d42a8b146118e5578063685820341461163457806370da8b5e14611613578063715018a6146115ae5780637249fbb6146112c757806372c8ae3b1461129e57806379ba5097146111d55780637ceab3b1146111ac5780638bcc8801146111835780638cd7ec4c1461115f5780638da5cb5b14611138578063ab69a0ba146110d9578063ac410b1b146110af578063ae535fb81461108a578063b4b34d3714611061578063bf14c11914610c96578063c33c415414610c6c578063c45a015514610c43578063c4d252f5146109ed578063c864d460146109c8578063c870e74f146109a1578063ddcfd8ae14610423578063e30c3978146103fa578063e5dd6a5b14610271578063f2fde38b146102045763faf924cf146101d957600080fd5b346102015780600319360112610201576004546040516001600160a01b039091168152602090f35b80fd5b50346102015760203660031901126102015761021e61324d565b61022661351a565b600180546001600160a01b0319166001600160a01b0392831690811790915582549091167f38d16b8cac22d99fc7c124b9cd0de2d3fa1faef420bfe791d8c362d765e227008380a380f35b5034610201576101003660031901126102015761028c61324d565b610294613263565b6044356001600160a01b0381169291908390036103f6576064356001600160a01b038116908190036103f2576084356001600160a01b038116908190036103ee5760a4356001600160a01b038116908190036103ea5760c4356001600160a01b03811692908390036103e65760e4356001600160a01b03811694908590036103e2577fef42645a777471de14053e06306a41d899db812bb44aea9e53c9411c826e8dca976101009761034461351a565b600380546001600160a01b039283166001600160a01b03199182168117909255600480549a9093169981168a179092556005805483168417905560068054831685179055600780548316861790556008805483168717905560098054831688179055600a80549092168817909155604080519182526020820198909852968701526060860152608085015260a084015260c083015260e0820152a180f35b8880fd5b8780fd5b8680fd5b8580fd5b8480fd5b8380fd5b50346102015780600319360112610201576001546040516001600160a01b039091168152602090f35b503461020157608036600319011261020157606435906004356024358315156044358186036103f2576003546001600160a01b0316806108c8575b50610467613433565b61046f61351a565b838552600c60205260408520600381019660ff885460801c1660078110156108b4576003036108a557858752600e602052604087209060ff8254161561089657868852600d60205260408820546104c68588613426565b03610862576001830180549092906104e6906001600160a01b03166137a4565b84546104fa906001600160a01b03166137a4565b898b52600d60205260408b208b9055825460ff1916909255871580159061085a5760049b5b60078d1015610846578b9c81549060ff60801b9060801b169060ff60801b1916179055610794575b50846106cd575b506105ab92919080156106985761057760018060a01b03835416600b5460a01c60010b906134a1565b815461058b906001600160a01b0316613872565b156106875750546001600160a01b03165b600b5460801c60010b906134a1565b837f97aad75d0e4d5aacbc40db581006a7821268e993947bb2c2754183ce5572cbff6060604051868152846020820152336040820152a260405192602084019485526040840152606083015260808201523360a082015260a0815261061160c082613147565b5190206004546001600160a01b03169081610630575b82600160025580f35b813b15610683578291606483926040519485938492631250d57560e31b84523060048501526042602485015260448401525af161066e575b80610627565b8161067891613147565b610201578038610668565b5050fd5b546001600160a01b0316905061059c565b6106b460018060a01b03845416600b5460a01c60010b906134a1565b82546106c8906001600160a01b0316613872565b61058b565b600a5460405163a9059cbb60e01b81526001600160a01b0392831660048201526024810187905293995091939291602091839160449183918e91165af190811561078957899161075a575b501561072857909587963861054e565b60405162461bcd60e51b815260206004820152600a6024820152693c3332b910313abcb2b960b11b6044820152606490fd5b61077c915060203d602011610782575b6107748183613147565b8101906132df565b38610718565b503d61076a565b6040513d8b823e3d90fd5b600a5460405163a9059cbb60e01b81526001600160a01b039283166004820152602481018a9052929a50602091839160449183918f91165af190811561083b578a9161081c575b50156107e957889738610547565b60405162461bcd60e51b815260206004820152600b60248201526a3c3332b91039b2b63632b960a91b6044820152606490fd5b610835915060203d602011610782576107748183613147565b386107db565b6040513d8c823e3d90fd5b634e487b7160e01b8c52602160045260248cfd5b60059b61051f565b60405162461bcd60e51b815260206004820152600c60248201526b1cdd5b48084f481d1bdd185b60a21b6044820152606490fd5b63126ea8e960e31b8852600488fd5b634291db1560e11b8752600487fd5b634e487b7160e01b88526021600452602488fd5b604051631da4712b60e21b815290602082600481845afa918215610996578792610975575b50811561090f575b50610900573861045e565b6313d0ff5960e31b8552600485fd5b9050602060ff600b5460f01c166024604051809481936350fbe4af60e11b835260048301525afa90811561096a57869161094b575b50386108f5565b610964915060203d602011610782576107748183613147565b38610944565b6040513d88823e3d90fd5b61098f91925060203d602011610782576107748183613147565b90386108ed565b6040513d89823e3d90fd5b503461020157806003193601126102015760206001600160401b03600b5416604051908152f35b5034610201578060031936011261020157602061ffff600a5460a01c16604051908152f35b50346102015760203660031901126102015760035460043591906001600160a01b031680610b6a575b50610a1f613433565b818152600c6020526040812091600383019260ff845460801c166007811015610b5657600103610b475780546001600160a01b03163314159081610b2f575b50610b2057825460ff60801b1916600360811b1790925560405190918291817f134fdd648feeaf30251f0157f9624ef8608ff9a042aad6d13e73f35d21d3f88d8480a260208101918252336040820152610ac581606081015b03601f198101835282613147565b5190206004546001600160a01b03169081610ae35782600160025580f35b813b15610683578291606483926040519485938492631250d57560e31b84523060048501526043602485015260448401525af161066e5780610627565b63c8ee2d1d60e01b8252600482fd5b600101546001600160a01b0316331415905038610a5e565b634291db1560e11b8352600483fd5b634e487b7160e01b84526021600452602484fd5b604051631da4712b60e21b815290602082600481845afa918215610c38578392610c17575b508115610bb1575b50610ba25738610a16565b6313d0ff5960e31b8152600490fd5b9050602060ff600b5460f01c166024604051809481936350fbe4af60e11b835260048301525afa908115610c0c578291610bed575b5038610b97565b610c06915060203d602011610782576107748183613147565b38610be6565b6040513d84823e3d90fd5b610c3191925060203d602011610782576107748183613147565b9038610b8f565b6040513d85823e3d90fd5b50346102015780600319360112610201576008546040516001600160a01b039091168152602090f35b503461020157806003193601126102015760206001600160401b03600b5460401c16604051908152f35b503461020157602036600319011261020157600354600435906001600160a01b031680610f93575b50610cc7613433565b808252600c6020526040822090600382019160ff835460801c166007811015610f7f57600103610f70578054600290610d08906001600160a01b03166137a4565b910154828552600d602052604085205480820391808311610f5c5714610f4d57600a54604051636eb1769f60e11b81526001600160a01b03938416600482018190523060248301529390911690602081604481855afa80156109965783918891610f13575b5010610f0457602086916064604051809481936323b872dd60e01b83528860048401523060248401528760448401525af190811561096a578691610ee5575b5015610eb4578493838552600d60205260408520610dcb838254613426565b9055600160811b60ff60801b19825416179055828452600d602052827f4bcda3b85131fc5aa24f415efaad370efc678d3800457997c2fc2af2957a355760606040872054604051908682528560208301526040820152a2828452600d602052604084205490604051926020840194855260408401526060830152608082015260808152610e5960a082613147565b5190206004546001600160a01b03169081610e775782600160025580f35b813b15610683578291606483926040519485938492631250d57560e31b8452306004850152603d602485015260448401525af161066e5780610627565b60405162461bcd60e51b81526020600482015260096024820152681c1d5b1b0819985a5b60ba1b6044820152606490fd5b610efe915060203d602011610782576107748183613147565b38610dac565b631d7eb35960e31b8652600486fd5b9150506020813d602011610f45575b81610f2f60209383613147565b81010312610f405782905138610d6d565b600080fd5b3d9150610f22565b632d335e3560e11b8552600485fd5b634e487b7160e01b87526011600452602487fd5b634291db1560e11b8452600484fd5b634e487b7160e01b85526021600452602485fd5b604051631da4712b60e21b815290602082600481845afa918215611056578492611035575b508115610fda575b50610fcb5738610cbe565b6313d0ff5960e31b8252600482fd5b9050602060ff600b5460f01c166024604051809481936350fbe4af60e11b835260048301525afa908115610c38578391611016575b5038610fc0565b61102f915060203d602011610782576107748183613147565b3861100f565b61104f91925060203d602011610782576107748183613147565b9038610fb8565b6040513d86823e3d90fd5b50346102015780600319360112610201576006546040516001600160a01b039091168152602090f35b5034610201578060031936011261020157602061ffff600a5460b01c16604051908152f35b503461020157806003193601126102015760206001600160401b03600b5460b01c16604051908152f35b50346102015760a0366003190112610201576110f361324d565b6110fb613263565b91606435906001600160401b0382116102015760206111308585611122366004880161328f565b9160843593604435916133cc565b604051908152f35b5034610201578060031936011261020157546040516001600160a01b039091168152602090f35b50346102015780600319360112610201576020600b5460801c60010b604051908152f35b50346102015780600319360112610201576009546040516001600160a01b039091168152602090f35b50346102015780600319360112610201576007546040516001600160a01b039091168152602090f35b5034610201578060031936011261020157600154336001600160a01b039091160361124757600180546001600160a01b0319908116909155815433918116821783556001600160a01b03167f8be0079c531659141344cd1fd0a4f28419497f9722a3daafe3b4186f6b6457e08380a380f35b60405162461bcd60e51b815260206004820152602960248201527f4f776e61626c6532537465703a2063616c6c6572206973206e6f7420746865206044820152683732bb9037bbb732b960b91b6064820152608490fd5b5034610201578060031936011261020157600a546040516001600160a01b039091168152602090f35b50346102015760203660031901126102015760035460043591906001600160a01b0316806114fa575b506112f9613433565b818152600c60205260408120916003830160ff815460801c166007811015610b5657600203610b475783546001600160a01b03169333851415806114e3575b6114d45761134684956137a4565b838552600d6020818152604080882054878952928252808820889055855460ff60801b1916600560801b17909555600a54945163a9059cbb60e01b81526001600160a01b0384811660048301526024820184905292959094928591168189816044810103925af190811561096a576113cc6113ea9261145a9589916114b5575b50613394565b600190810154600b5460901c90910b906001600160a01b03166134a1565b604080516001600160a01b03831681526020810185905285917ff552ca82e113ac3c539c3d617f29fcd19c172a0c75dad017555c9e109f7fe1839190819081015b0390a260408051602081019586526001600160a01b039092169082015260608101929092528160808101610ab7565b5190206004546001600160a01b031690816114785782600160025580f35b813b15610683578291606483926040519485938492631250d57560e31b84523060048501526041602485015260448401525af161066e5780610627565b6114ce915060203d602011610782576107748183613147565b386113c6565b63c8ee2d1d60e01b8452600484fd5b5060018101546001600160a01b0316331415611338565b604051631da4712b60e21b815290602082600481845afa918215610c3857839261158d575b508115611532575b50610ba257386112f0565b9050602060ff600b5460f01c166024604051809481936350fbe4af60e11b835260048301525afa908115610c0c57829161156e575b5038611527565b611587915060203d602011610782576107748183613147565b38611567565b6115a791925060203d602011610782576107748183613147565b903861151f565b50346102015780600319360112610201576115c761351a565b600180546001600160a01b03199081169091558154908116825581906001600160a01b03167f8be0079c531659141344cd1fd0a4f28419497f9722a3daafe3b4186f6b6457e08280a380f35b50346102015780600319360112610201576020600a5460c01c604051908152f35b5034610201576101203660031901126102015760043561ffff8116908181036118e15760243561ffff8116918282036103f257604435916001600160401b038316928381036103ea57611685613279565b91608435916001600160401b03831683036103e25760a435968760010b88036118dd5760c435908160010b82036118d95760e435998a60010b8b036118d55761010435966001600160401b03881688036118d1576001600160401b03906116ea61351a565b1680991015806118c5575b1561189a576103e81015908161188d575b501561185b577f2a488367cf8b5becc3eeda318401ef4a88090cc58f35a2de4628c9d81a0dfa2798610120986001600160401b03978c958995600a54908760c01b9060c01b169261ffff60a01b9060a01b169060018060a01b0316179061ffff60b01b9060b01b1617179889600a55600b549260a01b9667ffffffffffffffff60401b8660b01b199461ffff60a01b199361ffff60901b199171ffffffffffffffffffffffffffffffffffff191617169160401b1617169061ffff60801b9060801b1617169061ffff60901b9060901b1617938160b01b9060b01b16848461ffff60a01b1617179384600b556040519661ffff8160a01c16885261ffff8160b01c16602089015260c01c6040880152169116176060840152818160401c1660808401528060801c60010b60a08401528060901c60010b60c08401528060a01c60010b60e084015260b01c16610100820152a180f35b60405162461bcd60e51b815260206004820152600a602482015269073636f72653e313030360b41b6044820152606490fd5b6103e89150111538611706565b60405162461bcd60e51b8152602060048201526003602482015262323ab960e91b6044820152606490fd5b50610e108910156116f5565b8c80fd5b8b80fd5b8a80fd5b8980fd5b8280fd5b5034610201576020366003190112610201576003546001600160a01b031680611926575b50611912613433565b61191e33600435613572565b600160025580f35b604051631da4712b60e21b815290602082600481845afa918215610c385783926119b9575b50811561195e575b50610ba25738611909565b9050602060ff600b5460f01c166024604051809481936350fbe4af60e11b835260048301525afa908115610c0c57829161199a575b5038611953565b6119b3915060203d602011610782576107748183613147565b38611993565b6119d391925060203d602011610782576107748183613147565b903861194b565b503461020157602036600319011261020157600354600435906001600160a01b031680611afe575b50611a0b613433565b808252600c602052600360408320015460ff8160881c1615610b475760ff8160801c166007811015610b5657600203610b475760401c6001600160401b03168015159081611ad8575b5015611aa957808252600e60205260ff604083205416611a795761191e903390613572565b60405162461bcd60e51b8152602060048201526008602482015267191a5cdc1d5d195960c21b6044820152606490fd5b60405162461bcd60e51b81526020600482015260076024820152666e6f742064756560c81b6044820152606490fd5b6001600160401b039150611af49082600b5460401c169061335e565b1642101538611a54565b604051631da4712b60e21b815290602082600481845afa918215611056578492611b91575b508115611b36575b50610fcb5738611a02565b9050602060ff600b5460f01c166024604051809481936350fbe4af60e11b835260048301525afa908115610c38578391611b72575b5038611b2b565b611b8b915060203d602011610782576107748183613147565b38611b6b565b611bab91925060203d602011610782576107748183613147565b9038611b23565b50346102015780600319360112610201576020600b5460a01c60010b604051908152f35b50346102015760203660031901126102015760406020916004358152600d83522054604051908152f35b50346102015760203660031901126102015760043560ff8116908181036118e1577ff2aec7e5c6f9306c31e3c478c9df79171271b16c972f978d78731f38aefe82bc91602091611c4e61351a565b600b805460ff60f01b191660f09290921b60ff60f01b16919091179055604051908152a180f35b5034610201578060031936011261020157602060ff600b5460f01c16604051908152f35b50346102015780600319360112610201576020600b5460901c60010b604051908152f35b50346102015760203660031901126102015760035460043591906001600160a01b031680611e7b575b50611cef613433565b818152600c6020526040812091600383019260ff845460801c166007811015610b5657600303610b475780546001600160a01b03163314159081611e63575b50610b2057808252600e60205260408220805460ff19169055825460ff60801b1916600160811b17909255600654909182916001600160a01b031680611e0d575b50604051817f55c1973500db3277c86a6c13848afd267864ad8a812ab04500f0ddc98de39deb8480a260208101918252336040820152611db28160608101610ab7565b5190206004546001600160a01b03169081611dd05782600160025580f35b813b15610683578291606483926040519485938492631250d57560e31b8452306004850152603f602485015260448401525af161066e5780610627565b803b156106835782808092606460405180948193630403408d60e11b8352336004840152600160248401528160448401525af1611e4b575b50611d6f565b81611e5591613147565b611e60578138611e45565b50fd5b600101546001600160a01b0316331415905038611d2e565b604051631da4712b60e21b815290602082600481845afa918215610c38578392611f0e575b508115611eb3575b50610ba25738611ce6565b9050602060ff600b5460f01c166024604051809481936350fbe4af60e11b835260048301525afa908115610c0c578291611eef575b5038611ea8565b611f08915060203d602011610782576107748183613147565b38611ee8565b611f2891925060203d602011610782576107748183613147565b9038611ea0565b503461020157604036600319011261020157600435906024356001600160401b0381116123ed57611f6490369060040161328f565b6003549193916001600160a01b03168061231f575b50611f82613433565b818352600c6020526040832093600385019460ff865460801c16600781101561230b576002036122fc5780546001600160a01b031633141590816122e4575b506114d457828452600e60205260408420805460ff81166122d5573360081b610100600160a81b03166001600160e81b0319909116174260a81b67ffffffffffffffff60a81b16176001908117825501946001600160401b0383116122c15761202a86546130c0565b601f811161227c575b508495601f841160011461221b578386978791612210575b508460011b906000198660031b1c19161790555b805460ff60801b1916600360801b1790556006546001600160a01b0316806121c2575b506006546001600160a01b031680612169575b506120e291837fe91d40abc46e1a75245fa1765be53f79c142c2f01ed27e3bd5a6781a6b2a840060405133815260406020820152806120d86040820186886132f7565b0390a23691613318565b60208151910120604051906020820192835233604083015260608201526060815261210e608082613147565b5190206004546001600160a01b0316908161212c5782600160025580f35b813b15610683578291606483926040519485938492631250d57560e31b8452306004850152603e602485015260448401525af161066e5780610627565b803b156103f25784808092606460405180948193630403408d60e11b835233600484015260016024840152600160448401525af16121a8575b50612095565b816121b291613147565b6121bd5783386121a2565b505050fd5b803b156103f25784808092604460405180948193636b94f97760e11b835233600484015260001960248401525af16121fb575b50612082565b8161220591613147565b6121bd5783386121f5565b90508301353861204b565b80865260208620601f19851697875b89811061226457508588991061224a575b5050600184811b01905561205f565b840135600019600387901b60f8161c19169055388061223b565b9091602060018192858901358155019301910161222a565b86865260208620601f850160051c810191602086106122b7575b601f0160051c01905b8181106122ac5750612033565b86815560010161229f565b9091508190612296565b634e487b7160e01b85526041600452602485fd5b6304ee891b60e11b8652600486fd5b600101546001600160a01b0316331415905038611fc1565b634291db1560e11b8552600485fd5b634e487b7160e01b86526021600452602486fd5b604051631da4712b60e21b815290602082600481845afa9182156123e25785926123c1575b508115612366575b506123575738611f79565b6313d0ff5960e31b8352600483fd5b9050602060ff600b5460f01c166024604051809481936350fbe4af60e11b835260048301525afa9081156110565784916123a2575b503861234c565b6123bb915060203d602011610782576107748183613147565b3861239b565b6123db91925060203d602011610782576107748183613147565b9038612344565b6040513d87823e3d90fd5b5080fd5b50346102015760203660031901126102015760043590606060e0604051612417816130fa565b83815283602082015283604082015283838201528360808201528360a08201528360c0820152015260608060405161244e8161312c565b8381528360208201528360408201520152818152600c602052604081209060405191612479836130fa565b60018060a01b03815416835260018060a01b0360018201541693602084019485526002820154906040850191825260038301549260608601916001600160401b038516835260808701946001600160401b038160401c16865260ff8160801c169260a089019360078110156126b65761250691600491865260ff60c08c019460881c161515845201613168565b9160e089019283528752600e6020526040872092604051966125278861312c565b84549560ff871615158952612562600160208b0197818060a01b038a60081c1689526001600160401b0360408d019a60a81c168a5201613168565b60608a01908152600a546040516370a0823160e01b815230600482015291999190602090829060249082906001600160a01b03165afa9b8c156126aa579b612676575b506040519c8d809d60608252600160a01b600190039051169060600152600160a01b6001900390511660808d01525160a08c0152516001600160401b031660c08b0152516001600160401b031660e08a0152516101008901612606916132bc565b511515610120880152516101408701610100905261016087016126289161320c565b9386850360208801525115158452600160a01b600190039051166020840152516001600160401b031660408301525190606081016080905260800161266c9161320c565b9060408301520390f35b909a506020813d6020116126a2575b8161269260209383613147565b81010312610f40575199386125a5565b3d9150612685565b604051903d90823e3d90fd5b634e487b7160e01b89526021600452602489fd5b5034610201576020366003190112610201576040906004358152600c6020522060018060a01b0381541661278260018060a01b036001840154169260ff60028201549161271e600460038301549201613168565b926040519687968752602087015260408601526001600160401b03811660608601526001600160401b038160401c16608086015261276460a08601838360801c166132bc565b60881c16151560c084015261010060e084015261010083019061320c565b0390f35b50346102015780600319360112610201576005546040516001600160a01b039091168152602090f35b50346102015760e0366003190112610201576127c961324d565b6127d1613263565b604435916127dd613279565b9260843593841515918286036103ea5760a4356001600160401b0381116103e65761280c90369060040161328f565b6003549091906001600160a01b031680612f5b575b5061282a613433565b6001600160a01b0386169687151580612f49575b15612f1b578315612eee5760055460405163fbac395160e01b8152600481018a90526001600160a01b0390911697906020816024818c5afa908115612e5c578c91612ecf575b508015612e76575b612e675760405163776f384360e01b8152600481018a9052916020836024818c5afa928315612e5c578c93612e3b575b50600a549261ffff808560a01c16911610612d9257600954604051631a2f716760e01b81526001600160a01b03838116600483018190529b928f929182918291165a92602491602094fa9182156126aa5791612e1c575b5015612e0d5761ffff612924613919565b168d8115159283612da1575b505050612d9257838686928d612cd7575b61294f955060c435946133cc565b97888a52600c60205260ff600360408c20015460801c166007811015612cc357612cb457888a52600c602052600460408b20896bffffffffffffffffffffffff60a01b82541617815560018101896bffffffffffffffffffffffff60a01b82541617905585600282015560038101926001600160401b0342166001600160401b0319855416178455600014612cae57865b835471ffffffffffffffffffff0000000000000000191660409190911b67ffffffffffffffff60401b1617608889901b60ff60881b1617600160801b178355016001600160401b038411612c9a578a95949388938a9383612a428e95546130c0565b601f8111612c32575b5089601f8511600114612b8557849392612ad1927f793efdae46c4990d446e4f90efdf6b724f46cb9e833f4f94dd50232bacde986b966001600160401b039d8e9491612b7a575b508660011b906000198860031b1c19161790555b5460401c16916040519384938a855260208501528c60408501526080606085015260808401916132f7565b0390a46040519460208601968888526040870152606086015260808501521660a083015260c082015260c08152612b0960e082613147565b5190206004546001600160a01b03169081612b2f575b6020836001600255604051908152f35b813b156103f6579280809260646020966040519485938492631250d57560e31b8452306004850152603c602485015260448401525af115612b1f5781612b7491613147565b38612b1f565b905085013538612a92565b90919299601f19851683835260208320925b818110612c035750936001600160401b039b93612ad1938d93887f793efdae46c4990d446e4f90efdf6b724f46cb9e833f4f94dd50232bacde986b999810612be9575b5050600186811b019055612aa6565b860135600019600389901b60f8161c191690553880612bda565b949750929550939798999650602060018192868a013581550194019201928c95928e95928d989b9a9995612b97565b939798999195509350839195505260208c20601f860160051c81019160208710612c90575b938c938e999897938c9793601f8f980160051c01905b818110612c7a5750612a4b565b9a8b558f9a8d98508e97508f9650600101612c6d565b9091508190612c57565b634e487b7160e01b8b52604160045260248bfd5b8b6129e0565b634237602b60e11b8a5260048afd5b634e487b7160e01b8b52602160045260248bfd5b9394925050506001600160401b03871642811115612d63576001600160401b03421690036001600160401b038111612d4f576001600160401b0380600b54169116908110918215612d42575b5050612d33578383868493612941565b631870968360e21b8b5260048bfd5b60c01c1090503880612d23565b634e487b7160e01b8d52601160045260248dfd5b60405162461bcd60e51b81526020600482015260076024820152666175746f20747360c81b6044820152606490fd5b63482e441560e11b8c5260048cfd5b9091925060208c60246040518094819363776f384360e01b835260048301525afa908115610c0c5761ffff9291612dde575b501610388d81612930565b612e00915060203d602011612e06575b612df88183613147565b810190613487565b38612dd3565b503d612dee565b63482e441560e11b8d5260048dfd5b612e35915060203d602011610782576107748183613147565b38612913565b612e5591935060203d602011612e0657612df88183613147565b91386128bc565b6040513d8e823e3d90fd5b63482e441560e11b8b5260048bfd5b5060405163fbac395160e01b81526001600160a01b03831660048201526020816024818c5afa908115612e5c578c91612eb0575b5061288c565b612ec9915060203d602011610782576107748183613147565b38612eaa565b612ee8915060203d602011610782576107748183613147565b38612884565b60405162461bcd60e51b81526020600482015260056024820152640616d743d360dc1b6044820152606490fd5b60405162461bcd60e51b81526020600482015260066024820152650616464723d360d41b6044820152606490fd5b506001600160a01b038116151561283e565b604051631da4712b60e21b815290602082600481845afa91821561301e578b92612ffd575b508115612fa2575b50612f935738612821565b6313d0ff5960e31b8952600489fd5b9050602060ff600b5460f01c166024604051809481936350fbe4af60e11b835260048301525afa90811561083b578a91612fde575b5038612f88565b612ff7915060203d602011610782576107748183613147565b38612fd7565b61301791925060203d602011610782576107748183613147565b9038612f80565b6040513d8d823e3d90fd5b50346102015760203660031901126102015760406001600160401b03916004358152600e60205220612782613062600183549301613168565b604051938360ff8695161515855260018060a01b038160081c16602086015260a81c16604084015260806060840152608083019061320c565b9050346123ed57816003193601126123ed576003546001600160a01b03168152602090f35b90600182811c921680156130f0575b60208310146130da57565b634e487b7160e01b600052602260045260246000fd5b91607f16916130cf565b61010081019081106001600160401b0382111761311657604052565b634e487b7160e01b600052604160045260246000fd5b608081019081106001600160401b0382111761311657604052565b90601f801991011681019081106001600160401b0382111761311657604052565b906040519182600082549261317c846130c0565b80845293600181169081156131ea57506001146131a3575b506131a192500383613147565b565b90506000929192526020600020906000915b8183106131ce5750509060206131a19282010138613194565b60209193508060019154838589010152019101909184926131b5565b9050602092506131a194915060ff191682840152151560051b82010138613194565b919082519283825260005b848110613238575050826000602080949584010152601f8019910116010190565b80602080928401015182828601015201613217565b600435906001600160a01b0382168203610f4057565b602435906001600160a01b0382168203610f4057565b606435906001600160401b0382168203610f4057565b9181601f84011215610f40578235916001600160401b038311610f405760208381860195010111610f4057565b9060078210156132c95752565b634e487b7160e01b600052602160045260246000fd5b90816020910312610f4057518015158103610f405790565b908060209392818452848401376000828201840152601f01601f1916010190565b9291926001600160401b0382116131165760405191613341601f8201601f191660200184613147565b829481845281830111610f40578281602093846000960137010152565b906001600160401b03809116911601906001600160401b03821161337e57565b634e487b7160e01b600052601160045260246000fd5b1561339b57565b60405162461bcd60e51b81526020600482015260096024820152681e19995c8819985a5b60ba1b6044820152606490fd5b94926133da91943691613318565b602081519101209060405193602085019560018060a01b0316865260018060a01b031660408501526060840152608083015260a082015260a0815261342060c082613147565b51902090565b9190820180921161337e57565b60028054146134425760028055565b60405162461bcd60e51b815260206004820152601f60248201527f5265656e7472616e637947756172643a207265656e7472616e742063616c6c006044820152606490fd5b90816020910312610f40575161ffff81168103610f405790565b60009160010b8015613515576006546001600160a01b031691826134c6575b50505050565b823b156103f6579060448492836040519586948593636b94f97760e11b855260018060a01b0316600485015260248401525af1613505575b80806134c0565b8161350f91613147565b386134fe565b505050565b6000546001600160a01b0316330361352e57565b606460405162461bcd60e51b815260206004820152602060248201527f4f776e61626c653a2063616c6c6572206973206e6f7420746865206f776e65726044820152fd5b600091818352600c60205260408320600381019160ff835460801c16600781101561230b576002036122fc5781546001600160a01b039182169116811415908161378c575b506114d45760055460018201805460405163fbac395160e01b81526001600160a01b03918216600482018190529293909160209183916024918391165afa90811561099657879161376d575b5061375e57613611906137a4565b848652600d6020818152604080892054888a52928252808920899055865460ff60801b1916600160821b17909655600a54955163a9059cbb60e01b81526001600160a01b0380851660048301526024820184905292969395939092839116818a816044810103925af1908115610996576136b79261369e6136fc96959361369e938b916114b55750613394565b54600b5460801c60010b906001600160a01b03166134a1565b604080516001600160a01b03831681526020810185905285917fc8fa66dff4b9073528c3f1bf21a8dc9a18fdf09847e88e96188bc953aef519f091908190810161142b565b5190206004546001600160a01b0316908161371657505050565b813b156118e1578291606483926040519485938492631250d57560e31b84523060048501526040602485015260448401525af1613751575050565b8161375b91613147565b50565b63482e441560e11b8652600486fd5b613786915060203d602011610782576107748183613147565b38613603565b60018301546001600160a01b031614159050386135b7565b600854604051630709df4560e01b81526001600160a01b0392831660048201529160209183916024918391165afa90811561386657600091613824575b50906001600160a01b038216156137f457565b60405162461bcd60e51b81526020600482015260086024820152671b9bc81d985d5b1d60c21b6044820152606490fd5b6020813d60201161385e575b8161383d60209383613147565b810103126123ed5751906001600160a01b03821682036102015750386137e1565b3d9150613830565b6040513d6000823e3d90fd5b6007546000916001600160a01b039091169081151580613902575b61389657505050565b6138b76001600160401b03600b5460b01c166001600160401b03421661335e565b91803b156103f657604051633fdc9dad60e11b81526001600160a01b0390921660048301526001600160401b0390921660248201529082908290604490829084905af1613751575050565b506001600160401b03600b5460b01c16151561388d565b61ffff600a5460b01c168061396357506009546040516376fac57560e01b815290602090829060049082906001600160a01b03165afa60009181613966575b506139635750600090565b90565b61398091925060203d602011612e0657612df88183613147565b903861395856fea264697066735822122029c6d903f897218143440e3fc7dda60f08be660ecec696e9e573c038a24f13d364736f6c634300081e0033",
  "linkReferences": {},
  "deployedLinkReferences": {}
}