{"abi":[{"type":"function","name":"disburse","inputs":[{"name":"token","type":"address","internalType":"address"},{"name":"charity","type":"address","internalType":"address"},{"name":"amount","type":"uint256","internalType":"uint256"},{"name":"reason","type":"string","internalType":"string"}],"outputs":[],"stateMutability":"nonpayable"},{"type":"event","name":"Disburse","inputs":[{"name":"token","type":"address","indexed":false,"internalType":"address"},{"name":"charity","type":"address","indexed":false,"internalType":"address"},{"name":"amount","type":"uint256","indexed":false,"internalType":"uint256"},{"name":"reason","type":"string","indexed":false,"internalType":"string"}],"anonymous":false}],"bytecode":{"object":"0x60808060405234601557610130908161001a8239f35b5f80fdfe60808060405260043610156011575f80fd5b5f3560e01c6314d280ab146023575f80fd5b3460f657608036600319011260f6576004356001600160a01b038116919082900360f6576024356001600160a01b038116929083900360f65760643567ffffffffffffffff811160f6573660238201121560f657806004013567ffffffffffffffff811160f657366024828401011160f65780602485937f81ac7f5db446a96bbfe6c230bc9b5c87d5356feed3d0c581bcea13466fc7d1f09760a0968652602086015260443560408601526080606086015282608086015201848401375f828201840152601f01601f19168101030190a1005b5f80fdfea26469706673582212202001b230b3bd7fb4e57a5a8d5c1cf84448fa2b62f049a8a79b07b9cce6bba21364736f6c634300081e0033","linkReferences":{}},"methodIdentifiers":{"disburse(address,address,uint256,string)":"14d280ab"},"id":87}