{
  "_format": "hh-sol-artifact-1",
  "contractName": "SanctumMock",
  "sourceName": "contracts/mocks/SanctumMock.sol",
  "abi": [
    {
      "anonymous": false,
      "inputs": [
        {
          "indexed": false,
          "internalType": "address",
          "name": "token",
          "type": "address"
        },
        {
          "indexed": false,
          "internalType": "address",
          "name": "charity",
          "type": "address"
        },
        {
          "indexed": false,
          "internalType": "uint256",
          "name": "amount",
          "type": "uint256"
        },
        {
          "indexed": false,
          "internalType": "string",
          "name": "reason",
          "type": "string"
        }
      ],
      "name": "Disburse",
      "type": "event"
    },
    {
      "inputs": [
        {
          "internalType": "address",
          "name": "token",
          "type": "address"
        },
        {
          "internalType": "address",
          "name": "charity",
          "type": "address"
        },
        {
          "internalType": "uint256",
          "name": "amount",
          "type": "uint256"
        },
        {
          "internalType": "string",
          "name": "reason",
          "type": "string"
        }
      ],
      "name": "disburse",
      "outputs": [],
      "stateMutability": "nonpayable",
      "type": "function"
    }
  ],
  "bytecode": "0x60808060405234601557610133908161001b8239f35b600080fdfe6080806040526004361015601257600080fd5b60003560e01c6314d280ab14602657600080fd5b3460f857608036600319011260f8576004356001600160a01b038116919082900360f8576024356001600160a01b038116929083900360f8576064356001600160401b03811160f8573660238201121560f85780600401356001600160401b03811160f857366024828401011160f85780602485937f81ac7f5db446a96bbfe6c230bc9b5c87d5356feed3d0c581bcea13466fc7d1f09760a0968652602086015260443560408601526080606086015282608086015201848401376000828201840152601f01601f19168101030190a1005b600080fdfea264697066735822122031ca647f5fd7265ac439f3ff7ffe50059029b187f62258ea3cf53da6cbe4a5fe64736f6c634300081e0033",
  "linkReferences": {},
  "deployedLinkReferences": {}
}