{
  "_format": "hh-sol-artifact-1",
  "contractName": "GovernanceHooks",
  "sourceName": "contracts/GovernanceHooks.sol",
  "abi": [
    {
      "inputs": [
        {
          "internalType": "address",
          "name": "_ledger",
          "type": "address"
        },
        {
          "internalType": "address",
          "name": "_seer",
          "type": "address"
        },
        {
          "internalType": "address",
          "name": "_dao",
          "type": "address"
        }
      ],
      "stateMutability": "nonpayable",
      "type": "constructor"
    },
    {
      "inputs": [],
      "name": "GH_NotAuthorized",
      "type": "error"
    },
    {
      "inputs": [
        {
          "internalType": "string",
          "name": "reason",
          "type": "string"
        }
      ],
      "name": "GH_ProposalBlocked",
      "type": "error"
    },
    {
      "inputs": [],
      "name": "GH_VoterRestricted",
      "type": "error"
    },
    {
      "anonymous": false,
      "inputs": [
        {
          "indexed": true,
          "internalType": "address",
          "name": "dao",
          "type": "address"
        }
      ],
      "name": "DAOSet",
      "type": "event"
    },
    {
      "anonymous": false,
      "inputs": [
        {
          "indexed": true,
          "internalType": "address",
          "name": "user",
          "type": "address"
        },
        {
          "indexed": false,
          "internalType": "string",
          "name": "violation",
          "type": "string"
        }
      ],
      "name": "GovernanceViolation",
      "type": "event"
    },
    {
      "anonymous": false,
      "inputs": [
        {
          "indexed": false,
          "internalType": "address",
          "name": "ledger",
          "type": "address"
        },
        {
          "indexed": false,
          "internalType": "address",
          "name": "seer",
          "type": "address"
        },
        {
          "indexed": false,
          "internalType": "address",
          "name": "guardian",
          "type": "address"
        }
      ],
      "name": "ModulesSet",
      "type": "event"
    },
    {
      "anonymous": false,
      "inputs": [
        {
          "indexed": true,
          "internalType": "address",
          "name": "previousOwner",
          "type": "address"
        },
        {
          "indexed": true,
          "internalType": "address",
          "name": "newOwner",
          "type": "address"
        }
      ],
      "name": "OwnershipTransferred",
      "type": "event"
    },
    {
      "anonymous": false,
      "inputs": [
        {
          "indexed": true,
          "internalType": "uint256",
          "name": "proposalId",
          "type": "uint256"
        },
        {
          "indexed": true,
          "internalType": "address",
          "name": "proposer",
          "type": "address"
        },
        {
          "indexed": false,
          "internalType": "bool",
          "name": "flagged",
          "type": "bool"
        }
      ],
      "name": "ProposalAutoChecked",
      "type": "event"
    },
    {
      "anonymous": false,
      "inputs": [
        {
          "indexed": true,
          "internalType": "address",
          "name": "voter",
          "type": "address"
        },
        {
          "indexed": false,
          "internalType": "string",
          "name": "reason",
          "type": "string"
        }
      ],
      "name": "VoterRestricted",
      "type": "event"
    },
    {
      "inputs": [],
      "name": "dao",
      "outputs": [
        {
          "internalType": "address",
          "name": "",
          "type": "address"
        }
      ],
      "stateMutability": "view",
      "type": "function"
    },
    {
      "inputs": [],
      "name": "guardian",
      "outputs": [
        {
          "internalType": "contract ISeerGuardian_GH",
          "name": "",
          "type": "address"
        }
      ],
      "stateMutability": "view",
      "type": "function"
    },
    {
      "inputs": [],
      "name": "ledger",
      "outputs": [
        {
          "internalType": "contract IProofLedger_GH",
          "name": "",
          "type": "address"
        }
      ],
      "stateMutability": "view",
      "type": "function"
    },
    {
      "inputs": [
        {
          "internalType": "uint256",
          "name": "id",
          "type": "uint256"
        },
        {
          "internalType": "bool",
          "name": "passed",
          "type": "bool"
        }
      ],
      "name": "onFinalized",
      "outputs": [],
      "stateMutability": "nonpayable",
      "type": "function"
    },
    {
      "inputs": [
        {
          "internalType": "uint256",
          "name": "id",
          "type": "uint256"
        },
        {
          "internalType": "address",
          "name": "proposer",
          "type": "address"
        }
      ],
      "name": "onProposalCreated",
      "outputs": [],
      "stateMutability": "nonpayable",
      "type": "function"
    },
    {
      "inputs": [
        {
          "internalType": "uint256",
          "name": "id",
          "type": "uint256"
        },
        {
          "internalType": "address",
          "name": "target",
          "type": "address"
        },
        {
          "internalType": "uint256",
          "name": "value",
          "type": "uint256"
        }
      ],
      "name": "onProposalQueued",
      "outputs": [],
      "stateMutability": "nonpayable",
      "type": "function"
    },
    {
      "inputs": [
        {
          "internalType": "uint256",
          "name": "id",
          "type": "uint256"
        },
        {
          "internalType": "address",
          "name": "voter",
          "type": "address"
        },
        {
          "internalType": "bool",
          "name": "support",
          "type": "bool"
        }
      ],
      "name": "onVoteCast",
      "outputs": [],
      "stateMutability": "nonpayable",
      "type": "function"
    },
    {
      "inputs": [],
      "name": "owner",
      "outputs": [
        {
          "internalType": "address",
          "name": "",
          "type": "address"
        }
      ],
      "stateMutability": "view",
      "type": "function"
    },
    {
      "inputs": [
        {
          "internalType": "address",
          "name": "user",
          "type": "address"
        },
        {
          "internalType": "string",
          "name": "description",
          "type": "string"
        }
      ],
      "name": "reportGovernanceAbuse",
      "outputs": [],
      "stateMutability": "nonpayable",
      "type": "function"
    },
    {
      "inputs": [],
      "name": "seer",
      "outputs": [
        {
          "internalType": "contract ISeer_GH",
          "name": "",
          "type": "address"
        }
      ],
      "stateMutability": "view",
      "type": "function"
    },
    {
      "inputs": [
        {
          "internalType": "address",
          "name": "_dao",
          "type": "address"
        }
      ],
      "name": "setDAO",
      "outputs": [],
      "stateMutability": "nonpayable",
      "type": "function"
    },
    {
      "inputs": [
        {
          "internalType": "address",
          "name": "_ledger",
          "type": "address"
        },
        {
          "internalType": "address",
          "name": "_seer",
          "type": "address"
        },
        {
          "internalType": "address",
          "name": "_guardian",
          "type": "address"
        }
      ],
      "name": "setModules",
      "outputs": [],
      "stateMutability": "nonpayable",
      "type": "function"
    },
    {
      "inputs": [
        {
          "internalType": "address",
          "name": "newOwner",
          "type": "address"
        }
      ],
      "name": "transferOwnership",
      "outputs": [],
      "stateMutability": "nonpayable",
      "type": "function"
    }
  ],
  "bytecode": "0x60803461014057601f610e5f38819003918201601f19168301916001600160401b0383118484101761014557808492606094604052833981010312610140577f4ae14344aaed3962a7f6c6977dc689bd5108ebb211a205507f01ae2a95148ce9606061006a8361015b565b92610083604061007c6020840161015b565b920161015b565b600080546001600160a01b0319908116331782556001805482166001600160a01b039485169081179091556002805483169885169889179055600380549092169490931693841790556040805196875260208701939093529185019190915292a1604051907f8aad84fcad50e723fa3bcf0fb32c5bea4c71078b77b9aedfa638f146f3a3f7b9600080a23360007f8be0079c531659141344cd1fd0a4f28419497f9722a3daafe3b4186f6b6457e08180a3610cef90816101708239f35b600080fd5b634e487b7160e01b600052604160045260246000fd5b51906001600160a01b03821682036101405756fe6080604052600436101561001257600080fd5b6000803560e01c8063298d1677146109d55780632d55ea39146109ac5780634162169f14610983578063452a93201461095a5780634db931831461074f57806356397c3514610726578063717d8bc3146106685780638da5cb5b14610641578063a8336a061461057c578063b6876dd614610379578063e5b2f79b146101c5578063e73a914c146101515763f2fde38b146100ac57600080fd5b3461014e57602036600319011261014e576100c5610b3c565b81546001600160a01b038116916100dd338414610bb9565b6001600160a01b03169182156101235782907f8be0079c531659141344cd1fd0a4f28419497f9722a3daafe3b4186f6b6457e08580a36001600160a01b03191617815580f35b606460405162461bcd60e51b81526020600482015260046024820152637a65726f60e01b6044820152fd5b80fd5b503461014e57602036600319011261014e5761016b610b3c565b61017f60018060a01b038354163314610bb9565b600180546001600160a01b0319166001600160a01b039290921691821790557f8aad84fcad50e723fa3bcf0fb32c5bea4c71078b77b9aedfa638f146f3a3f7b98280a280f35b503461014e57606036600319011261014e576101df610b21565b506001546001600160a01b031633141580610365575b610356576040610225815161020a8382610b61565b600981526819da17dc5d595d595960ba1b6020820152610c46565b6004546001600160a01b031690828261023b5780f35b60249282519384809263e0df05b960e01b825260043560048301525afa91821561034c5783908493610299575b50610271578280f35b51631aa5f4e760e11b81526020600482015291508190610295906024830190610c21565b0390fd5b9250503d8084843e6102ab8184610b61565b8201918181840312610348576102c081610bf1565b906020810151906001600160401b03821161032c570183601f820112156103445780516001600160401b03811161033057835194610308601f8301601f191660200187610b61565b8186526020828401011161032c576103269160208087019101610bfe565b38610268565b8580fd5b634e487b7160e01b86526041600452602486fd5b8480fd5b8380fd5b81513d85823e3d90fd5b63277ab60b60e11b8152600490fd5b5080546001600160a01b03163314156101f5565b503461014e57606036600319011261014e57610393610b21565b9061039c610b52565b506001546001600160a01b031633141580610568575b6103565760406103e081516103c78382610b61565b600781526667685f766f746560c81b6020820152610c46565b6004546001600160a01b03169283610489575b60035492935083926001600160a01b03168061040e57505050f35b803b15610484579151630eccbd3560e11b81526001600160a01b0390911660048201526005602482015260606044820152600f60648201526e676f7665726e616e63655f766f746560881b6084820152908290829060a490829084905af16104735750f35b8161047d91610b61565b61014e5780f35b505050fd5b8151633dbacb8f60e01b81526001600160a01b0382166004820181905294602090829060249082905afa90811561055b578491610521575b506103f35750917f24ba9de3d69c3166649d798ea60f8b5f30cbf19a6af11ff9f63ec6b3a32256da6060847019dbdd995c9b985b98d957d8985b9b9959607a1b60049651916020835260116020840152820152a2630fcb49f760e11b8152fd5b90506020813d602011610553575b8161053c60209383610b61565b810103126103485761054d90610bf1565b386104c1565b3d915061052f565b50505051903d90823e3d90fd5b5080546001600160a01b03163314156103b2565b503461014e57606036600319011261014e57610596610b3c565b61059e610b21565b6044356001600160a01b038116929190839003610348577f4ae14344aaed3962a7f6c6977dc689bd5108ebb211a205507f01ae2a95148ce9926060926105ee60018060a01b038754163314610bb9565b600280546001600160a01b039283166001600160a01b031991821681179092556003805495909316948116851790925560048054909216831790915560408051918252602082019390935291820152a180f35b503461014e578060031936011261014e57546040516001600160a01b039091168152602090f35b503461014e57604036600319011261014e576024358015158103610722576001546001600160a01b03163314158061070e575b6106ff57156106d3576106d06040516106b5604082610b61565b600981526819da17dc185cdcd95960ba1b6020820152610c46565b80f35b6106d06040516106e4604082610b61565b600981526819da17d9985a5b195960ba1b6020820152610c46565b63277ab60b60e11b8252600482fd5b5081546001600160a01b031633141561069b565b5080fd5b503461014e578060031936011261014e576002546040516001600160a01b039091168152602090f35b503461014e57604036600319011261014e57610769610b3c565b906024356001600160401b0381116107225736602382011215610722578060040135906001600160401b0382116109565760248101906024833692010111610956576001546001600160a01b031633141580610942575b61093357829360018060a01b031690817fe9bfd24579726634ab67564c68800e0745829235c1f8ea8497b20b73812e4ef46040516020815280610807602082018887610b98565b0390a26004546001600160a01b0316806108d1575b506003546001600160a01b03168061086c575b846106d0604051610841604082610b61565b601981527819dbdd995c9b985b98d957d8589d5cd957dc995c1bdc9d1959603a1b6020820152610c46565b803b15610344576108ab938580946040519687958694859363031879a760e21b8552600485015260326024850152606060448501526064840191610b98565b03925af16108bc575b80808061082f565b816108c691610b61565b61014e5780386108b4565b803b15610344578490816040518092631bf2f4a360e31b8252866004830152600560248301526060604483015281838161090f606482018c8b610b98565b03925af161091e575b5061081c565b8161092891610b61565b610484578338610918565b63277ab60b60e11b8352600483fd5b5082546001600160a01b03163314156107c0565b8280fd5b503461014e578060031936011261014e576004546040516001600160a01b039091168152602090f35b503461014e578060031936011261014e576001546040516001600160a01b039091168152602090f35b503461014e578060031936011261014e576003546040516001600160a01b039091168152602090f35b503461014e57604036600319011261014e576004356109f2610b21565b9060018060a01b036001541633141580610b0d575b610933576040610a418151610a1c8382610b61565b601381527219da17dc1c9bdc1bdcd85b17d8dc99585d1959606a1b6020820152610c46565b6004546001600160a01b031692849084610a59575080f35b843b15610722578190604484518094819363e148e51360e01b835288600484015260018060a01b0316988960248401525af19081610ad4575b507fa7cb32669c48ba563dea178463d240a891f8be3b2e544919691df2b2cf0c068691602091610ac95751858152a35b3880808380f35b5160018152a3610ac2565b9185610b04602093977fa7cb32669c48ba563dea178463d240a891f8be3b2e544919691df2b2cf0c068695610b61565b95915091610a92565b5082546001600160a01b0316331415610a07565b602435906001600160a01b0382168203610b3757565b600080fd5b600435906001600160a01b0382168203610b3757565b604435908115158203610b3757565b90601f801991011681019081106001600160401b03821117610b8257604052565b634e487b7160e01b600052604160045260246000fd5b908060209392818452848401376000828201840152601f01601f1916010190565b15610bc057565b60405162461bcd60e51b81526020600482015260096024820152683737ba1037bbb732b960b91b6044820152606490fd5b51908115158203610b3757565b60005b838110610c115750506000910152565b8181015183820152602001610c01565b90602091610c3a81518092818552858086019101610bfe565b601f01601f1916010190565b6002546000916001600160a01b039091169081610c6257505050565b813b1561095657610c9a83928392604051948580948193633ddd61ab60e21b8352306004840152606060248401526064830190610c21565b33604483015203925af1610cac575050565b81610cb691610b61565b5056fea26469706673582212204344c201efd3971a6f7717c4a608034e8ee570b2412d783374474f9ffd95023a64736f6c634300081e0033",
  "linkReferences": {},
  "deployedLinkReferences": {}
}