{"abi":[{"type":"constructor","inputs":[{"name":"_dao","type":"address","internalType":"address"},{"name":"_vaultHub","type":"address","internalType":"address"},{"name":"_seer","type":"address","internalType":"address"},{"name":"_securityHub","type":"address","internalType":"address"},{"name":"_ledger","type":"address","internalType":"address"},{"name":"_feeSink","type":"address","internalType":"address"}],"stateMutability":"nonpayable"},{"type":"function","name":"acceptOwnership","inputs":[],"outputs":[],"stateMutability":"nonpayable"},{"type":"function","name":"acceptedTokens","inputs":[{"name":"","type":"address","internalType":"address"}],"outputs":[{"name":"","type":"bool","internalType":"bool"}],"stateMutability":"view"},{"type":"function","name":"autoConvert","inputs":[{"name":"","type":"address","internalType":"address"}],"outputs":[{"name":"","type":"bool","internalType":"bool"}],"stateMutability":"view"},{"type":"function","name":"calculateFee","inputs":[{"name":"amount","type":"uint256","internalType":"uint256"}],"outputs":[{"name":"fee","type":"uint256","internalType":"uint256"},{"name":"netAmount","type":"uint256","internalType":"uint256"}],"stateMutability":"view"},{"type":"function","name":"cancelOwnershipTransfer","inputs":[],"outputs":[],"stateMutability":"nonpayable"},{"type":"function","name":"completeRefund","inputs":[{"name":"refundId","type":"bytes32","internalType":"bytes32"}],"outputs":[],"stateMutability":"nonpayable"},{"type":"function","name":"dao","inputs":[],"outputs":[{"name":"","type":"address","internalType":"address"}],"stateMutability":"view"},{"type":"function","name":"deregisterMerchant","inputs":[],"outputs":[],"stateMutability":"nonpayable"},{"type":"function","name":"feeSink","inputs":[],"outputs":[{"name":"","type":"address","internalType":"address"}],"stateMutability":"view"},{"type":"function","name":"getCustomerTrustScore","inputs":[{"name":"customer","type":"address","internalType":"address"}],"outputs":[{"name":"score","type":"uint16","internalType":"uint16"},{"name":"highTrust","type":"bool","internalType":"bool"},{"name":"lowTrust","type":"bool","internalType":"bool"},{"name":"eligible","type":"bool","internalType":"bool"}],"stateMutability":"view"},{"type":"function","name":"getMerchantCount","inputs":[],"outputs":[{"name":"","type":"uint256","internalType":"uint256"}],"stateMutability":"view"},{"type":"function","name":"getMerchantInfo","inputs":[{"name":"merchant","type":"address","internalType":"address"}],"outputs":[{"name":"registered","type":"bool","internalType":"bool"},{"name":"suspended","type":"bool","internalType":"bool"},{"name":"businessName","type":"string","internalType":"string"},{"name":"category","type":"string","internalType":"string"},{"name":"registeredAt","type":"uint64","internalType":"uint64"},{"name":"totalVolume","type":"uint256","internalType":"uint256"},{"name":"txCount","type":"uint256","internalType":"uint256"}],"stateMutability":"view"},{"type":"function","name":"getMerchantRefundRate","inputs":[{"name":"merchant","type":"address","internalType":"address"}],"outputs":[{"name":"refundCount","type":"uint256","internalType":"uint256"},{"name":"refundVolume","type":"uint256","internalType":"uint256"},{"name":"refundRate","type":"uint256","internalType":"uint256"}],"stateMutability":"view"},{"type":"function","name":"getMerchantStats","inputs":[{"name":"merchant","type":"address","internalType":"address"}],"outputs":[{"name":"registered","type":"bool","internalType":"bool"},{"name":"suspended","type":"bool","internalType":"bool"},{"name":"totalVolume","type":"uint256","internalType":"uint256"},{"name":"txCount","type":"uint256","internalType":"uint256"},{"name":"avgTxSize","type":"uint256","internalType":"uint256"},{"name":"trustScore","type":"uint16","internalType":"uint16"}],"stateMutability":"view"},{"type":"function","name":"getRefundStatus","inputs":[{"name":"refundId","type":"bytes32","internalType":"bytes32"}],"outputs":[{"name":"customer","type":"address","internalType":"address"},{"name":"merchant","type":"address","internalType":"address"},{"name":"token","type":"address","internalType":"address"},{"name":"amount","type":"uint256","internalType":"uint256"},{"name":"orderId","type":"string","internalType":"string"},{"name":"requestTime","type":"uint64","internalType":"uint64"},{"name":"approved","type":"bool","internalType":"bool"},{"name":"completed","type":"bool","internalType":"bool"}],"stateMutability":"view"},{"type":"function","name":"getRefundsForCustomer","inputs":[{"name":"customer","type":"address","internalType":"address"}],"outputs":[{"name":"","type":"bytes32[]","internalType":"bytes32[]"}],"stateMutability":"view"},{"type":"function","name":"getRefundsForMerchant","inputs":[{"name":"merchant","type":"address","internalType":"address"}],"outputs":[{"name":"","type":"bytes32[]","internalType":"bytes32[]"}],"stateMutability":"view"},{"type":"function","name":"initiateRefund","inputs":[{"name":"customer","type":"address","internalType":"address"},{"name":"token","type":"address","internalType":"address"},{"name":"amount","type":"uint256","internalType":"uint256"},{"name":"orderId","type":"string","internalType":"string"}],"outputs":[{"name":"refundId","type":"bytes32","internalType":"bytes32"}],"stateMutability":"nonpayable"},{"type":"function","name":"isTokenAccepted","inputs":[{"name":"token","type":"address","internalType":"address"}],"outputs":[{"name":"","type":"bool","internalType":"bool"}],"stateMutability":"view"},{"type":"function","name":"ledger","inputs":[],"outputs":[{"name":"","type":"address","internalType":"contract IProofLedger"}],"stateMutability":"view"},{"type":"function","name":"merchantList","inputs":[{"name":"","type":"uint256","internalType":"uint256"}],"outputs":[{"name":"","type":"address","internalType":"address"}],"stateMutability":"view"},{"type":"function","name":"merchants","inputs":[{"name":"","type":"address","internalType":"address"}],"outputs":[{"name":"registered","type":"bool","internalType":"bool"},{"name":"suspended","type":"bool","internalType":"bool"},{"name":"businessName","type":"string","internalType":"string"},{"name":"category","type":"string","internalType":"string"},{"name":"registeredAt","type":"uint64","internalType":"uint64"},{"name":"totalVolume","type":"uint256","internalType":"uint256"},{"name":"txCount","type":"uint256","internalType":"uint256"},{"name":"payoutAddress","type":"address","internalType":"address"}],"stateMutability":"view"},{"type":"function","name":"minMerchantScore","inputs":[],"outputs":[{"name":"","type":"uint16","internalType":"uint16"}],"stateMutability":"view"},{"type":"function","name":"minSwapOutputBps","inputs":[],"outputs":[{"name":"","type":"uint256","internalType":"uint256"}],"stateMutability":"view"},{"type":"function","name":"owner","inputs":[],"outputs":[{"name":"","type":"address","internalType":"address"}],"stateMutability":"view"},{"type":"function","name":"pay","inputs":[{"name":"merchant","type":"address","internalType":"address"},{"name":"token","type":"address","internalType":"address"},{"name":"amount","type":"uint256","internalType":"uint256"},{"name":"orderId","type":"string","internalType":"string"}],"outputs":[{"name":"netAmount","type":"uint256","internalType":"uint256"}],"stateMutability":"nonpayable"},{"type":"function","name":"payInPerson","inputs":[{"name":"merchant","type":"address","internalType":"address"},{"name":"token","type":"address","internalType":"address"},{"name":"amount","type":"uint256","internalType":"uint256"},{"name":"orderId","type":"string","internalType":"string"},{"name":"channel","type":"uint8","internalType":"enum PaymentChannel"}],"outputs":[{"name":"netAmount","type":"uint256","internalType":"uint256"}],"stateMutability":"nonpayable"},{"type":"function","name":"payInvoice","inputs":[{"name":"merchant","type":"address","internalType":"address"},{"name":"token","type":"address","internalType":"address"},{"name":"amount","type":"uint256","internalType":"uint256"},{"name":"invoiceId","type":"string","internalType":"string"}],"outputs":[{"name":"netAmount","type":"uint256","internalType":"uint256"}],"stateMutability":"nonpayable"},{"type":"function","name":"payOnline","inputs":[{"name":"merchant","type":"address","internalType":"address"},{"name":"token","type":"address","internalType":"address"},{"name":"amount","type":"uint256","internalType":"uint256"},{"name":"orderId","type":"string","internalType":"string"}],"outputs":[{"name":"","type":"uint256","internalType":"uint256"}],"stateMutability":"pure"},{"type":"function","name":"paySubscription","inputs":[{"name":"merchant","type":"address","internalType":"address"},{"name":"token","type":"address","internalType":"address"},{"name":"amount","type":"uint256","internalType":"uint256"},{"name":"subscriptionId","type":"string","internalType":"string"}],"outputs":[{"name":"netAmount","type":"uint256","internalType":"uint256"}],"stateMutability":"nonpayable"},{"type":"function","name":"pendingOwner","inputs":[],"outputs":[{"name":"","type":"address","internalType":"address"}],"stateMutability":"view"},{"type":"function","name":"processPayment","inputs":[{"name":"customer","type":"address","internalType":"address"},{"name":"token","type":"address","internalType":"address"},{"name":"amount","type":"uint256","internalType":"uint256"},{"name":"orderId","type":"string","internalType":"string"}],"outputs":[{"name":"netAmount","type":"uint256","internalType":"uint256"}],"stateMutability":"nonpayable"},{"type":"function","name":"protocolFeeBps","inputs":[],"outputs":[{"name":"","type":"uint256","internalType":"uint256"}],"stateMutability":"view"},{"type":"function","name":"refundRequests","inputs":[{"name":"","type":"bytes32","internalType":"bytes32"}],"outputs":[{"name":"customer","type":"address","internalType":"address"},{"name":"merchant","type":"address","internalType":"address"},{"name":"token","type":"address","internalType":"address"},{"name":"amount","type":"uint256","internalType":"uint256"},{"name":"orderId","type":"string","internalType":"string"},{"name":"requestTime","type":"uint64","internalType":"uint64"},{"name":"approved","type":"bool","internalType":"bool"},{"name":"completed","type":"bool","internalType":"bool"}],"stateMutability":"view"},{"type":"function","name":"registerMerchant","inputs":[{"name":"businessName","type":"string","internalType":"string"},{"name":"category","type":"string","internalType":"string"}],"outputs":[],"stateMutability":"nonpayable"},{"type":"function","name":"reinstateMerchant","inputs":[{"name":"merchant","type":"address","internalType":"address"}],"outputs":[],"stateMutability":"nonpayable"},{"type":"function","name":"securityHub","inputs":[],"outputs":[{"name":"","type":"address","internalType":"contract ISecurityHub"}],"stateMutability":"view"},{"type":"function","name":"seer","inputs":[],"outputs":[{"name":"","type":"address","internalType":"contract ISeer"}],"stateMutability":"view"},{"type":"function","name":"setAcceptedToken","inputs":[{"name":"token","type":"address","internalType":"address"},{"name":"accepted","type":"bool","internalType":"bool"}],"outputs":[],"stateMutability":"nonpayable"},{"type":"function","name":"setAutoConvert","inputs":[{"name":"enabled","type":"bool","internalType":"bool"}],"outputs":[],"stateMutability":"nonpayable"},{"type":"function","name":"setFeeSink","inputs":[{"name":"_sink","type":"address","internalType":"address"}],"outputs":[],"stateMutability":"nonpayable"},{"type":"function","name":"setMinMerchantScore","inputs":[{"name":"_minScore","type":"uint16","internalType":"uint16"}],"outputs":[],"stateMutability":"nonpayable"},{"type":"function","name":"setMinSwapOutput","inputs":[{"name":"_minBps","type":"uint256","internalType":"uint256"}],"outputs":[],"stateMutability":"nonpayable"},{"type":"function","name":"setModules","inputs":[{"name":"_vaultHub","type":"address","internalType":"address"},{"name":"_seer","type":"address","internalType":"address"},{"name":"_securityHub","type":"address","internalType":"address"},{"name":"_ledger","type":"address","internalType":"address"}],"outputs":[],"stateMutability":"nonpayable"},{"type":"function","name":"setPayoutAddress","inputs":[{"name":"payout","type":"address","internalType":"address"}],"outputs":[],"stateMutability":"nonpayable"},{"type":"function","name":"setProtocolFee","inputs":[{"name":"_feeBps","type":"uint256","internalType":"uint256"}],"outputs":[],"stateMutability":"nonpayable"},{"type":"function","name":"setSwapConfig","inputs":[{"name":"_router","type":"address","internalType":"address"},{"name":"_stable","type":"address","internalType":"address"}],"outputs":[],"stateMutability":"nonpayable"},{"type":"function","name":"setSwapPath","inputs":[{"name":"token","type":"address","internalType":"address"},{"name":"path","type":"address[]","internalType":"address[]"}],"outputs":[],"stateMutability":"nonpayable"},{"type":"function","name":"stablecoin","inputs":[],"outputs":[{"name":"","type":"address","internalType":"address"}],"stateMutability":"view"},{"type":"function","name":"suspendMerchant","inputs":[{"name":"merchant","type":"address","internalType":"address"},{"name":"reason","type":"string","internalType":"string"}],"outputs":[],"stateMutability":"nonpayable"},{"type":"function","name":"swapRouter","inputs":[],"outputs":[{"name":"","type":"address","internalType":"contract ISwapRouter"}],"stateMutability":"view"},{"type":"function","name":"tokenSwapPaths","inputs":[{"name":"","type":"address","internalType":"address"},{"name":"","type":"uint256","internalType":"uint256"}],"outputs":[{"name":"","type":"address","internalType":"address"}],"stateMutability":"view"},{"type":"function","name":"transferOwnership","inputs":[{"name":"newOwner","type":"address","internalType":"address"}],"outputs":[],"stateMutability":"nonpayable"},{"type":"function","name":"updateMerchantInfo","inputs":[{"name":"businessName","type":"string","internalType":"string"},{"name":"category","type":"string","internalType":"string"}],"outputs":[],"stateMutability":"nonpayable"},{"type":"function","name":"vaultHub","inputs":[],"outputs":[{"name":"","type":"address","internalType":"contract IVaultHub"}],"stateMutability":"view"},{"type":"event","name":"FeeSinkSet","inputs":[{"name":"sink","type":"address","indexed":false,"internalType":"address"}],"anonymous":false},{"type":"event","name":"FeeUpdated","inputs":[{"name":"feeBasisPoints","type":"uint256","indexed":false,"internalType":"uint256"}],"anonymous":false},{"type":"event","name":"MerchantDeregistered","inputs":[{"name":"merchant","type":"address","indexed":true,"internalType":"address"}],"anonymous":false},{"type":"event","name":"MerchantRegistered","inputs":[{"name":"merchant","type":"address","indexed":true,"internalType":"address"},{"name":"businessName","type":"string","indexed":false,"internalType":"string"},{"name":"category","type":"string","indexed":false,"internalType":"string"}],"anonymous":false},{"type":"event","name":"MerchantReinstated","inputs":[{"name":"merchant","type":"address","indexed":true,"internalType":"address"}],"anonymous":false},{"type":"event","name":"MerchantSuspended","inputs":[{"name":"merchant","type":"address","indexed":true,"internalType":"address"},{"name":"reason","type":"string","indexed":false,"internalType":"string"}],"anonymous":false},{"type":"event","name":"MerchantUpdated","inputs":[{"name":"merchant","type":"address","indexed":true,"internalType":"address"},{"name":"businessName","type":"string","indexed":false,"internalType":"string"},{"name":"category","type":"string","indexed":false,"internalType":"string"}],"anonymous":false},{"type":"event","name":"MinScoreUpdated","inputs":[{"name":"minScore","type":"uint16","indexed":false,"internalType":"uint16"}],"anonymous":false},{"type":"event","name":"ModulesSet","inputs":[{"name":"vaultHub","type":"address","indexed":false,"internalType":"address"},{"name":"seer","type":"address","indexed":false,"internalType":"address"},{"name":"securityHub","type":"address","indexed":false,"internalType":"address"},{"name":"ledger","type":"address","indexed":false,"internalType":"address"}],"anonymous":false},{"type":"event","name":"OwnershipTransferStarted","inputs":[{"name":"previousOwner","type":"address","indexed":true,"internalType":"address"},{"name":"newOwner","type":"address","indexed":true,"internalType":"address"}],"anonymous":false},{"type":"event","name":"OwnershipTransferred","inputs":[{"name":"previousOwner","type":"address","indexed":true,"internalType":"address"},{"name":"newOwner","type":"address","indexed":true,"internalType":"address"}],"anonymous":false},{"type":"event","name":"PaymentProcessed","inputs":[{"name":"customer","type":"address","indexed":true,"internalType":"address"},{"name":"merchant","type":"address","indexed":true,"internalType":"address"},{"name":"token","type":"address","indexed":false,"internalType":"address"},{"name":"amount","type":"uint256","indexed":false,"internalType":"uint256"},{"name":"fee","type":"uint256","indexed":false,"internalType":"uint256"},{"name":"orderId","type":"string","indexed":false,"internalType":"string"},{"name":"customerScore","type":"uint16","indexed":false,"internalType":"uint16"},{"name":"channel","type":"uint8","indexed":false,"internalType":"enum PaymentChannel"}],"anonymous":false},{"type":"event","name":"PaymentWithChannel","inputs":[{"name":"customer","type":"address","indexed":true,"internalType":"address"},{"name":"merchant","type":"address","indexed":true,"internalType":"address"},{"name":"token","type":"address","indexed":false,"internalType":"address"},{"name":"amount","type":"uint256","indexed":false,"internalType":"uint256"},{"name":"fee","type":"uint256","indexed":false,"internalType":"uint256"},{"name":"orderId","type":"string","indexed":false,"internalType":"string"},{"name":"customerScore","type":"uint16","indexed":false,"internalType":"uint16"},{"name":"channel","type":"uint8","indexed":false,"internalType":"enum PaymentChannel"}],"anonymous":false},{"type":"event","name":"RefundCompleted","inputs":[{"name":"customer","type":"address","indexed":true,"internalType":"address"},{"name":"merchant","type":"address","indexed":true,"internalType":"address"},{"name":"orderId","type":"string","indexed":false,"internalType":"string"},{"name":"amount","type":"uint256","indexed":false,"internalType":"uint256"}],"anonymous":false},{"type":"event","name":"RefundInitiated","inputs":[{"name":"customer","type":"address","indexed":true,"internalType":"address"},{"name":"merchant","type":"address","indexed":true,"internalType":"address"},{"name":"orderId","type":"string","indexed":false,"internalType":"string"},{"name":"amount","type":"uint256","indexed":false,"internalType":"uint256"}],"anonymous":false},{"type":"error","name":"MERCH_EscrowRequired","inputs":[]},{"type":"error","name":"MERCH_InvalidPayment","inputs":[]},{"type":"error","name":"MERCH_LowTrust","inputs":[]},{"type":"error","name":"MERCH_NotDAO","inputs":[]},{"type":"error","name":"MERCH_NotMerchant","inputs":[]},{"type":"error","name":"MERCH_NotRegistered","inputs":[]},{"type":"error","name":"MERCH_Suspended","inputs":[]},{"type":"error","name":"MERCH_VaultLocked","inputs":[]}],"bytecode":{"object":"0x60803461027757601f614c1238819003918201601f19168301916001600160401b0383118484101761027b5780849260c094604052833981010312610277576100478161028f565b6100536020830161028f565b906100606040840161028f565b9161006d6060850161028f565b9261008660a061007f6080880161028f565b960161028f565b5f80546001600160a01b0319163390811782556040519392917f8be0079c531659141344cd1fd0a4f28419497f9722a3daafe3b4186f6b6457e08180a360016002555f60085560095461251c601055946001600160a01b03169283151580610265575b1561023c57506001600160a01b03169384156101e857600780546001600160a01b031990811690941790556003805484166001600160a01b039586169081179091556004805485169386169384179055600580548516978616978817905560068054909416949097169384179092556001600160b01b0319909116831760af60a51b176009556040805195865260208681019290925285019390935260608401527f93f45e69cdabde5c8296469e04ee6765b806aa9c3ef27883e43d1c3d227c4f22927f2ad69807131f242e4c6b9e21338b8d7d7d5f32ab1dfaa1eddfa881c305c8f5e790608090a1604051908152a160405161496e90816102a48239f35b60405162461bcd60e51b815260206004820152602660248201527f4d65726368616e74506f7274616c3a2066656553696e6b2063616e6e6f74206260448201526565207a65726f60d01b6064820152608490fd5b60649062461bcd60e51b81526020600482015260046024820152637a65726f60e01b6044820152fd5b506001600160a01b03851615156100e9565b5f80fd5b634e487b7160e01b5f52604160045260245ffd5b51906001600160a01b03821682036102775756fe6080806040526004361015610012575f80fd5b5f3560e01c9081630560bd9614613c2557508063072d74c614613b7b5780630e733ef114613ac55780631a8ce5ed14613a415780631b705d94146136545780631b795d561461362b57806322b62ba0146135b957806323452b9c1461358f5780632522fc3b1461350a5780632d55ea39146134e2578063311b3965146130d757806333ea51a81461308657806335659fb814613069578063395603b614612cba5780633a04259f146129975780633a69e2721461285b5780633e03c0621461276f5780634162169f146127475780634384c7461461272a57806344d4aeb01461270d578063464a0aee146126ab57806349d2cfdb146125b55780634ad9816f1461235e5780634b38474d1461233657806355e65c391461223d57806356397c3514612215578063614b1800146121d8578063679e9e69146121125780636dd6e80b146120ea57806376fac575146120c6578063787dce3d1461200757806379ba509714611f6057806382dc4a0514611f2357806384a602321461182e57806385f7e641146117e95780638da5cb5b146117c257806397f735fd1461140957806399a5d747146113cd578063ab3bd718146112e2578063b079fbff14611195578063b435dee114611098578063b72d294314611070578063bbe96b0014610d60578063c31c9c0714610d38578063c997dbca14610c70578063d8cda7f714610bee578063da62e06414610b4e578063df6d21f0146108d9578063e30c3978146108b1578063e314c30414610869578063e7327a7b14610847578063e9cbd8221461081f578063ee14e93914610753578063f2fde38b146106ad5763f809d82414610279575f80fd5b346106a95761028736613f0b565b9091610294949394614538565b6001600160a01b0384165f818152600a602052604090205490949060ff161561069a57845f52600a60205260ff60405f205460081c1661068b576102d790614801565b6001600160a01b0385169485158015610683575b61067457855f52600c60205261030760ff60405f205416614365565b6004546001600160a01b0316801561066a57602060249160405192838092630d47875d60e41b82523360048301525afa90811561059c575f9161063b575b50935b600354604051630709df4560e01b81523360048201526001600160a01b039091169690926020846024818b5afa93841561059c575f9461061a575b506001600160a01b0384166103998115156143a6565b6005546001600160a01b031680151591826105b6575b50506105a7575f828152600a60205260409020600601546001600160a01b0316978815610535575b506127106103e760085487614082565b04936103f38587614326565b98835f52600a602052600560405f20600481016104118a8254614075565b9055019889549b60018d01809d1161052157847fb00ad9b52e63491e2cf8b05f9c03e6c492b9490445a4d78451bae67f066bd7518b60209f8f6104e29f878f936104db9f938f9b8f9a61048f915f5160206149195f395f51905f529f84926104a5996104959760049a558015158061050d575b6104ef575b506145a9565b85614326565b948a604051968796339a8861441e565b0390a36104c860046104b78d8b614326565b928b6040519586958d339a8861441e565b0390a36104d3614469565b933691613f9c565b913361471e565b6001600255604051908152f35b60095461050791906001600160a01b031684846145a9565b5f610489565b506009546001600160a01b03161515610484565b634e487b7160e01b5f52601160045260245ffd5b5f91985060209060246040518094819363e01fd21560e01b83528760048401525af190811561059c575f9161056d575b50965f6103d7565b61058f915060203d602011610595575b6105878183613d02565b810190613f7d565b5f610565565b503d61057d565b6040513d5f823e3d90fd5b63f456a04f60e01b5f5260045ffd5b6020919250602460405180948193631293efbb60e21b835260048301525afa90811561059c575f916105eb575b505f806103af565b61060d915060203d602011610613575b6106058183613d02565b8101906140cd565b5f6105e3565b503d6105fb565b61063491945060203d602011610595576105878183613d02565b925f610383565b61065d915060203d602011610663575b6106558183613d02565b8101906140b3565b5f610345565b503d61064b565b506101f493610348565b63b313ad1360e01b5f5260045ffd5b5081156102eb565b637f37ade960e11b5f5260045ffd5b63515fd07b60e11b5f5260045ffd5b5f80fd5b346106a95760203660031901126106a9576106c6613c5e565b6106ce6147b8565b6001600160a01b0316801561072257600180546001600160a01b031916821790555f80546001600160a01b0316907f38d16b8cac22d99fc7c124b9cd0de2d3fa1faef420bfe791d8c362d765e227009080a3005b60405162461bcd60e51b81526020600482015260096024820152684f574e3a207a65726f60b81b6044820152606490fd5b346106a95760203660031901126106a9576001600160a01b03610774613c5e565b165f52600a60205260ff60405f2080549061079160018201613d23565b61079d60028301613d23565b916001600160401b03600382015416926108066004830154916107f8600585015494600660018060a01b0391015416956040519989818c9b1615158b5260081c16151560208a015261010060408a0152610100890190613c8a565b908782036060890152613c8a565b93608086015260a085015260c084015260e08301520390f35b346106a9575f3660031901126106a957600e546040516001600160a01b039091168152602090f35b346106a95761085536613f0b565b5050505050635525d35560e11b5f5260045ffd5b346106a95760203660031901126106a95760043580151581036106a9576108af906108926148f2565b335f52600f60205260405f209060ff801983541691151516179055565b005b346106a9575f3660031901126106a9576001546040516001600160a01b039091168152602090f35b346106a95760403660031901126106a9576108f2613c5e565b6024356001600160401b0381116106a957366023820112156106a9578060040135906001600160401b0382116106a95760248101923660248460051b840101116106a95761093e6144ab565b6001600160a01b0316908115610b1c5760028310610ae6578215610a9757816001600160a01b0361096e86614497565b1603610aab575f1983018381116105215783811015610a97576109989160249160051b0101614497565b600e546001600160a01b03908116911603610a5e575f52601160205260405f2091600160401b8211610a4a578254828455808310610a2e575b50915f5260205f20915f5b828110610a13576108af6040516109f4604082613d02565b600d81526c1cddd85c17dc185d1a17dcd95d609a1b60208201526144ce565b6001906020610a2184614497565b93019281860155016109dc565b610a4490845f528360205f209182019101613fd2565b836109d1565b634e487b7160e01b5f52604160045260245ffd5b60405162461bcd60e51b81526020600482015260116024820152700e0c2e8d040cadcc840dad2e6dac2e8c6d607b1b6044820152606490fd5b634e487b7160e01b5f52603260045260245ffd5b60405162461bcd60e51b81526020600482015260136024820152720e0c2e8d040e6e8c2e4e840dad2e6dac2e8c6d606b1b6044820152606490fd5b60405162461bcd60e51b815260206004820152600e60248201526d1c185d1a081d1bdbc81cda1bdc9d60921b6044820152606490fd5b60405162461bcd60e51b815260206004820152600a6024820152693d32b937903a37b5b2b760b11b6044820152606490fd5b346106a95760203660031901126106a9577f93f45e69cdabde5c8296469e04ee6765b806aa9c3ef27883e43d1c3d227c4f226020610b8a613c5e565b610b926144ab565b6001600160a01b0316610ba6811515614333565b600980546001600160a01b03191682179055604051908152a16108af604051610bd0604082613d02565b600c81526b19995957dcda5b9ad7dcd95d60a21b60208201526144ce565b346106a95760203660031901126106a9576001600160a01b03610c0f613c5e565b165f52601460205260405f206040519081602082549182815201915f5260205f20905f5b818110610c5a57610c5685610c4a81870382613d02565b60405191829182613e55565b0390f35b8254845260209093019260019283019201610c33565b346106a95760403660031901126106a957610c89613c5e565b6024359081151582036106a957610c9e6144ab565b6001600160a01b0316610cb2811515614333565b5f52600c602052610cd28160405f209060ff801983541691151516179055565b15610d08576108af604051610ce8604082613d02565b600e81526d1d1bdad95b97d858d8d95c1d195960921b60208201526144ce565b6108af604051610d19604082613d02565b600d81526c1d1bdad95b97dc995b5bdd9959609a1b60208201526144ce565b346106a9575f3660031901126106a957600d546040516001600160a01b039091168152602090f35b346106a957610d6e36613f0b565b9291610d7b949194614538565b610d836148f2565b6001600160a01b038216938415801561105f575b8015611057575b61067457335f52600a60205260405f209460ff865460081c1661068b57610dc433614801565b6004546001600160a01b0316801561104d57602060249160405192838092630d47875d60e41b82528660048301525afa90811561059c575f9161102e575b50965b60018060a01b03861695865f52600c602052610e2760ff60405f205416614365565b600354604051630709df4560e01b81526004810185905293906001600160a01b0316602085602481845afa94851561059c575f9561100d575b506001600160a01b038516610e768115156143a6565b6005546001600160a01b03168015159182610fb9575b50506105a75760205f9160246040518094819363e01fd21560e01b83523360048401525af190811561059c575f91610f9a575b50612710610ecf60085489614082565b04986005610edd8b8a614326565b9b60048101610eed8b8254614075565b905501998a54600181018091116105215760209d610f3f8e5f5160206149195f395f51905f52966104e29f9b8b97610f4f96610f629e55610f2d33614801565b87151580610f86575b610f68576145a9565b896040519485948d339a876143dd565b0390a3610f5a614469565b923691613f9c565b9261471e565b600954610f819089906001600160a01b031684846145a9565b6145a9565b506009546001600160a01b03161515610f36565b610fb3915060203d602011610595576105878183613d02565b8b610ebf565b6020919250602460405180948193631293efbb60e21b835260048301525afa90811561059c575f91610fee575b508c80610e8c565b611007915060203d602011610613576106058183613d02565b8c610fe6565b61102791955060203d602011610595576105878183613d02565b938b610e60565b611047915060203d602011610663576106558183613d02565b88610e02565b506101f496610e05565b508115610d9e565b506001600160a01b03841615610d97565b346106a9575f3660031901126106a9576005546040516001600160a01b039091168152602090f35b346106a95760203660031901126106a9576001600160a01b036110b9613c5e565b165f818152600a6020526040902080546004820154600590920154929091831561118f576110e78482614095565b6004546001600160a01b031692831561117d57602090602460405180968193630d47875d60e41b835260048301525afa94851561059c5760c09561ffff945f9161115e575b50925b60ff604051968181161515885260081c16151560208701526040860152606085015260808401521660a0820152f35b611177915060203d602011610663576106558183613d02565b8761112c565b5061ffff925060c0946113889261112f565b5f6110e7565b346106a95760803660031901126106a9576111ae613c5e565b6111b6613c74565b6044356001600160a01b0381169291908390036106a9576064356001600160a01b038116908190036106a9577f2ad69807131f242e4c6b9e21338b8d7d7d5f32ab1dfaa1eddfa881c305c8f5e79360809361120f6144ab565b6001600160a01b031692831515806112d0575b61122b90614333565b836001600160601b0360a01b600354161760035560018060a01b0316806001600160601b0360a01b6004541617600455816001600160601b0360a01b6005541617600555826001600160601b0360a01b6006541617600655604051938452602084015260408301526060820152a16108af6040516112aa604082613d02565b60148152731b595c98da185b9d17db5bd91d5b195cd7dcd95d60621b60208201526144ce565b506001600160a01b0381161515611222565b346106a95760203660031901126106a95760043561ffff8116908181036106a95761130b6144ab565b6127108211611398576009805461ffff60a01b191660a09290921b61ffff60a01b169190911790556040519081527fae6362fa2cba18c7ba93fa3cb73d87a847b87359ffaa47e62dc75c57e5bd595890602090a16108af604051611370604082613d02565b60168152751b5a5b97db595c98da185b9d17dcd8dbdc9957dcd95d60521b60208201526144ce565b60405162461bcd60e51b815260206004820152600d60248201526c696e76616c69642073636f726560981b6044820152606490fd5b346106a95760203660031901126106a95760406004356113fd6127106113f560085484614082565b048092614326565b82519182526020820152f35b346106a95761141736613f0b565b91611424949193946148f2565b6001600160a01b0382161515806117b9575b1561177c57604051602081019033825260018060a01b0384166040820152608060608201526114818161146d60a08201888a61402b565b42608083015203601f198101835282613d02565b519020926040519561149287613ce6565b6001600160a01b038481168852336020890190815291166040880190815260608801848152919790916114c636858a613f9c565b90608083019182526001600160401b03421660a084015260c0830193600185525f60e0850152885f52601260205260405f209a60018060a01b0360018060a01b03865116166001600160601b0360a01b8d5416178c5560018060a01b0390511660018c019060018060a01b03166001600160601b0360a01b82541617905560018060a01b0390511660028b019060018060a01b03166001600160601b0360a01b8254161790555160038a0155519788516001600160401b038111610a4a576020996115a1826115986004860154613cae565b60048601613fe8565b8a90601f831160011461170357610f6295936115df8460e0956116f09d9e98956005955f926116f8575b50508160011b915f199060031b1c19161790565b60048201555b60a0830151910180549451939092015169ffffffffffffffffffff199094166001600160401b039190911617911515604090811b68ff0000000000000000169290921792151560481b69ff00000000000000000016929092179091556001600160a01b0386165f90815260138a522061165f9088906142f2565b335f52601488526116738760405f206142f2565b6040516040815261168860408201858461402b565b858a8301527ffc19d89cb79b4d3134331c20d750cd920d5c126c2a714d7cb433cf21ffcf415533928060018060a01b038a16930390a3604051926116cd604085613d02565b601084526f1c99599d5b9917da5b9a5d1a585d195960821b898501523691613f9c565b604051908152f35b015190505f806115cb565b90600484015f52805f20915f5b601f19851681106117655750936001846116f09c9d9794600594610f629a9860e098601f1981161061174d575b505050811b0160048201556115e5565b01515f1960f88460031b161c191690558f808061173d565b91928d600181928685015181550194019201611710565b60405162461bcd60e51b8152602060048201526015602482015274496e76616c696420726566756e6420706172616d7360581b6044820152606490fd5b50801515611436565b346106a9575f3660031901126106a9575f546040516001600160a01b039091168152602090f35b346106a95760203660031901126106a957608061180c611807613c5e565b6140e5565b9161ffff60405194168452151560208401521515604083015215156060820152f35b346106a95761183c36613f0b565b909391611847614538565b6001600160a01b0383165f818152600a602052604090205460ff161561069a57805f52600a60205260ff60405f205460081c1661068b5761188784614801565b6001600160a01b0385169586158015611f1b575b61067457865f52600c6020526118b760ff60405f205416614365565b6004546001600160a01b03168015611f1157602060249160405192838092630d47875d60e41b82523360048301525afa90811561059c575f91611ef2575b50915b600354604051630709df4560e01b815233600482015297906001600160a01b0316602089602481845afa98891561059c575f99611ed1575b506001600160a01b0389166119468115156143a6565b6005546001600160a01b03168015159182611e7d575b50506105a7575f838152600a60205260409020600601546001600160a01b0316908115611e28575b5061271061199460085488614082565b04996119a08b88614326565b809a8c151580611e14575b611df6575b855f52600f60205260ff60405f20541680611de1575b80611dcd575b80611db9575b15611da957906119e4913090846145a9565b600d5460405163095ea7b360e01b81526001600160a01b039091166004820152602481018b90526020816044815f865af1801561059c57611d8c575b506060815f526011602052600260405f205410155f14611d405750805f52601160205260405f20604051808260208294549384815201905f5260205f20925f5b818110611d1e575050611a7592500382613d02565b612710611a846010548d614082565b049060018060a01b03600d54169061012c4201421161052157908c939291604051926338ed173960e01b845260a4840190866004860152602485015260a060448501528151809152602060c485019201905f5b818110611cf5575050506001600160a01b03861660648401524261012c0160848401525f91839182900390829084905af19081611c4f575b50611c475760405163a9059cbb60e01b602082019081526001600160a01b039490941660248201526044808201939093529182525f9283928390611b54606482613d02565b51925af1611b6061457a565b81611c18575b5015611bd3575b815f52600a602052600560405f2060048101611b8a888254614075565b905501805497600189018099116105215760209a6104c86104db97611bc388946104e29d5f5160206149195f395f51905f529755614801565b8a6040519485948c3399876143dd565b60405162461bcd60e51b815260206004820152601a60248201527f5361666545524332303a207472616e73666572206661696c65640000000000006044820152606490fd5b8051801592508215611c2d575b50508a611b66565b611c4092506020809183010191016140cd565b8a80611c25565b505050611b6d565b909192503d805f833e611c628183613d02565b8101906020818303126106a9578051906001600160401b0382116106a957019080601f830112156106a9578151916001600160401b038311610a4a578260051b906020820193611cb56040519586613d02565b84526020808501928201019283116106a9579060208f969594939201905b828210611ce257505050611b0f565b815181528f965060209182019101611cd3565b91939495965091602080600192838060a01b0387511681520194019101918f9695949392611ad7565b84546001600160a01b0316835260019485019486945060209093019201611a60565b604051611d4d8282613d02565b600281526020810191601f19013683378091815115610a9757839052600e5481516001600160a01b03909116919060011015610a975760400152611a75565b611da49060203d602011610613576106058183613d02565b611a20565b611db49391926145a9565b611b6d565b50600e546001600160a01b031615156119d2565b50600d546001600160a01b031615156119cc565b50600e546001600160a01b03168314156119c6565b600954611e0f908e906001600160a01b031683866145a9565b6119b0565b506009546001600160a01b031615156119ab565b5f915060209060246040518094819363e01fd21560e01b83528860048401525af190811561059c575f91611e5e575b508a611984565b611e77915060203d602011610595576105878183613d02565b8a611e57565b6020919250602460405180948193631293efbb60e21b835260048301525afa90811561059c575f91611eb2575b508b8061195c565b611ecb915060203d602011610613576106058183613d02565b8b611eaa565b611eeb91995060203d602011610595576105878183613d02565b978a611930565b611f0b915060203d602011610663576106558183613d02565b886118f5565b506101f4916118f8565b50821561189b565b346106a95760203660031901126106a9576001600160a01b03611f44613c5e565b165f52600c602052602060ff60405f2054166040519015158152f35b346106a9575f3660031901126106a9576001546001600160a01b0381163303611fc9575f543360018060a01b0382167f8be0079c531659141344cd1fd0a4f28419497f9722a3daafe3b4186f6b6457e05f80a36001600160a01b031990811633175f5516600155005b60405162461bcd60e51b815260206004820152601660248201527527aba71d103737ba103832b73234b7339037bbb732b960511b6044820152606490fd5b346106a95760203660031901126106a9576004356120236144ab565b6101f48111612092576020817f8c4d35e54a3f2ef1134138fd8ea3daee6a3c89e10d2665996babdf70261e2c7692600855604051908152a16108af60405161206c604082613d02565b60148152731c1c9bdd1bd8dbdb17d9995957dd5c19185d195960621b60208201526144ce565b60405162461bcd60e51b815260206004820152600c60248201526b0cccaca40e8dede40d0d2ced60a31b6044820152606490fd5b346106a9575f3660031901126106a957602061ffff60095460a01c16604051908152f35b346106a9575f3660031901126106a9576003546040516001600160a01b039091168152602090f35b346106a95760203660031901126106a95761212b613c5e565b6121336144ab565b6001600160a01b0381165f818152600a602052604090205490919060ff161561069a57816108af925f52600a60205260405f2061ff001981541690557f347a99fe8231756175eb07c80915f39e5e829aa45ccf58d20ae94f12b767fbd05f80a26040516121a1604082613d02565b60138152721b595c98da185b9d17dc995a5b9cdd185d1959606a1b6020820152604051916121d0602084613d02565b5f835261468a565b346106a95760203660031901126106a9576001600160a01b036121f9613c5e565b165f52600f602052602060ff60405f2054166040519015158152f35b346106a9575f3660031901126106a9576006546040516001600160a01b039091168152602090f35b346106a95760403660031901126106a957612256613c5e565b6024356001600160401b0381116106a957612275903690600401613e8e565b6122809291926144ab565b6001600160a01b0382165f818152600a602052604090205460ff161561069a576108af9381612330925f52600a60205260405f2061010061ff00198254161790557f982ac13f4e1a099c2a6f82aaa965b986473b9cd2bc36758c35ec13436c82ff2960405160208152806122f860208201888761402b565b0390a26040519261230a604085613d02565b60128452711b595c98da185b9d17dcdd5cdc195b99195960721b60208501523691613f9c565b9161468a565b346106a9575f3660031901126106a9576009546040516001600160a01b039091168152602090f35b346106a95761236c36613ebb565b906123756148f2565b335f52600a60205260405f209360018501946001600160401b038511610a4a576123a9856123a38854613cae565b88613fe8565b5f95601f861160011461254f576123dc8680600295969798995f91612544575b508160011b915f199060031b1c19161790565b90555b016001600160401b038411610a4a57612402846123fc8354613cae565b83613fe8565b5f601f85116001146124b657836108af966124a495949361245988807f0613ee99da764f84495dd846af208695f4c3d1c35d1666d55cbcc7e7c1a7826b965f916124ab57508160011b915f199060031b1c19161790565b90555b61246e8760405193849333978561404b565b0390a260405192612480604085613d02565b601084526f1b595c98da185b9d17dd5c19185d195960821b60208501523691613f9c565b903361468a565b90508501358c6123c9565b601f19851690825f5260205f20915f5b81811061252c5750968594937f0613ee99da764f84495dd846af208695f4c3d1c35d1666d55cbcc7e7c1a7826b936124a49793896108af9b10612513575b5050600188811b01905561245c565b8401355f1960038b901b60f8161c191690558980612504565b9192602060018192868a0135815501940192016124c6565b90508601358a6123c9565b601f19861696815f5260205f20905f5b89811061259d5750876002959697989910612584575b5050600187811b0190556123df565b8501355f1960038a901b60f8161c191690558780612575565b9091602060018192858901358155019301910161255f565b346106a9575f3660031901126106a9576125cd6148f2565b335f52600a60205260405f20805460ff8160081c1661265c5760ff19169055337fa9057f5035f868cd545546fef7a7bf48a6792a02434a4185b1fed09d0842083a5f80a26108af604051612622604082613d02565b60158152741b595c98da185b9d17d9195c9959da5cdd195c9959605a1b602082015260405190612653602083613d02565b5f82523361468a565b60405162461bcd60e51b815260206004820152602160248201527f43616e6e6f742064657265676973746572207768696c652073757370656e64656044820152601960fa1b6064820152608490fd5b346106a95760403660031901126106a9576126c4613c5e565b6001600160a01b03165f908152601160205260409020805460243591908210156106a9576020916126f491613e40565b905460405160039290921b1c6001600160a01b03168152f35b346106a9575f3660031901126106a9576020600b54604051908152f35b346106a9575f3660031901126106a9576020601054604051908152f35b346106a9575f3660031901126106a9576007546040516001600160a01b039091168152602090f35b346106a95760403660031901126106a957612788613c5e565b612790613c74565b906127996144ab565b6001600160a01b031680612808575b6001600160601b0360a01b600d541617600d5560018060a01b03166001600160601b0360a01b600e541617600e556108af6040516127e7604082613d02565b600f81526e1cddd85c17d8dbdb999a59d7dcd95d608a1b60208201526144ce565b6001600160a01b0382166127a85760405162461bcd60e51b815260206004820152601f60248201527f4d503a20737461626c65207265717569726564207769746820726f75746572006044820152606490fd5b346106a95760203660031901126106a957612874613c5e565b5f905f5f9160018060a01b031691825f52601460205260405f2090604051808360208295549384815201905f5260205f20925f5b81811061297e5750506128bd92500383613d02565b5f5b8251811015612926578251811015610a975760208160051b840101515f52601260205260405f2060ff600582015460481c166128ff575b506001016128bf565b959093905f1981146105215760019160038361291f930198015490614075565b93906128f6565b838683875f52600a602052600560405f2001549283612956575b6060935060405192835260208301526040820152f35b9050612710820282810461271014831517156105215760609361297891614095565b90612940565b84548352600194850194879450602090930192016128a8565b346106a9576129a536613f0b565b90916129b2949394614538565b6001600160a01b0384165f818152600a602052604090205490949060ff161561069a57845f52600a60205260ff60405f205460081c1661068b576129f590614801565b6001600160a01b0385169485158015612cb2575b61067457855f52600c602052612a2560ff60405f205416614365565b6004546001600160a01b03168015612ca857602060249160405192838092630d47875d60e41b82523360048301525afa90811561059c575f91612c89575b50935b600354604051630709df4560e01b81523360048201526001600160a01b039091169690926020846024818b5afa93841561059c575f94612c68575b506001600160a01b038416612ab78115156143a6565b6005546001600160a01b03168015159182612c14575b50506105a7575f828152600a60205260409020600601546001600160a01b0316978815612bbd575b50612710612b0560085487614082565b0493612b118587614326565b98835f52600a602052600560405f2060048101612b2f8a8254614075565b9055019889549b60018d01809d1161052157847fb00ad9b52e63491e2cf8b05f9c03e6c492b9490445a4d78451bae67f066bd7518b60209f8f6104e29f878f936104db9f938f9b8f9a61048f915f5160206149195f395f51905f529f8492612bab996104959760059a558015158061050d576104ef57506145a9565b0390a36104c860056104b78d8b614326565b5f91985060209060246040518094819363e01fd21560e01b83528760048401525af190811561059c575f91612bf5575b509689612af5565b612c0e915060203d602011610595576105878183613d02565b89612bed565b6020919250602460405180948193631293efbb60e21b835260048301525afa90811561059c575f91612c49575b508a80612acd565b612c62915060203d602011610613576106058183613d02565b8a612c41565b612c8291945060203d602011610595576105878183613d02565b9289612aa1565b612ca2915060203d602011610663576106558183613d02565b87612a63565b506101f493612a66565b508115612a09565b346106a957612cc836613ebb565b919290335f52600a60205260ff60405f20541661302f57612ce833614801565b604051612cf481613ce6565b60018152602081015f8152612d0a368786613f9c565b60408301908152612d1c368786613f9c565b60608401908152608084016001600160401b034216815260a08501915f835260c08601935f855260e08701955f8752335f52600a602052612d7060405f2098511515899060ff801983541691151516179055565b51875461ff00191690151560081b61ff001617875551805160018801916001600160401b038211610a4a57612daf82612da98554613cae565b85613fe8565b602090601f8311600114612fcc57612ddd92915f9183612fc15750508160011b915f199060031b1c19161790565b90555b51805160028701916001600160401b038211610a4a57612e0482612da98554613cae565b602090601f8311600114612f4f5782600698979695936001600160401b039593612e42935f92612f445750508160011b915f199060031b1c19161790565b90555b5160038701805467ffffffffffffffff19166001600160401b03939092169290921617905551600485015551600584015551910180546001600160a01b0319166001600160a01b0392909216919091179055600b5491600160401b831015610a4a577f7476726b1d8882ab8352f5af9fb6c3dfab81c79b6a107ef114d5472393a75953826108af96612ee08660016124a49801600b55613e28565b81549060031b9033821b9160018060a01b03901b1916179055612f0b8760405193849333978561404b565b0390a260405192612f1d604085613d02565b60138452721b595c98da185b9d17dc9959da5cdd195c9959606a1b60208501523691613f9c565b015190508f806115cb565b90601f19831691845f52815f20925f5b818110612fa9575092600192859260069b9a9998966001600160401b03989610612f91575b505050811b019055612e45565b01515f1960f88460031b161c191690558e8080612f84565b92936020600181928786015181550195019301612f5f565b015190508e806115cb565b90601f19831691845f52815f20925f5b8181106130175750908460019594939210612fff575b505050811b019055612de0565b01515f1960f88460031b161c191690558d8080612ff2565b92936020600181928786015181550195019301612fdc565b60405162461bcd60e51b8152602060048201526012602482015271185b1c9958591e481c9959da5cdd195c995960721b6044820152606490fd5b346106a9575f3660031901126106a9576020600854604051908152f35b346106a95760203660031901126106a95761309f613c5e565b6130a76148f2565b335f908152600a6020526040902060060180546001600160a01b0319166001600160a01b03909216919091179055005b346106a95760a03660031901126106a9576130f0613c5e565b6130f8613c74565b90604435916064356001600160401b0381116106a95761311c903690600401613e8e565b90936084359260068410156106a957613133614538565b600184145f81156134d6575b81156134b2575b5015613462576001600160a01b0385165f818152600a602052604090205490959060ff161561069a57855f52600a60205260ff60405f205460081c1661068b5761318f90614801565b6001600160a01b038116958615801561345a575b61067457865f52600c6020526131bf60ff60405f205416614365565b6004546001600160a01b0316801561345057602060249160405192838092630d47875d60e41b82523360048301525afa90811561059c575f91613431575b50955b600354604051630709df4560e01b81523360048201526001600160a01b039091169390602081602481885afa90811561059c575f91613412575b506001600160a01b0381166132508115156143a6565b6005546001600160a01b031680151591826133be575b50506105a7575f838152600a60205260409020600601546001600160a01b0316948515613367575b5061271061329e60085488614082565b04946132aa8688614326565b99845f52600a602052600560405f20600481016132c88b8254614075565b9055019687549a60018c01809c1161052157868660209f8f6104e29f8f918f916104db9f8f9b8361048f5f5160206149195f395f51905f529f9561334a938f95976104c89f9b8f989c7fb00ad9b52e63491e2cf8b05f9c03e6c492b9490445a4d78451bae67f066bd7519d61335a9b558015158061050d576104ef57506145a9565b948c604051968796339a8861441e565b0390a36104b78d8b614326565b5f91955060209060246040518094819363e01fd21560e01b83528860048401525af190811561059c575f9161339f575b50938a61328e565b6133b8915060203d602011610595576105878183613d02565b8a613397565b6020919250602460405180948193631293efbb60e21b835260048301525afa90811561059c575f916133f3575b508b80613266565b61340c915060203d602011610613576106058183613d02565b8b6133eb565b61342b915060203d602011610595576105878183613d02565b8a61323a565b61344a915060203d602011610663576106558183613d02565b886131fd565b506101f495613200565b5082156131a3565b60405162461bcd60e51b815260206004820152602260248201527f4d503a20757365207061794f6e6c696e6520666f722074686973206368616e6e604482015261195b60f21b6064820152608490fd5b90506134c2576003841487613146565b634e487b7160e01b5f52602160045260245ffd5b5050600284145f61313f565b346106a9575f3660031901126106a9576004546040516001600160a01b039091168152602090f35b346106a95760203660031901126106a9576004355f52601260205260405f2060018060a01b0381541690610c5660018060a01b0360018301541660018060a01b0360028401541692600381015494613569600460058401549301613d23565b60405196879660ff8560481c16956001600160401b0360ff8760401c1696169489613dc3565b346106a9575f3660031901126106a9576135a76147b8565b600180546001600160a01b0319169055005b346106a95760203660031901126106a9576001600160a01b036135da613c5e565b165f52601360205260405f206040519081602082549182815201915f5260205f20905f5b81811061361557610c5685610c4a81870382613d02565b82548452602090930192600192830192016135fe565b346106a95760203660031901126106a957600435600b548110156106a9576126f4602091613e28565b346106a95760203660031901126106a95761366d614538565b6004355f52601260205260405f20600381018054908115613a0957600583019182549060ff8260401c16156139ce5760ff8260481c1661399557600185019360018060a01b03855416928333036139505769ff00000000000000000019166901000000000000000000179055600354604051630709df4560e01b815260048101939093526001600160a01b0316602083602481845afa92831561059c575f9361392f575b50602060018060a01b03875416602460405180948193630709df4560e01b835260048301525afa90811561059c575f91613910575b506001600160a01b0383161515806138fe575b156138c857600286015461377693906001600160a01b03166145a9565b600460018060a01b038454169260018060a01b03905416930190549060405193604085525f82546137a681613cae565b908160408901526001811690815f14613886575060011461382f575b507f8bae2ec0e2a69cf8d78e49966dc7eb00e5528d3c042219b082effa1a6f1dd50a868087938760206138289b01520390a3610f6260405191613806604084613d02565b601083526f1c99599d5b9917d8dbdb5c1b195d195960821b6020840152613d23565b6001600255005b5f848152602081209092505b81831061386f57505085016060017f8bae2ec0e2a69cf8d78e49966dc7eb00e5528d3c042219b082effa1a6f1dd50a6137c2565b80546060848a01015260209092019160010161383b565b60ff19166060808a019190915291151560051b880190910191507f8bae2ec0e2a69cf8d78e49966dc7eb00e5528d3c042219b082effa1a6f1dd50a90506137c2565b60405162461bcd60e51b815260206004820152600e60248201526d4d697373696e67207661756c747360901b6044820152606490fd5b506001600160a01b0381161515613759565b613929915060203d602011610595576105878183613d02565b86613746565b61394991935060203d602011610595576105878183613d02565b9186613711565b60405162461bcd60e51b815260206004820152601a60248201527f4f6e6c79206d65726368616e742063616e20636f6d706c6574650000000000006044820152606490fd5b60405162461bcd60e51b8152602060048201526011602482015270105b1c9958591e4818dbdb5c1b195d1959607a1b6044820152606490fd5b60405162461bcd60e51b81526020600482015260136024820152721499599d5b99081b9bdd08185c1c1c9bdd9959606a1b6044820152606490fd5b60405162461bcd60e51b815260206004820152601060248201526f1499599d5b99081b9bdd08199bdd5b9960821b6044820152606490fd5b346106a95760203660031901126106a957600480355f9081526012602052604090208054600182015460028301546003840154946001600160a01b0391821694610c56949383169390921690600590613a9b908401613d23565b9201549160405196879660ff8560481c16956001600160401b0360ff8760401c1696169489613dc3565b346106a95760203660031901126106a9576001600160a01b03613ae6613c5e565b165f52600a60205260ff60405f208054906001600160401b03600382015416906004810154613b67600583015492613b59613b2f6002613b2860018501613d23565b9301613d23565b916040519888818b9a1615158a5260081c161515602089015260e0604089015260e0880190613c8a565b908682036060880152613c8a565b92608085015260a084015260c08301520390f35b346106a95760203660031901126106a957600435613b976144ab565b61232881101580613c19575b15613be1576010556108af604051613bbc604082613d02565b60138152721b5a5b97dcddd85c17dbdd5d1c1d5d17dcd95d606a1b60208201526144ce565b60405162461bcd60e51b815260206004820152601060248201526f696e76616c696420736c69707061676560801b6044820152606490fd5b50612710811115613ba3565b346106a95760203660031901126106a9576020906001600160a01b03613c49613c5e565b165f52600c825260ff60405f20541615158152f35b600435906001600160a01b03821682036106a957565b602435906001600160a01b03821682036106a957565b805180835260209291819084018484015e5f828201840152601f01601f1916010190565b90600182811c92168015613cdc575b6020831014613cc857565b634e487b7160e01b5f52602260045260245ffd5b91607f1691613cbd565b61010081019081106001600160401b03821117610a4a57604052565b90601f801991011681019081106001600160401b03821117610a4a57604052565b9060405191825f825492613d3684613cae565b8084529360018116908115613da15750600114613d5d575b50613d5b92500383613d02565b565b90505f9291925260205f20905f915b818310613d85575050906020613d5b928201015f613d4e565b6020919350806001915483858901015201910190918492613d6c565b905060209250613d5b94915060ff191682840152151560051b8201015f613d4e565b6001600160a01b03918216815291811660208301529091166040820152606081019190915261010060808201819052929594909360e093919290916001600160401b0391613e1391870190613c8a565b961660a0850152151560c08401521515910152565b600b54811015610a9757600b5f5260205f2001905f90565b8054821015610a97575f5260205f2001905f90565b60206040818301928281528451809452019201905f5b818110613e785750505090565b8251845260209384019390920191600101613e6b565b9181601f840112156106a9578235916001600160401b0383116106a957602083818601950101116106a957565b60406003198201126106a9576004356001600160401b0381116106a95781613ee591600401613e8e565b92909291602435906001600160401b0382116106a957613f0791600401613e8e565b9091565b9060806003198301126106a9576004356001600160a01b03811681036106a957916024356001600160a01b03811681036106a9579160443591606435906001600160401b0382116106a957613f0791600401613e8e565b6001600160401b038111610a4a57601f01601f191660200190565b908160209103126106a957516001600160a01b03811681036106a95790565b929192613fa882613f62565b91613fb66040519384613d02565b8294818452818301116106a9578281602093845f960137010152565b818110613fdd575050565b5f8155600101613fd2565b9190601f8111613ff757505050565b613d5b925f5260205f20906020601f840160051c83019310614021575b601f0160051c0190613fd2565b9091508190614014565b908060209392818452848401375f828201840152601f01601f1916010190565b929061406490614072959360408652604086019161402b565b92602081850391015261402b565b90565b9190820180921161052157565b8181029291811591840414171561052157565b811561409f570490565b634e487b7160e01b5f52601260045260245ffd5b908160209103126106a9575161ffff811681036106a95790565b908160209103126106a9575180151581036106a95790565b6004546001600160a01b03169182156142e357604051630d47875d60e41b81526001600160a01b039092166004830181905290602083602481875afa92831561059c575f936142c2575b50604051632519fdb960e11b8152929384602085600481855afa91821561059c576004955f936142a0575b50602090604051968780926352a67c5d60e01b82525afa94851561059c575f95614277575b5061ffff8080921692168210159416101591602060018060a01b036003541691602460405180948193630709df4560e01b835260048301525afa90811561059c575f91614258575b506001600160a01b031680151591908280614244575b6141e45750565b600554604051631293efbb60e21b8152600481019290925291925090602090829060249082906001600160a01b03165afa90811561059c575f9161422757501590565b614240915060203d602011610613576106058183613d02565b1590565b506005546001600160a01b031615156141dd565b614271915060203d602011610595576105878183613d02565b5f6141c7565b61ffff80929650614297819260203d602011610663576106558183613d02565b9692505061417f565b60209193506142bb90823d8411610663576106558183613d02565b929061415a565b6142dc91935060203d602011610663576106558183613d02565b915f61412f565b6101f492505f91508190600190565b8054600160401b811015610a4a5761430f91600182018155613e40565b819291549060031b91821b915f19901b1916179055565b9190820391821161052157565b1561433a57565b606460405162461bcd60e51b81526020600482015260046024820152637a65726f60e01b6044820152fd5b1561436c57565b60405162461bcd60e51b81526020600482015260126024820152711d1bdad95b881b9bdd081858d8d95c1d195960721b6044820152606490fd5b156143ad57565b60405162461bcd60e51b81526020600482015260086024820152671b9bc81d985d5b1d60c21b6044820152606490fd5b929360019560a09561ffff94614413949a999a89808a1b031687526020870152604086015260c0606086015260c085019161402b565b951660808201520152565b94909261ffff9492614453949998979960018060a01b031687526020870152604086015260c0606086015260c085019161402b565b9416608082015260068210156134c25760a00152565b60405190614478604083613d02565b601082526f1b595c98da185b9d17dc185e5b595b9d60821b6020830152565b356001600160a01b03811681036106a95790565b6007546001600160a01b031633036144bf57565b6302bfc35f60e41b5f5260045ffd5b6006546001600160a01b0316806144e3575050565b803b156106a957604051633ddd61ab60e21b815230600482015260606024820152915f91839182908490829061451d906064830190613c8a565b33604483015203925af161452e5750565b5f613d5b91613d02565b6001600254036145485760028055565b60405162461bcd60e51b815260206004820152600a6024820152697265656e7472616e637960b01b6044820152606490fd5b3d156145a4573d9061458b82613f62565b916145996040519384613d02565b82523d5f602084013e565b606090565b6040516323b872dd60e01b602082019081526001600160a01b0393841660248301529390921660448301526064808301949094529281525f928392909183906145f3608482613d02565b51926001600160a01b03165af161460861457a565b8161465b575b501561461657565b60405162461bcd60e51b815260206004820152601e60248201527f5361666545524332303a207472616e7366657246726f6d206661696c656400006044820152606490fd5b8051801592508215614670575b50505f61460e565b61468392506020809183010191016140cd565b5f80614668565b6006546001600160a01b0316806146a2575b50505050565b803b156106a9575f92836146e5936146fd60405197889687958694630303c28760e61b865260018060a01b03166004860152608060248601526084850190613c8a565b90846044850152600319848303016064850152613c8a565b03925af161470e575b80808061469c565b5f61471891613d02565b5f614706565b60065490916001600160a01b03909116908161473c575b5050505050565b813b156106a9575f61477f93614796829660405198899788968795630303c28760e61b875260018060a01b03166004870152608060248701526084860190613c8a565b916044850152600319848303016064850152613c8a565b03925af16147a8575b80808080614735565b5f6147b291613d02565b5f61479f565b5f546001600160a01b031633036147cb57565b60405162461bcd60e51b815260206004820152600e60248201526d27aba71d103737ba1037bbb732b960911b6044820152606490fd5b6004546001600160a01b031680156148ee57604051630d47875d60e41b81526001600160a01b039092166004830152602082602481845afa91821561059c575f926148c9575b5060206004916040519283809263e710c92b60e01b82525afa90811561059c575f916148aa575b5061ffff8116156148985761ffff80915b1691161061488957565b634e151c2b60e11b5f5260045ffd5b5061ffff808060095460a01c1661487f565b6148c3915060203d602011610663576106558183613d02565b5f61486e565b60049192506148e6602091823d8411610663576106558183613d02565b929150614847565b5050565b335f52600a60205260ff60405f2054161561490957565b636551842160e11b5f5260045ffdfeec41e5f29be0c14cddfa2fa8d5810ac0830b81a5e2ce564cd6e890f380de9cc6a26469706673582212203bae22840051be7f07365f17557386c0898e1f2ed9e341695e9bb43c23c52d7c64736f6c634300081e0033","linkReferences":{}},"methodIdentifiers":{"acceptOwnership()":"79ba5097","acceptedTokens(address)":"82dc4a05","autoConvert(address)":"614b1800","calculateFee(uint256)":"99a5d747","cancelOwnershipTransfer()":"23452b9c","completeRefund(bytes32)":"1b705d94","dao()":"4162169f","deregisterMerchant()":"49d2cfdb","feeSink()":"4b38474d","getCustomerTrustScore(address)":"85f7e641","getMerchantCount()":"44d4aeb0","getMerchantInfo(address)":"0e733ef1","getMerchantRefundRate(address)":"3a69e272","getMerchantStats(address)":"b435dee1","getRefundStatus(bytes32)":"2522fc3b","getRefundsForCustomer(address)":"22b62ba0","getRefundsForMerchant(address)":"d8cda7f7","initiateRefund(address,address,uint256,string)":"97f735fd","isTokenAccepted(address)":"0560bd96","ledger()":"56397c35","merchantList(uint256)":"1b795d56","merchants(address)":"ee14e939","minMerchantScore()":"76fac575","minSwapOutputBps()":"4384c746","owner()":"8da5cb5b","pay(address,address,uint256,string)":"84a60232","payInPerson(address,address,uint256,string,uint8)":"311b3965","payInvoice(address,address,uint256,string)":"3a04259f","payOnline(address,address,uint256,string)":"e7327a7b","paySubscription(address,address,uint256,string)":"f809d824","pendingOwner()":"e30c3978","processPayment(address,address,uint256,string)":"bbe96b00","protocolFeeBps()":"35659fb8","refundRequests(bytes32)":"1a8ce5ed","registerMerchant(string,string)":"395603b6","reinstateMerchant(address)":"679e9e69","securityHub()":"b72d2943","seer()":"2d55ea39","setAcceptedToken(address,bool)":"c997dbca","setAutoConvert(bool)":"e314c304","setFeeSink(address)":"da62e064","setMinMerchantScore(uint16)":"ab3bd718","setMinSwapOutput(uint256)":"072d74c6","setModules(address,address,address,address)":"b079fbff","setPayoutAddress(address)":"33ea51a8","setProtocolFee(uint256)":"787dce3d","setSwapConfig(address,address)":"3e03c062","setSwapPath(address,address[])":"df6d21f0","stablecoin()":"e9cbd822","suspendMerchant(address,string)":"55e65c39","swapRouter()":"c31c9c07","tokenSwapPaths(address,uint256)":"464a0aee","transferOwnership(address)":"f2fde38b","updateMerchantInfo(string,string)":"4ad9816f","vaultHub()":"6dd6e80b"},"id":16}