{
  "_format": "hh-sol-artifact-1",
  "contractName": "StablecoinRegistryMock",
  "sourceName": "contracts/mocks/StablecoinRegistryMock.sol",
  "abi": [
    {
      "inputs": [
        {
          "internalType": "address",
          "name": "",
          "type": "address"
        }
      ],
      "name": "isWhitelisted",
      "outputs": [
        {
          "internalType": "bool",
          "name": "",
          "type": "bool"
        }
      ],
      "stateMutability": "view",
      "type": "function"
    },
    {
      "inputs": [
        {
          "internalType": "address",
          "name": "token",
          "type": "address"
        },
        {
          "internalType": "uint8",
          "name": "decimals",
          "type": "uint8"
        }
      ],
      "name": "setDecimals",
      "outputs": [],
      "stateMutability": "nonpayable",
      "type": "function"
    },
    {
      "inputs": [
        {
          "internalType": "address",
          "name": "newTreasury",
          "type": "address"
        }
      ],
      "name": "setTreasury",
      "outputs": [],
      "stateMutability": "nonpayable",
      "type": "function"
    },
    {
      "inputs": [
        {
          "internalType": "address",
          "name": "token",
          "type": "address"
        },
        {
          "internalType": "bool",
          "name": "status",
          "type": "bool"
        }
      ],
      "name": "setWhitelisted",
      "outputs": [],
      "stateMutability": "nonpayable",
      "type": "function"
    },
    {
      "inputs": [
        {
          "internalType": "address",
          "name": "",
          "type": "address"
        }
      ],
      "name": "tokenDecimals",
      "outputs": [
        {
          "internalType": "uint8",
          "name": "",
          "type": "uint8"
        }
      ],
      "stateMutability": "view",
      "type": "function"
    },
    {
      "inputs": [],
      "name": "treasury",
      "outputs": [
        {
          "internalType": "address",
          "name": "",
          "type": "address"
        }
      ],
      "stateMutability": "view",
      "type": "function"
    }
  ],
  "bytecode": "0x60808060405234601557610224908161001b8239f35b600080fdfe608080604052600436101561001357600080fd5b60003560e01c9081633af32abf1461019d5750806361d027b3146101745780638ee573ac146101375780639281aa0b146100e9578063f0f44260146100b25763f2259f961461006157600080fd5b346100ad5760403660031901126100ad5761007a6101d8565b6024359060ff82168092036100ad576001600160a01b03166000908152600160205260409020805460ff19169091179055005b600080fd5b346100ad5760203660031901126100ad576001600160a01b036100d36101d8565b1660018060a01b03196002541617600255600080f35b346100ad5760403660031901126100ad576101026101d8565b602435908115158092036100ad5760018060a01b0316600052600060205260406000209060ff80198354169116179055600080f35b346100ad5760203660031901126100ad576001600160a01b036101586101d8565b166000526001602052602060ff60406000205416604051908152f35b346100ad5760003660031901126100ad576002546040516001600160a01b039091168152602090f35b346100ad5760203660031901126100ad576020906001600160a01b036101c16101d8565b166000526000825260ff6040600020541615158152f35b600435906001600160a01b03821682036100ad5756fea2646970667358221220ebbfde2c936f9cad13cc1dcfec0a6d71be839d3ee5643321679acfbc81b477bc64736f6c634300081e0033",
  "linkReferences": {},
  "deployedLinkReferences": {}
}