{
  "_format": "hh-sol-artifact-1",
  "contractName": "DAOTimelockV2",
  "sourceName": "contracts/DAOTimelockV2.sol",
  "abi": [
    {
      "inputs": [
        {
          "internalType": "address",
          "name": "_dao",
          "type": "address"
        },
        {
          "internalType": "address",
          "name": "_ledger",
          "type": "address"
        }
      ],
      "stateMutability": "nonpayable",
      "type": "constructor"
    },
    {
      "inputs": [],
      "name": "TIMELOCK_Expired",
      "type": "error"
    },
    {
      "inputs": [],
      "name": "TIMELOCK_NotDAO",
      "type": "error"
    },
    {
      "inputs": [],
      "name": "TIMELOCK_NotQueued",
      "type": "error"
    },
    {
      "inputs": [],
      "name": "TIMELOCK_NotReady",
      "type": "error"
    },
    {
      "inputs": [],
      "name": "TIMELOCK_Zero",
      "type": "error"
    },
    {
      "anonymous": false,
      "inputs": [
        {
          "indexed": true,
          "internalType": "address",
          "name": "newDAO",
          "type": "address"
        }
      ],
      "name": "DAOSet",
      "type": "event"
    },
    {
      "anonymous": false,
      "inputs": [
        {
          "indexed": false,
          "internalType": "uint256",
          "name": "newDelay",
          "type": "uint256"
        }
      ],
      "name": "DelaySet",
      "type": "event"
    },
    {
      "anonymous": false,
      "inputs": [
        {
          "indexed": true,
          "internalType": "bytes32",
          "name": "txId",
          "type": "bytes32"
        }
      ],
      "name": "TransactionCancelled",
      "type": "event"
    },
    {
      "anonymous": false,
      "inputs": [
        {
          "indexed": true,
          "internalType": "bytes32",
          "name": "txId",
          "type": "bytes32"
        },
        {
          "indexed": true,
          "internalType": "address",
          "name": "target",
          "type": "address"
        },
        {
          "indexed": false,
          "internalType": "uint256",
          "name": "value",
          "type": "uint256"
        },
        {
          "indexed": false,
          "internalType": "bytes",
          "name": "data",
          "type": "bytes"
        }
      ],
      "name": "TransactionExecuted",
      "type": "event"
    },
    {
      "anonymous": false,
      "inputs": [
        {
          "indexed": true,
          "internalType": "bytes32",
          "name": "txId",
          "type": "bytes32"
        },
        {
          "indexed": true,
          "internalType": "address",
          "name": "target",
          "type": "address"
        },
        {
          "indexed": false,
          "internalType": "uint256",
          "name": "value",
          "type": "uint256"
        },
        {
          "indexed": false,
          "internalType": "bytes",
          "name": "data",
          "type": "bytes"
        },
        {
          "indexed": false,
          "internalType": "uint256",
          "name": "eta",
          "type": "uint256"
        }
      ],
      "name": "TransactionQueued",
      "type": "event"
    },
    {
      "inputs": [],
      "name": "GRACE_PERIOD",
      "outputs": [
        {
          "internalType": "uint256",
          "name": "",
          "type": "uint256"
        }
      ],
      "stateMutability": "view",
      "type": "function"
    },
    {
      "inputs": [
        {
          "internalType": "address",
          "name": "target",
          "type": "address"
        },
        {
          "internalType": "uint256",
          "name": "value",
          "type": "uint256"
        },
        {
          "internalType": "string",
          "name": "signature",
          "type": "string"
        },
        {
          "internalType": "bytes",
          "name": "data",
          "type": "bytes"
        },
        {
          "internalType": "uint256",
          "name": "txNonce",
          "type": "uint256"
        }
      ],
      "name": "cancelTransaction",
      "outputs": [],
      "stateMutability": "nonpayable",
      "type": "function"
    },
    {
      "inputs": [],
      "name": "dao",
      "outputs": [
        {
          "internalType": "address",
          "name": "",
          "type": "address"
        }
      ],
      "stateMutability": "view",
      "type": "function"
    },
    {
      "inputs": [],
      "name": "delay",
      "outputs": [
        {
          "internalType": "uint256",
          "name": "",
          "type": "uint256"
        }
      ],
      "stateMutability": "view",
      "type": "function"
    },
    {
      "inputs": [
        {
          "internalType": "bytes32",
          "name": "",
          "type": "bytes32"
        }
      ],
      "name": "eta",
      "outputs": [
        {
          "internalType": "uint256",
          "name": "",
          "type": "uint256"
        }
      ],
      "stateMutability": "view",
      "type": "function"
    },
    {
      "inputs": [
        {
          "internalType": "address",
          "name": "target",
          "type": "address"
        },
        {
          "internalType": "uint256",
          "name": "value",
          "type": "uint256"
        },
        {
          "internalType": "string",
          "name": "signature",
          "type": "string"
        },
        {
          "internalType": "bytes",
          "name": "data",
          "type": "bytes"
        },
        {
          "internalType": "uint256",
          "name": "txNonce",
          "type": "uint256"
        }
      ],
      "name": "executeTransaction",
      "outputs": [
        {
          "internalType": "bytes",
          "name": "",
          "type": "bytes"
        }
      ],
      "stateMutability": "payable",
      "type": "function"
    },
    {
      "inputs": [
        {
          "internalType": "address",
          "name": "target",
          "type": "address"
        },
        {
          "internalType": "uint256",
          "name": "value",
          "type": "uint256"
        },
        {
          "internalType": "string",
          "name": "signature",
          "type": "string"
        },
        {
          "internalType": "bytes",
          "name": "data",
          "type": "bytes"
        },
        {
          "internalType": "uint256",
          "name": "txNonce",
          "type": "uint256"
        }
      ],
      "name": "getEta",
      "outputs": [
        {
          "internalType": "uint256",
          "name": "",
          "type": "uint256"
        }
      ],
      "stateMutability": "view",
      "type": "function"
    },
    {
      "inputs": [
        {
          "internalType": "address",
          "name": "target",
          "type": "address"
        },
        {
          "internalType": "uint256",
          "name": "value",
          "type": "uint256"
        },
        {
          "internalType": "string",
          "name": "signature",
          "type": "string"
        },
        {
          "internalType": "bytes",
          "name": "data",
          "type": "bytes"
        },
        {
          "internalType": "uint256",
          "name": "txNonce",
          "type": "uint256"
        }
      ],
      "name": "isReady",
      "outputs": [
        {
          "internalType": "bool",
          "name": "",
          "type": "bool"
        }
      ],
      "stateMutability": "view",
      "type": "function"
    },
    {
      "inputs": [],
      "name": "ledger",
      "outputs": [
        {
          "internalType": "contract IProofLedger",
          "name": "",
          "type": "address"
        }
      ],
      "stateMutability": "view",
      "type": "function"
    },
    {
      "inputs": [],
      "name": "nonce",
      "outputs": [
        {
          "internalType": "uint256",
          "name": "",
          "type": "uint256"
        }
      ],
      "stateMutability": "view",
      "type": "function"
    },
    {
      "inputs": [
        {
          "internalType": "address",
          "name": "target",
          "type": "address"
        },
        {
          "internalType": "uint256",
          "name": "value",
          "type": "uint256"
        },
        {
          "internalType": "string",
          "name": "signature",
          "type": "string"
        },
        {
          "internalType": "bytes",
          "name": "data",
          "type": "bytes"
        }
      ],
      "name": "queueTransaction",
      "outputs": [
        {
          "internalType": "bytes32",
          "name": "",
          "type": "bytes32"
        },
        {
          "internalType": "uint256",
          "name": "",
          "type": "uint256"
        }
      ],
      "stateMutability": "nonpayable",
      "type": "function"
    },
    {
      "inputs": [
        {
          "internalType": "bytes32",
          "name": "",
          "type": "bytes32"
        }
      ],
      "name": "queuedTx",
      "outputs": [
        {
          "internalType": "bool",
          "name": "",
          "type": "bool"
        }
      ],
      "stateMutability": "view",
      "type": "function"
    },
    {
      "inputs": [
        {
          "internalType": "address",
          "name": "_dao",
          "type": "address"
        }
      ],
      "name": "setDAO",
      "outputs": [],
      "stateMutability": "nonpayable",
      "type": "function"
    },
    {
      "inputs": [
        {
          "internalType": "uint256",
          "name": "_delay",
          "type": "uint256"
        }
      ],
      "name": "setDelay",
      "outputs": [],
      "stateMutability": "nonpayable",
      "type": "function"
    },
    {
      "inputs": [
        {
          "internalType": "address",
          "name": "_ledger",
          "type": "address"
        }
      ],
      "name": "setLedger",
      "outputs": [],
      "stateMutability": "nonpayable",
      "type": "function"
    }
  ],
  "bytecode": "0x60803460a957601f610d5b38819003918201601f19168301916001600160401b0383118484101760ae57808492604094855283398101031260a957604b602060458360c4565b920160c4565b6202a300600255906001600160a01b0316801560985760018060a01b0319600054161760005560018060a01b031660018060a01b03196001541617600155604051610c8390816100d88239f35b63600ba19b60e01b60005260046000fd5b600080fd5b634e487b7160e01b600052604160045260246000fd5b51906001600160a01b038216820360a95756fe6080604052600436101561001257600080fd5b6000803560e01c80630825f38f146106e3578063088775a3146106b95780633246887d146106745780633275cf4d146104f15780634162169f146104ca57806356397c35146104a1578063591fcdfe1461034e5780636a42b8f814610330578063a96d5f9b146102d9578063affed0e0146102bb578063c1a287e21461029d578063d681960f1461026e578063e177246e14610193578063e73a914c146100e95763ea1cc666146100c257600080fd5b346100e65760206100de6100d536610974565b93929092610a25565b604051908152f35b80fd5b50346100e65760203660031901126100e6576101036108c2565b61010b610a60565b6001600160a01b031680156101845781546001600160a01b031916811782557f8aad84fcad50e723fa3bcf0fb32c5bea4c71078b77b9aedfa638f146f3a3f7b98280a261018160405161015f6040826108dd565b601081526f1d1a5b595b1bd8dad7d9185bd7dcd95d60821b6020820152610bd6565b80f35b63600ba19b60e01b8252600482fd5b50346100e65760203660031901126100e6576004356101b0610a60565b6201518081101580610261575b15610226576020817f63e09f16584208fba1fc7ff64c62b00f07bec177c0d97ca6689891b1e77a35c792600255604051908152a16101816040516102026040826108dd565b60128152711d1a5b595b1bd8dad7d9195b185e57dcd95d60721b6020820152610bd6565b60405162461bcd60e51b815260206004820152601360248201527264656c6179206f7574206f6620626f756e647360681b6044820152606490fd5b5062278d008111156101bd565b50346100e65760203660031901126100e65760ff60406020926004358152600384522054166040519015158152f35b50346100e657806003193601126100e657602060405162093a808152f35b50346100e657806003193601126100e6576020600554604051908152f35b50346100e6576020906102f76102ee36610974565b93929092610a85565b908181526003835260ff604082205416918261031a575b50506040519015158152f35b604092508152600483522054421015388061030e565b50346100e657806003193601126100e6576020600254604051908152f35b50346100e65761037261036036610974565b9180959361036c610a60565b85610a85565b808452600360205260ff604085205416156104925790818492835260036020526040832060ff19815416905580835260046020528260408120557f0891e6c675e964cf1e5982f60fda276ad06301a9221b2f1d7bf2b2a42fbd69a18380a2604051906103df6040836108dd565b60128252711d1a5b595b1bd8dad7d8d85b98d95b1b195960721b60208301526001546001600160a01b031680610413578380f35b803b1561048e578392836104569361046e60405198899687958694630303c28760e61b865260018060a01b03166004860152608060248601526084850190610a00565b90846044850152600319848303016064850152610a00565b03925af161047e575b8180808380f35b610487916108dd565b3881610477565b8380fd5b630d4d7b4d60e01b8452600484fd5b50346100e657806003193601126100e6576001546040516001600160a01b039091168152602090f35b50346100e657806003193601126100e657546040516001600160a01b039091168152602090f35b50346100e65760803660031901126100e65761050b6108c2565b602435906044356001600160401b03811161048e5761052e90369060040161092f565b6064356001600160401b0381116106705761054d90369060040161092f565b610555610a60565b60055492600019841461065c57600184016005556105768483858885610a85565b94600254420192834211610648579661063c94939291877f4efebf40a8244d219085e74f928a18e8c9d17adc6b39270b8706cca0a92b648d6105f66105e060409c84875260036020528d8720600160ff198254161790558487526004602052888e88205589610ae8565b8c51948552606060208601526060850190610a00565b8b84018790526001600160a01b038616939081900390a35086519061061b88836108dd565b600f82526e1d1a5b595b1bd8dad7dc5d595d5959608a1b6020830152610b31565b82519182526020820152f35b634e487b7160e01b88526011600452602488fd5b634e487b7160e01b86526011600452602486fd5b8480fd5b50346100e65760203660031901126100e65761068e6108c2565b610696610a60565b600180546001600160a01b0319166001600160a01b039290921691909117905580f35b50346100e65760203660031901126100e65760406020916004358152600483522054604051908152f35b610708826106f036610974565b6106ff96919496939293610a60565b84848489610a85565b92838552600360205260ff604086205416156108b3578385526004602052604085205442106108a4578385526004602052604085205462093a80810180911161065c5742116108955761077d9084865260036020526040862060ff198154169055848652600460205285604081205583610ae8565b94848087516020890185855af1943d1561088d573d9561079c87610914565b966107aa60405198896108dd565b87523d82602089013e5b15610855576108519661083d957f8b7b712167f6dc65bddd7d9a42eec3ed7de70db3ffda6e8fbb166195a0fa10cb604051868152604060208201528061080760018060a01b038816956040830190610a00565b0390a3506040519061081a6040836108dd565b60118252701d1a5b595b1bd8dad7d95e1958dd5d1959607a1b6020830152610b31565b604051918291602083526020830190610a00565b0390f35b60405162461bcd60e51b815260206004820152601060248201526f195e1958dd5d1a5bdb8819985a5b195960821b6044820152606490fd5b6060956107b4565b6304e905c960e41b8552600485fd5b6306929d8760e01b8552600485fd5b630d4d7b4d60e01b8552600485fd5b600435906001600160a01b03821682036108d857565b600080fd5b90601f801991011681019081106001600160401b038211176108fe57604052565b634e487b7160e01b600052604160045260246000fd5b6001600160401b0381116108fe57601f01601f191660200190565b81601f820112156108d85760208135910161094982610914565b9261095760405194856108dd565b828452828201116108d85781600092602092838601378301015290565b9060a06003198301126108d8576004356001600160a01b03811681036108d85791602435916044356001600160401b0381116108d857826109b79160040161092f565b91606435906001600160401b0382116108d8576109d69160040161092f565b9060843590565b60005b8381106109f05750506000910152565b81810151838201526020016109e0565b90602091610a19815180928185528580860191016109dd565b601f01601f1916010190565b90610a3294939291610a85565b80600052600360205260ff6040600020541615610a5a57600052600460205260406000205490565b50600090565b6000546001600160a01b03163303610a7457565b63178d635760e31b60005260046000fd5b93610ace610ae29394610abc604051968795602087019960018060a01b03168a52604087015260a0606087015260c0860190610a00565b848103601f1901608086015290610a00565b9060a083015203601f1981018352826108dd565b51902090565b6024610b2e9163ffffffff60e01b9060208151910120166040519384916020830152610b1d81518092602086860191016109dd565b81010301601f1981018352826108dd565b90565b600154600094936001600160a01b0390911692919083610b54575b505050505050565b833b15610bd2579185809492610bb0610b999560405198899788968795630303c28760e61b875260018060a01b03166004870152608060248701526084860190610a00565b916044850152600319848303016064850152610a00565b03925af1610bc2575b80808080610b4c565b81610bcc916108dd565b38610bb9565b8580fd5b6001546000916001600160a01b039091169081610bf257505050565b813b15610c4957610c2a83928392604051948580948193633ddd61ab60e21b8352306004840152606060248401526064830190610a00565b33604483015203925af1610c3c575050565b81610c46916108dd565b50565b8280fdfea2646970667358221220eb672c97d7e4948f2c74ec8fe0b9c82e1c7e96933ea41d68bfdd0d19233a18e364736f6c634300081e0033",
  "linkReferences": {},
  "deployedLinkReferences": {}
}