{"abi":[{"type":"constructor","inputs":[{"name":"_stable","type":"address","internalType":"address"}],"stateMutability":"nonpayable"},{"type":"function","name":"stablecoin","inputs":[],"outputs":[{"name":"","type":"address","internalType":"address"}],"stateMutability":"view"},{"type":"function","name":"swapExactTokensForTokens","inputs":[{"name":"amountIn","type":"uint256","internalType":"uint256"},{"name":"amountOutMin","type":"uint256","internalType":"uint256"},{"name":"path","type":"address[]","internalType":"address[]"},{"name":"to","type":"address","internalType":"address"},{"name":"deadline","type":"uint256","internalType":"uint256"}],"outputs":[{"name":"amounts","type":"uint256[]","internalType":"uint256[]"}],"stateMutability":"nonpayable"}],"bytecode":{"object":"0x608034606f57601f61038c38819003918201601f19168301916001600160401b03831184841017607357808492602094604052833981010312606f57516001600160a01b03811690819003606f575f80546001600160a01b03191691909117905560405161030490816100888239f35b5f80fd5b634e487b7160e01b5f52604160045260245ffdfe6080806040526004361015610012575f80fd5b5f3560e01c90816338ed17391461005d575063e9cbd82214610032575f80fd5b34610059575f366003190112610059575f546040516001600160a01b039091168152602090f35b5f80fd5b346100595760a036600319011261005957600435906044359067ffffffffffffffff821161005957366023830112156100595781600401359067ffffffffffffffff8211610059573660248360051b85010111610059576064356001600160a01b03811691908290036100595782156101ef576020816064815f6001600160a01b036100eb60248b0161026c565b6323b872dd60e01b8452336004850152306024850152604484018c9052165af180156102305761024f575b505f1982019180831161023b578210156101ef57604460245f9460209460051b010161014860018060a01b039161026c565b1691604051948593849263a9059cbb60e01b845260048401528760248401525af1801561023057610203575b5060405190610184606083610280565b60028252602082019060403683378251156101ef578082528251600110156101ef5760408392930152604051918291602083019060208452518091526040830191905f5b8181106101d6575050500390f35b82518452859450602093840193909201916001016101c8565b634e487b7160e01b5f52603260045260245ffd5b6102249060203d602011610229575b61021c8183610280565b8101906102b6565b610174565b503d610212565b6040513d5f823e3d90fd5b634e487b7160e01b5f52601160045260245ffd5b6102679060203d6020116102295761021c8183610280565b610116565b356001600160a01b03811681036100595790565b90601f8019910116810190811067ffffffffffffffff8211176102a257604052565b634e487b7160e01b5f52604160045260245ffd5b9081602091031261005957518015158103610059579056fea2646970667358221220922230313597b4e168123b351e3230000568617522969fcb38463dc19285693964736f6c634300081e0033","linkReferences":{}},"methodIdentifiers":{"stablecoin()":"e9cbd822","swapExactTokensForTokens(uint256,uint256,address[],address,uint256)":"38ed1739"},"id":79}