{"abi":[{"type":"constructor","inputs":[{"name":"_dao","type":"address","internalType":"address"},{"name":"_ledger","type":"address","internalType":"address"}],"stateMutability":"nonpayable"},{"type":"receive","stateMutability":"payable"},{"type":"function","name":"EMERGENCY_TIMELOCK","inputs":[],"outputs":[{"name":"","type":"uint256","internalType":"uint256"}],"stateMutability":"view"},{"type":"function","name":"acceptOwnership","inputs":[],"outputs":[],"stateMutability":"nonpayable"},{"type":"function","name":"addApprover","inputs":[{"name":"_approver","type":"address","internalType":"address"}],"outputs":[],"stateMutability":"nonpayable"},{"type":"function","name":"approvalsRequired","inputs":[],"outputs":[{"name":"","type":"uint8","internalType":"uint8"}],"stateMutability":"view"},{"type":"function","name":"approveCharity","inputs":[{"name":"charity","type":"address","internalType":"address"},{"name":"name","type":"string","internalType":"string"},{"name":"category","type":"string","internalType":"string"}],"outputs":[],"stateMutability":"nonpayable"},{"type":"function","name":"approveDisbursement","inputs":[{"name":"proposalId","type":"uint256","internalType":"uint256"}],"outputs":[],"stateMutability":"nonpayable"},{"type":"function","name":"approverIndex","inputs":[{"name":"","type":"address","internalType":"address"}],"outputs":[{"name":"","type":"uint256","internalType":"uint256"}],"stateMutability":"view"},{"type":"function","name":"approvers","inputs":[{"name":"","type":"uint256","internalType":"uint256"}],"outputs":[{"name":"","type":"address","internalType":"address"}],"stateMutability":"view"},{"type":"function","name":"cancelEmergencyRecovery","inputs":[{"name":"id","type":"uint256","internalType":"uint256"},{"name":"reason","type":"string","internalType":"string"}],"outputs":[],"stateMutability":"nonpayable"},{"type":"function","name":"cancelOwnershipTransfer","inputs":[],"outputs":[],"stateMutability":"nonpayable"},{"type":"function","name":"charities","inputs":[{"name":"","type":"address","internalType":"address"}],"outputs":[{"name":"approved","type":"bool","internalType":"bool"},{"name":"name","type":"string","internalType":"string"},{"name":"category","type":"string","internalType":"string"},{"name":"approvedAt","type":"uint64","internalType":"uint64"}],"stateMutability":"view"},{"type":"function","name":"charityList","inputs":[{"name":"","type":"uint256","internalType":"uint256"}],"outputs":[{"name":"","type":"address","internalType":"address"}],"stateMutability":"view"},{"type":"function","name":"dao","inputs":[],"outputs":[{"name":"","type":"address","internalType":"address"}],"stateMutability":"view"},{"type":"function","name":"deposit","inputs":[{"name":"token","type":"address","internalType":"address"},{"name":"amount","type":"uint256","internalType":"uint256"},{"name":"note","type":"string","internalType":"string"}],"outputs":[],"stateMutability":"nonpayable"},{"type":"function","name":"disbursementCount","inputs":[],"outputs":[{"name":"","type":"uint256","internalType":"uint256"}],"stateMutability":"view"},{"type":"function","name":"disbursements","inputs":[{"name":"","type":"uint256","internalType":"uint256"}],"outputs":[{"name":"charity","type":"address","internalType":"address"},{"name":"token","type":"address","internalType":"address"},{"name":"amount","type":"uint256","internalType":"uint256"},{"name":"campaign","type":"string","internalType":"string"},{"name":"documentation","type":"string","internalType":"string"},{"name":"proposedAt","type":"uint64","internalType":"uint64"},{"name":"executedAt","type":"uint64","internalType":"uint64"},{"name":"executed","type":"bool","internalType":"bool"},{"name":"rejected","type":"bool","internalType":"bool"},{"name":"approvalCount","type":"uint8","internalType":"uint8"}],"stateMutability":"view"},{"type":"function","name":"emergencyRecoveries","inputs":[{"name":"","type":"uint256","internalType":"uint256"}],"outputs":[{"name":"token","type":"address","internalType":"address"},{"name":"to","type":"address","internalType":"address"},{"name":"amount","type":"uint256","internalType":"uint256"},{"name":"reason","type":"string","internalType":"string"},{"name":"requestedAt","type":"uint256","internalType":"uint256"},{"name":"executed","type":"bool","internalType":"bool"},{"name":"cancelled","type":"bool","internalType":"bool"}],"stateMutability":"view"},{"type":"function","name":"emergencyRecoveryCount","inputs":[],"outputs":[{"name":"","type":"uint256","internalType":"uint256"}],"stateMutability":"view"},{"type":"function","name":"executeDisbursement","inputs":[{"name":"proposalId","type":"uint256","internalType":"uint256"}],"outputs":[],"stateMutability":"nonpayable"},{"type":"function","name":"executeEmergencyRecovery","inputs":[{"name":"id","type":"uint256","internalType":"uint256"}],"outputs":[],"stateMutability":"nonpayable"},{"type":"function","name":"getApproverCount","inputs":[],"outputs":[{"name":"","type":"uint256","internalType":"uint256"}],"stateMutability":"view"},{"type":"function","name":"getBalance","inputs":[{"name":"token","type":"address","internalType":"address"}],"outputs":[{"name":"","type":"uint256","internalType":"uint256"}],"stateMutability":"view"},{"type":"function","name":"getCharityCount","inputs":[],"outputs":[{"name":"","type":"uint256","internalType":"uint256"}],"stateMutability":"view"},{"type":"function","name":"getCharityInfo","inputs":[{"name":"charity","type":"address","internalType":"address"}],"outputs":[{"name":"approved","type":"bool","internalType":"bool"},{"name":"name","type":"string","internalType":"string"},{"name":"category","type":"string","internalType":"string"},{"name":"approvedAt","type":"uint64","internalType":"uint64"}],"stateMutability":"view"},{"type":"function","name":"getDisbursement","inputs":[{"name":"proposalId","type":"uint256","internalType":"uint256"}],"outputs":[{"name":"charity","type":"address","internalType":"address"},{"name":"token","type":"address","internalType":"address"},{"name":"amount","type":"uint256","internalType":"uint256"},{"name":"campaign","type":"string","internalType":"string"},{"name":"documentation","type":"string","internalType":"string"},{"name":"proposedAt","type":"uint64","internalType":"uint64"},{"name":"executedAt","type":"uint64","internalType":"uint64"},{"name":"executed","type":"bool","internalType":"bool"},{"name":"rejected","type":"bool","internalType":"bool"},{"name":"approvalCount_","type":"uint8","internalType":"uint8"}],"stateMutability":"view"},{"type":"function","name":"hasApproved","inputs":[{"name":"proposalId","type":"uint256","internalType":"uint256"},{"name":"approver","type":"address","internalType":"address"}],"outputs":[{"name":"","type":"bool","internalType":"bool"}],"stateMutability":"view"},{"type":"function","name":"isApprover","inputs":[{"name":"","type":"address","internalType":"address"}],"outputs":[{"name":"","type":"bool","internalType":"bool"}],"stateMutability":"view"},{"type":"function","name":"ledger","inputs":[],"outputs":[{"name":"","type":"address","internalType":"contract IProofLedger"}],"stateMutability":"view"},{"type":"function","name":"owner","inputs":[],"outputs":[{"name":"","type":"address","internalType":"address"}],"stateMutability":"view"},{"type":"function","name":"pendingOwner","inputs":[],"outputs":[{"name":"","type":"address","internalType":"address"}],"stateMutability":"view"},{"type":"function","name":"proposeDisbursement","inputs":[{"name":"charity","type":"address","internalType":"address"},{"name":"token","type":"address","internalType":"address"},{"name":"amount","type":"uint256","internalType":"uint256"},{"name":"campaign","type":"string","internalType":"string"},{"name":"documentation","type":"string","internalType":"string"}],"outputs":[{"name":"proposalId","type":"uint256","internalType":"uint256"}],"stateMutability":"nonpayable"},{"type":"function","name":"rejectDisbursement","inputs":[{"name":"proposalId","type":"uint256","internalType":"uint256"},{"name":"reason","type":"string","internalType":"string"}],"outputs":[],"stateMutability":"nonpayable"},{"type":"function","name":"removeApprover","inputs":[{"name":"_approver","type":"address","internalType":"address"}],"outputs":[],"stateMutability":"nonpayable"},{"type":"function","name":"removeCharity","inputs":[{"name":"charity","type":"address","internalType":"address"},{"name":"reason","type":"string","internalType":"string"}],"outputs":[],"stateMutability":"nonpayable"},{"type":"function","name":"requestEmergencyRecovery","inputs":[{"name":"token","type":"address","internalType":"address"},{"name":"to","type":"address","internalType":"address"},{"name":"amount","type":"uint256","internalType":"uint256"},{"name":"reason","type":"string","internalType":"string"}],"outputs":[{"name":"id","type":"uint256","internalType":"uint256"}],"stateMutability":"nonpayable"},{"type":"function","name":"setApprovalsRequired","inputs":[{"name":"_required","type":"uint8","internalType":"uint8"}],"outputs":[],"stateMutability":"nonpayable"},{"type":"function","name":"setDAO","inputs":[{"name":"_dao","type":"address","internalType":"address"}],"outputs":[],"stateMutability":"nonpayable"},{"type":"function","name":"setLedger","inputs":[{"name":"_ledger","type":"address","internalType":"address"}],"outputs":[],"stateMutability":"nonpayable"},{"type":"function","name":"transferOwnership","inputs":[{"name":"newOwner","type":"address","internalType":"address"}],"outputs":[],"stateMutability":"nonpayable"},{"type":"event","name":"ApprovalsRequiredSet","inputs":[{"name":"required","type":"uint8","indexed":false,"internalType":"uint8"}],"anonymous":false},{"type":"event","name":"CharityApproved","inputs":[{"name":"charity","type":"address","indexed":true,"internalType":"address"},{"name":"name","type":"string","indexed":false,"internalType":"string"},{"name":"category","type":"string","indexed":false,"internalType":"string"}],"anonymous":false},{"type":"event","name":"CharityRemoved","inputs":[{"name":"charity","type":"address","indexed":true,"internalType":"address"},{"name":"reason","type":"string","indexed":false,"internalType":"string"}],"anonymous":false},{"type":"event","name":"DAOSet","inputs":[{"name":"dao","type":"address","indexed":false,"internalType":"address"}],"anonymous":false},{"type":"event","name":"Deposit","inputs":[{"name":"from","type":"address","indexed":true,"internalType":"address"},{"name":"token","type":"address","indexed":true,"internalType":"address"},{"name":"amount","type":"uint256","indexed":false,"internalType":"uint256"},{"name":"note","type":"string","indexed":false,"internalType":"string"}],"anonymous":false},{"type":"event","name":"DisbursementApproved","inputs":[{"name":"proposalId","type":"uint256","indexed":true,"internalType":"uint256"},{"name":"approver","type":"address","indexed":true,"internalType":"address"}],"anonymous":false},{"type":"event","name":"DisbursementExecuted","inputs":[{"name":"proposalId","type":"uint256","indexed":true,"internalType":"uint256"},{"name":"charity","type":"address","indexed":true,"internalType":"address"},{"name":"token","type":"address","indexed":false,"internalType":"address"},{"name":"amount","type":"uint256","indexed":false,"internalType":"uint256"}],"anonymous":false},{"type":"event","name":"DisbursementProposed","inputs":[{"name":"proposalId","type":"uint256","indexed":true,"internalType":"uint256"},{"name":"charity","type":"address","indexed":true,"internalType":"address"},{"name":"token","type":"address","indexed":false,"internalType":"address"},{"name":"amount","type":"uint256","indexed":false,"internalType":"uint256"},{"name":"campaign","type":"string","indexed":false,"internalType":"string"}],"anonymous":false},{"type":"event","name":"DisbursementRejected","inputs":[{"name":"proposalId","type":"uint256","indexed":true,"internalType":"uint256"},{"name":"reason","type":"string","indexed":false,"internalType":"string"}],"anonymous":false},{"type":"event","name":"EmergencyRecoveryCancelled","inputs":[{"name":"id","type":"uint256","indexed":true,"internalType":"uint256"},{"name":"reason","type":"string","indexed":false,"internalType":"string"}],"anonymous":false},{"type":"event","name":"EmergencyRecoveryExecuted","inputs":[{"name":"id","type":"uint256","indexed":true,"internalType":"uint256"},{"name":"token","type":"address","indexed":false,"internalType":"address"},{"name":"to","type":"address","indexed":false,"internalType":"address"},{"name":"amount","type":"uint256","indexed":false,"internalType":"uint256"}],"anonymous":false},{"type":"event","name":"EmergencyRecoveryRequested","inputs":[{"name":"id","type":"uint256","indexed":true,"internalType":"uint256"},{"name":"token","type":"address","indexed":false,"internalType":"address"},{"name":"to","type":"address","indexed":false,"internalType":"address"},{"name":"amount","type":"uint256","indexed":false,"internalType":"uint256"},{"name":"reason","type":"string","indexed":false,"internalType":"string"}],"anonymous":false},{"type":"event","name":"LedgerSet","inputs":[{"name":"ledger","type":"address","indexed":false,"internalType":"address"}],"anonymous":false},{"type":"event","name":"OwnershipTransferStarted","inputs":[{"name":"previousOwner","type":"address","indexed":true,"internalType":"address"},{"name":"newOwner","type":"address","indexed":true,"internalType":"address"}],"anonymous":false},{"type":"event","name":"OwnershipTransferred","inputs":[{"name":"previousOwner","type":"address","indexed":true,"internalType":"address"},{"name":"newOwner","type":"address","indexed":true,"internalType":"address"}],"anonymous":false},{"type":"error","name":"SANCT_AlreadyApproved","inputs":[]},{"type":"error","name":"SANCT_InsufficientBalance","inputs":[]},{"type":"error","name":"SANCT_NotApproved","inputs":[]},{"type":"error","name":"SANCT_NotDAO","inputs":[]},{"type":"error","name":"SANCT_Zero","inputs":[]}],"bytecode":{"object":"0x60803461022657601f612e5938819003918201601f19168301916001600160401b038311848410176101e557808492604094855283398101031261022657610052602061004b8361022a565b920161022a565b5f80546001600160a01b03191633908117825560405193917f8be0079c531659141344cd1fd0a4f28419497f9722a3daafe3b4186f6b6457e08180a3600160028190556009805460ff191690911790556001600160a01b03169182156101f95750600380546001600160a01b03199081168417909155600480549091166001600160a01b039290921691821790555f828152600a60209081526040808320805460ff19166001179055600b909152812055600c54909190680100000000000000008110156101e5576001810180600c558110156101d157600c5f527fdf6966c971051c3d54ec59162606531493a51404a002842f56009d7e5cf4a8c70180546001600160a01b031916821790556040519081527f8aad84fcad50e723fa3bcf0fb32c5bea4c71078b77b9aedfa638f146f3a3f7b990602090a1806101a0575b604051612c1a908161023f8239f35b60207fbc62e69a31739e36d57d56991ac20e4e507a7edfff9070e6a11df5a37b8b4e6f91604051908152a15f610191565b634e487b7160e01b5f52603260045260245ffd5b634e487b7160e01b5f52604160045260245ffd5b62461bcd60e51b81526020600482015260086024820152677a65726f2064616f60c01b6044820152606490fd5b5f80fd5b51906001600160a01b03821682036102265756fe60808060405260043610156100bc575b50361561001a575f80fd5b5f60405134815260406020820152600e60408201526d1b985d1a5d9957d9195c1bdcda5d60921b60608201527fef519b7eb82aaf6ac376a6df2d793843ebfd593de5f1a0601d3cc6ab49ebb39560803392a36100ba60405161007d604082612456565b60168152751cd85b98dd1d5b57db985d1a5d9957d9195c1bdcda5d60521b6020820152604051906100af602083612456565b5f82523490336129ec565b005b5f3560e01c9081630440087314612391575080630f3d44ac1461206157806315e7db621461204457806323452b9c1461201a5780632358d5a814611fce5780632478239a14611f6557806327d2fb8914611eed5780633246887d14611e4e578063372a110114611a085780634162169f146119e057806342010dbe146118c15780634e29cba61461182d57806356397c35146118055780635ab5424c1461176b57806360d7442b1461174e5780636cf4c88f1461160b5780636d218e48146115ce5780637185a44b146115b157806379ba50971461150a5780637a1b2f78146114ed57806383721eb214611429578063861011b8146111fb5780638da5cb5b146111d45780639475f7c3146111b75780639d66e6ec14611150578063a40826631461106b578063b646c19414610f64578063be5c085114610db6578063bfe07da614610bc0578063c033e6f414610a63578063d3650fb814610a21578063d683369314610989578063e30c397814610961578063e73a914c146108b1578063e9633456146107b0578063ea1d59c914610790578063f2fde38b146106ea578063f8b2cb4f146106555763feca952a14610275575f61000f565b346106515760603660031901126106515761028e6123c5565b6024356001600160401b038111610651576102ad9036906004016123f1565b6044929192356001600160401b038111610651576102cf9036906004016123f1565b91906102d961284e565b6001600160a01b0384166102ee81151561281c565b805f52600560205260ff60405f20541661061957604051608081018181106001600160401b03821117610528576040526001815261032d368589612685565b6020820190815261033f368786612685565b6040830190815260608301916001600160401b0342168352845f52600560205261037c60405f2094511515859060ff801983541691151516179055565b51805160018501916001600160401b038211610528576103a6826103a0855461241e565b856126bb565b602090601f83116001146105b6576103d592915f918361053c575b50508160011b915f199060031b1c19161790565b90555b51805160028401916001600160401b038211610528576103fc826103a0855461241e565b602090601f83116001146105475792610439836001600160401b0396939487956003975f9261053c5750508160011b915f199060031b1c19161790565b90555b5116920191166001600160401b0319825416179055600654600160401b811015610528576100ba96610522946104c38861049f8560017fe02d4a42c9ece24ea030c14aa78a61c63f93e4084f5b43ec25ea991e46c9aa6e97016006556006612594565b81546001600160a01b0393841660039290921b91821b9390911b1916919091179055565b6104ec6104dd60405193849360408552604085019161270a565b8281036020840152888761270a565b0390a2604051926104fe604085612456565b601084526f18da185c9a5d1e57d85c1c1c9bdd995960821b60208501523691612685565b91612958565b634e487b7160e01b5f52604160045260245ffd5b015190505f806103c1565b90601f19831691845f52815f20925f5b81811061059e5750936001600160401b03969360039693600193838a9810610587575b505050811b01905561043c565b01515f1983891b60f8161c191690555f808061057a565b92936020600181928786015181550195019301610557565b90601f19831691845f52815f20925f5b81811061060157509084600195949392106105e9575b505050811b0190556103d8565b01515f1960f88460031b161c191690555f80806105dc565b929360206001819287860151815501950193016105c6565b60405162461bcd60e51b815260206004820152601060248201526f185b1c9958591e48185c1c1c9bdd995960821b6044820152606490fd5b5f80fd5b3461065157602036600319011261065157602460206001600160a01b0361067a6123c5565b16604051928380926370a0823160e01b82523060048301525afa80156106df575f906106ac575b602090604051908152f35b506020813d6020116106d7575b816106c660209383612456565b8101031261065157602090516106a1565b3d91506106b9565b6040513d5f823e3d90fd5b34610651576020366003190112610651576107036123c5565b61070b612871565b6001600160a01b0316801561075f57600180546001600160a01b031916821790555f80546001600160a01b0316907f38d16b8cac22d99fc7c124b9cd0de2d3fa1faef420bfe791d8c362d765e227009080a3005b60405162461bcd60e51b81526020600482015260096024820152684f574e3a207a65726f60b81b6044820152606490fd5b34610651575f36600319011261065157602060ff60095416604051908152f35b34610651576100ba6107c136612629565b6107cc92919261284e565b815f52600860205261089c60405f206005810180546107f56001600160401b03821615156127a4565b60ff8160801c1615806108a2575b61080c906127dc565b60ff60881b1916600160881b179055604051602080825285917f54f96698213949a6430d7f46e2a9dd224a66e710b194c016f66992cf997e89fc918190610856908201888b61270a565b0390a260018060a01b039054169360405192610873604085612456565b6015845274191a5cd89d5c9cd95b595b9d17dc995a9958dd1959605a1b60208501523691612685565b926129ec565b50608881901c60ff1615610803565b34610651576020366003190112610651576108ca6123c5565b6108d261284e565b6001600160a01b03168015610952576020817f8aad84fcad50e723fa3bcf0fb32c5bea4c71078b77b9aedfa638f146f3a3f7b9926001600160601b0360a01b6003541617600355604051908152a16100ba604051610931604082612456565b600f81526e1cd85b98dd1d5b57d9185bd7dcd95d608a1b60208201526128ba565b63230172b760e01b5f5260045ffd5b34610651575f366003190112610651576001546040516001600160a01b039091168152602090f35b34610651576020366003190112610651576004355f52600860205260405f2060018060a01b0381541690610a1d60018060a01b03600183015416600283015460058401549160ff600786015416926109ef60046109e860038901612477565b9701612477565b9660405197889760ff8460881c169560ff8560801c16956001600160401b03808760401c169616948b6125a9565b0390f35b3461065157602036600319011261065157600435600c5481101561065157610a4a60209161257c565b905460405160039290921b1c6001600160a01b03168152f35b3461065157602036600319011261065157600435610a7f612924565b805f52600860205260405f20610abc6005820154610aa76001600160401b03821615156127a4565b60ff8160801c16159081610bb1575b506127dc565b600681019060018060a01b0333165f528160205260ff60405f205416610ba25760079160018060a01b0333165f5260205260405f20600160ff19825416179055019060ff8254169160ff8314610b8e5760ff60016100ba94011660ff1982541617905533817fa99724dbdd942f7cdad7ca17298779db08f5483d0dcac7a7795e415a0c99d9aa5f80a360405190610b54604083612456565b6015825274191a5cd89d5c9cd95b595b9d17d85c1c1c9bdd985b605a1b602083015260405191610b85602084612456565b5f8352336129ec565b634e487b7160e01b5f52601160045260245ffd5b639dbc1c1560e01b5f5260045ffd5b60ff915060881c161584610ab6565b3461065157606036600319011261065157610bd96123c5565b6024356044356001600160401b03811161065157610bfb9036906004016123f1565b919092610c06612a86565b6001600160a01b031680151580610dad575b15610d76576040516323b872dd60e01b60208201908152336024830152306044830152606482018490525f91829190610c5e81608481015b03601f198101835282612456565b519082855af1610c6c612ac8565b81610d47575b5015610d0257610cfb93610cf491604051848152604060208201527fef519b7eb82aaf6ac376a6df2d793843ebfd593de5f1a0601d3cc6ab49ebb395339180610cbf604082018a8861270a565b0390a360405193610cd1604086612456565b600f85526e1cd85b98dd1d5b57d9195c1bdcda5d608a1b60208601523691612685565b91336129ec565b6001600255005b60405162461bcd60e51b815260206004820152601e60248201527f5361666545524332303a207472616e7366657246726f6d206661696c656400006044820152606490fd5b8051801592508215610d5c575b505085610c72565b610d6f9250602080918301019101612af7565b8580610d54565b60405162461bcd60e51b815260206004820152600f60248201526e1a5b9d985b1a590819195c1bdcda5d608a1b6044820152606490fd5b50811515610c18565b3461065157602036600319011261065157600435610dd261284e565b610dda612a86565b805f52600e60205260405f206005810190815491610dfb60ff841615612765565b60ff8360081c16610f335760048201546202a3008101809111610b8e574210610ef85760017f3cc017c3269da45d8c9361874bb4a70be4b7b136eb7ce5f0b56ca4736b2e66389360ff191617905560018060a01b0381541690610eee6001820191610e7760018060a01b03845416946002830195865491612b0f565b610ebf60018060a01b038454168554604051610e94604082612456565b6012815271656d657267656e63795f7265636f7665727960701b602082015261089c60038601612477565b5491549254604080516001600160a01b0394851681529490931660208501529183019190915281906060820190565b0390a26001600255005b60405162461bcd60e51b81526020600482015260136024820152721d1a5b595b1bd8dac81b9bdd081c185cdcd959606a1b6044820152606490fd5b60405162461bcd60e51b815260206004820152600960248201526818d85b98d95b1b195960ba1b6044820152606490fd5b3461065157602036600319011261065157610f7d6123c5565b610f8561284e565b6001600160a01b038116610f9a81151561281c565b805f52600a60205260ff60405f20541661103357805f52600a60205260405f20600160ff19825416179055600c54905f52600b60205260405f2055600c5490600160401b8210156105285761049f826001610ffa9401600c55600c612594565b6100ba60405161100b604082612456565b60168152751cd85b98dd1d5b57d85c1c1c9bdd995c97d85919195960521b60208201526128ba565b60405162461bcd60e51b815260206004820152601060248201526f30b63932b0b23c9030b8383937bb32b960811b6044820152606490fd5b346106515760203660031901126106515760043560ff81168091036106515761109261284e565b80151580611144575b1561110f576020817fded03e31536e79335ad3b5e2b51467656970b5de401d7ca48c8622ba93f93c939260ff196009541617600955604051908152a16100ba6040516110e8604082612456565b60158152741cd85b98dd1d5b57d85c1c1c9bdd985b1cd7dcd95d605a1b60208201526128ba565b60405162461bcd60e51b815260206004820152600d60248201526c189859081d1a1c995cda1bdb19609a1b6044820152606490fd5b50600c5481111561109b565b34610651576020366003190112610651576001600160a01b036111716123c5565b165f52600560205260405f2060ff815416610a1d6001600160401b036003840154166111ab60026111a460018701612477565b9501612477565b6040519485948561253b565b34610651575f366003190112610651576020600c54604051908152f35b34610651575f366003190112610651575f546040516001600160a01b039091168152602090f35b3461065157602036600319011261065157600435611217612a86565b61121f612924565b805f52600860205260405f2060058101908154906112476001600160401b03831615156127a4565b60ff8260801c16158061141a575b61125e906127dc565b60ff60078201541660ff60095416116113dc576001810180546040516370a0823160e01b81523060048201526001600160a01b039091169590936020856024818a5afa9485156106df575f956113a8575b50600284019485548091106113995770ffffffffffffffffff0000000000000000199091164260401b6fffffffffffffffff00000000000000001617600160801b179095558254610cfb967f73cb6fa0cb544fd4cc95ca8027a5a9ab292042ca5f14e6d69b0298c90a976440966113349290916001600160a01b039190911690612b0f565b825491549354604080516001600160a01b0396871681526020810183905295909316959094869390a361089c600360405192611371604085612456565b6015845274191a5cd89d5c9cd95b595b9d17d95e1958dd5d1959605a1b602085015201612477565b63f6840a8560e01b5f5260045ffd5b9094506020813d6020116113d4575b816113c460209383612456565b81010312610651575193876112af565b3d91506113b7565b60405162461bcd60e51b8152602060048201526016602482015275696e73756666696369656e7420617070726f76616c7360501b6044820152606490fd5b50608882901c60ff1615611255565b346106515761143736612629565b9061144061284e565b825f52600e602052600560405f20019182549261146060ff851615612765565b60ff8460081c166114b4576101007f4d3e9882628a2af55759d8875eaa54375a9adaaf2cc8ba0b9b2b07bb23a52a9e9461ff0019161790556114af60405192839260208452602084019161270a565b0390a2005b60405162461bcd60e51b8152602060048201526011602482015270185b1c9958591e4818d85b98d95b1b1959607a1b6044820152606490fd5b34610651575f366003190112610651576020600754604051908152f35b34610651575f366003190112610651576001546001600160a01b0381163303611573575f543360018060a01b0382167f8be0079c531659141344cd1fd0a4f28419497f9722a3daafe3b4186f6b6457e05f80a36001600160a01b031990811633175f5516600155005b60405162461bcd60e51b815260206004820152601660248201527527aba71d103737ba103832b73234b7339037bbb732b960511b6044820152606490fd5b34610651575f366003190112610651576020600654604051908152f35b34610651576020366003190112610651576001600160a01b036115ef6123c5565b165f52600a602052602060ff60405f2054166040519015158152f35b34610651576020366003190112610651576116246123c5565b61162c61284e565b6001600160a01b03165f818152600a602052604090205461164f9060ff1661272a565b5f818152600a60209081526040808320805460ff19169055600b909152902054600c545f198101908111610b8e57808203611713575b5050600c5480156116ff575f190161169c8161257c565b81549060018060a01b039060031b1b19169055600c555f52600b6020525f60408120556100ba6040516116d0604082612456565b601881527f73616e6374756d5f617070726f7665725f72656d6f766564000000000000000060208201526128ba565b634e487b7160e01b5f52603160045260245ffd5b61171c9061257c565b905460039190911b1c6001600160a01b031661173b8161049f8461257c565b5f52600b60205260405f20558180611685565b34610651575f3660031901126106515760206040516202a3008152f35b34610651576020366003190112610651576004355f52600e60205260405f2060018060a01b0381541660018060a01b036001830154169160ff60028201546117e66117b860038501612477565b600560048601549501549260405197889788526020880152604087015260e0606087015260e0860190612517565b926080850152818116151560a085015260081c16151560c08301520390f35b34610651575f366003190112610651576004546040516001600160a01b039091168152602090f35b34610651576020366003190112610651576004355f9081526008602052604090208054600182015460028301546001600160a01b0391821692610a1d92169061187860038601612477565b9361188560048701612477565b9560ff60076005830154920154169360405197889760ff8460881c169560ff8560801c16956001600160401b03808760401c169616948b6125a9565b34610651576040366003190112610651576118da6123c5565b6024356001600160401b038111610651576118f99036906004016123f1565b61190492919261284e565b6001600160a01b0382165f8181526005602052604090205460ff16156119ac576100ba9381610522925f52600560205260405f2060ff1981541690557ff2e92916ab64f9f3f7d3b1a1c2e1e8500a371cbe5b65e135ccabe75ef5338d63604051602081528061197760208201888761270a565b0390a260405192611989604085612456565b600f84526e18da185c9a5d1e57dc995b5bdd9959608a1b60208501523691612685565b60405162461bcd60e51b815260206004820152600c60248201526b1b9bdd08185c1c1c9bdd995960a21b6044820152606490fd5b34610651575f366003190112610651576003546040516001600160a01b039091168152602090f35b346106515760a036600319011261065157611a216123c5565b611a296123db565b604435906064356001600160401b03811161065157611a4c9036906004016123f1565b9390926084356001600160401b03811161065157611a6e9036906004016123f1565b959094611a79612924565b6001600160a01b0384165f8181526005602052604090205490959060ff1615611e3f576001600160a01b03169485151580611e36575b15611dfe576040516370a0823160e01b81523060048201526020816024818a5afa80156106df5785915f91611dc9575b501061139957611af060075461265c565b9586600755865f52600860205260405f20826001600160601b0360a01b82541617815560018101826001600160601b0360a01b825416179055856002820155600381016001600160401b03861161052857611b5586611b4f835461241e565b836126bb565b5f86601f8111600114611d665780611b81925f91611d5b575b508160011b915f199060031b1c19161790565b90555b600481016001600160401b038b11610528578a611bad60209c611ba7845461241e565b846126bb565b5f9a601f8211600114611cc8578a9b937f2b5015bd88d9e134e79b77e19990782bbd527fc6bd7672f923b8eb118cda4b3d93611c0c8461089c9a999895611cb59f986007965f92611cbd5750508160011b915f199060031b1c19161790565b90555b600581016001600160401b03804216166001600160401b031982541617905560018060a01b0333165f52600681018e5260405f20600160ff1982541617905501600160ff19825416179055604051908152878c8201526060604082015280611c7b60608201898861270a565b0390a360405192611c8d604085612456565b6015845274191a5cd89d5c9cd95b595b9d17dc1c9bdc1bdcd959605a1b898501523691612685565b604051908152f35b013590505f806103c1565b601f19821690835f528d5f20915f5b818110611d445750936001848e9f94611cb59f989460079661089c9d9c9b987f2b5015bd88d9e134e79b77e19990782bbd527fc6bd7672f923b8eb118cda4b3d9a10611d2b575b505050811b019055611c0f565b01355f19600384901b60f8161c191690555f8080611d1e565b828f013584559d8f019d6001909301928f01611cd7565b90508701358e611b6e565b50601f19871690825f528760205f20925f5b818110611dae575010611d95575b5050600186811b019055611b84565b8601355f19600389901b60f8161c191690558b80611d86565b8984013585556001909401936020938401938b935001611d78565b9150506020813d602011611df6575b81611de560209383612456565b81010312610651578490518a611adf565b3d9150611dd8565b60405162461bcd60e51b815260206004820152601060248201526f1a5b9d985b1a59081c1c9bdc1bdcd85b60821b6044820152606490fd5b50831515611aaf565b630dd123b160e11b5f5260045ffd5b34610651576020366003190112610651577fbc62e69a31739e36d57d56991ac20e4e507a7edfff9070e6a11df5a37b8b4e6f6020611e8a6123c5565b611e9261284e565b600480546001600160a01b0319166001600160a01b03929092169182179055604051908152a16100ba604051611ec9604082612456565b60128152711cd85b98dd1d5b57db195919d95c97dcd95d60721b60208201526128ba565b346106515760203660031901126106515760043560065481101561065157600654811015611f515760065f527ff652222313e28459528d920b65115c16c04f3efc82aaedc97be59f3f377c0d3f01546040516001600160a01b039091168152602090f35b634e487b7160e01b5f52603260045260245ffd5b34610651576020366003190112610651576001600160a01b03611f866123c5565b165f52600560205260405f2060ff815416610a1d611fa660018401612477565b926001600160401b036003611fbd60028401612477565b92015416906040519485948561253b565b3461065157604036600319011261065157611fe76123db565b6004355f526008602052600660405f20019060018060a01b03165f52602052602060ff60405f2054166040519015158152f35b34610651575f36600319011261065157612032612871565b600180546001600160a01b0319169055005b34610651575f366003190112610651576020600d54604051908152f35b346106515760803660031901126106515761207a6123c5565b6120826123db565b6064356001600160401b038111610651576120a19036906004016123f1565b906120aa61284e565b6001600160a01b03831615612362576044351561232f576120cc600d5461265c565b9283600d556040519460e086018681106001600160401b038211176105285760409081526001600160a01b038281168852831660208801908152604435918801918252909690939061211f368784612685565b6060820190815242608083019081525f60a0840181905260c084018181528a8252600e6020526040909120845181546001600160a01b03199081166001600160a01b039283161783559951600183018054909b16911617909855995160028801559051805199909690916001600160401b038b11610528578a8a986121b660209d6121ad600387015461241e565b600387016126bb565b8c90601f8311600114612290576122859796947f3aa2e793dd33fdcfc48141b7c4863d67a944e49c433242751b7890189b19c4619b9c96946122168561223a9660a0966005965f9261053c5750508160011b915f199060031b1c19161790565b60038301555b516004820155019301511515839060ff801983541691151516179055565b51151561ff0082549160081b169061ff00191617905560405194859460018060a01b0316855260018060a01b031689850152604435604085015260806060850152608084019161270a565b0390a2604051908152f35b90600385015f52805f20915f5b601f19851681106123155750947f3aa2e793dd33fdcfc48141b7c4863d67a944e49c433242751b7890189b19c4619b9c969460018560a0956005956122859d9c9a61223a99601f198116106122fd575b505050811b01600383015561221c565b01515f1960f88460031b161c191690555f80806122ed565b8282015184558e9c50600190930192918f01918f0161229d565b60405162461bcd60e51b815260206004820152600b60248201526a1e995c9bc8185b5bdd5b9d60aa1b6044820152606490fd5b60405162461bcd60e51b81526020600482015260076024820152667a65726f20746f60c81b6044820152606490fd5b34610651576020366003190112610651576020906001600160a01b036123b56123c5565b165f52600b825260405f20548152f35b600435906001600160a01b038216820361065157565b602435906001600160a01b038216820361065157565b9181601f84011215610651578235916001600160401b038311610651576020838186019501011161065157565b90600182811c9216801561244c575b602083101461243857565b634e487b7160e01b5f52602260045260245ffd5b91607f169161242d565b90601f801991011681019081106001600160401b0382111761052857604052565b9060405191825f82549261248a8461241e565b80845293600181169081156124f557506001146124b1575b506124af92500383612456565b565b90505f9291925260205f20905f915b8183106124d95750509060206124af928201015f6124a2565b60209193508060019154838589010152019101909184926124c0565b9050602092506124af94915060ff191682840152151560051b8201015f6124a2565b805180835260209291819084018484015e5f828201840152601f01601f1916010190565b92612575906125676060946001600160401b039498979815158752608060208801526080870190612517565b908582036040870152612517565b9416910152565b600c54811015611f5157600c5f5260205f2001905f90565b8054821015611f51575f5260205f2001905f90565b9894612607906125f96101209a96610140999e9d9960608e6001600160401b039960ff9e998b9960018060a01b0316835260018060a01b03166020830152604082015201526101408d0190612517565b908b820360808d0152612517565b9a1660a08901521660c0870152151560e0860152151561010085015216910152565b9060406003198301126106515760043591602435906001600160401b03821161065157612658916004016123f1565b9091565b5f198114610b8e5760010190565b6001600160401b03811161052857601f01601f191660200190565b9291926126918261266a565b9161269f6040519384612456565b829481845281830111610651578281602093845f960137010152565b601f82116126c857505050565b5f5260205f20906020601f840160051c83019310612700575b601f0160051c01905b8181106126f5575050565b5f81556001016126ea565b90915081906126e1565b908060209392818452848401375f828201840152601f01601f1916010190565b1561273157565b60405162461bcd60e51b815260206004820152600c60248201526b3737ba1030b8383937bb32b960a11b6044820152606490fd5b1561276c57565b60405162461bcd60e51b815260206004820152601060248201526f185b1c9958591e48195e1958dd5d195960821b6044820152606490fd5b156127ab57565b60405162461bcd60e51b81526020600482015260096024820152681b9bdd08199bdd5b9960ba1b6044820152606490fd5b156127e357565b60405162461bcd60e51b8152602060048201526011602482015270185b1c9958591e48199a5b985b1a5e9959607a1b6044820152606490fd5b1561282357565b606460405162461bcd60e51b81526020600482015260046024820152637a65726f60e01b6044820152fd5b6003546001600160a01b0316330361286257565b63eb35d72560e01b5f5260045ffd5b5f546001600160a01b0316330361288457565b60405162461bcd60e51b815260206004820152600e60248201526d27aba71d103737ba1037bbb732b960911b6044820152606490fd5b6004546001600160a01b0316806128cf575050565b803b1561065157604051633ddd61ab60e21b815230600482015260606024820152915f918391829084908290612909906064830190612517565b33604483015203925af161291a5750565b5f6124af91612456565b335f52600a60205260ff60405f2054168015612944575b6124af9061272a565b506003546001600160a01b0316331461293b565b6004546001600160a01b031680612970575b50505050565b803b15610651575f92836129b3936129cb60405197889687958694630303c28760e61b865260018060a01b03166004860152608060248601526084850190612517565b90846044850152600319848303016064850152612517565b03925af16129dc575b80808061296a565b5f6129e691612456565b5f6129d4565b60045490916001600160a01b039091169081612a0a575b5050505050565b813b15610651575f612a4d93612a64829660405198899788968795630303c28760e61b875260018060a01b03166004870152608060248701526084860190612517565b916044850152600319848303016064850152612517565b03925af1612a76575b80808080612a03565b5f612a8091612456565b5f612a6d565b600160025403612a965760028055565b60405162461bcd60e51b815260206004820152600a6024820152697265656e7472616e637960b01b6044820152606490fd5b3d15612af2573d90612ad98261266a565b91612ae76040519384612456565b82523d5f602084013e565b606090565b90816020910312610651575180151581036106515790565b60405163a9059cbb60e01b602082019081526001600160a01b03909316602482015260448101939093525f928392908390612b4d8160648101610c50565b51926001600160a01b03165af1612b62612ac8565b81612bb5575b5015612b7057565b60405162461bcd60e51b815260206004820152601a60248201527f5361666545524332303a207472616e73666572206661696c65640000000000006044820152606490fd5b8051801592508215612bca575b50505f612b68565b612bdd9250602080918301019101612af7565b5f80612bc256fea2646970667358221220ed2a051f60434934540682637f98a441afe54d8a2218d33f90e46f9794de8dc364736f6c634300081e0033","linkReferences":{}},"methodIdentifiers":{"EMERGENCY_TIMELOCK()":"60d7442b","acceptOwnership()":"79ba5097","addApprover(address)":"b646c194","approvalsRequired()":"ea1d59c9","approveCharity(address,string,string)":"feca952a","approveDisbursement(uint256)":"c033e6f4","approverIndex(address)":"04400873","approvers(uint256)":"d3650fb8","cancelEmergencyRecovery(uint256,string)":"83721eb2","cancelOwnershipTransfer()":"23452b9c","charities(address)":"2478239a","charityList(uint256)":"27d2fb89","dao()":"4162169f","deposit(address,uint256,string)":"bfe07da6","disbursementCount()":"7a1b2f78","disbursements(uint256)":"4e29cba6","emergencyRecoveries(uint256)":"5ab5424c","emergencyRecoveryCount()":"15e7db62","executeDisbursement(uint256)":"861011b8","executeEmergencyRecovery(uint256)":"be5c0851","getApproverCount()":"9475f7c3","getBalance(address)":"f8b2cb4f","getCharityCount()":"7185a44b","getCharityInfo(address)":"9d66e6ec","getDisbursement(uint256)":"d6833693","hasApproved(uint256,address)":"2358d5a8","isApprover(address)":"6d218e48","ledger()":"56397c35","owner()":"8da5cb5b","pendingOwner()":"e30c3978","proposeDisbursement(address,address,uint256,string,string)":"372a1101","rejectDisbursement(uint256,string)":"e9633456","removeApprover(address)":"6cf4c88f","removeCharity(address,string)":"42010dbe","requestEmergencyRecovery(address,address,uint256,string)":"0f3d44ac","setApprovalsRequired(uint8)":"a4082663","setDAO(address)":"e73a914c","setLedger(address)":"3246887d","transferOwnership(address)":"f2fde38b"},"id":22}