{"abi":[{"type":"constructor","inputs":[{"name":"_dao","type":"address","internalType":"address"},{"name":"_ledger","type":"address","internalType":"address"},{"name":"_seer","type":"address","internalType":"address"}],"stateMutability":"nonpayable"},{"type":"receive","stateMutability":"payable"},{"type":"function","name":"DONATION_REWARD","inputs":[],"outputs":[{"name":"","type":"uint16","internalType":"uint16"}],"stateMutability":"view"},{"type":"function","name":"EMERGENCY_TIMELOCK","inputs":[],"outputs":[{"name":"","type":"uint256","internalType":"uint256"}],"stateMutability":"view"},{"type":"function","name":"acceptOwnership","inputs":[],"outputs":[],"stateMutability":"nonpayable"},{"type":"function","name":"addApprover","inputs":[{"name":"_approver","type":"address","internalType":"address"}],"outputs":[],"stateMutability":"nonpayable"},{"type":"function","name":"approvalsRequired","inputs":[],"outputs":[{"name":"","type":"uint8","internalType":"uint8"}],"stateMutability":"view"},{"type":"function","name":"approveCharity","inputs":[{"name":"charity","type":"address","internalType":"address"},{"name":"name","type":"string","internalType":"string"},{"name":"category","type":"string","internalType":"string"}],"outputs":[],"stateMutability":"nonpayable"},{"type":"function","name":"approveDisbursement","inputs":[{"name":"proposalId","type":"uint256","internalType":"uint256"}],"outputs":[],"stateMutability":"nonpayable"},{"type":"function","name":"approverIndex","inputs":[{"name":"","type":"address","internalType":"address"}],"outputs":[{"name":"","type":"uint256","internalType":"uint256"}],"stateMutability":"view"},{"type":"function","name":"approvers","inputs":[{"name":"","type":"uint256","internalType":"uint256"}],"outputs":[{"name":"","type":"address","internalType":"address"}],"stateMutability":"view"},{"type":"function","name":"cancelEmergencyRecovery","inputs":[{"name":"id","type":"uint256","internalType":"uint256"},{"name":"reason","type":"string","internalType":"string"}],"outputs":[],"stateMutability":"nonpayable"},{"type":"function","name":"cancelOwnershipTransfer","inputs":[],"outputs":[],"stateMutability":"nonpayable"},{"type":"function","name":"charities","inputs":[{"name":"","type":"address","internalType":"address"}],"outputs":[{"name":"approved","type":"bool","internalType":"bool"},{"name":"name","type":"string","internalType":"string"},{"name":"category","type":"string","internalType":"string"},{"name":"approvedAt","type":"uint64","internalType":"uint64"}],"stateMutability":"view"},{"type":"function","name":"charityList","inputs":[{"name":"","type":"uint256","internalType":"uint256"}],"outputs":[{"name":"","type":"address","internalType":"address"}],"stateMutability":"view"},{"type":"function","name":"dao","inputs":[],"outputs":[{"name":"","type":"address","internalType":"address"}],"stateMutability":"view"},{"type":"function","name":"deposit","inputs":[{"name":"token","type":"address","internalType":"address"},{"name":"amount","type":"uint256","internalType":"uint256"},{"name":"note","type":"string","internalType":"string"}],"outputs":[],"stateMutability":"nonpayable"},{"type":"function","name":"disbursementCount","inputs":[],"outputs":[{"name":"","type":"uint256","internalType":"uint256"}],"stateMutability":"view"},{"type":"function","name":"disbursements","inputs":[{"name":"","type":"uint256","internalType":"uint256"}],"outputs":[{"name":"charity","type":"address","internalType":"address"},{"name":"token","type":"address","internalType":"address"},{"name":"amount","type":"uint256","internalType":"uint256"},{"name":"campaign","type":"string","internalType":"string"},{"name":"documentation","type":"string","internalType":"string"},{"name":"proposedAt","type":"uint64","internalType":"uint64"},{"name":"executedAt","type":"uint64","internalType":"uint64"},{"name":"executed","type":"bool","internalType":"bool"},{"name":"rejected","type":"bool","internalType":"bool"},{"name":"approvalCount","type":"uint8","internalType":"uint8"}],"stateMutability":"view"},{"type":"function","name":"emergencyRecoveries","inputs":[{"name":"","type":"uint256","internalType":"uint256"}],"outputs":[{"name":"token","type":"address","internalType":"address"},{"name":"to","type":"address","internalType":"address"},{"name":"amount","type":"uint256","internalType":"uint256"},{"name":"reason","type":"string","internalType":"string"},{"name":"requestedAt","type":"uint256","internalType":"uint256"},{"name":"executed","type":"bool","internalType":"bool"},{"name":"cancelled","type":"bool","internalType":"bool"}],"stateMutability":"view"},{"type":"function","name":"emergencyRecoveryCount","inputs":[],"outputs":[{"name":"","type":"uint256","internalType":"uint256"}],"stateMutability":"view"},{"type":"function","name":"executeDisbursement","inputs":[{"name":"proposalId","type":"uint256","internalType":"uint256"}],"outputs":[],"stateMutability":"nonpayable"},{"type":"function","name":"executeEmergencyRecovery","inputs":[{"name":"id","type":"uint256","internalType":"uint256"}],"outputs":[],"stateMutability":"nonpayable"},{"type":"function","name":"getApproverCount","inputs":[],"outputs":[{"name":"","type":"uint256","internalType":"uint256"}],"stateMutability":"view"},{"type":"function","name":"getBalance","inputs":[{"name":"token","type":"address","internalType":"address"}],"outputs":[{"name":"","type":"uint256","internalType":"uint256"}],"stateMutability":"view"},{"type":"function","name":"getCharityCount","inputs":[],"outputs":[{"name":"","type":"uint256","internalType":"uint256"}],"stateMutability":"view"},{"type":"function","name":"getCharityInfo","inputs":[{"name":"charity","type":"address","internalType":"address"}],"outputs":[{"name":"approved","type":"bool","internalType":"bool"},{"name":"name","type":"string","internalType":"string"},{"name":"category","type":"string","internalType":"string"},{"name":"approvedAt","type":"uint64","internalType":"uint64"}],"stateMutability":"view"},{"type":"function","name":"getDisbursement","inputs":[{"name":"proposalId","type":"uint256","internalType":"uint256"}],"outputs":[{"name":"charity","type":"address","internalType":"address"},{"name":"token","type":"address","internalType":"address"},{"name":"amount","type":"uint256","internalType":"uint256"},{"name":"campaign","type":"string","internalType":"string"},{"name":"documentation","type":"string","internalType":"string"},{"name":"proposedAt","type":"uint64","internalType":"uint64"},{"name":"executedAt","type":"uint64","internalType":"uint64"},{"name":"executed","type":"bool","internalType":"bool"},{"name":"rejected","type":"bool","internalType":"bool"},{"name":"approvalCount_","type":"uint8","internalType":"uint8"}],"stateMutability":"view"},{"type":"function","name":"hasApproved","inputs":[{"name":"proposalId","type":"uint256","internalType":"uint256"},{"name":"approver","type":"address","internalType":"address"}],"outputs":[{"name":"","type":"bool","internalType":"bool"}],"stateMutability":"view"},{"type":"function","name":"isApprover","inputs":[{"name":"","type":"address","internalType":"address"}],"outputs":[{"name":"","type":"bool","internalType":"bool"}],"stateMutability":"view"},{"type":"function","name":"ledger","inputs":[],"outputs":[{"name":"","type":"address","internalType":"contract IProofLedger"}],"stateMutability":"view"},{"type":"function","name":"owner","inputs":[],"outputs":[{"name":"","type":"address","internalType":"address"}],"stateMutability":"view"},{"type":"function","name":"pendingOwner","inputs":[],"outputs":[{"name":"","type":"address","internalType":"address"}],"stateMutability":"view"},{"type":"function","name":"proposeDisbursement","inputs":[{"name":"charity","type":"address","internalType":"address"},{"name":"token","type":"address","internalType":"address"},{"name":"amount","type":"uint256","internalType":"uint256"},{"name":"campaign","type":"string","internalType":"string"},{"name":"documentation","type":"string","internalType":"string"}],"outputs":[{"name":"proposalId","type":"uint256","internalType":"uint256"}],"stateMutability":"nonpayable"},{"type":"function","name":"rejectDisbursement","inputs":[{"name":"proposalId","type":"uint256","internalType":"uint256"},{"name":"reason","type":"string","internalType":"string"}],"outputs":[],"stateMutability":"nonpayable"},{"type":"function","name":"removeApprover","inputs":[{"name":"_approver","type":"address","internalType":"address"}],"outputs":[],"stateMutability":"nonpayable"},{"type":"function","name":"removeCharity","inputs":[{"name":"charity","type":"address","internalType":"address"},{"name":"reason","type":"string","internalType":"string"}],"outputs":[],"stateMutability":"nonpayable"},{"type":"function","name":"requestEmergencyRecovery","inputs":[{"name":"token","type":"address","internalType":"address"},{"name":"to","type":"address","internalType":"address"},{"name":"amount","type":"uint256","internalType":"uint256"},{"name":"reason","type":"string","internalType":"string"}],"outputs":[{"name":"id","type":"uint256","internalType":"uint256"}],"stateMutability":"nonpayable"},{"type":"function","name":"seer","inputs":[],"outputs":[{"name":"","type":"address","internalType":"contract ISeer_Sanct"}],"stateMutability":"view"},{"type":"function","name":"setApprovalsRequired","inputs":[{"name":"_required","type":"uint8","internalType":"uint8"}],"outputs":[],"stateMutability":"nonpayable"},{"type":"function","name":"setDAO","inputs":[{"name":"_dao","type":"address","internalType":"address"}],"outputs":[],"stateMutability":"nonpayable"},{"type":"function","name":"setLedger","inputs":[{"name":"_ledger","type":"address","internalType":"address"}],"outputs":[],"stateMutability":"nonpayable"},{"type":"function","name":"setSeer","inputs":[{"name":"_seer","type":"address","internalType":"address"}],"outputs":[],"stateMutability":"nonpayable"},{"type":"function","name":"transferOwnership","inputs":[{"name":"newOwner","type":"address","internalType":"address"}],"outputs":[],"stateMutability":"nonpayable"},{"type":"event","name":"ApprovalsRequiredSet","inputs":[{"name":"required","type":"uint8","indexed":false,"internalType":"uint8"}],"anonymous":false},{"type":"event","name":"CharityApproved","inputs":[{"name":"charity","type":"address","indexed":true,"internalType":"address"},{"name":"name","type":"string","indexed":false,"internalType":"string"},{"name":"category","type":"string","indexed":false,"internalType":"string"}],"anonymous":false},{"type":"event","name":"CharityRemoved","inputs":[{"name":"charity","type":"address","indexed":true,"internalType":"address"},{"name":"reason","type":"string","indexed":false,"internalType":"string"}],"anonymous":false},{"type":"event","name":"DAOSet","inputs":[{"name":"dao","type":"address","indexed":false,"internalType":"address"}],"anonymous":false},{"type":"event","name":"Deposit","inputs":[{"name":"from","type":"address","indexed":true,"internalType":"address"},{"name":"token","type":"address","indexed":true,"internalType":"address"},{"name":"amount","type":"uint256","indexed":false,"internalType":"uint256"},{"name":"note","type":"string","indexed":false,"internalType":"string"}],"anonymous":false},{"type":"event","name":"DisbursementApproved","inputs":[{"name":"proposalId","type":"uint256","indexed":true,"internalType":"uint256"},{"name":"approver","type":"address","indexed":true,"internalType":"address"}],"anonymous":false},{"type":"event","name":"DisbursementExecuted","inputs":[{"name":"proposalId","type":"uint256","indexed":true,"internalType":"uint256"},{"name":"charity","type":"address","indexed":true,"internalType":"address"},{"name":"token","type":"address","indexed":false,"internalType":"address"},{"name":"amount","type":"uint256","indexed":false,"internalType":"uint256"}],"anonymous":false},{"type":"event","name":"DisbursementProposed","inputs":[{"name":"proposalId","type":"uint256","indexed":true,"internalType":"uint256"},{"name":"charity","type":"address","indexed":true,"internalType":"address"},{"name":"token","type":"address","indexed":false,"internalType":"address"},{"name":"amount","type":"uint256","indexed":false,"internalType":"uint256"},{"name":"campaign","type":"string","indexed":false,"internalType":"string"}],"anonymous":false},{"type":"event","name":"DisbursementRejected","inputs":[{"name":"proposalId","type":"uint256","indexed":true,"internalType":"uint256"},{"name":"reason","type":"string","indexed":false,"internalType":"string"}],"anonymous":false},{"type":"event","name":"EmergencyRecoveryCancelled","inputs":[{"name":"id","type":"uint256","indexed":true,"internalType":"uint256"},{"name":"reason","type":"string","indexed":false,"internalType":"string"}],"anonymous":false},{"type":"event","name":"EmergencyRecoveryExecuted","inputs":[{"name":"id","type":"uint256","indexed":true,"internalType":"uint256"},{"name":"token","type":"address","indexed":false,"internalType":"address"},{"name":"to","type":"address","indexed":false,"internalType":"address"},{"name":"amount","type":"uint256","indexed":false,"internalType":"uint256"}],"anonymous":false},{"type":"event","name":"EmergencyRecoveryRequested","inputs":[{"name":"id","type":"uint256","indexed":true,"internalType":"uint256"},{"name":"token","type":"address","indexed":false,"internalType":"address"},{"name":"to","type":"address","indexed":false,"internalType":"address"},{"name":"amount","type":"uint256","indexed":false,"internalType":"uint256"},{"name":"reason","type":"string","indexed":false,"internalType":"string"}],"anonymous":false},{"type":"event","name":"LedgerSet","inputs":[{"name":"ledger","type":"address","indexed":false,"internalType":"address"}],"anonymous":false},{"type":"event","name":"OwnershipTransferStarted","inputs":[{"name":"previousOwner","type":"address","indexed":true,"internalType":"address"},{"name":"newOwner","type":"address","indexed":true,"internalType":"address"}],"anonymous":false},{"type":"event","name":"OwnershipTransferred","inputs":[{"name":"previousOwner","type":"address","indexed":true,"internalType":"address"},{"name":"newOwner","type":"address","indexed":true,"internalType":"address"}],"anonymous":false},{"type":"error","name":"SANCT_AlreadyApproved","inputs":[]},{"type":"error","name":"SANCT_InsufficientBalance","inputs":[]},{"type":"error","name":"SANCT_NotApproved","inputs":[]},{"type":"error","name":"SANCT_NotDAO","inputs":[]},{"type":"error","name":"SANCT_Zero","inputs":[]}],"bytecode":{"object":"0x60803461025357601f61303d38819003918201601f19168301916001600160401b038311848410176101f8578084926060946040528339810103126102535761004781610257565b61005f604061005860208501610257565b9301610257565b5f80546001600160a01b03191633908117825560405192949293917f8be0079c531659141344cd1fd0a4f28419497f9722a3daafe3b4186f6b6457e08180a360016002819055600a805460ff191690911790556001600160a01b03169182156102265750600380546001600160a01b03199081168417909155600480546001600160a01b0393841692168217905592168061020c575b505f818152600b60209081526040808320805460ff19166001179055600c909152812055600d54680100000000000000008110156101f8576001810180600d558110156101e457600d5f527fd7b6990105719101dabeb77144f2a3385c8033acd3af97e9423a695e81ad1eb50180546001600160a01b031916821790556040519081527f8aad84fcad50e723fa3bcf0fb32c5bea4c71078b77b9aedfa638f146f3a3f7b990602090a1806101b3575b604051612dd1908161026c8239f35b60207fbc62e69a31739e36d57d56991ac20e4e507a7edfff9070e6a11df5a37b8b4e6f91604051908152a15f6101a4565b634e487b7160e01b5f52603260045260245ffd5b634e487b7160e01b5f52604160045260245ffd5b600580546001600160a01b0319169190911790555f6100f5565b62461bcd60e51b81526020600482015260086024820152677a65726f2064616f60c01b6044820152606490fd5b5f80fd5b51906001600160a01b03821682036102535756fe60808060405260043610156100bc575b50361561001a575f80fd5b5f60405134815260406020820152600e60408201526d1b985d1a5d9957d9195c1bdcda5d60921b60608201527fef519b7eb82aaf6ac376a6df2d793843ebfd593de5f1a0601d3cc6ab49ebb39560803392a36100ba60405161007d60408261260d565b60168152751cd85b98dd1d5b57db985d1a5d9957d9195c1bdcda5d60521b6020820152604051906100af60208361260d565b5f8252349033612ba3565b005b5f905f3560e01c9081630440087314612548575080630f3d44ac1461221857806315e7db62146121fb57806323452b9c146121d15780632358d5a8146121855780632478239a1461211c57806327d2fb89146120a45780632d55ea391461207c5780633246887d14611fdd578063372a110114611b975780634162169f14611b6f57806342010dbe14611a505780634e29cba6146119bc57806356397c35146119945780635ab5424c146118fa57806360d7442b146118dd5780636cf4c88f1461179a5780636d218e481461175d5780637185a44b14611740578063730d45cf1461172557806379ba50971461167e5780637a1b2f781461166157806383721eb21461159d578063861011b81461135d5780638da5cb5b146113365780639475f7c3146113195780639d66e6ec146112b2578063a4082663146111cd578063b646c194146110b2578063be5c085114610ef0578063bfe07da614610c6e578063c033e6f414610b16578063d3650fb814610ad2578063d683369314610a39578063e071c1c0146109f9578063e30c3978146109d0578063e73a914c1461091f578063e96334561461081d578063ea1d59c9146107fc578063f2fde38b14610756578063f8b2cb4f146106ba5763feca952a0361000f57346106b75760603660031901126106b7576102ab61257c565b906024356001600160401b0381116106b5576102cb9036906004016125a8565b6044939193356001600160401b0381116106b1576102ed9036906004016125a8565b9190946102f8612a05565b6001600160a01b0384169161030e8315156129d3565b828652600660205260ff60408720541661067957604051608081018181106001600160401b03821117610665576040526001815261034d36838561283c565b6020820190815261035f36878b61283c565b6040830190815260608301916001600160401b0342168352868a52600660205261039c60408b2094511515859060ff801983541691151516179055565b60018401905180516001600160401b038111610651576103c6816103c085546125d5565b85612872565b60208c601f83116001146105ef57906103f39383610561575b50508160011b915f199060031b1c19161790565b90555b51805160028401916001600160401b0382116105db5761041a826103c085546125d5565b6020908b601f841160011461056c57836001600160401b0396939487956003979461045894926105615750508160011b915f199060031b1c19161790565b90555b5116920191166001600160401b0319825416179055600754600160401b81101561054d5761054a96979261054494926104e5886104c18560017fe02d4a42c9ece24ea030c14aa78a61c63f93e4084f5b43ec25ea991e46c9aa6e9701600755600761274b565b81546001600160a01b0393841660039290921b91821b9390911b1916919091179055565b61050e6104ff6040519384936040855260408501916128c1565b828103602084015288876128c1565b0390a26040519261052060408561260d565b601084526f18da185c9a5d1e57d85c1c1c9bdd995960821b6020850152369161283c565b91612b0f565b80f35b634e487b7160e01b87526041600452602487fd5b015190505f806103df565b50838c52818c209190601f1984168d5b8181106105c35750936001600160401b03969360039693600193838a98106105ac575b505050811b01905561045b565b01515f1983891b60f8161c191690555f808061059f565b9293602060018192878601518155019501930161057c565b634e487b7160e01b8b52604160045260248bfd5b9192601f198416858452828420935b8181106106395750908460019594939210610621575b505050811b0190556103f6565b01515f1960f88460031b161c191690555f8080610614565b929360206001819287860151815501950193016105fe565b634e487b7160e01b8c52604160045260248cfd5b634e487b7160e01b88526041600452602488fd5b60405162461bcd60e51b815260206004820152601060248201526f185b1c9958591e48185c1c1c9bdd995960821b6044820152606490fd5b8380fd5b505b80fd5b50346106b75760203660031901126106b75760249060206001600160a01b036106e161257c565b16604051938480926370a0823160e01b82523060048301525afa90811561074a5790610713575b602090604051908152f35b506020813d602011610742575b8161072d6020938361260d565b8101031261073e5760209051610708565b5f80fd5b3d9150610720565b604051903d90823e3d90fd5b50346106b75760203660031901126106b75761077061257c565b610778612a28565b6001600160a01b031680156107cb57600180546001600160a01b0319168217905581546001600160a01b03167f38d16b8cac22d99fc7c124b9cd0de2d3fa1faef420bfe791d8c362d765e227008380a380f35b60405162461bcd60e51b81526020600482015260096024820152684f574e3a207a65726f60b81b6044820152606490fd5b50346106b757806003193601126106b757602060ff600a5416604051908152f35b50346106b75761054a61082f366127e0565b61083a929192612a05565b818552600960205261090a604086206005810180546108636001600160401b038216151561295b565b60ff8160801c161580610910575b61087a90612993565b60ff60881b1916600160881b179055604051602080825285917f54f96698213949a6430d7f46e2a9dd224a66e710b194c016f66992cf997e89fc9181906108c4908201888b6128c1565b0390a260018060a01b0390541693604051926108e160408561260d565b6015845274191a5cd89d5c9cd95b595b9d17dc995a9958dd1959605a1b6020850152369161283c565b92612ba3565b50608881901c60ff1615610871565b50346106b75760203660031901126106b75761093961257c565b610941612a05565b6001600160a01b031680156109c1576020817f8aad84fcad50e723fa3bcf0fb32c5bea4c71078b77b9aedfa638f146f3a3f7b9926001600160601b0360a01b6003541617600355604051908152a161054a6040516109a060408261260d565b600f81526e1cd85b98dd1d5b57d9185bd7dcd95d608a1b6020820152612a71565b63230172b760e01b8252600482fd5b50346106b757806003193601126106b7576001546040516001600160a01b039091168152602090f35b50346106b75760203660031901126106b757610a1361257c565b610a1b612a05565b60018060a01b03166001600160601b0360a01b600554161760055580f35b50346106b75760203660031901126106b757604090600435815260096020522060018060a01b0381541690610ace60018060a01b03600183015416600283015460058401549160ff60078601541692610aa06004610a996003890161262e565b970161262e565b9660405197889760ff8460881c169560ff8560801c16956001600160401b03808760401c169616948b612760565b0390f35b50346106b75760203660031901126106b75760043590600d548210156106b7576020610afd83612733565b905460405160039290921b1c6001600160a01b03168152f35b50346106b75760203660031901126106b75760043590610b34612adb565b818152600960205260408120610b716005820154610b5c6001600160401b038216151561295b565b60ff8160801c16159081610c5f575b50612993565b335f90815260068201602081905260409091205460ff16610c5057335f90815260209190915260409020805460ff19166001179055600701805460ff9081169391908414610c3c5760ff600161054a9495011660ff1982541617905533817fa99724dbdd942f7cdad7ca17298779db08f5483d0dcac7a7795e415a0c99d9aa8580a360405190610c0260408361260d565b6015825274191a5cd89d5c9cd95b595b9d17d85c1c1c9bdd985b605a1b602083015260405191610c3360208461260d565b84835233612ba3565b634e487b7160e01b83526011600452602483fd5b639dbc1c1560e01b8352600483fd5b60ff915060881c16155f610b6b565b503461073e57606036600319011261073e57610c8861257c565b906024356044356001600160401b03811161073e57610cab9036906004016125a8565b919093610cb6612c3d565b6001600160a01b03169384151580610ee7575b15610eb0576040516323b872dd60e01b60208201908152336024830152306044830152606482018490525f91829190610d0f81608481015b03601f19810183528261260d565b519082895af1610d1d612c7f565b81610e81575b5015610e3c576005546001600160a01b031680610dc8575b50610db990610dc09495604051848152604060208201527fef519b7eb82aaf6ac376a6df2d793843ebfd593de5f1a0601d3cc6ab49ebb395339180610d84604082018a886128c1565b0390a360405193610d9660408661260d565b600f85526e1cd85b98dd1d5b57d9195c1bdcda5d608a1b6020860152369161283c565b9133612ba3565b600160025580f35b803b1561073e575f809160a460405180948193630eccbd3560e11b8352336004840152600a602484015260606044840152601060648401526f31b430b934ba3cafb237b730ba34b7b760811b60848401525af115610d3b57610dc0945090610e335f610db99361260d565b5f945090610d3b565b60405162461bcd60e51b815260206004820152601e60248201527f5361666545524332303a207472616e7366657246726f6d206661696c656400006044820152606490fd5b8051801592508215610e96575b50505f610d23565b610ea99250602080918301019101612cae565b5f80610e8e565b60405162461bcd60e51b815260206004820152600f60248201526e1a5b9d985b1a590819195c1bdcda5d608a1b6044820152606490fd5b50811515610cc9565b3461073e57602036600319011261073e57600435610f0c612a05565b610f14612c3d565b805f52600f60205260405f206005810190815491610f3560ff84161561291c565b60ff8360081c166110815760048201546202a300810180911161106d5742106110325760017f3cc017c3269da45d8c9361874bb4a70be4b7b136eb7ce5f0b56ca4736b2e66389360ff191617905560018060a01b03815416906110286001820191610fb160018060a01b03845416946002830195865491612cc6565b610ff960018060a01b038454168554604051610fce60408261260d565b6012815271656d657267656e63795f7265636f7665727960701b602082015261090a6003860161262e565b5491549254604080516001600160a01b0394851681529490931660208501529183019190915281906060820190565b0390a26001600255005b60405162461bcd60e51b81526020600482015260136024820152721d1a5b595b1bd8dac81b9bdd081c185cdcd959606a1b6044820152606490fd5b634e487b7160e01b5f52601160045260245ffd5b60405162461bcd60e51b815260206004820152600960248201526818d85b98d95b1b195960ba1b6044820152606490fd5b3461073e57602036600319011261073e576110cb61257c565b6110d3612a05565b6001600160a01b0381166110e88115156129d3565b805f52600b60205260ff60405f20541661119557805f52600b60205260405f20600160ff19825416179055600d54905f52600c60205260405f2055600d5490600160401b821015611181576104c18260016111489401600d55600d61274b565b6100ba60405161115960408261260d565b60168152751cd85b98dd1d5b57d85c1c1c9bdd995c97d85919195960521b6020820152612a71565b634e487b7160e01b5f52604160045260245ffd5b60405162461bcd60e51b815260206004820152601060248201526f30b63932b0b23c9030b8383937bb32b960811b6044820152606490fd5b3461073e57602036600319011261073e5760043560ff811680910361073e576111f4612a05565b801515806112a6575b15611271576020817fded03e31536e79335ad3b5e2b51467656970b5de401d7ca48c8622ba93f93c939260ff19600a541617600a55604051908152a16100ba60405161124a60408261260d565b60158152741cd85b98dd1d5b57d85c1c1c9bdd985b1cd7dcd95d605a1b6020820152612a71565b60405162461bcd60e51b815260206004820152600d60248201526c189859081d1a1c995cda1bdb19609a1b6044820152606490fd5b50600d548111156111fd565b3461073e57602036600319011261073e576001600160a01b036112d361257c565b165f52600660205260405f2060ff815416610ace6001600160401b0360038401541661130d60026113066001870161262e565b950161262e565b604051948594856126f2565b3461073e575f36600319011261073e576020600d54604051908152f35b3461073e575f36600319011261073e575f546040516001600160a01b039091168152602090f35b3461073e57602036600319011261073e57600435611379612c3d565b611381612adb565b805f52600960205260405f2060058101908154906113a96001600160401b038316151561295b565b60ff8260801c16158061158e575b6113c090612993565b60ff60078201541660ff600a541611611550576001810180546040516370a0823160e01b81523060048201526001600160a01b039091169590936020856024818a5afa948515611545575f95611511575b50600284019485548091106115025770ffffffffffffffffff0000000000000000199091164260401b6fffffffffffffffff00000000000000001617600160801b1790955582546114fb967f73cb6fa0cb544fd4cc95ca8027a5a9ab292042ca5f14e6d69b0298c90a976440966114969290916001600160a01b039190911690612cc6565b825491549354604080516001600160a01b0396871681526020810183905295909316959094869390a361090a6003604051926114d360408561260d565b6015845274191a5cd89d5c9cd95b595b9d17d95e1958dd5d1959605a1b60208501520161262e565b6001600255005b63f6840a8560e01b5f5260045ffd5b9094506020813d60201161153d575b8161152d6020938361260d565b8101031261073e57519387611411565b3d9150611520565b6040513d5f823e3d90fd5b60405162461bcd60e51b8152602060048201526016602482015275696e73756666696369656e7420617070726f76616c7360501b6044820152606490fd5b50608882901c60ff16156113b7565b3461073e576115ab366127e0565b906115b4612a05565b825f52600f602052600560405f2001918254926115d460ff85161561291c565b60ff8460081c16611628576101007f4d3e9882628a2af55759d8875eaa54375a9adaaf2cc8ba0b9b2b07bb23a52a9e9461ff0019161790556116236040519283926020845260208401916128c1565b0390a2005b60405162461bcd60e51b8152602060048201526011602482015270185b1c9958591e4818d85b98d95b1b1959607a1b6044820152606490fd5b3461073e575f36600319011261073e576020600854604051908152f35b3461073e575f36600319011261073e576001546001600160a01b03811633036116e7575f543360018060a01b0382167f8be0079c531659141344cd1fd0a4f28419497f9722a3daafe3b4186f6b6457e05f80a36001600160a01b031990811633175f5516600155005b60405162461bcd60e51b815260206004820152601660248201527527aba71d103737ba103832b73234b7339037bbb732b960511b6044820152606490fd5b3461073e575f36600319011261073e576020604051600a8152f35b3461073e575f36600319011261073e576020600754604051908152f35b3461073e57602036600319011261073e576001600160a01b0361177e61257c565b165f52600b602052602060ff60405f2054166040519015158152f35b3461073e57602036600319011261073e576117b361257c565b6117bb612a05565b6001600160a01b03165f818152600b60205260409020546117de9060ff166128e1565b5f818152600b60209081526040808320805460ff19169055600c909152902054600d545f19810190811161106d578082036118a2575b5050600d54801561188e575f190161182b81612733565b81549060018060a01b039060031b1b19169055600d555f52600c6020525f60408120556100ba60405161185f60408261260d565b601881527f73616e6374756d5f617070726f7665725f72656d6f76656400000000000000006020820152612a71565b634e487b7160e01b5f52603160045260245ffd5b6118ab90612733565b905460039190911b1c6001600160a01b03166118ca816104c184612733565b5f52600c60205260405f20558180611814565b3461073e575f36600319011261073e5760206040516202a3008152f35b3461073e57602036600319011261073e576004355f52600f60205260405f2060018060a01b0381541660018060a01b036001830154169160ff60028201546119756119476003850161262e565b600560048601549501549260405197889788526020880152604087015260e0606087015260e08601906126ce565b926080850152818116151560a085015260081c16151560c08301520390f35b3461073e575f36600319011261073e576004546040516001600160a01b039091168152602090f35b3461073e57602036600319011261073e576004355f9081526009602052604090208054600182015460028301546001600160a01b0391821692610ace921690611a076003860161262e565b93611a146004870161262e565b9560ff60076005830154920154169360405197889760ff8460881c169560ff8560801c16956001600160401b03808760401c169616948b612760565b3461073e57604036600319011261073e57611a6961257c565b6024356001600160401b03811161073e57611a889036906004016125a8565b611a93929192612a05565b6001600160a01b0382165f8181526006602052604090205460ff1615611b3b576100ba9381610544925f52600660205260405f2060ff1981541690557ff2e92916ab64f9f3f7d3b1a1c2e1e8500a371cbe5b65e135ccabe75ef5338d636040516020815280611b066020820188876128c1565b0390a260405192611b1860408561260d565b600f84526e18da185c9a5d1e57dc995b5bdd9959608a1b6020850152369161283c565b60405162461bcd60e51b815260206004820152600c60248201526b1b9bdd08185c1c1c9bdd995960a21b6044820152606490fd5b3461073e575f36600319011261073e576003546040516001600160a01b039091168152602090f35b3461073e5760a036600319011261073e57611bb061257c565b611bb8612592565b604435906064356001600160401b03811161073e57611bdb9036906004016125a8565b9390926084356001600160401b03811161073e57611bfd9036906004016125a8565b959094611c08612adb565b6001600160a01b0384165f8181526006602052604090205490959060ff1615611fce576001600160a01b03169485151580611fc5575b15611f8d576040516370a0823160e01b81523060048201526020816024818a5afa80156115455785915f91611f58575b501061150257611c7f600854612813565b9586600855865f52600960205260405f20826001600160601b0360a01b82541617815560018101826001600160601b0360a01b825416179055856002820155600381016001600160401b03861161118157611ce486611cde83546125d5565b83612872565b5f86601f8111600114611ef55780611d10925f91611eea575b508160011b915f199060031b1c19161790565b90555b600481016001600160401b038b11611181578a611d3c60209c611d3684546125d5565b84612872565b5f9a601f8211600114611e57578a9b937f2b5015bd88d9e134e79b77e19990782bbd527fc6bd7672f923b8eb118cda4b3d93611d9b8461090a9a999895611e449f986007965f92611e4c5750508160011b915f199060031b1c19161790565b90555b600581016001600160401b03804216166001600160401b031982541617905560018060a01b0333165f52600681018e5260405f20600160ff1982541617905501600160ff19825416179055604051908152878c8201526060604082015280611e0a6060820189886128c1565b0390a360405192611e1c60408561260d565b6015845274191a5cd89d5c9cd95b595b9d17dc1c9bdc1bdcd959605a1b89850152369161283c565b604051908152f35b013590505f806103df565b601f19821690835f528d5f20915f5b818110611ed35750936001848e9f94611e449f989460079661090a9d9c9b987f2b5015bd88d9e134e79b77e19990782bbd527fc6bd7672f923b8eb118cda4b3d9a10611eba575b505050811b019055611d9e565b01355f19600384901b60f8161c191690555f8080611ead565b828f013584559d8f019d6001909301928f01611e66565b90508701358e611cfd565b50601f19871690825f528760205f20925f5b818110611f3d575010611f24575b5050600186811b019055611d13565b8601355f19600389901b60f8161c191690558b80611f15565b8984013585556001909401936020938401938b935001611f07565b9150506020813d602011611f85575b81611f746020938361260d565b8101031261073e578490518a611c6e565b3d9150611f67565b60405162461bcd60e51b815260206004820152601060248201526f1a5b9d985b1a59081c1c9bdc1bdcd85b60821b6044820152606490fd5b50831515611c3e565b630dd123b160e11b5f5260045ffd5b3461073e57602036600319011261073e577fbc62e69a31739e36d57d56991ac20e4e507a7edfff9070e6a11df5a37b8b4e6f602061201961257c565b612021612a05565b600480546001600160a01b0319166001600160a01b03929092169182179055604051908152a16100ba60405161205860408261260d565b60128152711cd85b98dd1d5b57db195919d95c97dcd95d60721b6020820152612a71565b3461073e575f36600319011261073e576005546040516001600160a01b039091168152602090f35b3461073e57602036600319011261073e5760043560075481101561073e576007548110156121085760075f527fa66cc928b5edb82af9bd49922954155ab7b0942694bea4ce44661d9a8736c68801546040516001600160a01b039091168152602090f35b634e487b7160e01b5f52603260045260245ffd5b3461073e57602036600319011261073e576001600160a01b0361213d61257c565b165f52600660205260405f2060ff815416610ace61215d6001840161262e565b926001600160401b0360036121746002840161262e565b9201541690604051948594856126f2565b3461073e57604036600319011261073e5761219e612592565b6004355f526009602052600660405f20019060018060a01b03165f52602052602060ff60405f2054166040519015158152f35b3461073e575f36600319011261073e576121e9612a28565b600180546001600160a01b0319169055005b3461073e575f36600319011261073e576020600e54604051908152f35b3461073e57608036600319011261073e5761223161257c565b612239612592565b6064356001600160401b03811161073e576122589036906004016125a8565b90612261612a05565b6001600160a01b0383161561251957604435156124e657612283600e54612813565b9283600e556040519460e086018681106001600160401b038211176111815760409081526001600160a01b03828116885283166020880190815260443591880191825290969093906122d636878461283c565b6060820190815242608083019081525f60a0840181905260c084018181528a8252600f6020526040909120845181546001600160a01b03199081166001600160a01b039283161783559951600183018054909b16911617909855995160028801559051805199909690916001600160401b038b11611181578a8a9861236d60209d61236460038701546125d5565b60038701612872565b8c90601f83116001146124475761243c9796947f3aa2e793dd33fdcfc48141b7c4863d67a944e49c433242751b7890189b19c4619b9c96946123cd856123f19660a0966005965f926105615750508160011b915f199060031b1c19161790565b60038301555b516004820155019301511515839060ff801983541691151516179055565b51151561ff0082549160081b169061ff00191617905560405194859460018060a01b0316855260018060a01b03168985015260443560408501526080606085015260808401916128c1565b0390a2604051908152f35b90600385015f52805f20915f5b601f19851681106124cc5750947f3aa2e793dd33fdcfc48141b7c4863d67a944e49c433242751b7890189b19c4619b9c969460018560a09560059561243c9d9c9a6123f199601f198116106124b4575b505050811b0160038301556123d3565b01515f1960f88460031b161c191690555f80806124a4565b8282015184558e9c50600190930192918f01918f01612454565b60405162461bcd60e51b815260206004820152600b60248201526a1e995c9bc8185b5bdd5b9d60aa1b6044820152606490fd5b60405162461bcd60e51b81526020600482015260076024820152667a65726f20746f60c81b6044820152606490fd5b3461073e57602036600319011261073e576020906001600160a01b0361256c61257c565b165f52600c825260405f20548152f35b600435906001600160a01b038216820361073e57565b602435906001600160a01b038216820361073e57565b9181601f8401121561073e578235916001600160401b03831161073e576020838186019501011161073e57565b90600182811c92168015612603575b60208310146125ef57565b634e487b7160e01b5f52602260045260245ffd5b91607f16916125e4565b90601f801991011681019081106001600160401b0382111761118157604052565b9060405191825f825492612641846125d5565b80845293600181169081156126ac5750600114612668575b506126669250038361260d565b565b90505f9291925260205f20905f915b818310612690575050906020612666928201015f612659565b6020919350806001915483858901015201910190918492612677565b90506020925061266694915060ff191682840152151560051b8201015f612659565b805180835260209291819084018484015e5f828201840152601f01601f1916010190565b9261272c9061271e6060946001600160401b0394989798151587526080602088015260808701906126ce565b9085820360408701526126ce565b9416910152565b600d5481101561210857600d5f5260205f2001905f90565b8054821015612108575f5260205f2001905f90565b98946127be906127b06101209a96610140999e9d9960608e6001600160401b039960ff9e998b9960018060a01b0316835260018060a01b03166020830152604082015201526101408d01906126ce565b908b820360808d01526126ce565b9a1660a08901521660c0870152151560e0860152151561010085015216910152565b90604060031983011261073e5760043591602435906001600160401b03821161073e5761280f916004016125a8565b9091565b5f19811461106d5760010190565b6001600160401b03811161118157601f01601f191660200190565b92919261284882612821565b91612856604051938461260d565b82948184528183011161073e578281602093845f960137010152565b601f821161287f57505050565b5f5260205f20906020601f840160051c830193106128b7575b601f0160051c01905b8181106128ac575050565b5f81556001016128a1565b9091508190612898565b908060209392818452848401375f828201840152601f01601f1916010190565b156128e857565b60405162461bcd60e51b815260206004820152600c60248201526b3737ba1030b8383937bb32b960a11b6044820152606490fd5b1561292357565b60405162461bcd60e51b815260206004820152601060248201526f185b1c9958591e48195e1958dd5d195960821b6044820152606490fd5b1561296257565b60405162461bcd60e51b81526020600482015260096024820152681b9bdd08199bdd5b9960ba1b6044820152606490fd5b1561299a57565b60405162461bcd60e51b8152602060048201526011602482015270185b1c9958591e48199a5b985b1a5e9959607a1b6044820152606490fd5b156129da57565b606460405162461bcd60e51b81526020600482015260046024820152637a65726f60e01b6044820152fd5b6003546001600160a01b03163303612a1957565b63eb35d72560e01b5f5260045ffd5b5f546001600160a01b03163303612a3b57565b60405162461bcd60e51b815260206004820152600e60248201526d27aba71d103737ba1037bbb732b960911b6044820152606490fd5b6004546001600160a01b031680612a86575050565b803b1561073e57604051633ddd61ab60e21b815230600482015260606024820152915f918391829084908290612ac09060648301906126ce565b33604483015203925af1612ad15750565b5f6126669161260d565b335f52600b60205260ff60405f2054168015612afb575b612666906128e1565b506003546001600160a01b03163314612af2565b6004546001600160a01b031680612b27575b50505050565b803b1561073e575f9283612b6a93612b8260405197889687958694630303c28760e61b865260018060a01b031660048601526080602486015260848501906126ce565b908460448501526003198483030160648501526126ce565b03925af1612b93575b808080612b21565b5f612b9d9161260d565b5f612b8b565b60045490916001600160a01b039091169081612bc1575b5050505050565b813b1561073e575f612c0493612c1b829660405198899788968795630303c28760e61b875260018060a01b031660048701526080602487015260848601906126ce565b9160448501526003198483030160648501526126ce565b03925af1612c2d575b80808080612bba565b5f612c379161260d565b5f612c24565b600160025403612c4d5760028055565b60405162461bcd60e51b815260206004820152600a6024820152697265656e7472616e637960b01b6044820152606490fd5b3d15612ca9573d90612c9082612821565b91612c9e604051938461260d565b82523d5f602084013e565b606090565b9081602091031261073e5751801515810361073e5790565b60405163a9059cbb60e01b602082019081526001600160a01b03909316602482015260448101939093525f928392908390612d048160648101610d01565b51926001600160a01b03165af1612d19612c7f565b81612d6c575b5015612d2757565b60405162461bcd60e51b815260206004820152601a60248201527f5361666545524332303a207472616e73666572206661696c65640000000000006044820152606490fd5b8051801592508215612d81575b50505f612d1f565b612d949250602080918301019101612cae565b5f80612d7956fea2646970667358221220fbaf4ce5c3b0c0a3cca4e98b7182bc136ec17368e175398b9d377bd48401e82e64736f6c634300081e0033","linkReferences":{}},"methodIdentifiers":{"DONATION_REWARD()":"730d45cf","EMERGENCY_TIMELOCK()":"60d7442b","acceptOwnership()":"79ba5097","addApprover(address)":"b646c194","approvalsRequired()":"ea1d59c9","approveCharity(address,string,string)":"feca952a","approveDisbursement(uint256)":"c033e6f4","approverIndex(address)":"04400873","approvers(uint256)":"d3650fb8","cancelEmergencyRecovery(uint256,string)":"83721eb2","cancelOwnershipTransfer()":"23452b9c","charities(address)":"2478239a","charityList(uint256)":"27d2fb89","dao()":"4162169f","deposit(address,uint256,string)":"bfe07da6","disbursementCount()":"7a1b2f78","disbursements(uint256)":"4e29cba6","emergencyRecoveries(uint256)":"5ab5424c","emergencyRecoveryCount()":"15e7db62","executeDisbursement(uint256)":"861011b8","executeEmergencyRecovery(uint256)":"be5c0851","getApproverCount()":"9475f7c3","getBalance(address)":"f8b2cb4f","getCharityCount()":"7185a44b","getCharityInfo(address)":"9d66e6ec","getDisbursement(uint256)":"d6833693","hasApproved(uint256,address)":"2358d5a8","isApprover(address)":"6d218e48","ledger()":"56397c35","owner()":"8da5cb5b","pendingOwner()":"e30c3978","proposeDisbursement(address,address,uint256,string,string)":"372a1101","rejectDisbursement(uint256,string)":"e9633456","removeApprover(address)":"6cf4c88f","removeCharity(address,string)":"42010dbe","requestEmergencyRecovery(address,address,uint256,string)":"0f3d44ac","seer()":"2d55ea39","setApprovalsRequired(uint8)":"a4082663","setDAO(address)":"e73a914c","setLedger(address)":"3246887d","setSeer(address)":"e071c1c0","transferOwnership(address)":"f2fde38b"},"id":12}