{"abi":[{"type":"constructor","inputs":[{"name":"_dao","type":"address","internalType":"address"},{"name":"_ledger","type":"address","internalType":"address"},{"name":"_seer","type":"address","internalType":"address"}],"stateMutability":"nonpayable"},{"type":"receive","stateMutability":"payable"},{"type":"function","name":"DONATION_REWARD","inputs":[],"outputs":[{"name":"","type":"uint16","internalType":"uint16"}],"stateMutability":"view"},{"type":"function","name":"EMERGENCY_TIMELOCK","inputs":[],"outputs":[{"name":"","type":"uint256","internalType":"uint256"}],"stateMutability":"view"},{"type":"function","name":"acceptOwnership","inputs":[],"outputs":[],"stateMutability":"nonpayable"},{"type":"function","name":"addApprover","inputs":[{"name":"_approver","type":"address","internalType":"address"}],"outputs":[],"stateMutability":"nonpayable"},{"type":"function","name":"approvalsRequired","inputs":[],"outputs":[{"name":"","type":"uint8","internalType":"uint8"}],"stateMutability":"view"},{"type":"function","name":"approveCharity","inputs":[{"name":"charity","type":"address","internalType":"address"},{"name":"name","type":"string","internalType":"string"},{"name":"category","type":"string","internalType":"string"}],"outputs":[],"stateMutability":"nonpayable"},{"type":"function","name":"approveDisbursement","inputs":[{"name":"proposalId","type":"uint256","internalType":"uint256"}],"outputs":[],"stateMutability":"nonpayable"},{"type":"function","name":"approverIndex","inputs":[{"name":"","type":"address","internalType":"address"}],"outputs":[{"name":"","type":"uint256","internalType":"uint256"}],"stateMutability":"view"},{"type":"function","name":"approvers","inputs":[{"name":"","type":"uint256","internalType":"uint256"}],"outputs":[{"name":"","type":"address","internalType":"address"}],"stateMutability":"view"},{"type":"function","name":"cancelEmergencyRecovery","inputs":[{"name":"id","type":"uint256","internalType":"uint256"},{"name":"reason","type":"string","internalType":"string"}],"outputs":[],"stateMutability":"nonpayable"},{"type":"function","name":"cancelOwnershipTransfer","inputs":[],"outputs":[],"stateMutability":"nonpayable"},{"type":"function","name":"charities","inputs":[{"name":"","type":"address","internalType":"address"}],"outputs":[{"name":"approved","type":"bool","internalType":"bool"},{"name":"name","type":"string","internalType":"string"},{"name":"category","type":"string","internalType":"string"},{"name":"approvedAt","type":"uint64","internalType":"uint64"}],"stateMutability":"view"},{"type":"function","name":"charityList","inputs":[{"name":"","type":"uint256","internalType":"uint256"}],"outputs":[{"name":"","type":"address","internalType":"address"}],"stateMutability":"view"},{"type":"function","name":"dao","inputs":[],"outputs":[{"name":"","type":"address","internalType":"address"}],"stateMutability":"view"},{"type":"function","name":"deposit","inputs":[{"name":"token","type":"address","internalType":"address"},{"name":"amount","type":"uint256","internalType":"uint256"},{"name":"note","type":"string","internalType":"string"}],"outputs":[],"stateMutability":"nonpayable"},{"type":"function","name":"disbursementCount","inputs":[],"outputs":[{"name":"","type":"uint256","internalType":"uint256"}],"stateMutability":"view"},{"type":"function","name":"disbursements","inputs":[{"name":"","type":"uint256","internalType":"uint256"}],"outputs":[{"name":"charity","type":"address","internalType":"address"},{"name":"token","type":"address","internalType":"address"},{"name":"amount","type":"uint256","internalType":"uint256"},{"name":"campaign","type":"string","internalType":"string"},{"name":"documentation","type":"string","internalType":"string"},{"name":"proposedAt","type":"uint64","internalType":"uint64"},{"name":"executedAt","type":"uint64","internalType":"uint64"},{"name":"executed","type":"bool","internalType":"bool"},{"name":"rejected","type":"bool","internalType":"bool"},{"name":"approvalCount","type":"uint8","internalType":"uint8"}],"stateMutability":"view"},{"type":"function","name":"emergencyRecoveries","inputs":[{"name":"","type":"uint256","internalType":"uint256"}],"outputs":[{"name":"token","type":"address","internalType":"address"},{"name":"to","type":"address","internalType":"address"},{"name":"amount","type":"uint256","internalType":"uint256"},{"name":"reason","type":"string","internalType":"string"},{"name":"requestedAt","type":"uint256","internalType":"uint256"},{"name":"executed","type":"bool","internalType":"bool"},{"name":"cancelled","type":"bool","internalType":"bool"}],"stateMutability":"view"},{"type":"function","name":"emergencyRecoveryCount","inputs":[],"outputs":[{"name":"","type":"uint256","internalType":"uint256"}],"stateMutability":"view"},{"type":"function","name":"executeDisbursement","inputs":[{"name":"proposalId","type":"uint256","internalType":"uint256"}],"outputs":[],"stateMutability":"nonpayable"},{"type":"function","name":"executeEmergencyRecovery","inputs":[{"name":"id","type":"uint256","internalType":"uint256"}],"outputs":[],"stateMutability":"nonpayable"},{"type":"function","name":"getApproverCount","inputs":[],"outputs":[{"name":"","type":"uint256","internalType":"uint256"}],"stateMutability":"view"},{"type":"function","name":"getBalance","inputs":[{"name":"token","type":"address","internalType":"address"}],"outputs":[{"name":"","type":"uint256","internalType":"uint256"}],"stateMutability":"view"},{"type":"function","name":"getCharityCount","inputs":[],"outputs":[{"name":"","type":"uint256","internalType":"uint256"}],"stateMutability":"view"},{"type":"function","name":"getCharityInfo","inputs":[{"name":"charity","type":"address","internalType":"address"}],"outputs":[{"name":"approved","type":"bool","internalType":"bool"},{"name":"name","type":"string","internalType":"string"},{"name":"category","type":"string","internalType":"string"},{"name":"approvedAt","type":"uint64","internalType":"uint64"}],"stateMutability":"view"},{"type":"function","name":"getDisbursement","inputs":[{"name":"proposalId","type":"uint256","internalType":"uint256"}],"outputs":[{"name":"charity","type":"address","internalType":"address"},{"name":"token","type":"address","internalType":"address"},{"name":"amount","type":"uint256","internalType":"uint256"},{"name":"campaign","type":"string","internalType":"string"},{"name":"documentation","type":"string","internalType":"string"},{"name":"proposedAt","type":"uint64","internalType":"uint64"},{"name":"executedAt","type":"uint64","internalType":"uint64"},{"name":"executed","type":"bool","internalType":"bool"},{"name":"rejected","type":"bool","internalType":"bool"},{"name":"approvalCount_","type":"uint8","internalType":"uint8"}],"stateMutability":"view"},{"type":"function","name":"hasApproved","inputs":[{"name":"proposalId","type":"uint256","internalType":"uint256"},{"name":"approver","type":"address","internalType":"address"}],"outputs":[{"name":"","type":"bool","internalType":"bool"}],"stateMutability":"view"},{"type":"function","name":"isApprover","inputs":[{"name":"","type":"address","internalType":"address"}],"outputs":[{"name":"","type":"bool","internalType":"bool"}],"stateMutability":"view"},{"type":"function","name":"ledger","inputs":[],"outputs":[{"name":"","type":"address","internalType":"contract IProofLedger"}],"stateMutability":"view"},{"type":"function","name":"owner","inputs":[],"outputs":[{"name":"","type":"address","internalType":"address"}],"stateMutability":"view"},{"type":"function","name":"pendingOwner","inputs":[],"outputs":[{"name":"","type":"address","internalType":"address"}],"stateMutability":"view"},{"type":"function","name":"proposeDisbursement","inputs":[{"name":"charity","type":"address","internalType":"address"},{"name":"token","type":"address","internalType":"address"},{"name":"amount","type":"uint256","internalType":"uint256"},{"name":"campaign","type":"string","internalType":"string"},{"name":"documentation","type":"string","internalType":"string"}],"outputs":[{"name":"proposalId","type":"uint256","internalType":"uint256"}],"stateMutability":"nonpayable"},{"type":"function","name":"rejectDisbursement","inputs":[{"name":"proposalId","type":"uint256","internalType":"uint256"},{"name":"reason","type":"string","internalType":"string"}],"outputs":[],"stateMutability":"nonpayable"},{"type":"function","name":"removeApprover","inputs":[{"name":"_approver","type":"address","internalType":"address"}],"outputs":[],"stateMutability":"nonpayable"},{"type":"function","name":"removeCharity","inputs":[{"name":"charity","type":"address","internalType":"address"},{"name":"reason","type":"string","internalType":"string"}],"outputs":[],"stateMutability":"nonpayable"},{"type":"function","name":"requestEmergencyRecovery","inputs":[{"name":"token","type":"address","internalType":"address"},{"name":"to","type":"address","internalType":"address"},{"name":"amount","type":"uint256","internalType":"uint256"},{"name":"reason","type":"string","internalType":"string"}],"outputs":[{"name":"id","type":"uint256","internalType":"uint256"}],"stateMutability":"nonpayable"},{"type":"function","name":"seer","inputs":[],"outputs":[{"name":"","type":"address","internalType":"contract ISeer_Sanct"}],"stateMutability":"view"},{"type":"function","name":"setApprovalsRequired","inputs":[{"name":"_required","type":"uint8","internalType":"uint8"}],"outputs":[],"stateMutability":"nonpayable"},{"type":"function","name":"setDAO","inputs":[{"name":"_dao","type":"address","internalType":"address"}],"outputs":[],"stateMutability":"nonpayable"},{"type":"function","name":"setLedger","inputs":[{"name":"_ledger","type":"address","internalType":"address"}],"outputs":[],"stateMutability":"nonpayable"},{"type":"function","name":"setSeer","inputs":[{"name":"_seer","type":"address","internalType":"address"}],"outputs":[],"stateMutability":"nonpayable"},{"type":"function","name":"transferOwnership","inputs":[{"name":"newOwner","type":"address","internalType":"address"}],"outputs":[],"stateMutability":"nonpayable"},{"type":"event","name":"ApprovalsRequiredSet","inputs":[{"name":"required","type":"uint8","indexed":false,"internalType":"uint8"}],"anonymous":false},{"type":"event","name":"CharityApproved","inputs":[{"name":"charity","type":"address","indexed":true,"internalType":"address"},{"name":"name","type":"string","indexed":false,"internalType":"string"},{"name":"category","type":"string","indexed":false,"internalType":"string"}],"anonymous":false},{"type":"event","name":"CharityRemoved","inputs":[{"name":"charity","type":"address","indexed":true,"internalType":"address"},{"name":"reason","type":"string","indexed":false,"internalType":"string"}],"anonymous":false},{"type":"event","name":"DAOSet","inputs":[{"name":"dao","type":"address","indexed":false,"internalType":"address"}],"anonymous":false},{"type":"event","name":"Deposit","inputs":[{"name":"from","type":"address","indexed":true,"internalType":"address"},{"name":"token","type":"address","indexed":true,"internalType":"address"},{"name":"amount","type":"uint256","indexed":false,"internalType":"uint256"},{"name":"note","type":"string","indexed":false,"internalType":"string"}],"anonymous":false},{"type":"event","name":"DisbursementApproved","inputs":[{"name":"proposalId","type":"uint256","indexed":true,"internalType":"uint256"},{"name":"approver","type":"address","indexed":true,"internalType":"address"}],"anonymous":false},{"type":"event","name":"DisbursementExecuted","inputs":[{"name":"proposalId","type":"uint256","indexed":true,"internalType":"uint256"},{"name":"charity","type":"address","indexed":true,"internalType":"address"},{"name":"token","type":"address","indexed":false,"internalType":"address"},{"name":"amount","type":"uint256","indexed":false,"internalType":"uint256"}],"anonymous":false},{"type":"event","name":"DisbursementProposed","inputs":[{"name":"proposalId","type":"uint256","indexed":true,"internalType":"uint256"},{"name":"charity","type":"address","indexed":true,"internalType":"address"},{"name":"token","type":"address","indexed":false,"internalType":"address"},{"name":"amount","type":"uint256","indexed":false,"internalType":"uint256"},{"name":"campaign","type":"string","indexed":false,"internalType":"string"}],"anonymous":false},{"type":"event","name":"DisbursementRejected","inputs":[{"name":"proposalId","type":"uint256","indexed":true,"internalType":"uint256"},{"name":"reason","type":"string","indexed":false,"internalType":"string"}],"anonymous":false},{"type":"event","name":"EmergencyRecoveryCancelled","inputs":[{"name":"id","type":"uint256","indexed":true,"internalType":"uint256"},{"name":"reason","type":"string","indexed":false,"internalType":"string"}],"anonymous":false},{"type":"event","name":"EmergencyRecoveryExecuted","inputs":[{"name":"id","type":"uint256","indexed":true,"internalType":"uint256"},{"name":"token","type":"address","indexed":false,"internalType":"address"},{"name":"to","type":"address","indexed":false,"internalType":"address"},{"name":"amount","type":"uint256","indexed":false,"internalType":"uint256"}],"anonymous":false},{"type":"event","name":"EmergencyRecoveryRequested","inputs":[{"name":"id","type":"uint256","indexed":true,"internalType":"uint256"},{"name":"token","type":"address","indexed":false,"internalType":"address"},{"name":"to","type":"address","indexed":false,"internalType":"address"},{"name":"amount","type":"uint256","indexed":false,"internalType":"uint256"},{"name":"reason","type":"string","indexed":false,"internalType":"string"}],"anonymous":false},{"type":"event","name":"LedgerSet","inputs":[{"name":"ledger","type":"address","indexed":false,"internalType":"address"}],"anonymous":false},{"type":"event","name":"OwnershipTransferStarted","inputs":[{"name":"previousOwner","type":"address","indexed":true,"internalType":"address"},{"name":"newOwner","type":"address","indexed":true,"internalType":"address"}],"anonymous":false},{"type":"event","name":"OwnershipTransferred","inputs":[{"name":"previousOwner","type":"address","indexed":true,"internalType":"address"},{"name":"newOwner","type":"address","indexed":true,"internalType":"address"}],"anonymous":false},{"type":"error","name":"SANCT_AlreadyApproved","inputs":[]},{"type":"error","name":"SANCT_InsufficientBalance","inputs":[]},{"type":"error","name":"SANCT_NotApproved","inputs":[]},{"type":"error","name":"SANCT_NotDAO","inputs":[]},{"type":"error","name":"SANCT_Zero","inputs":[]}],"bytecode":{"object":"0x60803461025357601f612ff538819003918201601f19168301916001600160401b038311848410176101f8578084926060946040528339810103126102535761004781610257565b61005f604061005860208501610257565b9301610257565b5f80546001600160a01b03191633908117825560405192949293917f8be0079c531659141344cd1fd0a4f28419497f9722a3daafe3b4186f6b6457e08180a360016002819055600a805460ff191690911790556001600160a01b03169182156102265750600380546001600160a01b03199081168417909155600480546001600160a01b0393841692168217905592168061020c575b505f818152600b60209081526040808320805460ff19166001179055600c909152812055600d54680100000000000000008110156101f8576001810180600d558110156101e457600d5f527fd7b6990105719101dabeb77144f2a3385c8033acd3af97e9423a695e81ad1eb50180546001600160a01b031916821790556040519081527f8aad84fcad50e723fa3bcf0fb32c5bea4c71078b77b9aedfa638f146f3a3f7b990602090a1806101b3575b604051612d89908161026c8239f35b60207fbc62e69a31739e36d57d56991ac20e4e507a7edfff9070e6a11df5a37b8b4e6f91604051908152a15f6101a4565b634e487b7160e01b5f52603260045260245ffd5b634e487b7160e01b5f52604160045260245ffd5b600580546001600160a01b0319169190911790555f6100f5565b62461bcd60e51b81526020600482015260086024820152677a65726f2064616f60c01b6044820152606490fd5b5f80fd5b51906001600160a01b03821682036102535756fe60808060405260043610156100a9575b50361561001a575f80fd5b5f60405134815260406020820152600e60408201526d1b985d1a5d9957d9195c1bdcda5d60921b60608201525f516020612cf45f395f51905f5260803392a36100a760405161006a60408261252d565b60168152751cd85b98dd1d5b57db985d1a5d9957d9195c1bdcda5d60521b60208201526040519061009c60208361252d565b5f8252349033612b12565b005b5f905f3560e01c9081630440087314612468575080630f3d44ac1461216b57806315e7db621461214e57806323452b9c146121245780632358d5a8146120d85780632478239a1461206f57806327d2fb8914611ff75780632d55ea3914611fcf5780633246887d14611f30578063372a110114611b2e5780634162169f14611b0657806342010dbe146119e75780634e29cba61461195357806356397c351461192b5780635ab5424c1461189157806360d7442b146118745780636cf4c88f146117365780636d218e48146116f95780637185a44b146116dc578063730d45cf146116c157806379ba50971461161a5780637a1b2f78146115fd57806383721eb214611539578063861011b8146113035780638da5cb5b146112dc5780639475f7c3146112bf5780639d66e6ec14611258578063a408266314611173578063b646c19414611059578063be5c085114610ea8578063bfe07da614610c45578063c033e6f414610aed578063d3650fb814610aa9578063d683369314610a10578063e071c1c0146109cb578063e30c3978146109a2578063e73a914c146108f2578063e9633456146107f0578063ea1d59c9146107cf578063f2fde38b14610729578063f8b2cb4f1461068d5763feca952a0361000f573461068a57606036600319011261068a5761029861249c565b906024356001600160401b038111610688576102b89036906004016124c8565b6044939193356001600160401b038111610684576102da9036906004016124c8565b9190946102e5612974565b6001600160a01b038416916102fb831515612920565b828652600660205260ff60408720541661064c57604051608081018181106001600160401b03821117610638576040526001815261033a36838561275c565b6020820190815261034c36878b61275c565b6040830190815260608301916001600160401b0342168352868a52600660205261038960408b2094511515859060ff801983541691151516179055565b60018401905180516001600160401b038111610624576103b3816103ad85546124f5565b85612792565b60208c601f83116001146105c257906103d39383610534575b50506127e1565b90555b51805160028401916001600160401b0382116105ae576103fa826103ad85546124f5565b6020908b601f841160011461053f57836001600160401b0396939487956003979461042b94926105345750506127e1565b90555b5116920191166001600160401b0319825416179055600754600160401b8110156105205761051d96979261051794926104b8886104948560017fe02d4a42c9ece24ea030c14aa78a61c63f93e4084f5b43ec25ea991e46c9aa6e9701600755600761266b565b9080546001600160a01b0360039390931b83811b199091169290931690921b179055565b6104e16104d26040519384936040855260408501916127f3565b828103602084015288876127f3565b0390a2604051926104f360408561252d565b601084526f18da185c9a5d1e57d85c1c1c9bdd995960821b6020850152369161275c565b91612a7e565b80f35b634e487b7160e01b87526041600452602487fd5b015190505f806103cc565b50838c52818c209190601f1984168d5b8181106105965750936001600160401b03969360039693600193838a981061057f575b505050811b01905561042e565b01515f1983891b60f8161c191690555f8080610572565b9293602060018192878601518155019501930161054f565b634e487b7160e01b8b52604160045260248bfd5b9192601f198416858452828420935b81811061060c57509084600195949392106105f4575b505050811b0190556103d6565b01515f1960f88460031b161c191690555f80806105e7565b929360206001819287860151815501950193016105d1565b634e487b7160e01b8c52604160045260248cfd5b634e487b7160e01b88526041600452602488fd5b60405162461bcd60e51b815260206004820152601060248201526f185b1c9958591e48185c1c1c9bdd995960821b6044820152606490fd5b8380fd5b505b80fd5b503461068a57602036600319011261068a5760249060206001600160a01b036106b461249c565b16604051938480926370a0823160e01b82523060048301525afa90811561071d57906106e6575b602090604051908152f35b506020813d602011610715575b816107006020938361252d565b8101031261071157602090516106db565b5f80fd5b3d91506106f3565b604051903d90823e3d90fd5b503461068a57602036600319011261068a5761074361249c565b61074b612997565b6001600160a01b0316801561079e57600180546001600160a01b0319168217905581546001600160a01b03167f38d16b8cac22d99fc7c124b9cd0de2d3fa1faef420bfe791d8c362d765e227008380a380f35b60405162461bcd60e51b81526020600482015260096024820152684f574e3a207a65726f60b81b6044820152606490fd5b503461068a578060031936011261068a57602060ff600a5416604051908152f35b503461068a5761051d61080236612700565b61080d929192612974565b81855260096020526108dd604086206005810180546108366001600160401b038216151561288d565b60ff8160801c1615806108e3575b61084d906128c5565b60ff60881b1916600160881b179055604051602080825285917f54f96698213949a6430d7f46e2a9dd224a66e710b194c016f66992cf997e89fc918190610897908201888b6127f3565b0390a260018060a01b0390541693604051926108b460408561252d565b6015845274191a5cd89d5c9cd95b595b9d17dc995a9958dd1959605a1b6020850152369161275c565b92612b12565b50608881901c60ff1615610844565b503461068a57602036600319011261068a5761090c61249c565b610914612974565b6001600160a01b0316801561099357600380546001600160a01b031916821790556040519081527f8aad84fcad50e723fa3bcf0fb32c5bea4c71078b77b9aedfa638f146f3a3f7b990602090a161051d60405161097260408261252d565b600f81526e1cd85b98dd1d5b57d9185bd7dcd95d608a1b60208201526129e0565b63230172b760e01b8252600482fd5b503461068a578060031936011261068a576001546040516001600160a01b039091168152602090f35b503461068a57602036600319011261068a576109e561249c565b6109ed612974565b600580546001600160a01b0319166001600160a01b039290921691909117905580f35b503461068a57602036600319011261068a57604090600435815260096020522060018060a01b0381541690610aa560018060a01b03600183015416600283015460058401549160ff60078601541692610a776004610a706003890161254e565b970161254e565b9660405197889760ff8460881c169560ff8560801c16956001600160401b03808760401c169616948b612680565b0390f35b503461068a57602036600319011261068a5760043590600d5482101561068a576020610ad483612653565b905460405160039290921b1c6001600160a01b03168152f35b503461068a57602036600319011261068a5760043590610b0b612a4a565b818152600960205260408120610b486005820154610b336001600160401b038216151561288d565b60ff8160801c16159081610c36575b506128c5565b335f90815260068201602081905260409091205460ff16610c2757335f90815260209190915260409020805460ff19166001179055600701805460ff9081169391908414610c135760ff600161051d9495011660ff1982541617905533817fa99724dbdd942f7cdad7ca17298779db08f5483d0dcac7a7795e415a0c99d9aa8580a360405190610bd960408361252d565b6015825274191a5cd89d5c9cd95b595b9d17d85c1c1c9bdd985b605a1b602083015260405191610c0a60208461252d565b84835233612b12565b634e487b7160e01b83526011600452602483fd5b639dbc1c1560e01b8352600483fd5b60ff915060881c16155f610b42565b503461071157606036600319011261071157610c5f61249c565b906024356044356001600160401b03811161071157610c829036906004016124c8565b919093610c8d612bac565b6001600160a01b03169384151580610e9f575b15610e68575f8060405160208101906323b872dd60e01b8252610cda81610ccc88303360248501612952565b03601f19810183528261252d565b519082895af1610ce8612bee565b81610e39575b5015610df4576005546001600160a01b031680610d80575b50610d7190610d789495604051848152604060208201525f516020612cf45f395f51905f52339180610d3c604082018a886127f3565b0390a360405193610d4e60408661252d565b600f85526e1cd85b98dd1d5b57d9195c1bdcda5d608a1b6020860152369161275c565b9133612b12565b600160025580f35b803b15610711575f809160a460405180948193630eccbd3560e11b8352336004840152600a602484015260606044840152601060648401526f31b430b934ba3cafb237b730ba34b7b760811b60848401525af115610d0657610d78945090610deb5f610d719361252d565b5f945090610d06565b60405162461bcd60e51b815260206004820152601e60248201527f5361666545524332303a207472616e7366657246726f6d206661696c656400006044820152606490fd5b8051801592508215610e4e575b50505f610cee565b610e619250602080918301019101612c1d565b5f80610e46565b60405162461bcd60e51b815260206004820152600f60248201526e1a5b9d985b1a590819195c1bdcda5d608a1b6044820152606490fd5b50811515610ca0565b3461071157602036600319011261071157600435610ec4612974565b610ecc612bac565b805f52600f60205260405f206005810190815491610eed60ff84161561284e565b60ff8360081c166110285760048201546202a3008101809111611014574210610fd95760017f3cc017c3269da45d8c9361874bb4a70be4b7b136eb7ce5f0b56ca4736b2e66389360ff191617905560018060a01b0381541690610fcf6001820191610f6960018060a01b03845416946002830195865491612c35565b610fb160018060a01b038454168554604051610f8660408261252d565b6012815271656d657267656e63795f7265636f7665727960701b60208201526108dd6003860161254e565b54915492546040519384936001600160a01b03918216911684612952565b0390a26001600255005b60405162461bcd60e51b81526020600482015260136024820152721d1a5b595b1bd8dac81b9bdd081c185cdcd959606a1b6044820152606490fd5b634e487b7160e01b5f52601160045260245ffd5b60405162461bcd60e51b815260206004820152600960248201526818d85b98d95b1b195960ba1b6044820152606490fd5b346107115760203660031901126107115761107261249c565b61107a612974565b6001600160a01b03811661108f811515612920565b805f52600b60205260ff60405f20541661113b575f908152600b60209081526040808320805460ff19166001179055600d54600c90925290912081905590600160401b821015611127576104948260016110ee9401600d55600d61266b565b6100a76040516110ff60408261252d565b60168152751cd85b98dd1d5b57d85c1c1c9bdd995c97d85919195960521b60208201526129e0565b634e487b7160e01b5f52604160045260245ffd5b60405162461bcd60e51b815260206004820152601060248201526f30b63932b0b23c9030b8383937bb32b960811b6044820152606490fd5b346107115760203660031901126107115760043560ff81168091036107115761119a612974565b8015158061124c575b15611217576020817fded03e31536e79335ad3b5e2b51467656970b5de401d7ca48c8622ba93f93c939260ff19600a541617600a55604051908152a16100a76040516111f060408261252d565b60158152741cd85b98dd1d5b57d85c1c1c9bdd985b1cd7dcd95d605a1b60208201526129e0565b60405162461bcd60e51b815260206004820152600d60248201526c189859081d1a1c995cda1bdb19609a1b6044820152606490fd5b50600d548111156111a3565b34610711576020366003190112610711576001600160a01b0361127961249c565b165f52600660205260405f2060ff815416610aa56001600160401b036003840154166112b360026112ac6001870161254e565b950161254e565b60405194859485612612565b34610711575f366003190112610711576020600d54604051908152f35b34610711575f366003190112610711575f546040516001600160a01b039091168152602090f35b346107115760203660031901126107115760043561131f612bac565b611327612a4a565b805f52600960205260405f20600581019081549061134f6001600160401b038316151561288d565b60ff8260801c16158061152a575b611366906128c5565b60ff60078201541660ff600a5416116114ec576001810180546040516370a0823160e01b81523060048201526001600160a01b039091169590936020856024818a5afa9485156114e1575f956114ad575b506002840194855480911061149e57600160401b600160881b03199091164260401b67ffffffffffffffff60401b1617600160801b179095558254611497967f73cb6fa0cb544fd4cc95ca8027a5a9ab292042ca5f14e6d69b0298c90a976440966114309290916001600160a01b039190911690612c35565b8254915493546040516001600160a01b03938416969195879482916114589189911683612905565b0390a36108dd60036040519261146f60408561252d565b6015845274191a5cd89d5c9cd95b595b9d17d95e1958dd5d1959605a1b60208501520161254e565b6001600255005b63f6840a8560e01b5f5260045ffd5b9094506020813d6020116114d9575b816114c96020938361252d565b81010312610711575193876113b7565b3d91506114bc565b6040513d5f823e3d90fd5b60405162461bcd60e51b8152602060048201526016602482015275696e73756666696369656e7420617070726f76616c7360501b6044820152606490fd5b50608882901c60ff161561135d565b346107115761154736612700565b90611550612974565b825f52600f602052600560405f20019182549261157060ff85161561284e565b60ff8460081c166115c4576101007f4d3e9882628a2af55759d8875eaa54375a9adaaf2cc8ba0b9b2b07bb23a52a9e9461ff0019161790556115bf6040519283926020845260208401916127f3565b0390a2005b60405162461bcd60e51b8152602060048201526011602482015270185b1c9958591e4818d85b98d95b1b1959607a1b6044820152606490fd5b34610711575f366003190112610711576020600854604051908152f35b34610711575f366003190112610711576001546001600160a01b0381163303611683575f543360018060a01b0382167f8be0079c531659141344cd1fd0a4f28419497f9722a3daafe3b4186f6b6457e05f80a36001600160a01b031990811633175f5516600155005b60405162461bcd60e51b815260206004820152601660248201527527aba71d103737ba103832b73234b7339037bbb732b960511b6044820152606490fd5b34610711575f366003190112610711576020604051600a8152f35b34610711575f366003190112610711576020600754604051908152f35b34610711576020366003190112610711576001600160a01b0361171a61249c565b165f52600b602052602060ff60405f2054166040519015158152f35b346107115760203660031901126107115761174f61249c565b611757612974565b6001600160a01b03165f818152600b602052604090205461177a9060ff16612813565b5f818152600b60209081526040808320805460ff19169055600c909152902054600d545f19810190811161101457808203611839575b5050600d548015611825575f19016117c781612653565b81549060018060a01b039060031b1b19169055600d555f52600c6020525f60408120556100a76040516117fb60408261252d565b60188152771cd85b98dd1d5b57d85c1c1c9bdd995c97dc995b5bdd995960421b60208201526129e0565b634e487b7160e01b5f52603160045260245ffd5b61184290612653565b905460039190911b1c6001600160a01b03166118618161049484612653565b5f52600c60205260405f205581806117b0565b34610711575f3660031901126107115760206040516202a3008152f35b34610711576020366003190112610711576004355f52600f60205260405f2060018060a01b0381541660018060a01b036001830154169160ff600282015461190c6118de6003850161254e565b600560048601549501549260405197889788526020880152604087015260e0606087015260e08601906125ee565b926080850152818116151560a085015260081c16151560c08301520390f35b34610711575f366003190112610711576004546040516001600160a01b039091168152602090f35b34610711576020366003190112610711576004355f9081526009602052604090208054600182015460028301546001600160a01b0391821692610aa592169061199e6003860161254e565b936119ab6004870161254e565b9560ff60076005830154920154169360405197889760ff8460881c169560ff8560801c16956001600160401b03808760401c169616948b612680565b3461071157604036600319011261071157611a0061249c565b6024356001600160401b03811161071157611a1f9036906004016124c8565b611a2a929192612974565b6001600160a01b0382165f8181526006602052604090205460ff1615611ad2576100a79381610517925f52600660205260405f2060ff1981541690557ff2e92916ab64f9f3f7d3b1a1c2e1e8500a371cbe5b65e135ccabe75ef5338d636040516020815280611a9d6020820188876127f3565b0390a260405192611aaf60408561252d565b600f84526e18da185c9a5d1e57dc995b5bdd9959608a1b6020850152369161275c565b60405162461bcd60e51b815260206004820152600c60248201526b1b9bdd08185c1c1c9bdd995960a21b6044820152606490fd5b34610711575f366003190112610711576003546040516001600160a01b039091168152602090f35b346107115760a036600319011261071157611b4761249c565b611b4f6124b2565b604435906064356001600160401b03811161071157611b729036906004016124c8565b9390926084356001600160401b03811161071157611b949036906004016124c8565b959094611b9f612a4a565b6001600160a01b0384165f8181526006602052604090205490959060ff1615611f21576001600160a01b03169485151580611f18575b15611ee0576040516370a0823160e01b81523060048201526020816024818a5afa80156114e15785915f91611eab575b501061149e57611c16600854612733565b60088190555f81815260096020526040902080546001600160a01b0319908116841782556001820180549091168917905560028101869055909690600381016001600160401b03861161112757611c7786611c7183546124f5565b83612792565b5f86601f8111600114611e485780611c96925f91611e3d575b506127e1565b90555b600481016001600160401b038b11611127578a611cc260209c611cbc84546124f5565b84612792565b5f9a601f8211600114611dbd578a9b935f516020612d345f395f51905f5293611d01846108dd9a999895611daa9f986007965f92611db25750506127e1565b90555b600581016001600160401b03804216166001600160401b031982541617905560018060a01b0333165f52600681018e5260405f20600160ff1982541617905501600160ff19825416179055604051908152878c8201526060604082015280611d706060820189886127f3565b0390a360405192611d8260408561252d565b6015845274191a5cd89d5c9cd95b595b9d17dc1c9bdc1bdcd959605a1b89850152369161275c565b604051908152f35b013590505f806103cc565b601f19821690835f528d5f20915f5b818110611e265750936001848e9f94611daa9f98946007966108dd9d9c9b985f516020612d345f395f51905f529a10611e0d575b505050811b019055611d04565b01355f19600384901b60f8161c191690555f8080611e00565b828f013584559d8f019d6001909301928f01611dcc565b90508701358e611c90565b50601f19871690825f528760205f20925f5b818110611e90575010611e77575b5050600186811b019055611c99565b8601355f19600389901b60f8161c191690558b80611e68565b8984013585556001909401936020938401938b935001611e5a565b9150506020813d602011611ed8575b81611ec76020938361252d565b81010312610711578490518a611c05565b3d9150611eba565b60405162461bcd60e51b815260206004820152601060248201526f1a5b9d985b1a59081c1c9bdc1bdcd85b60821b6044820152606490fd5b50831515611bd5565b630dd123b160e11b5f5260045ffd5b34610711576020366003190112610711577fbc62e69a31739e36d57d56991ac20e4e507a7edfff9070e6a11df5a37b8b4e6f6020611f6c61249c565b611f74612974565b600480546001600160a01b0319166001600160a01b03929092169182179055604051908152a16100a7604051611fab60408261252d565b60128152711cd85b98dd1d5b57db195919d95c97dcd95d60721b60208201526129e0565b34610711575f366003190112610711576005546040516001600160a01b039091168152602090f35b34610711576020366003190112610711576004356007548110156107115760075481101561205b5760075f527fa66cc928b5edb82af9bd49922954155ab7b0942694bea4ce44661d9a8736c68801546040516001600160a01b039091168152602090f35b634e487b7160e01b5f52603260045260245ffd5b34610711576020366003190112610711576001600160a01b0361209061249c565b165f52600660205260405f2060ff815416610aa56120b06001840161254e565b926001600160401b0360036120c76002840161254e565b920154169060405194859485612612565b34610711576040366003190112610711576120f16124b2565b6004355f526009602052600660405f20019060018060a01b03165f52602052602060ff60405f2054166040519015158152f35b34610711575f3660031901126107115761213c612997565b600180546001600160a01b0319169055005b34610711575f366003190112610711576020600e54604051908152f35b346107115760803660031901126107115761218461249c565b61218c6124b2565b6064356001600160401b038111610711576121ab9036906004016124c8565b906121b4612974565b6001600160a01b038316156124395760443515612406576121d6600e54612733565b9283600e556040519460e086018681106001600160401b038211176111275760409081526001600160a01b038281168852831660208801908152604435918801918252909690939061222936878461275c565b6060820190815242608083019081525f60a0840181905260c084018181528a8252600f6020526040909120845181546001600160a01b03199081166001600160a01b039283161783559951600183018054909b16911617909855995160028801559051805199909690916001600160401b038b11611127578a8a986122c060209d6122b760038701546124f5565b60038701612792565b8c90601f831160011461237a5761236f9796945f516020612d145f395f51905f529b9c9694612300856123249660a0966005965f926105345750506127e1565b60038301555b516004820155019301511515839060ff801983541691151516179055565b51151561ff0082549160081b169061ff00191617905560405194859460018060a01b0316855260018060a01b03168985015260443560408501526080606085015260808401916127f3565b0390a2604051908152f35b90600385015f52805f20915f5b601f19851681106123ec5750945f516020612d145f395f51905f529b9c969460018560a09560059561236f9d9c9a61232499601f198116106123d4575b505050811b016003830155612306565b01515f1960f88460031b161c191690555f80806123c4565b8282015184558e9c50600190930192918f01918f01612387565b60405162461bcd60e51b815260206004820152600b60248201526a1e995c9bc8185b5bdd5b9d60aa1b6044820152606490fd5b60405162461bcd60e51b81526020600482015260076024820152667a65726f20746f60c81b6044820152606490fd5b34610711576020366003190112610711576020906001600160a01b0361248c61249c565b165f52600c825260405f20548152f35b600435906001600160a01b038216820361071157565b602435906001600160a01b038216820361071157565b9181601f84011215610711578235916001600160401b038311610711576020838186019501011161071157565b90600182811c92168015612523575b602083101461250f57565b634e487b7160e01b5f52602260045260245ffd5b91607f1691612504565b90601f801991011681019081106001600160401b0382111761112757604052565b9060405191825f825492612561846124f5565b80845293600181169081156125cc5750600114612588575b506125869250038361252d565b565b90505f9291925260205f20905f915b8183106125b0575050906020612586928201015f612579565b6020919350806001915483858901015201910190918492612597565b90506020925061258694915060ff191682840152151560051b8201015f612579565b805180835260209291819084018484015e5f828201840152601f01601f1916010190565b9261264c9061263e6060946001600160401b0394989798151587526080602088015260808701906125ee565b9085820360408701526125ee565b9416910152565b600d5481101561205b57600d5f5260205f2001905f90565b805482101561205b575f5260205f2001905f90565b98946126de906126d06101209a96610140999e9d9960608e6001600160401b039960ff9e998b9960018060a01b0316835260018060a01b03166020830152604082015201526101408d01906125ee565b908b820360808d01526125ee565b9a1660a08901521660c0870152151560e0860152151561010085015216910152565b9060406003198301126107115760043591602435906001600160401b0382116107115761272f916004016124c8565b9091565b5f1981146110145760010190565b6001600160401b03811161112757601f01601f191660200190565b92919261276882612741565b91612776604051938461252d565b829481845281830111610711578281602093845f960137010152565b601f821161279f57505050565b5f5260205f20906020601f840160051c830193106127d7575b601f0160051c01905b8181106127cc575050565b5f81556001016127c1565b90915081906127b8565b8160011b915f199060031b1c19161790565b908060209392818452848401375f828201840152601f01601f1916010190565b1561281a57565b60405162461bcd60e51b815260206004820152600c60248201526b3737ba1030b8383937bb32b960a11b6044820152606490fd5b1561285557565b60405162461bcd60e51b815260206004820152601060248201526f185b1c9958591e48195e1958dd5d195960821b6044820152606490fd5b1561289457565b60405162461bcd60e51b81526020600482015260096024820152681b9bdd08199bdd5b9960ba1b6044820152606490fd5b156128cc57565b60405162461bcd60e51b8152602060048201526011602482015270185b1c9958591e48199a5b985b1a5e9959607a1b6044820152606490fd5b6001600160a01b039091168152602081019190915260400190565b1561292757565b606460405162461bcd60e51b81526020600482015260046024820152637a65726f60e01b6044820152fd5b6001600160a01b03918216815291166020820152604081019190915260600190565b6003546001600160a01b0316330361298857565b63eb35d72560e01b5f5260045ffd5b5f546001600160a01b031633036129aa57565b60405162461bcd60e51b815260206004820152600e60248201526d27aba71d103737ba1037bbb732b960911b6044820152606490fd5b6004546001600160a01b0316806129f5575050565b803b1561071157604051633ddd61ab60e21b815230600482015260606024820152915f918391829084908290612a2f9060648301906125ee565b33604483015203925af1612a405750565b5f6125869161252d565b335f52600b60205260ff60405f2054168015612a6a575b61258690612813565b506003546001600160a01b03163314612a61565b6004546001600160a01b031680612a96575b50505050565b803b15610711575f9283612ad993612af160405197889687958694630303c28760e61b865260018060a01b031660048601526080602486015260848501906125ee565b908460448501526003198483030160648501526125ee565b03925af1612b02575b808080612a90565b5f612b0c9161252d565b5f612afa565b60045490916001600160a01b039091169081612b30575b5050505050565b813b15610711575f612b7393612b8a829660405198899788968795630303c28760e61b875260018060a01b031660048701526080602487015260848601906125ee565b9160448501526003198483030160648501526125ee565b03925af1612b9c575b80808080612b29565b5f612ba69161252d565b5f612b93565b600160025403612bbc5760028055565b60405162461bcd60e51b815260206004820152600a6024820152697265656e7472616e637960b01b6044820152606490fd5b3d15612c18573d90612bff82612741565b91612c0d604051938461252d565b82523d5f602084013e565b606090565b90816020910312610711575180151581036107115790565b5f929183610ccc612c5f8295604051928391602083019663a9059cbb60e01b885260248401612905565b51926001600160a01b03165af1612c74612bee565b81612cc4575b5015612c8257565b60405162461bcd60e51b815260206004820152601a60248201527914d85999515490cc8c0e881d1c985b9cd9995c8819985a5b195960321b6044820152606490fd5b8051801592508215612cd9575b50505f612c7a565b612cec9250602080918301019101612c1d565b5f80612cd156feef519b7eb82aaf6ac376a6df2d793843ebfd593de5f1a0601d3cc6ab49ebb3953aa2e793dd33fdcfc48141b7c4863d67a944e49c433242751b7890189b19c4612b5015bd88d9e134e79b77e19990782bbd527fc6bd7672f923b8eb118cda4b3da26469706673582212206d569f2dceddfb95e667effd043389b61ca1e9bf057689146d9f990e841a277964736f6c634300081e0033","linkReferences":{}},"methodIdentifiers":{"DONATION_REWARD()":"730d45cf","EMERGENCY_TIMELOCK()":"60d7442b","acceptOwnership()":"79ba5097","addApprover(address)":"b646c194","approvalsRequired()":"ea1d59c9","approveCharity(address,string,string)":"feca952a","approveDisbursement(uint256)":"c033e6f4","approverIndex(address)":"04400873","approvers(uint256)":"d3650fb8","cancelEmergencyRecovery(uint256,string)":"83721eb2","cancelOwnershipTransfer()":"23452b9c","charities(address)":"2478239a","charityList(uint256)":"27d2fb89","dao()":"4162169f","deposit(address,uint256,string)":"bfe07da6","disbursementCount()":"7a1b2f78","disbursements(uint256)":"4e29cba6","emergencyRecoveries(uint256)":"5ab5424c","emergencyRecoveryCount()":"15e7db62","executeDisbursement(uint256)":"861011b8","executeEmergencyRecovery(uint256)":"be5c0851","getApproverCount()":"9475f7c3","getBalance(address)":"f8b2cb4f","getCharityCount()":"7185a44b","getCharityInfo(address)":"9d66e6ec","getDisbursement(uint256)":"d6833693","hasApproved(uint256,address)":"2358d5a8","isApprover(address)":"6d218e48","ledger()":"56397c35","owner()":"8da5cb5b","pendingOwner()":"e30c3978","proposeDisbursement(address,address,uint256,string,string)":"372a1101","rejectDisbursement(uint256,string)":"e9633456","removeApprover(address)":"6cf4c88f","removeCharity(address,string)":"42010dbe","requestEmergencyRecovery(address,address,uint256,string)":"0f3d44ac","seer()":"2d55ea39","setApprovalsRequired(uint8)":"a4082663","setDAO(address)":"e73a914c","setLedger(address)":"3246887d","setSeer(address)":"e071c1c0","transferOwnership(address)":"f2fde38b"},"id":23}