{"abi":[{"type":"constructor","inputs":[{"name":"_seer","type":"address","internalType":"address"},{"name":"_baseURI","type":"string","internalType":"string"}],"stateMutability":"nonpayable"},{"type":"function","name":"adminBurn","inputs":[{"name":"tokenId","type":"uint256","internalType":"uint256"}],"outputs":[],"stateMutability":"nonpayable"},{"type":"function","name":"approve","inputs":[{"name":"to","type":"address","internalType":"address"},{"name":"tokenId","type":"uint256","internalType":"uint256"}],"outputs":[],"stateMutability":"nonpayable"},{"type":"function","name":"badgeMintCount","inputs":[{"name":"","type":"bytes32","internalType":"bytes32"}],"outputs":[{"name":"","type":"uint256","internalType":"uint256"}],"stateMutability":"view"},{"type":"function","name":"badgeNumber","inputs":[{"name":"","type":"uint256","internalType":"uint256"}],"outputs":[{"name":"","type":"uint256","internalType":"uint256"}],"stateMutability":"view"},{"type":"function","name":"balanceOf","inputs":[{"name":"owner","type":"address","internalType":"address"}],"outputs":[{"name":"","type":"uint256","internalType":"uint256"}],"stateMutability":"view"},{"type":"function","name":"burnBadge","inputs":[{"name":"tokenId","type":"uint256","internalType":"uint256"}],"outputs":[],"stateMutability":"nonpayable"},{"type":"function","name":"canMintBadge","inputs":[{"name":"user","type":"address","internalType":"address"},{"name":"badge","type":"bytes32","internalType":"bytes32"}],"outputs":[{"name":"canMint","type":"bool","internalType":"bool"},{"name":"reason","type":"string","internalType":"string"}],"stateMutability":"view"},{"type":"function","name":"getApproved","inputs":[{"name":"tokenId","type":"uint256","internalType":"uint256"}],"outputs":[{"name":"","type":"address","internalType":"address"}],"stateMutability":"view"},{"type":"function","name":"getBadgeDetails","inputs":[{"name":"tokenId","type":"uint256","internalType":"uint256"}],"outputs":[{"name":"badge","type":"bytes32","internalType":"bytes32"},{"name":"name","type":"string","internalType":"string"},{"name":"category","type":"string","internalType":"string"},{"name":"mintTime","type":"uint256","internalType":"uint256"},{"name":"number","type":"uint256","internalType":"uint256"}],"stateMutability":"view"},{"type":"function","name":"getBadgeMintCount","inputs":[{"name":"badge","type":"bytes32","internalType":"bytes32"}],"outputs":[{"name":"","type":"uint256","internalType":"uint256"}],"stateMutability":"view"},{"type":"function","name":"getBadgesOfUser","inputs":[{"name":"user","type":"address","internalType":"address"}],"outputs":[{"name":"tokens","type":"uint256[]","internalType":"uint256[]"}],"stateMutability":"view"},{"type":"function","name":"isApprovedForAll","inputs":[{"name":"owner","type":"address","internalType":"address"},{"name":"operator","type":"address","internalType":"address"}],"outputs":[{"name":"","type":"bool","internalType":"bool"}],"stateMutability":"view"},{"type":"function","name":"locked","inputs":[{"name":"","type":"uint256","internalType":"uint256"}],"outputs":[{"name":"","type":"bool","internalType":"bool"}],"stateMutability":"pure"},{"type":"function","name":"mintBadge","inputs":[{"name":"badge","type":"bytes32","internalType":"bytes32"}],"outputs":[{"name":"tokenId","type":"uint256","internalType":"uint256"}],"stateMutability":"nonpayable"},{"type":"function","name":"mintBadges","inputs":[{"name":"badges","type":"bytes32[]","internalType":"bytes32[]"}],"outputs":[{"name":"tokenIds","type":"uint256[]","internalType":"uint256[]"}],"stateMutability":"nonpayable"},{"type":"function","name":"mintTimestamp","inputs":[{"name":"","type":"uint256","internalType":"uint256"}],"outputs":[{"name":"","type":"uint256","internalType":"uint256"}],"stateMutability":"view"},{"type":"function","name":"name","inputs":[],"outputs":[{"name":"","type":"string","internalType":"string"}],"stateMutability":"view"},{"type":"function","name":"owner","inputs":[],"outputs":[{"name":"","type":"address","internalType":"address"}],"stateMutability":"view"},{"type":"function","name":"ownerOf","inputs":[{"name":"tokenId","type":"uint256","internalType":"uint256"}],"outputs":[{"name":"","type":"address","internalType":"address"}],"stateMutability":"view"},{"type":"function","name":"renounceOwnership","inputs":[],"outputs":[],"stateMutability":"nonpayable"},{"type":"function","name":"safeTransferFrom","inputs":[{"name":"from","type":"address","internalType":"address"},{"name":"to","type":"address","internalType":"address"},{"name":"tokenId","type":"uint256","internalType":"uint256"}],"outputs":[],"stateMutability":"nonpayable"},{"type":"function","name":"safeTransferFrom","inputs":[{"name":"from","type":"address","internalType":"address"},{"name":"to","type":"address","internalType":"address"},{"name":"tokenId","type":"uint256","internalType":"uint256"},{"name":"data","type":"bytes","internalType":"bytes"}],"outputs":[],"stateMutability":"nonpayable"},{"type":"function","name":"seer","inputs":[],"outputs":[{"name":"","type":"address","internalType":"contract Seer"}],"stateMutability":"view"},{"type":"function","name":"setApprovalForAll","inputs":[{"name":"operator","type":"address","internalType":"address"},{"name":"approved","type":"bool","internalType":"bool"}],"outputs":[],"stateMutability":"nonpayable"},{"type":"function","name":"setBaseURI","inputs":[{"name":"baseURI","type":"string","internalType":"string"}],"outputs":[],"stateMutability":"nonpayable"},{"type":"function","name":"supportsInterface","inputs":[{"name":"interfaceId","type":"bytes4","internalType":"bytes4"}],"outputs":[{"name":"","type":"bool","internalType":"bool"}],"stateMutability":"view"},{"type":"function","name":"symbol","inputs":[],"outputs":[{"name":"","type":"string","internalType":"string"}],"stateMutability":"view"},{"type":"function","name":"tokenBadge","inputs":[{"name":"","type":"uint256","internalType":"uint256"}],"outputs":[{"name":"","type":"bytes32","internalType":"bytes32"}],"stateMutability":"view"},{"type":"function","name":"tokenByIndex","inputs":[{"name":"index","type":"uint256","internalType":"uint256"}],"outputs":[{"name":"","type":"uint256","internalType":"uint256"}],"stateMutability":"view"},{"type":"function","name":"tokenOfOwnerByIndex","inputs":[{"name":"owner","type":"address","internalType":"address"},{"name":"index","type":"uint256","internalType":"uint256"}],"outputs":[{"name":"","type":"uint256","internalType":"uint256"}],"stateMutability":"view"},{"type":"function","name":"tokenURI","inputs":[{"name":"tokenId","type":"uint256","internalType":"uint256"}],"outputs":[{"name":"","type":"string","internalType":"string"}],"stateMutability":"view"},{"type":"function","name":"totalSupply","inputs":[],"outputs":[{"name":"","type":"uint256","internalType":"uint256"}],"stateMutability":"view"},{"type":"function","name":"transferFrom","inputs":[{"name":"from","type":"address","internalType":"address"},{"name":"to","type":"address","internalType":"address"},{"name":"tokenId","type":"uint256","internalType":"uint256"}],"outputs":[],"stateMutability":"nonpayable"},{"type":"function","name":"transferOwnership","inputs":[{"name":"newOwner","type":"address","internalType":"address"}],"outputs":[],"stateMutability":"nonpayable"},{"type":"function","name":"userBadgeToken","inputs":[{"name":"","type":"address","internalType":"address"},{"name":"","type":"bytes32","internalType":"bytes32"}],"outputs":[{"name":"","type":"uint256","internalType":"uint256"}],"stateMutability":"view"},{"type":"event","name":"Approval","inputs":[{"name":"owner","type":"address","indexed":true,"internalType":"address"},{"name":"approved","type":"address","indexed":true,"internalType":"address"},{"name":"tokenId","type":"uint256","indexed":true,"internalType":"uint256"}],"anonymous":false},{"type":"event","name":"ApprovalForAll","inputs":[{"name":"owner","type":"address","indexed":true,"internalType":"address"},{"name":"operator","type":"address","indexed":true,"internalType":"address"},{"name":"approved","type":"bool","indexed":false,"internalType":"bool"}],"anonymous":false},{"type":"event","name":"BadgeNFTBurned","inputs":[{"name":"user","type":"address","indexed":true,"internalType":"address"},{"name":"tokenId","type":"uint256","indexed":true,"internalType":"uint256"},{"name":"badge","type":"bytes32","indexed":true,"internalType":"bytes32"}],"anonymous":false},{"type":"event","name":"BadgeNFTMinted","inputs":[{"name":"user","type":"address","indexed":true,"internalType":"address"},{"name":"tokenId","type":"uint256","indexed":true,"internalType":"uint256"},{"name":"badge","type":"bytes32","indexed":true,"internalType":"bytes32"},{"name":"badgeNumber","type":"uint256","indexed":false,"internalType":"uint256"},{"name":"timestamp","type":"uint256","indexed":false,"internalType":"uint256"}],"anonymous":false},{"type":"event","name":"BatchMetadataUpdate","inputs":[{"name":"_fromTokenId","type":"uint256","indexed":false,"internalType":"uint256"},{"name":"_toTokenId","type":"uint256","indexed":false,"internalType":"uint256"}],"anonymous":false},{"type":"event","name":"Locked","inputs":[{"name":"tokenId","type":"uint256","indexed":false,"internalType":"uint256"}],"anonymous":false},{"type":"event","name":"MetadataUpdate","inputs":[{"name":"_tokenId","type":"uint256","indexed":false,"internalType":"uint256"}],"anonymous":false},{"type":"event","name":"OwnershipTransferred","inputs":[{"name":"previousOwner","type":"address","indexed":true,"internalType":"address"},{"name":"newOwner","type":"address","indexed":true,"internalType":"address"}],"anonymous":false},{"type":"event","name":"Transfer","inputs":[{"name":"from","type":"address","indexed":true,"internalType":"address"},{"name":"to","type":"address","indexed":true,"internalType":"address"},{"name":"tokenId","type":"uint256","indexed":true,"internalType":"uint256"}],"anonymous":false},{"type":"error","name":"BadgeAlreadyMinted","inputs":[{"name":"badge","type":"bytes32","internalType":"bytes32"}]},{"type":"error","name":"BadgeExpired","inputs":[{"name":"badge","type":"bytes32","internalType":"bytes32"}]},{"type":"error","name":"BadgeNotEarned","inputs":[{"name":"badge","type":"bytes32","internalType":"bytes32"}]},{"type":"error","name":"ERC721EnumerableForbiddenBatchMint","inputs":[]},{"type":"error","name":"ERC721IncorrectOwner","inputs":[{"name":"sender","type":"address","internalType":"address"},{"name":"tokenId","type":"uint256","internalType":"uint256"},{"name":"owner","type":"address","internalType":"address"}]},{"type":"error","name":"ERC721InsufficientApproval","inputs":[{"name":"operator","type":"address","internalType":"address"},{"name":"tokenId","type":"uint256","internalType":"uint256"}]},{"type":"error","name":"ERC721InvalidApprover","inputs":[{"name":"approver","type":"address","internalType":"address"}]},{"type":"error","name":"ERC721InvalidOperator","inputs":[{"name":"operator","type":"address","internalType":"address"}]},{"type":"error","name":"ERC721InvalidOwner","inputs":[{"name":"owner","type":"address","internalType":"address"}]},{"type":"error","name":"ERC721InvalidReceiver","inputs":[{"name":"receiver","type":"address","internalType":"address"}]},{"type":"error","name":"ERC721InvalidSender","inputs":[{"name":"sender","type":"address","internalType":"address"}]},{"type":"error","name":"ERC721NonexistentToken","inputs":[{"name":"tokenId","type":"uint256","internalType":"uint256"}]},{"type":"error","name":"ERC721OutOfBoundsIndex","inputs":[{"name":"owner","type":"address","internalType":"address"},{"name":"index","type":"uint256","internalType":"uint256"}]},{"type":"error","name":"InvalidBadge","inputs":[]},{"type":"error","name":"NotTokenOwner","inputs":[]},{"type":"error","name":"OwnableInvalidOwner","inputs":[{"name":"owner","type":"address","internalType":"address"}]},{"type":"error","name":"OwnableUnauthorizedAccount","inputs":[{"name":"account","type":"address","internalType":"address"}]},{"type":"error","name":"TokenIsSoulbound","inputs":[]}],"bytecode":{"object":"0x60a06040523461054b57612a31803803806100198161054f565b92833981019060408183031261054b5780516001600160a01b038116919082900361054b576020810151906001600160401b03821161054b570182601f8201121561054b578051906001600160401b03821161037157610082601f8301601f191660200161054f565b938285526020838301011161054b57815f9260208093018387015e840101526100ab604061054f565b91600b83526a564649444520426164676560a81b60208401526100ce604061054f565b600681526556424144474560d01b602082015283519092906001600160401b038111610371575f54600181811c91168015610541575b602082101461035357601f81116104df575b50602094601f821160011461047e579481929394955f92610473575b50508160011b915f199060031b1c1916175f555b82516001600160401b03811161037157600154600181811c91168015610469575b602082101461035357601f8111610406575b506020601f82116001146103a357819293945f92610398575b50508160011b915f199060031b1c1916176001555b331561038557600b8054336001600160a01b0319821681179092556001600160a01b03167f8be0079c531659141344cd1fd0a4f28419497f9722a3daafe3b4186f6b6457e05f80a360805280516001600160401b03811161037157600c54600181811c91168015610367575b602082101461035357601f81116102f0575b50602091601f8211600114610290579181925f92610285575b50508160011b915f199060031b1c191617600c555b6001600d556040516124bc9081610575823960805181818161060401528181610e07015281816118e90152611e610152f35b015190505f8061023e565b601f19821692600c5f52805f20915f5b8581106102d8575083600195106102c0575b505050811b01600c55610253565b01515f1960f88460031b161c191690555f80806102b2565b919260206001819286850151815501940192016102a0565b600c5f527fdf6966c971051c3d54ec59162606531493a51404a002842f56009d7e5cf4a8c7601f830160051c81019160208410610349575b601f0160051c01905b81811061033e5750610225565b5f8155600101610331565b9091508190610328565b634e487b7160e01b5f52602260045260245ffd5b90607f1690610213565b634e487b7160e01b5f52604160045260245ffd5b631e4fbdf760e01b5f525f60045260245ffd5b015190505f80610192565b601f1982169060015f52805f20915f5b8181106103ee575095836001959697106103d6575b505050811b016001556101a7565b01515f1960f88460031b161c191690555f80806103c8565b9192602060018192868b0151815501940192016103b3565b60015f527fb10e2d527612073b26eecdfd717e6a320cf44b4afac2b0732d9fcbe2b7fa0cf6601f830160051c8101916020841061045f575b601f0160051c01905b8181106104545750610179565b5f8155600101610447565b909150819061043e565b90607f1690610167565b015190505f80610132565b601f198216955f8052805f20915f5b8881106104c7575083600195969798106104af575b505050811b015f55610146565b01515f1960f88460031b161c191690555f80806104a2565b9192602060018192868501518155019401920161048d565b5f80527f290decd9548b62a8d60345a988386fc84ba6bc95484008f6362f93160ef3e563601f830160051c81019160208410610537575b601f0160051c01905b81811061052c5750610116565b5f815560010161051f565b9091508190610516565b90607f1690610104565b5f80fd5b6040519190601f01601f191682016001600160401b038111838210176103715760405256fe6080806040526004361015610012575f80fd5b5f3560e01c90816301ffc9a7146111bd5750806306fdde031461111b578063081812fc146110df578063095ea7b314610ff55780630a05642114610f9457806318160ddd14610f7757806323b872dd14610f605780632950c4bd14610e365780632d55ea3914610df25780632f541a6c146102d25780632f745c5914610dcb57806342842e0e14610d9c5780634f6ccce714610d4e57806355de28ae14610c9d57806355f804b314610b0e5780636352211e14610ade5780636dc14b6f14610ab4578063703edfb714610a7057806370a0823114610a4d578063715018a6146109f25780638da5cb5b146109ca57806395d89b4114610900578063a22cb46514610865578063ab5c26421461083f578063b45a3c0e14610823578063b859ed251461078a578063b88d4fde1461071c578063badb97ff1461059c578063c87b56dd14610344578063ca31e3b1146102fc578063cedd9f92146102d2578063e1f36fa8146102a8578063e985e9c514610251578063ec6858d7146102275763f2fde38b1461019d575f80fd5b34610223576020366003190112610223576101b661129a565b6101be612231565b6001600160a01b0316801561021057600b80546001600160a01b0319811683179091556001600160a01b03167f8be0079c531659141344cd1fd0a4f28419497f9722a3daafe3b4186f6b6457e05f80a3005b631e4fbdf760e01b5f525f60045260245ffd5b5f80fd5b34610223576020366003190112610223576004355f52600e602052602060405f2054604051908152f35b346102235760403660031901126102235761026a61129a565b6102726112b0565b9060018060a01b03165f52600560205260405f209060018060a01b03165f52602052602060ff60405f2054166040519015158152f35b34610223576020366003190112610223576004355f526011602052602060405f2054604051908152f35b34610223576020366003190112610223576004355f52600f602052602060405f2054604051908152f35b346102235760403660031901126102235761032161031861129a565b60243590611e18565b9061034060405192839215158352604060208401526040830190611276565b0390f35b346102235760203660031901126102235760043561036181611ff0565b50805f52600e60205260405f205490604051916354b8d5e360e01b835260048301525f8260248173__$e3a882f22bd04f7a2b17b0bf615ac922fd$__5af4918215610591575f9261056d575b506103b8825161238e565b915f5b81518110156104755760416103d082846123b6565b5160f81c10158061045d575b156104335760206103ed82846123b6565b5160f81c019060ff821161041f5760019160f81b6001600160f81b0319165f1a61041782876123b6565b535b016103bb565b634e487b7160e01b5f52601160045260245ffd5b6001906001600160f81b031961044982856123b6565b51165f1a61045782876123b6565b53610419565b50605a61046a82846123b6565b5160f81c11156103dc565b8361047f846123c7565b90604051905f90600c54610492816113ad565b906001811690811561054a5750600114610506575b50600183602061034096816104f296866005975192839101825e0190602f60f81b82528051928391018583015e0164173539b7b760d91b838201520301601a19810184520182611339565b604051918291602083526020830190611276565b909150600c5f525f5160206124675f395f51905f525f905b82821061053457505082016020019060016104a7565b600181602092548385890101520191019061051e565b60ff191660208087019190915282151590920285019091019250600190506104a7565b61058a9192503d805f833e6105828183611339565b810190611745565b90826103ad565b6040513d5f823e3d90fd5b34610223576020366003190112610223576004356105b8612231565b6105c181611ff0565b5f828152600e6020908152604091829020549151630e05e5d560e21b81526001600160a01b038416600482015260248101839052919392919081806044810103817f00000000000000000000000000000000000000000000000000000000000000006001600160a01b03165afa908115610591575f916106ed575b506106b3576001600160a01b03165f8181526010602090815260408083208684528252808320839055848352600e825280832083905560118252808320839055601290915281205561068d82612024565b7f4b824cf1efb1f2242c71f32004053c7325e040ba6c4521be0424a97ab53761485f80a4005b60405162461bcd60e51b81526020600482015260126024820152714261646765207374696c6c2061637469766560701b6044820152606490fd5b61070f915060203d602011610715575b6107078183611339565b81019061183f565b8461063c565b503d6106fd565b346102235760803660031901126102235761073561129a565b61073d6112b0565b906044356064359267ffffffffffffffff8411610223573660238501121561022357610776610788943690602481600401359101611377565b92610782838383611457565b33612258565b005b346102235760203660031901126102235760043567ffffffffffffffff8111610223573660238201121561022357806004013567ffffffffffffffff8111610223573660248260051b84010111610223576107e4816113fd565b915f5b828110156108155760019061080460248260051b85010135611865565b61080e828761142f565b52016107e7565b6040518061034086826112c6565b3461022357602036600319011261022357602060405160018152f35b3461022357602036600319011261022357602061085d600435611865565b604051908152f35b346102235760403660031901126102235761087e61129a565b60243590811515809203610223576001600160a01b03169081156108ed57335f52600560205260405f20825f5260205260405f2060ff1981541660ff83161790556040519081527f17307eab39ab6107e8899845ad3d59bd9653f200f220920489ca2b5937696c3160203392a3005b50630b61174360e31b5f5260045260245ffd5b34610223575f366003190112610223576040515f600154610920816113ad565b80845290600181169081156109a65750600114610948575b610340836104f281850382611339565b91905060015f527fb10e2d527612073b26eecdfd717e6a320cf44b4afac2b0732d9fcbe2b7fa0cf6915f905b80821061098c575090915081016020016104f2610938565b919260018160209254838588010152019101909291610974565b60ff191660208086019190915291151560051b840190910191506104f29050610938565b34610223575f36600319011261022357600b546040516001600160a01b039091168152602090f35b34610223575f36600319011261022357610a0a612231565b600b80546001600160a01b031981169091555f906001600160a01b03167f8be0079c531659141344cd1fd0a4f28419497f9722a3daafe3b4186f6b6457e08280a3005b3461022357602036600319011261022357602061085d610a6b61129a565b61180e565b34610223576040366003190112610223576001600160a01b03610a9161129a565b165f52601060205260405f206024355f52602052602060405f2054604051908152f35b34610223576020366003190112610223576004355f526012602052602060405f2054604051908152f35b34610223576020366003190112610223576020610afc600435611ff0565b6040516001600160a01b039091168152f35b346102235760203660031901126102235760043567ffffffffffffffff8111610223573660238201121561022357610b50903690602481600401359101611377565b610b58612231565b805167ffffffffffffffff8111610c8957610b74600c546113ad565b601f8111610c21575b50602091601f8211600114610bb9579181925f92610bae575b50505f19600383901b1c191660019190911b17600c55005b015190508280610b96565b601f19821692600c5f525f5160206124675f395f51905f52915f5b858110610c0957508360019510610bf1575b505050811b01600c55005b01515f1960f88460031b161c19169055828080610be6565b91926020600181928685015181550194019201610bd4565b600c5f52601f820160051c5f5160206124675f395f51905f52019060208310610c74575b601f0160051c5f5160206124675f395f51905f5201905b818110610c695750610b7d565b5f8155600101610c5c565b5f5160206124675f395f51905f529150610c45565b634e487b7160e01b5f52604160045260245ffd5b3461022357602036600319011261022357600435610cba81611ff0565b336001600160a01b0390911603610d3f575f818152600e6020908152604080832080543385526010845282852081865284528285208590558585529084905560118352818420849055601290925282209190915590610d1881612024565b337f4b824cf1efb1f2242c71f32004053c7325e040ba6c4521be0424a97ab53761485f80a4005b6359dc379f60e01b5f5260045ffd5b3461022357602036600319011261022357600435600954811015610d8657610d776020916117f6565b90549060031b1c604051908152f35b63295f44f760e21b5f525f60045260245260445ffd5b3461022357610788610dad366112ff565b9060405192610dbd602085611339565b5f8452610782838383611457565b3461022357604036600319011261022357602061085d610de961129a565b602435906117a8565b34610223575f366003190112610223576040517f00000000000000000000000000000000000000000000000000000000000000006001600160a01b03168152602090f35b3461022357602036600319011261022357600435610e5381611ff0565b50805f52600e60205260405f205473__$e3a882f22bd04f7a2b17b0bf615ac922fd$__91604051926354b8d5e360e01b84528260048501525f84602481845af4938415610591575f94610f3f575b505f602491604051928380926311cec21360e21b82528760048301525af4908115610591575f91610f25575b50815f52601160205260405f2054915f526012602052610f1660405f205491610f08604051968796875260a0602088015260a0870190611276565b908582036040870152611276565b91606084015260808301520390f35b610f3991503d805f833e6105828183611339565b84610ecd565b6024919450610f585f913d8084833e6105828183611339565b949150610ea1565b3461022357610788610f71366112ff565b91611457565b34610223575f366003190112610223576020600954604051908152f35b3461022357602036600319011261022357610fad61129a565b610fb68161180e565b610fbf816113fd565b915f5b828110610fd7576040518061034086826112c6565b80610fe4600192846117a8565b610fee828761142f565b5201610fc2565b346102235760403660031901126102235761100e61129a565b60243561101a81611ff0565b331515806110cc575b8061109f575b61108c5781906001600160a01b0384811691167f8c5be1e5ebec7d5bd14f71427d1e84f3dd0314c0f7b2291e5b200ac8c7c3b9255f80a45f90815260046020526040902080546001600160a01b0319166001600160a01b03909216919091179055005b63a9fbf51f60e01b5f523360045260245ffd5b506001600160a01b0381165f90815260056020908152604080832033845290915290205460ff1615611029565b506001600160a01b038116331415611023565b34610223576020366003190112610223576004356110fc81611ff0565b505f526004602052602060018060a01b0360405f205416604051908152f35b34610223575f366003190112610223576040515f5f5461113a816113ad565b80845290600181169081156109a6575060011461116157610340836104f281850382611339565b5f8080527f290decd9548b62a8d60345a988386fc84ba6bc95484008f6362f93160ef3e563939250905b8082106111a3575090915081016020016104f2610938565b91926001816020925483858801015201910190929161118b565b34610223576020366003190112610223576004359063ffffffff60e01b821680920361022357602091635a2d1e0760e11b81149081156111ff575b5015158152f35b63780e9d6360e01b811491508115611219575b50836111f8565b632483248360e11b811491508115611233575b5083611212565b6380ac58cd60e01b811491508115611265575b8115611254575b508361122c565b6301ffc9a760e01b1490508361124d565b635b5e139f60e01b81149150611246565b805180835260209291819084018484015e5f828201840152601f01601f1916010190565b600435906001600160a01b038216820361022357565b602435906001600160a01b038216820361022357565b60206040818301928281528451809452019201905f5b8181106112e95750505090565b82518452602093840193909201916001016112dc565b6060906003190112610223576004356001600160a01b038116810361022357906024356001600160a01b0381168103610223579060443590565b90601f8019910116810190811067ffffffffffffffff821117610c8957604052565b67ffffffffffffffff8111610c8957601f01601f191660200190565b9291926113838261135b565b916113916040519384611339565b829481845281830111610223578281602093845f960137010152565b90600182811c921680156113db575b60208310146113c757565b634e487b7160e01b5f52602260045260245ffd5b91607f16916113bc565b67ffffffffffffffff8111610c895760051b60200190565b90611407826113e5565b6114146040519182611339565b8281528092611425601f19916113e5565b0190602036910137565b80518210156114435760209160051b010190565b634e487b7160e01b5f52603260045260245ffd5b9091906001600160a01b0383168015611732575f838152600260205260409020546001600160a01b031615158061172a575b61171b575f838152600260205260409020546001600160a01b0316933315158061168b575b5084158015611658575b825f52600360205260405f2060018154019055845f52600260205260405f20836bffffffffffffffffffffffff60a01b8254161790558483877fddf252ad1be2c89b69c2b068fc378daa952ba7f163c4a11628f55a4df523b3ef5f80a4156115db57600954845f52600a6020528060405f2055600160401b811015610c895761156161154b8260018894016009556117f6565b819391549060031b91821b915f19901b19161790565b90555b81850361159b575b50506001600160a01b031680830361158357505050565b6364283d7b60e01b5f5260045260245260445260645ffd5b6115a49061180e565b5f1981019190821161041f575f52600760205260405f20815f526020528260405f2055825f52600860205260405f20555f8061156c565b848214611564576115eb8561180e565b845f52600860205260405f205490865f52600760205260405f209181810361162d575b50855f5260086020525f60408120555f526020525f6040812055611564565b815f528260205260405f2054815f52836020528060405f20555f52600860205260405f20555f61160e565b5f85815260046020526040902080546001600160a01b0319169055855f52600360205260405f205f1981540190556114b8565b806116ca575b1561169c575f6114ae565b83856116b457637e27328960e01b5f5260045260245ffd5b63177e802f60e01b5f523360045260245260445ffd5b5033851480156116f9575b8061169157505f848152600460205260409020546001600160a01b03163314611691565b505f85815260056020908152604080832033845290915290205460ff166116d5565b6358b2164f60e11b5f5260045ffd5b506001611489565b633250574960e11b5f525f60045260245ffd5b6020818303126102235780519067ffffffffffffffff8211610223570181601f82011215610223578051906117798261135b565b926117876040519485611339565b8284526020838301011161022357815f9260208093018386015e8301015290565b6117b18161180e565b8210156117d95760018060a01b03165f52600760205260405f20905f5260205260405f205490565b63295f44f760e21b5f5260018060a01b031660045260245260445ffd5b6009548110156114435760095f5260205f2001905f90565b6001600160a01b0316801561182c575f52600360205260405f205490565b6322718ad960e21b5f525f60045260245ffd5b90816020910312610223575180151581036102235790565b5f19811461041f5760010190565b906040516368f7855f60e11b815282600482015260208160248173__$e3a882f22bd04f7a2b17b0bf615ac922fd$__5af4908115610591575f91611df9575b5015611dea57335f52601060205260405f20825f5260205260405f2054611dd757604051630e05e5d560e21b8152336004820152602481018390526001600160a01b037f00000000000000000000000000000000000000000000000000000000000000001690602081604481855afa908115610591575f91611db8575b5015611da55760405163d5b37a7f60e01b81523360048201526024810184905290602090829060449082905afa908115610591575f91611d73575b508015159081611d69575b50611d5657600d5461197881611857565b600d55825f52600f60205260405f206119918154611857565b9055825f52600f60205260405f2054926020936040516119b18682611339565b5f81523315611732575f8481526002875260409020546001600160a01b0316151580611d4e575b61171b575f8481526002875260409020546001600160a01b031680158015919082611d1d575b335f81815260038b5260408082208054600101905589825260028c52812080546001600160a01b0319168317905588919084907fddf252ad1be2c89b69c2b068fc378daa952ba7f163c4a11628f55a4df523b3ef9080a415611ca757600954865f52600a89528060405f2055600160401b811015610c8957611a8a61154b8260018a94016009556117f6565b90555b338103611c6c575b50611c5957333b611b42575b50829394835f94939452600e81528360405f2055335f526010815260405f20845f5281528260405f2055825f52601181524260405f2055825f52601281528160405f20557f032bc66be43dbccb7487781d168eb7bda224628a3b2c3388bdf69b532a3a161181604051858152a160405191825242908201527fd29611f56334546db81509ec9e656d211bcf439ebed1c78700f878db8d03ff6160403392a490565b85611b7b9160405180938192630a85bd0160e11b83523360048401525f6024840152886044840152608060648401526084830190611276565b03815f335af15f9181611c19575b50611bdd57853d15611bd5573d90611ba08261135b565b91611bae6040519384611339565b82523d5f8284013e5b81519182611bd257633250574960e11b5f523360045260245ffd5b01fd5b606090611bb7565b939492939192916001600160e01b03191663757a42ff60e11b01611c0657839194939291611aa1565b633250574960e11b5f523360045260245ffd5b9091508681813d8311611c52575b611c318183611339565b8101031261022357516001600160e01b03198116810361022357905f611b89565b503d611c27565b6339e3563760e11b5f525f60045260245ffd5b611c753361180e565b5f19810190811161041f57335f526007895260405f20815f5289528660405f2055865f526008895260405f2055611a95565b338114611a8d57611cb78161180e565b865f526008895260405f205490825f5260078a5260405f2091818103611cf5575b50875f5260088a525f60408120555f5288525f6040812055611a8d565b815f52828b5260405f2054815f52838c528060405f20555f5260088b5260405f20555f611cd8565b5f8781526004602052604080822080546001600160a01b031916905583825260038b52902080545f190190556119fe565b5060016119d8565b5063d0fa39a360e01b5f5260045260245ffd5b905042115f611967565b90506020813d602011611d9d575b81611d8e60209383611339565b8101031261022357515f61195c565b3d9150611d81565b8263084a089f60e11b5f5260045260245ffd5b611dd1915060203d602011610715576107078183611339565b5f611921565b5063c9fd528f60e01b5f5260045260245ffd5b63f1fffa1560e01b5f5260045ffd5b611e12915060203d602011610715576107078183611339565b5f6118a4565b60018060a01b0381165f52601060205260405f20825f5260205260405f2054611fc057604051630e05e5d560e21b81526001600160a01b038281166004830152602482018490527f0000000000000000000000000000000000000000000000000000000000000000169290602081604481875afa908115610591575f91611fa1575b5015611f6e5760405163d5b37a7f60e01b81526001600160a01b03929092166004830152602482015290602090829060449082905afa908115610591575f91611f3c575b508015159081611f32575b50611f0557600190604051611eff602082611339565b5f815290565b5f90604051611f15604082611339565b600d81526c10985919d948195e1c1a5c9959609a1b602082015290565b905042115f611ee9565b90506020813d602011611f66575b81611f5760209383611339565b8101031261022357515f611ede565b3d9150611f4a565b5050505f90604051611f81604082611339565b601081526f10985919d9481b9bdd0819585c9b995960821b602082015290565b611fba915060203d602011610715576107078183611339565b5f611e9a565b50505f90604051611fd2604082611339565b600e81526d105b1c9958591e481b5a5b9d195960921b602082015290565b5f818152600260205260409020546001600160a01b0316908115612012575090565b637e27328960e01b5f5260045260245ffd5b5f818152600260205260409020546001600160a01b031615158061222a575b61171b575f818152600260205260409020546001600160a01b03168015908115806121f7575b5f84815260026020526040812080546001600160a01b03191690558490837fddf252ad1be2c89b69c2b068fc378daa952ba7f163c4a11628f55a4df523b3ef8280a4821561217c5750600954835f52600a6020528060405f2055600160401b811015610c89576120e361154b8260018794016009556117f6565b90555b6009545f19810190811161041f57835f52600a60205261210a60405f2054916117f6565b90549060031b1c8061211e61154b846117f6565b90555f52600a60205260405f2055825f52600a6020525f60408120556009548015612168575f190161214f816117f6565b8154905f199060031b1b19169055600955506120125750565b634e487b7160e01b5f52603160045260245ffd5b156120e65761218a8161180e565b835f52600860205260405f205490825f52600760205260405f20918181036121cc575b50845f5260086020525f60408120555f526020525f60408120556120e6565b815f528260205260405f2054815f52836020528060405f20555f52600860205260405f20555f6121ad565b5f84815260046020526040902080546001600160a01b0319169055815f52600360205260405f205f198154019055612069565b505f612043565b600b546001600160a01b0316330361224557565b63118cdaa760e01b5f523360045260245ffd5b823b612266575b5050505050565b604051630a85bd0160e11b81526001600160a01b0391821660048201529181166024830152604482019390935260806064820152911691602090829081906122b2906084830190611276565b03815f865af15f9181612349575b5061231557503d1561230e573d6122d68161135b565b906122e46040519283611339565b81523d5f602083013e5b805190816123095782633250574960e11b5f5260045260245ffd5b602001fd5b60606122ee565b6001600160e01b03191663757a42ff60e11b0161233757505f8080808061225f565b633250574960e11b5f5260045260245ffd5b9091506020813d602011612386575b8161236560209383611339565b8101031261022357516001600160e01b03198116810361022357905f6122c0565b3d9150612358565b906123988261135b565b6123a56040519182611339565b8281528092611425601f199161135b565b908151811015611443570160200190565b801561244657805f81805b61242e57506123e08161238e565b925b6123eb57505090565b5f19810190811161041f578091600a8106603001918260301161041f57600a9260f81b6001600160f81b0319165f1a9061242590866123b6565b530490816123e2565b915061243b600a91611857565b9104808392916123d2565b50604051612455604082611339565b60018152600360fc1b60208201529056fedf6966c971051c3d54ec59162606531493a51404a002842f56009d7e5cf4a8c7a2646970667358221220f10361dabb33bca5268daa53563ddebd13290112f7c93339198041924d811d5b64736f6c634300081e0033","linkReferences":{"contracts/BadgeRegistry.sol":{"BadgeRegistry":[{"start":2303,"length":20},{"start":5080,"length":20},{"start":7670,"length":20}]}}},"methodIdentifiers":{"adminBurn(uint256)":"badb97ff","approve(address,uint256)":"095ea7b3","badgeMintCount(bytes32)":"cedd9f92","badgeNumber(uint256)":"6dc14b6f","balanceOf(address)":"70a08231","burnBadge(uint256)":"55de28ae","canMintBadge(address,bytes32)":"ca31e3b1","getApproved(uint256)":"081812fc","getBadgeDetails(uint256)":"2950c4bd","getBadgeMintCount(bytes32)":"2f541a6c","getBadgesOfUser(address)":"0a056421","isApprovedForAll(address,address)":"e985e9c5","locked(uint256)":"b45a3c0e","mintBadge(bytes32)":"ab5c2642","mintBadges(bytes32[])":"b859ed25","mintTimestamp(uint256)":"e1f36fa8","name()":"06fdde03","owner()":"8da5cb5b","ownerOf(uint256)":"6352211e","renounceOwnership()":"715018a6","safeTransferFrom(address,address,uint256)":"42842e0e","safeTransferFrom(address,address,uint256,bytes)":"b88d4fde","seer()":"2d55ea39","setApprovalForAll(address,bool)":"a22cb465","setBaseURI(string)":"55f804b3","supportsInterface(bytes4)":"01ffc9a7","symbol()":"95d89b41","tokenBadge(uint256)":"ec6858d7","tokenByIndex(uint256)":"4f6ccce7","tokenOfOwnerByIndex(address,uint256)":"2f745c59","tokenURI(uint256)":"c87b56dd","totalSupply()":"18160ddd","transferFrom(address,address,uint256)":"23b872dd","transferOwnership(address)":"f2fde38b","userBadgeToken(address,bytes32)":"703edfb7"},"id":18}