{"abi":[{"type":"function","name":"ensureVault","inputs":[{"name":"owner","type":"address","internalType":"address"}],"outputs":[{"name":"","type":"address","internalType":"address"}],"stateMutability":"nonpayable"},{"type":"function","name":"isVault","inputs":[{"name":"vault","type":"address","internalType":"address"}],"outputs":[{"name":"","type":"bool","internalType":"bool"}],"stateMutability":"view"},{"type":"function","name":"isVaultMap","inputs":[{"name":"","type":"address","internalType":"address"}],"outputs":[{"name":"","type":"bool","internalType":"bool"}],"stateMutability":"view"},{"type":"function","name":"setVault","inputs":[{"name":"owner","type":"address","internalType":"address"},{"name":"vault","type":"address","internalType":"address"}],"outputs":[],"stateMutability":"nonpayable"},{"type":"function","name":"vaultOf","inputs":[{"name":"owner","type":"address","internalType":"address"}],"outputs":[{"name":"","type":"address","internalType":"address"}],"stateMutability":"view"},{"type":"function","name":"vaults","inputs":[{"name":"","type":"address","internalType":"address"}],"outputs":[{"name":"","type":"address","internalType":"address"}],"stateMutability":"view"}],"bytecode":{"object":"0x608080604052346015576102bb908161001a8239f35b5f80fdfe6080806040526004361015610012575f80fd5b5f3560e01c9081630709df451461023157508063652b9b4114610146578063714ccf7b146101c2578063a622ee7c14610183578063a75c30d5146101465763e01fd2151461005e575f80fd5b34610142576020366003190112610142576001600160a01b0361007f61026f565b165f818152602081905260409020546001600160a01b0316156100ba575b5f525f602052602060018060a01b0360405f205416604051908152f35b60405160208101828152602082526040820182811067ffffffffffffffff82111761012e576040908152915190205f838152602081815283822080546001600160a01b0319166001600160a01b0394909416938417905591815260019182905291909120805460ff1916909117905561009d565b634e487b7160e01b5f52604160045260245ffd5b5f80fd5b34610142576020366003190112610142576001600160a01b0361016761026f565b165f526001602052602060ff60405f2054166040519015158152f35b34610142576020366003190112610142576001600160a01b036101a461026f565b165f525f602052602060018060a01b0360405f205416604051908152f35b34610142576040366003190112610142576101db61026f565b6024356001600160a01b0381169190829003610142576001600160a01b03165f9081526020818152604080832080546001600160a01b03191685179055928252600190819052919020805460ff19169091179055005b34610142576020366003190112610142576020906001600160a01b0361025561026f565b165f90815280835260409020546001600160a01b03168152f35b600435906001600160a01b03821682036101425756fea2646970667358221220450e22bb204e21a3b647bd33a4ae31d3cd70dcf1fed1d7bcac57f3c7330d7f8f64736f6c634300081e0033","linkReferences":{}},"methodIdentifiers":{"ensureVault(address)":"e01fd215","isVault(address)":"652b9b41","isVaultMap(address)":"a75c30d5","setVault(address,address)":"714ccf7b","vaultOf(address)":"0709df45","vaults(address)":"a622ee7c"},"id":102}