{"abi":[{"type":"function","name":"ensureVault","inputs":[{"name":"owner","type":"address","internalType":"address"}],"outputs":[{"name":"","type":"address","internalType":"address"}],"stateMutability":"nonpayable"},{"type":"function","name":"isVault","inputs":[{"name":"vault","type":"address","internalType":"address"}],"outputs":[{"name":"","type":"bool","internalType":"bool"}],"stateMutability":"view"},{"type":"function","name":"isVaultMap","inputs":[{"name":"","type":"address","internalType":"address"}],"outputs":[{"name":"","type":"bool","internalType":"bool"}],"stateMutability":"view"},{"type":"function","name":"setVault","inputs":[{"name":"owner","type":"address","internalType":"address"},{"name":"vault","type":"address","internalType":"address"}],"outputs":[],"stateMutability":"nonpayable"},{"type":"function","name":"vaultOf","inputs":[{"name":"owner","type":"address","internalType":"address"}],"outputs":[{"name":"","type":"address","internalType":"address"}],"stateMutability":"view"},{"type":"function","name":"vaults","inputs":[{"name":"","type":"address","internalType":"address"}],"outputs":[{"name":"","type":"address","internalType":"address"}],"stateMutability":"view"}],"bytecode":{"object":"0x608080604052346015576102c0908161001a8239f35b5f80fdfe6080806040526004361015610012575f80fd5b5f3560e01c9081630709df451461023657508063652b9b411461014b578063714ccf7b146101c7578063a622ee7c14610188578063a75c30d51461014b5763e01fd2151461005e575f80fd5b34610147576020366003190112610147576001600160a01b0361007f610274565b165f818152602081905260409020546001600160a01b0316156100ba575b5f525f602052602060018060a01b0360405f205416604051908152f35b60405160208101828152602082526040820182811067ffffffffffffffff8211176101335760405260018060a01b039151902016815f525f60205260405f2060018060a01b0382166bffffffffffffffffffffffff60a01b8254161790555f52600160205260405f20600160ff1982541617905561009d565b634e487b7160e01b5f52604160045260245ffd5b5f80fd5b34610147576020366003190112610147576001600160a01b0361016c610274565b165f526001602052602060ff60405f2054166040519015158152f35b34610147576020366003190112610147576001600160a01b036101a9610274565b165f525f602052602060018060a01b0360405f205416604051908152f35b34610147576040366003190112610147576101e0610274565b6024356001600160a01b0381169190829003610147576001600160a01b03165f9081526020818152604080832080546001600160a01b03191685179055928252600190819052919020805460ff19169091179055005b34610147576020366003190112610147576020906001600160a01b0361025a610274565b165f90815280835260409020546001600160a01b03168152f35b600435906001600160a01b03821682036101475756fea2646970667358221220426f0094249fa7abcb90b3046b20bd172158c76297ad8f594d1227893b0f3dd664736f6c634300081e0033","linkReferences":{}},"methodIdentifiers":{"ensureVault(address)":"e01fd215","isVault(address)":"652b9b41","isVaultMap(address)":"a75c30d5","setVault(address,address)":"714ccf7b","vaultOf(address)":"0709df45","vaults(address)":"a622ee7c"},"id":96}