{"abi":[{"type":"constructor","inputs":[],"stateMutability":"nonpayable"},{"type":"receive","stateMutability":"payable"},{"type":"function","name":"acceptOwnership","inputs":[],"outputs":[],"stateMutability":"nonpayable"},{"type":"function","name":"getBalance","inputs":[{"name":"token","type":"address","internalType":"address"}],"outputs":[{"name":"","type":"uint256","internalType":"uint256"}],"stateMutability":"view"},{"type":"function","name":"owner","inputs":[],"outputs":[{"name":"","type":"address","internalType":"address"}],"stateMutability":"view"},{"type":"function","name":"pendingOwner","inputs":[],"outputs":[{"name":"","type":"address","internalType":"address"}],"stateMutability":"view"},{"type":"function","name":"transferOwnership","inputs":[{"name":"newOwner","type":"address","internalType":"address"}],"outputs":[],"stateMutability":"nonpayable"},{"type":"function","name":"withdraw","inputs":[{"name":"token","type":"address","internalType":"address"},{"name":"to","type":"address","internalType":"address"},{"name":"amount","type":"uint256","internalType":"uint256"}],"outputs":[],"stateMutability":"nonpayable"},{"type":"event","name":"EmergencyWithdrawal","inputs":[{"name":"token","type":"address","indexed":true,"internalType":"address"},{"name":"amount","type":"uint256","indexed":false,"internalType":"uint256"}],"anonymous":false},{"type":"event","name":"OwnershipTransferStarted","inputs":[{"name":"previousOwner","type":"address","indexed":true,"internalType":"address"},{"name":"newOwner","type":"address","indexed":true,"internalType":"address"}],"anonymous":false},{"type":"event","name":"OwnershipTransferred","inputs":[{"name":"previousOwner","type":"address","indexed":true,"internalType":"address"},{"name":"newOwner","type":"address","indexed":true,"internalType":"address"}],"anonymous":false},{"type":"event","name":"Withdrawal","inputs":[{"name":"token","type":"address","indexed":true,"internalType":"address"},{"name":"to","type":"address","indexed":true,"internalType":"address"},{"name":"amount","type":"uint256","indexed":false,"internalType":"uint256"},{"name":"by","type":"address","indexed":true,"internalType":"address"}],"anonymous":false},{"type":"error","name":"TV_NotOwner","inputs":[]},{"type":"error","name":"TV_NotPendingOwner","inputs":[]},{"type":"error","name":"TV_TransferFailed","inputs":[]},{"type":"error","name":"TV_ZeroAddress","inputs":[]},{"type":"error","name":"TV_ZeroAmount","inputs":[]}],"bytecode":{"object":"0x6080806040523460525760015f81815581546001600160a01b031916339081179092557f8be0079c531659141344cd1fd0a4f28419497f9722a3daafe3b4186f6b6457e08180a36104f390816100578239f35b5f80fdfe6080604052600436101561005d575b3615610018575f80fd5b60405162461bcd60e51b815260206004820152601b60248201527f54656d705661756c743a20455448206e6f7420616363657074656400000000006044820152606490fd5b5f3560e01c806379ba50971461040a5780638da5cb5b146103e2578063d9caed12146101f8578063e30c3978146101d0578063f2fde38b1461013c5763f8b2cb4f0361000e573461012557602036600319011261012557602460206001600160a01b036100c8610485565b16604051928380926370a0823160e01b82523060048301525afa8015610131575f906100fa575b602090604051908152f35b506020813d602011610129575b816101146020938361049b565b8101031261012557602090516100ef565b5f80fd5b3d9150610107565b6040513d5f823e3d90fd5b3461012557602036600319011261012557610155610485565b6001546001600160a01b031690338290036101c1576001600160a01b03169081156101b257600280546001600160a01b031916831790557f38d16b8cac22d99fc7c124b9cd0de2d3fa1faef420bfe791d8c362d765e227005f80a3005b63de35fa3d60e01b5f5260045ffd5b63a303eb4d60e01b5f5260045ffd5b34610125575f366003190112610125576002546040516001600160a01b039091168152602090f35b3461012557606036600319011261012557610211610485565b6024356001600160a01b038116908190036101255760015460443592906001600160a01b031633036101c15760015f54036103b05760025f5581156101b25782156103a15760018060a01b03165f80604051602081019063a9059cbb60e01b82528560248201528660448201526044815261028d60648261049b565b519082855af13d1561039a573d67ffffffffffffffff811161038657604051906102c1601f8201601f19166020018361049b565b81523d5f602083013e5b8161034e575b5015610309576040519283527ff695acaf5d7d7346d00d5877a9b12de569a2d4957907b6dac09986f9070ddefd60203394a460015f55005b60405162461bcd60e51b815260206004820152601a60248201527f5361666545524332303a207472616e73666572206661696c65640000000000006044820152606490fd5b8051801592508215610363575b5050846102d1565b81925090602091810103126101255760200151801515810361012557848061035b565b634e487b7160e01b5f52604160045260245ffd5b60606102cb565b6365d440c960e01b5f5260045ffd5b60405162461bcd60e51b815260206004820152600a6024820152697265656e7472616e637960b01b6044820152606490fd5b34610125575f366003190112610125576001546040516001600160a01b039091168152602090f35b34610125575f366003190112610125576002546001600160a01b038116330361047657600154336001600160a01b0382167f8be0079c531659141344cd1fd0a4f28419497f9722a3daafe3b4186f6b6457e05f80a36001600160a01b0319908116331760015516600255005b630c08733960e11b5f5260045ffd5b600435906001600160a01b038216820361012557565b90601f8019910116810190811067ffffffffffffffff8211176103865760405256fea2646970667358221220683b6fd744684f8dca1a95751336fa8ca9bf420fcae86717b5730db5e281fb0364736f6c634300081e0033","linkReferences":{}},"methodIdentifiers":{"acceptOwnership()":"79ba5097","getBalance(address)":"f8b2cb4f","owner()":"8da5cb5b","pendingOwner()":"e30c3978","transferOwnership(address)":"f2fde38b","withdraw(address,address,uint256)":"d9caed12"},"id":27}