{"abi":[{"type":"constructor","inputs":[{"name":"_accounts","type":"address[]","internalType":"address[]"},{"name":"_shares","type":"uint256[]","internalType":"uint256[]"}],"stateMutability":"nonpayable"},{"type":"function","name":"distribute","inputs":[{"name":"token","type":"address","internalType":"address"}],"outputs":[],"stateMutability":"nonpayable"},{"type":"function","name":"getPayees","inputs":[],"outputs":[{"name":"","type":"tuple[]","internalType":"struct RevenueSplitter.Payee[]","components":[{"name":"account","type":"address","internalType":"address"},{"name":"shareBps","type":"uint256","internalType":"uint256"}]}],"stateMutability":"view"},{"type":"function","name":"owner","inputs":[],"outputs":[{"name":"","type":"address","internalType":"address"}],"stateMutability":"view"},{"type":"function","name":"payees","inputs":[{"name":"","type":"uint256","internalType":"uint256"}],"outputs":[{"name":"account","type":"address","internalType":"address"},{"name":"shareBps","type":"uint256","internalType":"uint256"}],"stateMutability":"view"},{"type":"function","name":"totalShares","inputs":[],"outputs":[{"name":"","type":"uint256","internalType":"uint256"}],"stateMutability":"view"},{"type":"event","name":"Distributed","inputs":[{"name":"token","type":"address","indexed":true,"internalType":"address"},{"name":"totalAmount","type":"uint256","indexed":false,"internalType":"uint256"},{"name":"payeesSucceeded","type":"uint256","indexed":false,"internalType":"uint256"},{"name":"payeesFailed","type":"uint256","indexed":false,"internalType":"uint256"}],"anonymous":false},{"type":"event","name":"PayeeDistribution","inputs":[{"name":"payee","type":"address","indexed":true,"internalType":"address"},{"name":"token","type":"address","indexed":true,"internalType":"address"},{"name":"amount","type":"uint256","indexed":false,"internalType":"uint256"},{"name":"success","type":"bool","indexed":false,"internalType":"bool"}],"anonymous":false}],"bytecode":{"object":"0x6080604052346103de57610a4f8038038061001981610402565b92833981016040828203126103de5781516001600160401b0381116103de5782019181601f840112156103de57825161005961005482610427565b610402565b9360208086848152019260051b820101908482116103de57602001915b8183106103e2575050506020810151906001600160401b0382116103de57019080601f830112156103de5781516100af61005482610427565b9260208085848152019260051b8201019283116103de57602001905b8282106103ce5750505060015f5581518151036103975781511561036257331561032c57600180546001600160a01b031916331790558151915f5b83811061015e5761271060035403610127576040516105fc90816104538239f35b60405162461bcd60e51b815260206004820152600f60248201526e6d75737420657175616c203130302560881b6044820152606490fd5b6001600160a01b03610170828461043e565b5116156102f857610181818461043e565b51156102c6576001600160a01b03610199828461043e565b51166101a5828561043e565b5160408051929083016001600160401b038111848210176102b25760405282526020820190815260025490680100000000000000008210156102b257600182018060025582101561029e5760025f52915160019190911b7f405787fa12a823e0f2b7631cc41b3ba8828b3321ca811111fa75cd3aa3bb5ace810180546001600160a01b0319166001600160a01b03939093169290921790915590517f405787fa12a823e0f2b7631cc41b3ba8828b3321ca811111fa75cd3aa3bb5acf9091015561026f818461043e565b519060035491820180921161028a5760019160035501610106565b634e487b7160e01b5f52601160045260245ffd5b634e487b7160e01b5f52603260045260245ffd5b634e487b7160e01b5f52604160045260245ffd5b60405162461bcd60e51b815260206004820152600a6024820152697a65726f20736861726560b01b6044820152606490fd5b60405162461bcd60e51b815260206004820152600c60248201526b7a65726f206164647265737360a01b6044820152606490fd5b60405162461bcd60e51b815260206004820152600e60248201526d29299d103d32b9379037bbb732b960911b6044820152606490fd5b60405162461bcd60e51b815260206004820152600d60248201526c52533a206e6f2070617965657360981b6044820152606490fd5b60405162461bcd60e51b815260206004820152600f60248201526e0d8cadccee8d040dad2e6dac2e8c6d608b1b6044820152606490fd5b81518152602091820191016100cb565b5f80fd5b82516001600160a01b03811681036103de57815260209283019201610076565b6040519190601f01601f191682016001600160401b038111838210176102b257604052565b6001600160401b0381116102b25760051b60200190565b805182101561029e5760209160051b01019056fe6080806040526004361015610012575f80fd5b5f3560e01c90816327f3811314610469575080633a98ef391461044c57806363037b0c1461040057806363453ae11461007f57638da5cb5b14610053575f80fd5b3461007b575f36600319011261007b576001546040516001600160a01b039091168152602090f35b5f80fd5b3461007b57602036600319011261007b576004356001600160a01b0381169081900361007b5760015f54036103ce5760025f558015610398576040516370a0823160e01b815230600482015290602082602481845afa91821561038d575f92610359575b508115610329576002545f9290835f198201828111825b84811061013f57867ff334dc3327c53a5f7fd39f983cbad4306ff127f0ecdadf23c6f361eca5358c326060888b60405191825260208201525f6040820152a260015f55005b816102595780830361030557838603868111610259575b80610165575b506001016100fa565b97909388810180911161025957935f8061017e83610574565b505460405163a9059cbb60e01b602082019081526001600160a01b03909216602482015260448082018e905281526101b76064826105a4565b5190828c5af13d156102fe573d67ffffffffffffffff81116102ea57604051906101eb601f8201601f1916602001836105a4565b81523d5f602083013e5b816102b2575b501561026d575f19821461025957876001809301997ff3cf1198ce9d12dca448c541817e0103f879aabfcbb980ff920dd11369f52f88604061023c85610574565b50868060a01b03905416928151908152866020820152a39061015c565b634e487b7160e01b5f52601160045260245ffd5b60405162461bcd60e51b815260206004820152601a60248201527f5361666545524332303a207472616e73666572206661696c65640000000000006044820152606490fd5b80518015925082156102c7575b50508a6101fb565b819250906020918101031261007b5760200151801515810361007b578a806102bf565b634e487b7160e01b5f52604160045260245ffd5b60606101f5565b600161031082610574565b5001548087029087820403610259576127109004610156565b60405162461bcd60e51b81526020600482015260086024820152676e6f2066756e647360c01b6044820152606490fd5b9091506020813d602011610385575b81610375602093836105a4565b8101031261007b575190826100e3565b3d9150610368565b6040513d5f823e3d90fd5b60405162461bcd60e51b815260206004820152600e60248201526d29299d103d32b937903a37b5b2b760911b6044820152606490fd5b60405162461bcd60e51b815260206004820152600a6024820152697265656e7472616e637960b01b6044820152606490fd5b3461007b57602036600319011261007b5760043560025481101561007b5761042790610574565b508054600190910154604080516001600160a01b039093168352602083019190915290f35b3461007b575f36600319011261007b576020600354604051908152f35b3461007b575f36600319011261007b5760025467ffffffffffffffff81116102ea5761049b60208260051b01836105a4565b80825260208201809160025f527f405787fa12a823e0f2b7631cc41b3ba8828b3321ca811111fa75cd3aa3bb5ace915f905b82821061052d578486604051918291602083019060208452518091526040830191905f5b8181106104ff575050500390f35b825180516001600160a01b0316855260209081015181860152869550604090940193909201916001016104f1565b6040516040810181811067ffffffffffffffff8211176102ea57600192600292602092604052848060a01b03885416815284880154838201528152019401910190926104cd565b6002548110156105905760025f5260205f209060011b01905f90565b634e487b7160e01b5f52603260045260245ffd5b90601f8019910116810190811067ffffffffffffffff8211176102ea5760405256fea2646970667358221220414bb96d48cdcba2c608031aa1562d0cdfb4d4f500769127855288775587e9f864736f6c634300081e0033","linkReferences":{}},"methodIdentifiers":{"distribute(address)":"63453ae1","getPayees()":"27f38113","owner()":"8da5cb5b","payees(uint256)":"63037b0c","totalShares()":"3a98ef39"},"id":21}