{"abi":[{"type":"constructor","inputs":[{"name":"_dao","type":"address","internalType":"address"},{"name":"_vfideToken","type":"address","internalType":"address"},{"name":"_seer","type":"address","internalType":"address"}],"stateMutability":"nonpayable"},{"type":"function","name":"MAX_TIME_BONUS_BPS","inputs":[],"outputs":[{"name":"","type":"uint16","internalType":"uint16"}],"stateMutability":"view"},{"type":"function","name":"STAKE_BONUS_PERIOD","inputs":[],"outputs":[{"name":"","type":"uint256","internalType":"uint256"}],"stateMutability":"view"},{"type":"function","name":"addPool","inputs":[{"name":"lpToken","type":"address","internalType":"address"},{"name":"name","type":"string","internalType":"string"},{"name":"rewardRate","type":"uint256","internalType":"uint256"}],"outputs":[],"stateMutability":"nonpayable"},{"type":"function","name":"claimRewards","inputs":[{"name":"lpToken","type":"address","internalType":"address"}],"outputs":[],"stateMutability":"nonpayable"},{"type":"function","name":"compound","inputs":[{"name":"lpToken","type":"address","internalType":"address"}],"outputs":[],"stateMutability":"nonpayable"},{"type":"function","name":"dao","inputs":[],"outputs":[{"name":"","type":"address","internalType":"address"}],"stateMutability":"view"},{"type":"function","name":"getAllPools","inputs":[],"outputs":[{"name":"","type":"address[]","internalType":"address[]"}],"stateMutability":"view"},{"type":"function","name":"getPoolInfo","inputs":[{"name":"lpToken","type":"address","internalType":"address"}],"outputs":[{"name":"name","type":"string","internalType":"string"},{"name":"totalStaked","type":"uint256","internalType":"uint256"},{"name":"rewardRate","type":"uint256","internalType":"uint256"},{"name":"active","type":"bool","internalType":"bool"},{"name":"apr","type":"uint256","internalType":"uint256"}],"stateMutability":"view"},{"type":"function","name":"getUserStake","inputs":[{"name":"lpToken","type":"address","internalType":"address"},{"name":"user","type":"address","internalType":"address"}],"outputs":[{"name":"amount","type":"uint256","internalType":"uint256"},{"name":"stakedAt","type":"uint256","internalType":"uint256"},{"name":"stakeDuration","type":"uint256","internalType":"uint256"},{"name":"timeBonus","type":"uint256","internalType":"uint256"},{"name":"proofScoreBonus","type":"uint256","internalType":"uint256"}],"stateMutability":"view"},{"type":"function","name":"pendingRewards","inputs":[{"name":"lpToken","type":"address","internalType":"address"},{"name":"user","type":"address","internalType":"address"}],"outputs":[{"name":"base","type":"uint256","internalType":"uint256"},{"name":"withBonus","type":"uint256","internalType":"uint256"}],"stateMutability":"view"},{"type":"function","name":"poolList","inputs":[{"name":"","type":"uint256","internalType":"uint256"}],"outputs":[{"name":"","type":"address","internalType":"address"}],"stateMutability":"view"},{"type":"function","name":"pools","inputs":[{"name":"","type":"address","internalType":"address"}],"outputs":[{"name":"lpToken","type":"address","internalType":"address"},{"name":"name","type":"string","internalType":"string"},{"name":"rewardRate","type":"uint256","internalType":"uint256"},{"name":"totalStaked","type":"uint256","internalType":"uint256"},{"name":"lastUpdateTime","type":"uint256","internalType":"uint256"},{"name":"rewardPerTokenStored","type":"uint256","internalType":"uint256"},{"name":"active","type":"bool","internalType":"bool"}],"stateMutability":"view"},{"type":"function","name":"proofScoreBonusBps","inputs":[],"outputs":[{"name":"","type":"uint16","internalType":"uint16"}],"stateMutability":"view"},{"type":"function","name":"proofScoreBonusMinScore","inputs":[],"outputs":[{"name":"","type":"uint16","internalType":"uint16"}],"stateMutability":"view"},{"type":"function","name":"seer","inputs":[],"outputs":[{"name":"","type":"address","internalType":"contract ISeer"}],"stateMutability":"view"},{"type":"function","name":"setProofScoreBonus","inputs":[{"name":"minScore","type":"uint16","internalType":"uint16"},{"name":"bonusBps","type":"uint16","internalType":"uint16"}],"outputs":[],"stateMutability":"nonpayable"},{"type":"function","name":"setSeer","inputs":[{"name":"_seer","type":"address","internalType":"address"}],"outputs":[],"stateMutability":"nonpayable"},{"type":"function","name":"setUnstakeCooldown","inputs":[{"name":"cooldown","type":"uint256","internalType":"uint256"}],"outputs":[],"stateMutability":"nonpayable"},{"type":"function","name":"stake","inputs":[{"name":"lpToken","type":"address","internalType":"address"},{"name":"amount","type":"uint256","internalType":"uint256"}],"outputs":[],"stateMutability":"nonpayable"},{"type":"function","name":"unstake","inputs":[{"name":"lpToken","type":"address","internalType":"address"},{"name":"amount","type":"uint256","internalType":"uint256"}],"outputs":[],"stateMutability":"nonpayable"},{"type":"function","name":"unstakeCooldown","inputs":[],"outputs":[{"name":"","type":"uint256","internalType":"uint256"}],"stateMutability":"view"},{"type":"function","name":"updatePool","inputs":[{"name":"lpToken","type":"address","internalType":"address"},{"name":"rewardRate","type":"uint256","internalType":"uint256"},{"name":"active","type":"bool","internalType":"bool"}],"outputs":[],"stateMutability":"nonpayable"},{"type":"function","name":"userStakes","inputs":[{"name":"","type":"address","internalType":"address"},{"name":"","type":"address","internalType":"address"}],"outputs":[{"name":"amount","type":"uint256","internalType":"uint256"},{"name":"stakedAt","type":"uint256","internalType":"uint256"},{"name":"rewardPerTokenPaid","type":"uint256","internalType":"uint256"},{"name":"pendingRewards","type":"uint256","internalType":"uint256"}],"stateMutability":"view"},{"type":"function","name":"vfideToken","inputs":[],"outputs":[{"name":"","type":"address","internalType":"contract IVFIDEToken"}],"stateMutability":"view"},{"type":"event","name":"PoolAdded","inputs":[{"name":"lpToken","type":"address","indexed":true,"internalType":"address"},{"name":"rewardRate","type":"uint256","indexed":false,"internalType":"uint256"},{"name":"name","type":"string","indexed":false,"internalType":"string"}],"anonymous":false},{"type":"event","name":"PoolUpdated","inputs":[{"name":"lpToken","type":"address","indexed":true,"internalType":"address"},{"name":"rewardRate","type":"uint256","indexed":false,"internalType":"uint256"},{"name":"active","type":"bool","indexed":false,"internalType":"bool"}],"anonymous":false},{"type":"event","name":"ProofScoreBonusSet","inputs":[{"name":"minScore","type":"uint16","indexed":false,"internalType":"uint16"},{"name":"bonusBps","type":"uint16","indexed":false,"internalType":"uint16"}],"anonymous":false},{"type":"event","name":"RewardsClaimed","inputs":[{"name":"user","type":"address","indexed":true,"internalType":"address"},{"name":"lpToken","type":"address","indexed":true,"internalType":"address"},{"name":"amount","type":"uint256","indexed":false,"internalType":"uint256"}],"anonymous":false},{"type":"event","name":"Staked","inputs":[{"name":"user","type":"address","indexed":true,"internalType":"address"},{"name":"lpToken","type":"address","indexed":true,"internalType":"address"},{"name":"amount","type":"uint256","indexed":false,"internalType":"uint256"}],"anonymous":false},{"type":"event","name":"Unstaked","inputs":[{"name":"user","type":"address","indexed":true,"internalType":"address"},{"name":"lpToken","type":"address","indexed":true,"internalType":"address"},{"name":"amount","type":"uint256","indexed":false,"internalType":"uint256"}],"anonymous":false},{"type":"error","name":"LP_Cooldown","inputs":[]},{"type":"error","name":"LP_InsufficientBalance","inputs":[]},{"type":"error","name":"LP_NotActive","inputs":[]},{"type":"error","name":"LP_NotDAO","inputs":[]},{"type":"error","name":"LP_Zero","inputs":[]}],"bytecode":{"object":"0x60803461011057601f611a0a38819003918201601f19168301916001600160401b03831184841017610114578084926060946040528339810103126101105761004781610128565b90610060604061005960208401610128565b9201610128565b60015f556007805463ffffffff19166307d01b5817905562015180600855916001600160a01b0316801580156100ff575b6100f057600180546001600160a01b0319908116929092179055600280549091166001600160a01b0392831617905516806100d6575b6040516118cd908161013d8239f35b600380546001600160a01b0319169190911790555f6100c7565b63a1d1aeeb60e01b5f5260045ffd5b506001600160a01b03821615610091565b5f80fd5b634e487b7160e01b5f52604160045260245ffd5b51906001600160a01b03821682036101105756fe60806040526004361015610011575f80fd5b5f5f3560e01c806306bfa93814611186578063284dac23146111685780632950dfb31461114c5780632a48235b1461110a5780632d55ea39146110e25780633710d4c714610fa65780634162169f14610f7e5780635eb83fca14610f5d578063646ed11414610f3957806376d2847f14610e1d5780637eefd5ae14610e0057806380ac822814610cd5578063862d2d7c14610c615780638e352a3814610c44578063a3158b5314610bd1578063a4063dbc14610b2f578063adc9772e14610949578063b8a71eec14610921578063c2a672e014610817578063d88ff1f41461074f578063dd3ef44414610319578063e071c1c01461027f578063ef5cfb8c1461024e5763fe92874a14610122575f80fd5b3461024b57604036600319011261024b5760043561ffff81168091036102495760243561ffff811691828203610245576001546001600160a01b031633036102365761271081116101fd5761271083116101c4577f2d0c1b66165b218ba85f62b21e7db91efa9e610804670cc6bc6f473684757de5926040928263ffff00006007549260101b169163ffffffff1916171760075582519182526020820152a180f35b60405162461bcd60e51b81526020600482015260116024820152704c503a20696e76616c696420626f6e757360781b6044820152606490fd5b60405162461bcd60e51b81526020600482015260116024820152704c503a20696e76616c69642073636f726560781b6044820152606490fd5b6323f78ceb60e11b8452600484fd5b8380fd5b505b80fd5b503461024b57602036600319011261024b5761027861026b61125a565b6102736117e4565b611419565b6001815580f35b503461024b57602036600319011261024b5761029961125a565b6001546001600160a01b0316330361030a576001600160a01b031680156102d5576bffffffffffffffffffffffff60a01b600354161760035580f35b60405162461bcd60e51b815260206004820152600d60248201526c26281d103d32b9379039b2b2b960991b6044820152606490fd5b6323f78ceb60e11b8252600482fd5b50346105fc5760603660031901126105fc5761033361125a565b60243567ffffffffffffffff81116105fc57366023820112156105fc5780600401359167ffffffffffffffff83116105fc57602482019160248436920101116105fc5760015460443591906001600160a01b03163303610740576001600160a01b031692831561070a575f848152600460205260409020546001600160a01b03166106d35760405160e0810181811067ffffffffffffffff821117610600576040528481526103e182611503565b6103ee604051918261130e565b828152828560208301375f602084830101526020820190815260408201848152606083015f8152608084019042825260a08501925f845260c0860194600186528a5f52600460205260405f209660018060a01b039051166bffffffffffffffffffffffff60a01b88541617875560018701905180519067ffffffffffffffff82116106005761047d83546112d6565b601f811161068e575b50602090601f831160011461061f5791806006989694926104ee9b9a9896945f92610614575b50508160011b915f199060031b1c19161790555b51600287015551600386015551600485015551600584015551151591019060ff801983541691151516179055565b600554680100000000000000008110156106005780600161051292016005556112aa565b81546001600160a01b0360039290921b82811b199091169087901b1790915560025416803b156105fc575f809160446040518094819363027a35a160e31b83528a6004840152600160248401525af16105bf575b507fef06b6924aace84574dff72a6addcafcba1a2728dd504a3766c37730868f5924929181606092604051948593845260406020850152816040850152848401378181018301879052601f01601f19168101030190a280f35b6060919550916105f15f7fef06b6924aace84574dff72a6addcafcba1a2728dd504a3766c37730868f5924959461130e565b5f9591509192610566565b5f80fd5b634e487b7160e01b5f52604160045260245ffd5b015190505f806104ac565b90601f19831691845f52815f20925f5b81811061067657509260019285926104ee9d9c9a989660069c9a98961061065e575b505050811b0190556104c0565b01515f1960f88460031b161c191690555f8080610651565b9293602060018192878601518155019501930161062f565b835f5260205f20601f840160051c810191602085106106c9575b601f0160051c01905b8181106106be5750610486565b5f81556001016106b1565b90915081906106a8565b60405162461bcd60e51b815260206004820152600f60248201526e4c503a20706f6f6c2065786973747360881b6044820152606490fd5b60405162461bcd60e51b815260206004820152600e60248201526d26281d103d32b937903a37b5b2b760911b6044820152606490fd5b6323f78ceb60e11b5f5260045ffd5b346105fc575f3660031901126105fc576040518060206005549283815201809260055f527f036b6384b5eca791c62761152d0c79bb0604c104a5fb6f4eb0703f3154bb3db0905f5b8181106107f857505050816107ad91038261130e565b604051918291602083019060208452518091526040830191905f5b8181106107d6575050500390f35b82516001600160a01b03168452859450602093840193909201916001016107c8565b82546001600160a01b0316845260209093019260019283019201610797565b346105fc5760403660031901126105fc5761083061125a565b60243561083b6117e4565b6001600160a01b0382165f81815260066020908152604080832033845290915290208054919391831161091257600181019161087b8354600854906114de565b42106109035761088c90339061151f565b6108978382546114b7565b8155835f526004602052600360405f20016108b38482546114b7565b905554156108fa575b506108c88133846116ec565b6040519081527fd8654fcc8cf5b36d30b3f5e4688fc78118e6d68de60b9994e09902268b57c3e360203392a360015f55005b5f9055826108bc565b6314f7d1b160e01b5f5260045ffd5b6369379de760e11b5f5260045ffd5b346105fc575f3660031901126105fc576002546040516001600160a01b039091168152602090f35b346105fc5760403660031901126105fc5761096261125a565b60243561096d6117e4565b6001600160a01b0382165f81815260046020526040902060068101549193909160ff1615610b20578215610b11576109a690339061151f565b6040516323b872dd60e01b8152336004820152306024820152604481018390526020816064815f885af1908115610b06575f91610ad7575b5015610a9c57600390835f52600660205260405f2060018060a01b0333165f5260205260405f206001610a128583546114de565b80835591018054909181610a665750504290555b01610a328282546114de565b90556040519081527f5dac0c1b1112564a045ba943c9d50270893e8e826c49be8e7073adc713ab7bd760203392a360015f55005b610a90610a80610a9593610a7a89856114b7565b906113e8565b610a8a88426113e8565b906114de565b6113fb565b9055610a26565b60405162461bcd60e51b815260206004820152601360248201527213140e881d1c985b9cd9995c8819985a5b1959606a1b6044820152606490fd5b610af9915060203d602011610aff575b610af1818361130e565b8101906114eb565b846109de565b503d610ae7565b6040513d5f823e3d90fd5b63a1d1aeeb60e01b5f5260045ffd5b6318ec34d960e01b5f5260045ffd5b346105fc5760203660031901126105fc576001600160a01b03610b5061125a565b165f90815260046020526040902080546001600160a01b0316610b7560018301611330565b91600281015490600381015490600481015460ff600660058401549301541692610bb1604051978897885260e0602089015260e0880190611286565b9460408701526060860152608085015260a0840152151560c08301520390f35b346105fc5760203660031901126105fc57600154600435906001600160a01b031633036107405762093a808111610c0757600855005b60405162461bcd60e51b81526020600482015260156024820152744c503a20636f6f6c646f776e20746f6f206c6f6e6760581b6044820152606490fd5b346105fc575f3660031901126105fc57602060405162278d008152f35b346105fc5760403660031901126105fc57610c7a61125a565b610c82611270565b9060018060a01b03165f52600660205260405f209060018060a01b03165f52602052608060405f208054906001810154906003600282015491015491604051938452602084015260408301526060820152f35b346105fc5760403660031901126105fc57610cee61125a565b610cf6611270565b6001600160a01b039182165f90815260046020908152604080832060068352818420958516845294909152902060058301546003840154919390919081610d86575b60406001610d7a8688610d6f88670de0b6b3a7640000610d68600385015492610a7a8654916002880154906114b7565b04906114de565b9384910154916115d7565b82519182526020820152f35b806002610d9d6004610da6949795970154426114b7565b910154906113e8565b93670de0b6b3a7640000850294808604670de0b6b3a76400001490151715610dec57610d6f610de0610d7a94610a8a6001976040996113fb565b93505093819350610d38565b634e487b7160e01b5f52601160045260245ffd5b346105fc575f3660031901126105fc576020600854604051908152f35b346105fc5760603660031901126105fc57610e3661125a565b60243590604435801515928382036105fc576001546001600160a01b03163303610740576001600160a01b038381165f818152600460205260409020549095911615610eff57610ef26040937fb58834628de8844e54737a7b3dee073e838fe9596e8e74c2698344f5c421ce8995875f526004602052610eb8865f2091611825565b6005820155600442910155865f526004602052836002865f200155865f5260046020526006855f20019060ff801983541691151516179055565b82519182526020820152a2005b60405162461bcd60e51b815260206004820152601260248201527113140e881c1bdbdb081b9bdd08199bdd5b9960721b6044820152606490fd5b346105fc575f3660031901126105fc57602061ffff60075460101c16604051908152f35b346105fc575f3660031901126105fc57602061ffff60075416604051908152f35b346105fc575f3660031901126105fc576001546040516001600160a01b039091168152602090f35b346105fc5760403660031901126105fc57610fbf61125a565b610fc7611270565b905f9060018060a01b03165f52600660205260405f2060018060a01b0383165f5260205260405f20906001825492015461100181426114b7565b62278d0081106110ce57611388915b6003546001600160a01b03169586611044575b5060a095506040519485526020850152604084015260608301526080820152f35b604051630d47875d60e41b81526001600160a01b03909116600482015295602090879060249082905afa8015610b065760a0965f9161109f575b506007549061ffff8083169116106110235760101c61ffff16935086611023565b6110c1915060203d6020116110c7575b6110b9818361130e565b8101906114c4565b8761107e565b503d6110af565b62278d006110db826113d0565b0491611010565b346105fc575f3660031901126105fc576003546040516001600160a01b039091168152602090f35b346105fc5760203660031901126105fc576004356005548110156105fc576111336020916112aa565b905460405160039290921b1c6001600160a01b03168152f35b346105fc575f3660031901126105fc5760206040516113888152f35b346105fc5760203660031901126105fc5761118461027361125a565b005b346105fc5760203660031901126105fc5761119f61125a565b6001600160a01b03165f908152600460205260408120906111c260018301611330565b9060038301549060ff60066002860154950154169382611211575b936111f69460405195869560a0875260a0870190611286565b93602086015260408501521515606084015260808301520390f35b90506301e133808102938185046301e133801482151715610dec5764496cebb8008202948086046127101490151715610dec57611251836111f6966113fb565b919094506111dd565b600435906001600160a01b03821682036105fc57565b602435906001600160a01b03821682036105fc57565b805180835260209291819084018484015e5f828201840152601f01601f1916010190565b6005548110156112c25760055f5260205f2001905f90565b634e487b7160e01b5f52603260045260245ffd5b90600182811c92168015611304575b60208310146112f057565b634e487b7160e01b5f52602260045260245ffd5b91607f16916112e5565b90601f8019910116810190811067ffffffffffffffff82111761060057604052565b9060405191825f825492611343846112d6565b80845293600181169081156113ae575060011461136a575b506113689250038361130e565b565b90505f9291925260205f20905f915b818310611392575050906020611368928201015f61135b565b6020919350806001915483858901015201910190918492611379565b90506020925061136894915060ff191682840152151560051b8201015f61135b565b906113888202918083046113881490151715610dec57565b81810292918115918404141715610dec57565b8115611405570490565b634e487b7160e01b5f52601260045260245ffd5b611423338261151f565b6001600160a01b03165f81815260066020908152604080832033845290915290206003810180549081611457575b50505050565b611469925f60019255015490336115d7565b60025461148290829033906001600160a01b03166116ec565b6040519081527f9310ccfcb8de723f578a9e4282ea9f521f05ae40dc08f3068dfad528a65ee3c760203392a35f808080611451565b91908203918211610dec57565b908160209103126105fc575161ffff811681036105fc5790565b91908201809211610dec57565b908160209103126105fc575180151581036105fc5790565b67ffffffffffffffff811161060057601f01601f191660200190565b6001600160a01b0381165f818152600460205260409020909261154183611825565b60058301908155426004909301929092556001600160a01b0381166115665750505050565b5f9384526006602090815260408086206001600160a01b03909316808752838352908620955252600383015483546002936115c59291670de0b6b3a764000091610d689190610a7a90899089906115bc90611825565b910154906114b7565b6003840155549101555f808080611451565b91811580156116e4575b6116de576115f05f91426114b7565b62278d0081106116c857506113888101809111610dec57915b6003546001600160a01b03169081611631575b5050612710610d6861162e93836113e8565b90565b604051630d47875d60e41b81526001600160a01b03909116600482015290602090829060249082905afa908115610b065761162e9361271092610d68925f916116a9575b506007549061ffff80831691161015611691575b50935061161c565b9061ffff6116a39260101c16906114de565b5f611689565b6116c2915060203d6020116110c7576110b9818361130e565b5f611675565b62278d0091506116d7906113d0565b0491611609565b50905090565b5080156115e1565b5f929183809360405190602082019363a9059cbb60e01b855260018060a01b0316602483015260448201526044815261172660648261130e565b51926001600160a01b03165af13d156117dd573d61174381611503565b90611751604051928361130e565b81523d5f602083013e5b816117ae575b501561176957565b60405162461bcd60e51b815260206004820152601a60248201527f5361666545524332303a207472616e73666572206661696c65640000000000006044820152606490fd5b80518015925082156117c3575b50505f611761565b6117d692506020809183010191016114eb565b5f806117bb565b606061175b565b60015f54036117f35760025f55565b60405162461bcd60e51b815260206004820152600a6024820152697265656e7472616e637960b01b6044820152606490fd5b6001600160a01b03165f908152600460205260409020600381015490811561188e576118606005820154916002610d9d6004830154426114b7565b670de0b6b3a7640000810290808204670de0b6b3a76400001490151715610dec5761162e92610a8a916113fb565b6005915001549056fea26469706673582212200f837c0f19fcdce6ae9224cca53bf10e56d45a12274c129418231d62ac76130964736f6c634300081e0033","linkReferences":{}},"methodIdentifiers":{"MAX_TIME_BONUS_BPS()":"2950dfb3","STAKE_BONUS_PERIOD()":"8e352a38","addPool(address,string,uint256)":"dd3ef444","claimRewards(address)":"ef5cfb8c","compound(address)":"284dac23","dao()":"4162169f","getAllPools()":"d88ff1f4","getPoolInfo(address)":"06bfa938","getUserStake(address,address)":"3710d4c7","pendingRewards(address,address)":"80ac8228","poolList(uint256)":"2a48235b","pools(address)":"a4063dbc","proofScoreBonusBps()":"646ed114","proofScoreBonusMinScore()":"5eb83fca","seer()":"2d55ea39","setProofScoreBonus(uint16,uint16)":"fe92874a","setSeer(address)":"e071c1c0","setUnstakeCooldown(uint256)":"a3158b53","stake(address,uint256)":"adc9772e","unstake(address,uint256)":"c2a672e0","unstakeCooldown()":"7eefd5ae","updatePool(address,uint256,bool)":"76d2847f","userStakes(address,address)":"862d2d7c","vfideToken()":"b8a71eec"},"id":9}