{"abi":[{"type":"function","name":"approve","inputs":[{"name":"token","type":"address","internalType":"address"},{"name":"spender","type":"address","internalType":"address"},{"name":"amount","type":"uint256","internalType":"uint256"}],"outputs":[],"stateMutability":"nonpayable"}],"bytecode":{"object":"0x60808060405234601557610124908161001a8239f35b5f80fdfe60808060405260043610156011575f80fd5b5f3560e01c63e1f21c67146023575f80fd5b3460c557606036600319011260c5576004356001600160a01b0381169081900360c5576024356001600160a01b038116919082900360c5576044835f819360209563095ea7b360e01b84526004840152833560248401525af1801560e357608657005b60203d60201160dd575b601f8101601f1916820167ffffffffffffffff81118382101760c95760209183916040528101031260c557518015150360c557005b5f80fd5b634e487b7160e01b5f52604160045260245ffd5b503d6090565b6040513d5f823e3d90fdfea26469706673582212204ff28f90f2726e75b07ea6d428ba704afa71d9951896c47bd72099657d8fb4f264736f6c634300081e0033","linkReferences":{}},"methodIdentifiers":{"approve(address,address,uint256)":"e1f21c67"},"id":89}