{
  "_format": "hh-sol-artifact-1",
  "contractName": "SeerSocial",
  "sourceName": "contracts/SeerSocial.sol",
  "abi": [
    {
      "inputs": [
        {
          "internalType": "address",
          "name": "_seer",
          "type": "address"
        }
      ],
      "stateMutability": "nonpayable",
      "type": "constructor"
    },
    {
      "inputs": [],
      "name": "SOCIAL_Bounds",
      "type": "error"
    },
    {
      "inputs": [],
      "name": "SOCIAL_EndorseExists",
      "type": "error"
    },
    {
      "inputs": [],
      "name": "SOCIAL_EndorseLimit",
      "type": "error"
    },
    {
      "inputs": [],
      "name": "SOCIAL_InvalidEndorse",
      "type": "error"
    },
    {
      "inputs": [],
      "name": "SOCIAL_NotDAO",
      "type": "error"
    },
    {
      "inputs": [],
      "name": "SOCIAL_Paused",
      "type": "error"
    },
    {
      "inputs": [],
      "name": "SOCIAL_Zero",
      "type": "error"
    },
    {
      "anonymous": false,
      "inputs": [
        {
          "indexed": true,
          "internalType": "address",
          "name": "subject",
          "type": "address"
        },
        {
          "indexed": false,
          "internalType": "string",
          "name": "reason",
          "type": "string"
        }
      ],
      "name": "AppealFiled",
      "type": "event"
    },
    {
      "anonymous": false,
      "inputs": [
        {
          "indexed": true,
          "internalType": "address",
          "name": "subject",
          "type": "address"
        },
        {
          "indexed": false,
          "internalType": "bool",
          "name": "approved",
          "type": "bool"
        },
        {
          "indexed": false,
          "internalType": "string",
          "name": "resolution",
          "type": "string"
        }
      ],
      "name": "AppealResolved",
      "type": "event"
    },
    {
      "anonymous": false,
      "inputs": [],
      "name": "EndorsementPolicySet",
      "type": "event"
    },
    {
      "anonymous": false,
      "inputs": [
        {
          "indexed": true,
          "internalType": "address",
          "name": "mentor",
          "type": "address"
        },
        {
          "indexed": true,
          "internalType": "address",
          "name": "mentee",
          "type": "address"
        }
      ],
      "name": "MenteeRemoved",
      "type": "event"
    },
    {
      "anonymous": false,
      "inputs": [
        {
          "indexed": true,
          "internalType": "address",
          "name": "mentor",
          "type": "address"
        },
        {
          "indexed": true,
          "internalType": "address",
          "name": "mentee",
          "type": "address"
        }
      ],
      "name": "MenteeSponsored",
      "type": "event"
    },
    {
      "anonymous": false,
      "inputs": [
        {
          "indexed": false,
          "internalType": "uint16",
          "name": "minScore",
          "type": "uint16"
        },
        {
          "indexed": false,
          "internalType": "uint16",
          "name": "maxMentees",
          "type": "uint16"
        }
      ],
      "name": "MentorConfigUpdated",
      "type": "event"
    },
    {
      "anonymous": false,
      "inputs": [
        {
          "indexed": true,
          "internalType": "address",
          "name": "mentor",
          "type": "address"
        }
      ],
      "name": "MentorRegistered",
      "type": "event"
    },
    {
      "anonymous": false,
      "inputs": [
        {
          "indexed": true,
          "internalType": "address",
          "name": "mentor",
          "type": "address"
        }
      ],
      "name": "MentorRevoked",
      "type": "event"
    },
    {
      "anonymous": false,
      "inputs": [
        {
          "indexed": true,
          "internalType": "address",
          "name": "subject",
          "type": "address"
        },
        {
          "indexed": false,
          "internalType": "string",
          "name": "reason",
          "type": "string"
        }
      ],
      "name": "ScoreDisputeRequested",
      "type": "event"
    },
    {
      "anonymous": false,
      "inputs": [
        {
          "indexed": true,
          "internalType": "address",
          "name": "subject",
          "type": "address"
        },
        {
          "indexed": false,
          "internalType": "bool",
          "name": "approved",
          "type": "bool"
        },
        {
          "indexed": false,
          "internalType": "int256",
          "name": "adjustment",
          "type": "int256"
        }
      ],
      "name": "ScoreDisputeResolved",
      "type": "event"
    },
    {
      "anonymous": false,
      "inputs": [
        {
          "indexed": true,
          "internalType": "address",
          "name": "endorser",
          "type": "address"
        },
        {
          "indexed": true,
          "internalType": "address",
          "name": "subject",
          "type": "address"
        },
        {
          "indexed": false,
          "internalType": "uint16",
          "name": "weight",
          "type": "uint16"
        },
        {
          "indexed": false,
          "internalType": "uint64",
          "name": "expiry",
          "type": "uint64"
        },
        {
          "indexed": false,
          "internalType": "string",
          "name": "reason",
          "type": "string"
        }
      ],
      "name": "UserEndorsed",
      "type": "event"
    },
    {
      "inputs": [
        {
          "internalType": "address",
          "name": "",
          "type": "address"
        }
      ],
      "name": "appeals",
      "outputs": [
        {
          "internalType": "address",
          "name": "requester",
          "type": "address"
        },
        {
          "internalType": "string",
          "name": "reason",
          "type": "string"
        },
        {
          "internalType": "uint64",
          "name": "timestamp",
          "type": "uint64"
        },
        {
          "internalType": "bool",
          "name": "resolved",
          "type": "bool"
        },
        {
          "internalType": "bool",
          "name": "approved",
          "type": "bool"
        },
        {
          "internalType": "string",
          "name": "resolution",
          "type": "string"
        }
      ],
      "stateMutability": "view",
      "type": "function"
    },
    {
      "inputs": [],
      "name": "becomeMentor",
      "outputs": [],
      "stateMutability": "nonpayable",
      "type": "function"
    },
    {
      "inputs": [
        {
          "internalType": "address",
          "name": "subject",
          "type": "address"
        }
      ],
      "name": "calculateEndorsementBonus",
      "outputs": [
        {
          "internalType": "uint256",
          "name": "bonus",
          "type": "uint256"
        }
      ],
      "stateMutability": "view",
      "type": "function"
    },
    {
      "inputs": [
        {
          "internalType": "address",
          "name": "subject",
          "type": "address"
        },
        {
          "internalType": "string",
          "name": "reason",
          "type": "string"
        }
      ],
      "name": "endorse",
      "outputs": [],
      "stateMutability": "nonpayable",
      "type": "function"
    },
    {
      "inputs": [],
      "name": "endorsementBaseValue",
      "outputs": [
        {
          "internalType": "uint16",
          "name": "",
          "type": "uint16"
        }
      ],
      "stateMutability": "view",
      "type": "function"
    },
    {
      "inputs": [],
      "name": "endorsementBonusCap",
      "outputs": [
        {
          "internalType": "uint16",
          "name": "",
          "type": "uint16"
        }
      ],
      "stateMutability": "view",
      "type": "function"
    },
    {
      "inputs": [],
      "name": "endorsementCooldown",
      "outputs": [
        {
          "internalType": "uint64",
          "name": "",
          "type": "uint64"
        }
      ],
      "stateMutability": "view",
      "type": "function"
    },
    {
      "inputs": [],
      "name": "endorsementMaxPerEndorser",
      "outputs": [
        {
          "internalType": "uint16",
          "name": "",
          "type": "uint16"
        }
      ],
      "stateMutability": "view",
      "type": "function"
    },
    {
      "inputs": [],
      "name": "endorsementValidity",
      "outputs": [
        {
          "internalType": "uint64",
          "name": "",
          "type": "uint64"
        }
      ],
      "stateMutability": "view",
      "type": "function"
    },
    {
      "inputs": [
        {
          "internalType": "address",
          "name": "",
          "type": "address"
        },
        {
          "internalType": "address",
          "name": "",
          "type": "address"
        }
      ],
      "name": "endorsements",
      "outputs": [
        {
          "internalType": "uint64",
          "name": "expiry",
          "type": "uint64"
        },
        {
          "internalType": "uint16",
          "name": "weight",
          "type": "uint16"
        },
        {
          "internalType": "uint64",
          "name": "timestamp",
          "type": "uint64"
        }
      ],
      "stateMutability": "view",
      "type": "function"
    },
    {
      "inputs": [
        {
          "internalType": "address",
          "name": "",
          "type": "address"
        }
      ],
      "name": "endorsementsGiven",
      "outputs": [
        {
          "internalType": "uint16",
          "name": "",
          "type": "uint16"
        }
      ],
      "stateMutability": "view",
      "type": "function"
    },
    {
      "inputs": [
        {
          "internalType": "address",
          "name": "",
          "type": "address"
        }
      ],
      "name": "endorsementsReceived",
      "outputs": [
        {
          "internalType": "uint16",
          "name": "",
          "type": "uint16"
        }
      ],
      "stateMutability": "view",
      "type": "function"
    },
    {
      "inputs": [
        {
          "internalType": "string",
          "name": "reason",
          "type": "string"
        }
      ],
      "name": "fileAppeal",
      "outputs": [],
      "stateMutability": "nonpayable",
      "type": "function"
    },
    {
      "inputs": [
        {
          "internalType": "address",
          "name": "subject",
          "type": "address"
        }
      ],
      "name": "getActiveEndorsements",
      "outputs": [
        {
          "internalType": "address[]",
          "name": "endorsers",
          "type": "address[]"
        },
        {
          "internalType": "uint16[]",
          "name": "weights",
          "type": "uint16[]"
        },
        {
          "internalType": "uint64[]",
          "name": "expiries",
          "type": "uint64[]"
        },
        {
          "internalType": "uint64[]",
          "name": "timestamps",
          "type": "uint64[]"
        }
      ],
      "stateMutability": "view",
      "type": "function"
    },
    {
      "inputs": [
        {
          "internalType": "address",
          "name": "subject",
          "type": "address"
        }
      ],
      "name": "getAppealInfo",
      "outputs": [
        {
          "internalType": "bool",
          "name": "hasAppeal",
          "type": "bool"
        },
        {
          "internalType": "bool",
          "name": "appealResolved",
          "type": "bool"
        },
        {
          "internalType": "bool",
          "name": "appealApproved",
          "type": "bool"
        },
        {
          "internalType": "uint64",
          "name": "appealTimestamp",
          "type": "uint64"
        },
        {
          "internalType": "string",
          "name": "appealReason",
          "type": "string"
        },
        {
          "internalType": "string",
          "name": "appealResolution",
          "type": "string"
        }
      ],
      "stateMutability": "view",
      "type": "function"
    },
    {
      "inputs": [
        {
          "internalType": "address",
          "name": "subject",
          "type": "address"
        }
      ],
      "name": "getDisputeInfo",
      "outputs": [
        {
          "internalType": "bool",
          "name": "hasDispute",
          "type": "bool"
        },
        {
          "internalType": "bool",
          "name": "disputeResolved",
          "type": "bool"
        },
        {
          "internalType": "bool",
          "name": "disputeApproved",
          "type": "bool"
        },
        {
          "internalType": "uint64",
          "name": "disputeTimestamp",
          "type": "uint64"
        },
        {
          "internalType": "string",
          "name": "disputeReason",
          "type": "string"
        }
      ],
      "stateMutability": "view",
      "type": "function"
    },
    {
      "inputs": [
        {
          "internalType": "address",
          "name": "subject",
          "type": "address"
        }
      ],
      "name": "getEndorsementStats",
      "outputs": [
        {
          "internalType": "uint16",
          "name": "activeEndorsers",
          "type": "uint16"
        },
        {
          "internalType": "uint16",
          "name": "activeBonus",
          "type": "uint16"
        },
        {
          "internalType": "uint16",
          "name": "endorsementsYouGave",
          "type": "uint16"
        }
      ],
      "stateMutability": "view",
      "type": "function"
    },
    {
      "inputs": [
        {
          "internalType": "address",
          "name": "mentor",
          "type": "address"
        }
      ],
      "name": "getMentees",
      "outputs": [
        {
          "internalType": "address[]",
          "name": "",
          "type": "address[]"
        }
      ],
      "stateMutability": "view",
      "type": "function"
    },
    {
      "inputs": [
        {
          "internalType": "address",
          "name": "subject",
          "type": "address"
        }
      ],
      "name": "getMentorInfo",
      "outputs": [
        {
          "internalType": "bool",
          "name": "isMentorUser",
          "type": "bool"
        },
        {
          "internalType": "address",
          "name": "mentor",
          "type": "address"
        },
        {
          "internalType": "uint16",
          "name": "menteeCount",
          "type": "uint16"
        },
        {
          "internalType": "bool",
          "name": "hasMentor",
          "type": "bool"
        },
        {
          "internalType": "bool",
          "name": "canBecome",
          "type": "bool"
        },
        {
          "internalType": "uint16",
          "name": "minScore",
          "type": "uint16"
        },
        {
          "internalType": "uint16",
          "name": "currentScore",
          "type": "uint16"
        }
      ],
      "stateMutability": "view",
      "type": "function"
    },
    {
      "inputs": [
        {
          "internalType": "address",
          "name": "",
          "type": "address"
        }
      ],
      "name": "lastActivity",
      "outputs": [
        {
          "internalType": "uint64",
          "name": "",
          "type": "uint64"
        }
      ],
      "stateMutability": "view",
      "type": "function"
    },
    {
      "inputs": [
        {
          "internalType": "address",
          "name": "",
          "type": "address"
        }
      ],
      "name": "lastEndorseTime",
      "outputs": [
        {
          "internalType": "uint64",
          "name": "",
          "type": "uint64"
        }
      ],
      "stateMutability": "view",
      "type": "function"
    },
    {
      "inputs": [],
      "name": "maxActiveGivenPerUser",
      "outputs": [
        {
          "internalType": "uint16",
          "name": "",
          "type": "uint16"
        }
      ],
      "stateMutability": "view",
      "type": "function"
    },
    {
      "inputs": [],
      "name": "maxEndorsersPerSubject",
      "outputs": [
        {
          "internalType": "uint16",
          "name": "",
          "type": "uint16"
        }
      ],
      "stateMutability": "view",
      "type": "function"
    },
    {
      "inputs": [],
      "name": "maxMenteesPerMentor",
      "outputs": [
        {
          "internalType": "uint16",
          "name": "",
          "type": "uint16"
        }
      ],
      "stateMutability": "view",
      "type": "function"
    },
    {
      "inputs": [
        {
          "internalType": "address",
          "name": "",
          "type": "address"
        }
      ],
      "name": "mentorOf",
      "outputs": [
        {
          "internalType": "address",
          "name": "",
          "type": "address"
        }
      ],
      "stateMutability": "view",
      "type": "function"
    },
    {
      "inputs": [
        {
          "internalType": "address",
          "name": "",
          "type": "address"
        }
      ],
      "name": "mentors",
      "outputs": [
        {
          "internalType": "bool",
          "name": "",
          "type": "bool"
        }
      ],
      "stateMutability": "view",
      "type": "function"
    },
    {
      "inputs": [],
      "name": "minScoreToEndorse",
      "outputs": [
        {
          "internalType": "uint16",
          "name": "",
          "type": "uint16"
        }
      ],
      "stateMutability": "view",
      "type": "function"
    },
    {
      "inputs": [],
      "name": "minScoreToMentor",
      "outputs": [
        {
          "internalType": "uint16",
          "name": "",
          "type": "uint16"
        }
      ],
      "stateMutability": "view",
      "type": "function"
    },
    {
      "inputs": [],
      "name": "pendingAppealCount",
      "outputs": [
        {
          "internalType": "uint256",
          "name": "",
          "type": "uint256"
        }
      ],
      "stateMutability": "view",
      "type": "function"
    },
    {
      "inputs": [],
      "name": "pendingDisputeCount",
      "outputs": [
        {
          "internalType": "uint256",
          "name": "",
          "type": "uint256"
        }
      ],
      "stateMutability": "view",
      "type": "function"
    },
    {
      "inputs": [
        {
          "internalType": "address",
          "name": "subject",
          "type": "address"
        }
      ],
      "name": "pruneEndorsements",
      "outputs": [],
      "stateMutability": "nonpayable",
      "type": "function"
    },
    {
      "inputs": [
        {
          "internalType": "address",
          "name": "mentee",
          "type": "address"
        }
      ],
      "name": "removeMentee",
      "outputs": [],
      "stateMutability": "nonpayable",
      "type": "function"
    },
    {
      "inputs": [
        {
          "internalType": "string",
          "name": "reason",
          "type": "string"
        }
      ],
      "name": "requestScoreReview",
      "outputs": [],
      "stateMutability": "nonpayable",
      "type": "function"
    },
    {
      "inputs": [
        {
          "internalType": "address",
          "name": "subject",
          "type": "address"
        },
        {
          "internalType": "bool",
          "name": "approved",
          "type": "bool"
        },
        {
          "internalType": "string",
          "name": "resolution",
          "type": "string"
        }
      ],
      "name": "resolveAppeal",
      "outputs": [],
      "stateMutability": "nonpayable",
      "type": "function"
    },
    {
      "inputs": [
        {
          "internalType": "address",
          "name": "subject",
          "type": "address"
        },
        {
          "internalType": "bool",
          "name": "approved",
          "type": "bool"
        },
        {
          "internalType": "int16",
          "name": "adjustment",
          "type": "int16"
        }
      ],
      "name": "resolveScoreDispute",
      "outputs": [],
      "stateMutability": "nonpayable",
      "type": "function"
    },
    {
      "inputs": [
        {
          "internalType": "address",
          "name": "mentor",
          "type": "address"
        }
      ],
      "name": "revokeMentor",
      "outputs": [],
      "stateMutability": "nonpayable",
      "type": "function"
    },
    {
      "inputs": [
        {
          "internalType": "address",
          "name": "",
          "type": "address"
        }
      ],
      "name": "scoreDisputes",
      "outputs": [
        {
          "internalType": "address",
          "name": "requester",
          "type": "address"
        },
        {
          "internalType": "string",
          "name": "reason",
          "type": "string"
        },
        {
          "internalType": "uint64",
          "name": "timestamp",
          "type": "uint64"
        },
        {
          "internalType": "bool",
          "name": "resolved",
          "type": "bool"
        },
        {
          "internalType": "bool",
          "name": "approved",
          "type": "bool"
        }
      ],
      "stateMutability": "view",
      "type": "function"
    },
    {
      "inputs": [],
      "name": "seer",
      "outputs": [
        {
          "internalType": "contract ISeerCore",
          "name": "",
          "type": "address"
        }
      ],
      "stateMutability": "view",
      "type": "function"
    },
    {
      "inputs": [
        {
          "internalType": "uint16",
          "name": "baseValue",
          "type": "uint16"
        },
        {
          "internalType": "uint16",
          "name": "maxPerEndorser",
          "type": "uint16"
        },
        {
          "internalType": "uint16",
          "name": "bonusCap",
          "type": "uint16"
        },
        {
          "internalType": "uint16",
          "name": "maxPerSubject",
          "type": "uint16"
        },
        {
          "internalType": "uint16",
          "name": "maxGiven",
          "type": "uint16"
        },
        {
          "internalType": "uint64",
          "name": "validity",
          "type": "uint64"
        },
        {
          "internalType": "uint64",
          "name": "cooldown",
          "type": "uint64"
        },
        {
          "internalType": "uint16",
          "name": "minScore",
          "type": "uint16"
        }
      ],
      "name": "setEndorsementPolicy",
      "outputs": [],
      "stateMutability": "nonpayable",
      "type": "function"
    },
    {
      "inputs": [
        {
          "internalType": "uint16",
          "name": "minScore",
          "type": "uint16"
        },
        {
          "internalType": "uint16",
          "name": "maxMentees",
          "type": "uint16"
        }
      ],
      "name": "setMentorConfig",
      "outputs": [],
      "stateMutability": "nonpayable",
      "type": "function"
    },
    {
      "inputs": [
        {
          "internalType": "address",
          "name": "_seer",
          "type": "address"
        }
      ],
      "name": "setSeer",
      "outputs": [],
      "stateMutability": "nonpayable",
      "type": "function"
    },
    {
      "inputs": [
        {
          "internalType": "address",
          "name": "mentee",
          "type": "address"
        }
      ],
      "name": "sponsorMentee",
      "outputs": [],
      "stateMutability": "nonpayable",
      "type": "function"
    }
  ],
  "bytecode": "0x60803460c857601f613b8938819003918201601f19168301916001600160401b0383118484101760cd5780849260209460405283398101031260c857516001600160a01b0381169081900360c857600780547b1b580000000000015180000000000076a7000032001905dc005000286001600160e01b0319909116179055600b805463ffffffff191662321c20179055801560b757600080546001600160a01b031916919091179055604051613aa590816100e48239f35b63fbe40e4960e01b60005260046000fd5b600080fd5b634e487b7160e01b600052604160045260246000fdfe608080604052600436101561001357600080fd5b60003560e01c908163024caec714612ebc575080631017817c14612d1a578063103f882914612c845780631121834f1461299b578063246683ce14612977578063257076dd146128fc57806327758b17146128be5780632b7ffc951461289c5780632d55ea3914612873578063338dcc9f146127cb5780633af2cac7146127a05780634b9707c4146125895780634cbb2f221461255f5780634d4efe8e146120a15780635037fc7d14611ff257806351c131f514611dcc57806359f827ad14611d8a5780635abfe2cf146118245780636c0100951461171957806372f557ee146116f4578063900acd80146116d657806391fa84321461164c57806394c30e1a1461160e57806399f68ac7146115e95780639beeb534146114e8578063a5d4e063146113d5578063a8a89dc0146110db578063af21686114610d10578063b2746eed14610ceb578063b3a5df9e14610ccd578063b7e2bf2f14610c8a578063bfda418114610962578063c1c446211461093d578063dc99e341146106ab578063e071c1c0146105dd578063e3bf0aff1461055b578063e7244bbd146104c3578063e7cce5d61461049e578063eed4ea8f1461045f578063f07e96b31461041c578063f9c4f4d9146102145763fa41d56a146101ed57600080fd5b3461020f57600036600319011261020f57602061ffff600b5416604051908152f35b600080fd5b3461020f57600036600319011261020f57600054604051635c975abb60e01b81526001600160a01b0390911690602081600481855afa908115610392576000916103ed575b506103dc5733600052600860205260ff6040600020541661039e57602060249160405192838092630d47875d60e41b82523360048301525afa90811561039257600091610363575b5061ffff80600b5416911610610326573360005260086020526040600020600160ff19825416179055337f900045c2cd74602d2cc377fa4ab9861abb55c4333c29ac3866c52d2bcb3f09a7600080a2610324604051610301604082612f55565b60118152701b595b9d1bdc97dc9959da5cdd195c9959607a1b6020820152613873565b005b60405162461bcd60e51b8152602060048201526015602482015274534f4349414c3a2073636f726520746f6f206c6f7760581b6044820152606490fd5b610385915060203d60201161038b575b61037d8183612f55565b8101906133b5565b816102a1565b503d610373565b6040513d6000823e3d90fd5b60405162461bcd60e51b815260206004820152601660248201527529a7a1a4a0a61d1030b63932b0b23c9036b2b73a37b960511b6044820152606490fd5b63dbd95ba960e01b60005260046000fd5b61040f915060203d602011610415575b6104078183612f55565b810190613291565b82610259565b503d6103fd565b3461020f57602036600319011261020f576001600160a01b0361043d612f05565b16600052600660205260206001600160401b0360406000205416604051908152f35b3461020f57602036600319011261020f576001600160a01b03610480612f05565b166000526008602052602060ff604060002054166040519015158152f35b3461020f57600036600319011261020f57602061ffff600b5460101c16604051908152f35b3461020f57602036600319011261020f576001600160a01b036104e4612f05565b16600052600a602052604060002060405190816020825491828152019160005260206000209060005b81811061053c576105388561052481870382612f55565b604051918291602083526020830190613097565b0390f35b82546001600160a01b031684526020909301926001928301920161050d565b3461020f57604036600319011261020f57610574612f05565b602435906001600160a01b038216820361020f5760018060a01b0316600052600160205260406000209060018060a01b031660005260205260606040600020546001600160401b0360405191818116835261ffff8160401c16602084015260501c166040820152f35b3461020f57602036600319011261020f576105f6612f05565b600054604051634162169f60e01b81529091906020816004816001600160a01b0387165afa9081156103925760009161067c575b506001600160a01b0316330361066b576001600160a01b031690811561065a576001600160a01b03191617600055005b63fbe40e4960e01b60005260046000fd5b638b30463760e01b60005260046000fd5b61069e915060203d6020116106a4575b6106968183612f55565b810190613111565b8361062a565b503d61068c565b3461020f57602036600319011261020f576001600160a01b036106cc612f05565b1680600052600260205260406000208054916000805b8481106108bf57506106f38161341a565b936107016040519586612f55565b818552601f196107108361341a565b013660208701376107208261341a565b9061072e6040519283612f55565b82825261073a8361341a565b602083019490601f190136863761075961075385613431565b94613431565b9560009160005b8481106107e3576107858a8a8a8a8a6020604051968796608088526080880190613097565b9186830382880152519182815201929060005b8181106107c657505050816107b8918561053895940360408701526130d4565b9083820360608501526130d4565b825161ffff16855287965060209485019490920191600101610798565b8160005260016020526040806000206107fc83866132a9565b905460039190911b1c6001600160a01b0316600090815260209190915220546001600160401b0381168b428211806108af575b61083f575b505050600101610760565b6108a69287926001600160401b0392610873879a61085f6001998c6132a9565b8a8060a01b0391549060031b1c1692613463565b5261ffff8260401c16610886858d613463565b52610891848d613463565b5260501c166108a0828d613463565b52613261565b93908b8b610834565b5061ffff8360401c16151561082f565b8260005260016020526040806000206108d883876132a9565b905460039190911b1c6001600160a01b031660009081526020919091522054426001600160401b03821611908161092c575b50610918575b6001016106e2565b90610924600191613261565b919050610910565b61ffff915060401c1615158661090a565b3461020f57600036600319011261020f57602061ffff60075460d01c16604051908152f35b3461020f57602036600319011261020f5761097b612f05565b600054604051635c975abb60e01b81526001600160a01b039091169190602081600481865afa90811561039257600091610c6b575b506103dc5733600052600860205260ff6040600020541615610c31576001600160a01b0381169182151580610c27575b15610be9576000838152600960205260409020546001600160a01b0316610ba85733600052600a602052604060002054600b549061ffff8260101c161115610b6d57602060249260405193848092630d47875d60e41b82523360048301525afa91821561039257600092610b46575b5061ffff809116911610610b0257600082815260096020908152604080832080546001600160a01b031916339081179091558352600a90915290206103249290610a9a9083906133f7565b337f1bf74c66f4733e451868185ff432d08e19f3e4bc28fd5bcc2670180c6da92e99600080a36040805190610acf8183612f55565b601082526f1b595b9d195957dcdc1bdb9cdbdc995960821b60208301525191610af9602084612f55565b60008352613477565b60405162461bcd60e51b815260206004820152601c60248201527b534f4349414c3a206d656e746f722073636f726520746f6f206c6f7760201b6044820152606490fd5b61ffff919250610b65829160203d60201161038b5761037d8183612f55565b929150610a4f565b60405162461bcd60e51b8152602060048201526013602482015272534f4349414c3a206d6178206d656e7465657360681b6044820152606490fd5b60405162461bcd60e51b815260206004820152601960248201527829a7a1a4a0a61d1036b2b73a32b2903430b99036b2b73a37b960391b6044820152606490fd5b60405162461bcd60e51b8152602060048201526016602482015275534f4349414c3a20696e76616c6964206d656e74656560501b6044820152606490fd5b50338314156109e0565b60405162461bcd60e51b815260206004820152601260248201527129a7a1a4a0a61d103737ba1036b2b73a37b960711b6044820152606490fd5b610c84915060203d602011610415576104078183612f55565b836109b0565b3461020f57602036600319011261020f576001600160a01b03610cab612f05565b16600052600560205260206001600160401b0360406000205416604051908152f35b3461020f57600036600319011261020f576020600f54604051908152f35b3461020f57600036600319011261020f57602061ffff60075460401c16604051908152f35b3461020f57602036600319011261020f576004356001600160401b03811161020f57610d4090369060040161305b565b90811515806110cf575b610d5390613130565b33600052600e6020526002604060002001546001600160401b038116159081156110c1575b5015611083576040519160c083018381106001600160401b03821117610fee57604052338352610da936828461317c565b6020840190815260408401936001600160401b0342168552606081019460008652608082016000815260209660405194610de38987612f55565b600080875260a08601968752338152600e8a5260409020945185546001600160a01b0319166001600160a01b039190911617855551805160018601916001600160401b038211610fee57610e4182610e3b8554612f1b565b856131c2565b8a90601f831160011461100f5792610e7183610e9d9460039a999794610ea69997600092611004575b5050613214565b90555b6001600160401b038060028801955116166001600160401b031985541617845551151583613227565b51151590613244565b0190518051906001600160401b038211610fee57610ec882610e3b8554612f1b565b8590601f8311600114610f7e5782610f6c959361032498979593610ef493600092610f73575050613214565b90555b610f02600f54613261565b600f556040518481527f847065330edb730c1ec21ebbf03603a63880d25a2480c3b9852d0551ad80756d339180610f3c8882018688613270565b0390a26b185c1c19585b17d99a5b195960a21b60405194610f5e604087612f55565b600c8652850152369161317c565b9033613477565b015190508980610e6a565b90601f1983169184600052876000209260005b818110610fd75750926001928592610f6c98966103249b9a989610610fbe575b505050811b019055610ef7565b015160001960f88460031b161c19169055888080610fb1565b929389600181928786015181550195019301610f91565b634e487b7160e01b600052604160045260246000fd5b015190508f80610e6a565b60008481528c8120929190601f198516908e5b82821061106b57505093600399989693610ea698969360019383610e9d9810611053575b505050811b019055610e74565b0151600019838d1b60f8161c191690558e8080611046565b80600186978294978701518155019601940190611022565b60405162461bcd60e51b8152602060048201526016602482015275534f4349414c3a2061707065616c2070656e64696e6760501b6044820152606490fd5b60ff915060401c1683610d78565b506101f4821115610d4a565b3461020f57606036600319011261020f576110f4612f05565b6110fc613088565b906044356001600160401b03811161020f5761111c90369060040161305b565b600054604051634162169f60e01b815291929190602090829060049082906001600160a01b03165afa908115610392576000916113b6575b506001600160a01b0316330361066b576001600160a01b0383166000818152600e6020526040902060028101805491906001600160401b0383161561137d5760ff8360401c1661133e5760ff60401b19909216600160401b1782556003916111bd908890613244565b01946001600160401b038411610fee576111e1846111db8854612f1b565b886131c2565b600095601f85116001146112b15761128e9392917fec5cb6b9077be93ff2307b61c4b6793dd8a820336c6f61327ef42adf8592977a9161122e87806103249b6000916112a6575b50613214565b90555b600f5480611294575b5060405190151581526040602082015280611259604082018887613270565b0390a26040519261126b604085612f55565b600f84526e185c1c19585b17dc995cdbdb1d9959608a1b6020850152369161317c565b91613477565b61129d906133a8565b600f558861123a565b90508701358c611228565b8087526020872096601f198616815b8181106113265750916103249861128e96959492887fec5cb6b9077be93ff2307b61c4b6793dd8a820336c6f61327ef42adf8592977a951061130c575b5050600187811b019055611231565b86013560001960038a901b60f8161c1916905589806112fd565b868301358a55600190990198602092830192016112c0565b60405162461bcd60e51b815260206004820152601760248201527614d3d0d250530e88185c1c19585b081c995cdbdb1d9959604a1b6044820152606490fd5b60405162461bcd60e51b815260206004820152601160248201527014d3d0d250530e881b9bc8185c1c19585b607a1b6044820152606490fd5b6113cf915060203d6020116106a4576106968183612f55565b85611154565b3461020f57602036600319011261020f576113ee612f05565b6001600160a01b0381166000818152600260205260408120805491929190835b8281106114515750505061ffff6114266060946132e4565b1690600052600460205261ffff604060002054169061ffff6040519316835260208301526040820152f35b83600052600160205260408060002061146a83856132a9565b905460039190911b1c6001600160a01b031660009081526020919091522054426001600160401b0382161190816114d7575b506114aa575b60010161140e565b9361ffff1661ffff81146114c157600101936114a2565b634e487b7160e01b600052601160045260246000fd5b61ffff915060401c1615158761149c565b3461020f57602036600319011261020f576024611503612f05565b600054604051630d47875d60e41b81526001600160a01b0392831660048201819052909390926020928592918391165afa9182156103925760e09261ffff916000916115ca575b50600b546000938452600860209081526040808620546009835281872054600a90935295205460ff90951615949184169185916001600160a01b0316908516826115bc575b604051961587528160208801526040870152151560608601521515608085015260a08401521660c0820152f35b91508285851610159161158f565b6115e3915060203d60201161038b5761037d8183612f55565b8461154a565b3461020f57600036600319011261020f57602061ffff60075460101c16604051908152f35b3461020f57602036600319011261020f576001600160a01b0361162f612f05565b166000526004602052602061ffff60406000205416604051908152f35b3461020f57602036600319011261020f576001600160a01b0361166d612f05565b16600052600c60205260ff604060002061053860028201549161169c60016001600160401b0385169201612f76565b906040519485948215158652818160401c161515602087015260481c1615156040850152606084015260a0608084015260a083019061301a565b3461020f57600036600319011261020f576020600d54604051908152f35b3461020f57600036600319011261020f57602061ffff60075460301c16604051908152f35b3461020f57602036600319011261020f576001600160a01b0361173a612f05565b168033036117af575b806000526008602052604060002060ff1981541690557f5808667fab0acf73544191fca46e124794dcc62e60b174ac3f5c88b7b5299425600080a261032460405161178f604082612f55565b600e81526d1b595b9d1bdc97dc995d9bdad95960921b6020820152613873565b600054604051634162169f60e01b815290602090829060049082906001600160a01b03165afa90811561039257600091611805575b506001600160a01b0316331461174357638b30463760e01b60005260046000fd5b61181e915060203d6020116106a4576106968183612f55565b826117e4565b3461020f57604036600319011261020f5761183d612f05565b6024356001600160401b03811161020f5761185c90369060040161305b565b600054604051635c975abb60e01b81529293926001600160a01b039091169190602081600481865afa90811561039257600091611d6b575b506103dc576001600160a01b03831680158015611d62575b611d515760a08211611d4057600754926001600160401b038460901c1680611cc4575b50602060249160405192838092630d47875d60e41b82523360048301525afa9081156103925761ffff918291600091611ca5575b50169360d01c168310611c8357611919846136c7565b60008181526001602090815260408083203384529091529020546001600160401b03164210611c945780600052600260205261ffff604060002054169460075461ffff8160301c16871015611c835733600052600460205261ffff6040600020541661ffff8260401c161115611c8357600054604051632519fdb960e11b815261ffff83169691602090829060049082906001600160a01b03165afa80156103925761ffff91600091611c64575b50161115611c54575b6119d933613945565b611c44575b61ffff8160101c168061ffff871611611c3c575b50611a0b61ffff611a02886132e4565b961680966132d7565b61ffff8260201c1610611bfd57611a2f6001600160401b03809260501c16426132d7565b16916001600160401b0342169260405193606085018581106001600160401b03821117610fee5760409081528286526020808701898152828801848152600087815260018452848120338083529085528582209a518b54945193516001600160901b03199095166001600160401b03919091161792861b61ffff60401b169290921760509390931b600160501b600160901b03169290921790985585815260029091522061032499611bf796611aee92611ae991906133f7565b6133e3565b83600052600360205261ffff6040600020911661ffff19825416179055336000526004602052604060002061ffff611b28818354166133e3565b1661ffff1982541617905533600052600560205260406000206001600160401b0382166001600160401b03198254161790558260005260066020526001600160401b03604060002091166001600160401b0319825416179055604051908682526020820152606060408201527fd7b6373d0cc8185cacb0cd7341ab8a20f17ea855f4ff4b8199ff544d5335b5af339180611bc6606082018988613270565b0390a360405192611bd8604085612f55565b600b84526a195b991bdc9cd95b595b9d60aa1b6020850152369161317c565b92613573565b60405162461bcd60e51b81526020600482015260176024820152760534f4349414c3a20656e646f7273656d656e742063617604c1b6044820152606490fd5b9450876119f2565b93611c4e906133cf565b936119de565b93611c5e906133cf565b936119d0565b611c7d915060203d60201161038b5761037d8183612f55565b8a6119c7565b633db3b06f60e21b60005260046000fd5b63263a344160e01b60005260046000fd5b611cbe915060203d60201161038b5761037d8183612f55565b88611903565b3360005260056020526001600160401b0360406000205416016001600160401b0381116114c1576001600160401b03164210611d0057866118cf565b60405162461bcd60e51b815260206004820152601860248201527729a7a1a4a0a61d1032b73237b939b29031b7b7b63237bbb760411b6044820152606490fd5b6311de9f7960e01b60005260046000fd5b632b733a2d60e11b60005260046000fd5b503381146118ac565b611d84915060203d602011610415576104078183612f55565b85611894565b3461020f57602036600319011261020f576001600160a01b03611dab612f05565b166000526009602052602060018060a01b0360406000205416604051908152f35b3461020f57602036600319011261020f57611de5612f05565b6001600160a01b0381811660008181526009602052604090205490911691908215611fb957823303611f44575b82600052600a60205260406000209283549360005b858110611ead575b5050600082815260096020526040812080546001600160a01b031916905561032494507fc890e92b7f9c8c46c61cd0ac0d88ba6817effe750591001f30845df0f3645fd89080a36040805190611e858183612f55565b600e82526d1b595b9d195957dc995b5bdd995960921b60208301525191610af9602084612f55565b83611eb882846132a9565b905460039190911b1c6001600160a01b031614611ed757600101611e27565b9060001986019586116114c157611f38611f3d92611f14611efb61032499856132a9565b905460039190911b1c6001600160a01b031691846132a9565b9080546001600160a01b0360039390931b83811b199091169290931690921b179055565b613684565b8480611e2f565b600054604051634162169f60e01b815290602090829060049082906001600160a01b03165afa90811561039257600091611f9a575b506001600160a01b03163314611e1257638b30463760e01b60005260046000fd5b611fb3915060203d6020116106a4576106968183612f55565b84611f79565b60405162461bcd60e51b815260206004820152601160248201527029a7a1a4a0a61d1037379036b2b73a37b960791b6044820152606490fd5b3461020f57602036600319011261020f576001600160a01b03612013612f05565b166000908152600e6020526040902080546001600160a01b031661053861203c60018401612f76565b9261204e600360028301549201612f76565b60ff61206c604051968796875260c0602088015260c087019061301a565b926001600160401b0381166040870152818160401c161515606087015260481c161515608085015283820360a085015261301a565b3461020f5761010036600319011261020f576120bb612ee3565b6120c3612ef4565b6044359161ffff831680840361020f5760643561ffff81169384820361020f576084359161ffff83169586840361020f5760a435956001600160401b0387169788880361020f5760c435986001600160401b038a1691828b0361020f5760e4359461ffff86169485870361020f57600054604051634162169f60e01b815290602090829060049082906001600160a01b03165afa90811561039257600091612540575b506001600160a01b0316330361066b5761ffff16998a151580612535575b156124f45761ffff89168b81101590816124e7575b50156124a7578a1161246a57801515908161245e575b5015612423578015159081612417575b50156123de5762093a8081101590816123cf575b5015612391576102588110159081612383575b501561234557600a8110159081612338575b50156122f9576007805460909890981b67ffffffffffffffff60901b1660509790971b600160501b600160901b0316600160301b600160e01b03199096166001600160e01b03199098169790971760109390931b63ffff0000169290921760209790971b61ffff60201b169690961760309690961b61ffff60301b169590951760409190911b61ffff60401b1617171760d09290921b61ffff60d01b169190911790557fc0bc1ba9cba70c67bf11a4dc22b76e97c29c7e0f659df84da7e346a364899258600080a16103246040516122d1604082612f55565b6016815275195b991bdc9cd95b595b9d17dc1bdb1a58de57dcd95d60521b6020820152613873565b60405162461bcd60e51b8152602060048201526017602482015276534f4349414c3a206d696e2073636f72652072616e676560481b6044820152606490fd5b61271091501115896121f8565b60405162461bcd60e51b8152602060048201526016602482015275534f4349414c3a20636f6f6c646f776e2072616e676560501b6044820152606490fd5b62093a80915011158a6121e6565b60405162461bcd60e51b8152602060048201526016602482015275534f4349414c3a2076616c69646974792072616e676560501b6044820152606490fd5b6301e13380915011158b6121d3565b60405162461bcd60e51b81526020600482015260116024820152700534f4349414c3a20676976656e2063617607c1b6044820152606490fd5b60c8915011158c6121bf565b60405162461bcd60e51b81526020600482015260136024820152720534f4349414c3a207375626a6563742063617606c1b6044820152606490fd5b6032915011158d6121af565b60405162461bcd60e51b8152602060048201526015602482015274534f4349414c3a20626f6e757320636170206c6f7760581b6044820152606490fd5b60405162461bcd60e51b815260206004820152601860248201527729a7a1a4a0a61d1036b0bc103832b91032b73237b939b2b960411b6044820152606490fd5b61012c915011158f612199565b60405162461bcd60e51b8152602060048201526019602482015278534f4349414c3a2062617365206f7574206f662072616e676560381b6044820152606490fd5b5060c88b1115612184565b612559915060203d6020116106a4576106968183612f55565b8f612166565b3461020f57600036600319011261020f5760206001600160401b0360075460501c16604051908152f35b3461020f57606036600319011261020f576125a2612f05565b6125aa613088565b90604435918260010b80930361020f57600054604051634162169f60e01b815290602090829060049082906001600160a01b03165afa90811561039257600091612781575b506001600160a01b0316330361066b576001600160a01b0382166000818152600c6020526040902060020180546001600160401b038116156127415760ff8160401c166127015760ff60401b1916600160401b178155610324947f2eec6b0a78eba6860ae5bb6579b36b4b751ba52ee7d16723279b46572c96469d916040919061267a908690613244565b600d54806126ef575b5081519085151582526020820152a2156126e7576001905b604060ff8151916126ac8184612f55565b60168352751cd8dbdc9957d91a5cdc1d5d1957dc995cdbdb1d995960521b602084015251936126dc602086612f55565b600085521691613573565b60009061269b565b6126f8906133a8565b600d5587612683565b60405162461bcd60e51b815260206004820152601860248201527714d3d0d250530e88185b1c9958591e481c995cdbdb1d995960421b6044820152606490fd5b60405162461bcd60e51b815260206004820152601860248201527714d3d0d250530e881b9bc8191a5cdc1d5d1948199bdd5b9960421b6044820152606490fd5b61279a915060203d6020116106a4576106968183612f55565b846125ef565b3461020f57602036600319011261020f5760206127c36127be612f05565b6132e4565b604051908152f35b3461020f57602036600319011261020f576001600160a01b036127ec612f05565b16600052600e60205260ff60406000206105386002820154916128656001600160401b0384169161282b600361282460018401612f76565b9201612f76565b926040519687968215158852818160401c161515602089015260481c1615156040870152606086015260c0608086015260c085019061301a565b9083820360a085015261301a565b3461020f57600036600319011261020f576000546040516001600160a01b039091168152602090f35b3461020f57600036600319011261020f57602061ffff60075416604051908152f35b3461020f57602036600319011261020f576001600160a01b036128df612f05565b166000526003602052602061ffff60406000205416604051908152f35b3461020f57602036600319011261020f57612915612f05565b600054604051635c975abb60e01b815290602090829060049082906001600160a01b03165afa90811561039257600091612958575b506103dc57610324906136c7565b612971915060203d602011610415576104078183612f55565b8261294a565b3461020f57600036600319011261020f57602061ffff600754821c16604051908152f35b3461020f57602036600319011261020f576004356001600160401b03811161020f576129cb90369060040161305b565b80151580612c78575b6129dd90613130565b33600052600c6020526001600160401b0360026040600020015416158015612c5a575b15612c1b5760405160a081018181106001600160401b03821117610fee57604052338152612a2f36838561317c565b6020828101918252426001600160401b03908116604080860191825260006060870181815260808801828152338352600c909652919020955186546001600160a01b0319166001600160a01b039190911617865593518051919593949392600184019291908211610fee57612aa882610e3b8554612f1b565b602090601f8311600114612b97576001600160401b036002610f6c99966103249c9996612ae887610e9d98612b089c988798600092612b8c575050613214565b90555b01955116166001600160401b031985541617845551151583613227565b612b13600d54613261565b600d55604051602081527fb23ac579e6192f602dcd9cb4739d7aac62bf98df815a123ea748071d25b80875339180612b4f602082018887613270565b0390a260405192612b61604085612f55565b60178452761cd8dbdc9957d91a5cdc1d5d1957dc995c5d595cdd1959604a1b6020850152369161317c565b015190503880610e6a565b90601f1983169184600052816000209260005b818110612c035750610f6c99966103249c9996600187612b089b976001600160401b03978897610e9d9b60029810612bea575b505050811b019055612aeb565b015160001960f88460031b161c19169055388080612bdd565b92936020600181928786015181550195019301612baa565b60405162461bcd60e51b8152602060048201526017602482015276534f4349414c3a20646973707574652070656e64696e6760481b6044820152606490fd5b5033600052600c60205260ff60026040600020015460401c16612a00565b506101f48111156129d4565b3461020f57602036600319011261020f576001600160a01b03612ca5612f05565b166000908152600c6020526040902080546001600160a01b03166002612ccd60018401612f76565b92015460ff612cee604051948594855260a0602086015260a085019061301a565b916001600160401b0381166040850152818160401c161515606085015260481c16151560808301520390f35b3461020f57604036600319011261020f57612d33612ee3565b612d3b612ef4565b600054604051634162169f60e01b815291929190602090829060049082906001600160a01b03165afa90811561039257600091612e9d575b506001600160a01b0316330361066b5761ffff169061138882101580612e91575b15612e4c5761ffff811691600183101580612e41575b15612dfc577f273cee8c4dd4641fdf7f817df77d9ad070ab040ab68b2b923bf6a49c6ec673ee926040928263ffff0000600b549260101b169163ffffffff19161717600b5582519182526020820152a1005b60405162461bcd60e51b815260206004820152601f60248201527f534f4349414c3a206d656e746f72206d6178206f7574206f662072616e6765006044820152606490fd5b5060c8831115612daa565b60405162461bcd60e51b815260206004820152601f60248201527f534f4349414c3a206d656e746f72206d696e206f7574206f662072616e6765006044820152606490fd5b50612710821115612d94565b612eb6915060203d6020116106a4576106968183612f55565b83612d73565b3461020f57600036600319011261020f576020906001600160401b0360075460901c168152f35b6004359061ffff8216820361020f57565b6024359061ffff8216820361020f57565b600435906001600160a01b038216820361020f57565b90600182811c92168015612f4b575b6020831014612f3557565b634e487b7160e01b600052602260045260246000fd5b91607f1691612f2a565b90601f801991011681019081106001600160401b03821117610fee57604052565b9060405191826000825492612f8a84612f1b565b8084529360018116908115612ff85750600114612fb1575b50612faf92500383612f55565b565b90506000929192526020600020906000915b818310612fdc575050906020612faf9282010138612fa2565b6020919350806001915483858901015201910190918492612fc3565b905060209250612faf94915060ff191682840152151560051b82010138612fa2565b919082519283825260005b848110613046575050826000602080949584010152601f8019910116010190565b80602080928401015182828601015201613025565b9181601f8401121561020f578235916001600160401b03831161020f576020838186019501011161020f57565b60243590811515820361020f57565b906020808351928381520192019060005b8181106130b55750505090565b82516001600160a01b03168452602093840193909201916001016130a8565b906020808351928381520192019060005b8181106130f25750505090565b82516001600160401b03168452602093840193909201916001016130e5565b9081602091031261020f57516001600160a01b038116810361020f5790565b1561313757565b60405162461bcd60e51b815260206004820152601d60248201527f534f4349414c3a20696e76616c696420726561736f6e206c656e6774680000006044820152606490fd5b9291926001600160401b038211610fee57604051916131a5601f8201601f191660200184612f55565b82948184528183011161020f578281602093846000960137010152565b601f82116131cf57505050565b6000526020600020906020601f840160051c8301931061320a575b601f0160051c01905b8181106131fe575050565b600081556001016131f3565b90915081906131ea565b8160011b916000199060031b1c19161790565b805460ff60401b191691151560401b60ff60401b16919091179055565b805460ff60481b191691151560481b60ff60481b16919091179055565b60001981146114c15760010190565b908060209392818452848401376000828201840152601f01601f1916010190565b9081602091031261020f5751801515810361020f5790565b80548210156132c15760005260206000200190600090565b634e487b7160e01b600052603260045260246000fd5b919082018092116114c157565b6001600160a01b031660008181526002602052604081208054919392845b838110613325575050505061ffff60075460201c168083116133215750565b9150565b81600052600160205260408060002061333e83866132a9565b905460039190911b1c6001600160a01b031660009081526020919091522054604081901c61ffff16908115159081613394575b50613380575b50600101613302565b61338d90600192976132d7565b9590613377565b90506001600160401b034291161138613371565b80156114c1576000190190565b9081602091031261020f575161ffff8116810361020f5790565b61ffff600a9116019061ffff82116114c157565b61ffff60019116019061ffff82116114c157565b80549190600160401b831015610fee5782611f14916001612faf950181556132a9565b6001600160401b038111610fee5760051b60200190565b9061343b8261341a565b6134486040519182612f55565b8281528092613459601f199161341a565b0190602036910137565b80518210156132c15760209160051b010190565b600080546040516356397c3560e01b81529194939190602090829060049082906001600160a01b03165afa908115613568578591613549575b506001600160a01b031691826134c8575b5050505050565b823b15613545579161350c9185809461352460405197889687958694630303c28760e61b865260018060a01b0316600486015260806024860152608485019061301a565b9084604485015260031984830301606485015261301a565b03925af1613535575b8080806134c1565b8161353f91612f55565b3861352d565b8480fd5b613562915060203d6020116106a4576106968183612f55565b386134b0565b6040513d87823e3d90fd5b600080546040516356397c3560e01b815291959493929190602090829060049082906001600160a01b03165afa908115613668578691613649575b506001600160a01b031692836135c7575b505050505050565b833b1561364557918580949261362361360c9560405198899788968795630303c28760e61b875260018060a01b0316600487015260806024870152608486019061301a565b91604485015260031984830301606485015261301a565b03925af1613635575b808080806135bf565b8161363f91612f55565b3861362c565b8580fd5b613662915060203d6020116106a4576106968183612f55565b386135ae565b6040513d88823e3d90fd5b61ffff1680156114c1576000190190565b805480156136b157600019019061369b82826132a9565b81549060018060a01b039060031b1b1916905555565b634e487b7160e01b600052603160045260246000fd5b6001600160a01b0316600081815260026020526040812091905b825481101561384c576136f481846132a9565b9054600084815260016020908152604080832060039590951b9390931c6001600160a01b031680835293905220546001600160401b03168015159081613841575b5061374c575061374490613261565b925b926136e1565b82600095929552600160205260006040808220829060018060a01b0385168252602052205582600052600360205261ffff60406000205416613814575b80600052600460205261ffff604060002054166137e7575b50825460001981019081116114c1576137bd6137d991856132a9565b905460039190911b1c6001600160a01b0316611f1486866132a9565b6137e283613684565b613746565b6000526004602052604060002061ffff61380381835416613673565b1661ffff19825416179055386137a1565b826000526003602052604060002061ffff61383181835416613673565b1661ffff19825416179055613789565b905042101538613735565b509061ffff90541690600052600360205261ffff6040600020911661ffff19825416179055565b600080546040516356397c3560e01b815291929190602090829060049082906001600160a01b03165afa90811561393a57839161391b575b506001600160a01b031690816138c057505050565b813b15613917576138f883928392604051948580948193633ddd61ab60e21b835230600484015260606024840152606483019061301a565b33604483015203925af161390a575050565b8161391491612f55565b50565b8280fd5b613934915060203d6020116106a4576106968183612f55565b386138ab565b6040513d85823e3d90fd5b600054604051630e05e5d560e21b81526001600160a01b03928316600482018190527ff4f1880c72d8dbafc9805eb1c4bcefcb30af90b0ae932e0f050c81b49112585760248301529190921691602081604481865afa90811561039257600091613a50575b5015613a495760209060446040518094819363d5b37a7f60e01b835260048301527ff4f1880c72d8dbafc9805eb1c4bcefcb30af90b0ae932e0f050c81b49112585760248301525afa90811561039257600091613a17575b508015908115613a10575090565b9050421090565b90506020813d602011613a41575b81613a3260209383612f55565b8101031261020f575138613a02565b3d9150613a25565b5050600090565b613a69915060203d602011610415576104078183612f55565b386139aa56fea264697066735822122071e49d7ebaf380efc70236fd264197076f649f2cd7cc823851b7cc221f2f639e64736f6c634300081e0033",
  "linkReferences": {},
  "deployedLinkReferences": {}
}