{"abi":[{"type":"constructor","inputs":[{"name":"_owner","type":"address","internalType":"address"},{"name":"_token","type":"address","internalType":"address"},{"name":"_presale","type":"address","internalType":"address"},{"name":"_vaultHub","type":"address","internalType":"address"},{"name":"_burnRouter","type":"address","internalType":"address"},{"name":"_seer","type":"address","internalType":"address"}],"stateMutability":"nonpayable"},{"type":"receive","stateMutability":"payable"},{"type":"function","name":"burnRouter","inputs":[],"outputs":[{"name":"","type":"address","internalType":"contract IProofScoreBurnRouter"}],"stateMutability":"view"},{"type":"function","name":"emergency_pauseAll","inputs":[],"outputs":[],"stateMutability":"nonpayable"},{"type":"function","name":"emergency_recoverETH","inputs":[{"name":"recipient","type":"address","internalType":"address payable"}],"outputs":[],"stateMutability":"nonpayable"},{"type":"function","name":"emergency_recoverTokens","inputs":[{"name":"token","type":"address","internalType":"address"},{"name":"recipient","type":"address","internalType":"address"},{"name":"amount","type":"uint256","internalType":"uint256"}],"outputs":[],"stateMutability":"nonpayable"},{"type":"function","name":"emergency_resumeAll","inputs":[],"outputs":[],"stateMutability":"nonpayable"},{"type":"function","name":"fees_getEffectiveRates","inputs":[{"name":"user","type":"address","internalType":"address"}],"outputs":[{"name":"burnBps","type":"uint16","internalType":"uint16"},{"name":"sanctumBps","type":"uint16","internalType":"uint16"},{"name":"ecosystemBps","type":"uint16","internalType":"uint16"}],"stateMutability":"view"},{"type":"function","name":"fees_getPolicy","inputs":[],"outputs":[{"name":"minBps","type":"uint16","internalType":"uint16"},{"name":"maxBps","type":"uint16","internalType":"uint16"}],"stateMutability":"view"},{"type":"function","name":"fees_previewForScore","inputs":[{"name":"score","type":"uint16","internalType":"uint16"}],"outputs":[{"name":"totalBps","type":"uint256","internalType":"uint256"}],"stateMutability":"view"},{"type":"function","name":"fees_previewTransfer","inputs":[{"name":"user","type":"address","internalType":"address"},{"name":"amount","type":"uint256","internalType":"uint256"}],"outputs":[{"name":"burnAmount","type":"uint256","internalType":"uint256"},{"name":"sanctumAmount","type":"uint256","internalType":"uint256"},{"name":"ecosystemAmount","type":"uint256","internalType":"uint256"},{"name":"netAmount","type":"uint256","internalType":"uint256"},{"name":"score","type":"uint16","internalType":"uint16"}],"stateMutability":"view"},{"type":"function","name":"fees_setPolicy","inputs":[{"name":"minBps","type":"uint16","internalType":"uint16"},{"name":"maxBps","type":"uint16","internalType":"uint16"}],"outputs":[],"stateMutability":"nonpayable"},{"type":"function","name":"getPresaleStatus","inputs":[],"outputs":[{"name":"totalBaseSold","type":"uint256","internalType":"uint256"},{"name":"totalBonusGiven","type":"uint256","internalType":"uint256"},{"name":"totalSold","type":"uint256","internalType":"uint256"},{"name":"tokenBalance","type":"uint256","internalType":"uint256"},{"name":"hasSufficientTokens","type":"bool","internalType":"bool"},{"name":"paused","type":"bool","internalType":"bool"},{"name":"finalized","type":"bool","internalType":"bool"},{"name":"startTime","type":"uint256","internalType":"uint256"},{"name":"endTime","type":"uint256","internalType":"uint256"},{"name":"timeRemaining","type":"uint256","internalType":"uint256"}],"stateMutability":"view"},{"type":"function","name":"getSystemHealth","inputs":[],"outputs":[{"name":"tokenHealthy","type":"bool","internalType":"bool"},{"name":"presaleHealthy","type":"bool","internalType":"bool"},{"name":"vaultHealthy","type":"bool","internalType":"bool"},{"name":"status","type":"string","internalType":"string"}],"stateMutability":"view"},{"type":"function","name":"getTokenStatus","inputs":[],"outputs":[{"name":"totalSupply","type":"uint256","internalType":"uint256"},{"name":"devReserveBalance","type":"uint256","internalType":"uint256"},{"name":"presaleBalance","type":"uint256","internalType":"uint256"},{"name":"treasuryBalance","type":"uint256","internalType":"uint256"},{"name":"vaultOnly","type":"bool","internalType":"bool"},{"name":"policyLocked","type":"bool","internalType":"bool"},{"name":"circuitBreaker","type":"bool","internalType":"bool"}],"stateMutability":"view"},{"type":"function","name":"getVaultDetails","inputs":[{"name":"vaultAddress","type":"address","internalType":"address"}],"outputs":[{"name":"vaultOwner","type":"address","internalType":"address"},{"name":"guardianCount","type":"uint8","internalType":"uint8"},{"name":"frozen","type":"bool","internalType":"bool"},{"name":"isValid","type":"bool","internalType":"bool"}],"stateMutability":"view"},{"type":"function","name":"getVaultStatus","inputs":[],"outputs":[{"name":"totalVaults","type":"uint256","internalType":"uint256"},{"name":"specificVault","type":"address","internalType":"address"},{"name":"isVault","type":"bool","internalType":"bool"}],"stateMutability":"view"},{"type":"function","name":"hasVault","inputs":[{"name":"user","type":"address","internalType":"address"}],"outputs":[{"name":"","type":"bool","internalType":"bool"},{"name":"","type":"address","internalType":"address"}],"stateMutability":"view"},{"type":"function","name":"owner","inputs":[],"outputs":[{"name":"","type":"address","internalType":"address"}],"stateMutability":"view"},{"type":"function","name":"presale","inputs":[],"outputs":[{"name":"","type":"address","internalType":"contract IVFIDEPresale"}],"stateMutability":"view"},{"type":"function","name":"presale_emergencyWithdraw","inputs":[],"outputs":[],"stateMutability":"nonpayable"},{"type":"function","name":"presale_enableRefunds","inputs":[],"outputs":[],"stateMutability":"nonpayable"},{"type":"function","name":"presale_extendSale","inputs":[{"name":"additionalDays","type":"uint256","internalType":"uint256"}],"outputs":[],"stateMutability":"nonpayable"},{"type":"function","name":"presale_finalize","inputs":[{"name":"uniRouter","type":"address","internalType":"address"},{"name":"uniFactory","type":"address","internalType":"address"}],"outputs":[],"stateMutability":"nonpayable"},{"type":"function","name":"presale_fundRefunds","inputs":[],"outputs":[],"stateMutability":"payable"},{"type":"function","name":"presale_setMaxGasPrice","inputs":[{"name":"newMaxGasPrice","type":"uint256","internalType":"uint256"}],"outputs":[],"stateMutability":"nonpayable"},{"type":"function","name":"presale_setPaused","inputs":[{"name":"paused","type":"bool","internalType":"bool"}],"outputs":[],"stateMutability":"nonpayable"},{"type":"function","name":"presale_withdrawUnsold","inputs":[{"name":"recipient","type":"address","internalType":"address"}],"outputs":[],"stateMutability":"nonpayable"},{"type":"function","name":"seer","inputs":[],"outputs":[{"name":"","type":"address","internalType":"contract ISeer"}],"stateMutability":"view"},{"type":"function","name":"seer_getScore","inputs":[{"name":"user","type":"address","internalType":"address"}],"outputs":[{"name":"","type":"uint16","internalType":"uint16"}],"stateMutability":"view"},{"type":"function","name":"seer_getThresholds","inputs":[],"outputs":[{"name":"lowTrust","type":"uint16","internalType":"uint16"},{"name":"highTrust","type":"uint16","internalType":"uint16"},{"name":"minGovernance","type":"uint16","internalType":"uint16"},{"name":"minMerchant","type":"uint16","internalType":"uint16"}],"stateMutability":"view"},{"type":"function","name":"seer_setThresholds","inputs":[{"name":"lowTrust","type":"uint16","internalType":"uint16"},{"name":"highTrust","type":"uint16","internalType":"uint16"},{"name":"minGovernance","type":"uint16","internalType":"uint16"},{"name":"minMerchant","type":"uint16","internalType":"uint16"}],"outputs":[],"stateMutability":"nonpayable"},{"type":"function","name":"setContracts","inputs":[{"name":"_token","type":"address","internalType":"address"},{"name":"_presale","type":"address","internalType":"address"},{"name":"_vaultHub","type":"address","internalType":"address"},{"name":"_burnRouter","type":"address","internalType":"address"},{"name":"_seer","type":"address","internalType":"address"}],"outputs":[],"stateMutability":"nonpayable"},{"type":"function","name":"sustainability_getConfig","inputs":[],"outputs":[{"name":"dailyBurnCap","type":"uint256","internalType":"uint256"},{"name":"minimumSupplyFloor","type":"uint256","internalType":"uint256"},{"name":"ecosystemMinBps","type":"uint16","internalType":"uint16"},{"name":"adaptiveEnabled","type":"bool","internalType":"bool"},{"name":"volumeMultiplier","type":"uint16","internalType":"uint16"}],"stateMutability":"view"},{"type":"function","name":"sustainability_getStatus","inputs":[],"outputs":[{"name":"dailyBurned","type":"uint256","internalType":"uint256"},{"name":"burnCapacity","type":"uint256","internalType":"uint256"},{"name":"dailyVolume","type":"uint256","internalType":"uint256"},{"name":"volumeMultiplier","type":"uint16","internalType":"uint16"},{"name":"burnsPausedFlag","type":"bool","internalType":"bool"},{"name":"supplyFloor","type":"uint256","internalType":"uint256"},{"name":"currentSupply","type":"uint256","internalType":"uint256"}],"stateMutability":"view"},{"type":"function","name":"sustainability_setAdaptiveFees","inputs":[{"name":"lowVolumeThreshold","type":"uint256","internalType":"uint256"},{"name":"highVolumeThreshold","type":"uint256","internalType":"uint256"},{"name":"lowVolMultiplier","type":"uint16","internalType":"uint16"},{"name":"highVolMultiplier","type":"uint16","internalType":"uint16"},{"name":"enabled","type":"bool","internalType":"bool"}],"outputs":[],"stateMutability":"nonpayable"},{"type":"function","name":"sustainability_setBurnLimits","inputs":[{"name":"dailyBurnCap","type":"uint256","internalType":"uint256"},{"name":"minimumSupplyFloor","type":"uint256","internalType":"uint256"},{"name":"ecosystemMinBps","type":"uint16","internalType":"uint16"}],"outputs":[],"stateMutability":"nonpayable"},{"type":"function","name":"sustainability_setTokenReference","inputs":[{"name":"token","type":"address","internalType":"address"}],"outputs":[],"stateMutability":"nonpayable"},{"type":"function","name":"token_batchBlacklist","inputs":[{"name":"users","type":"address[]","internalType":"address[]"},{"name":"status","type":"bool","internalType":"bool"}],"outputs":[],"stateMutability":"nonpayable"},{"type":"function","name":"token_batchWhaleLimitExempt","inputs":[{"name":"addrs","type":"address[]","internalType":"address[]"},{"name":"exempt","type":"bool","internalType":"bool"}],"outputs":[],"stateMutability":"nonpayable"},{"type":"function","name":"token_batchWhitelist","inputs":[{"name":"addrs","type":"address[]","internalType":"address[]"},{"name":"status","type":"bool","internalType":"bool"}],"outputs":[],"stateMutability":"nonpayable"},{"type":"function","name":"token_cooldownRemaining","inputs":[{"name":"addr","type":"address","internalType":"address"}],"outputs":[{"name":"","type":"uint256","internalType":"uint256"}],"stateMutability":"view"},{"type":"function","name":"token_getAntiWhaleConfig","inputs":[],"outputs":[{"name":"maxTransfer","type":"uint256","internalType":"uint256"},{"name":"maxWallet","type":"uint256","internalType":"uint256"},{"name":"dailyLimit","type":"uint256","internalType":"uint256"},{"name":"cooldown","type":"uint256","internalType":"uint256"}],"stateMutability":"view"},{"type":"function","name":"token_isCircuitBreakerActive","inputs":[],"outputs":[{"name":"","type":"bool","internalType":"bool"}],"stateMutability":"view"},{"type":"function","name":"token_isWhaleLimitExempt","inputs":[{"name":"addr","type":"address","internalType":"address"}],"outputs":[{"name":"","type":"bool","internalType":"bool"}],"stateMutability":"view"},{"type":"function","name":"token_lockPolicy","inputs":[],"outputs":[],"stateMutability":"nonpayable"},{"type":"function","name":"token_remainingDailyLimit","inputs":[{"name":"addr","type":"address","internalType":"address"}],"outputs":[{"name":"","type":"uint256","internalType":"uint256"}],"stateMutability":"view"},{"type":"function","name":"token_setAntiWhale","inputs":[{"name":"maxTransfer","type":"uint256","internalType":"uint256"},{"name":"maxWallet","type":"uint256","internalType":"uint256"},{"name":"dailyLimit","type":"uint256","internalType":"uint256"},{"name":"cooldown","type":"uint256","internalType":"uint256"}],"outputs":[],"stateMutability":"nonpayable"},{"type":"function","name":"token_setBlacklist","inputs":[{"name":"user","type":"address","internalType":"address"},{"name":"status","type":"bool","internalType":"bool"}],"outputs":[],"stateMutability":"nonpayable"},{"type":"function","name":"token_setCircuitBreaker","inputs":[{"name":"active","type":"bool","internalType":"bool"},{"name":"duration","type":"uint256","internalType":"uint256"}],"outputs":[],"stateMutability":"nonpayable"},{"type":"function","name":"token_setModules","inputs":[{"name":"hub","type":"address","internalType":"address"},{"name":"security","type":"address","internalType":"address"},{"name":"ledger","type":"address","internalType":"address"},{"name":"router","type":"address","internalType":"address"}],"outputs":[],"stateMutability":"nonpayable"},{"type":"function","name":"token_setSinks","inputs":[{"name":"treasury","type":"address","internalType":"address"},{"name":"sanctum","type":"address","internalType":"address"}],"outputs":[],"stateMutability":"nonpayable"},{"type":"function","name":"token_setSystemExempt","inputs":[{"name":"who","type":"address","internalType":"address"},{"name":"isExempt","type":"bool","internalType":"bool"}],"outputs":[],"stateMutability":"nonpayable"},{"type":"function","name":"token_setVaultOnly","inputs":[{"name":"enabled","type":"bool","internalType":"bool"}],"outputs":[],"stateMutability":"nonpayable"},{"type":"function","name":"token_setWhaleLimitExempt","inputs":[{"name":"addr","type":"address","internalType":"address"},{"name":"exempt","type":"bool","internalType":"bool"}],"outputs":[],"stateMutability":"nonpayable"},{"type":"function","name":"token_setWhitelist","inputs":[{"name":"addr","type":"address","internalType":"address"},{"name":"status","type":"bool","internalType":"bool"}],"outputs":[],"stateMutability":"nonpayable"},{"type":"function","name":"vaultHub","inputs":[],"outputs":[{"name":"","type":"address","internalType":"contract IVaultHub"}],"stateMutability":"view"},{"type":"function","name":"vault_cancelDAORecovery","inputs":[{"name":"vault","type":"address","internalType":"address"}],"outputs":[],"stateMutability":"nonpayable"},{"type":"function","name":"vault_finalizeDAORecovery","inputs":[{"name":"vault","type":"address","internalType":"address"}],"outputs":[],"stateMutability":"nonpayable"},{"type":"function","name":"vault_freezeVault","inputs":[{"name":"vault","type":"address","internalType":"address"},{"name":"frozen","type":"bool","internalType":"bool"}],"outputs":[],"stateMutability":"nonpayable"},{"type":"function","name":"vault_requestDAORecovery","inputs":[{"name":"vault","type":"address","internalType":"address"},{"name":"newOwner","type":"address","internalType":"address"}],"outputs":[],"stateMutability":"nonpayable"},{"type":"function","name":"vault_setDAOMultisig","inputs":[{"name":"multisig","type":"address","internalType":"address"}],"outputs":[],"stateMutability":"nonpayable"},{"type":"function","name":"vault_setModules","inputs":[{"name":"token","type":"address","internalType":"address"},{"name":"security","type":"address","internalType":"address"},{"name":"ledger","type":"address","internalType":"address"}],"outputs":[],"stateMutability":"nonpayable"},{"type":"function","name":"vault_setRecoveryTimelock","inputs":[{"name":"timelock","type":"uint64","internalType":"uint64"}],"outputs":[],"stateMutability":"nonpayable"},{"type":"function","name":"vfideToken","inputs":[],"outputs":[{"name":"","type":"address","internalType":"contract IVFIDEToken"}],"stateMutability":"view"},{"type":"event","name":"AdaptiveFeesUpdated","inputs":[{"name":"lowVolThreshold","type":"uint256","indexed":false,"internalType":"uint256"},{"name":"highVolThreshold","type":"uint256","indexed":false,"internalType":"uint256"},{"name":"lowVolMult","type":"uint16","indexed":false,"internalType":"uint16"},{"name":"highVolMult","type":"uint16","indexed":false,"internalType":"uint16"},{"name":"enabled","type":"bool","indexed":false,"internalType":"bool"}],"anonymous":false},{"type":"event","name":"AntiWhaleUpdated","inputs":[{"name":"maxTransfer","type":"uint256","indexed":false,"internalType":"uint256"},{"name":"maxWallet","type":"uint256","indexed":false,"internalType":"uint256"},{"name":"dailyLimit","type":"uint256","indexed":false,"internalType":"uint256"},{"name":"cooldown","type":"uint256","indexed":false,"internalType":"uint256"}],"anonymous":false},{"type":"event","name":"ContractsUpdated","inputs":[{"name":"token","type":"address","indexed":false,"internalType":"address"},{"name":"presale","type":"address","indexed":false,"internalType":"address"},{"name":"vaultHub","type":"address","indexed":false,"internalType":"address"},{"name":"burnRouter","type":"address","indexed":false,"internalType":"address"},{"name":"seer","type":"address","indexed":false,"internalType":"address"}],"anonymous":false},{"type":"event","name":"EmergencyAction","inputs":[{"name":"action","type":"string","indexed":false,"internalType":"string"},{"name":"target","type":"address","indexed":false,"internalType":"address"}],"anonymous":false},{"type":"event","name":"FeePolicyUpdated","inputs":[{"name":"minBps","type":"uint16","indexed":false,"internalType":"uint16"},{"name":"maxBps","type":"uint16","indexed":false,"internalType":"uint16"}],"anonymous":false},{"type":"event","name":"SustainabilityUpdated","inputs":[{"name":"dailyBurnCap","type":"uint256","indexed":false,"internalType":"uint256"},{"name":"supplyFloor","type":"uint256","indexed":false,"internalType":"uint256"},{"name":"ecosystemMinBps","type":"uint16","indexed":false,"internalType":"uint16"}],"anonymous":false},{"type":"error","name":"OCP_NotOwner","inputs":[]},{"type":"error","name":"OCP_Zero","inputs":[]}],"bytecode":{"object":"0x60a03461029857601f61438138819003918201601f19168301916001600160401b0383118484101761029c5780849260c09460405283398101031261029857610047816102b0565b90610054602082016102b0565b610060604083016102b0565b61006c606084016102b0565b9161008560a061007e608087016102b0565b95016102b0565b946001600160a01b03811615610289576080526001600160a01b031680610271575b506001600160a01b031680610257575b506001600160a01b03168061023d575b506001600160a01b031680610223575b506001600160a01b031680610209575b6040516140bc90816102c582396080518181816102e5015281816103fc015281816104bf015281816106090152818161069d0152818161089601528181610a4401528181610b600152818161101f015281816110a00152818161113d015281816111ce015281816112570152818161132b0152818161147c015281816115ff015281816116ef015281816118e20152818161198d01528181611a2b01528181611c5b01528181611ce301528181611e6001528181611f2901528181611f7a0152818161252a0152818161265c015281816127480152818161280901528181612ab601528181612bbe01528181612caa01528181612e7901528181612f8a015281816130c10152818161316001528181613204015281816138c30152613d460152f35b600480546001600160a01b0319169190911790555f6100e7565b600380546001600160a01b0319169190911790555f6100d7565b600280546001600160a01b0319169190911790555f6100c7565b600180546001600160a01b0319169190911790555f6100b7565b5f80546001600160a01b0319169190911781556100a7565b630ad3d6df60e01b5f5260045ffd5b5f80fd5b634e487b7160e01b5f52604160045260245ffd5b51906001600160a01b03821682036102985756fe6080604052600436101561001a575b3615610018575f80fd5b005b5f3560e01c8063011dcb7914613d365780630d453efb14613ca55780630f2d3b7914613c4857806316332c0b14613a7a578063199f27bf14613a2c57806325f0dfaf1461389f5780632d55ea39146138775780632f78026e1461364b57806331a6be8c146132fe57806335f35bf8146131cd5780633d27e5ed146131385780634285b5211461309d578063450ffa8b14612f6f5780634544a10114612e555780634e929f6114612db4578063505cc39314612c9857806358e378d914612b96578063671f9b0e14612a9257806367a44ca3146128aa5780636c32b2ec146128825780636cc92c8e146127ee5780636dd6e80b146127c657806371cb804a1461273557806378a2e013146126385780637b898d0c146125185780637edc9d4b146122d05780637f7c65e0146121d557806385a9a51f1461215357806387980ec1146120555780638d54066914611f585780638da5cb5b14611f145780639be95eff14611e50578063a5e3b21d14611db6578063a8f5daf014611cc8578063a9fe0d8a14611c48578063aa452e9b14611a99578063aadde38b14611a10578063ad1cbfc114611958578063adadeac6146118be578063aede67ea14611765578063b14867f6146116cb578063b555290c146115dc578063b8a71eec146115b5578063ba92c3c714611450578063bb4de8b914611310578063bd284d1a14611247578063bdde6f21146111b3578063be38ee5c14611119578063c117a1d214611085578063c6f3cb9814611012578063d7517caa14610c9d578063d831d55d14610bc4578063e02cd68a14610b4e578063e1aa87e814610abd578063e625e80a14610a29578063f0d4344d14610861578063f254929e1461075e578063f4a3c94c1461068b578063f4e32699146105e5578063f63bf8bd14610473578063f64ee9d3146103e9578063fdea8e0b146103c15763fe917bd30361000e57346103ae575f3660031901126103ae577f00000000000000000000000000000000000000000000000000000000000000006001600160a01b031633036103b2576001546001600160a01b0316803b156103ae575f8091600460405180948193638c52dc4160e01b83525af180156103a357610393575b5f5160206140675f395f51905f52608060018060a01b03600154166040519060408252600f60408301526e1c99599d5b991cd7d95b98589b1959608a1b60608301526020820152a1005b5f61039d91613f71565b5f610349565b6040513d5f823e3d90fd5b5f80fd5b633f4f4a0960e21b5f5260045ffd5b346103ae575f3660031901126103ae576001546040516001600160a01b039091168152602090f35b346103ae5760203660031901126103ae577f00000000000000000000000000000000000000000000000000000000000000006001600160a01b031633036103b2576001546001600160a01b0316803b156103ae575f80916024604051809481936307c621b960e21b835260043560048401525af180156103a35761046957005b5f61001891613f71565b346103ae5760a03660031901126103ae5761048c613e79565b610494613e8f565b9061049d613ea5565b916104a6613ebb565b926084356001600160a01b03811691908290036103ae577f00000000000000000000000000000000000000000000000000000000000000006001600160a01b031633036103b2577f0ef794e787fc9c91fefe4a55535c1a78a09d1cfb5ef3042e4ea952fbec5bfab39460a0946001600160a01b031693846105cf575b600180871b031691826105b7575b600180871b0316908161059f575b600180871b03169182610587575b8361056f575b6040519485526020850152604084015260608301526080820152a1005b836001600160601b03871b6004541617600455610552565b826001600160601b03871b600354161760035561054c565b816001600160601b03871b600254161760025561053e565b826001600160601b03871b6001541617600155610530565b846001600160601b03871b5f5416175f55610522565b346103ae5760403660031901126103ae576105fe613e79565b610606613e09565b907f00000000000000000000000000000000000000000000000000000000000000006001600160a01b031633036103b2575f546001600160a01b031691823b156103ae57604051630a9d868f60e11b81526001600160a01b03909216600483015215156024820152905f908290818381604481015b03925af180156103a35761046957005b346103ae575f3660031901126103ae577f00000000000000000000000000000000000000000000000000000000000000006001600160a01b031633036103b2576001546001600160a01b0316803b156103ae575f80916004604051809481936336cb886f60e21b83525af180156103a35761074e575b5f5160206140675f395f51905f52608060018060a01b036001541660405190604082526012604083015271656d657267656e63795f776974686472617760701b60608301526020820152a1005b5f61075891613f71565b80610701565b346103ae575f3660031901126103ae57600354604051635e83c26d60e01b8152906001600160a01b0316602082600481845afa9182156103a3575f92610822575b5090602060049260405193848092635f31bce560e01b82525afa9182156103a3575f926107e6575b506040805161ffff9283168152929091166020830152819081015b0390f35b9091506020813d60201161081a575b8161080260209383613f71565b810103126103ae5761081390613fc6565b90826107c7565b3d91506107f5565b91506020823d602011610859575b8161083d60209383613f71565b810103126103ae576020610852600493613fc6565b925061079f565b3d9150610830565b346103ae5760803660031901126103ae5761087a613e79565b610882613e8f565b61088a613ea5565b90610893613ebb565b927f00000000000000000000000000000000000000000000000000000000000000006001600160a01b031633036103b2576001600160a01b0316806109dc575b506001600160a01b03168061098f575b506001600160a01b031680610942575b506001600160a01b03168061090457005b5f546001600160a01b031690813b156103ae575f916024839260405194859384926307712c2760e21b845260048401525af180156103a35761046957005b5f546001600160a01b031690813b156103ae575f91602483926040519485938492633246887d60e01b845260048401525af180156103a357156108f3575f61098991613f71565b816108f3565b5f546001600160a01b031690813b156103ae575f9160248392604051948593849263055545fb60e41b845260048401525af180156103a357156108e3575f6109d691613f71565b826108e3565b5f546001600160a01b031690813b156103ae575f916024839260405194859384926303a0903760e11b845260048401525af180156103a357156108d3575f610a2391613f71565b836108d3565b346103ae5760203660031901126103ae57610a42613e79565b7f00000000000000000000000000000000000000000000000000000000000000006001600160a01b031633036103b2576002546001600160a01b031690813b156103ae576040516302f40b3360e41b81526001600160a01b039091166004820152905f908290602490829084905af180156103a35761046957005b346103ae5760203660031901126103ae57610ad6613e79565b5f5460405163f497e87360e01b81526001600160a01b0392831660048201529160209183916024918391165afa80156103a3575f90610b1b575b602090604051908152f35b506020813d602011610b46575b81610b3560209383613f71565b810103126103ae5760209051610b10565b3d9150610b28565b346103ae575f3660031901126103ae577f00000000000000000000000000000000000000000000000000000000000000006001600160a01b031633036103b2575f546001600160a01b0316803b156103ae575f8091600460405180948193632680fc8960e21b83525af180156103a35761046957005b346103ae5760203660031901126103ae57610bdd613e79565b6003546040516318108ef960e31b81526001600160a01b0392831660048201529160609183916024918391165afa9081156103a3575f905f905f93610c3c575b5060609261ffff80928160405195168552166020840152166040820152f35b925050506060813d606011610c95575b81610c5960609383613f71565b810103126103ae578061ffff610c70606093613fc6565b81610c896040610c8260208701613fc6565b9501613fc6565b91939194505090610c1d565b3d9150610c4c565b346103ae575f3660031901126103ae5760015460405163e511e4b760e01b81526001600160a01b03909116905f602082600481865afa9182156103a3575f92610fde575b5060405163999d350d60e01b815292602084600481845afa9384156103a3575f94610faa575b506040516348836bdd60e11b815293602085600481855afa9485156103a3575f95610f76575b50604051635c975abb60e01b8152602081600481865afa9081156103a3575f91610f3c575b5060405163b3f05b9760e01b815290602082600481875afa9182156103a3575f92610f00575b50604051631cbaee2d60e01b815292602084600481885afa9384156103a3575f94610ecc575b5060405163ed338ff160e01b815294602086600481845afa9586156103a3575f96610e95575b506040805163bb4c46e960e01b81529291839060049082905afa9081156103a3575f925f92610e61575b50864210610e39575b9861014099604051998a5260208a01526040890152606088015215156080870152151560a0860152151560c085015260e0840152610100830152610120820152f35b965042860398868a11610e4d579896610df7565b634e487b7160e01b5f52601160045260245ffd5b909250610e86915060403d604011610e8e575b610e7e8183613f71565b810190613fe2565b90918a610dee565b503d610e74565b919095506020823d602011610ec4575b81610eb260209383613f71565b810103126103ae579051946040610dc4565b3d9150610ea5565b9093506020813d602011610ef8575b81610ee860209383613f71565b810103126103ae57519288610d9e565b3d9150610edb565b9091506020813d602011610f34575b81610f1c60209383613f71565b810103126103ae57610f2d90613fd5565b9087610d78565b3d9150610f0f565b90506020813d602011610f6e575b81610f5760209383613f71565b810103126103ae57610f6890613fd5565b86610d52565b3d9150610f4a565b9094506020813d602011610fa2575b81610f9260209383613f71565b810103126103ae57519385610d2d565b3d9150610f85565b9093506020813d602011610fd6575b81610fc660209383613f71565b810103126103ae57519284610d07565b3d9150610fb9565b9091506020813d60201161100a575b81610ffa60209383613f71565b810103126103ae57519083610ce1565b3d9150610fed565b5f3660031901126103ae577f00000000000000000000000000000000000000000000000000000000000000006001600160a01b031633036103b2576001546001600160a01b0316803b156103ae575f60049160405192838092634b58e00760e11b825234905af180156103a35761046957005b346103ae5760203660031901126103ae5761109e613e79565b7f00000000000000000000000000000000000000000000000000000000000000006001600160a01b031633036103b2576001546001600160a01b031690813b156103ae57604051635d81d0d560e11b81526001600160a01b039091166004820152905f908290602490829084905af180156103a35761046957005b346103ae5760403660031901126103ae57611132613e79565b61113a613e09565b907f00000000000000000000000000000000000000000000000000000000000000006001600160a01b031633036103b2575f546001600160a01b031691823b156103ae576040516353d6fd5960e01b81526001600160a01b03909216600483015215156024820152905f9082908183816044810161067b565b346103ae5760203660031901126103ae576111cc613e79565b7f00000000000000000000000000000000000000000000000000000000000000006001600160a01b031633036103b2576003546001600160a01b031690813b156103ae5760405163144fa6d760e01b81526001600160a01b039091166004820152905f908290602490829084905af180156103a35761046957005b346103ae5761125536613e18565b7f00000000000000000000000000000000000000000000000000000000000000006001600160a01b031633036103b2575f5b82811061129057005b5f546001600160a01b0316906112af6112aa828688613f39565b613f5d565b91803b156103ae576040516353d6fd5960e01b81526001600160a01b0393909316600484015283151560248401525f908390604490829084905af19182156103a357600192611300575b5001611287565b5f61130a91613f71565b856112f9565b346103ae5760403660031901126103ae57611329613dfa565b7f00000000000000000000000000000000000000000000000000000000000000006001600160a01b031633036103b2575f546001600160a01b0316803b156103ae575f8091604460405180948193637d01bbb360e11b8352871515600484015260243560248401525af180156103a357611440575b50156113ff575f5160206140675f395f51905f526040516113c0604082613f71565b601281527131b4b931bab4ba2fb13932b0b5b2b92fb7b760711b60208201525b60018060a01b035f5416906113fa60405192839283613fff565b0390a1005b5f5160206140675f395f51905f5260405161141b604082613f71565b601381527231b4b931bab4ba2fb13932b0b5b2b92fb7b33360691b60208201526113e0565b5f61144a91613f71565b8161139e565b346103ae5760603660031901126103ae57611469613e79565b611471613e8f565b611479613ea5565b917f00000000000000000000000000000000000000000000000000000000000000006001600160a01b031633036103b2576001600160a01b031680611567575b506001600160a01b031680611519575b506001600160a01b0316806114da57005b6002546001600160a01b031690813b156103ae575f91602483926040519485938492630f6bab3960e01b845260048401525af180156103a35761046957005b6002546001600160a01b031690813b156103ae575f9160248392604051948593849263055545fb60e41b845260048401525af180156103a357156114c9575f61156191613f71565b816114c9565b6002546001600160a01b031690813b156103ae575f91602483926040519485938492631029802160e21b845260048401525af180156103a357156114b9575f6115af91613f71565b826114b9565b346103ae575f3660031901126103ae575f546040516001600160a01b039091168152602090f35b346103ae5760403660031901126103ae576115f5613f17565b6115fd613f28565b7f00000000000000000000000000000000000000000000000000000000000000006001600160a01b031633036103b2576003546001600160a01b031691823b156103ae57604051631a31c34b60e11b815261ffff828116600483015283166024820152925f908490604490829084905af19283156103a3577ff4520fd8fa646cd03d963f7aac52687df531340e045ad8c4cff8cdbb321611db936116bb575b506040805161ffff9283168152929091166020830152819081016113fa565b5f6116c591613f71565b8361169c565b346103ae5760403660031901126103ae576116e4613e79565b6116ec613e09565b907f00000000000000000000000000000000000000000000000000000000000000006001600160a01b031633036103b2575f546001600160a01b031691823b156103ae576040516318cdbceb60e21b81526001600160a01b03909216600483015215156024820152905f9082908183816044810161067b565b346103ae575f3660031901126103ae57600254604051633588957d60e11b81526001600160a01b0390911690602081600481855afa9081156103a3575f9161188c575b50604051630709df4560e01b815233600482015291602083602481845afa9283156103a3576024936020915f9161185f575b506040519485809263652b9b4160e01b825260018060a01b0316948560048301525afa9081156103a3575f91611823575b60609350604051928352602083015215156040820152f35b90506020833d602011611857575b8161183e60209383613f71565b810103126103ae57611851606093613fd5565b9061180b565b3d9150611831565b61187f9150823d8411611885575b6118778183613f71565b810190613fa7565b856117da565b503d61186d565b90506020813d6020116118b6575b816118a760209383613f71565b810103126103ae5751826117a8565b3d915061189a565b346103ae5760403660031901126103ae576118d7613e79565b6118df613e09565b907f00000000000000000000000000000000000000000000000000000000000000006001600160a01b031633036103b2575f546001600160a01b031691823b156103ae5760405163027a35a160e31b81526001600160a01b03909216600483015215156024820152905f9082908183816044810161067b565b346103ae5760803660031901126103ae57611971613f17565b611979613f28565b90611982613ef5565b61198a613f06565b927f00000000000000000000000000000000000000000000000000000000000000006001600160a01b031633036103b2576004546001600160a01b031690813b156103ae576040516303e0ea6760e21b815261ffff9485166004820152908416602482015291831660448301529190921660648301525f9082908183816084810161067b565b346103ae5760203660031901126103ae57611a29613dfa565b7f00000000000000000000000000000000000000000000000000000000000000006001600160a01b031633036103b2575f546001600160a01b031690813b156103ae575f9160248392604051948593849263c4b740f560e01b8452151560048401525af180156103a35761046957005b346103ae575f3660031901126103ae575f5460405163a9e7572360e01b81526001600160a01b0390911690602081600481855afa9081156103a3575f91611c16575b5060405163bbde77c160e01b815291602083600481845afa9283156103a3575f93611be2575b5060405163f714af6f60e01b815290602082600481845afa9182156103a3575f92611bad575b50906020600492604051938480926368f1629360e01b82525afa9081156103a3575f91611b77575b6107e29250604051948594859094939260609260808301968352602083015260408201520152565b90506020823d602011611ba5575b81611b9260209383613f71565b810103126103ae576107e2915190611b4f565b3d9150611b85565b91506020823d602011611bda575b81611bc860209383613f71565b810103126103ae579051906020611b27565b3d9150611bbb565b9092506020813d602011611c0e575b81611bfe60209383613f71565b810103126103ae57519183611b01565b3d9150611bf1565b90506020813d602011611c40575b81611c3160209383613f71565b810103126103ae575182611adb565b3d9150611c24565b346103ae5760203660031901126103ae577f00000000000000000000000000000000000000000000000000000000000000006001600160a01b031633036103b2576001546001600160a01b0316803b156103ae575f809160246040518094819363697d31af60e11b835260043560048401525af180156103a35761046957005b346103ae5760203660031901126103ae57611ce1613e79565b7f00000000000000000000000000000000000000000000000000000000000000006001600160a01b031633036103b2576002546001600160a01b0316803b156103ae5760405163a2a78a7f60e01b81526001600160a01b0390921660048301819052905f908390602490829084905af19081156103a3575f5160206140675f395f51905f5292608092611da6575b506040519060408252601660408301527519185bd7dc9958dbdd995c9e57d99a5b985b1a5e995960521b60608301526020820152a1005b5f611db091613f71565b83611d6f565b346103ae5760203660031901126103ae57611dcf613e79565b5f54604051637adc723d60e01b81526001600160a01b0392831660048201529160209183916024918391165afa80156103a3575f90611e16575b6020906040519015158152f35b506020813d602011611e48575b81611e3060209383613f71565b810103126103ae57611e43602091613fd5565b611e09565b3d9150611e23565b346103ae57611e5e36613e18565b7f00000000000000000000000000000000000000000000000000000000000000006001600160a01b031633036103b2575f5b828110611e9957005b5f546001600160a01b031690611eb36112aa828688613f39565b91803b156103ae5760405163027a35a160e31b81526001600160a01b0393909316600484015283151560248401525f908390604490829084905af19182156103a357600192611f04575b5001611e90565b5f611f0e91613f71565b85611efd565b346103ae575f3660031901126103ae576040517f00000000000000000000000000000000000000000000000000000000000000006001600160a01b03168152602090f35b346103ae5760603660031901126103ae57600435602435611f77613ef5565b917f00000000000000000000000000000000000000000000000000000000000000006001600160a01b031633036103b2576003546001600160a01b031692833b156103ae57604051636c86d1f960e11b8152600481018390526024810184905261ffff82166044820152935f908590606490829084905af19081156103a3577f4f1f530ba712f35acedd7a906642f0d8810dffa9b9d81620e4b807dc80601be4946113fa92612045575b506040519384938491604091949361ffff9160608501968552602085015216910152565b5f61204f91613f71565b85612021565b346103ae5760403660031901126103ae576120b360a0612073613e79565b6003546040516331cf2e0f60e21b81526001600160a01b0390921660048301526024803590830152909283915f196001851b011690829081906044820190565b03915afa9081156103a3575f905f5f905f925f956120f3575b509160a0949161ffff93604051958652602086015260408501526060840152166080820152f35b94505050505060a0813d60a01161214b575b8161211260a09383613f71565b810103126103ae578061ffff60a0925191602081015192604082015191612140608060608301519201613fc6565b9550909390926120cc565b3d9150612105565b346103ae5760203660031901126103ae5761216c613f17565b6003546040805163ad0d14db60e01b815261ffff93909316600484015290829060249082906001600160a01b03165afa80156103a3575f906121b357602090604051908152f35b506040813d6040116121cd575b81610b3560409383613f71565b3d91506121c0565b346103ae575f3660031901126103ae5760035460405163556cfc1f60e01b81529060e090829060049082906001600160a01b03165afa80156103a3575f905f925f935f945f915f935f95612256575b509561ffff9160e097604051978852602088015260408701521660608501521515608084015260a083015260c0820152f35b965050505050505060e0813d60e0116122c8575b8161227760e09383613f71565b810103126103ae578060e091519060208101519160408201519161ffff6122a060608301613fc6565b6122ac60808401613fd5565b9060c060a0850151940151949695909193949591975091612224565b3d915061226a565b346103ae575f3660031901126103ae575f80546040516318160ddd60e01b81526001600160a01b0390911691602082600481865afa9182156103a3575f926124e4575b506040516301b8314b60e21b8152602081600481875afa9081156103a3575f916124aa575b50604051633a456d2960e11b815290602082600481885afa9182156103a3575f9261246e575b506040516316efd94160e01b815292602084600481895afa9384156103a3575f94612432575b506001546001600160a01b0316806123ca575b5060e095506040519485525f602086015260408501525f606085015215156080840152151560a0830152151560c0820152f35b602091506024604051809881936370a0823160e01b835260048301525afa80156103a3575f906123ff575b60e0955086612397565b506020853d60201161242a575b8161241960209383613f71565b810103126103ae5760e094516123f5565b3d915061240c565b9093506020813d602011612466575b8161244e60209383613f71565b810103126103ae5761245f90613fd5565b9286612384565b3d9150612441565b9091506020813d6020116124a2575b8161248a60209383613f71565b810103126103ae5761249b90613fd5565b908561235e565b3d915061247d565b90506020813d6020116124dc575b816124c560209383613f71565b810103126103ae576124d690613fd5565b84612338565b3d91506124b8565b9091506020813d602011612510575b8161250060209383613f71565b810103126103ae57519083612313565b3d91506124f3565b346103ae575f3660031901126103ae577f00000000000000000000000000000000000000000000000000000000000000006001600160a01b031633036103b2576001546001600160a01b0316803b156103ae575f80916024604051809481936305b0e2cf60e21b8352600160048401525af180156103a357612628575b505f546001600160a01b0316803b156103ae575f8091604460405180948193637d01bbb360e11b8352600160048401526201518060248401525af180156103a357612618575b5f5160206140675f395f51905f52608060405160408152600d60408201526c1cde5cdd195b57dc185d5cd959609a1b6060820152306020820152a1005b5f61262291613f71565b806125db565b5f61263291613f71565b80612595565b346103ae5760403660031901126103ae57612651613e79565b612659613e8f565b907f00000000000000000000000000000000000000000000000000000000000000006001600160a01b031633036103b2576001600160a01b0316806126e8575b506001600160a01b0316806126aa57005b5f546001600160a01b031690813b156103ae575f91602483926040519485938492635aaf1f9d60e11b845260048401525af180156103a35761046957005b5f546001600160a01b031690813b156103ae575f9160248392604051948593849263a34857cd60e01b845260048401525af180156103a35715612699575f61272f91613f71565b81612699565b346103ae5760803660031901126103ae577f00000000000000000000000000000000000000000000000000000000000000006001600160a01b031633036103b2575f546001600160a01b0316803b156103ae57604051630f0be7f960e21b81526004803590820152602480359082015260448035908201526064803590820152905f9082908183816084810161067b565b346103ae575f3660031901126103ae576002546040516001600160a01b039091168152602090f35b346103ae5760203660031901126103ae57612807613e79565b7f00000000000000000000000000000000000000000000000000000000000000006001600160a01b031633036103b2576002546001600160a01b031690813b156103ae576040516304ae060960e21b81526001600160a01b039091166004820152905f908290602490829084905af180156103a35761046957005b346103ae575f3660031901126103ae576003546040516001600160a01b039091168152602090f35b346103ae5760203660031901126103ae576128c3613e79565b60025460405163652b9b4160e01b81526001600160a01b03928316600482018190525f93849384929160209185916024918391165afa9283156103a3575f93612a56575b5082612938575b5060ff6080946040519460018060a01b031685521660208401521515604083015215156060820152f35b9350509050604051638da5cb5b60e01b8152602081600481865afa9081156103a3575f91612a37575b50906040516354387ad760e01b8152602081600481875afa9081156103a3575f916129f8575b50604051630153df6760e21b815293602090859060049082905afa9384156103a3575f946129b9575b509260ff61290e565b93506020843d6020116129f0575b816129d460209383613f71565b810103126103ae5760ff6129e9608095613fd5565b94506129b0565b3d91506129c7565b90506020813d602011612a2f575b81612a1360209383613f71565b810103126103ae57519260ff841684036103ae57926020612987565b3d9150612a06565b612a50915060203d602011611885576118778183613f71565b83612961565b9092506020813d602011612a8a575b81612a7260209383613f71565b810103126103ae57612a8390613fd5565b9185612907565b3d9150612a65565b346103ae5760403660031901126103ae57612aab613e79565b612ab3613e8f565b907f00000000000000000000000000000000000000000000000000000000000000006001600160a01b031633036103b2576002546001600160a01b0316803b156103ae5760405162e940c160e31b81526001600160a01b0383811660048301529390931660248401525f908390604490829084905af19081156103a3575f5160206140675f395f51905f5292608092612b86575b506040519060408252601660408301527519185bd7dc9958dbdd995c9e57dc995c5d595cdd195960521b606083015260018060a01b03166020820152a1005b5f612b9091613f71565b83612b47565b346103ae5760203660031901126103ae576004356001600160a01b038116908190036103ae577f00000000000000000000000000000000000000000000000000000000000000006001600160a01b031633036103b2578015612c89574780612bfa57005b5f80808093855af1612c0a614027565b5015612c4e5760805f5160206140675f395f51905f52916040519060408252600d60408301526c195d1a17dc9958dbdd995c9959609a1b60608301526020820152a1005b60405162461bcd60e51b8152602060048201526013602482015272115512081d1c985b9cd9995c8819985a5b1959606a1b6044820152606490fd5b630ad3d6df60e01b5f5260045ffd5b346103ae575f3660031901126103ae577f00000000000000000000000000000000000000000000000000000000000000006001600160a01b031633036103b2576001546001600160a01b0316803b156103ae575f80916024604051809481936305b0e2cf60e21b83528160048401525af180156103a357612da4575b505f546001600160a01b0316803b156103ae575f8091604460405180948193637d01bbb360e11b83528160048401528160248401525af180156103a357612d94575b5f5160206140675f395f51905f52608060405160408152600e60408201526d1cde5cdd195b57dc995cdd5b595960921b6060820152306020820152a1005b5f612d9e91613f71565b80612d56565b5f612dae91613f71565b80612d14565b346103ae5760203660031901126103ae57612dcd613e79565b60048054604051630d47875d60e41b81526001600160a01b0393841692810192909252909160209183916024918391165afa80156103a3575f90612e1b575b60209061ffff60405191168152f35b506020813d602011612e4d575b81612e3560209383613f71565b810103126103ae57612e48602091613fc6565b612e0c565b3d9150612e28565b346103ae5760403660031901126103ae57612e6e613e79565b612e76613e09565b907f00000000000000000000000000000000000000000000000000000000000000006001600160a01b031633036103b2576001600160a01b03811691823b156103ae575f8093602460405180968193633f49969960e11b835286151560048401525af19283156103a3575f5160206140675f395f51905f5293612f5f575b5015612f3157604051612f08604082613f71565b600c81526b3b30bab63a2fb33937bd32b760a11b60208201525b6113fa60405192839283613fff565b604051612f3f604082613f71565b600e81526d3b30bab63a2fbab7333937bd32b760911b6020820152612f22565b5f612f6991613f71565b83612ef4565b346103ae5760203660031901126103ae57612f88613dfa565b7f00000000000000000000000000000000000000000000000000000000000000006001600160a01b031633036103b2576001546001600160a01b0316803b156103ae575f80916024604051809481936305b0e2cf60e21b835287151560048401525af180156103a35761308d575b501561304f575f5160206140675f395f51905f52604051613018604082613f71565b600e81526d1c1c995cd85b1957dc185d5cd95960921b60208201525b60018060a01b0360015416906113fa60405192839283613fff565b5f5160206140675f395f51905f5260405161306b604082613f71565b601081526f1c1c995cd85b1957dd5b9c185d5cd95960821b6020820152613034565b5f61309791613f71565b81612ff6565b346103ae5760403660031901126103ae576130b6613e79565b6130be613e8f565b907f00000000000000000000000000000000000000000000000000000000000000006001600160a01b031633036103b2576001546001600160a01b031691823b156103ae57604051636848d17d60e11b81526001600160a01b03928316600482015291166024820152905f9082908183816044810161067b565b346103ae5760203660031901126103ae5760043567ffffffffffffffff81168091036103ae577f00000000000000000000000000000000000000000000000000000000000000006001600160a01b031633036103b2576002546001600160a01b031690813b156103ae575f91602483926040519485938492639ce492f160e01b845260048401525af180156103a35761046957005b346103ae5760a03660031901126103ae576004356024356131ec613ef5565b916131f5613f06565b9260843580151581036103ae577f00000000000000000000000000000000000000000000000000000000000000006001600160a01b031633036103b2576003546001600160a01b0316803b156103ae5760405163024ec29360e31b8152600481018590526024810186905261ffff848116604483015287166064820152821515608482015295905f90879060a490829084905af19283156103a3577ff7d6a60a5abfa76db66a2659a0a81708176589b02f89d200e3a37b2fcb6367c7966113fa946132ee575b50604051958695869361ffff608094819398979460a0880199885260208801521660408601521660608401521515910152565b5f6132f891613f71565b876132bb565b346103ae575f3660031901126103ae575f546040516318160ddd60e01b815290602090829060049082906001600160a01b03165afa9081156103a3575f91613619575b5015801560018060a01b0360015416916040519263bb4c46e960e01b8452604084600481845afa9384156103a3575f946135f7575b5083613519575b50600254604051633588957d60e11b81529190602090839060049082906001600160a01b03165afa80156103a3575f906134e5575b6107e2925015159083806134de575b806134d7575b1561342c57506040516133db604082613f71565b601781527f416c6c2073797374656d73206f7065726174696f6e616c0000000000000000006020820152905b6040519485948552151560208501526040840152608060608401526080830190613ed1565b156134665760405161343f604082613f71565b6014815273151bdad95b881a5cdcdd594819195d1958dd195960621b602082015290613407565b836134a257604051613479604082613f71565b6016815275141c995cd85b19481a5cdcdd594819195d1958dd195960521b602082015290613407565b6040516134b0604082613f71565b601481527315985d5b1d081a5cdcdd594819195d1958dd195960621b602082015290613407565b50816133c7565b50846133c1565b506020823d602011613511575b816134ff60209383613f71565b810103126103ae576107e291516133b2565b3d91506134f2565b604051635c975abb60e01b8152919350602082600481845afa80156103a3575f906135bd575b6004925015908115613554575b50929061337d565b60405163b3f05b9760e01b81529260209250839182905afa80156103a3575f90613583575b600491508461354c565b506020813d6020116135b5575b8161359d60209383613f71565b810103126103ae576135b0600491613fd5565b613579565b3d9150613590565b506020823d6020116135ef575b816135d760209383613f71565b810103126103ae576135ea600492613fd5565b61353f565b3d91506135ca565b61361191945060403d604011610e8e57610e7e8183613f71565b509284613376565b90506020813d602011613643575b8161363460209383613f71565b810103126103ae575181613341565b3d9150613627565b346103ae575f3660031901126103ae57600354604051639460e3cf60e01b81526001600160a01b0390911690602081600481855afa9081156103a3575f91613845575b5060405163f5c6f5ab60e01b8152602081600481865afa9081156103a3575f91613813575b5060405163588fe6b760e01b8152602081600481875afa9081156103a3575f916137d9575b5060405163b81ee45960e01b815291602083600481885afa9283156103a3575f93613798575b5060206004956040519687809263601ebb3360e11b82525afa9485156103a3575f95613750575b509161ffff60a095928194604051968752602087015216604085015215156060840152166080820152f35b945090916020853d602011613790575b8161376d60209383613f71565b810103126103ae5761ffff809361378560a097613fc6565b965092919350613725565b3d9150613760565b9492506020853d6020116137d1575b816137b460209383613f71565b810103126103ae5760206137c9600496613fd5565b9395506136fe565b3d91506137a7565b90506020813d60201161380b575b816137f460209383613f71565b810103126103ae5761380590613fc6565b846136d8565b3d91506137e7565b90506020813d60201161383d575b8161382e60209383613f71565b810103126103ae5751836136b3565b3d9150613821565b90506020813d60201161386f575b8161386060209383613f71565b810103126103ae57518261368e565b3d9150613853565b346103ae575f3660031901126103ae576004546040516001600160a01b039091168152602090f35b346103ae5760603660031901126103ae576138b8613e79565b6138c0613e8f565b907f00000000000000000000000000000000000000000000000000000000000000006001600160a01b031633036103b2576001600160a01b03169081158015613a1b575b612c895760405163a9059cbb60e01b602082019081526001600160a01b03929092166024820152604480358183015281525f918291613944606482613f71565b519082855af1613952614027565b816139e4575b501561399f5760805f5160206140675f395f51905f52916040519060408252601060408301526f1d1bdad95b9cd7dc9958dbdd995c995960821b60608301526020820152a1005b60405162461bcd60e51b815260206004820152601a60248201527f5361666545524332303a207472616e73666572206661696c65640000000000006044820152606490fd5b80518015925082156139f9575b505082613958565b81925090602091810103126103ae576020613a149101613fd5565b82806139f1565b506001600160a01b03811615613904565b346103ae575f3660031901126103ae575f546040516332941ecb60e01b815290602090829060049082906001600160a01b03165afa80156103a3575f90611e16576020906040519015158152f35b346103ae575f3660031901126103ae5760018060a01b03600454166040516352a67c5d60e01b8152602081600481855afa9081156103a3575f91613c0e575b50604051632519fdb960e11b815291602083600481845afa9283156103a3575f93613bd2575b50604051634ccf04cf60e01b815290602082600481845afa9182156103a3575f92613b93575b509060206004926040519384809263e710c92b60e01b82525afa9081156103a3575f91613b56575b6040805161ffff9586168152958516602087015290841690850152909116606083015250608090f35b90506020823d602011613b8b575b81613b7160209383613f71565b810103126103ae57613b856107e292613fc6565b90613b2d565b3d9150613b64565b91506020823d602011613bca575b81613bae60209383613f71565b810103126103ae576020613bc3600493613fc6565b9250613b05565b3d9150613ba1565b9092506020813d602011613c06575b81613bee60209383613f71565b810103126103ae57613bff90613fc6565b9183613adf565b3d9150613be1565b90506020813d602011613c40575b81613c2960209383613f71565b810103126103ae57613c3a90613fc6565b82613ab9565b3d9150613c1c565b346103ae5760203660031901126103ae57613c61613e79565b5f54604051639d82190f60e01b81526001600160a01b0392831660048201529160209183916024918391165afa80156103a3575f90610b1b57602090604051908152f35b346103ae5760203660031901126103ae57613cbe613e79565b600254604051630709df4560e01b81526001600160a01b0392831660048201529160209183916024918391165afa80156103a3576040915f91613d17575b5081516001600160a01b039190911680151582526020820152f35b613d30915060203d602011611885576118778183613f71565b82613cfc565b346103ae57613d4436613e18565b7f00000000000000000000000000000000000000000000000000000000000000006001600160a01b031633036103b2575f5b828110613d7f57005b5f546001600160a01b031690613d996112aa828688613f39565b91803b156103ae57604051630a9d868f60e11b81526001600160a01b0393909316600484015283151560248401525f908390604490829084905af19182156103a357600192613dea575b5001613d76565b5f613df491613f71565b85613de3565b6004359081151582036103ae57565b6024359081151582036103ae57565b9060406003198301126103ae5760043567ffffffffffffffff81116103ae57826023820112156103ae5780600401359267ffffffffffffffff84116103ae5760248460051b830101116103ae57602401919060243580151581036103ae5790565b600435906001600160a01b03821682036103ae57565b602435906001600160a01b03821682036103ae57565b604435906001600160a01b03821682036103ae57565b606435906001600160a01b03821682036103ae57565b805180835260209291819084018484015e5f828201840152601f01601f1916010190565b6044359061ffff821682036103ae57565b6064359061ffff821682036103ae57565b6004359061ffff821682036103ae57565b6024359061ffff821682036103ae57565b9190811015613f495760051b0190565b634e487b7160e01b5f52603260045260245ffd5b356001600160a01b03811681036103ae5790565b90601f8019910116810190811067ffffffffffffffff821117613f9357604052565b634e487b7160e01b5f52604160045260245ffd5b908160209103126103ae57516001600160a01b03811681036103ae5790565b519061ffff821682036103ae57565b519081151582036103ae57565b91908260409103126103ae576020613ff983613fd5565b92015190565b90614017602091949394604084526040840190613ed1565b6001600160a01b03909416910152565b3d15614061573d9067ffffffffffffffff8211613f935760405191614056601f8201601f191660200184613f71565b82523d5f602084013e565b60609056fe2a09e26ec96218a3a144df2e04de096b7f0410106a4caff3cdfa5d667e604f2aa2646970667358221220f841d4f4474e2ecf16cce5484a68c7f1bc9e5a4665955752d7184aef4cbe0a3864736f6c634300081e0033","linkReferences":{}},"methodIdentifiers":{"burnRouter()":"6c32b2ec","emergency_pauseAll()":"7b898d0c","emergency_recoverETH(address)":"58e378d9","emergency_recoverTokens(address,address,uint256)":"25f0dfaf","emergency_resumeAll()":"505cc393","fees_getEffectiveRates(address)":"d831d55d","fees_getPolicy()":"f254929e","fees_previewForScore(uint16)":"85a9a51f","fees_previewTransfer(address,uint256)":"87980ec1","fees_setPolicy(uint16,uint16)":"b555290c","getPresaleStatus()":"d7517caa","getSystemHealth()":"31a6be8c","getTokenStatus()":"7edc9d4b","getVaultDetails(address)":"67a44ca3","getVaultStatus()":"aede67ea","hasVault(address)":"0d453efb","owner()":"8da5cb5b","presale()":"fdea8e0b","presale_emergencyWithdraw()":"f4a3c94c","presale_enableRefunds()":"fe917bd3","presale_extendSale(uint256)":"f64ee9d3","presale_finalize(address,address)":"4285b521","presale_fundRefunds()":"c6f3cb98","presale_setMaxGasPrice(uint256)":"a9fe0d8a","presale_setPaused(bool)":"450ffa8b","presale_withdrawUnsold(address)":"c117a1d2","seer()":"2d55ea39","seer_getScore(address)":"4e929f61","seer_getThresholds()":"16332c0b","seer_setThresholds(uint16,uint16,uint16,uint16)":"ad1cbfc1","setContracts(address,address,address,address,address)":"f63bf8bd","sustainability_getConfig()":"2f78026e","sustainability_getStatus()":"7f7c65e0","sustainability_setAdaptiveFees(uint256,uint256,uint16,uint16,bool)":"35f35bf8","sustainability_setBurnLimits(uint256,uint256,uint16)":"8d540669","sustainability_setTokenReference(address)":"bdde6f21","token_batchBlacklist(address[],bool)":"011dcb79","token_batchWhaleLimitExempt(address[],bool)":"9be95eff","token_batchWhitelist(address[],bool)":"bd284d1a","token_cooldownRemaining(address)":"0f2d3b79","token_getAntiWhaleConfig()":"aa452e9b","token_isCircuitBreakerActive()":"199f27bf","token_isWhaleLimitExempt(address)":"a5e3b21d","token_lockPolicy()":"e02cd68a","token_remainingDailyLimit(address)":"e1aa87e8","token_setAntiWhale(uint256,uint256,uint256,uint256)":"71cb804a","token_setBlacklist(address,bool)":"f4e32699","token_setCircuitBreaker(bool,uint256)":"bb4de8b9","token_setModules(address,address,address,address)":"f0d4344d","token_setSinks(address,address)":"78a2e013","token_setSystemExempt(address,bool)":"b14867f6","token_setVaultOnly(bool)":"aadde38b","token_setWhaleLimitExempt(address,bool)":"adadeac6","token_setWhitelist(address,bool)":"be38ee5c","vaultHub()":"6dd6e80b","vault_cancelDAORecovery(address)":"e625e80a","vault_finalizeDAORecovery(address)":"a8f5daf0","vault_freezeVault(address,bool)":"4544a101","vault_requestDAORecovery(address,address)":"671f9b0e","vault_setDAOMultisig(address)":"6cc92c8e","vault_setModules(address,address,address)":"ba92c3c7","vault_setRecoveryTimelock(uint64)":"3d27e5ed","vfideToken()":"b8a71eec"},"id":17}