{"abi":[{"type":"constructor","inputs":[{"name":"_admin","type":"address","internalType":"address"},{"name":"_timelock","type":"address","internalType":"address"},{"name":"_seer","type":"address","internalType":"address"},{"name":"_hub","type":"address","internalType":"address"},{"name":"_hooks","type":"address","internalType":"address"}],"stateMutability":"nonpayable"},{"type":"function","name":"FATIGUE_PER_VOTE","inputs":[],"outputs":[{"name":"","type":"uint256","internalType":"uint256"}],"stateMutability":"view"},{"type":"function","name":"FATIGUE_RECOVERY_RATE","inputs":[],"outputs":[{"name":"","type":"uint256","internalType":"uint256"}],"stateMutability":"view"},{"type":"function","name":"admin","inputs":[],"outputs":[{"name":"","type":"address","internalType":"address"}],"stateMutability":"view"},{"type":"function","name":"disputeFlag","inputs":[{"name":"user","type":"address","internalType":"address"},{"name":"reason","type":"string","internalType":"string"}],"outputs":[],"stateMutability":"nonpayable"},{"type":"function","name":"finalize","inputs":[{"name":"id","type":"uint256","internalType":"uint256"}],"outputs":[],"stateMutability":"nonpayable"},{"type":"function","name":"getActiveProposals","inputs":[],"outputs":[{"name":"ids","type":"uint256[]","internalType":"uint256[]"}],"stateMutability":"view"},{"type":"function","name":"getFatigueInfo","inputs":[{"name":"voter","type":"address","internalType":"address"}],"outputs":[{"name":"currentFatigue","type":"uint256","internalType":"uint256"},{"name":"lastVoteTime","type":"uint256","internalType":"uint256"},{"name":"recoveredSince","type":"uint256","internalType":"uint256"},{"name":"effectiveFatigue","type":"uint256","internalType":"uint256"}],"stateMutability":"view"},{"type":"function","name":"getProposalDetails","inputs":[{"name":"id","type":"uint256","internalType":"uint256"}],"outputs":[{"name":"proposer","type":"address","internalType":"address"},{"name":"ptype","type":"uint8","internalType":"enum DAO.ProposalType"},{"name":"target","type":"address","internalType":"address"},{"name":"value","type":"uint256","internalType":"uint256"},{"name":"description","type":"string","internalType":"string"},{"name":"startTime","type":"uint64","internalType":"uint64"},{"name":"endTime","type":"uint64","internalType":"uint64"},{"name":"forVotes","type":"uint256","internalType":"uint256"},{"name":"againstVotes","type":"uint256","internalType":"uint256"},{"name":"executed","type":"bool","internalType":"bool"},{"name":"queued","type":"bool","internalType":"bool"}],"stateMutability":"view"},{"type":"function","name":"getProposalStatus","inputs":[{"name":"id","type":"uint256","internalType":"uint256"}],"outputs":[{"name":"status","type":"string","internalType":"string"},{"name":"quorumMet","type":"bool","internalType":"bool"},{"name":"passing","type":"bool","internalType":"bool"},{"name":"timeRemaining","type":"uint256","internalType":"uint256"}],"stateMutability":"view"},{"type":"function","name":"getProposalsBatch","inputs":[{"name":"ids","type":"uint256[]","internalType":"uint256[]"}],"outputs":[{"name":"forVotesCounts","type":"uint256[]","internalType":"uint256[]"},{"name":"againstVotesCounts","type":"uint256[]","internalType":"uint256[]"},{"name":"executedFlags","type":"bool[]","internalType":"bool[]"},{"name":"queuedFlags","type":"bool[]","internalType":"bool[]"}],"stateMutability":"view"},{"type":"function","name":"getVoterHistory","inputs":[{"name":"voter","type":"address","internalType":"address"}],"outputs":[{"name":"proposalIds","type":"uint256[]","internalType":"uint256[]"}],"stateMutability":"view"},{"type":"function","name":"getVoterStats","inputs":[{"name":"voter","type":"address","internalType":"address"}],"outputs":[{"name":"votesTotal","type":"uint256","internalType":"uint256"},{"name":"forVotes","type":"uint256","internalType":"uint256"},{"name":"againstVotes","type":"uint256","internalType":"uint256"},{"name":"participationRate","type":"uint256","internalType":"uint256"}],"stateMutability":"view"},{"type":"function","name":"getVotingPower","inputs":[{"name":"voter","type":"address","internalType":"address"}],"outputs":[{"name":"rawScore","type":"uint256","internalType":"uint256"},{"name":"fatiguePercent","type":"uint256","internalType":"uint256"},{"name":"effectivePower","type":"uint256","internalType":"uint256"}],"stateMutability":"view"},{"type":"function","name":"hasVoted","inputs":[{"name":"id","type":"uint256","internalType":"uint256"},{"name":"voter","type":"address","internalType":"address"}],"outputs":[{"name":"","type":"bool","internalType":"bool"}],"stateMutability":"view"},{"type":"function","name":"hooks","inputs":[],"outputs":[{"name":"","type":"address","internalType":"contract IGovernanceHooks"}],"stateMutability":"view"},{"type":"function","name":"isEligible","inputs":[{"name":"user","type":"address","internalType":"address"}],"outputs":[{"name":"","type":"bool","internalType":"bool"}],"stateMutability":"view"},{"type":"function","name":"ledger","inputs":[],"outputs":[{"name":"","type":"address","internalType":"contract IProofLedger"}],"stateMutability":"view"},{"type":"function","name":"markExecuted","inputs":[{"name":"id","type":"uint256","internalType":"uint256"}],"outputs":[],"stateMutability":"nonpayable"},{"type":"function","name":"minVotesRequired","inputs":[],"outputs":[{"name":"","type":"uint256","internalType":"uint256"}],"stateMutability":"view"},{"type":"function","name":"proposalCount","inputs":[],"outputs":[{"name":"","type":"uint256","internalType":"uint256"}],"stateMutability":"view"},{"type":"function","name":"proposals","inputs":[{"name":"","type":"uint256","internalType":"uint256"}],"outputs":[{"name":"proposer","type":"address","internalType":"address"},{"name":"target","type":"address","internalType":"address"},{"name":"value","type":"uint256","internalType":"uint256"},{"name":"data","type":"bytes","internalType":"bytes"},{"name":"description","type":"string","internalType":"string"},{"name":"ptype","type":"uint8","internalType":"enum DAO.ProposalType"},{"name":"start","type":"uint64","internalType":"uint64"},{"name":"end","type":"uint64","internalType":"uint64"},{"name":"executed","type":"bool","internalType":"bool"},{"name":"queued","type":"bool","internalType":"bool"},{"name":"forVotes","type":"uint256","internalType":"uint256"},{"name":"againstVotes","type":"uint256","internalType":"uint256"}],"stateMutability":"view"},{"type":"function","name":"propose","inputs":[{"name":"ptype","type":"uint8","internalType":"enum DAO.ProposalType"},{"name":"target","type":"address","internalType":"address"},{"name":"value","type":"uint256","internalType":"uint256"},{"name":"data","type":"bytes","internalType":"bytes"},{"name":"description","type":"string","internalType":"string"}],"outputs":[{"name":"id","type":"uint256","internalType":"uint256"}],"stateMutability":"nonpayable"},{"type":"function","name":"seer","inputs":[],"outputs":[{"name":"","type":"address","internalType":"contract ISeer"}],"stateMutability":"view"},{"type":"function","name":"setAdmin","inputs":[{"name":"_admin","type":"address","internalType":"address"}],"outputs":[],"stateMutability":"nonpayable"},{"type":"function","name":"setModules","inputs":[{"name":"_timelock","type":"address","internalType":"address"},{"name":"_seer","type":"address","internalType":"address"},{"name":"_hub","type":"address","internalType":"address"},{"name":"_hooks","type":"address","internalType":"address"}],"outputs":[],"stateMutability":"nonpayable"},{"type":"function","name":"setParams","inputs":[{"name":"_period","type":"uint64","internalType":"uint64"},{"name":"_minVotes","type":"uint256","internalType":"uint256"}],"outputs":[],"stateMutability":"nonpayable"},{"type":"function","name":"timelock","inputs":[],"outputs":[{"name":"","type":"address","internalType":"contract IDAOTimelock"}],"stateMutability":"view"},{"type":"function","name":"vaultHub","inputs":[],"outputs":[{"name":"","type":"address","internalType":"contract IVaultHub"}],"stateMutability":"view"},{"type":"function","name":"vote","inputs":[{"name":"id","type":"uint256","internalType":"uint256"},{"name":"support","type":"bool","internalType":"bool"}],"outputs":[],"stateMutability":"nonpayable"},{"type":"function","name":"voterInfo","inputs":[{"name":"","type":"address","internalType":"address"}],"outputs":[{"name":"lastVoteTime","type":"uint256","internalType":"uint256"},{"name":"fatigue","type":"uint256","internalType":"uint256"}],"stateMutability":"view"},{"type":"function","name":"votingDelay","inputs":[],"outputs":[{"name":"","type":"uint64","internalType":"uint64"}],"stateMutability":"view"},{"type":"function","name":"votingPeriod","inputs":[],"outputs":[{"name":"","type":"uint64","internalType":"uint64"}],"stateMutability":"view"},{"type":"function","name":"withdrawProposal","inputs":[{"name":"id","type":"uint256","internalType":"uint256"}],"outputs":[],"stateMutability":"nonpayable"},{"type":"function","name":"withdrawnProposalHashes","inputs":[{"name":"","type":"bytes32","internalType":"bytes32"}],"outputs":[{"name":"","type":"bool","internalType":"bool"}],"stateMutability":"view"},{"type":"event","name":"AdminSet","inputs":[{"name":"admin","type":"address","indexed":false,"internalType":"address"}],"anonymous":false},{"type":"event","name":"DisputeFlagged","inputs":[{"name":"user","type":"address","indexed":true,"internalType":"address"},{"name":"caller","type":"address","indexed":true,"internalType":"address"},{"name":"reason","type":"string","indexed":false,"internalType":"string"}],"anonymous":false},{"type":"event","name":"Executed","inputs":[{"name":"id","type":"uint256","indexed":false,"internalType":"uint256"}],"anonymous":false},{"type":"event","name":"Finalized","inputs":[{"name":"id","type":"uint256","indexed":false,"internalType":"uint256"},{"name":"passed","type":"bool","indexed":false,"internalType":"bool"}],"anonymous":false},{"type":"event","name":"ModulesSet","inputs":[{"name":"timelock","type":"address","indexed":false,"internalType":"address"},{"name":"seer","type":"address","indexed":false,"internalType":"address"},{"name":"hub","type":"address","indexed":false,"internalType":"address"},{"name":"hooks","type":"address","indexed":false,"internalType":"address"},{"name":"council","type":"address","indexed":false,"internalType":"address"}],"anonymous":false},{"type":"event","name":"ParamsSet","inputs":[{"name":"votingPeriod","type":"uint64","indexed":false,"internalType":"uint64"},{"name":"minVotesRequired","type":"uint256","indexed":false,"internalType":"uint256"}],"anonymous":false},{"type":"event","name":"ProposalCreated","inputs":[{"name":"id","type":"uint256","indexed":false,"internalType":"uint256"},{"name":"proposer","type":"address","indexed":false,"internalType":"address"},{"name":"ptype","type":"uint8","indexed":false,"internalType":"enum DAO.ProposalType"},{"name":"target","type":"address","indexed":false,"internalType":"address"},{"name":"value","type":"uint256","indexed":false,"internalType":"uint256"},{"name":"data","type":"bytes","indexed":false,"internalType":"bytes"},{"name":"description","type":"string","indexed":false,"internalType":"string"}],"anonymous":false},{"type":"event","name":"ProposalStateChanged","inputs":[{"name":"id","type":"uint256","indexed":true,"internalType":"uint256"},{"name":"oldState","type":"string","indexed":false,"internalType":"string"},{"name":"newState","type":"string","indexed":false,"internalType":"string"}],"anonymous":false},{"type":"event","name":"ProposalWithdrawn","inputs":[{"name":"id","type":"uint256","indexed":false,"internalType":"uint256"},{"name":"proposer","type":"address","indexed":true,"internalType":"address"}],"anonymous":false},{"type":"event","name":"Queued","inputs":[{"name":"id","type":"uint256","indexed":false,"internalType":"uint256"},{"name":"timelockId","type":"bytes32","indexed":false,"internalType":"bytes32"}],"anonymous":false},{"type":"event","name":"VoteDelegated","inputs":[{"name":"delegator","type":"address","indexed":true,"internalType":"address"},{"name":"delegate","type":"address","indexed":true,"internalType":"address"}],"anonymous":false},{"type":"event","name":"Voted","inputs":[{"name":"id","type":"uint256","indexed":false,"internalType":"uint256"},{"name":"voter","type":"address","indexed":false,"internalType":"address"},{"name":"support","type":"bool","indexed":false,"internalType":"bool"}],"anonymous":false},{"type":"error","name":"DAO_AlreadyVoted","inputs":[]},{"type":"error","name":"DAO_NotAdmin","inputs":[]},{"type":"error","name":"DAO_NotEligible","inputs":[]},{"type":"error","name":"DAO_UnknownProposal","inputs":[]},{"type":"error","name":"DAO_VoteEnded","inputs":[]},{"type":"error","name":"DAO_VoteNotStarted","inputs":[]}],"bytecode":{"object":"0x60803461021157601f61294738819003918201601f19168301916001600160401b038311848410176102155780849260a0946040528339810103126102115761004781610229565b9061005460208201610229565b61006060408301610229565b92610079608061007260608601610229565b9401610229565b60015f5560068054600160a01b600160e01b0319166107e960a71b179055600780546001600160401b031916620151801790556113886008556001600160a01b0390911691821515806101ff575b806101ed575b806101db575b156101b057600180546001600160a01b031990811685179091556002805482166001600160a01b0393841690811790915560038054831697841697881790556004805483169684169687179055600580549092169390921692831790556040805191825260208083019690965281019390935260608301525f60808301527f8fe72c3e0020beb3234e76ae6676fa576fbfcae600af1c4fea44784cf0db329c92917f3676b3b8ddb712ee065be8fd22e137c8832e03de83c7fbccd82d6a1813f7b4d39060a090a1604051908152a1604051612709908161023e8239f35b606460405162461bcd60e51b81526020600482015260046024820152637a65726f60e01b6044820152fd5b506001600160a01b03841615156100d3565b506001600160a01b03851615156100cd565b506001600160a01b03811615156100c7565b5f80fd5b634e487b7160e01b5f52604160045260245ffd5b51906001600160a01b03821682036102115756fe6080806040526004361015610012575f80fd5b5f905f3560e01c908163013cf08b1461206e5750806302a251a31461204557806305261aea14611d135780632d55ea3914611cea5780633932abb114611cc35780633ac01d3f14611c215780633b4d01a714611b31578063401853b7146119b7578063403fb4a814611999578063438596321461194c5780634777cc281461191d57806349348c7b146119015780635584c4f91461179857806356397c351461176f5780635643591d1461162c5780635bff3c231461153a57806361a51f441461151c57806366e305fd146114ee578063699e63341461142d5780636dd6e80b14611404578063704b6c021461138f5780638d24e68d14611251578063b079fbff14611123578063bb4d443614610fd5578063be9f9e7914610f4b578063c9d27afe14610abb578063cd090f7e14610575578063cd7033c41461054c578063cdf58d3514610509578063d33219b4146104e0578063da35c664146104c2578063e1f02ffa1461027b578063f6405119146101bf5763f851a44014610194575f80fd5b346101bc57806003193601126101bc576001546040516001600160a01b039091168152602090f35b80fd5b50346101bc5760203660031901126101bc576004356101dc61255e565b808252600a602052600560408320019081549060ff8260901c168061026d575b156102425760ff60881b19909116600160881b179091556040519081527fbcf6a68a2f901be4a23a41b53acd7697893a7e34def4e28acba584da75283b6790602090a180f35b60405162461bcd60e51b815260206004820152600360248201526218985960ea1b6044820152606490fd5b5060ff8260881c16156101fc565b50346101bc5760203660031901126101bc57600435808252600a6020526040822080546001600160a01b0316330361048e57600581015460ff8160881c161580610480575b15610447576103236102f89161031560ff9460018060a01b0360018201541660028201549060405196879560208701998a9116612294565b60408501526060840152608080840152600360a0840191016121ba565b03601f19810183528261223b565b5190208252600b60205260408220600160ff19825416179055808252600a6020528160076040822082815582600182015582600282015582600382016103698154612182565b80610405575b50506004820161037f8154612182565b806103c3575b5050600582015582600682015501556040519081527f227963be52ff8a07c7da3b18de57749070333730ee5489bc9c414a467e5425cf60203392a280f35b601f81116001146103d95750555b825f80610385565b818352602083206103f591601f0160051c8101906001016124a2565b80825281602081209155556103d1565b601f811160011461041b5750555b825f8061036f565b8183526020832061043791601f0160051c8101906001016124a2565b8082528160208120915555610413565b60405162461bcd60e51b8152602060048201526011602482015270105b1c9958591e481c1c9bd8d95cdcd959607a1b6044820152606490fd5b5060ff8160901c16156102c0565b60405162461bcd60e51b815260206004820152600c60248201526b2737ba10383937b837b9b2b960a11b6044820152606490fd5b50346101bc57806003193601126101bc576020600954604051908152f35b50346101bc57806003193601126101bc576002546040516001600160a01b039091168152602090f35b50346101bc5760203660031901126101bc5760409081906001600160a01b036105306122b5565b168152600c602052206001815491015482519182526020820152f35b50346101bc57806003193601126101bc576005546040516001600160a01b039091168152602090f35b50346101bc5760a03660031901126101bc57600435600481101580610ab75761059c6122cb565b91604435926064356001600160401b038111610ab3576105c0903690600401612314565b6084356001600160401b038111610aaf576105df903690600401612314565b9690936105eb33612581565b15610aa0576001600160a01b03168015801590610a95575b15610a5a578715610a1c5760405160208101906106208289612294565b8260408201528360608201526080808201526106448161031560a08201888a612436565b5190208952600b60205260ff60408a2054166109c8576106656009546123b7565b6009819055808a52600a60205260408a2080546001600160a01b0319163317815590976005820191906109b45760ff1982541660ff891617825560018101836001600160601b0360a01b825416179055836002820155600381016001600160401b0386116109a0576106e1866106db8354612182565b836124b8565b858c8d601f831160011461093457918061071392600496959491610929575b508160011b915f199060031b1c19161790565b90555b016001600160401b038a116109155760209a61073c8b6107368454612182565b846124b8565b80601f8c11600114610882579361086c97936108439a99979361079b8e7f334e10103f2c922a8712870b48eda402331a41dae7facb36cf4c24756fffb68d9e9f809a9661085e9a9161087757508160011b915f199060031b1c19161790565b90555b6107bc6001600160401b03600754166001600160401b0342166124fd565b68ffffffffffffffff0082549160081b1670ffffffffffffffff00000000000000000061080e8268ffffffffffffffff00198516178086556001600160401b038060065460a01c169160081c166124fd565b60481b169170ffffffffffffffffffffffffffffffff00191617179055604051998a998d8b52338f8c015260408b0190612294565b6060890152608088015260e060a088015260e0870191612436565b9184830360c0860152612436565b0390a1604051908152f35b90508b01355f610700565b90601f198c168383528d8320925b8181106108fe5750936108439a9997938d979361085e97937f334e10103f2c922a8712870b48eda402331a41dae7facb36cf4c24756fffb68d9e9f61086c9c98106108e5575b5050600188811b01905561079e565b8a01355f1960038b901b60f8161c191690555f806108d6565b91928e60018192868e013581550194019201610890565b634e487b7160e01b8b52604160045260248bfd5b90508a01355f610700565b8381526020812090949392509088601f1981165b8b8188106109835750600496501061096a575b5050600187811b019055610716565b8901355f1960038a901b60f8161c191690555f8061095b565b8301358455602096870196600190940193909201918a9150610948565b634e487b7160e01b8c52604160045260248cfd5b634e487b7160e01b8b52602160045260248bfd5b60405162461bcd60e51b815260206004820152602660248201527f44414f3a2070726f706f73616c207761732070726576696f75736c792077697460448201526534323930bbb760d11b6064820152608490fd5b60405162461bcd60e51b81526020600482015260166024820152752220a79d1032b6b83a3c903232b9b1b934b83a34b7b760511b6044820152606490fd5b60405162461bcd60e51b8152602060048201526013602482015272111053ce881a5b9d985b1a59081d185c99d95d606a1b6044820152606490fd5b508896508515610603565b630593eb8f60e51b8952600489fd5b8780fd5b8580fd5b8280fd5b50346101bc5760403660031901126101bc57600435906024358015158103610f4757610ae561251d565b828252600a602052604082209260058401546001600160401b038160481c168015610f38576001600160401b038260081c164210610f2957421015610f1a57610b2d33612581565b15610f0b57600885019060018060a01b0333165f528160205260ff60405f205416610efc5760ff8160881c16159081610eed575b5015610ea857335f8181526020928352604090819020805460ff19166001179055908552600d909152832080549068010000000000000000821015610e945760018201808255821015610e805784526020808520909101829055600354604051630d47875d60e41b81523360048201529190829060249082906001600160a01b03165afa908115610e75579061ffff918591610e46575b5016338452600c6020526040842094855480610de4575b506001860195865480610d9e575b60058101809111610d8a57869755429055835f14610d74576006610c449101918254612376565b90555b60408051828152336020820152831515918101919091527ff2913dbe661ee2acc4a046d8fbcdc792373bda34c41c6086484b5345e5785e5f90606090a16003546001600160a01b0316803b15610d56578380809260a460405180948193630eccbd3560e11b83523360048401526005602484015260606044840152600860648401526764616f5f766f746560c01b60848401525af1610d5b575b50506005546001600160a01b03169182610cfe575b836001815580f35b823b15610d5657604051635b43b6eb60e11b81526004810192909252336024830152151560448201529082908290606490829084905af1610d41575b8080610cf6565b81610d4b9161223b565b6101bc57805f610d3a565b505050fd5b81610d659161223b565b610d7057825f610ce1565b5050fd5b6007610d839101918254612376565b9055610c47565b634e487b7160e01b87526011600452602487fd5b92605a841115610dde57605a5b6064039060648211610dca57606491610dc3916123a4565b0492610c1d565b634e487b7160e01b88526011600452602488fd5b83610dab565b610df2620151809142612397565b04600581029080820460051490151715610e3257600187018054879290808210610e20575050555b5f610c0f565b610e2b929350612397565b9055610e1a565b634e487b7160e01b86526011600452602486fd5b610e68915060203d602011610e6e575b610e60818361223b565b810190612488565b5f610bf8565b503d610e56565b6040513d86823e3d90fd5b634e487b7160e01b85526032600452602485fd5b634e487b7160e01b85526041600452602485fd5b60405162461bcd60e51b815260206004820152601f60248201527f44414f3a2070726f706f73616c20616c72656164792070726f636573736564006044820152606490fd5b60ff915060901c16155f610b61565b635cb81f2560e11b8552600485fd5b630593eb8f60e51b8452600484fd5b633d36b71560e11b8452600484fd5b63430ae12f60e11b8552600485fd5b634092c90360e01b8552600485fd5b5080fd5b50346101bc5760203660031901126101bc576001600160a01b03610f6d6122b5565b168152600d60205260408120604051918260208354918281520192825260208220915b818110610fbf57610fbb85610fa78187038261223b565b6040519182916020835260208301906122e1565b0390f35b8254845260209093019260019283019201610f90565b50346101bc5760203660031901126101bc57610fef6122b5565b600354604051630d47875d60e41b81526001600160a01b039283166004820181905292909160209183916024918391165afa80156111185761ffff9184916110f9575b5016908252600c6020526040822060018101549054806110a4575b50605a81111561109f5750605a5b80606403926064841161108b57506064611077606094846123a4565b049060405192835260208301526040820152f35b634e487b7160e01b81526011600452602490fd5b61105b565b6110b2620151809142612397565b046005810290808204600514901517156110e5578181106110d7575050815b5f61104d565b6110e091612397565b6110d1565b634e487b7160e01b84526011600452602484fd5b611112915060203d602011610e6e57610e60818361223b565b5f611032565b6040513d85823e3d90fd5b50346101bc5760803660031901126101bc5761113d6122b5565b6111456122cb565b6044356001600160a01b03811692919083900361124d576064356001600160a01b03811690819003611249577f3676b3b8ddb712ee065be8fd22e137c8832e03de83c7fbccd82d6a1813f7b4d39360a09361119e61255e565b600180861b03169283151580611239575b80611230575b6111be90612456565b836001600160601b03861b6002541617600255600180861b0316806001600160601b03861b6003541617600355816001600160601b03861b6004541617600455826001600160601b03861b6005541617600555604051938452602084015260408301526060820152836080820152a180f35b508115156111b5565b50600180861b03811615156111af565b8480fd5b8380fd5b50346101bc5760203660031901126101bc57600435906001600160401b0382116101bc57366023830112156101bc578160040135906001600160401b0382116101bc573660248360051b850101116101bc576112ac826123dc565b926112b6836123dc565b936112c0846123dc565b926112ca856123dc565b92815b868110156113415760019060248160051b840101358452600a60205260056040852060068101546112fe848961240e565b52600781015461130e848d61240e565b52015461131b828961240e565b60ff8260881c161515905260ff611332838961240e565b9160901c1615159052016112cd565b61136584610fbb876113818a6113738e6040519788976080895260808901906122e1565b9087820360208901526122e1565b908582036040870152612341565b908382036060850152612341565b50346101bc5760203660031901126101bc577f8fe72c3e0020beb3234e76ae6676fa576fbfcae600af1c4fea44784cf0db329c60206113cc6122b5565b6113d461255e565b6001600160a01b03166113e8811515612456565b600180546001600160a01b03191682179055604051908152a180f35b50346101bc57806003193601126101bc576004546040516001600160a01b039091168152602090f35b50346101bc5760403660031901126101bc576114476122b5565b6024356001600160401b038111610ab757611466903690600401612314565b9033156114b857604051602080825233946001600160a01b0316937f056e1bd5f7fc2c28c23041f7aacdb2bfc91c128c382f46c02c89b9cfbac04fc89383926114b29290840191612436565b0390a380f35b60405162461bcd60e51b815260206004820152600e60248201526d24b73b30b634b21031b0b63632b960911b6044820152606490fd5b50346101bc5760203660031901126101bc57602061151261150d6122b5565b612581565b6040519015158152f35b50346101bc57806003193601126101bc576020604051620151808152f35b50346101bc5760203660031901126101bc576115546122b5565b819060018060a01b03168252600d602052604082206040518082602082945493848152019086526020862092865b8181106116135750506115979250038261223b565b51906009549283159384156115c4575b506080935060405192835280602084015260408301526060820152f35b90915061271083029383850461271014841517156115ff576115eb5760809304905f6115a7565b634e487b7160e01b82526012600452602482fd5b634e487b7160e01b83526011600452602483fd5b8454835260019485019486945060209093019201611582565b50346101bc5760403660031901126101bc576004356001600160401b038116808203610ab757610e106024359261166161255e565b9110611766575b6001600160401b03811662278d00811161172157620f424083116116e3577f03904376d24e01ffee2015c8f42bc52451ef52c4cbb442f7537c4902c97b61cb92604092600654906001600160401b0360a01b9060a01b16906001600160401b0360a01b1916176006558060085582519182526020820152a180f35b60405162461bcd60e51b8152602060048201526016602482015275088829e7440dad2dcacdee8cae640e8dede40d0d2ced60531b6044820152606490fd5b60405162461bcd60e51b815260206004820152601b60248201527f44414f3a20766f74696e6720706572696f6420746f6f206c6f6e6700000000006044820152606490fd5b50610e10611668565b50346101bc57806003193601126101bc576006546040516001600160a01b039091168152602090f35b50346101bc57806003193601126101bc576009548160015b8281111561187557506117c2906123dc565b918060015b838111156117e55760405160208082528190610fbb908201886122e1565b8061181c918352600a602052426001600160401b03600560408620015460481c161180611858575b8061183b575b611821576123b7565b6117c7565b8061183561182e866123b7565b958861240e565b526123b7565b50808352600a60205260ff600560408520015460901c1615611813565b50808352600a60205260ff600560408520015460881c161561180d565b808452600a602052426001600160401b03600560408720015460481c1611806118e4575b806118c7575b6118b2575b6118ad906123b7565b6117b0565b906118bf6118ad916123b7565b9190506118a4565b50808452600a60205260ff600560408620015460901c161561189f565b50808452600a60205260ff600560408620015460881c1615611899565b50346101bc57806003193601126101bc57602060405160058152f35b50346101bc5760203660031901126101bc5760ff60406020926004358152600b84522054166040519015158152f35b50346101bc5760403660031901126101bc576008604061196a6122cb565b926004358152600a60205220019060018060a01b03165f52602052602060ff60405f2054166040519015158152f35b50346101bc57806003193601126101bc576020600854604051908152f35b50346101bc5760203660031901126101bc576004358152600a602052604081206005810154611a6e9291608882901c60ff1615611a9c576040516119fc60408261223b565b6008815267115e1958dd5d195960c21b6020820152925b6007600683015492015492611a288484612376565b600854111593849384611a8b575b505060481c6001600160401b031642811115611a8457611a5891504290612397565b905b604051948594608086526080860190612270565b9260208501521515604084015260608301520390f35b5090611a5a565b1192506001600160401b035f611a36565b60ff8260901c165f14611ad057604051611ab760408261223b565b6006815265145d595d595960d21b602082015292611a13565b604882901c6001600160401b03164210611b0a57604051611af260408261223b565b6005815264115b99195960da1b602082015292611a13565b604051611b1860408261223b565b600681526541637469766560d01b602082015292611a13565b50346101bc5760203660031901126101bc576040906004358152600a6020522060018060a01b0381541660058201549160ff60018060a01b03600183015416936002830154611bd3604051611b9481611b8d8160048a016121ba565b038261223b565b60076006870154960154926040519889988952611bb660208a01888816612294565b604089015260608801526101606080880152610160870190612270565b936001600160401b038360081c1660a08701526001600160401b038360481c1660c087015260e0860152610100850152818160881c16151561012085015260901c1615156101408301520390f35b50346101bc5760203660031901126101bc57611c3b6122b5565b6001600160a01b03168152600c602052604081206001810154905491908215611cb75762015180611c6c8442612397565b046005810290808204600514901517156115ff5760809381838110611ca7575083925b60405194508452602084015260408301526060820152f35b611cb19084612397565b92611c8f565b60809282908392611c8f565b50346101bc57806003193601126101bc5760206001600160401b0360075416604051908152f35b50346101bc57806003193601126101bc576003546040516001600160a01b039091168152602090f35b5034611fc1576020366003190112611fc15760043590611d3161251d565b815f52600a60205260405f20600581019283546001600160401b038160481c1680156120365742106120095760ff8160881c16159081611ffa575b5015611fcf576006820154936007830154611d878187612376565b60085411159586611fc5575b50506040805183815286151560208201527f82693b732f9696c8a914b820dd6c52544bd61b844bbd4c8707253df9340cf6b79190a16005546001600160a01b03169485611f75575b849550611dea57836001815580f35b60018060a01b036002541690611e466020600186019560018060a01b038754169460028201958987549160405196879586948593636fe05b7360e11b8552600485015260248401526060604484015260036064840191016121ba565b03925af1908115611f6a578691611f18575b50815460ff60901b1916600160901b179091556040805184815260208101929092527fa2f0de3df8492190d09725d44059c2aa2f98905ef69bb7aa2fdc97e85afff23691a16005546001600160a01b03169283611eb6575b50610cf6565b549054926001600160a01b0390911690803b1561124957849283606492604051968795869463e5b2f79b60e01b86526004860152602485015260448401525af1611f03575b808080611eb0565b81611f0d9161223b565b6101bc57805f611efb565b90506020813d602011611f62575b81611f336020938361223b565b81010312610ab357517fa2f0de3df8492190d09725d44059c2aa2f98905ef69bb7aa2fdc97e85afff236611e58565b3d9150611f26565b6040513d88823e3d90fd5b853b15611fc15760405163717d8bc360e01b8152600481018490528115156024820152955f908790604490829084905af115611ddb579350935f611fb89161223b565b5f928490611ddb565b5f80fd5b1194505f80611d93565b606460405162461bcd60e51b8152602060048201526004602482015263646f6e6560e01b6044820152fd5b60ff915060901c16155f611d6c565b60405162461bcd60e51b81526020600482015260056024820152646561726c7960d81b6044820152606490fd5b634092c90360e01b5f5260045ffd5b34611fc1575f366003190112611fc15760206001600160401b0360065460a01c16604051908152f35b34611fc1576020366003190112611fc1576004355f908152600a602052604090208054600182015460028301546001600160a01b039182169492909116926120c4836120bd81600385016121ba565b038461223b565b60ff6121246040516120dd81611b8d81600488016121ba565b61211660058501549660076006870154960154966040519a8b9a8b5260208b015260408a015261018060608a0152610180890190612270565b908782036080890152612270565b9361213460a08701838316612294565b6001600160401b038160081c1660c08701526001600160401b038160481c1660e0870152818160881c16151561010087015260901c1615156101208501526101408401526101608301520390f35b90600182811c921680156121b0575b602083101461219c57565b634e487b7160e01b5f52602260045260245ffd5b91607f1691612191565b5f92918154916121c983612182565b808352926001811690811561221e57506001146121e557505050565b5f9081526020812093945091925b838310612204575060209250010190565b6001816020929493945483858701015201910191906121f3565b915050602093945060ff929192191683830152151560051b010190565b90601f801991011681019081106001600160401b0382111761225c57604052565b634e487b7160e01b5f52604160045260245ffd5b805180835260209291819084018484015e5f828201840152601f01601f1916010190565b9060048210156122a15752565b634e487b7160e01b5f52602160045260245ffd5b600435906001600160a01b0382168203611fc157565b602435906001600160a01b0382168203611fc157565b90602080835192838152019201905f5b8181106122fe5750505090565b82518452602093840193909201916001016122f1565b9181601f84011215611fc1578235916001600160401b038311611fc15760208381860195010111611fc157565b90602080835192838152019201905f5b81811061235e5750505090565b82511515845260209384019390920191600101612351565b9190820180921161238357565b634e487b7160e01b5f52601160045260245ffd5b9190820391821161238357565b8181029291811591840414171561238357565b5f1981146123835760010190565b6001600160401b03811161225c5760051b60200190565b906123e6826123c5565b6123f3604051918261223b565b8281528092612404601f19916123c5565b0190602036910137565b80518210156124225760209160051b010190565b634e487b7160e01b5f52603260045260245ffd5b908060209392818452848401375f828201840152601f01601f1916010190565b1561245d57565b606460405162461bcd60e51b81526020600482015260046024820152637a65726f60e01b6044820152fd5b90816020910312611fc1575161ffff81168103611fc15790565b8181106124ad575050565b5f81556001016124a2565b9190601f81116124c757505050565b6124f1925f5260205f20906020601f840160051c830193106124f3575b601f0160051c01906124a2565b565b90915081906124e4565b906001600160401b03809116911601906001600160401b03821161238357565b60015f540361252c5760025f55565b60405162461bcd60e51b815260206004820152600a6024820152697265656e7472616e637960b01b6044820152606490fd5b6001546001600160a01b0316330361257257565b63b0c9b88560e01b5f5260045ffd5b60048054604051630709df4560e01b81526001600160a01b03938416928101839052919260209183916024918391165afa90811561265c575f91612691575b506001600160a01b03161561268c57600354604051630d47875d60e41b815260048101929092526001600160a01b0316602082602481845afa91821561265c575f92612667575b50602060049160405192838092634ccf04cf60e01b82525afa90811561265c5761ffff9182915f9161263d575b50169116101590565b612656915060203d602011610e6e57610e60818361223b565b5f612634565b6040513d5f823e3d90fd5b6004919250612684602091823d8411610e6e57610e60818361223b565b929150612607565b505f90565b90506020813d6020116126cb575b816126ac6020938361223b565b81010312611fc157516001600160a01b0381168103611fc1575f6125c0565b3d915061269f56fea2646970667358221220fabb716370d095a11eee78907fc81cb56faed135072cfbba504ade0b48408e1064736f6c634300081e0033","linkReferences":{}},"methodIdentifiers":{"FATIGUE_PER_VOTE()":"49348c7b","FATIGUE_RECOVERY_RATE()":"61a51f44","admin()":"f851a440","disputeFlag(address,string)":"699e6334","finalize(uint256)":"05261aea","getActiveProposals()":"5584c4f9","getFatigueInfo(address)":"3ac01d3f","getProposalDetails(uint256)":"3b4d01a7","getProposalStatus(uint256)":"401853b7","getProposalsBatch(uint256[])":"8d24e68d","getVoterHistory(address)":"be9f9e79","getVoterStats(address)":"5bff3c23","getVotingPower(address)":"bb4d4436","hasVoted(uint256,address)":"43859632","hooks()":"cd7033c4","isEligible(address)":"66e305fd","ledger()":"56397c35","markExecuted(uint256)":"f6405119","minVotesRequired()":"403fb4a8","proposalCount()":"da35c664","proposals(uint256)":"013cf08b","propose(uint8,address,uint256,bytes,string)":"cd090f7e","seer()":"2d55ea39","setAdmin(address)":"704b6c02","setModules(address,address,address,address)":"b079fbff","setParams(uint64,uint256)":"5643591d","timelock()":"d33219b4","vaultHub()":"6dd6e80b","vote(uint256,bool)":"c9d27afe","voterInfo(address)":"cdf58d35","votingDelay()":"3932abb1","votingPeriod()":"02a251a3","withdrawProposal(uint256)":"e1f02ffa","withdrawnProposalHashes(bytes32)":"4777cc28"},"id":5}