{"abi":[{"type":"constructor","inputs":[{"name":"_admin","type":"address","internalType":"address"},{"name":"_timelock","type":"address","internalType":"address"},{"name":"_seer","type":"address","internalType":"address"},{"name":"_hub","type":"address","internalType":"address"},{"name":"_hooks","type":"address","internalType":"address"}],"stateMutability":"nonpayable"},{"type":"function","name":"FATIGUE_PER_VOTE","inputs":[],"outputs":[{"name":"","type":"uint256","internalType":"uint256"}],"stateMutability":"view"},{"type":"function","name":"FATIGUE_RECOVERY_RATE","inputs":[],"outputs":[{"name":"","type":"uint256","internalType":"uint256"}],"stateMutability":"view"},{"type":"function","name":"admin","inputs":[],"outputs":[{"name":"","type":"address","internalType":"address"}],"stateMutability":"view"},{"type":"function","name":"disputeFlag","inputs":[{"name":"user","type":"address","internalType":"address"},{"name":"reason","type":"string","internalType":"string"}],"outputs":[],"stateMutability":"nonpayable"},{"type":"function","name":"finalize","inputs":[{"name":"id","type":"uint256","internalType":"uint256"}],"outputs":[],"stateMutability":"nonpayable"},{"type":"function","name":"getActiveProposals","inputs":[],"outputs":[{"name":"ids","type":"uint256[]","internalType":"uint256[]"}],"stateMutability":"view"},{"type":"function","name":"getFatigueInfo","inputs":[{"name":"voter","type":"address","internalType":"address"}],"outputs":[{"name":"currentFatigue","type":"uint256","internalType":"uint256"},{"name":"lastVoteTime","type":"uint256","internalType":"uint256"},{"name":"recoveredSince","type":"uint256","internalType":"uint256"},{"name":"effectiveFatigue","type":"uint256","internalType":"uint256"}],"stateMutability":"view"},{"type":"function","name":"getProposalDetails","inputs":[{"name":"id","type":"uint256","internalType":"uint256"}],"outputs":[{"name":"proposer","type":"address","internalType":"address"},{"name":"ptype","type":"uint8","internalType":"enum DAO.ProposalType"},{"name":"target","type":"address","internalType":"address"},{"name":"value","type":"uint256","internalType":"uint256"},{"name":"description","type":"string","internalType":"string"},{"name":"startTime","type":"uint64","internalType":"uint64"},{"name":"endTime","type":"uint64","internalType":"uint64"},{"name":"forVotes","type":"uint256","internalType":"uint256"},{"name":"againstVotes","type":"uint256","internalType":"uint256"},{"name":"executed","type":"bool","internalType":"bool"},{"name":"queued","type":"bool","internalType":"bool"}],"stateMutability":"view"},{"type":"function","name":"getProposalStatus","inputs":[{"name":"id","type":"uint256","internalType":"uint256"}],"outputs":[{"name":"status","type":"string","internalType":"string"},{"name":"quorumMet","type":"bool","internalType":"bool"},{"name":"passing","type":"bool","internalType":"bool"},{"name":"timeRemaining","type":"uint256","internalType":"uint256"}],"stateMutability":"view"},{"type":"function","name":"getProposalsBatch","inputs":[{"name":"ids","type":"uint256[]","internalType":"uint256[]"}],"outputs":[{"name":"forVotesCounts","type":"uint256[]","internalType":"uint256[]"},{"name":"againstVotesCounts","type":"uint256[]","internalType":"uint256[]"},{"name":"executedFlags","type":"bool[]","internalType":"bool[]"},{"name":"queuedFlags","type":"bool[]","internalType":"bool[]"}],"stateMutability":"view"},{"type":"function","name":"getVoterHistory","inputs":[{"name":"voter","type":"address","internalType":"address"}],"outputs":[{"name":"proposalIds","type":"uint256[]","internalType":"uint256[]"}],"stateMutability":"view"},{"type":"function","name":"getVoterStats","inputs":[{"name":"voter","type":"address","internalType":"address"}],"outputs":[{"name":"votesTotal","type":"uint256","internalType":"uint256"},{"name":"forVotes","type":"uint256","internalType":"uint256"},{"name":"againstVotes","type":"uint256","internalType":"uint256"},{"name":"participationRate","type":"uint256","internalType":"uint256"}],"stateMutability":"view"},{"type":"function","name":"getVotingPower","inputs":[{"name":"voter","type":"address","internalType":"address"}],"outputs":[{"name":"rawScore","type":"uint256","internalType":"uint256"},{"name":"fatiguePercent","type":"uint256","internalType":"uint256"},{"name":"effectivePower","type":"uint256","internalType":"uint256"}],"stateMutability":"view"},{"type":"function","name":"hasVoted","inputs":[{"name":"id","type":"uint256","internalType":"uint256"},{"name":"voter","type":"address","internalType":"address"}],"outputs":[{"name":"","type":"bool","internalType":"bool"}],"stateMutability":"view"},{"type":"function","name":"hooks","inputs":[],"outputs":[{"name":"","type":"address","internalType":"contract IGovernanceHooks"}],"stateMutability":"view"},{"type":"function","name":"isEligible","inputs":[{"name":"user","type":"address","internalType":"address"}],"outputs":[{"name":"","type":"bool","internalType":"bool"}],"stateMutability":"view"},{"type":"function","name":"ledger","inputs":[],"outputs":[{"name":"","type":"address","internalType":"contract IProofLedger"}],"stateMutability":"view"},{"type":"function","name":"markExecuted","inputs":[{"name":"id","type":"uint256","internalType":"uint256"}],"outputs":[],"stateMutability":"nonpayable"},{"type":"function","name":"minParticipation","inputs":[],"outputs":[{"name":"","type":"uint256","internalType":"uint256"}],"stateMutability":"view"},{"type":"function","name":"minVotesRequired","inputs":[],"outputs":[{"name":"","type":"uint256","internalType":"uint256"}],"stateMutability":"view"},{"type":"function","name":"proposalCount","inputs":[],"outputs":[{"name":"","type":"uint256","internalType":"uint256"}],"stateMutability":"view"},{"type":"function","name":"proposals","inputs":[{"name":"","type":"uint256","internalType":"uint256"}],"outputs":[{"name":"proposer","type":"address","internalType":"address"},{"name":"target","type":"address","internalType":"address"},{"name":"value","type":"uint256","internalType":"uint256"},{"name":"data","type":"bytes","internalType":"bytes"},{"name":"description","type":"string","internalType":"string"},{"name":"ptype","type":"uint8","internalType":"enum DAO.ProposalType"},{"name":"start","type":"uint64","internalType":"uint64"},{"name":"end","type":"uint64","internalType":"uint64"},{"name":"executed","type":"bool","internalType":"bool"},{"name":"queued","type":"bool","internalType":"bool"},{"name":"forVotes","type":"uint256","internalType":"uint256"},{"name":"againstVotes","type":"uint256","internalType":"uint256"},{"name":"voterCount","type":"uint256","internalType":"uint256"}],"stateMutability":"view"},{"type":"function","name":"propose","inputs":[{"name":"ptype","type":"uint8","internalType":"enum DAO.ProposalType"},{"name":"target","type":"address","internalType":"address"},{"name":"value","type":"uint256","internalType":"uint256"},{"name":"data","type":"bytes","internalType":"bytes"},{"name":"description","type":"string","internalType":"string"}],"outputs":[{"name":"id","type":"uint256","internalType":"uint256"}],"stateMutability":"nonpayable"},{"type":"function","name":"seer","inputs":[],"outputs":[{"name":"","type":"address","internalType":"contract ISeer"}],"stateMutability":"view"},{"type":"function","name":"setAdmin","inputs":[{"name":"_admin","type":"address","internalType":"address"}],"outputs":[],"stateMutability":"nonpayable"},{"type":"function","name":"setMinParticipation","inputs":[{"name":"_minParticipation","type":"uint256","internalType":"uint256"}],"outputs":[],"stateMutability":"nonpayable"},{"type":"function","name":"setModules","inputs":[{"name":"_timelock","type":"address","internalType":"address"},{"name":"_seer","type":"address","internalType":"address"},{"name":"_hub","type":"address","internalType":"address"},{"name":"_hooks","type":"address","internalType":"address"}],"outputs":[],"stateMutability":"nonpayable"},{"type":"function","name":"setParams","inputs":[{"name":"_period","type":"uint64","internalType":"uint64"},{"name":"_minVotes","type":"uint256","internalType":"uint256"}],"outputs":[],"stateMutability":"nonpayable"},{"type":"function","name":"timelock","inputs":[],"outputs":[{"name":"","type":"address","internalType":"contract IDAOTimelock"}],"stateMutability":"view"},{"type":"function","name":"vaultHub","inputs":[],"outputs":[{"name":"","type":"address","internalType":"contract IVaultHub"}],"stateMutability":"view"},{"type":"function","name":"vote","inputs":[{"name":"id","type":"uint256","internalType":"uint256"},{"name":"support","type":"bool","internalType":"bool"}],"outputs":[],"stateMutability":"nonpayable"},{"type":"function","name":"voterInfo","inputs":[{"name":"","type":"address","internalType":"address"}],"outputs":[{"name":"lastVoteTime","type":"uint256","internalType":"uint256"},{"name":"fatigue","type":"uint256","internalType":"uint256"}],"stateMutability":"view"},{"type":"function","name":"votingDelay","inputs":[],"outputs":[{"name":"","type":"uint64","internalType":"uint64"}],"stateMutability":"view"},{"type":"function","name":"votingPeriod","inputs":[],"outputs":[{"name":"","type":"uint64","internalType":"uint64"}],"stateMutability":"view"},{"type":"function","name":"withdrawProposal","inputs":[{"name":"id","type":"uint256","internalType":"uint256"}],"outputs":[],"stateMutability":"nonpayable"},{"type":"function","name":"withdrawnProposalHashes","inputs":[{"name":"","type":"bytes32","internalType":"bytes32"}],"outputs":[{"name":"","type":"bool","internalType":"bool"}],"stateMutability":"view"},{"type":"event","name":"AdminSet","inputs":[{"name":"admin","type":"address","indexed":false,"internalType":"address"}],"anonymous":false},{"type":"event","name":"DisputeFlagged","inputs":[{"name":"user","type":"address","indexed":true,"internalType":"address"},{"name":"caller","type":"address","indexed":true,"internalType":"address"},{"name":"reason","type":"string","indexed":false,"internalType":"string"}],"anonymous":false},{"type":"event","name":"Executed","inputs":[{"name":"id","type":"uint256","indexed":false,"internalType":"uint256"}],"anonymous":false},{"type":"event","name":"Finalized","inputs":[{"name":"id","type":"uint256","indexed":false,"internalType":"uint256"},{"name":"passed","type":"bool","indexed":false,"internalType":"bool"}],"anonymous":false},{"type":"event","name":"ModulesSet","inputs":[{"name":"timelock","type":"address","indexed":false,"internalType":"address"},{"name":"seer","type":"address","indexed":false,"internalType":"address"},{"name":"hub","type":"address","indexed":false,"internalType":"address"},{"name":"hooks","type":"address","indexed":false,"internalType":"address"},{"name":"council","type":"address","indexed":false,"internalType":"address"}],"anonymous":false},{"type":"event","name":"ParamsSet","inputs":[{"name":"votingPeriod","type":"uint64","indexed":false,"internalType":"uint64"},{"name":"minVotesRequired","type":"uint256","indexed":false,"internalType":"uint256"}],"anonymous":false},{"type":"event","name":"ProposalCreated","inputs":[{"name":"id","type":"uint256","indexed":false,"internalType":"uint256"},{"name":"proposer","type":"address","indexed":false,"internalType":"address"},{"name":"ptype","type":"uint8","indexed":false,"internalType":"enum DAO.ProposalType"},{"name":"target","type":"address","indexed":false,"internalType":"address"},{"name":"value","type":"uint256","indexed":false,"internalType":"uint256"},{"name":"data","type":"bytes","indexed":false,"internalType":"bytes"},{"name":"description","type":"string","indexed":false,"internalType":"string"}],"anonymous":false},{"type":"event","name":"ProposalStateChanged","inputs":[{"name":"id","type":"uint256","indexed":true,"internalType":"uint256"},{"name":"oldState","type":"string","indexed":false,"internalType":"string"},{"name":"newState","type":"string","indexed":false,"internalType":"string"}],"anonymous":false},{"type":"event","name":"ProposalWithdrawn","inputs":[{"name":"id","type":"uint256","indexed":false,"internalType":"uint256"},{"name":"proposer","type":"address","indexed":true,"internalType":"address"}],"anonymous":false},{"type":"event","name":"Queued","inputs":[{"name":"id","type":"uint256","indexed":false,"internalType":"uint256"},{"name":"timelockId","type":"bytes32","indexed":false,"internalType":"bytes32"}],"anonymous":false},{"type":"event","name":"VoteDelegated","inputs":[{"name":"delegator","type":"address","indexed":true,"internalType":"address"},{"name":"delegate","type":"address","indexed":true,"internalType":"address"}],"anonymous":false},{"type":"event","name":"Voted","inputs":[{"name":"id","type":"uint256","indexed":false,"internalType":"uint256"},{"name":"voter","type":"address","indexed":false,"internalType":"address"},{"name":"support","type":"bool","indexed":false,"internalType":"bool"}],"anonymous":false},{"type":"error","name":"DAO_AlreadyVoted","inputs":[]},{"type":"error","name":"DAO_NotAdmin","inputs":[]},{"type":"error","name":"DAO_NotEligible","inputs":[]},{"type":"error","name":"DAO_UnknownProposal","inputs":[]},{"type":"error","name":"DAO_VoteEnded","inputs":[]},{"type":"error","name":"DAO_VoteNotStarted","inputs":[]}],"bytecode":{"object":"0x60803461021657601f612b1938819003918201601f19168301916001600160401b0383118484101761021a5780849260a094604052833981010312610216576100478161022e565b906100546020820161022e565b6100606040830161022e565b9261007960806100726060860161022e565b940161022e565b60015f5560068054600160a01b600160e01b0319166107e960a71b179055600780546001600160401b0319166201518017905561138860085560026009556001600160a01b039091169182151580610204575b806101f2575b806101e0575b156101b557600180546001600160a01b031990811685179091556002805482166001600160a01b0393841690811790915560038054831697841697881790556004805483169684169687179055600580549092169390921692831790556040805191825260208083019690965281019390935260608301525f60808301527f8fe72c3e0020beb3234e76ae6676fa576fbfcae600af1c4fea44784cf0db329c92917f3676b3b8ddb712ee065be8fd22e137c8832e03de83c7fbccd82d6a1813f7b4d39060a090a1604051908152a16040516128d690816102438239f35b606460405162461bcd60e51b81526020600482015260046024820152637a65726f60e01b6044820152fd5b506001600160a01b03841615156100d8565b506001600160a01b03851615156100d2565b506001600160a01b03811615156100cc565b5f80fd5b634e487b7160e01b5f52604160045260245ffd5b51906001600160a01b03821682036102165756fe6080806040526004361015610012575f80fd5b5f905f3560e01c908163013cf08b146121c65750806302a251a31461219d57806305261aea14611e5f578063054fd2c214611e415780630eb0ff8a14611dc15780632d55ea3914611d985780633932abb114611d715780633ac01d3f14611ccf5780633b4d01a714611bdf578063401853b714611a65578063403fb4a814611a4757806343859632146119fa5780634777cc28146119cb57806349348c7b146119af5780635584c4f91461184657806356397c351461181d5780635643591d146116dc5780635bff3c23146115ea57806361a51f44146115cc57806366e305fd1461159e578063699e6334146114dd5780636dd6e80b146114b4578063704b6c021461143f5780638d24e68d14611301578063b079fbff146111e9578063bb4d44361461109b578063be9f9e7914611011578063c9d27afe14610b26578063cd090f7e14610618578063cd7033c4146105ef578063cdf58d35146105ac578063d33219b414610583578063da35c66414610565578063e1f02ffa14610291578063f6405119146101d55763f851a440146101aa575f80fd5b346101d257806003193601126101d2576001546040516001600160a01b039091168152602090f35b80fd5b50346101d25760203660031901126101d2576004356101f26126eb565b808252600b602052600560408320019081549060ff8260901c1680610283575b156102585760ff60881b19909116600160881b179091556040519081527fbcf6a68a2f901be4a23a41b53acd7697893a7e34def4e28acba584da75283b6790602090a180f35b60405162461bcd60e51b815260206004820152600360248201526218985960ea1b6044820152606490fd5b5060ff8260881c1615610212565b50346101d25760203660031901126101d257600435808252600b6020526040822080546001600160a01b0316330361053157600581015460ff8160881c161580610523575b156104ea576001600160401b038160081c16421080156104d1575b1561047e576103546103299161034660ff9460018060a01b0360018201541660028201549060405196879560208701998a9116612400565b60408501526060840152608080840152600360a084019101612326565b03601f1981018352826123a7565b5190208252600c60205260408220600160ff19825416179055808252600b60205281600860408220828155826001820155826002820155826003820161039a81546122ee565b8061043c575b5050600482016103b081546122ee565b806103fa575b5050600582015582600682015582600782015501556040519081527f227963be52ff8a07c7da3b18de57749070333730ee5489bc9c414a467e5425cf60203392a280f35b601f81116001146104105750555b825f806103b6565b8183526020832061042c91601f0160051c81019060010161262f565b8082528160208120915555610408565b601f81116001146104525750555b825f806103a0565b8183526020832061046e91601f0160051c81019060010161262f565b808252816020812091555561044a565b60405162461bcd60e51b815260206004820152602560248201527f44414f3a2063616e6e6f7420776974686472617720616674657220766f7465736044820152640818d85cdd60da1b6064820152608490fd5b5060068201541580156102f157506007820154156102f1565b60405162461bcd60e51b8152602060048201526011602482015270105b1c9958591e481c1c9bd8d95cdcd959607a1b6044820152606490fd5b5060ff8160901c16156102d6565b60405162461bcd60e51b815260206004820152600c60248201526b2737ba10383937b837b9b2b960a11b6044820152606490fd5b50346101d257806003193601126101d2576020600a54604051908152f35b50346101d257806003193601126101d2576002546040516001600160a01b039091168152602090f35b50346101d25760203660031901126101d25760409081906001600160a01b036105d3612421565b168152600d602052206001815491015482519182526020820152f35b50346101d257806003193601126101d2576005546040516001600160a01b039091168152602090f35b50346101d25760a03660031901126101d257600435600481101580610b225761063f612437565b91604435926064356001600160401b038111610b1e57610663903690600401612480565b6084356001600160401b038111610b1a57610682903690600401612480565b96909361068e3361270e565b15610b0b576001600160a01b03168015801590610b00575b15610ac5578715610a875760405160208101906106c38289612400565b8260408201528360608201526080808201526106e78161034660a08201888a6125a2565b5190208952600c60205260ff60408a205416610a3357610708600a54612523565b600a819055808a52600b60205260408a2080546001600160a01b031916331781559097600582019190610a1f57815460ff191660ff89161782556001810180546001600160a01b0319168417905560028101849055600381016001600160401b038611610a0b576107838661077d83546122ee565b83612645565b858c8d601f831160011461099f5791806107b592600496959491610994575b508160011b915f199060031b1c19161790565b90555b016001600160401b038a116109805760209a6107de8b6107d884546122ee565b84612645565b80601f8c1160011461090057936108ea97936108c19a99979361082a8e5f5160206128815f395f51905f529e9f809a966108dc9a916108f557508160011b915f199060031b1c19161790565b90555b61084b6001600160401b03600754166001600160401b03421661268a565b610100600160481b0382549160081b1680610100600160481b03198316178084556108956001600160401b0360481b916001600160401b038060065460a01c169160081c1661268a565b60481b1691610100600160881b03191617179055604051998a998d8b52338f8c015260408b0190612400565b6060890152608088015260e060a088015260e08701916125a2565b9184830360c08601526125a2565b0390a1604051908152f35b90508b01355f6107a2565b90601f198c168383528d8320925b8181106109695750936108c19a9997938d97936108dc97935f5160206128815f395f51905f529e9f6108ea9c9810610950575b5050600188811b01905561082d565b8a01355f1960038b901b60f8161c191690555f80610941565b91928e60018192868e01358155019401920161090e565b634e487b7160e01b8b52604160045260248bfd5b90508a01355f6107a2565b8381526020812090949392509088601f1981165b8b8188106109ee575060049650106109d5575b5050600187811b0190556107b8565b8901355f1960038a901b60f8161c191690555f806109c6565b8301358455602096870196600190940193909201918a91506109b3565b634e487b7160e01b8c52604160045260248cfd5b634e487b7160e01b8b52602160045260248bfd5b60405162461bcd60e51b815260206004820152602660248201527f44414f3a2070726f706f73616c207761732070726576696f75736c792077697460448201526534323930bbb760d11b6064820152608490fd5b60405162461bcd60e51b81526020600482015260166024820152752220a79d1032b6b83a3c903232b9b1b934b83a34b7b760511b6044820152606490fd5b60405162461bcd60e51b8152602060048201526013602482015272111053ce881a5b9d985b1a59081d185c99d95d606a1b6044820152606490fd5b5088965085156106a6565b630593eb8f60e51b8952600489fd5b8780fd5b8580fd5b8280fd5b50346101d25760403660031901126101d25760043590602435801515810361100d57610b506126aa565b828252600b602052604082209260058401546001600160401b038160481c1680158015610ff9575b610fea576001600160401b038260081c164210610fdb57421015610fcc57610b9f3361270e565b15610fbd57600985019060018060a01b0333165f528160205260ff60405f205416610fae5760ff8160881c16159081610f9f575b5015610f5a57335f90815260209190915260409020805460ff19166001179055600884018054610c0290612523565b9055338352600e60205260408320805490600160401b821015610f465760018201808255821015610f325784526020808520909101829055335f908152600a8601918290526040902054610f1d57600354604051630d47875d60e41b815233600482015290602090829060249082906001600160a01b03165afa908115610f12579061ffff918691610ee3575b50169060018060a01b0333165f526020528060405f20555b338452600d6020526040842094855480610e81575b506001860195865480610e3b575b60058101809111610e2757869755429055835f14610e11576006610cf191019182546124e2565b90555b7ff2913dbe661ee2acc4a046d8fbcdc792373bda34c41c6086484b5345e5785e5f60405180610d258533868461260e565b0390a16003546001600160a01b0316803b15610df3578380809260a460405180948193630eccbd3560e11b83523360048401526005602484015260606044840152600860648401526764616f5f766f746560c01b60848401525af1610df8575b50506005546001600160a01b03169182610da2575b836001815580f35b823b15610df357610dce92849283604051809681958294635b43b6eb60e11b845233906004850161260e565b03925af1610dde575b8080610d9a565b81610de8916123a7565b6101d257805f610dd7565b505050fd5b81610e02916123a7565b610e0d57825f610d85565b5050fd5b6007610e2091019182546124e2565b9055610cf4565b634e487b7160e01b87526011600452602487fd5b92605a841115610e7b57605a5b6064039060648211610e6757606491610e6091612510565b0492610cca565b634e487b7160e01b88526011600452602488fd5b83610e48565b610e8f620151809142612503565b04600581029080820460051490151715610ecf57600187018054879290808210610ebd575050555b5f610cbc565b610ec8929350612503565b9055610eb7565b634e487b7160e01b86526011600452602486fd5b610f05915060203d602011610f0b575b610efd81836123a7565b8101906125f4565b5f610c8f565b503d610ef3565b6040513d87823e3d90fd5b335f9081526020919091526040902054610ca7565b634e487b7160e01b85526032600452602485fd5b634e487b7160e01b85526041600452602485fd5b60405162461bcd60e51b815260206004820152601f60248201527f44414f3a2070726f706f73616c20616c72656164792070726f636573736564006044820152606490fd5b60ff915060901c16155f610bd3565b635cb81f2560e11b8552600485fd5b630593eb8f60e51b8452600484fd5b633d36b71560e11b8452600484fd5b63430ae12f60e11b8552600485fd5b634092c90360e01b8552600485fd5b506001600160401b038260081c1615610b78565b5080fd5b50346101d25760203660031901126101d2576001600160a01b03611033612421565b168152600e60205260408120604051918260208354918281520192825260208220915b818110611085576110818561106d818703826123a7565b60405191829160208352602083019061244d565b0390f35b8254845260209093019260019283019201611056565b50346101d25760203660031901126101d2576110b5612421565b600354604051630d47875d60e41b81526001600160a01b039283166004820181905292909160209183916024918391165afa80156111de5761ffff9184916111bf575b5016908252600d60205260408220600181015490548061116a575b50605a8111156111655750605a5b8060640392606484116111515750606461113d60609484612510565b049060405192835260208301526040820152f35b634e487b7160e01b81526011600452602490fd5b611121565b611178620151809142612503565b046005810290808204600514901517156111ab5781811061119d575050815b5f611113565b6111a691612503565b611197565b634e487b7160e01b84526011600452602484fd5b6111d8915060203d602011610f0b57610efd81836123a7565b5f6110f8565b6040513d85823e3d90fd5b50346101d25760803660031901126101d257611203612421565b61120b612437565b6044356001600160a01b0381169291908390036112fd576064356001600160a01b038116908190036112f9577f3676b3b8ddb712ee065be8fd22e137c8832e03de83c7fbccd82d6a1813f7b4d39360a0936112646126eb565b600180861b031692831515806112e9575b806112e0575b611284906125c2565b600280545f196001881b018019918216871790925560038054821693909216928317909155600480548216841790556005805490911684179055604080519485526020850191909152830152606082015260808101849052a180f35b5081151561127b565b50600180861b0381161515611275565b8480fd5b8380fd5b50346101d25760203660031901126101d257600435906001600160401b0382116101d257366023830112156101d2578160040135906001600160401b0382116101d2573660248360051b850101116101d25761135c82612548565b9261136683612548565b9361137084612548565b9261137a85612548565b92815b868110156113f15760019060248160051b840101358452600b60205260056040852060068101546113ae848961257a565b5260078101546113be848d61257a565b5201546113cb828961257a565b60ff8260881c161515905260ff6113e2838961257a565b9160901c16151590520161137d565b61141584611081876114318a6114238e60405197889760808952608089019061244d565b90878203602089015261244d565b9085820360408701526124ad565b9083820360608501526124ad565b50346101d25760203660031901126101d2577f8fe72c3e0020beb3234e76ae6676fa576fbfcae600af1c4fea44784cf0db329c602061147c612421565b6114846126eb565b6001600160a01b03166114988115156125c2565b600180546001600160a01b03191682179055604051908152a180f35b50346101d257806003193601126101d2576004546040516001600160a01b039091168152602090f35b50346101d25760403660031901126101d2576114f7612421565b6024356001600160401b038111610b2257611516903690600401612480565b90331561156857604051602080825233946001600160a01b0316937f056e1bd5f7fc2c28c23041f7aacdb2bfc91c128c382f46c02c89b9cfbac04fc893839261156292908401916125a2565b0390a380f35b60405162461bcd60e51b815260206004820152600e60248201526d24b73b30b634b21031b0b63632b960911b6044820152606490fd5b50346101d25760203660031901126101d25760206115c26115bd612421565b61270e565b6040519015158152f35b50346101d257806003193601126101d2576020604051620151808152f35b50346101d25760203660031901126101d257611604612421565b819060018060a01b03168252600e602052604082206040518082602082945493848152019086526020862092865b8181106116c3575050611647925003826123a7565b5190600a54928315938415611674575b506080935060405192835280602084015260408301526060820152f35b90915061271083029383850461271014841517156116af5761169b5760809304905f611657565b634e487b7160e01b82526012600452602482fd5b634e487b7160e01b83526011600452602483fd5b8454835260019485019486945060209093019201611632565b50346101d25760403660031901126101d2576004356001600160401b038116808203610b2257610e10602435926117116126eb565b9110611814575b6001600160401b03811662278d0081116117d157620f42408311611793577f03904376d24e01ffee2015c8f42bc52451ef52c4cbb442f7537c4902c97b61cb92604092600654906001600160401b0360a01b9060a01b16906001600160401b0360a01b1916176006558060085582519182526020820152a180f35b60405162461bcd60e51b8152602060048201526016602482015275088829e7440dad2dcacdee8cae640e8dede40d0d2ced60531b6044820152606490fd5b60405162461bcd60e51b815260206004820152601b60248201527a44414f3a20766f74696e6720706572696f6420746f6f206c6f6e6760281b6044820152606490fd5b50610e10611718565b50346101d257806003193601126101d2576006546040516001600160a01b039091168152602090f35b50346101d257806003193601126101d257600a548160015b82811115611923575061187090612548565b918060015b8381111561189357604051602080825281906110819082018861244d565b806118ca918352600b602052426001600160401b03600560408620015460481c161180611906575b806118e9575b6118cf57612523565b611875565b806118e36118dc86612523565b958861257a565b52612523565b50808352600b60205260ff600560408520015460901c16156118c1565b50808352600b60205260ff600560408520015460881c16156118bb565b808452600b602052426001600160401b03600560408720015460481c161180611992575b80611975575b611960575b61195b90612523565b61185e565b9061196d61195b91612523565b919050611952565b50808452600b60205260ff600560408620015460901c161561194d565b50808452600b60205260ff600560408620015460881c1615611947565b50346101d257806003193601126101d257602060405160058152f35b50346101d25760203660031901126101d25760ff60406020926004358152600c84522054166040519015158152f35b50346101d25760403660031901126101d25760096040611a18612437565b926004358152600b60205220019060018060a01b03165f52602052602060ff60405f2054166040519015158152f35b50346101d257806003193601126101d2576020600854604051908152f35b50346101d25760203660031901126101d2576004358152600b602052604081206005810154611b1c9291608882901c60ff1615611b4a57604051611aaa6040826123a7565b6008815267115e1958dd5d195960c21b6020820152925b6007600683015492015492611ad684846124e2565b600854111593849384611b39575b505060481c6001600160401b031642811115611b3257611b0691504290612503565b905b6040519485946080865260808601906123dc565b9260208501521515604084015260608301520390f35b5090611b08565b1192506001600160401b035f611ae4565b60ff8260901c165f14611b7e57604051611b656040826123a7565b6006815265145d595d595960d21b602082015292611ac1565b604882901c6001600160401b03164210611bb857604051611ba06040826123a7565b6005815264115b99195960da1b602082015292611ac1565b604051611bc66040826123a7565b600681526541637469766560d01b602082015292611ac1565b50346101d25760203660031901126101d2576040906004358152600b6020522060018060a01b0381541660058201549160ff60018060a01b03600183015416936002830154611c81604051611c4281611c3b8160048a01612326565b03826123a7565b60076006870154960154926040519889988952611c6460208a01888816612400565b6040890152606088015261016060808801526101608701906123dc565b936001600160401b038360081c1660a08701526001600160401b038360481c1660c087015260e0860152610100850152818160881c16151561012085015260901c1615156101408301520390f35b50346101d25760203660031901126101d257611ce9612421565b6001600160a01b03168152600d602052604081206001810154905491908215611d655762015180611d1a8442612503565b046005810290808204600514901517156116af5760809381838110611d55575083925b60405194508452602084015260408301526060820152f35b611d5f9084612503565b92611d3d565b60809282908392611d3d565b50346101d257806003193601126101d25760206001600160401b0360075416604051908152f35b50346101d257806003193601126101d2576003546040516001600160a01b039091168152602090f35b50346101d25760203660031901126101d257600435611dde6126eb565b600181101580611e36575b15611df45760095580f35b60405162461bcd60e51b815260206004820152601a6024820152792220a79d1034b73b30b634b2103830b93a34b1b4b830ba34b7b760311b6044820152606490fd5b506064811115611de9565b50346101d257806003193601126101d2576020600954604051908152f35b50346120f45760203660031901126120f45760043590611e7d6126aa565b815f52600b60205260405f20600581019283546001600160401b038160481c1680158015612189575b61217a57421061214d5760ff8160881c1615908161213e575b5015612113576006820154936007830154611eda81876124e2565b60085411159586612102575b866120f8575b50506040805183815286151560208201527f82693b732f9696c8a914b820dd6c52544bd61b844bbd4c8707253df9340cf6b79190a16005546001600160a01b031694856120a8575b849550611f4357836001815580f35b60018060a01b036002541690611f9f6020600186019560018060a01b038754169460028201958987549160405196879586948593636fe05b7360e11b855260048501526024840152606060448401526003606484019101612326565b03925af190811561209d57869161205e575b50815460ff60901b1916600160901b179091556040805184815260208101929092525f5160206128615f395f51905f5291a16005546001600160a01b03169283611ffc575b50610d9a565b549054926001600160a01b0390911690803b156112f957849283606492604051968795869463e5b2f79b60e01b86526004860152602485015260448401525af1612049575b808080611ff6565b81612053916123a7565b6101d257805f612041565b90506020813d602011612095575b81612079602093836123a7565b81010312610b1e57515f5160206128615f395f51905f52611fb1565b3d915061206c565b6040513d88823e3d90fd5b853b156120f45760405163717d8bc360e01b8152600481018490528115156024820152955f908790604490829084905af115611f34579350935f6120eb916123a7565b5f928490611f34565b5f80fd5b1194505f80611eec565b600885015460095411159650611ee6565b606460405162461bcd60e51b8152602060048201526004602482015263646f6e6560e01b6044820152fd5b60ff915060901c16155f611ebf565b60405162461bcd60e51b81526020600482015260056024820152646561726c7960d81b6044820152606490fd5b634092c90360e01b5f5260045ffd5b506001600160401b038260081c1615611ea6565b346120f4575f3660031901126120f45760206001600160401b0360065460a01c16604051908152f35b346120f45760203660031901126120f4576004355f908152600b602052604090208054600182015460028301546001600160a01b0391821694929091169261221c836122158160038501612326565b03846123a7565b60405192612238846122318160048601612326565b03856123a7565b60ff61228a60058401549561227c60068601549460086007880154970154976040519b8c9b8c5260208c015260408b01526101a060608b01526101a08a01906123dc565b9088820360808a01526123dc565b9461229a60a08801838316612400565b6001600160401b038160081c1660c08801526001600160401b038160481c1660e0880152818160881c16151561010088015260901c1615156101208601526101408501526101608401526101808301520390f35b90600182811c9216801561231c575b602083101461230857565b634e487b7160e01b5f52602260045260245ffd5b91607f16916122fd565b5f9291815491612335836122ee565b808352926001811690811561238a575060011461235157505050565b5f9081526020812093945091925b838310612370575060209250010190565b60018160209294939454838587010152019101919061235f565b915050602093945060ff929192191683830152151560051b010190565b90601f801991011681019081106001600160401b038211176123c857604052565b634e487b7160e01b5f52604160045260245ffd5b805180835260209291819084018484015e5f828201840152601f01601f1916010190565b90600482101561240d5752565b634e487b7160e01b5f52602160045260245ffd5b600435906001600160a01b03821682036120f457565b602435906001600160a01b03821682036120f457565b90602080835192838152019201905f5b81811061246a5750505090565b825184526020938401939092019160010161245d565b9181601f840112156120f4578235916001600160401b0383116120f457602083818601950101116120f457565b90602080835192838152019201905f5b8181106124ca5750505090565b825115158452602093840193909201916001016124bd565b919082018092116124ef57565b634e487b7160e01b5f52601160045260245ffd5b919082039182116124ef57565b818102929181159184041417156124ef57565b5f1981146124ef5760010190565b6001600160401b0381116123c85760051b60200190565b9061255282612531565b61255f60405191826123a7565b8281528092612570601f1991612531565b0190602036910137565b805182101561258e5760209160051b010190565b634e487b7160e01b5f52603260045260245ffd5b908060209392818452848401375f828201840152601f01601f1916010190565b156125c957565b606460405162461bcd60e51b81526020600482015260046024820152637a65726f60e01b6044820152fd5b908160209103126120f4575161ffff811681036120f45790565b9081526001600160a01b039091166020820152901515604082015260600190565b81811061263a575050565b5f815560010161262f565b9190601f811161265457505050565b61267e925f5260205f20906020601f840160051c83019310612680575b601f0160051c019061262f565b565b9091508190612671565b906001600160401b03809116911601906001600160401b0382116124ef57565b60015f54036126b95760025f55565b60405162461bcd60e51b815260206004820152600a6024820152697265656e7472616e637960b01b6044820152606490fd5b6001546001600160a01b031633036126ff57565b63b0c9b88560e01b5f5260045ffd5b60048054604051630709df4560e01b81526001600160a01b03938416928101839052919260209183916024918391165afa9081156127e9575f9161281e575b506001600160a01b03161561281957600354604051630d47875d60e41b815260048101929092526001600160a01b0316602082602481845afa9182156127e9575f926127f4575b50602060049160405192838092634ccf04cf60e01b82525afa9081156127e95761ffff9182915f916127ca575b50169116101590565b6127e3915060203d602011610f0b57610efd81836123a7565b5f6127c1565b6040513d5f823e3d90fd5b6004919250612811602091823d8411610f0b57610efd81836123a7565b929150612794565b505f90565b90506020813d602011612858575b81612839602093836123a7565b810103126120f457516001600160a01b03811681036120f4575f61274d565b3d915061282c56fea2f0de3df8492190d09725d44059c2aa2f98905ef69bb7aa2fdc97e85afff236334e10103f2c922a8712870b48eda402331a41dae7facb36cf4c24756fffb68da2646970667358221220f4f77c42c9a02640081d35e1295d583d5df0e6393fe283d75342876468c5f50264736f6c634300081e0033","linkReferences":{}},"methodIdentifiers":{"FATIGUE_PER_VOTE()":"49348c7b","FATIGUE_RECOVERY_RATE()":"61a51f44","admin()":"f851a440","disputeFlag(address,string)":"699e6334","finalize(uint256)":"05261aea","getActiveProposals()":"5584c4f9","getFatigueInfo(address)":"3ac01d3f","getProposalDetails(uint256)":"3b4d01a7","getProposalStatus(uint256)":"401853b7","getProposalsBatch(uint256[])":"8d24e68d","getVoterHistory(address)":"be9f9e79","getVoterStats(address)":"5bff3c23","getVotingPower(address)":"bb4d4436","hasVoted(uint256,address)":"43859632","hooks()":"cd7033c4","isEligible(address)":"66e305fd","ledger()":"56397c35","markExecuted(uint256)":"f6405119","minParticipation()":"054fd2c2","minVotesRequired()":"403fb4a8","proposalCount()":"da35c664","proposals(uint256)":"013cf08b","propose(uint8,address,uint256,bytes,string)":"cd090f7e","seer()":"2d55ea39","setAdmin(address)":"704b6c02","setMinParticipation(uint256)":"0eb0ff8a","setModules(address,address,address,address)":"b079fbff","setParams(uint64,uint256)":"5643591d","timelock()":"d33219b4","vaultHub()":"6dd6e80b","vote(uint256,bool)":"c9d27afe","voterInfo(address)":"cdf58d35","votingDelay()":"3932abb1","votingPeriod()":"02a251a3","withdrawProposal(uint256)":"e1f02ffa","withdrawnProposalHashes(bytes32)":"4777cc28"},"id":6}