{"abi":[{"type":"constructor","inputs":[{"name":"_admin","type":"address","internalType":"address"},{"name":"_timelock","type":"address","internalType":"address"},{"name":"_seer","type":"address","internalType":"address"},{"name":"_hub","type":"address","internalType":"address"},{"name":"_hooks","type":"address","internalType":"address"}],"stateMutability":"nonpayable"},{"type":"function","name":"FATIGUE_PER_VOTE","inputs":[],"outputs":[{"name":"","type":"uint256","internalType":"uint256"}],"stateMutability":"view"},{"type":"function","name":"FATIGUE_RECOVERY_RATE","inputs":[],"outputs":[{"name":"","type":"uint256","internalType":"uint256"}],"stateMutability":"view"},{"type":"function","name":"admin","inputs":[],"outputs":[{"name":"","type":"address","internalType":"address"}],"stateMutability":"view"},{"type":"function","name":"disputeFlag","inputs":[{"name":"user","type":"address","internalType":"address"},{"name":"reason","type":"string","internalType":"string"}],"outputs":[],"stateMutability":"nonpayable"},{"type":"function","name":"finalize","inputs":[{"name":"id","type":"uint256","internalType":"uint256"}],"outputs":[],"stateMutability":"nonpayable"},{"type":"function","name":"getActiveProposals","inputs":[],"outputs":[{"name":"ids","type":"uint256[]","internalType":"uint256[]"}],"stateMutability":"view"},{"type":"function","name":"getFatigueInfo","inputs":[{"name":"voter","type":"address","internalType":"address"}],"outputs":[{"name":"currentFatigue","type":"uint256","internalType":"uint256"},{"name":"lastVoteTime","type":"uint256","internalType":"uint256"},{"name":"recoveredSince","type":"uint256","internalType":"uint256"},{"name":"effectiveFatigue","type":"uint256","internalType":"uint256"}],"stateMutability":"view"},{"type":"function","name":"getProposalDetails","inputs":[{"name":"id","type":"uint256","internalType":"uint256"}],"outputs":[{"name":"proposer","type":"address","internalType":"address"},{"name":"ptype","type":"uint8","internalType":"enum DAO.ProposalType"},{"name":"target","type":"address","internalType":"address"},{"name":"value","type":"uint256","internalType":"uint256"},{"name":"description","type":"string","internalType":"string"},{"name":"startTime","type":"uint64","internalType":"uint64"},{"name":"endTime","type":"uint64","internalType":"uint64"},{"name":"forVotes","type":"uint256","internalType":"uint256"},{"name":"againstVotes","type":"uint256","internalType":"uint256"},{"name":"executed","type":"bool","internalType":"bool"},{"name":"queued","type":"bool","internalType":"bool"}],"stateMutability":"view"},{"type":"function","name":"getProposalStatus","inputs":[{"name":"id","type":"uint256","internalType":"uint256"}],"outputs":[{"name":"status","type":"string","internalType":"string"},{"name":"quorumMet","type":"bool","internalType":"bool"},{"name":"passing","type":"bool","internalType":"bool"},{"name":"timeRemaining","type":"uint256","internalType":"uint256"}],"stateMutability":"view"},{"type":"function","name":"getProposalsBatch","inputs":[{"name":"ids","type":"uint256[]","internalType":"uint256[]"}],"outputs":[{"name":"forVotesCounts","type":"uint256[]","internalType":"uint256[]"},{"name":"againstVotesCounts","type":"uint256[]","internalType":"uint256[]"},{"name":"executedFlags","type":"bool[]","internalType":"bool[]"},{"name":"queuedFlags","type":"bool[]","internalType":"bool[]"}],"stateMutability":"view"},{"type":"function","name":"getVoterHistory","inputs":[{"name":"voter","type":"address","internalType":"address"}],"outputs":[{"name":"proposalIds","type":"uint256[]","internalType":"uint256[]"}],"stateMutability":"view"},{"type":"function","name":"getVoterStats","inputs":[{"name":"voter","type":"address","internalType":"address"}],"outputs":[{"name":"votesTotal","type":"uint256","internalType":"uint256"},{"name":"forVotes","type":"uint256","internalType":"uint256"},{"name":"againstVotes","type":"uint256","internalType":"uint256"},{"name":"participationRate","type":"uint256","internalType":"uint256"}],"stateMutability":"view"},{"type":"function","name":"getVotingPower","inputs":[{"name":"voter","type":"address","internalType":"address"}],"outputs":[{"name":"rawScore","type":"uint256","internalType":"uint256"},{"name":"fatiguePercent","type":"uint256","internalType":"uint256"},{"name":"effectivePower","type":"uint256","internalType":"uint256"}],"stateMutability":"view"},{"type":"function","name":"hasVoted","inputs":[{"name":"id","type":"uint256","internalType":"uint256"},{"name":"voter","type":"address","internalType":"address"}],"outputs":[{"name":"","type":"bool","internalType":"bool"}],"stateMutability":"view"},{"type":"function","name":"hooks","inputs":[],"outputs":[{"name":"","type":"address","internalType":"contract IGovernanceHooks"}],"stateMutability":"view"},{"type":"function","name":"isEligible","inputs":[{"name":"user","type":"address","internalType":"address"}],"outputs":[{"name":"","type":"bool","internalType":"bool"}],"stateMutability":"view"},{"type":"function","name":"ledger","inputs":[],"outputs":[{"name":"","type":"address","internalType":"contract IProofLedger"}],"stateMutability":"view"},{"type":"function","name":"markExecuted","inputs":[{"name":"id","type":"uint256","internalType":"uint256"}],"outputs":[],"stateMutability":"nonpayable"},{"type":"function","name":"minParticipation","inputs":[],"outputs":[{"name":"","type":"uint256","internalType":"uint256"}],"stateMutability":"view"},{"type":"function","name":"minVotesRequired","inputs":[],"outputs":[{"name":"","type":"uint256","internalType":"uint256"}],"stateMutability":"view"},{"type":"function","name":"proposalCount","inputs":[],"outputs":[{"name":"","type":"uint256","internalType":"uint256"}],"stateMutability":"view"},{"type":"function","name":"proposals","inputs":[{"name":"","type":"uint256","internalType":"uint256"}],"outputs":[{"name":"proposer","type":"address","internalType":"address"},{"name":"target","type":"address","internalType":"address"},{"name":"value","type":"uint256","internalType":"uint256"},{"name":"data","type":"bytes","internalType":"bytes"},{"name":"description","type":"string","internalType":"string"},{"name":"ptype","type":"uint8","internalType":"enum DAO.ProposalType"},{"name":"start","type":"uint64","internalType":"uint64"},{"name":"end","type":"uint64","internalType":"uint64"},{"name":"executed","type":"bool","internalType":"bool"},{"name":"queued","type":"bool","internalType":"bool"},{"name":"forVotes","type":"uint256","internalType":"uint256"},{"name":"againstVotes","type":"uint256","internalType":"uint256"},{"name":"voterCount","type":"uint256","internalType":"uint256"}],"stateMutability":"view"},{"type":"function","name":"propose","inputs":[{"name":"ptype","type":"uint8","internalType":"enum DAO.ProposalType"},{"name":"target","type":"address","internalType":"address"},{"name":"value","type":"uint256","internalType":"uint256"},{"name":"data","type":"bytes","internalType":"bytes"},{"name":"description","type":"string","internalType":"string"}],"outputs":[{"name":"id","type":"uint256","internalType":"uint256"}],"stateMutability":"nonpayable"},{"type":"function","name":"seer","inputs":[],"outputs":[{"name":"","type":"address","internalType":"contract ISeer"}],"stateMutability":"view"},{"type":"function","name":"setAdmin","inputs":[{"name":"_admin","type":"address","internalType":"address"}],"outputs":[],"stateMutability":"nonpayable"},{"type":"function","name":"setMinParticipation","inputs":[{"name":"_minParticipation","type":"uint256","internalType":"uint256"}],"outputs":[],"stateMutability":"nonpayable"},{"type":"function","name":"setModules","inputs":[{"name":"_timelock","type":"address","internalType":"address"},{"name":"_seer","type":"address","internalType":"address"},{"name":"_hub","type":"address","internalType":"address"},{"name":"_hooks","type":"address","internalType":"address"}],"outputs":[],"stateMutability":"nonpayable"},{"type":"function","name":"setParams","inputs":[{"name":"_period","type":"uint64","internalType":"uint64"},{"name":"_minVotes","type":"uint256","internalType":"uint256"}],"outputs":[],"stateMutability":"nonpayable"},{"type":"function","name":"timelock","inputs":[],"outputs":[{"name":"","type":"address","internalType":"contract IDAOTimelock"}],"stateMutability":"view"},{"type":"function","name":"vaultHub","inputs":[],"outputs":[{"name":"","type":"address","internalType":"contract IVaultHub"}],"stateMutability":"view"},{"type":"function","name":"vote","inputs":[{"name":"id","type":"uint256","internalType":"uint256"},{"name":"support","type":"bool","internalType":"bool"}],"outputs":[],"stateMutability":"nonpayable"},{"type":"function","name":"voterInfo","inputs":[{"name":"","type":"address","internalType":"address"}],"outputs":[{"name":"lastVoteTime","type":"uint256","internalType":"uint256"},{"name":"fatigue","type":"uint256","internalType":"uint256"}],"stateMutability":"view"},{"type":"function","name":"votingDelay","inputs":[],"outputs":[{"name":"","type":"uint64","internalType":"uint64"}],"stateMutability":"view"},{"type":"function","name":"votingPeriod","inputs":[],"outputs":[{"name":"","type":"uint64","internalType":"uint64"}],"stateMutability":"view"},{"type":"function","name":"withdrawProposal","inputs":[{"name":"id","type":"uint256","internalType":"uint256"}],"outputs":[],"stateMutability":"nonpayable"},{"type":"function","name":"withdrawnProposalHashes","inputs":[{"name":"","type":"bytes32","internalType":"bytes32"}],"outputs":[{"name":"","type":"bool","internalType":"bool"}],"stateMutability":"view"},{"type":"event","name":"AdminSet","inputs":[{"name":"admin","type":"address","indexed":false,"internalType":"address"}],"anonymous":false},{"type":"event","name":"DisputeFlagged","inputs":[{"name":"user","type":"address","indexed":true,"internalType":"address"},{"name":"caller","type":"address","indexed":true,"internalType":"address"},{"name":"reason","type":"string","indexed":false,"internalType":"string"}],"anonymous":false},{"type":"event","name":"Executed","inputs":[{"name":"id","type":"uint256","indexed":false,"internalType":"uint256"}],"anonymous":false},{"type":"event","name":"Finalized","inputs":[{"name":"id","type":"uint256","indexed":false,"internalType":"uint256"},{"name":"passed","type":"bool","indexed":false,"internalType":"bool"}],"anonymous":false},{"type":"event","name":"ModulesSet","inputs":[{"name":"timelock","type":"address","indexed":false,"internalType":"address"},{"name":"seer","type":"address","indexed":false,"internalType":"address"},{"name":"hub","type":"address","indexed":false,"internalType":"address"},{"name":"hooks","type":"address","indexed":false,"internalType":"address"},{"name":"council","type":"address","indexed":false,"internalType":"address"}],"anonymous":false},{"type":"event","name":"ParamsSet","inputs":[{"name":"votingPeriod","type":"uint64","indexed":false,"internalType":"uint64"},{"name":"minVotesRequired","type":"uint256","indexed":false,"internalType":"uint256"}],"anonymous":false},{"type":"event","name":"ProposalCreated","inputs":[{"name":"id","type":"uint256","indexed":false,"internalType":"uint256"},{"name":"proposer","type":"address","indexed":false,"internalType":"address"},{"name":"ptype","type":"uint8","indexed":false,"internalType":"enum DAO.ProposalType"},{"name":"target","type":"address","indexed":false,"internalType":"address"},{"name":"value","type":"uint256","indexed":false,"internalType":"uint256"},{"name":"data","type":"bytes","indexed":false,"internalType":"bytes"},{"name":"description","type":"string","indexed":false,"internalType":"string"}],"anonymous":false},{"type":"event","name":"ProposalStateChanged","inputs":[{"name":"id","type":"uint256","indexed":true,"internalType":"uint256"},{"name":"oldState","type":"string","indexed":false,"internalType":"string"},{"name":"newState","type":"string","indexed":false,"internalType":"string"}],"anonymous":false},{"type":"event","name":"ProposalWithdrawn","inputs":[{"name":"id","type":"uint256","indexed":false,"internalType":"uint256"},{"name":"proposer","type":"address","indexed":true,"internalType":"address"}],"anonymous":false},{"type":"event","name":"Queued","inputs":[{"name":"id","type":"uint256","indexed":false,"internalType":"uint256"},{"name":"timelockId","type":"bytes32","indexed":false,"internalType":"bytes32"}],"anonymous":false},{"type":"event","name":"VoteDelegated","inputs":[{"name":"delegator","type":"address","indexed":true,"internalType":"address"},{"name":"delegate","type":"address","indexed":true,"internalType":"address"}],"anonymous":false},{"type":"event","name":"Voted","inputs":[{"name":"id","type":"uint256","indexed":false,"internalType":"uint256"},{"name":"voter","type":"address","indexed":false,"internalType":"address"},{"name":"support","type":"bool","indexed":false,"internalType":"bool"}],"anonymous":false},{"type":"error","name":"DAO_AlreadyVoted","inputs":[]},{"type":"error","name":"DAO_NotAdmin","inputs":[]},{"type":"error","name":"DAO_NotEligible","inputs":[]},{"type":"error","name":"DAO_UnknownProposal","inputs":[]},{"type":"error","name":"DAO_VoteEnded","inputs":[]},{"type":"error","name":"DAO_VoteNotStarted","inputs":[]}],"bytecode":{"object":"0x60803461021657601f612b0338819003918201601f19168301916001600160401b0383118484101761021a5780849260a094604052833981010312610216576100478161022e565b906100546020820161022e565b6100606040830161022e565b9261007960806100726060860161022e565b940161022e565b60015f5560068054600160a01b600160e01b0319166107e960a71b179055600780546001600160401b0319166201518017905561138860085560026009556001600160a01b039091169182151580610204575b806101f2575b806101e0575b156101b557600180546001600160a01b031990811685179091556002805482166001600160a01b0393841690811790915560038054831697841697881790556004805483169684169687179055600580549092169390921692831790556040805191825260208083019690965281019390935260608301525f60808301527f8fe72c3e0020beb3234e76ae6676fa576fbfcae600af1c4fea44784cf0db329c92917f3676b3b8ddb712ee065be8fd22e137c8832e03de83c7fbccd82d6a1813f7b4d39060a090a1604051908152a16040516128c090816102438239f35b606460405162461bcd60e51b81526020600482015260046024820152637a65726f60e01b6044820152fd5b506001600160a01b03841615156100d8565b506001600160a01b03851615156100d2565b506001600160a01b03811615156100cc565b5f80fd5b634e487b7160e01b5f52604160045260245ffd5b51906001600160a01b03821682036102165756fe6080806040526004361015610012575f80fd5b5f905f3560e01c908163013cf08b146122115750806302a251a3146121e857806305261aea14611e84578063054fd2c214611e665780630eb0ff8a14611de35780632d55ea3914611dba5780633932abb114611d935780633ac01d3f14611cf15780633b4d01a714611c01578063401853b714611a87578063403fb4a814611a695780634385963214611a1c5780634777cc28146119ed57806349348c7b146119d15780635584c4f91461186857806356397c351461183f5780635643591d146116fc5780635bff3c231461160a57806361a51f44146115ec57806366e305fd146115be578063699e6334146114fd5780636dd6e80b146114d4578063704b6c021461145f5780638d24e68d14611321578063b079fbff146111f3578063bb4d4436146110a5578063be9f9e791461101b578063c9d27afe14610b5e578063cd090f7e14610618578063cd7033c4146105ef578063cdf58d35146105ac578063d33219b414610583578063da35c66414610565578063e1f02ffa14610291578063f6405119146101d55763f851a440146101aa575f80fd5b346101d257806003193601126101d2576001546040516001600160a01b039091168152602090f35b80fd5b50346101d25760203660031901126101d2576004356101f2612715565b808252600b602052600560408320019081549060ff8260901c1680610283575b156102585760ff60881b19909116600160881b179091556040519081527fbcf6a68a2f901be4a23a41b53acd7697893a7e34def4e28acba584da75283b6790602090a180f35b60405162461bcd60e51b815260206004820152600360248201526218985960ea1b6044820152606490fd5b5060ff8260881c1615610212565b50346101d25760203660031901126101d257600435808252600b6020526040822080546001600160a01b0316330361053157600581015460ff8160881c161580610523575b156104ea576001600160401b038160081c16421080156104d1575b1561047e576103546103299161034660ff9460018060a01b0360018201541660028201549060405196879560208701998a911661244b565b60408501526060840152608080840152600360a084019101612371565b03601f1981018352826123f2565b5190208252600c60205260408220600160ff19825416179055808252600b60205281600860408220828155826001820155826002820155826003820161039a8154612339565b8061043c575b5050600482016103b08154612339565b806103fa575b5050600582015582600682015582600782015501556040519081527f227963be52ff8a07c7da3b18de57749070333730ee5489bc9c414a467e5425cf60203392a280f35b601f81116001146104105750555b825f806103b6565b8183526020832061042c91601f0160051c810190600101612659565b8082528160208120915555610408565b601f81116001146104525750555b825f806103a0565b8183526020832061046e91601f0160051c810190600101612659565b808252816020812091555561044a565b60405162461bcd60e51b815260206004820152602560248201527f44414f3a2063616e6e6f7420776974686472617720616674657220766f7465736044820152640818d85cdd60da1b6064820152608490fd5b5060068201541580156102f157506007820154156102f1565b60405162461bcd60e51b8152602060048201526011602482015270105b1c9958591e481c1c9bd8d95cdcd959607a1b6044820152606490fd5b5060ff8160901c16156102d6565b60405162461bcd60e51b815260206004820152600c60248201526b2737ba10383937b837b9b2b960a11b6044820152606490fd5b50346101d257806003193601126101d2576020600a54604051908152f35b50346101d257806003193601126101d2576002546040516001600160a01b039091168152602090f35b50346101d25760203660031901126101d25760409081906001600160a01b036105d361246c565b168152600d602052206001815491015482519182526020820152f35b50346101d257806003193601126101d2576005546040516001600160a01b039091168152602090f35b50346101d25760a03660031901126101d257600435600481101580610b5a5761063f612482565b91604435926064356001600160401b038111610b56576106639036906004016124cb565b6084356001600160401b038111610b52576106829036906004016124cb565b96909361068e33612738565b15610b43576001600160a01b03168015801590610b38575b15610afd578715610abf5760405160208101906106c3828961244b565b8260408201528360608201526080808201526106e78161034660a08201888a6125ed565b5190208952600c60205260ff60408a205416610a6b57610708600a5461256e565b600a819055808a52600b60205260408a2080546001600160a01b031916331781559097600582019190610a575760ff1982541660ff891617825560018101836001600160601b0360a01b825416179055836002820155600381016001600160401b038611610a43576107848661077e8354612339565b8361266f565b858c8d601f83116001146109d75791806107b6926004969594916109cc575b508160011b915f199060031b1c19161790565b90555b016001600160401b038a116109b85760209a6107df8b6107d98454612339565b8461266f565b80601f8c11600114610925579361090f97936108e69a99979361083e8e7f334e10103f2c922a8712870b48eda402331a41dae7facb36cf4c24756fffb68d9e9f809a966109019a9161091a57508160011b915f199060031b1c19161790565b90555b61085f6001600160401b03600754166001600160401b0342166126b4565b68ffffffffffffffff0082549160081b1670ffffffffffffffff0000000000000000006108b18268ffffffffffffffff00198516178086556001600160401b038060065460a01c169160081c166126b4565b60481b169170ffffffffffffffffffffffffffffffff00191617179055604051998a998d8b52338f8c015260408b019061244b565b6060890152608088015260e060a088015260e08701916125ed565b9184830360c08601526125ed565b0390a1604051908152f35b90508b01355f6107a3565b90601f198c168383528d8320925b8181106109a15750936108e69a9997938d979361090197937f334e10103f2c922a8712870b48eda402331a41dae7facb36cf4c24756fffb68d9e9f61090f9c9810610988575b5050600188811b019055610841565b8a01355f1960038b901b60f8161c191690555f80610979565b91928e60018192868e013581550194019201610933565b634e487b7160e01b8b52604160045260248bfd5b90508a01355f6107a3565b8381526020812090949392509088601f1981165b8b818810610a2657506004965010610a0d575b5050600187811b0190556107b9565b8901355f1960038a901b60f8161c191690555f806109fe565b8301358455602096870196600190940193909201918a91506109eb565b634e487b7160e01b8c52604160045260248cfd5b634e487b7160e01b8b52602160045260248bfd5b60405162461bcd60e51b815260206004820152602660248201527f44414f3a2070726f706f73616c207761732070726576696f75736c792077697460448201526534323930bbb760d11b6064820152608490fd5b60405162461bcd60e51b81526020600482015260166024820152752220a79d1032b6b83a3c903232b9b1b934b83a34b7b760511b6044820152606490fd5b60405162461bcd60e51b8152602060048201526013602482015272111053ce881a5b9d985b1a59081d185c99d95d606a1b6044820152606490fd5b5088965085156106a6565b630593eb8f60e51b8952600489fd5b8780fd5b8580fd5b8280fd5b50346101d25760403660031901126101d25760043590602435801515810361101757610b886126d4565b828252600b602052604082209260058401546001600160401b038160481c1680158015611003575b610ff4576001600160401b038260081c164210610fe557421015610fd657610bd733612738565b15610fc757600985019060018060a01b0333165f528160205260ff60405f205416610fb85760ff8160881c16159081610fa9575b5015610f6457335f90815260209190915260409020805460ff19166001179055600884018054610c3a9061256e565b9055338352600e6020526040832080549068010000000000000000821015610f505760018201808255821015610f3c5784526020808520909101829055600354604051630d47875d60e41b81523360048201529190829060249082906001600160a01b03165afa908115610f31579061ffff918591610f02575b5016338452600d6020526040842094855480610ea0575b506001860195865480610e5a575b60058101809111610e4657869755429055835f14610e30576006610d00910191825461252d565b90555b60408051828152336020820152831515918101919091527ff2913dbe661ee2acc4a046d8fbcdc792373bda34c41c6086484b5345e5785e5f90606090a16003546001600160a01b0316803b15610e12578380809260a460405180948193630eccbd3560e11b83523360048401526005602484015260606044840152600860648401526764616f5f766f746560c01b60848401525af1610e17575b50506005546001600160a01b03169182610dba575b836001815580f35b823b15610e1257604051635b43b6eb60e11b81526004810192909252336024830152151560448201529082908290606490829084905af1610dfd575b8080610db2565b81610e07916123f2565b6101d257805f610df6565b505050fd5b81610e21916123f2565b610e2c57825f610d9d565b5050fd5b6007610e3f910191825461252d565b9055610d03565b634e487b7160e01b87526011600452602487fd5b92605a841115610e9a57605a5b6064039060648211610e8657606491610e7f9161255b565b0492610cd9565b634e487b7160e01b88526011600452602488fd5b83610e67565b610eae62015180914261254e565b04600581029080820460051490151715610eee57600187018054879290808210610edc575050555b5f610ccb565b610ee792935061254e565b9055610ed6565b634e487b7160e01b86526011600452602486fd5b610f24915060203d602011610f2a575b610f1c81836123f2565b81019061263f565b5f610cb4565b503d610f12565b6040513d86823e3d90fd5b634e487b7160e01b85526032600452602485fd5b634e487b7160e01b85526041600452602485fd5b60405162461bcd60e51b815260206004820152601f60248201527f44414f3a2070726f706f73616c20616c72656164792070726f636573736564006044820152606490fd5b60ff915060901c16155f610c0b565b635cb81f2560e11b8552600485fd5b630593eb8f60e51b8452600484fd5b633d36b71560e11b8452600484fd5b63430ae12f60e11b8552600485fd5b634092c90360e01b8552600485fd5b506001600160401b038260081c1615610bb0565b5080fd5b50346101d25760203660031901126101d2576001600160a01b0361103d61246c565b168152600e60205260408120604051918260208354918281520192825260208220915b81811061108f5761108b85611077818703826123f2565b604051918291602083526020830190612498565b0390f35b8254845260209093019260019283019201611060565b50346101d25760203660031901126101d2576110bf61246c565b600354604051630d47875d60e41b81526001600160a01b039283166004820181905292909160209183916024918391165afa80156111e85761ffff9184916111c9575b5016908252600d602052604082206001810154905480611174575b50605a81111561116f5750605a5b80606403926064841161115b575060646111476060948461255b565b049060405192835260208301526040820152f35b634e487b7160e01b81526011600452602490fd5b61112b565b61118262015180914261254e565b046005810290808204600514901517156111b5578181106111a7575050815b5f61111d565b6111b09161254e565b6111a1565b634e487b7160e01b84526011600452602484fd5b6111e2915060203d602011610f2a57610f1c81836123f2565b5f611102565b6040513d85823e3d90fd5b50346101d25760803660031901126101d25761120d61246c565b611215612482565b6044356001600160a01b03811692919083900361131d576064356001600160a01b03811690819003611319577f3676b3b8ddb712ee065be8fd22e137c8832e03de83c7fbccd82d6a1813f7b4d39360a09361126e612715565b600180861b03169283151580611309575b80611300575b61128e9061260d565b836001600160601b03861b6002541617600255600180861b0316806001600160601b03861b6003541617600355816001600160601b03861b6004541617600455826001600160601b03861b6005541617600555604051938452602084015260408301526060820152836080820152a180f35b50811515611285565b50600180861b038116151561127f565b8480fd5b8380fd5b50346101d25760203660031901126101d257600435906001600160401b0382116101d257366023830112156101d2578160040135906001600160401b0382116101d2573660248360051b850101116101d25761137c82612593565b9261138683612593565b9361139084612593565b9261139a85612593565b92815b868110156114115760019060248160051b840101358452600b60205260056040852060068101546113ce84896125c5565b5260078101546113de848d6125c5565b5201546113eb82896125c5565b60ff8260881c161515905260ff61140283896125c5565b9160901c16151590520161139d565b6114358461108b876114518a6114438e604051978897608089526080890190612498565b908782036020890152612498565b9085820360408701526124f8565b9083820360608501526124f8565b50346101d25760203660031901126101d2577f8fe72c3e0020beb3234e76ae6676fa576fbfcae600af1c4fea44784cf0db329c602061149c61246c565b6114a4612715565b6001600160a01b03166114b881151561260d565b600180546001600160a01b03191682179055604051908152a180f35b50346101d257806003193601126101d2576004546040516001600160a01b039091168152602090f35b50346101d25760403660031901126101d25761151761246c565b6024356001600160401b038111610b5a576115369036906004016124cb565b90331561158857604051602080825233946001600160a01b0316937f056e1bd5f7fc2c28c23041f7aacdb2bfc91c128c382f46c02c89b9cfbac04fc893839261158292908401916125ed565b0390a380f35b60405162461bcd60e51b815260206004820152600e60248201526d24b73b30b634b21031b0b63632b960911b6044820152606490fd5b50346101d25760203660031901126101d25760206115e26115dd61246c565b612738565b6040519015158152f35b50346101d257806003193601126101d2576020604051620151808152f35b50346101d25760203660031901126101d25761162461246c565b819060018060a01b03168252600e602052604082206040518082602082945493848152019086526020862092865b8181106116e3575050611667925003826123f2565b5190600a54928315938415611694575b506080935060405192835280602084015260408301526060820152f35b90915061271083029383850461271014841517156116cf576116bb5760809304905f611677565b634e487b7160e01b82526012600452602482fd5b634e487b7160e01b83526011600452602483fd5b8454835260019485019486945060209093019201611652565b50346101d25760403660031901126101d2576004356001600160401b038116808203610b5a57610e1060243592611731612715565b9110611836575b6001600160401b03811662278d0081116117f157620f424083116117b3577f03904376d24e01ffee2015c8f42bc52451ef52c4cbb442f7537c4902c97b61cb92604092600654906001600160401b0360a01b9060a01b16906001600160401b0360a01b1916176006558060085582519182526020820152a180f35b60405162461bcd60e51b8152602060048201526016602482015275088829e7440dad2dcacdee8cae640e8dede40d0d2ced60531b6044820152606490fd5b60405162461bcd60e51b815260206004820152601b60248201527f44414f3a20766f74696e6720706572696f6420746f6f206c6f6e6700000000006044820152606490fd5b50610e10611738565b50346101d257806003193601126101d2576006546040516001600160a01b039091168152602090f35b50346101d257806003193601126101d257600a548160015b82811115611945575061189290612593565b918060015b838111156118b5576040516020808252819061108b90820188612498565b806118ec918352600b602052426001600160401b03600560408620015460481c161180611928575b8061190b575b6118f15761256e565b611897565b806119056118fe8661256e565b95886125c5565b5261256e565b50808352600b60205260ff600560408520015460901c16156118e3565b50808352600b60205260ff600560408520015460881c16156118dd565b808452600b602052426001600160401b03600560408720015460481c1611806119b4575b80611997575b611982575b61197d9061256e565b611880565b9061198f61197d9161256e565b919050611974565b50808452600b60205260ff600560408620015460901c161561196f565b50808452600b60205260ff600560408620015460881c1615611969565b50346101d257806003193601126101d257602060405160058152f35b50346101d25760203660031901126101d25760ff60406020926004358152600c84522054166040519015158152f35b50346101d25760403660031901126101d25760096040611a3a612482565b926004358152600b60205220019060018060a01b03165f52602052602060ff60405f2054166040519015158152f35b50346101d257806003193601126101d2576020600854604051908152f35b50346101d25760203660031901126101d2576004358152600b602052604081206005810154611b3e9291608882901c60ff1615611b6c57604051611acc6040826123f2565b6008815267115e1958dd5d195960c21b6020820152925b6007600683015492015492611af8848461252d565b600854111593849384611b5b575b505060481c6001600160401b031642811115611b5457611b289150429061254e565b905b604051948594608086526080860190612427565b9260208501521515604084015260608301520390f35b5090611b2a565b1192506001600160401b035f611b06565b60ff8260901c165f14611ba057604051611b876040826123f2565b6006815265145d595d595960d21b602082015292611ae3565b604882901c6001600160401b03164210611bda57604051611bc26040826123f2565b6005815264115b99195960da1b602082015292611ae3565b604051611be86040826123f2565b600681526541637469766560d01b602082015292611ae3565b50346101d25760203660031901126101d2576040906004358152600b6020522060018060a01b0381541660058201549160ff60018060a01b03600183015416936002830154611ca3604051611c6481611c5d8160048a01612371565b03826123f2565b60076006870154960154926040519889988952611c8660208a0188881661244b565b604089015260608801526101606080880152610160870190612427565b936001600160401b038360081c1660a08701526001600160401b038360481c1660c087015260e0860152610100850152818160881c16151561012085015260901c1615156101408301520390f35b50346101d25760203660031901126101d257611d0b61246c565b6001600160a01b03168152600d602052604081206001810154905491908215611d875762015180611d3c844261254e565b046005810290808204600514901517156116cf5760809381838110611d77575083925b60405194508452602084015260408301526060820152f35b611d81908461254e565b92611d5f565b60809282908392611d5f565b50346101d257806003193601126101d25760206001600160401b0360075416604051908152f35b50346101d257806003193601126101d2576003546040516001600160a01b039091168152602090f35b50346101d25760203660031901126101d257600435611e00612715565b600181101580611e5b575b15611e165760095580f35b60405162461bcd60e51b815260206004820152601a60248201527f44414f3a20696e76616c69642070617274696369706174696f6e0000000000006044820152606490fd5b506064811115611e0b565b50346101d257806003193601126101d2576020600954604051908152f35b503461213f57602036600319011261213f5760043590611ea26126d4565b815f52600b60205260405f20600581019283546001600160401b038160481c16801580156121d4575b6121c55742106121985760ff8160881c16159081612189575b501561215e576006820154936007830154611eff818761252d565b6008541115958661214d575b86612143575b50506040805183815286151560208201527f82693b732f9696c8a914b820dd6c52544bd61b844bbd4c8707253df9340cf6b79190a16005546001600160a01b031694856120f3575b849550611f6857836001815580f35b60018060a01b036002541690611fc46020600186019560018060a01b038754169460028201958987549160405196879586948593636fe05b7360e11b855260048501526024840152606060448401526003606484019101612371565b03925af19081156120e8578691612096575b50815460ff60901b1916600160901b179091556040805184815260208101929092527fa2f0de3df8492190d09725d44059c2aa2f98905ef69bb7aa2fdc97e85afff23691a16005546001600160a01b03169283612034575b50610db2565b549054926001600160a01b0390911690803b1561131957849283606492604051968795869463e5b2f79b60e01b86526004860152602485015260448401525af1612081575b80808061202e565b8161208b916123f2565b6101d257805f612079565b90506020813d6020116120e0575b816120b1602093836123f2565b81010312610b5657517fa2f0de3df8492190d09725d44059c2aa2f98905ef69bb7aa2fdc97e85afff236611fd6565b3d91506120a4565b6040513d88823e3d90fd5b853b1561213f5760405163717d8bc360e01b8152600481018490528115156024820152955f908790604490829084905af115611f59579350935f612136916123f2565b5f928490611f59565b5f80fd5b1194505f80611f11565b600885015460095411159650611f0b565b606460405162461bcd60e51b8152602060048201526004602482015263646f6e6560e01b6044820152fd5b60ff915060901c16155f611ee4565b60405162461bcd60e51b81526020600482015260056024820152646561726c7960d81b6044820152606490fd5b634092c90360e01b5f5260045ffd5b506001600160401b038260081c1615611ecb565b3461213f575f36600319011261213f5760206001600160401b0360065460a01c16604051908152f35b3461213f57602036600319011261213f576004355f908152600b602052604090208054600182015460028301546001600160a01b03918216949290911692612267836122608160038501612371565b03846123f2565b604051926122838461227c8160048601612371565b03856123f2565b60ff6122d56005840154956122c760068601549460086007880154970154976040519b8c9b8c5260208c015260408b01526101a060608b01526101a08a0190612427565b9088820360808a0152612427565b946122e560a0880183831661244b565b6001600160401b038160081c1660c08801526001600160401b038160481c1660e0880152818160881c16151561010088015260901c1615156101208601526101408501526101608401526101808301520390f35b90600182811c92168015612367575b602083101461235357565b634e487b7160e01b5f52602260045260245ffd5b91607f1691612348565b5f929181549161238083612339565b80835292600181169081156123d5575060011461239c57505050565b5f9081526020812093945091925b8383106123bb575060209250010190565b6001816020929493945483858701015201910191906123aa565b915050602093945060ff929192191683830152151560051b010190565b90601f801991011681019081106001600160401b0382111761241357604052565b634e487b7160e01b5f52604160045260245ffd5b805180835260209291819084018484015e5f828201840152601f01601f1916010190565b9060048210156124585752565b634e487b7160e01b5f52602160045260245ffd5b600435906001600160a01b038216820361213f57565b602435906001600160a01b038216820361213f57565b90602080835192838152019201905f5b8181106124b55750505090565b82518452602093840193909201916001016124a8565b9181601f8401121561213f578235916001600160401b03831161213f576020838186019501011161213f57565b90602080835192838152019201905f5b8181106125155750505090565b82511515845260209384019390920191600101612508565b9190820180921161253a57565b634e487b7160e01b5f52601160045260245ffd5b9190820391821161253a57565b8181029291811591840414171561253a57565b5f19811461253a5760010190565b6001600160401b0381116124135760051b60200190565b9061259d8261257c565b6125aa60405191826123f2565b82815280926125bb601f199161257c565b0190602036910137565b80518210156125d95760209160051b010190565b634e487b7160e01b5f52603260045260245ffd5b908060209392818452848401375f828201840152601f01601f1916010190565b1561261457565b606460405162461bcd60e51b81526020600482015260046024820152637a65726f60e01b6044820152fd5b9081602091031261213f575161ffff8116810361213f5790565b818110612664575050565b5f8155600101612659565b9190601f811161267e57505050565b6126a8925f5260205f20906020601f840160051c830193106126aa575b601f0160051c0190612659565b565b909150819061269b565b906001600160401b03809116911601906001600160401b03821161253a57565b60015f54036126e35760025f55565b60405162461bcd60e51b815260206004820152600a6024820152697265656e7472616e637960b01b6044820152606490fd5b6001546001600160a01b0316330361272957565b63b0c9b88560e01b5f5260045ffd5b60048054604051630709df4560e01b81526001600160a01b03938416928101839052919260209183916024918391165afa908115612813575f91612848575b506001600160a01b03161561284357600354604051630d47875d60e41b815260048101929092526001600160a01b0316602082602481845afa918215612813575f9261281e575b50602060049160405192838092634ccf04cf60e01b82525afa9081156128135761ffff9182915f916127f4575b50169116101590565b61280d915060203d602011610f2a57610f1c81836123f2565b5f6127eb565b6040513d5f823e3d90fd5b600491925061283b602091823d8411610f2a57610f1c81836123f2565b9291506127be565b505f90565b90506020813d602011612882575b81612863602093836123f2565b8101031261213f57516001600160a01b038116810361213f575f612777565b3d915061285656fea26469706673582212205080e87c012e7bbfca5f1b91ddc53bae266b74fa3daaabd51cfbc8c66ea1f4dd64736f6c634300081e0033","linkReferences":{}},"methodIdentifiers":{"FATIGUE_PER_VOTE()":"49348c7b","FATIGUE_RECOVERY_RATE()":"61a51f44","admin()":"f851a440","disputeFlag(address,string)":"699e6334","finalize(uint256)":"05261aea","getActiveProposals()":"5584c4f9","getFatigueInfo(address)":"3ac01d3f","getProposalDetails(uint256)":"3b4d01a7","getProposalStatus(uint256)":"401853b7","getProposalsBatch(uint256[])":"8d24e68d","getVoterHistory(address)":"be9f9e79","getVoterStats(address)":"5bff3c23","getVotingPower(address)":"bb4d4436","hasVoted(uint256,address)":"43859632","hooks()":"cd7033c4","isEligible(address)":"66e305fd","ledger()":"56397c35","markExecuted(uint256)":"f6405119","minParticipation()":"054fd2c2","minVotesRequired()":"403fb4a8","proposalCount()":"da35c664","proposals(uint256)":"013cf08b","propose(uint8,address,uint256,bytes,string)":"cd090f7e","seer()":"2d55ea39","setAdmin(address)":"704b6c02","setMinParticipation(uint256)":"0eb0ff8a","setModules(address,address,address,address)":"b079fbff","setParams(uint64,uint256)":"5643591d","timelock()":"d33219b4","vaultHub()":"6dd6e80b","vote(uint256,bool)":"c9d27afe","voterInfo(address)":"cdf58d35","votingDelay()":"3932abb1","votingPeriod()":"02a251a3","withdrawProposal(uint256)":"e1f02ffa","withdrawnProposalHashes(bytes32)":"4777cc28"},"id":1}