{"abi":[{"type":"constructor","inputs":[{"name":"_admin","type":"address","internalType":"address"},{"name":"_timelock","type":"address","internalType":"address"},{"name":"_seer","type":"address","internalType":"address"},{"name":"_hub","type":"address","internalType":"address"},{"name":"_hooks","type":"address","internalType":"address"}],"stateMutability":"nonpayable"},{"type":"function","name":"FATIGUE_PER_VOTE","inputs":[],"outputs":[{"name":"","type":"uint256","internalType":"uint256"}],"stateMutability":"view"},{"type":"function","name":"FATIGUE_RECOVERY_RATE","inputs":[],"outputs":[{"name":"","type":"uint256","internalType":"uint256"}],"stateMutability":"view"},{"type":"function","name":"admin","inputs":[],"outputs":[{"name":"","type":"address","internalType":"address"}],"stateMutability":"view"},{"type":"function","name":"disputeFlag","inputs":[{"name":"user","type":"address","internalType":"address"},{"name":"reason","type":"string","internalType":"string"}],"outputs":[],"stateMutability":"nonpayable"},{"type":"function","name":"finalize","inputs":[{"name":"id","type":"uint256","internalType":"uint256"}],"outputs":[],"stateMutability":"nonpayable"},{"type":"function","name":"getActiveProposals","inputs":[],"outputs":[{"name":"ids","type":"uint256[]","internalType":"uint256[]"}],"stateMutability":"view"},{"type":"function","name":"getFatigueInfo","inputs":[{"name":"voter","type":"address","internalType":"address"}],"outputs":[{"name":"currentFatigue","type":"uint256","internalType":"uint256"},{"name":"lastVoteTime","type":"uint256","internalType":"uint256"},{"name":"recoveredSince","type":"uint256","internalType":"uint256"},{"name":"effectiveFatigue","type":"uint256","internalType":"uint256"}],"stateMutability":"view"},{"type":"function","name":"getProposalDetails","inputs":[{"name":"id","type":"uint256","internalType":"uint256"}],"outputs":[{"name":"proposer","type":"address","internalType":"address"},{"name":"ptype","type":"uint8","internalType":"enum DAO.ProposalType"},{"name":"target","type":"address","internalType":"address"},{"name":"value","type":"uint256","internalType":"uint256"},{"name":"description","type":"string","internalType":"string"},{"name":"startTime","type":"uint64","internalType":"uint64"},{"name":"endTime","type":"uint64","internalType":"uint64"},{"name":"forVotes","type":"uint256","internalType":"uint256"},{"name":"againstVotes","type":"uint256","internalType":"uint256"},{"name":"executed","type":"bool","internalType":"bool"},{"name":"queued","type":"bool","internalType":"bool"}],"stateMutability":"view"},{"type":"function","name":"getProposalStatus","inputs":[{"name":"id","type":"uint256","internalType":"uint256"}],"outputs":[{"name":"status","type":"string","internalType":"string"},{"name":"quorumMet","type":"bool","internalType":"bool"},{"name":"passing","type":"bool","internalType":"bool"},{"name":"timeRemaining","type":"uint256","internalType":"uint256"}],"stateMutability":"view"},{"type":"function","name":"getProposalsBatch","inputs":[{"name":"ids","type":"uint256[]","internalType":"uint256[]"}],"outputs":[{"name":"forVotesCounts","type":"uint256[]","internalType":"uint256[]"},{"name":"againstVotesCounts","type":"uint256[]","internalType":"uint256[]"},{"name":"executedFlags","type":"bool[]","internalType":"bool[]"},{"name":"queuedFlags","type":"bool[]","internalType":"bool[]"}],"stateMutability":"view"},{"type":"function","name":"getVoterHistory","inputs":[{"name":"voter","type":"address","internalType":"address"}],"outputs":[{"name":"proposalIds","type":"uint256[]","internalType":"uint256[]"}],"stateMutability":"view"},{"type":"function","name":"getVoterStats","inputs":[{"name":"voter","type":"address","internalType":"address"}],"outputs":[{"name":"votesTotal","type":"uint256","internalType":"uint256"},{"name":"forVotes","type":"uint256","internalType":"uint256"},{"name":"againstVotes","type":"uint256","internalType":"uint256"},{"name":"participationRate","type":"uint256","internalType":"uint256"}],"stateMutability":"view"},{"type":"function","name":"getVotingPower","inputs":[{"name":"voter","type":"address","internalType":"address"}],"outputs":[{"name":"rawScore","type":"uint256","internalType":"uint256"},{"name":"fatiguePercent","type":"uint256","internalType":"uint256"},{"name":"effectivePower","type":"uint256","internalType":"uint256"}],"stateMutability":"view"},{"type":"function","name":"guardian","inputs":[],"outputs":[{"name":"","type":"address","internalType":"contract ISeerGuardian_DAO"}],"stateMutability":"view"},{"type":"function","name":"hasVoted","inputs":[{"name":"id","type":"uint256","internalType":"uint256"},{"name":"voter","type":"address","internalType":"address"}],"outputs":[{"name":"","type":"bool","internalType":"bool"}],"stateMutability":"view"},{"type":"function","name":"hooks","inputs":[],"outputs":[{"name":"","type":"address","internalType":"contract IGovernanceHooks"}],"stateMutability":"view"},{"type":"function","name":"isEligible","inputs":[{"name":"user","type":"address","internalType":"address"}],"outputs":[{"name":"","type":"bool","internalType":"bool"}],"stateMutability":"view"},{"type":"function","name":"ledger","inputs":[],"outputs":[{"name":"","type":"address","internalType":"contract IProofLedger"}],"stateMutability":"view"},{"type":"function","name":"markExecuted","inputs":[{"name":"id","type":"uint256","internalType":"uint256"}],"outputs":[],"stateMutability":"nonpayable"},{"type":"function","name":"minParticipation","inputs":[],"outputs":[{"name":"","type":"uint256","internalType":"uint256"}],"stateMutability":"view"},{"type":"function","name":"minVotesRequired","inputs":[],"outputs":[{"name":"","type":"uint256","internalType":"uint256"}],"stateMutability":"view"},{"type":"function","name":"proposalCount","inputs":[],"outputs":[{"name":"","type":"uint256","internalType":"uint256"}],"stateMutability":"view"},{"type":"function","name":"proposals","inputs":[{"name":"","type":"uint256","internalType":"uint256"}],"outputs":[{"name":"proposer","type":"address","internalType":"address"},{"name":"target","type":"address","internalType":"address"},{"name":"value","type":"uint256","internalType":"uint256"},{"name":"data","type":"bytes","internalType":"bytes"},{"name":"description","type":"string","internalType":"string"},{"name":"ptype","type":"uint8","internalType":"enum DAO.ProposalType"},{"name":"start","type":"uint64","internalType":"uint64"},{"name":"end","type":"uint64","internalType":"uint64"},{"name":"executed","type":"bool","internalType":"bool"},{"name":"queued","type":"bool","internalType":"bool"},{"name":"forVotes","type":"uint256","internalType":"uint256"},{"name":"againstVotes","type":"uint256","internalType":"uint256"},{"name":"voterCount","type":"uint256","internalType":"uint256"}],"stateMutability":"view"},{"type":"function","name":"propose","inputs":[{"name":"ptype","type":"uint8","internalType":"enum DAO.ProposalType"},{"name":"target","type":"address","internalType":"address"},{"name":"value","type":"uint256","internalType":"uint256"},{"name":"data","type":"bytes","internalType":"bytes"},{"name":"description","type":"string","internalType":"string"}],"outputs":[{"name":"id","type":"uint256","internalType":"uint256"}],"stateMutability":"nonpayable"},{"type":"function","name":"seer","inputs":[],"outputs":[{"name":"","type":"address","internalType":"contract ISeer"}],"stateMutability":"view"},{"type":"function","name":"setAdmin","inputs":[{"name":"_admin","type":"address","internalType":"address"}],"outputs":[],"stateMutability":"nonpayable"},{"type":"function","name":"setGuardian","inputs":[{"name":"_guardian","type":"address","internalType":"address"}],"outputs":[],"stateMutability":"nonpayable"},{"type":"function","name":"setMinParticipation","inputs":[{"name":"_minParticipation","type":"uint256","internalType":"uint256"}],"outputs":[],"stateMutability":"nonpayable"},{"type":"function","name":"setModules","inputs":[{"name":"_timelock","type":"address","internalType":"address"},{"name":"_seer","type":"address","internalType":"address"},{"name":"_hub","type":"address","internalType":"address"},{"name":"_hooks","type":"address","internalType":"address"}],"outputs":[],"stateMutability":"nonpayable"},{"type":"function","name":"setParams","inputs":[{"name":"_period","type":"uint64","internalType":"uint64"},{"name":"_minVotes","type":"uint256","internalType":"uint256"}],"outputs":[],"stateMutability":"nonpayable"},{"type":"function","name":"timelock","inputs":[],"outputs":[{"name":"","type":"address","internalType":"contract IDAOTimelock"}],"stateMutability":"view"},{"type":"function","name":"vaultHub","inputs":[],"outputs":[{"name":"","type":"address","internalType":"contract IVaultHub"}],"stateMutability":"view"},{"type":"function","name":"vote","inputs":[{"name":"id","type":"uint256","internalType":"uint256"},{"name":"support","type":"bool","internalType":"bool"}],"outputs":[],"stateMutability":"nonpayable"},{"type":"function","name":"voterInfo","inputs":[{"name":"","type":"address","internalType":"address"}],"outputs":[{"name":"lastVoteTime","type":"uint256","internalType":"uint256"},{"name":"fatigue","type":"uint256","internalType":"uint256"}],"stateMutability":"view"},{"type":"function","name":"votingDelay","inputs":[],"outputs":[{"name":"","type":"uint64","internalType":"uint64"}],"stateMutability":"view"},{"type":"function","name":"votingPeriod","inputs":[],"outputs":[{"name":"","type":"uint64","internalType":"uint64"}],"stateMutability":"view"},{"type":"function","name":"withdrawProposal","inputs":[{"name":"id","type":"uint256","internalType":"uint256"}],"outputs":[],"stateMutability":"nonpayable"},{"type":"function","name":"withdrawnProposalHashes","inputs":[{"name":"","type":"bytes32","internalType":"bytes32"}],"outputs":[{"name":"","type":"bool","internalType":"bool"}],"stateMutability":"view"},{"type":"event","name":"AdminSet","inputs":[{"name":"admin","type":"address","indexed":false,"internalType":"address"}],"anonymous":false},{"type":"event","name":"DisputeFlagged","inputs":[{"name":"user","type":"address","indexed":true,"internalType":"address"},{"name":"caller","type":"address","indexed":true,"internalType":"address"},{"name":"reason","type":"string","indexed":false,"internalType":"string"}],"anonymous":false},{"type":"event","name":"Executed","inputs":[{"name":"id","type":"uint256","indexed":false,"internalType":"uint256"}],"anonymous":false},{"type":"event","name":"Finalized","inputs":[{"name":"id","type":"uint256","indexed":false,"internalType":"uint256"},{"name":"passed","type":"bool","indexed":false,"internalType":"bool"}],"anonymous":false},{"type":"event","name":"ModulesSet","inputs":[{"name":"timelock","type":"address","indexed":false,"internalType":"address"},{"name":"seer","type":"address","indexed":false,"internalType":"address"},{"name":"hub","type":"address","indexed":false,"internalType":"address"},{"name":"hooks","type":"address","indexed":false,"internalType":"address"},{"name":"council","type":"address","indexed":false,"internalType":"address"}],"anonymous":false},{"type":"event","name":"ParamsSet","inputs":[{"name":"votingPeriod","type":"uint64","indexed":false,"internalType":"uint64"},{"name":"minVotesRequired","type":"uint256","indexed":false,"internalType":"uint256"}],"anonymous":false},{"type":"event","name":"ProposalCreated","inputs":[{"name":"id","type":"uint256","indexed":false,"internalType":"uint256"},{"name":"proposer","type":"address","indexed":false,"internalType":"address"},{"name":"ptype","type":"uint8","indexed":false,"internalType":"enum DAO.ProposalType"},{"name":"target","type":"address","indexed":false,"internalType":"address"},{"name":"value","type":"uint256","indexed":false,"internalType":"uint256"},{"name":"data","type":"bytes","indexed":false,"internalType":"bytes"},{"name":"description","type":"string","indexed":false,"internalType":"string"}],"anonymous":false},{"type":"event","name":"ProposalStateChanged","inputs":[{"name":"id","type":"uint256","indexed":true,"internalType":"uint256"},{"name":"oldState","type":"string","indexed":false,"internalType":"string"},{"name":"newState","type":"string","indexed":false,"internalType":"string"}],"anonymous":false},{"type":"event","name":"ProposalWithdrawn","inputs":[{"name":"id","type":"uint256","indexed":false,"internalType":"uint256"},{"name":"proposer","type":"address","indexed":true,"internalType":"address"}],"anonymous":false},{"type":"event","name":"Queued","inputs":[{"name":"id","type":"uint256","indexed":false,"internalType":"uint256"},{"name":"timelockId","type":"bytes32","indexed":false,"internalType":"bytes32"}],"anonymous":false},{"type":"event","name":"VoteDelegated","inputs":[{"name":"delegator","type":"address","indexed":true,"internalType":"address"},{"name":"delegate","type":"address","indexed":true,"internalType":"address"}],"anonymous":false},{"type":"event","name":"Voted","inputs":[{"name":"id","type":"uint256","indexed":false,"internalType":"uint256"},{"name":"voter","type":"address","indexed":false,"internalType":"address"},{"name":"support","type":"bool","indexed":false,"internalType":"bool"}],"anonymous":false},{"type":"error","name":"DAO_AlreadyVoted","inputs":[]},{"type":"error","name":"DAO_NotAdmin","inputs":[]},{"type":"error","name":"DAO_NotEligible","inputs":[]},{"type":"error","name":"DAO_ProposalFlagged","inputs":[{"name":"reason","type":"string","internalType":"string"}]},{"type":"error","name":"DAO_UnknownProposal","inputs":[]},{"type":"error","name":"DAO_VoteEnded","inputs":[]},{"type":"error","name":"DAO_VoteNotStarted","inputs":[]}],"bytecode":{"object":"0x60803461021657601f612d9e38819003918201601f19168301916001600160401b0383118484101761021a5780849260a094604052833981010312610216576100478161022e565b906100546020820161022e565b6100606040830161022e565b9261007960806100726060860161022e565b940161022e565b60015f5560078054600160a01b600160e01b0319166107e960a71b179055600880546001600160401b031916620151801790556113886009556002600a556001600160a01b039091169182151580610204575b806101f2575b806101e0575b156101b557600180546001600160a01b031990811685179091556002805482166001600160a01b0393841690811790915560038054831697841697881790556004805483169684169687179055600580549092169390921692831790556040805191825260208083019690965281019390935260608301525f60808301527f8fe72c3e0020beb3234e76ae6676fa576fbfcae600af1c4fea44784cf0db329c92917f3676b3b8ddb712ee065be8fd22e137c8832e03de83c7fbccd82d6a1813f7b4d39060a090a1604051908152a1604051612b5b90816102438239f35b606460405162461bcd60e51b81526020600482015260046024820152637a65726f60e01b6044820152fd5b506001600160a01b03841615156100d8565b506001600160a01b03851615156100d2565b506001600160a01b03811615156100cc565b5f80fd5b634e487b7160e01b5f52604160045260245ffd5b51906001600160a01b03821682036102165756fe6080806040526004361015610012575f80fd5b5f905f3560e01c908163013cf08b146123e15750806302a251a3146123b557806305261aea14611f4f578063054fd2c214611f315780630eb0ff8a14611eb15780632d55ea3914611e885780633932abb114611e5f5780633ac01d3f14611dbd5780633b4d01a714611ccf578063401853b714611b5c578063403fb4a814611b3e5780634385963214611af1578063452a932014611ac85780634777cc2814611a9957806349348c7b14611a7d5780635584c4f91461191257806356397c35146118e95780635643591d146117a05780635bff3c23146116ae57806361a51f441461169057806366e305fd14611662578063699e63341461159d5780636dd6e80b14611574578063704b6c02146114ff5780638a0dac4a146114ba5780638d24e68d1461137c578063b079fbff14611268578063bb4d44361461111a578063be9f9e7914611090578063c9d27afe14610ba4578063cd090f7e1461062f578063cd7033c414610606578063cdf58d35146105c3578063d33219b41461059a578063da35c6641461057c578063e1f02ffa146102a7578063f6405119146101eb5763f851a440146101c0575f80fd5b346101e857806003193601126101e8576001546040516001600160a01b039091168152602090f35b80fd5b50346101e85760203660031901126101e8576004356102086128f6565b808252600c602052600560408320019081549060ff8260901c1680610299575b1561026e5760ff60881b19909116600160881b179091556040519081527fbcf6a68a2f901be4a23a41b53acd7697893a7e34def4e28acba584da75283b6790602090a180f35b60405162461bcd60e51b815260206004820152600360248201526218985960ea1b6044820152606490fd5b5060ff8260881c1615610228565b50346101e85760203660031901126101e857600435808252600c6020526040822080546001600160a01b0316330361054857600581015460ff8160881c16158061053a575b1561050157600881901c6001600160401b0316421080156104e8575b156104955761036b6103409161035d60ff9460018060a01b0360018201541660028201549060405196879560208701998a9116612605565b60408501526060840152608080840152600360a08401910161253d565b03601f1981018352826125be565b5190208252600d60205260408220600160ff19825416179055808252600c6020528160086040822082815582600182015582600282015582600382016103b18154612505565b80610453575b5050600482016103c78154612505565b80610411575b5050600582015582600682015582600782015501556040519081527f227963be52ff8a07c7da3b18de57749070333730ee5489bc9c414a467e5425cf60203392a280f35b601f81116001146104275750555b825f806103cd565b8183526020832061044391601f0160051c810190600101612841565b808252816020812091555561041f565b601f81116001146104695750555b825f806103b7565b8183526020832061048591601f0160051c810190600101612841565b8082528160208120915555610461565b60405162461bcd60e51b815260206004820152602560248201527f44414f3a2063616e6e6f7420776974686472617720616674657220766f7465736044820152640818d85cdd60da1b6064820152608490fd5b5060068201541580156103085750600782015415610308565b60405162461bcd60e51b8152602060048201526011602482015270105b1c9958591e481c1c9bd8d95cdcd959607a1b6044820152606490fd5b5060ff8160901c16156102ec565b60405162461bcd60e51b815260206004820152600c60248201526b2737ba10383937b837b9b2b960a11b6044820152606490fd5b50346101e857806003193601126101e8576020600b54604051908152f35b50346101e857806003193601126101e8576002546040516001600160a01b039091168152602090f35b50346101e85760203660031901126101e85760409081906001600160a01b036105ea612626565b168152600e602052206001815491015482519182526020820152f35b50346101e857806003193601126101e8576005546040516001600160a01b039091168152602090f35b50346101e85760a03660031901126101e85760043590600482101591826109705761065861263c565b60443591906064356001600160401b038111610ba05761067c903690600401612685565b906084356001600160401b038111610b9c5761069c903690600401612685565b9290936106a833612919565b15610b8d576001600160a01b0316958615801590610b81575b15610b46578315610b085760405160208101906106de8289612605565b8860408201528260608201526080808201526107028161035d60a0820187896127b4565b5190208852600d60205260ff604089205416610ab457610723600b54612735565b600b819055808952600c6020526040892080546001600160a01b03191633178155600581019a919891610aa0578a5460ff191660ff8916178b556001810180546001600160a01b031916831790556002810183905560038101906001600160401b038511610a8c5761079f856107998454612505565b84612857565b8a91858c601f8211600114610a225790806004956107d09391610a17575b508160011b915f199060031b1c19161790565b90555b01996001600160401b038611610a03576107f7866107f18d54612505565b8d612857565b89601f871160011461097f57926108e1989795928795928c9d610845885f516020612b065f395f51905f529e9f9b6108fc9961090a9d9161097457508160011b915f199060031b1c19161790565b90555b600854610862906001600160401b0390811690421661289c565b8154610100600160481b03600892831b16610100600160481b03198216811780855560075492939192600160481b600160881b03926108b4926001600160401b0360a09390931c831692911c1661289c565b60481b1691610100600160881b03191617179055604051998a998d8b523360208c015260408b0190612605565b6060890152608088015260e060a088015260e08701916127b4565b9184830360c08601526127b4565b0390a16007546001600160a01b03168061092a575b602082604051908152f35b8083913b1561097057819060446040518094819363e148e51360e01b83528760048401523360248401525af11561091f576109668380926125be565b610970578161091f565b5080fd5b90508b01355f6107bd565b9a601f198716818c5260208c20908c5b8181106109eb5750926108fc95926108e19b9a9895925f516020612b065f395f51905f529d9e9f8b61090a9c9a97106109d2575b5050600188811b019055610848565b8a01355f1960038b901b60f8161c191690555f806109c3565b8a8f0135835560209e8f019e6001909301920161098f565b634e487b7160e01b8a52604160045260248afd5b90508901355f6107bd565b82815260208120909490915087601f1981165b808710610a6e576004965010610a55575b5050600186811b0190556107d3565b8801355f19600389901b60f8161c191690555f80610a46565b8a830135845560209687019660019094019390920191899150610a35565b634e487b7160e01b8b52604160045260248bfd5b634e487b7160e01b8a52602160045260248afd5b60405162461bcd60e51b815260206004820152602660248201527f44414f3a2070726f706f73616c207761732070726576696f75736c792077697460448201526534323930bbb760d11b6064820152608490fd5b60405162461bcd60e51b81526020600482015260166024820152752220a79d1032b6b83a3c903232b9b1b934b83a34b7b760511b6044820152606490fd5b60405162461bcd60e51b8152602060048201526013602482015272111053ce881a5b9d985b1a59081d185c99d95d606a1b6044820152606490fd5b509750869785156106c1565b630593eb8f60e51b8852600488fd5b8680fd5b8480fd5b50346101e85760403660031901126101e85760043590602435801515810361097057610bce6128b5565b828252600c602052604082206005810154909390604881901c6001600160401b03168015801561107b575b61106c57600882901c6001600160401b0316421061105d5742101561104e57610c2133612919565b1561103f57600985019060018060a01b0333165f528160205260ff60405f2054166110305760ff8160881c16159081611021575b5015610fdc57335f90815260209190915260409020805460ff19166001179055600884018054610c8490612735565b9055338352600f60205260408320805490600160401b821015610fc85760018201808255821015610fb45784526020808520909101829055335f908152600a8601918290526040902054610f9f57600354604051630d47875d60e41b815233600482015290602090829060249082906001600160a01b03165afa908115610f94579061ffff918691610f65575b50169060018060a01b0333165f526020528060405f20555b338452600e6020526040842094855480610f03575b506001860195865480610ebd575b60058101809111610ea957869755429055835f14610e93576006610d7391019182546126f4565b90555b7ff2913dbe661ee2acc4a046d8fbcdc792373bda34c41c6086484b5345e5785e5f60405180610da785338684612820565b0390a16003546001600160a01b0316803b15610e75578380809260a460405180948193630eccbd3560e11b83523360048401526005602484015260606044840152600860648401526764616f5f766f746560c01b60848401525af1610e7a575b50506005546001600160a01b03169182610e24575b836001815580f35b823b15610e7557610e5092849283604051809681958294635b43b6eb60e11b8452339060048501612820565b03925af1610e60575b8080610e1c565b81610e6a916125be565b6101e857805f610e59565b505050fd5b81610e84916125be565b610e8f57825f610e07565b5050fd5b6007610ea291019182546126f4565b9055610d76565b634e487b7160e01b87526011600452602487fd5b92605a841115610efd57605a5b6064039060648211610ee957606491610ee291612722565b0492610d4c565b634e487b7160e01b88526011600452602488fd5b83610eca565b610f11620151809142612715565b04600581029080820460051490151715610f5157600187018054879290808210610f3f575050555b5f610d3e565b610f4a929350612715565b9055610f39565b634e487b7160e01b86526011600452602486fd5b610f87915060203d602011610f8d575b610f7f81836125be565b810190612806565b5f610d11565b503d610f75565b6040513d87823e3d90fd5b335f9081526020919091526040902054610d29565b634e487b7160e01b85526032600452602485fd5b634e487b7160e01b85526041600452602485fd5b60405162461bcd60e51b815260206004820152601f60248201527f44414f3a2070726f706f73616c20616c72656164792070726f636573736564006044820152606490fd5b60ff915060901c16155f610c55565b635cb81f2560e11b8552600485fd5b630593eb8f60e51b8452600484fd5b633d36b71560e11b8452600484fd5b63430ae12f60e11b8552600485fd5b634092c90360e01b8552600485fd5b50600882901c6001600160401b031615610bf9565b50346101e85760203660031901126101e8576001600160a01b036110b2612626565b168152600f60205260408120604051918260208354918281520192825260208220915b81811061110457611100856110ec818703826125be565b604051918291602083526020830190612652565b0390f35b82548452602090930192600192830192016110d5565b50346101e85760203660031901126101e857611134612626565b600354604051630d47875d60e41b81526001600160a01b039283166004820181905292909160209183916024918391165afa801561125d5761ffff91849161123e575b5016908252600e6020526040822060018101549054806111e9575b50605a8111156111e45750605a5b8060640392606484116111d0575060646111bc60609484612722565b049060405192835260208301526040820152f35b634e487b7160e01b81526011600452602490fd5b6111a0565b6111f7620151809142612715565b0460058102908082046005149015171561122a5781811061121c575050815b5f611192565b61122591612715565b611216565b634e487b7160e01b84526011600452602484fd5b611257915060203d602011610f8d57610f7f81836125be565b5f611177565b6040513d85823e3d90fd5b50346101e85760803660031901126101e857611282612626565b61128a61263c565b6044356001600160a01b038116929190839003611378576064356001600160a01b03811690819003610ba0577f3676b3b8ddb712ee065be8fd22e137c8832e03de83c7fbccd82d6a1813f7b4d39360a0936112e36128f6565b600180861b03169283151580611368575b8061135f575b611303906127d4565b600280545f196001881b018019918216871790925560038054821693909216928317909155600480548216841790556005805490911684179055604080519485526020850191909152830152606082015260808101849052a180f35b508115156112fa565b50600180861b03811615156112f4565b8380fd5b50346101e85760203660031901126101e857600435906001600160401b0382116101e857366023830112156101e8576004820135906001600160401b0382116101e8573660248360051b850101116101e8576113d78261275a565b926113e18361275a565b936113eb8461275a565b926113f58561275a565b92815b8681101561146c5760019060248160051b840101358452600c6020526005604085206006810154611429848961278c565b526007810154611439848d61278c565b520154611446828961278c565b60ff8260881c161515905260ff61145d838961278c565b9160901c1615159052016113f8565b61149084611100876114ac8a61149e8e604051978897608089526080890190612652565b908782036020890152612652565b9085820360408701526126b2565b9083820360608501526126b2565b50346101e85760203660031901126101e8576114d4612626565b6114dc6128f6565b600780546001600160a01b0319166001600160a01b039290921691909117905580f35b50346101e85760203660031901126101e8577f8fe72c3e0020beb3234e76ae6676fa576fbfcae600af1c4fea44784cf0db329c602061153c612626565b6115446128f6565b6001600160a01b03166115588115156127d4565b600180546001600160a01b03191682179055604051908152a180f35b50346101e857806003193601126101e8576004546040516001600160a01b039091168152602090f35b50346101e85760403660031901126101e8576115b7612626565b6024356001600160401b03811161165e576115d6903690600401612685565b90331561162857604051602080825233946001600160a01b0316937f056e1bd5f7fc2c28c23041f7aacdb2bfc91c128c382f46c02c89b9cfbac04fc893839261162292908401916127b4565b0390a380f35b60405162461bcd60e51b815260206004820152600e60248201526d24b73b30b634b21031b0b63632b960911b6044820152606490fd5b8280fd5b50346101e85760203660031901126101e8576020611686611681612626565b612919565b6040519015158152f35b50346101e857806003193601126101e8576020604051620151808152f35b50346101e85760203660031901126101e8576116c8612626565b819060018060a01b03168252600f602052604082206040518082602082945493848152019086526020862092865b81811061178757505061170b925003826125be565b5190600b54928315938415611738575b506080935060405192835280602084015260408301526060820152f35b90915061271083029383850461271014841517156117735761175f5760809304905f61171b565b634e487b7160e01b82526012600452602482fd5b634e487b7160e01b83526011600452602483fd5b84548352600194850194869450602090930192016116f6565b50346101e85760403660031901126101e8576004356001600160401b03811680820361165e57610e10602435926117d56128f6565b91106118e0575b6001600160401b03811662278d00811161189d57620f4240831161185f5760078054600160a01b600160e01b03191660a09390931b600160a01b600160e01b03169290921790915560098290556040805191825260208201929092527f03904376d24e01ffee2015c8f42bc52451ef52c4cbb442f7537c4902c97b61cb9190a180f35b60405162461bcd60e51b8152602060048201526016602482015275088829e7440dad2dcacdee8cae640e8dede40d0d2ced60531b6044820152606490fd5b60405162461bcd60e51b815260206004820152601b60248201527a44414f3a20766f74696e6720706572696f6420746f6f206c6f6e6760281b6044820152606490fd5b50610e106117dc565b50346101e857806003193601126101e8576006546040516001600160a01b039091168152602090f35b50346101e857806003193601126101e857600b548160015b828111156119ee575061193c9061275a565b918060015b8381111561195f576040516020808252819061110090820188612652565b80611995918352600c6020524260018060401b03600560408620015460481c1611806119d1575b806119b4575b61199a57612735565b611941565b806119ae6119a786612735565b958861278c565b52612735565b50808352600c60205260ff600560408520015460901c161561198c565b50808352600c60205260ff600560408520015460881c1615611986565b808452600c60205260408420600501544260489190911c6001600160401b03161180611a60575b80611a43575b611a2e575b611a2990612735565b61192a565b90611a3b611a2991612735565b919050611a20565b50808452600c60205260ff600560408620015460901c1615611a1b565b50808452600c60205260ff600560408620015460881c1615611a15565b50346101e857806003193601126101e857602060405160058152f35b50346101e85760203660031901126101e85760ff60406020926004358152600d84522054166040519015158152f35b50346101e857806003193601126101e8576007546040516001600160a01b039091168152602090f35b50346101e85760403660031901126101e85760096040611b0f61263c565b926004358152600c60205220019060018060a01b03165f52602052602060ff60405f2054166040519015158152f35b50346101e857806003193601126101e8576020600954604051908152f35b50346101e85760203660031901126101e8576004358152600c602052604081206005810154611c139291608882901c60ff1615611c3a57604051611ba16040826125be565b6008815267115e1958dd5d195960c21b6020820152925b6007600683015492015492611bcd84846126f4565b600954111593849384611c30575b505060481c6001600160401b031642811115611c2957611bfd91504290612715565b905b6040519485946080865260808601906125e1565b9260208501521515604084015260608301520390f35b5090611bff565b1192505f80611bdb565b60ff8260901c165f14611c6e57604051611c556040826125be565b6006815265145d595d595960d21b602082015292611bb8565b604882901c6001600160401b03164210611ca857604051611c906040826125be565b6005815264115b99195960da1b602082015292611bb8565b604051611cb66040826125be565b600681526541637469766560d01b602082015292611bb8565b50346101e85760203660031901126101e8576040906004358152600c6020522060018060a01b0381541660058201549160ff60018060a01b03600183015416936002830154611d71604051611d3281611d2b8160048a0161253d565b03826125be565b60076006870154960154926040519889988952611d5460208a01888816612605565b6040890152606088015261016060808801526101608701906125e1565b6001600160401b03600884901c811660a0880152604884901c1660c087015260e0860194909452610100850152608881901c8216151561012085015260901c1615156101408301520390f35b50346101e85760203660031901126101e857611dd7612626565b6001600160a01b03168152600e602052604081206001810154905491908215611e535762015180611e088442612715565b046005810290808204600514901517156117735760809381838110611e43575083925b60405194508452602084015260408301526060820152f35b611e4d9084612715565b92611e2b565b60809282908392611e2b565b50346101e857806003193601126101e8576008546040516001600160401b039091168152602090f35b50346101e857806003193601126101e8576003546040516001600160a01b039091168152602090f35b50346101e85760203660031901126101e857600435611ece6128f6565b600181101580611f26575b15611ee457600a5580f35b60405162461bcd60e51b815260206004820152601a6024820152792220a79d1034b73b30b634b2103830b93a34b1b4b830ba34b7b760311b6044820152606490fd5b506064811115611ed9565b50346101e857806003193601126101e8576020600a54604051908152f35b50346121fa5760203660031901126121fa5760043590611f6d6128b5565b815f52600c60205260405f206005810192835460018060401b038160481c16801580156123a0575b6123915742106123645760ff8160881c16159081612355575b501561232a576007546001600160a01b031680612219575b506006820154936007830154611fdc81876126f4565b60095411159586612208575b866121fe575b50506040805183815286151560208201527f82693b732f9696c8a914b820dd6c52544bd61b844bbd4c8707253df9340cf6b79190a16005546001600160a01b031694856121ae575b84955061204557836001815580f35b60018060a01b0360025416906120a16020600186019560018060a01b038754169460028201958987549160405196879586948593636fe05b7360e11b85526004850152602484015260606044840152600360648401910161253d565b03925af19081156121a3578691612160575b50815460ff60901b1916600160901b179091556040805184815260208101929092525f516020612ae65f395f51905f5291a16005546001600160a01b031692836120fe575b50610e1c565b549054926001600160a01b0390911690803b15610ba057849283606492604051968795869463e5b2f79b60e01b86526004860152602485015260448401525af161214b575b8080806120f8565b81612155916125be565b6101e857805f612143565b90506020813d60201161219b575b8161217b602093836125be565b8101031261219757515f516020612ae65f395f51905f526120b3565b8580fd5b3d915061216e565b6040513d88823e3d90fd5b853b156121fa5760405163717d8bc360e01b8152600481018490528115156024820152955f908790604490829084905af115612036579350935f6121f1916125be565b5f928490612036565b5f80fd5b1194505f80611fee565b6008850154600a5411159650611fe8565b5f6024916040519283809263e0df05b960e01b82528660048301525afa90811561231f575f905f92612275575b5015611fc65760405163911b86e360e01b8152602060048201529081906122719060248301906125e1565b0390fd5b9150503d805f833e61228781836125be565b8101906040818303126121fa5761229d816126e7565b602082015190916001600160401b0382116121fa570182601f820112156121fa578051906001600160401b03821161230b57604051936122e7601f8401601f1916602001866125be565b828552602083830101116121fa57815f9260208093018387015e840101525f612246565b634e487b7160e01b5f52604160045260245ffd5b6040513d5f823e3d90fd5b606460405162461bcd60e51b8152602060048201526004602482015263646f6e6560e01b6044820152fd5b60ff915060901c16155f611fae565b60405162461bcd60e51b81526020600482015260056024820152646561726c7960d81b6044820152606490fd5b634092c90360e01b5f5260045ffd5b50600882901c6001600160401b031615611f95565b346121fa575f3660031901126121fa5760075460405160a09190911c6001600160401b03168152602090f35b346121fa5760203660031901126121fa576004355f908152600c602052604090208054600182015460028301546001600160a01b0391821694929091169261243783612430816003850161253d565b03846125be565b604051926124538461244c816004860161253d565b03856125be565b60ff6124a560058401549561249760068601549460086007880154970154976040519b8c9b8c5260208c015260408b01526101a060608b01526101a08a01906125e1565b9088820360808a01526125e1565b946124b560a08801838316612605565b6001600160401b03600882901c811660c0890152604882901c1660e0880152608881901c8216151561010088015260901c1615156101208601526101408501526101608401526101808301520390f35b90600182811c92168015612533575b602083101461251f57565b634e487b7160e01b5f52602260045260245ffd5b91607f1691612514565b5f929181549161254c83612505565b80835292600181169081156125a1575060011461256857505050565b5f9081526020812093945091925b838310612587575060209250010190565b600181602092949394548385870101520191019190612576565b915050602093945060ff929192191683830152151560051b010190565b601f909101601f19168101906001600160401b0382119082101761230b57604052565b805180835260209291819084018484015e5f828201840152601f01601f1916010190565b9060048210156126125752565b634e487b7160e01b5f52602160045260245ffd5b600435906001600160a01b03821682036121fa57565b602435906001600160a01b03821682036121fa57565b90602080835192838152019201905f5b81811061266f5750505090565b8251845260209384019390920191600101612662565b9181601f840112156121fa578235916001600160401b0383116121fa57602083818601950101116121fa57565b90602080835192838152019201905f5b8181106126cf5750505090565b825115158452602093840193909201916001016126c2565b519081151582036121fa57565b9190820180921161270157565b634e487b7160e01b5f52601160045260245ffd5b9190820391821161270157565b8181029291811591840414171561270157565b5f1981146127015760010190565b6001600160401b03811161230b5760051b60200190565b9061276482612743565b61277160405191826125be565b8281528092612782601f1991612743565b0190602036910137565b80518210156127a05760209160051b010190565b634e487b7160e01b5f52603260045260245ffd5b908060209392818452848401375f828201840152601f01601f1916010190565b156127db57565b606460405162461bcd60e51b81526020600482015260046024820152637a65726f60e01b6044820152fd5b908160209103126121fa575161ffff811681036121fa5790565b9081526001600160a01b039091166020820152901515604082015260600190565b81811061284c575050565b5f8155600101612841565b9190601f811161286657505050565b612890925f5260205f20906020601f840160051c83019310612892575b601f0160051c0190612841565b565b9091508190612883565b6001600160401b03918216908216019190821161270157565b60015f54036128c45760025f55565b60405162461bcd60e51b815260206004820152600a6024820152697265656e7472616e637960b01b6044820152606490fd5b6001546001600160a01b0316330361290a57565b63b0c9b88560e01b5f5260045ffd5b60048054604051630709df4560e01b81526001600160a01b03938416928101839052919260209183916024918391165afa90811561231f575f91612aa3575b506001600160a01b031615612a64576007546001600160a01b031680612a2c575b50600354604051630d47875d60e41b815260048101929092526001600160a01b0316602082602481845afa91821561231f575f92612a07575b50602060049160405192838092634ccf04cf60e01b82525afa90811561231f5761ffff9182915f916129e8575b50169116101590565b612a01915060203d602011610f8d57610f7f81836125be565b5f6129df565b6004919250612a24602091823d8411610f8d57610f7f81836125be565b9291506129b2565b602060249160405192838092633dbacb8f60e01b82528660048301525afa90811561231f575f91612a69575b5015612a64575f612979565b505f90565b90506020813d602011612a9b575b81612a84602093836125be565b810103126121fa57612a95906126e7565b5f612a58565b3d9150612a77565b90506020813d602011612add575b81612abe602093836125be565b810103126121fa57516001600160a01b03811681036121fa575f612958565b3d9150612ab156fea2f0de3df8492190d09725d44059c2aa2f98905ef69bb7aa2fdc97e85afff236334e10103f2c922a8712870b48eda402331a41dae7facb36cf4c24756fffb68da2646970667358221220df516e19ce03d3f196a2e016fd11b841739d26905f313fe5dadb3d2a55831fea64736f6c634300081e0033","linkReferences":{}},"methodIdentifiers":{"FATIGUE_PER_VOTE()":"49348c7b","FATIGUE_RECOVERY_RATE()":"61a51f44","admin()":"f851a440","disputeFlag(address,string)":"699e6334","finalize(uint256)":"05261aea","getActiveProposals()":"5584c4f9","getFatigueInfo(address)":"3ac01d3f","getProposalDetails(uint256)":"3b4d01a7","getProposalStatus(uint256)":"401853b7","getProposalsBatch(uint256[])":"8d24e68d","getVoterHistory(address)":"be9f9e79","getVoterStats(address)":"5bff3c23","getVotingPower(address)":"bb4d4436","guardian()":"452a9320","hasVoted(uint256,address)":"43859632","hooks()":"cd7033c4","isEligible(address)":"66e305fd","ledger()":"56397c35","markExecuted(uint256)":"f6405119","minParticipation()":"054fd2c2","minVotesRequired()":"403fb4a8","proposalCount()":"da35c664","proposals(uint256)":"013cf08b","propose(uint8,address,uint256,bytes,string)":"cd090f7e","seer()":"2d55ea39","setAdmin(address)":"704b6c02","setGuardian(address)":"8a0dac4a","setMinParticipation(uint256)":"0eb0ff8a","setModules(address,address,address,address)":"b079fbff","setParams(uint64,uint256)":"5643591d","timelock()":"d33219b4","vaultHub()":"6dd6e80b","vote(uint256,bool)":"c9d27afe","voterInfo(address)":"cdf58d35","votingDelay()":"3932abb1","votingPeriod()":"02a251a3","withdrawProposal(uint256)":"e1f02ffa","withdrawnProposalHashes(bytes32)":"4777cc28"},"id":1}