{"abi":[{"type":"constructor","inputs":[{"name":"_admin","type":"address","internalType":"address"}],"stateMutability":"nonpayable"},{"type":"function","name":"EXPIRY_WINDOW","inputs":[],"outputs":[{"name":"","type":"uint64","internalType":"uint64"}],"stateMutability":"view"},{"type":"function","name":"admin","inputs":[],"outputs":[{"name":"","type":"address","internalType":"address"}],"stateMutability":"view"},{"type":"function","name":"cancel","inputs":[{"name":"id","type":"bytes32","internalType":"bytes32"}],"outputs":[],"stateMutability":"nonpayable"},{"type":"function","name":"cleanupExpired","inputs":[{"name":"id","type":"bytes32","internalType":"bytes32"}],"outputs":[],"stateMutability":"nonpayable"},{"type":"function","name":"delay","inputs":[],"outputs":[{"name":"","type":"uint64","internalType":"uint64"}],"stateMutability":"view"},{"type":"function","name":"execute","inputs":[{"name":"id","type":"bytes32","internalType":"bytes32"}],"outputs":[{"name":"res","type":"bytes","internalType":"bytes"}],"stateMutability":"payable"},{"type":"function","name":"getQueuedTransactions","inputs":[],"outputs":[{"name":"ids","type":"bytes32[]","internalType":"bytes32[]"},{"name":"targets","type":"address[]","internalType":"address[]"},{"name":"values","type":"uint256[]","internalType":"uint256[]"},{"name":"etas","type":"uint64[]","internalType":"uint64[]"},{"name":"done","type":"bool[]","internalType":"bool[]"},{"name":"expired","type":"bool[]","internalType":"bool[]"}],"stateMutability":"view"},{"type":"function","name":"getTransactionStatus","inputs":[{"name":"id","type":"bytes32","internalType":"bytes32"}],"outputs":[{"name":"queued","type":"bool","internalType":"bool"},{"name":"executed","type":"bool","internalType":"bool"},{"name":"expired","type":"bool","internalType":"bool"},{"name":"executable","type":"bool","internalType":"bool"},{"name":"eta","type":"uint64","internalType":"uint64"},{"name":"timeUntilExecutable","type":"uint256","internalType":"uint256"},{"name":"timeUntilExpiry","type":"uint256","internalType":"uint256"}],"stateMutability":"view"},{"type":"function","name":"ledger","inputs":[],"outputs":[{"name":"","type":"address","internalType":"contract IProofLedger"}],"stateMutability":"view"},{"type":"function","name":"nonce","inputs":[],"outputs":[{"name":"","type":"uint256","internalType":"uint256"}],"stateMutability":"view"},{"type":"function","name":"panicGuard","inputs":[],"outputs":[{"name":"","type":"address","internalType":"contract IPanicGuard"}],"stateMutability":"view"},{"type":"function","name":"previewETA","inputs":[],"outputs":[{"name":"","type":"uint64","internalType":"uint64"}],"stateMutability":"view"},{"type":"function","name":"queue","inputs":[{"name":"","type":"bytes32","internalType":"bytes32"}],"outputs":[{"name":"target","type":"address","internalType":"address"},{"name":"value","type":"uint256","internalType":"uint256"},{"name":"data","type":"bytes","internalType":"bytes"},{"name":"eta","type":"uint64","internalType":"uint64"},{"name":"done","type":"bool","internalType":"bool"}],"stateMutability":"view"},{"type":"function","name":"queueTx","inputs":[{"name":"target","type":"address","internalType":"address"},{"name":"value","type":"uint256","internalType":"uint256"},{"name":"data","type":"bytes","internalType":"bytes"}],"outputs":[{"name":"id","type":"bytes32","internalType":"bytes32"}],"stateMutability":"nonpayable"},{"type":"function","name":"queueTxWithTracking","inputs":[{"name":"target","type":"address","internalType":"address"},{"name":"value","type":"uint256","internalType":"uint256"},{"name":"data","type":"bytes","internalType":"bytes"}],"outputs":[{"name":"id","type":"bytes32","internalType":"bytes32"}],"stateMutability":"nonpayable"},{"type":"function","name":"requeueExpired","inputs":[{"name":"oldId","type":"bytes32","internalType":"bytes32"}],"outputs":[{"name":"newId","type":"bytes32","internalType":"bytes32"}],"stateMutability":"nonpayable"},{"type":"function","name":"setAdmin","inputs":[{"name":"_admin","type":"address","internalType":"address"}],"outputs":[],"stateMutability":"nonpayable"},{"type":"function","name":"setDelay","inputs":[{"name":"_delay","type":"uint64","internalType":"uint64"}],"outputs":[],"stateMutability":"nonpayable"},{"type":"function","name":"setLedger","inputs":[{"name":"_ledger","type":"address","internalType":"address"}],"outputs":[],"stateMutability":"nonpayable"},{"type":"function","name":"setPanicGuard","inputs":[{"name":"_pg","type":"address","internalType":"address"}],"outputs":[],"stateMutability":"nonpayable"},{"type":"event","name":"AdminSet","inputs":[{"name":"admin","type":"address","indexed":false,"internalType":"address"}],"anonymous":false},{"type":"event","name":"Cancelled","inputs":[{"name":"id","type":"bytes32","indexed":false,"internalType":"bytes32"}],"anonymous":false},{"type":"event","name":"DelaySet","inputs":[{"name":"delay","type":"uint64","indexed":false,"internalType":"uint64"}],"anonymous":false},{"type":"event","name":"Executed","inputs":[{"name":"id","type":"bytes32","indexed":false,"internalType":"bytes32"}],"anonymous":false},{"type":"event","name":"LedgerSet","inputs":[{"name":"ledger","type":"address","indexed":false,"internalType":"address"}],"anonymous":false},{"type":"event","name":"PanicGuardSet","inputs":[{"name":"panicGuard","type":"address","indexed":false,"internalType":"address"}],"anonymous":false},{"type":"event","name":"Queued","inputs":[{"name":"id","type":"bytes32","indexed":false,"internalType":"bytes32"},{"name":"target","type":"address","indexed":false,"internalType":"address"},{"name":"value","type":"uint256","indexed":false,"internalType":"uint256"},{"name":"data","type":"bytes","indexed":false,"internalType":"bytes"},{"name":"eta","type":"uint64","indexed":false,"internalType":"uint64"}],"anonymous":false},{"type":"error","name":"TL_AlreadyQueued","inputs":[]},{"type":"error","name":"TL_NotAdmin","inputs":[]},{"type":"error","name":"TL_NotQueued","inputs":[]},{"type":"error","name":"TL_TooEarly","inputs":[]}],"bytecode":{"object":"0x60803460d357601f611f1b38819003918201601f19168301916001600160401b0383118484101760d75780849260209460405283398101031260d357516001600160a01b0381169081900360d3575f54811560a4576001600160e01b03191681176102a360a81b175f556040519081527f8fe72c3e0020beb3234e76ae6676fa576fbfcae600af1c4fea44784cf0db329c90602090a1604051611e2f90816100ec8239f35b60405162461bcd60e51b8152602060048201526007602482015266061646d696e3d360cc1b6044820152606490fd5b5f80fd5b634e487b7160e01b5f52604160045260245ffdfe60806040526004361015610011575f80fd5b5f3560e01c8063098e63b6146117db5780630d23482b146117be5780632aaffe4f146115445780633246887d146114aa5780634a57eeac1461140657806356397c35146113de578063657ed048146110fb5780636a42b8f8146110d3578063704b6c02146110035780637bd2147c14610ca65780637c10dea614610c2357806384a21d5914610b8557806394407465146109dc57806397caceda146109b4578063affed0e014610997578063c1073302146108e4578063c4d252f51461084e578063dfc0b6e614610535578063e751f271146101205763f851a440146100f5575f80fd5b3461011c575f36600319011261011c575f546040516001600160a01b039091168152602090f35b5f80fd5b602036600319011261011c575f54600435906001600160a01b031633036104f057805f52600360205260405f206003810180546001600160401b03811680156104e15760ff8260401c166104d2576001600160401b0361017f82611a08565b16421161048d576002546001600160a01b03168015159081610423575b50156103e1576101b36001600160401b0391611a28565b1642106103af57600160401b905b68ff0000000000000000191617905580546001820154604051600290930180546001600160a01b0390931693925f916101f9826118d0565b91600181169081156103985750600114610366575b5050915f939181859403925af13d1561035e573d9061022c82611a87565b9161023a6040519384611923565b82523d5f602084013e5b1561032b578051602081146102c9575b507fa74c8847d513feba22a0f0cb38d53081abf97562cdb293926ba243689e7c41ca60206102c593604051908152a16102b1604051610294604082611923565b600b81526a1d1b17d95e1958dd5d195960aa1b6020820152611d4f565b6040519182916020835260208301906119e4565b0390f35b60206102db9183010160208301611d08565b156102e65782610254565b60405162461bcd60e51b815260206004820152601760248201527f544c3a2063616c6c2072657475726e65642066616c73650000000000000000006044820152606490fd5b60405162461bcd60e51b815260206004820152600b60248201526a195e1958c819985a5b195960aa1b6044820152606490fd5b606090610244565b9091505f5260205f205f905b8282106103845750508201818361020e565b600181602092548488015201910190610372565b60ff1916865250508015150283019050818361020e565b60405162461bcd60e51b815260206004820152600a6024820152697269736b2064656c617960b01b6044820152606490fd5b42106103f257600160401b906101c1565b60405162461bcd60e51b8152602060048201526009602482015268746f6f206561726c7960b81b6044820152606490fd5b604051636b943da560e01b81529150602090829060049082905afa908115610482575f91610453575b508661019c565b610475915060203d60201161047b575b61046d8183611923565b810190611d08565b8661044c565b503d610463565b6040513d5f823e3d90fd5b60405162461bcd60e51b815260206004820152601760248201527f544c3a207472616e73616374696f6e20657870697265640000000000000000006044820152606490fd5b633bbcd16560e11b5f5260045ffd5b6346db2d5560e01b5f5260045ffd5b60405162461bcd60e51b815260206004820152601a60248201527f544c3a206f6e6c792061646d696e2063616e20657865637574650000000000006044820152606490fd5b3461011c5761054336611834565b929161054d611d2d565b61056d6001600160401b035f5460a01c166001600160401b034216611a47565b60045493905f19851461083a5760018501600455604080516001600160a01b0384166020820181815292820186905260a060608301529791906105dc816105b860c08201868b611a67565b6001600160401b0387169a8b608084015260a083015203601f198101835282611923565b51902094855f5260036020526001600160401b03600360405f2001541661082b576040519761060a89611908565b8852602088019685885261061f368484611aa2565b60408a810191825260608b019283525f60808c018181528a825260036020529190209a518b546001600160a01b0319166001600160a01b0391909116178b55985160018b01555180519099909890600281016001600160401b038b116108175760209b61068c82546118d0565b8c601f82116107dc575b50508c90601f8d116001146107545761072e989796959361072195936106ed5f516020611dba5f395f51905f529e9f806001600160401b03966003965f92610749575b50508160011b915f199060031b1c19161790565b90555b019251166001600160401b031983541617825551151560ff60401b825491151560401b169060ff60401b1916179055565b6040519586958987611b1a565b0390a161074161073c611b5b565b611d4f565b604051908152f35b015190505f806106d9565b90601f198d1691835f52815f20925f5b8181106107c457509360015f516020611dba5f395f51905f529e9f6001600160401b039560039561072e9e9d9c9b9995836107219c9a106107ad575b505050811b0190556106f0565b01515f1983881b60f8161c191690555f80806107a0565b92936020600181928786015181550195019301610764565b61080691845f528f5f20906020601f840160051c8301931061080d575b601f0160051c0190611ad8565b8d8c610696565b90915081906107f9565b634e487b7160e01b5f52604160045260245ffd5b63046853ff60e31b5f5260045ffd5b634e487b7160e01b5f52601160045260245ffd5b3461011c57602036600319011261011c5760043561086a611d2d565b805f5260036020526001600160401b03600360405f20015416156104e1576020815f516020611dda5f395f51905f52925f52600382526108ac60405f20611c40565b604051908152a16108e26040516108c4604082611923565b600c81526b1d1b17d8d85b98d95b1b195960a21b6020820152611d4f565b005b3461011c57602036600319011261011c576004356001600160401b0381169081810361011c577fc03c652cce63e6a4eb932e2608f14d717836f14b42a735017b4fbbdc5b5da27e91602091610937611d2d565b5f805467ffffffffffffffff60a01b191660a09290921b67ffffffffffffffff60a01b16919091179055604051908152a16108e2604051610979604082611923565b600c81526b1d1b17d9195b185e57dcd95d60a21b6020820152611d4f565b3461011c575f36600319011261011c576020600454604051908152f35b3461011c575f36600319011261011c576002546040516001600160a01b039091168152602090f35b3461011c57602036600319011261011c575f5f905f915f5f916004355f526003602052600360405f200154936001600160401b03851660ff8115159660401c16908680610b7d575b610a65575b509160e096916001600160401b039360405197885215156020880152151560408701521515606086015216608084015260a083015260c0820152f35b965093505050506001600160401b03610a7d84611a08565b60025491164211939081906001600160a01b03168015159081610b1e575b5060e0956001600160401b03929115610b175782610ab885611a28565b16908142101591828093610b0f575b9215610aff57505f5b948115610ae557505f5b959193509196610a29565b610afa9085610af44292611a08565b16611d20565b610ada565b610b0a904290611d20565b610ad0565b508115610ac7565b8284610ab8565b604051636b943da560e01b8152929150602090839060049082905afa9586156104825760e0966001600160401b03935f91610b5e575b5091925095610a9b565b610b77915060203d60201161047b5761046d8183611923565b88610b54565b508115610a24565b3461011c57602036600319011261011c577f25e46ed2283db36e0b32a55d1c3522479350050a96365f5d2344b3e66b25f99d6020610bc161181e565b610bc9611d2d565b600280546001600160a01b0319166001600160a01b03929092169182179055604051908152a16108e2604051610c00604082611923565b60118152701d1b17dc185b9a58d9dd585c9917dcd95d607a1b6020820152611d4f565b3461011c57602036600319011261011c576004355f52600360205260405f2060018060a01b0381541660018201549160ff610c876003610c6560028501611944565b930154926040519586958652602086015260a0604086015260a08501906119e4565b916001600160401b038116606085015260401c16151560808301520390f35b3461011c57602036600319011261011c57600435610cc2611d2d565b805f52600360205260405f2090610d0d6001600160401b03610d056003850154610d0060ff84831692610cf6841515611b82565b60401c1615611bbf565b611a08565b164211611c02565b60018060a01b03825416610d28600260018501549401611944565b92825f526003602052610d3d60405f20611c40565b610d5d6001600160401b035f5460a01c166001600160401b034216611a47565b91604051602081019082825283604082015260806060820152610da6816001600160401b03610d8f60a083018b6119e4565b97169687608083015203601f198101835282611923565b51902092835f5260036020526001600160401b03600360405f20015416610fc95760405195610dd487611908565b82875260208088018581526040808a0184815260608b018681525f60808d018181528b82526003909652929092209a518b546001600160a01b0319166001600160a01b0391909116178b55915160018b01559051805190999192919060028201906001600160401b0381116108175760209b610e5083546118d0565b601f8111610f9a575b508c90601f8311600114610f1c57946001600160401b0360038f965f516020611dba5f395f51905f529e9f966106ed87610ebc98610ee69e9d985f516020611dda5f395f51905f529d5f926107495750508160011b915f199060031b1c19161790565b604051908152a160405194859488865289860152604085015260a0606085015260a08401906119e4565b9060808301520390a1610741604051610f00604082611923565b600b81526a1d1b17dc995c5d595d595960aa1b84820152611d4f565b90601f19831691845f52815f20925f5b818110610f8257508f965f516020611dba5f395f51905f529e9f96600187610ee69d9c975f516020611dda5f395f51905f529c976001600160401b0397610ebc9b600398106107ad57505050811b0190556106f0565b92936020600181928786015181550195019301610f2c565b610fc390845f528e5f20601f850160051c8101916020861061080d57601f0160051c0190611ad8565b8d610e59565b60405162461bcd60e51b815260206004820152601260248201527115130e88185b1c9958591e481c5d595d595960721b6044820152606490fd5b3461011c57602036600319011261011c5761101c61181e565b611024611d2d565b6001600160a01b031680156110a4576020817f8fe72c3e0020beb3234e76ae6676fa576fbfcae600af1c4fea44784cf0db329c926bffffffffffffffffffffffff60a01b5f5416175f55604051908152a16108e2604051611086604082611923565b600c81526b1d1b17d8591b5a5b97dcd95d60a21b6020820152611d4f565b60405162461bcd60e51b8152602060048201526007602482015266061646d696e3d360cc1b6044820152606490fd5b3461011c575f36600319011261011c5760206001600160401b035f5460a01c16604051908152f35b3461011c575f36600319011261011c5760055461111781611cab565b6111246040519182611923565b81815261113082611cab565b602082019290601f190136843761114681611cab565b926111546040519485611923565b81845261116082611cab565b602085019190601f190136833761117683611cab565b916111846040519384611923565b83835261119084611cab565b602084019190601f19013683376111a685611cab565b906111b46040519283611923565b8582526111c086611cab565b602083019590601f19013687376111d687611cc2565b946111e088611cc2565b975f5b818110611307575050604051998a9960c08b019060c08c525180915260e08b0192905f5b8181106112ee575050506020908a8303828c015251918281520192905f5b8181106112cc5750505060209088830360408a015251918281520192905f5b8181106112b357505050602090868303606088015251918281520192905f5b818110611291575050508161128391856102c5959403608087015261189b565b9083820360a085015261189b565b82516001600160401b0316855287965060209485019490920191600101611263565b8251855289985060209485019490920191600101611244565b82516001600160a01b031685528b9a5060209485019490920191600101611225565b825185528d9c5060209485019490920191600101611207565b808a81888e9f969798999a9b9c9d9e61138a838f600360ff948e61132c60019c611aee565b905490841b1c805f52836020526113478660405f2094611cf4565b528d61135c868e8060a01b0385541692611cf4565b5261136b858d84015492611cf4565b520154946113846001600160401b038716978892611cf4565b52611cf4565b9160401c16151590528281151591826113bf575b506113a99192611cf4565b9015159052019a9998979695949392919a6111e3565b6113a992506113d56001600160401b0391611a08565b1642119161139e565b3461011c575f36600319011261011c576001546040516001600160a01b039091168152602090f35b3461011c57602036600319011261011c575f516020611dda5f395f51905f526020600435805f526003825261145b6001600160401b03610d05600360405f200154610d0060ff84831692610cf6841515611b82565b805f526003825261146e60405f20611c40565b604051908152a16108e2604051611486604082611923565b60128152711d1b17d8db19585b9d5c17d95e1c1a5c995960721b6020820152611d4f565b3461011c57602036600319011261011c577fbc62e69a31739e36d57d56991ac20e4e507a7edfff9070e6a11df5a37b8b4e6f60206114e661181e565b6114ee611d2d565b600180546001600160a01b0319166001600160a01b03929092169182179055604051908152a16108e2604051611525604082611923565b600d81526c1d1b17db195919d95c97dcd95d609a1b6020820152611d4f565b3461011c5761155236611834565b929161155c611d2d565b61157c6001600160401b035f5460a01c166001600160401b034216611a47565b604080516001600160a01b03861660208201818152928201859052608060608301529592916115af60a083018988611a67565b916115d3816001600160401b0386169485608083015203601f198101835282611923565b51902095865f5260036020526001600160401b03600360405f2001541661082b576040519061160182611908565b81526020810190858252611616368a89611aa2565b6040828101918252606083019485525f608084018181528b82526003602052919020925183546001600160a01b0319166001600160a01b03919091161783559251600183015551805160028301916001600160401b0382116108175761167c83546118d0565b601f811161178e575b50602090601f831160011461171c57926106ed836003946116c6999897946001600160401b03975f926107495750508160011b915f199060031b1c19161790565b60055490600160401b821015610817576020965f516020611dba5f395f51905f52956116fb84600161072e9601600555611aee565b81549060031b908a821b915f19901b19161790556040519586958987611b1a565b90601f19831691845f52815f20925f5b8181106117765750936116c6989796936001600160401b039693600193836003981061175f57505050811b0190556106f0565b01515f1983881b60f8161c191690558f80806107a0565b9293602060018192878601518155019501930161172c565b6117b890845f5260205f20601f850160051c8101916020861061080d57601f0160051c0190611ad8565b8c611685565b3461011c575f36600319011261011c57602060405162093a808152f35b3461011c575f36600319011261011c57602061180d6001600160401b035f5460a01c166001600160401b034216611a47565b6001600160401b0360405191168152f35b600435906001600160a01b038216820361011c57565b90606060031983011261011c576004356001600160a01b038116810361011c5791602435916044356001600160401b03811161011c578260238201121561011c578060040135926001600160401b03841161011c576024848301011161011c576024019190565b90602080835192838152019201905f5b8181106118b85750505090565b825115158452602093840193909201916001016118ab565b90600182811c921680156118fe575b60208310146118ea57565b634e487b7160e01b5f52602260045260245ffd5b91607f16916118df565b60a081019081106001600160401b0382111761081757604052565b90601f801991011681019081106001600160401b0382111761081757604052565b9060405191825f825492611957846118d0565b80845293600181169081156119c2575060011461197e575b5061197c92500383611923565b565b90505f9291925260205f20905f915b8183106119a657505090602061197c928201015f61196f565b602091935080600191548385890101520191019091849261198d565b90506020925061197c94915060ff191682840152151560051b8201015f61196f565b805180835260209291819084018484015e5f828201840152601f01601f1916010190565b6001600160401b0362093a80911601906001600160401b03821161083a57565b6001600160401b03615460911601906001600160401b03821161083a57565b906001600160401b03809116911601906001600160401b03821161083a57565b908060209392818452848401375f828201840152601f01601f1916010190565b6001600160401b03811161081757601f01601f191660200190565b929192611aae82611a87565b91611abc6040519384611923565b82948184528183011161011c578281602093845f960137010152565b818110611ae3575050565b5f8155600101611ad8565b600554811015611b065760055f5260205f2001905f90565b634e487b7160e01b5f52603260045260245ffd5b946001600160401b0393611b549360809693999899885260018060a01b03166020880152604087015260a0606087015260a0860191611a67565b9416910152565b60405190611b6a604083611923565b60098252681d1b17dc5d595d595960ba1b6020830152565b15611b8957565b60405162461bcd60e51b815260206004820152600e60248201526d15130e881b9bdd081c5d595d595960921b6044820152606490fd5b15611bc657565b60405162461bcd60e51b815260206004820152601460248201527315130e88185b1c9958591e48195e1958dd5d195960621b6044820152606490fd5b15611c0957565b60405162461bcd60e51b815260206004820152600f60248201526e15130e881b9bdd08195e1c1a5c9959608a1b6044820152606490fd5b60035f9182815582600182015560028101611c5b81546118d0565b9081611c68575b50500155565b81601f869311600114611c7f5750555b5f80611c62565b81835260208320611c9b91601f0160051c810190600101611ad8565b8082528160208120915555611c78565b6001600160401b0381116108175760051b60200190565b90611ccc82611cab565b611cd96040519182611923565b8281528092611cea601f1991611cab565b0190602036910137565b8051821015611b065760209160051b010190565b9081602091031261011c5751801515810361011c5790565b9190820391821161083a57565b5f546001600160a01b03163303611d4057565b63654932c960e01b5f5260045ffd5b6001546001600160a01b031680611d64575050565b803b1561011c57604051633ddd61ab60e21b815230600482015260606024820152915f918391829084908290611d9e9060648301906119e4565b33604483015203925af1611daf5750565b5f61197c9161192356fea49aa71c414d3b2f375740b6d1ccdc410c42f80840028dc6866aa69b260d66a8baa1eb22f2a492ba1a5fea61b8df4d27c6c8b5f3971e63bb58fa14ff72eedb70a264697066735822122043b18ab24fdf5d8a2cc22613a09e988d1b8edcc01740b217898ce7bdb030bfff64736f6c634300081e0033","linkReferences":{}},"methodIdentifiers":{"EXPIRY_WINDOW()":"0d23482b","admin()":"f851a440","cancel(bytes32)":"c4d252f5","cleanupExpired(bytes32)":"4a57eeac","delay()":"6a42b8f8","execute(bytes32)":"e751f271","getQueuedTransactions()":"657ed048","getTransactionStatus(bytes32)":"94407465","ledger()":"56397c35","nonce()":"affed0e0","panicGuard()":"97caceda","previewETA()":"098e63b6","queue(bytes32)":"7c10dea6","queueTx(address,uint256,bytes)":"dfc0b6e6","queueTxWithTracking(address,uint256,bytes)":"2aaffe4f","requeueExpired(bytes32)":"7bd2147c","setAdmin(address)":"704b6c02","setDelay(uint64)":"c1073302","setLedger(address)":"3246887d","setPanicGuard(address)":"84a21d59"},"id":6}