{"abi":[{"type":"constructor","inputs":[{"name":"_admin","type":"address","internalType":"address"}],"stateMutability":"nonpayable"},{"type":"function","name":"EXPIRY_WINDOW","inputs":[],"outputs":[{"name":"","type":"uint64","internalType":"uint64"}],"stateMutability":"view"},{"type":"function","name":"MAX_DELAY","inputs":[],"outputs":[{"name":"","type":"uint64","internalType":"uint64"}],"stateMutability":"view"},{"type":"function","name":"MIN_DELAY","inputs":[],"outputs":[{"name":"","type":"uint64","internalType":"uint64"}],"stateMutability":"view"},{"type":"function","name":"admin","inputs":[],"outputs":[{"name":"","type":"address","internalType":"address"}],"stateMutability":"view"},{"type":"function","name":"cancel","inputs":[{"name":"id","type":"bytes32","internalType":"bytes32"}],"outputs":[],"stateMutability":"nonpayable"},{"type":"function","name":"cleanupExpired","inputs":[{"name":"id","type":"bytes32","internalType":"bytes32"}],"outputs":[],"stateMutability":"nonpayable"},{"type":"function","name":"delay","inputs":[],"outputs":[{"name":"","type":"uint64","internalType":"uint64"}],"stateMutability":"view"},{"type":"function","name":"execute","inputs":[{"name":"id","type":"bytes32","internalType":"bytes32"}],"outputs":[{"name":"res","type":"bytes","internalType":"bytes"}],"stateMutability":"payable"},{"type":"function","name":"getQueuedTransactions","inputs":[],"outputs":[{"name":"ids","type":"bytes32[]","internalType":"bytes32[]"},{"name":"targets","type":"address[]","internalType":"address[]"},{"name":"values","type":"uint256[]","internalType":"uint256[]"},{"name":"etas","type":"uint64[]","internalType":"uint64[]"},{"name":"done","type":"bool[]","internalType":"bool[]"},{"name":"expired","type":"bool[]","internalType":"bool[]"}],"stateMutability":"view"},{"type":"function","name":"getTransactionStatus","inputs":[{"name":"id","type":"bytes32","internalType":"bytes32"}],"outputs":[{"name":"queued","type":"bool","internalType":"bool"},{"name":"executed","type":"bool","internalType":"bool"},{"name":"expired","type":"bool","internalType":"bool"},{"name":"executable","type":"bool","internalType":"bool"},{"name":"eta","type":"uint64","internalType":"uint64"},{"name":"timeUntilExecutable","type":"uint256","internalType":"uint256"},{"name":"timeUntilExpiry","type":"uint256","internalType":"uint256"}],"stateMutability":"view"},{"type":"function","name":"ledger","inputs":[],"outputs":[{"name":"","type":"address","internalType":"contract IProofLedger"}],"stateMutability":"view"},{"type":"function","name":"nonce","inputs":[],"outputs":[{"name":"","type":"uint256","internalType":"uint256"}],"stateMutability":"view"},{"type":"function","name":"panicGuard","inputs":[],"outputs":[{"name":"","type":"address","internalType":"contract IPanicGuard"}],"stateMutability":"view"},{"type":"function","name":"previewETA","inputs":[],"outputs":[{"name":"","type":"uint64","internalType":"uint64"}],"stateMutability":"view"},{"type":"function","name":"queue","inputs":[{"name":"","type":"bytes32","internalType":"bytes32"}],"outputs":[{"name":"target","type":"address","internalType":"address"},{"name":"value","type":"uint256","internalType":"uint256"},{"name":"data","type":"bytes","internalType":"bytes"},{"name":"eta","type":"uint64","internalType":"uint64"},{"name":"done","type":"bool","internalType":"bool"}],"stateMutability":"view"},{"type":"function","name":"queueTx","inputs":[{"name":"target","type":"address","internalType":"address"},{"name":"value","type":"uint256","internalType":"uint256"},{"name":"data","type":"bytes","internalType":"bytes"}],"outputs":[{"name":"id","type":"bytes32","internalType":"bytes32"}],"stateMutability":"nonpayable"},{"type":"function","name":"queueTxWithTracking","inputs":[{"name":"target","type":"address","internalType":"address"},{"name":"value","type":"uint256","internalType":"uint256"},{"name":"data","type":"bytes","internalType":"bytes"}],"outputs":[{"name":"id","type":"bytes32","internalType":"bytes32"}],"stateMutability":"nonpayable"},{"type":"function","name":"requeueExpired","inputs":[{"name":"oldId","type":"bytes32","internalType":"bytes32"}],"outputs":[{"name":"newId","type":"bytes32","internalType":"bytes32"}],"stateMutability":"nonpayable"},{"type":"function","name":"setAdmin","inputs":[{"name":"_admin","type":"address","internalType":"address"}],"outputs":[],"stateMutability":"nonpayable"},{"type":"function","name":"setDelay","inputs":[{"name":"_delay","type":"uint64","internalType":"uint64"}],"outputs":[],"stateMutability":"nonpayable"},{"type":"function","name":"setLedger","inputs":[{"name":"_ledger","type":"address","internalType":"address"}],"outputs":[],"stateMutability":"nonpayable"},{"type":"function","name":"setPanicGuard","inputs":[{"name":"_pg","type":"address","internalType":"address"}],"outputs":[],"stateMutability":"nonpayable"},{"type":"event","name":"AdminSet","inputs":[{"name":"admin","type":"address","indexed":false,"internalType":"address"}],"anonymous":false},{"type":"event","name":"Cancelled","inputs":[{"name":"id","type":"bytes32","indexed":false,"internalType":"bytes32"}],"anonymous":false},{"type":"event","name":"DelaySet","inputs":[{"name":"delay","type":"uint64","indexed":false,"internalType":"uint64"}],"anonymous":false},{"type":"event","name":"Executed","inputs":[{"name":"id","type":"bytes32","indexed":false,"internalType":"bytes32"}],"anonymous":false},{"type":"event","name":"GracePeriodExpired","inputs":[{"name":"id","type":"bytes32","indexed":false,"internalType":"bytes32"}],"anonymous":false},{"type":"event","name":"LedgerSet","inputs":[{"name":"ledger","type":"address","indexed":false,"internalType":"address"}],"anonymous":false},{"type":"event","name":"PanicGuardSet","inputs":[{"name":"panicGuard","type":"address","indexed":false,"internalType":"address"}],"anonymous":false},{"type":"event","name":"Queued","inputs":[{"name":"id","type":"bytes32","indexed":false,"internalType":"bytes32"},{"name":"target","type":"address","indexed":false,"internalType":"address"},{"name":"value","type":"uint256","indexed":false,"internalType":"uint256"},{"name":"data","type":"bytes","indexed":false,"internalType":"bytes"},{"name":"eta","type":"uint64","indexed":false,"internalType":"uint64"}],"anonymous":false},{"type":"error","name":"TL_AlreadyQueued","inputs":[]},{"type":"error","name":"TL_NotAdmin","inputs":[]},{"type":"error","name":"TL_NotQueued","inputs":[]},{"type":"error","name":"TL_TooEarly","inputs":[]}],"bytecode":{"object":"0x60803460d357601f61204538819003918201601f19168301916001600160401b0383118484101760d75780849260209460405283398101031260d357516001600160a01b0381169081900360d3575f54811560a4576001600160e01b03191681176102a360a81b175f556040519081527f8fe72c3e0020beb3234e76ae6676fa576fbfcae600af1c4fea44784cf0db329c90602090a1604051611f5990816100ec8239f35b60405162461bcd60e51b8152602060048201526007602482015266061646d696e3d360cc1b6044820152606490fd5b5f80fd5b634e487b7160e01b5f52604160045260245ffdfe60806040526004361015610011575f80fd5b5f3560e01c8063098e63b6146101745780630d23482b1461016f5780632aaffe4f1461016a5780633246887d146101655780634125ff90146101605780634a57eeac1461015b57806356397c3514610156578063657ed048146101515780636a42b8f81461014c578063704b6c02146101475780637bd2147c146101425780637c10dea61461013d57806384a21d5914610138578063944074651461013357806397caceda1461012e5780639f81aed714610129578063affed0e014610124578063c10733021461011f578063c4d252f51461011a578063dfc0b6e614610115578063e751f271146101105763f851a4401461010b575f80fd5b6114b3565b6111f2565b61112b565b61107b565b610f7e565b610f61565b610f45565b610f1d565b610d4c565b610cae565b610c31565b61092e565b610879565b610851565b6106e7565b610543565b61049c565b61046d565b6103d1565b610255565b6101bb565b346101b7575f3660031901126101b75760206101a66001600160401b035f5460a01c166001600160401b034216611532565b6001600160401b0360405191168152f35b5f80fd5b346101b7575f3660031901126101b757602060405162093a808152f35b600435906001600160a01b03821682036101b757565b9060606003198301126101b7576004356001600160a01b03811681036101b75791602435916044356001600160401b0381116101b757826023820112156101b7578060040135926001600160401b0384116101b757602484830101116101b7576024019190565b346101b757610263366101ee565b909161026d611e8c565b5f5461028f9060a01c6001600160401b03165b6001600160401b034216611532565b936004546102a461029f82611552565b600455565b6040516102cc816102be60208201948a898b8a8a8a611580565b03601f198101835282610b47565b519020936001600160401b036102fd60036102ef885f52600360205260405f2090565b01546001600160401b031690565b166103c2576103be957fa49aa71c414d3b2f375740b6d1ccdc410c42f80840028dc6866aa69b260d66a89461039b926103856103376115c0565b6001600160a01b03871681528760208201526103543685856115ea565b60408201526001600160401b03851660608201525f60808201526103808a5f52600360205260405f2090565b611679565b61038e8861181c565b6040519586958987611865565b0390a16103ae6103a96118a6565b611eae565b6040519081529081906020820190565b0390f35b63046853ff60e31b5f5260045ffd5b346101b75760203660031901126101b7577fbc62e69a31739e36d57d56991ac20e4e507a7edfff9070e6a11df5a37b8b4e6f602061040d6101d8565b610415611e8c565b600180546001600160a01b0319166001600160a01b03929092169182179055604051908152a161046b60405161044c604082610b47565b600d81526c1d1b17db195919d95c97dcd95d609a1b6020820152611eae565b005b346101b7575f3660031901126101b757602060405162278d008152f35b60209060031901126101b75760043590565b346101b7577fbaa1eb22f2a492ba1a5fea61b8df4d27c6c8b5f3971e63bb58fa14ff72eedb706104cb3661048a565b805f5260036020526105146001600160401b0361050c600360405f20015461050760ff848316926104fd8415156118cd565b60401c161561190a565b6114ee565b16421161194d565b61052e610529825f52600360205260405f2090565b61198b565b604051908152602090a161046b6103a9611a06565b346101b7575f3660031901126101b7576001546040516001600160a01b039091168152602090f35b90602080835192838152019201905f5b8181106105885750505090565b82516001600160a01b031684526020938401939092019160010161057b565b90602080835192838152019201905f5b8181106105c45750505090565b82518452602093840193909201916001016105b7565b90602080835192838152019201905f5b8181106105f75750505090565b82516001600160401b03168452602093840193909201916001016105ea565b90602080835192838152019201905f5b8181106106335750505090565b82511515845260209384019390920191600101610626565b9492909695939160c0860160c087528851809152602060e088019901905f5b8181106106d157505050916106a46106b2926106968a6106c097968a6106ce9c9d0360208c015261056b565b9088820360408a01526105a7565b9086820360608801526105da565b908482036080860152610616565b9160a0818403910152610616565b90565b82518b5260209a8b019a9092019160010161066a565b346101b7575f3660031901126101b75760055461070381611a4d565b61070c82611a4d565b9061071683611a4d565b9261072081611a4d565b61072982611a4d565b9061073383611a4d565b925f5b81811061074f5750506040519586956103be958761064b565b80610829600361076d6107636001956117ff565b90549060031b1c90565b61077f815f52600360205260405f2090565b9061078a858c611a7f565b5280546107b3906001600160a01b03166107a4868e611a7f565b6001600160a01b039091169052565b808501546107c1858e611a7f565b52015461080b6107fa6001600160401b038316926107f1846107e3888c611a7f565b906001600160401b03169052565b60401c60ff1690565b610804858a611a7f565b9015159052565b6001600160401b0381161515908161082f575b506108048389611a7f565b01610736565b610849915061083d906114ee565b6001600160401b031690565b42115f61081e565b346101b7575f3660031901126101b75760206001600160401b035f5460a01c16604051908152f35b346101b75760203660031901126101b7576108926101d8565b61089a611e8c565b6001600160a01b03811680156108ff575f80546001600160a01b0319169190911790556040516001600160a01b039190911681527f8fe72c3e0020beb3234e76ae6676fa576fbfcae600af1c4fea44784cf0db329c90602090a161046b6103a9611a93565b60405162461bcd60e51b8152602060048201526007602482015266061646d696e3d360cc1b6044820152606490fd5b346101b7576103be6102ef7fa49aa71c414d3b2f375740b6d1ccdc410c42f80840028dc6866aa69b260d66a860026109653661048a565b61096d611e8c565b610aed610982825f52600360205260405f2090565b6109ce6109c761083d60038401546105076109c26109be6109a9846001600160401b031690565b936107f16001600160401b03861615156118cd565b1590565b61190a565b421161194d565b80546001600160a01b0316927fbaa1eb22f2a492ba1a5fea61b8df4d27c6c8b5f3971e63bb58fa14ff72eedb70610add610a0f600185015497889501610b6d565b92610a25610529825f52600360205260405f2090565b610a8c610a8661083d60038a88610a73610a4d6102805f546001600160401b039060a01c1690565b9b6102be8d60045490610a6261029f83611552565b604051958694602086019889611abd565b5190209d8e5f52600360205260405f2090565b15611af2565b6103ae610a976115c0565b6001600160a01b0389168152896020820152856040820152610ac58760608301906001600160401b03169052565b5f60808201526103808c5f52600360205260405f2090565b0390a16040519485948886611b33565b0390a16103ae6103a9611b6c565b90600182811c92168015610b29575b6020831014610b1557565b634e487b7160e01b5f52602260045260245ffd5b91607f1691610b0a565b634e487b7160e01b5f52604160045260245ffd5b90601f801991011681019081106001600160401b03821117610b6857604052565b610b33565b9060405191825f825492610b8084610afb565b8084529360018116908115610beb5750600114610ba7575b50610ba592500383610b47565b565b90505f9291925260205f20905f915b818310610bcf575050906020610ba5928201015f610b98565b6020919350806001915483858901015201910190918492610bb6565b905060209250610ba594915060ff191682840152151560051b8201015f610b98565b805180835260209291819084018484015e5f828201840152601f01601f1916010190565b346101b757610c3f3661048a565b5f52600360205260405f2060018060a01b0381541660018201549160ff610c8f6003610c6d60028501610b6d565b930154926040519586958652602086015260a0604086015260a0850190610c0d565b916001600160401b038116606085015260401c16151560808301520390f35b346101b75760203660031901126101b7577f25e46ed2283db36e0b32a55d1c3522479350050a96365f5d2344b3e66b25f99d6020610cea6101d8565b610cf2611e8c565b600280546001600160a01b0319166001600160a01b03929092169182179055604051908152a161046b604051610d29604082610b47565b60118152701d1b17dc185b9a58d9dd585c9917dcd95d607a1b6020820152611eae565b346101b757610d5a3661048a565b5f905f5f915f6003610d755f935f52600360205260405f2090565b01546001600160401b038116801515959094909160401c60ff16968680610f15575b610de7575b6103be9550604051978897889360c09591989796936001600160401b039360e087019a1515875215156020870152151560408601521515606085015216608083015260a08201520152565b5050505050610df861083d826114ee565b421181610e1b610e0f60025460018060a01b031690565b6001600160a01b031690565b926001600160a01b038416151580610eb1575b6103be945015610ea3576001600160401b03610e4983611513565b168042101590818092610e9b575b9115610e8b57505f5b928415610e7057505f5b93610d9c565b610e8690610e8161083d42926114ee565b611bb8565b610e6a565b610e96904290611bb8565b610e60565b508415610e57565b6001600160401b0382610e49565b50602060049460405195868092636b943da560e01b82525afa8015610f10576103be945f91610ee1575b50610e2e565b610f03915060203d602011610f09575b610efb8183610b47565b810190611b95565b5f610edb565b503d610ef1565b611bad565b508715610d97565b346101b7575f3660031901126101b7576002546040516001600160a01b039091168152602090f35b346101b7575f3660031901126101b757602060405161a8c08152f35b346101b7575f3660031901126101b7576020600454604051908152f35b346101b75760203660031901126101b7576004356001600160401b0381168082036101b757610fab611e8c565b61a8c08110611036577fc03c652cce63e6a4eb932e2608f14d717836f14b42a735017b4fbbdc5b5da27e91610fe862278d00611028931115611bc5565b5f805467ffffffffffffffff60a01b191660a083901b67ffffffffffffffff60a01b161790556040516001600160401b0390911681529081906020820190565b0390a161046b6103a9611c11565b60405162461bcd60e51b815260206004820152601760248201527f544c3a2064656c61792062656c6f77206d696e696d756d0000000000000000006044820152606490fd5b346101b7576110893661048a565b611091611e8c565b805f5260036020526001600160401b03600360405f200154161561111c576020817fbaa1eb22f2a492ba1a5fea61b8df4d27c6c8b5f3971e63bb58fa14ff72eedb70925f52600382526110e660405f2061198b565b604051908152a161046b6040516110fe604082610b47565b600c81526b1d1b17d8d85b98d95b1b195960a21b6020820152611eae565b6346db2d5560e01b5f5260045ffd5b346101b757611139366101ee565b9091611143611e8c565b5f5461115a9060a01c6001600160401b0316610280565b9360045461116a61029f82611552565b604051611184816102be60208201948a898b8a8a8a611580565b519020936001600160401b036111a760036102ef885f52600360205260405f2090565b166103c2576103be957fa49aa71c414d3b2f375740b6d1ccdc410c42f80840028dc6866aa69b260d66a89461039b9261038e6103376115c0565b9060206106ce928181520190610c0d565b6111fb3661048a565b5f5461121a90611213906001600160a01b0316610e0f565b3314611c3b565b61122c815f52600360205260405f2090565b60038101918254611243816001600160401b031690565b906001600160401b0382161561111c5760401c60ff166114a45761127461126c61083d836114ee565b421115611c87565b600254611289906001600160a01b0316610e0f565b6001600160a01b0381161515908161141f575b50916112fb6103be9561135a937fa74c8847d513feba22a0f0cb38d53081abf97562cdb293926ba243689e7c41ca955f14611405576112e061083d6112e892611513565b421015611d0b565b805460ff60401b1916600160401b179055565b83545f9081906001600160a01b0316600260018801549701966040519081611323818b611d44565b03925af193611339611333611dae565b95611ddd565b6020855114806113f1575b611374575b506040519081529081906020820190565b0390a16113686103a9611e63565b604051918291826111e1565b602061138763ffffffff60e01b92610b6d565b01511663a9059cbb60e01b81149081156113e0575b81156113cf575b506113af575b5f611349565b6113ca6113c56020865187010160208701611b95565b611e17565b6113a9565b63095ea7b360e01b1490505f6113a3565b6323b872dd60e01b8114915061139c565b5060046113fe8254610afb565b1015611344565b61141a906001600160401b0316421015611cd3565b6112e8565b604051636b943da560e01b815292939150602090839060049082905afa918215610f10576103be957fa74c8847d513feba22a0f0cb38d53081abf97562cdb293926ba243689e7c41ca9461135a946112fb935f91611485575b509395509350955061129c565b61149e915060203d602011610f0957610efb8183610b47565b5f611478565b633bbcd16560e11b5f5260045ffd5b346101b7575f3660031901126101b7575f546040516001600160a01b039091168152602090f35b634e487b7160e01b5f52601160045260245ffd5b6001600160401b0362093a80911601906001600160401b03821161150e57565b6114da565b6001600160401b03615460911601906001600160401b03821161150e57565b906001600160401b03809116911601906001600160401b03821161150e57565b5f19811461150e5760010190565b908060209392818452848401375f828201840152601f01601f1916010190565b926080946001600160401b03936115b5939998979960018060a01b03168652602086015260a0604086015260a0850191611560565b951660608201520152565b60405190610ba560a083610b47565b6001600160401b038111610b6857601f01601f191660200190565b9291926115f6826115cf565b916116046040519384610b47565b8294818452818301116101b7578281602093845f960137010152565b81811061162b575050565b5f8155600101611620565b9190601f811161164557505050565b610ba5925f5260205f20906020601f840160051c8301931061166f575b601f0160051c0190611620565b9091508190611662565b815181546001600160a01b0319166001600160a01b0391909116178155602082015160018201556002810160408301518051906001600160401b038211610b68576116ce826116c88554610afb565b85611636565b602090601f8311600114611775579361174b9361170b84608095600395610ba59a995f9261176a575b50508160011b915f199060031b1c19161790565b90555b019261174461172760608301516001600160401b031690565b855467ffffffffffffffff19166001600160401b03909116178555565b0151151590565b815460ff60401b191690151560401b68ff000000000000000016179055565b015190505f806116f7565b90601f19831691611789855f5260205f2090565b925f5b8181106117d3575084600394610ba599989461174b9894608098600195106117bc575b505050811b01905561170e565b01515f1983881b60f8161c191690555f80806117af565b9293602060018192878601518155019501930161178c565b634e487b7160e01b5f52603260045260245ffd5b6005548110156118175760055f5260205f2001905f90565b6117eb565b600554600160401b811015610b6857600181016005556005548110156118175760055f527f036b6384b5eca791c62761152d0c79bb0604c104a5fb6f4eb0703f3154bb3db00155565b946001600160401b039361189f9360809693999899885260018060a01b03166020880152604087015260a0606087015260a0860191611560565b9416910152565b604051906118b5604083610b47565b60098252681d1b17dc5d595d595960ba1b6020830152565b156118d457565b60405162461bcd60e51b815260206004820152600e60248201526d15130e881b9bdd081c5d595d595960921b6044820152606490fd5b1561191157565b60405162461bcd60e51b815260206004820152601460248201527315130e88185b1c9958591e48195e1958dd5d195960621b6044820152606490fd5b1561195457565b60405162461bcd60e51b815260206004820152600f60248201526e15130e881b9bdd08195e1c1a5c9959608a1b6044820152606490fd5b60035f91828155826001820155600281016119a68154610afb565b90816119b3575b50500155565b81601f8693116001146119ca5750555b5f806119ad565b818352602083206119e691601f0160051c810190600101611620565b808252602082209081548360011b90841985881b1c1916179055556119c3565b60405190611a15604083610b47565b60128252711d1b17d8db19585b9d5c17d95e1c1a5c995960721b6020830152565b6001600160401b038111610b685760051b60200190565b90611a5782611a36565b611a646040519182610b47565b8281528092611a75601f1991611a36565b0190602036910137565b80518210156118175760209160051b010190565b60405190611aa2604083610b47565b600c82526b1d1b17d8591b5a5b97dcd95d60a21b6020830152565b916080936115b5916001600160401b03939897969860018060a01b03168552602085015260a0604085015260a0840190610c0d565b15611af957565b60405162461bcd60e51b815260206004820152601260248201527115130e88185b1c9958591e481c5d595d595960721b6044820152606490fd5b936080936001600160401b039361189f93989798875260018060a01b03166020870152604086015260a0606086015260a0850190610c0d565b60405190611b7b604083610b47565b600b82526a1d1b17dc995c5d595d595960aa1b6020830152565b908160209103126101b7575180151581036101b75790565b6040513d5f823e3d90fd5b9190820391821161150e57565b15611bcc57565b60405162461bcd60e51b815260206004820152601760248201527f544c3a2064656c61792061626f7665206d6178696d756d0000000000000000006044820152606490fd5b60405190611c20604083610b47565b600c82526b1d1b17d9195b185e57dcd95d60a21b6020830152565b15611c4257565b60405162461bcd60e51b815260206004820152601a60248201527f544c3a206f6e6c792061646d696e2063616e20657865637574650000000000006044820152606490fd5b15611c8e57565b60405162461bcd60e51b815260206004820152601760248201527f544c3a207472616e73616374696f6e20657870697265640000000000000000006044820152606490fd5b15611cda57565b60405162461bcd60e51b8152602060048201526009602482015268746f6f206561726c7960b81b6044820152606490fd5b15611d1257565b60405162461bcd60e51b815260206004820152600a6024820152697269736b2064656c617960b01b6044820152606490fd5b5f9291815491611d5383610afb565b9260018116908115611d9b5750600114611d6c57505050565b90919293505f5260205f205f905b838210611d875750500190565b600181602092548486015201910190611d7a565b60ff191683525050811515909102019150565b3d15611dd8573d90611dbf826115cf565b91611dcd6040519384610b47565b82523d5f602084013e565b606090565b15611de457565b60405162461bcd60e51b815260206004820152600b60248201526a195e1958c819985a5b195960aa1b6044820152606490fd5b15611e1e57565b60405162461bcd60e51b815260206004820152601d60248201527f544c3a2045524332302063616c6c2072657475726e65642066616c73650000006044820152606490fd5b60405190611e72604083610b47565b600b82526a1d1b17d95e1958dd5d195960aa1b6020830152565b5f546001600160a01b03163303611e9f57565b63654932c960e01b5f5260045ffd5b6001546001600160a01b031680611ec3575050565b803b156101b757604051633ddd61ab60e21b815230600482015260606024820152915f918391829084908290611efd906064830190610c0d565b33604483015203925af1611f0e5750565b80611f1a5f8093610b47565b8003126101b75756fea26469706673582212207c7ff50c9f9ccad6824ce5e06c8522496d24c59ba81c3e699ef8f85a5742afc364736f6c634300081e0033","linkReferences":{}},"methodIdentifiers":{"EXPIRY_WINDOW()":"0d23482b","MAX_DELAY()":"4125ff90","MIN_DELAY()":"9f81aed7","admin()":"f851a440","cancel(bytes32)":"c4d252f5","cleanupExpired(bytes32)":"4a57eeac","delay()":"6a42b8f8","execute(bytes32)":"e751f271","getQueuedTransactions()":"657ed048","getTransactionStatus(bytes32)":"94407465","ledger()":"56397c35","nonce()":"affed0e0","panicGuard()":"97caceda","previewETA()":"098e63b6","queue(bytes32)":"7c10dea6","queueTx(address,uint256,bytes)":"dfc0b6e6","queueTxWithTracking(address,uint256,bytes)":"2aaffe4f","requeueExpired(bytes32)":"7bd2147c","setAdmin(address)":"704b6c02","setDelay(uint64)":"c1073302","setLedger(address)":"3246887d","setPanicGuard(address)":"84a21d59"},"id":2}