{"abi":[{"type":"constructor","inputs":[{"name":"_admin","type":"address","internalType":"address"}],"stateMutability":"nonpayable"},{"type":"function","name":"EXPIRY_WINDOW","inputs":[],"outputs":[{"name":"","type":"uint64","internalType":"uint64"}],"stateMutability":"view"},{"type":"function","name":"admin","inputs":[],"outputs":[{"name":"","type":"address","internalType":"address"}],"stateMutability":"view"},{"type":"function","name":"cancel","inputs":[{"name":"id","type":"bytes32","internalType":"bytes32"}],"outputs":[],"stateMutability":"nonpayable"},{"type":"function","name":"cleanupExpired","inputs":[{"name":"id","type":"bytes32","internalType":"bytes32"}],"outputs":[],"stateMutability":"nonpayable"},{"type":"function","name":"delay","inputs":[],"outputs":[{"name":"","type":"uint64","internalType":"uint64"}],"stateMutability":"view"},{"type":"function","name":"execute","inputs":[{"name":"id","type":"bytes32","internalType":"bytes32"}],"outputs":[{"name":"res","type":"bytes","internalType":"bytes"}],"stateMutability":"payable"},{"type":"function","name":"getQueuedTransactions","inputs":[],"outputs":[{"name":"ids","type":"bytes32[]","internalType":"bytes32[]"},{"name":"targets","type":"address[]","internalType":"address[]"},{"name":"values","type":"uint256[]","internalType":"uint256[]"},{"name":"etas","type":"uint64[]","internalType":"uint64[]"},{"name":"done","type":"bool[]","internalType":"bool[]"},{"name":"expired","type":"bool[]","internalType":"bool[]"}],"stateMutability":"view"},{"type":"function","name":"getTransactionStatus","inputs":[{"name":"id","type":"bytes32","internalType":"bytes32"}],"outputs":[{"name":"queued","type":"bool","internalType":"bool"},{"name":"executed","type":"bool","internalType":"bool"},{"name":"expired","type":"bool","internalType":"bool"},{"name":"executable","type":"bool","internalType":"bool"},{"name":"eta","type":"uint64","internalType":"uint64"},{"name":"timeUntilExecutable","type":"uint256","internalType":"uint256"},{"name":"timeUntilExpiry","type":"uint256","internalType":"uint256"}],"stateMutability":"view"},{"type":"function","name":"ledger","inputs":[],"outputs":[{"name":"","type":"address","internalType":"contract IProofLedger"}],"stateMutability":"view"},{"type":"function","name":"nonce","inputs":[],"outputs":[{"name":"","type":"uint256","internalType":"uint256"}],"stateMutability":"view"},{"type":"function","name":"panicGuard","inputs":[],"outputs":[{"name":"","type":"address","internalType":"contract IPanicGuard"}],"stateMutability":"view"},{"type":"function","name":"previewETA","inputs":[],"outputs":[{"name":"","type":"uint64","internalType":"uint64"}],"stateMutability":"view"},{"type":"function","name":"queue","inputs":[{"name":"","type":"bytes32","internalType":"bytes32"}],"outputs":[{"name":"target","type":"address","internalType":"address"},{"name":"value","type":"uint256","internalType":"uint256"},{"name":"data","type":"bytes","internalType":"bytes"},{"name":"eta","type":"uint64","internalType":"uint64"},{"name":"done","type":"bool","internalType":"bool"}],"stateMutability":"view"},{"type":"function","name":"queueTx","inputs":[{"name":"target","type":"address","internalType":"address"},{"name":"value","type":"uint256","internalType":"uint256"},{"name":"data","type":"bytes","internalType":"bytes"}],"outputs":[{"name":"id","type":"bytes32","internalType":"bytes32"}],"stateMutability":"nonpayable"},{"type":"function","name":"queueTxWithTracking","inputs":[{"name":"target","type":"address","internalType":"address"},{"name":"value","type":"uint256","internalType":"uint256"},{"name":"data","type":"bytes","internalType":"bytes"}],"outputs":[{"name":"id","type":"bytes32","internalType":"bytes32"}],"stateMutability":"nonpayable"},{"type":"function","name":"requeueExpired","inputs":[{"name":"oldId","type":"bytes32","internalType":"bytes32"}],"outputs":[{"name":"newId","type":"bytes32","internalType":"bytes32"}],"stateMutability":"nonpayable"},{"type":"function","name":"setAdmin","inputs":[{"name":"_admin","type":"address","internalType":"address"}],"outputs":[],"stateMutability":"nonpayable"},{"type":"function","name":"setDelay","inputs":[{"name":"_delay","type":"uint64","internalType":"uint64"}],"outputs":[],"stateMutability":"nonpayable"},{"type":"function","name":"setLedger","inputs":[{"name":"_ledger","type":"address","internalType":"address"}],"outputs":[],"stateMutability":"nonpayable"},{"type":"function","name":"setPanicGuard","inputs":[{"name":"_pg","type":"address","internalType":"address"}],"outputs":[],"stateMutability":"nonpayable"},{"type":"event","name":"AdminSet","inputs":[{"name":"admin","type":"address","indexed":false,"internalType":"address"}],"anonymous":false},{"type":"event","name":"Cancelled","inputs":[{"name":"id","type":"bytes32","indexed":false,"internalType":"bytes32"}],"anonymous":false},{"type":"event","name":"DelaySet","inputs":[{"name":"delay","type":"uint64","indexed":false,"internalType":"uint64"}],"anonymous":false},{"type":"event","name":"Executed","inputs":[{"name":"id","type":"bytes32","indexed":false,"internalType":"bytes32"}],"anonymous":false},{"type":"event","name":"LedgerSet","inputs":[{"name":"ledger","type":"address","indexed":false,"internalType":"address"}],"anonymous":false},{"type":"event","name":"PanicGuardSet","inputs":[{"name":"panicGuard","type":"address","indexed":false,"internalType":"address"}],"anonymous":false},{"type":"event","name":"Queued","inputs":[{"name":"id","type":"bytes32","indexed":false,"internalType":"bytes32"},{"name":"target","type":"address","indexed":false,"internalType":"address"},{"name":"value","type":"uint256","indexed":false,"internalType":"uint256"},{"name":"data","type":"bytes","indexed":false,"internalType":"bytes"},{"name":"eta","type":"uint64","indexed":false,"internalType":"uint64"}],"anonymous":false},{"type":"error","name":"TL_AlreadyQueued","inputs":[]},{"type":"error","name":"TL_NotAdmin","inputs":[]},{"type":"error","name":"TL_NotQueued","inputs":[]},{"type":"error","name":"TL_TooEarly","inputs":[]}],"bytecode":{"object":"0x60803460d357601f611f4138819003918201601f19168301916001600160401b0383118484101760d75780849260209460405283398101031260d357516001600160a01b0381169081900360d3575f54811560a4576001600160e01b03191681176102a360a81b175f556040519081527f8fe72c3e0020beb3234e76ae6676fa576fbfcae600af1c4fea44784cf0db329c90602090a1604051611e5590816100ec8239f35b60405162461bcd60e51b8152602060048201526007602482015266061646d696e3d360cc1b6044820152606490fd5b5f80fd5b634e487b7160e01b5f52604160045260245ffdfe60806040526004361015610011575f80fd5b5f3560e01c8063098e63b6146101545780630d23482b1461014f5780632aaffe4f1461014a5780633246887d146101455780634a57eeac1461014057806356397c351461013b578063657ed048146101365780636a42b8f814610131578063704b6c021461012c5780637bd2147c146101275780637c10dea61461012257806384a21d591461011d578063944074651461011857806397caceda14610113578063affed0e01461010e578063c107330214610109578063c4d252f514610104578063dfc0b6e6146100ff578063e751f271146100fa5763f851a440146100f5575f80fd5b6113f1565b611130565b611064565b610fb4565b610f01565b610ee4565b610ebc565b610ceb565b610c4d565b610bd0565b6108dd565b610828565b610800565b610696565b6104f2565b61044b565b61039d565b610235565b61019b565b34610197575f3660031901126101975760206101866001600160401b035f5460a01c166001600160401b034216611470565b6001600160401b0360405191168152f35b5f80fd5b34610197575f36600319011261019757602060405162093a808152f35b600435906001600160a01b038216820361019757565b906060600319830112610197576004356001600160a01b03811681036101975791602435916044356001600160401b0381116101975782602382011215610197578060040135926001600160401b0384116101975760248483010111610197576024019190565b3461019757610243366101ce565b909161024d611d88565b5f5461026f9060a01c6001600160401b03165b6001600160401b034216611470565b9360405160208101906102988161028a89888a8989896114b0565b03601f198101835282610ae6565b519020936001600160401b036102c960036102bb885f52600360205260405f2090565b01546001600160401b031690565b1661038e5761038a957fa49aa71c414d3b2f375740b6d1ccdc410c42f80840028dc6866aa69b260d66a894610367926103516103036114ec565b6001600160a01b0387168152876020820152610320368585611516565b60408201526001600160401b03851660608201525f608082015261034c8a5f52600360205260405f2090565b6115a5565b61035a88611748565b6040519586958987611791565b0390a161037a6103756117cb565b611daa565b6040519081529081906020820190565b0390f35b63046853ff60e31b5f5260045ffd5b34610197576020366003190112610197577fbc62e69a31739e36d57d56991ac20e4e507a7edfff9070e6a11df5a37b8b4e6f60206103d96101b8565b6103e1611d88565b600180546001600160a01b0319166001600160a01b03929092169182179055604051908152a1610437604051610418604082610ae6565b600d81526c1d1b17db195919d95c97dcd95d609a1b6020820152611daa565b005b60209060031901126101975760043590565b34610197577fbaa1eb22f2a492ba1a5fea61b8df4d27c6c8b5f3971e63bb58fa14ff72eedb7061047a36610439565b805f5260036020526104c36001600160401b036104bb600360405f2001546104b660ff848316926104ac8415156117f2565b60401c161561182f565b61142c565b164211611872565b6104dd6104d8825f52600360205260405f2090565b6118b0565b604051908152602090a161043761037561192b565b34610197575f366003190112610197576001546040516001600160a01b039091168152602090f35b90602080835192838152019201905f5b8181106105375750505090565b82516001600160a01b031684526020938401939092019160010161052a565b90602080835192838152019201905f5b8181106105735750505090565b8251845260209384019390920191600101610566565b90602080835192838152019201905f5b8181106105a65750505090565b82516001600160401b0316845260209384019390920191600101610599565b90602080835192838152019201905f5b8181106105e25750505090565b825115158452602093840193909201916001016105d5565b9492909695939160c0860160c087528851809152602060e088019901905f5b8181106106805750505091610653610661926106458a61066f97968a61067d9c9d0360208c015261051a565b9088820360408a0152610556565b908682036060880152610589565b9084820360808601526105c5565b9160a08184039101526105c5565b90565b82518b5260209a8b019a90920191600101610619565b34610197575f366003190112610197576005546106b281611972565b6106bb82611972565b906106c583611972565b926106cf81611972565b6106d882611972565b906106e283611972565b925f5b8181106106fe57505060405195869561038a95876105fa565b806107d8600361071c61071260019561172b565b90549060031b1c90565b61072e815f52600360205260405f2090565b90610739858c6119a4565b528054610762906001600160a01b0316610753868e6119a4565b6001600160a01b039091169052565b80850154610770858e6119a4565b5201546107ba6107a96001600160401b038316926107a084610792888c6119a4565b906001600160401b03169052565b60401c60ff1690565b6107b3858a6119a4565b9015159052565b6001600160401b038116151590816107de575b506107b383896119a4565b016106e5565b6107f891506107ec9061142c565b6001600160401b031690565b42115f6107cd565b34610197575f3660031901126101975760206001600160401b035f5460a01c16604051908152f35b34610197576020366003190112610197576108416101b8565b610849611d88565b6001600160a01b03811680156108ae575f80546001600160a01b0319169190911790556040516001600160a01b039190911681527f8fe72c3e0020beb3234e76ae6676fa576fbfcae600af1c4fea44784cf0db329c90602090a16104376103756119b8565b60405162461bcd60e51b8152602060048201526007602482015266061646d696e3d360cc1b6044820152606490fd5b346101975761038a6102bb7fa49aa71c414d3b2f375740b6d1ccdc410c42f80840028dc6866aa69b260d66a8600261091436610439565b61091c611d88565b610a8c610931825f52600360205260405f2090565b61097d6109766107ec60038401546104b661097161096d610958846001600160401b031690565b936107a06001600160401b03861615156117f2565b1590565b61182f565b4211611872565b80546001600160a01b0316927fbaa1eb22f2a492ba1a5fea61b8df4d27c6c8b5f3971e63bb58fa14ff72eedb70610a7c6109be600185015497889501610b0c565b926109d46104d8825f52600360205260405f2090565b610a2b610a256107ec60038a88610a126109fc6102605f546001600160401b039060a01c1690565b9b61028a8d6040519485936020850197886119e2565b5190209d8e5f52600360205260405f2090565b15611a16565b61037a610a366114ec565b6001600160a01b0389168152896020820152856040820152610a648760608301906001600160401b03169052565b5f608082015261034c8c5f52600360205260405f2090565b0390a16040519485948886611a57565b0390a161037a610375611a90565b90600182811c92168015610ac8575b6020831014610ab457565b634e487b7160e01b5f52602260045260245ffd5b91607f1691610aa9565b634e487b7160e01b5f52604160045260245ffd5b90601f801991011681019081106001600160401b03821117610b0757604052565b610ad2565b9060405191825f825492610b1f84610a9a565b8084529360018116908115610b8a5750600114610b46575b50610b4492500383610ae6565b565b90505f9291925260205f20905f915b818310610b6e575050906020610b44928201015f610b37565b6020919350806001915483858901015201910190918492610b55565b905060209250610b4494915060ff191682840152151560051b8201015f610b37565b805180835260209291819084018484015e5f828201840152601f01601f1916010190565b3461019757610bde36610439565b5f52600360205260405f2060018060a01b0381541660018201549160ff610c2e6003610c0c60028501610b0c565b930154926040519586958652602086015260a0604086015260a0850190610bac565b916001600160401b038116606085015260401c16151560808301520390f35b34610197576020366003190112610197577f25e46ed2283db36e0b32a55d1c3522479350050a96365f5d2344b3e66b25f99d6020610c896101b8565b610c91611d88565b600280546001600160a01b0319166001600160a01b03929092169182179055604051908152a1610437604051610cc8604082610ae6565b60118152701d1b17dc185b9a58d9dd585c9917dcd95d607a1b6020820152611daa565b3461019757610cf936610439565b5f905f5f915f6003610d145f935f52600360205260405f2090565b01546001600160401b038116801515959094909160401c60ff16968680610eb4575b610d86575b61038a9550604051978897889360c09591989796936001600160401b039360e087019a1515875215156020870152151560408601521515606085015216608083015260a08201520152565b5050505050610d976107ec8261142c565b421181610dba610dae60025460018060a01b031690565b6001600160a01b031690565b926001600160a01b038416151580610e50575b61038a945015610e42576001600160401b03610de883611451565b168042101590818092610e3a575b9115610e2a57505f5b928415610e0f57505f5b93610d3b565b610e2590610e206107ec429261142c565b611adc565b610e09565b610e35904290611adc565b610dff565b508415610df6565b6001600160401b0382610de8565b50602060049460405195868092636b943da560e01b82525afa8015610eaf5761038a945f91610e80575b50610dcd565b610ea2915060203d602011610ea8575b610e9a8183610ae6565b810190611ab9565b5f610e7a565b503d610e90565b611ad1565b508715610d36565b34610197575f366003190112610197576002546040516001600160a01b039091168152602090f35b34610197575f366003190112610197576020600454604051908152f35b34610197576020366003190112610197576004356001600160401b03811690818103610197577fc03c652cce63e6a4eb932e2608f14d717836f14b42a735017b4fbbdc5b5da27e91602091610f54611d88565b5f805467ffffffffffffffff60a01b191660a09290921b67ffffffffffffffff60a01b16919091179055604051908152a1610437604051610f96604082610ae6565b600c81526b1d1b17d9195b185e57dcd95d60a21b6020820152611daa565b3461019757610fc236610439565b610fca611d88565b805f5260036020526001600160401b03600360405f2001541615611055576020817fbaa1eb22f2a492ba1a5fea61b8df4d27c6c8b5f3971e63bb58fa14ff72eedb70925f526003825261101f60405f206118b0565b604051908152a1610437604051611037604082610ae6565b600c81526b1d1b17d8d85b98d95b1b195960a21b6020820152611daa565b6346db2d5560e01b5f5260045ffd5b3461019757611072366101ce565b909161107c611d88565b5f546110939060a01c6001600160401b0316610260565b936004546110a86110a382611ae9565b600455565b6040516110c28161028a60208201948a898b8a8a8a611af7565b519020936001600160401b036110e560036102bb885f52600360205260405f2090565b1661038e5761038a957fa49aa71c414d3b2f375740b6d1ccdc410c42f80840028dc6866aa69b260d66a8946103679261035a6103036114ec565b90602061067d928181520190610bac565b61113936610439565b5f5461115890611151906001600160a01b0316610dae565b3314611b37565b61116a815f52600360205260405f2090565b60038101918254611181816001600160401b031690565b906001600160401b038216156110555760401c60ff166113e2576111b26111aa6107ec8361142c565b421115611b83565b6002546111c7906001600160a01b0316610dae565b6001600160a01b0381161515908161135d575b509161123961038a95611298937fa74c8847d513feba22a0f0cb38d53081abf97562cdb293926ba243689e7c41ca955f146113435761121e6107ec61122692611451565b421015611c07565b805460ff60401b1916600160401b179055565b83545f9081906001600160a01b0316600260018801549701966040519081611261818b611c40565b03925af193611277611271611caa565b95611cd9565b60208551148061132f575b6112b2575b506040519081529081906020820190565b0390a16112a6610375611d5f565b6040519182918261111f565b60206112c563ffffffff60e01b92610b0c565b01511663a9059cbb60e01b811490811561131e575b811561130d575b506112ed575b5f611287565b6113086113036020865187010160208701611ab9565b611d13565b6112e7565b63095ea7b360e01b1490505f6112e1565b6323b872dd60e01b811491506112da565b50600461133c8254610a9a565b1015611282565b611358906001600160401b0316421015611bcf565b611226565b604051636b943da560e01b815292939150602090839060049082905afa918215610eaf5761038a957fa74c8847d513feba22a0f0cb38d53081abf97562cdb293926ba243689e7c41ca9461129894611239935f916113c3575b50939550935095506111da565b6113dc915060203d602011610ea857610e9a8183610ae6565b5f6113b6565b633bbcd16560e11b5f5260045ffd5b34610197575f366003190112610197575f546040516001600160a01b039091168152602090f35b634e487b7160e01b5f52601160045260245ffd5b6001600160401b0362093a80911601906001600160401b03821161144c57565b611418565b6001600160401b03615460911601906001600160401b03821161144c57565b906001600160401b03809116911601906001600160401b03821161144c57565b908060209392818452848401375f828201840152601f01601f1916010190565b93926060936001600160401b03936114e59398979860018060a01b031687526020870152608060408701526080860191611490565b9416910152565b60405190610b4460a083610ae6565b6001600160401b038111610b0757601f01601f191660200190565b929192611522826114fb565b916115306040519384610ae6565b829481845281830111610197578281602093845f960137010152565b818110611557575050565b5f815560010161154c565b9190601f811161157157505050565b610b44925f5260205f20906020601f840160051c8301931061159b575b601f0160051c019061154c565b909150819061158e565b815181546001600160a01b0319166001600160a01b0391909116178155602082015160018201556002810160408301518051906001600160401b038211610b07576115fa826115f48554610a9a565b85611562565b602090601f83116001146116a157936116779361163784608095600395610b449a995f92611696575b50508160011b915f199060031b1c19161790565b90555b019261167061165360608301516001600160401b031690565b855467ffffffffffffffff19166001600160401b03909116178555565b0151151590565b815460ff60401b191690151560401b68ff000000000000000016179055565b015190505f80611623565b90601f198316916116b5855f5260205f2090565b925f5b8181106116ff575084600394610b449998946116779894608098600195106116e8575b505050811b01905561163a565b01515f1983881b60f8161c191690555f80806116db565b929360206001819287860151815501950193016116b8565b634e487b7160e01b5f52603260045260245ffd5b6005548110156117435760055f5260205f2001905f90565b611717565b600554600160401b811015610b0757600181016005556005548110156117435760055f527f036b6384b5eca791c62761152d0c79bb0604c104a5fb6f4eb0703f3154bb3db00155565b946001600160401b03936114e59360809693999899885260018060a01b03166020880152604087015260a0606087015260a0860191611490565b604051906117da604083610ae6565b60098252681d1b17dc5d595d595960ba1b6020830152565b156117f957565b60405162461bcd60e51b815260206004820152600e60248201526d15130e881b9bdd081c5d595d595960921b6044820152606490fd5b1561183657565b60405162461bcd60e51b815260206004820152601460248201527315130e88185b1c9958591e48195e1958dd5d195960621b6044820152606490fd5b1561187957565b60405162461bcd60e51b815260206004820152600f60248201526e15130e881b9bdd08195e1c1a5c9959608a1b6044820152606490fd5b60035f91828155826001820155600281016118cb8154610a9a565b90816118d8575b50500155565b81601f8693116001146118ef5750555b5f806118d2565b8183526020832061190b91601f0160051c81019060010161154c565b808252602082209081548360011b90841985881b1c1916179055556118e8565b6040519061193a604083610ae6565b60128252711d1b17d8db19585b9d5c17d95e1c1a5c995960721b6020830152565b6001600160401b038111610b075760051b60200190565b9061197c8261195b565b6119896040519182610ae6565b828152809261199a601f199161195b565b0190602036910137565b80518210156117435760209160051b010190565b604051906119c7604083610ae6565b600c82526b1d1b17d8591b5a5b97dcd95d60a21b6020830152565b926114e5906060936001600160401b039397969760018060a01b031686526020860152608060408601526080850190610bac565b15611a1d57565b60405162461bcd60e51b815260206004820152601260248201527115130e88185b1c9958591e481c5d595d595960721b6044820152606490fd5b936080936001600160401b03936114e593989798875260018060a01b03166020870152604086015260a0606086015260a0850190610bac565b60405190611a9f604083610ae6565b600b82526a1d1b17dc995c5d595d595960aa1b6020830152565b90816020910312610197575180151581036101975790565b6040513d5f823e3d90fd5b9190820391821161144c57565b5f19811461144c5760010190565b926080946001600160401b0393611b2c939998979960018060a01b03168652602086015260a0604086015260a0850191611490565b951660608201520152565b15611b3e57565b60405162461bcd60e51b815260206004820152601a60248201527f544c3a206f6e6c792061646d696e2063616e20657865637574650000000000006044820152606490fd5b15611b8a57565b60405162461bcd60e51b815260206004820152601760248201527f544c3a207472616e73616374696f6e20657870697265640000000000000000006044820152606490fd5b15611bd657565b60405162461bcd60e51b8152602060048201526009602482015268746f6f206561726c7960b81b6044820152606490fd5b15611c0e57565b60405162461bcd60e51b815260206004820152600a6024820152697269736b2064656c617960b01b6044820152606490fd5b5f9291815491611c4f83610a9a565b9260018116908115611c975750600114611c6857505050565b90919293505f5260205f205f905b838210611c835750500190565b600181602092548486015201910190611c76565b60ff191683525050811515909102019150565b3d15611cd4573d90611cbb826114fb565b91611cc96040519384610ae6565b82523d5f602084013e565b606090565b15611ce057565b60405162461bcd60e51b815260206004820152600b60248201526a195e1958c819985a5b195960aa1b6044820152606490fd5b15611d1a57565b60405162461bcd60e51b815260206004820152601d60248201527f544c3a2045524332302063616c6c2072657475726e65642066616c73650000006044820152606490fd5b60405190611d6e604083610ae6565b600b82526a1d1b17d95e1958dd5d195960aa1b6020830152565b5f546001600160a01b03163303611d9b57565b63654932c960e01b5f5260045ffd5b6001546001600160a01b031680611dbf575050565b803b1561019757604051633ddd61ab60e21b815230600482015260606024820152915f918391829084908290611df9906064830190610bac565b33604483015203925af1611e0a5750565b80611e165f8093610ae6565b8003126101975756fea264697066735822122036e52693565528dce42482a967944cba2e371b8630721774a754d2d7740d60f964736f6c634300081e0033","linkReferences":{}},"methodIdentifiers":{"EXPIRY_WINDOW()":"0d23482b","admin()":"f851a440","cancel(bytes32)":"c4d252f5","cleanupExpired(bytes32)":"4a57eeac","delay()":"6a42b8f8","execute(bytes32)":"e751f271","getQueuedTransactions()":"657ed048","getTransactionStatus(bytes32)":"94407465","ledger()":"56397c35","nonce()":"affed0e0","panicGuard()":"97caceda","previewETA()":"098e63b6","queue(bytes32)":"7c10dea6","queueTx(address,uint256,bytes)":"dfc0b6e6","queueTxWithTracking(address,uint256,bytes)":"2aaffe4f","requeueExpired(bytes32)":"7bd2147c","setAdmin(address)":"704b6c02","setDelay(uint64)":"c1073302","setLedger(address)":"3246887d","setPanicGuard(address)":"84a21d59"},"id":6}