{"abi":[{"type":"constructor","inputs":[{"name":"_admin","type":"address","internalType":"address"}],"stateMutability":"nonpayable"},{"type":"function","name":"EXPIRY_WINDOW","inputs":[],"outputs":[{"name":"","type":"uint64","internalType":"uint64"}],"stateMutability":"view"},{"type":"function","name":"MAX_DELAY","inputs":[],"outputs":[{"name":"","type":"uint64","internalType":"uint64"}],"stateMutability":"view"},{"type":"function","name":"MIN_DELAY","inputs":[],"outputs":[{"name":"","type":"uint64","internalType":"uint64"}],"stateMutability":"view"},{"type":"function","name":"admin","inputs":[],"outputs":[{"name":"","type":"address","internalType":"address"}],"stateMutability":"view"},{"type":"function","name":"cancel","inputs":[{"name":"id","type":"bytes32","internalType":"bytes32"}],"outputs":[],"stateMutability":"nonpayable"},{"type":"function","name":"cleanupExpired","inputs":[{"name":"id","type":"bytes32","internalType":"bytes32"}],"outputs":[],"stateMutability":"nonpayable"},{"type":"function","name":"delay","inputs":[],"outputs":[{"name":"","type":"uint64","internalType":"uint64"}],"stateMutability":"view"},{"type":"function","name":"execute","inputs":[{"name":"id","type":"bytes32","internalType":"bytes32"}],"outputs":[{"name":"res","type":"bytes","internalType":"bytes"}],"stateMutability":"payable"},{"type":"function","name":"getQueuedTransactions","inputs":[],"outputs":[{"name":"ids","type":"bytes32[]","internalType":"bytes32[]"},{"name":"targets","type":"address[]","internalType":"address[]"},{"name":"values","type":"uint256[]","internalType":"uint256[]"},{"name":"etas","type":"uint64[]","internalType":"uint64[]"},{"name":"done","type":"bool[]","internalType":"bool[]"},{"name":"expired","type":"bool[]","internalType":"bool[]"}],"stateMutability":"view"},{"type":"function","name":"getTransactionStatus","inputs":[{"name":"id","type":"bytes32","internalType":"bytes32"}],"outputs":[{"name":"queued","type":"bool","internalType":"bool"},{"name":"executed","type":"bool","internalType":"bool"},{"name":"expired","type":"bool","internalType":"bool"},{"name":"executable","type":"bool","internalType":"bool"},{"name":"eta","type":"uint64","internalType":"uint64"},{"name":"timeUntilExecutable","type":"uint256","internalType":"uint256"},{"name":"timeUntilExpiry","type":"uint256","internalType":"uint256"}],"stateMutability":"view"},{"type":"function","name":"ledger","inputs":[],"outputs":[{"name":"","type":"address","internalType":"contract IProofLedger"}],"stateMutability":"view"},{"type":"function","name":"nonce","inputs":[],"outputs":[{"name":"","type":"uint256","internalType":"uint256"}],"stateMutability":"view"},{"type":"function","name":"panicGuard","inputs":[],"outputs":[{"name":"","type":"address","internalType":"contract IPanicGuard"}],"stateMutability":"view"},{"type":"function","name":"previewETA","inputs":[],"outputs":[{"name":"","type":"uint64","internalType":"uint64"}],"stateMutability":"view"},{"type":"function","name":"queue","inputs":[{"name":"","type":"bytes32","internalType":"bytes32"}],"outputs":[{"name":"target","type":"address","internalType":"address"},{"name":"value","type":"uint256","internalType":"uint256"},{"name":"data","type":"bytes","internalType":"bytes"},{"name":"eta","type":"uint64","internalType":"uint64"},{"name":"done","type":"bool","internalType":"bool"}],"stateMutability":"view"},{"type":"function","name":"queueTx","inputs":[{"name":"target","type":"address","internalType":"address"},{"name":"value","type":"uint256","internalType":"uint256"},{"name":"data","type":"bytes","internalType":"bytes"}],"outputs":[{"name":"id","type":"bytes32","internalType":"bytes32"}],"stateMutability":"nonpayable"},{"type":"function","name":"queueTxWithTracking","inputs":[{"name":"target","type":"address","internalType":"address"},{"name":"value","type":"uint256","internalType":"uint256"},{"name":"data","type":"bytes","internalType":"bytes"}],"outputs":[{"name":"id","type":"bytes32","internalType":"bytes32"}],"stateMutability":"nonpayable"},{"type":"function","name":"requeueExpired","inputs":[{"name":"oldId","type":"bytes32","internalType":"bytes32"}],"outputs":[{"name":"newId","type":"bytes32","internalType":"bytes32"}],"stateMutability":"nonpayable"},{"type":"function","name":"setAdmin","inputs":[{"name":"_admin","type":"address","internalType":"address"}],"outputs":[],"stateMutability":"nonpayable"},{"type":"function","name":"setDelay","inputs":[{"name":"_delay","type":"uint64","internalType":"uint64"}],"outputs":[],"stateMutability":"nonpayable"},{"type":"function","name":"setLedger","inputs":[{"name":"_ledger","type":"address","internalType":"address"}],"outputs":[],"stateMutability":"nonpayable"},{"type":"function","name":"setPanicGuard","inputs":[{"name":"_pg","type":"address","internalType":"address"}],"outputs":[],"stateMutability":"nonpayable"},{"type":"event","name":"AdminSet","inputs":[{"name":"admin","type":"address","indexed":false,"internalType":"address"}],"anonymous":false},{"type":"event","name":"Cancelled","inputs":[{"name":"id","type":"bytes32","indexed":false,"internalType":"bytes32"}],"anonymous":false},{"type":"event","name":"DelaySet","inputs":[{"name":"delay","type":"uint64","indexed":false,"internalType":"uint64"}],"anonymous":false},{"type":"event","name":"Executed","inputs":[{"name":"id","type":"bytes32","indexed":false,"internalType":"bytes32"}],"anonymous":false},{"type":"event","name":"GracePeriodExpired","inputs":[{"name":"id","type":"bytes32","indexed":false,"internalType":"bytes32"}],"anonymous":false},{"type":"event","name":"LedgerSet","inputs":[{"name":"ledger","type":"address","indexed":false,"internalType":"address"}],"anonymous":false},{"type":"event","name":"PanicGuardSet","inputs":[{"name":"panicGuard","type":"address","indexed":false,"internalType":"address"}],"anonymous":false},{"type":"event","name":"Queued","inputs":[{"name":"id","type":"bytes32","indexed":false,"internalType":"bytes32"},{"name":"target","type":"address","indexed":false,"internalType":"address"},{"name":"value","type":"uint256","indexed":false,"internalType":"uint256"},{"name":"data","type":"bytes","indexed":false,"internalType":"bytes"},{"name":"eta","type":"uint64","indexed":false,"internalType":"uint64"}],"anonymous":false},{"type":"error","name":"TL_AlreadyQueued","inputs":[]},{"type":"error","name":"TL_NotAdmin","inputs":[]},{"type":"error","name":"TL_NotQueued","inputs":[]},{"type":"error","name":"TL_TooEarly","inputs":[]}],"bytecode":{"object":"0x60803460d357601f611f5e38819003918201601f19168301916001600160401b0383118484101760d75780849260209460405283398101031260d357516001600160a01b0381169081900360d3575f54811560a4576001600160e01b03191681176102a360a81b175f556040519081527f8fe72c3e0020beb3234e76ae6676fa576fbfcae600af1c4fea44784cf0db329c90602090a1604051611e7290816100ec8239f35b60405162461bcd60e51b8152602060048201526007602482015266061646d696e3d360cc1b6044820152606490fd5b5f80fd5b634e487b7160e01b5f52604160045260245ffdfe60806040526004361015610011575f80fd5b5f3560e01c8063098e63b6146101745780630d23482b1461016f5780632aaffe4f1461016a5780633246887d146101655780634125ff90146101605780634a57eeac1461015b57806356397c3514610156578063657ed048146101515780636a42b8f81461014c578063704b6c02146101475780637bd2147c146101425780637c10dea61461013d57806384a21d5914610138578063944074651461013357806397caceda1461012e5780639f81aed714610129578063affed0e014610124578063c10733021461011f578063c4d252f51461011a578063dfc0b6e614610115578063e751f271146101105763f851a4401461010b575f80fd5b611388565b611110565b611065565b610fc6565b610ed1565b610eb4565b610e98565b610e70565b610cb9565b610c1b565b610b9c565b6108e7565b610832565b610807565b6106c3565b61051f565b61048e565b61045f565b6103c3565b610270565b6101ca565b610185565b6001600160401b031690565b346101c6575f3660031901126101c6575f546020906101b49060a01c6001600160401b039081169042166113fb565b6040516001600160401b039091168152f35b5f80fd5b346101c6575f3660031901126101c657602060405162093a808152f35b6001600160a01b031690565b600435906001600160a01b03821682036101c657565b9060606003198301126101c6576004356001600160a01b03811681036101c65791602435916044356001600160401b0381116101c657826023820112156101c6576004810135926001600160401b0384116101c657602484830101116101c6576024019190565b346101c65761027e36610209565b9091610288611d45565b5f546102aa9060a01c6001600160401b03165b426001600160401b03166113fb565b936004546102bf6102ba82611414565b600455565b6040516102e7816102d960208201948a898b8a8a8a611442565b03601f198101835282610ab0565b519020936001600160401b0361030f600361030188610a56565b01546001600160401b031690565b166103b4576103b0955f516020611ddd5f395f51905f529461038d92610377610336611484565b6103408782611493565b8760208201526103513685856114bd565b604082015261036385606083016114f3565b5f60808201526103728a610a56565b61155b565b610380886116f1565b604051958695898761173a565b0390a16103a061039b61177d565b611d67565b6040519081529081906020820190565b0390f35b63046853ff60e31b5f5260045ffd5b346101c65760203660031901126101c6577fbc62e69a31739e36d57d56991ac20e4e507a7edfff9070e6a11df5a37b8b4e6f60206103ff6101f3565b610407611d45565b600180546001600160a01b0319166001600160a01b03929092169182179055604051908152a161045d60405161043e604082610ab0565b600d81526c1d1b17db195919d95c97dcd95d609a1b6020820152611d67565b005b346101c6575f3660031901126101c657602060405162278d008152f35b60209060031901126101c65760043590565b346101c6575f516020611e1d5f395f51905f526104aa3661047c565b805f5260036020526104f96104e9600360405f2001546104e460ff60018060401b038316926104da8415156117a4565b60401c16156117e1565b6113c3565b6001600160401b03164211611824565b61050a61050582610a56565b611862565b604051908152602090a161045d61039b6118dd565b346101c6575f3660031901126101c6576001546040516001600160a01b039091168152602090f35b90602080835192838152019201905f5b8181106105645750505090565b82516001600160a01b0316845260209384019390920191600101610557565b90602080835192838152019201905f5b8181106105a05750505090565b8251845260209384019390920191600101610593565b90602080835192838152019201905f5b8181106105d35750505090565b82516001600160401b03168452602093840193909201916001016105c6565b90602080835192838152019201905f5b81811061060f5750505090565b82511515845260209384019390920191600101610602565b9492909695939160c0860160c087528851809152602060e088019901905f5b8181106106ad575050509161068061068e926106728a61069c97968a6106aa9c9d0360208c0152610547565b9088820360408a0152610583565b9086820360608801526105b6565b9084820360808601526105f2565b9160a08184039101526105f2565b90565b82518b5260209a8b019a90920191600101610646565b346101c6575f3660031901126101c6576005546106df81611924565b6106e882611924565b906106f283611924565b926106fc81611924565b61070582611924565b9061070f83611924565b925f5b81811061072b5750506040519586956103b09587610627565b806107e6600361074961073f6001956116d4565b90549060031b1c90565b61075281610a56565b9061075d858c611956565b5261077b8b6107768661077085546101e7565b92611956565b611493565b80850154610789858e611956565b5201546107c96107b861079b83610179565b926107af846107aa888c611956565b6114f3565b60401c60ff1690565b6107c2858a611956565b9015159052565b6107d281610179565b151590816107ec575b506107c28389611956565b01610712565b6107ff91506107fa906113c3565b610179565b42115f6107db565b346101c6575f3660031901126101c6575f5460405160a09190911c6001600160401b03168152602090f35b346101c65760203660031901126101c65761084b6101f3565b610853611d45565b6001600160a01b03811680156108b8575f80546001600160a01b0319169190911790556040516001600160a01b039190911681527f8fe72c3e0020beb3234e76ae6676fa576fbfcae600af1c4fea44784cf0db329c90602090a161045d61039b61196a565b60405162461bcd60e51b8152602060048201526007602482015266061646d696e3d360cc1b6044820152606490fd5b346101c6576103b06103015f516020611ddd5f395f51905f52600261090b3661047c565b610913611d45565b610a4861091f82610a56565b61096461095d6107fa60038401546104e461095861095461093f84610179565b936107af6001600160401b03861615156117a4565b1590565b6117e1565b4211611824565b61096e81546101e7565b925f516020611e1d5f395f51905f52610a38610991600185015497889501610ad8565b9261099e61050582610a56565b6109fb6109f56107fa60038a886109eb6109c561029b5f5460018060401b039060a01c1690565b9b6102d98d600454906109da6102ba83611414565b604051958694602086019889611994565b5190209d8e610a56565b156119c1565b6103a0610a06611484565b610a108982611493565b896020820152856040820152610a2987606083016114f3565b5f60808201526103728c610a56565b0390a16040519485948886611a02565b0390a16103a061039b611a34565b5f52600360205260405f2090565b90600182811c92168015610a92575b6020831014610a7e57565b634e487b7160e01b5f52602260045260245ffd5b91607f1691610a73565b634e487b7160e01b5f52604160045260245ffd5b601f909101601f19168101906001600160401b03821190821017610ad357604052565b610a9c565b9060405191825f825492610aeb84610a64565b8084529360018116908115610b565750600114610b12575b50610b1092500383610ab0565b565b90505f9291925260205f20905f915b818310610b3a575050906020610b10928201015f610b03565b6020919350806001915483858901015201910190918492610b21565b905060209250610b1094915060ff191682840152151560051b8201015f610b03565b805180835260209291819084018484015e5f828201840152601f01601f1916010190565b346101c657610baa3661047c565b5f52600360205260405f2060018060a01b0381541660018201549160ff610bfa6003610bd860028501610ad8565b930154926040519586958652602086015260a0604086015260a0850190610b78565b6001600160401b038316606085015260409290921c16151560808301520390f35b346101c65760203660031901126101c6577f25e46ed2283db36e0b32a55d1c3522479350050a96365f5d2344b3e66b25f99d6020610c576101f3565b610c5f611d45565b600280546001600160a01b0319166001600160a01b03929092169182179055604051908152a161045d604051610c96604082610ab0565b60118152701d1b17dc185b9a58d9dd585c9917dcd95d607a1b6020820152611d67565b346101c657610cc73661047c565b5f905f5f915f6003610cd95f93610a56565b015493610ce585610179565b6001600160401b03811615159590949060401c60ff16968680610e68575b610d50575b604080519715158852971515602088015215159686019690965294151560608501526001600160401b03909416608084015260a08301939093525060c081019190915260e090f35b5050505050610d616107fa826113c3565b421181610d77610d726002546101e7565b6101e7565b926001600160a01b038416151580610e04575b6103b0945015610dfe57610d9d826113e2565b6001600160401b031642811115908180610df6575b9115610de657505f5b928415610dcb57505f5b93610d08565b610de190610ddc6107fa42926113c3565b611a80565b610dc5565b610df1904290611a80565b610dbb565b508415610db2565b81610d9d565b50602060049460405195868092636b943da560e01b82525afa8015610e63576103b0945f91610e34575b50610d8a565b610e56915060203d602011610e5c575b610e4e8183610ab0565b810190611a5d565b5f610e2e565b503d610e44565b611a75565b508715610d03565b346101c6575f3660031901126101c6576002546040516001600160a01b039091168152602090f35b346101c6575f3660031901126101c657602060405161a8c08152f35b346101c6575f3660031901126101c6576020600454604051908152f35b346101c65760203660031901126101c6576004356001600160401b0381168082036101c657610efe611d45565b61a8c08110610f87577fc03c652cce63e6a4eb932e2608f14d717836f14b42a735017b4fbbdc5b5da27e91610f3b62278d00610f79931115611a8d565b5f8054600160a01b600160e01b03191660a083901b600160a01b600160e01b03161790556040516001600160401b0390911681529081906020820190565b0390a161045d61039b611ad3565b60405162461bcd60e51b8152602060048201526017602482015276544c3a2064656c61792062656c6f77206d696e696d756d60481b6044820152606490fd5b346101c657610fd43661047c565b610fdc611d45565b5f81815260036020819052604090912001546001600160401b031615611056576020815f516020611e1d5f395f51905f52925f526003825261102060405f20611862565b604051908152a161045d604051611038604082610ab0565b600c81526b1d1b17d8d85b98d95b1b195960a21b6020820152611d67565b6346db2d5560e01b5f5260045ffd5b346101c65761107336610209565b909161107d611d45565b5f546110949060a01c6001600160401b031661029b565b936004546110a46102ba82611414565b6040516110be816102d960208201948a898b8a8a8a611442565b519020936001600160401b036110d8600361030188610a56565b166103b4576103b0955f516020611ddd5f395f51905f529461038d92610380610336611484565b9060206106aa928181520190610b78565b6111193661047c565b611130611129610d725f546101e7565b3314611afd565b61113981610a56565b6003810191825461114981610179565b906001600160401b038216156110565760401c60ff166113795761117a6111726107fa836113c3565b421115611b46565b611188610d726002546101e7565b6001600160a01b03811615159081611307575b50916111e76103b095611243935f516020611dfd5f395f51905f52955f146112ee576111cc6107fa6111d4926113e2565b421015611bc4565b805460ff60401b1916600160401b179055565b5f806111f386546101e7565b60026001880154970196604051908161120c818b611bfd565b03925af19361122261121c611c67565b95611c96565b6020855114806112da575b61125d575b506040519081529081906020820190565b0390a161125161039b611d1c565b604051918291826110ff565b602061127063ffffffff60e01b92610ad8565b01511663a9059cbb60e01b81149081156112c9575b81156112b8575b50611298575b5f611232565b6112b36112ae6020865187010160208701611a5d565b611cd0565b611292565b63095ea7b360e01b1490505f61128c565b6323b872dd60e01b81149150611285565b5060046112e78254610a64565b101561122d565b6112fa61130291610179565b421015611b8c565b6111d4565b604051636b943da560e01b815292939150602090839060049082905afa918215610e63576103b0955f516020611dfd5f395f51905f5294611243946111e7935f9161135a575b509395509350955061119b565b611373915060203d602011610e5c57610e4e8183610ab0565b5f61134d565b633bbcd16560e11b5f5260045ffd5b346101c6575f3660031901126101c6575f546040516001600160a01b039091168152602090f35b634e487b7160e01b5f52601160045260245ffd5b6001600160401b0390811662093a8001919082116113dd57565b6113af565b6001600160401b0390811661546001919082116113dd57565b6001600160401b0391821690821601919082116113dd57565b5f1981146113dd5760010190565b908060209392818452848401375f828201840152601f01601f1916010190565b929093611470926080959897969860018060a01b03168552602085015260a0604085015260a0840191611422565b6001600160401b0390951660608201520152565b60405190610b1060a083610ab0565b6001600160a01b039091169052565b6001600160401b038111610ad357601f01601f191660200190565b9291926114c9826114a2565b916114d76040519384610ab0565b8294818452818301116101c6578281602093845f960137010152565b6001600160401b039091169052565b81811061150d575050565b5f8155600101611502565b9190601f811161152757505050565b610b10925f5260205f20906020601f840160051c83019310611551575b601f0160051c0190611502565b9091508190611544565b815181546001600160a01b0319166001600160a01b0391909116178155602082015160018201556040820151805160028301916001600160401b038211610ad3576115b0826115aa8554610a64565b85611518565b602090601f831160011461164a5793611625936115ed84608095600395610b109a995f9261163f575b50508160011b915f199060031b1c19161790565b90555b019261161e6116026060830151610179565b85546001600160401b0319166001600160401b03909116178555565b0151151590565b815460ff60401b191690151560401b60ff60401b16179055565b015190505f806115d9565b90601f1983169161165e855f5260205f2090565b925f5b8181106116a8575084600394610b10999894611625989460809860019510611691575b505050811b0190556115f0565b01515f1983881b60f8161c191690555f8080611684565b92936020600181928786015181550195019301611661565b634e487b7160e01b5f52603260045260245ffd5b6005548110156116ec5760055f5260205f2001905f90565b6116c0565b600554600160401b811015610ad357600181016005556005548110156116ec5760055f527f036b6384b5eca791c62761152d0c79bb0604c104a5fb6f4eb0703f3154bb3db00155565b9490926080949261176d94989798875260018060a01b03166020870152604086015260a0606086015260a0850191611422565b6001600160401b03909416910152565b6040519061178c604083610ab0565b60098252681d1b17dc5d595d595960ba1b6020830152565b156117ab57565b60405162461bcd60e51b815260206004820152600e60248201526d15130e881b9bdd081c5d595d595960921b6044820152606490fd5b156117e857565b60405162461bcd60e51b815260206004820152601460248201527315130e88185b1c9958591e48195e1958dd5d195960621b6044820152606490fd5b1561182b57565b60405162461bcd60e51b815260206004820152600f60248201526e15130e881b9bdd08195e1c1a5c9959608a1b6044820152606490fd5b60035f918281558260018201556002810161187d8154610a64565b908161188a575b50500155565b81601f8693116001146118a15750555b5f80611884565b818352602083206118bd91601f0160051c810190600101611502565b808252602082209081548360011b90841985881b1c19161790555561189a565b604051906118ec604083610ab0565b60128252711d1b17d8db19585b9d5c17d95e1c1a5c995960721b6020830152565b6001600160401b038111610ad35760051b60200190565b9061192e8261190d565b61193b6040519182610ab0565b828152809261194c601f199161190d565b0190602036910137565b80518210156116ec5760209160051b010190565b60405190611979604083610ab0565b600c82526b1d1b17d8591b5a5b97dcd95d60a21b6020830152565b9192608093611470929796959760018060a01b03168452602084015260a0604084015260a0830190610b78565b156119c857565b60405162461bcd60e51b815260206004820152601260248201527115130e88185b1c9958591e481c5d595d595960721b6044820152606490fd5b93909261176d92608094979697865260018060a01b03166020860152604085015260a0606085015260a0840190610b78565b60405190611a43604083610ab0565b600b82526a1d1b17dc995c5d595d595960aa1b6020830152565b908160209103126101c6575180151581036101c65790565b6040513d5f823e3d90fd5b919082039182116113dd57565b15611a9457565b60405162461bcd60e51b8152602060048201526017602482015276544c3a2064656c61792061626f7665206d6178696d756d60481b6044820152606490fd5b60405190611ae2604083610ab0565b600c82526b1d1b17d9195b185e57dcd95d60a21b6020830152565b15611b0457565b60405162461bcd60e51b815260206004820152601a602482015279544c3a206f6e6c792061646d696e2063616e206578656375746560301b6044820152606490fd5b15611b4d57565b60405162461bcd60e51b815260206004820152601760248201527615130e881d1c985b9cd858dd1a5bdb88195e1c1a5c9959604a1b6044820152606490fd5b15611b9357565b60405162461bcd60e51b8152602060048201526009602482015268746f6f206561726c7960b81b6044820152606490fd5b15611bcb57565b60405162461bcd60e51b815260206004820152600a6024820152697269736b2064656c617960b01b6044820152606490fd5b5f9291815491611c0c83610a64565b9260018116908115611c545750600114611c2557505050565b90919293505f5260205f205f905b838210611c405750500190565b600181602092548486015201910190611c33565b60ff191683525050811515909102019150565b3d15611c91573d90611c78826114a2565b91611c866040519384610ab0565b82523d5f602084013e565b606090565b15611c9d57565b60405162461bcd60e51b815260206004820152600b60248201526a195e1958c819985a5b195960aa1b6044820152606490fd5b15611cd757565b60405162461bcd60e51b815260206004820152601d60248201527f544c3a2045524332302063616c6c2072657475726e65642066616c73650000006044820152606490fd5b60405190611d2b604083610ab0565b600b82526a1d1b17d95e1958dd5d195960aa1b6020830152565b5f546001600160a01b03163303611d5857565b63654932c960e01b5f5260045ffd5b6001546001600160a01b031680611d7c575050565b803b156101c657604051633ddd61ab60e21b815230600482015260606024820152915f918391829084908290611db6906064830190610b78565b33604483015203925af1611dc75750565b80611dd35f8093610ab0565b8003126101c65756fea49aa71c414d3b2f375740b6d1ccdc410c42f80840028dc6866aa69b260d66a8a74c8847d513feba22a0f0cb38d53081abf97562cdb293926ba243689e7c41cabaa1eb22f2a492ba1a5fea61b8df4d27c6c8b5f3971e63bb58fa14ff72eedb70a2646970667358221220fc28e4fb5bbeaaddfbf1a2577a1b23d067b53120c9322eaeb54fe6b784cfc59e64736f6c634300081e0033","linkReferences":{}},"methodIdentifiers":{"EXPIRY_WINDOW()":"0d23482b","MAX_DELAY()":"4125ff90","MIN_DELAY()":"9f81aed7","admin()":"f851a440","cancel(bytes32)":"c4d252f5","cleanupExpired(bytes32)":"4a57eeac","delay()":"6a42b8f8","execute(bytes32)":"e751f271","getQueuedTransactions()":"657ed048","getTransactionStatus(bytes32)":"94407465","ledger()":"56397c35","nonce()":"affed0e0","panicGuard()":"97caceda","previewETA()":"098e63b6","queue(bytes32)":"7c10dea6","queueTx(address,uint256,bytes)":"dfc0b6e6","queueTxWithTracking(address,uint256,bytes)":"2aaffe4f","requeueExpired(bytes32)":"7bd2147c","setAdmin(address)":"704b6c02","setDelay(uint64)":"c1073302","setLedger(address)":"3246887d","setPanicGuard(address)":"84a21d59"},"id":7}