{"abi":[{"type":"constructor","inputs":[{"name":"_implementation","type":"address","internalType":"address"},{"name":"_vfideToken","type":"address","internalType":"address"},{"name":"_securityHub","type":"address","internalType":"address"},{"name":"_ledger","type":"address","internalType":"address"},{"name":"_dao","type":"address","internalType":"address"}],"stateMutability":"nonpayable"},{"type":"function","name":"RECOVERY_APPROVALS_REQUIRED","inputs":[],"outputs":[{"name":"","type":"uint8","internalType":"uint8"}],"stateMutability":"view"},{"type":"function","name":"RECOVERY_DELAY","inputs":[],"outputs":[{"name":"","type":"uint64","internalType":"uint64"}],"stateMutability":"view"},{"type":"function","name":"acceptOwnership","inputs":[],"outputs":[],"stateMutability":"nonpayable"},{"type":"function","name":"approveForceRecovery","inputs":[{"name":"vault","type":"address","internalType":"address"},{"name":"newOwner","type":"address","internalType":"address"}],"outputs":[],"stateMutability":"nonpayable"},{"type":"function","name":"cancelOwnershipTransfer","inputs":[],"outputs":[],"stateMutability":"nonpayable"},{"type":"function","name":"checkVaultStatus","inputs":[{"name":"addr","type":"address","internalType":"address"}],"outputs":[{"name":"hasVault","type":"bool","internalType":"bool"},{"name":"vaultAddress","type":"address","internalType":"address"},{"name":"isVaultContract","type":"bool","internalType":"bool"}],"stateMutability":"view"},{"type":"function","name":"dao","inputs":[],"outputs":[{"name":"","type":"address","internalType":"address"}],"stateMutability":"view"},{"type":"function","name":"ensureVault","inputs":[{"name":"owner_","type":"address","internalType":"address"}],"outputs":[{"name":"vault","type":"address","internalType":"address"}],"stateMutability":"nonpayable"},{"type":"function","name":"finalizeForceRecovery","inputs":[{"name":"vault","type":"address","internalType":"address"}],"outputs":[],"stateMutability":"nonpayable"},{"type":"function","name":"getVaultInfo","inputs":[{"name":"vault","type":"address","internalType":"address"}],"outputs":[{"name":"owner_","type":"address","internalType":"address"},{"name":"createdAt","type":"uint256","internalType":"uint256"},{"name":"isLocked","type":"bool","internalType":"bool"},{"name":"exists","type":"bool","internalType":"bool"}],"stateMutability":"view"},{"type":"function","name":"implementation","inputs":[],"outputs":[{"name":"","type":"address","internalType":"address"}],"stateMutability":"view"},{"type":"function","name":"initiateForceRecovery","inputs":[{"name":"vault","type":"address","internalType":"address"},{"name":"newOwner","type":"address","internalType":"address"}],"outputs":[],"stateMutability":"nonpayable"},{"type":"function","name":"isRecoveryApprover","inputs":[{"name":"","type":"address","internalType":"address"}],"outputs":[{"name":"","type":"bool","internalType":"bool"}],"stateMutability":"view"},{"type":"function","name":"isVault","inputs":[{"name":"a","type":"address","internalType":"address"}],"outputs":[{"name":"","type":"bool","internalType":"bool"}],"stateMutability":"view"},{"type":"function","name":"ledger","inputs":[],"outputs":[{"name":"","type":"address","internalType":"contract IProofLedger"}],"stateMutability":"view"},{"type":"function","name":"owner","inputs":[],"outputs":[{"name":"","type":"address","internalType":"address"}],"stateMutability":"view"},{"type":"function","name":"ownerOfVault","inputs":[{"name":"","type":"address","internalType":"address"}],"outputs":[{"name":"","type":"address","internalType":"address"}],"stateMutability":"view"},{"type":"function","name":"pendingOwner","inputs":[],"outputs":[{"name":"","type":"address","internalType":"address"}],"stateMutability":"view"},{"type":"function","name":"predictVault","inputs":[{"name":"owner_","type":"address","internalType":"address"}],"outputs":[{"name":"predicted","type":"address","internalType":"address"}],"stateMutability":"view"},{"type":"function","name":"predictVaultsBatch","inputs":[{"name":"owners","type":"address[]","internalType":"address[]"}],"outputs":[{"name":"vaults","type":"address[]","internalType":"address[]"}],"stateMutability":"view"},{"type":"function","name":"recoveryApprovalCount","inputs":[{"name":"","type":"address","internalType":"address"}],"outputs":[{"name":"","type":"uint8","internalType":"uint8"}],"stateMutability":"view"},{"type":"function","name":"recoveryApprovals","inputs":[{"name":"","type":"address","internalType":"address"},{"name":"","type":"address","internalType":"address"}],"outputs":[{"name":"","type":"bool","internalType":"bool"}],"stateMutability":"view"},{"type":"function","name":"recoveryProposedOwner","inputs":[{"name":"","type":"address","internalType":"address"}],"outputs":[{"name":"","type":"address","internalType":"address"}],"stateMutability":"view"},{"type":"function","name":"recoveryUnlockTime","inputs":[{"name":"","type":"address","internalType":"address"}],"outputs":[{"name":"","type":"uint64","internalType":"uint64"}],"stateMutability":"view"},{"type":"function","name":"securityHub","inputs":[],"outputs":[{"name":"","type":"address","internalType":"contract ISecurityHub"}],"stateMutability":"view"},{"type":"function","name":"setDAO","inputs":[{"name":"_dao","type":"address","internalType":"address"}],"outputs":[],"stateMutability":"nonpayable"},{"type":"function","name":"setImplementation","inputs":[{"name":"_implementation","type":"address","internalType":"address"}],"outputs":[],"stateMutability":"nonpayable"},{"type":"function","name":"setModules","inputs":[{"name":"_vfideToken","type":"address","internalType":"address"},{"name":"_securityHub","type":"address","internalType":"address"},{"name":"_ledger","type":"address","internalType":"address"},{"name":"_dao","type":"address","internalType":"address"}],"outputs":[],"stateMutability":"nonpayable"},{"type":"function","name":"setRecoveryApprover","inputs":[{"name":"approver","type":"address","internalType":"address"},{"name":"status","type":"bool","internalType":"bool"}],"outputs":[],"stateMutability":"nonpayable"},{"type":"function","name":"setVFIDE","inputs":[{"name":"_vfide","type":"address","internalType":"address"}],"outputs":[],"stateMutability":"nonpayable"},{"type":"function","name":"totalVaults","inputs":[],"outputs":[{"name":"","type":"uint256","internalType":"uint256"}],"stateMutability":"view"},{"type":"function","name":"transferOwnership","inputs":[{"name":"newOwner","type":"address","internalType":"address"}],"outputs":[],"stateMutability":"nonpayable"},{"type":"function","name":"vaultCreatedAt","inputs":[{"name":"","type":"address","internalType":"address"}],"outputs":[{"name":"","type":"uint256","internalType":"uint256"}],"stateMutability":"view"},{"type":"function","name":"vaultOf","inputs":[{"name":"","type":"address","internalType":"address"}],"outputs":[{"name":"","type":"address","internalType":"address"}],"stateMutability":"view"},{"type":"function","name":"vfideToken","inputs":[],"outputs":[{"name":"","type":"address","internalType":"address"}],"stateMutability":"view"},{"type":"event","name":"DAOSet","inputs":[{"name":"dao","type":"address","indexed":false,"internalType":"address"}],"anonymous":false},{"type":"event","name":"ForcedRecovery","inputs":[{"name":"vault","type":"address","indexed":true,"internalType":"address"},{"name":"newOwner","type":"address","indexed":true,"internalType":"address"}],"anonymous":false},{"type":"event","name":"ForcedRecoveryInitiated","inputs":[{"name":"vault","type":"address","indexed":true,"internalType":"address"},{"name":"newOwner","type":"address","indexed":true,"internalType":"address"},{"name":"unlockTime","type":"uint64","indexed":false,"internalType":"uint64"}],"anonymous":false},{"type":"event","name":"ImplementationSet","inputs":[{"name":"implementation","type":"address","indexed":true,"internalType":"address"}],"anonymous":false},{"type":"event","name":"ModulesSet","inputs":[{"name":"vfide","type":"address","indexed":false,"internalType":"address"},{"name":"securityHub","type":"address","indexed":false,"internalType":"address"},{"name":"ledger","type":"address","indexed":false,"internalType":"address"},{"name":"dao","type":"address","indexed":false,"internalType":"address"}],"anonymous":false},{"type":"event","name":"OwnershipTransferStarted","inputs":[{"name":"previousOwner","type":"address","indexed":true,"internalType":"address"},{"name":"newOwner","type":"address","indexed":true,"internalType":"address"}],"anonymous":false},{"type":"event","name":"OwnershipTransferred","inputs":[{"name":"previousOwner","type":"address","indexed":true,"internalType":"address"},{"name":"newOwner","type":"address","indexed":true,"internalType":"address"}],"anonymous":false},{"type":"event","name":"VFIDESet","inputs":[{"name":"vfide","type":"address","indexed":false,"internalType":"address"}],"anonymous":false},{"type":"event","name":"VaultCreated","inputs":[{"name":"owner","type":"address","indexed":true,"internalType":"address"},{"name":"vault","type":"address","indexed":true,"internalType":"address"}],"anonymous":false},{"type":"error","name":"VI_NoImplementation","inputs":[]},{"type":"error","name":"VI_NotDAO","inputs":[]},{"type":"error","name":"VI_Zero","inputs":[]}],"bytecode":{"object":"0x6080346101c757601f611f2638819003918201601f19168301916001600160401b038311848410176101cb5780849260a0946040528339810103126101c757610047816101df565b90610054602082016101df565b610060604083016101df565b916100796080610072606084016101df565b92016101df565b5f80546001600160a01b03191633908117825560405196929492917f8be0079c531659141344cd1fd0a4f28419497f9722a3daafe3b4186f6b6457e08180a36001600160a01b031694851561019657600280546001600160a01b031990811688179091556003805482166001600160a01b03808616918217909255600480548416838a16908117909155600580548516848916908117909155600680549095169389169384179094556040517f2ad69807131f242e4c6b9e21338b8d7d7d5f32ab1dfaa1eddfa881c305c8f5e7946080949193919290918c7fab64f92ab780ecbf4f3866f57cee465ff36c89450dcce20237ca7a8d81fb7d135f80a28452602084015260408301526060820152a1604051611d3290816101f48239f35b62461bcd60e51b815260206004820152600c60248201526b15924e9e995c9bcb5a5b5c1b60a21b6044820152606490fd5b5f80fd5b634e487b7160e01b5f52604160045260245ffd5b51906001600160a01b03821682036101c75756fe60806040526004361015610011575f80fd5b5f3560e01c806306d7d6cf146102445780630709df451461023f57806317fd7bf61461023a5780631a6568811461023557806323452b9c146102305780632724fe091461022b57806327a4e1ab146102265780633297992e14610221578063360ca9581461021c5780634162169f14610217578063419d7a8314610212578063435c529b1461020d57806347b456521461020857806356397c35146102035780635c60da1b146101fe578063652b9b41146101f95780636a240a9c146101f457806379ba5097146101ef5780638d654023146101ea5780638da5cb5b146101e557806390229af7146101e05780639f2b8b54146101db5780639f9a6508146101d6578063b079fbff146101d1578063b72d2943146101cc578063b8a71eec146101c7578063c5c82203146101c2578063c93883a5146101bd578063d784d426146101b8578063e01fd215146101b3578063e30c3978146101ae578063e73a914c146101a9578063f20ca7ed146101a4578063f2fde38b1461019f5763fa3fd3bc1461019a575f80fd5b611373565b6112c1565b61127e565b6111e2565b6111ba565b611193565b6110f9565b61108d565b610e8a565b610e62565b610e3a565b610d4a565b610d07565b610cca565b610bcb565b610ba4565b610b87565b610ac9565b610a1e565b610989565b610961565b610939565b61091c565b6108dc565b61089e565b610876565b6107a9565b610784565b61074b565b610708565b6106de565b6104a5565b6103e7565b6103a4565b61026a565b6001600160a01b031690565b6001600160a01b0381160361026657565b5f80fd5b346102665760203660031901126102665760043561028781610255565b6001600160a01b039081165f9081526007602090815260408083205460088352928190205481519385168015158552928401929092529216151591810191909152606090f35b6001600160a01b03165f90815260086020526040902090565b6001600160a01b03165f90815260076020526040902090565b6001600160a01b03165f908152600d6020526040902090565b6001600160a01b03165f908152600e6020526040902090565b6001600160a01b03165f908152600c6020526040902090565b6001600160a01b03165f908152600b6020526040902090565b6001600160a01b03165f908152600a6020526040902090565b9060018060a01b03165f5260205260405f2090565b6001600160a01b03909116815260200190565b34610266576020366003190112610266576004356103c181610255565b60018060a01b03165f526007602052602060018060a01b0360405f205416604051908152f35b34610266576020366003190112610266577f77035913569424ed432f15a527aa4e0317cbefd28ce0fe9cdfe61acd77345c17602060043561042781610255565b61042f611abb565b600380546001600160a01b0319166001600160a01b03929092169182179055604051908152a161047b6104606113f7565b6c1a1d5897dd999a591957dcd95d609a1b6020820152611b28565b005b60409060031901126102665760043561049581610255565b906024356104a281610255565b90565b34610266576104b33661047d565b335f908152600f602052604090209091906104d9906104d4905b5460ff1690565b61145f565b6001600160a01b03811691821580156106c3575b6106b45761051461050d610508610503856102cd565b6113ae565b610249565b151561149d565b61052c610526610508610503846102e6565b156114d9565b6105486105446104cd3361053f866102ff565b61037c565b1590565b610655575b600360ff61055d6104cd85610318565b16101561056657005b61047b926105968261057785610331565b80546001600160a01b0319166001600160a01b03909216919091179055565b6105d96105b16105a542611576565b6001600160401b031690565b6105ba8561034a565b80546001600160401b0319166001600160401b03909216919091179055565b7f4f6a320f55ac586fc5dbafc5a9d39bf84e088884ac86cb6391a2ced7e237c83161063c6106166106098661034a565b546001600160401b031690565b6040516001600160a01b0390951694918291826001600160401b03909116815260200190565b0390a3610647611586565b61064f61140c565b91611b9d565b6106726106653361053f856102ff565b805460ff19166001179055565b61069f61067e83610318565b61069161068c825460ff1690565b61152c565b60ff1660ff19825416179055565b6106af6106aa611542565b611b28565b61054d565b630f0f611b60e01b5f5260045ffd5b506001600160a01b038116156104ed565b5f91031261026657565b34610266575f366003190112610266576106f6611abb565b600180546001600160a01b0319169055005b346102665760203660031901126102665760043561072581610255565b60018060a01b03165f526008602052602060018060a01b0360405f205416604051908152f35b3461026657602036600319011261026657602061077260043561076d81610255565b6115ac565b6040516001600160a01b039091168152f35b34610266575f36600319011261026657602060405160038152f35b8015150361026657565b34610266576040366003190112610266576004356107c681610255565b602435906107d38261079f565b6107db611abb565b6001600160a01b03166107ef811515611637565b5f52600f60205261080f8160405f209060ff801983541691151516179055565b156108445761047b61081f611435565b761c9958dbdd995c9e57d85c1c1c9bdd995c97d859191959604a1b6020820152611b28565b61047b61084f611420565b781c9958dbdd995c9e57d85c1c1c9bdd995c97dc995b5bdd9959603a1b6020820152611b28565b34610266575f366003190112610266576006546040516001600160a01b039091168152602090f35b34610266576020366003190112610266576004356108bb81610255565b60018060a01b03165f52600e602052602060ff60405f205416604051908152f35b34610266576020366003190112610266576004356108f981610255565b60018060a01b03165f52600f602052602060ff60405f2054166040519015158152f35b34610266575f36600319011261026657602060405162093a808152f35b34610266575f366003190112610266576005546040516001600160a01b039091168152602090f35b34610266575f366003190112610266576002546040516001600160a01b039091168152602090f35b34610266576020366003190112610266576109e16004356109a981610255565b6001600160a01b039081165f81815260086020526040902054909116151590816109e5575b5060405190151581529081906020820190565b0390f35b8091505f52600860205260018060a01b0360405f2054165f52600760205260018060a01b03610a1660405f206113ae565b16145f6109ce565b3461026657610a2c3661047d565b90610a3b610508600654610249565b3303610aba576001600160a01b0381169182158015610aa9575b6106b45761047b92610a6f61050d610508610503866102cd565b610a81610526610508610503856102e6565b610a9c600360ff610a946104cd87610318565b16101561166d565b6105968261057785610331565b506001600160a01b03811615610a55565b6369a473cf60e11b5f5260045ffd5b34610266575f366003190112610266576001546001600160a01b03163303610b49575f5433906001600160a01b0390610b0190610249565b167f8be0079c531659141344cd1fd0a4f28419497f9722a3daafe3b4186f6b6457e05f80a35f80546001600160a01b03191633179055600180546001600160a01b0319169055005b60405162461bcd60e51b815260206004820152601660248201527527aba71d103737ba103832b73234b7339037bbb732b960511b6044820152606490fd5b34610266575f366003190112610266576020600954604051908152f35b34610266575f366003190112610266575f546040516001600160a01b039091168152602090f35b3461026657602036600319011261026657600435610be881610255565b610bf4610503826102cd565b610bfd82610363565b5490610c0d610508600454610249565b92610c1784610249565b15159384610c53575b5050604080516001600160a01b039290921680835260208301939093529215159281019290925215156060820152608090f35b610c78929450906020916040518080958194631293efbb60e21b835260048301610391565b03915afa8015610cc5576109e1915f91610c96575b5092905f610c20565b610cb8915060203d602011610cbe575b610cb081836113cf565b8101906116b5565b5f610c8d565b503d610ca6565b6116ca565b3461026657602060ff610cfb610cdf3661047d565b6001600160a01b039091165f908152600d85526040902061037c565b54166040519015158152f35b3461026657602036600319011261026657600435610d2481610255565b60018060a01b03165f52600c602052602060018060a01b0360405f205416604051908152f35b34610266576080366003190112610266577f2ad69807131f242e4c6b9e21338b8d7d7d5f32ab1dfaa1eddfa881c305c8f5e7600435610d8881610255565b60243590610d9582610255565b610e2c604435610da481610255565b60643590610db182610255565b610db9611abb565b600380546001600160a01b039586166001600160a01b03199182168117909255600480549787169782168817905560058054938716938216841790556006805494909616931683179094556040805194855260208501959095529383019390935260608201929092529081906080820190565b0390a161047b6106aa6116d5565b34610266575f366003190112610266576004546040516001600160a01b039091168152602090f35b34610266575f366003190112610266576003546040516001600160a01b039091168152602090f35b3461026657602036600319011261026657600435610ea781610255565b610eb5610508600654610249565b3303610aba57610eda6001600160401b03610ed26106098461034a565b161515611702565b610ef4610eec6105a56106098461034a565b42101561173a565b610f0061050382610331565b906001600160a01b038216610f16811515611637565b610f28610526610508610503866102e6565b610f34610503836102cd565b6001600160a01b038116611039575b50610f5183610577846102cd565b610f5e82610577856102e6565b6001600160a01b038216803b15610266575f610f8e94604051809681926324d89a6360e21b835260048301610391565b038183855af1938415610cc55761047b9461101f575b50610fc1610fb184610331565b80546001600160a01b0319169055565b610fdd610fcd8461034a565b80546001600160401b0319169055565b610ff3610fe984610318565b805460ff19169055565b7f95d14defab6a2b4ee4b7409bbb87adbfd28ae37e235f30d9a96198e6825dbc3b5f80a3610647611774565b8061102d5f611033936113cf565b806106d4565b5f610fa4565b610fb1611045916102e6565b5f610f43565b60206040818301928281528451809452019201905f5b81811061106e5750505090565b82516001600160a01b0316845260209384019390920191600101611061565b34610266576020366003190112610266576004356001600160401b0381116102665736602382011215610266576004810135906001600160401b038211610266573660248360051b83010111610266576109e19160246110ed92016117bc565b6040519182918261104b565b346102665760203660031901126102665760043561111681610255565b61111e611abb565b6001600160a01b0316611132811515611637565b600280546001600160a01b031916821790557fab64f92ab780ecbf4f3866f57cee465ff36c89450dcce20237ca7a8d81fb7d135f80a261047b61117361144a565b711a5b5c1b195b595b9d185d1a5bdb97dcd95d60721b6020820152611b28565b346102665760203660031901126102665760206107726004356111b581610255565b6118b7565b34610266575f366003190112610266576001546040516001600160a01b039091168152602090f35b34610266576020366003190112610266577f8aad84fcad50e723fa3bcf0fb32c5bea4c71078b77b9aedfa638f146f3a3f7b9602060043561122281610255565b61122a611abb565b600680546001600160a01b0319166001600160a01b03929092169182179055604051908152a161047b6040516112616040826113cf565b600b81526a1a1d5897d9185bd7dcd95d60aa1b6020820152611b28565b346102665760203660031901126102665760043561129b81610255565b60018060a01b03165f52600b602052602060018060401b0360405f205416604051908152f35b34610266576020366003190112610266576004356112de81610255565b6112e6611abb565b6001600160a01b0316801561134257600180546001600160a01b031916821790555f546001600160a01b039061131b90610249565b167f38d16b8cac22d99fc7c124b9cd0de2d3fa1faef420bfe791d8c362d765e227005f80a3005b60405162461bcd60e51b81526020600482015260096024820152684f574e3a207a65726f60b81b6044820152606490fd5b346102665760203660031901126102665760043561139081610255565b60018060a01b03165f52600a602052602060405f2054604051908152f35b546001600160a01b031690565b634e487b7160e01b5f52604160045260245ffd5b601f909101601f19168101906001600160401b038211908210176113f257604052565b6113bb565b604051906114066040836113cf565b600d8252565b6040519061141b6020836113cf565b5f8252565b6040519061142f6040836113cf565b60198252565b604051906114446040836113cf565b60178252565b604051906114596040836113cf565b60128252565b1561146657565b60405162461bcd60e51b815260206004820152600f60248201526e2b249d3737ba16b0b8383937bb32b960891b6044820152606490fd5b156114a457565b60405162461bcd60e51b815260206004820152600d60248201526c1d5b9adb9bdddb881d985d5b1d609a1b6044820152606490fd5b156114e057565b60405162461bcd60e51b815260206004820152601060248201526f1d185c99d95d081a185cc81d985d5b1d60821b6044820152606490fd5b634e487b7160e01b5f52601160045260245ffd5b60ff1660ff811461153d5760010190565b611518565b604051906115516040836113cf565b60168252751c9958dbdd995c9e57d85c1c1c9bdd985b17d8d85cdd60521b6020830152565b9062093a80820180921161153d57565b61158e61144a565b9071199bdc98d957dc9958dbdd995c97da5b9a5d60721b6020830152565b6001600160a01b038116156116325760436115c8605592611c40565b60025460405130606090811b60388301526f5af43d82803e903d91602b57fd5bf3ff60248301529190911b6001600160601b0319166014820152733d602d80600a3d3981f3363d3d373d3d3d363d73815260588101919091526037600c8201206078820152012090565b505f90565b1561163e57565b60405162461bcd60e51b815260206004820152600760248201526656493a7a65726f60c81b6044820152606490fd5b1561167457565b60405162461bcd60e51b815260206004820152601960248201527856493a696e73756666696369656e742d617070726f76616c7360381b6044820152606490fd5b9081602091031261026657516104a28161079f565b6040513d5f823e3d90fd5b604051906116e46040836113cf565b600f82526e1a1d5897db5bd91d5b195cd7dcd95d608a1b6020830152565b1561170957565b60405162461bcd60e51b815260206004820152600960248201526856493a6e6f2d72657160b81b6044820152606490fd5b1561174157565b60405162461bcd60e51b815260206004820152600b60248201526a56493a74696d656c6f636b60a81b6044820152606490fd5b604051906117836040836113cf565b6013825272199bdc98d957dc9958dbdd995c97d99a5b985b606a1b6020830152565b6001600160401b0381116113f25760051b60200190565b6117c5826117a5565b926117d360405194856113cf565b828452601f196117e2846117a5565b0136602086013783905f5b84811015611845578060051b9061180a8286013561076d81610255565b918751821015611831576001600160a01b03909216918701602001919091526001016117ed565b634e487b7160e01b5f52603260045260245ffd5b509250925050565b1561185457565b60405162461bcd60e51b815260206004820152600c60248201526b18db1bdb994819985a5b195960a21b6044820152606490fd5b5f19811461153d5760010190565b61189e6113f7565b906c1d985d5b1d17d8dc99585d1959609a1b6020830152565b6001600160a01b038116919082156106b4576118d7610508600354610249565b156106b4576118e7600254610249565b6118f081610249565b15611aac57611901610503836102e6565b6001600160a01b038116611aa657506119239061191d83611c40565b90611c70565b926001600160a01b0384169161193a83151561184d565b611945600354610249565b90611954610508600454610249565b91611963610508600554610249565b853b1561026657604051630a2ca2bd60e11b81523060048201526001600160a01b039283166024820152838316604482015293821660648501521660848301525f8260a48183885af1918215610cc5576119d392611a92575b506119ca86610577836102e6565b610577866102cd565b6119e66119e1600954611888565b600955565b426119f085610363565b556119ff610508600454610249565b611a0881610249565b611a4e575b507f5d9c31ffa0fecffd7cf379989a3c7af252f0335e0d2a1320b55245912c781f535f80a3611a4c611a3d611896565b611a4561140c565b9084611b9d565b565b803b15610266575f60405180926367ccd1cb60e01b8252818381611a758b60048301610391565b03925af115611a0d578061102d5f611a8c936113cf565b5f611a0d565b8061102d5f611aa0936113cf565b5f6119bc565b93505050565b63f186fd8760e01b5f5260045ffd5b5f546001600160a01b03163303611ace57565b60405162461bcd60e51b815260206004820152600e60248201526d27aba71d103737ba1037bbb732b960911b6044820152606490fd5b805180835260209291819084018484015e5f828201840152601f01601f1916010190565b6005546001600160a01b031680611b3d575050565b803b1561026657604051633ddd61ab60e21b815230600482015260606024820152915f918391829084908290611b77906064830190611b04565b33604483015203925af1611b885750565b80611b945f80936113cf565b80031261026657565b6005549092906001600160a01b031680611bb8575b50505050565b803b1561026657604051630303c28760e61b81526001600160a01b0390941660048501908152608060248601525f938593849286928492611c169291611c02906084860190611b04565b918560408201526060818403910152611b04565b03925af1611c27575b808080611bb2565b80611c335f80936113cf565b800312610266575f611c1f565b60405160609190911b6001600160601b031916602082019081526014825290611c6a6034826113cf565b51902090565b733d602d80600a3d3981f3363d3d373d3d3d363d7360601b5f5260601b6014526e5af43d82803e903d91602b57fd5bf360881b60285260375f80f5906001600160a01b03821615611cbd57565b60405162461bcd60e51b8152602060048201526017602482015276115490cc4c4d8dce8818dc99585d194c8819985a5b1959604a1b6044820152606490fdfea2646970667358221220cb8ac50e0d3023716a8f2267e22412a4bfc3e4e69600351330c6e591c8fb849e64736f6c634300081e0033","linkReferences":{}},"methodIdentifiers":{"RECOVERY_APPROVALS_REQUIRED()":"3297992e","RECOVERY_DELAY()":"47b45652","acceptOwnership()":"79ba5097","approveForceRecovery(address,address)":"1a656881","cancelOwnershipTransfer()":"23452b9c","checkVaultStatus(address)":"06d7d6cf","dao()":"4162169f","ensureVault(address)":"e01fd215","finalizeForceRecovery(address)":"c5c82203","getVaultInfo(address)":"90229af7","implementation()":"5c60da1b","initiateForceRecovery(address,address)":"6a240a9c","isRecoveryApprover(address)":"435c529b","isVault(address)":"652b9b41","ledger()":"56397c35","owner()":"8da5cb5b","ownerOfVault(address)":"2724fe09","pendingOwner()":"e30c3978","predictVault(address)":"27a4e1ab","predictVaultsBatch(address[])":"c93883a5","recoveryApprovalCount(address)":"419d7a83","recoveryApprovals(address,address)":"9f2b8b54","recoveryProposedOwner(address)":"9f9a6508","recoveryUnlockTime(address)":"f20ca7ed","securityHub()":"b72d2943","setDAO(address)":"e73a914c","setImplementation(address)":"d784d426","setModules(address,address,address,address)":"b079fbff","setRecoveryApprover(address,bool)":"360ca958","setVFIDE(address)":"17fd7bf6","totalVaults()":"8d654023","transferOwnership(address)":"f2fde38b","vaultCreatedAt(address)":"fa3fd3bc","vaultOf(address)":"0709df45","vfideToken()":"b8a71eec"},"id":43}