{
  "_format": "hh-sol-artifact-1",
  "contractName": "BadgeRegistry",
  "sourceName": "contracts/BadgeRegistry.sol",
  "abi": [
    {
      "inputs": [],
      "name": "ACTIVE_TRADER",
      "outputs": [
        {
          "internalType": "bytes32",
          "name": "",
          "type": "bytes32"
        }
      ],
      "stateMutability": "view",
      "type": "function"
    },
    {
      "inputs": [],
      "name": "BUG_BOUNTY",
      "outputs": [
        {
          "internalType": "bytes32",
          "name": "",
          "type": "bytes32"
        }
      ],
      "stateMutability": "view",
      "type": "function"
    },
    {
      "inputs": [],
      "name": "CENTURY_ENDORSER",
      "outputs": [
        {
          "internalType": "bytes32",
          "name": "",
          "type": "bytes32"
        }
      ],
      "stateMutability": "view",
      "type": "function"
    },
    {
      "inputs": [],
      "name": "CLEAN_RECORD",
      "outputs": [
        {
          "internalType": "bytes32",
          "name": "",
          "type": "bytes32"
        }
      ],
      "stateMutability": "view",
      "type": "function"
    },
    {
      "inputs": [],
      "name": "COMMUNITY_BUILDER",
      "outputs": [
        {
          "internalType": "bytes32",
          "name": "",
          "type": "bytes32"
        }
      ],
      "stateMutability": "view",
      "type": "function"
    },
    {
      "inputs": [],
      "name": "CONTRIBUTOR",
      "outputs": [
        {
          "internalType": "bytes32",
          "name": "",
          "type": "bytes32"
        }
      ],
      "stateMutability": "view",
      "type": "function"
    },
    {
      "inputs": [],
      "name": "DAILY_CHAMPION",
      "outputs": [
        {
          "internalType": "bytes32",
          "name": "",
          "type": "bytes32"
        }
      ],
      "stateMutability": "view",
      "type": "function"
    },
    {
      "inputs": [],
      "name": "DIVERSIFICATION_MASTER",
      "outputs": [
        {
          "internalType": "bytes32",
          "name": "",
          "type": "bytes32"
        }
      ],
      "stateMutability": "view",
      "type": "function"
    },
    {
      "inputs": [],
      "name": "EARLY_TESTER",
      "outputs": [
        {
          "internalType": "bytes32",
          "name": "",
          "type": "bytes32"
        }
      ],
      "stateMutability": "view",
      "type": "function"
    },
    {
      "inputs": [],
      "name": "EDUCATOR",
      "outputs": [
        {
          "internalType": "bytes32",
          "name": "",
          "type": "bytes32"
        }
      ],
      "stateMutability": "view",
      "type": "function"
    },
    {
      "inputs": [],
      "name": "ELITE_ACHIEVER",
      "outputs": [
        {
          "internalType": "bytes32",
          "name": "",
          "type": "bytes32"
        }
      ],
      "stateMutability": "view",
      "type": "function"
    },
    {
      "inputs": [],
      "name": "ELITE_MERCHANT",
      "outputs": [
        {
          "internalType": "bytes32",
          "name": "",
          "type": "bytes32"
        }
      ],
      "stateMutability": "view",
      "type": "function"
    },
    {
      "inputs": [],
      "name": "FOUNDING_MEMBER",
      "outputs": [
        {
          "internalType": "bytes32",
          "name": "",
          "type": "bytes32"
        }
      ],
      "stateMutability": "view",
      "type": "function"
    },
    {
      "inputs": [],
      "name": "FRAUD_HUNTER",
      "outputs": [
        {
          "internalType": "bytes32",
          "name": "",
          "type": "bytes32"
        }
      ],
      "stateMutability": "view",
      "type": "function"
    },
    {
      "inputs": [],
      "name": "GENESIS_PRESALE",
      "outputs": [
        {
          "internalType": "bytes32",
          "name": "",
          "type": "bytes32"
        }
      ],
      "stateMutability": "view",
      "type": "function"
    },
    {
      "inputs": [],
      "name": "GOVERNANCE_VOTER",
      "outputs": [
        {
          "internalType": "bytes32",
          "name": "",
          "type": "bytes32"
        }
      ],
      "stateMutability": "view",
      "type": "function"
    },
    {
      "inputs": [],
      "name": "GUARDIAN",
      "outputs": [
        {
          "internalType": "bytes32",
          "name": "",
          "type": "bytes32"
        }
      ],
      "stateMutability": "view",
      "type": "function"
    },
    {
      "inputs": [],
      "name": "INSTANT_SETTLEMENT",
      "outputs": [
        {
          "internalType": "bytes32",
          "name": "",
          "type": "bytes32"
        }
      ],
      "stateMutability": "view",
      "type": "function"
    },
    {
      "inputs": [],
      "name": "MENTOR",
      "outputs": [
        {
          "internalType": "bytes32",
          "name": "",
          "type": "bytes32"
        }
      ],
      "stateMutability": "view",
      "type": "function"
    },
    {
      "inputs": [],
      "name": "PEACEMAKER",
      "outputs": [
        {
          "internalType": "bytes32",
          "name": "",
          "type": "bytes32"
        }
      ],
      "stateMutability": "view",
      "type": "function"
    },
    {
      "inputs": [],
      "name": "PIONEER",
      "outputs": [
        {
          "internalType": "bytes32",
          "name": "",
          "type": "bytes32"
        }
      ],
      "stateMutability": "view",
      "type": "function"
    },
    {
      "inputs": [],
      "name": "POWER_USER",
      "outputs": [
        {
          "internalType": "bytes32",
          "name": "",
          "type": "bytes32"
        }
      ],
      "stateMutability": "view",
      "type": "function"
    },
    {
      "inputs": [],
      "name": "REDEMPTION",
      "outputs": [
        {
          "internalType": "bytes32",
          "name": "",
          "type": "bytes32"
        }
      ],
      "stateMutability": "view",
      "type": "function"
    },
    {
      "inputs": [],
      "name": "TRANSLATOR",
      "outputs": [
        {
          "internalType": "bytes32",
          "name": "",
          "type": "bytes32"
        }
      ],
      "stateMutability": "view",
      "type": "function"
    },
    {
      "inputs": [],
      "name": "TRUSTED_ENDORSER",
      "outputs": [
        {
          "internalType": "bytes32",
          "name": "",
          "type": "bytes32"
        }
      ],
      "stateMutability": "view",
      "type": "function"
    },
    {
      "inputs": [],
      "name": "VERIFIED_MERCHANT",
      "outputs": [
        {
          "internalType": "bytes32",
          "name": "",
          "type": "bytes32"
        }
      ],
      "stateMutability": "view",
      "type": "function"
    },
    {
      "inputs": [],
      "name": "WHALE_SLAYER",
      "outputs": [
        {
          "internalType": "bytes32",
          "name": "",
          "type": "bytes32"
        }
      ],
      "stateMutability": "view",
      "type": "function"
    },
    {
      "inputs": [],
      "name": "ZERO_DISPUTE",
      "outputs": [
        {
          "internalType": "bytes32",
          "name": "",
          "type": "bytes32"
        }
      ],
      "stateMutability": "view",
      "type": "function"
    },
    {
      "inputs": [
        {
          "internalType": "bytes32",
          "name": "badge",
          "type": "bytes32"
        }
      ],
      "name": "getCategory",
      "outputs": [
        {
          "internalType": "string",
          "name": "",
          "type": "string"
        }
      ],
      "stateMutability": "pure",
      "type": "function"
    },
    {
      "inputs": [
        {
          "internalType": "bytes32",
          "name": "badge",
          "type": "bytes32"
        }
      ],
      "name": "getName",
      "outputs": [
        {
          "internalType": "string",
          "name": "",
          "type": "string"
        }
      ],
      "stateMutability": "pure",
      "type": "function"
    },
    {
      "inputs": [
        {
          "internalType": "bytes32",
          "name": "badge",
          "type": "bytes32"
        }
      ],
      "name": "getRecommendedDuration",
      "outputs": [
        {
          "internalType": "uint256",
          "name": "",
          "type": "uint256"
        }
      ],
      "stateMutability": "pure",
      "type": "function"
    },
    {
      "inputs": [
        {
          "internalType": "bytes32",
          "name": "badge",
          "type": "bytes32"
        }
      ],
      "name": "getRecommendedWeight",
      "outputs": [
        {
          "internalType": "uint16",
          "name": "",
          "type": "uint16"
        }
      ],
      "stateMutability": "pure",
      "type": "function"
    },
    {
      "inputs": [
        {
          "internalType": "bytes32",
          "name": "badge",
          "type": "bytes32"
        }
      ],
      "name": "isPermanent",
      "outputs": [
        {
          "internalType": "bool",
          "name": "",
          "type": "bool"
        }
      ],
      "stateMutability": "pure",
      "type": "function"
    },
    {
      "inputs": [
        {
          "internalType": "bytes32",
          "name": "badge",
          "type": "bytes32"
        }
      ],
      "name": "isValidBadge",
      "outputs": [
        {
          "internalType": "bool",
          "name": "",
          "type": "bool"
        }
      ],
      "stateMutability": "pure",
      "type": "function"
    }
  ],
  "bytecode": "0x60808060405234601957611f6a908161001f823930815050f35b600080fdfe608080604052600436101561001357600080fd5b60003560e01c9081630fd8995414610b355750806315a64adf14610b115780631d6b9a4014610aed5780631d7ee0a914610ac957806324aa8e5114610aa55780632a0a057814610a81578063368f301814610a5d5780633b58bc8114610a395780633d5aeb1514610a155780633e201359146109f1578063403c792c146109cd57806345f42d78146109a9578063473b084c1461098f57806347c604651461096b57806354b8d5e31461094157806355f9ab441461076f57806361fa40dc1461074b57806363a3a31a146107275780636f143be114610706578063724c184c146106e2578063737fee10146106bd57806375ff8bcf14610699578063770cc2d6146106755780637c91e54414610651578063a27a14a01461062d578063a8fb88ae14610609578063aa7ca98e146105e5578063adbeb22a146105c1578063b8e3de031461059d578063bb15466d14610579578063d1ef0abe14610206578063dbc6a871146101e2578063f88d10ee146101be5763f8e7813a1461019557600080fd5b60003660031901126101b9576020604051600080516020611e358339815191528152f35b600080fd5b60003660031901126101b9576020604051600080516020611d358339815191528152f35b60003660031901126101b9576020604051600080516020611c958339815191528152f35b60203660031901126101b9576020600435600080516020611eb58339815191528114908115610561575b8115610549575b8115610531575b8115610519575b8115610501575b81156104e9575b81156104d1575b81156104b9575b81156104a1575b8115610489575b8115610471575b8115610459575b8115610441575b8115610429575b8115610411575b81156103f9575b81156103e1575b81156103c9575b81156103b1575b8115610399575b8115610381575b8115610369575b8115610351575b8115610339575b8115610321575b8115610309575b81156102f1575b506040519015158152f35b600080516020611e15833981519152915014826102e6565b600080516020611ed5833981519152811491506102df565b600080516020611c15833981519152811491506102d8565b600080516020611c35833981519152811491506102d1565b600080516020611e95833981519152811491506102ca565b600080516020611bf5833981519152811491506102c3565b600080516020611d15833981519152811491506102bc565b600080516020611e75833981519152811491506102b5565b600080516020611c75833981519152811491506102ae565b600080516020611f15833981519152811491506102a7565b600080516020611e55833981519152811491506102a0565b600080516020611dd583398151915281149150610299565b600080516020611c9583398151915281149150610292565b600080516020611ef58339815191528114915061028b565b600080516020611d5583398151915281149150610284565b600080516020611d958339815191528114915061027d565b600080516020611e3583398151915281149150610276565b600080516020611db58339815191528114915061026f565b600080516020611d7583398151915281149150610268565b600080516020611cf583398151915281149150610261565b600080516020611df58339815191528114915061025a565b600080516020611d3583398151915281149150610253565b600080516020611cd58339815191528114915061024c565b600080516020611bd583398151915281149150610245565b600080516020611cb58339815191528114915061023e565b600080516020611bb583398151915281149150610237565b600080516020611c5583398151915281149150610230565b60003660031901126101b9576020604051600080516020611d158339815191528152f35b60003660031901126101b9576020604051600080516020611df58339815191528152f35b60003660031901126101b9576020604051600080516020611f158339815191528152f35b60003660031901126101b9576020604051600080516020611e558339815191528152f35b60003660031901126101b9576020604051600080516020611ed58339815191528152f35b60003660031901126101b9576020604051600080516020611e958339815191528152f35b60003660031901126101b9576020604051600080516020611bd58339815191528152f35b60003660031901126101b9576020604051600080516020611eb58339815191528152f35b60003660031901126101b9576020604051600080516020611db58339815191528152f35b60203660031901126101b95760206106d660043561192f565b61ffff60405191168152f35b60003660031901126101b9576020604051600080516020611c758339815191528152f35b60203660031901126101b957602061071f60043561181c565b604051908152f35b60003660031901126101b9576020604051600080516020611d758339815191528152f35b60003660031901126101b9576020604051600080516020611c158339815191528152f35b60203660031901126101b9576020600435600080516020611eb58339815191528114908115610929575b8115610911575b81156108f9575b81156108e1575b81156108c9575b81156108b1575b8115610899575b8115610881575b8115610869575b8115610851575b8115610839575b8115610821575b81156108095781156103215781156103095781156102f157506040519015158152f35b600080516020611e95833981519152811491506102d1565b600080516020611bf5833981519152811491506107e6565b600080516020611d15833981519152811491506107df565b600080516020611e75833981519152811491506107d8565b600080516020611c75833981519152811491506107d1565b600080516020611f15833981519152811491506107ca565b600080516020611dd5833981519152811491506107c3565b600080516020611db5833981519152811491506107bc565b600080516020611d75833981519152811491506107b5565b600080516020611cf5833981519152811491506107ae565b600080516020611cb5833981519152811491506107a7565b600080516020611bb5833981519152811491506107a0565b600080516020611c5583398151915281149150610799565b60203660031901126101b95761096761095b6004356111a0565b60405191829182610b57565b0390f35b60003660031901126101b9576020604051600080516020611ef58339815191528152f35b60203660031901126101b95761096761095b600435610d37565b60003660031901126101b9576020604051600080516020611cb58339815191528152f35b60003660031901126101b9576020604051600080516020611d558339815191528152f35b60003660031901126101b9576020604051600080516020611e158339815191528152f35b60003660031901126101b9576020604051600080516020611e758339815191528152f35b60003660031901126101b9576020604051600080516020611cd58339815191528152f35b60003660031901126101b9576020604051600080516020611bb58339815191528152f35b60003660031901126101b9576020604051600080516020611cf58339815191528152f35b60003660031901126101b9576020604051600080516020611c358339815191528152f35b60003660031901126101b9576020604051600080516020611bf58339815191528152f35b60003660031901126101b9576020604051600080516020611c558339815191528152f35b60003660031901126101b9576020604051600080516020611d958339815191528152f35b60003660031901126101b95780600080516020611dd583398151915260209252f35b91909160208152825180602083015260005b818110610b8a575060409293506000838284010152601f8019910116010190565b8060208092870101516040828601015201610b69565b60405190604082018281106001600160401b03821117610bc35760405260148252565b634e487b7160e01b600052604160045260246000fd5b60405190604082018281106001600160401b03821117610bc35760405260188252565b60405190604082018281106001600160401b03821117610bc35760405260118252565b60405190604082018281106001600160401b03821117610bc35760405260078252565b60405190604082018281106001600160401b03821117610bc357604052600f8252565b60405190604082018281106001600160401b03821117610bc357604052600c8252565b60405190604082018281106001600160401b03821117610bc357604052600d8252565b60405190604082018281106001600160401b03821117610bc35760405260108252565b60405190604082018281106001600160401b03821117610bc357604052600a8252565b60405190604082018281106001600160401b03821117610bc357604052600e8252565b60405190604082018281106001600160401b03821117610bc35760405260088252565b600080516020611eb583398151915281148015611189575b8015611172575b801561115b575b61113257600080516020611bd58339815191528114801561111b575b8015611104575b80156110ed575b6110c057600080516020611cf5833981519152811480156110a9575b8015611092575b801561107b575b61105557600080516020611d958339815191528114801561103e575b8015611027575b8015611010575b610fe757600080516020611dd583398151915281148015610fd0575b8015610fb9575b8015610fa2575b610f7957600080516020611e7583398151915281148015610f62575b8015610f4b575b8015610f34575b610eee57600080516020611c358339815191528114908115610ed6575b8115610ebe575b8115610ea6575b50610e7a57610e67610c1f565b662ab735b737bbb760c91b602082015290565b610e82610bd9565b7722b23ab1b0ba34b7b710131021b7b73a3934b13aba34b7b760411b602082015290565b600080516020611e1583398151915291501438610e5a565b600080516020611ed583398151915281149150610e53565b600080516020611c1583398151915281149150610e4c565b50604051604081018181106001600160401b03821117610bc3576040526019815278416368696576656d656e74732026204d696c6573746f6e657360381b602082015290565b50600080516020611e958339815191528114610e2f565b50600080516020611bf58339815191528114610e28565b50600080516020611d158339815191528114610e21565b50610f82610ba0565b735365637572697479202620496e7465677269747960601b602082015290565b50600080516020611c758339815191528114610e05565b50600080516020611f158339815191528114610dfe565b50600080516020611e558339815191528114610df7565b50610ff0610ba0565b73436f6d6d657263652026204d65726368616e747360601b602082015290565b50600080516020611c958339815191528114610ddb565b50600080516020611ef58339815191528114610dd4565b50600080516020611d558339815191528114610dcd565b5061105e610bfc565b705472757374202620436f6d6d756e69747960781b602082015290565b50600080516020611e358339815191528114610db1565b50600080516020611db58339815191528114610daa565b50600080516020611d758339815191528114610da3565b506110c9610bd9565b7720b1ba34bb34ba3c9013102830b93a34b1b4b830ba34b7b760411b602082015290565b50600080516020611df58339815191528114610d87565b50600080516020611d358339815191528114610d80565b50600080516020611cd58339815191528114610d79565b5061113b610ba0565b732834b7b732b2b91013102337bab73230ba34b7b760611b602082015290565b50600080516020611cb58339815191528114610d5d565b50600080516020611bb58339815191528114610d56565b50600080516020611c558339815191528114610d4f565b600080516020611eb5833981519152811461180057600080516020611c5583398151915281146117dc57600080516020611bb583398151915281146117b857600080516020611cb5833981519152811461179757600080516020611bd5833981519152811461177557600080516020611cd5833981519152811461175057600080516020611d35833981519152811461173157600080516020611df5833981519152811461170e57600080516020611cf583398151915281146116e957600080516020611d7583398151915281146116c357600080516020611db583398151915281146116a457600080516020611e35833981519152811461167157600080516020611d95833981519152811461164b57600080516020611d55833981519152811461162857600080516020611ef583398151915281146115e957600080516020611c9583398151915281146115c857600080516020611dd583398151915281146115a757600080516020611e55833981519152811461158657600080516020611f15833981519152811461156757600080516020611c75833981519152811461154a57600080516020611e75833981519152811461152757600080516020611d15833981519152811461150257600080516020611bf583398151915281146114e157600080516020611e95833981519152811461149e57600080516020611c35833981519152811461148157600080516020611c15833981519152811461144957600080516020611ed5833981519152811461142a57600080516020611e158339815191521461140c576113f3610c88565b6c556e6b6e6f776e20426164676560981b602082015290565b611414610cce565b692a3930b739b630ba37b960b11b602082015290565b50611433610cce565b6942756720426f756e747960b01b602082015290565b50604051604081018181106001600160401b03821117610bc357604052600b81526a21b7b73a3934b13aba37b960a91b602082015290565b5061148a610d14565b6722b23ab1b0ba37b960c11b602082015290565b50604051604081018181106001600160401b03821117610bc35760405260168152752234bb32b939b4b334b1b0ba34b7b71026b0b9ba32b960511b602082015290565b506114ea610c65565b6b2bb430b6329029b630bcb2b960a11b602082015290565b5061150b610cab565b6f21b2b73a3ab93c9022b73237b939b2b960811b602082015290565b50611530610cf1565b6d22b634ba329020b1b434b2bb32b960911b602082015290565b50611553610d14565b6723bab0b93234b0b760c11b602082015290565b50611570610cce565b692932b232b6b83a34b7b760b11b602082015290565b5061158f610c65565b6b10db19585b88149958dbdc9960a21b602082015290565b506115b0610c65565b6b233930bab210243ab73a32b960a11b602082015290565b506115d1610c65565b6b5a65726f204469737075746560a01b602082015290565b50604051604081018181106001600160401b03821117610bc3576040526012815271125b9cdd185b9d0814d95d1d1b195b595b9d60721b602082015290565b50611631610cf1565b6d115b1a5d194813595c98da185b9d60921b602082015290565b50611654610bfc565b7015995c9a599a59590813595c98da185b9d607a1b602082015290565b50604051604081018181106001600160401b03821117610bc357604052600681526526b2b73a37b960d11b602082015290565b506116ad610cce565b692832b0b1b2b6b0b5b2b960b11b602082015290565b506116cc610bfc565b7021b7b6b6bab734ba3c90213ab4b63232b960791b602082015290565b506116f2610cab565b6f2a393ab9ba32b21022b73237b939b2b960811b602082015290565b50611717610cf1565b6d2230b4b63c9021b430b6b834b7b760911b602082015290565b5061173a610cce565b692837bbb2b9102ab9b2b960b11b602082015290565b50611759610cab565b6f23b7bb32b93730b731b2902b37ba32b960811b602082015290565b5061177e610c88565b6c20b1ba34bb32902a3930b232b960991b602082015290565b506117a0610c65565b6b22b0b9363c902a32b9ba32b960a11b602082015290565b506117c1610c42565b6e2337bab73234b7339026b2b6b132b960891b602082015290565b506117e5610c42565b6e47656e657369732050726573616c6560881b602082015290565b50611809610c1f565b662834b7b732b2b960c91b602082015290565b600080516020611bd5833981519152811461191f57600080516020611cd5833981519152811461191757600080516020611d35833981519152811461191f57600080516020611df5833981519152811461192757600080516020611e35833981519152811461190e57600080516020611d95833981519152811461190e57600080516020611d55833981519152811461191757600080516020611ef5833981519152811461191f57600080516020611c95833981519152811461191757600080516020611e55833981519152811461190e57600080516020611c358339815191521461190757600090565b62ed4e0090565b506301e1338090565b5062ed4e0090565b506276a70090565b5062278d0090565b600080516020611eb58339815191528114611b9057600080516020611c558339815191528114611b8a57600080516020611bb58339815191528114611b8457600080516020611cb58339815191528114611b9657600080516020611bd58339815191528114611ba257600080516020611cd58339815191528114611b9657600080516020611d358339815191528114611b8a57600080516020611df58339815191528114611bae57600080516020611cf58339815191528114611b9057600080516020611d758339815191528114611b9c57600080516020611db58339815191528114611b9657600080516020611e358339815191528114611b9057600080516020611d958339815191528114611b8a57600080516020611d558339815191528114611ba857600080516020611ef58339815191528114611ba257600080516020611c958339815191528114611b9657600080516020611dd58339815191528114611b8457600080516020611e558339815191528114611ba257600080516020611f158339815191528114611b9057600080516020611c758339815191528114611b8a57600080516020611e758339815191528114611b8457600080516020611d158339815191528114611b9c57600080516020611bf58339815191528114611b9657600080516020611e958339815191528114611b9057600080516020611c358339815191528114611b9057600080516020611c158339815191528114611b8a57600080516020611ed58339815191528114611b8457600080516020611e1583398151915214611b7f57600090565b601990565b50603290565b50602890565b50601e90565b50601990565b50602390565b50601490565b50603c90565b50600f9056fecd25a284806e0931bbfbd59e48ca09094f95cc8a54899ac7cf670a7bc084e4c8fe3c33b66e28f14b3d890787766ee667031d474e01f41afd2282c6ddd242b13427b035d29cbd235e68f8e722fb80b6f9a31122fb2c3bce79340725e804fc9992a0bb1af1c90aa52ed052b92714ff0087008cc720049bf1af77cca2600b31e80c9f56690334c710be9812966692e10c040bde4927265518b422c82505f65961ec7866cd9bf5624adbb572bdf0ef2c6611719c1bd1dd881d077900477122585f518b5b16d04624687fcf0d0228f19993c9157c1ed07b41d8d430fd9100eb099fe88cd7ae4080d5a7057c8858e5c9e0a698fbc88b319a304fbaaae0f5c2be2423490320a6eadcaf07ad703766ce2aae1e5a2302fd7b9236ecdacdc6089d556ee6611b4e571958fba4ea5c92407500c44c03a913f7a3c4f5746fc318ba401831b4e5f4f1880c72d8dbafc9805eb1c4bcefcb30af90b0ae932e0f050c81b49112585766071085b8de5ddfb56be1bbf93230fbaa1b5a4a7ed21f7ca2ec8b760127b082a96fb0ea3366184fa9ef274bb2b523bb1410c5597f5b73e284bcc8d9c27caf81de4df86a0cfbc1ca19c1967d53b4f9d906c2f3e5f0b5637ff74d60111ad48d74fe29986656bd77a1f0da32c9315bed40455567f6060bea388c123d4bafff845ac4f6113bf43fb59dba21ffee106d9126a16fd7ef738a99e9f98f3366a7bcd628acf4336c61c8a8031abec411f918f29aa8a8d0d7d07ae250391d186289fb499922d441acdd22f4ae7f00407a46293dd53140dc9fa6beeef35e22cb018b264344d33d23312f0938ef21668aa46fd5bd7b72db718fcdd7e30d1e9db0ea46420720372cedd1d27b066a923b896eea7904ca9ef57e79d18aa00ae08d276de72c77b14ad701a62eb4bddf2c4f992ebf56952b66972847c21daeab6931b6b4aa89a4eb8f1a39279a10a884ddf0b6a95d0e46f341a5809f447de8f39f0c29e43a914272e426caaf9f537d800bdc663bd466690f26963dfd7bb0ed1ed5f323a945377dfc7c3d6722688d7e04217fd02beb9ee0abaf5dd8c4c65c6ad4846a80aae94ca27da03d1a4a2c4366d3db0c7243a29eef9c5e849fe7328823e0b7288dab59d523105c96081090ee4a64cc21b4a34b2247212174b7b9afec075a3d09fd229b01e550e2a717c0595726a19d429ba65a7be318c309e2bbfbe0d178266ba0266404b280f55c3c85690d0abf93de8c24ececede3ee62e529020683594957b8e0c109ace1a26469706673582212201374b93d21bec162f4fb6a3d17a22f569543e8683f57d3f2b89c6bfbb85fc81664736f6c634300081e0033",
  "linkReferences": {},
  "deployedLinkReferences": {}
}